{
  "contractName": "Compensatable",
  "abi": [
    {
      "constant": true,
      "inputs": [
        {
          "name": "",
          "type": "address"
        }
      ],
      "name": "userToWithdrawn",
      "outputs": [
        {
          "name": "",
          "type": "uint256"
        }
      ],
      "payable": false,
      "stateMutability": "view",
      "type": "function"
    },
    {
      "constant": true,
      "inputs": [
        {
          "name": "",
          "type": "address"
        }
      ],
      "name": "userToCompensated",
      "outputs": [
        {
          "name": "",
          "type": "uint256"
        }
      ],
      "payable": false,
      "stateMutability": "view",
      "type": "function"
    },
    {
      "constant": true,
      "inputs": [],
      "name": "compensationPerUser",
      "outputs": [
        {
          "name": "",
          "type": "uint256"
        }
      ],
      "payable": false,
      "stateMutability": "view",
      "type": "function"
    },
    {
      "constant": true,
      "inputs": [],
      "name": "dsla",
      "outputs": [
        {
          "name": "",
          "type": "address"
        }
      ],
      "payable": false,
      "stateMutability": "view",
      "type": "function"
    },
    {
      "constant": true,
      "inputs": [],
      "name": "compensationAmount",
      "outputs": [
        {
          "name": "",
          "type": "uint256"
        }
      ],
      "payable": false,
      "stateMutability": "view",
      "type": "function"
    }
  ],
  "bytecode": "0x608060405234801561001057600080fd5b50610276806100206000396000f3fe60806040526004361061006d576000357c0100000000000000000000000000000000000000000000000000000000900463ffffffff1680635268f5571461007257806365546f86146100d75780637440ac431461013c578063880842bd14610167578063d994df28146101be575b600080fd5b34801561007e57600080fd5b506100c16004803603602081101561009557600080fd5b81019080803573ffffffffffffffffffffffffffffffffffffffff1690602001909291905050506101e9565b6040518082815260200191505060405180910390f35b3480156100e357600080fd5b50610126600480360360208110156100fa57600080fd5b81019080803573ffffffffffffffffffffffffffffffffffffffff169060200190929190505050610201565b6040518082815260200191505060405180910390f35b34801561014857600080fd5b50610151610219565b6040518082815260200191505060405180910390f35b34801561017357600080fd5b5061017c61021f565b604051808273ffffffffffffffffffffffffffffffffffffffff1673ffffffffffffffffffffffffffffffffffffffff16815260200191505060405180910390f35b3480156101ca57600080fd5b506101d3610244565b6040518082815260200191505060405180910390f35b60026020528060005260406000206000915090505481565b60016020528060005260406000206000915090505481565b60035481565b6000809054906101000a900473ffffffffffffffffffffffffffffffffffffffff1681565b6004548156fea165627a7a72305820522f611399bae0249fe43e1c0f68cad4664aaee073442f3732581ce40e6715650029",
  "source": "pragma solidity ^0.5.0;\n\nimport \"openzeppelin-solidity/contracts/math/SafeMath.sol\";\nimport \"openzeppelin-solidity/contracts/token/ERC20/IERC20.sol\";\n\ncontract Compensatable {\n\n    using SafeMath for uint256;\n\n    IERC20 public dsla;\n\n    mapping (address => uint) public userToCompensated;\n    mapping (address => uint) public userToWithdrawn;\n\n    uint public compensationPerUser;\n    uint public compensationAmount;\n\n    function _setInitialuserCompensation() internal {\n        userToCompensated[msg.sender] = compensationPerUser;\n    }\n\n    function _withdrawCompensation() internal {\n        require(userToCompensated[msg.sender] < compensationPerUser);\n\n        uint withdrawalAmount = compensationPerUser.sub(userToCompensated[msg.sender]);\n        userToCompensated[msg.sender] = userToCompensated[msg.sender].add(withdrawalAmount);\n        userToWithdrawn[msg.sender] = userToWithdrawn[msg.sender].add(withdrawalAmount);\n\n        dsla.transfer(msg.sender, withdrawalAmount);\n    }\n\n    function _compensate() internal {\n        compensationPerUser = compensationPerUser.add(compensationAmount);\n    }\n}\n\n",
  "sourcePath": "/Users/Martin_Balk/projects/stacktical/stacktical-mvp-contracts/contracts/SLA/Compensatable.sol",
  "compiler": {
    "name": "solc",
    "version": "0.5.0+commit.1d4f565a.Emscripten.clang"
  },
  "schemaVersion": "3.0.1",
  "updatedAt": "2019-01-16T13:57:56.332Z",
  "devdoc": {
    "methods": {}
  },
  "userdoc": {
    "methods": {}
  }
}