{
  "contractName": "Details",
  "abi": [
    {
      "inputs": [
        {
          "internalType": "address",
          "name": "_slaAddress",
          "type": "address"
        }
      ],
      "name": "getSLADetails",
      "outputs": [
        {
          "internalType": "address",
          "name": "slaOwner",
          "type": "address"
        },
        {
          "internalType": "enum PeriodRegistry.PeriodType",
          "name": "periodType",
          "type": "uint8"
        },
        {
          "internalType": "bool",
          "name": "breachedContract",
          "type": "bool"
        },
        {
          "internalType": "contract SLO",
          "name": "slo",
          "type": "address"
        },
        {
          "internalType": "uint256",
          "name": "creationBlockNumber",
          "type": "uint256"
        },
        {
          "internalType": "uint256",
          "name": "stakersCount",
          "type": "uint256"
        },
        {
          "internalType": "uint256",
          "name": "nextVerifiablePeriod",
          "type": "uint256"
        },
        {
          "internalType": "uint256",
          "name": "slaId",
          "type": "uint256"
        },
        {
          "internalType": "string",
          "name": "ipfsHash",
          "type": "string"
        }
      ],
      "stateMutability": "view",
      "type": "function",
      "constant": true
    },
    {
      "inputs": [
        {
          "internalType": "address",
          "name": "_slaAddress",
          "type": "address"
        }
      ],
      "name": "getSLADetailsArrays",
      "outputs": [
        {
          "internalType": "string[]",
          "name": "dpTokensAddresses",
          "type": "string[]"
        },
        {
          "internalType": "string[]",
          "name": "duTokensAddresses",
          "type": "string[]"
        },
        {
          "internalType": "uint256[]",
          "name": "periodIDs",
          "type": "uint256[]"
        },
        {
          "components": [
            {
              "internalType": "uint256",
              "name": "timestamp",
              "type": "uint256"
            },
            {
              "internalType": "uint256",
              "name": "sli",
              "type": "uint256"
            },
            {
              "internalType": "enum SLA.Status",
              "name": "status",
              "type": "uint8"
            }
          ],
          "internalType": "struct SLA.PeriodSLI[]",
          "name": "periodSLIs",
          "type": "tuple[]"
        },
        {
          "components": [
            {
              "internalType": "address",
              "name": "tokenAddress",
              "type": "address"
            },
            {
              "internalType": "uint256",
              "name": "totalStake",
              "type": "uint256"
            },
            {
              "internalType": "uint256",
              "name": "usersPool",
              "type": "uint256"
            },
            {
              "internalType": "uint256",
              "name": "providerPool",
              "type": "uint256"
            }
          ],
          "internalType": "struct Details.TokenStake[]",
          "name": "tokensStake",
          "type": "tuple[]"
        }
      ],
      "stateMutability": "view",
      "type": "function",
      "constant": true
    }
  ],
  "bytecode": "0x608060405234801561001057600080fd5b50611583806100206000396000f3fe608060405234801561001057600080fd5b50600436106100365760003560e01c8063576320891461003b578063afa029e41461006c575b600080fd5b61004e6100493660046110eb565b610090565b604051610063999897969594939291906113c0565b60405180910390f35b61007f61007a3660046110eb565b6104c0565b604051610063959493929190611430565b600080600080600080600080606060008a9050806001600160a01b0316638da5cb5b6040518163ffffffff1660e01b815260040160206040518083038186803b1580156100dc57600080fd5b505afa1580156100f0573d6000803e3d6000fd5b505050506040513d601f19601f82011682018060405250810190610114919061110e565b9950806001600160a01b03166346e0fbae6040518163ffffffff1660e01b815260040160206040518083038186803b15801561014f57600080fd5b505afa158015610163573d6000803e3d6000fd5b505050506040513d601f19601f82011682018060405250810190610187919061114a565b9850806001600160a01b0316637fd788aa6040518163ffffffff1660e01b815260040160206040518083038186803b1580156101c257600080fd5b505afa1580156101d6573d6000803e3d6000fd5b505050506040513d601f19601f820116820180604052508101906101fa919061112a565b9750806001600160a01b031663cd92890e6040518163ffffffff1660e01b815260040160206040518083038186803b15801561023557600080fd5b505afa158015610249573d6000803e3d6000fd5b505050506040513d601f19601f8201168201806040525081019061026d919061110e565b9650806001600160a01b0316631bf309296040518163ffffffff1660e01b815260040160206040518083038186803b1580156102a857600080fd5b505afa1580156102bc573d6000803e3d6000fd5b505050506040513d601f19601f820116820180604052508101906102e09190611204565b9550806001600160a01b0316639fabeb006040518163ffffffff1660e01b815260040160206040518083038186803b15801561031b57600080fd5b505afa15801561032f573d6000803e3d6000fd5b505050506040513d601f19601f820116820180604052508101906103539190611204565b9450806001600160a01b031663b1659bad6040518163ffffffff1660e01b815260040160206040518083038186803b15801561038e57600080fd5b505afa1580156103a2573d6000803e3d6000fd5b505050506040513d601f19601f820116820180604052508101906103c69190611204565b9350806001600160a01b031663f2db10fe6040518163ffffffff1660e01b815260040160206040518083038186803b15801561040157600080fd5b505afa158015610415573d6000803e3d6000fd5b505050506040513d601f19601f820116820180604052508101906104399190611204565b9250806001600160a01b031663c623674f6040518163ffffffff1660e01b815260040160006040518083038186803b15801561047457600080fd5b505afa158015610488573d6000803e3d6000fd5b505050506040513d6000823e601f3d908101601f191682016040526104b09190810190611169565b9150509193959799909294969850565b606080606080606060008690506000816001600160a01b0316635fc1b5fd6040518163ffffffff1660e01b815260040160206040518083038186803b15801561050857600080fd5b505afa15801561051c573d6000803e3d6000fd5b505050506040513d601f19601f820116820180604052508101906105409190611204565b90508067ffffffffffffffff8111801561055957600080fd5b5060405190808252806020026020018201604052801561059357816020015b61058061108f565b8152602001906001900390816105785790505b5093508067ffffffffffffffff811180156105ad57600080fd5b506040519080825280602002602001820160405280156105d7578160200160208202803683370190505b50945060005b818110156107cd57604051630ae9ea4560e01b81526000906001600160a01b03851690630ae9ea45906106149085906004016114fc565b60206040518083038186803b15801561062c57600080fd5b505afa158015610640573d6000803e3d6000fd5b505050506040513d601f19601f820116820180604052508101906106649190611204565b90506000806000866001600160a01b0316634190edde856040518263ffffffff1660e01b815260040161069791906114fc565b60606040518083038186803b1580156106af57600080fd5b505afa1580156106c3573d6000803e3d6000fd5b505050506040513d601f19601f820116820180604052508101906106e7919061121c565b925092509250604051806060016040528084815260200183815260200182600281111561071057fe5b81525089868151811061071f57fe5b6020908102919091010152604051630ae9ea4560e01b81526001600160a01b03881690630ae9ea45906107569088906004016114fc565b60206040518083038186803b15801561076e57600080fd5b505afa158015610782573d6000803e3d6000fd5b505050506040513d601f19601f820116820180604052508101906107a69190611204565b8a86815181106107b257fe5b60209081029190910101525050600190920191506105dd9050565b506000826001600160a01b031663b7bc347e6040518163ffffffff1660e01b815260040160206040518083038186803b15801561080957600080fd5b505afa15801561081d573d6000803e3d6000fd5b505050506040513d601f19601f820116820180604052508101906108419190611204565b90508067ffffffffffffffff8111801561085a57600080fd5b5060405190808252806020026020018201604052801561089457816020015b6108816110ba565b8152602001906001900390816108795790505b5093508067ffffffffffffffff811180156108ae57600080fd5b506040519080825280602002602001820160405280156108e257816020015b60608152602001906001900390816108cd5790505b5097508067ffffffffffffffff811180156108fc57600080fd5b5060405190808252806020026020018201604052801561093057816020015b606081526020019060019003908161091b5790505b50965060005b81811015610ebf57604051632f2f971360e11b81526000906001600160a01b03861690635e5f2e269061096d9085906004016114fc565b60206040518083038186803b15801561098557600080fd5b505afa158015610999573d6000803e3d6000fd5b505050506040513d601f19601f820116820180604052508101906109bd919061110e565b90506040518060800160405280826001600160a01b03168152602001866001600160a01b031663639b6fc3886001600160a01b0316635e5f2e26876040518263ffffffff1660e01b8152600401610a1491906114fc565b60206040518083038186803b158015610a2c57600080fd5b505afa158015610a40573d6000803e3d6000fd5b505050506040513d601f19601f82011682018060405250810190610a64919061110e565b6040518263ffffffff1660e01b8152600401610a8091906113ac565b60206040518083038186803b158015610a9857600080fd5b505afa158015610aac573d6000803e3d6000fd5b505050506040513d601f19601f82011682018060405250810190610ad09190611204565b604051632f2f971360e11b81526001600160a01b0389169063484fbf2b908290635e5f2e2690610b04908a906004016114fc565b60206040518083038186803b158015610b1c57600080fd5b505afa158015610b30573d6000803e3d6000fd5b505050506040513d601f19601f82011682018060405250810190610b54919061110e565b6040518263ffffffff1660e01b8152600401610b7091906113ac565b60206040518083038186803b158015610b8857600080fd5b505afa158015610b9c573d6000803e3d6000fd5b505050506040513d601f19601f82011682018060405250810190610bc09190611204565b018152602001866001600160a01b031663484fbf2b886001600160a01b0316635e5f2e26876040518263ffffffff1660e01b8152600401610c0191906114fc565b60206040518083038186803b158015610c1957600080fd5b505afa158015610c2d573d6000803e3d6000fd5b505050506040513d601f19601f82011682018060405250810190610c51919061110e565b6040518263ffffffff1660e01b8152600401610c6d91906113ac565b60206040518083038186803b158015610c8557600080fd5b505afa158015610c99573d6000803e3d6000fd5b505050506040513d601f19601f82011682018060405250810190610cbd9190611204565b8152602001866001600160a01b031663639b6fc3886001600160a01b0316635e5f2e26876040518263ffffffff1660e01b8152600401610cfd91906114fc565b60206040518083038186803b158015610d1557600080fd5b505afa158015610d29573d6000803e3d6000fd5b505050506040513d601f19601f82011682018060405250810190610d4d919061110e565b6040518263ffffffff1660e01b8152600401610d6991906113ac565b60206040518083038186803b158015610d8157600080fd5b505afa158015610d95573d6000803e3d6000fd5b505050506040513d601f19601f82011682018060405250810190610db99190611204565b815250868381518110610dc857fe5b6020026020010181905250610e5881866001600160a01b0316634fb2647e846040518263ffffffff1660e01b8152600401610e0391906113ac565b60206040518083038186803b158015610e1b57600080fd5b505afa158015610e2f573d6000803e3d6000fd5b505050506040513d601f19601f82011682018060405250810190610e53919061110e565b610ecc565b8a8381518110610e6457fe5b6020026020010181905250610e9f81866001600160a01b0316634e0c91f6846040518263ffffffff1660e01b8152600401610e0391906113ac565b898381518110610eab57fe5b602090810291909101015250600101610936565b5050505091939590929450565b606080610ed883610f13565b90506060610ee585610f13565b90508082604051602001610efa929190611370565b6040516020818303038152906040529250505092915050565b604080518082018252601081526f181899199a1a9b1b9c1cb0b131b232b360811b60208201528151602a80825260608281019094526001600160a01b03851692918491602082018180368337019050509050600360fc1b81600081518110610f7757fe5b60200101906001600160f81b031916908160001a905350600f60fb1b81600181518110610fa057fe5b60200101906001600160f81b031916908160001a90535060005b6014811015611086578260048583600c0160208110610fd557fe5b1a60f81b6001600160f81b031916901c60f81c60ff1681518110610ff557fe5b602001015160f81c60f81b82826002026002018151811061101257fe5b60200101906001600160f81b031916908160001a905350828482600c016020811061103957fe5b825191901a600f1690811061104a57fe5b602001015160f81c60f81b82826002026003018151811061106757fe5b60200101906001600160f81b031916908160001a905350600101610fba565b50949350505050565b60405180606001604052806000815260200160008152602001600060028111156110b557fe5b905290565b604051806080016040528060006001600160a01b031681526020016000815260200160008152602001600081525090565b6000602082840312156110fc578081fd5b813561110781611535565b9392505050565b60006020828403121561111f578081fd5b815161110781611535565b60006020828403121561113b578081fd5b81518015158114611107578182fd5b60006020828403121561115b578081fd5b815160068110611107578182fd5b60006020828403121561117a578081fd5b815167ffffffffffffffff80821115611191578283fd5b818401915084601f8301126111a4578283fd5b8151818111156111b2578384fd5b604051601f8201601f1916810160200183811182821017156111d2578586fd5b6040528181528382016020018710156111e9578485fd5b6111fa826020830160208701611505565b9695505050505050565b600060208284031215611215578081fd5b5051919050565b600080600060608486031215611230578182fd5b835192506020840151915060408401516003811061124c578182fd5b809150509250925092565b6000815183526020820151602084015260408201516003811061127657fe5b6040840152505060600190565b815260200190565b60008282518085526020808601955080818302840101818601855b848110156112d457601f198684030189526112c2838351611344565b988401989250908301906001016112a6565b5090979650505050505050565b6000815180845260208085019450808401835b8381101561133957815180516001600160a01b0316885283810151848901526040808201519089015260609081015190880152608090960195908201906001016112f4565b509495945050505050565b6000815180845261135c816020860160208601611505565b601f01601f19169290920160200192915050565b60008351611382818460208801611505565b601d60f91b90830190815283516113a0816001840160208801611505565b01600101949350505050565b6001600160a01b0391909116815260200190565b6001600160a01b038a811682526000906101209060068c106113de57fe5b8b60208501528a15156040850152808a166060850152508760808401528660a08401528560c08401528460e08401528061010084015261142081840185611344565b9c9b505050505050505050505050565b600060a0825261144360a083018861128b565b602083820381850152611456828961128b565b9150838203604085015281875161146d81856114fc565b91508289019350845b8181101561149757611489838651611283565b948401949250600101611476565b5050848103606086015280925086516114b081836114fc565b93508288019150845b818110156114da576114cc858451611257565b9450918301916001016114b9565b5050505082810360808401526114f081856112e1565b98975050505050505050565b90815260200190565b60005b83811015611520578181015183820152602001611508565b8381111561152f576000848401525b50505050565b6001600160a01b038116811461154a57600080fd5b5056fea26469706673582212205b45bab596900d010a53637cfcdc964661edad6c00c89951c933343579c8ac5664736f6c634300060c0033",
  "immutableReferences": {},
  "source": "// SPDX-License-Identifier: MIT\npragma solidity ^0.6.0;\npragma experimental ABIEncoderV2;\n\nimport \"./SLO.sol\";\nimport \"./SLA.sol\";\nimport \"./SLARegistry.sol\";\nimport \"./StakeRegistry.sol\";\nimport \"./PeriodRegistry.sol\";\nimport \"./MessengerRegistry.sol\";\nimport \"./Staking.sol\";\n\n/**\n * @title Details\n * @dev Details is a contract to fetch details of contracts with a single RPC endpoint\n */\ncontract Details {\n    struct TokenStake {\n        address tokenAddress;\n        uint256 totalStake;\n        uint256 usersPool;\n        uint256 providerPool;\n    }\n\n    /**\n     * @dev external view function that returns all agreement information\n     * @return slaOwner 1. address  owner\n     * @return periodType 2. periodType of the sla contract\n     * @return breachedContract 3. breached contract\n     * @return slo 4. addresses of the SLO\n     * @return creationBlockNumber 5. addresses of the SLO\n     * @return stakersCount 6. amount of stakers\n     * @return nextVerifiablePeriod 7. amount of stakers\n     * @return slaId 8. -\n     * @return ipfsHash 9. string  ipfsHash\n     */\n\n    function getSLADetails(address _slaAddress)\n        external\n        view\n        returns (\n            address slaOwner,\n            PeriodRegistry.PeriodType periodType,\n            bool breachedContract,\n            SLO slo,\n            uint256 creationBlockNumber,\n            uint256 stakersCount,\n            uint256 nextVerifiablePeriod,\n            uint256 slaId,\n            string memory ipfsHash\n        )\n    {\n        SLA sla = SLA(_slaAddress);\n        slaOwner = sla.owner();\n        periodType = sla.periodType();\n        breachedContract = sla.breachedContract();\n        slo = sla.slo();\n        creationBlockNumber = sla.creationBlockNumber();\n        stakersCount = sla.getStakersLength();\n        nextVerifiablePeriod = sla.nextVerifiablePeriod();\n        slaId = sla.slaID();\n        ipfsHash = sla.ipfsHash();\n    }\n\n    function getSLADetailsArrays(address _slaAddress)\n        external\n        view\n        returns (\n            string[] memory dpTokensAddresses,\n            string[] memory duTokensAddresses,\n            uint256[] memory periodIDs,\n            SLA.PeriodSLI[] memory periodSLIs,\n            TokenStake[] memory tokensStake\n        )\n    {\n        SLA sla = SLA(_slaAddress);\n        uint256 periodIdsLength = sla.getPeriodIdsLength();\n        periodSLIs = new SLA.PeriodSLI[](periodIdsLength);\n        periodIDs = new uint256[](periodIdsLength);\n        for (uint256 index = 0; index < periodIdsLength; index++) {\n            uint256 periodId = sla.periodIds(index);\n            (uint256 timestamp, uint256 sli, SLA.Status status) =\n                sla.periodSLIs(periodId);\n            periodSLIs[index] = SLA.PeriodSLI({\n                status: status,\n                sli: sli,\n                timestamp: timestamp\n            });\n            periodIDs[index] = sla.periodIds(index);\n        }\n        uint256 allowedTokensLength = sla.getAllowedTokensLength();\n        tokensStake = new TokenStake[](allowedTokensLength);\n        dpTokensAddresses = new string[](allowedTokensLength);\n        duTokensAddresses = new string[](allowedTokensLength);\n        for (uint256 index = 0; index < allowedTokensLength; index++) {\n            address tokenAddress = sla.allowedTokens(index);\n            tokensStake[index] = TokenStake({\n                tokenAddress: tokenAddress,\n                totalStake: sla.usersPool(sla.allowedTokens(index)) +\n                    sla.providerPool(sla.allowedTokens(index)),\n                usersPool: sla.usersPool(sla.allowedTokens(index)),\n                providerPool: sla.providerPool(sla.allowedTokens(index))\n            });\n            dpTokensAddresses[index] = _packDToken(\n                tokenAddress,\n                address(sla.dpTokenRegistry(tokenAddress))\n            );\n            duTokensAddresses[index] = _packDToken(\n                tokenAddress,\n                address(sla.duTokenRegistry(tokenAddress))\n            );\n        }\n    }\n\n    function _packDToken(address _tokenAddress, address _dTokenAddress)\n        internal\n        pure\n        returns (string memory)\n    {\n        string memory dTokenStringAddress = _addressToString(_dTokenAddress);\n        string memory tokenStringAddress = _addressToString(_tokenAddress);\n        return\n            string(\n                abi.encodePacked(tokenStringAddress, \":\", dTokenStringAddress)\n            );\n    }\n\n    function _addressToString(address _address)\n        internal\n        pure\n        returns (string memory)\n    {\n        bytes32 _bytes = bytes32(uint256(_address));\n        bytes memory HEX = \"0123456789abcdef\";\n        bytes memory _string = new bytes(42);\n        _string[0] = \"0\";\n        _string[1] = \"x\";\n        for (uint256 i = 0; i < 20; i++) {\n            _string[2 + i * 2] = HEX[uint8(_bytes[i + 12] >> 4)];\n            _string[3 + i * 2] = HEX[uint8(_bytes[i + 12] & 0x0f)];\n        }\n        return string(_string);\n    }\n}\n",
  "sourcePath": "/Users/matiasbn/Desktop/stacktical/stacktical-dsla-contracts/contracts/Details.sol",
  "compiler": {
    "name": "solc",
    "version": "0.6.12+commit.27d51765.Emscripten.clang"
  },
  "schemaVersion": "3.3.3",
  "updatedAt": "2021-03-08T16:28:29.392Z",
  "networkType": "ethereum",
  "devdoc": {
    "details": "Details is a contract to fetch details of contracts with a single RPC endpoint",
    "kind": "dev",
    "methods": {
      "getSLADetails(address)": {
        "details": "external view function that returns all agreement information",
        "returns": {
          "breachedContract": "3. breached contract",
          "creationBlockNumber": "5. addresses of the SLO",
          "ipfsHash": "9. string  ipfsHash",
          "nextVerifiablePeriod": "7. amount of stakers",
          "periodType": "2. periodType of the sla contract",
          "slaId": "8. -",
          "slaOwner": "1. address  owner",
          "slo": "4. addresses of the SLO",
          "stakersCount": "6. amount of stakers"
        }
      }
    },
    "title": "Details",
    "version": 1
  },
  "userdoc": {
    "kind": "user",
    "methods": {},
    "version": 1
  }
}