{
  "contractName": "Details",
  "abi": [
    {
      "inputs": [
        {
          "internalType": "address",
          "name": "_slaAddress",
          "type": "address"
        }
      ],
      "name": "getSLADynamicDetails",
      "outputs": [
        {
          "internalType": "bool",
          "name": "breachedContract",
          "type": "bool"
        },
        {
          "internalType": "uint256",
          "name": "stakersCount",
          "type": "uint256"
        },
        {
          "internalType": "uint256",
          "name": "nextVerifiablePeriod",
          "type": "uint256"
        }
      ],
      "stateMutability": "view",
      "type": "function",
      "constant": true
    },
    {
      "inputs": [
        {
          "internalType": "address",
          "name": "_slaAddress",
          "type": "address"
        }
      ],
      "name": "getSLAStaticDetails",
      "outputs": [
        {
          "internalType": "address",
          "name": "slaOwner",
          "type": "address"
        },
        {
          "internalType": "bool",
          "name": "whiteListed",
          "type": "bool"
        },
        {
          "internalType": "enum PeriodRegistry.PeriodType",
          "name": "periodType",
          "type": "uint8"
        },
        {
          "internalType": "address",
          "name": "sloAddress",
          "type": "address"
        },
        {
          "internalType": "enum SLORegistry.SLOType",
          "name": "sloType",
          "type": "uint8"
        },
        {
          "internalType": "uint256",
          "name": "sloValue",
          "type": "uint256"
        },
        {
          "internalType": "uint256",
          "name": "creationBlockNumber",
          "type": "uint256"
        },
        {
          "internalType": "uint256",
          "name": "slaId",
          "type": "uint256"
        },
        {
          "internalType": "uint128",
          "name": "initialPeriodId",
          "type": "uint128"
        },
        {
          "internalType": "uint128",
          "name": "finalPeriodId",
          "type": "uint128"
        },
        {
          "internalType": "string",
          "name": "ipfsHash",
          "type": "string"
        }
      ],
      "stateMutability": "view",
      "type": "function",
      "constant": true
    },
    {
      "inputs": [
        {
          "internalType": "address",
          "name": "_slaAddress",
          "type": "address"
        }
      ],
      "name": "getSLADetailsArrays",
      "outputs": [
        {
          "components": [
            {
              "internalType": "uint256",
              "name": "timestamp",
              "type": "uint256"
            },
            {
              "internalType": "uint256",
              "name": "sli",
              "type": "uint256"
            },
            {
              "internalType": "enum SLA.Status",
              "name": "status",
              "type": "uint8"
            }
          ],
          "internalType": "struct SLA.PeriodSLI[]",
          "name": "periodSLIs",
          "type": "tuple[]"
        },
        {
          "components": [
            {
              "internalType": "address",
              "name": "tokenAddress",
              "type": "address"
            },
            {
              "internalType": "uint256",
              "name": "totalStake",
              "type": "uint256"
            },
            {
              "internalType": "uint256",
              "name": "usersPool",
              "type": "uint256"
            },
            {
              "internalType": "uint256",
              "name": "providerPool",
              "type": "uint256"
            }
          ],
          "internalType": "struct Details.TokenStake[]",
          "name": "tokensStake",
          "type": "tuple[]"
        }
      ],
      "stateMutability": "view",
      "type": "function",
      "constant": true
    },
    {
      "inputs": [
        {
          "internalType": "address",
          "name": "_slaAddress",
          "type": "address"
        },
        {
          "internalType": "address",
          "name": "_owner",
          "type": "address"
        }
      ],
      "name": "getDTokensDetails",
      "outputs": [
        {
          "components": [
            {
              "internalType": "address",
              "name": "tokenAddress",
              "type": "address"
            },
            {
              "internalType": "uint256",
              "name": "totalSupply",
              "type": "uint256"
            },
            {
              "internalType": "address",
              "name": "dTokenAddress",
              "type": "address"
            },
            {
              "internalType": "string",
              "name": "dTokenSymbol",
              "type": "string"
            },
            {
              "internalType": "string",
              "name": "dTokenName",
              "type": "string"
            },
            {
              "internalType": "uint256",
              "name": "balance",
              "type": "uint256"
            },
            {
              "internalType": "uint256",
              "name": "allowance",
              "type": "uint256"
            }
          ],
          "internalType": "struct Details.DtokenDetails[]",
          "name": "dpTokens",
          "type": "tuple[]"
        },
        {
          "components": [
            {
              "internalType": "address",
              "name": "tokenAddress",
              "type": "address"
            },
            {
              "internalType": "uint256",
              "name": "totalSupply",
              "type": "uint256"
            },
            {
              "internalType": "address",
              "name": "dTokenAddress",
              "type": "address"
            },
            {
              "internalType": "string",
              "name": "dTokenSymbol",
              "type": "string"
            },
            {
              "internalType": "string",
              "name": "dTokenName",
              "type": "string"
            },
            {
              "internalType": "uint256",
              "name": "balance",
              "type": "uint256"
            },
            {
              "internalType": "uint256",
              "name": "allowance",
              "type": "uint256"
            }
          ],
          "internalType": "struct Details.DtokenDetails[]",
          "name": "duTokens",
          "type": "tuple[]"
        }
      ],
      "stateMutability": "view",
      "type": "function",
      "constant": true
    }
  ],
  "bytecode": "0x608060405234801561001057600080fd5b50611d6f806100206000396000f3fe608060405234801561001057600080fd5b506004361061004c5760003560e01c8063431b7770146100515780637922f3341461007c5780638ab9593c1461009d578063afa029e4146100c7575b600080fd5b61006461005f366004611851565b6100e8565b60405161007393929190611cb9565b60405180910390f35b61008f61008a366004611890565b610251565b604051610073929190611bcc565b6100b06100ab366004611851565b610aba565b6040516100739b9a99989796959493929190611b35565b6100da6100d5366004611851565b610fe4565b604051610073929190611bfa565b600080600080849050806001600160a01b0316637fd788aa6040518163ffffffff1660e01b815260040160206040518083038186803b15801561012a57600080fd5b505afa15801561013e573d6000803e3d6000fd5b505050506040513d601f19601f8201168201806040525081019061016291906118c8565b9350806001600160a01b0316639fabeb006040518163ffffffff1660e01b815260040160206040518083038186803b15801561019d57600080fd5b505afa1580156101b1573d6000803e3d6000fd5b505050506040513d601f19601f820116820180604052508101906101d591906119c6565b9250806001600160a01b031663b1659bad6040518163ffffffff1660e01b815260040160206040518083038186803b15801561021057600080fd5b505afa158015610224573d6000803e3d6000fd5b505050506040513d601f19601f8201168201806040525081019061024891906119c6565b93959294505050565b6060806000806001600160a01b0316846001600160a01b03161415905060008590506000816001600160a01b031663b7bc347e6040518163ffffffff1660e01b815260040160206040518083038186803b1580156102ae57600080fd5b505afa1580156102c2573d6000803e3d6000fd5b505050506040513d601f19601f820116820180604052508101906102e691906119c6565b90508067ffffffffffffffff811180156102ff57600080fd5b5060405190808252806020026020018201604052801561033957816020015b6103266117a6565b81526020019060019003908161031e5790505b5094508067ffffffffffffffff8111801561035357600080fd5b5060405190808252806020026020018201604052801561038d57816020015b61037a6117a6565b8152602001906001900390816103725790505b50935060005b81811015610aaf57604051632f2f971360e11b81526000906001600160a01b03851690635e5f2e26906103ca908590600401611cd1565b60206040518083038186803b1580156103e257600080fd5b505afa1580156103f6573d6000803e3d6000fd5b505050506040513d601f19601f8201168201806040525081019061041a9190611874565b90506000846001600160a01b0316634fb2647e836040518263ffffffff1660e01b815260040161044a9190611b07565b60206040518083038186803b15801561046257600080fd5b505afa158015610476573d6000803e3d6000fd5b505050506040513d601f19601f8201168201806040525081019061049a9190611874565b90506040518060e00160405280836001600160a01b03168152602001826001600160a01b03166318160ddd6040518163ffffffff1660e01b815260040160206040518083038186803b1580156104ef57600080fd5b505afa158015610503573d6000803e3d6000fd5b505050506040513d601f19601f8201168201806040525081019061052791906119c6565b8152602001826001600160a01b03168152602001826001600160a01b03166395d89b416040518163ffffffff1660e01b815260040160006040518083038186803b15801561057457600080fd5b505afa158015610588573d6000803e3d6000fd5b505050506040513d6000823e601f3d908101601f191682016040526105b09190810190611904565b8152602001826001600160a01b03166306fdde036040518163ffffffff1660e01b815260040160006040518083038186803b1580156105ee57600080fd5b505afa158015610602573d6000803e3d6000fd5b505050506040513d6000823e601f3d908101601f1916820160405261062a9190810190611904565b81526020018761063b5760006106b7565b6040516370a0823160e01b81526001600160a01b038416906370a0823190610667908e90600401611b07565b60206040518083038186803b15801561067f57600080fd5b505afa158015610693573d6000803e3d6000fd5b505050506040513d601f19601f820116820180604052508101906106b791906119c6565b8152602001876106c8576000610746565b826001600160a01b031663dd62ed3e8c8e6040518363ffffffff1660e01b81526004016106f6929190611b1b565b60206040518083038186803b15801561070e57600080fd5b505afa158015610722573d6000803e3d6000fd5b505050506040513d601f19601f8201168201806040525081019061074691906119c6565b81525088848151811061075557fe5b60200260200101819052506000856001600160a01b0316634e0c91f6846040518263ffffffff1660e01b815260040161078e9190611b07565b60206040518083038186803b1580156107a657600080fd5b505afa1580156107ba573d6000803e3d6000fd5b505050506040513d601f19601f820116820180604052508101906107de9190611874565b90506040518060e00160405280846001600160a01b03168152602001826001600160a01b03166318160ddd6040518163ffffffff1660e01b815260040160206040518083038186803b15801561083357600080fd5b505afa158015610847573d6000803e3d6000fd5b505050506040513d601f19601f8201168201806040525081019061086b91906119c6565b8152602001826001600160a01b03168152602001826001600160a01b03166395d89b416040518163ffffffff1660e01b815260040160006040518083038186803b1580156108b857600080fd5b505afa1580156108cc573d6000803e3d6000fd5b505050506040513d6000823e601f3d908101601f191682016040526108f49190810190611904565b8152602001826001600160a01b03166306fdde036040518163ffffffff1660e01b815260040160006040518083038186803b15801561093257600080fd5b505afa158015610946573d6000803e3d6000fd5b505050506040513d6000823e601f3d908101601f1916820160405261096e9190810190611904565b81526020018861097f5760006109fb565b6040516370a0823160e01b81526001600160a01b038416906370a08231906109ab908f90600401611b07565b60206040518083038186803b1580156109c357600080fd5b505afa1580156109d7573d6000803e3d6000fd5b505050506040513d601f19601f820116820180604052508101906109fb91906119c6565b815260200188610a0c576000610a8a565b826001600160a01b031663dd62ed3e8d8f6040518363ffffffff1660e01b8152600401610a3a929190611b1b565b60206040518083038186803b158015610a5257600080fd5b505afa158015610a66573d6000803e3d6000fd5b505050506040513d601f19601f82011682018060405250810190610a8a91906119c6565b815250888581518110610a9957fe5b6020908102919091010152505050600101610393565b505050509250929050565b600080600080600080600080600080606060008c90506000816001600160a01b031663cd92890e6040518163ffffffff1660e01b815260040160206040518083038186803b158015610b0b57600080fd5b505afa158015610b1f573d6000803e3d6000fd5b505050506040513d601f19601f82011682018060405250810190610b439190611874565b9050816001600160a01b0316638da5cb5b6040518163ffffffff1660e01b815260040160206040518083038186803b158015610b7e57600080fd5b505afa158015610b92573d6000803e3d6000fd5b505050506040513d601f19601f82011682018060405250810190610bb69190611874565b9c50809950816001600160a01b03166318e454276040518163ffffffff1660e01b815260040160206040518083038186803b158015610bf457600080fd5b505afa158015610c08573d6000803e3d6000fd5b505050506040513d601f19601f82011682018060405250810190610c2c91906118c8565b9b50816001600160a01b03166346e0fbae6040518163ffffffff1660e01b815260040160206040518083038186803b158015610c6757600080fd5b505afa158015610c7b573d6000803e3d6000fd5b505050506040513d601f19601f82011682018060405250810190610c9f91906118e8565b9a50806001600160a01b0316632cd54e2e6040518163ffffffff1660e01b815260040160206040518083038186803b158015610cda57600080fd5b505afa158015610cee573d6000803e3d6000fd5b505050506040513d601f19601f82011682018060405250810190610d1291906118e8565b9850806001600160a01b0316633fa4f2456040518163ffffffff1660e01b815260040160206040518083038186803b158015610d4d57600080fd5b505afa158015610d61573d6000803e3d6000fd5b505050506040513d601f19601f82011682018060405250810190610d8591906119c6565b9750816001600160a01b0316631bf309296040518163ffffffff1660e01b815260040160206040518083038186803b158015610dc057600080fd5b505afa158015610dd4573d6000803e3d6000fd5b505050506040513d601f19601f82011682018060405250810190610df891906119c6565b9650816001600160a01b031663f2db10fe6040518163ffffffff1660e01b815260040160206040518083038186803b158015610e3357600080fd5b505afa158015610e47573d6000803e3d6000fd5b505050506040513d601f19601f82011682018060405250810190610e6b919061199f565b6001600160801b03169550816001600160a01b031663c623674f6040518163ffffffff1660e01b815260040160006040518083038186803b158015610eaf57600080fd5b505afa158015610ec3573d6000803e3d6000fd5b505050506040513d6000823e601f3d908101601f19168201604052610eeb9190810190611904565b9250816001600160a01b0316632526743a6040518163ffffffff1660e01b815260040160206040518083038186803b158015610f2657600080fd5b505afa158015610f3a573d6000803e3d6000fd5b505050506040513d601f19601f82011682018060405250810190610f5e919061199f565b9450816001600160a01b0316633385d3346040518163ffffffff1660e01b815260040160206040518083038186803b158015610f9957600080fd5b505afa158015610fad573d6000803e3d6000fd5b505050506040513d601f19601f82011682018060405250810190610fd1919061199f565b9350505091939597999b90929496989a50565b60608060008390506000816001600160a01b0316632526743a6040518163ffffffff1660e01b815260040160206040518083038186803b15801561102757600080fd5b505afa15801561103b573d6000803e3d6000fd5b505050506040513d601f19601f8201168201806040525081019061105f919061199f565b6001600160801b031690506000826001600160a01b0316633385d3346040518163ffffffff1660e01b815260040160206040518083038186803b1580156110a557600080fd5b505afa1580156110b9573d6000803e3d6000fd5b505050506040513d601f19601f820116820180604052508101906110dd919061199f565b6001600160801b031690506001828203018067ffffffffffffffff8111801561110557600080fd5b5060405190808252806020026020018201604052801561113f57816020015b61112c6117f5565b8152602001906001900390816111245790505b50955060005b81811015611228576040516320c876ef60e11b815284820190600090819081906001600160a01b038a1690634190edde90611184908790600401611cd1565b60606040518083038186803b15801561119c57600080fd5b505afa1580156111b0573d6000803e3d6000fd5b505050506040513d601f19601f820116820180604052508101906111d491906119de565b92509250925060405180606001604052808481526020018381526020018260028111156111fd57fe5b8152508b868151811061120c57fe5b6020026020010181905250505050508080600101915050611145565b506000846001600160a01b031663b7bc347e6040518163ffffffff1660e01b815260040160206040518083038186803b15801561126457600080fd5b505afa158015611278573d6000803e3d6000fd5b505050506040513d601f19601f8201168201806040525081019061129c91906119c6565b90508067ffffffffffffffff811180156112b557600080fd5b506040519080825280602002602001820160405280156112ef57816020015b6112dc611820565b8152602001906001900390816112d45790505b50955060005b8181101561179b57604051632f2f971360e11b81526000906001600160a01b03881690635e5f2e269061132c908590600401611cd1565b60206040518083038186803b15801561134457600080fd5b505afa158015611358573d6000803e3d6000fd5b505050506040513d601f19601f8201168201806040525081019061137c9190611874565b90506040518060800160405280826001600160a01b03168152602001886001600160a01b031663639b6fc38a6001600160a01b0316635e5f2e26876040518263ffffffff1660e01b81526004016113d39190611cd1565b60206040518083038186803b1580156113eb57600080fd5b505afa1580156113ff573d6000803e3d6000fd5b505050506040513d601f19601f820116820180604052508101906114239190611874565b6040518263ffffffff1660e01b815260040161143f9190611b07565b60206040518083038186803b15801561145757600080fd5b505afa15801561146b573d6000803e3d6000fd5b505050506040513d601f19601f8201168201806040525081019061148f91906119c6565b604051632f2f971360e11b81526001600160a01b038b169063484fbf2b908290635e5f2e26906114c3908a90600401611cd1565b60206040518083038186803b1580156114db57600080fd5b505afa1580156114ef573d6000803e3d6000fd5b505050506040513d601f19601f820116820180604052508101906115139190611874565b6040518263ffffffff1660e01b815260040161152f9190611b07565b60206040518083038186803b15801561154757600080fd5b505afa15801561155b573d6000803e3d6000fd5b505050506040513d601f19601f8201168201806040525081019061157f91906119c6565b018152602001886001600160a01b031663484fbf2b8a6001600160a01b0316635e5f2e26876040518263ffffffff1660e01b81526004016115c09190611cd1565b60206040518083038186803b1580156115d857600080fd5b505afa1580156115ec573d6000803e3d6000fd5b505050506040513d601f19601f820116820180604052508101906116109190611874565b6040518263ffffffff1660e01b815260040161162c9190611b07565b60206040518083038186803b15801561164457600080fd5b505afa158015611658573d6000803e3d6000fd5b505050506040513d601f19601f8201168201806040525081019061167c91906119c6565b8152602001886001600160a01b031663639b6fc38a6001600160a01b0316635e5f2e26876040518263ffffffff1660e01b81526004016116bc9190611cd1565b60206040518083038186803b1580156116d457600080fd5b505afa1580156116e8573d6000803e3d6000fd5b505050506040513d601f19601f8201168201806040525081019061170c9190611874565b6040518263ffffffff1660e01b81526004016117289190611b07565b60206040518083038186803b15801561174057600080fd5b505afa158015611754573d6000803e3d6000fd5b505050506040513d601f19601f8201168201806040525081019061177891906119c6565b81525088838151811061178757fe5b6020908102919091010152506001016112f5565b505050505050915091565b6040518060e0016040528060006001600160a01b031681526020016000815260200160006001600160a01b03168152602001606081526020016060815260200160008152602001600081525090565b604051806060016040528060008152602001600081526020016000600281111561181b57fe5b905290565b604051806080016040528060006001600160a01b031681526020016000815260200160008152602001600081525090565b600060208284031215611862578081fd5b813561186d81611d17565b9392505050565b600060208284031215611885578081fd5b815161186d81611d17565b600080604083850312156118a2578081fd5b82356118ad81611d17565b915060208301356118bd81611d17565b809150509250929050565b6000602082840312156118d9578081fd5b8151801515811461186d578182fd5b6000602082840312156118f9578081fd5b815161186d81611d2c565b600060208284031215611915578081fd5b815167ffffffffffffffff8082111561192c578283fd5b81840185601f82011261193d578384fd5b805192508183111561194d578384fd5b604051601f8401601f19168101602001838111828210171561196d578586fd5b604052838152818401602001871015611984578485fd5b611995846020830160208501611cda565b9695505050505050565b6000602082840312156119b0578081fd5b81516001600160801b038116811461186d578182fd5b6000602082840312156119d7578081fd5b5051919050565b6000806000606084860312156119f2578081fd5b8351925060208401519150604084015160038110611a0e578182fd5b809150509250925092565b60008282518085526020808601955080818302840101818601855b84811015611ace57858303601f19018952815180516001600160a01b03908116855285820151868601526040808301519091169085015260608082015160e08287018190529190611a8783880182611adb565b915050608091508183015186820383880152611aa38282611adb565b60a0858101519089015260c09485015194909701939093525050509783019790830190600101611a34565b5090979650505050505050565b60008151808452611af3816020860160208601611cda565b601f01601f19169290920160200192915050565b6001600160a01b0391909116815260200190565b6001600160a01b0392831681529116602082015260400190565b6001600160a01b038c811682528b1515602083015260009061016090611b5a8d611d0a565b604084018d90528b166060840152611b718a611d0a565b608083018a905260a0830189905260c0830188905260e083018790526001600160801b0386811661010085015285166101208401526101408301819052611bba81840185611adb565b9e9d5050505050505050505050505050565b600060408252611bdf6040830185611a19565b8281036020840152611bf18185611a19565b95945050505050565b6040808252835182820181905260009190606090818501906020808901865b83811015611c525781518051865283810151848701528781015160038110611c3d57fe5b86890152509385019390820190600101611c19565b50508683038188015287518084528882019382019250865b81811015611caa57845180516001600160a01b03168552838101518486015287810151888601528601518685015293820193608090930192600101611c6a565b50919998505050505050505050565b92151583526020830191909152604082015260600190565b90815260200190565b60005b83811015611cf5578181015183820152602001611cdd565b83811115611d04576000848401525b50505050565b60068110611d1457fe5b50565b6001600160a01b0381168114611d1457600080fd5b60068110611d1457600080fdfea26469706673582212203ba1810118722426108e3beca2836e395fa1d1aac6f2873685fddbd3a79855ea64736f6c63430006060033",
  "immutableReferences": {},
  "source": "// SPDX-License-Identifier: MIT\npragma solidity 0.6.6;\npragma experimental ABIEncoderV2;\n\nimport \"./SLO.sol\";\nimport \"./SLA.sol\";\nimport \"./SLARegistry.sol\";\nimport \"./StakeRegistry.sol\";\nimport \"./PeriodRegistry.sol\";\nimport \"./MessengerRegistry.sol\";\nimport \"./Staking.sol\";\nimport \"@openzeppelin/contracts/token/ERC20/ERC20.sol\";\n\n/**\n * @title Details\n * @dev Details is a contract to fetch details of contracts with a single RPC endpoint\n */\ncontract Details {\n    struct TokenStake {\n        address tokenAddress;\n        uint256 totalStake;\n        uint256 usersPool;\n        uint256 providerPool;\n    }\n\n    struct DtokenDetails {\n        address tokenAddress;\n        uint256 totalSupply;\n        address dTokenAddress;\n        string dTokenSymbol;\n        string dTokenName;\n        uint256 balance;\n        uint256 allowance;\n    }\n\n    /**\n     * @dev external view function that returns all dynamic agreement information\n     * @return breachedContract 1. breached contract\n     * @return stakersCount 2. amount of stakers\n     * @return nextVerifiablePeriod 3. amount of stakers\n     */\n\n    function getSLADynamicDetails(address _slaAddress)\n        external\n        view\n        returns (\n            bool breachedContract,\n            uint256 stakersCount,\n            uint256 nextVerifiablePeriod\n        )\n    {\n        SLA sla = SLA(_slaAddress);\n        breachedContract = sla.breachedContract();\n        stakersCount = sla.getStakersLength();\n        nextVerifiablePeriod = sla.nextVerifiablePeriod();\n    }\n\n    function getSLAStaticDetails(address _slaAddress)\n        external\n        view\n        returns (\n            address slaOwner,\n            bool whiteListed,\n            PeriodRegistry.PeriodType periodType,\n            address sloAddress,\n            SLORegistry.SLOType sloType,\n            uint256 sloValue,\n            uint256 creationBlockNumber,\n            uint256 slaId,\n            uint128 initialPeriodId,\n            uint128 finalPeriodId,\n            string memory ipfsHash\n        )\n    {\n        SLA sla = SLA(_slaAddress);\n        SLO slo = sla.slo();\n        slaOwner = sla.owner();\n        sloAddress = address(slo);\n        whiteListed = sla.whitelistedContract();\n        periodType = sla.periodType();\n        sloType = slo.sloType();\n        sloValue = slo.value();\n        creationBlockNumber = sla.creationBlockNumber();\n        slaId = sla.slaID();\n        ipfsHash = sla.ipfsHash();\n        initialPeriodId = sla.initialPeriodId();\n        finalPeriodId = sla.finalPeriodId();\n    }\n\n    function getSLADetailsArrays(address _slaAddress)\n        external\n        view\n        returns (\n            SLA.PeriodSLI[] memory periodSLIs,\n            TokenStake[] memory tokensStake\n        )\n    {\n        SLA sla = SLA(_slaAddress);\n        uint256 initialPeriodId = sla.initialPeriodId();\n        uint256 finalPeriodId = sla.finalPeriodId();\n        uint256 periodIdsLength = finalPeriodId - initialPeriodId + 1;\n        periodSLIs = new SLA.PeriodSLI[](periodIdsLength);\n        for (uint256 index = 0; index < periodIdsLength; index++) {\n            uint256 periodId = initialPeriodId + index;\n            (uint256 timestamp, uint256 sli, SLA.Status status) =\n                sla.periodSLIs(periodId);\n            periodSLIs[index] = SLA.PeriodSLI({\n                status: status,\n                sli: sli,\n                timestamp: timestamp\n            });\n        }\n        uint256 allowedTokensLength = sla.getAllowedTokensLength();\n        tokensStake = new TokenStake[](allowedTokensLength);\n        for (uint256 index = 0; index < allowedTokensLength; index++) {\n            address tokenAddress = sla.allowedTokens(index);\n            tokensStake[index] = TokenStake({\n                tokenAddress: tokenAddress,\n                totalStake: sla.usersPool(sla.allowedTokens(index)) +\n                    sla.providerPool(sla.allowedTokens(index)),\n                usersPool: sla.usersPool(sla.allowedTokens(index)),\n                providerPool: sla.providerPool(sla.allowedTokens(index))\n            });\n        }\n    }\n\n    function getDTokensDetails(address _slaAddress, address _owner)\n        public\n        view\n        returns (\n            DtokenDetails[] memory dpTokens,\n            DtokenDetails[] memory duTokens\n        )\n    {\n        bool fromOwner = _owner != address(0x0);\n        SLA sla = SLA(_slaAddress);\n        uint256 allowedTokensLength = sla.getAllowedTokensLength();\n        dpTokens = new DtokenDetails[](allowedTokensLength);\n        duTokens = new DtokenDetails[](allowedTokensLength);\n        for (uint256 index = 0; index < allowedTokensLength; index++) {\n            address tokenAddress = sla.allowedTokens(index);\n            address dpTokenAddress = address(sla.dpTokenRegistry(tokenAddress));\n            dpTokens[index] = DtokenDetails({\n                dTokenAddress: dpTokenAddress,\n                tokenAddress: tokenAddress,\n                totalSupply: ERC20(dpTokenAddress).totalSupply(),\n                dTokenSymbol: ERC20(dpTokenAddress).symbol(),\n                dTokenName: ERC20(dpTokenAddress).name(),\n                balance: fromOwner\n                    ? ERC20(dpTokenAddress).balanceOf(_owner)\n                    : 0,\n                allowance: fromOwner\n                    ? ERC20(dpTokenAddress).allowance(_owner, _slaAddress)\n                    : 0\n            });\n            address duTokenAddress = address(sla.duTokenRegistry(tokenAddress));\n            duTokens[index] = DtokenDetails({\n                dTokenAddress: duTokenAddress,\n                tokenAddress: tokenAddress,\n                totalSupply: ERC20(duTokenAddress).totalSupply(),\n                dTokenSymbol: ERC20(duTokenAddress).symbol(),\n                dTokenName: ERC20(duTokenAddress).name(),\n                balance: fromOwner\n                    ? ERC20(duTokenAddress).balanceOf(_owner)\n                    : 0,\n                allowance: fromOwner\n                    ? ERC20(duTokenAddress).allowance(_owner, _slaAddress)\n                    : 0\n            });\n        }\n    }\n\n    // function getStakeRegistryDetails(StakeRegistry stakeRegistry) public view returns (\n    //     uint256 DSLAburnRate,\n    //         uint256 dslaDepositByPeriod,\n    //         uint256 dslaPlatformReward,\n    //         uint256 dslaMessengerReward,\n    //         uint256 dslaUserReward,\n    //         uint256 dslaBurnedByVerification\n    // ){\n    //     stakeRegistry.getStakingParameters();\n    // }\n\n    function _addressToString(address _address)\n        internal\n        pure\n        returns (string memory)\n    {\n        bytes32 _bytes = bytes32(uint256(_address));\n        bytes memory HEX = \"0123456789abcdef\";\n        bytes memory _string = new bytes(42);\n        _string[0] = \"0\";\n        _string[1] = \"x\";\n        for (uint256 i = 0; i < 20; i++) {\n            _string[2 + i * 2] = HEX[uint8(_bytes[i + 12] >> 4)];\n            _string[3 + i * 2] = HEX[uint8(_bytes[i + 12] & 0x0f)];\n        }\n        return string(_string);\n    }\n}\n",
  "sourcePath": "/Users/matiasbn/Desktop/stacktical/stacktical-dsla-contracts/contracts/Details.sol",
  "compiler": {
    "name": "solc",
    "version": "0.6.6+commit.6c089d02.Emscripten.clang"
  },
  "schemaVersion": "3.3.3",
  "updatedAt": "2021-03-16T16:58:58.715Z",
  "networkType": "ethereum",
  "devdoc": {
    "details": "Details is a contract to fetch details of contracts with a single RPC endpoint",
    "methods": {
      "getSLADynamicDetails(address)": {
        "details": "external view function that returns all dynamic agreement information",
        "returns": {
          "breachedContract": "1. breached contract",
          "nextVerifiablePeriod": "3. amount of stakers",
          "stakersCount": "2. amount of stakers"
        }
      }
    },
    "title": "Details"
  },
  "userdoc": {
    "methods": {}
  }
}