{
  "contractName": "Details",
  "abi": [
    {
      "inputs": [
        {
          "internalType": "address",
          "name": "_slaAddress",
          "type": "address"
        }
      ],
      "name": "getSLADynamicDetails",
      "outputs": [
        {
          "internalType": "bool",
          "name": "breachedContract",
          "type": "bool"
        },
        {
          "internalType": "uint256",
          "name": "stakersCount",
          "type": "uint256"
        },
        {
          "internalType": "uint256",
          "name": "nextVerifiablePeriod",
          "type": "uint256"
        }
      ],
      "stateMutability": "view",
      "type": "function"
    },
    {
      "inputs": [
        {
          "internalType": "address",
          "name": "_slaAddress",
          "type": "address"
        }
      ],
      "name": "getSLAStaticDetails",
      "outputs": [
        {
          "internalType": "address",
          "name": "slaOwner",
          "type": "address"
        },
        {
          "internalType": "address",
          "name": "sloAddress",
          "type": "address"
        },
        {
          "internalType": "bool",
          "name": "whiteListed",
          "type": "bool"
        },
        {
          "internalType": "enum PeriodRegistry.PeriodType",
          "name": "periodType",
          "type": "uint8"
        },
        {
          "internalType": "enum SLORegistry.SLOType",
          "name": "sloType",
          "type": "uint8"
        },
        {
          "internalType": "uint256",
          "name": "sloValue",
          "type": "uint256"
        },
        {
          "internalType": "uint256",
          "name": "creationBlockNumber",
          "type": "uint256"
        },
        {
          "internalType": "uint256",
          "name": "slaId",
          "type": "uint256"
        },
        {
          "internalType": "string",
          "name": "ipfsHash",
          "type": "string"
        }
      ],
      "stateMutability": "view",
      "type": "function"
    },
    {
      "inputs": [
        {
          "internalType": "address",
          "name": "_slaAddress",
          "type": "address"
        }
      ],
      "name": "getSLADetailsArrays",
      "outputs": [
        {
          "internalType": "uint256[]",
          "name": "periodIDs",
          "type": "uint256[]"
        },
        {
          "components": [
            {
              "internalType": "uint256",
              "name": "timestamp",
              "type": "uint256"
            },
            {
              "internalType": "uint256",
              "name": "sli",
              "type": "uint256"
            },
            {
              "internalType": "enum SLA.Status",
              "name": "status",
              "type": "uint8"
            }
          ],
          "internalType": "struct SLA.PeriodSLI[]",
          "name": "periodSLIs",
          "type": "tuple[]"
        },
        {
          "components": [
            {
              "internalType": "address",
              "name": "tokenAddress",
              "type": "address"
            },
            {
              "internalType": "uint256",
              "name": "totalStake",
              "type": "uint256"
            },
            {
              "internalType": "uint256",
              "name": "usersPool",
              "type": "uint256"
            },
            {
              "internalType": "uint256",
              "name": "providerPool",
              "type": "uint256"
            }
          ],
          "internalType": "struct Details.TokenStake[]",
          "name": "tokensStake",
          "type": "tuple[]"
        }
      ],
      "stateMutability": "view",
      "type": "function"
    },
    {
      "inputs": [
        {
          "internalType": "address",
          "name": "_slaAddress",
          "type": "address"
        },
        {
          "internalType": "address",
          "name": "_owner",
          "type": "address"
        }
      ],
      "name": "getDTokensDetails",
      "outputs": [
        {
          "components": [
            {
              "internalType": "address",
              "name": "tokenAddress",
              "type": "address"
            },
            {
              "internalType": "uint256",
              "name": "totalSupply",
              "type": "uint256"
            },
            {
              "internalType": "address",
              "name": "dTokenAddress",
              "type": "address"
            },
            {
              "internalType": "string",
              "name": "dTokenSymbol",
              "type": "string"
            },
            {
              "internalType": "string",
              "name": "dTokenName",
              "type": "string"
            },
            {
              "internalType": "uint256",
              "name": "balance",
              "type": "uint256"
            },
            {
              "internalType": "uint256",
              "name": "allowance",
              "type": "uint256"
            }
          ],
          "internalType": "struct Details.DtokenDetails[]",
          "name": "dpTokens",
          "type": "tuple[]"
        },
        {
          "components": [
            {
              "internalType": "address",
              "name": "tokenAddress",
              "type": "address"
            },
            {
              "internalType": "uint256",
              "name": "totalSupply",
              "type": "uint256"
            },
            {
              "internalType": "address",
              "name": "dTokenAddress",
              "type": "address"
            },
            {
              "internalType": "string",
              "name": "dTokenSymbol",
              "type": "string"
            },
            {
              "internalType": "string",
              "name": "dTokenName",
              "type": "string"
            },
            {
              "internalType": "uint256",
              "name": "balance",
              "type": "uint256"
            },
            {
              "internalType": "uint256",
              "name": "allowance",
              "type": "uint256"
            }
          ],
          "internalType": "struct Details.DtokenDetails[]",
          "name": "duTokens",
          "type": "tuple[]"
        }
      ],
      "stateMutability": "view",
      "type": "function"
    }
  ],
  "bytecode": "0x608060405234801561001057600080fd5b50611d53806100206000396000f3fe608060405234801561001057600080fd5b506004361061004c5760003560e01c8063431b7770146100515780637922f3341461007c5780638ab9593c1461009d578063afa029e4146100c5575b600080fd5b61006461005f366004611822565b6100e7565b60405161007393929190611c8d565b60405180910390f35b61008f61008a366004611861565b610250565b604051610073929190611bb3565b6100b06100ab366004611822565b610ab9565b60405161007399989796959493929190611b3f565b6100d86100d3366004611822565b610eef565b60405161007393929190611be1565b600080600080849050806001600160a01b0316637fd788aa6040518163ffffffff1660e01b815260040160206040518083038186803b15801561012957600080fd5b505afa15801561013d573d6000803e3d6000fd5b505050506040513d601f19601f820116820180604052508101906101619190611899565b9350806001600160a01b0316639fabeb006040518163ffffffff1660e01b815260040160206040518083038186803b15801561019c57600080fd5b505afa1580156101b0573d6000803e3d6000fd5b505050506040513d601f19601f820116820180604052508101906101d49190611970565b9250806001600160a01b031663b1659bad6040518163ffffffff1660e01b815260040160206040518083038186803b15801561020f57600080fd5b505afa158015610223573d6000803e3d6000fd5b505050506040513d601f19601f820116820180604052508101906102479190611970565b93959294505050565b6060806000806001600160a01b0316846001600160a01b03161415905060008590506000816001600160a01b031663b7bc347e6040518163ffffffff1660e01b815260040160206040518083038186803b1580156102ad57600080fd5b505afa1580156102c1573d6000803e3d6000fd5b505050506040513d601f19601f820116820180604052508101906102e59190611970565b90508067ffffffffffffffff811180156102fe57600080fd5b5060405190808252806020026020018201604052801561033857816020015b610325611777565b81526020019060019003908161031d5790505b5094508067ffffffffffffffff8111801561035257600080fd5b5060405190808252806020026020018201604052801561038c57816020015b610379611777565b8152602001906001900390816103715790505b50935060005b81811015610aae57604051632f2f971360e11b81526000906001600160a01b03851690635e5f2e26906103c9908590600401611ca5565b60206040518083038186803b1580156103e157600080fd5b505afa1580156103f5573d6000803e3d6000fd5b505050506040513d601f19601f820116820180604052508101906104199190611845565b90506000846001600160a01b0316634fb2647e836040518263ffffffff1660e01b81526004016104499190611b11565b60206040518083038186803b15801561046157600080fd5b505afa158015610475573d6000803e3d6000fd5b505050506040513d601f19601f820116820180604052508101906104999190611845565b90506040518060e00160405280836001600160a01b03168152602001826001600160a01b03166318160ddd6040518163ffffffff1660e01b815260040160206040518083038186803b1580156104ee57600080fd5b505afa158015610502573d6000803e3d6000fd5b505050506040513d601f19601f820116820180604052508101906105269190611970565b8152602001826001600160a01b03168152602001826001600160a01b03166395d89b416040518163ffffffff1660e01b815260040160006040518083038186803b15801561057357600080fd5b505afa158015610587573d6000803e3d6000fd5b505050506040513d6000823e601f3d908101601f191682016040526105af91908101906118d5565b8152602001826001600160a01b03166306fdde036040518163ffffffff1660e01b815260040160006040518083038186803b1580156105ed57600080fd5b505afa158015610601573d6000803e3d6000fd5b505050506040513d6000823e601f3d908101601f1916820160405261062991908101906118d5565b81526020018761063a5760006106b6565b6040516370a0823160e01b81526001600160a01b038416906370a0823190610666908e90600401611b11565b60206040518083038186803b15801561067e57600080fd5b505afa158015610692573d6000803e3d6000fd5b505050506040513d601f19601f820116820180604052508101906106b69190611970565b8152602001876106c7576000610745565b826001600160a01b031663dd62ed3e8c8e6040518363ffffffff1660e01b81526004016106f5929190611b25565b60206040518083038186803b15801561070d57600080fd5b505afa158015610721573d6000803e3d6000fd5b505050506040513d601f19601f820116820180604052508101906107459190611970565b81525088848151811061075457fe5b60200260200101819052506000856001600160a01b0316634e0c91f6846040518263ffffffff1660e01b815260040161078d9190611b11565b60206040518083038186803b1580156107a557600080fd5b505afa1580156107b9573d6000803e3d6000fd5b505050506040513d601f19601f820116820180604052508101906107dd9190611845565b90506040518060e00160405280846001600160a01b03168152602001826001600160a01b03166318160ddd6040518163ffffffff1660e01b815260040160206040518083038186803b15801561083257600080fd5b505afa158015610846573d6000803e3d6000fd5b505050506040513d601f19601f8201168201806040525081019061086a9190611970565b8152602001826001600160a01b03168152602001826001600160a01b03166395d89b416040518163ffffffff1660e01b815260040160006040518083038186803b1580156108b757600080fd5b505afa1580156108cb573d6000803e3d6000fd5b505050506040513d6000823e601f3d908101601f191682016040526108f391908101906118d5565b8152602001826001600160a01b03166306fdde036040518163ffffffff1660e01b815260040160006040518083038186803b15801561093157600080fd5b505afa158015610945573d6000803e3d6000fd5b505050506040513d6000823e601f3d908101601f1916820160405261096d91908101906118d5565b81526020018861097e5760006109fa565b6040516370a0823160e01b81526001600160a01b038416906370a08231906109aa908f90600401611b11565b60206040518083038186803b1580156109c257600080fd5b505afa1580156109d6573d6000803e3d6000fd5b505050506040513d601f19601f820116820180604052508101906109fa9190611970565b815260200188610a0b576000610a89565b826001600160a01b031663dd62ed3e8d8f6040518363ffffffff1660e01b8152600401610a39929190611b25565b60206040518083038186803b158015610a5157600080fd5b505afa158015610a65573d6000803e3d6000fd5b505050506040513d601f19601f82011682018060405250810190610a899190611970565b815250888581518110610a9857fe5b6020908102919091010152505050600101610392565b505050509250929050565b600080600080600080600080606060008a90506000816001600160a01b031663cd92890e6040518163ffffffff1660e01b815260040160206040518083038186803b158015610b0757600080fd5b505afa158015610b1b573d6000803e3d6000fd5b505050506040513d601f19601f82011682018060405250810190610b3f9190611845565b9050816001600160a01b0316638da5cb5b6040518163ffffffff1660e01b815260040160206040518083038186803b158015610b7a57600080fd5b505afa158015610b8e573d6000803e3d6000fd5b505050506040513d601f19601f82011682018060405250810190610bb29190611845565b9a50809950816001600160a01b03166318e454276040518163ffffffff1660e01b815260040160206040518083038186803b158015610bf057600080fd5b505afa158015610c04573d6000803e3d6000fd5b505050506040513d601f19601f82011682018060405250810190610c289190611899565b9850816001600160a01b03166346e0fbae6040518163ffffffff1660e01b815260040160206040518083038186803b158015610c6357600080fd5b505afa158015610c77573d6000803e3d6000fd5b505050506040513d601f19601f82011682018060405250810190610c9b91906118b9565b9750806001600160a01b0316632cd54e2e6040518163ffffffff1660e01b815260040160206040518083038186803b158015610cd657600080fd5b505afa158015610cea573d6000803e3d6000fd5b505050506040513d601f19601f82011682018060405250810190610d0e91906118b9565b9650806001600160a01b0316633fa4f2456040518163ffffffff1660e01b815260040160206040518083038186803b158015610d4957600080fd5b505afa158015610d5d573d6000803e3d6000fd5b505050506040513d601f19601f82011682018060405250810190610d819190611970565b9550816001600160a01b0316631bf309296040518163ffffffff1660e01b815260040160206040518083038186803b158015610dbc57600080fd5b505afa158015610dd0573d6000803e3d6000fd5b505050506040513d601f19601f82011682018060405250810190610df49190611970565b9450816001600160a01b031663f2db10fe6040518163ffffffff1660e01b815260040160206040518083038186803b158015610e2f57600080fd5b505afa158015610e43573d6000803e3d6000fd5b505050506040513d601f19601f82011682018060405250810190610e679190611970565b9350816001600160a01b031663c623674f6040518163ffffffff1660e01b815260040160006040518083038186803b158015610ea257600080fd5b505afa158015610eb6573d6000803e3d6000fd5b505050506040513d6000823e601f3d908101601f19168201604052610ede91908101906118d5565b925050509193959799909294969850565b606080606060008490506000816001600160a01b0316635fc1b5fd6040518163ffffffff1660e01b815260040160206040518083038186803b158015610f3457600080fd5b505afa158015610f48573d6000803e3d6000fd5b505050506040513d601f19601f82011682018060405250810190610f6c9190611970565b90508067ffffffffffffffff81118015610f8557600080fd5b50604051908082528060200260200182016040528015610fbf57816020015b610fac6117c6565b815260200190600190039081610fa45790505b5093508067ffffffffffffffff81118015610fd957600080fd5b50604051908082528060200260200182016040528015611003578160200160208202803683370190505b50945060005b818110156111f957604051630ae9ea4560e01b81526000906001600160a01b03851690630ae9ea4590611040908590600401611ca5565b60206040518083038186803b15801561105857600080fd5b505afa15801561106c573d6000803e3d6000fd5b505050506040513d601f19601f820116820180604052508101906110909190611970565b90506000806000866001600160a01b0316634190edde856040518263ffffffff1660e01b81526004016110c39190611ca5565b60606040518083038186803b1580156110db57600080fd5b505afa1580156110ef573d6000803e3d6000fd5b505050506040513d601f19601f820116820180604052508101906111139190611988565b925092509250604051806060016040528084815260200183815260200182600281111561113c57fe5b81525089868151811061114b57fe5b6020908102919091010152604051630ae9ea4560e01b81526001600160a01b03881690630ae9ea4590611182908890600401611ca5565b60206040518083038186803b15801561119a57600080fd5b505afa1580156111ae573d6000803e3d6000fd5b505050506040513d601f19601f820116820180604052508101906111d29190611970565b8a86815181106111de57fe5b60209081029190910101525050600190920191506110099050565b506000826001600160a01b031663b7bc347e6040518163ffffffff1660e01b815260040160206040518083038186803b15801561123557600080fd5b505afa158015611249573d6000803e3d6000fd5b505050506040513d601f19601f8201168201806040525081019061126d9190611970565b90508067ffffffffffffffff8111801561128657600080fd5b506040519080825280602002602001820160405280156112c057816020015b6112ad6117f1565b8152602001906001900390816112a55790505b50935060005b8181101561176c57604051632f2f971360e11b81526000906001600160a01b03861690635e5f2e26906112fd908590600401611ca5565b60206040518083038186803b15801561131557600080fd5b505afa158015611329573d6000803e3d6000fd5b505050506040513d601f19601f8201168201806040525081019061134d9190611845565b90506040518060800160405280826001600160a01b03168152602001866001600160a01b031663639b6fc3886001600160a01b0316635e5f2e26876040518263ffffffff1660e01b81526004016113a49190611ca5565b60206040518083038186803b1580156113bc57600080fd5b505afa1580156113d0573d6000803e3d6000fd5b505050506040513d601f19601f820116820180604052508101906113f49190611845565b6040518263ffffffff1660e01b81526004016114109190611b11565b60206040518083038186803b15801561142857600080fd5b505afa15801561143c573d6000803e3d6000fd5b505050506040513d601f19601f820116820180604052508101906114609190611970565b604051632f2f971360e11b81526001600160a01b0389169063484fbf2b908290635e5f2e2690611494908a90600401611ca5565b60206040518083038186803b1580156114ac57600080fd5b505afa1580156114c0573d6000803e3d6000fd5b505050506040513d601f19601f820116820180604052508101906114e49190611845565b6040518263ffffffff1660e01b81526004016115009190611b11565b60206040518083038186803b15801561151857600080fd5b505afa15801561152c573d6000803e3d6000fd5b505050506040513d601f19601f820116820180604052508101906115509190611970565b018152602001866001600160a01b031663484fbf2b886001600160a01b0316635e5f2e26876040518263ffffffff1660e01b81526004016115919190611ca5565b60206040518083038186803b1580156115a957600080fd5b505afa1580156115bd573d6000803e3d6000fd5b505050506040513d601f19601f820116820180604052508101906115e19190611845565b6040518263ffffffff1660e01b81526004016115fd9190611b11565b60206040518083038186803b15801561161557600080fd5b505afa158015611629573d6000803e3d6000fd5b505050506040513d601f19601f8201168201806040525081019061164d9190611970565b8152602001866001600160a01b031663639b6fc3886001600160a01b0316635e5f2e26876040518263ffffffff1660e01b815260040161168d9190611ca5565b60206040518083038186803b1580156116a557600080fd5b505afa1580156116b9573d6000803e3d6000fd5b505050506040513d601f19601f820116820180604052508101906116dd9190611845565b6040518263ffffffff1660e01b81526004016116f99190611b11565b60206040518083038186803b15801561171157600080fd5b505afa158015611725573d6000803e3d6000fd5b505050506040513d601f19601f820116820180604052508101906117499190611970565b81525086838151811061175857fe5b6020908102919091010152506001016112c6565b505050509193909250565b6040518060e0016040528060006001600160a01b031681526020016000815260200160006001600160a01b03168152602001606081526020016060815260200160008152602001600081525090565b60405180606001604052806000815260200160008152602001600060028111156117ec57fe5b905290565b604051806080016040528060006001600160a01b031681526020016000815260200160008152602001600081525090565b600060208284031215611833578081fd5b813561183e81611cfb565b9392505050565b600060208284031215611856578081fd5b815161183e81611cfb565b60008060408385031215611873578081fd5b823561187e81611cfb565b9150602083013561188e81611cfb565b809150509250929050565b6000602082840312156118aa578081fd5b8151801515811461183e578182fd5b6000602082840312156118ca578081fd5b815161183e81611d10565b6000602082840312156118e6578081fd5b815167ffffffffffffffff808211156118fd578283fd5b81840185601f82011261190e578384fd5b805192508183111561191e578384fd5b604051601f8401601f19168101602001838111828210171561193e578586fd5b604052838152818401602001871015611955578485fd5b611966846020830160208501611cbe565b9695505050505050565b600060208284031215611981578081fd5b5051919050565b60008060006060848603121561199c578081fd5b83519250602084015191506040840151600381106119b8578182fd5b809150509250925092565b6000815180845260208085018081965082840281019150828601855b85811015611a75578284038952815180516001600160a01b03908116865286820151878701526040808301519091169086015260608082015160e08288018190529190611a2e83890182611ae5565b915050608091508183015187820383890152611a4a8282611ae5565b60a085810151908a015260c094850151949098019390935250505097840197908401906001016119df565b5091979650505050505050565b6000815180845260208085019450808401835b83811015611ada57815180516001600160a01b031688528381015184890152604080820151908901526060908101519088015260809096019590820190600101611a95565b509495945050505050565b60008151808452611afd816020860160208601611cbe565b601f01601f19169290920160200192915050565b6001600160a01b0391909116815260200190565b6001600160a01b0392831681529116602082015260400190565b6001600160a01b038a811682528916602082015287151560408201526000610120611b6989611cee565b886060840152611b7888611cee565b8760808401528660a08401528560c08401528460e084015280610100840152611ba381840185611ae5565b9c9b505050505050505050505050565b600060408252611bc660408301856119c3565b8281036020840152611bd881856119c3565b95945050505050565b60608082528451828201819052600091906020906080850190828901855b82811015611c1b57815184529284019290840190600101611bff565b50505084810382860152865180825287830191830190855b81811015611c6c5783518051845285810151868501526040611c5781830151611cae565b90850152509284019291850191600101611c33565b50508581036040870152611c808188611a82565b9998505050505050505050565b92151583526020830191909152604082015260600190565b90815260200190565b8060038110611cb957fe5b919050565b60005b83811015611cd9578181015183820152602001611cc1565b83811115611ce8576000848401525b50505050565b60068110611cf857fe5b50565b6001600160a01b0381168114611cf857600080fd5b60068110611cf857600080fdfea26469706673582212207eee408d59d07eb389daae8865f8edd4929b6396002dc53c286c4ab21371e21a64736f6c63430006060033",
  "immutableReferences": {},
  "source": "// SPDX-License-Identifier: MIT\npragma solidity 0.6.6;\npragma experimental ABIEncoderV2;\n\nimport \"./SLO.sol\";\nimport \"./SLA.sol\";\nimport \"./SLARegistry.sol\";\nimport \"./StakeRegistry.sol\";\nimport \"./PeriodRegistry.sol\";\nimport \"./MessengerRegistry.sol\";\nimport \"./Staking.sol\";\nimport \"@openzeppelin/contracts/token/ERC20/ERC20.sol\";\n\n/**\n * @title Details\n * @dev Details is a contract to fetch details of contracts with a single RPC endpoint\n */\ncontract Details {\n    struct TokenStake {\n        address tokenAddress;\n        uint256 totalStake;\n        uint256 usersPool;\n        uint256 providerPool;\n    }\n\n    struct DtokenDetails {\n        address tokenAddress;\n        uint256 totalSupply;\n        address dTokenAddress;\n        string dTokenSymbol;\n        string dTokenName;\n        uint256 balance;\n        uint256 allowance;\n    }\n\n    /**\n     * @dev external view function that returns all dynamic agreement information\n     * @return breachedContract 1. breached contract\n     * @return stakersCount 2. amount of stakers\n     * @return nextVerifiablePeriod 3. amount of stakers\n     */\n\n    function getSLADynamicDetails(address _slaAddress)\n        external\n        view\n        returns (\n            bool breachedContract,\n            uint256 stakersCount,\n            uint256 nextVerifiablePeriod\n        )\n    {\n        SLA sla = SLA(_slaAddress);\n        breachedContract = sla.breachedContract();\n        stakersCount = sla.getStakersLength();\n        nextVerifiablePeriod = sla.nextVerifiablePeriod();\n    }\n\n    /**\n     * @dev external view function that returns all static agreement information\n     * @return slaOwner 1. address  owner\n     * @return sloAddress 5. addresses of the SLO\n     * @return whiteListed 4. breached contract\n     * @return periodType 2. periodType of the sla contract\n     * @return sloType 6. slo type\n     * @return sloValue 7. slo value\n     * @return creationBlockNumber 8. addresses of the SLO\n     * @return slaId 11. -\n     * @return ipfsHash 14. string  ipfsHash\n     */\n    function getSLAStaticDetails(address _slaAddress)\n        external\n        view\n        returns (\n            address slaOwner,\n            address sloAddress,\n            bool whiteListed,\n            PeriodRegistry.PeriodType periodType,\n            SLORegistry.SLOType sloType,\n            uint256 sloValue,\n            uint256 creationBlockNumber,\n            uint256 slaId,\n            string memory ipfsHash\n        )\n    {\n        SLA sla = SLA(_slaAddress);\n        SLO slo = sla.slo();\n        slaOwner = sla.owner();\n        sloAddress = address(slo);\n        whiteListed = sla.whitelistedContract();\n        periodType = sla.periodType();\n        sloType = slo.sloType();\n        sloValue = slo.value();\n        creationBlockNumber = sla.creationBlockNumber();\n        slaId = sla.slaID();\n        ipfsHash = sla.ipfsHash();\n    }\n\n    function getSLADetailsArrays(address _slaAddress)\n        external\n        view\n        returns (\n            uint256[] memory periodIDs,\n            SLA.PeriodSLI[] memory periodSLIs,\n            TokenStake[] memory tokensStake\n        )\n    {\n        SLA sla = SLA(_slaAddress);\n        uint256 periodIdsLength = sla.getPeriodIdsLength();\n        periodSLIs = new SLA.PeriodSLI[](periodIdsLength);\n        periodIDs = new uint256[](periodIdsLength);\n        for (uint256 index = 0; index < periodIdsLength; index++) {\n            uint256 periodId = sla.periodIds(index);\n            (uint256 timestamp, uint256 sli, SLA.Status status) =\n                sla.periodSLIs(periodId);\n            periodSLIs[index] = SLA.PeriodSLI({\n                status: status,\n                sli: sli,\n                timestamp: timestamp\n            });\n            periodIDs[index] = sla.periodIds(index);\n        }\n        uint256 allowedTokensLength = sla.getAllowedTokensLength();\n        tokensStake = new TokenStake[](allowedTokensLength);\n        for (uint256 index = 0; index < allowedTokensLength; index++) {\n            address tokenAddress = sla.allowedTokens(index);\n            tokensStake[index] = TokenStake({\n                tokenAddress: tokenAddress,\n                totalStake: sla.usersPool(sla.allowedTokens(index)) +\n                    sla.providerPool(sla.allowedTokens(index)),\n                usersPool: sla.usersPool(sla.allowedTokens(index)),\n                providerPool: sla.providerPool(sla.allowedTokens(index))\n            });\n        }\n    }\n\n    function getDTokensDetails(address _slaAddress, address _owner)\n        public\n        view\n        returns (\n            DtokenDetails[] memory dpTokens,\n            DtokenDetails[] memory duTokens\n        )\n    {\n        bool fromOwner = _owner != address(0x0);\n        SLA sla = SLA(_slaAddress);\n        uint256 allowedTokensLength = sla.getAllowedTokensLength();\n        dpTokens = new DtokenDetails[](allowedTokensLength);\n        duTokens = new DtokenDetails[](allowedTokensLength);\n        for (uint256 index = 0; index < allowedTokensLength; index++) {\n            address tokenAddress = sla.allowedTokens(index);\n            address dpTokenAddress = address(sla.dpTokenRegistry(tokenAddress));\n            dpTokens[index] = DtokenDetails({\n                dTokenAddress: dpTokenAddress,\n                tokenAddress: tokenAddress,\n                totalSupply: ERC20(dpTokenAddress).totalSupply(),\n                dTokenSymbol: ERC20(dpTokenAddress).symbol(),\n                dTokenName: ERC20(dpTokenAddress).name(),\n                balance: fromOwner\n                    ? ERC20(dpTokenAddress).balanceOf(_owner)\n                    : 0,\n                allowance: fromOwner\n                    ? ERC20(dpTokenAddress).allowance(_owner, _slaAddress)\n                    : 0\n            });\n            address duTokenAddress = address(sla.duTokenRegistry(tokenAddress));\n            duTokens[index] = DtokenDetails({\n                dTokenAddress: duTokenAddress,\n                tokenAddress: tokenAddress,\n                totalSupply: ERC20(duTokenAddress).totalSupply(),\n                dTokenSymbol: ERC20(duTokenAddress).symbol(),\n                dTokenName: ERC20(duTokenAddress).name(),\n                balance: fromOwner\n                    ? ERC20(duTokenAddress).balanceOf(_owner)\n                    : 0,\n                allowance: fromOwner\n                    ? ERC20(duTokenAddress).allowance(_owner, _slaAddress)\n                    : 0\n            });\n        }\n    }\n\n    function _addressToString(address _address)\n        internal\n        pure\n        returns (string memory)\n    {\n        bytes32 _bytes = bytes32(uint256(_address));\n        bytes memory HEX = \"0123456789abcdef\";\n        bytes memory _string = new bytes(42);\n        _string[0] = \"0\";\n        _string[1] = \"x\";\n        for (uint256 i = 0; i < 20; i++) {\n            _string[2 + i * 2] = HEX[uint8(_bytes[i + 12] >> 4)];\n            _string[3 + i * 2] = HEX[uint8(_bytes[i + 12] & 0x0f)];\n        }\n        return string(_string);\n    }\n}\n",
  "sourcePath": "/Users/matiasbn/Desktop/stacktical/stacktical-dsla-contracts/contracts/Details.sol",
  "compiler": {
    "name": "solc",
    "version": "0.6.6+commit.6c089d02.Emscripten.clang"
  },
  "schemaVersion": "3.3.3",
  "updatedAt": "2021-03-13T00:11:33.605Z",
  "devdoc": {
    "details": "Details is a contract to fetch details of contracts with a single RPC endpoint",
    "methods": {
      "getSLADynamicDetails(address)": {
        "details": "external view function that returns all dynamic agreement information",
        "returns": {
          "breachedContract": "1. breached contract",
          "nextVerifiablePeriod": "3. amount of stakers",
          "stakersCount": "2. amount of stakers"
        }
      },
      "getSLAStaticDetails(address)": {
        "details": "external view function that returns all static agreement information",
        "returns": {
          "creationBlockNumber": "8. addresses of the SLO",
          "ipfsHash": "14. string  ipfsHash",
          "periodType": "2. periodType of the sla contract",
          "slaId": "11. -",
          "slaOwner": "1. address  owner",
          "sloAddress": "5. addresses of the SLO",
          "sloType": "6. slo type",
          "sloValue": "7. slo value",
          "whiteListed": "4. breached contract"
        }
      }
    },
    "title": "Details"
  },
  "userdoc": {
    "methods": {}
  }
}