{
  "contractName": "Details",
  "abi": [
    {
      "inputs": [
        {
          "internalType": "address",
          "name": "_slaAddress",
          "type": "address"
        }
      ],
      "name": "getSLADetails",
      "outputs": [
        {
          "internalType": "address",
          "name": "slaOwner",
          "type": "address"
        },
        {
          "internalType": "string",
          "name": "ipfsHash",
          "type": "string"
        },
        {
          "internalType": "contract SLO",
          "name": "slo",
          "type": "address"
        },
        {
          "components": [
            {
              "internalType": "uint256",
              "name": "timestamp",
              "type": "uint256"
            },
            {
              "internalType": "uint256",
              "name": "sli",
              "type": "uint256"
            },
            {
              "internalType": "enum SLA.Status",
              "name": "status",
              "type": "uint8"
            }
          ],
          "internalType": "struct SLA.PeriodSLI[]",
          "name": "periodSLIs",
          "type": "tuple[]"
        },
        {
          "internalType": "uint256[]",
          "name": "periodIDs",
          "type": "uint256[]"
        },
        {
          "internalType": "enum PeriodRegistry.PeriodType",
          "name": "periodType",
          "type": "uint8"
        },
        {
          "internalType": "uint256",
          "name": "stakersCount",
          "type": "uint256"
        },
        {
          "components": [
            {
              "internalType": "address",
              "name": "tokenAddress",
              "type": "address"
            },
            {
              "internalType": "uint256",
              "name": "totalStake",
              "type": "uint256"
            },
            {
              "internalType": "uint256",
              "name": "usersPool",
              "type": "uint256"
            },
            {
              "internalType": "uint256",
              "name": "providerPool",
              "type": "uint256"
            }
          ],
          "internalType": "struct Details.TokenStake[]",
          "name": "tokensStake",
          "type": "tuple[]"
        }
      ],
      "stateMutability": "view",
      "type": "function",
      "constant": true
    }
  ],
  "bytecode": "0x608060405234801561001057600080fd5b50610f14806100206000396000f3fe608060405234801561001057600080fd5b506004361061002b5760003560e01c80635763208914610030575b600080fd5b61004361003e366004610b8a565b610060565b604051610057989796959493929190610d8a565b60405180910390f35b60006060600060608060008060606000899050806001600160a01b0316638da5cb5b6040518163ffffffff1660e01b815260040160206040518083038186803b1580156100ac57600080fd5b505afa1580156100c0573d6000803e3d6000fd5b505050506040513d601f19601f820116820180604052508101906100e49190610bad565b9850806001600160a01b031663c623674f6040518163ffffffff1660e01b815260040160006040518083038186803b15801561011f57600080fd5b505afa158015610133573d6000803e3d6000fd5b505050506040513d6000823e601f3d908101601f1916820160405261015b9190810190610be8565b9750806001600160a01b031663cd92890e6040518163ffffffff1660e01b815260040160206040518083038186803b15801561019657600080fd5b505afa1580156101aa573d6000803e3d6000fd5b505050506040513d601f19601f820116820180604052508101906101ce9190610bad565b9650806001600160a01b03166346e0fbae6040518163ffffffff1660e01b815260040160206040518083038186803b15801561020957600080fd5b505afa15801561021d573d6000803e3d6000fd5b505050506040513d601f19601f820116820180604052508101906102419190610bc9565b93506000816001600160a01b0316635fc1b5fd6040518163ffffffff1660e01b815260040160206040518083038186803b15801561027e57600080fd5b505afa158015610292573d6000803e3d6000fd5b505050506040513d601f19601f820116820180604052508101906102b69190610c83565b90508067ffffffffffffffff811180156102cf57600080fd5b5060405190808252806020026020018201604052801561030957816020015b6102f6610b2e565b8152602001906001900390816102ee5790505b5096508067ffffffffffffffff8111801561032357600080fd5b5060405190808252806020026020018201604052801561034d578160200160208202803683370190505b50955060005b8181101561054357604051630ae9ea4560e01b81526000906001600160a01b03851690630ae9ea459061038a908590600401610e7d565b60206040518083038186803b1580156103a257600080fd5b505afa1580156103b6573d6000803e3d6000fd5b505050506040513d601f19601f820116820180604052508101906103da9190610c83565b90506000806000866001600160a01b0316634190edde856040518263ffffffff1660e01b815260040161040d9190610e7d565b60606040518083038186803b15801561042557600080fd5b505afa158015610439573d6000803e3d6000fd5b505050506040513d601f19601f8201168201806040525081019061045d9190610c9b565b925092509250604051806060016040528084815260200183815260200182600281111561048657fe5b8152508c868151811061049557fe5b6020908102919091010152604051630ae9ea4560e01b81526001600160a01b03881690630ae9ea45906104cc908890600401610e7d565b60206040518083038186803b1580156104e457600080fd5b505afa1580156104f8573d6000803e3d6000fd5b505050506040513d601f19601f8201168201806040525081019061051c9190610c83565b8b868151811061052857fe5b60209081029190910101525050600190920191506103539050565b50816001600160a01b0316639fabeb006040518163ffffffff1660e01b815260040160206040518083038186803b15801561057d57600080fd5b505afa158015610591573d6000803e3d6000fd5b505050506040513d601f19601f820116820180604052508101906105b59190610c83565b93506000826001600160a01b031663b7bc347e6040518163ffffffff1660e01b815260040160206040518083038186803b1580156105f257600080fd5b505afa158015610606573d6000803e3d6000fd5b505050506040513d601f19601f8201168201806040525081019061062a9190610c83565b90508067ffffffffffffffff8111801561064357600080fd5b5060405190808252806020026020018201604052801561067d57816020015b61066a610b59565b8152602001906001900390816106625790505b50935060005b81811015610b1f57604080516080810191829052632f2f971360e11b909152806001600160a01b038616635e5f2e266106bf8560848501610e7d565b60206040518083038186803b1580156106d757600080fd5b505afa1580156106eb573d6000803e3d6000fd5b505050506040513d601f19601f8201168201806040525081019061070f9190610bad565b6001600160a01b03168152602001856001600160a01b031663639b6fc3876001600160a01b0316635e5f2e26866040518263ffffffff1660e01b81526004016107589190610e7d565b60206040518083038186803b15801561077057600080fd5b505afa158015610784573d6000803e3d6000fd5b505050506040513d601f19601f820116820180604052508101906107a89190610bad565b6040518263ffffffff1660e01b81526004016107c49190610d76565b60206040518083038186803b1580156107dc57600080fd5b505afa1580156107f0573d6000803e3d6000fd5b505050506040513d601f19601f820116820180604052508101906108149190610c83565b604051632f2f971360e11b81526001600160a01b0388169063484fbf2b908290635e5f2e2690610848908990600401610e7d565b60206040518083038186803b15801561086057600080fd5b505afa158015610874573d6000803e3d6000fd5b505050506040513d601f19601f820116820180604052508101906108989190610bad565b6040518263ffffffff1660e01b81526004016108b49190610d76565b60206040518083038186803b1580156108cc57600080fd5b505afa1580156108e0573d6000803e3d6000fd5b505050506040513d601f19601f820116820180604052508101906109049190610c83565b018152602001856001600160a01b031663484fbf2b876001600160a01b0316635e5f2e26866040518263ffffffff1660e01b81526004016109459190610e7d565b60206040518083038186803b15801561095d57600080fd5b505afa158015610971573d6000803e3d6000fd5b505050506040513d601f19601f820116820180604052508101906109959190610bad565b6040518263ffffffff1660e01b81526004016109b19190610d76565b60206040518083038186803b1580156109c957600080fd5b505afa1580156109dd573d6000803e3d6000fd5b505050506040513d601f19601f82011682018060405250810190610a019190610c83565b8152602001856001600160a01b031663639b6fc3876001600160a01b0316635e5f2e26866040518263ffffffff1660e01b8152600401610a419190610e7d565b60206040518083038186803b158015610a5957600080fd5b505afa158015610a6d573d6000803e3d6000fd5b505050506040513d601f19601f82011682018060405250810190610a919190610bad565b6040518263ffffffff1660e01b8152600401610aad9190610d76565b60206040518083038186803b158015610ac557600080fd5b505afa158015610ad9573d6000803e3d6000fd5b505050506040513d601f19601f82011682018060405250810190610afd9190610c83565b815250858281518110610b0c57fe5b6020908102919091010152600101610683565b50505050919395975091939597565b6040518060600160405280600081526020016000815260200160006002811115610b5457fe5b905290565b604051806080016040528060006001600160a01b031681526020016000815260200160008152602001600081525090565b600060208284031215610b9b578081fd5b8135610ba681610ec6565b9392505050565b600060208284031215610bbe578081fd5b8151610ba681610ec6565b600060208284031215610bda578081fd5b815160068110610ba6578182fd5b600060208284031215610bf9578081fd5b815167ffffffffffffffff80821115610c10578283fd5b818401915084601f830112610c23578283fd5b815181811115610c31578384fd5b604051601f8201601f191681016020018381118282101715610c51578586fd5b604052818152838201602001871015610c68578485fd5b610c79826020830160208701610e96565b9695505050505050565b600060208284031215610c94578081fd5b5051919050565b600080600060608486031215610caf578182fd5b8351925060208401519150604084015160038110610ccb578182fd5b809150509250925092565b6000815180845260208085019450808401835b83811015610d2e57815180516001600160a01b031688528381015184890152604080820151908901526060908101519088015260809096019590820190600101610ce9565b509495945050505050565b6000815180845260208085019450808401835b83811015610d2e57815187529582019590820190600101610d4c565b60068110610d7257fe5b9052565b6001600160a01b0391909116815260200190565b600060018060a01b03808b1683526020610100818501528a5180610100860152610dbb816101208701848f01610e96565b918a166040850152610120601f19601f90930192909216840184810383016060860152895192810183905261014001918982019084905b80821015610e31578251805186528481015185870152610e156040820151610e86565b6040870152506060850194508383019250600182019150610df2565b505050508281036080840152610e478188610d39565b9050610e5660a0840187610d68565b8460c084015282810360e0840152610e6e8185610cd6565b9b9a5050505050505050505050565b90815260200190565b8060038110610e9157fe5b919050565b60005b83811015610eb1578181015183820152602001610e99565b83811115610ec0576000848401525b50505050565b6001600160a01b0381168114610edb57600080fd5b5056fea2646970667358221220c165dedce1770da7328ad2606249b35b6721edd2e9d51ef82584352408cc13e164736f6c634300060c0033",
  "immutableReferences": {},
  "source": "// SPDX-License-Identifier: MIT\npragma solidity ^0.6.0;\npragma experimental ABIEncoderV2;\n\nimport \"./SLO.sol\";\nimport \"./SLA.sol\";\nimport \"./SLARegistry.sol\";\nimport \"./StakeRegistry.sol\";\nimport \"./PeriodRegistry.sol\";\nimport \"./MessengerRegistry.sol\";\nimport \"./Staking.sol\";\n\n/**\n * @title Details\n * @dev Details is a contract to fetch details of contracts with a single RPC endpoint\n */\ncontract Details {\n    struct TokenStake {\n        address tokenAddress;\n        uint256 totalStake;\n        uint256 usersPool;\n        uint256 providerPool;\n    }\n\n    /**\n     * @dev external view function that returns all agreement information\n     * @return slaOwner 1. address  owner\n     * @return ipfsHash 2. string  ipfsHash\n     * @return slo 3. addresses of the SLO\n     * @return periodSLIs 5. PeriodSLI[]\n     * @return periodIDs 6. array of period IDs\n     * @return periodType 7. periodType of the sla contract\n     * @return stakersCount 8. amount of stakers\n     * @return tokensStake 9. PeriodSLI[]  addresses array\n     */\n\n    function getSLADetails(address _slaAddress)\n        external\n        view\n        returns (\n            address slaOwner,\n            string memory ipfsHash,\n            SLO slo,\n            SLA.PeriodSLI[] memory periodSLIs,\n            uint256[] memory periodIDs,\n            PeriodRegistry.PeriodType periodType,\n            uint256 stakersCount,\n            TokenStake[] memory tokensStake\n        )\n    {\n        SLA sla = SLA(_slaAddress);\n        slaOwner = sla.owner();\n        ipfsHash = sla.ipfsHash();\n        slo = sla.slo();\n        periodType = sla.periodType();\n        uint256 periodIdsLength = sla.getPeriodIdsLength();\n        periodSLIs = new SLA.PeriodSLI[](periodIdsLength);\n        periodIDs = new uint256[](periodIdsLength);\n        for (uint256 index = 0; index < periodIdsLength; index++) {\n            uint256 periodId = sla.periodIds(index);\n            (uint256 timestamp, uint256 sli, SLA.Status status) =\n                sla.periodSLIs(periodId);\n            periodSLIs[index] = SLA.PeriodSLI({\n                status: status,\n                sli: sli,\n                timestamp: timestamp\n            });\n            periodIDs[index] = sla.periodIds(index);\n        }\n        stakersCount = sla.getStakersLength();\n        uint256 allowedTokensLength = sla.getAllowedTokensLength();\n        tokensStake = new TokenStake[](allowedTokensLength);\n        for (uint256 index = 0; index < allowedTokensLength; index++) {\n            tokensStake[index] = TokenStake({\n                tokenAddress: sla.allowedTokens(index),\n                totalStake: sla.usersPool(sla.allowedTokens(index)) +\n                    sla.providerPool(sla.allowedTokens(index)),\n                usersPool: sla.usersPool(sla.allowedTokens(index)),\n                providerPool: sla.providerPool(sla.allowedTokens(index))\n            });\n        }\n    }\n}\n",
  "sourcePath": "/Users/matiasbn/Desktop/stacktical/stacktical-dsla-contracts/contracts/Details.sol",
  "compiler": {
    "name": "solc",
    "version": "0.6.12+commit.27d51765.Emscripten.clang"
  },
  "schemaVersion": "3.3.3",
  "updatedAt": "2021-03-02T17:28:37.297Z",
  "networkType": "ethereum",
  "devdoc": {
    "details": "Details is a contract to fetch details of contracts with a single RPC endpoint",
    "kind": "dev",
    "methods": {
      "getSLADetails(address)": {
        "details": "external view function that returns all agreement information",
        "returns": {
          "ipfsHash": "2. string  ipfsHash",
          "periodIDs": "6. array of period IDs",
          "periodSLIs": "5. PeriodSLI[]",
          "periodType": "7. periodType of the sla contract",
          "slaOwner": "1. address  owner",
          "slo": "3. addresses of the SLO",
          "stakersCount": "8. amount of stakers",
          "tokensStake": "9. PeriodSLI[]  addresses array"
        }
      }
    },
    "title": "Details",
    "version": 1
  },
  "userdoc": {
    "kind": "user",
    "methods": {},
    "version": 1
  }
}