{
  "contractName": "Details",
  "abi": [
    {
      "inputs": [
        {
          "internalType": "address",
          "name": "_slaAddress",
          "type": "address"
        }
      ],
      "name": "getSLADetails",
      "outputs": [
        {
          "internalType": "address",
          "name": "slaOwner",
          "type": "address"
        },
        {
          "internalType": "enum PeriodRegistry.PeriodType",
          "name": "periodType",
          "type": "uint8"
        },
        {
          "internalType": "bool",
          "name": "breachedContract",
          "type": "bool"
        },
        {
          "internalType": "contract SLO",
          "name": "slo",
          "type": "address"
        },
        {
          "internalType": "uint256",
          "name": "creationBlockNumber",
          "type": "uint256"
        },
        {
          "internalType": "uint256",
          "name": "stakersCount",
          "type": "uint256"
        },
        {
          "internalType": "uint256",
          "name": "nextVerifiablePeriod",
          "type": "uint256"
        },
        {
          "internalType": "uint256",
          "name": "slaId",
          "type": "uint256"
        },
        {
          "internalType": "uint256",
          "name": "cumulatedDevaluation",
          "type": "uint256"
        },
        {
          "internalType": "uint256",
          "name": "cumulatedDevaluationPrecision",
          "type": "uint256"
        },
        {
          "internalType": "string",
          "name": "ipfsHash",
          "type": "string"
        }
      ],
      "stateMutability": "view",
      "type": "function",
      "constant": true
    },
    {
      "inputs": [
        {
          "internalType": "address",
          "name": "_slaAddress",
          "type": "address"
        }
      ],
      "name": "getSLADetailsArrays",
      "outputs": [
        {
          "internalType": "string[]",
          "name": "dpTokensAddresses",
          "type": "string[]"
        },
        {
          "internalType": "string[]",
          "name": "duTokensAddresses",
          "type": "string[]"
        },
        {
          "internalType": "uint256[]",
          "name": "periodIDs",
          "type": "uint256[]"
        },
        {
          "components": [
            {
              "internalType": "uint256",
              "name": "timestamp",
              "type": "uint256"
            },
            {
              "internalType": "uint256",
              "name": "sli",
              "type": "uint256"
            },
            {
              "internalType": "enum SLA.Status",
              "name": "status",
              "type": "uint8"
            }
          ],
          "internalType": "struct SLA.PeriodSLI[]",
          "name": "periodSLIs",
          "type": "tuple[]"
        },
        {
          "components": [
            {
              "internalType": "address",
              "name": "tokenAddress",
              "type": "address"
            },
            {
              "internalType": "uint256",
              "name": "totalStake",
              "type": "uint256"
            },
            {
              "internalType": "uint256",
              "name": "usersPool",
              "type": "uint256"
            },
            {
              "internalType": "uint256",
              "name": "providerPool",
              "type": "uint256"
            }
          ],
          "internalType": "struct Details.TokenStake[]",
          "name": "tokensStake",
          "type": "tuple[]"
        }
      ],
      "stateMutability": "view",
      "type": "function",
      "constant": true
    }
  ],
  "bytecode": "0x608060405234801561001057600080fd5b5061167c806100206000396000f3fe608060405234801561001057600080fd5b50600436106100365760003560e01c8063576320891461003b578063afa029e41461006e575b600080fd5b61004e6100493660046111d8565b610092565b6040516100659b9a999897969594939291906114a9565b60405180910390f35b61008161007c3660046111d8565b6105ad565b604051610065959493929190611529565b600080600080600080600080600080606060008c9050806001600160a01b0316638da5cb5b6040518163ffffffff1660e01b815260040160206040518083038186803b1580156100e157600080fd5b505afa1580156100f5573d6000803e3d6000fd5b505050506040513d601f19601f8201168201806040525081019061011991906111fb565b9b50806001600160a01b03166346e0fbae6040518163ffffffff1660e01b815260040160206040518083038186803b15801561015457600080fd5b505afa158015610168573d6000803e3d6000fd5b505050506040513d601f19601f8201168201806040525081019061018c9190611237565b9a50806001600160a01b0316637fd788aa6040518163ffffffff1660e01b815260040160206040518083038186803b1580156101c757600080fd5b505afa1580156101db573d6000803e3d6000fd5b505050506040513d601f19601f820116820180604052508101906101ff9190611217565b9950806001600160a01b031663cd92890e6040518163ffffffff1660e01b815260040160206040518083038186803b15801561023a57600080fd5b505afa15801561024e573d6000803e3d6000fd5b505050506040513d601f19601f8201168201806040525081019061027291906111fb565b9850806001600160a01b0316631bf309296040518163ffffffff1660e01b815260040160206040518083038186803b1580156102ad57600080fd5b505afa1580156102c1573d6000803e3d6000fd5b505050506040513d601f19601f820116820180604052508101906102e591906112f1565b9750806001600160a01b0316639fabeb006040518163ffffffff1660e01b815260040160206040518083038186803b15801561032057600080fd5b505afa158015610334573d6000803e3d6000fd5b505050506040513d601f19601f8201168201806040525081019061035891906112f1565b9650806001600160a01b031663b1659bad6040518163ffffffff1660e01b815260040160206040518083038186803b15801561039357600080fd5b505afa1580156103a7573d6000803e3d6000fd5b505050506040513d601f19601f820116820180604052508101906103cb91906112f1565b9550806001600160a01b031663f2db10fe6040518163ffffffff1660e01b815260040160206040518083038186803b15801561040657600080fd5b505afa15801561041a573d6000803e3d6000fd5b505050506040513d601f19601f8201168201806040525081019061043e91906112f1565b9450806001600160a01b0316638d4f567d6040518163ffffffff1660e01b815260040160206040518083038186803b15801561047957600080fd5b505afa15801561048d573d6000803e3d6000fd5b505050506040513d601f19601f820116820180604052508101906104b191906112f1565b9350806001600160a01b031663ee6226c16040518163ffffffff1660e01b815260040160206040518083038186803b1580156104ec57600080fd5b505afa158015610500573d6000803e3d6000fd5b505050506040513d601f19601f8201168201806040525081019061052491906112f1565b9250806001600160a01b031663c623674f6040518163ffffffff1660e01b815260040160006040518083038186803b15801561055f57600080fd5b505afa158015610573573d6000803e3d6000fd5b505050506040513d6000823e601f3d908101601f1916820160405261059b9190810190611256565b91505091939597999b90929496989a50565b606080606080606060008690506000816001600160a01b0316635fc1b5fd6040518163ffffffff1660e01b815260040160206040518083038186803b1580156105f557600080fd5b505afa158015610609573d6000803e3d6000fd5b505050506040513d601f19601f8201168201806040525081019061062d91906112f1565b90508067ffffffffffffffff8111801561064657600080fd5b5060405190808252806020026020018201604052801561068057816020015b61066d61117c565b8152602001906001900390816106655790505b5093508067ffffffffffffffff8111801561069a57600080fd5b506040519080825280602002602001820160405280156106c4578160200160208202803683370190505b50945060005b818110156108ba57604051630ae9ea4560e01b81526000906001600160a01b03851690630ae9ea45906107019085906004016115f5565b60206040518083038186803b15801561071957600080fd5b505afa15801561072d573d6000803e3d6000fd5b505050506040513d601f19601f8201168201806040525081019061075191906112f1565b90506000806000866001600160a01b0316634190edde856040518263ffffffff1660e01b815260040161078491906115f5565b60606040518083038186803b15801561079c57600080fd5b505afa1580156107b0573d6000803e3d6000fd5b505050506040513d601f19601f820116820180604052508101906107d49190611309565b92509250925060405180606001604052808481526020018381526020018260028111156107fd57fe5b81525089868151811061080c57fe5b6020908102919091010152604051630ae9ea4560e01b81526001600160a01b03881690630ae9ea45906108439088906004016115f5565b60206040518083038186803b15801561085b57600080fd5b505afa15801561086f573d6000803e3d6000fd5b505050506040513d601f19601f8201168201806040525081019061089391906112f1565b8a868151811061089f57fe5b60209081029190910101525050600190920191506106ca9050565b506000826001600160a01b031663b7bc347e6040518163ffffffff1660e01b815260040160206040518083038186803b1580156108f657600080fd5b505afa15801561090a573d6000803e3d6000fd5b505050506040513d601f19601f8201168201806040525081019061092e91906112f1565b90508067ffffffffffffffff8111801561094757600080fd5b5060405190808252806020026020018201604052801561098157816020015b61096e6111a7565b8152602001906001900390816109665790505b5093508067ffffffffffffffff8111801561099b57600080fd5b506040519080825280602002602001820160405280156109cf57816020015b60608152602001906001900390816109ba5790505b5097508067ffffffffffffffff811180156109e957600080fd5b50604051908082528060200260200182016040528015610a1d57816020015b6060815260200190600190039081610a085790505b50965060005b81811015610fac57604051632f2f971360e11b81526000906001600160a01b03861690635e5f2e2690610a5a9085906004016115f5565b60206040518083038186803b158015610a7257600080fd5b505afa158015610a86573d6000803e3d6000fd5b505050506040513d601f19601f82011682018060405250810190610aaa91906111fb565b90506040518060800160405280826001600160a01b03168152602001866001600160a01b031663639b6fc3886001600160a01b0316635e5f2e26876040518263ffffffff1660e01b8152600401610b0191906115f5565b60206040518083038186803b158015610b1957600080fd5b505afa158015610b2d573d6000803e3d6000fd5b505050506040513d601f19601f82011682018060405250810190610b5191906111fb565b6040518263ffffffff1660e01b8152600401610b6d9190611495565b60206040518083038186803b158015610b8557600080fd5b505afa158015610b99573d6000803e3d6000fd5b505050506040513d601f19601f82011682018060405250810190610bbd91906112f1565b604051632f2f971360e11b81526001600160a01b0389169063484fbf2b908290635e5f2e2690610bf1908a906004016115f5565b60206040518083038186803b158015610c0957600080fd5b505afa158015610c1d573d6000803e3d6000fd5b505050506040513d601f19601f82011682018060405250810190610c4191906111fb565b6040518263ffffffff1660e01b8152600401610c5d9190611495565b60206040518083038186803b158015610c7557600080fd5b505afa158015610c89573d6000803e3d6000fd5b505050506040513d601f19601f82011682018060405250810190610cad91906112f1565b018152602001866001600160a01b031663484fbf2b886001600160a01b0316635e5f2e26876040518263ffffffff1660e01b8152600401610cee91906115f5565b60206040518083038186803b158015610d0657600080fd5b505afa158015610d1a573d6000803e3d6000fd5b505050506040513d601f19601f82011682018060405250810190610d3e91906111fb565b6040518263ffffffff1660e01b8152600401610d5a9190611495565b60206040518083038186803b158015610d7257600080fd5b505afa158015610d86573d6000803e3d6000fd5b505050506040513d601f19601f82011682018060405250810190610daa91906112f1565b8152602001866001600160a01b031663639b6fc3886001600160a01b0316635e5f2e26876040518263ffffffff1660e01b8152600401610dea91906115f5565b60206040518083038186803b158015610e0257600080fd5b505afa158015610e16573d6000803e3d6000fd5b505050506040513d601f19601f82011682018060405250810190610e3a91906111fb565b6040518263ffffffff1660e01b8152600401610e569190611495565b60206040518083038186803b158015610e6e57600080fd5b505afa158015610e82573d6000803e3d6000fd5b505050506040513d601f19601f82011682018060405250810190610ea691906112f1565b815250868381518110610eb557fe5b6020026020010181905250610f4581866001600160a01b0316634fb2647e846040518263ffffffff1660e01b8152600401610ef09190611495565b60206040518083038186803b158015610f0857600080fd5b505afa158015610f1c573d6000803e3d6000fd5b505050506040513d601f19601f82011682018060405250810190610f4091906111fb565b610fb9565b8a8381518110610f5157fe5b6020026020010181905250610f8c81866001600160a01b0316634e0c91f6846040518263ffffffff1660e01b8152600401610ef09190611495565b898381518110610f9857fe5b602090810291909101015250600101610a23565b5050505091939590929450565b606080610fc583611000565b90506060610fd285611000565b90508082604051602001610fe7929190611459565b6040516020818303038152906040529250505092915050565b604080518082018252601081526f181899199a1a9b1b9c1cb0b131b232b360811b60208201528151602a80825260608281019094526001600160a01b03851692918491602082018180368337019050509050600360fc1b8160008151811061106457fe5b60200101906001600160f81b031916908160001a905350600f60fb1b8160018151811061108d57fe5b60200101906001600160f81b031916908160001a90535060005b6014811015611173578260048583600c01602081106110c257fe5b1a60f81b6001600160f81b031916901c60f81c60ff16815181106110e257fe5b602001015160f81c60f81b8282600202600201815181106110ff57fe5b60200101906001600160f81b031916908160001a905350828482600c016020811061112657fe5b825191901a600f1690811061113757fe5b602001015160f81c60f81b82826002026003018151811061115457fe5b60200101906001600160f81b031916908160001a9053506001016110a7565b50949350505050565b60405180606001604052806000815260200160008152602001600060028111156111a257fe5b905290565b604051806080016040528060006001600160a01b031681526020016000815260200160008152602001600081525090565b6000602082840312156111e9578081fd5b81356111f48161162e565b9392505050565b60006020828403121561120c578081fd5b81516111f48161162e565b600060208284031215611228578081fd5b815180151581146111f4578182fd5b600060208284031215611248578081fd5b8151600681106111f4578182fd5b600060208284031215611267578081fd5b815167ffffffffffffffff8082111561127e578283fd5b818401915084601f830112611291578283fd5b81518181111561129f578384fd5b604051601f8201601f1916810160200183811182821017156112bf578586fd5b6040528181528382016020018710156112d6578485fd5b6112e78260208301602087016115fe565b9695505050505050565b600060208284031215611302578081fd5b5051919050565b60008060006060848603121561131d578182fd5b8351925060208401519150604084015160038110611339578182fd5b809150509250925092565b815260200190565b60008282518085526020808601955080818302840101818601855b8481101561139557601f19868403018952611383838351611405565b98840198925090830190600101611367565b5090979650505050505050565b6000815180845260208085019450808401835b838110156113fa57815180516001600160a01b0316885283810151848901526040808201519089015260609081015190880152608090960195908201906001016113b5565b509495945050505050565b6000815180845261141d8160208601602086016115fe565b601f01601f19169290920160200192915050565b805182526020810151602083015260408101516003811061144e57fe5b806040840152505050565b6000835161146b8184602088016115fe565b601d60f91b90830190815283516114898160018401602088016115fe565b01600101949350505050565b6001600160a01b0391909116815260200190565b6001600160a01b038c811682526000906101609060068e106114c757fe5b8d60208501528c15156040850152808c166060850152508960808401528860a08401528760c08401528660e084015285610100840152846101208401528061014084015261151781840185611405565b9e9d5050505050505050505050505050565b600060a0825261153c60a083018861134c565b60208382038185015261154f828961134c565b9150838203604085015281875161156681856115f5565b91508289019350845b8181101561159057611582838651611344565b94840194925060010161156f565b5050606092508481038386015280875180835283830191508389019250855b818110156115d2576115c2838551611431565b92840192918501916001016115af565b505085810360808701526115e681886113a2565b9b9a5050505050505050505050565b90815260200190565b60005b83811015611619578181015183820152602001611601565b83811115611628576000848401525b50505050565b6001600160a01b038116811461164357600080fd5b5056fea2646970667358221220d3c1e91177e5102903e1871c88bbcbd55b1e6b7ff4843f14d0ad2c6a4313d7b964736f6c634300060c0033",
  "immutableReferences": {},
  "source": "// SPDX-License-Identifier: MIT\npragma solidity ^0.6.0;\npragma experimental ABIEncoderV2;\n\nimport \"./SLO.sol\";\nimport \"./SLA.sol\";\nimport \"./SLARegistry.sol\";\nimport \"./StakeRegistry.sol\";\nimport \"./PeriodRegistry.sol\";\nimport \"./MessengerRegistry.sol\";\nimport \"./Staking.sol\";\n\n/**\n * @title Details\n * @dev Details is a contract to fetch details of contracts with a single RPC endpoint\n */\ncontract Details {\n    struct TokenStake {\n        address tokenAddress;\n        uint256 totalStake;\n        uint256 usersPool;\n        uint256 providerPool;\n    }\n\n    /**\n     * @dev external view function that returns all agreement information\n     * @return slaOwner 1. address  owner\n     * @return periodType 2. periodType of the sla contract\n     * @return breachedContract 3. breached contract\n     * @return slo 4. addresses of the SLO\n     * @return creationBlockNumber 5. addresses of the SLO\n     * @return stakersCount 6. amount of stakers\n     * @return nextVerifiablePeriod 7. amount of stakers\n     * @return slaId 8. -\n     * @return cumulatedDevaluation 9. -\n     * @return cumulatedDevaluationPrecision 10. -\n     * @return ipfsHash 11. string  ipfsHash\n     */\n\n    function getSLADetails(address _slaAddress)\n        external\n        view\n        returns (\n            address slaOwner,\n            PeriodRegistry.PeriodType periodType,\n            bool breachedContract,\n            SLO slo,\n            uint256 creationBlockNumber,\n            uint256 stakersCount,\n            uint256 nextVerifiablePeriod,\n            uint256 slaId,\n            uint256 cumulatedDevaluation,\n            uint256 cumulatedDevaluationPrecision,\n            string memory ipfsHash\n        )\n    {\n        SLA sla = SLA(_slaAddress);\n        slaOwner = sla.owner();\n        periodType = sla.periodType();\n        breachedContract = sla.breachedContract();\n        slo = sla.slo();\n        creationBlockNumber = sla.creationBlockNumber();\n        stakersCount = sla.getStakersLength();\n        nextVerifiablePeriod = sla.nextVerifiablePeriod();\n        slaId = sla.slaID();\n        cumulatedDevaluation = sla.cumulatedDevaluation();\n        cumulatedDevaluationPrecision = sla.cumulatedDevaluationPrecision();\n        ipfsHash = sla.ipfsHash();\n    }\n\n    function getSLADetailsArrays(address _slaAddress)\n        external\n        view\n        returns (\n            string[] memory dpTokensAddresses,\n            string[] memory duTokensAddresses,\n            uint256[] memory periodIDs,\n            SLA.PeriodSLI[] memory periodSLIs,\n            TokenStake[] memory tokensStake\n        )\n    {\n        SLA sla = SLA(_slaAddress);\n        uint256 periodIdsLength = sla.getPeriodIdsLength();\n        periodSLIs = new SLA.PeriodSLI[](periodIdsLength);\n        periodIDs = new uint256[](periodIdsLength);\n        for (uint256 index = 0; index < periodIdsLength; index++) {\n            uint256 periodId = sla.periodIds(index);\n            (uint256 timestamp, uint256 sli, SLA.Status status) =\n                sla.periodSLIs(periodId);\n            periodSLIs[index] = SLA.PeriodSLI({\n                status: status,\n                sli: sli,\n                timestamp: timestamp\n            });\n            periodIDs[index] = sla.periodIds(index);\n        }\n        uint256 allowedTokensLength = sla.getAllowedTokensLength();\n        tokensStake = new TokenStake[](allowedTokensLength);\n        dpTokensAddresses = new string[](allowedTokensLength);\n        duTokensAddresses = new string[](allowedTokensLength);\n        for (uint256 index = 0; index < allowedTokensLength; index++) {\n            address tokenAddress = sla.allowedTokens(index);\n            tokensStake[index] = TokenStake({\n                tokenAddress: tokenAddress,\n                totalStake: sla.usersPool(sla.allowedTokens(index)) +\n                    sla.providerPool(sla.allowedTokens(index)),\n                usersPool: sla.usersPool(sla.allowedTokens(index)),\n                providerPool: sla.providerPool(sla.allowedTokens(index))\n            });\n            dpTokensAddresses[index] = _packDToken(\n                tokenAddress,\n                address(sla.dpTokenRegistry(tokenAddress))\n            );\n            duTokensAddresses[index] = _packDToken(\n                tokenAddress,\n                address(sla.duTokenRegistry(tokenAddress))\n            );\n        }\n    }\n\n    function _packDToken(address _tokenAddress, address _dTokenAddress)\n        internal\n        pure\n        returns (string memory)\n    {\n        string memory dTokenStringAddress = _addressToString(_dTokenAddress);\n        string memory tokenStringAddress = _addressToString(_tokenAddress);\n        return\n            string(\n                abi.encodePacked(tokenStringAddress, \":\", dTokenStringAddress)\n            );\n    }\n\n    function _addressToString(address _address)\n        internal\n        pure\n        returns (string memory)\n    {\n        bytes32 _bytes = bytes32(uint256(_address));\n        bytes memory HEX = \"0123456789abcdef\";\n        bytes memory _string = new bytes(42);\n        _string[0] = \"0\";\n        _string[1] = \"x\";\n        for (uint256 i = 0; i < 20; i++) {\n            _string[2 + i * 2] = HEX[uint8(_bytes[i + 12] >> 4)];\n            _string[3 + i * 2] = HEX[uint8(_bytes[i + 12] & 0x0f)];\n        }\n        return string(_string);\n    }\n}\n",
  "sourcePath": "/Users/matiasbn/Desktop/stacktical/stacktical-dsla-contracts/contracts/Details.sol",
  "compiler": {
    "name": "solc",
    "version": "0.6.12+commit.27d51765.Emscripten.clang"
  },
  "schemaVersion": "3.3.3",
  "updatedAt": "2021-03-08T17:12:16.764Z",
  "networkType": "ethereum",
  "devdoc": {
    "details": "Details is a contract to fetch details of contracts with a single RPC endpoint",
    "kind": "dev",
    "methods": {
      "getSLADetails(address)": {
        "details": "external view function that returns all agreement information",
        "returns": {
          "breachedContract": "3. breached contract",
          "creationBlockNumber": "5. addresses of the SLO",
          "cumulatedDevaluation": "9. -",
          "cumulatedDevaluationPrecision": "10. -",
          "ipfsHash": "11. string  ipfsHash",
          "nextVerifiablePeriod": "7. amount of stakers",
          "periodType": "2. periodType of the sla contract",
          "slaId": "8. -",
          "slaOwner": "1. address  owner",
          "slo": "4. addresses of the SLO",
          "stakersCount": "6. amount of stakers"
        }
      }
    },
    "title": "Details",
    "version": 1
  },
  "userdoc": {
    "kind": "user",
    "methods": {},
    "version": 1
  }
}