{
  "contractName": "Details",
  "abi": [
    {
      "inputs": [
        {
          "internalType": "address",
          "name": "_slaAddress",
          "type": "address"
        }
      ],
      "name": "getSLADynamicDetails",
      "outputs": [
        {
          "internalType": "bool",
          "name": "breachedContract",
          "type": "bool"
        },
        {
          "internalType": "uint256",
          "name": "stakersCount",
          "type": "uint256"
        },
        {
          "internalType": "uint256",
          "name": "nextVerifiablePeriod",
          "type": "uint256"
        }
      ],
      "stateMutability": "view",
      "type": "function",
      "constant": true
    },
    {
      "inputs": [
        {
          "internalType": "address",
          "name": "_slaAddress",
          "type": "address"
        },
        {
          "internalType": "contract SLORegistry",
          "name": "_sloRegistry",
          "type": "address"
        }
      ],
      "name": "getSLAStaticDetails",
      "outputs": [
        {
          "internalType": "address",
          "name": "slaOwner",
          "type": "address"
        },
        {
          "internalType": "bool",
          "name": "whiteListed",
          "type": "bool"
        },
        {
          "internalType": "enum PeriodRegistry.PeriodType",
          "name": "periodType",
          "type": "uint8"
        },
        {
          "internalType": "enum SLORegistry.SLOType",
          "name": "sloType",
          "type": "uint8"
        },
        {
          "internalType": "uint256",
          "name": "sloValue",
          "type": "uint256"
        },
        {
          "internalType": "uint256",
          "name": "creationBlockNumber",
          "type": "uint256"
        },
        {
          "internalType": "uint256",
          "name": "slaId",
          "type": "uint256"
        },
        {
          "internalType": "uint128",
          "name": "initialPeriodId",
          "type": "uint128"
        },
        {
          "internalType": "uint128",
          "name": "finalPeriodId",
          "type": "uint128"
        },
        {
          "internalType": "string",
          "name": "ipfsHash",
          "type": "string"
        }
      ],
      "stateMutability": "view",
      "type": "function",
      "constant": true
    },
    {
      "inputs": [
        {
          "internalType": "address",
          "name": "_slaAddress",
          "type": "address"
        }
      ],
      "name": "getSLADetailsArrays",
      "outputs": [
        {
          "components": [
            {
              "internalType": "uint256",
              "name": "timestamp",
              "type": "uint256"
            },
            {
              "internalType": "uint256",
              "name": "sli",
              "type": "uint256"
            },
            {
              "internalType": "enum SLA.Status",
              "name": "status",
              "type": "uint8"
            }
          ],
          "internalType": "struct SLA.PeriodSLI[]",
          "name": "periodSLIs",
          "type": "tuple[]"
        },
        {
          "components": [
            {
              "internalType": "address",
              "name": "tokenAddress",
              "type": "address"
            },
            {
              "internalType": "uint256",
              "name": "totalStake",
              "type": "uint256"
            },
            {
              "internalType": "uint256",
              "name": "usersPool",
              "type": "uint256"
            },
            {
              "internalType": "uint256",
              "name": "providerPool",
              "type": "uint256"
            }
          ],
          "internalType": "struct Details.TokenStake[]",
          "name": "tokensStake",
          "type": "tuple[]"
        }
      ],
      "stateMutability": "view",
      "type": "function",
      "constant": true
    },
    {
      "inputs": [
        {
          "internalType": "address",
          "name": "_slaAddress",
          "type": "address"
        },
        {
          "internalType": "address",
          "name": "_owner",
          "type": "address"
        }
      ],
      "name": "getDTokensDetails",
      "outputs": [
        {
          "components": [
            {
              "internalType": "address",
              "name": "tokenAddress",
              "type": "address"
            },
            {
              "internalType": "uint256",
              "name": "totalSupply",
              "type": "uint256"
            },
            {
              "internalType": "address",
              "name": "dTokenAddress",
              "type": "address"
            },
            {
              "internalType": "string",
              "name": "dTokenSymbol",
              "type": "string"
            },
            {
              "internalType": "string",
              "name": "dTokenName",
              "type": "string"
            },
            {
              "internalType": "uint256",
              "name": "balance",
              "type": "uint256"
            },
            {
              "internalType": "uint256",
              "name": "allowance",
              "type": "uint256"
            }
          ],
          "internalType": "struct Details.DtokenDetails[]",
          "name": "dpTokens",
          "type": "tuple[]"
        },
        {
          "components": [
            {
              "internalType": "address",
              "name": "tokenAddress",
              "type": "address"
            },
            {
              "internalType": "uint256",
              "name": "totalSupply",
              "type": "uint256"
            },
            {
              "internalType": "address",
              "name": "dTokenAddress",
              "type": "address"
            },
            {
              "internalType": "string",
              "name": "dTokenSymbol",
              "type": "string"
            },
            {
              "internalType": "string",
              "name": "dTokenName",
              "type": "string"
            },
            {
              "internalType": "uint256",
              "name": "balance",
              "type": "uint256"
            },
            {
              "internalType": "uint256",
              "name": "allowance",
              "type": "uint256"
            }
          ],
          "internalType": "struct Details.DtokenDetails[]",
          "name": "duTokens",
          "type": "tuple[]"
        }
      ],
      "stateMutability": "view",
      "type": "function",
      "constant": true
    }
  ],
  "bytecode": "0x608060405234801561001057600080fd5b50611cdb806100206000396000f3fe608060405234801561001057600080fd5b506004361061004c5760003560e01c806330f1bef014610051578063431b7770146100835780637922f334146100a5578063afa029e4146100c6575b600080fd5b61006461005f3660046117ea565b6100e7565b60405161007a9a99989796959493929190611abe565b60405180910390f35b610096610091366004611773565b610534565b60405161007a93929190611c25565b6100b86100b33660046117b2565b61069d565b60405161007a929190611b48565b6100d96100d4366004611773565b610f06565b60405161007a929190611b76565b6000806000806000806000806000606060008c9050806001600160a01b0316638da5cb5b6040518163ffffffff1660e01b815260040160206040518083038186803b15801561013557600080fd5b505afa158015610149573d6000803e3d6000fd5b505050506040513d601f19601f8201168201806040525081019061016d9190611796565b9a50806001600160a01b03166318e454276040518163ffffffff1660e01b815260040160206040518083038186803b1580156101a857600080fd5b505afa1580156101bc573d6000803e3d6000fd5b505050506040513d601f19601f820116820180604052508101906101e091906117fc565b9950806001600160a01b03166346e0fbae6040518163ffffffff1660e01b815260040160206040518083038186803b15801561021b57600080fd5b505afa15801561022f573d6000803e3d6000fd5b505050506040513d601f19601f82011682018060405250810190610253919061181c565b98508b6001600160a01b031663a7b72ac58e6040518263ffffffff1660e01b81526004016102819190611a90565b604080518083038186803b15801561029857600080fd5b505afa1580156102ac573d6000803e3d6000fd5b505050506040513d601f19601f820116820180604052508101906102d09190611912565b8099508198505050806001600160a01b0316631bf309296040518163ffffffff1660e01b815260040160206040518083038186803b15801561031157600080fd5b505afa158015610325573d6000803e3d6000fd5b505050506040513d601f19601f8201168201806040525081019061034991906118fa565b9550806001600160a01b031663f2db10fe6040518163ffffffff1660e01b815260040160206040518083038186803b15801561038457600080fd5b505afa158015610398573d6000803e3d6000fd5b505050506040513d601f19601f820116820180604052508101906103bc91906118d3565b6001600160801b03169450806001600160a01b031663c623674f6040518163ffffffff1660e01b815260040160006040518083038186803b15801561040057600080fd5b505afa158015610414573d6000803e3d6000fd5b505050506040513d6000823e601f3d908101601f1916820160405261043c9190810190611838565b9150806001600160a01b0316632526743a6040518163ffffffff1660e01b815260040160206040518083038186803b15801561047757600080fd5b505afa15801561048b573d6000803e3d6000fd5b505050506040513d601f19601f820116820180604052508101906104af91906118d3565b9350806001600160a01b0316633385d3346040518163ffffffff1660e01b815260040160206040518083038186803b1580156104ea57600080fd5b505afa1580156104fe573d6000803e3d6000fd5b505050506040513d601f19601f8201168201806040525081019061052291906118d3565b9250509295989b9194979a5092959850565b600080600080849050806001600160a01b0316637fd788aa6040518163ffffffff1660e01b815260040160206040518083038186803b15801561057657600080fd5b505afa15801561058a573d6000803e3d6000fd5b505050506040513d601f19601f820116820180604052508101906105ae91906117fc565b9350806001600160a01b0316639fabeb006040518163ffffffff1660e01b815260040160206040518083038186803b1580156105e957600080fd5b505afa1580156105fd573d6000803e3d6000fd5b505050506040513d601f19601f8201168201806040525081019061062191906118fa565b9250806001600160a01b031663b1659bad6040518163ffffffff1660e01b815260040160206040518083038186803b15801561065c57600080fd5b505afa158015610670573d6000803e3d6000fd5b505050506040513d601f19601f8201168201806040525081019061069491906118fa565b93959294505050565b6060806000806001600160a01b0316846001600160a01b03161415905060008590506000816001600160a01b031663b7bc347e6040518163ffffffff1660e01b815260040160206040518083038186803b1580156106fa57600080fd5b505afa15801561070e573d6000803e3d6000fd5b505050506040513d601f19601f8201168201806040525081019061073291906118fa565b90508067ffffffffffffffff8111801561074b57600080fd5b5060405190808252806020026020018201604052801561078557816020015b6107726116c8565b81526020019060019003908161076a5790505b5094508067ffffffffffffffff8111801561079f57600080fd5b506040519080825280602002602001820160405280156107d957816020015b6107c66116c8565b8152602001906001900390816107be5790505b50935060005b81811015610efb57604051632f2f971360e11b81526000906001600160a01b03851690635e5f2e2690610816908590600401611c3d565b60206040518083038186803b15801561082e57600080fd5b505afa158015610842573d6000803e3d6000fd5b505050506040513d601f19601f820116820180604052508101906108669190611796565b90506000846001600160a01b0316634fb2647e836040518263ffffffff1660e01b81526004016108969190611a90565b60206040518083038186803b1580156108ae57600080fd5b505afa1580156108c2573d6000803e3d6000fd5b505050506040513d601f19601f820116820180604052508101906108e69190611796565b90506040518060e00160405280836001600160a01b03168152602001826001600160a01b03166318160ddd6040518163ffffffff1660e01b815260040160206040518083038186803b15801561093b57600080fd5b505afa15801561094f573d6000803e3d6000fd5b505050506040513d601f19601f8201168201806040525081019061097391906118fa565b8152602001826001600160a01b03168152602001826001600160a01b03166395d89b416040518163ffffffff1660e01b815260040160006040518083038186803b1580156109c057600080fd5b505afa1580156109d4573d6000803e3d6000fd5b505050506040513d6000823e601f3d908101601f191682016040526109fc9190810190611838565b8152602001826001600160a01b03166306fdde036040518163ffffffff1660e01b815260040160006040518083038186803b158015610a3a57600080fd5b505afa158015610a4e573d6000803e3d6000fd5b505050506040513d6000823e601f3d908101601f19168201604052610a769190810190611838565b815260200187610a87576000610b03565b6040516370a0823160e01b81526001600160a01b038416906370a0823190610ab3908e90600401611a90565b60206040518083038186803b158015610acb57600080fd5b505afa158015610adf573d6000803e3d6000fd5b505050506040513d601f19601f82011682018060405250810190610b0391906118fa565b815260200187610b14576000610b92565b826001600160a01b031663dd62ed3e8c8e6040518363ffffffff1660e01b8152600401610b42929190611aa4565b60206040518083038186803b158015610b5a57600080fd5b505afa158015610b6e573d6000803e3d6000fd5b505050506040513d601f19601f82011682018060405250810190610b9291906118fa565b815250888481518110610ba157fe5b60200260200101819052506000856001600160a01b0316634e0c91f6846040518263ffffffff1660e01b8152600401610bda9190611a90565b60206040518083038186803b158015610bf257600080fd5b505afa158015610c06573d6000803e3d6000fd5b505050506040513d601f19601f82011682018060405250810190610c2a9190611796565b90506040518060e00160405280846001600160a01b03168152602001826001600160a01b03166318160ddd6040518163ffffffff1660e01b815260040160206040518083038186803b158015610c7f57600080fd5b505afa158015610c93573d6000803e3d6000fd5b505050506040513d601f19601f82011682018060405250810190610cb791906118fa565b8152602001826001600160a01b03168152602001826001600160a01b03166395d89b416040518163ffffffff1660e01b815260040160006040518083038186803b158015610d0457600080fd5b505afa158015610d18573d6000803e3d6000fd5b505050506040513d6000823e601f3d908101601f19168201604052610d409190810190611838565b8152602001826001600160a01b03166306fdde036040518163ffffffff1660e01b815260040160006040518083038186803b158015610d7e57600080fd5b505afa158015610d92573d6000803e3d6000fd5b505050506040513d6000823e601f3d908101601f19168201604052610dba9190810190611838565b815260200188610dcb576000610e47565b6040516370a0823160e01b81526001600160a01b038416906370a0823190610df7908f90600401611a90565b60206040518083038186803b158015610e0f57600080fd5b505afa158015610e23573d6000803e3d6000fd5b505050506040513d601f19601f82011682018060405250810190610e4791906118fa565b815260200188610e58576000610ed6565b826001600160a01b031663dd62ed3e8d8f6040518363ffffffff1660e01b8152600401610e86929190611aa4565b60206040518083038186803b158015610e9e57600080fd5b505afa158015610eb2573d6000803e3d6000fd5b505050506040513d601f19601f82011682018060405250810190610ed691906118fa565b815250888581518110610ee557fe5b60209081029190910101525050506001016107df565b505050509250929050565b60608060008390506000816001600160a01b0316632526743a6040518163ffffffff1660e01b815260040160206040518083038186803b158015610f4957600080fd5b505afa158015610f5d573d6000803e3d6000fd5b505050506040513d601f19601f82011682018060405250810190610f8191906118d3565b6001600160801b031690506000826001600160a01b0316633385d3346040518163ffffffff1660e01b815260040160206040518083038186803b158015610fc757600080fd5b505afa158015610fdb573d6000803e3d6000fd5b505050506040513d601f19601f82011682018060405250810190610fff91906118d3565b6001600160801b031690506001828203018067ffffffffffffffff8111801561102757600080fd5b5060405190808252806020026020018201604052801561106157816020015b61104e611717565b8152602001906001900390816110465790505b50955060005b8181101561114a576040516320c876ef60e11b815284820190600090819081906001600160a01b038a1690634190edde906110a6908790600401611c3d565b60606040518083038186803b1580156110be57600080fd5b505afa1580156110d2573d6000803e3d6000fd5b505050506040513d601f19601f820116820180604052508101906110f69190611936565b925092509250604051806060016040528084815260200183815260200182600281111561111f57fe5b8152508b868151811061112e57fe5b6020026020010181905250505050508080600101915050611067565b506000846001600160a01b031663b7bc347e6040518163ffffffff1660e01b815260040160206040518083038186803b15801561118657600080fd5b505afa15801561119a573d6000803e3d6000fd5b505050506040513d601f19601f820116820180604052508101906111be91906118fa565b90508067ffffffffffffffff811180156111d757600080fd5b5060405190808252806020026020018201604052801561121157816020015b6111fe611742565b8152602001906001900390816111f65790505b50955060005b818110156116bd57604051632f2f971360e11b81526000906001600160a01b03881690635e5f2e269061124e908590600401611c3d565b60206040518083038186803b15801561126657600080fd5b505afa15801561127a573d6000803e3d6000fd5b505050506040513d601f19601f8201168201806040525081019061129e9190611796565b90506040518060800160405280826001600160a01b03168152602001886001600160a01b031663639b6fc38a6001600160a01b0316635e5f2e26876040518263ffffffff1660e01b81526004016112f59190611c3d565b60206040518083038186803b15801561130d57600080fd5b505afa158015611321573d6000803e3d6000fd5b505050506040513d601f19601f820116820180604052508101906113459190611796565b6040518263ffffffff1660e01b81526004016113619190611a90565b60206040518083038186803b15801561137957600080fd5b505afa15801561138d573d6000803e3d6000fd5b505050506040513d601f19601f820116820180604052508101906113b191906118fa565b604051632f2f971360e11b81526001600160a01b038b169063484fbf2b908290635e5f2e26906113e5908a90600401611c3d565b60206040518083038186803b1580156113fd57600080fd5b505afa158015611411573d6000803e3d6000fd5b505050506040513d601f19601f820116820180604052508101906114359190611796565b6040518263ffffffff1660e01b81526004016114519190611a90565b60206040518083038186803b15801561146957600080fd5b505afa15801561147d573d6000803e3d6000fd5b505050506040513d601f19601f820116820180604052508101906114a191906118fa565b018152602001886001600160a01b031663484fbf2b8a6001600160a01b0316635e5f2e26876040518263ffffffff1660e01b81526004016114e29190611c3d565b60206040518083038186803b1580156114fa57600080fd5b505afa15801561150e573d6000803e3d6000fd5b505050506040513d601f19601f820116820180604052508101906115329190611796565b6040518263ffffffff1660e01b815260040161154e9190611a90565b60206040518083038186803b15801561156657600080fd5b505afa15801561157a573d6000803e3d6000fd5b505050506040513d601f19601f8201168201806040525081019061159e91906118fa565b8152602001886001600160a01b031663639b6fc38a6001600160a01b0316635e5f2e26876040518263ffffffff1660e01b81526004016115de9190611c3d565b60206040518083038186803b1580156115f657600080fd5b505afa15801561160a573d6000803e3d6000fd5b505050506040513d601f19601f8201168201806040525081019061162e9190611796565b6040518263ffffffff1660e01b815260040161164a9190611a90565b60206040518083038186803b15801561166257600080fd5b505afa158015611676573d6000803e3d6000fd5b505050506040513d601f19601f8201168201806040525081019061169a91906118fa565b8152508883815181106116a957fe5b602090810291909101015250600101611217565b505050505050915091565b6040518060e0016040528060006001600160a01b031681526020016000815260200160006001600160a01b03168152602001606081526020016060815260200160008152602001600081525090565b604051806060016040528060008152602001600081526020016000600281111561173d57fe5b905290565b604051806080016040528060006001600160a01b031681526020016000815260200160008152602001600081525090565b600060208284031215611784578081fd5b813561178f81611c83565b9392505050565b6000602082840312156117a7578081fd5b815161178f81611c83565b600080604083850312156117c4578081fd5b82356117cf81611c83565b915060208301356117df81611c83565b809150509250929050565b600080604083850312156117c4578182fd5b60006020828403121561180d578081fd5b8151801515811461178f578182fd5b60006020828403121561182d578081fd5b815161178f81611c98565b600060208284031215611849578081fd5b815167ffffffffffffffff80821115611860578283fd5b81840185601f820112611871578384fd5b8051925081831115611881578384fd5b604051601f8401601f1916810160200183811182821017156118a1578586fd5b6040528381528184016020018710156118b8578485fd5b6118c9846020830160208501611c46565b9695505050505050565b6000602082840312156118e4578081fd5b81516001600160801b038116811461178f578182fd5b60006020828403121561190b578081fd5b5051919050565b60008060408385031215611924578182fd5b8251915060208301516117df81611c98565b60008060006060848603121561194a578081fd5b8351925060208401519150604084015160038110611966578182fd5b809150509250925092565b80516001600160a01b0316825260208082015190830152604080820151908301526060908101519082015260800190565b60008282518085526020808601955080818302840101818601855b84811015611a5757858303601f19018952815180516001600160a01b03908116855285820151868601526040808301519091169085015260608082015160e08287018190529190611a1083880182611a64565b915050608091508183015186820383880152611a2c8282611a64565b60a0858101519089015260c094850151949097019390935250505097830197908301906001016119bd565b5090979650505050505050565b60008151808452611a7c816020860160208601611c46565b601f01601f19169290920160200192915050565b6001600160a01b0391909116815260200190565b6001600160a01b0392831681529116602082015260400190565b6001600160a01b038b16815289151560208201526000610140611ae08b611c76565b8a6040840152611aef8a611c76565b606083018a90526080830189905260a0830188905260c083018790526001600160801b0386811660e085015285166101008401526101208301819052611b3781840185611a64565b9d9c50505050505050505050505050565b600060408252611b5b60408301856119a2565b8281036020840152611b6d81856119a2565b95945050505050565b6040808252835182820181905260009190606090818501906020808901865b83811015611bce5781518051865283810151848701528781015160038110611bb957fe5b86890152509385019390820190600101611b95565b50508683038188015282945087519350611be88484611c3d565b945080880192508591505b83821015611c1857611c06858451611971565b94508083019250600182019150611bf3565b5092979650505050505050565b92151583526020830191909152604082015260600190565b90815260200190565b60005b83811015611c61578181015183820152602001611c49565b83811115611c70576000848401525b50505050565b60068110611c8057fe5b50565b6001600160a01b0381168114611c8057600080fd5b60068110611c8057600080fdfea26469706673582212205eed775b5e94fe6d5a236bf1902a73caab4509c2df359c161c06fd1d46632d6e64736f6c63430006060033",
  "immutableReferences": {},
  "source": "// SPDX-License-Identifier: MIT\npragma solidity 0.6.6;\npragma experimental ABIEncoderV2;\n\nimport \"./SLA.sol\";\nimport \"./SLARegistry.sol\";\nimport \"./SLORegistry.sol\";\nimport \"./StakeRegistry.sol\";\nimport \"./PeriodRegistry.sol\";\nimport \"./MessengerRegistry.sol\";\nimport \"./Staking.sol\";\nimport \"@openzeppelin/contracts/token/ERC20/ERC20.sol\";\n\n/**\n * @title Details\n * @dev Details is a contract to fetch details of contracts with a single RPC endpoint\n */\ncontract Details {\n    struct TokenStake {\n        address tokenAddress;\n        uint256 totalStake;\n        uint256 usersPool;\n        uint256 providerPool;\n    }\n\n    struct DtokenDetails {\n        address tokenAddress;\n        uint256 totalSupply;\n        address dTokenAddress;\n        string dTokenSymbol;\n        string dTokenName;\n        uint256 balance;\n        uint256 allowance;\n    }\n\n    /**\n     * @dev external view function that returns all dynamic agreement information\n     * @return breachedContract 1. breached contract\n     * @return stakersCount 2. amount of stakers\n     * @return nextVerifiablePeriod 3. amount of stakers\n     */\n\n    function getSLADynamicDetails(address _slaAddress)\n        external\n        view\n        returns (\n            bool breachedContract,\n            uint256 stakersCount,\n            uint256 nextVerifiablePeriod\n        )\n    {\n        SLA sla = SLA(_slaAddress);\n        breachedContract = sla.breachedContract();\n        stakersCount = sla.getStakersLength();\n        nextVerifiablePeriod = sla.nextVerifiablePeriod();\n    }\n\n    function getSLAStaticDetails(address _slaAddress, SLORegistry _sloRegistry)\n        external\n        view\n        returns (\n            address slaOwner,\n            bool whiteListed,\n            PeriodRegistry.PeriodType periodType,\n            SLORegistry.SLOType sloType,\n            uint256 sloValue,\n            uint256 creationBlockNumber,\n            uint256 slaId,\n            uint128 initialPeriodId,\n            uint128 finalPeriodId,\n            string memory ipfsHash\n        )\n    {\n        SLA sla = SLA(_slaAddress);\n        slaOwner = sla.owner();\n        whiteListed = sla.whitelistedContract();\n        periodType = sla.periodType();\n        (sloValue, sloType) = _sloRegistry.registeredSLO(_slaAddress);\n        creationBlockNumber = sla.creationBlockNumber();\n        slaId = sla.slaID();\n        ipfsHash = sla.ipfsHash();\n        initialPeriodId = sla.initialPeriodId();\n        finalPeriodId = sla.finalPeriodId();\n    }\n\n    function getSLADetailsArrays(address _slaAddress)\n        external\n        view\n        returns (\n            SLA.PeriodSLI[] memory periodSLIs,\n            TokenStake[] memory tokensStake\n        )\n    {\n        SLA sla = SLA(_slaAddress);\n        uint256 initialPeriodId = sla.initialPeriodId();\n        uint256 finalPeriodId = sla.finalPeriodId();\n        uint256 periodIdsLength = finalPeriodId - initialPeriodId + 1;\n        periodSLIs = new SLA.PeriodSLI[](periodIdsLength);\n        for (uint256 index = 0; index < periodIdsLength; index++) {\n            uint256 periodId = initialPeriodId + index;\n            (uint256 timestamp, uint256 sli, SLA.Status status) =\n                sla.periodSLIs(periodId);\n            periodSLIs[index] = SLA.PeriodSLI({\n                status: status,\n                sli: sli,\n                timestamp: timestamp\n            });\n        }\n        uint256 allowedTokensLength = sla.getAllowedTokensLength();\n        tokensStake = new TokenStake[](allowedTokensLength);\n        for (uint256 index = 0; index < allowedTokensLength; index++) {\n            address tokenAddress = sla.allowedTokens(index);\n            tokensStake[index] = TokenStake({\n                tokenAddress: tokenAddress,\n                totalStake: sla.usersPool(sla.allowedTokens(index)) +\n                    sla.providerPool(sla.allowedTokens(index)),\n                usersPool: sla.usersPool(sla.allowedTokens(index)),\n                providerPool: sla.providerPool(sla.allowedTokens(index))\n            });\n        }\n    }\n\n    function getDTokensDetails(address _slaAddress, address _owner)\n        public\n        view\n        returns (\n            DtokenDetails[] memory dpTokens,\n            DtokenDetails[] memory duTokens\n        )\n    {\n        bool fromOwner = _owner != address(0x0);\n        SLA sla = SLA(_slaAddress);\n        uint256 allowedTokensLength = sla.getAllowedTokensLength();\n        dpTokens = new DtokenDetails[](allowedTokensLength);\n        duTokens = new DtokenDetails[](allowedTokensLength);\n        for (uint256 index = 0; index < allowedTokensLength; index++) {\n            address tokenAddress = sla.allowedTokens(index);\n            address dpTokenAddress = address(sla.dpTokenRegistry(tokenAddress));\n            dpTokens[index] = DtokenDetails({\n                dTokenAddress: dpTokenAddress,\n                tokenAddress: tokenAddress,\n                totalSupply: ERC20(dpTokenAddress).totalSupply(),\n                dTokenSymbol: ERC20(dpTokenAddress).symbol(),\n                dTokenName: ERC20(dpTokenAddress).name(),\n                balance: fromOwner\n                    ? ERC20(dpTokenAddress).balanceOf(_owner)\n                    : 0,\n                allowance: fromOwner\n                    ? ERC20(dpTokenAddress).allowance(_owner, _slaAddress)\n                    : 0\n            });\n            address duTokenAddress = address(sla.duTokenRegistry(tokenAddress));\n            duTokens[index] = DtokenDetails({\n                dTokenAddress: duTokenAddress,\n                tokenAddress: tokenAddress,\n                totalSupply: ERC20(duTokenAddress).totalSupply(),\n                dTokenSymbol: ERC20(duTokenAddress).symbol(),\n                dTokenName: ERC20(duTokenAddress).name(),\n                balance: fromOwner\n                    ? ERC20(duTokenAddress).balanceOf(_owner)\n                    : 0,\n                allowance: fromOwner\n                    ? ERC20(duTokenAddress).allowance(_owner, _slaAddress)\n                    : 0\n            });\n        }\n    }\n\n    // function getStakeRegistryDetails(StakeRegistry stakeRegistry) public view returns (\n    //     uint256 DSLAburnRate,\n    //         uint256 dslaDepositByPeriod,\n    //         uint256 dslaPlatformReward,\n    //         uint256 dslaMessengerReward,\n    //         uint256 dslaUserReward,\n    //         uint256 dslaBurnedByVerification\n    // ){\n    //     stakeRegistry.getStakingParameters();\n    // }\n\n    function _addressToString(address _address)\n        internal\n        pure\n        returns (string memory)\n    {\n        bytes32 _bytes = bytes32(uint256(_address));\n        bytes memory HEX = \"0123456789abcdef\";\n        bytes memory _string = new bytes(42);\n        _string[0] = \"0\";\n        _string[1] = \"x\";\n        for (uint256 i = 0; i < 20; i++) {\n            _string[2 + i * 2] = HEX[uint8(_bytes[i + 12] >> 4)];\n            _string[3 + i * 2] = HEX[uint8(_bytes[i + 12] & 0x0f)];\n        }\n        return string(_string);\n    }\n}\n",
  "sourcePath": "/Users/matiasbn/Desktop/stacktical/stacktical-dsla-contracts/contracts/Details.sol",
  "compiler": {
    "name": "solc",
    "version": "0.6.6+commit.6c089d02.Emscripten.clang"
  },
  "schemaVersion": "3.3.3",
  "updatedAt": "2021-03-16T21:22:47.037Z",
  "networkType": "ethereum",
  "devdoc": {
    "details": "Details is a contract to fetch details of contracts with a single RPC endpoint",
    "methods": {
      "getSLADynamicDetails(address)": {
        "details": "external view function that returns all dynamic agreement information",
        "returns": {
          "breachedContract": "1. breached contract",
          "nextVerifiablePeriod": "3. amount of stakers",
          "stakersCount": "2. amount of stakers"
        }
      }
    },
    "title": "Details"
  },
  "userdoc": {
    "methods": {}
  }
}