{
  "contractName": "Details",
  "abi": [
    {
      "inputs": [
        {
          "internalType": "address",
          "name": "_slaAddress",
          "type": "address"
        }
      ],
      "name": "getSLADetails",
      "outputs": [
        {
          "internalType": "address",
          "name": "_slaOwner",
          "type": "address"
        },
        {
          "internalType": "string",
          "name": "_ipfsHash",
          "type": "string"
        },
        {
          "internalType": "contract SLO",
          "name": "_SLO",
          "type": "address"
        },
        {
          "components": [
            {
              "internalType": "uint256",
              "name": "timestamp",
              "type": "uint256"
            },
            {
              "internalType": "uint256",
              "name": "sli",
              "type": "uint256"
            },
            {
              "internalType": "enum SLA.Status",
              "name": "status",
              "type": "uint8"
            }
          ],
          "internalType": "struct SLA.SLAPeriod[]",
          "name": "_SLAPeriods",
          "type": "tuple[]"
        },
        {
          "internalType": "uint256",
          "name": "_stakersCount",
          "type": "uint256"
        },
        {
          "components": [
            {
              "internalType": "address",
              "name": "tokenAddress",
              "type": "address"
            },
            {
              "internalType": "uint256",
              "name": "totalStake",
              "type": "uint256"
            },
            {
              "internalType": "uint256",
              "name": "usersPool",
              "type": "uint256"
            },
            {
              "internalType": "uint256",
              "name": "providerPool",
              "type": "uint256"
            }
          ],
          "internalType": "struct Details.TokenStake[]",
          "name": "_tokensStake",
          "type": "tuple[]"
        }
      ],
      "stateMutability": "view",
      "type": "function",
      "constant": true
    }
  ],
  "bytecode": "0x608060405234801561001057600080fd5b50610d3a806100206000396000f3fe608060405234801561001057600080fd5b506004361061002b5760003560e01c80635763208914610030575b600080fd5b61004361003e366004610a3b565b61005e565b60405161005596959493929190610bed565b60405180910390f35b6000606060006060600060606000879050806001600160a01b0316638da5cb5b6040518163ffffffff1660e01b815260040160206040518083038186803b1580156100a857600080fd5b505afa1580156100bc573d6000803e3d6000fd5b505050506040513d601f19601f820116820180604052508101906100e09190610a5e565b9650806001600160a01b031663c623674f6040518163ffffffff1660e01b815260040160006040518083038186803b15801561011b57600080fd5b505afa15801561012f573d6000803e3d6000fd5b505050506040513d6000823e601f3d908101601f191682016040526101579190810190610a7a565b9550806001600160a01b031663cd92890e6040518163ffffffff1660e01b815260040160206040518083038186803b15801561019257600080fd5b505afa1580156101a6573d6000803e3d6000fd5b505050506040513d601f19601f820116820180604052508101906101ca9190610a5e565b94506000816001600160a01b0316635fc1b5fd6040518163ffffffff1660e01b815260040160206040518083038186803b15801561020757600080fd5b505afa15801561021b573d6000803e3d6000fd5b505050506040513d601f19601f8201168201806040525081019061023f9190610b15565b90508067ffffffffffffffff8111801561025857600080fd5b5060405190808252806020026020018201604052801561029257816020015b61027f6109df565b8152602001906001900390816102775790505b50945060005b818110156103f657604051630ae9ea4560e01b81526000906001600160a01b03851690630ae9ea45906102cf908590600401610cb3565b60206040518083038186803b1580156102e757600080fd5b505afa1580156102fb573d6000803e3d6000fd5b505050506040513d601f19601f8201168201806040525081019061031f9190610b15565b90506000806000866001600160a01b0316639ab4438f856040518263ffffffff1660e01b81526004016103529190610cb3565b60606040518083038186803b15801561036a57600080fd5b505afa15801561037e573d6000803e3d6000fd5b505050506040513d601f19601f820116820180604052508101906103a29190610b2d565b92509250925060405180606001604052808481526020018381526020018260028111156103cb57fe5b8152508a86815181106103da57fe5b6020026020010181905250505050508080600101915050610298565b50816001600160a01b0316639fabeb006040518163ffffffff1660e01b815260040160206040518083038186803b15801561043057600080fd5b505afa158015610444573d6000803e3d6000fd5b505050506040513d601f19601f820116820180604052508101906104689190610b15565b93506000826001600160a01b031663b7bc347e6040518163ffffffff1660e01b815260040160206040518083038186803b1580156104a557600080fd5b505afa1580156104b9573d6000803e3d6000fd5b505050506040513d601f19601f820116820180604052508101906104dd9190610b15565b90508067ffffffffffffffff811180156104f657600080fd5b5060405190808252806020026020018201604052801561053057816020015b61051d610a0a565b8152602001906001900390816105155790505b50935060005b818110156109d257604080516080810191829052632f2f971360e11b909152806001600160a01b038616635e5f2e266105728560848501610cb3565b60206040518083038186803b15801561058a57600080fd5b505afa15801561059e573d6000803e3d6000fd5b505050506040513d601f19601f820116820180604052508101906105c29190610a5e565b6001600160a01b03168152602001856001600160a01b031663639b6fc3876001600160a01b0316635e5f2e26866040518263ffffffff1660e01b815260040161060b9190610cb3565b60206040518083038186803b15801561062357600080fd5b505afa158015610637573d6000803e3d6000fd5b505050506040513d601f19601f8201168201806040525081019061065b9190610a5e565b6040518263ffffffff1660e01b81526004016106779190610bd9565b60206040518083038186803b15801561068f57600080fd5b505afa1580156106a3573d6000803e3d6000fd5b505050506040513d601f19601f820116820180604052508101906106c79190610b15565b604051632f2f971360e11b81526001600160a01b0388169063484fbf2b908290635e5f2e26906106fb908990600401610cb3565b60206040518083038186803b15801561071357600080fd5b505afa158015610727573d6000803e3d6000fd5b505050506040513d601f19601f8201168201806040525081019061074b9190610a5e565b6040518263ffffffff1660e01b81526004016107679190610bd9565b60206040518083038186803b15801561077f57600080fd5b505afa158015610793573d6000803e3d6000fd5b505050506040513d601f19601f820116820180604052508101906107b79190610b15565b018152602001856001600160a01b031663484fbf2b876001600160a01b0316635e5f2e26866040518263ffffffff1660e01b81526004016107f89190610cb3565b60206040518083038186803b15801561081057600080fd5b505afa158015610824573d6000803e3d6000fd5b505050506040513d601f19601f820116820180604052508101906108489190610a5e565b6040518263ffffffff1660e01b81526004016108649190610bd9565b60206040518083038186803b15801561087c57600080fd5b505afa158015610890573d6000803e3d6000fd5b505050506040513d601f19601f820116820180604052508101906108b49190610b15565b8152602001856001600160a01b031663639b6fc3876001600160a01b0316635e5f2e26866040518263ffffffff1660e01b81526004016108f49190610cb3565b60206040518083038186803b15801561090c57600080fd5b505afa158015610920573d6000803e3d6000fd5b505050506040513d601f19601f820116820180604052508101906109449190610a5e565b6040518263ffffffff1660e01b81526004016109609190610bd9565b60206040518083038186803b15801561097857600080fd5b505afa15801561098c573d6000803e3d6000fd5b505050506040513d601f19601f820116820180604052508101906109b09190610b15565b8152508582815181106109bf57fe5b6020908102919091010152600101610536565b5050505091939550919395565b6040518060600160405280600081526020016000815260200160006002811115610a0557fe5b905290565b604051806080016040528060006001600160a01b031681526020016000815260200160008152602001600081525090565b600060208284031215610a4c578081fd5b8135610a5781610cec565b9392505050565b600060208284031215610a6f578081fd5b8151610a5781610cec565b600060208284031215610a8b578081fd5b815167ffffffffffffffff80821115610aa2578283fd5b818401915084601f830112610ab5578283fd5b815181811115610ac3578384fd5b604051601f8201601f191681016020018381118282101715610ae3578586fd5b604052818152838201602001871015610afa578485fd5b610b0b826020830160208701610cbc565b9695505050505050565b600060208284031215610b26578081fd5b5051919050565b600080600060608486031215610b41578182fd5b8351925060208401519150604084015160038110610b5d578182fd5b809150509250925092565b6000815180845260208085019450808401835b83811015610bc057815180516001600160a01b031688528381015184890152604080820151908901526060908101519088015260809096019590820190600101610b7b565b509495945050505050565b60038110610bd557fe5b9052565b6001600160a01b0391909116815260200190565b600060018060a01b038089168352602060c0818501528851610c128160c08701610cb3565b610c1f8282858e01610cbc565b601f19601f83011681019150506040838a168187015260609350858203848701528189518084528484019150848b019350865b81811015610c88578451805184528681015187850152840151610c7785850182610bcb565b509385019391860191600101610c52565b505088608088015286810360a0880152610ca28189610b68565b9d9c50505050505050505050505050565b90815260200190565b60005b83811015610cd7578181015183820152602001610cbf565b83811115610ce6576000848401525b50505050565b6001600160a01b0381168114610d0157600080fd5b5056fea26469706673582212206f442e731c6297a327ca5d10df58265986712b0372a4e0ec748825f07f961aed64736f6c634300060c0033",
  "immutableReferences": {},
  "source": "// SPDX-License-Identifier: MIT\npragma solidity ^0.6.0;\npragma experimental ABIEncoderV2;\n\nimport \"./SLO.sol\";\nimport \"./SLA.sol\";\nimport \"./SLARegistry.sol\";\nimport \"./StakeRegistry.sol\";\nimport \"./PeriodRegistry.sol\";\nimport \"./MessengerRegistry.sol\";\nimport \"./Staking.sol\";\n\n/**\n * @title Details\n * @dev Details is a contract to fetch details of contracts with a single RPC endpoint\n */\ncontract Details {\n    struct TokenStake {\n        address tokenAddress;\n        uint256 totalStake;\n        uint256 usersPool;\n        uint256 providerPool;\n    }\n\n    /**\n     * @dev external view function that returns all agreement information\n     * @return _slaOwner 1. address  owner\n     * @return _ipfsHash 2. string  ipfsHash\n     * @return _SLO 3. addresses of the SLO\n     * @return _SLAPeriods 5. SLAPeriod[]\n     * @return _stakersCount 6. amount of stakers\n     * @return _tokensStake 7. SLAPeriod[]  addresses array\n     */\n\n    function getSLADetails(address _slaAddress)\n        external\n        view\n        returns (\n            address _slaOwner,\n            string memory _ipfsHash,\n            SLO _SLO,\n            SLA.SLAPeriod[] memory _SLAPeriods,\n            uint256 _stakersCount,\n            TokenStake[] memory _tokensStake\n        )\n    {\n        SLA sla = SLA(_slaAddress);\n        _slaOwner = sla.owner();\n        _ipfsHash = sla.ipfsHash();\n        _SLO = sla.slo();\n        uint256 periodIdsLength = sla.getPeriodIdsLength();\n        _SLAPeriods = new SLA.SLAPeriod[](periodIdsLength);\n        for (uint256 index = 0; index < periodIdsLength; index++) {\n            uint256 periodId = sla.periodIds(index);\n            (uint256 timestamp, uint256 sli, SLA.Status status) =\n                sla.slaPeriods(periodId);\n            _SLAPeriods[index] = SLA.SLAPeriod({\n                status: status,\n                sli: sli,\n                timestamp: timestamp\n            });\n        }\n        _stakersCount = sla.getStakersLength();\n        uint256 allowedTokensLength = sla.getAllowedTokensLength();\n        _tokensStake = new TokenStake[](allowedTokensLength);\n        for (uint256 index = 0; index < allowedTokensLength; index++) {\n            _tokensStake[index] = TokenStake({\n                tokenAddress: sla.allowedTokens(index),\n                totalStake: sla.usersPool(sla.allowedTokens(index)) +\n                    sla.providerPool(sla.allowedTokens(index)),\n                usersPool: sla.usersPool(sla.allowedTokens(index)),\n                providerPool: sla.providerPool(sla.allowedTokens(index))\n            });\n        }\n    }\n}\n",
  "sourcePath": "/Users/matiasbn/Desktop/stacktical/stacktical-dsla-contracts/contracts/Details.sol",
  "compiler": {
    "name": "solc",
    "version": "0.6.12+commit.27d51765.Emscripten.clang"
  },
  "schemaVersion": "3.3.3",
  "updatedAt": "2021-03-01T20:29:24.333Z",
  "networkType": "ethereum",
  "devdoc": {
    "details": "Details is a contract to fetch details of contracts with a single RPC endpoint",
    "kind": "dev",
    "methods": {
      "getSLADetails(address)": {
        "details": "external view function that returns all agreement information",
        "returns": {
          "_SLAPeriods": "5. SLAPeriod[]",
          "_SLO": "3. addresses of the SLO",
          "_ipfsHash": "2. string  ipfsHash",
          "_slaOwner": "1. address  owner",
          "_stakersCount": "6. amount of stakers",
          "_tokensStake": "7. SLAPeriod[]  addresses array"
        }
      }
    },
    "title": "Details",
    "version": 1
  },
  "userdoc": {
    "kind": "user",
    "methods": {},
    "version": 1
  }
}