{
  "contractName": "MessengerRegistry",
  "abi": [
    {
      "anonymous": false,
      "inputs": [
        {
          "indexed": true,
          "internalType": "address",
          "name": "ownerAddress",
          "type": "address"
        },
        {
          "indexed": true,
          "internalType": "address",
          "name": "messengerAddress",
          "type": "address"
        },
        {
          "indexed": false,
          "internalType": "string",
          "name": "specificationUrl",
          "type": "string"
        },
        {
          "indexed": false,
          "internalType": "uint256",
          "name": "precision",
          "type": "uint256"
        },
        {
          "indexed": false,
          "internalType": "uint256",
          "name": "id",
          "type": "uint256"
        }
      ],
      "name": "MessengerModified",
      "type": "event"
    },
    {
      "anonymous": false,
      "inputs": [
        {
          "indexed": true,
          "internalType": "address",
          "name": "ownerAddress",
          "type": "address"
        },
        {
          "indexed": true,
          "internalType": "address",
          "name": "messengerAddress",
          "type": "address"
        },
        {
          "indexed": false,
          "internalType": "string",
          "name": "specificationUrl",
          "type": "string"
        },
        {
          "indexed": false,
          "internalType": "uint256",
          "name": "precision",
          "type": "uint256"
        },
        {
          "indexed": false,
          "internalType": "uint256",
          "name": "id",
          "type": "uint256"
        }
      ],
      "name": "MessengerRegistered",
      "type": "event"
    },
    {
      "inputs": [
        {
          "internalType": "uint256",
          "name": "",
          "type": "uint256"
        }
      ],
      "name": "messengers",
      "outputs": [
        {
          "internalType": "address",
          "name": "ownerAddress",
          "type": "address"
        },
        {
          "internalType": "address",
          "name": "messengerAddress",
          "type": "address"
        },
        {
          "internalType": "string",
          "name": "specificationUrl",
          "type": "string"
        },
        {
          "internalType": "uint256",
          "name": "precision",
          "type": "uint256"
        },
        {
          "internalType": "uint256",
          "name": "requestsCounter",
          "type": "uint256"
        },
        {
          "internalType": "uint256",
          "name": "fulfillsCounter",
          "type": "uint256"
        },
        {
          "internalType": "uint256",
          "name": "id",
          "type": "uint256"
        }
      ],
      "stateMutability": "view",
      "type": "function",
      "constant": true
    },
    {
      "inputs": [
        {
          "internalType": "address",
          "name": "",
          "type": "address"
        },
        {
          "internalType": "uint256",
          "name": "",
          "type": "uint256"
        }
      ],
      "name": "ownerMessengers",
      "outputs": [
        {
          "internalType": "uint256",
          "name": "",
          "type": "uint256"
        }
      ],
      "stateMutability": "view",
      "type": "function",
      "constant": true
    },
    {
      "inputs": [
        {
          "internalType": "address",
          "name": "",
          "type": "address"
        }
      ],
      "name": "registeredMessengers",
      "outputs": [
        {
          "internalType": "bool",
          "name": "",
          "type": "bool"
        }
      ],
      "stateMutability": "view",
      "type": "function",
      "constant": true
    },
    {
      "inputs": [],
      "name": "slaRegistry",
      "outputs": [
        {
          "internalType": "address",
          "name": "",
          "type": "address"
        }
      ],
      "stateMutability": "view",
      "type": "function",
      "constant": true
    },
    {
      "inputs": [],
      "name": "setSLARegistry",
      "outputs": [],
      "stateMutability": "nonpayable",
      "type": "function"
    },
    {
      "inputs": [
        {
          "internalType": "address",
          "name": "_callerAddress",
          "type": "address"
        },
        {
          "internalType": "address",
          "name": "_messengerAddress",
          "type": "address"
        },
        {
          "internalType": "string",
          "name": "_specificationUrl",
          "type": "string"
        }
      ],
      "name": "registerMessenger",
      "outputs": [],
      "stateMutability": "nonpayable",
      "type": "function"
    },
    {
      "inputs": [
        {
          "internalType": "string",
          "name": "_specificationUrl",
          "type": "string"
        },
        {
          "internalType": "uint256",
          "name": "_messengerId",
          "type": "uint256"
        }
      ],
      "name": "modifyMessenger",
      "outputs": [],
      "stateMutability": "nonpayable",
      "type": "function"
    },
    {
      "inputs": [],
      "name": "getMessengers",
      "outputs": [
        {
          "components": [
            {
              "internalType": "address",
              "name": "ownerAddress",
              "type": "address"
            },
            {
              "internalType": "address",
              "name": "messengerAddress",
              "type": "address"
            },
            {
              "internalType": "string",
              "name": "specificationUrl",
              "type": "string"
            },
            {
              "internalType": "uint256",
              "name": "precision",
              "type": "uint256"
            },
            {
              "internalType": "uint256",
              "name": "requestsCounter",
              "type": "uint256"
            },
            {
              "internalType": "uint256",
              "name": "fulfillsCounter",
              "type": "uint256"
            },
            {
              "internalType": "uint256",
              "name": "id",
              "type": "uint256"
            }
          ],
          "internalType": "struct MessengerRegistry.Messenger[]",
          "name": "",
          "type": "tuple[]"
        }
      ],
      "stateMutability": "view",
      "type": "function",
      "constant": true
    },
    {
      "inputs": [],
      "name": "getMessengersLength",
      "outputs": [
        {
          "internalType": "uint256",
          "name": "",
          "type": "uint256"
        }
      ],
      "stateMutability": "view",
      "type": "function",
      "constant": true
    }
  ],
  "bytecode": "0x608060405234801561001057600080fd5b5061124b806100206000396000f3fe608060405234801561001057600080fd5b50600436106100835760003560e01c806304fec8d21461008857806324ec66b3146100b157806369b5354b146100d7578063822d332e146100ec5780639f69d7f814610101578063db69a46214610109578063eabb8a731461011e578063ef4003db14610131578063f388158914610151575b600080fd5b61009b610096366004610da0565b610159565b6040516100a891906111e8565b60405180910390f35b6100c46100bf366004610e15565b610187565b6040516100a89796959493929190610ea4565b6100df61026a565b6040516100a89190610ef6565b6100ff6100fa366004610dcb565b610584565b005b61009b6106e9565b6101116106ef565b6040516100a89190610e90565b6100ff61012c366004610d3d565b6106fe565b61014461013f366004610cfe565b610b10565b6040516100a89190610faa565b6100ff610b25565b6002602052816000526040600020818154811061017257fe5b90600052602060002001600091509150505481565b6000818154811061019457fe5b600091825260209182902060079091020180546001808301546002808501805460408051601f600019978416156101000297909701909216939093049485018890048802810188019092528382526001600160a01b03948516975091909316949091908301828280156102485780601f1061021d57610100808354040283529160200191610248565b820191906000526020600020905b81548152906001019060200180831161022b57829003601f168201915b5050505050908060030154908060040154908060050154908060060154905087565b600054606090819067ffffffffffffffff8111801561028857600080fd5b506040519080825280602002602001820160405280156102c257816020015b6102af610b62565b8152602001906001900390816102a75790505b50905060005b60005481101561057d5760008082815481106102e057fe5b906000526020600020906007020160010160009054906101000a90046001600160a01b031690506000816001600160a01b031663663c22696040518163ffffffff1660e01b815260040160206040518083038186803b15801561034257600080fd5b505afa158015610356573d6000803e3d6000fd5b505050506040513d601f19601f8201168201806040525081019061037a9190610e2d565b90506000826001600160a01b031663a50c54256040518163ffffffff1660e01b815260040160206040518083038186803b1580156103b757600080fd5b505afa1580156103cb573d6000803e3d6000fd5b505050506040513d601f19601f820116820180604052508101906103ef9190610e2d565b90506040518060e001604052806000868154811061040957fe5b600091825260208083206007909202909101546001600160a01b0316835281549201918790811061043657fe5b60009182526020808320600160079093020191909101546001600160a01b0316835281549201918790811061046757fe5b600091825260209182902060026007909202018101805460408051601f6000196101006001861615020190931694909404918201859004850284018501905280835291929091908301828280156104ff5780601f106104d4576101008083540402835291602001916104ff565b820191906000526020600020905b8154815290600101906020018083116104e257829003601f168201915b505050505081526020016000868154811061051657fe5b90600052602060002090600702016003015481526020018381526020018281526020016000868154811061054657fe5b90600052602060002090600702016006015481525085858151811061056757fe5b60209081029190910101525050506001016102c8565b5090505b90565b600080828154811061059257fe5b9060005260206000209060070201905060008160010160009054906101000a90046001600160a01b03169050806001600160a01b0316638da5cb5b6040518163ffffffff1660e01b815260040160206040518083038186803b1580156105f757600080fd5b505afa15801561060b573d6000803e3d6000fd5b505050506040513d601f19601f8201168201806040525081019061062f9190610d21565b6001600160a01b0316336001600160a01b0316146106685760405162461bcd60e51b815260040161065f90611088565b60405180910390fd5b610676600283018686610bb1565b5081546001600160a01b03191633178083556001830154600384015460068501546040516001600160a01b0393841694909316927f535c96772bc04bd66e3fc2bab24c455ef0b5bac77cc845b644482e89dce86112926106da926002890192610ff4565b60405180910390a35050505050565b60005490565b6003546001600160a01b031681565b6003546001600160a01b031633146107285760405162461bcd60e51b815260040161065f906110c9565b6001600160a01b03831660009081526001602052604090205460ff16156107615760405162461bcd60e51b815260040161065f9061111d565b60008390506000816001600160a01b0316638da5cb5b6040518163ffffffff1660e01b815260040160206040518083038186803b1580156107a157600080fd5b505afa1580156107b5573d6000803e3d6000fd5b505050506040513d601f19601f820116820180604052508101906107d99190610d21565b9050856001600160a01b0316816001600160a01b03161461080c5760405162461bcd60e51b815260040161065f9061119c565b6000826001600160a01b031663c9b0cb226040518163ffffffff1660e01b815260040160206040518083038186803b15801561084757600080fd5b505afa15801561085b573d6000803e3d6000fd5b505050506040513d601f19601f8201168201806040525081019061087f9190610e2d565b90506000836001600160a01b031663663c22696040518163ffffffff1660e01b815260040160206040518083038186803b1580156108bc57600080fd5b505afa1580156108d0573d6000803e3d6000fd5b505050506040513d601f19601f820116820180604052508101906108f49190610e2d565b90506000846001600160a01b031663a50c54256040518163ffffffff1660e01b815260040160206040518083038186803b15801561093157600080fd5b505afa158015610945573d6000803e3d6000fd5b505050506040513d601f19601f820116820180604052508101906109699190610e2d565b6001600160a01b03808a166000818152600160208181526040808420805460ff1916841790558354958b168085526002835281852080549485018155855282852060001990970196909301869055805160e081018252928352828201949094528351601f8d0182900482028101820185528c8152959650939491939092830191908c908c908190840183828082843760009201829052509385525050506020808301899052604080840189905260608401889052608090930186905284546001818101875595835291819020845160079093020180546001600160a01b039384166001600160a01b031991821617825585830151968201805497909416961695909517909155908201518051929392610a889260028501920190610c2f565b50606082015181600301556080820151816004015560a0820151816005015560c082015181600601555050886001600160a01b0316856001600160a01b03167f65ec88813f8015e2d5de403d956ea4d6c79b88ad66a42ada93a9b4619e10fd888a8a8886604051610afc9493929190610fb5565b60405180910390a350505050505050505050565b60016020526000908152604090205460ff1681565b6003546001600160a01b031615610b4e5760405162461bcd60e51b815260040161065f90611154565b600380546001600160a01b03191633179055565b6040518060e0016040528060006001600160a01b0316815260200160006001600160a01b0316815260200160608152602001600081526020016000815260200160008152602001600081525090565b828054600181600116156101000203166002900490600052602060002090601f016020900481019282601f10610bf25782800160ff19823516178555610c1f565b82800160010185558215610c1f579182015b82811115610c1f578235825591602001919060010190610c04565b50610c2b929150610c9d565b5090565b828054600181600116156101000203166002900490600052602060002090601f016020900481019282601f10610c7057805160ff1916838001178555610c1f565b82800160010185558215610c1f579182015b82811115610c1f578251825591602001919060010190610c82565b61058191905b80821115610c2b5760008155600101610ca3565b60008083601f840112610cc8578182fd5b50813567ffffffffffffffff811115610cdf578182fd5b602083019150836020828501011115610cf757600080fd5b9250929050565b600060208284031215610d0f578081fd5b8135610d1a816111fd565b9392505050565b600060208284031215610d32578081fd5b8151610d1a816111fd565b60008060008060608587031215610d52578283fd5b8435610d5d816111fd565b93506020850135610d6d816111fd565b9250604085013567ffffffffffffffff811115610d88578283fd5b610d9487828801610cb7565b95989497509550505050565b60008060408385031215610db2578182fd5b8235610dbd816111fd565b946020939093013593505050565b600080600060408486031215610ddf578283fd5b833567ffffffffffffffff811115610df5578384fd5b610e0186828701610cb7565b909790965060209590950135949350505050565b600060208284031215610e26578081fd5b5035919050565b600060208284031215610e3e578081fd5b5051919050565b60008151808452815b81811015610e6a57602081850181015186830182015201610e4e565b81811115610e7b5782602083870101525b50601f01601f19169290920160200192915050565b6001600160a01b0391909116815260200190565b6001600160a01b0388811682528716602082015260e060408201819052600090610ed090830188610e45565b90508560608301528460808301528360a08301528260c083015298975050505050505050565b60208082528251828201819052600091906040908185019080840286018301878501865b83811015610f9c57888303603f19018552815180516001600160a01b0390811685528882015116888501528681015160e088860181905290610f5e82870182610e45565b606084810151908801526080808501519088015260a0808501519088015260c093840151939096019290925250509386019390860190600101610f1a565b509098975050505050505050565b901515815260200190565b6000606082528460608301528486608084013780608086840101526080601f19601f870116830101905083602083015282604083015295945050505050565b6000606082016060835281865460018082166000811461101b576001811461103957611072565b60028304607f16855260ff198316608088015260a087019350611072565b600283048086526110498b6111f1565b875b828110156110685781548a8201608001529084019060200161104b565b8901608001955050505b5050506020840195909552505060400152919050565b60208082526021908201527f43616e206f6e6c79206265206d6f64696669656420627920746865206f776e656040820152603960f91b606082015260800190565b60208082526034908201527f53686f756c64206f6e6c792062652063616c6c6564207573696e67207468652060408201527314d310549959da5cdd1c9e4818dbdb9d1c9858dd60621b606082015260800190565b6020808252601c908201527f6d657373656e67657220616c7265616479207265676973746572656400000000604082015260600190565b60208082526028908201527f534c41526567697374727920616464726573732068617320616c7265616479206040820152671899595b881cd95d60c21b606082015260800190565b6020808252602c908201527f53686f756c64206f6e6c792062652063616c6c656420627920746865206d657360408201526b39b2b733b2b91037bbb732b960a11b606082015260800190565b90815260200190565b60009081526020902090565b6001600160a01b038116811461121257600080fd5b5056fea26469706673582212204391110b8fa33807ea20e0c0cba7316843d52122d7c34eb30bceb1654201cb0b64736f6c63430006060033",
  "immutableReferences": {},
  "source": "// SPDX-License-Identifier: MIT\npragma solidity 0.6.6;\npragma experimental ABIEncoderV2;\n\nimport \"./messenger/IMessenger.sol\";\n\n/**\n * @title MessengerRegistry\n * @dev MessengerRegistry is a contract to register openly distributed Messengers\n */\ncontract MessengerRegistry {\n    struct Messenger {\n        address ownerAddress;\n        address messengerAddress;\n        string specificationUrl;\n        uint256 precision;\n        uint256 requestsCounter;\n        uint256 fulfillsCounter;\n        uint256 id;\n    }\n\n    /// @dev array to store the messengers\n    Messenger[] public messengers;\n    /// @dev (messengerAddress=>bool) to check if the Messenger was\n    mapping(address => bool) public registeredMessengers;\n    /// @dev (userAddress=>messengerAddress[]) to register the messengers of an owner\n    mapping(address => uint256[]) public ownerMessengers;\n    /// @dev (userAddress=>messengerAddress[]) to register the owner of a Messenger\n    address public slaRegistry;\n\n    event MessengerRegistered(\n        address indexed ownerAddress,\n        address indexed messengerAddress,\n        string specificationUrl,\n        uint256 precision,\n        uint256 id\n    );\n\n    event MessengerModified(\n        address indexed ownerAddress,\n        address indexed messengerAddress,\n        string specificationUrl,\n        uint256 precision,\n        uint256 id\n    );\n\n    /**\n     * @dev sets the SLARegistry contract address and can only be called\n     * once\n     */\n    function setSLARegistry() external {\n        // Only able to trigger this function once\n        require(\n            address(slaRegistry) == address(0),\n            \"SLARegistry address has already been set\"\n        );\n\n        slaRegistry = msg.sender;\n    }\n\n    /**\n     * @dev function to register a new Messenger\n     */\n    function registerMessenger(\n        address _callerAddress,\n        address _messengerAddress,\n        string calldata _specificationUrl\n    ) external {\n        require(\n            msg.sender == slaRegistry,\n            \"Should only be called using the SLARegistry contract\"\n        );\n        require(\n            !registeredMessengers[_messengerAddress],\n            \"messenger already registered\"\n        );\n\n        IMessenger messenger = IMessenger(_messengerAddress);\n        address messengerOwner = messenger.owner();\n        require(\n            messengerOwner == _callerAddress,\n            \"Should only be called by the messenger owner\"\n        );\n        uint256 precision = messenger.messengerPrecision();\n        uint256 requestsCounter = messenger.requestsCounter();\n        uint256 fulfillsCounter = messenger.fulfillsCounter();\n        registeredMessengers[_messengerAddress] = true;\n        uint256 id = messengers.length - 1;\n        ownerMessengers[messengerOwner].push(id);\n\n        messengers.push(\n            Messenger({\n                ownerAddress: messengerOwner,\n                messengerAddress: _messengerAddress,\n                specificationUrl: _specificationUrl,\n                precision: precision,\n                requestsCounter: requestsCounter,\n                fulfillsCounter: fulfillsCounter,\n                id: id\n            })\n        );\n\n        emit MessengerRegistered(\n            messengerOwner,\n            _messengerAddress,\n            _specificationUrl,\n            precision,\n            id\n        );\n    }\n\n    /**\n     * @dev function to modifyMessenger a Messenger\n     */\n    function modifyMessenger(\n        string calldata _specificationUrl,\n        uint256 _messengerId\n    ) external {\n        Messenger storage storedMessenger = messengers[_messengerId];\n        IMessenger messenger = IMessenger(storedMessenger.messengerAddress);\n        require(\n            msg.sender == messenger.owner(),\n            \"Can only be modified by the owner\"\n        );\n        storedMessenger.specificationUrl = _specificationUrl;\n        storedMessenger.ownerAddress = msg.sender;\n        emit MessengerModified(\n            storedMessenger.ownerAddress,\n            storedMessenger.messengerAddress,\n            storedMessenger.specificationUrl,\n            storedMessenger.precision,\n            storedMessenger.id\n        );\n    }\n\n    function getMessengers() external view returns (Messenger[] memory) {\n        Messenger[] memory returnMessengers =\n            new Messenger[](messengers.length);\n        for (uint256 index = 0; index < messengers.length; index++) {\n            IMessenger messenger =\n                IMessenger(messengers[index].messengerAddress);\n            uint256 requestsCounter = messenger.requestsCounter();\n            uint256 fulfillsCounter = messenger.fulfillsCounter();\n            returnMessengers[index] = Messenger({\n                ownerAddress: messengers[index].ownerAddress,\n                messengerAddress: messengers[index].messengerAddress,\n                specificationUrl: messengers[index].specificationUrl,\n                precision: messengers[index].precision,\n                requestsCounter: requestsCounter,\n                fulfillsCounter: fulfillsCounter,\n                id: messengers[index].id\n            });\n        }\n        return returnMessengers;\n    }\n\n    function getMessengersLength() external view returns (uint256) {\n        return messengers.length;\n    }\n}\n",
  "sourcePath": "/Users/wilhempujar/Development/stacktical-dsla-contracts/contracts/MessengerRegistry.sol",
  "compiler": {
    "name": "solc",
    "version": "0.6.6+commit.6c089d02.Emscripten.clang"
  },
  "schemaVersion": "3.3.1",
  "updatedAt": "2021-04-13T21:37:52.509Z",
  "networkType": "ethereum",
  "devdoc": {
    "details": "MessengerRegistry is a contract to register openly distributed Messengers",
    "methods": {
      "modifyMessenger(string,uint256)": {
        "details": "function to modifyMessenger a Messenger"
      },
      "registerMessenger(address,address,string)": {
        "details": "function to register a new Messenger"
      },
      "setSLARegistry()": {
        "details": "sets the SLARegistry contract address and can only be called once"
      }
    },
    "title": "MessengerRegistry"
  },
  "userdoc": {
    "methods": {}
  }
}