{
  "contractName": "MessengerRegistry",
  "abi": [
    {
      "anonymous": false,
      "inputs": [
        {
          "indexed": true,
          "internalType": "address",
          "name": "messengerOwner",
          "type": "address"
        },
        {
          "indexed": true,
          "internalType": "address",
          "name": "messengerAddress",
          "type": "address"
        },
        {
          "indexed": false,
          "internalType": "string",
          "name": "messengerBaseURL",
          "type": "string"
        },
        {
          "indexed": false,
          "internalType": "string",
          "name": "messengerOwnershipURL",
          "type": "string"
        },
        {
          "indexed": false,
          "internalType": "string",
          "name": "messengerSpecificationURL",
          "type": "string"
        }
      ],
      "name": "MessengerModified",
      "type": "event"
    },
    {
      "anonymous": false,
      "inputs": [
        {
          "indexed": true,
          "internalType": "address",
          "name": "messengerOwner",
          "type": "address"
        },
        {
          "indexed": true,
          "internalType": "address",
          "name": "messengerAddress",
          "type": "address"
        },
        {
          "indexed": false,
          "internalType": "string",
          "name": "messengerBaseURL",
          "type": "string"
        },
        {
          "indexed": false,
          "internalType": "string",
          "name": "messengerOwnershipURL",
          "type": "string"
        },
        {
          "indexed": false,
          "internalType": "string",
          "name": "messengerSpecificationURL",
          "type": "string"
        }
      ],
      "name": "MessengerRegistered",
      "type": "event"
    },
    {
      "inputs": [
        {
          "internalType": "uint256",
          "name": "",
          "type": "uint256"
        }
      ],
      "name": "messengers",
      "outputs": [
        {
          "internalType": "address",
          "name": "messengerOwner",
          "type": "address"
        },
        {
          "internalType": "address",
          "name": "messengerAddress",
          "type": "address"
        },
        {
          "internalType": "string",
          "name": "messengerBaseURL",
          "type": "string"
        },
        {
          "internalType": "string",
          "name": "messengerOwnershipURL",
          "type": "string"
        },
        {
          "internalType": "string",
          "name": "messengerSpecificationURL",
          "type": "string"
        }
      ],
      "stateMutability": "view",
      "type": "function",
      "constant": true
    },
    {
      "inputs": [
        {
          "internalType": "address",
          "name": "",
          "type": "address"
        },
        {
          "internalType": "uint256",
          "name": "",
          "type": "uint256"
        }
      ],
      "name": "ownerMessengers",
      "outputs": [
        {
          "internalType": "uint256",
          "name": "",
          "type": "uint256"
        }
      ],
      "stateMutability": "view",
      "type": "function",
      "constant": true
    },
    {
      "inputs": [
        {
          "internalType": "address",
          "name": "",
          "type": "address"
        }
      ],
      "name": "registeredMessengers",
      "outputs": [
        {
          "internalType": "bool",
          "name": "",
          "type": "bool"
        }
      ],
      "stateMutability": "view",
      "type": "function",
      "constant": true
    },
    {
      "inputs": [],
      "name": "slaRegistry",
      "outputs": [
        {
          "internalType": "address",
          "name": "",
          "type": "address"
        }
      ],
      "stateMutability": "view",
      "type": "function",
      "constant": true
    },
    {
      "inputs": [],
      "name": "setSLARegistry",
      "outputs": [],
      "stateMutability": "nonpayable",
      "type": "function"
    },
    {
      "inputs": [
        {
          "internalType": "address",
          "name": "_messengerAddress",
          "type": "address"
        },
        {
          "internalType": "string",
          "name": "_messengerBaseURL",
          "type": "string"
        },
        {
          "internalType": "string",
          "name": "_messengerOwnershipURL",
          "type": "string"
        },
        {
          "internalType": "string",
          "name": "_messengerSpecificationURL",
          "type": "string"
        }
      ],
      "name": "registerMessenger",
      "outputs": [],
      "stateMutability": "nonpayable",
      "type": "function"
    },
    {
      "inputs": [
        {
          "internalType": "string",
          "name": "_messengerBaseURL",
          "type": "string"
        },
        {
          "internalType": "string",
          "name": "_messengerOwnershipURL",
          "type": "string"
        },
        {
          "internalType": "string",
          "name": "_messengerSpecificationURL",
          "type": "string"
        },
        {
          "internalType": "uint256",
          "name": "messengerId",
          "type": "uint256"
        }
      ],
      "name": "modifyMessenger",
      "outputs": [],
      "stateMutability": "nonpayable",
      "type": "function"
    },
    {
      "inputs": [],
      "name": "getMessengers",
      "outputs": [
        {
          "components": [
            {
              "internalType": "address",
              "name": "messengerOwner",
              "type": "address"
            },
            {
              "internalType": "address",
              "name": "messengerAddress",
              "type": "address"
            },
            {
              "internalType": "string",
              "name": "messengerBaseURL",
              "type": "string"
            },
            {
              "internalType": "string",
              "name": "messengerOwnershipURL",
              "type": "string"
            },
            {
              "internalType": "string",
              "name": "messengerSpecificationURL",
              "type": "string"
            }
          ],
          "internalType": "struct MessengerRegistry.Messenger[]",
          "name": "",
          "type": "tuple[]"
        }
      ],
      "stateMutability": "view",
      "type": "function",
      "constant": true
    },
    {
      "inputs": [],
      "name": "getMessengersLength",
      "outputs": [
        {
          "internalType": "uint256",
          "name": "",
          "type": "uint256"
        }
      ],
      "stateMutability": "view",
      "type": "function",
      "constant": true
    }
  ],
  "bytecode": "0x608060405234801561001057600080fd5b50611057806100206000396000f3fe608060405234801561001057600080fd5b50600436106100835760003560e01c806304fec8d21461008857806324ec66b3146100b157806369b5354b146100d5578063767f5d0d146100ea5780639aa974c3146100ff5780639f69d7f814610112578063db69a4621461011a578063ef4003db1461012f578063f38815891461014f575b600080fd5b61009b610096366004610b8c565b610157565b6040516100a89190610ff4565b60405180910390f35b6100c46100bf366004610c43565b610185565b6040516100a8959493929190610d3d565b6100dd610370565b6040516100a89190610d9a565b6100fd6100f8366004610af5565b6105ab565b005b6100fd61010d366004610bb7565b61084a565b61009b610939565b61012261093f565b6040516100a89190610d29565b61014261013d366004610ab6565b61094e565b6040516100a89190610e5c565b6100fd610963565b6002602052816000526040600020818154811061017057fe5b90600052602060002001600091509150505481565b6000818154811061019257fe5b600091825260209182902060059091020180546001808301546002808501805460408051601f600019978416156101000297909701909216939093049485018890048802810188019092528382526001600160a01b03948516975091909316949091908301828280156102465780601f1061021b57610100808354040283529160200191610246565b820191906000526020600020905b81548152906001019060200180831161022957829003601f168201915b5050505060038301805460408051602060026001851615610100026000190190941693909304601f81018490048402820184019092528181529495949350908301828280156102d65780601f106102ab576101008083540402835291602001916102d6565b820191906000526020600020905b8154815290600101906020018083116102b957829003601f168201915b5050505060048301805460408051602060026001851615610100026000190190941693909304601f81018490048402820184019092528181529495949350908301828280156103665780601f1061033b57610100808354040283529160200191610366565b820191906000526020600020905b81548152906001019060200180831161034957829003601f168201915b5050505050905085565b60606000805480602002602001604051908101604052809291908181526020016000905b828210156105a15760008481526020908190206040805160a0810182526005860290920180546001600160a01b039081168452600180830154909116848601526002808301805485516101009482161594909402600019011691909104601f81018790048702830187018552808352949592949386019391929091908301828280156104615780601f1061043657610100808354040283529160200191610461565b820191906000526020600020905b81548152906001019060200180831161044457829003601f168201915b505050918352505060038201805460408051602060026001851615610100026000190190941693909304601f81018490048402820184019092528181529382019392918301828280156104f55780601f106104ca576101008083540402835291602001916104f5565b820191906000526020600020905b8154815290600101906020018083116104d857829003601f168201915b505050918352505060048201805460408051602060026001851615610100026000190190941693909304601f81018490048402820184019092528181529382019392918301828280156105895780601f1061055e57610100808354040283529160200191610589565b820191906000526020600020905b81548152906001019060200180831161056c57829003601f168201915b50505050508152505081526020019060010190610394565b5050505090505b90565b6003546001600160a01b031633146105de5760405162461bcd60e51b81526004016105d590610f21565b60405180910390fd5b6001600160a01b03841660009081526001602052604090205460ff16156106175760405162461bcd60e51b81526004016105d590610f75565b6000846001600160a01b0316638da5cb5b6040518163ffffffff1660e01b815260040160206040518083038186803b15801561065257600080fd5b505afa158015610666573d6000803e3d6000fd5b505050506040513d601f19601f8201168201806040525081019061068a9190610ad9565b6001600160a01b038087166000818152600160208181526040808420805460ff191684179055805160a08101825286881681528083019586529081018b8152606082018b9052608082018a905284549384018555938052805160059093027f290decd9548b62a8d60345a988386fc84ba6bc95484008f6362f93160ef3e563810180549488166001600160a01b031995861617815595517f290decd9548b62a8d60345a988386fc84ba6bc95484008f6362f93160ef3e5648201805491909816941693909317909555915180519596509394929361078e937f290decd9548b62a8d60345a988386fc84ba6bc95484008f6362f93160ef3e5659092019201906109a0565b50606082015180516107aa9160038401916020909101906109a0565b50608082015180516107c69160048401916020909101906109a0565b5050600080546001600160a01b0380851680845260026020908152604080862080546001810182559087529190952060001990940193018390559251919350881691907f33d963222d64cd9654c1a98e28b7bbe1cfd5e6c9c89fb44cced8dcff063b12749061083a90899089908990610e67565b60405180910390a3505050505050565b600080828154811061085857fe5b6000918252602090912060059091020180549091506001600160a01b031633146108945760405162461bcd60e51b81526004016105d590610ee0565b84516108a990600283019060208801906109a0565b5083516108bf90600383019060208701906109a0565b5082516108d590600483019060208601906109a0565b50600181015481546040516001600160a01b0392831692909116907f0a32947b078c981c3d2bdb10268114a3c303e6c524fd48977357c10b67de09b39061092a90600286019060038701906004880190610ea9565b60405180910390a35050505050565b60005490565b6003546001600160a01b031681565b60016020526000908152604090205460ff1681565b6003546001600160a01b03161561098c5760405162461bcd60e51b81526004016105d590610fac565b600380546001600160a01b03191633179055565b828054600181600116156101000203166002900490600052602060002090601f016020900481019282601f106109e157805160ff1916838001178555610a0e565b82800160010185558215610a0e579182015b82811115610a0e5782518255916020019190600101906109f3565b50610a1a929150610a1e565b5090565b6105a891905b80821115610a1a5760008155600101610a24565b600082601f830112610a48578081fd5b813567ffffffffffffffff80821115610a5f578283fd5b604051601f8301601f191681016020018281118282101715610a7f578485fd5b604052828152925082848301602001861015610a9a57600080fd5b8260208601602083013760006020848301015250505092915050565b600060208284031215610ac7578081fd5b8135610ad281611009565b9392505050565b600060208284031215610aea578081fd5b8151610ad281611009565b60008060008060808587031215610b0a578283fd5b8435610b1581611009565b9350602085013567ffffffffffffffff80821115610b31578485fd5b610b3d88838901610a38565b94506040870135915080821115610b52578384fd5b610b5e88838901610a38565b93506060870135915080821115610b73578283fd5b50610b8087828801610a38565b91505092959194509250565b60008060408385031215610b9e578182fd5b8235610ba981611009565b946020939093013593505050565b60008060008060808587031215610bcc578384fd5b843567ffffffffffffffff80821115610be3578586fd5b610bef88838901610a38565b95506020870135915080821115610c04578485fd5b610c1088838901610a38565b94506040870135915080821115610c25578384fd5b50610c3287828801610a38565b949793965093946060013593505050565b600060208284031215610c54578081fd5b5035919050565b60008151808452815b81811015610c8057602081850181015186830182015201610c64565b81811115610c915782602083870101525b50601f01601f19169290920160200192915050565b60008154600180821660008114610cc45760018114610ce257610d20565b60028304607f16865260ff1983166020870152604086019350610d20565b60028304808752610cf286610ffd565b60005b82811015610d165781546020828b0101528482019150602081019050610cf5565b8801602001955050505b50505092915050565b6001600160a01b0391909116815260200190565b6001600160a01b0386811682528516602082015260a060408201819052600090610d6990830186610c5b565b8281036060840152610d7b8186610c5b565b8381036080850152610d8d8186610c5b565b9998505050505050505050565b60208082528251828201819052600091906040908185019080840286018301878501865b83811015610e4e57888303603f19018552815180516001600160a01b0390811685528882015116888501528681015160a088860181905290610e0282870182610c5b565b6060925082840151915086810383880152610e1d8183610c5b565b9250505060808083015186830382880152610e388382610c5b565b988b019896505050928801925050600101610dbe565b509098975050505050505050565b901515815260200190565b600060608252610e7a6060830186610c5b565b8281036020840152610e8c8186610c5b565b8381036040850152610e9e8186610c5b565b979650505050505050565b600060608252610ebc6060830186610ca6565b8281036020840152610ece8186610ca6565b8381036040850152610e9e8186610ca6565b60208082526021908201527f43616e206f6e6c79206265206d6f64696669656420627920746865206f776e656040820152603960f91b606082015260800190565b60208082526034908201527f53686f756c64206f6e6c792062652063616c6c6564207573696e67207468652060408201527314d310549959da5cdd1c9e4818dbdb9d1c9858dd60621b606082015260800190565b6020808252601c908201527f6d657373656e67657220616c7265616479207265676973746572656400000000604082015260600190565b60208082526028908201527f534c41526567697374727920616464726573732068617320616c7265616479206040820152671899595b881cd95d60c21b606082015260800190565b90815260200190565b60009081526020902090565b6001600160a01b038116811461101e57600080fd5b5056fea26469706673582212209cb26c814c04b29b91b6d810b40b623e3ac5fb4557230d3122267223d39eeb9e64736f6c63430006060033",
  "immutableReferences": {},
  "source": "// SPDX-License-Identifier: MIT\npragma solidity 0.6.6;\npragma experimental ABIEncoderV2;\n\nimport \"./messenger/IMessenger.sol\";\n\n/**\n * @title MessengerRegistry\n * @dev MessengerRegistry is a contract to register openly distributed Messengers\n */\ncontract MessengerRegistry {\n    struct Messenger {\n        address messengerOwner;\n        address messengerAddress;\n        string messengerBaseURL;\n        string messengerOwnershipURL;\n        string messengerSpecificationURL;\n    }\n\n    /// @dev array to store the messengers\n    Messenger[] public messengers;\n    /// @dev (messengerAddress=>bool) to check if the Messenger was\n    mapping(address => bool) public registeredMessengers;\n    /// @dev (userAddress=>messengerAddress[]) to register the messengers of an owner\n    mapping(address => uint256[]) public ownerMessengers;\n    /// @dev (userAddress=>messengerAddress[]) to register the owner of a Messenger\n    address public slaRegistry;\n\n    event MessengerRegistered(\n        address indexed messengerOwner,\n        address indexed messengerAddress,\n        string messengerBaseURL,\n        string messengerOwnershipURL,\n        string messengerSpecificationURL\n    );\n\n    event MessengerModified(\n        address indexed messengerOwner,\n        address indexed messengerAddress,\n        string messengerBaseURL,\n        string messengerOwnershipURL,\n        string messengerSpecificationURL\n    );\n\n    /**\n     * @dev sets the SLARegistry contract address and can only be called\n     * once\n     */\n    function setSLARegistry() public {\n        // Only able to trigger this function once\n        require(\n            address(slaRegistry) == address(0),\n            \"SLARegistry address has already been set\"\n        );\n\n        slaRegistry = msg.sender;\n    }\n\n    /**\n     * @dev function to register a new Messenger\n     */\n    function registerMessenger(\n        address _messengerAddress,\n        string memory _messengerBaseURL,\n        string memory _messengerOwnershipURL,\n        string memory _messengerSpecificationURL\n    ) public {\n        require(\n            msg.sender == slaRegistry,\n            \"Should only be called using the SLARegistry contract\"\n        );\n        require(\n            registeredMessengers[_messengerAddress] == false,\n            \"messenger already registered\"\n        );\n        address messengerOwner = IMessenger(_messengerAddress).owner();\n        registeredMessengers[_messengerAddress] = true;\n        messengers.push(\n            Messenger({\n                messengerBaseURL: _messengerBaseURL,\n                messengerOwnershipURL: _messengerOwnershipURL,\n                messengerSpecificationURL: _messengerSpecificationURL,\n                messengerOwner: messengerOwner,\n                messengerAddress: _messengerAddress\n            })\n        );\n        uint256 index = messengers.length - 1;\n        ownerMessengers[messengerOwner].push(index);\n        emit MessengerRegistered(\n            messengerOwner,\n            _messengerAddress,\n            _messengerBaseURL,\n            _messengerOwnershipURL,\n            _messengerSpecificationURL\n        );\n    }\n\n    /**\n     * @dev function to modifyMessenger a new Messenger\n     */\n    function modifyMessenger(\n        string memory _messengerBaseURL,\n        string memory _messengerOwnershipURL,\n        string memory _messengerSpecificationURL,\n        uint256 messengerId\n    ) public {\n        Messenger storage messenger = messengers[messengerId];\n        require(\n            msg.sender == messenger.messengerOwner,\n            \"Can only be modified by the owner\"\n        );\n        messenger.messengerBaseURL = _messengerBaseURL;\n        messenger.messengerOwnershipURL = _messengerOwnershipURL;\n        messenger.messengerSpecificationURL = _messengerSpecificationURL;\n        emit MessengerModified(\n            messenger.messengerOwner,\n            messenger.messengerAddress,\n            messenger.messengerBaseURL,\n            messenger.messengerOwnershipURL,\n            messenger.messengerSpecificationURL\n        );\n    }\n\n    function getMessengers() public view returns (Messenger[] memory) {\n        return messengers;\n    }\n\n    function getMessengersLength() public view returns (uint256) {\n        return messengers.length;\n    }\n}\n",
  "sourcePath": "/Users/matiasbn/Desktop/stacktical/stacktical-dsla-contracts/contracts/MessengerRegistry.sol",
  "compiler": {
    "name": "solc",
    "version": "0.6.6+commit.6c089d02.Emscripten.clang"
  },
  "schemaVersion": "3.3.3",
  "updatedAt": "2021-03-17T13:05:07.123Z",
  "networkType": "ethereum",
  "devdoc": {
    "details": "MessengerRegistry is a contract to register openly distributed Messengers",
    "methods": {
      "modifyMessenger(string,string,string,uint256)": {
        "details": "function to modifyMessenger a new Messenger"
      },
      "registerMessenger(address,string,string,string)": {
        "details": "function to register a new Messenger"
      },
      "setSLARegistry()": {
        "details": "sets the SLARegistry contract address and can only be called once"
      }
    },
    "title": "MessengerRegistry"
  },
  "userdoc": {
    "methods": {}
  }
}