{
  "contractName": "Messenger",
  "abi": [
    {
      "inputs": [
        {
          "internalType": "address",
          "name": "_chainlinkOracle",
          "type": "address"
        },
        {
          "internalType": "address",
          "name": "_chainlinkToken",
          "type": "address"
        },
        {
          "internalType": "bytes32",
          "name": "_jobId",
          "type": "bytes32"
        }
      ],
      "stateMutability": "nonpayable",
      "type": "constructor"
    },
    {
      "anonymous": false,
      "inputs": [
        {
          "indexed": false,
          "internalType": "bytes32",
          "name": "network",
          "type": "bytes32"
        },
        {
          "indexed": false,
          "internalType": "uint256",
          "name": "periodId",
          "type": "uint256"
        },
        {
          "indexed": false,
          "internalType": "bytes32",
          "name": "ipfsHash",
          "type": "bytes32"
        }
      ],
      "name": "AnalyticsReceived",
      "type": "event"
    },
    {
      "anonymous": false,
      "inputs": [
        {
          "indexed": true,
          "internalType": "bytes32",
          "name": "id",
          "type": "bytes32"
        }
      ],
      "name": "ChainlinkCancelled",
      "type": "event"
    },
    {
      "anonymous": false,
      "inputs": [
        {
          "indexed": true,
          "internalType": "bytes32",
          "name": "id",
          "type": "bytes32"
        }
      ],
      "name": "ChainlinkFulfilled",
      "type": "event"
    },
    {
      "anonymous": false,
      "inputs": [
        {
          "indexed": true,
          "internalType": "bytes32",
          "name": "id",
          "type": "bytes32"
        }
      ],
      "name": "ChainlinkRequested",
      "type": "event"
    },
    {
      "anonymous": false,
      "inputs": [
        {
          "indexed": false,
          "internalType": "address",
          "name": "slaAddress",
          "type": "address"
        },
        {
          "indexed": false,
          "internalType": "uint256",
          "name": "hits",
          "type": "uint256"
        },
        {
          "indexed": false,
          "internalType": "uint256",
          "name": "misses",
          "type": "uint256"
        },
        {
          "indexed": false,
          "internalType": "uint256",
          "name": "sliValue",
          "type": "uint256"
        },
        {
          "indexed": false,
          "internalType": "uint256",
          "name": "periodId",
          "type": "uint256"
        }
      ],
      "name": "SLIReceived",
      "type": "event"
    },
    {
      "inputs": [],
      "name": "fee",
      "outputs": [
        {
          "internalType": "uint256",
          "name": "",
          "type": "uint256"
        }
      ],
      "stateMutability": "view",
      "type": "function"
    },
    {
      "inputs": [],
      "name": "jobId",
      "outputs": [
        {
          "internalType": "bytes32",
          "name": "",
          "type": "bytes32"
        }
      ],
      "stateMutability": "view",
      "type": "function"
    },
    {
      "inputs": [],
      "name": "oracle",
      "outputs": [
        {
          "internalType": "address",
          "name": "",
          "type": "address"
        }
      ],
      "stateMutability": "view",
      "type": "function"
    },
    {
      "inputs": [
        {
          "internalType": "bytes32",
          "name": "",
          "type": "bytes32"
        }
      ],
      "name": "requestIdToAnalyticsRequest",
      "outputs": [
        {
          "internalType": "bytes32",
          "name": "networkName",
          "type": "bytes32"
        },
        {
          "internalType": "uint256",
          "name": "weekId",
          "type": "uint256"
        }
      ],
      "stateMutability": "view",
      "type": "function"
    },
    {
      "inputs": [
        {
          "internalType": "bytes32",
          "name": "",
          "type": "bytes32"
        }
      ],
      "name": "requestIdToSLIRequest",
      "outputs": [
        {
          "internalType": "contract SLA",
          "name": "sla",
          "type": "address"
        },
        {
          "internalType": "uint256",
          "name": "periodId",
          "type": "uint256"
        }
      ],
      "stateMutability": "view",
      "type": "function"
    },
    {
      "inputs": [
        {
          "internalType": "uint256",
          "name": "",
          "type": "uint256"
        }
      ],
      "name": "requests",
      "outputs": [
        {
          "internalType": "bytes32",
          "name": "",
          "type": "bytes32"
        }
      ],
      "stateMutability": "view",
      "type": "function"
    },
    {
      "inputs": [],
      "name": "slaRegistry",
      "outputs": [
        {
          "internalType": "contract SLARegistry",
          "name": "",
          "type": "address"
        }
      ],
      "stateMutability": "view",
      "type": "function"
    },
    {
      "inputs": [],
      "name": "setSLARegistry",
      "outputs": [],
      "stateMutability": "nonpayable",
      "type": "function"
    },
    {
      "inputs": [
        {
          "internalType": "uint256",
          "name": "_periodId",
          "type": "uint256"
        },
        {
          "internalType": "contract SLA",
          "name": "_sla",
          "type": "address"
        }
      ],
      "name": "requestSLI",
      "outputs": [],
      "stateMutability": "nonpayable",
      "type": "function"
    },
    {
      "inputs": [
        {
          "internalType": "bytes32",
          "name": "_requestId",
          "type": "bytes32"
        },
        {
          "internalType": "bytes32",
          "name": "_chainlinkResponse",
          "type": "bytes32"
        }
      ],
      "name": "fulfillSLI",
      "outputs": [],
      "stateMutability": "nonpayable",
      "type": "function"
    },
    {
      "inputs": [
        {
          "internalType": "uint256",
          "name": "_weekId",
          "type": "uint256"
        },
        {
          "internalType": "bytes32",
          "name": "_networkName",
          "type": "bytes32"
        }
      ],
      "name": "requestAnalytics",
      "outputs": [],
      "stateMutability": "nonpayable",
      "type": "function"
    },
    {
      "inputs": [
        {
          "internalType": "bytes32",
          "name": "_requestId",
          "type": "bytes32"
        },
        {
          "internalType": "bytes32",
          "name": "_chainlinkResponse",
          "type": "bytes32"
        }
      ],
      "name": "fulFillAnalytics",
      "outputs": [],
      "stateMutability": "nonpayable",
      "type": "function"
    }
  ],
  "bytecode": "0x6080604052600160045567016345785d8a0000600c553480156200002257600080fd5b5060405162001b7d38038062001b7d83398101604081905262000045916200009f565b600b81905562000055826200007d565b5050600a80546001600160a01b0319166001600160a01b0392909216919091179055620000ff565b600280546001600160a01b0319166001600160a01b0392909216919091179055565b600080600060608486031215620000b4578283fd5b8351620000c181620000e6565b6020850151909350620000d481620000e6565b80925050604084015190509250925092565b6001600160a01b0381168114620000fc57600080fd5b50565b611a6e806200010f6000396000f3fe608060405234801561001057600080fd5b50600436106100b45760003560e01c8063ae401eb911610071578063ae401eb914610153578063c2939d9714610174578063d19944081461017c578063db69a4621461018f578063ddca3f4314610197578063f38815891461019f576100b4565b80631e0ab514146100b95780637dc0d1d0146100ce5780638190f341146100ec57806381d12c58146100ff5780639b4523231461011f578063ad021f4914610140575b600080fd5b6100cc6100c7366004611666565b6101a7565b005b6100d661045b565b6040516100e39190611742565b60405180910390f35b6100cc6100fa366004611645565b61046a565b61011261010d36600461162d565b6105bf565b6040516100e39190611813565b61013261012d36600461162d565b6105dd565b6040516100e3929190611832565b6100cc61014e366004611645565b6105f6565b61016661016136600461162d565b6107ac565b6040516100e3929190611840565b6101126107d1565b6100cc61018a366004611678565b6107d7565b6100d66109de565b6101126109ed565b6100cc6109f3565b6009546001600160a01b03163314806101d857506101c3610a30565b6001600160a01b0316336001600160a01b0316145b6101fd5760405162461bcd60e51b81526004016101f4906119db565b60405180910390fd5b6102056115a7565b600b5461021a9030638190f34160e01b610a3f565b6009546040516306fe745760e51b815291925060009182916001600160a01b03169063dfce8ae090610250908890600401611813565b604080518083038186803b15801561026757600080fd5b505afa15801561027b573d6000803e3d6000fd5b505050506040513d601f19601f8201168201806040525081019061029f91906116b2565b91509150610301604051806040016040528060088152602001676a6f625f7479706560c01b815250604051806040016040528060118152602001707075626c6973685f616e616c797469637360781b81525085610a649092919063ffffffff16565b61033a6040518060400160405280600c81526020016b6e6574776f726b5f6e616d6560a01b81525061033286610a87565b859190610a64565b610366604051806040016040528060078152602001661dd9595ad7da5960ca1b81525061033287610b96565b61039f604051806040016040528060148152602001731cdb1857db5bdb9a5d1bdc9a5b99d7dcdd185c9d60621b81525061033284610b96565b6103d6604051806040016040528060128152602001711cdb1857db5bdb9a5d1bdc9a5b99d7d95b9960721b81525061033283610b96565b600a54600c546000916103f6916001600160a01b03909116908690610c71565b6008805460018181019092557ff3f7a9fe364faab93b216da50a3214154f22a0a2b415b23a84c8169e8b636ee3018290556040805180820182529788526020888101998a52600093845260079052909120955186559551949095019390935550505050565b600a546001600160a01b031681565b60008281526005602052604090205482906001600160a01b031633146104a25760405162461bcd60e51b81526004016101f490611993565b60008181526005602052604080822080546001600160a01b03191690555182917f7cc135e0cebb02c3480ae5d74d377283180a2601f8f644edf7987b009316c63a91a26104ed6115dc565b5060008381526007602090815260409182902082518084018452815480825260019092015492810183905292517f70017f42b317823f38de5a9362a93665f2cb5b7515ca57a2aea1c9e2b8daca8f926105489291879061181c565b60405180910390a160095481516020830151604051637b168da360e11b81526001600160a01b039093169263f62d1b469261058792889260040161181c565b600060405180830381600087803b1580156105a157600080fd5b505af11580156105b5573d6000803e3d6000fd5b5050505050505050565b600881815481106105cc57fe5b600091825260209091200154905081565b6007602052600090815260409020805460019091015482565b60008281526005602052604090205482906001600160a01b0316331461062e5760405162461bcd60e51b81526004016101f490611993565b60008181526005602052604080822080546001600160a01b03191690555182917f7cc135e0cebb02c3480ae5d74d377283180a2601f8f644edf7987b009316c63a91a26106796115dc565b50600083815260066020908152604091829020825180840190935280546001600160a01b03168352600101549082015260606106b484610a87565b90506000806106c283610db0565b909250905060006106d683620186a0610f5a565b905060006106e48484610f9d565b905060006106f28383610fc2565b875160208901516040519293507fa749e7719c4c30f668fabc259add79e8dbe4e5861c009f35567fe8a1560b028b9261073192918991899187916117e5565b60405180910390a186516020880151604051636bd2e21160e11b81526001600160a01b039092169163d7a5c4229161076e91859190600401611832565b600060405180830381600087803b15801561078857600080fd5b505af115801561079c573d6000803e3d6000fd5b5050505050505050505050505050565b600660205260009081526040902080546001909101546001600160a01b039091169082565b600b5481565b6009546001600160a01b031633148061080857506107f3610a30565b6001600160a01b0316336001600160a01b0316145b6108245760405162461bcd60e51b81526004016101f4906119db565b61082c6115a7565b600b54610841903063ad021f4960e01b610a3f565b9050610897604051806040016040528060088152602001676a6f625f7479706560c01b815250604051806040016040528060078152602001666765745f736c6960c81b81525083610a649092919063ffffffff16565b6108cb604051806040016040528060078152602001661dd9595ad7da5960ca1b8152506108c385610b96565b839190610a64565b6108fb6040518060400160405280600b81526020016a736c615f6164647265737360a81b8152506108c384610ff7565b604080518082019091526014815273736c615f72656769737472795f6164647265737360601b602082015260095461094091906108c3906001600160a01b0316610ff7565b600a54600c54600091610960916001600160a01b03909116908490610c71565b6008805460018082019092557ff3f7a9fe364faab93b216da50a3214154f22a0a2b415b23a84c8169e8b636ee3018290556040805180820182526001600160a01b03968716815260208082019889526000948552600690529220915182546001600160a01b0319169516949094178155935193909201929092555050565b6009546001600160a01b031681565b600c5481565b6009546001600160a01b031615610a1c5760405162461bcd60e51b81526004016101f49061190a565b600980546001600160a01b03191633179055565b6003546001600160a01b031690565b610a476115a7565b610a4f6115a7565b610a5b81868686611173565b95945050505050565b6080830151610a7390836111b0565b6080830151610a8290826111b0565b505050565b606060005b60208160ff16108015610aba5750828160ff1660208110610aa957fe5b1a60f81b6001600160f81b03191615155b15610ac757600101610a8c565b60608160ff1667ffffffffffffffff81118015610ae357600080fd5b506040519080825280601f01601f191660200182016040528015610b0e576020820181803683370190505b509050600091505b60208260ff16108015610b445750838260ff1660208110610b3357fe5b1a60f81b6001600160f81b03191615155b15610b8d57838260ff1660208110610b5857fe5b1a60f81b818360ff1681518110610b6b57fe5b60200101906001600160f81b031916908160001a905350600190910190610b16565b9150505b919050565b60608180610bbd5750506040805180820190915260018152600360fc1b6020820152610b91565b8060005b8115610bd557600101600a82049150610bc1565b60608167ffffffffffffffff81118015610bee57600080fd5b506040519080825280601f01601f191660200182016040528015610c19576020820181803683370190505b50905060001982015b8415610c6757600a850660300160f81b82828060019003935081518110610c4557fe5b60200101906001600160f81b031916908160001a905350600a85049450610c22565b5095945050505050565b600030600454604051602001610c88929190611720565b60408051808303601f19018152918152815160209283012060045460608701526000818152600590935281832080546001600160a01b0319166001600160a01b038916179055905190925082917fb5e6e01e79f91267dc17b4e6314d5d4d03593d2ceee0fbb452b750bd70ea5af991a26002546001600160a01b0316634000aea08584610d14876111c7565b6040518463ffffffff1660e01b8152600401610d32939291906117be565b602060405180830381600087803b158015610d4c57600080fd5b505af1158015610d60573d6000803e3d6000fd5b505050506040513d601f19601f82011682018060405250810190610d84919061160d565b610da05760405162461bcd60e51b81526004016101f490611890565b6004805460010190559392505050565b80516000908190839060608167ffffffffffffffff81118015610dd257600080fd5b506040519080825280601f01601f191660200182016040528015610dfd576020820181803683370190505b50905060608267ffffffffffffffff81118015610e1957600080fd5b506040519080825280601f01601f191660200182016040528015610e44576020820181803683370190505b50905060005b83811015610f3157600b60fa1b6001600160f81b031916858281518110610e6d57fe5b01602001516001600160f81b0319161415610f295760005b81811015610ecf57858181518110610e9957fe5b602001015160f81c60f81b848281518110610eb057fe5b60200101906001600160f81b031916908160001a905350600101610e85565b5060005b600182860303811015610f27578581836001010181518110610ef157fe5b602001015160f81c60f81b838281518110610f0857fe5b60200101906001600160f81b031916908160001a905350600101610ed3565b505b600101610e4a565b506000610f3d83611243565b90506000610f4a83611243565b9197509095505050505050915091565b600082610f6957506000610f97565b82820282848281610f7657fe5b0414610f945760405162461bcd60e51b81526004016101f490611952565b90505b92915050565b600082820183811015610f945760405162461bcd60e51b81526004016101f490611859565b6000808211610fe35760405162461bcd60e51b81526004016101f4906118d3565b6000828481610fee57fe5b04949350505050565b604080518082018252601081526f181899199a1a9b1b9c1cb0b131b232b360811b60208201528151602a80825260608281019094526001600160a01b03851692918491602082018180368337019050509050600360fc1b8160008151811061105b57fe5b60200101906001600160f81b031916908160001a905350600f60fb1b8160018151811061108457fe5b60200101906001600160f81b031916908160001a90535060005b601481101561116a578260048583600c01602081106110b957fe5b1a60f81b6001600160f81b031916901c60f81c60ff16815181106110d957fe5b602001015160f81c60f81b8282600202600201815181106110f657fe5b60200101906001600160f81b031916908160001a905350828482600c016020811061111d57fe5b825191901a600f1690811061112e57fe5b602001015160f81c60f81b82826002026003018151811061114b57fe5b60200101906001600160f81b031916908160001a90535060010161109e565b50949350505050565b61117b6115a7565b61118b85608001516101006112c3565b50509183526001600160a01b031660208301526001600160e01b031916604082015290565b6111bd82600383516112fd565b610a8282826113d7565b6060634042994660e01b6000808460000151856020015186604001518760600151600189608001516000015160405160240161120a989796959493929190611756565b60408051601f198184030181529190526020810180516001600160e01b03166001600160e01b0319909316929092179091529050919050565b6000805b82518110156112bd57603083828151811061125e57fe5b016020015160f81c108015906112885750603983828151811061127d57fe5b016020015160f81c11155b156112b557603083828151811061129b57fe5b602001015160f81c60f81b60f81c0360ff1682600a020191505b600101611247565b50919050565b6112cb6115f3565b60208206156112e05760208206602003820191505b506020828101829052604080518085526000815290920101905290565b6017811161131e576113188360e0600585901b1683176113f1565b50610a82565b60ff81116113485761133b836018611fe0600586901b16176113f1565b5061131883826001611409565b61ffff811161137357611366836019611fe0600586901b16176113f1565b5061131883826002611409565b63ffffffff81116113a05761139383601a611fe0600586901b16176113f1565b5061131883826004611409565b67ffffffffffffffff8111610a82576113c483601b611fe0600586901b16176113f1565b506113d183826008611409565b50505050565b6113df6115f3565b610f948384600001515184855161142a565b6113f96115f3565b610f9483846000015151846114d6565b6114116115f3565b611422848560000151518585611521565b949350505050565b6114326115f3565b825182111561144057600080fd5b8460200151828501111561146a5761146a85611462876020015187860161157f565b600202611590565b6000808651805187602083010193508088870111156114895787860182525b505050602084015b602084106114b05780518252601f199093019260209182019101611491565b51815160001960208690036101000a019081169019919091161790525083949350505050565b6114de6115f3565b836020015183106114fa576114fa848560200151600202611590565b835180516020858301018481535080851415611517576001810182525b5093949350505050565b6115296115f3565b846020015184830111156115465761154685858401600202611590565b60006001836101000a0390508551838682010185831982511617815250805184870111156115745783860181525b509495945050505050565b6000818311156112bd575081610f97565b815161159c83836112c3565b506113d183826113d7565b6040805160a0810182526000808252602082018190529181018290526060810191909152608081016115d76115f3565b905290565b604080518082019091526000808252602082015290565b604051806040016040528060608152602001600081525090565b60006020828403121561161e578081fd5b81518015158114610f94578182fd5b60006020828403121561163e578081fd5b5035919050565b60008060408385031215611657578081fd5b50508035926020909101359150565b60008060408385031215611657578182fd5b6000806040838503121561168a578182fd5b8235915060208301356001600160a01b03811681146116a7578182fd5b809150509250929050565b600080604083850312156116c4578182fd5b505080516020909101519092909150565b60008151808452815b818110156116fa576020818501810151868301820152016116de565b8181111561170b5782602083870101525b50601f01601f19169290920160200192915050565b60609290921b6bffffffffffffffffffffffff19168252601482015260340190565b6001600160a01b0391909116815260200190565b6001600160a01b0389811682526020820189905260408201889052861660608201526001600160e01b03198516608082015260a0810184905260c0810183905261010060e082018190526000906117af838201856116d5565b9b9a5050505050505050505050565b600060018060a01b038516825283602083015260606040830152610a5b60608301846116d5565b6001600160a01b03959095168552602085019390935260408401919091526060830152608082015260a00190565b90815260200190565b9283526020830191909152604082015260600190565b918252602082015260400190565b6001600160a01b03929092168252602082015260400190565b6020808252601b908201527f536166654d6174683a206164646974696f6e206f766572666c6f770000000000604082015260600190565b60208082526023908201527f756e61626c6520746f207472616e73666572416e6443616c6c20746f206f7261604082015262636c6560e81b606082015260800190565b6020808252601a908201527f536166654d6174683a206469766973696f6e206279207a65726f000000000000604082015260600190565b60208082526028908201527f534c41526567697374727920616464726573732068617320616c7265616479206040820152671899595b881cd95d60c21b606082015260800190565b60208082526021908201527f536166654d6174683a206d756c7469706c69636174696f6e206f766572666c6f6040820152607760f81b606082015260800190565b60208082526028908201527f536f75726365206d75737420626520746865206f7261636c65206f6620746865604082015267081c995c5d595cdd60c21b606082015260800190565b6020808252603f908201527f43616e206f6e6c792062652063616c6c656420627920636f6e6e65637465642060408201527f534c415265676973747279206f7220436861696e6c696e6b204f7261636c650060608201526080019056fea26469706673582212203b43a30854dc38fe99010446c8051a03b0d5aa1cea0d34736afd418571b0f17264736f6c634300060c0033",
  "immutableReferences": {},
  "source": "pragma solidity ^0.6.0;\npragma experimental ABIEncoderV2;\n\nimport \"./SLA.sol\";\nimport \"./StringUtils.sol\";\nimport \"./SLARegistry.sol\";\nimport \"@chainlink/contracts/src/v0.6/ChainlinkClient.sol\";\n\n/**\n* @title Messenger\n* @notice Messenger is a contract to interact with an Oracle and request SLI information to Stacktical API\non a decentralized fashion. Is not meant to be interacted directly.\n* @dev This contract is attached immediately after deployment to a SLARegistry\n*/\n\ncontract Messenger is ChainlinkClient, StringUtils {\n    struct SLIRequest {\n        SLA sla;\n        uint256 periodId;\n    }\n\n    struct AnalyticsRequest {\n        bytes32 networkName;\n        uint256 weekId;\n    }\n\n    /// @dev Mapping that stores chainlink sli request information\n    mapping(bytes32 => SLIRequest) public requestIdToSLIRequest;\n    /// @dev Mapping that stores chainlink analytics request information\n    mapping(bytes32 => AnalyticsRequest) public requestIdToAnalyticsRequest;\n    /// @dev Array with all request IDs\n    bytes32[] public requests;\n    /// @dev The address of the SLARegistry contract\n    SLARegistry public slaRegistry;\n    /// @dev Chainlink oracle address\n    address public oracle;\n    /// @dev chainlink jobId\n    bytes32 public jobId;\n    /// @dev fee for Chainlink querys. Currently 0.1 LINK\n    uint256 public fee = 0.1 * 10**18;\n\n    /**\n     * @dev event emitted when having a response from Chainlink with the SLI\n     * @param slaAddress 1. SLA address to store the SLI\n     * @param hits 2. SLI value\n     * @param misses 3. SLI value\n     * @param sliValue 4. SLI value\n     * @param periodId 5. id of the period\n     */\n    event SLIReceived(\n        address slaAddress,\n        uint256 hits,\n        uint256 misses,\n        uint256 sliValue,\n        uint256 periodId\n    );\n\n    /**\n     * @dev event emitted when having a response from Chainlink with the SLI\n     * @param network 1. network name\n     * @param periodId 2. id of the period\n     * @param ipfsHash 3. hash of the ipfs object\n     */\n    event AnalyticsReceived(\n        bytes32 network,\n        uint256 periodId,\n        bytes32 ipfsHash\n    );\n\n    /**\n     * @dev parameterize the variables according to network\n     * @notice sets the Chainlink parameters (oracle address, token address, jobId) and sets the SLARegistry to 0x0 address\n     * @param _chainlinkOracle the address of the oracle to create requests to\n     * @param _chainlinkToken the address of LINK token contract\n     * @param _jobId the job id for the HTTPGet job\n     */\n    constructor(\n        address _chainlinkOracle,\n        address _chainlinkToken,\n        bytes32 _jobId\n    ) public {\n        jobId = _jobId;\n        setChainlinkToken(_chainlinkToken);\n        oracle = _chainlinkOracle;\n    }\n\n    /// @dev Throws if called by any address other than the SLARegistry contract or Chainlink Oracle.\n    modifier onlyAllowedAddresses() {\n        require(\n            msg.sender == address(slaRegistry) ||\n                msg.sender == chainlinkOracleAddress(),\n            \"Can only be called by connected SLARegistry or Chainlink Oracle\"\n        );\n        _;\n    }\n\n    /**\n     * @dev sets the SLARegistry contract address and can only be called\n     * once\n     */\n    function setSLARegistry() public {\n        // Only able to trigger this function once\n        require(\n            address(slaRegistry) == address(0),\n            \"SLARegistry address has already been set\"\n        );\n\n        slaRegistry = SLARegistry(msg.sender);\n    }\n\n    /**\n     * @dev creates a ChainLink request to get a new SLI value for the\n     * given params. Can only be called by the SLARegistry contract or Chainlink Oracle.\n     * @param _periodId value of the period id\n     * @param _sla SLA Address\n     */\n\n    function requestSLI(uint256 _periodId, SLA _sla)\n        public\n        onlyAllowedAddresses\n    {\n        Chainlink.Request memory request =\n            buildChainlinkRequest(\n                jobId,\n                address(this),\n                this.fulfillSLI.selector\n            );\n        request.add(\"job_type\", \"get_sli\");\n        request.add(\"week_id\", _uintToStr(_periodId));\n        request.add(\"sla_address\", _addressToString(address(_sla)));\n        request.add(\n            \"sla_registry_address\",\n            _addressToString(address(slaRegistry))\n        );\n\n        // Sends the request with 0.1 LINK to the oracle contract\n        bytes32 requestId = sendChainlinkRequestTo(oracle, request, fee);\n\n        requests.push(requestId);\n\n        requestIdToSLIRequest[requestId] = SLIRequest(_sla, _periodId);\n    }\n\n    /**\n     * @dev callback function for the Chainlink SLI request which stores\n     * the SLI in the SLA contract\n     * @param _requestId the ID of the ChainLink request\n     * @param _chainlinkResponse response object from Chainlink Oracles\n     */\n    function fulfillSLI(bytes32 _requestId, bytes32 _chainlinkResponse)\n        public\n        recordChainlinkFulfillment(_requestId)\n    {\n        SLIRequest memory request = requestIdToSLIRequest[_requestId];\n        string memory sliData = _bytes32ToStr(_chainlinkResponse);\n        (uint256 hits, uint256 misses) = _parseSLIData(sliData);\n        uint256 num = hits.mul(100 * 1000);\n        uint256 total = hits.add(misses);\n        uint256 efficiency = num.div(total);\n        emit SLIReceived(\n            address(request.sla),\n            hits,\n            misses,\n            efficiency,\n            request.periodId\n        );\n\n        request.sla.registerSLI(efficiency, request.periodId);\n    }\n\n    /**\n     * @dev creates a ChainLink request to get a new SLI value for the\n     * given params. Can only be called by the SLARegistry contract or Chainlink Oracle.\n     * @param _weekId end of the period\n     * @param _networkName name of the network to get analytics\n     */\n\n    function requestAnalytics(uint256 _weekId, bytes32 _networkName)\n        public\n        onlyAllowedAddresses\n    {\n        Chainlink.Request memory request =\n            buildChainlinkRequest(\n                jobId,\n                address(this),\n                this.fulFillAnalytics.selector\n            );\n\n        (uint256 periodStart, uint256 periodEnd) =\n            slaRegistry.canonicalPeriods(_weekId);\n\n        request.add(\"job_type\", \"publish_analytics\");\n        request.add(\"network_name\", _bytes32ToStr(_networkName));\n        request.add(\"week_id\", _uintToStr(_weekId));\n        request.add(\"sla_monitoring_start\", _uintToStr(periodStart));\n        request.add(\"sla_monitoring_end\", _uintToStr(periodEnd));\n\n        // Sends the request with 0.1 LINK to the oracle contract\n        bytes32 requestId = sendChainlinkRequestTo(oracle, request, fee);\n        requests.push(requestId);\n        requestIdToAnalyticsRequest[requestId] = AnalyticsRequest(\n            _networkName,\n            _weekId\n        );\n    }\n\n    /**\n     * @dev callback function for the Chainlink SLI request which stores\n     * the SLI in the SLA contract\n     * @param _requestId the ID of the ChainLink request\n     * @param _chainlinkResponse response object from Chainlink Oracles\n     */\n    function fulFillAnalytics(bytes32 _requestId, bytes32 _chainlinkResponse)\n        public\n        recordChainlinkFulfillment(_requestId)\n    {\n        AnalyticsRequest memory request =\n            requestIdToAnalyticsRequest[_requestId];\n\n        emit AnalyticsReceived(\n            request.networkName,\n            request.weekId,\n            _chainlinkResponse\n        );\n\n        slaRegistry.publishAnalyticsHash(\n            _chainlinkResponse,\n            request.networkName,\n            request.weekId\n        );\n    }\n}\n",
  "sourcePath": "/Users/matiasbn/Desktop/stacktical/stacktical-dsla-contracts/contracts/Messenger.sol",
  "compiler": {
    "name": "solc",
    "version": "0.6.12+commit.27d51765.Emscripten.clang"
  },
  "schemaVersion": "3.3.3",
  "updatedAt": "2021-02-11T00:55:10.031Z",
  "devdoc": {
    "details": "This contract is attached immediately after deployment to a SLARegistry",
    "events": {
      "AnalyticsReceived(bytes32,uint256,bytes32)": {
        "details": "event emitted when having a response from Chainlink with the SLI",
        "params": {
          "ipfsHash": "3. hash of the ipfs object",
          "network": "1. network name",
          "periodId": "2. id of the period"
        }
      },
      "SLIReceived(address,uint256,uint256,uint256,uint256)": {
        "details": "event emitted when having a response from Chainlink with the SLI",
        "params": {
          "hits": "2. SLI value",
          "misses": "3. SLI value",
          "periodId": "5. id of the period",
          "slaAddress": "1. SLA address to store the SLI",
          "sliValue": "4. SLI value"
        }
      }
    },
    "kind": "dev",
    "methods": {
      "constructor": {
        "details": "parameterize the variables according to network",
        "params": {
          "_chainlinkOracle": "the address of the oracle to create requests to",
          "_chainlinkToken": "the address of LINK token contract",
          "_jobId": "the job id for the HTTPGet job"
        }
      },
      "fulFillAnalytics(bytes32,bytes32)": {
        "details": "callback function for the Chainlink SLI request which stores the SLI in the SLA contract",
        "params": {
          "_chainlinkResponse": "response object from Chainlink Oracles",
          "_requestId": "the ID of the ChainLink request"
        }
      },
      "fulfillSLI(bytes32,bytes32)": {
        "details": "callback function for the Chainlink SLI request which stores the SLI in the SLA contract",
        "params": {
          "_chainlinkResponse": "response object from Chainlink Oracles",
          "_requestId": "the ID of the ChainLink request"
        }
      },
      "requestAnalytics(uint256,bytes32)": {
        "details": "creates a ChainLink request to get a new SLI value for the given params. Can only be called by the SLARegistry contract or Chainlink Oracle.",
        "params": {
          "_networkName": "name of the network to get analytics",
          "_weekId": "end of the period"
        }
      },
      "requestSLI(uint256,address)": {
        "details": "creates a ChainLink request to get a new SLI value for the given params. Can only be called by the SLARegistry contract or Chainlink Oracle.",
        "params": {
          "_periodId": "value of the period id",
          "_sla": "SLA Address"
        }
      },
      "setSLARegistry()": {
        "details": "sets the SLARegistry contract address and can only be called once"
      }
    },
    "stateVariables": {
      "fee": {
        "details": "fee for Chainlink querys. Currently 0.1 LINK"
      },
      "jobId": {
        "details": "chainlink jobId"
      },
      "oracle": {
        "details": "Chainlink oracle address"
      },
      "requestIdToAnalyticsRequest": {
        "details": "Mapping that stores chainlink analytics request information"
      },
      "requestIdToSLIRequest": {
        "details": "Mapping that stores chainlink sli request information"
      },
      "requests": {
        "details": "Array with all request IDs"
      },
      "slaRegistry": {
        "details": "The address of the SLARegistry contract"
      }
    },
    "title": "Messenger",
    "version": 1
  },
  "userdoc": {
    "kind": "user",
    "methods": {
      "constructor": "sets the Chainlink parameters (oracle address, token address, jobId) and sets the SLARegistry to 0x0 address"
    },
    "notice": "Messenger is a contract to interact with an Oracle and request SLI information to Stacktical API on a decentralized fashion. Is not meant to be interacted directly.",
    "version": 1
  }
}