{
  "contractName": "Messenger",
  "abi": [
    {
      "inputs": [
        {
          "internalType": "string",
          "name": "_apiUrl",
          "type": "string"
        },
        {
          "internalType": "address",
          "name": "_chainlinkOracle",
          "type": "address"
        },
        {
          "internalType": "address",
          "name": "_chainlinkToken",
          "type": "address"
        },
        {
          "internalType": "bytes32",
          "name": "_jobId",
          "type": "bytes32"
        }
      ],
      "stateMutability": "nonpayable",
      "type": "constructor"
    },
    {
      "anonymous": false,
      "inputs": [
        {
          "indexed": false,
          "internalType": "bytes32",
          "name": "network",
          "type": "bytes32"
        },
        {
          "indexed": false,
          "internalType": "uint256",
          "name": "periodId",
          "type": "uint256"
        },
        {
          "indexed": false,
          "internalType": "bytes32",
          "name": "ipfsHash",
          "type": "bytes32"
        }
      ],
      "name": "AnalyticsReceived",
      "type": "event"
    },
    {
      "anonymous": false,
      "inputs": [
        {
          "indexed": true,
          "internalType": "bytes32",
          "name": "id",
          "type": "bytes32"
        }
      ],
      "name": "ChainlinkCancelled",
      "type": "event"
    },
    {
      "anonymous": false,
      "inputs": [
        {
          "indexed": true,
          "internalType": "bytes32",
          "name": "id",
          "type": "bytes32"
        }
      ],
      "name": "ChainlinkFulfilled",
      "type": "event"
    },
    {
      "anonymous": false,
      "inputs": [
        {
          "indexed": true,
          "internalType": "bytes32",
          "name": "id",
          "type": "bytes32"
        }
      ],
      "name": "ChainlinkRequested",
      "type": "event"
    },
    {
      "anonymous": false,
      "inputs": [
        {
          "indexed": false,
          "internalType": "address",
          "name": "slaAddress",
          "type": "address"
        },
        {
          "indexed": false,
          "internalType": "uint256",
          "name": "hits",
          "type": "uint256"
        },
        {
          "indexed": false,
          "internalType": "uint256",
          "name": "misses",
          "type": "uint256"
        },
        {
          "indexed": false,
          "internalType": "uint256",
          "name": "sliValue",
          "type": "uint256"
        },
        {
          "indexed": false,
          "internalType": "bytes32",
          "name": "sloName",
          "type": "bytes32"
        },
        {
          "indexed": false,
          "internalType": "uint256",
          "name": "periodId",
          "type": "uint256"
        }
      ],
      "name": "SLIReceived",
      "type": "event"
    },
    {
      "inputs": [],
      "name": "apiURL",
      "outputs": [
        {
          "internalType": "string",
          "name": "",
          "type": "string"
        }
      ],
      "stateMutability": "view",
      "type": "function"
    },
    {
      "inputs": [],
      "name": "fee",
      "outputs": [
        {
          "internalType": "uint256",
          "name": "",
          "type": "uint256"
        }
      ],
      "stateMutability": "view",
      "type": "function"
    },
    {
      "inputs": [],
      "name": "jobId",
      "outputs": [
        {
          "internalType": "bytes32",
          "name": "",
          "type": "bytes32"
        }
      ],
      "stateMutability": "view",
      "type": "function"
    },
    {
      "inputs": [],
      "name": "oracle",
      "outputs": [
        {
          "internalType": "address",
          "name": "",
          "type": "address"
        }
      ],
      "stateMutability": "view",
      "type": "function"
    },
    {
      "inputs": [
        {
          "internalType": "bytes32",
          "name": "",
          "type": "bytes32"
        }
      ],
      "name": "requestIdToAnalyticsRequest",
      "outputs": [
        {
          "internalType": "bytes32",
          "name": "networkName",
          "type": "bytes32"
        },
        {
          "internalType": "uint256",
          "name": "weekId",
          "type": "uint256"
        }
      ],
      "stateMutability": "view",
      "type": "function"
    },
    {
      "inputs": [
        {
          "internalType": "bytes32",
          "name": "",
          "type": "bytes32"
        }
      ],
      "name": "requestIdToSLIRequest",
      "outputs": [
        {
          "internalType": "contract SLA",
          "name": "sla",
          "type": "address"
        },
        {
          "internalType": "bytes32",
          "name": "sloName",
          "type": "bytes32"
        },
        {
          "internalType": "uint256",
          "name": "periodId",
          "type": "uint256"
        }
      ],
      "stateMutability": "view",
      "type": "function"
    },
    {
      "inputs": [
        {
          "internalType": "uint256",
          "name": "",
          "type": "uint256"
        }
      ],
      "name": "requests",
      "outputs": [
        {
          "internalType": "bytes32",
          "name": "",
          "type": "bytes32"
        }
      ],
      "stateMutability": "view",
      "type": "function"
    },
    {
      "inputs": [],
      "name": "slaRegistry",
      "outputs": [
        {
          "internalType": "contract SLARegistry",
          "name": "",
          "type": "address"
        }
      ],
      "stateMutability": "view",
      "type": "function"
    },
    {
      "inputs": [],
      "name": "setSLARegistry",
      "outputs": [],
      "stateMutability": "nonpayable",
      "type": "function"
    },
    {
      "inputs": [
        {
          "internalType": "uint256",
          "name": "_periodId",
          "type": "uint256"
        },
        {
          "internalType": "contract SLA",
          "name": "_sla",
          "type": "address"
        },
        {
          "internalType": "bytes32",
          "name": "_sloName",
          "type": "bytes32"
        }
      ],
      "name": "requestSLI",
      "outputs": [],
      "stateMutability": "nonpayable",
      "type": "function"
    },
    {
      "inputs": [
        {
          "internalType": "bytes32",
          "name": "_requestId",
          "type": "bytes32"
        },
        {
          "internalType": "bytes32",
          "name": "_chainlinkResponse",
          "type": "bytes32"
        }
      ],
      "name": "fulfillSLI",
      "outputs": [],
      "stateMutability": "nonpayable",
      "type": "function"
    },
    {
      "inputs": [
        {
          "internalType": "uint256",
          "name": "_weekId",
          "type": "uint256"
        },
        {
          "internalType": "bytes32",
          "name": "_networkName",
          "type": "bytes32"
        }
      ],
      "name": "requestAnalytics",
      "outputs": [],
      "stateMutability": "nonpayable",
      "type": "function"
    },
    {
      "inputs": [
        {
          "internalType": "bytes32",
          "name": "_requestId",
          "type": "bytes32"
        },
        {
          "internalType": "bytes32",
          "name": "_chainlinkResponse",
          "type": "bytes32"
        }
      ],
      "name": "fulFillAnalytics",
      "outputs": [],
      "stateMutability": "nonpayable",
      "type": "function"
    },
    {
      "inputs": [
        {
          "internalType": "address",
          "name": "_slaAddress",
          "type": "address"
        },
        {
          "internalType": "uint256",
          "name": "_periodId",
          "type": "uint256"
        }
      ],
      "name": "getPeriod",
      "outputs": [
        {
          "internalType": "uint256",
          "name": "start",
          "type": "uint256"
        },
        {
          "internalType": "uint256",
          "name": "end",
          "type": "uint256"
        }
      ],
      "stateMutability": "view",
      "type": "function"
    }
  ],
  "bytecode": "0x600160045567016345785d8a0000600c5560a06040819052600060808190526200002c91600d91620000ca565b503480156200003a57600080fd5b5060405162001fad38038062001fad8339810160408190526200005d9162000184565b600b8190556200006d82620000a8565b600a80546001600160a01b0319166001600160a01b03851617905583516200009d90600d906020870190620000ca565b5050505050620002bd565b600280546001600160a01b0319166001600160a01b0392909216919091179055565b828054600181600116156101000203166002900490600052602060002090601f016020900481019282601f106200010d57805160ff19168380011785556200013d565b828001600101855582156200013d579182015b828111156200013d57825182559160200191906001019062000120565b506200014b9291506200014f565b5090565b5b808211156200014b576000815560010162000150565b80516001600160a01b03811681146200017e57600080fd5b92915050565b600080600080608085870312156200019a578384fd5b84516001600160401b0380821115620001b1578586fd5b818701915087601f830112620001c5578586fd5b815181811115620001d4578687fd5b620001e9601f8201601f19166020016200024a565b915080825288602082850101111562000200578687fd5b6200021381602084016020860162000271565b50809550505060208501516200022981620002a4565b92506200023a866040870162000166565b6060959095015193969295505050565b6040518181016001600160401b03811182821017156200026957600080fd5b604052919050565b60005b838110156200028e57818101518382015260200162000274565b838111156200029e576000848401525b50505050565b6001600160a01b0381168114620002ba57600080fd5b50565b611ce080620002cd6000396000f3fe608060405234801561001057600080fd5b50600436106100ca5760003560e01c8063ad021f491161007c578063ad021f491461017c578063ae401eb91461018f578063bce66e0a146101b1578063c2939d97146101c6578063db69a462146101ce578063ddca3f43146101d6578063f3881589146101de576100ca565b80631e0ab514146100cf578063558450be146100e4578063792d1d66146100f75780637dc0d1d0146101215780638190f3411461013657806381d12c58146101495780639b45232314610169575b600080fd5b6100e26100dd366004611894565b6101e6565b005b6100e26100f23660046118b5565b61049a565b61010a610105366004611831565b61072a565b604051610118929190611a71565b60405180910390f35b6101296107b3565b604051610118919061197c565b6100e2610144366004611894565b6107c2565b61015c61015736600461187c565b610917565b6040516101189190611a52565b61010a61017736600461187c565b610935565b6100e261018a366004611894565b61094e565b6101a261019d36600461187c565b610b23565b60405161011893929190611a7f565b6101b9610b4e565b6040516101189190611aa0565b61015c610bdc565b610129610be2565b61015c610bf1565b6100e2610bf7565b6009546001600160a01b03163314806102175750610202610c34565b6001600160a01b0316336001600160a01b0316145b61023c5760405162461bcd60e51b815260040161023390611c35565b60405180910390fd5b6102446117ab565b600b546102599030638190f34160e01b610c43565b6009546040516306fe745760e51b815291925060009182916001600160a01b03169063dfce8ae09061028f908890600401611a52565b604080518083038186803b1580156102a657600080fd5b505afa1580156102ba573d6000803e3d6000fd5b505050506040513d601f19601f820116820180604052508101906102de91906118ec565b91509150610340604051806040016040528060088152602001676a6f625f7479706560c01b815250604051806040016040528060118152602001707075626c6973685f616e616c797469637360781b81525085610c689092919063ffffffff16565b6103796040518060400160405280600c81526020016b6e6574776f726b5f6e616d6560a01b81525061037186610c8b565b859190610c68565b6103a5604051806040016040528060078152602001661dd9595ad7da5960ca1b81525061037187610d9a565b6103de604051806040016040528060148152602001731cdb1857db5bdb9a5d1bdc9a5b99d7dcdd185c9d60621b81525061037184610d9a565b610415604051806040016040528060128152602001711cdb1857db5bdb9a5d1bdc9a5b99d7d95b9960721b81525061037183610d9a565b600a54600c54600091610435916001600160a01b03909116908690610e75565b6008805460018181019092557ff3f7a9fe364faab93b216da50a3214154f22a0a2b415b23a84c8169e8b636ee3018290556040805180820182529788526020888101998a52600093845260079052909120955186559551949095019390935550505050565b6009546001600160a01b03163314806104cb57506104b6610c34565b6001600160a01b0316336001600160a01b0316145b6104e75760405162461bcd60e51b815260040161023390611c35565b6104ef6117ab565b600b54610504903063ad021f4960e01b610c43565b9050600080846001600160a01b031663fc875ece876040518263ffffffff1660e01b81526004016105359190611a52565b604080518083038186803b15801561054c57600080fd5b505afa158015610560573d6000803e3d6000fd5b505050506040513d601f19601f8201168201806040525081019061058491906118ec565b915091506105c1604051806040016040528060148152602001731cdb1857db5bdb9a5d1bdc9a5b99d7dcdd185c9d60621b81525061037184610d9a565b6105f8604051806040016040528060128152602001711cdb1857db5bdb9a5d1bdc9a5b99d7d95b9960721b81525061037183610d9a565b6106286040518060400160405280600b81526020016a736c615f6164647265737360a81b81525061037187610fb4565b61067c604051806040016040528060088152602001676a6f625f7479706560c01b815250604051806040016040528060078152602001666765745f736c6960c81b81525085610c689092919063ffffffff16565b600a54600c5460009161069c916001600160a01b03909116908690610e75565b6008805460018082019092557ff3f7a9fe364faab93b216da50a3214154f22a0a2b415b23a84c8169e8b636ee301829055604080516060810182526001600160a01b03998a1681526020808201998a528183019b8c526000948552600690529220915182546001600160a01b0319169816979097178155945195850195909555505092516002909101555050565b600080836001600160a01b031663fc875ece846040518263ffffffff1660e01b81526004016107599190611a52565b604080518083038186803b15801561077057600080fd5b505afa158015610784573d6000803e3d6000fd5b505050506040513d601f19601f820116820180604052508101906107a891906118ec565b909590945092505050565b600a546001600160a01b031681565b60008281526005602052604090205482906001600160a01b031633146107fa5760405162461bcd60e51b815260040161023390611bed565b60008181526005602052604080822080546001600160a01b03191690555182917f7cc135e0cebb02c3480ae5d74d377283180a2601f8f644edf7987b009316c63a91a26108456117e0565b5060008381526007602090815260409182902082518084018452815480825260019092015492810183905292517f70017f42b317823f38de5a9362a93665f2cb5b7515ca57a2aea1c9e2b8daca8f926108a092918790611a5b565b60405180910390a160095481516020830151604051637b168da360e11b81526001600160a01b039093169263f62d1b46926108df928892600401611a5b565b600060405180830381600087803b1580156108f957600080fd5b505af115801561090d573d6000803e3d6000fd5b5050505050505050565b6008818154811061092457fe5b600091825260209091200154905081565b6007602052600090815260409020805460019091015482565b60008281526005602052604090205482906001600160a01b031633146109865760405162461bcd60e51b815260040161023390611bed565b60008181526005602052604080822080546001600160a01b03191690555182917f7cc135e0cebb02c3480ae5d74d377283180a2601f8f644edf7987b009316c63a91a26109d16117f7565b5060008381526006602090815260409182902082516060808201855282546001600160a01b0316825260018301549382019390935260029091015492810192909252610a1c84610c8b565b9050600080610a2a83611130565b90925090506000610a3e83620186a06112da565b90506000610a4c848461131d565b90506000610a5a8383611342565b90507f8453ee826ffad57f3e57085ee522342ea56186ce46fba314339ff3e7bb73b2c287600001518686848b602001518c60400151604051610aa196959493929190611a1f565b60405180910390a186600001516001600160a01b031663869c39258860200151838a604001516040518463ffffffff1660e01b8152600401610ae593929190611a5b565b600060405180830381600087803b158015610aff57600080fd5b505af1158015610b13573d6000803e3d6000fd5b5050505050505050505050505050565b6006602052600090815260409020805460018201546002909201546001600160a01b03909116919083565b600d805460408051602060026001851615610100026000190190941693909304601f81018490048402820184019092528181529291830182828015610bd45780601f10610ba957610100808354040283529160200191610bd4565b820191906000526020600020905b815481529060010190602001808311610bb757829003601f168201915b505050505081565b600b5481565b6009546001600160a01b031681565b600c5481565b6009546001600160a01b031615610c205760405162461bcd60e51b815260040161023390611b64565b600980546001600160a01b03191633179055565b6003546001600160a01b031690565b610c4b6117ab565b610c536117ab565b610c5f81868686611377565b95945050505050565b6080830151610c7790836113b4565b6080830151610c8690826113b4565b505050565b606060005b60208160ff16108015610cbe5750828160ff1660208110610cad57fe5b1a60f81b6001600160f81b03191615155b15610ccb57600101610c90565b60608160ff1667ffffffffffffffff81118015610ce757600080fd5b506040519080825280601f01601f191660200182016040528015610d12576020820181803683370190505b509050600091505b60208260ff16108015610d485750838260ff1660208110610d3757fe5b1a60f81b6001600160f81b03191615155b15610d9157838260ff1660208110610d5c57fe5b1a60f81b818360ff1681518110610d6f57fe5b60200101906001600160f81b031916908160001a905350600190910190610d1a565b9150505b919050565b60608180610dc15750506040805180820190915260018152600360fc1b6020820152610d95565b8060005b8115610dd957600101600a82049150610dc5565b60608167ffffffffffffffff81118015610df257600080fd5b506040519080825280601f01601f191660200182016040528015610e1d576020820181803683370190505b50905060001982015b8415610e6b57600a850660300160f81b82828060019003935081518110610e4957fe5b60200101906001600160f81b031916908160001a905350600a85049450610e26565b5095945050505050565b600030600454604051602001610e8c92919061195a565b60408051808303601f19018152918152815160209283012060045460608701526000818152600590935281832080546001600160a01b0319166001600160a01b038916179055905190925082917fb5e6e01e79f91267dc17b4e6314d5d4d03593d2ceee0fbb452b750bd70ea5af991a26002546001600160a01b0316634000aea08584610f18876113cb565b6040518463ffffffff1660e01b8152600401610f36939291906119f8565b602060405180830381600087803b158015610f5057600080fd5b505af1158015610f64573d6000803e3d6000fd5b505050506040513d601f19601f82011682018060405250810190610f88919061185c565b610fa45760405162461bcd60e51b815260040161023390611aea565b6004805460010190559392505050565b604080518082018252601081526f181899199a1a9b1b9c1cb0b131b232b360811b60208201528151602a80825260608281019094526001600160a01b03851692918491602082018180368337019050509050600360fc1b8160008151811061101857fe5b60200101906001600160f81b031916908160001a905350600f60fb1b8160018151811061104157fe5b60200101906001600160f81b031916908160001a90535060005b6014811015611127578260048583600c016020811061107657fe5b1a60f81b6001600160f81b031916901c60f81c60ff168151811061109657fe5b602001015160f81c60f81b8282600202600201815181106110b357fe5b60200101906001600160f81b031916908160001a905350828482600c01602081106110da57fe5b825191901a600f169081106110eb57fe5b602001015160f81c60f81b82826002026003018151811061110857fe5b60200101906001600160f81b031916908160001a90535060010161105b565b50949350505050565b80516000908190839060608167ffffffffffffffff8111801561115257600080fd5b506040519080825280601f01601f19166020018201604052801561117d576020820181803683370190505b50905060608267ffffffffffffffff8111801561119957600080fd5b506040519080825280601f01601f1916602001820160405280156111c4576020820181803683370190505b50905060005b838110156112b157600b60fa1b6001600160f81b0319168582815181106111ed57fe5b01602001516001600160f81b03191614156112a95760005b8181101561124f5785818151811061121957fe5b602001015160f81c60f81b84828151811061123057fe5b60200101906001600160f81b031916908160001a905350600101611205565b5060005b6001828603038110156112a757858183600101018151811061127157fe5b602001015160f81c60f81b83828151811061128857fe5b60200101906001600160f81b031916908160001a905350600101611253565b505b6001016111ca565b5060006112bd83611447565b905060006112ca83611447565b9197509095505050505050915091565b6000826112e957506000611317565b828202828482816112f657fe5b04146113145760405162461bcd60e51b815260040161023390611bac565b90505b92915050565b6000828201838110156113145760405162461bcd60e51b815260040161023390611ab3565b60008082116113635760405162461bcd60e51b815260040161023390611b2d565b600082848161136e57fe5b04949350505050565b61137f6117ab565b61138f85608001516101006114c7565b50509183526001600160a01b031660208301526001600160e01b031916604082015290565b6113c18260038351611501565b610c8682826115db565b6060634042994660e01b6000808460000151856020015186604001518760600151600189608001516000015160405160240161140e989796959493929190611990565b60408051601f198184030181529190526020810180516001600160e01b03166001600160e01b0319909316929092179091529050919050565b6000805b82518110156114c157603083828151811061146257fe5b016020015160f81c1080159061148c5750603983828151811061148157fe5b016020015160f81c11155b156114b957603083828151811061149f57fe5b602001015160f81c60f81b60f81c0360ff1682600a020191505b60010161144b565b50919050565b6114cf611817565b60208206156114e45760208206602003820191505b506020828101829052604080518085526000815290920101905290565b601781116115225761151c8360e0600585901b1683176115f5565b50610c86565b60ff811161154c5761153f836018611fe0600586901b16176115f5565b5061151c8382600161160d565b61ffff81116115775761156a836019611fe0600586901b16176115f5565b5061151c8382600261160d565b63ffffffff81116115a45761159783601a611fe0600586901b16176115f5565b5061151c8382600461160d565b67ffffffffffffffff8111610c86576115c883601b611fe0600586901b16176115f5565b506115d58382600861160d565b50505050565b6115e3611817565b6113148384600001515184855161162e565b6115fd611817565b61131483846000015151846116da565b611615611817565b611626848560000151518585611725565b949350505050565b611636611817565b825182111561164457600080fd5b8460200151828501111561166e5761166e856116668760200151878601611783565b600202611794565b60008086518051876020830101935080888701111561168d5787860182525b505050602084015b602084106116b45780518252601f199093019260209182019101611695565b51815160001960208690036101000a019081169019919091161790525083949350505050565b6116e2611817565b836020015183106116fe576116fe848560200151600202611794565b83518051602085830101848153508085141561171b576001810182525b5093949350505050565b61172d611817565b8460200151848301111561174a5761174a85858401600202611794565b60006001836101000a0390508551838682010185831982511617815250805184870111156117785783860181525b509495945050505050565b6000818311156114c1575081611317565b81516117a083836114c7565b506115d583826115db565b6040805160a0810182526000808252602082018190529181018290526060810191909152608081016117db611817565b905290565b604080518082019091526000808252602082015290565b604080516060810182526000808252602082018190529181019190915290565b604051806040016040528060608152602001600081525090565b60008060408385031215611843578182fd5b823561184e81611c92565b946020939093013593505050565b60006020828403121561186d578081fd5b81518015158114611314578182fd5b60006020828403121561188d578081fd5b5035919050565b600080604083850312156118a6578182fd5b50508035926020909101359150565b6000806000606084860312156118c9578081fd5b8335925060208401356118db81611c92565b929592945050506040919091013590565b600080604083850312156118fe578182fd5b505080516020909101519092909150565b60008151808452815b8181101561193457602081850181015186830182015201611918565b818111156119455782602083870101525b50601f01601f19169290920160200192915050565b60609290921b6bffffffffffffffffffffffff19168252601482015260340190565b6001600160a01b0391909116815260200190565b6001600160a01b0389811682526020820189905260408201889052861660608201526001600160e01b03198516608082015260a0810184905260c0810183905261010060e082018190526000906119e98382018561190f565b9b9a5050505050505050505050565b600060018060a01b038516825283602083015260606040830152610c5f606083018461190f565b6001600160a01b03969096168652602086019490945260408501929092526060840152608083015260a082015260c00190565b90815260200190565b9283526020830191909152604082015260600190565b918252602082015260400190565b6001600160a01b039390931683526020830191909152604082015260600190565b600060208252611314602083018461190f565b6020808252601b908201527f536166654d6174683a206164646974696f6e206f766572666c6f770000000000604082015260600190565b60208082526023908201527f756e61626c6520746f207472616e73666572416e6443616c6c20746f206f7261604082015262636c6560e81b606082015260800190565b6020808252601a908201527f536166654d6174683a206469766973696f6e206279207a65726f000000000000604082015260600190565b60208082526028908201527f534c41526567697374727920616464726573732068617320616c7265616479206040820152671899595b881cd95d60c21b606082015260800190565b60208082526021908201527f536166654d6174683a206d756c7469706c69636174696f6e206f766572666c6f6040820152607760f81b606082015260800190565b60208082526028908201527f536f75726365206d75737420626520746865206f7261636c65206f6620746865604082015267081c995c5d595cdd60c21b606082015260800190565b6020808252603f908201527f43616e206f6e6c792062652063616c6c656420627920636f6e6e65637465642060408201527f534c415265676973747279206f7220436861696e6c696e6b204f7261636c6500606082015260800190565b6001600160a01b0381168114611ca757600080fd5b5056fea264697066735822122010568179810986877988c4c9560826a5d0ee174003876ed9c873f901d0dd2d9b64736f6c634300060c0033",
  "immutableReferences": {},
  "source": "pragma solidity ^0.6.0;\npragma experimental ABIEncoderV2;\n\nimport \"./SLA/SLA.sol\";\nimport \"./StringUtils.sol\";\nimport \"./SLARegistry.sol\";\nimport \"@chainlink/contracts/src/v0.6/ChainlinkClient.sol\";\n\n/**\n* @title Messenger\n* @notice Messenger is a contract to interact with an Oracle and request SLI information to Stacktical API\non a decentralized fashion. Is not meant to be interacted directly.\n* @dev This contract is attached immediately after deployment to a SLARegistry\n*/\n\ncontract Messenger is ChainlinkClient, StringUtils {\n    struct SLIRequest {\n        SLA sla;\n        bytes32 sloName;\n        uint256 periodId;\n    }\n\n    struct AnalyticsRequest {\n        bytes32 networkName;\n        uint256 weekId;\n    }\n\n    /// @dev Mapping that stores chainlink sli request information\n    mapping(bytes32 => SLIRequest) public requestIdToSLIRequest;\n    /// @dev Mapping that stores chainlink analytics request information\n    mapping(bytes32 => AnalyticsRequest) public requestIdToAnalyticsRequest;\n    /// @dev Array with all request IDs\n    bytes32[] public requests;\n    /// @dev The address of the SLARegistry contract\n    SLARegistry public slaRegistry;\n    /// @dev Chainlink oracle address\n    address public oracle;\n    /// @dev chainlink jobId\n    bytes32 public jobId;\n    /// @dev fee for Chainlink querys. Currently 0.1 LINK\n    uint256 public fee = 0.1 * 10**18;\n    /// @dev api url stated on deployment time\n    string public apiURL = \"\";\n\n    /**\n     * @dev event emitted when having a response from Chainlink with the SLI\n     * @param slaAddress 1. SLA address to store the SLI\n     * @param hits 2. SLI value\n     * @param misses 3. SLI value\n     * @param sliValue 4. SLI value\n     * @param sloName 5. SLO name\n     * @param periodId 6. id of the period\n     */\n    event SLIReceived(\n        address slaAddress,\n        uint256 hits,\n        uint256 misses,\n        uint256 sliValue,\n        bytes32 sloName,\n        uint256 periodId\n    );\n\n    /**\n     * @dev event emitted when having a response from Chainlink with the SLI\n     * @param network 1. network name\n     * @param periodId 2. id of the period\n     * @param ipfsHash 3. hash of the ipfs object\n     */\n    event AnalyticsReceived(\n        bytes32 network,\n        uint256 periodId,\n        bytes32 ipfsHash\n    );\n\n    /**\n     * @dev parameterize the variables according to network\n     * @notice sets the Chainlink parameters (oracle address, token address, jobId) and sets the SLARegistry to 0x0 address\n     * @param _chainlinkOracle the address of the oracle to create requests to\n     * @param _chainlinkToken the address of LINK token contract\n     * @param _jobId the job id for the HTTPGet job\n     */\n    constructor(\n        string memory _apiUrl,\n        address _chainlinkOracle,\n        address _chainlinkToken,\n        bytes32 _jobId\n    ) public {\n        jobId = _jobId;\n        setChainlinkToken(_chainlinkToken);\n        oracle = _chainlinkOracle;\n        apiURL = _apiUrl;\n    }\n\n    /// @dev Throws if called by any address other than the SLARegistry contract or Chainlink Oracle.\n    modifier onlyAllowedAddresses() {\n        require(\n            msg.sender == address(slaRegistry) ||\n                msg.sender == chainlinkOracleAddress(),\n            \"Can only be called by connected SLARegistry or Chainlink Oracle\"\n        );\n        _;\n    }\n\n    /**\n     * @dev sets the SLARegistry contract address and can only be called\n     * once\n     */\n    function setSLARegistry() public {\n        // Only able to trigger this function once\n        require(\n            address(slaRegistry) == address(0),\n            \"SLARegistry address has already been set\"\n        );\n\n        slaRegistry = SLARegistry(msg.sender);\n    }\n\n    /**\n     * @dev creates a ChainLink request to get a new SLI value for the\n     * given params. Can only be called by the SLARegistry contract or Chainlink Oracle.\n     * @param _periodId value of the period id\n     * @param _sla SLA Address\n     * @param _sloName the SLO name to get the SLI value for\n     */\n\n    function requestSLI(\n        uint256 _periodId,\n        SLA _sla,\n        bytes32 _sloName\n    ) public onlyAllowedAddresses {\n        Chainlink.Request memory request =\n            buildChainlinkRequest(\n                jobId,\n                address(this),\n                this.fulfillSLI.selector\n            );\n\n        // Get the period start and end\n        (uint256 sla_monitoring_start, uint256 sla_monitoring_end) =\n            SLA(_sla).getPeriodData(_periodId);\n        request.add(\"sla_monitoring_start\", _uintToStr(sla_monitoring_start));\n        request.add(\"sla_monitoring_end\", _uintToStr(sla_monitoring_end));\n        request.add(\"sla_address\", _addressToString(address(_sla)));\n        request.add(\"job_type\", \"get_sli\");\n\n        // Sends the request with 0.1 LINK to the oracle contract\n        bytes32 requestId = sendChainlinkRequestTo(oracle, request, fee);\n\n        requests.push(requestId);\n\n        requestIdToSLIRequest[requestId] = SLIRequest(\n            _sla,\n            _sloName,\n            _periodId\n        );\n    }\n\n    /**\n     * @dev callback function for the Chainlink SLI request which stores\n     * the SLI in the SLA contract\n     * @param _requestId the ID of the ChainLink request\n     * @param _chainlinkResponse response object from Chainlink Oracles\n     */\n    function fulfillSLI(bytes32 _requestId, bytes32 _chainlinkResponse)\n        public\n        recordChainlinkFulfillment(_requestId)\n    {\n        SLIRequest memory request = requestIdToSLIRequest[_requestId];\n        string memory sliData = _bytes32ToStr(_chainlinkResponse);\n        (uint256 hits, uint256 misses) = _parseSLIData(sliData);\n        uint256 num = hits.mul(100 * 1000);\n        uint256 total = hits.add(misses);\n        uint256 efficiency = num.div(total);\n        emit SLIReceived(\n            address(request.sla),\n            hits,\n            misses,\n            efficiency,\n            request.sloName,\n            request.periodId\n        );\n\n        request.sla.registerSLI(request.sloName, efficiency, request.periodId);\n    }\n\n    /**\n     * @dev creates a ChainLink request to get a new SLI value for the\n     * given params. Can only be called by the SLARegistry contract or Chainlink Oracle.\n     * @param _weekId end of the period\n     * @param _networkName name of the network to get analytics\n     */\n\n    function requestAnalytics(uint256 _weekId, bytes32 _networkName)\n        public\n        onlyAllowedAddresses\n    {\n        Chainlink.Request memory request =\n            buildChainlinkRequest(\n                jobId,\n                address(this),\n                this.fulFillAnalytics.selector\n            );\n\n        (uint256 periodStart, uint256 periodEnd) = slaRegistry.canonicalPeriods(_weekId);\n\n        request.add(\"job_type\", \"publish_analytics\");\n        request.add(\"network_name\", _bytes32ToStr(_networkName));\n        request.add(\"week_id\", _uintToStr(_weekId));\n        request.add(\"sla_monitoring_start\", _uintToStr(periodStart));\n        request.add(\"sla_monitoring_end\", _uintToStr(periodEnd));\n\n        // Sends the request with 0.1 LINK to the oracle contract\n        bytes32 requestId = sendChainlinkRequestTo(oracle, request, fee);\n        requests.push(requestId);\n        requestIdToAnalyticsRequest[requestId] = AnalyticsRequest(\n            _networkName,\n            _weekId\n        );\n    }\n\n    /**\n     * @dev callback function for the Chainlink SLI request which stores\n     * the SLI in the SLA contract\n     * @param _requestId the ID of the ChainLink request\n     * @param _chainlinkResponse response object from Chainlink Oracles\n     */\n    function fulFillAnalytics(bytes32 _requestId, bytes32 _chainlinkResponse)\n        public\n        recordChainlinkFulfillment(_requestId)\n    {\n        AnalyticsRequest memory request =\n            requestIdToAnalyticsRequest[_requestId];\n\n        emit AnalyticsReceived(request.networkName, request.weekId, _chainlinkResponse);\n\n        slaRegistry.publishAnalyticsHash(\n            _chainlinkResponse,\n            request.networkName,\n            request.weekId\n        );\n    }\n\n    /**\n     * @dev gets the start and end of a given SLA on a given period\n     * @param _slaAddress address of the SLA Contract\n     * @param _periodId id of the period\n     */\n    function getPeriod(address _slaAddress, uint256 _periodId)\n        public\n        view\n        returns (uint256 start, uint256 end)\n    {\n        (start, end) = SLA(_slaAddress).getPeriodData(_periodId);\n    }\n}\n",
  "sourcePath": "/Users/matiasbn/Desktop/stacktical/stacktical-dsla-contracts/contracts/Messenger.sol",
  "compiler": {
    "name": "solc",
    "version": "0.6.12+commit.27d51765.Emscripten.clang"
  },
  "schemaVersion": "3.2.5",
  "updatedAt": "2021-01-27T20:01:44.875Z",
  "devdoc": {
    "details": "This contract is attached immediately after deployment to a SLARegistry",
    "events": {
      "AnalyticsReceived(bytes32,uint256,bytes32)": {
        "details": "event emitted when having a response from Chainlink with the SLI",
        "params": {
          "ipfsHash": "3. hash of the ipfs object",
          "network": "1. network name",
          "periodId": "2. id of the period"
        }
      },
      "SLIReceived(address,uint256,uint256,uint256,bytes32,uint256)": {
        "details": "event emitted when having a response from Chainlink with the SLI",
        "params": {
          "hits": "2. SLI value",
          "misses": "3. SLI value",
          "periodId": "6. id of the period",
          "slaAddress": "1. SLA address to store the SLI",
          "sliValue": "4. SLI value",
          "sloName": "5. SLO name"
        }
      }
    },
    "kind": "dev",
    "methods": {
      "constructor": {
        "details": "parameterize the variables according to network",
        "params": {
          "_chainlinkOracle": "the address of the oracle to create requests to",
          "_chainlinkToken": "the address of LINK token contract",
          "_jobId": "the job id for the HTTPGet job"
        }
      },
      "fulFillAnalytics(bytes32,bytes32)": {
        "details": "callback function for the Chainlink SLI request which stores the SLI in the SLA contract",
        "params": {
          "_chainlinkResponse": "response object from Chainlink Oracles",
          "_requestId": "the ID of the ChainLink request"
        }
      },
      "fulfillSLI(bytes32,bytes32)": {
        "details": "callback function for the Chainlink SLI request which stores the SLI in the SLA contract",
        "params": {
          "_chainlinkResponse": "response object from Chainlink Oracles",
          "_requestId": "the ID of the ChainLink request"
        }
      },
      "getPeriod(address,uint256)": {
        "details": "gets the start and end of a given SLA on a given period",
        "params": {
          "_periodId": "id of the period",
          "_slaAddress": "address of the SLA Contract"
        }
      },
      "requestAnalytics(uint256,bytes32)": {
        "details": "creates a ChainLink request to get a new SLI value for the given params. Can only be called by the SLARegistry contract or Chainlink Oracle.",
        "params": {
          "_networkName": "name of the network to get analytics",
          "_weekId": "end of the period"
        }
      },
      "requestSLI(uint256,address,bytes32)": {
        "details": "creates a ChainLink request to get a new SLI value for the given params. Can only be called by the SLARegistry contract or Chainlink Oracle.",
        "params": {
          "_periodId": "value of the period id",
          "_sla": "SLA Address",
          "_sloName": "the SLO name to get the SLI value for"
        }
      },
      "setSLARegistry()": {
        "details": "sets the SLARegistry contract address and can only be called once"
      }
    },
    "stateVariables": {
      "apiURL": {
        "details": "api url stated on deployment time"
      },
      "fee": {
        "details": "fee for Chainlink querys. Currently 0.1 LINK"
      },
      "jobId": {
        "details": "chainlink jobId"
      },
      "oracle": {
        "details": "Chainlink oracle address"
      },
      "requestIdToAnalyticsRequest": {
        "details": "Mapping that stores chainlink analytics request information"
      },
      "requestIdToSLIRequest": {
        "details": "Mapping that stores chainlink sli request information"
      },
      "requests": {
        "details": "Array with all request IDs"
      },
      "slaRegistry": {
        "details": "The address of the SLARegistry contract"
      }
    },
    "title": "Messenger",
    "version": 1
  },
  "userdoc": {
    "kind": "user",
    "methods": {
      "constructor": "sets the Chainlink parameters (oracle address, token address, jobId) and sets the SLARegistry to 0x0 address"
    },
    "notice": "Messenger is a contract to interact with an Oracle and request SLI information to Stacktical API on a decentralized fashion. Is not meant to be interacted directly.",
    "version": 1
  }
}