{
  "contractName": "Messenger",
  "abi": [
    {
      "inputs": [
        {
          "internalType": "address",
          "name": "_chainlinkOracle",
          "type": "address"
        },
        {
          "internalType": "address",
          "name": "_chainlinkToken",
          "type": "address"
        },
        {
          "internalType": "bytes32",
          "name": "_jobId",
          "type": "bytes32"
        }
      ],
      "stateMutability": "nonpayable",
      "type": "constructor"
    },
    {
      "anonymous": false,
      "inputs": [
        {
          "indexed": true,
          "internalType": "bytes32",
          "name": "id",
          "type": "bytes32"
        }
      ],
      "name": "ChainlinkCancelled",
      "type": "event"
    },
    {
      "anonymous": false,
      "inputs": [
        {
          "indexed": true,
          "internalType": "bytes32",
          "name": "id",
          "type": "bytes32"
        }
      ],
      "name": "ChainlinkFulfilled",
      "type": "event"
    },
    {
      "anonymous": false,
      "inputs": [
        {
          "indexed": true,
          "internalType": "bytes32",
          "name": "id",
          "type": "bytes32"
        }
      ],
      "name": "ChainlinkRequested",
      "type": "event"
    },
    {
      "anonymous": false,
      "inputs": [
        {
          "indexed": false,
          "internalType": "address",
          "name": "slaAdress",
          "type": "address"
        },
        {
          "indexed": false,
          "internalType": "uint256",
          "name": "sliValue",
          "type": "uint256"
        },
        {
          "indexed": false,
          "internalType": "bytes32",
          "name": "sloName",
          "type": "bytes32"
        },
        {
          "indexed": false,
          "internalType": "uint256",
          "name": "_periodId",
          "type": "uint256"
        }
      ],
      "name": "SLIReceived",
      "type": "event"
    },
    {
      "inputs": [],
      "name": "SLARegistry",
      "outputs": [
        {
          "internalType": "address",
          "name": "",
          "type": "address"
        }
      ],
      "stateMutability": "view",
      "type": "function"
    },
    {
      "inputs": [],
      "name": "fee",
      "outputs": [
        {
          "internalType": "uint256",
          "name": "",
          "type": "uint256"
        }
      ],
      "stateMutability": "view",
      "type": "function"
    },
    {
      "inputs": [],
      "name": "jobId",
      "outputs": [
        {
          "internalType": "bytes32",
          "name": "",
          "type": "bytes32"
        }
      ],
      "stateMutability": "view",
      "type": "function"
    },
    {
      "inputs": [],
      "name": "oracle",
      "outputs": [
        {
          "internalType": "address",
          "name": "",
          "type": "address"
        }
      ],
      "stateMutability": "view",
      "type": "function"
    },
    {
      "inputs": [
        {
          "internalType": "bytes32",
          "name": "",
          "type": "bytes32"
        }
      ],
      "name": "requestIdToRequest",
      "outputs": [
        {
          "internalType": "contract SLA",
          "name": "sla",
          "type": "address"
        },
        {
          "internalType": "bytes32",
          "name": "sloName",
          "type": "bytes32"
        },
        {
          "internalType": "uint256",
          "name": "periodId",
          "type": "uint256"
        }
      ],
      "stateMutability": "view",
      "type": "function"
    },
    {
      "inputs": [
        {
          "internalType": "uint256",
          "name": "",
          "type": "uint256"
        }
      ],
      "name": "requests",
      "outputs": [
        {
          "internalType": "bytes32",
          "name": "",
          "type": "bytes32"
        }
      ],
      "stateMutability": "view",
      "type": "function"
    },
    {
      "inputs": [
        {
          "internalType": "uint256",
          "name": "_periodId",
          "type": "uint256"
        },
        {
          "internalType": "contract SLA",
          "name": "_sla",
          "type": "address"
        },
        {
          "internalType": "bytes32",
          "name": "_sloName",
          "type": "bytes32"
        }
      ],
      "name": "requestSLI",
      "outputs": [],
      "stateMutability": "nonpayable",
      "type": "function"
    },
    {
      "inputs": [
        {
          "internalType": "bytes32",
          "name": "_requestId",
          "type": "bytes32"
        },
        {
          "internalType": "uint256",
          "name": "_sliValue",
          "type": "uint256"
        }
      ],
      "name": "fulfillSLI",
      "outputs": [],
      "stateMutability": "nonpayable",
      "type": "function"
    },
    {
      "inputs": [],
      "name": "setSLARegistry",
      "outputs": [],
      "stateMutability": "nonpayable",
      "type": "function"
    },
    {
      "inputs": [
        {
          "internalType": "address",
          "name": "_slaAddress",
          "type": "address"
        },
        {
          "internalType": "uint256",
          "name": "_periodId",
          "type": "uint256"
        }
      ],
      "name": "getPeriod",
      "outputs": [
        {
          "internalType": "uint256",
          "name": "start",
          "type": "uint256"
        },
        {
          "internalType": "uint256",
          "name": "end",
          "type": "uint256"
        }
      ],
      "stateMutability": "view",
      "type": "function"
    }
  ],
  "bytecode": "0x6080604052600160045567016345785d8a0000600b5534801561002157600080fd5b506040516116333803806116338339818101604052606081101561004457600080fd5b5080516020820151604090920151600a81905590919061006382610091565b5050600980546001600160a01b039092166001600160a01b03199283161790556008805490911690556100b3565b600280546001600160a01b0319166001600160a01b0392909216919091179055565b611571806100c26000396000f3fe608060405234801561001057600080fd5b506004361061009e5760003560e01c8063bc0bfc0011610066578063bc0bfc00146101b4578063c2939d97146101d7578063d834e0f6146101df578063ddca3f43146101e7578063f3881589146101ef5761009e565b806301e5bbb9146100a3578063558450be146100e8578063792d1d661461011c5780637dc0d1d01461016157806381d12c5814610185575b600080fd5b6100c0600480360360208110156100b957600080fd5b50356101f7565b604080516001600160a01b039094168452602084019290925282820152519081900360600190f35b61011a600480360360608110156100fe57600080fd5b508035906001600160a01b036020820135169060400135610222565b005b6101486004803603604081101561013257600080fd5b506001600160a01b0381351690602001356104a8565b6040805192835260208301919091528051918290030190f35b61016961052c565b604080516001600160a01b039092168252519081900360200190f35b6101a26004803603602081101561019b57600080fd5b503561053b565b60408051918252519081900360200190f35b61011a600480360360408110156101ca57600080fd5b5080359060200135610559565b6101a26106fe565b610169610704565b6101a2610713565b61011a610719565b6006602052600090815260409020805460018201546002909201546001600160a01b03909116919083565b6008546001600160a01b0316331480610253575061023e610775565b6001600160a01b0316336001600160a01b0316145b61028e5760405162461bcd60e51b815260040180806020018281038252603f8152602001806114ce603f913960400191505060405180910390fd5b610296611367565b600a546102aa9030622f02ff60ea1b610784565b9050600080846001600160a01b031663fc875ece876040518263ffffffff1660e01b815260040180828152602001915050604080518083038186803b1580156102f257600080fd5b505afa158015610306573d6000803e3d6000fd5b505050506040513d604081101561031c57600080fd5b5080516020909101519092509050606061034f610338876107a9565b61034185610927565b61034a85610927565b610a02565b60408051808201909152600381526219d95d60ea1b602082015290915061037890859083610cbf565b60408051808201909152600581526474696d657360d81b60208201526103a29085906103e8610ce2565b6103f6604051806040016040528060048152602001630e0c2e8d60e31b8152506040518060400160405280600b81526020016a646174612e676574534c4960a81b81525086610cbf9092919063ffffffff16565b600954600b54600091610416916001600160a01b03909116908790610d00565b6007805460018082019092557fa66cc928b5edb82af9bd49922954155ab7b0942694bea4ce44661d9a8736c68801829055604080516060810182526001600160a01b039a8b16815260208082019a8b528183019c8d526000948552600690529220915182546001600160a01b031916991698909817815595519686019690965550509351600290920191909155505050565b600080836001600160a01b031663fc875ece846040518263ffffffff1660e01b815260040180828152602001915050604080518083038186803b1580156104ee57600080fd5b505afa158015610502573d6000803e3d6000fd5b505050506040513d604081101561051857600080fd5b508051602090910151909590945092505050565b6009546001600160a01b031681565b6007818154811061054857fe5b600091825260209091200154905081565b60008281526005602052604090205482906001600160a01b031633146105b05760405162461bcd60e51b81526004018080602001828103825260288152602001806114a66028913960400191505060405180910390fd5b60008181526005602052604080822080546001600160a01b03191690555182917f7cc135e0cebb02c3480ae5d74d377283180a2601f8f644edf7987b009316c63a91a26105fb61139c565b506000838152600660209081526040808320815160608101835281546001600160a01b03168082526001830154948201859052600290920154818401819052835163869c392560e01b8152600481019590955260248501889052604485015291519193909263869c3925926064808301939282900301818387803b15801561068257600080fd5b505af1158015610696573d6000803e3d6000fd5b5050825160208085015160408087015181516001600160a01b039095168552928401899052838101919091526060830191909152517fd8fe8f385d4ebf349c881e53184df12a2e704d3025c756ee39c67f0d7b54dde29350908190036080019150a150505050565b600a5481565b6008546001600160a01b031681565b600b5481565b6008546001600160a01b0316156107615760405162461bcd60e51b815260040180806020018281038252602881526020018061147e6028913960400191505060405180910390fd5b600880546001600160a01b03191633179055565b6003546001600160a01b031690565b61078c611367565b610794611367565b6107a081868686610ece565b95945050505050565b604080518082018252601081526f181899199a1a9b1b9c1cb0b131b232b360811b60208201528151602a80825260608281019094526001600160a01b03851692918491602082018180368337019050509050600360fc1b8160008151811061080d57fe5b60200101906001600160f81b031916908160001a905350600f60fb1b8160018151811061083657fe5b60200101906001600160f81b031916908160001a90535060005b601481101561091c578260048583600c016020811061086b57fe5b1a60f81b6001600160f81b031916901c60f81c60ff168151811061088b57fe5b602001015160f81c60f81b8282600202600201815181106108a857fe5b60200101906001600160f81b031916908160001a905350828482600c01602081106108cf57fe5b825191901a600f169081106108e057fe5b602001015160f81c60f81b8282600202600301815181106108fd57fe5b60200101906001600160f81b031916908160001a905350600101610850565b50925050505b919050565b6060818061094e5750506040805180820190915260018152600360fc1b6020820152610922565b8060005b811561096657600101600a82049150610952565b60608167ffffffffffffffff8111801561097f57600080fd5b506040519080825280601f01601f1916602001820160405280156109aa576020820181803683370190505b50905060001982015b84156109f857600a850660300160f81b828280600190039350815181106109d657fe5b60200101906001600160f81b031916908160001a905350600a850494506109b3565b5095945050505050565b6060806040518060800160405280605781526020016113d760579139905060606040518060600160405280602f815260200161150d602f9139905060606040518060600160405280602d815260200161142e602d9139905060606040518060400160405280601881526020017725323225304125323025323025323925304125374425304160401b815250905083888489858a866040516020018088805190602001908083835b60208310610ac85780518252601f199092019160209182019101610aa9565b51815160209384036101000a60001901801990921691161790528a5191909301928a0191508083835b60208310610b105780518252601f199092019160209182019101610af1565b51815160209384036101000a600019018019909216911617905289519190930192890191508083835b60208310610b585780518252601f199092019160209182019101610b39565b51815160209384036101000a600019018019909216911617905288519190930192880191508083835b60208310610ba05780518252601f199092019160209182019101610b81565b51815160209384036101000a600019018019909216911617905287519190930192870191508083835b60208310610be85780518252601f199092019160209182019101610bc9565b51815160209384036101000a600019018019909216911617905286519190930192860191508083835b60208310610c305780518252601f199092019160209182019101610c11565b51815160209384036101000a600019018019909216911617905285519190930192850191508083835b60208310610c785780518252601f199092019160209182019101610c59565b6001836020036101000a0380198251168184511680821785525050505050509050019750505050505050506040516020818303038152906040529450505050509392505050565b6080830151610cce9083610f0b565b6080830151610cdd9082610f0b565b505050565b6080830151610cf19083610f0b565b6080830151610cdd9082610f22565b6004546040805130606090811b60208084019190915260348084018690528451808503909101815260549093018452825192810192909220908601939093526000838152600590915281812080546001600160a01b0319166001600160a01b038816179055905182917fb5e6e01e79f91267dc17b4e6314d5d4d03593d2ceee0fbb452b750bd70ea5af991a26002546001600160a01b0316634000aea08584610da887610f4c565b6040518463ffffffff1660e01b815260040180846001600160a01b0316815260200183815260200180602001828103825283818151815260200191508051906020019080838360005b83811015610e09578181015183820152602001610df1565b50505050905090810190601f168015610e365780820380516001836020036101000a031916815260200191505b50945050505050602060405180830381600087803b158015610e5757600080fd5b505af1158015610e6b573d6000803e3d6000fd5b505050506040513d6020811015610e8157600080fd5b5051610ebe5760405162461bcd60e51b815260040180806020018281038252602381526020018061145b6023913960400191505060405180910390fd5b6004805460010190559392505050565b610ed6611367565b610ee68560800151610100611070565b50509183526001600160a01b031660208301526001600160e01b031916604082015290565b610f1882600383516110b0565b610cdd828261118a565b60008112610f3b57610f36826000836110b0565b610f48565b610f4882600183196110b0565b5050565b6060634042994660e01b6000808460000151856020015186604001518760600151600189608001516000015160405160240180896001600160a01b03168152602001888152602001878152602001866001600160a01b03168152602001856001600160e01b031916815260200184815260200183815260200180602001828103825283818151815260200191508051906020019080838360005b83811015610ffe578181015183820152602001610fe6565b50505050905090810190601f16801561102b5780820380516001836020036101000a031916815260200191505b5060408051601f198184030181529190526020810180516001600160e01b03166001600160e01b0319909d169c909c17909b5250989950505050505050505050919050565b6110786113bc565b602082061561108d5760208206602003820191505b506020808301829052604080518085526000815283019091019052815b92915050565b601781116110d1576110cb8360e0600585901b1683176111ab565b50610cdd565b60ff81116110fb576110ee836018611fe0600586901b16176111ab565b506110cb838260016111c3565b61ffff811161112657611119836019611fe0600586901b16176111ab565b506110cb838260026111c3565b63ffffffff81116111535761114683601a611fe0600586901b16176111ab565b506110cb838260046111c3565b67ffffffffffffffff8111610cdd5761117783601b611fe0600586901b16176111ab565b50611184838260086111c3565b50505050565b6111926113bc565b6111a4838460000151518485516111e4565b9392505050565b6111b36113bc565b6111a48384600001515184611290565b6111cb6113bc565b6111dc8485600001515185856112db565b949350505050565b6111ec6113bc565b82518211156111fa57600080fd5b84602001518285011115611224576112248561121c8760200151878601611339565b600202611350565b6000808651805187602083010193508088870111156112435787860182525b505050602084015b6020841061126a5780518252601f19909301926020918201910161124b565b51815160001960208690036101000a019081169019919091161790525083949350505050565b6112986113bc565b836020015183106112b4576112b4848560200151600202611350565b8351805160208583010184815350808514156112d1576001810182525b5093949350505050565b6112e36113bc565b846020015184830111156113005761130085858401600202611350565b60006001836101000a03905085518386820101858319825116178152508051848701111561132e5783860181525b509495945050505050565b60008183111561134a5750816110aa565b50919050565b815161135c8383611070565b50611184838261118a565b6040805160a0810182526000808252602082018190529181018290526060810191909152608081016113976113bc565b905290565b604080516060810182526000808252602082018190529181019190915290565b60405180604001604052806060815260200160008152509056fe68747470733a2f2f64736c612e6e6574776f726b2f6170693f71756572793d253742253041253230253230676574534c49253238253041253230253230253230253230736c615f61646472657373253341253230253232253232253041253230253230253230253230736c615f6d6f6e69746f72696e675f656e64253341253230253232756e61626c6520746f207472616e73666572416e6443616c6c20746f206f7261636c65534c41526567697374727920616464726573732068617320616c7265616479206265656e20736574536f75726365206d75737420626520746865206f7261636c65206f6620746865207265717565737443616e206f6e6c792062652063616c6c656420627920636f6e6e656374656420534c415265676973747279206f7220436861696e6c696e6b204f7261636c65253232253041253230253230253230253230736c615f6d6f6e69746f72696e675f7374617274253341253230253232a2646970667358221220012d07167d8fda68ec008ab87b40d1b97b8da212e47a9bfa81e46210ce2f269364736f6c634300060c0033",
  "immutableReferences": {},
  "source": "pragma solidity ^0.6.0;\n\nimport \"./SLA/SLA.sol\";\nimport \"./StringUtils.sol\";\nimport \"@chainlink/contracts/src/v0.6/ChainlinkClient.sol\";\n\n/**\n* @title Messenger\n* @notice Messenger is a contract to interact with an Oracle and request SLI information to Stacktical API\non a decentralized fashion. Is not meant to be interacted directly.\n* @dev This contract is attached immediately after deployment to a SLARegistry\n*/\n\ncontract Messenger is ChainlinkClient, StringUtils {\n    /// @dev stores information regarding a chainlink request\n    struct Request {\n        SLA sla;\n        bytes32 sloName;\n        uint256 periodId;\n    }\n\n    /// @dev Mapping that stores chainlink request information\n    mapping(bytes32 => Request) public requestIdToRequest;\n    /// @dev Array with all request IDs\n    bytes32[] public requests;\n    /// @dev The address of the SLARegistry contract\n    address public SLARegistry;\n    /// @dev Chainlink oracle address\n    address public oracle;\n    /// @dev chainlink jobId\n    bytes32 public jobId;\n    /// @dev fee for Chainlink querys. Currently 0.1 LINK\n    uint256 public fee = 0.1 * 10**18;\n\n\n    ///@dev event emitted when having a response from Chainlink with the SLI\n    event SLIReceived(\n        address slaAdress,\n        uint256 sliValue,\n        bytes32 sloName,\n        uint256 _periodId\n    );\n\n    /**\n     * @dev parameterize the variables according to network\n     * @notice sets the Chainlink parameters (oracle address, token address, jobId) and sets the SLARegistry to 0x0 address\n     * @param _chainlinkOracle the address of the oracle to create requests to\n     * @param _chainlinkToken the address of LINK token contract\n     * @param _jobId the job id for the HTTPGet job\n     */\n    constructor(\n        address _chainlinkOracle,\n        address _chainlinkToken,\n        bytes32 _jobId\n    ) public {\n        jobId = _jobId;\n        setChainlinkToken(_chainlinkToken);\n        oracle = _chainlinkOracle;\n        SLARegistry = address(0);\n    }\n\n    /// @dev Throws if called by any address other than the SLARegistry contract or Chainlink Oracle.\n    modifier onlyAllowedAddresses() {\n        require(\n            msg.sender == SLARegistry || msg.sender == chainlinkOracleAddress(),\n            \"Can only be called by connected SLARegistry or Chainlink Oracle\"\n        );\n        _;\n    }\n\n    /**\n     * @dev creates a ChainLink request to get a new SLI value for the\n     * given params. Can only be called by the SLARegistry contract or Chainlink Oracle.\n     * @param _periodId value of the period id\n     * @param _sla SLA Address\n     * @param _sloName the SLO name to get the SLI value for\n     */\n\n    function requestSLI(\n        uint256 _periodId,\n        SLA _sla,\n        bytes32 _sloName\n    ) public onlyAllowedAddresses {\n        Chainlink.Request memory request =\n            buildChainlinkRequest(\n                jobId,\n                address(this),\n                this.fulfillSLI.selector\n            );\n\n        // Get the period start and end\n        (uint256 startPeriod, uint256 endPeriod) =\n            SLA(_sla).getPeriodData(_periodId);\n\n        // State the query string, transforming address and uint to strings\n        string memory query =\n            _encodeQuery(\n                _addressToString(address(_sla)),\n                _uintToStr(startPeriod),\n                _uintToStr(endPeriod)\n            );\n        request.add(\"get\", query);\n\n        // Adds an integer with the key \"times\" to the request parameters\n        request.addInt(\"times\", 1000);\n\n        // States the path to the data, i.e. {data:{getSLI:value}}\n        request.add(\"path\", \"data.getSLI\");\n\n        // Sends the request with 0.1 LINK to the oracle contract\n        bytes32 requestId = sendChainlinkRequestTo(oracle, request, fee);\n\n        requests.push(requestId);\n\n        requestIdToRequest[requestId] = Request(_sla, _sloName, _periodId);\n    }\n\n    /**\n     * @dev callback function for the Chainlink SLI request which stores\n     * the SLI in the SLA contract\n     * @param _requestId the ID of the ChainLink request\n     * @param _sliValue the SLI value returned by ChainLink\n     */\n    function fulfillSLI(bytes32 _requestId, uint256 _sliValue)\n        public\n        recordChainlinkFulfillment(_requestId)\n    {\n        Request memory request = requestIdToRequest[_requestId];\n\n        request.sla.registerSLI(request.sloName, _sliValue, request.periodId);\n\n        emit SLIReceived(\n            address(request.sla),\n            _sliValue,\n            request.sloName,\n            request.periodId\n        );\n    }\n\n    /**\n     * @dev sets the SLARegistry contract address and can only be called\n     * once\n     */\n    function setSLARegistry() public {\n        // Only able to trigger this function once\n        require(\n            SLARegistry == address(0),\n            \"SLARegistry address has already been set\"\n        );\n\n        SLARegistry = msg.sender;\n    }\n\n    /**\n     * @dev gets the start and end of a given SLA on a given period\n     * @param _slaAddress address of the SLA Contract\n     * @param _periodId id of the period\n     */\n    function getPeriod(address _slaAddress, uint256 _periodId)\n        public\n        view\n        returns (uint256 start, uint256 end)\n    {\n        (start, end) = SLA(_slaAddress).getPeriodData(_periodId);\n    }\n}\n",
  "sourcePath": "/Users/matiasbn/Desktop/stacktical/stacktical-dsla-contracts/contracts/Messenger.sol",
  "compiler": {
    "name": "solc",
    "version": "0.6.12+commit.27d51765.Emscripten.clang"
  },
  "schemaVersion": "3.2.5",
  "updatedAt": "2020-12-22T16:55:27.129Z",
  "devdoc": {
    "details": "This contract is attached immediately after deployment to a SLARegistry",
    "events": {
      "SLIReceived(address,uint256,bytes32,uint256)": {
        "details": "event emitted when having a response from Chainlink with the SLI"
      }
    },
    "kind": "dev",
    "methods": {
      "constructor": {
        "details": "parameterize the variables according to network",
        "params": {
          "_chainlinkOracle": "the address of the oracle to create requests to",
          "_chainlinkToken": "the address of LINK token contract",
          "_jobId": "the job id for the HTTPGet job"
        }
      },
      "fulfillSLI(bytes32,uint256)": {
        "details": "callback function for the Chainlink SLI request which stores the SLI in the SLA contract",
        "params": {
          "_requestId": "the ID of the ChainLink request",
          "_sliValue": "the SLI value returned by ChainLink"
        }
      },
      "getPeriod(address,uint256)": {
        "details": "gets the start and end of a given SLA on a given period",
        "params": {
          "_periodId": "id of the period",
          "_slaAddress": "address of the SLA Contract"
        }
      },
      "requestSLI(uint256,address,bytes32)": {
        "details": "creates a ChainLink request to get a new SLI value for the given params. Can only be called by the SLARegistry contract or Chainlink Oracle.",
        "params": {
          "_periodId": "value of the period id",
          "_sla": "SLA Address",
          "_sloName": "the SLO name to get the SLI value for"
        }
      },
      "setSLARegistry()": {
        "details": "sets the SLARegistry contract address and can only be called once"
      }
    },
    "stateVariables": {
      "SLARegistry": {
        "details": "The address of the SLARegistry contract"
      },
      "fee": {
        "details": "fee for Chainlink querys. Currently 0.1 LINK"
      },
      "jobId": {
        "details": "chainlink jobId"
      },
      "oracle": {
        "details": "Chainlink oracle address"
      },
      "requestIdToRequest": {
        "details": "Mapping that stores chainlink request information"
      },
      "requests": {
        "details": "Array with all request IDs"
      }
    },
    "title": "Messenger",
    "version": 1
  },
  "userdoc": {
    "kind": "user",
    "methods": {
      "constructor": "sets the Chainlink parameters (oracle address, token address, jobId) and sets the SLARegistry to 0x0 address"
    },
    "notice": "Messenger is a contract to interact with an Oracle and request SLI information to Stacktical API on a decentralized fashion. Is not meant to be interacted directly.",
    "version": 1
  }
}