{
  "contractName": "MessengerRegistry",
  "abi": [
    {
      "anonymous": false,
      "inputs": [
        {
          "indexed": true,
          "internalType": "address",
          "name": "messengerOwner",
          "type": "address"
        },
        {
          "indexed": true,
          "internalType": "address",
          "name": "messengerAddress",
          "type": "address"
        },
        {
          "indexed": false,
          "internalType": "string",
          "name": "messengerBaseURL",
          "type": "string"
        },
        {
          "indexed": false,
          "internalType": "string",
          "name": "messengerOwnershipURL",
          "type": "string"
        },
        {
          "indexed": false,
          "internalType": "string",
          "name": "messengerSpecificationURL",
          "type": "string"
        }
      ],
      "name": "MessengerModified",
      "type": "event"
    },
    {
      "anonymous": false,
      "inputs": [
        {
          "indexed": true,
          "internalType": "address",
          "name": "messengerOwner",
          "type": "address"
        },
        {
          "indexed": true,
          "internalType": "address",
          "name": "messengerAddress",
          "type": "address"
        },
        {
          "indexed": false,
          "internalType": "string",
          "name": "messengerBaseURL",
          "type": "string"
        },
        {
          "indexed": false,
          "internalType": "string",
          "name": "messengerOwnershipURL",
          "type": "string"
        },
        {
          "indexed": false,
          "internalType": "string",
          "name": "messengerSpecificationURL",
          "type": "string"
        }
      ],
      "name": "MessengerRegistered",
      "type": "event"
    },
    {
      "inputs": [
        {
          "internalType": "uint256",
          "name": "",
          "type": "uint256"
        }
      ],
      "name": "messengers",
      "outputs": [
        {
          "internalType": "address",
          "name": "messengerOwner",
          "type": "address"
        },
        {
          "internalType": "address",
          "name": "messengerAddress",
          "type": "address"
        },
        {
          "internalType": "string",
          "name": "messengerBaseURL",
          "type": "string"
        },
        {
          "internalType": "string",
          "name": "messengerOwnershipURL",
          "type": "string"
        },
        {
          "internalType": "string",
          "name": "messengerSpecificationURL",
          "type": "string"
        }
      ],
      "stateMutability": "view",
      "type": "function",
      "constant": true
    },
    {
      "inputs": [
        {
          "internalType": "address",
          "name": "",
          "type": "address"
        },
        {
          "internalType": "uint256",
          "name": "",
          "type": "uint256"
        }
      ],
      "name": "ownerMessengers",
      "outputs": [
        {
          "internalType": "uint256",
          "name": "",
          "type": "uint256"
        }
      ],
      "stateMutability": "view",
      "type": "function",
      "constant": true
    },
    {
      "inputs": [
        {
          "internalType": "address",
          "name": "",
          "type": "address"
        }
      ],
      "name": "registeredMessengers",
      "outputs": [
        {
          "internalType": "bool",
          "name": "",
          "type": "bool"
        }
      ],
      "stateMutability": "view",
      "type": "function",
      "constant": true
    },
    {
      "inputs": [],
      "name": "slaRegistry",
      "outputs": [
        {
          "internalType": "address",
          "name": "",
          "type": "address"
        }
      ],
      "stateMutability": "view",
      "type": "function",
      "constant": true
    },
    {
      "inputs": [],
      "name": "setSLARegistry",
      "outputs": [],
      "stateMutability": "nonpayable",
      "type": "function"
    },
    {
      "inputs": [
        {
          "internalType": "address",
          "name": "_messengerAddress",
          "type": "address"
        },
        {
          "internalType": "string",
          "name": "_messengerBaseURL",
          "type": "string"
        },
        {
          "internalType": "string",
          "name": "_messengerOwnershipURL",
          "type": "string"
        },
        {
          "internalType": "string",
          "name": "_messengerSpecificationURL",
          "type": "string"
        }
      ],
      "name": "registerMessenger",
      "outputs": [],
      "stateMutability": "nonpayable",
      "type": "function"
    },
    {
      "inputs": [
        {
          "internalType": "string",
          "name": "_messengerBaseURL",
          "type": "string"
        },
        {
          "internalType": "string",
          "name": "_messengerOwnershipURL",
          "type": "string"
        },
        {
          "internalType": "string",
          "name": "_messengerSpecificationURL",
          "type": "string"
        },
        {
          "internalType": "uint256",
          "name": "messengerId",
          "type": "uint256"
        }
      ],
      "name": "modifyMessenger",
      "outputs": [],
      "stateMutability": "nonpayable",
      "type": "function"
    },
    {
      "inputs": [],
      "name": "getMessengers",
      "outputs": [
        {
          "components": [
            {
              "internalType": "address",
              "name": "messengerOwner",
              "type": "address"
            },
            {
              "internalType": "address",
              "name": "messengerAddress",
              "type": "address"
            },
            {
              "internalType": "string",
              "name": "messengerBaseURL",
              "type": "string"
            },
            {
              "internalType": "string",
              "name": "messengerOwnershipURL",
              "type": "string"
            },
            {
              "internalType": "string",
              "name": "messengerSpecificationURL",
              "type": "string"
            }
          ],
          "internalType": "struct MessengerRegistry.Messenger[]",
          "name": "",
          "type": "tuple[]"
        }
      ],
      "stateMutability": "view",
      "type": "function",
      "constant": true
    }
  ],
  "bytecode": "0x608060405234801561001057600080fd5b5061104e806100206000396000f3fe608060405234801561001057600080fd5b50600436106100785760003560e01c806304fec8d21461007d57806324ec66b3146100a657806369b5354b146100ca578063767f5d0d146100df5780639aa974c3146100f4578063db69a46214610107578063ef4003db1461011c578063f38815891461013c575b600080fd5b61009061008b366004610b73565b610144565b60405161009d9190610fdf565b60405180910390f35b6100b96100b4366004610c2a565b610172565b60405161009d959493929190610d24565b6100d261035d565b60405161009d9190610d81565b6100f26100ed366004610adc565b610598565b005b6100f2610102366004610b9e565b610837565b61010f610926565b60405161009d9190610d10565b61012f61012a366004610a9d565b610935565b60405161009d9190610e47565b6100f261094a565b6002602052816000526040600020818154811061015d57fe5b90600052602060002001600091509150505481565b6000818154811061017f57fe5b600091825260209182902060059091020180546001808301546002808501805460408051601f600019978416156101000297909701909216939093049485018890048802810188019092528382526001600160a01b03948516975091909316949091908301828280156102335780601f1061020857610100808354040283529160200191610233565b820191906000526020600020905b81548152906001019060200180831161021657829003601f168201915b5050505060038301805460408051602060026001851615610100026000190190941693909304601f81018490048402820184019092528181529495949350908301828280156102c35780601f10610298576101008083540402835291602001916102c3565b820191906000526020600020905b8154815290600101906020018083116102a657829003601f168201915b5050505060048301805460408051602060026001851615610100026000190190941693909304601f81018490048402820184019092528181529495949350908301828280156103535780601f1061032857610100808354040283529160200191610353565b820191906000526020600020905b81548152906001019060200180831161033657829003601f168201915b5050505050905085565b60606000805480602002602001604051908101604052809291908181526020016000905b8282101561058e5760008481526020908190206040805160a0810182526005860290920180546001600160a01b039081168452600180830154909116848601526002808301805485516101009482161594909402600019011691909104601f810187900487028301870185528083529495929493860193919290919083018282801561044e5780601f106104235761010080835404028352916020019161044e565b820191906000526020600020905b81548152906001019060200180831161043157829003601f168201915b505050918352505060038201805460408051602060026001851615610100026000190190941693909304601f81018490048402820184019092528181529382019392918301828280156104e25780601f106104b7576101008083540402835291602001916104e2565b820191906000526020600020905b8154815290600101906020018083116104c557829003601f168201915b505050918352505060048201805460408051602060026001851615610100026000190190941693909304601f81018490048402820184019092528181529382019392918301828280156105765780601f1061054b57610100808354040283529160200191610576565b820191906000526020600020905b81548152906001019060200180831161055957829003601f168201915b50505050508152505081526020019060010190610381565b5050505090505b90565b6003546001600160a01b031633146105cb5760405162461bcd60e51b81526004016105c290610f0c565b60405180910390fd5b6001600160a01b03841660009081526001602052604090205460ff16156106045760405162461bcd60e51b81526004016105c290610f60565b6000846001600160a01b0316638da5cb5b6040518163ffffffff1660e01b815260040160206040518083038186803b15801561063f57600080fd5b505afa158015610653573d6000803e3d6000fd5b505050506040513d601f19601f820116820180604052508101906106779190610ac0565b6001600160a01b038087166000818152600160208181526040808420805460ff191684179055805160a08101825286881681528083019586529081018b8152606082018b9052608082018a905284549384018555938052805160059093027f290decd9548b62a8d60345a988386fc84ba6bc95484008f6362f93160ef3e563810180549488166001600160a01b031995861617815595517f290decd9548b62a8d60345a988386fc84ba6bc95484008f6362f93160ef3e5648201805491909816941693909317909555915180519596509394929361077b937f290decd9548b62a8d60345a988386fc84ba6bc95484008f6362f93160ef3e565909201920190610987565b5060608201518051610797916003840191602090910190610987565b50608082015180516107b3916004840191602090910190610987565b5050600080546001600160a01b0380851680845260026020908152604080862080546001810182559087529190952060001990940193018390559251919350881691907f33d963222d64cd9654c1a98e28b7bbe1cfd5e6c9c89fb44cced8dcff063b12749061082790899089908990610e52565b60405180910390a3505050505050565b600080828154811061084557fe5b6000918252602090912060059091020180549091506001600160a01b031633146108815760405162461bcd60e51b81526004016105c290610ecb565b84516108969060028301906020880190610987565b5083516108ac9060038301906020870190610987565b5082516108c29060048301906020860190610987565b50600181015481546040516001600160a01b0392831692909116907f0a32947b078c981c3d2bdb10268114a3c303e6c524fd48977357c10b67de09b39061091790600286019060038701906004880190610e94565b60405180910390a35050505050565b6003546001600160a01b031681565b60016020526000908152604090205460ff1681565b6003546001600160a01b0316156109735760405162461bcd60e51b81526004016105c290610f97565b600380546001600160a01b03191633179055565b828054600181600116156101000203166002900490600052602060002090601f016020900481019282601f106109c857805160ff19168380011785556109f5565b828001600101855582156109f5579182015b828111156109f55782518255916020019190600101906109da565b50610a01929150610a05565b5090565b61059591905b80821115610a015760008155600101610a0b565b600082601f830112610a2f578081fd5b813567ffffffffffffffff80821115610a46578283fd5b604051601f8301601f191681016020018281118282101715610a66578485fd5b604052828152925082848301602001861015610a8157600080fd5b8260208601602083013760006020848301015250505092915050565b600060208284031215610aae578081fd5b8135610ab981611000565b9392505050565b600060208284031215610ad1578081fd5b8151610ab981611000565b60008060008060808587031215610af1578283fd5b8435610afc81611000565b9350602085013567ffffffffffffffff80821115610b18578485fd5b610b2488838901610a1f565b94506040870135915080821115610b39578384fd5b610b4588838901610a1f565b93506060870135915080821115610b5a578283fd5b50610b6787828801610a1f565b91505092959194509250565b60008060408385031215610b85578182fd5b8235610b9081611000565b946020939093013593505050565b60008060008060808587031215610bb3578384fd5b843567ffffffffffffffff80821115610bca578586fd5b610bd688838901610a1f565b95506020870135915080821115610beb578485fd5b610bf788838901610a1f565b94506040870135915080821115610c0c578384fd5b50610c1987828801610a1f565b949793965093946060013593505050565b600060208284031215610c3b578081fd5b5035919050565b60008151808452815b81811015610c6757602081850181015186830182015201610c4b565b81811115610c785782602083870101525b50601f01601f19169290920160200192915050565b60008154600180821660008114610cab5760018114610cc957610d07565b60028304607f16865260ff1983166020870152604086019350610d07565b60028304808752610cd986610fe8565b60005b82811015610cfd5781546020828b0101528482019150602081019050610cdc565b8801602001955050505b50505092915050565b6001600160a01b0391909116815260200190565b6001600160a01b0386811682528516602082015260a060408201819052600090610d5090830186610c42565b8281036060840152610d628186610c42565b8381036080850152610d748186610c42565b9998505050505050505050565b60208082528251828201819052600091906040908185019080840286018301878501865b83811015610e3957603f19898403018552815160a0610dc48251610ff4565b8552818901516001600160a01b03168986015287820151888601829052610ded82870182610c42565b6060925082840151915086810383880152610e088183610c42565b9250505060808083015186830382880152610e238382610c42565b988b019896505050928801925050600101610da5565b509098975050505050505050565b901515815260200190565b600060608252610e656060830186610c42565b8281036020840152610e778186610c42565b8381036040850152610e898186610c42565b979650505050505050565b600060608252610ea76060830186610c8d565b8281036020840152610eb98186610c8d565b8381036040850152610e898186610c8d565b60208082526021908201527f43616e206f6e6c79206265206d6f64696669656420627920746865206f776e656040820152603960f91b606082015260800190565b60208082526034908201527f53686f756c64206f6e6c792062652063616c6c6564207573696e67207468652060408201527314d310549959da5cdd1c9e4818dbdb9d1c9858dd60621b606082015260800190565b6020808252601c908201527f6d657373656e67657220616c7265616479207265676973746572656400000000604082015260600190565b60208082526028908201527f534c41526567697374727920616464726573732068617320616c7265616479206040820152671899595b881cd95d60c21b606082015260800190565b90815260200190565b60009081526020902090565b6001600160a01b031690565b6001600160a01b038116811461101557600080fd5b5056fea26469706673582212207bc7c35f96c2943fdc959f0020388b29b6bbcf47daaa33b1979c6548640ec04264736f6c63430006060033",
  "immutableReferences": {},
  "source": "// SPDX-License-Identifier: MIT\npragma solidity 0.6.6;\npragma experimental ABIEncoderV2;\n\nimport \"./messenger/IMessenger.sol\";\n\n/**\n * @title MessengerRegistry\n * @dev MessengerRegistry is a contract to register openly distributed Messengers\n */\ncontract MessengerRegistry {\n    struct Messenger {\n        address messengerOwner;\n        address messengerAddress;\n        string messengerBaseURL;\n        string messengerOwnershipURL;\n        string messengerSpecificationURL;\n    }\n\n    /// @dev array to store the messengers\n    Messenger[] public messengers;\n    /// @dev (messengerAddress=>bool) to check if the Messenger was\n    mapping(address => bool) public registeredMessengers;\n    /// @dev (userAddress=>messengerAddress[]) to register the messengers of an owner\n    mapping(address => uint256[]) public ownerMessengers;\n    /// @dev (userAddress=>messengerAddress[]) to register the owner of a Messenger\n    address public slaRegistry;\n\n    event MessengerRegistered(\n        address indexed messengerOwner,\n        address indexed messengerAddress,\n        string messengerBaseURL,\n        string messengerOwnershipURL,\n        string messengerSpecificationURL\n    );\n\n    event MessengerModified(\n        address indexed messengerOwner,\n        address indexed messengerAddress,\n        string messengerBaseURL,\n        string messengerOwnershipURL,\n        string messengerSpecificationURL\n    );\n\n    /**\n     * @dev sets the SLARegistry contract address and can only be called\n     * once\n     */\n    function setSLARegistry() public {\n        // Only able to trigger this function once\n        require(\n            address(slaRegistry) == address(0),\n            \"SLARegistry address has already been set\"\n        );\n\n        slaRegistry = msg.sender;\n    }\n\n    /**\n     * @dev function to register a new Messenger\n     */\n    function registerMessenger(\n        address _messengerAddress,\n        string memory _messengerBaseURL,\n        string memory _messengerOwnershipURL,\n        string memory _messengerSpecificationURL\n    ) public {\n        require(\n            msg.sender == slaRegistry,\n            \"Should only be called using the SLARegistry contract\"\n        );\n        require(\n            registeredMessengers[_messengerAddress] == false,\n            \"messenger already registered\"\n        );\n        address messengerOwner = IMessenger(_messengerAddress).owner();\n        registeredMessengers[_messengerAddress] = true;\n        messengers.push(\n            Messenger({\n                messengerBaseURL: _messengerBaseURL,\n                messengerOwnershipURL: _messengerOwnershipURL,\n                messengerSpecificationURL: _messengerSpecificationURL,\n                messengerOwner: messengerOwner,\n                messengerAddress: _messengerAddress\n            })\n        );\n        uint256 index = messengers.length - 1;\n        ownerMessengers[messengerOwner].push(index);\n        emit MessengerRegistered(\n            messengerOwner,\n            _messengerAddress,\n            _messengerBaseURL,\n            _messengerOwnershipURL,\n            _messengerSpecificationURL\n        );\n    }\n\n    /**\n     * @dev function to modifyMessenger a new Messenger\n     */\n    function modifyMessenger(\n        string memory _messengerBaseURL,\n        string memory _messengerOwnershipURL,\n        string memory _messengerSpecificationURL,\n        uint256 messengerId\n    ) public {\n        Messenger storage messenger = messengers[messengerId];\n        require(\n            msg.sender == messenger.messengerOwner,\n            \"Can only be modified by the owner\"\n        );\n        messenger.messengerBaseURL = _messengerBaseURL;\n        messenger.messengerOwnershipURL = _messengerOwnershipURL;\n        messenger.messengerSpecificationURL = _messengerSpecificationURL;\n        emit MessengerModified(\n            messenger.messengerOwner,\n            messenger.messengerAddress,\n            messenger.messengerBaseURL,\n            messenger.messengerOwnershipURL,\n            messenger.messengerSpecificationURL\n        );\n    }\n\n    function getMessengers() public view returns (Messenger[] memory) {\n        return messengers;\n    }\n}\n",
  "sourcePath": "/Users/matiasbn/Desktop/stacktical/stacktical-dsla-contracts/contracts/MessengerRegistry.sol",
  "compiler": {
    "name": "solc",
    "version": "0.6.6+commit.6c089d02.Emscripten.clang"
  },
  "schemaVersion": "3.3.3",
  "updatedAt": "2021-03-15T23:14:52.190Z",
  "networkType": "ethereum",
  "devdoc": {
    "details": "MessengerRegistry is a contract to register openly distributed Messengers",
    "methods": {
      "modifyMessenger(string,string,string,uint256)": {
        "details": "function to modifyMessenger a new Messenger"
      },
      "registerMessenger(address,string,string,string)": {
        "details": "function to register a new Messenger"
      },
      "setSLARegistry()": {
        "details": "sets the SLARegistry contract address and can only be called once"
      }
    },
    "title": "MessengerRegistry"
  },
  "userdoc": {
    "methods": {}
  }
}