{
  "contractName": "Messenger",
  "abi": [
    {
      "inputs": [
        {
          "internalType": "address",
          "name": "_chainlinkOracle",
          "type": "address"
        }
      ],
      "stateMutability": "nonpayable",
      "type": "constructor"
    },
    {
      "anonymous": false,
      "inputs": [
        {
          "indexed": true,
          "internalType": "bytes32",
          "name": "id",
          "type": "bytes32"
        }
      ],
      "name": "ChainlinkCancelled",
      "type": "event"
    },
    {
      "anonymous": false,
      "inputs": [
        {
          "indexed": true,
          "internalType": "bytes32",
          "name": "id",
          "type": "bytes32"
        }
      ],
      "name": "ChainlinkFulfilled",
      "type": "event"
    },
    {
      "anonymous": false,
      "inputs": [
        {
          "indexed": true,
          "internalType": "bytes32",
          "name": "id",
          "type": "bytes32"
        }
      ],
      "name": "ChainlinkRequested",
      "type": "event"
    },
    {
      "anonymous": false,
      "inputs": [
        {
          "indexed": false,
          "internalType": "address",
          "name": "slaAdress",
          "type": "address"
        },
        {
          "indexed": false,
          "internalType": "uint256",
          "name": "sliValue",
          "type": "uint256"
        },
        {
          "indexed": false,
          "internalType": "bytes32",
          "name": "sloName",
          "type": "bytes32"
        },
        {
          "indexed": false,
          "internalType": "uint256",
          "name": "_periodId",
          "type": "uint256"
        }
      ],
      "name": "SLIReceived",
      "type": "event"
    },
    {
      "inputs": [],
      "name": "SLARegistry",
      "outputs": [
        {
          "internalType": "address",
          "name": "",
          "type": "address"
        }
      ],
      "stateMutability": "view",
      "type": "function",
      "constant": true
    },
    {
      "inputs": [
        {
          "internalType": "string",
          "name": "_slaAddress",
          "type": "string"
        },
        {
          "internalType": "string",
          "name": "_slaMonitoringStart",
          "type": "string"
        },
        {
          "internalType": "string",
          "name": "_slaMonitoringStop",
          "type": "string"
        }
      ],
      "name": "_encodeQuery",
      "outputs": [
        {
          "internalType": "string",
          "name": "query",
          "type": "string"
        }
      ],
      "stateMutability": "pure",
      "type": "function",
      "constant": true
    },
    {
      "inputs": [
        {
          "internalType": "bytes32",
          "name": "",
          "type": "bytes32"
        }
      ],
      "name": "requestIdToRequest",
      "outputs": [
        {
          "internalType": "contract SLA",
          "name": "sla",
          "type": "address"
        },
        {
          "internalType": "bytes32",
          "name": "sloName",
          "type": "bytes32"
        },
        {
          "internalType": "uint256",
          "name": "periodId",
          "type": "uint256"
        }
      ],
      "stateMutability": "view",
      "type": "function",
      "constant": true
    },
    {
      "inputs": [
        {
          "internalType": "uint256",
          "name": "",
          "type": "uint256"
        }
      ],
      "name": "requests",
      "outputs": [
        {
          "internalType": "bytes32",
          "name": "",
          "type": "bytes32"
        }
      ],
      "stateMutability": "view",
      "type": "function",
      "constant": true
    },
    {
      "inputs": [
        {
          "internalType": "uint256",
          "name": "",
          "type": "uint256"
        }
      ],
      "name": "results",
      "outputs": [
        {
          "internalType": "uint256",
          "name": "",
          "type": "uint256"
        }
      ],
      "stateMutability": "view",
      "type": "function",
      "constant": true
    },
    {
      "inputs": [
        {
          "internalType": "uint256",
          "name": "_periodId",
          "type": "uint256"
        },
        {
          "internalType": "contract SLA",
          "name": "_sla",
          "type": "address"
        },
        {
          "internalType": "bytes32",
          "name": "_sloName",
          "type": "bytes32"
        }
      ],
      "name": "requestSLI",
      "outputs": [],
      "stateMutability": "nonpayable",
      "type": "function"
    },
    {
      "inputs": [
        {
          "internalType": "bytes32",
          "name": "_requestId",
          "type": "bytes32"
        },
        {
          "internalType": "uint256",
          "name": "_sliValue",
          "type": "uint256"
        }
      ],
      "name": "fulfillSLI",
      "outputs": [],
      "stateMutability": "nonpayable",
      "type": "function"
    },
    {
      "inputs": [],
      "name": "setSLARegistry",
      "outputs": [],
      "stateMutability": "nonpayable",
      "type": "function"
    },
    {
      "inputs": [
        {
          "internalType": "address",
          "name": "_slaAddress",
          "type": "address"
        },
        {
          "internalType": "uint256",
          "name": "_periodId",
          "type": "uint256"
        }
      ],
      "name": "getPeriod",
      "outputs": [
        {
          "internalType": "uint256",
          "name": "start",
          "type": "uint256"
        },
        {
          "internalType": "uint256",
          "name": "end",
          "type": "uint256"
        }
      ],
      "stateMutability": "view",
      "type": "function",
      "constant": true
    }
  ],
  "bytecode": "0x608060405260016004557f3239666139616131336266313436383738386237636334613530306134356238600b5567016345785d8a0000600c5534801561004557600080fd5b50604051620018e5380380620018e58339818101604052602081101561006a57600080fd5b50516100746100a0565b600a80546001600160a01b039092166001600160a01b0319928316179055600880549091169055610145565b61012173c89bd4e1632d3a43cb03aaad5262cbe4038bc5716001600160a01b03166338cc48316040518163ffffffff1660e01b815260040160206040518083038186803b1580156100f057600080fd5b505afa158015610104573d6000803e3d6000fd5b505050506040513d602081101561011a57600080fd5b5051610123565b565b600280546001600160a01b0319166001600160a01b0392909216919091179055565b61179080620001556000396000f3fe608060405234801561001057600080fd5b50600436106100835760003560e01c806301e5bbb9146100885780631b0c27da146100cd578063558450be146100fc5780635fcb7a0914610130578063792d1d661461035357806381d12c5814610398578063bc0bfc00146103b5578063d834e0f6146103d8578063f3881589146103fc575b600080fd5b6100a56004803603602081101561009e57600080fd5b5035610404565b604080516001600160a01b039094168452602084019290925282820152519081900360600190f35b6100ea600480360360208110156100e357600080fd5b503561042f565b60408051918252519081900360200190f35b61012e6004803603606081101561011257600080fd5b508035906001600160a01b03602082013516906040013561044d565b005b6102de6004803603606081101561014657600080fd5b810190602081018135600160201b81111561016057600080fd5b82018360208201111561017257600080fd5b803590602001918460018302840111600160201b8311171561019357600080fd5b91908080601f0160208091040260200160405190810160405280939291908181526020018383808284376000920191909152509295949360208101935035915050600160201b8111156101e557600080fd5b8201836020820111156101f757600080fd5b803590602001918460018302840111600160201b8311171561021857600080fd5b91908080601f0160208091040260200160405190810160405280939291908181526020018383808284376000920191909152509295949360208101935035915050600160201b81111561026a57600080fd5b82018360208201111561027c57600080fd5b803590602001918460018302840111600160201b8311171561029d57600080fd5b91908080601f0160208091040260200160405190810160405280939291908181526020018383808284376000920191909152509295506106d3945050505050565b6040805160208082528351818301528351919283929083019185019080838360005b83811015610318578181015183820152602001610300565b50505050905090810190601f1680156103455780820380516001836020036101000a031916815260200191505b509250505060405180910390f35b61037f6004803603604081101561036957600080fd5b506001600160a01b038135169060200135610990565b6040805192835260208301919091528051918290030190f35b6100ea600480360360208110156103ae57600080fd5b5035610a14565b61012e600480360360408110156103cb57600080fd5b5080359060200135610a21565b6103e0610bfa565b604080516001600160a01b039092168252519081900360200190f35b61012e610c09565b6006602052600090815260409020805460018201546002909201546001600160a01b03909116919083565b6009818154811061043c57fe5b600091825260209091200154905081565b6008546001600160a01b031633148061047e5750610469610c65565b6001600160a01b0316336001600160a01b0316145b6104b95760405162461bcd60e51b815260040180806020018281038252602b81526020018061168e602b913960400191505060405180910390fd5b6104c161159a565b600b546104d59030622f02ff60ea1b610c74565b9050600080846001600160a01b031663fc875ece876040518263ffffffff1660e01b815260040180828152602001915050604080518083038186803b15801561051d57600080fd5b505afa158015610531573d6000803e3d6000fd5b505050506040513d604081101561054757600080fd5b5080516020909101519092509050606061057a61056387610c99565b61056c85610e17565b61057585610e17565b6106d3565b60408051808201909152600381526219d95d60ea1b60208201529091506105a390859083610ef2565b60408051808201909152600581526474696d657360d81b60208201526105cd9085906103e8610f15565b610621604051806040016040528060048152602001630e0c2e8d60e31b8152506040518060400160405280600b81526020016a646174612e676574534c4960a81b81525086610ef29092919063ffffffff16565b600a54600c54600091610641916001600160a01b03909116908790610f33565b6007805460018082019092557fa66cc928b5edb82af9bd49922954155ab7b0942694bea4ce44661d9a8736c68801829055604080516060810182526001600160a01b039a8b16815260208082019a8b528183019c8d526000948552600690529220915182546001600160a01b031916991698909817815595519686019690965550509351600290920191909155505050565b60608060405180608001604052806057815260200161160a60579139905060606040518060600160405280602f815260200161172c602f9139905060606040518060600160405280602d8152602001611661602d9139905060606040518060400160405280601881526020017725323225304125323025323025323925304125374425304160401b815250905083888489858a866040516020018088805190602001908083835b602083106107995780518252601f19909201916020918201910161077a565b51815160209384036101000a60001901801990921691161790528a5191909301928a0191508083835b602083106107e15780518252601f1990920191602091820191016107c2565b51815160209384036101000a600019018019909216911617905289519190930192890191508083835b602083106108295780518252601f19909201916020918201910161080a565b51815160209384036101000a600019018019909216911617905288519190930192880191508083835b602083106108715780518252601f199092019160209182019101610852565b51815160209384036101000a600019018019909216911617905287519190930192870191508083835b602083106108b95780518252601f19909201916020918201910161089a565b51815160209384036101000a600019018019909216911617905286519190930192860191508083835b602083106109015780518252601f1990920191602091820191016108e2565b51815160209384036101000a600019018019909216911617905285519190930192850191508083835b602083106109495780518252601f19909201916020918201910161092a565b6001836020036101000a0380198251168184511680821785525050505050509050019750505050505050506040516020818303038152906040529450505050509392505050565b600080836001600160a01b031663fc875ece846040518263ffffffff1660e01b815260040180828152602001915050604080518083038186803b1580156109d657600080fd5b505afa1580156109ea573d6000803e3d6000fd5b505050506040513d6040811015610a0057600080fd5b508051602090910151909590945092505050565b6007818154811061043c57fe5b60008281526005602052604090205482906001600160a01b03163314610a785760405162461bcd60e51b81526004018080602001828103825260288152602001806117046028913960400191505060405180910390fd5b60008181526005602052604080822080546001600160a01b03191690555182917f7cc135e0cebb02c3480ae5d74d377283180a2601f8f644edf7987b009316c63a91a2610ac36115cf565b506000838152600660209081526040808320815160608101835281546001600160a01b03168082526001830154948201859052600290920154818401819052835163869c392560e01b8152600481019590955260248501889052604485015291519193909263869c3925926064808301939282900301818387803b158015610b4a57600080fd5b505af1158015610b5e573d6000803e3d6000fd5b5050600980546001810182556000919091527f6e1540171b6c0c960b71a7020d9f60077f6af931a8bbf590da0223dacf75c7af018590555050805160208281015160408085015181516001600160a01b039095168552928401879052838101919091526060830191909152517fd8fe8f385d4ebf349c881e53184df12a2e704d3025c756ee39c67f0d7b54dde29181900360800190a150505050565b6008546001600160a01b031681565b6008546001600160a01b031615610c515760405162461bcd60e51b81526004018080602001828103825260288152602001806116dc6028913960400191505060405180910390fd5b600880546001600160a01b03191633179055565b6003546001600160a01b031690565b610c7c61159a565b610c8461159a565b610c9081868686611101565b95945050505050565b604080518082018252601081526f181899199a1a9b1b9c1cb0b131b232b360811b60208201528151602a80825260608281019094526001600160a01b03851692918491602082018180368337019050509050600360fc1b81600081518110610cfd57fe5b60200101906001600160f81b031916908160001a905350600f60fb1b81600181518110610d2657fe5b60200101906001600160f81b031916908160001a90535060005b6014811015610e0c578260048583600c0160208110610d5b57fe5b1a60f81b6001600160f81b031916901c60f81c60ff1681518110610d7b57fe5b602001015160f81c60f81b828260020260020181518110610d9857fe5b60200101906001600160f81b031916908160001a905350828482600c0160208110610dbf57fe5b825191901a600f16908110610dd057fe5b602001015160f81c60f81b828260020260030181518110610ded57fe5b60200101906001600160f81b031916908160001a905350600101610d40565b50925050505b919050565b60608180610e3e5750506040805180820190915260018152600360fc1b6020820152610e12565b8060005b8115610e5657600101600a82049150610e42565b60608167ffffffffffffffff81118015610e6f57600080fd5b506040519080825280601f01601f191660200182016040528015610e9a576020820181803683370190505b50905060001982015b8415610ee857600a850660300160f81b82828060019003935081518110610ec657fe5b60200101906001600160f81b031916908160001a905350600a85049450610ea3565b5095945050505050565b6080830151610f01908361113e565b6080830151610f10908261113e565b505050565b6080830151610f24908361113e565b6080830151610f109082611155565b6004546040805130606090811b60208084019190915260348084018690528451808503909101815260549093018452825192810192909220908601939093526000838152600590915281812080546001600160a01b0319166001600160a01b038816179055905182917fb5e6e01e79f91267dc17b4e6314d5d4d03593d2ceee0fbb452b750bd70ea5af991a26002546001600160a01b0316634000aea08584610fdb8761117f565b6040518463ffffffff1660e01b815260040180846001600160a01b0316815260200183815260200180602001828103825283818151815260200191508051906020019080838360005b8381101561103c578181015183820152602001611024565b50505050905090810190601f1680156110695780820380516001836020036101000a031916815260200191505b50945050505050602060405180830381600087803b15801561108a57600080fd5b505af115801561109e573d6000803e3d6000fd5b505050506040513d60208110156110b457600080fd5b50516110f15760405162461bcd60e51b81526004018080602001828103825260238152602001806116b96023913960400191505060405180910390fd5b6004805460010190559392505050565b61110961159a565b61111985608001516101006112a3565b50509183526001600160a01b031660208301526001600160e01b031916604082015290565b61114b82600383516112e3565b610f1082826113bd565b6000811261116e57611169826000836112e3565b61117b565b61117b82600183196112e3565b5050565b6060634042994660e01b6000808460000151856020015186604001518760600151600189608001516000015160405160240180896001600160a01b03168152602001888152602001878152602001866001600160a01b03168152602001856001600160e01b031916815260200184815260200183815260200180602001828103825283818151815260200191508051906020019080838360005b83811015611231578181015183820152602001611219565b50505050905090810190601f16801561125e5780820380516001836020036101000a031916815260200191505b5060408051601f198184030181529190526020810180516001600160e01b03166001600160e01b0319909d169c909c17909b5250989950505050505050505050919050565b6112ab6115ef565b60208206156112c05760208206602003820191505b506020808301829052604080518085526000815283019091019052815b92915050565b60178111611304576112fe8360e0600585901b1683176113de565b50610f10565b60ff811161132e57611321836018611fe0600586901b16176113de565b506112fe838260016113f6565b61ffff81116113595761134c836019611fe0600586901b16176113de565b506112fe838260026113f6565b63ffffffff81116113865761137983601a611fe0600586901b16176113de565b506112fe838260046113f6565b67ffffffffffffffff8111610f10576113aa83601b611fe0600586901b16176113de565b506113b7838260086113f6565b50505050565b6113c56115ef565b6113d783846000015151848551611417565b9392505050565b6113e66115ef565b6113d783846000015151846114c3565b6113fe6115ef565b61140f84856000015151858561150e565b949350505050565b61141f6115ef565b825182111561142d57600080fd5b84602001518285011115611457576114578561144f876020015187860161156c565b600202611583565b6000808651805187602083010193508088870111156114765787860182525b505050602084015b6020841061149d5780518252601f19909301926020918201910161147e565b51815160001960208690036101000a019081169019919091161790525083949350505050565b6114cb6115ef565b836020015183106114e7576114e7848560200151600202611583565b835180516020858301018481535080851415611504576001810182525b5093949350505050565b6115166115ef565b846020015184830111156115335761153385858401600202611583565b60006001836101000a0390508551838682010185831982511617815250805184870111156115615783860181525b509495945050505050565b60008183111561157d5750816112dd565b50919050565b815161158f83836112a3565b506113b783826113bd565b6040805160a0810182526000808252602082018190529181018290526060810191909152608081016115ca6115ef565b905290565b604080516060810182526000808252602082018190529181019190915290565b60405180604001604052806060815260200160008152509056fe68747470733a2f2f64736c612e6e6574776f726b2f6170693f71756572793d253742253041253230253230676574534c49253238253041253230253230253230253230736c615f61646472657373253341253230253232253232253041253230253230253230253230736c615f6d6f6e69746f72696e675f656e6425334125323025323243616e206f6e6c792062652063616c6c656420627920636f6e6e656374656420534c415265676973747279756e61626c6520746f207472616e73666572416e6443616c6c20746f206f7261636c65534c41526567697374727920616464726573732068617320616c7265616479206265656e20736574536f75726365206d75737420626520746865206f7261636c65206f66207468652072657175657374253232253041253230253230253230253230736c615f6d6f6e69746f72696e675f7374617274253341253230253232a26469706673582212207cad4311e6b8b1632626855e512e6269630ad4cda97f09d1d20fd191ac3daeb264736f6c634300060c0033",
  "immutableReferences": {},
  "source": "pragma solidity ^0.6.0;\n\nimport \"./SLA/SLA.sol\";\nimport \"./StringUtils.sol\";\nimport \"@chainlink/contracts/src/v0.6/ChainlinkClient.sol\";\n\ncontract Messenger is ChainlinkClient, StringUtils {\n    // struct that stores information regarding a chainlink request\n    struct Request {\n        SLA sla;\n        bytes32 sloName;\n        uint256 periodId;\n    }\n\n    // Mapping that stores chainlink request information\n    mapping(bytes32 => Request) public requestIdToRequest;\n\n    // Array with all request IDs\n    bytes32[] public requests;\n\n    // The address of the SLARegistry contract\n    address public SLARegistry;\n    uint256[] public results;\n\n    // jobId corresponds to API call\n    address private oracle;\n    bytes32 private jobId = \"29fa9aa13bf1468788b7cc4a500a45b8\";\n    uint256 private fee = 0.1 * 10**18; // 0.1 LINK;\n\n    /**\n     * @dev event emitted when having a response from Chainlink with the SLI\n     */\n    event SLIReceived(\n        address slaAdress,\n        uint256 sliValue,\n        bytes32 sloName,\n        uint256 _periodId\n    );\n\n    /**\n     * @dev constructor\n     * @param _chainlinkOracle the address of the oracle to create requests to\n     */\n    constructor(address _chainlinkOracle) public {\n        setPublicChainlinkToken();\n        oracle = _chainlinkOracle;\n        SLARegistry = address(0);\n    }\n\n    /**\n     * @dev Throws if called by any address other than the registry contract.\n     */\n    modifier onlySLARegistry() {\n        require(\n            msg.sender == SLARegistry || msg.sender == chainlinkOracleAddress(),\n            \"Can only be called by connected SLARegistry\"\n        );\n        _;\n    }\n\n    /**\n     * @dev Creates a ChainLink request to get a new SLI value for the\n     * given params\n     * @param _periodId bytes32 value of the period id\n     * @param _sla SLA Address\n     * @param _sloName the SLO name to get the SLI value for\n     */\n\n    function requestSLI(\n        uint256 _periodId,\n        SLA _sla,\n        bytes32 _sloName\n    ) public onlySLARegistry {\n        Chainlink.Request memory request =\n            buildChainlinkRequest(\n                jobId,\n                address(this),\n                this.fulfillSLI.selector\n            );\n\n        // Get the period start and end\n        (uint256 startPeriod, uint256 endPeriod) =\n            SLA(_sla).getPeriodData(_periodId);\n\n        // State the query string, transforming address and uint to strings\n        string memory query =\n            _encodeQuery(\n                _addressToString(address(_sla)),\n                _uintTostr(startPeriod),\n                _uintTostr(endPeriod)\n            );\n        request.add(\"get\", query);\n\n        // Adds an integer with the key \"times\" to the request parameters\n        request.addInt(\"times\", 1000);\n\n        // States the path to the data, i.e. {data:{getSLI:value}}\n        request.add(\"path\", \"data.getSLI\");\n\n        // Sends the request with 1 LINK to the oracle contract\n        bytes32 requestId = sendChainlinkRequestTo(oracle, request, fee);\n\n        requests.push(requestId);\n\n        requestIdToRequest[requestId] = Request(_sla, _sloName, _periodId);\n    }\n\n    /**\n     * @dev The callback function for the Chainlink SLI request which stores\n     * the SLI in the SLA contract\n     * @param _requestId the ID of the ChainLink request\n     * @param _sliValue the SLI value returned by ChainLink\n     */\n    function fulfillSLI(bytes32 _requestId, uint256 _sliValue)\n        public\n        // Use recordChainlinkFulfillment to ensure only the requesting oracle can fulfill\n        recordChainlinkFulfillment(_requestId)\n    {\n        Request memory request = requestIdToRequest[_requestId];\n\n        request.sla.registerSLI(request.sloName, _sliValue, request.periodId);\n\n        results.push(_sliValue);\n\n        emit SLIReceived(\n            address(request.sla),\n            _sliValue,\n            request.sloName,\n            request.periodId\n        );\n    }\n\n    /**\n     * @dev This sets the SLARegistry contract address and can only be called\n     * once\n     */\n    function setSLARegistry() public {\n        // Only able to trigger this function once\n        require(\n            SLARegistry == address(0),\n            \"SLARegistry address has already been set\"\n        );\n\n        SLARegistry = msg.sender;\n    }\n\n    /**\n     * @dev gets the start and end of a given SLA on a given period\n     */\n    function getPeriod(address _slaAddress, uint256 _periodId)\n        public\n        view\n        returns (uint256 start, uint256 end)\n    {\n        (start, end) = SLA(_slaAddress).getPeriodData(_periodId);\n    }\n}\n",
  "sourcePath": "/Users/matiasbn/Desktop/stacktical-dsla-contracts/contracts/Messenger.sol",
  "compiler": {
    "name": "solc",
    "version": "0.6.12+commit.27d51765.Emscripten.clang"
  },
  "schemaVersion": "3.2.5",
  "updatedAt": "2020-12-10T20:55:32.605Z",
  "networkType": "ethereum",
  "devdoc": {
    "events": {
      "SLIReceived(address,uint256,bytes32,uint256)": {
        "details": "event emitted when having a response from Chainlink with the SLI"
      }
    },
    "kind": "dev",
    "methods": {
      "_encodeQuery(string,string,string)": {
        "details": "returns Graphql query for Chainlink GET request of SLI"
      },
      "constructor": {
        "details": "constructor",
        "params": {
          "_chainlinkOracle": "the address of the oracle to create requests to"
        }
      },
      "fulfillSLI(bytes32,uint256)": {
        "details": "The callback function for the Chainlink SLI request which stores the SLI in the SLA contract",
        "params": {
          "_requestId": "the ID of the ChainLink request",
          "_sliValue": "the SLI value returned by ChainLink"
        }
      },
      "getPeriod(address,uint256)": {
        "details": "gets the start and end of a given SLA on a given period"
      },
      "requestSLI(uint256,address,bytes32)": {
        "details": "Creates a ChainLink request to get a new SLI value for the given params",
        "params": {
          "_periodId": "bytes32 value of the period id",
          "_sla": "SLA Address",
          "_sloName": "the SLO name to get the SLI value for"
        }
      },
      "setSLARegistry()": {
        "details": "This sets the SLARegistry contract address and can only be called once"
      }
    },
    "version": 1
  },
  "userdoc": {
    "kind": "user",
    "methods": {},
    "version": 1
  }
}