{
  "contractName": "Messenger",
  "abi": [
    {
      "inputs": [
        {
          "internalType": "string",
          "name": "_apiUrl",
          "type": "string"
        },
        {
          "internalType": "address",
          "name": "_chainlinkOracle",
          "type": "address"
        },
        {
          "internalType": "address",
          "name": "_chainlinkToken",
          "type": "address"
        },
        {
          "internalType": "bytes32",
          "name": "_jobId",
          "type": "bytes32"
        }
      ],
      "stateMutability": "nonpayable",
      "type": "constructor"
    },
    {
      "anonymous": false,
      "inputs": [
        {
          "indexed": false,
          "internalType": "bytes32",
          "name": "network",
          "type": "bytes32"
        },
        {
          "indexed": false,
          "internalType": "uint256",
          "name": "periodId",
          "type": "uint256"
        },
        {
          "indexed": false,
          "internalType": "bytes32",
          "name": "ipfsHash",
          "type": "bytes32"
        }
      ],
      "name": "AnalyticsReceived",
      "type": "event"
    },
    {
      "anonymous": false,
      "inputs": [
        {
          "indexed": true,
          "internalType": "bytes32",
          "name": "id",
          "type": "bytes32"
        }
      ],
      "name": "ChainlinkCancelled",
      "type": "event"
    },
    {
      "anonymous": false,
      "inputs": [
        {
          "indexed": true,
          "internalType": "bytes32",
          "name": "id",
          "type": "bytes32"
        }
      ],
      "name": "ChainlinkFulfilled",
      "type": "event"
    },
    {
      "anonymous": false,
      "inputs": [
        {
          "indexed": true,
          "internalType": "bytes32",
          "name": "id",
          "type": "bytes32"
        }
      ],
      "name": "ChainlinkRequested",
      "type": "event"
    },
    {
      "anonymous": false,
      "inputs": [
        {
          "indexed": false,
          "internalType": "address",
          "name": "slaAddress",
          "type": "address"
        },
        {
          "indexed": false,
          "internalType": "uint256",
          "name": "hits",
          "type": "uint256"
        },
        {
          "indexed": false,
          "internalType": "uint256",
          "name": "misses",
          "type": "uint256"
        },
        {
          "indexed": false,
          "internalType": "uint256",
          "name": "sliValue",
          "type": "uint256"
        },
        {
          "indexed": false,
          "internalType": "bytes32",
          "name": "sloName",
          "type": "bytes32"
        },
        {
          "indexed": false,
          "internalType": "uint256",
          "name": "periodId",
          "type": "uint256"
        }
      ],
      "name": "SLIReceived",
      "type": "event"
    },
    {
      "inputs": [],
      "name": "apiURL",
      "outputs": [
        {
          "internalType": "string",
          "name": "",
          "type": "string"
        }
      ],
      "stateMutability": "view",
      "type": "function",
      "constant": true
    },
    {
      "inputs": [],
      "name": "fee",
      "outputs": [
        {
          "internalType": "uint256",
          "name": "",
          "type": "uint256"
        }
      ],
      "stateMutability": "view",
      "type": "function",
      "constant": true
    },
    {
      "inputs": [],
      "name": "jobId",
      "outputs": [
        {
          "internalType": "bytes32",
          "name": "",
          "type": "bytes32"
        }
      ],
      "stateMutability": "view",
      "type": "function",
      "constant": true
    },
    {
      "inputs": [],
      "name": "oracle",
      "outputs": [
        {
          "internalType": "address",
          "name": "",
          "type": "address"
        }
      ],
      "stateMutability": "view",
      "type": "function",
      "constant": true
    },
    {
      "inputs": [
        {
          "internalType": "bytes32",
          "name": "",
          "type": "bytes32"
        }
      ],
      "name": "requestIdToAnalyticsRequest",
      "outputs": [
        {
          "internalType": "bytes32",
          "name": "networkName",
          "type": "bytes32"
        },
        {
          "internalType": "uint256",
          "name": "weekId",
          "type": "uint256"
        }
      ],
      "stateMutability": "view",
      "type": "function",
      "constant": true
    },
    {
      "inputs": [
        {
          "internalType": "bytes32",
          "name": "",
          "type": "bytes32"
        }
      ],
      "name": "requestIdToSLIRequest",
      "outputs": [
        {
          "internalType": "contract SLA",
          "name": "sla",
          "type": "address"
        },
        {
          "internalType": "bytes32",
          "name": "sloName",
          "type": "bytes32"
        },
        {
          "internalType": "uint256",
          "name": "periodId",
          "type": "uint256"
        }
      ],
      "stateMutability": "view",
      "type": "function",
      "constant": true
    },
    {
      "inputs": [
        {
          "internalType": "uint256",
          "name": "",
          "type": "uint256"
        }
      ],
      "name": "requests",
      "outputs": [
        {
          "internalType": "bytes32",
          "name": "",
          "type": "bytes32"
        }
      ],
      "stateMutability": "view",
      "type": "function",
      "constant": true
    },
    {
      "inputs": [],
      "name": "slaRegistry",
      "outputs": [
        {
          "internalType": "contract SLARegistry",
          "name": "",
          "type": "address"
        }
      ],
      "stateMutability": "view",
      "type": "function",
      "constant": true
    },
    {
      "inputs": [],
      "name": "setSLARegistry",
      "outputs": [],
      "stateMutability": "nonpayable",
      "type": "function"
    },
    {
      "inputs": [
        {
          "internalType": "uint256",
          "name": "_weekId",
          "type": "uint256"
        },
        {
          "internalType": "contract SLA",
          "name": "_sla",
          "type": "address"
        },
        {
          "internalType": "bytes32",
          "name": "_sloName",
          "type": "bytes32"
        }
      ],
      "name": "requestSLI",
      "outputs": [],
      "stateMutability": "nonpayable",
      "type": "function"
    },
    {
      "inputs": [
        {
          "internalType": "bytes32",
          "name": "_requestId",
          "type": "bytes32"
        },
        {
          "internalType": "bytes32",
          "name": "_chainlinkResponse",
          "type": "bytes32"
        }
      ],
      "name": "fulfillSLI",
      "outputs": [],
      "stateMutability": "nonpayable",
      "type": "function"
    },
    {
      "inputs": [
        {
          "internalType": "uint256",
          "name": "_weekId",
          "type": "uint256"
        },
        {
          "internalType": "bytes32",
          "name": "_networkName",
          "type": "bytes32"
        }
      ],
      "name": "requestAnalytics",
      "outputs": [],
      "stateMutability": "nonpayable",
      "type": "function"
    },
    {
      "inputs": [
        {
          "internalType": "bytes32",
          "name": "_requestId",
          "type": "bytes32"
        },
        {
          "internalType": "bytes32",
          "name": "_chainlinkResponse",
          "type": "bytes32"
        }
      ],
      "name": "fulFillAnalytics",
      "outputs": [],
      "stateMutability": "nonpayable",
      "type": "function"
    },
    {
      "inputs": [
        {
          "internalType": "address",
          "name": "_slaAddress",
          "type": "address"
        },
        {
          "internalType": "uint256",
          "name": "_periodId",
          "type": "uint256"
        }
      ],
      "name": "getPeriod",
      "outputs": [
        {
          "internalType": "uint256",
          "name": "start",
          "type": "uint256"
        },
        {
          "internalType": "uint256",
          "name": "end",
          "type": "uint256"
        }
      ],
      "stateMutability": "view",
      "type": "function",
      "constant": true
    }
  ],
  "bytecode": "0x600160045567016345785d8a0000600c5560a06040819052600060808190526200002c91600d91620000ca565b503480156200003a57600080fd5b5060405162001ef038038062001ef08339810160408190526200005d9162000184565b600b8190556200006d82620000a8565b600a80546001600160a01b0319166001600160a01b03851617905583516200009d90600d906020870190620000ca565b5050505050620002bd565b600280546001600160a01b0319166001600160a01b0392909216919091179055565b828054600181600116156101000203166002900490600052602060002090601f016020900481019282601f106200010d57805160ff19168380011785556200013d565b828001600101855582156200013d579182015b828111156200013d57825182559160200191906001019062000120565b506200014b9291506200014f565b5090565b5b808211156200014b576000815560010162000150565b80516001600160a01b03811681146200017e57600080fd5b92915050565b600080600080608085870312156200019a578384fd5b84516001600160401b0380821115620001b1578586fd5b818701915087601f830112620001c5578586fd5b815181811115620001d4578687fd5b620001e9601f8201601f19166020016200024a565b915080825288602082850101111562000200578687fd5b6200021381602084016020860162000271565b50809550505060208501516200022981620002a4565b92506200023a866040870162000166565b6060959095015193969295505050565b6040518181016001600160401b03811182821017156200026957600080fd5b604052919050565b60005b838110156200028e57818101518382015260200162000274565b838111156200029e576000848401525b50505050565b6001600160a01b0381168114620002ba57600080fd5b50565b611c2380620002cd6000396000f3fe608060405234801561001057600080fd5b50600436106100ca5760003560e01c8063ad021f491161007c578063ad021f491461017c578063ae401eb91461018f578063bce66e0a146101b1578063c2939d97146101c6578063db69a462146101ce578063ddca3f43146101d6578063f3881589146101de576100ca565b80631e0ab514146100cf578063558450be146100e4578063792d1d66146100f75780637dc0d1d0146101215780638190f3411461013657806381d12c58146101495780639b45232314610169575b600080fd5b6100e26100dd3660046117d7565b6101e6565b005b6100e26100f23660046117f8565b61049a565b61010a610105366004611774565b61066d565b6040516101189291906119b4565b60405180910390f35b6101296106f6565b60405161011891906118bf565b6100e26101443660046117d7565b610705565b61015c6101573660046117bf565b61085a565b6040516101189190611995565b61010a6101773660046117bf565b610878565b6100e261018a3660046117d7565b610891565b6101a261019d3660046117bf565b610a66565b604051610118939291906119c2565b6101b9610a91565b60405161011891906119e3565b61015c610b1f565b610129610b25565b61015c610b34565b6100e2610b3a565b6009546001600160a01b03163314806102175750610202610b77565b6001600160a01b0316336001600160a01b0316145b61023c5760405162461bcd60e51b815260040161023390611b78565b60405180910390fd5b6102446116ee565b600b546102599030638190f34160e01b610b86565b6009546040516306fe745760e51b815291925060009182916001600160a01b03169063dfce8ae09061028f908890600401611995565b604080518083038186803b1580156102a657600080fd5b505afa1580156102ba573d6000803e3d6000fd5b505050506040513d601f19601f820116820180604052508101906102de919061182f565b91509150610340604051806040016040528060088152602001676a6f625f7479706560c01b815250604051806040016040528060118152602001707075626c6973685f616e616c797469637360781b81525085610bab9092919063ffffffff16565b6103796040518060400160405280600c81526020016b6e6574776f726b5f6e616d6560a01b81525061037186610bce565b859190610bab565b6103a5604051806040016040528060078152602001661dd9595ad7da5960ca1b81525061037187610cdd565b6103de604051806040016040528060148152602001731cdb1857db5bdb9a5d1bdc9a5b99d7dcdd185c9d60621b81525061037184610cdd565b610415604051806040016040528060128152602001711cdb1857db5bdb9a5d1bdc9a5b99d7d95b9960721b81525061037183610cdd565b600a54600c54600091610435916001600160a01b03909116908690610db8565b6008805460018181019092557ff3f7a9fe364faab93b216da50a3214154f22a0a2b415b23a84c8169e8b636ee3018290556040805180820182529788526020888101998a52600093845260079052909120955186559551949095019390935550505050565b6009546001600160a01b03163314806104cb57506104b6610b77565b6001600160a01b0316336001600160a01b0316145b6104e75760405162461bcd60e51b815260040161023390611b78565b6104ef6116ee565b600b54610504903063ad021f4960e01b610b86565b905061055a604051806040016040528060088152602001676a6f625f7479706560c01b815250604051806040016040528060078152602001666765745f736c6960c81b81525083610bab9092919063ffffffff16565b61058e604051806040016040528060078152602001661dd9595ad7da5960ca1b81525061058686610cdd565b839190610bab565b6105be6040518060400160405280600b81526020016a736c615f6164647265737360a81b81525061058685610ef7565b600a54600c546000916105de916001600160a01b03909116908490610db8565b6008805460018082019092557ff3f7a9fe364faab93b216da50a3214154f22a0a2b415b23a84c8169e8b636ee301829055604080516060810182526001600160a01b0397881681526020808201978852818301998a526000948552600690529220915182546001600160a01b031916961695909517815592519383019390935550915160029092019190915550565b600080836001600160a01b031663fc875ece846040518263ffffffff1660e01b815260040161069c9190611995565b604080518083038186803b1580156106b357600080fd5b505afa1580156106c7573d6000803e3d6000fd5b505050506040513d601f19601f820116820180604052508101906106eb919061182f565b909590945092505050565b600a546001600160a01b031681565b60008281526005602052604090205482906001600160a01b0316331461073d5760405162461bcd60e51b815260040161023390611b30565b60008181526005602052604080822080546001600160a01b03191690555182917f7cc135e0cebb02c3480ae5d74d377283180a2601f8f644edf7987b009316c63a91a2610788611723565b5060008381526007602090815260409182902082518084018452815480825260019092015492810183905292517f70017f42b317823f38de5a9362a93665f2cb5b7515ca57a2aea1c9e2b8daca8f926107e39291879061199e565b60405180910390a160095481516020830151604051637b168da360e11b81526001600160a01b039093169263f62d1b469261082292889260040161199e565b600060405180830381600087803b15801561083c57600080fd5b505af1158015610850573d6000803e3d6000fd5b5050505050505050565b6008818154811061086757fe5b600091825260209091200154905081565b6007602052600090815260409020805460019091015482565b60008281526005602052604090205482906001600160a01b031633146108c95760405162461bcd60e51b815260040161023390611b30565b60008181526005602052604080822080546001600160a01b03191690555182917f7cc135e0cebb02c3480ae5d74d377283180a2601f8f644edf7987b009316c63a91a261091461173a565b5060008381526006602090815260409182902082516060808201855282546001600160a01b031682526001830154938201939093526002909101549281019290925261095f84610bce565b905060008061096d83611073565b9092509050600061098183620186a061121d565b9050600061098f8484611260565b9050600061099d8383611285565b90507f8453ee826ffad57f3e57085ee522342ea56186ce46fba314339ff3e7bb73b2c287600001518686848b602001518c604001516040516109e496959493929190611962565b60405180910390a186600001516001600160a01b031663869c39258860200151838a604001516040518463ffffffff1660e01b8152600401610a289392919061199e565b600060405180830381600087803b158015610a4257600080fd5b505af1158015610a56573d6000803e3d6000fd5b5050505050505050505050505050565b6006602052600090815260409020805460018201546002909201546001600160a01b03909116919083565b600d805460408051602060026001851615610100026000190190941693909304601f81018490048402820184019092528181529291830182828015610b175780601f10610aec57610100808354040283529160200191610b17565b820191906000526020600020905b815481529060010190602001808311610afa57829003601f168201915b505050505081565b600b5481565b6009546001600160a01b031681565b600c5481565b6009546001600160a01b031615610b635760405162461bcd60e51b815260040161023390611aa7565b600980546001600160a01b03191633179055565b6003546001600160a01b031690565b610b8e6116ee565b610b966116ee565b610ba2818686866112ba565b95945050505050565b6080830151610bba90836112f7565b6080830151610bc990826112f7565b505050565b606060005b60208160ff16108015610c015750828160ff1660208110610bf057fe5b1a60f81b6001600160f81b03191615155b15610c0e57600101610bd3565b60608160ff1667ffffffffffffffff81118015610c2a57600080fd5b506040519080825280601f01601f191660200182016040528015610c55576020820181803683370190505b509050600091505b60208260ff16108015610c8b5750838260ff1660208110610c7a57fe5b1a60f81b6001600160f81b03191615155b15610cd457838260ff1660208110610c9f57fe5b1a60f81b818360ff1681518110610cb257fe5b60200101906001600160f81b031916908160001a905350600190910190610c5d565b9150505b919050565b60608180610d045750506040805180820190915260018152600360fc1b6020820152610cd8565b8060005b8115610d1c57600101600a82049150610d08565b60608167ffffffffffffffff81118015610d3557600080fd5b506040519080825280601f01601f191660200182016040528015610d60576020820181803683370190505b50905060001982015b8415610dae57600a850660300160f81b82828060019003935081518110610d8c57fe5b60200101906001600160f81b031916908160001a905350600a85049450610d69565b5095945050505050565b600030600454604051602001610dcf92919061189d565b60408051808303601f19018152918152815160209283012060045460608701526000818152600590935281832080546001600160a01b0319166001600160a01b038916179055905190925082917fb5e6e01e79f91267dc17b4e6314d5d4d03593d2ceee0fbb452b750bd70ea5af991a26002546001600160a01b0316634000aea08584610e5b8761130e565b6040518463ffffffff1660e01b8152600401610e799392919061193b565b602060405180830381600087803b158015610e9357600080fd5b505af1158015610ea7573d6000803e3d6000fd5b505050506040513d601f19601f82011682018060405250810190610ecb919061179f565b610ee75760405162461bcd60e51b815260040161023390611a2d565b6004805460010190559392505050565b604080518082018252601081526f181899199a1a9b1b9c1cb0b131b232b360811b60208201528151602a80825260608281019094526001600160a01b03851692918491602082018180368337019050509050600360fc1b81600081518110610f5b57fe5b60200101906001600160f81b031916908160001a905350600f60fb1b81600181518110610f8457fe5b60200101906001600160f81b031916908160001a90535060005b601481101561106a578260048583600c0160208110610fb957fe5b1a60f81b6001600160f81b031916901c60f81c60ff1681518110610fd957fe5b602001015160f81c60f81b828260020260020181518110610ff657fe5b60200101906001600160f81b031916908160001a905350828482600c016020811061101d57fe5b825191901a600f1690811061102e57fe5b602001015160f81c60f81b82826002026003018151811061104b57fe5b60200101906001600160f81b031916908160001a905350600101610f9e565b50949350505050565b80516000908190839060608167ffffffffffffffff8111801561109557600080fd5b506040519080825280601f01601f1916602001820160405280156110c0576020820181803683370190505b50905060608267ffffffffffffffff811180156110dc57600080fd5b506040519080825280601f01601f191660200182016040528015611107576020820181803683370190505b50905060005b838110156111f457600b60fa1b6001600160f81b03191685828151811061113057fe5b01602001516001600160f81b03191614156111ec5760005b818110156111925785818151811061115c57fe5b602001015160f81c60f81b84828151811061117357fe5b60200101906001600160f81b031916908160001a905350600101611148565b5060005b6001828603038110156111ea5785818360010101815181106111b457fe5b602001015160f81c60f81b8382815181106111cb57fe5b60200101906001600160f81b031916908160001a905350600101611196565b505b60010161110d565b5060006112008361138a565b9050600061120d8361138a565b9197509095505050505050915091565b60008261122c5750600061125a565b8282028284828161123957fe5b04146112575760405162461bcd60e51b815260040161023390611aef565b90505b92915050565b6000828201838110156112575760405162461bcd60e51b8152600401610233906119f6565b60008082116112a65760405162461bcd60e51b815260040161023390611a70565b60008284816112b157fe5b04949350505050565b6112c26116ee565b6112d2856080015161010061140a565b50509183526001600160a01b031660208301526001600160e01b031916604082015290565b6113048260038351611444565b610bc9828261151e565b6060634042994660e01b600080846000015185602001518660400151876060015160018960800151600001516040516024016113519897969594939291906118d3565b60408051601f198184030181529190526020810180516001600160e01b03166001600160e01b0319909316929092179091529050919050565b6000805b82518110156114045760308382815181106113a557fe5b016020015160f81c108015906113cf575060398382815181106113c457fe5b016020015160f81c11155b156113fc5760308382815181106113e257fe5b602001015160f81c60f81b60f81c0360ff1682600a020191505b60010161138e565b50919050565b61141261175a565b60208206156114275760208206602003820191505b506020828101829052604080518085526000815290920101905290565b601781116114655761145f8360e0600585901b168317611538565b50610bc9565b60ff811161148f57611482836018611fe0600586901b1617611538565b5061145f83826001611550565b61ffff81116114ba576114ad836019611fe0600586901b1617611538565b5061145f83826002611550565b63ffffffff81116114e7576114da83601a611fe0600586901b1617611538565b5061145f83826004611550565b67ffffffffffffffff8111610bc95761150b83601b611fe0600586901b1617611538565b5061151883826008611550565b50505050565b61152661175a565b61125783846000015151848551611571565b61154061175a565b611257838460000151518461161d565b61155861175a565b611569848560000151518585611668565b949350505050565b61157961175a565b825182111561158757600080fd5b846020015182850111156115b1576115b1856115a987602001518786016116c6565b6002026116d7565b6000808651805187602083010193508088870111156115d05787860182525b505050602084015b602084106115f75780518252601f1990930192602091820191016115d8565b51815160001960208690036101000a019081169019919091161790525083949350505050565b61162561175a565b83602001518310611641576116418485602001516002026116d7565b83518051602085830101848153508085141561165e576001810182525b5093949350505050565b61167061175a565b8460200151848301111561168d5761168d858584016002026116d7565b60006001836101000a0390508551838682010185831982511617815250805184870111156116bb5783860181525b509495945050505050565b60008183111561140457508161125a565b81516116e3838361140a565b50611518838261151e565b6040805160a08101825260008082526020820181905291810182905260608101919091526080810161171e61175a565b905290565b604080518082019091526000808252602082015290565b604080516060810182526000808252602082018190529181019190915290565b604051806040016040528060608152602001600081525090565b60008060408385031215611786578182fd5b823561179181611bd5565b946020939093013593505050565b6000602082840312156117b0578081fd5b81518015158114611257578182fd5b6000602082840312156117d0578081fd5b5035919050565b600080604083850312156117e9578182fd5b50508035926020909101359150565b60008060006060848603121561180c578081fd5b83359250602084013561181e81611bd5565b929592945050506040919091013590565b60008060408385031215611841578182fd5b505080516020909101519092909150565b60008151808452815b818110156118775760208185018101518683018201520161185b565b818111156118885782602083870101525b50601f01601f19169290920160200192915050565b60609290921b6bffffffffffffffffffffffff19168252601482015260340190565b6001600160a01b0391909116815260200190565b6001600160a01b0389811682526020820189905260408201889052861660608201526001600160e01b03198516608082015260a0810184905260c0810183905261010060e0820181905260009061192c83820185611852565b9b9a5050505050505050505050565b600060018060a01b038516825283602083015260606040830152610ba26060830184611852565b6001600160a01b03969096168652602086019490945260408501929092526060840152608083015260a082015260c00190565b90815260200190565b9283526020830191909152604082015260600190565b918252602082015260400190565b6001600160a01b039390931683526020830191909152604082015260600190565b6000602082526112576020830184611852565b6020808252601b908201527f536166654d6174683a206164646974696f6e206f766572666c6f770000000000604082015260600190565b60208082526023908201527f756e61626c6520746f207472616e73666572416e6443616c6c20746f206f7261604082015262636c6560e81b606082015260800190565b6020808252601a908201527f536166654d6174683a206469766973696f6e206279207a65726f000000000000604082015260600190565b60208082526028908201527f534c41526567697374727920616464726573732068617320616c7265616479206040820152671899595b881cd95d60c21b606082015260800190565b60208082526021908201527f536166654d6174683a206d756c7469706c69636174696f6e206f766572666c6f6040820152607760f81b606082015260800190565b60208082526028908201527f536f75726365206d75737420626520746865206f7261636c65206f6620746865604082015267081c995c5d595cdd60c21b606082015260800190565b6020808252603f908201527f43616e206f6e6c792062652063616c6c656420627920636f6e6e65637465642060408201527f534c415265676973747279206f7220436861696e6c696e6b204f7261636c6500606082015260800190565b6001600160a01b0381168114611bea57600080fd5b5056fea264697066735822122059eaca1d106c5e26ee8b9321189ffdc2828c3c4832e1dbd70e8bf01a0d78fc0264736f6c634300060c0033",
  "immutableReferences": {},
  "source": "pragma solidity ^0.6.0;\npragma experimental ABIEncoderV2;\n\nimport \"./SLA/SLA.sol\";\nimport \"./StringUtils.sol\";\nimport \"./SLARegistry.sol\";\nimport \"@chainlink/contracts/src/v0.6/ChainlinkClient.sol\";\n\n/**\n* @title Messenger\n* @notice Messenger is a contract to interact with an Oracle and request SLI information to Stacktical API\non a decentralized fashion. Is not meant to be interacted directly.\n* @dev This contract is attached immediately after deployment to a SLARegistry\n*/\n\ncontract Messenger is ChainlinkClient, StringUtils {\n    struct SLIRequest {\n        SLA sla;\n        bytes32 sloName;\n        uint256 periodId;\n    }\n\n    struct AnalyticsRequest {\n        bytes32 networkName;\n        uint256 weekId;\n    }\n\n    /// @dev Mapping that stores chainlink sli request information\n    mapping(bytes32 => SLIRequest) public requestIdToSLIRequest;\n    /// @dev Mapping that stores chainlink analytics request information\n    mapping(bytes32 => AnalyticsRequest) public requestIdToAnalyticsRequest;\n    /// @dev Array with all request IDs\n    bytes32[] public requests;\n    /// @dev The address of the SLARegistry contract\n    SLARegistry public slaRegistry;\n    /// @dev Chainlink oracle address\n    address public oracle;\n    /// @dev chainlink jobId\n    bytes32 public jobId;\n    /// @dev fee for Chainlink querys. Currently 0.1 LINK\n    uint256 public fee = 0.1 * 10**18;\n    /// @dev api url stated on deployment time\n    string public apiURL = \"\";\n\n    /**\n     * @dev event emitted when having a response from Chainlink with the SLI\n     * @param slaAddress 1. SLA address to store the SLI\n     * @param hits 2. SLI value\n     * @param misses 3. SLI value\n     * @param sliValue 4. SLI value\n     * @param sloName 5. SLO name\n     * @param periodId 6. id of the period\n     */\n    event SLIReceived(\n        address slaAddress,\n        uint256 hits,\n        uint256 misses,\n        uint256 sliValue,\n        bytes32 sloName,\n        uint256 periodId\n    );\n\n    /**\n     * @dev event emitted when having a response from Chainlink with the SLI\n     * @param network 1. network name\n     * @param periodId 2. id of the period\n     * @param ipfsHash 3. hash of the ipfs object\n     */\n    event AnalyticsReceived(\n        bytes32 network,\n        uint256 periodId,\n        bytes32 ipfsHash\n    );\n\n    /**\n     * @dev parameterize the variables according to network\n     * @notice sets the Chainlink parameters (oracle address, token address, jobId) and sets the SLARegistry to 0x0 address\n     * @param _chainlinkOracle the address of the oracle to create requests to\n     * @param _chainlinkToken the address of LINK token contract\n     * @param _jobId the job id for the HTTPGet job\n     */\n    constructor(\n        string memory _apiUrl,\n        address _chainlinkOracle,\n        address _chainlinkToken,\n        bytes32 _jobId\n    ) public {\n        jobId = _jobId;\n        setChainlinkToken(_chainlinkToken);\n        oracle = _chainlinkOracle;\n        apiURL = _apiUrl;\n    }\n\n    /// @dev Throws if called by any address other than the SLARegistry contract or Chainlink Oracle.\n    modifier onlyAllowedAddresses() {\n        require(\n            msg.sender == address(slaRegistry) ||\n                msg.sender == chainlinkOracleAddress(),\n            \"Can only be called by connected SLARegistry or Chainlink Oracle\"\n        );\n        _;\n    }\n\n    /**\n     * @dev sets the SLARegistry contract address and can only be called\n     * once\n     */\n    function setSLARegistry() public {\n        // Only able to trigger this function once\n        require(\n            address(slaRegistry) == address(0),\n            \"SLARegistry address has already been set\"\n        );\n\n        slaRegistry = SLARegistry(msg.sender);\n    }\n\n    /**\n     * @dev creates a ChainLink request to get a new SLI value for the\n     * given params. Can only be called by the SLARegistry contract or Chainlink Oracle.\n     * @param _weekId value of the period id\n     * @param _sla SLA Address\n     * @param _sloName the SLO name to get the SLI value for\n     */\n\n    function requestSLI(\n        uint256 _weekId,\n        SLA _sla,\n        bytes32 _sloName\n    ) public onlyAllowedAddresses {\n        Chainlink.Request memory request =\n            buildChainlinkRequest(\n                jobId,\n                address(this),\n                this.fulfillSLI.selector\n            );\n        request.add(\"job_type\", \"get_sli\");\n        request.add(\"week_id\", _uintToStr(_weekId));\n        request.add(\"sla_address\", _addressToString(address(_sla)));\n\n        // Sends the request with 0.1 LINK to the oracle contract\n        bytes32 requestId = sendChainlinkRequestTo(oracle, request, fee);\n\n        requests.push(requestId);\n\n        requestIdToSLIRequest[requestId] = SLIRequest(\n            _sla,\n            _sloName,\n            _weekId\n        );\n    }\n\n    /**\n     * @dev callback function for the Chainlink SLI request which stores\n     * the SLI in the SLA contract\n     * @param _requestId the ID of the ChainLink request\n     * @param _chainlinkResponse response object from Chainlink Oracles\n     */\n    function fulfillSLI(bytes32 _requestId, bytes32 _chainlinkResponse)\n        public\n        recordChainlinkFulfillment(_requestId)\n    {\n        SLIRequest memory request = requestIdToSLIRequest[_requestId];\n        string memory sliData = _bytes32ToStr(_chainlinkResponse);\n        (uint256 hits, uint256 misses) = _parseSLIData(sliData);\n        uint256 num = hits.mul(100 * 1000);\n        uint256 total = hits.add(misses);\n        uint256 efficiency = num.div(total);\n        emit SLIReceived(\n            address(request.sla),\n            hits,\n            misses,\n            efficiency,\n            request.sloName,\n            request.periodId\n        );\n\n        request.sla.registerSLI(request.sloName, efficiency, request.periodId);\n    }\n\n    /**\n     * @dev creates a ChainLink request to get a new SLI value for the\n     * given params. Can only be called by the SLARegistry contract or Chainlink Oracle.\n     * @param _weekId end of the period\n     * @param _networkName name of the network to get analytics\n     */\n\n    function requestAnalytics(uint256 _weekId, bytes32 _networkName)\n        public\n        onlyAllowedAddresses\n    {\n        Chainlink.Request memory request =\n            buildChainlinkRequest(\n                jobId,\n                address(this),\n                this.fulFillAnalytics.selector\n            );\n\n        (uint256 periodStart, uint256 periodEnd) = slaRegistry.canonicalPeriods(_weekId);\n\n        request.add(\"job_type\", \"publish_analytics\");\n        request.add(\"network_name\", _bytes32ToStr(_networkName));\n        request.add(\"week_id\", _uintToStr(_weekId));\n        request.add(\"sla_monitoring_start\", _uintToStr(periodStart));\n        request.add(\"sla_monitoring_end\", _uintToStr(periodEnd));\n\n        // Sends the request with 0.1 LINK to the oracle contract\n        bytes32 requestId = sendChainlinkRequestTo(oracle, request, fee);\n        requests.push(requestId);\n        requestIdToAnalyticsRequest[requestId] = AnalyticsRequest(\n            _networkName,\n            _weekId\n        );\n    }\n\n    /**\n     * @dev callback function for the Chainlink SLI request which stores\n     * the SLI in the SLA contract\n     * @param _requestId the ID of the ChainLink request\n     * @param _chainlinkResponse response object from Chainlink Oracles\n     */\n    function fulFillAnalytics(bytes32 _requestId, bytes32 _chainlinkResponse)\n        public\n        recordChainlinkFulfillment(_requestId)\n    {\n        AnalyticsRequest memory request =\n            requestIdToAnalyticsRequest[_requestId];\n\n        emit AnalyticsReceived(request.networkName, request.weekId, _chainlinkResponse);\n\n        slaRegistry.publishAnalyticsHash(\n            _chainlinkResponse,\n            request.networkName,\n            request.weekId\n        );\n    }\n\n    /**\n     * @dev gets the start and end of a given SLA on a given period\n     * @param _slaAddress address of the SLA Contract\n     * @param _periodId id of the period\n     */\n    function getPeriod(address _slaAddress, uint256 _periodId)\n        public\n        view\n        returns (uint256 start, uint256 end)\n    {\n        (start, end) = SLA(_slaAddress).getPeriodData(_periodId);\n    }\n}\n",
  "sourcePath": "/Users/matiasbn/Desktop/stacktical/stacktical-dsla-contracts/contracts/Messenger.sol",
  "compiler": {
    "name": "solc",
    "version": "0.6.12+commit.27d51765.Emscripten.clang"
  },
  "schemaVersion": "3.2.5",
  "updatedAt": "2021-01-28T21:14:43.199Z",
  "networkType": "ethereum",
  "devdoc": {
    "details": "This contract is attached immediately after deployment to a SLARegistry",
    "events": {
      "AnalyticsReceived(bytes32,uint256,bytes32)": {
        "details": "event emitted when having a response from Chainlink with the SLI",
        "params": {
          "ipfsHash": "3. hash of the ipfs object",
          "network": "1. network name",
          "periodId": "2. id of the period"
        }
      },
      "SLIReceived(address,uint256,uint256,uint256,bytes32,uint256)": {
        "details": "event emitted when having a response from Chainlink with the SLI",
        "params": {
          "hits": "2. SLI value",
          "misses": "3. SLI value",
          "periodId": "6. id of the period",
          "slaAddress": "1. SLA address to store the SLI",
          "sliValue": "4. SLI value",
          "sloName": "5. SLO name"
        }
      }
    },
    "kind": "dev",
    "methods": {
      "constructor": {
        "details": "parameterize the variables according to network",
        "params": {
          "_chainlinkOracle": "the address of the oracle to create requests to",
          "_chainlinkToken": "the address of LINK token contract",
          "_jobId": "the job id for the HTTPGet job"
        }
      },
      "fulFillAnalytics(bytes32,bytes32)": {
        "details": "callback function for the Chainlink SLI request which stores the SLI in the SLA contract",
        "params": {
          "_chainlinkResponse": "response object from Chainlink Oracles",
          "_requestId": "the ID of the ChainLink request"
        }
      },
      "fulfillSLI(bytes32,bytes32)": {
        "details": "callback function for the Chainlink SLI request which stores the SLI in the SLA contract",
        "params": {
          "_chainlinkResponse": "response object from Chainlink Oracles",
          "_requestId": "the ID of the ChainLink request"
        }
      },
      "getPeriod(address,uint256)": {
        "details": "gets the start and end of a given SLA on a given period",
        "params": {
          "_periodId": "id of the period",
          "_slaAddress": "address of the SLA Contract"
        }
      },
      "requestAnalytics(uint256,bytes32)": {
        "details": "creates a ChainLink request to get a new SLI value for the given params. Can only be called by the SLARegistry contract or Chainlink Oracle.",
        "params": {
          "_networkName": "name of the network to get analytics",
          "_weekId": "end of the period"
        }
      },
      "requestSLI(uint256,address,bytes32)": {
        "details": "creates a ChainLink request to get a new SLI value for the given params. Can only be called by the SLARegistry contract or Chainlink Oracle.",
        "params": {
          "_sla": "SLA Address",
          "_sloName": "the SLO name to get the SLI value for",
          "_weekId": "value of the period id"
        }
      },
      "setSLARegistry()": {
        "details": "sets the SLARegistry contract address and can only be called once"
      }
    },
    "stateVariables": {
      "apiURL": {
        "details": "api url stated on deployment time"
      },
      "fee": {
        "details": "fee for Chainlink querys. Currently 0.1 LINK"
      },
      "jobId": {
        "details": "chainlink jobId"
      },
      "oracle": {
        "details": "Chainlink oracle address"
      },
      "requestIdToAnalyticsRequest": {
        "details": "Mapping that stores chainlink analytics request information"
      },
      "requestIdToSLIRequest": {
        "details": "Mapping that stores chainlink sli request information"
      },
      "requests": {
        "details": "Array with all request IDs"
      },
      "slaRegistry": {
        "details": "The address of the SLARegistry contract"
      }
    },
    "title": "Messenger",
    "version": 1
  },
  "userdoc": {
    "kind": "user",
    "methods": {
      "constructor": "sets the Chainlink parameters (oracle address, token address, jobId) and sets the SLARegistry to 0x0 address"
    },
    "notice": "Messenger is a contract to interact with an Oracle and request SLI information to Stacktical API on a decentralized fashion. Is not meant to be interacted directly.",
    "version": 1
  }
}