{
  "contractName": "MinimalSLA",
  "abi": [
    {
      "inputs": [
        {
          "internalType": "uint256",
          "name": "_sla_period_start",
          "type": "uint256"
        },
        {
          "internalType": "uint256",
          "name": "_sla_period_end",
          "type": "uint256"
        }
      ],
      "stateMutability": "nonpayable",
      "type": "constructor"
    },
    {
      "anonymous": false,
      "inputs": [
        {
          "indexed": false,
          "internalType": "uint256",
          "name": "_timestamp",
          "type": "uint256"
        },
        {
          "indexed": false,
          "internalType": "uint256",
          "name": "_value",
          "type": "uint256"
        },
        {
          "indexed": false,
          "internalType": "uint256",
          "name": "_periodId",
          "type": "uint256"
        }
      ],
      "name": "SLICreated",
      "type": "event"
    },
    {
      "inputs": [
        {
          "internalType": "bytes32",
          "name": "",
          "type": "bytes32"
        },
        {
          "internalType": "uint256",
          "name": "",
          "type": "uint256"
        }
      ],
      "name": "SLIs",
      "outputs": [
        {
          "internalType": "uint256",
          "name": "timestamp",
          "type": "uint256"
        },
        {
          "internalType": "uint256",
          "name": "value",
          "type": "uint256"
        },
        {
          "internalType": "uint256",
          "name": "periodId",
          "type": "uint256"
        }
      ],
      "stateMutability": "view",
      "type": "function"
    },
    {
      "inputs": [
        {
          "internalType": "uint256",
          "name": "",
          "type": "uint256"
        }
      ],
      "name": "periods",
      "outputs": [
        {
          "internalType": "uint256",
          "name": "sla_period_start",
          "type": "uint256"
        },
        {
          "internalType": "uint256",
          "name": "sla_period_end",
          "type": "uint256"
        },
        {
          "internalType": "uint256",
          "name": "claimed_reward",
          "type": "uint256"
        },
        {
          "internalType": "bool",
          "name": "claimed",
          "type": "bool"
        },
        {
          "internalType": "enum MinimalSLA.Status",
          "name": "status",
          "type": "uint8"
        }
      ],
      "stateMutability": "view",
      "type": "function"
    },
    {
      "inputs": [
        {
          "internalType": "bytes32",
          "name": "_SLOName",
          "type": "bytes32"
        },
        {
          "internalType": "uint256",
          "name": "_value",
          "type": "uint256"
        },
        {
          "internalType": "uint256",
          "name": "_period",
          "type": "uint256"
        }
      ],
      "name": "registerSLI",
      "outputs": [],
      "stateMutability": "nonpayable",
      "type": "function"
    },
    {
      "inputs": [
        {
          "internalType": "uint256",
          "name": "_periodId",
          "type": "uint256"
        }
      ],
      "name": "getPeriodData",
      "outputs": [
        {
          "internalType": "uint256",
          "name": "periodStart",
          "type": "uint256"
        },
        {
          "internalType": "uint256",
          "name": "periodEnd",
          "type": "uint256"
        }
      ],
      "stateMutability": "view",
      "type": "function"
    }
  ],
  "bytecode": "0x608060405234801561001057600080fd5b506040516104a23803806104a28339818101604052604081101561003357600080fd5b508051602090910151610044610170565b6040518060a00160405280848152602001838152602001600081526020016000151581526020016000600281111561007857fe5b905260008054600181018255908052815160069091027f290decd9548b62a8d60345a988386fc84ba6bc95484008f6362f93160ef3e563810191825560208301517f290decd9548b62a8d60345a988386fc84ba6bc95484008f6362f93160ef3e56482015560408301517f290decd9548b62a8d60345a988386fc84ba6bc95484008f6362f93160ef3e56582015560608301517f290decd9548b62a8d60345a988386fc84ba6bc95484008f6362f93160ef3e566909101805491151560ff199092169190911780825560808401519394508493919061ff00191661010083600281111561016157fe5b021790555050505050506101ab565b6040518060a00160405280600081526020016000815260200160008152602001600015158152602001600060028111156101a657fe5b905290565b6102e8806101ba6000396000f3fe608060405234801561001057600080fd5b506004361061004c5760003560e01c8063869c39251461005157806394199c611461007c578063ea4a1104146100bd578063fc875ece14610119575b600080fd5b61007a6004803603606081101561006757600080fd5b508035906020810135906040013561014f565b005b61009f6004803603604081101561009257600080fd5b50803590602001356101e6565b60408051938452602084019290925282820152519081900360600190f35b6100da600480360360208110156100d357600080fd5b5035610225565b60405180868152602001858152602001848152602001831515815260200182600281111561010457fe5b81526020019550505050505060405180910390f35b6101366004803603602081101561012f57600080fd5b5035610268565b6040805192835260208301919091528051918290030190f35b6000838152600160208181526040808420815160608082018452428083528286018a81528386018a81528554808a018755958a52988790209351600390950290930193845591519583019590955594516002909101558051938452908301859052828101849052517fc95987c1992805ee34bdc915e017cceae36ba1c156b9911fa7e691e6435eb46e9281900390910190a1505050565b600160205281600052604060002081815481106101ff57fe5b600091825260209091206003909102018054600182015460029092015490935090915083565b6000818154811061023257fe5b60009182526020909120600690910201805460018201546002830154600390930154919350919060ff8082169161010090041685565b6000806000838154811061027857fe5b9060005260206000209060060201600001546000848154811061029757fe5b9060005260206000209060060201600101549150915091509156fea26469706673582212202a70ff5be879de577460d1ea6e031940d3f5ca2e15b0b8105b062504afdcb7aa64736f6c634300060c0033",
  "immutableReferences": {},
  "source": "pragma solidity ^0.6.0;\n\n/**\n * @dev Minimal implementation os SLA contract for the Messenger contract,\n * to test inter contract interaction without dealing with the SLA deployment\n * overhead.\n */\n\ncontract MinimalSLA {\n    enum Status {NotVerified, Respected, NotRespected}\n\n    struct Period {\n        uint256 sla_period_start;\n        uint256 sla_period_end;\n        uint256 claimed_reward;\n        bool claimed;\n        Status status;\n        mapping(address => mapping(address => uint256)) stakingBalance; // staking balance for all tokens (address token => (address user => amount))\n        mapping(address => uint256) claimed_compensation;\n    }\n    Period[] public periods; // all periods for an SLA\n\n    // Struct used for storing registered SLI's\n    struct SLI {\n        uint256 timestamp;\n        uint256 value;\n        uint256 periodId;\n    }\n\n    // Mapping to get SLI structs from SLO names in bytes32\n    mapping(bytes32 => SLI[]) public SLIs;\n\n    /**\n     * @dev event for SLI creation logging\n     * @param _timestamp the time the SLI has been registered\n     * @param _value the value of the SLI\n     * @param _periodId the id of the given period\n     */\n    event SLICreated(uint256 _timestamp, uint256 _value, uint256 _periodId);\n\n    /**\n     * @dev constructor add a Period at deployment time\n     * start 1577836800000000000\n     * end 1594026520000000000\n     */\n    constructor(uint256 _sla_period_start, uint256 _sla_period_end) public {\n        Period memory period =\n            Period({\n                sla_period_start: _sla_period_start,\n                sla_period_end: _sla_period_end,\n                claimed_reward: 0,\n                claimed: false,\n                status: Status.NotVerified\n            });\n        periods.push(period);\n    }\n\n    /**\n     * @dev external function to register SLI's and check them against the SLO's\n     * @param _SLOName the name of the SLO in bytes32\n     * @param _value the value of the SLI to check\n     * @param _period the id of the given period\n     */\n    function registerSLI(\n        bytes32 _SLOName,\n        uint256 _value,\n        uint256 _period\n    ) external {\n        SLIs[_SLOName].push(SLI(block.timestamp, _value, _period));\n\n        emit SLICreated(block.timestamp, _value, _period);\n    }\n\n    /**\n     * @dev function to get a period start and end\n     * @param _periodId the id of the period to get data\n     */\n    function getPeriodData(uint256 _periodId)\n        public\n        view\n        returns (uint256 periodStart, uint256 periodEnd)\n    {\n        return (\n            periods[_periodId].sla_period_start,\n            periods[_periodId].sla_period_end\n        );\n    }\n}\n",
  "sourcePath": "/Users/matiasbn/Desktop/stacktical-dsla-contracts/contracts/testing/MinimalSLA.sol",
  "compiler": {
    "name": "solc",
    "version": "0.6.12+commit.27d51765.Emscripten.clang"
  },
  "schemaVersion": "3.2.5",
  "updatedAt": "2020-12-11T14:54:21.905Z",
  "devdoc": {
    "details": "Minimal implementation os SLA contract for the Messenger contract, to test inter contract interaction without dealing with the SLA deployment overhead.",
    "events": {
      "SLICreated(uint256,uint256,uint256)": {
        "details": "event for SLI creation logging",
        "params": {
          "_periodId": "the id of the given period",
          "_timestamp": "the time the SLI has been registered",
          "_value": "the value of the SLI"
        }
      }
    },
    "kind": "dev",
    "methods": {
      "constructor": {
        "details": "constructor add a Period at deployment time start 1577836800000000000 end 1594026520000000000"
      },
      "getPeriodData(uint256)": {
        "details": "function to get a period start and end",
        "params": {
          "_periodId": "the id of the period to get data"
        }
      },
      "registerSLI(bytes32,uint256,uint256)": {
        "details": "external function to register SLI's and check them against the SLO's",
        "params": {
          "_SLOName": "the name of the SLO in bytes32",
          "_period": "the id of the given period",
          "_value": "the value of the SLI to check"
        }
      }
    },
    "version": 1
  },
  "userdoc": {
    "kind": "user",
    "methods": {},
    "version": 1
  }
}