{
  "contractName": "NetworkAnalytics",
  "abi": [
    {
      "inputs": [
        {
          "internalType": "address",
          "name": "_chainlinkOracle",
          "type": "address"
        },
        {
          "internalType": "address",
          "name": "_chainlinkToken",
          "type": "address"
        },
        {
          "internalType": "bytes32",
          "name": "_jobId",
          "type": "bytes32"
        },
        {
          "internalType": "contract PeriodRegistry",
          "name": "_periodRegistry",
          "type": "address"
        },
        {
          "internalType": "contract StakeRegistry",
          "name": "_stakeRegistry",
          "type": "address"
        },
        {
          "internalType": "uint256",
          "name": "_feeMultiplier",
          "type": "uint256"
        }
      ],
      "stateMutability": "nonpayable",
      "type": "constructor"
    },
    {
      "anonymous": false,
      "inputs": [
        {
          "indexed": false,
          "internalType": "bytes32",
          "name": "networkName",
          "type": "bytes32"
        },
        {
          "indexed": false,
          "internalType": "enum PeriodRegistry.PeriodType",
          "name": "periodType",
          "type": "uint8"
        },
        {
          "indexed": false,
          "internalType": "uint256",
          "name": "periodId",
          "type": "uint256"
        },
        {
          "indexed": false,
          "internalType": "bytes32",
          "name": "ipfsHash",
          "type": "bytes32"
        }
      ],
      "name": "AnalyticsReceived",
      "type": "event"
    },
    {
      "anonymous": false,
      "inputs": [
        {
          "indexed": true,
          "internalType": "address",
          "name": "owner",
          "type": "address"
        },
        {
          "indexed": false,
          "internalType": "uint256",
          "name": "newValue",
          "type": "uint256"
        }
      ],
      "name": "CallerRewardModified",
      "type": "event"
    },
    {
      "anonymous": false,
      "inputs": [
        {
          "indexed": true,
          "internalType": "bytes32",
          "name": "id",
          "type": "bytes32"
        }
      ],
      "name": "ChainlinkCancelled",
      "type": "event"
    },
    {
      "anonymous": false,
      "inputs": [
        {
          "indexed": true,
          "internalType": "bytes32",
          "name": "id",
          "type": "bytes32"
        }
      ],
      "name": "ChainlinkFulfilled",
      "type": "event"
    },
    {
      "anonymous": false,
      "inputs": [
        {
          "indexed": true,
          "internalType": "bytes32",
          "name": "id",
          "type": "bytes32"
        }
      ],
      "name": "ChainlinkRequested",
      "type": "event"
    },
    {
      "anonymous": false,
      "inputs": [
        {
          "indexed": true,
          "internalType": "address",
          "name": "owner",
          "type": "address"
        },
        {
          "indexed": false,
          "internalType": "bytes32",
          "name": "jobId",
          "type": "bytes32"
        },
        {
          "indexed": false,
          "internalType": "uint256",
          "name": "fee",
          "type": "uint256"
        }
      ],
      "name": "JobIdModified",
      "type": "event"
    },
    {
      "anonymous": false,
      "inputs": [
        {
          "indexed": true,
          "internalType": "address",
          "name": "previousOwner",
          "type": "address"
        },
        {
          "indexed": true,
          "internalType": "address",
          "name": "newOwner",
          "type": "address"
        }
      ],
      "name": "OwnershipTransferred",
      "type": "event"
    },
    {
      "inputs": [],
      "name": "fee",
      "outputs": [
        {
          "internalType": "uint256",
          "name": "",
          "type": "uint256"
        }
      ],
      "stateMutability": "view",
      "type": "function"
    },
    {
      "inputs": [
        {
          "internalType": "uint256",
          "name": "",
          "type": "uint256"
        }
      ],
      "name": "networkNames",
      "outputs": [
        {
          "internalType": "bytes32",
          "name": "",
          "type": "bytes32"
        }
      ],
      "stateMutability": "view",
      "type": "function"
    },
    {
      "inputs": [],
      "name": "owner",
      "outputs": [
        {
          "internalType": "address",
          "name": "",
          "type": "address"
        }
      ],
      "stateMutability": "view",
      "type": "function"
    },
    {
      "inputs": [
        {
          "internalType": "bytes32",
          "name": "",
          "type": "bytes32"
        },
        {
          "internalType": "enum PeriodRegistry.PeriodType",
          "name": "",
          "type": "uint8"
        },
        {
          "internalType": "uint256",
          "name": "",
          "type": "uint256"
        }
      ],
      "name": "periodAnalytics",
      "outputs": [
        {
          "internalType": "bytes32",
          "name": "",
          "type": "bytes32"
        }
      ],
      "stateMutability": "view",
      "type": "function"
    },
    {
      "inputs": [
        {
          "internalType": "bytes32",
          "name": "",
          "type": "bytes32"
        },
        {
          "internalType": "enum PeriodRegistry.PeriodType",
          "name": "",
          "type": "uint8"
        },
        {
          "internalType": "uint256",
          "name": "",
          "type": "uint256"
        }
      ],
      "name": "periodAnalyticsRequested",
      "outputs": [
        {
          "internalType": "bool",
          "name": "",
          "type": "bool"
        }
      ],
      "stateMutability": "view",
      "type": "function"
    },
    {
      "inputs": [],
      "name": "renounceOwnership",
      "outputs": [],
      "stateMutability": "nonpayable",
      "type": "function"
    },
    {
      "inputs": [
        {
          "internalType": "bytes32",
          "name": "",
          "type": "bytes32"
        }
      ],
      "name": "requestIdToAnalyticsRequest",
      "outputs": [
        {
          "internalType": "bytes32",
          "name": "networkName",
          "type": "bytes32"
        },
        {
          "internalType": "uint256",
          "name": "periodId",
          "type": "uint256"
        },
        {
          "internalType": "enum PeriodRegistry.PeriodType",
          "name": "periodType",
          "type": "uint8"
        }
      ],
      "stateMutability": "view",
      "type": "function"
    },
    {
      "inputs": [
        {
          "internalType": "uint256",
          "name": "",
          "type": "uint256"
        }
      ],
      "name": "requests",
      "outputs": [
        {
          "internalType": "bytes32",
          "name": "",
          "type": "bytes32"
        }
      ],
      "stateMutability": "view",
      "type": "function"
    },
    {
      "inputs": [
        {
          "internalType": "address",
          "name": "newOwner",
          "type": "address"
        }
      ],
      "name": "transferOwnership",
      "outputs": [],
      "stateMutability": "nonpayable",
      "type": "function"
    },
    {
      "inputs": [
        {
          "internalType": "bytes32",
          "name": "_networkName",
          "type": "bytes32"
        }
      ],
      "name": "isValidNetwork",
      "outputs": [
        {
          "internalType": "bool",
          "name": "",
          "type": "bool"
        }
      ],
      "stateMutability": "view",
      "type": "function"
    },
    {
      "inputs": [
        {
          "internalType": "bytes32",
          "name": "_networkName",
          "type": "bytes32"
        }
      ],
      "name": "addNetwork",
      "outputs": [
        {
          "internalType": "bool",
          "name": "",
          "type": "bool"
        }
      ],
      "stateMutability": "nonpayable",
      "type": "function"
    },
    {
      "inputs": [
        {
          "internalType": "bytes32[]",
          "name": "_networkNames",
          "type": "bytes32[]"
        }
      ],
      "name": "addMultipleNetworks",
      "outputs": [
        {
          "internalType": "bool",
          "name": "",
          "type": "bool"
        }
      ],
      "stateMutability": "nonpayable",
      "type": "function"
    },
    {
      "inputs": [
        {
          "internalType": "uint256",
          "name": "_periodId",
          "type": "uint256"
        },
        {
          "internalType": "enum PeriodRegistry.PeriodType",
          "name": "_periodType",
          "type": "uint8"
        },
        {
          "internalType": "bytes32",
          "name": "_networkName",
          "type": "bytes32"
        },
        {
          "internalType": "bool",
          "name": "_ownerApproval",
          "type": "bool"
        }
      ],
      "name": "requestAnalytics",
      "outputs": [],
      "stateMutability": "nonpayable",
      "type": "function"
    },
    {
      "inputs": [
        {
          "internalType": "bytes32",
          "name": "_requestId",
          "type": "bytes32"
        },
        {
          "internalType": "bytes32",
          "name": "_chainlinkResponse",
          "type": "bytes32"
        }
      ],
      "name": "fulFillAnalytics",
      "outputs": [],
      "stateMutability": "nonpayable",
      "type": "function"
    },
    {
      "inputs": [
        {
          "internalType": "bytes32",
          "name": "_jobId",
          "type": "bytes32"
        },
        {
          "internalType": "uint256",
          "name": "_feeMultiplier",
          "type": "uint256"
        }
      ],
      "name": "setChainlinkJobID",
      "outputs": [],
      "stateMutability": "nonpayable",
      "type": "function"
    },
    {
      "inputs": [],
      "name": "getNetworkNames",
      "outputs": [
        {
          "internalType": "bytes32[]",
          "name": "networks",
          "type": "bytes32[]"
        }
      ],
      "stateMutability": "view",
      "type": "function"
    }
  ],
  "bytecode": "0x6080604052600160055567016345785d8a00006010553480156200002257600080fd5b506040516200201b3803806200201b83398101604081905262000045916200019f565b60006200005a6001600160e01b036200012716565b600080546001600160a01b0319166001600160a01b0383169081178255604051929350917f8be0079c531659141344cd1fd0a4f28419497f9722a3daafe3b4186f6b6457e0908290a350600f849055620000bd856001600160e01b036200012b16565b600e80546001600160a01b03199081166001600160a01b038981169190911790925560078054821686841617905560088054909116918416919091179055601054620001179082906200014d602090811b62000cef17901c565b6011555062000274945050505050565b3390565b600380546001600160a01b0319166001600160a01b0392909216919091179055565b6000826200015e5750600062000199565b828202828482816200016c57fe5b0414620001965760405162461bcd60e51b81526004016200018d906200021a565b60405180910390fd5b90505b92915050565b60008060008060008060c08789031215620001b8578182fd5b8651620001c5816200025b565b6020880151909650620001d8816200025b565b604088015160608901519196509450620001f2816200025b565b608088015190935062000205816200025b565b8092505060a087015190509295509295509295565b60208082526021908201527f536166654d6174683a206d756c7469706c69636174696f6e206f766572666c6f6040820152607760f81b606082015260800190565b6001600160a01b03811681146200027157600080fd5b50565b611d9780620002846000396000f3fe608060405234801561001057600080fd5b50600436106100df5760003560e01c806381d12c581161008757806381d12c58146101985780638da5cb5b146101ab5780639b452323146101c0578063a0a2f054146101e2578063ae382f49146101f5578063ddca3f4314610208578063e1dd46a114610210578063f2fde38b14610223576100df565b8062213504146100e457806317c6066f1461010d578063292733bf146101205780633e68ac681461013557806368fe2cdd14610148578063715018a61461015d5780637e0ce269146101655780638190f34114610185575b600080fd5b6100f76100f23660046116fe565b610236565b60405161010491906119e5565b60405180910390f35b6100f761011b366004611786565b6102e5565b61013361012e36600461179e565b61037d565b005b6100f76101433660046117bf565b61040e565b610150610434565b60405161010491906119a1565b61013361048c565b6101786101733660046117bf565b61050b565b60405161010491906119f0565b61013361019336600461179e565b61052e565b6101786101a6366004611786565b6106a8565b6101b36106c6565b60405161010491906118da565b6101d36101ce366004611786565b6106d5565b60405161010493929190611a33565b6101786101f0366004611786565b6106f9565b6101336102033660046117f6565b610706565b610178610be7565b6100f761021e366004611786565b610bed565b6101336102313660046116d7565b610c35565b6000610240610ceb565b6000546001600160a01b039081169116146102765760405162461bcd60e51b815260040161026d90611bb4565b60405180910390fd5b60005b828110156102d95761029c84848381811061029057fe5b90506020020135610bed565b6102d15760098484838181106102ae57fe5b835460018101855560009485526020948590209190940292909201359190920155505b600101610279565b50600090505b92915050565b60006102ef610ceb565b6000546001600160a01b0390811691161461031c5760405162461bcd60e51b815260040161026d90611bb4565b61032582610bed565b156103425760405162461bcd60e51b815260040161026d90611b05565b506009805460018101825560009182527f6e1540171b6c0c960b71a7020d9f60077f6af931a8bbf590da0223dacf75c7af018290555b919050565b610385610ceb565b6000546001600160a01b039081169116146103b25760405162461bcd60e51b815260040161026d90611bb4565b600f8290556010546103cb90829063ffffffff610cef16565b601181905560405133917f8e7e22d2820965fa1a8fa3ad76db76127e2f1baaf65f50c4e267f28b2254f7cb91610402918691611a25565b60405180910390a25050565b600b60209081526000938452604080852082529284528284209052825290205460ff1681565b6060600980548060200260200160405190810160405280929190818152602001828054801561048257602002820191906000526020600020905b81548152602001906001019080831161046e575b5050505050905090565b610494610ceb565b6000546001600160a01b039081169116146104c15760405162461bcd60e51b815260040161026d90611bb4565b600080546040516001600160a01b03909116907f8be0079c531659141344cd1fd0a4f28419497f9722a3daafe3b4186f6b6457e0908390a3600080546001600160a01b0319169055565b600a60209081526000938452604080852082529284528284209052825290205481565b60008281526006602052604090205482906001600160a01b031633146105665760405162461bcd60e51b815260040161026d90611c85565b60008181526006602052604080822080546001600160a01b03191690555182917f7cc135e0cebb02c3480ae5d74d377283180a2601f8f644edf7987b009316c63a91a26105b1611670565b6000848152600c60209081526040918290208251606081018452815481526001820154928101929092526002810154919290919083019060ff1660058111156105f657fe5b600581111561060157fe5b9052508051604080830151602084015191519394507fe2f11ee4299271d2204416b3f4f0ebd793470db5409b363f09f36ff3d0f095049361064593929088906119f9565b60405180910390a180516000908152600a602052604080822090830151859290600581111561067057fe5b600581111561067b57fe5b81526020019081526020016000206000836020015181526020019081526020016000208190555050505050565b600d81815481106106b557fe5b600091825260209091200154905081565b6000546001600160a01b031690565b600c6020526000908152604090208054600182015460029092015490919060ff1683565b600981815481106106b557fe5b61070f82610bed565b61072b5760405162461bcd60e51b815260040161026d90611c20565b6007546040516331edb3ad60e21b81526000916001600160a01b03169063c7b6ceb49061075e9087908990600401611a4e565b60206040518083038186803b15801561077657600080fd5b505afa15801561078a573d6000803e3d6000fd5b505050506040513d601f19601f820116820180604052508101906107ae919061176a565b90506001811515146107d25760405162461bcd60e51b815260040161026d90611b3c565b6000838152600b60205260408120908560058111156107ed57fe5b60058111156107f857fe5b81526020808201929092526040908101600090812088825290925290205460ff16156108365760405162461bcd60e51b815260040161026d90611be9565b811561086f5761086a6108476106c6565b30601154610853610d30565b6001600160a01b031692919063ffffffff610d3f16565b61087f565b61087f3330601154610853610d30565b610887611691565b600f5461089c9030638190f34160e01b610d9d565b60075460405160016259edcb60e01b0319815291925060009182916001600160a01b03169063ffa61235906108d7908a908c90600401611a4e565b604080518083038186803b1580156108ee57600080fd5b505afa158015610902573d6000803e3d6000fd5b505050506040513d601f19601f82011682018060405250810190610926919061183f565b91509150610994604051806040016040528060088152602001676a6f625f7479706560c01b8152506040518060400160405280601c81526020017f7374616b696e675f656666696369656e63795f616e616c79746963730000000081525085610dc89092919063ffffffff16565b6109d36040518060400160405280600c81526020016b6e6574776f726b5f6e616d6560a01b8152506109c588610df7565b85919063ffffffff610dc816565b610a01604051806040016040528060098152602001681c195c9a5bd917da5960ba1b8152506109c58a610efd565b610a3f6040518060400160405280600b81526020016a706572696f645f7479706560a81b8152506109c5896005811115610a3757fe5b60ff16610efd565b610a78604051806040016040528060148152602001731cdb1857db5bdb9a5d1bdc9a5b99d7dcdd185c9d60621b8152506109c584610efd565b610aaf604051806040016040528060128152602001711cdb1857db5bdb9a5d1bdc9a5b99d7d95b9960721b8152506109c583610efd565b600e54601154600091610acf916001600160a01b03909116908690610fd8565b600d80546001810182556000919091527fd7b6990105719101dabeb77144f2a3385c8033acd3af97e9423a695e81ad1eb50181905560408051606081018252898152602081018c90529192508101896005811115610b2957fe5b815250600c6000838152602001908152602001600020600082015181600001556020820151816001015560408201518160020160006101000a81548160ff02191690836005811115610b7757fe5b021790555050506000878152600b602052604081206001918a6005811115610b9b57fe5b6005811115610ba657fe5b815260200190815260200160002060008b815260200190815260200160002060006101000a81548160ff021916908315150217905550505050505050505050565b60115481565b6000805b600954811015610c2c578260098281548110610c0957fe5b90600052602060002001541415610c24576001915050610378565b600101610bf1565b50600092915050565b610c3d610ceb565b6000546001600160a01b03908116911614610c6a5760405162461bcd60e51b815260040161026d90611bb4565b6001600160a01b038116610c905760405162461bcd60e51b815260040161026d90611a7c565b600080546040516001600160a01b03808516939216917f8be0079c531659141344cd1fd0a4f28419497f9722a3daafe3b4186f6b6457e091a3600080546001600160a01b0319166001600160a01b0392909216919091179055565b3390565b600082610cfe575060006102df565b82820282848281610d0b57fe5b0414610d295760405162461bcd60e51b815260040161026d90611b73565b9392505050565b6003546001600160a01b031690565b610d97846323b872dd60e01b858585604051602401610d60939291906118ee565b60408051601f198184030181529190526020810180516001600160e01b03166001600160e01b031990931692909217909152611117565b50505050565b610da5611691565b610dad611691565b610dbf8186868663ffffffff6111a616565b95945050505050565b6080830151610ddd908363ffffffff6111ec16565b6080830151610df2908263ffffffff6111ec16565b505050565b606060005b60208160ff16108015610e2a5750828160ff1660208110610e1957fe5b1a60f81b6001600160f81b03191615155b15610e3757600101610dfc565b60608160ff1667ffffffffffffffff81118015610e5357600080fd5b506040519080825280601f01601f191660200182016040528015610e7e576020820181803683370190505b509050600091505b60208260ff16108015610eb45750838260ff1660208110610ea357fe5b1a60f81b6001600160f81b03191615155b15610d2957838260ff1660208110610ec857fe5b1a60f81b818360ff1681518110610edb57fe5b60200101906001600160f81b031916908160001a905350600190910190610e86565b60608180610f245750506040805180820190915260018152600360fc1b6020820152610378565b8060005b8115610f3c57600101600a82049150610f28565b60608167ffffffffffffffff81118015610f5557600080fd5b506040519080825280601f01601f191660200182016040528015610f80576020820181803683370190505b50905060001982015b8415610fce57600a850660300160f81b82828060019003935081518110610fac57fe5b60200101906001600160f81b031916908160001a905350600a85049450610f89565b5095945050505050565b600030600554604051602001610fef9291906118b8565b60408051808303601f19018152918152815160209283012060055460608701526000818152600690935281832080546001600160a01b0319166001600160a01b038916179055905190925082917fb5e6e01e79f91267dc17b4e6314d5d4d03593d2ceee0fbb452b750bd70ea5af991a26003546001600160a01b0316634000aea0858461107b87611209565b6040518463ffffffff1660e01b81526004016110999392919061197a565b602060405180830381600087803b1580156110b357600080fd5b505af11580156110c7573d6000803e3d6000fd5b505050506040513d601f19601f820116820180604052508101906110eb919061176a565b6111075760405162461bcd60e51b815260040161026d90611ac2565b6005805460010190559392505050565b606061116c826040518060400160405280602081526020017f5361666545524332303a206c6f772d6c6576656c2063616c6c206661696c6564815250856001600160a01b03166112859092919063ffffffff16565b805190915015610df2578080602001905181019061118a919061176a565b610df25760405162461bcd60e51b815260040161026d90611ccd565b6111ae611691565b6111be8560800151610100611294565b50508284526001600160a01b03821660208501526001600160e01b031981166040850152835b949350505050565b6111f982600383516112ce565b610df2828263ffffffff6113d816565b6060634042994660e01b6000808460000151856020015186604001518760600151600189608001516000015160405160240161124c989796959493929190611912565b60408051601f198184030181529190526020810180516001600160e01b03166001600160e01b0319909316929092179091529050919050565b60606111e484846000856113f2565b61129c6116bd565b60208206156112b15760208206602003820191505b506020828101829052604080518085526000815290920101905290565b601781116112f5576112ef8360e0600585901b16831763ffffffff6114b616565b50610df2565b60ff811161132b57611318836018611fe0600586901b161763ffffffff6114b616565b506112ef8382600163ffffffff6114ce16565b61ffff81116113625761134f836019611fe0600586901b161763ffffffff6114b616565b506112ef8382600263ffffffff6114ce16565b63ffffffff811161139b5761138883601a611fe0600586901b161763ffffffff6114b616565b506112ef8382600463ffffffff6114ce16565b67ffffffffffffffff8111610df2576113c583601b611fe0600586901b161763ffffffff6114b616565b50610d978382600863ffffffff6114ce16565b6113e06116bd565b610d29838460000151518485516114e7565b60606113fd85611593565b6114195760405162461bcd60e51b815260040161026d90611c4e565b60006060866001600160a01b03168587604051611436919061189c565b60006040518083038185875af1925050503d8060008114611473576040519150601f19603f3d011682016040523d82523d6000602084013e611478565b606091505b5091509150811561148c5791506111e49050565b80511561149c5780518082602001fd5b8360405162461bcd60e51b815260040161026d9190611a69565b6114be6116bd565b610d298384600001515184611599565b6114d66116bd565b6111e48485600001515185856115e4565b6114ef6116bd565b82518211156114fd57600080fd5b84602001518285011115611527576115278561151f8760200151878601611642565b600202611659565b6000808651805187602083010193508088870111156115465787860182525b505050602084015b6020841061156d5780518252601f19909301926020918201910161154e565b51815160001960208690036101000a019081169019919091161790525083949350505050565b3b151590565b6115a16116bd565b836020015183106115bd576115bd848560200151600202611659565b8351805160208583010184815350808514156115da576001810182525b5093949350505050565b6115ec6116bd565b846020015184830111156116095761160985858401600202611659565b60006001836101000a0390508551838682010185831982511617815250805184870111156116375783860181525b509495945050505050565b6000818311156116535750816102df565b50919050565b81516116658383611294565b50610d9783826113d8565b6040805160608101825260008082526020820181905290918201905b905290565b6040805160a08101825260008082526020820181905291810182905260608101919091526080810161168c5b604051806040016040528060608152602001600081525090565b6000602082840312156116e8578081fd5b81356001600160a01b0381168114610d29578182fd5b60008060208385031215611710578081fd5b823567ffffffffffffffff80821115611727578283fd5b81850186601f820112611738578384fd5b8035925081831115611748578384fd5b866020808502830101111561175b578384fd5b60200196919550909350505050565b60006020828403121561177b578081fd5b8151610d2981611d43565b600060208284031215611797578081fd5b5035919050565b600080604083850312156117b0578182fd5b50508035926020909101359150565b6000806000606084860312156117d3578081fd5b8335925060208401356117e581611d54565b929592945050506040919091013590565b6000806000806080858703121561180b578081fd5b84359350602085013561181d81611d54565b925060408501359150606085013561183481611d43565b939692955090935050565b60008060408385031215611851578182fd5b505080516020909101519092909150565b6000815180845261187a816020860160208601611d17565b601f01601f19169290920160200192915050565b6006811061189857fe5b9052565b600082516118ae818460208701611d17565b9190910192915050565b60609290921b6bffffffffffffffffffffffff19168252601482015260340190565b6001600160a01b0391909116815260200190565b6001600160a01b039384168152919092166020820152604081019190915260600190565b6001600160a01b0389811682526020820189905260408201889052861660608201526001600160e01b03198516608082015260a0810184905260c0810183905261010060e0820181905260009061196b83820185611862565b9b9a5050505050505050505050565b600060018060a01b038516825283602083015260606040830152610dbf6060830184611862565b6020808252825182820181905260009190848201906040850190845b818110156119d9578351835292840192918401916001016119bd565b50909695505050505050565b901515815260200190565b90815260200190565b8481526080810160068510611a0a57fe5b84602083015283604083015282606083015295945050505050565b918252602082015260400190565b83815260208101839052606081016111e4604083018461188e565b60408101611a5c828561188e565b8260208301529392505050565b600060208252610d296020830184611862565b60208082526026908201527f4f776e61626c653a206e6577206f776e657220697320746865207a65726f206160408201526564647265737360d01b606082015260800190565b60208082526023908201527f756e61626c6520746f207472616e73666572416e6443616c6c20746f206f7261604082015262636c6560e81b606082015260800190565b6020808252601f908201527f4e6574776f726b206e616d6520616c7265616479207265676973746572656400604082015260600190565b6020808252601b908201527f506572696f6420686173206e6f742066696e6973686564207965740000000000604082015260600190565b60208082526021908201527f536166654d6174683a206d756c7469706c69636174696f6e206f766572666c6f6040820152607760f81b606082015260800190565b6020808252818101527f4f776e61626c653a2063616c6c6572206973206e6f7420746865206f776e6572604082015260600190565b6020808252601b908201527f416e616c797469637320616c7265616479207265717565737465640000000000604082015260600190565b602080825260149082015273496e76616c6964206e6574776f726b206e616d6560601b604082015260600190565b6020808252601d908201527f416464726573733a2063616c6c20746f206e6f6e2d636f6e7472616374000000604082015260600190565b60208082526028908201527f536f75726365206d75737420626520746865206f7261636c65206f6620746865604082015267081c995c5d595cdd60c21b606082015260800190565b6020808252602a908201527f5361666545524332303a204552433230206f7065726174696f6e20646964206e6040820152691bdd081cdd58d8d9595960b21b606082015260800190565b60005b83811015611d32578181015183820152602001611d1a565b83811115610d975750506000910152565b8015158114611d5157600080fd5b50565b60068110611d5157600080fdfea26469706673582212203bc26221b2396dcc822060d2a67ed0a9350bef40f92c30a6c0419ccd02e8397664736f6c63430006060033",
  "immutableReferences": {},
  "source": "pragma solidity 0.6.6;\npragma experimental ABIEncoderV2;\n\nimport \"@chainlink/contracts/src/v0.6/ChainlinkClient.sol\";\nimport \"@openzeppelin/contracts/access/Ownable.sol\";\nimport \"@openzeppelin/contracts/token/ERC20/ERC20.sol\";\nimport \"@openzeppelin/contracts/token/ERC20/SafeERC20.sol\";\nimport \"../../StringUtils.sol\";\nimport \"../../PeriodRegistry.sol\";\nimport \"../../StakeRegistry.sol\";\n\n/**\n * @title NetworkAnalytics\n * @dev contract to get the network analytics for the staking efficiency use case\n */\n\ncontract NetworkAnalytics is Ownable, ChainlinkClient, StringUtils {\n    using SafeERC20 for ERC20;\n\n    struct AnalyticsRequest {\n        bytes32 networkName;\n        uint256 periodId;\n        PeriodRegistry.PeriodType periodType;\n    }\n\n    /// @dev Period registry\n    PeriodRegistry private periodRegistry;\n    /// @dev StakeRegistry\n    StakeRegistry private stakeRegistry;\n\n    /// @dev bytes32 to store the available network names\n    bytes32[] public networkNames;\n    /// @dev (networkName=>periodType=>periodId=>bytes32) to store ipfsHash of the analytics corresponding to periodId\n    mapping(bytes32 => mapping(PeriodRegistry.PeriodType => mapping(uint256 => bytes32)))\n        public periodAnalytics;\n    /// @dev (networkName=>periodType=>periodId=>bool) to state if a network-periodType-periodId was already requested\n    mapping(bytes32 => mapping(PeriodRegistry.PeriodType => mapping(uint256 => bool)))\n        public periodAnalyticsRequested;\n\n    /// @dev Mapping that stores chainlink analytics request information\n    mapping(bytes32 => AnalyticsRequest) public requestIdToAnalyticsRequest;\n    /// @dev Array with all request IDs\n    bytes32[] public requests;\n    /// @dev Chainlink oracle address\n    address private oracle;\n    /// @dev chainlink jobId\n    bytes32 private jobId;\n    /// @dev fee for Chainlink querys. Currently 0.1 LINK\n    uint256 private baseFee = 0.1 ether;\n    /// @dev fee for Chainlink querys. Currently 0.1 LINK\n    uint256 public fee;\n\n    /**\n     * @dev event emitted when modifying the callerReward\n     * @param owner 1. -\n     * @param newValue 2. -\n     */\n    event CallerRewardModified(address indexed owner, uint256 newValue);\n\n    /**\n     * @dev event emitted when modifying the jobId\n     * @param owner 1. -\n     * @param jobId 2. -\n     * @param fee 3. -\n     */\n    event JobIdModified(address indexed owner, bytes32 jobId, uint256 fee);\n\n    /**\n     * @dev event emitted when having a response from Chainlink with the SLI\n     * @param networkName 1. network name\n     * @param periodType 2. id of the period\n     * @param periodId 3. id of the period\n     * @param ipfsHash 4. hash of the ipfs object\n     */\n    event AnalyticsReceived(\n        bytes32 networkName,\n        PeriodRegistry.PeriodType periodType,\n        uint256 periodId,\n        bytes32 ipfsHash\n    );\n\n    /**\n     * @dev parameterize the variables according to network\n     * @notice sets the Chainlink parameters (oracle address, token address, jobId) and sets the SLARegistry to 0x0 address\n     * @param _chainlinkOracle 1. the address of the oracle to create requests to\n     * @param _chainlinkToken 2. the address of LINK token contract\n     * @param _jobId 3. the job id for the HTTPGet job\n     * @param _periodRegistry 4. period registry\n     * @param _stakeRegistry 5. stake registry\n     * @param _feeMultiplier 6. states the amount of paid nodes running behind the precoordinator, to set the fee\n     */\n    constructor(\n        address _chainlinkOracle,\n        address _chainlinkToken,\n        bytes32 _jobId,\n        PeriodRegistry _periodRegistry,\n        StakeRegistry _stakeRegistry,\n        uint256 _feeMultiplier\n    ) public {\n        jobId = _jobId;\n        setChainlinkToken(_chainlinkToken);\n        oracle = _chainlinkOracle;\n        periodRegistry = _periodRegistry;\n        stakeRegistry = _stakeRegistry;\n        fee = _feeMultiplier.mul(baseFee);\n    }\n\n    function isValidNetwork(bytes32 _networkName) public view returns (bool) {\n        for (uint256 index; index < networkNames.length; index++) {\n            if (networkNames[index] == _networkName) return true;\n        }\n        return false;\n    }\n\n    /**\n     * @dev function to add a valid network name\n     * @param _networkName 1. bytes32 network name\n     */\n    function addNetwork(bytes32 _networkName)\n        external\n        onlyOwner\n        returns (bool)\n    {\n        require(\n            isValidNetwork(_networkName) == false,\n            \"Network name already registered\"\n        );\n        networkNames.push(_networkName);\n        return false;\n    }\n\n    /**\n     * @dev function to add multiple valid network names\n     * @param _networkNames 1. bytes32[] network names\n     */\n    function addMultipleNetworks(bytes32[] calldata _networkNames)\n        external\n        onlyOwner\n        returns (bool)\n    {\n        for (uint256 index = 0; index < _networkNames.length; index++) {\n            if (!isValidNetwork(_networkNames[index])) {\n                networkNames.push(_networkNames[index]);\n            }\n        }\n        return false;\n    }\n\n    /**\n     * @dev Request analytics object for the current period.\n     * @param _periodId 1. id of the canonical period to be analyzed\n     * @param _periodType 2. type of period to be queried\n     * @param _networkName 3. network name to publish analytics\n     * @param _ownerApproval 4. used to choose if the call is going to be funded by the contract owner, to avoid a block by contract owner\n     */\n    function requestAnalytics(\n        uint256 _periodId,\n        PeriodRegistry.PeriodType _periodType,\n        bytes32 _networkName,\n        bool _ownerApproval\n    ) public {\n        require(isValidNetwork(_networkName), \"Invalid network name\");\n        bool periodIsFinished =\n            periodRegistry.periodIsFinished(_periodType, _periodId);\n        require(periodIsFinished == true, \"Period has not finished yet\");\n        require(\n            periodAnalyticsRequested[_networkName][_periodType][_periodId] ==\n                false,\n            \"Analytics already requested\"\n        );\n        if (_ownerApproval) {\n            ERC20(chainlinkTokenAddress()).safeTransferFrom(\n                owner(),\n                address(this),\n                fee\n            );\n        } else {\n            ERC20(chainlinkTokenAddress()).safeTransferFrom(\n                msg.sender,\n                address(this),\n                fee\n            );\n        }\n\n        Chainlink.Request memory request =\n            buildChainlinkRequest(\n                jobId,\n                address(this),\n                this.fulFillAnalytics.selector\n            );\n\n        (uint256 start, uint256 end) =\n            periodRegistry.getPeriodStartAndEnd(_periodType, _periodId);\n\n        request.add(\"job_type\", \"staking_efficiency_analytics\");\n        request.add(\"network_name\", _bytes32ToStr(_networkName));\n        request.add(\"period_id\", _uintToStr(_periodId));\n        request.add(\"period_type\", _uintToStr(uint256(uint8(_periodType))));\n        request.add(\"sla_monitoring_start\", _uintToStr(start));\n        request.add(\"sla_monitoring_end\", _uintToStr(end));\n\n        bytes32 requestId = sendChainlinkRequestTo(oracle, request, fee);\n        requests.push(requestId);\n        requestIdToAnalyticsRequest[requestId] = AnalyticsRequest({\n            networkName: _networkName,\n            periodId: _periodId,\n            periodType: _periodType\n        });\n        periodAnalyticsRequested[_networkName][_periodType][_periodId] = true;\n    }\n\n    /**\n     * @dev callback function for the Chainlink SLI request which stores\n     * the SLI in the SLA contract\n     * @param _requestId the ID of the ChainLink request\n     * @param _chainlinkResponse response object from Chainlink Oracles\n     */\n    function fulFillAnalytics(bytes32 _requestId, bytes32 _chainlinkResponse)\n        external\n        recordChainlinkFulfillment(_requestId)\n    {\n        AnalyticsRequest memory request =\n            requestIdToAnalyticsRequest[_requestId];\n\n        emit AnalyticsReceived(\n            request.networkName,\n            request.periodType,\n            request.periodId,\n            _chainlinkResponse\n        );\n\n        periodAnalytics[request.networkName][request.periodType][\n            request.periodId\n        ] = _chainlinkResponse;\n    }\n\n    /**\n     * @dev sets a new jobId, which is a agreement Id of a PreCoordinator contract\n     * @param _jobId the id of the PreCoordinator agreement\n     * @param _feeMultiplier how many Chainlink nodes would be paid on the agreement id, to set the fee value\n     */\n    function setChainlinkJobID(bytes32 _jobId, uint256 _feeMultiplier)\n        external\n        onlyOwner\n    {\n        jobId = _jobId;\n        fee = _feeMultiplier.mul(baseFee);\n        emit JobIdModified(msg.sender, _jobId, fee);\n    }\n\n    function getNetworkNames()\n        external\n        view\n        returns (bytes32[] memory networks)\n    {\n        networks = networkNames;\n    }\n}\n",
  "sourcePath": "/Users/matiasbn/Desktop/stacktical/stacktical-dsla-contracts/contracts/use-cases/staking-efficiency/NetworkAnalytics.sol",
  "compiler": {
    "name": "solc",
    "version": "0.6.6+commit.6c089d02.Emscripten.clang"
  },
  "schemaVersion": "3.3.3",
  "updatedAt": "2021-04-09T17:10:33.104Z",
  "devdoc": {
    "details": "contract to get the network analytics for the staking efficiency use case",
    "methods": {
      "addMultipleNetworks(bytes32[])": {
        "details": "function to add multiple valid network names",
        "params": {
          "_networkNames": "1. bytes32[] network names"
        }
      },
      "addNetwork(bytes32)": {
        "details": "function to add a valid network name",
        "params": {
          "_networkName": "1. bytes32 network name"
        }
      },
      "constructor": {
        "details": "parameterize the variables according to network",
        "params": {
          "_chainlinkOracle": "1. the address of the oracle to create requests to",
          "_chainlinkToken": "2. the address of LINK token contract",
          "_feeMultiplier": "6. states the amount of paid nodes running behind the precoordinator, to set the fee",
          "_jobId": "3. the job id for the HTTPGet job",
          "_periodRegistry": "4. period registry",
          "_stakeRegistry": "5. stake registry"
        }
      },
      "fulFillAnalytics(bytes32,bytes32)": {
        "details": "callback function for the Chainlink SLI request which stores the SLI in the SLA contract",
        "params": {
          "_chainlinkResponse": "response object from Chainlink Oracles",
          "_requestId": "the ID of the ChainLink request"
        }
      },
      "owner()": {
        "details": "Returns the address of the current owner."
      },
      "renounceOwnership()": {
        "details": "Leaves the contract without owner. It will not be possible to call `onlyOwner` functions anymore. Can only be called by the current owner.     * NOTE: Renouncing ownership will leave the contract without an owner, thereby removing any functionality that is only available to the owner."
      },
      "requestAnalytics(uint256,uint8,bytes32,bool)": {
        "details": "Request analytics object for the current period.",
        "params": {
          "_networkName": "3. network name to publish analytics",
          "_ownerApproval": "4. used to choose if the call is going to be funded by the contract owner, to avoid a block by contract owner",
          "_periodId": "1. id of the canonical period to be analyzed",
          "_periodType": "2. type of period to be queried"
        }
      },
      "setChainlinkJobID(bytes32,uint256)": {
        "details": "sets a new jobId, which is a agreement Id of a PreCoordinator contract",
        "params": {
          "_feeMultiplier": "how many Chainlink nodes would be paid on the agreement id, to set the fee value",
          "_jobId": "the id of the PreCoordinator agreement"
        }
      },
      "transferOwnership(address)": {
        "details": "Transfers ownership of the contract to a new account (`newOwner`). Can only be called by the current owner."
      }
    },
    "title": "NetworkAnalytics"
  },
  "userdoc": {
    "methods": {
      "constructor": "sets the Chainlink parameters (oracle address, token address, jobId) and sets the SLARegistry to 0x0 address"
    }
  }
}