{
  "contractName": "NetworkAnalytics",
  "abi": [
    {
      "inputs": [
        {
          "internalType": "address",
          "name": "_chainlinkOracle",
          "type": "address"
        },
        {
          "internalType": "address",
          "name": "_chainlinkToken",
          "type": "address"
        },
        {
          "internalType": "bytes32",
          "name": "_jobId",
          "type": "bytes32"
        },
        {
          "internalType": "contract PeriodRegistry",
          "name": "_periodRegistry",
          "type": "address"
        },
        {
          "internalType": "contract StakeRegistry",
          "name": "_stakeRegistry",
          "type": "address"
        },
        {
          "internalType": "uint256",
          "name": "_feeMultiplier",
          "type": "uint256"
        }
      ],
      "stateMutability": "nonpayable",
      "type": "constructor"
    },
    {
      "anonymous": false,
      "inputs": [
        {
          "indexed": false,
          "internalType": "bytes32",
          "name": "networkName",
          "type": "bytes32"
        },
        {
          "indexed": false,
          "internalType": "enum PeriodRegistry.PeriodType",
          "name": "periodType",
          "type": "uint8"
        },
        {
          "indexed": false,
          "internalType": "uint256",
          "name": "periodId",
          "type": "uint256"
        },
        {
          "indexed": false,
          "internalType": "bytes32",
          "name": "ipfsHash",
          "type": "bytes32"
        }
      ],
      "name": "AnalyticsReceived",
      "type": "event"
    },
    {
      "anonymous": false,
      "inputs": [
        {
          "indexed": true,
          "internalType": "address",
          "name": "owner",
          "type": "address"
        },
        {
          "indexed": false,
          "internalType": "uint256",
          "name": "newValue",
          "type": "uint256"
        }
      ],
      "name": "CallerRewardModified",
      "type": "event"
    },
    {
      "anonymous": false,
      "inputs": [
        {
          "indexed": true,
          "internalType": "bytes32",
          "name": "id",
          "type": "bytes32"
        }
      ],
      "name": "ChainlinkCancelled",
      "type": "event"
    },
    {
      "anonymous": false,
      "inputs": [
        {
          "indexed": true,
          "internalType": "bytes32",
          "name": "id",
          "type": "bytes32"
        }
      ],
      "name": "ChainlinkFulfilled",
      "type": "event"
    },
    {
      "anonymous": false,
      "inputs": [
        {
          "indexed": true,
          "internalType": "bytes32",
          "name": "id",
          "type": "bytes32"
        }
      ],
      "name": "ChainlinkRequested",
      "type": "event"
    },
    {
      "anonymous": false,
      "inputs": [
        {
          "indexed": true,
          "internalType": "address",
          "name": "owner",
          "type": "address"
        },
        {
          "indexed": false,
          "internalType": "bytes32",
          "name": "jobId",
          "type": "bytes32"
        },
        {
          "indexed": false,
          "internalType": "uint256",
          "name": "fee",
          "type": "uint256"
        }
      ],
      "name": "JobIdModified",
      "type": "event"
    },
    {
      "anonymous": false,
      "inputs": [
        {
          "indexed": true,
          "internalType": "address",
          "name": "previousOwner",
          "type": "address"
        },
        {
          "indexed": true,
          "internalType": "address",
          "name": "newOwner",
          "type": "address"
        }
      ],
      "name": "OwnershipTransferred",
      "type": "event"
    },
    {
      "inputs": [],
      "name": "fee",
      "outputs": [
        {
          "internalType": "uint256",
          "name": "",
          "type": "uint256"
        }
      ],
      "stateMutability": "view",
      "type": "function",
      "constant": true
    },
    {
      "inputs": [
        {
          "internalType": "uint256",
          "name": "",
          "type": "uint256"
        }
      ],
      "name": "networkNames",
      "outputs": [
        {
          "internalType": "bytes32",
          "name": "",
          "type": "bytes32"
        }
      ],
      "stateMutability": "view",
      "type": "function",
      "constant": true
    },
    {
      "inputs": [],
      "name": "owner",
      "outputs": [
        {
          "internalType": "address",
          "name": "",
          "type": "address"
        }
      ],
      "stateMutability": "view",
      "type": "function",
      "constant": true
    },
    {
      "inputs": [
        {
          "internalType": "bytes32",
          "name": "",
          "type": "bytes32"
        },
        {
          "internalType": "enum PeriodRegistry.PeriodType",
          "name": "",
          "type": "uint8"
        },
        {
          "internalType": "uint256",
          "name": "",
          "type": "uint256"
        }
      ],
      "name": "periodAnalytics",
      "outputs": [
        {
          "internalType": "bytes32",
          "name": "",
          "type": "bytes32"
        }
      ],
      "stateMutability": "view",
      "type": "function",
      "constant": true
    },
    {
      "inputs": [
        {
          "internalType": "bytes32",
          "name": "",
          "type": "bytes32"
        },
        {
          "internalType": "enum PeriodRegistry.PeriodType",
          "name": "",
          "type": "uint8"
        },
        {
          "internalType": "uint256",
          "name": "",
          "type": "uint256"
        }
      ],
      "name": "periodAnalyticsRequested",
      "outputs": [
        {
          "internalType": "bool",
          "name": "",
          "type": "bool"
        }
      ],
      "stateMutability": "view",
      "type": "function",
      "constant": true
    },
    {
      "inputs": [],
      "name": "renounceOwnership",
      "outputs": [],
      "stateMutability": "nonpayable",
      "type": "function"
    },
    {
      "inputs": [
        {
          "internalType": "bytes32",
          "name": "",
          "type": "bytes32"
        }
      ],
      "name": "requestIdToAnalyticsRequest",
      "outputs": [
        {
          "internalType": "bytes32",
          "name": "networkName",
          "type": "bytes32"
        },
        {
          "internalType": "uint256",
          "name": "periodId",
          "type": "uint256"
        },
        {
          "internalType": "enum PeriodRegistry.PeriodType",
          "name": "periodType",
          "type": "uint8"
        }
      ],
      "stateMutability": "view",
      "type": "function",
      "constant": true
    },
    {
      "inputs": [
        {
          "internalType": "uint256",
          "name": "",
          "type": "uint256"
        }
      ],
      "name": "requests",
      "outputs": [
        {
          "internalType": "bytes32",
          "name": "",
          "type": "bytes32"
        }
      ],
      "stateMutability": "view",
      "type": "function",
      "constant": true
    },
    {
      "inputs": [
        {
          "internalType": "address",
          "name": "newOwner",
          "type": "address"
        }
      ],
      "name": "transferOwnership",
      "outputs": [],
      "stateMutability": "nonpayable",
      "type": "function"
    },
    {
      "inputs": [
        {
          "internalType": "bytes32",
          "name": "_networkName",
          "type": "bytes32"
        }
      ],
      "name": "isValidNetwork",
      "outputs": [
        {
          "internalType": "bool",
          "name": "",
          "type": "bool"
        }
      ],
      "stateMutability": "view",
      "type": "function",
      "constant": true
    },
    {
      "inputs": [
        {
          "internalType": "bytes32",
          "name": "_networkName",
          "type": "bytes32"
        }
      ],
      "name": "addNetwork",
      "outputs": [
        {
          "internalType": "bool",
          "name": "",
          "type": "bool"
        }
      ],
      "stateMutability": "nonpayable",
      "type": "function"
    },
    {
      "inputs": [
        {
          "internalType": "bytes32[]",
          "name": "_networkNames",
          "type": "bytes32[]"
        }
      ],
      "name": "addMultipleNetworks",
      "outputs": [
        {
          "internalType": "bool",
          "name": "",
          "type": "bool"
        }
      ],
      "stateMutability": "nonpayable",
      "type": "function"
    },
    {
      "inputs": [
        {
          "internalType": "uint256",
          "name": "_periodId",
          "type": "uint256"
        },
        {
          "internalType": "enum PeriodRegistry.PeriodType",
          "name": "_periodType",
          "type": "uint8"
        },
        {
          "internalType": "bytes32",
          "name": "_networkName",
          "type": "bytes32"
        },
        {
          "internalType": "bool",
          "name": "_ownerApproval",
          "type": "bool"
        }
      ],
      "name": "requestAnalytics",
      "outputs": [],
      "stateMutability": "nonpayable",
      "type": "function"
    },
    {
      "inputs": [
        {
          "internalType": "bytes32",
          "name": "_requestId",
          "type": "bytes32"
        },
        {
          "internalType": "bytes32",
          "name": "_chainlinkResponse",
          "type": "bytes32"
        }
      ],
      "name": "fulFillAnalytics",
      "outputs": [],
      "stateMutability": "nonpayable",
      "type": "function"
    },
    {
      "inputs": [
        {
          "internalType": "bytes32",
          "name": "_jobId",
          "type": "bytes32"
        },
        {
          "internalType": "uint256",
          "name": "_feeMultiplier",
          "type": "uint256"
        }
      ],
      "name": "setChainlinkJobID",
      "outputs": [],
      "stateMutability": "nonpayable",
      "type": "function"
    },
    {
      "inputs": [],
      "name": "getNetworkNames",
      "outputs": [
        {
          "internalType": "bytes32[]",
          "name": "networks",
          "type": "bytes32[]"
        }
      ],
      "stateMutability": "view",
      "type": "function",
      "constant": true
    }
  ],
  "bytecode": "0x6080604052600160055567016345785d8a00006011553480156200002257600080fd5b5060405162002092380380620020928339810160408190526200004591620001a4565b60006200005a6001600160e01b036200012c16565b600080546001600160a01b0319166001600160a01b0383169081178255604051929350917f8be0079c531659141344cd1fd0a4f28419497f9722a3daafe3b4186f6b6457e0908290a35060016007556010849055620000c2856001600160e01b036200013016565b600f80546001600160a01b03199081166001600160a01b0389811691909117909255600880548216868416179055600980549091169184169190911790556011546200011c90829062000152602090811b62000e6e17901c565b6012555062000279945050505050565b3390565b600380546001600160a01b0319166001600160a01b0392909216919091179055565b60008262000163575060006200019e565b828202828482816200017157fe5b04146200019b5760405162461bcd60e51b815260040162000192906200021f565b60405180910390fd5b90505b92915050565b60008060008060008060c08789031215620001bd578182fd5b8651620001ca8162000260565b6020880151909650620001dd8162000260565b604088015160608901519196509450620001f78162000260565b60808801519093506200020a8162000260565b8092505060a087015190509295509295509295565b60208082526021908201527f536166654d6174683a206d756c7469706c69636174696f6e206f766572666c6f6040820152607760f81b606082015260800190565b6001600160a01b03811681146200027657600080fd5b50565b611e0980620002896000396000f3fe608060405234801561001057600080fd5b50600436106100df5760003560e01c806381d12c581161008757806381d12c58146101985780638da5cb5b146101ab5780639b452323146101c0578063a0a2f054146101e2578063ae382f49146101f5578063ddca3f4314610208578063e1dd46a114610210578063f2fde38b14610223576100df565b8062213504146100e457806317c6066f1461010d578063292733bf146101205780633e68ac681461013557806368fe2cdd14610148578063715018a61461015d5780637e0ce269146101655780638190f34114610185575b600080fd5b6100f76100f236600461169c565b610236565b6040516101049190611a10565b60405180910390f35b6100f761011b366004611724565b6102e5565b61013361012e36600461173c565b61037d565b005b6100f761014336600461175d565b61040e565b610150610434565b60405161010491906119cc565b61013361048c565b61017861017336600461175d565b61050b565b6040516101049190611a1b565b61013361019336600461173c565b61052e565b6101786101a6366004611724565b6106d0565b6101b36106ee565b6040516101049190611905565b6101d36101ce366004611724565b6106fd565b60405161010493929190611a59565b6101786101f0366004611724565b610721565b61013361020336600461182f565b61072e565b610178610d66565b6100f761021e366004611724565b610d6c565b610133610231366004611675565b610db4565b6000610240610e6a565b6000546001600160a01b039081169116146102765760405162461bcd60e51b815260040161026d90611be4565b60405180910390fd5b60005b828110156102d95761029c84848381811061029057fe5b90506020020135610d6c565b6102d157600a8484838181106102ae57fe5b835460018101855560009485526020948590209190940292909201359190920155505b600101610279565b50600090505b92915050565b60006102ef610e6a565b6000546001600160a01b0390811691161461031c5760405162461bcd60e51b815260040161026d90611be4565b61032582610d6c565b156103425760405162461bcd60e51b815260040161026d90611b35565b50600a805460018101825560009182527fc65a7bb8d6351c1cf70c95a316cc6a92839c986682d98bc35f958f4883f9d2a8018290555b919050565b610385610e6a565b6000546001600160a01b039081169116146103b25760405162461bcd60e51b815260040161026d90611be4565b60108290556011546103cb90829063ffffffff610e6e16565b601281905560405133917f8e7e22d2820965fa1a8fa3ad76db76127e2f1baaf65f50c4e267f28b2254f7cb91610402918691611a4b565b60405180910390a25050565b600c60209081526000938452604080852082529284528284209052825290205460ff1681565b6060600a80548060200260200160405190810160405280929190818152602001828054801561048257602002820191906000526020600020905b81548152602001906001019080831161046e575b5050505050905090565b610494610e6a565b6000546001600160a01b039081169116146104c15760405162461bcd60e51b815260040161026d90611be4565b600080546040516001600160a01b03909116907f8be0079c531659141344cd1fd0a4f28419497f9722a3daafe3b4186f6b6457e0908390a3600080546001600160a01b0319169055565b600b60209081526000938452604080852082529284528284209052825290205481565b60008281526006602052604090205482906001600160a01b031633146105665760405162461bcd60e51b815260040161026d90611cb5565b60008181526006602052604080822080546001600160a01b03191690555182917f7cc135e0cebb02c3480ae5d74d377283180a2601f8f644edf7987b009316c63a91a2600260075414156105cc5760405162461bcd60e51b815260040161026d90611d47565b60026007556105d961160e565b6000848152600d60209081526040918290208251606081018452815481526001820154928101929092526002810154919290919083019060ff16600581111561061e57fe5b600581111561062957fe5b9052508051604080830151602084015191519394507fe2f11ee4299271d2204416b3f4f0ebd793470db5409b363f09f36ff3d0f095049361066d9392908890611a24565b60405180910390a180516000908152600b602052604080822090830151859290600581111561069857fe5b60058111156106a357fe5b81526020808201929092526040908101600090812094830151815293909152909120555050600160075550565b600e81815481106106dd57fe5b600091825260209091200154905081565b6000546001600160a01b031690565b600d6020526000908152604090208054600182015460029092015490919060ff1683565b600a81815481106106dd57fe5b600260075414156107515760405162461bcd60e51b815260040161026d90611d47565b600260075561075f82610d6c565b61077b5760405162461bcd60e51b815260040161026d90611c50565b6008546040516331edb3ad60e21b81526000916001600160a01b03169063c7b6ceb4906107ae9087908990600401611a7d565b60206040518083038186803b1580156107c657600080fd5b505afa1580156107da573d6000803e3d6000fd5b505050506040513d601f19601f820116820180604052508101906107fe9190611708565b90506001811515146108225760405162461bcd60e51b815260040161026d90611b6c565b6000838152600c602052604081209085600581111561083d57fe5b600581111561084857fe5b81526020808201929092526040908101600090812088825290925290205460ff16156108865760405162461bcd60e51b815260040161026d90611c19565b81156108bf576108ba6108976106ee565b306012546108a3610eaf565b6001600160a01b031692919063ffffffff610ebe16565b6108cf565b6108cf33306012546108a3610eaf565b6108d761162f565b6010546108ec9030638190f34160e01b610f1c565b60085460405160016259edcb60e01b0319815291925060009182916001600160a01b03169063ffa6123590610927908a908c90600401611a7d565b604080518083038186803b15801561093e57600080fd5b505afa158015610952573d6000803e3d6000fd5b505050506040513d601f19601f820116820180604052508101906109769190611878565b915091506109e4604051806040016040528060088152602001676a6f625f7479706560c01b8152506040518060400160405280601c81526020017f7374616b696e675f656666696369656e63795f616e616c79746963730000000081525085610f479092919063ffffffff16565b604080518082018252600c81526b6e6574776f726b5f6e616d6560a01b60208201529051631de1646d60e31b8152610aa3919073__StringUtils___________________________9063ef0b236890610a41908b90600401611a1b565b60006040518083038186803b158015610a5957600080fd5b505af4158015610a6d573d6000803e3d6000fd5b505050506040513d6000823e601f3d908101601f19168201604052610a959190810190611794565b85919063ffffffff610f4716565b60408051808201825260098152681c195c9a5bd917da5960ba1b6020820152905163fc966d4560e01b8152610afd919073__StringUtils___________________________9063fc966d4590610a41908d90600401611a1b565b610b696040518060400160405280600b81526020016a706572696f645f7479706560a81b81525073__StringUtils___________________________63fc966d458a6005811115610b4a57fe5b60ff166040518263ffffffff1660e01b8152600401610a419190611a1b565b60408051808201825260148152731cdb1857db5bdb9a5d1bdc9a5b99d7dcdd185c9d60621b6020820152905163fc966d4560e01b8152610bce919073__StringUtils___________________________9063fc966d4590610a41908790600401611a1b565b60408051808201825260128152711cdb1857db5bdb9a5d1bdc9a5b99d7d95b9960721b6020820152905163fc966d4560e01b8152610c31919073__StringUtils___________________________9063fc966d4590610a41908690600401611a1b565b600f54601254600091610c51916001600160a01b03909116908690610f76565b600e80546001810182556000919091527fbb7b4a454dc3493923482f07822329ed19e8244eff582cc204f8554c3620c3fd0181905560408051606081018252898152602081018c90529192508101896005811115610cab57fe5b815250600d6000838152602001908152602001600020600082015181600001556020820151816001015560408201518160020160006101000a81548160ff02191690836005811115610cf957fe5b021790555050506000878152600c602052604081206001918a6005811115610d1d57fe5b6005811115610d2857fe5b8152602080820192909252604090810160009081209c81529b909152909920805460ff19169915159990991790985550506001600755505050505050565b60125481565b6000805b600a54811015610dab5782600a8281548110610d8857fe5b90600052602060002001541415610da3576001915050610378565b600101610d70565b50600092915050565b610dbc610e6a565b6000546001600160a01b03908116911614610de95760405162461bcd60e51b815260040161026d90611be4565b6001600160a01b038116610e0f5760405162461bcd60e51b815260040161026d90611aac565b600080546040516001600160a01b03808516939216917f8be0079c531659141344cd1fd0a4f28419497f9722a3daafe3b4186f6b6457e091a3600080546001600160a01b0319166001600160a01b0392909216919091179055565b3390565b600082610e7d575060006102df565b82820282848281610e8a57fe5b0414610ea85760405162461bcd60e51b815260040161026d90611ba3565b9392505050565b6003546001600160a01b031690565b610f16846323b872dd60e01b858585604051602401610edf93929190611919565b60408051601f198184030181529190526020810180516001600160e01b03166001600160e01b0319909316929092179091526110b5565b50505050565b610f2461162f565b610f2c61162f565b610f3e8186868663ffffffff61114416565b95945050505050565b6080830151610f5c908363ffffffff61118a16565b6080830151610f71908263ffffffff61118a16565b505050565b600030600554604051602001610f8d9291906118e3565b60408051808303601f19018152918152815160209283012060055460608701526000818152600690935281832080546001600160a01b0319166001600160a01b038916179055905190925082917fb5e6e01e79f91267dc17b4e6314d5d4d03593d2ceee0fbb452b750bd70ea5af991a26003546001600160a01b0316634000aea08584611019876111a7565b6040518463ffffffff1660e01b8152600401611037939291906119a5565b602060405180830381600087803b15801561105157600080fd5b505af1158015611065573d6000803e3d6000fd5b505050506040513d601f19601f820116820180604052508101906110899190611708565b6110a55760405162461bcd60e51b815260040161026d90611af2565b6005805460010190559392505050565b606061110a826040518060400160405280602081526020017f5361666545524332303a206c6f772d6c6576656c2063616c6c206661696c6564815250856001600160a01b03166112239092919063ffffffff16565b805190915015610f7157808060200190518101906111289190611708565b610f715760405162461bcd60e51b815260040161026d90611cfd565b61114c61162f565b61115c8560800151610100611232565b50508284526001600160a01b03821660208501526001600160e01b031981166040850152835b949350505050565b611197826003835161126c565b610f71828263ffffffff61137616565b6060634042994660e01b600080846000015185602001518660400151876060015160018960800151600001516040516024016111ea98979695949392919061193d565b60408051601f198184030181529190526020810180516001600160e01b03166001600160e01b0319909316929092179091529050919050565b60606111828484600085611390565b61123a61165b565b602082061561124f5760208206602003820191505b506020828101829052604080518085526000815290920101905290565b601781116112935761128d8360e0600585901b16831763ffffffff61145416565b50610f71565b60ff81116112c9576112b6836018611fe0600586901b161763ffffffff61145416565b5061128d8382600163ffffffff61146c16565b61ffff8111611300576112ed836019611fe0600586901b161763ffffffff61145416565b5061128d8382600263ffffffff61146c16565b63ffffffff81116113395761132683601a611fe0600586901b161763ffffffff61145416565b5061128d8382600463ffffffff61146c16565b67ffffffffffffffff8111610f715761136383601b611fe0600586901b161763ffffffff61145416565b50610f168382600863ffffffff61146c16565b61137e61165b565b610ea883846000015151848551611485565b606061139b85611531565b6113b75760405162461bcd60e51b815260040161026d90611c7e565b60006060866001600160a01b031685876040516113d491906118c7565b60006040518083038185875af1925050503d8060008114611411576040519150601f19603f3d011682016040523d82523d6000602084013e611416565b606091505b5091509150811561142a5791506111829050565b80511561143a5780518082602001fd5b8360405162461bcd60e51b815260040161026d9190611a99565b61145c61165b565b610ea88384600001515184611537565b61147461165b565b611182848560000151518585611582565b61148d61165b565b825182111561149b57600080fd5b846020015182850111156114c5576114c5856114bd87602001518786016115e0565b6002026115f7565b6000808651805187602083010193508088870111156114e45787860182525b505050602084015b6020841061150b5780518252601f1990930192602091820191016114ec565b51815160001960208690036101000a019081169019919091161790525083949350505050565b3b151590565b61153f61165b565b8360200151831061155b5761155b8485602001516002026115f7565b835180516020858301018481535080851415611578576001810182525b5093949350505050565b61158a61165b565b846020015184830111156115a7576115a7858584016002026115f7565b60006001836101000a0390508551838682010185831982511617815250805184870111156115d55783860181525b509495945050505050565b6000818311156115f15750816102df565b50919050565b81516116038383611232565b50610f168382611376565b6040805160608101825260008082526020820181905290918201905b905290565b6040805160a08101825260008082526020820181905291810182905260608101919091526080810161162a5b604051806040016040528060608152602001600081525090565b600060208284031215611686578081fd5b81356001600160a01b0381168114610ea8578182fd5b600080602083850312156116ae578081fd5b823567ffffffffffffffff808211156116c5578283fd5b81850186601f8201126116d6578384fd5b80359250818311156116e6578384fd5b86602080850283010111156116f9578384fd5b60200196919550909350505050565b600060208284031215611719578081fd5b8151610ea881611db5565b600060208284031215611735578081fd5b5035919050565b6000806040838503121561174e578182fd5b50508035926020909101359150565b600080600060608486031215611771578081fd5b83359250602084013561178381611dc6565b929592945050506040919091013590565b6000602082840312156117a5578081fd5b815167ffffffffffffffff808211156117bc578283fd5b81840185601f8201126117cd578384fd5b80519250818311156117dd578384fd5b604051601f8401601f1916810160200183811182821017156117fd578586fd5b604052838152818401602001871015611814578485fd5b611825846020830160208501611d89565b9695505050505050565b60008060008060808587031215611844578081fd5b84359350602085013561185681611dc6565b925060408501359150606085013561186d81611db5565b939692955090935050565b6000806040838503121561188a578182fd5b505080516020909101519092909150565b600081518084526118b3816020860160208601611d89565b601f01601f19169290920160200192915050565b600082516118d9818460208701611d89565b9190910192915050565b60609290921b6bffffffffffffffffffffffff19168252601482015260340190565b6001600160a01b0391909116815260200190565b6001600160a01b039384168152919092166020820152604081019190915260600190565b6001600160a01b0389811682526020820189905260408201889052861660608201526001600160e01b03198516608082015260a0810184905260c0810183905261010060e082018190526000906119968382018561189b565b9b9a5050505050505050505050565b600060018060a01b038516825283602083015260606040830152610f3e606083018461189b565b6020808252825182820181905260009190848201906040850190845b81811015611a04578351835292840192918401916001016119e8565b50909695505050505050565b901515815260200190565b90815260200190565b84815260808101611a3485611d7e565b602083015260408201939093526060015292915050565b918252602082015260400190565b8381526020810183905260608101611a7083611d7e565b6040830152949350505050565b60408101611a8a84611d7e565b82528260208301529392505050565b600060208252610ea8602083018461189b565b60208082526026908201527f4f776e61626c653a206e6577206f776e657220697320746865207a65726f206160408201526564647265737360d01b606082015260800190565b60208082526023908201527f756e61626c6520746f207472616e73666572416e6443616c6c20746f206f7261604082015262636c6560e81b606082015260800190565b6020808252601f908201527f4e6574776f726b206e616d6520616c7265616479207265676973746572656400604082015260600190565b6020808252601b908201527f506572696f6420686173206e6f742066696e6973686564207965740000000000604082015260600190565b60208082526021908201527f536166654d6174683a206d756c7469706c69636174696f6e206f766572666c6f6040820152607760f81b606082015260800190565b6020808252818101527f4f776e61626c653a2063616c6c6572206973206e6f7420746865206f776e6572604082015260600190565b6020808252601b908201527f416e616c797469637320616c7265616479207265717565737465640000000000604082015260600190565b602080825260149082015273496e76616c6964206e6574776f726b206e616d6560601b604082015260600190565b6020808252601d908201527f416464726573733a2063616c6c20746f206e6f6e2d636f6e7472616374000000604082015260600190565b60208082526028908201527f536f75726365206d75737420626520746865206f7261636c65206f6620746865604082015267081c995c5d595cdd60c21b606082015260800190565b6020808252602a908201527f5361666545524332303a204552433230206f7065726174696f6e20646964206e6040820152691bdd081cdd58d8d9595960b21b606082015260800190565b6020808252601f908201527f5265656e7472616e637947756172643a207265656e7472616e742063616c6c00604082015260600190565b806006811061037857fe5b60005b83811015611da4578181015183820152602001611d8c565b83811115610f165750506000910152565b8015158114611dc357600080fd5b50565b60068110611dc357600080fdfea2646970667358221220e5ebb07478647ed9812c05618a841a0589cd8673620e09a4c08321c15408b88f64736f6c63430006060033",
  "immutableReferences": {},
  "source": "pragma solidity 0.6.6;\npragma experimental ABIEncoderV2;\n\nimport \"@chainlink/contracts/src/v0.6/ChainlinkClient.sol\";\nimport \"@openzeppelin/contracts/access/Ownable.sol\";\nimport \"@openzeppelin/contracts/token/ERC20/ERC20.sol\";\nimport \"@openzeppelin/contracts/token/ERC20/SafeERC20.sol\";\nimport \"@openzeppelin/contracts/utils/ReentrancyGuard.sol\";\nimport \"../../StringUtils.sol\";\nimport \"../../PeriodRegistry.sol\";\nimport \"../../StakeRegistry.sol\";\n\n/**\n * @title NetworkAnalytics\n * @dev contract to get the network analytics for the staking efficiency use case\n */\n\ncontract NetworkAnalytics is Ownable, ChainlinkClient, ReentrancyGuard {\n    using SafeERC20 for ERC20;\n\n    struct AnalyticsRequest {\n        bytes32 networkName;\n        uint256 periodId;\n        PeriodRegistry.PeriodType periodType;\n    }\n\n    /// @dev Period registry\n    PeriodRegistry private periodRegistry;\n    /// @dev StakeRegistry\n    StakeRegistry private stakeRegistry;\n\n    /// @dev bytes32 to store the available network names\n    bytes32[] public networkNames;\n    /// @dev (networkName=>periodType=>periodId=>bytes32) to store ipfsHash of the analytics corresponding to periodId\n    mapping(bytes32 => mapping(PeriodRegistry.PeriodType => mapping(uint256 => bytes32)))\n        public periodAnalytics;\n    /// @dev (networkName=>periodType=>periodId=>bool) to state if a network-periodType-periodId was already requested\n    mapping(bytes32 => mapping(PeriodRegistry.PeriodType => mapping(uint256 => bool)))\n        public periodAnalyticsRequested;\n\n    /// @dev Mapping that stores chainlink analytics request information\n    mapping(bytes32 => AnalyticsRequest) public requestIdToAnalyticsRequest;\n    /// @dev Array with all request IDs\n    bytes32[] public requests;\n    /// @dev Chainlink oracle address\n    address private oracle;\n    /// @dev chainlink jobId\n    bytes32 private jobId;\n    /// @dev fee for Chainlink querys. Currently 0.1 LINK\n    uint256 private baseFee = 0.1 ether;\n    /// @dev fee for Chainlink querys. Currently 0.1 LINK\n    uint256 public fee;\n\n    /**\n     * @dev event emitted when modifying the callerReward\n     * @param owner 1. -\n     * @param newValue 2. -\n     */\n    event CallerRewardModified(address indexed owner, uint256 newValue);\n\n    /**\n     * @dev event emitted when modifying the jobId\n     * @param owner 1. -\n     * @param jobId 2. -\n     * @param fee 3. -\n     */\n    event JobIdModified(address indexed owner, bytes32 jobId, uint256 fee);\n\n    /**\n     * @dev event emitted when having a response from Chainlink with the SLI\n     * @param networkName 1. network name\n     * @param periodType 2. id of the period\n     * @param periodId 3. id of the period\n     * @param ipfsHash 4. hash of the ipfs object\n     */\n    event AnalyticsReceived(\n        bytes32 networkName,\n        PeriodRegistry.PeriodType periodType,\n        uint256 periodId,\n        bytes32 ipfsHash\n    );\n\n    /**\n     * @dev parameterize the variables according to network\n     * @notice sets the Chainlink parameters (oracle address, token address, jobId) and sets the SLARegistry to 0x0 address\n     * @param _chainlinkOracle 1. the address of the oracle to create requests to\n     * @param _chainlinkToken 2. the address of LINK token contract\n     * @param _jobId 3. the job id for the HTTPGet job\n     * @param _periodRegistry 4. period registry\n     * @param _stakeRegistry 5. stake registry\n     * @param _feeMultiplier 6. states the amount of paid nodes running behind the precoordinator, to set the fee\n     */\n    constructor(\n        address _chainlinkOracle,\n        address _chainlinkToken,\n        bytes32 _jobId,\n        PeriodRegistry _periodRegistry,\n        StakeRegistry _stakeRegistry,\n        uint256 _feeMultiplier\n    ) public {\n        jobId = _jobId;\n        setChainlinkToken(_chainlinkToken);\n        oracle = _chainlinkOracle;\n        periodRegistry = _periodRegistry;\n        stakeRegistry = _stakeRegistry;\n        fee = _feeMultiplier.mul(baseFee);\n    }\n\n    function isValidNetwork(bytes32 _networkName) public view returns (bool) {\n        for (uint256 index; index < networkNames.length; index++) {\n            if (networkNames[index] == _networkName) return true;\n        }\n        return false;\n    }\n\n    /**\n     * @dev function to add a valid network name\n     * @param _networkName 1. bytes32 network name\n     */\n    function addNetwork(bytes32 _networkName)\n        external\n        onlyOwner\n        returns (bool)\n    {\n        require(\n            isValidNetwork(_networkName) == false,\n            \"Network name already registered\"\n        );\n        networkNames.push(_networkName);\n        return false;\n    }\n\n    /**\n     * @dev function to add multiple valid network names\n     * @param _networkNames 1. bytes32[] network names\n     */\n    function addMultipleNetworks(bytes32[] calldata _networkNames)\n        external\n        onlyOwner\n        returns (bool)\n    {\n        for (uint256 index = 0; index < _networkNames.length; index++) {\n            if (!isValidNetwork(_networkNames[index])) {\n                networkNames.push(_networkNames[index]);\n            }\n        }\n        return false;\n    }\n\n    /**\n     * @dev Request analytics object for the current period.\n     * @param _periodId 1. id of the canonical period to be analyzed\n     * @param _periodType 2. type of period to be queried\n     * @param _networkName 3. network name to publish analytics\n     * @param _ownerApproval 4. used to choose if the call is going to be funded by the contract owner, to avoid a block by contract owner\n     */\n    function requestAnalytics(\n        uint256 _periodId,\n        PeriodRegistry.PeriodType _periodType,\n        bytes32 _networkName,\n        bool _ownerApproval\n    ) public nonReentrant {\n        require(isValidNetwork(_networkName), \"Invalid network name\");\n        bool periodIsFinished =\n            periodRegistry.periodIsFinished(_periodType, _periodId);\n        require(periodIsFinished == true, \"Period has not finished yet\");\n        require(\n            periodAnalyticsRequested[_networkName][_periodType][_periodId] ==\n                false,\n            \"Analytics already requested\"\n        );\n        if (_ownerApproval) {\n            ERC20(chainlinkTokenAddress()).safeTransferFrom(\n                owner(),\n                address(this),\n                fee\n            );\n        } else {\n            ERC20(chainlinkTokenAddress()).safeTransferFrom(\n                msg.sender,\n                address(this),\n                fee\n            );\n        }\n\n        Chainlink.Request memory request =\n            buildChainlinkRequest(\n                jobId,\n                address(this),\n                this.fulFillAnalytics.selector\n            );\n\n        (uint256 start, uint256 end) =\n            periodRegistry.getPeriodStartAndEnd(_periodType, _periodId);\n\n        request.add(\"job_type\", \"staking_efficiency_analytics\");\n        request.add(\"network_name\", StringUtils.bytes32ToStr(_networkName));\n        request.add(\"period_id\", StringUtils.uintToStr(_periodId));\n        request.add(\n            \"period_type\",\n            StringUtils.uintToStr(uint256(uint8(_periodType)))\n        );\n        request.add(\"sla_monitoring_start\", StringUtils.uintToStr(start));\n        request.add(\"sla_monitoring_end\", StringUtils.uintToStr(end));\n\n        bytes32 requestId = sendChainlinkRequestTo(oracle, request, fee);\n        requests.push(requestId);\n        requestIdToAnalyticsRequest[requestId] = AnalyticsRequest({\n            networkName: _networkName,\n            periodId: _periodId,\n            periodType: _periodType\n        });\n        periodAnalyticsRequested[_networkName][_periodType][_periodId] = true;\n    }\n\n    /**\n     * @dev callback function for the Chainlink SLI request which stores\n     * the SLI in the SLA contract\n     * @param _requestId the ID of the ChainLink request\n     * @param _chainlinkResponse response object from Chainlink Oracles\n     */\n    function fulFillAnalytics(bytes32 _requestId, bytes32 _chainlinkResponse)\n        external\n        recordChainlinkFulfillment(_requestId)\n        nonReentrant\n    {\n        AnalyticsRequest memory request =\n            requestIdToAnalyticsRequest[_requestId];\n\n        emit AnalyticsReceived(\n            request.networkName,\n            request.periodType,\n            request.periodId,\n            _chainlinkResponse\n        );\n\n        periodAnalytics[request.networkName][request.periodType][\n            request.periodId\n        ] = _chainlinkResponse;\n    }\n\n    /**\n     * @dev sets a new jobId, which is a agreement Id of a PreCoordinator contract\n     * @param _jobId the id of the PreCoordinator agreement\n     * @param _feeMultiplier how many Chainlink nodes would be paid on the agreement id, to set the fee value\n     */\n    function setChainlinkJobID(bytes32 _jobId, uint256 _feeMultiplier)\n        external\n        onlyOwner\n    {\n        jobId = _jobId;\n        fee = _feeMultiplier.mul(baseFee);\n        emit JobIdModified(msg.sender, _jobId, fee);\n    }\n\n    function getNetworkNames()\n        external\n        view\n        returns (bytes32[] memory networks)\n    {\n        networks = networkNames;\n    }\n}\n",
  "sourcePath": "/Users/matiasbn/Desktop/stacktical/stacktical-dsla-contracts/contracts/use-cases/staking-efficiency/NetworkAnalytics.sol",
  "compiler": {
    "name": "solc",
    "version": "0.6.6+commit.6c089d02.Emscripten.clang"
  },
  "schemaVersion": "3.3.3",
  "updatedAt": "2021-04-12T16:06:12.484Z",
  "networkType": "ethereum",
  "devdoc": {
    "details": "contract to get the network analytics for the staking efficiency use case",
    "methods": {
      "addMultipleNetworks(bytes32[])": {
        "details": "function to add multiple valid network names",
        "params": {
          "_networkNames": "1. bytes32[] network names"
        }
      },
      "addNetwork(bytes32)": {
        "details": "function to add a valid network name",
        "params": {
          "_networkName": "1. bytes32 network name"
        }
      },
      "constructor": {
        "details": "parameterize the variables according to network",
        "params": {
          "_chainlinkOracle": "1. the address of the oracle to create requests to",
          "_chainlinkToken": "2. the address of LINK token contract",
          "_feeMultiplier": "6. states the amount of paid nodes running behind the precoordinator, to set the fee",
          "_jobId": "3. the job id for the HTTPGet job",
          "_periodRegistry": "4. period registry",
          "_stakeRegistry": "5. stake registry"
        }
      },
      "fulFillAnalytics(bytes32,bytes32)": {
        "details": "callback function for the Chainlink SLI request which stores the SLI in the SLA contract",
        "params": {
          "_chainlinkResponse": "response object from Chainlink Oracles",
          "_requestId": "the ID of the ChainLink request"
        }
      },
      "owner()": {
        "details": "Returns the address of the current owner."
      },
      "renounceOwnership()": {
        "details": "Leaves the contract without owner. It will not be possible to call `onlyOwner` functions anymore. Can only be called by the current owner.     * NOTE: Renouncing ownership will leave the contract without an owner, thereby removing any functionality that is only available to the owner."
      },
      "requestAnalytics(uint256,uint8,bytes32,bool)": {
        "details": "Request analytics object for the current period.",
        "params": {
          "_networkName": "3. network name to publish analytics",
          "_ownerApproval": "4. used to choose if the call is going to be funded by the contract owner, to avoid a block by contract owner",
          "_periodId": "1. id of the canonical period to be analyzed",
          "_periodType": "2. type of period to be queried"
        }
      },
      "setChainlinkJobID(bytes32,uint256)": {
        "details": "sets a new jobId, which is a agreement Id of a PreCoordinator contract",
        "params": {
          "_feeMultiplier": "how many Chainlink nodes would be paid on the agreement id, to set the fee value",
          "_jobId": "the id of the PreCoordinator agreement"
        }
      },
      "transferOwnership(address)": {
        "details": "Transfers ownership of the contract to a new account (`newOwner`). Can only be called by the current owner."
      }
    },
    "title": "NetworkAnalytics"
  },
  "userdoc": {
    "methods": {
      "constructor": "sets the Chainlink parameters (oracle address, token address, jobId) and sets the SLARegistry to 0x0 address"
    }
  }
}