{
  "contractName": "NetworkAnalytics",
  "abi": [
    {
      "inputs": [
        {
          "internalType": "address",
          "name": "_chainlinkOracle",
          "type": "address"
        },
        {
          "internalType": "address",
          "name": "_chainlinkToken",
          "type": "address"
        },
        {
          "internalType": "bytes32",
          "name": "_jobId",
          "type": "bytes32"
        },
        {
          "internalType": "contract PeriodRegistry",
          "name": "_periodRegistry",
          "type": "address"
        }
      ],
      "stateMutability": "nonpayable",
      "type": "constructor"
    },
    {
      "anonymous": false,
      "inputs": [
        {
          "indexed": false,
          "internalType": "bytes32",
          "name": "networkName",
          "type": "bytes32"
        },
        {
          "indexed": false,
          "internalType": "enum PeriodRegistry.PeriodType",
          "name": "periodType",
          "type": "uint8"
        },
        {
          "indexed": false,
          "internalType": "uint256",
          "name": "periodId",
          "type": "uint256"
        },
        {
          "indexed": false,
          "internalType": "bytes32",
          "name": "ipfsHash",
          "type": "bytes32"
        }
      ],
      "name": "AnalyticsReceived",
      "type": "event"
    },
    {
      "anonymous": false,
      "inputs": [
        {
          "indexed": true,
          "internalType": "bytes32",
          "name": "id",
          "type": "bytes32"
        }
      ],
      "name": "ChainlinkCancelled",
      "type": "event"
    },
    {
      "anonymous": false,
      "inputs": [
        {
          "indexed": true,
          "internalType": "bytes32",
          "name": "id",
          "type": "bytes32"
        }
      ],
      "name": "ChainlinkFulfilled",
      "type": "event"
    },
    {
      "anonymous": false,
      "inputs": [
        {
          "indexed": true,
          "internalType": "bytes32",
          "name": "id",
          "type": "bytes32"
        }
      ],
      "name": "ChainlinkRequested",
      "type": "event"
    },
    {
      "anonymous": false,
      "inputs": [
        {
          "indexed": true,
          "internalType": "address",
          "name": "previousOwner",
          "type": "address"
        },
        {
          "indexed": true,
          "internalType": "address",
          "name": "newOwner",
          "type": "address"
        }
      ],
      "name": "OwnershipTransferred",
      "type": "event"
    },
    {
      "inputs": [],
      "name": "fee",
      "outputs": [
        {
          "internalType": "uint256",
          "name": "",
          "type": "uint256"
        }
      ],
      "stateMutability": "view",
      "type": "function"
    },
    {
      "inputs": [],
      "name": "jobId",
      "outputs": [
        {
          "internalType": "bytes32",
          "name": "",
          "type": "bytes32"
        }
      ],
      "stateMutability": "view",
      "type": "function"
    },
    {
      "inputs": [
        {
          "internalType": "uint256",
          "name": "",
          "type": "uint256"
        }
      ],
      "name": "networkNames",
      "outputs": [
        {
          "internalType": "bytes32",
          "name": "",
          "type": "bytes32"
        }
      ],
      "stateMutability": "view",
      "type": "function"
    },
    {
      "inputs": [],
      "name": "oracle",
      "outputs": [
        {
          "internalType": "address",
          "name": "",
          "type": "address"
        }
      ],
      "stateMutability": "view",
      "type": "function"
    },
    {
      "inputs": [],
      "name": "owner",
      "outputs": [
        {
          "internalType": "address",
          "name": "",
          "type": "address"
        }
      ],
      "stateMutability": "view",
      "type": "function"
    },
    {
      "inputs": [
        {
          "internalType": "bytes32",
          "name": "",
          "type": "bytes32"
        },
        {
          "internalType": "enum PeriodRegistry.PeriodType",
          "name": "",
          "type": "uint8"
        },
        {
          "internalType": "uint256",
          "name": "",
          "type": "uint256"
        }
      ],
      "name": "periodAnalytics",
      "outputs": [
        {
          "internalType": "bytes32",
          "name": "",
          "type": "bytes32"
        }
      ],
      "stateMutability": "view",
      "type": "function"
    },
    {
      "inputs": [],
      "name": "renounceOwnership",
      "outputs": [],
      "stateMutability": "nonpayable",
      "type": "function"
    },
    {
      "inputs": [
        {
          "internalType": "bytes32",
          "name": "",
          "type": "bytes32"
        }
      ],
      "name": "requestIdToAnalyticsRequest",
      "outputs": [
        {
          "internalType": "bytes32",
          "name": "networkName",
          "type": "bytes32"
        },
        {
          "internalType": "uint256",
          "name": "periodId",
          "type": "uint256"
        },
        {
          "internalType": "enum PeriodRegistry.PeriodType",
          "name": "periodType",
          "type": "uint8"
        }
      ],
      "stateMutability": "view",
      "type": "function"
    },
    {
      "inputs": [
        {
          "internalType": "uint256",
          "name": "",
          "type": "uint256"
        }
      ],
      "name": "requests",
      "outputs": [
        {
          "internalType": "bytes32",
          "name": "",
          "type": "bytes32"
        }
      ],
      "stateMutability": "view",
      "type": "function"
    },
    {
      "inputs": [
        {
          "internalType": "address",
          "name": "newOwner",
          "type": "address"
        }
      ],
      "name": "transferOwnership",
      "outputs": [],
      "stateMutability": "nonpayable",
      "type": "function"
    },
    {
      "inputs": [
        {
          "internalType": "bytes32",
          "name": "_networkName",
          "type": "bytes32"
        }
      ],
      "name": "isValidNetwork",
      "outputs": [
        {
          "internalType": "bool",
          "name": "",
          "type": "bool"
        }
      ],
      "stateMutability": "view",
      "type": "function"
    },
    {
      "inputs": [
        {
          "internalType": "bytes32",
          "name": "_networkName",
          "type": "bytes32"
        }
      ],
      "name": "addNetwork",
      "outputs": [
        {
          "internalType": "bool",
          "name": "",
          "type": "bool"
        }
      ],
      "stateMutability": "nonpayable",
      "type": "function"
    },
    {
      "inputs": [
        {
          "internalType": "uint256",
          "name": "_periodId",
          "type": "uint256"
        },
        {
          "internalType": "enum PeriodRegistry.PeriodType",
          "name": "_periodType",
          "type": "uint8"
        },
        {
          "internalType": "bytes32",
          "name": "_networkName",
          "type": "bytes32"
        }
      ],
      "name": "requestAnalytics",
      "outputs": [],
      "stateMutability": "nonpayable",
      "type": "function"
    },
    {
      "inputs": [
        {
          "internalType": "bytes32",
          "name": "_requestId",
          "type": "bytes32"
        },
        {
          "internalType": "bytes32",
          "name": "_chainlinkResponse",
          "type": "bytes32"
        }
      ],
      "name": "fulFillAnalytics",
      "outputs": [],
      "stateMutability": "nonpayable",
      "type": "function"
    }
  ],
  "bytecode": "0x6080604052600160055567016345785d8a0000600e553480156200002257600080fd5b50604051620017bf380380620017bf833981016040819052620000459162000107565b600062000051620000e1565b600080546001600160a01b0319166001600160a01b0383169081178255604051929350917f8be0079c531659141344cd1fd0a4f28419497f9722a3daafe3b4186f6b6457e0908290a350600d829055620000ab83620000e5565b600c80546001600160a01b039586166001600160a01b0319918216179091556007805492909516911617909255506200017b9050565b3390565b600380546001600160a01b0319166001600160a01b0392909216919091179055565b600080600080608085870312156200011d578384fd5b84516200012a8162000162565b60208601519094506200013d8162000162565b604086015160608701519194509250620001578162000162565b939692955090935050565b6001600160a01b03811681146200017857600080fd5b50565b611634806200018b6000396000f3fe608060405234801561001057600080fd5b50600436106100ca5760003560e01c80638da5cb5b1161007c5780638da5cb5b146101705780639b45232314610178578063a0a2f0541461019a578063c2939d97146101ad578063ddca3f43146101b5578063e1dd46a1146101bd578063f2fde38b146101d0576100ca565b80630d473452146100cf57806317c6066f146100e4578063715018a61461010d5780637dc0d1d0146101155780637e0ce2691461012a5780638190f3411461014a57806381d12c581461015d575b600080fd5b6100e26100dd366004611238565b6101e3565b005b6100f76100f23660046111c8565b6105b4565b604051610104919061137f565b60405180910390f35b6100e261064c565b61011d6106cb565b60405161010491906112dc565b61013d610138366004611201565b6106da565b604051610104919061138a565b6100e26101583660046111e0565b6106fd565b61013d61016b3660046111c8565b610877565b61011d610895565b61018b6101863660046111c8565b6108a4565b604051610104939291906113bf565b61013d6101a83660046111c8565b6108c8565b61013d6108d5565b61013d6108db565b6100f76101cb3660046111c8565b6108e1565b6100e26101de366004611181565b610929565b6101ec816108e1565b6102115760405162461bcd60e51b81526004016102089061156d565b60405180910390fd5b6007546040516331edb3ad60e21b81526000916001600160a01b03169063c7b6ceb49061024490869088906004016113e3565b60206040518083038186803b15801561025c57600080fd5b505afa158015610270573d6000803e3d6000fd5b505050506040513d601f19601f8201168201806040525081019061029491906111a8565b90506001811515146102b85760405162461bcd60e51b8152600401610208906114bf565b6000828152600960205260408120908460058111156102d357fe5b60058111156102de57fe5b815260200190815260200160002060008581526020019081526020016000205460001461031d5760405162461bcd60e51b8152600401610208906114f6565b610325611112565b600d5461033a9030638190f34160e01b6109df565b60075460405160016259edcb60e01b0319815291925060009182916001600160a01b03169063ffa61235906103759089908b906004016113e3565b604080518083038186803b15801561038c57600080fd5b505afa1580156103a0573d6000803e3d6000fd5b505050506040513d601f19601f820116820180604052508101906103c4919061124c565b91509150610432604051806040016040528060088152602001676a6f625f7479706560c01b8152506040518060400160405280601c81526020017f7374616b696e675f656666696369656e63795f616e616c79746963730000000081525085610a049092919063ffffffff16565b61046b6040518060400160405280600c81526020016b6e6574776f726b5f6e616d6560a01b81525061046387610a27565b859190610a04565b6104a4604051806040016040528060148152602001731cdb1857db5bdb9a5d1bdc9a5b99d7dcdd185c9d60621b81525061046384610b34565b6104db604051806040016040528060128152602001711cdb1857db5bdb9a5d1bdc9a5b99d7d95b9960721b81525061046383610b34565b600c54600e546000916104fb916001600160a01b03909116908690610c0f565b600b80546001810182556000919091527f0175b7a638427703f0dbe7bb9bbf987a2551717b34e79f33b5b1008d1fa01db90181905560408051606081018252888152602081018b9052919250810188600581111561055557fe5b815250600a6000838152602001908152602001600020600082015181600001556020820151816001015560408201518160020160006101000a81548160ff021916908360058111156105a357fe5b021790555050505050505050505050565b60006105be610d4e565b6000546001600160a01b039081169116146105eb5760405162461bcd60e51b815260040161020890611538565b6105f4826108e1565b156106115760405162461bcd60e51b815260040161020890611488565b506008805460018101825560009182527ff3f7a9fe364faab93b216da50a3214154f22a0a2b415b23a84c8169e8b636ee3018290555b919050565b610654610d4e565b6000546001600160a01b039081169116146106815760405162461bcd60e51b815260040161020890611538565b600080546040516001600160a01b03909116907f8be0079c531659141344cd1fd0a4f28419497f9722a3daafe3b4186f6b6457e0908390a3600080546001600160a01b0319169055565b600c546001600160a01b031681565b600960209081526000938452604080852082529284528284209052825290205481565b60008281526006602052604090205482906001600160a01b031633146107355760405162461bcd60e51b81526004016102089061159b565b60008181526006602052604080822080546001600160a01b03191690555182917f7cc135e0cebb02c3480ae5d74d377283180a2601f8f644edf7987b009316c63a91a2610780611147565b6000848152600a60209081526040918290208251606081018452815481526001820154928101929092526002810154919290919083019060ff1660058111156107c557fe5b60058111156107d057fe5b9052508051604080830151602084015191519394507fe2f11ee4299271d2204416b3f4f0ebd793470db5409b363f09f36ff3d0f09504936108149392908890611393565b60405180910390a1805160009081526009602052604080822090830151859290600581111561083f57fe5b600581111561084a57fe5b81526020019081526020016000206000836020015181526020019081526020016000208190555050505050565b600b818154811061088457fe5b600091825260209091200154905081565b6000546001600160a01b031690565b600a6020526000908152604090208054600182015460029092015490919060ff1683565b6008818154811061088457fe5b600d5481565b600e5481565b6000805b6008548110156109205782600882815481106108fd57fe5b90600052602060002001541415610918576001915050610647565b6001016108e5565b50600092915050565b610931610d4e565b6000546001600160a01b0390811691161461095e5760405162461bcd60e51b815260040161020890611538565b6001600160a01b0381166109845760405162461bcd60e51b8152600401610208906113ff565b600080546040516001600160a01b03808516939216917f8be0079c531659141344cd1fd0a4f28419497f9722a3daafe3b4186f6b6457e091a3600080546001600160a01b0319166001600160a01b0392909216919091179055565b6109e7611112565b6109ef611112565b6109fb81868686610d52565b95945050505050565b6080830151610a139083610d8f565b6080830151610a229082610d8f565b505050565b606060005b60208160ff16108015610a5a5750828160ff1660208110610a4957fe5b1a60f81b6001600160f81b03191615155b15610a6757600101610a2c565b60608160ff1667ffffffffffffffff81118015610a8357600080fd5b506040519080825280601f01601f191660200182016040528015610aae576020820181803683370190505b509050600091505b60208260ff16108015610ae45750838260ff1660208110610ad357fe5b1a60f81b6001600160f81b03191615155b15610b2d57838260ff1660208110610af857fe5b1a60f81b818360ff1681518110610b0b57fe5b60200101906001600160f81b031916908160001a905350600190910190610ab6565b9392505050565b60608180610b5b5750506040805180820190915260018152600360fc1b6020820152610647565b8060005b8115610b7357600101600a82049150610b5f565b60608167ffffffffffffffff81118015610b8c57600080fd5b506040519080825280601f01601f191660200182016040528015610bb7576020820181803683370190505b50905060001982015b8415610c0557600a850660300160f81b82828060019003935081518110610be357fe5b60200101906001600160f81b031916908160001a905350600a85049450610bc0565b5095945050505050565b600030600554604051602001610c269291906112ba565b60408051808303601f19018152918152815160209283012060055460608701526000818152600690935281832080546001600160a01b0319166001600160a01b038916179055905190925082917fb5e6e01e79f91267dc17b4e6314d5d4d03593d2ceee0fbb452b750bd70ea5af991a26003546001600160a01b0316634000aea08584610cb287610da6565b6040518463ffffffff1660e01b8152600401610cd093929190611358565b602060405180830381600087803b158015610cea57600080fd5b505af1158015610cfe573d6000803e3d6000fd5b505050506040513d601f19601f82011682018060405250810190610d2291906111a8565b610d3e5760405162461bcd60e51b815260040161020890611445565b6005805460010190559392505050565b3390565b610d5a611112565b610d6a8560800151610100610e22565b50509183526001600160a01b031660208301526001600160e01b031916604082015290565b610d9c8260038351610e62565b610a228282610f3c565b6060634042994660e01b60008084600001518560200151866040015187606001516001896080015160000151604051602401610de99897969594939291906112f0565b60408051601f198184030181529190526020810180516001600160e01b03166001600160e01b0319909316929092179091529050919050565b610e2a611167565b6020820615610e3f5760208206602003820191505b506020808301829052604080518085526000815283019091019052815b92915050565b60178111610e8357610e7d8360e0600585901b168317610f56565b50610a22565b60ff8111610ead57610ea0836018611fe0600586901b1617610f56565b50610e7d83826001610f6e565b61ffff8111610ed857610ecb836019611fe0600586901b1617610f56565b50610e7d83826002610f6e565b63ffffffff8111610f0557610ef883601a611fe0600586901b1617610f56565b50610e7d83826004610f6e565b67ffffffffffffffff8111610a2257610f2983601b611fe0600586901b1617610f56565b50610f3683826008610f6e565b50505050565b610f44611167565b610b2d83846000015151848551610f8f565b610f5e611167565b610b2d838460000151518461103b565b610f76611167565b610f87848560000151518585611086565b949350505050565b610f97611167565b8251821115610fa557600080fd5b84602001518285011115610fcf57610fcf85610fc787602001518786016110e4565b6002026110fb565b600080865180518760208301019350808887011115610fee5787860182525b505050602084015b602084106110155780518252601f199093019260209182019101610ff6565b51815160001960208690036101000a019081169019919091161790525083949350505050565b611043611167565b8360200151831061105f5761105f8485602001516002026110fb565b83518051602085830101848153508085141561107c576001810182525b5093949350505050565b61108e611167565b846020015184830111156110ab576110ab858584016002026110fb565b60006001836101000a0390508551838682010185831982511617815250805184870111156110d95783860181525b509495945050505050565b6000818311156110f5575081610e5c565b50919050565b81516111078383610e22565b50610f368382610f3c565b6040805160a081018252600080825260208201819052918101829052606081019190915260808101611142611167565b905290565b604080516060810182526000808252602082018190529091820190611142565b604051806040016040528060608152602001600081525090565b600060208284031215611192578081fd5b81356001600160a01b0381168114610b2d578182fd5b6000602082840312156111b9578081fd5b81518015158114610b2d578182fd5b6000602082840312156111d9578081fd5b5035919050565b600080604083850312156111f2578081fd5b50508035926020909101359150565b600080600060608486031215611215578081fd5b833592506020840135611227816115ee565b929592945050506040919091013590565b600080600060608486031215611215578283fd5b6000806040838503121561125e578182fd5b505080516020909101519092909150565b60008151808452815b8181101561129457602081850181015186830182015201611278565b818111156112a55782602083870101525b50601f01601f19169290920160200192915050565b60609290921b6bffffffffffffffffffffffff19168252601482015260340190565b6001600160a01b0391909116815260200190565b6001600160a01b0389811682526020820189905260408201889052861660608201526001600160e01b03198516608082015260a0810184905260c0810183905261010060e082018190526000906113498382018561126f565b9b9a5050505050505050505050565b600060018060a01b0385168252836020830152606060408301526109fb606083018461126f565b901515815260200190565b90815260200190565b84815260808101600685106113a457fe5b84602083015283604083015282606083015295945050505050565b83815260208101839052606081016113d6836115e3565b6040830152949350505050565b604081016113f0846115e3565b82528260208301529392505050565b60208082526026908201527f4f776e61626c653a206e6577206f776e657220697320746865207a65726f206160408201526564647265737360d01b606082015260800190565b60208082526023908201527f756e61626c6520746f207472616e73666572416e6443616c6c20746f206f7261604082015262636c6560e81b606082015260800190565b6020808252601f908201527f4e6574776f726b206e616d6520616c7265616479207265676973746572656400604082015260600190565b6020808252601b908201527f506572696f6420686173206e6f742066696e6973686564207965740000000000604082015260600190565b60208082526022908201527f416e616c7974696373206f626a65637420616c7265616479207075626c697368604082015261195960f21b606082015260800190565b6020808252818101527f4f776e61626c653a2063616c6c6572206973206e6f7420746865206f776e6572604082015260600190565b602080825260149082015273496e76616c6964206e6574776f726b206e616d6560601b604082015260600190565b60208082526028908201527f536f75726365206d75737420626520746865206f7261636c65206f6620746865604082015267081c995c5d595cdd60c21b606082015260800190565b806006811061064757fe5b600681106115fb57600080fd5b5056fea2646970667358221220f01084d827b05e02b4d91e9597cef6db91761a8f05ede073ecb947d3717074bc64736f6c634300060c0033",
  "immutableReferences": {},
  "source": "pragma solidity ^0.6.0;\npragma experimental ABIEncoderV2;\n\nimport \"@chainlink/contracts/src/v0.6/ChainlinkClient.sol\";\nimport \"@openzeppelin/contracts/access/Ownable.sol\";\nimport \"../StringUtils.sol\";\nimport \"../PeriodRegistry.sol\";\n\n/**\n * @title NetworkAnalytics\n * @dev contract to get the network analytics for the staking efficiency use case\n */\n\ncontract NetworkAnalytics is Ownable, ChainlinkClient, StringUtils {\n    struct AnalyticsRequest {\n        bytes32 networkName;\n        uint256 periodId;\n        PeriodRegistry.PeriodType periodType;\n    }\n\n    /// @dev Period registry\n    PeriodRegistry private periodRegistry;\n    /// @dev bytes32 to store the available network names\n    bytes32[] public networkNames;\n    /// @dev mapping networkName=>periodType=>periodId=>bytes32 to store ipfsHash of the analytics corresponding to periodId\n    mapping(bytes32 => mapping(PeriodRegistry.PeriodType => mapping(uint256 => bytes32)))\n        public periodAnalytics;\n\n    /// @dev Mapping that stores chainlink analytics request information\n    mapping(bytes32 => AnalyticsRequest) public requestIdToAnalyticsRequest;\n    /// @dev Array with all request IDs\n    bytes32[] public requests;\n    /// @dev Chainlink oracle address\n    address public oracle;\n    /// @dev chainlink jobId\n    bytes32 public jobId;\n    /// @dev fee for Chainlink querys. Currently 0.1 LINK\n    uint256 public fee = 0.1 * 10**18;\n\n    /**\n     * @dev event emitted when having a response from Chainlink with the SLI\n     * @param networkName 1. network name\n     * @param periodType 2. id of the period\n     * @param periodId 3. id of the period\n     * @param ipfsHash 4. hash of the ipfs object\n     */\n    event AnalyticsReceived(\n        bytes32 networkName,\n        PeriodRegistry.PeriodType periodType,\n        uint256 periodId,\n        bytes32 ipfsHash\n    );\n\n    /**\n     * @dev parameterize the variables according to network\n     * @notice sets the Chainlink parameters (oracle address, token address, jobId) and sets the SLARegistry to 0x0 address\n     * @param _chainlinkOracle 1. the address of the oracle to create requests to\n     * @param _chainlinkToken 2. the address of LINK token contract\n     * @param _jobId 3. the job id for the HTTPGet job\n     * @param _periodRegistry 4. the job id for the HTTPGet job\n     */\n    constructor(\n        address _chainlinkOracle,\n        address _chainlinkToken,\n        bytes32 _jobId,\n        PeriodRegistry _periodRegistry\n    ) public {\n        jobId = _jobId;\n        setChainlinkToken(_chainlinkToken);\n        oracle = _chainlinkOracle;\n        periodRegistry = _periodRegistry;\n    }\n\n    function isValidNetwork(bytes32 _networkName) public view returns (bool) {\n        for (uint256 index; index < networkNames.length; index++) {\n            if (networkNames[index] == _networkName) return true;\n        }\n        return false;\n    }\n\n    function addNetwork(bytes32 _networkName) public onlyOwner returns (bool) {\n        require(\n            isValidNetwork(_networkName) == false,\n            \"Network name already registered\"\n        );\n        networkNames.push(_networkName);\n        return false;\n    }\n\n    /**\n     * @dev Request analytics object for the current period.\n     * @param _periodId 1. id of the canonical period to be analyzed\n     * @param _periodType 2. type of period to be queried\n     * @param _networkName 2. network name to publish analytics\n     */\n    function requestAnalytics(\n        uint256 _periodId,\n        PeriodRegistry.PeriodType _periodType,\n        bytes32 _networkName\n    ) public {\n        require(isValidNetwork(_networkName), \"Invalid network name\");\n        bool periodIsFinished =\n            periodRegistry.periodIsFinished(_periodType, _periodId);\n        require(periodIsFinished == true, \"Period has not finished yet\");\n        require(\n            periodAnalytics[_networkName][_periodType][_periodId] == \"\",\n            \"Analytics object already published\"\n        );\n\n        Chainlink.Request memory request =\n            buildChainlinkRequest(\n                jobId,\n                address(this),\n                this.fulFillAnalytics.selector\n            );\n\n        (uint256 start, uint256 end) =\n            periodRegistry.getPeriodStartAndEnd(_periodType, _periodId);\n\n        request.add(\"job_type\", \"staking_efficiency_analytics\");\n        request.add(\"network_name\", _bytes32ToStr(_networkName));\n        request.add(\"sla_monitoring_start\", _uintToStr(start));\n        request.add(\"sla_monitoring_end\", _uintToStr(end));\n\n        // Sends the request with 0.1 LINK to the oracle contract\n        bytes32 requestId = sendChainlinkRequestTo(oracle, request, fee);\n        requests.push(requestId);\n        requestIdToAnalyticsRequest[requestId] = AnalyticsRequest({\n            networkName: _networkName,\n            periodId: _periodId,\n            periodType: _periodType\n        });\n    }\n\n    /**\n     * @dev callback function for the Chainlink SLI request which stores\n     * the SLI in the SLA contract\n     * @param _requestId the ID of the ChainLink request\n     * @param _chainlinkResponse response object from Chainlink Oracles\n     */\n    function fulFillAnalytics(bytes32 _requestId, bytes32 _chainlinkResponse)\n        public\n        recordChainlinkFulfillment(_requestId)\n    {\n        AnalyticsRequest memory request =\n            requestIdToAnalyticsRequest[_requestId];\n\n        emit AnalyticsReceived(\n            request.networkName,\n            request.periodType,\n            request.periodId,\n            _chainlinkResponse\n        );\n\n        periodAnalytics[request.networkName][request.periodType][\n            request.periodId\n        ] = _chainlinkResponse;\n    }\n}\n",
  "sourcePath": "/Users/matiasbn/Desktop/stacktical/stacktical-dsla-contracts/contracts/peripherals/NetworkAnalytics.sol",
  "compiler": {
    "name": "solc",
    "version": "0.6.12+commit.27d51765.Emscripten.clang"
  },
  "schemaVersion": "3.3.3",
  "updatedAt": "2021-02-13T23:40:44.732Z",
  "devdoc": {
    "details": "contract to get the network analytics for the staking efficiency use case",
    "events": {
      "AnalyticsReceived(bytes32,uint8,uint256,bytes32)": {
        "details": "event emitted when having a response from Chainlink with the SLI",
        "params": {
          "ipfsHash": "4. hash of the ipfs object",
          "networkName": "1. network name",
          "periodId": "3. id of the period",
          "periodType": "2. id of the period"
        }
      }
    },
    "kind": "dev",
    "methods": {
      "constructor": {
        "details": "parameterize the variables according to network",
        "params": {
          "_chainlinkOracle": "1. the address of the oracle to create requests to",
          "_chainlinkToken": "2. the address of LINK token contract",
          "_jobId": "3. the job id for the HTTPGet job",
          "_periodRegistry": "4. the job id for the HTTPGet job"
        }
      },
      "fulFillAnalytics(bytes32,bytes32)": {
        "details": "callback function for the Chainlink SLI request which stores the SLI in the SLA contract",
        "params": {
          "_chainlinkResponse": "response object from Chainlink Oracles",
          "_requestId": "the ID of the ChainLink request"
        }
      },
      "owner()": {
        "details": "Returns the address of the current owner."
      },
      "renounceOwnership()": {
        "details": "Leaves the contract without owner. It will not be possible to call `onlyOwner` functions anymore. Can only be called by the current owner. NOTE: Renouncing ownership will leave the contract without an owner, thereby removing any functionality that is only available to the owner."
      },
      "requestAnalytics(uint256,uint8,bytes32)": {
        "details": "Request analytics object for the current period.",
        "params": {
          "_networkName": "2. network name to publish analytics",
          "_periodId": "1. id of the canonical period to be analyzed",
          "_periodType": "2. type of period to be queried"
        }
      },
      "transferOwnership(address)": {
        "details": "Transfers ownership of the contract to a new account (`newOwner`). Can only be called by the current owner."
      }
    },
    "stateVariables": {
      "fee": {
        "details": "fee for Chainlink querys. Currently 0.1 LINK"
      },
      "jobId": {
        "details": "chainlink jobId"
      },
      "networkNames": {
        "details": "bytes32 to store the available network names"
      },
      "oracle": {
        "details": "Chainlink oracle address"
      },
      "periodAnalytics": {
        "details": "mapping networkName=>periodType=>periodId=>bytes32 to store ipfsHash of the analytics corresponding to periodId"
      },
      "periodRegistry": {
        "details": "Period registry"
      },
      "requestIdToAnalyticsRequest": {
        "details": "Mapping that stores chainlink analytics request information"
      },
      "requests": {
        "details": "Array with all request IDs"
      }
    },
    "title": "NetworkAnalytics",
    "version": 1
  },
  "userdoc": {
    "kind": "user",
    "methods": {
      "constructor": "sets the Chainlink parameters (oracle address, token address, jobId) and sets the SLARegistry to 0x0 address"
    },
    "version": 1
  }
}