{
  "contractName": "NetworkAnalytics",
  "abi": [
    {
      "inputs": [
        {
          "internalType": "address",
          "name": "_chainlinkOracle",
          "type": "address"
        },
        {
          "internalType": "address",
          "name": "_chainlinkToken",
          "type": "address"
        },
        {
          "internalType": "bytes32",
          "name": "_jobId",
          "type": "bytes32"
        },
        {
          "internalType": "contract PeriodRegistry",
          "name": "_periodRegistry",
          "type": "address"
        },
        {
          "internalType": "contract StakeRegistry",
          "name": "_stakeRegistry",
          "type": "address"
        },
        {
          "internalType": "uint256",
          "name": "_feeMultiplier",
          "type": "uint256"
        }
      ],
      "stateMutability": "nonpayable",
      "type": "constructor"
    },
    {
      "anonymous": false,
      "inputs": [
        {
          "indexed": false,
          "internalType": "bytes32",
          "name": "networkName",
          "type": "bytes32"
        },
        {
          "indexed": false,
          "internalType": "enum PeriodRegistry.PeriodType",
          "name": "periodType",
          "type": "uint8"
        },
        {
          "indexed": false,
          "internalType": "uint256",
          "name": "periodId",
          "type": "uint256"
        },
        {
          "indexed": false,
          "internalType": "bytes32",
          "name": "ipfsHash",
          "type": "bytes32"
        }
      ],
      "name": "AnalyticsReceived",
      "type": "event"
    },
    {
      "anonymous": false,
      "inputs": [
        {
          "indexed": true,
          "internalType": "address",
          "name": "owner",
          "type": "address"
        },
        {
          "indexed": false,
          "internalType": "uint256",
          "name": "newValue",
          "type": "uint256"
        }
      ],
      "name": "CallerRewardModified",
      "type": "event"
    },
    {
      "anonymous": false,
      "inputs": [
        {
          "indexed": true,
          "internalType": "bytes32",
          "name": "id",
          "type": "bytes32"
        }
      ],
      "name": "ChainlinkCancelled",
      "type": "event"
    },
    {
      "anonymous": false,
      "inputs": [
        {
          "indexed": true,
          "internalType": "bytes32",
          "name": "id",
          "type": "bytes32"
        }
      ],
      "name": "ChainlinkFulfilled",
      "type": "event"
    },
    {
      "anonymous": false,
      "inputs": [
        {
          "indexed": true,
          "internalType": "bytes32",
          "name": "id",
          "type": "bytes32"
        }
      ],
      "name": "ChainlinkRequested",
      "type": "event"
    },
    {
      "anonymous": false,
      "inputs": [
        {
          "indexed": true,
          "internalType": "address",
          "name": "owner",
          "type": "address"
        },
        {
          "indexed": false,
          "internalType": "bytes32",
          "name": "jobId",
          "type": "bytes32"
        },
        {
          "indexed": false,
          "internalType": "uint256",
          "name": "fee",
          "type": "uint256"
        }
      ],
      "name": "JobIdModified",
      "type": "event"
    },
    {
      "anonymous": false,
      "inputs": [
        {
          "indexed": true,
          "internalType": "address",
          "name": "previousOwner",
          "type": "address"
        },
        {
          "indexed": true,
          "internalType": "address",
          "name": "newOwner",
          "type": "address"
        }
      ],
      "name": "OwnershipTransferred",
      "type": "event"
    },
    {
      "inputs": [],
      "name": "callerReward",
      "outputs": [
        {
          "internalType": "uint256",
          "name": "",
          "type": "uint256"
        }
      ],
      "stateMutability": "view",
      "type": "function",
      "constant": true
    },
    {
      "inputs": [],
      "name": "fee",
      "outputs": [
        {
          "internalType": "uint256",
          "name": "",
          "type": "uint256"
        }
      ],
      "stateMutability": "view",
      "type": "function",
      "constant": true
    },
    {
      "inputs": [
        {
          "internalType": "uint256",
          "name": "",
          "type": "uint256"
        }
      ],
      "name": "networkNames",
      "outputs": [
        {
          "internalType": "bytes32",
          "name": "",
          "type": "bytes32"
        }
      ],
      "stateMutability": "view",
      "type": "function",
      "constant": true
    },
    {
      "inputs": [],
      "name": "owner",
      "outputs": [
        {
          "internalType": "address",
          "name": "",
          "type": "address"
        }
      ],
      "stateMutability": "view",
      "type": "function",
      "constant": true
    },
    {
      "inputs": [
        {
          "internalType": "bytes32",
          "name": "",
          "type": "bytes32"
        },
        {
          "internalType": "enum PeriodRegistry.PeriodType",
          "name": "",
          "type": "uint8"
        },
        {
          "internalType": "uint256",
          "name": "",
          "type": "uint256"
        }
      ],
      "name": "periodAnalytics",
      "outputs": [
        {
          "internalType": "bytes32",
          "name": "",
          "type": "bytes32"
        }
      ],
      "stateMutability": "view",
      "type": "function",
      "constant": true
    },
    {
      "inputs": [
        {
          "internalType": "bytes32",
          "name": "",
          "type": "bytes32"
        },
        {
          "internalType": "enum PeriodRegistry.PeriodType",
          "name": "",
          "type": "uint8"
        },
        {
          "internalType": "uint256",
          "name": "",
          "type": "uint256"
        }
      ],
      "name": "periodAnalyticsRequested",
      "outputs": [
        {
          "internalType": "bool",
          "name": "",
          "type": "bool"
        }
      ],
      "stateMutability": "view",
      "type": "function",
      "constant": true
    },
    {
      "inputs": [],
      "name": "renounceOwnership",
      "outputs": [],
      "stateMutability": "nonpayable",
      "type": "function"
    },
    {
      "inputs": [
        {
          "internalType": "bytes32",
          "name": "",
          "type": "bytes32"
        }
      ],
      "name": "requestIdToAnalyticsRequest",
      "outputs": [
        {
          "internalType": "bytes32",
          "name": "networkName",
          "type": "bytes32"
        },
        {
          "internalType": "uint256",
          "name": "periodId",
          "type": "uint256"
        },
        {
          "internalType": "enum PeriodRegistry.PeriodType",
          "name": "periodType",
          "type": "uint8"
        }
      ],
      "stateMutability": "view",
      "type": "function",
      "constant": true
    },
    {
      "inputs": [
        {
          "internalType": "uint256",
          "name": "",
          "type": "uint256"
        }
      ],
      "name": "requests",
      "outputs": [
        {
          "internalType": "bytes32",
          "name": "",
          "type": "bytes32"
        }
      ],
      "stateMutability": "view",
      "type": "function",
      "constant": true
    },
    {
      "inputs": [
        {
          "internalType": "address",
          "name": "newOwner",
          "type": "address"
        }
      ],
      "name": "transferOwnership",
      "outputs": [],
      "stateMutability": "nonpayable",
      "type": "function"
    },
    {
      "inputs": [
        {
          "internalType": "bytes32",
          "name": "_networkName",
          "type": "bytes32"
        }
      ],
      "name": "isValidNetwork",
      "outputs": [
        {
          "internalType": "bool",
          "name": "",
          "type": "bool"
        }
      ],
      "stateMutability": "view",
      "type": "function",
      "constant": true
    },
    {
      "inputs": [
        {
          "internalType": "bytes32",
          "name": "_networkName",
          "type": "bytes32"
        }
      ],
      "name": "addNetwork",
      "outputs": [
        {
          "internalType": "bool",
          "name": "",
          "type": "bool"
        }
      ],
      "stateMutability": "nonpayable",
      "type": "function"
    },
    {
      "inputs": [
        {
          "internalType": "bytes32[]",
          "name": "_networkNames",
          "type": "bytes32[]"
        }
      ],
      "name": "addMultipleNetworks",
      "outputs": [
        {
          "internalType": "bool",
          "name": "",
          "type": "bool"
        }
      ],
      "stateMutability": "nonpayable",
      "type": "function"
    },
    {
      "inputs": [
        {
          "internalType": "uint256",
          "name": "_periodId",
          "type": "uint256"
        },
        {
          "internalType": "enum PeriodRegistry.PeriodType",
          "name": "_periodType",
          "type": "uint8"
        },
        {
          "internalType": "bytes32",
          "name": "_networkName",
          "type": "bytes32"
        },
        {
          "internalType": "bool",
          "name": "_ownerApproval",
          "type": "bool"
        },
        {
          "internalType": "bool",
          "name": "_callerReward",
          "type": "bool"
        }
      ],
      "name": "requestAnalytics",
      "outputs": [],
      "stateMutability": "nonpayable",
      "type": "function"
    },
    {
      "inputs": [
        {
          "internalType": "bytes32",
          "name": "_requestId",
          "type": "bytes32"
        },
        {
          "internalType": "bytes32",
          "name": "_chainlinkResponse",
          "type": "bytes32"
        }
      ],
      "name": "fulFillAnalytics",
      "outputs": [],
      "stateMutability": "nonpayable",
      "type": "function"
    },
    {
      "inputs": [
        {
          "internalType": "bytes32",
          "name": "_jobId",
          "type": "bytes32"
        },
        {
          "internalType": "uint256",
          "name": "_feeMultiplier",
          "type": "uint256"
        }
      ],
      "name": "setChainlinkJobID",
      "outputs": [],
      "stateMutability": "nonpayable",
      "type": "function"
    },
    {
      "inputs": [
        {
          "internalType": "uint256",
          "name": "_callerReward",
          "type": "uint256"
        }
      ],
      "name": "setCallerReward",
      "outputs": [],
      "stateMutability": "nonpayable",
      "type": "function"
    },
    {
      "inputs": [],
      "name": "getNetworkNames",
      "outputs": [
        {
          "internalType": "bytes32[]",
          "name": "networks",
          "type": "bytes32[]"
        }
      ],
      "stateMutability": "view",
      "type": "function",
      "constant": true
    }
  ],
  "bytecode": "0x6080604052600160055567016345785d8a000060105560006012553480156200002757600080fd5b50604051620020f8380380620020f88339810160408190526200004a9162000134565b60006200005f6001600160e01b036200010e16565b600080546001600160a01b0319166001600160a01b0383169081178255604051929350917f8be0079c531659141344cd1fd0a4f28419497f9722a3daafe3b4186f6b6457e0908290a350600f849055620000c2856001600160e01b036200011216565b600e80546001600160a01b03199081166001600160a01b0398891617909155600780548216948816949094179093556008805490931691909516179055505060105402601155620001c8565b3390565b600380546001600160a01b0319166001600160a01b0392909216919091179055565b60008060008060008060c087890312156200014d578182fd5b86516200015a81620001af565b60208801519096506200016d81620001af565b6040880151606089015191965094506200018781620001af565b60808801519093506200019a81620001af565b8092505060a087015190509295509295509295565b6001600160a01b0381168114620001c557600080fd5b50565b611f2080620001d86000396000f3fe608060405234801561001057600080fd5b50600436106100f55760003560e01c806381d12c581161009257806381d12c58146101b65780638da5cb5b146101c95780639b452323146101de578063a0a2f05414610200578063a34fe83f14610213578063ddca3f4314610226578063e1dd46a11461022e578063f2fde38b14610241578063f855173814610254576100f5565b8062213504146100fa57806317c6066f14610123578063292733bf146101365780633cc89a401461014b5780633e68ac681461016057806368fe2cdd14610173578063715018a6146101885780637e0ce269146101905780638190f341146101a3575b600080fd5b61010d61010836600461182b565b610267565b60405161011a9190611b54565b60405180910390f35b61010d6101313660046118df565b610314565b61014961014436600461194d565b6103aa565b005b61015361042c565b60405161011a9190611b5f565b61010d61016e366004611918565b610432565b61017b610458565b60405161011a9190611b10565b6101496104b0565b61015361019e366004611918565b61052f565b6101496101b13660046118f7565b610552565b6101536101c43660046118df565b6106cc565b6101d16106ea565b60405161011a9190611a49565b6101f16101ec3660046118df565b6106f9565b60405161011a93929190611b9d565b61015361020e3660046118df565b61071d565b6101496102213660046118df565b61072a565b6101536107a1565b61010d61023c3660046118df565b6107a7565b61014961024f3660046117f3565b6107e6565b61014961026236600461195f565b61089c565b6000610271610e2c565b6000546001600160a01b039081169116146102a75760405162461bcd60e51b815260040161029e90611ce3565b60405180910390fd5b60005b8251811015610309576102cf8382815181106102c257fe5b60200260200101516107a7565b6103015760098382815181106102e157fe5b602090810291909101810151825460018101845560009384529190922001555b6001016102aa565b50600090505b919050565b600061031e610e2c565b6000546001600160a01b0390811691161461034b5760405162461bcd60e51b815260040161029e90611ce3565b610354826107a7565b156103715760405162461bcd60e51b815260040161029e90611c75565b506009805460018101825560009182527f6e1540171b6c0c960b71a7020d9f60077f6af931a8bbf590da0223dacf75c7af019190915590565b6103b2610e2c565b6000546001600160a01b039081169116146103df5760405162461bcd60e51b815260040161029e90611ce3565b600f8290556010548102601181905560405133917f8e7e22d2820965fa1a8fa3ad76db76127e2f1baaf65f50c4e267f28b2254f7cb91610420918691611b8f565b60405180910390a25050565b60125481565b600b60209081526000938452604080852082529284528284209052825290205460ff1681565b606060098054806020026020016040519081016040528092919081815260200182805480156104a657602002820191906000526020600020905b815481526020019060010190808311610492575b5050505050905090565b6104b8610e2c565b6000546001600160a01b039081169116146104e55760405162461bcd60e51b815260040161029e90611ce3565b600080546040516001600160a01b03909116907f8be0079c531659141344cd1fd0a4f28419497f9722a3daafe3b4186f6b6457e0908390a3600080546001600160a01b0319169055565b600a60209081526000938452604080852082529284528284209052825290205481565b60008281526006602052604090205482906001600160a01b0316331461058a5760405162461bcd60e51b815260040161029e90611db4565b60008181526006602052604080822080546001600160a01b03191690555182917f7cc135e0cebb02c3480ae5d74d377283180a2601f8f644edf7987b009316c63a91a26105d561177d565b6000848152600c60209081526040918290208251606081018452815481526001820154928101929092526002810154919290919083019060ff16600581111561061a57fe5b600581111561062557fe5b9052508051604080830151602084015191519394507fe2f11ee4299271d2204416b3f4f0ebd793470db5409b363f09f36ff3d0f09504936106699392908890611b68565b60405180910390a180516000908152600a602052604080822090830151859290600581111561069457fe5b600581111561069f57fe5b81526020019081526020016000206000836020015181526020019081526020016000208190555050505050565b600d81815481106106d957fe5b600091825260209091200154905081565b6000546001600160a01b031690565b600c6020526000908152604090208054600182015460029092015490919060ff1683565b600981815481106106d957fe5b610732610e2c565b6000546001600160a01b0390811691161461075f5760405162461bcd60e51b815260040161029e90611ce3565b601281905560405133907f27ad6b2711f5b7ac8c019c9fe937e64018c1d442f51971fffdf3097e15bf911490610796908490611b5f565b60405180910390a250565b60115481565b6000805b6009548110156103095782600982815481106107c357fe5b906000526020600020015414156107de57600191505061030f565b6001016107ab565b6107ee610e2c565b6000546001600160a01b0390811691161461081b5760405162461bcd60e51b815260040161029e90611ce3565b6001600160a01b0381166108415760405162461bcd60e51b815260040161029e90611bec565b600080546040516001600160a01b03808516939216917f8be0079c531659141344cd1fd0a4f28419497f9722a3daafe3b4186f6b6457e091a3600080546001600160a01b0319166001600160a01b0392909216919091179055565b6108a5836107a7565b6108c15760405162461bcd60e51b815260040161029e90611d4f565b6007546040516331edb3ad60e21b81526000916001600160a01b03169063c7b6ceb4906108f49088908a90600401611bc1565b60206040518083038186803b15801561090c57600080fd5b505afa158015610920573d6000803e3d6000fd5b505050506040513d601f19601f8201168201806040525081019061094491906118c3565b90506001811515146109685760405162461bcd60e51b815260040161029e90611cac565b6000848152600b602052604081209086600581111561098357fe5b600581111561098e57fe5b81526020808201929092526040908101600090812089825290925290205460ff16156109cc5760405162461bcd60e51b815260040161029e90611d18565b8215610a0557610a006109dd6106ea565b306011546109e9610e30565b6001600160a01b031692919063ffffffff610e3f16565b610a15565b610a1533306011546109e9610e30565b8115610ac35760085460408051638b8e530960e01b815290516000926001600160a01b031691638b8e5309916004808301926020929190829003018186803b158015610a6057600080fd5b505afa158015610a74573d6000803e3d6000fd5b505050506040513d601f19601f82011682018060405250810190610a98919061180f565b9050610ac1610aa56106ea565b6012546001600160a01b0384169190339063ffffffff610e3f16565b505b610acb61179e565b600f54610ae09030638190f34160e01b610e9d565b60075460405160016259edcb60e01b0319815291925060009182916001600160a01b03169063ffa6123590610b1b908b908d90600401611bc1565b604080518083038186803b158015610b3257600080fd5b505afa158015610b46573d6000803e3d6000fd5b505050506040513d601f19601f82011682018060405250810190610b6a91906119bc565b91509150610bd8604051806040016040528060088152602001676a6f625f7479706560c01b8152506040518060400160405280601c81526020017f7374616b696e675f656666696369656e63795f616e616c79746963730000000081525085610ec89092919063ffffffff16565b610c176040518060400160405280600c81526020016b6e6574776f726b5f6e616d6560a01b815250610c0989610ef7565b85919063ffffffff610ec816565b610c45604051806040016040528060098152602001681c195c9a5bd917da5960ba1b815250610c098b611004565b610c836040518060400160405280600b81526020016a706572696f645f7479706560a81b815250610c098a6005811115610c7b57fe5b60ff16611004565b610cbc604051806040016040528060148152602001731cdb1857db5bdb9a5d1bdc9a5b99d7dcdd185c9d60621b815250610c0984611004565b610cf3604051806040016040528060128152602001711cdb1857db5bdb9a5d1bdc9a5b99d7d95b9960721b815250610c0983611004565b600e54601154600091610d13916001600160a01b039091169086906110df565b600d80546001810182556000919091527fd7b6990105719101dabeb77144f2a3385c8033acd3af97e9423a695e81ad1eb501819055604080516060810182528a8152602081018d905291925081018a6005811115610d6d57fe5b815250600c6000838152602001908152602001600020600082015181600001556020820151816001015560408201518160020160006101000a81548160ff02191690836005811115610dbb57fe5b021790555050506000888152600b602052604081206001918b6005811115610ddf57fe5b6005811115610dea57fe5b815260200190815260200160002060008c815260200190815260200160002060006101000a81548160ff02191690831515021790555050505050505050505050565b3390565b6003546001600160a01b031690565b610e97846323b872dd60e01b858585604051602401610e6093929190611a5d565b60408051601f198184030181529190526020810180516001600160e01b03166001600160e01b03199093169290921790915261121e565b50505050565b610ea561179e565b610ead61179e565b610ebf8186868663ffffffff6112ad16565b95945050505050565b6080830151610edd908363ffffffff6112f316565b6080830151610ef2908263ffffffff6112f316565b505050565b606060005b60208160ff16108015610f2a5750828160ff1660208110610f1957fe5b1a60f81b6001600160f81b03191615155b15610f3757600101610efc565b60608160ff1667ffffffffffffffff81118015610f5357600080fd5b506040519080825280601f01601f191660200182016040528015610f7e576020820181803683370190505b509050600091505b60208260ff16108015610fb45750838260ff1660208110610fa357fe5b1a60f81b6001600160f81b03191615155b15610ffd57838260ff1660208110610fc857fe5b1a60f81b818360ff1681518110610fdb57fe5b60200101906001600160f81b031916908160001a905350600190910190610f86565b9392505050565b6060818061102b5750506040805180820190915260018152600360fc1b602082015261030f565b8060005b811561104357600101600a8204915061102f565b60608167ffffffffffffffff8111801561105c57600080fd5b506040519080825280601f01601f191660200182016040528015611087576020820181803683370190505b50905060001982015b84156110d557600a850660300160f81b828280600190039350815181106110b357fe5b60200101906001600160f81b031916908160001a905350600a85049450611090565b5095945050505050565b6000306005546040516020016110f6929190611a27565b60408051808303601f19018152918152815160209283012060055460608701526000818152600690935281832080546001600160a01b0319166001600160a01b038916179055905190925082917fb5e6e01e79f91267dc17b4e6314d5d4d03593d2ceee0fbb452b750bd70ea5af991a26003546001600160a01b0316634000aea0858461118287611310565b6040518463ffffffff1660e01b81526004016111a093929190611ae9565b602060405180830381600087803b1580156111ba57600080fd5b505af11580156111ce573d6000803e3d6000fd5b505050506040513d601f19601f820116820180604052508101906111f291906118c3565b61120e5760405162461bcd60e51b815260040161029e90611c32565b6005805460010190559392505050565b6060611273826040518060400160405280602081526020017f5361666545524332303a206c6f772d6c6576656c2063616c6c206661696c6564815250856001600160a01b031661138c9092919063ffffffff16565b805190915015610ef2578080602001905181019061129191906118c3565b610ef25760405162461bcd60e51b815260040161029e90611dfc565b6112b561179e565b6112c5856080015161010061139b565b50508284526001600160a01b03821660208501526001600160e01b031981166040850152835b949350505050565b61130082600383516113db565b610ef2828263ffffffff6114e516565b6060634042994660e01b60008084600001518560200151866040015187606001516001896080015160000151604051602401611353989796959493929190611a81565b60408051601f198184030181529190526020810180516001600160e01b03166001600160e01b0319909316929092179091529050919050565b60606112eb84846000856114ff565b6113a36117ca565b60208206156113b85760208206602003820191505b506020808301829052604080518085526000815283019091019052815b92915050565b60178111611402576113fc8360e0600585901b16831763ffffffff6115c316565b50610ef2565b60ff811161143857611425836018611fe0600586901b161763ffffffff6115c316565b506113fc8382600163ffffffff6115db16565b61ffff811161146f5761145c836019611fe0600586901b161763ffffffff6115c316565b506113fc8382600263ffffffff6115db16565b63ffffffff81116114a85761149583601a611fe0600586901b161763ffffffff6115c316565b506113fc8382600463ffffffff6115db16565b67ffffffffffffffff8111610ef2576114d283601b611fe0600586901b161763ffffffff6115c316565b50610e978382600863ffffffff6115db16565b6114ed6117ca565b610ffd838460000151518485516115f4565b606061150a856116a0565b6115265760405162461bcd60e51b815260040161029e90611d7d565b60006060866001600160a01b031685876040516115439190611a0b565b60006040518083038185875af1925050503d8060008114611580576040519150601f19603f3d011682016040523d82523d6000602084013e611585565b606091505b509150915081156115995791506112eb9050565b8051156115a95780518082602001fd5b8360405162461bcd60e51b815260040161029e9190611bd9565b6115cb6117ca565b610ffd83846000015151846116a6565b6115e36117ca565b6112eb8485600001515185856116f1565b6115fc6117ca565b825182111561160a57600080fd5b84602001518285011115611634576116348561162c876020015187860161174f565b600202611766565b6000808651805187602083010193508088870111156116535787860182525b505050602084015b6020841061167a5780518252601f19909301926020918201910161165b565b51815160001960208690036101000a019081169019919091161790525083949350505050565b3b151590565b6116ae6117ca565b836020015183106116ca576116ca848560200151600202611766565b8351805160208583010184815350808514156116e7576001810182525b5093949350505050565b6116f96117ca565b846020015184830111156117165761171685858401600202611766565b60006001836101000a0390508551838682010185831982511617815250805184870111156117445783860181525b509495945050505050565b6000818311156117605750816113d5565b50919050565b8151611772838361139b565b50610e9783826114e5565b6040805160608101825260008082526020820181905290918201905b905290565b6040805160a0810182526000808252602082018190529181018290526060810191909152608081016117995b604051806040016040528060608152602001600081525090565b8035600681106113d557600080fd5b600060208284031215611804578081fd5b8135610ffd81611ec4565b600060208284031215611820578081fd5b8151610ffd81611ec4565b6000602080838503121561183d578182fd5b823567ffffffffffffffff811115611853578283fd5b80840185601f820112611864578384fd5b8035915061187961187483611e6d565b611e46565b8281528381019082850185850284018601891015611895578687fd5b8693505b848410156118b7578035835260019390930192918501918501611899565b50979650505050505050565b6000602082840312156118d4578081fd5b8151610ffd81611edc565b6000602082840312156118f0578081fd5b5035919050565b60008060408385031215611909578081fd5b50508035926020909101359150565b60008060006060848603121561192c578081fd5b8335925061193d85602086016117e4565b9150604084013590509250925092565b60008060408385031215611909578182fd5b600080600080600060a08688031215611976578081fd5b8535945061198787602088016117e4565b935060408601359250606086013561199e81611edc565b915060808601356119ae81611edc565b809150509295509295909350565b600080604083850312156119ce578182fd5b505080516020909101519092909150565b600081518084526119f7816020860160208601611e98565b601f01601f19169290920160200192915050565b60008251611a1d818460208701611e98565b9190910192915050565b60609290921b6bffffffffffffffffffffffff19168252601482015260340190565b6001600160a01b0391909116815260200190565b6001600160a01b039384168152919092166020820152604081019190915260600190565b6001600160a01b0389811682526020820189905260408201889052861660608201526001600160e01b03198516608082015260a0810184905260c0810183905261010060e08201819052600090611ada838201856119df565b9b9a5050505050505050505050565b600060018060a01b038516825283602083015260606040830152610ebf60608301846119df565b6020808252825182820181905260009190848201906040850190845b81811015611b4857835183529284019291840191600101611b2c565b50909695505050505050565b901515815260200190565b90815260200190565b84815260808101611b7885611e8d565b602083015260408201939093526060015292915050565b918252602082015260400190565b8381526020810183905260608101611bb483611e8d565b6040830152949350505050565b6040810160068410611bcf57fe5b9281526020015290565b600060208252610ffd60208301846119df565b60208082526026908201527f4f776e61626c653a206e6577206f776e657220697320746865207a65726f206160408201526564647265737360d01b606082015260800190565b60208082526023908201527f756e61626c6520746f207472616e73666572416e6443616c6c20746f206f7261604082015262636c6560e81b606082015260800190565b6020808252601f908201527f4e6574776f726b206e616d6520616c7265616479207265676973746572656400604082015260600190565b6020808252601b908201527f506572696f6420686173206e6f742066696e6973686564207965740000000000604082015260600190565b6020808252818101527f4f776e61626c653a2063616c6c6572206973206e6f7420746865206f776e6572604082015260600190565b6020808252601b908201527f416e616c797469637320616c7265616479207265717565737465640000000000604082015260600190565b602080825260149082015273496e76616c6964206e6574776f726b206e616d6560601b604082015260600190565b6020808252601d908201527f416464726573733a2063616c6c20746f206e6f6e2d636f6e7472616374000000604082015260600190565b60208082526028908201527f536f75726365206d75737420626520746865206f7261636c65206f6620746865604082015267081c995c5d595cdd60c21b606082015260800190565b6020808252602a908201527f5361666545524332303a204552433230206f7065726174696f6e20646964206e6040820152691bdd081cdd58d8d9595960b21b606082015260800190565b60405181810167ffffffffffffffff81118282101715611e6557600080fd5b604052919050565b600067ffffffffffffffff821115611e83578081fd5b5060209081020190565b806006811061030f57fe5b60005b83811015611eb3578181015183820152602001611e9b565b83811115610e975750506000910152565b6001600160a01b0381168114611ed957600080fd5b50565b8015158114611ed957600080fdfea264697066735822122032acb929c9f1d97c2a12c2a7d2b397f6517a65ab4155b4918cabc1ff44f5fea664736f6c63430006060033",
  "immutableReferences": {},
  "source": "pragma solidity 0.6.6;\npragma experimental ABIEncoderV2;\n\nimport \"@chainlink/contracts/src/v0.6/ChainlinkClient.sol\";\nimport \"@openzeppelin/contracts/access/Ownable.sol\";\nimport \"@openzeppelin/contracts/token/ERC20/ERC20.sol\";\nimport \"@openzeppelin/contracts/token/ERC20/SafeERC20.sol\";\nimport \"../StringUtils.sol\";\nimport \"../PeriodRegistry.sol\";\nimport \"../StakeRegistry.sol\";\n\n/**\n * @title NetworkAnalytics\n * @dev contract to get the network analytics for the staking efficiency use case\n */\n\ncontract NetworkAnalytics is Ownable, ChainlinkClient, StringUtils {\n    using SafeERC20 for ERC20;\n\n    struct AnalyticsRequest {\n        bytes32 networkName;\n        uint256 periodId;\n        PeriodRegistry.PeriodType periodType;\n    }\n\n    /// @dev Period registry\n    PeriodRegistry private periodRegistry;\n    /// @dev StakeRegistry\n    StakeRegistry private stakeRegistry;\n\n    /// @dev bytes32 to store the available network names\n    bytes32[] public networkNames;\n    /// @dev (networkName=>periodType=>periodId=>bytes32) to store ipfsHash of the analytics corresponding to periodId\n    mapping(bytes32 => mapping(PeriodRegistry.PeriodType => mapping(uint256 => bytes32)))\n        public periodAnalytics;\n    /// @dev (networkName=>periodType=>periodId=>bool) to state if a network-periodType-periodId was already requested\n    mapping(bytes32 => mapping(PeriodRegistry.PeriodType => mapping(uint256 => bool)))\n        public periodAnalyticsRequested;\n\n    /// @dev Mapping that stores chainlink analytics request information\n    mapping(bytes32 => AnalyticsRequest) public requestIdToAnalyticsRequest;\n    /// @dev Array with all request IDs\n    bytes32[] public requests;\n    /// @dev Chainlink oracle address\n    address private oracle;\n    /// @dev chainlink jobId\n    bytes32 private jobId;\n    /// @dev fee for Chainlink querys. Currently 0.1 LINK\n    uint256 private baseFee = 0.1 ether;\n    /// @dev fee for Chainlink querys. Currently 0.1 LINK\n    uint256 public fee;\n    /// @dev fee for Chainlink querys. Currently 0.1 LINK\n    uint256 public callerReward = 0 ether;\n\n    /**\n     * @dev event emitted when modifying the callerReward\n     * @param owner 1. -\n     * @param newValue 2. -\n     */\n    event CallerRewardModified(address indexed owner, uint256 newValue);\n\n    /**\n     * @dev event emitted when modifying the jobId\n     * @param owner 1. -\n     * @param jobId 2. -\n     * @param fee 3. -\n     */\n    event JobIdModified(address indexed owner, bytes32 jobId, uint256 fee);\n\n    /**\n     * @dev event emitted when having a response from Chainlink with the SLI\n     * @param networkName 1. network name\n     * @param periodType 2. id of the period\n     * @param periodId 3. id of the period\n     * @param ipfsHash 4. hash of the ipfs object\n     */\n    event AnalyticsReceived(\n        bytes32 networkName,\n        PeriodRegistry.PeriodType periodType,\n        uint256 periodId,\n        bytes32 ipfsHash\n    );\n\n    /**\n     * @dev parameterize the variables according to network\n     * @notice sets the Chainlink parameters (oracle address, token address, jobId) and sets the SLARegistry to 0x0 address\n     * @param _chainlinkOracle 1. the address of the oracle to create requests to\n     * @param _chainlinkToken 2. the address of LINK token contract\n     * @param _jobId 3. the job id for the HTTPGet job\n     * @param _periodRegistry 4. period registry\n     * @param _stakeRegistry 5. stake registry\n     * @param _feeMultiplier 6. states the amount of paid nodes running behind the precoordinator, to set the fee\n     */\n    constructor(\n        address _chainlinkOracle,\n        address _chainlinkToken,\n        bytes32 _jobId,\n        PeriodRegistry _periodRegistry,\n        StakeRegistry _stakeRegistry,\n        uint256 _feeMultiplier\n    ) public {\n        jobId = _jobId;\n        setChainlinkToken(_chainlinkToken);\n        oracle = _chainlinkOracle;\n        periodRegistry = _periodRegistry;\n        stakeRegistry = _stakeRegistry;\n        fee = _feeMultiplier * baseFee;\n    }\n\n    function isValidNetwork(bytes32 _networkName) public view returns (bool) {\n        for (uint256 index; index < networkNames.length; index++) {\n            if (networkNames[index] == _networkName) return true;\n        }\n        return false;\n    }\n\n    /**\n     * @dev function to add a valid network name\n     * @param _networkName 1. bytes32 network name\n     */\n    function addNetwork(bytes32 _networkName) public onlyOwner returns (bool) {\n        require(\n            isValidNetwork(_networkName) == false,\n            \"Network name already registered\"\n        );\n        networkNames.push(_networkName);\n        return false;\n    }\n\n    /**\n     * @dev function to add multiple valid network names\n     * @param _networkNames 1. bytes32[] network names\n     */\n    function addMultipleNetworks(bytes32[] memory _networkNames)\n        public\n        onlyOwner\n        returns (bool)\n    {\n        for (uint256 index = 0; index < _networkNames.length; index++) {\n            if (!isValidNetwork(_networkNames[index])) {\n                networkNames.push(_networkNames[index]);\n            }\n        }\n        return false;\n    }\n\n    /**\n     * @dev Request analytics object for the current period.\n     * @param _periodId 1. id of the canonical period to be analyzed\n     * @param _periodType 2. type of period to be queried\n     * @param _networkName 3. network name to publish analytics\n     * @param _ownerApproval 4. used to choose if the call is going to be funded by the contract owner, to avoid a block by contract owner\n     * @param _callerReward 5. used to choose if the call is going to be rewarded by the contract owner, to avoid a block by contract owner\n     */\n    function requestAnalytics(\n        uint256 _periodId,\n        PeriodRegistry.PeriodType _periodType,\n        bytes32 _networkName,\n        bool _ownerApproval,\n        bool _callerReward\n    ) public {\n        require(isValidNetwork(_networkName), \"Invalid network name\");\n        bool periodIsFinished =\n            periodRegistry.periodIsFinished(_periodType, _periodId);\n        require(periodIsFinished == true, \"Period has not finished yet\");\n        require(\n            periodAnalyticsRequested[_networkName][_periodType][_periodId] ==\n                false,\n            \"Analytics already requested\"\n        );\n        if (_ownerApproval) {\n            ERC20(chainlinkTokenAddress()).safeTransferFrom(\n                owner(),\n                address(this),\n                fee\n            );\n        } else {\n            ERC20(chainlinkTokenAddress()).safeTransferFrom(\n                msg.sender,\n                address(this),\n                fee\n            );\n        }\n\n        if (_callerReward) {\n            address dslaTokenAddress = stakeRegistry.DSLATokenAddress();\n            ERC20(dslaTokenAddress).safeTransferFrom(\n                owner(),\n                msg.sender,\n                callerReward\n            );\n        }\n\n        Chainlink.Request memory request =\n            buildChainlinkRequest(\n                jobId,\n                address(this),\n                this.fulFillAnalytics.selector\n            );\n\n        (uint256 start, uint256 end) =\n            periodRegistry.getPeriodStartAndEnd(_periodType, _periodId);\n\n        request.add(\"job_type\", \"staking_efficiency_analytics\");\n        request.add(\"network_name\", _bytes32ToStr(_networkName));\n        request.add(\"period_id\", _uintToStr(_periodId));\n        request.add(\"period_type\", _uintToStr(uint256(uint8(_periodType))));\n        request.add(\"sla_monitoring_start\", _uintToStr(start));\n        request.add(\"sla_monitoring_end\", _uintToStr(end));\n\n        bytes32 requestId = sendChainlinkRequestTo(oracle, request, fee);\n        requests.push(requestId);\n        requestIdToAnalyticsRequest[requestId] = AnalyticsRequest({\n            networkName: _networkName,\n            periodId: _periodId,\n            periodType: _periodType\n        });\n        periodAnalyticsRequested[_networkName][_periodType][_periodId] = true;\n    }\n\n    /**\n     * @dev callback function for the Chainlink SLI request which stores\n     * the SLI in the SLA contract\n     * @param _requestId the ID of the ChainLink request\n     * @param _chainlinkResponse response object from Chainlink Oracles\n     */\n    function fulFillAnalytics(bytes32 _requestId, bytes32 _chainlinkResponse)\n        public\n        recordChainlinkFulfillment(_requestId)\n    {\n        AnalyticsRequest memory request =\n            requestIdToAnalyticsRequest[_requestId];\n\n        emit AnalyticsReceived(\n            request.networkName,\n            request.periodType,\n            request.periodId,\n            _chainlinkResponse\n        );\n\n        periodAnalytics[request.networkName][request.periodType][\n            request.periodId\n        ] = _chainlinkResponse;\n    }\n\n    /**\n     * @dev sets a new jobId, which is a agreement Id of a PreCoordinator contract\n     * @param _jobId the id of the PreCoordinator agreement\n     * @param _feeMultiplier how many Chainlink nodes would be paid on the agreement id, to set the fee value\n     */\n    function setChainlinkJobID(bytes32 _jobId, uint256 _feeMultiplier)\n        public\n        onlyOwner\n    {\n        jobId = _jobId;\n        fee = _feeMultiplier * baseFee;\n        emit JobIdModified(msg.sender, _jobId, fee);\n    }\n\n    /**\n     * @param _callerReward 1. uint256 new caller reward\n     */\n    function setCallerReward(uint256 _callerReward) public onlyOwner {\n        callerReward = _callerReward;\n        emit CallerRewardModified(msg.sender, _callerReward);\n    }\n\n    function getNetworkNames() public view returns (bytes32[] memory networks) {\n        networks = networkNames;\n    }\n}\n",
  "sourcePath": "/Users/matiasbn/Desktop/stacktical/stacktical-dsla-contracts/contracts/staking-efficiency/NetworkAnalytics.sol",
  "compiler": {
    "name": "solc",
    "version": "0.6.6+commit.6c089d02.Emscripten.clang"
  },
  "schemaVersion": "3.3.3",
  "updatedAt": "2021-03-19T14:11:00.614Z",
  "networkType": "ethereum",
  "devdoc": {
    "details": "contract to get the network analytics for the staking efficiency use case",
    "methods": {
      "addMultipleNetworks(bytes32[])": {
        "details": "function to add multiple valid network names",
        "params": {
          "_networkNames": "1. bytes32[] network names"
        }
      },
      "addNetwork(bytes32)": {
        "details": "function to add a valid network name",
        "params": {
          "_networkName": "1. bytes32 network name"
        }
      },
      "constructor": {
        "details": "parameterize the variables according to network",
        "params": {
          "_chainlinkOracle": "1. the address of the oracle to create requests to",
          "_chainlinkToken": "2. the address of LINK token contract",
          "_feeMultiplier": "6. states the amount of paid nodes running behind the precoordinator, to set the fee",
          "_jobId": "3. the job id for the HTTPGet job",
          "_periodRegistry": "4. period registry",
          "_stakeRegistry": "5. stake registry"
        }
      },
      "fulFillAnalytics(bytes32,bytes32)": {
        "details": "callback function for the Chainlink SLI request which stores the SLI in the SLA contract",
        "params": {
          "_chainlinkResponse": "response object from Chainlink Oracles",
          "_requestId": "the ID of the ChainLink request"
        }
      },
      "owner()": {
        "details": "Returns the address of the current owner."
      },
      "renounceOwnership()": {
        "details": "Leaves the contract without owner. It will not be possible to call `onlyOwner` functions anymore. Can only be called by the current owner.     * NOTE: Renouncing ownership will leave the contract without an owner, thereby removing any functionality that is only available to the owner."
      },
      "requestAnalytics(uint256,uint8,bytes32,bool,bool)": {
        "details": "Request analytics object for the current period.",
        "params": {
          "_callerReward": "5. used to choose if the call is going to be rewarded by the contract owner, to avoid a block by contract owner",
          "_networkName": "3. network name to publish analytics",
          "_ownerApproval": "4. used to choose if the call is going to be funded by the contract owner, to avoid a block by contract owner",
          "_periodId": "1. id of the canonical period to be analyzed",
          "_periodType": "2. type of period to be queried"
        }
      },
      "setCallerReward(uint256)": {
        "params": {
          "_callerReward": "1. uint256 new caller reward"
        }
      },
      "setChainlinkJobID(bytes32,uint256)": {
        "details": "sets a new jobId, which is a agreement Id of a PreCoordinator contract",
        "params": {
          "_feeMultiplier": "how many Chainlink nodes would be paid on the agreement id, to set the fee value",
          "_jobId": "the id of the PreCoordinator agreement"
        }
      },
      "transferOwnership(address)": {
        "details": "Transfers ownership of the contract to a new account (`newOwner`). Can only be called by the current owner."
      }
    },
    "title": "NetworkAnalytics"
  },
  "userdoc": {
    "methods": {
      "constructor": "sets the Chainlink parameters (oracle address, token address, jobId) and sets the SLARegistry to 0x0 address"
    }
  }
}