{
  "contractName": "NetworkAnalytics",
  "abi": [
    {
      "inputs": [
        {
          "internalType": "address",
          "name": "_chainlinkOracle",
          "type": "address"
        },
        {
          "internalType": "address",
          "name": "_chainlinkToken",
          "type": "address"
        },
        {
          "internalType": "bytes32",
          "name": "_jobId",
          "type": "bytes32"
        },
        {
          "internalType": "contract PeriodRegistry",
          "name": "_periodRegistry",
          "type": "address"
        }
      ],
      "stateMutability": "nonpayable",
      "type": "constructor"
    },
    {
      "anonymous": false,
      "inputs": [
        {
          "indexed": false,
          "internalType": "bytes32",
          "name": "networkName",
          "type": "bytes32"
        },
        {
          "indexed": false,
          "internalType": "enum PeriodRegistry.PeriodType",
          "name": "periodType",
          "type": "uint8"
        },
        {
          "indexed": false,
          "internalType": "uint256",
          "name": "periodId",
          "type": "uint256"
        },
        {
          "indexed": false,
          "internalType": "bytes32",
          "name": "ipfsHash",
          "type": "bytes32"
        }
      ],
      "name": "AnalyticsReceived",
      "type": "event"
    },
    {
      "anonymous": false,
      "inputs": [
        {
          "indexed": true,
          "internalType": "bytes32",
          "name": "id",
          "type": "bytes32"
        }
      ],
      "name": "ChainlinkCancelled",
      "type": "event"
    },
    {
      "anonymous": false,
      "inputs": [
        {
          "indexed": true,
          "internalType": "bytes32",
          "name": "id",
          "type": "bytes32"
        }
      ],
      "name": "ChainlinkFulfilled",
      "type": "event"
    },
    {
      "anonymous": false,
      "inputs": [
        {
          "indexed": true,
          "internalType": "bytes32",
          "name": "id",
          "type": "bytes32"
        }
      ],
      "name": "ChainlinkRequested",
      "type": "event"
    },
    {
      "anonymous": false,
      "inputs": [
        {
          "indexed": true,
          "internalType": "address",
          "name": "previousOwner",
          "type": "address"
        },
        {
          "indexed": true,
          "internalType": "address",
          "name": "newOwner",
          "type": "address"
        }
      ],
      "name": "OwnershipTransferred",
      "type": "event"
    },
    {
      "inputs": [],
      "name": "fee",
      "outputs": [
        {
          "internalType": "uint256",
          "name": "",
          "type": "uint256"
        }
      ],
      "stateMutability": "view",
      "type": "function",
      "constant": true
    },
    {
      "inputs": [],
      "name": "jobId",
      "outputs": [
        {
          "internalType": "bytes32",
          "name": "",
          "type": "bytes32"
        }
      ],
      "stateMutability": "view",
      "type": "function",
      "constant": true
    },
    {
      "inputs": [
        {
          "internalType": "uint256",
          "name": "",
          "type": "uint256"
        }
      ],
      "name": "networkNames",
      "outputs": [
        {
          "internalType": "bytes32",
          "name": "",
          "type": "bytes32"
        }
      ],
      "stateMutability": "view",
      "type": "function",
      "constant": true
    },
    {
      "inputs": [],
      "name": "oracle",
      "outputs": [
        {
          "internalType": "address",
          "name": "",
          "type": "address"
        }
      ],
      "stateMutability": "view",
      "type": "function",
      "constant": true
    },
    {
      "inputs": [],
      "name": "owner",
      "outputs": [
        {
          "internalType": "address",
          "name": "",
          "type": "address"
        }
      ],
      "stateMutability": "view",
      "type": "function",
      "constant": true
    },
    {
      "inputs": [
        {
          "internalType": "bytes32",
          "name": "",
          "type": "bytes32"
        },
        {
          "internalType": "enum PeriodRegistry.PeriodType",
          "name": "",
          "type": "uint8"
        },
        {
          "internalType": "uint256",
          "name": "",
          "type": "uint256"
        }
      ],
      "name": "periodAnalytics",
      "outputs": [
        {
          "internalType": "bytes32",
          "name": "",
          "type": "bytes32"
        }
      ],
      "stateMutability": "view",
      "type": "function",
      "constant": true
    },
    {
      "inputs": [],
      "name": "renounceOwnership",
      "outputs": [],
      "stateMutability": "nonpayable",
      "type": "function"
    },
    {
      "inputs": [
        {
          "internalType": "bytes32",
          "name": "",
          "type": "bytes32"
        }
      ],
      "name": "requestIdToAnalyticsRequest",
      "outputs": [
        {
          "internalType": "bytes32",
          "name": "networkName",
          "type": "bytes32"
        },
        {
          "internalType": "uint256",
          "name": "periodId",
          "type": "uint256"
        },
        {
          "internalType": "enum PeriodRegistry.PeriodType",
          "name": "periodType",
          "type": "uint8"
        }
      ],
      "stateMutability": "view",
      "type": "function",
      "constant": true
    },
    {
      "inputs": [
        {
          "internalType": "uint256",
          "name": "",
          "type": "uint256"
        }
      ],
      "name": "requests",
      "outputs": [
        {
          "internalType": "bytes32",
          "name": "",
          "type": "bytes32"
        }
      ],
      "stateMutability": "view",
      "type": "function",
      "constant": true
    },
    {
      "inputs": [
        {
          "internalType": "address",
          "name": "newOwner",
          "type": "address"
        }
      ],
      "name": "transferOwnership",
      "outputs": [],
      "stateMutability": "nonpayable",
      "type": "function"
    },
    {
      "inputs": [
        {
          "internalType": "bytes32",
          "name": "_networkName",
          "type": "bytes32"
        }
      ],
      "name": "isValidNetwork",
      "outputs": [
        {
          "internalType": "bool",
          "name": "",
          "type": "bool"
        }
      ],
      "stateMutability": "view",
      "type": "function",
      "constant": true
    },
    {
      "inputs": [
        {
          "internalType": "bytes32",
          "name": "_networkName",
          "type": "bytes32"
        }
      ],
      "name": "addNetwork",
      "outputs": [
        {
          "internalType": "bool",
          "name": "",
          "type": "bool"
        }
      ],
      "stateMutability": "nonpayable",
      "type": "function"
    },
    {
      "inputs": [
        {
          "internalType": "uint256",
          "name": "_periodId",
          "type": "uint256"
        },
        {
          "internalType": "enum PeriodRegistry.PeriodType",
          "name": "_periodType",
          "type": "uint8"
        },
        {
          "internalType": "bytes32",
          "name": "_networkName",
          "type": "bytes32"
        }
      ],
      "name": "requestAnalytics",
      "outputs": [],
      "stateMutability": "nonpayable",
      "type": "function"
    },
    {
      "inputs": [
        {
          "internalType": "bytes32",
          "name": "_requestId",
          "type": "bytes32"
        },
        {
          "internalType": "bytes32",
          "name": "_chainlinkResponse",
          "type": "bytes32"
        }
      ],
      "name": "fulFillAnalytics",
      "outputs": [],
      "stateMutability": "nonpayable",
      "type": "function"
    }
  ],
  "bytecode": "0x6080604052600160055567016345785d8a0000600e553480156200002257600080fd5b506040516200182b3803806200182b833981016040819052620000459162000107565b600062000051620000e1565b600080546001600160a01b0319166001600160a01b0383169081178255604051929350917f8be0079c531659141344cd1fd0a4f28419497f9722a3daafe3b4186f6b6457e0908290a350600d829055620000ab83620000e5565b600c80546001600160a01b039586166001600160a01b0319918216179091556007805492909516911617909255506200017b9050565b3390565b600380546001600160a01b0319166001600160a01b0392909216919091179055565b600080600080608085870312156200011d578384fd5b84516200012a8162000162565b60208601519094506200013d8162000162565b604086015160608701519194509250620001578162000162565b939692955090935050565b6001600160a01b03811681146200017857600080fd5b50565b6116a0806200018b6000396000f3fe608060405234801561001057600080fd5b50600436106100ca5760003560e01c80638da5cb5b1161007c5780638da5cb5b146101705780639b45232314610178578063a0a2f0541461019a578063c2939d97146101ad578063ddca3f43146101b5578063e1dd46a1146101bd578063f2fde38b146101d0576100ca565b80630d473452146100cf57806317c6066f146100e4578063715018a61461010d5780637dc0d1d0146101155780637e0ce2691461012a5780638190f3411461014a57806381d12c581461015d575b600080fd5b6100e26100dd3660046112a4565b6101e3565b005b6100f76100f2366004611234565b610620565b60405161010491906113eb565b60405180910390f35b6100e26106b8565b61011d610737565b6040516101049190611348565b61013d61013836600461126d565b610746565b60405161010491906113f6565b6100e261015836600461124c565b610769565b61013d61016b366004611234565b6108e3565b61011d610901565b61018b610186366004611234565b610910565b6040516101049392919061142b565b61013d6101a8366004611234565b610934565b61013d610941565b61013d610947565b6100f76101cb366004611234565b61094d565b6100e26101de3660046111ed565b610995565b6101ec8161094d565b6102115760405162461bcd60e51b8152600401610208906115d9565b60405180910390fd5b6007546040516331edb3ad60e21b81526000916001600160a01b03169063c7b6ceb490610244908690889060040161144f565b60206040518083038186803b15801561025c57600080fd5b505afa158015610270573d6000803e3d6000fd5b505050506040513d601f19601f820116820180604052508101906102949190611214565b90506001811515146102b85760405162461bcd60e51b81526004016102089061152b565b6000828152600960205260408120908460058111156102d357fe5b60058111156102de57fe5b815260200190815260200160002060008581526020019081526020016000205460001461031d5760405162461bcd60e51b815260040161020890611562565b61032561117e565b600d5461033a9030638190f34160e01b610a4b565b60075460405160016259edcb60e01b0319815291925060009182916001600160a01b03169063ffa61235906103759089908b9060040161144f565b604080518083038186803b15801561038c57600080fd5b505afa1580156103a0573d6000803e3d6000fd5b505050506040513d601f19601f820116820180604052508101906103c491906112b8565b91509150610432604051806040016040528060088152602001676a6f625f7479706560c01b8152506040518060400160405280601c81526020017f7374616b696e675f656666696369656e63795f616e616c79746963730000000081525085610a709092919063ffffffff16565b61046b6040518060400160405280600c81526020016b6e6574776f726b5f6e616d6560a01b81525061046387610a93565b859190610a70565b610499604051806040016040528060098152602001681c195c9a5bd917da5960ba1b81525061046389610ba0565b6104d76040518060400160405280600b81526020016a706572696f645f7479706560a81b8152506104638860058111156104cf57fe5b60ff16610ba0565b610510604051806040016040528060148152602001731cdb1857db5bdb9a5d1bdc9a5b99d7dcdd185c9d60621b81525061046384610ba0565b610547604051806040016040528060128152602001711cdb1857db5bdb9a5d1bdc9a5b99d7d95b9960721b81525061046383610ba0565b600c54600e54600091610567916001600160a01b03909116908690610c7b565b600b80546001810182556000919091527f0175b7a638427703f0dbe7bb9bbf987a2551717b34e79f33b5b1008d1fa01db90181905560408051606081018252888152602081018b905291925081018860058111156105c157fe5b815250600a6000838152602001908152602001600020600082015181600001556020820151816001015560408201518160020160006101000a81548160ff0219169083600581111561060f57fe5b021790555050505050505050505050565b600061062a610dba565b6000546001600160a01b039081169116146106575760405162461bcd60e51b8152600401610208906115a4565b6106608261094d565b1561067d5760405162461bcd60e51b8152600401610208906114f4565b506008805460018101825560009182527ff3f7a9fe364faab93b216da50a3214154f22a0a2b415b23a84c8169e8b636ee3018290555b919050565b6106c0610dba565b6000546001600160a01b039081169116146106ed5760405162461bcd60e51b8152600401610208906115a4565b600080546040516001600160a01b03909116907f8be0079c531659141344cd1fd0a4f28419497f9722a3daafe3b4186f6b6457e0908390a3600080546001600160a01b0319169055565b600c546001600160a01b031681565b600960209081526000938452604080852082529284528284209052825290205481565b60008281526006602052604090205482906001600160a01b031633146107a15760405162461bcd60e51b815260040161020890611607565b60008181526006602052604080822080546001600160a01b03191690555182917f7cc135e0cebb02c3480ae5d74d377283180a2601f8f644edf7987b009316c63a91a26107ec6111b3565b6000848152600a60209081526040918290208251606081018452815481526001820154928101929092526002810154919290919083019060ff16600581111561083157fe5b600581111561083c57fe5b9052508051604080830151602084015191519394507fe2f11ee4299271d2204416b3f4f0ebd793470db5409b363f09f36ff3d0f095049361088093929088906113ff565b60405180910390a180516000908152600960205260408082209083015185929060058111156108ab57fe5b60058111156108b657fe5b81526020019081526020016000206000836020015181526020019081526020016000208190555050505050565b600b81815481106108f057fe5b600091825260209091200154905081565b6000546001600160a01b031690565b600a6020526000908152604090208054600182015460029092015490919060ff1683565b600881815481106108f057fe5b600d5481565b600e5481565b6000805b60085481101561098c57826008828154811061096957fe5b906000526020600020015414156109845760019150506106b3565b600101610951565b50600092915050565b61099d610dba565b6000546001600160a01b039081169116146109ca5760405162461bcd60e51b8152600401610208906115a4565b6001600160a01b0381166109f05760405162461bcd60e51b81526004016102089061146b565b600080546040516001600160a01b03808516939216917f8be0079c531659141344cd1fd0a4f28419497f9722a3daafe3b4186f6b6457e091a3600080546001600160a01b0319166001600160a01b0392909216919091179055565b610a5361117e565b610a5b61117e565b610a6781868686610dbe565b95945050505050565b6080830151610a7f9083610dfb565b6080830151610a8e9082610dfb565b505050565b606060005b60208160ff16108015610ac65750828160ff1660208110610ab557fe5b1a60f81b6001600160f81b03191615155b15610ad357600101610a98565b60608160ff1667ffffffffffffffff81118015610aef57600080fd5b506040519080825280601f01601f191660200182016040528015610b1a576020820181803683370190505b509050600091505b60208260ff16108015610b505750838260ff1660208110610b3f57fe5b1a60f81b6001600160f81b03191615155b15610b9957838260ff1660208110610b6457fe5b1a60f81b818360ff1681518110610b7757fe5b60200101906001600160f81b031916908160001a905350600190910190610b22565b9392505050565b60608180610bc75750506040805180820190915260018152600360fc1b60208201526106b3565b8060005b8115610bdf57600101600a82049150610bcb565b60608167ffffffffffffffff81118015610bf857600080fd5b506040519080825280601f01601f191660200182016040528015610c23576020820181803683370190505b50905060001982015b8415610c7157600a850660300160f81b82828060019003935081518110610c4f57fe5b60200101906001600160f81b031916908160001a905350600a85049450610c2c565b5095945050505050565b600030600554604051602001610c92929190611326565b60408051808303601f19018152918152815160209283012060055460608701526000818152600690935281832080546001600160a01b0319166001600160a01b038916179055905190925082917fb5e6e01e79f91267dc17b4e6314d5d4d03593d2ceee0fbb452b750bd70ea5af991a26003546001600160a01b0316634000aea08584610d1e87610e12565b6040518463ffffffff1660e01b8152600401610d3c939291906113c4565b602060405180830381600087803b158015610d5657600080fd5b505af1158015610d6a573d6000803e3d6000fd5b505050506040513d601f19601f82011682018060405250810190610d8e9190611214565b610daa5760405162461bcd60e51b8152600401610208906114b1565b6005805460010190559392505050565b3390565b610dc661117e565b610dd68560800151610100610e8e565b50509183526001600160a01b031660208301526001600160e01b031916604082015290565b610e088260038351610ece565b610a8e8282610fa8565b6060634042994660e01b60008084600001518560200151866040015187606001516001896080015160000151604051602401610e5598979695949392919061135c565b60408051601f198184030181529190526020810180516001600160e01b03166001600160e01b0319909316929092179091529050919050565b610e966111d3565b6020820615610eab5760208206602003820191505b506020808301829052604080518085526000815283019091019052815b92915050565b60178111610eef57610ee98360e0600585901b168317610fc2565b50610a8e565b60ff8111610f1957610f0c836018611fe0600586901b1617610fc2565b50610ee983826001610fda565b61ffff8111610f4457610f37836019611fe0600586901b1617610fc2565b50610ee983826002610fda565b63ffffffff8111610f7157610f6483601a611fe0600586901b1617610fc2565b50610ee983826004610fda565b67ffffffffffffffff8111610a8e57610f9583601b611fe0600586901b1617610fc2565b50610fa283826008610fda565b50505050565b610fb06111d3565b610b9983846000015151848551610ffb565b610fca6111d3565b610b9983846000015151846110a7565b610fe26111d3565b610ff38485600001515185856110f2565b949350505050565b6110036111d3565b825182111561101157600080fd5b8460200151828501111561103b5761103b856110338760200151878601611150565b600202611167565b60008086518051876020830101935080888701111561105a5787860182525b505050602084015b602084106110815780518252601f199093019260209182019101611062565b51815160001960208690036101000a019081169019919091161790525083949350505050565b6110af6111d3565b836020015183106110cb576110cb848560200151600202611167565b8351805160208583010184815350808514156110e8576001810182525b5093949350505050565b6110fa6111d3565b846020015184830111156111175761111785858401600202611167565b60006001836101000a0390508551838682010185831982511617815250805184870111156111455783860181525b509495945050505050565b600081831115611161575081610ec8565b50919050565b81516111738383610e8e565b50610fa28382610fa8565b6040805160a0810182526000808252602082018190529181018290526060810191909152608081016111ae6111d3565b905290565b6040805160608101825260008082526020820181905290918201906111ae565b604051806040016040528060608152602001600081525090565b6000602082840312156111fe578081fd5b81356001600160a01b0381168114610b99578182fd5b600060208284031215611225578081fd5b81518015158114610b99578182fd5b600060208284031215611245578081fd5b5035919050565b6000806040838503121561125e578081fd5b50508035926020909101359150565b600080600060608486031215611281578081fd5b8335925060208401356112938161165a565b929592945050506040919091013590565b600080600060608486031215611281578283fd5b600080604083850312156112ca578182fd5b505080516020909101519092909150565b60008151808452815b81811015611300576020818501810151868301820152016112e4565b818111156113115782602083870101525b50601f01601f19169290920160200192915050565b60609290921b6bffffffffffffffffffffffff19168252601482015260340190565b6001600160a01b0391909116815260200190565b6001600160a01b0389811682526020820189905260408201889052861660608201526001600160e01b03198516608082015260a0810184905260c0810183905261010060e082018190526000906113b5838201856112db565b9b9a5050505050505050505050565b600060018060a01b038516825283602083015260606040830152610a6760608301846112db565b901515815260200190565b90815260200190565b848152608081016006851061141057fe5b84602083015283604083015282606083015295945050505050565b83815260208101839052606081016114428361164f565b6040830152949350505050565b6040810161145c8461164f565b82528260208301529392505050565b60208082526026908201527f4f776e61626c653a206e6577206f776e657220697320746865207a65726f206160408201526564647265737360d01b606082015260800190565b60208082526023908201527f756e61626c6520746f207472616e73666572416e6443616c6c20746f206f7261604082015262636c6560e81b606082015260800190565b6020808252601f908201527f4e6574776f726b206e616d6520616c7265616479207265676973746572656400604082015260600190565b6020808252601b908201527f506572696f6420686173206e6f742066696e6973686564207965740000000000604082015260600190565b60208082526022908201527f416e616c7974696373206f626a65637420616c7265616479207075626c697368604082015261195960f21b606082015260800190565b6020808252818101527f4f776e61626c653a2063616c6c6572206973206e6f7420746865206f776e6572604082015260600190565b602080825260149082015273496e76616c6964206e6574776f726b206e616d6560601b604082015260600190565b60208082526028908201527f536f75726365206d75737420626520746865206f7261636c65206f6620746865604082015267081c995c5d595cdd60c21b606082015260800190565b80600681106106b357fe5b6006811061166757600080fd5b5056fea2646970667358221220c712ffe405497f5fd607b23f0508d2aafc2cc6f14587a7ecf8578ff35090eebb64736f6c634300060c0033",
  "immutableReferences": {},
  "source": "pragma solidity ^0.6.0;\npragma experimental ABIEncoderV2;\n\nimport \"@chainlink/contracts/src/v0.6/ChainlinkClient.sol\";\nimport \"@openzeppelin/contracts/access/Ownable.sol\";\nimport \"../StringUtils.sol\";\nimport \"../PeriodRegistry.sol\";\n\n/**\n * @title NetworkAnalytics\n * @dev contract to get the network analytics for the staking efficiency use case\n */\n\ncontract NetworkAnalytics is Ownable, ChainlinkClient, StringUtils {\n    struct AnalyticsRequest {\n        bytes32 networkName;\n        uint256 periodId;\n        PeriodRegistry.PeriodType periodType;\n    }\n\n    /// @dev Period registry\n    PeriodRegistry private periodRegistry;\n    /// @dev bytes32 to store the available network names\n    bytes32[] public networkNames;\n    /// @dev (networkName=>periodType=>periodId=>bytes32) to store ipfsHash of the analytics corresponding to periodId\n    mapping(bytes32 => mapping(PeriodRegistry.PeriodType => mapping(uint256 => bytes32)))\n        public periodAnalytics;\n\n    /// @dev Mapping that stores chainlink analytics request information\n    mapping(bytes32 => AnalyticsRequest) public requestIdToAnalyticsRequest;\n    /// @dev Array with all request IDs\n    bytes32[] public requests;\n    /// @dev Chainlink oracle address\n    address public oracle;\n    /// @dev chainlink jobId\n    bytes32 public jobId;\n    /// @dev fee for Chainlink querys. Currently 0.1 LINK\n    uint256 public fee = 0.1 * 10**18;\n\n    /**\n     * @dev event emitted when having a response from Chainlink with the SLI\n     * @param networkName 1. network name\n     * @param periodType 2. id of the period\n     * @param periodId 3. id of the period\n     * @param ipfsHash 4. hash of the ipfs object\n     */\n    event AnalyticsReceived(\n        bytes32 networkName,\n        PeriodRegistry.PeriodType periodType,\n        uint256 periodId,\n        bytes32 ipfsHash\n    );\n\n    /**\n     * @dev parameterize the variables according to network\n     * @notice sets the Chainlink parameters (oracle address, token address, jobId) and sets the SLARegistry to 0x0 address\n     * @param _chainlinkOracle 1. the address of the oracle to create requests to\n     * @param _chainlinkToken 2. the address of LINK token contract\n     * @param _jobId 3. the job id for the HTTPGet job\n     * @param _periodRegistry 4. the job id for the HTTPGet job\n     */\n    constructor(\n        address _chainlinkOracle,\n        address _chainlinkToken,\n        bytes32 _jobId,\n        PeriodRegistry _periodRegistry\n    ) public {\n        jobId = _jobId;\n        setChainlinkToken(_chainlinkToken);\n        oracle = _chainlinkOracle;\n        periodRegistry = _periodRegistry;\n    }\n\n    function isValidNetwork(bytes32 _networkName) public view returns (bool) {\n        for (uint256 index; index < networkNames.length; index++) {\n            if (networkNames[index] == _networkName) return true;\n        }\n        return false;\n    }\n\n    /**\n     * @dev function to add a valid network name\n     * @param _networkName 1. bytes32 network name\n     */\n    function addNetwork(bytes32 _networkName) public onlyOwner returns (bool) {\n        require(\n            isValidNetwork(_networkName) == false,\n            \"Network name already registered\"\n        );\n        networkNames.push(_networkName);\n        return false;\n    }\n\n    /**\n     * @dev Request analytics object for the current period.\n     * @param _periodId 1. id of the canonical period to be analyzed\n     * @param _periodType 2. type of period to be queried\n     * @param _networkName 3. network name to publish analytics\n     */\n    function requestAnalytics(\n        uint256 _periodId,\n        PeriodRegistry.PeriodType _periodType,\n        bytes32 _networkName\n    ) public {\n        require(isValidNetwork(_networkName), \"Invalid network name\");\n        bool periodIsFinished =\n            periodRegistry.periodIsFinished(_periodType, _periodId);\n        require(periodIsFinished == true, \"Period has not finished yet\");\n        require(\n            periodAnalytics[_networkName][_periodType][_periodId] == \"\",\n            \"Analytics object already published\"\n        );\n\n        Chainlink.Request memory request =\n            buildChainlinkRequest(\n                jobId,\n                address(this),\n                this.fulFillAnalytics.selector\n            );\n\n        (uint256 start, uint256 end) =\n            periodRegistry.getPeriodStartAndEnd(_periodType, _periodId);\n\n        request.add(\"job_type\", \"staking_efficiency_analytics\");\n        request.add(\"network_name\", _bytes32ToStr(_networkName));\n        request.add(\"period_id\", _uintToStr(_periodId));\n        request.add(\"period_type\", _uintToStr(uint256(uint8(_periodType))));\n        request.add(\"sla_monitoring_start\", _uintToStr(start));\n        request.add(\"sla_monitoring_end\", _uintToStr(end));\n\n        // Sends the request with 0.1 LINK to the oracle contract\n        bytes32 requestId = sendChainlinkRequestTo(oracle, request, fee);\n        requests.push(requestId);\n        requestIdToAnalyticsRequest[requestId] = AnalyticsRequest({\n            networkName: _networkName,\n            periodId: _periodId,\n            periodType: _periodType\n        });\n    }\n\n    /**\n     * @dev callback function for the Chainlink SLI request which stores\n     * the SLI in the SLA contract\n     * @param _requestId the ID of the ChainLink request\n     * @param _chainlinkResponse response object from Chainlink Oracles\n     */\n    function fulFillAnalytics(bytes32 _requestId, bytes32 _chainlinkResponse)\n        public\n        recordChainlinkFulfillment(_requestId)\n    {\n        AnalyticsRequest memory request =\n            requestIdToAnalyticsRequest[_requestId];\n\n        emit AnalyticsReceived(\n            request.networkName,\n            request.periodType,\n            request.periodId,\n            _chainlinkResponse\n        );\n\n        periodAnalytics[request.networkName][request.periodType][\n            request.periodId\n        ] = _chainlinkResponse;\n    }\n}\n",
  "sourcePath": "/Users/matiasbn/Desktop/stacktical/stacktical-dsla-contracts/contracts/staking-efficiency/NetworkAnalytics.sol",
  "compiler": {
    "name": "solc",
    "version": "0.6.12+commit.27d51765.Emscripten.clang"
  },
  "schemaVersion": "3.3.3",
  "updatedAt": "2021-03-08T15:33:59.811Z",
  "networkType": "ethereum",
  "devdoc": {
    "details": "contract to get the network analytics for the staking efficiency use case",
    "events": {
      "AnalyticsReceived(bytes32,uint8,uint256,bytes32)": {
        "details": "event emitted when having a response from Chainlink with the SLI",
        "params": {
          "ipfsHash": "4. hash of the ipfs object",
          "networkName": "1. network name",
          "periodId": "3. id of the period",
          "periodType": "2. id of the period"
        }
      }
    },
    "kind": "dev",
    "methods": {
      "addNetwork(bytes32)": {
        "details": "function to add a valid network name",
        "params": {
          "_networkName": "1. bytes32 network name"
        }
      },
      "constructor": {
        "details": "parameterize the variables according to network",
        "params": {
          "_chainlinkOracle": "1. the address of the oracle to create requests to",
          "_chainlinkToken": "2. the address of LINK token contract",
          "_jobId": "3. the job id for the HTTPGet job",
          "_periodRegistry": "4. the job id for the HTTPGet job"
        }
      },
      "fulFillAnalytics(bytes32,bytes32)": {
        "details": "callback function for the Chainlink SLI request which stores the SLI in the SLA contract",
        "params": {
          "_chainlinkResponse": "response object from Chainlink Oracles",
          "_requestId": "the ID of the ChainLink request"
        }
      },
      "owner()": {
        "details": "Returns the address of the current owner."
      },
      "renounceOwnership()": {
        "details": "Leaves the contract without owner. It will not be possible to call `onlyOwner` functions anymore. Can only be called by the current owner. NOTE: Renouncing ownership will leave the contract without an owner, thereby removing any functionality that is only available to the owner."
      },
      "requestAnalytics(uint256,uint8,bytes32)": {
        "details": "Request analytics object for the current period.",
        "params": {
          "_networkName": "3. network name to publish analytics",
          "_periodId": "1. id of the canonical period to be analyzed",
          "_periodType": "2. type of period to be queried"
        }
      },
      "transferOwnership(address)": {
        "details": "Transfers ownership of the contract to a new account (`newOwner`). Can only be called by the current owner."
      }
    },
    "stateVariables": {
      "fee": {
        "details": "fee for Chainlink querys. Currently 0.1 LINK"
      },
      "jobId": {
        "details": "chainlink jobId"
      },
      "networkNames": {
        "details": "bytes32 to store the available network names"
      },
      "oracle": {
        "details": "Chainlink oracle address"
      },
      "periodAnalytics": {
        "details": "(networkName=>periodType=>periodId=>bytes32) to store ipfsHash of the analytics corresponding to periodId"
      },
      "periodRegistry": {
        "details": "Period registry"
      },
      "requestIdToAnalyticsRequest": {
        "details": "Mapping that stores chainlink analytics request information"
      },
      "requests": {
        "details": "Array with all request IDs"
      }
    },
    "title": "NetworkAnalytics",
    "version": 1
  },
  "userdoc": {
    "kind": "user",
    "methods": {
      "constructor": "sets the Chainlink parameters (oracle address, token address, jobId) and sets the SLARegistry to 0x0 address"
    },
    "version": 1
  }
}