{
  "contractName": "PeriodRegistry",
  "abi": [
    {
      "anonymous": false,
      "inputs": [
        {
          "indexed": true,
          "internalType": "address",
          "name": "previousOwner",
          "type": "address"
        },
        {
          "indexed": true,
          "internalType": "address",
          "name": "newOwner",
          "type": "address"
        }
      ],
      "name": "OwnershipTransferred",
      "type": "event"
    },
    {
      "anonymous": false,
      "inputs": [
        {
          "indexed": false,
          "internalType": "enum PeriodRegistry.PeriodType",
          "name": "periodType",
          "type": "uint8"
        },
        {
          "indexed": false,
          "internalType": "uint256",
          "name": "periodsAdded",
          "type": "uint256"
        },
        {
          "indexed": false,
          "internalType": "uint256",
          "name": "apy",
          "type": "uint256"
        },
        {
          "indexed": false,
          "internalType": "uint256",
          "name": "yearlyPeriods",
          "type": "uint256"
        }
      ],
      "name": "PeriodInitialized",
      "type": "event"
    },
    {
      "inputs": [],
      "name": "owner",
      "outputs": [
        {
          "internalType": "address",
          "name": "",
          "type": "address"
        }
      ],
      "stateMutability": "view",
      "type": "function"
    },
    {
      "inputs": [
        {
          "internalType": "enum PeriodRegistry.PeriodType",
          "name": "",
          "type": "uint8"
        }
      ],
      "name": "periodDefinitions",
      "outputs": [
        {
          "internalType": "uint256",
          "name": "apy",
          "type": "uint256"
        },
        {
          "internalType": "uint256",
          "name": "yearlyPeriods",
          "type": "uint256"
        },
        {
          "internalType": "bool",
          "name": "initialized",
          "type": "bool"
        }
      ],
      "stateMutability": "view",
      "type": "function"
    },
    {
      "inputs": [],
      "name": "renounceOwnership",
      "outputs": [],
      "stateMutability": "nonpayable",
      "type": "function"
    },
    {
      "inputs": [
        {
          "internalType": "address",
          "name": "newOwner",
          "type": "address"
        }
      ],
      "name": "transferOwnership",
      "outputs": [],
      "stateMutability": "nonpayable",
      "type": "function"
    },
    {
      "inputs": [
        {
          "internalType": "enum PeriodRegistry.PeriodType",
          "name": "_periodType",
          "type": "uint8"
        },
        {
          "internalType": "uint256[]",
          "name": "_periodStarts",
          "type": "uint256[]"
        },
        {
          "internalType": "uint256[]",
          "name": "_periodEnds",
          "type": "uint256[]"
        },
        {
          "internalType": "uint256",
          "name": "_apy",
          "type": "uint256"
        },
        {
          "internalType": "uint256",
          "name": "_yearlyPeriods",
          "type": "uint256"
        }
      ],
      "name": "initializePeriod",
      "outputs": [],
      "stateMutability": "nonpayable",
      "type": "function"
    },
    {
      "inputs": [
        {
          "internalType": "enum PeriodRegistry.PeriodType",
          "name": "_periodType",
          "type": "uint8"
        },
        {
          "internalType": "uint256",
          "name": "_periodId",
          "type": "uint256"
        }
      ],
      "name": "getPeriodStartAndEnd",
      "outputs": [
        {
          "internalType": "uint256",
          "name": "start",
          "type": "uint256"
        },
        {
          "internalType": "uint256",
          "name": "end",
          "type": "uint256"
        }
      ],
      "stateMutability": "view",
      "type": "function"
    },
    {
      "inputs": [
        {
          "internalType": "enum PeriodRegistry.PeriodType",
          "name": "_periodType",
          "type": "uint8"
        },
        {
          "internalType": "uint256",
          "name": "_periodId",
          "type": "uint256"
        }
      ],
      "name": "isValidPeriod",
      "outputs": [
        {
          "internalType": "bool",
          "name": "valid",
          "type": "bool"
        }
      ],
      "stateMutability": "view",
      "type": "function"
    },
    {
      "inputs": [
        {
          "internalType": "enum PeriodRegistry.PeriodType",
          "name": "_periodType",
          "type": "uint8"
        },
        {
          "internalType": "uint256",
          "name": "_periodId",
          "type": "uint256"
        }
      ],
      "name": "periodIsFinished",
      "outputs": [
        {
          "internalType": "bool",
          "name": "finished",
          "type": "bool"
        }
      ],
      "stateMutability": "view",
      "type": "function"
    }
  ],
  "bytecode": "0x608060405234801561001057600080fd5b50600061001b61006a565b600080546001600160a01b0319166001600160a01b0383169081178255604051929350917f8be0079c531659141344cd1fd0a4f28419497f9722a3daafe3b4186f6b6457e0908290a35061006e565b3390565b610c5f8061007d6000396000f3fe608060405234801561001057600080fd5b50600436106100785760003560e01c80635c98d1571461007d578063715018a6146100a85780637155e4cc146100b25780638da5cb5b146100c5578063c7b6ceb4146100da578063ddfc4fde146100fa578063f2fde38b1461010d578063ffa6123514610120575b600080fd5b61009061008b36600461091b565b610141565b60405161009f93929190610c01565b60405180910390f35b6100b0610164565b005b6100b06100c0366004610937565b6101ec565b6100cd610398565b60405161009f91906109e7565b6100ed6100e83660046109bc565b6103a7565b60405161009f91906109fb565b6100ed6101083660046109bc565b610523565b6100b061011b3660046108f4565b61066f565b61013361012e3660046109bc565b610725565b60405161009f929190610bf3565b600160208190526000918252604090912080549181015460029091015460ff1683565b61016c6107b7565b6000546001600160a01b039081169116146101a25760405162461bcd60e51b815260040161019990610b55565b60405180910390fd5b600080546040516001600160a01b03909116907f8be0079c531659141344cd1fd0a4f28419497f9722a3daafe3b4186f6b6457e0908390a3600080546001600160a01b0319169055565b6101f46107b7565b6000546001600160a01b039081169116146102215760405162461bcd60e51b815260040161019990610b55565b60006001600087600581111561023357fe5b600581111561023e57fe5b81526020810191909152604001600020600281015490915060ff16156102765760405162461bcd60e51b815260040161019990610bbc565b83518551146102975760405162461bcd60e51b815260040161019990610b0d565b60008551116102b85760405162461bcd60e51b815260040161019990610b8a565b60005b8551811015610376578481815181106102d057fe5b60200260200101518682815181106102e457fe5b6020026020010151106103095760405162461bcd60e51b815260040161019990610a90565b8160030186828151811061031957fe5b602090810291909101810151825460018101845560009384529190922001558451600483019086908390811061034b57fe5b60209081029190910181015182546001818101855560009485529290932090920191909155016102bb565b509182556001808301919091556002909101805460ff19169091179055505050565b6000546001600160a01b031690565b60006103b1610830565b600160008560058111156103c157fe5b60058111156103cc57fe5b81526020808201929092526040908101600020815160a08101835281548152600182015481850152600282015460ff1615158184015260038201805484518187028101870190955280855291949293606086019390929083018282801561045257602002820191906000526020600020905b81548152602001906001019080831161043e575b50505050508152602001600482018054806020026020016040519081016040528092919081815260200182805480156104aa57602002820191906000526020600020905b815481526020019060010190808311610496575b505050505081525050905080604001516104d65760405162461bcd60e51b815260040161019990610a59565b42600160008660058111156104e757fe5b60058111156104f257fe5b8152602001908152602001600020600401848154811061050e57fe5b90600052602060002001541091505092915050565b600061052d610830565b6001600085600581111561053d57fe5b600581111561054857fe5b81526020808201929092526040908101600020815160a08101835281548152600182015481850152600282015460ff161515818401526003820180548451818702810187019095528085529194929360608601939092908301828280156105ce57602002820191906000526020600020905b8154815260200190600101908083116105ba575b505050505081526020016004820180548060200260200160405190810160405280929190818152602001828054801561062657602002820191906000526020600020905b815481526020019060010190808311610612575b505050505081525050905080604001516106525760405162461bcd60e51b815260040161019990610a59565b60608101515183906106659060016107bb565b1015949350505050565b6106776107b7565b6000546001600160a01b039081169116146106a45760405162461bcd60e51b815260040161019990610b55565b6001600160a01b0381166106ca5760405162461bcd60e51b815260040161019990610ac7565b600080546040516001600160a01b03808516939216917f8be0079c531659141344cd1fd0a4f28419497f9722a3daafe3b4186f6b6457e091a3600080546001600160a01b0319166001600160a01b0392909216919091179055565b6000806001600085600581111561073857fe5b600581111561074357fe5b8152602001908152602001600020600301838154811061075f57fe5b906000526020600020015491506001600085600581111561077c57fe5b600581111561078757fe5b815260200190815260200160002060040183815481106107a357fe5b906000526020600020015490509250929050565b3390565b60006107fd83836040518060400160405280601e81526020017f536166654d6174683a207375627472616374696f6e206f766572666c6f770000815250610804565b9392505050565b600081848411156108285760405162461bcd60e51b81526004016101999190610a06565b505050900390565b6040518060a00160405280600081526020016000815260200160001515815260200160608152602001606081525090565b600082601f830112610871578081fd5b813567ffffffffffffffff80821115610888578283fd5b6020808302604051828282010181811085821117156108a5578687fd5b6040528481529450818501925085820181870183018810156108c657600080fd5b600091505b848210156108e95780358452928201926001919091019082016108cb565b505050505092915050565b600060208284031215610905578081fd5b81356001600160a01b03811681146107fd578182fd5b60006020828403121561092c578081fd5b81356107fd81610c19565b600080600080600060a0868803121561094e578081fd5b853561095981610c19565b9450602086013567ffffffffffffffff80821115610975578283fd5b61098189838a01610861565b95506040880135915080821115610996578283fd5b506109a388828901610861565b9598949750949560608101359550608001359392505050565b600080604083850312156109ce578182fd5b82356109d981610c19565b946020939093013593505050565b6001600160a01b0391909116815260200190565b901515815260200190565b6000602080835283518082850152825b81811015610a3257858101830151858201604001528201610a16565b81811115610a435783604083870101525b50601f01601f1916929092016040019392505050565b6020808252601f908201527f506572696f642074797065206e6f7420696e697469616c697a65642079657400604082015260600190565b6020808252601a908201527f53746172742073686f756c64206265206265666f726520656e64000000000000604082015260600190565b60208082526026908201527f4f776e61626c653a206e6577206f776e657220697320746865207a65726f206160408201526564647265737360d01b606082015260800190565b60208082526028908201527f506572696f6420747970652073746172747320616e6420656e64732073686f756040820152670d8c840dac2e8c6d60c31b606082015260800190565b6020808252818101527f4f776e61626c653a2063616c6c6572206973206e6f7420746865206f776e6572604082015260600190565b6020808252601890820152770506572696f64206c656e6774682063616e277420626520360441b604082015260600190565b6020808252601f908201527f506572696f64207479706520616c726561647920696e697469616c697a656400604082015260600190565b918252602082015260400190565b92835260208301919091521515604082015260600190565b60068110610c2657600080fd5b5056fea26469706673582212209c0df7c9edaa8155932e3fb8f2abc2a47cea409c2cd6fbed650f169779e7bf2264736f6c634300060c0033",
  "immutableReferences": {},
  "source": "// SPDX-License-Identifier: MIT\npragma solidity ^0.6.0;\npragma experimental ABIEncoderV2;\n\nimport \"@openzeppelin/contracts/math/SafeMath.sol\";\nimport \"@openzeppelin/contracts/access/Ownable.sol\";\n\n/**\n * @title SLARegistry\n * @dev SLARegistry is a contract for handling creation of service level\n * agreements and keeping track of the created agreements\n */\ncontract PeriodRegistry is Ownable {\n    using SafeMath for uint256;\n\n    enum PeriodType {Hourly, Daily, Weekly, BiWeekly, Monthly, Yearly}\n\n    /// @dev struct to store the definition of a period\n    struct PeriodDefinition {\n        uint256 apy;\n        uint256 yearlyPeriods;\n        bool initialized;\n        uint256[] starts;\n        uint256[] ends;\n    }\n\n    /// @dev (periodType=>PeriodDefinition) hourly/weekly/biWeekly/monthly/yearly are periodTypes\n    mapping(PeriodType => PeriodDefinition) public periodDefinitions;\n\n    /**\n     * @dev event to log a new period initialized\n     *@param periodType 1. period type i.e. Hourly, Daily, Weekly, BiWeekly, Monthly, Yearly\n     *@param periodsAdded 2. amount of periods added\n     *@param apy 3. annual percentage yield offered for a year long SLA\n     *@param yearlyPeriods 4. amount of periods of the corresponding periods per year to calculate real APY\n     */\n    event PeriodInitialized(\n        PeriodType periodType,\n        uint256 periodsAdded,\n        uint256 apy,\n        uint256 yearlyPeriods\n    );\n\n    /**\n     * @dev public function for creating canonical service level agreements\n     *@param _periodType 1. period type i.e. Hourly, Daily, Weekly, BiWeekly, Monthly, Yearly\n     *@param _periodStarts 2. array of the starts of the period\n     *@param _periodEnds 3. array of the ends of the period\n     *@param _apy 4. annual percentage yield offered for a year long SLA\n     *@param _yearlyPeriods 5. amount of periods of the corresponding periods per year to calculate real APY\n     */\n    function initializePeriod(\n        PeriodType _periodType,\n        uint256[] memory _periodStarts,\n        uint256[] memory _periodEnds,\n        uint256 _apy,\n        uint256 _yearlyPeriods\n    ) public onlyOwner {\n        PeriodDefinition storage periodDefinition =\n            periodDefinitions[_periodType];\n        require(\n            periodDefinition.initialized == false,\n            \"Period type already initialized\"\n        );\n        require(\n            _periodStarts.length == _periodEnds.length,\n            \"Period type starts and ends should match\"\n        );\n        require(_periodStarts.length > 0, \"Period length can't be 0\");\n        for (uint256 index = 0; index < _periodStarts.length; index++) {\n            require(\n                _periodStarts[index] < _periodEnds[index],\n                \"Start should be before end\"\n            );\n            periodDefinition.starts.push(_periodStarts[index]);\n            periodDefinition.ends.push(_periodEnds[index]);\n        }\n        periodDefinition.apy = _apy;\n        periodDefinition.yearlyPeriods = _yearlyPeriods;\n        periodDefinition.initialized = true;\n    }\n\n    /**\n     * @dev public function to get the start and end of a period\n     *@param _periodType 1. period type i.e. Hourly, Daily, Weekly, BiWeekly, Monthly, Yearly\n     *@param _periodId 2. period id to get start and end\n     */\n    function getPeriodStartAndEnd(PeriodType _periodType, uint256 _periodId)\n        public\n        view\n        returns (uint256 start, uint256 end)\n    {\n        start = periodDefinitions[_periodType].starts[_periodId];\n        end = periodDefinitions[_periodType].ends[_periodId];\n    }\n\n    /**\n     * @dev public function to check if a period id is valid\n     *@param _periodType 1. period type i.e. Hourly, Daily, Weekly, BiWeekly, Monthly, Yearly\n     *@param _periodId 2. period id to get start and end\n     */\n    function isValidPeriod(PeriodType _periodType, uint256 _periodId)\n        public\n        view\n        returns (bool valid)\n    {\n        PeriodDefinition memory periodDefinition =\n            periodDefinitions[_periodType];\n        require(\n            periodDefinition.initialized,\n            \"Period type not initialized yet\"\n        );\n        // check if _periodId is smaller or equal to the last periodId value\n        valid = periodDefinition.starts.length.sub(1) >= _periodId;\n    }\n\n    /**\n     * @dev public function to check if a period has finished\n     *@param _periodType 1. period type i.e. Hourly, Daily, Weekly, BiWeekly, Monthly, Yearly\n     *@param _periodId 2. period id to get start and end\n     */\n    function periodIsFinished(PeriodType _periodType, uint256 _periodId)\n        public\n        view\n        returns (bool finished)\n    {\n        PeriodDefinition memory periodDefinition =\n            periodDefinitions[_periodType];\n        require(\n            periodDefinition.initialized,\n            \"Period type not initialized yet\"\n        );\n        finished =\n            periodDefinitions[_periodType].ends[_periodId] < block.timestamp;\n    }\n}\n",
  "sourcePath": "/Users/matiasbn/Desktop/stacktical/stacktical-dsla-contracts/contracts/PeriodRegistry.sol",
  "compiler": {
    "name": "solc",
    "version": "0.6.12+commit.27d51765.Emscripten.clang"
  },
  "schemaVersion": "3.3.3",
  "updatedAt": "2021-02-14T13:32:24.447Z",
  "devdoc": {
    "details": "SLARegistry is a contract for handling creation of service level agreements and keeping track of the created agreements",
    "events": {
      "PeriodInitialized(uint8,uint256,uint256,uint256)": {
        "details": "event to log a new period initialized",
        "params": {
          "apy": "3. annual percentage yield offered for a year long SLA",
          "periodType": "1. period type i.e. Hourly, Daily, Weekly, BiWeekly, Monthly, Yearly",
          "periodsAdded": "2. amount of periods added",
          "yearlyPeriods": "4. amount of periods of the corresponding periods per year to calculate real APY"
        }
      }
    },
    "kind": "dev",
    "methods": {
      "getPeriodStartAndEnd(uint8,uint256)": {
        "details": "public function to get the start and end of a period",
        "params": {
          "_periodId": "2. period id to get start and end",
          "_periodType": "1. period type i.e. Hourly, Daily, Weekly, BiWeekly, Monthly, Yearly"
        }
      },
      "initializePeriod(uint8,uint256[],uint256[],uint256,uint256)": {
        "details": "public function for creating canonical service level agreements",
        "params": {
          "_apy": "4. annual percentage yield offered for a year long SLA",
          "_periodEnds": "3. array of the ends of the period",
          "_periodStarts": "2. array of the starts of the period",
          "_periodType": "1. period type i.e. Hourly, Daily, Weekly, BiWeekly, Monthly, Yearly",
          "_yearlyPeriods": "5. amount of periods of the corresponding periods per year to calculate real APY"
        }
      },
      "isValidPeriod(uint8,uint256)": {
        "details": "public function to check if a period id is valid",
        "params": {
          "_periodId": "2. period id to get start and end",
          "_periodType": "1. period type i.e. Hourly, Daily, Weekly, BiWeekly, Monthly, Yearly"
        }
      },
      "owner()": {
        "details": "Returns the address of the current owner."
      },
      "periodIsFinished(uint8,uint256)": {
        "details": "public function to check if a period has finished",
        "params": {
          "_periodId": "2. period id to get start and end",
          "_periodType": "1. period type i.e. Hourly, Daily, Weekly, BiWeekly, Monthly, Yearly"
        }
      },
      "renounceOwnership()": {
        "details": "Leaves the contract without owner. It will not be possible to call `onlyOwner` functions anymore. Can only be called by the current owner. NOTE: Renouncing ownership will leave the contract without an owner, thereby removing any functionality that is only available to the owner."
      },
      "transferOwnership(address)": {
        "details": "Transfers ownership of the contract to a new account (`newOwner`). Can only be called by the current owner."
      }
    },
    "stateVariables": {
      "periodDefinitions": {
        "details": "(periodType=>PeriodDefinition) hourly/weekly/biWeekly/monthly/yearly are periodTypes"
      }
    },
    "title": "SLARegistry",
    "version": 1
  },
  "userdoc": {
    "kind": "user",
    "methods": {},
    "version": 1
  }
}