{
  "contractName": "PeriodRegistry",
  "abi": [
    {
      "anonymous": false,
      "inputs": [
        {
          "indexed": true,
          "internalType": "address",
          "name": "previousOwner",
          "type": "address"
        },
        {
          "indexed": true,
          "internalType": "address",
          "name": "newOwner",
          "type": "address"
        }
      ],
      "name": "OwnershipTransferred",
      "type": "event"
    },
    {
      "anonymous": false,
      "inputs": [
        {
          "indexed": false,
          "internalType": "enum PeriodRegistry.PeriodType",
          "name": "periodType",
          "type": "uint8"
        },
        {
          "indexed": false,
          "internalType": "uint256",
          "name": "periodsAdded",
          "type": "uint256"
        },
        {
          "indexed": false,
          "internalType": "uint256",
          "name": "apy",
          "type": "uint256"
        },
        {
          "indexed": false,
          "internalType": "uint256",
          "name": "yearlyPeriods",
          "type": "uint256"
        }
      ],
      "name": "PeriodInitialized",
      "type": "event"
    },
    {
      "inputs": [],
      "name": "owner",
      "outputs": [
        {
          "internalType": "address",
          "name": "",
          "type": "address"
        }
      ],
      "stateMutability": "view",
      "type": "function"
    },
    {
      "inputs": [
        {
          "internalType": "enum PeriodRegistry.PeriodType",
          "name": "",
          "type": "uint8"
        }
      ],
      "name": "periodDefinitions",
      "outputs": [
        {
          "internalType": "uint256",
          "name": "yearlyPeriods",
          "type": "uint256"
        },
        {
          "internalType": "bool",
          "name": "initialized",
          "type": "bool"
        }
      ],
      "stateMutability": "view",
      "type": "function"
    },
    {
      "inputs": [],
      "name": "renounceOwnership",
      "outputs": [],
      "stateMutability": "nonpayable",
      "type": "function"
    },
    {
      "inputs": [
        {
          "internalType": "address",
          "name": "newOwner",
          "type": "address"
        }
      ],
      "name": "transferOwnership",
      "outputs": [],
      "stateMutability": "nonpayable",
      "type": "function"
    },
    {
      "inputs": [
        {
          "internalType": "enum PeriodRegistry.PeriodType",
          "name": "_periodType",
          "type": "uint8"
        },
        {
          "internalType": "uint256[]",
          "name": "_periodStarts",
          "type": "uint256[]"
        },
        {
          "internalType": "uint256[]",
          "name": "_periodEnds",
          "type": "uint256[]"
        },
        {
          "internalType": "uint256",
          "name": "_yearlyPeriods",
          "type": "uint256"
        }
      ],
      "name": "initializePeriod",
      "outputs": [],
      "stateMutability": "nonpayable",
      "type": "function"
    },
    {
      "inputs": [
        {
          "internalType": "enum PeriodRegistry.PeriodType",
          "name": "_periodType",
          "type": "uint8"
        },
        {
          "internalType": "uint256[]",
          "name": "_periodStarts",
          "type": "uint256[]"
        },
        {
          "internalType": "uint256[]",
          "name": "_periodEnds",
          "type": "uint256[]"
        }
      ],
      "name": "addPeriodsToPeriodType",
      "outputs": [],
      "stateMutability": "nonpayable",
      "type": "function"
    },
    {
      "inputs": [
        {
          "internalType": "enum PeriodRegistry.PeriodType",
          "name": "_periodType",
          "type": "uint8"
        },
        {
          "internalType": "uint256",
          "name": "_periodId",
          "type": "uint256"
        }
      ],
      "name": "getPeriodStartAndEnd",
      "outputs": [
        {
          "internalType": "uint256",
          "name": "start",
          "type": "uint256"
        },
        {
          "internalType": "uint256",
          "name": "end",
          "type": "uint256"
        }
      ],
      "stateMutability": "view",
      "type": "function"
    },
    {
      "inputs": [
        {
          "internalType": "enum PeriodRegistry.PeriodType",
          "name": "_periodType",
          "type": "uint8"
        },
        {
          "internalType": "uint256",
          "name": "_periodId",
          "type": "uint256"
        }
      ],
      "name": "isValidPeriod",
      "outputs": [
        {
          "internalType": "bool",
          "name": "valid",
          "type": "bool"
        }
      ],
      "stateMutability": "view",
      "type": "function"
    },
    {
      "inputs": [
        {
          "internalType": "enum PeriodRegistry.PeriodType",
          "name": "_periodType",
          "type": "uint8"
        },
        {
          "internalType": "uint256",
          "name": "_periodId",
          "type": "uint256"
        }
      ],
      "name": "periodIsFinished",
      "outputs": [
        {
          "internalType": "bool",
          "name": "finished",
          "type": "bool"
        }
      ],
      "stateMutability": "view",
      "type": "function"
    }
  ],
  "bytecode": "0x608060405234801561001057600080fd5b50600061001b61006a565b600080546001600160a01b0319166001600160a01b0383169081178255604051929350917f8be0079c531659141344cd1fd0a4f28419497f9722a3daafe3b4186f6b6457e0908290a35061006e565b3390565b610f838061007d6000396000f3fe608060405234801561001057600080fd5b50600436106100835760003560e01c80635c98d15714610088578063715018a6146100b25780638da5cb5b146100bc578063963a470b146100d1578063b3414157146100e4578063c7b6ceb4146100f7578063ddfc4fde14610117578063f2fde38b1461012a578063ffa612351461013d575b600080fd5b61009b610096366004610b38565b61015e565b6040516100a9929190610f1f565b60405180910390f35b6100ba61017a565b005b6100c4610202565b6040516100a99190610c6d565b6100ba6100df366004610b54565b610211565b6100ba6100f2366004610bc7565b6103f5565b61010a610105366004610c42565b6105e9565b6040516100a99190610c81565b61010a610125366004610c42565b610756565b6100ba610138366004610b11565b610893565b61015061014b366004610c42565b610949565b6040516100a9929190610f2f565b6001602081905260009182526040909120805491015460ff1682565b6101826109db565b6000546001600160a01b039081169116146101b85760405162461bcd60e51b81526004016101af90610e81565b60405180910390fd5b600080546040516001600160a01b03909116907f8be0079c531659141344cd1fd0a4f28419497f9722a3daafe3b4186f6b6457e0908390a3600080546001600160a01b0319169055565b6000546001600160a01b031690565b6102196109db565b6000546001600160a01b039081169116146102465760405162461bcd60e51b81526004016101af90610e81565b60008251116102675760405162461bcd60e51b81526004016101af90610eb6565b60006001600085600581111561027957fe5b600581111561028457fe5b8152602081019190915260400160002060018082015491925060ff9091161515146102c15760405162461bcd60e51b81526004016101af90610e4a565b60005b83518110156103ee578281815181106102d957fe5b60200260200101518482815181106102ed57fe5b6020026020010151106103125760405162461bcd60e51b81526004016101af90610d85565b835161031f9060016109df565b8110156103815761036283828151811061033557fe5b602002602001015185836001018151811061034c57fe5b60200260200101516109df90919063ffffffff16565b6001146103815760405162461bcd60e51b81526004016101af90610d16565b8160020184828151811061039157fe5b60209081029190910181015182546001810184556000938452919092200155825160038301908490839081106103c357fe5b60209081029190910181015182546001818101855560009485529290932090920191909155016102c4565b5050505050565b6103fd6109db565b6000546001600160a01b0390811691161461042a5760405162461bcd60e51b81526004016101af90610e81565b60006001600086600581111561043c57fe5b600581111561044757fe5b81526020810191909152604001600020600181015490915060ff161561047f5760405162461bcd60e51b81526004016101af90610ee8565b82518451146104a05760405162461bcd60e51b81526004016101af90610e02565b60008451116104c15760405162461bcd60e51b81526004016101af90610eb6565b60005b84518110156105d0578381815181106104d957fe5b60200260200101518582815181106104ed57fe5b6020026020010151106105125760405162461bcd60e51b81526004016101af90610d85565b60018551038110156105635761054484828151811061052d57fe5b602002602001015186836001018151811061034c57fe5b6001146105635760405162461bcd60e51b81526004016101af90610d16565b8160020185828151811061057357fe5b60209081029190910181015182546001810184556000938452919092200155835160038301908590839081106105a557fe5b60209081029190910181015182546001818101855560009485529290932090920191909155016104c4565b509081556001908101805460ff19169091179055505050565b60006105f3610a54565b6001600085600581111561060357fe5b600581111561060e57fe5b81526020808201929092526040908101600020815160808101835281548152600182015460ff1615158185015260028201805484518187028101870186528181529295939486019383018282801561068557602002820191906000526020600020905b815481526020019060010190808311610671575b50505050508152602001600382018054806020026020016040519081016040528092919081815260200182805480156106dd57602002820191906000526020600020905b8154815260200190600101908083116106c9575b505050505081525050905080602001516107095760405162461bcd60e51b81526004016101af90610cdf565b426001600086600581111561071a57fe5b600581111561072557fe5b8152602001908152602001600020600301848154811061074157fe5b90600052602060002001541091505092915050565b6000610760610a54565b6001600085600581111561077057fe5b600581111561077b57fe5b81526020808201929092526040908101600020815160808101835281548152600182015460ff161515818501526002820180548451818702810187018652818152929593948601938301828280156107f257602002820191906000526020600020905b8154815260200190600101908083116107de575b505050505081526020016003820180548060200260200160405190810160405280929190818152602001828054801561084a57602002820191906000526020600020905b815481526020019060010190808311610836575b505050505081525050905080602001516108765760405162461bcd60e51b81526004016101af90610cdf565b60408101515183906108899060016109df565b1015949350505050565b61089b6109db565b6000546001600160a01b039081169116146108c85760405162461bcd60e51b81526004016101af90610e81565b6001600160a01b0381166108ee5760405162461bcd60e51b81526004016101af90610dbc565b600080546040516001600160a01b03808516939216917f8be0079c531659141344cd1fd0a4f28419497f9722a3daafe3b4186f6b6457e091a3600080546001600160a01b0319166001600160a01b0392909216919091179055565b6000806001600085600581111561095c57fe5b600581111561096757fe5b8152602001908152602001600020600201838154811061098357fe5b90600052602060002001549150600160008560058111156109a057fe5b60058111156109ab57fe5b815260200190815260200160002060030183815481106109c757fe5b906000526020600020015490509250929050565b3390565b6000610a2183836040518060400160405280601e81526020017f536166654d6174683a207375627472616374696f6e206f766572666c6f770000815250610a28565b9392505050565b60008184841115610a4c5760405162461bcd60e51b81526004016101af9190610c8c565b505050900390565b60405180608001604052806000815260200160001515815260200160608152602001606081525090565b600082601f830112610a8e578081fd5b813567ffffffffffffffff80821115610aa5578283fd5b602080830260405182828201018181108582111715610ac2578687fd5b604052848152945081850192508582018187018301881015610ae357600080fd5b600091505b84821015610b06578035845292820192600191909101908201610ae8565b505050505092915050565b600060208284031215610b22578081fd5b81356001600160a01b0381168114610a21578182fd5b600060208284031215610b49578081fd5b8135610a2181610f3d565b600080600060608486031215610b68578182fd5b8335610b7381610f3d565b9250602084013567ffffffffffffffff80821115610b8f578384fd5b610b9b87838801610a7e565b93506040860135915080821115610bb0578283fd5b50610bbd86828701610a7e565b9150509250925092565b60008060008060808587031215610bdc578081fd5b8435610be781610f3d565b9350602085013567ffffffffffffffff80821115610c03578283fd5b610c0f88838901610a7e565b94506040870135915080821115610c24578283fd5b50610c3187828801610a7e565b949793965093946060013593505050565b60008060408385031215610c54578182fd5b8235610c5f81610f3d565b946020939093013593505050565b6001600160a01b0391909116815260200190565b901515815260200190565b6000602080835283518082850152825b81811015610cb857858101830151858201604001528201610c9c565b81811115610cc95783604083870101525b50601f01601f1916929092016040019392505050565b6020808252601f908201527f506572696f642074797065206e6f7420696e697469616c697a65642079657400604082015260600190565b60208082526049908201527f5374617274206f66206120706572696f642073686f756c64206265203120736560408201527f636f6e642061667465722074686520656e64206f66207468652070726576696f6060820152681d5cc81c195c9a5bd960ba1b608082015260a00190565b6020808252601a908201527f53746172742073686f756c64206265206265666f726520656e64000000000000604082015260600190565b60208082526026908201527f4f776e61626c653a206e6577206f776e657220697320746865207a65726f206160408201526564647265737360d01b606082015260800190565b60208082526028908201527f506572696f6420747970652073746172747320616e6420656e64732073686f756040820152670d8c840dac2e8c6d60c31b606082015260800190565b6020808252601e908201527f506572696f6420776173206e6f7420696e697469616c697a6564207965740000604082015260600190565b6020808252818101527f4f776e61626c653a2063616c6c6572206973206e6f7420746865206f776e6572604082015260600190565b6020808252601890820152770506572696f64206c656e6774682063616e277420626520360441b604082015260600190565b6020808252601f908201527f506572696f64207479706520616c726561647920696e697469616c697a656400604082015260600190565b9182521515602082015260400190565b918252602082015260400190565b60068110610f4a57600080fd5b5056fea26469706673582212203cf1282ccc7a407e55785cc90b5bafbe86dcd275b95ad9da06ba3b541ccdf2ca64736f6c634300060c0033",
  "immutableReferences": {},
  "source": "// SPDX-License-Identifier: MIT\npragma solidity ^0.6.0;\npragma experimental ABIEncoderV2;\n\nimport \"@openzeppelin/contracts/math/SafeMath.sol\";\nimport \"@openzeppelin/contracts/access/Ownable.sol\";\n\n/**\n * @title SLARegistry\n * @dev SLARegistry is a contract for handling creation of service level\n * agreements and keeping track of the created agreements\n */\ncontract PeriodRegistry is Ownable {\n    using SafeMath for uint256;\n\n    enum PeriodType {Hourly, Daily, Weekly, BiWeekly, Monthly, Yearly}\n\n    /// @dev struct to store the definition of a period\n    struct PeriodDefinition {\n        uint256 yearlyPeriods;\n        bool initialized;\n        uint256[] starts;\n        uint256[] ends;\n    }\n\n    /// @dev (periodType=>PeriodDefinition) hourly/weekly/biWeekly/monthly/yearly are periodTypes\n    mapping(PeriodType => PeriodDefinition) public periodDefinitions;\n\n    /**\n     * @dev event to log a new period initialized\n     *@param periodType 1. period type i.e. Hourly, Daily, Weekly, BiWeekly, Monthly, Yearly\n     *@param periodsAdded 2. amount of periods added\n     *@param apy 3. annual percentage yield offered for a year long SLA\n     *@param yearlyPeriods 4. amount of periods of the corresponding periods per year to calculate real APY\n     */\n    event PeriodInitialized(\n        PeriodType periodType,\n        uint256 periodsAdded,\n        uint256 apy,\n        uint256 yearlyPeriods\n    );\n\n    /**\n     * @dev public function for creating canonical service level agreements\n     *@param _periodType 1. period type i.e. Hourly, Daily, Weekly, BiWeekly, Monthly, Yearly\n     *@param _periodStarts 2. array of the starts of the period\n     *@param _periodEnds 3. array of the ends of the period\n     *@param _yearlyPeriods 5. amount of periods of the corresponding periods per year to calculate real APY\n     */\n    function initializePeriod(\n        PeriodType _periodType,\n        uint256[] memory _periodStarts,\n        uint256[] memory _periodEnds,\n        uint256 _yearlyPeriods\n    ) public onlyOwner {\n        PeriodDefinition storage periodDefinition =\n            periodDefinitions[_periodType];\n        require(\n            periodDefinition.initialized == false,\n            \"Period type already initialized\"\n        );\n        require(\n            _periodStarts.length == _periodEnds.length,\n            \"Period type starts and ends should match\"\n        );\n        require(_periodStarts.length > 0, \"Period length can't be 0\");\n        for (uint256 index = 0; index < _periodStarts.length; index++) {\n            require(\n                _periodStarts[index] < _periodEnds[index],\n                \"Start should be before end\"\n            );\n            if (index < _periodStarts.length - 1) {\n                require(\n                    _periodStarts[index + 1].sub(_periodEnds[index]) == 1,\n                    \"Start of a period should be 1 second after the end of the previous period\"\n                );\n            }\n            periodDefinition.starts.push(_periodStarts[index]);\n            periodDefinition.ends.push(_periodEnds[index]);\n        }\n        periodDefinition.yearlyPeriods = _yearlyPeriods;\n        periodDefinition.initialized = true;\n    }\n\n    /**\n     * @dev function to add new periods to certain period type\n     *@param _periodType 1. period type i.e. Hourly, Daily, Weekly, BiWeekly, Monthly, Yearly\n     *@param _periodStarts 2. array of uint256 of the period starts to add\n     *@param _periodEnds 3. array of uint256 of the period starts to add\n     */\n    function addPeriodsToPeriodType(\n        PeriodType _periodType,\n        uint256[] memory _periodStarts,\n        uint256[] memory _periodEnds\n    ) public onlyOwner {\n        require(_periodStarts.length > 0, \"Period length can't be 0\");\n        PeriodDefinition storage periodDefinition =\n            periodDefinitions[_periodType];\n        require(\n            periodDefinition.initialized == true,\n            \"Period was not initialized yet\"\n        );\n        for (uint256 index = 0; index < _periodStarts.length; index++) {\n            require(\n                _periodStarts[index] < _periodEnds[index],\n                \"Start should be before end\"\n            );\n            if (index < _periodStarts.length.sub(1)) {\n                require(\n                    _periodStarts[index + 1].sub(_periodEnds[index]) == 1,\n                    \"Start of a period should be 1 second after the end of the previous period\"\n                );\n            }\n            periodDefinition.starts.push(_periodStarts[index]);\n            periodDefinition.ends.push(_periodEnds[index]);\n        }\n    }\n\n    /**\n     * @dev public function to get the start and end of a period\n     *@param _periodType 1. period type i.e. Hourly, Daily, Weekly, BiWeekly, Monthly, Yearly\n     *@param _periodId 2. period id to get start and end\n     */\n    function getPeriodStartAndEnd(PeriodType _periodType, uint256 _periodId)\n        public\n        view\n        returns (uint256 start, uint256 end)\n    {\n        start = periodDefinitions[_periodType].starts[_periodId];\n        end = periodDefinitions[_periodType].ends[_periodId];\n    }\n\n    /**\n     * @dev public function to check if a period id is valid i.e. it belongs to the added id array\n     *@param _periodType 1. period type i.e. Hourly, Daily, Weekly, BiWeekly, Monthly, Yearly\n     *@param _periodId 2. period id to get start and end\n     */\n    function isValidPeriod(PeriodType _periodType, uint256 _periodId)\n        public\n        view\n        returns (bool valid)\n    {\n        PeriodDefinition memory periodDefinition =\n            periodDefinitions[_periodType];\n        require(\n            periodDefinition.initialized,\n            \"Period type not initialized yet\"\n        );\n        // check if _periodId is smaller or equal to the last periodId value\n        valid = periodDefinition.starts.length.sub(1) >= _periodId;\n    }\n\n    /**\n     * @dev public function to check if a period has finished\n     *@param _periodType 1. period type i.e. Hourly, Daily, Weekly, BiWeekly, Monthly, Yearly\n     *@param _periodId 2. period id to get start and end\n     */\n    function periodIsFinished(PeriodType _periodType, uint256 _periodId)\n        public\n        view\n        returns (bool finished)\n    {\n        PeriodDefinition memory periodDefinition =\n            periodDefinitions[_periodType];\n        require(\n            periodDefinition.initialized,\n            \"Period type not initialized yet\"\n        );\n        finished =\n            periodDefinitions[_periodType].ends[_periodId] < block.timestamp;\n    }\n}\n",
  "sourcePath": "/Users/matiasbn/Desktop/stacktical/stacktical-dsla-contracts/contracts/PeriodRegistry.sol",
  "compiler": {
    "name": "solc",
    "version": "0.6.12+commit.27d51765.Emscripten.clang"
  },
  "schemaVersion": "3.3.3",
  "updatedAt": "2021-02-16T17:31:23.988Z",
  "devdoc": {
    "details": "SLARegistry is a contract for handling creation of service level agreements and keeping track of the created agreements",
    "events": {
      "PeriodInitialized(uint8,uint256,uint256,uint256)": {
        "details": "event to log a new period initialized",
        "params": {
          "apy": "3. annual percentage yield offered for a year long SLA",
          "periodType": "1. period type i.e. Hourly, Daily, Weekly, BiWeekly, Monthly, Yearly",
          "periodsAdded": "2. amount of periods added",
          "yearlyPeriods": "4. amount of periods of the corresponding periods per year to calculate real APY"
        }
      }
    },
    "kind": "dev",
    "methods": {
      "addPeriodsToPeriodType(uint8,uint256[],uint256[])": {
        "details": "function to add new periods to certain period type",
        "params": {
          "_periodEnds": "3. array of uint256 of the period starts to add",
          "_periodStarts": "2. array of uint256 of the period starts to add",
          "_periodType": "1. period type i.e. Hourly, Daily, Weekly, BiWeekly, Monthly, Yearly"
        }
      },
      "getPeriodStartAndEnd(uint8,uint256)": {
        "details": "public function to get the start and end of a period",
        "params": {
          "_periodId": "2. period id to get start and end",
          "_periodType": "1. period type i.e. Hourly, Daily, Weekly, BiWeekly, Monthly, Yearly"
        }
      },
      "initializePeriod(uint8,uint256[],uint256[],uint256)": {
        "details": "public function for creating canonical service level agreements",
        "params": {
          "_periodEnds": "3. array of the ends of the period",
          "_periodStarts": "2. array of the starts of the period",
          "_periodType": "1. period type i.e. Hourly, Daily, Weekly, BiWeekly, Monthly, Yearly",
          "_yearlyPeriods": "5. amount of periods of the corresponding periods per year to calculate real APY"
        }
      },
      "isValidPeriod(uint8,uint256)": {
        "details": "public function to check if a period id is valid i.e. it belongs to the added id array",
        "params": {
          "_periodId": "2. period id to get start and end",
          "_periodType": "1. period type i.e. Hourly, Daily, Weekly, BiWeekly, Monthly, Yearly"
        }
      },
      "owner()": {
        "details": "Returns the address of the current owner."
      },
      "periodIsFinished(uint8,uint256)": {
        "details": "public function to check if a period has finished",
        "params": {
          "_periodId": "2. period id to get start and end",
          "_periodType": "1. period type i.e. Hourly, Daily, Weekly, BiWeekly, Monthly, Yearly"
        }
      },
      "renounceOwnership()": {
        "details": "Leaves the contract without owner. It will not be possible to call `onlyOwner` functions anymore. Can only be called by the current owner. NOTE: Renouncing ownership will leave the contract without an owner, thereby removing any functionality that is only available to the owner."
      },
      "transferOwnership(address)": {
        "details": "Transfers ownership of the contract to a new account (`newOwner`). Can only be called by the current owner."
      }
    },
    "stateVariables": {
      "periodDefinitions": {
        "details": "(periodType=>PeriodDefinition) hourly/weekly/biWeekly/monthly/yearly are periodTypes"
      }
    },
    "title": "SLARegistry",
    "version": 1
  },
  "userdoc": {
    "kind": "user",
    "methods": {},
    "version": 1
  }
}