{
  "contractName": "PeriodRegistry",
  "abi": [
    {
      "anonymous": false,
      "inputs": [
        {
          "indexed": true,
          "internalType": "address",
          "name": "previousOwner",
          "type": "address"
        },
        {
          "indexed": true,
          "internalType": "address",
          "name": "newOwner",
          "type": "address"
        }
      ],
      "name": "OwnershipTransferred",
      "type": "event"
    },
    {
      "anonymous": false,
      "inputs": [
        {
          "indexed": false,
          "internalType": "enum PeriodRegistry.PeriodType",
          "name": "periodType",
          "type": "uint8"
        },
        {
          "indexed": false,
          "internalType": "uint256",
          "name": "periodsAdded",
          "type": "uint256"
        },
        {
          "indexed": false,
          "internalType": "uint256",
          "name": "apy",
          "type": "uint256"
        },
        {
          "indexed": false,
          "internalType": "uint256",
          "name": "yearlyPeriods",
          "type": "uint256"
        }
      ],
      "name": "PeriodInitialized",
      "type": "event"
    },
    {
      "inputs": [],
      "name": "owner",
      "outputs": [
        {
          "internalType": "address",
          "name": "",
          "type": "address"
        }
      ],
      "stateMutability": "view",
      "type": "function",
      "constant": true
    },
    {
      "inputs": [
        {
          "internalType": "enum PeriodRegistry.PeriodType",
          "name": "",
          "type": "uint8"
        }
      ],
      "name": "periodDefinitions",
      "outputs": [
        {
          "internalType": "uint256",
          "name": "yearlyPeriods",
          "type": "uint256"
        },
        {
          "internalType": "bool",
          "name": "initialized",
          "type": "bool"
        }
      ],
      "stateMutability": "view",
      "type": "function",
      "constant": true
    },
    {
      "inputs": [],
      "name": "renounceOwnership",
      "outputs": [],
      "stateMutability": "nonpayable",
      "type": "function"
    },
    {
      "inputs": [
        {
          "internalType": "address",
          "name": "newOwner",
          "type": "address"
        }
      ],
      "name": "transferOwnership",
      "outputs": [],
      "stateMutability": "nonpayable",
      "type": "function"
    },
    {
      "inputs": [
        {
          "internalType": "enum PeriodRegistry.PeriodType",
          "name": "_periodType",
          "type": "uint8"
        },
        {
          "internalType": "uint256[]",
          "name": "_periodStarts",
          "type": "uint256[]"
        },
        {
          "internalType": "uint256[]",
          "name": "_periodEnds",
          "type": "uint256[]"
        },
        {
          "internalType": "uint256",
          "name": "_yearlyPeriods",
          "type": "uint256"
        }
      ],
      "name": "initializePeriod",
      "outputs": [],
      "stateMutability": "nonpayable",
      "type": "function"
    },
    {
      "inputs": [
        {
          "internalType": "enum PeriodRegistry.PeriodType",
          "name": "_periodType",
          "type": "uint8"
        },
        {
          "internalType": "uint256[]",
          "name": "_periodStarts",
          "type": "uint256[]"
        },
        {
          "internalType": "uint256[]",
          "name": "_periodEnds",
          "type": "uint256[]"
        }
      ],
      "name": "addPeriodsToPeriodType",
      "outputs": [],
      "stateMutability": "nonpayable",
      "type": "function"
    },
    {
      "inputs": [
        {
          "internalType": "enum PeriodRegistry.PeriodType",
          "name": "_periodType",
          "type": "uint8"
        },
        {
          "internalType": "uint256",
          "name": "_periodId",
          "type": "uint256"
        }
      ],
      "name": "getPeriodStartAndEnd",
      "outputs": [
        {
          "internalType": "uint256",
          "name": "start",
          "type": "uint256"
        },
        {
          "internalType": "uint256",
          "name": "end",
          "type": "uint256"
        }
      ],
      "stateMutability": "view",
      "type": "function",
      "constant": true
    },
    {
      "inputs": [
        {
          "internalType": "enum PeriodRegistry.PeriodType",
          "name": "_periodType",
          "type": "uint8"
        },
        {
          "internalType": "uint256",
          "name": "_periodId",
          "type": "uint256"
        }
      ],
      "name": "isValidPeriod",
      "outputs": [
        {
          "internalType": "bool",
          "name": "valid",
          "type": "bool"
        }
      ],
      "stateMutability": "view",
      "type": "function",
      "constant": true
    },
    {
      "inputs": [
        {
          "internalType": "enum PeriodRegistry.PeriodType",
          "name": "_periodType",
          "type": "uint8"
        },
        {
          "internalType": "uint256",
          "name": "_periodId",
          "type": "uint256"
        }
      ],
      "name": "periodIsFinished",
      "outputs": [
        {
          "internalType": "bool",
          "name": "finished",
          "type": "bool"
        }
      ],
      "stateMutability": "view",
      "type": "function",
      "constant": true
    },
    {
      "inputs": [],
      "name": "getPeriodDefinitions",
      "outputs": [
        {
          "components": [
            {
              "internalType": "uint256",
              "name": "yearlyPeriods",
              "type": "uint256"
            },
            {
              "internalType": "bool",
              "name": "initialized",
              "type": "bool"
            },
            {
              "internalType": "uint256[]",
              "name": "starts",
              "type": "uint256[]"
            },
            {
              "internalType": "uint256[]",
              "name": "ends",
              "type": "uint256[]"
            }
          ],
          "internalType": "struct PeriodRegistry.PeriodDefinition[]",
          "name": "",
          "type": "tuple[]"
        }
      ],
      "stateMutability": "view",
      "type": "function",
      "constant": true
    }
  ],
  "bytecode": "0x608060405234801561001057600080fd5b50600061001b61006a565b600080546001600160a01b0319166001600160a01b0383169081178255604051929350917f8be0079c531659141344cd1fd0a4f28419497f9722a3daafe3b4186f6b6457e0908290a35061006e565b3390565b6118878061007d6000396000f3fe608060405234801561001057600080fd5b506004361061009e5760003560e01c8063c7b6ceb411610066578063c7b6ceb414610112578063d62e307514610132578063ddfc4fde14610147578063f2fde38b1461015a578063ffa612351461016d5761009e565b80635c98d157146100a3578063715018a6146100cd5780638da5cb5b146100d7578063963a470b146100ec578063b3414157146100ff575b600080fd5b6100b66100b1366004611357565b61018e565b6040516100c4929190611823565b60405180910390f35b6100d56101aa565b005b6100df610232565b6040516100c491906114cf565b6100d56100fa366004611373565b610241565b6100d561010d3660046113e6565b610425565b610125610120366004611461565b610619565b6040516100c49190611585565b61013a610786565b6040516100c491906114e3565b610125610155366004611461565b610f75565b6100d5610168366004611330565b6110b2565b61018061017b366004611461565b611168565b6040516100c4929190611833565b6001602081905260009182526040909120805491015460ff1682565b6101b26111fa565b6000546001600160a01b039081169116146101e85760405162461bcd60e51b81526004016101df90611785565b60405180910390fd5b600080546040516001600160a01b03909116907f8be0079c531659141344cd1fd0a4f28419497f9722a3daafe3b4186f6b6457e0908390a3600080546001600160a01b0319169055565b6000546001600160a01b031690565b6102496111fa565b6000546001600160a01b039081169116146102765760405162461bcd60e51b81526004016101df90611785565b60008251116102975760405162461bcd60e51b81526004016101df906117ba565b6000600160008560058111156102a957fe5b60058111156102b457fe5b8152602081019190915260400160002060018082015491925060ff9091161515146102f15760405162461bcd60e51b81526004016101df9061174e565b60005b835181101561041e5782818151811061030957fe5b602002602001015184828151811061031d57fe5b6020026020010151106103425760405162461bcd60e51b81526004016101df90611689565b835161034f9060016111fe565b8110156103b15761039283828151811061036557fe5b602002602001015185836001018151811061037c57fe5b60200260200101516111fe90919063ffffffff16565b6001146103b15760405162461bcd60e51b81526004016101df9061161a565b816002018482815181106103c157fe5b60209081029190910181015182546001810184556000938452919092200155825160038301908490839081106103f357fe5b60209081029190910181015182546001818101855560009485529290932090920191909155016102f4565b5050505050565b61042d6111fa565b6000546001600160a01b0390811691161461045a5760405162461bcd60e51b81526004016101df90611785565b60006001600086600581111561046c57fe5b600581111561047757fe5b81526020810191909152604001600020600181015490915060ff16156104af5760405162461bcd60e51b81526004016101df906117ec565b82518451146104d05760405162461bcd60e51b81526004016101df90611706565b60008451116104f15760405162461bcd60e51b81526004016101df906117ba565b60005b84518110156106005783818151811061050957fe5b602002602001015185828151811061051d57fe5b6020026020010151106105425760405162461bcd60e51b81526004016101df90611689565b60018551038110156105935761057484828151811061055d57fe5b602002602001015186836001018151811061037c57fe5b6001146105935760405162461bcd60e51b81526004016101df9061161a565b816002018582815181106105a357fe5b60209081029190910181015182546001810184556000938452919092200155835160038301908590839081106105d557fe5b60209081029190910181015182546001818101855560009485529290932090920191909155016104f4565b509081556001908101805460ff19169091179055505050565b6000610623611273565b6001600085600581111561063357fe5b600581111561063e57fe5b81526020808201929092526040908101600020815160808101835281548152600182015460ff161515818501526002820180548451818702810187018652818152929593948601938301828280156106b557602002820191906000526020600020905b8154815260200190600101908083116106a1575b505050505081526020016003820180548060200260200160405190810160405280929190818152602001828054801561070d57602002820191906000526020600020905b8154815260200190600101908083116106f9575b505050505081525050905080602001516107395760405162461bcd60e51b81526004016101df906115e3565b426001600086600581111561074a57fe5b600581111561075557fe5b8152602001908152602001600020600301848154811061077157fe5b90600052602060002001541091505092915050565b60408051600680825260e08201909252606091829190816020015b6107a9611273565b8152602001906001900390816107a15750506000805260016020908152604080516080810182527fa6eef7e35abe7026729641147f7915573c7e97b47efa546f5f6e3230263bcb49805482527fa6eef7e35abe7026729641147f7915573c7e97b47efa546f5f6e3230263bcb4a5460ff161515828501527fa6eef7e35abe7026729641147f7915573c7e97b47efa546f5f6e3230263bcb4b8054845181870281018701865281815296975092959194938601939192909183018282801561088f57602002820191906000526020600020905b81548152602001906001019080831161087b575b50505050508152602001600382018054806020026020016040519081016040528092919081815260200182805480156108e757602002820191906000526020600020905b8154815260200190600101908083116108d3575b505050505081525050816000815181106108fd57fe5b602090810291909101810191909152600160008190528152604080516080810182527fcc69885fda6bcc1a4ace058b4a62bf5e179ea78fd58a1ccd71c22cc9b688792f805482527fcc69885fda6bcc1a4ace058b4a62bf5e179ea78fd58a1ccd71c22cc9b68879305460ff161515828501527fcc69885fda6bcc1a4ace058b4a62bf5e179ea78fd58a1ccd71c22cc9b68879318054845181870281018701865281815293959294860193928301828280156109d757602002820191906000526020600020905b8154815260200190600101908083116109c3575b5050505050815260200160038201805480602002602001604051908101604052809291908181526020018280548015610a2f57602002820191906000526020600020905b815481526020019060010190808311610a1b575b50505050508152505081600181518110610a4557fe5b602090810291909101810191909152600260005260018152604080516080810182527fd9d16d34ffb15ba3a3d852f0d403e2ce1d691fb54de27ac87cd2f993f3ec330f805482527fd9d16d34ffb15ba3a3d852f0d403e2ce1d691fb54de27ac87cd2f993f3ec33105460ff161515828501527fd9d16d34ffb15ba3a3d852f0d403e2ce1d691fb54de27ac87cd2f993f3ec3311805484518187028101870186528181529395929486019392830182828015610b1f57602002820191906000526020600020905b815481526020019060010190808311610b0b575b5050505050815260200160038201805480602002602001604051908101604052809291908181526020018280548015610b7757602002820191906000526020600020905b815481526020019060010190808311610b63575b50505050508152505081600281518110610b8d57fe5b602090810291909101810191909152600360005260018152604080516080810182527f7dfe757ecd65cbd7922a9c0161e935dd7fdbcc0e999689c7d31633896b1fc60b805482527f7dfe757ecd65cbd7922a9c0161e935dd7fdbcc0e999689c7d31633896b1fc60c5460ff161515828501527f7dfe757ecd65cbd7922a9c0161e935dd7fdbcc0e999689c7d31633896b1fc60d805484518187028101870186528181529395929486019392830182828015610c6757602002820191906000526020600020905b815481526020019060010190808311610c53575b5050505050815260200160038201805480602002602001604051908101604052809291908181526020018280548015610cbf57602002820191906000526020600020905b815481526020019060010190808311610cab575b50505050508152505081600381518110610cd557fe5b602090810291909101810191909152600460005260018152604080516080810182527fedc95719e9a3b28dd8e80877cb5880a9be7de1a13fc8b05e7999683b6b567643805482527fedc95719e9a3b28dd8e80877cb5880a9be7de1a13fc8b05e7999683b6b5676445460ff161515828501527fedc95719e9a3b28dd8e80877cb5880a9be7de1a13fc8b05e7999683b6b567645805484518187028101870186528181529395929486019392830182828015610daf57602002820191906000526020600020905b815481526020019060010190808311610d9b575b5050505050815260200160038201805480602002602001604051908101604052809291908181526020018280548015610e0757602002820191906000526020600020905b815481526020019060010190808311610df3575b50505050508152505081600481518110610e1d57fe5b602090810291909101810191909152600560005260018152604080516080810182527fe2689cd4a84e23ad2f564004f1c9013e9589d260bde6380aba3ca7e09e4df40c805482527fe2689cd4a84e23ad2f564004f1c9013e9589d260bde6380aba3ca7e09e4df40d5460ff161515828501527fe2689cd4a84e23ad2f564004f1c9013e9589d260bde6380aba3ca7e09e4df40e805484518187028101870186528181529395929486019392830182828015610ef757602002820191906000526020600020905b815481526020019060010190808311610ee3575b5050505050815260200160038201805480602002602001604051908101604052809291908181526020018280548015610f4f57602002820191906000526020600020905b815481526020019060010190808311610f3b575b50505050508152505081600581518110610f6557fe5b6020908102919091010152905090565b6000610f7f611273565b60016000856005811115610f8f57fe5b6005811115610f9a57fe5b81526020808201929092526040908101600020815160808101835281548152600182015460ff1615158185015260028201805484518187028101870186528181529295939486019383018282801561101157602002820191906000526020600020905b815481526020019060010190808311610ffd575b505050505081526020016003820180548060200260200160405190810160405280929190818152602001828054801561106957602002820191906000526020600020905b815481526020019060010190808311611055575b505050505081525050905080602001516110955760405162461bcd60e51b81526004016101df906115e3565b60408101515183906110a89060016111fe565b1015949350505050565b6110ba6111fa565b6000546001600160a01b039081169116146110e75760405162461bcd60e51b81526004016101df90611785565b6001600160a01b03811661110d5760405162461bcd60e51b81526004016101df906116c0565b600080546040516001600160a01b03808516939216917f8be0079c531659141344cd1fd0a4f28419497f9722a3daafe3b4186f6b6457e091a3600080546001600160a01b0319166001600160a01b0392909216919091179055565b6000806001600085600581111561117b57fe5b600581111561118657fe5b815260200190815260200160002060020183815481106111a257fe5b90600052602060002001549150600160008560058111156111bf57fe5b60058111156111ca57fe5b815260200190815260200160002060030183815481106111e657fe5b906000526020600020015490509250929050565b3390565b600061124083836040518060400160405280601e81526020017f536166654d6174683a207375627472616374696f6e206f766572666c6f770000815250611247565b9392505050565b6000818484111561126b5760405162461bcd60e51b81526004016101df9190611590565b505050900390565b60405180608001604052806000815260200160001515815260200160608152602001606081525090565b600082601f8301126112ad578081fd5b813567ffffffffffffffff808211156112c4578283fd5b6020808302604051828282010181811085821117156112e1578687fd5b60405284815294508185019250858201818701830188101561130257600080fd5b600091505b84821015611325578035845292820192600191909101908201611307565b505050505092915050565b600060208284031215611341578081fd5b81356001600160a01b0381168114611240578182fd5b600060208284031215611368578081fd5b813561124081611841565b600080600060608486031215611387578182fd5b833561139281611841565b9250602084013567ffffffffffffffff808211156113ae578384fd5b6113ba8783880161129d565b935060408601359150808211156113cf578283fd5b506113dc8682870161129d565b9150509250925092565b600080600080608085870312156113fb578081fd5b843561140681611841565b9350602085013567ffffffffffffffff80821115611422578283fd5b61142e8883890161129d565b94506040870135915080821115611443578283fd5b506114508782880161129d565b949793965093946060013593505050565b60008060408385031215611473578182fd5b823560068110611481578283fd5b946020939093013593505050565b6000815180845260208085019450808401835b838110156114be578151875295820195908201906001016114a2565b509495945050505050565b15159052565b6001600160a01b0391909116815260200190565b60208082528251828201819052600091906040908185019080840286018301878501865b8381101561157757603f198984030185528151608081518552888201516115308a8701826114c9565b508782015181898701526115468287018261148f565b91505060608083015192508582038187015250611563818361148f565b968901969450505090860190600101611507565b509098975050505050505050565b901515815260200190565b6000602080835283518082850152825b818110156115bc578581018301518582016040015282016115a0565b818111156115cd5783604083870101525b50601f01601f1916929092016040019392505050565b6020808252601f908201527f506572696f642074797065206e6f7420696e697469616c697a65642079657400604082015260600190565b60208082526049908201527f5374617274206f66206120706572696f642073686f756c64206265203120736560408201527f636f6e642061667465722074686520656e64206f66207468652070726576696f6060820152681d5cc81c195c9a5bd960ba1b608082015260a00190565b6020808252601a908201527f53746172742073686f756c64206265206265666f726520656e64000000000000604082015260600190565b60208082526026908201527f4f776e61626c653a206e6577206f776e657220697320746865207a65726f206160408201526564647265737360d01b606082015260800190565b60208082526028908201527f506572696f6420747970652073746172747320616e6420656e64732073686f756040820152670d8c840dac2e8c6d60c31b606082015260800190565b6020808252601e908201527f506572696f6420776173206e6f7420696e697469616c697a6564207965740000604082015260600190565b6020808252818101527f4f776e61626c653a2063616c6c6572206973206e6f7420746865206f776e6572604082015260600190565b6020808252601890820152770506572696f64206c656e6774682063616e277420626520360441b604082015260600190565b6020808252601f908201527f506572696f64207479706520616c726561647920696e697469616c697a656400604082015260600190565b9182521515602082015260400190565b918252602082015260400190565b6006811061184e57600080fd5b5056fea2646970667358221220b396041c7eb000d7d4f078d189375e289c878d377afe9bab38dd61b2f2eb0a3664736f6c634300060c0033",
  "immutableReferences": {},
  "source": "// SPDX-License-Identifier: MIT\npragma solidity ^0.6.0;\npragma experimental ABIEncoderV2;\n\nimport \"@openzeppelin/contracts/math/SafeMath.sol\";\nimport \"@openzeppelin/contracts/access/Ownable.sol\";\n\n/**\n * @title SLARegistry\n * @dev SLARegistry is a contract for handling creation of service level\n * agreements and keeping track of the created agreements\n */\ncontract PeriodRegistry is Ownable {\n    using SafeMath for uint256;\n\n    enum PeriodType {Hourly, Daily, Weekly, BiWeekly, Monthly, Yearly}\n\n    /// @dev struct to store the definition of a period\n    struct PeriodDefinition {\n        uint256 yearlyPeriods;\n        bool initialized;\n        uint256[] starts;\n        uint256[] ends;\n    }\n\n    /// @dev (periodType=>PeriodDefinition) hourly/weekly/biWeekly/monthly/yearly are periodTypes\n    mapping(PeriodType => PeriodDefinition) public periodDefinitions;\n\n    /**\n     * @dev event to log a new period initialized\n     *@param periodType 1. period type i.e. Hourly, Daily, Weekly, BiWeekly, Monthly, Yearly\n     *@param periodsAdded 2. amount of periods added\n     *@param apy 3. annual percentage yield offered for a year long SLA\n     *@param yearlyPeriods 4. amount of periods of the corresponding periods per year to calculate real APY\n     */\n    event PeriodInitialized(\n        PeriodType periodType,\n        uint256 periodsAdded,\n        uint256 apy,\n        uint256 yearlyPeriods\n    );\n\n    /**\n     * @dev public function for creating canonical service level agreements\n     *@param _periodType 1. period type i.e. Hourly, Daily, Weekly, BiWeekly, Monthly, Yearly\n     *@param _periodStarts 2. array of the starts of the period\n     *@param _periodEnds 3. array of the ends of the period\n     *@param _yearlyPeriods 5. amount of periods of the corresponding periods per year to calculate real APY\n     */\n    function initializePeriod(\n        PeriodType _periodType,\n        uint256[] memory _periodStarts,\n        uint256[] memory _periodEnds,\n        uint256 _yearlyPeriods\n    ) public onlyOwner {\n        PeriodDefinition storage periodDefinition =\n            periodDefinitions[_periodType];\n        require(\n            periodDefinition.initialized == false,\n            \"Period type already initialized\"\n        );\n        require(\n            _periodStarts.length == _periodEnds.length,\n            \"Period type starts and ends should match\"\n        );\n        require(_periodStarts.length > 0, \"Period length can't be 0\");\n        for (uint256 index = 0; index < _periodStarts.length; index++) {\n            require(\n                _periodStarts[index] < _periodEnds[index],\n                \"Start should be before end\"\n            );\n            if (index < _periodStarts.length - 1) {\n                require(\n                    _periodStarts[index + 1].sub(_periodEnds[index]) == 1,\n                    \"Start of a period should be 1 second after the end of the previous period\"\n                );\n            }\n            periodDefinition.starts.push(_periodStarts[index]);\n            periodDefinition.ends.push(_periodEnds[index]);\n        }\n        periodDefinition.yearlyPeriods = _yearlyPeriods;\n        periodDefinition.initialized = true;\n    }\n\n    /**\n     * @dev function to add new periods to certain period type\n     *@param _periodType 1. period type i.e. Hourly, Daily, Weekly, BiWeekly, Monthly, Yearly\n     *@param _periodStarts 2. array of uint256 of the period starts to add\n     *@param _periodEnds 3. array of uint256 of the period starts to add\n     */\n    function addPeriodsToPeriodType(\n        PeriodType _periodType,\n        uint256[] memory _periodStarts,\n        uint256[] memory _periodEnds\n    ) public onlyOwner {\n        require(_periodStarts.length > 0, \"Period length can't be 0\");\n        PeriodDefinition storage periodDefinition =\n            periodDefinitions[_periodType];\n        require(\n            periodDefinition.initialized == true,\n            \"Period was not initialized yet\"\n        );\n        for (uint256 index = 0; index < _periodStarts.length; index++) {\n            require(\n                _periodStarts[index] < _periodEnds[index],\n                \"Start should be before end\"\n            );\n            if (index < _periodStarts.length.sub(1)) {\n                require(\n                    _periodStarts[index + 1].sub(_periodEnds[index]) == 1,\n                    \"Start of a period should be 1 second after the end of the previous period\"\n                );\n            }\n            periodDefinition.starts.push(_periodStarts[index]);\n            periodDefinition.ends.push(_periodEnds[index]);\n        }\n    }\n\n    /**\n     * @dev public function to get the start and end of a period\n     *@param _periodType 1. period type i.e. Hourly, Daily, Weekly, BiWeekly, Monthly, Yearly\n     *@param _periodId 2. period id to get start and end\n     */\n    function getPeriodStartAndEnd(PeriodType _periodType, uint256 _periodId)\n        public\n        view\n        returns (uint256 start, uint256 end)\n    {\n        start = periodDefinitions[_periodType].starts[_periodId];\n        end = periodDefinitions[_periodType].ends[_periodId];\n    }\n\n    /**\n     * @dev public function to check if a period id is valid i.e. it belongs to the added id array\n     *@param _periodType 1. period type i.e. Hourly, Daily, Weekly, BiWeekly, Monthly, Yearly\n     *@param _periodId 2. period id to get start and end\n     */\n    function isValidPeriod(PeriodType _periodType, uint256 _periodId)\n        public\n        view\n        returns (bool valid)\n    {\n        PeriodDefinition memory periodDefinition =\n            periodDefinitions[_periodType];\n        require(\n            periodDefinition.initialized,\n            \"Period type not initialized yet\"\n        );\n        // check if _periodId is smaller or equal to the last periodId value\n        valid = periodDefinition.starts.length.sub(1) >= _periodId;\n    }\n\n    /**\n     * @dev public function to check if a period has finished\n     *@param _periodType 1. period type i.e. Hourly, Daily, Weekly, BiWeekly, Monthly, Yearly\n     *@param _periodId 2. period id to get start and end\n     */\n    function periodIsFinished(PeriodType _periodType, uint256 _periodId)\n        public\n        view\n        returns (bool finished)\n    {\n        PeriodDefinition memory periodDefinition =\n            periodDefinitions[_periodType];\n        require(\n            periodDefinition.initialized,\n            \"Period type not initialized yet\"\n        );\n        finished =\n            periodDefinitions[_periodType].ends[_periodId] < block.timestamp;\n    }\n\n    /**\n     * @dev public function to get the periodDefinitions\n     */\n    function getPeriodDefinitions()\n        public\n        view\n        returns (PeriodDefinition[] memory)\n    {\n        // 6 period types\n        PeriodDefinition[] memory periodDefinition = new PeriodDefinition[](6);\n        periodDefinition[0] = periodDefinitions[PeriodType.Hourly];\n        periodDefinition[1] = periodDefinitions[PeriodType.Daily];\n        periodDefinition[2] = periodDefinitions[PeriodType.Weekly];\n        periodDefinition[3] = periodDefinitions[PeriodType.BiWeekly];\n        periodDefinition[4] = periodDefinitions[PeriodType.Monthly];\n        periodDefinition[5] = periodDefinitions[PeriodType.Yearly];\n        return periodDefinition;\n    }\n}\n",
  "sourcePath": "/Users/matiasbn/Desktop/stacktical/stacktical-dsla-contracts/contracts/PeriodRegistry.sol",
  "compiler": {
    "name": "solc",
    "version": "0.6.12+commit.27d51765.Emscripten.clang"
  },
  "schemaVersion": "3.3.3",
  "updatedAt": "2021-02-19T18:13:12.964Z",
  "networkType": "ethereum",
  "devdoc": {
    "details": "SLARegistry is a contract for handling creation of service level agreements and keeping track of the created agreements",
    "events": {
      "PeriodInitialized(uint8,uint256,uint256,uint256)": {
        "details": "event to log a new period initialized",
        "params": {
          "apy": "3. annual percentage yield offered for a year long SLA",
          "periodType": "1. period type i.e. Hourly, Daily, Weekly, BiWeekly, Monthly, Yearly",
          "periodsAdded": "2. amount of periods added",
          "yearlyPeriods": "4. amount of periods of the corresponding periods per year to calculate real APY"
        }
      }
    },
    "kind": "dev",
    "methods": {
      "addPeriodsToPeriodType(uint8,uint256[],uint256[])": {
        "details": "function to add new periods to certain period type",
        "params": {
          "_periodEnds": "3. array of uint256 of the period starts to add",
          "_periodStarts": "2. array of uint256 of the period starts to add",
          "_periodType": "1. period type i.e. Hourly, Daily, Weekly, BiWeekly, Monthly, Yearly"
        }
      },
      "getPeriodDefinitions()": {
        "details": "public function to get the periodDefinitions"
      },
      "getPeriodStartAndEnd(uint8,uint256)": {
        "details": "public function to get the start and end of a period",
        "params": {
          "_periodId": "2. period id to get start and end",
          "_periodType": "1. period type i.e. Hourly, Daily, Weekly, BiWeekly, Monthly, Yearly"
        }
      },
      "initializePeriod(uint8,uint256[],uint256[],uint256)": {
        "details": "public function for creating canonical service level agreements",
        "params": {
          "_periodEnds": "3. array of the ends of the period",
          "_periodStarts": "2. array of the starts of the period",
          "_periodType": "1. period type i.e. Hourly, Daily, Weekly, BiWeekly, Monthly, Yearly",
          "_yearlyPeriods": "5. amount of periods of the corresponding periods per year to calculate real APY"
        }
      },
      "isValidPeriod(uint8,uint256)": {
        "details": "public function to check if a period id is valid i.e. it belongs to the added id array",
        "params": {
          "_periodId": "2. period id to get start and end",
          "_periodType": "1. period type i.e. Hourly, Daily, Weekly, BiWeekly, Monthly, Yearly"
        }
      },
      "owner()": {
        "details": "Returns the address of the current owner."
      },
      "periodIsFinished(uint8,uint256)": {
        "details": "public function to check if a period has finished",
        "params": {
          "_periodId": "2. period id to get start and end",
          "_periodType": "1. period type i.e. Hourly, Daily, Weekly, BiWeekly, Monthly, Yearly"
        }
      },
      "renounceOwnership()": {
        "details": "Leaves the contract without owner. It will not be possible to call `onlyOwner` functions anymore. Can only be called by the current owner. NOTE: Renouncing ownership will leave the contract without an owner, thereby removing any functionality that is only available to the owner."
      },
      "transferOwnership(address)": {
        "details": "Transfers ownership of the contract to a new account (`newOwner`). Can only be called by the current owner."
      }
    },
    "stateVariables": {
      "periodDefinitions": {
        "details": "(periodType=>PeriodDefinition) hourly/weekly/biWeekly/monthly/yearly are periodTypes"
      }
    },
    "title": "SLARegistry",
    "version": 1
  },
  "userdoc": {
    "kind": "user",
    "methods": {},
    "version": 1
  }
}