{
  "contractName": "PeriodRegistry",
  "abi": [
    {
      "anonymous": false,
      "inputs": [
        {
          "indexed": true,
          "internalType": "address",
          "name": "previousOwner",
          "type": "address"
        },
        {
          "indexed": true,
          "internalType": "address",
          "name": "newOwner",
          "type": "address"
        }
      ],
      "name": "OwnershipTransferred",
      "type": "event"
    },
    {
      "anonymous": false,
      "inputs": [
        {
          "indexed": false,
          "internalType": "enum PeriodRegistry.PeriodType",
          "name": "periodType",
          "type": "uint8"
        },
        {
          "indexed": false,
          "internalType": "uint256",
          "name": "periodsAdded",
          "type": "uint256"
        }
      ],
      "name": "PeriodInitialized",
      "type": "event"
    },
    {
      "inputs": [],
      "name": "owner",
      "outputs": [
        {
          "internalType": "address",
          "name": "",
          "type": "address"
        }
      ],
      "stateMutability": "view",
      "type": "function",
      "constant": true
    },
    {
      "inputs": [
        {
          "internalType": "enum PeriodRegistry.PeriodType",
          "name": "",
          "type": "uint8"
        }
      ],
      "name": "periodDefinitions",
      "outputs": [
        {
          "internalType": "bool",
          "name": "initialized",
          "type": "bool"
        }
      ],
      "stateMutability": "view",
      "type": "function",
      "constant": true
    },
    {
      "inputs": [],
      "name": "renounceOwnership",
      "outputs": [],
      "stateMutability": "nonpayable",
      "type": "function"
    },
    {
      "inputs": [
        {
          "internalType": "address",
          "name": "newOwner",
          "type": "address"
        }
      ],
      "name": "transferOwnership",
      "outputs": [],
      "stateMutability": "nonpayable",
      "type": "function"
    },
    {
      "inputs": [
        {
          "internalType": "enum PeriodRegistry.PeriodType",
          "name": "_periodType",
          "type": "uint8"
        },
        {
          "internalType": "uint256[]",
          "name": "_periodStarts",
          "type": "uint256[]"
        },
        {
          "internalType": "uint256[]",
          "name": "_periodEnds",
          "type": "uint256[]"
        }
      ],
      "name": "initializePeriod",
      "outputs": [],
      "stateMutability": "nonpayable",
      "type": "function"
    },
    {
      "inputs": [
        {
          "internalType": "enum PeriodRegistry.PeriodType",
          "name": "_periodType",
          "type": "uint8"
        },
        {
          "internalType": "uint256[]",
          "name": "_periodStarts",
          "type": "uint256[]"
        },
        {
          "internalType": "uint256[]",
          "name": "_periodEnds",
          "type": "uint256[]"
        }
      ],
      "name": "addPeriodsToPeriodType",
      "outputs": [],
      "stateMutability": "nonpayable",
      "type": "function"
    },
    {
      "inputs": [
        {
          "internalType": "enum PeriodRegistry.PeriodType",
          "name": "_periodType",
          "type": "uint8"
        },
        {
          "internalType": "uint256",
          "name": "_periodId",
          "type": "uint256"
        }
      ],
      "name": "getPeriodStartAndEnd",
      "outputs": [
        {
          "internalType": "uint256",
          "name": "start",
          "type": "uint256"
        },
        {
          "internalType": "uint256",
          "name": "end",
          "type": "uint256"
        }
      ],
      "stateMutability": "view",
      "type": "function",
      "constant": true
    },
    {
      "inputs": [
        {
          "internalType": "enum PeriodRegistry.PeriodType",
          "name": "_periodType",
          "type": "uint8"
        },
        {
          "internalType": "uint256",
          "name": "_periodId",
          "type": "uint256"
        }
      ],
      "name": "isValidPeriod",
      "outputs": [
        {
          "internalType": "bool",
          "name": "valid",
          "type": "bool"
        }
      ],
      "stateMutability": "view",
      "type": "function",
      "constant": true
    },
    {
      "inputs": [
        {
          "internalType": "enum PeriodRegistry.PeriodType",
          "name": "_periodType",
          "type": "uint8"
        },
        {
          "internalType": "uint256",
          "name": "_periodId",
          "type": "uint256"
        }
      ],
      "name": "periodIsFinished",
      "outputs": [
        {
          "internalType": "bool",
          "name": "finished",
          "type": "bool"
        }
      ],
      "stateMutability": "view",
      "type": "function",
      "constant": true
    },
    {
      "inputs": [],
      "name": "getPeriodDefinitions",
      "outputs": [
        {
          "components": [
            {
              "internalType": "bool",
              "name": "initialized",
              "type": "bool"
            },
            {
              "internalType": "uint256[]",
              "name": "starts",
              "type": "uint256[]"
            },
            {
              "internalType": "uint256[]",
              "name": "ends",
              "type": "uint256[]"
            }
          ],
          "internalType": "struct PeriodRegistry.PeriodDefinition[]",
          "name": "",
          "type": "tuple[]"
        }
      ],
      "stateMutability": "view",
      "type": "function",
      "constant": true
    }
  ],
  "bytecode": "0x608060405234801561001057600080fd5b50600061001b61006a565b600080546001600160a01b0319166001600160a01b0383169081178255604051929350917f8be0079c531659141344cd1fd0a4f28419497f9722a3daafe3b4186f6b6457e0908290a35061006e565b3390565b6117168061007d6000396000f3fe608060405234801561001057600080fd5b506004361061009e5760003560e01c8063c7b6ceb411610066578063c7b6ceb414610111578063d62e307514610124578063ddfc4fde14610139578063f2fde38b1461014c578063ffa612351461015f5761009e565b80635c98d157146100a3578063715018a6146100cc5780638da5cb5b146100d6578063963a470b146100eb578063a163f020146100fe575b600080fd5b6100b66100b1366004611274565b610180565b6040516100c3919061140c565b60405180910390f35b6100d4610195565b005b6100de61021d565b6040516100c39190611368565b6100d46100f9366004611290565b61022c565b6100d461010c366004611290565b61040c565b6100b661011f366004611303565b61061a565b61012c610783565b6040516100c3919061137c565b6100b6610147366004611303565b610e9d565b6100d461015a36600461124d565b610fd6565b61017261016d366004611303565b61108c565b6040516100c39291906116c2565b60016020526000908152604090205460ff1681565b61019d61111e565b6000546001600160a01b039081169116146101d35760405162461bcd60e51b81526004016101ca90611624565b60405180910390fd5b600080546040516001600160a01b03909116907f8be0079c531659141344cd1fd0a4f28419497f9722a3daafe3b4186f6b6457e0908390a3600080546001600160a01b0319169055565b6000546001600160a01b031690565b61023461111e565b6000546001600160a01b039081169116146102615760405162461bcd60e51b81526004016101ca90611624565b60008251116102825760405162461bcd60e51b81526004016101ca90611659565b60006001600085600581111561029457fe5b600581111561029f57fe5b81526020810191909152604001600020805490915060ff1615156001146102d85760405162461bcd60e51b81526004016101ca906115ed565b60005b8351811015610405578281815181106102f057fe5b602002602001015184828151811061030457fe5b6020026020010151106103295760405162461bcd60e51b81526004016101ca90611528565b8351610336906001611122565b8110156103985761037983828151811061034c57fe5b602002602001015185836001018151811061036357fe5b602002602001015161112290919063ffffffff16565b6001146103985760405162461bcd60e51b81526004016101ca906114b9565b816001018482815181106103a857fe5b60209081029190910181015182546001810184556000938452919092200155825160028301908490839081106103da57fe5b60209081029190910181015182546001818101855560009485529290932090920191909155016102db565b5050505050565b61041461111e565b6000546001600160a01b039081169116146104415760405162461bcd60e51b81526004016101ca90611624565b60006001600085600581111561045357fe5b600581111561045e57fe5b81526020810191909152604001600020805490915060ff16156104935760405162461bcd60e51b81526004016101ca9061168b565b81518351146104b45760405162461bcd60e51b81526004016101ca906115a5565b60008351116104d55760405162461bcd60e51b81526004016101ca90611659565b60005b83518110156105cd578281815181106104ed57fe5b602002602001015184828151811061050157fe5b6020026020010151106105265760405162461bcd60e51b81526004016101ca90611528565b60018451038110156105605761054183828151811061034c57fe5b6001146105605760405162461bcd60e51b81526004016101ca906114b9565b8160010184828151811061057057fe5b60209081029190910181015182546001810184556000938452919092200155825160028301908490839081106105a257fe5b60209081029190910181015182546001818101855560009485529290932090920191909155016104d8565b50805460ff1916600117815582516040517f2b0f2d8c9036efbd14cb23d06c56d37fca048c5062ada3454a3ab584762d63019161060c91879190611417565b60405180910390a150505050565b6000610624611197565b6001600085600581111561063457fe5b600581111561063f57fe5b815260208082019290925260409081016000208151606081018352815460ff161515815260018201805484518187028101870190955280855291949293858401939092908301828280156106b257602002820191906000526020600020905b81548152602001906001019080831161069e575b505050505081526020016002820180548060200260200160405190810160405280929190818152602001828054801561070a57602002820191906000526020600020905b8154815260200190600101908083116106f6575b505050505081525050905080600001516107365760405162461bcd60e51b81526004016101ca90611482565b426001600086600581111561074757fe5b600581111561075257fe5b8152602001908152602001600020600201848154811061076e57fe5b90600052602060002001541091505092915050565b60408051600680825260e08201909252606091829190816020015b6107a6611197565b81526020019060019003908161079e5750506000805260016020908152604080516060810182527fa6eef7e35abe7026729641147f7915573c7e97b47efa546f5f6e3230263bcb49805460ff16151582527fa6eef7e35abe7026729641147f7915573c7e97b47efa546f5f6e3230263bcb4a8054845181870281018701909552808552959650919490938581019392919083018282801561086657602002820191906000526020600020905b815481526020019060010190808311610852575b50505050508152602001600282018054806020026020016040519081016040528092919081815260200182805480156108be57602002820191906000526020600020905b8154815260200190600101908083116108aa575b505050505081525050816000815181106108d457fe5b602090810291909101810191909152600160008190528152604080516060810182527fcc69885fda6bcc1a4ace058b4a62bf5e179ea78fd58a1ccd71c22cc9b688792f805460ff16151582527fcc69885fda6bcc1a4ace058b4a62bf5e179ea78fd58a1ccd71c22cc9b688793080548451818702810187019095528085529294919385830193909283018282801561098b57602002820191906000526020600020905b815481526020019060010190808311610977575b50505050508152602001600282018054806020026020016040519081016040528092919081815260200182805480156109e357602002820191906000526020600020905b8154815260200190600101908083116109cf575b505050505081525050816001815181106109f957fe5b602090810291909101810191909152600260005260018152604080516060810182527fd9d16d34ffb15ba3a3d852f0d403e2ce1d691fb54de27ac87cd2f993f3ec330f805460ff16151582527fd9d16d34ffb15ba3a3d852f0d403e2ce1d691fb54de27ac87cd2f993f3ec3310805484518187028101870190955280855292949193858301939092830182828015610ab057602002820191906000526020600020905b815481526020019060010190808311610a9c575b5050505050815260200160028201805480602002602001604051908101604052809291908181526020018280548015610b0857602002820191906000526020600020905b815481526020019060010190808311610af4575b50505050508152505081600281518110610b1e57fe5b602090810291909101810191909152600360005260018152604080516060810182527f7dfe757ecd65cbd7922a9c0161e935dd7fdbcc0e999689c7d31633896b1fc60b805460ff16151582527f7dfe757ecd65cbd7922a9c0161e935dd7fdbcc0e999689c7d31633896b1fc60c805484518187028101870190955280855292949193858301939092830182828015610bd557602002820191906000526020600020905b815481526020019060010190808311610bc1575b5050505050815260200160028201805480602002602001604051908101604052809291908181526020018280548015610c2d57602002820191906000526020600020905b815481526020019060010190808311610c19575b50505050508152505081600381518110610c4357fe5b602090810291909101810191909152600460005260018152604080516060810182527fedc95719e9a3b28dd8e80877cb5880a9be7de1a13fc8b05e7999683b6b567643805460ff16151582527fedc95719e9a3b28dd8e80877cb5880a9be7de1a13fc8b05e7999683b6b567644805484518187028101870190955280855292949193858301939092830182828015610cfa57602002820191906000526020600020905b815481526020019060010190808311610ce6575b5050505050815260200160028201805480602002602001604051908101604052809291908181526020018280548015610d5257602002820191906000526020600020905b815481526020019060010190808311610d3e575b50505050508152505081600481518110610d6857fe5b602090810291909101810191909152600560005260018152604080516060810182527fe2689cd4a84e23ad2f564004f1c9013e9589d260bde6380aba3ca7e09e4df40c805460ff16151582527fe2689cd4a84e23ad2f564004f1c9013e9589d260bde6380aba3ca7e09e4df40d805484518187028101870190955280855292949193858301939092830182828015610e1f57602002820191906000526020600020905b815481526020019060010190808311610e0b575b5050505050815260200160028201805480602002602001604051908101604052809291908181526020018280548015610e7757602002820191906000526020600020905b815481526020019060010190808311610e63575b50505050508152505081600581518110610e8d57fe5b6020908102919091010152905090565b6000610ea7611197565b60016000856005811115610eb757fe5b6005811115610ec257fe5b815260208082019290925260409081016000208151606081018352815460ff16151581526001820180548451818702810187019095528085529194929385840193909290830182828015610f3557602002820191906000526020600020905b815481526020019060010190808311610f21575b5050505050815260200160028201805480602002602001604051908101604052809291908181526020018280548015610f8d57602002820191906000526020600020905b815481526020019060010190808311610f79575b50505050508152505090508060000151610fb95760405162461bcd60e51b81526004016101ca90611482565b6020810151518390610fcc906001611122565b1015949350505050565b610fde61111e565b6000546001600160a01b0390811691161461100b5760405162461bcd60e51b81526004016101ca90611624565b6001600160a01b0381166110315760405162461bcd60e51b81526004016101ca9061155f565b600080546040516001600160a01b03808516939216917f8be0079c531659141344cd1fd0a4f28419497f9722a3daafe3b4186f6b6457e091a3600080546001600160a01b0319166001600160a01b0392909216919091179055565b6000806001600085600581111561109f57fe5b60058111156110aa57fe5b815260200190815260200160002060010183815481106110c657fe5b90600052602060002001549150600160008560058111156110e357fe5b60058111156110ee57fe5b8152602001908152602001600020600201838154811061110a57fe5b906000526020600020015490509250929050565b3390565b600061116483836040518060400160405280601e81526020017f536166654d6174683a207375627472616374696f6e206f766572666c6f77000081525061116b565b9392505050565b6000818484111561118f5760405162461bcd60e51b81526004016101ca919061142f565b505050900390565b604051806060016040528060001515815260200160608152602001606081525090565b600082601f8301126111ca578081fd5b813567ffffffffffffffff808211156111e1578283fd5b6020808302604051828282010181811085821117156111fe578687fd5b60405284815294508185019250858201818701830188101561121f57600080fd5b600091505b84821015611242578035845292820192600191909101908201611224565b505050505092915050565b60006020828403121561125e578081fd5b81356001600160a01b0381168114611164578182fd5b600060208284031215611285578081fd5b8135611164816116d0565b6000806000606084860312156112a4578182fd5b83356112af816116d0565b9250602084013567ffffffffffffffff808211156112cb578384fd5b6112d7878388016111ba565b935060408601359150808211156112ec578283fd5b506112f9868287016111ba565b9150509250925092565b60008060408385031215611315578182fd5b8235611320816116d0565b946020939093013593505050565b6000815180845260208085019450808401835b8381101561135d57815187529582019590820190600101611341565b509495945050505050565b6001600160a01b0391909116815260200190565b60208082528251828201819052600091906040908185019080840286018301878501865b838110156113fe57603f198984030185528151606081511515855288820151818a8701526113d08287018261132e565b915050878201519150848103888601526113ea818361132e565b9689019694505050908601906001016113a0565b509098975050505050505050565b901515815260200190565b604081016006841061142557fe5b9281526020015290565b6000602080835283518082850152825b8181101561145b5785810183015185820160400152820161143f565b8181111561146c5783604083870101525b50601f01601f1916929092016040019392505050565b6020808252601f908201527f506572696f642074797065206e6f7420696e697469616c697a65642079657400604082015260600190565b60208082526049908201527f5374617274206f66206120706572696f642073686f756c64206265203120736560408201527f636f6e642061667465722074686520656e64206f66207468652070726576696f6060820152681d5cc81c195c9a5bd960ba1b608082015260a00190565b6020808252601a908201527f53746172742073686f756c64206265206265666f726520656e64000000000000604082015260600190565b60208082526026908201527f4f776e61626c653a206e6577206f776e657220697320746865207a65726f206160408201526564647265737360d01b606082015260800190565b60208082526028908201527f506572696f6420747970652073746172747320616e6420656e64732073686f756040820152670d8c840dac2e8c6d60c31b606082015260800190565b6020808252601e908201527f506572696f6420776173206e6f7420696e697469616c697a6564207965740000604082015260600190565b6020808252818101527f4f776e61626c653a2063616c6c6572206973206e6f7420746865206f776e6572604082015260600190565b6020808252601890820152770506572696f64206c656e6774682063616e277420626520360441b604082015260600190565b6020808252601f908201527f506572696f64207479706520616c726561647920696e697469616c697a656400604082015260600190565b918252602082015260400190565b600681106116dd57600080fd5b5056fea264697066735822122003a2fa43b52adfb11e9be1f636d3d426a054d8891fcf6c5d2f04e3a339200b0e64736f6c634300060c0033",
  "immutableReferences": {},
  "source": "// SPDX-License-Identifier: MIT\npragma solidity ^0.6.0;\npragma experimental ABIEncoderV2;\n\nimport \"@openzeppelin/contracts/math/SafeMath.sol\";\nimport \"@openzeppelin/contracts/access/Ownable.sol\";\n\n/**\n * @title SLARegistry\n * @dev SLARegistry is a contract for handling creation of service level\n * agreements and keeping track of the created agreements\n */\ncontract PeriodRegistry is Ownable {\n    using SafeMath for uint256;\n\n    enum PeriodType {Hourly, Daily, Weekly, BiWeekly, Monthly, Yearly}\n\n    /// @dev struct to store the definition of a period\n    struct PeriodDefinition {\n        bool initialized;\n        uint256[] starts;\n        uint256[] ends;\n    }\n\n    /// @dev (periodType=>PeriodDefinition) hourly/weekly/biWeekly/monthly/yearly are periodTypes\n    mapping(PeriodType => PeriodDefinition) public periodDefinitions;\n\n    /**\n     * @dev event to log a new period initialized\n     *@param periodType 1. period type i.e. Hourly, Daily, Weekly, BiWeekly, Monthly, Yearly\n     *@param periodsAdded 2. amount of periods added\n     */\n    event PeriodInitialized(PeriodType periodType, uint256 periodsAdded);\n\n    /**\n     * @dev public function for creating canonical service level agreements\n     *@param _periodType 1. period type i.e. Hourly, Daily, Weekly, BiWeekly, Monthly, Yearly\n     *@param _periodStarts 2. array of the starts of the period\n     *@param _periodEnds 3. array of the ends of the period\n     */\n    function initializePeriod(\n        PeriodType _periodType,\n        uint256[] memory _periodStarts,\n        uint256[] memory _periodEnds\n    ) public onlyOwner {\n        PeriodDefinition storage periodDefinition =\n            periodDefinitions[_periodType];\n        require(\n            periodDefinition.initialized == false,\n            \"Period type already initialized\"\n        );\n        require(\n            _periodStarts.length == _periodEnds.length,\n            \"Period type starts and ends should match\"\n        );\n        require(_periodStarts.length > 0, \"Period length can't be 0\");\n        for (uint256 index = 0; index < _periodStarts.length; index++) {\n            require(\n                _periodStarts[index] < _periodEnds[index],\n                \"Start should be before end\"\n            );\n            if (index < _periodStarts.length - 1) {\n                require(\n                    _periodStarts[index + 1].sub(_periodEnds[index]) == 1,\n                    \"Start of a period should be 1 second after the end of the previous period\"\n                );\n            }\n            periodDefinition.starts.push(_periodStarts[index]);\n            periodDefinition.ends.push(_periodEnds[index]);\n        }\n        periodDefinition.initialized = true;\n        emit PeriodInitialized(_periodType, _periodStarts.length);\n    }\n\n    /**\n     * @dev function to add new periods to certain period type\n     *@param _periodType 1. period type i.e. Hourly, Daily, Weekly, BiWeekly, Monthly, Yearly\n     *@param _periodStarts 2. array of uint256 of the period starts to add\n     *@param _periodEnds 3. array of uint256 of the period starts to add\n     */\n    function addPeriodsToPeriodType(\n        PeriodType _periodType,\n        uint256[] memory _periodStarts,\n        uint256[] memory _periodEnds\n    ) public onlyOwner {\n        require(_periodStarts.length > 0, \"Period length can't be 0\");\n        PeriodDefinition storage periodDefinition =\n            periodDefinitions[_periodType];\n        require(\n            periodDefinition.initialized == true,\n            \"Period was not initialized yet\"\n        );\n        for (uint256 index = 0; index < _periodStarts.length; index++) {\n            require(\n                _periodStarts[index] < _periodEnds[index],\n                \"Start should be before end\"\n            );\n            if (index < _periodStarts.length.sub(1)) {\n                require(\n                    _periodStarts[index + 1].sub(_periodEnds[index]) == 1,\n                    \"Start of a period should be 1 second after the end of the previous period\"\n                );\n            }\n            periodDefinition.starts.push(_periodStarts[index]);\n            periodDefinition.ends.push(_periodEnds[index]);\n        }\n    }\n\n    /**\n     * @dev public function to get the start and end of a period\n     *@param _periodType 1. period type i.e. Hourly, Daily, Weekly, BiWeekly, Monthly, Yearly\n     *@param _periodId 2. period id to get start and end\n     */\n    function getPeriodStartAndEnd(PeriodType _periodType, uint256 _periodId)\n        public\n        view\n        returns (uint256 start, uint256 end)\n    {\n        start = periodDefinitions[_periodType].starts[_periodId];\n        end = periodDefinitions[_periodType].ends[_periodId];\n    }\n\n    /**\n     * @dev public function to check if a period id is valid i.e. it belongs to the added id array\n     *@param _periodType 1. period type i.e. Hourly, Daily, Weekly, BiWeekly, Monthly, Yearly\n     *@param _periodId 2. period id to get start and end\n     */\n    function isValidPeriod(PeriodType _periodType, uint256 _periodId)\n        public\n        view\n        returns (bool valid)\n    {\n        PeriodDefinition memory periodDefinition =\n            periodDefinitions[_periodType];\n        require(\n            periodDefinition.initialized,\n            \"Period type not initialized yet\"\n        );\n        // check if _periodId is smaller or equal to the last periodId value\n        valid = periodDefinition.starts.length.sub(1) >= _periodId;\n    }\n\n    /**\n     * @dev public function to check if a period has finished\n     *@param _periodType 1. period type i.e. Hourly, Daily, Weekly, BiWeekly, Monthly, Yearly\n     *@param _periodId 2. period id to get start and end\n     */\n    function periodIsFinished(PeriodType _periodType, uint256 _periodId)\n        public\n        view\n        returns (bool finished)\n    {\n        PeriodDefinition memory periodDefinition =\n            periodDefinitions[_periodType];\n        require(\n            periodDefinition.initialized,\n            \"Period type not initialized yet\"\n        );\n        finished =\n            periodDefinitions[_periodType].ends[_periodId] < block.timestamp;\n    }\n\n    /**\n     * @dev public function to get the periodDefinitions\n     */\n    function getPeriodDefinitions()\n        public\n        view\n        returns (PeriodDefinition[] memory)\n    {\n        // 6 period types\n        PeriodDefinition[] memory periodDefinition = new PeriodDefinition[](6);\n        periodDefinition[0] = periodDefinitions[PeriodType.Hourly];\n        periodDefinition[1] = periodDefinitions[PeriodType.Daily];\n        periodDefinition[2] = periodDefinitions[PeriodType.Weekly];\n        periodDefinition[3] = periodDefinitions[PeriodType.BiWeekly];\n        periodDefinition[4] = periodDefinitions[PeriodType.Monthly];\n        periodDefinition[5] = periodDefinitions[PeriodType.Yearly];\n        return periodDefinition;\n    }\n}\n",
  "sourcePath": "/Users/matiasbn/Desktop/stacktical/stacktical-dsla-contracts/contracts/PeriodRegistry.sol",
  "compiler": {
    "name": "solc",
    "version": "0.6.12+commit.27d51765.Emscripten.clang"
  },
  "schemaVersion": "3.3.3",
  "updatedAt": "2021-03-06T17:42:50.999Z",
  "networkType": "ethereum",
  "devdoc": {
    "details": "SLARegistry is a contract for handling creation of service level agreements and keeping track of the created agreements",
    "events": {
      "PeriodInitialized(uint8,uint256)": {
        "details": "event to log a new period initialized",
        "params": {
          "periodType": "1. period type i.e. Hourly, Daily, Weekly, BiWeekly, Monthly, Yearly",
          "periodsAdded": "2. amount of periods added"
        }
      }
    },
    "kind": "dev",
    "methods": {
      "addPeriodsToPeriodType(uint8,uint256[],uint256[])": {
        "details": "function to add new periods to certain period type",
        "params": {
          "_periodEnds": "3. array of uint256 of the period starts to add",
          "_periodStarts": "2. array of uint256 of the period starts to add",
          "_periodType": "1. period type i.e. Hourly, Daily, Weekly, BiWeekly, Monthly, Yearly"
        }
      },
      "getPeriodDefinitions()": {
        "details": "public function to get the periodDefinitions"
      },
      "getPeriodStartAndEnd(uint8,uint256)": {
        "details": "public function to get the start and end of a period",
        "params": {
          "_periodId": "2. period id to get start and end",
          "_periodType": "1. period type i.e. Hourly, Daily, Weekly, BiWeekly, Monthly, Yearly"
        }
      },
      "initializePeriod(uint8,uint256[],uint256[])": {
        "details": "public function for creating canonical service level agreements",
        "params": {
          "_periodEnds": "3. array of the ends of the period",
          "_periodStarts": "2. array of the starts of the period",
          "_periodType": "1. period type i.e. Hourly, Daily, Weekly, BiWeekly, Monthly, Yearly"
        }
      },
      "isValidPeriod(uint8,uint256)": {
        "details": "public function to check if a period id is valid i.e. it belongs to the added id array",
        "params": {
          "_periodId": "2. period id to get start and end",
          "_periodType": "1. period type i.e. Hourly, Daily, Weekly, BiWeekly, Monthly, Yearly"
        }
      },
      "owner()": {
        "details": "Returns the address of the current owner."
      },
      "periodIsFinished(uint8,uint256)": {
        "details": "public function to check if a period has finished",
        "params": {
          "_periodId": "2. period id to get start and end",
          "_periodType": "1. period type i.e. Hourly, Daily, Weekly, BiWeekly, Monthly, Yearly"
        }
      },
      "renounceOwnership()": {
        "details": "Leaves the contract without owner. It will not be possible to call `onlyOwner` functions anymore. Can only be called by the current owner. NOTE: Renouncing ownership will leave the contract without an owner, thereby removing any functionality that is only available to the owner."
      },
      "transferOwnership(address)": {
        "details": "Transfers ownership of the contract to a new account (`newOwner`). Can only be called by the current owner."
      }
    },
    "stateVariables": {
      "periodDefinitions": {
        "details": "(periodType=>PeriodDefinition) hourly/weekly/biWeekly/monthly/yearly are periodTypes"
      }
    },
    "title": "SLARegistry",
    "version": 1
  },
  "userdoc": {
    "kind": "user",
    "methods": {},
    "version": 1
  }
}