{
  "contractName": "PeriodRegistry",
  "abi": [
    {
      "anonymous": false,
      "inputs": [
        {
          "indexed": true,
          "internalType": "address",
          "name": "previousOwner",
          "type": "address"
        },
        {
          "indexed": true,
          "internalType": "address",
          "name": "newOwner",
          "type": "address"
        }
      ],
      "name": "OwnershipTransferred",
      "type": "event"
    },
    {
      "anonymous": false,
      "inputs": [
        {
          "indexed": false,
          "internalType": "enum PeriodRegistry.PeriodType",
          "name": "periodType",
          "type": "uint8"
        },
        {
          "indexed": false,
          "internalType": "uint256",
          "name": "periodsAdded",
          "type": "uint256"
        }
      ],
      "name": "PeriodInitialized",
      "type": "event"
    },
    {
      "inputs": [],
      "name": "owner",
      "outputs": [
        {
          "internalType": "address",
          "name": "",
          "type": "address"
        }
      ],
      "stateMutability": "view",
      "type": "function",
      "constant": true
    },
    {
      "inputs": [
        {
          "internalType": "enum PeriodRegistry.PeriodType",
          "name": "",
          "type": "uint8"
        }
      ],
      "name": "periodDefinitions",
      "outputs": [
        {
          "internalType": "bool",
          "name": "initialized",
          "type": "bool"
        }
      ],
      "stateMutability": "view",
      "type": "function",
      "constant": true
    },
    {
      "inputs": [],
      "name": "renounceOwnership",
      "outputs": [],
      "stateMutability": "nonpayable",
      "type": "function"
    },
    {
      "inputs": [
        {
          "internalType": "address",
          "name": "newOwner",
          "type": "address"
        }
      ],
      "name": "transferOwnership",
      "outputs": [],
      "stateMutability": "nonpayable",
      "type": "function"
    },
    {
      "inputs": [
        {
          "internalType": "enum PeriodRegistry.PeriodType",
          "name": "_periodType",
          "type": "uint8"
        },
        {
          "internalType": "uint256[]",
          "name": "_periodStarts",
          "type": "uint256[]"
        },
        {
          "internalType": "uint256[]",
          "name": "_periodEnds",
          "type": "uint256[]"
        }
      ],
      "name": "initializePeriod",
      "outputs": [],
      "stateMutability": "nonpayable",
      "type": "function"
    },
    {
      "inputs": [
        {
          "internalType": "enum PeriodRegistry.PeriodType",
          "name": "_periodType",
          "type": "uint8"
        },
        {
          "internalType": "uint256[]",
          "name": "_periodStarts",
          "type": "uint256[]"
        },
        {
          "internalType": "uint256[]",
          "name": "_periodEnds",
          "type": "uint256[]"
        }
      ],
      "name": "addPeriodsToPeriodType",
      "outputs": [],
      "stateMutability": "nonpayable",
      "type": "function"
    },
    {
      "inputs": [
        {
          "internalType": "enum PeriodRegistry.PeriodType",
          "name": "_periodType",
          "type": "uint8"
        },
        {
          "internalType": "uint256",
          "name": "_periodId",
          "type": "uint256"
        }
      ],
      "name": "getPeriodStartAndEnd",
      "outputs": [
        {
          "internalType": "uint256",
          "name": "start",
          "type": "uint256"
        },
        {
          "internalType": "uint256",
          "name": "end",
          "type": "uint256"
        }
      ],
      "stateMutability": "view",
      "type": "function",
      "constant": true
    },
    {
      "inputs": [
        {
          "internalType": "enum PeriodRegistry.PeriodType",
          "name": "_periodType",
          "type": "uint8"
        },
        {
          "internalType": "uint256",
          "name": "_periodId",
          "type": "uint256"
        }
      ],
      "name": "isValidPeriod",
      "outputs": [
        {
          "internalType": "bool",
          "name": "valid",
          "type": "bool"
        }
      ],
      "stateMutability": "view",
      "type": "function",
      "constant": true
    },
    {
      "inputs": [
        {
          "internalType": "enum PeriodRegistry.PeriodType",
          "name": "_periodType",
          "type": "uint8"
        },
        {
          "internalType": "uint256",
          "name": "_periodId",
          "type": "uint256"
        }
      ],
      "name": "periodIsFinished",
      "outputs": [
        {
          "internalType": "bool",
          "name": "finished",
          "type": "bool"
        }
      ],
      "stateMutability": "view",
      "type": "function",
      "constant": true
    },
    {
      "inputs": [],
      "name": "getPeriodDefinitions",
      "outputs": [
        {
          "components": [
            {
              "internalType": "bool",
              "name": "initialized",
              "type": "bool"
            },
            {
              "internalType": "uint256[]",
              "name": "starts",
              "type": "uint256[]"
            },
            {
              "internalType": "uint256[]",
              "name": "ends",
              "type": "uint256[]"
            }
          ],
          "internalType": "struct PeriodRegistry.PeriodDefinition[]",
          "name": "",
          "type": "tuple[]"
        }
      ],
      "stateMutability": "view",
      "type": "function",
      "constant": true
    }
  ],
  "bytecode": "0x608060405260006100176001600160e01b0361006616565b600080546001600160a01b0319166001600160a01b0383169081178255604051929350917f8be0079c531659141344cd1fd0a4f28419497f9722a3daafe3b4186f6b6457e0908290a35061006a565b3390565b611663806100796000396000f3fe608060405234801561001057600080fd5b506004361061009e5760003560e01c8063c7b6ceb411610066578063c7b6ceb414610111578063d62e307514610124578063ddfc4fde14610139578063f2fde38b1461014c578063ffa612351461015f5761009e565b80635c98d157146100a3578063715018a6146100cc5780638da5cb5b146100d6578063963a470b146100eb578063a163f020146100fe575b600080fd5b6100b66100b1366004611190565b610180565b6040516100c39190611327565b60405180910390f35b6100d4610195565b005b6100de61021d565b6040516100c39190611284565b6100d46100f93660046111ac565b61022c565b6100d461010c3660046111ac565b610412565b6100b661011f36600461121f565b610620565b61012c610699565b6040516100c39190611298565b6100b661014736600461121f565b610db3565b6100d461015a366004611169565b610ef2565b61017261016d36600461121f565b610fa8565b6040516100c392919061160f565b60016020526000908152604090205460ff1681565b61019d61103a565b6000546001600160a01b039081169116146101d35760405162461bcd60e51b81526004016101ca90611571565b60405180910390fd5b600080546040516001600160a01b03909116907f8be0079c531659141344cd1fd0a4f28419497f9722a3daafe3b4186f6b6457e0908390a3600080546001600160a01b0319169055565b6000546001600160a01b031690565b61023461103a565b6000546001600160a01b039081169116146102615760405162461bcd60e51b81526004016101ca90611571565b60008251116102825760405162461bcd60e51b81526004016101ca906115a6565b60006001600085600581111561029457fe5b600581111561029f57fe5b81526020810191909152604001600020805490915060ff1615156001146102d85760405162461bcd60e51b81526004016101ca9061153a565b60005b835181101561040b578281815181106102f057fe5b602002602001015184828151811061030457fe5b6020026020010151106103295760405162461bcd60e51b81526004016101ca90611443565b835161033c90600163ffffffff61103e16565b81101561039e5761037f83828151811061035257fe5b602002602001015185836001018151811061036957fe5b602002602001015161103e90919063ffffffff16565b60011461039e5760405162461bcd60e51b81526004016101ca906113d4565b816001018482815181106103ae57fe5b60209081029190910181015182546001810184556000938452919092200155825160028301908490839081106103e057fe5b60209081029190910181015182546001818101855560009485529290932090920191909155016102db565b5050505050565b61041a61103a565b6000546001600160a01b039081169116146104475760405162461bcd60e51b81526004016101ca90611571565b60006001600085600581111561045957fe5b600581111561046457fe5b81526020810191909152604001600020805490915060ff16156104995760405162461bcd60e51b81526004016101ca906115d8565b81518351146104ba5760405162461bcd60e51b81526004016101ca906114c0565b60008351116104db5760405162461bcd60e51b81526004016101ca906115a6565b60005b83518110156105d3578281815181106104f357fe5b602002602001015184828151811061050757fe5b60200260200101511061052c5760405162461bcd60e51b81526004016101ca90611443565b60018451038110156105665761054783828151811061035257fe5b6001146105665760405162461bcd60e51b81526004016101ca906113d4565b8160010184828151811061057657fe5b60209081029190910181015182546001810184556000938452919092200155825160028301908490839081106105a857fe5b60209081029190910181015182546001818101855560009485529290932090920191909155016104de565b50805460ff1916600117815582516040517f2b0f2d8c9036efbd14cb23d06c56d37fca048c5062ada3454a3ab584762d63019161061291879190611332565b60405180910390a150505050565b600061062c8383610db3565b151560011461064d5760405162461bcd60e51b81526004016101ca90611508565b426001600085600581111561065e57fe5b600581111561066957fe5b8152602001908152602001600020600201838154811061068557fe5b906000526020600020015410905092915050565b60408051600680825260e08201909252606091829190816020015b6106bc6110b3565b8152602001906001900390816106b45750506000805260016020908152604080516060810182527fa6eef7e35abe7026729641147f7915573c7e97b47efa546f5f6e3230263bcb49805460ff16151582527fa6eef7e35abe7026729641147f7915573c7e97b47efa546f5f6e3230263bcb4a8054845181870281018701909552808552959650919490938581019392919083018282801561077c57602002820191906000526020600020905b815481526020019060010190808311610768575b50505050508152602001600282018054806020026020016040519081016040528092919081815260200182805480156107d457602002820191906000526020600020905b8154815260200190600101908083116107c0575b505050505081525050816000815181106107ea57fe5b602090810291909101810191909152600160008190528152604080516060810182527fcc69885fda6bcc1a4ace058b4a62bf5e179ea78fd58a1ccd71c22cc9b688792f805460ff16151582527fcc69885fda6bcc1a4ace058b4a62bf5e179ea78fd58a1ccd71c22cc9b68879308054845181870281018701909552808552929491938583019390928301828280156108a157602002820191906000526020600020905b81548152602001906001019080831161088d575b50505050508152602001600282018054806020026020016040519081016040528092919081815260200182805480156108f957602002820191906000526020600020905b8154815260200190600101908083116108e5575b5050505050815250508160018151811061090f57fe5b602090810291909101810191909152600260005260018152604080516060810182527fd9d16d34ffb15ba3a3d852f0d403e2ce1d691fb54de27ac87cd2f993f3ec330f805460ff16151582527fd9d16d34ffb15ba3a3d852f0d403e2ce1d691fb54de27ac87cd2f993f3ec33108054845181870281018701909552808552929491938583019390928301828280156109c657602002820191906000526020600020905b8154815260200190600101908083116109b2575b5050505050815260200160028201805480602002602001604051908101604052809291908181526020018280548015610a1e57602002820191906000526020600020905b815481526020019060010190808311610a0a575b50505050508152505081600281518110610a3457fe5b602090810291909101810191909152600360005260018152604080516060810182527f7dfe757ecd65cbd7922a9c0161e935dd7fdbcc0e999689c7d31633896b1fc60b805460ff16151582527f7dfe757ecd65cbd7922a9c0161e935dd7fdbcc0e999689c7d31633896b1fc60c805484518187028101870190955280855292949193858301939092830182828015610aeb57602002820191906000526020600020905b815481526020019060010190808311610ad7575b5050505050815260200160028201805480602002602001604051908101604052809291908181526020018280548015610b4357602002820191906000526020600020905b815481526020019060010190808311610b2f575b50505050508152505081600381518110610b5957fe5b602090810291909101810191909152600460005260018152604080516060810182527fedc95719e9a3b28dd8e80877cb5880a9be7de1a13fc8b05e7999683b6b567643805460ff16151582527fedc95719e9a3b28dd8e80877cb5880a9be7de1a13fc8b05e7999683b6b567644805484518187028101870190955280855292949193858301939092830182828015610c1057602002820191906000526020600020905b815481526020019060010190808311610bfc575b5050505050815260200160028201805480602002602001604051908101604052809291908181526020018280548015610c6857602002820191906000526020600020905b815481526020019060010190808311610c54575b50505050508152505081600481518110610c7e57fe5b602090810291909101810191909152600560005260018152604080516060810182527fe2689cd4a84e23ad2f564004f1c9013e9589d260bde6380aba3ca7e09e4df40c805460ff16151582527fe2689cd4a84e23ad2f564004f1c9013e9589d260bde6380aba3ca7e09e4df40d805484518187028101870190955280855292949193858301939092830182828015610d3557602002820191906000526020600020905b815481526020019060010190808311610d21575b5050505050815260200160028201805480602002602001604051908101604052809291908181526020018280548015610d8d57602002820191906000526020600020905b815481526020019060010190808311610d79575b50505050508152505081600581518110610da357fe5b6020908102919091010152905090565b6000610dbd6110b3565b60016000856005811115610dcd57fe5b6005811115610dd857fe5b815260208082019290925260409081016000208151606081018352815460ff16151581526001820180548451818702810187019095528085529194929385840193909290830182828015610e4b57602002820191906000526020600020905b815481526020019060010190808311610e37575b5050505050815260200160028201805480602002602001604051908101604052809291908181526020018280548015610ea357602002820191906000526020600020905b815481526020019060010190808311610e8f575b50505050508152505090508060000151610ecf5760405162461bcd60e51b81526004016101ca9061139d565b6020810151518390610ee890600163ffffffff61103e16565b1015949350505050565b610efa61103a565b6000546001600160a01b03908116911614610f275760405162461bcd60e51b81526004016101ca90611571565b6001600160a01b038116610f4d5760405162461bcd60e51b81526004016101ca9061147a565b600080546040516001600160a01b03808516939216917f8be0079c531659141344cd1fd0a4f28419497f9722a3daafe3b4186f6b6457e091a3600080546001600160a01b0319166001600160a01b0392909216919091179055565b60008060016000856005811115610fbb57fe5b6005811115610fc657fe5b81526020019081526020016000206001018381548110610fe257fe5b9060005260206000200154915060016000856005811115610fff57fe5b600581111561100a57fe5b8152602001908152602001600020600201838154811061102657fe5b906000526020600020015490509250929050565b3390565b600061108083836040518060400160405280601e81526020017f536166654d6174683a207375627472616374696f6e206f766572666c6f770000815250611087565b9392505050565b600081848411156110ab5760405162461bcd60e51b81526004016101ca919061134a565b505050900390565b604051806060016040528060001515815260200160608152602001606081525090565b600082601f8301126110e6578081fd5b813567ffffffffffffffff808211156110fd578283fd5b60208083026040518282820101818110858211171561111a578687fd5b60405284815294508185019250858201818701830188101561113b57600080fd5b600091505b8482101561115e578035845292820192600191909101908201611140565b505050505092915050565b60006020828403121561117a578081fd5b81356001600160a01b0381168114611080578182fd5b6000602082840312156111a1578081fd5b81356110808161161d565b6000806000606084860312156111c0578182fd5b83356111cb8161161d565b9250602084013567ffffffffffffffff808211156111e7578384fd5b6111f3878388016110d6565b93506040860135915080821115611208578283fd5b50611215868287016110d6565b9150509250925092565b60008060408385031215611231578182fd5b823561123c8161161d565b946020939093013593505050565b6000815180845260208085019450808401835b838110156112795781518752958201959082019060010161125d565b509495945050505050565b6001600160a01b0391909116815260200190565b60208082528251828201819052600091906040908185019080840286018301878501865b8381101561131957603f198984030185528151606081511515855288820151818a8701526112ec8287018261124a565b8984015192508681038a880152611303818461124a565b988b0198965050509288019250506001016112bc565b509098975050505050505050565b901515815260200190565b604081016006841061134057fe5b9281526020015290565b6000602080835283518082850152825b818110156113765785810183015185820160400152820161135a565b818111156113875783604083870101525b50601f01601f1916929092016040019392505050565b6020808252601f908201527f506572696f642074797065206e6f7420696e697469616c697a65642079657400604082015260600190565b60208082526049908201527f5374617274206f66206120706572696f642073686f756c64206265203120736560408201527f636f6e642061667465722074686520656e64206f66207468652070726576696f6060820152681d5cc81c195c9a5bd960ba1b608082015260a00190565b6020808252601a908201527f53746172742073686f756c64206265206265666f726520656e64000000000000604082015260600190565b60208082526026908201527f4f776e61626c653a206e6577206f776e657220697320746865207a65726f206160408201526564647265737360d01b606082015260800190565b60208082526028908201527f506572696f6420747970652073746172747320616e6420656e64732073686f756040820152670d8c840dac2e8c6d60c31b606082015260800190565b60208082526018908201527714195c9a5bd9081d1e5c19481a5cc81b9bdd081d985b1a5960421b604082015260600190565b6020808252601e908201527f506572696f6420776173206e6f7420696e697469616c697a6564207965740000604082015260600190565b6020808252818101527f4f776e61626c653a2063616c6c6572206973206e6f7420746865206f776e6572604082015260600190565b6020808252601890820152770506572696f64206c656e6774682063616e277420626520360441b604082015260600190565b6020808252601f908201527f506572696f64207479706520616c726561647920696e697469616c697a656400604082015260600190565b918252602082015260400190565b6006811061162a57600080fd5b5056fea2646970667358221220ea32fc512eeb045acd13e389e0a956260ce8f3a1d9712848034a4aaad5cec89364736f6c63430006060033",
  "immutableReferences": {},
  "source": "// SPDX-License-Identifier: MIT\npragma solidity 0.6.6;\npragma experimental ABIEncoderV2;\n\nimport \"@openzeppelin/contracts/math/SafeMath.sol\";\nimport \"@openzeppelin/contracts/access/Ownable.sol\";\n\n/**\n * @title SLARegistry\n * @dev SLARegistry is a contract for handling creation of service level\n * agreements and keeping track of the created agreements\n */\ncontract PeriodRegistry is Ownable {\n    using SafeMath for uint256;\n\n    enum PeriodType {Hourly, Daily, Weekly, BiWeekly, Monthly, Yearly}\n\n    /// @dev struct to store the definition of a period\n    struct PeriodDefinition {\n        bool initialized;\n        uint256[] starts;\n        uint256[] ends;\n    }\n\n    /// @dev (periodType=>PeriodDefinition) hourly/weekly/biWeekly/monthly/yearly are periodTypes\n    mapping(PeriodType => PeriodDefinition) public periodDefinitions;\n\n    /**\n     * @dev event to log a new period initialized\n     *@param periodType 1. period type i.e. Hourly, Daily, Weekly, BiWeekly, Monthly, Yearly\n     *@param periodsAdded 2. amount of periods added\n     */\n    event PeriodInitialized(PeriodType periodType, uint256 periodsAdded);\n\n    /**\n     * @dev public function for creating canonical service level agreements\n     *@param _periodType 1. period type i.e. Hourly, Daily, Weekly, BiWeekly, Monthly, Yearly\n     *@param _periodStarts 2. array of the starts of the period\n     *@param _periodEnds 3. array of the ends of the period\n     */\n    function initializePeriod(\n        PeriodType _periodType,\n        uint256[] memory _periodStarts,\n        uint256[] memory _periodEnds\n    ) public onlyOwner {\n        PeriodDefinition storage periodDefinition =\n            periodDefinitions[_periodType];\n        require(\n            periodDefinition.initialized == false,\n            \"Period type already initialized\"\n        );\n        require(\n            _periodStarts.length == _periodEnds.length,\n            \"Period type starts and ends should match\"\n        );\n        require(_periodStarts.length > 0, \"Period length can't be 0\");\n        for (uint256 index = 0; index < _periodStarts.length; index++) {\n            require(\n                _periodStarts[index] < _periodEnds[index],\n                \"Start should be before end\"\n            );\n            if (index < _periodStarts.length - 1) {\n                require(\n                    _periodStarts[index + 1].sub(_periodEnds[index]) == 1,\n                    \"Start of a period should be 1 second after the end of the previous period\"\n                );\n            }\n            periodDefinition.starts.push(_periodStarts[index]);\n            periodDefinition.ends.push(_periodEnds[index]);\n        }\n        periodDefinition.initialized = true;\n        emit PeriodInitialized(_periodType, _periodStarts.length);\n    }\n\n    /**\n     * @dev function to add new periods to certain period type\n     *@param _periodType 1. period type i.e. Hourly, Daily, Weekly, BiWeekly, Monthly, Yearly\n     *@param _periodStarts 2. array of uint256 of the period starts to add\n     *@param _periodEnds 3. array of uint256 of the period starts to add\n     */\n    function addPeriodsToPeriodType(\n        PeriodType _periodType,\n        uint256[] memory _periodStarts,\n        uint256[] memory _periodEnds\n    ) public onlyOwner {\n        require(_periodStarts.length > 0, \"Period length can't be 0\");\n        PeriodDefinition storage periodDefinition =\n            periodDefinitions[_periodType];\n        require(\n            periodDefinition.initialized == true,\n            \"Period was not initialized yet\"\n        );\n        for (uint256 index = 0; index < _periodStarts.length; index++) {\n            require(\n                _periodStarts[index] < _periodEnds[index],\n                \"Start should be before end\"\n            );\n            if (index < _periodStarts.length.sub(1)) {\n                require(\n                    _periodStarts[index + 1].sub(_periodEnds[index]) == 1,\n                    \"Start of a period should be 1 second after the end of the previous period\"\n                );\n            }\n            periodDefinition.starts.push(_periodStarts[index]);\n            periodDefinition.ends.push(_periodEnds[index]);\n        }\n    }\n\n    /**\n     * @dev public function to get the start and end of a period\n     *@param _periodType 1. period type i.e. Hourly, Daily, Weekly, BiWeekly, Monthly, Yearly\n     *@param _periodId 2. period id to get start and end\n     */\n    function getPeriodStartAndEnd(PeriodType _periodType, uint256 _periodId)\n        public\n        view\n        returns (uint256 start, uint256 end)\n    {\n        start = periodDefinitions[_periodType].starts[_periodId];\n        end = periodDefinitions[_periodType].ends[_periodId];\n    }\n\n    /**\n     * @dev public function to check if a period id is valid i.e. it belongs to the added id array\n     *@param _periodType 1. period type i.e. Hourly, Daily, Weekly, BiWeekly, Monthly, Yearly\n     *@param _periodId 2. period id to get start and end\n     */\n    function isValidPeriod(PeriodType _periodType, uint256 _periodId)\n        public\n        view\n        returns (bool valid)\n    {\n        PeriodDefinition memory periodDefinition =\n            periodDefinitions[_periodType];\n        require(\n            periodDefinition.initialized,\n            \"Period type not initialized yet\"\n        );\n        // check if _periodId is smaller or equal to the last periodId value\n        valid = periodDefinition.starts.length.sub(1) >= _periodId;\n    }\n\n    /**\n     * @dev public function to check if a period has finished\n     *@param _periodType 1. period type i.e. Hourly, Daily, Weekly, BiWeekly, Monthly, Yearly\n     *@param _periodId 2. period id to get start and end\n     */\n    function periodIsFinished(PeriodType _periodType, uint256 _periodId)\n        public\n        view\n        returns (bool finished)\n    {\n        require(\n            isValidPeriod(_periodType, _periodId) == true,\n            \"Period type is not valid\"\n        );\n        finished =\n            periodDefinitions[_periodType].ends[_periodId] < block.timestamp;\n    }\n\n    /**\n     * @dev public function to get the periodDefinitions\n     */\n    function getPeriodDefinitions()\n        public\n        view\n        returns (PeriodDefinition[] memory)\n    {\n        // 6 period types\n        PeriodDefinition[] memory periodDefinition = new PeriodDefinition[](6);\n        periodDefinition[0] = periodDefinitions[PeriodType.Hourly];\n        periodDefinition[1] = periodDefinitions[PeriodType.Daily];\n        periodDefinition[2] = periodDefinitions[PeriodType.Weekly];\n        periodDefinition[3] = periodDefinitions[PeriodType.BiWeekly];\n        periodDefinition[4] = periodDefinitions[PeriodType.Monthly];\n        periodDefinition[5] = periodDefinitions[PeriodType.Yearly];\n        return periodDefinition;\n    }\n}\n",
  "sourcePath": "/Users/matiasbn/Desktop/stacktical/stacktical-dsla-contracts/contracts/PeriodRegistry.sol",
  "compiler": {
    "name": "solc",
    "version": "0.6.6+commit.6c089d02.Emscripten.clang"
  },
  "schemaVersion": "3.3.3",
  "updatedAt": "2021-03-14T21:22:02.067Z",
  "networkType": "ethereum",
  "devdoc": {
    "details": "SLARegistry is a contract for handling creation of service level agreements and keeping track of the created agreements",
    "methods": {
      "addPeriodsToPeriodType(uint8,uint256[],uint256[])": {
        "details": "function to add new periods to certain period type param _periodType 1. period type i.e. Hourly, Daily, Weekly, BiWeekly, Monthly, Yearly param _periodStarts 2. array of uint256 of the period starts to add param _periodEnds 3. array of uint256 of the period starts to add"
      },
      "getPeriodDefinitions()": {
        "details": "public function to get the periodDefinitions"
      },
      "getPeriodStartAndEnd(uint8,uint256)": {
        "details": "public function to get the start and end of a period param _periodType 1. period type i.e. Hourly, Daily, Weekly, BiWeekly, Monthly, Yearly param _periodId 2. period id to get start and end"
      },
      "initializePeriod(uint8,uint256[],uint256[])": {
        "details": "public function for creating canonical service level agreements param _periodType 1. period type i.e. Hourly, Daily, Weekly, BiWeekly, Monthly, Yearly param _periodStarts 2. array of the starts of the period param _periodEnds 3. array of the ends of the period"
      },
      "isValidPeriod(uint8,uint256)": {
        "details": "public function to check if a period id is valid i.e. it belongs to the added id array param _periodType 1. period type i.e. Hourly, Daily, Weekly, BiWeekly, Monthly, Yearly param _periodId 2. period id to get start and end"
      },
      "owner()": {
        "details": "Returns the address of the current owner."
      },
      "periodIsFinished(uint8,uint256)": {
        "details": "public function to check if a period has finished param _periodType 1. period type i.e. Hourly, Daily, Weekly, BiWeekly, Monthly, Yearly param _periodId 2. period id to get start and end"
      },
      "renounceOwnership()": {
        "details": "Leaves the contract without owner. It will not be possible to call `onlyOwner` functions anymore. Can only be called by the current owner.     * NOTE: Renouncing ownership will leave the contract without an owner, thereby removing any functionality that is only available to the owner."
      },
      "transferOwnership(address)": {
        "details": "Transfers ownership of the contract to a new account (`newOwner`). Can only be called by the current owner."
      }
    },
    "title": "SLARegistry"
  },
  "userdoc": {
    "methods": {}
  }
}