{
  "contractName": "PeriodRegistry",
  "abi": [
    {
      "anonymous": false,
      "inputs": [
        {
          "indexed": true,
          "internalType": "address",
          "name": "previousOwner",
          "type": "address"
        },
        {
          "indexed": true,
          "internalType": "address",
          "name": "newOwner",
          "type": "address"
        }
      ],
      "name": "OwnershipTransferred",
      "type": "event"
    },
    {
      "anonymous": false,
      "inputs": [
        {
          "indexed": false,
          "internalType": "enum PeriodRegistry.PeriodType",
          "name": "periodType",
          "type": "uint8"
        },
        {
          "indexed": false,
          "internalType": "uint256",
          "name": "periodsAdded",
          "type": "uint256"
        }
      ],
      "name": "PeriodInitialized",
      "type": "event"
    },
    {
      "inputs": [],
      "name": "owner",
      "outputs": [
        {
          "internalType": "address",
          "name": "",
          "type": "address"
        }
      ],
      "stateMutability": "view",
      "type": "function",
      "constant": true
    },
    {
      "inputs": [
        {
          "internalType": "enum PeriodRegistry.PeriodType",
          "name": "",
          "type": "uint8"
        }
      ],
      "name": "periodDefinitions",
      "outputs": [
        {
          "internalType": "bool",
          "name": "initialized",
          "type": "bool"
        }
      ],
      "stateMutability": "view",
      "type": "function",
      "constant": true
    },
    {
      "inputs": [],
      "name": "renounceOwnership",
      "outputs": [],
      "stateMutability": "nonpayable",
      "type": "function"
    },
    {
      "inputs": [
        {
          "internalType": "address",
          "name": "newOwner",
          "type": "address"
        }
      ],
      "name": "transferOwnership",
      "outputs": [],
      "stateMutability": "nonpayable",
      "type": "function"
    },
    {
      "inputs": [
        {
          "internalType": "enum PeriodRegistry.PeriodType",
          "name": "_periodType",
          "type": "uint8"
        },
        {
          "internalType": "uint256[]",
          "name": "_periodStarts",
          "type": "uint256[]"
        },
        {
          "internalType": "uint256[]",
          "name": "_periodEnds",
          "type": "uint256[]"
        }
      ],
      "name": "initializePeriod",
      "outputs": [],
      "stateMutability": "nonpayable",
      "type": "function"
    },
    {
      "inputs": [
        {
          "internalType": "enum PeriodRegistry.PeriodType",
          "name": "_periodType",
          "type": "uint8"
        },
        {
          "internalType": "uint256[]",
          "name": "_periodStarts",
          "type": "uint256[]"
        },
        {
          "internalType": "uint256[]",
          "name": "_periodEnds",
          "type": "uint256[]"
        }
      ],
      "name": "addPeriodsToPeriodType",
      "outputs": [],
      "stateMutability": "nonpayable",
      "type": "function"
    },
    {
      "inputs": [
        {
          "internalType": "enum PeriodRegistry.PeriodType",
          "name": "_periodType",
          "type": "uint8"
        },
        {
          "internalType": "uint256",
          "name": "_periodId",
          "type": "uint256"
        }
      ],
      "name": "getPeriodStartAndEnd",
      "outputs": [
        {
          "internalType": "uint256",
          "name": "start",
          "type": "uint256"
        },
        {
          "internalType": "uint256",
          "name": "end",
          "type": "uint256"
        }
      ],
      "stateMutability": "view",
      "type": "function",
      "constant": true
    },
    {
      "inputs": [
        {
          "internalType": "enum PeriodRegistry.PeriodType",
          "name": "_periodType",
          "type": "uint8"
        }
      ],
      "name": "isInitializedPeriod",
      "outputs": [
        {
          "internalType": "bool",
          "name": "initialized",
          "type": "bool"
        }
      ],
      "stateMutability": "view",
      "type": "function",
      "constant": true
    },
    {
      "inputs": [
        {
          "internalType": "enum PeriodRegistry.PeriodType",
          "name": "_periodType",
          "type": "uint8"
        },
        {
          "internalType": "uint256",
          "name": "_periodId",
          "type": "uint256"
        }
      ],
      "name": "isValidPeriod",
      "outputs": [
        {
          "internalType": "bool",
          "name": "valid",
          "type": "bool"
        }
      ],
      "stateMutability": "view",
      "type": "function",
      "constant": true
    },
    {
      "inputs": [
        {
          "internalType": "enum PeriodRegistry.PeriodType",
          "name": "_periodType",
          "type": "uint8"
        },
        {
          "internalType": "uint256",
          "name": "_periodId",
          "type": "uint256"
        }
      ],
      "name": "periodIsFinished",
      "outputs": [
        {
          "internalType": "bool",
          "name": "finished",
          "type": "bool"
        }
      ],
      "stateMutability": "view",
      "type": "function",
      "constant": true
    },
    {
      "inputs": [
        {
          "internalType": "enum PeriodRegistry.PeriodType",
          "name": "_periodType",
          "type": "uint8"
        },
        {
          "internalType": "uint256",
          "name": "_periodId",
          "type": "uint256"
        }
      ],
      "name": "periodHasStarted",
      "outputs": [
        {
          "internalType": "bool",
          "name": "started",
          "type": "bool"
        }
      ],
      "stateMutability": "view",
      "type": "function",
      "constant": true
    },
    {
      "inputs": [],
      "name": "getPeriodDefinitions",
      "outputs": [
        {
          "components": [
            {
              "internalType": "bool",
              "name": "initialized",
              "type": "bool"
            },
            {
              "internalType": "uint256[]",
              "name": "starts",
              "type": "uint256[]"
            },
            {
              "internalType": "uint256[]",
              "name": "ends",
              "type": "uint256[]"
            }
          ],
          "internalType": "struct PeriodRegistry.PeriodDefinition[]",
          "name": "",
          "type": "tuple[]"
        }
      ],
      "stateMutability": "view",
      "type": "function",
      "constant": true
    }
  ],
  "bytecode": "0x608060405260006100176001600160e01b0361006616565b600080546001600160a01b0319166001600160a01b0383169081178255604051929350917f8be0079c531659141344cd1fd0a4f28419497f9722a3daafe3b4186f6b6457e0908290a35061006a565b3390565b6117b0806100796000396000f3fe608060405234801561001057600080fd5b50600436106100b45760003560e01c8063a163f02011610071578063a163f0201461013a578063c7b6ceb41461014d578063d62e307514610160578063ddfc4fde14610175578063f2fde38b14610188578063ffa612351461019b576100b4565b80635c98d157146100b9578063715018a6146100e25780637a1d83bc146100ec5780638da5cb5b146100ff5780638fdec1da14610114578063963a470b14610127575b600080fd5b6100cc6100c7366004611314565b6101bc565b6040516100d991906114ab565b60405180910390f35b6100ea6101d1565b005b6100cc6100fa3660046113a3565b610259565b6101076102d2565b6040516100d99190611408565b6100cc610122366004611314565b6102e1565b6100ea610135366004611330565b6103e4565b6100ea610148366004611330565b6105ca565b6100cc61015b3660046113a3565b6107d8565b61016861083d565b6040516100d9919061141c565b6100cc6101833660046113a3565b610f57565b6100ea6101963660046112ed565b611076565b6101ae6101a93660046113a3565b61112c565b6040516100d992919061175c565b60016020526000908152604090205460ff1681565b6101d96111be565b6000546001600160a01b0390811691161461020f5760405162461bcd60e51b8152600401610206906116be565b60405180910390fd5b600080546040516001600160a01b03909116907f8be0079c531659141344cd1fd0a4f28419497f9722a3daafe3b4186f6b6457e0908390a3600080546001600160a01b0319169055565b60006102658383610f57565b15156001146102865760405162461bcd60e51b815260040161020690611655565b426001600085600581111561029757fe5b60058111156102a257fe5b815260200190815260200160002060010183815481106102be57fe5b906000526020600020015410905092915050565b6000546001600160a01b031690565b60006102eb611237565b600160008460058111156102fb57fe5b600581111561030657fe5b815260208082019290925260409081016000208151606081018352815460ff1615158152600182018054845181870281018701909552808552919492938584019390929083018282801561037957602002820191906000526020600020905b815481526020019060010190808311610365575b50505050508152602001600282018054806020026020016040519081016040528092919081815260200182805480156103d157602002820191906000526020600020905b8154815260200190600101908083116103bd575b5050509190925250509051949350505050565b6103ec6111be565b6000546001600160a01b039081169116146104195760405162461bcd60e51b8152600401610206906116be565b600082511161043a5760405162461bcd60e51b8152600401610206906116f3565b60006001600085600581111561044c57fe5b600581111561045757fe5b81526020810191909152604001600020805490915060ff1615156001146104905760405162461bcd60e51b815260040161020690611687565b60005b83518110156105c3578281815181106104a857fe5b60200260200101518482815181106104bc57fe5b6020026020010151106104e15760405162461bcd60e51b815260040161020690611590565b83516104f490600163ffffffff6111c216565b8110156105565761053783828151811061050a57fe5b602002602001015185836001018151811061052157fe5b60200260200101516111c290919063ffffffff16565b6001146105565760405162461bcd60e51b815260040161020690611521565b8160010184828151811061056657fe5b602090810291909101810151825460018101845560009384529190922001558251600283019084908390811061059857fe5b6020908102919091018101518254600181810185556000948552929093209092019190915501610493565b5050505050565b6105d26111be565b6000546001600160a01b039081169116146105ff5760405162461bcd60e51b8152600401610206906116be565b60006001600085600581111561061157fe5b600581111561061c57fe5b81526020810191909152604001600020805490915060ff16156106515760405162461bcd60e51b815260040161020690611725565b81518351146106725760405162461bcd60e51b81526004016102069061160d565b60008351116106935760405162461bcd60e51b8152600401610206906116f3565b60005b835181101561078b578281815181106106ab57fe5b60200260200101518482815181106106bf57fe5b6020026020010151106106e45760405162461bcd60e51b815260040161020690611590565b600184510381101561071e576106ff83828151811061050a57fe5b60011461071e5760405162461bcd60e51b815260040161020690611521565b8160010184828151811061072e57fe5b602090810291909101810151825460018101845560009384529190922001558251600283019084908390811061076057fe5b6020908102919091018101518254600181810185556000948552929093209092019190915501610696565b50805460ff1916600117815582516040517f2b0f2d8c9036efbd14cb23d06c56d37fca048c5062ada3454a3ab584762d6301916107ca918791906114b6565b60405180910390a150505050565b60006107e48383610f57565b15156001146108055760405162461bcd60e51b815260040161020690611655565b426001600085600581111561081657fe5b600581111561082157fe5b815260200190815260200160002060020183815481106102be57fe5b60408051600680825260e08201909252606091829190816020015b610860611237565b8152602001906001900390816108585750506000805260016020908152604080516060810182527fa6eef7e35abe7026729641147f7915573c7e97b47efa546f5f6e3230263bcb49805460ff16151582527fa6eef7e35abe7026729641147f7915573c7e97b47efa546f5f6e3230263bcb4a8054845181870281018701909552808552959650919490938581019392919083018282801561092057602002820191906000526020600020905b81548152602001906001019080831161090c575b505050505081526020016002820180548060200260200160405190810160405280929190818152602001828054801561097857602002820191906000526020600020905b815481526020019060010190808311610964575b5050505050815250508160008151811061098e57fe5b602090810291909101810191909152600160008190528152604080516060810182527fcc69885fda6bcc1a4ace058b4a62bf5e179ea78fd58a1ccd71c22cc9b688792f805460ff16151582527fcc69885fda6bcc1a4ace058b4a62bf5e179ea78fd58a1ccd71c22cc9b6887930805484518187028101870190955280855292949193858301939092830182828015610a4557602002820191906000526020600020905b815481526020019060010190808311610a31575b5050505050815260200160028201805480602002602001604051908101604052809291908181526020018280548015610a9d57602002820191906000526020600020905b815481526020019060010190808311610a89575b50505050508152505081600181518110610ab357fe5b602090810291909101810191909152600260005260018152604080516060810182527fd9d16d34ffb15ba3a3d852f0d403e2ce1d691fb54de27ac87cd2f993f3ec330f805460ff16151582527fd9d16d34ffb15ba3a3d852f0d403e2ce1d691fb54de27ac87cd2f993f3ec3310805484518187028101870190955280855292949193858301939092830182828015610b6a57602002820191906000526020600020905b815481526020019060010190808311610b56575b5050505050815260200160028201805480602002602001604051908101604052809291908181526020018280548015610bc257602002820191906000526020600020905b815481526020019060010190808311610bae575b50505050508152505081600281518110610bd857fe5b602090810291909101810191909152600360005260018152604080516060810182527f7dfe757ecd65cbd7922a9c0161e935dd7fdbcc0e999689c7d31633896b1fc60b805460ff16151582527f7dfe757ecd65cbd7922a9c0161e935dd7fdbcc0e999689c7d31633896b1fc60c805484518187028101870190955280855292949193858301939092830182828015610c8f57602002820191906000526020600020905b815481526020019060010190808311610c7b575b5050505050815260200160028201805480602002602001604051908101604052809291908181526020018280548015610ce757602002820191906000526020600020905b815481526020019060010190808311610cd3575b50505050508152505081600381518110610cfd57fe5b602090810291909101810191909152600460005260018152604080516060810182527fedc95719e9a3b28dd8e80877cb5880a9be7de1a13fc8b05e7999683b6b567643805460ff16151582527fedc95719e9a3b28dd8e80877cb5880a9be7de1a13fc8b05e7999683b6b567644805484518187028101870190955280855292949193858301939092830182828015610db457602002820191906000526020600020905b815481526020019060010190808311610da0575b5050505050815260200160028201805480602002602001604051908101604052809291908181526020018280548015610e0c57602002820191906000526020600020905b815481526020019060010190808311610df8575b50505050508152505081600481518110610e2257fe5b602090810291909101810191909152600560005260018152604080516060810182527fe2689cd4a84e23ad2f564004f1c9013e9589d260bde6380aba3ca7e09e4df40c805460ff16151582527fe2689cd4a84e23ad2f564004f1c9013e9589d260bde6380aba3ca7e09e4df40d805484518187028101870190955280855292949193858301939092830182828015610ed957602002820191906000526020600020905b815481526020019060010190808311610ec5575b5050505050815260200160028201805480602002602001604051908101604052809291908181526020018280548015610f3157602002820191906000526020600020905b815481526020019060010190808311610f1d575b50505050508152505081600581518110610f4757fe5b6020908102919091010152905090565b6000610f61611237565b60016000856005811115610f7157fe5b6005811115610f7c57fe5b815260208082019290925260409081016000208151606081018352815460ff16151581526001820180548451818702810187019095528085529194929385840193909290830182828015610fef57602002820191906000526020600020905b815481526020019060010190808311610fdb575b505050505081526020016002820180548060200260200160405190810160405280929190818152602001828054801561104757602002820191906000526020600020905b815481526020019060010190808311611033575b50505050508152505090508261106c60018360200151516111c290919063ffffffff16565b1015949350505050565b61107e6111be565b6000546001600160a01b039081169116146110ab5760405162461bcd60e51b8152600401610206906116be565b6001600160a01b0381166110d15760405162461bcd60e51b8152600401610206906115c7565b600080546040516001600160a01b03808516939216917f8be0079c531659141344cd1fd0a4f28419497f9722a3daafe3b4186f6b6457e091a3600080546001600160a01b0319166001600160a01b0392909216919091179055565b6000806001600085600581111561113f57fe5b600581111561114a57fe5b8152602001908152602001600020600101838154811061116657fe5b906000526020600020015491506001600085600581111561118357fe5b600581111561118e57fe5b815260200190815260200160002060020183815481106111aa57fe5b906000526020600020015490509250929050565b3390565b600061120483836040518060400160405280601e81526020017f536166654d6174683a207375627472616374696f6e206f766572666c6f77000081525061120b565b9392505050565b6000818484111561122f5760405162461bcd60e51b815260040161020691906114ce565b505050900390565b604051806060016040528060001515815260200160608152602001606081525090565b600082601f83011261126a578081fd5b813567ffffffffffffffff80821115611281578283fd5b60208083026040518282820101818110858211171561129e578687fd5b6040528481529450818501925085820181870183018810156112bf57600080fd5b600091505b848210156112e25780358452928201926001919091019082016112c4565b505050505092915050565b6000602082840312156112fe578081fd5b81356001600160a01b0381168114611204578182fd5b600060208284031215611325578081fd5b81356112048161176a565b600080600060608486031215611344578182fd5b833561134f8161176a565b9250602084013567ffffffffffffffff8082111561136b578384fd5b6113778783880161125a565b9350604086013591508082111561138c578283fd5b506113998682870161125a565b9150509250925092565b600080604083850312156113b5578182fd5b82356113c08161176a565b946020939093013593505050565b6000815180845260208085019450808401835b838110156113fd578151875295820195908201906001016113e1565b509495945050505050565b6001600160a01b0391909116815260200190565b60208082528251828201819052600091906040908185019080840286018301878501865b8381101561149d57603f198984030185528151606081511515855288820151818a870152611470828701826113ce565b8984015192508681038a88015261148781846113ce565b988b019896505050928801925050600101611440565b509098975050505050505050565b901515815260200190565b60408101600684106114c457fe5b9281526020015290565b6000602080835283518082850152825b818110156114fa578581018301518582016040015282016114de565b8181111561150b5783604083870101525b50601f01601f1916929092016040019392505050565b60208082526049908201527f5374617274206f66206120706572696f642073686f756c64206265203120736560408201527f636f6e642061667465722074686520656e64206f66207468652070726576696f6060820152681d5cc81c195c9a5bd960ba1b608082015260a00190565b6020808252601a908201527f53746172742073686f756c64206265206265666f726520656e64000000000000604082015260600190565b60208082526026908201527f4f776e61626c653a206e6577206f776e657220697320746865207a65726f206160408201526564647265737360d01b606082015260800190565b60208082526028908201527f506572696f6420747970652073746172747320616e6420656e64732073686f756040820152670d8c840dac2e8c6d60c31b606082015260800190565b60208082526018908201527714195c9a5bd9081d1e5c19481a5cc81b9bdd081d985b1a5960421b604082015260600190565b6020808252601e908201527f506572696f6420776173206e6f7420696e697469616c697a6564207965740000604082015260600190565b6020808252818101527f4f776e61626c653a2063616c6c6572206973206e6f7420746865206f776e6572604082015260600190565b6020808252601890820152770506572696f64206c656e6774682063616e277420626520360441b604082015260600190565b6020808252601f908201527f506572696f64207479706520616c726561647920696e697469616c697a656400604082015260600190565b918252602082015260400190565b6006811061177757600080fd5b5056fea26469706673582212207531cf32d44fc0cb4a291d9f51af7732b06349c5f18f9adee0ca6e39a567462b64736f6c63430006060033",
  "immutableReferences": {},
  "source": "// SPDX-License-Identifier: MIT\npragma solidity 0.6.6;\npragma experimental ABIEncoderV2;\n\nimport \"@openzeppelin/contracts/math/SafeMath.sol\";\nimport \"@openzeppelin/contracts/access/Ownable.sol\";\n\n/**\n * @title SLARegistry\n * @dev SLARegistry is a contract for handling creation of service level\n * agreements and keeping track of the created agreements\n */\ncontract PeriodRegistry is Ownable {\n    using SafeMath for uint256;\n\n    enum PeriodType {Hourly, Daily, Weekly, BiWeekly, Monthly, Yearly}\n\n    /// @dev struct to store the definition of a period\n    struct PeriodDefinition {\n        bool initialized;\n        uint256[] starts;\n        uint256[] ends;\n    }\n\n    /// @dev (periodType=>PeriodDefinition) hourly/weekly/biWeekly/monthly/yearly are periodTypes\n    mapping(PeriodType => PeriodDefinition) public periodDefinitions;\n\n    /**\n     * @dev event to log a new period initialized\n     *@param periodType 1. period type i.e. Hourly, Daily, Weekly, BiWeekly, Monthly, Yearly\n     *@param periodsAdded 2. amount of periods added\n     */\n    event PeriodInitialized(PeriodType periodType, uint256 periodsAdded);\n\n    /**\n     * @dev public function for creating canonical service level agreements\n     *@param _periodType 1. period type i.e. Hourly, Daily, Weekly, BiWeekly, Monthly, Yearly\n     *@param _periodStarts 2. array of the starts of the period\n     *@param _periodEnds 3. array of the ends of the period\n     */\n    function initializePeriod(\n        PeriodType _periodType,\n        uint256[] memory _periodStarts,\n        uint256[] memory _periodEnds\n    ) public onlyOwner {\n        PeriodDefinition storage periodDefinition =\n            periodDefinitions[_periodType];\n        require(\n            periodDefinition.initialized == false,\n            \"Period type already initialized\"\n        );\n        require(\n            _periodStarts.length == _periodEnds.length,\n            \"Period type starts and ends should match\"\n        );\n        require(_periodStarts.length > 0, \"Period length can't be 0\");\n        for (uint256 index = 0; index < _periodStarts.length; index++) {\n            require(\n                _periodStarts[index] < _periodEnds[index],\n                \"Start should be before end\"\n            );\n            if (index < _periodStarts.length - 1) {\n                require(\n                    _periodStarts[index + 1].sub(_periodEnds[index]) == 1,\n                    \"Start of a period should be 1 second after the end of the previous period\"\n                );\n            }\n            periodDefinition.starts.push(_periodStarts[index]);\n            periodDefinition.ends.push(_periodEnds[index]);\n        }\n        periodDefinition.initialized = true;\n        emit PeriodInitialized(_periodType, _periodStarts.length);\n    }\n\n    /**\n     * @dev function to add new periods to certain period type\n     *@param _periodType 1. period type i.e. Hourly, Daily, Weekly, BiWeekly, Monthly, Yearly\n     *@param _periodStarts 2. array of uint256 of the period starts to add\n     *@param _periodEnds 3. array of uint256 of the period starts to add\n     */\n    function addPeriodsToPeriodType(\n        PeriodType _periodType,\n        uint256[] memory _periodStarts,\n        uint256[] memory _periodEnds\n    ) public onlyOwner {\n        require(_periodStarts.length > 0, \"Period length can't be 0\");\n        PeriodDefinition storage periodDefinition =\n            periodDefinitions[_periodType];\n        require(\n            periodDefinition.initialized == true,\n            \"Period was not initialized yet\"\n        );\n        for (uint256 index = 0; index < _periodStarts.length; index++) {\n            require(\n                _periodStarts[index] < _periodEnds[index],\n                \"Start should be before end\"\n            );\n            if (index < _periodStarts.length.sub(1)) {\n                require(\n                    _periodStarts[index + 1].sub(_periodEnds[index]) == 1,\n                    \"Start of a period should be 1 second after the end of the previous period\"\n                );\n            }\n            periodDefinition.starts.push(_periodStarts[index]);\n            periodDefinition.ends.push(_periodEnds[index]);\n        }\n    }\n\n    /**\n     * @dev public function to get the start and end of a period\n     *@param _periodType 1. period type i.e. Hourly, Daily, Weekly, BiWeekly, Monthly, Yearly\n     *@param _periodId 2. period id to get start and end\n     */\n    function getPeriodStartAndEnd(PeriodType _periodType, uint256 _periodId)\n        public\n        view\n        returns (uint256 start, uint256 end)\n    {\n        start = periodDefinitions[_periodType].starts[_periodId];\n        end = periodDefinitions[_periodType].ends[_periodId];\n    }\n\n    /**\n     * @dev public function to check if a periodType id is initialized\n     *@param _periodType 1. period type i.e. Hourly, Daily, Weekly, BiWeekly, Monthly, Yearly\n     */\n    function isInitializedPeriod(PeriodType _periodType)\n        public\n        view\n        returns (bool initialized)\n    {\n        PeriodDefinition memory periodDefinition =\n            periodDefinitions[_periodType];\n        initialized = periodDefinition.initialized;\n    }\n\n    /**\n     * @dev public function to check if a period id is valid i.e. it belongs to the added id array\n     *@param _periodType 1. period type i.e. Hourly, Daily, Weekly, BiWeekly, Monthly, Yearly\n     *@param _periodId 2. period id to get start and end\n     */\n    function isValidPeriod(PeriodType _periodType, uint256 _periodId)\n        public\n        view\n        returns (bool valid)\n    {\n        PeriodDefinition memory periodDefinition =\n            periodDefinitions[_periodType];\n        valid = periodDefinition.starts.length.sub(1) >= _periodId;\n    }\n\n    /**\n     * @dev public function to check if a period has finished\n     *@param _periodType 1. period type i.e. Hourly, Daily, Weekly, BiWeekly, Monthly, Yearly\n     *@param _periodId 2. period id to get start and end\n     */\n    function periodIsFinished(PeriodType _periodType, uint256 _periodId)\n        public\n        view\n        returns (bool finished)\n    {\n        require(\n            isValidPeriod(_periodType, _periodId) == true,\n            \"Period type is not valid\"\n        );\n        finished =\n            periodDefinitions[_periodType].ends[_periodId] < block.timestamp;\n    }\n\n    /**\n     * @dev public function to check if a period has started\n     *@param _periodType 1. period type i.e. Hourly, Daily, Weekly, BiWeekly, Monthly, Yearly\n     *@param _periodId 2. period id to get start and end\n     */\n    function periodHasStarted(PeriodType _periodType, uint256 _periodId)\n        public\n        view\n        returns (bool started)\n    {\n        require(\n            isValidPeriod(_periodType, _periodId) == true,\n            \"Period type is not valid\"\n        );\n        started =\n            periodDefinitions[_periodType].starts[_periodId] < block.timestamp;\n    }\n\n    /**\n     * @dev public function to get the periodDefinitions\n     */\n    function getPeriodDefinitions()\n        public\n        view\n        returns (PeriodDefinition[] memory)\n    {\n        // 6 period types\n        PeriodDefinition[] memory periodDefinition = new PeriodDefinition[](6);\n        periodDefinition[0] = periodDefinitions[PeriodType.Hourly];\n        periodDefinition[1] = periodDefinitions[PeriodType.Daily];\n        periodDefinition[2] = periodDefinitions[PeriodType.Weekly];\n        periodDefinition[3] = periodDefinitions[PeriodType.BiWeekly];\n        periodDefinition[4] = periodDefinitions[PeriodType.Monthly];\n        periodDefinition[5] = periodDefinitions[PeriodType.Yearly];\n        return periodDefinition;\n    }\n}\n",
  "sourcePath": "/Users/matiasbn/Desktop/stacktical/stacktical-dsla-contracts/contracts/PeriodRegistry.sol",
  "compiler": {
    "name": "solc",
    "version": "0.6.6+commit.6c089d02.Emscripten.clang"
  },
  "schemaVersion": "3.3.3",
  "updatedAt": "2021-03-17T22:21:03.755Z",
  "networkType": "ethereum",
  "devdoc": {
    "details": "SLARegistry is a contract for handling creation of service level agreements and keeping track of the created agreements",
    "methods": {
      "addPeriodsToPeriodType(uint8,uint256[],uint256[])": {
        "details": "function to add new periods to certain period type param _periodType 1. period type i.e. Hourly, Daily, Weekly, BiWeekly, Monthly, Yearly param _periodStarts 2. array of uint256 of the period starts to add param _periodEnds 3. array of uint256 of the period starts to add"
      },
      "getPeriodDefinitions()": {
        "details": "public function to get the periodDefinitions"
      },
      "getPeriodStartAndEnd(uint8,uint256)": {
        "details": "public function to get the start and end of a period param _periodType 1. period type i.e. Hourly, Daily, Weekly, BiWeekly, Monthly, Yearly param _periodId 2. period id to get start and end"
      },
      "initializePeriod(uint8,uint256[],uint256[])": {
        "details": "public function for creating canonical service level agreements param _periodType 1. period type i.e. Hourly, Daily, Weekly, BiWeekly, Monthly, Yearly param _periodStarts 2. array of the starts of the period param _periodEnds 3. array of the ends of the period"
      },
      "isInitializedPeriod(uint8)": {
        "details": "public function to check if a periodType id is initialized param _periodType 1. period type i.e. Hourly, Daily, Weekly, BiWeekly, Monthly, Yearly"
      },
      "isValidPeriod(uint8,uint256)": {
        "details": "public function to check if a period id is valid i.e. it belongs to the added id array param _periodType 1. period type i.e. Hourly, Daily, Weekly, BiWeekly, Monthly, Yearly param _periodId 2. period id to get start and end"
      },
      "owner()": {
        "details": "Returns the address of the current owner."
      },
      "periodHasStarted(uint8,uint256)": {
        "details": "public function to check if a period has started param _periodType 1. period type i.e. Hourly, Daily, Weekly, BiWeekly, Monthly, Yearly param _periodId 2. period id to get start and end"
      },
      "periodIsFinished(uint8,uint256)": {
        "details": "public function to check if a period has finished param _periodType 1. period type i.e. Hourly, Daily, Weekly, BiWeekly, Monthly, Yearly param _periodId 2. period id to get start and end"
      },
      "renounceOwnership()": {
        "details": "Leaves the contract without owner. It will not be possible to call `onlyOwner` functions anymore. Can only be called by the current owner.     * NOTE: Renouncing ownership will leave the contract without an owner, thereby removing any functionality that is only available to the owner."
      },
      "transferOwnership(address)": {
        "details": "Transfers ownership of the contract to a new account (`newOwner`). Can only be called by the current owner."
      }
    },
    "title": "SLARegistry"
  },
  "userdoc": {
    "methods": {}
  }
}