{
  "contractName": "PeriodRegistry",
  "abi": [
    {
      "anonymous": false,
      "inputs": [
        {
          "indexed": true,
          "internalType": "address",
          "name": "previousOwner",
          "type": "address"
        },
        {
          "indexed": true,
          "internalType": "address",
          "name": "newOwner",
          "type": "address"
        }
      ],
      "name": "OwnershipTransferred",
      "type": "event"
    },
    {
      "anonymous": false,
      "inputs": [
        {
          "indexed": false,
          "internalType": "enum PeriodRegistry.PeriodType",
          "name": "periodType",
          "type": "uint8"
        },
        {
          "indexed": false,
          "internalType": "uint256",
          "name": "periodsAdded",
          "type": "uint256"
        },
        {
          "indexed": false,
          "internalType": "uint256",
          "name": "apy",
          "type": "uint256"
        },
        {
          "indexed": false,
          "internalType": "uint256",
          "name": "yearlyPeriods",
          "type": "uint256"
        }
      ],
      "name": "PeriodInitialized",
      "type": "event"
    },
    {
      "inputs": [],
      "name": "owner",
      "outputs": [
        {
          "internalType": "address",
          "name": "",
          "type": "address"
        }
      ],
      "stateMutability": "view",
      "type": "function"
    },
    {
      "inputs": [
        {
          "internalType": "enum PeriodRegistry.PeriodType",
          "name": "",
          "type": "uint8"
        }
      ],
      "name": "periodDefinitions",
      "outputs": [
        {
          "internalType": "uint256",
          "name": "yearlyPeriods",
          "type": "uint256"
        },
        {
          "internalType": "bool",
          "name": "initialized",
          "type": "bool"
        }
      ],
      "stateMutability": "view",
      "type": "function"
    },
    {
      "inputs": [],
      "name": "renounceOwnership",
      "outputs": [],
      "stateMutability": "nonpayable",
      "type": "function"
    },
    {
      "inputs": [
        {
          "internalType": "address",
          "name": "newOwner",
          "type": "address"
        }
      ],
      "name": "transferOwnership",
      "outputs": [],
      "stateMutability": "nonpayable",
      "type": "function"
    },
    {
      "inputs": [
        {
          "internalType": "enum PeriodRegistry.PeriodType",
          "name": "_periodType",
          "type": "uint8"
        },
        {
          "internalType": "uint256[]",
          "name": "_periodStarts",
          "type": "uint256[]"
        },
        {
          "internalType": "uint256[]",
          "name": "_periodEnds",
          "type": "uint256[]"
        },
        {
          "internalType": "uint256",
          "name": "_yearlyPeriods",
          "type": "uint256"
        }
      ],
      "name": "initializePeriod",
      "outputs": [],
      "stateMutability": "nonpayable",
      "type": "function"
    },
    {
      "inputs": [
        {
          "internalType": "enum PeriodRegistry.PeriodType",
          "name": "_periodType",
          "type": "uint8"
        },
        {
          "internalType": "uint256",
          "name": "_periodId",
          "type": "uint256"
        }
      ],
      "name": "getPeriodStartAndEnd",
      "outputs": [
        {
          "internalType": "uint256",
          "name": "start",
          "type": "uint256"
        },
        {
          "internalType": "uint256",
          "name": "end",
          "type": "uint256"
        }
      ],
      "stateMutability": "view",
      "type": "function"
    },
    {
      "inputs": [
        {
          "internalType": "enum PeriodRegistry.PeriodType",
          "name": "_periodType",
          "type": "uint8"
        },
        {
          "internalType": "uint256",
          "name": "_periodId",
          "type": "uint256"
        }
      ],
      "name": "isValidPeriod",
      "outputs": [
        {
          "internalType": "bool",
          "name": "valid",
          "type": "bool"
        }
      ],
      "stateMutability": "view",
      "type": "function"
    },
    {
      "inputs": [
        {
          "internalType": "enum PeriodRegistry.PeriodType",
          "name": "_periodType",
          "type": "uint8"
        },
        {
          "internalType": "uint256",
          "name": "_periodId",
          "type": "uint256"
        }
      ],
      "name": "periodIsFinished",
      "outputs": [
        {
          "internalType": "bool",
          "name": "finished",
          "type": "bool"
        }
      ],
      "stateMutability": "view",
      "type": "function"
    }
  ],
  "bytecode": "0x608060405234801561001057600080fd5b50600061001b61006a565b600080546001600160a01b0319166001600160a01b0383169081178255604051929350917f8be0079c531659141344cd1fd0a4f28419497f9722a3daafe3b4186f6b6457e0908290a35061006e565b3390565b610c178061007d6000396000f3fe608060405234801561001057600080fd5b50600436106100785760003560e01c80635c98d1571461007d578063715018a6146100a75780638da5cb5b146100b1578063b3414157146100c6578063c7b6ceb4146100d9578063ddfc4fde146100f9578063f2fde38b1461010c578063ffa612351461011f575b600080fd5b61009061008b3660046108e5565b610140565b60405161009e929190610bb3565b60405180910390f35b6100af61015c565b005b6100b96101e4565b60405161009e91906109a7565b6100af6100d4366004610901565b6101f3565b6100ec6100e736600461097c565b610396565b60405161009e91906109bb565b6100ec61010736600461097c565b610503565b6100af61011a3660046108be565b610640565b61013261012d36600461097c565b6106f6565b60405161009e929190610bc3565b6001602081905260009182526040909120805491015460ff1682565b610164610788565b6000546001600160a01b0390811691161461019a5760405162461bcd60e51b815260040161019190610b15565b60405180910390fd5b600080546040516001600160a01b03909116907f8be0079c531659141344cd1fd0a4f28419497f9722a3daafe3b4186f6b6457e0908390a3600080546001600160a01b0319169055565b6000546001600160a01b031690565b6101fb610788565b6000546001600160a01b039081169116146102285760405162461bcd60e51b815260040161019190610b15565b60006001600086600581111561023a57fe5b600581111561024557fe5b81526020810191909152604001600020600181015490915060ff161561027d5760405162461bcd60e51b815260040161019190610b7c565b825184511461029e5760405162461bcd60e51b815260040161019190610acd565b60008451116102bf5760405162461bcd60e51b815260040161019190610b4a565b60005b845181101561037d578381815181106102d757fe5b60200260200101518582815181106102eb57fe5b6020026020010151106103105760405162461bcd60e51b815260040161019190610a50565b8160020185828151811061032057fe5b602090810291909101810151825460018101845560009384529190922001558351600383019085908390811061035257fe5b60209081029190910181015182546001818101855560009485529290932090920191909155016102c2565b509081556001908101805460ff19169091179055505050565b60006103a0610801565b600160008560058111156103b057fe5b60058111156103bb57fe5b81526020808201929092526040908101600020815160808101835281548152600182015460ff1615158185015260028201805484518187028101870186528181529295939486019383018282801561043257602002820191906000526020600020905b81548152602001906001019080831161041e575b505050505081526020016003820180548060200260200160405190810160405280929190818152602001828054801561048a57602002820191906000526020600020905b815481526020019060010190808311610476575b505050505081525050905080602001516104b65760405162461bcd60e51b815260040161019190610a19565b42600160008660058111156104c757fe5b60058111156104d257fe5b815260200190815260200160002060030184815481106104ee57fe5b90600052602060002001541091505092915050565b600061050d610801565b6001600085600581111561051d57fe5b600581111561052857fe5b81526020808201929092526040908101600020815160808101835281548152600182015460ff1615158185015260028201805484518187028101870186528181529295939486019383018282801561059f57602002820191906000526020600020905b81548152602001906001019080831161058b575b50505050508152602001600382018054806020026020016040519081016040528092919081815260200182805480156105f757602002820191906000526020600020905b8154815260200190600101908083116105e3575b505050505081525050905080602001516106235760405162461bcd60e51b815260040161019190610a19565b604081015151839061063690600161078c565b1015949350505050565b610648610788565b6000546001600160a01b039081169116146106755760405162461bcd60e51b815260040161019190610b15565b6001600160a01b03811661069b5760405162461bcd60e51b815260040161019190610a87565b600080546040516001600160a01b03808516939216917f8be0079c531659141344cd1fd0a4f28419497f9722a3daafe3b4186f6b6457e091a3600080546001600160a01b0319166001600160a01b0392909216919091179055565b6000806001600085600581111561070957fe5b600581111561071457fe5b8152602001908152602001600020600201838154811061073057fe5b906000526020600020015491506001600085600581111561074d57fe5b600581111561075857fe5b8152602001908152602001600020600301838154811061077457fe5b906000526020600020015490509250929050565b3390565b60006107ce83836040518060400160405280601e81526020017f536166654d6174683a207375627472616374696f6e206f766572666c6f7700008152506107d5565b9392505050565b600081848411156107f95760405162461bcd60e51b815260040161019191906109c6565b505050900390565b60405180608001604052806000815260200160001515815260200160608152602001606081525090565b600082601f83011261083b578081fd5b813567ffffffffffffffff80821115610852578283fd5b60208083026040518282820101818110858211171561086f578687fd5b60405284815294508185019250858201818701830188101561089057600080fd5b600091505b848210156108b3578035845292820192600191909101908201610895565b505050505092915050565b6000602082840312156108cf578081fd5b81356001600160a01b03811681146107ce578182fd5b6000602082840312156108f6578081fd5b81356107ce81610bd1565b60008060008060808587031215610916578283fd5b843561092181610bd1565b9350602085013567ffffffffffffffff8082111561093d578485fd5b6109498883890161082b565b9450604087013591508082111561095e578384fd5b5061096b8782880161082b565b949793965093946060013593505050565b6000806040838503121561098e578182fd5b823561099981610bd1565b946020939093013593505050565b6001600160a01b0391909116815260200190565b901515815260200190565b6000602080835283518082850152825b818110156109f2578581018301518582016040015282016109d6565b81811115610a035783604083870101525b50601f01601f1916929092016040019392505050565b6020808252601f908201527f506572696f642074797065206e6f7420696e697469616c697a65642079657400604082015260600190565b6020808252601a908201527f53746172742073686f756c64206265206265666f726520656e64000000000000604082015260600190565b60208082526026908201527f4f776e61626c653a206e6577206f776e657220697320746865207a65726f206160408201526564647265737360d01b606082015260800190565b60208082526028908201527f506572696f6420747970652073746172747320616e6420656e64732073686f756040820152670d8c840dac2e8c6d60c31b606082015260800190565b6020808252818101527f4f776e61626c653a2063616c6c6572206973206e6f7420746865206f776e6572604082015260600190565b6020808252601890820152770506572696f64206c656e6774682063616e277420626520360441b604082015260600190565b6020808252601f908201527f506572696f64207479706520616c726561647920696e697469616c697a656400604082015260600190565b9182521515602082015260400190565b918252602082015260400190565b60068110610bde57600080fd5b5056fea264697066735822122061a2f65d87a19c26f8a4a916496ea8a3d9f43a0bc8cff758f8fab04bd71bb13364736f6c634300060c0033",
  "immutableReferences": {},
  "source": "// SPDX-License-Identifier: MIT\npragma solidity ^0.6.0;\npragma experimental ABIEncoderV2;\n\nimport \"@openzeppelin/contracts/math/SafeMath.sol\";\nimport \"@openzeppelin/contracts/access/Ownable.sol\";\n\n/**\n * @title SLARegistry\n * @dev SLARegistry is a contract for handling creation of service level\n * agreements and keeping track of the created agreements\n */\ncontract PeriodRegistry is Ownable {\n    using SafeMath for uint256;\n\n    enum PeriodType {Hourly, Daily, Weekly, BiWeekly, Monthly, Yearly}\n\n    /// @dev struct to store the definition of a period\n    struct PeriodDefinition {\n        uint256 yearlyPeriods;\n        bool initialized;\n        uint256[] starts;\n        uint256[] ends;\n    }\n\n    /// @dev (periodType=>PeriodDefinition) hourly/weekly/biWeekly/monthly/yearly are periodTypes\n    mapping(PeriodType => PeriodDefinition) public periodDefinitions;\n\n    /**\n     * @dev event to log a new period initialized\n     *@param periodType 1. period type i.e. Hourly, Daily, Weekly, BiWeekly, Monthly, Yearly\n     *@param periodsAdded 2. amount of periods added\n     *@param apy 3. annual percentage yield offered for a year long SLA\n     *@param yearlyPeriods 4. amount of periods of the corresponding periods per year to calculate real APY\n     */\n    event PeriodInitialized(\n        PeriodType periodType,\n        uint256 periodsAdded,\n        uint256 apy,\n        uint256 yearlyPeriods\n    );\n\n    /**\n     * @dev public function for creating canonical service level agreements\n     *@param _periodType 1. period type i.e. Hourly, Daily, Weekly, BiWeekly, Monthly, Yearly\n     *@param _periodStarts 2. array of the starts of the period\n     *@param _periodEnds 3. array of the ends of the period\n     *@param _yearlyPeriods 5. amount of periods of the corresponding periods per year to calculate real APY\n     */\n    function initializePeriod(\n        PeriodType _periodType,\n        uint256[] memory _periodStarts,\n        uint256[] memory _periodEnds,\n        uint256 _yearlyPeriods\n    ) public onlyOwner {\n        PeriodDefinition storage periodDefinition =\n            periodDefinitions[_periodType];\n        require(\n            periodDefinition.initialized == false,\n            \"Period type already initialized\"\n        );\n        require(\n            _periodStarts.length == _periodEnds.length,\n            \"Period type starts and ends should match\"\n        );\n        require(_periodStarts.length > 0, \"Period length can't be 0\");\n        for (uint256 index = 0; index < _periodStarts.length; index++) {\n            require(\n                _periodStarts[index] < _periodEnds[index],\n                \"Start should be before end\"\n            );\n            periodDefinition.starts.push(_periodStarts[index]);\n            periodDefinition.ends.push(_periodEnds[index]);\n        }\n        periodDefinition.yearlyPeriods = _yearlyPeriods;\n        periodDefinition.initialized = true;\n    }\n\n    /**\n     * @dev public function to get the start and end of a period\n     *@param _periodType 1. period type i.e. Hourly, Daily, Weekly, BiWeekly, Monthly, Yearly\n     *@param _periodId 2. period id to get start and end\n     */\n    function getPeriodStartAndEnd(PeriodType _periodType, uint256 _periodId)\n        public\n        view\n        returns (uint256 start, uint256 end)\n    {\n        start = periodDefinitions[_periodType].starts[_periodId];\n        end = periodDefinitions[_periodType].ends[_periodId];\n    }\n\n    /**\n     * @dev public function to check if a period id is valid\n     *@param _periodType 1. period type i.e. Hourly, Daily, Weekly, BiWeekly, Monthly, Yearly\n     *@param _periodId 2. period id to get start and end\n     */\n    function isValidPeriod(PeriodType _periodType, uint256 _periodId)\n        public\n        view\n        returns (bool valid)\n    {\n        PeriodDefinition memory periodDefinition =\n            periodDefinitions[_periodType];\n        require(\n            periodDefinition.initialized,\n            \"Period type not initialized yet\"\n        );\n        // check if _periodId is smaller or equal to the last periodId value\n        valid = periodDefinition.starts.length.sub(1) >= _periodId;\n    }\n\n    /**\n     * @dev public function to check if a period has finished\n     *@param _periodType 1. period type i.e. Hourly, Daily, Weekly, BiWeekly, Monthly, Yearly\n     *@param _periodId 2. period id to get start and end\n     */\n    function periodIsFinished(PeriodType _periodType, uint256 _periodId)\n        public\n        view\n        returns (bool finished)\n    {\n        PeriodDefinition memory periodDefinition =\n            periodDefinitions[_periodType];\n        require(\n            periodDefinition.initialized,\n            \"Period type not initialized yet\"\n        );\n        finished =\n            periodDefinitions[_periodType].ends[_periodId] < block.timestamp;\n    }\n}\n",
  "sourcePath": "/Users/matiasbn/Desktop/stacktical/stacktical-dsla-contracts/contracts/PeriodRegistry.sol",
  "compiler": {
    "name": "solc",
    "version": "0.6.12+commit.27d51765.Emscripten.clang"
  },
  "schemaVersion": "3.3.3",
  "updatedAt": "2021-02-14T22:24:49.892Z",
  "devdoc": {
    "details": "SLARegistry is a contract for handling creation of service level agreements and keeping track of the created agreements",
    "events": {
      "PeriodInitialized(uint8,uint256,uint256,uint256)": {
        "details": "event to log a new period initialized",
        "params": {
          "apy": "3. annual percentage yield offered for a year long SLA",
          "periodType": "1. period type i.e. Hourly, Daily, Weekly, BiWeekly, Monthly, Yearly",
          "periodsAdded": "2. amount of periods added",
          "yearlyPeriods": "4. amount of periods of the corresponding periods per year to calculate real APY"
        }
      }
    },
    "kind": "dev",
    "methods": {
      "getPeriodStartAndEnd(uint8,uint256)": {
        "details": "public function to get the start and end of a period",
        "params": {
          "_periodId": "2. period id to get start and end",
          "_periodType": "1. period type i.e. Hourly, Daily, Weekly, BiWeekly, Monthly, Yearly"
        }
      },
      "initializePeriod(uint8,uint256[],uint256[],uint256)": {
        "details": "public function for creating canonical service level agreements",
        "params": {
          "_periodEnds": "3. array of the ends of the period",
          "_periodStarts": "2. array of the starts of the period",
          "_periodType": "1. period type i.e. Hourly, Daily, Weekly, BiWeekly, Monthly, Yearly",
          "_yearlyPeriods": "5. amount of periods of the corresponding periods per year to calculate real APY"
        }
      },
      "isValidPeriod(uint8,uint256)": {
        "details": "public function to check if a period id is valid",
        "params": {
          "_periodId": "2. period id to get start and end",
          "_periodType": "1. period type i.e. Hourly, Daily, Weekly, BiWeekly, Monthly, Yearly"
        }
      },
      "owner()": {
        "details": "Returns the address of the current owner."
      },
      "periodIsFinished(uint8,uint256)": {
        "details": "public function to check if a period has finished",
        "params": {
          "_periodId": "2. period id to get start and end",
          "_periodType": "1. period type i.e. Hourly, Daily, Weekly, BiWeekly, Monthly, Yearly"
        }
      },
      "renounceOwnership()": {
        "details": "Leaves the contract without owner. It will not be possible to call `onlyOwner` functions anymore. Can only be called by the current owner. NOTE: Renouncing ownership will leave the contract without an owner, thereby removing any functionality that is only available to the owner."
      },
      "transferOwnership(address)": {
        "details": "Transfers ownership of the contract to a new account (`newOwner`). Can only be called by the current owner."
      }
    },
    "stateVariables": {
      "periodDefinitions": {
        "details": "(periodType=>PeriodDefinition) hourly/weekly/biWeekly/monthly/yearly are periodTypes"
      }
    },
    "title": "SLARegistry",
    "version": 1
  },
  "userdoc": {
    "kind": "user",
    "methods": {},
    "version": 1
  }
}