{
  "contractName": "PreCoordinator",
  "abi": [
    {
      "inputs": [
        {
          "internalType": "address",
          "name": "_link",
          "type": "address"
        }
      ],
      "stateMutability": "nonpayable",
      "type": "constructor"
    },
    {
      "anonymous": false,
      "inputs": [
        {
          "indexed": true,
          "internalType": "bytes32",
          "name": "id",
          "type": "bytes32"
        }
      ],
      "name": "ChainlinkCancelled",
      "type": "event"
    },
    {
      "anonymous": false,
      "inputs": [
        {
          "indexed": true,
          "internalType": "bytes32",
          "name": "id",
          "type": "bytes32"
        }
      ],
      "name": "ChainlinkFulfilled",
      "type": "event"
    },
    {
      "anonymous": false,
      "inputs": [
        {
          "indexed": true,
          "internalType": "bytes32",
          "name": "id",
          "type": "bytes32"
        }
      ],
      "name": "ChainlinkRequested",
      "type": "event"
    },
    {
      "anonymous": false,
      "inputs": [
        {
          "indexed": true,
          "internalType": "bytes32",
          "name": "saId",
          "type": "bytes32"
        },
        {
          "indexed": false,
          "internalType": "uint256",
          "name": "payment",
          "type": "uint256"
        },
        {
          "indexed": false,
          "internalType": "uint256",
          "name": "minresponses",
          "type": "uint256"
        }
      ],
      "name": "NewServiceAgreement",
      "type": "event"
    },
    {
      "anonymous": false,
      "inputs": [
        {
          "indexed": true,
          "internalType": "address",
          "name": "previousOwner",
          "type": "address"
        },
        {
          "indexed": true,
          "internalType": "address",
          "name": "newOwner",
          "type": "address"
        }
      ],
      "name": "OwnershipTransferred",
      "type": "event"
    },
    {
      "anonymous": false,
      "inputs": [
        {
          "indexed": true,
          "internalType": "bytes32",
          "name": "saId",
          "type": "bytes32"
        },
        {
          "indexed": true,
          "internalType": "bytes32",
          "name": "requestId",
          "type": "bytes32"
        },
        {
          "indexed": false,
          "internalType": "int256",
          "name": "answer",
          "type": "int256"
        }
      ],
      "name": "ServiceAgreementAnswerUpdated",
      "type": "event"
    },
    {
      "anonymous": false,
      "inputs": [
        {
          "indexed": true,
          "internalType": "bytes32",
          "name": "saId",
          "type": "bytes32"
        }
      ],
      "name": "ServiceAgreementDeleted",
      "type": "event"
    },
    {
      "anonymous": false,
      "inputs": [
        {
          "indexed": true,
          "internalType": "bytes32",
          "name": "saId",
          "type": "bytes32"
        },
        {
          "indexed": true,
          "internalType": "bytes32",
          "name": "requestId",
          "type": "bytes32"
        },
        {
          "indexed": false,
          "internalType": "uint256",
          "name": "payment",
          "type": "uint256"
        }
      ],
      "name": "ServiceAgreementRequested",
      "type": "event"
    },
    {
      "anonymous": false,
      "inputs": [
        {
          "indexed": true,
          "internalType": "bytes32",
          "name": "saId",
          "type": "bytes32"
        },
        {
          "indexed": true,
          "internalType": "bytes32",
          "name": "requestId",
          "type": "bytes32"
        },
        {
          "indexed": true,
          "internalType": "address",
          "name": "oracle",
          "type": "address"
        },
        {
          "indexed": false,
          "internalType": "int256",
          "name": "answer",
          "type": "int256"
        }
      ],
      "name": "ServiceAgreementResponseReceived",
      "type": "event"
    },
    {
      "inputs": [],
      "name": "isOwner",
      "outputs": [
        {
          "internalType": "bool",
          "name": "",
          "type": "bool"
        }
      ],
      "stateMutability": "view",
      "type": "function",
      "constant": true
    },
    {
      "inputs": [
        {
          "internalType": "address",
          "name": "_sender",
          "type": "address"
        },
        {
          "internalType": "uint256",
          "name": "_amount",
          "type": "uint256"
        },
        {
          "internalType": "bytes",
          "name": "_data",
          "type": "bytes"
        }
      ],
      "name": "onTokenTransfer",
      "outputs": [],
      "stateMutability": "nonpayable",
      "type": "function"
    },
    {
      "inputs": [],
      "name": "owner",
      "outputs": [
        {
          "internalType": "address",
          "name": "",
          "type": "address"
        }
      ],
      "stateMutability": "view",
      "type": "function",
      "constant": true
    },
    {
      "inputs": [
        {
          "internalType": "address",
          "name": "newOwner",
          "type": "address"
        }
      ],
      "name": "transferOwnership",
      "outputs": [],
      "stateMutability": "nonpayable",
      "type": "function"
    },
    {
      "inputs": [
        {
          "internalType": "uint256",
          "name": "_minResponses",
          "type": "uint256"
        },
        {
          "internalType": "address[]",
          "name": "_oracles",
          "type": "address[]"
        },
        {
          "internalType": "bytes32[]",
          "name": "_jobIds",
          "type": "bytes32[]"
        },
        {
          "internalType": "uint256[]",
          "name": "_payments",
          "type": "uint256[]"
        }
      ],
      "name": "createServiceAgreement",
      "outputs": [
        {
          "internalType": "bytes32",
          "name": "saId",
          "type": "bytes32"
        }
      ],
      "stateMutability": "nonpayable",
      "type": "function"
    },
    {
      "inputs": [
        {
          "internalType": "bytes32",
          "name": "_saId",
          "type": "bytes32"
        }
      ],
      "name": "getServiceAgreement",
      "outputs": [
        {
          "internalType": "uint256",
          "name": "totalPayment",
          "type": "uint256"
        },
        {
          "internalType": "uint256",
          "name": "minResponses",
          "type": "uint256"
        },
        {
          "internalType": "address[]",
          "name": "oracles",
          "type": "address[]"
        },
        {
          "internalType": "bytes32[]",
          "name": "jobIds",
          "type": "bytes32[]"
        },
        {
          "internalType": "uint256[]",
          "name": "payments",
          "type": "uint256[]"
        }
      ],
      "stateMutability": "view",
      "type": "function",
      "constant": true
    },
    {
      "inputs": [],
      "name": "getChainlinkToken",
      "outputs": [
        {
          "internalType": "address",
          "name": "",
          "type": "address"
        }
      ],
      "stateMutability": "view",
      "type": "function",
      "constant": true
    },
    {
      "inputs": [
        {
          "internalType": "address",
          "name": "_sender",
          "type": "address"
        },
        {
          "internalType": "uint256",
          "name": "_payment",
          "type": "uint256"
        },
        {
          "internalType": "bytes32",
          "name": "_saId",
          "type": "bytes32"
        },
        {
          "internalType": "address",
          "name": "_callbackAddress",
          "type": "address"
        },
        {
          "internalType": "bytes4",
          "name": "_callbackFunctionId",
          "type": "bytes4"
        },
        {
          "internalType": "uint256",
          "name": "_nonce",
          "type": "uint256"
        },
        {
          "internalType": "uint256",
          "name": "",
          "type": "uint256"
        },
        {
          "internalType": "bytes",
          "name": "_data",
          "type": "bytes"
        }
      ],
      "name": "oracleRequest",
      "outputs": [],
      "stateMutability": "nonpayable",
      "type": "function"
    },
    {
      "inputs": [
        {
          "internalType": "bytes32",
          "name": "_requestId",
          "type": "bytes32"
        },
        {
          "internalType": "int256",
          "name": "_data",
          "type": "int256"
        }
      ],
      "name": "chainlinkCallback",
      "outputs": [
        {
          "internalType": "bool",
          "name": "",
          "type": "bool"
        }
      ],
      "stateMutability": "nonpayable",
      "type": "function"
    },
    {
      "inputs": [],
      "name": "withdrawLink",
      "outputs": [],
      "stateMutability": "nonpayable",
      "type": "function"
    },
    {
      "inputs": [
        {
          "internalType": "bytes32",
          "name": "_requestId",
          "type": "bytes32"
        },
        {
          "internalType": "uint256",
          "name": "_payment",
          "type": "uint256"
        },
        {
          "internalType": "bytes4",
          "name": "_callbackFunctionId",
          "type": "bytes4"
        },
        {
          "internalType": "uint256",
          "name": "_expiration",
          "type": "uint256"
        }
      ],
      "name": "cancelOracleRequest",
      "outputs": [],
      "stateMutability": "nonpayable",
      "type": "function"
    }
  ],
  "bytecode": "0x608060405260016004553480156200001657600080fd5b5060405162002e8338038062002e83833981810160405260208110156200003c57600080fd5b5051600680546001600160a01b0319163317908190556040516001600160a01b0391909116906000907f8be0079c531659141344cd1fd0a4f28419497f9722a3daafe3b4186f6b6457e0908290a36001600160a01b038116620000b257620000ac6001600160e01b03620000cd16565b620000c6565b620000c6816001600160e01b036200015e16565b5062000180565b6200015c73c89bd4e1632d3a43cb03aaad5262cbe4038bc5716001600160a01b03166338cc48316040518163ffffffff1660e01b815260040160206040518083038186803b1580156200011f57600080fd5b505afa15801562000134573d6000803e3d6000fd5b505050506040513d60208110156200014b57600080fd5b50516001600160e01b036200015e16565b565b600280546001600160a01b0319166001600160a01b0392909216919091179055565b612cf380620001906000396000f3fe608060405234801561001057600080fd5b50600436106100a95760003560e01c80638da5cb5b116100715780638da5cb5b1461031a5780638dc654a2146103225780638f32d59b1461032a578063a4c0ed3614610332578063af52c981146103eb578063f2fde38b146104f4576100a9565b8063165d35e1146100ae57806340429946146100d25780636a9705b4146101835780636ee4d553146101ba578063834b55e0146101f3575b600080fd5b6100b661051a565b604080516001600160a01b039092168252519081900360200190f35b61018160048036036101008110156100e957600080fd5b6001600160a01b038235811692602081013592604082013592606083013516916001600160e01b03196080820135169160a08201359160c081013591810190610100810160e0820135600160201b81111561014357600080fd5b82018360208201111561015557600080fd5b803590602001918460018302840111600160201b8311171561017657600080fd5b50909250905061052a565b005b6101a66004803603604081101561019957600080fd5b50803590602001356108af565b604080519115158252519081900360200190f35b610181600480360360808110156101d057600080fd5b508035906020810135906001600160e01b03196040820135169060600135610d71565b6103086004803603608081101561020957600080fd5b81359190810190604081016020820135600160201b81111561022a57600080fd5b82018360208201111561023c57600080fd5b803590602001918460208302840111600160201b8311171561025d57600080fd5b919390929091602081019035600160201b81111561027a57600080fd5b82018360208201111561028c57600080fd5b803590602001918460208302840111600160201b831117156102ad57600080fd5b919390929091602081019035600160201b8111156102ca57600080fd5b8201836020820111156102dc57600080fd5b803590602001918460208302840111600160201b831117156102fd57600080fd5b509092509050610fdd565b60408051918252519081900360200190f35b6100b6611307565b610181611316565b6101a66114bc565b6101816004803603606081101561034857600080fd5b6001600160a01b0382351691602081013591810190606081016040820135600160201b81111561037757600080fd5b82018360208201111561038957600080fd5b803590602001918460018302840111600160201b831117156103aa57600080fd5b91908080601f0160208091040260200160405190810160405280939291908181526020018383808284376000920191909152509295506114cd945050505050565b6104086004803603602081101561040157600080fd5b50356116ec565b60405180868152602001858152602001806020018060200180602001848103845287818151815260200191508051906020019060200280838360005b8381101561045c578181015183820152602001610444565b50505050905001848103835286818151815260200191508051906020019060200280838360005b8381101561049b578181015183820152602001610483565b50505050905001848103825285818151815260200191508051906020019060200280838360005b838110156104da5781810151838201526020016104c2565b505050509050019850505050505050505060405180910390f35b6101816004803603602081101561050a57600080fd5b50356001600160a01b031661182b565b600061052461188d565b90505b90565b61053261051a565b6001600160a01b0316336001600160a01b03161461058d576040805162461bcd60e51b815260206004820152601360248201527226bab9ba103ab9b2902624a725903a37b5b2b760691b604482015290519081900360640190fd5b8561059661188d565b6001600160a01b0316816001600160a01b031614156105f6576040805162461bcd60e51b815260206004820152601760248201527643616e6e6f742063616c6c6261636b20746f204c494e4b60481b604482015290519081900360640190fd5b600088815260086020526040902054808a1015610651576040805162461bcd60e51b8152602060048201526014602482015273125b9cdd59999a58da595b9d081c185e5b595b9d60621b604482015290519081900360640190fd5b604080516bffffffffffffffffffffffff1960608e901b1660208083019190915260348083018a905283518084039091018152605490920183528151918101919091206000818152600a90925291902054600160201b90046001600160a01b0316156106fb576040805162461bcd60e51b81526020600482015260146024820152734e6f6e636520616c726561647920696e2d75736560601b604482015290519081900360640190fd5b87600a600083815260200190815260200160002060000160006101000a81548163ffffffff021916908360e01c021790555088600a600083815260200190815260200160002060010160006101000a8154816001600160a01b0302191690836001600160a01b031602179055508b600a600083815260200190815260200160002060000160046101000a8154816001600160a01b0302191690836001600160a01b031602179055506107e48a8287878080601f01602080910402602001604051908101604052809392919081815260200183838082843760009201919091525061189c92505050565b818b11156108a15760006107fe8c8463ffffffff611b2016565b9050600061080a61188d565b9050806001600160a01b031663a9059cbb8f846040518363ffffffff1660e01b815260040180836001600160a01b03166001600160a01b0316815260200182815260200192505050602060405180830381600087803b15801561086c57600080fd5b505af1158015610880573d6000803e3d6000fd5b505050506040513d602081101561089657600080fd5b505161089e57fe5b50505b505050505050505050505050565b60008281526005602052604081205483906001600160a01b031633146109065760405162461bcd60e51b8152600401808060200182810382526028815260200180612c966028913960400191505060405180910390fd5b60008181526005602052604080822080546001600160a01b03191690555182917f7cc135e0cebb02c3480ae5d74d377283180a2601f8f644edf7987b009316c63a91a2610951612a7f565b60008581526009602090815260408083205483526008825291829020825160a08101845281548152600182015481840152600282018054855181860281018601875281815292959394938601938301828280156109d757602002820191906000526020600020905b81546001600160a01b031681526001909101906020018083116109b9575b5050505050815260200160038201805480602002602001604051908101604052809291908181526020018280548015610a2f57602002820191906000526020600020905b815481526020019060010190808311610a1b575b5050505050815260200160048201805480602002602001604051908101604052809291908181526020018280548015610a8757602002820191906000526020600020905b815481526020019060010190808311610a73575b505050919092525050506000868152600b60209081526040808320805460098452828520805492869055949094558151898152915194955092933392859285927f6bd4bffa5426494ba16814dba4b1994c92f88f7664ad231cf8aa811fff6e925e929181900390910190a46000828152600a6020908152604082206002018054600181018255908352912001869055610b1e612aae565b6000838152600a6020908152604091829020825160808101845281546001600160e01b031960e082901b1682526001600160a01b03600160201b909104811682850152600183015416818501526002820180548551818602810186019096528086529194929360608601939290830182828015610bba57602002820191906000526020600020905b815481526020019060010190808311610ba6575b50505050508152505090508360400151518160600151511415610c16576000838152600a6020526040812080546001600160c01b03191681556001810180546001600160a01b031916905590610c136002830182612ad4565b50505b60208401516060820151516001911415610d65576000610c398360600151611b82565b905084847fe991444bc589ce1a82e7cbe4e5ebaa8aaa2a5c44964bd32d2af07dd846a638ba836040518082815260200191505060405180910390a36040808401518451825160248101899052604480820186905284518083039091018152606490910184526020810180516001600160e01b03166001600160e01b0319909316929092178252925183516001600160a01b039093169392909182918083835b60208310610cf75780518252601f199092019160209182019101610cd8565b6001836020036101000a0380198251168184511680821785525050505050509050019150506000604051808303816000865af19150503d8060008114610d59576040519150601f19603f3d011682016040523d82523d6000602084013e610d5e565b606091505b5090925050505b98975050505050505050565b6000848152600b602090815260408083208054908490556009909252822091909155610d9b612aae565b6000828152600a6020908152604091829020825160808101845281546001600160e01b031960e082901b1682526001600160a01b03600160201b909104811682850152600183015416818501526002820180548551818602810186019096528086529194929360608601939290830182828015610e3757602002820191906000526020600020905b815481526020019060010190808311610e23575b5050505050815250509050336001600160a01b031681602001516001600160a01b031614610ea8576040805162461bcd60e51b815260206004820152601960248201527813db9b1e481c995c5d595cdd195c8818d85b8818d85b98d95b603a1b604482015290519081900360640190fd5b6000828152600a6020526040812080546001600160c01b03191681556001810180546001600160a01b031916905590610ee46002830182612ad4565b5050610ef286868686611b9d565b6000610efc61188d565b9050806001600160a01b031663a9059cbb8360200151886040518363ffffffff1660e01b815260040180836001600160a01b03166001600160a01b0316815260200182815260200192505050602060405180830381600087803b158015610f6257600080fd5b505af1158015610f76573d6000803e3d6000fd5b505050506040513d6020811015610f8c57600080fd5b5051610fd4576040805162461bcd60e51b81526020600482015260126024820152712ab730b13632903a37903a3930b739b332b960711b604482015290519081900360640190fd5b50505050505050565b600080881161102f576040805162461bcd60e51b815260206004820152601960248201527804d696e20726573706f6e736573206d757374206265203e203603c1b604482015290519081900360640190fd5b858414801561103d57508582145b61107d576040805162461bcd60e51b815260206004820152600c60248201526b0aadcdacae840d8cadccee8d60a31b604482015290519081900360640190fd5b602d8611156110d3576040805162461bcd60e51b815260206004820181905260248201527f43616e6e6f742068617665206d6f7265207468616e203435206f7261636c6573604482015290519081900360640190fd5b87861015611120576040805162461bcd60e51b8152602060048201526015602482015274496e76616c6964206d696e20726573706f6e73657360581b604482015290519081900360640190fd5b6000805b8381101561115b5761115185858381811061113b57fe5b9050602002013583611c7590919063ffffffff16565b9150600101611124565b5060078054604080516020808201849052428284015282518083038401815260608301808552815191830191909120600190950190955561010082018352858552608082018e905282518c820281810183019094528c815293965060a090910192918c918c91829185019084908082843760009201919091525050509082525060408051602089810282810182019093528982529283019290918a918a9182918501908490808284376000920191909152505050908252506040805160208781028281018201909352878252928301929091889188918291850190849080828437600092018290525093909452505084815260086020908152604091829020845181558482015160018201559184015180519293506112839260028501929190910190612af2565b506060820151805161129f916003840191602090910190612b57565b50608082015180516112bb916004840191602090910190612b57565b505060408051838152602081018c905281518593507f1df950b8dca286fff2ebb83642851b5a9db00ff4bc87815828e845b45d183eaf929181900390910190a250979650505050505050565b6006546001600160a01b031690565b61131e6114bc565b61136f576040805162461bcd60e51b815260206004820181905260248201527f4f776e61626c653a2063616c6c6572206973206e6f7420746865206f776e6572604482015290519081900360640190fd5b600061137961188d565b604080516370a0823160e01b815230600482015290519192506001600160a01b0383169163a9059cbb91339184916370a08231916024808301926020929190829003018186803b1580156113cc57600080fd5b505afa1580156113e0573d6000803e3d6000fd5b505050506040513d60208110156113f657600080fd5b5051604080516001600160e01b031960e086901b1681526001600160a01b03909316600484015260248301919091525160448083019260209291908290030181600087803b15801561144757600080fd5b505af115801561145b573d6000803e3d6000fd5b505050506040513d602081101561147157600080fd5b50516114b9576040805162461bcd60e51b81526020600482015260126024820152712ab730b13632903a37903a3930b739b332b960711b604482015290519081900360640190fd5b50565b6006546001600160a01b0316331490565b6114d561051a565b6001600160a01b0316336001600160a01b031614611530576040805162461bcd60e51b815260206004820152601360248201527226bab9ba103ab9b2902624a725903a37b5b2b760691b604482015290519081900360640190fd5b8051819060441115611582576040805162461bcd60e51b8152602060048201526016602482015275092dcecc2d8d2c840e4cae2eacae6e840d8cadccee8d60531b604482015290519081900360640190fd5b602082015182906001600160e01b031981166320214ca360e11b146115ee576040805162461bcd60e51b815260206004820152601e60248201527f4d757374207573652077686974656c69737465642066756e6374696f6e730000604482015290519081900360640190fd5b8560248501528460448501526000306001600160a01b0316856040518082805190602001908083835b602083106116365780518252601f199092019160209182019101611617565b6001836020036101000a038019825116818451168082178552505050505050905001915050600060405180830381855af49150503d8060008114611696576040519150601f19603f3d011682016040523d82523d6000602084013e61169b565b606091505b5050905080610fd4576040805162461bcd60e51b8152602060048201526018602482015277155b98589b19481d1bc818dc99585d19481c995c5d595cdd60421b604482015290519081900360640190fd5b60008181526008602090815260408083208054600182015460028301805485518188028101880190965280865287966060968796879695949360038201936004909201929185919083018282801561176d57602002820191906000526020600020905b81546001600160a01b0316815260019091019060200180831161174f575b50505050509250818054806020026020016040519081016040528092919081815260200182805480156117bf57602002820191906000526020600020905b8154815260200190600101908083116117ab575b505050505091508080548060200260200160405190810160405280929190818152602001828054801561181157602002820191906000526020600020905b8154815260200190600101908083116117fd575b505050505090509450945094509450945091939590929450565b6118336114bc565b611884576040805162461bcd60e51b815260206004820181905260248201527f4f776e61626c653a2063616c6c6572206973206e6f7420746865206f776e6572604482015290519081900360640190fd5b6114b981611cd6565b6002546001600160a01b031690565b6118a4612a7f565b600084815260086020908152604091829020825160a081018452815481526001820154818401526002820180548551818602810186018752818152929593949386019383018282801561192057602002820191906000526020600020905b81546001600160a01b03168152600190910190602001808311611902575b505050505081526020016003820180548060200260200160405190810160405280929190818152602001828054801561197857602002820191906000526020600020905b815481526020019060010190808311611964575b50505050508152602001600482018054806020026020016040519081016040528092919081815260200182805480156119d057602002820191906000526020600020905b8154815260200190600101908083116119bc575b50505050508152505090506000816020015111611a30576040805162461bcd60e51b8152602060048201526019602482015278125b9d985b1a59081cd95c9d9a58d9481859dc99595b595b9d603a1b604482015290519081900360640190fd5b611a38612b9e565b81516040805191825251600091869188917f0d3e7811af83862cbc3778c66d787596cdb580e0dbc448d99f21c865770a8432919081900360200190a360005b836040015151811015610fd457611aad84606001518281518110611a9757fe5b602002602001015130636a9705b460e01b611d77565b9250611abf838663ffffffff611da216565b611af884604001518281518110611ad257fe5b60200260200101518486608001518481518110611aeb57fe5b6020026020010151611dc5565b6000818152600b602090815260408083208a9055600990915290208890559150600101611a77565b600082821115611b77576040805162461bcd60e51b815260206004820152601e60248201527f536166654d6174683a207375627472616374696f6e206f766572666c6f770000604482015290519081900360640190fd5b508082035b92915050565b6000611b95611b9083611f9c565b61202a565b90505b919050565b60008481526005602052604080822080546001600160a01b0319811690915590516001600160a01b039091169186917fe1fe3afa0f7f761ff0a8b89086790efd5140d2907ebd5b7ff6bfcb5e075fd4c59190a260408051636ee4d55360e01b815260048101879052602481018690526001600160e01b0319851660448201526064810184905290516001600160a01b03831691636ee4d55391608480830192600092919082900301818387803b158015611c5657600080fd5b505af1158015611c6a573d6000803e3d6000fd5b505050505050505050565b600082820183811015611ccf576040805162461bcd60e51b815260206004820152601b60248201527f536166654d6174683a206164646974696f6e206f766572666c6f770000000000604482015290519081900360640190fd5b9392505050565b6001600160a01b038116611d1b5760405162461bcd60e51b8152600401808060200182810382526026815260200180612c2c6026913960400191505060405180910390fd5b6006546040516001600160a01b038084169216907f8be0079c531659141344cd1fd0a4f28419497f9722a3daafe3b4186f6b6457e090600090a3600680546001600160a01b0319166001600160a01b0392909216919091179055565b611d7f612b9e565b611d87612b9e565b611d998186868663ffffffff6120d316565b95945050505050565b611db182608001518251612119565b50611dc0826080015182612153565b505050565b6004546040805130606090811b60208084019190915260348084018690528451808503909101815260549093018452825192810192909220908601939093526000838152600590915281812080546001600160a01b0319166001600160a01b038816179055905182917fb5e6e01e79f91267dc17b4e6314d5d4d03593d2ceee0fbb452b750bd70ea5af991a26002546001600160a01b0316634000aea08584611e6d8761216d565b6040518463ffffffff1660e01b815260040180846001600160a01b03166001600160a01b0316815260200183815260200180602001828103825283818151815260200191508051906020019080838360005b83811015611ed7578181015183820152602001611ebf565b50505050905090810190601f168015611f045780820380516001836020036101000a031916815260200191505b50945050505050602060405180830381600087803b158015611f2557600080fd5b505af1158015611f39573d6000803e3d6000fd5b505050506040513d6020811015611f4f57600080fd5b5051611f8c5760405162461bcd60e51b8152600401808060200182810382526023815260200180612c526023913960400191505060405180910390fd5b6004805460010190559392505050565b606080825167ffffffffffffffff81118015611fb757600080fd5b50604051908082528060200260200182016040528015611fe1578160200160208202803683370190505b50905060005b835181101561202357838181518110611ffc57fe5b602002602001015182828151811061201057fe5b6020908102919091010152600101611fe7565b5092915050565b6000815160001061207b576040805162461bcd60e51b81526020600482015260166024820152756c697374206d757374206e6f7420626520656d70747960501b604482015290519081900360640190fd5b815160028104600182166120ba576000806120a08660006001870360018703876122ad565b90925090506120af828261238b565b945050505050611b98565b6120ca84600060018503846123f9565b92505050611b98565b6120db612b9e565b6120eb8560800151610100612119565b50508284526001600160a01b03821660208501526001600160e01b031981166040850152835b949350505050565b612121612bd3565b60208206156121365760208206602003820191505b506020828101829052604080518085526000815290920101905290565b61215b612bd3565b611ccf8384600001515184855161248a565b6060634042994660e01b6000808460000151856020015186604001518760600151600189608001516000015160405160240180896001600160a01b03166001600160a01b03168152602001888152602001878152602001866001600160a01b03166001600160a01b03168152602001856001600160e01b0319166001600160e01b031916815260200184815260200183815260200180602001828103825283818151815260200191508051906020019080838360005b8381101561223b578181015183820152602001612223565b50505050905090810190601f1680156122685780820380516001836020036101000a031916815260200191505b5060408051601f198184030181529190526020810180516001600160e01b03166001600160e01b0319909d169c909c17909b5250989950505050505050505050919050565b6000808284106122bc57600080fd5b8386111580156122cc5750848411155b6122d557600080fd5b8286111580156122e55750848311155b6122ee57600080fd5b6007868603101561230f576123068787878787612536565b91509150612381565b600061231c888888612909565b905080841161232d5780955061237b565b848110156123405780600101965061237b565b80851115801561234f57508381105b61235557fe5b612361888883886123f9565b9250612372888260010188876123f9565b91506123819050565b506122ee565b9550959350505050565b6000808312801561239c5750600082135b806123b257506000831380156123b25750600082125b156123d25760026123c384846129e6565b816123ca57fe5b059050611b7c565b60006002808507818507010590506121116123f360028605600286056129e6565b826129e6565b60008184111561240857600080fd5b8282111561241557600080fd5b8284101561246c57600784840310156124415760006124378686868687612536565b5091506121119050565b600061244e868686612909565b905080831161245f57809350612466565b8060010194505b50612415565b84848151811061247857fe5b60200260200101519050949350505050565b612492612bd3565b82518211156124a057600080fd5b846020015182850111156124ca576124ca856124c28760200151878601612a4b565b600202612a62565b6000808651805187602083010193508088870111156124e95787860182525b505050602084015b602084106125105780518252601f1990930192602091820191016124f1565b51815160001960208690036101000a019081169019919091161790525083949350505050565b60008060008686600101039050600088886000018151811061255457fe5b60200260200101519050600082600110612575576001600160ff1b0361258d565b89896001018151811061258457fe5b60200260200101515b90506000836002106125a6576001600160ff1b036125be565b8a8a600201815181106125b557fe5b60200260200101515b90506000846003106125d7576001600160ff1b036125ef565b8b8b600301815181106125e657fe5b60200260200101515b9050600085600410612608576001600160ff1b03612620565b8c8c6004018151811061261757fe5b60200260200101515b9050600086600510612639576001600160ff1b03612651565b8d8d6005018151811061264857fe5b60200260200101515b905060008760061061266a576001600160ff1b03612682565b8e8e6006018151811061267957fe5b60200260200101515b905085871315612690579495945b8385131561269c579293925b818313156126a8579091905b848713156126b4579395935b838613156126c0579294925b808313156126ca57915b848613156126d6579394935b808213156126e057905b828713156126ec579195915b818613156126f8579094905b8085131561270257935b8286131561270e579194915b8084131561271857925b82851315612724579193915b81841315612730579092905b8284131561273c579192915b8d8c038061274c57879a506127f2565b806001141561275d57869a506127f2565b806002141561276e57859a506127f2565b806003141561277f57849a506127f2565b806004141561279057839a506127f2565b80600514156127a157829a506127f2565b80600614156127b257819a506127f2565b6040805162461bcd60e51b815260206004820152601060248201526f6b31206f7574206f6620626f756e647360801b604482015290519081900360640190fd5b8e8c038d8d141561281057508a995061238198505050505050505050565b806128275750969850612381975050505050505050565b80600114156128425750959850612381975050505050505050565b806002141561285d5750949850612381975050505050505050565b80600314156128785750939850612381975050505050505050565b80600414156128935750929850612381975050505050505050565b80600514156128ae5750919850612381975050505050505050565b80600614156128c95750909850612381975050505050505050565b6040805162461bcd60e51b815260206004820152601060248201526f6b32206f7574206f6620626f756e647360801b604482015290519081900360640190fd5b600080846002858501048151811061291d57fe5b602002602001015190506001840393506001830192505b6001840193508085858151811061294757fe5b602002602001015112612934575b6001830392508085848151811061296857fe5b60200260200101511361295557828410156129d85784838151811061298957fe5b602002602001015185858151811061299d57fe5b60200260200101518686815181106129b157fe5b602002602001018786815181106129c457fe5b6020908102919091010191909152526129e1565b82915050611ccf565b612934565b60008282018183128015906129fb5750838112155b80612a105750600083128015612a1057508381125b611ccf5760405162461bcd60e51b8152600401808060200182810382526021815260200180612c756021913960400191505060405180910390fd5b600081831115612a5c575081611b7c565b50919050565b8151612a6e8383612119565b50612a798382612153565b50505050565b6040518060a0016040528060008152602001600081526020016060815260200160608152602001606081525090565b604080516080810182526000808252602082018190529181019190915260608082015290565b50805460008255906000526020600020908101906114b99190612bed565b828054828255906000526020600020908101928215612b47579160200282015b82811115612b4757825182546001600160a01b0319166001600160a01b03909116178255602090920191600190910190612b12565b50612b53929150612c07565b5090565b828054828255906000526020600020908101928215612b92579160200282015b82811115612b92578251825591602001919060010190612b77565b50612b53929150612bed565b6040805160a081018252600080825260208201819052918101829052606081019190915260808101612bce612bd3565b905290565b604051806040016040528060608152602001600081525090565b61052791905b80821115612b535760008155600101612bf3565b61052791905b80821115612b535780546001600160a01b0319168155600101612c0d56fe4f776e61626c653a206e6577206f776e657220697320746865207a65726f2061646472657373756e61626c6520746f207472616e73666572416e6443616c6c20746f206f7261636c655369676e6564536166654d6174683a206164646974696f6e206f766572666c6f77536f75726365206d75737420626520746865206f7261636c65206f66207468652072657175657374a2646970667358221220cab7d9c289588210c570f3b88eddabacde0c37e88f68837e62a73abd369936d964736f6c63430006060033",
  "immutableReferences": {},
  "source": "pragma solidity 0.6.6;\n\nimport \"./ChainlinkClient.sol\";\nimport \"./LinkTokenReceiver.sol\";\nimport \"./Median.sol\";\nimport \"./vendor/Ownable.sol\";\nimport \"./vendor/SafeMathChainlink.sol\";\n\n/**\n * @title PreCoordinator is a contract that builds on-chain service agreements\n * using the current architecture of 1 request to 1 oracle contract.\n * @dev This contract accepts requests as service agreement IDs and loops over\n * the corresponding list of oracles to create distinct requests to each one.\n */\ncontract PreCoordinator is ChainlinkClient, Ownable, ChainlinkRequestInterface, LinkTokenReceiver {\n  using SafeMathChainlink for uint256;\n\n  uint256 constant private MAX_ORACLE_COUNT = 45;\n\n  uint256 private globalNonce;\n\n  struct ServiceAgreement {\n    uint256 totalPayment;\n    uint256 minResponses;\n    address[] oracles;\n    bytes32[] jobIds;\n    uint256[] payments;\n  }\n\n  struct Requester {\n    bytes4 callbackFunctionId;\n    address sender;\n    address callbackAddress;\n    int256[] responses;\n  }\n\n  // Service Agreement ID => ServiceAgreement\n  mapping(bytes32 => ServiceAgreement) internal serviceAgreements;\n  // Local Request ID => Service Agreement ID\n  mapping(bytes32 => bytes32) internal serviceAgreementRequests;\n  // Requester's Request ID => Requester\n  mapping(bytes32 => Requester) internal requesters;\n  // Local Request ID => Requester's Request ID\n  mapping(bytes32 => bytes32) internal requests;\n\n  event NewServiceAgreement(bytes32 indexed saId, uint256 payment, uint256 minresponses);\n  event ServiceAgreementRequested(bytes32 indexed saId, bytes32 indexed requestId, uint256 payment);\n  event ServiceAgreementResponseReceived(bytes32 indexed saId, bytes32 indexed requestId, address indexed oracle, int256 answer);\n  event ServiceAgreementAnswerUpdated(bytes32 indexed saId, bytes32 indexed requestId, int256 answer);\n  event ServiceAgreementDeleted(bytes32 indexed saId);\n\n  /**\n   * @notice Deploy the contract with a specified address for the LINK\n   * and Oracle contract addresses\n   * @dev Sets the storage for the specified addresses\n   * @param _link The address of the LINK token contract\n   */\n  constructor(address _link) public {\n    if(_link == address(0)) {\n      setPublicChainlinkToken();\n    } else {\n      setChainlinkToken(_link);\n    }\n  }\n\n  /**\n   * @notice Allows the owner of the contract to create new service agreements\n   * with multiple oracles. Each oracle will have their own Job ID and can have\n   * their own payment amount.\n   * @dev The globalNonce keeps service agreement IDs unique. Assume one cannot\n   * create the max uint256 number of service agreements in the same block.\n   * @param _minResponses The minimum number of responses before the requesting\n   * contract is called with the response data.\n   * @param _oracles The list of oracle contract addresses.\n   * @param _jobIds The corresponding list of Job IDs.\n   * @param _payments The corresponding list of payment amounts.\n   */\n  function createServiceAgreement(\n    uint256 _minResponses,\n    address[] calldata _oracles,\n    bytes32[] calldata _jobIds,\n    uint256[] calldata _payments\n  )\n    external returns (bytes32 saId)\n  {\n    require(_minResponses > 0, \"Min responses must be > 0\");\n    require(_oracles.length == _jobIds.length && _oracles.length == _payments.length, \"Unmet length\");\n    require(_oracles.length <= MAX_ORACLE_COUNT, \"Cannot have more than 45 oracles\");\n    require(_oracles.length >= _minResponses, \"Invalid min responses\");\n    uint256 totalPayment;\n    for (uint i = 0; i < _payments.length; i++) {\n      totalPayment = totalPayment.add(_payments[i]);\n    }\n    saId = keccak256(abi.encodePacked(globalNonce, now));\n    globalNonce++; // yes, let it overflow\n    serviceAgreements[saId] = ServiceAgreement(totalPayment, _minResponses, _oracles, _jobIds, _payments);\n\n    emit NewServiceAgreement(saId, totalPayment, _minResponses);\n  }\n\n  /**\n   * @notice This is a helper function to retrieve the details of a service agreement\n   * by its given service agreement ID.\n   * @dev This function is used instead of the public mapping to return the values\n   * of the arrays: oracles, jobIds, and payments.\n   */\n  function getServiceAgreement(bytes32 _saId)\n    external view returns\n  (\n    uint256 totalPayment,\n    uint256 minResponses,\n    address[] memory oracles,\n    bytes32[] memory jobIds,\n    uint256[] memory payments\n  )\n  {\n    return\n    (\n      serviceAgreements[_saId].totalPayment,\n      serviceAgreements[_saId].minResponses,\n      serviceAgreements[_saId].oracles,\n      serviceAgreements[_saId].jobIds,\n      serviceAgreements[_saId].payments\n    );\n  }\n\n  /**\n   * @notice Returns the address of the LINK token\n   * @dev This is the public implementation for chainlinkTokenAddress, which is\n   * an internal method of the ChainlinkClient contract\n   */\n  function getChainlinkToken() public view override returns (address) {\n    return chainlinkTokenAddress();\n  }\n\n  /**\n   * @notice Creates the Chainlink request\n   * @dev Stores the hash of the params as the on-chain commitment for the request.\n   * Emits OracleRequest event for the Chainlink node to detect.\n   * @param _sender The sender of the request\n   * @param _payment The amount of payment given (specified in wei)\n   * @param _saId The Job Specification ID\n   * @param _callbackAddress The callback address for the response\n   * @param _callbackFunctionId The callback function ID for the response\n   * @param _nonce The nonce sent by the requester\n   * @param _data The CBOR payload of the request\n   */\n  function oracleRequest(\n    address _sender,\n    uint256 _payment,\n    bytes32 _saId,\n    address _callbackAddress,\n    bytes4 _callbackFunctionId,\n    uint256 _nonce,\n    uint256,\n    bytes calldata _data\n  )\n    external\n    onlyLINK\n    override\n    checkCallbackAddress(_callbackAddress)\n  {\n    uint256 totalPayment = serviceAgreements[_saId].totalPayment;\n    // this revert message does not bubble up\n    require(_payment >= totalPayment, \"Insufficient payment\");\n    bytes32 callbackRequestId = keccak256(abi.encodePacked(_sender, _nonce));\n    require(requesters[callbackRequestId].sender == address(0), \"Nonce already in-use\");\n    requesters[callbackRequestId].callbackFunctionId = _callbackFunctionId;\n    requesters[callbackRequestId].callbackAddress = _callbackAddress;\n    requesters[callbackRequestId].sender = _sender;\n    createRequests(_saId, callbackRequestId, _data);\n    if (_payment > totalPayment) {\n      uint256 overage = _payment.sub(totalPayment);\n      LinkTokenInterface _link = LinkTokenInterface(chainlinkTokenAddress());\n      assert(_link.transfer(_sender, overage));\n    }\n  }\n\n  /**\n   * @dev Creates Chainlink requests to each oracle in the service agreement with the\n   * same data payload supplied by the requester\n   * @param _saId The service agreement ID\n   * @param _incomingRequestId The requester-supplied request ID\n   * @param _data The data payload (request parameters) to send to each oracle\n   */\n  function createRequests(bytes32 _saId, bytes32 _incomingRequestId, bytes memory _data) private {\n    ServiceAgreement memory sa = serviceAgreements[_saId];\n    require(sa.minResponses > 0, \"Invalid service agreement\");\n    Chainlink.Request memory request;\n    bytes32 outgoingRequestId;\n    emit ServiceAgreementRequested(_saId, _incomingRequestId, sa.totalPayment);\n    for (uint i = 0; i < sa.oracles.length; i++) {\n      request = buildChainlinkRequest(sa.jobIds[i], address(this), this.chainlinkCallback.selector);\n      request.setBuffer(_data);\n      outgoingRequestId = sendChainlinkRequestTo(sa.oracles[i], request, sa.payments[i]);\n      requests[outgoingRequestId] = _incomingRequestId;\n      serviceAgreementRequests[outgoingRequestId] = _saId;\n    }\n  }\n\n  /**\n   * @notice The fulfill method from requests created by this contract\n   * @dev The recordChainlinkFulfillment protects this function from being called\n   * by anyone other than the oracle address that the request was sent to\n   * @param _requestId The ID that was generated for the request\n   * @param _data The answer provided by the oracle\n   */\n  function chainlinkCallback(bytes32 _requestId, int256 _data)\n    external\n    recordChainlinkFulfillment(_requestId)\n    returns (bool)\n  {\n    ServiceAgreement memory sa = serviceAgreements[serviceAgreementRequests[_requestId]];\n    bytes32 cbRequestId = requests[_requestId];\n    bytes32 saId = serviceAgreementRequests[_requestId];\n    delete requests[_requestId];\n    delete serviceAgreementRequests[_requestId];\n    emit ServiceAgreementResponseReceived(saId, cbRequestId, msg.sender, _data);\n    requesters[cbRequestId].responses.push(_data);\n    Requester memory req = requesters[cbRequestId];\n    if (req.responses.length == sa.oracles.length) delete requesters[cbRequestId];\n    bool success = true;\n    if (req.responses.length == sa.minResponses) {\n      int256 result = Median.calculate(req.responses);\n      emit ServiceAgreementAnswerUpdated(saId, cbRequestId, result);\n      // solhint-disable-next-line avoid-low-level-calls\n      (success, ) = req.callbackAddress.call(abi.encodeWithSelector(req.callbackFunctionId, cbRequestId, result));\n    }\n    return success;\n  }\n\n  /**\n   * @notice Allows the owner to withdraw any LINK balance on the contract\n   * @dev The only valid case for there to be remaining LINK on this contract\n   * is if a user accidentally sent LINK directly to this contract's address.\n   */\n  function withdrawLink() external onlyOwner {\n    LinkTokenInterface _link = LinkTokenInterface(chainlinkTokenAddress());\n    require(_link.transfer(msg.sender, _link.balanceOf(address(this))), \"Unable to transfer\");\n  }\n\n  /**\n   * @notice Call this method if no response is received within 5 minutes\n   * @param _requestId The ID that was generated for the request to cancel\n   * @param _payment The payment specified for the request to cancel\n   * @param _callbackFunctionId The bytes4 callback function ID specified for\n   * the request to cancel\n   * @param _expiration The expiration generated for the request to cancel\n   */\n  function cancelOracleRequest(\n    bytes32 _requestId,\n    uint256 _payment,\n    bytes4 _callbackFunctionId,\n    uint256 _expiration\n  )\n    external\n    override\n  {\n    bytes32 cbRequestId = requests[_requestId];\n    delete requests[_requestId];\n    delete serviceAgreementRequests[_requestId];\n    Requester memory req = requesters[cbRequestId];\n    require(req.sender == msg.sender, \"Only requester can cancel\");\n    delete requesters[cbRequestId];\n    cancelChainlinkRequest(_requestId, _payment, _callbackFunctionId, _expiration);\n    LinkTokenInterface _link = LinkTokenInterface(chainlinkTokenAddress());\n    require(_link.transfer(req.sender, _payment), \"Unable to transfer\");\n  }\n\n  /**\n   * @dev Reverts if the callback address is the LINK token\n   * @param _to The callback address\n   */\n  modifier checkCallbackAddress(address _to) {\n    require(_to != chainlinkTokenAddress(), \"Cannot callback to LINK\");\n    _;\n  }\n}\n",
  "sourcePath": "@chainlink/contracts/src/v0.6/PreCoordinator.sol",
  "compiler": {
    "name": "solc",
    "version": "0.6.6+commit.6c089d02.Emscripten.clang"
  },
  "schemaVersion": "3.3.1",
  "updatedAt": "2021-04-02T14:22:44.194Z",
  "networkType": "ethereum",
  "devdoc": {
    "details": "This contract accepts requests as service agreement IDs and loops over the corresponding list of oracles to create distinct requests to each one.",
    "methods": {
      "cancelOracleRequest(bytes32,uint256,bytes4,uint256)": {
        "params": {
          "_callbackFunctionId": "The bytes4 callback function ID specified for the request to cancel",
          "_expiration": "The expiration generated for the request to cancel",
          "_payment": "The payment specified for the request to cancel",
          "_requestId": "The ID that was generated for the request to cancel"
        }
      },
      "chainlinkCallback(bytes32,int256)": {
        "details": "The recordChainlinkFulfillment protects this function from being called by anyone other than the oracle address that the request was sent to",
        "params": {
          "_data": "The answer provided by the oracle",
          "_requestId": "The ID that was generated for the request"
        }
      },
      "constructor": {
        "details": "Sets the storage for the specified addresses",
        "params": {
          "_link": "The address of the LINK token contract"
        }
      },
      "createServiceAgreement(uint256,address[],bytes32[],uint256[])": {
        "details": "The globalNonce keeps service agreement IDs unique. Assume one cannot create the max uint256 number of service agreements in the same block.",
        "params": {
          "_jobIds": "The corresponding list of Job IDs.",
          "_minResponses": "The minimum number of responses before the requesting contract is called with the response data.",
          "_oracles": "The list of oracle contract addresses.",
          "_payments": "The corresponding list of payment amounts."
        }
      },
      "getChainlinkToken()": {
        "details": "This is the public implementation for chainlinkTokenAddress, which is an internal method of the ChainlinkClient contract"
      },
      "getServiceAgreement(bytes32)": {
        "details": "This function is used instead of the public mapping to return the values of the arrays: oracles, jobIds, and payments."
      },
      "isOwner()": {
        "details": "Returns true if the caller is the current owner."
      },
      "onTokenTransfer(address,uint256,bytes)": {
        "details": "The data payload's first 2 words will be overwritten by the `_sender` and `_amount` values to ensure correctness. Calls oracleRequest.",
        "params": {
          "_amount": "Amount of LINK sent (specified in wei)",
          "_data": "Payload of the transaction",
          "_sender": "Address of the sender"
        }
      },
      "oracleRequest(address,uint256,bytes32,address,bytes4,uint256,uint256,bytes)": {
        "details": "Stores the hash of the params as the on-chain commitment for the request. Emits OracleRequest event for the Chainlink node to detect.",
        "params": {
          "_callbackAddress": "The callback address for the response",
          "_callbackFunctionId": "The callback function ID for the response",
          "_data": "The CBOR payload of the request",
          "_nonce": "The nonce sent by the requester",
          "_payment": "The amount of payment given (specified in wei)",
          "_saId": "The Job Specification ID",
          "_sender": "The sender of the request"
        }
      },
      "owner()": {
        "details": "Returns the address of the current owner."
      },
      "transferOwnership(address)": {
        "details": "Transfers ownership of the contract to a new account (`newOwner`). Can only be called by the current owner."
      },
      "withdrawLink()": {
        "details": "The only valid case for there to be remaining LINK on this contract is if a user accidentally sent LINK directly to this contract's address."
      }
    },
    "title": "PreCoordinator is a contract that builds on-chain service agreements using the current architecture of 1 request to 1 oracle contract."
  },
  "userdoc": {
    "methods": {
      "cancelOracleRequest(bytes32,uint256,bytes4,uint256)": {
        "notice": "Call this method if no response is received within 5 minutes"
      },
      "chainlinkCallback(bytes32,int256)": {
        "notice": "The fulfill method from requests created by this contract"
      },
      "constructor": "Deploy the contract with a specified address for the LINK and Oracle contract addresses",
      "createServiceAgreement(uint256,address[],bytes32[],uint256[])": {
        "notice": "Allows the owner of the contract to create new service agreements with multiple oracles. Each oracle will have their own Job ID and can have their own payment amount."
      },
      "getChainlinkToken()": {
        "notice": "Returns the address of the LINK token"
      },
      "getServiceAgreement(bytes32)": {
        "notice": "This is a helper function to retrieve the details of a service agreement by its given service agreement ID."
      },
      "onTokenTransfer(address,uint256,bytes)": {
        "notice": "Called when LINK is sent to the contract via `transferAndCall`"
      },
      "oracleRequest(address,uint256,bytes32,address,bytes4,uint256,uint256,bytes)": {
        "notice": "Creates the Chainlink request"
      },
      "withdrawLink()": {
        "notice": "Allows the owner to withdraw any LINK balance on the contract"
      }
    }
  }
}