{
  "contractName": "SEMessenger",
  "abi": [
    {
      "inputs": [
        {
          "internalType": "address",
          "name": "_messengerChainlinkOracle",
          "type": "address"
        },
        {
          "internalType": "address",
          "name": "_messengerChainlinkToken",
          "type": "address"
        },
        {
          "internalType": "bytes32",
          "name": "_messengerJobId",
          "type": "bytes32"
        },
        {
          "internalType": "address",
          "name": "_networkAnalyticsAddress",
          "type": "address"
        },
        {
          "internalType": "uint256",
          "name": "_feeMultiplier",
          "type": "uint256"
        }
      ],
      "stateMutability": "nonpayable",
      "type": "constructor"
    },
    {
      "anonymous": false,
      "inputs": [
        {
          "indexed": true,
          "internalType": "bytes32",
          "name": "id",
          "type": "bytes32"
        }
      ],
      "name": "ChainlinkCancelled",
      "type": "event"
    },
    {
      "anonymous": false,
      "inputs": [
        {
          "indexed": true,
          "internalType": "bytes32",
          "name": "id",
          "type": "bytes32"
        }
      ],
      "name": "ChainlinkFulfilled",
      "type": "event"
    },
    {
      "anonymous": false,
      "inputs": [
        {
          "indexed": true,
          "internalType": "bytes32",
          "name": "id",
          "type": "bytes32"
        }
      ],
      "name": "ChainlinkRequested",
      "type": "event"
    },
    {
      "anonymous": false,
      "inputs": [
        {
          "indexed": true,
          "internalType": "address",
          "name": "owner",
          "type": "address"
        },
        {
          "indexed": false,
          "internalType": "bytes32",
          "name": "jobId",
          "type": "bytes32"
        },
        {
          "indexed": false,
          "internalType": "uint256",
          "name": "fee",
          "type": "uint256"
        }
      ],
      "name": "JobIdModified",
      "type": "event"
    },
    {
      "anonymous": false,
      "inputs": [
        {
          "indexed": true,
          "internalType": "address",
          "name": "previousOwner",
          "type": "address"
        },
        {
          "indexed": true,
          "internalType": "address",
          "name": "newOwner",
          "type": "address"
        }
      ],
      "name": "OwnershipTransferred",
      "type": "event"
    },
    {
      "anonymous": false,
      "inputs": [
        {
          "indexed": true,
          "internalType": "address",
          "name": "slaAddress",
          "type": "address"
        },
        {
          "indexed": false,
          "internalType": "uint256",
          "name": "periodId",
          "type": "uint256"
        },
        {
          "indexed": true,
          "internalType": "bytes32",
          "name": "requestId",
          "type": "bytes32"
        },
        {
          "indexed": false,
          "internalType": "bytes32",
          "name": "chainlinkResponse",
          "type": "bytes32"
        }
      ],
      "name": "SLIReceived",
      "type": "event"
    },
    {
      "inputs": [],
      "name": "networkAnalyticsAddress",
      "outputs": [
        {
          "internalType": "address",
          "name": "",
          "type": "address"
        }
      ],
      "stateMutability": "view",
      "type": "function",
      "constant": true
    },
    {
      "inputs": [],
      "name": "owner",
      "outputs": [
        {
          "internalType": "address",
          "name": "",
          "type": "address"
        }
      ],
      "stateMutability": "view",
      "type": "function",
      "constant": true
    },
    {
      "inputs": [],
      "name": "renounceOwnership",
      "outputs": [],
      "stateMutability": "nonpayable",
      "type": "function"
    },
    {
      "inputs": [
        {
          "internalType": "bytes32",
          "name": "",
          "type": "bytes32"
        }
      ],
      "name": "requestIdToSLIRequest",
      "outputs": [
        {
          "internalType": "address",
          "name": "slaAddress",
          "type": "address"
        },
        {
          "internalType": "uint256",
          "name": "periodId",
          "type": "uint256"
        }
      ],
      "stateMutability": "view",
      "type": "function",
      "constant": true
    },
    {
      "inputs": [
        {
          "internalType": "uint256",
          "name": "",
          "type": "uint256"
        }
      ],
      "name": "requests",
      "outputs": [
        {
          "internalType": "bytes32",
          "name": "",
          "type": "bytes32"
        }
      ],
      "stateMutability": "view",
      "type": "function",
      "constant": true
    },
    {
      "inputs": [
        {
          "internalType": "address",
          "name": "newOwner",
          "type": "address"
        }
      ],
      "name": "transferOwnership",
      "outputs": [],
      "stateMutability": "nonpayable",
      "type": "function"
    },
    {
      "inputs": [],
      "name": "setSLARegistry",
      "outputs": [],
      "stateMutability": "nonpayable",
      "type": "function"
    },
    {
      "inputs": [
        {
          "internalType": "uint256",
          "name": "_periodId",
          "type": "uint256"
        },
        {
          "internalType": "address",
          "name": "_slaAddress",
          "type": "address"
        },
        {
          "internalType": "bool",
          "name": "_ownerApproval",
          "type": "bool"
        }
      ],
      "name": "requestSLI",
      "outputs": [],
      "stateMutability": "nonpayable",
      "type": "function"
    },
    {
      "inputs": [
        {
          "internalType": "bytes32",
          "name": "_requestId",
          "type": "bytes32"
        },
        {
          "internalType": "uint256",
          "name": "_chainlinkResponseUint256",
          "type": "uint256"
        }
      ],
      "name": "fulfillSLI",
      "outputs": [],
      "stateMutability": "nonpayable",
      "type": "function"
    },
    {
      "inputs": [
        {
          "internalType": "bytes32",
          "name": "sliData",
          "type": "bytes32"
        }
      ],
      "name": "parseSLIData",
      "outputs": [
        {
          "internalType": "uint256",
          "name": "",
          "type": "uint256"
        },
        {
          "internalType": "uint256",
          "name": "",
          "type": "uint256"
        }
      ],
      "stateMutability": "pure",
      "type": "function",
      "constant": true
    },
    {
      "inputs": [
        {
          "internalType": "bytes32",
          "name": "_newJobId",
          "type": "bytes32"
        },
        {
          "internalType": "uint256",
          "name": "_feeMultiplier",
          "type": "uint256"
        }
      ],
      "name": "setChainlinkJobID",
      "outputs": [],
      "stateMutability": "nonpayable",
      "type": "function"
    },
    {
      "inputs": [],
      "name": "slaRegistryAddress",
      "outputs": [
        {
          "internalType": "address",
          "name": "",
          "type": "address"
        }
      ],
      "stateMutability": "view",
      "type": "function",
      "constant": true
    },
    {
      "inputs": [],
      "name": "messengerPrecision",
      "outputs": [
        {
          "internalType": "uint256",
          "name": "",
          "type": "uint256"
        }
      ],
      "stateMutability": "view",
      "type": "function",
      "constant": true
    },
    {
      "inputs": [],
      "name": "oracle",
      "outputs": [
        {
          "internalType": "address",
          "name": "",
          "type": "address"
        }
      ],
      "stateMutability": "view",
      "type": "function",
      "constant": true
    },
    {
      "inputs": [],
      "name": "jobId",
      "outputs": [
        {
          "internalType": "bytes32",
          "name": "",
          "type": "bytes32"
        }
      ],
      "stateMutability": "view",
      "type": "function",
      "constant": true
    },
    {
      "inputs": [],
      "name": "fee",
      "outputs": [
        {
          "internalType": "uint256",
          "name": "",
          "type": "uint256"
        }
      ],
      "stateMutability": "view",
      "type": "function",
      "constant": true
    }
  ],
  "bytecode": "0x6080604052600160045567016345785d8a0000600d556103e8600f553480156200002857600080fd5b5060405162001fe938038062001fe98339810160408190526200004b916200014a565b6000620000606001600160e01b036200010616565b600680546001600160a01b0319166001600160a01b038316908117909155604051919250906000907f8be0079c531659141344cd1fd0a4f28419497f9722a3daafe3b4186f6b6457e0908290a350600c839055620000c7846001600160e01b036200010a16565b600b80546001600160a01b039687166001600160a01b031991821617909155600a8054939096169216919091179093555050600d5402600e55620001aa565b3390565b600280546001600160a01b0319166001600160a01b0392909216919091179055565b80516001600160a01b03811681146200014457600080fd5b92915050565b600080600080600060a0868803121562000162578081fd5b6200016e87876200012c565b94506200017f87602088016200012c565b9350604086015192506200019787606088016200012c565b9150608086015190509295509295909350565b611e2f80620001ba6000396000f3fe608060405234801561001057600080fd5b50600436106100e05760003560e01c80638da5cb5b116100875780638da5cb5b14610184578063ae401eb91461018c578063bc0bfc00146101ad578063c2939d97146101c0578063c9b0cb22146101c8578063ddca3f43146101d0578063f2fde38b146101d8578063f3881589146101eb576100e0565b806304e4fc01146100e5578063292733bf1461010f5780636e71890d14610124578063715018a614610139578063788164b1146101415780637dc0d1d01461015457806381d12c581461015c5780638acb09a01461017c575b600080fd5b6100f86100f336600461186b565b6101f3565b604051610106929190611a90565b60405180910390f35b61012261011d36600461189b565b6103a7565b005b61012c610432565b6040516101069190611985565b610122610441565b61012261014f3660046118db565b6104c0565b61012c6108ab565b61016f61016a36600461186b565b6108ba565b6040516101069190611a65565b61012c6108d8565b61012c6108e7565b61019f61019a36600461186b565b6108f6565b6040516101069291906119bd565b6101226101bb36600461189b565b61091b565b61016f610ad1565b61016f610ad7565b61016f610add565b6101226101e6366004611834565b610ae3565b610122610b9a565b600080606061020184610bd7565b805190915060608167ffffffffffffffff8111801561021f57600080fd5b506040519080825280601f01601f19166020018201604052801561024a576020820181803683370190505b50905060608267ffffffffffffffff8111801561026657600080fd5b506040519080825280601f01601f191660200182016040528015610291576020820181803683370190505b50905060005b8381101561037e57600b60fa1b6001600160f81b0319168582815181106102ba57fe5b01602001516001600160f81b03191614156103765760005b8181101561031c578581815181106102e657fe5b602001015160f81c60f81b8482815181106102fd57fe5b60200101906001600160f81b031916908160001a9053506001016102d2565b5060005b60018286030381101561037457858183600101018151811061033e57fe5b602001015160f81c60f81b83828151811061035557fe5b60200101906001600160f81b031916908160001a905350600101610320565b505b600101610297565b50600061038a83610ce6565b9050600061039783610ce6565b9197509095505050505050915091565b6103af610d66565b6006546001600160a01b039081169116146103e55760405162461bcd60e51b81526004016103dc90611cbe565b60405180910390fd5b600c829055600d548102600e81905560405133917f8e7e22d2820965fa1a8fa3ad76db76127e2f1baaf65f50c4e267f28b2254f7cb91610426918691611a90565b60405180910390a25050565b6009546001600160a01b031690565b610449610d66565b6006546001600160a01b039081169116146104765760405162461bcd60e51b81526004016103dc90611cbe565b6006546040516000916001600160a01b0316907f8be0079c531659141344cd1fd0a4f28419497f9722a3daafe3b4186f6b6457e0908390a3600680546001600160a01b0319169055565b6009546001600160a01b031633146104ea5760405162461bcd60e51b81526004016103dc90611c3c565b60008290506000816001600160a01b03166346e0fbae6040518163ffffffff1660e01b815260040160206040518083038186803b15801561052a57600080fd5b505afa15801561053e573d6000803e3d6000fd5b505050506040513d601f19601f8201168201806040525081019061056291906118bc565b90506000826001600160a01b03166378025ec460006040518263ffffffff1660e01b81526004016105939190611a65565b60206040518083038186803b1580156105ab57600080fd5b505afa1580156105bf573d6000803e3d6000fd5b505050506040513d601f19601f820116820180604052508101906105e39190611883565b600a54604051637e0ce26960e01b81529192506000916001600160a01b0390911690637e0ce2699061061d90859087908c90600401611a6e565b60206040518083038186803b15801561063557600080fd5b505afa158015610649573d6000803e3d6000fd5b505050506040513d601f19601f8201168201806040525081019061066d9190611883565b90508061068c5760405162461bcd60e51b81526004016103dc90611bf0565b84156106c5576106c061069d6108e7565b30600e546106a9610d6a565b6001600160a01b031692919063ffffffff610d7916565b6106d5565b6106d53330600e546106a9610d6a565b6106dd6117b7565b600c546106f19030622f02ff60ea1b610dd7565b9050610752604051806040016040528060088152602001676a6f625f7479706560c01b815250604051806040016040528060128152602001717374616b696e675f656666696369656e637960701b81525083610e029092919063ffffffff16565b61078e604051806040016040528060098152602001681c195c9a5bd917da5960ba1b8152506107808a610e31565b83919063ffffffff610e0216565b6107be6040518060400160405280600b81526020016a736c615f6164647265737360a81b81525061078089610f0c565b6040805180820190915260198152786e6574776f726b5f616e616c79746963735f6164647265737360381b6020820152600a546108089190610780906001600160a01b0316610f0c565b600b54600e54600091610828916001600160a01b03909116908490611088565b6008805460018082019092557ff3f7a9fe364faab93b216da50a3214154f22a0a2b415b23a84c8169e8b636ee3018290556040805180820182526001600160a01b039b8c16815260208082019d8e526000948552600790529220915182546001600160a01b0319169a169990991781559851989097019790975550505050505050565b600b546001600160a01b031690565b600881815481106108c757fe5b600091825260209091200154905081565b600a546001600160a01b031681565b6006546001600160a01b031690565b600760205260009081526040902080546001909101546001600160a01b039091169082565b60008281526005602052604090205482906001600160a01b031633146109535760405162461bcd60e51b81526004016103dc90611d2a565b60008181526005602052604080822080546001600160a01b03191690555182917f7cc135e0cebb02c3480ae5d74d377283180a2601f8f644edf7987b009316c63a91a28161099f6117ec565b506000848152600760209081526040918290208251808401845281546001600160a01b0316808252600190920154928101839052925187927f56514ef6e1ffd0f970ebf32dc181e476384e6e53a8351719040b4030318a933b91610a0591908790611a90565b60405180910390a3600080610a19846101f3565b90925090506000610a30838363ffffffff6111c716565b90506000610a5c82610a50600f54606402876111f590919063ffffffff16565b9063ffffffff61122f16565b85516020870151604051636bd2e21160e11b81529293506001600160a01b039091169163d7a5c42291610a9491859190600401611a90565b600060405180830381600087803b158015610aae57600080fd5b505af1158015610ac2573d6000803e3d6000fd5b50505050505050505050505050565b600c5490565b600f5490565b600e5490565b610aeb610d66565b6006546001600160a01b03908116911614610b185760405162461bcd60e51b81526004016103dc90611cbe565b6001600160a01b038116610b3e5760405162461bcd60e51b81526004016103dc90611ab1565b6006546040516001600160a01b038084169216907f8be0079c531659141344cd1fd0a4f28419497f9722a3daafe3b4186f6b6457e090600090a3600680546001600160a01b0319166001600160a01b0392909216919091179055565b6009546001600160a01b031615610bc35760405162461bcd60e51b81526004016103dc90611ba8565b600980546001600160a01b03191633179055565b606060005b60208160ff16108015610c0a5750828160ff1660208110610bf957fe5b1a60f81b6001600160f81b03191615155b15610c1757600101610bdc565b60608160ff1667ffffffffffffffff81118015610c3357600080fd5b506040519080825280601f01601f191660200182016040528015610c5e576020820181803683370190505b509050600091505b60208260ff16108015610c945750838260ff1660208110610c8357fe5b1a60f81b6001600160f81b03191615155b15610cdd57838260ff1660208110610ca857fe5b1a60f81b818360ff1681518110610cbb57fe5b60200101906001600160f81b031916908160001a905350600190910190610c66565b9150505b919050565b6000805b8251811015610d60576030838281518110610d0157fe5b016020015160f81c10801590610d2b57506039838281518110610d2057fe5b016020015160f81c11155b15610d58576030838281518110610d3e57fe5b602001015160f81c60f81b60f81c0360ff1682600a020191505b600101610cea565b50919050565b3390565b6002546001600160a01b031690565b610dd1846323b872dd60e01b858585604051602401610d9a93929190611999565b60408051601f198184030181529190526020810180516001600160e01b03166001600160e01b031990931692909217909152611264565b50505050565b610ddf6117b7565b610de76117b7565b610df98186868663ffffffff6112f316565b95945050505050565b6080830151610e17908363ffffffff61133916565b6080830151610e2c908263ffffffff61133916565b505050565b60608180610e585750506040805180820190915260018152600360fc1b6020820152610ce1565b8060005b8115610e7057600101600a82049150610e5c565b60608167ffffffffffffffff81118015610e8957600080fd5b506040519080825280601f01601f191660200182016040528015610eb4576020820181803683370190505b50905060001982015b8415610f0257600a850660300160f81b82828060019003935081518110610ee057fe5b60200101906001600160f81b031916908160001a905350600a85049450610ebd565b5095945050505050565b604080518082018252601081526f181899199a1a9b1b9c1cb0b131b232b360811b60208201528151602a80825260608281019094526001600160a01b03851692918491602082018180368337019050509050600360fc1b81600081518110610f7057fe5b60200101906001600160f81b031916908160001a905350600f60fb1b81600181518110610f9957fe5b60200101906001600160f81b031916908160001a90535060005b601481101561107f578260048583600c0160208110610fce57fe5b1a60f81b6001600160f81b031916901c60f81c60ff1681518110610fee57fe5b602001015160f81c60f81b82826002026002018151811061100b57fe5b60200101906001600160f81b031916908160001a905350828482600c016020811061103257fe5b825191901a600f1690811061104357fe5b602001015160f81c60f81b82826002026003018151811061106057fe5b60200101906001600160f81b031916908160001a905350600101610fb3565b50949350505050565b60003060045460405160200161109f929190611963565b60408051808303601f19018152918152815160209283012060045460608701526000818152600590935281832080546001600160a01b0319166001600160a01b038916179055905190925082917fb5e6e01e79f91267dc17b4e6314d5d4d03593d2ceee0fbb452b750bd70ea5af991a26002546001600160a01b0316634000aea0858461112b87611356565b6040518463ffffffff1660e01b815260040161114993929190611a3e565b602060405180830381600087803b15801561116357600080fd5b505af1158015611177573d6000803e3d6000fd5b505050506040513d601f19601f8201168201806040525081019061119b919061184f565b6111b75760405162461bcd60e51b81526004016103dc90611b2e565b6004805460010190559392505050565b6000828201838110156111ec5760405162461bcd60e51b81526004016103dc90611af7565b90505b92915050565b600082611204575060006111ef565b8282028284828161121157fe5b04146111ec5760405162461bcd60e51b81526004016103dc90611c7d565b60008082116112505760405162461bcd60e51b81526004016103dc90611b71565b600082848161125b57fe5b04949350505050565b60606112b9826040518060400160405280602081526020017f5361666545524332303a206c6f772d6c6576656c2063616c6c206661696c6564815250856001600160a01b03166113d29092919063ffffffff16565b805190915015610e2c57808060200190518101906112d7919061184f565b610e2c5760405162461bcd60e51b81526004016103dc90611d72565b6112fb6117b7565b61130b85608001516101006113e1565b50508284526001600160a01b03821660208501526001600160e01b031981166040850152835b949350505050565b611346826003835161141b565b610e2c828263ffffffff61152516565b6060634042994660e01b600080846000015185602001518660400151876060015160018960800151600001516040516024016113999897969594939291906119d6565b60408051601f198184030181529190526020810180516001600160e01b03166001600160e01b0319909316929092179091529050919050565b6060611331848460008561153f565b6113e9611803565b60208206156113fe5760208206602003820191505b506020828101829052604080518085526000815290920101905290565b601781116114425761143c8360e0600585901b16831763ffffffff61160316565b50610e2c565b60ff811161147857611465836018611fe0600586901b161763ffffffff61160316565b5061143c8382600163ffffffff61161b16565b61ffff81116114af5761149c836019611fe0600586901b161763ffffffff61160316565b5061143c8382600263ffffffff61161b16565b63ffffffff81116114e8576114d583601a611fe0600586901b161763ffffffff61160316565b5061143c8382600463ffffffff61161b16565b67ffffffffffffffff8111610e2c5761151283601b611fe0600586901b161763ffffffff61160316565b50610dd18382600863ffffffff61161b16565b61152d611803565b6111ec83846000015151848551611634565b606061154a856116e0565b6115665760405162461bcd60e51b81526004016103dc90611cf3565b60006060866001600160a01b031685876040516115839190611947565b60006040518083038185875af1925050503d80600081146115c0576040519150601f19603f3d011682016040523d82523d6000602084013e6115c5565b606091505b509150915081156115d95791506113319050565b8051156115e95780518082602001fd5b8360405162461bcd60e51b81526004016103dc9190611a9e565b61160b611803565b6111ec83846000015151846116e6565b611623611803565b611331848560000151518585611731565b61163c611803565b825182111561164a57600080fd5b84602001518285011115611674576116748561166c876020015187860161178f565b6002026117a0565b6000808651805187602083010193508088870111156116935787860182525b505050602084015b602084106116ba5780518252601f19909301926020918201910161169b565b51815160001960208690036101000a019081169019919091161790525083949350505050565b3b151590565b6116ee611803565b8360200151831061170a5761170a8485602001516002026117a0565b835180516020858301018481535080851415611727576001810182525b5093949350505050565b611739611803565b8460200151848301111561175657611756858584016002026117a0565b60006001836101000a0390508551838682010185831982511617815250805184870111156117845783860181525b509495945050505050565b600081831115610d605750816111ef565b81516117ac83836113e1565b50610dd18382611525565b6040805160a0810182526000808252602082018190529181018290526060810191909152608081016117e7611803565b905290565b604080518082019091526000808252602082015290565b604051806040016040528060608152602001600081525090565b80356001600160a01b03811681146111ef57600080fd5b600060208284031215611845578081fd5b6111ec838361181d565b600060208284031215611860578081fd5b81516111ec81611de8565b60006020828403121561187c578081fd5b5035919050565b600060208284031215611894578081fd5b5051919050565b600080604083850312156118ad578081fd5b50508035926020909101359150565b6000602082840312156118cd578081fd5b8151600681106111ec578182fd5b6000806000606084860312156118ef578081fd5b83359250611900856020860161181d565b9150604084013561191081611de8565b809150509250925092565b60008151808452611933816020860160208601611dbc565b601f01601f19169290920160200192915050565b60008251611959818460208701611dbc565b9190910192915050565b60609290921b6bffffffffffffffffffffffff19168252601482015260340190565b6001600160a01b0391909116815260200190565b6001600160a01b039384168152919092166020820152604081019190915260600190565b6001600160a01b03929092168252602082015260400190565b6001600160a01b0389811682526020820189905260408201889052861660608201526001600160e01b03198516608082015260a0810184905260c0810183905261010060e08201819052600090611a2f8382018561191b565b9b9a5050505050505050505050565b600060018060a01b038516825283602083015260606040830152610df9606083018461191b565b90815260200190565b8381526060810160068410611a7f57fe5b602082019390935260400152919050565b918252602082015260400190565b6000602082526111ec602083018461191b565b60208082526026908201527f4f776e61626c653a206e6577206f776e657220697320746865207a65726f206160408201526564647265737360d01b606082015260800190565b6020808252601b908201527f536166654d6174683a206164646974696f6e206f766572666c6f770000000000604082015260600190565b60208082526023908201527f756e61626c6520746f207472616e73666572416e6443616c6c20746f206f7261604082015262636c6560e81b606082015260800190565b6020808252601a908201527f536166654d6174683a206469766973696f6e206279207a65726f000000000000604082015260600190565b60208082526028908201527f534c41526567697374727920616464726573732068617320616c7265616479206040820152671899595b881cd95d60c21b606082015260800190565b6020808252602c908201527f4e6574776f726b20616e616c7974696373206f626a656374206973206e6f742060408201526b185cdcda59db9959081e595d60a21b606082015260800190565b60208082526021908201527f43616e206f6e6c792062652063616c6c656420627920534c41526567697374726040820152607960f81b606082015260800190565b60208082526021908201527f536166654d6174683a206d756c7469706c69636174696f6e206f766572666c6f6040820152607760f81b606082015260800190565b6020808252818101527f4f776e61626c653a2063616c6c6572206973206e6f7420746865206f776e6572604082015260600190565b6020808252601d908201527f416464726573733a2063616c6c20746f206e6f6e2d636f6e7472616374000000604082015260600190565b60208082526028908201527f536f75726365206d75737420626520746865206f7261636c65206f6620746865604082015267081c995c5d595cdd60c21b606082015260800190565b6020808252602a908201527f5361666545524332303a204552433230206f7065726174696f6e20646964206e6040820152691bdd081cdd58d8d9595960b21b606082015260800190565b60005b83811015611dd7578181015183820152602001611dbf565b83811115610dd15750506000910152565b8015158114611df657600080fd5b5056fea26469706673582212200b8b76abdd7889d2fbb03b769094d6dd9dbfe8f2864677677a2bbbfc46509f4864736f6c63430006060033",
  "immutableReferences": {},
  "source": "pragma solidity 0.6.6;\n\npragma experimental ABIEncoderV2;\n\nimport \"@chainlink/contracts/src/v0.6/ChainlinkClient.sol\";\nimport \"../SLA.sol\";\nimport \"../SLO.sol\";\nimport \"../PeriodRegistry.sol\";\nimport \"../StringUtils.sol\";\nimport \"./NetworkAnalytics.sol\";\nimport \"../messenger/IMessenger.sol\";\nimport \"@openzeppelin/contracts/token/ERC20/ERC20.sol\";\nimport \"@openzeppelin/contracts/token/ERC20/SafeERC20.sol\";\n\n/**\n * @title SEMessenger\n * @dev Staking efficiency Messenger\n */\n\ncontract SEMessenger is ChainlinkClient, IMessenger, StringUtils {\n    using SafeERC20 for ERC20;\n\n    /// @dev Mapping that stores chainlink sli request information\n    mapping(bytes32 => SLIRequest) public requestIdToSLIRequest;\n    /// @dev Array with all request IDs\n    bytes32[] public requests;\n    /// @dev The address of the SLARegistry contract\n    address private _slaRegistryAddress;\n    /// @dev Network analytics contract address\n    address public networkAnalyticsAddress;\n    /// @dev Chainlink oracle address\n    address private _oracle;\n    /// @dev chainlink jobId\n    bytes32 private _jobId;\n    // @dev fee for Chainlink querys. Currently 0.1 LINK\n    uint256 private _baseFee = 0.1 ether;\n    /// @dev fee for Chainlink querys. Currently 0.1 LINK\n    uint256 private _fee;\n    /// @dev to multiply the SLI value and get better precision. Useful to deploy SLO correctly\n    uint256 private _messengerPrecision = 10**3;\n\n    /**\n     * @dev parameterize the variables according to network\n     * @notice sets the Chainlink parameters (oracle address, token address, jobId) and sets the SLARegistry to 0x0 address\n     * @param _messengerChainlinkOracle 1. the address of the oracle to create requests to\n     * @param _messengerChainlinkToken 2. the address of LINK token contract\n     * @param _messengerJobId 3. the job id for Staking efficiency job\n     * @param _networkAnalyticsAddress 4. Network analytics contract address\n     * @param _feeMultiplier 6. states the amount of paid nodes running behind the precoordinator, to set the fee\n     */\n    constructor(\n        address _messengerChainlinkOracle,\n        address _messengerChainlinkToken,\n        bytes32 _messengerJobId,\n        address _networkAnalyticsAddress,\n        uint256 _feeMultiplier\n    ) public {\n        _jobId = _messengerJobId;\n        setChainlinkToken(_messengerChainlinkToken);\n        _oracle = _messengerChainlinkOracle;\n        networkAnalyticsAddress = _networkAnalyticsAddress;\n        _fee = _feeMultiplier * _baseFee;\n    }\n\n    /**\n     * @dev event emitted when modifying the jobId\n     * @param owner 1. -\n     * @param jobId 2. -\n     * @param fee 3. -\n     */\n    event JobIdModified(address indexed owner, bytes32 jobId, uint256 fee);\n\n    /// @dev Throws if called by any address other than the SLARegistry contract or Chainlink Oracle.\n    modifier onlySLARegistry() {\n        require(\n            msg.sender == _slaRegistryAddress,\n            \"Can only be called by SLARegistry\"\n        );\n        _;\n    }\n\n    /**\n     * @dev sets the SLARegistry contract address and can only be called\n     * once\n     */\n    function setSLARegistry() public override {\n        // Only able to trigger this function once\n        require(\n            _slaRegistryAddress == address(0),\n            \"SLARegistry address has already been set\"\n        );\n\n        _slaRegistryAddress = msg.sender;\n    }\n\n    /**\n     * @dev creates a ChainLink request to get a new SLI value for the\n     * given params. Can only be called by the SLARegistry contract or Chainlink Oracle.\n     * @param _periodId 1. value of the period id\n     * @param _slaAddress 2. SLA Address\n     * @param _ownerApproval 3. if approval by owner or msg sender\n     */\n    function requestSLI(\n        uint256 _periodId,\n        address _slaAddress,\n        bool _ownerApproval\n    ) public override onlySLARegistry {\n        SLA sla = SLA(_slaAddress);\n        PeriodRegistry.PeriodType periodType = sla.periodType();\n        // extraData[0] is the networkName for StakingEfficiency use case\n        bytes32 networkName = sla.extraData(0);\n        bytes32 ipfsAnalytics =\n            NetworkAnalytics(networkAnalyticsAddress).periodAnalytics(\n                networkName,\n                periodType,\n                _periodId\n            );\n        require(\n            ipfsAnalytics != 0,\n            \"Network analytics object is not assigned yet\"\n        );\n        if (_ownerApproval) {\n            ERC20(chainlinkTokenAddress()).safeTransferFrom(\n                owner(),\n                address(this),\n                _fee\n            );\n        } else {\n            ERC20(chainlinkTokenAddress()).safeTransferFrom(\n                msg.sender,\n                address(this),\n                _fee\n            );\n        }\n        Chainlink.Request memory request =\n            buildChainlinkRequest(\n                _jobId,\n                address(this),\n                this.fulfillSLI.selector\n            );\n        request.add(\"job_type\", \"staking_efficiency\");\n        request.add(\"period_id\", _uintToStr(_periodId));\n        request.add(\"sla_address\", _addressToString(_slaAddress));\n        request.add(\n            \"network_analytics_address\",\n            _addressToString(networkAnalyticsAddress)\n        );\n\n        // Sends the request with 0.1 LINK to the oracle contract\n        bytes32 requestId = sendChainlinkRequestTo(_oracle, request, _fee);\n\n        requests.push(requestId);\n\n        requestIdToSLIRequest[requestId] = SLIRequest({\n            slaAddress: _slaAddress,\n            periodId: _periodId\n        });\n    }\n\n    /**\n     * @dev callback function for the Chainlink SLI request which stores\n     * the SLI in the SLA contract\n     * @param _requestId the ID of the ChainLink request\n     * @param _chainlinkResponseUint256 response object from Chainlink Oracles\n     */\n    function fulfillSLI(bytes32 _requestId, uint256 _chainlinkResponseUint256)\n        public\n        override\n        recordChainlinkFulfillment(_requestId)\n    {\n        bytes32 _chainlinkResponse = bytes32(_chainlinkResponseUint256);\n        SLIRequest memory request = requestIdToSLIRequest[_requestId];\n        emit SLIReceived(\n            request.slaAddress,\n            request.periodId,\n            _requestId,\n            _chainlinkResponse\n        );\n        (uint256 hits, uint256 misses) = parseSLIData(_chainlinkResponse);\n        uint256 total = hits.add(misses);\n        uint256 stakingEfficiency =\n            hits.mul(100 * _messengerPrecision).div(total);\n        SLA(request.slaAddress).registerSLI(\n            stakingEfficiency,\n            request.periodId\n        );\n    }\n\n    /**\n     * @dev recieves a string of \"hits,misses\" data and returns hits and misses as uint256\n     * @param sliData the ID of the ChainLink request\n     */\n    function parseSLIData(bytes32 sliData)\n        public\n        pure\n        returns (uint256, uint256)\n    {\n        bytes memory bytesSLIData = bytes(_bytes32ToStr(sliData));\n        uint256 sliDataLength = bytesSLIData.length;\n        bytes memory bytesHits = new bytes(sliDataLength);\n        bytes memory bytesMisses = new bytes(sliDataLength);\n        for (uint256 index; index < sliDataLength; index++) {\n            if (bytesSLIData[index] == bytes1(\",\")) {\n                for (uint256 index2 = 0; index2 < index; index2++) {\n                    bytesHits[index2] = bytesSLIData[index2];\n                }\n                for (\n                    uint256 index3 = 0;\n                    index3 < sliDataLength - index - 1;\n                    index3++\n                ) {\n                    bytesMisses[index3] = bytesSLIData[index + 1 + index3];\n                }\n            }\n        }\n        uint256 hits = _bytesToUint(bytesHits);\n        uint256 misses = _bytesToUint(bytesMisses);\n        return (hits, misses);\n    }\n\n    /**\n     * @dev sets a new jobId, which is a agreement Id of a PreCoordinator contract\n     * @param _newJobId the id of the PreCoordinator agreement\n     * @param _feeMultiplier how many Chainlink nodes would be paid on the agreement id, to set the fee value\n     */\n    function setChainlinkJobID(bytes32 _newJobId, uint256 _feeMultiplier)\n        public\n        onlyOwner\n    {\n        _jobId = _newJobId;\n        _fee = _feeMultiplier * _baseFee;\n        emit JobIdModified(msg.sender, _newJobId, _fee);\n    }\n\n    /**\n     * @dev returns the value of the sla registry address\n     */\n    function slaRegistryAddress() public view override returns (address) {\n        return _slaRegistryAddress;\n    }\n\n    /**\n     * @dev returns the value of the messenger precision\n     */\n    function messengerPrecision() public view override returns (uint256) {\n        return _messengerPrecision;\n    }\n\n    /**\n     * @dev returns the chainlink oracle contract address\n     */\n    function oracle() public view override returns (address) {\n        return _oracle;\n    }\n\n    /**\n     * @dev returns the chainlink job id\n     */\n    function jobId() public view override returns (bytes32) {\n        return _jobId;\n    }\n\n    /**\n     * @dev returns the chainlink fee value on LINK tokens\n     */\n    function fee() public view override returns (uint256) {\n        return _fee;\n    }\n}\n",
  "sourcePath": "/Users/matiasbn/Desktop/stacktical/stacktical-dsla-contracts/contracts/staking-efficiency/SEMessenger.sol",
  "compiler": {
    "name": "solc",
    "version": "0.6.6+commit.6c089d02.Emscripten.clang"
  },
  "schemaVersion": "3.3.3",
  "updatedAt": "2021-03-15T21:15:01.837Z",
  "networkType": "ethereum",
  "devdoc": {
    "details": "Staking efficiency Messenger",
    "methods": {
      "constructor": {
        "details": "parameterize the variables according to network",
        "params": {
          "_feeMultiplier": "6. states the amount of paid nodes running behind the precoordinator, to set the fee",
          "_messengerChainlinkOracle": "1. the address of the oracle to create requests to",
          "_messengerChainlinkToken": "2. the address of LINK token contract",
          "_messengerJobId": "3. the job id for Staking efficiency job",
          "_networkAnalyticsAddress": "4. Network analytics contract address"
        }
      },
      "fee()": {
        "details": "returns the chainlink fee value on LINK tokens"
      },
      "fulfillSLI(bytes32,uint256)": {
        "details": "callback function for the Chainlink SLI request which stores the SLI in the SLA contract",
        "params": {
          "_chainlinkResponseUint256": "response object from Chainlink Oracles",
          "_requestId": "the ID of the ChainLink request"
        }
      },
      "jobId()": {
        "details": "returns the chainlink job id"
      },
      "messengerPrecision()": {
        "details": "returns the value of the messenger precision"
      },
      "oracle()": {
        "details": "returns the chainlink oracle contract address"
      },
      "owner()": {
        "details": "Returns the address of the current owner."
      },
      "parseSLIData(bytes32)": {
        "details": "recieves a string of \"hits,misses\" data and returns hits and misses as uint256",
        "params": {
          "sliData": "the ID of the ChainLink request"
        }
      },
      "renounceOwnership()": {
        "details": "Leaves the contract without owner. It will not be possible to call `onlyOwner` functions anymore. Can only be called by the current owner.     * NOTE: Renouncing ownership will leave the contract without an owner, thereby removing any functionality that is only available to the owner."
      },
      "requestSLI(uint256,address,bool)": {
        "details": "creates a ChainLink request to get a new SLI value for the given params. Can only be called by the SLARegistry contract or Chainlink Oracle.",
        "params": {
          "_ownerApproval": "3. if approval by owner or msg sender",
          "_periodId": "1. value of the period id",
          "_slaAddress": "2. SLA Address"
        }
      },
      "setChainlinkJobID(bytes32,uint256)": {
        "details": "sets a new jobId, which is a agreement Id of a PreCoordinator contract",
        "params": {
          "_feeMultiplier": "how many Chainlink nodes would be paid on the agreement id, to set the fee value",
          "_newJobId": "the id of the PreCoordinator agreement"
        }
      },
      "setSLARegistry()": {
        "details": "sets the SLARegistry contract address and can only be called once"
      },
      "slaRegistryAddress()": {
        "details": "returns the value of the sla registry address"
      },
      "transferOwnership(address)": {
        "details": "Transfers ownership of the contract to a new account (`newOwner`). Can only be called by the current owner."
      }
    },
    "title": "SEMessenger"
  },
  "userdoc": {
    "methods": {
      "constructor": "sets the Chainlink parameters (oracle address, token address, jobId) and sets the SLARegistry to 0x0 address"
    }
  }
}