{
  "contractName": "SEMessenger",
  "abi": [
    {
      "inputs": [
        {
          "internalType": "address",
          "name": "_messengerChainlinkOracle",
          "type": "address"
        },
        {
          "internalType": "address",
          "name": "_messengerChainlinkToken",
          "type": "address"
        },
        {
          "internalType": "bytes32",
          "name": "_messengerJobId",
          "type": "bytes32"
        },
        {
          "internalType": "address",
          "name": "_networkAnalyticsAddress",
          "type": "address"
        },
        {
          "internalType": "uint256",
          "name": "_feeMultiplier",
          "type": "uint256"
        }
      ],
      "stateMutability": "nonpayable",
      "type": "constructor"
    },
    {
      "anonymous": false,
      "inputs": [
        {
          "indexed": true,
          "internalType": "bytes32",
          "name": "id",
          "type": "bytes32"
        }
      ],
      "name": "ChainlinkCancelled",
      "type": "event"
    },
    {
      "anonymous": false,
      "inputs": [
        {
          "indexed": true,
          "internalType": "bytes32",
          "name": "id",
          "type": "bytes32"
        }
      ],
      "name": "ChainlinkFulfilled",
      "type": "event"
    },
    {
      "anonymous": false,
      "inputs": [
        {
          "indexed": true,
          "internalType": "bytes32",
          "name": "id",
          "type": "bytes32"
        }
      ],
      "name": "ChainlinkRequested",
      "type": "event"
    },
    {
      "anonymous": false,
      "inputs": [
        {
          "indexed": true,
          "internalType": "address",
          "name": "owner",
          "type": "address"
        },
        {
          "indexed": false,
          "internalType": "bytes32",
          "name": "jobId",
          "type": "bytes32"
        },
        {
          "indexed": false,
          "internalType": "uint256",
          "name": "fee",
          "type": "uint256"
        }
      ],
      "name": "JobIdModified",
      "type": "event"
    },
    {
      "anonymous": false,
      "inputs": [
        {
          "indexed": true,
          "internalType": "address",
          "name": "previousOwner",
          "type": "address"
        },
        {
          "indexed": true,
          "internalType": "address",
          "name": "newOwner",
          "type": "address"
        }
      ],
      "name": "OwnershipTransferred",
      "type": "event"
    },
    {
      "anonymous": false,
      "inputs": [
        {
          "indexed": true,
          "internalType": "address",
          "name": "slaAddress",
          "type": "address"
        },
        {
          "indexed": false,
          "internalType": "uint256",
          "name": "periodId",
          "type": "uint256"
        },
        {
          "indexed": true,
          "internalType": "bytes32",
          "name": "requestId",
          "type": "bytes32"
        },
        {
          "indexed": false,
          "internalType": "bytes32",
          "name": "chainlinkResponse",
          "type": "bytes32"
        }
      ],
      "name": "SLIReceived",
      "type": "event"
    },
    {
      "inputs": [],
      "name": "networkAnalyticsAddress",
      "outputs": [
        {
          "internalType": "address",
          "name": "",
          "type": "address"
        }
      ],
      "stateMutability": "view",
      "type": "function",
      "constant": true
    },
    {
      "inputs": [],
      "name": "owner",
      "outputs": [
        {
          "internalType": "address",
          "name": "",
          "type": "address"
        }
      ],
      "stateMutability": "view",
      "type": "function",
      "constant": true
    },
    {
      "inputs": [],
      "name": "renounceOwnership",
      "outputs": [],
      "stateMutability": "nonpayable",
      "type": "function"
    },
    {
      "inputs": [
        {
          "internalType": "bytes32",
          "name": "",
          "type": "bytes32"
        }
      ],
      "name": "requestIdToSLIRequest",
      "outputs": [
        {
          "internalType": "address",
          "name": "slaAddress",
          "type": "address"
        },
        {
          "internalType": "uint256",
          "name": "periodId",
          "type": "uint256"
        }
      ],
      "stateMutability": "view",
      "type": "function",
      "constant": true
    },
    {
      "inputs": [
        {
          "internalType": "uint256",
          "name": "",
          "type": "uint256"
        }
      ],
      "name": "requests",
      "outputs": [
        {
          "internalType": "bytes32",
          "name": "",
          "type": "bytes32"
        }
      ],
      "stateMutability": "view",
      "type": "function",
      "constant": true
    },
    {
      "inputs": [
        {
          "internalType": "address",
          "name": "newOwner",
          "type": "address"
        }
      ],
      "name": "transferOwnership",
      "outputs": [],
      "stateMutability": "nonpayable",
      "type": "function"
    },
    {
      "inputs": [],
      "name": "setSLARegistry",
      "outputs": [],
      "stateMutability": "nonpayable",
      "type": "function"
    },
    {
      "inputs": [
        {
          "internalType": "uint256",
          "name": "_periodId",
          "type": "uint256"
        },
        {
          "internalType": "address",
          "name": "_slaAddress",
          "type": "address"
        },
        {
          "internalType": "bool",
          "name": "_messengerOwnerApproval",
          "type": "bool"
        },
        {
          "internalType": "address",
          "name": "_callerAddress",
          "type": "address"
        }
      ],
      "name": "requestSLI",
      "outputs": [],
      "stateMutability": "nonpayable",
      "type": "function"
    },
    {
      "inputs": [
        {
          "internalType": "bytes32",
          "name": "_requestId",
          "type": "bytes32"
        },
        {
          "internalType": "uint256",
          "name": "_chainlinkResponseUint256",
          "type": "uint256"
        }
      ],
      "name": "fulfillSLI",
      "outputs": [],
      "stateMutability": "nonpayable",
      "type": "function"
    },
    {
      "inputs": [
        {
          "internalType": "bytes32",
          "name": "sliData",
          "type": "bytes32"
        }
      ],
      "name": "parseSLIData",
      "outputs": [
        {
          "internalType": "uint256",
          "name": "",
          "type": "uint256"
        },
        {
          "internalType": "uint256",
          "name": "",
          "type": "uint256"
        }
      ],
      "stateMutability": "pure",
      "type": "function",
      "constant": true
    },
    {
      "inputs": [
        {
          "internalType": "bytes32",
          "name": "_newJobId",
          "type": "bytes32"
        },
        {
          "internalType": "uint256",
          "name": "_feeMultiplier",
          "type": "uint256"
        }
      ],
      "name": "setChainlinkJobID",
      "outputs": [],
      "stateMutability": "nonpayable",
      "type": "function"
    },
    {
      "inputs": [],
      "name": "slaRegistryAddress",
      "outputs": [
        {
          "internalType": "address",
          "name": "",
          "type": "address"
        }
      ],
      "stateMutability": "view",
      "type": "function",
      "constant": true
    },
    {
      "inputs": [],
      "name": "messengerPrecision",
      "outputs": [
        {
          "internalType": "uint256",
          "name": "",
          "type": "uint256"
        }
      ],
      "stateMutability": "view",
      "type": "function",
      "constant": true
    },
    {
      "inputs": [],
      "name": "oracle",
      "outputs": [
        {
          "internalType": "address",
          "name": "",
          "type": "address"
        }
      ],
      "stateMutability": "view",
      "type": "function",
      "constant": true
    },
    {
      "inputs": [],
      "name": "jobId",
      "outputs": [
        {
          "internalType": "bytes32",
          "name": "",
          "type": "bytes32"
        }
      ],
      "stateMutability": "view",
      "type": "function",
      "constant": true
    },
    {
      "inputs": [],
      "name": "fee",
      "outputs": [
        {
          "internalType": "uint256",
          "name": "",
          "type": "uint256"
        }
      ],
      "stateMutability": "view",
      "type": "function",
      "constant": true
    },
    {
      "inputs": [],
      "name": "requestsCounter",
      "outputs": [
        {
          "internalType": "uint256",
          "name": "",
          "type": "uint256"
        }
      ],
      "stateMutability": "view",
      "type": "function",
      "constant": true
    },
    {
      "inputs": [],
      "name": "fulfillsCounter",
      "outputs": [
        {
          "internalType": "uint256",
          "name": "",
          "type": "uint256"
        }
      ],
      "stateMutability": "view",
      "type": "function",
      "constant": true
    }
  ],
  "bytecode": "0x6080604052600160045567016345785d8a0000600d556103e8600f553480156200002857600080fd5b506040516200204a3803806200204a8339810160408190526200004b916200014a565b6000620000606001600160e01b036200010616565b600680546001600160a01b0319166001600160a01b038316908117909155604051919250906000907f8be0079c531659141344cd1fd0a4f28419497f9722a3daafe3b4186f6b6457e0908290a350600c839055620000c7846001600160e01b036200010a16565b600b80546001600160a01b039687166001600160a01b031991821617909155600a8054939096169216919091179093555050600d5402600e55620001aa565b3390565b600280546001600160a01b0319166001600160a01b0392909216919091179055565b80516001600160a01b03811681146200014457600080fd5b92915050565b600080600080600060a0868803121562000162578081fd5b6200016e87876200012c565b94506200017f87602088016200012c565b9350604086015192506200019787606088016200012c565b9150608086015190509295509295909350565b611e9080620001ba6000396000f3fe608060405234801561001057600080fd5b50600436106100f65760003560e01c806397a821921161009257806397a8219214610197578063a50c5425146101aa578063ae401eb9146101b2578063bc0bfc00146101d3578063c2939d97146101e6578063c9b0cb22146101ee578063ddca3f43146101f6578063f2fde38b146101fe578063f388158914610211576100f6565b806304e4fc01146100fb578063292733bf14610125578063663c22691461013a5780636e71890d1461014f578063715018a6146101645780637dc0d1d01461016c57806381d12c58146101745780638acb09a0146101875780638da5cb5b1461018f575b600080fd5b61010e6101093660046118a5565b610219565b60405161011c929190611adc565b60405180910390f35b6101386101333660046118d5565b6103cd565b005b610142610458565b60405161011c9190611ab1565b61015761045e565b60405161011c91906119d1565b61013861046d565b6101576104ec565b6101426101823660046118a5565b6104fb565b610157610519565b610157610528565b6101386101a5366004611915565b610537565b61014261092c565b6101c56101c03660046118a5565b610932565b60405161011c929190611a09565b6101386101e13660046118d5565b610957565b610142610b16565b610142610b1c565b610142610b22565b61013861020c366004611862565b610b28565b610138610bdf565b600080606061022784610c1c565b805190915060608167ffffffffffffffff8111801561024557600080fd5b506040519080825280601f01601f191660200182016040528015610270576020820181803683370190505b50905060608267ffffffffffffffff8111801561028c57600080fd5b506040519080825280601f01601f1916602001820160405280156102b7576020820181803683370190505b50905060005b838110156103a457600b60fa1b6001600160f81b0319168582815181106102e057fe5b01602001516001600160f81b031916141561039c5760005b818110156103425785818151811061030c57fe5b602001015160f81c60f81b84828151811061032357fe5b60200101906001600160f81b031916908160001a9053506001016102f8565b5060005b60018286030381101561039a57858183600101018151811061036457fe5b602001015160f81c60f81b83828151811061037b57fe5b60200101906001600160f81b031916908160001a905350600101610346565b505b6001016102bd565b5060006103b083610d2b565b905060006103bd83610d2b565b9197509095505050505050915091565b6103d5610dab565b6006546001600160a01b0390811691161461040b5760405162461bcd60e51b815260040161040290611d0a565b60405180910390fd5b600c829055600d548102600e81905560405133917f8e7e22d2820965fa1a8fa3ad76db76127e2f1baaf65f50c4e267f28b2254f7cb9161044c918691611adc565b60405180910390a25050565b60105490565b6009546001600160a01b031690565b610475610dab565b6006546001600160a01b039081169116146104a25760405162461bcd60e51b815260040161040290611d0a565b6006546040516000916001600160a01b0316907f8be0079c531659141344cd1fd0a4f28419497f9722a3daafe3b4186f6b6457e0908390a3600680546001600160a01b0319169055565b600b546001600160a01b031690565b6008818154811061050857fe5b600091825260209091200154905081565b600a546001600160a01b031681565b6006546001600160a01b031690565b6009546001600160a01b031633146105615760405162461bcd60e51b815260040161040290611c88565b60008390506000816001600160a01b03166346e0fbae6040518163ffffffff1660e01b815260040160206040518083038186803b1580156105a157600080fd5b505afa1580156105b5573d6000803e3d6000fd5b505050506040513d601f19601f820116820180604052508101906105d991906118f6565b90506000826001600160a01b03166378025ec460006040518263ffffffff1660e01b815260040161060a9190611ab1565b60206040518083038186803b15801561062257600080fd5b505afa158015610636573d6000803e3d6000fd5b505050506040513d601f19601f8201168201806040525081019061065a91906118bd565b600a54604051637e0ce26960e01b81529192506000916001600160a01b0390911690637e0ce2699061069490859087908d90600401611aba565b60206040518083038186803b1580156106ac57600080fd5b505afa1580156106c0573d6000803e3d6000fd5b505050506040513d601f19601f820116820180604052508101906106e491906118bd565b9050806107035760405162461bcd60e51b815260040161040290611c3c565b851561073c57610737610714610528565b30600e54610720610daf565b6001600160a01b031692919063ffffffff610dbe16565b61074c565b61074c8530600e54610720610daf565b6107546117fc565b600c546107689030622f02ff60ea1b610e1c565b90506107c9604051806040016040528060088152602001676a6f625f7479706560c01b815250604051806040016040528060128152602001717374616b696e675f656666696369656e637960701b81525083610e479092919063ffffffff16565b610805604051806040016040528060098152602001681c195c9a5bd917da5960ba1b8152506107f78b610e76565b83919063ffffffff610e4716565b6108356040518060400160405280600b81526020016a736c615f6164647265737360a81b8152506107f78a610f51565b6040805180820190915260198152786e6574776f726b5f616e616c79746963735f6164647265737360381b6020820152600a5461087f91906107f7906001600160a01b0316610f51565b600b54600e5460009161089f916001600160a01b039091169084906110cd565b6008805460018082019092557ff3f7a9fe364faab93b216da50a3214154f22a0a2b415b23a84c8169e8b636ee3018290556040805180820182526001600160a01b039c8d16815260208082019e8f526000948552600790529220915182546001600160a01b0319169b169a909a178155995199890199909955505060108054909601909555505050505050565b60115490565b600760205260009081526040902080546001909101546001600160a01b039091169082565b60008281526005602052604090205482906001600160a01b0316331461098f5760405162461bcd60e51b815260040161040290611d76565b60008181526005602052604080822080546001600160a01b03191690555182917f7cc135e0cebb02c3480ae5d74d377283180a2601f8f644edf7987b009316c63a91a2816109db611831565b506000848152600760209081526040918290208251808401845281546001600160a01b0316808252600190920154928101839052925187927f56514ef6e1ffd0f970ebf32dc181e476384e6e53a8351719040b4030318a933b91610a4191908790611adc565b60405180910390a3600080610a5584610219565b90925090506000610a6c838363ffffffff61120c16565b90506000610a9882610a8c600f546064028761123a90919063ffffffff16565b9063ffffffff61127416565b85516020870151604051636bd2e21160e11b81529293506001600160a01b039091169163d7a5c42291610ad091859190600401611adc565b600060405180830381600087803b158015610aea57600080fd5b505af1158015610afe573d6000803e3d6000fd5b50506011805460010190555050505050505050505050565b600c5490565b600f5490565b600e5490565b610b30610dab565b6006546001600160a01b03908116911614610b5d5760405162461bcd60e51b815260040161040290611d0a565b6001600160a01b038116610b835760405162461bcd60e51b815260040161040290611afd565b6006546040516001600160a01b038084169216907f8be0079c531659141344cd1fd0a4f28419497f9722a3daafe3b4186f6b6457e090600090a3600680546001600160a01b0319166001600160a01b0392909216919091179055565b6009546001600160a01b031615610c085760405162461bcd60e51b815260040161040290611bf4565b600980546001600160a01b03191633179055565b606060005b60208160ff16108015610c4f5750828160ff1660208110610c3e57fe5b1a60f81b6001600160f81b03191615155b15610c5c57600101610c21565b60608160ff1667ffffffffffffffff81118015610c7857600080fd5b506040519080825280601f01601f191660200182016040528015610ca3576020820181803683370190505b509050600091505b60208260ff16108015610cd95750838260ff1660208110610cc857fe5b1a60f81b6001600160f81b03191615155b15610d2257838260ff1660208110610ced57fe5b1a60f81b818360ff1681518110610d0057fe5b60200101906001600160f81b031916908160001a905350600190910190610cab565b9150505b919050565b6000805b8251811015610da5576030838281518110610d4657fe5b016020015160f81c10801590610d7057506039838281518110610d6557fe5b016020015160f81c11155b15610d9d576030838281518110610d8357fe5b602001015160f81c60f81b60f81c0360ff1682600a020191505b600101610d2f565b50919050565b3390565b6002546001600160a01b031690565b610e16846323b872dd60e01b858585604051602401610ddf939291906119e5565b60408051601f198184030181529190526020810180516001600160e01b03166001600160e01b0319909316929092179091526112a9565b50505050565b610e246117fc565b610e2c6117fc565b610e3e8186868663ffffffff61133816565b95945050505050565b6080830151610e5c908363ffffffff61137e16565b6080830151610e71908263ffffffff61137e16565b505050565b60608180610e9d5750506040805180820190915260018152600360fc1b6020820152610d26565b8060005b8115610eb557600101600a82049150610ea1565b60608167ffffffffffffffff81118015610ece57600080fd5b506040519080825280601f01601f191660200182016040528015610ef9576020820181803683370190505b50905060001982015b8415610f4757600a850660300160f81b82828060019003935081518110610f2557fe5b60200101906001600160f81b031916908160001a905350600a85049450610f02565b5095945050505050565b604080518082018252601081526f181899199a1a9b1b9c1cb0b131b232b360811b60208201528151602a80825260608281019094526001600160a01b03851692918491602082018180368337019050509050600360fc1b81600081518110610fb557fe5b60200101906001600160f81b031916908160001a905350600f60fb1b81600181518110610fde57fe5b60200101906001600160f81b031916908160001a90535060005b60148110156110c4578260048583600c016020811061101357fe5b1a60f81b6001600160f81b031916901c60f81c60ff168151811061103357fe5b602001015160f81c60f81b82826002026002018151811061105057fe5b60200101906001600160f81b031916908160001a905350828482600c016020811061107757fe5b825191901a600f1690811061108857fe5b602001015160f81c60f81b8282600202600301815181106110a557fe5b60200101906001600160f81b031916908160001a905350600101610ff8565b50949350505050565b6000306004546040516020016110e49291906119af565b60408051808303601f19018152918152815160209283012060045460608701526000818152600590935281832080546001600160a01b0319166001600160a01b038916179055905190925082917fb5e6e01e79f91267dc17b4e6314d5d4d03593d2ceee0fbb452b750bd70ea5af991a26002546001600160a01b0316634000aea085846111708761139b565b6040518463ffffffff1660e01b815260040161118e93929190611a8a565b602060405180830381600087803b1580156111a857600080fd5b505af11580156111bc573d6000803e3d6000fd5b505050506040513d601f19601f820116820180604052508101906111e09190611889565b6111fc5760405162461bcd60e51b815260040161040290611b7a565b6004805460010190559392505050565b6000828201838110156112315760405162461bcd60e51b815260040161040290611b43565b90505b92915050565b60008261124957506000611234565b8282028284828161125657fe5b04146112315760405162461bcd60e51b815260040161040290611cc9565b60008082116112955760405162461bcd60e51b815260040161040290611bbd565b60008284816112a057fe5b04949350505050565b60606112fe826040518060400160405280602081526020017f5361666545524332303a206c6f772d6c6576656c2063616c6c206661696c6564815250856001600160a01b03166114179092919063ffffffff16565b805190915015610e71578080602001905181019061131c9190611889565b610e715760405162461bcd60e51b815260040161040290611dbe565b6113406117fc565b6113508560800151610100611426565b50508284526001600160a01b03821660208501526001600160e01b031981166040850152835b949350505050565b61138b8260038351611460565b610e71828263ffffffff61156a16565b6060634042994660e01b600080846000015185602001518660400151876060015160018960800151600001516040516024016113de989796959493929190611a22565b60408051601f198184030181529190526020810180516001600160e01b03166001600160e01b0319909316929092179091529050919050565b60606113768484600085611584565b61142e611848565b60208206156114435760208206602003820191505b506020828101829052604080518085526000815290920101905290565b60178111611487576114818360e0600585901b16831763ffffffff61164816565b50610e71565b60ff81116114bd576114aa836018611fe0600586901b161763ffffffff61164816565b506114818382600163ffffffff61166016565b61ffff81116114f4576114e1836019611fe0600586901b161763ffffffff61164816565b506114818382600263ffffffff61166016565b63ffffffff811161152d5761151a83601a611fe0600586901b161763ffffffff61164816565b506114818382600463ffffffff61166016565b67ffffffffffffffff8111610e715761155783601b611fe0600586901b161763ffffffff61164816565b50610e168382600863ffffffff61166016565b611572611848565b61123183846000015151848551611679565b606061158f85611725565b6115ab5760405162461bcd60e51b815260040161040290611d3f565b60006060866001600160a01b031685876040516115c89190611993565b60006040518083038185875af1925050503d8060008114611605576040519150601f19603f3d011682016040523d82523d6000602084013e61160a565b606091505b5091509150811561161e5791506113769050565b80511561162e5780518082602001fd5b8360405162461bcd60e51b81526004016104029190611aea565b611650611848565b611231838460000151518461172b565b611668611848565b611376848560000151518585611776565b611681611848565b825182111561168f57600080fd5b846020015182850111156116b9576116b9856116b187602001518786016117d4565b6002026117e5565b6000808651805187602083010193508088870111156116d85787860182525b505050602084015b602084106116ff5780518252601f1990930192602091820191016116e0565b51815160001960208690036101000a019081169019919091161790525083949350505050565b3b151590565b611733611848565b8360200151831061174f5761174f8485602001516002026117e5565b83518051602085830101848153508085141561176c576001810182525b5093949350505050565b61177e611848565b8460200151848301111561179b5761179b858584016002026117e5565b60006001836101000a0390508551838682010185831982511617815250805184870111156117c95783860181525b509495945050505050565b600081831115610da5575081611234565b81516117f18383611426565b50610e16838261156a565b6040805160a08101825260008082526020820181905291810182905260608101919091526080810161182c611848565b905290565b604080518082019091526000808252602082015290565b604051806040016040528060608152602001600081525090565b600060208284031215611873578081fd5b81356001600160a01b0381168114611231578182fd5b60006020828403121561189a578081fd5b815161123181611e4c565b6000602082840312156118b6578081fd5b5035919050565b6000602082840312156118ce578081fd5b5051919050565b600080604083850312156118e7578081fd5b50508035926020909101359150565b600060208284031215611907578081fd5b815160068110611231578182fd5b6000806000806080858703121561192a578182fd5b84359350602085013561193c81611e34565b9250604085013561194c81611e4c565b9150606085013561195c81611e34565b939692955090935050565b6000815180845261197f816020860160208601611e08565b601f01601f19169290920160200192915050565b600082516119a5818460208701611e08565b9190910192915050565b60609290921b6bffffffffffffffffffffffff19168252601482015260340190565b6001600160a01b0391909116815260200190565b6001600160a01b039384168152919092166020820152604081019190915260600190565b6001600160a01b03929092168252602082015260400190565b6001600160a01b0389811682526020820189905260408201889052861660608201526001600160e01b03198516608082015260a0810184905260c0810183905261010060e08201819052600090611a7b83820185611967565b9b9a5050505050505050505050565b600060018060a01b038516825283602083015260606040830152610e3e6060830184611967565b90815260200190565b8381526060810160068410611acb57fe5b602082019390935260400152919050565b918252602082015260400190565b6000602082526112316020830184611967565b60208082526026908201527f4f776e61626c653a206e6577206f776e657220697320746865207a65726f206160408201526564647265737360d01b606082015260800190565b6020808252601b908201527f536166654d6174683a206164646974696f6e206f766572666c6f770000000000604082015260600190565b60208082526023908201527f756e61626c6520746f207472616e73666572416e6443616c6c20746f206f7261604082015262636c6560e81b606082015260800190565b6020808252601a908201527f536166654d6174683a206469766973696f6e206279207a65726f000000000000604082015260600190565b60208082526028908201527f534c41526567697374727920616464726573732068617320616c7265616479206040820152671899595b881cd95d60c21b606082015260800190565b6020808252602c908201527f4e6574776f726b20616e616c7974696373206f626a656374206973206e6f742060408201526b185cdcda59db9959081e595d60a21b606082015260800190565b60208082526021908201527f43616e206f6e6c792062652063616c6c656420627920534c41526567697374726040820152607960f81b606082015260800190565b60208082526021908201527f536166654d6174683a206d756c7469706c69636174696f6e206f766572666c6f6040820152607760f81b606082015260800190565b6020808252818101527f4f776e61626c653a2063616c6c6572206973206e6f7420746865206f776e6572604082015260600190565b6020808252601d908201527f416464726573733a2063616c6c20746f206e6f6e2d636f6e7472616374000000604082015260600190565b60208082526028908201527f536f75726365206d75737420626520746865206f7261636c65206f6620746865604082015267081c995c5d595cdd60c21b606082015260800190565b6020808252602a908201527f5361666545524332303a204552433230206f7065726174696f6e20646964206e6040820152691bdd081cdd58d8d9595960b21b606082015260800190565b60005b83811015611e23578181015183820152602001611e0b565b83811115610e165750506000910152565b6001600160a01b0381168114611e4957600080fd5b50565b8015158114611e4957600080fdfea2646970667358221220462f7e0ea28f5dac67d0cff026014c9e1b63a40313a8956b168c979fe0dceaaa64736f6c63430006060033",
  "immutableReferences": {},
  "source": "pragma solidity 0.6.6;\n\npragma experimental ABIEncoderV2;\n\nimport \"@chainlink/contracts/src/v0.6/ChainlinkClient.sol\";\nimport \"../../SLA.sol\";\nimport \"../../PeriodRegistry.sol\";\nimport \"../../StringUtils.sol\";\nimport \"./NetworkAnalytics.sol\";\nimport \"../../messenger/IMessenger.sol\";\nimport \"@openzeppelin/contracts/token/ERC20/ERC20.sol\";\nimport \"@openzeppelin/contracts/token/ERC20/SafeERC20.sol\";\n\n/**\n * @title SEMessenger\n * @dev Staking efficiency Messenger\n */\n\ncontract SEMessenger is ChainlinkClient, IMessenger, StringUtils {\n    using SafeERC20 for ERC20;\n\n    /// @dev Mapping that stores chainlink sli request information\n    mapping(bytes32 => SLIRequest) public requestIdToSLIRequest;\n    /// @dev Array with all request IDs\n    bytes32[] public requests;\n    /// @dev The address of the SLARegistry contract\n    address private _slaRegistryAddress;\n    /// @dev Network analytics contract address\n    address public networkAnalyticsAddress;\n    /// @dev Chainlink oracle address\n    address private _oracle;\n    /// @dev chainlink jobId\n    bytes32 private _jobId;\n    // @dev fee for Chainlink querys. Currently 0.1 LINK\n    uint256 private _baseFee = 0.1 ether;\n    /// @dev fee for Chainlink querys. Currently 0.1 LINK\n    uint256 private _fee;\n    /// @dev to multiply the SLI value and get better precision. Useful to deploy SLO correctly\n    uint256 private _messengerPrecision = 10**3;\n\n    uint256 private _requestsCounter;\n    uint256 private _fulfillsCounter;\n\n    /**\n     * @dev parameterize the variables according to network\n     * @notice sets the Chainlink parameters (oracle address, token address, jobId) and sets the SLARegistry to 0x0 address\n     * @param _messengerChainlinkOracle 1. the address of the oracle to create requests to\n     * @param _messengerChainlinkToken 2. the address of LINK token contract\n     * @param _messengerJobId 3. the job id for Staking efficiency job\n     * @param _networkAnalyticsAddress 4. Network analytics contract address\n     * @param _feeMultiplier 6. states the amount of paid nodes running behind the precoordinator, to set the fee\n     */\n    constructor(\n        address _messengerChainlinkOracle,\n        address _messengerChainlinkToken,\n        bytes32 _messengerJobId,\n        address _networkAnalyticsAddress,\n        uint256 _feeMultiplier\n    ) public {\n        _jobId = _messengerJobId;\n        setChainlinkToken(_messengerChainlinkToken);\n        _oracle = _messengerChainlinkOracle;\n        networkAnalyticsAddress = _networkAnalyticsAddress;\n        _fee = _feeMultiplier * _baseFee;\n    }\n\n    /**\n     * @dev event emitted when modifying the jobId\n     * @param owner 1. -\n     * @param jobId 2. -\n     * @param fee 3. -\n     */\n    event JobIdModified(address indexed owner, bytes32 jobId, uint256 fee);\n\n    /// @dev Throws if called by any address other than the SLARegistry contract or Chainlink Oracle.\n    modifier onlySLARegistry() {\n        require(\n            msg.sender == _slaRegistryAddress,\n            \"Can only be called by SLARegistry\"\n        );\n        _;\n    }\n\n    /**\n     * @dev sets the SLARegistry contract address and can only be called\n     * once\n     */\n    function setSLARegistry() public override {\n        // Only able to trigger this function once\n        require(\n            _slaRegistryAddress == address(0),\n            \"SLARegistry address has already been set\"\n        );\n\n        _slaRegistryAddress = msg.sender;\n    }\n\n    /**\n     * @dev creates a ChainLink request to get a new SLI value for the\n     * given params. Can only be called by the SLARegistry contract or Chainlink Oracle.\n     * @param _periodId 1. value of the period id\n     * @param _slaAddress 2. SLA Address\n     * @param _messengerOwnerApproval 3. if approval by owner or msg sender\n     */\n    function requestSLI(\n        uint256 _periodId,\n        address _slaAddress,\n        bool _messengerOwnerApproval,\n        address _callerAddress\n    ) public override onlySLARegistry {\n        SLA sla = SLA(_slaAddress);\n        PeriodRegistry.PeriodType periodType = sla.periodType();\n        // extraData[0] is the networkName for StakingEfficiency use case\n        bytes32 networkName = sla.extraData(0);\n        bytes32 ipfsAnalytics =\n            NetworkAnalytics(networkAnalyticsAddress).periodAnalytics(\n                networkName,\n                periodType,\n                _periodId\n            );\n        require(\n            ipfsAnalytics != 0,\n            \"Network analytics object is not assigned yet\"\n        );\n        if (_messengerOwnerApproval) {\n            ERC20(chainlinkTokenAddress()).safeTransferFrom(\n                owner(),\n                address(this),\n                _fee\n            );\n        } else {\n            ERC20(chainlinkTokenAddress()).safeTransferFrom(\n                _callerAddress,\n                address(this),\n                _fee\n            );\n        }\n        Chainlink.Request memory request =\n            buildChainlinkRequest(\n                _jobId,\n                address(this),\n                this.fulfillSLI.selector\n            );\n        request.add(\"job_type\", \"staking_efficiency\");\n        request.add(\"period_id\", _uintToStr(_periodId));\n        request.add(\"sla_address\", _addressToString(_slaAddress));\n        request.add(\n            \"network_analytics_address\",\n            _addressToString(networkAnalyticsAddress)\n        );\n\n        // Sends the request with 0.1 LINK to the oracle contract\n        bytes32 requestId = sendChainlinkRequestTo(_oracle, request, _fee);\n\n        requests.push(requestId);\n\n        requestIdToSLIRequest[requestId] = SLIRequest({\n            slaAddress: _slaAddress,\n            periodId: _periodId\n        });\n\n        _requestsCounter += 1;\n    }\n\n    /**\n     * @dev callback function for the Chainlink SLI request which stores\n     * the SLI in the SLA contract\n     * @param _requestId the ID of the ChainLink request\n     * @param _chainlinkResponseUint256 response object from Chainlink Oracles\n     */\n    function fulfillSLI(bytes32 _requestId, uint256 _chainlinkResponseUint256)\n        public\n        override\n        recordChainlinkFulfillment(_requestId)\n    {\n        bytes32 _chainlinkResponse = bytes32(_chainlinkResponseUint256);\n        SLIRequest memory request = requestIdToSLIRequest[_requestId];\n        emit SLIReceived(\n            request.slaAddress,\n            request.periodId,\n            _requestId,\n            _chainlinkResponse\n        );\n        (uint256 hits, uint256 misses) = parseSLIData(_chainlinkResponse);\n        uint256 total = hits.add(misses);\n        uint256 stakingEfficiency =\n            hits.mul(100 * _messengerPrecision).div(total);\n        SLA(request.slaAddress).registerSLI(\n            stakingEfficiency,\n            request.periodId\n        );\n\n        _fulfillsCounter += 1;\n    }\n\n    /**\n     * @dev recieves a string of \"hits,misses\" data and returns hits and misses as uint256\n     * @param sliData the ID of the ChainLink request\n     */\n    function parseSLIData(bytes32 sliData)\n        public\n        pure\n        returns (uint256, uint256)\n    {\n        bytes memory bytesSLIData = bytes(_bytes32ToStr(sliData));\n        uint256 sliDataLength = bytesSLIData.length;\n        bytes memory bytesHits = new bytes(sliDataLength);\n        bytes memory bytesMisses = new bytes(sliDataLength);\n        for (uint256 index; index < sliDataLength; index++) {\n            if (bytesSLIData[index] == bytes1(\",\")) {\n                for (uint256 index2 = 0; index2 < index; index2++) {\n                    bytesHits[index2] = bytesSLIData[index2];\n                }\n                for (\n                    uint256 index3 = 0;\n                    index3 < sliDataLength - index - 1;\n                    index3++\n                ) {\n                    bytesMisses[index3] = bytesSLIData[index + 1 + index3];\n                }\n            }\n        }\n        uint256 hits = _bytesToUint(bytesHits);\n        uint256 misses = _bytesToUint(bytesMisses);\n        return (hits, misses);\n    }\n\n    /**\n     * @dev sets a new jobId, which is a agreement Id of a PreCoordinator contract\n     * @param _newJobId the id of the PreCoordinator agreement\n     * @param _feeMultiplier how many Chainlink nodes would be paid on the agreement id, to set the fee value\n     */\n    function setChainlinkJobID(bytes32 _newJobId, uint256 _feeMultiplier)\n        public\n        onlyOwner\n    {\n        _jobId = _newJobId;\n        _fee = _feeMultiplier * _baseFee;\n        emit JobIdModified(msg.sender, _newJobId, _fee);\n    }\n\n    /**\n     * @dev returns the value of the sla registry address\n     */\n    function slaRegistryAddress() public view override returns (address) {\n        return _slaRegistryAddress;\n    }\n\n    /**\n     * @dev returns the value of the messenger precision\n     */\n    function messengerPrecision() public view override returns (uint256) {\n        return _messengerPrecision;\n    }\n\n    /**\n     * @dev returns the chainlink oracle contract address\n     */\n    function oracle() public view override returns (address) {\n        return _oracle;\n    }\n\n    /**\n     * @dev returns the chainlink job id\n     */\n    function jobId() public view override returns (bytes32) {\n        return _jobId;\n    }\n\n    /**\n     * @dev returns the chainlink fee value on LINK tokens\n     */\n    function fee() public view override returns (uint256) {\n        return _fee;\n    }\n\n    /**\n     * @dev returns the requestsCounter\n     */\n    function requestsCounter() public view override returns (uint256) {\n        return _requestsCounter;\n    }\n\n    /**\n     * @dev returns the fulfillsCounter\n     */\n    function fulfillsCounter() public view override returns (uint256) {\n        return _fulfillsCounter;\n    }\n}\n",
  "sourcePath": "/Users/wilhempujar/Development/stacktical-dsla-contracts/contracts/use-cases/staking-efficiency/SEMessenger.sol",
  "compiler": {
    "name": "solc",
    "version": "0.6.6+commit.6c089d02.Emscripten.clang"
  },
  "schemaVersion": "3.3.1",
  "updatedAt": "2021-04-02T14:26:32.276Z",
  "networkType": "ethereum",
  "devdoc": {
    "details": "Staking efficiency Messenger",
    "methods": {
      "constructor": {
        "details": "parameterize the variables according to network",
        "params": {
          "_feeMultiplier": "6. states the amount of paid nodes running behind the precoordinator, to set the fee",
          "_messengerChainlinkOracle": "1. the address of the oracle to create requests to",
          "_messengerChainlinkToken": "2. the address of LINK token contract",
          "_messengerJobId": "3. the job id for Staking efficiency job",
          "_networkAnalyticsAddress": "4. Network analytics contract address"
        }
      },
      "fee()": {
        "details": "returns the chainlink fee value on LINK tokens"
      },
      "fulfillSLI(bytes32,uint256)": {
        "details": "callback function for the Chainlink SLI request which stores the SLI in the SLA contract",
        "params": {
          "_chainlinkResponseUint256": "response object from Chainlink Oracles",
          "_requestId": "the ID of the ChainLink request"
        }
      },
      "fulfillsCounter()": {
        "details": "returns the fulfillsCounter"
      },
      "jobId()": {
        "details": "returns the chainlink job id"
      },
      "messengerPrecision()": {
        "details": "returns the value of the messenger precision"
      },
      "oracle()": {
        "details": "returns the chainlink oracle contract address"
      },
      "owner()": {
        "details": "Returns the address of the current owner."
      },
      "parseSLIData(bytes32)": {
        "details": "recieves a string of \"hits,misses\" data and returns hits and misses as uint256",
        "params": {
          "sliData": "the ID of the ChainLink request"
        }
      },
      "renounceOwnership()": {
        "details": "Leaves the contract without owner. It will not be possible to call `onlyOwner` functions anymore. Can only be called by the current owner.     * NOTE: Renouncing ownership will leave the contract without an owner, thereby removing any functionality that is only available to the owner."
      },
      "requestSLI(uint256,address,bool,address)": {
        "details": "creates a ChainLink request to get a new SLI value for the given params. Can only be called by the SLARegistry contract or Chainlink Oracle.",
        "params": {
          "_messengerOwnerApproval": "3. if approval by owner or msg sender",
          "_periodId": "1. value of the period id",
          "_slaAddress": "2. SLA Address"
        }
      },
      "requestsCounter()": {
        "details": "returns the requestsCounter"
      },
      "setChainlinkJobID(bytes32,uint256)": {
        "details": "sets a new jobId, which is a agreement Id of a PreCoordinator contract",
        "params": {
          "_feeMultiplier": "how many Chainlink nodes would be paid on the agreement id, to set the fee value",
          "_newJobId": "the id of the PreCoordinator agreement"
        }
      },
      "setSLARegistry()": {
        "details": "sets the SLARegistry contract address and can only be called once"
      },
      "slaRegistryAddress()": {
        "details": "returns the value of the sla registry address"
      },
      "transferOwnership(address)": {
        "details": "Transfers ownership of the contract to a new account (`newOwner`). Can only be called by the current owner."
      }
    },
    "title": "SEMessenger"
  },
  "userdoc": {
    "methods": {
      "constructor": "sets the Chainlink parameters (oracle address, token address, jobId) and sets the SLARegistry to 0x0 address"
    }
  }
}