{
  "contractName": "SEMessenger",
  "abi": [
    {
      "inputs": [
        {
          "internalType": "address",
          "name": "_messengerChainlinkOracle",
          "type": "address"
        },
        {
          "internalType": "address",
          "name": "_messengerChainlinkToken",
          "type": "address"
        },
        {
          "internalType": "bytes32",
          "name": "_messengerJobId",
          "type": "bytes32"
        },
        {
          "internalType": "address",
          "name": "_networkAnalyticsAddress",
          "type": "address"
        },
        {
          "internalType": "uint256",
          "name": "_feeMultiplier",
          "type": "uint256"
        }
      ],
      "stateMutability": "nonpayable",
      "type": "constructor"
    },
    {
      "anonymous": false,
      "inputs": [
        {
          "indexed": true,
          "internalType": "bytes32",
          "name": "id",
          "type": "bytes32"
        }
      ],
      "name": "ChainlinkCancelled",
      "type": "event"
    },
    {
      "anonymous": false,
      "inputs": [
        {
          "indexed": true,
          "internalType": "bytes32",
          "name": "id",
          "type": "bytes32"
        }
      ],
      "name": "ChainlinkFulfilled",
      "type": "event"
    },
    {
      "anonymous": false,
      "inputs": [
        {
          "indexed": true,
          "internalType": "bytes32",
          "name": "id",
          "type": "bytes32"
        }
      ],
      "name": "ChainlinkRequested",
      "type": "event"
    },
    {
      "anonymous": false,
      "inputs": [
        {
          "indexed": true,
          "internalType": "address",
          "name": "owner",
          "type": "address"
        },
        {
          "indexed": false,
          "internalType": "bytes32",
          "name": "jobId",
          "type": "bytes32"
        },
        {
          "indexed": false,
          "internalType": "uint256",
          "name": "fee",
          "type": "uint256"
        }
      ],
      "name": "JobIdModified",
      "type": "event"
    },
    {
      "anonymous": false,
      "inputs": [
        {
          "indexed": true,
          "internalType": "address",
          "name": "previousOwner",
          "type": "address"
        },
        {
          "indexed": true,
          "internalType": "address",
          "name": "newOwner",
          "type": "address"
        }
      ],
      "name": "OwnershipTransferred",
      "type": "event"
    },
    {
      "anonymous": false,
      "inputs": [
        {
          "indexed": true,
          "internalType": "address",
          "name": "slaAddress",
          "type": "address"
        },
        {
          "indexed": false,
          "internalType": "uint256",
          "name": "periodId",
          "type": "uint256"
        },
        {
          "indexed": true,
          "internalType": "bytes32",
          "name": "requestId",
          "type": "bytes32"
        },
        {
          "indexed": false,
          "internalType": "bytes32",
          "name": "chainlinkResponse",
          "type": "bytes32"
        }
      ],
      "name": "SLIReceived",
      "type": "event"
    },
    {
      "anonymous": false,
      "inputs": [
        {
          "indexed": true,
          "internalType": "address",
          "name": "caller",
          "type": "address"
        },
        {
          "indexed": false,
          "internalType": "uint256",
          "name": "requestsCounter",
          "type": "uint256"
        },
        {
          "indexed": false,
          "internalType": "bytes32",
          "name": "requestId",
          "type": "bytes32"
        }
      ],
      "name": "SLIRequested",
      "type": "event"
    },
    {
      "inputs": [],
      "name": "networkAnalyticsAddress",
      "outputs": [
        {
          "internalType": "address",
          "name": "",
          "type": "address"
        }
      ],
      "stateMutability": "view",
      "type": "function"
    },
    {
      "inputs": [],
      "name": "owner",
      "outputs": [
        {
          "internalType": "address",
          "name": "",
          "type": "address"
        }
      ],
      "stateMutability": "view",
      "type": "function"
    },
    {
      "inputs": [],
      "name": "renounceOwnership",
      "outputs": [],
      "stateMutability": "nonpayable",
      "type": "function"
    },
    {
      "inputs": [
        {
          "internalType": "bytes32",
          "name": "",
          "type": "bytes32"
        }
      ],
      "name": "requestIdToSLIRequest",
      "outputs": [
        {
          "internalType": "address",
          "name": "slaAddress",
          "type": "address"
        },
        {
          "internalType": "uint256",
          "name": "periodId",
          "type": "uint256"
        }
      ],
      "stateMutability": "view",
      "type": "function"
    },
    {
      "inputs": [
        {
          "internalType": "uint256",
          "name": "",
          "type": "uint256"
        }
      ],
      "name": "requests",
      "outputs": [
        {
          "internalType": "bytes32",
          "name": "",
          "type": "bytes32"
        }
      ],
      "stateMutability": "view",
      "type": "function"
    },
    {
      "inputs": [
        {
          "internalType": "address",
          "name": "newOwner",
          "type": "address"
        }
      ],
      "name": "transferOwnership",
      "outputs": [],
      "stateMutability": "nonpayable",
      "type": "function"
    },
    {
      "inputs": [],
      "name": "setSLARegistry",
      "outputs": [],
      "stateMutability": "nonpayable",
      "type": "function"
    },
    {
      "inputs": [
        {
          "internalType": "uint256",
          "name": "_periodId",
          "type": "uint256"
        },
        {
          "internalType": "address",
          "name": "_slaAddress",
          "type": "address"
        },
        {
          "internalType": "bool",
          "name": "_messengerOwnerApproval",
          "type": "bool"
        },
        {
          "internalType": "address",
          "name": "_callerAddress",
          "type": "address"
        }
      ],
      "name": "requestSLI",
      "outputs": [],
      "stateMutability": "nonpayable",
      "type": "function"
    },
    {
      "inputs": [
        {
          "internalType": "bytes32",
          "name": "_requestId",
          "type": "bytes32"
        },
        {
          "internalType": "uint256",
          "name": "_chainlinkResponseUint256",
          "type": "uint256"
        }
      ],
      "name": "fulfillSLI",
      "outputs": [],
      "stateMutability": "nonpayable",
      "type": "function"
    },
    {
      "inputs": [
        {
          "internalType": "bytes32",
          "name": "sliData",
          "type": "bytes32"
        }
      ],
      "name": "parseSLIData",
      "outputs": [
        {
          "internalType": "uint256",
          "name": "",
          "type": "uint256"
        },
        {
          "internalType": "uint256",
          "name": "",
          "type": "uint256"
        }
      ],
      "stateMutability": "pure",
      "type": "function"
    },
    {
      "inputs": [
        {
          "internalType": "bytes32",
          "name": "_newJobId",
          "type": "bytes32"
        },
        {
          "internalType": "uint256",
          "name": "_feeMultiplier",
          "type": "uint256"
        }
      ],
      "name": "setChainlinkJobID",
      "outputs": [],
      "stateMutability": "nonpayable",
      "type": "function"
    },
    {
      "inputs": [],
      "name": "slaRegistryAddress",
      "outputs": [
        {
          "internalType": "address",
          "name": "",
          "type": "address"
        }
      ],
      "stateMutability": "view",
      "type": "function"
    },
    {
      "inputs": [],
      "name": "messengerPrecision",
      "outputs": [
        {
          "internalType": "uint256",
          "name": "",
          "type": "uint256"
        }
      ],
      "stateMutability": "view",
      "type": "function"
    },
    {
      "inputs": [],
      "name": "oracle",
      "outputs": [
        {
          "internalType": "address",
          "name": "",
          "type": "address"
        }
      ],
      "stateMutability": "view",
      "type": "function"
    },
    {
      "inputs": [],
      "name": "jobId",
      "outputs": [
        {
          "internalType": "bytes32",
          "name": "",
          "type": "bytes32"
        }
      ],
      "stateMutability": "view",
      "type": "function"
    },
    {
      "inputs": [],
      "name": "fee",
      "outputs": [
        {
          "internalType": "uint256",
          "name": "",
          "type": "uint256"
        }
      ],
      "stateMutability": "view",
      "type": "function"
    },
    {
      "inputs": [],
      "name": "requestsCounter",
      "outputs": [
        {
          "internalType": "uint256",
          "name": "",
          "type": "uint256"
        }
      ],
      "stateMutability": "view",
      "type": "function"
    },
    {
      "inputs": [],
      "name": "fulfillsCounter",
      "outputs": [
        {
          "internalType": "uint256",
          "name": "",
          "type": "uint256"
        }
      ],
      "stateMutability": "view",
      "type": "function"
    }
  ],
  "bytecode": "0x60c060405260016004553480156200001657600080fd5b50604051620021bf380380620021bf83398101604081905262000039916200012e565b60006200004e6001600160e01b03620000ea16565b600680546001600160a01b0319166001600160a01b038316908117909155604051919250906000907f8be0079c531659141344cd1fd0a4f28419497f9722a3daafe3b4186f6b6457e0908290a3506001600755600b839055620000ba846001600160e01b03620000ee16565b6001600160601b0319606095861b811660a0529190941b16608052505067016345785d8a000002600c556200018e565b3390565b600280546001600160a01b0319166001600160a01b0392909216919091179055565b80516001600160a01b03811681146200012857600080fd5b92915050565b600080600080600060a0868803121562000146578081fd5b62000152878762000110565b945062000163876020880162000110565b9350604086015192506200017b876060880162000110565b9150608086015190509295509295909350565b60805160601c60a05160601c611ff8620001c7600039806104f4528061090f52508061053652806106bb52806108e45250611ff86000f3fe608060405234801561001057600080fd5b50600436106100f65760003560e01c806397a821921161009257806397a8219214610197578063a50c5425146101aa578063ae401eb9146101b2578063bc0bfc00146101d3578063c2939d97146101e6578063c9b0cb22146101ee578063ddca3f43146101f6578063f2fde38b146101fe578063f388158914610211576100f6565b806304e4fc01146100fb578063292733bf14610125578063663c22691461013a5780636e71890d1461014f578063715018a6146101645780637dc0d1d01461016c57806381d12c58146101745780638acb09a0146101875780638da5cb5b1461018f575b600080fd5b61010e6101093660046119d6565b610219565b60405161011c929190611c0d565b60405180910390f35b610138610133366004611a06565b6103cd565b005b61014261045e565b60405161011c9190611be2565b610157610464565b60405161011c9190611b02565b610138610473565b6101576104f2565b6101426101823660046119d6565b610516565b610157610534565b610157610558565b6101386101a5366004611a46565b610567565b610142610a34565b6101c56101c03660046119d6565b610a3a565b60405161011c929190611b3a565b6101386101e1366004611a06565b610a5f565b610142610c47565b610142610c4d565b610142610c53565b61013861020c366004611993565b610c59565b610138610d10565b600080606061022784610d4d565b805190915060608167ffffffffffffffff8111801561024557600080fd5b506040519080825280601f01601f191660200182016040528015610270576020820181803683370190505b50905060608267ffffffffffffffff8111801561028c57600080fd5b506040519080825280601f01601f1916602001820160405280156102b7576020820181803683370190505b50905060005b838110156103a457600b60fa1b6001600160f81b0319168582815181106102e057fe5b01602001516001600160f81b031916141561039c5760005b818110156103425785818151811061030c57fe5b602001015160f81c60f81b84828151811061032357fe5b60200101906001600160f81b031916908160001a9053506001016102f8565b5060005b60018286030381101561039a57858183600101018151811061036457fe5b602001015160f81c60f81b83828151811061037b57fe5b60200101906001600160f81b031916908160001a905350600101610346565b505b6001016102bd565b5060006103b083610e5c565b905060006103bd83610e5c565b9197509095505050505050915091565b6103d5610edc565b6006546001600160a01b0390811691161461040b5760405162461bcd60e51b815260040161040290611e3b565b60405180910390fd5b600b82905567016345785d8a00008102600c81905560405133917f8e7e22d2820965fa1a8fa3ad76db76127e2f1baaf65f50c4e267f28b2254f7cb91610452918691611c0d565b60405180910390a25050565b600d5490565b600a546001600160a01b031690565b61047b610edc565b6006546001600160a01b039081169116146104a85760405162461bcd60e51b815260040161040290611e3b565b6006546040516000916001600160a01b0316907f8be0079c531659141344cd1fd0a4f28419497f9722a3daafe3b4186f6b6457e0908390a3600680546001600160a01b0319169055565b7f000000000000000000000000000000000000000000000000000000000000000090565b6009818154811061052357fe5b600091825260209091200154905081565b7f000000000000000000000000000000000000000000000000000000000000000081565b6006546001600160a01b031690565b600a546001600160a01b031633146105915760405162461bcd60e51b815260040161040290611db9565b600260075414156105b45760405162461bcd60e51b815260040161040290611f39565b600260078190555060008390506000816001600160a01b03166346e0fbae6040518163ffffffff1660e01b815260040160206040518083038186803b1580156105fc57600080fd5b505afa158015610610573d6000803e3d6000fd5b505050506040513d601f19601f820116820180604052508101906106349190611a27565b90506000826001600160a01b03166378025ec460006040518263ffffffff1660e01b81526004016106659190611be2565b60206040518083038186803b15801561067d57600080fd5b505afa158015610691573d6000803e3d6000fd5b505050506040513d601f19601f820116820180604052508101906106b591906119ee565b905060007f00000000000000000000000000000000000000000000000000000000000000006001600160a01b0316637e0ce26983858b6040518463ffffffff1660e01b815260040161070993929190611beb565b60206040518083038186803b15801561072157600080fd5b505afa158015610735573d6000803e3d6000fd5b505050506040513d601f19601f8201168201806040525081019061075991906119ee565b9050806107785760405162461bcd60e51b815260040161040290611d6d565b85156107b1576107ac610789610558565b30600c54610795610ee0565b6001600160a01b031692919063ffffffff610eef16565b6107c1565b6107c18530600c54610795610ee0565b6107c961192d565b600b546107dd9030622f02ff60ea1b610f4d565b905061083e604051806040016040528060088152602001676a6f625f7479706560c01b815250604051806040016040528060128152602001717374616b696e675f656666696369656e637960701b81525083610f789092919063ffffffff16565b61087a604051806040016040528060098152602001681c195c9a5bd917da5960ba1b81525061086c8b610fa7565b83919063ffffffff610f7816565b6108aa6040518060400160405280600b81526020016a736c615f6164647265737360a81b81525061086c8a611082565b610908604051806040016040528060198152602001786e6574776f726b5f616e616c79746963735f6164647265737360381b81525061086c7f0000000000000000000000000000000000000000000000000000000000000000611082565b60006109377f000000000000000000000000000000000000000000000000000000000000000083600c546111fe565b9050600981908060018154018082558091505060019003906000526020600020016000909190919091505560405180604001604052808a6001600160a01b031681526020018b8152506008600083815260200190815260200160002060008201518160000160006101000a8154816001600160a01b0302191690836001600160a01b03160217905550602082015181600101559050506001600d60008282540192505081905550866001600160a01b03167feab5eb77e722078f3fab7eb6a77c74f7001181e1e3a74d51b7b5747ee1b31cb9600d5483604051610a1b929190611c0d565b60405180910390a2505060016007555050505050505050565b600e5490565b600860205260009081526040902080546001909101546001600160a01b039091169082565b60026007541415610a825760405162461bcd60e51b815260040161040290611f39565b600260075560008281526005602052604090205482906001600160a01b03163314610abf5760405162461bcd60e51b815260040161040290611ea7565b60008181526005602052604080822080546001600160a01b03191690555182917f7cc135e0cebb02c3480ae5d74d377283180a2601f8f644edf7987b009316c63a91a281610b0b611962565b506000848152600860209081526040918290208251808401845281546001600160a01b0316808252600190920154928101839052925187927f56514ef6e1ffd0f970ebf32dc181e476384e6e53a8351719040b4030318a933b91610b7191908790611c0d565b60405180910390a3600080610b8584610219565b90925090506000610b9c838363ffffffff61133d16565b90506000610bc382610bb786620186a063ffffffff61136b16565b9063ffffffff6113a516565b85516020870151604051636bd2e21160e11b81529293506001600160a01b039091169163d7a5c42291610bfb91859190600401611c0d565b600060405180830381600087803b158015610c1557600080fd5b505af1158015610c29573d6000803e3d6000fd5b5050600e805460019081019091556007555050505050505050505050565b600b5490565b6103e890565b600c5490565b610c61610edc565b6006546001600160a01b03908116911614610c8e5760405162461bcd60e51b815260040161040290611e3b565b6001600160a01b038116610cb45760405162461bcd60e51b815260040161040290611c2e565b6006546040516001600160a01b038084169216907f8be0079c531659141344cd1fd0a4f28419497f9722a3daafe3b4186f6b6457e090600090a3600680546001600160a01b0319166001600160a01b0392909216919091179055565b600a546001600160a01b031615610d395760405162461bcd60e51b815260040161040290611d25565b600a80546001600160a01b03191633179055565b606060005b60208160ff16108015610d805750828160ff1660208110610d6f57fe5b1a60f81b6001600160f81b03191615155b15610d8d57600101610d52565b60608160ff1667ffffffffffffffff81118015610da957600080fd5b506040519080825280601f01601f191660200182016040528015610dd4576020820181803683370190505b509050600091505b60208260ff16108015610e0a5750838260ff1660208110610df957fe5b1a60f81b6001600160f81b03191615155b15610e5357838260ff1660208110610e1e57fe5b1a60f81b818360ff1681518110610e3157fe5b60200101906001600160f81b031916908160001a905350600190910190610ddc565b9150505b919050565b6000805b8251811015610ed6576030838281518110610e7757fe5b016020015160f81c10801590610ea157506039838281518110610e9657fe5b016020015160f81c11155b15610ece576030838281518110610eb457fe5b602001015160f81c60f81b60f81c0360ff1682600a020191505b600101610e60565b50919050565b3390565b6002546001600160a01b031690565b610f47846323b872dd60e01b858585604051602401610f1093929190611b16565b60408051601f198184030181529190526020810180516001600160e01b03166001600160e01b0319909316929092179091526113da565b50505050565b610f5561192d565b610f5d61192d565b610f6f8186868663ffffffff61146916565b95945050505050565b6080830151610f8d908363ffffffff6114af16565b6080830151610fa2908263ffffffff6114af16565b505050565b60608180610fce5750506040805180820190915260018152600360fc1b6020820152610e57565b8060005b8115610fe657600101600a82049150610fd2565b60608167ffffffffffffffff81118015610fff57600080fd5b506040519080825280601f01601f19166020018201604052801561102a576020820181803683370190505b50905060001982015b841561107857600a850660300160f81b8282806001900393508151811061105657fe5b60200101906001600160f81b031916908160001a905350600a85049450611033565b5095945050505050565b604080518082018252601081526f181899199a1a9b1b9c1cb0b131b232b360811b60208201528151602a80825260608281019094526001600160a01b03851692918491602082018180368337019050509050600360fc1b816000815181106110e657fe5b60200101906001600160f81b031916908160001a905350600f60fb1b8160018151811061110f57fe5b60200101906001600160f81b031916908160001a90535060005b60148110156111f5578260048583600c016020811061114457fe5b1a60f81b6001600160f81b031916901c60f81c60ff168151811061116457fe5b602001015160f81c60f81b82826002026002018151811061118157fe5b60200101906001600160f81b031916908160001a905350828482600c01602081106111a857fe5b825191901a600f169081106111b957fe5b602001015160f81c60f81b8282600202600301815181106111d657fe5b60200101906001600160f81b031916908160001a905350600101611129565b50949350505050565b600030600454604051602001611215929190611ae0565b60408051808303601f19018152918152815160209283012060045460608701526000818152600590935281832080546001600160a01b0319166001600160a01b038916179055905190925082917fb5e6e01e79f91267dc17b4e6314d5d4d03593d2ceee0fbb452b750bd70ea5af991a26002546001600160a01b0316634000aea085846112a1876114cc565b6040518463ffffffff1660e01b81526004016112bf93929190611bbb565b602060405180830381600087803b1580156112d957600080fd5b505af11580156112ed573d6000803e3d6000fd5b505050506040513d601f19601f8201168201806040525081019061131191906119ba565b61132d5760405162461bcd60e51b815260040161040290611cab565b6004805460010190559392505050565b6000828201838110156113625760405162461bcd60e51b815260040161040290611c74565b90505b92915050565b60008261137a57506000611365565b8282028284828161138757fe5b04146113625760405162461bcd60e51b815260040161040290611dfa565b60008082116113c65760405162461bcd60e51b815260040161040290611cee565b60008284816113d157fe5b04949350505050565b606061142f826040518060400160405280602081526020017f5361666545524332303a206c6f772d6c6576656c2063616c6c206661696c6564815250856001600160a01b03166115489092919063ffffffff16565b805190915015610fa2578080602001905181019061144d91906119ba565b610fa25760405162461bcd60e51b815260040161040290611eef565b61147161192d565b6114818560800151610100611557565b50508284526001600160a01b03821660208501526001600160e01b031981166040850152835b949350505050565b6114bc8260038351611591565b610fa2828263ffffffff61169b16565b6060634042994660e01b6000808460000151856020015186604001518760600151600189608001516000015160405160240161150f989796959493929190611b53565b60408051601f198184030181529190526020810180516001600160e01b03166001600160e01b0319909316929092179091529050919050565b60606114a784846000856116b5565b61155f611979565b60208206156115745760208206602003820191505b506020828101829052604080518085526000815290920101905290565b601781116115b8576115b28360e0600585901b16831763ffffffff61177916565b50610fa2565b60ff81116115ee576115db836018611fe0600586901b161763ffffffff61177916565b506115b28382600163ffffffff61179116565b61ffff811161162557611612836019611fe0600586901b161763ffffffff61177916565b506115b28382600263ffffffff61179116565b63ffffffff811161165e5761164b83601a611fe0600586901b161763ffffffff61177916565b506115b28382600463ffffffff61179116565b67ffffffffffffffff8111610fa25761168883601b611fe0600586901b161763ffffffff61177916565b50610f478382600863ffffffff61179116565b6116a3611979565b611362838460000151518485516117aa565b60606116c085611856565b6116dc5760405162461bcd60e51b815260040161040290611e70565b60006060866001600160a01b031685876040516116f99190611ac4565b60006040518083038185875af1925050503d8060008114611736576040519150601f19603f3d011682016040523d82523d6000602084013e61173b565b606091505b5091509150811561174f5791506114a79050565b80511561175f5780518082602001fd5b8360405162461bcd60e51b81526004016104029190611c1b565b611781611979565b611362838460000151518461185c565b611799611979565b6114a78485600001515185856118a7565b6117b2611979565b82518211156117c057600080fd5b846020015182850111156117ea576117ea856117e28760200151878601611905565b600202611916565b6000808651805187602083010193508088870111156118095787860182525b505050602084015b602084106118305780518252601f199093019260209182019101611811565b51815160001960208690036101000a019081169019919091161790525083949350505050565b3b151590565b611864611979565b8360200151831061188057611880848560200151600202611916565b83518051602085830101848153508085141561189d576001810182525b5093949350505050565b6118af611979565b846020015184830111156118cc576118cc85858401600202611916565b60006001836101000a0390508551838682010185831982511617815250805184870111156118fa5783860181525b509495945050505050565b600081831115610ed6575081611365565b81516119228383611557565b50610f47838261169b565b6040805160a08101825260008082526020820181905291810182905260608101919091526080810161195d611979565b905290565b604080518082019091526000808252602082015290565b604051806040016040528060608152602001600081525090565b6000602082840312156119a4578081fd5b81356001600160a01b0381168114611362578182fd5b6000602082840312156119cb578081fd5b815161136281611fb4565b6000602082840312156119e7578081fd5b5035919050565b6000602082840312156119ff578081fd5b5051919050565b60008060408385031215611a18578081fd5b50508035926020909101359150565b600060208284031215611a38578081fd5b815160068110611362578182fd5b60008060008060808587031215611a5b578182fd5b843593506020850135611a6d81611f9c565b92506040850135611a7d81611fb4565b91506060850135611a8d81611f9c565b939692955090935050565b60008151808452611ab0816020860160208601611f70565b601f01601f19169290920160200192915050565b60008251611ad6818460208701611f70565b9190910192915050565b60609290921b6bffffffffffffffffffffffff19168252601482015260340190565b6001600160a01b0391909116815260200190565b6001600160a01b039384168152919092166020820152604081019190915260600190565b6001600160a01b03929092168252602082015260400190565b6001600160a01b0389811682526020820189905260408201889052861660608201526001600160e01b03198516608082015260a0810184905260c0810183905261010060e08201819052600090611bac83820185611a98565b9b9a5050505050505050505050565b600060018060a01b038516825283602083015260606040830152610f6f6060830184611a98565b90815260200190565b8381526060810160068410611bfc57fe5b602082019390935260400152919050565b918252602082015260400190565b6000602082526113626020830184611a98565b60208082526026908201527f4f776e61626c653a206e6577206f776e657220697320746865207a65726f206160408201526564647265737360d01b606082015260800190565b6020808252601b908201527f536166654d6174683a206164646974696f6e206f766572666c6f770000000000604082015260600190565b60208082526023908201527f756e61626c6520746f207472616e73666572416e6443616c6c20746f206f7261604082015262636c6560e81b606082015260800190565b6020808252601a908201527f536166654d6174683a206469766973696f6e206279207a65726f000000000000604082015260600190565b60208082526028908201527f534c41526567697374727920616464726573732068617320616c7265616479206040820152671899595b881cd95d60c21b606082015260800190565b6020808252602c908201527f4e6574776f726b20616e616c7974696373206f626a656374206973206e6f742060408201526b185cdcda59db9959081e595d60a21b606082015260800190565b60208082526021908201527f43616e206f6e6c792062652063616c6c656420627920534c41526567697374726040820152607960f81b606082015260800190565b60208082526021908201527f536166654d6174683a206d756c7469706c69636174696f6e206f766572666c6f6040820152607760f81b606082015260800190565b6020808252818101527f4f776e61626c653a2063616c6c6572206973206e6f7420746865206f776e6572604082015260600190565b6020808252601d908201527f416464726573733a2063616c6c20746f206e6f6e2d636f6e7472616374000000604082015260600190565b60208082526028908201527f536f75726365206d75737420626520746865206f7261636c65206f6620746865604082015267081c995c5d595cdd60c21b606082015260800190565b6020808252602a908201527f5361666545524332303a204552433230206f7065726174696f6e20646964206e6040820152691bdd081cdd58d8d9595960b21b606082015260800190565b6020808252601f908201527f5265656e7472616e637947756172643a207265656e7472616e742063616c6c00604082015260600190565b60005b83811015611f8b578181015183820152602001611f73565b83811115610f475750506000910152565b6001600160a01b0381168114611fb157600080fd5b50565b8015158114611fb157600080fdfea264697066735822122016826bcf40200287ecaaf143e932b12da4cceff62140794e01560f27d94a2e2f64736f6c63430006060033",
  "immutableReferences": {
    "5118": [
      {
        "length": 32,
        "start": 1334
      },
      {
        "length": 32,
        "start": 1723
      },
      {
        "length": 32,
        "start": 2276
      }
    ],
    "5120": [
      {
        "length": 32,
        "start": 1268
      },
      {
        "length": 32,
        "start": 2319
      }
    ]
  },
  "source": "pragma solidity 0.6.6;\n\npragma experimental ABIEncoderV2;\n\nimport \"@chainlink/contracts/src/v0.6/ChainlinkClient.sol\";\nimport \"../../SLA.sol\";\nimport \"../../PeriodRegistry.sol\";\nimport \"../../StringUtils.sol\";\nimport \"./NetworkAnalytics.sol\";\nimport \"../../messenger/IMessenger.sol\";\nimport \"@openzeppelin/contracts/token/ERC20/ERC20.sol\";\nimport \"@openzeppelin/contracts/token/ERC20/SafeERC20.sol\";\n\n/**\n * @title SEMessenger\n * @dev Staking efficiency Messenger\n */\n\ncontract SEMessenger is\n    ChainlinkClient,\n    IMessenger,\n    StringUtils,\n    ReentrancyGuard\n{\n    using SafeERC20 for ERC20;\n\n    /// @dev Mapping that stores chainlink sli request information\n    mapping(bytes32 => SLIRequest) public requestIdToSLIRequest;\n    /// @dev Array with all request IDs\n    bytes32[] public requests;\n    /// @dev The address of the SLARegistry contract\n    address private _slaRegistryAddress;\n    /// @dev Network analytics contract address\n    address public immutable networkAnalyticsAddress;\n    /// @dev Chainlink oracle address\n    address private immutable _oracle;\n    /// @dev chainlink jobId\n    bytes32 private _jobId;\n    // @dev fee for Chainlink querys. Currently 0.1 LINK\n    uint256 private constant _baseFee = 0.1 ether;\n    /// @dev fee for Chainlink querys. Currently 0.1 LINK\n    uint256 private _fee;\n    /// @dev to multiply the SLI value and get better precision. Useful to deploy SLO correctly\n    uint256 private constant _messengerPrecision = 10**3;\n\n    uint256 private _requestsCounter;\n    uint256 private _fulfillsCounter;\n\n    /**\n     * @dev parameterize the variables according to network\n     * @notice sets the Chainlink parameters (oracle address, token address, jobId) and sets the SLARegistry to 0x0 address\n     * @param _messengerChainlinkOracle 1. the address of the oracle to create requests to\n     * @param _messengerChainlinkToken 2. the address of LINK token contract\n     * @param _messengerJobId 3. the job id for Staking efficiency job\n     * @param _networkAnalyticsAddress 4. Network analytics contract address\n     * @param _feeMultiplier 6. states the amount of paid nodes running behind the precoordinator, to set the fee\n     */\n    constructor(\n        address _messengerChainlinkOracle,\n        address _messengerChainlinkToken,\n        bytes32 _messengerJobId,\n        address _networkAnalyticsAddress,\n        uint256 _feeMultiplier\n    ) public {\n        _jobId = _messengerJobId;\n        setChainlinkToken(_messengerChainlinkToken);\n        _oracle = _messengerChainlinkOracle;\n        networkAnalyticsAddress = _networkAnalyticsAddress;\n        _fee = _feeMultiplier * _baseFee;\n    }\n\n    /**\n     * @dev event emitted when modifying the jobId\n     * @param owner 1. -\n     * @param jobId 2. -\n     * @param fee 3. -\n     */\n    event JobIdModified(address indexed owner, bytes32 jobId, uint256 fee);\n\n    /**\n     * @dev event emitted when modifying the jobId\n     * @param caller 1. -\n     * @param requestsCounter 2. -\n     * @param requestId 3. -\n     */\n    event SLIRequested(\n        address indexed caller,\n        uint256 requestsCounter,\n        bytes32 requestId\n    );\n\n    /// @dev Throws if called by any address other than the SLARegistry contract or Chainlink Oracle.\n    modifier onlySLARegistry() {\n        require(\n            msg.sender == _slaRegistryAddress,\n            \"Can only be called by SLARegistry\"\n        );\n        _;\n    }\n\n    /**\n     * @dev sets the SLARegistry contract address and can only be called\n     * once\n     */\n    function setSLARegistry() public override {\n        // Only able to trigger this function once\n        require(\n            _slaRegistryAddress == address(0),\n            \"SLARegistry address has already been set\"\n        );\n\n        _slaRegistryAddress = msg.sender;\n    }\n\n    /**\n     * @dev creates a ChainLink request to get a new SLI value for the\n     * given params. Can only be called by the SLARegistry contract or Chainlink Oracle.\n     * @param _periodId 1. value of the period id\n     * @param _slaAddress 2. SLA Address\n     * @param _messengerOwnerApproval 3. if approval by owner or msg sender\n     */\n    function requestSLI(\n        uint256 _periodId,\n        address _slaAddress,\n        bool _messengerOwnerApproval,\n        address _callerAddress\n    ) public override onlySLARegistry nonReentrant {\n        SLA sla = SLA(_slaAddress);\n        PeriodRegistry.PeriodType periodType = sla.periodType();\n        // extraData[0] is the networkName for StakingEfficiency use case\n        bytes32 networkName = sla.extraData(0);\n        bytes32 ipfsAnalytics =\n            NetworkAnalytics(networkAnalyticsAddress).periodAnalytics(\n                networkName,\n                periodType,\n                _periodId\n            );\n        require(\n            ipfsAnalytics != 0,\n            \"Network analytics object is not assigned yet\"\n        );\n        if (_messengerOwnerApproval) {\n            ERC20(chainlinkTokenAddress()).safeTransferFrom(\n                owner(),\n                address(this),\n                _fee\n            );\n        } else {\n            ERC20(chainlinkTokenAddress()).safeTransferFrom(\n                _callerAddress,\n                address(this),\n                _fee\n            );\n        }\n        Chainlink.Request memory request =\n            buildChainlinkRequest(\n                _jobId,\n                address(this),\n                this.fulfillSLI.selector\n            );\n        request.add(\"job_type\", \"staking_efficiency\");\n        request.add(\"period_id\", _uintToStr(_periodId));\n        request.add(\"sla_address\", _addressToString(_slaAddress));\n        request.add(\n            \"network_analytics_address\",\n            _addressToString(networkAnalyticsAddress)\n        );\n\n        // Sends the request with 0.1 LINK to the oracle contract\n        bytes32 requestId = sendChainlinkRequestTo(_oracle, request, _fee);\n\n        requests.push(requestId);\n\n        requestIdToSLIRequest[requestId] = SLIRequest({\n            slaAddress: _slaAddress,\n            periodId: _periodId\n        });\n\n        _requestsCounter += 1;\n        emit SLIRequested(_callerAddress, _requestsCounter, requestId);\n    }\n\n    /**\n     * @dev callback function for the Chainlink SLI request which stores\n     * the SLI in the SLA contract\n     * @param _requestId the ID of the ChainLink request\n     * @param _chainlinkResponseUint256 response object from Chainlink Oracles\n     */\n    function fulfillSLI(bytes32 _requestId, uint256 _chainlinkResponseUint256)\n        external\n        override\n        nonReentrant\n        recordChainlinkFulfillment(_requestId)\n    {\n        bytes32 _chainlinkResponse = bytes32(_chainlinkResponseUint256);\n        SLIRequest memory request = requestIdToSLIRequest[_requestId];\n        emit SLIReceived(\n            request.slaAddress,\n            request.periodId,\n            _requestId,\n            _chainlinkResponse\n        );\n        (uint256 hits, uint256 misses) = parseSLIData(_chainlinkResponse);\n        uint256 total = hits.add(misses);\n        uint256 stakingEfficiency =\n            hits.mul(100 * _messengerPrecision).div(total);\n        SLA(request.slaAddress).registerSLI(\n            stakingEfficiency,\n            request.periodId\n        );\n\n        _fulfillsCounter += 1;\n    }\n\n    /**\n     * @dev recieves a string of \"hits,misses\" data and returns hits and misses as uint256\n     * @param sliData the ID of the ChainLink request\n     */\n    function parseSLIData(bytes32 sliData)\n        public\n        pure\n        returns (uint256, uint256)\n    {\n        bytes memory bytesSLIData = bytes(_bytes32ToStr(sliData));\n        uint256 sliDataLength = bytesSLIData.length;\n        bytes memory bytesHits = new bytes(sliDataLength);\n        bytes memory bytesMisses = new bytes(sliDataLength);\n        for (uint256 index; index < sliDataLength; index++) {\n            if (bytesSLIData[index] == bytes1(\",\")) {\n                for (uint256 index2 = 0; index2 < index; index2++) {\n                    bytesHits[index2] = bytesSLIData[index2];\n                }\n                for (\n                    uint256 index3 = 0;\n                    index3 < sliDataLength - index - 1;\n                    index3++\n                ) {\n                    bytesMisses[index3] = bytesSLIData[index + 1 + index3];\n                }\n            }\n        }\n        uint256 hits = _bytesToUint(bytesHits);\n        uint256 misses = _bytesToUint(bytesMisses);\n        return (hits, misses);\n    }\n\n    /**\n     * @dev sets a new jobId, which is a agreement Id of a PreCoordinator contract\n     * @param _newJobId the id of the PreCoordinator agreement\n     * @param _feeMultiplier how many Chainlink nodes would be paid on the agreement id, to set the fee value\n     */\n    function setChainlinkJobID(bytes32 _newJobId, uint256 _feeMultiplier)\n        external\n        onlyOwner\n    {\n        _jobId = _newJobId;\n        _fee = _feeMultiplier * _baseFee;\n        emit JobIdModified(msg.sender, _newJobId, _fee);\n    }\n\n    /**\n     * @dev returns the value of the sla registry address\n     */\n    function slaRegistryAddress() external view override returns (address) {\n        return _slaRegistryAddress;\n    }\n\n    /**\n     * @dev returns the value of the messenger precision\n     */\n    function messengerPrecision() external view override returns (uint256) {\n        return _messengerPrecision;\n    }\n\n    /**\n     * @dev returns the chainlink oracle contract address\n     */\n    function oracle() external view override returns (address) {\n        return _oracle;\n    }\n\n    /**\n     * @dev returns the chainlink job id\n     */\n    function jobId() external view override returns (bytes32) {\n        return _jobId;\n    }\n\n    /**\n     * @dev returns the chainlink fee value on LINK tokens\n     */\n    function fee() external view override returns (uint256) {\n        return _fee;\n    }\n\n    /**\n     * @dev returns the requestsCounter\n     */\n    function requestsCounter() external view override returns (uint256) {\n        return _requestsCounter;\n    }\n\n    /**\n     * @dev returns the fulfillsCounter\n     */\n    function fulfillsCounter() external view override returns (uint256) {\n        return _fulfillsCounter;\n    }\n}\n",
  "sourcePath": "/Users/matiasbn/Desktop/stacktical/stacktical-dsla-contracts/contracts/use-cases/staking-efficiency/SEMessenger.sol",
  "compiler": {
    "name": "solc",
    "version": "0.6.6+commit.6c089d02.Emscripten.clang"
  },
  "schemaVersion": "3.3.3",
  "updatedAt": "2021-04-09T19:31:58.040Z",
  "devdoc": {
    "details": "Staking efficiency Messenger",
    "methods": {
      "constructor": {
        "details": "parameterize the variables according to network",
        "params": {
          "_feeMultiplier": "6. states the amount of paid nodes running behind the precoordinator, to set the fee",
          "_messengerChainlinkOracle": "1. the address of the oracle to create requests to",
          "_messengerChainlinkToken": "2. the address of LINK token contract",
          "_messengerJobId": "3. the job id for Staking efficiency job",
          "_networkAnalyticsAddress": "4. Network analytics contract address"
        }
      },
      "fee()": {
        "details": "returns the chainlink fee value on LINK tokens"
      },
      "fulfillSLI(bytes32,uint256)": {
        "details": "callback function for the Chainlink SLI request which stores the SLI in the SLA contract",
        "params": {
          "_chainlinkResponseUint256": "response object from Chainlink Oracles",
          "_requestId": "the ID of the ChainLink request"
        }
      },
      "fulfillsCounter()": {
        "details": "returns the fulfillsCounter"
      },
      "jobId()": {
        "details": "returns the chainlink job id"
      },
      "messengerPrecision()": {
        "details": "returns the value of the messenger precision"
      },
      "oracle()": {
        "details": "returns the chainlink oracle contract address"
      },
      "owner()": {
        "details": "Returns the address of the current owner."
      },
      "parseSLIData(bytes32)": {
        "details": "recieves a string of \"hits,misses\" data and returns hits and misses as uint256",
        "params": {
          "sliData": "the ID of the ChainLink request"
        }
      },
      "renounceOwnership()": {
        "details": "Leaves the contract without owner. It will not be possible to call `onlyOwner` functions anymore. Can only be called by the current owner.     * NOTE: Renouncing ownership will leave the contract without an owner, thereby removing any functionality that is only available to the owner."
      },
      "requestSLI(uint256,address,bool,address)": {
        "details": "creates a ChainLink request to get a new SLI value for the given params. Can only be called by the SLARegistry contract or Chainlink Oracle.",
        "params": {
          "_messengerOwnerApproval": "3. if approval by owner or msg sender",
          "_periodId": "1. value of the period id",
          "_slaAddress": "2. SLA Address"
        }
      },
      "requestsCounter()": {
        "details": "returns the requestsCounter"
      },
      "setChainlinkJobID(bytes32,uint256)": {
        "details": "sets a new jobId, which is a agreement Id of a PreCoordinator contract",
        "params": {
          "_feeMultiplier": "how many Chainlink nodes would be paid on the agreement id, to set the fee value",
          "_newJobId": "the id of the PreCoordinator agreement"
        }
      },
      "setSLARegistry()": {
        "details": "sets the SLARegistry contract address and can only be called once"
      },
      "slaRegistryAddress()": {
        "details": "returns the value of the sla registry address"
      },
      "transferOwnership(address)": {
        "details": "Transfers ownership of the contract to a new account (`newOwner`). Can only be called by the current owner."
      }
    },
    "title": "SEMessenger"
  },
  "userdoc": {
    "methods": {
      "constructor": "sets the Chainlink parameters (oracle address, token address, jobId) and sets the SLARegistry to 0x0 address"
    }
  }
}