{
  "contractName": "SEMessenger",
  "abi": [
    {
      "inputs": [
        {
          "internalType": "address",
          "name": "_chainlinkOracle",
          "type": "address"
        },
        {
          "internalType": "address",
          "name": "_chainlinkToken",
          "type": "address"
        },
        {
          "internalType": "bytes32",
          "name": "_jobId",
          "type": "bytes32"
        },
        {
          "internalType": "address",
          "name": "_networkAnalyticsAddress",
          "type": "address"
        }
      ],
      "stateMutability": "nonpayable",
      "type": "constructor"
    },
    {
      "anonymous": false,
      "inputs": [
        {
          "indexed": true,
          "internalType": "bytes32",
          "name": "id",
          "type": "bytes32"
        }
      ],
      "name": "ChainlinkCancelled",
      "type": "event"
    },
    {
      "anonymous": false,
      "inputs": [
        {
          "indexed": true,
          "internalType": "bytes32",
          "name": "id",
          "type": "bytes32"
        }
      ],
      "name": "ChainlinkFulfilled",
      "type": "event"
    },
    {
      "anonymous": false,
      "inputs": [
        {
          "indexed": true,
          "internalType": "bytes32",
          "name": "id",
          "type": "bytes32"
        }
      ],
      "name": "ChainlinkRequested",
      "type": "event"
    },
    {
      "anonymous": false,
      "inputs": [
        {
          "indexed": true,
          "internalType": "address",
          "name": "slaAddress",
          "type": "address"
        },
        {
          "indexed": false,
          "internalType": "uint256",
          "name": "periodId",
          "type": "uint256"
        },
        {
          "indexed": true,
          "internalType": "bytes32",
          "name": "requestId",
          "type": "bytes32"
        },
        {
          "indexed": false,
          "internalType": "bytes32",
          "name": "chainlinkResponse",
          "type": "bytes32"
        }
      ],
      "name": "SLIReceived",
      "type": "event"
    },
    {
      "inputs": [],
      "name": "fee",
      "outputs": [
        {
          "internalType": "uint256",
          "name": "",
          "type": "uint256"
        }
      ],
      "stateMutability": "view",
      "type": "function",
      "constant": true
    },
    {
      "inputs": [],
      "name": "jobId",
      "outputs": [
        {
          "internalType": "bytes32",
          "name": "",
          "type": "bytes32"
        }
      ],
      "stateMutability": "view",
      "type": "function",
      "constant": true
    },
    {
      "inputs": [],
      "name": "networkAnalyticsAddress",
      "outputs": [
        {
          "internalType": "address",
          "name": "",
          "type": "address"
        }
      ],
      "stateMutability": "view",
      "type": "function",
      "constant": true
    },
    {
      "inputs": [],
      "name": "oracle",
      "outputs": [
        {
          "internalType": "address",
          "name": "",
          "type": "address"
        }
      ],
      "stateMutability": "view",
      "type": "function",
      "constant": true
    },
    {
      "inputs": [
        {
          "internalType": "bytes32",
          "name": "",
          "type": "bytes32"
        }
      ],
      "name": "requestIdToSLIRequest",
      "outputs": [
        {
          "internalType": "address",
          "name": "slaAddress",
          "type": "address"
        },
        {
          "internalType": "uint256",
          "name": "periodId",
          "type": "uint256"
        }
      ],
      "stateMutability": "view",
      "type": "function",
      "constant": true
    },
    {
      "inputs": [
        {
          "internalType": "uint256",
          "name": "",
          "type": "uint256"
        }
      ],
      "name": "requests",
      "outputs": [
        {
          "internalType": "bytes32",
          "name": "",
          "type": "bytes32"
        }
      ],
      "stateMutability": "view",
      "type": "function",
      "constant": true
    },
    {
      "inputs": [],
      "name": "slaRegistryAddress",
      "outputs": [
        {
          "internalType": "address",
          "name": "",
          "type": "address"
        }
      ],
      "stateMutability": "view",
      "type": "function",
      "constant": true
    },
    {
      "inputs": [],
      "name": "setSLARegistry",
      "outputs": [],
      "stateMutability": "nonpayable",
      "type": "function"
    },
    {
      "inputs": [
        {
          "internalType": "uint256",
          "name": "_periodId",
          "type": "uint256"
        },
        {
          "internalType": "address",
          "name": "_slaAddress",
          "type": "address"
        }
      ],
      "name": "requestSLI",
      "outputs": [],
      "stateMutability": "nonpayable",
      "type": "function"
    },
    {
      "inputs": [
        {
          "internalType": "bytes32",
          "name": "_requestId",
          "type": "bytes32"
        },
        {
          "internalType": "bytes32",
          "name": "_chainlinkResponse",
          "type": "bytes32"
        }
      ],
      "name": "fulfillSLI",
      "outputs": [],
      "stateMutability": "nonpayable",
      "type": "function"
    },
    {
      "inputs": [
        {
          "internalType": "bytes32",
          "name": "sliData",
          "type": "bytes32"
        }
      ],
      "name": "parseSLIData",
      "outputs": [
        {
          "internalType": "uint256",
          "name": "",
          "type": "uint256"
        },
        {
          "internalType": "uint256",
          "name": "",
          "type": "uint256"
        }
      ],
      "stateMutability": "pure",
      "type": "function",
      "constant": true
    }
  ],
  "bytecode": "0x6080604052600160045567016345785d8a0000600c553480156200002257600080fd5b50604051620018f3380380620018f38339810160408190526200004591620000cb565b600b82905562000055836200008b565b600a80546001600160a01b039586166001600160a01b031991821617909155600980549290951691161790925550620001219050565b600280546001600160a01b0319166001600160a01b0392909216919091179055565b80516001600160a01b0381168114620000c557600080fd5b92915050565b60008060008060808587031215620000e1578384fd5b620000ed8686620000ad565b9350620000fe8660208701620000ad565b925060408501519150620001168660608701620000ad565b905092959194509250565b6117c280620001316000396000f3fe608060405234801561001057600080fd5b50600436106100a95760003560e01c8063ad021f4911610071578063ad021f491461011d578063ae401eb914610132578063c2939d9714610153578063d19944081461015b578063ddca3f431461016e578063f388158914610176576100a9565b806304e4fc01146100ae5780636e71890d146100d85780637dc0d1d0146100ed57806381d12c58146100f55780638acb09a014610115575b600080fd5b6100c16100bc366004611371565b61017e565b6040516100cf92919061177e565b60405180910390f35b6100e0610332565b6040516100cf9190611488565b6100e0610341565b610108610103366004611371565b610350565b6040516100cf9190611544565b6100e061036e565b61013061012b3660046113a1565b61037d565b005b610145610140366004611371565b610523565b6040516100cf92919061149c565b610108610548565b6101306101693660046113e1565b61054e565b6101086108ea565b6101306108f0565b600080606061018c8461092d565b805190915060608167ffffffffffffffff811180156101aa57600080fd5b506040519080825280601f01601f1916602001820160405280156101d5576020820181803683370190505b50905060608267ffffffffffffffff811180156101f157600080fd5b506040519080825280601f01601f19166020018201604052801561021c576020820181803683370190505b50905060005b8381101561030957600b60fa1b6001600160f81b03191685828151811061024557fe5b01602001516001600160f81b03191614156103015760005b818110156102a75785818151811061027157fe5b602001015160f81c60f81b84828151811061028857fe5b60200101906001600160f81b031916908160001a90535060010161025d565b5060005b6001828603038110156102ff5785818360010101815181106102c957fe5b602001015160f81c60f81b8382815181106102e057fe5b60200101906001600160f81b031916908160001a9053506001016102ab565b505b600101610222565b50600061031583610a3c565b9050600061032283610a3c565b9197509095505050505050915091565b6008546001600160a01b031681565b600a546001600160a01b031681565b6007818154811061035d57fe5b600091825260209091200154905081565b6009546001600160a01b031681565b60008281526005602052604090205482906001600160a01b031633146103be5760405162461bcd60e51b81526004016103b590611736565b60405180910390fd5b60008181526005602052604080822080546001600160a01b03191690555182917f7cc135e0cebb02c3480ae5d74d377283180a2601f8f644edf7987b009316c63a91a26104096112eb565b506000838152600660209081526040918290208251808401845281546001600160a01b0316808252600190920154928101839052925186927f56514ef6e1ffd0f970ebf32dc181e476384e6e53a8351719040b4030318a933b9161046f9190889061177e565b60405180910390a36000806104838561017e565b909250905060006104948383610abc565b905060006104af826104a986620186a0610aea565b90610b24565b85516020870151604051636bd2e21160e11b81529293506001600160a01b039091169163d7a5c422916104e79185919060040161177e565b600060405180830381600087803b15801561050157600080fd5b505af1158015610515573d6000803e3d6000fd5b505050505050505050505050565b600660205260009081526040902080546001909101546001600160a01b039091169082565b600b5481565b6008546001600160a01b031633146105785760405162461bcd60e51b81526004016103b5906116b4565b60008190506000816001600160a01b03166346e0fbae6040518163ffffffff1660e01b815260040160206040518083038186803b1580156105b857600080fd5b505afa1580156105cc573d6000803e3d6000fd5b505050506040513d601f19601f820116820180604052508101906105f091906113c2565b90506000826001600160a01b03166378025ec460006040518263ffffffff1660e01b81526004016106219190611544565b60206040518083038186803b15801561063957600080fd5b505afa15801561064d573d6000803e3d6000fd5b505050506040513d601f19601f820116820180604052508101906106719190611389565b600954604051637e0ce26960e01b81529192506000916001600160a01b0390911690637e0ce269906106ab90859087908b9060040161154d565b60206040518083038186803b1580156106c357600080fd5b505afa1580156106d7573d6000803e3d6000fd5b505050506040513d601f19601f820116820180604052508101906106fb9190611389565b90508061071a5760405162461bcd60e51b81526004016103b590611668565b610722611302565b600b54610737903063ad021f4960e01b610b59565b9050610798604051806040016040528060088152602001676a6f625f7479706560c01b815250604051806040016040528060128152602001717374616b696e675f656666696369656e637960701b81525083610b7e9092919063ffffffff16565b6107ce604051806040016040528060098152602001681c195c9a5bd917da5960ba1b8152506107c689610ba1565b839190610b7e565b6107fe6040518060400160405280600b81526020016a736c615f6164647265737360a81b8152506107c688610c7c565b6040805180820190915260198152786e6574776f726b5f616e616c79746963735f6164647265737360381b602082015260095461084891906107c6906001600160a01b0316610c7c565b600a54600c54600091610868916001600160a01b03909116908490610df8565b6007805460018082019092557fa66cc928b5edb82af9bd49922954155ab7b0942694bea4ce44661d9a8736c688018290556040805180820182526001600160a01b039a8b16815260208082019c8d526000948552600690529220915182546001600160a01b031916991698909817815597519790960196909655505050505050565b600c5481565b6008546001600160a01b0316156109195760405162461bcd60e51b81526004016103b590611620565b600880546001600160a01b03191633179055565b606060005b60208160ff161080156109605750828160ff166020811061094f57fe5b1a60f81b6001600160f81b03191615155b1561096d57600101610932565b60608160ff1667ffffffffffffffff8111801561098957600080fd5b506040519080825280601f01601f1916602001820160405280156109b4576020820181803683370190505b509050600091505b60208260ff161080156109ea5750838260ff16602081106109d957fe5b1a60f81b6001600160f81b03191615155b15610a3357838260ff16602081106109fe57fe5b1a60f81b818360ff1681518110610a1157fe5b60200101906001600160f81b031916908160001a9053506001909101906109bc565b9150505b919050565b6000805b8251811015610ab6576030838281518110610a5757fe5b016020015160f81c10801590610a8157506039838281518110610a7657fe5b016020015160f81c11155b15610aae576030838281518110610a9457fe5b602001015160f81c60f81b60f81c0360ff1682600a020191505b600101610a40565b50919050565b600082820183811015610ae15760405162461bcd60e51b81526004016103b59061156f565b90505b92915050565b600082610af957506000610ae4565b82820282848281610b0657fe5b0414610ae15760405162461bcd60e51b81526004016103b5906116f5565b6000808211610b455760405162461bcd60e51b81526004016103b5906115e9565b6000828481610b5057fe5b04949350505050565b610b61611302565b610b69611302565b610b7581868686610f37565b95945050505050565b6080830151610b8d9083610f74565b6080830151610b9c9082610f74565b505050565b60608180610bc85750506040805180820190915260018152600360fc1b6020820152610a37565b8060005b8115610be057600101600a82049150610bcc565b60608167ffffffffffffffff81118015610bf957600080fd5b506040519080825280601f01601f191660200182016040528015610c24576020820181803683370190505b50905060001982015b8415610c7257600a850660300160f81b82828060019003935081518110610c5057fe5b60200101906001600160f81b031916908160001a905350600a85049450610c2d565b5095945050505050565b604080518082018252601081526f181899199a1a9b1b9c1cb0b131b232b360811b60208201528151602a80825260608281019094526001600160a01b03851692918491602082018180368337019050509050600360fc1b81600081518110610ce057fe5b60200101906001600160f81b031916908160001a905350600f60fb1b81600181518110610d0957fe5b60200101906001600160f81b031916908160001a90535060005b6014811015610def578260048583600c0160208110610d3e57fe5b1a60f81b6001600160f81b031916901c60f81c60ff1681518110610d5e57fe5b602001015160f81c60f81b828260020260020181518110610d7b57fe5b60200101906001600160f81b031916908160001a905350828482600c0160208110610da257fe5b825191901a600f16908110610db357fe5b602001015160f81c60f81b828260020260030181518110610dd057fe5b60200101906001600160f81b031916908160001a905350600101610d23565b50949350505050565b600030600454604051602001610e0f929190611466565b60408051808303601f19018152918152815160209283012060045460608701526000818152600590935281832080546001600160a01b0319166001600160a01b038916179055905190925082917fb5e6e01e79f91267dc17b4e6314d5d4d03593d2ceee0fbb452b750bd70ea5af991a26002546001600160a01b0316634000aea08584610e9b87610f8b565b6040518463ffffffff1660e01b8152600401610eb99392919061151d565b602060405180830381600087803b158015610ed357600080fd5b505af1158015610ee7573d6000803e3d6000fd5b505050506040513d601f19601f82011682018060405250810190610f0b9190611351565b610f275760405162461bcd60e51b81526004016103b5906115a6565b6004805460010190559392505050565b610f3f611302565b610f4f8560800151610100611007565b50509183526001600160a01b031660208301526001600160e01b031916604082015290565b610f818260038351611041565b610b9c828261111b565b6060634042994660e01b60008084600001518560200151866040015187606001516001896080015160000151604051602401610fce9897969594939291906114b5565b60408051601f198184030181529190526020810180516001600160e01b03166001600160e01b0319909316929092179091529050919050565b61100f611337565b60208206156110245760208206602003820191505b506020828101829052604080518085526000815290920101905290565b601781116110625761105c8360e0600585901b168317611135565b50610b9c565b60ff811161108c5761107f836018611fe0600586901b1617611135565b5061105c8382600161114d565b61ffff81116110b7576110aa836019611fe0600586901b1617611135565b5061105c8382600261114d565b63ffffffff81116110e4576110d783601a611fe0600586901b1617611135565b5061105c8382600461114d565b67ffffffffffffffff8111610b9c5761110883601b611fe0600586901b1617611135565b506111158382600861114d565b50505050565b611123611337565b610ae18384600001515184855161116e565b61113d611337565b610ae1838460000151518461121a565b611155611337565b611166848560000151518585611265565b949350505050565b611176611337565b825182111561118457600080fd5b846020015182850111156111ae576111ae856111a687602001518786016112c3565b6002026112d4565b6000808651805187602083010193508088870111156111cd5787860182525b505050602084015b602084106111f45780518252601f1990930192602091820191016111d5565b51815160001960208690036101000a019081169019919091161790525083949350505050565b611222611337565b8360200151831061123e5761123e8485602001516002026112d4565b83518051602085830101848153508085141561125b576001810182525b5093949350505050565b61126d611337565b8460200151848301111561128a5761128a858584016002026112d4565b60006001836101000a0390508551838682010185831982511617815250805184870111156112b85783860181525b509495945050505050565b600081831115610ab6575081610ae4565b81516112e08383611007565b50611115838261111b565b604080518082019091526000808252602082015290565b6040805160a081018252600080825260208201819052918101829052606081019190915260808101611332611337565b905290565b604051806040016040528060608152602001600081525090565b600060208284031215611362578081fd5b81518015158114610ae1578182fd5b600060208284031215611382578081fd5b5035919050565b60006020828403121561139a578081fd5b5051919050565b600080604083850312156113b3578081fd5b50508035926020909101359150565b6000602082840312156113d3578081fd5b815160068110610ae1578182fd5b600080604083850312156113f3578182fd5b8235915060208301356001600160a01b0381168114611410578182fd5b809150509250929050565b60008151808452815b8181101561144057602081850181015186830182015201611424565b818111156114515782602083870101525b50601f01601f19169290920160200192915050565b60609290921b6bffffffffffffffffffffffff19168252601482015260340190565b6001600160a01b0391909116815260200190565b6001600160a01b03929092168252602082015260400190565b6001600160a01b0389811682526020820189905260408201889052861660608201526001600160e01b03198516608082015260a0810184905260c0810183905261010060e0820181905260009061150e8382018561141b565b9b9a5050505050505050505050565b600060018060a01b038516825283602083015260606040830152610b75606083018461141b565b90815260200190565b838152606081016006841061155e57fe5b602082019390935260400152919050565b6020808252601b908201527f536166654d6174683a206164646974696f6e206f766572666c6f770000000000604082015260600190565b60208082526023908201527f756e61626c6520746f207472616e73666572416e6443616c6c20746f206f7261604082015262636c6560e81b606082015260800190565b6020808252601a908201527f536166654d6174683a206469766973696f6e206279207a65726f000000000000604082015260600190565b60208082526028908201527f534c41526567697374727920616464726573732068617320616c7265616479206040820152671899595b881cd95d60c21b606082015260800190565b6020808252602c908201527f4e6574776f726b20616e616c7974696373206f626a656374206973206e6f742060408201526b185cdcda59db9959081e595d60a21b606082015260800190565b60208082526021908201527f43616e206f6e6c792062652063616c6c656420627920534c41526567697374726040820152607960f81b606082015260800190565b60208082526021908201527f536166654d6174683a206d756c7469706c69636174696f6e206f766572666c6f6040820152607760f81b606082015260800190565b60208082526028908201527f536f75726365206d75737420626520746865206f7261636c65206f6620746865604082015267081c995c5d595cdd60c21b606082015260800190565b91825260208201526040019056fea26469706673582212205c277f80817c42147b7ab1d362bee6bee2458375a8436dc222ec7f5220a80bd664736f6c634300060c0033",
  "immutableReferences": {},
  "source": "pragma solidity ^0.6.0;\npragma experimental ABIEncoderV2;\n\nimport \"@chainlink/contracts/src/v0.6/ChainlinkClient.sol\";\nimport \"../SLA.sol\";\nimport \"../SLO.sol\";\nimport \"../PeriodRegistry.sol\";\nimport \"../StringUtils.sol\";\nimport \"./NetworkAnalytics.sol\";\nimport \"../messenger/IMessenger.sol\";\n\n/**\n * @title SEMessenger\n * @dev Staking efficiency Messenger\n */\n\ncontract SEMessenger is ChainlinkClient, IMessenger, StringUtils {\n    /// @dev Mapping that stores chainlink sli request information\n    mapping(bytes32 => SLIRequest) public requestIdToSLIRequest;\n    /// @dev Array with all request IDs\n    bytes32[] public requests;\n    /// @dev The address of the SLARegistry contract\n    address public slaRegistryAddress;\n    /// @dev Network analytics contract address\n    address public networkAnalyticsAddress;\n    /// @dev Chainlink oracle address\n    address public oracle;\n    /// @dev chainlink jobId\n    bytes32 public jobId;\n    /// @dev fee for Chainlink querys. Currently 0.1 LINK\n    uint256 public fee = 0.1 * 10**18;\n\n    /**\n     * @dev parameterize the variables according to network\n     * @notice sets the Chainlink parameters (oracle address, token address, jobId) and sets the SLARegistry to 0x0 address\n     * @param _chainlinkOracle 1. the address of the oracle to create requests to\n     * @param _chainlinkToken 2. the address of LINK token contract\n     * @param _jobId 3. the job id for Staking efficiency job\n     * @param _networkAnalyticsAddress 4. Network analytics contract address\n     */\n    constructor(\n        address _chainlinkOracle,\n        address _chainlinkToken,\n        bytes32 _jobId,\n        address _networkAnalyticsAddress\n    ) public {\n        jobId = _jobId;\n        setChainlinkToken(_chainlinkToken);\n        oracle = _chainlinkOracle;\n        networkAnalyticsAddress = _networkAnalyticsAddress;\n    }\n\n    /// @dev Throws if called by any address other than the SLARegistry contract or Chainlink Oracle.\n    modifier onlySLARegistry() {\n        require(\n            msg.sender == slaRegistryAddress,\n            \"Can only be called by SLARegistry\"\n        );\n        _;\n    }\n\n    /**\n     * @dev sets the SLARegistry contract address and can only be called\n     * once\n     */\n    function setSLARegistry() public override {\n        // Only able to trigger this function once\n        require(\n            slaRegistryAddress == address(0),\n            \"SLARegistry address has already been set\"\n        );\n\n        slaRegistryAddress = msg.sender;\n    }\n\n    /**\n     * @dev creates a ChainLink request to get a new SLI value for the\n     * given params. Can only be called by the SLARegistry contract or Chainlink Oracle.\n     * @param _periodId value of the period id\n     * @param _slaAddress SLA Address\n     */\n\n    function requestSLI(uint256 _periodId, address _slaAddress)\n        public\n        override\n        onlySLARegistry\n    {\n        SLA sla = SLA(_slaAddress);\n        PeriodRegistry.PeriodType periodType = sla.periodType();\n        // extraData[0] is the networkName for StakingEfficiency use case\n        bytes32 networkName = sla.extraData(0);\n        bytes32 ipfsAnalytics =\n            NetworkAnalytics(networkAnalyticsAddress).periodAnalytics(\n                networkName,\n                periodType,\n                _periodId\n            );\n        require(\n            ipfsAnalytics != 0,\n            \"Network analytics object is not assigned yet\"\n        );\n        Chainlink.Request memory request =\n            buildChainlinkRequest(\n                jobId,\n                address(this),\n                this.fulfillSLI.selector\n            );\n        request.add(\"job_type\", \"staking_efficiency\");\n        request.add(\"period_id\", _uintToStr(_periodId));\n        request.add(\"sla_address\", _addressToString(_slaAddress));\n        request.add(\n            \"network_analytics_address\",\n            _addressToString(networkAnalyticsAddress)\n        );\n\n        // Sends the request with 0.1 LINK to the oracle contract\n        bytes32 requestId = sendChainlinkRequestTo(oracle, request, fee);\n\n        requests.push(requestId);\n\n        requestIdToSLIRequest[requestId] = SLIRequest({\n            slaAddress: _slaAddress,\n            periodId: _periodId\n        });\n    }\n\n    /**\n     * @dev callback function for the Chainlink SLI request which stores\n     * the SLI in the SLA contract\n     * @param _requestId the ID of the ChainLink request\n     * @param _chainlinkResponse response object from Chainlink Oracles\n     */\n    function fulfillSLI(bytes32 _requestId, bytes32 _chainlinkResponse)\n        public\n        override\n        recordChainlinkFulfillment(_requestId)\n    {\n        SLIRequest memory request = requestIdToSLIRequest[_requestId];\n        emit SLIReceived(\n            request.slaAddress,\n            request.periodId,\n            _requestId,\n            _chainlinkResponse\n        );\n        (uint256 hits, uint256 misses) = parseSLIData(_chainlinkResponse);\n        uint256 total = hits.add(misses);\n        uint256 stakingEfficiency = hits.mul(100 * 1000).div(total);\n        SLA(request.slaAddress).registerSLI(\n            stakingEfficiency,\n            request.periodId\n        );\n    }\n\n    /**\n     * @dev recieves a string of \"hits,misses\" data and returns hits and misses as uint256\n     * @param sliData the ID of the ChainLink request\n     */\n    function parseSLIData(bytes32 sliData)\n        public\n        pure\n        returns (uint256, uint256)\n    {\n        bytes memory bytesSLIData = bytes(_bytes32ToStr(sliData));\n        uint256 sliDataLength = bytesSLIData.length;\n        bytes memory bytesHits = new bytes(sliDataLength);\n        bytes memory bytesMisses = new bytes(sliDataLength);\n        for (uint256 index; index < sliDataLength; index++) {\n            if (bytesSLIData[index] == bytes1(\",\")) {\n                for (uint256 index2 = 0; index2 < index; index2++) {\n                    bytesHits[index2] = bytesSLIData[index2];\n                }\n                for (\n                    uint256 index3 = 0;\n                    index3 < sliDataLength - index - 1;\n                    index3++\n                ) {\n                    bytesMisses[index3] = bytesSLIData[index + 1 + index3];\n                }\n            }\n        }\n        uint256 hits = _bytesToUint(bytesHits);\n        uint256 misses = _bytesToUint(bytesMisses);\n        return (hits, misses);\n    }\n}\n",
  "sourcePath": "/Users/matiasbn/Desktop/stacktical/stacktical-dsla-contracts/contracts/staking-efficiency/SEMessenger.sol",
  "compiler": {
    "name": "solc",
    "version": "0.6.12+commit.27d51765.Emscripten.clang"
  },
  "schemaVersion": "3.3.3",
  "updatedAt": "2021-02-19T15:27:36.310Z",
  "networkType": "ethereum",
  "devdoc": {
    "details": "Staking efficiency Messenger",
    "kind": "dev",
    "methods": {
      "constructor": {
        "details": "parameterize the variables according to network",
        "params": {
          "_chainlinkOracle": "1. the address of the oracle to create requests to",
          "_chainlinkToken": "2. the address of LINK token contract",
          "_jobId": "3. the job id for Staking efficiency job",
          "_networkAnalyticsAddress": "4. Network analytics contract address"
        }
      },
      "fulfillSLI(bytes32,bytes32)": {
        "details": "callback function for the Chainlink SLI request which stores the SLI in the SLA contract",
        "params": {
          "_chainlinkResponse": "response object from Chainlink Oracles",
          "_requestId": "the ID of the ChainLink request"
        }
      },
      "parseSLIData(bytes32)": {
        "details": "recieves a string of \"hits,misses\" data and returns hits and misses as uint256",
        "params": {
          "sliData": "the ID of the ChainLink request"
        }
      },
      "requestSLI(uint256,address)": {
        "details": "creates a ChainLink request to get a new SLI value for the given params. Can only be called by the SLARegistry contract or Chainlink Oracle.",
        "params": {
          "_periodId": "value of the period id",
          "_slaAddress": "SLA Address"
        }
      },
      "setSLARegistry()": {
        "details": "sets the SLARegistry contract address and can only be called once"
      }
    },
    "stateVariables": {
      "fee": {
        "details": "fee for Chainlink querys. Currently 0.1 LINK"
      },
      "jobId": {
        "details": "chainlink jobId"
      },
      "networkAnalyticsAddress": {
        "details": "Network analytics contract address"
      },
      "oracle": {
        "details": "Chainlink oracle address"
      },
      "requestIdToSLIRequest": {
        "details": "Mapping that stores chainlink sli request information"
      },
      "requests": {
        "details": "Array with all request IDs"
      },
      "slaRegistryAddress": {
        "details": "The address of the SLARegistry contract"
      }
    },
    "title": "SEMessenger",
    "version": 1
  },
  "userdoc": {
    "kind": "user",
    "methods": {
      "constructor": "sets the Chainlink parameters (oracle address, token address, jobId) and sets the SLARegistry to 0x0 address"
    },
    "version": 1
  }
}