{
  "contractName": "SEMessenger",
  "abi": [
    {
      "inputs": [
        {
          "internalType": "address",
          "name": "_messengerChainlinkOracle",
          "type": "address"
        },
        {
          "internalType": "address",
          "name": "_messengerChainlinkToken",
          "type": "address"
        },
        {
          "internalType": "bytes32",
          "name": "_messengerJobId",
          "type": "bytes32"
        },
        {
          "internalType": "address",
          "name": "_networkAnalyticsAddress",
          "type": "address"
        }
      ],
      "stateMutability": "nonpayable",
      "type": "constructor"
    },
    {
      "anonymous": false,
      "inputs": [
        {
          "indexed": true,
          "internalType": "bytes32",
          "name": "id",
          "type": "bytes32"
        }
      ],
      "name": "ChainlinkCancelled",
      "type": "event"
    },
    {
      "anonymous": false,
      "inputs": [
        {
          "indexed": true,
          "internalType": "bytes32",
          "name": "id",
          "type": "bytes32"
        }
      ],
      "name": "ChainlinkFulfilled",
      "type": "event"
    },
    {
      "anonymous": false,
      "inputs": [
        {
          "indexed": true,
          "internalType": "bytes32",
          "name": "id",
          "type": "bytes32"
        }
      ],
      "name": "ChainlinkRequested",
      "type": "event"
    },
    {
      "anonymous": false,
      "inputs": [
        {
          "indexed": false,
          "internalType": "bytes32",
          "name": "_jobId",
          "type": "bytes32"
        },
        {
          "indexed": true,
          "internalType": "address",
          "name": "sender",
          "type": "address"
        }
      ],
      "name": "JobId",
      "type": "event"
    },
    {
      "anonymous": false,
      "inputs": [
        {
          "indexed": true,
          "internalType": "address",
          "name": "previousOwner",
          "type": "address"
        },
        {
          "indexed": true,
          "internalType": "address",
          "name": "newOwner",
          "type": "address"
        }
      ],
      "name": "OwnershipTransferred",
      "type": "event"
    },
    {
      "anonymous": false,
      "inputs": [
        {
          "indexed": true,
          "internalType": "address",
          "name": "slaAddress",
          "type": "address"
        },
        {
          "indexed": false,
          "internalType": "uint256",
          "name": "periodId",
          "type": "uint256"
        },
        {
          "indexed": true,
          "internalType": "bytes32",
          "name": "requestId",
          "type": "bytes32"
        },
        {
          "indexed": false,
          "internalType": "bytes32",
          "name": "chainlinkResponse",
          "type": "bytes32"
        }
      ],
      "name": "SLIReceived",
      "type": "event"
    },
    {
      "inputs": [],
      "name": "networkAnalyticsAddress",
      "outputs": [
        {
          "internalType": "address",
          "name": "",
          "type": "address"
        }
      ],
      "stateMutability": "view",
      "type": "function"
    },
    {
      "inputs": [],
      "name": "owner",
      "outputs": [
        {
          "internalType": "address",
          "name": "",
          "type": "address"
        }
      ],
      "stateMutability": "view",
      "type": "function"
    },
    {
      "inputs": [],
      "name": "renounceOwnership",
      "outputs": [],
      "stateMutability": "nonpayable",
      "type": "function"
    },
    {
      "inputs": [
        {
          "internalType": "bytes32",
          "name": "",
          "type": "bytes32"
        }
      ],
      "name": "requestIdToSLIRequest",
      "outputs": [
        {
          "internalType": "address",
          "name": "slaAddress",
          "type": "address"
        },
        {
          "internalType": "uint256",
          "name": "periodId",
          "type": "uint256"
        }
      ],
      "stateMutability": "view",
      "type": "function"
    },
    {
      "inputs": [
        {
          "internalType": "uint256",
          "name": "",
          "type": "uint256"
        }
      ],
      "name": "requests",
      "outputs": [
        {
          "internalType": "bytes32",
          "name": "",
          "type": "bytes32"
        }
      ],
      "stateMutability": "view",
      "type": "function"
    },
    {
      "inputs": [
        {
          "internalType": "address",
          "name": "newOwner",
          "type": "address"
        }
      ],
      "name": "transferOwnership",
      "outputs": [],
      "stateMutability": "nonpayable",
      "type": "function"
    },
    {
      "inputs": [],
      "name": "setSLARegistry",
      "outputs": [],
      "stateMutability": "nonpayable",
      "type": "function"
    },
    {
      "inputs": [
        {
          "internalType": "uint256",
          "name": "_periodId",
          "type": "uint256"
        },
        {
          "internalType": "address",
          "name": "_slaAddress",
          "type": "address"
        }
      ],
      "name": "requestSLI",
      "outputs": [],
      "stateMutability": "nonpayable",
      "type": "function"
    },
    {
      "inputs": [
        {
          "internalType": "bytes32",
          "name": "_requestId",
          "type": "bytes32"
        },
        {
          "internalType": "uint256",
          "name": "_chainlinkResponseUint256",
          "type": "uint256"
        }
      ],
      "name": "fulfillSLI",
      "outputs": [],
      "stateMutability": "nonpayable",
      "type": "function"
    },
    {
      "inputs": [
        {
          "internalType": "bytes32",
          "name": "sliData",
          "type": "bytes32"
        }
      ],
      "name": "parseSLIData",
      "outputs": [
        {
          "internalType": "uint256",
          "name": "",
          "type": "uint256"
        },
        {
          "internalType": "uint256",
          "name": "",
          "type": "uint256"
        }
      ],
      "stateMutability": "pure",
      "type": "function"
    },
    {
      "inputs": [
        {
          "internalType": "bytes32",
          "name": "_newJobId",
          "type": "bytes32"
        }
      ],
      "name": "setJobId",
      "outputs": [],
      "stateMutability": "nonpayable",
      "type": "function"
    },
    {
      "inputs": [],
      "name": "slaRegistryAddress",
      "outputs": [
        {
          "internalType": "address",
          "name": "",
          "type": "address"
        }
      ],
      "stateMutability": "view",
      "type": "function"
    },
    {
      "inputs": [],
      "name": "messengerPrecision",
      "outputs": [
        {
          "internalType": "uint256",
          "name": "",
          "type": "uint256"
        }
      ],
      "stateMutability": "view",
      "type": "function"
    },
    {
      "inputs": [],
      "name": "oracle",
      "outputs": [
        {
          "internalType": "address",
          "name": "",
          "type": "address"
        }
      ],
      "stateMutability": "view",
      "type": "function"
    },
    {
      "inputs": [],
      "name": "jobId",
      "outputs": [
        {
          "internalType": "bytes32",
          "name": "",
          "type": "bytes32"
        }
      ],
      "stateMutability": "view",
      "type": "function"
    },
    {
      "inputs": [],
      "name": "fee",
      "outputs": [
        {
          "internalType": "uint256",
          "name": "",
          "type": "uint256"
        }
      ],
      "stateMutability": "view",
      "type": "function"
    }
  ],
  "bytecode": "0x6080604052600160045567016345785d8a0000600d556103e8600e553480156200002857600080fd5b5060405162001caf38038062001caf8339810160408190526200004b9162000141565b6000620000606001600160e01b03620000fd16565b600680546001600160a01b0319166001600160a01b038316908117909155604051919250906000907f8be0079c531659141344cd1fd0a4f28419497f9722a3daafe3b4186f6b6457e0908290a350600c829055620000c7836001600160e01b036200010116565b600b80546001600160a01b039586166001600160a01b031991821617909155600a80549290951691161790925550620001979050565b3390565b600280546001600160a01b0319166001600160a01b0392909216919091179055565b80516001600160a01b03811681146200013b57600080fd5b92915050565b6000806000806080858703121562000157578384fd5b62000163868662000123565b935062000174866020870162000123565b9250604085015191506200018c866060870162000123565b905092959194509250565b611b0880620001a76000396000f3fe608060405234801561001057600080fd5b50600436106100e05760003560e01c8063ae401eb911610087578063ae401eb914610179578063bc0bfc001461019a578063c2939d97146101ad578063c9b0cb22146101b5578063d1994408146101bd578063ddca3f43146101d0578063f2fde38b146101d8578063f3881589146101eb576100e0565b806304e4fc01146100e5578063508954f81461010f5780636e71890d14610124578063715018a6146101395780637dc0d1d01461014157806381d12c58146101495780638acb09a0146101695780638da5cb5b14610171575b600080fd5b6100f86100f336600461164a565b6101f3565b604051610106929190611ac4565b60405180910390f35b61012261011d36600461164a565b6103a7565b005b61012c610427565b6040516101069190611753565b610122610436565b61012c6104b5565b61015c61015736600461164a565b6104c4565b604051610106919061180f565b61012c6104e2565b61012c6104f1565b61018c61018736600461164a565b610500565b604051610106929190611767565b6101226101a836600461167a565b610525565b61015c6106db565b61015c6106e1565b6101226101cb3660046116ba565b6106e7565b61015c610a88565b6101226101e636600461160f565b610a8e565b610122610b45565b600080606061020184610b82565b805190915060608167ffffffffffffffff8111801561021f57600080fd5b506040519080825280601f01601f19166020018201604052801561024a576020820181803683370190505b50905060608267ffffffffffffffff8111801561026657600080fd5b506040519080825280601f01601f191660200182016040528015610291576020820181803683370190505b50905060005b8381101561037e57600b60fa1b6001600160f81b0319168582815181106102ba57fe5b01602001516001600160f81b03191614156103765760005b8181101561031c578581815181106102e657fe5b602001015160f81c60f81b8482815181106102fd57fe5b60200101906001600160f81b031916908160001a9053506001016102d2565b5060005b60018286030381101561037457858183600101018151811061033e57fe5b602001015160f81c60f81b83828151811061035557fe5b60200101906001600160f81b031916908160001a905350600101610320565b505b600101610297565b50600061038a83610c91565b9050600061039783610c91565b9197509095505050505050915091565b6103af610d11565b6006546001600160a01b039081169116146103e55760405162461bcd60e51b81526004016103dc90611a47565b60405180910390fd5b600c81905560405133907f9cc0173c26f7d8d3868176771505689e1c1fdad91d016984171643f7ee3fe6199061041c90849061180f565b60405180910390a250565b6009546001600160a01b031690565b61043e610d11565b6006546001600160a01b0390811691161461046b5760405162461bcd60e51b81526004016103dc90611a47565b6006546040516000916001600160a01b0316907f8be0079c531659141344cd1fd0a4f28419497f9722a3daafe3b4186f6b6457e0908390a3600680546001600160a01b0319169055565b600b546001600160a01b031690565b600881815481106104d157fe5b600091825260209091200154905081565b600a546001600160a01b031681565b6006546001600160a01b031690565b600760205260009081526040902080546001909101546001600160a01b039091169082565b60008281526005602052604090205482906001600160a01b0316331461055d5760405162461bcd60e51b81526004016103dc90611a7c565b60008181526005602052604080822080546001600160a01b03191690555182917f7cc135e0cebb02c3480ae5d74d377283180a2601f8f644edf7987b009316c63a91a2816105a9611592565b506000848152600760209081526040918290208251808401845281546001600160a01b0316808252600190920154928101839052925187927f56514ef6e1ffd0f970ebf32dc181e476384e6e53a8351719040b4030318a933b9161060f91908790611ac4565b60405180910390a3600080610623846101f3565b9092509050600061063a838363ffffffff610d1516565b905060006106668261065a600e5460640287610d4390919063ffffffff16565b9063ffffffff610d7d16565b85516020870151604051636bd2e21160e11b81529293506001600160a01b039091169163d7a5c4229161069e91859190600401611ac4565b600060405180830381600087803b1580156106b857600080fd5b505af11580156106cc573d6000803e3d6000fd5b50505050505050505050505050565b600c5490565b600e5490565b6009546001600160a01b031633146107115760405162461bcd60e51b81526004016103dc906119c5565b60008190506000816001600160a01b03166346e0fbae6040518163ffffffff1660e01b815260040160206040518083038186803b15801561075157600080fd5b505afa158015610765573d6000803e3d6000fd5b505050506040513d601f19601f82011682018060405250810190610789919061169b565b90506000826001600160a01b03166378025ec460006040518263ffffffff1660e01b81526004016107ba919061180f565b60206040518083038186803b1580156107d257600080fd5b505afa1580156107e6573d6000803e3d6000fd5b505050506040513d601f19601f8201168201806040525081019061080a9190611662565b600a54604051637e0ce26960e01b81529192506000916001600160a01b0390911690637e0ce2699061084490859087908b90600401611818565b60206040518083038186803b15801561085c57600080fd5b505afa158015610870573d6000803e3d6000fd5b505050506040513d601f19601f820116820180604052508101906108949190611662565b9050806108b35760405162461bcd60e51b81526004016103dc90611979565b6108bb6115a9565b600c546108cf9030622f02ff60ea1b610db2565b9050610930604051806040016040528060088152602001676a6f625f7479706560c01b815250604051806040016040528060128152602001717374616b696e675f656666696369656e637960701b81525083610ddd9092919063ffffffff16565b61096c604051806040016040528060098152602001681c195c9a5bd917da5960ba1b81525061095e89610e0c565b83919063ffffffff610ddd16565b61099c6040518060400160405280600b81526020016a736c615f6164647265737360a81b81525061095e88610ee7565b6040805180820190915260198152786e6574776f726b5f616e616c79746963735f6164647265737360381b6020820152600a546109e6919061095e906001600160a01b0316610ee7565b600b54600d54600091610a06916001600160a01b03909116908490611063565b6008805460018082019092557ff3f7a9fe364faab93b216da50a3214154f22a0a2b415b23a84c8169e8b636ee3018290556040805180820182526001600160a01b039a8b16815260208082019c8d526000948552600790529220915182546001600160a01b031916991698909817815597519790960196909655505050505050565b600d5490565b610a96610d11565b6006546001600160a01b03908116911614610ac35760405162461bcd60e51b81526004016103dc90611a47565b6001600160a01b038116610ae95760405162461bcd60e51b81526004016103dc9061183a565b6006546040516001600160a01b038084169216907f8be0079c531659141344cd1fd0a4f28419497f9722a3daafe3b4186f6b6457e090600090a3600680546001600160a01b0319166001600160a01b0392909216919091179055565b6009546001600160a01b031615610b6e5760405162461bcd60e51b81526004016103dc90611931565b600980546001600160a01b03191633179055565b606060005b60208160ff16108015610bb55750828160ff1660208110610ba457fe5b1a60f81b6001600160f81b03191615155b15610bc257600101610b87565b60608160ff1667ffffffffffffffff81118015610bde57600080fd5b506040519080825280601f01601f191660200182016040528015610c09576020820181803683370190505b509050600091505b60208260ff16108015610c3f5750838260ff1660208110610c2e57fe5b1a60f81b6001600160f81b03191615155b15610c8857838260ff1660208110610c5357fe5b1a60f81b818360ff1681518110610c6657fe5b60200101906001600160f81b031916908160001a905350600190910190610c11565b9150505b919050565b6000805b8251811015610d0b576030838281518110610cac57fe5b016020015160f81c10801590610cd657506039838281518110610ccb57fe5b016020015160f81c11155b15610d03576030838281518110610ce957fe5b602001015160f81c60f81b60f81c0360ff1682600a020191505b600101610c95565b50919050565b3390565b600082820183811015610d3a5760405162461bcd60e51b81526004016103dc90611880565b90505b92915050565b600082610d5257506000610d3d565b82820282848281610d5f57fe5b0414610d3a5760405162461bcd60e51b81526004016103dc90611a06565b6000808211610d9e5760405162461bcd60e51b81526004016103dc906118fa565b6000828481610da957fe5b04949350505050565b610dba6115a9565b610dc26115a9565b610dd48186868663ffffffff6111a216565b95945050505050565b6080830151610df2908363ffffffff6111df16565b6080830151610e07908263ffffffff6111df16565b505050565b60608180610e335750506040805180820190915260018152600360fc1b6020820152610c8c565b8060005b8115610e4b57600101600a82049150610e37565b60608167ffffffffffffffff81118015610e6457600080fd5b506040519080825280601f01601f191660200182016040528015610e8f576020820181803683370190505b50905060001982015b8415610edd57600a850660300160f81b82828060019003935081518110610ebb57fe5b60200101906001600160f81b031916908160001a905350600a85049450610e98565b5095945050505050565b604080518082018252601081526f181899199a1a9b1b9c1cb0b131b232b360811b60208201528151602a80825260608281019094526001600160a01b03851692918491602082018180368337019050509050600360fc1b81600081518110610f4b57fe5b60200101906001600160f81b031916908160001a905350600f60fb1b81600181518110610f7457fe5b60200101906001600160f81b031916908160001a90535060005b601481101561105a578260048583600c0160208110610fa957fe5b1a60f81b6001600160f81b031916901c60f81c60ff1681518110610fc957fe5b602001015160f81c60f81b828260020260020181518110610fe657fe5b60200101906001600160f81b031916908160001a905350828482600c016020811061100d57fe5b825191901a600f1690811061101e57fe5b602001015160f81c60f81b82826002026003018151811061103b57fe5b60200101906001600160f81b031916908160001a905350600101610f8e565b50949350505050565b60003060045460405160200161107a929190611731565b60408051808303601f19018152918152815160209283012060045460608701526000818152600590935281832080546001600160a01b0319166001600160a01b038916179055905190925082917fb5e6e01e79f91267dc17b4e6314d5d4d03593d2ceee0fbb452b750bd70ea5af991a26002546001600160a01b0316634000aea08584611106876111fc565b6040518463ffffffff1660e01b8152600401611124939291906117e8565b602060405180830381600087803b15801561113e57600080fd5b505af1158015611152573d6000803e3d6000fd5b505050506040513d601f19601f82011682018060405250810190611176919061162a565b6111925760405162461bcd60e51b81526004016103dc906118b7565b6004805460010190559392505050565b6111aa6115a9565b6111ba8560800151610100611278565b50509183526001600160a01b031660208301526001600160e01b031916604082015290565b6111ec82600383516112b2565b610e07828263ffffffff6113c216565b6060634042994660e01b6000808460000151856020015186604001518760600151600189608001516000015160405160240161123f989796959493929190611780565b60408051601f198184030181529190526020810180516001600160e01b03166001600160e01b0319909316929092179091529050919050565b6112806115de565b60208206156112955760208206602003820191505b506020828101829052604080518085526000815290920101905290565b601781116112d9576112d38360e0600585901b16831763ffffffff6113dc16565b50610e07565b60ff811161130f576112fc836018611fe0600586901b161763ffffffff6113dc16565b506112d38382600163ffffffff6113f416565b61ffff811161134657611333836019611fe0600586901b161763ffffffff6113dc16565b506112d38382600263ffffffff6113f416565b63ffffffff811161137f5761136c83601a611fe0600586901b161763ffffffff6113dc16565b506112d38382600463ffffffff6113f416565b67ffffffffffffffff8111610e07576113a983601b611fe0600586901b161763ffffffff6113dc16565b506113bc8382600863ffffffff6113f416565b50505050565b6113ca6115de565b610d3a83846000015151848551611415565b6113e46115de565b610d3a83846000015151846114c1565b6113fc6115de565b61140d84856000015151858561150c565b949350505050565b61141d6115de565b825182111561142b57600080fd5b84602001518285011115611455576114558561144d876020015187860161156a565b60020261157b565b6000808651805187602083010193508088870111156114745787860182525b505050602084015b6020841061149b5780518252601f19909301926020918201910161147c565b51815160001960208690036101000a019081169019919091161790525083949350505050565b6114c96115de565b836020015183106114e5576114e584856020015160020261157b565b835180516020858301018481535080851415611502576001810182525b5093949350505050565b6115146115de565b84602001518483011115611531576115318585840160020261157b565b60006001836101000a03905085518386820101858319825116178152508051848701111561155f5783860181525b509495945050505050565b600081831115610d0b575081610d3d565b81516115878383611278565b506113bc83826113c2565b604080518082019091526000808252602082015290565b6040805160a0810182526000808252602082018190529181018290526060810191909152608081016115d96115de565b905290565b604051806040016040528060608152602001600081525090565b80356001600160a01b0381168114610d3d57600080fd5b600060208284031215611620578081fd5b610d3a83836115f8565b60006020828403121561163b578081fd5b81518015158114610d3a578182fd5b60006020828403121561165b578081fd5b5035919050565b600060208284031215611673578081fd5b5051919050565b6000806040838503121561168c578081fd5b50508035926020909101359150565b6000602082840312156116ac578081fd5b815160068110610d3a578182fd5b600080604083850312156116cc578182fd5b823591506116dd84602085016115f8565b90509250929050565b60008151808452815b8181101561170b576020818501810151868301820152016116ef565b8181111561171c5782602083870101525b50601f01601f19169290920160200192915050565b60609290921b6bffffffffffffffffffffffff19168252601482015260340190565b6001600160a01b0391909116815260200190565b6001600160a01b03929092168252602082015260400190565b6001600160a01b0389811682526020820189905260408201889052861660608201526001600160e01b03198516608082015260a0810184905260c0810183905261010060e082018190526000906117d9838201856116e6565b9b9a5050505050505050505050565b600060018060a01b038516825283602083015260606040830152610dd460608301846116e6565b90815260200190565b838152606081016006841061182957fe5b602082019390935260400152919050565b60208082526026908201527f4f776e61626c653a206e6577206f776e657220697320746865207a65726f206160408201526564647265737360d01b606082015260800190565b6020808252601b908201527f536166654d6174683a206164646974696f6e206f766572666c6f770000000000604082015260600190565b60208082526023908201527f756e61626c6520746f207472616e73666572416e6443616c6c20746f206f7261604082015262636c6560e81b606082015260800190565b6020808252601a908201527f536166654d6174683a206469766973696f6e206279207a65726f000000000000604082015260600190565b60208082526028908201527f534c41526567697374727920616464726573732068617320616c7265616479206040820152671899595b881cd95d60c21b606082015260800190565b6020808252602c908201527f4e6574776f726b20616e616c7974696373206f626a656374206973206e6f742060408201526b185cdcda59db9959081e595d60a21b606082015260800190565b60208082526021908201527f43616e206f6e6c792062652063616c6c656420627920534c41526567697374726040820152607960f81b606082015260800190565b60208082526021908201527f536166654d6174683a206d756c7469706c69636174696f6e206f766572666c6f6040820152607760f81b606082015260800190565b6020808252818101527f4f776e61626c653a2063616c6c6572206973206e6f7420746865206f776e6572604082015260600190565b60208082526028908201527f536f75726365206d75737420626520746865206f7261636c65206f6620746865604082015267081c995c5d595cdd60c21b606082015260800190565b91825260208201526040019056fea2646970667358221220bdc7b7584391ccf06a3ce7cf9d26ac207184331471a182dd3df79ec316756d1664736f6c63430006060033",
  "immutableReferences": {},
  "source": "pragma solidity 0.6.6;\n\npragma experimental ABIEncoderV2;\n\nimport \"@chainlink/contracts/src/v0.6/ChainlinkClient.sol\";\nimport \"../SLA.sol\";\nimport \"../SLO.sol\";\nimport \"../PeriodRegistry.sol\";\nimport \"../StringUtils.sol\";\nimport \"./NetworkAnalytics.sol\";\nimport \"../messenger/IMessenger.sol\";\n\n/**\n * @title SEMessenger\n * @dev Staking efficiency Messenger\n */\n\ncontract SEMessenger is ChainlinkClient, IMessenger, StringUtils {\n    /// @dev Mapping that stores chainlink sli request information\n    mapping(bytes32 => SLIRequest) public requestIdToSLIRequest;\n    /// @dev Array with all request IDs\n    bytes32[] public requests;\n    /// @dev The address of the SLARegistry contract\n    address private _slaRegistryAddress;\n    /// @dev Network analytics contract address\n    address public networkAnalyticsAddress;\n    /// @dev Chainlink oracle address\n    address private _oracle;\n    /// @dev chainlink jobId\n    bytes32 private _jobId;\n    /// @dev fee for Chainlink querys. Currently 0.1 LINK\n    uint256 private _fee = 0.1 * 10**18;\n    /// @dev to multiply the SLI value and get better precision. Useful to deploy SLO correctly\n    uint256 private _messengerPrecision = 10**3;\n\n    /**\n     * @dev parameterize the variables according to network\n     * @notice sets the Chainlink parameters (oracle address, token address, jobId) and sets the SLARegistry to 0x0 address\n     * @param _messengerChainlinkOracle 1. the address of the oracle to create requests to\n     * @param _messengerChainlinkToken 2. the address of LINK token contract\n     * @param _messengerJobId 3. the job id for Staking efficiency job\n     * @param _networkAnalyticsAddress 4. Network analytics contract address\n     */\n    constructor(\n        address _messengerChainlinkOracle,\n        address _messengerChainlinkToken,\n        bytes32 _messengerJobId,\n        address _networkAnalyticsAddress\n    ) public {\n        _jobId = _messengerJobId;\n        setChainlinkToken(_messengerChainlinkToken);\n        _oracle = _messengerChainlinkOracle;\n        networkAnalyticsAddress = _networkAnalyticsAddress;\n    }\n\n    event JobId(bytes32 _jobId, address indexed sender);\n\n    /// @dev Throws if called by any address other than the SLARegistry contract or Chainlink Oracle.\n    modifier onlySLARegistry() {\n        require(\n            msg.sender == _slaRegistryAddress,\n            \"Can only be called by SLARegistry\"\n        );\n        _;\n    }\n\n    /**\n     * @dev sets the SLARegistry contract address and can only be called\n     * once\n     */\n    function setSLARegistry() public override {\n        // Only able to trigger this function once\n        require(\n            _slaRegistryAddress == address(0),\n            \"SLARegistry address has already been set\"\n        );\n\n        _slaRegistryAddress = msg.sender;\n    }\n\n    /**\n     * @dev creates a ChainLink request to get a new SLI value for the\n     * given params. Can only be called by the SLARegistry contract or Chainlink Oracle.\n     * @param _periodId value of the period id\n     * @param _slaAddress SLA Address\n     */\n    function requestSLI(uint256 _periodId, address _slaAddress)\n        public\n        override\n        onlySLARegistry\n    {\n        SLA sla = SLA(_slaAddress);\n        PeriodRegistry.PeriodType periodType = sla.periodType();\n        // extraData[0] is the networkName for StakingEfficiency use case\n        bytes32 networkName = sla.extraData(0);\n        bytes32 ipfsAnalytics =\n            NetworkAnalytics(networkAnalyticsAddress).periodAnalytics(\n                networkName,\n                periodType,\n                _periodId\n            );\n        require(\n            ipfsAnalytics != 0,\n            \"Network analytics object is not assigned yet\"\n        );\n        Chainlink.Request memory request =\n            buildChainlinkRequest(\n                _jobId,\n                address(this),\n                this.fulfillSLI.selector\n            );\n        request.add(\"job_type\", \"staking_efficiency\");\n        request.add(\"period_id\", _uintToStr(_periodId));\n        request.add(\"sla_address\", _addressToString(_slaAddress));\n        request.add(\n            \"network_analytics_address\",\n            _addressToString(networkAnalyticsAddress)\n        );\n\n        // Sends the request with 0.1 LINK to the oracle contract\n        bytes32 requestId = sendChainlinkRequestTo(_oracle, request, _fee);\n\n        requests.push(requestId);\n\n        requestIdToSLIRequest[requestId] = SLIRequest({\n            slaAddress: _slaAddress,\n            periodId: _periodId\n        });\n    }\n\n    /**\n     * @dev callback function for the Chainlink SLI request which stores\n     * the SLI in the SLA contract\n     * @param _requestId the ID of the ChainLink request\n     * @param _chainlinkResponseUint256 response object from Chainlink Oracles\n     */\n    function fulfillSLI(bytes32 _requestId, uint256 _chainlinkResponseUint256)\n        public\n        override\n        recordChainlinkFulfillment(_requestId)\n    {\n        bytes32 _chainlinkResponse = bytes32(_chainlinkResponseUint256);\n        SLIRequest memory request = requestIdToSLIRequest[_requestId];\n        emit SLIReceived(\n            request.slaAddress,\n            request.periodId,\n            _requestId,\n            _chainlinkResponse\n        );\n        (uint256 hits, uint256 misses) = parseSLIData(_chainlinkResponse);\n        uint256 total = hits.add(misses);\n        uint256 stakingEfficiency =\n            hits.mul(100 * _messengerPrecision).div(total);\n        SLA(request.slaAddress).registerSLI(\n            stakingEfficiency,\n            request.periodId\n        );\n    }\n\n    /**\n     * @dev recieves a string of \"hits,misses\" data and returns hits and misses as uint256\n     * @param sliData the ID of the ChainLink request\n     */\n    function parseSLIData(bytes32 sliData)\n        public\n        pure\n        returns (uint256, uint256)\n    {\n        bytes memory bytesSLIData = bytes(_bytes32ToStr(sliData));\n        uint256 sliDataLength = bytesSLIData.length;\n        bytes memory bytesHits = new bytes(sliDataLength);\n        bytes memory bytesMisses = new bytes(sliDataLength);\n        for (uint256 index; index < sliDataLength; index++) {\n            if (bytesSLIData[index] == bytes1(\",\")) {\n                for (uint256 index2 = 0; index2 < index; index2++) {\n                    bytesHits[index2] = bytesSLIData[index2];\n                }\n                for (\n                    uint256 index3 = 0;\n                    index3 < sliDataLength - index - 1;\n                    index3++\n                ) {\n                    bytesMisses[index3] = bytesSLIData[index + 1 + index3];\n                }\n            }\n        }\n        uint256 hits = _bytesToUint(bytesHits);\n        uint256 misses = _bytesToUint(bytesMisses);\n        return (hits, misses);\n    }\n\n    function setJobId(bytes32 _newJobId) public onlyOwner {\n        _jobId = _newJobId;\n        emit JobId(_newJobId, msg.sender);\n    }\n\n    /**\n     * @dev returns the value of the sla registry address\n     */\n    function slaRegistryAddress() public view override returns (address) {\n        return _slaRegistryAddress;\n    }\n\n    /**\n     * @dev returns the value of the messenger precision\n     */\n    function messengerPrecision() public view override returns (uint256) {\n        return _messengerPrecision;\n    }\n\n    /**\n     * @dev returns the chainlink oracle contract address\n     */\n    function oracle() public view override returns (address) {\n        return _oracle;\n    }\n\n    /**\n     * @dev returns the chainlink job id\n     */\n    function jobId() public view override returns (bytes32) {\n        return _jobId;\n    }\n\n    /**\n     * @dev returns the chainlink fee value on LINK tokens\n     */\n    function fee() public view override returns (uint256) {\n        return _fee;\n    }\n}\n",
  "sourcePath": "/Users/matiasbn/Desktop/stacktical/stacktical-dsla-contracts/contracts/staking-efficiency/SEMessenger.sol",
  "compiler": {
    "name": "solc",
    "version": "0.6.6+commit.6c089d02.Emscripten.clang"
  },
  "schemaVersion": "3.3.3",
  "updatedAt": "2021-03-12T15:25:14.970Z",
  "devdoc": {
    "details": "Staking efficiency Messenger",
    "methods": {
      "constructor": {
        "details": "parameterize the variables according to network",
        "params": {
          "_messengerChainlinkOracle": "1. the address of the oracle to create requests to",
          "_messengerChainlinkToken": "2. the address of LINK token contract",
          "_messengerJobId": "3. the job id for Staking efficiency job",
          "_networkAnalyticsAddress": "4. Network analytics contract address"
        }
      },
      "fee()": {
        "details": "returns the chainlink fee value on LINK tokens"
      },
      "fulfillSLI(bytes32,uint256)": {
        "details": "callback function for the Chainlink SLI request which stores the SLI in the SLA contract",
        "params": {
          "_chainlinkResponseUint256": "response object from Chainlink Oracles",
          "_requestId": "the ID of the ChainLink request"
        }
      },
      "jobId()": {
        "details": "returns the chainlink job id"
      },
      "messengerPrecision()": {
        "details": "returns the value of the messenger precision"
      },
      "oracle()": {
        "details": "returns the chainlink oracle contract address"
      },
      "owner()": {
        "details": "Returns the address of the current owner."
      },
      "parseSLIData(bytes32)": {
        "details": "recieves a string of \"hits,misses\" data and returns hits and misses as uint256",
        "params": {
          "sliData": "the ID of the ChainLink request"
        }
      },
      "renounceOwnership()": {
        "details": "Leaves the contract without owner. It will not be possible to call `onlyOwner` functions anymore. Can only be called by the current owner.     * NOTE: Renouncing ownership will leave the contract without an owner, thereby removing any functionality that is only available to the owner."
      },
      "requestSLI(uint256,address)": {
        "details": "creates a ChainLink request to get a new SLI value for the given params. Can only be called by the SLARegistry contract or Chainlink Oracle.",
        "params": {
          "_periodId": "value of the period id",
          "_slaAddress": "SLA Address"
        }
      },
      "setSLARegistry()": {
        "details": "sets the SLARegistry contract address and can only be called once"
      },
      "slaRegistryAddress()": {
        "details": "returns the value of the sla registry address"
      },
      "transferOwnership(address)": {
        "details": "Transfers ownership of the contract to a new account (`newOwner`). Can only be called by the current owner."
      }
    },
    "title": "SEMessenger"
  },
  "userdoc": {
    "methods": {
      "constructor": "sets the Chainlink parameters (oracle address, token address, jobId) and sets the SLARegistry to 0x0 address"
    }
  }
}