{
  "contractName": "SEMessenger",
  "abi": [
    {
      "inputs": [
        {
          "internalType": "address",
          "name": "_messengerChainlinkOracle",
          "type": "address"
        },
        {
          "internalType": "address",
          "name": "_messengerChainlinkToken",
          "type": "address"
        },
        {
          "internalType": "bytes32",
          "name": "_messengerJobId",
          "type": "bytes32"
        },
        {
          "internalType": "address",
          "name": "_networkAnalyticsAddress",
          "type": "address"
        }
      ],
      "stateMutability": "nonpayable",
      "type": "constructor"
    },
    {
      "anonymous": false,
      "inputs": [
        {
          "indexed": true,
          "internalType": "bytes32",
          "name": "id",
          "type": "bytes32"
        }
      ],
      "name": "ChainlinkCancelled",
      "type": "event"
    },
    {
      "anonymous": false,
      "inputs": [
        {
          "indexed": true,
          "internalType": "bytes32",
          "name": "id",
          "type": "bytes32"
        }
      ],
      "name": "ChainlinkFulfilled",
      "type": "event"
    },
    {
      "anonymous": false,
      "inputs": [
        {
          "indexed": true,
          "internalType": "bytes32",
          "name": "id",
          "type": "bytes32"
        }
      ],
      "name": "ChainlinkRequested",
      "type": "event"
    },
    {
      "anonymous": false,
      "inputs": [
        {
          "indexed": true,
          "internalType": "address",
          "name": "slaAddress",
          "type": "address"
        },
        {
          "indexed": false,
          "internalType": "uint256",
          "name": "periodId",
          "type": "uint256"
        },
        {
          "indexed": true,
          "internalType": "bytes32",
          "name": "requestId",
          "type": "bytes32"
        },
        {
          "indexed": false,
          "internalType": "bytes32",
          "name": "chainlinkResponse",
          "type": "bytes32"
        }
      ],
      "name": "SLIReceived",
      "type": "event"
    },
    {
      "inputs": [],
      "name": "networkAnalyticsAddress",
      "outputs": [
        {
          "internalType": "address",
          "name": "",
          "type": "address"
        }
      ],
      "stateMutability": "view",
      "type": "function"
    },
    {
      "inputs": [
        {
          "internalType": "bytes32",
          "name": "",
          "type": "bytes32"
        }
      ],
      "name": "requestIdToSLIRequest",
      "outputs": [
        {
          "internalType": "address",
          "name": "slaAddress",
          "type": "address"
        },
        {
          "internalType": "uint256",
          "name": "periodId",
          "type": "uint256"
        }
      ],
      "stateMutability": "view",
      "type": "function"
    },
    {
      "inputs": [
        {
          "internalType": "uint256",
          "name": "",
          "type": "uint256"
        }
      ],
      "name": "requests",
      "outputs": [
        {
          "internalType": "bytes32",
          "name": "",
          "type": "bytes32"
        }
      ],
      "stateMutability": "view",
      "type": "function"
    },
    {
      "inputs": [],
      "name": "setSLARegistry",
      "outputs": [],
      "stateMutability": "nonpayable",
      "type": "function"
    },
    {
      "inputs": [
        {
          "internalType": "uint256",
          "name": "_periodId",
          "type": "uint256"
        },
        {
          "internalType": "address",
          "name": "_slaAddress",
          "type": "address"
        }
      ],
      "name": "requestSLI",
      "outputs": [],
      "stateMutability": "nonpayable",
      "type": "function"
    },
    {
      "inputs": [
        {
          "internalType": "bytes32",
          "name": "_requestId",
          "type": "bytes32"
        },
        {
          "internalType": "bytes32",
          "name": "_chainlinkResponse",
          "type": "bytes32"
        }
      ],
      "name": "fulfillSLI",
      "outputs": [],
      "stateMutability": "nonpayable",
      "type": "function"
    },
    {
      "inputs": [
        {
          "internalType": "bytes32",
          "name": "sliData",
          "type": "bytes32"
        }
      ],
      "name": "parseSLIData",
      "outputs": [
        {
          "internalType": "uint256",
          "name": "",
          "type": "uint256"
        },
        {
          "internalType": "uint256",
          "name": "",
          "type": "uint256"
        }
      ],
      "stateMutability": "pure",
      "type": "function"
    },
    {
      "inputs": [],
      "name": "slaRegistryAddress",
      "outputs": [
        {
          "internalType": "address",
          "name": "",
          "type": "address"
        }
      ],
      "stateMutability": "view",
      "type": "function"
    },
    {
      "inputs": [],
      "name": "messengerPrecision",
      "outputs": [
        {
          "internalType": "uint256",
          "name": "",
          "type": "uint256"
        }
      ],
      "stateMutability": "view",
      "type": "function"
    },
    {
      "inputs": [],
      "name": "oracle",
      "outputs": [
        {
          "internalType": "address",
          "name": "",
          "type": "address"
        }
      ],
      "stateMutability": "view",
      "type": "function"
    },
    {
      "inputs": [],
      "name": "jobId",
      "outputs": [
        {
          "internalType": "bytes32",
          "name": "",
          "type": "bytes32"
        }
      ],
      "stateMutability": "view",
      "type": "function"
    },
    {
      "inputs": [],
      "name": "fee",
      "outputs": [
        {
          "internalType": "uint256",
          "name": "",
          "type": "uint256"
        }
      ],
      "stateMutability": "view",
      "type": "function"
    },
    {
      "inputs": [],
      "name": "owner",
      "outputs": [
        {
          "internalType": "address",
          "name": "",
          "type": "address"
        }
      ],
      "stateMutability": "view",
      "type": "function"
    }
  ],
  "bytecode": "0x6080604052600160045567016345785d8a0000600d556103e8600e553480156200002857600080fd5b506040516200194d3803806200194d8339810160408190526200004b91620000df565b600c8290556200005b836200009f565b600a80546001600160a01b039586166001600160a01b0319918216179091556009805492909516918116919091179093555050600b80549091163317905562000135565b600280546001600160a01b0319166001600160a01b0392909216919091179055565b80516001600160a01b0381168114620000d957600080fd5b92915050565b60008060008060808587031215620000f5578384fd5b620001018686620000c1565b9350620001128660208701620000c1565b9250604085015191506200012a8660608701620000c1565b905092959194509250565b61180880620001456000396000f3fe608060405234801561001057600080fd5b50600436106100bf5760003560e01c8063ad021f491161007c578063ad021f491461013b578063ae401eb914610150578063c2939d9714610171578063c9b0cb2214610179578063d199440814610181578063ddca3f4314610194578063f38815891461019c576100bf565b806304e4fc01146100c45780636e71890d146100ee5780637dc0d1d01461010357806381d12c581461010b5780638acb09a01461012b5780638da5cb5b14610133575b600080fd5b6100d76100d23660046113b7565b6101a4565b6040516100e59291906117c4565b60405180910390f35b6100f6610358565b6040516100e591906114ce565b6100f6610367565b61011e6101193660046113b7565b610376565b6040516100e5919061158a565b6100f6610394565b6100f66103a3565b61014e6101493660046113e7565b6103b2565b005b61016361015e3660046113b7565b610563565b6040516100e59291906114e2565b61011e610588565b61011e61058e565b61014e61018f366004611427565b610594565b61011e610930565b61014e610936565b60008060606101b284610973565b805190915060608167ffffffffffffffff811180156101d057600080fd5b506040519080825280601f01601f1916602001820160405280156101fb576020820181803683370190505b50905060608267ffffffffffffffff8111801561021757600080fd5b506040519080825280601f01601f191660200182016040528015610242576020820181803683370190505b50905060005b8381101561032f57600b60fa1b6001600160f81b03191685828151811061026b57fe5b01602001516001600160f81b03191614156103275760005b818110156102cd5785818151811061029757fe5b602001015160f81c60f81b8482815181106102ae57fe5b60200101906001600160f81b031916908160001a905350600101610283565b5060005b6001828603038110156103255785818360010101815181106102ef57fe5b602001015160f81c60f81b83828151811061030657fe5b60200101906001600160f81b031916908160001a9053506001016102d1565b505b600101610248565b50600061033b83610a82565b9050600061034883610a82565b9197509095505050505050915091565b6008546001600160a01b031690565b600a546001600160a01b031690565b6007818154811061038357fe5b600091825260209091200154905081565b6009546001600160a01b031681565b600b546001600160a01b031690565b60008281526005602052604090205482906001600160a01b031633146103f35760405162461bcd60e51b81526004016103ea9061177c565b60405180910390fd5b60008181526005602052604080822080546001600160a01b03191690555182917f7cc135e0cebb02c3480ae5d74d377283180a2601f8f644edf7987b009316c63a91a261043e611331565b506000838152600660209081526040918290208251808401845281546001600160a01b0316808252600190920154928101839052925186927f56514ef6e1ffd0f970ebf32dc181e476384e6e53a8351719040b4030318a933b916104a4919088906117c4565b60405180910390a36000806104b8856101a4565b909250905060006104c98383610b02565b905060006104ef826104e9600e5460640287610b3090919063ffffffff16565b90610b6a565b85516020870151604051636bd2e21160e11b81529293506001600160a01b039091169163d7a5c42291610527918591906004016117c4565b600060405180830381600087803b15801561054157600080fd5b505af1158015610555573d6000803e3d6000fd5b505050505050505050505050565b600660205260009081526040902080546001909101546001600160a01b039091169082565b600c5490565b600e5490565b6008546001600160a01b031633146105be5760405162461bcd60e51b81526004016103ea906116fa565b60008190506000816001600160a01b03166346e0fbae6040518163ffffffff1660e01b815260040160206040518083038186803b1580156105fe57600080fd5b505afa158015610612573d6000803e3d6000fd5b505050506040513d601f19601f820116820180604052508101906106369190611408565b90506000826001600160a01b03166378025ec460006040518263ffffffff1660e01b8152600401610667919061158a565b60206040518083038186803b15801561067f57600080fd5b505afa158015610693573d6000803e3d6000fd5b505050506040513d601f19601f820116820180604052508101906106b791906113cf565b600954604051637e0ce26960e01b81529192506000916001600160a01b0390911690637e0ce269906106f190859087908b90600401611593565b60206040518083038186803b15801561070957600080fd5b505afa15801561071d573d6000803e3d6000fd5b505050506040513d601f19601f8201168201806040525081019061074191906113cf565b9050806107605760405162461bcd60e51b81526004016103ea906116ae565b610768611348565b600c5461077d903063ad021f4960e01b610b9f565b90506107de604051806040016040528060088152602001676a6f625f7479706560c01b815250604051806040016040528060128152602001717374616b696e675f656666696369656e637960701b81525083610bc49092919063ffffffff16565b610814604051806040016040528060098152602001681c195c9a5bd917da5960ba1b81525061080c89610be7565b839190610bc4565b6108446040518060400160405280600b81526020016a736c615f6164647265737360a81b81525061080c88610cc2565b6040805180820190915260198152786e6574776f726b5f616e616c79746963735f6164647265737360381b602082015260095461088e919061080c906001600160a01b0316610cc2565b600a54600d546000916108ae916001600160a01b03909116908490610e3e565b6007805460018082019092557fa66cc928b5edb82af9bd49922954155ab7b0942694bea4ce44661d9a8736c688018290556040805180820182526001600160a01b039a8b16815260208082019c8d526000948552600690529220915182546001600160a01b031916991698909817815597519790960196909655505050505050565b600d5490565b6008546001600160a01b03161561095f5760405162461bcd60e51b81526004016103ea90611666565b600880546001600160a01b03191633179055565b606060005b60208160ff161080156109a65750828160ff166020811061099557fe5b1a60f81b6001600160f81b03191615155b156109b357600101610978565b60608160ff1667ffffffffffffffff811180156109cf57600080fd5b506040519080825280601f01601f1916602001820160405280156109fa576020820181803683370190505b509050600091505b60208260ff16108015610a305750838260ff1660208110610a1f57fe5b1a60f81b6001600160f81b03191615155b15610a7957838260ff1660208110610a4457fe5b1a60f81b818360ff1681518110610a5757fe5b60200101906001600160f81b031916908160001a905350600190910190610a02565b9150505b919050565b6000805b8251811015610afc576030838281518110610a9d57fe5b016020015160f81c10801590610ac757506039838281518110610abc57fe5b016020015160f81c11155b15610af4576030838281518110610ada57fe5b602001015160f81c60f81b60f81c0360ff1682600a020191505b600101610a86565b50919050565b600082820183811015610b275760405162461bcd60e51b81526004016103ea906115b5565b90505b92915050565b600082610b3f57506000610b2a565b82820282848281610b4c57fe5b0414610b275760405162461bcd60e51b81526004016103ea9061173b565b6000808211610b8b5760405162461bcd60e51b81526004016103ea9061162f565b6000828481610b9657fe5b04949350505050565b610ba7611348565b610baf611348565b610bbb81868686610f7d565b95945050505050565b6080830151610bd39083610fba565b6080830151610be29082610fba565b505050565b60608180610c0e5750506040805180820190915260018152600360fc1b6020820152610a7d565b8060005b8115610c2657600101600a82049150610c12565b60608167ffffffffffffffff81118015610c3f57600080fd5b506040519080825280601f01601f191660200182016040528015610c6a576020820181803683370190505b50905060001982015b8415610cb857600a850660300160f81b82828060019003935081518110610c9657fe5b60200101906001600160f81b031916908160001a905350600a85049450610c73565b5095945050505050565b604080518082018252601081526f181899199a1a9b1b9c1cb0b131b232b360811b60208201528151602a80825260608281019094526001600160a01b03851692918491602082018180368337019050509050600360fc1b81600081518110610d2657fe5b60200101906001600160f81b031916908160001a905350600f60fb1b81600181518110610d4f57fe5b60200101906001600160f81b031916908160001a90535060005b6014811015610e35578260048583600c0160208110610d8457fe5b1a60f81b6001600160f81b031916901c60f81c60ff1681518110610da457fe5b602001015160f81c60f81b828260020260020181518110610dc157fe5b60200101906001600160f81b031916908160001a905350828482600c0160208110610de857fe5b825191901a600f16908110610df957fe5b602001015160f81c60f81b828260020260030181518110610e1657fe5b60200101906001600160f81b031916908160001a905350600101610d69565b50949350505050565b600030600454604051602001610e559291906114ac565b60408051808303601f19018152918152815160209283012060045460608701526000818152600590935281832080546001600160a01b0319166001600160a01b038916179055905190925082917fb5e6e01e79f91267dc17b4e6314d5d4d03593d2ceee0fbb452b750bd70ea5af991a26002546001600160a01b0316634000aea08584610ee187610fd1565b6040518463ffffffff1660e01b8152600401610eff93929190611563565b602060405180830381600087803b158015610f1957600080fd5b505af1158015610f2d573d6000803e3d6000fd5b505050506040513d601f19601f82011682018060405250810190610f519190611397565b610f6d5760405162461bcd60e51b81526004016103ea906115ec565b6004805460010190559392505050565b610f85611348565b610f95856080015161010061104d565b50509183526001600160a01b031660208301526001600160e01b031916604082015290565b610fc78260038351611087565b610be28282611161565b6060634042994660e01b600080846000015185602001518660400151876060015160018960800151600001516040516024016110149897969594939291906114fb565b60408051601f198184030181529190526020810180516001600160e01b03166001600160e01b0319909316929092179091529050919050565b61105561137d565b602082061561106a5760208206602003820191505b506020828101829052604080518085526000815290920101905290565b601781116110a8576110a28360e0600585901b16831761117b565b50610be2565b60ff81116110d2576110c5836018611fe0600586901b161761117b565b506110a283826001611193565b61ffff81116110fd576110f0836019611fe0600586901b161761117b565b506110a283826002611193565b63ffffffff811161112a5761111d83601a611fe0600586901b161761117b565b506110a283826004611193565b67ffffffffffffffff8111610be25761114e83601b611fe0600586901b161761117b565b5061115b83826008611193565b50505050565b61116961137d565b610b27838460000151518485516111b4565b61118361137d565b610b278384600001515184611260565b61119b61137d565b6111ac8485600001515185856112ab565b949350505050565b6111bc61137d565b82518211156111ca57600080fd5b846020015182850111156111f4576111f4856111ec8760200151878601611309565b60020261131a565b6000808651805187602083010193508088870111156112135787860182525b505050602084015b6020841061123a5780518252601f19909301926020918201910161121b565b51815160001960208690036101000a019081169019919091161790525083949350505050565b61126861137d565b836020015183106112845761128484856020015160020261131a565b8351805160208583010184815350808514156112a1576001810182525b5093949350505050565b6112b361137d565b846020015184830111156112d0576112d08585840160020261131a565b60006001836101000a0390508551838682010185831982511617815250805184870111156112fe5783860181525b509495945050505050565b600081831115610afc575081610b2a565b8151611326838361104d565b5061115b8382611161565b604080518082019091526000808252602082015290565b6040805160a08101825260008082526020820181905291810182905260608101919091526080810161137861137d565b905290565b604051806040016040528060608152602001600081525090565b6000602082840312156113a8578081fd5b81518015158114610b27578182fd5b6000602082840312156113c8578081fd5b5035919050565b6000602082840312156113e0578081fd5b5051919050565b600080604083850312156113f9578081fd5b50508035926020909101359150565b600060208284031215611419578081fd5b815160068110610b27578182fd5b60008060408385031215611439578182fd5b8235915060208301356001600160a01b0381168114611456578182fd5b809150509250929050565b60008151808452815b818110156114865760208185018101518683018201520161146a565b818111156114975782602083870101525b50601f01601f19169290920160200192915050565b60609290921b6bffffffffffffffffffffffff19168252601482015260340190565b6001600160a01b0391909116815260200190565b6001600160a01b03929092168252602082015260400190565b6001600160a01b0389811682526020820189905260408201889052861660608201526001600160e01b03198516608082015260a0810184905260c0810183905261010060e0820181905260009061155483820185611461565b9b9a5050505050505050505050565b600060018060a01b038516825283602083015260606040830152610bbb6060830184611461565b90815260200190565b83815260608101600684106115a457fe5b602082019390935260400152919050565b6020808252601b908201527f536166654d6174683a206164646974696f6e206f766572666c6f770000000000604082015260600190565b60208082526023908201527f756e61626c6520746f207472616e73666572416e6443616c6c20746f206f7261604082015262636c6560e81b606082015260800190565b6020808252601a908201527f536166654d6174683a206469766973696f6e206279207a65726f000000000000604082015260600190565b60208082526028908201527f534c41526567697374727920616464726573732068617320616c7265616479206040820152671899595b881cd95d60c21b606082015260800190565b6020808252602c908201527f4e6574776f726b20616e616c7974696373206f626a656374206973206e6f742060408201526b185cdcda59db9959081e595d60a21b606082015260800190565b60208082526021908201527f43616e206f6e6c792062652063616c6c656420627920534c41526567697374726040820152607960f81b606082015260800190565b60208082526021908201527f536166654d6174683a206d756c7469706c69636174696f6e206f766572666c6f6040820152607760f81b606082015260800190565b60208082526028908201527f536f75726365206d75737420626520746865206f7261636c65206f6620746865604082015267081c995c5d595cdd60c21b606082015260800190565b91825260208201526040019056fea2646970667358221220a978c89cc060f4025aadc7c74dbd981e3e2a26d1399d94abbf50e59ceb17da9f64736f6c634300060c0033",
  "immutableReferences": {},
  "source": "pragma solidity ^0.6.0;\npragma experimental ABIEncoderV2;\n\nimport \"@chainlink/contracts/src/v0.6/ChainlinkClient.sol\";\nimport \"../SLA.sol\";\nimport \"../SLO.sol\";\nimport \"../PeriodRegistry.sol\";\nimport \"../StringUtils.sol\";\nimport \"./NetworkAnalytics.sol\";\nimport \"../messenger/IMessenger.sol\";\n\n/**\n * @title SEMessenger\n * @dev Staking efficiency Messenger\n */\n\ncontract SEMessenger is ChainlinkClient, IMessenger, StringUtils {\n    /// @dev Mapping that stores chainlink sli request information\n    mapping(bytes32 => SLIRequest) public requestIdToSLIRequest;\n    /// @dev Array with all request IDs\n    bytes32[] public requests;\n    /// @dev The address of the SLARegistry contract\n    address private _slaRegistryAddress;\n    /// @dev Network analytics contract address\n    address public networkAnalyticsAddress;\n    /// @dev Chainlink oracle address\n    address private _oracle;\n    /// @dev Contract owner\n    address private _owner;\n    /// @dev chainlink jobId\n    bytes32 private _jobId;\n    /// @dev fee for Chainlink querys. Currently 0.1 LINK\n    uint256 private _fee = 0.1 * 10**18;\n    /// @dev to multiply the SLI value and get better precision. Useful to deploy SLO correctly\n    uint256 private _messengerPrecision = 10**3;\n\n    /**\n     * @dev parameterize the variables according to network\n     * @notice sets the Chainlink parameters (oracle address, token address, jobId) and sets the SLARegistry to 0x0 address\n     * @param _messengerChainlinkOracle 1. the address of the oracle to create requests to\n     * @param _messengerChainlinkToken 2. the address of LINK token contract\n     * @param _messengerJobId 3. the job id for Staking efficiency job\n     * @param _networkAnalyticsAddress 4. Network analytics contract address\n     */\n    constructor(\n        address _messengerChainlinkOracle,\n        address _messengerChainlinkToken,\n        bytes32 _messengerJobId,\n        address _networkAnalyticsAddress\n    ) public {\n        _jobId = _messengerJobId;\n        setChainlinkToken(_messengerChainlinkToken);\n        _oracle = _messengerChainlinkOracle;\n        networkAnalyticsAddress = _networkAnalyticsAddress;\n        _owner = msg.sender;\n    }\n\n    /// @dev Throws if called by any address other than the SLARegistry contract or Chainlink Oracle.\n    modifier onlySLARegistry() {\n        require(\n            msg.sender == _slaRegistryAddress,\n            \"Can only be called by SLARegistry\"\n        );\n        _;\n    }\n\n    /**\n     * @dev sets the SLARegistry contract address and can only be called\n     * once\n     */\n    function setSLARegistry() public override {\n        // Only able to trigger this function once\n        require(\n            _slaRegistryAddress == address(0),\n            \"SLARegistry address has already been set\"\n        );\n\n        _slaRegistryAddress = msg.sender;\n    }\n\n    /**\n     * @dev creates a ChainLink request to get a new SLI value for the\n     * given params. Can only be called by the SLARegistry contract or Chainlink Oracle.\n     * @param _periodId value of the period id\n     * @param _slaAddress SLA Address\n     */\n    function requestSLI(uint256 _periodId, address _slaAddress)\n        public\n        override\n        onlySLARegistry\n    {\n        SLA sla = SLA(_slaAddress);\n        PeriodRegistry.PeriodType periodType = sla.periodType();\n        // extraData[0] is the networkName for StakingEfficiency use case\n        bytes32 networkName = sla.extraData(0);\n        bytes32 ipfsAnalytics =\n            NetworkAnalytics(networkAnalyticsAddress).periodAnalytics(\n                networkName,\n                periodType,\n                _periodId\n            );\n        require(\n            ipfsAnalytics != 0,\n            \"Network analytics object is not assigned yet\"\n        );\n        Chainlink.Request memory request =\n            buildChainlinkRequest(\n                _jobId,\n                address(this),\n                this.fulfillSLI.selector\n            );\n        request.add(\"job_type\", \"staking_efficiency\");\n        request.add(\"period_id\", _uintToStr(_periodId));\n        request.add(\"sla_address\", _addressToString(_slaAddress));\n        request.add(\n            \"network_analytics_address\",\n            _addressToString(networkAnalyticsAddress)\n        );\n\n        // Sends the request with 0.1 LINK to the oracle contract\n        bytes32 requestId = sendChainlinkRequestTo(_oracle, request, _fee);\n\n        requests.push(requestId);\n\n        requestIdToSLIRequest[requestId] = SLIRequest({\n            slaAddress: _slaAddress,\n            periodId: _periodId\n        });\n    }\n\n    /**\n     * @dev callback function for the Chainlink SLI request which stores\n     * the SLI in the SLA contract\n     * @param _requestId the ID of the ChainLink request\n     * @param _chainlinkResponse response object from Chainlink Oracles\n     */\n    function fulfillSLI(bytes32 _requestId, bytes32 _chainlinkResponse)\n        public\n        override\n        recordChainlinkFulfillment(_requestId)\n    {\n        SLIRequest memory request = requestIdToSLIRequest[_requestId];\n        emit SLIReceived(\n            request.slaAddress,\n            request.periodId,\n            _requestId,\n            _chainlinkResponse\n        );\n        (uint256 hits, uint256 misses) = parseSLIData(_chainlinkResponse);\n        uint256 total = hits.add(misses);\n        uint256 stakingEfficiency =\n            hits.mul(100 * _messengerPrecision).div(total);\n        SLA(request.slaAddress).registerSLI(\n            stakingEfficiency,\n            request.periodId\n        );\n    }\n\n    /**\n     * @dev recieves a string of \"hits,misses\" data and returns hits and misses as uint256\n     * @param sliData the ID of the ChainLink request\n     */\n    function parseSLIData(bytes32 sliData)\n        public\n        pure\n        returns (uint256, uint256)\n    {\n        bytes memory bytesSLIData = bytes(_bytes32ToStr(sliData));\n        uint256 sliDataLength = bytesSLIData.length;\n        bytes memory bytesHits = new bytes(sliDataLength);\n        bytes memory bytesMisses = new bytes(sliDataLength);\n        for (uint256 index; index < sliDataLength; index++) {\n            if (bytesSLIData[index] == bytes1(\",\")) {\n                for (uint256 index2 = 0; index2 < index; index2++) {\n                    bytesHits[index2] = bytesSLIData[index2];\n                }\n                for (\n                    uint256 index3 = 0;\n                    index3 < sliDataLength - index - 1;\n                    index3++\n                ) {\n                    bytesMisses[index3] = bytesSLIData[index + 1 + index3];\n                }\n            }\n        }\n        uint256 hits = _bytesToUint(bytesHits);\n        uint256 misses = _bytesToUint(bytesMisses);\n        return (hits, misses);\n    }\n\n    /**\n     * @dev returns the value of the sla registry address\n     */\n    function slaRegistryAddress() public view override returns (address) {\n        return _slaRegistryAddress;\n    }\n\n    /**\n     * @dev returns the value of the messenger precision\n     */\n    function messengerPrecision() public view override returns (uint256) {\n        return _messengerPrecision;\n    }\n\n    /**\n     * @dev returns the chainlink oracle contract address\n     */\n    function oracle() public view override returns (address) {\n        return _oracle;\n    }\n\n    /**\n     * @dev returns the chainlink job id\n     */\n    function jobId() public view override returns (bytes32) {\n        return _jobId;\n    }\n\n    /**\n     * @dev returns the chainlink fee value on LINK tokens\n     */\n    function fee() public view override returns (uint256) {\n        return _fee;\n    }\n\n    /**\n     * @dev returns the contract owner\n     */\n    function owner() public view override returns (address) {\n        return _owner;\n    }\n}\n",
  "sourcePath": "/Users/matiasbn/Desktop/stacktical/stacktical-dsla-contracts/contracts/staking-efficiency/SEMessenger.sol",
  "compiler": {
    "name": "solc",
    "version": "0.6.12+commit.27d51765.Emscripten.clang"
  },
  "schemaVersion": "3.3.3",
  "updatedAt": "2021-03-09T23:11:46.494Z",
  "devdoc": {
    "details": "Staking efficiency Messenger",
    "kind": "dev",
    "methods": {
      "constructor": {
        "details": "parameterize the variables according to network",
        "params": {
          "_messengerChainlinkOracle": "1. the address of the oracle to create requests to",
          "_messengerChainlinkToken": "2. the address of LINK token contract",
          "_messengerJobId": "3. the job id for Staking efficiency job",
          "_networkAnalyticsAddress": "4. Network analytics contract address"
        }
      },
      "fee()": {
        "details": "returns the chainlink fee value on LINK tokens"
      },
      "fulfillSLI(bytes32,bytes32)": {
        "details": "callback function for the Chainlink SLI request which stores the SLI in the SLA contract",
        "params": {
          "_chainlinkResponse": "response object from Chainlink Oracles",
          "_requestId": "the ID of the ChainLink request"
        }
      },
      "jobId()": {
        "details": "returns the chainlink job id"
      },
      "messengerPrecision()": {
        "details": "returns the value of the messenger precision"
      },
      "oracle()": {
        "details": "returns the chainlink oracle contract address"
      },
      "owner()": {
        "details": "returns the contract owner"
      },
      "parseSLIData(bytes32)": {
        "details": "recieves a string of \"hits,misses\" data and returns hits and misses as uint256",
        "params": {
          "sliData": "the ID of the ChainLink request"
        }
      },
      "requestSLI(uint256,address)": {
        "details": "creates a ChainLink request to get a new SLI value for the given params. Can only be called by the SLARegistry contract or Chainlink Oracle.",
        "params": {
          "_periodId": "value of the period id",
          "_slaAddress": "SLA Address"
        }
      },
      "setSLARegistry()": {
        "details": "sets the SLARegistry contract address and can only be called once"
      },
      "slaRegistryAddress()": {
        "details": "returns the value of the sla registry address"
      }
    },
    "stateVariables": {
      "_fee": {
        "details": "fee for Chainlink querys. Currently 0.1 LINK"
      },
      "_jobId": {
        "details": "chainlink jobId"
      },
      "_messengerPrecision": {
        "details": "to multiply the SLI value and get better precision. Useful to deploy SLO correctly"
      },
      "_oracle": {
        "details": "Chainlink oracle address"
      },
      "_owner": {
        "details": "Contract owner"
      },
      "_slaRegistryAddress": {
        "details": "The address of the SLARegistry contract"
      },
      "networkAnalyticsAddress": {
        "details": "Network analytics contract address"
      },
      "requestIdToSLIRequest": {
        "details": "Mapping that stores chainlink sli request information"
      },
      "requests": {
        "details": "Array with all request IDs"
      }
    },
    "title": "SEMessenger",
    "version": 1
  },
  "userdoc": {
    "kind": "user",
    "methods": {
      "constructor": "sets the Chainlink parameters (oracle address, token address, jobId) and sets the SLARegistry to 0x0 address"
    },
    "version": 1
  }
}