{
  "contractName": "SLA",
  "abi": [
    {
      "inputs": [
        {
          "internalType": "address",
          "name": "_owner",
          "type": "address"
        },
        {
          "internalType": "bool",
          "name": "_whitelisted",
          "type": "bool"
        },
        {
          "internalType": "enum PeriodRegistry.PeriodType",
          "name": "_periodType",
          "type": "uint8"
        },
        {
          "internalType": "address",
          "name": "_messengerAddress",
          "type": "address"
        },
        {
          "internalType": "uint128",
          "name": "_initialPeriodId",
          "type": "uint128"
        },
        {
          "internalType": "uint128",
          "name": "_finalPeriodId",
          "type": "uint128"
        },
        {
          "internalType": "uint128",
          "name": "_slaID",
          "type": "uint128"
        },
        {
          "internalType": "string",
          "name": "_ipfsHash",
          "type": "string"
        },
        {
          "internalType": "bytes32[]",
          "name": "_extraData",
          "type": "bytes32[]"
        },
        {
          "internalType": "uint64",
          "name": "_leverage",
          "type": "uint64"
        }
      ],
      "stateMutability": "nonpayable",
      "type": "constructor"
    },
    {
      "anonymous": false,
      "inputs": [
        {
          "indexed": true,
          "internalType": "address",
          "name": "tokenAddress",
          "type": "address"
        },
        {
          "indexed": true,
          "internalType": "address",
          "name": "dpTokenAddress",
          "type": "address"
        },
        {
          "indexed": false,
          "internalType": "string",
          "name": "dpTokenName",
          "type": "string"
        },
        {
          "indexed": false,
          "internalType": "string",
          "name": "dpTokenSymbol",
          "type": "string"
        },
        {
          "indexed": true,
          "internalType": "address",
          "name": "duTokenAddress",
          "type": "address"
        },
        {
          "indexed": false,
          "internalType": "string",
          "name": "duTokenName",
          "type": "string"
        },
        {
          "indexed": false,
          "internalType": "string",
          "name": "duTokenSymbol",
          "type": "string"
        }
      ],
      "name": "DTokensCreated",
      "type": "event"
    },
    {
      "anonymous": false,
      "inputs": [
        {
          "indexed": true,
          "internalType": "address",
          "name": "previousOwner",
          "type": "address"
        },
        {
          "indexed": true,
          "internalType": "address",
          "name": "newOwner",
          "type": "address"
        }
      ],
      "name": "OwnershipTransferred",
      "type": "event"
    },
    {
      "anonymous": false,
      "inputs": [
        {
          "indexed": true,
          "internalType": "uint256",
          "name": "periodId",
          "type": "uint256"
        },
        {
          "indexed": true,
          "internalType": "address",
          "name": "tokenAddress",
          "type": "address"
        },
        {
          "indexed": false,
          "internalType": "uint256",
          "name": "rewardPercentage",
          "type": "uint256"
        },
        {
          "indexed": false,
          "internalType": "uint256",
          "name": "rewardPercentagePrecision",
          "type": "uint256"
        },
        {
          "indexed": false,
          "internalType": "uint256",
          "name": "rewardAmount",
          "type": "uint256"
        }
      ],
      "name": "ProviderRewardGenerated",
      "type": "event"
    },
    {
      "anonymous": false,
      "inputs": [
        {
          "indexed": true,
          "internalType": "address",
          "name": "tokenAddress",
          "type": "address"
        },
        {
          "indexed": true,
          "internalType": "uint256",
          "name": "periodId",
          "type": "uint256"
        },
        {
          "indexed": true,
          "internalType": "address",
          "name": "caller",
          "type": "address"
        },
        {
          "indexed": false,
          "internalType": "uint256",
          "name": "amount",
          "type": "uint256"
        }
      ],
      "name": "ProviderWithdraw",
      "type": "event"
    },
    {
      "anonymous": false,
      "inputs": [
        {
          "indexed": false,
          "internalType": "uint256",
          "name": "timestamp",
          "type": "uint256"
        },
        {
          "indexed": false,
          "internalType": "uint256",
          "name": "sli",
          "type": "uint256"
        },
        {
          "indexed": false,
          "internalType": "uint256",
          "name": "periodId",
          "type": "uint256"
        }
      ],
      "name": "SLICreated",
      "type": "event"
    },
    {
      "anonymous": false,
      "inputs": [
        {
          "indexed": true,
          "internalType": "address",
          "name": "tokenAddress",
          "type": "address"
        },
        {
          "indexed": true,
          "internalType": "uint256",
          "name": "periodId",
          "type": "uint256"
        },
        {
          "indexed": true,
          "internalType": "address",
          "name": "caller",
          "type": "address"
        },
        {
          "indexed": false,
          "internalType": "uint256",
          "name": "amount",
          "type": "uint256"
        }
      ],
      "name": "Stake",
      "type": "event"
    },
    {
      "anonymous": false,
      "inputs": [
        {
          "indexed": true,
          "internalType": "uint256",
          "name": "periodId",
          "type": "uint256"
        },
        {
          "indexed": true,
          "internalType": "address",
          "name": "tokenAddress",
          "type": "address"
        },
        {
          "indexed": false,
          "internalType": "uint256",
          "name": "usersStake",
          "type": "uint256"
        },
        {
          "indexed": false,
          "internalType": "uint256",
          "name": "leverage",
          "type": "uint256"
        },
        {
          "indexed": false,
          "internalType": "uint256",
          "name": "compensation",
          "type": "uint256"
        }
      ],
      "name": "UserCompensationGenerated",
      "type": "event"
    },
    {
      "anonymous": false,
      "inputs": [
        {
          "indexed": true,
          "internalType": "address",
          "name": "tokenAddress",
          "type": "address"
        },
        {
          "indexed": true,
          "internalType": "uint256",
          "name": "periodId",
          "type": "uint256"
        },
        {
          "indexed": true,
          "internalType": "address",
          "name": "caller",
          "type": "address"
        },
        {
          "indexed": false,
          "internalType": "uint256",
          "name": "amount",
          "type": "uint256"
        }
      ],
      "name": "UserWithdraw",
      "type": "event"
    },
    {
      "inputs": [],
      "name": "DSLAburnRate",
      "outputs": [
        {
          "internalType": "uint256",
          "name": "",
          "type": "uint256"
        }
      ],
      "stateMutability": "view",
      "type": "function"
    },
    {
      "inputs": [
        {
          "internalType": "address",
          "name": "_tokenAddress",
          "type": "address"
        }
      ],
      "name": "addAllowedTokens",
      "outputs": [],
      "stateMutability": "nonpayable",
      "type": "function"
    },
    {
      "inputs": [
        {
          "internalType": "address[]",
          "name": "_userAddresses",
          "type": "address[]"
        }
      ],
      "name": "addUsersToWhitelist",
      "outputs": [],
      "stateMutability": "nonpayable",
      "type": "function"
    },
    {
      "inputs": [
        {
          "internalType": "uint256",
          "name": "",
          "type": "uint256"
        }
      ],
      "name": "allowedTokens",
      "outputs": [
        {
          "internalType": "address",
          "name": "",
          "type": "address"
        }
      ],
      "stateMutability": "view",
      "type": "function"
    },
    {
      "inputs": [],
      "name": "creationBlockNumber",
      "outputs": [
        {
          "internalType": "uint256",
          "name": "",
          "type": "uint256"
        }
      ],
      "stateMutability": "view",
      "type": "function"
    },
    {
      "inputs": [
        {
          "internalType": "address",
          "name": "",
          "type": "address"
        }
      ],
      "name": "dpTokenRegistry",
      "outputs": [
        {
          "internalType": "contract ERC20PresetMinterPauser",
          "name": "",
          "type": "address"
        }
      ],
      "stateMutability": "view",
      "type": "function"
    },
    {
      "inputs": [],
      "name": "dslaTokenAddress",
      "outputs": [
        {
          "internalType": "address",
          "name": "",
          "type": "address"
        }
      ],
      "stateMutability": "view",
      "type": "function"
    },
    {
      "inputs": [
        {
          "internalType": "address",
          "name": "",
          "type": "address"
        }
      ],
      "name": "duTokenRegistry",
      "outputs": [
        {
          "internalType": "contract ERC20PresetMinterPauser",
          "name": "",
          "type": "address"
        }
      ],
      "stateMutability": "view",
      "type": "function"
    },
    {
      "inputs": [
        {
          "internalType": "uint256",
          "name": "",
          "type": "uint256"
        }
      ],
      "name": "extraData",
      "outputs": [
        {
          "internalType": "bytes32",
          "name": "",
          "type": "bytes32"
        }
      ],
      "stateMutability": "view",
      "type": "function"
    },
    {
      "inputs": [],
      "name": "finalPeriodId",
      "outputs": [
        {
          "internalType": "uint128",
          "name": "",
          "type": "uint128"
        }
      ],
      "stateMutability": "view",
      "type": "function"
    },
    {
      "inputs": [],
      "name": "getAllowedTokensLength",
      "outputs": [
        {
          "internalType": "uint256",
          "name": "",
          "type": "uint256"
        }
      ],
      "stateMutability": "view",
      "type": "function"
    },
    {
      "inputs": [
        {
          "internalType": "address",
          "name": "_staker",
          "type": "address"
        },
        {
          "internalType": "uint256",
          "name": "_allowedTokenIndex",
          "type": "uint256"
        }
      ],
      "name": "getTokenStake",
      "outputs": [
        {
          "internalType": "address",
          "name": "tokenAddress",
          "type": "address"
        },
        {
          "internalType": "uint256",
          "name": "stake",
          "type": "uint256"
        }
      ],
      "stateMutability": "view",
      "type": "function"
    },
    {
      "inputs": [],
      "name": "initialPeriodId",
      "outputs": [
        {
          "internalType": "uint128",
          "name": "",
          "type": "uint128"
        }
      ],
      "stateMutability": "view",
      "type": "function"
    },
    {
      "inputs": [],
      "name": "ipfsHash",
      "outputs": [
        {
          "internalType": "string",
          "name": "",
          "type": "string"
        }
      ],
      "stateMutability": "view",
      "type": "function"
    },
    {
      "inputs": [
        {
          "internalType": "address",
          "name": "_tokenAddress",
          "type": "address"
        }
      ],
      "name": "isAllowedToken",
      "outputs": [
        {
          "internalType": "bool",
          "name": "",
          "type": "bool"
        }
      ],
      "stateMutability": "view",
      "type": "function"
    },
    {
      "inputs": [],
      "name": "leverage",
      "outputs": [
        {
          "internalType": "uint64",
          "name": "",
          "type": "uint64"
        }
      ],
      "stateMutability": "view",
      "type": "function"
    },
    {
      "inputs": [],
      "name": "messengerAddress",
      "outputs": [
        {
          "internalType": "address",
          "name": "",
          "type": "address"
        }
      ],
      "stateMutability": "view",
      "type": "function"
    },
    {
      "inputs": [],
      "name": "nextVerifiablePeriod",
      "outputs": [
        {
          "internalType": "uint256",
          "name": "",
          "type": "uint256"
        }
      ],
      "stateMutability": "view",
      "type": "function"
    },
    {
      "inputs": [],
      "name": "owner",
      "outputs": [
        {
          "internalType": "address",
          "name": "",
          "type": "address"
        }
      ],
      "stateMutability": "view",
      "type": "function"
    },
    {
      "inputs": [
        {
          "internalType": "uint256",
          "name": "",
          "type": "uint256"
        }
      ],
      "name": "periodSLIs",
      "outputs": [
        {
          "internalType": "uint256",
          "name": "timestamp",
          "type": "uint256"
        },
        {
          "internalType": "uint256",
          "name": "sli",
          "type": "uint256"
        },
        {
          "internalType": "enum SLA.Status",
          "name": "status",
          "type": "uint8"
        }
      ],
      "stateMutability": "view",
      "type": "function"
    },
    {
      "inputs": [],
      "name": "periodType",
      "outputs": [
        {
          "internalType": "enum PeriodRegistry.PeriodType",
          "name": "",
          "type": "uint8"
        }
      ],
      "stateMutability": "view",
      "type": "function"
    },
    {
      "inputs": [
        {
          "internalType": "address",
          "name": "",
          "type": "address"
        }
      ],
      "name": "providerPool",
      "outputs": [
        {
          "internalType": "uint256",
          "name": "",
          "type": "uint256"
        }
      ],
      "stateMutability": "view",
      "type": "function"
    },
    {
      "inputs": [
        {
          "internalType": "address",
          "name": "",
          "type": "address"
        }
      ],
      "name": "registeredStakers",
      "outputs": [
        {
          "internalType": "bool",
          "name": "",
          "type": "bool"
        }
      ],
      "stateMutability": "view",
      "type": "function"
    },
    {
      "inputs": [
        {
          "internalType": "address[]",
          "name": "_userAddresses",
          "type": "address[]"
        }
      ],
      "name": "removeUsersFromWhitelist",
      "outputs": [],
      "stateMutability": "nonpayable",
      "type": "function"
    },
    {
      "inputs": [],
      "name": "renounceOwnership",
      "outputs": [],
      "stateMutability": "nonpayable",
      "type": "function"
    },
    {
      "inputs": [],
      "name": "slaID",
      "outputs": [
        {
          "internalType": "uint128",
          "name": "",
          "type": "uint128"
        }
      ],
      "stateMutability": "view",
      "type": "function"
    },
    {
      "inputs": [],
      "name": "slaRegistry",
      "outputs": [
        {
          "internalType": "contract SLARegistry",
          "name": "",
          "type": "address"
        }
      ],
      "stateMutability": "view",
      "type": "function"
    },
    {
      "inputs": [
        {
          "internalType": "uint256",
          "name": "",
          "type": "uint256"
        }
      ],
      "name": "stakers",
      "outputs": [
        {
          "internalType": "address",
          "name": "",
          "type": "address"
        }
      ],
      "stateMutability": "view",
      "type": "function"
    },
    {
      "inputs": [
        {
          "internalType": "address",
          "name": "newOwner",
          "type": "address"
        }
      ],
      "name": "transferOwnership",
      "outputs": [],
      "stateMutability": "nonpayable",
      "type": "function"
    },
    {
      "inputs": [
        {
          "internalType": "address",
          "name": "",
          "type": "address"
        }
      ],
      "name": "usersPool",
      "outputs": [
        {
          "internalType": "uint256",
          "name": "",
          "type": "uint256"
        }
      ],
      "stateMutability": "view",
      "type": "function"
    },
    {
      "inputs": [
        {
          "internalType": "address",
          "name": "",
          "type": "address"
        }
      ],
      "name": "whitelist",
      "outputs": [
        {
          "internalType": "bool",
          "name": "",
          "type": "bool"
        }
      ],
      "stateMutability": "view",
      "type": "function"
    },
    {
      "inputs": [],
      "name": "whitelistedContract",
      "outputs": [
        {
          "internalType": "bool",
          "name": "",
          "type": "bool"
        }
      ],
      "stateMutability": "view",
      "type": "function"
    },
    {
      "inputs": [
        {
          "internalType": "uint256",
          "name": "_sli",
          "type": "uint256"
        },
        {
          "internalType": "uint256",
          "name": "_periodId",
          "type": "uint256"
        }
      ],
      "name": "registerSLI",
      "outputs": [],
      "stateMutability": "nonpayable",
      "type": "function"
    },
    {
      "inputs": [
        {
          "internalType": "uint256",
          "name": "_periodId",
          "type": "uint256"
        }
      ],
      "name": "isAllowedPeriod",
      "outputs": [
        {
          "internalType": "bool",
          "name": "",
          "type": "bool"
        }
      ],
      "stateMutability": "view",
      "type": "function"
    },
    {
      "inputs": [],
      "name": "contractFinished",
      "outputs": [
        {
          "internalType": "bool",
          "name": "",
          "type": "bool"
        }
      ],
      "stateMutability": "view",
      "type": "function"
    },
    {
      "inputs": [
        {
          "internalType": "uint256",
          "name": "_amount",
          "type": "uint256"
        },
        {
          "internalType": "address",
          "name": "_token",
          "type": "address"
        }
      ],
      "name": "stakeTokens",
      "outputs": [],
      "stateMutability": "nonpayable",
      "type": "function"
    },
    {
      "inputs": [
        {
          "internalType": "uint256",
          "name": "_amount",
          "type": "uint256"
        },
        {
          "internalType": "address",
          "name": "_tokenAddress",
          "type": "address"
        }
      ],
      "name": "withdrawProviderTokens",
      "outputs": [],
      "stateMutability": "nonpayable",
      "type": "function"
    },
    {
      "inputs": [
        {
          "internalType": "uint256",
          "name": "_amount",
          "type": "uint256"
        },
        {
          "internalType": "address",
          "name": "_tokenAddress",
          "type": "address"
        }
      ],
      "name": "withdrawUserTokens",
      "outputs": [],
      "stateMutability": "nonpayable",
      "type": "function"
    },
    {
      "inputs": [],
      "name": "getStakersLength",
      "outputs": [
        {
          "internalType": "uint256",
          "name": "",
          "type": "uint256"
        }
      ],
      "stateMutability": "view",
      "type": "function"
    },
    {
      "inputs": [],
      "name": "breachedContract",
      "outputs": [
        {
          "internalType": "bool",
          "name": "",
          "type": "bool"
        }
      ],
      "stateMutability": "view",
      "type": "function"
    }
  ],
  "bytecode": "0x610240604052600d805460ff191690553480156200001c57600080fd5b5060405162004038380380620040388339810160408190526200003f91620008cf565b33888a86848e60006200005a6001600160e01b036200059616565b600080546001600160a01b0319166001600160a01b03831690811782556040519293509160008051602062004018833981519152908290a350856001600160a01b031663683048356040518163ffffffff1660e01b815260040160206040518083038186803b158015620000cd57600080fd5b505afa158015620000e2573d6000803e3d6000fd5b505050506040513d601f19601f82011682018060405250810190620001089190620008a9565b600160006101000a8154816001600160a01b0302191690836001600160a01b03160217905550856001600160a01b0316639fc4caa56040518163ffffffff1660e01b815260040160206040518083038186803b1580156200016857600080fd5b505afa1580156200017d573d6000803e3d6000fd5b505050506040513d601f19601f82011682018060405250810190620001a39190620008a9565b60601b6001600160601b031916608052846005811115620001c057fe5b610100816005811115620001d057fe5b60f890811b909152851515901b610120525060015460408051637b8041cf60e11b8152905160009283926001600160a01b039091169163f700839e9160048082019261010092909190829003018186803b1580156200022e57600080fd5b505afa15801562000243573d6000803e3d6000fd5b505050506040513d601f19601f82011682018060405250810190620002699190620009d6565b97505050505050509150600160009054906101000a90046001600160a01b03166001600160a01b0316638b8e53096040518163ffffffff1660e01b815260040160206040518083038186803b158015620002c257600080fd5b505afa158015620002d7573d6000803e3d6000fd5b505050506040513d601f19601f82011682018060405250810190620002fd9190620008a9565b60601b6001600160601b03191660c05260e08290526001600160a01b03831660009081526009602052604090208054600160ff19909116179055608085901b6001600160801b03191660a0526001600160401b03818116908516118015906200037057506001846001600160401b031610155b620003985760405162461bcd60e51b81526004016200038f9062000a85565b60405180910390fd5b50505060c01b6001600160c01b0319166101405250620003bd92508c9150506200059b565b8251620003d290600a90602086019062000651565b506001600160601b0319606088901b1661016052600b80546001600160a01b03191633179081905560408051639fc4caa560e01b815290516001600160a01b039290921691639fc4caa591600480820192602092909190829003018186803b1580156200043e57600080fd5b505afa15801562000453573d6000803e3d6000fd5b505050506040513d601f19601f82011682018060405250810190620004799190620008a9565b60601b6001600160601b03191661018052600b5460408051635a7d1e5d60e01b815290516001600160a01b0390921691635a7d1e5d91600480820192602092909190829003018186803b158015620004d057600080fd5b505afa158015620004e5573d6000803e3d6000fd5b505050506040513d601f19601f820116820180604052508101906200050b9190620008a9565b60601b6001600160601b0319166101a052436101c052608086811b6001600160801b03199081166101e0529086901b16610200528760058111156200054c57fe5b6102208160058111156200055c57fe5b60f81b90525081516200057790600c906020850190620006d6565b5050506001600160801b03909316600e555062000b2695505050505050565b335b90565b620005ae6001600160e01b036200059616565b6000546001600160a01b03908116911614620005de5760405162461bcd60e51b81526004016200038f9062000ab1565b6001600160a01b038116620006075760405162461bcd60e51b81526004016200038f9062000a3f565b600080546040516001600160a01b03808516939216916000805160206200401883398151915291a3600080546001600160a01b0319166001600160a01b0392909216919091179055565b828054600181600116156101000203166002900490600052602060002090601f016020900481019282601f106200069457805160ff1916838001178555620006c4565b82800160010185558215620006c4579182015b82811115620006c4578251825591602001919060010190620006a7565b50620006d292915062000713565b5090565b828054828255906000526020600020908101928215620006c45791602002820182811115620006c4578251825591602001919060010190620006a7565b6200059891905b80821115620006d257600081556001016200071a565b80516200073d8162000b0d565b92915050565b600082601f83011262000754578081fd5b81516001600160401b038111156200076a578182fd5b60208082026200077c82820162000ae6565b838152935081840185830182870184018810156200079957600080fd5b600092505b84831015620007be5780518252600192909201919083019083016200079e565b505050505092915050565b805180151581146200073d57600080fd5b8051600681106200073d57600080fd5b600082601f830112620007fb578081fd5b81516001600160401b0381111562000811578182fd5b602062000827601f8301601f1916820162000ae6565b925081835284818386010111156200083e57600080fd5b60005b828110156200085e57848101820151848201830152810162000841565b82811115620008705760008284860101525b50505092915050565b80516001600160801b03811681146200073d57600080fd5b80516001600160401b03811681146200073d57600080fd5b600060208284031215620008bb578081fd5b8151620008c88162000b0d565b9392505050565b6000806000806000806000806000806101408b8d031215620008ef578586fd5b620008fb8c8c62000730565b99506200090c8c60208d01620007c9565b98506200091d8c60408d01620007da565b97506200092e8c60608d0162000730565b96506200093f8c60808d0162000879565b9550620009508c60a08d0162000879565b9450620009618c60c08d0162000879565b60e08c01519094506001600160401b03808211156200097e578485fd5b6200098c8e838f01620007ea565b94506101008d0151915080821115620009a3578384fd5b50620009b28d828e0162000743565b925050620009c58c6101208d0162000891565b90509295989b9194979a5092959850565b600080600080600080600080610100898b031215620009f3578384fd5b885197506020890151965060408901519550606089015194506080890151935060a0890151925060c0890151915062000a308a60e08b0162000891565b90509295985092959890939650565b60208082526026908201527f4f776e61626c653a206e6577206f776e657220697320746865207a65726f206160408201526564647265737360d01b606082015260800190565b602080825260129082015271496e636f7272656374206c6576657261676560701b604082015260600190565b6020808252818101527f4f776e61626c653a2063616c6c6572206973206e6f7420746865206f776e6572604082015260600190565b6040518181016001600160401b038111828210171562000b0557600080fd5b604052919050565b6001600160a01b038116811462000b2357600080fd5b50565b60805160601c60a05160801c60c05160601c60e0516101005160f81c6101205160f81c6101405160c01c6101605160601c6101805160601c6101a05160601c6101c0516101e05160801c6102005160801c6102205160f81c6133ee62000c2a60003980610d9752806112e15250806105345280610d4f528061130252806113b052806118855250806104fb5280610c3e528061181a5280611864525080610c1a52508061168f528061172e5250806112b252508061141f52806115e2525080610d2b5280611b0b528061220852806125b7528061268f525080610bf65280611a42525050806110b95250806119e4525080610940528061190a5250506133ee6000f3fe608060405234801561001057600080fd5b50600436106102485760003560e01c806378025ec41161013b578063b7bc347e116100b8578063db69a4621161007c578063db69a462146104b9578063f2db10fe146104c1578063f2fde38b146104c9578063f7e9dfff146104dc578063fd5e6dd1146104e457610248565b8063b7bc347e14610463578063c623674f1461046b578063c8b5c24814610480578063cbe230c314610493578063d7a5c422146104a657610248565b80639b19251a116100ff5780639b19251a146104255780639fabeb0014610438578063a224ee9c14610440578063a7e8d8d414610448578063b1659bad1461045b57610248565b806378025ec4146103e75780637fd788aa146103fa5780638d21c770146104025780638da5cb5b1461041557806396f76f111461041d57610248565b806346e0fbae116101c95780635ae698ff1161018d5780635ae698ff1461039e5780635c1c20de146103b15780635e5f2e26146103b9578063639b6fc3146103cc578063715018a6146103df57610248565b806346e0fbae14610322578063484fbf2b146103375780634e0c91f61461034a5780634fb2647e1461036a57806357ac94f01461037d57610248565b80632526743a116102105780632526743a146102bb57806326db18ac146102d05780632c86d98e146102e35780633385d334146102f85780634190edde1461030057610248565b8063021eef7f1461024d5780630bea440d14610276578063171e44ea1461028b57806318e454271461029e5780631bf30929146102a6575b600080fd5b61026061025b366004612b36565b6104f7565b60405161026d9190612dc5565b60405180910390f35b610289610284366004612b66565b610574565b005b61028961029936600461291e565b610726565b610260610bf4565b6102ae610c18565b60405161026d9190612dd0565b6102c3610c3c565b60405161026d919061328b565b6102896102de366004612b66565b610c60565b6102eb610d29565b60405161026d9190613311565b6102c3610d4d565b61031361030e366004612b36565b610d71565b60405161026d939291906132b6565b61032a610d95565b60405161026d9190612dd9565b6102ae61034536600461291e565b610db9565b61035d61035836600461291e565b610dcb565b60405161026d9190612d74565b61035d61037836600461291e565b610de6565b61039061038b366004612956565b610e01565b60405161026d929190612d88565b6102896103ac3660046129ec565b610fdd565b6102ae6110b7565b61035d6103c7366004612b36565b6110db565b6102ae6103da36600461291e565b611102565b610289611114565b6102ae6103f5366004612b36565b611193565b6102606111b1565b610289610410366004612981565b6111ba565b61035d61129e565b6102606112ad565b61026061043336600461291e565b611402565b6102ae611417565b61035d61141d565b61026061045636600461291e565b611441565b6102ae611456565b6102ae61145c565b610473611462565b60405161026d9190612e11565b61028961048e366004612b66565b6114f0565b6102606104a136600461291e565b61157c565b6102896104b4366004612bbc565b6115d7565b61035d6118f9565b6102c3611908565b6102896104d736600461291e565b61192c565b61035d6119e2565b61035d6104f2366004612b36565b611a06565b60007f00000000000000000000000000000000000000000000000000000000000000006001600160801b03168210156105325750600061056f565b7f00000000000000000000000000000000000000000000000000000000000000006001600160801b031682111561056b5750600061056f565b5060015b919050565b816000811161059e5760405162461bcd60e51b815260040161059590613215565b60405180910390fd5b60006105a86112ad565b905080156105c85760405162461bcd60e51b815260040161059590613034565b6105d28484611a13565b336001600160a01b0316600e54846001600160a01b03167f1bd1eb6b4fd3f08e718d7a241c54c4641c9f36004b6949383f48d15a2fcc8f52876040516106189190612dd0565b60405180910390a4600b5460408051636830483560e01b815290516000926001600160a01b0316916368304835916004808301926020929190829003018186803b15801561066557600080fd5b505afa158015610679573d6000803e3d6000fd5b505050506040513d601f19601f8201168201806040525081019061069d919061293a565b604051635948284760e11b81529091506001600160a01b0382169063b290508e906106cc903390600401612d74565b602060405180830381600087803b1580156106e657600080fd5b505af11580156106fa573d6000803e3d6000fd5b505050506040513d601f19601f8201168201806040525081019061071e9190612a8b565b505050505050565b61072e611f75565b6000546001600160a01b0390811691161461075b5760405162461bcd60e51b815260040161059590613119565b60015460408051637b8041cf60e11b815290516000926001600160a01b03169163f700839e91600480830192610100929190829003018186803b1580156107a157600080fd5b505afa1580156107b5573d6000803e3d6000fd5b505050506040513d601f19601f820116820180604052508101906107d99190612c00565b5096505050505050506107eb8261157c565b156108085760405162461bcd60e51b815260040161059590613185565b60015460405163cbe230c360e01b81526001600160a01b039091169063cbe230c390610838908590600401612d74565b60206040518083038186803b15801561085057600080fd5b505afa158015610864573d6000803e3d6000fd5b505050506040513d601f19601f820116820180604052508101906108889190612a8b565b6108a45760405162461bcd60e51b815260040161059590612f79565b6008805460018101825560008290527ff3f7a9fe364faab93b216da50a3214154f22a0a2b415b23a84c8169e8b636ee30180546001600160a01b0319166001600160a01b0385161790555481101561090e5760405162461bcd60e51b815260040161059590612ea9565b60405163fc966d4560e01b815260609073__StringUtils___________________________9063fc966d4590610968907f00000000000000000000000000000000000000000000000000000000000000009060040161328b565b60006040518083038186803b15801561098057600080fd5b505af4158015610994573d6000803e3d6000fd5b505050506040513d6000823e601f3d908101601f191682016040526109bc9190810190612aab565b90506060816040516020016109d19190612cbc565b60405160208183030381529060405290506060826040516020016109f59190612cef565b6040516020818303038152906040529050606083604051602001610a199190612d1f565b6040516020818303038152906040529050606084604051602001610a3d9190612d51565b60408051601f1981840301815290829052600154633350214760e11b83529092506000916001600160a01b03909116906366a0428e90610a839088908890600401612e24565b602060405180830381600087803b158015610a9d57600080fd5b505af1158015610ab1573d6000803e3d6000fd5b505050506040513d601f19601f82011682018060405250810190610ad5919061293a565b600154604051633350214760e11b81529192506000916001600160a01b03909116906366a0428e90610b0d9087908790600401612e24565b602060405180830381600087803b158015610b2757600080fd5b505af1158015610b3b573d6000803e3d6000fd5b505050506040513d601f19601f82011682018060405250810190610b5f919061293a565b6001600160a01b03808b16600081815260056020908152604080832080548688166001600160a01b0319918216811790925560049093529281902080549589169590921685179091555193945091927fce8c390dc55dbcd418078f1391fbb7d471c01c228fc4464926095354cb27c02990610be190899081908d908190612e52565b60405180910390a4505050505050505050565b7f000000000000000000000000000000000000000000000000000000000000000081565b7f000000000000000000000000000000000000000000000000000000000000000081565b7f000000000000000000000000000000000000000000000000000000000000000081565b8160008111610c815760405162461bcd60e51b815260040161059590613215565b610c8961129e565b6001600160a01b0316336001600160a01b031614610ccc576000610cab6112ad565b905080610cca5760405162461bcd60e51b81526004016105959061314e565b505b336001600160a01b0316600e54836001600160a01b03167f5d73c1b3aab5bae46e08e09668d192166389623bef76bbe8cdae8df8ad320fce86604051610d129190612dd0565b60405180910390a4610d248383611f79565b505050565b7f000000000000000000000000000000000000000000000000000000000000000081565b7f000000000000000000000000000000000000000000000000000000000000000081565b600f6020526000908152604090208054600182015460029092015490919060ff1683565b7f000000000000000000000000000000000000000000000000000000000000000081565b60036020526000908152604090205481565b6004602052600090815260409020546001600160a01b031681565b6005602052600090815260409020546001600160a01b031681565b600080600060088481548110610e1357fe5b6000918252602090912001546001600160a01b03169050610e3261129e565b6001600160a01b0316856001600160a01b03161415610e6e576001600160a01b0381166000908152600260205260409020549092509050610fd6565b6001600160a01b0380821660009081526004602081815260408084205481516318160ddd60e01b8152915195169485936318160ddd938382019390929190829003018186803b158015610ec057600080fd5b505afa158015610ed4573d6000803e3d6000fd5b505050506040513d601f19601f82011682018060405250810190610ef89190612b4e565b905080610f0e575090925060009150610fd69050565b6040516370a0823160e01b81526000906001600160a01b038416906370a0823190610f3d908b90600401612d74565b60206040518083038186803b158015610f5557600080fd5b505afa158015610f69573d6000803e3d6000fd5b505050506040513d601f19601f82011682018060405250810190610f8d9190612b4e565b6001600160a01b0385166000908152600360205260409020549091508490610fcd908490610fc1908563ffffffff61212016565b9063ffffffff61216316565b95509550505050505b9250929050565b610fe5611f75565b6000546001600160a01b039081169116146110125760405162461bcd60e51b815260040161059590613119565b60005b81518110156110b3576009600083838151811061102e57fe5b6020908102919091018101516001600160a01b031682528101919091526040016000205460ff166110ab5760016009600084848151811061106b57fe5b60200260200101516001600160a01b03166001600160a01b0316815260200190815260200160002060006101000a81548160ff0219169083151502179055505b600101611015565b5050565b7f000000000000000000000000000000000000000000000000000000000000000081565b600881815481106110e857fe5b6000918252602090912001546001600160a01b0316905081565b60026020526000908152604090205481565b61111c611f75565b6000546001600160a01b039081169116146111495760405162461bcd60e51b815260040161059590613119565b600080546040516001600160a01b03909116907f8be0079c531659141344cd1fd0a4f28419497f9722a3daafe3b4186f6b6457e0908390a3600080546001600160a01b0319169055565b600c81815481106111a057fe5b600091825260209091200154905081565b600d5460ff1690565b6111c2611f75565b6000546001600160a01b039081169116146111ef5760405162461bcd60e51b815260040161059590613119565b60005b81811015610d24576009600084848481811061120a57fe5b905060200201602081019061121f919061291e565b6001600160a01b0316815260208101919091526040016000205460ff161515600114156112965760006009600085858581811061125857fe5b905060200201602081019061126d919061291e565b6001600160a01b031681526020810191909152604001600020805460ff19169115159190911790555b6001016111f2565b6000546001600160a01b031690565b6000807f00000000000000000000000000000000000000000000000000000000000000006001600160a01b031663ffa612357f00000000000000000000000000000000000000000000000000000000000000007f00000000000000000000000000000000000000000000000000000000000000006040518363ffffffff1660e01b815260040161133e929190612dec565b604080518083038186803b15801561135557600080fd5b505afa158015611369573d6000803e3d6000fd5b505050506040513d601f19601f8201168201806040525081019061138d9190612bdd565b600d5490925060ff1615156001149050806113fc57508042101580156113fc57507f00000000000000000000000000000000000000000000000000000000000000006001600160801b03166000908152600f6020526040812060029081015460ff16908111156113f957fe5b14155b91505090565b60096020526000908152604090205460ff1681565b60065490565b7f000000000000000000000000000000000000000000000000000000000000000081565b60076020526000908152604090205460ff1681565b600e5481565b60085490565b600a805460408051602060026001851615610100026000190190941693909304601f810184900484028201840190925281815292918301828280156114e85780601f106114bd576101008083540402835291602001916114e8565b820191906000526020600020905b8154815290600101906020018083116114cb57829003601f168201915b505050505081565b81600081116115115760405162461bcd60e51b815260040161059590613215565b600061151b6112ad565b9050336001600160a01b0316600e54846001600160a01b03167fbd9be3d6449ecbdf4b3b9980b1631ec06c13d8cf9e09e2433075f123b348e3ba876040516115639190612dd0565b60405180910390a46115768484836121a5565b50505050565b6000805b6008548110156115ce57826001600160a01b0316600882815481106115a157fe5b6000918252602090912001546001600160a01b031614156115c657600191505061056f565b600101611580565b50600092915050565b336001600160a01b037f0000000000000000000000000000000000000000000000000000000000000000161461161f5760405162461bcd60e51b815260040161059590612fc6565b7fc95987c1992805ee34bdc915e017cceae36ba1c156b9911fa7e691e6435eb46e428383604051611652939291906132dc565b60405180910390a16001808201600e556000828152600f60205260408082209283018590554283555163a7b72ac560e01b81526001600160a01b037f0000000000000000000000000000000000000000000000000000000000000000169063a7b72ac5906116c4903090600401612d74565b604080518083038186803b1580156116db57600080fd5b505afa1580156116ef573d6000803e3d6000fd5b505050506040513d601f19601f820116820180604052508101906117139190612b95565b50604051631993b9df60e01b81529091506001600160a01b037f00000000000000000000000000000000000000000000000000000000000000001690631993b9df90611765908790309060040161329f565b60206040518083038186803b15801561177d57600080fd5b505afa158015611791573d6000803e3d6000fd5b505050506040513d601f19601f820116820180604052508101906117b59190612a8b565b156118cd576002828101805460ff1916600117905561271090600090611803906117e390610fc189876123df565b610fc1846117f78a8863ffffffff61240416565b9063ffffffff61212016565b905060006118516001611845886001600160801b037f00000000000000000000000000000000000000000000000000000000000000001663ffffffff61240416565b9063ffffffff6123df16565b905060006118b76001600160801b0360017f00000000000000000000000000000000000000000000000000000000000000007f0000000000000000000000000000000000000000000000000000000000000000030116610fc1858563ffffffff61212016565b90506118c4878286612446565b50505050611576565b6002828101805460ff191690911790556118e683612565565b600d805460ff1916600117905550505050565b600b546001600160a01b031681565b7f000000000000000000000000000000000000000000000000000000000000000081565b611934611f75565b6000546001600160a01b039081169116146119615760405162461bcd60e51b815260040161059590613119565b6001600160a01b0381166119875760405162461bcd60e51b815260040161059590612efc565b600080546040516001600160a01b03808516939216917f8be0079c531659141344cd1fd0a4f28419497f9722a3daafe3b4186f6b6457e091a3600080546001600160a01b0319166001600160a01b0392909216919091179055565b7f000000000000000000000000000000000000000000000000000000000000000081565b600681815481106110e857fe5b80611a1d8161157c565b1515600114611a3e5760405162461bcd60e51b8152600401610595906130eb565b60017f000000000000000000000000000000000000000000000000000000000000000015151415611a9d573360009081526009602052604090205460ff161515600114611a9d5760405162461bcd60e51b81526004016105959061300b565b611ab86001600160a01b03831633308663ffffffff6126c916565b611ac061129e565b6001600160a01b0316336001600160a01b031614611d2f576001600160a01b03821660009081526002602090815260408083205460039092529091205481611b3b6001600160401b037f0000000000000000000000000000000000000000000000000000000000000000166117f7848963ffffffff6123df16565b1115611b595760405162461bcd60e51b81526004016105959061307c565b6001600160a01b0380851660009081526004602081815260408084205481516318160ddd60e01b8152915195169485936318160ddd938382019390929190829003018186803b158015611bab57600080fd5b505afa158015611bbf573d6000803e3d6000fd5b505050506040513d601f19601f82011682018060405250810190611be39190612b4e565b905080611c4f576040516340c10f1960e01b81526001600160a01b038316906340c10f1990611c189033908b90600401612d88565b600060405180830381600087803b158015611c3257600080fd5b505af1158015611c46573d6000803e3d6000fd5b50505050611ce3565b6001600160a01b03861660009081526003602052604081205490611c7d82610fc18b8663ffffffff61212016565b6040516340c10f1960e01b81529091506001600160a01b038516906340c10f1990611cae9033908590600401612d88565b600060405180830381600087803b158015611cc857600080fd5b505af1158015611cdc573d6000803e3d6000fd5b5050505050505b6001600160a01b038616600090815260036020526040902054611d0c908863ffffffff6123df16565b6001600160a01b03871660009081526003602052604090205550611efd92505050565b6001600160a01b0380831660009081526005602090815260408083205481516318160ddd60e01b8152915194169384926318160ddd9260048082019391829003018186803b158015611d8057600080fd5b505afa158015611d94573d6000803e3d6000fd5b505050506040513d601f19601f82011682018060405250810190611db89190612b4e565b905080611e24576040516340c10f1960e01b81526001600160a01b038316906340c10f1990611ded9033908990600401612d88565b600060405180830381600087803b158015611e0757600080fd5b505af1158015611e1b573d6000803e3d6000fd5b50505050611eb8565b6001600160a01b03841660009081526002602052604081205490611e5282610fc1898663ffffffff61212016565b6040516340c10f1960e01b81529091506001600160a01b038516906340c10f1990611e839033908590600401612d88565b600060405180830381600087803b158015611e9d57600080fd5b505af1158015611eb1573d6000803e3d6000fd5b5050505050505b6001600160a01b038416600090815260026020526040902054611ee1908663ffffffff6123df16565b6001600160a01b03851660009081526002602052604090205550505b3360009081526007602052604090205460ff16610d2457336000818152600760205260408120805460ff191660019081179091556006805491820181559091527ff652222313e28459528d920b65115c16c04f3efc82aaedc97be59f3f377c0d3f0180546001600160a01b0319169091179055505050565b3390565b80611f838161157c565b1515600114611fa45760405162461bcd60e51b8152600401610595906130eb565b6001600160a01b0380831660009081526004602081815260408084205481516318160ddd60e01b8152915195169485936318160ddd938382019390929190829003018186803b158015611ff657600080fd5b505afa15801561200a573d6000803e3d6000fd5b505050506040513d601f19601f8201168201806040525081019061202e9190612b4e565b6001600160a01b03851660009081526003602052604081205491925061205e82610fc1898663ffffffff61212016565b60405163079cc67960e41b81529091506001600160a01b038516906379cc67909061208f9033908590600401612d88565b600060405180830381600087803b1580156120a957600080fd5b505af11580156120bd573d6000803e3d6000fd5b5050506001600160a01b0387166000908152600360205260409020546120ea91508863ffffffff61240416565b6001600160a01b03871660008181526003602052604090209190915561211790338963ffffffff61272116565b50505050505050565b60008261212f5750600061215d565b8282028284828161213c57fe5b041461215a5760405162461bcd60e51b8152600401610595906130aa565b90505b92915050565b600061215a83836040518060400160405280601a81526020017f536166654d6174683a206469766973696f6e206279207a65726f000000000000815250612740565b816121af8161157c565b15156001146121d05760405162461bcd60e51b8152600401610595906130eb565b6001600160a01b0383166000908152600260209081526040808320546003909252909120548361226157612233816001600160401b037f00000000000000000000000000000000000000000000000000000000000000001663ffffffff61212016565b612243838863ffffffff61240416565b10156122615760405162461bcd60e51b8152600401610595906131b2565b6001600160a01b0380861660009081526005602090815260408083205481516318160ddd60e01b8152915194169384926318160ddd9260048082019391829003018186803b1580156122b257600080fd5b505afa1580156122c6573d6000803e3d6000fd5b505050506040513d601f19601f820116820180604052508101906122ea9190612b4e565b6001600160a01b03881660009081526002602052604081205491925061231a82610fc18c8663ffffffff61212016565b60405163079cc67960e41b81529091506001600160a01b038516906379cc67909061234b9033908590600401612d88565b600060405180830381600087803b15801561236557600080fd5b505af1158015612379573d6000803e3d6000fd5b5050506001600160a01b038a166000908152600260205260409020546123a691508b63ffffffff61240416565b6001600160a01b038a166000818152600260205260409020919091556123d390338c63ffffffff61272116565b50505050505050505050565b60008282018381101561215a5760405162461bcd60e51b815260040161059590612f42565b600061215a83836040518060400160405280601e81526020017f536166654d6174683a207375627472616374696f6e206f766572666c6f770000815250612777565b60005b6008548110156115765760006008828154811061246257fe5b60009182526020808320909101546001600160a01b0316808352600390915260408220549092509061249e85610fc1848963ffffffff61212016565b6001600160a01b0384166000908152600360205260409020549091506124ca908263ffffffff61240416565b6001600160a01b0384166000908152600360209081526040808320939093556002905220546124ff908263ffffffff6123df16565b6001600160a01b0384166000818152600260205260409081902092909255905188907f3173c1c4b679e2da86dbb0382bde749a6e16cd31912c5410e17985cd7d2b905290612552908a908a9087906132dc565b60405180910390a3505050600101612449565b60005b6008548110156110b35760006008828154811061258157fe5b60009182526020808320909101546001600160a01b031680835260039091526040822054909250906125e2826001600160401b037f00000000000000000000000000000000000000000000000000000000000000001663ffffffff61212016565b6001600160a01b03841660009081526002602052604090205490915061260e908263ffffffff61240416565b6001600160a01b038416600090815260026020908152604080832093909355600390522054612643908263ffffffff6123df16565b6001600160a01b0384166000818152600360205260409081902092909255905186907f89385e9d619600da63726158403c0cfd9772b2cac90d3e093387a5456ee1a247906126b69086907f00000000000000000000000000000000000000000000000000000000000000009087906132f2565b60405180910390a3505050600101612568565b611576846323b872dd60e01b8585856040516024016126ea93929190612da1565b60408051601f198184030181529190526020810180516001600160e01b03166001600160e01b0319909316929092179091526127a3565b610d248363a9059cbb60e01b84846040516024016126ea929190612d88565b600081836127615760405162461bcd60e51b81526004016105959190612e11565b50600083858161276d57fe5b0495945050505050565b6000818484111561279b5760405162461bcd60e51b81526004016105959190612e11565b505050900390565b60606127f8826040518060400160405280602081526020017f5361666545524332303a206c6f772d6c6576656c2063616c6c206661696c6564815250856001600160a01b03166128329092919063ffffffff16565b805190915015610d2457808060200190518101906128169190612a8b565b610d245760405162461bcd60e51b815260040161059590613241565b60606128418484600085612849565b949350505050565b60606128548561290d565b6128705760405162461bcd60e51b8152600401610595906131de565b60006060866001600160a01b0316858760405161288d9190612ca0565b60006040518083038185875af1925050503d80600081146128ca576040519150601f19603f3d011682016040523d82523d6000602084013e6128cf565b606091505b509150915081156128e35791506128419050565b8051156128f35780518082602001fd5b8360405162461bcd60e51b81526004016105959190612e11565b3b151590565b803561215d816133a3565b60006020828403121561292f578081fd5b813561215a816133a3565b60006020828403121561294b578081fd5b815161215a816133a3565b60008060408385031215612968578081fd5b8235612973816133a3565b946020939093013593505050565b60008060208385031215612993578182fd5b82356001600160401b03808211156129a9578384fd5b81850186601f8201126129ba578485fd5b80359250818311156129ca578485fd5b86602080850283010111156129dd578485fd5b60200196919550909350505050565b600060208083850312156129fe578182fd5b82356001600160401b03811115612a13578283fd5b80840185601f820112612a24578384fd5b80359150612a39612a348361334b565b613325565b8281528381019082850185850284018601891015612a55578687fd5b8693505b84841015612a7f57612a6b8982612913565b835260019390930192918501918501612a59565b50979650505050505050565b600060208284031215612a9c578081fd5b8151801515811461215a578182fd5b600060208284031215612abc578081fd5b81516001600160401b0380821115612ad2578283fd5b81840185601f820112612ae3578384fd5b8051925081831115612af3578384fd5b612b06601f8401601f1916602001613325565b9150828252856020848301011115612b1c578384fd5b612b2d83602084016020840161336a565b50949350505050565b600060208284031215612b47578081fd5b5035919050565b600060208284031215612b5f578081fd5b5051919050565b60008060408385031215612b78578182fd5b823591506020830135612b8a816133a3565b809150509250929050565b60008060408385031215612ba7578182fd5b82519150602083015160068110612b8a578182fd5b60008060408385031215612bce578182fd5b50508035926020909101359150565b60008060408385031215612bef578182fd5b505080516020909101519092909150565b600080600080600080600080610100898b031215612c1c578384fd5b885197506020890151965060408901519550606089015194506080890151935060a0890151925060c0890151915060e08901516001600160401b0381168114612c63578182fd5b809150509295985092959890939650565b60008151808452612c8c81602086016020860161336a565b601f01601f19169290920160200192915050565b60008251612cb281846020870161336a565b9190910192915050565b60006a44534c412d53484f52542d60a81b82528251612ce281600b85016020870161336a565b91909101600b0192915050565b60006744534c412d53502d60c01b82528251612d1281600885016020870161336a565b9190910160080192915050565b60006944534c412d4c4f4e472d60b01b82528251612d4481600a85016020870161336a565b91909101600a0192915050565b60006744534c412d4c502d60c01b82528251612d1281600885016020870161336a565b6001600160a01b0391909116815260200190565b6001600160a01b03929092168252602082015260400190565b6001600160a01b039384168152919092166020820152604081019190915260600190565b901515815260200190565b90815260200190565b60208101612de683613396565b91905290565b60408101612df984613396565b9281526001600160801b039190911660209091015290565b60006020825261215a6020830184612c74565b600060408252612e376040830185612c74565b8281036020840152612e498185612c74565b95945050505050565b600060808252612e656080830187612c74565b8281036020840152612e778187612c74565b8381036040850152612e898187612c74565b9150508281036060840152612e9e8185612c74565b979650505050505050565b60208082526033908201527f416c6c6f77656420746f6b656e73206c656e67746820677265617465722074686040820152720c2dc40dac2f040e8ded6cadc40d8cadccee8d606b1b606082015260800190565b60208082526026908201527f4f776e61626c653a206e6577206f776e657220697320746865207a65726f206160408201526564647265737360d01b606082015260800190565b6020808252601b908201527f536166654d6174683a206164646974696f6e206f766572666c6f770000000000604082015260600190565b6020808252602d908201527f546f6b656e206e6f7420616c6c6f7765642062792074686520534c415265676960408201526c1cdd1c9e4818dbdb9d1c9858dd609a1b606082015260800190565b60208082526025908201527f4f6e6c79204d657373656e6765722063616e2063616c6c20746869732066756e60408201526431ba34b7b760d91b606082015260800190565b6020808252600f908201526e139bdd081dda1a5d195b1a5cdd1959608a1b604082015260600190565b60208082526028908201527f43616e206f6e6c79207374616b65206f6e206e6f742066696e697368656420636040820152676f6e74726163747360c01b606082015260800190565b602080825260149082015273496e636f72726563742075736572207374616b6560601b604082015260600190565b60208082526021908201527f536166654d6174683a206d756c7469706c69636174696f6e206f766572666c6f6040820152607760f81b606082015260800190565b6020808252601490820152731d1bdad95b881a5cc81b9bdd08185b1b1bddd95960621b604082015260600190565b6020808252818101527f4f776e61626c653a2063616c6c6572206973206e6f7420746865206f776e6572604082015260600190565b6020808252601a908201527f4f6e6c7920666f722066696e697368656420636f6e7472616374000000000000604082015260600190565b602080825260139082015272151bdad95b88185b1c9958591e481859191959606a1b604082015260600190565b602080825260129082015271496e636f727265637420776974686472617760701b604082015260600190565b6020808252601d908201527f416464726573733a2063616c6c20746f206e6f6e2d636f6e7472616374000000604082015260600190565b6020808252601290820152710616d6f756e742063616e6e6f7420626520360741b604082015260600190565b6020808252602a908201527f5361666545524332303a204552433230206f7065726174696f6e20646964206e6040820152691bdd081cdd58d8d9595960b21b606082015260800190565b6001600160801b0391909116815260200190565b9182526001600160a01b0316602082015260400190565b8381526020810183905260608101600383106132ce57fe5b826040830152949350505050565b9283526020830191909152604082015260600190565b9283526001600160401b03919091166020830152604082015260600190565b6001600160401b0391909116815260200190565b6040518181016001600160401b038111828210171561334357600080fd5b604052919050565b60006001600160401b03821115613360578081fd5b5060209081020190565b60005b8381101561338557818101518382015260200161336d565b838111156115765750506000910152565b600681106133a057fe5b50565b6001600160a01b03811681146133a057600080fdfea264697066735822122077e349719208b9166994429897e9e04bc89514069cf422ad97baedbc5176718564736f6c634300060600338be0079c531659141344cd1fd0a4f28419497f9722a3daafe3b4186f6b6457e0",
  "immutableReferences": {
    "1478": [
      {
        "length": 32,
        "start": 5151
      },
      {
        "length": 32,
        "start": 5602
      }
    ],
    "1482": [
      {
        "length": 32,
        "start": 4786
      }
    ],
    "1484": [
      {
        "length": 32,
        "start": 5775
      },
      {
        "length": 32,
        "start": 5934
      }
    ],
    "1486": [
      {
        "length": 32,
        "start": 3098
      }
    ],
    "1488": [
      {
        "length": 32,
        "start": 1275
      },
      {
        "length": 32,
        "start": 3134
      },
      {
        "length": 32,
        "start": 6170
      },
      {
        "length": 32,
        "start": 6244
      }
    ],
    "1490": [
      {
        "length": 32,
        "start": 1332
      },
      {
        "length": 32,
        "start": 3407
      },
      {
        "length": 32,
        "start": 4866
      },
      {
        "length": 32,
        "start": 5040
      },
      {
        "length": 32,
        "start": 6277
      }
    ],
    "1492": [
      {
        "length": 32,
        "start": 3479
      },
      {
        "length": 32,
        "start": 4833
      }
    ],
    "3835": [
      {
        "length": 32,
        "start": 2368
      },
      {
        "length": 32,
        "start": 6410
      }
    ],
    "3860": [
      {
        "length": 32,
        "start": 6628
      }
    ],
    "3865": [
      {
        "length": 32,
        "start": 4281
      }
    ],
    "3869": [
      {
        "length": 32,
        "start": 3062
      },
      {
        "length": 32,
        "start": 6722
      }
    ],
    "3875": [
      {
        "length": 32,
        "start": 3371
      },
      {
        "length": 32,
        "start": 6923
      },
      {
        "length": 32,
        "start": 8712
      },
      {
        "length": 32,
        "start": 9655
      },
      {
        "length": 32,
        "start": 9871
      }
    ]
  },
  "source": "// SPDX-License-Identifier: MIT\npragma solidity 0.6.6;\npragma experimental ABIEncoderV2;\n\nimport \"@openzeppelin/contracts/access/Ownable.sol\";\nimport \"@openzeppelin/contracts/token/ERC20/IERC20.sol\";\nimport \"@openzeppelin/contracts/math/SafeMath.sol\";\nimport \"./SLARegistry.sol\";\nimport \"./SLORegistry.sol\";\nimport \"./StakeRegistry.sol\";\nimport \"./PeriodRegistry.sol\";\nimport \"./Staking.sol\";\n\n/**\n * @title SLA\n * @dev SLA is a service level agreement contract used for service downtime\n * compensation\n */\ncontract SLA is Staking {\n    using SafeMath for uint256;\n\n    enum Status {NotVerified, Respected, NotRespected}\n\n    struct PeriodSLI {\n        uint256 timestamp;\n        uint256 sli;\n        Status status;\n    }\n\n    //\n    string public ipfsHash;\n    address public immutable messengerAddress;\n    SLARegistry public slaRegistry;\n    PeriodRegistry private immutable periodRegistry;\n    SLORegistry private immutable sloRegistry;\n    uint256 public immutable creationBlockNumber;\n    uint128 public immutable initialPeriodId;\n    uint128 public immutable finalPeriodId;\n    PeriodRegistry.PeriodType public immutable periodType;\n    /// @dev extra data for customized workflows\n    bytes32[] public extraData;\n\n    bool private _breachedContract = false;\n    uint256 public nextVerifiablePeriod;\n\n    /// @dev periodId=>PeriodSLI mapping\n    mapping(uint256 => PeriodSLI) public periodSLIs;\n\n    /**\n     * @dev event for SLI creation logging\n     * @param timestamp 1. the time the SLI has been registered\n     * @param sli 2. the value of the SLI\n     * @param periodId 3. the id of the given period\n     */\n    event SLICreated(uint256 timestamp, uint256 sli, uint256 periodId);\n\n    /**\n     * @dev event for Stake loging\n     * @param tokenAddress 1. -\n     * @param periodId 2. -\n     * @param amount 3. -\n     * @param caller 4. -\n     */\n    event Stake(\n        address indexed tokenAddress,\n        uint256 indexed periodId,\n        address indexed caller,\n        uint256 amount\n    );\n    /**\n     * @dev event for Stake loging\n     * @param tokenAddress 1. -\n     * @param periodId 2. -\n     * @param amount 3. -\n     * @param caller 4. -\n     */\n    event ProviderWithdraw(\n        address indexed tokenAddress,\n        uint256 indexed periodId,\n        address indexed caller,\n        uint256 amount\n    );\n    /**\n     * @dev event for Stake loging\n     * @param tokenAddress 1. -\n     * @param periodId 2. -\n     * @param amount 3. -\n     * @param caller 4. -\n     */\n    event UserWithdraw(\n        address indexed tokenAddress,\n        uint256 indexed periodId,\n        address indexed caller,\n        uint256 amount\n    );\n\n    /**\n     * @dev throws if called by any address other than the messenger contract.\n     */\n    modifier onlyMessenger() {\n        require(\n            msg.sender == messengerAddress,\n            \"Only Messenger can call this function\"\n        );\n        _;\n    }\n\n    /**\n     * @dev throws if called by any address other than the messenger contract.\n     */\n    modifier onlySLARegistry() {\n        require(\n            msg.sender == address(slaRegistry),\n            \"Only SLARegistry can call this function\"\n        );\n        _;\n    }\n\n    /**\n     * @dev throws if called with an amount less or equal to zero.\n     */\n    modifier notZero(uint256 _amount) {\n        require(_amount > 0, \"amount cannot be 0\");\n        _;\n    }\n\n    /**\n     * @param _owner 1. -\n     * @param _ipfsHash 3. -\n     * @param _messengerAddress 3. -\n     * @param _initialPeriodId 4. -\n     * @param _finalPeriodId 4. -\n     * @param _periodType 5. -\n     * @param _whitelisted 8. -\n     * @param _extraData 9. -\n     * @param _slaID 10. -\n     */\n    constructor(\n        address _owner,\n        bool _whitelisted,\n        PeriodRegistry.PeriodType _periodType,\n        address _messengerAddress,\n        uint128 _initialPeriodId,\n        uint128 _finalPeriodId,\n        uint128 _slaID,\n        string memory _ipfsHash,\n        bytes32[] memory _extraData,\n        uint64 _leverage\n    )\n        public\n        Staking(\n            SLARegistry(msg.sender),\n            _periodType,\n            _whitelisted,\n            _slaID,\n            _leverage,\n            _owner\n        )\n    {\n        transferOwnership(_owner);\n        ipfsHash = _ipfsHash;\n        messengerAddress = _messengerAddress;\n        slaRegistry = SLARegistry(msg.sender);\n        periodRegistry = slaRegistry.periodRegistry();\n        sloRegistry = slaRegistry.sloRegistry();\n        creationBlockNumber = block.number;\n        initialPeriodId = _initialPeriodId;\n        finalPeriodId = _finalPeriodId;\n        periodType = _periodType;\n        extraData = _extraData;\n        nextVerifiablePeriod = _initialPeriodId;\n    }\n\n    /**\n     * @dev external function to register SLI's and check them against the SLORegistry\n     * @param _sli 1. the value of the SLI to check\n     * @param _periodId 2. the id of the given period\n     */\n    function registerSLI(uint256 _sli, uint256 _periodId)\n        external\n        onlyMessenger\n    {\n        emit SLICreated(block.timestamp, _sli, _periodId);\n        nextVerifiablePeriod = _periodId + 1;\n        PeriodSLI storage periodSLI = periodSLIs[_periodId];\n        periodSLI.sli = _sli;\n        periodSLI.timestamp = block.timestamp;\n        (uint256 sloValue, ) = sloRegistry.registeredSLO(address(this));\n        if (sloRegistry.isRespected(_sli, address(this))) {\n            periodSLI.status = Status.Respected;\n            uint256 precision = 10000;\n            uint256 deviation =\n                _sli.sub(sloValue).mul(precision).div(\n                    _sli.add(sloValue).div(2)\n                );\n            uint256 normalizedPeriodId = _periodId.sub(initialPeriodId).add(1);\n            uint256 rewardPercentage =\n                deviation.mul(normalizedPeriodId).div(\n                    finalPeriodId - initialPeriodId + 1\n                );\n            _setRespectedPeriodReward(_periodId, rewardPercentage, precision);\n        } else {\n            periodSLI.status = Status.NotRespected;\n            _setUsersCompensation(_periodId);\n            _breachedContract = true;\n        }\n    }\n\n    function isAllowedPeriod(uint256 _periodId) external view returns (bool) {\n        if (_periodId < initialPeriodId) return false;\n        if (_periodId > finalPeriodId) return false;\n        return true;\n    }\n\n    function contractFinished() public view returns (bool) {\n        (, uint256 endOfLastValidPeriod) =\n            periodRegistry.getPeriodStartAndEnd(periodType, finalPeriodId);\n        return\n            _breachedContract == true ||\n            (block.timestamp >= endOfLastValidPeriod &&\n                periodSLIs[finalPeriodId].status != Status.NotVerified);\n    }\n\n    /**\n     *@dev stake _amount tokens into the _token contract\n     *@param _amount 1. amount to be staked\n     *@param _token 2. address of the ERC to be staked\n     */\n\n    function stakeTokens(uint256 _amount, address _token)\n        external\n        notZero(_amount)\n    {\n        bool isContractFinished = contractFinished();\n        require(\n            !isContractFinished,\n            \"Can only stake on not finished contracts\"\n        );\n        _stake(_amount, _token);\n        emit Stake(_token, nextVerifiablePeriod, msg.sender, _amount);\n        StakeRegistry stakeRegistry = slaRegistry.stakeRegistry();\n        stakeRegistry.registerStakedSla(msg.sender);\n    }\n\n    function withdrawProviderTokens(uint256 _amount, address _tokenAddress)\n        external\n        notZero(_amount)\n    {\n        bool isContractFinished = contractFinished();\n        emit ProviderWithdraw(\n            _tokenAddress,\n            nextVerifiablePeriod,\n            msg.sender,\n            _amount\n        );\n        _withdrawProviderTokens(_amount, _tokenAddress, isContractFinished);\n    }\n\n    /**\n     *@dev withdraw _amount tokens from the _token contract\n     *@param _amount 1. amount to be staked\n     *@param _tokenAddress 2. address of the ERC to be staked\n     */\n\n    function withdrawUserTokens(uint256 _amount, address _tokenAddress)\n        external\n        notZero(_amount)\n    {\n        if (msg.sender != owner()) {\n            bool isContractFinished = contractFinished();\n            require(isContractFinished, \"Only for finished contract\");\n        }\n        emit UserWithdraw(\n            _tokenAddress,\n            nextVerifiablePeriod,\n            msg.sender,\n            _amount\n        );\n        _withdrawUserTokens(_amount, _tokenAddress);\n    }\n\n    function getStakersLength() external view returns (uint256) {\n        return stakers.length;\n    }\n\n    function breachedContract() external view returns (bool) {\n        return _breachedContract;\n    }\n}\n",
  "sourcePath": "/Users/matiasbn/Desktop/stacktical/stacktical-dsla-contracts/contracts/SLA.sol",
  "compiler": {
    "name": "solc",
    "version": "0.6.6+commit.6c089d02.Emscripten.clang"
  },
  "schemaVersion": "3.3.3",
  "updatedAt": "2021-04-13T18:55:59.558Z",
  "devdoc": {
    "details": "SLA is a service level agreement contract used for service downtime compensation",
    "methods": {
      "constructor": {
        "params": {
          "_extraData": "9. -",
          "_finalPeriodId": "4. -",
          "_initialPeriodId": "4. -",
          "_ipfsHash": "3. -",
          "_messengerAddress": "3. -",
          "_owner": "1. -",
          "_periodType": "5. -",
          "_slaID": "10. -",
          "_whitelisted": "8. -"
        }
      },
      "owner()": {
        "details": "Returns the address of the current owner."
      },
      "registerSLI(uint256,uint256)": {
        "details": "external function to register SLI's and check them against the SLORegistry",
        "params": {
          "_periodId": "2. the id of the given period",
          "_sli": "1. the value of the SLI to check"
        }
      },
      "renounceOwnership()": {
        "details": "Leaves the contract without owner. It will not be possible to call `onlyOwner` functions anymore. Can only be called by the current owner.     * NOTE: Renouncing ownership will leave the contract without an owner, thereby removing any functionality that is only available to the owner."
      },
      "transferOwnership(address)": {
        "details": "Transfers ownership of the contract to a new account (`newOwner`). Can only be called by the current owner."
      }
    },
    "title": "SLA"
  },
  "userdoc": {
    "methods": {
      "addAllowedTokens(address)": {
        "notice": "dev add a token to ve allowed for staking param _tokenAddress 1. address of the new allowed token"
      },
      "getAllowedTokensLength()": {
        "notice": "dev use this function to evaluate the length of the allowed tokens length return allowedTokens.length"
      },
      "isAllowedToken(address)": {
        "notice": "dev checks in the allowedTokens array if there's a token with _tokenAddress value param _tokenAddress 1. token address to check exixtence return true if _tokenAddress exists in the allowedTokens array"
      },
      "stakeTokens(uint256,address)": {
        "notice": "dev stake _amount tokens into the _token contract param _amount 1. amount to be staked param _token 2. address of the ERC to be staked"
      },
      "withdrawUserTokens(uint256,address)": {
        "notice": "dev withdraw _amount tokens from the _token contract param _amount 1. amount to be staked param _tokenAddress 2. address of the ERC to be staked"
      }
    }
  }
}