{
  "contractName": "SLA",
  "abi": [
    {
      "inputs": [
        {
          "internalType": "address",
          "name": "_owner",
          "type": "address"
        },
        {
          "internalType": "contract SLO",
          "name": "_SLO",
          "type": "address"
        },
        {
          "internalType": "string",
          "name": "_ipfsHash",
          "type": "string"
        },
        {
          "internalType": "address",
          "name": "_messengerAddress",
          "type": "address"
        },
        {
          "internalType": "uint256[]",
          "name": "_periodIds",
          "type": "uint256[]"
        },
        {
          "internalType": "enum PeriodRegistry.PeriodType",
          "name": "_periodType",
          "type": "uint8"
        },
        {
          "internalType": "address",
          "name": "_stakeRegistry",
          "type": "address"
        },
        {
          "internalType": "address",
          "name": "_periodRegistry",
          "type": "address"
        }
      ],
      "stateMutability": "nonpayable",
      "type": "constructor"
    },
    {
      "anonymous": false,
      "inputs": [
        {
          "indexed": true,
          "internalType": "address",
          "name": "previousOwner",
          "type": "address"
        },
        {
          "indexed": true,
          "internalType": "address",
          "name": "newOwner",
          "type": "address"
        }
      ],
      "name": "OwnershipTransferred",
      "type": "event"
    },
    {
      "anonymous": false,
      "inputs": [
        {
          "indexed": false,
          "internalType": "uint256",
          "name": "_periodId",
          "type": "uint256"
        },
        {
          "indexed": false,
          "internalType": "uint256",
          "name": "_sli",
          "type": "uint256"
        }
      ],
      "name": "SLANotRespected",
      "type": "event"
    },
    {
      "anonymous": false,
      "inputs": [
        {
          "indexed": false,
          "internalType": "uint256",
          "name": "_timestamp",
          "type": "uint256"
        },
        {
          "indexed": false,
          "internalType": "uint256",
          "name": "_sli",
          "type": "uint256"
        },
        {
          "indexed": false,
          "internalType": "uint256",
          "name": "_periodId",
          "type": "uint256"
        }
      ],
      "name": "SLICreated",
      "type": "event"
    },
    {
      "inputs": [],
      "name": "DSLAburnRate",
      "outputs": [
        {
          "internalType": "uint256",
          "name": "",
          "type": "uint256"
        }
      ],
      "stateMutability": "view",
      "type": "function"
    },
    {
      "inputs": [
        {
          "internalType": "address",
          "name": "_tokenAddress",
          "type": "address"
        }
      ],
      "name": "_claimCompensation",
      "outputs": [],
      "stateMutability": "nonpayable",
      "type": "function"
    },
    {
      "inputs": [
        {
          "internalType": "address",
          "name": "_tokenAddress",
          "type": "address"
        }
      ],
      "name": "addAllowedTokens",
      "outputs": [],
      "stateMutability": "nonpayable",
      "type": "function"
    },
    {
      "inputs": [
        {
          "internalType": "uint256",
          "name": "",
          "type": "uint256"
        }
      ],
      "name": "allowedTokens",
      "outputs": [
        {
          "internalType": "address",
          "name": "",
          "type": "address"
        }
      ],
      "stateMutability": "view",
      "type": "function"
    },
    {
      "inputs": [],
      "name": "apy",
      "outputs": [
        {
          "internalType": "uint256",
          "name": "",
          "type": "uint256"
        }
      ],
      "stateMutability": "view",
      "type": "function"
    },
    {
      "inputs": [],
      "name": "creationBlockNumber",
      "outputs": [
        {
          "internalType": "uint256",
          "name": "",
          "type": "uint256"
        }
      ],
      "stateMutability": "view",
      "type": "function"
    },
    {
      "inputs": [],
      "name": "dslaTokenAddress",
      "outputs": [
        {
          "internalType": "address",
          "name": "",
          "type": "address"
        }
      ],
      "stateMutability": "view",
      "type": "function"
    },
    {
      "inputs": [],
      "name": "getAllowedTokensLength",
      "outputs": [
        {
          "internalType": "uint256",
          "name": "",
          "type": "uint256"
        }
      ],
      "stateMutability": "view",
      "type": "function"
    },
    {
      "inputs": [
        {
          "internalType": "address",
          "name": "_tokenAddress",
          "type": "address"
        }
      ],
      "name": "getStakeholdersPositions",
      "outputs": [
        {
          "internalType": "uint256",
          "name": "providerStake",
          "type": "uint256"
        },
        {
          "internalType": "uint256",
          "name": "usersStake",
          "type": "uint256"
        }
      ],
      "stateMutability": "view",
      "type": "function"
    },
    {
      "inputs": [
        {
          "internalType": "address",
          "name": "_staker",
          "type": "address"
        },
        {
          "internalType": "uint256",
          "name": "_allowedTokenIndex",
          "type": "uint256"
        }
      ],
      "name": "getTokenStake",
      "outputs": [
        {
          "internalType": "address",
          "name": "tokenAddress",
          "type": "address"
        },
        {
          "internalType": "uint256",
          "name": "stake",
          "type": "uint256"
        }
      ],
      "stateMutability": "view",
      "type": "function"
    },
    {
      "inputs": [],
      "name": "ipfsHash",
      "outputs": [
        {
          "internalType": "string",
          "name": "",
          "type": "string"
        }
      ],
      "stateMutability": "view",
      "type": "function"
    },
    {
      "inputs": [
        {
          "internalType": "address",
          "name": "_tokenAddress",
          "type": "address"
        }
      ],
      "name": "isAllowedToken",
      "outputs": [
        {
          "internalType": "bool",
          "name": "",
          "type": "bool"
        }
      ],
      "stateMutability": "view",
      "type": "function"
    },
    {
      "inputs": [],
      "name": "messengerAddress",
      "outputs": [
        {
          "internalType": "address",
          "name": "",
          "type": "address"
        }
      ],
      "stateMutability": "view",
      "type": "function"
    },
    {
      "inputs": [],
      "name": "minimumDSLAStakedTier1",
      "outputs": [
        {
          "internalType": "uint256",
          "name": "",
          "type": "uint256"
        }
      ],
      "stateMutability": "view",
      "type": "function"
    },
    {
      "inputs": [],
      "name": "minimumDSLAStakedTier2",
      "outputs": [
        {
          "internalType": "uint256",
          "name": "",
          "type": "uint256"
        }
      ],
      "stateMutability": "view",
      "type": "function"
    },
    {
      "inputs": [],
      "name": "minimumDSLAStakedTier3",
      "outputs": [
        {
          "internalType": "uint256",
          "name": "",
          "type": "uint256"
        }
      ],
      "stateMutability": "view",
      "type": "function"
    },
    {
      "inputs": [],
      "name": "owner",
      "outputs": [
        {
          "internalType": "address",
          "name": "",
          "type": "address"
        }
      ],
      "stateMutability": "view",
      "type": "function"
    },
    {
      "inputs": [
        {
          "internalType": "uint256",
          "name": "",
          "type": "uint256"
        }
      ],
      "name": "periodIds",
      "outputs": [
        {
          "internalType": "uint256",
          "name": "",
          "type": "uint256"
        }
      ],
      "stateMutability": "view",
      "type": "function"
    },
    {
      "inputs": [],
      "name": "periodRegistry",
      "outputs": [
        {
          "internalType": "contract PeriodRegistry",
          "name": "",
          "type": "address"
        }
      ],
      "stateMutability": "view",
      "type": "function"
    },
    {
      "inputs": [],
      "name": "periodType",
      "outputs": [
        {
          "internalType": "enum PeriodRegistry.PeriodType",
          "name": "",
          "type": "uint8"
        }
      ],
      "stateMutability": "view",
      "type": "function"
    },
    {
      "inputs": [
        {
          "internalType": "uint256",
          "name": "",
          "type": "uint256"
        },
        {
          "internalType": "address",
          "name": "",
          "type": "address"
        }
      ],
      "name": "providerPeriodsRewards",
      "outputs": [
        {
          "internalType": "uint256",
          "name": "",
          "type": "uint256"
        }
      ],
      "stateMutability": "view",
      "type": "function"
    },
    {
      "inputs": [],
      "name": "renounceOwnership",
      "outputs": [],
      "stateMutability": "nonpayable",
      "type": "function"
    },
    {
      "inputs": [
        {
          "internalType": "uint256",
          "name": "",
          "type": "uint256"
        }
      ],
      "name": "slaPeriods",
      "outputs": [
        {
          "internalType": "uint256",
          "name": "timestamp",
          "type": "uint256"
        },
        {
          "internalType": "uint256",
          "name": "sli",
          "type": "uint256"
        },
        {
          "internalType": "enum SLA.Status",
          "name": "status",
          "type": "uint8"
        }
      ],
      "stateMutability": "view",
      "type": "function"
    },
    {
      "inputs": [],
      "name": "slaPeriodsLength",
      "outputs": [
        {
          "internalType": "uint256",
          "name": "",
          "type": "uint256"
        }
      ],
      "stateMutability": "view",
      "type": "function"
    },
    {
      "inputs": [],
      "name": "slaRegistry",
      "outputs": [
        {
          "internalType": "contract SLARegistry",
          "name": "",
          "type": "address"
        }
      ],
      "stateMutability": "view",
      "type": "function"
    },
    {
      "inputs": [],
      "name": "slo",
      "outputs": [
        {
          "internalType": "contract SLO",
          "name": "",
          "type": "address"
        }
      ],
      "stateMutability": "view",
      "type": "function"
    },
    {
      "inputs": [
        {
          "internalType": "uint256",
          "name": "",
          "type": "uint256"
        }
      ],
      "name": "stakers",
      "outputs": [
        {
          "internalType": "address",
          "name": "",
          "type": "address"
        }
      ],
      "stateMutability": "view",
      "type": "function"
    },
    {
      "inputs": [
        {
          "internalType": "address",
          "name": "newOwner",
          "type": "address"
        }
      ],
      "name": "transferOwnership",
      "outputs": [],
      "stateMutability": "nonpayable",
      "type": "function"
    },
    {
      "inputs": [
        {
          "internalType": "address",
          "name": "",
          "type": "address"
        }
      ],
      "name": "usersCompensationPools",
      "outputs": [
        {
          "internalType": "uint256",
          "name": "",
          "type": "uint256"
        }
      ],
      "stateMutability": "view",
      "type": "function"
    },
    {
      "inputs": [
        {
          "internalType": "address",
          "name": "",
          "type": "address"
        }
      ],
      "name": "usersTotalPositions",
      "outputs": [
        {
          "internalType": "uint256",
          "name": "",
          "type": "uint256"
        }
      ],
      "stateMutability": "view",
      "type": "function"
    },
    {
      "inputs": [],
      "name": "yearlyPeriods",
      "outputs": [
        {
          "internalType": "uint256",
          "name": "",
          "type": "uint256"
        }
      ],
      "stateMutability": "view",
      "type": "function"
    },
    {
      "inputs": [
        {
          "internalType": "uint256",
          "name": "_sli",
          "type": "uint256"
        },
        {
          "internalType": "uint256",
          "name": "_periodId",
          "type": "uint256"
        }
      ],
      "name": "registerSLI",
      "outputs": [],
      "stateMutability": "nonpayable",
      "type": "function"
    },
    {
      "inputs": [
        {
          "internalType": "uint256",
          "name": "_periodId",
          "type": "uint256"
        }
      ],
      "name": "isAllowedPeriod",
      "outputs": [
        {
          "internalType": "bool",
          "name": "",
          "type": "bool"
        }
      ],
      "stateMutability": "view",
      "type": "function"
    },
    {
      "inputs": [
        {
          "internalType": "uint256",
          "name": "_amount",
          "type": "uint256"
        },
        {
          "internalType": "address",
          "name": "_token",
          "type": "address"
        }
      ],
      "name": "stakeTokens",
      "outputs": [],
      "stateMutability": "nonpayable",
      "type": "function"
    },
    {
      "inputs": [
        {
          "internalType": "uint256",
          "name": "_amount",
          "type": "uint256"
        },
        {
          "internalType": "address",
          "name": "_tokenAddress",
          "type": "address"
        }
      ],
      "name": "withdrawStakedTokens",
      "outputs": [],
      "stateMutability": "nonpayable",
      "type": "function"
    },
    {
      "inputs": [
        {
          "internalType": "address",
          "name": "_tokenAddress",
          "type": "address"
        }
      ],
      "name": "claimUserCompensation",
      "outputs": [],
      "stateMutability": "nonpayable",
      "type": "function"
    },
    {
      "inputs": [],
      "name": "getDetails",
      "outputs": [
        {
          "internalType": "address",
          "name": "_slaOwner",
          "type": "address"
        },
        {
          "internalType": "string",
          "name": "_ipfsHash",
          "type": "string"
        },
        {
          "internalType": "contract SLO",
          "name": "_SLO",
          "type": "address"
        },
        {
          "components": [
            {
              "internalType": "uint256",
              "name": "timestamp",
              "type": "uint256"
            },
            {
              "internalType": "uint256",
              "name": "sli",
              "type": "uint256"
            },
            {
              "internalType": "enum SLA.Status",
              "name": "status",
              "type": "uint8"
            }
          ],
          "internalType": "struct SLA.SLAPeriod[]",
          "name": "_SLAPeriods",
          "type": "tuple[]"
        },
        {
          "internalType": "uint256",
          "name": "_stakersCount",
          "type": "uint256"
        },
        {
          "components": [
            {
              "internalType": "address",
              "name": "tokenAddress",
              "type": "address"
            },
            {
              "internalType": "uint256",
              "name": "stake",
              "type": "uint256"
            }
          ],
          "internalType": "struct SLA.TokenStake[]",
          "name": "_tokensStake",
          "type": "tuple[]"
        }
      ],
      "stateMutability": "view",
      "type": "function"
    },
    {
      "inputs": [],
      "name": "breachedContract",
      "outputs": [
        {
          "internalType": "bool",
          "name": "",
          "type": "bool"
        }
      ],
      "stateMutability": "view",
      "type": "function"
    }
  ],
  "bytecode": "0x6080604052601b805460ff191690553480156200001b57600080fd5b5060405162002f5038038062002f508339810160408190526200003e91620005f8565b81818486516000620000556200039660201b60201c565b600080546001600160a01b0319166001600160a01b03831690811782556040519293509160008051602062002f30833981519152908290a350600180546001600160a01b038087166001600160a01b0319928316178355600280549187169190921617905560118054849260ff1990911690836005811115620000d457fe5b0217905550601281905560015460408051637b8041cf60e11b815290516000928392839283926001600160a01b03169163f700839e916004808301926080929190829003018186803b1580156200012a57600080fd5b505afa1580156200013f573d6000803e3d6000fd5b505050506040513d601f19601f8201168201806040525081019062000165919062000792565b600254604051635c98d15760e01b8152949850929650909450925060009182916001600160a01b031690635c98d15790620001a5908b90600401620007c8565b60806040518083038186803b158015620001be57600080fd5b505afa158015620001d3573d6000803e3d6000fd5b505050506040513d601f19601f82011682018060405250810190620001f991906200074c565b5050600f829055601081905560015460408051638b8e530960e01b815290519395509193506001600160a01b031691638b8e530991600480820192602092909190829003018186803b1580156200024f57600080fd5b505afa15801562000264573d6000803e3d6000fd5b505050506040513d601f19601f820116820180604052508101906200028a9190620005d2565b600980546001600160a01b0319166001600160a01b03929092169190911790555050600b93909355600c91909155600d55600e5550620002d092508a91506200039a9050565b8551620002e590601490602089019062000450565b50601880546001600160a01b038088166001600160a01b03199283161790925560178054909116331790556015805491831661010002610100600160a81b031990921691909117905543601a55835162000347906016906020870190620004d5565b506015805484919060ff191660018360058111156200036257fe5b021790555050601380546001600160a01b0319166001600160a01b0397909716969096179095555062000898945050505050565b3390565b620003a462000396565b6000546001600160a01b03908116911614620003dd5760405162461bcd60e51b8152600401620003d49062000823565b60405180910390fd5b6001600160a01b038116620004065760405162461bcd60e51b8152600401620003d490620007dd565b600080546040516001600160a01b038085169392169160008051602062002f3083398151915291a3600080546001600160a01b0319166001600160a01b0392909216919091179055565b828054600181600116156101000203166002900490600052602060002090601f016020900481019282601f106200049357805160ff1916838001178555620004c3565b82800160010185558215620004c3579182015b82811115620004c3578251825591602001919060010190620004a6565b50620004d192915062000512565b5090565b828054828255906000526020600020908101928215620004c35791602002820182811115620004c3578251825591602001919060010190620004a6565b5b80821115620004d1576000815560010162000513565b805162000536816200087f565b92915050565b600082601f8301126200054d578081fd5b81516001600160401b0381111562000563578182fd5b60208082026200057582820162000858565b838152935081840185830182870184018810156200059257600080fd5b600092505b84831015620005b757805182526001929092019190830190830162000597565b505050505092915050565b8051600681106200053657600080fd5b600060208284031215620005e4578081fd5b8151620005f1816200087f565b9392505050565b600080600080600080600080610100898b03121562000615578384fd5b885162000622816200087f565b809850506020808a015162000637816200087f565b60408b01519098506001600160401b038082111562000654578687fd5b818c0191508c601f83011262000668578687fd5b81518181111562000677578788fd5b6200068b601f8201601f1916850162000858565b8181528e858386010111156200069f578889fd5b885b82811015620006be578481018601518282018701528501620006a1565b82811115620006cf57898684840101525b509950620006e390508d60608e0162000529565b975060808c0151925080831115620006f9578687fd5b5050620007098b828c016200053c565b9450506200071b8a60a08b01620005c2565b92506200072c8a60c08b0162000529565b91506200073d8a60e08b0162000529565b90509295985092959890939650565b6000806000806080858703121562000762578384fd5b8451935060208501519250604085015191506060850151801515811462000787578182fd5b939692955090935050565b60008060008060808587031215620007a8578384fd5b505082516020840151604085015160609095015191969095509092509050565b6020810160068310620007d757fe5b91905290565b60208082526026908201527f4f776e61626c653a206e6577206f776e657220697320746865207a65726f206160408201526564647265737360d01b606082015260800190565b6020808252818101527f4f776e61626c653a2063616c6c6572206973206e6f7420746865206f776e6572604082015260600190565b6040518181016001600160401b03811182821017156200087757600080fd5b604052919050565b6001600160a01b03811681146200089557600080fd5b50565b61268880620008a86000396000f3fe608060405234801561001057600080fd5b50600436106102125760003560e01c80638da5cb5b11610120578063d7a5c422116100b8578063f2fde38b1161007c578063f2fde38b14610446578063f51b7ab914610459578063f7e9dfff14610461578063fbbf93a014610469578063fd5e6dd11461048357610212565b8063d7a5c422146103fd578063db2da48c14610410578063db69a46214610423578063e68e276d1461042b578063ee575c281461043e57610212565b80638da5cb5b146103835780639ab4438f1461038b5780639fc4caa5146103ad578063a224ee9c146103b5578063b18ac918146103bd578063b7bc347e146103c5578063c623674f146103cd578063cbe230c3146103e2578063cd92890e146103f557610212565b806333df1541116101ae5780635c1c20de116101725780635c1c20de1461032a5780635e5f2e26146103325780636f265a3414610352578063715018a6146103735780637fd788aa1461037b57610212565b806333df1541146102c65780633bcfc4b8146102d957806346e0fbae146102e1578063524f0735146102f657806357ac94f01461030957610212565b8063021eef7f146102175780630ae9ea45146102405780630bea440d146102605780630c5160f414610275578063171e44ea1461027d5780631bf30929146102905780631fc2cd931461029857806327cd727c146102ab5780632eb8197a146102be575b600080fd5b61022a610225366004611dd4565b610496565b6040516102379190611ffa565b60405180910390f35b61025361024e366004611dd4565b6104e0565b60405161023791906125ca565b61027361026e366004611dec565b6104fe565b005b6102536105db565b61027361028b366004611d6f565b6105e1565b61025361076c565b6102736102a6366004611d6f565b610772565b6102736102b9366004611dec565b610981565b610253610ac1565b6102536102d4366004611dec565b610ac7565b610253610ae4565b6102e9610aea565b6040516102379190612005565b610273610304366004611d6f565b610af3565b61031c610317366004611d8a565b610aff565b604051610237929190611f37565b610253610b4d565b610345610340366004611dd4565b610b53565b6040516102379190611eff565b610365610360366004611d6f565b610b7a565b6040516102379291906125d3565b610273610bdf565b61022a610c5e565b610345610c67565b61039e610399366004611dd4565b610c76565b604051610237939291906125e1565b610345610c9a565b610345610cae565b610253610cbd565b610253610cc3565b6103d5610cc9565b6040516102379190612031565b61022a6103f0366004611d6f565b610d57565b610345610da9565b61027361040b366004611e18565b610db8565b61025361041e366004611d6f565b610f3c565b610345610f4e565b610253610439366004611d6f565b610f5d565b610253610f6f565b610273610454366004611d6f565b610f75565b61025361102b565b610345611031565b610471611040565b60405161023796959493929190611f50565b610345610491366004611dd4565b611333565b6000805b6016548110156104d55782601682815481106104b257fe5b906000526020600020015414156104cd5760019150506104db565b60010161049a565b50600090505b919050565b601681815481106104ed57fe5b600091825260209091200154905081565b600082116105275760405162461bcd60e51b815260040161051e90612494565b60405180910390fd5b601b5460ff161561054a5760405162461bcd60e51b815260040161051e906123de565b6105548282611340565b601754604051635948284760e11b81526001600160a01b039091169063b290508e90610584903390600401611eff565b602060405180830381600087803b15801561059e57600080fd5b505af11580156105b2573d6000803e3d6000fd5b505050506040513d601f19601f820116820180604052508101906105d69190611db4565b505050565b60125481565b6105e96115a5565b6000546001600160a01b039081169116146106165760405162461bcd60e51b815260040161051e906123a9565b61061f81610d57565b1561063c5760405162461bcd60e51b815260040161051e90612467565b60015460405163cbe230c360e01b81526001600160a01b039091169063cbe230c39061066c908490600401611eff565b60206040518083038186803b15801561068457600080fd5b505afa158015610698573d6000803e3d6000fd5b505050506040513d601f19601f820116820180604052508101906106bc9190611db4565b15156001146106dd5760405162461bcd60e51b815260040161051e90612175565b6009546000906106f5906001600160a01b0316610b7a565b509050600c5481116107195760405162461bcd60e51b815260040161051e90612528565b50600a80546001810182556000919091527fc65a7bb8d6351c1cf70c95a316cc6a92839c986682d98bc35f958f4883f9d2a80180546001600160a01b0319166001600160a01b0392909216919091179055565b601a5481565b61077a610c67565b6001600160a01b0316336001600160a01b031614156107ab5760405162461bcd60e51b815260040161051e90612585565b6001600160a01b038116600090815260046020908152604080832033845290915290205461271090806107f05760405162461bcd60e51b815260040161051e90612207565b6001600160a01b03831660009081526005602052604081205461081d9061081784866115a9565b906115ec565b6001600160a01b0385166000908152600660205260408120549192509061084a90859061081790856115a9565b90506000856001600160a01b031663a9059cbb33846002026040518363ffffffff1660e01b815260040161087f929190611f37565b602060405180830381600087803b15801561089957600080fd5b505af11580156108ad573d6000803e3d6000fd5b505050506040513d601f19601f820116820180604052508101906108d19190611db4565b90506001811515146108f55760405162461bcd60e51b815260040161051e906124c0565b6001600160a01b038616600090815260056020526040902054610918908561162e565b6001600160a01b038716600090815260056020908152604080832093909355600690522054610947908361162e565b6001600160a01b03909616600090815260066020908152604080832098909855600481528782203383529052958620959095555050505050565b600082116109a15760405162461bcd60e51b815260040161051e90612494565b601680546000919060001981019081106109b757fe5b600091825260208220015460155460405160016259edcb60e01b031981529193506001600160a01b036101008204169163ffa6123591610a019160ff909116908690600401612019565b604080518083038186803b158015610a1857600080fd5b505afa158015610a2c573d6000803e3d6000fd5b505050506040513d601f19601f82011682018060405250810190610a509190611e39565b601b5490925060ff161515600114905080610a955750804210158015610a955750600082815260196020526040812060029081015460ff1690811115610a9257fe5b14155b610ab15760405162461bcd60e51b815260040161051e90612079565b610abb8484611670565b50505050565b600e5481565b600760209081526000928352604080842090915290825290205481565b600f5481565b60155460ff1681565b610afc81610772565b50565b6000806000600a8481548110610b1157fe5b6000918252602080832091909101546001600160a01b039081168084526004835260408085209990921684529790915290205494959350505050565b600b5481565b600a8181548110610b6057fe5b6000918252602090912001546001600160a01b0316905081565b6001600160a01b0381166000908152600460205260408120819081610b9d610c67565b6001600160a01b039081168252602080830193909352604091820160009081205491871681526003909352912054909250610bd8908361162e565b9050915091565b610be76115a5565b6000546001600160a01b03908116911614610c145760405162461bcd60e51b815260040161051e906123a9565b600080546040516001600160a01b03909116907f8be0079c531659141344cd1fd0a4f28419497f9722a3daafe3b4186f6b6457e0908390a3600080546001600160a01b0319169055565b601b5460ff1690565b6000546001600160a01b031690565b60196020526000908152604090208054600182015460029092015490919060ff1683565b60155461010090046001600160a01b031681565b6018546001600160a01b031681565b600d5481565b600a5490565b6014805460408051602060026001851615610100026000190190941693909304601f81018490048402820184019092528181529291830182828015610d4f5780601f10610d2457610100808354040283529160200191610d4f565b820191906000526020600020905b815481529060010190602001808311610d3257829003601f168201915b505050505081565b6000805b600a548110156104d557826001600160a01b0316600a8281548110610d7c57fe5b6000918252602090912001546001600160a01b03161415610da15760019150506104db565b600101610d5b565b6013546001600160a01b031681565b6018546001600160a01b03163314610de25760405162461bcd60e51b815260040161051e906121c2565b7fc95987c1992805ee34bdc915e017cceae36ba1c156b9911fa7e691e6435eb46e428383604051610e1593929190612606565b60405180910390a16000818152601960205260409081902060018101849055428155601354915163868d08f760e01b815290916001600160a01b03169063868d08f790610e669086906004016125ca565b60206040518083038186803b158015610e7e57600080fd5b505afa158015610e92573d6000803e3d6000fd5b505050506040513d601f19601f82011682018060405250810190610eb69190611db4565b15610ed85760028101805460ff19166001179055610ed3826117f6565b6105d6565b6002818101805460ff19169091179055610ef0611960565b601b805460ff191660011790556040517fbd33f7a3bfa88a467c9df5ae7d2341cf061084c386b20a0d48130f5cbce38a4d90610f2f90849086906125d3565b60405180910390a1505050565b60066020526000908152604090205481565b6017546001600160a01b031681565b60056020526000908152604090205481565b600c5481565b610f7d6115a5565b6000546001600160a01b03908116911614610faa5760405162461bcd60e51b815260040161051e906123a9565b6001600160a01b038116610fd05760405162461bcd60e51b815260040161051e906120f8565b600080546040516001600160a01b03808516939216917f8be0079c531659141344cd1fd0a4f28419497f9722a3daafe3b4186f6b6457e091a3600080546001600160a01b0319166001600160a01b0392909216919091179055565b60105481565b6009546001600160a01b031681565b600060606000606060006060611054610c67565b60148054604080516020601f600260001961010060018816150201909516949094049384018190048102820181019092528281529399508301828280156110dc5780601f106110b1576101008083540402835291602001916110dc565b820191906000526020600020905b8154815290600101906020018083116110bf57829003601f168201915b50506013546016549499506001600160a01b031697505067ffffffffffffffff8311915050801561110c57600080fd5b5060405190808252806020026020018201604052801561114657816020015b611133611d16565b81526020019060019003908161112b5790505b50925060005b6016548110156112235760006016828154811061116557fe5b9060005260206000200154905061117a611d16565b600082815260196020908152604091829020825160608101845281548152600182015492810192909252600280820154929391929184019160ff16908111156111bf57fe5b60028111156111ca57fe5b81525050905060405180606001604052808260000151815260200182602001518152602001826040015160028111156111ff57fe5b81525086848151811061120e57fe5b6020908102919091010152505060010161114c565b50600854600a5490925067ffffffffffffffff8111801561124357600080fd5b5060405190808252806020026020018201604052801561127d57816020015b61126a611d41565b8152602001906001900390816112625790505b50905060005b600a5481101561132a576040518060400160405280600a83815481106112a557fe5b9060005260206000200160009054906101000a90046001600160a01b03166001600160a01b0316815260200160036000600a85815481106112e257fe5b60009182526020808320909101546001600160a01b031683528201929092526040019020549052825183908390811061131757fe5b6020908102919091010152600101611283565b50909192939495565b60088181548110610b6057fe5b8061134a81610d57565b151560011461136b5760405162461bcd60e51b815260040161051e9061237b565b611373610c67565b6001600160a01b0316336001600160a01b0316146113c85760008061139784610b7a565b9092509050816113a78287611acb565b11156113c55760405162461bcd60e51b815260040161051e906122f2565b50505b6040516323b872dd60e01b81526000906001600160a01b038416906323b872dd906113fb90339030908990600401611f13565b602060405180830381600087803b15801561141557600080fd5b505af1158015611429573d6000803e3d6000fd5b505050506040513d601f19601f8201168201806040525081019061144d9190611db4565b90506001811515146114715760405162461bcd60e51b815260040161051e90612426565b6001600160a01b0383166000908152600360205260409020546114949085611acb565b6001600160a01b03841660009081526003602090815260408083209390935560048152828220338352905220546114cb9085611acb565b6001600160a01b0384166000908152600460209081526040808320338085529252909120919091556114fc90611af0565b61154357600880546001810182556000919091527ff3f7a9fe364faab93b216da50a3214154f22a0a2b415b23a84c8169e8b636ee30180546001600160a01b031916331790555b61154b610c67565b6001600160a01b0316336001600160a01b031614610abb576001600160a01b0383166000908152600560205260409020546115869085611acb565b6001600160a01b03841660009081526005602052604090205550505050565b3390565b6000826115b8575060006115e6565b828202828482816115c557fe5b04146115e35760405162461bcd60e51b815260040161051e9061233a565b90505b92915050565b60006115e383836040518060400160405280601a81526020017f536166654d6174683a206469766973696f6e206279207a65726f000000000000815250611b42565b60006115e383836040518060400160405280601e81526020017f536166654d6174683a207375627472616374696f6e206f766572666c6f770000815250611b79565b8061167a81610d57565b151560011461169b5760405162461bcd60e51b815260040161051e9061237b565b6001600160a01b03821660009081526004602090815260408083203384529091529020548311156116de5760405162461bcd60e51b815260040161051e906122a8565b6001600160a01b038216600090815260036020526040902054611701908461162e565b6001600160a01b0383166000908152600360209081526040808320939093556004815282822033835290522054611738908461162e565b6001600160a01b038316600081815260046020818152604080842033808652925280842095909555935163a9059cbb60e01b8152919363a9059cbb9261178092899101611f37565b602060405180830381600087803b15801561179a57600080fd5b505af11580156117ae573d6000803e3d6000fd5b505050506040513d601f19601f820116820180604052508101906117d29190611db4565b9050600181151514610abb5760405162461bcd60e51b815260040161051e90612044565b60005b600a5481101561195c576000600a828154811061181257fe5b60009182526020822001546001600160a01b0316915061183182610b7a565b915050600061271090506000611864601054610817600f5461185e866012546115a990919063ffffffff16565b906115a9565b905060006118796064840261081786856115a9565b6009549091506001600160a01b03868116911614156118ac57600061189d82611ba5565b90506118a9828261162e565b50505b6001600160a01b03851660009081526004602052604081206118f3918391906118d3610c67565b6001600160a01b0316815260208101919091526040016000205490611acb565b6001600160a01b038616600090815260046020526040812090611914610c67565b6001600160a01b03908116825260208083019390935260409182016000908120949094558a8452600783528184209816835296905294909420939093555050506001016117f9565b5050565b60005b600a54811015610afc576000600a828154811061197c57fe5b60009182526020822001546001600160a01b0316915061199b82610b7a565b6009549092508291506001600160a01b03848116911614156119d15760006119c282611ba5565b90506119ce828261162e565b50505b6001600160a01b0383166000908152600360205260409020546119f4908261162e565b6001600160a01b03841660009081526003602090815260408083209390935560049052908120611a4991839190611a29610c67565b6001600160a01b031681526020810191909152604001600020549061162e565b6001600160a01b038416600090815260046020526040812090611a6a610c67565b6001600160a01b0390811682526020808301939093526040918201600090812094909455861683526006909152902054611aa49082611acb565b6001600160a01b039093166000908152600660205260409020929092555050600101611963565b6000828201838110156115e35760405162461bcd60e51b815260040161051e9061213e565b6000805b6008548110156104d557826001600160a01b031660088281548110611b1557fe5b6000918252602090912001546001600160a01b03161415611b3a5760019150506104db565b600101611af4565b60008183611b635760405162461bcd60e51b815260040161051e9190612031565b506000838581611b6f57fe5b0495945050505050565b60008184841115611b9d5760405162461bcd60e51b815260040161051e9190612031565b505050900390565b60408051808201909152600d81526c6275726e2875696e743235362960981b602090910152600b546000907f42966c689b5afe9b9b3f8a7103b2a19980d59629bfd6a20a60972312ed41d83690611c05906103e8906108179086906115a9565b6009546040519193506000916001600160a01b03909116908390611c2d9086906024016125ca565b60408051601f198184030181529181526020820180516001600160e01b03166001600160e01b0319909416939093179092529051611c6b9190611ee3565b6000604051808303816000865af19150503d8060008114611ca8576040519150601f19603f3d011682016040523d82523d6000602084013e611cad565b606091505b5050905080611cce5760405162461bcd60e51b815260040161051e90612264565b6009546001600160a01b0316600090815260036020526040902054611cf3908461162e565b6009546001600160a01b0316600090815260036020526040902055509092915050565b6040518060600160405280600081526020016000815260200160006002811115611d3c57fe5b905290565b604080518082019091526000808252602082015290565b80356001600160a01b03811681146115e657600080fd5b600060208284031215611d80578081fd5b6115e38383611d58565b60008060408385031215611d9c578081fd5b611da68484611d58565b946020939093013593505050565b600060208284031215611dc5578081fd5b815180151581146115e3578182fd5b600060208284031215611de5578081fd5b5035919050565b60008060408385031215611dfe578182fd5b82359150611e0f8460208501611d58565b90509250929050565b60008060408385031215611e2a578182fd5b50508035926020909101359150565b60008060408385031215611e4b578182fd5b505080516020909101519092909150565b6000815180845260208085019450808401835b83811015611e9f57815180516001600160a01b031688528301518388015260409096019590820190600101611e6f565b509495945050505050565b611eb381612648565b9052565b60008151808452611ecf81602086016020860161261c565b601f01601f19169290920160200192915050565b60008251611ef581846020870161261c565b9190910192915050565b6001600160a01b0391909116815260200190565b6001600160a01b039384168152919092166020820152604081019190915260600190565b6001600160a01b03929092168252602082015260400190565b600060018060a01b038089168352602060c081850152611f7360c085018a611eb7565b6040838a168187015260609350858203848701528189518084528484019150848b019350865b81811015611fcf578451805184528681015187850152840151611fbe85850182611eaa565b509385019391860191600101611f99565b505088608088015286810360a0880152611fe98189611e5c565b9d9c50505050505050505050505050565b901515815260200190565b602081016006831061201357fe5b91905290565b604081016006841061202757fe5b9281526020015290565b6000602082526115e36020830184611eb7565b6020808252818101527f5374616b6520776974686472617720776173206e6f742073756363657366756c604082015260600190565b60208082526059908201527f43616e206f6e6c79207769746864726177207374616b6520616674657220746860408201527f652066696e616c20706572696f642069732066696e6973686564206f72206966606082015278081d1a194818dbdb9d1c9858dd081a5cc8189c995858da1959603a1b608082015260a00190565b60208082526026908201527f4f776e61626c653a206e6577206f776e657220697320746865207a65726f206160408201526564647265737360d01b606082015260800190565b6020808252601b908201527f536166654d6174683a206164646974696f6e206f766572666c6f770000000000604082015260600190565b6020808252602d908201527f546f6b656e206e6f7420616c6c6f7765642062792074686520534c415265676960408201526c1cdd1c9e4818dbdb9d1c9858dd609a1b606082015260800190565b60208082526025908201527f4f6e6c79204d657373656e6765722063616e2063616c6c20746869732066756e60408201526431ba34b7b760d91b606082015260800190565b6020808252603a908201527f43616e206f6e6c7920636c61696d206120636f6d70656e736174696f6e20696660408201527f20706f736974696f6e20697320626967676572207468616e2030000000000000606082015260800190565b60208082526024908201527f44534c41206275726e2070726f6365737320776173206e6f74207375636365736040820152631cd99d5b60e21b606082015260800190565b6020808252602a908201527f53686f756c64206e6f74207769746864726177206d6f7265207374616b6520746040820152691a185b881cdd185ad95960b21b606082015260800190565b60208082526028908201527f43616e6e6f74207374616b65206d6f7265207468616e20534c412070726f76696040820152676465727374616b6560c01b606082015260800190565b60208082526021908201527f536166654d6174683a206d756c7469706c69636174696f6e206f766572666c6f6040820152607760f81b606082015260800190565b6020808252601490820152731d1bdad95b881a5cc81b9bdd08185b1b1bddd95960621b604082015260600190565b6020808252818101527f4f776e61626c653a2063616c6c6572206973206e6f7420746865206f776e6572604082015260600190565b60208082526028908201527f43616e206f6e6c79207374616b65206f6e206e6f7420627265616368656420636040820152676f6e74726163747360c01b606082015260800190565b60208082526021908201527f5374616b696e672070726f6365737320776173206e6f742073756363657366756040820152601b60fa1b606082015260800190565b602080825260139082015272151bdad95b88185b1c9958591e481859191959606a1b604082015260600190565b6020808252601290820152710616d6f756e742063616e6e6f7420626520360741b604082015260600190565b60208082526042908201527f5472616e736665722070726f636573732066726f6d20534c4120636f6e74726160408201527f637420746f206d73672e73656e64657220776173206e6f7420737563636573666060820152611d5b60f21b608082015260a00190565b6020808252603f908201527f53686f756c64207374616b65206174206c65617374206d696e696d756d44534c60408201527f415374616b6564546965723120746f206164642061206e657720746f6b656e00606082015260800190565b60208082526025908201527f53686f756c64206e6f742062652063616c6c65642062792074686520534c412060408201526437bbb732b960d91b606082015260800190565b90815260200190565b918252602082015260400190565b83815260208101839052606081016125f883612648565b826040830152949350505050565b9283526020830191909152604082015260600190565b60005b8381101561263757818101518382015260200161261f565b83811115610abb5750506000910152565b60038110610afc57fefea2646970667358221220ab07b4b889b3f504a0e2462de5b663a18ef9eff30b92bfe7e70a859ccbcce6cf64736f6c634300060c00338be0079c531659141344cd1fd0a4f28419497f9722a3daafe3b4186f6b6457e0",
  "immutableReferences": {},
  "source": "// SPDX-License-Identifier: MIT\npragma solidity ^0.6.0;\npragma experimental ABIEncoderV2;\n\nimport \"@openzeppelin/contracts/access/Ownable.sol\";\nimport \"@openzeppelin/contracts/token/ERC20/IERC20.sol\";\nimport \"@openzeppelin/contracts/math/SafeMath.sol\";\nimport \"./SLO.sol\";\nimport \"./SLARegistry.sol\";\nimport \"./PeriodRegistry.sol\";\nimport \"./Staking.sol\";\n\n/**\n * @title SLA\n * @dev SLA is a service level agreement contract used for service downtime\n * compensation\n */\ncontract SLA is Staking {\n    using SafeMath for uint256;\n\n    enum Status {NotVerified, Respected, NotRespected}\n\n    /// @dev Struct used for storing period status\n    struct SLAPeriod {\n        uint256 timestamp;\n        uint256 sli;\n        Status status;\n    }\n\n    struct TokenStake {\n        address tokenAddress;\n        uint256 stake;\n    }\n\n    /// @dev address of the SLO\n    SLO public slo;\n\n    /// @dev The ipfs hash that stores extra information about the agreement\n    string public ipfsHash;\n\n    /// @dev uint8 of the period type\n    PeriodRegistry.PeriodType public periodType;\n\n    PeriodRegistry public periodRegistry;\n\n    /// @dev array of he allowed canonical period ids\n    uint256[] public periodIds;\n\n    /// @dev The address of the slaRegistry contract\n    SLARegistry public slaRegistry;\n\n    /// @dev The address of the messenger\n    address public messengerAddress;\n\n    /// @dev periodId=>SLAPeriod mapping\n    mapping(uint256 => SLAPeriod) public slaPeriods;\n\n    /// @dev block number of SLA deployment\n    uint256 public creationBlockNumber;\n\n    /// @dev states if the contract was breached or not\n    bool private _breachedContract = false;\n\n    /**\n     * @dev event for SLI creation logging\n     * @param _timestamp 1. the time the SLI has been registered\n     * @param _sli 2. the value of the SLI\n     * @param _periodId 3. the id of the given period\n     */\n    event SLICreated(uint256 _timestamp, uint256 _sli, uint256 _periodId);\n\n    /**\n     * @dev event for SLI creation logging\n     * @param _periodId 1. the id of the given period\n     * @param _sli 2. value of the SLI\n     */\n    event SLANotRespected(uint256 _periodId, uint256 _sli);\n\n    /**\n     * @dev throws if called by any address other than the messenger contract.\n     */\n    modifier onlyMessenger() {\n        require(\n            msg.sender == messengerAddress,\n            \"Only Messenger can call this function\"\n        );\n        _;\n    }\n\n    /**\n     * @dev throws if called by any address other than the messenger contract.\n     */\n    modifier onlySLARegistry() {\n        require(\n            msg.sender == address(slaRegistry),\n            \"Only SLARegistry can call this function\"\n        );\n        _;\n    }\n\n    /**\n     * @param _owner 1. address of the owner of the service level agreement\n     * @param _SLO 2. address of the SLO\n     * @param _ipfsHash 3. string with the ipfs hash that contains SLA information\n     * @param _periodIds 5. id of the allowed canonical periods\n     */\n    constructor(\n        address _owner,\n        SLO _SLO,\n        string memory _ipfsHash,\n        address _messengerAddress,\n        uint256[] memory _periodIds,\n        PeriodRegistry.PeriodType _periodType,\n        address _stakeRegistry,\n        address _periodRegistry\n    )\n        public\n        Staking(_stakeRegistry, _periodRegistry, _periodType, _periodIds.length)\n    {\n        transferOwnership(_owner);\n        ipfsHash = _ipfsHash;\n        messengerAddress = _messengerAddress;\n        slaRegistry = SLARegistry(msg.sender);\n        periodRegistry = PeriodRegistry(_periodRegistry);\n        creationBlockNumber = block.number;\n        periodIds = _periodIds;\n        periodType = _periodType;\n        slo = _SLO;\n    }\n\n    /**\n     * @dev external function to register SLI's and check them against the SLO's\n     * @param _sli 1. the value of the SLI to check\n     * @param _periodId 2. the id of the given period\n     */\n    function registerSLI(uint256 _sli, uint256 _periodId)\n        external\n        onlyMessenger\n    {\n        emit SLICreated(block.timestamp, _sli, _periodId);\n        SLAPeriod storage slaPeriod = slaPeriods[_periodId];\n        slaPeriod.sli = _sli;\n        slaPeriod.timestamp = block.timestamp;\n        if (slo.isSLOHonored(_sli)) {\n            slaPeriod.status = Status.Respected;\n            _setRespectedPeriodReward(_periodId);\n        } else {\n            slaPeriod.status = Status.NotRespected;\n            _setUsersCompensationPool();\n            _breachedContract = true;\n            emit SLANotRespected(_periodId, _sli);\n        }\n    }\n\n    function isAllowedPeriod(uint256 _periodId) public view returns (bool) {\n        for (uint256 index = 0; index < periodIds.length; index++) {\n            if (periodIds[index] == _periodId) {\n                return true;\n            }\n        }\n        return false;\n    }\n\n    /**\n     *@dev stake _amount tokens into the _token contract\n     *@param _amount 1. amount to be staked\n     *@param _token 2. address of the ERC to be staked\n     */\n\n    function stakeTokens(uint256 _amount, address _token) public {\n        require(_amount > 0, \"amount cannot be 0\");\n        require(\n            _breachedContract == false,\n            \"Can only stake on not breached contracts\"\n        );\n        _stake(_amount, _token);\n        slaRegistry.registerStakedSla(msg.sender);\n    }\n\n    /**\n     *@dev withdraw _amount tokens from the _token contract\n     *@param _amount 1. amount to be staked\n     *@param _tokenAddress 2. address of the ERC to be staked\n     */\n\n    function withdrawStakedTokens(uint256 _amount, address _tokenAddress)\n        public\n    {\n        require(_amount > 0, \"amount cannot be 0\");\n        uint256 lastValidPeriodId = periodIds[periodIds.length - 1];\n        (, uint256 endOfLastValidPeriod) =\n            periodRegistry.getPeriodStartAndEnd(periodType, lastValidPeriodId);\n        // providers and users can withdraw only if the contract is breached\n        // or if the last period is finished and the period status was verified\n        require(\n            _breachedContract == true ||\n                (block.timestamp >= endOfLastValidPeriod &&\n                    slaPeriods[lastValidPeriodId].status != Status.NotVerified),\n            \"Can only withdraw stake after the final period is finished or if the contract is breached\"\n        );\n        _withdraw(_amount, _tokenAddress);\n    }\n\n    /**\n     *@dev withdraw provider reward of a given token address\n     *@param _tokenAddress 1. address of the token to withdraw rewards\n     */\n\n    function claimUserCompensation(address _tokenAddress) public {\n        _claimCompensation(_tokenAddress);\n    }\n\n    /**\n     * @dev external view function that returns all agreement information\n     * @return _slaOwner 1. address  owner\n     * @return _ipfsHash 2. string  ipfsHash\n     * @return _SLO 3. addresses of the SLO\n     * @return _SLAPeriods 5. SLAPeriod[]\n     * @return _stakersCount 6. amount of stakers\n     * @return _tokensStake 7. SLAPeriod[]  addresses array\n     */\n\n    function getDetails()\n        external\n        view\n        returns (\n            address _slaOwner,\n            string memory _ipfsHash,\n            SLO _SLO,\n            SLAPeriod[] memory _SLAPeriods,\n            uint256 _stakersCount,\n            TokenStake[] memory _tokensStake\n        )\n    {\n        _slaOwner = owner();\n        _ipfsHash = ipfsHash;\n        _SLO = slo;\n        _SLAPeriods = new SLAPeriod[](periodIds.length);\n        for (uint256 index = 0; index < periodIds.length; index++) {\n            uint256 periodId = periodIds[index];\n            SLAPeriod memory slaPeriod = slaPeriods[periodId];\n            _SLAPeriods[index] = SLAPeriod({\n                status: slaPeriod.status,\n                sli: slaPeriod.sli,\n                timestamp: slaPeriod.timestamp\n            });\n        }\n        _stakersCount = stakers.length;\n        _tokensStake = new TokenStake[](allowedTokens.length);\n        for (uint256 index = 0; index < allowedTokens.length; index++) {\n            _tokensStake[index] = TokenStake({\n                tokenAddress: allowedTokens[index],\n                stake: tokenPools[allowedTokens[index]]\n            });\n        }\n    }\n\n    function breachedContract() public view returns (bool) {\n        return _breachedContract;\n    }\n}\n",
  "sourcePath": "/Users/matiasbn/Desktop/stacktical/stacktical-dsla-contracts/contracts/SLA.sol",
  "compiler": {
    "name": "solc",
    "version": "0.6.12+commit.27d51765.Emscripten.clang"
  },
  "schemaVersion": "3.3.3",
  "updatedAt": "2021-02-14T09:57:15.479Z",
  "devdoc": {
    "details": "SLA is a service level agreement contract used for service downtime compensation",
    "events": {
      "SLANotRespected(uint256,uint256)": {
        "details": "event for SLI creation logging",
        "params": {
          "_periodId": "1. the id of the given period",
          "_sli": "2. value of the SLI"
        }
      },
      "SLICreated(uint256,uint256,uint256)": {
        "details": "event for SLI creation logging",
        "params": {
          "_periodId": "3. the id of the given period",
          "_sli": "2. the value of the SLI",
          "_timestamp": "1. the time the SLI has been registered"
        }
      }
    },
    "kind": "dev",
    "methods": {
      "_claimCompensation(address)": {
        "details": "claim user compensation. Transfers both the compensation and the user remaining stake.",
        "params": {
          "_tokenAddress": "1. address of the token to claim compensation"
        }
      },
      "addAllowedTokens(address)": {
        "details": "add a token to ve allowed for staking",
        "params": {
          "_tokenAddress": "1. address of the new allowed token"
        }
      },
      "claimUserCompensation(address)": {
        "details": "withdraw provider reward of a given token address",
        "params": {
          "_tokenAddress": "1. address of the token to withdraw rewards"
        }
      },
      "constructor": {
        "params": {
          "_SLO": "2. address of the SLO",
          "_ipfsHash": "3. string with the ipfs hash that contains SLA information",
          "_owner": "1. address of the owner of the service level agreement",
          "_periodIds": "5. id of the allowed canonical periods"
        }
      },
      "getDetails()": {
        "details": "external view function that returns all agreement information",
        "returns": {
          "_SLAPeriods": "5. SLAPeriod[]",
          "_SLO": "3. addresses of the SLO",
          "_ipfsHash": "2. string  ipfsHash",
          "_slaOwner": "1. address  owner",
          "_stakersCount": "6. amount of stakers",
          "_tokensStake": "7. SLAPeriod[]  addresses array"
        }
      },
      "getStakeholdersPositions(address)": {
        "details": "gets the positions of stake both for provider and for users",
        "params": {
          "_tokenAddress": "1. token address to get the positions"
        },
        "returns": {
          "providerStake": "position of the provider (owner) of the SLA contract",
          "usersStake": "position of the user of the SLA contract"
        }
      },
      "owner()": {
        "details": "Returns the address of the current owner."
      },
      "registerSLI(uint256,uint256)": {
        "details": "external function to register SLI's and check them against the SLO's",
        "params": {
          "_periodId": "2. the id of the given period",
          "_sli": "1. the value of the SLI to check"
        }
      },
      "renounceOwnership()": {
        "details": "Leaves the contract without owner. It will not be possible to call `onlyOwner` functions anymore. Can only be called by the current owner. NOTE: Renouncing ownership will leave the contract without an owner, thereby removing any functionality that is only available to the owner."
      },
      "stakeTokens(uint256,address)": {
        "details": "stake _amount tokens into the _token contract",
        "params": {
          "_amount": "1. amount to be staked",
          "_token": "2. address of the ERC to be staked"
        }
      },
      "transferOwnership(address)": {
        "details": "Transfers ownership of the contract to a new account (`newOwner`). Can only be called by the current owner."
      },
      "withdrawStakedTokens(uint256,address)": {
        "details": "withdraw _amount tokens from the _token contract",
        "params": {
          "_amount": "1. amount to be staked",
          "_tokenAddress": "2. address of the ERC to be staked"
        }
      }
    },
    "stateVariables": {
      "_breachedContract": {
        "details": "states if the contract was breached or not"
      },
      "creationBlockNumber": {
        "details": "block number of SLA deployment"
      },
      "ipfsHash": {
        "details": "The ipfs hash that stores extra information about the agreement"
      },
      "messengerAddress": {
        "details": "The address of the messenger"
      },
      "periodIds": {
        "details": "array of he allowed canonical period ids"
      },
      "periodType": {
        "details": "uint8 of the period type"
      },
      "slaPeriods": {
        "details": "periodId=>SLAPeriod mapping"
      },
      "slaRegistry": {
        "details": "The address of the slaRegistry contract"
      },
      "slo": {
        "details": "address of the SLO"
      }
    },
    "title": "SLA",
    "version": 1
  },
  "userdoc": {
    "kind": "user",
    "methods": {
      "_claimCompensation(address)": {
        "notice": "it uses the user position and the user total position per token to check the proportion of the compensation pool that corresponds to every user"
      }
    },
    "version": 1
  }
}