{
  "contractName": "SLA",
  "abi": [
    {
      "inputs": [
        {
          "internalType": "address",
          "name": "_owner",
          "type": "address"
        },
        {
          "internalType": "bytes32[]",
          "name": "_SLONames",
          "type": "bytes32[]"
        },
        {
          "internalType": "contract SLO[]",
          "name": "_SLOs",
          "type": "address[]"
        },
        {
          "internalType": "uint256",
          "name": "_stake",
          "type": "uint256"
        },
        {
          "internalType": "string",
          "name": "_ipfsHash",
          "type": "string"
        },
        {
          "internalType": "uint256",
          "name": "_sliInterval",
          "type": "uint256"
        },
        {
          "internalType": "contract bDSLAToken",
          "name": "_tokenAddress",
          "type": "address"
        },
        {
          "internalType": "uint256[]",
          "name": "_sla_period_starts",
          "type": "uint256[]"
        },
        {
          "internalType": "uint256[]",
          "name": "_sla_period_ends",
          "type": "uint256[]"
        }
      ],
      "stateMutability": "nonpayable",
      "type": "constructor"
    },
    {
      "anonymous": false,
      "inputs": [
        {
          "indexed": true,
          "internalType": "uint256",
          "name": "period_index",
          "type": "uint256"
        }
      ],
      "name": "NewPeriodAdded",
      "type": "event"
    },
    {
      "anonymous": false,
      "inputs": [
        {
          "indexed": true,
          "internalType": "address",
          "name": "previousOwner",
          "type": "address"
        },
        {
          "indexed": true,
          "internalType": "address",
          "name": "newOwner",
          "type": "address"
        }
      ],
      "name": "OwnershipTransferred",
      "type": "event"
    },
    {
      "anonymous": false,
      "inputs": [
        {
          "indexed": false,
          "internalType": "uint256",
          "name": "_timestamp",
          "type": "uint256"
        },
        {
          "indexed": false,
          "internalType": "uint256",
          "name": "_value",
          "type": "uint256"
        },
        {
          "indexed": false,
          "internalType": "string",
          "name": "_hash",
          "type": "string"
        }
      ],
      "name": "SLICreated",
      "type": "event"
    },
    {
      "inputs": [
        {
          "internalType": "bytes32",
          "name": "",
          "type": "bytes32"
        },
        {
          "internalType": "uint256",
          "name": "",
          "type": "uint256"
        }
      ],
      "name": "SLIs",
      "outputs": [
        {
          "internalType": "uint256",
          "name": "timestamp",
          "type": "uint256"
        },
        {
          "internalType": "uint256",
          "name": "value",
          "type": "uint256"
        },
        {
          "internalType": "string",
          "name": "ipfsHash",
          "type": "string"
        }
      ],
      "stateMutability": "view",
      "type": "function"
    },
    {
      "inputs": [
        {
          "internalType": "bytes32",
          "name": "",
          "type": "bytes32"
        }
      ],
      "name": "SLOs",
      "outputs": [
        {
          "internalType": "contract SLO",
          "name": "",
          "type": "address"
        }
      ],
      "stateMutability": "view",
      "type": "function"
    },
    {
      "inputs": [
        {
          "internalType": "address",
          "name": "_token",
          "type": "address"
        }
      ],
      "name": "addAllowedTokens",
      "outputs": [],
      "stateMutability": "nonpayable",
      "type": "function"
    },
    {
      "inputs": [
        {
          "internalType": "uint256",
          "name": "_sla_period_start",
          "type": "uint256"
        },
        {
          "internalType": "uint256",
          "name": "_sla_period_end",
          "type": "uint256"
        }
      ],
      "name": "addNewPeriod",
      "outputs": [],
      "stateMutability": "nonpayable",
      "type": "function"
    },
    {
      "inputs": [
        {
          "internalType": "uint256",
          "name": "",
          "type": "uint256"
        }
      ],
      "name": "allowedTokens",
      "outputs": [
        {
          "internalType": "address",
          "name": "",
          "type": "address"
        }
      ],
      "stateMutability": "view",
      "type": "function"
    },
    {
      "inputs": [],
      "name": "bDSLA",
      "outputs": [
        {
          "internalType": "contract bDSLAToken",
          "name": "",
          "type": "address"
        }
      ],
      "stateMutability": "view",
      "type": "function"
    },
    {
      "inputs": [
        {
          "internalType": "uint256",
          "name": "_period",
          "type": "uint256"
        }
      ],
      "name": "claimCompensation",
      "outputs": [],
      "stateMutability": "nonpayable",
      "type": "function"
    },
    {
      "inputs": [
        {
          "internalType": "uint256",
          "name": "_period",
          "type": "uint256"
        }
      ],
      "name": "claimReward",
      "outputs": [],
      "stateMutability": "nonpayable",
      "type": "function"
    },
    {
      "inputs": [
        {
          "internalType": "address",
          "name": "_user",
          "type": "address"
        },
        {
          "internalType": "uint256",
          "name": "_period",
          "type": "uint256"
        }
      ],
      "name": "getUserTotalValue",
      "outputs": [
        {
          "internalType": "uint256",
          "name": "",
          "type": "uint256"
        }
      ],
      "stateMutability": "view",
      "type": "function"
    },
    {
      "inputs": [],
      "name": "ipfsHash",
      "outputs": [
        {
          "internalType": "string",
          "name": "",
          "type": "string"
        }
      ],
      "stateMutability": "view",
      "type": "function"
    },
    {
      "inputs": [],
      "name": "owner",
      "outputs": [
        {
          "internalType": "address",
          "name": "",
          "type": "address"
        }
      ],
      "stateMutability": "view",
      "type": "function"
    },
    {
      "inputs": [
        {
          "internalType": "uint256",
          "name": "",
          "type": "uint256"
        }
      ],
      "name": "periods",
      "outputs": [
        {
          "internalType": "uint256",
          "name": "sla_period_start",
          "type": "uint256"
        },
        {
          "internalType": "uint256",
          "name": "sla_period_end",
          "type": "uint256"
        },
        {
          "internalType": "uint256",
          "name": "claimed_reward",
          "type": "uint256"
        },
        {
          "internalType": "bool",
          "name": "claimed",
          "type": "bool"
        },
        {
          "internalType": "enum Staking.Status",
          "name": "status",
          "type": "uint8"
        }
      ],
      "stateMutability": "view",
      "type": "function"
    },
    {
      "inputs": [],
      "name": "registry",
      "outputs": [
        {
          "internalType": "contract SLARegistry",
          "name": "",
          "type": "address"
        }
      ],
      "stateMutability": "view",
      "type": "function"
    },
    {
      "inputs": [],
      "name": "renounceOwnership",
      "outputs": [],
      "stateMutability": "nonpayable",
      "type": "function"
    },
    {
      "inputs": [],
      "name": "stake",
      "outputs": [
        {
          "internalType": "uint256",
          "name": "",
          "type": "uint256"
        }
      ],
      "stateMutability": "view",
      "type": "function"
    },
    {
      "inputs": [
        {
          "internalType": "uint256",
          "name": "_amount",
          "type": "uint256"
        },
        {
          "internalType": "address",
          "name": "_token",
          "type": "address"
        },
        {
          "internalType": "uint256",
          "name": "_period",
          "type": "uint256"
        }
      ],
      "name": "stakeTokens",
      "outputs": [],
      "stateMutability": "nonpayable",
      "type": "function"
    },
    {
      "inputs": [
        {
          "internalType": "uint256",
          "name": "",
          "type": "uint256"
        }
      ],
      "name": "stakers",
      "outputs": [
        {
          "internalType": "address",
          "name": "",
          "type": "address"
        }
      ],
      "stateMutability": "view",
      "type": "function"
    },
    {
      "inputs": [],
      "name": "totalStaked",
      "outputs": [
        {
          "internalType": "uint256",
          "name": "",
          "type": "uint256"
        }
      ],
      "stateMutability": "view",
      "type": "function"
    },
    {
      "inputs": [
        {
          "internalType": "address",
          "name": "newOwner",
          "type": "address"
        }
      ],
      "name": "transferOwnership",
      "outputs": [],
      "stateMutability": "nonpayable",
      "type": "function"
    },
    {
      "inputs": [
        {
          "internalType": "address",
          "name": "",
          "type": "address"
        }
      ],
      "name": "uniqueTokensStaked",
      "outputs": [
        {
          "internalType": "uint256",
          "name": "",
          "type": "uint256"
        }
      ],
      "stateMutability": "view",
      "type": "function"
    },
    {
      "inputs": [],
      "name": "validator",
      "outputs": [
        {
          "internalType": "address",
          "name": "",
          "type": "address"
        }
      ],
      "stateMutability": "view",
      "type": "function"
    },
    {
      "inputs": [
        {
          "internalType": "address",
          "name": "_token",
          "type": "address"
        },
        {
          "internalType": "uint256",
          "name": "_period",
          "type": "uint256"
        }
      ],
      "name": "withdraw",
      "outputs": [],
      "stateMutability": "nonpayable",
      "type": "function"
    },
    {
      "inputs": [
        {
          "internalType": "address",
          "name": "_token",
          "type": "address"
        },
        {
          "internalType": "uint256",
          "name": "_amount",
          "type": "uint256"
        },
        {
          "internalType": "uint256",
          "name": "_period",
          "type": "uint256"
        }
      ],
      "name": "withdrawAndStake",
      "outputs": [],
      "stateMutability": "nonpayable",
      "type": "function"
    },
    {
      "inputs": [
        {
          "internalType": "bytes32",
          "name": "_SLOName",
          "type": "bytes32"
        },
        {
          "internalType": "uint256",
          "name": "_value",
          "type": "uint256"
        },
        {
          "internalType": "string",
          "name": "_hash",
          "type": "string"
        },
        {
          "internalType": "uint256",
          "name": "_period",
          "type": "uint256"
        }
      ],
      "name": "registerSLI",
      "outputs": [],
      "stateMutability": "nonpayable",
      "type": "function"
    },
    {
      "inputs": [
        {
          "internalType": "bytes32",
          "name": "_SLOName",
          "type": "bytes32"
        }
      ],
      "name": "getSLI",
      "outputs": [
        {
          "components": [
            {
              "internalType": "uint256",
              "name": "timestamp",
              "type": "uint256"
            },
            {
              "internalType": "uint256",
              "name": "value",
              "type": "uint256"
            },
            {
              "internalType": "string",
              "name": "ipfsHash",
              "type": "string"
            }
          ],
          "internalType": "struct SLA.SLI[]",
          "name": "",
          "type": "tuple[]"
        }
      ],
      "stateMutability": "view",
      "type": "function"
    },
    {
      "inputs": [],
      "name": "getSliInterval",
      "outputs": [
        {
          "internalType": "uint256",
          "name": "",
          "type": "uint256"
        }
      ],
      "stateMutability": "view",
      "type": "function"
    },
    {
      "inputs": [],
      "name": "getDetails",
      "outputs": [
        {
          "internalType": "address",
          "name": "",
          "type": "address"
        },
        {
          "internalType": "string",
          "name": "",
          "type": "string"
        },
        {
          "internalType": "uint256",
          "name": "",
          "type": "uint256"
        },
        {
          "internalType": "bytes32[]",
          "name": "",
          "type": "bytes32[]"
        },
        {
          "internalType": "contract SLO[]",
          "name": "",
          "type": "address[]"
        }
      ],
      "stateMutability": "view",
      "type": "function"
    }
  ],
  "bytecode": "0x60806040523480156200001157600080fd5b506040516200541f3803806200541f833981810160405281019062000037919062000b62565b82828260006200004c620003e660201b60201c565b9050806000806101000a81548173ffffffffffffffffffffffffffffffffffffffff021916908373ffffffffffffffffffffffffffffffffffffffff1602179055508073ffffffffffffffffffffffffffffffffffffffff16600073ffffffffffffffffffffffffffffffffffffffff167f8be0079c531659141344cd1fd0a4f28419497f9722a3daafe3b4186f6b6457e060405160405180910390a350805182511462000131576040517f08c379a0000000000000000000000000000000000000000000000000000000008152600401620001289062000e51565b60405180910390fd5b82600160006101000a81548173ffffffffffffffffffffffffffffffffffffffff021916908373ffffffffffffffffffffffffffffffffffffffff1602179055506004600160009054906101000a900473ffffffffffffffffffffffffffffffffffffffff169080600181540180825580915050600190039060005260206000200160009091909190916101000a81548173ffffffffffffffffffffffffffffffffffffffff021916908373ffffffffffffffffffffffffffffffffffffffff16021790555033600260006101000a81548173ffffffffffffffffffffffffffffffffffffffff021916908373ffffffffffffffffffffffffffffffffffffffff16021790555060005b82518110156200028d576200027f8382815181106200025657fe5b60200260200101518383815181106200026b57fe5b6020026020010151620003ee60201b60201c565b80806001019150506200023b565b505050506005875110620002a057600080fd5b8651885114620002af57600080fd5b60005b87518110156200034457878181518110620002c957fe5b6020026020010151600c60008b8481518110620002e257fe5b6020026020010151815260200190815260200160002060006101000a81548173ffffffffffffffffffffffffffffffffffffffff021916908373ffffffffffffffffffffffffffffffffffffffff1602179055508080600101915050620002b2565b5062000356896200051860201b60201c565b87600e90805190602001906200036e92919062000798565b508560088190555084600a90805190602001906200038e929190620007ea565b5033600b60006101000a81548173ffffffffffffffffffffffffffffffffffffffff021916908373ffffffffffffffffffffffffffffffffffffffff16021790555083600981905550505050505050505050620010c0565b600033905090565b620003f862000871565b82816000018181525050818160200181815250506000816080019060028111156200041f57fe5b908160028111156200042d57fe5b81525050600581908060018154018082558091505060019003906000526020600020906006020160009091909190915060008201518160000155602082015181600101556040820151816002015560608201518160030160006101000a81548160ff02191690831515021790555060808201518160030160016101000a81548160ff02191690836002811115620004c057fe5b02179055505050620004e76001600580549050620006e860201b62002b341790919060201c565b7ff791e873e3b67fe74b29aeede7bcbbdaa59c4b64e542571183cd837aa56f6ac960405160405180910390a2505050565b62000528620003e660201b60201c565b73ffffffffffffffffffffffffffffffffffffffff1660008054906101000a900473ffffffffffffffffffffffffffffffffffffffff1673ffffffffffffffffffffffffffffffffffffffff1614620005b8576040517f08c379a0000000000000000000000000000000000000000000000000000000008152600401620005af9062000e73565b60405180910390fd5b600073ffffffffffffffffffffffffffffffffffffffff168173ffffffffffffffffffffffffffffffffffffffff1614156200062b576040517f08c379a0000000000000000000000000000000000000000000000000000000008152600401620006229062000e2f565b60405180910390fd5b8073ffffffffffffffffffffffffffffffffffffffff1660008054906101000a900473ffffffffffffffffffffffffffffffffffffffff1673ffffffffffffffffffffffffffffffffffffffff167f8be0079c531659141344cd1fd0a4f28419497f9722a3daafe3b4186f6b6457e060405160405180910390a3806000806101000a81548173ffffffffffffffffffffffffffffffffffffffff021916908373ffffffffffffffffffffffffffffffffffffffff16021790555050565b60006200073283836040518060400160405280601e81526020017f536166654d6174683a207375627472616374696f6e206f766572666c6f7700008152506200073a60201b60201c565b905092915050565b600083831115829062000785576040517f08c379a00000000000000000000000000000000000000000000000000000000081526004016200077c919062000e0b565b60405180910390fd5b5060008385039050809150509392505050565b828054828255906000526020600020908101928215620007d7579160200282015b82811115620007d6578251825591602001919060010190620007b9565b5b509050620007e69190620008ae565b5090565b828054600181600116156101000203166002900490600052602060002090601f016020900481019282601f106200082d57805160ff19168380011785556200085e565b828001600101855582156200085e579182015b828111156200085d57825182559160200191906001019062000840565b5b5090506200086d9190620008cd565b5090565b6040518060a0016040528060008152602001600081526020016000815260200160001515815260200160006002811115620008a857fe5b81525090565b5b80821115620008c9576000816000905550600101620008af565b5090565b5b80821115620008e8576000816000905550600101620008ce565b5090565b600081519050620008fd816200103e565b92915050565b600082601f8301126200091557600080fd5b81516200092c620009268262000ec3565b62000e95565b915081818352602084019350602081019050838560208402820111156200095257600080fd5b60005b838110156200098657816200096b888262000aaa565b84526020840193506020830192505060018101905062000955565b5050505092915050565b600082601f830112620009a257600080fd5b8151620009b9620009b38262000eec565b62000e95565b91508181835260208401935060208101905083856020840282011115620009df57600080fd5b60005b8381101562000a135781620009f8888262000ac1565b845260208401935060208301925050600181019050620009e2565b5050505092915050565b600082601f83011262000a2f57600080fd5b815162000a4662000a408262000f15565b62000e95565b9150818183526020840193506020810190508385602084028201111562000a6c57600080fd5b60005b8381101562000aa0578162000a85888262000b4b565b84526020840193506020830192505060018101905062000a6f565b5050505092915050565b60008151905062000abb8162001058565b92915050565b60008151905062000ad28162001072565b92915050565b60008151905062000ae9816200108c565b92915050565b600082601f83011262000b0157600080fd5b815162000b1862000b128262000f3e565b62000e95565b9150808252602083016020830185838301111562000b3557600080fd5b62000b4283828462000ff7565b50505092915050565b60008151905062000b5c81620010a6565b92915050565b60008060008060008060008060006101208a8c03121562000b8257600080fd5b600062000b928c828d01620008ec565b99505060208a015167ffffffffffffffff81111562000bb057600080fd5b62000bbe8c828d0162000903565b98505060408a015167ffffffffffffffff81111562000bdc57600080fd5b62000bea8c828d0162000990565b975050606062000bfd8c828d0162000b4b565b96505060808a015167ffffffffffffffff81111562000c1b57600080fd5b62000c298c828d0162000aef565b95505060a062000c3c8c828d0162000b4b565b94505060c062000c4f8c828d0162000ad8565b93505060e08a015167ffffffffffffffff81111562000c6d57600080fd5b62000c7b8c828d0162000a1d565b9250506101008a015167ffffffffffffffff81111562000c9a57600080fd5b62000ca88c828d0162000a1d565b9150509295985092959850929598565b600062000cc58262000f6b565b62000cd1818562000f76565b935062000ce381856020860162000ff7565b62000cee816200102d565b840191505092915050565b600062000d0860268362000f76565b91507f4f776e61626c653a206e6577206f776e657220697320746865207a65726f206160008301527f64647265737300000000000000000000000000000000000000000000000000006020830152604082019050919050565b600062000d7060298362000f76565b91507f506c6561736520636865636b2074686520706172616d73206f6620796f75722060008301527f706572696f6473202100000000000000000000000000000000000000000000006020830152604082019050919050565b600062000dd860208362000f76565b91507f4f776e61626c653a2063616c6c6572206973206e6f7420746865206f776e65726000830152602082019050919050565b6000602082019050818103600083015262000e27818462000cb8565b905092915050565b6000602082019050818103600083015262000e4a8162000cf9565b9050919050565b6000602082019050818103600083015262000e6c8162000d61565b9050919050565b6000602082019050818103600083015262000e8e8162000dc9565b9050919050565b6000604051905081810181811067ffffffffffffffff8211171562000eb957600080fd5b8060405250919050565b600067ffffffffffffffff82111562000edb57600080fd5b602082029050602081019050919050565b600067ffffffffffffffff82111562000f0457600080fd5b602082029050602081019050919050565b600067ffffffffffffffff82111562000f2d57600080fd5b602082029050602081019050919050565b600067ffffffffffffffff82111562000f5657600080fd5b601f19601f8301169050602081019050919050565b600081519050919050565b600082825260208201905092915050565b600062000f948262000fcd565b9050919050565b6000819050919050565b600062000fb28262000f87565b9050919050565b600062000fc68262000f87565b9050919050565b600073ffffffffffffffffffffffffffffffffffffffff82169050919050565b6000819050919050565b60005b838110156200101757808201518184015260208101905062000ffa565b8381111562001027576000848401525b50505050565b6000601f19601f8301169050919050565b620010498162000f87565b81146200105557600080fd5b50565b620010638162000f9b565b81146200106f57600080fd5b50565b6200107d8162000fa5565b81146200108957600080fd5b50565b620010978162000fb9565b8114620010a357600080fd5b50565b620010b18162000fed565b8114620010bd57600080fd5b50565b61434f80620010d06000396000f3fe608060405234801561001057600080fd5b50600436106101a95760003560e01c806394199c61116100f9578063e7ab816a11610097578063f2fde38b11610071578063f2fde38b146104c2578063f3fef3a3146104de578063fbbf93a0146104fa578063fd5e6dd11461051c576101a9565b8063e7ab816a14610440578063ea4a11041461045e578063f10bd77214610492576101a9565b8063b83e0234116100d3578063b83e0234146103ba578063c623674f146103ea578063cec534d614610408578063e23ef92c14610424576101a9565b806394199c611461033c578063ae169a501461036e578063b0227b471461038a576101a9565b80635e5f2e261161016657806375fdf2a91161014057806375fdf2a9146102c65780637b103999146102e2578063817b1cd2146103005780638da5cb5b1461031e576101a9565b80635e5f2e261461026e5780635f4efaba1461029e578063715018a6146102bc576101a9565b806302e8b893146101ae5780630e1fcf34146101de578063171e44ea146101fa5780633a4b66f1146102165780633a5381b51461023457806353e85fd514610252575b600080fd5b6101c860048036038101906101c39190613376565b61054c565b6040516101d59190613d22565b60405180910390f35b6101f860048036038101906101f391906134fc565b610674565b005b610214600480360381019061020f9190613299565b610717565b005b61021e610812565b60405161022b9190613f57565b60405180910390f35b61023c610818565b6040516102499190613c3f565b60405180910390f35b61026c60048036038101906102679190613484565b61083e565b005b61028860048036038101906102839190613484565b610c3d565b6040516102959190613c3f565b60405180910390f35b6102a6610c79565b6040516102b39190613d7a565b60405180910390f35b6102c4610c9f565b005b6102e060048036038101906102db91906132fe565b610df2565b005b6102ea6113f1565b6040516102f79190613d44565b60405180910390f35b610308611417565b6040516103159190613f57565b60405180910390f35b61032661141d565b6040516103339190613c3f565b60405180910390f35b6103566004803603810190610351919061339f565b611446565b60405161036593929190613fb2565b60405180910390f35b61038860048036038101906103839190613484565b611522565b005b6103a4600480360381019061039f9190613376565b6118f9565b6040516103b19190613d5f565b60405180910390f35b6103d460048036038101906103cf9190613299565b61192c565b6040516103e19190613f57565b60405180910390f35b6103f2611944565b6040516103ff9190613d95565b60405180910390f35b610422600480360381019061041d91906134ad565b6119e2565b005b61043e600480360381019061043991906133db565b611d1b565b005b61044861204a565b6040516104559190613f57565b60405180910390f35b61047860048036038101906104739190613484565b612054565b604051610489959493929190613ff0565b60405180910390f35b6104ac60048036038101906104a791906132c2565b6120b1565b6040516104b99190613f57565b60405180910390f35b6104dc60048036038101906104d79190613299565b61220d565b005b6104f860048036038101906104f391906132c2565b6123cf565b005b6105026128e0565b604051610513959493929190613cba565b60405180910390f35b61053660048036038101906105319190613484565b612af8565b6040516105439190613c3f565b60405180910390f35b6060600d6000838152602001908152602001600020805480602002602001604051908101604052809291908181526020016000905b8282101561066957838290600052602060002090600302016040518060600160405290816000820154815260200160018201548152602001600282018054600181600116156101000203166002900480601f0160208091040260200160405190810160405280929190818152602001828054600181600116156101000203166002900480156106515780601f1061062657610100808354040283529160200191610651565b820191906000526020600020905b81548152906001019060200180831161063457829003601f168201915b50505050508152505081526020019060010190610581565b505050509050919050565b61067c612b7e565b73ffffffffffffffffffffffffffffffffffffffff1660008054906101000a900473ffffffffffffffffffffffffffffffffffffffff1673ffffffffffffffffffffffffffffffffffffffff1614610709576040517f08c379a000000000000000000000000000000000000000000000000000000000815260040161070090613eb7565b60405180910390fd5b6107138282612b86565b5050565b61071f612b7e565b73ffffffffffffffffffffffffffffffffffffffff1660008054906101000a900473ffffffffffffffffffffffffffffffffffffffff1673ffffffffffffffffffffffffffffffffffffffff16146107ac576040517f08c379a00000000000000000000000000000000000000000000000000000000081526004016107a390613eb7565b60405180910390fd5b6004819080600181540180825580915050600190039060005260206000200160009091909190916101000a81548173ffffffffffffffffffffffffffffffffffffffff021916908373ffffffffffffffffffffffffffffffffffffffff16021790555050565b60085481565b600260009054906101000a900473ffffffffffffffffffffffffffffffffffffffff1681565b806005818154811061084c57fe5b906000526020600020906006020160000154421015801561088b57506005818154811061087557fe5b9060005260206000209060060201600101544211155b61089457600080fd5b600260009054906101000a900473ffffffffffffffffffffffffffffffffffffffff1673ffffffffffffffffffffffffffffffffffffffff163373ffffffffffffffffffffffffffffffffffffffff161415610925576040517f08c379a000000000000000000000000000000000000000000000000000000000815260040161091c90613e37565b60405180910390fd5b60028081111561093157fe5b6005838154811061093e57fe5b906000526020600020906006020160030160019054906101000a900460ff16600281111561096857fe5b146109a8576040517f08c379a000000000000000000000000000000000000000000000000000000000815260040161099f90613dd7565b60405180910390fd5b6000600583815481106109b757fe5b906000526020600020906006020160050160003373ffffffffffffffffffffffffffffffffffffffff1673ffffffffffffffffffffffffffffffffffffffff1681526020019081526020016000205414610a46576040517f08c379a0000000000000000000000000000000000000000000000000000000008152600401610a3d90613f37565b60405180910390fd5b6000610a5233846120b1565b90506000610a7d600a610a6f600385612ca490919063ffffffff16565b612d1490919063ffffffff16565b9050610a9482600754612b3490919063ffffffff16565b6007819055508160058581548110610aa857fe5b906000526020600020906006020160050160003373ffffffffffffffffffffffffffffffffffffffff1673ffffffffffffffffffffffffffffffffffffffff16815260200190815260200160002081905550600160009054906101000a900473ffffffffffffffffffffffffffffffffffffffff1673ffffffffffffffffffffffffffffffffffffffff1663a9059cbb33846040518363ffffffff1660e01b8152600401610b57929190613c91565b602060405180830381600087803b158015610b7157600080fd5b505af1158015610b85573d6000803e3d6000fd5b505050506040513d601f19601f82011682018060405250810190610ba9919061334d565b50600160009054906101000a900473ffffffffffffffffffffffffffffffffffffffff1673ffffffffffffffffffffffffffffffffffffffff166342966c68826040518263ffffffff1660e01b8152600401610c059190613f57565b600060405180830381600087803b158015610c1f57600080fd5b505af1158015610c33573d6000803e3d6000fd5b5050505050505050565b60048181548110610c4a57fe5b906000526020600020016000915054906101000a900473ffffffffffffffffffffffffffffffffffffffff1681565b600160009054906101000a900473ffffffffffffffffffffffffffffffffffffffff1681565b610ca7612b7e565b73ffffffffffffffffffffffffffffffffffffffff1660008054906101000a900473ffffffffffffffffffffffffffffffffffffffff1673ffffffffffffffffffffffffffffffffffffffff1614610d34576040517f08c379a0000000000000000000000000000000000000000000000000000000008152600401610d2b90613eb7565b60405180910390fd5b600073ffffffffffffffffffffffffffffffffffffffff1660008054906101000a900473ffffffffffffffffffffffffffffffffffffffff1673ffffffffffffffffffffffffffffffffffffffff167f8be0079c531659141344cd1fd0a4f28419497f9722a3daafe3b4186f6b6457e060405160405180910390a360008060006101000a81548173ffffffffffffffffffffffffffffffffffffffff021916908373ffffffffffffffffffffffffffffffffffffffff160217905550565b600260009054906101000a900473ffffffffffffffffffffffffffffffffffffffff1673ffffffffffffffffffffffffffffffffffffffff163373ffffffffffffffffffffffffffffffffffffffff161415610e83576040517f08c379a0000000000000000000000000000000000000000000000000000000008152600401610e7a90613e37565b60405180910390fd5b600060058281548110610e9257fe5b906000526020600020906006020160040160008573ffffffffffffffffffffffffffffffffffffffff1673ffffffffffffffffffffffffffffffffffffffff16815260200190815260200160002060003373ffffffffffffffffffffffffffffffffffffffff1673ffffffffffffffffffffffffffffffffffffffff1681526020019081526020016000205411610f5e576040517f08c379a0000000000000000000000000000000000000000000000000000000008152600401610f5590613e57565b60405180910390fd5b610f6783612d5e565b610fa6576040517f08c379a0000000000000000000000000000000000000000000000000000000008152600401610f9d90613ef7565b60405180910390fd5b8273ffffffffffffffffffffffffffffffffffffffff166323b872dd3330856040518463ffffffff1660e01b8152600401610fe393929190613c5a565b602060405180830381600087803b158015610ffd57600080fd5b505af1158015611011573d6000803e3d6000fd5b505050506040513d601f19601f82011682018060405250810190611035919061334d565b506110e1826005838154811061104757fe5b906000526020600020906006020160040160008673ffffffffffffffffffffffffffffffffffffffff1673ffffffffffffffffffffffffffffffffffffffff16815260200190815260200160002060003373ffffffffffffffffffffffffffffffffffffffff1673ffffffffffffffffffffffffffffffffffffffff16815260200190815260200160002054612e0090919063ffffffff16565b600582815481106110ee57fe5b906000526020600020906006020160040160008573ffffffffffffffffffffffffffffffffffffffff1673ffffffffffffffffffffffffffffffffffffffff16815260200190815260200160002060003373ffffffffffffffffffffffffffffffffffffffff1673ffffffffffffffffffffffffffffffffffffffff1681526020019081526020016000208190555061119282600754612e0090919063ffffffff16565b6007819055506000600582815481106111a757fe5b906000526020600020906006020160040160008573ffffffffffffffffffffffffffffffffffffffff1673ffffffffffffffffffffffffffffffffffffffff16815260200190815260200160002060003373ffffffffffffffffffffffffffffffffffffffff1673ffffffffffffffffffffffffffffffffffffffff168152602001908152602001600020549050600061126d6003805490506005858154811061124d57fe5b906000526020600020906006020160020154612d1490919063ffffffff16565b905060006005848154811061127e57fe5b906000526020600020906006020160040160008773ffffffffffffffffffffffffffffffffffffffff1673ffffffffffffffffffffffffffffffffffffffff16815260200190815260200160002060003373ffffffffffffffffffffffffffffffffffffffff1673ffffffffffffffffffffffffffffffffffffffff1681526020019081526020016000208190555061132282600754612b3490919063ffffffff16565b600781905550600160009054906101000a900473ffffffffffffffffffffffffffffffffffffffff1673ffffffffffffffffffffffffffffffffffffffff1663a9059cbb3361137a8486612b3490919063ffffffff16565b6040518363ffffffff1660e01b8152600401611397929190613c91565b602060405180830381600087803b1580156113b157600080fd5b505af11580156113c5573d6000803e3d6000fd5b505050506040513d601f19601f820116820180604052508101906113e9919061334d565b505050505050565b600b60009054906101000a900473ffffffffffffffffffffffffffffffffffffffff1681565b60075481565b60008060009054906101000a900473ffffffffffffffffffffffffffffffffffffffff16905090565b600d602052816000526040600020818154811061145f57fe5b906000526020600020906003020160009150915050806000015490806001015490806002018054600181600116156101000203166002900480601f0160208091040260200160405190810160405280929190818152602001828054600181600116156101000203166002900480156115185780601f106114ed57610100808354040283529160200191611518565b820191906000526020600020905b8154815290600101906020018083116114fb57829003601f168201915b5050505050905083565b806005818154811061153057fe5b906000526020600020906006020160000154421015801561156f57506005818154811061155957fe5b9060005260206000209060060201600101544211155b61157857600080fd5b600260009054906101000a900473ffffffffffffffffffffffffffffffffffffffff1673ffffffffffffffffffffffffffffffffffffffff163373ffffffffffffffffffffffffffffffffffffffff1614611608576040517f08c379a00000000000000000000000000000000000000000000000000000000081526004016115ff90613f17565b60405180910390fd5b6001600281111561161557fe5b6005838154811061162257fe5b906000526020600020906006020160030160019054906101000a900460ff16600281111561164c57fe5b1461168c576040517f08c379a000000000000000000000000000000000000000000000000000000000815260040161168390613db7565b60405180910390fd5b6005828154811061169957fe5b906000526020600020906006020160030160009054906101000a900460ff16156116f8576040517f08c379a00000000000000000000000000000000000000000000000000000000081526004016116ef90613e77565b60405180910390fd5b6000611714600580549050600754612d1490919063ffffffff16565b9050600061173f600a611731600385612ca490919063ffffffff16565b612d1490919063ffffffff16565b905061175682600754612b3490919063ffffffff16565b600781905550816005858154811061176a57fe5b90600052602060002090600602016002018190555060016005858154811061178e57fe5b906000526020600020906006020160030160006101000a81548160ff021916908315150217905550600160009054906101000a900473ffffffffffffffffffffffffffffffffffffffff1673ffffffffffffffffffffffffffffffffffffffff1663a9059cbb33846040518363ffffffff1660e01b8152600401611813929190613c91565b602060405180830381600087803b15801561182d57600080fd5b505af1158015611841573d6000803e3d6000fd5b505050506040513d601f19601f82011682018060405250810190611865919061334d565b50600160009054906101000a900473ffffffffffffffffffffffffffffffffffffffff1673ffffffffffffffffffffffffffffffffffffffff166342966c68826040518263ffffffff1660e01b81526004016118c19190613f57565b600060405180830381600087803b1580156118db57600080fd5b505af11580156118ef573d6000803e3d6000fd5b5050505050505050565b600c6020528060005260406000206000915054906101000a900473ffffffffffffffffffffffffffffffffffffffff1681565b60066020528060005260406000206000915090505481565b600a8054600181600116156101000203166002900480601f0160208091040260200160405190810160405280929190818152602001828054600181600116156101000203166002900480156119da5780601f106119af576101008083540402835291602001916119da565b820191906000526020600020905b8154815290600101906020018083116119bd57829003601f168201915b505050505081565b60008311611a25576040517f08c379a0000000000000000000000000000000000000000000000000000000008152600401611a1c90613ed7565b60405180910390fd5b611a2e82612d5e565b611a6d576040517f08c379a0000000000000000000000000000000000000000000000000000000008152600401611a6490613ef7565b60405180910390fd5b611a78338383612e55565b8173ffffffffffffffffffffffffffffffffffffffff166323b872dd3330866040518463ffffffff1660e01b8152600401611ab593929190613c5a565b602060405180830381600087803b158015611acf57600080fd5b505af1158015611ae3573d6000803e3d6000fd5b505050506040513d601f19601f82011682018060405250810190611b07919061334d565b50611bb38360058381548110611b1957fe5b906000526020600020906006020160040160008573ffffffffffffffffffffffffffffffffffffffff1673ffffffffffffffffffffffffffffffffffffffff16815260200190815260200160002060003373ffffffffffffffffffffffffffffffffffffffff1673ffffffffffffffffffffffffffffffffffffffff16815260200190815260200160002054612e0090919063ffffffff16565b60058281548110611bc057fe5b906000526020600020906006020160040160008473ffffffffffffffffffffffffffffffffffffffff1673ffffffffffffffffffffffffffffffffffffffff16815260200190815260200160002060003373ffffffffffffffffffffffffffffffffffffffff1673ffffffffffffffffffffffffffffffffffffffff16815260200190815260200160002081905550611c6483600754612e0090919063ffffffff16565b6007819055506001600660003373ffffffffffffffffffffffffffffffffffffffff1673ffffffffffffffffffffffffffffffffffffffff168152602001908152602001600020541415611d16576003339080600181540180825580915050600190039060005260206000200160009091909190916101000a81548173ffffffffffffffffffffffffffffffffffffffff021916908373ffffffffffffffffffffffffffffffffffffffff1602179055505b505050565b600b60009054906101000a900473ffffffffffffffffffffffffffffffffffffffff1673ffffffffffffffffffffffffffffffffffffffff16633cb747bf6040518163ffffffff1660e01b815260040160206040518083038186803b158015611d8357600080fd5b505afa158015611d97573d6000803e3d6000fd5b505050506040513d601f19601f82011682018060405250810190611dbb919061345b565b73ffffffffffffffffffffffffffffffffffffffff163373ffffffffffffffffffffffffffffffffffffffff1614611df257600080fd5b600d6000868152602001908152602001600020604051806060016040528042815260200186815260200185858080601f016020809104026020016040519081016040528093929190818152602001838380828437600081840152601f19601f82011690508083019250505050505050815250908060018154018082558091505060019003906000526020600020906003020160009091909190915060008201518160000155602082015181600101556040820151816002019080519060200190611ebd92919061310d565b5050507f048094af00d5b1e004ae2a3f03c2bd4897a83b5672ed2b02b7b3416b9709805c42858585604051611ef59493929190613f72565b60405180910390a1600c600086815260200190815260200160002060009054906101000a900473ffffffffffffffffffffffffffffffffffffffff1673ffffffffffffffffffffffffffffffffffffffff1663868d08f7856040518263ffffffff1660e01b8152600401611f699190613f57565b60206040518083038186803b158015611f8157600080fd5b505afa158015611f95573d6000803e3d6000fd5b505050506040513d601f19601f82011682018060405250810190611fb9919061334d565b61200257600260058281548110611fcc57fe5b906000526020600020906006020160030160016101000a81548160ff02191690836002811115611ff857fe5b0217905550612043565b60016005828154811061201157fe5b906000526020600020906006020160030160016101000a81548160ff0219169083600281111561203d57fe5b02179055505b5050505050565b6000600954905090565b6005818154811061206157fe5b90600052602060002090600602016000915090508060000154908060010154908060020154908060030160009054906101000a900460ff16908060030160019054906101000a900460ff16905085565b600080600090506000600660008673ffffffffffffffffffffffffffffffffffffffff1673ffffffffffffffffffffffffffffffffffffffff1681526020019081526020016000205411156122035760005b600480549050811015612201576121f26005858154811061212057fe5b906000526020600020906006020160040160006004848154811061214057fe5b9060005260206000200160009054906101000a900473ffffffffffffffffffffffffffffffffffffffff1673ffffffffffffffffffffffffffffffffffffffff1673ffffffffffffffffffffffffffffffffffffffff16815260200190815260200160002060008773ffffffffffffffffffffffffffffffffffffffff1673ffffffffffffffffffffffffffffffffffffffff1681526020019081526020016000205483612e0090919063ffffffff16565b91508080600101915050612103565b505b8091505092915050565b612215612b7e565b73ffffffffffffffffffffffffffffffffffffffff1660008054906101000a900473ffffffffffffffffffffffffffffffffffffffff1673ffffffffffffffffffffffffffffffffffffffff16146122a2576040517f08c379a000000000000000000000000000000000000000000000000000000000815260040161229990613eb7565b60405180910390fd5b600073ffffffffffffffffffffffffffffffffffffffff168173ffffffffffffffffffffffffffffffffffffffff161415612312576040517f08c379a000000000000000000000000000000000000000000000000000000000815260040161230990613df7565b60405180910390fd5b8073ffffffffffffffffffffffffffffffffffffffff1660008054906101000a900473ffffffffffffffffffffffffffffffffffffffff1673ffffffffffffffffffffffffffffffffffffffff167f8be0079c531659141344cd1fd0a4f28419497f9722a3daafe3b4186f6b6457e060405160405180910390a3806000806101000a81548173ffffffffffffffffffffffffffffffffffffffff021916908373ffffffffffffffffffffffffffffffffffffffff16021790555050565b600260009054906101000a900473ffffffffffffffffffffffffffffffffffffffff1673ffffffffffffffffffffffffffffffffffffffff163373ffffffffffffffffffffffffffffffffffffffff161415612460576040517f08c379a000000000000000000000000000000000000000000000000000000000815260040161245790613e37565b60405180910390fd5b60006005828154811061246f57fe5b906000526020600020906006020160040160008473ffffffffffffffffffffffffffffffffffffffff1673ffffffffffffffffffffffffffffffffffffffff16815260200190815260200160002060003373ffffffffffffffffffffffffffffffffffffffff1673ffffffffffffffffffffffffffffffffffffffff168152602001908152602001600020541161253b576040517f08c379a000000000000000000000000000000000000000000000000000000000815260040161253290613e57565b60405180910390fd5b61254482612d5e565b612583576040517f08c379a000000000000000000000000000000000000000000000000000000000815260040161257a90613ef7565b60405180910390fd5b60006005828154811061259257fe5b906000526020600020906006020160040160008473ffffffffffffffffffffffffffffffffffffffff1673ffffffffffffffffffffffffffffffffffffffff16815260200190815260200160002060003373ffffffffffffffffffffffffffffffffffffffff1673ffffffffffffffffffffffffffffffffffffffff16815260200190815260200160002054905060006126586003805490506005858154811061263857fe5b906000526020600020906006020160020154612d1490919063ffffffff16565b905060006005848154811061266957fe5b906000526020600020906006020160040160008673ffffffffffffffffffffffffffffffffffffffff1673ffffffffffffffffffffffffffffffffffffffff16815260200190815260200160002060003373ffffffffffffffffffffffffffffffffffffffff1673ffffffffffffffffffffffffffffffffffffffff1681526020019081526020016000208190555061270d82600754612b3490919063ffffffff16565b6007819055508373ffffffffffffffffffffffffffffffffffffffff1663a9059cbb336127438486612b3490919063ffffffff16565b6040518363ffffffff1660e01b8152600401612760929190613c91565b602060405180830381600087803b15801561277a57600080fd5b505af115801561278e573d6000803e3d6000fd5b505050506040513d601f19601f820116820180604052508101906127b2919061334d565b506128066001600660003373ffffffffffffffffffffffffffffffffffffffff1673ffffffffffffffffffffffffffffffffffffffff16815260200190815260200160002054612b3490919063ffffffff16565b600660003373ffffffffffffffffffffffffffffffffffffffff1673ffffffffffffffffffffffffffffffffffffffff168152602001908152602001600020819055506000600660003373ffffffffffffffffffffffffffffffffffffffff1673ffffffffffffffffffffffffffffffffffffffff1681526020019081526020016000205414156128da57600061289c33612f91565b9050600381815481106128ab57fe5b9060005260206000200160006101000a81549073ffffffffffffffffffffffffffffffffffffffff0219169055505b50505050565b6000606060006060806060600e8054905067ffffffffffffffff8111801561290757600080fd5b506040519080825280602002602001820160405280156129365781602001602082028036833780820191505090505b50905060005b600e805490508110156129e757600c6000600e838154811061295a57fe5b9060005260206000200154815260200190815260200160002060009054906101000a900473ffffffffffffffffffffffffffffffffffffffff168282815181106129a057fe5b602002602001019073ffffffffffffffffffffffffffffffffffffffff16908173ffffffffffffffffffffffffffffffffffffffff1681525050808060010191505061293c565b506129f061141d565b600a600854600e84838054600181600116156101000203166002900480601f016020809104026020016040519081016040528092919081815260200182805460018160011615610100020316600290048015612a8d5780601f10612a6257610100808354040283529160200191612a8d565b820191906000526020600020905b815481529060010190602001808311612a7057829003601f168201915b5050505050935081805480602002602001604051908101604052809291908181526020018280548015612adf57602002820191906000526020600020905b815481526020019060010190808311612acb575b5050505050915095509550955095509550509091929394565b60038181548110612b0557fe5b906000526020600020016000915054906101000a900473ffffffffffffffffffffffffffffffffffffffff1681565b6000612b7683836040518060400160405280601e81526020017f536166654d6174683a207375627472616374696f6e206f766572666c6f770000815250613051565b905092915050565b600033905090565b612b8e61318d565b8281600001818152505081816020018181525050600081608001906002811115612bb457fe5b90816002811115612bc157fe5b81525050600581908060018154018082558091505060019003906000526020600020906006020160009091909190915060008201518160000155602082015181600101556040820151816002015560608201518160030160006101000a81548160ff02191690831515021790555060808201518160030160016101000a81548160ff02191690836002811115612c5357fe5b02179055505050612c736001600580549050612b3490919063ffffffff16565b7ff791e873e3b67fe74b29aeede7bcbbdaa59c4b64e542571183cd837aa56f6ac960405160405180910390a2505050565b600080831415612cb75760009050612d0e565b6000828402905082848281612cc857fe5b0414612d09576040517f08c379a0000000000000000000000000000000000000000000000000000000008152600401612d0090613e97565b60405180910390fd5b809150505b92915050565b6000612d5683836040518060400160405280601a81526020017f536166654d6174683a206469766973696f6e206279207a65726f0000000000008152506130ac565b905092915050565b600080600090505b600480549050811015612df5578273ffffffffffffffffffffffffffffffffffffffff1660048281548110612d9757fe5b9060005260206000200160009054906101000a900473ffffffffffffffffffffffffffffffffffffffff1673ffffffffffffffffffffffffffffffffffffffff161415612de8576001915050612dfb565b8080600101915050612d66565b50600090505b919050565b600080828401905083811015612e4b576040517f08c379a0000000000000000000000000000000000000000000000000000000008152600401612e4290613e17565b60405180910390fd5b8091505092915050565b600060058281548110612e6457fe5b906000526020600020906006020160040160008473ffffffffffffffffffffffffffffffffffffffff1673ffffffffffffffffffffffffffffffffffffffff16815260200190815260200160002060008573ffffffffffffffffffffffffffffffffffffffff1673ffffffffffffffffffffffffffffffffffffffff1681526020019081526020016000205411612f8c57612f486001600660008673ffffffffffffffffffffffffffffffffffffffff1673ffffffffffffffffffffffffffffffffffffffff16815260200190815260200160002054612e0090919063ffffffff16565b600660008573ffffffffffffffffffffffffffffffffffffffff1673ffffffffffffffffffffffffffffffffffffffff168152602001908152602001600020819055505b505050565b600080600090505b600380549050811015613027578273ffffffffffffffffffffffffffffffffffffffff1660038281548110612fca57fe5b9060005260206000200160009054906101000a900473ffffffffffffffffffffffffffffffffffffffff1673ffffffffffffffffffffffffffffffffffffffff16141561301a578091505061304c565b8080600101915050612f99565b507fffffffffffffffffffffffffffffffffffffffffffffffffffffffffffffffff90505b919050565b6000838311158290613099576040517f08c379a00000000000000000000000000000000000000000000000000000000081526004016130909190613d95565b60405180910390fd5b5060008385039050809150509392505050565b600080831182906130f3576040517f08c379a00000000000000000000000000000000000000000000000000000000081526004016130ea9190613d95565b60405180910390fd5b5060008385816130ff57fe5b049050809150509392505050565b828054600181600116156101000203166002900490600052602060002090601f016020900481019282601f1061314e57805160ff191683800117855561317c565b8280016001018555821561317c579182015b8281111561317b578251825591602001919060010190613160565b5b50905061318991906131c9565b5090565b6040518060a00160405280600081526020016000815260200160008152602001600015158152602001600060028111156131c357fe5b81525090565b5b808211156131e25760008160009055506001016131ca565b5090565b6000813590506131f5816142a6565b92915050565b60008151905061320a816142bd565b92915050565b60008135905061321f816142d4565b92915050565b600081519050613234816142eb565b92915050565b60008083601f84011261324c57600080fd5b8235905067ffffffffffffffff81111561326557600080fd5b60208301915083600182028301111561327d57600080fd5b9250929050565b60008135905061329381614302565b92915050565b6000602082840312156132ab57600080fd5b60006132b9848285016131e6565b91505092915050565b600080604083850312156132d557600080fd5b60006132e3858286016131e6565b92505060206132f485828601613284565b9150509250929050565b60008060006060848603121561331357600080fd5b6000613321868287016131e6565b935050602061333286828701613284565b925050604061334386828701613284565b9150509250925092565b60006020828403121561335f57600080fd5b600061336d848285016131fb565b91505092915050565b60006020828403121561338857600080fd5b600061339684828501613210565b91505092915050565b600080604083850312156133b257600080fd5b60006133c085828601613210565b92505060206133d185828601613284565b9150509250929050565b6000806000806000608086880312156133f357600080fd5b600061340188828901613210565b955050602061341288828901613284565b945050604086013567ffffffffffffffff81111561342f57600080fd5b61343b8882890161323a565b9350935050606061344e88828901613284565b9150509295509295909350565b60006020828403121561346d57600080fd5b600061347b84828501613225565b91505092915050565b60006020828403121561349657600080fd5b60006134a484828501613284565b91505092915050565b6000806000606084860312156134c257600080fd5b60006134d086828701613284565b93505060206134e1868287016131e6565b92505060406134f286828701613284565b9150509250925092565b6000806040838503121561350f57600080fd5b600061351d85828601613284565b925050602061352e85828601613284565b9150509250929050565b600061354483836136da565b60208301905092915050565b600061355c83836136f8565b60208301905092915050565b60006135748383613bd1565b905092915050565b61358581614192565b82525050565b6135948161411b565b82525050565b60006135a582614073565b6135af81856140d7565b93506135ba83614043565b8060005b838110156135eb5781516135d28882613538565b97506135dd8361409f565b9250506001810190506135be565b5085935050505092915050565b60006136038261407e565b61360d81856140c6565b935061361883614053565b8060005b838110156136495781516136308882613550565b975061363b836140ac565b92505060018101905061361c565b5085935050505092915050565b600061366182614089565b61366b81856140e8565b93508360208202850161367d85614063565b8060005b858110156136b9578484038952815161369a8582613568565b94506136a5836140b9565b925060208a01995050600181019050613681565b50829750879550505050505092915050565b6136d48161412d565b82525050565b6136e381614139565b82525050565b6136f2816141a4565b82525050565b613701816141c8565b82525050565b613710816141c8565b82525050565b61371f816141ec565b82525050565b61372e81614210565b82525050565b6000613740838561410a565b935061374d838584614246565b61375683614288565b840190509392505050565b600061376c82614094565b61377681856140f9565b9350613786818560208601614255565b61378f81614288565b840191505092915050565b60006137a582614094565b6137af818561410a565b93506137bf818560208601614255565b6137c881614288565b840191505092915050565b60006137e060138361410a565b91507f534c41206e6f74207265737065637465642021000000000000000000000000006000830152602082019050919050565b6000613820600f8361410a565b91507f534c4120726573706563746564202100000000000000000000000000000000006000830152602082019050919050565b600061386060268361410a565b91507f4f776e61626c653a206e6577206f776e657220697320746865207a65726f206160008301527f64647265737300000000000000000000000000000000000000000000000000006020830152604082019050919050565b60006138c6601b8361410a565b91507f536166654d6174683a206164646974696f6e206f766572666c6f7700000000006000830152602082019050919050565b600061390660158361410a565b91507f596f752061726520612076616c696461746f72202100000000000000000000006000830152602082019050919050565b6000613946601b8361410a565b91507f7374616b696e672062616c616e63652063616e6e6f74206265203000000000006000830152602082019050919050565b600061398660368361410a565b91507f596f75206861766520616c726561647920636c61696d656420796f757220726560008301527f7761726420666f72207468697320706572696f642021000000000000000000006020830152604082019050919050565b60006139ec60218361410a565b91507f536166654d6174683a206d756c7469706c69636174696f6e206f766572666c6f60008301527f77000000000000000000000000000000000000000000000000000000000000006020830152604082019050919050565b6000613a5260208361410a565b91507f4f776e61626c653a2063616c6c6572206973206e6f7420746865206f776e65726000830152602082019050919050565b6000613a9260128361410a565b91507f616d6f756e742063616e6e6f74206265203000000000000000000000000000006000830152602082019050919050565b6000613ad260268361410a565b91507f746f6b656e2073686f756c64206265206175746f726973656420746f2062652060008301527f7374616b656400000000000000000000000000000000000000000000000000006020830152604082019050919050565b6000613b3860198361410a565b91507f596f7520617265206e6f7420612076616c696461746f722021000000000000006000830152602082019050919050565b6000613b78603c8361410a565b91507f596f75206861766520616c726561647920636c61696d656420796f757220636f60008301527f6d70656e736174696f6e20666f72207468697320706572696f642021000000006020830152604082019050919050565b6000606083016000830151613be96000860182613c21565b506020830151613bfc6020860182613c21565b5060408301518482036040860152613c148282613761565b9150508091505092915050565b613c2a81614188565b82525050565b613c3981614188565b82525050565b6000602082019050613c54600083018461358b565b92915050565b6000606082019050613c6f600083018661357c565b613c7c602083018561358b565b613c896040830184613c30565b949350505050565b6000604082019050613ca6600083018561357c565b613cb36020830184613c30565b9392505050565b600060a082019050613ccf600083018861358b565b8181036020830152613ce1818761379a565b9050613cf06040830186613c30565b8181036060830152613d02818561359a565b90508181036080830152613d1681846135f8565b90509695505050505050565b60006020820190508181036000830152613d3c8184613656565b905092915050565b6000602082019050613d5960008301846136e9565b92915050565b6000602082019050613d746000830184613707565b92915050565b6000602082019050613d8f6000830184613716565b92915050565b60006020820190508181036000830152613daf818461379a565b905092915050565b60006020820190508181036000830152613dd0816137d3565b9050919050565b60006020820190508181036000830152613df081613813565b9050919050565b60006020820190508181036000830152613e1081613853565b9050919050565b60006020820190508181036000830152613e30816138b9565b9050919050565b60006020820190508181036000830152613e50816138f9565b9050919050565b60006020820190508181036000830152613e7081613939565b9050919050565b60006020820190508181036000830152613e9081613979565b9050919050565b60006020820190508181036000830152613eb0816139df565b9050919050565b60006020820190508181036000830152613ed081613a45565b9050919050565b60006020820190508181036000830152613ef081613a85565b9050919050565b60006020820190508181036000830152613f1081613ac5565b9050919050565b60006020820190508181036000830152613f3081613b2b565b9050919050565b60006020820190508181036000830152613f5081613b6b565b9050919050565b6000602082019050613f6c6000830184613c30565b92915050565b6000606082019050613f876000830187613c30565b613f946020830186613c30565b8181036040830152613fa7818486613734565b905095945050505050565b6000606082019050613fc76000830186613c30565b613fd46020830185613c30565b8181036040830152613fe6818461379a565b9050949350505050565b600060a0820190506140056000830188613c30565b6140126020830187613c30565b61401f6040830186613c30565b61402c60608301856136cb565b6140396080830184613725565b9695505050505050565b6000819050602082019050919050565b6000819050602082019050919050565b6000819050602082019050919050565b600081519050919050565b600081519050919050565b600081519050919050565b600081519050919050565b6000602082019050919050565b6000602082019050919050565b6000602082019050919050565b600082825260208201905092915050565b600082825260208201905092915050565b600082825260208201905092915050565b600082825260208201905092915050565b600082825260208201905092915050565b600061412682614168565b9050919050565b60008115159050919050565b6000819050919050565b600061414e8261411b565b9050919050565b600081905061416382614299565b919050565b600073ffffffffffffffffffffffffffffffffffffffff82169050919050565b6000819050919050565b600061419d82614222565b9050919050565b60006141af826141b6565b9050919050565b60006141c182614168565b9050919050565b60006141d3826141da565b9050919050565b60006141e582614168565b9050919050565b60006141f7826141fe565b9050919050565b600061420982614168565b9050919050565b600061421b82614155565b9050919050565b600061422d82614234565b9050919050565b600061423f82614168565b9050919050565b82818337600083830152505050565b60005b83811015614273578082015181840152602081019050614258565b83811115614282576000848401525b50505050565b6000601f19601f8301169050919050565b600381106142a357fe5b50565b6142af8161411b565b81146142ba57600080fd5b50565b6142c68161412d565b81146142d157600080fd5b50565b6142dd81614139565b81146142e857600080fd5b50565b6142f481614143565b81146142ff57600080fd5b50565b61430b81614188565b811461431657600080fd5b5056fea2646970667358221220b5c6fe5e516a67314bb610bf3330d41cfcedc51be50c7344d1ed88c706857ad764736f6c634300060c0033",
  "immutableReferences": {},
  "source": "// SPDX-License-Identifier: MIT\npragma solidity ^0.6.0;\npragma experimental ABIEncoderV2;\n\nimport \"@openzeppelin/contracts/access/Ownable.sol\";\nimport \"@openzeppelin/contracts/token/ERC20/IERC20.sol\";\nimport \"@openzeppelin/contracts/math/SafeMath.sol\";\nimport \"../interfaces/IMessenger.sol\";\nimport \"../Whitelist/Whitelist.sol\";\nimport \"../SLO/SLO.sol\";\nimport \"../SLARegistry.sol\";\nimport \"./Staking.sol\";\n\n/**\n * @title SLA\n * @dev SLA is a service level agreement contract used for service downtime\n * compensation\n */\ncontract SLA is Ownable, Staking {\n    using SafeMath for uint256;\n\n    // The required amount to stake when subscribing to the agreement\n    uint256 public stake;\n\n    // The time between SLI registration\n    uint256 private sliInterval;\n\n    // The ipfs hash that stores extra information about the agreement\n    string public ipfsHash;\n\n    // The address of the registry contract\n    SLARegistry public registry;\n\n    // Struct used for storing registered SLI's\n    struct SLI {\n        uint256 timestamp;\n        uint256 value;\n        string ipfsHash;\n    }\n\n    // Mapping to get SLO addresses from SLO names in bytes32\n    mapping(bytes32 => SLO) public SLOs;\n\n    // Mapping to get SLI structs from SLO names in bytes32\n    mapping(bytes32 => SLI[]) public SLIs;\n\n    // Array storing the names of the SLO's of this agreement\n    bytes32[] SLONames;\n\n    /**\n     * @dev event for SLI creation logging\n     * @param _timestamp the time the SLI has been registered\n     * @param _value the value of the SLI\n     * @param _hash the ipfs hash that stores additional info\n     */\n    event SLICreated(uint256 _timestamp, uint256 _value, string _hash);\n\n    /**\n     * @dev Throws if called by any address other than the Oraclize or\n     * messenger contract.\n     */\n    modifier onlyMessenger() {\n        require(msg.sender == address(registry.messenger()));\n        _;\n    }\n\n    /**\n     * @dev constructor\n     * @param _owner the owner of the service level agreement\n     * @param _SLONames the names of the service level objectives in a bytes32\n     * array\n     * @param _SLOs an array with the service level objective addresses\n     * @param _stake the amount required to stake when subscribing to the\n     * agreement\n     * @param _ipfsHash the ipfs hash that stores extra information about the\n     * agreement\n     */\n    constructor(\n        address _owner,\n        bytes32[] memory _SLONames,\n        SLO[] memory _SLOs,\n        uint256 _stake,\n        string memory _ipfsHash,\n        uint256 _sliInterval,\n        bDSLAToken _tokenAddress,\n        uint[] memory _sla_period_starts, \n        uint[] memory _sla_period_ends\n    ) public Staking(_tokenAddress, _sla_period_starts, _sla_period_ends) {\n        require(_SLOs.length < 5);\n        require(_SLONames.length == _SLOs.length);\n\n        for (uint256 i = 0; i < _SLOs.length; i++) {\n            SLOs[_SLONames[i]] = _SLOs[i];\n        }\n\n        transferOwnership(_owner);\n        SLONames = _SLONames;\n        stake = _stake;\n        ipfsHash = _ipfsHash;\n        registry = SLARegistry(msg.sender);\n        sliInterval = _sliInterval;\n    }\n\n    /**\n     * @dev external function to register SLI's and check them against the SLO's\n     * @param _SLOName the name of the SLO in bytes32\n     * @param _value the value of the SLI to check\n     * @param _hash the ipfs hash with additional information\n     */\n    function registerSLI(\n        bytes32 _SLOName,\n        uint256 _value,\n        string calldata _hash,\n        uint256 _period\n    ) external onlyMessenger {\n        SLIs[_SLOName].push(SLI(now, _value, _hash));\n\n        emit SLICreated(now, _value, _hash);\n\n        if (!SLOs[_SLOName].isSLOHonored(_value)) {\n            periods[_period].status = Status.NotRespected;\n        } else {\n            periods[_period].status = Status.Respected;\n        }\n    }\n\n    /**\n     * @dev external function to get SLI\n     * @param _SLOName the name of the SLO in bytes32\n     */\n    function getSLI(bytes32 _SLOName) public view returns (SLI[] memory) {\n        return SLIs[_SLOName];\n    }\n\n    /**\n     * @dev external view function that returns the sliInterval value\n     */\n    function getSliInterval() external view returns (uint256) {\n        return sliInterval;\n    }\n\n    /**\n     * @dev external view function that returns all agreement information\n     */\n\n    function getDetails()\n        external\n        view\n        returns (\n            address,\n            string memory,\n            uint256,\n            bytes32[] memory,\n            SLO[] memory\n        )\n    {\n        SLO[] memory _SLOAddresses = new SLO[](SLONames.length);\n\n        for (uint256 i = 0; i < SLONames.length; i++) {\n            _SLOAddresses[i] = SLOs[SLONames[i]];\n        }\n\n        return (owner(), ipfsHash, stake, SLONames, _SLOAddresses);\n    }\n}\n",
  "sourcePath": "/Users/wilhempujar/Development/stacktical-dsla-contracts/contracts/SLA/SLA.sol",
  "compiler": {
    "name": "solc",
    "version": "0.6.12+commit.27d51765.Emscripten.clang"
  },
  "schemaVersion": "3.2.5",
  "updatedAt": "2020-10-16T11:30:57.818Z",
  "devdoc": {
    "details": "SLA is a service level agreement contract used for service downtime compensation",
    "events": {
      "SLICreated(uint256,uint256,string)": {
        "details": "event for SLI creation logging",
        "params": {
          "_hash": "the ipfs hash that stores additional info",
          "_timestamp": "the time the SLI has been registered",
          "_value": "the value of the SLI"
        }
      }
    },
    "kind": "dev",
    "methods": {
      "constructor": {
        "details": "constructor",
        "params": {
          "_SLONames": "the names of the service level objectives in a bytes32 array",
          "_SLOs": "an array with the service level objective addresses",
          "_ipfsHash": "the ipfs hash that stores extra information about the agreement",
          "_owner": "the owner of the service level agreement",
          "_stake": "the amount required to stake when subscribing to the agreement"
        }
      },
      "getDetails()": {
        "details": "external view function that returns all agreement information"
      },
      "getSLI(bytes32)": {
        "details": "external function to get SLI",
        "params": {
          "_SLOName": "the name of the SLO in bytes32"
        }
      },
      "getSliInterval()": {
        "details": "external view function that returns the sliInterval value"
      },
      "owner()": {
        "details": "Returns the address of the current owner."
      },
      "registerSLI(bytes32,uint256,string,uint256)": {
        "details": "external function to register SLI's and check them against the SLO's",
        "params": {
          "_SLOName": "the name of the SLO in bytes32",
          "_hash": "the ipfs hash with additional information",
          "_value": "the value of the SLI to check"
        }
      },
      "renounceOwnership()": {
        "details": "Leaves the contract without owner. It will not be possible to call `onlyOwner` functions anymore. Can only be called by the current owner. NOTE: Renouncing ownership will leave the contract without an owner, thereby removing any functionality that is only available to the owner."
      },
      "transferOwnership(address)": {
        "details": "Transfers ownership of the contract to a new account (`newOwner`). Can only be called by the current owner."
      }
    },
    "title": "SLA",
    "version": 1
  },
  "userdoc": {
    "kind": "user",
    "methods": {},
    "version": 1
  }
}