{
  "contractName": "SLA",
  "abi": [
    {
      "inputs": [
        {
          "internalType": "address",
          "name": "_owner",
          "type": "address"
        },
        {
          "internalType": "contract SLO",
          "name": "_SLO",
          "type": "address"
        },
        {
          "internalType": "string",
          "name": "_ipfsHash",
          "type": "string"
        },
        {
          "internalType": "address",
          "name": "_messengerAddress",
          "type": "address"
        },
        {
          "internalType": "uint256[]",
          "name": "_periodIds",
          "type": "uint256[]"
        },
        {
          "internalType": "enum PeriodRegistry.PeriodType",
          "name": "_periodType",
          "type": "uint8"
        },
        {
          "internalType": "address",
          "name": "_stakeRegistry",
          "type": "address"
        },
        {
          "internalType": "address",
          "name": "_periodRegistry",
          "type": "address"
        },
        {
          "internalType": "bool",
          "name": "_whitelisted",
          "type": "bool"
        },
        {
          "internalType": "bytes32[]",
          "name": "_extraData",
          "type": "bytes32[]"
        },
        {
          "internalType": "uint256",
          "name": "_slaID",
          "type": "uint256"
        }
      ],
      "stateMutability": "nonpayable",
      "type": "constructor"
    },
    {
      "anonymous": false,
      "inputs": [
        {
          "indexed": true,
          "internalType": "address",
          "name": "previousOwner",
          "type": "address"
        },
        {
          "indexed": true,
          "internalType": "address",
          "name": "newOwner",
          "type": "address"
        }
      ],
      "name": "OwnershipTransferred",
      "type": "event"
    },
    {
      "anonymous": false,
      "inputs": [
        {
          "indexed": true,
          "internalType": "uint256",
          "name": "periodId",
          "type": "uint256"
        },
        {
          "indexed": true,
          "internalType": "address",
          "name": "tokenAddress",
          "type": "address"
        },
        {
          "indexed": false,
          "internalType": "uint256",
          "name": "rewardPercentage",
          "type": "uint256"
        },
        {
          "indexed": false,
          "internalType": "uint256",
          "name": "rewardPercentagePrecision",
          "type": "uint256"
        },
        {
          "indexed": false,
          "internalType": "uint256",
          "name": "rewardAmount",
          "type": "uint256"
        }
      ],
      "name": "ProviderRewardGenerated",
      "type": "event"
    },
    {
      "anonymous": false,
      "inputs": [
        {
          "indexed": false,
          "internalType": "uint256",
          "name": "_periodId",
          "type": "uint256"
        },
        {
          "indexed": false,
          "internalType": "uint256",
          "name": "_sli",
          "type": "uint256"
        }
      ],
      "name": "SLANotRespected",
      "type": "event"
    },
    {
      "anonymous": false,
      "inputs": [
        {
          "indexed": false,
          "internalType": "uint256",
          "name": "timestamp",
          "type": "uint256"
        },
        {
          "indexed": false,
          "internalType": "uint256",
          "name": "sli",
          "type": "uint256"
        },
        {
          "indexed": false,
          "internalType": "uint256",
          "name": "periodId",
          "type": "uint256"
        }
      ],
      "name": "SLICreated",
      "type": "event"
    },
    {
      "inputs": [],
      "name": "DSLAburnRate",
      "outputs": [
        {
          "internalType": "uint256",
          "name": "",
          "type": "uint256"
        }
      ],
      "stateMutability": "view",
      "type": "function"
    },
    {
      "inputs": [
        {
          "internalType": "address",
          "name": "_tokenAddress",
          "type": "address"
        }
      ],
      "name": "_claimCompensation",
      "outputs": [],
      "stateMutability": "nonpayable",
      "type": "function"
    },
    {
      "inputs": [
        {
          "internalType": "address",
          "name": "_tokenAddress",
          "type": "address"
        }
      ],
      "name": "addAllowedTokens",
      "outputs": [],
      "stateMutability": "nonpayable",
      "type": "function"
    },
    {
      "inputs": [
        {
          "internalType": "address",
          "name": "_userAddress",
          "type": "address"
        }
      ],
      "name": "addUserToWhitelist",
      "outputs": [],
      "stateMutability": "nonpayable",
      "type": "function"
    },
    {
      "inputs": [
        {
          "internalType": "uint256",
          "name": "",
          "type": "uint256"
        }
      ],
      "name": "allowedTokens",
      "outputs": [
        {
          "internalType": "address",
          "name": "",
          "type": "address"
        }
      ],
      "stateMutability": "view",
      "type": "function"
    },
    {
      "inputs": [],
      "name": "creationBlockNumber",
      "outputs": [
        {
          "internalType": "uint256",
          "name": "",
          "type": "uint256"
        }
      ],
      "stateMutability": "view",
      "type": "function"
    },
    {
      "inputs": [],
      "name": "cumulatedDevaluation",
      "outputs": [
        {
          "internalType": "uint256",
          "name": "",
          "type": "uint256"
        }
      ],
      "stateMutability": "view",
      "type": "function"
    },
    {
      "inputs": [],
      "name": "cumulatedDevaluationPrecision",
      "outputs": [
        {
          "internalType": "uint256",
          "name": "",
          "type": "uint256"
        }
      ],
      "stateMutability": "view",
      "type": "function"
    },
    {
      "inputs": [
        {
          "internalType": "address",
          "name": "",
          "type": "address"
        }
      ],
      "name": "dpTokenRegistry",
      "outputs": [
        {
          "internalType": "contract ERC20PresetMinterPauser",
          "name": "",
          "type": "address"
        }
      ],
      "stateMutability": "view",
      "type": "function"
    },
    {
      "inputs": [],
      "name": "dslaTokenAddress",
      "outputs": [
        {
          "internalType": "address",
          "name": "",
          "type": "address"
        }
      ],
      "stateMutability": "view",
      "type": "function"
    },
    {
      "inputs": [
        {
          "internalType": "address",
          "name": "",
          "type": "address"
        }
      ],
      "name": "duTokenRegistry",
      "outputs": [
        {
          "internalType": "contract ERC20PresetMinterPauser",
          "name": "",
          "type": "address"
        }
      ],
      "stateMutability": "view",
      "type": "function"
    },
    {
      "inputs": [
        {
          "internalType": "uint256",
          "name": "",
          "type": "uint256"
        }
      ],
      "name": "extraData",
      "outputs": [
        {
          "internalType": "bytes32",
          "name": "",
          "type": "bytes32"
        }
      ],
      "stateMutability": "view",
      "type": "function"
    },
    {
      "inputs": [],
      "name": "getAllowedTokensLength",
      "outputs": [
        {
          "internalType": "uint256",
          "name": "",
          "type": "uint256"
        }
      ],
      "stateMutability": "view",
      "type": "function"
    },
    {
      "inputs": [
        {
          "internalType": "address",
          "name": "_staker",
          "type": "address"
        },
        {
          "internalType": "uint256",
          "name": "_allowedTokenIndex",
          "type": "uint256"
        }
      ],
      "name": "getTokenStake",
      "outputs": [
        {
          "internalType": "address",
          "name": "tokenAddress",
          "type": "address"
        },
        {
          "internalType": "uint256",
          "name": "stake",
          "type": "uint256"
        }
      ],
      "stateMutability": "view",
      "type": "function"
    },
    {
      "inputs": [],
      "name": "ipfsHash",
      "outputs": [
        {
          "internalType": "string",
          "name": "",
          "type": "string"
        }
      ],
      "stateMutability": "view",
      "type": "function"
    },
    {
      "inputs": [
        {
          "internalType": "address",
          "name": "_tokenAddress",
          "type": "address"
        }
      ],
      "name": "isAllowedToken",
      "outputs": [
        {
          "internalType": "bool",
          "name": "",
          "type": "bool"
        }
      ],
      "stateMutability": "view",
      "type": "function"
    },
    {
      "inputs": [
        {
          "internalType": "address",
          "name": "_staker",
          "type": "address"
        }
      ],
      "name": "isStaker",
      "outputs": [
        {
          "internalType": "bool",
          "name": "",
          "type": "bool"
        }
      ],
      "stateMutability": "view",
      "type": "function"
    },
    {
      "inputs": [],
      "name": "messengerAddress",
      "outputs": [
        {
          "internalType": "address",
          "name": "",
          "type": "address"
        }
      ],
      "stateMutability": "view",
      "type": "function"
    },
    {
      "inputs": [],
      "name": "nextVerifiablePeriod",
      "outputs": [
        {
          "internalType": "uint256",
          "name": "",
          "type": "uint256"
        }
      ],
      "stateMutability": "view",
      "type": "function"
    },
    {
      "inputs": [],
      "name": "owner",
      "outputs": [
        {
          "internalType": "address",
          "name": "",
          "type": "address"
        }
      ],
      "stateMutability": "view",
      "type": "function"
    },
    {
      "inputs": [
        {
          "internalType": "uint256",
          "name": "",
          "type": "uint256"
        }
      ],
      "name": "periodIds",
      "outputs": [
        {
          "internalType": "uint256",
          "name": "",
          "type": "uint256"
        }
      ],
      "stateMutability": "view",
      "type": "function"
    },
    {
      "inputs": [],
      "name": "periodRegistry",
      "outputs": [
        {
          "internalType": "contract PeriodRegistry",
          "name": "",
          "type": "address"
        }
      ],
      "stateMutability": "view",
      "type": "function"
    },
    {
      "inputs": [
        {
          "internalType": "uint256",
          "name": "",
          "type": "uint256"
        }
      ],
      "name": "periodSLIs",
      "outputs": [
        {
          "internalType": "uint256",
          "name": "timestamp",
          "type": "uint256"
        },
        {
          "internalType": "uint256",
          "name": "sli",
          "type": "uint256"
        },
        {
          "internalType": "enum SLA.Status",
          "name": "status",
          "type": "uint8"
        }
      ],
      "stateMutability": "view",
      "type": "function"
    },
    {
      "inputs": [],
      "name": "periodType",
      "outputs": [
        {
          "internalType": "enum PeriodRegistry.PeriodType",
          "name": "",
          "type": "uint8"
        }
      ],
      "stateMutability": "view",
      "type": "function"
    },
    {
      "inputs": [
        {
          "internalType": "address",
          "name": "",
          "type": "address"
        }
      ],
      "name": "providerPool",
      "outputs": [
        {
          "internalType": "uint256",
          "name": "",
          "type": "uint256"
        }
      ],
      "stateMutability": "view",
      "type": "function"
    },
    {
      "inputs": [
        {
          "internalType": "address",
          "name": "_userAddress",
          "type": "address"
        }
      ],
      "name": "removeUserFromWhitelist",
      "outputs": [],
      "stateMutability": "nonpayable",
      "type": "function"
    },
    {
      "inputs": [],
      "name": "renounceOwnership",
      "outputs": [],
      "stateMutability": "nonpayable",
      "type": "function"
    },
    {
      "inputs": [],
      "name": "slaID",
      "outputs": [
        {
          "internalType": "uint256",
          "name": "",
          "type": "uint256"
        }
      ],
      "stateMutability": "view",
      "type": "function"
    },
    {
      "inputs": [],
      "name": "slaPeriodsLength",
      "outputs": [
        {
          "internalType": "uint256",
          "name": "",
          "type": "uint256"
        }
      ],
      "stateMutability": "view",
      "type": "function"
    },
    {
      "inputs": [],
      "name": "slaRegistry",
      "outputs": [
        {
          "internalType": "contract SLARegistry",
          "name": "",
          "type": "address"
        }
      ],
      "stateMutability": "view",
      "type": "function"
    },
    {
      "inputs": [],
      "name": "slo",
      "outputs": [
        {
          "internalType": "contract SLO",
          "name": "",
          "type": "address"
        }
      ],
      "stateMutability": "view",
      "type": "function"
    },
    {
      "inputs": [
        {
          "internalType": "uint256",
          "name": "",
          "type": "uint256"
        }
      ],
      "name": "stakers",
      "outputs": [
        {
          "internalType": "address",
          "name": "",
          "type": "address"
        }
      ],
      "stateMutability": "view",
      "type": "function"
    },
    {
      "inputs": [
        {
          "internalType": "address",
          "name": "newOwner",
          "type": "address"
        }
      ],
      "name": "transferOwnership",
      "outputs": [],
      "stateMutability": "nonpayable",
      "type": "function"
    },
    {
      "inputs": [
        {
          "internalType": "address",
          "name": "",
          "type": "address"
        }
      ],
      "name": "usersPool",
      "outputs": [
        {
          "internalType": "uint256",
          "name": "",
          "type": "uint256"
        }
      ],
      "stateMutability": "view",
      "type": "function"
    },
    {
      "inputs": [
        {
          "internalType": "address",
          "name": "",
          "type": "address"
        }
      ],
      "name": "whitelist",
      "outputs": [
        {
          "internalType": "bool",
          "name": "",
          "type": "bool"
        }
      ],
      "stateMutability": "view",
      "type": "function"
    },
    {
      "inputs": [],
      "name": "whitelistedContract",
      "outputs": [
        {
          "internalType": "bool",
          "name": "",
          "type": "bool"
        }
      ],
      "stateMutability": "view",
      "type": "function"
    },
    {
      "inputs": [
        {
          "internalType": "uint256",
          "name": "_sli",
          "type": "uint256"
        },
        {
          "internalType": "uint256",
          "name": "_periodId",
          "type": "uint256"
        }
      ],
      "name": "registerSLI",
      "outputs": [],
      "stateMutability": "nonpayable",
      "type": "function"
    },
    {
      "inputs": [
        {
          "internalType": "uint256",
          "name": "_periodId",
          "type": "uint256"
        }
      ],
      "name": "isAllowedPeriod",
      "outputs": [
        {
          "internalType": "bool",
          "name": "",
          "type": "bool"
        }
      ],
      "stateMutability": "view",
      "type": "function"
    },
    {
      "inputs": [
        {
          "internalType": "uint256",
          "name": "_amount",
          "type": "uint256"
        },
        {
          "internalType": "address",
          "name": "_token",
          "type": "address"
        }
      ],
      "name": "stakeTokens",
      "outputs": [],
      "stateMutability": "nonpayable",
      "type": "function"
    },
    {
      "inputs": [
        {
          "internalType": "uint256",
          "name": "_amount",
          "type": "uint256"
        },
        {
          "internalType": "address",
          "name": "_tokenAddress",
          "type": "address"
        }
      ],
      "name": "withdrawStakedTokens",
      "outputs": [],
      "stateMutability": "nonpayable",
      "type": "function"
    },
    {
      "inputs": [
        {
          "internalType": "address",
          "name": "_tokenAddress",
          "type": "address"
        }
      ],
      "name": "claimUserCompensation",
      "outputs": [],
      "stateMutability": "nonpayable",
      "type": "function"
    },
    {
      "inputs": [],
      "name": "getPeriodIdsLength",
      "outputs": [
        {
          "internalType": "uint256",
          "name": "",
          "type": "uint256"
        }
      ],
      "stateMutability": "view",
      "type": "function"
    },
    {
      "inputs": [],
      "name": "getStakersLength",
      "outputs": [
        {
          "internalType": "uint256",
          "name": "",
          "type": "uint256"
        }
      ],
      "stateMutability": "view",
      "type": "function"
    },
    {
      "inputs": [],
      "name": "breachedContract",
      "outputs": [
        {
          "internalType": "bool",
          "name": "",
          "type": "bool"
        }
      ],
      "stateMutability": "view",
      "type": "function"
    }
  ],
  "bytecode": "0x6080604052620f424060088190556009556017805460ff60a01b191690553480156200002a57600080fd5b506040516200391a3803806200391a8339810160408190526200004d91620006cb565b848487895186856000620000666200033f60201b60201c565b600080546001600160a01b0319166001600160a01b038316908117825560405192935091600080516020620038fa833981519152908290a350600180546001600160a01b038089166001600160a01b03199283161783556002805491891691909216179055600e8054869260ff1990911690836005811115620000e557fe5b0217905550600f8390556010805460ff191683151517905560015460408051637b8041cf60e11b815290516000926001600160a01b03169163f700839e9160048083019260a0929190829003018186803b1580156200014357600080fd5b505afa15801562000158573d6000803e3d6000fd5b505050506040513d601f19601f820116820180604052508101906200017e9190620007fc565b505060015460408051638b8e530960e01b815290519495506001600160a01b0390911693638b8e5309935060048083019350602092829003018186803b158015620001c857600080fd5b505afa158015620001dd573d6000803e3d6000fd5b505050506040513d601f19601f82011682018060405250810190620002039190620006a5565b600b80546001600160a01b0319166001600160a01b0392909216919091179055600d819055620002333362000343565b50600355506200024a93508e925050620003e69050565b88516200025f9060139060208c019062000493565b50601780546001600160a01b03808b166001600160a01b03199283161790925560168054909116331790556014805491861661010002610100600160a81b0319909216919091179055436019558651620002c19060159060208a019062000518565b506014805487919060ff19166001836005811115620002dc57fe5b0217905550601280546001600160a01b0319166001600160a01b038c1617905581516200031190601a90602085019062000518565b50866000815181106200032057fe5b6020026020010151601b8190555050505050505050505050506200094e565b3390565b6200034d6200033f565b6000546001600160a01b03908116911614620003865760405162461bcd60e51b81526004016200037d90620008b9565b60405180910390fd5b6001600160a01b03811660009081526011602052604090205460ff1615620003c25760405162461bcd60e51b81526004016200037d906200083c565b6001600160a01b03166000908152601160205260409020805460ff19166001179055565b620003f06200033f565b6000546001600160a01b03908116911614620004205760405162461bcd60e51b81526004016200037d90620008b9565b6001600160a01b038116620004495760405162461bcd60e51b81526004016200037d9062000873565b600080546040516001600160a01b0380851693921691600080516020620038fa83398151915291a3600080546001600160a01b0319166001600160a01b0392909216919091179055565b828054600181600116156101000203166002900490600052602060002090601f016020900481019282601f10620004d657805160ff191683800117855562000506565b8280016001018555821562000506579182015b8281111562000506578251825591602001919060010190620004e9565b506200051492915062000555565b5090565b82805482825590600052602060002090810192821562000506579160200282018281111562000506578251825591602001919060010190620004e9565b5b8082111562000514576000815560010162000556565b8051620005798162000935565b92915050565b600082601f83011262000590578081fd5b8151620005a7620005a18262000915565b620008ee565b818152915060208083019084810181840286018201871015620005c957600080fd5b60005b84811015620005ea57815184529282019290820190600101620005cc565b505050505092915050565b805180151581146200057957600080fd5b8051600681106200057957600080fd5b600082601f83011262000627578081fd5b81516001600160401b038111156200063d578182fd5b602062000653601f8301601f19168201620008ee565b925081835284818386010111156200066a57600080fd5b60005b828110156200068a5784810182015184820183015281016200066d565b828111156200069c5760008284860101525b50505092915050565b600060208284031215620006b7578081fd5b8151620006c48162000935565b9392505050565b60008060008060008060008060008060006101608c8e031215620006ed578687fd5b620006f98d8d6200056c565b9a506200070a8d60208e016200056c565b60408d0151909a506001600160401b0381111562000726578788fd5b620007348e828f0162000616565b995050620007468d60608e016200056c565b60808d01519098506001600160401b0381111562000762578788fd5b620007708e828f016200057f565b975050620007828d60a08e0162000606565b9550620007938d60c08e016200056c565b9450620007a48d60e08e016200056c565b9350620007b68d6101008e01620005f5565b6101208d01519093506001600160401b03811115620007d3578283fd5b620007e18e828f016200057f565b9250506101408c015190509295989b509295989b9093969950565b600080600080600060a0868803121562000814578081fd5b5050835160208501516040860151606087015160809097015192989197509594509092509050565b60208082526018908201527f5573657220616c72656164792077686974656c69737465640000000000000000604082015260600190565b60208082526026908201527f4f776e61626c653a206e6577206f776e657220697320746865207a65726f206160408201526564647265737360d01b606082015260800190565b6020808252818101527f4f776e61626c653a2063616c6c6572206973206e6f7420746865206f776e6572604082015260600190565b6040518181016001600160401b03811182821017156200090d57600080fd5b604052919050565b60006001600160401b038211156200092b578081fd5b5060209081020190565b6001600160a01b03811681146200094b57600080fd5b50565b612f9c806200095e6000396000f3fe608060405234801561001057600080fd5b50600436106102745760003560e01c8063747b805011610151578063c623674f116100c3578063ee6226c111610087578063ee6226c1146104ee578063f2db10fe146104f6578063f2fde38b146104fe578063f7e9dfff14610511578063f9902bb114610519578063fd5e6dd11461052c57610274565b8063c623674f146104a3578063cbe230c3146104b8578063cd92890e146104cb578063d7a5c422146104d3578063db69a462146104e657610274565b80639b19251a116101155780639b19251a146104685780639fabeb001461047b5780639fc4caa514610483578063a224ee9c1461048b578063b1659bad14610493578063b7bc347e1461049b57610274565b8063747b80501461042a57806378025ec41461043d5780637fd788aa146104505780638d4f567d146104585780638da5cb5b1461046057610274565b8063484fbf2b116101ea5780635c1c20de116101ae5780635c1c20de146103d95780635e5f2e26146103e15780635fc1b5fd146103f4578063639b6fc3146103fc5780636f1e85331461040f578063715018a61461042257610274565b8063484fbf2b1461035f5780634e0c91f6146103725780634fb2647e14610392578063524f0735146103a557806357ac94f0146103b857610274565b806318e454271161023c57806318e45427146102f25780631bf30929146102fa5780631fc2cd931461030257806327cd727c146103155780634190edde1461032857806346e0fbae1461034a57610274565b8063021eef7f146102795780630ae9ea45146102a25780630bea440d146102c25780630c5160f4146102d7578063171e44ea146102df575b600080fd5b61028c6102873660046126a7565b61053f565b6040516102999190612900565b60405180910390f35b6102b56102b03660046126a7565b610589565b604051610299919061290b565b6102d56102d03660046126d7565b6105a7565b005b6102b5610708565b6102d56102ed366004612589565b61070e565b61028c610ad7565b6102b5610ae0565b6102d5610310366004612589565b610ae6565b6102d56103233660046126d7565b610d4e565b61033b6103363660046126a7565b610ead565b60405161029993929190612ee9565b610352610ed1565b6040516102999190612914565b6102b561036d366004612589565b610eda565b610385610380366004612589565b610eec565b60405161029991906128af565b6103856103a0366004612589565b610f07565b6102d56103b3366004612589565b610f22565b6103cb6103c63660046125c1565b610f2e565b6040516102999291906128c3565b6102b561110e565b6103856103ef3660046126a7565b611114565b6102b561113b565b6102b561040a366004612589565b611141565b61028c61041d366004612589565b611153565b6102d56111a5565b6102d5610438366004612589565b611224565b6102b561044b3660046126a7565b6112b6565b61028c6112c3565b6102b56112d3565b6103856112d9565b61028c610476366004612589565b6112e8565b6102b56112fd565b610385611303565b610385611317565b6102b5611326565b6102b561132c565b6104ab611332565b604051610299919061293d565b61028c6104c6366004612589565b6113c0565b610385611412565b6102d56104e1366004612706565b611421565b6103856116b3565b6102b56116c2565b6102b56116c8565b6102d561050c366004612589565b6116ce565b610385611784565b6102d5610527366004612589565b611793565b61038561053a3660046126a7565b611826565b6000805b60155481101561057e57826015828154811061055b57fe5b90600052602060002001541415610576576001915050610584565b600101610543565b50600090505b919050565b6015818154811061059657fe5b600091825260209091200154905081565b600082116105d05760405162461bcd60e51b81526004016105c790612da9565b60405180910390fd5b601754600160a01b900460ff16156105fa5760405162461bcd60e51b81526004016105c790612cfd565b6106048282611833565b60165460408051636830483560e01b815290516000926001600160a01b0316916368304835916004808301926020929190829003018186803b15801561064957600080fd5b505afa15801561065d573d6000803e3d6000fd5b505050506040513d601f19601f8201168201806040525081019061068191906125a5565b604051635948284760e11b81529091506001600160a01b0382169063b290508e906106b09033906004016128af565b602060405180830381600087803b1580156106ca57600080fd5b505af11580156106de573d6000803e3d6000fd5b505050506040513d601f19601f8201168201806040525081019061070291906125ec565b50505050565b600f5481565b610716611c13565b6000546001600160a01b039081169116146107435760405162461bcd60e51b81526004016105c790612cc8565b61074c816113c0565b156107695760405162461bcd60e51b81526004016105c790612d45565b60015460405163cbe230c360e01b81526001600160a01b039091169063cbe230c3906107999084906004016128af565b60206040518083038186803b1580156107b157600080fd5b505afa1580156107c5573d6000803e3d6000fd5b505050506040513d601f19601f820116820180604052508101906107e991906125ec565b151560011461080a5760405162461bcd60e51b81526004016105c790612aac565b600c80546001810182556000919091527fdf6966c971051c3d54ec59162606531493a51404a002842f56009d7e5cf4a8c70180546001600160a01b0319166001600160a01b03831617905560035460609061086490611c17565b90506060826001600160a01b03166395d89b416040518163ffffffff1660e01b815260040160006040518083038186803b1580156108a157600080fd5b505afa1580156108b5573d6000803e3d6000fd5b505050506040513d6000823e601f3d908101601f191682016040526108dd919081019061260c565b9050606081836040516020016108f492919061285d565b60405160208183030381529060405290506060828460405160200161091a9291906127a0565b6040516020818303038152906040529050606083856040516020016109409291906127ea565b604051602081830303815290604052905060608486604051602001610966929190612840565b60408051601f1981840301815290829052600154633350214760e11b83529092506000916001600160a01b03909116906366a0428e906109ac9088908890600401612950565b602060405180830381600087803b1580156109c657600080fd5b505af11580156109da573d6000803e3d6000fd5b505050506040513d601f19601f820116820180604052508101906109fe91906125a5565b600154604051633350214760e11b81529192506000916001600160a01b03909116906366a0428e90610a369087908790600401612950565b602060405180830381600087803b158015610a5057600080fd5b505af1158015610a64573d6000803e3d6000fd5b505050506040513d601f19601f82011682018060405250810190610a8891906125a5565b6001600160a01b03998a1660009081526007602090815260408083208054948e166001600160a01b031995861617905560069091529020805493909a1692169190911790975550505050505050565b60105460ff1681565b60195481565b610aee6112d9565b6001600160a01b0316336001600160a01b03161415610b1f5760405162461bcd60e51b81526004016105c790612e96565b60105460ff16151560011415610b63573360009081526011602052604090205460ff161515600114610b635760405162461bcd60e51b81526004016105c790612b9b565b6001600160a01b038082166000908152600660205260408082205490516370a0823160e01b815292169182906370a0823190610ba39033906004016128af565b60206040518083038186803b158015610bbb57600080fd5b505afa158015610bcf573d6000803e3d6000fd5b505050506040513d601f19601f82011682018060405250810190610bf391906126bf565b90506000826001600160a01b03166318160ddd6040518163ffffffff1660e01b815260040160206040518083038186803b158015610c3057600080fd5b505afa158015610c44573d6000803e3d6000fd5b505050506040513d601f19601f82011682018060405250810190610c6891906126bf565b905061271082610c8a5760405162461bcd60e51b81526004016105c790612b3e565b6000610ca083610c9a8685611cf2565b90611d35565b6001600160a01b03871660009081526005602052604081205491925090610ccd908490610c9a9085611cf2565b60405163079cc67960e41b81529091506001600160a01b038716906379cc679090610cfe90339089906004016128c3565b600060405180830381600087803b158015610d1857600080fd5b505af1158015610d2c573d6000803e3d6000fd5b50610d45925050506001600160a01b0388163383611d77565b50505050505050565b60008211610d6e5760405162461bcd60e51b81526004016105c790612da9565b60158054600091906000198101908110610d8457fe5b600091825260208220015460145460405160016259edcb60e01b031981529193506001600160a01b036101008204169163ffa6123591610dce9160ff909116908690600401612922565b604080518083038186803b158015610de557600080fd5b505afa158015610df9573d6000803e3d6000fd5b505050506040513d601f19601f82011682018060405250810190610e1d9190612727565b915050610e286112d9565b6001600160a01b0316336001600160a01b031614610ea357601754600160a01b900460ff16151560011480610e875750804210158015610e875750600082815260186020526040812060029081015460ff1690811115610e8457fe5b14155b610ea35760405162461bcd60e51b81526004016105c7906129b0565b6107028484611dcd565b60186020526000908152604090208054600182015460029092015490919060ff1683565b60145460ff1681565b60056020526000908152604090205481565b6006602052600090815260409020546001600160a01b031681565b6007602052600090815260409020546001600160a01b031681565b610f2b81610ae6565b50565b6000806000600c8481548110610f4057fe5b6000918252602090912001546001600160a01b03169050610f5f6112d9565b6001600160a01b0316856001600160a01b03161415610f9b576001600160a01b0381166000908152600460205260409020549092509050611107565b6001600160a01b0380821660009081526006602090815260408083205481516318160ddd60e01b8152915194169384926318160ddd9260048082019391829003018186803b158015610fec57600080fd5b505afa158015611000573d6000803e3d6000fd5b505050506040513d601f19601f8201168201806040525081019061102491906126bf565b90508061103a5782600094509450505050611107565b6040516370a0823160e01b81526000906001600160a01b038416906370a0823190611069908b906004016128af565b60206040518083038186803b15801561108157600080fd5b505afa158015611095573d6000803e3d6000fd5b505050506040513d601f19601f820116820180604052508101906110b991906126bf565b905061271060006110ce84610c9a8585611cf2565b6001600160a01b03871660009081526005602052604090205490915086906110fc908490610c9a9085611cf2565b975097505050505050505b9250929050565b600d5481565b600c818154811061112157fe5b6000918252602090912001546001600160a01b0316905081565b60155490565b60046020526000908152604090205481565b6000805b600a5481101561057e57826001600160a01b0316600a828154811061117857fe5b6000918252602090912001546001600160a01b0316141561119d576001915050610584565b600101611157565b6111ad611c13565b6000546001600160a01b039081169116146111da5760405162461bcd60e51b81526004016105c790612cc8565b600080546040516001600160a01b03909116907f8be0079c531659141344cd1fd0a4f28419497f9722a3daafe3b4186f6b6457e0908390a3600080546001600160a01b0319169055565b61122c611c13565b6000546001600160a01b039081169116146112595760405162461bcd60e51b81526004016105c790612cc8565b6001600160a01b03811660009081526011602052604090205460ff16156112925760405162461bcd60e51b81526004016105c79061297e565b6001600160a01b03166000908152601160205260409020805460ff19166001179055565b601a818154811061059657fe5b601754600160a01b900460ff1690565b60085481565b6000546001600160a01b031690565b60116020526000908152604090205460ff1681565b600a5490565b60145461010090046001600160a01b031681565b6017546001600160a01b031681565b601b5481565b600c5490565b6013805460408051602060026001851615610100026000190190941693909304601f810184900484028201840190925281815292918301828280156113b85780601f1061138d576101008083540402835291602001916113b8565b820191906000526020600020905b81548152906001019060200180831161139b57829003601f168201915b505050505081565b6000805b600c5481101561057e57826001600160a01b0316600c82815481106113e557fe5b6000918252602090912001546001600160a01b0316141561140a576001915050610584565b6001016113c4565b6012546001600160a01b031681565b6017546001600160a01b0316331461144b5760405162461bcd60e51b81526004016105c790612af9565b7fc95987c1992805ee34bdc915e017cceae36ba1c156b9911fa7e691e6435eb46e42838360405161147e93929190612f0f565b60405180910390a16001808201601b5560008281526018602090815260408083209384018690554284556012548151633fa4f24560e01b815291516001600160a01b0390911692633fa4f2459260048082019391829003018186803b1580156114e657600080fd5b505afa1580156114fa573d6000803e3d6000fd5b505050506040513d601f19601f8201168201806040525081019061151e91906126bf565b6012546040516303c8f2e360e21b81529192506001600160a01b031690630f23cb8c9061154f90879060040161290b565b60206040518083038186803b15801561156757600080fd5b505afa15801561157b573d6000803e3d6000fd5b505050506040513d601f19601f8201168201806040525081019061159f91906125ec565b15611648576002828101805460ff19166001179055612710906000906115e1906115cd90610c9a8987611fb1565b610c9a846115db8a88611fd6565b90611cf2565b9050600061161b600161161560156000815481106115fb57fe5b906000526020600020015489611fd690919063ffffffff16565b90611fb1565b60155490915060009061163290610c9a8585611cf2565b905061163f878286612018565b50505050610702565b6002828101805460ff1916909117905561166061217e565b6017805460ff60a01b1916600160a01b1790556040517fbd33f7a3bfa88a467c9df5ae7d2341cf061084c386b20a0d48130f5cbce38a4d906116a59085908790612edb565b60405180910390a150505050565b6016546001600160a01b031681565b60095481565b60035481565b6116d6611c13565b6000546001600160a01b039081169116146117035760405162461bcd60e51b81526004016105c790612cc8565b6001600160a01b0381166117295760405162461bcd60e51b81526004016105c790612a2f565b600080546040516001600160a01b03808516939216917f8be0079c531659141344cd1fd0a4f28419497f9722a3daafe3b4186f6b6457e091a3600080546001600160a01b0319166001600160a01b0392909216919091179055565b600b546001600160a01b031681565b61179b611c13565b6000546001600160a01b039081169116146117c85760405162461bcd60e51b81526004016105c790612cc8565b6001600160a01b03811660009081526011602052604090205460ff1615156001146118055760405162461bcd60e51b81526004016105c790612dd5565b6001600160a01b03166000908152601160205260409020805460ff19169055565b600a818154811061112157fe5b8061183d816113c0565b151560011461185e5760405162461bcd60e51b81526004016105c790612c9a565b60105460ff161515600114156118a2573360009081526011602052604090205460ff1615156001146118a25760405162461bcd60e51b81526004016105c790612b9b565b6118b76001600160a01b038316333086612263565b6118bf6112d9565b6001600160a01b0316336001600160a01b0316146119fa576001600160a01b038216600090815260046020908152604080832054600590925290912054816119078287611fb1565b11156119255760405162461bcd60e51b81526004016105c790612e03565b6001600160a01b0384166000908152600560205260409020546119489086611fb1565b6001600160a01b03851660009081526005602052604081209190915560085460095461197a9190610c9a908990611cf2565b6001600160a01b03808716600090815260066020526040908190205490516340c10f1960e01b8152929350169081906340c10f19906119bf90339086906004016128c3565b600060405180830381600087803b1580156119d957600080fd5b505af11580156119ed573d6000803e3d6000fd5b5050505050505050611bbe565b6001600160a01b0380831660009081526007602090815260408083205481516318160ddd60e01b8152915194169384926318160ddd9260048082019391829003018186803b158015611a4b57600080fd5b505afa158015611a5f573d6000803e3d6000fd5b505050506040513d601f19601f82011682018060405250810190611a8391906126bf565b6001600160a01b03851660009081526004602052604090205490915081611b09576040516340c10f1960e01b81526001600160a01b038416906340c10f1990611ad29033908a906004016128c3565b600060405180830381600087803b158015611aec57600080fd5b505af1158015611b00573d6000803e3d6000fd5b50505050611b7e565b6000611b1982610c9a8986611cf2565b6040516340c10f1960e01b81529091506001600160a01b038516906340c10f1990611b4a90339085906004016128c3565b600060405180830381600087803b158015611b6457600080fd5b505af1158015611b78573d6000803e3d6000fd5b50505050505b6001600160a01b038516600090815260046020526040902054611ba19087611fb1565b6001600160a01b0386166000908152600460205260409020555050505b611bc733611153565b611c0e57600a80546001810182556000919091527fc65a7bb8d6351c1cf70c95a316cc6a92839c986682d98bc35f958f4883f9d2a80180546001600160a01b031916331790555b505050565b3390565b60608180611c3e5750506040805180820190915260018152600360fc1b6020820152610584565b8060005b8115611c5657600101600a82049150611c42565b60608167ffffffffffffffff81118015611c6f57600080fd5b506040519080825280601f01601f191660200182016040528015611c9a576020820181803683370190505b50905060001982015b8415611ce857600a850660300160f81b82828060019003935081518110611cc657fe5b60200101906001600160f81b031916908160001a905350600a85049450611ca3565b5095945050505050565b600082611d0157506000611d2f565b82820282848281611d0e57fe5b0414611d2c5760405162461bcd60e51b81526004016105c790612c59565b90505b92915050565b6000611d2c83836040518060400160405280601a81526020017f536166654d6174683a206469766973696f6e206279207a65726f000000000000815250612284565b611c0e8363a9059cbb60e01b8484604051602401611d969291906128c3565b60408051601f198184030181529190526020810180516001600160e01b03166001600160e01b0319909316929092179091526122bb565b80611dd7816113c0565b1515600114611df85760405162461bcd60e51b81526004016105c790612c9a565b6001600160a01b03821660009081526004602090815260408083205460059092529091205480611e288387611fd6565b1015611e465760405162461bcd60e51b81526004016105c790612bcc565b6001600160a01b0380851660009081526007602090815260408083205481516318160ddd60e01b8152915194169384926318160ddd9260048082019391829003018186803b158015611e9757600080fd5b505afa158015611eab573d6000803e3d6000fd5b505050506040513d601f19601f82011682018060405250810190611ecf91906126bf565b6001600160a01b038716600090815260046020526040812054919250611ef982610c9a8b86611cf2565b60405163079cc67960e41b81529091506001600160a01b038516906379cc679090611f2a90339085906004016128c3565b600060405180830381600087803b158015611f4457600080fd5b505af1158015611f58573d6000803e3d6000fd5b5050506001600160a01b038916600090815260046020526040902054611f7f91508a611fd6565b6001600160a01b038916600081815260046020526040902091909155611fa690338b611d77565b505050505050505050565b600082820183811015611d2c5760405162461bcd60e51b81526004016105c790612a75565b6000611d2c83836040518060400160405280601e81526020017f536166654d6174683a207375627472616374696f6e206f766572666c6f77000081525061234a565b60005b600c5481101561215b576000600c828154811061203457fe5b60009182526020808320909101546001600160a01b0316808352600590915260408220549092509061206a85610c9a8489611cf2565b6001600160a01b0384166000908152600560205260409020549091506120909082611fd6565b6001600160a01b03808516600081815260056020526040902092909255600b541614156120d25760006120c282612376565b90506120ce8282611fd6565b9150505b6001600160a01b0383166000908152600460205260409020546120f59082611fb1565b6001600160a01b0384166000818152600460205260409081902092909255905188907f3173c1c4b679e2da86dbb0382bde749a6e16cd31912c5410e17985cd7d2b905290612148908a908a908790612f0f565b60405180910390a350505060010161201b565b5061217681610c9a61216d8286611fd6565b60085490611cf2565b600855505050565b60005b600c54811015610f2b576000600c828154811061219a57fe5b60009182526020808320909101546001600160a01b0316808352600582526040808420546004909352909220549192509081906121d79082611fd6565b6001600160a01b03808516600081815260046020526040902092909255600b5416141561221957600061220982612376565b90506122158282611fd6565b9150505b6001600160a01b03831660009081526005602052604090205461223c9082611fb1565b6001600160a01b039093166000908152600560205260409020929092555050600101612181565b610702846323b872dd60e01b858585604051602401611d96939291906128dc565b600081836122a55760405162461bcd60e51b81526004016105c7919061293d565b5060008385816122b157fe5b0495945050505050565b6060612310826040518060400160405280602081526020017f5361666545524332303a206c6f772d6c6576656c2063616c6c206661696c6564815250856001600160a01b03166124a89092919063ffffffff16565b805190915015611c0e578080602001905181019061232e91906125ec565b611c0e5760405162461bcd60e51b81526004016105c790612e4c565b6000818484111561236e5760405162461bcd60e51b81526004016105c7919061293d565b505050900390565b60408051808201909152600d8082526c6275726e2875696e743235362960981b602090920191909152546000907f42966c689b5afe9b9b3f8a7103b2a19980d59629bfd6a20a60972312ed41d836906123d8906103e890610c9a908690611cf2565b600b546040519193506000916001600160a01b0390911690839061240090869060240161290b565b60408051601f198184030181529181526020820180516001600160e01b03166001600160e01b031990941693909317909252905161243e9190612784565b6000604051808303816000865af19150503d806000811461247b576040519150601f19603f3d011682016040523d82523d6000602084013e612480565b606091505b50509050806124a15760405162461bcd60e51b81526004016105c790612c15565b5050919050565b60606124b784846000856124bf565b949350505050565b60606124ca85612583565b6124e65760405162461bcd60e51b81526004016105c790612d72565b60006060866001600160a01b031685876040516125039190612784565b60006040518083038185875af1925050503d8060008114612540576040519150601f19603f3d011682016040523d82523d6000602084013e612545565b606091505b509150915081156125595791506124b79050565b8051156125695780518082602001fd5b8360405162461bcd60e51b81526004016105c7919061293d565b3b151590565b60006020828403121561259a578081fd5b8135611d2c81612f51565b6000602082840312156125b6578081fd5b8151611d2c81612f51565b600080604083850312156125d3578081fd5b82356125de81612f51565b946020939093013593505050565b6000602082840312156125fd578081fd5b81518015158114611d2c578182fd5b60006020828403121561261d578081fd5b815167ffffffffffffffff80821115612634578283fd5b818401915084601f830112612647578283fd5b815181811115612655578384fd5b604051601f8201601f191681016020018381118282101715612675578586fd5b60405281815283820160200187101561268c578485fd5b61269d826020830160208701612f25565b9695505050505050565b6000602082840312156126b8578081fd5b5035919050565b6000602082840312156126d0578081fd5b5051919050565b600080604083850312156126e9578182fd5b8235915060208301356126fb81612f51565b809150509250929050565b60008060408385031215612718578182fd5b50508035926020909101359150565b60008060408385031215612739578182fd5b505080516020909101519092909150565b6006811061275457fe5b9052565b60008151808452612770816020860160208601612f25565b601f01601f19169290920160200192915050565b60008251612796818460208701612f25565b9190910192915050565b600061647560f01b825283516127bd816002850160208801612f25565b602d60f81b60029184019182015283516127de816003840160208801612f25565b01600301949350505050565b60006d44534c412d50524f56494445522d60901b8252835161281381600e850160208801612f25565b602d60f81b600e91840191820152835161283481600f840160208801612f25565b01600f01949350505050565b600061064760f41b825283516127bd816002850160208801612f25565b60006944534c412d555345522d60b01b8252835161288281600a850160208801612f25565b602d60f81b600a9184019182015283516128a381600b840160208801612f25565b01600b01949350505050565b6001600160a01b0391909116815260200190565b6001600160a01b03929092168252602082015260400190565b6001600160a01b039384168152919092166020820152604081019190915260600190565b901515815260200190565b90815260200190565b60208101611d2f828461274a565b60408101612930828561274a565b8260208301529392505050565b600060208252611d2c6020830184612758565b6000604082526129636040830185612758565b82810360208401526129758185612758565b95945050505050565b602080825260189082015277155cd95c88185b1c9958591e481dda1a5d195b1a5cdd195960421b604082015260600190565b60208082526059908201527f43616e206f6e6c79207769746864726177207374616b6520616674657220746860408201527f652066696e616c20706572696f642069732066696e6973686564206f72206966606082015278081d1a194818dbdb9d1c9858dd081a5cc8189c995858da1959603a1b608082015260a00190565b60208082526026908201527f4f776e61626c653a206e6577206f776e657220697320746865207a65726f206160408201526564647265737360d01b606082015260800190565b6020808252601b908201527f536166654d6174683a206164646974696f6e206f766572666c6f770000000000604082015260600190565b6020808252602d908201527f546f6b656e206e6f7420616c6c6f7765642062792074686520534c415265676960408201526c1cdd1c9e4818dbdb9d1c9858dd609a1b606082015260800190565b60208082526025908201527f4f6e6c79204d657373656e6765722063616e2063616c6c20746869732066756e60408201526431ba34b7b760d91b606082015260800190565b6020808252603a908201527f43616e206f6e6c7920636c61696d206120636f6d70656e736174696f6e20696660408201527f20706f736974696f6e20697320626967676572207468616e2030000000000000606082015260800190565b602080825260179082015276155cd95c881a5cc81b9bdd081dda1a5d195b1a5cdd1959604a1b604082015260600190565b60208082526029908201527f53686f756c64206e6f74207769746864726177206d6f7265207468616e207573604082015268657273207374616b6560b81b606082015260800190565b60208082526024908201527f44534c41206275726e2070726f6365737320776173206e6f74207375636365736040820152631cd99d5b60e21b606082015260800190565b60208082526021908201527f536166654d6174683a206d756c7469706c69636174696f6e206f766572666c6f6040820152607760f81b606082015260800190565b6020808252601490820152731d1bdad95b881a5cc81b9bdd08185b1b1bddd95960621b604082015260600190565b6020808252818101527f4f776e61626c653a2063616c6c6572206973206e6f7420746865206f776e6572604082015260600190565b60208082526028908201527f43616e206f6e6c79207374616b65206f6e206e6f7420627265616368656420636040820152676f6e74726163747360c01b606082015260800190565b602080825260139082015272151bdad95b88185b1c9958591e481859191959606a1b604082015260600190565b6020808252601d908201527f416464726573733a2063616c6c20746f206e6f6e2d636f6e7472616374000000604082015260600190565b6020808252601290820152710616d6f756e742063616e6e6f7420626520360741b604082015260600190565b602080825260149082015273155cd95c881b9bdd081dda1a5d195b1a5cdd195960621b604082015260600190565b60208082526029908201527f43616e6e6f74207374616b65206d6f7265207468616e20534c412070726f7669604082015268646572207374616b6560b81b606082015260800190565b6020808252602a908201527f5361666545524332303a204552433230206f7065726174696f6e20646964206e6040820152691bdd081cdd58d8d9595960b21b606082015260800190565b60208082526025908201527f53686f756c64206e6f742062652063616c6c65642062792074686520534c412060408201526437bbb732b960d91b606082015260800190565b918252602082015260400190565b838152602081018390526060810160038310612f0157fe5b826040830152949350505050565b9283526020830191909152604082015260600190565b60005b83811015612f40578181015183820152602001612f28565b838111156107025750506000910152565b6001600160a01b0381168114610f2b57600080fdfea26469706673582212207f620cdcc0cb58ae935ee8e42c7557a063c6c716681a837eb5c2550f0c4c409864736f6c634300060c00338be0079c531659141344cd1fd0a4f28419497f9722a3daafe3b4186f6b6457e0",
  "immutableReferences": {},
  "source": "// SPDX-License-Identifier: MIT\npragma solidity ^0.6.0;\npragma experimental ABIEncoderV2;\n\nimport \"@openzeppelin/contracts/access/Ownable.sol\";\nimport \"@openzeppelin/contracts/token/ERC20/IERC20.sol\";\nimport \"@openzeppelin/contracts/math/SafeMath.sol\";\nimport \"./SLO.sol\";\nimport \"./SLARegistry.sol\";\nimport \"./StakeRegistry.sol\";\nimport \"./PeriodRegistry.sol\";\nimport \"./Staking.sol\";\n\n/**\n * @title SLA\n * @dev SLA is a service level agreement contract used for service downtime\n * compensation\n */\ncontract SLA is Staking {\n    using SafeMath for uint256;\n\n    enum Status {NotVerified, Respected, NotRespected}\n\n    /// @dev Struct used for storing period status\n    struct PeriodSLI {\n        uint256 timestamp;\n        uint256 sli;\n        Status status;\n    }\n\n    /// @dev address of the SLO\n    SLO public slo;\n\n    /// @dev The ipfs hash that stores extra information about the agreement\n    string public ipfsHash;\n\n    /// @dev uint8 of the period type\n    PeriodRegistry.PeriodType public periodType;\n\n    PeriodRegistry public periodRegistry;\n\n    /// @dev array of he allowed canonical period ids\n    uint256[] public periodIds;\n\n    /// @dev The address of the slaRegistry contract\n    SLARegistry public slaRegistry;\n\n    /// @dev The address of the messenger\n    address public messengerAddress;\n\n    /// @dev states if the contract was breached or not\n    bool private _breachedContract = false;\n\n    /// @dev periodId=>PeriodSLI mapping\n    mapping(uint256 => PeriodSLI) public periodSLIs;\n\n    /// @dev block number of SLA deployment\n    uint256 public creationBlockNumber;\n\n    /// @dev extra data for customized workflows\n    bytes32[] public extraData;\n\n    /// @dev states if the contract was breached or not\n    uint256 public nextVerifiablePeriod;\n\n    /**\n     * @dev event for SLI creation logging\n     * @param timestamp 1. the time the SLI has been registered\n     * @param sli 2. the value of the SLI\n     * @param periodId 3. the id of the given period\n     */\n    event SLICreated(uint256 timestamp, uint256 sli, uint256 periodId);\n\n    /**\n     * @dev event for SLI creation logging\n     * @param _periodId 1. the id of the given period\n     * @param _sli 2. value of the SLI\n     */\n    event SLANotRespected(uint256 _periodId, uint256 _sli);\n\n    /**\n     * @dev throws if called by any address other than the messenger contract.\n     */\n    modifier onlyMessenger() {\n        require(\n            msg.sender == messengerAddress,\n            \"Only Messenger can call this function\"\n        );\n        _;\n    }\n\n    /**\n     * @dev throws if called by any address other than the messenger contract.\n     */\n    modifier onlySLARegistry() {\n        require(\n            msg.sender == address(slaRegistry),\n            \"Only SLARegistry can call this function\"\n        );\n        _;\n    }\n\n    /**\n     * @param _owner 1. address of the owner of the service level agreement\n     * @param _SLO 2. address of the SLO\n     * @param _ipfsHash 3. string with the ipfs hash that contains SLA information\n     * @param _periodIds 4. id of the allowed canonical periods\n     * @param _periodType 5. period type of the SLA contract\n     * @param _stakeRegistry 6. stakeRegistry address\n     * @param _periodRegistry 7. periodRegistry address\n     * @param _whitelisted 8. boolean to declare whitelisted contracts\n     * @param _extraData 9. array of bytes32 to store extra data on deployment time\n     * @param _slaID 10. identifies the SLA to uniquely to emit dTokens\n     */\n    constructor(\n        address _owner,\n        SLO _SLO,\n        string memory _ipfsHash,\n        address _messengerAddress,\n        uint256[] memory _periodIds,\n        PeriodRegistry.PeriodType _periodType,\n        address _stakeRegistry,\n        address _periodRegistry,\n        bool _whitelisted,\n        bytes32[] memory _extraData,\n        uint256 _slaID\n    )\n        public\n        Staking(\n            _stakeRegistry,\n            _periodRegistry,\n            _periodType,\n            _periodIds.length,\n            _whitelisted,\n            _slaID\n        )\n    {\n        transferOwnership(_owner);\n        ipfsHash = _ipfsHash;\n        messengerAddress = _messengerAddress;\n        slaRegistry = SLARegistry(msg.sender);\n        periodRegistry = PeriodRegistry(_periodRegistry);\n        creationBlockNumber = block.number;\n        periodIds = _periodIds;\n        periodType = _periodType;\n        slo = _SLO;\n        extraData = _extraData;\n        nextVerifiablePeriod = _periodIds[0];\n    }\n\n    /**\n     * @dev external function to register SLI's and check them against the SLO's\n     * @param _sli 1. the value of the SLI to check\n     * @param _periodId 2. the id of the given period\n     */\n    function registerSLI(uint256 _sli, uint256 _periodId)\n        external\n        onlyMessenger\n    {\n        emit SLICreated(block.timestamp, _sli, _periodId);\n        nextVerifiablePeriod = _periodId + 1;\n        PeriodSLI storage periodSLI = periodSLIs[_periodId];\n        periodSLI.sli = _sli;\n        periodSLI.timestamp = block.timestamp;\n        uint256 sloValue = slo.value();\n        if (slo.isRespected(_sli)) {\n            periodSLI.status = Status.Respected;\n            uint256 precision = 10000;\n            // deviation = (sli-slo)*precision/((sli+slo)/2)\n            uint256 deviation =\n                _sli.sub(sloValue).mul(precision).div(\n                    _sli.add(sloValue).div(2)\n                );\n            // to get the reward formula, we get the periodId but respecting to the SLA\n            // because _periodId is the periodId of the platform\n            // e.g. if periodIds = 7,8,9,10, normalized periods are = 1,2,3,4\n            uint256 normalizedPeriodId = _periodId.sub(periodIds[0]).add(1);\n            // if is the last period, then deliver the whole usersStake to the provider\n            // uint256 rewardPercentage =\n            //     _periodId != periodIds[periodIds.length - 1] &&\n            //         ? deviation.mul(normalizedPeriodId).div(periodIds.length)\n            //         : uint256(1).mul(precision);\n            uint256 rewardPercentage =\n                deviation.mul(normalizedPeriodId).div(periodIds.length);\n            _setRespectedPeriodReward(_periodId, rewardPercentage, precision);\n        } else {\n            periodSLI.status = Status.NotRespected;\n            _setUsersCompensation();\n            _breachedContract = true;\n            emit SLANotRespected(_periodId, _sli);\n        }\n    }\n\n    function isAllowedPeriod(uint256 _periodId) public view returns (bool) {\n        for (uint256 index = 0; index < periodIds.length; index++) {\n            if (periodIds[index] == _periodId) {\n                return true;\n            }\n        }\n        return false;\n    }\n\n    /**\n     *@dev stake _amount tokens into the _token contract\n     *@param _amount 1. amount to be staked\n     *@param _token 2. address of the ERC to be staked\n     */\n\n    function stakeTokens(uint256 _amount, address _token) public {\n        require(_amount > 0, \"amount cannot be 0\");\n        require(\n            _breachedContract == false,\n            \"Can only stake on not breached contracts\"\n        );\n        _stake(_amount, _token);\n        StakeRegistry stakeRegistry = slaRegistry.stakeRegistry();\n        stakeRegistry.registerStakedSla(msg.sender);\n    }\n\n    /**\n     *@dev withdraw _amount tokens from the _token contract\n     *@param _amount 1. amount to be staked\n     *@param _tokenAddress 2. address of the ERC to be staked\n     */\n\n    function withdrawStakedTokens(uint256 _amount, address _tokenAddress)\n        public\n    {\n        require(_amount > 0, \"amount cannot be 0\");\n        uint256 lastValidPeriodId = periodIds[periodIds.length - 1];\n        (, uint256 endOfLastValidPeriod) =\n            periodRegistry.getPeriodStartAndEnd(periodType, lastValidPeriodId);\n        // users can withdraw only if the contract is breached\n        // or if the last period is finished and the period status was verified\n        if (msg.sender != owner()) {\n            require(\n                _breachedContract == true ||\n                    (block.timestamp >= endOfLastValidPeriod &&\n                        periodSLIs[lastValidPeriodId].status !=\n                        Status.NotVerified),\n                \"Can only withdraw stake after the final period is finished or if the contract is breached\"\n            );\n        }\n        _withdraw(_amount, _tokenAddress);\n    }\n\n    /**\n     *@dev withdraw provider reward of a given token address\n     *@param _tokenAddress 1. address of the token to withdraw rewards\n     */\n\n    function claimUserCompensation(address _tokenAddress) public {\n        _claimCompensation(_tokenAddress);\n    }\n\n    function getPeriodIdsLength() public view returns (uint256) {\n        return periodIds.length;\n    }\n\n    function getStakersLength() public view returns (uint256) {\n        return stakers.length;\n    }\n\n    function breachedContract() public view returns (bool) {\n        return _breachedContract;\n    }\n}\n",
  "sourcePath": "/Users/matiasbn/Desktop/stacktical/stacktical-dsla-contracts/contracts/SLA.sol",
  "compiler": {
    "name": "solc",
    "version": "0.6.12+commit.27d51765.Emscripten.clang"
  },
  "schemaVersion": "3.3.3",
  "updatedAt": "2021-03-09T16:36:48.681Z",
  "devdoc": {
    "details": "SLA is a service level agreement contract used for service downtime compensation",
    "events": {
      "SLANotRespected(uint256,uint256)": {
        "details": "event for SLI creation logging",
        "params": {
          "_periodId": "1. the id of the given period",
          "_sli": "2. value of the SLI"
        }
      },
      "SLICreated(uint256,uint256,uint256)": {
        "details": "event for SLI creation logging",
        "params": {
          "periodId": "3. the id of the given period",
          "sli": "2. the value of the SLI",
          "timestamp": "1. the time the SLI has been registered"
        }
      }
    },
    "kind": "dev",
    "methods": {
      "_claimCompensation(address)": {
        "details": "claim user compensation. Transfers both the compensation and the user remaining stake.",
        "params": {
          "_tokenAddress": "1. address of the token to claim compensation"
        }
      },
      "addAllowedTokens(address)": {
        "details": "add a token to ve allowed for staking",
        "params": {
          "_tokenAddress": "1. address of the new allowed token"
        }
      },
      "claimUserCompensation(address)": {
        "details": "withdraw provider reward of a given token address",
        "params": {
          "_tokenAddress": "1. address of the token to withdraw rewards"
        }
      },
      "constructor": {
        "params": {
          "_SLO": "2. address of the SLO",
          "_extraData": "9. array of bytes32 to store extra data on deployment time",
          "_ipfsHash": "3. string with the ipfs hash that contains SLA information",
          "_owner": "1. address of the owner of the service level agreement",
          "_periodIds": "4. id of the allowed canonical periods",
          "_periodRegistry": "7. periodRegistry address",
          "_periodType": "5. period type of the SLA contract",
          "_slaID": "10. identifies the SLA to uniquely to emit dTokens",
          "_stakeRegistry": "6. stakeRegistry address",
          "_whitelisted": "8. boolean to declare whitelisted contracts"
        }
      },
      "getAllowedTokensLength()": {
        "details": "use this function to evaluate the length of the allowed tokens length",
        "returns": {
          "_0": "allowedTokens.length"
        }
      },
      "isAllowedToken(address)": {
        "details": "checks in the allowedTokens array if there's a token with _tokenAddress value",
        "params": {
          "_tokenAddress": "1. token address to check exixtence"
        },
        "returns": {
          "_0": "true if _tokenAddress exists in the allowedTokens array"
        }
      },
      "isStaker(address)": {
        "details": "returns true if the _staker address is registered as staker",
        "params": {
          "_staker": "1. staker address"
        },
        "returns": {
          "_0": "true if address is staker"
        }
      },
      "owner()": {
        "details": "Returns the address of the current owner."
      },
      "registerSLI(uint256,uint256)": {
        "details": "external function to register SLI's and check them against the SLO's",
        "params": {
          "_periodId": "2. the id of the given period",
          "_sli": "1. the value of the SLI to check"
        }
      },
      "renounceOwnership()": {
        "details": "Leaves the contract without owner. It will not be possible to call `onlyOwner` functions anymore. Can only be called by the current owner. NOTE: Renouncing ownership will leave the contract without an owner, thereby removing any functionality that is only available to the owner."
      },
      "stakeTokens(uint256,address)": {
        "details": "stake _amount tokens into the _token contract",
        "params": {
          "_amount": "1. amount to be staked",
          "_token": "2. address of the ERC to be staked"
        }
      },
      "transferOwnership(address)": {
        "details": "Transfers ownership of the contract to a new account (`newOwner`). Can only be called by the current owner."
      },
      "withdrawStakedTokens(uint256,address)": {
        "details": "withdraw _amount tokens from the _token contract",
        "params": {
          "_amount": "1. amount to be staked",
          "_tokenAddress": "2. address of the ERC to be staked"
        }
      }
    },
    "stateVariables": {
      "_breachedContract": {
        "details": "states if the contract was breached or not"
      },
      "creationBlockNumber": {
        "details": "block number of SLA deployment"
      },
      "extraData": {
        "details": "extra data for customized workflows"
      },
      "ipfsHash": {
        "details": "The ipfs hash that stores extra information about the agreement"
      },
      "messengerAddress": {
        "details": "The address of the messenger"
      },
      "nextVerifiablePeriod": {
        "details": "states if the contract was breached or not"
      },
      "periodIds": {
        "details": "array of he allowed canonical period ids"
      },
      "periodSLIs": {
        "details": "periodId=>PeriodSLI mapping"
      },
      "periodType": {
        "details": "uint8 of the period type"
      },
      "slaRegistry": {
        "details": "The address of the slaRegistry contract"
      },
      "slo": {
        "details": "address of the SLO"
      }
    },
    "title": "SLA",
    "version": 1
  },
  "userdoc": {
    "kind": "user",
    "methods": {
      "_claimCompensation(address)": {
        "notice": "it uses the user position and the user total position per token to check the proportion of the compensation pool that corresponds to every user"
      }
    },
    "version": 1
  }
}