{
  "contractName": "SLA",
  "abi": [
    {
      "inputs": [
        {
          "internalType": "address",
          "name": "_owner",
          "type": "address"
        },
        {
          "internalType": "bool",
          "name": "_whitelisted",
          "type": "bool"
        },
        {
          "internalType": "enum PeriodRegistry.PeriodType",
          "name": "_periodType",
          "type": "uint8"
        },
        {
          "internalType": "address",
          "name": "_messengerAddress",
          "type": "address"
        },
        {
          "internalType": "uint128",
          "name": "_initialPeriodId",
          "type": "uint128"
        },
        {
          "internalType": "uint128",
          "name": "_finalPeriodId",
          "type": "uint128"
        },
        {
          "internalType": "uint128",
          "name": "_slaID",
          "type": "uint128"
        },
        {
          "internalType": "string",
          "name": "_ipfsHash",
          "type": "string"
        },
        {
          "internalType": "bytes32[]",
          "name": "_extraData",
          "type": "bytes32[]"
        },
        {
          "internalType": "uint256",
          "name": "_leverage",
          "type": "uint256"
        }
      ],
      "stateMutability": "nonpayable",
      "type": "constructor"
    },
    {
      "anonymous": false,
      "inputs": [
        {
          "indexed": true,
          "internalType": "address",
          "name": "previousOwner",
          "type": "address"
        },
        {
          "indexed": true,
          "internalType": "address",
          "name": "newOwner",
          "type": "address"
        }
      ],
      "name": "OwnershipTransferred",
      "type": "event"
    },
    {
      "anonymous": false,
      "inputs": [
        {
          "indexed": true,
          "internalType": "uint256",
          "name": "periodId",
          "type": "uint256"
        },
        {
          "indexed": true,
          "internalType": "address",
          "name": "tokenAddress",
          "type": "address"
        },
        {
          "indexed": false,
          "internalType": "uint256",
          "name": "rewardPercentage",
          "type": "uint256"
        },
        {
          "indexed": false,
          "internalType": "uint256",
          "name": "rewardPercentagePrecision",
          "type": "uint256"
        },
        {
          "indexed": false,
          "internalType": "uint256",
          "name": "rewardAmount",
          "type": "uint256"
        }
      ],
      "name": "ProviderRewardGenerated",
      "type": "event"
    },
    {
      "anonymous": false,
      "inputs": [
        {
          "indexed": false,
          "internalType": "uint256",
          "name": "_periodId",
          "type": "uint256"
        },
        {
          "indexed": false,
          "internalType": "uint256",
          "name": "_sli",
          "type": "uint256"
        }
      ],
      "name": "SLANotRespected",
      "type": "event"
    },
    {
      "anonymous": false,
      "inputs": [
        {
          "indexed": false,
          "internalType": "uint256",
          "name": "timestamp",
          "type": "uint256"
        },
        {
          "indexed": false,
          "internalType": "uint256",
          "name": "sli",
          "type": "uint256"
        },
        {
          "indexed": false,
          "internalType": "uint256",
          "name": "periodId",
          "type": "uint256"
        }
      ],
      "name": "SLICreated",
      "type": "event"
    },
    {
      "inputs": [],
      "name": "DSLAburnRate",
      "outputs": [
        {
          "internalType": "uint256",
          "name": "",
          "type": "uint256"
        }
      ],
      "stateMutability": "view",
      "type": "function"
    },
    {
      "inputs": [
        {
          "internalType": "address",
          "name": "_tokenAddress",
          "type": "address"
        }
      ],
      "name": "addAllowedTokens",
      "outputs": [],
      "stateMutability": "nonpayable",
      "type": "function"
    },
    {
      "inputs": [
        {
          "internalType": "address[]",
          "name": "_userAddresses",
          "type": "address[]"
        }
      ],
      "name": "addMultipleUsersToWhitelist",
      "outputs": [],
      "stateMutability": "nonpayable",
      "type": "function"
    },
    {
      "inputs": [
        {
          "internalType": "address",
          "name": "_userAddress",
          "type": "address"
        }
      ],
      "name": "addUserToWhitelist",
      "outputs": [],
      "stateMutability": "nonpayable",
      "type": "function"
    },
    {
      "inputs": [
        {
          "internalType": "uint256",
          "name": "",
          "type": "uint256"
        }
      ],
      "name": "allowedTokens",
      "outputs": [
        {
          "internalType": "address",
          "name": "",
          "type": "address"
        }
      ],
      "stateMutability": "view",
      "type": "function"
    },
    {
      "inputs": [],
      "name": "creationBlockNumber",
      "outputs": [
        {
          "internalType": "uint256",
          "name": "",
          "type": "uint256"
        }
      ],
      "stateMutability": "view",
      "type": "function"
    },
    {
      "inputs": [
        {
          "internalType": "address",
          "name": "",
          "type": "address"
        }
      ],
      "name": "dpTokenRegistry",
      "outputs": [
        {
          "internalType": "contract ERC20PresetMinterPauser",
          "name": "",
          "type": "address"
        }
      ],
      "stateMutability": "view",
      "type": "function"
    },
    {
      "inputs": [],
      "name": "dslaTokenAddress",
      "outputs": [
        {
          "internalType": "address",
          "name": "",
          "type": "address"
        }
      ],
      "stateMutability": "view",
      "type": "function"
    },
    {
      "inputs": [
        {
          "internalType": "address",
          "name": "",
          "type": "address"
        }
      ],
      "name": "duTokenRegistry",
      "outputs": [
        {
          "internalType": "contract ERC20PresetMinterPauser",
          "name": "",
          "type": "address"
        }
      ],
      "stateMutability": "view",
      "type": "function"
    },
    {
      "inputs": [
        {
          "internalType": "uint256",
          "name": "",
          "type": "uint256"
        }
      ],
      "name": "extraData",
      "outputs": [
        {
          "internalType": "bytes32",
          "name": "",
          "type": "bytes32"
        }
      ],
      "stateMutability": "view",
      "type": "function"
    },
    {
      "inputs": [],
      "name": "finalPeriodId",
      "outputs": [
        {
          "internalType": "uint128",
          "name": "",
          "type": "uint128"
        }
      ],
      "stateMutability": "view",
      "type": "function"
    },
    {
      "inputs": [],
      "name": "getAllowedTokensLength",
      "outputs": [
        {
          "internalType": "uint256",
          "name": "",
          "type": "uint256"
        }
      ],
      "stateMutability": "view",
      "type": "function"
    },
    {
      "inputs": [
        {
          "internalType": "address",
          "name": "_staker",
          "type": "address"
        },
        {
          "internalType": "uint256",
          "name": "_allowedTokenIndex",
          "type": "uint256"
        }
      ],
      "name": "getTokenStake",
      "outputs": [
        {
          "internalType": "address",
          "name": "tokenAddress",
          "type": "address"
        },
        {
          "internalType": "uint256",
          "name": "stake",
          "type": "uint256"
        }
      ],
      "stateMutability": "view",
      "type": "function"
    },
    {
      "inputs": [],
      "name": "initialPeriodId",
      "outputs": [
        {
          "internalType": "uint128",
          "name": "",
          "type": "uint128"
        }
      ],
      "stateMutability": "view",
      "type": "function"
    },
    {
      "inputs": [],
      "name": "ipfsHash",
      "outputs": [
        {
          "internalType": "string",
          "name": "",
          "type": "string"
        }
      ],
      "stateMutability": "view",
      "type": "function"
    },
    {
      "inputs": [
        {
          "internalType": "address",
          "name": "_tokenAddress",
          "type": "address"
        }
      ],
      "name": "isAllowedToken",
      "outputs": [
        {
          "internalType": "bool",
          "name": "",
          "type": "bool"
        }
      ],
      "stateMutability": "view",
      "type": "function"
    },
    {
      "inputs": [],
      "name": "leverage",
      "outputs": [
        {
          "internalType": "uint256",
          "name": "",
          "type": "uint256"
        }
      ],
      "stateMutability": "view",
      "type": "function"
    },
    {
      "inputs": [],
      "name": "messengerAddress",
      "outputs": [
        {
          "internalType": "address",
          "name": "",
          "type": "address"
        }
      ],
      "stateMutability": "view",
      "type": "function"
    },
    {
      "inputs": [],
      "name": "nextVerifiablePeriod",
      "outputs": [
        {
          "internalType": "uint256",
          "name": "",
          "type": "uint256"
        }
      ],
      "stateMutability": "view",
      "type": "function"
    },
    {
      "inputs": [],
      "name": "owner",
      "outputs": [
        {
          "internalType": "address",
          "name": "",
          "type": "address"
        }
      ],
      "stateMutability": "view",
      "type": "function"
    },
    {
      "inputs": [
        {
          "internalType": "uint256",
          "name": "",
          "type": "uint256"
        }
      ],
      "name": "periodSLIs",
      "outputs": [
        {
          "internalType": "uint256",
          "name": "timestamp",
          "type": "uint256"
        },
        {
          "internalType": "uint256",
          "name": "sli",
          "type": "uint256"
        },
        {
          "internalType": "enum SLA.Status",
          "name": "status",
          "type": "uint8"
        }
      ],
      "stateMutability": "view",
      "type": "function"
    },
    {
      "inputs": [],
      "name": "periodType",
      "outputs": [
        {
          "internalType": "enum PeriodRegistry.PeriodType",
          "name": "",
          "type": "uint8"
        }
      ],
      "stateMutability": "view",
      "type": "function"
    },
    {
      "inputs": [
        {
          "internalType": "address",
          "name": "",
          "type": "address"
        }
      ],
      "name": "providerPool",
      "outputs": [
        {
          "internalType": "uint256",
          "name": "",
          "type": "uint256"
        }
      ],
      "stateMutability": "view",
      "type": "function"
    },
    {
      "inputs": [
        {
          "internalType": "address",
          "name": "",
          "type": "address"
        }
      ],
      "name": "registeredStakers",
      "outputs": [
        {
          "internalType": "bool",
          "name": "",
          "type": "bool"
        }
      ],
      "stateMutability": "view",
      "type": "function"
    },
    {
      "inputs": [
        {
          "internalType": "address[]",
          "name": "_userAddresses",
          "type": "address[]"
        }
      ],
      "name": "removeMultipleUsersFromWhitelist",
      "outputs": [],
      "stateMutability": "nonpayable",
      "type": "function"
    },
    {
      "inputs": [
        {
          "internalType": "address",
          "name": "_userAddress",
          "type": "address"
        }
      ],
      "name": "removeUserFromWhitelist",
      "outputs": [],
      "stateMutability": "nonpayable",
      "type": "function"
    },
    {
      "inputs": [],
      "name": "renounceOwnership",
      "outputs": [],
      "stateMutability": "nonpayable",
      "type": "function"
    },
    {
      "inputs": [],
      "name": "slaID",
      "outputs": [
        {
          "internalType": "uint128",
          "name": "",
          "type": "uint128"
        }
      ],
      "stateMutability": "view",
      "type": "function"
    },
    {
      "inputs": [],
      "name": "slaRegistry",
      "outputs": [
        {
          "internalType": "contract SLARegistry",
          "name": "",
          "type": "address"
        }
      ],
      "stateMutability": "view",
      "type": "function"
    },
    {
      "inputs": [
        {
          "internalType": "uint256",
          "name": "",
          "type": "uint256"
        }
      ],
      "name": "stakers",
      "outputs": [
        {
          "internalType": "address",
          "name": "",
          "type": "address"
        }
      ],
      "stateMutability": "view",
      "type": "function"
    },
    {
      "inputs": [
        {
          "internalType": "address",
          "name": "newOwner",
          "type": "address"
        }
      ],
      "name": "transferOwnership",
      "outputs": [],
      "stateMutability": "nonpayable",
      "type": "function"
    },
    {
      "inputs": [
        {
          "internalType": "address",
          "name": "",
          "type": "address"
        }
      ],
      "name": "usersPool",
      "outputs": [
        {
          "internalType": "uint256",
          "name": "",
          "type": "uint256"
        }
      ],
      "stateMutability": "view",
      "type": "function"
    },
    {
      "inputs": [
        {
          "internalType": "address",
          "name": "",
          "type": "address"
        }
      ],
      "name": "whitelist",
      "outputs": [
        {
          "internalType": "bool",
          "name": "",
          "type": "bool"
        }
      ],
      "stateMutability": "view",
      "type": "function"
    },
    {
      "inputs": [],
      "name": "whitelistedContract",
      "outputs": [
        {
          "internalType": "bool",
          "name": "",
          "type": "bool"
        }
      ],
      "stateMutability": "view",
      "type": "function"
    },
    {
      "inputs": [
        {
          "internalType": "uint256",
          "name": "_sli",
          "type": "uint256"
        },
        {
          "internalType": "uint256",
          "name": "_periodId",
          "type": "uint256"
        }
      ],
      "name": "registerSLI",
      "outputs": [],
      "stateMutability": "nonpayable",
      "type": "function"
    },
    {
      "inputs": [
        {
          "internalType": "uint256",
          "name": "_periodId",
          "type": "uint256"
        }
      ],
      "name": "isAllowedPeriod",
      "outputs": [
        {
          "internalType": "bool",
          "name": "",
          "type": "bool"
        }
      ],
      "stateMutability": "view",
      "type": "function"
    },
    {
      "inputs": [],
      "name": "contractFinished",
      "outputs": [
        {
          "internalType": "bool",
          "name": "",
          "type": "bool"
        }
      ],
      "stateMutability": "view",
      "type": "function"
    },
    {
      "inputs": [
        {
          "internalType": "uint256",
          "name": "_amount",
          "type": "uint256"
        },
        {
          "internalType": "address",
          "name": "_token",
          "type": "address"
        }
      ],
      "name": "stakeTokens",
      "outputs": [],
      "stateMutability": "nonpayable",
      "type": "function"
    },
    {
      "inputs": [
        {
          "internalType": "uint256",
          "name": "_amount",
          "type": "uint256"
        },
        {
          "internalType": "address",
          "name": "_tokenAddress",
          "type": "address"
        }
      ],
      "name": "withdrawProviderTokens",
      "outputs": [],
      "stateMutability": "nonpayable",
      "type": "function"
    },
    {
      "inputs": [
        {
          "internalType": "uint256",
          "name": "_amount",
          "type": "uint256"
        },
        {
          "internalType": "address",
          "name": "_tokenAddress",
          "type": "address"
        }
      ],
      "name": "withdrawUserTokens",
      "outputs": [],
      "stateMutability": "nonpayable",
      "type": "function"
    },
    {
      "inputs": [],
      "name": "getStakersLength",
      "outputs": [
        {
          "internalType": "uint256",
          "name": "",
          "type": "uint256"
        }
      ],
      "stateMutability": "view",
      "type": "function"
    },
    {
      "inputs": [],
      "name": "breachedContract",
      "outputs": [
        {
          "internalType": "bool",
          "name": "",
          "type": "bool"
        }
      ],
      "stateMutability": "view",
      "type": "function"
    }
  ],
  "bytecode": "0x610240604052600d805460ff191690553480156200001c57600080fd5b506040516200401b3803806200401b8339810160408190526200003f916200098e565b33888a86846000620000596001600160e01b03620005ca16565b600080546001600160a01b0319166001600160a01b03831690811782556040519293509160008051602062003ffb833981519152908290a350846001600160a01b031663683048356040518163ffffffff1660e01b815260040160206040518083038186803b158015620000cc57600080fd5b505afa158015620000e1573d6000803e3d6000fd5b505050506040513d601f19601f8201168201806040525081019062000107919062000968565b600160006101000a8154816001600160a01b0302191690836001600160a01b03160217905550846001600160a01b0316639fc4caa56040518163ffffffff1660e01b815260040160206040518083038186803b1580156200016757600080fd5b505afa1580156200017c573d6000803e3d6000fd5b505050506040513d601f19601f82011682018060405250810190620001a2919062000968565b60601b6001600160601b031916608052836005811115620001bf57fe5b610100816005811115620001cf57fe5b60f890811b909152841515901b610120525060015460408051637b8041cf60e11b815290516000926001600160a01b03169163f700839e9160048083019260e0929190829003018186803b1580156200022757600080fd5b505afa1580156200023c573d6000803e3d6000fd5b505050506040513d601f19601f8201168201806040525081019062000262919062000aa4565b5050505050509050600160009054906101000a90046001600160a01b03166001600160a01b0316638b8e53096040518163ffffffff1660e01b815260040160206040518083038186803b158015620002b957600080fd5b505afa158015620002ce573d6000803e3d6000fd5b505050506040513d601f19601f82011682018060405250810190620002f4919062000968565b60601b6001600160601b03191660c05260e08190526200031433620005cf565b6001600160801b0319608084901b1660a05260015460408051631c79942160e31b815290516001600160a01b039092169163e3cca10891600480820192602092909190829003018186803b1580156200036c57600080fd5b505afa15801562000381573d6000803e3d6000fd5b505050506040513d601f19601f82011682018060405250810190620003a7919062000a8b565b821115620003d25760405162461bcd60e51b8152600401620003c99062000b75565b60405180910390fd5b506101405250620003f192508c9150506001600160e01b036200067216565b82516200040690600a90602086019062000728565b506001600160601b0319606088901b1661016052600b80546001600160a01b03191633179081905560408051639fc4caa560e01b815290516001600160a01b039290921691639fc4caa591600480820192602092909190829003018186803b1580156200047257600080fd5b505afa15801562000487573d6000803e3d6000fd5b505050506040513d601f19601f82011682018060405250810190620004ad919062000968565b60601b6001600160601b03191661018052600b5460408051635a7d1e5d60e01b815290516001600160a01b0390921691635a7d1e5d91600480820192602092909190829003018186803b1580156200050457600080fd5b505afa15801562000519573d6000803e3d6000fd5b505050506040513d601f19601f820116820180604052508101906200053f919062000968565b60601b6001600160601b0319166101a052436101c052608086811b6001600160801b03199081166101e0529086901b16610200528760058111156200058057fe5b6102208160058111156200059057fe5b60f81b9052508151620005ab90600c906020850190620007ad565b5050506001600160801b03909316600e555062000c3595505050505050565b335b90565b620005e26001600160e01b03620005ca16565b6000546001600160a01b03908116911614620006125760405162461bcd60e51b8152600401620003c99062000bc0565b6001600160a01b03811660009081526009602052604090205460ff16156200064e5760405162461bcd60e51b8152600401620003c99062000af8565b6001600160a01b03166000908152600960205260409020805460ff19166001179055565b620006856001600160e01b03620005ca16565b6000546001600160a01b03908116911614620006b55760405162461bcd60e51b8152600401620003c99062000bc0565b6001600160a01b038116620006de5760405162461bcd60e51b8152600401620003c99062000b2f565b600080546040516001600160a01b038085169392169160008051602062003ffb83398151915291a3600080546001600160a01b0319166001600160a01b0392909216919091179055565b828054600181600116156101000203166002900490600052602060002090601f016020900481019282601f106200076b57805160ff19168380011785556200079b565b828001600101855582156200079b579182015b828111156200079b5782518255916020019190600101906200077e565b50620007a9929150620007ea565b5090565b8280548282559060005260206000209081019282156200079b57916020028201828111156200079b5782518255916020019190600101906200077e565b620005cc91905b80821115620007a95760008155600101620007f1565b8051620008148162000c1c565b92915050565b600082601f8301126200082b578081fd5b81516001600160401b0381111562000841578182fd5b60208082026200085382820162000bf5565b838152935081840185830182870184018810156200087057600080fd5b600092505b848310156200089557805182526001929092019190830190830162000875565b505050505092915050565b805180151581146200081457600080fd5b8051600681106200081457600080fd5b600082601f830112620008d2578081fd5b81516001600160401b03811115620008e8578182fd5b6020620008fe601f8301601f1916820162000bf5565b925081835284818386010111156200091557600080fd5b60005b828110156200093557848101820151848201830152810162000918565b82811115620009475760008284860101525b50505092915050565b80516001600160801b03811681146200081457600080fd5b6000602082840312156200097a578081fd5b8151620009878162000c1c565b9392505050565b6000806000806000806000806000806101408b8d031215620009ae578586fd5b620009ba8c8c62000807565b9950620009cb8c60208d01620008a0565b9850620009dc8c60408d01620008b1565b9750620009ed8c60608d0162000807565b9650620009fe8c60808d0162000950565b955062000a0f8c60a08d0162000950565b945062000a208c60c08d0162000950565b60e08c01519094506001600160401b038082111562000a3d578485fd5b62000a4b8e838f01620008c1565b94506101008d015191508082111562000a62578384fd5b5062000a718d828e016200081a565b9250506101208b015190509295989b9194979a5092959850565b60006020828403121562000a9d578081fd5b5051919050565b600080600080600080600060e0888a03121562000abf578283fd5b5050855160208701516040880151606089015160808a015160a08b015160c0909b0151949c939b50919990985090965094509092509050565b60208082526018908201527f5573657220616c72656164792077686974656c69737465640000000000000000604082015260600190565b60208082526026908201527f4f776e61626c653a206e6577206f776e657220697320746865207a65726f206160408201526564647265737360d01b606082015260800190565b6020808252602b908201527f6c657665726167652073686f756c6420626520736d616c6c6572207468616e2060408201526a6d61784c6576657261676560a81b606082015260800190565b6020808252818101527f4f776e61626c653a2063616c6c6572206973206e6f7420746865206f776e6572604082015260600190565b6040518181016001600160401b038111828210171562000c1457600080fd5b604052919050565b6001600160a01b038116811462000c3257600080fd5b50565b60805160601c60a05160801c60c05160601c60e0516101005160f81c6101205160f81c610140516101605160601c6101805160601c6101a05160601c6101c0516101e05160801c6102005160801c6102205160f81c6132ca62000d3160003980610c6852806111645250806105635280610c2052806111855280611233528061179e52508061052a5280610b5d5280611733528061177d525080610b395250806115a852806116475250806111355250806112a252806114fb525080610bfc5280611ae852806122b7528061265d525080610b155280611a2752505080610eb05250806119365250806108f4528061185c5250506132ca6000f3fe608060405234801561001057600080fd5b506004361061025e5760003560e01c806378025ec411610146578063c26ff615116100c3578063db69a46211610087578063db69a462146104d5578063f2db10fe146104dd578063f2fde38b146104e5578063f7e9dfff146104f8578063f9902bb114610500578063fd5e6dd1146105135761025e565b8063c26ff61514610474578063c623674f14610487578063c8b5c2481461049c578063cbe230c3146104af578063d7a5c422146104c25761025e565b80639fabeb001161010a5780639fabeb0014610441578063a224ee9c14610449578063a7e8d8d414610451578063b1659bad14610464578063b7bc347e1461046c5761025e565b806378025ec4146104035780637fd788aa146104165780638da5cb5b1461041e57806396f76f11146104265780639b19251a1461042e5761025e565b806346e0fbae116101df5780635c1c20de116101a35780635c1c20de146103a75780635e5f2e26146103af578063639b6fc3146103c2578063715018a6146103d5578063740882ac146103dd578063747b8050146103f05761025e565b806346e0fbae1461032b578063484fbf2b146103405780634e0c91f6146103535780634fb2647e1461037357806357ac94f0146103865761025e565b80632526743a116102265780632526743a146102d157806326db18ac146102e65780632c86d98e146102f95780633385d334146103015780634190edde146103095761025e565b8063021eef7f146102635780630bea440d1461028c578063171e44ea146102a157806318e45427146102b45780631bf30929146102bc575b600080fd5b610276610271366004612a4b565b610526565b6040516102839190612cb9565b60405180910390f35b61029f61029a366004612a7b565b6105a3565b005b61029f6102af36600461295c565b610707565b610276610b13565b6102c4610b37565b6040516102839190612cc4565b6102d9610b5b565b60405161028391906131de565b61029f6102f4366004612a7b565b610b7f565b6102c4610bfa565b6102d9610c1e565b61031c610317366004612a4b565b610c42565b60405161028393929190613217565b610333610c66565b6040516102839190612ccd565b6102c461034e36600461295c565b610c8a565b61036661036136600461295c565b610c9c565b6040516102839190612c68565b61036661038136600461295c565b610cb7565b610399610394366004612994565b610cd2565b604051610283929190612c7c565b6102c4610eae565b6103666103bd366004612a4b565b610ed2565b6102c46103d036600461295c565b610ef9565b61029f610f0b565b61029f6103eb3660046129bf565b610f8a565b61029f6103fe36600461295c565b611068565b6102c4610411366004612a4b565b6110fa565b610276611118565b610366611121565b610276611130565b61027661043c36600461295c565b611285565b6102c461129a565b6103666112a0565b61027661045f36600461295c565b6112c4565b6102c46112d9565b6102c46112df565b61029f6104823660046129bf565b6112e5565b61048f6113c9565b6040516102839190612d07565b61029f6104aa366004612a7b565b611457565b6102766104bd36600461295c565b611495565b61029f6104d0366004612ad1565b6114f0565b61036661184b565b6102d961185a565b61029f6104f336600461295c565b61187e565b610366611934565b61029f61050e36600461295c565b611958565b610366610521366004612a4b565b6119eb565b60007f00000000000000000000000000000000000000000000000000000000000000006001600160801b03168210156105615750600061059e565b7f00000000000000000000000000000000000000000000000000000000000000006001600160801b031682111561059a5750600061059e565b5060015b919050565b81600081116105cd5760405162461bcd60e51b81526004016105c49061313a565b60405180910390fd5b60006105d7611130565b905080156105f75760405162461bcd60e51b81526004016105c490612fb3565b61060184846119f8565b600b5460408051636830483560e01b815290516000926001600160a01b0316916368304835916004808301926020929190829003018186803b15801561064657600080fd5b505afa15801561065a573d6000803e3d6000fd5b505050506040513d601f19601f8201168201806040525081019061067e9190612978565b604051635948284760e11b81529091506001600160a01b0382169063b290508e906106ad903390600401612c68565b602060405180830381600087803b1580156106c757600080fd5b505af11580156106db573d6000803e3d6000fd5b505050506040513d601f19601f820116820180604052508101906106ff9190612a2b565b505050505050565b61070f611f51565b6000546001600160a01b0390811691161461073c5760405162461bcd60e51b81526004016105c49061306a565b60015460408051637b8041cf60e11b815290516000926001600160a01b03169163f700839e9160048083019260e0929190829003018186803b15801561078157600080fd5b505afa158015610795573d6000803e3d6000fd5b505050506040513d601f19601f820116820180604052508101906107b99190612b15565b96505050505050506107ca82611495565b156107e75760405162461bcd60e51b81526004016105c4906130d6565b60015460405163cbe230c360e01b81526001600160a01b039091169063cbe230c390610817908590600401612c68565b60206040518083038186803b15801561082f57600080fd5b505afa158015610843573d6000803e3d6000fd5b505050506040513d601f19601f820116820180604052508101906108679190612a2b565b6108835760405162461bcd60e51b81526004016105c490612e9d565b6008805460018101825560008290527ff3f7a9fe364faab93b216da50a3214154f22a0a2b415b23a84c8169e8b636ee30180546001600160a01b0319166001600160a01b038516179055548110156108ed5760405162461bcd60e51b81526004016105c490612d48565b60606109217f00000000000000000000000000000000000000000000000000000000000000006001600160801b0316611f55565b90506060816040516020016109369190612bb0565b604051602081830303815290604052905060608260405160200161095a9190612be3565b604051602081830303815290604052905060608360405160200161097e9190612c13565b60405160208183030381529060405290506060846040516020016109a29190612c45565b60408051601f1981840301815290829052600154633350214760e11b83529092506000916001600160a01b03909116906366a0428e906109e89088908890600401612d1a565b602060405180830381600087803b158015610a0257600080fd5b505af1158015610a16573d6000803e3d6000fd5b505050506040513d601f19601f82011682018060405250810190610a3a9190612978565b600154604051633350214760e11b81529192506000916001600160a01b03909116906366a0428e90610a729087908790600401612d1a565b602060405180830381600087803b158015610a8c57600080fd5b505af1158015610aa0573d6000803e3d6000fd5b505050506040513d601f19601f82011682018060405250810190610ac49190612978565b6001600160a01b03998a1660009081526005602090815260408083208054948e166001600160a01b031995861617905560049091529020805493909a1692169190911790975550505050505050565b7f000000000000000000000000000000000000000000000000000000000000000081565b7f000000000000000000000000000000000000000000000000000000000000000081565b7f000000000000000000000000000000000000000000000000000000000000000081565b8160008111610ba05760405162461bcd60e51b81526004016105c49061313a565b610ba8611121565b6001600160a01b0316336001600160a01b031614610beb576000610bca611130565b905080610be95760405162461bcd60e51b81526004016105c49061309f565b505b610bf58383612030565b505050565b7f000000000000000000000000000000000000000000000000000000000000000081565b7f000000000000000000000000000000000000000000000000000000000000000081565b600f6020526000908152604090208054600182015460029092015490919060ff1683565b7f000000000000000000000000000000000000000000000000000000000000000081565b60036020526000908152604090205481565b6004602052600090815260409020546001600160a01b031681565b6005602052600090815260409020546001600160a01b031681565b600080600060088481548110610ce457fe5b6000918252602090912001546001600160a01b03169050610d03611121565b6001600160a01b0316856001600160a01b03161415610d3f576001600160a01b0381166000908152600260205260409020549092509050610ea7565b6001600160a01b0380821660009081526004602081815260408084205481516318160ddd60e01b8152915195169485936318160ddd938382019390929190829003018186803b158015610d9157600080fd5b505afa158015610da5573d6000803e3d6000fd5b505050506040513d601f19601f82011682018060405250810190610dc99190612a63565b905080610ddf575090925060009150610ea79050565b6040516370a0823160e01b81526000906001600160a01b038416906370a0823190610e0e908b90600401612c68565b60206040518083038186803b158015610e2657600080fd5b505afa158015610e3a573d6000803e3d6000fd5b505050506040513d601f19601f82011682018060405250810190610e5e9190612a63565b6001600160a01b0385166000908152600360205260409020549091508490610e9e908490610e92908563ffffffff6121d716565b9063ffffffff61221a16565b95509550505050505b9250929050565b7f000000000000000000000000000000000000000000000000000000000000000081565b60088181548110610edf57fe5b6000918252602090912001546001600160a01b0316905081565b60026020526000908152604090205481565b610f13611f51565b6000546001600160a01b03908116911614610f405760405162461bcd60e51b81526004016105c49061306a565b600080546040516001600160a01b03909116907f8be0079c531659141344cd1fd0a4f28419497f9722a3daafe3b4186f6b6457e0908390a3600080546001600160a01b0319169055565b610f92611f51565b6000546001600160a01b03908116911614610fbf5760405162461bcd60e51b81526004016105c49061306a565b60005b81811015610bf55760096000848484818110610fda57fe5b9050602002016020810190610fef919061295c565b6001600160a01b0316815260208101919091526040016000205460ff166110605760016009600085858581811061102257fe5b9050602002016020810190611037919061295c565b6001600160a01b031681526020810191909152604001600020805460ff19169115159190911790555b600101610fc2565b611070611f51565b6000546001600160a01b0390811691161461109d5760405162461bcd60e51b81526004016105c49061306a565b6001600160a01b03811660009081526009602052604090205460ff16156110d65760405162461bcd60e51b81526004016105c490612d9b565b6001600160a01b03166000908152600960205260409020805460ff19166001179055565b600c818154811061110757fe5b600091825260209091200154905081565b600d5460ff1690565b6000546001600160a01b031690565b6000807f00000000000000000000000000000000000000000000000000000000000000006001600160a01b031663ffa612357f00000000000000000000000000000000000000000000000000000000000000007f00000000000000000000000000000000000000000000000000000000000000006040518363ffffffff1660e01b81526004016111c1929190612ce1565b604080518083038186803b1580156111d857600080fd5b505afa1580156111ec573d6000803e3d6000fd5b505050506040513d601f19601f820116820180604052508101906112109190612af2565b600d5490925060ff16151560011490508061127f575080421015801561127f57507f00000000000000000000000000000000000000000000000000000000000000006001600160801b03166000908152600f6020526040812060029081015460ff169081111561127c57fe5b14155b91505090565b60096020526000908152604090205460ff1681565b60065490565b7f000000000000000000000000000000000000000000000000000000000000000081565b60076020526000908152604090205460ff1681565b600e5481565b60085490565b6112ed611f51565b6000546001600160a01b0390811691161461131a5760405162461bcd60e51b81526004016105c49061306a565b60005b81811015610bf5576009600084848481811061133557fe5b905060200201602081019061134a919061295c565b6001600160a01b0316815260208101919091526040016000205460ff161515600114156113c15760006009600085858581811061138357fe5b9050602002016020810190611398919061295c565b6001600160a01b031681526020810191909152604001600020805460ff19169115159190911790555b60010161131d565b600a805460408051602060026001851615610100026000190190941693909304601f8101849004840282018401909252818152929183018282801561144f5780601f106114245761010080835404028352916020019161144f565b820191906000526020600020905b81548152906001019060200180831161143257829003601f168201915b505050505081565b81600081116114785760405162461bcd60e51b81526004016105c49061313a565b6000611482611130565b905061148f84848361225c565b50505050565b6000805b6008548110156114e757826001600160a01b0316600882815481106114ba57fe5b6000918252602090912001546001600160a01b031614156114df57600191505061059e565b600101611499565b50600092915050565b336001600160a01b037f000000000000000000000000000000000000000000000000000000000000000016146115385760405162461bcd60e51b81526004016105c490612eea565b7fc95987c1992805ee34bdc915e017cceae36ba1c156b9911fa7e691e6435eb46e42838360405161156b9392919061323d565b60405180910390a16001808201600e556000828152600f60205260408082209283018590554283555163a7b72ac560e01b81526001600160a01b037f0000000000000000000000000000000000000000000000000000000000000000169063a7b72ac5906115dd903090600401612c68565b604080518083038186803b1580156115f457600080fd5b505afa158015611608573d6000803e3d6000fd5b505050506040513d601f19601f8201168201806040525081019061162c9190612aaa565b50604051631993b9df60e01b81529091506001600160a01b037f00000000000000000000000000000000000000000000000000000000000000001690631993b9df9061167e90879030906004016131f2565b60206040518083038186803b15801561169657600080fd5b505afa1580156116aa573d6000803e3d6000fd5b505050506040513d601f19601f820116820180604052508101906116ce9190612a2b565b156117e6576002828101805460ff191660011790556127109060009061171c906116fc90610e92898761248d565b610e92846117108a8863ffffffff6124b216565b9063ffffffff6121d716565b9050600061176a600161175e886001600160801b037f00000000000000000000000000000000000000000000000000000000000000001663ffffffff6124b216565b9063ffffffff61248d16565b905060006117d06001600160801b0360017f00000000000000000000000000000000000000000000000000000000000000007f0000000000000000000000000000000000000000000000000000000000000000030116610e92858563ffffffff6121d716565b90506117dd8782866124f4565b5050505061148f565b6002828101805460ff191690911790556117fe612613565b600d805460ff191660011790556040517fbd33f7a3bfa88a467c9df5ae7d2341cf061084c386b20a0d48130f5cbce38a4d9061183d9085908790613209565b60405180910390a150505050565b600b546001600160a01b031681565b7f000000000000000000000000000000000000000000000000000000000000000081565b611886611f51565b6000546001600160a01b039081169116146118b35760405162461bcd60e51b81526004016105c49061306a565b6001600160a01b0381166118d95760405162461bcd60e51b81526004016105c490612dcd565b600080546040516001600160a01b03808516939216917f8be0079c531659141344cd1fd0a4f28419497f9722a3daafe3b4186f6b6457e091a3600080546001600160a01b0319166001600160a01b0392909216919091179055565b7f000000000000000000000000000000000000000000000000000000000000000081565b611960611f51565b6000546001600160a01b0390811691161461198d5760405162461bcd60e51b81526004016105c49061306a565b6001600160a01b03811660009081526009602052604090205460ff1615156001146119ca5760405162461bcd60e51b81526004016105c490613166565b6001600160a01b03166000908152600960205260409020805460ff19169055565b60068181548110610edf57fe5b80611a0281611495565b1515600114611a235760405162461bcd60e51b81526004016105c49061303c565b60017f000000000000000000000000000000000000000000000000000000000000000015151415611a82573360009081526009602052604090205460ff161515600114611a825760405162461bcd60e51b81526004016105c490612f82565b611a9d6001600160a01b03831633308663ffffffff61271216565b611aa5611121565b6001600160a01b0316336001600160a01b031614611d0b576001600160a01b03821660009081526002602090815260408083205460039092529091205481611b177f0000000000000000000000000000000000000000000000000000000000000000611710848963ffffffff61248d16565b1115611b355760405162461bcd60e51b81526004016105c490612f2f565b6001600160a01b0380851660009081526004602081815260408084205481516318160ddd60e01b8152915195169485936318160ddd938382019390929190829003018186803b158015611b8757600080fd5b505afa158015611b9b573d6000803e3d6000fd5b505050506040513d601f19601f82011682018060405250810190611bbf9190612a63565b905080611c2b576040516340c10f1960e01b81526001600160a01b038316906340c10f1990611bf49033908b90600401612c7c565b600060405180830381600087803b158015611c0e57600080fd5b505af1158015611c22573d6000803e3d6000fd5b50505050611cbf565b6001600160a01b03861660009081526003602052604081205490611c5982610e928b8663ffffffff6121d716565b6040516340c10f1960e01b81529091506001600160a01b038516906340c10f1990611c8a9033908590600401612c7c565b600060405180830381600087803b158015611ca457600080fd5b505af1158015611cb8573d6000803e3d6000fd5b5050505050505b6001600160a01b038616600090815260036020526040902054611ce8908863ffffffff61248d16565b6001600160a01b03871660009081526003602052604090205550611ed992505050565b6001600160a01b0380831660009081526005602090815260408083205481516318160ddd60e01b8152915194169384926318160ddd9260048082019391829003018186803b158015611d5c57600080fd5b505afa158015611d70573d6000803e3d6000fd5b505050506040513d601f19601f82011682018060405250810190611d949190612a63565b905080611e00576040516340c10f1960e01b81526001600160a01b038316906340c10f1990611dc99033908990600401612c7c565b600060405180830381600087803b158015611de357600080fd5b505af1158015611df7573d6000803e3d6000fd5b50505050611e94565b6001600160a01b03841660009081526002602052604081205490611e2e82610e92898663ffffffff6121d716565b6040516340c10f1960e01b81529091506001600160a01b038516906340c10f1990611e5f9033908590600401612c7c565b600060405180830381600087803b158015611e7957600080fd5b505af1158015611e8d573d6000803e3d6000fd5b5050505050505b6001600160a01b038416600090815260026020526040902054611ebd908663ffffffff61248d16565b6001600160a01b03851660009081526002602052604090205550505b3360009081526007602052604090205460ff16610bf557336000818152600760205260408120805460ff191660019081179091556006805491820181559091527ff652222313e28459528d920b65115c16c04f3efc82aaedc97be59f3f377c0d3f0180546001600160a01b0319169091179055505050565b3390565b60608180611f7c5750506040805180820190915260018152600360fc1b602082015261059e565b8060005b8115611f9457600101600a82049150611f80565b60608167ffffffffffffffff81118015611fad57600080fd5b506040519080825280601f01601f191660200182016040528015611fd8576020820181803683370190505b50905060001982015b841561202657600a850660300160f81b8282806001900393508151811061200457fe5b60200101906001600160f81b031916908160001a905350600a85049450611fe1565b5095945050505050565b8061203a81611495565b151560011461205b5760405162461bcd60e51b81526004016105c49061303c565b6001600160a01b0380831660009081526004602081815260408084205481516318160ddd60e01b8152915195169485936318160ddd938382019390929190829003018186803b1580156120ad57600080fd5b505afa1580156120c1573d6000803e3d6000fd5b505050506040513d601f19601f820116820180604052508101906120e59190612a63565b6001600160a01b03851660009081526003602052604081205491925061211582610e92898663ffffffff6121d716565b60405163079cc67960e41b81529091506001600160a01b038516906379cc6790906121469033908590600401612c7c565b600060405180830381600087803b15801561216057600080fd5b505af1158015612174573d6000803e3d6000fd5b5050506001600160a01b0387166000908152600360205260409020546121a191508863ffffffff6124b216565b6001600160a01b0387166000818152600360205260409020919091556121ce90338963ffffffff61276a16565b50505050505050565b6000826121e657506000612214565b828202828482816121f357fe5b04146122115760405162461bcd60e51b81526004016105c490612ffb565b90505b92915050565b600061221183836040518060400160405280601a81526020017f536166654d6174683a206469766973696f6e206279207a65726f000000000000815250612789565b8161226681611495565b15156001146122875760405162461bcd60e51b81526004016105c49061303c565b6001600160a01b0383166000908152600260209081526040808320546003909252909120548361230f576122e1817f000000000000000000000000000000000000000000000000000000000000000063ffffffff6121d716565b6122f1838863ffffffff6124b216565b101561230f5760405162461bcd60e51b81526004016105c490612e13565b6001600160a01b0380861660009081526005602090815260408083205481516318160ddd60e01b8152915194169384926318160ddd9260048082019391829003018186803b15801561236057600080fd5b505afa158015612374573d6000803e3d6000fd5b505050506040513d601f19601f820116820180604052508101906123989190612a63565b6001600160a01b0388166000908152600260205260408120549192506123c882610e928c8663ffffffff6121d716565b60405163079cc67960e41b81529091506001600160a01b038516906379cc6790906123f99033908590600401612c7c565b600060405180830381600087803b15801561241357600080fd5b505af1158015612427573d6000803e3d6000fd5b5050506001600160a01b038a1660009081526002602052604090205461245491508b63ffffffff6124b216565b6001600160a01b038a1660008181526002602052604090209190915561248190338c63ffffffff61276a16565b50505050505050505050565b6000828201838110156122115760405162461bcd60e51b81526004016105c490612e66565b600061221183836040518060400160405280601e81526020017f536166654d6174683a207375627472616374696f6e206f766572666c6f7700008152506127c0565b60005b60085481101561148f5760006008828154811061251057fe5b60009182526020808320909101546001600160a01b0316808352600390915260408220549092509061254c85610e92848963ffffffff6121d716565b6001600160a01b038416600090815260036020526040902054909150612578908263ffffffff6124b216565b6001600160a01b0384166000908152600360209081526040808320939093556002905220546125ad908263ffffffff61248d16565b6001600160a01b0384166000818152600260205260409081902092909255905188907f3173c1c4b679e2da86dbb0382bde749a6e16cd31912c5410e17985cd7d2b905290612600908a908a90879061323d565b60405180910390a35050506001016124f7565b60005b60085481101561270f5760006008828154811061262f57fe5b60009182526020808320909101546001600160a01b03168083526003909152604082205490925090612687827f000000000000000000000000000000000000000000000000000000000000000063ffffffff6121d716565b6001600160a01b0384166000908152600260205260409020549091506126b3908263ffffffff6124b216565b6001600160a01b0384166000908152600260209081526040808320939093556003905220546126e8908263ffffffff61248d16565b6001600160a01b039093166000908152600360205260409020929092555050600101612616565b50565b61148f846323b872dd60e01b85858560405160240161273393929190612c95565b60408051601f198184030181529190526020810180516001600160e01b03166001600160e01b0319909316929092179091526127ec565b610bf58363a9059cbb60e01b8484604051602401612733929190612c7c565b600081836127aa5760405162461bcd60e51b81526004016105c49190612d07565b5060008385816127b657fe5b0495945050505050565b600081848411156127e45760405162461bcd60e51b81526004016105c49190612d07565b505050900390565b6060612841826040518060400160405280602081526020017f5361666545524332303a206c6f772d6c6576656c2063616c6c206661696c6564815250856001600160a01b031661287b9092919063ffffffff16565b805190915015610bf5578080602001905181019061285f9190612a2b565b610bf55760405162461bcd60e51b81526004016105c490613194565b606061288a8484600085612892565b949350505050565b606061289d85612956565b6128b95760405162461bcd60e51b81526004016105c490613103565b60006060866001600160a01b031685876040516128d69190612b94565b60006040518083038185875af1925050503d8060008114612913576040519150601f19603f3d011682016040523d82523d6000602084013e612918565b606091505b5091509150811561292c57915061288a9050565b80511561293c5780518082602001fd5b8360405162461bcd60e51b81526004016105c49190612d07565b3b151590565b60006020828403121561296d578081fd5b81356122118161327f565b600060208284031215612989578081fd5b81516122118161327f565b600080604083850312156129a6578081fd5b82356129b18161327f565b946020939093013593505050565b600080602083850312156129d1578182fd5b823567ffffffffffffffff808211156129e8578384fd5b81850186601f8201126129f9578485fd5b8035925081831115612a09578485fd5b8660208085028301011115612a1c578485fd5b60200196919550909350505050565b600060208284031215612a3c578081fd5b81518015158114612211578182fd5b600060208284031215612a5c578081fd5b5035919050565b600060208284031215612a74578081fd5b5051919050565b60008060408385031215612a8d578182fd5b823591506020830135612a9f8161327f565b809150509250929050565b60008060408385031215612abc578182fd5b82519150602083015160068110612a9f578182fd5b60008060408385031215612ae3578182fd5b50508035926020909101359150565b60008060408385031215612b04578182fd5b505080516020909101519092909150565b600080600080600080600060e0888a031215612b2f578283fd5b5050855160208701516040880151606089015160808a015160a08b015160c0909b0151949c939b50919990985090965094509092509050565b60008151808452612b80816020860160208601613253565b601f01601f19169290920160200192915050565b60008251612ba6818460208701613253565b9190910192915050565b60006a44534c412d53484f52542d60a81b82528251612bd681600b850160208701613253565b91909101600b0192915050565b60006744534c412d53502d60c01b82528251612c06816008850160208701613253565b9190910160080192915050565b60006944534c412d4c4f4e472d60b01b82528251612c3881600a850160208701613253565b91909101600a0192915050565b60006744534c412d4c502d60c01b82528251612c06816008850160208701613253565b6001600160a01b0391909116815260200190565b6001600160a01b03929092168252602082015260400190565b6001600160a01b039384168152919092166020820152604081019190915260600190565b901515815260200190565b90815260200190565b6020810160068310612cdb57fe5b91905290565b6040810160068410612cef57fe5b9281526001600160801b039190911660209091015290565b6000602082526122116020830184612b68565b600060408252612d2d6040830185612b68565b8281036020840152612d3f8185612b68565b95945050505050565b60208082526033908201527f416c6c6f77656420746f6b656e73206c656e67746820677265617465722074686040820152720c2dc40dac2f040e8ded6cadc40d8cadccee8d606b1b606082015260800190565b602080825260189082015277155cd95c88185b1c9958591e481dda1a5d195b1a5cdd195960421b604082015260600190565b60208082526026908201527f4f776e61626c653a206e6577206f776e657220697320746865207a65726f206160408201526564647265737360d01b606082015260800190565b60208082526033908201527f53686f756c64206e6f74207769746864726177206d6f7265207468616e206c6560408201527276657261676564207573657273207374616b6560681b606082015260800190565b6020808252601b908201527f536166654d6174683a206164646974696f6e206f766572666c6f770000000000604082015260600190565b6020808252602d908201527f546f6b656e206e6f7420616c6c6f7765642062792074686520534c415265676960408201526c1cdd1c9e4818dbdb9d1c9858dd609a1b606082015260800190565b60208082526025908201527f4f6e6c79204d657373656e6765722063616e2063616c6c20746869732066756e60408201526431ba34b7b760d91b606082015260800190565b60208082526033908201527f43616e6e6f74207374616b65206d6f7265207468616e206c657665726167656460408201527220534c412070726f7669646572207374616b6560681b606082015260800190565b602080825260179082015276155cd95c881a5cc81b9bdd081dda1a5d195b1a5cdd1959604a1b604082015260600190565b60208082526028908201527f43616e206f6e6c79207374616b65206f6e206e6f742066696e697368656420636040820152676f6e74726163747360c01b606082015260800190565b60208082526021908201527f536166654d6174683a206d756c7469706c69636174696f6e206f766572666c6f6040820152607760f81b606082015260800190565b6020808252601490820152731d1bdad95b881a5cc81b9bdd08185b1b1bddd95960621b604082015260600190565b6020808252818101527f4f776e61626c653a2063616c6c6572206973206e6f7420746865206f776e6572604082015260600190565b6020808252601a908201527f4f6e6c7920666f722066696e697368656420636f6e7472616374000000000000604082015260600190565b602080825260139082015272151bdad95b88185b1c9958591e481859191959606a1b604082015260600190565b6020808252601d908201527f416464726573733a2063616c6c20746f206e6f6e2d636f6e7472616374000000604082015260600190565b6020808252601290820152710616d6f756e742063616e6e6f7420626520360741b604082015260600190565b602080825260149082015273155cd95c881b9bdd081dda1a5d195b1a5cdd195960621b604082015260600190565b6020808252602a908201527f5361666545524332303a204552433230206f7065726174696f6e20646964206e6040820152691bdd081cdd58d8d9595960b21b606082015260800190565b6001600160801b0391909116815260200190565b9182526001600160a01b0316602082015260400190565b918252602082015260400190565b83815260208101839052606081016003831061322f57fe5b826040830152949350505050565b9283526020830191909152604082015260600190565b60005b8381101561326e578181015183820152602001613256565b8381111561148f5750506000910152565b6001600160a01b038116811461270f57600080fdfea2646970667358221220fe702f6c2082758e7b468c065373b2e0ecc1ee65423975ca26e2b5560c56d2fa64736f6c634300060600338be0079c531659141344cd1fd0a4f28419497f9722a3daafe3b4186f6b6457e0",
  "immutableReferences": {
    "1457": [
      {
        "length": 32,
        "start": 4770
      },
      {
        "length": 32,
        "start": 5371
      }
    ],
    "1461": [
      {
        "length": 32,
        "start": 4405
      }
    ],
    "1463": [
      {
        "length": 32,
        "start": 5544
      },
      {
        "length": 32,
        "start": 5703
      }
    ],
    "1465": [
      {
        "length": 32,
        "start": 2873
      }
    ],
    "1467": [
      {
        "length": 32,
        "start": 1322
      },
      {
        "length": 32,
        "start": 2909
      },
      {
        "length": 32,
        "start": 5939
      },
      {
        "length": 32,
        "start": 6013
      }
    ],
    "1469": [
      {
        "length": 32,
        "start": 1379
      },
      {
        "length": 32,
        "start": 3104
      },
      {
        "length": 32,
        "start": 4485
      },
      {
        "length": 32,
        "start": 4659
      },
      {
        "length": 32,
        "start": 6046
      }
    ],
    "1471": [
      {
        "length": 32,
        "start": 3176
      },
      {
        "length": 32,
        "start": 4452
      }
    ],
    "3656": [
      {
        "length": 32,
        "start": 2292
      },
      {
        "length": 32,
        "start": 6236
      }
    ],
    "3681": [
      {
        "length": 32,
        "start": 6454
      }
    ],
    "3686": [
      {
        "length": 32,
        "start": 3760
      }
    ],
    "3690": [
      {
        "length": 32,
        "start": 2837
      },
      {
        "length": 32,
        "start": 6695
      }
    ],
    "3696": [
      {
        "length": 32,
        "start": 3068
      },
      {
        "length": 32,
        "start": 6888
      },
      {
        "length": 32,
        "start": 8887
      },
      {
        "length": 32,
        "start": 9821
      }
    ]
  },
  "source": "// SPDX-License-Identifier: MIT\npragma solidity 0.6.6;\npragma experimental ABIEncoderV2;\n\nimport \"@openzeppelin/contracts/access/Ownable.sol\";\nimport \"@openzeppelin/contracts/token/ERC20/IERC20.sol\";\nimport \"@openzeppelin/contracts/math/SafeMath.sol\";\nimport \"./SLARegistry.sol\";\nimport \"./SLORegistry.sol\";\nimport \"./StakeRegistry.sol\";\nimport \"./PeriodRegistry.sol\";\nimport \"./Staking.sol\";\n\n/**\n * @title SLA\n * @dev SLA is a service level agreement contract used for service downtime\n * compensation\n */\ncontract SLA is Staking {\n    using SafeMath for uint256;\n\n    enum Status {NotVerified, Respected, NotRespected}\n\n    struct PeriodSLI {\n        uint256 timestamp;\n        uint256 sli;\n        Status status;\n    }\n\n    //\n    string public ipfsHash;\n    address public immutable messengerAddress;\n    SLARegistry public slaRegistry;\n    PeriodRegistry private immutable periodRegistry;\n    SLORegistry private immutable sloRegistry;\n    uint256 public immutable creationBlockNumber;\n    uint128 public immutable initialPeriodId;\n    uint128 public immutable finalPeriodId;\n    PeriodRegistry.PeriodType public immutable periodType;\n    /// @dev extra data for customized workflows\n    bytes32[] public extraData;\n\n    bool private _breachedContract = false;\n    uint256 public nextVerifiablePeriod;\n\n    /// @dev periodId=>PeriodSLI mapping\n    mapping(uint256 => PeriodSLI) public periodSLIs;\n\n    /**\n     * @dev event for SLI creation logging\n     * @param timestamp 1. the time the SLI has been registered\n     * @param sli 2. the value of the SLI\n     * @param periodId 3. the id of the given period\n     */\n    event SLICreated(uint256 timestamp, uint256 sli, uint256 periodId);\n\n    /**\n     * @dev event for SLI creation logging\n     * @param _periodId 1. the id of the given period\n     * @param _sli 2. value of the SLI\n     */\n    event SLANotRespected(uint256 _periodId, uint256 _sli);\n\n    /**\n     * @dev throws if called by any address other than the messenger contract.\n     */\n    modifier onlyMessenger() {\n        require(\n            msg.sender == messengerAddress,\n            \"Only Messenger can call this function\"\n        );\n        _;\n    }\n\n    /**\n     * @dev throws if called by any address other than the messenger contract.\n     */\n    modifier onlySLARegistry() {\n        require(\n            msg.sender == address(slaRegistry),\n            \"Only SLARegistry can call this function\"\n        );\n        _;\n    }\n\n    /**\n     * @dev throws if called with an amount less or equal to zero.\n     */\n    modifier notZero(uint256 _amount) {\n        require(_amount > 0, \"amount cannot be 0\");\n        _;\n    }\n\n    /**\n     * @param _owner 1. -\n     * @param _ipfsHash 3. -\n     * @param _messengerAddress 3. -\n     * @param _initialPeriodId 4. -\n     * @param _finalPeriodId 4. -\n     * @param _periodType 5. -\n     * @param _whitelisted 8. -\n     * @param _extraData 9. -\n     * @param _slaID 10. -\n     */\n    constructor(\n        address _owner,\n        bool _whitelisted,\n        PeriodRegistry.PeriodType _periodType,\n        address _messengerAddress,\n        uint128 _initialPeriodId,\n        uint128 _finalPeriodId,\n        uint128 _slaID,\n        string memory _ipfsHash,\n        bytes32[] memory _extraData,\n        uint256 _leverage\n    )\n        public\n        Staking(\n            SLARegistry(msg.sender),\n            _periodType,\n            _whitelisted,\n            _slaID,\n            _leverage\n        )\n    {\n        transferOwnership(_owner);\n        ipfsHash = _ipfsHash;\n        messengerAddress = _messengerAddress;\n        slaRegistry = SLARegistry(msg.sender);\n        periodRegistry = slaRegistry.periodRegistry();\n        sloRegistry = slaRegistry.sloRegistry();\n        creationBlockNumber = block.number;\n        initialPeriodId = _initialPeriodId;\n        finalPeriodId = _finalPeriodId;\n        periodType = _periodType;\n        extraData = _extraData;\n        nextVerifiablePeriod = _initialPeriodId;\n    }\n\n    /**\n     * @dev external function to register SLI's and check them against the SLORegistry\n     * @param _sli 1. the value of the SLI to check\n     * @param _periodId 2. the id of the given period\n     */\n    function registerSLI(uint256 _sli, uint256 _periodId)\n        external\n        onlyMessenger\n    {\n        emit SLICreated(block.timestamp, _sli, _periodId);\n        nextVerifiablePeriod = _periodId + 1;\n        PeriodSLI storage periodSLI = periodSLIs[_periodId];\n        periodSLI.sli = _sli;\n        periodSLI.timestamp = block.timestamp;\n        (uint256 sloValue, ) = sloRegistry.registeredSLO(address(this));\n        if (sloRegistry.isRespected(_sli, address(this))) {\n            periodSLI.status = Status.Respected;\n            uint256 precision = 10000;\n            uint256 deviation =\n                _sli.sub(sloValue).mul(precision).div(\n                    _sli.add(sloValue).div(2)\n                );\n            uint256 normalizedPeriodId = _periodId.sub(initialPeriodId).add(1);\n            uint256 rewardPercentage =\n                deviation.mul(normalizedPeriodId).div(\n                    finalPeriodId - initialPeriodId + 1\n                );\n            _setRespectedPeriodReward(_periodId, rewardPercentage, precision);\n        } else {\n            periodSLI.status = Status.NotRespected;\n            _setUsersCompensation();\n            _breachedContract = true;\n            emit SLANotRespected(_periodId, _sli);\n        }\n    }\n\n    function isAllowedPeriod(uint256 _periodId) external view returns (bool) {\n        if (_periodId < initialPeriodId) return false;\n        if (_periodId > finalPeriodId) return false;\n        return true;\n    }\n\n    function contractFinished() public view returns (bool) {\n        (, uint256 endOfLastValidPeriod) =\n            periodRegistry.getPeriodStartAndEnd(periodType, finalPeriodId);\n        return\n            _breachedContract == true ||\n            (block.timestamp >= endOfLastValidPeriod &&\n                periodSLIs[finalPeriodId].status != Status.NotVerified);\n    }\n\n    /**\n     *@dev stake _amount tokens into the _token contract\n     *@param _amount 1. amount to be staked\n     *@param _token 2. address of the ERC to be staked\n     */\n\n    function stakeTokens(uint256 _amount, address _token)\n        external\n        notZero(_amount)\n    {\n        bool isContractFinished = contractFinished();\n        require(\n            !isContractFinished,\n            \"Can only stake on not finished contracts\"\n        );\n        _stake(_amount, _token);\n        StakeRegistry stakeRegistry = slaRegistry.stakeRegistry();\n        stakeRegistry.registerStakedSla(msg.sender);\n    }\n\n    function withdrawProviderTokens(uint256 _amount, address _tokenAddress)\n        external\n        notZero(_amount)\n    {\n        bool isContractFinished = contractFinished();\n        _withdrawProviderTokens(_amount, _tokenAddress, isContractFinished);\n    }\n\n    /**\n     *@dev withdraw _amount tokens from the _token contract\n     *@param _amount 1. amount to be staked\n     *@param _tokenAddress 2. address of the ERC to be staked\n     */\n\n    function withdrawUserTokens(uint256 _amount, address _tokenAddress)\n        external\n        notZero(_amount)\n    {\n        if (msg.sender != owner()) {\n            bool isContractFinished = contractFinished();\n            require(isContractFinished, \"Only for finished contract\");\n        }\n        _withdrawUserTokens(_amount, _tokenAddress);\n    }\n\n    function getStakersLength() external view returns (uint256) {\n        return stakers.length;\n    }\n\n    function breachedContract() external view returns (bool) {\n        return _breachedContract;\n    }\n}\n",
  "sourcePath": "/Users/matiasbn/Desktop/stacktical/stacktical-dsla-contracts/contracts/SLA.sol",
  "compiler": {
    "name": "solc",
    "version": "0.6.6+commit.6c089d02.Emscripten.clang"
  },
  "schemaVersion": "3.3.3",
  "updatedAt": "2021-04-09T23:28:26.743Z",
  "devdoc": {
    "details": "SLA is a service level agreement contract used for service downtime compensation",
    "methods": {
      "constructor": {
        "params": {
          "_extraData": "9. -",
          "_finalPeriodId": "4. -",
          "_initialPeriodId": "4. -",
          "_ipfsHash": "3. -",
          "_messengerAddress": "3. -",
          "_owner": "1. -",
          "_periodType": "5. -",
          "_slaID": "10. -",
          "_whitelisted": "8. -"
        }
      },
      "owner()": {
        "details": "Returns the address of the current owner."
      },
      "registerSLI(uint256,uint256)": {
        "details": "external function to register SLI's and check them against the SLORegistry",
        "params": {
          "_periodId": "2. the id of the given period",
          "_sli": "1. the value of the SLI to check"
        }
      },
      "renounceOwnership()": {
        "details": "Leaves the contract without owner. It will not be possible to call `onlyOwner` functions anymore. Can only be called by the current owner.     * NOTE: Renouncing ownership will leave the contract without an owner, thereby removing any functionality that is only available to the owner."
      },
      "transferOwnership(address)": {
        "details": "Transfers ownership of the contract to a new account (`newOwner`). Can only be called by the current owner."
      }
    },
    "title": "SLA"
  },
  "userdoc": {
    "methods": {
      "addAllowedTokens(address)": {
        "notice": "dev add a token to ve allowed for staking param _tokenAddress 1. address of the new allowed token"
      },
      "getAllowedTokensLength()": {
        "notice": "dev use this function to evaluate the length of the allowed tokens length return allowedTokens.length"
      },
      "isAllowedToken(address)": {
        "notice": "dev checks in the allowedTokens array if there's a token with _tokenAddress value param _tokenAddress 1. token address to check exixtence return true if _tokenAddress exists in the allowedTokens array"
      },
      "stakeTokens(uint256,address)": {
        "notice": "dev stake _amount tokens into the _token contract param _amount 1. amount to be staked param _token 2. address of the ERC to be staked"
      },
      "withdrawUserTokens(uint256,address)": {
        "notice": "dev withdraw _amount tokens from the _token contract param _amount 1. amount to be staked param _tokenAddress 2. address of the ERC to be staked"
      }
    }
  }
}