{
  "contractName": "SLA",
  "abi": [
    {
      "inputs": [
        {
          "internalType": "address",
          "name": "_owner",
          "type": "address"
        },
        {
          "internalType": "bool",
          "name": "_whitelisted",
          "type": "bool"
        },
        {
          "internalType": "enum PeriodRegistry.PeriodType",
          "name": "_periodType",
          "type": "uint8"
        },
        {
          "internalType": "address",
          "name": "_messengerAddress",
          "type": "address"
        },
        {
          "internalType": "uint128",
          "name": "_initialPeriodId",
          "type": "uint128"
        },
        {
          "internalType": "uint128",
          "name": "_finalPeriodId",
          "type": "uint128"
        },
        {
          "internalType": "uint128",
          "name": "_slaID",
          "type": "uint128"
        },
        {
          "internalType": "string",
          "name": "_ipfsHash",
          "type": "string"
        },
        {
          "internalType": "bytes32[]",
          "name": "_extraData",
          "type": "bytes32[]"
        },
        {
          "internalType": "uint64",
          "name": "_leverage",
          "type": "uint64"
        }
      ],
      "stateMutability": "nonpayable",
      "type": "constructor"
    },
    {
      "anonymous": false,
      "inputs": [
        {
          "indexed": true,
          "internalType": "address",
          "name": "previousOwner",
          "type": "address"
        },
        {
          "indexed": true,
          "internalType": "address",
          "name": "newOwner",
          "type": "address"
        }
      ],
      "name": "OwnershipTransferred",
      "type": "event"
    },
    {
      "anonymous": false,
      "inputs": [
        {
          "indexed": true,
          "internalType": "uint256",
          "name": "periodId",
          "type": "uint256"
        },
        {
          "indexed": true,
          "internalType": "address",
          "name": "tokenAddress",
          "type": "address"
        },
        {
          "indexed": false,
          "internalType": "uint256",
          "name": "rewardPercentage",
          "type": "uint256"
        },
        {
          "indexed": false,
          "internalType": "uint256",
          "name": "rewardPercentagePrecision",
          "type": "uint256"
        },
        {
          "indexed": false,
          "internalType": "uint256",
          "name": "rewardAmount",
          "type": "uint256"
        }
      ],
      "name": "ProviderRewardGenerated",
      "type": "event"
    },
    {
      "anonymous": false,
      "inputs": [
        {
          "indexed": true,
          "internalType": "address",
          "name": "tokenAddress",
          "type": "address"
        },
        {
          "indexed": true,
          "internalType": "uint256",
          "name": "periodId",
          "type": "uint256"
        },
        {
          "indexed": true,
          "internalType": "address",
          "name": "caller",
          "type": "address"
        },
        {
          "indexed": false,
          "internalType": "uint256",
          "name": "amount",
          "type": "uint256"
        }
      ],
      "name": "ProviderWithdraw",
      "type": "event"
    },
    {
      "anonymous": false,
      "inputs": [
        {
          "indexed": false,
          "internalType": "uint256",
          "name": "_periodId",
          "type": "uint256"
        },
        {
          "indexed": false,
          "internalType": "uint256",
          "name": "_sli",
          "type": "uint256"
        }
      ],
      "name": "SLANotRespected",
      "type": "event"
    },
    {
      "anonymous": false,
      "inputs": [
        {
          "indexed": false,
          "internalType": "uint256",
          "name": "timestamp",
          "type": "uint256"
        },
        {
          "indexed": false,
          "internalType": "uint256",
          "name": "sli",
          "type": "uint256"
        },
        {
          "indexed": false,
          "internalType": "uint256",
          "name": "periodId",
          "type": "uint256"
        }
      ],
      "name": "SLICreated",
      "type": "event"
    },
    {
      "anonymous": false,
      "inputs": [
        {
          "indexed": true,
          "internalType": "address",
          "name": "tokenAddress",
          "type": "address"
        },
        {
          "indexed": true,
          "internalType": "uint256",
          "name": "periodId",
          "type": "uint256"
        },
        {
          "indexed": true,
          "internalType": "address",
          "name": "caller",
          "type": "address"
        },
        {
          "indexed": false,
          "internalType": "uint256",
          "name": "amount",
          "type": "uint256"
        }
      ],
      "name": "Stake",
      "type": "event"
    },
    {
      "anonymous": false,
      "inputs": [
        {
          "indexed": true,
          "internalType": "address",
          "name": "tokenAddress",
          "type": "address"
        },
        {
          "indexed": true,
          "internalType": "uint256",
          "name": "periodId",
          "type": "uint256"
        },
        {
          "indexed": true,
          "internalType": "address",
          "name": "caller",
          "type": "address"
        },
        {
          "indexed": false,
          "internalType": "uint256",
          "name": "amount",
          "type": "uint256"
        }
      ],
      "name": "UserWithdraw",
      "type": "event"
    },
    {
      "inputs": [],
      "name": "DSLAburnRate",
      "outputs": [
        {
          "internalType": "uint256",
          "name": "",
          "type": "uint256"
        }
      ],
      "stateMutability": "view",
      "type": "function"
    },
    {
      "inputs": [
        {
          "internalType": "address",
          "name": "_tokenAddress",
          "type": "address"
        }
      ],
      "name": "addAllowedTokens",
      "outputs": [],
      "stateMutability": "nonpayable",
      "type": "function"
    },
    {
      "inputs": [
        {
          "internalType": "address[]",
          "name": "_userAddresses",
          "type": "address[]"
        }
      ],
      "name": "addUsersToWhitelist",
      "outputs": [],
      "stateMutability": "nonpayable",
      "type": "function"
    },
    {
      "inputs": [
        {
          "internalType": "uint256",
          "name": "",
          "type": "uint256"
        }
      ],
      "name": "allowedTokens",
      "outputs": [
        {
          "internalType": "address",
          "name": "",
          "type": "address"
        }
      ],
      "stateMutability": "view",
      "type": "function"
    },
    {
      "inputs": [],
      "name": "creationBlockNumber",
      "outputs": [
        {
          "internalType": "uint256",
          "name": "",
          "type": "uint256"
        }
      ],
      "stateMutability": "view",
      "type": "function"
    },
    {
      "inputs": [
        {
          "internalType": "address",
          "name": "",
          "type": "address"
        }
      ],
      "name": "dpTokenRegistry",
      "outputs": [
        {
          "internalType": "contract ERC20PresetMinterPauser",
          "name": "",
          "type": "address"
        }
      ],
      "stateMutability": "view",
      "type": "function"
    },
    {
      "inputs": [],
      "name": "dslaTokenAddress",
      "outputs": [
        {
          "internalType": "address",
          "name": "",
          "type": "address"
        }
      ],
      "stateMutability": "view",
      "type": "function"
    },
    {
      "inputs": [
        {
          "internalType": "address",
          "name": "",
          "type": "address"
        }
      ],
      "name": "duTokenRegistry",
      "outputs": [
        {
          "internalType": "contract ERC20PresetMinterPauser",
          "name": "",
          "type": "address"
        }
      ],
      "stateMutability": "view",
      "type": "function"
    },
    {
      "inputs": [
        {
          "internalType": "uint256",
          "name": "",
          "type": "uint256"
        }
      ],
      "name": "extraData",
      "outputs": [
        {
          "internalType": "bytes32",
          "name": "",
          "type": "bytes32"
        }
      ],
      "stateMutability": "view",
      "type": "function"
    },
    {
      "inputs": [],
      "name": "finalPeriodId",
      "outputs": [
        {
          "internalType": "uint128",
          "name": "",
          "type": "uint128"
        }
      ],
      "stateMutability": "view",
      "type": "function"
    },
    {
      "inputs": [],
      "name": "getAllowedTokensLength",
      "outputs": [
        {
          "internalType": "uint256",
          "name": "",
          "type": "uint256"
        }
      ],
      "stateMutability": "view",
      "type": "function"
    },
    {
      "inputs": [
        {
          "internalType": "address",
          "name": "_staker",
          "type": "address"
        },
        {
          "internalType": "uint256",
          "name": "_allowedTokenIndex",
          "type": "uint256"
        }
      ],
      "name": "getTokenStake",
      "outputs": [
        {
          "internalType": "address",
          "name": "tokenAddress",
          "type": "address"
        },
        {
          "internalType": "uint256",
          "name": "stake",
          "type": "uint256"
        }
      ],
      "stateMutability": "view",
      "type": "function"
    },
    {
      "inputs": [],
      "name": "initialPeriodId",
      "outputs": [
        {
          "internalType": "uint128",
          "name": "",
          "type": "uint128"
        }
      ],
      "stateMutability": "view",
      "type": "function"
    },
    {
      "inputs": [],
      "name": "ipfsHash",
      "outputs": [
        {
          "internalType": "string",
          "name": "",
          "type": "string"
        }
      ],
      "stateMutability": "view",
      "type": "function"
    },
    {
      "inputs": [
        {
          "internalType": "address",
          "name": "_tokenAddress",
          "type": "address"
        }
      ],
      "name": "isAllowedToken",
      "outputs": [
        {
          "internalType": "bool",
          "name": "",
          "type": "bool"
        }
      ],
      "stateMutability": "view",
      "type": "function"
    },
    {
      "inputs": [],
      "name": "leverage",
      "outputs": [
        {
          "internalType": "uint64",
          "name": "",
          "type": "uint64"
        }
      ],
      "stateMutability": "view",
      "type": "function"
    },
    {
      "inputs": [],
      "name": "messengerAddress",
      "outputs": [
        {
          "internalType": "address",
          "name": "",
          "type": "address"
        }
      ],
      "stateMutability": "view",
      "type": "function"
    },
    {
      "inputs": [],
      "name": "nextVerifiablePeriod",
      "outputs": [
        {
          "internalType": "uint256",
          "name": "",
          "type": "uint256"
        }
      ],
      "stateMutability": "view",
      "type": "function"
    },
    {
      "inputs": [],
      "name": "owner",
      "outputs": [
        {
          "internalType": "address",
          "name": "",
          "type": "address"
        }
      ],
      "stateMutability": "view",
      "type": "function"
    },
    {
      "inputs": [
        {
          "internalType": "uint256",
          "name": "",
          "type": "uint256"
        }
      ],
      "name": "periodSLIs",
      "outputs": [
        {
          "internalType": "uint256",
          "name": "timestamp",
          "type": "uint256"
        },
        {
          "internalType": "uint256",
          "name": "sli",
          "type": "uint256"
        },
        {
          "internalType": "enum SLA.Status",
          "name": "status",
          "type": "uint8"
        }
      ],
      "stateMutability": "view",
      "type": "function"
    },
    {
      "inputs": [],
      "name": "periodType",
      "outputs": [
        {
          "internalType": "enum PeriodRegistry.PeriodType",
          "name": "",
          "type": "uint8"
        }
      ],
      "stateMutability": "view",
      "type": "function"
    },
    {
      "inputs": [
        {
          "internalType": "address",
          "name": "",
          "type": "address"
        }
      ],
      "name": "providerPool",
      "outputs": [
        {
          "internalType": "uint256",
          "name": "",
          "type": "uint256"
        }
      ],
      "stateMutability": "view",
      "type": "function"
    },
    {
      "inputs": [
        {
          "internalType": "address",
          "name": "",
          "type": "address"
        }
      ],
      "name": "registeredStakers",
      "outputs": [
        {
          "internalType": "bool",
          "name": "",
          "type": "bool"
        }
      ],
      "stateMutability": "view",
      "type": "function"
    },
    {
      "inputs": [
        {
          "internalType": "address[]",
          "name": "_userAddresses",
          "type": "address[]"
        }
      ],
      "name": "removeUsersFromWhitelist",
      "outputs": [],
      "stateMutability": "nonpayable",
      "type": "function"
    },
    {
      "inputs": [],
      "name": "renounceOwnership",
      "outputs": [],
      "stateMutability": "nonpayable",
      "type": "function"
    },
    {
      "inputs": [],
      "name": "slaID",
      "outputs": [
        {
          "internalType": "uint128",
          "name": "",
          "type": "uint128"
        }
      ],
      "stateMutability": "view",
      "type": "function"
    },
    {
      "inputs": [],
      "name": "slaRegistry",
      "outputs": [
        {
          "internalType": "contract SLARegistry",
          "name": "",
          "type": "address"
        }
      ],
      "stateMutability": "view",
      "type": "function"
    },
    {
      "inputs": [
        {
          "internalType": "uint256",
          "name": "",
          "type": "uint256"
        }
      ],
      "name": "stakers",
      "outputs": [
        {
          "internalType": "address",
          "name": "",
          "type": "address"
        }
      ],
      "stateMutability": "view",
      "type": "function"
    },
    {
      "inputs": [
        {
          "internalType": "address",
          "name": "newOwner",
          "type": "address"
        }
      ],
      "name": "transferOwnership",
      "outputs": [],
      "stateMutability": "nonpayable",
      "type": "function"
    },
    {
      "inputs": [
        {
          "internalType": "address",
          "name": "",
          "type": "address"
        }
      ],
      "name": "usersPool",
      "outputs": [
        {
          "internalType": "uint256",
          "name": "",
          "type": "uint256"
        }
      ],
      "stateMutability": "view",
      "type": "function"
    },
    {
      "inputs": [
        {
          "internalType": "address",
          "name": "",
          "type": "address"
        }
      ],
      "name": "whitelist",
      "outputs": [
        {
          "internalType": "bool",
          "name": "",
          "type": "bool"
        }
      ],
      "stateMutability": "view",
      "type": "function"
    },
    {
      "inputs": [],
      "name": "whitelistedContract",
      "outputs": [
        {
          "internalType": "bool",
          "name": "",
          "type": "bool"
        }
      ],
      "stateMutability": "view",
      "type": "function"
    },
    {
      "inputs": [
        {
          "internalType": "uint256",
          "name": "_sli",
          "type": "uint256"
        },
        {
          "internalType": "uint256",
          "name": "_periodId",
          "type": "uint256"
        }
      ],
      "name": "registerSLI",
      "outputs": [],
      "stateMutability": "nonpayable",
      "type": "function"
    },
    {
      "inputs": [
        {
          "internalType": "uint256",
          "name": "_periodId",
          "type": "uint256"
        }
      ],
      "name": "isAllowedPeriod",
      "outputs": [
        {
          "internalType": "bool",
          "name": "",
          "type": "bool"
        }
      ],
      "stateMutability": "view",
      "type": "function"
    },
    {
      "inputs": [],
      "name": "contractFinished",
      "outputs": [
        {
          "internalType": "bool",
          "name": "",
          "type": "bool"
        }
      ],
      "stateMutability": "view",
      "type": "function"
    },
    {
      "inputs": [
        {
          "internalType": "uint256",
          "name": "_amount",
          "type": "uint256"
        },
        {
          "internalType": "address",
          "name": "_token",
          "type": "address"
        }
      ],
      "name": "stakeTokens",
      "outputs": [],
      "stateMutability": "nonpayable",
      "type": "function"
    },
    {
      "inputs": [
        {
          "internalType": "uint256",
          "name": "_amount",
          "type": "uint256"
        },
        {
          "internalType": "address",
          "name": "_tokenAddress",
          "type": "address"
        }
      ],
      "name": "withdrawProviderTokens",
      "outputs": [],
      "stateMutability": "nonpayable",
      "type": "function"
    },
    {
      "inputs": [
        {
          "internalType": "uint256",
          "name": "_amount",
          "type": "uint256"
        },
        {
          "internalType": "address",
          "name": "_tokenAddress",
          "type": "address"
        }
      ],
      "name": "withdrawUserTokens",
      "outputs": [],
      "stateMutability": "nonpayable",
      "type": "function"
    },
    {
      "inputs": [],
      "name": "getStakersLength",
      "outputs": [
        {
          "internalType": "uint256",
          "name": "",
          "type": "uint256"
        }
      ],
      "stateMutability": "view",
      "type": "function"
    },
    {
      "inputs": [],
      "name": "breachedContract",
      "outputs": [
        {
          "internalType": "bool",
          "name": "",
          "type": "bool"
        }
      ],
      "stateMutability": "view",
      "type": "function"
    }
  ],
  "bytecode": "0x610240604052600d805460ff191690553480156200001c57600080fd5b5060405162003fd838038062003fd88339810160408190526200003f91620008ef565b33888a86846000620000596001600160e01b03620005a716565b600080546001600160a01b0319166001600160a01b03831690811782556040519293509160008051602062003fb8833981519152908290a350846001600160a01b031663683048356040518163ffffffff1660e01b815260040160206040518083038186803b158015620000cc57600080fd5b505afa158015620000e1573d6000803e3d6000fd5b505050506040513d601f19601f82011682018060405250810190620001079190620008c9565b600160006101000a8154816001600160a01b0302191690836001600160a01b03160217905550846001600160a01b0316639fc4caa56040518163ffffffff1660e01b815260040160206040518083038186803b1580156200016757600080fd5b505afa1580156200017c573d6000803e3d6000fd5b505050506040513d601f19601f82011682018060405250810190620001a29190620008c9565b60601b6001600160601b031916608052836005811115620001bf57fe5b610100816005811115620001cf57fe5b60f890811b909152841515901b610120525060015460408051637b8041cf60e11b8152905160009283926001600160a01b039091169163f700839e9160048082019261010092909190829003018186803b1580156200022d57600080fd5b505afa15801562000242573d6000803e3d6000fd5b505050506040513d601f19601f82011682018060405250810190620002689190620009f6565b97505050505050509150600160009054906101000a90046001600160a01b03166001600160a01b0316638b8e53096040518163ffffffff1660e01b815260040160206040518083038186803b158015620002c157600080fd5b505afa158015620002d6573d6000803e3d6000fd5b505050506040513d601f19601f82011682018060405250810190620002fc9190620008c9565b60601b6001600160601b03191660c05260e082905260016009600062000321620005ac565b6001600160a01b031681526020810191909152604001600020805460ff1916911515919091179055608084901b6001600160801b03191660a0526001600160401b03818116908416118015906200038257506001836001600160401b031610155b620003aa5760405162461bcd60e51b8152600401620003a19062000aa5565b60405180910390fd5b505060c01b6001600160c01b0319166101405250620003ce92508c915050620005bb565b8251620003e390600a90602086019062000671565b506001600160601b0319606088901b1661016052600b80546001600160a01b03191633179081905560408051639fc4caa560e01b815290516001600160a01b039290921691639fc4caa591600480820192602092909190829003018186803b1580156200044f57600080fd5b505afa15801562000464573d6000803e3d6000fd5b505050506040513d601f19601f820116820180604052508101906200048a9190620008c9565b60601b6001600160601b03191661018052600b5460408051635a7d1e5d60e01b815290516001600160a01b0390921691635a7d1e5d91600480820192602092909190829003018186803b158015620004e157600080fd5b505afa158015620004f6573d6000803e3d6000fd5b505050506040513d601f19601f820116820180604052508101906200051c9190620008c9565b60601b6001600160601b0319166101a052436101c052608086811b6001600160801b03199081166101e0529086901b16610200528760058111156200055d57fe5b6102208160058111156200056d57fe5b60f81b90525081516200058890600c906020850190620006f6565b5050506001600160801b03909316600e555062000b4695505050505050565b335b90565b6000546001600160a01b031690565b620005ce6001600160e01b03620005a716565b6000546001600160a01b03908116911614620005fe5760405162461bcd60e51b8152600401620003a19062000ad1565b6001600160a01b038116620006275760405162461bcd60e51b8152600401620003a19062000a5f565b600080546040516001600160a01b038085169392169160008051602062003fb883398151915291a3600080546001600160a01b0319166001600160a01b0392909216919091179055565b828054600181600116156101000203166002900490600052602060002090601f016020900481019282601f10620006b457805160ff1916838001178555620006e4565b82800160010185558215620006e4579182015b82811115620006e4578251825591602001919060010190620006c7565b50620006f292915062000733565b5090565b828054828255906000526020600020908101928215620006e45791602002820182811115620006e4578251825591602001919060010190620006c7565b620005a991905b80821115620006f257600081556001016200073a565b80516200075d8162000b2d565b92915050565b600082601f83011262000774578081fd5b81516001600160401b038111156200078a578182fd5b60208082026200079c82820162000b06565b83815293508184018583018287018401881015620007b957600080fd5b600092505b84831015620007de578051825260019290920191908301908301620007be565b505050505092915050565b805180151581146200075d57600080fd5b8051600681106200075d57600080fd5b600082601f8301126200081b578081fd5b81516001600160401b0381111562000831578182fd5b602062000847601f8301601f1916820162000b06565b925081835284818386010111156200085e57600080fd5b60005b828110156200087e57848101820151848201830152810162000861565b82811115620008905760008284860101525b50505092915050565b80516001600160801b03811681146200075d57600080fd5b80516001600160401b03811681146200075d57600080fd5b600060208284031215620008db578081fd5b8151620008e88162000b2d565b9392505050565b6000806000806000806000806000806101408b8d0312156200090f578586fd5b6200091b8c8c62000750565b99506200092c8c60208d01620007e9565b98506200093d8c60408d01620007fa565b97506200094e8c60608d0162000750565b96506200095f8c60808d0162000899565b9550620009708c60a08d0162000899565b9450620009818c60c08d0162000899565b60e08c01519094506001600160401b03808211156200099e578485fd5b620009ac8e838f016200080a565b94506101008d0151915080821115620009c3578384fd5b50620009d28d828e0162000763565b925050620009e58c6101208d01620008b1565b90509295989b9194979a5092959850565b600080600080600080600080610100898b03121562000a13578384fd5b885197506020890151965060408901519550606089015194506080890151935060a0890151925060c0890151915062000a508a60e08b01620008b1565b90509295985092959890939650565b60208082526026908201527f4f776e61626c653a206e6577206f776e657220697320746865207a65726f206160408201526564647265737360d01b606082015260800190565b602080825260129082015271496e636f7272656374206c6576657261676560701b604082015260600190565b6020808252818101527f4f776e61626c653a2063616c6c6572206973206e6f7420746865206f776e6572604082015260600190565b6040518181016001600160401b038111828210171562000b2557600080fd5b604052919050565b6001600160a01b038116811462000b4357600080fd5b50565b60805160601c60a05160801c60c05160601c60e0516101005160f81c6101205160f81c6101405160c01c6101605160601c6101805160601c6101a05160601c6101c0516101e05160801c6102005160801c6102205160f81c61337362000c4560003980610d51528061129b5250806105345280610d0952806112bc528061136a528061183f5250806104fb5280610bf852806117d4528061181e525080610bd452508061164952806116e852508061126c5250806113d9528061159c525080610ce55280611aff52806121fc52806125ab525080610bb05280611a36525050806110735250806119d852508061094052806118fe5250506133736000f3fe608060405234801561001057600080fd5b50600436106102485760003560e01c806378025ec41161013b578063b7bc347e116100b8578063db69a4621161007c578063db69a462146104b9578063f2db10fe146104c1578063f2fde38b146104c9578063f7e9dfff146104dc578063fd5e6dd1146104e457610248565b8063b7bc347e14610463578063c623674f1461046b578063c8b5c24814610480578063cbe230c314610493578063d7a5c422146104a657610248565b80639b19251a116100ff5780639b19251a146104255780639fabeb0014610438578063a224ee9c14610440578063a7e8d8d414610448578063b1659bad1461045b57610248565b806378025ec4146103e75780637fd788aa146103fa5780638d21c770146104025780638da5cb5b1461041557806396f76f111461041d57610248565b806346e0fbae116101c95780635ae698ff1161018d5780635ae698ff1461039e5780635c1c20de146103b15780635e5f2e26146103b9578063639b6fc3146103cc578063715018a6146103df57610248565b806346e0fbae14610322578063484fbf2b146103375780634e0c91f61461034a5780634fb2647e1461036a57806357ac94f01461037d57610248565b80632526743a116102105780632526743a146102bb57806326db18ac146102d05780632c86d98e146102e35780633385d334146102f85780634190edde1461030057610248565b8063021eef7f1461024d5780630bea440d14610276578063171e44ea1461028b57806318e454271461029e5780631bf30929146102a6575b600080fd5b61026061025b366004612ace565b6104f7565b60405161026d9190612d5d565b60405180910390f35b610289610284366004612afe565b610574565b005b6102896102993660046128b6565b610726565b610260610bae565b6102ae610bd2565b60405161026d9190612d68565b6102c3610bf6565b60405161026d9190613223565b6102896102de366004612afe565b610c1a565b6102eb610ce3565b60405161026d9190613298565b6102c3610d07565b61031361030e366004612ace565b610d2b565b60405161026d9392919061325c565b61032a610d4f565b60405161026d9190612d71565b6102ae6103453660046128b6565b610d73565b61035d6103583660046128b6565b610d85565b60405161026d9190612d0c565b61035d6103783660046128b6565b610da0565b61039061038b3660046128ee565b610dbb565b60405161026d929190612d20565b6102896103ac366004612984565b610f97565b6102ae611071565b61035d6103c7366004612ace565b611095565b6102ae6103da3660046128b6565b6110bc565b6102896110ce565b6102ae6103f5366004612ace565b61114d565b61026061116b565b610289610410366004612919565b611174565b61035d611258565b610260611267565b6102606104333660046128b6565b6113bc565b6102ae6113d1565b61035d6113d7565b6102606104563660046128b6565b6113fb565b6102ae611410565b6102ae611416565b61047361141c565b60405161026d9190612dac565b61028961048e366004612afe565b6114aa565b6102606104a13660046128b6565b611536565b6102896104b4366004612b54565b611591565b61035d6118ed565b6102c36118fc565b6102896104d73660046128b6565b611920565b61035d6119d6565b61035d6104f2366004612ace565b6119fa565b60007f00000000000000000000000000000000000000000000000000000000000000006001600160801b03168210156105325750600061056f565b7f00000000000000000000000000000000000000000000000000000000000000006001600160801b031682111561056b5750600061056f565b5060015b919050565b816000811161059e5760405162461bcd60e51b8152600401610595906131ad565b60405180910390fd5b60006105a8611267565b905080156105c85760405162461bcd60e51b815260040161059590613026565b6105d28484611a07565b336001600160a01b0316600e54846001600160a01b03167f1bd1eb6b4fd3f08e718d7a241c54c4641c9f36004b6949383f48d15a2fcc8f52876040516106189190612d68565b60405180910390a4600b5460408051636830483560e01b815290516000926001600160a01b0316916368304835916004808301926020929190829003018186803b15801561066557600080fd5b505afa158015610679573d6000803e3d6000fd5b505050506040513d601f19601f8201168201806040525081019061069d91906128d2565b604051635948284760e11b81529091506001600160a01b0382169063b290508e906106cc903390600401612d0c565b602060405180830381600087803b1580156106e657600080fd5b505af11580156106fa573d6000803e3d6000fd5b505050506040513d601f19601f8201168201806040525081019061071e9190612a23565b505050505050565b61072e611f69565b6000546001600160a01b0390811691161461075b5760405162461bcd60e51b8152600401610595906130dd565b60015460408051637b8041cf60e11b815290516000926001600160a01b03169163f700839e91600480830192610100929190829003018186803b1580156107a157600080fd5b505afa1580156107b5573d6000803e3d6000fd5b505050506040513d601f19601f820116820180604052508101906107d99190612b98565b5096505050505050506107eb82611536565b156108085760405162461bcd60e51b815260040161059590613149565b60015460405163cbe230c360e01b81526001600160a01b039091169063cbe230c390610838908590600401612d0c565b60206040518083038186803b15801561085057600080fd5b505afa158015610864573d6000803e3d6000fd5b505050506040513d601f19601f820116820180604052508101906108889190612a23565b6108a45760405162461bcd60e51b815260040161059590612f10565b6008805460018101825560008290527ff3f7a9fe364faab93b216da50a3214154f22a0a2b415b23a84c8169e8b636ee30180546001600160a01b0319166001600160a01b0385161790555481101561090e5760405162461bcd60e51b815260040161059590612ded565b60405163fc966d4560e01b815260609073__StringUtils___________________________9063fc966d4590610968907f000000000000000000000000000000000000000000000000000000000000000090600401613223565b60006040518083038186803b15801561098057600080fd5b505af4158015610994573d6000803e3d6000fd5b505050506040513d6000823e601f3d908101601f191682016040526109bc9190810190612a43565b90506060816040516020016109d19190612c54565b60405160208183030381529060405290506060826040516020016109f59190612c87565b6040516020818303038152906040529050606083604051602001610a199190612cb7565b6040516020818303038152906040529050606084604051602001610a3d9190612ce9565b60408051601f1981840301815290829052600154633350214760e11b83529092506000916001600160a01b03909116906366a0428e90610a839088908890600401612dbf565b602060405180830381600087803b158015610a9d57600080fd5b505af1158015610ab1573d6000803e3d6000fd5b505050506040513d601f19601f82011682018060405250810190610ad591906128d2565b600154604051633350214760e11b81529192506000916001600160a01b03909116906366a0428e90610b0d9087908790600401612dbf565b602060405180830381600087803b158015610b2757600080fd5b505af1158015610b3b573d6000803e3d6000fd5b505050506040513d601f19601f82011682018060405250810190610b5f91906128d2565b6001600160a01b03998a1660009081526005602090815260408083208054948e166001600160a01b031995861617905560049091529020805493909a1692169190911790975550505050505050565b7f000000000000000000000000000000000000000000000000000000000000000081565b7f000000000000000000000000000000000000000000000000000000000000000081565b7f000000000000000000000000000000000000000000000000000000000000000081565b8160008111610c3b5760405162461bcd60e51b8152600401610595906131ad565b610c43611258565b6001600160a01b0316336001600160a01b031614610c86576000610c65611267565b905080610c845760405162461bcd60e51b815260040161059590613112565b505b336001600160a01b0316600e54836001600160a01b03167f5d73c1b3aab5bae46e08e09668d192166389623bef76bbe8cdae8df8ad320fce86604051610ccc9190612d68565b60405180910390a4610cde8383611f6d565b505050565b7f000000000000000000000000000000000000000000000000000000000000000081565b7f000000000000000000000000000000000000000000000000000000000000000081565b600f6020526000908152604090208054600182015460029092015490919060ff1683565b7f000000000000000000000000000000000000000000000000000000000000000081565b60036020526000908152604090205481565b6004602052600090815260409020546001600160a01b031681565b6005602052600090815260409020546001600160a01b031681565b600080600060088481548110610dcd57fe5b6000918252602090912001546001600160a01b03169050610dec611258565b6001600160a01b0316856001600160a01b03161415610e28576001600160a01b0381166000908152600260205260409020549092509050610f90565b6001600160a01b0380821660009081526004602081815260408084205481516318160ddd60e01b8152915195169485936318160ddd938382019390929190829003018186803b158015610e7a57600080fd5b505afa158015610e8e573d6000803e3d6000fd5b505050506040513d601f19601f82011682018060405250810190610eb29190612ae6565b905080610ec8575090925060009150610f909050565b6040516370a0823160e01b81526000906001600160a01b038416906370a0823190610ef7908b90600401612d0c565b60206040518083038186803b158015610f0f57600080fd5b505afa158015610f23573d6000803e3d6000fd5b505050506040513d601f19601f82011682018060405250810190610f479190612ae6565b6001600160a01b0385166000908152600360205260409020549091508490610f87908490610f7b908563ffffffff61211416565b9063ffffffff61215716565b95509550505050505b9250929050565b610f9f611f69565b6000546001600160a01b03908116911614610fcc5760405162461bcd60e51b8152600401610595906130dd565b60005b815181101561106d5760096000838381518110610fe857fe5b6020908102919091018101516001600160a01b031682528101919091526040016000205460ff166110655760016009600084848151811061102557fe5b60200260200101516001600160a01b03166001600160a01b0316815260200190815260200160002060006101000a81548160ff0219169083151502179055505b600101610fcf565b5050565b7f000000000000000000000000000000000000000000000000000000000000000081565b600881815481106110a257fe5b6000918252602090912001546001600160a01b0316905081565b60026020526000908152604090205481565b6110d6611f69565b6000546001600160a01b039081169116146111035760405162461bcd60e51b8152600401610595906130dd565b600080546040516001600160a01b03909116907f8be0079c531659141344cd1fd0a4f28419497f9722a3daafe3b4186f6b6457e0908390a3600080546001600160a01b0319169055565b600c818154811061115a57fe5b600091825260209091200154905081565b600d5460ff1690565b61117c611f69565b6000546001600160a01b039081169116146111a95760405162461bcd60e51b8152600401610595906130dd565b60005b81811015610cde57600960008484848181106111c457fe5b90506020020160208101906111d991906128b6565b6001600160a01b0316815260208101919091526040016000205460ff161515600114156112505760006009600085858581811061121257fe5b905060200201602081019061122791906128b6565b6001600160a01b031681526020810191909152604001600020805460ff19169115159190911790555b6001016111ac565b6000546001600160a01b031690565b6000807f00000000000000000000000000000000000000000000000000000000000000006001600160a01b031663ffa612357f00000000000000000000000000000000000000000000000000000000000000007f00000000000000000000000000000000000000000000000000000000000000006040518363ffffffff1660e01b81526004016112f8929190612d86565b604080518083038186803b15801561130f57600080fd5b505afa158015611323573d6000803e3d6000fd5b505050506040513d601f19601f820116820180604052508101906113479190612b75565b600d5490925060ff1615156001149050806113b657508042101580156113b657507f00000000000000000000000000000000000000000000000000000000000000006001600160801b03166000908152600f6020526040812060029081015460ff16908111156113b357fe5b14155b91505090565b60096020526000908152604090205460ff1681565b60065490565b7f000000000000000000000000000000000000000000000000000000000000000081565b60076020526000908152604090205460ff1681565b600e5481565b60085490565b600a805460408051602060026001851615610100026000190190941693909304601f810184900484028201840190925281815292918301828280156114a25780601f10611477576101008083540402835291602001916114a2565b820191906000526020600020905b81548152906001019060200180831161148557829003601f168201915b505050505081565b81600081116114cb5760405162461bcd60e51b8152600401610595906131ad565b60006114d5611267565b90506114e2848483612199565b336001600160a01b0316600e54846001600160a01b03167fbd9be3d6449ecbdf4b3b9980b1631ec06c13d8cf9e09e2433075f123b348e3ba876040516115289190612d68565b60405180910390a450505050565b6000805b60085481101561158857826001600160a01b03166008828154811061155b57fe5b6000918252602090912001546001600160a01b0316141561158057600191505061056f565b60010161153a565b50600092915050565b336001600160a01b037f000000000000000000000000000000000000000000000000000000000000000016146115d95760405162461bcd60e51b815260040161059590612f5d565b7fc95987c1992805ee34bdc915e017cceae36ba1c156b9911fa7e691e6435eb46e42838360405161160c93929190613282565b60405180910390a16001808201600e556000828152600f60205260408082209283018590554283555163a7b72ac560e01b81526001600160a01b037f0000000000000000000000000000000000000000000000000000000000000000169063a7b72ac59061167e903090600401612d0c565b604080518083038186803b15801561169557600080fd5b505afa1580156116a9573d6000803e3d6000fd5b505050506040513d601f19601f820116820180604052508101906116cd9190612b2d565b50604051631993b9df60e01b81529091506001600160a01b037f00000000000000000000000000000000000000000000000000000000000000001690631993b9df9061171f9087903090600401613237565b60206040518083038186803b15801561173757600080fd5b505afa15801561174b573d6000803e3d6000fd5b505050506040513d601f19601f8201168201806040525081019061176f9190612a23565b15611887576002828101805460ff19166001179055612710906000906117bd9061179d90610f7b89876123d3565b610f7b846117b18a8863ffffffff6123f816565b9063ffffffff61211416565b9050600061180b60016117ff886001600160801b037f00000000000000000000000000000000000000000000000000000000000000001663ffffffff6123f816565b9063ffffffff6123d316565b905060006118716001600160801b0360017f00000000000000000000000000000000000000000000000000000000000000007f0000000000000000000000000000000000000000000000000000000000000000030116610f7b858563ffffffff61211416565b905061187e87828661243a565b505050506118e7565b6002828101805460ff1916909117905561189f612559565b600d805460ff191660011790556040517fbd33f7a3bfa88a467c9df5ae7d2341cf061084c386b20a0d48130f5cbce38a4d906118de908590879061324e565b60405180910390a15b50505050565b600b546001600160a01b031681565b7f000000000000000000000000000000000000000000000000000000000000000081565b611928611f69565b6000546001600160a01b039081169116146119555760405162461bcd60e51b8152600401610595906130dd565b6001600160a01b03811661197b5760405162461bcd60e51b815260040161059590612e40565b600080546040516001600160a01b03808516939216917f8be0079c531659141344cd1fd0a4f28419497f9722a3daafe3b4186f6b6457e091a3600080546001600160a01b0319166001600160a01b0392909216919091179055565b7f000000000000000000000000000000000000000000000000000000000000000081565b600681815481106110a257fe5b80611a1181611536565b1515600114611a325760405162461bcd60e51b8152600401610595906130af565b60017f000000000000000000000000000000000000000000000000000000000000000015151415611a91573360009081526009602052604090205460ff161515600114611a915760405162461bcd60e51b815260040161059590612ff5565b611aac6001600160a01b03831633308663ffffffff61266116565b611ab4611258565b6001600160a01b0316336001600160a01b031614611d23576001600160a01b03821660009081526002602090815260408083205460039092529091205481611b2f6001600160401b037f0000000000000000000000000000000000000000000000000000000000000000166117b1848963ffffffff6123d316565b1115611b4d5760405162461bcd60e51b815260040161059590612fa2565b6001600160a01b0380851660009081526004602081815260408084205481516318160ddd60e01b8152915195169485936318160ddd938382019390929190829003018186803b158015611b9f57600080fd5b505afa158015611bb3573d6000803e3d6000fd5b505050506040513d601f19601f82011682018060405250810190611bd79190612ae6565b905080611c43576040516340c10f1960e01b81526001600160a01b038316906340c10f1990611c0c9033908b90600401612d20565b600060405180830381600087803b158015611c2657600080fd5b505af1158015611c3a573d6000803e3d6000fd5b50505050611cd7565b6001600160a01b03861660009081526003602052604081205490611c7182610f7b8b8663ffffffff61211416565b6040516340c10f1960e01b81529091506001600160a01b038516906340c10f1990611ca29033908590600401612d20565b600060405180830381600087803b158015611cbc57600080fd5b505af1158015611cd0573d6000803e3d6000fd5b5050505050505b6001600160a01b038616600090815260036020526040902054611d00908863ffffffff6123d316565b6001600160a01b03871660009081526003602052604090205550611ef192505050565b6001600160a01b0380831660009081526005602090815260408083205481516318160ddd60e01b8152915194169384926318160ddd9260048082019391829003018186803b158015611d7457600080fd5b505afa158015611d88573d6000803e3d6000fd5b505050506040513d601f19601f82011682018060405250810190611dac9190612ae6565b905080611e18576040516340c10f1960e01b81526001600160a01b038316906340c10f1990611de19033908990600401612d20565b600060405180830381600087803b158015611dfb57600080fd5b505af1158015611e0f573d6000803e3d6000fd5b50505050611eac565b6001600160a01b03841660009081526002602052604081205490611e4682610f7b898663ffffffff61211416565b6040516340c10f1960e01b81529091506001600160a01b038516906340c10f1990611e779033908590600401612d20565b600060405180830381600087803b158015611e9157600080fd5b505af1158015611ea5573d6000803e3d6000fd5b5050505050505b6001600160a01b038416600090815260026020526040902054611ed5908663ffffffff6123d316565b6001600160a01b03851660009081526002602052604090205550505b3360009081526007602052604090205460ff16610cde57336000818152600760205260408120805460ff191660019081179091556006805491820181559091527ff652222313e28459528d920b65115c16c04f3efc82aaedc97be59f3f377c0d3f0180546001600160a01b0319169091179055505050565b3390565b80611f7781611536565b1515600114611f985760405162461bcd60e51b8152600401610595906130af565b6001600160a01b0380831660009081526004602081815260408084205481516318160ddd60e01b8152915195169485936318160ddd938382019390929190829003018186803b158015611fea57600080fd5b505afa158015611ffe573d6000803e3d6000fd5b505050506040513d601f19601f820116820180604052508101906120229190612ae6565b6001600160a01b03851660009081526003602052604081205491925061205282610f7b898663ffffffff61211416565b60405163079cc67960e41b81529091506001600160a01b038516906379cc6790906120839033908590600401612d20565b600060405180830381600087803b15801561209d57600080fd5b505af11580156120b1573d6000803e3d6000fd5b5050506001600160a01b0387166000908152600360205260409020546120de91508863ffffffff6123f816565b6001600160a01b03871660008181526003602052604090209190915561210b90338963ffffffff6126b916565b50505050505050565b60008261212357506000612151565b8282028284828161213057fe5b041461214e5760405162461bcd60e51b81526004016105959061306e565b90505b92915050565b600061214e83836040518060400160405280601a81526020017f536166654d6174683a206469766973696f6e206279207a65726f0000000000008152506126d8565b816121a381611536565b15156001146121c45760405162461bcd60e51b8152600401610595906130af565b6001600160a01b0383166000908152600260209081526040808320546003909252909120548361225557612227816001600160401b037f00000000000000000000000000000000000000000000000000000000000000001663ffffffff61211416565b612237838863ffffffff6123f816565b10156122555760405162461bcd60e51b815260040161059590612e86565b6001600160a01b0380861660009081526005602090815260408083205481516318160ddd60e01b8152915194169384926318160ddd9260048082019391829003018186803b1580156122a657600080fd5b505afa1580156122ba573d6000803e3d6000fd5b505050506040513d601f19601f820116820180604052508101906122de9190612ae6565b6001600160a01b03881660009081526002602052604081205491925061230e82610f7b8c8663ffffffff61211416565b60405163079cc67960e41b81529091506001600160a01b038516906379cc67909061233f9033908590600401612d20565b600060405180830381600087803b15801561235957600080fd5b505af115801561236d573d6000803e3d6000fd5b5050506001600160a01b038a1660009081526002602052604090205461239a91508b63ffffffff6123f816565b6001600160a01b038a166000818152600260205260409020919091556123c790338c63ffffffff6126b916565b50505050505050505050565b60008282018381101561214e5760405162461bcd60e51b815260040161059590612ed9565b600061214e83836040518060400160405280601e81526020017f536166654d6174683a207375627472616374696f6e206f766572666c6f77000081525061270f565b60005b6008548110156118e75760006008828154811061245657fe5b60009182526020808320909101546001600160a01b0316808352600390915260408220549092509061249285610f7b848963ffffffff61211416565b6001600160a01b0384166000908152600360205260409020549091506124be908263ffffffff6123f816565b6001600160a01b0384166000908152600360209081526040808320939093556002905220546124f3908263ffffffff6123d316565b6001600160a01b0384166000818152600260205260409081902092909255905188907f3173c1c4b679e2da86dbb0382bde749a6e16cd31912c5410e17985cd7d2b905290612546908a908a908790613282565b60405180910390a350505060010161243d565b60005b60085481101561265e5760006008828154811061257557fe5b60009182526020808320909101546001600160a01b031680835260039091526040822054909250906125d6826001600160401b037f00000000000000000000000000000000000000000000000000000000000000001663ffffffff61211416565b6001600160a01b038416600090815260026020526040902054909150612602908263ffffffff6123f816565b6001600160a01b038416600090815260026020908152604080832093909355600390522054612637908263ffffffff6123d316565b6001600160a01b03909316600090815260036020526040902092909255505060010161255c565b50565b6118e7846323b872dd60e01b85858560405160240161268293929190612d39565b60408051601f198184030181529190526020810180516001600160e01b03166001600160e01b03199093169290921790915261273b565b610cde8363a9059cbb60e01b8484604051602401612682929190612d20565b600081836126f95760405162461bcd60e51b81526004016105959190612dac565b50600083858161270557fe5b0495945050505050565b600081848411156127335760405162461bcd60e51b81526004016105959190612dac565b505050900390565b6060612790826040518060400160405280602081526020017f5361666545524332303a206c6f772d6c6576656c2063616c6c206661696c6564815250856001600160a01b03166127ca9092919063ffffffff16565b805190915015610cde57808060200190518101906127ae9190612a23565b610cde5760405162461bcd60e51b8152600401610595906131d9565b60606127d984846000856127e1565b949350505050565b60606127ec856128a5565b6128085760405162461bcd60e51b815260040161059590613176565b60006060866001600160a01b031685876040516128259190612c38565b60006040518083038185875af1925050503d8060008114612862576040519150601f19603f3d011682016040523d82523d6000602084013e612867565b606091505b5091509150811561287b5791506127d99050565b80511561288b5780518082602001fd5b8360405162461bcd60e51b81526004016105959190612dac565b3b151590565b803561215181613328565b6000602082840312156128c7578081fd5b813561214e81613328565b6000602082840312156128e3578081fd5b815161214e81613328565b60008060408385031215612900578081fd5b823561290b81613328565b946020939093013593505050565b6000806020838503121561292b578182fd5b82356001600160401b0380821115612941578384fd5b81850186601f820112612952578485fd5b8035925081831115612962578485fd5b8660208085028301011115612975578485fd5b60200196919550909350505050565b60006020808385031215612996578182fd5b82356001600160401b038111156129ab578283fd5b80840185601f8201126129bc578384fd5b803591506129d16129cc836132d2565b6132ac565b82815283810190828501858502840186018910156129ed578687fd5b8693505b84841015612a1757612a0389826128ab565b8352600193909301929185019185016129f1565b50979650505050505050565b600060208284031215612a34578081fd5b8151801515811461214e578182fd5b600060208284031215612a54578081fd5b81516001600160401b0380821115612a6a578283fd5b81840185601f820112612a7b578384fd5b8051925081831115612a8b578384fd5b612a9e601f8401601f19166020016132ac565b9150828252856020848301011115612ab4578384fd5b612ac58360208401602084016132fc565b50949350505050565b600060208284031215612adf578081fd5b5035919050565b600060208284031215612af7578081fd5b5051919050565b60008060408385031215612b10578182fd5b823591506020830135612b2281613328565b809150509250929050565b60008060408385031215612b3f578182fd5b82519150602083015160068110612b22578182fd5b60008060408385031215612b66578182fd5b50508035926020909101359150565b60008060408385031215612b87578182fd5b505080516020909101519092909150565b600080600080600080600080610100898b031215612bb4578384fd5b885197506020890151965060408901519550606089015194506080890151935060a0890151925060c0890151915060e08901516001600160401b0381168114612bfb578182fd5b809150509295985092959890939650565b60008151808452612c248160208601602086016132fc565b601f01601f19169290920160200192915050565b60008251612c4a8184602087016132fc565b9190910192915050565b60006a44534c412d53484f52542d60a81b82528251612c7a81600b8501602087016132fc565b91909101600b0192915050565b60006744534c412d53502d60c01b82528251612caa8160088501602087016132fc565b9190910160080192915050565b60006944534c412d4c4f4e472d60b01b82528251612cdc81600a8501602087016132fc565b91909101600a0192915050565b60006744534c412d4c502d60c01b82528251612caa8160088501602087016132fc565b6001600160a01b0391909116815260200190565b6001600160a01b03929092168252602082015260400190565b6001600160a01b039384168152919092166020820152604081019190915260600190565b901515815260200190565b90815260200190565b60208101612d7e836132f1565b825292915050565b60408101612d93846132f1565b82526001600160801b0392909216602090910152919050565b60006020825261214e6020830184612c0c565b600060408252612dd26040830185612c0c565b8281036020840152612de48185612c0c565b95945050505050565b60208082526033908201527f416c6c6f77656420746f6b656e73206c656e67746820677265617465722074686040820152720c2dc40dac2f040e8ded6cadc40d8cadccee8d606b1b606082015260800190565b60208082526026908201527f4f776e61626c653a206e6577206f776e657220697320746865207a65726f206160408201526564647265737360d01b606082015260800190565b60208082526033908201527f53686f756c64206e6f74207769746864726177206d6f7265207468616e206c6560408201527276657261676564207573657273207374616b6560681b606082015260800190565b6020808252601b908201527f536166654d6174683a206164646974696f6e206f766572666c6f770000000000604082015260600190565b6020808252602d908201527f546f6b656e206e6f7420616c6c6f7765642062792074686520534c415265676960408201526c1cdd1c9e4818dbdb9d1c9858dd609a1b606082015260800190565b60208082526025908201527f4f6e6c79204d657373656e6765722063616e2063616c6c20746869732066756e60408201526431ba34b7b760d91b606082015260800190565b60208082526033908201527f43616e6e6f74207374616b65206d6f7265207468616e206c657665726167656460408201527220534c412070726f7669646572207374616b6560681b606082015260800190565b602080825260179082015276155cd95c881a5cc81b9bdd081dda1a5d195b1a5cdd1959604a1b604082015260600190565b60208082526028908201527f43616e206f6e6c79207374616b65206f6e206e6f742066696e697368656420636040820152676f6e74726163747360c01b606082015260800190565b60208082526021908201527f536166654d6174683a206d756c7469706c69636174696f6e206f766572666c6f6040820152607760f81b606082015260800190565b6020808252601490820152731d1bdad95b881a5cc81b9bdd08185b1b1bddd95960621b604082015260600190565b6020808252818101527f4f776e61626c653a2063616c6c6572206973206e6f7420746865206f776e6572604082015260600190565b6020808252601a908201527f4f6e6c7920666f722066696e697368656420636f6e7472616374000000000000604082015260600190565b602080825260139082015272151bdad95b88185b1c9958591e481859191959606a1b604082015260600190565b6020808252601d908201527f416464726573733a2063616c6c20746f206e6f6e2d636f6e7472616374000000604082015260600190565b6020808252601290820152710616d6f756e742063616e6e6f7420626520360741b604082015260600190565b6020808252602a908201527f5361666545524332303a204552433230206f7065726174696f6e20646964206e6040820152691bdd081cdd58d8d9595960b21b606082015260800190565b6001600160801b0391909116815260200190565b9182526001600160a01b0316602082015260400190565b918252602082015260400190565b83815260208101839052606081016003831061327457fe5b826040830152949350505050565b9283526020830191909152604082015260600190565b6001600160401b0391909116815260200190565b6040518181016001600160401b03811182821017156132ca57600080fd5b604052919050565b60006001600160401b038211156132e7578081fd5b5060209081020190565b806006811061056f57fe5b60005b838110156133175781810151838201526020016132ff565b838111156118e75750506000910152565b6001600160a01b038116811461265e57600080fdfea264697066735822122010433ba7a91af3044275282122adcbf6ada75704351053b13150a1b690861b0064736f6c634300060600338be0079c531659141344cd1fd0a4f28419497f9722a3daafe3b4186f6b6457e0",
  "immutableReferences": {
    "1522": [
      {
        "length": 32,
        "start": 5081
      },
      {
        "length": 32,
        "start": 5532
      }
    ],
    "1526": [
      {
        "length": 32,
        "start": 4716
      }
    ],
    "1528": [
      {
        "length": 32,
        "start": 5705
      },
      {
        "length": 32,
        "start": 5864
      }
    ],
    "1530": [
      {
        "length": 32,
        "start": 3028
      }
    ],
    "1532": [
      {
        "length": 32,
        "start": 1275
      },
      {
        "length": 32,
        "start": 3064
      },
      {
        "length": 32,
        "start": 6100
      },
      {
        "length": 32,
        "start": 6174
      }
    ],
    "1534": [
      {
        "length": 32,
        "start": 1332
      },
      {
        "length": 32,
        "start": 3337
      },
      {
        "length": 32,
        "start": 4796
      },
      {
        "length": 32,
        "start": 4970
      },
      {
        "length": 32,
        "start": 6207
      }
    ],
    "1536": [
      {
        "length": 32,
        "start": 3409
      },
      {
        "length": 32,
        "start": 4763
      }
    ],
    "3783": [
      {
        "length": 32,
        "start": 2368
      },
      {
        "length": 32,
        "start": 6398
      }
    ],
    "3808": [
      {
        "length": 32,
        "start": 6616
      }
    ],
    "3813": [
      {
        "length": 32,
        "start": 4211
      }
    ],
    "3817": [
      {
        "length": 32,
        "start": 2992
      },
      {
        "length": 32,
        "start": 6710
      }
    ],
    "3823": [
      {
        "length": 32,
        "start": 3301
      },
      {
        "length": 32,
        "start": 6911
      },
      {
        "length": 32,
        "start": 8700
      },
      {
        "length": 32,
        "start": 9643
      }
    ]
  },
  "source": "// SPDX-License-Identifier: MIT\npragma solidity 0.6.6;\npragma experimental ABIEncoderV2;\n\nimport \"@openzeppelin/contracts/access/Ownable.sol\";\nimport \"@openzeppelin/contracts/token/ERC20/IERC20.sol\";\nimport \"@openzeppelin/contracts/math/SafeMath.sol\";\nimport \"./SLARegistry.sol\";\nimport \"./SLORegistry.sol\";\nimport \"./StakeRegistry.sol\";\nimport \"./PeriodRegistry.sol\";\nimport \"./Staking.sol\";\n\n/**\n * @title SLA\n * @dev SLA is a service level agreement contract used for service downtime\n * compensation\n */\ncontract SLA is Staking {\n    using SafeMath for uint256;\n\n    enum Status {NotVerified, Respected, NotRespected}\n\n    struct PeriodSLI {\n        uint256 timestamp;\n        uint256 sli;\n        Status status;\n    }\n\n    //\n    string public ipfsHash;\n    address public immutable messengerAddress;\n    SLARegistry public slaRegistry;\n    PeriodRegistry private immutable periodRegistry;\n    SLORegistry private immutable sloRegistry;\n    uint256 public immutable creationBlockNumber;\n    uint128 public immutable initialPeriodId;\n    uint128 public immutable finalPeriodId;\n    PeriodRegistry.PeriodType public immutable periodType;\n    /// @dev extra data for customized workflows\n    bytes32[] public extraData;\n\n    bool private _breachedContract = false;\n    uint256 public nextVerifiablePeriod;\n\n    /// @dev periodId=>PeriodSLI mapping\n    mapping(uint256 => PeriodSLI) public periodSLIs;\n\n    /**\n     * @dev event for SLI creation logging\n     * @param timestamp 1. the time the SLI has been registered\n     * @param sli 2. the value of the SLI\n     * @param periodId 3. the id of the given period\n     */\n    event SLICreated(uint256 timestamp, uint256 sli, uint256 periodId);\n\n    /**\n     * @dev event for SLI creation logging\n     * @param _periodId 1. the id of the given period\n     * @param _sli 2. value of the SLI\n     */\n    event SLANotRespected(uint256 _periodId, uint256 _sli);\n\n    /**\n     * @dev event for Stake loging\n     * @param tokenAddress 1. -\n     * @param periodId 2. -\n     * @param amount 3. -\n     * @param caller 4. -\n     */\n    event Stake(\n        address indexed tokenAddress,\n        uint256 indexed periodId,\n        address indexed caller,\n        uint256 amount\n    );\n    /**\n     * @dev event for Stake loging\n     * @param tokenAddress 1. -\n     * @param periodId 2. -\n     * @param amount 3. -\n     * @param caller 4. -\n     */\n    event ProviderWithdraw(\n        address indexed tokenAddress,\n        uint256 indexed periodId,\n        address indexed caller,\n        uint256 amount\n    );\n    /**\n     * @dev event for Stake loging\n     * @param tokenAddress 1. -\n     * @param periodId 2. -\n     * @param amount 3. -\n     * @param caller 4. -\n     */\n    event UserWithdraw(\n        address indexed tokenAddress,\n        uint256 indexed periodId,\n        address indexed caller,\n        uint256 amount\n    );\n\n    /**\n     * @dev throws if called by any address other than the messenger contract.\n     */\n    modifier onlyMessenger() {\n        require(\n            msg.sender == messengerAddress,\n            \"Only Messenger can call this function\"\n        );\n        _;\n    }\n\n    /**\n     * @dev throws if called by any address other than the messenger contract.\n     */\n    modifier onlySLARegistry() {\n        require(\n            msg.sender == address(slaRegistry),\n            \"Only SLARegistry can call this function\"\n        );\n        _;\n    }\n\n    /**\n     * @dev throws if called with an amount less or equal to zero.\n     */\n    modifier notZero(uint256 _amount) {\n        require(_amount > 0, \"amount cannot be 0\");\n        _;\n    }\n\n    /**\n     * @param _owner 1. -\n     * @param _ipfsHash 3. -\n     * @param _messengerAddress 3. -\n     * @param _initialPeriodId 4. -\n     * @param _finalPeriodId 4. -\n     * @param _periodType 5. -\n     * @param _whitelisted 8. -\n     * @param _extraData 9. -\n     * @param _slaID 10. -\n     */\n    constructor(\n        address _owner,\n        bool _whitelisted,\n        PeriodRegistry.PeriodType _periodType,\n        address _messengerAddress,\n        uint128 _initialPeriodId,\n        uint128 _finalPeriodId,\n        uint128 _slaID,\n        string memory _ipfsHash,\n        bytes32[] memory _extraData,\n        uint64 _leverage\n    )\n        public\n        Staking(\n            SLARegistry(msg.sender),\n            _periodType,\n            _whitelisted,\n            _slaID,\n            _leverage\n        )\n    {\n        transferOwnership(_owner);\n        ipfsHash = _ipfsHash;\n        messengerAddress = _messengerAddress;\n        slaRegistry = SLARegistry(msg.sender);\n        periodRegistry = slaRegistry.periodRegistry();\n        sloRegistry = slaRegistry.sloRegistry();\n        creationBlockNumber = block.number;\n        initialPeriodId = _initialPeriodId;\n        finalPeriodId = _finalPeriodId;\n        periodType = _periodType;\n        extraData = _extraData;\n        nextVerifiablePeriod = _initialPeriodId;\n    }\n\n    /**\n     * @dev external function to register SLI's and check them against the SLORegistry\n     * @param _sli 1. the value of the SLI to check\n     * @param _periodId 2. the id of the given period\n     */\n    function registerSLI(uint256 _sli, uint256 _periodId)\n        external\n        onlyMessenger\n    {\n        emit SLICreated(block.timestamp, _sli, _periodId);\n        nextVerifiablePeriod = _periodId + 1;\n        PeriodSLI storage periodSLI = periodSLIs[_periodId];\n        periodSLI.sli = _sli;\n        periodSLI.timestamp = block.timestamp;\n        (uint256 sloValue, ) = sloRegistry.registeredSLO(address(this));\n        if (sloRegistry.isRespected(_sli, address(this))) {\n            periodSLI.status = Status.Respected;\n            uint256 precision = 10000;\n            uint256 deviation =\n                _sli.sub(sloValue).mul(precision).div(\n                    _sli.add(sloValue).div(2)\n                );\n            uint256 normalizedPeriodId = _periodId.sub(initialPeriodId).add(1);\n            uint256 rewardPercentage =\n                deviation.mul(normalizedPeriodId).div(\n                    finalPeriodId - initialPeriodId + 1\n                );\n            _setRespectedPeriodReward(_periodId, rewardPercentage, precision);\n        } else {\n            periodSLI.status = Status.NotRespected;\n            _setUsersCompensation();\n            _breachedContract = true;\n            emit SLANotRespected(_periodId, _sli);\n        }\n    }\n\n    function isAllowedPeriod(uint256 _periodId) external view returns (bool) {\n        if (_periodId < initialPeriodId) return false;\n        if (_periodId > finalPeriodId) return false;\n        return true;\n    }\n\n    function contractFinished() public view returns (bool) {\n        (, uint256 endOfLastValidPeriod) =\n            periodRegistry.getPeriodStartAndEnd(periodType, finalPeriodId);\n        return\n            _breachedContract == true ||\n            (block.timestamp >= endOfLastValidPeriod &&\n                periodSLIs[finalPeriodId].status != Status.NotVerified);\n    }\n\n    /**\n     *@dev stake _amount tokens into the _token contract\n     *@param _amount 1. amount to be staked\n     *@param _token 2. address of the ERC to be staked\n     */\n\n    function stakeTokens(uint256 _amount, address _token)\n        external\n        notZero(_amount)\n    {\n        bool isContractFinished = contractFinished();\n        require(\n            !isContractFinished,\n            \"Can only stake on not finished contracts\"\n        );\n        _stake(_amount, _token);\n        emit Stake(_token, nextVerifiablePeriod, msg.sender, _amount);\n        StakeRegistry stakeRegistry = slaRegistry.stakeRegistry();\n        stakeRegistry.registerStakedSla(msg.sender);\n    }\n\n    function withdrawProviderTokens(uint256 _amount, address _tokenAddress)\n        external\n        notZero(_amount)\n    {\n        bool isContractFinished = contractFinished();\n        _withdrawProviderTokens(_amount, _tokenAddress, isContractFinished);\n        emit ProviderWithdraw(\n            _tokenAddress,\n            nextVerifiablePeriod,\n            msg.sender,\n            _amount\n        );\n    }\n\n    /**\n     *@dev withdraw _amount tokens from the _token contract\n     *@param _amount 1. amount to be staked\n     *@param _tokenAddress 2. address of the ERC to be staked\n     */\n\n    function withdrawUserTokens(uint256 _amount, address _tokenAddress)\n        external\n        notZero(_amount)\n    {\n        if (msg.sender != owner()) {\n            bool isContractFinished = contractFinished();\n            require(isContractFinished, \"Only for finished contract\");\n        }\n        emit UserWithdraw(\n            _tokenAddress,\n            nextVerifiablePeriod,\n            msg.sender,\n            _amount\n        );\n        _withdrawUserTokens(_amount, _tokenAddress);\n    }\n\n    function getStakersLength() external view returns (uint256) {\n        return stakers.length;\n    }\n\n    function breachedContract() external view returns (bool) {\n        return _breachedContract;\n    }\n}\n",
  "sourcePath": "/Users/matiasbn/Desktop/stacktical/stacktical-dsla-contracts/contracts/SLA.sol",
  "compiler": {
    "name": "solc",
    "version": "0.6.6+commit.6c089d02.Emscripten.clang"
  },
  "schemaVersion": "3.3.3",
  "updatedAt": "2021-04-12T21:40:19.218Z",
  "networkType": "ethereum",
  "devdoc": {
    "details": "SLA is a service level agreement contract used for service downtime compensation",
    "methods": {
      "constructor": {
        "params": {
          "_extraData": "9. -",
          "_finalPeriodId": "4. -",
          "_initialPeriodId": "4. -",
          "_ipfsHash": "3. -",
          "_messengerAddress": "3. -",
          "_owner": "1. -",
          "_periodType": "5. -",
          "_slaID": "10. -",
          "_whitelisted": "8. -"
        }
      },
      "owner()": {
        "details": "Returns the address of the current owner."
      },
      "registerSLI(uint256,uint256)": {
        "details": "external function to register SLI's and check them against the SLORegistry",
        "params": {
          "_periodId": "2. the id of the given period",
          "_sli": "1. the value of the SLI to check"
        }
      },
      "renounceOwnership()": {
        "details": "Leaves the contract without owner. It will not be possible to call `onlyOwner` functions anymore. Can only be called by the current owner.     * NOTE: Renouncing ownership will leave the contract without an owner, thereby removing any functionality that is only available to the owner."
      },
      "transferOwnership(address)": {
        "details": "Transfers ownership of the contract to a new account (`newOwner`). Can only be called by the current owner."
      }
    },
    "title": "SLA"
  },
  "userdoc": {
    "methods": {
      "addAllowedTokens(address)": {
        "notice": "dev add a token to ve allowed for staking param _tokenAddress 1. address of the new allowed token"
      },
      "getAllowedTokensLength()": {
        "notice": "dev use this function to evaluate the length of the allowed tokens length return allowedTokens.length"
      },
      "isAllowedToken(address)": {
        "notice": "dev checks in the allowedTokens array if there's a token with _tokenAddress value param _tokenAddress 1. token address to check exixtence return true if _tokenAddress exists in the allowedTokens array"
      },
      "stakeTokens(uint256,address)": {
        "notice": "dev stake _amount tokens into the _token contract param _amount 1. amount to be staked param _token 2. address of the ERC to be staked"
      },
      "withdrawUserTokens(uint256,address)": {
        "notice": "dev withdraw _amount tokens from the _token contract param _amount 1. amount to be staked param _tokenAddress 2. address of the ERC to be staked"
      }
    }
  }
}