{
  "contractName": "SLA",
  "abi": [
    {
      "inputs": [
        {
          "internalType": "address",
          "name": "_owner",
          "type": "address"
        },
        {
          "internalType": "bytes32[]",
          "name": "_SLONames",
          "type": "bytes32[]"
        },
        {
          "internalType": "contract SLO[]",
          "name": "_SLOs",
          "type": "address[]"
        },
        {
          "internalType": "uint256",
          "name": "_stake",
          "type": "uint256"
        },
        {
          "internalType": "string",
          "name": "_ipfsHash",
          "type": "string"
        },
        {
          "internalType": "uint256",
          "name": "_sliInterval",
          "type": "uint256"
        },
        {
          "internalType": "contract bDSLAToken",
          "name": "_tokenAddress",
          "type": "address"
        },
        {
          "internalType": "uint256[]",
          "name": "_sla_period_starts",
          "type": "uint256[]"
        },
        {
          "internalType": "uint256[]",
          "name": "_sla_period_ends",
          "type": "uint256[]"
        }
      ],
      "stateMutability": "nonpayable",
      "type": "constructor"
    },
    {
      "anonymous": false,
      "inputs": [
        {
          "indexed": true,
          "internalType": "uint256",
          "name": "period_index",
          "type": "uint256"
        }
      ],
      "name": "NewPeriodAdded",
      "type": "event"
    },
    {
      "anonymous": false,
      "inputs": [
        {
          "indexed": true,
          "internalType": "address",
          "name": "previousOwner",
          "type": "address"
        },
        {
          "indexed": true,
          "internalType": "address",
          "name": "newOwner",
          "type": "address"
        }
      ],
      "name": "OwnershipTransferred",
      "type": "event"
    },
    {
      "anonymous": false,
      "inputs": [
        {
          "indexed": false,
          "internalType": "uint256",
          "name": "_timestamp",
          "type": "uint256"
        },
        {
          "indexed": false,
          "internalType": "uint256",
          "name": "_value",
          "type": "uint256"
        },
        {
          "indexed": false,
          "internalType": "uint256",
          "name": "_periodId",
          "type": "uint256"
        }
      ],
      "name": "SLICreated",
      "type": "event"
    },
    {
      "inputs": [
        {
          "internalType": "bytes32",
          "name": "",
          "type": "bytes32"
        },
        {
          "internalType": "uint256",
          "name": "",
          "type": "uint256"
        }
      ],
      "name": "SLIs",
      "outputs": [
        {
          "internalType": "uint256",
          "name": "timestamp",
          "type": "uint256"
        },
        {
          "internalType": "uint256",
          "name": "value",
          "type": "uint256"
        },
        {
          "internalType": "uint256",
          "name": "periodId",
          "type": "uint256"
        }
      ],
      "stateMutability": "view",
      "type": "function"
    },
    {
      "inputs": [
        {
          "internalType": "bytes32",
          "name": "",
          "type": "bytes32"
        }
      ],
      "name": "SLOs",
      "outputs": [
        {
          "internalType": "contract SLO",
          "name": "",
          "type": "address"
        }
      ],
      "stateMutability": "view",
      "type": "function"
    },
    {
      "inputs": [
        {
          "internalType": "address",
          "name": "_token",
          "type": "address"
        }
      ],
      "name": "addAllowedTokens",
      "outputs": [],
      "stateMutability": "nonpayable",
      "type": "function"
    },
    {
      "inputs": [
        {
          "internalType": "uint256",
          "name": "_sla_period_start",
          "type": "uint256"
        },
        {
          "internalType": "uint256",
          "name": "_sla_period_end",
          "type": "uint256"
        }
      ],
      "name": "addNewPeriod",
      "outputs": [],
      "stateMutability": "nonpayable",
      "type": "function"
    },
    {
      "inputs": [
        {
          "internalType": "uint256",
          "name": "",
          "type": "uint256"
        }
      ],
      "name": "allowedTokens",
      "outputs": [
        {
          "internalType": "address",
          "name": "",
          "type": "address"
        }
      ],
      "stateMutability": "view",
      "type": "function"
    },
    {
      "inputs": [
        {
          "internalType": "address",
          "name": "",
          "type": "address"
        }
      ],
      "name": "allowedTokensMapping",
      "outputs": [
        {
          "internalType": "bool",
          "name": "",
          "type": "bool"
        }
      ],
      "stateMutability": "view",
      "type": "function"
    },
    {
      "inputs": [],
      "name": "bDSLA",
      "outputs": [
        {
          "internalType": "contract bDSLAToken",
          "name": "",
          "type": "address"
        }
      ],
      "stateMutability": "view",
      "type": "function"
    },
    {
      "inputs": [
        {
          "internalType": "uint256",
          "name": "_period",
          "type": "uint256"
        }
      ],
      "name": "claimCompensation",
      "outputs": [],
      "stateMutability": "nonpayable",
      "type": "function"
    },
    {
      "inputs": [
        {
          "internalType": "uint256",
          "name": "_period",
          "type": "uint256"
        }
      ],
      "name": "claimReward",
      "outputs": [],
      "stateMutability": "nonpayable",
      "type": "function"
    },
    {
      "inputs": [
        {
          "internalType": "uint256",
          "name": "_periodId",
          "type": "uint256"
        }
      ],
      "name": "getPeriodData",
      "outputs": [
        {
          "internalType": "uint256",
          "name": "periodStart",
          "type": "uint256"
        },
        {
          "internalType": "uint256",
          "name": "periodEnd",
          "type": "uint256"
        }
      ],
      "stateMutability": "view",
      "type": "function"
    },
    {
      "inputs": [
        {
          "internalType": "address",
          "name": "_owner",
          "type": "address"
        },
        {
          "internalType": "uint256",
          "name": "_index",
          "type": "uint256"
        }
      ],
      "name": "getTokenStake",
      "outputs": [
        {
          "internalType": "address",
          "name": "tokenAddress",
          "type": "address"
        },
        {
          "internalType": "uint256",
          "name": "stake",
          "type": "uint256"
        }
      ],
      "stateMutability": "view",
      "type": "function"
    },
    {
      "inputs": [
        {
          "internalType": "address",
          "name": "_owner",
          "type": "address"
        }
      ],
      "name": "getTokenStakeLength",
      "outputs": [
        {
          "internalType": "uint256",
          "name": "",
          "type": "uint256"
        }
      ],
      "stateMutability": "view",
      "type": "function"
    },
    {
      "inputs": [
        {
          "internalType": "address",
          "name": "_user",
          "type": "address"
        },
        {
          "internalType": "uint256",
          "name": "_period",
          "type": "uint256"
        }
      ],
      "name": "getUserTotalValue",
      "outputs": [
        {
          "internalType": "uint256",
          "name": "",
          "type": "uint256"
        }
      ],
      "stateMutability": "view",
      "type": "function"
    },
    {
      "inputs": [],
      "name": "ipfsHash",
      "outputs": [
        {
          "internalType": "string",
          "name": "",
          "type": "string"
        }
      ],
      "stateMutability": "view",
      "type": "function"
    },
    {
      "inputs": [],
      "name": "owner",
      "outputs": [
        {
          "internalType": "address",
          "name": "",
          "type": "address"
        }
      ],
      "stateMutability": "view",
      "type": "function"
    },
    {
      "inputs": [
        {
          "internalType": "uint256",
          "name": "",
          "type": "uint256"
        }
      ],
      "name": "periods",
      "outputs": [
        {
          "internalType": "uint256",
          "name": "sla_period_start",
          "type": "uint256"
        },
        {
          "internalType": "uint256",
          "name": "sla_period_end",
          "type": "uint256"
        },
        {
          "internalType": "uint256",
          "name": "claimed_reward",
          "type": "uint256"
        },
        {
          "internalType": "bool",
          "name": "claimed",
          "type": "bool"
        },
        {
          "internalType": "enum Staking.Status",
          "name": "status",
          "type": "uint8"
        }
      ],
      "stateMutability": "view",
      "type": "function"
    },
    {
      "inputs": [],
      "name": "registry",
      "outputs": [
        {
          "internalType": "contract SLARegistry",
          "name": "",
          "type": "address"
        }
      ],
      "stateMutability": "view",
      "type": "function"
    },
    {
      "inputs": [],
      "name": "renounceOwnership",
      "outputs": [],
      "stateMutability": "nonpayable",
      "type": "function"
    },
    {
      "inputs": [],
      "name": "stake",
      "outputs": [
        {
          "internalType": "uint256",
          "name": "",
          "type": "uint256"
        }
      ],
      "stateMutability": "view",
      "type": "function"
    },
    {
      "inputs": [
        {
          "internalType": "uint256",
          "name": "_amount",
          "type": "uint256"
        },
        {
          "internalType": "address",
          "name": "_token",
          "type": "address"
        },
        {
          "internalType": "uint256",
          "name": "_period",
          "type": "uint256"
        }
      ],
      "name": "stakeTokens",
      "outputs": [],
      "stateMutability": "nonpayable",
      "type": "function"
    },
    {
      "inputs": [
        {
          "internalType": "uint256",
          "name": "",
          "type": "uint256"
        }
      ],
      "name": "stakers",
      "outputs": [
        {
          "internalType": "address",
          "name": "",
          "type": "address"
        }
      ],
      "stateMutability": "view",
      "type": "function"
    },
    {
      "inputs": [],
      "name": "stakersCount",
      "outputs": [
        {
          "internalType": "uint256",
          "name": "",
          "type": "uint256"
        }
      ],
      "stateMutability": "view",
      "type": "function"
    },
    {
      "inputs": [],
      "name": "totalStaked",
      "outputs": [
        {
          "internalType": "uint256",
          "name": "",
          "type": "uint256"
        }
      ],
      "stateMutability": "view",
      "type": "function"
    },
    {
      "inputs": [
        {
          "internalType": "address",
          "name": "newOwner",
          "type": "address"
        }
      ],
      "name": "transferOwnership",
      "outputs": [],
      "stateMutability": "nonpayable",
      "type": "function"
    },
    {
      "inputs": [
        {
          "internalType": "address",
          "name": "",
          "type": "address"
        }
      ],
      "name": "uniqueTokensStaked",
      "outputs": [
        {
          "internalType": "uint256",
          "name": "",
          "type": "uint256"
        }
      ],
      "stateMutability": "view",
      "type": "function"
    },
    {
      "inputs": [
        {
          "internalType": "address",
          "name": "",
          "type": "address"
        },
        {
          "internalType": "address",
          "name": "",
          "type": "address"
        }
      ],
      "name": "userStakedTokens",
      "outputs": [
        {
          "internalType": "bool",
          "name": "",
          "type": "bool"
        }
      ],
      "stateMutability": "view",
      "type": "function"
    },
    {
      "inputs": [
        {
          "internalType": "address",
          "name": "",
          "type": "address"
        },
        {
          "internalType": "address",
          "name": "",
          "type": "address"
        }
      ],
      "name": "userStakedTokensIndex",
      "outputs": [
        {
          "internalType": "uint256",
          "name": "",
          "type": "uint256"
        }
      ],
      "stateMutability": "view",
      "type": "function"
    },
    {
      "inputs": [
        {
          "internalType": "address",
          "name": "",
          "type": "address"
        },
        {
          "internalType": "uint256",
          "name": "",
          "type": "uint256"
        }
      ],
      "name": "userStakes",
      "outputs": [
        {
          "internalType": "address",
          "name": "tokenAddress",
          "type": "address"
        },
        {
          "internalType": "uint256",
          "name": "stake",
          "type": "uint256"
        }
      ],
      "stateMutability": "view",
      "type": "function"
    },
    {
      "inputs": [],
      "name": "validator",
      "outputs": [
        {
          "internalType": "address",
          "name": "",
          "type": "address"
        }
      ],
      "stateMutability": "view",
      "type": "function"
    },
    {
      "inputs": [
        {
          "internalType": "address",
          "name": "_token",
          "type": "address"
        },
        {
          "internalType": "uint256",
          "name": "_period",
          "type": "uint256"
        }
      ],
      "name": "withdraw",
      "outputs": [],
      "stateMutability": "nonpayable",
      "type": "function"
    },
    {
      "inputs": [
        {
          "internalType": "address",
          "name": "_token",
          "type": "address"
        },
        {
          "internalType": "uint256",
          "name": "_amount",
          "type": "uint256"
        },
        {
          "internalType": "uint256",
          "name": "_period",
          "type": "uint256"
        }
      ],
      "name": "withdrawAndStake",
      "outputs": [],
      "stateMutability": "nonpayable",
      "type": "function"
    },
    {
      "inputs": [
        {
          "internalType": "bytes32",
          "name": "_SLOName",
          "type": "bytes32"
        },
        {
          "internalType": "uint256",
          "name": "_value",
          "type": "uint256"
        },
        {
          "internalType": "uint256",
          "name": "_periodId",
          "type": "uint256"
        }
      ],
      "name": "registerSLI",
      "outputs": [],
      "stateMutability": "nonpayable",
      "type": "function"
    },
    {
      "inputs": [
        {
          "internalType": "bytes32",
          "name": "_SLOName",
          "type": "bytes32"
        }
      ],
      "name": "getSLI",
      "outputs": [
        {
          "components": [
            {
              "internalType": "uint256",
              "name": "timestamp",
              "type": "uint256"
            },
            {
              "internalType": "uint256",
              "name": "value",
              "type": "uint256"
            },
            {
              "internalType": "uint256",
              "name": "periodId",
              "type": "uint256"
            }
          ],
          "internalType": "struct SLA.SLI[]",
          "name": "",
          "type": "tuple[]"
        }
      ],
      "stateMutability": "view",
      "type": "function"
    },
    {
      "inputs": [],
      "name": "getSliInterval",
      "outputs": [
        {
          "internalType": "uint256",
          "name": "",
          "type": "uint256"
        }
      ],
      "stateMutability": "view",
      "type": "function"
    },
    {
      "inputs": [],
      "name": "getDetails",
      "outputs": [
        {
          "internalType": "address",
          "name": "",
          "type": "address"
        },
        {
          "internalType": "string",
          "name": "",
          "type": "string"
        },
        {
          "internalType": "uint256",
          "name": "",
          "type": "uint256"
        },
        {
          "internalType": "bytes32[]",
          "name": "",
          "type": "bytes32[]"
        },
        {
          "internalType": "contract SLO[]",
          "name": "",
          "type": "address[]"
        }
      ],
      "stateMutability": "view",
      "type": "function"
    }
  ],
  "bytecode": "0x60806040523480156200001157600080fd5b50604051620032b9380380620032b983398101604081905262000034916200076c565b8282828b60006200004462000274565b600080546001600160a01b0319166001600160a01b03831690811782556040519293509160008051602062003299833981519152908290a3508151835114620000aa5760405162461bcd60e51b8152600401620000a190620008fe565b60405180910390fd5b600180546001600160a01b038087166001600160a01b031992831617808455600480548086019091557f8a35acfbc15ff81a39ae7d344fd709f28e8600b4aa8c65c6b64bfe7fe36bd19b0180548416918316919091179055825481166000908152600560205260408120805460ff191690941790935560028054918516919092161790555b83518110156200017c57620001738482815181106200014a57fe5b60200260200101518483815181106200015f57fe5b60200260200101516200027860201b60201c565b6001016200012f565b505050505060058751106200019057600080fd5b86518851146200019f57600080fd5b60005b87518110156200021357878181518110620001b957fe5b6020026020010151601060008b8481518110620001d257fe5b602090810291909101810151825281019190915260400160002080546001600160a01b0319166001600160a01b0392909216919091179055600101620001a2565b506200021f89620003c7565b8751620002349060129060208b0190620004f6565b50600c86905584516200024f90600e90602088019062000546565b5050600f80546001600160a01b031916331790555050600d555062000a0f9350505050565b3390565b62000282620005b8565b828152602081018281526000608083018181526006805460018101825592819052845192027ff652222313e28459528d920b65115c16c04f3efc82aaedc97be59f3f377c0d3f810192835592517ff652222313e28459528d920b65115c16c04f3efc82aaedc97be59f3f377c0d4084015560408401517ff652222313e28459528d920b65115c16c04f3efc82aaedc97be59f3f377c0d4184015560608401517ff652222313e28459528d920b65115c16c04f3efc82aaedc97be59f3f377c0d42909301805493151560ff199094169390931780845590518493909161ff0019166101008360028111156200037257fe5b021790555050506200039960016006805490506200047460201b62001b531790919060201c565b6040517ff791e873e3b67fe74b29aeede7bcbbdaa59c4b64e542571183cd837aa56f6ac990600090a2505050565b620003d162000274565b6000546001600160a01b03908116911614620004015760405162461bcd60e51b8152600401620000a19062000947565b6001600160a01b0381166200042a5760405162461bcd60e51b8152600401620000a190620008b8565b600080546040516001600160a01b03808516939216916000805160206200329983398151915291a3600080546001600160a01b0319166001600160a01b0392909216919091179055565b6000620004be83836040518060400160405280601e81526020017f536166654d6174683a207375627472616374696f6e206f766572666c6f770000815250620004c760201b60201c565b90505b92915050565b60008184841115620004ee5760405162461bcd60e51b8152600401620000a1919062000883565b505050900390565b82805482825590600052602060002090810192821562000534579160200282015b828111156200053457825182559160200191906001019062000517565b5062000542929150620005f4565b5090565b828054600181600116156101000203166002900490600052602060002090601f016020900481019282601f106200058957805160ff191683800117855562000534565b828001600101855582156200053457918201828111156200053457825182559160200191906001019062000517565b6040518060a0016040528060008152602001600081526020016000815260200160001515815260200160006002811115620005ef57fe5b905290565b5b80821115620005425760008155600101620005f5565b8051620004c181620009f6565b600082601f83011262000629578081fd5b8151620006406200063a82620009a3565b6200097c565b8181529150602080830190848101818402860182018710156200066257600080fd5b60005b84811015620006835781518452928201929082019060010162000665565b505050505092915050565b600082601f8301126200069f578081fd5b8151620006b06200063a82620009a3565b818152915060208083019084810181840286018201871015620006d257600080fd5b60005b8481101562000683578151620006eb81620009f6565b84529282019290820190600101620006d5565b600082601f8301126200070f578081fd5b81516001600160401b0381111562000725578182fd5b6200073a601f8201601f19166020016200097c565b91508082528360208285010111156200075257600080fd5b62000765816020840160208601620009c3565b5092915050565b60008060008060008060008060006101208a8c0312156200078b578485fd5b620007978b8b6200060b565b60208b01519099506001600160401b0380821115620007b4578687fd5b620007c28d838e0162000618565b995060408c0151915080821115620007d8578687fd5b620007e68d838e016200068e565b985060608c0151975060808c015191508082111562000803578687fd5b620008118d838e01620006fe565b965060a08c01519550620008298d60c08e016200060b565b945060e08c01519150808211156200083f578384fd5b6200084d8d838e0162000618565b93506101008c015191508082111562000864578283fd5b50620008738c828d0162000618565b9150509295985092959850929598565b6000602082528251806020840152620008a4816040850160208701620009c3565b601f01601f19169190910160400192915050565b60208082526026908201527f4f776e61626c653a206e6577206f776e657220697320746865207a65726f206160408201526564647265737360d01b606082015260800190565b60208082526029908201527f506c6561736520636865636b2074686520706172616d73206f6620796f757220604082015268706572696f6473202160b81b606082015260800190565b6020808252818101527f4f776e61626c653a2063616c6c6572206973206e6f7420746865206f776e6572604082015260600190565b6040518181016001600160401b03811182821017156200099b57600080fd5b604052919050565b60006001600160401b03821115620009b9578081fd5b5060209081020190565b60005b83811015620009e0578181015183820152602001620009c6565b83811115620009f0576000848401525b50505050565b6001600160a01b038116811462000a0c57600080fd5b50565b61287a8062000a1f6000396000f3fe608060405234801561001057600080fd5b50600436106101d15760003560e01c80638da5cb5b11610105578063e7ab816a1161009d578063e7ab816a146103ca578063ea4a1104146103d2578063ec04de48146103f6578063f10bd77214610409578063f2fde38b1461041c578063f3fef3a31461042f578063fbbf93a014610442578063fc875ece1461045b578063fd5e6dd11461047c576101d1565b80638da5cb5b1461032457806394199c611461032c578063a2e80c5e1461034e578063ae169a5014610356578063b0227b4714610369578063b5d5b5fa1461037c578063b83e02341461038f578063c623674f146103a2578063cec534d6146103b7576101d1565b806353e85fd51161017857806353e85fd51461029757806357ac94f0146102aa5780635e5f2e26146102cb5780635f4efaba146102de578063715018a6146102e657806375fdf2a9146102ee5780637b10399914610301578063817b1cd214610309578063869c392514610311576101d1565b806302e8b893146101d65780630e1fcf34146101ff578063105237cf14610214578063171e44ea146102345780631934d0e8146102475780632eac97871461025a5780633a4b66f11461027a5780633a5381b514610282575b600080fd5b6101e96101e4366004612177565b61048f565b6040516101f691906123a0565b60405180910390f35b61021261020d36600461218f565b610520565b005b6102276102223660046120a4565b61056c565b6040516101f691906123f9565b6102126102423660046120a4565b610581565b6102276102553660046120c0565b610656565b61026d6102683660046120c0565b610676565b6040516101f691906127c8565b61026d610693565b61028a610699565b6040516101f69190612292565b6102126102a5366004612177565b6106a8565b6102bd6102b83660046120f8565b610922565b6040516101f69291906122ca565b61028a6102d9366004612177565b6109a2565b61028a6109c9565b6102126109d8565b6102126102fc366004612123565b610a57565b61028a610d9c565b61026d610dab565b61021261031f3660046121b0565b610db1565b61028a610ffc565b61033f61033a36600461218f565b61100b565b6040516101f6939291906127df565b61026d61104a565b610212610364366004612177565b611050565b61028a610377366004612177565b61122a565b6102bd61038a3660046120f8565b611245565b61026d61039d3660046120a4565b611288565b6103aa61129a565b6040516101f69190612404565b6102126103c53660046121f7565b611328565b61026d6114f8565b6103e56103e0366004612177565b6114fe565b6040516101f69594939291906127f5565b61026d6104043660046120a4565b611541565b61026d6104173660046120f8565b61155c565b61021261042a3660046120a4565b61161f565b61021261043d3660046120f8565b6116d5565b61044a61192c565b6040516101f69594939291906122e3565b61046e610469366004612177565b611afc565b6040516101f69291906127d1565b61028a61048a366004612177565b611b46565b606060116000838152602001908152602001600020805480602002602001604051908101604052809291908181526020016000905b8282101561051457838290600052602060002090600302016040518060600160405290816000820154815260200160018201548152602001600282015481525050815260200190600101906104c4565b5050505090505b919050565b610528611b9c565b6000546001600160a01b0390811691161461055e5760405162461bcd60e51b815260040161055590612691565b60405180910390fd5b6105688282611ba0565b5050565b60056020526000908152604090205460ff1681565b610589611b9c565b6000546001600160a01b039081169116146105b65760405162461bcd60e51b815260040161055590612691565b6001600160a01b03811660009081526005602052604090205460ff16156105ef5760405162461bcd60e51b8152600401610555906125cd565b6004805460018181019092557f8a35acfbc15ff81a39ae7d344fd709f28e8600b4aa8c65c6b64bfe7fe36bd19b0180546001600160a01b039093166001600160a01b031990931683179055600091825260056020526040909120805460ff19169091179055565b600a60209081526000928352604080842090915290825290205460ff1681565b600960209081526000928352604080842090915290825290205481565b600c5481565b6002546001600160a01b031681565b80600681815481106106b657fe5b90600052602060002090600602016000015442101580156106f55750600681815481106106df57fe5b9060005260206000209060060201600101544211155b6106fe57600080fd5b6002546001600160a01b03163314156107295760405162461bcd60e51b815260040161055590612567565b60026006838154811061073857fe5b906000526020600020906006020160030160019054906101000a900460ff16600281111561076257fe5b1461077f5760405162461bcd60e51b8152600401610555906124c1565b6006828154811061078c57fe5b6000918252602080832033845260056006909302019190910190526040902054156107c95760405162461bcd60e51b81526004016105559061276b565b60006107d5338461155c565b905060006107ef600a6107e9846003611cda565b90611d14565b600b549091506107ff9083611b53565b600b81905550816006858154811061081357fe5b600091825260208083203380855260069390930201600501905260409182902092909255600154905163a9059cbb60e01b81526001600160a01b039091169163a9059cbb91610867919086906004016122ca565b602060405180830381600087803b15801561088157600080fd5b505af1158015610895573d6000803e3d6000fd5b505050506040513d601f19601f820116820180604052508101906108b99190612157565b50600154604051630852cd8d60e31b81526001600160a01b03909116906342966c68906108ea9084906004016127c8565b600060405180830381600087803b15801561090457600080fd5b505af1158015610918573d6000803e3d6000fd5b5050505050505050565b6001600160a01b038216600090815260086020526040812080548291908490811061094957fe5b600091825260208083206002909202909101546001600160a01b0387811684526008909252604090922080549190921691908590811061098557fe5b906000526020600020906002020160010154915091509250929050565b600481815481106109af57fe5b6000918252602090912001546001600160a01b0316905081565b6001546001600160a01b031681565b6109e0611b9c565b6000546001600160a01b03908116911614610a0d5760405162461bcd60e51b815260040161055590612691565b600080546040516001600160a01b03909116907f8be0079c531659141344cd1fd0a4f28419497f9722a3daafe3b4186f6b6457e0908390a3600080546001600160a01b0319169055565b6002546001600160a01b0316331415610a825760405162461bcd60e51b815260040161055590612567565b600060068281548110610a9157fe5b600091825260208083206001600160a01b03881684526004600690930201919091018152604080832033845290915290205411610ae05760405162461bcd60e51b815260040161055590612596565b610ae983611d56565b610b055760405162461bcd60e51b8152600401610555906126f2565b6040516323b872dd60e01b81526001600160a01b038416906323b872dd90610b35903390309087906004016122a6565b602060405180830381600087803b158015610b4f57600080fd5b505af1158015610b63573d6000803e3d6000fd5b505050506040513d601f19601f82011682018060405250810190610b879190612157565b50610bd18260068381548110610b9957fe5b600091825260208083206001600160a01b03891684526004600690930201919091018152604080832033845290915290205490611d74565b60068281548110610bde57fe5b600091825260208083206001600160a01b038816845260046006909302019190910181526040808320338452909152902055600b54610c1d9083611d74565b600b55610c2a8383611d99565b600060068281548110610c3957fe5b600091825260208083206001600160a01b0388168452600692830201600401815260408084203385529091528220546003548254919450610ca092909186908110610c8057fe5b906000526020600020906006020160020154611d1490919063ffffffff16565b9050600060068481548110610cb157fe5b600091825260208083206001600160a01b038a16845260046006909302019190910181526040808320338452909152902055600b54610cf09083611b53565b600b556001546001600160a01b031663a9059cbb33610d0f8585611b53565b6040518363ffffffff1660e01b8152600401610d2c9291906122ca565b602060405180830381600087803b158015610d4657600080fd5b505af1158015610d5a573d6000803e3d6000fd5b505050506040513d601f19601f82011682018060405250810190610d7e9190612157565b50600154610d95906001600160a01b031683611ec4565b5050505050565b600f546001600160a01b031681565b600b5481565b600f60009054906101000a90046001600160a01b03166001600160a01b0316633cb747bf6040518163ffffffff1660e01b815260040160206040518083038186803b158015610dff57600080fd5b505afa158015610e13573d6000803e3d6000fd5b505050506040513d601f19601f82011682018060405250810190610e3791906121db565b6001600160a01b0316336001600160a01b031614610e5457600080fd5b600083815260116020908152604080832081516060810183524280825281850188815282850188815284546001818101875595895296909720925160039096029092019485559051918401919091559251600290920191909155517fc95987c1992805ee34bdc915e017cceae36ba1c156b9911fa7e691e6435eb46e91610ede91859085906127df565b60405180910390a16000838152601060205260409081902054905163868d08f760e01b81526001600160a01b039091169063868d08f790610f239085906004016127c8565b60206040518083038186803b158015610f3b57600080fd5b505afa158015610f4f573d6000803e3d6000fd5b505050506040513d601f19601f82011682018060405250810190610f739190612157565b610fb957600260068281548110610f8657fe5b60009182526020909120600360069092020101805461ff001916610100836002811115610faf57fe5b0217905550610ff7565b600160068281548110610fc857fe5b60009182526020909120600360069092020101805461ff001916610100836002811115610ff157fe5b02179055505b505050565b6000546001600160a01b031690565b6011602052816000526040600020818154811061102457fe5b600091825260209091206003909102018054600182015460029092015490935090915083565b60035490565b806006818154811061105e57fe5b906000526020600020906006020160000154421015801561109d57506006818154811061108757fe5b9060005260206000209060060201600101544211155b6110a657600080fd5b6002546001600160a01b031633146110d05760405162461bcd60e51b815260040161055590612738565b6001600683815481106110df57fe5b906000526020600020906006020160030160019054906101000a900460ff16600281111561110957fe5b146111265760405162461bcd60e51b815260040161055590612494565b6006828154811061113357fe5b600091825260209091206003600690920201015460ff16156111675760405162461bcd60e51b8152600401610555906125fa565b600654600b5460009161117a9190611d14565b9050600061118e600a6107e9846003611cda565b600b5490915061119e9083611b53565b600b8190555081600685815481106111b257fe5b9060005260206000209060060201600201819055506001600685815481106111d657fe5b60009182526020909120600690910201600301805460ff191691151591909117905560015460405163a9059cbb60e01b81526001600160a01b039091169063a9059cbb9061086790339086906004016122ca565b6010602052600090815260409020546001600160a01b031681565b6008602052816000526040600020818154811061125e57fe5b6000918252602090912060029091020180546001909101546001600160a01b039091169250905082565b60076020526000908152604090205481565b600e805460408051602060026001851615610100026000190190941693909304601f810184900484028201840190925281815292918301828280156113205780601f106112f557610100808354040283529160200191611320565b820191906000526020600020905b81548152906001019060200180831161130357829003601f168201915b505050505081565b600083116113485760405162461bcd60e51b8152600401610555906126c6565b61135182611d56565b61136d5760405162461bcd60e51b8152600401610555906126f2565b611378338383611f24565b6040516323b872dd60e01b81526001600160a01b038316906323b872dd906113a8903390309088906004016122a6565b602060405180830381600087803b1580156113c257600080fd5b505af11580156113d6573d6000803e3d6000fd5b505050506040513d601f19601f820116820180604052508101906113fa9190612157565b50611444836006838154811061140c57fe5b600091825260208083206001600160a01b03881684526004600690930201919091018152604080832033845290915290205490611d74565b6006828154811061145157fe5b600091825260208083206001600160a01b038716845260046006909302019190910181526040808320338452909152902055600b546114909084611d74565b600b5533600090815260076020526040902054600114156114ee57600380546001810182556000919091527fc2575a0e9e593c00f959f8c92f12db2869c3395a3b0502d05e2516446f71f85b0180546001600160a01b031916331790555b610ff78284611d99565b600d5490565b6006818154811061150b57fe5b60009182526020909120600690910201805460018201546002830154600390930154919350919060ff8082169161010090041685565b6001600160a01b031660009081526008602052604090205490565b6001600160a01b0382166000908152600760205260408120546115915760405162461bcd60e51b815260040161055590612417565b6000805b6004548110156116155761160b600685815481106115af57fe5b90600052602060002090600602016004016000600484815481106115cf57fe5b60009182526020808320909101546001600160a01b0390811684528382019490945260409283018220938a168252929092529020548390611d74565b9150600101611595565b5090505b92915050565b611627611b9c565b6000546001600160a01b039081169116146116545760405162461bcd60e51b815260040161055590612691565b6001600160a01b03811661167a5760405162461bcd60e51b8152600401610555906124ea565b600080546040516001600160a01b03808516939216917f8be0079c531659141344cd1fd0a4f28419497f9722a3daafe3b4186f6b6457e091a3600080546001600160a01b0319166001600160a01b0392909216919091179055565b6002546001600160a01b03163314156117005760405162461bcd60e51b815260040161055590612567565b60006006828154811061170f57fe5b600091825260208083206001600160a01b0387168452600460069093020191909101815260408083203384529091529020541161175e5760405162461bcd60e51b815260040161055590612596565b61176782611d56565b6117835760405162461bcd60e51b81526004016105559061244e565b60006006828154811061179257fe5b600091825260208083206001600160a01b03871684526006928302016004018152604080842033855290915282205460035482549194506117d992909186908110610c8057fe5b90506000600684815481106117ea57fe5b600091825260208083206001600160a01b038916845260046006909302019190910181526040808320338452909152902055600b546118299083611b53565b600b556001600160a01b03841663a9059cbb336118468585611b53565b6040518363ffffffff1660e01b81526004016118639291906122ca565b602060405180830381600087803b15801561187d57600080fd5b505af1158015611891573d6000803e3d6000fd5b505050506040513d601f19601f820116820180604052508101906118b59190612157565b50336000908152600760205260409020546118d1906001611b53565b33600090815260076020526040902081905561191c5760006118f233611fad565b90506003818154811061190157fe5b600091825260209091200180546001600160a01b0319169055505b6119268483611ec4565b50505050565b600060606000606080606060128054905067ffffffffffffffff8111801561195357600080fd5b5060405190808252806020026020018201604052801561197d578160200160208202803683370190505b50905060005b6012548110156119f757601060006012838154811061199e57fe5b9060005260206000200154815260200190815260200160002060009054906101000a90046001600160a01b03168282815181106119d757fe5b6001600160a01b0390921660209283029190910190910152600101611983565b50611a00610ffc565b600c54600e805460408051602060026001851615610100026000190190941693909304601f810184900484028201840190925281815292939260129287928691830182828015611a915780601f10611a6657610100808354040283529160200191611a91565b820191906000526020600020905b815481529060010190602001808311611a7457829003601f168201915b5050505050935081805480602002602001604051908101604052809291908181526020018280548015611ae357602002820191906000526020600020905b815481526020019060010190808311611acf575b5050505050915095509550955095509550509091929394565b60008060068381548110611b0c57fe5b90600052602060002090600602016000015460068481548110611b2b57fe5b90600052602060002090600602016001015491509150915091565b600381815481106109af57fe5b6000611b9583836040518060400160405280601e81526020017f536166654d6174683a207375627472616374696f6e206f766572666c6f770000815250612006565b9392505050565b3390565b611ba8612069565b828152602081018281526000608083018181526006805460018101825592819052845192027ff652222313e28459528d920b65115c16c04f3efc82aaedc97be59f3f377c0d3f810192835592517ff652222313e28459528d920b65115c16c04f3efc82aaedc97be59f3f377c0d4084015560408401517ff652222313e28459528d920b65115c16c04f3efc82aaedc97be59f3f377c0d4184015560608401517ff652222313e28459528d920b65115c16c04f3efc82aaedc97be59f3f377c0d42909301805493151560ff199094169390931780845590518493909161ff001916610100836002811115611c9757fe5b021790555050600654611cac91506001611b53565b6040517ff791e873e3b67fe74b29aeede7bcbbdaa59c4b64e542571183cd837aa56f6ac990600090a2505050565b600082611ce957506000611619565b82820282848281611cf657fe5b0414611b955760405162461bcd60e51b815260040161055590612650565b6000611b9583836040518060400160405280601a81526020017f536166654d6174683a206469766973696f6e206279207a65726f000000000000815250612032565b6001600160a01b031660009081526005602052604090205460ff1690565b600082820183811015611b955760405162461bcd60e51b815260040161055590612530565b336000908152600a602090815260408083206001600160a01b038616845290915290205460ff16611e6457336000818152600860209081526040808320815180830183526001600160a01b03888116808352828601898152845460018082018755868a52888a209551600290920290950180546001600160a01b0319169190941617835551918301919091558686529154600985528386208387528552838620600019919091019055948452600a83528184209084529091529020805460ff19169091179055610568565b3360008181526009602090815260408083206001600160a01b038716845282528083205493835260089091529020805461192691849184908110611ea457fe5b906000526020600020906002020160010154611d7490919063ffffffff16565b3360008181526009602090815260408083206001600160a01b038716845282528083205493835260089091529020805461192691849184908110611f0457fe5b906000526020600020906002020160010154611b5390919063ffffffff16565b600060068281548110611f3357fe5b600091825260208083206001600160a01b0387811685526006939093020160040181526040808420928816845291905290205411610ff7576001600160a01b038316600090815260076020526040902054611f8f906001611d74565b6001600160a01b038416600090815260076020526040902055505050565b6000805b600354811015611ffc57826001600160a01b031660038281548110611fd257fe5b6000918252602090912001546001600160a01b03161415611ff457905061051b565b600101611fb1565b5060001992915050565b6000818484111561202a5760405162461bcd60e51b81526004016105559190612404565b505050900390565b600081836120535760405162461bcd60e51b81526004016105559190612404565b50600083858161205f57fe5b0495945050505050565b6040518060a001604052806000815260200160008152602001600081526020016000151581526020016000600281111561209f57fe5b905290565b6000602082840312156120b5578081fd5b8135611b958161282c565b600080604083850312156120d2578081fd5b82356120dd8161282c565b915060208301356120ed8161282c565b809150509250929050565b6000806040838503121561210a578182fd5b82356121158161282c565b946020939093013593505050565b600080600060608486031215612137578081fd5b83356121428161282c565b95602085013595506040909401359392505050565b600060208284031215612168578081fd5b81518015158114611b95578182fd5b600060208284031215612188578081fd5b5035919050565b600080604083850312156121a1578182fd5b50508035926020909101359150565b6000806000606084860312156121c4578283fd5b505081359360208301359350604090920135919050565b6000602082840312156121ec578081fd5b8151611b958161282c565b60008060006060848603121561220b578283fd5b83359250602084013561221d8161282c565b929592945050506040919091013590565b815260200190565b6001600160a01b0316815260200190565b60008151808452815b8181101561226c57602081850181015186830182015201612250565b8181111561227d5782602083870101525b50601f01601f19169290920160200192915050565b6001600160a01b0391909116815260200190565b6001600160a01b039384168152919092166020820152604081019190915260600190565b6001600160a01b03929092168252602082015260400190565b6001600160a01b038616815260a0602080830182905260009161230890840188612247565b866040850152838103606085015280865161232381846127c8565b91508388019250845b8181101561234d5761233f83855161222e565b93850193925060010161232c565b50508481036080860152809150855161236681836127c8565b92508387019150845b8181101561239057612382848451612236565b93509184019160010161236f565b50919a9950505050505050505050565b602080825282518282018190526000919060409081850190868401855b828110156123ec57815180518552868101518786015285015185850152606090930192908501906001016123bd565b5091979650505050505050565b901515815260200190565b600060208252611b956020830184612247565b6020808252601d908201527f5573657220686173206e6f7420616e7920746f6b656e207374616b6564000000604082015260600190565b60208082526026908201527f746f6b656e2073686f756c64206265206175746f72697a656420746f206265206040820152651cdd185ad95960d21b606082015260800190565b602080825260139082015272534c41206e6f7420726573706563746564202160681b604082015260600190565b6020808252600f908201526e534c4120726573706563746564202160881b604082015260600190565b60208082526026908201527f4f776e61626c653a206e6577206f776e657220697320746865207a65726f206160408201526564647265737360d01b606082015260800190565b6020808252601b908201527f536166654d6174683a206164646974696f6e206f766572666c6f770000000000604082015260600190565b602080825260159082015274596f752061726520612076616c696461746f72202160581b604082015260600190565b6020808252601b908201527f7374616b696e672062616c616e63652063616e6e6f7420626520300000000000604082015260600190565b6020808252601390820152721d1bdad95b88185b1c9958591e481859191959606a1b604082015260600190565b60208082526036908201527f596f75206861766520616c726561647920636c61696d656420796f75722072656040820152757761726420666f72207468697320706572696f64202160501b606082015260800190565b60208082526021908201527f536166654d6174683a206d756c7469706c69636174696f6e206f766572666c6f6040820152607760f81b606082015260800190565b6020808252818101527f4f776e61626c653a2063616c6c6572206973206e6f7420746865206f776e6572604082015260600190565b6020808252601290820152710616d6f756e742063616e6e6f7420626520360741b604082015260600190565b60208082526026908201527f746f6b656e2073686f756c64206265206175746f726973656420746f206265206040820152651cdd185ad95960d21b606082015260800190565b602080825260199082015278596f7520617265206e6f7420612076616c696461746f72202160381b604082015260600190565b6020808252603c908201527f596f75206861766520616c726561647920636c61696d656420796f757220636f60408201527f6d70656e736174696f6e20666f72207468697320706572696f64202100000000606082015260800190565b90815260200190565b918252602082015260400190565b9283526020830191909152604082015260600190565b8581526020810185905260408101849052821515606082015260a081016003831061281c57fe5b8260808301529695505050505050565b6001600160a01b038116811461284157600080fd5b5056fea264697066735822122052556a4c1fd6096cb5ed8da2c17345cd4db865dd0256b02b6ccd91f0e10cd35164736f6c634300060c00338be0079c531659141344cd1fd0a4f28419497f9722a3daafe3b4186f6b6457e0",
  "immutableReferences": {},
  "source": "// SPDX-License-Identifier: MIT\npragma solidity ^0.6.0;\npragma experimental ABIEncoderV2;\n\nimport \"@openzeppelin/contracts/access/Ownable.sol\";\nimport \"@openzeppelin/contracts/token/ERC20/IERC20.sol\";\nimport \"@openzeppelin/contracts/math/SafeMath.sol\";\nimport \"../interfaces/IMessenger.sol\";\nimport \"../SLO/SLO.sol\";\nimport \"../SLARegistry.sol\";\nimport \"./Staking.sol\";\n\n/**\n * @title SLA\n * @dev SLA is a service level agreement contract used for service downtime\n * compensation\n */\ncontract SLA is Ownable, Staking {\n    using SafeMath for uint256;\n\n    // The required amount to stake when subscribing to the agreement\n    uint256 public stake;\n\n    // The time between SLI registration\n    uint256 private sliInterval;\n\n    // The ipfs hash that stores extra information about the agreement\n    string public ipfsHash;\n\n    // The address of the registry contract\n    SLARegistry public registry;\n\n    // Struct used for storing registered SLI's\n    struct SLI {\n        uint256 timestamp;\n        uint256 value;\n        uint256 periodId;\n    }\n\n    // Mapping to get SLO addresses from SLO names in bytes32\n    mapping(bytes32 => SLO) public SLOs;\n\n    // Mapping to get SLI structs from SLO names in bytes32\n    mapping(bytes32 => SLI[]) public SLIs;\n\n    // Array storing the names of the SLO's of this agreement\n    bytes32[] SLONames;\n\n    /**\n     * @dev event for SLI creation logging\n     * @param _timestamp the time the SLI has been registered\n     * @param _value the value of the SLI\n     * @param _periodId the id of the given period\n     */\n    event SLICreated(uint256 _timestamp, uint256 _value, uint256 _periodId);\n\n    /**\n     * @dev Throws if called by any address other than the Oraclize or\n     * messenger contract.\n     */\n    modifier onlyMessenger() {\n        require(msg.sender == address(registry.messenger()));\n        _;\n    }\n\n    /**\n     * @dev constructor\n     * @param _owner the owner of the service level agreement\n     * @param _SLONames the names of the service level objectives in a bytes32\n     * array\n     * @param _SLOs an array with the service level objective addresses\n     * @param _stake the amount required to stake when subscribing to the\n     * agreement\n     * @param _ipfsHash the ipfs hash that stores extra information about the\n     * agreement\n     */\n    constructor(\n        address _owner,\n        bytes32[] memory _SLONames,\n        SLO[] memory _SLOs,\n        uint256 _stake,\n        string memory _ipfsHash,\n        uint256 _sliInterval,\n        bDSLAToken _tokenAddress,\n        uint256[] memory _sla_period_starts,\n        uint256[] memory _sla_period_ends\n    )\n        public\n        Staking(_tokenAddress, _sla_period_starts, _sla_period_ends, _owner)\n    {\n        require(_SLOs.length < 5);\n        require(_SLONames.length == _SLOs.length);\n\n        for (uint256 i = 0; i < _SLOs.length; i++) {\n            SLOs[_SLONames[i]] = _SLOs[i];\n        }\n\n        transferOwnership(_owner);\n        SLONames = _SLONames;\n        stake = _stake;\n        ipfsHash = _ipfsHash;\n        registry = SLARegistry(msg.sender);\n        sliInterval = _sliInterval;\n    }\n\n    /**\n     * @dev external function to register SLI's and check them against the SLO's\n     * @param _SLOName the name of the SLO in bytes32\n     * @param _value the value of the SLI to check\n     * @param _periodId the id of the given period\n     */\n    function registerSLI(\n        bytes32 _SLOName,\n        uint256 _value,\n        uint256 _periodId\n    ) external onlyMessenger {\n        SLIs[_SLOName].push(SLI(block.timestamp, _value, _periodId));\n\n        emit SLICreated(block.timestamp, _value, _periodId);\n\n        if (!SLOs[_SLOName].isSLOHonored(_value)) {\n            periods[_periodId].status = Status.NotRespected;\n        } else {\n            periods[_periodId].status = Status.Respected;\n        }\n    }\n\n    /**\n     * @dev external function to get SLI\n     * @param _SLOName the name of the SLO in bytes32\n     */\n    function getSLI(bytes32 _SLOName) public view returns (SLI[] memory) {\n        return SLIs[_SLOName];\n    }\n\n    /**\n     * @dev external view function that returns the sliInterval value\n     */\n    function getSliInterval() external view returns (uint256) {\n        return sliInterval;\n    }\n\n    /**\n     * @dev external view function that returns all agreement information\n     */\n\n    function getDetails()\n        external\n        view\n        returns (\n            address,\n            string memory,\n            uint256,\n            bytes32[] memory,\n            SLO[] memory\n        )\n    {\n        SLO[] memory _SLOAddresses = new SLO[](SLONames.length);\n\n        for (uint256 i = 0; i < SLONames.length; i++) {\n            _SLOAddresses[i] = SLOs[SLONames[i]];\n        }\n\n        return (owner(), ipfsHash, stake, SLONames, _SLOAddresses);\n    }\n}\n",
  "sourcePath": "/Users/matiasbn/Desktop/stacktical/stacktical-dsla-contracts/contracts/SLA/SLA.sol",
  "compiler": {
    "name": "solc",
    "version": "0.6.12+commit.27d51765.Emscripten.clang"
  },
  "schemaVersion": "3.2.5",
  "updatedAt": "2020-12-18T20:22:16.920Z",
  "devdoc": {
    "details": "SLA is a service level agreement contract used for service downtime compensation",
    "events": {
      "SLICreated(uint256,uint256,uint256)": {
        "details": "event for SLI creation logging",
        "params": {
          "_periodId": "the id of the given period",
          "_timestamp": "the time the SLI has been registered",
          "_value": "the value of the SLI"
        }
      }
    },
    "kind": "dev",
    "methods": {
      "constructor": {
        "details": "constructor",
        "params": {
          "_SLONames": "the names of the service level objectives in a bytes32 array",
          "_SLOs": "an array with the service level objective addresses",
          "_ipfsHash": "the ipfs hash that stores extra information about the agreement",
          "_owner": "the owner of the service level agreement",
          "_stake": "the amount required to stake when subscribing to the agreement"
        }
      },
      "getDetails()": {
        "details": "external view function that returns all agreement information"
      },
      "getSLI(bytes32)": {
        "details": "external function to get SLI",
        "params": {
          "_SLOName": "the name of the SLO in bytes32"
        }
      },
      "getSliInterval()": {
        "details": "external view function that returns the sliInterval value"
      },
      "owner()": {
        "details": "Returns the address of the current owner."
      },
      "registerSLI(bytes32,uint256,uint256)": {
        "details": "external function to register SLI's and check them against the SLO's",
        "params": {
          "_SLOName": "the name of the SLO in bytes32",
          "_periodId": "the id of the given period",
          "_value": "the value of the SLI to check"
        }
      },
      "renounceOwnership()": {
        "details": "Leaves the contract without owner. It will not be possible to call `onlyOwner` functions anymore. Can only be called by the current owner. NOTE: Renouncing ownership will leave the contract without an owner, thereby removing any functionality that is only available to the owner."
      },
      "stakersCount()": {
        "details": "public view function that returns the total amount of stakers"
      },
      "transferOwnership(address)": {
        "details": "Transfers ownership of the contract to a new account (`newOwner`). Can only be called by the current owner."
      }
    },
    "title": "SLA",
    "version": 1
  },
  "userdoc": {
    "kind": "user",
    "methods": {},
    "version": 1
  }
}