{
  "contractName": "SLA",
  "abi": [
    {
      "inputs": [
        {
          "internalType": "address",
          "name": "_owner",
          "type": "address"
        },
        {
          "internalType": "contract SLO",
          "name": "_SLO",
          "type": "address"
        },
        {
          "internalType": "string",
          "name": "_ipfsHash",
          "type": "string"
        },
        {
          "internalType": "address",
          "name": "_messengerAddress",
          "type": "address"
        },
        {
          "internalType": "uint256[]",
          "name": "_periodIds",
          "type": "uint256[]"
        },
        {
          "internalType": "enum PeriodRegistry.PeriodType",
          "name": "_periodType",
          "type": "uint8"
        },
        {
          "internalType": "address",
          "name": "_stakeRegistry",
          "type": "address"
        },
        {
          "internalType": "address",
          "name": "_periodRegistry",
          "type": "address"
        },
        {
          "internalType": "bool",
          "name": "_whitelisted",
          "type": "bool"
        },
        {
          "internalType": "bytes32",
          "name": "_extraData",
          "type": "bytes32"
        }
      ],
      "stateMutability": "nonpayable",
      "type": "constructor"
    },
    {
      "anonymous": false,
      "inputs": [
        {
          "indexed": true,
          "internalType": "address",
          "name": "previousOwner",
          "type": "address"
        },
        {
          "indexed": true,
          "internalType": "address",
          "name": "newOwner",
          "type": "address"
        }
      ],
      "name": "OwnershipTransferred",
      "type": "event"
    },
    {
      "anonymous": false,
      "inputs": [
        {
          "indexed": false,
          "internalType": "uint256",
          "name": "_periodId",
          "type": "uint256"
        },
        {
          "indexed": false,
          "internalType": "uint256",
          "name": "_sli",
          "type": "uint256"
        }
      ],
      "name": "SLANotRespected",
      "type": "event"
    },
    {
      "anonymous": false,
      "inputs": [
        {
          "indexed": false,
          "internalType": "uint256",
          "name": "_timestamp",
          "type": "uint256"
        },
        {
          "indexed": false,
          "internalType": "uint256",
          "name": "_sli",
          "type": "uint256"
        },
        {
          "indexed": false,
          "internalType": "uint256",
          "name": "_periodId",
          "type": "uint256"
        }
      ],
      "name": "SLICreated",
      "type": "event"
    },
    {
      "inputs": [],
      "name": "DSLAburnRate",
      "outputs": [
        {
          "internalType": "uint256",
          "name": "",
          "type": "uint256"
        }
      ],
      "stateMutability": "view",
      "type": "function"
    },
    {
      "inputs": [
        {
          "internalType": "address",
          "name": "_tokenAddress",
          "type": "address"
        }
      ],
      "name": "_claimCompensation",
      "outputs": [],
      "stateMutability": "nonpayable",
      "type": "function"
    },
    {
      "inputs": [
        {
          "internalType": "address",
          "name": "_tokenAddress",
          "type": "address"
        }
      ],
      "name": "addAllowedTokens",
      "outputs": [],
      "stateMutability": "nonpayable",
      "type": "function"
    },
    {
      "inputs": [
        {
          "internalType": "address",
          "name": "_userAddress",
          "type": "address"
        }
      ],
      "name": "addUserToWhitelist",
      "outputs": [],
      "stateMutability": "nonpayable",
      "type": "function"
    },
    {
      "inputs": [
        {
          "internalType": "uint256",
          "name": "",
          "type": "uint256"
        }
      ],
      "name": "allowedTokens",
      "outputs": [
        {
          "internalType": "address",
          "name": "",
          "type": "address"
        }
      ],
      "stateMutability": "view",
      "type": "function"
    },
    {
      "inputs": [],
      "name": "creationBlockNumber",
      "outputs": [
        {
          "internalType": "uint256",
          "name": "",
          "type": "uint256"
        }
      ],
      "stateMutability": "view",
      "type": "function"
    },
    {
      "inputs": [],
      "name": "dslaTokenAddress",
      "outputs": [
        {
          "internalType": "address",
          "name": "",
          "type": "address"
        }
      ],
      "stateMutability": "view",
      "type": "function"
    },
    {
      "inputs": [],
      "name": "extraData",
      "outputs": [
        {
          "internalType": "bytes32",
          "name": "",
          "type": "bytes32"
        }
      ],
      "stateMutability": "view",
      "type": "function"
    },
    {
      "inputs": [],
      "name": "getAllowedTokensLength",
      "outputs": [
        {
          "internalType": "uint256",
          "name": "",
          "type": "uint256"
        }
      ],
      "stateMutability": "view",
      "type": "function"
    },
    {
      "inputs": [
        {
          "internalType": "address",
          "name": "_tokenAddress",
          "type": "address"
        }
      ],
      "name": "getStakeholdersPositions",
      "outputs": [
        {
          "internalType": "uint256",
          "name": "providerStake",
          "type": "uint256"
        },
        {
          "internalType": "uint256",
          "name": "usersStake",
          "type": "uint256"
        }
      ],
      "stateMutability": "view",
      "type": "function"
    },
    {
      "inputs": [
        {
          "internalType": "address",
          "name": "_staker",
          "type": "address"
        },
        {
          "internalType": "uint256",
          "name": "_allowedTokenIndex",
          "type": "uint256"
        }
      ],
      "name": "getTokenStake",
      "outputs": [
        {
          "internalType": "address",
          "name": "tokenAddress",
          "type": "address"
        },
        {
          "internalType": "uint256",
          "name": "stake",
          "type": "uint256"
        }
      ],
      "stateMutability": "view",
      "type": "function"
    },
    {
      "inputs": [],
      "name": "ipfsHash",
      "outputs": [
        {
          "internalType": "string",
          "name": "",
          "type": "string"
        }
      ],
      "stateMutability": "view",
      "type": "function"
    },
    {
      "inputs": [
        {
          "internalType": "address",
          "name": "_tokenAddress",
          "type": "address"
        }
      ],
      "name": "isAllowedToken",
      "outputs": [
        {
          "internalType": "bool",
          "name": "",
          "type": "bool"
        }
      ],
      "stateMutability": "view",
      "type": "function"
    },
    {
      "inputs": [
        {
          "internalType": "address",
          "name": "_staker",
          "type": "address"
        }
      ],
      "name": "isStaker",
      "outputs": [
        {
          "internalType": "bool",
          "name": "",
          "type": "bool"
        }
      ],
      "stateMutability": "view",
      "type": "function"
    },
    {
      "inputs": [],
      "name": "messengerAddress",
      "outputs": [
        {
          "internalType": "address",
          "name": "",
          "type": "address"
        }
      ],
      "stateMutability": "view",
      "type": "function"
    },
    {
      "inputs": [],
      "name": "minimumDSLAStakedTier1",
      "outputs": [
        {
          "internalType": "uint256",
          "name": "",
          "type": "uint256"
        }
      ],
      "stateMutability": "view",
      "type": "function"
    },
    {
      "inputs": [],
      "name": "minimumDSLAStakedTier2",
      "outputs": [
        {
          "internalType": "uint256",
          "name": "",
          "type": "uint256"
        }
      ],
      "stateMutability": "view",
      "type": "function"
    },
    {
      "inputs": [],
      "name": "minimumDSLAStakedTier3",
      "outputs": [
        {
          "internalType": "uint256",
          "name": "",
          "type": "uint256"
        }
      ],
      "stateMutability": "view",
      "type": "function"
    },
    {
      "inputs": [],
      "name": "owner",
      "outputs": [
        {
          "internalType": "address",
          "name": "",
          "type": "address"
        }
      ],
      "stateMutability": "view",
      "type": "function"
    },
    {
      "inputs": [
        {
          "internalType": "uint256",
          "name": "",
          "type": "uint256"
        }
      ],
      "name": "periodIds",
      "outputs": [
        {
          "internalType": "uint256",
          "name": "",
          "type": "uint256"
        }
      ],
      "stateMutability": "view",
      "type": "function"
    },
    {
      "inputs": [],
      "name": "periodRegistry",
      "outputs": [
        {
          "internalType": "contract PeriodRegistry",
          "name": "",
          "type": "address"
        }
      ],
      "stateMutability": "view",
      "type": "function"
    },
    {
      "inputs": [],
      "name": "periodType",
      "outputs": [
        {
          "internalType": "enum PeriodRegistry.PeriodType",
          "name": "",
          "type": "uint8"
        }
      ],
      "stateMutability": "view",
      "type": "function"
    },
    {
      "inputs": [
        {
          "internalType": "uint256",
          "name": "",
          "type": "uint256"
        },
        {
          "internalType": "address",
          "name": "",
          "type": "address"
        }
      ],
      "name": "providerPeriodsRewards",
      "outputs": [
        {
          "internalType": "uint256",
          "name": "",
          "type": "uint256"
        }
      ],
      "stateMutability": "view",
      "type": "function"
    },
    {
      "inputs": [
        {
          "internalType": "address",
          "name": "_userAddress",
          "type": "address"
        }
      ],
      "name": "removeUserFromWhitelist",
      "outputs": [],
      "stateMutability": "nonpayable",
      "type": "function"
    },
    {
      "inputs": [],
      "name": "renounceOwnership",
      "outputs": [],
      "stateMutability": "nonpayable",
      "type": "function"
    },
    {
      "inputs": [
        {
          "internalType": "uint256",
          "name": "",
          "type": "uint256"
        }
      ],
      "name": "slaPeriods",
      "outputs": [
        {
          "internalType": "uint256",
          "name": "timestamp",
          "type": "uint256"
        },
        {
          "internalType": "uint256",
          "name": "sli",
          "type": "uint256"
        },
        {
          "internalType": "enum SLA.Status",
          "name": "status",
          "type": "uint8"
        }
      ],
      "stateMutability": "view",
      "type": "function"
    },
    {
      "inputs": [],
      "name": "slaPeriodsLength",
      "outputs": [
        {
          "internalType": "uint256",
          "name": "",
          "type": "uint256"
        }
      ],
      "stateMutability": "view",
      "type": "function"
    },
    {
      "inputs": [],
      "name": "slaRegistry",
      "outputs": [
        {
          "internalType": "contract SLARegistry",
          "name": "",
          "type": "address"
        }
      ],
      "stateMutability": "view",
      "type": "function"
    },
    {
      "inputs": [],
      "name": "slo",
      "outputs": [
        {
          "internalType": "contract SLO",
          "name": "",
          "type": "address"
        }
      ],
      "stateMutability": "view",
      "type": "function"
    },
    {
      "inputs": [
        {
          "internalType": "uint256",
          "name": "",
          "type": "uint256"
        }
      ],
      "name": "stakers",
      "outputs": [
        {
          "internalType": "address",
          "name": "",
          "type": "address"
        }
      ],
      "stateMutability": "view",
      "type": "function"
    },
    {
      "inputs": [
        {
          "internalType": "address",
          "name": "newOwner",
          "type": "address"
        }
      ],
      "name": "transferOwnership",
      "outputs": [],
      "stateMutability": "nonpayable",
      "type": "function"
    },
    {
      "inputs": [
        {
          "internalType": "address",
          "name": "",
          "type": "address"
        }
      ],
      "name": "usersCompensationPools",
      "outputs": [
        {
          "internalType": "uint256",
          "name": "",
          "type": "uint256"
        }
      ],
      "stateMutability": "view",
      "type": "function"
    },
    {
      "inputs": [
        {
          "internalType": "address",
          "name": "",
          "type": "address"
        }
      ],
      "name": "usersTotalPositions",
      "outputs": [
        {
          "internalType": "uint256",
          "name": "",
          "type": "uint256"
        }
      ],
      "stateMutability": "view",
      "type": "function"
    },
    {
      "inputs": [],
      "name": "whitelisted",
      "outputs": [
        {
          "internalType": "bool",
          "name": "",
          "type": "bool"
        }
      ],
      "stateMutability": "view",
      "type": "function"
    },
    {
      "inputs": [],
      "name": "yearlyPeriods",
      "outputs": [
        {
          "internalType": "uint256",
          "name": "",
          "type": "uint256"
        }
      ],
      "stateMutability": "view",
      "type": "function"
    },
    {
      "inputs": [
        {
          "internalType": "uint256",
          "name": "_sli",
          "type": "uint256"
        },
        {
          "internalType": "uint256",
          "name": "_periodId",
          "type": "uint256"
        }
      ],
      "name": "registerSLI",
      "outputs": [],
      "stateMutability": "nonpayable",
      "type": "function"
    },
    {
      "inputs": [
        {
          "internalType": "uint256",
          "name": "_periodId",
          "type": "uint256"
        }
      ],
      "name": "isAllowedPeriod",
      "outputs": [
        {
          "internalType": "bool",
          "name": "",
          "type": "bool"
        }
      ],
      "stateMutability": "view",
      "type": "function"
    },
    {
      "inputs": [
        {
          "internalType": "uint256",
          "name": "_amount",
          "type": "uint256"
        },
        {
          "internalType": "address",
          "name": "_token",
          "type": "address"
        }
      ],
      "name": "stakeTokens",
      "outputs": [],
      "stateMutability": "nonpayable",
      "type": "function"
    },
    {
      "inputs": [
        {
          "internalType": "uint256",
          "name": "_amount",
          "type": "uint256"
        },
        {
          "internalType": "address",
          "name": "_tokenAddress",
          "type": "address"
        }
      ],
      "name": "withdrawStakedTokens",
      "outputs": [],
      "stateMutability": "nonpayable",
      "type": "function"
    },
    {
      "inputs": [
        {
          "internalType": "address",
          "name": "_tokenAddress",
          "type": "address"
        }
      ],
      "name": "claimUserCompensation",
      "outputs": [],
      "stateMutability": "nonpayable",
      "type": "function"
    },
    {
      "inputs": [],
      "name": "getDetails",
      "outputs": [
        {
          "internalType": "address",
          "name": "_slaOwner",
          "type": "address"
        },
        {
          "internalType": "string",
          "name": "_ipfsHash",
          "type": "string"
        },
        {
          "internalType": "contract SLO",
          "name": "_SLO",
          "type": "address"
        },
        {
          "components": [
            {
              "internalType": "uint256",
              "name": "timestamp",
              "type": "uint256"
            },
            {
              "internalType": "uint256",
              "name": "sli",
              "type": "uint256"
            },
            {
              "internalType": "enum SLA.Status",
              "name": "status",
              "type": "uint8"
            }
          ],
          "internalType": "struct SLA.SLAPeriod[]",
          "name": "_SLAPeriods",
          "type": "tuple[]"
        },
        {
          "internalType": "uint256",
          "name": "_stakersCount",
          "type": "uint256"
        },
        {
          "components": [
            {
              "internalType": "address",
              "name": "tokenAddress",
              "type": "address"
            },
            {
              "internalType": "uint256",
              "name": "stake",
              "type": "uint256"
            }
          ],
          "internalType": "struct SLA.TokenStake[]",
          "name": "_tokensStake",
          "type": "tuple[]"
        }
      ],
      "stateMutability": "view",
      "type": "function"
    },
    {
      "inputs": [],
      "name": "breachedContract",
      "outputs": [
        {
          "internalType": "bool",
          "name": "",
          "type": "bool"
        }
      ],
      "stateMutability": "view",
      "type": "function"
    }
  ],
  "bytecode": "0x6080604052601d805460ff191690553480156200001b57600080fd5b5060405162003298380380620032988339810160408190526200003e91620006a6565b838386885185600062000056620003a460201b60201c565b600080546001600160a01b0319166001600160a01b03831690811782556040519293509160008051602062003278833981519152908290a350600180546001600160a01b038088166001600160a01b0319928316178355600280549188169190921617905560108054859260ff1990911690836005811115620000d557fe5b021790555060118290556012805460ff191682151517905560015460408051637b8041cf60e11b815290516000928392839283926001600160a01b03169163f700839e916004808301926080929190829003018186803b1580156200013957600080fd5b505afa1580156200014e573d6000803e3d6000fd5b505050506040513d601f19601f82011682018060405250810190620001749190620007d8565b600254604051635c98d15760e01b815294985092965090945092506000916001600160a01b0390911690635c98d15790620001b4908b906004016200080e565b604080518083038186803b158015620001cc57600080fd5b505afa158015620001e1573d6000803e3d6000fd5b505050506040513d601f19601f82011682018060405250810190620002079190620007a3565b50600f81905560015460408051638b8e530960e01b815290519293506001600160a01b0390911691638b8e530991600480820192602092909190829003018186803b1580156200025657600080fd5b505afa1580156200026b573d6000803e3d6000fd5b505050506040513d601f19601f8201168201806040525081019062000291919062000680565b600980546001600160a01b0319166001600160a01b039290921691909117905550600b93909355600c91909155600d55600e5550620002d793508d9250620003a8915050565b8751620002ec9060159060208b01906200045e565b50601980546001600160a01b03808a166001600160a01b03199283161790925560188054909116331790556016805491851661010002610100600160a81b031990921691909117905543601b5585516200034e906017906020890190620004e3565b506016805486919060ff191660018360058111156200036957fe5b0217905550601480546001600160a01b0319166001600160a01b039a909a1699909917909855505050601c9490945550620008de9350505050565b3390565b620003b2620003a4565b6000546001600160a01b03908116911614620003eb5760405162461bcd60e51b8152600401620003e29062000869565b60405180910390fd5b6001600160a01b038116620004145760405162461bcd60e51b8152600401620003e29062000823565b600080546040516001600160a01b03808516939216916000805160206200327883398151915291a3600080546001600160a01b0319166001600160a01b0392909216919091179055565b828054600181600116156101000203166002900490600052602060002090601f016020900481019282601f10620004a157805160ff1916838001178555620004d1565b82800160010185558215620004d1579182015b82811115620004d1578251825591602001919060010190620004b4565b50620004df92915062000520565b5090565b828054828255906000526020600020908101928215620004d15791602002820182811115620004d1578251825591602001919060010190620004b4565b5b80821115620004df576000815560010162000521565b80516200054481620008c5565b92915050565b600082601f8301126200055b578081fd5b81516001600160401b0381111562000571578182fd5b6020808202620005838282016200089e565b83815293508184018583018287018401881015620005a057600080fd5b600092505b84831015620005c5578051825260019290920191908301908301620005a5565b505050505092915050565b805180151581146200054457600080fd5b8051600681106200054457600080fd5b600082601f83011262000602578081fd5b81516001600160401b0381111562000618578182fd5b60206200062e601f8301601f191682016200089e565b925081835284818386010111156200064557600080fd5b60005b828110156200066557848101820151848201830152810162000648565b82811115620006775760008284860101525b50505092915050565b60006020828403121562000692578081fd5b81516200069f81620008c5565b9392505050565b6000806000806000806000806000806101408b8d031215620006c6578586fd5b620006d28c8c62000537565b9950620006e38c60208d0162000537565b60408c01519099506001600160401b038082111562000700578788fd5b6200070e8e838f01620005f1565b99506200071f8e60608f0162000537565b985060808d015191508082111562000735578788fd5b50620007448d828e016200054a565b965050620007568c60a08d01620005e1565b9450620007678c60c08d0162000537565b9350620007788c60e08d0162000537565b92506200078a8c6101008d01620005d0565b91506101208b015190509295989b9194979a5092959850565b60008060408385031215620007b6578182fd5b8251915060208301518015158114620007cd578182fd5b809150509250929050565b60008060008060808587031215620007ee578384fd5b505082516020840151604085015160609095015191969095509092509050565b60208101600683106200081d57fe5b91905290565b60208082526026908201527f4f776e61626c653a206e6577206f776e657220697320746865207a65726f206160408201526564647265737360d01b606082015260800190565b6020808252818101527f4f776e61626c653a2063616c6c6572206973206e6f7420746865206f776e6572604082015260600190565b6040518181016001600160401b0381118282101715620008bd57600080fd5b604052919050565b6001600160a01b0381168114620008db57600080fd5b50565b61298a80620008ee6000396000f3fe608060405234801561001057600080fd5b506004361061025e5760003560e01c80637fd788aa11610146578063d7a5c422116100c3578063f2fde38b11610087578063f2fde38b146104c0578063f51b7ab9146104d3578063f7e9dfff146104db578063f9902bb1146104e3578063fbbf93a0146104f6578063fd5e6dd1146105105761025e565b8063d7a5c42214610477578063db2da48c1461048a578063db69a4621461049d578063e68e276d146104a5578063ee575c28146104b85761025e565b8063b18ac9181161010a578063b18ac91814610437578063b7bc347e1461043f578063c623674f14610447578063cbe230c31461045c578063cd92890e1461046f5761025e565b80637fd788aa146103f55780638da5cb5b146103fd5780639ab4438f146104055780639fc4caa514610427578063a224ee9c1461042f5761025e565b80633d9287fa116101df5780635e5f2e26116101a35780635e5f2e261461037e578063609d33341461039e5780636f1e8533146103a65780636f265a34146103b9578063715018a6146103da578063747b8050146103e25761025e565b80633d9287fa1461032557806346e0fbae1461032d578063524f07351461034257806357ac94f0146103555780635c1c20de146103765761025e565b80631bf30929116102265780631bf30929146102dc5780631fc2cd93146102e457806327cd727c146102f75780632eb8197a1461030a57806333df1541146103125761025e565b8063021eef7f146102635780630ae9ea451461028c5780630bea440d146102ac5780630c5160f4146102c1578063171e44ea146102c9575b600080fd5b61027661027136600461209f565b610523565b60405161028391906122d1565b60405180910390f35b61029f61029a36600461209f565b61056d565b60405161028391906122dc565b6102bf6102ba3660046120cf565b61058b565b005b61029f610668565b6102bf6102d736600461203a565b61066e565b61029f6107bc565b6102bf6102f236600461203a565b6107c2565b6102bf6103053660046120cf565b610a15565b61029f610b55565b61029f6103203660046120cf565b610b5b565b610276610b78565b610335610b81565b60405161028391906122e5565b6102bf61035036600461203a565b610b8a565b610368610363366004612055565b610b96565b60405161028392919061220d565b61029f610be4565b61039161038c36600461209f565b610bea565b60405161028391906121d5565b61029f610c11565b6102766103b436600461203a565b610c17565b6103cc6103c736600461203a565b610c69565b6040516102839291906128de565b6102bf610cce565b6102bf6103f036600461203a565b610d4d565b610276610ddf565b610391610de8565b61041861041336600461209f565b610df7565b604051610283939291906128ec565b610391610e1b565b610391610e2f565b61029f610e3e565b61029f610e44565b61044f610e4a565b6040516102839190612311565b61027661046a36600461203a565b610ed8565b610391610f2a565b6102bf6104853660046120fb565b610f39565b61029f61049836600461203a565b611144565b610391611156565b61029f6104b336600461203a565b611165565b61029f611177565b6102bf6104ce36600461203a565b61117d565b61029f611233565b610391611239565b6102bf6104f136600461203a565b611248565b6104fe6112db565b60405161028396959493929190612226565b61039161051e36600461209f565b6115ce565b6000805b60175481101561056257826017828154811061053f57fe5b9060005260206000200154141561055a576001915050610568565b600101610527565b50600090505b919050565b6017818154811061057a57fe5b600091825260209091200154905081565b600082116105b45760405162461bcd60e51b81526004016105ab906127d7565b60405180910390fd5b601d5460ff16156105d75760405162461bcd60e51b81526004016105ab90612721565b6105e182826115db565b601854604051635948284760e11b81526001600160a01b039091169063b290508e906106119033906004016121d5565b602060405180830381600087803b15801561062b57600080fd5b505af115801561063f573d6000803e3d6000fd5b505050506040513d601f19601f82011682018060405250810190610663919061207f565b505050565b60115481565b610676611884565b6000546001600160a01b039081169116146106a35760405162461bcd60e51b81526004016105ab906126ec565b6106ac81610ed8565b156106c95760405162461bcd60e51b81526004016105ab906127aa565b60015460405163cbe230c360e01b81526001600160a01b039091169063cbe230c3906106f99084906004016121d5565b60206040518083038186803b15801561071157600080fd5b505afa158015610725573d6000803e3d6000fd5b505050506040513d601f19601f82011682018060405250810190610749919061207f565b151560011461076a5760405162461bcd60e51b81526004016105ab90612487565b600a80546001810182556000919091527fc65a7bb8d6351c1cf70c95a316cc6a92839c986682d98bc35f958f4883f9d2a80180546001600160a01b0319166001600160a01b0392909216919091179055565b601b5481565b6107ca610de8565b6001600160a01b0316336001600160a01b031614156107fb5760405162461bcd60e51b81526004016105ab90612899565b60125460ff1615156001141561083f573360009081526013602052604090205460ff16151560011461083f5760405162461bcd60e51b81526004016105ab90612576565b6001600160a01b038116600090815260046020908152604080832033845290915290205461271090806108845760405162461bcd60e51b81526004016105ab90612519565b6001600160a01b0383166000908152600560205260408120546108b1906108ab8486611888565b906118cb565b6001600160a01b038516600090815260066020526040812054919250906108de9085906108ab9085611888565b90506000856001600160a01b031663a9059cbb33846002026040518363ffffffff1660e01b815260040161091392919061220d565b602060405180830381600087803b15801561092d57600080fd5b505af1158015610941573d6000803e3d6000fd5b505050506040513d601f19601f82011682018060405250810190610965919061207f565b90506001811515146109895760405162461bcd60e51b81526004016105ab90612831565b6001600160a01b0386166000908152600560205260409020546109ac908561190d565b6001600160a01b0387166000908152600560209081526040808320939093556006905220546109db908361190d565b6001600160a01b03909616600090815260066020908152604080832098909855600481528782203383529052958620959095555050505050565b60008211610a355760405162461bcd60e51b81526004016105ab906127d7565b60178054600091906000198101908110610a4b57fe5b600091825260208220015460165460405160016259edcb60e01b031981529193506001600160a01b036101008204169163ffa6123591610a959160ff9091169086906004016122f9565b604080518083038186803b158015610aac57600080fd5b505afa158015610ac0573d6000803e3d6000fd5b505050506040513d601f19601f82011682018060405250810190610ae4919061211c565b601d5490925060ff161515600114905080610b295750804210158015610b2957506000828152601a6020526040812060029081015460ff1690811115610b2657fe5b14155b610b455760405162461bcd60e51b81526004016105ab9061238b565b610b4f848461194f565b50505050565b600e5481565b600760209081526000928352604080842090915290825290205481565b60125460ff1681565b60165460ff1681565b610b93816107c2565b50565b6000806000600a8481548110610ba857fe5b6000918252602080832091909101546001600160a01b039081168084526004835260408085209990921684529790915290205494959350505050565b600b5481565b600a8181548110610bf757fe5b6000918252602090912001546001600160a01b0316905081565b601c5481565b6000805b60085481101561056257826001600160a01b031660088281548110610c3c57fe5b6000918252602090912001546001600160a01b03161415610c61576001915050610568565b600101610c1b565b6001600160a01b0381166000908152600460205260408120819081610c8c610de8565b6001600160a01b039081168252602080830193909352604091820160009081205491871681526003909352912054909250610cc7908361190d565b9050915091565b610cd6611884565b6000546001600160a01b03908116911614610d035760405162461bcd60e51b81526004016105ab906126ec565b600080546040516001600160a01b03909116907f8be0079c531659141344cd1fd0a4f28419497f9722a3daafe3b4186f6b6457e0908390a3600080546001600160a01b0319169055565b610d55611884565b6000546001600160a01b03908116911614610d825760405162461bcd60e51b81526004016105ab906126ec565b6001600160a01b03811660009081526013602052604090205460ff1615610dbb5760405162461bcd60e51b81526004016105ab90612359565b6001600160a01b03166000908152601360205260409020805460ff19166001179055565b601d5460ff1690565b6000546001600160a01b031690565b601a6020526000908152604090208054600182015460029092015490919060ff1683565b60165461010090046001600160a01b031681565b6019546001600160a01b031681565b600d5481565b600a5490565b6015805460408051602060026001851615610100026000190190941693909304601f81018490048402820184019092528181529291830182828015610ed05780601f10610ea557610100808354040283529160200191610ed0565b820191906000526020600020905b815481529060010190602001808311610eb357829003601f168201915b505050505081565b6000805b600a5481101561056257826001600160a01b0316600a8281548110610efd57fe5b6000918252602090912001546001600160a01b03161415610f22576001915050610568565b600101610edc565b6014546001600160a01b031681565b6019546001600160a01b03163314610f635760405162461bcd60e51b81526004016105ab906124d4565b7fc95987c1992805ee34bdc915e017cceae36ba1c156b9911fa7e691e6435eb46e428383604051610f9693929190612912565b60405180910390a16000818152601a60209081526040808320600181018690554281556014548251633fa4f24560e01b815292519194936001600160a01b0390911692633fa4f2459260048083019392829003018186803b158015610ffa57600080fd5b505afa15801561100e573d6000803e3d6000fd5b505050506040513d601f19601f8201168201806040525081019061103291906120b7565b6014546040516303c8f2e360e21b81529192506001600160a01b031690630f23cb8c906110639087906004016122dc565b60206040518083038186803b15801561107b57600080fd5b505afa15801561108f573d6000803e3d6000fd5b505050506040513d601f19601f820116820180604052508101906110b3919061207f565b156110df5760028201805460ff191660011790556110da836110d5868461190d565b611b19565b610b4f565b6002828101805460ff191690911790556110f7611c7d565b601d805460ff191660011790556040517fbd33f7a3bfa88a467c9df5ae7d2341cf061084c386b20a0d48130f5cbce38a4d9061113690859087906128de565b60405180910390a150505050565b60066020526000908152604090205481565b6018546001600160a01b031681565b60056020526000908152604090205481565b600c5481565b611185611884565b6000546001600160a01b039081169116146111b25760405162461bcd60e51b81526004016105ab906126ec565b6001600160a01b0381166111d85760405162461bcd60e51b81526004016105ab9061240a565b600080546040516001600160a01b03808516939216917f8be0079c531659141344cd1fd0a4f28419497f9722a3daafe3b4186f6b6457e091a3600080546001600160a01b0319166001600160a01b0392909216919091179055565b600f5481565b6009546001600160a01b031681565b611250611884565b6000546001600160a01b0390811691161461127d5760405162461bcd60e51b81526004016105ab906126ec565b6001600160a01b03811660009081526013602052604090205460ff1615156001146112ba5760405162461bcd60e51b81526004016105ab90612803565b6001600160a01b03166000908152601360205260409020805460ff19169055565b6000606060006060600060606112ef610de8565b60158054604080516020601f600260001961010060018816150201909516949094049384018190048102820181019092528281529399508301828280156113775780601f1061134c57610100808354040283529160200191611377565b820191906000526020600020905b81548152906001019060200180831161135a57829003601f168201915b50506014546017549499506001600160a01b031697505067ffffffffffffffff831191505080156113a757600080fd5b506040519080825280602002602001820160405280156113e157816020015b6113ce611fe1565b8152602001906001900390816113c65790505b50925060005b6017548110156114be5760006017828154811061140057fe5b90600052602060002001549050611415611fe1565b6000828152601a6020908152604091829020825160608101845281548152600182015492810192909252600280820154929391929184019160ff169081111561145a57fe5b600281111561146557fe5b815250509050604051806060016040528082600001518152602001826020015181526020018260400151600281111561149a57fe5b8152508684815181106114a957fe5b602090810291909101015250506001016113e7565b50600854600a5490925067ffffffffffffffff811180156114de57600080fd5b5060405190808252806020026020018201604052801561151857816020015b61150561200c565b8152602001906001900390816114fd5790505b50905060005b600a548110156115c5576040518060400160405280600a838154811061154057fe5b9060005260206000200160009054906101000a90046001600160a01b03166001600160a01b0316815260200160036000600a858154811061157d57fe5b60009182526020808320909101546001600160a01b03168352820192909252604001902054905282518390839081106115b257fe5b602090810291909101015260010161151e565b50909192939495565b60088181548110610bf757fe5b806115e581610ed8565b15156001146116065760405162461bcd60e51b81526004016105ab906126be565b60125460ff1615156001141561164a573360009081526013602052604090205460ff16151560011461164a5760405162461bcd60e51b81526004016105ab90612576565b611652610de8565b6001600160a01b0316336001600160a01b0316146116a75760008061167684610c69565b9092509050816116868287611de8565b11156116a45760405162461bcd60e51b81526004016105ab90612635565b50505b6040516323b872dd60e01b81526000906001600160a01b038416906323b872dd906116da903390309089906004016121e9565b602060405180830381600087803b1580156116f457600080fd5b505af1158015611708573d6000803e3d6000fd5b505050506040513d601f19601f8201168201806040525081019061172c919061207f565b90506001811515146117505760405162461bcd60e51b81526004016105ab90612769565b6001600160a01b0383166000908152600360205260409020546117739085611de8565b6001600160a01b03841660009081526003602090815260408083209390935560048152828220338352905220546117aa9085611de8565b6001600160a01b0384166000908152600460209081526040808320338085529252909120919091556117db90610c17565b61182257600880546001810182556000919091527ff3f7a9fe364faab93b216da50a3214154f22a0a2b415b23a84c8169e8b636ee30180546001600160a01b031916331790555b61182a610de8565b6001600160a01b0316336001600160a01b031614610b4f576001600160a01b0383166000908152600560205260409020546118659085611de8565b6001600160a01b03841660009081526005602052604090205550505050565b3390565b600082611897575060006118c5565b828202828482816118a457fe5b04146118c25760405162461bcd60e51b81526004016105ab9061267d565b90505b92915050565b60006118c283836040518060400160405280601a81526020017f536166654d6174683a206469766973696f6e206279207a65726f000000000000815250611e0d565b60006118c283836040518060400160405280601e81526020017f536166654d6174683a207375627472616374696f6e206f766572666c6f770000815250611e44565b8061195981610ed8565b151560011461197a5760405162461bcd60e51b81526004016105ab906126be565b60125460ff161515600114156119be573360009081526013602052604090205460ff1615156001146119be5760405162461bcd60e51b81526004016105ab90612576565b6001600160a01b0382166000908152600460209081526040808320338452909152902054831115611a015760405162461bcd60e51b81526004016105ab906125eb565b6001600160a01b038216600090815260036020526040902054611a24908461190d565b6001600160a01b0383166000908152600360209081526040808320939093556004815282822033835290522054611a5b908461190d565b6001600160a01b038316600081815260046020818152604080842033808652925280842095909555935163a9059cbb60e01b8152919363a9059cbb92611aa39289910161220d565b602060405180830381600087803b158015611abd57600080fd5b505af1158015611ad1573d6000803e3d6000fd5b505050506040513d601f19601f82011682018060405250810190611af5919061207f565b9050600181151514610b4f5760405162461bcd60e51b81526004016105ab90612324565b60005b600a54811015610663576000600a8281548110611b3557fe5b60009182526020822001546001600160a01b03169150611b5482610c69565b915050600061271090506000611b85600f546108ab88611b7f8660115461188890919063ffffffff16565b90611888565b90506000611b9a606484026108ab8685611888565b6009549091506001600160a01b0386811691161415611bcd576000611bbe82611e70565b9050611bca828261190d565b50505b6001600160a01b0385166000908152600460205260408120611c1491839190611bf4610de8565b6001600160a01b0316815260208101919091526040016000205490611de8565b6001600160a01b038616600090815260046020526040812090611c35610de8565b6001600160a01b03908116825260208083019390935260409182016000908120949094558b845260078352818420981683529690529490942093909355505050600101611b1c565b60005b600a54811015610b93576000600a8281548110611c9957fe5b60009182526020822001546001600160a01b03169150611cb882610c69565b6009549092508291506001600160a01b0384811691161415611cee576000611cdf82611e70565b9050611ceb828261190d565b50505b6001600160a01b038316600090815260036020526040902054611d11908261190d565b6001600160a01b03841660009081526003602090815260408083209390935560049052908120611d6691839190611d46610de8565b6001600160a01b031681526020810191909152604001600020549061190d565b6001600160a01b038416600090815260046020526040812090611d87610de8565b6001600160a01b0390811682526020808301939093526040918201600090812094909455861683526006909152902054611dc19082611de8565b6001600160a01b039093166000908152600660205260409020929092555050600101611c80565b6000828201838110156118c25760405162461bcd60e51b81526004016105ab90612450565b60008183611e2e5760405162461bcd60e51b81526004016105ab9190612311565b506000838581611e3a57fe5b0495945050505050565b60008184841115611e685760405162461bcd60e51b81526004016105ab9190612311565b505050900390565b60408051808201909152600d81526c6275726e2875696e743235362960981b602090910152600b546000907f42966c689b5afe9b9b3f8a7103b2a19980d59629bfd6a20a60972312ed41d83690611ed0906103e8906108ab908690611888565b6009546040519193506000916001600160a01b03909116908390611ef89086906024016122dc565b60408051601f198184030181529181526020820180516001600160e01b03166001600160e01b0319909416939093179092529051611f3691906121b9565b6000604051808303816000865af19150503d8060008114611f73576040519150601f19603f3d011682016040523d82523d6000602084013e611f78565b606091505b5050905080611f995760405162461bcd60e51b81526004016105ab906125a7565b6009546001600160a01b0316600090815260036020526040902054611fbe908461190d565b6009546001600160a01b0316600090815260036020526040902055509092915050565b604051806060016040528060008152602001600081526020016000600281111561200757fe5b905290565b604080518082019091526000808252602082015290565b80356001600160a01b03811681146118c557600080fd5b60006020828403121561204b578081fd5b6118c28383612023565b60008060408385031215612067578081fd5b6120718484612023565b946020939093013593505050565b600060208284031215612090578081fd5b815180151581146118c2578182fd5b6000602082840312156120b0578081fd5b5035919050565b6000602082840312156120c8578081fd5b5051919050565b600080604083850312156120e1578182fd5b823591506120f28460208501612023565b90509250929050565b6000806040838503121561210d578182fd5b50508035926020909101359150565b6000806040838503121561212e578182fd5b505080516020909101519092909150565b6000815180845260208085019450808401835b8381101561218257815180516001600160a01b031688528301518388015260409096019590820190600101612152565b509495945050505050565b600081518084526121a5816020860160208601612928565b601f01601f19169290920160200192915050565b600082516121cb818460208701612928565b9190910192915050565b6001600160a01b0391909116815260200190565b6001600160a01b039384168152919092166020820152604081019190915260600190565b6001600160a01b03929092168252602082015260400190565b600060018060a01b038089168352602060c08185015261224960c085018a61218d565b6040838a168187015260609350858203848701528189518084528484019150848b019350865b818110156122a65784518051845286810151878501528401516003811061229257fe5b83850152938501939186019160010161226f565b505088608088015286810360a08801526122c0818961213f565b9d9c50505050505050505050505050565b901515815260200190565b90815260200190565b60208101600683106122f357fe5b91905290565b604081016006841061230757fe5b9281526020015290565b6000602082526118c2602083018461218d565b6020808252818101527f5374616b6520776974686472617720776173206e6f742073756363657366756c604082015260600190565b602080825260189082015277155cd95c88185b1c9958591e481dda1a5d195b1a5cdd195960421b604082015260600190565b60208082526059908201527f43616e206f6e6c79207769746864726177207374616b6520616674657220746860408201527f652066696e616c20706572696f642069732066696e6973686564206f72206966606082015278081d1a194818dbdb9d1c9858dd081a5cc8189c995858da1959603a1b608082015260a00190565b60208082526026908201527f4f776e61626c653a206e6577206f776e657220697320746865207a65726f206160408201526564647265737360d01b606082015260800190565b6020808252601b908201527f536166654d6174683a206164646974696f6e206f766572666c6f770000000000604082015260600190565b6020808252602d908201527f546f6b656e206e6f7420616c6c6f7765642062792074686520534c415265676960408201526c1cdd1c9e4818dbdb9d1c9858dd609a1b606082015260800190565b60208082526025908201527f4f6e6c79204d657373656e6765722063616e2063616c6c20746869732066756e60408201526431ba34b7b760d91b606082015260800190565b6020808252603a908201527f43616e206f6e6c7920636c61696d206120636f6d70656e736174696f6e20696660408201527f20706f736974696f6e20697320626967676572207468616e2030000000000000606082015260800190565b602080825260179082015276155cd95c881a5cc81b9bdd081dda1a5d195b1a5cdd1959604a1b604082015260600190565b60208082526024908201527f44534c41206275726e2070726f6365737320776173206e6f74207375636365736040820152631cd99d5b60e21b606082015260800190565b6020808252602a908201527f53686f756c64206e6f74207769746864726177206d6f7265207374616b6520746040820152691a185b881cdd185ad95960b21b606082015260800190565b60208082526028908201527f43616e6e6f74207374616b65206d6f7265207468616e20534c412070726f76696040820152676465727374616b6560c01b606082015260800190565b60208082526021908201527f536166654d6174683a206d756c7469706c69636174696f6e206f766572666c6f6040820152607760f81b606082015260800190565b6020808252601490820152731d1bdad95b881a5cc81b9bdd08185b1b1bddd95960621b604082015260600190565b6020808252818101527f4f776e61626c653a2063616c6c6572206973206e6f7420746865206f776e6572604082015260600190565b60208082526028908201527f43616e206f6e6c79207374616b65206f6e206e6f7420627265616368656420636040820152676f6e74726163747360c01b606082015260800190565b60208082526021908201527f5374616b696e672070726f6365737320776173206e6f742073756363657366756040820152601b60fa1b606082015260800190565b602080825260139082015272151bdad95b88185b1c9958591e481859191959606a1b604082015260600190565b6020808252601290820152710616d6f756e742063616e6e6f7420626520360741b604082015260600190565b602080825260149082015273155cd95c881b9bdd081dda1a5d195b1a5cdd195960621b604082015260600190565b60208082526042908201527f5472616e736665722070726f636573732066726f6d20534c4120636f6e74726160408201527f637420746f206d73672e73656e64657220776173206e6f7420737563636573666060820152611d5b60f21b608082015260a00190565b60208082526025908201527f53686f756c64206e6f742062652063616c6c65642062792074686520534c412060408201526437bbb732b960d91b606082015260800190565b918252602082015260400190565b83815260208101839052606081016003831061290457fe5b826040830152949350505050565b9283526020830191909152604082015260600190565b60005b8381101561294357818101518382015260200161292b565b83811115610b4f575050600091015256fea2646970667358221220edb060746556bcf299c5fbb3c4f2cb21711d236505143d3286353fde442087e064736f6c634300060c00338be0079c531659141344cd1fd0a4f28419497f9722a3daafe3b4186f6b6457e0",
  "immutableReferences": {},
  "source": "// SPDX-License-Identifier: MIT\npragma solidity ^0.6.0;\npragma experimental ABIEncoderV2;\n\nimport \"@openzeppelin/contracts/access/Ownable.sol\";\nimport \"@openzeppelin/contracts/token/ERC20/IERC20.sol\";\nimport \"@openzeppelin/contracts/math/SafeMath.sol\";\nimport \"./SLO.sol\";\nimport \"./SLARegistry.sol\";\nimport \"./PeriodRegistry.sol\";\nimport \"./Staking.sol\";\n\n/**\n * @title SLA\n * @dev SLA is a service level agreement contract used for service downtime\n * compensation\n */\ncontract SLA is Staking {\n    using SafeMath for uint256;\n\n    enum Status {NotVerified, Respected, NotRespected}\n\n    /// @dev Struct used for storing period status\n    struct SLAPeriod {\n        uint256 timestamp;\n        uint256 sli;\n        Status status;\n    }\n\n    struct TokenStake {\n        address tokenAddress;\n        uint256 stake;\n    }\n\n    /// @dev address of the SLO\n    SLO public slo;\n\n    /// @dev The ipfs hash that stores extra information about the agreement\n    string public ipfsHash;\n\n    /// @dev uint8 of the period type\n    PeriodRegistry.PeriodType public periodType;\n\n    PeriodRegistry public periodRegistry;\n\n    /// @dev array of he allowed canonical period ids\n    uint256[] public periodIds;\n\n    /// @dev The address of the slaRegistry contract\n    SLARegistry public slaRegistry;\n\n    /// @dev The address of the messenger\n    address public messengerAddress;\n\n    /// @dev periodId=>SLAPeriod mapping\n    mapping(uint256 => SLAPeriod) public slaPeriods;\n\n    /// @dev block number of SLA deployment\n    uint256 public creationBlockNumber;\n\n    /// @dev extra data for customized workflows\n    bytes32 public extraData;\n\n    /// @dev states if the contract was breached or not\n    bool private _breachedContract = false;\n\n    /**\n     * @dev event for SLI creation logging\n     * @param _timestamp 1. the time the SLI has been registered\n     * @param _sli 2. the value of the SLI\n     * @param _periodId 3. the id of the given period\n     */\n    event SLICreated(uint256 _timestamp, uint256 _sli, uint256 _periodId);\n\n    /**\n     * @dev event for SLI creation logging\n     * @param _periodId 1. the id of the given period\n     * @param _sli 2. value of the SLI\n     */\n    event SLANotRespected(uint256 _periodId, uint256 _sli);\n\n    /**\n     * @dev throws if called by any address other than the messenger contract.\n     */\n    modifier onlyMessenger() {\n        require(\n            msg.sender == messengerAddress,\n            \"Only Messenger can call this function\"\n        );\n        _;\n    }\n\n    /**\n     * @dev throws if called by any address other than the messenger contract.\n     */\n    modifier onlySLARegistry() {\n        require(\n            msg.sender == address(slaRegistry),\n            \"Only SLARegistry can call this function\"\n        );\n        _;\n    }\n\n    /**\n     * @param _owner 1. address of the owner of the service level agreement\n     * @param _SLO 2. address of the SLO\n     * @param _ipfsHash 3. string with the ipfs hash that contains SLA information\n     * @param _periodIds 4. id of the allowed canonical periods\n     * @param _periodType 5. period type of the SLA contract\n     * @param _stakeRegistry 6. stakeRegistry address\n     * @param _periodRegistry 7. periodRegistry address\n     * @param _whitelisted 8. boolean to declare whitelisted contracts\n     * @param _extraData 9. boolean to declare whitelisted contracts\n     */\n    constructor(\n        address _owner,\n        SLO _SLO,\n        string memory _ipfsHash,\n        address _messengerAddress,\n        uint256[] memory _periodIds,\n        PeriodRegistry.PeriodType _periodType,\n        address _stakeRegistry,\n        address _periodRegistry,\n        bool _whitelisted,\n        bytes32 _extraData\n    )\n        public\n        Staking(\n            _stakeRegistry,\n            _periodRegistry,\n            _periodType,\n            _periodIds.length,\n            _whitelisted\n        )\n    {\n        transferOwnership(_owner);\n        ipfsHash = _ipfsHash;\n        messengerAddress = _messengerAddress;\n        slaRegistry = SLARegistry(msg.sender);\n        periodRegistry = PeriodRegistry(_periodRegistry);\n        creationBlockNumber = block.number;\n        periodIds = _periodIds;\n        periodType = _periodType;\n        slo = _SLO;\n        extraData = _extraData;\n    }\n\n    /**\n     * @dev external function to register SLI's and check them against the SLO's\n     * @param _sli 1. the value of the SLI to check\n     * @param _periodId 2. the id of the given period\n     */\n    function registerSLI(uint256 _sli, uint256 _periodId)\n        external\n        onlyMessenger\n    {\n        emit SLICreated(block.timestamp, _sli, _periodId);\n        SLAPeriod storage slaPeriod = slaPeriods[_periodId];\n        slaPeriod.sli = _sli;\n        slaPeriod.timestamp = block.timestamp;\n        uint256 sloValue = slo.value();\n        if (slo.isRespected(_sli)) {\n            slaPeriod.status = Status.Respected;\n            _setRespectedPeriodReward(_periodId, _sli.sub(sloValue));\n        } else {\n            slaPeriod.status = Status.NotRespected;\n            _setUsersCompensationPool();\n            _breachedContract = true;\n            emit SLANotRespected(_periodId, _sli);\n        }\n    }\n\n    function isAllowedPeriod(uint256 _periodId) public view returns (bool) {\n        for (uint256 index = 0; index < periodIds.length; index++) {\n            if (periodIds[index] == _periodId) {\n                return true;\n            }\n        }\n        return false;\n    }\n\n    /**\n     *@dev stake _amount tokens into the _token contract\n     *@param _amount 1. amount to be staked\n     *@param _token 2. address of the ERC to be staked\n     */\n\n    function stakeTokens(uint256 _amount, address _token) public {\n        require(_amount > 0, \"amount cannot be 0\");\n        require(\n            _breachedContract == false,\n            \"Can only stake on not breached contracts\"\n        );\n        _stake(_amount, _token);\n        slaRegistry.registerStakedSla(msg.sender);\n    }\n\n    /**\n     *@dev withdraw _amount tokens from the _token contract\n     *@param _amount 1. amount to be staked\n     *@param _tokenAddress 2. address of the ERC to be staked\n     */\n\n    function withdrawStakedTokens(uint256 _amount, address _tokenAddress)\n        public\n    {\n        require(_amount > 0, \"amount cannot be 0\");\n        uint256 lastValidPeriodId = periodIds[periodIds.length - 1];\n        (, uint256 endOfLastValidPeriod) =\n            periodRegistry.getPeriodStartAndEnd(periodType, lastValidPeriodId);\n        // providers and users can withdraw only if the contract is breached\n        // or if the last period is finished and the period status was verified\n        require(\n            _breachedContract == true ||\n                (block.timestamp >= endOfLastValidPeriod &&\n                    slaPeriods[lastValidPeriodId].status != Status.NotVerified),\n            \"Can only withdraw stake after the final period is finished or if the contract is breached\"\n        );\n        _withdraw(_amount, _tokenAddress);\n    }\n\n    /**\n     *@dev withdraw provider reward of a given token address\n     *@param _tokenAddress 1. address of the token to withdraw rewards\n     */\n\n    function claimUserCompensation(address _tokenAddress) public {\n        _claimCompensation(_tokenAddress);\n    }\n\n    /**\n     * @dev external view function that returns all agreement information\n     * @return _slaOwner 1. address  owner\n     * @return _ipfsHash 2. string  ipfsHash\n     * @return _SLO 3. addresses of the SLO\n     * @return _SLAPeriods 5. SLAPeriod[]\n     * @return _stakersCount 6. amount of stakers\n     * @return _tokensStake 7. SLAPeriod[]  addresses array\n     */\n\n    function getDetails()\n        external\n        view\n        returns (\n            address _slaOwner,\n            string memory _ipfsHash,\n            SLO _SLO,\n            SLAPeriod[] memory _SLAPeriods,\n            uint256 _stakersCount,\n            TokenStake[] memory _tokensStake\n        )\n    {\n        _slaOwner = owner();\n        _ipfsHash = ipfsHash;\n        _SLO = slo;\n        _SLAPeriods = new SLAPeriod[](periodIds.length);\n        for (uint256 index = 0; index < periodIds.length; index++) {\n            uint256 periodId = periodIds[index];\n            SLAPeriod memory slaPeriod = slaPeriods[periodId];\n            _SLAPeriods[index] = SLAPeriod({\n                status: slaPeriod.status,\n                sli: slaPeriod.sli,\n                timestamp: slaPeriod.timestamp\n            });\n        }\n        _stakersCount = stakers.length;\n        _tokensStake = new TokenStake[](allowedTokens.length);\n        for (uint256 index = 0; index < allowedTokens.length; index++) {\n            _tokensStake[index] = TokenStake({\n                tokenAddress: allowedTokens[index],\n                stake: tokenPools[allowedTokens[index]]\n            });\n        }\n    }\n\n    function breachedContract() public view returns (bool) {\n        return _breachedContract;\n    }\n}\n",
  "sourcePath": "/Users/matiasbn/Desktop/stacktical/stacktical-dsla-contracts/contracts/SLA.sol",
  "compiler": {
    "name": "solc",
    "version": "0.6.12+commit.27d51765.Emscripten.clang"
  },
  "schemaVersion": "3.3.3",
  "updatedAt": "2021-02-18T15:47:16.560Z",
  "devdoc": {
    "details": "SLA is a service level agreement contract used for service downtime compensation",
    "events": {
      "SLANotRespected(uint256,uint256)": {
        "details": "event for SLI creation logging",
        "params": {
          "_periodId": "1. the id of the given period",
          "_sli": "2. value of the SLI"
        }
      },
      "SLICreated(uint256,uint256,uint256)": {
        "details": "event for SLI creation logging",
        "params": {
          "_periodId": "3. the id of the given period",
          "_sli": "2. the value of the SLI",
          "_timestamp": "1. the time the SLI has been registered"
        }
      }
    },
    "kind": "dev",
    "methods": {
      "_claimCompensation(address)": {
        "details": "claim user compensation. Transfers both the compensation and the user remaining stake.",
        "params": {
          "_tokenAddress": "1. address of the token to claim compensation"
        }
      },
      "addAllowedTokens(address)": {
        "details": "add a token to ve allowed for staking",
        "params": {
          "_tokenAddress": "1. address of the new allowed token"
        }
      },
      "claimUserCompensation(address)": {
        "details": "withdraw provider reward of a given token address",
        "params": {
          "_tokenAddress": "1. address of the token to withdraw rewards"
        }
      },
      "constructor": {
        "params": {
          "_SLO": "2. address of the SLO",
          "_extraData": "9. boolean to declare whitelisted contracts",
          "_ipfsHash": "3. string with the ipfs hash that contains SLA information",
          "_owner": "1. address of the owner of the service level agreement",
          "_periodIds": "4. id of the allowed canonical periods",
          "_periodRegistry": "7. periodRegistry address",
          "_periodType": "5. period type of the SLA contract",
          "_stakeRegistry": "6. stakeRegistry address",
          "_whitelisted": "8. boolean to declare whitelisted contracts"
        }
      },
      "getAllowedTokensLength()": {
        "details": "use this function to evaluate the length of the allowed tokens length",
        "returns": {
          "_0": "allowedTokens.length"
        }
      },
      "getDetails()": {
        "details": "external view function that returns all agreement information",
        "returns": {
          "_SLAPeriods": "5. SLAPeriod[]",
          "_SLO": "3. addresses of the SLO",
          "_ipfsHash": "2. string  ipfsHash",
          "_slaOwner": "1. address  owner",
          "_stakersCount": "6. amount of stakers",
          "_tokensStake": "7. SLAPeriod[]  addresses array"
        }
      },
      "getStakeholdersPositions(address)": {
        "details": "gets the positions of stake both for provider and for users",
        "params": {
          "_tokenAddress": "1. token address to get the positions"
        },
        "returns": {
          "providerStake": "position of the provider (owner) of the SLA contract",
          "usersStake": "position of the user of the SLA contract"
        }
      },
      "isAllowedToken(address)": {
        "details": "checks in the allowedTokens array if there's a token with _tokenAddress value",
        "params": {
          "_tokenAddress": "1. token address to check exixtence"
        },
        "returns": {
          "_0": "true if _tokenAddress exists in the allowedTokens array"
        }
      },
      "isStaker(address)": {
        "details": "returns true if the _staker address is registered as staker",
        "params": {
          "_staker": "1. staker address"
        },
        "returns": {
          "_0": "true if address is staker"
        }
      },
      "owner()": {
        "details": "Returns the address of the current owner."
      },
      "registerSLI(uint256,uint256)": {
        "details": "external function to register SLI's and check them against the SLO's",
        "params": {
          "_periodId": "2. the id of the given period",
          "_sli": "1. the value of the SLI to check"
        }
      },
      "renounceOwnership()": {
        "details": "Leaves the contract without owner. It will not be possible to call `onlyOwner` functions anymore. Can only be called by the current owner. NOTE: Renouncing ownership will leave the contract without an owner, thereby removing any functionality that is only available to the owner."
      },
      "stakeTokens(uint256,address)": {
        "details": "stake _amount tokens into the _token contract",
        "params": {
          "_amount": "1. amount to be staked",
          "_token": "2. address of the ERC to be staked"
        }
      },
      "transferOwnership(address)": {
        "details": "Transfers ownership of the contract to a new account (`newOwner`). Can only be called by the current owner."
      },
      "withdrawStakedTokens(uint256,address)": {
        "details": "withdraw _amount tokens from the _token contract",
        "params": {
          "_amount": "1. amount to be staked",
          "_tokenAddress": "2. address of the ERC to be staked"
        }
      }
    },
    "stateVariables": {
      "_breachedContract": {
        "details": "states if the contract was breached or not"
      },
      "creationBlockNumber": {
        "details": "block number of SLA deployment"
      },
      "extraData": {
        "details": "extra data for customized workflows"
      },
      "ipfsHash": {
        "details": "The ipfs hash that stores extra information about the agreement"
      },
      "messengerAddress": {
        "details": "The address of the messenger"
      },
      "periodIds": {
        "details": "array of he allowed canonical period ids"
      },
      "periodType": {
        "details": "uint8 of the period type"
      },
      "slaPeriods": {
        "details": "periodId=>SLAPeriod mapping"
      },
      "slaRegistry": {
        "details": "The address of the slaRegistry contract"
      },
      "slo": {
        "details": "address of the SLO"
      }
    },
    "title": "SLA",
    "version": 1
  },
  "userdoc": {
    "kind": "user",
    "methods": {
      "_claimCompensation(address)": {
        "notice": "it uses the user position and the user total position per token to check the proportion of the compensation pool that corresponds to every user"
      }
    },
    "version": 1
  }
}