{
  "contractName": "SLA",
  "abi": [
    {
      "inputs": [
        {
          "internalType": "address",
          "name": "_owner",
          "type": "address"
        },
        {
          "internalType": "contract SLO",
          "name": "_SLO",
          "type": "address"
        },
        {
          "internalType": "string",
          "name": "_ipfsHash",
          "type": "string"
        },
        {
          "internalType": "address",
          "name": "_dslaTokenAddress",
          "type": "address"
        },
        {
          "internalType": "uint256[]",
          "name": "_canonicalPeriodIds",
          "type": "uint256[]"
        },
        {
          "internalType": "address",
          "name": "_slaRegistryAddress",
          "type": "address"
        },
        {
          "internalType": "uint256",
          "name": "_providerRewardPercentage",
          "type": "uint256"
        },
        {
          "internalType": "uint256",
          "name": "_burnRate",
          "type": "uint256"
        },
        {
          "internalType": "uint256",
          "name": "_minimumDSLAStakedTier1",
          "type": "uint256"
        },
        {
          "internalType": "uint256",
          "name": "_minimumDSLAStakedTier2",
          "type": "uint256"
        },
        {
          "internalType": "uint256",
          "name": "_minimumDSLAStakedTier3",
          "type": "uint256"
        }
      ],
      "stateMutability": "nonpayable",
      "type": "constructor"
    },
    {
      "anonymous": false,
      "inputs": [
        {
          "indexed": true,
          "internalType": "address",
          "name": "previousOwner",
          "type": "address"
        },
        {
          "indexed": true,
          "internalType": "address",
          "name": "newOwner",
          "type": "address"
        }
      ],
      "name": "OwnershipTransferred",
      "type": "event"
    },
    {
      "anonymous": false,
      "inputs": [
        {
          "indexed": false,
          "internalType": "uint256",
          "name": "_periodId",
          "type": "uint256"
        },
        {
          "indexed": false,
          "internalType": "uint256",
          "name": "_sli",
          "type": "uint256"
        }
      ],
      "name": "SLANotRespected",
      "type": "event"
    },
    {
      "anonymous": false,
      "inputs": [
        {
          "indexed": false,
          "internalType": "uint256",
          "name": "_timestamp",
          "type": "uint256"
        },
        {
          "indexed": false,
          "internalType": "uint256",
          "name": "_sli",
          "type": "uint256"
        },
        {
          "indexed": false,
          "internalType": "uint256",
          "name": "_periodId",
          "type": "uint256"
        }
      ],
      "name": "SLICreated",
      "type": "event"
    },
    {
      "inputs": [
        {
          "internalType": "address",
          "name": "_tokenAddress",
          "type": "address"
        }
      ],
      "name": "_claimCompensation",
      "outputs": [],
      "stateMutability": "nonpayable",
      "type": "function"
    },
    {
      "inputs": [
        {
          "internalType": "address",
          "name": "_tokenAddress",
          "type": "address"
        }
      ],
      "name": "addAllowedTokens",
      "outputs": [],
      "stateMutability": "nonpayable",
      "type": "function"
    },
    {
      "inputs": [
        {
          "internalType": "uint256",
          "name": "",
          "type": "uint256"
        }
      ],
      "name": "allowedTokens",
      "outputs": [
        {
          "internalType": "address",
          "name": "",
          "type": "address"
        }
      ],
      "stateMutability": "view",
      "type": "function"
    },
    {
      "inputs": [],
      "name": "burnRate",
      "outputs": [
        {
          "internalType": "uint256",
          "name": "",
          "type": "uint256"
        }
      ],
      "stateMutability": "view",
      "type": "function"
    },
    {
      "inputs": [
        {
          "internalType": "uint256",
          "name": "",
          "type": "uint256"
        }
      ],
      "name": "canonicalPeriodIds",
      "outputs": [
        {
          "internalType": "uint256",
          "name": "",
          "type": "uint256"
        }
      ],
      "stateMutability": "view",
      "type": "function"
    },
    {
      "inputs": [],
      "name": "creationBlockNumber",
      "outputs": [
        {
          "internalType": "uint256",
          "name": "",
          "type": "uint256"
        }
      ],
      "stateMutability": "view",
      "type": "function"
    },
    {
      "inputs": [],
      "name": "dslaTokenAddress",
      "outputs": [
        {
          "internalType": "address",
          "name": "",
          "type": "address"
        }
      ],
      "stateMutability": "view",
      "type": "function"
    },
    {
      "inputs": [],
      "name": "getAllowedTokensLength",
      "outputs": [
        {
          "internalType": "uint256",
          "name": "",
          "type": "uint256"
        }
      ],
      "stateMutability": "view",
      "type": "function"
    },
    {
      "inputs": [
        {
          "internalType": "address",
          "name": "_tokenAddress",
          "type": "address"
        }
      ],
      "name": "getStakeholdersStakes",
      "outputs": [
        {
          "internalType": "uint256",
          "name": "providerStake",
          "type": "uint256"
        },
        {
          "internalType": "uint256",
          "name": "usersStake",
          "type": "uint256"
        }
      ],
      "stateMutability": "view",
      "type": "function"
    },
    {
      "inputs": [
        {
          "internalType": "address",
          "name": "_staker",
          "type": "address"
        },
        {
          "internalType": "uint256",
          "name": "_allowedTokenIndex",
          "type": "uint256"
        }
      ],
      "name": "getTokenStake",
      "outputs": [
        {
          "internalType": "address",
          "name": "tokenAddress",
          "type": "address"
        },
        {
          "internalType": "uint256",
          "name": "stake",
          "type": "uint256"
        }
      ],
      "stateMutability": "view",
      "type": "function"
    },
    {
      "inputs": [],
      "name": "ipfsHash",
      "outputs": [
        {
          "internalType": "string",
          "name": "",
          "type": "string"
        }
      ],
      "stateMutability": "view",
      "type": "function"
    },
    {
      "inputs": [
        {
          "internalType": "address",
          "name": "_tokenAddress",
          "type": "address"
        }
      ],
      "name": "isAllowedToken",
      "outputs": [
        {
          "internalType": "bool",
          "name": "",
          "type": "bool"
        }
      ],
      "stateMutability": "view",
      "type": "function"
    },
    {
      "inputs": [],
      "name": "minimumDSLAStakedTier1",
      "outputs": [
        {
          "internalType": "uint256",
          "name": "",
          "type": "uint256"
        }
      ],
      "stateMutability": "view",
      "type": "function"
    },
    {
      "inputs": [],
      "name": "minimumDSLAStakedTier2",
      "outputs": [
        {
          "internalType": "uint256",
          "name": "",
          "type": "uint256"
        }
      ],
      "stateMutability": "view",
      "type": "function"
    },
    {
      "inputs": [],
      "name": "minimumDSLAStakedTier3",
      "outputs": [
        {
          "internalType": "uint256",
          "name": "",
          "type": "uint256"
        }
      ],
      "stateMutability": "view",
      "type": "function"
    },
    {
      "inputs": [],
      "name": "owner",
      "outputs": [
        {
          "internalType": "address",
          "name": "",
          "type": "address"
        }
      ],
      "stateMutability": "view",
      "type": "function"
    },
    {
      "inputs": [
        {
          "internalType": "address",
          "name": "",
          "type": "address"
        }
      ],
      "name": "providerAvailableReward",
      "outputs": [
        {
          "internalType": "uint256",
          "name": "",
          "type": "uint256"
        }
      ],
      "stateMutability": "view",
      "type": "function"
    },
    {
      "inputs": [
        {
          "internalType": "uint256",
          "name": "",
          "type": "uint256"
        },
        {
          "internalType": "address",
          "name": "",
          "type": "address"
        }
      ],
      "name": "providerPeriodsRewards",
      "outputs": [
        {
          "internalType": "uint256",
          "name": "",
          "type": "uint256"
        }
      ],
      "stateMutability": "view",
      "type": "function"
    },
    {
      "inputs": [],
      "name": "providerRewardPercentage",
      "outputs": [
        {
          "internalType": "uint256",
          "name": "",
          "type": "uint256"
        }
      ],
      "stateMutability": "view",
      "type": "function"
    },
    {
      "inputs": [],
      "name": "renounceOwnership",
      "outputs": [],
      "stateMutability": "nonpayable",
      "type": "function"
    },
    {
      "inputs": [
        {
          "internalType": "uint256",
          "name": "",
          "type": "uint256"
        }
      ],
      "name": "slaPeriods",
      "outputs": [
        {
          "internalType": "uint256",
          "name": "timestamp",
          "type": "uint256"
        },
        {
          "internalType": "uint256",
          "name": "sli",
          "type": "uint256"
        },
        {
          "internalType": "enum SLA.Status",
          "name": "status",
          "type": "uint8"
        }
      ],
      "stateMutability": "view",
      "type": "function"
    },
    {
      "inputs": [],
      "name": "slaRegistry",
      "outputs": [
        {
          "internalType": "contract SLARegistry",
          "name": "",
          "type": "address"
        }
      ],
      "stateMutability": "view",
      "type": "function"
    },
    {
      "inputs": [],
      "name": "slo",
      "outputs": [
        {
          "internalType": "contract SLO",
          "name": "",
          "type": "address"
        }
      ],
      "stateMutability": "view",
      "type": "function"
    },
    {
      "inputs": [
        {
          "internalType": "uint256",
          "name": "",
          "type": "uint256"
        }
      ],
      "name": "stakers",
      "outputs": [
        {
          "internalType": "address",
          "name": "",
          "type": "address"
        }
      ],
      "stateMutability": "view",
      "type": "function"
    },
    {
      "inputs": [
        {
          "internalType": "address",
          "name": "newOwner",
          "type": "address"
        }
      ],
      "name": "transferOwnership",
      "outputs": [],
      "stateMutability": "nonpayable",
      "type": "function"
    },
    {
      "inputs": [
        {
          "internalType": "address",
          "name": "",
          "type": "address"
        }
      ],
      "name": "usersCompensationPools",
      "outputs": [
        {
          "internalType": "uint256",
          "name": "",
          "type": "uint256"
        }
      ],
      "stateMutability": "view",
      "type": "function"
    },
    {
      "inputs": [
        {
          "internalType": "address",
          "name": "",
          "type": "address"
        }
      ],
      "name": "usersTotalPositions",
      "outputs": [
        {
          "internalType": "uint256",
          "name": "",
          "type": "uint256"
        }
      ],
      "stateMutability": "view",
      "type": "function"
    },
    {
      "inputs": [
        {
          "internalType": "uint256",
          "name": "_sli",
          "type": "uint256"
        },
        {
          "internalType": "uint256",
          "name": "_periodId",
          "type": "uint256"
        }
      ],
      "name": "registerSLI",
      "outputs": [],
      "stateMutability": "nonpayable",
      "type": "function"
    },
    {
      "inputs": [
        {
          "internalType": "uint256",
          "name": "_amount",
          "type": "uint256"
        },
        {
          "internalType": "address",
          "name": "_token",
          "type": "address"
        }
      ],
      "name": "stakeTokens",
      "outputs": [],
      "stateMutability": "nonpayable",
      "type": "function"
    },
    {
      "inputs": [
        {
          "internalType": "uint256",
          "name": "_amount",
          "type": "uint256"
        },
        {
          "internalType": "address",
          "name": "_tokenAddress",
          "type": "address"
        }
      ],
      "name": "withdrawStakedTokens",
      "outputs": [],
      "stateMutability": "nonpayable",
      "type": "function"
    },
    {
      "inputs": [
        {
          "internalType": "address",
          "name": "_tokenAddress",
          "type": "address"
        }
      ],
      "name": "claimProviderReward",
      "outputs": [],
      "stateMutability": "nonpayable",
      "type": "function"
    },
    {
      "inputs": [
        {
          "internalType": "address",
          "name": "_tokenAddress",
          "type": "address"
        }
      ],
      "name": "claimUserCompensation",
      "outputs": [],
      "stateMutability": "nonpayable",
      "type": "function"
    },
    {
      "inputs": [],
      "name": "getDetails",
      "outputs": [
        {
          "internalType": "address",
          "name": "_slaOwner",
          "type": "address"
        },
        {
          "internalType": "string",
          "name": "_ipfsHash",
          "type": "string"
        },
        {
          "internalType": "contract SLO",
          "name": "_SLO",
          "type": "address"
        },
        {
          "components": [
            {
              "internalType": "uint256",
              "name": "timestamp",
              "type": "uint256"
            },
            {
              "internalType": "uint256",
              "name": "sli",
              "type": "uint256"
            },
            {
              "internalType": "enum SLA.Status",
              "name": "status",
              "type": "uint8"
            }
          ],
          "internalType": "struct SLA.SLAPeriod[]",
          "name": "_SLAPeriods",
          "type": "tuple[]"
        },
        {
          "internalType": "uint256",
          "name": "_stakersCount",
          "type": "uint256"
        },
        {
          "components": [
            {
              "internalType": "address",
              "name": "tokenAddress",
              "type": "address"
            },
            {
              "internalType": "uint256",
              "name": "stake",
              "type": "uint256"
            }
          ],
          "internalType": "struct SLA.TokenStake[]",
          "name": "_tokensStake",
          "type": "tuple[]"
        }
      ],
      "stateMutability": "view",
      "type": "function"
    },
    {
      "inputs": [],
      "name": "breachedContract",
      "outputs": [
        {
          "internalType": "bool",
          "name": "",
          "type": "bool"
        }
      ],
      "stateMutability": "view",
      "type": "function"
    }
  ],
  "bytecode": "0x60806040526016805460ff191690553480156200001b57600080fd5b5060405162002eed38038062002eed8339810160408190526200003e91620004b5565b87868686868686600062000051620001f8565b600080546001600160a01b0319166001600160a01b03831690811782556040519293509160008051602062002ecd833981519152908290a350600980546001600160a01b039889166001600160a01b031991821681179092556001805498909916978116979097178855600a8054988901815560009081527fc65a7bb8d6351c1cf70c95a316cc6a92839c986682d98bc35f958f4883f9d2a8909801805490971617909555600b93909355600c91909155600d55600e55600f555b600188510381101562000178578781600101815181106200012957fe5b60200260200101518882815181106200013e57fe5b6020026020010151106200016f5760405162461bcd60e51b81526004016200016690620005a4565b60405180910390fd5b6001016200010c565b50620001848b620001fc565b8851620001999060119060208c0190620002a9565b50601380546001600160a01b03191633179055436015558651620001c59060129060208a01906200032e565b5050601080546001600160a01b0319166001600160a01b039a909a16999099179098555062000687975050505050505050565b3390565b62000206620001f8565b6000546001600160a01b03908116911614620002365760405162461bcd60e51b815260040162000166906200062b565b6001600160a01b0381166200025f5760405162461bcd60e51b81526004016200016690620005e5565b600080546040516001600160a01b038085169392169160008051602062002ecd83398151915291a3600080546001600160a01b0319166001600160a01b0392909216919091179055565b828054600181600116156101000203166002900490600052602060002090601f016020900481019282601f10620002ec57805160ff19168380011785556200031c565b828001600101855582156200031c579182015b828111156200031c578251825591602001919060010190620002ff565b506200032a9291506200036b565b5090565b8280548282559060005260206000209081019282156200031c57916020028201828111156200031c578251825591602001919060010190620002ff565b5b808211156200032a57600081556001016200036c565b80516001600160a01b03811681146200039a57600080fd5b92915050565b600082601f830112620003b1578081fd5b81516001600160401b03811115620003c7578182fd5b6020808202620003d982820162000660565b83815293508184018583018287018401881015620003f657600080fd5b600092505b848310156200041b578051825260019290920191908301908301620003fb565b505050505092915050565b600082601f83011262000437578081fd5b81516001600160401b038111156200044d578182fd5b602062000463601f8301601f1916820162000660565b925081835284818386010111156200047a57600080fd5b60005b828110156200049a5784810182015184820183015281016200047d565b82811115620004ac5760008284860101525b50505092915050565b60008060008060008060008060008060006101608c8e031215620004d7578687fd5b620004e38d8d62000382565b9a50620004f48d60208e0162000382565b60408d0151909a506001600160401b0381111562000510578788fd5b6200051e8e828f0162000426565b995050620005308d60608e0162000382565b60808d01519098506001600160401b038111156200054c578788fd5b6200055a8e828f01620003a0565b9750506200056c8d60a08e0162000382565b955060c08c0151945060e08c015193506101008c015192506101208c015191506101408c015190509295989b509295989b9093969950565b60208082526021908201527f506572696f64206964732061727261792073686f756c6420626520736f7274656040820152601960fa1b606082015260800190565b60208082526026908201527f4f776e61626c653a206e6577206f776e657220697320746865207a65726f206160408201526564647265737360d01b606082015260800190565b6020808252818101527f4f776e61626c653a2063616c6c6572206973206e6f7420746865206f776e6572604082015260600190565b6040518181016001600160401b03811182821017156200067f57600080fd5b604052919050565b61283680620006976000396000f3fe608060405234801561001057600080fd5b50600436106101c65760003560e01c8063b7bc347e116100fa578063db69a4621161009d578063db69a46214610389578063dcd21f1814610391578063e68e276d146103b2578063ecd731ca146103c5578063ee575c28146103d8578063f2fde38b146103e0578063f7e9dfff146103f3578063fbbf93a0146103fb578063fd5e6dd114610415576101c6565b8063b7bc347e14610310578063bed9985014610318578063c623674f14610320578063cbe230c314610335578063cd92890e14610348578063d7a5c42214610350578063d94a29c114610363578063db2da48c14610376576101c6565b8063524f07351161016d578063524f07351461025a57806357ac94f01461026d5780635e5f2e261461028e578063715018a6146102ae5780637fd788aa146102b65780638da5cb5b146102cb5780639868e51a146102d35780639ab4438f146102e6578063b18ac91814610308576101c6565b80630bea440d146101cb578063171e44ea146101e05780631bf30929146101f35780631fc2cd931461021157806327cd727c146102245780632eb8197a1461023757806333df15411461023f57806336a05f2614610252575b600080fd5b6101de6101d9366004611f32565b610428565b005b6101de6101ee366004611e97565b610505565b6101fb610690565b6040516102089190612762565b60405180910390f35b6101de61021f366004611e97565b610696565b6101de610232366004611f32565b610899565b6101fb6109ec565b6101fb61024d366004611f32565b6109f2565b6101fb610a0f565b6101de610268366004611e97565b610a15565b61028061027b366004611eb3565b610a56565b604051610208929190612073565b6102a161029c366004611f1a565b610aa4565b604051610208919061203b565b6101de610acb565b6102be610b4a565b6040516102089190612136565b6102a1610b53565b6101fb6102e1366004611f1a565b610b62565b6102f96102f4366004611f1a565b610b80565b60405161020893929190612779565b6101fb610ba4565b6101fb610baa565b6101fb610bb0565b610328610bb6565b6040516102089190612141565b6102be610343366004611e97565b610c44565b6102a1610ca1565b6101de61035e366004611f61565b610cb0565b6101de610371366004611e97565b610ec0565b6101fb610384366004611e97565b610efe565b6102a1610f10565b6103a461039f366004611e97565b610f1f565b60405161020892919061276b565b6101fb6103c0366004611e97565b610f84565b6101fb6103d3366004611e97565b610f96565b6101fb610fa8565b6101de6103ee366004611e97565b610fae565b6102a1611064565b610403611073565b6040516102089695949392919061208c565b6102a1610423366004611f1a565b611366565b600082116104515760405162461bcd60e51b81526004016104489061262c565b60405180910390fd5b60165460ff16156104745760405162461bcd60e51b81526004016104489061250a565b61047e8282611373565b601354604051635948284760e11b81526001600160a01b039091169063b290508e906104ae90339060040161203b565b602060405180830381600087803b1580156104c857600080fd5b505af11580156104dc573d6000803e3d6000fd5b505050506040513d601f19601f820116820180604052508101906105009190611ede565b505050565b61050d6115d9565b6000546001600160a01b0390811691161461053a5760405162461bcd60e51b8152600401610448906124d5565b61054381610c44565b156105605760405162461bcd60e51b815260040161044890612552565b60015460405163cbe230c360e01b81526001600160a01b039091169063cbe230c39061059090849060040161203b565b60206040518083038186803b1580156105a857600080fd5b505afa1580156105bc573d6000803e3d6000fd5b505050506040513d601f19601f820116820180604052508101906105e09190611ede565b15156001146106015760405162461bcd60e51b8152600401610448906122a1565b600954600090610619906001600160a01b0316610f1f565b509050600d54811161063d5760405162461bcd60e51b8152600401610448906126c0565b50600a80546001810182556000919091527fc65a7bb8d6351c1cf70c95a316cc6a92839c986682d98bc35f958f4883f9d2a80180546001600160a01b0319166001600160a01b0392909216919091179055565b60155481565b61069e610b53565b6001600160a01b0316336001600160a01b031614156106cf5760405162461bcd60e51b81526004016104489061271d565b6001600160a01b038116600090815260036020908152604080832033845290915290205461271090806107145760405162461bcd60e51b815260040161044890612333565b6001600160a01b0383166000908152600460205260408120546107419061073b84866115dd565b90611620565b6001600160a01b0385166000908152600660205260408120549192509061076e90859061073b90856115dd565b6001600160a01b0386166000908152600460205260409020549091506107949084611662565b6001600160a01b0386166000908152600460209081526040808320939093556006905220546107c39082611662565b6001600160a01b03861660008181526006602090815260408083209490945560038152838220338084529152838220829055925163a9059cbb60e01b8152909263a9059cbb9161081b91906002870290600401612073565b602060405180830381600087803b15801561083557600080fd5b505af1158015610849573d6000803e3d6000fd5b505050506040513d601f19601f8201168201806040525081019061086d9190611ede565b90506001811515146108915760405162461bcd60e51b815260040161044890612658565b505050505050565b600082116108b95760405162461bcd60e51b81526004016104489061262c565b6108c1610b53565b6001600160a01b0316336001600160a01b0316146109de57601280546000919060001981019081106108ef57fe5b60009182526020822001546013546040516306fe745760e51b81529193506001600160a01b03169063dfce8ae09061092b908590600401612762565b604080518083038186803b15801561094257600080fd5b505afa158015610956573d6000803e3d6000fd5b505050506040513d601f19601f8201168201806040525081019061097a9190611f82565b60165490925060ff1615156001149050806109bf57508042101580156109bf5750600082815260146020526040812060029081015460ff16908111156109bc57fe5b14155b6109db5760405162461bcd60e51b815260040161044890612154565b50505b6109e882826116a4565b5050565b600f5481565b600760209081526000928352604080842090915290825290205481565b600b5481565b610a1d6115d9565b6000546001600160a01b03908116911614610a4a5760405162461bcd60e51b8152600401610448906124d5565b610a5381610696565b50565b6000806000600a8481548110610a6857fe5b6000918252602080832091909101546001600160a01b039081168084526003835260408085209990921684529790915290205494959350505050565b600a8181548110610ab157fe5b6000918252602090912001546001600160a01b0316905081565b610ad36115d9565b6000546001600160a01b03908116911614610b005760405162461bcd60e51b8152600401610448906124d5565b600080546040516001600160a01b03909116907f8be0079c531659141344cd1fd0a4f28419497f9722a3daafe3b4186f6b6457e0908390a3600080546001600160a01b0319169055565b60165460ff1690565b6000546001600160a01b031690565b60128181548110610b6f57fe5b600091825260209091200154905081565b60146020526000908152604090208054600182015460029092015490919060ff1683565b600e5481565b600a5490565b600c5481565b6011805460408051602060026001851615610100026000190190941693909304601f81018490048402820184019092528181529291830182828015610c3c5780601f10610c1157610100808354040283529160200191610c3c565b820191906000526020600020905b815481529060010190602001808311610c1f57829003601f168201915b505050505081565b6000805b600a54811015610c9657826001600160a01b0316600a8281548110610c6957fe5b6000918252602090912001546001600160a01b03161415610c8e576001915050610c9c565b600101610c48565b50600090505b919050565b6010546001600160a01b031681565b601360009054906101000a90046001600160a01b03166001600160a01b0316633cb747bf6040518163ffffffff1660e01b815260040160206040518083038186803b158015610cfe57600080fd5b505afa158015610d12573d6000803e3d6000fd5b505050506040513d601f19601f82011682018060405250810190610d369190611efe565b6001600160a01b0316336001600160a01b031614610d665760405162461bcd60e51b8152600401610448906122ee565b7fc95987c1992805ee34bdc915e017cceae36ba1c156b9911fa7e691e6435eb46e428383604051610d999392919061279f565b60405180910390a16000818152601460205260409081902060018101849055428155601054915163868d08f760e01b815290916001600160a01b03169063868d08f790610dea908690600401612762565b60206040518083038186803b158015610e0257600080fd5b505afa158015610e16573d6000803e3d6000fd5b505050506040513d601f19601f82011682018060405250810190610e3a9190611ede565b15610e5c5760028101805460ff19166001179055610e578261188b565b610500565b6002818101805460ff19169091179055610e746119ac565b6016805460ff191660011790556040517fbd33f7a3bfa88a467c9df5ae7d2341cf061084c386b20a0d48130f5cbce38a4d90610eb3908490869061276b565b60405180910390a1505050565b610ec86115d9565b6000546001600160a01b03908116911614610ef55760405162461bcd60e51b8152600401610448906124d5565b610a5381611b17565b60066020526000908152604090205481565b6013546001600160a01b031681565b6001600160a01b0381166000908152600360205260408120819081610f42610b53565b6001600160a01b039081168252602080830193909352604091820160009081205491871681526002909352912054909250610f7d9083611662565b9050915091565b60046020526000908152604090205481565b60056020526000908152604090205481565b600d5481565b610fb66115d9565b6000546001600160a01b03908116911614610fe35760405162461bcd60e51b8152600401610448906124d5565b6001600160a01b0381166110095760405162461bcd60e51b815260040161044890612224565b600080546040516001600160a01b03808516939216917f8be0079c531659141344cd1fd0a4f28419497f9722a3daafe3b4186f6b6457e091a3600080546001600160a01b0319166001600160a01b0392909216919091179055565b6009546001600160a01b031681565b600060606000606060006060611087610b53565b60118054604080516020601f6002600019610100600188161502019095169490940493840181900481028201810190925282815293995083018282801561110f5780601f106110e45761010080835404028352916020019161110f565b820191906000526020600020905b8154815290600101906020018083116110f257829003601f168201915b50506010546012549499506001600160a01b031697505067ffffffffffffffff8311915050801561113f57600080fd5b5060405190808252806020026020018201604052801561117957816020015b611166611e55565b81526020019060019003908161115e5790505b50925060005b6012548110156112565760006012828154811061119857fe5b906000526020600020015490506111ad611e55565b600082815260146020908152604091829020825160608101845281548152600182015492810192909252600280820154929391929184019160ff16908111156111f257fe5b60028111156111fd57fe5b815250509050604051806060016040528082600001518152602001826020015181526020018260400151600281111561123257fe5b81525086848151811061124157fe5b6020908102919091010152505060010161117f565b50600854600a5490925067ffffffffffffffff8111801561127657600080fd5b506040519080825280602002602001820160405280156112b057816020015b61129d611e80565b8152602001906001900390816112955790505b50905060005b600a5481101561135d576040518060400160405280600a83815481106112d857fe5b9060005260206000200160009054906101000a90046001600160a01b03166001600160a01b0316815260200160026000600a858154811061131557fe5b60009182526020808320909101546001600160a01b031683528201929092526040019020549052825183908390811061134a57fe5b60209081029190910101526001016112b6565b50909192939495565b60088181548110610ab157fe5b8061137d81610c44565b151560011461139e5760405162461bcd60e51b8152600401610448906124a7565b6113a6610b53565b6001600160a01b0316336001600160a01b0316146113fb576000806113ca84610f1f565b9092509050816113da8287611c0a565b11156113f85760405162461bcd60e51b81526004016104489061241e565b50505b6001600160a01b03821660009081526002602052604090205461141e9084611c0a565b6001600160a01b03831660009081526002602090815260408083209390935560038152828220338352905220546114559084611c0a565b6001600160a01b03831660009081526003602090815260408083203380855292529091209190915561148690611c2f565b6114cd57600880546001810182556000919091527ff3f7a9fe364faab93b216da50a3214154f22a0a2b415b23a84c8169e8b636ee30180546001600160a01b031916331790555b6040516323b872dd60e01b81526000906001600160a01b038416906323b872dd906115009033903090899060040161204f565b602060405180830381600087803b15801561151a57600080fd5b505af115801561152e573d6000803e3d6000fd5b505050506040513d601f19601f820116820180604052508101906115529190611ede565b90506001811515146115765760405162461bcd60e51b8152600401610448906125cf565b61157e610b53565b6001600160a01b0316336001600160a01b0316146115d3576001600160a01b0383166000908152600460205260409020546115b99085611c0a565b6001600160a01b0384166000908152600460205260409020555b50505050565b3390565b6000826115ec5750600061161a565b828202828482816115f957fe5b04146116175760405162461bcd60e51b815260040161044890612466565b90505b92915050565b600061161783836040518060400160405280601a81526020017f536166654d6174683a206469766973696f6e206279207a65726f000000000000815250611c81565b600061161783836040518060400160405280601e81526020017f536166654d6174683a207375627472616374696f6e206f766572666c6f770000815250611cb8565b806116ae81610c44565b15156001146116cf5760405162461bcd60e51b8152600401610448906124a7565b6001600160a01b03821660009081526003602090815260408083203384529091529020548311156117125760405162461bcd60e51b8152600401610448906123d4565b61171a610b53565b6001600160a01b0316336001600160a01b031614156117705760008061173f84610f1f565b90925090508061174f8387611662565b101561176d5760405162461bcd60e51b81526004016104489061257f565b50505b6001600160a01b0382166000908152600260205260409020546117939084611662565b6001600160a01b03831660009081526002602090815260408083209390935560038152828220338352905220546117ca9084611662565b6001600160a01b038316600081815260036020908152604080832033808552925280832094909455925163a9059cbb60e01b8152909263a9059cbb9161181591908890600401612073565b602060405180830381600087803b15801561182f57600080fd5b505af1158015611843573d6000803e3d6000fd5b505050506040513d601f19601f820116820180604052508101906118679190611ede565b90506001811515146115d35760405162461bcd60e51b815260040161044890612658565b60005b600a548110156109e8576000600a82815481106118a757fe5b60009182526020822001546001600160a01b031691506118c682610f1f565b91505060006118e5606461073b600b54856115dd90919063ffffffff16565b6009549091506001600160a01b038481169116141561191857600061190982611ce4565b90506119158282611662565b50505b6001600160a01b03831660009081526002602052604090205461193b9082611662565b6001600160a01b03841660009081526002602090815260408083209390935560059052205461196a9082611c0a565b6001600160a01b03909316600081815260056020908152604080832096909655878252600781528582209282529190915292909220919091555060010161188e565b60005b600a54811015610a53576000600a82815481106119c857fe5b60009182526020822001546001600160a01b031691506119e782610f1f565b6009549092508291506001600160a01b0384811691161415611a1d576000611a0e82611ce4565b9050611a1a8282611662565b50505b6001600160a01b038316600090815260026020526040902054611a409082611662565b6001600160a01b03841660009081526002602090815260408083209390935560039052908120611a9591839190611a75610b53565b6001600160a01b0316815260208101919091526040016000205490611662565b6001600160a01b038416600090815260036020526040812090611ab6610b53565b6001600160a01b0390811682526020808301939093526040918201600090812094909455861683526006909152902054611af09082611c0a565b6001600160a01b0390931660009081526006602052604090209290925550506001016119af565b6001600160a01b03811660009081526005602052604090205480611b4d5760405162461bcd60e51b8152600401610448906121d3565b6001600160a01b03821660008181526005602052604081208190559063a9059cbb611b76610b53565b846040518363ffffffff1660e01b8152600401611b94929190612073565b602060405180830381600087803b158015611bae57600080fd5b505af1158015611bc2573d6000803e3d6000fd5b505050506040513d601f19601f82011682018060405250810190611be69190611ede565b90506001811515146105005760405162461bcd60e51b815260040161044890612658565b6000828201838110156116175760405162461bcd60e51b81526004016104489061226a565b6000805b600854811015610c9657826001600160a01b031660088281548110611c5457fe5b6000918252602090912001546001600160a01b03161415611c79576001915050610c9c565b600101611c33565b60008183611ca25760405162461bcd60e51b81526004016104489190612141565b506000838581611cae57fe5b0495945050505050565b60008184841115611cdc5760405162461bcd60e51b81526004016104489190612141565b505050900390565b60408051808201909152600d81526c6275726e2875696e743235362960981b602090910152600c546000907f42966c689b5afe9b9b3f8a7103b2a19980d59629bfd6a20a60972312ed41d83690611d44906103e89061073b9086906115dd565b6009546040519193506000916001600160a01b03909116908390611d6c908690602401612762565b60408051601f198184030181529181526020820180516001600160e01b03166001600160e01b0319909416939093179092529051611daa919061201f565b6000604051808303816000865af19150503d8060008114611de7576040519150601f19603f3d011682016040523d82523d6000602084013e611dec565b606091505b5050905080611e0d5760405162461bcd60e51b815260040161044890612390565b6009546001600160a01b0316600090815260026020526040902054611e329084611662565b6009546001600160a01b0316600090815260026020526040902055509092915050565b6040518060600160405280600081526020016000815260200160006002811115611e7b57fe5b905290565b604080518082019091526000808252602082015290565b600060208284031215611ea8578081fd5b8135611617816127eb565b60008060408385031215611ec5578081fd5b8235611ed0816127eb565b946020939093013593505050565b600060208284031215611eef578081fd5b81518015158114611617578182fd5b600060208284031215611f0f578081fd5b8151611617816127eb565b600060208284031215611f2b578081fd5b5035919050565b60008060408385031215611f44578182fd5b823591506020830135611f56816127eb565b809150509250929050565b60008060408385031215611f73578182fd5b50508035926020909101359150565b60008060408385031215611f94578182fd5b505080516020909101519092909150565b6000815180845260208085019450808401835b83811015611fe857815180516001600160a01b031688528301518388015260409096019590820190600101611fb8565b509495945050505050565b6000815180845261200b8160208601602086016127b5565b601f01601f19169290920160200192915050565b600082516120318184602087016127b5565b9190910192915050565b6001600160a01b0391909116815260200190565b6001600160a01b039384168152919092166020820152604081019190915260600190565b6001600160a01b03929092168252602082015260400190565b600060018060a01b038089168352602060c0818501526120af60c085018a611ff3565b6040838a168187015260609350858203848701528189518084528484019150848b019350865b8181101561210b5784518051845286810151878501528401516120f7816127e1565b8385015293850193918601916001016120d5565b505088608088015286810360a08801526121258189611fa5565b9d9c50505050505050505050505050565b901515815260200190565b6000602082526116176020830184611ff3565b60208082526059908201527f43616e206f6e6c79207769746864726177207374616b6520616674657220746860408201527f652066696e616c20706572696f642069732066696e6973686564206f72206966606082015278081d1a194818dbdb9d1c9858dd081a5cc8189c995858da1959603a1b608082015260a00190565b60208082526031908201527f4e6f7420617661696c61626c65207265776172647320666f722074686520676960408201527076656e20746f6b656e206164647265737360781b606082015260800190565b60208082526026908201527f4f776e61626c653a206e6577206f776e657220697320746865207a65726f206160408201526564647265737360d01b606082015260800190565b6020808252601b908201527f536166654d6174683a206164646974696f6e206f766572666c6f770000000000604082015260600190565b6020808252602d908201527f546f6b656e206e6f7420616c6c6f7765642062792074686520534c415265676960408201526c1cdd1c9e4818dbdb9d1c9858dd609a1b606082015260800190565b60208082526025908201527f4f6e6c79204d657373656e6765722063616e2063616c6c20746869732066756e60408201526431ba34b7b760d91b606082015260800190565b6020808252603a908201527f43616e206f6e6c7920636c61696d206120636f6d70656e736174696f6e20696660408201527f20706f736974696f6e20697320626967676572207468616e2030000000000000606082015260800190565b60208082526024908201527f44534c41206275726e2070726f6365737320776173206e6f74207375636365736040820152631cd99d5b60e21b606082015260800190565b6020808252602a908201527f53686f756c64206e6f74207769746864726177206d6f7265207374616b6520746040820152691a185b881cdd185ad95960b21b606082015260800190565b60208082526028908201527f43616e6e6f74207374616b65206d6f7265207468616e20534c412070726f76696040820152676465727374616b6560c01b606082015260800190565b60208082526021908201527f536166654d6174683a206d756c7469706c69636174696f6e206f766572666c6f6040820152607760f81b606082015260800190565b6020808252601490820152731d1bdad95b881a5cc81b9bdd08185b1b1bddd95960621b604082015260600190565b6020808252818101527f4f776e61626c653a2063616c6c6572206973206e6f7420746865206f776e6572604082015260600190565b60208082526028908201527f43616e206f6e6c79207374616b65206f6e206e6f7420627265616368656420636040820152676f6e74726163747360c01b606082015260800190565b602080825260139082015272151bdad95b88185b1c9958591e481859191959606a1b604082015260600190565b60208082526030908201527f53686f756c64206e6f74207769746864726177206d6f7265207468616e20746860408201526f32903ab9b2b939903837b9b4ba34b7b760811b606082015260800190565b6020808252603d908201527f5472616e736665722070726f636573732066726f6d20455243323020746f205360408201527f4c4120636f6e747261637420776173206e6f742073756363657366756c000000606082015260800190565b6020808252601290820152710616d6f756e742063616e6e6f7420626520360741b604082015260600190565b60208082526042908201527f5472616e736665722070726f636573732066726f6d20534c4120636f6e74726160408201527f637420746f206d73672e73656e64657220776173206e6f7420737563636573666060820152611d5b60f21b608082015260a00190565b6020808252603f908201527f53686f756c64207374616b65206174206c65617374206d696e696d756d44534c60408201527f415374616b6564546965723120746f206164642061206e657720746f6b656e00606082015260800190565b60208082526025908201527f53686f756c64206e6f742062652063616c6c65642062792074686520534c412060408201526437bbb732b960d91b606082015260800190565b90815260200190565b918252602082015260400190565b83815260208101839052606081016003831061279157fe5b826040830152949350505050565b9283526020830191909152604082015260600190565b60005b838110156127d05781810151838201526020016127b8565b838111156115d35750506000910152565b60038110610a5357fe5b6001600160a01b0381168114610a5357600080fdfea2646970667358221220f4105009da498d0629b79694e16d161f86e4da439e105b475561da28dea52b1d64736f6c634300060c00338be0079c531659141344cd1fd0a4f28419497f9722a3daafe3b4186f6b6457e0",
  "immutableReferences": {},
  "source": "// SPDX-License-Identifier: MIT\npragma solidity ^0.6.0;\npragma experimental ABIEncoderV2;\n\nimport \"@openzeppelin/contracts/access/Ownable.sol\";\nimport \"@openzeppelin/contracts/token/ERC20/IERC20.sol\";\nimport \"@openzeppelin/contracts/math/SafeMath.sol\";\nimport \"./SLO.sol\";\nimport \"./SLARegistry.sol\";\nimport \"./Staking.sol\";\n\n/**\n * @title SLA\n * @dev SLA is a service level agreement contract used for service downtime\n * compensation\n */\ncontract SLA is Staking {\n    using SafeMath for uint256;\n\n    enum Status {NotVerified, Respected, NotRespected}\n\n    /// @dev Struct used for storing period status\n    struct SLAPeriod {\n        uint256 timestamp;\n        uint256 sli;\n        Status status;\n    }\n\n    struct TokenStake {\n        address tokenAddress;\n        uint256 stake;\n    }\n\n    /// @dev address of the SLO\n    SLO public slo;\n\n    /// @dev The ipfs hash that stores extra information about the agreement\n    string public ipfsHash;\n\n    /// @dev array of he allowed canonical period ids\n    uint256[] public canonicalPeriodIds;\n\n    /// @dev The address of the slaRegistry contract\n    SLARegistry public slaRegistry;\n\n    /// @dev periodId=>SLAPeriod mapping\n    mapping(uint256 => SLAPeriod) public slaPeriods;\n\n    /// @dev block number of SLA deployment\n    uint256 public creationBlockNumber;\n\n    /// @dev states if the contract was breached or not\n    bool private _breachedContract = false;\n\n    /**\n     * @dev event for SLI creation logging\n     * @param _timestamp 1. the time the SLI has been registered\n     * @param _sli 2. the value of the SLI\n     * @param _periodId 3. the id of the given period\n     */\n    event SLICreated(uint256 _timestamp, uint256 _sli, uint256 _periodId);\n\n    /**\n     * @dev event for SLI creation logging\n     * @param _periodId 1. the id of the given period\n     * @param _sli 2. value of the SLI\n     */\n    event SLANotRespected(uint256 _periodId, uint256 _sli);\n\n    /**\n     * @dev throws if called by any address other than the messenger contract.\n     */\n    modifier onlyMessenger() {\n        require(\n            msg.sender == address(slaRegistry.messenger()),\n            \"Only Messenger can call this function\"\n        );\n        _;\n    }\n\n    /**\n     * @dev throws if called by any address other than the messenger contract.\n     */\n    modifier onlySLARegistry() {\n        require(\n            msg.sender == address(slaRegistry),\n            \"Only SLARegistry can call this function\"\n        );\n        _;\n    }\n\n    /**\n     * @param _owner 1. address of the owner of the service level agreement\n     * @param _SLO 2. address of the SLO\n     * @param _ipfsHash 3. string with the ipfs hash that contains SLA information\n     * @param _dslaTokenAddress 4. DSLA token address\n     * @param _canonicalPeriodIds 5. id of the allowed canonical periods\n     */\n    constructor(\n        address _owner,\n        SLO _SLO,\n        string memory _ipfsHash,\n        address _dslaTokenAddress,\n        uint256[] memory _canonicalPeriodIds,\n        address _slaRegistryAddress,\n        uint256 _providerRewardPercentage,\n        uint256 _burnRate,\n        uint256 _minimumDSLAStakedTier1,\n        uint256 _minimumDSLAStakedTier2,\n        uint256 _minimumDSLAStakedTier3\n    )\n        public\n        Staking(\n            _dslaTokenAddress,\n            _slaRegistryAddress,\n            _providerRewardPercentage,\n            _burnRate,\n            _minimumDSLAStakedTier1,\n            _minimumDSLAStakedTier2,\n            _minimumDSLAStakedTier3\n        )\n    {\n        for (\n            uint256 index = 0;\n            index < _canonicalPeriodIds.length - 1;\n            index++\n        ) {\n            require(\n                _canonicalPeriodIds[index] < _canonicalPeriodIds[index + 1],\n                \"Period ids array should be sorted\"\n            );\n        }\n        transferOwnership(_owner);\n        ipfsHash = _ipfsHash;\n        slaRegistry = SLARegistry(msg.sender);\n        creationBlockNumber = block.number;\n        canonicalPeriodIds = _canonicalPeriodIds;\n        slo = _SLO;\n    }\n\n    /**\n     * @dev external function to register SLI's and check them against the SLO's\n     * @param _sli 1. the value of the SLI to check\n     * @param _periodId 2. the id of the given period\n     */\n    function registerSLI(uint256 _sli, uint256 _periodId)\n        external\n        onlyMessenger\n    {\n        emit SLICreated(block.timestamp, _sli, _periodId);\n        SLAPeriod storage slaPeriod = slaPeriods[_periodId];\n        slaPeriod.sli = _sli;\n        slaPeriod.timestamp = block.timestamp;\n        if (slo.isSLOHonored(_sli)) {\n            slaPeriod.status = Status.Respected;\n            _setRespectedPeriodReward(_periodId);\n        } else {\n            slaPeriod.status = Status.NotRespected;\n            _setUsersCompensationPool();\n            _breachedContract = true;\n            emit SLANotRespected(_periodId, _sli);\n        }\n    }\n\n    function _isAllowedPeriod(uint256 _periodId) internal view returns (bool) {\n        for (uint256 index = 0; index < canonicalPeriodIds.length; index++) {\n            if (canonicalPeriodIds[index] == _periodId) return true;\n        }\n        return false;\n    }\n\n    /**\n     *@dev stake _amount tokens into the _token contract\n     *@param _amount 1. amount to be staked\n     *@param _token 2. address of the ERC to be staked\n     */\n\n    function stakeTokens(uint256 _amount, address _token) public {\n        require(_amount > 0, \"amount cannot be 0\");\n        require(\n            _breachedContract == false,\n            \"Can only stake on not breached contracts\"\n        );\n        _stake(_amount, _token);\n        slaRegistry.registerStakedSla(msg.sender);\n    }\n\n    /**\n     *@dev withdraw _amount tokens from the _token contract\n     *@param _amount 1. amount to be staked\n     *@param _tokenAddress 2. address of the ERC to be staked\n     */\n\n    function withdrawStakedTokens(uint256 _amount, address _tokenAddress) public {\n        require(_amount > 0, \"amount cannot be 0\");\n        if (msg.sender != owner()) {\n            uint256 lastValidPeriodId =\n                canonicalPeriodIds[canonicalPeriodIds.length - 1];\n            (, uint256 endOfLastValidPeriod) =\n                slaRegistry.canonicalPeriods(lastValidPeriodId);\n            // users can withdraw only if the contract is breached\n            // or if the the last period is finished and the period status was verified\n            require(\n                _breachedContract == true ||\n                    (block.timestamp >= endOfLastValidPeriod &&\n                        slaPeriods[lastValidPeriodId].status !=\n                        Status.NotVerified),\n                \"Can only withdraw stake after the final period is finished or if the contract is breached\"\n            );\n        }\n        _withdraw(_amount, _tokenAddress);\n    }\n\n    /**\n     *@dev withdraw provider reward of a given token address\n     *@param _tokenAddress 1. address of the token to withdraw rewards\n     */\n\n    function claimProviderReward(address _tokenAddress) public onlyOwner {\n        _claimReward(_tokenAddress);\n    }\n\n    /**\n     *@dev withdraw provider reward of a given token address\n     *@param _tokenAddress 1. address of the token to withdraw rewards\n     */\n\n    function claimUserCompensation(address _tokenAddress) public onlyOwner {\n        _claimCompensation(_tokenAddress);\n    }\n\n    /**\n     * @dev external view function that returns all agreement information\n     * @return _slaOwner 1. address  owner\n     * @return _ipfsHash 2. string  ipfsHash\n     * @return _SLO 3. addresses of the SLO\n     * @return _SLAPeriods 5. SLAPeriod[]\n     * @return _stakersCount 6. amount of stakers\n     * @return _tokensStake 7. SLAPeriod[]  addresses array\n     */\n\n    function getDetails()\n        external\n        view\n        returns (\n            address _slaOwner,\n            string memory _ipfsHash,\n            SLO _SLO,\n            SLAPeriod[] memory _SLAPeriods,\n            uint256 _stakersCount,\n            TokenStake[] memory _tokensStake\n        )\n    {\n        _slaOwner = owner();\n        _ipfsHash = ipfsHash;\n        _SLO = slo;\n        _SLAPeriods = new SLAPeriod[](canonicalPeriodIds.length);\n        for (uint256 index = 0; index < canonicalPeriodIds.length; index++) {\n            uint256 periodId = canonicalPeriodIds[index];\n            SLAPeriod memory slaPeriod = slaPeriods[periodId];\n            _SLAPeriods[index] = SLAPeriod({\n                status: slaPeriod.status,\n                sli: slaPeriod.sli,\n                timestamp: slaPeriod.timestamp\n            });\n        }\n        _stakersCount = stakers.length;\n        _tokensStake = new TokenStake[](allowedTokens.length);\n        for (uint256 index = 0; index < allowedTokens.length; index++) {\n            _tokensStake[index] = TokenStake({\n                tokenAddress: allowedTokens[index],\n                stake: tokenPools[allowedTokens[index]]\n            });\n        }\n    }\n\n    function breachedContract() public view returns (bool) {\n        return _breachedContract;\n    }\n}\n",
  "sourcePath": "/Users/matiasbn/Desktop/stacktical/stacktical-dsla-contracts/contracts/SLA.sol",
  "compiler": {
    "name": "solc",
    "version": "0.6.12+commit.27d51765.Emscripten.clang"
  },
  "schemaVersion": "3.3.3",
  "updatedAt": "2021-02-12T01:05:57.016Z",
  "devdoc": {
    "details": "SLA is a service level agreement contract used for service downtime compensation",
    "events": {
      "SLANotRespected(uint256,uint256)": {
        "details": "event for SLI creation logging",
        "params": {
          "_periodId": "1. the id of the given period",
          "_sli": "2. value of the SLI"
        }
      },
      "SLICreated(uint256,uint256,uint256)": {
        "details": "event for SLI creation logging",
        "params": {
          "_periodId": "3. the id of the given period",
          "_sli": "2. the value of the SLI",
          "_timestamp": "1. the time the SLI has been registered"
        }
      }
    },
    "kind": "dev",
    "methods": {
      "_claimCompensation(address)": {
        "details": "claim user compensation. Transfers both the compensation and the user remaining stake.",
        "params": {
          "_tokenAddress": "1. address of the token to claim compensation"
        }
      },
      "addAllowedTokens(address)": {
        "details": "add a token to ve allowed for staking",
        "params": {
          "_tokenAddress": "1. address of the new allowed token"
        }
      },
      "claimProviderReward(address)": {
        "details": "withdraw provider reward of a given token address",
        "params": {
          "_tokenAddress": "1. address of the token to withdraw rewards"
        }
      },
      "claimUserCompensation(address)": {
        "details": "withdraw provider reward of a given token address",
        "params": {
          "_tokenAddress": "1. address of the token to withdraw rewards"
        }
      },
      "constructor": {
        "params": {
          "_SLO": "2. address of the SLO",
          "_canonicalPeriodIds": "5. id of the allowed canonical periods",
          "_dslaTokenAddress": "4. DSLA token address",
          "_ipfsHash": "3. string with the ipfs hash that contains SLA information",
          "_owner": "1. address of the owner of the service level agreement"
        }
      },
      "getDetails()": {
        "details": "external view function that returns all agreement information",
        "returns": {
          "_SLAPeriods": "5. SLAPeriod[]",
          "_SLO": "3. addresses of the SLO",
          "_ipfsHash": "2. string  ipfsHash",
          "_slaOwner": "1. address  owner",
          "_stakersCount": "6. amount of stakers",
          "_tokensStake": "7. SLAPeriod[]  addresses array"
        }
      },
      "getStakeholdersStakes(address)": {
        "details": "gets the positions of stake both for provider and for users",
        "params": {
          "_tokenAddress": "1. token address to get the positions"
        },
        "returns": {
          "providerStake": "position of the provider (owner) of the SLA contract",
          "usersStake": "position of the user of the SLA contract"
        }
      },
      "owner()": {
        "details": "Returns the address of the current owner."
      },
      "registerSLI(uint256,uint256)": {
        "details": "external function to register SLI's and check them against the SLO's",
        "params": {
          "_periodId": "2. the id of the given period",
          "_sli": "1. the value of the SLI to check"
        }
      },
      "renounceOwnership()": {
        "details": "Leaves the contract without owner. It will not be possible to call `onlyOwner` functions anymore. Can only be called by the current owner. NOTE: Renouncing ownership will leave the contract without an owner, thereby removing any functionality that is only available to the owner."
      },
      "stakeTokens(uint256,address)": {
        "details": "stake _amount tokens into the _token contract",
        "params": {
          "_amount": "1. amount to be staked",
          "_token": "2. address of the ERC to be staked"
        }
      },
      "transferOwnership(address)": {
        "details": "Transfers ownership of the contract to a new account (`newOwner`). Can only be called by the current owner."
      },
      "withdrawStakedTokens(uint256,address)": {
        "details": "withdraw _amount tokens from the _token contract",
        "params": {
          "_amount": "1. amount to be staked",
          "_tokenAddress": "2. address of the ERC to be staked"
        }
      }
    },
    "stateVariables": {
      "_breachedContract": {
        "details": "states if the contract was breached or not"
      },
      "canonicalPeriodIds": {
        "details": "array of he allowed canonical period ids"
      },
      "creationBlockNumber": {
        "details": "block number of SLA deployment"
      },
      "ipfsHash": {
        "details": "The ipfs hash that stores extra information about the agreement"
      },
      "slaPeriods": {
        "details": "periodId=>SLAPeriod mapping"
      },
      "slaRegistry": {
        "details": "The address of the slaRegistry contract"
      },
      "slo": {
        "details": "address of the SLO"
      }
    },
    "title": "SLA",
    "version": 1
  },
  "userdoc": {
    "kind": "user",
    "methods": {
      "_claimCompensation(address)": {
        "notice": "it uses the user position and the user total position per token to check the proportion of the compensation pool that corresponds to every user"
      }
    },
    "version": 1
  }
}