{
  "contractName": "SLA",
  "abi": [
    {
      "inputs": [
        {
          "internalType": "address",
          "name": "_owner",
          "type": "address"
        },
        {
          "internalType": "contract SLO",
          "name": "_SLO",
          "type": "address"
        },
        {
          "internalType": "string",
          "name": "_ipfsHash",
          "type": "string"
        },
        {
          "internalType": "address",
          "name": "_messengerAddress",
          "type": "address"
        },
        {
          "internalType": "uint256[]",
          "name": "_periodIds",
          "type": "uint256[]"
        },
        {
          "internalType": "enum PeriodRegistry.PeriodType",
          "name": "_periodType",
          "type": "uint8"
        },
        {
          "internalType": "address",
          "name": "_stakeRegistry",
          "type": "address"
        },
        {
          "internalType": "address",
          "name": "_periodRegistry",
          "type": "address"
        },
        {
          "internalType": "bool",
          "name": "_whitelisted",
          "type": "bool"
        },
        {
          "internalType": "bytes32[]",
          "name": "_extraData",
          "type": "bytes32[]"
        },
        {
          "internalType": "uint256",
          "name": "_slaID",
          "type": "uint256"
        }
      ],
      "stateMutability": "nonpayable",
      "type": "constructor"
    },
    {
      "anonymous": false,
      "inputs": [
        {
          "indexed": true,
          "internalType": "address",
          "name": "previousOwner",
          "type": "address"
        },
        {
          "indexed": true,
          "internalType": "address",
          "name": "newOwner",
          "type": "address"
        }
      ],
      "name": "OwnershipTransferred",
      "type": "event"
    },
    {
      "anonymous": false,
      "inputs": [
        {
          "indexed": true,
          "internalType": "uint256",
          "name": "periodId",
          "type": "uint256"
        },
        {
          "indexed": true,
          "internalType": "address",
          "name": "tokenAddress",
          "type": "address"
        },
        {
          "indexed": false,
          "internalType": "uint256",
          "name": "rewardPercentage",
          "type": "uint256"
        },
        {
          "indexed": false,
          "internalType": "uint256",
          "name": "rewardPercentagePrecision",
          "type": "uint256"
        },
        {
          "indexed": false,
          "internalType": "uint256",
          "name": "rewardAmount",
          "type": "uint256"
        }
      ],
      "name": "ProviderRewardGenerated",
      "type": "event"
    },
    {
      "anonymous": false,
      "inputs": [
        {
          "indexed": false,
          "internalType": "uint256",
          "name": "_periodId",
          "type": "uint256"
        },
        {
          "indexed": false,
          "internalType": "uint256",
          "name": "_sli",
          "type": "uint256"
        }
      ],
      "name": "SLANotRespected",
      "type": "event"
    },
    {
      "anonymous": false,
      "inputs": [
        {
          "indexed": false,
          "internalType": "uint256",
          "name": "timestamp",
          "type": "uint256"
        },
        {
          "indexed": false,
          "internalType": "uint256",
          "name": "sli",
          "type": "uint256"
        },
        {
          "indexed": false,
          "internalType": "uint256",
          "name": "periodId",
          "type": "uint256"
        }
      ],
      "name": "SLICreated",
      "type": "event"
    },
    {
      "inputs": [],
      "name": "DSLAburnRate",
      "outputs": [
        {
          "internalType": "uint256",
          "name": "",
          "type": "uint256"
        }
      ],
      "stateMutability": "view",
      "type": "function"
    },
    {
      "inputs": [
        {
          "internalType": "address",
          "name": "_tokenAddress",
          "type": "address"
        }
      ],
      "name": "addAllowedTokens",
      "outputs": [],
      "stateMutability": "nonpayable",
      "type": "function"
    },
    {
      "inputs": [
        {
          "internalType": "address[]",
          "name": "_userAddresses",
          "type": "address[]"
        }
      ],
      "name": "addMultipleUsersToWhitelist",
      "outputs": [],
      "stateMutability": "nonpayable",
      "type": "function"
    },
    {
      "inputs": [
        {
          "internalType": "address",
          "name": "_userAddress",
          "type": "address"
        }
      ],
      "name": "addUserToWhitelist",
      "outputs": [],
      "stateMutability": "nonpayable",
      "type": "function"
    },
    {
      "inputs": [
        {
          "internalType": "uint256",
          "name": "",
          "type": "uint256"
        }
      ],
      "name": "allowedTokens",
      "outputs": [
        {
          "internalType": "address",
          "name": "",
          "type": "address"
        }
      ],
      "stateMutability": "view",
      "type": "function"
    },
    {
      "inputs": [],
      "name": "creationBlockNumber",
      "outputs": [
        {
          "internalType": "uint256",
          "name": "",
          "type": "uint256"
        }
      ],
      "stateMutability": "view",
      "type": "function"
    },
    {
      "inputs": [],
      "name": "cumulatedDevaluation",
      "outputs": [
        {
          "internalType": "uint256",
          "name": "",
          "type": "uint256"
        }
      ],
      "stateMutability": "view",
      "type": "function"
    },
    {
      "inputs": [],
      "name": "cumulatedDevaluationPrecision",
      "outputs": [
        {
          "internalType": "uint256",
          "name": "",
          "type": "uint256"
        }
      ],
      "stateMutability": "view",
      "type": "function"
    },
    {
      "inputs": [
        {
          "internalType": "address",
          "name": "",
          "type": "address"
        }
      ],
      "name": "dpTokenRegistry",
      "outputs": [
        {
          "internalType": "contract ERC20PresetMinterPauser",
          "name": "",
          "type": "address"
        }
      ],
      "stateMutability": "view",
      "type": "function"
    },
    {
      "inputs": [],
      "name": "dslaTokenAddress",
      "outputs": [
        {
          "internalType": "address",
          "name": "",
          "type": "address"
        }
      ],
      "stateMutability": "view",
      "type": "function"
    },
    {
      "inputs": [
        {
          "internalType": "address",
          "name": "",
          "type": "address"
        }
      ],
      "name": "duTokenRegistry",
      "outputs": [
        {
          "internalType": "contract ERC20PresetMinterPauser",
          "name": "",
          "type": "address"
        }
      ],
      "stateMutability": "view",
      "type": "function"
    },
    {
      "inputs": [
        {
          "internalType": "uint256",
          "name": "",
          "type": "uint256"
        }
      ],
      "name": "extraData",
      "outputs": [
        {
          "internalType": "bytes32",
          "name": "",
          "type": "bytes32"
        }
      ],
      "stateMutability": "view",
      "type": "function"
    },
    {
      "inputs": [],
      "name": "getAllowedTokensLength",
      "outputs": [
        {
          "internalType": "uint256",
          "name": "",
          "type": "uint256"
        }
      ],
      "stateMutability": "view",
      "type": "function"
    },
    {
      "inputs": [
        {
          "internalType": "address",
          "name": "_staker",
          "type": "address"
        },
        {
          "internalType": "uint256",
          "name": "_allowedTokenIndex",
          "type": "uint256"
        }
      ],
      "name": "getTokenStake",
      "outputs": [
        {
          "internalType": "address",
          "name": "tokenAddress",
          "type": "address"
        },
        {
          "internalType": "uint256",
          "name": "stake",
          "type": "uint256"
        }
      ],
      "stateMutability": "view",
      "type": "function"
    },
    {
      "inputs": [],
      "name": "ipfsHash",
      "outputs": [
        {
          "internalType": "string",
          "name": "",
          "type": "string"
        }
      ],
      "stateMutability": "view",
      "type": "function"
    },
    {
      "inputs": [
        {
          "internalType": "address",
          "name": "_tokenAddress",
          "type": "address"
        }
      ],
      "name": "isAllowedToken",
      "outputs": [
        {
          "internalType": "bool",
          "name": "",
          "type": "bool"
        }
      ],
      "stateMutability": "view",
      "type": "function"
    },
    {
      "inputs": [
        {
          "internalType": "address",
          "name": "_staker",
          "type": "address"
        }
      ],
      "name": "isStaker",
      "outputs": [
        {
          "internalType": "bool",
          "name": "",
          "type": "bool"
        }
      ],
      "stateMutability": "view",
      "type": "function"
    },
    {
      "inputs": [],
      "name": "messengerAddress",
      "outputs": [
        {
          "internalType": "address",
          "name": "",
          "type": "address"
        }
      ],
      "stateMutability": "view",
      "type": "function"
    },
    {
      "inputs": [],
      "name": "nextVerifiablePeriod",
      "outputs": [
        {
          "internalType": "uint256",
          "name": "",
          "type": "uint256"
        }
      ],
      "stateMutability": "view",
      "type": "function"
    },
    {
      "inputs": [],
      "name": "owner",
      "outputs": [
        {
          "internalType": "address",
          "name": "",
          "type": "address"
        }
      ],
      "stateMutability": "view",
      "type": "function"
    },
    {
      "inputs": [
        {
          "internalType": "uint256",
          "name": "",
          "type": "uint256"
        }
      ],
      "name": "periodIds",
      "outputs": [
        {
          "internalType": "uint256",
          "name": "",
          "type": "uint256"
        }
      ],
      "stateMutability": "view",
      "type": "function"
    },
    {
      "inputs": [],
      "name": "periodRegistry",
      "outputs": [
        {
          "internalType": "contract PeriodRegistry",
          "name": "",
          "type": "address"
        }
      ],
      "stateMutability": "view",
      "type": "function"
    },
    {
      "inputs": [
        {
          "internalType": "uint256",
          "name": "",
          "type": "uint256"
        }
      ],
      "name": "periodSLIs",
      "outputs": [
        {
          "internalType": "uint256",
          "name": "timestamp",
          "type": "uint256"
        },
        {
          "internalType": "uint256",
          "name": "sli",
          "type": "uint256"
        },
        {
          "internalType": "enum SLA.Status",
          "name": "status",
          "type": "uint8"
        }
      ],
      "stateMutability": "view",
      "type": "function"
    },
    {
      "inputs": [],
      "name": "periodType",
      "outputs": [
        {
          "internalType": "enum PeriodRegistry.PeriodType",
          "name": "",
          "type": "uint8"
        }
      ],
      "stateMutability": "view",
      "type": "function"
    },
    {
      "inputs": [
        {
          "internalType": "address",
          "name": "",
          "type": "address"
        }
      ],
      "name": "providerPool",
      "outputs": [
        {
          "internalType": "uint256",
          "name": "",
          "type": "uint256"
        }
      ],
      "stateMutability": "view",
      "type": "function"
    },
    {
      "inputs": [
        {
          "internalType": "address[]",
          "name": "_userAddresses",
          "type": "address[]"
        }
      ],
      "name": "removeMultipleUsersFromWhitelist",
      "outputs": [],
      "stateMutability": "nonpayable",
      "type": "function"
    },
    {
      "inputs": [
        {
          "internalType": "address",
          "name": "_userAddress",
          "type": "address"
        }
      ],
      "name": "removeUserFromWhitelist",
      "outputs": [],
      "stateMutability": "nonpayable",
      "type": "function"
    },
    {
      "inputs": [],
      "name": "renounceOwnership",
      "outputs": [],
      "stateMutability": "nonpayable",
      "type": "function"
    },
    {
      "inputs": [],
      "name": "slaID",
      "outputs": [
        {
          "internalType": "uint256",
          "name": "",
          "type": "uint256"
        }
      ],
      "stateMutability": "view",
      "type": "function"
    },
    {
      "inputs": [],
      "name": "slaPeriodsLength",
      "outputs": [
        {
          "internalType": "uint256",
          "name": "",
          "type": "uint256"
        }
      ],
      "stateMutability": "view",
      "type": "function"
    },
    {
      "inputs": [],
      "name": "slaRegistry",
      "outputs": [
        {
          "internalType": "contract SLARegistry",
          "name": "",
          "type": "address"
        }
      ],
      "stateMutability": "view",
      "type": "function"
    },
    {
      "inputs": [],
      "name": "slo",
      "outputs": [
        {
          "internalType": "contract SLO",
          "name": "",
          "type": "address"
        }
      ],
      "stateMutability": "view",
      "type": "function"
    },
    {
      "inputs": [
        {
          "internalType": "uint256",
          "name": "",
          "type": "uint256"
        }
      ],
      "name": "stakers",
      "outputs": [
        {
          "internalType": "address",
          "name": "",
          "type": "address"
        }
      ],
      "stateMutability": "view",
      "type": "function"
    },
    {
      "inputs": [
        {
          "internalType": "address",
          "name": "newOwner",
          "type": "address"
        }
      ],
      "name": "transferOwnership",
      "outputs": [],
      "stateMutability": "nonpayable",
      "type": "function"
    },
    {
      "inputs": [
        {
          "internalType": "address",
          "name": "",
          "type": "address"
        }
      ],
      "name": "usersPool",
      "outputs": [
        {
          "internalType": "uint256",
          "name": "",
          "type": "uint256"
        }
      ],
      "stateMutability": "view",
      "type": "function"
    },
    {
      "inputs": [
        {
          "internalType": "address",
          "name": "",
          "type": "address"
        }
      ],
      "name": "whitelist",
      "outputs": [
        {
          "internalType": "bool",
          "name": "",
          "type": "bool"
        }
      ],
      "stateMutability": "view",
      "type": "function"
    },
    {
      "inputs": [],
      "name": "whitelistedContract",
      "outputs": [
        {
          "internalType": "bool",
          "name": "",
          "type": "bool"
        }
      ],
      "stateMutability": "view",
      "type": "function"
    },
    {
      "inputs": [
        {
          "internalType": "uint256",
          "name": "_sli",
          "type": "uint256"
        },
        {
          "internalType": "uint256",
          "name": "_periodId",
          "type": "uint256"
        }
      ],
      "name": "registerSLI",
      "outputs": [],
      "stateMutability": "nonpayable",
      "type": "function"
    },
    {
      "inputs": [
        {
          "internalType": "uint256",
          "name": "_periodId",
          "type": "uint256"
        }
      ],
      "name": "isAllowedPeriod",
      "outputs": [
        {
          "internalType": "bool",
          "name": "",
          "type": "bool"
        }
      ],
      "stateMutability": "view",
      "type": "function"
    },
    {
      "inputs": [
        {
          "internalType": "uint256",
          "name": "_amount",
          "type": "uint256"
        },
        {
          "internalType": "address",
          "name": "_token",
          "type": "address"
        }
      ],
      "name": "stakeTokens",
      "outputs": [],
      "stateMutability": "nonpayable",
      "type": "function"
    },
    {
      "inputs": [
        {
          "internalType": "uint256",
          "name": "_amount",
          "type": "uint256"
        },
        {
          "internalType": "address",
          "name": "_tokenAddress",
          "type": "address"
        }
      ],
      "name": "withdrawProviderTokens",
      "outputs": [],
      "stateMutability": "nonpayable",
      "type": "function"
    },
    {
      "inputs": [
        {
          "internalType": "uint256",
          "name": "_amount",
          "type": "uint256"
        },
        {
          "internalType": "address",
          "name": "_tokenAddress",
          "type": "address"
        }
      ],
      "name": "withdrawUserTokens",
      "outputs": [],
      "stateMutability": "nonpayable",
      "type": "function"
    },
    {
      "inputs": [],
      "name": "getPeriodIdsLength",
      "outputs": [
        {
          "internalType": "uint256",
          "name": "",
          "type": "uint256"
        }
      ],
      "stateMutability": "view",
      "type": "function"
    },
    {
      "inputs": [],
      "name": "getStakersLength",
      "outputs": [
        {
          "internalType": "uint256",
          "name": "",
          "type": "uint256"
        }
      ],
      "stateMutability": "view",
      "type": "function"
    },
    {
      "inputs": [],
      "name": "breachedContract",
      "outputs": [
        {
          "internalType": "bool",
          "name": "",
          "type": "bool"
        }
      ],
      "stateMutability": "view",
      "type": "function"
    }
  ],
  "bytecode": "0x6080604052620f424060088190556009556017805460ff60a01b191690553480156200002a57600080fd5b5060405162003d5e38038062003d5e8339810160408190526200004d91620006ed565b848487895186856000620000666200034860201b60201c565b600080546001600160a01b0319166001600160a01b03831690811782556040519293509160008051602062003d3e833981519152908290a350600180546001600160a01b038089166001600160a01b03199283161783556002805491891691909216179055600e8054869260ff1990911690836005811115620000e557fe5b0217905550600f8390556010805460ff191683151517905560015460408051637b8041cf60e11b815290516000926001600160a01b03169163f700839e9160048083019260a0929190829003018186803b1580156200014357600080fd5b505afa15801562000158573d6000803e3d6000fd5b505050506040513d601f19601f820116820180604052508101906200017e91906200081e565b505060015460408051638b8e530960e01b815290519495506001600160a01b0390911693638b8e5309935060048083019350602092829003018186803b158015620001c857600080fd5b505afa158015620001dd573d6000803e3d6000fd5b505050506040513d601f19601f82011682018060405250810190620002039190620006c7565b600b80546001600160a01b0319166001600160a01b0392909216919091179055600d81905562000233336200034d565b50600355506200025393508e9250506001600160e01b03620003f9169050565b8851620002689060139060208c0190620004af565b50601780546001600160a01b03808b166001600160a01b03199283161790925560168054909116331790556014805491861661010002610100600160a81b0319909216919091179055436019558651620002ca9060159060208a019062000534565b506014805487919060ff19166001836005811115620002e557fe5b0217905550601280546001600160a01b0319166001600160a01b038c1617905581516200031a90601a90602085019062000534565b50866000815181106200032957fe5b6020026020010151601b81905550505050505050505050505062000970565b335b90565b620003606001600160e01b036200034816565b6000546001600160a01b03908116911614620003995760405162461bcd60e51b81526004016200039090620008db565b60405180910390fd5b6001600160a01b03811660009081526011602052604090205460ff1615620003d55760405162461bcd60e51b815260040162000390906200085e565b6001600160a01b03166000908152601160205260409020805460ff19166001179055565b6200040c6001600160e01b036200034816565b6000546001600160a01b039081169116146200043c5760405162461bcd60e51b81526004016200039090620008db565b6001600160a01b038116620004655760405162461bcd60e51b8152600401620003909062000895565b600080546040516001600160a01b038085169392169160008051602062003d3e83398151915291a3600080546001600160a01b0319166001600160a01b0392909216919091179055565b828054600181600116156101000203166002900490600052602060002090601f016020900481019282601f10620004f257805160ff191683800117855562000522565b8280016001018555821562000522579182015b828111156200052257825182559160200191906001019062000505565b506200053092915062000571565b5090565b8280548282559060005260206000209081019282156200052257916020028201828111156200052257825182559160200191906001019062000505565b6200034a91905b8082111562000530576000815560010162000578565b80516200059b8162000957565b92915050565b600082601f830112620005b2578081fd5b8151620005c9620005c38262000937565b62000910565b818152915060208083019084810181840286018201871015620005eb57600080fd5b60005b848110156200060c57815184529282019290820190600101620005ee565b505050505092915050565b805180151581146200059b57600080fd5b8051600681106200059b57600080fd5b600082601f83011262000649578081fd5b81516001600160401b038111156200065f578182fd5b602062000675601f8301601f1916820162000910565b925081835284818386010111156200068c57600080fd5b60005b82811015620006ac5784810182015184820183015281016200068f565b82811115620006be5760008284860101525b50505092915050565b600060208284031215620006d9578081fd5b8151620006e68162000957565b9392505050565b60008060008060008060008060008060006101608c8e0312156200070f578687fd5b6200071b8d8d6200058e565b9a506200072c8d60208e016200058e565b60408d0151909a506001600160401b0381111562000748578788fd5b620007568e828f0162000638565b995050620007688d60608e016200058e565b60808d01519098506001600160401b0381111562000784578788fd5b620007928e828f01620005a1565b975050620007a48d60a08e0162000628565b9550620007b58d60c08e016200058e565b9450620007c68d60e08e016200058e565b9350620007d88d6101008e0162000617565b6101208d01519093506001600160401b03811115620007f5578283fd5b620008038e828f01620005a1565b9250506101408c015190509295989b509295989b9093969950565b600080600080600060a0868803121562000836578081fd5b5050835160208501516040860151606087015160809097015192989197509594509092509050565b60208082526018908201527f5573657220616c72656164792077686974656c69737465640000000000000000604082015260600190565b60208082526026908201527f4f776e61626c653a206e6577206f776e657220697320746865207a65726f206160408201526564647265737360d01b606082015260800190565b6020808252818101527f4f776e61626c653a2063616c6c6572206973206e6f7420746865206f776e6572604082015260600190565b6040518181016001600160401b03811182821017156200092f57600080fd5b604052919050565b60006001600160401b038211156200094d578081fd5b5060209081020190565b6001600160a01b03811681146200096d57600080fd5b50565b6133be80620009806000396000f3fe608060405234801561001057600080fd5b506004361061027f5760003560e01c806378025ec41161015c578063c623674f116100ce578063ee6226c111610087578063ee6226c11461050c578063f2db10fe14610514578063f2fde38b1461051c578063f7e9dfff1461052f578063f9902bb114610537578063fd5e6dd11461054a5761027f565b8063c623674f146104ae578063c8b5c248146104c3578063cbe230c3146104d6578063cd92890e146104e9578063d7a5c422146104f1578063db69a462146105045761027f565b80639fabeb00116101205780639fabeb00146104735780639fc4caa51461047b578063a224ee9c14610483578063b1659bad1461048b578063b7bc347e14610493578063c26ff6151461049b5761027f565b806378025ec4146104355780637fd788aa146104485780638d4f567d146104505780638da5cb5b146104585780639b19251a146104605761027f565b80634e0c91f6116101f55780635fc1b5fd116101b95780635fc1b5fd146103d9578063639b6fc3146103e15780636f1e8533146103f4578063715018a614610407578063740882ac1461040f578063747b8050146104225761027f565b80634e0c91f61461036a5780634fb2647e1461038a57806357ac94f01461039d5780635c1c20de146103be5780635e5f2e26146103c65761027f565b806318e454271161024757806318e45427146102fd5780631bf309291461030557806326db18ac1461030d5780634190edde1461032057806346e0fbae14610342578063484fbf2b146103575761027f565b8063021eef7f146102845780630ae9ea45146102ad5780630bea440d146102cd5780630c5160f4146102e2578063171e44ea146102ea575b600080fd5b610297610292366004612b24565b61055d565b6040516102a49190612d72565b60405180910390f35b6102c06102bb366004612b24565b6105a7565b6040516102a49190612d7d565b6102e06102db366004612b54565b6105c5565b005b6102c061081f565b6102e06102f8366004612975565b610825565b610297610bee565b6102c0610bf7565b6102e061031b366004612b54565b610bfd565b61033361032e366004612b24565b610d62565b6040516102a4939291906132ba565b61034a610d86565b6040516102a49190612d86565b6102c0610365366004612975565b610d8f565b61037d610378366004612975565b610da1565b6040516102a49190612d21565b61037d610398366004612975565b610dbc565b6103b06103ab3660046129ad565b610dd7565b6040516102a4929190612d35565b6102c0610fcf565b61037d6103d4366004612b24565b610fd5565b6102c0610ffc565b6102c06103ef366004612975565b611002565b610297610402366004612975565b611014565b6102e0611066565b6102e061041d3660046129d8565b6110e5565b6102e0610430366004612975565b6111bf565b6102c0610443366004612b24565b611251565b61029761125e565b6102c061126e565b61037d611274565b61029761046e366004612975565b611283565b6102c0611298565b61037d61129e565b61037d6112b2565b6102c06112c1565b6102c06112c7565b6102e06104a93660046129d8565b6112cd565b6104b66113a9565b6040516102a49190612db0565b6102e06104d1366004612b54565b611437565b6102976104e4366004612975565b61156b565b61037d6115bd565b6102e06104ff366004612b83565b6115cc565b61037d611876565b6102c0611885565b6102c061188b565b6102e061052a366004612975565b611891565b61037d611947565b6102e0610545366004612975565b611956565b61037d610558366004612b24565b6119e9565b6000805b60155481101561059c57826015828154811061057957fe5b906000526020600020015414156105945760019150506105a2565b600101610561565b50600090505b919050565b601581815481106105b457fe5b600091825260209091200154905081565b600082116105ee5760405162461bcd60e51b81526004016105e5906131bf565b60405180910390fd5b6015805460009190600019810190811061060457fe5b600091825260208220015460145460405160016259edcb60e01b031981529193506001600160a01b036101008204169163ffa612359161064e9160ff909116908690600401612d99565b604080518083038186803b15801561066557600080fd5b505afa158015610679573d6000803e3d6000fd5b505050506040513d601f19601f8201168201806040525081019061069d9190612ba4565b9150506000601760149054906101000a900460ff1615156001151514806106ee57508142101580156106ee5750600083815260186020526040812060029081015460ff16908111156106eb57fe5b14155b9050801561070e5760405162461bcd60e51b81526004016105e59061302b565b61071885856119f6565b60165460408051636830483560e01b815290516000926001600160a01b0316916368304835916004808301926020929190829003018186803b15801561075d57600080fd5b505afa158015610771573d6000803e3d6000fd5b505050506040513d601f19601f820116820180604052508101906107959190612991565b604051635948284760e11b81529091506001600160a01b0382169063b290508e906107c4903390600401612d21565b602060405180830381600087803b1580156107de57600080fd5b505af11580156107f2573d6000803e3d6000fd5b505050506040513d601f19601f820116820180604052508101906108169190612a78565b50505050505050565b600f5481565b61082d611dfa565b6000546001600160a01b0390811691161461085a5760405162461bcd60e51b81526004016105e590613126565b6108638161156b565b156108805760405162461bcd60e51b81526004016105e59061315b565b60015460405163cbe230c360e01b81526001600160a01b039091169063cbe230c3906108b0908490600401612d21565b60206040518083038186803b1580156108c857600080fd5b505afa1580156108dc573d6000803e3d6000fd5b505050506040513d601f19601f820116820180604052508101906109009190612a78565b15156001146109215760405162461bcd60e51b81526004016105e590612f1f565b600c80546001810182556000919091527fdf6966c971051c3d54ec59162606531493a51404a002842f56009d7e5cf4a8c70180546001600160a01b0319166001600160a01b03831617905560035460609061097b90611dfe565b90506060826001600160a01b03166395d89b416040518163ffffffff1660e01b815260040160006040518083038186803b1580156109b857600080fd5b505afa1580156109cc573d6000803e3d6000fd5b505050506040513d6000823e601f3d908101601f191682016040526109f49190810190612a98565b905060608183604051602001610a0b929190612cce565b604051602081830303815290604052905060608284604051602001610a31929190612c0f565b604051602081830303815290604052905060608385604051602001610a57929190612c5a565b604051602081830303815290604052905060608486604051602001610a7d929190612cb1565b60408051601f1981840301815290829052600154633350214760e11b83529092506000916001600160a01b03909116906366a0428e90610ac39088908890600401612dc3565b602060405180830381600087803b158015610add57600080fd5b505af1158015610af1573d6000803e3d6000fd5b505050506040513d601f19601f82011682018060405250810190610b159190612991565b600154604051633350214760e11b81529192506000916001600160a01b03909116906366a0428e90610b4d9087908790600401612dc3565b602060405180830381600087803b158015610b6757600080fd5b505af1158015610b7b573d6000803e3d6000fd5b505050506040513d601f19601f82011682018060405250810190610b9f9190612991565b6001600160a01b03998a1660009081526007602090815260408083208054948e166001600160a01b031995861617905560069091529020805493909a1692169190911790975550505050505050565b60105460ff1681565b60195481565b60008211610c1d5760405162461bcd60e51b81526004016105e5906131bf565b60158054600091906000198101908110610c3357fe5b600091825260208220015460145460405160016259edcb60e01b031981529193506001600160a01b036101008204169163ffa6123591610c7d9160ff909116908690600401612d99565b604080518083038186803b158015610c9457600080fd5b505afa158015610ca8573d6000803e3d6000fd5b505050506040513d601f19601f82011682018060405250810190610ccc9190612ba4565b915050610cd7611274565b6001600160a01b0316336001600160a01b031614610d5257601754600160a01b900460ff16151560011480610d365750804210158015610d365750600082815260186020526040812060029081015460ff1690811115610d3357fe5b14155b610d525760405162461bcd60e51b81526004016105e590612e23565b610d5c8484611ed9565b50505050565b60186020526000908152604090208054600182015460029092015490919060ff1683565b60145460ff1681565b60056020526000908152604090205481565b6006602052600090815260409020546001600160a01b031681565b6007602052600090815260409020546001600160a01b031681565b6000806000600c8481548110610de957fe5b6000918252602090912001546001600160a01b03169050610e08611274565b6001600160a01b0316856001600160a01b03161415610e44576001600160a01b0381166000908152600460205260409020549092509050610fc8565b6001600160a01b0380821660009081526006602090815260408083205481516318160ddd60e01b8152915194169384926318160ddd9260048082019391829003018186803b158015610e9557600080fd5b505afa158015610ea9573d6000803e3d6000fd5b505050506040513d601f19601f82011682018060405250810190610ecd9190612b3c565b905080610ee3575090925060009150610fc89050565b6040516370a0823160e01b81526000906001600160a01b038416906370a0823190610f12908b90600401612d21565b60206040518083038186803b158015610f2a57600080fd5b505afa158015610f3e573d6000803e3d6000fd5b505050506040513d601f19601f82011682018060405250810190610f629190612b3c565b90506127106000610f8984610f7d858563ffffffff61207616565b9063ffffffff6120b916565b6001600160a01b0387166000908152600560205260409020549091508690610fbd908490610f7d908563ffffffff61207616565b975097505050505050505b9250929050565b600d5481565b600c8181548110610fe257fe5b6000918252602090912001546001600160a01b0316905081565b60155490565b60046020526000908152604090205481565b6000805b600a5481101561059c57826001600160a01b0316600a828154811061103957fe5b6000918252602090912001546001600160a01b0316141561105e5760019150506105a2565b600101611018565b61106e611dfa565b6000546001600160a01b0390811691161461109b5760405162461bcd60e51b81526004016105e590613126565b600080546040516001600160a01b03909116907f8be0079c531659141344cd1fd0a4f28419497f9722a3daafe3b4186f6b6457e0908390a3600080546001600160a01b0319169055565b6110ed611dfa565b6000546001600160a01b0390811691161461111a5760405162461bcd60e51b81526004016105e590613126565b60005b81518110156111bb576011600083838151811061113657fe5b6020908102919091018101516001600160a01b031682528101919091526040016000205460ff166111b35760016011600084848151811061117357fe5b60200260200101516001600160a01b03166001600160a01b0316815260200190815260200160002060006101000a81548160ff0219169083151502179055505b60010161111d565b5050565b6111c7611dfa565b6000546001600160a01b039081169116146111f45760405162461bcd60e51b81526004016105e590613126565b6001600160a01b03811660009081526011602052604090205460ff161561122d5760405162461bcd60e51b81526004016105e590612df1565b6001600160a01b03166000908152601160205260409020805460ff19166001179055565b601a81815481106105b457fe5b601754600160a01b900460ff1690565b60085481565b6000546001600160a01b031690565b60116020526000908152604090205460ff1681565b600a5490565b60145461010090046001600160a01b031681565b6017546001600160a01b031681565b601b5481565b600c5490565b6112d5611dfa565b6000546001600160a01b039081169116146113025760405162461bcd60e51b81526004016105e590613126565b60005b81518110156111bb576011600083838151811061131e57fe5b6020908102919091018101516001600160a01b031682528101919091526040016000205460ff161515600114156113a15760006011600084848151811061136157fe5b60200260200101516001600160a01b03166001600160a01b0316815260200190815260200160002060006101000a81548160ff0219169083151502179055505b600101611305565b6013805460408051602060026001851615610100026000190190941693909304601f8101849004840282018401909252818152929183018282801561142f5780601f106114045761010080835404028352916020019161142f565b820191906000526020600020905b81548152906001019060200180831161141257829003601f168201915b505050505081565b600082116114575760405162461bcd60e51b81526004016105e5906131bf565b6015805460009190600019810190811061146d57fe5b600091825260208220015460145460405160016259edcb60e01b031981529193506001600160a01b036101008204169163ffa61235916114b79160ff909116908690600401612d99565b604080518083038186803b1580156114ce57600080fd5b505afa1580156114e2573d6000803e3d6000fd5b505050506040513d601f19601f820116820180604052508101906115069190612ba4565b9150506000601760149054906101000a900460ff16151560011515148061155757508142101580156115575750600083815260186020526040812060029081015460ff169081111561155457fe5b14155b90506115648585836120fb565b5050505050565b6000805b600c5481101561059c57826001600160a01b0316600c828154811061159057fe5b6000918252602090912001546001600160a01b031614156115b55760019150506105a2565b60010161156f565b6012546001600160a01b031681565b6017546001600160a01b031633146115f65760405162461bcd60e51b81526004016105e590612f6c565b7fc95987c1992805ee34bdc915e017cceae36ba1c156b9911fa7e691e6435eb46e428383604051611629939291906132e0565b60405180910390a16001808201601b5560008281526018602090815260408083209384018690554284556012548151633fa4f24560e01b815291516001600160a01b0390911692633fa4f2459260048082019391829003018186803b15801561169157600080fd5b505afa1580156116a5573d6000803e3d6000fd5b505050506040513d601f19601f820116820180604052508101906116c99190612b3c565b6012546040516303c8f2e360e21b81529192506001600160a01b031690630f23cb8c906116fa908790600401612d7d565b60206040518083038186803b15801561171257600080fd5b505afa158015611726573d6000803e3d6000fd5b505050506040513d601f19601f8201168201806040525081019061174a9190612a78565b1561180b576002828101805460ff19166001179055612710906000906117989061177890610f7d89876122fd565b610f7d8461178c8a8863ffffffff61232216565b9063ffffffff61207616565b905060006117d860016117cc60156000815481106117b257fe5b90600052602060002001548961232290919063ffffffff16565b9063ffffffff6122fd16565b6015549091506000906117f590610f7d858563ffffffff61207616565b9050611802878286612364565b50505050610d5c565b6002828101805460ff191690911790556118236124ee565b6017805460ff60a01b1916600160a01b1790556040517fbd33f7a3bfa88a467c9df5ae7d2341cf061084c386b20a0d48130f5cbce38a4d9061186890859087906132ac565b60405180910390a150505050565b6016546001600160a01b031681565b60095481565b60035481565b611899611dfa565b6000546001600160a01b039081169116146118c65760405162461bcd60e51b81526004016105e590613126565b6001600160a01b0381166118ec5760405162461bcd60e51b81526004016105e590612ea2565b600080546040516001600160a01b03808516939216917f8be0079c531659141344cd1fd0a4f28419497f9722a3daafe3b4186f6b6457e091a3600080546001600160a01b0319166001600160a01b0392909216919091179055565b600b546001600160a01b031681565b61195e611dfa565b6000546001600160a01b0390811691161461198b5760405162461bcd60e51b81526004016105e590613126565b6001600160a01b03811660009081526011602052604090205460ff1615156001146119c85760405162461bcd60e51b81526004016105e5906131eb565b6001600160a01b03166000908152601160205260409020805460ff19169055565b600a8181548110610fe257fe5b80611a008161156b565b1515600114611a215760405162461bcd60e51b81526004016105e5906130f8565b60105460ff16151560011415611a65573360009081526011602052604090205460ff161515600114611a655760405162461bcd60e51b81526004016105e590612fb1565b611a806001600160a01b03831633308663ffffffff6125e816565b611a88611274565b6001600160a01b0316336001600160a01b031614611bd5576001600160a01b03821660009081526004602090815260408083205460059092529091205481611ad6828763ffffffff6122fd16565b1115611af45760405162461bcd60e51b81526004016105e590613219565b6001600160a01b038416600090815260056020526040902054611b1d908663ffffffff6122fd16565b6001600160a01b038516600090815260056020526040812091909155600854600954611b559190610f7d90899063ffffffff61207616565b6001600160a01b03808716600090815260066020526040908190205490516340c10f1960e01b8152929350169081906340c10f1990611b9a9033908690600401612d35565b600060405180830381600087803b158015611bb457600080fd5b505af1158015611bc8573d6000803e3d6000fd5b5050505050505050611da5565b6001600160a01b0380831660009081526007602090815260408083205481516318160ddd60e01b8152915194169384926318160ddd9260048082019391829003018186803b158015611c2657600080fd5b505afa158015611c3a573d6000803e3d6000fd5b505050506040513d601f19601f82011682018060405250810190611c5e9190612b3c565b6001600160a01b03851660009081526004602052604090205490915081611ce4576040516340c10f1960e01b81526001600160a01b038416906340c10f1990611cad9033908a90600401612d35565b600060405180830381600087803b158015611cc757600080fd5b505af1158015611cdb573d6000803e3d6000fd5b50505050611d5f565b6000611cfa82610f7d898663ffffffff61207616565b6040516340c10f1960e01b81529091506001600160a01b038516906340c10f1990611d2b9033908590600401612d35565b600060405180830381600087803b158015611d4557600080fd5b505af1158015611d59573d6000803e3d6000fd5b50505050505b6001600160a01b038516600090815260046020526040902054611d88908763ffffffff6122fd16565b6001600160a01b0386166000908152600460205260409020555050505b611dae33611014565b611df557600a80546001810182556000919091527fc65a7bb8d6351c1cf70c95a316cc6a92839c986682d98bc35f958f4883f9d2a80180546001600160a01b031916331790555b505050565b3390565b60608180611e255750506040805180820190915260018152600360fc1b60208201526105a2565b8060005b8115611e3d57600101600a82049150611e29565b60608167ffffffffffffffff81118015611e5657600080fd5b506040519080825280601f01601f191660200182016040528015611e81576020820181803683370190505b50905060001982015b8415611ecf57600a850660300160f81b82828060019003935081518110611ead57fe5b60200101906001600160f81b031916908160001a905350600a85049450611e8a565b5095945050505050565b80611ee38161156b565b1515600114611f045760405162461bcd60e51b81526004016105e5906130f8565b6001600160a01b0380831660009081526006602090815260408083205481516318160ddd60e01b8152915194169384926318160ddd9260048082019391829003018186803b158015611f5557600080fd5b505afa158015611f69573d6000803e3d6000fd5b505050506040513d601f19601f82011682018060405250810190611f8d9190612b3c565b6001600160a01b038516600090815260056020526040812054919250611fbd82610f7d898663ffffffff61207616565b60405163079cc67960e41b81529091506001600160a01b038516906379cc679090611fee9033908590600401612d35565b600060405180830381600087803b15801561200857600080fd5b505af115801561201c573d6000803e3d6000fd5b5050506001600160a01b03871660009081526005602052604090205461204991508863ffffffff61232216565b6001600160a01b03871660008181526005602052604090209190915561081690338963ffffffff61264016565b600082612085575060006120b3565b8282028284828161209257fe5b04146120b05760405162461bcd60e51b81526004016105e5906130b7565b90505b92915050565b60006120b083836040518060400160405280601a81526020017f536166654d6174683a206469766973696f6e206279207a65726f00000000000081525061265f565b816121058161156b565b15156001146121265760405162461bcd60e51b81526004016105e5906130f8565b6001600160a01b0383166000908152600460209081526040808320546005909252909120548361217f5780612161838863ffffffff61232216565b101561217f5760405162461bcd60e51b81526004016105e590612fe2565b6001600160a01b0380861660009081526007602090815260408083205481516318160ddd60e01b8152915194169384926318160ddd9260048082019391829003018186803b1580156121d057600080fd5b505afa1580156121e4573d6000803e3d6000fd5b505050506040513d601f19601f820116820180604052508101906122089190612b3c565b6001600160a01b03881660009081526004602052604081205491925061223882610f7d8c8663ffffffff61207616565b60405163079cc67960e41b81529091506001600160a01b038516906379cc6790906122699033908590600401612d35565b600060405180830381600087803b15801561228357600080fd5b505af1158015612297573d6000803e3d6000fd5b5050506001600160a01b038a166000908152600460205260409020546122c491508b63ffffffff61232216565b6001600160a01b038a166000818152600460205260409020919091556122f190338c63ffffffff61264016565b50505050505050505050565b6000828201838110156120b05760405162461bcd60e51b81526004016105e590612ee8565b60006120b083836040518060400160405280601e81526020017f536166654d6174683a207375627472616374696f6e206f766572666c6f770000815250612696565b60005b600c548110156124bf576000600c828154811061238057fe5b60009182526020808320909101546001600160a01b031680835260059091526040822054909250906123bc85610f7d848963ffffffff61207616565b6001600160a01b0384166000908152600560205260409020549091506123e8908263ffffffff61232216565b6001600160a01b03808516600081815260056020526040902092909255600b5416141561243057600061241a826126c2565b905061242c828263ffffffff61232216565b9150505b6001600160a01b038316600090815260046020526040902054612459908263ffffffff6122fd16565b6001600160a01b0384166000818152600460205260409081902092909255905188907f3173c1c4b679e2da86dbb0382bde749a6e16cd31912c5410e17985cd7d2b9052906124ac908a908a9087906132e0565b60405180910390a3505050600101612367565b506124e681610f7d6124d7828663ffffffff61232216565b6008549063ffffffff61207616565b600855505050565b60005b600c548110156125e5576000600c828154811061250a57fe5b60009182526020808320909101546001600160a01b03168083526005825260408084205460049093529092205491925090819061254d908263ffffffff61232216565b6001600160a01b03808516600081815260046020526040902092909255600b5416141561259557600061257f826126c2565b9050612591828263ffffffff61232216565b9150505b6001600160a01b0383166000908152600560205260409020546125be908263ffffffff6122fd16565b6001600160a01b0390931660009081526005602052604090209290925550506001016124f1565b50565b610d5c846323b872dd60e01b85858560405160240161260993929190612d4e565b60408051601f198184030181529190526020810180516001600160e01b03166001600160e01b0319909316929092179091526127fa565b611df58363a9059cbb60e01b8484604051602401612609929190612d35565b600081836126805760405162461bcd60e51b81526004016105e59190612db0565b50600083858161268c57fe5b0495945050505050565b600081848411156126ba5760405162461bcd60e51b81526004016105e59190612db0565b505050900390565b60408051808201909152600d8082526c6275726e2875696e743235362960981b602090920191909152546000907f42966c689b5afe9b9b3f8a7103b2a19980d59629bfd6a20a60972312ed41d8369061272a906103e890610f7d90869063ffffffff61207616565b600b546040519193506000916001600160a01b03909116908390612752908690602401612d7d565b60408051601f198184030181529181526020820180516001600160e01b03166001600160e01b03199094169390931790925290516127909190612bf3565b6000604051808303816000865af19150503d80600081146127cd576040519150601f19603f3d011682016040523d82523d6000602084013e6127d2565b606091505b50509050806127f35760405162461bcd60e51b81526004016105e590613073565b5050919050565b606061284f826040518060400160405280602081526020017f5361666545524332303a206c6f772d6c6576656c2063616c6c206661696c6564815250856001600160a01b03166128899092919063ffffffff16565b805190915015611df5578080602001905181019061286d9190612a78565b611df55760405162461bcd60e51b81526004016105e590613262565b606061289884846000856128a0565b949350505050565b60606128ab85612964565b6128c75760405162461bcd60e51b81526004016105e590613188565b60006060866001600160a01b031685876040516128e49190612bf3565b60006040518083038185875af1925050503d8060008114612921576040519150601f19603f3d011682016040523d82523d6000602084013e612926565b606091505b5091509150811561293a5791506128989050565b80511561294a5780518082602001fd5b8360405162461bcd60e51b81526004016105e59190612db0565b3b151590565b80356120b381613373565b600060208284031215612986578081fd5b81356120b081613373565b6000602082840312156129a2578081fd5b81516120b081613373565b600080604083850312156129bf578081fd5b82356129ca81613373565b946020939093013593505050565b600060208083850312156129ea578182fd5b823567ffffffffffffffff811115612a00578283fd5b80840185601f820112612a11578384fd5b80359150612a26612a218361331d565b6132f6565b8281528381019082850185850284018601891015612a42578687fd5b8693505b84841015612a6c57612a58898261296a565b835260019390930192918501918501612a46565b50979650505050505050565b600060208284031215612a89578081fd5b815180151581146120b0578182fd5b600060208284031215612aa9578081fd5b815167ffffffffffffffff80821115612ac0578283fd5b81840185601f820112612ad1578384fd5b8051925081831115612ae1578384fd5b612af4601f8401601f19166020016132f6565b9150828252856020848301011115612b0a578384fd5b612b1b83602084016020840161333d565b50949350505050565b600060208284031215612b35578081fd5b5035919050565b600060208284031215612b4d578081fd5b5051919050565b60008060408385031215612b66578182fd5b823591506020830135612b7881613373565b809150509250929050565b60008060408385031215612b95578182fd5b50508035926020909101359150565b60008060408385031215612bb6578182fd5b505080516020909101519092909150565b60008151808452612bdf81602086016020860161333d565b601f01601f19169290920160200192915050565b60008251612c0581846020870161333d565b9190910192915050565b600061647560f01b82528351612c2c81600285016020880161333d565b808301602d60f81b600282015284519150612c4e82600383016020880161333d565b01600301949350505050565b60006d44534c412d50524f56494445522d60901b82528351612c8381600e85016020880161333d565b808301602d60f81b600e82015284519150612ca582600f83016020880161333d565b01600f01949350505050565b600061064760f41b82528351612c2c81600285016020880161333d565b60006944534c412d555345522d60b01b82528351612cf381600a85016020880161333d565b808301602d60f81b600a82015284519150612d1582600b83016020880161333d565b01600b01949350505050565b6001600160a01b0391909116815260200190565b6001600160a01b03929092168252602082015260400190565b6001600160a01b039384168152919092166020820152604081019190915260600190565b901515815260200190565b90815260200190565b60208101612d9383613369565b91905290565b60408101612da684613369565b9281526020015290565b6000602082526120b06020830184612bc7565b600060408252612dd66040830185612bc7565b8281036020840152612de88185612bc7565b95945050505050565b602080825260189082015277155cd95c88185b1c9958591e481dda1a5d195b1a5cdd195960421b604082015260600190565b60208082526059908201527f43616e206f6e6c79207769746864726177207374616b6520616674657220746860408201527f652066696e616c20706572696f642069732066696e6973686564206f72206966606082015278081d1a194818dbdb9d1c9858dd081a5cc8189c995858da1959603a1b608082015260a00190565b60208082526026908201527f4f776e61626c653a206e6577206f776e657220697320746865207a65726f206160408201526564647265737360d01b606082015260800190565b6020808252601b908201527f536166654d6174683a206164646974696f6e206f766572666c6f770000000000604082015260600190565b6020808252602d908201527f546f6b656e206e6f7420616c6c6f7765642062792074686520534c415265676960408201526c1cdd1c9e4818dbdb9d1c9858dd609a1b606082015260800190565b60208082526025908201527f4f6e6c79204d657373656e6765722063616e2063616c6c20746869732066756e60408201526431ba34b7b760d91b606082015260800190565b602080825260179082015276155cd95c881a5cc81b9bdd081dda1a5d195b1a5cdd1959604a1b604082015260600190565b60208082526029908201527f53686f756c64206e6f74207769746864726177206d6f7265207468616e207573604082015268657273207374616b6560b81b606082015260800190565b60208082526028908201527f43616e206f6e6c79207374616b65206f6e206e6f742066696e697368656420636040820152676f6e74726163747360c01b606082015260800190565b60208082526024908201527f44534c41206275726e2070726f6365737320776173206e6f74207375636365736040820152631cd99d5b60e21b606082015260800190565b60208082526021908201527f536166654d6174683a206d756c7469706c69636174696f6e206f766572666c6f6040820152607760f81b606082015260800190565b6020808252601490820152731d1bdad95b881a5cc81b9bdd08185b1b1bddd95960621b604082015260600190565b6020808252818101527f4f776e61626c653a2063616c6c6572206973206e6f7420746865206f776e6572604082015260600190565b602080825260139082015272151bdad95b88185b1c9958591e481859191959606a1b604082015260600190565b6020808252601d908201527f416464726573733a2063616c6c20746f206e6f6e2d636f6e7472616374000000604082015260600190565b6020808252601290820152710616d6f756e742063616e6e6f7420626520360741b604082015260600190565b602080825260149082015273155cd95c881b9bdd081dda1a5d195b1a5cdd195960621b604082015260600190565b60208082526029908201527f43616e6e6f74207374616b65206d6f7265207468616e20534c412070726f7669604082015268646572207374616b6560b81b606082015260800190565b6020808252602a908201527f5361666545524332303a204552433230206f7065726174696f6e20646964206e6040820152691bdd081cdd58d8d9595960b21b606082015260800190565b918252602082015260400190565b8381526020810183905260608101600383106132d257fe5b826040830152949350505050565b9283526020830191909152604082015260600190565b60405181810167ffffffffffffffff8111828210171561331557600080fd5b604052919050565b600067ffffffffffffffff821115613333578081fd5b5060209081020190565b60005b83811015613358578181015183820152602001613340565b83811115610d5c5750506000910152565b600681106125e557fe5b6001600160a01b03811681146125e557600080fdfea26469706673582212208dc6dd30cb388bac875690e433200be0bb56c643bd31e061db1e8b1c4560811e64736f6c634300060600338be0079c531659141344cd1fd0a4f28419497f9722a3daafe3b4186f6b6457e0",
  "immutableReferences": {},
  "source": "// SPDX-License-Identifier: MIT\npragma solidity 0.6.6;\npragma experimental ABIEncoderV2;\n\nimport \"@openzeppelin/contracts/access/Ownable.sol\";\nimport \"@openzeppelin/contracts/token/ERC20/IERC20.sol\";\nimport \"@openzeppelin/contracts/math/SafeMath.sol\";\nimport \"./SLO.sol\";\nimport \"./SLARegistry.sol\";\nimport \"./StakeRegistry.sol\";\nimport \"./PeriodRegistry.sol\";\nimport \"./Staking.sol\";\n\n/**\n * @title SLA\n * @dev SLA is a service level agreement contract used for service downtime\n * compensation\n */\ncontract SLA is Staking {\n    using SafeMath for uint256;\n\n    enum Status {NotVerified, Respected, NotRespected}\n\n    /// @dev Struct used for storing period status\n    struct PeriodSLI {\n        uint256 timestamp;\n        uint256 sli;\n        Status status;\n    }\n\n    /// @dev address of the SLO\n    SLO public slo;\n\n    /// @dev The ipfs hash that stores extra information about the agreement\n    string public ipfsHash;\n\n    /// @dev uint8 of the period type\n    PeriodRegistry.PeriodType public periodType;\n\n    PeriodRegistry public periodRegistry;\n\n    /// @dev array of he allowed canonical period ids\n    uint256[] public periodIds;\n\n    /// @dev The address of the slaRegistry contract\n    SLARegistry public slaRegistry;\n\n    /// @dev The address of the messenger\n    address public messengerAddress;\n\n    /// @dev states if the contract was breached or not\n    bool private _breachedContract = false;\n\n    /// @dev periodId=>PeriodSLI mapping\n    mapping(uint256 => PeriodSLI) public periodSLIs;\n\n    /// @dev block number of SLA deployment\n    uint256 public creationBlockNumber;\n\n    /// @dev extra data for customized workflows\n    bytes32[] public extraData;\n\n    /// @dev states if the contract was breached or not\n    uint256 public nextVerifiablePeriod;\n\n    /**\n     * @dev event for SLI creation logging\n     * @param timestamp 1. the time the SLI has been registered\n     * @param sli 2. the value of the SLI\n     * @param periodId 3. the id of the given period\n     */\n    event SLICreated(uint256 timestamp, uint256 sli, uint256 periodId);\n\n    /**\n     * @dev event for SLI creation logging\n     * @param _periodId 1. the id of the given period\n     * @param _sli 2. value of the SLI\n     */\n    event SLANotRespected(uint256 _periodId, uint256 _sli);\n\n    /**\n     * @dev throws if called by any address other than the messenger contract.\n     */\n    modifier onlyMessenger() {\n        require(\n            msg.sender == messengerAddress,\n            \"Only Messenger can call this function\"\n        );\n        _;\n    }\n\n    /**\n     * @dev throws if called by any address other than the messenger contract.\n     */\n    modifier onlySLARegistry() {\n        require(\n            msg.sender == address(slaRegistry),\n            \"Only SLARegistry can call this function\"\n        );\n        _;\n    }\n\n    /**\n     * @param _owner 1. address of the owner of the service level agreement\n     * @param _SLO 2. address of the SLO\n     * @param _ipfsHash 3. string with the ipfs hash that contains SLA information\n     * @param _periodIds 4. id of the allowed canonical periods\n     * @param _periodType 5. period type of the SLA contract\n     * @param _stakeRegistry 6. stakeRegistry address\n     * @param _periodRegistry 7. periodRegistry address\n     * @param _whitelisted 8. boolean to declare whitelisted contracts\n     * @param _extraData 9. array of bytes32 to store extra data on deployment time\n     * @param _slaID 10. identifies the SLA to uniquely to emit dTokens\n     */\n    constructor(\n        address _owner,\n        SLO _SLO,\n        string memory _ipfsHash,\n        address _messengerAddress,\n        uint256[] memory _periodIds,\n        PeriodRegistry.PeriodType _periodType,\n        address _stakeRegistry,\n        address _periodRegistry,\n        bool _whitelisted,\n        bytes32[] memory _extraData,\n        uint256 _slaID\n    )\n        public\n        Staking(\n            _stakeRegistry,\n            _periodRegistry,\n            _periodType,\n            _periodIds.length,\n            _whitelisted,\n            _slaID\n        )\n    {\n        transferOwnership(_owner);\n        ipfsHash = _ipfsHash;\n        messengerAddress = _messengerAddress;\n        slaRegistry = SLARegistry(msg.sender);\n        periodRegistry = PeriodRegistry(_periodRegistry);\n        creationBlockNumber = block.number;\n        periodIds = _periodIds;\n        periodType = _periodType;\n        slo = _SLO;\n        extraData = _extraData;\n        nextVerifiablePeriod = _periodIds[0];\n    }\n\n    /**\n     * @dev external function to register SLI's and check them against the SLO's\n     * @param _sli 1. the value of the SLI to check\n     * @param _periodId 2. the id of the given period\n     */\n    function registerSLI(uint256 _sli, uint256 _periodId)\n        external\n        onlyMessenger\n    {\n        emit SLICreated(block.timestamp, _sli, _periodId);\n        nextVerifiablePeriod = _periodId + 1;\n        PeriodSLI storage periodSLI = periodSLIs[_periodId];\n        periodSLI.sli = _sli;\n        periodSLI.timestamp = block.timestamp;\n        uint256 sloValue = slo.value();\n        if (slo.isRespected(_sli)) {\n            periodSLI.status = Status.Respected;\n            uint256 precision = 10000;\n            // deviation = (sli-slo)*precision/((sli+slo)/2)\n            uint256 deviation =\n                _sli.sub(sloValue).mul(precision).div(\n                    _sli.add(sloValue).div(2)\n                );\n            // to get the reward formula, we get the periodId but respecting to the SLA\n            // because _periodId is the periodId of the platform\n            // e.g. if periodIds = 7,8,9,10, normalized periods are = 1,2,3,4\n            uint256 normalizedPeriodId = _periodId.sub(periodIds[0]).add(1);\n            // if is the last period, then deliver the whole usersStake to the provider\n            // uint256 rewardPercentage =\n            //     _periodId != periodIds[periodIds.length - 1] &&\n            //         ? deviation.mul(normalizedPeriodId).div(periodIds.length)\n            //         : uint256(1).mul(precision);\n            uint256 rewardPercentage =\n                deviation.mul(normalizedPeriodId).div(periodIds.length);\n            _setRespectedPeriodReward(_periodId, rewardPercentage, precision);\n        } else {\n            periodSLI.status = Status.NotRespected;\n            _setUsersCompensation();\n            _breachedContract = true;\n            emit SLANotRespected(_periodId, _sli);\n        }\n    }\n\n    function isAllowedPeriod(uint256 _periodId) public view returns (bool) {\n        for (uint256 index = 0; index < periodIds.length; index++) {\n            if (periodIds[index] == _periodId) {\n                return true;\n            }\n        }\n        return false;\n    }\n\n    /**\n     *@dev stake _amount tokens into the _token contract\n     *@param _amount 1. amount to be staked\n     *@param _token 2. address of the ERC to be staked\n     */\n\n    function stakeTokens(uint256 _amount, address _token) public {\n        require(_amount > 0, \"amount cannot be 0\");\n        uint256 lastValidPeriodId = periodIds[periodIds.length - 1];\n        (, uint256 endOfLastValidPeriod) =\n            periodRegistry.getPeriodStartAndEnd(periodType, lastValidPeriodId);\n        bool contractFinished =\n            _breachedContract == true ||\n                (block.timestamp >= endOfLastValidPeriod &&\n                    periodSLIs[lastValidPeriodId].status != Status.NotVerified);\n        require(\n            contractFinished == false,\n            \"Can only stake on not finished contracts\"\n        );\n        _stake(_amount, _token);\n        StakeRegistry stakeRegistry = slaRegistry.stakeRegistry();\n        stakeRegistry.registerStakedSla(msg.sender);\n    }\n\n    function withdrawProviderTokens(uint256 _amount, address _tokenAddress)\n        public\n    {\n        require(_amount > 0, \"amount cannot be 0\");\n        uint256 lastValidPeriodId = periodIds[periodIds.length - 1];\n        (, uint256 endOfLastValidPeriod) =\n            periodRegistry.getPeriodStartAndEnd(periodType, lastValidPeriodId);\n        // contract is finished if is breached or if the last period is finished and verified\n        bool contractFinished =\n            _breachedContract == true ||\n                (block.timestamp >= endOfLastValidPeriod &&\n                    periodSLIs[lastValidPeriodId].status != Status.NotVerified);\n        _withdrawProviderTokens(_amount, _tokenAddress, contractFinished);\n    }\n\n    /**\n     *@dev withdraw _amount tokens from the _token contract\n     *@param _amount 1. amount to be staked\n     *@param _tokenAddress 2. address of the ERC to be staked\n     */\n\n    function withdrawUserTokens(uint256 _amount, address _tokenAddress) public {\n        require(_amount > 0, \"amount cannot be 0\");\n        uint256 lastValidPeriodId = periodIds[periodIds.length - 1];\n        (, uint256 endOfLastValidPeriod) =\n            periodRegistry.getPeriodStartAndEnd(periodType, lastValidPeriodId);\n        // users tokens can be withdrawn only if the contract is breached\n        // or if the last period is finished and the period status was verified\n        if (msg.sender != owner()) {\n            require(\n                _breachedContract == true ||\n                    (block.timestamp >= endOfLastValidPeriod &&\n                        periodSLIs[lastValidPeriodId].status !=\n                        Status.NotVerified),\n                \"Can only withdraw stake after the final period is finished or if the contract is breached\"\n            );\n        }\n        _withdrawUserTokens(_amount, _tokenAddress);\n    }\n\n    function getPeriodIdsLength() public view returns (uint256) {\n        return periodIds.length;\n    }\n\n    function getStakersLength() public view returns (uint256) {\n        return stakers.length;\n    }\n\n    function breachedContract() public view returns (bool) {\n        return _breachedContract;\n    }\n}\n",
  "sourcePath": "/Users/matiasbn/Desktop/stacktical/stacktical-dsla-contracts/contracts/SLA.sol",
  "compiler": {
    "name": "solc",
    "version": "0.6.6+commit.6c089d02.Emscripten.clang"
  },
  "schemaVersion": "3.3.3",
  "updatedAt": "2021-03-12T15:25:14.893Z",
  "devdoc": {
    "details": "SLA is a service level agreement contract used for service downtime compensation",
    "methods": {
      "constructor": {
        "params": {
          "_SLO": "2. address of the SLO",
          "_extraData": "9. array of bytes32 to store extra data on deployment time",
          "_ipfsHash": "3. string with the ipfs hash that contains SLA information",
          "_owner": "1. address of the owner of the service level agreement",
          "_periodIds": "4. id of the allowed canonical periods",
          "_periodRegistry": "7. periodRegistry address",
          "_periodType": "5. period type of the SLA contract",
          "_slaID": "10. identifies the SLA to uniquely to emit dTokens",
          "_stakeRegistry": "6. stakeRegistry address",
          "_whitelisted": "8. boolean to declare whitelisted contracts"
        }
      },
      "owner()": {
        "details": "Returns the address of the current owner."
      },
      "registerSLI(uint256,uint256)": {
        "details": "external function to register SLI's and check them against the SLO's",
        "params": {
          "_periodId": "2. the id of the given period",
          "_sli": "1. the value of the SLI to check"
        }
      },
      "renounceOwnership()": {
        "details": "Leaves the contract without owner. It will not be possible to call `onlyOwner` functions anymore. Can only be called by the current owner.     * NOTE: Renouncing ownership will leave the contract without an owner, thereby removing any functionality that is only available to the owner."
      },
      "transferOwnership(address)": {
        "details": "Transfers ownership of the contract to a new account (`newOwner`). Can only be called by the current owner."
      }
    },
    "title": "SLA"
  },
  "userdoc": {
    "methods": {
      "addAllowedTokens(address)": {
        "notice": "dev add a token to ve allowed for staking param _tokenAddress 1. address of the new allowed token"
      },
      "getAllowedTokensLength()": {
        "notice": "dev use this function to evaluate the length of the allowed tokens length return allowedTokens.length"
      },
      "isAllowedToken(address)": {
        "notice": "dev checks in the allowedTokens array if there's a token with _tokenAddress value param _tokenAddress 1. token address to check exixtence return true if _tokenAddress exists in the allowedTokens array"
      },
      "isStaker(address)": {
        "notice": "dev returns true if the _staker address is registered as staker param _staker 1. staker address return true if address is staker"
      },
      "stakeTokens(uint256,address)": {
        "notice": "dev stake _amount tokens into the _token contract param _amount 1. amount to be staked param _token 2. address of the ERC to be staked"
      },
      "withdrawUserTokens(uint256,address)": {
        "notice": "dev withdraw _amount tokens from the _token contract param _amount 1. amount to be staked param _tokenAddress 2. address of the ERC to be staked"
      }
    }
  }
}