{
  "contractName": "SLA",
  "abi": [
    {
      "inputs": [
        {
          "internalType": "address",
          "name": "_owner",
          "type": "address"
        },
        {
          "internalType": "address",
          "name": "_sloRegistryAddress",
          "type": "address"
        },
        {
          "internalType": "bool",
          "name": "_whitelisted",
          "type": "bool"
        },
        {
          "internalType": "enum PeriodRegistry.PeriodType",
          "name": "_periodType",
          "type": "uint8"
        },
        {
          "internalType": "address",
          "name": "_messengerAddress",
          "type": "address"
        },
        {
          "internalType": "uint128",
          "name": "_initialPeriodId",
          "type": "uint128"
        },
        {
          "internalType": "uint128",
          "name": "_finalPeriodId",
          "type": "uint128"
        },
        {
          "internalType": "uint128",
          "name": "_slaID",
          "type": "uint128"
        },
        {
          "internalType": "string",
          "name": "_ipfsHash",
          "type": "string"
        },
        {
          "internalType": "bytes32[]",
          "name": "_extraData",
          "type": "bytes32[]"
        }
      ],
      "stateMutability": "nonpayable",
      "type": "constructor"
    },
    {
      "anonymous": false,
      "inputs": [
        {
          "indexed": true,
          "internalType": "address",
          "name": "previousOwner",
          "type": "address"
        },
        {
          "indexed": true,
          "internalType": "address",
          "name": "newOwner",
          "type": "address"
        }
      ],
      "name": "OwnershipTransferred",
      "type": "event"
    },
    {
      "anonymous": false,
      "inputs": [
        {
          "indexed": true,
          "internalType": "uint256",
          "name": "periodId",
          "type": "uint256"
        },
        {
          "indexed": true,
          "internalType": "address",
          "name": "tokenAddress",
          "type": "address"
        },
        {
          "indexed": false,
          "internalType": "uint256",
          "name": "rewardPercentage",
          "type": "uint256"
        },
        {
          "indexed": false,
          "internalType": "uint256",
          "name": "rewardPercentagePrecision",
          "type": "uint256"
        },
        {
          "indexed": false,
          "internalType": "uint256",
          "name": "rewardAmount",
          "type": "uint256"
        }
      ],
      "name": "ProviderRewardGenerated",
      "type": "event"
    },
    {
      "anonymous": false,
      "inputs": [
        {
          "indexed": false,
          "internalType": "uint256",
          "name": "_periodId",
          "type": "uint256"
        },
        {
          "indexed": false,
          "internalType": "uint256",
          "name": "_sli",
          "type": "uint256"
        }
      ],
      "name": "SLANotRespected",
      "type": "event"
    },
    {
      "anonymous": false,
      "inputs": [
        {
          "indexed": false,
          "internalType": "uint256",
          "name": "timestamp",
          "type": "uint256"
        },
        {
          "indexed": false,
          "internalType": "uint256",
          "name": "sli",
          "type": "uint256"
        },
        {
          "indexed": false,
          "internalType": "uint256",
          "name": "periodId",
          "type": "uint256"
        }
      ],
      "name": "SLICreated",
      "type": "event"
    },
    {
      "inputs": [],
      "name": "DSLAburnRate",
      "outputs": [
        {
          "internalType": "uint256",
          "name": "",
          "type": "uint256"
        }
      ],
      "stateMutability": "view",
      "type": "function",
      "constant": true
    },
    {
      "inputs": [
        {
          "internalType": "address",
          "name": "_tokenAddress",
          "type": "address"
        }
      ],
      "name": "addAllowedTokens",
      "outputs": [],
      "stateMutability": "nonpayable",
      "type": "function"
    },
    {
      "inputs": [
        {
          "internalType": "address[]",
          "name": "_userAddresses",
          "type": "address[]"
        }
      ],
      "name": "addMultipleUsersToWhitelist",
      "outputs": [],
      "stateMutability": "nonpayable",
      "type": "function"
    },
    {
      "inputs": [
        {
          "internalType": "address",
          "name": "_userAddress",
          "type": "address"
        }
      ],
      "name": "addUserToWhitelist",
      "outputs": [],
      "stateMutability": "nonpayable",
      "type": "function"
    },
    {
      "inputs": [
        {
          "internalType": "uint256",
          "name": "",
          "type": "uint256"
        }
      ],
      "name": "allowedTokens",
      "outputs": [
        {
          "internalType": "address",
          "name": "",
          "type": "address"
        }
      ],
      "stateMutability": "view",
      "type": "function",
      "constant": true
    },
    {
      "inputs": [],
      "name": "creationBlockNumber",
      "outputs": [
        {
          "internalType": "uint256",
          "name": "",
          "type": "uint256"
        }
      ],
      "stateMutability": "view",
      "type": "function",
      "constant": true
    },
    {
      "inputs": [
        {
          "internalType": "address",
          "name": "",
          "type": "address"
        }
      ],
      "name": "dpTokenRegistry",
      "outputs": [
        {
          "internalType": "contract ERC20PresetMinterPauser",
          "name": "",
          "type": "address"
        }
      ],
      "stateMutability": "view",
      "type": "function",
      "constant": true
    },
    {
      "inputs": [],
      "name": "dslaTokenAddress",
      "outputs": [
        {
          "internalType": "address",
          "name": "",
          "type": "address"
        }
      ],
      "stateMutability": "view",
      "type": "function",
      "constant": true
    },
    {
      "inputs": [
        {
          "internalType": "address",
          "name": "",
          "type": "address"
        }
      ],
      "name": "duTokenRegistry",
      "outputs": [
        {
          "internalType": "contract ERC20PresetMinterPauser",
          "name": "",
          "type": "address"
        }
      ],
      "stateMutability": "view",
      "type": "function",
      "constant": true
    },
    {
      "inputs": [
        {
          "internalType": "uint256",
          "name": "",
          "type": "uint256"
        }
      ],
      "name": "extraData",
      "outputs": [
        {
          "internalType": "bytes32",
          "name": "",
          "type": "bytes32"
        }
      ],
      "stateMutability": "view",
      "type": "function",
      "constant": true
    },
    {
      "inputs": [],
      "name": "finalPeriodId",
      "outputs": [
        {
          "internalType": "uint128",
          "name": "",
          "type": "uint128"
        }
      ],
      "stateMutability": "view",
      "type": "function",
      "constant": true
    },
    {
      "inputs": [],
      "name": "getAllowedTokensLength",
      "outputs": [
        {
          "internalType": "uint256",
          "name": "",
          "type": "uint256"
        }
      ],
      "stateMutability": "view",
      "type": "function",
      "constant": true
    },
    {
      "inputs": [
        {
          "internalType": "address",
          "name": "_staker",
          "type": "address"
        },
        {
          "internalType": "uint256",
          "name": "_allowedTokenIndex",
          "type": "uint256"
        }
      ],
      "name": "getTokenStake",
      "outputs": [
        {
          "internalType": "address",
          "name": "tokenAddress",
          "type": "address"
        },
        {
          "internalType": "uint256",
          "name": "stake",
          "type": "uint256"
        }
      ],
      "stateMutability": "view",
      "type": "function",
      "constant": true
    },
    {
      "inputs": [],
      "name": "initialPeriodId",
      "outputs": [
        {
          "internalType": "uint128",
          "name": "",
          "type": "uint128"
        }
      ],
      "stateMutability": "view",
      "type": "function",
      "constant": true
    },
    {
      "inputs": [],
      "name": "ipfsHash",
      "outputs": [
        {
          "internalType": "string",
          "name": "",
          "type": "string"
        }
      ],
      "stateMutability": "view",
      "type": "function",
      "constant": true
    },
    {
      "inputs": [
        {
          "internalType": "address",
          "name": "_tokenAddress",
          "type": "address"
        }
      ],
      "name": "isAllowedToken",
      "outputs": [
        {
          "internalType": "bool",
          "name": "",
          "type": "bool"
        }
      ],
      "stateMutability": "view",
      "type": "function",
      "constant": true
    },
    {
      "inputs": [],
      "name": "messengerAddress",
      "outputs": [
        {
          "internalType": "address",
          "name": "",
          "type": "address"
        }
      ],
      "stateMutability": "view",
      "type": "function",
      "constant": true
    },
    {
      "inputs": [],
      "name": "nextVerifiablePeriod",
      "outputs": [
        {
          "internalType": "uint256",
          "name": "",
          "type": "uint256"
        }
      ],
      "stateMutability": "view",
      "type": "function",
      "constant": true
    },
    {
      "inputs": [],
      "name": "owner",
      "outputs": [
        {
          "internalType": "address",
          "name": "",
          "type": "address"
        }
      ],
      "stateMutability": "view",
      "type": "function",
      "constant": true
    },
    {
      "inputs": [
        {
          "internalType": "uint256",
          "name": "",
          "type": "uint256"
        }
      ],
      "name": "periodSLIs",
      "outputs": [
        {
          "internalType": "uint256",
          "name": "timestamp",
          "type": "uint256"
        },
        {
          "internalType": "uint256",
          "name": "sli",
          "type": "uint256"
        },
        {
          "internalType": "enum SLA.Status",
          "name": "status",
          "type": "uint8"
        }
      ],
      "stateMutability": "view",
      "type": "function",
      "constant": true
    },
    {
      "inputs": [],
      "name": "periodType",
      "outputs": [
        {
          "internalType": "enum PeriodRegistry.PeriodType",
          "name": "",
          "type": "uint8"
        }
      ],
      "stateMutability": "view",
      "type": "function",
      "constant": true
    },
    {
      "inputs": [
        {
          "internalType": "address",
          "name": "",
          "type": "address"
        }
      ],
      "name": "providerPool",
      "outputs": [
        {
          "internalType": "uint256",
          "name": "",
          "type": "uint256"
        }
      ],
      "stateMutability": "view",
      "type": "function",
      "constant": true
    },
    {
      "inputs": [
        {
          "internalType": "address",
          "name": "",
          "type": "address"
        }
      ],
      "name": "registeredStakers",
      "outputs": [
        {
          "internalType": "bool",
          "name": "",
          "type": "bool"
        }
      ],
      "stateMutability": "view",
      "type": "function",
      "constant": true
    },
    {
      "inputs": [
        {
          "internalType": "address[]",
          "name": "_userAddresses",
          "type": "address[]"
        }
      ],
      "name": "removeMultipleUsersFromWhitelist",
      "outputs": [],
      "stateMutability": "nonpayable",
      "type": "function"
    },
    {
      "inputs": [
        {
          "internalType": "address",
          "name": "_userAddress",
          "type": "address"
        }
      ],
      "name": "removeUserFromWhitelist",
      "outputs": [],
      "stateMutability": "nonpayable",
      "type": "function"
    },
    {
      "inputs": [],
      "name": "renounceOwnership",
      "outputs": [],
      "stateMutability": "nonpayable",
      "type": "function"
    },
    {
      "inputs": [],
      "name": "slaID",
      "outputs": [
        {
          "internalType": "uint128",
          "name": "",
          "type": "uint128"
        }
      ],
      "stateMutability": "view",
      "type": "function",
      "constant": true
    },
    {
      "inputs": [],
      "name": "slaRegistry",
      "outputs": [
        {
          "internalType": "contract SLARegistry",
          "name": "",
          "type": "address"
        }
      ],
      "stateMutability": "view",
      "type": "function",
      "constant": true
    },
    {
      "inputs": [
        {
          "internalType": "uint256",
          "name": "",
          "type": "uint256"
        }
      ],
      "name": "stakers",
      "outputs": [
        {
          "internalType": "address",
          "name": "",
          "type": "address"
        }
      ],
      "stateMutability": "view",
      "type": "function",
      "constant": true
    },
    {
      "inputs": [
        {
          "internalType": "address",
          "name": "newOwner",
          "type": "address"
        }
      ],
      "name": "transferOwnership",
      "outputs": [],
      "stateMutability": "nonpayable",
      "type": "function"
    },
    {
      "inputs": [
        {
          "internalType": "address",
          "name": "",
          "type": "address"
        }
      ],
      "name": "usersPool",
      "outputs": [
        {
          "internalType": "uint256",
          "name": "",
          "type": "uint256"
        }
      ],
      "stateMutability": "view",
      "type": "function",
      "constant": true
    },
    {
      "inputs": [
        {
          "internalType": "address",
          "name": "",
          "type": "address"
        }
      ],
      "name": "whitelist",
      "outputs": [
        {
          "internalType": "bool",
          "name": "",
          "type": "bool"
        }
      ],
      "stateMutability": "view",
      "type": "function",
      "constant": true
    },
    {
      "inputs": [],
      "name": "whitelistedContract",
      "outputs": [
        {
          "internalType": "bool",
          "name": "",
          "type": "bool"
        }
      ],
      "stateMutability": "view",
      "type": "function",
      "constant": true
    },
    {
      "inputs": [
        {
          "internalType": "uint256",
          "name": "_sli",
          "type": "uint256"
        },
        {
          "internalType": "uint256",
          "name": "_periodId",
          "type": "uint256"
        }
      ],
      "name": "registerSLI",
      "outputs": [],
      "stateMutability": "nonpayable",
      "type": "function"
    },
    {
      "inputs": [
        {
          "internalType": "uint256",
          "name": "_periodId",
          "type": "uint256"
        }
      ],
      "name": "isAllowedPeriod",
      "outputs": [
        {
          "internalType": "bool",
          "name": "",
          "type": "bool"
        }
      ],
      "stateMutability": "view",
      "type": "function",
      "constant": true
    },
    {
      "inputs": [],
      "name": "contractFinished",
      "outputs": [
        {
          "internalType": "bool",
          "name": "",
          "type": "bool"
        }
      ],
      "stateMutability": "view",
      "type": "function",
      "constant": true
    },
    {
      "inputs": [
        {
          "internalType": "uint256",
          "name": "_amount",
          "type": "uint256"
        },
        {
          "internalType": "address",
          "name": "_token",
          "type": "address"
        }
      ],
      "name": "stakeTokens",
      "outputs": [],
      "stateMutability": "nonpayable",
      "type": "function"
    },
    {
      "inputs": [
        {
          "internalType": "uint256",
          "name": "_amount",
          "type": "uint256"
        },
        {
          "internalType": "address",
          "name": "_tokenAddress",
          "type": "address"
        }
      ],
      "name": "withdrawProviderTokens",
      "outputs": [],
      "stateMutability": "nonpayable",
      "type": "function"
    },
    {
      "inputs": [
        {
          "internalType": "uint256",
          "name": "_amount",
          "type": "uint256"
        },
        {
          "internalType": "address",
          "name": "_tokenAddress",
          "type": "address"
        }
      ],
      "name": "withdrawUserTokens",
      "outputs": [],
      "stateMutability": "nonpayable",
      "type": "function"
    },
    {
      "inputs": [],
      "name": "getStakersLength",
      "outputs": [
        {
          "internalType": "uint256",
          "name": "",
          "type": "uint256"
        }
      ],
      "stateMutability": "view",
      "type": "function",
      "constant": true
    },
    {
      "inputs": [],
      "name": "breachedContract",
      "outputs": [
        {
          "internalType": "bool",
          "name": "",
          "type": "bool"
        }
      ],
      "stateMutability": "view",
      "type": "function",
      "constant": true
    }
  ],
  "bytecode": "0x60806040526014805460ff60a01b191690553480156200001e57600080fd5b5060405162003b8a38038062003b8a8339810160408190526200004191620008b6565b3387898560006200005a6001600160e01b03620004e916565b600080546001600160a01b0319166001600160a01b03831690811782556040519293509160008051602062003b6a833981519152908290a350836001600160a01b031663683048356040518163ffffffff1660e01b815260040160206040518083038186803b158015620000cd57600080fd5b505afa158015620000e2573d6000803e3d6000fd5b505050506040513d601f19601f8201168201806040525081019062000108919062000890565b600160006101000a8154816001600160a01b0302191690836001600160a01b03160217905550836001600160a01b0316639fc4caa56040518163ffffffff1660e01b815260040160206040518083038186803b1580156200016857600080fd5b505afa1580156200017d573d6000803e3d6000fd5b505050506040513d601f19601f82011682018060405250810190620001a3919062000890565b600280546001600160a01b0319166001600160a01b0392909216919091179055600d805484919060ff19166001836005811115620001dd57fe5b0217905550600d805461ff0019166101008415150217905560015460408051637b8041cf60e11b815290516000926001600160a01b03169163f700839e9160048083019260e0929190829003018186803b1580156200023b57600080fd5b505afa15801562000250573d6000803e3d6000fd5b505050506040513d601f19601f82011682018060405250810190620002769190620009bd565b5050505050509050600160009054906101000a90046001600160a01b03166001600160a01b0316638b8e53096040518163ffffffff1660e01b815260040160206040518083038186803b158015620002cd57600080fd5b505afa158015620002e2573d6000803e3d6000fd5b505050506040513d601f19601f8201168201806040525081019062000308919062000890565b600a80546001600160a01b0319166001600160a01b0392909216919091179055600c8190556200033833620004ee565b50600380546001600160801b0319166001600160801b0392909216919091179055506200036991508b90506200059a565b81516200037e90600f90602085019062000650565b50601480546001600160a01b038089166001600160a01b0319928316179092556013805490911633179081905560408051639fc4caa560e01b815290519190921691639fc4caa5916004808301926020929190829003018186803b158015620003e657600080fd5b505afa158015620003fb573d6000803e3d6000fd5b505050506040513d601f19601f8201168201806040525081019062000421919062000890565b601080546001600160a01b039290921661010002610100600160a81b03199092169190911780825543601655601280546001600160801b03888116600160801b02818b166001600160801b0319909316929092171617905588919060ff191660018360058111156200048f57fe5b02179055508051620004a9906017906020840190620006d5565b5050506001600160801b039092166018555050601180546001600160a01b039095166001600160a01b0319909516949094179093555062000b0392505050565b335b90565b620005016001600160e01b03620004e916565b6000546001600160a01b039081169116146200053a5760405162461bcd60e51b8152600401620005319062000a8e565b60405180910390fd5b6001600160a01b0381166000908152600e602052604090205460ff1615620005765760405162461bcd60e51b8152600401620005319062000a11565b6001600160a01b03166000908152600e60205260409020805460ff19166001179055565b620005ad6001600160e01b03620004e916565b6000546001600160a01b03908116911614620005dd5760405162461bcd60e51b8152600401620005319062000a8e565b6001600160a01b038116620006065760405162461bcd60e51b8152600401620005319062000a48565b600080546040516001600160a01b038085169392169160008051602062003b6a83398151915291a3600080546001600160a01b0319166001600160a01b0392909216919091179055565b828054600181600116156101000203166002900490600052602060002090601f016020900481019282601f106200069357805160ff1916838001178555620006c3565b82800160010185558215620006c3579182015b82811115620006c3578251825591602001919060010190620006a6565b50620006d192915062000712565b5090565b828054828255906000526020600020908101928215620006c35791602002820182811115620006c3578251825591602001919060010190620006a6565b620004eb91905b80821115620006d1576000815560010162000719565b80516200073c8162000aea565b92915050565b600082601f83011262000753578081fd5b81516001600160401b0381111562000769578182fd5b60208082026200077b82820162000ac3565b838152935081840185830182870184018810156200079857600080fd5b600092505b84831015620007bd5780518252600192909201919083019083016200079d565b505050505092915050565b805180151581146200073c57600080fd5b8051600681106200073c57600080fd5b600082601f830112620007fa578081fd5b81516001600160401b0381111562000810578182fd5b602062000826601f8301601f1916820162000ac3565b925081835284818386010111156200083d57600080fd5b60005b828110156200085d57848101820151848201830152810162000840565b828111156200086f5760008284860101525b50505092915050565b80516001600160801b03811681146200073c57600080fd5b600060208284031215620008a2578081fd5b8151620008af8162000aea565b9392505050565b6000806000806000806000806000806101408b8d031215620008d6578586fd5b620008e28c8c6200072f565b9950620008f38c60208d016200072f565b9850620009048c60408d01620007c8565b9750620009158c60608d01620007d9565b9650620009268c60808d016200072f565b9550620009378c60a08d0162000878565b9450620009488c60c08d0162000878565b9350620009598c60e08d0162000878565b6101008c01519093506001600160401b038082111562000977578384fd5b620009858e838f01620007e9565b93506101208d01519150808211156200099c578283fd5b50620009ab8d828e0162000742565b9150509295989b9194979a5092959850565b600080600080600080600060e0888a031215620009d8578283fd5b5050855160208701516040880151606089015160808a015160a08b015160c0909b0151949c939b50919990985090965094509092509050565b60208082526018908201527f5573657220616c72656164792077686974656c69737465640000000000000000604082015260600190565b60208082526026908201527f4f776e61626c653a206e6577206f776e657220697320746865207a65726f206160408201526564647265737360d01b606082015260800190565b6020808252818101527f4f776e61626c653a2063616c6c6572206973206e6f7420746865206f776e6572604082015260600190565b6040518181016001600160401b038111828210171562000ae257600080fd5b604052919050565b6001600160a01b038116811462000b0057600080fd5b50565b6130578062000b136000396000f3fe608060405234801561001057600080fd5b50600436106102535760003560e01c806378025ec411610146578063c26ff615116100c3578063db69a46211610087578063db69a462146104c2578063f2db10fe146104ca578063f2fde38b146104d2578063f7e9dfff146104e5578063f9902bb1146104ed578063fd5e6dd11461050057610253565b8063c26ff61514610461578063c623674f14610474578063c8b5c24814610489578063cbe230c31461049c578063d7a5c422146104af57610253565b80639fabeb001161010a5780639fabeb001461042e578063a224ee9c14610436578063a7e8d8d41461043e578063b1659bad14610451578063b7bc347e1461045957610253565b806378025ec4146103f05780637fd788aa146104035780638da5cb5b1461040b57806396f76f11146104135780639b19251a1461041b57610253565b8063484fbf2b116101d45780635e5f2e26116101985780635e5f2e261461039c578063639b6fc3146103af578063715018a6146103c2578063740882ac146103ca578063747b8050146103dd57610253565b8063484fbf2b1461032d5780634e0c91f6146103405780634fb2647e1461036057806357ac94f0146103735780635c1c20de1461039457610253565b80632526743a1161021b5780632526743a146102c657806326db18ac146102db5780633385d334146102ee5780634190edde146102f657806346e0fbae1461031857610253565b8063021eef7f146102585780630bea440d14610281578063171e44ea1461029657806318e45427146102a95780631bf30929146102b1575b600080fd5b61026b6102663660046127a5565b610513565b6040516102789190612a13565b60405180910390f35b61029461028f3660046127d5565b61055c565b005b6102946102a4366004612682565b6106c0565b61026b610ab0565b6102b9610abe565b6040516102789190612a1e565b6102ce610ac4565b6040516102789190612f24565b6102946102e93660046127d5565b610ad3565b6102ce610b4e565b6103096103043660046127a5565b610b64565b60405161027893929190612f5d565b610320610b88565b6040516102789190612a27565b6102b961033b366004612682565b610b91565b61035361034e366004612682565b610ba3565b60405161027891906129c2565b61035361036e366004612682565b610bbe565b6103866103813660046126ba565b610bd9565b6040516102789291906129d6565b6102b9610db4565b6103536103aa3660046127a5565b610dba565b6102b96103bd366004612682565b610de1565b610294610df3565b6102946103d83660046126e5565b610e72565b6102946103eb366004612682565b610f4c565b6102b96103fe3660046127a5565b610fde565b61026b610ffc565b61035361100c565b61026b61101b565b61026b610429366004612682565b611127565b6102b961113c565b610353611142565b61026b61044c366004612682565b611151565b6102b9611166565b6102b961116c565b61029461046f3660046126e5565b611172565b61047c61124e565b6040516102789190612a61565b6102946104973660046127d5565b6112dc565b61026b6104aa366004612682565b61131a565b6102946104bd36600461282b565b611375565b61035361163b565b6102ce61164a565b6102946104e0366004612682565b611659565b61035361170f565b6102946104fb366004612682565b61171e565b61035361050e3660046127a5565b6117b1565b6012546000906001600160801b031682101561053157506000610557565b601254600160801b90046001600160801b031682111561055357506000610557565b5060015b919050565b81600081116105865760405162461bcd60e51b815260040161057d90612e37565b60405180910390fd5b600061059061101b565b905080156105b05760405162461bcd60e51b815260040161057d90612cb0565b6105ba84846117be565b60135460408051636830483560e01b815290516000926001600160a01b0316916368304835916004808301926020929190829003018186803b1580156105ff57600080fd5b505afa158015610613573d6000803e3d6000fd5b505050506040513d601f19601f82011682018060405250810190610637919061269e565b604051635948284760e11b81529091506001600160a01b0382169063b290508e906106669033906004016129c2565b602060405180830381600087803b15801561068057600080fd5b505af1158015610694573d6000803e3d6000fd5b505050506040513d601f19601f820116820180604052508101906106b89190612785565b505050505050565b6106c8611cdd565b6000546001600160a01b039081169116146106f55760405162461bcd60e51b815260040161057d90612d67565b60015460408051637b8041cf60e11b815290516000926001600160a01b03169163f700839e9160048083019260e0929190829003018186803b15801561073a57600080fd5b505afa15801561074e573d6000803e3d6000fd5b505050506040513d601f19601f82011682018060405250810190610772919061286f565b96505050505050506107838261131a565b156107a05760405162461bcd60e51b815260040161057d90612dd3565b60015460405163cbe230c360e01b81526001600160a01b039091169063cbe230c3906107d09085906004016129c2565b60206040518083038186803b1580156107e857600080fd5b505afa1580156107fc573d6000803e3d6000fd5b505050506040513d601f19601f820116820180604052508101906108209190612785565b61083c5760405162461bcd60e51b815260040161057d90612ba4565b600b805460018101825560008290527f0175b7a638427703f0dbe7bb9bbf987a2551717b34e79f33b5b1008d1fa01db90180546001600160a01b0319166001600160a01b038516179055548110156108a65760405162461bcd60e51b815260040161057d90612aa2565b6003546060906108be906001600160801b0316611ce1565b90506060816040516020016108d3919061290a565b60405160208183030381529060405290506060826040516020016108f7919061293d565b604051602081830303815290604052905060608360405160200161091b919061296d565b604051602081830303815290604052905060608460405160200161093f919061299f565b60408051601f1981840301815290829052600154633350214760e11b83529092506000916001600160a01b03909116906366a0428e906109859088908890600401612a74565b602060405180830381600087803b15801561099f57600080fd5b505af11580156109b3573d6000803e3d6000fd5b505050506040513d601f19601f820116820180604052508101906109d7919061269e565b600154604051633350214760e11b81529192506000916001600160a01b03909116906366a0428e90610a0f9087908790600401612a74565b602060405180830381600087803b158015610a2957600080fd5b505af1158015610a3d573d6000803e3d6000fd5b505050506040513d601f19601f82011682018060405250810190610a61919061269e565b6001600160a01b03998a1660009081526007602090815260408083208054948e166001600160a01b031995861617905560069091529020805493909a1692169190911790975550505050505050565b600d54610100900460ff1681565b60165481565b6012546001600160801b031681565b8160008111610af45760405162461bcd60e51b815260040161057d90612e37565b610afc61100c565b6001600160a01b0316336001600160a01b031614610b3f576000610b1e61101b565b905080610b3d5760405162461bcd60e51b815260040161057d90612d9c565b505b610b498383611dbc565b505050565b601254600160801b90046001600160801b031681565b60156020526000908152604090208054600182015460029092015490919060ff1683565b60105460ff1681565b60056020526000908152604090205481565b6006602052600090815260409020546001600160a01b031681565b6007602052600090815260409020546001600160a01b031681565b6000806000600b8481548110610beb57fe5b6000918252602090912001546001600160a01b03169050610c0a61100c565b6001600160a01b0316856001600160a01b03161415610c46576001600160a01b0381166000908152600460205260409020549092509050610dad565b6001600160a01b0380821660009081526006602090815260408083205481516318160ddd60e01b8152915194169384926318160ddd9260048082019391829003018186803b158015610c9757600080fd5b505afa158015610cab573d6000803e3d6000fd5b505050506040513d601f19601f82011682018060405250810190610ccf91906127bd565b905080610ce5575090925060009150610dad9050565b6040516370a0823160e01b81526000906001600160a01b038416906370a0823190610d14908b906004016129c2565b60206040518083038186803b158015610d2c57600080fd5b505afa158015610d40573d6000803e3d6000fd5b505050506040513d601f19601f82011682018060405250810190610d6491906127bd565b6001600160a01b0385166000908152600560205260409020549091508490610da4908490610d98908563ffffffff611f6216565b9063ffffffff611fa516565b95509550505050505b9250929050565b600c5481565b600b8181548110610dc757fe5b6000918252602090912001546001600160a01b0316905081565b60046020526000908152604090205481565b610dfb611cdd565b6000546001600160a01b03908116911614610e285760405162461bcd60e51b815260040161057d90612d67565b600080546040516001600160a01b03909116907f8be0079c531659141344cd1fd0a4f28419497f9722a3daafe3b4186f6b6457e0908390a3600080546001600160a01b0319169055565b610e7a611cdd565b6000546001600160a01b03908116911614610ea75760405162461bcd60e51b815260040161057d90612d67565b60005b8151811015610f4857600e6000838381518110610ec357fe5b6020908102919091018101516001600160a01b031682528101919091526040016000205460ff16610f40576001600e6000848481518110610f0057fe5b60200260200101516001600160a01b03166001600160a01b0316815260200190815260200160002060006101000a81548160ff0219169083151502179055505b600101610eaa565b5050565b610f54611cdd565b6000546001600160a01b03908116911614610f815760405162461bcd60e51b815260040161057d90612d67565b6001600160a01b0381166000908152600e602052604090205460ff1615610fba5760405162461bcd60e51b815260040161057d90612af5565b6001600160a01b03166000908152600e60205260409020805460ff19166001179055565b60178181548110610feb57fe5b600091825260209091200154905081565b601454600160a01b900460ff1690565b6000546001600160a01b031690565b60105460125460405160016259edcb60e01b03198152600092839261010082046001600160a01b03169263ffa612359261106f9260ff90911691600160801b9091046001600160801b031690600401612a3b565b604080518083038186803b15801561108657600080fd5b505afa15801561109a573d6000803e3d6000fd5b505050506040513d601f19601f820116820180604052508101906110be919061284c565b9150506014809054906101000a900460ff161515600115151480611121575080421015801561112157506000601254600160801b90046001600160801b0316600090815260156020526040902060029081015460ff169081111561111e57fe5b14155b91505090565b600e6020526000908152604090205460ff1681565b60085490565b6014546001600160a01b031681565b60096020526000908152604090205460ff1681565b60185481565b600b5490565b61117a611cdd565b6000546001600160a01b039081169116146111a75760405162461bcd60e51b815260040161057d90612d67565b60005b8151811015610f4857600e60008383815181106111c357fe5b6020908102919091018101516001600160a01b031682528101919091526040016000205460ff16151560011415611246576000600e600084848151811061120657fe5b60200260200101516001600160a01b03166001600160a01b0316815260200190815260200160002060006101000a81548160ff0219169083151502179055505b6001016111aa565b600f805460408051602060026001851615610100026000190190941693909304601f810184900484028201840190925281815292918301828280156112d45780601f106112a9576101008083540402835291602001916112d4565b820191906000526020600020905b8154815290600101906020018083116112b757829003601f168201915b505050505081565b81600081116112fd5760405162461bcd60e51b815260040161057d90612e37565b600061130761101b565b9050611314848483611fe7565b50505050565b6000805b600b5481101561136c57826001600160a01b0316600b828154811061133f57fe5b6000918252602090912001546001600160a01b03161415611364576001915050610557565b60010161131e565b50600092915050565b6014546001600160a01b0316331461139f5760405162461bcd60e51b815260040161057d90612bf1565b7fc95987c1992805ee34bdc915e017cceae36ba1c156b9911fa7e691e6435eb46e4283836040516113d293929190612f83565b60405180910390a16001808201601855600082815260156020526040808220928301859055428355601154905163a7b72ac560e01b81526001600160a01b039091169063a7b72ac5906114299030906004016129c2565b604080518083038186803b15801561144057600080fd5b505afa158015611454573d6000803e3d6000fd5b505050506040513d601f19601f820116820180604052508101906114789190612804565b50601154604051631993b9df60e01b81529192506001600160a01b031690631993b9df906114ac9087903090600401612f38565b60206040518083038186803b1580156114c457600080fd5b505afa1580156114d8573d6000803e3d6000fd5b505050506040513d601f19601f820116820180604052508101906114fc9190612785565b156115d0576002828101805460ff191660011790556127109060009061154a9061152a90610d9889876121e9565b610d988461153e8a8863ffffffff61220e16565b9063ffffffff611f6216565b601254909150600090611580906001906115749089906001600160801b031663ffffffff61220e16565b9063ffffffff6121e916565b6012549091506000906115ba906001600160801b03808216600160801b90920481169190910360010116610d98858563ffffffff611f6216565b90506115c7878286612250565b50505050611314565b6002828101805460ff191690911790556115e861236f565b6014805460ff60a01b1916600160a01b1790556040517fbd33f7a3bfa88a467c9df5ae7d2341cf061084c386b20a0d48130f5cbce38a4d9061162d9085908790612f4f565b60405180910390a150505050565b6013546001600160a01b031681565b6003546001600160801b031681565b611661611cdd565b6000546001600160a01b0390811691161461168e5760405162461bcd60e51b815260040161057d90612d67565b6001600160a01b0381166116b45760405162461bcd60e51b815260040161057d90612b27565b600080546040516001600160a01b03808516939216917f8be0079c531659141344cd1fd0a4f28419497f9722a3daafe3b4186f6b6457e091a3600080546001600160a01b0319166001600160a01b0392909216919091179055565b600a546001600160a01b031681565b611726611cdd565b6000546001600160a01b039081169116146117535760405162461bcd60e51b815260040161057d90612d67565b6001600160a01b0381166000908152600e602052604090205460ff1615156001146117905760405162461bcd60e51b815260040161057d90612e63565b6001600160a01b03166000908152600e60205260409020805460ff19169055565b60088181548110610dc757fe5b806117c88161131a565b15156001146117e95760405162461bcd60e51b815260040161057d90612d39565b600d5460ff6101009091041615156001141561183357336000908152600e602052604090205460ff1615156001146118335760405162461bcd60e51b815260040161057d90612c36565b61184e6001600160a01b03831633308663ffffffff61242d16565b61185661100c565b6001600160a01b0316336001600160a01b031614611a97576001600160a01b038216600090815260046020908152604080832054600590925290912054816118a4828763ffffffff6121e916565b11156118c25760405162461bcd60e51b815260040161057d90612e91565b6001600160a01b0380851660009081526006602090815260408083205481516318160ddd60e01b8152915194169384926318160ddd9260048082019391829003018186803b15801561191357600080fd5b505afa158015611927573d6000803e3d6000fd5b505050506040513d601f19601f8201168201806040525081019061194b91906127bd565b9050806119b7576040516340c10f1960e01b81526001600160a01b038316906340c10f19906119809033908b906004016129d6565b600060405180830381600087803b15801561199a57600080fd5b505af11580156119ae573d6000803e3d6000fd5b50505050611a4b565b6001600160a01b038616600090815260056020526040812054906119e582610d988b8663ffffffff611f6216565b6040516340c10f1960e01b81529091506001600160a01b038516906340c10f1990611a1690339085906004016129d6565b600060405180830381600087803b158015611a3057600080fd5b505af1158015611a44573d6000803e3d6000fd5b5050505050505b6001600160a01b038616600090815260056020526040902054611a74908863ffffffff6121e916565b6001600160a01b03871660009081526005602052604090205550611c6592505050565b6001600160a01b0380831660009081526007602090815260408083205481516318160ddd60e01b8152915194169384926318160ddd9260048082019391829003018186803b158015611ae857600080fd5b505afa158015611afc573d6000803e3d6000fd5b505050506040513d601f19601f82011682018060405250810190611b2091906127bd565b905080611b8c576040516340c10f1960e01b81526001600160a01b038316906340c10f1990611b5590339089906004016129d6565b600060405180830381600087803b158015611b6f57600080fd5b505af1158015611b83573d6000803e3d6000fd5b50505050611c20565b6001600160a01b03841660009081526004602052604081205490611bba82610d98898663ffffffff611f6216565b6040516340c10f1960e01b81529091506001600160a01b038516906340c10f1990611beb90339085906004016129d6565b600060405180830381600087803b158015611c0557600080fd5b505af1158015611c19573d6000803e3d6000fd5b5050505050505b6001600160a01b038416600090815260046020526040902054611c49908663ffffffff6121e916565b6001600160a01b03851660009081526004602052604090205550505b3360009081526009602052604090205460ff16610b4957336000818152600960205260408120805460ff191660019081179091556008805491820181559091527ff3f7a9fe364faab93b216da50a3214154f22a0a2b415b23a84c8169e8b636ee30180546001600160a01b0319169091179055505050565b3390565b60608180611d085750506040805180820190915260018152600360fc1b6020820152610557565b8060005b8115611d2057600101600a82049150611d0c565b60608167ffffffffffffffff81118015611d3957600080fd5b506040519080825280601f01601f191660200182016040528015611d64576020820181803683370190505b50905060001982015b8415611db257600a850660300160f81b82828060019003935081518110611d9057fe5b60200101906001600160f81b031916908160001a905350600a85049450611d6d565b5095945050505050565b80611dc68161131a565b1515600114611de75760405162461bcd60e51b815260040161057d90612d39565b6001600160a01b0380831660009081526006602090815260408083205481516318160ddd60e01b8152915194169384926318160ddd9260048082019391829003018186803b158015611e3857600080fd5b505afa158015611e4c573d6000803e3d6000fd5b505050506040513d601f19601f82011682018060405250810190611e7091906127bd565b6001600160a01b038516600090815260056020526040812054919250611ea082610d98898663ffffffff611f6216565b60405163079cc67960e41b81529091506001600160a01b038516906379cc679090611ed190339085906004016129d6565b600060405180830381600087803b158015611eeb57600080fd5b505af1158015611eff573d6000803e3d6000fd5b5050506001600160a01b038716600090815260056020526040902054611f2c91508863ffffffff61220e16565b6001600160a01b038716600081815260056020526040902091909155611f5990338963ffffffff61248516565b50505050505050565b600082611f7157506000611f9f565b82820282848281611f7e57fe5b0414611f9c5760405162461bcd60e51b815260040161057d90612cf8565b90505b92915050565b6000611f9c83836040518060400160405280601a81526020017f536166654d6174683a206469766973696f6e206279207a65726f0000000000008152506124a4565b81611ff18161131a565b15156001146120125760405162461bcd60e51b815260040161057d90612d39565b6001600160a01b0383166000908152600460209081526040808320546005909252909120548361206b578061204d838863ffffffff61220e16565b101561206b5760405162461bcd60e51b815260040161057d90612c67565b6001600160a01b0380861660009081526007602090815260408083205481516318160ddd60e01b8152915194169384926318160ddd9260048082019391829003018186803b1580156120bc57600080fd5b505afa1580156120d0573d6000803e3d6000fd5b505050506040513d601f19601f820116820180604052508101906120f491906127bd565b6001600160a01b03881660009081526004602052604081205491925061212482610d988c8663ffffffff611f6216565b60405163079cc67960e41b81529091506001600160a01b038516906379cc67909061215590339085906004016129d6565b600060405180830381600087803b15801561216f57600080fd5b505af1158015612183573d6000803e3d6000fd5b5050506001600160a01b038a166000908152600460205260409020546121b091508b63ffffffff61220e16565b6001600160a01b038a166000818152600460205260409020919091556121dd90338c63ffffffff61248516565b50505050505050505050565b600082820183811015611f9c5760405162461bcd60e51b815260040161057d90612b6d565b6000611f9c83836040518060400160405280601e81526020017f536166654d6174683a207375627472616374696f6e206f766572666c6f7700008152506124db565b60005b600b54811015611314576000600b828154811061226c57fe5b60009182526020808320909101546001600160a01b031680835260059091526040822054909250906122a885610d98848963ffffffff611f6216565b6001600160a01b0384166000908152600560205260409020549091506122d4908263ffffffff61220e16565b6001600160a01b038416600090815260056020908152604080832093909355600490522054612309908263ffffffff6121e916565b6001600160a01b0384166000818152600460205260409081902092909255905188907f3173c1c4b679e2da86dbb0382bde749a6e16cd31912c5410e17985cd7d2b90529061235c908a908a908790612f83565b60405180910390a3505050600101612253565b60005b600b5481101561242a576000600b828154811061238b57fe5b60009182526020808320909101546001600160a01b0316808352600582526040808420546004909352909220549192509081906123ce908263ffffffff61220e16565b6001600160a01b038416600090815260046020908152604080832093909355600590522054612403908263ffffffff6121e916565b6001600160a01b039093166000908152600560205260409020929092555050600101612372565b50565b611314846323b872dd60e01b85858560405160240161244e939291906129ef565b60408051601f198184030181529190526020810180516001600160e01b03166001600160e01b031990931692909217909152612507565b610b498363a9059cbb60e01b848460405160240161244e9291906129d6565b600081836124c55760405162461bcd60e51b815260040161057d9190612a61565b5060008385816124d157fe5b0495945050505050565b600081848411156124ff5760405162461bcd60e51b815260040161057d9190612a61565b505050900390565b606061255c826040518060400160405280602081526020017f5361666545524332303a206c6f772d6c6576656c2063616c6c206661696c6564815250856001600160a01b03166125969092919063ffffffff16565b805190915015610b49578080602001905181019061257a9190612785565b610b495760405162461bcd60e51b815260040161057d90612eda565b60606125a584846000856125ad565b949350505050565b60606125b885612671565b6125d45760405162461bcd60e51b815260040161057d90612e00565b60006060866001600160a01b031685876040516125f191906128ee565b60006040518083038185875af1925050503d806000811461262e576040519150601f19603f3d011682016040523d82523d6000602084013e612633565b606091505b509150915081156126475791506125a59050565b8051156126575780518082602001fd5b8360405162461bcd60e51b815260040161057d9190612a61565b3b151590565b8035611f9f8161300c565b600060208284031215612693578081fd5b8135611f9c8161300c565b6000602082840312156126af578081fd5b8151611f9c8161300c565b600080604083850312156126cc578081fd5b82356126d78161300c565b946020939093013593505050565b600060208083850312156126f7578182fd5b823567ffffffffffffffff81111561270d578283fd5b80840185601f82011261271e578384fd5b8035915061273361272e83612fc0565b612f99565b828152838101908285018585028401860189101561274f578687fd5b8693505b84841015612779576127658982612677565b835260019390930192918501918501612753565b50979650505050505050565b600060208284031215612796578081fd5b81518015158114611f9c578182fd5b6000602082840312156127b6578081fd5b5035919050565b6000602082840312156127ce578081fd5b5051919050565b600080604083850312156127e7578182fd5b8235915060208301356127f98161300c565b809150509250929050565b60008060408385031215612816578182fd5b825191506020830151600681106127f9578182fd5b6000806040838503121561283d578182fd5b50508035926020909101359150565b6000806040838503121561285e578182fd5b505080516020909101519092909150565b600080600080600080600060e0888a031215612889578283fd5b5050855160208701516040880151606089015160808a015160a08b015160c0909b0151949c939b50919990985090965094509092509050565b600081518084526128da816020860160208601612fe0565b601f01601f19169290920160200192915050565b60008251612900818460208701612fe0565b9190910192915050565b60006a44534c412d53484f52542d60a81b8252825161293081600b850160208701612fe0565b91909101600b0192915050565b60006744534c412d53502d60c01b82528251612960816008850160208701612fe0565b9190910160080192915050565b60006944534c412d4c4f4e472d60b01b8252825161299281600a850160208701612fe0565b91909101600a0192915050565b60006744534c412d4c502d60c01b82528251612960816008850160208701612fe0565b6001600160a01b0391909116815260200190565b6001600160a01b03929092168252602082015260400190565b6001600160a01b039384168152919092166020820152604081019190915260600190565b901515815260200190565b90815260200190565b6020810160068310612a3557fe5b91905290565b6040810160068410612a4957fe5b9281526001600160801b039190911660209091015290565b600060208252611f9c60208301846128c2565b600060408252612a8760408301856128c2565b8281036020840152612a9981856128c2565b95945050505050565b60208082526033908201527f416c6c6f77656420746f6b656e73206c656e67746820677265617465722074686040820152720c2dc40dac2f040e8ded6cadc40d8cadccee8d606b1b606082015260800190565b602080825260189082015277155cd95c88185b1c9958591e481dda1a5d195b1a5cdd195960421b604082015260600190565b60208082526026908201527f4f776e61626c653a206e6577206f776e657220697320746865207a65726f206160408201526564647265737360d01b606082015260800190565b6020808252601b908201527f536166654d6174683a206164646974696f6e206f766572666c6f770000000000604082015260600190565b6020808252602d908201527f546f6b656e206e6f7420616c6c6f7765642062792074686520534c415265676960408201526c1cdd1c9e4818dbdb9d1c9858dd609a1b606082015260800190565b60208082526025908201527f4f6e6c79204d657373656e6765722063616e2063616c6c20746869732066756e60408201526431ba34b7b760d91b606082015260800190565b602080825260179082015276155cd95c881a5cc81b9bdd081dda1a5d195b1a5cdd1959604a1b604082015260600190565b60208082526029908201527f53686f756c64206e6f74207769746864726177206d6f7265207468616e207573604082015268657273207374616b6560b81b606082015260800190565b60208082526028908201527f43616e206f6e6c79207374616b65206f6e206e6f742066696e697368656420636040820152676f6e74726163747360c01b606082015260800190565b60208082526021908201527f536166654d6174683a206d756c7469706c69636174696f6e206f766572666c6f6040820152607760f81b606082015260800190565b6020808252601490820152731d1bdad95b881a5cc81b9bdd08185b1b1bddd95960621b604082015260600190565b6020808252818101527f4f776e61626c653a2063616c6c6572206973206e6f7420746865206f776e6572604082015260600190565b6020808252601a908201527f4f6e6c7920666f722066696e697368656420636f6e7472616374000000000000604082015260600190565b602080825260139082015272151bdad95b88185b1c9958591e481859191959606a1b604082015260600190565b6020808252601d908201527f416464726573733a2063616c6c20746f206e6f6e2d636f6e7472616374000000604082015260600190565b6020808252601290820152710616d6f756e742063616e6e6f7420626520360741b604082015260600190565b602080825260149082015273155cd95c881b9bdd081dda1a5d195b1a5cdd195960621b604082015260600190565b60208082526029908201527f43616e6e6f74207374616b65206d6f7265207468616e20534c412070726f7669604082015268646572207374616b6560b81b606082015260800190565b6020808252602a908201527f5361666545524332303a204552433230206f7065726174696f6e20646964206e6040820152691bdd081cdd58d8d9595960b21b606082015260800190565b6001600160801b0391909116815260200190565b9182526001600160a01b0316602082015260400190565b918252602082015260400190565b838152602081018390526060810160038310612f7557fe5b826040830152949350505050565b9283526020830191909152604082015260600190565b60405181810167ffffffffffffffff81118282101715612fb857600080fd5b604052919050565b600067ffffffffffffffff821115612fd6578081fd5b5060209081020190565b60005b83811015612ffb578181015183820152602001612fe3565b838111156113145750506000910152565b6001600160a01b038116811461242a57600080fdfea26469706673582212204ea46da38e84499df2109c060c1f71fc12afd7b99e46d52bf56723625ca59c8164736f6c634300060600338be0079c531659141344cd1fd0a4f28419497f9722a3daafe3b4186f6b6457e0",
  "immutableReferences": {},
  "source": "// SPDX-License-Identifier: MIT\npragma solidity 0.6.6;\npragma experimental ABIEncoderV2;\n\nimport \"@openzeppelin/contracts/access/Ownable.sol\";\nimport \"@openzeppelin/contracts/token/ERC20/IERC20.sol\";\nimport \"@openzeppelin/contracts/math/SafeMath.sol\";\nimport \"./SLARegistry.sol\";\nimport \"./SLORegistry.sol\";\nimport \"./StakeRegistry.sol\";\nimport \"./PeriodRegistry.sol\";\nimport \"./Staking.sol\";\n\n/**\n * @title SLA\n * @dev SLA is a service level agreement contract used for service downtime\n * compensation\n */\ncontract SLA is Staking {\n    using SafeMath for uint256;\n\n    enum Status {NotVerified, Respected, NotRespected}\n\n    /// @dev Struct used for storing period status\n    struct PeriodSLI {\n        uint256 timestamp;\n        uint256 sli;\n        Status status;\n    }\n\n    /// @dev The ipfs hash that stores extra information about the agreement\n    string public ipfsHash;\n\n    /// @dev uint8 of the period type\n    PeriodRegistry.PeriodType public periodType;\n\n    PeriodRegistry private periodRegistry;\n    SLORegistry private sloRegistry;\n\n    uint128 public initialPeriodId;\n    uint128 public finalPeriodId;\n\n    /// @dev The address of the slaRegistry contract\n    SLARegistry public slaRegistry;\n\n    /// @dev The address of the messenger\n    address public messengerAddress;\n\n    /// @dev states if the contract was breached or not\n    bool private _breachedContract = false;\n\n    /// @dev periodId=>PeriodSLI mapping\n    mapping(uint256 => PeriodSLI) public periodSLIs;\n\n    /// @dev block number of SLA deployment\n    uint256 public creationBlockNumber;\n\n    /// @dev extra data for customized workflows\n    bytes32[] public extraData;\n\n    /// @dev states if the contract was breached or not\n    uint256 public nextVerifiablePeriod;\n\n    /**\n     * @dev event for SLI creation logging\n     * @param timestamp 1. the time the SLI has been registered\n     * @param sli 2. the value of the SLI\n     * @param periodId 3. the id of the given period\n     */\n    event SLICreated(uint256 timestamp, uint256 sli, uint256 periodId);\n\n    /**\n     * @dev event for SLI creation logging\n     * @param _periodId 1. the id of the given period\n     * @param _sli 2. value of the SLI\n     */\n    event SLANotRespected(uint256 _periodId, uint256 _sli);\n\n    /**\n     * @dev throws if called by any address other than the messenger contract.\n     */\n    modifier onlyMessenger() {\n        require(\n            msg.sender == messengerAddress,\n            \"Only Messenger can call this function\"\n        );\n        _;\n    }\n\n    /**\n     * @dev throws if called by any address other than the messenger contract.\n     */\n    modifier onlySLARegistry() {\n        require(\n            msg.sender == address(slaRegistry),\n            \"Only SLARegistry can call this function\"\n        );\n        _;\n    }\n\n    /**\n     * @dev throws if called with an amount less or equal to zero.\n     */\n    modifier notZero(uint256 _amount) {\n        require(_amount > 0, \"amount cannot be 0\");\n        _;\n    }\n\n    /**\n     * @param _owner 1. -\n     * @param _sloRegistryAddress 2. -\n     * @param _ipfsHash 3. -\n     * @param _messengerAddress 3. -\n     * @param _initialPeriodId 4. -\n     * @param _finalPeriodId 4. -\n     * @param _periodType 5. -\n     * @param _whitelisted 8. -\n     * @param _extraData 9. -\n     * @param _slaID 10. -\n     */\n    constructor(\n        address _owner,\n        address _sloRegistryAddress,\n        bool _whitelisted,\n        PeriodRegistry.PeriodType _periodType,\n        address _messengerAddress,\n        uint128 _initialPeriodId,\n        uint128 _finalPeriodId,\n        uint128 _slaID,\n        string memory _ipfsHash,\n        bytes32[] memory _extraData\n    )\n        public\n        Staking(SLARegistry(msg.sender), _periodType, _whitelisted, _slaID)\n    {\n        transferOwnership(_owner);\n        ipfsHash = _ipfsHash;\n        messengerAddress = _messengerAddress;\n        slaRegistry = SLARegistry(msg.sender);\n        periodRegistry = slaRegistry.periodRegistry();\n        creationBlockNumber = block.number;\n        initialPeriodId = _initialPeriodId;\n        finalPeriodId = _finalPeriodId;\n        periodType = _periodType;\n        extraData = _extraData;\n        nextVerifiablePeriod = _initialPeriodId;\n        sloRegistry = SLORegistry(_sloRegistryAddress);\n    }\n\n    /**\n     * @dev external function to register SLI's and check them against the SLORegistry\n     * @param _sli 1. the value of the SLI to check\n     * @param _periodId 2. the id of the given period\n     */\n    function registerSLI(uint256 _sli, uint256 _periodId)\n        external\n        onlyMessenger\n    {\n        emit SLICreated(block.timestamp, _sli, _periodId);\n        nextVerifiablePeriod = _periodId + 1;\n        PeriodSLI storage periodSLI = periodSLIs[_periodId];\n        periodSLI.sli = _sli;\n        periodSLI.timestamp = block.timestamp;\n        (uint256 sloValue, ) = sloRegistry.registeredSLO(address(this));\n        if (sloRegistry.isRespected(_sli, address(this))) {\n            periodSLI.status = Status.Respected;\n            uint256 precision = 10000;\n            uint256 deviation =\n                _sli.sub(sloValue).mul(precision).div(\n                    _sli.add(sloValue).div(2)\n                );\n            uint256 normalizedPeriodId = _periodId.sub(initialPeriodId).add(1);\n            uint256 rewardPercentage =\n                deviation.mul(normalizedPeriodId).div(\n                    finalPeriodId - initialPeriodId + 1\n                );\n            _setRespectedPeriodReward(_periodId, rewardPercentage, precision);\n        } else {\n            periodSLI.status = Status.NotRespected;\n            _setUsersCompensation();\n            _breachedContract = true;\n            emit SLANotRespected(_periodId, _sli);\n        }\n    }\n\n    function isAllowedPeriod(uint256 _periodId) public view returns (bool) {\n        if (_periodId < initialPeriodId) return false;\n        if (_periodId > finalPeriodId) return false;\n        return true;\n    }\n\n    function contractFinished() public view returns (bool) {\n        (, uint256 endOfLastValidPeriod) =\n            periodRegistry.getPeriodStartAndEnd(periodType, finalPeriodId);\n        return\n            _breachedContract == true ||\n            (block.timestamp >= endOfLastValidPeriod &&\n                periodSLIs[finalPeriodId].status != Status.NotVerified);\n    }\n\n    /**\n     *@dev stake _amount tokens into the _token contract\n     *@param _amount 1. amount to be staked\n     *@param _token 2. address of the ERC to be staked\n     */\n\n    function stakeTokens(uint256 _amount, address _token)\n        public\n        notZero(_amount)\n    {\n        bool isContractFinished = contractFinished();\n        require(\n            !isContractFinished,\n            \"Can only stake on not finished contracts\"\n        );\n        _stake(_amount, _token);\n        StakeRegistry stakeRegistry = slaRegistry.stakeRegistry();\n        stakeRegistry.registerStakedSla(msg.sender);\n    }\n\n    function withdrawProviderTokens(uint256 _amount, address _tokenAddress)\n        public\n        notZero(_amount)\n    {\n        bool isContractFinished = contractFinished();\n        _withdrawProviderTokens(_amount, _tokenAddress, isContractFinished);\n    }\n\n    /**\n     *@dev withdraw _amount tokens from the _token contract\n     *@param _amount 1. amount to be staked\n     *@param _tokenAddress 2. address of the ERC to be staked\n     */\n\n    function withdrawUserTokens(uint256 _amount, address _tokenAddress)\n        public\n        notZero(_amount)\n    {\n        if (msg.sender != owner()) {\n            bool isContractFinished = contractFinished();\n            require(isContractFinished, \"Only for finished contract\");\n        }\n        _withdrawUserTokens(_amount, _tokenAddress);\n    }\n\n    function getStakersLength() public view returns (uint256) {\n        return stakers.length;\n    }\n\n    function breachedContract() public view returns (bool) {\n        return _breachedContract;\n    }\n}\n",
  "sourcePath": "/Users/matiasbn/Desktop/stacktical/stacktical-dsla-contracts/contracts/SLA.sol",
  "compiler": {
    "name": "solc",
    "version": "0.6.6+commit.6c089d02.Emscripten.clang"
  },
  "schemaVersion": "3.3.3",
  "updatedAt": "2021-04-07T17:24:21.529Z",
  "networkType": "ethereum",
  "devdoc": {
    "details": "SLA is a service level agreement contract used for service downtime compensation",
    "methods": {
      "constructor": {
        "params": {
          "_extraData": "9. -",
          "_finalPeriodId": "4. -",
          "_initialPeriodId": "4. -",
          "_ipfsHash": "3. -",
          "_messengerAddress": "3. -",
          "_owner": "1. -",
          "_periodType": "5. -",
          "_slaID": "10. -",
          "_sloRegistryAddress": "2. -",
          "_whitelisted": "8. -"
        }
      },
      "owner()": {
        "details": "Returns the address of the current owner."
      },
      "registerSLI(uint256,uint256)": {
        "details": "external function to register SLI's and check them against the SLORegistry",
        "params": {
          "_periodId": "2. the id of the given period",
          "_sli": "1. the value of the SLI to check"
        }
      },
      "renounceOwnership()": {
        "details": "Leaves the contract without owner. It will not be possible to call `onlyOwner` functions anymore. Can only be called by the current owner.     * NOTE: Renouncing ownership will leave the contract without an owner, thereby removing any functionality that is only available to the owner."
      },
      "transferOwnership(address)": {
        "details": "Transfers ownership of the contract to a new account (`newOwner`). Can only be called by the current owner."
      }
    },
    "title": "SLA"
  },
  "userdoc": {
    "methods": {
      "addAllowedTokens(address)": {
        "notice": "dev add a token to ve allowed for staking param _tokenAddress 1. address of the new allowed token"
      },
      "getAllowedTokensLength()": {
        "notice": "dev use this function to evaluate the length of the allowed tokens length return allowedTokens.length"
      },
      "isAllowedToken(address)": {
        "notice": "dev checks in the allowedTokens array if there's a token with _tokenAddress value param _tokenAddress 1. token address to check exixtence return true if _tokenAddress exists in the allowedTokens array"
      },
      "stakeTokens(uint256,address)": {
        "notice": "dev stake _amount tokens into the _token contract param _amount 1. amount to be staked param _token 2. address of the ERC to be staked"
      },
      "withdrawUserTokens(uint256,address)": {
        "notice": "dev withdraw _amount tokens from the _token contract param _amount 1. amount to be staked param _tokenAddress 2. address of the ERC to be staked"
      }
    }
  }
}