{
  "contractName": "SLA",
  "abi": [
    {
      "inputs": [
        {
          "internalType": "address",
          "name": "_owner",
          "type": "address"
        },
        {
          "internalType": "contract SLO",
          "name": "_SLO",
          "type": "address"
        },
        {
          "internalType": "string",
          "name": "_ipfsHash",
          "type": "string"
        },
        {
          "internalType": "address",
          "name": "_messengerAddress",
          "type": "address"
        },
        {
          "internalType": "uint256[]",
          "name": "_periodIds",
          "type": "uint256[]"
        },
        {
          "internalType": "enum PeriodRegistry.PeriodType",
          "name": "_periodType",
          "type": "uint8"
        },
        {
          "internalType": "address",
          "name": "_stakeRegistry",
          "type": "address"
        },
        {
          "internalType": "address",
          "name": "_periodRegistry",
          "type": "address"
        },
        {
          "internalType": "bool",
          "name": "_whitelisted",
          "type": "bool"
        }
      ],
      "stateMutability": "nonpayable",
      "type": "constructor"
    },
    {
      "anonymous": false,
      "inputs": [
        {
          "indexed": true,
          "internalType": "address",
          "name": "previousOwner",
          "type": "address"
        },
        {
          "indexed": true,
          "internalType": "address",
          "name": "newOwner",
          "type": "address"
        }
      ],
      "name": "OwnershipTransferred",
      "type": "event"
    },
    {
      "anonymous": false,
      "inputs": [
        {
          "indexed": false,
          "internalType": "uint256",
          "name": "_periodId",
          "type": "uint256"
        },
        {
          "indexed": false,
          "internalType": "uint256",
          "name": "_sli",
          "type": "uint256"
        }
      ],
      "name": "SLANotRespected",
      "type": "event"
    },
    {
      "anonymous": false,
      "inputs": [
        {
          "indexed": false,
          "internalType": "uint256",
          "name": "_timestamp",
          "type": "uint256"
        },
        {
          "indexed": false,
          "internalType": "uint256",
          "name": "_sli",
          "type": "uint256"
        },
        {
          "indexed": false,
          "internalType": "uint256",
          "name": "_periodId",
          "type": "uint256"
        }
      ],
      "name": "SLICreated",
      "type": "event"
    },
    {
      "inputs": [],
      "name": "DSLAburnRate",
      "outputs": [
        {
          "internalType": "uint256",
          "name": "",
          "type": "uint256"
        }
      ],
      "stateMutability": "view",
      "type": "function"
    },
    {
      "inputs": [
        {
          "internalType": "address",
          "name": "_tokenAddress",
          "type": "address"
        }
      ],
      "name": "_claimCompensation",
      "outputs": [],
      "stateMutability": "nonpayable",
      "type": "function"
    },
    {
      "inputs": [
        {
          "internalType": "address",
          "name": "_tokenAddress",
          "type": "address"
        }
      ],
      "name": "addAllowedTokens",
      "outputs": [],
      "stateMutability": "nonpayable",
      "type": "function"
    },
    {
      "inputs": [
        {
          "internalType": "uint256",
          "name": "",
          "type": "uint256"
        }
      ],
      "name": "allowedTokens",
      "outputs": [
        {
          "internalType": "address",
          "name": "",
          "type": "address"
        }
      ],
      "stateMutability": "view",
      "type": "function"
    },
    {
      "inputs": [],
      "name": "apy",
      "outputs": [
        {
          "internalType": "uint256",
          "name": "",
          "type": "uint256"
        }
      ],
      "stateMutability": "view",
      "type": "function"
    },
    {
      "inputs": [],
      "name": "creationBlockNumber",
      "outputs": [
        {
          "internalType": "uint256",
          "name": "",
          "type": "uint256"
        }
      ],
      "stateMutability": "view",
      "type": "function"
    },
    {
      "inputs": [],
      "name": "dslaTokenAddress",
      "outputs": [
        {
          "internalType": "address",
          "name": "",
          "type": "address"
        }
      ],
      "stateMutability": "view",
      "type": "function"
    },
    {
      "inputs": [],
      "name": "getAllowedTokensLength",
      "outputs": [
        {
          "internalType": "uint256",
          "name": "",
          "type": "uint256"
        }
      ],
      "stateMutability": "view",
      "type": "function"
    },
    {
      "inputs": [
        {
          "internalType": "address",
          "name": "_tokenAddress",
          "type": "address"
        }
      ],
      "name": "getStakeholdersPositions",
      "outputs": [
        {
          "internalType": "uint256",
          "name": "providerStake",
          "type": "uint256"
        },
        {
          "internalType": "uint256",
          "name": "usersStake",
          "type": "uint256"
        }
      ],
      "stateMutability": "view",
      "type": "function"
    },
    {
      "inputs": [
        {
          "internalType": "address",
          "name": "_staker",
          "type": "address"
        },
        {
          "internalType": "uint256",
          "name": "_allowedTokenIndex",
          "type": "uint256"
        }
      ],
      "name": "getTokenStake",
      "outputs": [
        {
          "internalType": "address",
          "name": "tokenAddress",
          "type": "address"
        },
        {
          "internalType": "uint256",
          "name": "stake",
          "type": "uint256"
        }
      ],
      "stateMutability": "view",
      "type": "function"
    },
    {
      "inputs": [],
      "name": "ipfsHash",
      "outputs": [
        {
          "internalType": "string",
          "name": "",
          "type": "string"
        }
      ],
      "stateMutability": "view",
      "type": "function"
    },
    {
      "inputs": [
        {
          "internalType": "address",
          "name": "_tokenAddress",
          "type": "address"
        }
      ],
      "name": "isAllowedToken",
      "outputs": [
        {
          "internalType": "bool",
          "name": "",
          "type": "bool"
        }
      ],
      "stateMutability": "view",
      "type": "function"
    },
    {
      "inputs": [],
      "name": "messengerAddress",
      "outputs": [
        {
          "internalType": "address",
          "name": "",
          "type": "address"
        }
      ],
      "stateMutability": "view",
      "type": "function"
    },
    {
      "inputs": [],
      "name": "minimumDSLAStakedTier1",
      "outputs": [
        {
          "internalType": "uint256",
          "name": "",
          "type": "uint256"
        }
      ],
      "stateMutability": "view",
      "type": "function"
    },
    {
      "inputs": [],
      "name": "minimumDSLAStakedTier2",
      "outputs": [
        {
          "internalType": "uint256",
          "name": "",
          "type": "uint256"
        }
      ],
      "stateMutability": "view",
      "type": "function"
    },
    {
      "inputs": [],
      "name": "minimumDSLAStakedTier3",
      "outputs": [
        {
          "internalType": "uint256",
          "name": "",
          "type": "uint256"
        }
      ],
      "stateMutability": "view",
      "type": "function"
    },
    {
      "inputs": [],
      "name": "owner",
      "outputs": [
        {
          "internalType": "address",
          "name": "",
          "type": "address"
        }
      ],
      "stateMutability": "view",
      "type": "function"
    },
    {
      "inputs": [
        {
          "internalType": "uint256",
          "name": "",
          "type": "uint256"
        }
      ],
      "name": "periodIds",
      "outputs": [
        {
          "internalType": "uint256",
          "name": "",
          "type": "uint256"
        }
      ],
      "stateMutability": "view",
      "type": "function"
    },
    {
      "inputs": [],
      "name": "periodRegistry",
      "outputs": [
        {
          "internalType": "contract PeriodRegistry",
          "name": "",
          "type": "address"
        }
      ],
      "stateMutability": "view",
      "type": "function"
    },
    {
      "inputs": [],
      "name": "periodType",
      "outputs": [
        {
          "internalType": "enum PeriodRegistry.PeriodType",
          "name": "",
          "type": "uint8"
        }
      ],
      "stateMutability": "view",
      "type": "function"
    },
    {
      "inputs": [
        {
          "internalType": "uint256",
          "name": "",
          "type": "uint256"
        },
        {
          "internalType": "address",
          "name": "",
          "type": "address"
        }
      ],
      "name": "providerPeriodsRewards",
      "outputs": [
        {
          "internalType": "uint256",
          "name": "",
          "type": "uint256"
        }
      ],
      "stateMutability": "view",
      "type": "function"
    },
    {
      "inputs": [],
      "name": "renounceOwnership",
      "outputs": [],
      "stateMutability": "nonpayable",
      "type": "function"
    },
    {
      "inputs": [
        {
          "internalType": "uint256",
          "name": "",
          "type": "uint256"
        }
      ],
      "name": "slaPeriods",
      "outputs": [
        {
          "internalType": "uint256",
          "name": "timestamp",
          "type": "uint256"
        },
        {
          "internalType": "uint256",
          "name": "sli",
          "type": "uint256"
        },
        {
          "internalType": "enum SLA.Status",
          "name": "status",
          "type": "uint8"
        }
      ],
      "stateMutability": "view",
      "type": "function"
    },
    {
      "inputs": [],
      "name": "slaPeriodsLength",
      "outputs": [
        {
          "internalType": "uint256",
          "name": "",
          "type": "uint256"
        }
      ],
      "stateMutability": "view",
      "type": "function"
    },
    {
      "inputs": [],
      "name": "slaRegistry",
      "outputs": [
        {
          "internalType": "contract SLARegistry",
          "name": "",
          "type": "address"
        }
      ],
      "stateMutability": "view",
      "type": "function"
    },
    {
      "inputs": [],
      "name": "slo",
      "outputs": [
        {
          "internalType": "contract SLO",
          "name": "",
          "type": "address"
        }
      ],
      "stateMutability": "view",
      "type": "function"
    },
    {
      "inputs": [
        {
          "internalType": "uint256",
          "name": "",
          "type": "uint256"
        }
      ],
      "name": "stakers",
      "outputs": [
        {
          "internalType": "address",
          "name": "",
          "type": "address"
        }
      ],
      "stateMutability": "view",
      "type": "function"
    },
    {
      "inputs": [
        {
          "internalType": "address",
          "name": "newOwner",
          "type": "address"
        }
      ],
      "name": "transferOwnership",
      "outputs": [],
      "stateMutability": "nonpayable",
      "type": "function"
    },
    {
      "inputs": [
        {
          "internalType": "address",
          "name": "",
          "type": "address"
        }
      ],
      "name": "usersCompensationPools",
      "outputs": [
        {
          "internalType": "uint256",
          "name": "",
          "type": "uint256"
        }
      ],
      "stateMutability": "view",
      "type": "function"
    },
    {
      "inputs": [
        {
          "internalType": "address",
          "name": "",
          "type": "address"
        }
      ],
      "name": "usersTotalPositions",
      "outputs": [
        {
          "internalType": "uint256",
          "name": "",
          "type": "uint256"
        }
      ],
      "stateMutability": "view",
      "type": "function"
    },
    {
      "inputs": [
        {
          "internalType": "address",
          "name": "_userAddress",
          "type": "address"
        }
      ],
      "name": "whitelistUser",
      "outputs": [],
      "stateMutability": "nonpayable",
      "type": "function"
    },
    {
      "inputs": [],
      "name": "whitelisted",
      "outputs": [
        {
          "internalType": "bool",
          "name": "",
          "type": "bool"
        }
      ],
      "stateMutability": "view",
      "type": "function"
    },
    {
      "inputs": [],
      "name": "yearlyPeriods",
      "outputs": [
        {
          "internalType": "uint256",
          "name": "",
          "type": "uint256"
        }
      ],
      "stateMutability": "view",
      "type": "function"
    },
    {
      "inputs": [
        {
          "internalType": "uint256",
          "name": "_sli",
          "type": "uint256"
        },
        {
          "internalType": "uint256",
          "name": "_periodId",
          "type": "uint256"
        }
      ],
      "name": "registerSLI",
      "outputs": [],
      "stateMutability": "nonpayable",
      "type": "function"
    },
    {
      "inputs": [
        {
          "internalType": "uint256",
          "name": "_periodId",
          "type": "uint256"
        }
      ],
      "name": "isAllowedPeriod",
      "outputs": [
        {
          "internalType": "bool",
          "name": "",
          "type": "bool"
        }
      ],
      "stateMutability": "view",
      "type": "function"
    },
    {
      "inputs": [
        {
          "internalType": "uint256",
          "name": "_amount",
          "type": "uint256"
        },
        {
          "internalType": "address",
          "name": "_token",
          "type": "address"
        }
      ],
      "name": "stakeTokens",
      "outputs": [],
      "stateMutability": "nonpayable",
      "type": "function"
    },
    {
      "inputs": [
        {
          "internalType": "uint256",
          "name": "_amount",
          "type": "uint256"
        },
        {
          "internalType": "address",
          "name": "_tokenAddress",
          "type": "address"
        }
      ],
      "name": "withdrawStakedTokens",
      "outputs": [],
      "stateMutability": "nonpayable",
      "type": "function"
    },
    {
      "inputs": [
        {
          "internalType": "address",
          "name": "_tokenAddress",
          "type": "address"
        }
      ],
      "name": "claimUserCompensation",
      "outputs": [],
      "stateMutability": "nonpayable",
      "type": "function"
    },
    {
      "inputs": [],
      "name": "getDetails",
      "outputs": [
        {
          "internalType": "address",
          "name": "_slaOwner",
          "type": "address"
        },
        {
          "internalType": "string",
          "name": "_ipfsHash",
          "type": "string"
        },
        {
          "internalType": "contract SLO",
          "name": "_SLO",
          "type": "address"
        },
        {
          "components": [
            {
              "internalType": "uint256",
              "name": "timestamp",
              "type": "uint256"
            },
            {
              "internalType": "uint256",
              "name": "sli",
              "type": "uint256"
            },
            {
              "internalType": "enum SLA.Status",
              "name": "status",
              "type": "uint8"
            }
          ],
          "internalType": "struct SLA.SLAPeriod[]",
          "name": "_SLAPeriods",
          "type": "tuple[]"
        },
        {
          "internalType": "uint256",
          "name": "_stakersCount",
          "type": "uint256"
        },
        {
          "components": [
            {
              "internalType": "address",
              "name": "tokenAddress",
              "type": "address"
            },
            {
              "internalType": "uint256",
              "name": "stake",
              "type": "uint256"
            }
          ],
          "internalType": "struct SLA.TokenStake[]",
          "name": "_tokensStake",
          "type": "tuple[]"
        }
      ],
      "stateMutability": "view",
      "type": "function"
    },
    {
      "inputs": [],
      "name": "breachedContract",
      "outputs": [
        {
          "internalType": "bool",
          "name": "",
          "type": "bool"
        }
      ],
      "stateMutability": "view",
      "type": "function"
    }
  ],
  "bytecode": "0x6080604052601d805460ff191690553480156200001b57600080fd5b50604051620030ab380380620030ab8339810160408190526200003e91620006a9565b828285875184600062000056620003a760201b60201c565b600080546001600160a01b0319166001600160a01b0383169081178255604051929350916000805160206200308b833981519152908290a350600180546001600160a01b038088166001600160a01b0319928316178355600280549188169190921617905560118054859260ff1990911690836005811115620000d557fe5b021790555060128290556013805460ff191682151517905560015460408051637b8041cf60e11b815290516000928392839283926001600160a01b03169163f700839e916004808301926080929190829003018186803b1580156200013957600080fd5b505afa1580156200014e573d6000803e3d6000fd5b505050506040513d601f19601f82011682018060405250810190620001749190620007e4565b600254604051635c98d15760e01b8152949850929650909450925060009182916001600160a01b031690635c98d15790620001b4908c906004016200081a565b60806040518083038186803b158015620001cd57600080fd5b505afa158015620001e2573d6000803e3d6000fd5b505050506040513d601f19601f820116820180604052508101906200020891906200079e565b5050600f829055601081905560015460408051638b8e530960e01b815290519395509193506001600160a01b031691638b8e530991600480820192602092909190829003018186803b1580156200025e57600080fd5b505afa15801562000273573d6000803e3d6000fd5b505050506040513d601f19601f8201168201806040525081019062000299919062000683565b600980546001600160a01b0319166001600160a01b03929092169190911790555050600b93909355600c91909155600d55600e5550620002e093508c9250620003ab915050565b8651620002f59060169060208a019062000461565b50601a80546001600160a01b038089166001600160a01b03199283161790925560198054909116331790556017805491841661010002610100600160a81b031990921691909117905543601c55845162000357906018906020880190620004e6565b506017805485919060ff191660018360058111156200037257fe5b021790555050601580546001600160a01b0319166001600160a01b03989098169790971790965550620008ea95505050505050565b3390565b620003b5620003a7565b6000546001600160a01b03908116911614620003ee5760405162461bcd60e51b8152600401620003e59062000875565b60405180910390fd5b6001600160a01b038116620004175760405162461bcd60e51b8152600401620003e5906200082f565b600080546040516001600160a01b03808516939216916000805160206200308b83398151915291a3600080546001600160a01b0319166001600160a01b0392909216919091179055565b828054600181600116156101000203166002900490600052602060002090601f016020900481019282601f10620004a457805160ff1916838001178555620004d4565b82800160010185558215620004d4579182015b82811115620004d4578251825591602001919060010190620004b7565b50620004e292915062000523565b5090565b828054828255906000526020600020908101928215620004d45791602002820182811115620004d4578251825591602001919060010190620004b7565b5b80821115620004e2576000815560010162000524565b80516200054781620008d1565b92915050565b600082601f8301126200055e578081fd5b81516001600160401b0381111562000574578182fd5b602080820262000586828201620008aa565b83815293508184018583018287018401881015620005a357600080fd5b600092505b84831015620005c8578051825260019290920191908301908301620005a8565b505050505092915050565b805180151581146200054757600080fd5b8051600681106200054757600080fd5b600082601f83011262000605578081fd5b81516001600160401b038111156200061b578182fd5b602062000631601f8301601f19168201620008aa565b925081835284818386010111156200064857600080fd5b60005b82811015620006685784810182015184820183015281016200064b565b828111156200067a5760008284860101525b50505092915050565b60006020828403121562000695578081fd5b8151620006a281620008d1565b9392505050565b60008060008060008060008060006101208a8c031215620006c8578485fd5b8951620006d581620008d1565b60208b0151909950620006e881620008d1565b60408b01519098506001600160401b038082111562000705578687fd5b620007138d838e01620005f4565b9850620007248d60608e016200053a565b975060808c01519150808211156200073a578687fd5b50620007498c828d016200054d565b9550506200075b8b60a08c01620005e4565b93506200076c8b60c08c016200053a565b92506200077d8b60e08c016200053a565b91506200078f8b6101008c01620005d3565b90509295985092959850929598565b60008060008060808587031215620007b4578384fd5b84519350602085015192506040850151915060608501518015158114620007d9578182fd5b939692955090935050565b60008060008060808587031215620007fa578384fd5b505082516020840151604085015160609095015191969095509092509050565b60208101600683106200082957fe5b91905290565b60208082526026908201527f4f776e61626c653a206e6577206f776e657220697320746865207a65726f206160408201526564647265737360d01b606082015260800190565b6020808252818101527f4f776e61626c653a2063616c6c6572206973206e6f7420746865206f776e6572604082015260600190565b6040518181016001600160401b0381118282101715620008c957600080fd5b604052919050565b6001600160a01b0381168114620008e757600080fd5b50565b61279180620008fa6000396000f3fe608060405234801561001057600080fd5b50600436106102485760003560e01c80637fd788aa1161013b578063d7a5c422116100b8578063f2fde38b1161007c578063f2fde38b14610497578063f51b7ab9146104aa578063f7e9dfff146104b2578063fbbf93a0146104ba578063fd5e6dd1146104d457610248565b8063d7a5c4221461044e578063db2da48c14610461578063db69a46214610474578063e68e276d1461047c578063ee575c281461048f57610248565b8063b18ac918116100ff578063b18ac9181461040e578063b7bc347e14610416578063c623674f1461041e578063cbe230c314610433578063cd92890e1461044657610248565b80637fd788aa146103cc5780638da5cb5b146103d45780639ab4438f146103dc5780639fc4caa5146103fe578063a224ee9c1461040657610248565b80633bcfc4b8116101c957806357ac94f01161018d57806357ac94f01461035a5780635c1c20de1461037b5780635e5f2e26146103835780636f265a34146103a3578063715018a6146103c457610248565b80633bcfc4b81461030f5780633d9287fa1461031757806346e0fbae1461031f5780634a4c560d14610334578063524f07351461034757610248565b80631bf30929116102105780631bf30929146102c65780631fc2cd93146102ce57806327cd727c146102e15780632eb8197a146102f457806333df1541146102fc57610248565b8063021eef7f1461024d5780630ae9ea45146102765780630bea440d146102965780630c5160f4146102ab578063171e44ea146102b3575b600080fd5b61026061025b366004611ec0565b6104e7565b60405161026d91906120da565b60405180910390f35b610289610284366004611ec0565b610531565b60405161026d91906126dc565b6102a96102a4366004611ed8565b61054f565b005b61028961062c565b6102a96102c1366004611e5b565b610632565b6102896107bd565b6102a96102dc366004611e5b565b6107c3565b6102a96102ef366004611ed8565b6109d2565b610289610b12565b61028961030a366004611ed8565b610b18565b610289610b35565b610260610b3b565b610327610b44565b60405161026d91906120e5565b6102a9610342366004611e5b565b610b4d565b6102a9610355366004611e5b565b610bdf565b61036d610368366004611e76565b610beb565b60405161026d929190612016565b610289610c39565b610396610391366004611ec0565b610c3f565b60405161026d9190611fde565b6103b66103b1366004611e5b565b610c66565b60405161026d9291906126e5565b6102a9610ccb565b610260610d4a565b610396610d53565b6103ef6103ea366004611ec0565b610d62565b60405161026d939291906126f3565b610396610d86565b610396610d9a565b610289610da9565b610289610daf565b610426610db5565b60405161026d9190612111565b610260610441366004611e5b565b610e43565b610396610e95565b6102a961045c366004611f04565b610ea4565b61028961046f366004611e5b565b611028565b61039661103a565b61028961048a366004611e5b565b611049565b61028961105b565b6102a96104a5366004611e5b565b611061565b610289611117565b61039661111d565b6104c261112c565b60405161026d9695949392919061202f565b6103966104e2366004611ec0565b61141f565b6000805b60185481101561052657826018828154811061050357fe5b9060005260206000200154141561051e57600191505061052c565b6001016104eb565b50600090505b919050565b6018818154811061053e57fe5b600091825260209091200154905081565b600082116105785760405162461bcd60e51b815260040161056f906125a6565b60405180910390fd5b601d5460ff161561059b5760405162461bcd60e51b815260040161056f906124f0565b6105a5828261142c565b601954604051635948284760e11b81526001600160a01b039091169063b290508e906105d5903390600401611fde565b602060405180830381600087803b1580156105ef57600080fd5b505af1158015610603573d6000803e3d6000fd5b505050506040513d601f19601f820116820180604052508101906106279190611ea0565b505050565b60125481565b61063a611691565b6000546001600160a01b039081169116146106675760405162461bcd60e51b815260040161056f906124bb565b61067081610e43565b1561068d5760405162461bcd60e51b815260040161056f90612579565b60015460405163cbe230c360e01b81526001600160a01b039091169063cbe230c3906106bd908490600401611fde565b60206040518083038186803b1580156106d557600080fd5b505afa1580156106e9573d6000803e3d6000fd5b505050506040513d601f19601f8201168201806040525081019061070d9190611ea0565b151560011461072e5760405162461bcd60e51b815260040161056f90612287565b600954600090610746906001600160a01b0316610c66565b509050600c54811161076a5760405162461bcd60e51b815260040161056f9061263a565b50600a80546001810182556000919091527fc65a7bb8d6351c1cf70c95a316cc6a92839c986682d98bc35f958f4883f9d2a80180546001600160a01b0319166001600160a01b0392909216919091179055565b601c5481565b6107cb610d53565b6001600160a01b0316336001600160a01b031614156107fc5760405162461bcd60e51b815260040161056f90612697565b6001600160a01b038116600090815260046020908152604080832033845290915290205461271090806108415760405162461bcd60e51b815260040161056f90612319565b6001600160a01b03831660009081526005602052604081205461086e906108688486611695565b906116d8565b6001600160a01b0385166000908152600660205260408120549192509061089b9085906108689085611695565b90506000856001600160a01b031663a9059cbb33846002026040518363ffffffff1660e01b81526004016108d0929190612016565b602060405180830381600087803b1580156108ea57600080fd5b505af11580156108fe573d6000803e3d6000fd5b505050506040513d601f19601f820116820180604052508101906109229190611ea0565b90506001811515146109465760405162461bcd60e51b815260040161056f906125d2565b6001600160a01b038616600090815260056020526040902054610969908561171a565b6001600160a01b038716600090815260056020908152604080832093909355600690522054610998908361171a565b6001600160a01b03909616600090815260066020908152604080832098909855600481528782203383529052958620959095555050505050565b600082116109f25760405162461bcd60e51b815260040161056f906125a6565b60188054600091906000198101908110610a0857fe5b600091825260208220015460175460405160016259edcb60e01b031981529193506001600160a01b036101008204169163ffa6123591610a529160ff9091169086906004016120f9565b604080518083038186803b158015610a6957600080fd5b505afa158015610a7d573d6000803e3d6000fd5b505050506040513d601f19601f82011682018060405250810190610aa19190611f25565b601d5490925060ff161515600114905080610ae65750804210158015610ae657506000828152601b6020526040812060029081015460ff1690811115610ae357fe5b14155b610b025760405162461bcd60e51b815260040161056f9061218b565b610b0c848461175c565b50505050565b600e5481565b600760209081526000928352604080842090915290825290205481565b600f5481565b60135460ff1681565b60175460ff1681565b610b55611691565b6000546001600160a01b03908116911614610b825760405162461bcd60e51b815260040161056f906124bb565b6001600160a01b03811660009081526014602052604090205460ff1615610bbb5760405162461bcd60e51b815260040161056f90612159565b6001600160a01b03166000908152601460205260409020805460ff19166001179055565b610be8816107c3565b50565b6000806000600a8481548110610bfd57fe5b6000918252602080832091909101546001600160a01b039081168084526004835260408085209990921684529790915290205494959350505050565b600b5481565b600a8181548110610c4c57fe5b6000918252602090912001546001600160a01b0316905081565b6001600160a01b0381166000908152600460205260408120819081610c89610d53565b6001600160a01b039081168252602080830193909352604091820160009081205491871681526003909352912054909250610cc4908361171a565b9050915091565b610cd3611691565b6000546001600160a01b03908116911614610d005760405162461bcd60e51b815260040161056f906124bb565b600080546040516001600160a01b03909116907f8be0079c531659141344cd1fd0a4f28419497f9722a3daafe3b4186f6b6457e0908390a3600080546001600160a01b0319169055565b601d5460ff1690565b6000546001600160a01b031690565b601b6020526000908152604090208054600182015460029092015490919060ff1683565b60175461010090046001600160a01b031681565b601a546001600160a01b031681565b600d5481565b600a5490565b6016805460408051602060026001851615610100026000190190941693909304601f81018490048402820184019092528181529291830182828015610e3b5780601f10610e1057610100808354040283529160200191610e3b565b820191906000526020600020905b815481529060010190602001808311610e1e57829003601f168201915b505050505081565b6000805b600a5481101561052657826001600160a01b0316600a8281548110610e6857fe5b6000918252602090912001546001600160a01b03161415610e8d57600191505061052c565b600101610e47565b6015546001600160a01b031681565b601a546001600160a01b03163314610ece5760405162461bcd60e51b815260040161056f906122d4565b7fc95987c1992805ee34bdc915e017cceae36ba1c156b9911fa7e691e6435eb46e428383604051610f0193929190612719565b60405180910390a16000818152601b60205260409081902060018101849055428155601554915163868d08f760e01b815290916001600160a01b03169063868d08f790610f529086906004016126dc565b60206040518083038186803b158015610f6a57600080fd5b505afa158015610f7e573d6000803e3d6000fd5b505050506040513d601f19601f82011682018060405250810190610fa29190611ea0565b15610fc45760028101805460ff19166001179055610fbf826118e2565b610627565b6002818101805460ff19169091179055610fdc611a4c565b601d805460ff191660011790556040517fbd33f7a3bfa88a467c9df5ae7d2341cf061084c386b20a0d48130f5cbce38a4d9061101b90849086906126e5565b60405180910390a1505050565b60066020526000908152604090205481565b6019546001600160a01b031681565b60056020526000908152604090205481565b600c5481565b611069611691565b6000546001600160a01b039081169116146110965760405162461bcd60e51b815260040161056f906124bb565b6001600160a01b0381166110bc5760405162461bcd60e51b815260040161056f9061220a565b600080546040516001600160a01b03808516939216917f8be0079c531659141344cd1fd0a4f28419497f9722a3daafe3b4186f6b6457e091a3600080546001600160a01b0319166001600160a01b0392909216919091179055565b60105481565b6009546001600160a01b031681565b600060606000606060006060611140610d53565b60168054604080516020601f600260001961010060018816150201909516949094049384018190048102820181019092528281529399508301828280156111c85780601f1061119d576101008083540402835291602001916111c8565b820191906000526020600020905b8154815290600101906020018083116111ab57829003601f168201915b50506015546018549499506001600160a01b031697505067ffffffffffffffff831191505080156111f857600080fd5b5060405190808252806020026020018201604052801561123257816020015b61121f611e02565b8152602001906001900390816112175790505b50925060005b60185481101561130f5760006018828154811061125157fe5b90600052602060002001549050611266611e02565b6000828152601b6020908152604091829020825160608101845281548152600182015492810192909252600280820154929391929184019160ff16908111156112ab57fe5b60028111156112b657fe5b81525050905060405180606001604052808260000151815260200182602001518152602001826040015160028111156112eb57fe5b8152508684815181106112fa57fe5b60209081029190910101525050600101611238565b50600854600a5490925067ffffffffffffffff8111801561132f57600080fd5b5060405190808252806020026020018201604052801561136957816020015b611356611e2d565b81526020019060019003908161134e5790505b50905060005b600a54811015611416576040518060400160405280600a838154811061139157fe5b9060005260206000200160009054906101000a90046001600160a01b03166001600160a01b0316815260200160036000600a85815481106113ce57fe5b60009182526020808320909101546001600160a01b031683528201929092526040019020549052825183908390811061140357fe5b602090810291909101015260010161136f565b50909192939495565b60088181548110610c4c57fe5b8061143681610e43565b15156001146114575760405162461bcd60e51b815260040161056f9061248d565b61145f610d53565b6001600160a01b0316336001600160a01b0316146114b45760008061148384610c66565b9092509050816114938287611bb7565b11156114b15760405162461bcd60e51b815260040161056f90612404565b50505b6040516323b872dd60e01b81526000906001600160a01b038416906323b872dd906114e790339030908990600401611ff2565b602060405180830381600087803b15801561150157600080fd5b505af1158015611515573d6000803e3d6000fd5b505050506040513d601f19601f820116820180604052508101906115399190611ea0565b905060018115151461155d5760405162461bcd60e51b815260040161056f90612538565b6001600160a01b0383166000908152600360205260409020546115809085611bb7565b6001600160a01b03841660009081526003602090815260408083209390935560048152828220338352905220546115b79085611bb7565b6001600160a01b0384166000908152600460209081526040808320338085529252909120919091556115e890611bdc565b61162f57600880546001810182556000919091527ff3f7a9fe364faab93b216da50a3214154f22a0a2b415b23a84c8169e8b636ee30180546001600160a01b031916331790555b611637610d53565b6001600160a01b0316336001600160a01b031614610b0c576001600160a01b0383166000908152600560205260409020546116729085611bb7565b6001600160a01b03841660009081526005602052604090205550505050565b3390565b6000826116a4575060006116d2565b828202828482816116b157fe5b04146116cf5760405162461bcd60e51b815260040161056f9061244c565b90505b92915050565b60006116cf83836040518060400160405280601a81526020017f536166654d6174683a206469766973696f6e206279207a65726f000000000000815250611c2e565b60006116cf83836040518060400160405280601e81526020017f536166654d6174683a207375627472616374696f6e206f766572666c6f770000815250611c65565b8061176681610e43565b15156001146117875760405162461bcd60e51b815260040161056f9061248d565b6001600160a01b03821660009081526004602090815260408083203384529091529020548311156117ca5760405162461bcd60e51b815260040161056f906123ba565b6001600160a01b0382166000908152600360205260409020546117ed908461171a565b6001600160a01b0383166000908152600360209081526040808320939093556004815282822033835290522054611824908461171a565b6001600160a01b038316600081815260046020818152604080842033808652925280842095909555935163a9059cbb60e01b8152919363a9059cbb9261186c92899101612016565b602060405180830381600087803b15801561188657600080fd5b505af115801561189a573d6000803e3d6000fd5b505050506040513d601f19601f820116820180604052508101906118be9190611ea0565b9050600181151514610b0c5760405162461bcd60e51b815260040161056f90612124565b60005b600a54811015611a48576000600a82815481106118fe57fe5b60009182526020822001546001600160a01b0316915061191d82610c66565b915050600061271090506000611950601054610868600f5461194a8660125461169590919063ffffffff16565b90611695565b90506000611965606484026108688685611695565b6009549091506001600160a01b038681169116141561199857600061198982611c91565b9050611995828261171a565b50505b6001600160a01b03851660009081526004602052604081206119df918391906119bf610d53565b6001600160a01b0316815260208101919091526040016000205490611bb7565b6001600160a01b038616600090815260046020526040812090611a00610d53565b6001600160a01b03908116825260208083019390935260409182016000908120949094558a8452600783528184209816835296905294909420939093555050506001016118e5565b5050565b60005b600a54811015610be8576000600a8281548110611a6857fe5b60009182526020822001546001600160a01b03169150611a8782610c66565b6009549092508291506001600160a01b0384811691161415611abd576000611aae82611c91565b9050611aba828261171a565b50505b6001600160a01b038316600090815260036020526040902054611ae0908261171a565b6001600160a01b03841660009081526003602090815260408083209390935560049052908120611b3591839190611b15610d53565b6001600160a01b031681526020810191909152604001600020549061171a565b6001600160a01b038416600090815260046020526040812090611b56610d53565b6001600160a01b0390811682526020808301939093526040918201600090812094909455861683526006909152902054611b909082611bb7565b6001600160a01b039093166000908152600660205260409020929092555050600101611a4f565b6000828201838110156116cf5760405162461bcd60e51b815260040161056f90612250565b6000805b60085481101561052657826001600160a01b031660088281548110611c0157fe5b6000918252602090912001546001600160a01b03161415611c2657600191505061052c565b600101611be0565b60008183611c4f5760405162461bcd60e51b815260040161056f9190612111565b506000838581611c5b57fe5b0495945050505050565b60008184841115611c895760405162461bcd60e51b815260040161056f9190612111565b505050900390565b60408051808201909152600d81526c6275726e2875696e743235362960981b602090910152600b546000907f42966c689b5afe9b9b3f8a7103b2a19980d59629bfd6a20a60972312ed41d83690611cf1906103e890610868908690611695565b6009546040519193506000916001600160a01b03909116908390611d199086906024016126dc565b60408051601f198184030181529181526020820180516001600160e01b03166001600160e01b0319909416939093179092529051611d579190611fc2565b6000604051808303816000865af19150503d8060008114611d94576040519150601f19603f3d011682016040523d82523d6000602084013e611d99565b606091505b5050905080611dba5760405162461bcd60e51b815260040161056f90612376565b6009546001600160a01b0316600090815260036020526040902054611ddf908461171a565b6009546001600160a01b0316600090815260036020526040902055509092915050565b6040518060600160405280600081526020016000815260200160006002811115611e2857fe5b905290565b604080518082019091526000808252602082015290565b80356001600160a01b03811681146116d257600080fd5b600060208284031215611e6c578081fd5b6116cf8383611e44565b60008060408385031215611e88578081fd5b611e928484611e44565b946020939093013593505050565b600060208284031215611eb1578081fd5b815180151581146116cf578182fd5b600060208284031215611ed1578081fd5b5035919050565b60008060408385031215611eea578182fd5b82359150611efb8460208501611e44565b90509250929050565b60008060408385031215611f16578182fd5b50508035926020909101359150565b60008060408385031215611f37578182fd5b505080516020909101519092909150565b6000815180845260208085019450808401835b83811015611f8b57815180516001600160a01b031688528301518388015260409096019590820190600101611f5b565b509495945050505050565b60008151808452611fae81602086016020860161272f565b601f01601f19169290920160200192915050565b60008251611fd481846020870161272f565b9190910192915050565b6001600160a01b0391909116815260200190565b6001600160a01b039384168152919092166020820152604081019190915260600190565b6001600160a01b03929092168252602082015260400190565b600060018060a01b038089168352602060c08185015261205260c085018a611f96565b6040838a168187015260609350858203848701528189518084528484019150848b019350865b818110156120af5784518051845286810151878501528401516003811061209b57fe5b838501529385019391860191600101612078565b505088608088015286810360a08801526120c98189611f48565b9d9c50505050505050505050505050565b901515815260200190565b60208101600683106120f357fe5b91905290565b604081016006841061210757fe5b9281526020015290565b6000602082526116cf6020830184611f96565b6020808252818101527f5374616b6520776974686472617720776173206e6f742073756363657366756c604082015260600190565b602080825260189082015277155cd95c88185b1c9958591e481dda1a5d195b1a5cdd195960421b604082015260600190565b60208082526059908201527f43616e206f6e6c79207769746864726177207374616b6520616674657220746860408201527f652066696e616c20706572696f642069732066696e6973686564206f72206966606082015278081d1a194818dbdb9d1c9858dd081a5cc8189c995858da1959603a1b608082015260a00190565b60208082526026908201527f4f776e61626c653a206e6577206f776e657220697320746865207a65726f206160408201526564647265737360d01b606082015260800190565b6020808252601b908201527f536166654d6174683a206164646974696f6e206f766572666c6f770000000000604082015260600190565b6020808252602d908201527f546f6b656e206e6f7420616c6c6f7765642062792074686520534c415265676960408201526c1cdd1c9e4818dbdb9d1c9858dd609a1b606082015260800190565b60208082526025908201527f4f6e6c79204d657373656e6765722063616e2063616c6c20746869732066756e60408201526431ba34b7b760d91b606082015260800190565b6020808252603a908201527f43616e206f6e6c7920636c61696d206120636f6d70656e736174696f6e20696660408201527f20706f736974696f6e20697320626967676572207468616e2030000000000000606082015260800190565b60208082526024908201527f44534c41206275726e2070726f6365737320776173206e6f74207375636365736040820152631cd99d5b60e21b606082015260800190565b6020808252602a908201527f53686f756c64206e6f74207769746864726177206d6f7265207374616b6520746040820152691a185b881cdd185ad95960b21b606082015260800190565b60208082526028908201527f43616e6e6f74207374616b65206d6f7265207468616e20534c412070726f76696040820152676465727374616b6560c01b606082015260800190565b60208082526021908201527f536166654d6174683a206d756c7469706c69636174696f6e206f766572666c6f6040820152607760f81b606082015260800190565b6020808252601490820152731d1bdad95b881a5cc81b9bdd08185b1b1bddd95960621b604082015260600190565b6020808252818101527f4f776e61626c653a2063616c6c6572206973206e6f7420746865206f776e6572604082015260600190565b60208082526028908201527f43616e206f6e6c79207374616b65206f6e206e6f7420627265616368656420636040820152676f6e74726163747360c01b606082015260800190565b60208082526021908201527f5374616b696e672070726f6365737320776173206e6f742073756363657366756040820152601b60fa1b606082015260800190565b602080825260139082015272151bdad95b88185b1c9958591e481859191959606a1b604082015260600190565b6020808252601290820152710616d6f756e742063616e6e6f7420626520360741b604082015260600190565b60208082526042908201527f5472616e736665722070726f636573732066726f6d20534c4120636f6e74726160408201527f637420746f206d73672e73656e64657220776173206e6f7420737563636573666060820152611d5b60f21b608082015260a00190565b6020808252603f908201527f53686f756c64207374616b65206174206c65617374206d696e696d756d44534c60408201527f415374616b6564546965723120746f206164642061206e657720746f6b656e00606082015260800190565b60208082526025908201527f53686f756c64206e6f742062652063616c6c65642062792074686520534c412060408201526437bbb732b960d91b606082015260800190565b90815260200190565b918252602082015260400190565b83815260208101839052606081016003831061270b57fe5b826040830152949350505050565b9283526020830191909152604082015260600190565b60005b8381101561274a578181015183820152602001612732565b83811115610b0c575050600091015256fea2646970667358221220cd39b0cc8599028c716962d7751d25b41cf1c837227039e796f763c4429ddd3464736f6c634300060c00338be0079c531659141344cd1fd0a4f28419497f9722a3daafe3b4186f6b6457e0",
  "immutableReferences": {},
  "source": "// SPDX-License-Identifier: MIT\npragma solidity ^0.6.0;\npragma experimental ABIEncoderV2;\n\nimport \"@openzeppelin/contracts/access/Ownable.sol\";\nimport \"@openzeppelin/contracts/token/ERC20/IERC20.sol\";\nimport \"@openzeppelin/contracts/math/SafeMath.sol\";\nimport \"./SLO.sol\";\nimport \"./SLARegistry.sol\";\nimport \"./PeriodRegistry.sol\";\nimport \"./Staking.sol\";\n\n/**\n * @title SLA\n * @dev SLA is a service level agreement contract used for service downtime\n * compensation\n */\ncontract SLA is Staking {\n    using SafeMath for uint256;\n\n    enum Status {NotVerified, Respected, NotRespected}\n\n    /// @dev Struct used for storing period status\n    struct SLAPeriod {\n        uint256 timestamp;\n        uint256 sli;\n        Status status;\n    }\n\n    struct TokenStake {\n        address tokenAddress;\n        uint256 stake;\n    }\n\n    /// @dev address of the SLO\n    SLO public slo;\n\n    /// @dev The ipfs hash that stores extra information about the agreement\n    string public ipfsHash;\n\n    /// @dev uint8 of the period type\n    PeriodRegistry.PeriodType public periodType;\n\n    PeriodRegistry public periodRegistry;\n\n    /// @dev array of he allowed canonical period ids\n    uint256[] public periodIds;\n\n    /// @dev The address of the slaRegistry contract\n    SLARegistry public slaRegistry;\n\n    /// @dev The address of the messenger\n    address public messengerAddress;\n\n    /// @dev periodId=>SLAPeriod mapping\n    mapping(uint256 => SLAPeriod) public slaPeriods;\n\n    /// @dev block number of SLA deployment\n    uint256 public creationBlockNumber;\n\n    /// @dev states if the contract was breached or not\n    bool private _breachedContract = false;\n\n    /**\n     * @dev event for SLI creation logging\n     * @param _timestamp 1. the time the SLI has been registered\n     * @param _sli 2. the value of the SLI\n     * @param _periodId 3. the id of the given period\n     */\n    event SLICreated(uint256 _timestamp, uint256 _sli, uint256 _periodId);\n\n    /**\n     * @dev event for SLI creation logging\n     * @param _periodId 1. the id of the given period\n     * @param _sli 2. value of the SLI\n     */\n    event SLANotRespected(uint256 _periodId, uint256 _sli);\n\n    /**\n     * @dev throws if called by any address other than the messenger contract.\n     */\n    modifier onlyMessenger() {\n        require(\n            msg.sender == messengerAddress,\n            \"Only Messenger can call this function\"\n        );\n        _;\n    }\n\n    /**\n     * @dev throws if called by any address other than the messenger contract.\n     */\n    modifier onlySLARegistry() {\n        require(\n            msg.sender == address(slaRegistry),\n            \"Only SLARegistry can call this function\"\n        );\n        _;\n    }\n\n    /**\n     * @param _owner 1. address of the owner of the service level agreement\n     * @param _SLO 2. address of the SLO\n     * @param _ipfsHash 3. string with the ipfs hash that contains SLA information\n     * @param _periodIds 4. id of the allowed canonical periods\n     * @param _periodType 5. period type of the SLA contract\n     * @param _stakeRegistry 6. stakeRegistry address\n     * @param _periodRegistry 7. periodRegistry address\n     * @param _whitelisted 8. boolean to declare whitelisted contracts\n     */\n    constructor(\n        address _owner,\n        SLO _SLO,\n        string memory _ipfsHash,\n        address _messengerAddress,\n        uint256[] memory _periodIds,\n        PeriodRegistry.PeriodType _periodType,\n        address _stakeRegistry,\n        address _periodRegistry,\n        bool _whitelisted\n    )\n        public\n        Staking(\n            _stakeRegistry,\n            _periodRegistry,\n            _periodType,\n            _periodIds.length,\n            _whitelisted\n        )\n    {\n        transferOwnership(_owner);\n        ipfsHash = _ipfsHash;\n        messengerAddress = _messengerAddress;\n        slaRegistry = SLARegistry(msg.sender);\n        periodRegistry = PeriodRegistry(_periodRegistry);\n        creationBlockNumber = block.number;\n        periodIds = _periodIds;\n        periodType = _periodType;\n        slo = _SLO;\n    }\n\n    /**\n     * @dev external function to register SLI's and check them against the SLO's\n     * @param _sli 1. the value of the SLI to check\n     * @param _periodId 2. the id of the given period\n     */\n    function registerSLI(uint256 _sli, uint256 _periodId)\n        external\n        onlyMessenger\n    {\n        emit SLICreated(block.timestamp, _sli, _periodId);\n        SLAPeriod storage slaPeriod = slaPeriods[_periodId];\n        slaPeriod.sli = _sli;\n        slaPeriod.timestamp = block.timestamp;\n        if (slo.isSLOHonored(_sli)) {\n            slaPeriod.status = Status.Respected;\n            _setRespectedPeriodReward(_periodId);\n        } else {\n            slaPeriod.status = Status.NotRespected;\n            _setUsersCompensationPool();\n            _breachedContract = true;\n            emit SLANotRespected(_periodId, _sli);\n        }\n    }\n\n    function isAllowedPeriod(uint256 _periodId) public view returns (bool) {\n        for (uint256 index = 0; index < periodIds.length; index++) {\n            if (periodIds[index] == _periodId) {\n                return true;\n            }\n        }\n        return false;\n    }\n\n    /**\n     *@dev stake _amount tokens into the _token contract\n     *@param _amount 1. amount to be staked\n     *@param _token 2. address of the ERC to be staked\n     */\n\n    function stakeTokens(uint256 _amount, address _token) public {\n        require(_amount > 0, \"amount cannot be 0\");\n        require(\n            _breachedContract == false,\n            \"Can only stake on not breached contracts\"\n        );\n        _stake(_amount, _token);\n        slaRegistry.registerStakedSla(msg.sender);\n    }\n\n    /**\n     *@dev withdraw _amount tokens from the _token contract\n     *@param _amount 1. amount to be staked\n     *@param _tokenAddress 2. address of the ERC to be staked\n     */\n\n    function withdrawStakedTokens(uint256 _amount, address _tokenAddress)\n        public\n    {\n        require(_amount > 0, \"amount cannot be 0\");\n        uint256 lastValidPeriodId = periodIds[periodIds.length - 1];\n        (, uint256 endOfLastValidPeriod) =\n            periodRegistry.getPeriodStartAndEnd(periodType, lastValidPeriodId);\n        // providers and users can withdraw only if the contract is breached\n        // or if the last period is finished and the period status was verified\n        require(\n            _breachedContract == true ||\n                (block.timestamp >= endOfLastValidPeriod &&\n                    slaPeriods[lastValidPeriodId].status != Status.NotVerified),\n            \"Can only withdraw stake after the final period is finished or if the contract is breached\"\n        );\n        _withdraw(_amount, _tokenAddress);\n    }\n\n    /**\n     *@dev withdraw provider reward of a given token address\n     *@param _tokenAddress 1. address of the token to withdraw rewards\n     */\n\n    function claimUserCompensation(address _tokenAddress) public {\n        _claimCompensation(_tokenAddress);\n    }\n\n    /**\n     * @dev external view function that returns all agreement information\n     * @return _slaOwner 1. address  owner\n     * @return _ipfsHash 2. string  ipfsHash\n     * @return _SLO 3. addresses of the SLO\n     * @return _SLAPeriods 5. SLAPeriod[]\n     * @return _stakersCount 6. amount of stakers\n     * @return _tokensStake 7. SLAPeriod[]  addresses array\n     */\n\n    function getDetails()\n        external\n        view\n        returns (\n            address _slaOwner,\n            string memory _ipfsHash,\n            SLO _SLO,\n            SLAPeriod[] memory _SLAPeriods,\n            uint256 _stakersCount,\n            TokenStake[] memory _tokensStake\n        )\n    {\n        _slaOwner = owner();\n        _ipfsHash = ipfsHash;\n        _SLO = slo;\n        _SLAPeriods = new SLAPeriod[](periodIds.length);\n        for (uint256 index = 0; index < periodIds.length; index++) {\n            uint256 periodId = periodIds[index];\n            SLAPeriod memory slaPeriod = slaPeriods[periodId];\n            _SLAPeriods[index] = SLAPeriod({\n                status: slaPeriod.status,\n                sli: slaPeriod.sli,\n                timestamp: slaPeriod.timestamp\n            });\n        }\n        _stakersCount = stakers.length;\n        _tokensStake = new TokenStake[](allowedTokens.length);\n        for (uint256 index = 0; index < allowedTokens.length; index++) {\n            _tokensStake[index] = TokenStake({\n                tokenAddress: allowedTokens[index],\n                stake: tokenPools[allowedTokens[index]]\n            });\n        }\n    }\n\n    function breachedContract() public view returns (bool) {\n        return _breachedContract;\n    }\n}\n",
  "sourcePath": "/Users/matiasbn/Desktop/stacktical/stacktical-dsla-contracts/contracts/SLA.sol",
  "compiler": {
    "name": "solc",
    "version": "0.6.12+commit.27d51765.Emscripten.clang"
  },
  "schemaVersion": "3.3.3",
  "updatedAt": "2021-02-14T11:07:57.006Z",
  "devdoc": {
    "details": "SLA is a service level agreement contract used for service downtime compensation",
    "events": {
      "SLANotRespected(uint256,uint256)": {
        "details": "event for SLI creation logging",
        "params": {
          "_periodId": "1. the id of the given period",
          "_sli": "2. value of the SLI"
        }
      },
      "SLICreated(uint256,uint256,uint256)": {
        "details": "event for SLI creation logging",
        "params": {
          "_periodId": "3. the id of the given period",
          "_sli": "2. the value of the SLI",
          "_timestamp": "1. the time the SLI has been registered"
        }
      }
    },
    "kind": "dev",
    "methods": {
      "_claimCompensation(address)": {
        "details": "claim user compensation. Transfers both the compensation and the user remaining stake.",
        "params": {
          "_tokenAddress": "1. address of the token to claim compensation"
        }
      },
      "addAllowedTokens(address)": {
        "details": "add a token to ve allowed for staking",
        "params": {
          "_tokenAddress": "1. address of the new allowed token"
        }
      },
      "claimUserCompensation(address)": {
        "details": "withdraw provider reward of a given token address",
        "params": {
          "_tokenAddress": "1. address of the token to withdraw rewards"
        }
      },
      "constructor": {
        "params": {
          "_SLO": "2. address of the SLO",
          "_ipfsHash": "3. string with the ipfs hash that contains SLA information",
          "_owner": "1. address of the owner of the service level agreement",
          "_periodIds": "4. id of the allowed canonical periods",
          "_periodRegistry": "7. periodRegistry address",
          "_periodType": "5. period type of the SLA contract",
          "_stakeRegistry": "6. stakeRegistry address",
          "_whitelisted": "8. boolean to declare whitelisted contracts"
        }
      },
      "getDetails()": {
        "details": "external view function that returns all agreement information",
        "returns": {
          "_SLAPeriods": "5. SLAPeriod[]",
          "_SLO": "3. addresses of the SLO",
          "_ipfsHash": "2. string  ipfsHash",
          "_slaOwner": "1. address  owner",
          "_stakersCount": "6. amount of stakers",
          "_tokensStake": "7. SLAPeriod[]  addresses array"
        }
      },
      "getStakeholdersPositions(address)": {
        "details": "gets the positions of stake both for provider and for users",
        "params": {
          "_tokenAddress": "1. token address to get the positions"
        },
        "returns": {
          "providerStake": "position of the provider (owner) of the SLA contract",
          "usersStake": "position of the user of the SLA contract"
        }
      },
      "owner()": {
        "details": "Returns the address of the current owner."
      },
      "registerSLI(uint256,uint256)": {
        "details": "external function to register SLI's and check them against the SLO's",
        "params": {
          "_periodId": "2. the id of the given period",
          "_sli": "1. the value of the SLI to check"
        }
      },
      "renounceOwnership()": {
        "details": "Leaves the contract without owner. It will not be possible to call `onlyOwner` functions anymore. Can only be called by the current owner. NOTE: Renouncing ownership will leave the contract without an owner, thereby removing any functionality that is only available to the owner."
      },
      "stakeTokens(uint256,address)": {
        "details": "stake _amount tokens into the _token contract",
        "params": {
          "_amount": "1. amount to be staked",
          "_token": "2. address of the ERC to be staked"
        }
      },
      "transferOwnership(address)": {
        "details": "Transfers ownership of the contract to a new account (`newOwner`). Can only be called by the current owner."
      },
      "withdrawStakedTokens(uint256,address)": {
        "details": "withdraw _amount tokens from the _token contract",
        "params": {
          "_amount": "1. amount to be staked",
          "_tokenAddress": "2. address of the ERC to be staked"
        }
      }
    },
    "stateVariables": {
      "_breachedContract": {
        "details": "states if the contract was breached or not"
      },
      "creationBlockNumber": {
        "details": "block number of SLA deployment"
      },
      "ipfsHash": {
        "details": "The ipfs hash that stores extra information about the agreement"
      },
      "messengerAddress": {
        "details": "The address of the messenger"
      },
      "periodIds": {
        "details": "array of he allowed canonical period ids"
      },
      "periodType": {
        "details": "uint8 of the period type"
      },
      "slaPeriods": {
        "details": "periodId=>SLAPeriod mapping"
      },
      "slaRegistry": {
        "details": "The address of the slaRegistry contract"
      },
      "slo": {
        "details": "address of the SLO"
      }
    },
    "title": "SLA",
    "version": 1
  },
  "userdoc": {
    "kind": "user",
    "methods": {
      "_claimCompensation(address)": {
        "notice": "it uses the user position and the user total position per token to check the proportion of the compensation pool that corresponds to every user"
      }
    },
    "version": 1
  }
}