{
  "contractName": "SLA",
  "abi": [
    {
      "inputs": [
        {
          "internalType": "address",
          "name": "_owner",
          "type": "address"
        },
        {
          "internalType": "bytes32[]",
          "name": "_SLONames",
          "type": "bytes32[]"
        },
        {
          "internalType": "contract SLO[]",
          "name": "_SLOs",
          "type": "address[]"
        },
        {
          "internalType": "uint256",
          "name": "_stake",
          "type": "uint256"
        },
        {
          "internalType": "string",
          "name": "_ipfsHash",
          "type": "string"
        },
        {
          "internalType": "uint256",
          "name": "_sliInterval",
          "type": "uint256"
        },
        {
          "internalType": "contract bDSLAToken",
          "name": "_tokenAddress",
          "type": "address"
        }
      ],
      "stateMutability": "nonpayable",
      "type": "constructor"
    },
    {
      "anonymous": false,
      "inputs": [
        {
          "indexed": true,
          "internalType": "address",
          "name": "previousOwner",
          "type": "address"
        },
        {
          "indexed": true,
          "internalType": "address",
          "name": "newOwner",
          "type": "address"
        }
      ],
      "name": "OwnershipTransferred",
      "type": "event"
    },
    {
      "anonymous": false,
      "inputs": [
        {
          "indexed": false,
          "internalType": "uint256",
          "name": "_timestamp",
          "type": "uint256"
        },
        {
          "indexed": false,
          "internalType": "uint256",
          "name": "_value",
          "type": "uint256"
        },
        {
          "indexed": false,
          "internalType": "string",
          "name": "_hash",
          "type": "string"
        }
      ],
      "name": "SLICreated",
      "type": "event"
    },
    {
      "inputs": [
        {
          "internalType": "bytes32",
          "name": "",
          "type": "bytes32"
        },
        {
          "internalType": "uint256",
          "name": "",
          "type": "uint256"
        }
      ],
      "name": "SLIs",
      "outputs": [
        {
          "internalType": "uint256",
          "name": "timestamp",
          "type": "uint256"
        },
        {
          "internalType": "uint256",
          "name": "value",
          "type": "uint256"
        },
        {
          "internalType": "string",
          "name": "ipfsHash",
          "type": "string"
        }
      ],
      "stateMutability": "view",
      "type": "function"
    },
    {
      "inputs": [
        {
          "internalType": "bytes32",
          "name": "",
          "type": "bytes32"
        }
      ],
      "name": "SLOs",
      "outputs": [
        {
          "internalType": "contract SLO",
          "name": "",
          "type": "address"
        }
      ],
      "stateMutability": "view",
      "type": "function"
    },
    {
      "inputs": [
        {
          "internalType": "address",
          "name": "_token",
          "type": "address"
        }
      ],
      "name": "addAllowedTokens",
      "outputs": [],
      "stateMutability": "nonpayable",
      "type": "function"
    },
    {
      "inputs": [],
      "name": "bDSLA",
      "outputs": [
        {
          "internalType": "contract bDSLAToken",
          "name": "",
          "type": "address"
        }
      ],
      "stateMutability": "view",
      "type": "function"
    },
    {
      "inputs": [
        {
          "internalType": "uint256",
          "name": "_period",
          "type": "uint256"
        }
      ],
      "name": "claimCompensation",
      "outputs": [],
      "stateMutability": "nonpayable",
      "type": "function"
    },
    {
      "inputs": [
        {
          "internalType": "uint256",
          "name": "_period",
          "type": "uint256"
        }
      ],
      "name": "claimReward",
      "outputs": [],
      "stateMutability": "nonpayable",
      "type": "function"
    },
    {
      "inputs": [
        {
          "internalType": "address",
          "name": "_user",
          "type": "address"
        },
        {
          "internalType": "uint256",
          "name": "_period",
          "type": "uint256"
        }
      ],
      "name": "getUserTotalValue",
      "outputs": [
        {
          "internalType": "uint256",
          "name": "",
          "type": "uint256"
        }
      ],
      "stateMutability": "view",
      "type": "function"
    },
    {
      "inputs": [],
      "name": "ipfsHash",
      "outputs": [
        {
          "internalType": "string",
          "name": "",
          "type": "string"
        }
      ],
      "stateMutability": "view",
      "type": "function"
    },
    {
      "inputs": [],
      "name": "owner",
      "outputs": [
        {
          "internalType": "address",
          "name": "",
          "type": "address"
        }
      ],
      "stateMutability": "view",
      "type": "function"
    },
    {
      "inputs": [
        {
          "internalType": "uint256",
          "name": "",
          "type": "uint256"
        }
      ],
      "name": "periods",
      "outputs": [
        {
          "internalType": "uint256",
          "name": "sla_period_start",
          "type": "uint256"
        },
        {
          "internalType": "uint256",
          "name": "sla_period_end",
          "type": "uint256"
        },
        {
          "internalType": "uint256",
          "name": "claimed_reward",
          "type": "uint256"
        },
        {
          "internalType": "bool",
          "name": "claimed",
          "type": "bool"
        },
        {
          "internalType": "enum Staking.Status",
          "name": "status",
          "type": "uint8"
        }
      ],
      "stateMutability": "view",
      "type": "function"
    },
    {
      "inputs": [],
      "name": "registry",
      "outputs": [
        {
          "internalType": "contract SLARegistry",
          "name": "",
          "type": "address"
        }
      ],
      "stateMutability": "view",
      "type": "function"
    },
    {
      "inputs": [],
      "name": "renounceOwnership",
      "outputs": [],
      "stateMutability": "nonpayable",
      "type": "function"
    },
    {
      "inputs": [],
      "name": "stake",
      "outputs": [
        {
          "internalType": "uint256",
          "name": "",
          "type": "uint256"
        }
      ],
      "stateMutability": "view",
      "type": "function"
    },
    {
      "inputs": [
        {
          "internalType": "uint256",
          "name": "_amount",
          "type": "uint256"
        },
        {
          "internalType": "address",
          "name": "_token",
          "type": "address"
        },
        {
          "internalType": "uint256",
          "name": "_period",
          "type": "uint256"
        }
      ],
      "name": "stakeTokens",
      "outputs": [],
      "stateMutability": "nonpayable",
      "type": "function"
    },
    {
      "inputs": [
        {
          "internalType": "uint256",
          "name": "",
          "type": "uint256"
        }
      ],
      "name": "stakers",
      "outputs": [
        {
          "internalType": "address",
          "name": "",
          "type": "address"
        }
      ],
      "stateMutability": "view",
      "type": "function"
    },
    {
      "inputs": [],
      "name": "totalStaked",
      "outputs": [
        {
          "internalType": "uint256",
          "name": "",
          "type": "uint256"
        }
      ],
      "stateMutability": "view",
      "type": "function"
    },
    {
      "inputs": [
        {
          "internalType": "address",
          "name": "newOwner",
          "type": "address"
        }
      ],
      "name": "transferOwnership",
      "outputs": [],
      "stateMutability": "nonpayable",
      "type": "function"
    },
    {
      "inputs": [
        {
          "internalType": "address",
          "name": "",
          "type": "address"
        }
      ],
      "name": "uniqueTokensStaked",
      "outputs": [
        {
          "internalType": "uint256",
          "name": "",
          "type": "uint256"
        }
      ],
      "stateMutability": "view",
      "type": "function"
    },
    {
      "inputs": [],
      "name": "validator",
      "outputs": [
        {
          "internalType": "address",
          "name": "",
          "type": "address"
        }
      ],
      "stateMutability": "view",
      "type": "function"
    },
    {
      "inputs": [
        {
          "internalType": "address",
          "name": "_token",
          "type": "address"
        },
        {
          "internalType": "uint256",
          "name": "_period",
          "type": "uint256"
        }
      ],
      "name": "withdraw",
      "outputs": [],
      "stateMutability": "nonpayable",
      "type": "function"
    },
    {
      "inputs": [
        {
          "internalType": "address",
          "name": "_token",
          "type": "address"
        },
        {
          "internalType": "uint256",
          "name": "_amount",
          "type": "uint256"
        },
        {
          "internalType": "uint256",
          "name": "_period",
          "type": "uint256"
        }
      ],
      "name": "withdrawAndStake",
      "outputs": [],
      "stateMutability": "nonpayable",
      "type": "function"
    },
    {
      "inputs": [
        {
          "internalType": "bytes32",
          "name": "_SLOName",
          "type": "bytes32"
        },
        {
          "internalType": "uint256",
          "name": "_value",
          "type": "uint256"
        },
        {
          "internalType": "string",
          "name": "_hash",
          "type": "string"
        },
        {
          "internalType": "uint256",
          "name": "_period",
          "type": "uint256"
        }
      ],
      "name": "registerSLI",
      "outputs": [],
      "stateMutability": "nonpayable",
      "type": "function"
    },
    {
      "inputs": [
        {
          "internalType": "bytes32",
          "name": "_SLOName",
          "type": "bytes32"
        }
      ],
      "name": "getSLI",
      "outputs": [
        {
          "components": [
            {
              "internalType": "uint256",
              "name": "timestamp",
              "type": "uint256"
            },
            {
              "internalType": "uint256",
              "name": "value",
              "type": "uint256"
            },
            {
              "internalType": "string",
              "name": "ipfsHash",
              "type": "string"
            }
          ],
          "internalType": "struct SLA.SLI[]",
          "name": "",
          "type": "tuple[]"
        }
      ],
      "stateMutability": "view",
      "type": "function"
    },
    {
      "inputs": [],
      "name": "getSliInterval",
      "outputs": [
        {
          "internalType": "uint256",
          "name": "",
          "type": "uint256"
        }
      ],
      "stateMutability": "view",
      "type": "function"
    },
    {
      "inputs": [],
      "name": "getDetails",
      "outputs": [
        {
          "internalType": "address",
          "name": "",
          "type": "address"
        },
        {
          "internalType": "string",
          "name": "",
          "type": "string"
        },
        {
          "internalType": "uint256",
          "name": "",
          "type": "uint256"
        },
        {
          "internalType": "bytes32[]",
          "name": "",
          "type": "bytes32[]"
        },
        {
          "internalType": "contract SLO[]",
          "name": "",
          "type": "address[]"
        }
      ],
      "stateMutability": "view",
      "type": "function"
    }
  ],
  "bytecode": "0x60806040523480156200001157600080fd5b5060405162004d9438038062004d9483398181016040528101906200003791906200081b565b8060006200004a6200034360201b60201c565b9050806000806101000a81548173ffffffffffffffffffffffffffffffffffffffff021916908373ffffffffffffffffffffffffffffffffffffffff1602179055508073ffffffffffffffffffffffffffffffffffffffff16600073ffffffffffffffffffffffffffffffffffffffff167f8be0079c531659141344cd1fd0a4f28419497f9722a3daafe3b4186f6b6457e060405160405180910390a35080600160006101000a81548173ffffffffffffffffffffffffffffffffffffffff021916908373ffffffffffffffffffffffffffffffffffffffff1602179055506004600160009054906101000a900473ffffffffffffffffffffffffffffffffffffffff169080600181540180825580915050600190039060005260206000200160009091909190916101000a81548173ffffffffffffffffffffffffffffffffffffffff021916908373ffffffffffffffffffffffffffffffffffffffff16021790555033600260006101000a81548173ffffffffffffffffffffffffffffffffffffffff021916908373ffffffffffffffffffffffffffffffffffffffff160217905550506005855110620001ff57600080fd5b84518651146200020e57600080fd5b60005b8551811015620002a3578581815181106200022857fe5b6020026020010151600c60008984815181106200024157fe5b6020026020010151815260200190815260200160002060006101000a81548173ffffffffffffffffffffffffffffffffffffffff021916908373ffffffffffffffffffffffffffffffffffffffff160217905550808060010191505062000211565b50620002b5876200034b60201b60201c565b85600e9080519060200190620002cd9291906200051b565b508360088190555082600a9080519060200190620002ed9291906200056d565b5033600b60006101000a81548173ffffffffffffffffffffffffffffffffffffffff021916908373ffffffffffffffffffffffffffffffffffffffff160217905550816009819055505050505050505062000be7565b600033905090565b6200035b6200034360201b60201c565b73ffffffffffffffffffffffffffffffffffffffff1660008054906101000a900473ffffffffffffffffffffffffffffffffffffffff1673ffffffffffffffffffffffffffffffffffffffff1614620003eb576040517f08c379a0000000000000000000000000000000000000000000000000000000008152600401620003e290620009df565b60405180910390fd5b600073ffffffffffffffffffffffffffffffffffffffff168173ffffffffffffffffffffffffffffffffffffffff1614156200045e576040517f08c379a00000000000000000000000000000000000000000000000000000000081526004016200045590620009bd565b60405180910390fd5b8073ffffffffffffffffffffffffffffffffffffffff1660008054906101000a900473ffffffffffffffffffffffffffffffffffffffff1673ffffffffffffffffffffffffffffffffffffffff167f8be0079c531659141344cd1fd0a4f28419497f9722a3daafe3b4186f6b6457e060405160405180910390a3806000806101000a81548173ffffffffffffffffffffffffffffffffffffffff021916908373ffffffffffffffffffffffffffffffffffffffff16021790555050565b8280548282559060005260206000209081019282156200055a579160200282015b82811115620005595782518255916020019190600101906200053c565b5b509050620005699190620005f4565b5090565b828054600181600116156101000203166002900490600052602060002090601f016020900481019282601f10620005b057805160ff1916838001178555620005e1565b82800160010185558215620005e1579182015b82811115620005e0578251825591602001919060010190620005c3565b5b509050620005f0919062000613565b5090565b5b808211156200060f576000816000905550600101620005f5565b5090565b5b808211156200062e57600081600090555060010162000614565b5090565b600081519050620006438162000b65565b92915050565b600082601f8301126200065b57600080fd5b8151620006726200066c8262000a2f565b62000a01565b915081818352602084019350602081019050838560208402820111156200069857600080fd5b60005b83811015620006cc5781620006b1888262000763565b8452602084019350602083019250506001810190506200069b565b5050505092915050565b600082601f830112620006e857600080fd5b8151620006ff620006f98262000a58565b62000a01565b915081818352602084019350602081019050838560208402820111156200072557600080fd5b60005b838110156200075957816200073e88826200077a565b84526020840193506020830192505060018101905062000728565b5050505092915050565b600081519050620007748162000b7f565b92915050565b6000815190506200078b8162000b99565b92915050565b600081519050620007a28162000bb3565b92915050565b600082601f830112620007ba57600080fd5b8151620007d1620007cb8262000a81565b62000a01565b91508082526020830160208301858383011115620007ee57600080fd5b620007fb83828462000b2f565b50505092915050565b600081519050620008158162000bcd565b92915050565b600080600080600080600060e0888a0312156200083757600080fd5b6000620008478a828b0162000632565b975050602088015167ffffffffffffffff8111156200086557600080fd5b620008738a828b0162000649565b965050604088015167ffffffffffffffff8111156200089157600080fd5b6200089f8a828b01620006d6565b9550506060620008b28a828b0162000804565b945050608088015167ffffffffffffffff811115620008d057600080fd5b620008de8a828b01620007a8565b93505060a0620008f18a828b0162000804565b92505060c0620009048a828b0162000791565b91505092959891949750929550565b60006200092260268362000aae565b91507f4f776e61626c653a206e6577206f776e657220697320746865207a65726f206160008301527f64647265737300000000000000000000000000000000000000000000000000006020830152604082019050919050565b60006200098a60208362000aae565b91507f4f776e61626c653a2063616c6c6572206973206e6f7420746865206f776e65726000830152602082019050919050565b60006020820190508181036000830152620009d88162000913565b9050919050565b60006020820190508181036000830152620009fa816200097b565b9050919050565b6000604051905081810181811067ffffffffffffffff8211171562000a2557600080fd5b8060405250919050565b600067ffffffffffffffff82111562000a4757600080fd5b602082029050602081019050919050565b600067ffffffffffffffff82111562000a7057600080fd5b602082029050602081019050919050565b600067ffffffffffffffff82111562000a9957600080fd5b601f19601f8301169050602081019050919050565b600082825260208201905092915050565b600062000acc8262000b05565b9050919050565b6000819050919050565b600062000aea8262000abf565b9050919050565b600062000afe8262000abf565b9050919050565b600073ffffffffffffffffffffffffffffffffffffffff82169050919050565b6000819050919050565b60005b8381101562000b4f57808201518184015260208101905062000b32565b8381111562000b5f576000848401525b50505050565b62000b708162000abf565b811462000b7c57600080fd5b50565b62000b8a8162000ad3565b811462000b9657600080fd5b50565b62000ba48162000add565b811462000bb057600080fd5b50565b62000bbe8162000af1565b811462000bca57600080fd5b50565b62000bd88162000b25565b811462000be457600080fd5b50565b61419d8062000bf76000396000f3fe608060405234801561001057600080fd5b50600436106101735760003560e01c8063ae169a50116100de578063e7ab816a11610097578063f2fde38b11610071578063f2fde38b14610440578063f3fef3a31461045c578063fbbf93a014610478578063fd5e6dd11461049a57610173565b8063e7ab816a146103be578063ea4a1104146103dc578063f10bd7721461041057610173565b8063ae169a50146102ec578063b0227b4714610308578063b83e023414610338578063c623674f14610368578063cec534d614610386578063e23ef92c146103a257610173565b8063715018a611610130578063715018a61461023a57806375fdf2a9146102445780637b10399914610260578063817b1cd21461027e5780638da5cb5b1461029c57806394199c61146102ba57610173565b806302e8b89314610178578063171e44ea146101a85780633a4b66f1146101c45780633a5381b5146101e257806353e85fd5146102005780635f4efaba1461021c575b600080fd5b610192600480360381019061018d91906131d7565b6104ca565b60405161019f9190613b70565b60405180910390f35b6101c260048036038101906101bd91906130fa565b6105f2565b005b6101cc6106ed565b6040516101d99190613da5565b60405180910390f35b6101ea6106f3565b6040516101f79190613a64565b60405180910390f35b61021a600480360381019061021591906132e5565b610719565b005b610224610b18565b6040516102319190613bc8565b60405180910390f35b610242610b3e565b005b61025e6004803603810190610259919061315f565b610c91565b005b61026861131e565b6040516102759190613b92565b60405180910390f35b610286611344565b6040516102939190613da5565b60405180910390f35b6102a461134a565b6040516102b19190613a64565b60405180910390f35b6102d460048036038101906102cf9190613200565b611373565b6040516102e393929190613e00565b60405180910390f35b610306600480360381019061030191906132e5565b61144f565b005b610322600480360381019061031d91906131d7565b611826565b60405161032f9190613bad565b60405180910390f35b610352600480360381019061034d91906130fa565b611859565b60405161035f9190613da5565b60405180910390f35b610370611871565b60405161037d9190613be3565b60405180910390f35b6103a0600480360381019061039b919061330e565b61190f565b005b6103bc60048036038101906103b7919061323c565b611cd6565b005b6103c6612005565b6040516103d39190613da5565b60405180910390f35b6103f660048036038101906103f191906132e5565b61200f565b604051610407959493929190613e3e565b60405180910390f35b61042a60048036038101906104259190613123565b61206c565b6040516104379190613da5565b60405180910390f35b61045a600480360381019061045591906130fa565b6121c8565b005b61047660048036038101906104719190613123565b61238a565b005b61048061289b565b604051610491959493929190613adf565b60405180910390f35b6104b460048036038101906104af91906132e5565b612ab3565b6040516104c19190613a64565b60405180910390f35b6060600d6000838152602001908152602001600020805480602002602001604051908101604052809291908181526020016000905b828210156105e757838290600052602060002090600302016040518060600160405290816000820154815260200160018201548152602001600282018054600181600116156101000203166002900480601f0160208091040260200160405190810160405280929190818152602001828054600181600116156101000203166002900480156105cf5780601f106105a4576101008083540402835291602001916105cf565b820191906000526020600020905b8154815290600101906020018083116105b257829003601f168201915b505050505081525050815260200190600101906104ff565b505050509050919050565b6105fa612aef565b73ffffffffffffffffffffffffffffffffffffffff1660008054906101000a900473ffffffffffffffffffffffffffffffffffffffff1673ffffffffffffffffffffffffffffffffffffffff1614610687576040517f08c379a000000000000000000000000000000000000000000000000000000000815260040161067e90613d05565b60405180910390fd5b6004819080600181540180825580915050600190039060005260206000200160009091909190916101000a81548173ffffffffffffffffffffffffffffffffffffffff021916908373ffffffffffffffffffffffffffffffffffffffff16021790555050565b60085481565b600260009054906101000a900473ffffffffffffffffffffffffffffffffffffffff1681565b806005818154811061072757fe5b906000526020600020906006020160000154421015801561076657506005818154811061075057fe5b9060005260206000209060060201600101544211155b61076f57600080fd5b600260009054906101000a900473ffffffffffffffffffffffffffffffffffffffff1673ffffffffffffffffffffffffffffffffffffffff163373ffffffffffffffffffffffffffffffffffffffff161415610800576040517f08c379a00000000000000000000000000000000000000000000000000000000081526004016107f790613c85565b60405180910390fd5b60028081111561080c57fe5b6005838154811061081957fe5b906000526020600020906006020160030160019054906101000a900460ff16600281111561084357fe5b14610883576040517f08c379a000000000000000000000000000000000000000000000000000000000815260040161087a90613c25565b60405180910390fd5b60006005838154811061089257fe5b906000526020600020906006020160050160003373ffffffffffffffffffffffffffffffffffffffff1673ffffffffffffffffffffffffffffffffffffffff1681526020019081526020016000205414610921576040517f08c379a000000000000000000000000000000000000000000000000000000000815260040161091890613d85565b60405180910390fd5b600061092d338461206c565b90506000610958600a61094a600385612af790919063ffffffff16565b612b6790919063ffffffff16565b905061096f82600754612bb190919063ffffffff16565b600781905550816005858154811061098357fe5b906000526020600020906006020160050160003373ffffffffffffffffffffffffffffffffffffffff1673ffffffffffffffffffffffffffffffffffffffff16815260200190815260200160002081905550600160009054906101000a900473ffffffffffffffffffffffffffffffffffffffff1673ffffffffffffffffffffffffffffffffffffffff1663a9059cbb33846040518363ffffffff1660e01b8152600401610a32929190613ab6565b602060405180830381600087803b158015610a4c57600080fd5b505af1158015610a60573d6000803e3d6000fd5b505050506040513d601f19601f82011682018060405250810190610a8491906131ae565b50600160009054906101000a900473ffffffffffffffffffffffffffffffffffffffff1673ffffffffffffffffffffffffffffffffffffffff166342966c68826040518263ffffffff1660e01b8152600401610ae09190613da5565b600060405180830381600087803b158015610afa57600080fd5b505af1158015610b0e573d6000803e3d6000fd5b5050505050505050565b600160009054906101000a900473ffffffffffffffffffffffffffffffffffffffff1681565b610b46612aef565b73ffffffffffffffffffffffffffffffffffffffff1660008054906101000a900473ffffffffffffffffffffffffffffffffffffffff1673ffffffffffffffffffffffffffffffffffffffff1614610bd3576040517f08c379a0000000000000000000000000000000000000000000000000000000008152600401610bca90613d05565b60405180910390fd5b600073ffffffffffffffffffffffffffffffffffffffff1660008054906101000a900473ffffffffffffffffffffffffffffffffffffffff1673ffffffffffffffffffffffffffffffffffffffff167f8be0079c531659141344cd1fd0a4f28419497f9722a3daafe3b4186f6b6457e060405160405180910390a360008060006101000a81548173ffffffffffffffffffffffffffffffffffffffff021916908373ffffffffffffffffffffffffffffffffffffffff160217905550565b600260009054906101000a900473ffffffffffffffffffffffffffffffffffffffff1673ffffffffffffffffffffffffffffffffffffffff163373ffffffffffffffffffffffffffffffffffffffff161415610d22576040517f08c379a0000000000000000000000000000000000000000000000000000000008152600401610d1990613c85565b60405180910390fd5b600060058281548110610d3157fe5b906000526020600020906006020160040160008573ffffffffffffffffffffffffffffffffffffffff1673ffffffffffffffffffffffffffffffffffffffff16815260200190815260200160002060003373ffffffffffffffffffffffffffffffffffffffff1673ffffffffffffffffffffffffffffffffffffffff1681526020019081526020016000205411610dfd576040517f08c379a0000000000000000000000000000000000000000000000000000000008152600401610df490613ca5565b60405180910390fd5b610e0683612bfb565b610e45576040517f08c379a0000000000000000000000000000000000000000000000000000000008152600401610e3c90613d45565b60405180910390fd5b8273ffffffffffffffffffffffffffffffffffffffff1663095ea7b330846040518363ffffffff1660e01b8152600401610e80929190613b47565b602060405180830381600087803b158015610e9a57600080fd5b505af1158015610eae573d6000803e3d6000fd5b505050506040513d601f19601f82011682018060405250810190610ed291906131ae565b508273ffffffffffffffffffffffffffffffffffffffff166323b872dd3330856040518463ffffffff1660e01b8152600401610f1093929190613a7f565b602060405180830381600087803b158015610f2a57600080fd5b505af1158015610f3e573d6000803e3d6000fd5b505050506040513d601f19601f82011682018060405250810190610f6291906131ae565b5061100e8260058381548110610f7457fe5b906000526020600020906006020160040160008673ffffffffffffffffffffffffffffffffffffffff1673ffffffffffffffffffffffffffffffffffffffff16815260200190815260200160002060003373ffffffffffffffffffffffffffffffffffffffff1673ffffffffffffffffffffffffffffffffffffffff16815260200190815260200160002054612c9d90919063ffffffff16565b6005828154811061101b57fe5b906000526020600020906006020160040160008573ffffffffffffffffffffffffffffffffffffffff1673ffffffffffffffffffffffffffffffffffffffff16815260200190815260200160002060003373ffffffffffffffffffffffffffffffffffffffff1673ffffffffffffffffffffffffffffffffffffffff168152602001908152602001600020819055506110bf82600754612c9d90919063ffffffff16565b6007819055506000600582815481106110d457fe5b906000526020600020906006020160040160008573ffffffffffffffffffffffffffffffffffffffff1673ffffffffffffffffffffffffffffffffffffffff16815260200190815260200160002060003373ffffffffffffffffffffffffffffffffffffffff1673ffffffffffffffffffffffffffffffffffffffff168152602001908152602001600020549050600061119a6003805490506005858154811061117a57fe5b906000526020600020906006020160020154612b6790919063ffffffff16565b90506000600584815481106111ab57fe5b906000526020600020906006020160040160008773ffffffffffffffffffffffffffffffffffffffff1673ffffffffffffffffffffffffffffffffffffffff16815260200190815260200160002060003373ffffffffffffffffffffffffffffffffffffffff1673ffffffffffffffffffffffffffffffffffffffff1681526020019081526020016000208190555061124f82600754612bb190919063ffffffff16565b600781905550600160009054906101000a900473ffffffffffffffffffffffffffffffffffffffff1673ffffffffffffffffffffffffffffffffffffffff1663a9059cbb336112a78486612bb190919063ffffffff16565b6040518363ffffffff1660e01b81526004016112c4929190613ab6565b602060405180830381600087803b1580156112de57600080fd5b505af11580156112f2573d6000803e3d6000fd5b505050506040513d601f19601f8201168201806040525081019061131691906131ae565b505050505050565b600b60009054906101000a900473ffffffffffffffffffffffffffffffffffffffff1681565b60075481565b60008060009054906101000a900473ffffffffffffffffffffffffffffffffffffffff16905090565b600d602052816000526040600020818154811061138c57fe5b906000526020600020906003020160009150915050806000015490806001015490806002018054600181600116156101000203166002900480601f0160208091040260200160405190810160405280929190818152602001828054600181600116156101000203166002900480156114455780601f1061141a57610100808354040283529160200191611445565b820191906000526020600020905b81548152906001019060200180831161142857829003601f168201915b5050505050905083565b806005818154811061145d57fe5b906000526020600020906006020160000154421015801561149c57506005818154811061148657fe5b9060005260206000209060060201600101544211155b6114a557600080fd5b600260009054906101000a900473ffffffffffffffffffffffffffffffffffffffff1673ffffffffffffffffffffffffffffffffffffffff163373ffffffffffffffffffffffffffffffffffffffff1614611535576040517f08c379a000000000000000000000000000000000000000000000000000000000815260040161152c90613d65565b60405180910390fd5b6001600281111561154257fe5b6005838154811061154f57fe5b906000526020600020906006020160030160019054906101000a900460ff16600281111561157957fe5b146115b9576040517f08c379a00000000000000000000000000000000000000000000000000000000081526004016115b090613c05565b60405180910390fd5b600582815481106115c657fe5b906000526020600020906006020160030160009054906101000a900460ff1615611625576040517f08c379a000000000000000000000000000000000000000000000000000000000815260040161161c90613cc5565b60405180910390fd5b6000611641600580549050600754612b6790919063ffffffff16565b9050600061166c600a61165e600385612af790919063ffffffff16565b612b6790919063ffffffff16565b905061168382600754612bb190919063ffffffff16565b600781905550816005858154811061169757fe5b9060005260206000209060060201600201819055506001600585815481106116bb57fe5b906000526020600020906006020160030160006101000a81548160ff021916908315150217905550600160009054906101000a900473ffffffffffffffffffffffffffffffffffffffff1673ffffffffffffffffffffffffffffffffffffffff1663a9059cbb33846040518363ffffffff1660e01b8152600401611740929190613ab6565b602060405180830381600087803b15801561175a57600080fd5b505af115801561176e573d6000803e3d6000fd5b505050506040513d601f19601f8201168201806040525081019061179291906131ae565b50600160009054906101000a900473ffffffffffffffffffffffffffffffffffffffff1673ffffffffffffffffffffffffffffffffffffffff166342966c68826040518263ffffffff1660e01b81526004016117ee9190613da5565b600060405180830381600087803b15801561180857600080fd5b505af115801561181c573d6000803e3d6000fd5b5050505050505050565b600c6020528060005260406000206000915054906101000a900473ffffffffffffffffffffffffffffffffffffffff1681565b60066020528060005260406000206000915090505481565b600a8054600181600116156101000203166002900480601f0160208091040260200160405190810160405280929190818152602001828054600181600116156101000203166002900480156119075780601f106118dc57610100808354040283529160200191611907565b820191906000526020600020905b8154815290600101906020018083116118ea57829003601f168201915b505050505081565b60008311611952576040517f08c379a000000000000000000000000000000000000000000000000000000000815260040161194990613d25565b60405180910390fd5b61195b82612bfb565b61199a576040517f08c379a000000000000000000000000000000000000000000000000000000000815260040161199190613d45565b60405180910390fd5b6119a5338383612cf2565b8173ffffffffffffffffffffffffffffffffffffffff1663095ea7b330856040518363ffffffff1660e01b81526004016119e0929190613b47565b602060405180830381600087803b1580156119fa57600080fd5b505af1158015611a0e573d6000803e3d6000fd5b505050506040513d601f19601f82011682018060405250810190611a3291906131ae565b508173ffffffffffffffffffffffffffffffffffffffff166323b872dd3330866040518463ffffffff1660e01b8152600401611a7093929190613a7f565b602060405180830381600087803b158015611a8a57600080fd5b505af1158015611a9e573d6000803e3d6000fd5b505050506040513d601f19601f82011682018060405250810190611ac291906131ae565b50611b6e8360058381548110611ad457fe5b906000526020600020906006020160040160008573ffffffffffffffffffffffffffffffffffffffff1673ffffffffffffffffffffffffffffffffffffffff16815260200190815260200160002060003373ffffffffffffffffffffffffffffffffffffffff1673ffffffffffffffffffffffffffffffffffffffff16815260200190815260200160002054612c9d90919063ffffffff16565b60058281548110611b7b57fe5b906000526020600020906006020160040160008473ffffffffffffffffffffffffffffffffffffffff1673ffffffffffffffffffffffffffffffffffffffff16815260200190815260200160002060003373ffffffffffffffffffffffffffffffffffffffff1673ffffffffffffffffffffffffffffffffffffffff16815260200190815260200160002081905550611c1f83600754612c9d90919063ffffffff16565b6007819055506001600660003373ffffffffffffffffffffffffffffffffffffffff1673ffffffffffffffffffffffffffffffffffffffff168152602001908152602001600020541415611cd1576003339080600181540180825580915050600190039060005260206000200160009091909190916101000a81548173ffffffffffffffffffffffffffffffffffffffff021916908373ffffffffffffffffffffffffffffffffffffffff1602179055505b505050565b600b60009054906101000a900473ffffffffffffffffffffffffffffffffffffffff1673ffffffffffffffffffffffffffffffffffffffff16633cb747bf6040518163ffffffff1660e01b815260040160206040518083038186803b158015611d3e57600080fd5b505afa158015611d52573d6000803e3d6000fd5b505050506040513d601f19601f82011682018060405250810190611d7691906132bc565b73ffffffffffffffffffffffffffffffffffffffff163373ffffffffffffffffffffffffffffffffffffffff1614611dad57600080fd5b600d6000868152602001908152602001600020604051806060016040528042815260200186815260200185858080601f016020809104026020016040519081016040528093929190818152602001838380828437600081840152601f19601f82011690508083019250505050505050815250908060018154018082558091505060019003906000526020600020906003020160009091909190915060008201518160000155602082015181600101556040820151816002019080519060200190611e78929190612faa565b5050507f048094af00d5b1e004ae2a3f03c2bd4897a83b5672ed2b02b7b3416b9709805c42858585604051611eb09493929190613dc0565b60405180910390a1600c600086815260200190815260200160002060009054906101000a900473ffffffffffffffffffffffffffffffffffffffff1673ffffffffffffffffffffffffffffffffffffffff1663868d08f7856040518263ffffffff1660e01b8152600401611f249190613da5565b60206040518083038186803b158015611f3c57600080fd5b505afa158015611f50573d6000803e3d6000fd5b505050506040513d601f19601f82011682018060405250810190611f7491906131ae565b611fbd57600260058281548110611f8757fe5b906000526020600020906006020160030160016101000a81548160ff02191690836002811115611fb357fe5b0217905550611ffe565b600160058281548110611fcc57fe5b906000526020600020906006020160030160016101000a81548160ff02191690836002811115611ff857fe5b02179055505b5050505050565b6000600954905090565b6005818154811061201c57fe5b90600052602060002090600602016000915090508060000154908060010154908060020154908060030160009054906101000a900460ff16908060030160019054906101000a900460ff16905085565b600080600090506000600660008673ffffffffffffffffffffffffffffffffffffffff1673ffffffffffffffffffffffffffffffffffffffff1681526020019081526020016000205411156121be5760005b6004805490508110156121bc576121ad600585815481106120db57fe5b90600052602060002090600602016004016000600484815481106120fb57fe5b9060005260206000200160009054906101000a900473ffffffffffffffffffffffffffffffffffffffff1673ffffffffffffffffffffffffffffffffffffffff1673ffffffffffffffffffffffffffffffffffffffff16815260200190815260200160002060008773ffffffffffffffffffffffffffffffffffffffff1673ffffffffffffffffffffffffffffffffffffffff1681526020019081526020016000205483612c9d90919063ffffffff16565b915080806001019150506120be565b505b8091505092915050565b6121d0612aef565b73ffffffffffffffffffffffffffffffffffffffff1660008054906101000a900473ffffffffffffffffffffffffffffffffffffffff1673ffffffffffffffffffffffffffffffffffffffff161461225d576040517f08c379a000000000000000000000000000000000000000000000000000000000815260040161225490613d05565b60405180910390fd5b600073ffffffffffffffffffffffffffffffffffffffff168173ffffffffffffffffffffffffffffffffffffffff1614156122cd576040517f08c379a00000000000000000000000000000000000000000000000000000000081526004016122c490613c45565b60405180910390fd5b8073ffffffffffffffffffffffffffffffffffffffff1660008054906101000a900473ffffffffffffffffffffffffffffffffffffffff1673ffffffffffffffffffffffffffffffffffffffff167f8be0079c531659141344cd1fd0a4f28419497f9722a3daafe3b4186f6b6457e060405160405180910390a3806000806101000a81548173ffffffffffffffffffffffffffffffffffffffff021916908373ffffffffffffffffffffffffffffffffffffffff16021790555050565b600260009054906101000a900473ffffffffffffffffffffffffffffffffffffffff1673ffffffffffffffffffffffffffffffffffffffff163373ffffffffffffffffffffffffffffffffffffffff16141561241b576040517f08c379a000000000000000000000000000000000000000000000000000000000815260040161241290613c85565b60405180910390fd5b60006005828154811061242a57fe5b906000526020600020906006020160040160008473ffffffffffffffffffffffffffffffffffffffff1673ffffffffffffffffffffffffffffffffffffffff16815260200190815260200160002060003373ffffffffffffffffffffffffffffffffffffffff1673ffffffffffffffffffffffffffffffffffffffff16815260200190815260200160002054116124f6576040517f08c379a00000000000000000000000000000000000000000000000000000000081526004016124ed90613ca5565b60405180910390fd5b6124ff82612bfb565b61253e576040517f08c379a000000000000000000000000000000000000000000000000000000000815260040161253590613d45565b60405180910390fd5b60006005828154811061254d57fe5b906000526020600020906006020160040160008473ffffffffffffffffffffffffffffffffffffffff1673ffffffffffffffffffffffffffffffffffffffff16815260200190815260200160002060003373ffffffffffffffffffffffffffffffffffffffff1673ffffffffffffffffffffffffffffffffffffffff1681526020019081526020016000205490506000612613600380549050600585815481106125f357fe5b906000526020600020906006020160020154612b6790919063ffffffff16565b905060006005848154811061262457fe5b906000526020600020906006020160040160008673ffffffffffffffffffffffffffffffffffffffff1673ffffffffffffffffffffffffffffffffffffffff16815260200190815260200160002060003373ffffffffffffffffffffffffffffffffffffffff1673ffffffffffffffffffffffffffffffffffffffff168152602001908152602001600020819055506126c882600754612bb190919063ffffffff16565b6007819055508373ffffffffffffffffffffffffffffffffffffffff1663a9059cbb336126fe8486612bb190919063ffffffff16565b6040518363ffffffff1660e01b815260040161271b929190613ab6565b602060405180830381600087803b15801561273557600080fd5b505af1158015612749573d6000803e3d6000fd5b505050506040513d601f19601f8201168201806040525081019061276d91906131ae565b506127c16001600660003373ffffffffffffffffffffffffffffffffffffffff1673ffffffffffffffffffffffffffffffffffffffff16815260200190815260200160002054612bb190919063ffffffff16565b600660003373ffffffffffffffffffffffffffffffffffffffff1673ffffffffffffffffffffffffffffffffffffffff168152602001908152602001600020819055506000600660003373ffffffffffffffffffffffffffffffffffffffff1673ffffffffffffffffffffffffffffffffffffffff16815260200190815260200160002054141561289557600061285733612e2e565b90506003818154811061286657fe5b9060005260206000200160006101000a81549073ffffffffffffffffffffffffffffffffffffffff0219169055505b50505050565b6000606060006060806060600e8054905067ffffffffffffffff811180156128c257600080fd5b506040519080825280602002602001820160405280156128f15781602001602082028036833780820191505090505b50905060005b600e805490508110156129a257600c6000600e838154811061291557fe5b9060005260206000200154815260200190815260200160002060009054906101000a900473ffffffffffffffffffffffffffffffffffffffff1682828151811061295b57fe5b602002602001019073ffffffffffffffffffffffffffffffffffffffff16908173ffffffffffffffffffffffffffffffffffffffff168152505080806001019150506128f7565b506129ab61134a565b600a600854600e84838054600181600116156101000203166002900480601f016020809104026020016040519081016040528092919081815260200182805460018160011615610100020316600290048015612a485780601f10612a1d57610100808354040283529160200191612a48565b820191906000526020600020905b815481529060010190602001808311612a2b57829003601f168201915b5050505050935081805480602002602001604051908101604052809291908181526020018280548015612a9a57602002820191906000526020600020905b815481526020019060010190808311612a86575b5050505050915095509550955095509550509091929394565b60038181548110612ac057fe5b906000526020600020016000915054906101000a900473ffffffffffffffffffffffffffffffffffffffff1681565b600033905090565b600080831415612b0a5760009050612b61565b6000828402905082848281612b1b57fe5b0414612b5c576040517f08c379a0000000000000000000000000000000000000000000000000000000008152600401612b5390613ce5565b60405180910390fd5b809150505b92915050565b6000612ba983836040518060400160405280601a81526020017f536166654d6174683a206469766973696f6e206279207a65726f000000000000815250612eee565b905092915050565b6000612bf383836040518060400160405280601e81526020017f536166654d6174683a207375627472616374696f6e206f766572666c6f770000815250612f4f565b905092915050565b600080600090505b600480549050811015612c92578273ffffffffffffffffffffffffffffffffffffffff1660048281548110612c3457fe5b9060005260206000200160009054906101000a900473ffffffffffffffffffffffffffffffffffffffff1673ffffffffffffffffffffffffffffffffffffffff161415612c85576001915050612c98565b8080600101915050612c03565b50600090505b919050565b600080828401905083811015612ce8576040517f08c379a0000000000000000000000000000000000000000000000000000000008152600401612cdf90613c65565b60405180910390fd5b8091505092915050565b600060058281548110612d0157fe5b906000526020600020906006020160040160008473ffffffffffffffffffffffffffffffffffffffff1673ffffffffffffffffffffffffffffffffffffffff16815260200190815260200160002060008573ffffffffffffffffffffffffffffffffffffffff1673ffffffffffffffffffffffffffffffffffffffff1681526020019081526020016000205411612e2957612de56001600660008673ffffffffffffffffffffffffffffffffffffffff1673ffffffffffffffffffffffffffffffffffffffff16815260200190815260200160002054612c9d90919063ffffffff16565b600660008573ffffffffffffffffffffffffffffffffffffffff1673ffffffffffffffffffffffffffffffffffffffff168152602001908152602001600020819055505b505050565b600080600090505b600380549050811015612ec4578273ffffffffffffffffffffffffffffffffffffffff1660038281548110612e6757fe5b9060005260206000200160009054906101000a900473ffffffffffffffffffffffffffffffffffffffff1673ffffffffffffffffffffffffffffffffffffffff161415612eb75780915050612ee9565b8080600101915050612e36565b507fffffffffffffffffffffffffffffffffffffffffffffffffffffffffffffffff90505b919050565b60008083118290612f35576040517f08c379a0000000000000000000000000000000000000000000000000000000008152600401612f2c9190613be3565b60405180910390fd5b506000838581612f4157fe5b049050809150509392505050565b6000838311158290612f97576040517f08c379a0000000000000000000000000000000000000000000000000000000008152600401612f8e9190613be3565b60405180910390fd5b5060008385039050809150509392505050565b828054600181600116156101000203166002900490600052602060002090601f016020900481019282601f10612feb57805160ff1916838001178555613019565b82800160010185558215613019579182015b82811115613018578251825591602001919060010190612ffd565b5b509050613026919061302a565b5090565b5b8082111561304357600081600090555060010161302b565b5090565b600081359050613056816140f4565b92915050565b60008151905061306b8161410b565b92915050565b60008135905061308081614122565b92915050565b60008151905061309581614139565b92915050565b60008083601f8401126130ad57600080fd5b8235905067ffffffffffffffff8111156130c657600080fd5b6020830191508360018202830111156130de57600080fd5b9250929050565b6000813590506130f481614150565b92915050565b60006020828403121561310c57600080fd5b600061311a84828501613047565b91505092915050565b6000806040838503121561313657600080fd5b600061314485828601613047565b9250506020613155858286016130e5565b9150509250929050565b60008060006060848603121561317457600080fd5b600061318286828701613047565b9350506020613193868287016130e5565b92505060406131a4868287016130e5565b9150509250925092565b6000602082840312156131c057600080fd5b60006131ce8482850161305c565b91505092915050565b6000602082840312156131e957600080fd5b60006131f784828501613071565b91505092915050565b6000806040838503121561321357600080fd5b600061322185828601613071565b9250506020613232858286016130e5565b9150509250929050565b60008060008060006080868803121561325457600080fd5b600061326288828901613071565b9550506020613273888289016130e5565b945050604086013567ffffffffffffffff81111561329057600080fd5b61329c8882890161309b565b935093505060606132af888289016130e5565b9150509295509295909350565b6000602082840312156132ce57600080fd5b60006132dc84828501613086565b91505092915050565b6000602082840312156132f757600080fd5b6000613305848285016130e5565b91505092915050565b60008060006060848603121561332357600080fd5b6000613331868287016130e5565b935050602061334286828701613047565b9250506040613353868287016130e5565b9150509250925092565b600061336983836134ff565b60208301905092915050565b6000613381838361351d565b60208301905092915050565b600061339983836139f6565b905092915050565b6133aa81613fe0565b82525050565b6133b981613f69565b82525050565b60006133ca82613ec1565b6133d48185613f25565b93506133df83613e91565b8060005b838110156134105781516133f7888261335d565b975061340283613eed565b9250506001810190506133e3565b5085935050505092915050565b600061342882613ecc565b6134328185613f14565b935061343d83613ea1565b8060005b8381101561346e5781516134558882613375565b975061346083613efa565b925050600181019050613441565b5085935050505092915050565b600061348682613ed7565b6134908185613f36565b9350836020820285016134a285613eb1565b8060005b858110156134de57848403895281516134bf858261338d565b94506134ca83613f07565b925060208a019950506001810190506134a6565b50829750879550505050505092915050565b6134f981613f7b565b82525050565b61350881613f87565b82525050565b61351781613ff2565b82525050565b61352681614016565b82525050565b61353581614016565b82525050565b6135448161403a565b82525050565b6135538161405e565b82525050565b60006135658385613f58565b9350613572838584614094565b61357b836140d6565b840190509392505050565b600061359182613ee2565b61359b8185613f47565b93506135ab8185602086016140a3565b6135b4816140d6565b840191505092915050565b60006135ca82613ee2565b6135d48185613f58565b93506135e48185602086016140a3565b6135ed816140d6565b840191505092915050565b6000613605601383613f58565b91507f534c41206e6f74207265737065637465642021000000000000000000000000006000830152602082019050919050565b6000613645600f83613f58565b91507f534c4120726573706563746564202100000000000000000000000000000000006000830152602082019050919050565b6000613685602683613f58565b91507f4f776e61626c653a206e6577206f776e657220697320746865207a65726f206160008301527f64647265737300000000000000000000000000000000000000000000000000006020830152604082019050919050565b60006136eb601b83613f58565b91507f536166654d6174683a206164646974696f6e206f766572666c6f7700000000006000830152602082019050919050565b600061372b601583613f58565b91507f596f752061726520612076616c696461746f72202100000000000000000000006000830152602082019050919050565b600061376b601b83613f58565b91507f7374616b696e672062616c616e63652063616e6e6f74206265203000000000006000830152602082019050919050565b60006137ab603683613f58565b91507f596f75206861766520616c726561647920636c61696d656420796f757220726560008301527f7761726420666f72207468697320706572696f642021000000000000000000006020830152604082019050919050565b6000613811602183613f58565b91507f536166654d6174683a206d756c7469706c69636174696f6e206f766572666c6f60008301527f77000000000000000000000000000000000000000000000000000000000000006020830152604082019050919050565b6000613877602083613f58565b91507f4f776e61626c653a2063616c6c6572206973206e6f7420746865206f776e65726000830152602082019050919050565b60006138b7601283613f58565b91507f616d6f756e742063616e6e6f74206265203000000000000000000000000000006000830152602082019050919050565b60006138f7602683613f58565b91507f746f6b656e2073686f756c64206265206175746f726973656420746f2062652060008301527f7374616b656400000000000000000000000000000000000000000000000000006020830152604082019050919050565b600061395d601983613f58565b91507f596f7520617265206e6f7420612076616c696461746f722021000000000000006000830152602082019050919050565b600061399d603c83613f58565b91507f596f75206861766520616c726561647920636c61696d656420796f757220636f60008301527f6d70656e736174696f6e20666f72207468697320706572696f642021000000006020830152604082019050919050565b6000606083016000830151613a0e6000860182613a46565b506020830151613a216020860182613a46565b5060408301518482036040860152613a398282613586565b9150508091505092915050565b613a4f81613fd6565b82525050565b613a5e81613fd6565b82525050565b6000602082019050613a7960008301846133b0565b92915050565b6000606082019050613a9460008301866133a1565b613aa160208301856133b0565b613aae6040830184613a55565b949350505050565b6000604082019050613acb60008301856133a1565b613ad86020830184613a55565b9392505050565b600060a082019050613af460008301886133b0565b8181036020830152613b0681876135bf565b9050613b156040830186613a55565b8181036060830152613b2781856133bf565b90508181036080830152613b3b818461341d565b90509695505050505050565b6000604082019050613b5c60008301856133b0565b613b696020830184613a55565b9392505050565b60006020820190508181036000830152613b8a818461347b565b905092915050565b6000602082019050613ba7600083018461350e565b92915050565b6000602082019050613bc2600083018461352c565b92915050565b6000602082019050613bdd600083018461353b565b92915050565b60006020820190508181036000830152613bfd81846135bf565b905092915050565b60006020820190508181036000830152613c1e816135f8565b9050919050565b60006020820190508181036000830152613c3e81613638565b9050919050565b60006020820190508181036000830152613c5e81613678565b9050919050565b60006020820190508181036000830152613c7e816136de565b9050919050565b60006020820190508181036000830152613c9e8161371e565b9050919050565b60006020820190508181036000830152613cbe8161375e565b9050919050565b60006020820190508181036000830152613cde8161379e565b9050919050565b60006020820190508181036000830152613cfe81613804565b9050919050565b60006020820190508181036000830152613d1e8161386a565b9050919050565b60006020820190508181036000830152613d3e816138aa565b9050919050565b60006020820190508181036000830152613d5e816138ea565b9050919050565b60006020820190508181036000830152613d7e81613950565b9050919050565b60006020820190508181036000830152613d9e81613990565b9050919050565b6000602082019050613dba6000830184613a55565b92915050565b6000606082019050613dd56000830187613a55565b613de26020830186613a55565b8181036040830152613df5818486613559565b905095945050505050565b6000606082019050613e156000830186613a55565b613e226020830185613a55565b8181036040830152613e3481846135bf565b9050949350505050565b600060a082019050613e536000830188613a55565b613e606020830187613a55565b613e6d6040830186613a55565b613e7a60608301856134f0565b613e87608083018461354a565b9695505050505050565b6000819050602082019050919050565b6000819050602082019050919050565b6000819050602082019050919050565b600081519050919050565b600081519050919050565b600081519050919050565b600081519050919050565b6000602082019050919050565b6000602082019050919050565b6000602082019050919050565b600082825260208201905092915050565b600082825260208201905092915050565b600082825260208201905092915050565b600082825260208201905092915050565b600082825260208201905092915050565b6000613f7482613fb6565b9050919050565b60008115159050919050565b6000819050919050565b6000613f9c82613f69565b9050919050565b6000819050613fb1826140e7565b919050565b600073ffffffffffffffffffffffffffffffffffffffff82169050919050565b6000819050919050565b6000613feb82614070565b9050919050565b6000613ffd82614004565b9050919050565b600061400f82613fb6565b9050919050565b600061402182614028565b9050919050565b600061403382613fb6565b9050919050565b60006140458261404c565b9050919050565b600061405782613fb6565b9050919050565b600061406982613fa3565b9050919050565b600061407b82614082565b9050919050565b600061408d82613fb6565b9050919050565b82818337600083830152505050565b60005b838110156140c15780820151818401526020810190506140a6565b838111156140d0576000848401525b50505050565b6000601f19601f8301169050919050565b600381106140f157fe5b50565b6140fd81613f69565b811461410857600080fd5b50565b61411481613f7b565b811461411f57600080fd5b50565b61412b81613f87565b811461413657600080fd5b50565b61414281613f91565b811461414d57600080fd5b50565b61415981613fd6565b811461416457600080fd5b5056fea264697066735822122015c0227ccf6e9bed56ebee94ae414e54e9aa5473212ab3a701d80817889dda2d64736f6c634300060c0033",
  "immutableReferences": {},
  "source": "// SPDX-License-Identifier: MIT\npragma solidity ^0.6.0;\npragma experimental ABIEncoderV2;\n\nimport \"@openzeppelin/contracts/access/Ownable.sol\";\nimport \"@openzeppelin/contracts/token/ERC20/IERC20.sol\";\nimport \"@openzeppelin/contracts/math/SafeMath.sol\";\nimport \"../interfaces/IMessenger.sol\";\nimport \"../Whitelist/Whitelist.sol\";\nimport \"../SLO/SLO.sol\";\nimport \"../SLARegistry.sol\";\nimport \"./Staking.sol\";\n\n/**\n * @title SLA\n * @dev SLA is a service level agreement contract used for service downtime\n * compensation\n */\ncontract SLA is Ownable, Staking {\n    using SafeMath for uint256;\n\n    // The required amount to stake when subscribing to the agreement\n    uint256 public stake;\n\n    // The time between SLI registration\n    uint256 private sliInterval;\n\n    // The ipfs hash that stores extra information about the agreement\n    string public ipfsHash;\n\n    // The address of the registry contract\n    SLARegistry public registry;\n\n    // Struct used for storing registered SLI's\n    struct SLI {\n        uint256 timestamp;\n        uint256 value;\n        string ipfsHash;\n    }\n\n    // Mapping to get SLO addresses from SLO names in bytes32\n    mapping(bytes32 => SLO) public SLOs;\n\n    // Mapping to get SLI structs from SLO names in bytes32\n    mapping(bytes32 => SLI[]) public SLIs;\n\n    // Array storing the names of the SLO's of this agreement\n    bytes32[] SLONames;\n\n    /**\n     * @dev event for SLI creation logging\n     * @param _timestamp the time the SLI has been registered\n     * @param _value the value of the SLI\n     * @param _hash the ipfs hash that stores additional info\n     */\n    event SLICreated(uint256 _timestamp, uint256 _value, string _hash);\n\n    /**\n     * @dev Throws if called by any address other than the Oraclize or\n     * messenger contract.\n     */\n    modifier onlyMessenger() {\n        require(msg.sender == address(registry.messenger()));\n        _;\n    }\n\n    /**\n     * @dev constructor\n     * @param _owner the owner of the service level agreement\n     * @param _SLONames the names of the service level objectives in a bytes32\n     * array\n     * @param _SLOs an array with the service level objective addresses\n     * @param _stake the amount required to stake when subscribing to the\n     * agreement\n     * @param _ipfsHash the ipfs hash that stores extra information about the\n     * agreement\n     */\n    constructor(\n        address _owner,\n        bytes32[] memory _SLONames,\n        SLO[] memory _SLOs,\n        uint256 _stake,\n        string memory _ipfsHash,\n        uint256 _sliInterval,\n        bDSLAToken _tokenAddress\n    ) public Staking(_tokenAddress) {\n        require(_SLOs.length < 5);\n        require(_SLONames.length == _SLOs.length);\n\n        for (uint256 i = 0; i < _SLOs.length; i++) {\n            SLOs[_SLONames[i]] = _SLOs[i];\n        }\n\n        transferOwnership(_owner);\n        SLONames = _SLONames;\n        stake = _stake;\n        ipfsHash = _ipfsHash;\n        registry = SLARegistry(msg.sender);\n        sliInterval = _sliInterval;\n    }\n\n    /**\n     * @dev external function to register SLI's and check them against the SLO's\n     * @param _SLOName the name of the SLO in bytes32\n     * @param _value the value of the SLI to check\n     * @param _hash the ipfs hash with additional information\n     */\n    function registerSLI(\n        bytes32 _SLOName,\n        uint256 _value,\n        string calldata _hash,\n        uint256 _period\n    ) external onlyMessenger {\n        SLIs[_SLOName].push(SLI(now, _value, _hash));\n\n        emit SLICreated(now, _value, _hash);\n\n        if (!SLOs[_SLOName].isSLOHonored(_value)) {\n            periods[_period].status = Status.NotRespected;\n        } else {\n            periods[_period].status = Status.Respected;\n        }\n    }\n\n    /**\n     * @dev external function to get SLI\n     * @param _SLOName the name of the SLO in bytes32\n     */\n    function getSLI(bytes32 _SLOName) public view returns (SLI[] memory) {\n        return SLIs[_SLOName];\n    }\n\n    /**\n     * @dev external view function that returns the sliInterval value\n     */\n    function getSliInterval() external view returns (uint256) {\n        return sliInterval;\n    }\n\n    /**\n     * @dev external view function that returns all agreement information\n     */\n\n    function getDetails()\n        external\n        view\n        returns (\n            address,\n            string memory,\n            uint256,\n            bytes32[] memory,\n            SLO[] memory\n        )\n    {\n        SLO[] memory _SLOAddresses = new SLO[](SLONames.length);\n\n        for (uint256 i = 0; i < SLONames.length; i++) {\n            _SLOAddresses[i] = SLOs[SLONames[i]];\n        }\n\n        return (owner(), ipfsHash, stake, SLONames, _SLOAddresses);\n    }\n}\n",
  "sourcePath": "/Users/wilhempujar/Development/stacktical-dsla-contracts/contracts/SLA/SLA.sol",
  "compiler": {
    "name": "solc",
    "version": "0.6.12+commit.27d51765.Emscripten.clang"
  },
  "schemaVersion": "3.2.5",
  "updatedAt": "2020-10-15T13:27:47.558Z",
  "devdoc": {
    "details": "SLA is a service level agreement contract used for service downtime compensation",
    "events": {
      "SLICreated(uint256,uint256,string)": {
        "details": "event for SLI creation logging",
        "params": {
          "_hash": "the ipfs hash that stores additional info",
          "_timestamp": "the time the SLI has been registered",
          "_value": "the value of the SLI"
        }
      }
    },
    "kind": "dev",
    "methods": {
      "constructor": {
        "details": "constructor",
        "params": {
          "_SLONames": "the names of the service level objectives in a bytes32 array",
          "_SLOs": "an array with the service level objective addresses",
          "_ipfsHash": "the ipfs hash that stores extra information about the agreement",
          "_owner": "the owner of the service level agreement",
          "_stake": "the amount required to stake when subscribing to the agreement"
        }
      },
      "getDetails()": {
        "details": "external view function that returns all agreement information"
      },
      "getSLI(bytes32)": {
        "details": "external function to get SLI",
        "params": {
          "_SLOName": "the name of the SLO in bytes32"
        }
      },
      "getSliInterval()": {
        "details": "external view function that returns the sliInterval value"
      },
      "owner()": {
        "details": "Returns the address of the current owner."
      },
      "registerSLI(bytes32,uint256,string,uint256)": {
        "details": "external function to register SLI's and check them against the SLO's",
        "params": {
          "_SLOName": "the name of the SLO in bytes32",
          "_hash": "the ipfs hash with additional information",
          "_value": "the value of the SLI to check"
        }
      },
      "renounceOwnership()": {
        "details": "Leaves the contract without owner. It will not be possible to call `onlyOwner` functions anymore. Can only be called by the current owner. NOTE: Renouncing ownership will leave the contract without an owner, thereby removing any functionality that is only available to the owner."
      },
      "transferOwnership(address)": {
        "details": "Transfers ownership of the contract to a new account (`newOwner`). Can only be called by the current owner."
      }
    },
    "title": "SLA",
    "version": 1
  },
  "userdoc": {
    "kind": "user",
    "methods": {},
    "version": 1
  }
}