{
  "contractName": "SLA",
  "abi": [
    {
      "inputs": [
        {
          "internalType": "address",
          "name": "_owner",
          "type": "address"
        },
        {
          "internalType": "bytes32[]",
          "name": "_SLONames",
          "type": "bytes32[]"
        },
        {
          "internalType": "contract SLO[]",
          "name": "_SLOs",
          "type": "address[]"
        },
        {
          "internalType": "uint256",
          "name": "_stake",
          "type": "uint256"
        },
        {
          "internalType": "string",
          "name": "_ipfsHash",
          "type": "string"
        },
        {
          "internalType": "uint256",
          "name": "_sliInterval",
          "type": "uint256"
        },
        {
          "internalType": "contract bDSLAToken",
          "name": "_tokenAddress",
          "type": "address"
        }
      ],
      "stateMutability": "nonpayable",
      "type": "constructor"
    },
    {
      "anonymous": false,
      "inputs": [
        {
          "indexed": true,
          "internalType": "address",
          "name": "previousOwner",
          "type": "address"
        },
        {
          "indexed": true,
          "internalType": "address",
          "name": "newOwner",
          "type": "address"
        }
      ],
      "name": "OwnershipTransferred",
      "type": "event"
    },
    {
      "anonymous": false,
      "inputs": [
        {
          "indexed": false,
          "internalType": "uint256",
          "name": "_timestamp",
          "type": "uint256"
        },
        {
          "indexed": false,
          "internalType": "uint256",
          "name": "_value",
          "type": "uint256"
        },
        {
          "indexed": false,
          "internalType": "uint256",
          "name": "_periodId",
          "type": "uint256"
        }
      ],
      "name": "SLICreated",
      "type": "event"
    },
    {
      "inputs": [
        {
          "internalType": "bytes32",
          "name": "",
          "type": "bytes32"
        },
        {
          "internalType": "uint256",
          "name": "",
          "type": "uint256"
        }
      ],
      "name": "SLIs",
      "outputs": [
        {
          "internalType": "uint256",
          "name": "timestamp",
          "type": "uint256"
        },
        {
          "internalType": "uint256",
          "name": "value",
          "type": "uint256"
        },
        {
          "internalType": "uint256",
          "name": "periodId",
          "type": "uint256"
        }
      ],
      "stateMutability": "view",
      "type": "function"
    },
    {
      "inputs": [
        {
          "internalType": "bytes32",
          "name": "",
          "type": "bytes32"
        }
      ],
      "name": "SLOs",
      "outputs": [
        {
          "internalType": "contract SLO",
          "name": "",
          "type": "address"
        }
      ],
      "stateMutability": "view",
      "type": "function"
    },
    {
      "inputs": [
        {
          "internalType": "address",
          "name": "_token",
          "type": "address"
        }
      ],
      "name": "addAllowedTokens",
      "outputs": [],
      "stateMutability": "nonpayable",
      "type": "function"
    },
    {
      "inputs": [],
      "name": "bDSLA",
      "outputs": [
        {
          "internalType": "contract bDSLAToken",
          "name": "",
          "type": "address"
        }
      ],
      "stateMutability": "view",
      "type": "function"
    },
    {
      "inputs": [
        {
          "internalType": "uint256",
          "name": "_period",
          "type": "uint256"
        }
      ],
      "name": "claimCompensation",
      "outputs": [],
      "stateMutability": "nonpayable",
      "type": "function"
    },
    {
      "inputs": [
        {
          "internalType": "uint256",
          "name": "_period",
          "type": "uint256"
        }
      ],
      "name": "claimReward",
      "outputs": [],
      "stateMutability": "nonpayable",
      "type": "function"
    },
    {
      "inputs": [
        {
          "internalType": "uint256",
          "name": "_periodId",
          "type": "uint256"
        }
      ],
      "name": "getPeriodData",
      "outputs": [
        {
          "internalType": "uint256",
          "name": "periodStart",
          "type": "uint256"
        },
        {
          "internalType": "uint256",
          "name": "periodEnd",
          "type": "uint256"
        }
      ],
      "stateMutability": "view",
      "type": "function"
    },
    {
      "inputs": [
        {
          "internalType": "address",
          "name": "_user",
          "type": "address"
        },
        {
          "internalType": "uint256",
          "name": "_period",
          "type": "uint256"
        }
      ],
      "name": "getUserTotalValue",
      "outputs": [
        {
          "internalType": "uint256",
          "name": "",
          "type": "uint256"
        }
      ],
      "stateMutability": "view",
      "type": "function"
    },
    {
      "inputs": [],
      "name": "ipfsHash",
      "outputs": [
        {
          "internalType": "string",
          "name": "",
          "type": "string"
        }
      ],
      "stateMutability": "view",
      "type": "function"
    },
    {
      "inputs": [],
      "name": "owner",
      "outputs": [
        {
          "internalType": "address",
          "name": "",
          "type": "address"
        }
      ],
      "stateMutability": "view",
      "type": "function"
    },
    {
      "inputs": [
        {
          "internalType": "uint256",
          "name": "",
          "type": "uint256"
        }
      ],
      "name": "periods",
      "outputs": [
        {
          "internalType": "uint256",
          "name": "sla_period_start",
          "type": "uint256"
        },
        {
          "internalType": "uint256",
          "name": "sla_period_end",
          "type": "uint256"
        },
        {
          "internalType": "uint256",
          "name": "claimed_reward",
          "type": "uint256"
        },
        {
          "internalType": "bool",
          "name": "claimed",
          "type": "bool"
        },
        {
          "internalType": "enum Staking.Status",
          "name": "status",
          "type": "uint8"
        }
      ],
      "stateMutability": "view",
      "type": "function"
    },
    {
      "inputs": [],
      "name": "registry",
      "outputs": [
        {
          "internalType": "contract SLARegistry",
          "name": "",
          "type": "address"
        }
      ],
      "stateMutability": "view",
      "type": "function"
    },
    {
      "inputs": [],
      "name": "renounceOwnership",
      "outputs": [],
      "stateMutability": "nonpayable",
      "type": "function"
    },
    {
      "inputs": [],
      "name": "stake",
      "outputs": [
        {
          "internalType": "uint256",
          "name": "",
          "type": "uint256"
        }
      ],
      "stateMutability": "view",
      "type": "function"
    },
    {
      "inputs": [
        {
          "internalType": "uint256",
          "name": "_amount",
          "type": "uint256"
        },
        {
          "internalType": "address",
          "name": "_token",
          "type": "address"
        },
        {
          "internalType": "uint256",
          "name": "_period",
          "type": "uint256"
        }
      ],
      "name": "stakeTokens",
      "outputs": [],
      "stateMutability": "nonpayable",
      "type": "function"
    },
    {
      "inputs": [
        {
          "internalType": "uint256",
          "name": "",
          "type": "uint256"
        }
      ],
      "name": "stakers",
      "outputs": [
        {
          "internalType": "address",
          "name": "",
          "type": "address"
        }
      ],
      "stateMutability": "view",
      "type": "function"
    },
    {
      "inputs": [],
      "name": "totalStaked",
      "outputs": [
        {
          "internalType": "uint256",
          "name": "",
          "type": "uint256"
        }
      ],
      "stateMutability": "view",
      "type": "function"
    },
    {
      "inputs": [
        {
          "internalType": "address",
          "name": "newOwner",
          "type": "address"
        }
      ],
      "name": "transferOwnership",
      "outputs": [],
      "stateMutability": "nonpayable",
      "type": "function"
    },
    {
      "inputs": [
        {
          "internalType": "address",
          "name": "",
          "type": "address"
        }
      ],
      "name": "uniqueTokensStaked",
      "outputs": [
        {
          "internalType": "uint256",
          "name": "",
          "type": "uint256"
        }
      ],
      "stateMutability": "view",
      "type": "function"
    },
    {
      "inputs": [],
      "name": "validator",
      "outputs": [
        {
          "internalType": "address",
          "name": "",
          "type": "address"
        }
      ],
      "stateMutability": "view",
      "type": "function"
    },
    {
      "inputs": [
        {
          "internalType": "address",
          "name": "_token",
          "type": "address"
        },
        {
          "internalType": "uint256",
          "name": "_period",
          "type": "uint256"
        }
      ],
      "name": "withdraw",
      "outputs": [],
      "stateMutability": "nonpayable",
      "type": "function"
    },
    {
      "inputs": [
        {
          "internalType": "address",
          "name": "_token",
          "type": "address"
        },
        {
          "internalType": "uint256",
          "name": "_amount",
          "type": "uint256"
        },
        {
          "internalType": "uint256",
          "name": "_period",
          "type": "uint256"
        }
      ],
      "name": "withdrawAndStake",
      "outputs": [],
      "stateMutability": "nonpayable",
      "type": "function"
    },
    {
      "inputs": [
        {
          "internalType": "bytes32",
          "name": "_SLOName",
          "type": "bytes32"
        },
        {
          "internalType": "uint256",
          "name": "_value",
          "type": "uint256"
        },
        {
          "internalType": "uint256",
          "name": "_periodId",
          "type": "uint256"
        }
      ],
      "name": "registerSLI",
      "outputs": [],
      "stateMutability": "nonpayable",
      "type": "function"
    },
    {
      "inputs": [
        {
          "internalType": "bytes32",
          "name": "_SLOName",
          "type": "bytes32"
        }
      ],
      "name": "getSLI",
      "outputs": [
        {
          "components": [
            {
              "internalType": "uint256",
              "name": "timestamp",
              "type": "uint256"
            },
            {
              "internalType": "uint256",
              "name": "value",
              "type": "uint256"
            },
            {
              "internalType": "uint256",
              "name": "periodId",
              "type": "uint256"
            }
          ],
          "internalType": "struct SLA.SLI[]",
          "name": "",
          "type": "tuple[]"
        }
      ],
      "stateMutability": "view",
      "type": "function"
    },
    {
      "inputs": [],
      "name": "getSliInterval",
      "outputs": [
        {
          "internalType": "uint256",
          "name": "",
          "type": "uint256"
        }
      ],
      "stateMutability": "view",
      "type": "function"
    }
  ],
  "bytecode": "0x60806040523480156200001157600080fd5b50604051620046a8380380620046a8833981810160405281019062000037919062000832565b8060006200004a6200034660201b60201c565b9050806000806101000a81548173ffffffffffffffffffffffffffffffffffffffff021916908373ffffffffffffffffffffffffffffffffffffffff1602179055508073ffffffffffffffffffffffffffffffffffffffff16600073ffffffffffffffffffffffffffffffffffffffff167f8be0079c531659141344cd1fd0a4f28419497f9722a3daafe3b4186f6b6457e060405160405180910390a35080600160006101000a81548173ffffffffffffffffffffffffffffffffffffffff021916908373ffffffffffffffffffffffffffffffffffffffff1602179055506004600160009054906101000a900473ffffffffffffffffffffffffffffffffffffffff169080600181540180825580915050600190039060005260206000200160009091909190916101000a81548173ffffffffffffffffffffffffffffffffffffffff021916908373ffffffffffffffffffffffffffffffffffffffff16021790555033600260006101000a81548173ffffffffffffffffffffffffffffffffffffffff021916908373ffffffffffffffffffffffffffffffffffffffff160217905550506005855110620001ff57600080fd5b84518651146200020e57600080fd5b60008090505b8551811015620002a6578581815181106200022b57fe5b6020026020010151600c60008984815181106200024457fe5b6020026020010151815260200190815260200160002060006101000a81548173ffffffffffffffffffffffffffffffffffffffff021916908373ffffffffffffffffffffffffffffffffffffffff160217905550808060010191505062000214565b50620002b8876200034e60201b60201c565b85600e9080519060200190620002d092919062000520565b508360088190555082600a9080519060200190620002f092919062000572565b5033600b60006101000a81548173ffffffffffffffffffffffffffffffffffffffff021916908373ffffffffffffffffffffffffffffffffffffffff160217905550816009819055505050505050505062000bfe565b600033905090565b6200035e6200034660201b60201c565b73ffffffffffffffffffffffffffffffffffffffff166000809054906101000a900473ffffffffffffffffffffffffffffffffffffffff1673ffffffffffffffffffffffffffffffffffffffff1614620003ef576040517f08c379a0000000000000000000000000000000000000000000000000000000008152600401620003e690620009f6565b60405180910390fd5b600073ffffffffffffffffffffffffffffffffffffffff168173ffffffffffffffffffffffffffffffffffffffff16141562000462576040517f08c379a00000000000000000000000000000000000000000000000000000000081526004016200045990620009d4565b60405180910390fd5b8073ffffffffffffffffffffffffffffffffffffffff166000809054906101000a900473ffffffffffffffffffffffffffffffffffffffff1673ffffffffffffffffffffffffffffffffffffffff167f8be0079c531659141344cd1fd0a4f28419497f9722a3daafe3b4186f6b6457e060405160405180910390a3806000806101000a81548173ffffffffffffffffffffffffffffffffffffffff021916908373ffffffffffffffffffffffffffffffffffffffff16021790555050565b8280548282559060005260206000209081019282156200055f579160200282015b828111156200055e57825182559160200191906001019062000541565b5b5090506200056e9190620005f9565b5090565b828054600181600116156101000203166002900490600052602060002090601f016020900481019282601f10620005b557805160ff1916838001178555620005e6565b82800160010185558215620005e6579182015b82811115620005e5578251825591602001919060010190620005c8565b5b509050620005f5919062000621565b5090565b6200061e91905b808211156200061a57600081600090555060010162000600565b5090565b90565b6200064691905b808211156200064257600081600090555060010162000628565b5090565b90565b6000815190506200065a8162000b7c565b92915050565b600082601f8301126200067257600080fd5b815162000689620006838262000a46565b62000a18565b91508181835260208401935060208101905083856020840282011115620006af57600080fd5b60005b83811015620006e35781620006c888826200077a565b845260208401935060208301925050600181019050620006b2565b5050505092915050565b600082601f830112620006ff57600080fd5b815162000716620007108262000a6f565b62000a18565b915081818352602084019350602081019050838560208402820111156200073c57600080fd5b60005b8381101562000770578162000755888262000791565b8452602084019350602083019250506001810190506200073f565b5050505092915050565b6000815190506200078b8162000b96565b92915050565b600081519050620007a28162000bb0565b92915050565b600081519050620007b98162000bca565b92915050565b600082601f830112620007d157600080fd5b8151620007e8620007e28262000a98565b62000a18565b915080825260208301602083018583830111156200080557600080fd5b6200081283828462000b46565b50505092915050565b6000815190506200082c8162000be4565b92915050565b600080600080600080600060e0888a0312156200084e57600080fd5b60006200085e8a828b0162000649565b975050602088015167ffffffffffffffff8111156200087c57600080fd5b6200088a8a828b0162000660565b965050604088015167ffffffffffffffff811115620008a857600080fd5b620008b68a828b01620006ed565b9550506060620008c98a828b016200081b565b945050608088015167ffffffffffffffff811115620008e757600080fd5b620008f58a828b01620007bf565b93505060a0620009088a828b016200081b565b92505060c06200091b8a828b01620007a8565b91505092959891949750929550565b60006200093960268362000ac5565b91507f4f776e61626c653a206e6577206f776e657220697320746865207a65726f206160008301527f64647265737300000000000000000000000000000000000000000000000000006020830152604082019050919050565b6000620009a160208362000ac5565b91507f4f776e61626c653a2063616c6c6572206973206e6f7420746865206f776e65726000830152602082019050919050565b60006020820190508181036000830152620009ef816200092a565b9050919050565b6000602082019050818103600083015262000a118162000992565b9050919050565b6000604051905081810181811067ffffffffffffffff8211171562000a3c57600080fd5b8060405250919050565b600067ffffffffffffffff82111562000a5e57600080fd5b602082029050602081019050919050565b600067ffffffffffffffff82111562000a8757600080fd5b602082029050602081019050919050565b600067ffffffffffffffff82111562000ab057600080fd5b601f19601f8301169050602081019050919050565b600082825260208201905092915050565b600062000ae38262000b1c565b9050919050565b6000819050919050565b600062000b018262000ad6565b9050919050565b600062000b158262000ad6565b9050919050565b600073ffffffffffffffffffffffffffffffffffffffff82169050919050565b6000819050919050565b60005b8381101562000b6657808201518184015260208101905062000b49565b8381111562000b76576000848401525b50505050565b62000b878162000ad6565b811462000b9357600080fd5b50565b62000ba18162000aea565b811462000bad57600080fd5b50565b62000bbb8162000af4565b811462000bc757600080fd5b50565b62000bd58162000b08565b811462000be157600080fd5b50565b62000bef8162000b3c565b811462000bfb57600080fd5b50565b613a9a8062000c0e6000396000f3fe608060405234801561001057600080fd5b50600436106101735760003560e01c806394199c61116100de578063e7ab816a11610097578063f2fde38b11610071578063f2fde38b14610440578063f3fef3a31461045c578063fc875ece14610478578063fd5e6dd1146104a957610173565b8063e7ab816a146103be578063ea4a1104146103dc578063f10bd7721461041057610173565b806394199c61146102d6578063ae169a5014610308578063b0227b4714610324578063b83e023414610354578063c623674f14610384578063cec534d6146103a257610173565b8063715018a611610130578063715018a61461023a57806375fdf2a9146102445780637b10399914610260578063817b1cd21461027e578063869c39251461029c5780638da5cb5b146102b857610173565b806302e8b89314610178578063171e44ea146101a85780633a4b66f1146101c45780633a5381b5146101e257806353e85fd5146102005780635f4efaba1461021c575b600080fd5b610192600480360381019061018d9190612dae565b6104d9565b60405161019f919061351d565b60405180910390f35b6101c260048036038101906101bd9190612cd1565b610569565b005b6101cc610665565b6040516101d99190613752565b60405180910390f35b6101ea61066b565b6040516101f79190613479565b60405180910390f35b61021a60048036038101906102159190612e8b565b610691565b005b610224610a90565b6040516102319190613575565b60405180910390f35b610242610ab6565b005b61025e60048036038101906102599190612d36565b610c0b565b005b610268611298565b604051610275919061353f565b60405180910390f35b6102866112be565b6040516102939190613752565b60405180910390f35b6102b660048036038101906102b19190612e13565b6112c4565b005b6102c0611598565b6040516102cd9190613479565b60405180910390f35b6102f060048036038101906102eb9190612dd7565b6115c1565b6040516102ff93929190613796565b60405180910390f35b610322600480360381019061031d9190612e8b565b611605565b005b61033e60048036038101906103399190612dae565b6119dc565b60405161034b919061355a565b60405180910390f35b61036e60048036038101906103699190612cd1565b611a0f565b60405161037b9190613752565b60405180910390f35b61038c611a27565b6040516103999190613590565b60405180910390f35b6103bc60048036038101906103b79190612eb4565b611ac5565b005b6103c6611e8c565b6040516103d39190613752565b60405180910390f35b6103f660048036038101906103f19190612e8b565b611e96565b6040516104079594939291906137cd565b60405180910390f35b61042a60048036038101906104259190612cfa565b611ef3565b6040516104379190613752565b60405180910390f35b61045a60048036038101906104559190612cd1565b612052565b005b61047660048036038101906104719190612cfa565b612216565b005b610492600480360381019061048d9190612e8b565b612727565b6040516104a092919061376d565b60405180910390f35b6104c360048036038101906104be9190612e8b565b612771565b6040516104d09190613479565b60405180910390f35b6060600d6000838152602001908152602001600020805480602002602001604051908101604052809291908181526020016000905b8282101561055e578382906000526020600020906003020160405180606001604052908160008201548152602001600182015481526020016002820154815250508152602001906001019061050e565b505050509050919050565b6105716127ad565b73ffffffffffffffffffffffffffffffffffffffff166000809054906101000a900473ffffffffffffffffffffffffffffffffffffffff1673ffffffffffffffffffffffffffffffffffffffff16146105ff576040517f08c379a00000000000000000000000000000000000000000000000000000000081526004016105f6906136b2565b60405180910390fd5b6004819080600181540180825580915050600190039060005260206000200160009091909190916101000a81548173ffffffffffffffffffffffffffffffffffffffff021916908373ffffffffffffffffffffffffffffffffffffffff16021790555050565b60085481565b600260009054906101000a900473ffffffffffffffffffffffffffffffffffffffff1681565b806005818154811061069f57fe5b90600052602060002090600602016000015442101580156106de5750600581815481106106c857fe5b9060005260206000209060060201600101544211155b6106e757600080fd5b600260009054906101000a900473ffffffffffffffffffffffffffffffffffffffff1673ffffffffffffffffffffffffffffffffffffffff163373ffffffffffffffffffffffffffffffffffffffff161415610778576040517f08c379a000000000000000000000000000000000000000000000000000000000815260040161076f90613632565b60405180910390fd5b60028081111561078457fe5b6005838154811061079157fe5b906000526020600020906006020160030160019054906101000a900460ff1660028111156107bb57fe5b146107fb576040517f08c379a00000000000000000000000000000000000000000000000000000000081526004016107f2906135d2565b60405180910390fd5b60006005838154811061080a57fe5b906000526020600020906006020160050160003373ffffffffffffffffffffffffffffffffffffffff1673ffffffffffffffffffffffffffffffffffffffff1681526020019081526020016000205414610899576040517f08c379a000000000000000000000000000000000000000000000000000000000815260040161089090613732565b60405180910390fd5b60006108a53384611ef3565b905060006108d0600a6108c26003856127b590919063ffffffff16565b61282590919063ffffffff16565b90506108e78260075461286f90919063ffffffff16565b60078190555081600585815481106108fb57fe5b906000526020600020906006020160050160003373ffffffffffffffffffffffffffffffffffffffff1673ffffffffffffffffffffffffffffffffffffffff16815260200190815260200160002081905550600160009054906101000a900473ffffffffffffffffffffffffffffffffffffffff1673ffffffffffffffffffffffffffffffffffffffff1663a9059cbb33846040518363ffffffff1660e01b81526004016109aa9291906134cb565b602060405180830381600087803b1580156109c457600080fd5b505af11580156109d8573d6000803e3d6000fd5b505050506040513d601f19601f820116820180604052508101906109fc9190612d85565b50600160009054906101000a900473ffffffffffffffffffffffffffffffffffffffff1673ffffffffffffffffffffffffffffffffffffffff166342966c68826040518263ffffffff1660e01b8152600401610a589190613752565b600060405180830381600087803b158015610a7257600080fd5b505af1158015610a86573d6000803e3d6000fd5b5050505050505050565b600160009054906101000a900473ffffffffffffffffffffffffffffffffffffffff1681565b610abe6127ad565b73ffffffffffffffffffffffffffffffffffffffff166000809054906101000a900473ffffffffffffffffffffffffffffffffffffffff1673ffffffffffffffffffffffffffffffffffffffff1614610b4c576040517f08c379a0000000000000000000000000000000000000000000000000000000008152600401610b43906136b2565b60405180910390fd5b600073ffffffffffffffffffffffffffffffffffffffff166000809054906101000a900473ffffffffffffffffffffffffffffffffffffffff1673ffffffffffffffffffffffffffffffffffffffff167f8be0079c531659141344cd1fd0a4f28419497f9722a3daafe3b4186f6b6457e060405160405180910390a360008060006101000a81548173ffffffffffffffffffffffffffffffffffffffff021916908373ffffffffffffffffffffffffffffffffffffffff160217905550565b600260009054906101000a900473ffffffffffffffffffffffffffffffffffffffff1673ffffffffffffffffffffffffffffffffffffffff163373ffffffffffffffffffffffffffffffffffffffff161415610c9c576040517f08c379a0000000000000000000000000000000000000000000000000000000008152600401610c9390613632565b60405180910390fd5b600060058281548110610cab57fe5b906000526020600020906006020160040160008573ffffffffffffffffffffffffffffffffffffffff1673ffffffffffffffffffffffffffffffffffffffff16815260200190815260200160002060003373ffffffffffffffffffffffffffffffffffffffff1673ffffffffffffffffffffffffffffffffffffffff1681526020019081526020016000205411610d77576040517f08c379a0000000000000000000000000000000000000000000000000000000008152600401610d6e90613652565b60405180910390fd5b610d80836128b9565b610dbf576040517f08c379a0000000000000000000000000000000000000000000000000000000008152600401610db6906136f2565b60405180910390fd5b8273ffffffffffffffffffffffffffffffffffffffff1663095ea7b330846040518363ffffffff1660e01b8152600401610dfa9291906134f4565b602060405180830381600087803b158015610e1457600080fd5b505af1158015610e28573d6000803e3d6000fd5b505050506040513d601f19601f82011682018060405250810190610e4c9190612d85565b508273ffffffffffffffffffffffffffffffffffffffff166323b872dd3330856040518463ffffffff1660e01b8152600401610e8a93929190613494565b602060405180830381600087803b158015610ea457600080fd5b505af1158015610eb8573d6000803e3d6000fd5b505050506040513d601f19601f82011682018060405250810190610edc9190612d85565b50610f888260058381548110610eee57fe5b906000526020600020906006020160040160008673ffffffffffffffffffffffffffffffffffffffff1673ffffffffffffffffffffffffffffffffffffffff16815260200190815260200160002060003373ffffffffffffffffffffffffffffffffffffffff1673ffffffffffffffffffffffffffffffffffffffff1681526020019081526020016000205461295b90919063ffffffff16565b60058281548110610f9557fe5b906000526020600020906006020160040160008573ffffffffffffffffffffffffffffffffffffffff1673ffffffffffffffffffffffffffffffffffffffff16815260200190815260200160002060003373ffffffffffffffffffffffffffffffffffffffff1673ffffffffffffffffffffffffffffffffffffffff168152602001908152602001600020819055506110398260075461295b90919063ffffffff16565b60078190555060006005828154811061104e57fe5b906000526020600020906006020160040160008573ffffffffffffffffffffffffffffffffffffffff1673ffffffffffffffffffffffffffffffffffffffff16815260200190815260200160002060003373ffffffffffffffffffffffffffffffffffffffff1673ffffffffffffffffffffffffffffffffffffffff1681526020019081526020016000205490506000611114600380549050600585815481106110f457fe5b90600052602060002090600602016002015461282590919063ffffffff16565b905060006005848154811061112557fe5b906000526020600020906006020160040160008773ffffffffffffffffffffffffffffffffffffffff1673ffffffffffffffffffffffffffffffffffffffff16815260200190815260200160002060003373ffffffffffffffffffffffffffffffffffffffff1673ffffffffffffffffffffffffffffffffffffffff168152602001908152602001600020819055506111c98260075461286f90919063ffffffff16565b600781905550600160009054906101000a900473ffffffffffffffffffffffffffffffffffffffff1673ffffffffffffffffffffffffffffffffffffffff1663a9059cbb33611221848661286f90919063ffffffff16565b6040518363ffffffff1660e01b815260040161123e9291906134cb565b602060405180830381600087803b15801561125857600080fd5b505af115801561126c573d6000803e3d6000fd5b505050506040513d601f19601f820116820180604052508101906112909190612d85565b505050505050565b600b60009054906101000a900473ffffffffffffffffffffffffffffffffffffffff1681565b60075481565b600b60009054906101000a900473ffffffffffffffffffffffffffffffffffffffff1673ffffffffffffffffffffffffffffffffffffffff16633cb747bf6040518163ffffffff1660e01b815260040160206040518083038186803b15801561132c57600080fd5b505afa158015611340573d6000803e3d6000fd5b505050506040513d601f19601f820116820180604052508101906113649190612e62565b73ffffffffffffffffffffffffffffffffffffffff163373ffffffffffffffffffffffffffffffffffffffff161461139b57600080fd5b600d6000848152602001908152602001600020604051806060016040528042815260200184815260200183815250908060018154018082558091505060019003906000526020600020906003020160009091909190915060008201518160000155602082015181600101556040820151816002015550507fc95987c1992805ee34bdc915e017cceae36ba1c156b9911fa7e691e6435eb46e42838360405161144593929190613796565b60405180910390a1600c600084815260200190815260200160002060009054906101000a900473ffffffffffffffffffffffffffffffffffffffff1673ffffffffffffffffffffffffffffffffffffffff1663868d08f7836040518263ffffffff1660e01b81526004016114b99190613752565b60206040518083038186803b1580156114d157600080fd5b505afa1580156114e5573d6000803e3d6000fd5b505050506040513d601f19601f820116820180604052508101906115099190612d85565b6115525760026005828154811061151c57fe5b906000526020600020906006020160030160016101000a81548160ff0219169083600281111561154857fe5b0217905550611593565b60016005828154811061156157fe5b906000526020600020906006020160030160016101000a81548160ff0219169083600281111561158d57fe5b02179055505b505050565b60008060009054906101000a900473ffffffffffffffffffffffffffffffffffffffff16905090565b600d60205281600052604060002081815481106115da57fe5b9060005260206000209060030201600091509150508060000154908060010154908060020154905083565b806005818154811061161357fe5b906000526020600020906006020160000154421015801561165257506005818154811061163c57fe5b9060005260206000209060060201600101544211155b61165b57600080fd5b600260009054906101000a900473ffffffffffffffffffffffffffffffffffffffff1673ffffffffffffffffffffffffffffffffffffffff163373ffffffffffffffffffffffffffffffffffffffff16146116eb576040517f08c379a00000000000000000000000000000000000000000000000000000000081526004016116e290613712565b60405180910390fd5b600160028111156116f857fe5b6005838154811061170557fe5b906000526020600020906006020160030160019054906101000a900460ff16600281111561172f57fe5b1461176f576040517f08c379a0000000000000000000000000000000000000000000000000000000008152600401611766906135b2565b60405180910390fd5b6005828154811061177c57fe5b906000526020600020906006020160030160009054906101000a900460ff16156117db576040517f08c379a00000000000000000000000000000000000000000000000000000000081526004016117d290613672565b60405180910390fd5b60006117f760058054905060075461282590919063ffffffff16565b90506000611822600a6118146003856127b590919063ffffffff16565b61282590919063ffffffff16565b90506118398260075461286f90919063ffffffff16565b600781905550816005858154811061184d57fe5b90600052602060002090600602016002018190555060016005858154811061187157fe5b906000526020600020906006020160030160006101000a81548160ff021916908315150217905550600160009054906101000a900473ffffffffffffffffffffffffffffffffffffffff1673ffffffffffffffffffffffffffffffffffffffff1663a9059cbb33846040518363ffffffff1660e01b81526004016118f69291906134cb565b602060405180830381600087803b15801561191057600080fd5b505af1158015611924573d6000803e3d6000fd5b505050506040513d601f19601f820116820180604052508101906119489190612d85565b50600160009054906101000a900473ffffffffffffffffffffffffffffffffffffffff1673ffffffffffffffffffffffffffffffffffffffff166342966c68826040518263ffffffff1660e01b81526004016119a49190613752565b600060405180830381600087803b1580156119be57600080fd5b505af11580156119d2573d6000803e3d6000fd5b5050505050505050565b600c6020528060005260406000206000915054906101000a900473ffffffffffffffffffffffffffffffffffffffff1681565b60066020528060005260406000206000915090505481565b600a8054600181600116156101000203166002900480601f016020809104026020016040519081016040528092919081815260200182805460018160011615610100020316600290048015611abd5780601f10611a9257610100808354040283529160200191611abd565b820191906000526020600020905b815481529060010190602001808311611aa057829003601f168201915b505050505081565b60008311611b08576040517f08c379a0000000000000000000000000000000000000000000000000000000008152600401611aff906136d2565b60405180910390fd5b611b11826128b9565b611b50576040517f08c379a0000000000000000000000000000000000000000000000000000000008152600401611b47906136f2565b60405180910390fd5b611b5b3383836129b0565b8173ffffffffffffffffffffffffffffffffffffffff1663095ea7b330856040518363ffffffff1660e01b8152600401611b969291906134f4565b602060405180830381600087803b158015611bb057600080fd5b505af1158015611bc4573d6000803e3d6000fd5b505050506040513d601f19601f82011682018060405250810190611be89190612d85565b508173ffffffffffffffffffffffffffffffffffffffff166323b872dd3330866040518463ffffffff1660e01b8152600401611c2693929190613494565b602060405180830381600087803b158015611c4057600080fd5b505af1158015611c54573d6000803e3d6000fd5b505050506040513d601f19601f82011682018060405250810190611c789190612d85565b50611d248360058381548110611c8a57fe5b906000526020600020906006020160040160008573ffffffffffffffffffffffffffffffffffffffff1673ffffffffffffffffffffffffffffffffffffffff16815260200190815260200160002060003373ffffffffffffffffffffffffffffffffffffffff1673ffffffffffffffffffffffffffffffffffffffff1681526020019081526020016000205461295b90919063ffffffff16565b60058281548110611d3157fe5b906000526020600020906006020160040160008473ffffffffffffffffffffffffffffffffffffffff1673ffffffffffffffffffffffffffffffffffffffff16815260200190815260200160002060003373ffffffffffffffffffffffffffffffffffffffff1673ffffffffffffffffffffffffffffffffffffffff16815260200190815260200160002081905550611dd58360075461295b90919063ffffffff16565b6007819055506001600660003373ffffffffffffffffffffffffffffffffffffffff1673ffffffffffffffffffffffffffffffffffffffff168152602001908152602001600020541415611e87576003339080600181540180825580915050600190039060005260206000200160009091909190916101000a81548173ffffffffffffffffffffffffffffffffffffffff021916908373ffffffffffffffffffffffffffffffffffffffff1602179055505b505050565b6000600954905090565b60058181548110611ea357fe5b90600052602060002090600602016000915090508060000154908060010154908060020154908060030160009054906101000a900460ff16908060030160019054906101000a900460ff16905085565b600080600090506000600660008673ffffffffffffffffffffffffffffffffffffffff1673ffffffffffffffffffffffffffffffffffffffff1681526020019081526020016000205411156120485760008090505b6004805490508110156120465761203760058581548110611f6557fe5b9060005260206000209060060201600401600060048481548110611f8557fe5b9060005260206000200160009054906101000a900473ffffffffffffffffffffffffffffffffffffffff1673ffffffffffffffffffffffffffffffffffffffff1673ffffffffffffffffffffffffffffffffffffffff16815260200190815260200160002060008773ffffffffffffffffffffffffffffffffffffffff1673ffffffffffffffffffffffffffffffffffffffff168152602001908152602001600020548361295b90919063ffffffff16565b91508080600101915050611f48565b505b8091505092915050565b61205a6127ad565b73ffffffffffffffffffffffffffffffffffffffff166000809054906101000a900473ffffffffffffffffffffffffffffffffffffffff1673ffffffffffffffffffffffffffffffffffffffff16146120e8576040517f08c379a00000000000000000000000000000000000000000000000000000000081526004016120df906136b2565b60405180910390fd5b600073ffffffffffffffffffffffffffffffffffffffff168173ffffffffffffffffffffffffffffffffffffffff161415612158576040517f08c379a000000000000000000000000000000000000000000000000000000000815260040161214f906135f2565b60405180910390fd5b8073ffffffffffffffffffffffffffffffffffffffff166000809054906101000a900473ffffffffffffffffffffffffffffffffffffffff1673ffffffffffffffffffffffffffffffffffffffff167f8be0079c531659141344cd1fd0a4f28419497f9722a3daafe3b4186f6b6457e060405160405180910390a3806000806101000a81548173ffffffffffffffffffffffffffffffffffffffff021916908373ffffffffffffffffffffffffffffffffffffffff16021790555050565b600260009054906101000a900473ffffffffffffffffffffffffffffffffffffffff1673ffffffffffffffffffffffffffffffffffffffff163373ffffffffffffffffffffffffffffffffffffffff1614156122a7576040517f08c379a000000000000000000000000000000000000000000000000000000000815260040161229e90613632565b60405180910390fd5b6000600582815481106122b657fe5b906000526020600020906006020160040160008473ffffffffffffffffffffffffffffffffffffffff1673ffffffffffffffffffffffffffffffffffffffff16815260200190815260200160002060003373ffffffffffffffffffffffffffffffffffffffff1673ffffffffffffffffffffffffffffffffffffffff1681526020019081526020016000205411612382576040517f08c379a000000000000000000000000000000000000000000000000000000000815260040161237990613652565b60405180910390fd5b61238b826128b9565b6123ca576040517f08c379a00000000000000000000000000000000000000000000000000000000081526004016123c1906136f2565b60405180910390fd5b6000600582815481106123d957fe5b906000526020600020906006020160040160008473ffffffffffffffffffffffffffffffffffffffff1673ffffffffffffffffffffffffffffffffffffffff16815260200190815260200160002060003373ffffffffffffffffffffffffffffffffffffffff1673ffffffffffffffffffffffffffffffffffffffff168152602001908152602001600020549050600061249f6003805490506005858154811061247f57fe5b90600052602060002090600602016002015461282590919063ffffffff16565b90506000600584815481106124b057fe5b906000526020600020906006020160040160008673ffffffffffffffffffffffffffffffffffffffff1673ffffffffffffffffffffffffffffffffffffffff16815260200190815260200160002060003373ffffffffffffffffffffffffffffffffffffffff1673ffffffffffffffffffffffffffffffffffffffff168152602001908152602001600020819055506125548260075461286f90919063ffffffff16565b6007819055508373ffffffffffffffffffffffffffffffffffffffff1663a9059cbb3361258a848661286f90919063ffffffff16565b6040518363ffffffff1660e01b81526004016125a79291906134cb565b602060405180830381600087803b1580156125c157600080fd5b505af11580156125d5573d6000803e3d6000fd5b505050506040513d601f19601f820116820180604052508101906125f99190612d85565b5061264d6001600660003373ffffffffffffffffffffffffffffffffffffffff1673ffffffffffffffffffffffffffffffffffffffff1681526020019081526020016000205461286f90919063ffffffff16565b600660003373ffffffffffffffffffffffffffffffffffffffff1673ffffffffffffffffffffffffffffffffffffffff168152602001908152602001600020819055506000600660003373ffffffffffffffffffffffffffffffffffffffff1673ffffffffffffffffffffffffffffffffffffffff1681526020019081526020016000205414156127215760006126e333612aec565b9050600381815481106126f257fe5b9060005260206000200160006101000a81549073ffffffffffffffffffffffffffffffffffffffff0219169055505b50505050565b6000806005838154811061273757fe5b9060005260206000209060060201600001546005848154811061275657fe5b90600052602060002090600602016001015491509150915091565b6003818154811061277e57fe5b906000526020600020016000915054906101000a900473ffffffffffffffffffffffffffffffffffffffff1681565b600033905090565b6000808314156127c8576000905061281f565b60008284029050828482816127d957fe5b041461281a576040517f08c379a000000000000000000000000000000000000000000000000000000000815260040161281190613692565b60405180910390fd5b809150505b92915050565b600061286783836040518060400160405280601a81526020017f536166654d6174683a206469766973696f6e206279207a65726f000000000000815250612bac565b905092915050565b60006128b183836040518060400160405280601e81526020017f536166654d6174683a207375627472616374696f6e206f766572666c6f770000815250612c0d565b905092915050565b600080600090505b600480549050811015612950578273ffffffffffffffffffffffffffffffffffffffff16600482815481106128f257fe5b9060005260206000200160009054906101000a900473ffffffffffffffffffffffffffffffffffffffff1673ffffffffffffffffffffffffffffffffffffffff161415612943576001915050612956565b80806001019150506128c1565b50600090505b919050565b6000808284019050838110156129a6576040517f08c379a000000000000000000000000000000000000000000000000000000000815260040161299d90613612565b60405180910390fd5b8091505092915050565b6000600582815481106129bf57fe5b906000526020600020906006020160040160008473ffffffffffffffffffffffffffffffffffffffff1673ffffffffffffffffffffffffffffffffffffffff16815260200190815260200160002060008573ffffffffffffffffffffffffffffffffffffffff1673ffffffffffffffffffffffffffffffffffffffff1681526020019081526020016000205411612ae757612aa36001600660008673ffffffffffffffffffffffffffffffffffffffff1673ffffffffffffffffffffffffffffffffffffffff1681526020019081526020016000205461295b90919063ffffffff16565b600660008573ffffffffffffffffffffffffffffffffffffffff1673ffffffffffffffffffffffffffffffffffffffff168152602001908152602001600020819055505b505050565b600080600090505b600380549050811015612b82578273ffffffffffffffffffffffffffffffffffffffff1660038281548110612b2557fe5b9060005260206000200160009054906101000a900473ffffffffffffffffffffffffffffffffffffffff1673ffffffffffffffffffffffffffffffffffffffff161415612b755780915050612ba7565b8080600101915050612af4565b507fffffffffffffffffffffffffffffffffffffffffffffffffffffffffffffffff90505b919050565b60008083118290612bf3576040517f08c379a0000000000000000000000000000000000000000000000000000000008152600401612bea9190613590565b60405180910390fd5b506000838581612bff57fe5b049050809150509392505050565b6000838311158290612c55576040517f08c379a0000000000000000000000000000000000000000000000000000000008152600401612c4c9190613590565b60405180910390fd5b5060008385039050809150509392505050565b600081359050612c77816139f1565b92915050565b600081519050612c8c81613a08565b92915050565b600081359050612ca181613a1f565b92915050565b600081519050612cb681613a36565b92915050565b600081359050612ccb81613a4d565b92915050565b600060208284031215612ce357600080fd5b6000612cf184828501612c68565b91505092915050565b60008060408385031215612d0d57600080fd5b6000612d1b85828601612c68565b9250506020612d2c85828601612cbc565b9150509250929050565b600080600060608486031215612d4b57600080fd5b6000612d5986828701612c68565b9350506020612d6a86828701612cbc565b9250506040612d7b86828701612cbc565b9150509250925092565b600060208284031215612d9757600080fd5b6000612da584828501612c7d565b91505092915050565b600060208284031215612dc057600080fd5b6000612dce84828501612c92565b91505092915050565b60008060408385031215612dea57600080fd5b6000612df885828601612c92565b9250506020612e0985828601612cbc565b9150509250929050565b600080600060608486031215612e2857600080fd5b6000612e3686828701612c92565b9350506020612e4786828701612cbc565b9250506040612e5886828701612cbc565b9150509250925092565b600060208284031215612e7457600080fd5b6000612e8284828501612ca7565b91505092915050565b600060208284031215612e9d57600080fd5b6000612eab84828501612cbc565b91505092915050565b600080600060608486031215612ec957600080fd5b6000612ed786828701612cbc565b9350506020612ee886828701612c68565b9250506040612ef986828701612cbc565b9150509250925092565b6000612f0f8383613419565b60608301905092915050565b612f24816138ec565b82525050565b612f3381613875565b82525050565b6000612f4482613830565b612f4e8185613853565b9350612f5983613820565b8060005b83811015612f8a578151612f718882612f03565b9750612f7c83613846565b925050600181019050612f5d565b5085935050505092915050565b612fa081613887565b82525050565b612faf816138fe565b82525050565b612fbe81613922565b82525050565b612fcd81613946565b82525050565b612fdc8161396a565b82525050565b6000612fed8261383b565b612ff78185613864565b93506130078185602086016139a0565b613010816139d3565b840191505092915050565b6000613028601383613864565b91507f534c41206e6f74207265737065637465642021000000000000000000000000006000830152602082019050919050565b6000613068600f83613864565b91507f534c4120726573706563746564202100000000000000000000000000000000006000830152602082019050919050565b60006130a8602683613864565b91507f4f776e61626c653a206e6577206f776e657220697320746865207a65726f206160008301527f64647265737300000000000000000000000000000000000000000000000000006020830152604082019050919050565b600061310e601b83613864565b91507f536166654d6174683a206164646974696f6e206f766572666c6f7700000000006000830152602082019050919050565b600061314e601583613864565b91507f596f752061726520612076616c696461746f72202100000000000000000000006000830152602082019050919050565b600061318e601b83613864565b91507f7374616b696e672062616c616e63652063616e6e6f74206265203000000000006000830152602082019050919050565b60006131ce603683613864565b91507f596f75206861766520616c726561647920636c61696d656420796f757220726560008301527f7761726420666f72207468697320706572696f642021000000000000000000006020830152604082019050919050565b6000613234602183613864565b91507f536166654d6174683a206d756c7469706c69636174696f6e206f766572666c6f60008301527f77000000000000000000000000000000000000000000000000000000000000006020830152604082019050919050565b600061329a602083613864565b91507f4f776e61626c653a2063616c6c6572206973206e6f7420746865206f776e65726000830152602082019050919050565b60006132da601283613864565b91507f616d6f756e742063616e6e6f74206265203000000000000000000000000000006000830152602082019050919050565b600061331a602683613864565b91507f746f6b656e2073686f756c64206265206175746f726973656420746f2062652060008301527f7374616b656400000000000000000000000000000000000000000000000000006020830152604082019050919050565b6000613380601983613864565b91507f596f7520617265206e6f7420612076616c696461746f722021000000000000006000830152602082019050919050565b60006133c0603c83613864565b91507f596f75206861766520616c726561647920636c61696d656420796f757220636f60008301527f6d70656e736174696f6e20666f72207468697320706572696f642021000000006020830152604082019050919050565b60608201600082015161342f600085018261345b565b506020820151613442602085018261345b565b506040820151613455604085018261345b565b50505050565b613464816138e2565b82525050565b613473816138e2565b82525050565b600060208201905061348e6000830184612f2a565b92915050565b60006060820190506134a96000830186612f1b565b6134b66020830185612f2a565b6134c3604083018461346a565b949350505050565b60006040820190506134e06000830185612f1b565b6134ed602083018461346a565b9392505050565b60006040820190506135096000830185612f2a565b613516602083018461346a565b9392505050565b600060208201905081810360008301526135378184612f39565b905092915050565b60006020820190506135546000830184612fa6565b92915050565b600060208201905061356f6000830184612fb5565b92915050565b600060208201905061358a6000830184612fc4565b92915050565b600060208201905081810360008301526135aa8184612fe2565b905092915050565b600060208201905081810360008301526135cb8161301b565b9050919050565b600060208201905081810360008301526135eb8161305b565b9050919050565b6000602082019050818103600083015261360b8161309b565b9050919050565b6000602082019050818103600083015261362b81613101565b9050919050565b6000602082019050818103600083015261364b81613141565b9050919050565b6000602082019050818103600083015261366b81613181565b9050919050565b6000602082019050818103600083015261368b816131c1565b9050919050565b600060208201905081810360008301526136ab81613227565b9050919050565b600060208201905081810360008301526136cb8161328d565b9050919050565b600060208201905081810360008301526136eb816132cd565b9050919050565b6000602082019050818103600083015261370b8161330d565b9050919050565b6000602082019050818103600083015261372b81613373565b9050919050565b6000602082019050818103600083015261374b816133b3565b9050919050565b6000602082019050613767600083018461346a565b92915050565b6000604082019050613782600083018561346a565b61378f602083018461346a565b9392505050565b60006060820190506137ab600083018661346a565b6137b8602083018561346a565b6137c5604083018461346a565b949350505050565b600060a0820190506137e2600083018861346a565b6137ef602083018761346a565b6137fc604083018661346a565b6138096060830185612f97565b6138166080830184612fd3565b9695505050505050565b6000819050602082019050919050565b600081519050919050565b600081519050919050565b6000602082019050919050565b600082825260208201905092915050565b600082825260208201905092915050565b6000613880826138c2565b9050919050565b60008115159050919050565b6000819050919050565b60006138a882613875565b9050919050565b60008190506138bd826139e4565b919050565b600073ffffffffffffffffffffffffffffffffffffffff82169050919050565b6000819050919050565b60006138f78261397c565b9050919050565b600061390982613910565b9050919050565b600061391b826138c2565b9050919050565b600061392d82613934565b9050919050565b600061393f826138c2565b9050919050565b600061395182613958565b9050919050565b6000613963826138c2565b9050919050565b6000613975826138af565b9050919050565b60006139878261398e565b9050919050565b6000613999826138c2565b9050919050565b60005b838110156139be5780820151818401526020810190506139a3565b838111156139cd576000848401525b50505050565b6000601f19601f8301169050919050565b600381106139ee57fe5b50565b6139fa81613875565b8114613a0557600080fd5b50565b613a1181613887565b8114613a1c57600080fd5b50565b613a2881613893565b8114613a3357600080fd5b50565b613a3f8161389d565b8114613a4a57600080fd5b50565b613a56816138e2565b8114613a6157600080fd5b5056fea2646970667358221220cef90e90602bb5be01e1ad7fb93e23ba40a15372a9b2968c7bf5822d00f709c964736f6c63430006060033",
  "immutableReferences": {},
  "source": "// SPDX-License-Identifier: MIT\npragma solidity 0.6.6;\npragma experimental ABIEncoderV2;\n\nimport \"@openzeppelin/contracts/access/Ownable.sol\";\nimport \"@openzeppelin/contracts/token/ERC20/IERC20.sol\";\nimport \"@openzeppelin/contracts/math/SafeMath.sol\";\nimport \"../interfaces/IMessenger.sol\";\nimport \"../Whitelist/Whitelist.sol\";\nimport \"../SLO/SLO.sol\";\nimport \"../SLARegistry.sol\";\nimport \"./Staking.sol\";\n\n/**\n * @title SLA\n * @dev SLA is a service level agreement contract used for service downtime\n * compensation\n */\ncontract SLA is Ownable, Staking {\n\n    using SafeMath for uint256;\n\n    // The required amount to stake when subscribing to the agreement\n    uint256 public stake;\n\n    // The time between SLI registration\n    uint256 private sliInterval;\n\n    // The ipfs hash that stores extra information about the agreement\n    string public ipfsHash;\n\n    // The address of the registry contract\n    SLARegistry public registry;\n\n    // Struct used for storing registered SLI's\n    struct SLI {\n        uint256 timestamp;\n        uint256 value;\n        uint256 periodId;\n    }\n\n    // Mapping to get SLO addresses from SLO names in bytes32\n    mapping(bytes32 => SLO) public SLOs;\n\n    // Mapping to get SLI structs from SLO names in bytes32\n    mapping(bytes32 => SLI[]) public SLIs;\n\n    // Array storing the names of the SLO's of this agreement\n    bytes32[] SLONames;\n\n    /**\n     * @dev event for SLI creation logging\n     * @param _timestamp the time the SLI has been registered\n     * @param _value the value of the SLI\n     * @param _periodId the id of the given period\n     */\n    event SLICreated(uint256 _timestamp, uint256 _value, uint256 _periodId);\n\n\n    /**\n     * @dev Throws if called by any address other than the Oraclize or\n     * messenger contract.\n     */\n    modifier onlyMessenger() {\n        require(msg.sender == address(registry.messenger()));\n        _;\n    }\n    \n    /**\n     * @dev constructor\n     * @param _owner the owner of the service level agreement\n     * @param _SLONames the names of the service level objectives in a bytes32\n     * array\n     * @param _SLOs an array with the service level objective addresses\n     * @param _stake the amount required to stake when subscribing to the\n     * agreement\n     * @param _ipfsHash the ipfs hash that stores extra information about the\n     * agreement\n     */\n    constructor(\n        address _owner,\n        bytes32[] memory _SLONames,\n        SLO[] memory _SLOs,\n        uint256 _stake,\n        string memory _ipfsHash,\n        uint256 _sliInterval,\n        bDSLAToken _tokenAddress\n    )\n    public Staking(_tokenAddress){\n        require(_SLOs.length < 5);\n        require(_SLONames.length == _SLOs.length);\n\n        for(uint256 i = 0; i < _SLOs.length; i++) {\n            SLOs[_SLONames[i]] = _SLOs[i];\n        }\n\n        transferOwnership(_owner);\n        SLONames = _SLONames;\n        stake = _stake;\n        ipfsHash = _ipfsHash;\n        registry = SLARegistry(msg.sender);\n        sliInterval = _sliInterval;\n    }\n\n    /**\n     * @dev external function to register SLI's and check them against the SLO's\n     * @param _SLOName the name of the SLO in bytes32\n     * @param _value the value of the SLI to check\n     * @param _periodId the id of the given period\n     */\n    function registerSLI(bytes32 _SLOName, uint256 _value, uint256 _periodId)\n        external\n        onlyMessenger\n    {\n        SLIs[_SLOName].push(SLI(block.timestamp, _value, _periodId));\n\n        emit SLICreated(block.timestamp, _value, _periodId);\n\n        \n        if(!SLOs[_SLOName].isSLOHonored(_value)) {\n            periods[_periodId].status = Status.NotRespected;\n        }else{\n            periods[_periodId].status = Status.Respected;\n        }\n    }\n\n    /**\n     * @dev external function to get SLI\n     * @param _SLOName the name of the SLO in bytes32\n     */\n    function getSLI(bytes32 _SLOName) public view returns(SLI[] memory) {\n        return SLIs[_SLOName];\n    }\n\n    /**\n     * @dev external view function that returns the sliInterval value\n     */\n    function getSliInterval() external view returns(uint256) {\n        return sliInterval;\n    }\n\n}\n",
  "sourcePath": "/Users/matiasbn/Desktop/stacktical-dsla-contracts/contracts/SLA/SLA.sol",
  "compiler": {
    "name": "solc",
    "version": "0.6.6+commit.6c089d02.Emscripten.clang"
  },
  "schemaVersion": "3.2.5",
  "updatedAt": "2020-11-25T22:56:04.962Z",
  "devdoc": {
    "details": "SLA is a service level agreement contract used for service downtime compensation",
    "methods": {
      "constructor": {
        "details": "constructor",
        "params": {
          "_SLONames": "the names of the service level objectives in a bytes32 array",
          "_SLOs": "an array with the service level objective addresses",
          "_ipfsHash": "the ipfs hash that stores extra information about the agreement",
          "_owner": "the owner of the service level agreement",
          "_stake": "the amount required to stake when subscribing to the agreement"
        }
      },
      "getSLI(bytes32)": {
        "details": "external function to get SLI",
        "params": {
          "_SLOName": "the name of the SLO in bytes32"
        }
      },
      "getSliInterval()": {
        "details": "external view function that returns the sliInterval value"
      },
      "owner()": {
        "details": "Returns the address of the current owner."
      },
      "registerSLI(bytes32,uint256,uint256)": {
        "details": "external function to register SLI's and check them against the SLO's",
        "params": {
          "_SLOName": "the name of the SLO in bytes32",
          "_periodId": "the id of the given period",
          "_value": "the value of the SLI to check"
        }
      },
      "renounceOwnership()": {
        "details": "Leaves the contract without owner. It will not be possible to call `onlyOwner` functions anymore. Can only be called by the current owner.     * NOTE: Renouncing ownership will leave the contract without an owner, thereby removing any functionality that is only available to the owner."
      },
      "transferOwnership(address)": {
        "details": "Transfers ownership of the contract to a new account (`newOwner`). Can only be called by the current owner."
      }
    },
    "title": "SLA"
  },
  "userdoc": {
    "methods": {}
  }
}