{
  "contractName": "SLA",
  "abi": [
    {
      "inputs": [
        {
          "internalType": "address",
          "name": "_owner",
          "type": "address"
        },
        {
          "internalType": "contract SLO",
          "name": "_SLO",
          "type": "address"
        },
        {
          "internalType": "string",
          "name": "_ipfsHash",
          "type": "string"
        },
        {
          "internalType": "address",
          "name": "_messengerAddress",
          "type": "address"
        },
        {
          "internalType": "uint256[]",
          "name": "_periodIds",
          "type": "uint256[]"
        },
        {
          "internalType": "enum PeriodRegistry.PeriodType",
          "name": "_periodType",
          "type": "uint8"
        },
        {
          "internalType": "address",
          "name": "_stakeRegistry",
          "type": "address"
        },
        {
          "internalType": "address",
          "name": "_periodRegistry",
          "type": "address"
        },
        {
          "internalType": "bool",
          "name": "_whitelisted",
          "type": "bool"
        },
        {
          "internalType": "bytes32[]",
          "name": "_extraData",
          "type": "bytes32[]"
        },
        {
          "internalType": "uint256",
          "name": "_slaID",
          "type": "uint256"
        }
      ],
      "stateMutability": "nonpayable",
      "type": "constructor"
    },
    {
      "anonymous": false,
      "inputs": [
        {
          "indexed": true,
          "internalType": "address",
          "name": "previousOwner",
          "type": "address"
        },
        {
          "indexed": true,
          "internalType": "address",
          "name": "newOwner",
          "type": "address"
        }
      ],
      "name": "OwnershipTransferred",
      "type": "event"
    },
    {
      "anonymous": false,
      "inputs": [
        {
          "indexed": true,
          "internalType": "uint256",
          "name": "periodId",
          "type": "uint256"
        },
        {
          "indexed": true,
          "internalType": "address",
          "name": "tokenAddress",
          "type": "address"
        },
        {
          "indexed": false,
          "internalType": "uint256",
          "name": "rewardPercentage",
          "type": "uint256"
        },
        {
          "indexed": false,
          "internalType": "uint256",
          "name": "rewardPercentagePrecision",
          "type": "uint256"
        },
        {
          "indexed": false,
          "internalType": "uint256",
          "name": "rewardAmount",
          "type": "uint256"
        }
      ],
      "name": "ProviderRewardGenerated",
      "type": "event"
    },
    {
      "anonymous": false,
      "inputs": [
        {
          "indexed": false,
          "internalType": "uint256",
          "name": "_periodId",
          "type": "uint256"
        },
        {
          "indexed": false,
          "internalType": "uint256",
          "name": "_sli",
          "type": "uint256"
        }
      ],
      "name": "SLANotRespected",
      "type": "event"
    },
    {
      "anonymous": false,
      "inputs": [
        {
          "indexed": false,
          "internalType": "uint256",
          "name": "timestamp",
          "type": "uint256"
        },
        {
          "indexed": false,
          "internalType": "uint256",
          "name": "sli",
          "type": "uint256"
        },
        {
          "indexed": false,
          "internalType": "uint256",
          "name": "periodId",
          "type": "uint256"
        }
      ],
      "name": "SLICreated",
      "type": "event"
    },
    {
      "inputs": [],
      "name": "DSLAburnRate",
      "outputs": [
        {
          "internalType": "uint256",
          "name": "",
          "type": "uint256"
        }
      ],
      "stateMutability": "view",
      "type": "function"
    },
    {
      "inputs": [
        {
          "internalType": "address",
          "name": "_tokenAddress",
          "type": "address"
        }
      ],
      "name": "_claimCompensation",
      "outputs": [],
      "stateMutability": "nonpayable",
      "type": "function"
    },
    {
      "inputs": [
        {
          "internalType": "address",
          "name": "_tokenAddress",
          "type": "address"
        }
      ],
      "name": "addAllowedTokens",
      "outputs": [],
      "stateMutability": "nonpayable",
      "type": "function"
    },
    {
      "inputs": [
        {
          "internalType": "address",
          "name": "_userAddress",
          "type": "address"
        }
      ],
      "name": "addUserToWhitelist",
      "outputs": [],
      "stateMutability": "nonpayable",
      "type": "function"
    },
    {
      "inputs": [
        {
          "internalType": "uint256",
          "name": "",
          "type": "uint256"
        }
      ],
      "name": "allowedTokens",
      "outputs": [
        {
          "internalType": "address",
          "name": "",
          "type": "address"
        }
      ],
      "stateMutability": "view",
      "type": "function"
    },
    {
      "inputs": [],
      "name": "creationBlockNumber",
      "outputs": [
        {
          "internalType": "uint256",
          "name": "",
          "type": "uint256"
        }
      ],
      "stateMutability": "view",
      "type": "function"
    },
    {
      "inputs": [],
      "name": "cumulatedDevaluation",
      "outputs": [
        {
          "internalType": "uint256",
          "name": "",
          "type": "uint256"
        }
      ],
      "stateMutability": "view",
      "type": "function"
    },
    {
      "inputs": [
        {
          "internalType": "address",
          "name": "",
          "type": "address"
        }
      ],
      "name": "dpTokenRegistry",
      "outputs": [
        {
          "internalType": "contract ERC20PresetMinterPauser",
          "name": "",
          "type": "address"
        }
      ],
      "stateMutability": "view",
      "type": "function"
    },
    {
      "inputs": [],
      "name": "dslaTokenAddress",
      "outputs": [
        {
          "internalType": "address",
          "name": "",
          "type": "address"
        }
      ],
      "stateMutability": "view",
      "type": "function"
    },
    {
      "inputs": [
        {
          "internalType": "address",
          "name": "",
          "type": "address"
        }
      ],
      "name": "duTokenRegistry",
      "outputs": [
        {
          "internalType": "contract ERC20PresetMinterPauser",
          "name": "",
          "type": "address"
        }
      ],
      "stateMutability": "view",
      "type": "function"
    },
    {
      "inputs": [
        {
          "internalType": "uint256",
          "name": "",
          "type": "uint256"
        }
      ],
      "name": "extraData",
      "outputs": [
        {
          "internalType": "bytes32",
          "name": "",
          "type": "bytes32"
        }
      ],
      "stateMutability": "view",
      "type": "function"
    },
    {
      "inputs": [],
      "name": "getAllowedTokensLength",
      "outputs": [
        {
          "internalType": "uint256",
          "name": "",
          "type": "uint256"
        }
      ],
      "stateMutability": "view",
      "type": "function"
    },
    {
      "inputs": [
        {
          "internalType": "address",
          "name": "_staker",
          "type": "address"
        },
        {
          "internalType": "uint256",
          "name": "_allowedTokenIndex",
          "type": "uint256"
        }
      ],
      "name": "getTokenStake",
      "outputs": [
        {
          "internalType": "address",
          "name": "tokenAddress",
          "type": "address"
        },
        {
          "internalType": "uint256",
          "name": "stake",
          "type": "uint256"
        }
      ],
      "stateMutability": "view",
      "type": "function"
    },
    {
      "inputs": [],
      "name": "ipfsHash",
      "outputs": [
        {
          "internalType": "string",
          "name": "",
          "type": "string"
        }
      ],
      "stateMutability": "view",
      "type": "function"
    },
    {
      "inputs": [
        {
          "internalType": "address",
          "name": "_tokenAddress",
          "type": "address"
        }
      ],
      "name": "isAllowedToken",
      "outputs": [
        {
          "internalType": "bool",
          "name": "",
          "type": "bool"
        }
      ],
      "stateMutability": "view",
      "type": "function"
    },
    {
      "inputs": [
        {
          "internalType": "address",
          "name": "_staker",
          "type": "address"
        }
      ],
      "name": "isStaker",
      "outputs": [
        {
          "internalType": "bool",
          "name": "",
          "type": "bool"
        }
      ],
      "stateMutability": "view",
      "type": "function"
    },
    {
      "inputs": [],
      "name": "messengerAddress",
      "outputs": [
        {
          "internalType": "address",
          "name": "",
          "type": "address"
        }
      ],
      "stateMutability": "view",
      "type": "function"
    },
    {
      "inputs": [],
      "name": "minimumDSLAStakedTier1",
      "outputs": [
        {
          "internalType": "uint256",
          "name": "",
          "type": "uint256"
        }
      ],
      "stateMutability": "view",
      "type": "function"
    },
    {
      "inputs": [],
      "name": "minimumDSLAStakedTier2",
      "outputs": [
        {
          "internalType": "uint256",
          "name": "",
          "type": "uint256"
        }
      ],
      "stateMutability": "view",
      "type": "function"
    },
    {
      "inputs": [],
      "name": "minimumDSLAStakedTier3",
      "outputs": [
        {
          "internalType": "uint256",
          "name": "",
          "type": "uint256"
        }
      ],
      "stateMutability": "view",
      "type": "function"
    },
    {
      "inputs": [],
      "name": "nextVerifiablePeriod",
      "outputs": [
        {
          "internalType": "uint256",
          "name": "",
          "type": "uint256"
        }
      ],
      "stateMutability": "view",
      "type": "function"
    },
    {
      "inputs": [],
      "name": "owner",
      "outputs": [
        {
          "internalType": "address",
          "name": "",
          "type": "address"
        }
      ],
      "stateMutability": "view",
      "type": "function"
    },
    {
      "inputs": [
        {
          "internalType": "uint256",
          "name": "",
          "type": "uint256"
        }
      ],
      "name": "periodIds",
      "outputs": [
        {
          "internalType": "uint256",
          "name": "",
          "type": "uint256"
        }
      ],
      "stateMutability": "view",
      "type": "function"
    },
    {
      "inputs": [],
      "name": "periodRegistry",
      "outputs": [
        {
          "internalType": "contract PeriodRegistry",
          "name": "",
          "type": "address"
        }
      ],
      "stateMutability": "view",
      "type": "function"
    },
    {
      "inputs": [
        {
          "internalType": "uint256",
          "name": "",
          "type": "uint256"
        }
      ],
      "name": "periodSLIs",
      "outputs": [
        {
          "internalType": "uint256",
          "name": "timestamp",
          "type": "uint256"
        },
        {
          "internalType": "uint256",
          "name": "sli",
          "type": "uint256"
        },
        {
          "internalType": "enum SLA.Status",
          "name": "status",
          "type": "uint8"
        }
      ],
      "stateMutability": "view",
      "type": "function"
    },
    {
      "inputs": [],
      "name": "periodType",
      "outputs": [
        {
          "internalType": "enum PeriodRegistry.PeriodType",
          "name": "",
          "type": "uint8"
        }
      ],
      "stateMutability": "view",
      "type": "function"
    },
    {
      "inputs": [
        {
          "internalType": "address",
          "name": "",
          "type": "address"
        }
      ],
      "name": "providerPool",
      "outputs": [
        {
          "internalType": "uint256",
          "name": "",
          "type": "uint256"
        }
      ],
      "stateMutability": "view",
      "type": "function"
    },
    {
      "inputs": [
        {
          "internalType": "address",
          "name": "_userAddress",
          "type": "address"
        }
      ],
      "name": "removeUserFromWhitelist",
      "outputs": [],
      "stateMutability": "nonpayable",
      "type": "function"
    },
    {
      "inputs": [],
      "name": "renounceOwnership",
      "outputs": [],
      "stateMutability": "nonpayable",
      "type": "function"
    },
    {
      "inputs": [],
      "name": "slaID",
      "outputs": [
        {
          "internalType": "uint256",
          "name": "",
          "type": "uint256"
        }
      ],
      "stateMutability": "view",
      "type": "function"
    },
    {
      "inputs": [],
      "name": "slaPeriodsLength",
      "outputs": [
        {
          "internalType": "uint256",
          "name": "",
          "type": "uint256"
        }
      ],
      "stateMutability": "view",
      "type": "function"
    },
    {
      "inputs": [],
      "name": "slaRegistry",
      "outputs": [
        {
          "internalType": "contract SLARegistry",
          "name": "",
          "type": "address"
        }
      ],
      "stateMutability": "view",
      "type": "function"
    },
    {
      "inputs": [],
      "name": "slo",
      "outputs": [
        {
          "internalType": "contract SLO",
          "name": "",
          "type": "address"
        }
      ],
      "stateMutability": "view",
      "type": "function"
    },
    {
      "inputs": [
        {
          "internalType": "uint256",
          "name": "",
          "type": "uint256"
        }
      ],
      "name": "stakers",
      "outputs": [
        {
          "internalType": "address",
          "name": "",
          "type": "address"
        }
      ],
      "stateMutability": "view",
      "type": "function"
    },
    {
      "inputs": [
        {
          "internalType": "address",
          "name": "newOwner",
          "type": "address"
        }
      ],
      "name": "transferOwnership",
      "outputs": [],
      "stateMutability": "nonpayable",
      "type": "function"
    },
    {
      "inputs": [
        {
          "internalType": "address",
          "name": "",
          "type": "address"
        }
      ],
      "name": "usersPool",
      "outputs": [
        {
          "internalType": "uint256",
          "name": "",
          "type": "uint256"
        }
      ],
      "stateMutability": "view",
      "type": "function"
    },
    {
      "inputs": [
        {
          "internalType": "address",
          "name": "",
          "type": "address"
        }
      ],
      "name": "whitelist",
      "outputs": [
        {
          "internalType": "bool",
          "name": "",
          "type": "bool"
        }
      ],
      "stateMutability": "view",
      "type": "function"
    },
    {
      "inputs": [],
      "name": "whitelistedContract",
      "outputs": [
        {
          "internalType": "bool",
          "name": "",
          "type": "bool"
        }
      ],
      "stateMutability": "view",
      "type": "function"
    },
    {
      "inputs": [
        {
          "internalType": "uint256",
          "name": "_sli",
          "type": "uint256"
        },
        {
          "internalType": "uint256",
          "name": "_periodId",
          "type": "uint256"
        }
      ],
      "name": "registerSLI",
      "outputs": [],
      "stateMutability": "nonpayable",
      "type": "function"
    },
    {
      "inputs": [
        {
          "internalType": "uint256",
          "name": "_periodId",
          "type": "uint256"
        }
      ],
      "name": "isAllowedPeriod",
      "outputs": [
        {
          "internalType": "bool",
          "name": "",
          "type": "bool"
        }
      ],
      "stateMutability": "view",
      "type": "function"
    },
    {
      "inputs": [
        {
          "internalType": "uint256",
          "name": "_amount",
          "type": "uint256"
        },
        {
          "internalType": "address",
          "name": "_token",
          "type": "address"
        }
      ],
      "name": "stakeTokens",
      "outputs": [],
      "stateMutability": "nonpayable",
      "type": "function"
    },
    {
      "inputs": [
        {
          "internalType": "uint256",
          "name": "_amount",
          "type": "uint256"
        },
        {
          "internalType": "address",
          "name": "_tokenAddress",
          "type": "address"
        }
      ],
      "name": "withdrawStakedTokens",
      "outputs": [],
      "stateMutability": "nonpayable",
      "type": "function"
    },
    {
      "inputs": [
        {
          "internalType": "address",
          "name": "_tokenAddress",
          "type": "address"
        }
      ],
      "name": "claimUserCompensation",
      "outputs": [],
      "stateMutability": "nonpayable",
      "type": "function"
    },
    {
      "inputs": [],
      "name": "getPeriodIdsLength",
      "outputs": [
        {
          "internalType": "uint256",
          "name": "",
          "type": "uint256"
        }
      ],
      "stateMutability": "view",
      "type": "function"
    },
    {
      "inputs": [],
      "name": "getStakersLength",
      "outputs": [
        {
          "internalType": "uint256",
          "name": "",
          "type": "uint256"
        }
      ],
      "stateMutability": "view",
      "type": "function"
    },
    {
      "inputs": [],
      "name": "breachedContract",
      "outputs": [
        {
          "internalType": "bool",
          "name": "",
          "type": "bool"
        }
      ],
      "stateMutability": "view",
      "type": "function"
    }
  ],
  "bytecode": "0x6080604052603c600855620f4240600955601a805460ff60a01b191690553480156200002a57600080fd5b506040516200398a3803806200398a8339810160408190526200004d91620006f3565b848487895186856000620000666200036760201b60201c565b600080546001600160a01b0319166001600160a01b0383169081178255604051929350916000805160206200396a833981519152908290a350600180546001600160a01b038089166001600160a01b0319928316178355600280549189169190921617905560118054869260ff1990911690836005811115620000e557fe5b021790555060128390556013805460ff191683151517905560015460408051637b8041cf60e11b815290516000928392839283926001600160a01b03169163f700839e916004808301926080929190829003018186803b1580156200014957600080fd5b505afa1580156200015e573d6000803e3d6000fd5b505050506040513d601f19601f8201168201806040525081019062000184919062000824565b9350935093509350600160009054906101000a90046001600160a01b03166001600160a01b0316638b8e53096040518163ffffffff1660e01b815260040160206040518083038186803b158015620001db57600080fd5b505afa158015620001f0573d6000803e3d6000fd5b505050506040513d601f19601f82011682018060405250810190620002169190620006cd565b600b80546001600160a01b0319166001600160a01b0392909216919091179055600d849055600e839055600f829055601081905562000255336200036b565b505050600391909155506200027294508f9350506200040e915050565b8851620002879060169060208c0190620004bb565b50601a80546001600160a01b03808b166001600160a01b03199283161790925560198054909116331790556017805491861661010002610100600160a81b031990921691909117905543601c558651620002e99060189060208a019062000540565b506017805487919060ff191660018360058111156200030457fe5b0217905550601580546001600160a01b0319166001600160a01b038c1617905581516200033990601d90602085019062000540565b50866000815181106200034857fe5b6020026020010151601e8190555050505050505050505050506200096c565b3390565b6200037562000367565b6000546001600160a01b03908116911614620003ae5760405162461bcd60e51b8152600401620003a590620008d7565b60405180910390fd5b6001600160a01b03811660009081526014602052604090205460ff1615620003ea5760405162461bcd60e51b8152600401620003a5906200085a565b6001600160a01b03166000908152601460205260409020805460ff19166001179055565b6200041862000367565b6000546001600160a01b03908116911614620004485760405162461bcd60e51b8152600401620003a590620008d7565b6001600160a01b038116620004715760405162461bcd60e51b8152600401620003a59062000891565b600080546040516001600160a01b03808516939216916000805160206200396a83398151915291a3600080546001600160a01b0319166001600160a01b0392909216919091179055565b828054600181600116156101000203166002900490600052602060002090601f016020900481019282601f10620004fe57805160ff19168380011785556200052e565b828001600101855582156200052e579182015b828111156200052e57825182559160200191906001019062000511565b506200053c9291506200057d565b5090565b8280548282559060005260206000209081019282156200052e57916020028201828111156200052e57825182559160200191906001019062000511565b5b808211156200053c57600081556001016200057e565b8051620005a18162000953565b92915050565b600082601f830112620005b8578081fd5b8151620005cf620005c98262000933565b6200090c565b818152915060208083019084810181840286018201871015620005f157600080fd5b60005b848110156200061257815184529282019290820190600101620005f4565b505050505092915050565b80518015158114620005a157600080fd5b805160068110620005a157600080fd5b600082601f8301126200064f578081fd5b81516001600160401b0381111562000665578182fd5b60206200067b601f8301601f191682016200090c565b925081835284818386010111156200069257600080fd5b60005b82811015620006b257848101820151848201830152810162000695565b82811115620006c45760008284860101525b50505092915050565b600060208284031215620006df578081fd5b8151620006ec8162000953565b9392505050565b60008060008060008060008060008060006101608c8e03121562000715578687fd5b620007218d8d62000594565b9a50620007328d60208e0162000594565b60408d0151909a506001600160401b038111156200074e578788fd5b6200075c8e828f016200063e565b9950506200076e8d60608e0162000594565b60808d01519098506001600160401b038111156200078a578788fd5b620007988e828f01620005a7565b975050620007aa8d60a08e016200062e565b9550620007bb8d60c08e0162000594565b9450620007cc8d60e08e0162000594565b9350620007de8d6101008e016200061d565b6101208d01519093506001600160401b03811115620007fb578283fd5b620008098e828f01620005a7565b9250506101408c015190509295989b509295989b9093969950565b600080600080608085870312156200083a578384fd5b505082516020840151604085015160609095015191969095509092509050565b60208082526018908201527f5573657220616c72656164792077686974656c69737465640000000000000000604082015260600190565b60208082526026908201527f4f776e61626c653a206e6577206f776e657220697320746865207a65726f206160408201526564647265737360d01b606082015260800190565b6020808252818101527f4f776e61626c653a2063616c6c6572206973206e6f7420746865206f776e6572604082015260600190565b6040518181016001600160401b03811182821017156200092b57600080fd5b604052919050565b60006001600160401b0382111562000949578081fd5b5060209081020190565b6001600160a01b03811681146200096957600080fd5b50565b612fee806200097c6000396000f3fe608060405234801561001057600080fd5b506004361061028a5760003560e01c8063747b80501161015c578063b7bc347e116100ce578063ee575c2811610087578063ee575c2814610514578063f2db10fe1461051c578063f2fde38b14610524578063f7e9dfff14610537578063f9902bb11461053f578063fd5e6dd1146105525761028a565b8063b7bc347e146104c1578063c623674f146104c9578063cbe230c3146104de578063cd92890e146104f1578063d7a5c422146104f9578063db69a4621461050c5761028a565b80639b19251a116101205780639b19251a146104865780639fabeb00146104995780639fc4caa5146104a1578063a224ee9c146104a9578063b1659bad146104b1578063b18ac918146104b95761028a565b8063747b80501461044857806378025ec41461045b5780637fd788aa1461046e5780638d4f567d146104765780638da5cb5b1461047e5761028a565b806346e0fbae116102005780635c1c20de116101b95780635c1c20de146103f75780635e5f2e26146103ff5780635fc1b5fd14610412578063639b6fc31461041a5780636f1e85331461042d578063715018a6146104405761028a565b806346e0fbae14610368578063484fbf2b1461037d5780634e0c91f6146103905780634fb2647e146103b0578063524f0735146103c357806357ac94f0146103d65761028a565b806318e454271161025257806318e45427146103085780631bf30929146103105780631fc2cd931461031857806327cd727c1461032b5780632eb8197a1461033e5780634190edde146103465761028a565b8063021eef7f1461028f5780630ae9ea45146102b85780630bea440d146102d85780630c5160f4146102ed578063171e44ea146102f5575b600080fd5b6102a261029d3660046126f4565b610565565b6040516102af919061293f565b60405180910390f35b6102cb6102c63660046126f4565b6105af565b6040516102af919061294a565b6102eb6102e6366004612724565b6105cd565b005b6102cb61072e565b6102eb6103033660046125d6565b610734565b6102a2610afd565b6102cb610b06565b6102eb6103263660046125d6565b610b0c565b6102eb610339366004612724565b610d74565b6102cb610ed3565b6103596103543660046126f4565b610ed9565b6040516102af93929190612f30565b610370610efd565b6040516102af9190612953565b6102cb61038b3660046125d6565b610f06565b6103a361039e3660046125d6565b610f18565b6040516102af91906128ee565b6103a36103be3660046125d6565b610f33565b6102eb6103d13660046125d6565b610f4e565b6103e96103e436600461260e565b610f5a565b6040516102af929190612902565b6102cb611121565b6103a361040d3660046126f4565b611127565b6102cb61114e565b6102cb6104283660046125d6565b611154565b6102a261043b3660046125d6565b611166565b6102eb6111b8565b6102eb6104563660046125d6565b611237565b6102cb6104693660046126f4565b6112c9565b6102a26112d6565b6102cb6112e6565b6103a36112ec565b6102a26104943660046125d6565b6112fb565b6102cb611310565b6103a3611316565b6103a361132a565b6102cb611339565b6102cb61133f565b6102cb611345565b6104d161134b565b6040516102af9190612984565b6102a26104ec3660046125d6565b6113d9565b6103a361142b565b6102eb610507366004612753565b61143a565b6103a3611700565b6102cb61170f565b6102cb611715565b6102eb6105323660046125d6565b61171b565b6103a36117d1565b6102eb61054d3660046125d6565b6117e0565b6103a36105603660046126f4565b611873565b6000805b6018548110156105a457826018828154811061058157fe5b9060005260206000200154141561059c5760019150506105aa565b600101610569565b50600090505b919050565b601881815481106105bc57fe5b600091825260209091200154905081565b600082116105f65760405162461bcd60e51b81526004016105ed90612df0565b60405180910390fd5b601a54600160a01b900460ff16156106205760405162461bcd60e51b81526004016105ed90612d44565b61062a8282611880565b60195460408051636830483560e01b815290516000926001600160a01b0316916368304835916004808301926020929190829003018186803b15801561066f57600080fd5b505afa158015610683573d6000803e3d6000fd5b505050506040513d601f19601f820116820180604052508101906106a791906125f2565b604051635948284760e11b81529091506001600160a01b0382169063b290508e906106d69033906004016128ee565b602060405180830381600087803b1580156106f057600080fd5b505af1158015610704573d6000803e3d6000fd5b505050506040513d601f19601f820116820180604052508101906107289190612639565b50505050565b60125481565b61073c611c60565b6000546001600160a01b039081169116146107695760405162461bcd60e51b81526004016105ed90612d0f565b610772816113d9565b1561078f5760405162461bcd60e51b81526004016105ed90612d8c565b60015460405163cbe230c360e01b81526001600160a01b039091169063cbe230c3906107bf9084906004016128ee565b60206040518083038186803b1580156107d757600080fd5b505afa1580156107eb573d6000803e3d6000fd5b505050506040513d601f19601f8201168201806040525081019061080f9190612639565b15156001146108305760405162461bcd60e51b81526004016105ed90612af3565b600c80546001810182556000919091527fdf6966c971051c3d54ec59162606531493a51404a002842f56009d7e5cf4a8c70180546001600160a01b0319166001600160a01b03831617905560035460609061088a90611c64565b90506060826001600160a01b03166395d89b416040518163ffffffff1660e01b815260040160006040518083038186803b1580156108c757600080fd5b505afa1580156108db573d6000803e3d6000fd5b505050506040513d6000823e601f3d908101601f191682016040526109039190810190612659565b90506060818360405160200161091a92919061289c565b6040516020818303038152906040529050606082846040516020016109409291906127df565b604051602081830303815290604052905060608385604051602001610966929190612829565b60405160208183030381529060405290506060848660405160200161098c92919061287f565b60408051601f1981840301815290829052600154633350214760e11b83529092506000916001600160a01b03909116906366a0428e906109d29088908890600401612997565b602060405180830381600087803b1580156109ec57600080fd5b505af1158015610a00573d6000803e3d6000fd5b505050506040513d601f19601f82011682018060405250810190610a2491906125f2565b600154604051633350214760e11b81529192506000916001600160a01b03909116906366a0428e90610a5c9087908790600401612997565b602060405180830381600087803b158015610a7657600080fd5b505af1158015610a8a573d6000803e3d6000fd5b505050506040513d601f19601f82011682018060405250810190610aae91906125f2565b6001600160a01b03998a1660009081526007602090815260408083208054948e166001600160a01b031995861617905560069091529020805493909a1692169190911790975550505050505050565b60135460ff1681565b601c5481565b610b146112ec565b6001600160a01b0316336001600160a01b03161415610b455760405162461bcd60e51b81526004016105ed90612edd565b60135460ff16151560011415610b89573360009081526014602052604090205460ff161515600114610b895760405162461bcd60e51b81526004016105ed90612be2565b6001600160a01b038082166000908152600660205260408082205490516370a0823160e01b815292169182906370a0823190610bc99033906004016128ee565b60206040518083038186803b158015610be157600080fd5b505afa158015610bf5573d6000803e3d6000fd5b505050506040513d601f19601f82011682018060405250810190610c19919061270c565b90506000826001600160a01b03166318160ddd6040518163ffffffff1660e01b815260040160206040518083038186803b158015610c5657600080fd5b505afa158015610c6a573d6000803e3d6000fd5b505050506040513d601f19601f82011682018060405250810190610c8e919061270c565b905061271082610cb05760405162461bcd60e51b81526004016105ed90612b85565b6000610cc683610cc08685611d3f565b90611d82565b6001600160a01b03871660009081526005602052604081205491925090610cf3908490610cc09085611d3f565b60405163079cc67960e41b81529091506001600160a01b038716906379cc679090610d249033908990600401612902565b600060405180830381600087803b158015610d3e57600080fd5b505af1158015610d52573d6000803e3d6000fd5b50610d6b925050506001600160a01b0388163383611dc4565b50505050505050565b60008211610d945760405162461bcd60e51b81526004016105ed90612df0565b60188054600091906000198101908110610daa57fe5b600091825260208220015460175460405160016259edcb60e01b031981529193506001600160a01b036101008204169163ffa6123591610df49160ff909116908690600401612968565b604080518083038186803b158015610e0b57600080fd5b505afa158015610e1f573d6000803e3d6000fd5b505050506040513d601f19601f82011682018060405250810190610e439190612774565b915050610e4e6112ec565b6001600160a01b0316336001600160a01b031614610ec957601a54600160a01b900460ff16151560011480610ead5750804210158015610ead57506000828152601b6020526040812060029081015460ff1690811115610eaa57fe5b14155b610ec95760405162461bcd60e51b81526004016105ed906129f7565b6107288484611e1a565b60105481565b601b6020526000908152604090208054600182015460029092015490919060ff1683565b60175460ff1681565b60056020526000908152604090205481565b6006602052600090815260409020546001600160a01b031681565b6007602052600090815260409020546001600160a01b031681565b610f5781610b0c565b50565b6000806000600c8481548110610f6c57fe5b6000918252602090912001546001600160a01b03169050610f8b6112ec565b6001600160a01b0316856001600160a01b03161415610fc7576001600160a01b038116600090815260046020526040902054909250905061111a565b6001600160a01b038082166000908152600660205260408082205490516370a0823160e01b815292169182906370a08231906110079033906004016128ee565b60206040518083038186803b15801561101f57600080fd5b505afa158015611033573d6000803e3d6000fd5b505050506040513d601f19601f82011682018060405250810190611057919061270c565b90506000826001600160a01b03166318160ddd6040518163ffffffff1660e01b815260040160206040518083038186803b15801561109457600080fd5b505afa1580156110a8573d6000803e3d6000fd5b505050506040513d601f19601f820116820180604052508101906110cc919061270c565b905061271060006110e183610cc08685611d3f565b6001600160a01b038716600090815260056020526040902054909150869061110f908490610cc09085611d3f565b975097505050505050505b9250929050565b600d5481565b600c818154811061113457fe5b6000918252602090912001546001600160a01b0316905081565b60185490565b60046020526000908152604090205481565b6000805b600a548110156105a457826001600160a01b0316600a828154811061118b57fe5b6000918252602090912001546001600160a01b031614156111b05760019150506105aa565b60010161116a565b6111c0611c60565b6000546001600160a01b039081169116146111ed5760405162461bcd60e51b81526004016105ed90612d0f565b600080546040516001600160a01b03909116907f8be0079c531659141344cd1fd0a4f28419497f9722a3daafe3b4186f6b6457e0908390a3600080546001600160a01b0319169055565b61123f611c60565b6000546001600160a01b0390811691161461126c5760405162461bcd60e51b81526004016105ed90612d0f565b6001600160a01b03811660009081526014602052604090205460ff16156112a55760405162461bcd60e51b81526004016105ed906129c5565b6001600160a01b03166000908152601460205260409020805460ff19166001179055565b601d81815481106105bc57fe5b601a54600160a01b900460ff1690565b60085481565b6000546001600160a01b031690565b60146020526000908152604090205460ff1681565b600a5490565b60175461010090046001600160a01b031681565b601a546001600160a01b031681565b601e5481565b600f5481565b600c5490565b6016805460408051602060026001851615610100026000190190941693909304601f810184900484028201840190925281815292918301828280156113d15780601f106113a6576101008083540402835291602001916113d1565b820191906000526020600020905b8154815290600101906020018083116113b457829003601f168201915b505050505081565b6000805b600c548110156105a457826001600160a01b0316600c82815481106113fe57fe5b6000918252602090912001546001600160a01b031614156114235760019150506105aa565b6001016113dd565b6015546001600160a01b031681565b601a546001600160a01b031633146114645760405162461bcd60e51b81526004016105ed90612b40565b7fc95987c1992805ee34bdc915e017cceae36ba1c156b9911fa7e691e6435eb46e42838360405161149793929190612f56565b60405180910390a16001808201601e556000828152601b602090815260408083209384018690554284556015548151633fa4f24560e01b815291516001600160a01b0390911692633fa4f2459260048082019391829003018186803b1580156114ff57600080fd5b505afa158015611513573d6000803e3d6000fd5b505050506040513d601f19601f82011682018060405250810190611537919061270c565b6015546040516303c8f2e360e21b81529192506001600160a01b031690630f23cb8c9061156890879060040161294a565b60206040518083038186803b15801561158057600080fd5b505afa158015611594573d6000803e3d6000fd5b505050506040513d601f19601f820116820180604052508101906115b89190612639565b15611695576002828101805460ff19166001179055612710906000906115fa906115e690610cc08987611ffe565b610cc0846115f48a88612023565b90611d3f565b90506000611634600161162e601860008154811061161457fe5b90600052602060002001548961202390919063ffffffff16565b90611ffe565b60188054919250600091600019810190811061164c57fe5b906000526020600020015487141561166e57611669600185611d3f565b61167f565b60185461167f90610cc08585611d3f565b905061168c878286612065565b50505050610728565b6002828101805460ff191690911790556116ad6121cb565b601a805460ff60a01b1916600160a01b1790556040517fbd33f7a3bfa88a467c9df5ae7d2341cf061084c386b20a0d48130f5cbce38a4d906116f29085908790612f22565b60405180910390a150505050565b6019546001600160a01b031681565b600e5481565b60035481565b611723611c60565b6000546001600160a01b039081169116146117505760405162461bcd60e51b81526004016105ed90612d0f565b6001600160a01b0381166117765760405162461bcd60e51b81526004016105ed90612a76565b600080546040516001600160a01b03808516939216917f8be0079c531659141344cd1fd0a4f28419497f9722a3daafe3b4186f6b6457e091a3600080546001600160a01b0319166001600160a01b0392909216919091179055565b600b546001600160a01b031681565b6117e8611c60565b6000546001600160a01b039081169116146118155760405162461bcd60e51b81526004016105ed90612d0f565b6001600160a01b03811660009081526014602052604090205460ff1615156001146118525760405162461bcd60e51b81526004016105ed90612e1c565b6001600160a01b03166000908152601460205260409020805460ff19169055565b600a818154811061113457fe5b8061188a816113d9565b15156001146118ab5760405162461bcd60e51b81526004016105ed90612ce1565b60135460ff161515600114156118ef573360009081526014602052604090205460ff1615156001146118ef5760405162461bcd60e51b81526004016105ed90612be2565b6119046001600160a01b0383163330866122b0565b61190c6112ec565b6001600160a01b0316336001600160a01b031614611a47576001600160a01b038216600090815260046020908152604080832054600590925290912054816119548287611ffe565b11156119725760405162461bcd60e51b81526004016105ed90612e4a565b6001600160a01b0384166000908152600560205260409020546119959086611ffe565b6001600160a01b0385166000908152600560205260408120919091556008546009546119c79190610cc0908990611d3f565b6001600160a01b03808716600090815260066020526040908190205490516340c10f1960e01b8152929350169081906340c10f1990611a0c9033908690600401612902565b600060405180830381600087803b158015611a2657600080fd5b505af1158015611a3a573d6000803e3d6000fd5b5050505050505050611c0b565b6001600160a01b0380831660009081526007602090815260408083205481516318160ddd60e01b8152915194169384926318160ddd9260048082019391829003018186803b158015611a9857600080fd5b505afa158015611aac573d6000803e3d6000fd5b505050506040513d601f19601f82011682018060405250810190611ad0919061270c565b6001600160a01b03851660009081526004602052604090205490915081611b56576040516340c10f1960e01b81526001600160a01b038416906340c10f1990611b1f9033908a90600401612902565b600060405180830381600087803b158015611b3957600080fd5b505af1158015611b4d573d6000803e3d6000fd5b50505050611bcb565b6000611b6682610cc08986611d3f565b6040516340c10f1960e01b81529091506001600160a01b038516906340c10f1990611b979033908590600401612902565b600060405180830381600087803b158015611bb157600080fd5b505af1158015611bc5573d6000803e3d6000fd5b50505050505b6001600160a01b038516600090815260046020526040902054611bee9087611ffe565b6001600160a01b0386166000908152600460205260409020555050505b611c1433611166565b611c5b57600a80546001810182556000919091527fc65a7bb8d6351c1cf70c95a316cc6a92839c986682d98bc35f958f4883f9d2a80180546001600160a01b031916331790555b505050565b3390565b60608180611c8b5750506040805180820190915260018152600360fc1b60208201526105aa565b8060005b8115611ca357600101600a82049150611c8f565b60608167ffffffffffffffff81118015611cbc57600080fd5b506040519080825280601f01601f191660200182016040528015611ce7576020820181803683370190505b50905060001982015b8415611d3557600a850660300160f81b82828060019003935081518110611d1357fe5b60200101906001600160f81b031916908160001a905350600a85049450611cf0565b5095945050505050565b600082611d4e57506000611d7c565b82820282848281611d5b57fe5b0414611d795760405162461bcd60e51b81526004016105ed90612ca0565b90505b92915050565b6000611d7983836040518060400160405280601a81526020017f536166654d6174683a206469766973696f6e206279207a65726f0000000000008152506122d1565b611c5b8363a9059cbb60e01b8484604051602401611de3929190612902565b60408051601f198184030181529190526020810180516001600160e01b03166001600160e01b031990931692909217909152612308565b80611e24816113d9565b1515600114611e455760405162461bcd60e51b81526004016105ed90612ce1565b6001600160a01b03821660009081526004602090815260408083205460059092529091205480611e758387612023565b1015611e935760405162461bcd60e51b81526004016105ed90612c13565b6001600160a01b0380851660009081526007602090815260408083205481516318160ddd60e01b8152915194169384926318160ddd9260048082019391829003018186803b158015611ee457600080fd5b505afa158015611ef8573d6000803e3d6000fd5b505050506040513d601f19601f82011682018060405250810190611f1c919061270c565b6001600160a01b038716600090815260046020526040812054919250611f4682610cc08b86611d3f565b60405163079cc67960e41b81529091506001600160a01b038516906379cc679090611f779033908590600401612902565b600060405180830381600087803b158015611f9157600080fd5b505af1158015611fa5573d6000803e3d6000fd5b5050506001600160a01b038916600090815260046020526040902054611fcc91508a612023565b6001600160a01b038916600081815260046020526040902091909155611ff390338b611dc4565b505050505050505050565b600082820183811015611d795760405162461bcd60e51b81526004016105ed90612abc565b6000611d7983836040518060400160405280601e81526020017f536166654d6174683a207375627472616374696f6e206f766572666c6f770000815250612397565b60005b600c548110156121a8576000600c828154811061208157fe5b60009182526020808320909101546001600160a01b031680835260059091526040822054909250906120b785610cc08489611d3f565b6001600160a01b0384166000908152600560205260409020549091506120dd9082612023565b6001600160a01b03808516600081815260056020526040902092909255600b5416141561211f57600061210f826123c3565b905061211b8282612023565b9150505b6001600160a01b0383166000908152600460205260409020546121429082611ffe565b6001600160a01b0384166000818152600460205260409081902092909255905188907f3173c1c4b679e2da86dbb0382bde749a6e16cd31912c5410e17985cd7d2b905290612195908a908a908790612f56565b60405180910390a3505050600101612068565b506121c381610cc06121ba8286612023565b60085490611d3f565b600855505050565b60005b600c54811015610f57576000600c82815481106121e757fe5b60009182526020808320909101546001600160a01b0316808352600582526040808420546004909352909220549192509081906122249082612023565b6001600160a01b03808516600081815260046020526040902092909255600b54161415612266576000612256826123c3565b90506122628282612023565b9150505b6001600160a01b0383166000908152600560205260409020546122899082611ffe565b6001600160a01b0390931660009081526005602052604090209290925550506001016121ce565b610728846323b872dd60e01b858585604051602401611de39392919061291b565b600081836122f25760405162461bcd60e51b81526004016105ed9190612984565b5060008385816122fe57fe5b0495945050505050565b606061235d826040518060400160405280602081526020017f5361666545524332303a206c6f772d6c6576656c2063616c6c206661696c6564815250856001600160a01b03166124f59092919063ffffffff16565b805190915015611c5b578080602001905181019061237b9190612639565b611c5b5760405162461bcd60e51b81526004016105ed90612e93565b600081848411156123bb5760405162461bcd60e51b81526004016105ed9190612984565b505050900390565b60408051808201909152600d8082526c6275726e2875696e743235362960981b602090920191909152546000907f42966c689b5afe9b9b3f8a7103b2a19980d59629bfd6a20a60972312ed41d83690612425906103e890610cc0908690611d3f565b600b546040519193506000916001600160a01b0390911690839061244d90869060240161294a565b60408051601f198184030181529181526020820180516001600160e01b03166001600160e01b031990941693909317909252905161248b91906127c3565b6000604051808303816000865af19150503d80600081146124c8576040519150601f19603f3d011682016040523d82523d6000602084013e6124cd565b606091505b50509050806124ee5760405162461bcd60e51b81526004016105ed90612c5c565b5050919050565b6060612504848460008561250c565b949350505050565b6060612517856125d0565b6125335760405162461bcd60e51b81526004016105ed90612db9565b60006060866001600160a01b0316858760405161255091906127c3565b60006040518083038185875af1925050503d806000811461258d576040519150601f19603f3d011682016040523d82523d6000602084013e612592565b606091505b509150915081156125a65791506125049050565b8051156125b65780518082602001fd5b8360405162461bcd60e51b81526004016105ed9190612984565b3b151590565b6000602082840312156125e7578081fd5b8135611d7981612fa3565b600060208284031215612603578081fd5b8151611d7981612fa3565b60008060408385031215612620578081fd5b823561262b81612fa3565b946020939093013593505050565b60006020828403121561264a578081fd5b81518015158114611d79578182fd5b60006020828403121561266a578081fd5b815167ffffffffffffffff80821115612681578283fd5b818401915084601f830112612694578283fd5b8151818111156126a2578384fd5b604051601f8201601f1916810160200183811182821017156126c2578586fd5b6040528181528382016020018710156126d9578485fd5b6126ea826020830160208701612f77565b9695505050505050565b600060208284031215612705578081fd5b5035919050565b60006020828403121561271d578081fd5b5051919050565b60008060408385031215612736578182fd5b82359150602083013561274881612fa3565b809150509250929050565b60008060408385031215612765578182fd5b50508035926020909101359150565b60008060408385031215612786578182fd5b505080516020909101519092909150565b600081518084526127af816020860160208601612f77565b601f01601f19169290920160200192915050565b600082516127d5818460208701612f77565b9190910192915050565b600061647560f01b825283516127fc816002850160208801612f77565b602d60f81b600291840191820152835161281d816003840160208801612f77565b01600301949350505050565b60006d44534c412d50524f56494445522d60901b8252835161285281600e850160208801612f77565b602d60f81b600e91840191820152835161287381600f840160208801612f77565b01600f01949350505050565b600061064760f41b825283516127fc816002850160208801612f77565b60006944534c412d555345522d60b01b825283516128c181600a850160208801612f77565b602d60f81b600a9184019182015283516128e281600b840160208801612f77565b01600b01949350505050565b6001600160a01b0391909116815260200190565b6001600160a01b03929092168252602082015260400190565b6001600160a01b039384168152919092166020820152604081019190915260600190565b901515815260200190565b90815260200190565b6020810161296083612f6c565b825292915050565b6040810161297584612f6c565b82528260208301529392505050565b600060208252611d796020830184612797565b6000604082526129aa6040830185612797565b82810360208401526129bc8185612797565b95945050505050565b602080825260189082015277155cd95c88185b1c9958591e481dda1a5d195b1a5cdd195960421b604082015260600190565b60208082526059908201527f43616e206f6e6c79207769746864726177207374616b6520616674657220746860408201527f652066696e616c20706572696f642069732066696e6973686564206f72206966606082015278081d1a194818dbdb9d1c9858dd081a5cc8189c995858da1959603a1b608082015260a00190565b60208082526026908201527f4f776e61626c653a206e6577206f776e657220697320746865207a65726f206160408201526564647265737360d01b606082015260800190565b6020808252601b908201527f536166654d6174683a206164646974696f6e206f766572666c6f770000000000604082015260600190565b6020808252602d908201527f546f6b656e206e6f7420616c6c6f7765642062792074686520534c415265676960408201526c1cdd1c9e4818dbdb9d1c9858dd609a1b606082015260800190565b60208082526025908201527f4f6e6c79204d657373656e6765722063616e2063616c6c20746869732066756e60408201526431ba34b7b760d91b606082015260800190565b6020808252603a908201527f43616e206f6e6c7920636c61696d206120636f6d70656e736174696f6e20696660408201527f20706f736974696f6e20697320626967676572207468616e2030000000000000606082015260800190565b602080825260179082015276155cd95c881a5cc81b9bdd081dda1a5d195b1a5cdd1959604a1b604082015260600190565b60208082526029908201527f53686f756c64206e6f74207769746864726177206d6f7265207468616e207573604082015268657273207374616b6560b81b606082015260800190565b60208082526024908201527f44534c41206275726e2070726f6365737320776173206e6f74207375636365736040820152631cd99d5b60e21b606082015260800190565b60208082526021908201527f536166654d6174683a206d756c7469706c69636174696f6e206f766572666c6f6040820152607760f81b606082015260800190565b6020808252601490820152731d1bdad95b881a5cc81b9bdd08185b1b1bddd95960621b604082015260600190565b6020808252818101527f4f776e61626c653a2063616c6c6572206973206e6f7420746865206f776e6572604082015260600190565b60208082526028908201527f43616e206f6e6c79207374616b65206f6e206e6f7420627265616368656420636040820152676f6e74726163747360c01b606082015260800190565b602080825260139082015272151bdad95b88185b1c9958591e481859191959606a1b604082015260600190565b6020808252601d908201527f416464726573733a2063616c6c20746f206e6f6e2d636f6e7472616374000000604082015260600190565b6020808252601290820152710616d6f756e742063616e6e6f7420626520360741b604082015260600190565b602080825260149082015273155cd95c881b9bdd081dda1a5d195b1a5cdd195960621b604082015260600190565b60208082526029908201527f43616e6e6f74207374616b65206d6f7265207468616e20534c412070726f7669604082015268646572207374616b6560b81b606082015260800190565b6020808252602a908201527f5361666545524332303a204552433230206f7065726174696f6e20646964206e6040820152691bdd081cdd58d8d9595960b21b606082015260800190565b60208082526025908201527f53686f756c64206e6f742062652063616c6c65642062792074686520534c412060408201526437bbb732b960d91b606082015260800190565b918252602082015260400190565b838152602081018390526060810160038310612f4857fe5b826040830152949350505050565b9283526020830191909152604082015260600190565b80600681106105aa57fe5b60005b83811015612f92578181015183820152602001612f7a565b838111156107285750506000910152565b6001600160a01b0381168114610f5757600080fdfea264697066735822122033ea7dded1736b10a81a6c46aace67b4410c803664217cdedd00ffacd347134464736f6c634300060c00338be0079c531659141344cd1fd0a4f28419497f9722a3daafe3b4186f6b6457e0",
  "immutableReferences": {},
  "source": "// SPDX-License-Identifier: MIT\npragma solidity ^0.6.0;\npragma experimental ABIEncoderV2;\n\nimport \"@openzeppelin/contracts/access/Ownable.sol\";\nimport \"@openzeppelin/contracts/token/ERC20/IERC20.sol\";\nimport \"@openzeppelin/contracts/math/SafeMath.sol\";\nimport \"./SLO.sol\";\nimport \"./SLARegistry.sol\";\nimport \"./StakeRegistry.sol\";\nimport \"./PeriodRegistry.sol\";\nimport \"./Staking.sol\";\n\n/**\n * @title SLA\n * @dev SLA is a service level agreement contract used for service downtime\n * compensation\n */\ncontract SLA is Staking {\n    using SafeMath for uint256;\n\n    enum Status {NotVerified, Respected, NotRespected}\n\n    /// @dev Struct used for storing period status\n    struct PeriodSLI {\n        uint256 timestamp;\n        uint256 sli;\n        Status status;\n    }\n\n    /// @dev address of the SLO\n    SLO public slo;\n\n    /// @dev The ipfs hash that stores extra information about the agreement\n    string public ipfsHash;\n\n    /// @dev uint8 of the period type\n    PeriodRegistry.PeriodType public periodType;\n\n    PeriodRegistry public periodRegistry;\n\n    /// @dev array of he allowed canonical period ids\n    uint256[] public periodIds;\n\n    /// @dev The address of the slaRegistry contract\n    SLARegistry public slaRegistry;\n\n    /// @dev The address of the messenger\n    address public messengerAddress;\n\n    /// @dev states if the contract was breached or not\n    bool private _breachedContract = false;\n\n    /// @dev periodId=>PeriodSLI mapping\n    mapping(uint256 => PeriodSLI) public periodSLIs;\n\n    /// @dev block number of SLA deployment\n    uint256 public creationBlockNumber;\n\n    /// @dev extra data for customized workflows\n    bytes32[] public extraData;\n\n    /// @dev states if the contract was breached or not\n    uint256 public nextVerifiablePeriod;\n\n    /**\n     * @dev event for SLI creation logging\n     * @param timestamp 1. the time the SLI has been registered\n     * @param sli 2. the value of the SLI\n     * @param periodId 3. the id of the given period\n     */\n    event SLICreated(uint256 timestamp, uint256 sli, uint256 periodId);\n\n    /**\n     * @dev event for SLI creation logging\n     * @param _periodId 1. the id of the given period\n     * @param _sli 2. value of the SLI\n     */\n    event SLANotRespected(uint256 _periodId, uint256 _sli);\n\n    /**\n     * @dev throws if called by any address other than the messenger contract.\n     */\n    modifier onlyMessenger() {\n        require(\n            msg.sender == messengerAddress,\n            \"Only Messenger can call this function\"\n        );\n        _;\n    }\n\n    /**\n     * @dev throws if called by any address other than the messenger contract.\n     */\n    modifier onlySLARegistry() {\n        require(\n            msg.sender == address(slaRegistry),\n            \"Only SLARegistry can call this function\"\n        );\n        _;\n    }\n\n    /**\n     * @param _owner 1. address of the owner of the service level agreement\n     * @param _SLO 2. address of the SLO\n     * @param _ipfsHash 3. string with the ipfs hash that contains SLA information\n     * @param _periodIds 4. id of the allowed canonical periods\n     * @param _periodType 5. period type of the SLA contract\n     * @param _stakeRegistry 6. stakeRegistry address\n     * @param _periodRegistry 7. periodRegistry address\n     * @param _whitelisted 8. boolean to declare whitelisted contracts\n     * @param _extraData 9. array of bytes32 to store extra data on deployment time\n     * @param _slaID 10. identifies the SLA to uniquely to emit dTokens\n     */\n    constructor(\n        address _owner,\n        SLO _SLO,\n        string memory _ipfsHash,\n        address _messengerAddress,\n        uint256[] memory _periodIds,\n        PeriodRegistry.PeriodType _periodType,\n        address _stakeRegistry,\n        address _periodRegistry,\n        bool _whitelisted,\n        bytes32[] memory _extraData,\n        uint256 _slaID\n    )\n        public\n        Staking(\n            _stakeRegistry,\n            _periodRegistry,\n            _periodType,\n            _periodIds.length,\n            _whitelisted,\n            _slaID\n        )\n    {\n        transferOwnership(_owner);\n        ipfsHash = _ipfsHash;\n        messengerAddress = _messengerAddress;\n        slaRegistry = SLARegistry(msg.sender);\n        periodRegistry = PeriodRegistry(_periodRegistry);\n        creationBlockNumber = block.number;\n        periodIds = _periodIds;\n        periodType = _periodType;\n        slo = _SLO;\n        extraData = _extraData;\n        nextVerifiablePeriod = _periodIds[0];\n    }\n\n    /**\n     * @dev external function to register SLI's and check them against the SLO's\n     * @param _sli 1. the value of the SLI to check\n     * @param _periodId 2. the id of the given period\n     */\n    function registerSLI(uint256 _sli, uint256 _periodId)\n        external\n        onlyMessenger\n    {\n        emit SLICreated(block.timestamp, _sli, _periodId);\n        nextVerifiablePeriod = _periodId + 1;\n        PeriodSLI storage periodSLI = periodSLIs[_periodId];\n        periodSLI.sli = _sli;\n        periodSLI.timestamp = block.timestamp;\n        uint256 sloValue = slo.value();\n        if (slo.isRespected(_sli)) {\n            periodSLI.status = Status.Respected;\n            uint256 precision = 10000;\n            // deviation = (sli-slo)*precision/((sli+slo)/2)\n            uint256 deviation =\n                _sli.sub(sloValue).mul(precision).div(\n                    _sli.add(sloValue).div(2)\n                );\n            // to get the reward formula, we get the periodId but respecting to the SLA\n            // because _periodId is the periodId of the platform\n            // e.g. if periodIds = 7,8,9,10, normalized periods are = 1,2,3,4\n            uint256 normalizedPeriodId = _periodId.sub(periodIds[0]).add(1);\n\n            // if is the last period, then deliver the whole usersStake to the provider\n            uint256 rewardPercentage =\n                _periodId != periodIds[periodIds.length - 1]\n                    ? deviation.mul(normalizedPeriodId).div(periodIds.length)\n                    : uint256(1).mul(precision);\n            _setRespectedPeriodReward(_periodId, rewardPercentage, precision);\n        } else {\n            periodSLI.status = Status.NotRespected;\n            _setUsersCompensation();\n            _breachedContract = true;\n            emit SLANotRespected(_periodId, _sli);\n        }\n    }\n\n    function isAllowedPeriod(uint256 _periodId) public view returns (bool) {\n        for (uint256 index = 0; index < periodIds.length; index++) {\n            if (periodIds[index] == _periodId) {\n                return true;\n            }\n        }\n        return false;\n    }\n\n    /**\n     *@dev stake _amount tokens into the _token contract\n     *@param _amount 1. amount to be staked\n     *@param _token 2. address of the ERC to be staked\n     */\n\n    function stakeTokens(uint256 _amount, address _token) public {\n        require(_amount > 0, \"amount cannot be 0\");\n        require(\n            _breachedContract == false,\n            \"Can only stake on not breached contracts\"\n        );\n        _stake(_amount, _token);\n        StakeRegistry stakeRegistry = slaRegistry.stakeRegistry();\n        stakeRegistry.registerStakedSla(msg.sender);\n    }\n\n    /**\n     *@dev withdraw _amount tokens from the _token contract\n     *@param _amount 1. amount to be staked\n     *@param _tokenAddress 2. address of the ERC to be staked\n     */\n\n    function withdrawStakedTokens(uint256 _amount, address _tokenAddress)\n        public\n    {\n        require(_amount > 0, \"amount cannot be 0\");\n        uint256 lastValidPeriodId = periodIds[periodIds.length - 1];\n        (, uint256 endOfLastValidPeriod) =\n            periodRegistry.getPeriodStartAndEnd(periodType, lastValidPeriodId);\n        // providers and users can withdraw only if the contract is breached\n        // or if the last period is finished and the period status was verified\n        if (msg.sender != owner()) {\n            require(\n                _breachedContract == true ||\n                    (block.timestamp >= endOfLastValidPeriod &&\n                        periodSLIs[lastValidPeriodId].status !=\n                        Status.NotVerified),\n                \"Can only withdraw stake after the final period is finished or if the contract is breached\"\n            );\n        }\n        _withdraw(_amount, _tokenAddress);\n    }\n\n    /**\n     *@dev withdraw provider reward of a given token address\n     *@param _tokenAddress 1. address of the token to withdraw rewards\n     */\n\n    function claimUserCompensation(address _tokenAddress) public {\n        _claimCompensation(_tokenAddress);\n    }\n\n    function getPeriodIdsLength() public view returns (uint256) {\n        return periodIds.length;\n    }\n\n    function getStakersLength() public view returns (uint256) {\n        return stakers.length;\n    }\n\n    function breachedContract() public view returns (bool) {\n        return _breachedContract;\n    }\n}\n",
  "sourcePath": "/Users/matiasbn/Desktop/stacktical/stacktical-dsla-contracts/contracts/SLA.sol",
  "compiler": {
    "name": "solc",
    "version": "0.6.12+commit.27d51765.Emscripten.clang"
  },
  "schemaVersion": "3.3.3",
  "updatedAt": "2021-03-06T18:20:11.476Z",
  "devdoc": {
    "details": "SLA is a service level agreement contract used for service downtime compensation",
    "events": {
      "SLANotRespected(uint256,uint256)": {
        "details": "event for SLI creation logging",
        "params": {
          "_periodId": "1. the id of the given period",
          "_sli": "2. value of the SLI"
        }
      },
      "SLICreated(uint256,uint256,uint256)": {
        "details": "event for SLI creation logging",
        "params": {
          "periodId": "3. the id of the given period",
          "sli": "2. the value of the SLI",
          "timestamp": "1. the time the SLI has been registered"
        }
      }
    },
    "kind": "dev",
    "methods": {
      "_claimCompensation(address)": {
        "details": "claim user compensation. Transfers both the compensation and the user remaining stake.",
        "params": {
          "_tokenAddress": "1. address of the token to claim compensation"
        }
      },
      "addAllowedTokens(address)": {
        "details": "add a token to ve allowed for staking",
        "params": {
          "_tokenAddress": "1. address of the new allowed token"
        }
      },
      "claimUserCompensation(address)": {
        "details": "withdraw provider reward of a given token address",
        "params": {
          "_tokenAddress": "1. address of the token to withdraw rewards"
        }
      },
      "constructor": {
        "params": {
          "_SLO": "2. address of the SLO",
          "_extraData": "9. array of bytes32 to store extra data on deployment time",
          "_ipfsHash": "3. string with the ipfs hash that contains SLA information",
          "_owner": "1. address of the owner of the service level agreement",
          "_periodIds": "4. id of the allowed canonical periods",
          "_periodRegistry": "7. periodRegistry address",
          "_periodType": "5. period type of the SLA contract",
          "_slaID": "10. identifies the SLA to uniquely to emit dTokens",
          "_stakeRegistry": "6. stakeRegistry address",
          "_whitelisted": "8. boolean to declare whitelisted contracts"
        }
      },
      "getAllowedTokensLength()": {
        "details": "use this function to evaluate the length of the allowed tokens length",
        "returns": {
          "_0": "allowedTokens.length"
        }
      },
      "isAllowedToken(address)": {
        "details": "checks in the allowedTokens array if there's a token with _tokenAddress value",
        "params": {
          "_tokenAddress": "1. token address to check exixtence"
        },
        "returns": {
          "_0": "true if _tokenAddress exists in the allowedTokens array"
        }
      },
      "isStaker(address)": {
        "details": "returns true if the _staker address is registered as staker",
        "params": {
          "_staker": "1. staker address"
        },
        "returns": {
          "_0": "true if address is staker"
        }
      },
      "owner()": {
        "details": "Returns the address of the current owner."
      },
      "registerSLI(uint256,uint256)": {
        "details": "external function to register SLI's and check them against the SLO's",
        "params": {
          "_periodId": "2. the id of the given period",
          "_sli": "1. the value of the SLI to check"
        }
      },
      "renounceOwnership()": {
        "details": "Leaves the contract without owner. It will not be possible to call `onlyOwner` functions anymore. Can only be called by the current owner. NOTE: Renouncing ownership will leave the contract without an owner, thereby removing any functionality that is only available to the owner."
      },
      "stakeTokens(uint256,address)": {
        "details": "stake _amount tokens into the _token contract",
        "params": {
          "_amount": "1. amount to be staked",
          "_token": "2. address of the ERC to be staked"
        }
      },
      "transferOwnership(address)": {
        "details": "Transfers ownership of the contract to a new account (`newOwner`). Can only be called by the current owner."
      },
      "withdrawStakedTokens(uint256,address)": {
        "details": "withdraw _amount tokens from the _token contract",
        "params": {
          "_amount": "1. amount to be staked",
          "_tokenAddress": "2. address of the ERC to be staked"
        }
      }
    },
    "stateVariables": {
      "_breachedContract": {
        "details": "states if the contract was breached or not"
      },
      "creationBlockNumber": {
        "details": "block number of SLA deployment"
      },
      "extraData": {
        "details": "extra data for customized workflows"
      },
      "ipfsHash": {
        "details": "The ipfs hash that stores extra information about the agreement"
      },
      "messengerAddress": {
        "details": "The address of the messenger"
      },
      "nextVerifiablePeriod": {
        "details": "states if the contract was breached or not"
      },
      "periodIds": {
        "details": "array of he allowed canonical period ids"
      },
      "periodSLIs": {
        "details": "periodId=>PeriodSLI mapping"
      },
      "periodType": {
        "details": "uint8 of the period type"
      },
      "slaRegistry": {
        "details": "The address of the slaRegistry contract"
      },
      "slo": {
        "details": "address of the SLO"
      }
    },
    "title": "SLA",
    "version": 1
  },
  "userdoc": {
    "kind": "user",
    "methods": {
      "_claimCompensation(address)": {
        "notice": "it uses the user position and the user total position per token to check the proportion of the compensation pool that corresponds to every user"
      }
    },
    "version": 1
  }
}