{
  "contractName": "SLA",
  "abi": [
    {
      "inputs": [
        {
          "internalType": "address",
          "name": "_owner",
          "type": "address"
        },
        {
          "internalType": "bytes32[]",
          "name": "_SLONames",
          "type": "bytes32[]"
        },
        {
          "internalType": "contract SLO[]",
          "name": "_SLOs",
          "type": "address[]"
        },
        {
          "internalType": "uint256",
          "name": "_stake",
          "type": "uint256"
        },
        {
          "internalType": "string",
          "name": "_ipfsHash",
          "type": "string"
        },
        {
          "internalType": "address",
          "name": "_baseTokenAddress",
          "type": "address"
        },
        {
          "internalType": "uint256[]",
          "name": "_sla_period_starts",
          "type": "uint256[]"
        },
        {
          "internalType": "uint256[]",
          "name": "_sla_period_ends",
          "type": "uint256[]"
        }
      ],
      "stateMutability": "nonpayable",
      "type": "constructor"
    },
    {
      "anonymous": false,
      "inputs": [
        {
          "indexed": true,
          "internalType": "uint256",
          "name": "period_index",
          "type": "uint256"
        }
      ],
      "name": "NewPeriodAdded",
      "type": "event"
    },
    {
      "anonymous": false,
      "inputs": [
        {
          "indexed": true,
          "internalType": "address",
          "name": "previousOwner",
          "type": "address"
        },
        {
          "indexed": true,
          "internalType": "address",
          "name": "newOwner",
          "type": "address"
        }
      ],
      "name": "OwnershipTransferred",
      "type": "event"
    },
    {
      "anonymous": false,
      "inputs": [
        {
          "indexed": false,
          "internalType": "uint256",
          "name": "_timestamp",
          "type": "uint256"
        },
        {
          "indexed": false,
          "internalType": "uint256",
          "name": "_value",
          "type": "uint256"
        },
        {
          "indexed": false,
          "internalType": "uint256",
          "name": "_periodId",
          "type": "uint256"
        }
      ],
      "name": "SLICreated",
      "type": "event"
    },
    {
      "inputs": [],
      "name": "BaseToken",
      "outputs": [
        {
          "internalType": "contract IERC20",
          "name": "",
          "type": "address"
        }
      ],
      "stateMutability": "view",
      "type": "function"
    },
    {
      "inputs": [
        {
          "internalType": "bytes32",
          "name": "",
          "type": "bytes32"
        },
        {
          "internalType": "uint256",
          "name": "",
          "type": "uint256"
        }
      ],
      "name": "SLIs",
      "outputs": [
        {
          "internalType": "uint256",
          "name": "timestamp",
          "type": "uint256"
        },
        {
          "internalType": "uint256",
          "name": "value",
          "type": "uint256"
        },
        {
          "internalType": "uint256",
          "name": "periodId",
          "type": "uint256"
        }
      ],
      "stateMutability": "view",
      "type": "function"
    },
    {
      "inputs": [
        {
          "internalType": "uint256",
          "name": "",
          "type": "uint256"
        }
      ],
      "name": "SLONames",
      "outputs": [
        {
          "internalType": "bytes32",
          "name": "",
          "type": "bytes32"
        }
      ],
      "stateMutability": "view",
      "type": "function"
    },
    {
      "inputs": [
        {
          "internalType": "bytes32",
          "name": "",
          "type": "bytes32"
        }
      ],
      "name": "SLOs",
      "outputs": [
        {
          "internalType": "contract SLO",
          "name": "",
          "type": "address"
        }
      ],
      "stateMutability": "view",
      "type": "function"
    },
    {
      "inputs": [
        {
          "internalType": "address",
          "name": "_token",
          "type": "address"
        }
      ],
      "name": "addAllowedTokens",
      "outputs": [],
      "stateMutability": "nonpayable",
      "type": "function"
    },
    {
      "inputs": [
        {
          "internalType": "uint256",
          "name": "_sla_period_start",
          "type": "uint256"
        },
        {
          "internalType": "uint256",
          "name": "_sla_period_end",
          "type": "uint256"
        }
      ],
      "name": "addNewPeriod",
      "outputs": [],
      "stateMutability": "nonpayable",
      "type": "function"
    },
    {
      "inputs": [
        {
          "internalType": "uint256",
          "name": "",
          "type": "uint256"
        }
      ],
      "name": "allowedTokens",
      "outputs": [
        {
          "internalType": "address",
          "name": "",
          "type": "address"
        }
      ],
      "stateMutability": "view",
      "type": "function"
    },
    {
      "inputs": [
        {
          "internalType": "address",
          "name": "",
          "type": "address"
        }
      ],
      "name": "allowedTokensMapping",
      "outputs": [
        {
          "internalType": "bool",
          "name": "",
          "type": "bool"
        }
      ],
      "stateMutability": "view",
      "type": "function"
    },
    {
      "inputs": [],
      "name": "blockNumberCreation",
      "outputs": [
        {
          "internalType": "uint256",
          "name": "",
          "type": "uint256"
        }
      ],
      "stateMutability": "view",
      "type": "function"
    },
    {
      "inputs": [
        {
          "internalType": "uint256",
          "name": "_period",
          "type": "uint256"
        }
      ],
      "name": "claimCompensation",
      "outputs": [],
      "stateMutability": "nonpayable",
      "type": "function"
    },
    {
      "inputs": [
        {
          "internalType": "uint256",
          "name": "_period",
          "type": "uint256"
        }
      ],
      "name": "claimReward",
      "outputs": [],
      "stateMutability": "nonpayable",
      "type": "function"
    },
    {
      "inputs": [
        {
          "internalType": "uint256",
          "name": "_periodId",
          "type": "uint256"
        }
      ],
      "name": "getPeriodData",
      "outputs": [
        {
          "internalType": "uint256",
          "name": "periodStart",
          "type": "uint256"
        },
        {
          "internalType": "uint256",
          "name": "periodEnd",
          "type": "uint256"
        }
      ],
      "stateMutability": "view",
      "type": "function"
    },
    {
      "inputs": [],
      "name": "getPeriodLength",
      "outputs": [
        {
          "internalType": "uint256",
          "name": "_length",
          "type": "uint256"
        }
      ],
      "stateMutability": "view",
      "type": "function"
    },
    {
      "inputs": [
        {
          "internalType": "address",
          "name": "_owner",
          "type": "address"
        },
        {
          "internalType": "uint256",
          "name": "_index",
          "type": "uint256"
        }
      ],
      "name": "getTokenStake",
      "outputs": [
        {
          "internalType": "address",
          "name": "tokenAddress",
          "type": "address"
        },
        {
          "internalType": "uint256",
          "name": "stake",
          "type": "uint256"
        }
      ],
      "stateMutability": "view",
      "type": "function"
    },
    {
      "inputs": [
        {
          "internalType": "address",
          "name": "_owner",
          "type": "address"
        }
      ],
      "name": "getTokenStakeLength",
      "outputs": [
        {
          "internalType": "uint256",
          "name": "",
          "type": "uint256"
        }
      ],
      "stateMutability": "view",
      "type": "function"
    },
    {
      "inputs": [
        {
          "internalType": "address",
          "name": "_user",
          "type": "address"
        },
        {
          "internalType": "uint256",
          "name": "_period",
          "type": "uint256"
        }
      ],
      "name": "getUserTotalValue",
      "outputs": [
        {
          "internalType": "uint256",
          "name": "",
          "type": "uint256"
        }
      ],
      "stateMutability": "view",
      "type": "function"
    },
    {
      "inputs": [],
      "name": "ipfsHash",
      "outputs": [
        {
          "internalType": "string",
          "name": "",
          "type": "string"
        }
      ],
      "stateMutability": "view",
      "type": "function"
    },
    {
      "inputs": [],
      "name": "owner",
      "outputs": [
        {
          "internalType": "address",
          "name": "",
          "type": "address"
        }
      ],
      "stateMutability": "view",
      "type": "function"
    },
    {
      "inputs": [
        {
          "internalType": "uint256",
          "name": "",
          "type": "uint256"
        }
      ],
      "name": "periods",
      "outputs": [
        {
          "internalType": "uint256",
          "name": "sla_period_start",
          "type": "uint256"
        },
        {
          "internalType": "uint256",
          "name": "sla_period_end",
          "type": "uint256"
        },
        {
          "internalType": "uint256",
          "name": "claimed_reward",
          "type": "uint256"
        },
        {
          "internalType": "bool",
          "name": "claimed",
          "type": "bool"
        },
        {
          "internalType": "enum Staking.Status",
          "name": "status",
          "type": "uint8"
        },
        {
          "internalType": "uint256",
          "name": "sli",
          "type": "uint256"
        },
        {
          "internalType": "uint256",
          "name": "timestamp",
          "type": "uint256"
        }
      ],
      "stateMutability": "view",
      "type": "function"
    },
    {
      "inputs": [],
      "name": "registry",
      "outputs": [
        {
          "internalType": "contract SLARegistry",
          "name": "",
          "type": "address"
        }
      ],
      "stateMutability": "view",
      "type": "function"
    },
    {
      "inputs": [],
      "name": "renounceOwnership",
      "outputs": [],
      "stateMutability": "nonpayable",
      "type": "function"
    },
    {
      "inputs": [],
      "name": "stake",
      "outputs": [
        {
          "internalType": "uint256",
          "name": "",
          "type": "uint256"
        }
      ],
      "stateMutability": "view",
      "type": "function"
    },
    {
      "inputs": [
        {
          "internalType": "uint256",
          "name": "",
          "type": "uint256"
        }
      ],
      "name": "stakers",
      "outputs": [
        {
          "internalType": "address",
          "name": "",
          "type": "address"
        }
      ],
      "stateMutability": "view",
      "type": "function"
    },
    {
      "inputs": [],
      "name": "stakersCount",
      "outputs": [
        {
          "internalType": "uint256",
          "name": "",
          "type": "uint256"
        }
      ],
      "stateMutability": "view",
      "type": "function"
    },
    {
      "inputs": [
        {
          "internalType": "address",
          "name": "",
          "type": "address"
        }
      ],
      "name": "tokensPool",
      "outputs": [
        {
          "internalType": "uint256",
          "name": "",
          "type": "uint256"
        }
      ],
      "stateMutability": "view",
      "type": "function"
    },
    {
      "inputs": [],
      "name": "totalStaked",
      "outputs": [
        {
          "internalType": "uint256",
          "name": "",
          "type": "uint256"
        }
      ],
      "stateMutability": "view",
      "type": "function"
    },
    {
      "inputs": [
        {
          "internalType": "address",
          "name": "newOwner",
          "type": "address"
        }
      ],
      "name": "transferOwnership",
      "outputs": [],
      "stateMutability": "nonpayable",
      "type": "function"
    },
    {
      "inputs": [
        {
          "internalType": "address",
          "name": "",
          "type": "address"
        }
      ],
      "name": "uniqueTokensStaked",
      "outputs": [
        {
          "internalType": "uint256",
          "name": "",
          "type": "uint256"
        }
      ],
      "stateMutability": "view",
      "type": "function"
    },
    {
      "inputs": [
        {
          "internalType": "address",
          "name": "",
          "type": "address"
        },
        {
          "internalType": "address",
          "name": "",
          "type": "address"
        }
      ],
      "name": "userStakedTokens",
      "outputs": [
        {
          "internalType": "bool",
          "name": "",
          "type": "bool"
        }
      ],
      "stateMutability": "view",
      "type": "function"
    },
    {
      "inputs": [
        {
          "internalType": "address",
          "name": "",
          "type": "address"
        },
        {
          "internalType": "address",
          "name": "",
          "type": "address"
        }
      ],
      "name": "userStakedTokensIndex",
      "outputs": [
        {
          "internalType": "uint256",
          "name": "",
          "type": "uint256"
        }
      ],
      "stateMutability": "view",
      "type": "function"
    },
    {
      "inputs": [
        {
          "internalType": "address",
          "name": "",
          "type": "address"
        },
        {
          "internalType": "uint256",
          "name": "",
          "type": "uint256"
        }
      ],
      "name": "userStakes",
      "outputs": [
        {
          "internalType": "address",
          "name": "tokenAddress",
          "type": "address"
        },
        {
          "internalType": "uint256",
          "name": "stake",
          "type": "uint256"
        }
      ],
      "stateMutability": "view",
      "type": "function"
    },
    {
      "inputs": [],
      "name": "validator",
      "outputs": [
        {
          "internalType": "address",
          "name": "",
          "type": "address"
        }
      ],
      "stateMutability": "view",
      "type": "function"
    },
    {
      "inputs": [
        {
          "internalType": "address",
          "name": "_token",
          "type": "address"
        },
        {
          "internalType": "uint256",
          "name": "_period",
          "type": "uint256"
        }
      ],
      "name": "withdraw",
      "outputs": [],
      "stateMutability": "nonpayable",
      "type": "function"
    },
    {
      "inputs": [
        {
          "internalType": "address",
          "name": "_token",
          "type": "address"
        },
        {
          "internalType": "uint256",
          "name": "_amount",
          "type": "uint256"
        },
        {
          "internalType": "uint256",
          "name": "_period",
          "type": "uint256"
        }
      ],
      "name": "withdrawAndStake",
      "outputs": [],
      "stateMutability": "nonpayable",
      "type": "function"
    },
    {
      "inputs": [
        {
          "internalType": "bytes32",
          "name": "_SLOName",
          "type": "bytes32"
        },
        {
          "internalType": "uint256",
          "name": "_value",
          "type": "uint256"
        },
        {
          "internalType": "uint256",
          "name": "_periodId",
          "type": "uint256"
        }
      ],
      "name": "registerSLI",
      "outputs": [],
      "stateMutability": "nonpayable",
      "type": "function"
    },
    {
      "inputs": [
        {
          "internalType": "bytes32",
          "name": "_SLOName",
          "type": "bytes32"
        }
      ],
      "name": "getSLI",
      "outputs": [
        {
          "components": [
            {
              "internalType": "uint256",
              "name": "timestamp",
              "type": "uint256"
            },
            {
              "internalType": "uint256",
              "name": "value",
              "type": "uint256"
            },
            {
              "internalType": "uint256",
              "name": "periodId",
              "type": "uint256"
            }
          ],
          "internalType": "struct SLA.SLI[]",
          "name": "",
          "type": "tuple[]"
        }
      ],
      "stateMutability": "view",
      "type": "function"
    },
    {
      "inputs": [],
      "name": "getDetails",
      "outputs": [
        {
          "internalType": "address",
          "name": "",
          "type": "address"
        },
        {
          "internalType": "string",
          "name": "",
          "type": "string"
        },
        {
          "internalType": "uint256",
          "name": "",
          "type": "uint256"
        },
        {
          "internalType": "bytes32[]",
          "name": "",
          "type": "bytes32[]"
        },
        {
          "internalType": "contract SLO[]",
          "name": "",
          "type": "address[]"
        }
      ],
      "stateMutability": "view",
      "type": "function"
    },
    {
      "inputs": [
        {
          "internalType": "uint256",
          "name": "_amount",
          "type": "uint256"
        },
        {
          "internalType": "address",
          "name": "_token",
          "type": "address"
        },
        {
          "internalType": "uint256",
          "name": "_period",
          "type": "uint256"
        }
      ],
      "name": "stakeTokens",
      "outputs": [],
      "stateMutability": "nonpayable",
      "type": "function"
    }
  ],
  "bytecode": "0x60806040523480156200001157600080fd5b506040516200378d3803806200378d8339810160408190526200003491620007c8565b8282828a60006200004462000297565b600080546001600160a01b0319166001600160a01b0383169081178255604051929350916000805160206200376d833981519152908290a3508151835114620000aa5760405162461bcd60e51b8152600401620000a19062000950565b60405180910390fd5b600480546001600160a01b038084166001600160a01b0319928316179092556001805492871692821683178155600680548083019091557ff652222313e28459528d920b65115c16c04f3efc82aaedc97be59f3f377c0d3f01805490921683179091556000918252600760205260408220805460ff191690911790555b835181101562000174576200016b8482815181106200014257fe5b60200260200101518483815181106200015757fe5b60200260200101516200029b60201b60201c565b60010162000127565b505050505060058651106200019d5760405162461bcd60e51b8152600401620000a19062000a1d565b8551875114620001c15760405162461bcd60e51b8152600401620000a190620009ce565b60005b86518110156200023557868181518110620001db57fe5b6020026020010151601060008a8481518110620001f457fe5b602090810291909101810151825281019190915260400160002080546001600160a01b0319166001600160a01b0392909216919091179055600101620001c4565b50620002418862000414565b8651620002569060129060208a019062000543565b50600d85905583516200027190600e90602087019062000593565b5050600f80546001600160a01b031916331790555050436013555062000ae79350505050565b3390565b620002a562000605565b8281526020810182815260006080830181815260a0840182905260c08401829052600280546001810182559281905284517f405787fa12a823e0f2b7631cc41b3ba8828b3321ca811111fa75cd3aa3bb5ace600890940293840190815593517f405787fa12a823e0f2b7631cc41b3ba8828b3321ca811111fa75cd3aa3bb5acf84015560408501517f405787fa12a823e0f2b7631cc41b3ba8828b3321ca811111fa75cd3aa3bb5ad084015560608501517f405787fa12a823e0f2b7631cc41b3ba8828b3321ca811111fa75cd3aa3bb5ad1909301805460ff19169315159390931780845591518594939092909161ff001990911690610100908490811115620003ab57fe5b021790555060a0820151816004015560c082015181600501555050620003e66001600280549050620004c160201b62001c021790919060201c565b6040517ff791e873e3b67fe74b29aeede7bcbbdaa59c4b64e542571183cd837aa56f6ac990600090a2505050565b6200041e62000297565b6000546001600160a01b039081169116146200044e5760405162461bcd60e51b8152600401620000a19062000999565b6001600160a01b038116620004775760405162461bcd60e51b8152600401620000a1906200090a565b600080546040516001600160a01b03808516939216916000805160206200376d83398151915291a3600080546001600160a01b0319166001600160a01b0392909216919091179055565b60006200050b83836040518060400160405280601e81526020017f536166654d6174683a207375627472616374696f6e206f766572666c6f7700008152506200051460201b60201c565b90505b92915050565b600081848411156200053b5760405162461bcd60e51b8152600401620000a19190620008d5565b505050900390565b82805482825590600052602060002090810192821562000581579160200282015b828111156200058157825182559160200191906001019062000564565b506200058f92915062000650565b5090565b828054600181600116156101000203166002900490600052602060002090601f016020900481019282601f10620005d657805160ff191683800117855562000581565b828001600101855582156200058157918201828111156200058157825182559160200191906001019062000564565b6040518060e00160405280600081526020016000815260200160008152602001600015158152602001600060028111156200063c57fe5b815260200160008152602001600081525090565b5b808211156200058f576000815560010162000651565b80516200050e8162000ace565b600082601f83011262000685578081fd5b81516200069c620006968262000a7b565b62000a54565b818152915060208083019084810181840286018201871015620006be57600080fd5b60005b84811015620006df57815184529282019290820190600101620006c1565b505050505092915050565b600082601f830112620006fb578081fd5b81516200070c620006968262000a7b565b8181529150602080830190848101818402860182018710156200072e57600080fd5b60005b84811015620006df578151620007478162000ace565b8452928201929082019060010162000731565b600082601f8301126200076b578081fd5b81516001600160401b0381111562000781578182fd5b62000796601f8201601f191660200162000a54565b9150808252836020828501011115620007ae57600080fd5b620007c181602084016020860162000a9b565b5092915050565b600080600080600080600080610100898b031215620007e5578384fd5b620007f18a8a62000667565b60208a01519098506001600160401b03808211156200080e578586fd5b6200081c8c838d0162000674565b985060408b015191508082111562000832578586fd5b620008408c838d01620006ea565b975060608b0151965060808b01519150808211156200085d578586fd5b6200086b8c838d016200075a565b95506200087c8c60a08d0162000667565b945060c08b015191508082111562000892578384fd5b620008a08c838d0162000674565b935060e08b0151915080821115620008b6578283fd5b50620008c58b828c0162000674565b9150509295985092959890939650565b6000602082528251806020840152620008f681604085016020870162000a9b565b601f01601f19169190910160400192915050565b60208082526026908201527f4f776e61626c653a206e6577206f776e657220697320746865207a65726f206160408201526564647265737360d01b606082015260800190565b60208082526029908201527f506c6561736520636865636b2074686520706172616d73206f6620796f757220604082015268706572696f6473202160b81b606082015260800190565b6020808252818101527f4f776e61626c653a2063616c6c6572206973206e6f7420746865206f776e6572604082015260600190565b6020808252602f908201527f5f534c4f4e616d657320616e64205f534c4f732073686f756c6420686176652060408201526e0e8d0ca40e6c2daca40d8cadccee8d608b1b606082015260800190565b60208082526017908201527f6d617820616d6f756e74206f6620534c4f732069732035000000000000000000604082015260600190565b6040518181016001600160401b038111828210171562000a7357600080fd5b604052919050565b60006001600160401b0382111562000a91578081fd5b5060209081020190565b60005b8381101562000ab857818101518382015260200162000a9e565b8381111562000ac8576000848401525b50505050565b6001600160a01b038116811462000ae457600080fd5b50565b612c768062000af76000396000f3fe608060405234801561001057600080fd5b50600436106102125760003560e01c806394199c6111610120578063ea4a1104116100b8578063f3fef3a31161007c578063f3fef3a31461048d578063fbbf93a0146104a0578063fc875ece146104b9578063fd0d5534146104da578063fd5e6dd1146104ed57610212565b8063ea4a11041461041b578063ec04de4814610441578063f10bd77214610454578063f2fde38b14610467578063f34ed40d1461047a57610212565b806394199c6114610375578063a2e80c5e14610397578063ae169a501461039f578063b0227b47146103b2578063b5d5b5fa146103c5578063b83e0234146103d8578063c623674f146103eb578063cec534d614610400578063dbc389ec1461041357610212565b806357ac94f0116101ae578063817b1cd211610172578063817b1cd2146103425780638469ddc71461034a578063869c3925146103525780638da5cb5b1461036557806390f817021461036d57610212565b806357ac94f0146102eb5780635e5f2e261461030c578063715018a61461031f57806375fdf2a9146103275780637b1039991461033a57610212565b806302e8b893146102175780630e1fcf3414610240578063105237cf14610255578063171e44ea146102755780631934d0e8146102885780632eac97871461029b5780633a4b66f1146102bb5780633a5381b5146102c357806353e85fd5146102d8575b600080fd5b61022a61022536600461250f565b610500565b604051610237919061270b565b60405180910390f35b61025361024e366004612527565b610591565b005b61026861026336600461243c565b6105dd565b6040516102379190612764565b61025361028336600461243c565b6105f2565b610268610296366004612458565b6106c7565b6102ae6102a9366004612458565b6106e7565b604051610237919061276f565b6102ae610704565b6102cb61070a565b604051610237919061260e565b6102536102e636600461250f565b610719565b6102fe6102f9366004612490565b610a37565b604051610237929190612646565b6102cb61031a36600461250f565b610ab7565b610253610ade565b6102536103353660046124bb565b610b5d565b6102cb610ec0565b6102ae610ecf565b6102ae610ed5565b610253610360366004612548565b610edb565b6102cb611179565b6102cb611188565b610388610383366004612527565b611197565b60405161023793929190612b95565b6102ae6111d6565b6102536103ad36600461250f565b6111dc565b6102cb6103c036600461250f565b6113b6565b6102fe6103d3366004612490565b6113d1565b6102ae6103e636600461243c565b611414565b6103f3611426565b6040516102379190612778565b61025361040e36600461258f565b6114b4565b6102ae611567565b61042e61042936600461250f565b61156d565b6040516102379796959493929190612bab565b6102ae61044f36600461243c565b6115be565b6102ae610462366004612490565b6115d9565b61025361047536600461243c565b611687565b6102ae61048836600461250f565b61173d565b61025361049b366004612490565b61175b565b6104a86119c9565b60405161023795949392919061265f565b6104cc6104c736600461250f565b611b99565b604051610237929190612b87565b6102ae6104e836600461243c565b611be3565b6102cb6104fb36600461250f565b611bf5565b606060116000838152602001908152602001600020805480602002602001604051908101604052809291908181526020016000905b828210156105855783829060005260206000209060030201604051806060016040529081600082015481526020016001820154815260200160028201548152505081526020019060010190610535565b5050505090505b919050565b610599611c44565b6000546001600160a01b039081169116146105cf5760405162461bcd60e51b81526004016105c690612a44565b60405180910390fd5b6105d98282611c48565b5050565b60076020526000908152604090205460ff1681565b6105fa611c44565b6000546001600160a01b039081169116146106275760405162461bcd60e51b81526004016105c690612a44565b6001600160a01b03811660009081526007602052604090205460ff16156106605760405162461bcd60e51b81526004016105c690612952565b6006805460018181019092557ff652222313e28459528d920b65115c16c04f3efc82aaedc97be59f3f377c0d3f0180546001600160a01b039093166001600160a01b031990931683179055600091825260076020526040909120805460ff19169091179055565b600b60209081526000928352604080842090915290825290205460ff1681565b600a60209081526000928352604080842090915290825290205481565b600d5481565b6004546001600160a01b031681565b806002818154811061072757fe5b906000526020600020906008020160000154421015801561076657506002818154811061075057fe5b9060005260206000209060080201600101544211155b61076f57600080fd5b6004546001600160a01b031633141561079a5760405162461bcd60e51b81526004016105c6906128ec565b60028083815481106107a857fe5b906000526020600020906008020160030160019054906101000a900460ff1660028111156107d257fe5b146107ef5760405162461bcd60e51b81526004016105c690612801565b600282815481106107fc57fe5b6000918252602080832033845260076008909302019190910190526040902054156108395760405162461bcd60e51b81526004016105c690612b2a565b600061084533846115d9565b9050600061085f600a610859846003611dac565b90611de6565b60035490915061086f9083611c02565b600381905550816002858154811061088357fe5b600091825260208083203380855260089390930201600701905260409182902092909255600154905163a9059cbb60e01b81526001600160a01b039091169163a9059cbb916108d791908690600401612646565b602060405180830381600087803b1580156108f157600080fd5b505af1158015610905573d6000803e3d6000fd5b505050506040513d601f19601f8201168201806040525081019061092991906124ef565b50600154604080518082018252600d81526c6275726e2875696e743235362960981b602090910152516000916001600160a01b0316907f42966c689b5afe9b9b3f8a7103b2a19980d59629bfd6a20a60972312ed41d8369061098f90859060240161276f565b60408051601f198184030181529181526020820180516001600160e01b03166001600160e01b03199094169390931790925290516109cd91906125f2565b6000604051808303816000865af19150503d8060008114610a0a576040519150601f19603f3d011682016040523d82523d6000602084013e610a0f565b606091505b5050905080610a305760405162461bcd60e51b81526004016105c69061278b565b5050505050565b6001600160a01b0382166000908152600960205260408120805482919084908110610a5e57fe5b600091825260208083206002909202909101546001600160a01b03878116845260099092526040909220805491909216919085908110610a9a57fe5b906000526020600020906002020160010154915091509250929050565b60068181548110610ac457fe5b6000918252602090912001546001600160a01b0316905081565b610ae6611c44565b6000546001600160a01b03908116911614610b135760405162461bcd60e51b81526004016105c690612a44565b600080546040516001600160a01b03909116907f8be0079c531659141344cd1fd0a4f28419497f9722a3daafe3b4186f6b6457e0908390a3600080546001600160a01b0319169055565b6004546001600160a01b0316331415610b885760405162461bcd60e51b81526004016105c6906128ec565b6001600160a01b038316600090815260076020526040902054839060ff161515600114610bc75760405162461bcd60e51b81526004016105c690612a16565b600060028381548110610bd657fe5b600091825260208083206001600160a01b03891684526006600890930201919091018152604080832033845290915290205411610c255760405162461bcd60e51b81526004016105c69061291b565b6040516323b872dd60e01b81526001600160a01b038516906323b872dd90610c5590339030908890600401612622565b602060405180830381600087803b158015610c6f57600080fd5b505af1158015610c83573d6000803e3d6000fd5b505050506040513d601f19601f82011682018060405250810190610ca791906124ef565b50610cf18360028481548110610cb957fe5b600091825260208083206001600160a01b038a1684526006600890930201919091018152604080832033845290915290205490611e28565b60028381548110610cfe57fe5b600091825260208083206001600160a01b038916845260066008909302019190910181526040808320338452909152902055600354610d3d9084611e28565b600355610d4a8484611e4d565b600060028381548110610d5957fe5b600091825260208083206001600160a01b03891684526006600890930201919091018152604080832033845290915281205460055460028054929450610dc39287908110610da357fe5b906000526020600020906008020160020154611de690919063ffffffff16565b9050600060028581548110610dd457fe5b600091825260208083206001600160a01b038b16845260066008909302019190910181526040808320338452909152902055600354610e139083611c02565b6003556001546001600160a01b031663a9059cbb33610e328585611c02565b6040518363ffffffff1660e01b8152600401610e4f929190612646565b602060405180830381600087803b158015610e6957600080fd5b505af1158015610e7d573d6000803e3d6000fd5b505050506040513d601f19601f82011682018060405250810190610ea191906124ef565b50600154610eb8906001600160a01b031683611fed565b505050505050565b600f546001600160a01b031681565b60035481565b60025490565b600f60009054906101000a90046001600160a01b03166001600160a01b0316633cb747bf6040518163ffffffff1660e01b815260040160206040518083038186803b158015610f2957600080fd5b505afa158015610f3d573d6000803e3d6000fd5b505050506040513d601f19601f82011682018060405250810190610f619190612573565b6001600160a01b0316336001600160a01b031614610f915760405162461bcd60e51b81526004016105c6906128a7565b600083815260116020908152604080832081516060810183524281528084018781529281018681528254600181810185559387529490952090516003909402019283559051908201559051600291820155805483919083908110610ff157fe5b906000526020600020906008020160040181905550426002828154811061101457fe5b9060005260206000209060080201600501819055507fc95987c1992805ee34bdc915e017cceae36ba1c156b9911fa7e691e6435eb46e42838360405161105c93929190612b95565b60405180910390a16000838152601060205260409081902054905163868d08f760e01b81526001600160a01b039091169063868d08f7906110a190859060040161276f565b60206040518083038186803b1580156110b957600080fd5b505afa1580156110cd573d6000803e3d6000fd5b505050506040513d601f19601f820116820180604052508101906110f191906124ef565b61113657600280828154811061110357fe5b60009182526020909120600360089092020101805461ff00191661010083600281111561112c57fe5b0217905550611174565b60016002828154811061114557fe5b60009182526020909120600360089092020101805461ff00191661010083600281111561116e57fe5b02179055505b505050565b6000546001600160a01b031690565b6001546001600160a01b031681565b601160205281600052604060002081815481106111b057fe5b600091825260209091206003909102018054600182015460029092015490935090915083565b60055490565b80600281815481106111ea57fe5b906000526020600020906008020160000154421015801561122957506002818154811061121357fe5b9060005260206000209060080201600101544211155b61123257600080fd5b6004546001600160a01b0316331461125c5760405162461bcd60e51b81526004016105c690612af7565b60016002838154811061126b57fe5b906000526020600020906008020160030160019054906101000a900460ff16600281111561129557fe5b146112b25760405162461bcd60e51b81526004016105c6906127d4565b600282815481106112bf57fe5b600091825260209091206003600890920201015460ff16156112f35760405162461bcd60e51b81526004016105c69061297f565b6002546003546000916113069190611de6565b9050600061131a600a610859846003611dac565b60035490915061132a9083611c02565b600381905550816002858154811061133e57fe5b90600052602060002090600802016002018190555060016002858154811061136257fe5b60009182526020909120600890910201600301805460ff191691151591909117905560015460405163a9059cbb60e01b81526001600160a01b039091169063a9059cbb906108d79033908690600401612646565b6010602052600090815260409020546001600160a01b031681565b600960205281600052604060002081815481106113ea57fe5b6000918252602090912060029091020180546001909101546001600160a01b039091169250905082565b60086020526000908152604090205481565b600e805460408051602060026001851615610100026000190190941693909304601f810184900484028201840190925281815292918301828280156114ac5780601f10611481576101008083540402835291602001916114ac565b820191906000526020600020905b81548152906001019060200180831161148f57829003601f168201915b505050505081565b600f54604051635948284760e11b81526000916001600160a01b03169063b290508e906114e590339060040161260e565b602060405180830381600087803b1580156114ff57600080fd5b505af1158015611513573d6000803e3d6000fd5b505050506040513d601f19601f8201168201806040525081019061153791906124ef565b9050806115565760405162461bcd60e51b81526004016105c690612a79565b6115618484846120c3565b50505050565b60135481565b6002818154811061157a57fe5b60009182526020909120600890910201805460018201546002830154600384015460048501546005909501549395509193909260ff80841693610100900416919087565b6001600160a01b031660009081526009602052604090205490565b6001600160a01b03821660009081526008602052604081205481901561167e5760005b60065481101561167c576116726002858154811061161657fe5b906000526020600020906008020160060160006006848154811061163657fe5b60009182526020808320909101546001600160a01b0390811684528382019490945260409283018220938a168252929092529020548390611e28565b91506001016115fc565b505b90505b92915050565b61168f611c44565b6000546001600160a01b039081169116146116bc5760405162461bcd60e51b81526004016105c690612a44565b6001600160a01b0381166116e25760405162461bcd60e51b81526004016105c69061282a565b600080546040516001600160a01b03808516939216917f8be0079c531659141344cd1fd0a4f28419497f9722a3daafe3b4186f6b6457e091a3600080546001600160a01b0319166001600160a01b0392909216919091179055565b6012818154811061174a57fe5b600091825260209091200154905081565b6004546001600160a01b03163314156117865760405162461bcd60e51b81526004016105c6906128ec565b6001600160a01b038216600090815260076020526040902054829060ff1615156001146117c55760405162461bcd60e51b81526004016105c690612a16565b6000600283815481106117d457fe5b600091825260208083206001600160a01b038816845260066008909302019190910181526040808320338452909152902054116118235760405162461bcd60e51b81526004016105c69061291b565b60006002838154811061183257fe5b600091825260208083206001600160a01b0388168452600660089093020191909101815260408083203384529091528120546005546002805492945061187c9287908110610da357fe5b905060006002858154811061188d57fe5b600091825260208083206001600160a01b038a168452600660089093020191909101815260408083203384529091529020556003546118cc9083611c02565b6003556001600160a01b03851663a9059cbb336118e98585611c02565b6040518363ffffffff1660e01b8152600401611906929190612646565b602060405180830381600087803b15801561192057600080fd5b505af1158015611934573d6000803e3d6000fd5b505050506040513d601f19601f8201168201806040525081019061195891906124ef565b5033600090815260086020526040902054611974906001611c02565b3360009081526008602052604090208190556119bf576000611995336122ad565b9050600581815481106119a457fe5b600091825260209091200180546001600160a01b0319169055505b610a308583611fed565b600060606000606080606060128054905067ffffffffffffffff811180156119f057600080fd5b50604051908082528060200260200182016040528015611a1a578160200160208202803683370190505b50905060005b601254811015611a94576010600060128381548110611a3b57fe5b9060005260206000200154815260200190815260200160002060009054906101000a90046001600160a01b0316828281518110611a7457fe5b6001600160a01b0390921660209283029190910190910152600101611a20565b50611a9d611179565b600d54600e805460408051602060026001851615610100026000190190941693909304601f810184900484028201840190925281815292939260129287928691830182828015611b2e5780601f10611b0357610100808354040283529160200191611b2e565b820191906000526020600020905b815481529060010190602001808311611b1157829003601f168201915b5050505050935081805480602002602001604051908101604052809291908181526020018280548015611b8057602002820191906000526020600020905b815481526020019060010190808311611b6c575b5050505050915095509550955095509550509091929394565b60008060028381548110611ba957fe5b90600052602060002090600802016000015460028481548110611bc857fe5b90600052602060002090600802016001015491509150915091565b600c6020526000908152604090205481565b60058181548110610ac457fe5b600061167e83836040518060400160405280601e81526020017f536166654d6174683a207375627472616374696f6e206f766572666c6f770000815250612306565b3390565b611c506123f2565b8281526020810182815260006080830181815260a0840182905260c08401829052600280546001810182559281905284517f405787fa12a823e0f2b7631cc41b3ba8828b3321ca811111fa75cd3aa3bb5ace600890940293840190815593517f405787fa12a823e0f2b7631cc41b3ba8828b3321ca811111fa75cd3aa3bb5acf84015560408501517f405787fa12a823e0f2b7631cc41b3ba8828b3321ca811111fa75cd3aa3bb5ad084015560608501517f405787fa12a823e0f2b7631cc41b3ba8828b3321ca811111fa75cd3aa3bb5ad1909301805460ff19169315159390931780845591518594939092909161ff001990911690610100908490811115611d5557fe5b021790555060a0820151600482015560c090910151600590910155600254611d7e906001611c02565b6040517ff791e873e3b67fe74b29aeede7bcbbdaa59c4b64e542571183cd837aa56f6ac990600090a2505050565b600082611dbb57506000611681565b82820282848281611dc857fe5b041461167e5760405162461bcd60e51b81526004016105c6906129d5565b600061167e83836040518060400160405280601a81526020017f536166654d6174683a206469766973696f6e206279207a65726f000000000000815250612332565b60008282018381101561167e5760405162461bcd60e51b81526004016105c690612870565b336000908152600b602090815260408083206001600160a01b038616845290915290205460ff16611f1857336000818152600960209081526040808320815180830183526001600160a01b03888116808352828601898152845460018082018755868a52888a209551600290920290950180546001600160a01b0319169190941617835551918301919091558686529154600a85528386208387528552838620600019919091019055948452600b83528184209084529091529020805460ff19169091179055611faa565b336000818152600a602090815260408083206001600160a01b0387168452825280832054938352600990915290208054611f7891849184908110611f5857fe5b906000526020600020906002020160010154611e2890919063ffffffff16565b336000908152600960205260409020805483908110611f9357fe5b906000526020600020906002020160010181905550505b6001600160a01b0382166000908152600c6020526040902054611fcd9082611e28565b6001600160a01b039092166000908152600c602052604090209190915550565b336000818152600a602090815260408083206001600160a01b038716845282528083205493835260099091529020805461204d9184918490811061202d57fe5b906000526020600020906002020160010154611c0290919063ffffffff16565b33600090815260096020526040902080548390811061206857fe5b60009182526020808320600160029093020191909101929092556001600160a01b0385168152600c90915260409020546120a29083611c02565b6001600160a01b039093166000908152600c60205260409020929092555050565b6001600160a01b038216600090815260076020526040902054829060ff1615156001146121025760405162461bcd60e51b81526004016105c690612a16565b600084116121225760405162461bcd60e51b81526004016105c690612acb565b61212d338484612369565b6040516323b872dd60e01b81526001600160a01b038416906323b872dd9061215d90339030908990600401612622565b602060405180830381600087803b15801561217757600080fd5b505af115801561218b573d6000803e3d6000fd5b505050506040513d601f19601f820116820180604052508101906121af91906124ef565b506121f984600284815481106121c157fe5b600091825260208083206001600160a01b03891684526006600890930201919091018152604080832033845290915290205490611e28565b6002838154811061220657fe5b600091825260208083206001600160a01b0388168452600660089093020191909101815260408083203384529091529020556003546122459085611e28565b60035533600090815260086020526040902054600114156122a357600580546001810182556000919091527f036b6384b5eca791c62761152d0c79bb0604c104a5fb6f4eb0703f3154bb3db00180546001600160a01b031916331790555b6115618385611e4d565b6000805b6005548110156122fc57826001600160a01b0316600582815481106122d257fe5b6000918252602090912001546001600160a01b031614156122f457905061058c565b6001016122b1565b5060001992915050565b6000818484111561232a5760405162461bcd60e51b81526004016105c69190612778565b505050900390565b600081836123535760405162461bcd60e51b81526004016105c69190612778565b50600083858161235f57fe5b0495945050505050565b60006002828154811061237857fe5b600091825260208083206001600160a01b0387811685526008939093020160060181526040808420928816845291905290205411611174576001600160a01b0383166000908152600860205260409020546123d4906001611e28565b6001600160a01b038416600090815260086020526040902055505050565b6040518060e001604052806000815260200160008152602001600081526020016000151581526020016000600281111561242857fe5b815260200160008152602001600081525090565b60006020828403121561244d578081fd5b813561167e81612c28565b6000806040838503121561246a578081fd5b823561247581612c28565b9150602083013561248581612c28565b809150509250929050565b600080604083850312156124a2578182fd5b82356124ad81612c28565b946020939093013593505050565b6000806000606084860312156124cf578081fd5b83356124da81612c28565b95602085013595506040909401359392505050565b600060208284031215612500578081fd5b8151801515811461167e578182fd5b600060208284031215612520578081fd5b5035919050565b60008060408385031215612539578182fd5b50508035926020909101359150565b60008060006060848603121561255c578283fd5b505081359360208301359350604090920135919050565b600060208284031215612584578081fd5b815161167e81612c28565b6000806000606084860312156125a3578283fd5b8335925060208401356125b581612c28565b929592945050506040919091013590565b600081518084526125de816020860160208601612bfc565b601f01601f19169290920160200192915050565b60008251612604818460208701612bfc565b9190910192915050565b6001600160a01b0391909116815260200190565b6001600160a01b039384168152919092166020820152604081019190915260600190565b6001600160a01b03929092168252602082015260400190565b6001600160a01b038616815260a06020808301829052600091612684908401886125c6565b604084018790528381036060850152855180825282870191830190845b818110156126bd578351835292840192918401916001016126a1565b505084810360808601528551808252908301915082860190845b818110156126fb576126e98351612bf0565b845292840192918401916001016126d7565b50919a9950505050505050505050565b602080825282518282018190526000919060409081850190868401855b828110156127575781518051855286810151878601528501518585015260609093019290850190600101612728565b5091979650505050505050565b901515815260200190565b90815260200190565b60006020825261167e60208301846125c6565b60208082526029908201527f42617365546f6b656e206275726e2070726f6365737320776173206e6f7420736040820152681d58d8d95cdcd99d5b60ba1b606082015260800190565b602080825260139082015272534c41206e6f7420726573706563746564202160681b604082015260600190565b6020808252600f908201526e534c4120726573706563746564202160881b604082015260600190565b60208082526026908201527f4f776e61626c653a206e6577206f776e657220697320746865207a65726f206160408201526564647265737360d01b606082015260800190565b6020808252601b908201527f536166654d6174683a206164646974696f6e206f766572666c6f770000000000604082015260600190565b60208082526025908201527f4f6e6c79204d657373656e6765722063616e2063616c6c20746869732066756e60408201526431ba34b7b760d91b606082015260800190565b602080825260159082015274596f752061726520612076616c696461746f72202160581b604082015260600190565b6020808252601b908201527f7374616b696e672062616c616e63652063616e6e6f7420626520300000000000604082015260600190565b6020808252601390820152721d1bdad95b88185b1c9958591e481859191959606a1b604082015260600190565b60208082526036908201527f596f75206861766520616c726561647920636c61696d656420796f75722072656040820152757761726420666f72207468697320706572696f64202160501b606082015260800190565b60208082526021908201527f536166654d6174683a206d756c7469706c69636174696f6e206f766572666c6f6040820152607760f81b606082015260800190565b6020808252601490820152731d1bdad95b881a5cc81b9bdd08185b1b1bddd95960621b604082015260600190565b6020808252818101527f4f776e61626c653a2063616c6c6572206973206e6f7420746865206f776e6572604082015260600190565b60208082526032908201527f736c6120776173206e6f742072656769737465726564206173207374616b656460408201527110313c903a34329036b9b39739b2b73232b960711b606082015260800190565b6020808252601290820152710616d6f756e742063616e6e6f7420626520360741b604082015260600190565b602080825260199082015278596f7520617265206e6f7420612076616c696461746f72202160381b604082015260600190565b6020808252603c908201527f596f75206861766520616c726561647920636c61696d656420796f757220636f60408201527f6d70656e736174696f6e20666f72207468697320706572696f64202100000000606082015260800190565b918252602082015260400190565b9283526020830191909152604082015260600190565b8781526020810187905260408101869052841515606082015260e0810160038510612bd257fe5b8460808301528360a08301528260c083015298975050505050505050565b6001600160a01b031690565b60005b83811015612c17578181015183820152602001612bff565b838111156115615750506000910152565b6001600160a01b0381168114612c3d57600080fd5b5056fea264697066735822122017e053b7b078349986e0d2e985427ad975274446a6d27a2aa18c37093545ddde64736f6c634300060c00338be0079c531659141344cd1fd0a4f28419497f9722a3daafe3b4186f6b6457e0",
  "immutableReferences": {},
  "source": "// SPDX-License-Identifier: MIT\npragma solidity ^0.6.0;\npragma experimental ABIEncoderV2;\n\nimport \"@openzeppelin/contracts/access/Ownable.sol\";\nimport \"@openzeppelin/contracts/token/ERC20/IERC20.sol\";\nimport \"@openzeppelin/contracts/math/SafeMath.sol\";\nimport \"../SLO/SLO.sol\";\nimport \"../SLARegistry.sol\";\nimport \"./Staking.sol\";\n\n/**\n * @title SLA\n * @dev SLA is a service level agreement contract used for service downtime\n * compensation\n */\ncontract SLA is Ownable, Staking {\n    using SafeMath for uint256;\n\n    /// @dev The required amount to stake when subscribing to the agreement\n    uint256 public stake;\n\n    /// @dev The ipfs hash that stores extra information about the agreement\n    string public ipfsHash;\n\n    /// @dev The address of the registry contract\n    SLARegistry public registry;\n\n    /// @dev Struct used for storing registered SLI's\n    struct SLI {\n        uint256 timestamp;\n        uint256 value;\n        uint256 periodId;\n    }\n\n    /// @dev mapping to get SLO addresses from SLO names in bytes32\n    mapping(bytes32 => SLO) public SLOs;\n\n    /// @dev mapping to get SLI structs from SLO names in bytes32\n    mapping(bytes32 => SLI[]) public SLIs;\n\n    /// @dev array storing the names of the SLO's of this agreement\n    bytes32[] public SLONames;\n\n    /// @dev block timestamp of SLA deployment\n    uint256 public blockNumberCreation;\n\n    /**\n     * @dev event for SLI creation logging\n     * @param _timestamp 1. the time the SLI has been registered\n     * @param _value 2. the value of the SLI\n     * @param _periodId 3. the id of the given period\n     */\n    event SLICreated(uint256 _timestamp, uint256 _value, uint256 _periodId);\n\n    /**\n     * @dev throws if called by any address other than the messenger contract.\n     */\n    modifier onlyMessenger() {\n        require(\n            msg.sender == address(registry.messenger()),\n            \"Only Messenger can call this function\"\n        );\n        _;\n    }\n\n    /**\n     * @dev throws if called by any address other than the messenger contract.\n     */\n    modifier onlySLARegistry() {\n        require(\n            msg.sender == address(registry),\n            \"Only SLARegistry can call this function\"\n        );\n        _;\n    }\n\n    /**\n     * @param _owner 1. address of the owner of the service level agreement\n     * @param _SLONames 2. array of the names of the service level objectives\n     * in bytes32\n     * @param _SLOs 3. array of service level objective contract addressess\n     * service level objective breach\n     * @param _stake 4. uint of the amount required to stake when signing the\n     * service level agreement\n     * @param _ipfsHash 5. string with the ipfs hash that contains extra\n     * information about the service level agreement\n     * @param _baseTokenAddress 6. address of the Base Token to be unlocked for staking\n     * @param _sla_period_starts 7. array with the values for the \"start\" of every period\n     * @param _sla_period_ends 8. array with the values for the \"end\" of every period\n     */\n    constructor(\n        address _owner,\n        bytes32[] memory _SLONames,\n        SLO[] memory _SLOs,\n        uint256 _stake,\n        string memory _ipfsHash,\n        address _baseTokenAddress,\n        uint256[] memory _sla_period_starts,\n        uint256[] memory _sla_period_ends\n    )\n        public\n        Staking(_baseTokenAddress, _sla_period_starts, _sla_period_ends, _owner)\n    {\n        require(_SLOs.length < 5, \"max amount of SLOs is 5\");\n        require(\n            _SLONames.length == _SLOs.length,\n            \"_SLONames and _SLOs should have the same length\"\n        );\n\n        for (uint256 i = 0; i < _SLOs.length; i++) {\n            SLOs[_SLONames[i]] = _SLOs[i];\n        }\n\n        transferOwnership(_owner);\n        SLONames = _SLONames;\n        stake = _stake;\n        ipfsHash = _ipfsHash;\n        registry = SLARegistry(msg.sender);\n        blockNumberCreation = block.number;\n    }\n\n    /**\n     * @dev external function to register SLI's and check them against the SLO's\n     * @param _SLOName 1. the name of the SLO in bytes32\n     * @param _value 2. the value of the SLI to check\n     * @param _periodId 3. the id of the given period\n     */\n    function registerSLI(\n        bytes32 _SLOName,\n        uint256 _value,\n        uint256 _periodId\n    ) external onlyMessenger {\n        SLIs[_SLOName].push(SLI(block.timestamp, _value, _periodId));\n        periods[_periodId].sli = _value;\n        periods[_periodId].timestamp = block.timestamp;\n\n        emit SLICreated(block.timestamp, _value, _periodId);\n\n        if (!SLOs[_SLOName].isSLOHonored(_value)) {\n            periods[_periodId].status = Status.NotRespected;\n        } else {\n            periods[_periodId].status = Status.Respected;\n        }\n    }\n\n    /**\n     * @dev external function to get SLIs of certain _SLO\n     * @param _SLOName 1. the name of the SLO in bytes32\n     * @return SLI[] array of SLIs associated to the input SLOs\n     */\n    function getSLI(bytes32 _SLOName) public view returns (SLI[] memory) {\n        return SLIs[_SLOName];\n    }\n\n    /**\n     * @dev external view function that returns all agreement information\n     * @return address owner\n     * @return string ipfsHash\n     * @return uint256 amount necessary to stake\n     * @return bytes32[] SLONames array\n     * @return SLO[] SLO addresses array\n     */\n\n    function getDetails()\n        external\n        view\n        returns (\n            address,\n            string memory,\n            uint256,\n            bytes32[] memory,\n            SLO[] memory\n        )\n    {\n        SLO[] memory _SLOAddresses = new SLO[](SLONames.length);\n\n        for (uint256 i = 0; i < SLONames.length; i++) {\n            _SLOAddresses[i] = SLOs[SLONames[i]];\n        }\n\n        return (owner(), ipfsHash, stake, SLONames, _SLOAddresses);\n    }\n\n    /**\n     *@dev increase the _amount staked per _token of _sla\n     *@param _amount 1. amount to be staked\n     *@param _token 2. address of the ERC to be staked\n     *@param _period 3. period id to stake\n     */\n\n    function stakeTokens(\n        uint256 _amount,\n        address _token,\n        uint256 _period\n    ) public {\n        bool success = registry.registerStakedSla(msg.sender);\n        require(success, \"sla was not registered as staked by the msg.sender\");\n        _stakeTokens(_amount, _token, _period);\n    }\n}\n",
  "sourcePath": "/Users/matiasbn/Desktop/stacktical/stacktical-dsla-contracts/contracts/SLA/SLA.sol",
  "compiler": {
    "name": "solc",
    "version": "0.6.12+commit.27d51765.Emscripten.clang"
  },
  "schemaVersion": "3.2.5",
  "updatedAt": "2021-01-28T20:43:50.394Z",
  "devdoc": {
    "details": "SLA is a service level agreement contract used for service downtime compensation",
    "events": {
      "SLICreated(uint256,uint256,uint256)": {
        "details": "event for SLI creation logging",
        "params": {
          "_periodId": "3. the id of the given period",
          "_timestamp": "1. the time the SLI has been registered",
          "_value": "2. the value of the SLI"
        }
      }
    },
    "kind": "dev",
    "methods": {
      "addAllowedTokens(address)": {
        "details": "add a token to ve allowed for staking",
        "params": {
          "_token": "1. address of the new allowed token"
        }
      },
      "addNewPeriod(uint256,uint256)": {
        "details": "add a new period to the array",
        "params": {
          "_sla_period_end": "2. uint256 of the end of the period",
          "_sla_period_start": "1. uint256 of the start of the period"
        }
      },
      "claimCompensation(uint256)": {
        "details": "claim from delegators",
        "params": {
          "_period": "1. period id to claim"
        }
      },
      "claimReward(uint256)": {
        "details": "claim from validators",
        "params": {
          "_period": "1. period id to claim"
        }
      },
      "constructor": {
        "params": {
          "_SLONames": "2. array of the names of the service level objectives in bytes32",
          "_SLOs": "3. array of service level objective contract addressess service level objective breach",
          "_baseTokenAddress": "6. address of the Base Token to be unlocked for staking",
          "_ipfsHash": "5. string with the ipfs hash that contains extra information about the service level agreement",
          "_owner": "1. address of the owner of the service level agreement",
          "_sla_period_ends": "8. array with the values for the \"end\" of every period",
          "_sla_period_starts": "7. array with the values for the \"start\" of every period",
          "_stake": "4. uint of the amount required to stake when signing the service level agreement"
        }
      },
      "getDetails()": {
        "details": "external view function that returns all agreement information",
        "returns": {
          "_0": "address owner",
          "_1": "string ipfsHash",
          "_2": "uint256 amount necessary to stake",
          "_3": "bytes32[] SLONames array",
          "_4": "SLO[] SLO addresses array"
        }
      },
      "getPeriodLength()": {
        "details": "returns the lenght of the periods array"
      },
      "getSLI(bytes32)": {
        "details": "external function to get SLIs of certain _SLO",
        "params": {
          "_SLOName": "1. the name of the SLO in bytes32"
        },
        "returns": {
          "_0": "SLI[] array of SLIs associated to the input SLOs"
        }
      },
      "getTokenStake(address,uint256)": {
        "details": "returns the token stake according to index",
        "params": {
          "_index": "2. index of the TokenStake",
          "_owner": "1. owner of the stake"
        }
      },
      "getTokenStakeLength(address)": {
        "details": "returns the length of TokenStakes per user",
        "params": {
          "_owner": "1. owner of the stake"
        }
      },
      "getUserTotalValue(address,uint256)": {
        "details": "get the user total value staked",
        "params": {
          "_period": "2. period id to claim",
          "_user": "1. address of the user"
        }
      },
      "owner()": {
        "details": "Returns the address of the current owner."
      },
      "registerSLI(bytes32,uint256,uint256)": {
        "details": "external function to register SLI's and check them against the SLO's",
        "params": {
          "_SLOName": "1. the name of the SLO in bytes32",
          "_periodId": "3. the id of the given period",
          "_value": "2. the value of the SLI to check"
        }
      },
      "renounceOwnership()": {
        "details": "Leaves the contract without owner. It will not be possible to call `onlyOwner` functions anymore. Can only be called by the current owner. NOTE: Renouncing ownership will leave the contract without an owner, thereby removing any functionality that is only available to the owner."
      },
      "stakeTokens(uint256,address,uint256)": {
        "details": "increase the _amount staked per _token of _sla",
        "params": {
          "_amount": "1. amount to be staked",
          "_period": "3. period id to stake",
          "_token": "2. address of the ERC to be staked"
        }
      },
      "stakersCount()": {
        "details": "public view function that returns the total amount of stakers"
      },
      "transferOwnership(address)": {
        "details": "Transfers ownership of the contract to a new account (`newOwner`). Can only be called by the current owner."
      },
      "withdraw(address,uint256)": {
        "details": "withdraw staked tokens",
        "params": {
          "_period": "2. period id to withdraw",
          "_token": "1. address of the token"
        }
      },
      "withdrawAndStake(address,uint256,uint256)": {
        "details": "withdraw BaseToken and stake d Tokens",
        "params": {
          "_amount": "2. amount to withdraw",
          "_period": "3. period id to withdraw",
          "_token": "1. address of the token"
        }
      }
    },
    "stateVariables": {
      "SLIs": {
        "details": "mapping to get SLI structs from SLO names in bytes32"
      },
      "SLONames": {
        "details": "array storing the names of the SLO's of this agreement"
      },
      "SLOs": {
        "details": "mapping to get SLO addresses from SLO names in bytes32"
      },
      "blockNumberCreation": {
        "details": "block timestamp of SLA deployment"
      },
      "ipfsHash": {
        "details": "The ipfs hash that stores extra information about the agreement"
      },
      "registry": {
        "details": "The address of the registry contract"
      },
      "stake": {
        "details": "The required amount to stake when subscribing to the agreement"
      }
    },
    "title": "SLA",
    "version": 1
  },
  "userdoc": {
    "kind": "user",
    "methods": {},
    "version": 1
  }
}