{
  "contractName": "SLA",
  "abi": [
    {
      "inputs": [
        {
          "internalType": "address",
          "name": "_owner",
          "type": "address"
        },
        {
          "internalType": "contract SLO",
          "name": "_SLO",
          "type": "address"
        },
        {
          "internalType": "string",
          "name": "_ipfsHash",
          "type": "string"
        },
        {
          "internalType": "address",
          "name": "_messengerAddress",
          "type": "address"
        },
        {
          "internalType": "uint256[]",
          "name": "_periodIds",
          "type": "uint256[]"
        },
        {
          "internalType": "enum PeriodRegistry.PeriodType",
          "name": "_periodType",
          "type": "uint8"
        },
        {
          "internalType": "address",
          "name": "_stakeRegistry",
          "type": "address"
        },
        {
          "internalType": "address",
          "name": "_periodRegistry",
          "type": "address"
        },
        {
          "internalType": "bool",
          "name": "_whitelisted",
          "type": "bool"
        },
        {
          "internalType": "bytes32[]",
          "name": "_extraData",
          "type": "bytes32[]"
        }
      ],
      "stateMutability": "nonpayable",
      "type": "constructor"
    },
    {
      "anonymous": false,
      "inputs": [
        {
          "indexed": true,
          "internalType": "address",
          "name": "previousOwner",
          "type": "address"
        },
        {
          "indexed": true,
          "internalType": "address",
          "name": "newOwner",
          "type": "address"
        }
      ],
      "name": "OwnershipTransferred",
      "type": "event"
    },
    {
      "anonymous": false,
      "inputs": [
        {
          "indexed": false,
          "internalType": "uint256",
          "name": "_periodId",
          "type": "uint256"
        },
        {
          "indexed": false,
          "internalType": "uint256",
          "name": "_sli",
          "type": "uint256"
        }
      ],
      "name": "SLANotRespected",
      "type": "event"
    },
    {
      "anonymous": false,
      "inputs": [
        {
          "indexed": false,
          "internalType": "uint256",
          "name": "_timestamp",
          "type": "uint256"
        },
        {
          "indexed": false,
          "internalType": "uint256",
          "name": "_sli",
          "type": "uint256"
        },
        {
          "indexed": false,
          "internalType": "uint256",
          "name": "_periodId",
          "type": "uint256"
        }
      ],
      "name": "SLICreated",
      "type": "event"
    },
    {
      "inputs": [],
      "name": "DSLAburnRate",
      "outputs": [
        {
          "internalType": "uint256",
          "name": "",
          "type": "uint256"
        }
      ],
      "stateMutability": "view",
      "type": "function"
    },
    {
      "inputs": [
        {
          "internalType": "address",
          "name": "_tokenAddress",
          "type": "address"
        }
      ],
      "name": "_claimCompensation",
      "outputs": [],
      "stateMutability": "nonpayable",
      "type": "function"
    },
    {
      "inputs": [
        {
          "internalType": "address",
          "name": "_tokenAddress",
          "type": "address"
        }
      ],
      "name": "addAllowedTokens",
      "outputs": [],
      "stateMutability": "nonpayable",
      "type": "function"
    },
    {
      "inputs": [
        {
          "internalType": "address",
          "name": "_userAddress",
          "type": "address"
        }
      ],
      "name": "addUserToWhitelist",
      "outputs": [],
      "stateMutability": "nonpayable",
      "type": "function"
    },
    {
      "inputs": [
        {
          "internalType": "uint256",
          "name": "",
          "type": "uint256"
        }
      ],
      "name": "allowedTokens",
      "outputs": [
        {
          "internalType": "address",
          "name": "",
          "type": "address"
        }
      ],
      "stateMutability": "view",
      "type": "function"
    },
    {
      "inputs": [],
      "name": "creationBlockNumber",
      "outputs": [
        {
          "internalType": "uint256",
          "name": "",
          "type": "uint256"
        }
      ],
      "stateMutability": "view",
      "type": "function"
    },
    {
      "inputs": [],
      "name": "dslaTokenAddress",
      "outputs": [
        {
          "internalType": "address",
          "name": "",
          "type": "address"
        }
      ],
      "stateMutability": "view",
      "type": "function"
    },
    {
      "inputs": [
        {
          "internalType": "uint256",
          "name": "",
          "type": "uint256"
        }
      ],
      "name": "extraData",
      "outputs": [
        {
          "internalType": "bytes32",
          "name": "",
          "type": "bytes32"
        }
      ],
      "stateMutability": "view",
      "type": "function"
    },
    {
      "inputs": [],
      "name": "getAllowedTokensLength",
      "outputs": [
        {
          "internalType": "uint256",
          "name": "",
          "type": "uint256"
        }
      ],
      "stateMutability": "view",
      "type": "function"
    },
    {
      "inputs": [
        {
          "internalType": "address",
          "name": "_tokenAddress",
          "type": "address"
        }
      ],
      "name": "getStakeholdersPositions",
      "outputs": [
        {
          "internalType": "uint256",
          "name": "providerStake",
          "type": "uint256"
        },
        {
          "internalType": "uint256",
          "name": "usersStake",
          "type": "uint256"
        }
      ],
      "stateMutability": "view",
      "type": "function"
    },
    {
      "inputs": [
        {
          "internalType": "address",
          "name": "_staker",
          "type": "address"
        },
        {
          "internalType": "uint256",
          "name": "_allowedTokenIndex",
          "type": "uint256"
        }
      ],
      "name": "getTokenStake",
      "outputs": [
        {
          "internalType": "address",
          "name": "tokenAddress",
          "type": "address"
        },
        {
          "internalType": "uint256",
          "name": "stake",
          "type": "uint256"
        }
      ],
      "stateMutability": "view",
      "type": "function"
    },
    {
      "inputs": [],
      "name": "ipfsHash",
      "outputs": [
        {
          "internalType": "string",
          "name": "",
          "type": "string"
        }
      ],
      "stateMutability": "view",
      "type": "function"
    },
    {
      "inputs": [
        {
          "internalType": "address",
          "name": "_tokenAddress",
          "type": "address"
        }
      ],
      "name": "isAllowedToken",
      "outputs": [
        {
          "internalType": "bool",
          "name": "",
          "type": "bool"
        }
      ],
      "stateMutability": "view",
      "type": "function"
    },
    {
      "inputs": [
        {
          "internalType": "address",
          "name": "_staker",
          "type": "address"
        }
      ],
      "name": "isStaker",
      "outputs": [
        {
          "internalType": "bool",
          "name": "",
          "type": "bool"
        }
      ],
      "stateMutability": "view",
      "type": "function"
    },
    {
      "inputs": [],
      "name": "messengerAddress",
      "outputs": [
        {
          "internalType": "address",
          "name": "",
          "type": "address"
        }
      ],
      "stateMutability": "view",
      "type": "function"
    },
    {
      "inputs": [],
      "name": "minimumDSLAStakedTier1",
      "outputs": [
        {
          "internalType": "uint256",
          "name": "",
          "type": "uint256"
        }
      ],
      "stateMutability": "view",
      "type": "function"
    },
    {
      "inputs": [],
      "name": "minimumDSLAStakedTier2",
      "outputs": [
        {
          "internalType": "uint256",
          "name": "",
          "type": "uint256"
        }
      ],
      "stateMutability": "view",
      "type": "function"
    },
    {
      "inputs": [],
      "name": "minimumDSLAStakedTier3",
      "outputs": [
        {
          "internalType": "uint256",
          "name": "",
          "type": "uint256"
        }
      ],
      "stateMutability": "view",
      "type": "function"
    },
    {
      "inputs": [],
      "name": "owner",
      "outputs": [
        {
          "internalType": "address",
          "name": "",
          "type": "address"
        }
      ],
      "stateMutability": "view",
      "type": "function"
    },
    {
      "inputs": [
        {
          "internalType": "uint256",
          "name": "",
          "type": "uint256"
        }
      ],
      "name": "periodIds",
      "outputs": [
        {
          "internalType": "uint256",
          "name": "",
          "type": "uint256"
        }
      ],
      "stateMutability": "view",
      "type": "function"
    },
    {
      "inputs": [],
      "name": "periodRegistry",
      "outputs": [
        {
          "internalType": "contract PeriodRegistry",
          "name": "",
          "type": "address"
        }
      ],
      "stateMutability": "view",
      "type": "function"
    },
    {
      "inputs": [],
      "name": "periodType",
      "outputs": [
        {
          "internalType": "enum PeriodRegistry.PeriodType",
          "name": "",
          "type": "uint8"
        }
      ],
      "stateMutability": "view",
      "type": "function"
    },
    {
      "inputs": [
        {
          "internalType": "uint256",
          "name": "",
          "type": "uint256"
        },
        {
          "internalType": "address",
          "name": "",
          "type": "address"
        }
      ],
      "name": "providerPeriodsRewards",
      "outputs": [
        {
          "internalType": "uint256",
          "name": "",
          "type": "uint256"
        }
      ],
      "stateMutability": "view",
      "type": "function"
    },
    {
      "inputs": [
        {
          "internalType": "address",
          "name": "_userAddress",
          "type": "address"
        }
      ],
      "name": "removeUserFromWhitelist",
      "outputs": [],
      "stateMutability": "nonpayable",
      "type": "function"
    },
    {
      "inputs": [],
      "name": "renounceOwnership",
      "outputs": [],
      "stateMutability": "nonpayable",
      "type": "function"
    },
    {
      "inputs": [
        {
          "internalType": "uint256",
          "name": "",
          "type": "uint256"
        }
      ],
      "name": "slaPeriods",
      "outputs": [
        {
          "internalType": "uint256",
          "name": "timestamp",
          "type": "uint256"
        },
        {
          "internalType": "uint256",
          "name": "sli",
          "type": "uint256"
        },
        {
          "internalType": "enum SLA.Status",
          "name": "status",
          "type": "uint8"
        }
      ],
      "stateMutability": "view",
      "type": "function"
    },
    {
      "inputs": [],
      "name": "slaPeriodsLength",
      "outputs": [
        {
          "internalType": "uint256",
          "name": "",
          "type": "uint256"
        }
      ],
      "stateMutability": "view",
      "type": "function"
    },
    {
      "inputs": [],
      "name": "slaRegistry",
      "outputs": [
        {
          "internalType": "contract SLARegistry",
          "name": "",
          "type": "address"
        }
      ],
      "stateMutability": "view",
      "type": "function"
    },
    {
      "inputs": [],
      "name": "slo",
      "outputs": [
        {
          "internalType": "contract SLO",
          "name": "",
          "type": "address"
        }
      ],
      "stateMutability": "view",
      "type": "function"
    },
    {
      "inputs": [
        {
          "internalType": "uint256",
          "name": "",
          "type": "uint256"
        }
      ],
      "name": "stakers",
      "outputs": [
        {
          "internalType": "address",
          "name": "",
          "type": "address"
        }
      ],
      "stateMutability": "view",
      "type": "function"
    },
    {
      "inputs": [
        {
          "internalType": "address",
          "name": "newOwner",
          "type": "address"
        }
      ],
      "name": "transferOwnership",
      "outputs": [],
      "stateMutability": "nonpayable",
      "type": "function"
    },
    {
      "inputs": [
        {
          "internalType": "address",
          "name": "",
          "type": "address"
        }
      ],
      "name": "usersCompensationPools",
      "outputs": [
        {
          "internalType": "uint256",
          "name": "",
          "type": "uint256"
        }
      ],
      "stateMutability": "view",
      "type": "function"
    },
    {
      "inputs": [
        {
          "internalType": "address",
          "name": "",
          "type": "address"
        }
      ],
      "name": "usersTotalPositions",
      "outputs": [
        {
          "internalType": "uint256",
          "name": "",
          "type": "uint256"
        }
      ],
      "stateMutability": "view",
      "type": "function"
    },
    {
      "inputs": [],
      "name": "whitelisted",
      "outputs": [
        {
          "internalType": "bool",
          "name": "",
          "type": "bool"
        }
      ],
      "stateMutability": "view",
      "type": "function"
    },
    {
      "inputs": [],
      "name": "yearlyPeriods",
      "outputs": [
        {
          "internalType": "uint256",
          "name": "",
          "type": "uint256"
        }
      ],
      "stateMutability": "view",
      "type": "function"
    },
    {
      "inputs": [
        {
          "internalType": "uint256",
          "name": "_sli",
          "type": "uint256"
        },
        {
          "internalType": "uint256",
          "name": "_periodId",
          "type": "uint256"
        }
      ],
      "name": "registerSLI",
      "outputs": [],
      "stateMutability": "nonpayable",
      "type": "function"
    },
    {
      "inputs": [
        {
          "internalType": "uint256",
          "name": "_periodId",
          "type": "uint256"
        }
      ],
      "name": "isAllowedPeriod",
      "outputs": [
        {
          "internalType": "bool",
          "name": "",
          "type": "bool"
        }
      ],
      "stateMutability": "view",
      "type": "function"
    },
    {
      "inputs": [
        {
          "internalType": "uint256",
          "name": "_amount",
          "type": "uint256"
        },
        {
          "internalType": "address",
          "name": "_token",
          "type": "address"
        }
      ],
      "name": "stakeTokens",
      "outputs": [],
      "stateMutability": "nonpayable",
      "type": "function"
    },
    {
      "inputs": [
        {
          "internalType": "uint256",
          "name": "_amount",
          "type": "uint256"
        },
        {
          "internalType": "address",
          "name": "_tokenAddress",
          "type": "address"
        }
      ],
      "name": "withdrawStakedTokens",
      "outputs": [],
      "stateMutability": "nonpayable",
      "type": "function"
    },
    {
      "inputs": [
        {
          "internalType": "address",
          "name": "_tokenAddress",
          "type": "address"
        }
      ],
      "name": "claimUserCompensation",
      "outputs": [],
      "stateMutability": "nonpayable",
      "type": "function"
    },
    {
      "inputs": [],
      "name": "getDetails",
      "outputs": [
        {
          "internalType": "address",
          "name": "_slaOwner",
          "type": "address"
        },
        {
          "internalType": "string",
          "name": "_ipfsHash",
          "type": "string"
        },
        {
          "internalType": "contract SLO",
          "name": "_SLO",
          "type": "address"
        },
        {
          "components": [
            {
              "internalType": "uint256",
              "name": "timestamp",
              "type": "uint256"
            },
            {
              "internalType": "uint256",
              "name": "sli",
              "type": "uint256"
            },
            {
              "internalType": "enum SLA.Status",
              "name": "status",
              "type": "uint8"
            }
          ],
          "internalType": "struct SLA.SLAPeriod[]",
          "name": "_SLAPeriods",
          "type": "tuple[]"
        },
        {
          "internalType": "uint256",
          "name": "_stakersCount",
          "type": "uint256"
        },
        {
          "components": [
            {
              "internalType": "address",
              "name": "tokenAddress",
              "type": "address"
            },
            {
              "internalType": "uint256",
              "name": "stake",
              "type": "uint256"
            }
          ],
          "internalType": "struct SLA.TokenStake[]",
          "name": "_tokensStake",
          "type": "tuple[]"
        }
      ],
      "stateMutability": "view",
      "type": "function"
    },
    {
      "inputs": [],
      "name": "breachedContract",
      "outputs": [
        {
          "internalType": "bool",
          "name": "",
          "type": "bool"
        }
      ],
      "stateMutability": "view",
      "type": "function"
    }
  ],
  "bytecode": "0x6080604052601d805460ff191690553480156200001b57600080fd5b506040516200362f3803806200362f8339810160408190526200003e91620007ad565b8383868851856000620000566200042160201b60201c565b600080546001600160a01b0319166001600160a01b0383169081178255604051929350916000805160206200360f833981519152908290a350600180546001600160a01b038088166001600160a01b0319928316178355600280549188169190921617905560108054859260ff1990911690836005811115620000d557fe5b021790555060118290556012805460ff191682151517905560015460408051637b8041cf60e11b815290516000928392839283926001600160a01b03169163f700839e916004808301926080929190829003018186803b1580156200013957600080fd5b505afa1580156200014e573d6000803e3d6000fd5b505050506040513d601f19601f82011682018060405250810190620001749190620008fc565b600254604051635c98d15760e01b815294985092965090945092506000916001600160a01b0390911690635c98d15790620001b4908b9060040162000932565b604080518083038186803b158015620001cc57600080fd5b505afa158015620001e1573d6000803e3d6000fd5b505050506040513d601f19601f82011682018060405250810190620002079190620008c7565b50600f81905560015460408051638b8e530960e01b815290519293506001600160a01b0390911691638b8e530991600480820192602092909190829003018186803b1580156200025657600080fd5b505afa1580156200026b573d6000803e3d6000fd5b505050506040513d601f19601f8201168201806040525081019062000291919062000787565b600980546001600160a01b0319166001600160a01b0392909216919091179055600b859055600c849055600d839055600e829055620002d03362000425565b600a600960009054906101000a90046001600160a01b03169080600181540180825580915050600190039060005260206000200160009091909190916101000a8154816001600160a01b0302191690836001600160a01b0316021790555050505050505050505050620003498a620004c860201b60201c565b87516200035e9060159060208b019062000575565b50601980546001600160a01b03808a166001600160a01b03199283161790925560188054909116331790556016805491851661010002610100600160a81b031990921691909117905543601b558551620003c0906017906020890190620005fa565b506016805486919060ff19166001836005811115620003db57fe5b0217905550601480546001600160a01b0319166001600160a01b038b1617905580516200041090601c906020840190620005fa565b505050505050505050505062000a59565b3390565b6200042f62000421565b6000546001600160a01b03908116911614620004685760405162461bcd60e51b81526004016200045f90620009c4565b60405180910390fd5b6001600160a01b03811660009081526013602052604090205460ff1615620004a45760405162461bcd60e51b81526004016200045f9062000947565b6001600160a01b03166000908152601360205260409020805460ff19166001179055565b620004d262000421565b6000546001600160a01b03908116911614620005025760405162461bcd60e51b81526004016200045f90620009c4565b6001600160a01b0381166200052b5760405162461bcd60e51b81526004016200045f906200097e565b600080546040516001600160a01b03808516939216916000805160206200360f83398151915291a3600080546001600160a01b0319166001600160a01b0392909216919091179055565b828054600181600116156101000203166002900490600052602060002090601f016020900481019282601f10620005b857805160ff1916838001178555620005e8565b82800160010185558215620005e8579182015b82811115620005e8578251825591602001919060010190620005cb565b50620005f692915062000637565b5090565b828054828255906000526020600020908101928215620005e85791602002820182811115620005e8578251825591602001919060010190620005cb565b5b80821115620005f6576000815560010162000638565b80516200065b8162000a40565b92915050565b600082601f83011262000672578081fd5b815162000689620006838262000a20565b620009f9565b818152915060208083019084810181840286018201871015620006ab57600080fd5b60005b84811015620006cc57815184529282019290820190600101620006ae565b505050505092915050565b805180151581146200065b57600080fd5b8051600681106200065b57600080fd5b600082601f83011262000709578081fd5b81516001600160401b038111156200071f578182fd5b602062000735601f8301601f19168201620009f9565b925081835284818386010111156200074c57600080fd5b60005b828110156200076c5784810182015184820183015281016200074f565b828111156200077e5760008284860101525b50505092915050565b60006020828403121562000799578081fd5b8151620007a68162000a40565b9392505050565b6000806000806000806000806000806101408b8d031215620007cd578586fd5b620007d98c8c6200064e565b9950620007ea8c60208d016200064e565b60408c01519099506001600160401b038082111562000807578788fd5b620008158e838f01620006f8565b9950620008268e60608f016200064e565b985060808d01519150808211156200083c578788fd5b6200084a8e838f0162000661565b97506200085b8e60a08f01620006e8565b96506200086c8e60c08f016200064e565b95506200087d8e60e08f016200064e565b94506200088f8e6101008f01620006d7565b93506101208d0151915080821115620008a6578283fd5b50620008b58d828e0162000661565b9150509295989b9194979a5092959850565b60008060408385031215620008da578182fd5b8251915060208301518015158114620008f1578182fd5b809150509250929050565b6000806000806080858703121562000912578384fd5b505082516020840151604085015160609095015191969095509092509050565b60208101600683106200094157fe5b91905290565b60208082526018908201527f5573657220616c72656164792077686974656c69737465640000000000000000604082015260600190565b60208082526026908201527f4f776e61626c653a206e6577206f776e657220697320746865207a65726f206160408201526564647265737360d01b606082015260800190565b6020808252818101527f4f776e61626c653a2063616c6c6572206973206e6f7420746865206f776e6572604082015260600190565b6040518181016001600160401b038111828210171562000a1857600080fd5b604052919050565b60006001600160401b0382111562000a36578081fd5b5060209081020190565b6001600160a01b038116811462000a5657600080fd5b50565b612ba68062000a696000396000f3fe608060405234801561001057600080fd5b506004361061025e5760003560e01c80637fd788aa11610146578063d7a5c422116100c3578063f2fde38b11610087578063f2fde38b146104cb578063f51b7ab9146104de578063f7e9dfff146104e6578063f9902bb1146104ee578063fbbf93a014610501578063fd5e6dd11461051b5761025e565b8063d7a5c42214610482578063db2da48c14610495578063db69a462146104a8578063e68e276d146104b0578063ee575c28146104c35761025e565b8063b18ac9181161010a578063b18ac91814610442578063b7bc347e1461044a578063c623674f14610452578063cbe230c314610467578063cd92890e1461047a5761025e565b80637fd788aa146104005780638da5cb5b146104085780639ab4438f146104105780639fc4caa514610432578063a224ee9c1461043a5761025e565b80633d9287fa116101df5780635e5f2e26116101a35780635e5f2e261461037e5780636f1e85331461039e5780636f265a34146103b1578063715018a6146103d2578063747b8050146103da57806378025ec4146103ed5761025e565b80633d9287fa1461032557806346e0fbae1461032d578063524f07351461034257806357ac94f0146103555780635c1c20de146103765761025e565b80631bf30929116102265780631bf30929146102dc5780631fc2cd93146102e457806327cd727c146102f75780632eb8197a1461030a57806333df1541146103125761025e565b8063021eef7f146102635780630ae9ea451461028c5780630bea440d146102ac5780630c5160f4146102c1578063171e44ea146102c9575b600080fd5b610276610271366004612232565b61052e565b604051610283919061248e565b60405180910390f35b61029f61029a366004612232565b610578565b6040516102839190612499565b6102bf6102ba366004612262565b610596565b005b61029f6106f7565b6102bf6102d73660046121af565b6106fd565b61029f61084b565b6102bf6102f23660046121af565b610851565b6102bf610305366004612262565b610aa4565b61029f610bfc565b61029f610320366004612262565b610c02565b610276610c1f565b610335610c28565b60405161028391906124a2565b6102bf6103503660046121af565b610c31565b6103686103633660046121cb565b610c3d565b6040516102839291906123cb565b61029f610c8b565b61039161038c366004612232565b610c91565b6040516102839190612379565b6102766103ac3660046121af565b610cb8565b6103c46103bf3660046121af565b610d0a565b604051610283929190612ae5565b6102bf610d6f565b6102bf6103e83660046121af565b610dee565b61029f6103fb366004612232565b610e80565b610276610e8d565b610391610e96565b61042361041e366004612232565b610ea5565b60405161028393929190612af3565b610391610ec9565b610391610edd565b61029f610eec565b61029f610ef2565b61045a610ef8565b60405161028391906124ce565b6102766104753660046121af565b610f86565b610391610fd8565b6102bf610490366004612291565b610fe7565b61029f6104a33660046121af565b6112a3565b6103916112b5565b61029f6104be3660046121af565b6112c4565b61029f6112d6565b6102bf6104d93660046121af565b6112dc565b61029f611392565b610391611398565b6102bf6104fc3660046121af565b6113a7565b61050961143a565b604051610283969594939291906123e4565b610391610529366004612232565b61172d565b6000805b60175481101561056d57826017828154811061054a57fe5b90600052602060002001541415610565576001915050610573565b600101610532565b50600090505b919050565b6017818154811061058557fe5b600091825260209091200154905081565b600082116105bf5760405162461bcd60e51b81526004016105b690612995565b60405180910390fd5b601d5460ff16156105e25760405162461bcd60e51b81526004016105b6906128df565b6105ec828261173a565b60185460408051636830483560e01b815290516000926001600160a01b0316916368304835916004808301926020929190829003018186803b15801561063157600080fd5b505afa158015610645573d6000803e3d6000fd5b505050506040513d601f19601f820116820180604052508101906106699190612216565b601854604051637852389760e01b81529192506001600160a01b038084169263785238979261069f92339291169060040161238d565b602060405180830381600087803b1580156106b957600080fd5b505af11580156106cd573d6000803e3d6000fd5b505050506040513d601f19601f820116820180604052508101906106f191906121f6565b50505050565b60115481565b6107056119e3565b6000546001600160a01b039081169116146107325760405162461bcd60e51b81526004016105b6906128aa565b61073b81610f86565b156107585760405162461bcd60e51b81526004016105b690612968565b60015460405163cbe230c360e01b81526001600160a01b039091169063cbe230c390610788908490600401612379565b60206040518083038186803b1580156107a057600080fd5b505afa1580156107b4573d6000803e3d6000fd5b505050506040513d601f19601f820116820180604052508101906107d891906121f6565b15156001146107f95760405162461bcd60e51b81526004016105b690612644565b600a80546001810182556000919091527fc65a7bb8d6351c1cf70c95a316cc6a92839c986682d98bc35f958f4883f9d2a80180546001600160a01b0319166001600160a01b0392909216919091179055565b601b5481565b610859610e96565b6001600160a01b0316336001600160a01b0316141561088a5760405162461bcd60e51b81526004016105b690612aa0565b60125460ff161515600114156108ce573360009081526013602052604090205460ff1615156001146108ce5760405162461bcd60e51b81526004016105b690612733565b6001600160a01b038116600090815260046020908152604080832033845290915290205461271090806109135760405162461bcd60e51b81526004016105b6906126d6565b6001600160a01b0383166000908152600560205260408120546109409061093a84866119e7565b90611a2a565b6001600160a01b0385166000908152600660205260408120549192509061096d90859061093a90856119e7565b90506000856001600160a01b031663a9059cbb33846002026040518363ffffffff1660e01b81526004016109a29291906123cb565b602060405180830381600087803b1580156109bc57600080fd5b505af11580156109d0573d6000803e3d6000fd5b505050506040513d601f19601f820116820180604052508101906109f491906121f6565b9050600181151514610a185760405162461bcd60e51b81526004016105b690612a38565b6001600160a01b038616600090815260056020526040902054610a3b9085611a6c565b6001600160a01b038716600090815260056020908152604080832093909355600690522054610a6a9083611a6c565b6001600160a01b03909616600090815260066020908152604080832098909855600481528782203383529052958620959095555050505050565b60008211610ac45760405162461bcd60e51b81526004016105b690612995565b60178054600091906000198101908110610ada57fe5b600091825260208220015460165460405160016259edcb60e01b031981529193506001600160a01b036101008204169163ffa6123591610b249160ff9091169086906004016124b6565b604080518083038186803b158015610b3b57600080fd5b505afa158015610b4f573d6000803e3d6000fd5b505050506040513d601f19601f82011682018060405250810190610b7391906122b2565b915050610b7e610e96565b6001600160a01b0316336001600160a01b031614610bf257601d5460ff16151560011480610bd65750804210158015610bd657506000828152601a6020526040812060029081015460ff1690811115610bd357fe5b14155b610bf25760405162461bcd60e51b81526004016105b690612548565b6106f18484611aae565b600e5481565b600760209081526000928352604080842090915290825290205481565b60125460ff1681565b60165460ff1681565b610c3a81610851565b50565b6000806000600a8481548110610c4f57fe5b6000918252602080832091909101546001600160a01b039081168084526004835260408085209990921684529790915290205494959350505050565b600b5481565b600a8181548110610c9e57fe5b6000918252602090912001546001600160a01b0316905081565b6000805b60085481101561056d57826001600160a01b031660088281548110610cdd57fe5b6000918252602090912001546001600160a01b03161415610d02576001915050610573565b600101610cbc565b6001600160a01b0381166000908152600460205260408120819081610d2d610e96565b6001600160a01b039081168252602080830193909352604091820160009081205491871681526003909352912054909250610d689083611a6c565b9050915091565b610d776119e3565b6000546001600160a01b03908116911614610da45760405162461bcd60e51b81526004016105b6906128aa565b600080546040516001600160a01b03909116907f8be0079c531659141344cd1fd0a4f28419497f9722a3daafe3b4186f6b6457e0908390a3600080546001600160a01b0319169055565b610df66119e3565b6000546001600160a01b03908116911614610e235760405162461bcd60e51b81526004016105b6906128aa565b6001600160a01b03811660009081526013602052604090205460ff1615610e5c5760405162461bcd60e51b81526004016105b690612516565b6001600160a01b03166000908152601360205260409020805460ff19166001179055565b601c818154811061058557fe5b601d5460ff1690565b6000546001600160a01b031690565b601a6020526000908152604090208054600182015460029092015490919060ff1683565b60165461010090046001600160a01b031681565b6019546001600160a01b031681565b600d5481565b600a5490565b6015805460408051602060026001851615610100026000190190941693909304601f81018490048402820184019092528181529291830182828015610f7e5780601f10610f5357610100808354040283529160200191610f7e565b820191906000526020600020905b815481529060010190602001808311610f6157829003601f168201915b505050505081565b6000805b600a5481101561056d57826001600160a01b0316600a8281548110610fab57fe5b6000918252602090912001546001600160a01b03161415610fd0576001915050610573565b600101610f8a565b6014546001600160a01b031681565b6019546001600160a01b031633146110115760405162461bcd60e51b81526004016105b690612691565b7fc95987c1992805ee34bdc915e017cceae36ba1c156b9911fa7e691e6435eb46e42838360405161104493929190612b19565b60405180910390a16000818152601a60209081526040808320600181018690554281556014548251633fa4f24560e01b815292519194936001600160a01b0390911692633fa4f2459260048083019392829003018186803b1580156110a857600080fd5b505afa1580156110bc573d6000803e3d6000fd5b505050506040513d601f19601f820116820180604052508101906110e0919061224a565b6014546040516303c8f2e360e21b81529192506001600160a01b031690630f23cb8c90611111908790600401612499565b60206040518083038186803b15801561112957600080fd5b505afa15801561113d573d6000803e3d6000fd5b505050506040513d601f19601f8201168201806040525081019061116191906121f6565b1561123e576002828101805460ff19166001179055612710906000906111a39061118f9061093a8987611cd6565b61093a8461119d8a88611a6c565b906119e7565b905060006111dd60016111d760176000815481106111bd57fe5b906000526020600020015489611a6c90919063ffffffff16565b90611cd6565b6017805491925060009160001981019081106111f557fe5b9060005260206000200154871415611217576112126064856119e7565b611228565b6017546112289061093a85856119e7565b9050611235878286611cfb565b505050506106f1565b6002828101805460ff19169091179055611256611e2e565b601d805460ff191660011790556040517fbd33f7a3bfa88a467c9df5ae7d2341cf061084c386b20a0d48130f5cbce38a4d906112959085908790612ae5565b60405180910390a150505050565b60066020526000908152604090205481565b6018546001600160a01b031681565b60056020526000908152604090205481565b600c5481565b6112e46119e3565b6000546001600160a01b039081169116146113115760405162461bcd60e51b81526004016105b6906128aa565b6001600160a01b0381166113375760405162461bcd60e51b81526004016105b6906125c7565b600080546040516001600160a01b03808516939216917f8be0079c531659141344cd1fd0a4f28419497f9722a3daafe3b4186f6b6457e091a3600080546001600160a01b0319166001600160a01b0392909216919091179055565b600f5481565b6009546001600160a01b031681565b6113af6119e3565b6000546001600160a01b039081169116146113dc5760405162461bcd60e51b81526004016105b6906128aa565b6001600160a01b03811660009081526013602052604090205460ff1615156001146114195760405162461bcd60e51b81526004016105b6906129c1565b6001600160a01b03166000908152601360205260409020805460ff19169055565b60006060600060606000606061144e610e96565b60158054604080516020601f600260001961010060018816150201909516949094049384018190048102820181019092528281529399508301828280156114d65780601f106114ab576101008083540402835291602001916114d6565b820191906000526020600020905b8154815290600101906020018083116114b957829003601f168201915b50506014546017549499506001600160a01b031697505067ffffffffffffffff8311915050801561150657600080fd5b5060405190808252806020026020018201604052801561154057816020015b61152d61216d565b8152602001906001900390816115255790505b50925060005b60175481101561161d5760006017828154811061155f57fe5b9060005260206000200154905061157461216d565b6000828152601a6020908152604091829020825160608101845281548152600182015492810192909252600280820154929391929184019160ff16908111156115b957fe5b60028111156115c457fe5b81525050905060405180606001604052808260000151815260200182602001518152602001826040015160028111156115f957fe5b81525086848151811061160857fe5b60209081029190910101525050600101611546565b50600854600a5490925067ffffffffffffffff8111801561163d57600080fd5b5060405190808252806020026020018201604052801561167757816020015b611664612198565b81526020019060019003908161165c5790505b50905060005b600a54811015611724576040518060400160405280600a838154811061169f57fe5b9060005260206000200160009054906101000a90046001600160a01b03166001600160a01b0316815260200160036000600a85815481106116dc57fe5b60009182526020808320909101546001600160a01b031683528201929092526040019020549052825183908390811061171157fe5b602090810291909101015260010161167d565b50909192939495565b60088181548110610c9e57fe5b8061174481610f86565b15156001146117655760405162461bcd60e51b81526004016105b69061287c565b60125460ff161515600114156117a9573360009081526013602052604090205460ff1615156001146117a95760405162461bcd60e51b81526004016105b690612733565b6117b1610e96565b6001600160a01b0316336001600160a01b031614611806576000806117d584610d0a565b9092509050816117e58287611cd6565b11156118035760405162461bcd60e51b81526004016105b6906129ef565b50505b6040516323b872dd60e01b81526000906001600160a01b038416906323b872dd90611839903390309089906004016123a7565b602060405180830381600087803b15801561185357600080fd5b505af1158015611867573d6000803e3d6000fd5b505050506040513d601f19601f8201168201806040525081019061188b91906121f6565b90506001811515146118af5760405162461bcd60e51b81526004016105b690612927565b6001600160a01b0383166000908152600360205260409020546118d29085611cd6565b6001600160a01b03841660009081526003602090815260408083209390935560048152828220338352905220546119099085611cd6565b6001600160a01b03841660009081526004602090815260408083203380855292529091209190915561193a90610cb8565b61198157600880546001810182556000919091527ff3f7a9fe364faab93b216da50a3214154f22a0a2b415b23a84c8169e8b636ee30180546001600160a01b031916331790555b611989610e96565b6001600160a01b0316336001600160a01b0316146106f1576001600160a01b0383166000908152600560205260409020546119c49085611cd6565b6001600160a01b03841660009081526005602052604090205550505050565b3390565b6000826119f657506000611a24565b82820282848281611a0357fe5b0414611a215760405162461bcd60e51b81526004016105b69061283b565b90505b92915050565b6000611a2183836040518060400160405280601a81526020017f536166654d6174683a206469766973696f6e206279207a65726f000000000000815250611f99565b6000611a2183836040518060400160405280601e81526020017f536166654d6174683a207375627472616374696f6e206f766572666c6f770000815250611fd0565b80611ab881610f86565b1515600114611ad95760405162461bcd60e51b81526004016105b69061287c565b60125460ff16151560011415611b1d573360009081526013602052604090205460ff161515600114611b1d5760405162461bcd60e51b81526004016105b690612733565b611b25610e96565b6001600160a01b0316336001600160a01b03161415611b7b57600080611b4a84610d0a565b909250905080611b5a8387611a6c565b1015611b785760405162461bcd60e51b81526004016105b690612764565b50505b6001600160a01b0382166000908152600460209081526040808320338452909152902054831115611bbe5760405162461bcd60e51b81526004016105b6906127f1565b6001600160a01b038216600090815260036020526040902054611be19084611a6c565b6001600160a01b0383166000908152600360209081526040808320939093556004815282822033835290522054611c189084611a6c565b6001600160a01b038316600081815260046020818152604080842033808652925280842095909555935163a9059cbb60e01b8152919363a9059cbb92611c60928991016123cb565b602060405180830381600087803b158015611c7a57600080fd5b505af1158015611c8e573d6000803e3d6000fd5b505050506040513d601f19601f82011682018060405250810190611cb291906121f6565b90506001811515146106f15760405162461bcd60e51b81526004016105b6906124e1565b600082820183811015611a215760405162461bcd60e51b81526004016105b69061260d565b60005b600a548110156106f1576000600a8281548110611d1757fe5b60009182526020822001546001600160a01b03169150611d3682610d0a565b915060009050611d4d6064860261093a84896119e7565b6009549091506001600160a01b0384811691161415611d80576000611d7182611ffc565b9050611d7d8282611a6c565b50505b6001600160a01b0383166000908152600460205260408120611dc791839190611da7610e96565b6001600160a01b0316815260208101919091526040016000205490611cd6565b6001600160a01b038416600090815260046020526040812090611de8610e96565b6001600160a01b03908116825260208083019390935260409182016000908120949094558a84526007835281842096168352949052929092209190915550600101611cfe565b60005b600a54811015610c3a576000600a8281548110611e4a57fe5b60009182526020822001546001600160a01b03169150611e6982610d0a565b6009549092508291506001600160a01b0384811691161415611e9f576000611e9082611ffc565b9050611e9c8282611a6c565b50505b6001600160a01b038316600090815260036020526040902054611ec29082611a6c565b6001600160a01b03841660009081526003602090815260408083209390935560049052908120611f1791839190611ef7610e96565b6001600160a01b0316815260208101919091526040016000205490611a6c565b6001600160a01b038416600090815260046020526040812090611f38610e96565b6001600160a01b0390811682526020808301939093526040918201600090812094909455861683526006909152902054611f729082611cd6565b6001600160a01b039093166000908152600660205260409020929092555050600101611e31565b60008183611fba5760405162461bcd60e51b81526004016105b691906124ce565b506000838581611fc657fe5b0495945050505050565b60008184841115611ff45760405162461bcd60e51b81526004016105b691906124ce565b505050900390565b60408051808201909152600d81526c6275726e2875696e743235362960981b602090910152600b546000907f42966c689b5afe9b9b3f8a7103b2a19980d59629bfd6a20a60972312ed41d8369061205c906103e89061093a9086906119e7565b6009546040519193506000916001600160a01b03909116908390612084908690602401612499565b60408051601f198184030181529181526020820180516001600160e01b03166001600160e01b03199094169390931790925290516120c2919061235d565b6000604051808303816000865af19150503d80600081146120ff576040519150601f19603f3d011682016040523d82523d6000602084013e612104565b606091505b50509050806121255760405162461bcd60e51b81526004016105b6906127ad565b6009546001600160a01b031660009081526003602052604090205461214a9084611a6c565b6009546001600160a01b0316600090815260036020526040902055509092915050565b604051806060016040528060008152602001600081526020016000600281111561219357fe5b905290565b604080518082019091526000808252602082015290565b6000602082840312156121c0578081fd5b8135611a2181612b5b565b600080604083850312156121dd578081fd5b82356121e881612b5b565b946020939093013593505050565b600060208284031215612207578081fd5b81518015158114611a21578182fd5b600060208284031215612227578081fd5b8151611a2181612b5b565b600060208284031215612243578081fd5b5035919050565b60006020828403121561225b578081fd5b5051919050565b60008060408385031215612274578182fd5b82359150602083013561228681612b5b565b809150509250929050565b600080604083850312156122a3578182fd5b50508035926020909101359150565b600080604083850312156122c4578182fd5b505080516020909101519092909150565b6000815180845260208085019450808401835b8381101561231857815180516001600160a01b0316885283015183880152604090960195908201906001016122e8565b509495945050505050565b6003811061232d57fe5b9052565b60008151808452612349816020860160208601612b2f565b601f01601f19169290920160200192915050565b6000825161236f818460208701612b2f565b9190910192915050565b6001600160a01b0391909116815260200190565b6001600160a01b0392831681529116602082015260400190565b6001600160a01b039384168152919092166020820152604081019190915260600190565b6001600160a01b03929092168252602082015260400190565b600060018060a01b038089168352602060c08185015261240760c085018a612331565b6040838a168187015260609350858203848701528189518084528484019150848b019350865b8181101561246357845180518452868101518785015284015161245285850182612323565b50938501939186019160010161242d565b505088608088015286810360a088015261247d81896122d5565b9d9c50505050505050505050505050565b901515815260200190565b90815260200190565b60208101600683106124b057fe5b91905290565b60408101600684106124c457fe5b9281526020015290565b600060208252611a216020830184612331565b6020808252818101527f5374616b6520776974686472617720776173206e6f742073756363657366756c604082015260600190565b602080825260189082015277155cd95c88185b1c9958591e481dda1a5d195b1a5cdd195960421b604082015260600190565b60208082526059908201527f43616e206f6e6c79207769746864726177207374616b6520616674657220746860408201527f652066696e616c20706572696f642069732066696e6973686564206f72206966606082015278081d1a194818dbdb9d1c9858dd081a5cc8189c995858da1959603a1b608082015260a00190565b60208082526026908201527f4f776e61626c653a206e6577206f776e657220697320746865207a65726f206160408201526564647265737360d01b606082015260800190565b6020808252601b908201527f536166654d6174683a206164646974696f6e206f766572666c6f770000000000604082015260600190565b6020808252602d908201527f546f6b656e206e6f7420616c6c6f7765642062792074686520534c415265676960408201526c1cdd1c9e4818dbdb9d1c9858dd609a1b606082015260800190565b60208082526025908201527f4f6e6c79204d657373656e6765722063616e2063616c6c20746869732066756e60408201526431ba34b7b760d91b606082015260800190565b6020808252603a908201527f43616e206f6e6c7920636c61696d206120636f6d70656e736174696f6e20696660408201527f20706f736974696f6e20697320626967676572207468616e2030000000000000606082015260800190565b602080825260179082015276155cd95c881a5cc81b9bdd081dda1a5d195b1a5cdd1959604a1b604082015260600190565b60208082526029908201527f53686f756c64206e6f74207769746864726177206d6f7265207468616e207573604082015268657273207374616b6560b81b606082015260800190565b60208082526024908201527f44534c41206275726e2070726f6365737320776173206e6f74207375636365736040820152631cd99d5b60e21b606082015260800190565b6020808252602a908201527f53686f756c64206e6f74207769746864726177206d6f7265207374616b6520746040820152691a185b881cdd185ad95960b21b606082015260800190565b60208082526021908201527f536166654d6174683a206d756c7469706c69636174696f6e206f766572666c6f6040820152607760f81b606082015260800190565b6020808252601490820152731d1bdad95b881a5cc81b9bdd08185b1b1bddd95960621b604082015260600190565b6020808252818101527f4f776e61626c653a2063616c6c6572206973206e6f7420746865206f776e6572604082015260600190565b60208082526028908201527f43616e206f6e6c79207374616b65206f6e206e6f7420627265616368656420636040820152676f6e74726163747360c01b606082015260800190565b60208082526021908201527f5374616b696e672070726f6365737320776173206e6f742073756363657366756040820152601b60fa1b606082015260800190565b602080825260139082015272151bdad95b88185b1c9958591e481859191959606a1b604082015260600190565b6020808252601290820152710616d6f756e742063616e6e6f7420626520360741b604082015260600190565b602080825260149082015273155cd95c881b9bdd081dda1a5d195b1a5cdd195960621b604082015260600190565b60208082526029908201527f43616e6e6f74207374616b65206d6f7265207468616e20534c412070726f7669604082015268646572207374616b6560b81b606082015260800190565b60208082526042908201527f5472616e736665722070726f636573732066726f6d20534c4120636f6e74726160408201527f637420746f206d73672e73656e64657220776173206e6f7420737563636573666060820152611d5b60f21b608082015260a00190565b60208082526025908201527f53686f756c64206e6f742062652063616c6c65642062792074686520534c412060408201526437bbb732b960d91b606082015260800190565b918252602082015260400190565b838152602081018390526060810160038310612b0b57fe5b826040830152949350505050565b9283526020830191909152604082015260600190565b60005b83811015612b4a578181015183820152602001612b32565b838111156106f15750506000910152565b6001600160a01b0381168114610c3a57600080fdfea26469706673582212204057446a11c98472babd9bb84aea9ba32caee08511d19f727d26f0bc29aca55a64736f6c634300060c00338be0079c531659141344cd1fd0a4f28419497f9722a3daafe3b4186f6b6457e0",
  "immutableReferences": {},
  "source": "// SPDX-License-Identifier: MIT\npragma solidity ^0.6.0;\npragma experimental ABIEncoderV2;\n\nimport \"@openzeppelin/contracts/access/Ownable.sol\";\nimport \"@openzeppelin/contracts/token/ERC20/IERC20.sol\";\nimport \"@openzeppelin/contracts/math/SafeMath.sol\";\nimport \"./SLO.sol\";\nimport \"./SLARegistry.sol\";\nimport \"./StakeRegistry.sol\";\nimport \"./PeriodRegistry.sol\";\nimport \"./Staking.sol\";\n\n/**\n * @title SLA\n * @dev SLA is a service level agreement contract used for service downtime\n * compensation\n */\ncontract SLA is Staking {\n    using SafeMath for uint256;\n\n    enum Status {NotVerified, Respected, NotRespected}\n\n    /// @dev Struct used for storing period status\n    struct SLAPeriod {\n        uint256 timestamp;\n        uint256 sli;\n        Status status;\n    }\n\n    struct TokenStake {\n        address tokenAddress;\n        uint256 stake;\n    }\n\n    /// @dev address of the SLO\n    SLO public slo;\n\n    /// @dev The ipfs hash that stores extra information about the agreement\n    string public ipfsHash;\n\n    /// @dev uint8 of the period type\n    PeriodRegistry.PeriodType public periodType;\n\n    PeriodRegistry public periodRegistry;\n\n    /// @dev array of he allowed canonical period ids\n    uint256[] public periodIds;\n\n    /// @dev The address of the slaRegistry contract\n    SLARegistry public slaRegistry;\n\n    /// @dev The address of the messenger\n    address public messengerAddress;\n\n    /// @dev periodId=>SLAPeriod mapping\n    mapping(uint256 => SLAPeriod) public slaPeriods;\n\n    /// @dev block number of SLA deployment\n    uint256 public creationBlockNumber;\n\n    /// @dev extra data for customized workflows\n    bytes32[] public extraData;\n\n    /// @dev states if the contract was breached or not\n    bool private _breachedContract = false;\n\n    /**\n     * @dev event for SLI creation logging\n     * @param _timestamp 1. the time the SLI has been registered\n     * @param _sli 2. the value of the SLI\n     * @param _periodId 3. the id of the given period\n     */\n    event SLICreated(uint256 _timestamp, uint256 _sli, uint256 _periodId);\n\n    /**\n     * @dev event for SLI creation logging\n     * @param _periodId 1. the id of the given period\n     * @param _sli 2. value of the SLI\n     */\n    event SLANotRespected(uint256 _periodId, uint256 _sli);\n\n    /**\n     * @dev throws if called by any address other than the messenger contract.\n     */\n    modifier onlyMessenger() {\n        require(\n            msg.sender == messengerAddress,\n            \"Only Messenger can call this function\"\n        );\n        _;\n    }\n\n    /**\n     * @dev throws if called by any address other than the messenger contract.\n     */\n    modifier onlySLARegistry() {\n        require(\n            msg.sender == address(slaRegistry),\n            \"Only SLARegistry can call this function\"\n        );\n        _;\n    }\n\n    /**\n     * @param _owner 1. address of the owner of the service level agreement\n     * @param _SLO 2. address of the SLO\n     * @param _ipfsHash 3. string with the ipfs hash that contains SLA information\n     * @param _periodIds 4. id of the allowed canonical periods\n     * @param _periodType 5. period type of the SLA contract\n     * @param _stakeRegistry 6. stakeRegistry address\n     * @param _periodRegistry 7. periodRegistry address\n     * @param _whitelisted 8. boolean to declare whitelisted contracts\n     * @param _extraData 9. array of bytes32 to store extra data on deployment time\n     */\n    constructor(\n        address _owner,\n        SLO _SLO,\n        string memory _ipfsHash,\n        address _messengerAddress,\n        uint256[] memory _periodIds,\n        PeriodRegistry.PeriodType _periodType,\n        address _stakeRegistry,\n        address _periodRegistry,\n        bool _whitelisted,\n        bytes32[] memory _extraData\n    )\n        public\n        Staking(\n            _stakeRegistry,\n            _periodRegistry,\n            _periodType,\n            _periodIds.length,\n            _whitelisted\n        )\n    {\n        transferOwnership(_owner);\n        ipfsHash = _ipfsHash;\n        messengerAddress = _messengerAddress;\n        slaRegistry = SLARegistry(msg.sender);\n        periodRegistry = PeriodRegistry(_periodRegistry);\n        creationBlockNumber = block.number;\n        periodIds = _periodIds;\n        periodType = _periodType;\n        slo = _SLO;\n        extraData = _extraData;\n    }\n\n    /**\n     * @dev external function to register SLI's and check them against the SLO's\n     * @param _sli 1. the value of the SLI to check\n     * @param _periodId 2. the id of the given period\n     */\n    function registerSLI(uint256 _sli, uint256 _periodId)\n        external\n        onlyMessenger\n    {\n        emit SLICreated(block.timestamp, _sli, _periodId);\n        SLAPeriod storage slaPeriod = slaPeriods[_periodId];\n        slaPeriod.sli = _sli;\n        slaPeriod.timestamp = block.timestamp;\n        uint256 sloValue = slo.value();\n        if (slo.isRespected(_sli)) {\n            slaPeriod.status = Status.Respected;\n            uint256 precision = 10000;\n            // deviation = (sli-slo)*precision/((sli+slo)/2)\n            uint256 deviation =\n                _sli.sub(sloValue).mul(precision).div(\n                    _sli.add(sloValue).div(2)\n                );\n            // to get the reward formula, we get the periodId but respecting to the SLA\n            // because _periodId is the periodId of the platform\n            // e.g. if periodIds = 7,8,9,10, normalized periods are = 1,2,3,4\n            uint256 normalizedPeriodId = _periodId.sub(periodIds[0]).add(1);\n\n            // if is the last period, then deliver the whole usersStake to the provider\n            uint256 rewardPercentage =\n                _periodId != periodIds[periodIds.length - 1]\n                    ? deviation.mul(normalizedPeriodId).div(periodIds.length)\n                    : uint256(100).mul(precision);\n            _setRespectedPeriodReward(_periodId, rewardPercentage, precision);\n        } else {\n            slaPeriod.status = Status.NotRespected;\n            _setUsersCompensationPool();\n            _breachedContract = true;\n            emit SLANotRespected(_periodId, _sli);\n        }\n    }\n\n    function isAllowedPeriod(uint256 _periodId) public view returns (bool) {\n        for (uint256 index = 0; index < periodIds.length; index++) {\n            if (periodIds[index] == _periodId) {\n                return true;\n            }\n        }\n        return false;\n    }\n\n    /**\n     *@dev stake _amount tokens into the _token contract\n     *@param _amount 1. amount to be staked\n     *@param _token 2. address of the ERC to be staked\n     */\n\n    function stakeTokens(uint256 _amount, address _token) public {\n        require(_amount > 0, \"amount cannot be 0\");\n        require(\n            _breachedContract == false,\n            \"Can only stake on not breached contracts\"\n        );\n        _stake(_amount, _token);\n        StakeRegistry stakeRegistry = slaRegistry.stakeRegistry();\n        stakeRegistry.registerStakedSla(msg.sender, address(slaRegistry));\n    }\n\n    /**\n     *@dev withdraw _amount tokens from the _token contract\n     *@param _amount 1. amount to be staked\n     *@param _tokenAddress 2. address of the ERC to be staked\n     */\n\n    function withdrawStakedTokens(uint256 _amount, address _tokenAddress)\n        public\n    {\n        require(_amount > 0, \"amount cannot be 0\");\n        uint256 lastValidPeriodId = periodIds[periodIds.length - 1];\n        (, uint256 endOfLastValidPeriod) =\n            periodRegistry.getPeriodStartAndEnd(periodType, lastValidPeriodId);\n        // providers and users can withdraw only if the contract is breached\n        // or if the last period is finished and the period status was verified\n        if (msg.sender != owner()) {\n            require(\n                _breachedContract == true ||\n                    (block.timestamp >= endOfLastValidPeriod &&\n                        slaPeriods[lastValidPeriodId].status !=\n                        Status.NotVerified),\n                \"Can only withdraw stake after the final period is finished or if the contract is breached\"\n            );\n        }\n        _withdraw(_amount, _tokenAddress);\n    }\n\n    /**\n     *@dev withdraw provider reward of a given token address\n     *@param _tokenAddress 1. address of the token to withdraw rewards\n     */\n\n    function claimUserCompensation(address _tokenAddress) public {\n        _claimCompensation(_tokenAddress);\n    }\n\n    /**\n     * @dev external view function that returns all agreement information\n     * @return _slaOwner 1. address  owner\n     * @return _ipfsHash 2. string  ipfsHash\n     * @return _SLO 3. addresses of the SLO\n     * @return _SLAPeriods 5. SLAPeriod[]\n     * @return _stakersCount 6. amount of stakers\n     * @return _tokensStake 7. SLAPeriod[]  addresses array\n     */\n\n    function getDetails()\n        external\n        view\n        returns (\n            address _slaOwner,\n            string memory _ipfsHash,\n            SLO _SLO,\n            SLAPeriod[] memory _SLAPeriods,\n            uint256 _stakersCount,\n            TokenStake[] memory _tokensStake\n        )\n    {\n        _slaOwner = owner();\n        _ipfsHash = ipfsHash;\n        _SLO = slo;\n        _SLAPeriods = new SLAPeriod[](periodIds.length);\n        for (uint256 index = 0; index < periodIds.length; index++) {\n            uint256 periodId = periodIds[index];\n            SLAPeriod memory slaPeriod = slaPeriods[periodId];\n            _SLAPeriods[index] = SLAPeriod({\n                status: slaPeriod.status,\n                sli: slaPeriod.sli,\n                timestamp: slaPeriod.timestamp\n            });\n        }\n        _stakersCount = stakers.length;\n        _tokensStake = new TokenStake[](allowedTokens.length);\n        for (uint256 index = 0; index < allowedTokens.length; index++) {\n            _tokensStake[index] = TokenStake({\n                tokenAddress: allowedTokens[index],\n                stake: tokenPools[allowedTokens[index]]\n            });\n        }\n    }\n\n    function breachedContract() public view returns (bool) {\n        return _breachedContract;\n    }\n}\n",
  "sourcePath": "/Users/matiasbn/Desktop/stacktical/stacktical-dsla-contracts/contracts/SLA.sol",
  "compiler": {
    "name": "solc",
    "version": "0.6.12+commit.27d51765.Emscripten.clang"
  },
  "schemaVersion": "3.3.3",
  "updatedAt": "2021-02-19T18:58:51.479Z",
  "devdoc": {
    "details": "SLA is a service level agreement contract used for service downtime compensation",
    "events": {
      "SLANotRespected(uint256,uint256)": {
        "details": "event for SLI creation logging",
        "params": {
          "_periodId": "1. the id of the given period",
          "_sli": "2. value of the SLI"
        }
      },
      "SLICreated(uint256,uint256,uint256)": {
        "details": "event for SLI creation logging",
        "params": {
          "_periodId": "3. the id of the given period",
          "_sli": "2. the value of the SLI",
          "_timestamp": "1. the time the SLI has been registered"
        }
      }
    },
    "kind": "dev",
    "methods": {
      "_claimCompensation(address)": {
        "details": "claim user compensation. Transfers both the compensation and the user remaining stake.",
        "params": {
          "_tokenAddress": "1. address of the token to claim compensation"
        }
      },
      "addAllowedTokens(address)": {
        "details": "add a token to ve allowed for staking",
        "params": {
          "_tokenAddress": "1. address of the new allowed token"
        }
      },
      "claimUserCompensation(address)": {
        "details": "withdraw provider reward of a given token address",
        "params": {
          "_tokenAddress": "1. address of the token to withdraw rewards"
        }
      },
      "constructor": {
        "params": {
          "_SLO": "2. address of the SLO",
          "_extraData": "9. array of bytes32 to store extra data on deployment time",
          "_ipfsHash": "3. string with the ipfs hash that contains SLA information",
          "_owner": "1. address of the owner of the service level agreement",
          "_periodIds": "4. id of the allowed canonical periods",
          "_periodRegistry": "7. periodRegistry address",
          "_periodType": "5. period type of the SLA contract",
          "_stakeRegistry": "6. stakeRegistry address",
          "_whitelisted": "8. boolean to declare whitelisted contracts"
        }
      },
      "getAllowedTokensLength()": {
        "details": "use this function to evaluate the length of the allowed tokens length",
        "returns": {
          "_0": "allowedTokens.length"
        }
      },
      "getDetails()": {
        "details": "external view function that returns all agreement information",
        "returns": {
          "_SLAPeriods": "5. SLAPeriod[]",
          "_SLO": "3. addresses of the SLO",
          "_ipfsHash": "2. string  ipfsHash",
          "_slaOwner": "1. address  owner",
          "_stakersCount": "6. amount of stakers",
          "_tokensStake": "7. SLAPeriod[]  addresses array"
        }
      },
      "getStakeholdersPositions(address)": {
        "details": "gets the positions of stake both for provider and for users",
        "params": {
          "_tokenAddress": "1. token address to get the positions"
        },
        "returns": {
          "providerStake": "position of the provider (owner) of the SLA contract",
          "usersStake": "position of the user of the SLA contract"
        }
      },
      "isAllowedToken(address)": {
        "details": "checks in the allowedTokens array if there's a token with _tokenAddress value",
        "params": {
          "_tokenAddress": "1. token address to check exixtence"
        },
        "returns": {
          "_0": "true if _tokenAddress exists in the allowedTokens array"
        }
      },
      "isStaker(address)": {
        "details": "returns true if the _staker address is registered as staker",
        "params": {
          "_staker": "1. staker address"
        },
        "returns": {
          "_0": "true if address is staker"
        }
      },
      "owner()": {
        "details": "Returns the address of the current owner."
      },
      "registerSLI(uint256,uint256)": {
        "details": "external function to register SLI's and check them against the SLO's",
        "params": {
          "_periodId": "2. the id of the given period",
          "_sli": "1. the value of the SLI to check"
        }
      },
      "renounceOwnership()": {
        "details": "Leaves the contract without owner. It will not be possible to call `onlyOwner` functions anymore. Can only be called by the current owner. NOTE: Renouncing ownership will leave the contract without an owner, thereby removing any functionality that is only available to the owner."
      },
      "stakeTokens(uint256,address)": {
        "details": "stake _amount tokens into the _token contract",
        "params": {
          "_amount": "1. amount to be staked",
          "_token": "2. address of the ERC to be staked"
        }
      },
      "transferOwnership(address)": {
        "details": "Transfers ownership of the contract to a new account (`newOwner`). Can only be called by the current owner."
      },
      "withdrawStakedTokens(uint256,address)": {
        "details": "withdraw _amount tokens from the _token contract",
        "params": {
          "_amount": "1. amount to be staked",
          "_tokenAddress": "2. address of the ERC to be staked"
        }
      }
    },
    "stateVariables": {
      "_breachedContract": {
        "details": "states if the contract was breached or not"
      },
      "creationBlockNumber": {
        "details": "block number of SLA deployment"
      },
      "extraData": {
        "details": "extra data for customized workflows"
      },
      "ipfsHash": {
        "details": "The ipfs hash that stores extra information about the agreement"
      },
      "messengerAddress": {
        "details": "The address of the messenger"
      },
      "periodIds": {
        "details": "array of he allowed canonical period ids"
      },
      "periodType": {
        "details": "uint8 of the period type"
      },
      "slaPeriods": {
        "details": "periodId=>SLAPeriod mapping"
      },
      "slaRegistry": {
        "details": "The address of the slaRegistry contract"
      },
      "slo": {
        "details": "address of the SLO"
      }
    },
    "title": "SLA",
    "version": 1
  },
  "userdoc": {
    "kind": "user",
    "methods": {
      "_claimCompensation(address)": {
        "notice": "it uses the user position and the user total position per token to check the proportion of the compensation pool that corresponds to every user"
      }
    },
    "version": 1
  }
}