{
  "contractName": "SLA",
  "abi": [
    {
      "inputs": [
        {
          "internalType": "address",
          "name": "_owner",
          "type": "address"
        },
        {
          "internalType": "bytes32[]",
          "name": "_SLONames",
          "type": "bytes32[]"
        },
        {
          "internalType": "contract SLO[]",
          "name": "_SLOs",
          "type": "address[]"
        },
        {
          "internalType": "uint256",
          "name": "_stake",
          "type": "uint256"
        },
        {
          "internalType": "string",
          "name": "_ipfsHash",
          "type": "string"
        },
        {
          "internalType": "uint256",
          "name": "_sliInterval",
          "type": "uint256"
        },
        {
          "internalType": "address",
          "name": "_baseTokenAddress",
          "type": "address"
        },
        {
          "internalType": "uint256[]",
          "name": "_sla_period_starts",
          "type": "uint256[]"
        },
        {
          "internalType": "uint256[]",
          "name": "_sla_period_ends",
          "type": "uint256[]"
        }
      ],
      "stateMutability": "nonpayable",
      "type": "constructor"
    },
    {
      "anonymous": false,
      "inputs": [
        {
          "indexed": true,
          "internalType": "uint256",
          "name": "period_index",
          "type": "uint256"
        }
      ],
      "name": "NewPeriodAdded",
      "type": "event"
    },
    {
      "anonymous": false,
      "inputs": [
        {
          "indexed": true,
          "internalType": "address",
          "name": "previousOwner",
          "type": "address"
        },
        {
          "indexed": true,
          "internalType": "address",
          "name": "newOwner",
          "type": "address"
        }
      ],
      "name": "OwnershipTransferred",
      "type": "event"
    },
    {
      "anonymous": false,
      "inputs": [
        {
          "indexed": false,
          "internalType": "uint256",
          "name": "_timestamp",
          "type": "uint256"
        },
        {
          "indexed": false,
          "internalType": "uint256",
          "name": "_value",
          "type": "uint256"
        },
        {
          "indexed": false,
          "internalType": "uint256",
          "name": "_periodId",
          "type": "uint256"
        }
      ],
      "name": "SLICreated",
      "type": "event"
    },
    {
      "inputs": [],
      "name": "BaseToken",
      "outputs": [
        {
          "internalType": "contract IERC20",
          "name": "",
          "type": "address"
        }
      ],
      "stateMutability": "view",
      "type": "function"
    },
    {
      "inputs": [
        {
          "internalType": "bytes32",
          "name": "",
          "type": "bytes32"
        },
        {
          "internalType": "uint256",
          "name": "",
          "type": "uint256"
        }
      ],
      "name": "SLIs",
      "outputs": [
        {
          "internalType": "uint256",
          "name": "timestamp",
          "type": "uint256"
        },
        {
          "internalType": "uint256",
          "name": "value",
          "type": "uint256"
        },
        {
          "internalType": "uint256",
          "name": "periodId",
          "type": "uint256"
        }
      ],
      "stateMutability": "view",
      "type": "function"
    },
    {
      "inputs": [
        {
          "internalType": "uint256",
          "name": "",
          "type": "uint256"
        }
      ],
      "name": "SLONames",
      "outputs": [
        {
          "internalType": "bytes32",
          "name": "",
          "type": "bytes32"
        }
      ],
      "stateMutability": "view",
      "type": "function"
    },
    {
      "inputs": [
        {
          "internalType": "bytes32",
          "name": "",
          "type": "bytes32"
        }
      ],
      "name": "SLOs",
      "outputs": [
        {
          "internalType": "contract SLO",
          "name": "",
          "type": "address"
        }
      ],
      "stateMutability": "view",
      "type": "function"
    },
    {
      "inputs": [
        {
          "internalType": "address",
          "name": "_token",
          "type": "address"
        }
      ],
      "name": "addAllowedTokens",
      "outputs": [],
      "stateMutability": "nonpayable",
      "type": "function"
    },
    {
      "inputs": [
        {
          "internalType": "uint256",
          "name": "_sla_period_start",
          "type": "uint256"
        },
        {
          "internalType": "uint256",
          "name": "_sla_period_end",
          "type": "uint256"
        }
      ],
      "name": "addNewPeriod",
      "outputs": [],
      "stateMutability": "nonpayable",
      "type": "function"
    },
    {
      "inputs": [
        {
          "internalType": "uint256",
          "name": "",
          "type": "uint256"
        }
      ],
      "name": "allowedTokens",
      "outputs": [
        {
          "internalType": "address",
          "name": "",
          "type": "address"
        }
      ],
      "stateMutability": "view",
      "type": "function"
    },
    {
      "inputs": [
        {
          "internalType": "address",
          "name": "",
          "type": "address"
        }
      ],
      "name": "allowedTokensMapping",
      "outputs": [
        {
          "internalType": "bool",
          "name": "",
          "type": "bool"
        }
      ],
      "stateMutability": "view",
      "type": "function"
    },
    {
      "inputs": [],
      "name": "blockNumberCreation",
      "outputs": [
        {
          "internalType": "uint256",
          "name": "",
          "type": "uint256"
        }
      ],
      "stateMutability": "view",
      "type": "function"
    },
    {
      "inputs": [
        {
          "internalType": "uint256",
          "name": "_period",
          "type": "uint256"
        }
      ],
      "name": "claimCompensation",
      "outputs": [],
      "stateMutability": "nonpayable",
      "type": "function"
    },
    {
      "inputs": [
        {
          "internalType": "uint256",
          "name": "_period",
          "type": "uint256"
        }
      ],
      "name": "claimReward",
      "outputs": [],
      "stateMutability": "nonpayable",
      "type": "function"
    },
    {
      "inputs": [
        {
          "internalType": "uint256",
          "name": "_periodId",
          "type": "uint256"
        }
      ],
      "name": "getPeriodData",
      "outputs": [
        {
          "internalType": "uint256",
          "name": "periodStart",
          "type": "uint256"
        },
        {
          "internalType": "uint256",
          "name": "periodEnd",
          "type": "uint256"
        }
      ],
      "stateMutability": "view",
      "type": "function"
    },
    {
      "inputs": [],
      "name": "getPeriodLength",
      "outputs": [
        {
          "internalType": "uint256",
          "name": "_length",
          "type": "uint256"
        }
      ],
      "stateMutability": "view",
      "type": "function"
    },
    {
      "inputs": [
        {
          "internalType": "address",
          "name": "_owner",
          "type": "address"
        },
        {
          "internalType": "uint256",
          "name": "_index",
          "type": "uint256"
        }
      ],
      "name": "getTokenStake",
      "outputs": [
        {
          "internalType": "address",
          "name": "tokenAddress",
          "type": "address"
        },
        {
          "internalType": "uint256",
          "name": "stake",
          "type": "uint256"
        }
      ],
      "stateMutability": "view",
      "type": "function"
    },
    {
      "inputs": [
        {
          "internalType": "address",
          "name": "_owner",
          "type": "address"
        }
      ],
      "name": "getTokenStakeLength",
      "outputs": [
        {
          "internalType": "uint256",
          "name": "",
          "type": "uint256"
        }
      ],
      "stateMutability": "view",
      "type": "function"
    },
    {
      "inputs": [
        {
          "internalType": "address",
          "name": "_user",
          "type": "address"
        },
        {
          "internalType": "uint256",
          "name": "_period",
          "type": "uint256"
        }
      ],
      "name": "getUserTotalValue",
      "outputs": [
        {
          "internalType": "uint256",
          "name": "",
          "type": "uint256"
        }
      ],
      "stateMutability": "view",
      "type": "function"
    },
    {
      "inputs": [],
      "name": "ipfsHash",
      "outputs": [
        {
          "internalType": "string",
          "name": "",
          "type": "string"
        }
      ],
      "stateMutability": "view",
      "type": "function"
    },
    {
      "inputs": [],
      "name": "owner",
      "outputs": [
        {
          "internalType": "address",
          "name": "",
          "type": "address"
        }
      ],
      "stateMutability": "view",
      "type": "function"
    },
    {
      "inputs": [
        {
          "internalType": "uint256",
          "name": "",
          "type": "uint256"
        }
      ],
      "name": "periods",
      "outputs": [
        {
          "internalType": "uint256",
          "name": "sla_period_start",
          "type": "uint256"
        },
        {
          "internalType": "uint256",
          "name": "sla_period_end",
          "type": "uint256"
        },
        {
          "internalType": "uint256",
          "name": "claimed_reward",
          "type": "uint256"
        },
        {
          "internalType": "bool",
          "name": "claimed",
          "type": "bool"
        },
        {
          "internalType": "enum Staking.Status",
          "name": "status",
          "type": "uint8"
        },
        {
          "internalType": "uint256",
          "name": "sli",
          "type": "uint256"
        },
        {
          "internalType": "uint256",
          "name": "timestamp",
          "type": "uint256"
        }
      ],
      "stateMutability": "view",
      "type": "function"
    },
    {
      "inputs": [],
      "name": "registry",
      "outputs": [
        {
          "internalType": "contract SLARegistry",
          "name": "",
          "type": "address"
        }
      ],
      "stateMutability": "view",
      "type": "function"
    },
    {
      "inputs": [],
      "name": "renounceOwnership",
      "outputs": [],
      "stateMutability": "nonpayable",
      "type": "function"
    },
    {
      "inputs": [],
      "name": "stake",
      "outputs": [
        {
          "internalType": "uint256",
          "name": "",
          "type": "uint256"
        }
      ],
      "stateMutability": "view",
      "type": "function"
    },
    {
      "inputs": [
        {
          "internalType": "uint256",
          "name": "",
          "type": "uint256"
        }
      ],
      "name": "stakers",
      "outputs": [
        {
          "internalType": "address",
          "name": "",
          "type": "address"
        }
      ],
      "stateMutability": "view",
      "type": "function"
    },
    {
      "inputs": [],
      "name": "stakersCount",
      "outputs": [
        {
          "internalType": "uint256",
          "name": "",
          "type": "uint256"
        }
      ],
      "stateMutability": "view",
      "type": "function"
    },
    {
      "inputs": [
        {
          "internalType": "address",
          "name": "",
          "type": "address"
        }
      ],
      "name": "tokensPool",
      "outputs": [
        {
          "internalType": "uint256",
          "name": "",
          "type": "uint256"
        }
      ],
      "stateMutability": "view",
      "type": "function"
    },
    {
      "inputs": [],
      "name": "totalStaked",
      "outputs": [
        {
          "internalType": "uint256",
          "name": "",
          "type": "uint256"
        }
      ],
      "stateMutability": "view",
      "type": "function"
    },
    {
      "inputs": [
        {
          "internalType": "address",
          "name": "newOwner",
          "type": "address"
        }
      ],
      "name": "transferOwnership",
      "outputs": [],
      "stateMutability": "nonpayable",
      "type": "function"
    },
    {
      "inputs": [
        {
          "internalType": "address",
          "name": "",
          "type": "address"
        }
      ],
      "name": "uniqueTokensStaked",
      "outputs": [
        {
          "internalType": "uint256",
          "name": "",
          "type": "uint256"
        }
      ],
      "stateMutability": "view",
      "type": "function"
    },
    {
      "inputs": [
        {
          "internalType": "address",
          "name": "",
          "type": "address"
        },
        {
          "internalType": "address",
          "name": "",
          "type": "address"
        }
      ],
      "name": "userStakedTokens",
      "outputs": [
        {
          "internalType": "bool",
          "name": "",
          "type": "bool"
        }
      ],
      "stateMutability": "view",
      "type": "function"
    },
    {
      "inputs": [
        {
          "internalType": "address",
          "name": "",
          "type": "address"
        },
        {
          "internalType": "address",
          "name": "",
          "type": "address"
        }
      ],
      "name": "userStakedTokensIndex",
      "outputs": [
        {
          "internalType": "uint256",
          "name": "",
          "type": "uint256"
        }
      ],
      "stateMutability": "view",
      "type": "function"
    },
    {
      "inputs": [
        {
          "internalType": "address",
          "name": "",
          "type": "address"
        },
        {
          "internalType": "uint256",
          "name": "",
          "type": "uint256"
        }
      ],
      "name": "userStakes",
      "outputs": [
        {
          "internalType": "address",
          "name": "tokenAddress",
          "type": "address"
        },
        {
          "internalType": "uint256",
          "name": "stake",
          "type": "uint256"
        }
      ],
      "stateMutability": "view",
      "type": "function"
    },
    {
      "inputs": [],
      "name": "validator",
      "outputs": [
        {
          "internalType": "address",
          "name": "",
          "type": "address"
        }
      ],
      "stateMutability": "view",
      "type": "function"
    },
    {
      "inputs": [
        {
          "internalType": "address",
          "name": "_token",
          "type": "address"
        },
        {
          "internalType": "uint256",
          "name": "_period",
          "type": "uint256"
        }
      ],
      "name": "withdraw",
      "outputs": [],
      "stateMutability": "nonpayable",
      "type": "function"
    },
    {
      "inputs": [
        {
          "internalType": "address",
          "name": "_token",
          "type": "address"
        },
        {
          "internalType": "uint256",
          "name": "_amount",
          "type": "uint256"
        },
        {
          "internalType": "uint256",
          "name": "_period",
          "type": "uint256"
        }
      ],
      "name": "withdrawAndStake",
      "outputs": [],
      "stateMutability": "nonpayable",
      "type": "function"
    },
    {
      "inputs": [
        {
          "internalType": "bytes32",
          "name": "_SLOName",
          "type": "bytes32"
        },
        {
          "internalType": "uint256",
          "name": "_value",
          "type": "uint256"
        },
        {
          "internalType": "uint256",
          "name": "_periodId",
          "type": "uint256"
        }
      ],
      "name": "registerSLI",
      "outputs": [],
      "stateMutability": "nonpayable",
      "type": "function"
    },
    {
      "inputs": [
        {
          "internalType": "bytes32",
          "name": "_SLOName",
          "type": "bytes32"
        }
      ],
      "name": "getSLI",
      "outputs": [
        {
          "components": [
            {
              "internalType": "uint256",
              "name": "timestamp",
              "type": "uint256"
            },
            {
              "internalType": "uint256",
              "name": "value",
              "type": "uint256"
            },
            {
              "internalType": "uint256",
              "name": "periodId",
              "type": "uint256"
            }
          ],
          "internalType": "struct SLA.SLI[]",
          "name": "",
          "type": "tuple[]"
        }
      ],
      "stateMutability": "view",
      "type": "function"
    },
    {
      "inputs": [],
      "name": "getSliInterval",
      "outputs": [
        {
          "internalType": "uint256",
          "name": "",
          "type": "uint256"
        }
      ],
      "stateMutability": "view",
      "type": "function"
    },
    {
      "inputs": [],
      "name": "getDetails",
      "outputs": [
        {
          "internalType": "address",
          "name": "",
          "type": "address"
        },
        {
          "internalType": "string",
          "name": "",
          "type": "string"
        },
        {
          "internalType": "uint256",
          "name": "",
          "type": "uint256"
        },
        {
          "internalType": "bytes32[]",
          "name": "",
          "type": "bytes32[]"
        },
        {
          "internalType": "contract SLO[]",
          "name": "",
          "type": "address[]"
        }
      ],
      "stateMutability": "view",
      "type": "function"
    },
    {
      "inputs": [
        {
          "internalType": "uint256",
          "name": "_amount",
          "type": "uint256"
        },
        {
          "internalType": "address",
          "name": "_token",
          "type": "address"
        },
        {
          "internalType": "uint256",
          "name": "_period",
          "type": "uint256"
        }
      ],
      "name": "stakeTokens",
      "outputs": [],
      "stateMutability": "nonpayable",
      "type": "function"
    }
  ],
  "bytecode": "0x60806040523480156200001157600080fd5b50604051620037c3380380620037c38339810160408190526200003491620007cb565b8282828b6000620000446200029a565b600080546001600160a01b0319166001600160a01b038316908117825560405192935091600080516020620037a3833981519152908290a3508151835114620000aa5760405162461bcd60e51b8152600401620000a1906200095d565b60405180910390fd5b600480546001600160a01b038084166001600160a01b0319928316179092556001805492871692821683178155600680548083019091557ff652222313e28459528d920b65115c16c04f3efc82aaedc97be59f3f377c0d3f01805490921683179091556000918252600760205260408220805460ff191690911790555b835181101562000174576200016b8482815181106200014257fe5b60200260200101518483815181106200015757fe5b60200260200101516200029e60201b60201c565b60010162000127565b505050505060058751106200019d5760405162461bcd60e51b8152600401620000a19062000a2a565b8651885114620001c15760405162461bcd60e51b8152600401620000a190620009db565b60005b87518110156200023557878181518110620001db57fe5b6020026020010151601160008b8481518110620001f457fe5b602090810291909101810151825281019190915260400160002080546001600160a01b0319166001600160a01b0392909216919091179055600101620001c4565b50620002418962000417565b8751620002569060139060208b019062000546565b50600d86905584516200027190600f90602088019062000596565b5050601080546001600160a01b031916331790555050600e555050436014555062000af4915050565b3390565b620002a862000608565b8281526020810182815260006080830181815260a0840182905260c08401829052600280546001810182559281905284517f405787fa12a823e0f2b7631cc41b3ba8828b3321ca811111fa75cd3aa3bb5ace600890940293840190815593517f405787fa12a823e0f2b7631cc41b3ba8828b3321ca811111fa75cd3aa3bb5acf84015560408501517f405787fa12a823e0f2b7631cc41b3ba8828b3321ca811111fa75cd3aa3bb5ad084015560608501517f405787fa12a823e0f2b7631cc41b3ba8828b3321ca811111fa75cd3aa3bb5ad1909301805460ff19169315159390931780845591518594939092909161ff001990911690610100908490811115620003ae57fe5b021790555060a0820151816004015560c082015181600501555050620003e96001600280549050620004c460201b62001c2b1790919060201c565b6040517ff791e873e3b67fe74b29aeede7bcbbdaa59c4b64e542571183cd837aa56f6ac990600090a2505050565b620004216200029a565b6000546001600160a01b03908116911614620004515760405162461bcd60e51b8152600401620000a190620009a6565b6001600160a01b0381166200047a5760405162461bcd60e51b8152600401620000a19062000917565b600080546040516001600160a01b0380851693921691600080516020620037a383398151915291a3600080546001600160a01b0319166001600160a01b0392909216919091179055565b60006200050e83836040518060400160405280601e81526020017f536166654d6174683a207375627472616374696f6e206f766572666c6f7700008152506200051760201b60201c565b90505b92915050565b600081848411156200053e5760405162461bcd60e51b8152600401620000a19190620008e2565b505050900390565b82805482825590600052602060002090810192821562000584579160200282015b828111156200058457825182559160200191906001019062000567565b506200059292915062000653565b5090565b828054600181600116156101000203166002900490600052602060002090601f016020900481019282601f10620005d957805160ff191683800117855562000584565b828001600101855582156200058457918201828111156200058457825182559160200191906001019062000567565b6040518060e00160405280600081526020016000815260200160008152602001600015158152602001600060028111156200063f57fe5b815260200160008152602001600081525090565b5b8082111562000592576000815560010162000654565b8051620005118162000adb565b600082601f83011262000688578081fd5b81516200069f620006998262000a88565b62000a61565b818152915060208083019084810181840286018201871015620006c157600080fd5b60005b84811015620006e257815184529282019290820190600101620006c4565b505050505092915050565b600082601f830112620006fe578081fd5b81516200070f620006998262000a88565b8181529150602080830190848101818402860182018710156200073157600080fd5b60005b84811015620006e25781516200074a8162000adb565b8452928201929082019060010162000734565b600082601f8301126200076e578081fd5b81516001600160401b0381111562000784578182fd5b62000799601f8201601f191660200162000a61565b9150808252836020828501011115620007b157600080fd5b620007c481602084016020860162000aa8565b5092915050565b60008060008060008060008060006101208a8c031215620007ea578485fd5b620007f68b8b6200066a565b60208b01519099506001600160401b038082111562000813578687fd5b620008218d838e0162000677565b995060408c015191508082111562000837578687fd5b620008458d838e01620006ed565b985060608c0151975060808c015191508082111562000862578687fd5b620008708d838e016200075d565b965060a08c01519550620008888d60c08e016200066a565b945060e08c01519150808211156200089e578384fd5b620008ac8d838e0162000677565b93506101008c0151915080821115620008c3578283fd5b50620008d28c828d0162000677565b9150509295985092959850929598565b60006020825282518060208401526200090381604085016020870162000aa8565b601f01601f19169190910160400192915050565b60208082526026908201527f4f776e61626c653a206e6577206f776e657220697320746865207a65726f206160408201526564647265737360d01b606082015260800190565b60208082526029908201527f506c6561736520636865636b2074686520706172616d73206f6620796f757220604082015268706572696f6473202160b81b606082015260800190565b6020808252818101527f4f776e61626c653a2063616c6c6572206973206e6f7420746865206f776e6572604082015260600190565b6020808252602f908201527f5f534c4f4e616d657320616e64205f534c4f732073686f756c6420686176652060408201526e0e8d0ca40e6c2daca40d8cadccee8d608b1b606082015260800190565b60208082526017908201527f6d617820616d6f756e74206f6620534c4f732069732035000000000000000000604082015260600190565b6040518181016001600160401b038111828210171562000a8057600080fd5b604052919050565b60006001600160401b0382111562000a9e578081fd5b5060209081020190565b60005b8381101562000ac557818101518382015260200162000aab565b8381111562000ad5576000848401525b50505050565b6001600160a01b038116811462000af157600080fd5b50565b612c9f8062000b046000396000f3fe608060405234801561001057600080fd5b506004361061022d5760003560e01c806394199c611161013b578063ea4a1104116100b8578063f3fef3a31161007c578063f3fef3a3146104b0578063fbbf93a0146104c3578063fc875ece146104dc578063fd0d5534146104fd578063fd5e6dd1146105105761022d565b8063ea4a11041461043e578063ec04de4814610464578063f10bd77214610477578063f2fde38b1461048a578063f34ed40d1461049d5761022d565b8063b83e0234116100ff578063b83e0234146103f3578063c623674f14610406578063cec534d61461041b578063dbc389ec1461042e578063e7ab816a146104365761022d565b806394199c6114610390578063a2e80c5e146103b2578063ae169a50146103ba578063b0227b47146103cd578063b5d5b5fa146103e05761022d565b806357ac94f0116101c9578063817b1cd21161018d578063817b1cd21461035d5780638469ddc714610365578063869c39251461036d5780638da5cb5b1461038057806390f81702146103885761022d565b806357ac94f0146103065780635e5f2e2614610327578063715018a61461033a57806375fdf2a9146103425780637b103999146103555761022d565b806302e8b893146102325780630e1fcf341461025b578063105237cf14610270578063171e44ea146102905780631934d0e8146102a35780632eac9787146102b65780633a4b66f1146102d65780633a5381b5146102de57806353e85fd5146102f3575b600080fd5b610245610240366004612538565b610523565b6040516102529190612740565b60405180910390f35b61026e610269366004612550565b6105b4565b005b61028361027e366004612465565b610600565b6040516102529190612799565b61026e61029e366004612465565b610615565b6102836102b1366004612481565b6106ea565b6102c96102c4366004612481565b61070a565b60405161025291906127a4565b6102c9610727565b6102e661072d565b6040516102529190612644565b61026e610301366004612538565b61073c565b6103196103143660046124b9565b610a5a565b60405161025292919061267c565b6102e6610335366004612538565b610ada565b61026e610b01565b61026e6103503660046124e4565b610b80565b6102e6610ee3565b6102c9610ef2565b6102c9610ef8565b61026e61037b366004612571565b610efe565b6102e661119c565b6102e66111ab565b6103a361039e366004612550565b6111ba565b60405161025293929190612bca565b6102c96111f9565b61026e6103c8366004612538565b6111ff565b6102e66103db366004612538565b6113d9565b6103196103ee3660046124b9565b6113f4565b6102c9610401366004612465565b611437565b61040e611449565b60405161025291906127ad565b61026e6104293660046125b8565b6114d7565b6102c961158a565b6102c9611590565b61045161044c366004612538565b611596565b6040516102529796959493929190612be0565b6102c9610472366004612465565b6115e7565b6102c96104853660046124b9565b611602565b61026e610498366004612465565b6116b0565b6102c96104ab366004612538565b611766565b61026e6104be3660046124b9565b611784565b6104cb6119f2565b604051610252959493929190612695565b6104ef6104ea366004612538565b611bc2565b604051610252929190612bbc565b6102c961050b366004612465565b611c0c565b6102e661051e366004612538565b611c1e565b606060126000838152602001908152602001600020805480602002602001604051908101604052809291908181526020016000905b828210156105a85783829060005260206000209060030201604051806060016040529081600082015481526020016001820154815260200160028201548152505081526020019060010190610558565b5050505090505b919050565b6105bc611c6d565b6000546001600160a01b039081169116146105f25760405162461bcd60e51b81526004016105e990612a79565b60405180910390fd5b6105fc8282611c71565b5050565b60076020526000908152604090205460ff1681565b61061d611c6d565b6000546001600160a01b0390811691161461064a5760405162461bcd60e51b81526004016105e990612a79565b6001600160a01b03811660009081526007602052604090205460ff16156106835760405162461bcd60e51b81526004016105e990612987565b6006805460018181019092557ff652222313e28459528d920b65115c16c04f3efc82aaedc97be59f3f377c0d3f0180546001600160a01b039093166001600160a01b031990931683179055600091825260076020526040909120805460ff19169091179055565b600b60209081526000928352604080842090915290825290205460ff1681565b600a60209081526000928352604080842090915290825290205481565b600d5481565b6004546001600160a01b031681565b806002818154811061074a57fe5b906000526020600020906008020160000154421015801561078957506002818154811061077357fe5b9060005260206000209060080201600101544211155b61079257600080fd5b6004546001600160a01b03163314156107bd5760405162461bcd60e51b81526004016105e990612921565b60028083815481106107cb57fe5b906000526020600020906008020160030160019054906101000a900460ff1660028111156107f557fe5b146108125760405162461bcd60e51b81526004016105e990612836565b6002828154811061081f57fe5b60009182526020808320338452600760089093020191909101905260409020541561085c5760405162461bcd60e51b81526004016105e990612b5f565b60006108683384611602565b90506000610882600a61087c846003611dd5565b90611e0f565b6003549091506108929083611c2b565b60038190555081600285815481106108a657fe5b600091825260208083203380855260089390930201600701905260409182902092909255600154905163a9059cbb60e01b81526001600160a01b039091169163a9059cbb916108fa9190869060040161267c565b602060405180830381600087803b15801561091457600080fd5b505af1158015610928573d6000803e3d6000fd5b505050506040513d601f19601f8201168201806040525081019061094c9190612518565b50600154604080518082018252600d81526c6275726e2875696e743235362960981b602090910152516000916001600160a01b0316907f42966c689b5afe9b9b3f8a7103b2a19980d59629bfd6a20a60972312ed41d836906109b29085906024016127a4565b60408051601f198184030181529181526020820180516001600160e01b03166001600160e01b03199094169390931790925290516109f09190612628565b6000604051808303816000865af19150503d8060008114610a2d576040519150601f19603f3d011682016040523d82523d6000602084013e610a32565b606091505b5050905080610a535760405162461bcd60e51b81526004016105e9906127c0565b5050505050565b6001600160a01b0382166000908152600960205260408120805482919084908110610a8157fe5b600091825260208083206002909202909101546001600160a01b03878116845260099092526040909220805491909216919085908110610abd57fe5b906000526020600020906002020160010154915091509250929050565b60068181548110610ae757fe5b6000918252602090912001546001600160a01b0316905081565b610b09611c6d565b6000546001600160a01b03908116911614610b365760405162461bcd60e51b81526004016105e990612a79565b600080546040516001600160a01b03909116907f8be0079c531659141344cd1fd0a4f28419497f9722a3daafe3b4186f6b6457e0908390a3600080546001600160a01b0319169055565b6004546001600160a01b0316331415610bab5760405162461bcd60e51b81526004016105e990612921565b6001600160a01b038316600090815260076020526040902054839060ff161515600114610bea5760405162461bcd60e51b81526004016105e990612a4b565b600060028381548110610bf957fe5b600091825260208083206001600160a01b03891684526006600890930201919091018152604080832033845290915290205411610c485760405162461bcd60e51b81526004016105e990612950565b6040516323b872dd60e01b81526001600160a01b038516906323b872dd90610c7890339030908890600401612658565b602060405180830381600087803b158015610c9257600080fd5b505af1158015610ca6573d6000803e3d6000fd5b505050506040513d601f19601f82011682018060405250810190610cca9190612518565b50610d148360028481548110610cdc57fe5b600091825260208083206001600160a01b038a1684526006600890930201919091018152604080832033845290915290205490611e51565b60028381548110610d2157fe5b600091825260208083206001600160a01b038916845260066008909302019190910181526040808320338452909152902055600354610d609084611e51565b600355610d6d8484611e76565b600060028381548110610d7c57fe5b600091825260208083206001600160a01b03891684526006600890930201919091018152604080832033845290915281205460055460028054929450610de69287908110610dc657fe5b906000526020600020906008020160020154611e0f90919063ffffffff16565b9050600060028581548110610df757fe5b600091825260208083206001600160a01b038b16845260066008909302019190910181526040808320338452909152902055600354610e369083611c2b565b6003556001546001600160a01b031663a9059cbb33610e558585611c2b565b6040518363ffffffff1660e01b8152600401610e7292919061267c565b602060405180830381600087803b158015610e8c57600080fd5b505af1158015610ea0573d6000803e3d6000fd5b505050506040513d601f19601f82011682018060405250810190610ec49190612518565b50600154610edb906001600160a01b031683612016565b505050505050565b6010546001600160a01b031681565b60035481565b60025490565b601060009054906101000a90046001600160a01b03166001600160a01b0316633cb747bf6040518163ffffffff1660e01b815260040160206040518083038186803b158015610f4c57600080fd5b505afa158015610f60573d6000803e3d6000fd5b505050506040513d601f19601f82011682018060405250810190610f84919061259c565b6001600160a01b0316336001600160a01b031614610fb45760405162461bcd60e51b81526004016105e9906128dc565b60008381526012602090815260408083208151606081018352428152808401878152928101868152825460018181018555938752949095209051600390940201928355905190820155905160029182015580548391908390811061101457fe5b906000526020600020906008020160040181905550426002828154811061103757fe5b9060005260206000209060080201600501819055507fc95987c1992805ee34bdc915e017cceae36ba1c156b9911fa7e691e6435eb46e42838360405161107f93929190612bca565b60405180910390a16000838152601160205260409081902054905163868d08f760e01b81526001600160a01b039091169063868d08f7906110c49085906004016127a4565b60206040518083038186803b1580156110dc57600080fd5b505afa1580156110f0573d6000803e3d6000fd5b505050506040513d601f19601f820116820180604052508101906111149190612518565b61115957600280828154811061112657fe5b60009182526020909120600360089092020101805461ff00191661010083600281111561114f57fe5b0217905550611197565b60016002828154811061116857fe5b60009182526020909120600360089092020101805461ff00191661010083600281111561119157fe5b02179055505b505050565b6000546001600160a01b031690565b6001546001600160a01b031681565b601260205281600052604060002081815481106111d357fe5b600091825260209091206003909102018054600182015460029092015490935090915083565b60055490565b806002818154811061120d57fe5b906000526020600020906008020160000154421015801561124c57506002818154811061123657fe5b9060005260206000209060080201600101544211155b61125557600080fd5b6004546001600160a01b0316331461127f5760405162461bcd60e51b81526004016105e990612b2c565b60016002838154811061128e57fe5b906000526020600020906008020160030160019054906101000a900460ff1660028111156112b857fe5b146112d55760405162461bcd60e51b81526004016105e990612809565b600282815481106112e257fe5b600091825260209091206003600890920201015460ff16156113165760405162461bcd60e51b81526004016105e9906129b4565b6002546003546000916113299190611e0f565b9050600061133d600a61087c846003611dd5565b60035490915061134d9083611c2b565b600381905550816002858154811061136157fe5b90600052602060002090600802016002018190555060016002858154811061138557fe5b60009182526020909120600890910201600301805460ff191691151591909117905560015460405163a9059cbb60e01b81526001600160a01b039091169063a9059cbb906108fa903390869060040161267c565b6011602052600090815260409020546001600160a01b031681565b6009602052816000526040600020818154811061140d57fe5b6000918252602090912060029091020180546001909101546001600160a01b039091169250905082565b60086020526000908152604090205481565b600f805460408051602060026001851615610100026000190190941693909304601f810184900484028201840190925281815292918301828280156114cf5780601f106114a4576101008083540402835291602001916114cf565b820191906000526020600020905b8154815290600101906020018083116114b257829003601f168201915b505050505081565b601054604051635948284760e11b81526000916001600160a01b03169063b290508e90611508903390600401612644565b602060405180830381600087803b15801561152257600080fd5b505af1158015611536573d6000803e3d6000fd5b505050506040513d601f19601f8201168201806040525081019061155a9190612518565b9050806115795760405162461bcd60e51b81526004016105e990612aae565b6115848484846120ec565b50505050565b60145481565b600e5490565b600281815481106115a357fe5b60009182526020909120600890910201805460018201546002830154600384015460048501546005909501549395509193909260ff80841693610100900416919087565b6001600160a01b031660009081526009602052604090205490565b6001600160a01b0382166000908152600860205260408120548190156116a75760005b6006548110156116a55761169b6002858154811061163f57fe5b906000526020600020906008020160060160006006848154811061165f57fe5b60009182526020808320909101546001600160a01b0390811684528382019490945260409283018220938a168252929092529020548390611e51565b9150600101611625565b505b90505b92915050565b6116b8611c6d565b6000546001600160a01b039081169116146116e55760405162461bcd60e51b81526004016105e990612a79565b6001600160a01b03811661170b5760405162461bcd60e51b81526004016105e99061285f565b600080546040516001600160a01b03808516939216917f8be0079c531659141344cd1fd0a4f28419497f9722a3daafe3b4186f6b6457e091a3600080546001600160a01b0319166001600160a01b0392909216919091179055565b6013818154811061177357fe5b600091825260209091200154905081565b6004546001600160a01b03163314156117af5760405162461bcd60e51b81526004016105e990612921565b6001600160a01b038216600090815260076020526040902054829060ff1615156001146117ee5760405162461bcd60e51b81526004016105e990612a4b565b6000600283815481106117fd57fe5b600091825260208083206001600160a01b0388168452600660089093020191909101815260408083203384529091529020541161184c5760405162461bcd60e51b81526004016105e990612950565b60006002838154811061185b57fe5b600091825260208083206001600160a01b038816845260066008909302019190910181526040808320338452909152812054600554600280549294506118a59287908110610dc657fe5b90506000600285815481106118b657fe5b600091825260208083206001600160a01b038a168452600660089093020191909101815260408083203384529091529020556003546118f59083611c2b565b6003556001600160a01b03851663a9059cbb336119128585611c2b565b6040518363ffffffff1660e01b815260040161192f92919061267c565b602060405180830381600087803b15801561194957600080fd5b505af115801561195d573d6000803e3d6000fd5b505050506040513d601f19601f820116820180604052508101906119819190612518565b503360009081526008602052604090205461199d906001611c2b565b3360009081526008602052604090208190556119e85760006119be336122d6565b9050600581815481106119cd57fe5b600091825260209091200180546001600160a01b0319169055505b610a538583612016565b600060606000606080606060138054905067ffffffffffffffff81118015611a1957600080fd5b50604051908082528060200260200182016040528015611a43578160200160208202803683370190505b50905060005b601354811015611abd576011600060138381548110611a6457fe5b9060005260206000200154815260200190815260200160002060009054906101000a90046001600160a01b0316828281518110611a9d57fe5b6001600160a01b0390921660209283029190910190910152600101611a49565b50611ac661119c565b600d54600f805460408051602060026001851615610100026000190190941693909304601f810184900484028201840190925281815292939260139287928691830182828015611b575780601f10611b2c57610100808354040283529160200191611b57565b820191906000526020600020905b815481529060010190602001808311611b3a57829003601f168201915b5050505050935081805480602002602001604051908101604052809291908181526020018280548015611ba957602002820191906000526020600020905b815481526020019060010190808311611b95575b5050505050915095509550955095509550509091929394565b60008060028381548110611bd257fe5b90600052602060002090600802016000015460028481548110611bf157fe5b90600052602060002090600802016001015491509150915091565b600c6020526000908152604090205481565b60058181548110610ae757fe5b60006116a783836040518060400160405280601e81526020017f536166654d6174683a207375627472616374696f6e206f766572666c6f77000081525061232f565b3390565b611c7961241b565b8281526020810182815260006080830181815260a0840182905260c08401829052600280546001810182559281905284517f405787fa12a823e0f2b7631cc41b3ba8828b3321ca811111fa75cd3aa3bb5ace600890940293840190815593517f405787fa12a823e0f2b7631cc41b3ba8828b3321ca811111fa75cd3aa3bb5acf84015560408501517f405787fa12a823e0f2b7631cc41b3ba8828b3321ca811111fa75cd3aa3bb5ad084015560608501517f405787fa12a823e0f2b7631cc41b3ba8828b3321ca811111fa75cd3aa3bb5ad1909301805460ff19169315159390931780845591518594939092909161ff001990911690610100908490811115611d7e57fe5b021790555060a0820151600482015560c090910151600590910155600254611da7906001611c2b565b6040517ff791e873e3b67fe74b29aeede7bcbbdaa59c4b64e542571183cd837aa56f6ac990600090a2505050565b600082611de4575060006116aa565b82820282848281611df157fe5b04146116a75760405162461bcd60e51b81526004016105e990612a0a565b60006116a783836040518060400160405280601a81526020017f536166654d6174683a206469766973696f6e206279207a65726f00000000000081525061235b565b6000828201838110156116a75760405162461bcd60e51b81526004016105e9906128a5565b336000908152600b602090815260408083206001600160a01b038616845290915290205460ff16611f4157336000818152600960209081526040808320815180830183526001600160a01b03888116808352828601898152845460018082018755868a52888a209551600290920290950180546001600160a01b0319169190941617835551918301919091558686529154600a85528386208387528552838620600019919091019055948452600b83528184209084529091529020805460ff19169091179055611fd3565b336000818152600a602090815260408083206001600160a01b0387168452825280832054938352600990915290208054611fa191849184908110611f8157fe5b906000526020600020906002020160010154611e5190919063ffffffff16565b336000908152600960205260409020805483908110611fbc57fe5b906000526020600020906002020160010181905550505b6001600160a01b0382166000908152600c6020526040902054611ff69082611e51565b6001600160a01b039092166000908152600c602052604090209190915550565b336000818152600a602090815260408083206001600160a01b03871684528252808320549383526009909152902080546120769184918490811061205657fe5b906000526020600020906002020160010154611c2b90919063ffffffff16565b33600090815260096020526040902080548390811061209157fe5b60009182526020808320600160029093020191909101929092556001600160a01b0385168152600c90915260409020546120cb9083611c2b565b6001600160a01b039093166000908152600c60205260409020929092555050565b6001600160a01b038216600090815260076020526040902054829060ff16151560011461212b5760405162461bcd60e51b81526004016105e990612a4b565b6000841161214b5760405162461bcd60e51b81526004016105e990612b00565b612156338484612392565b6040516323b872dd60e01b81526001600160a01b038416906323b872dd9061218690339030908990600401612658565b602060405180830381600087803b1580156121a057600080fd5b505af11580156121b4573d6000803e3d6000fd5b505050506040513d601f19601f820116820180604052508101906121d89190612518565b5061222284600284815481106121ea57fe5b600091825260208083206001600160a01b03891684526006600890930201919091018152604080832033845290915290205490611e51565b6002838154811061222f57fe5b600091825260208083206001600160a01b03881684526006600890930201919091018152604080832033845290915290205560035461226e9085611e51565b60035533600090815260086020526040902054600114156122cc57600580546001810182556000919091527f036b6384b5eca791c62761152d0c79bb0604c104a5fb6f4eb0703f3154bb3db00180546001600160a01b031916331790555b6115848385611e76565b6000805b60055481101561232557826001600160a01b0316600582815481106122fb57fe5b6000918252602090912001546001600160a01b0316141561231d5790506105af565b6001016122da565b5060001992915050565b600081848411156123535760405162461bcd60e51b81526004016105e991906127ad565b505050900390565b6000818361237c5760405162461bcd60e51b81526004016105e991906127ad565b50600083858161238857fe5b0495945050505050565b6000600282815481106123a157fe5b600091825260208083206001600160a01b0387811685526008939093020160060181526040808420928816845291905290205411611197576001600160a01b0383166000908152600860205260409020546123fd906001611e51565b6001600160a01b038416600090815260086020526040902055505050565b6040518060e001604052806000815260200160008152602001600081526020016000151581526020016000600281111561245157fe5b815260200160008152602001600081525090565b600060208284031215612476578081fd5b81356116a781612c51565b60008060408385031215612493578081fd5b823561249e81612c51565b915060208301356124ae81612c51565b809150509250929050565b600080604083850312156124cb578182fd5b82356124d681612c51565b946020939093013593505050565b6000806000606084860312156124f8578081fd5b833561250381612c51565b95602085013595506040909401359392505050565b600060208284031215612529578081fd5b815180151581146116a7578182fd5b600060208284031215612549578081fd5b5035919050565b60008060408385031215612562578182fd5b50508035926020909101359150565b600080600060608486031215612585578283fd5b505081359360208301359350604090920135919050565b6000602082840312156125ad578081fd5b81516116a781612c51565b6000806000606084860312156125cc578283fd5b8335925060208401356125de81612c51565b929592945050506040919091013590565b6001600160a01b03169052565b60008151808452612614816020860160208601612c25565b601f01601f19169290920160200192915050565b6000825161263a818460208701612c25565b9190910192915050565b6001600160a01b0391909116815260200190565b6001600160a01b039384168152919092166020820152604081019190915260600190565b6001600160a01b03929092168252602082015260400190565b6001600160a01b038616815260a060208083018290526000916126ba908401886125fc565b604084018790528381036060850152855180825282870191830190845b818110156126f3578351835292840192918401916001016126d7565b505084810360808601528551808252908301915082860190845b81811015612730576127208484516125ef565b928401929184019160010161270d565b50919a9950505050505050505050565b602080825282518282018190526000919060409081850190868401855b8281101561278c578151805185528681015187860152850151858501526060909301929085019060010161275d565b5091979650505050505050565b901515815260200190565b90815260200190565b6000602082526116a760208301846125fc565b60208082526029908201527f42617365546f6b656e206275726e2070726f6365737320776173206e6f7420736040820152681d58d8d95cdcd99d5b60ba1b606082015260800190565b602080825260139082015272534c41206e6f7420726573706563746564202160681b604082015260600190565b6020808252600f908201526e534c4120726573706563746564202160881b604082015260600190565b60208082526026908201527f4f776e61626c653a206e6577206f776e657220697320746865207a65726f206160408201526564647265737360d01b606082015260800190565b6020808252601b908201527f536166654d6174683a206164646974696f6e206f766572666c6f770000000000604082015260600190565b60208082526025908201527f4f6e6c79204d657373656e6765722063616e2063616c6c20746869732066756e60408201526431ba34b7b760d91b606082015260800190565b602080825260159082015274596f752061726520612076616c696461746f72202160581b604082015260600190565b6020808252601b908201527f7374616b696e672062616c616e63652063616e6e6f7420626520300000000000604082015260600190565b6020808252601390820152721d1bdad95b88185b1c9958591e481859191959606a1b604082015260600190565b60208082526036908201527f596f75206861766520616c726561647920636c61696d656420796f75722072656040820152757761726420666f72207468697320706572696f64202160501b606082015260800190565b60208082526021908201527f536166654d6174683a206d756c7469706c69636174696f6e206f766572666c6f6040820152607760f81b606082015260800190565b6020808252601490820152731d1bdad95b881a5cc81b9bdd08185b1b1bddd95960621b604082015260600190565b6020808252818101527f4f776e61626c653a2063616c6c6572206973206e6f7420746865206f776e6572604082015260600190565b60208082526032908201527f736c6120776173206e6f742072656769737465726564206173207374616b656460408201527110313c903a34329036b9b39739b2b73232b960711b606082015260800190565b6020808252601290820152710616d6f756e742063616e6e6f7420626520360741b604082015260600190565b602080825260199082015278596f7520617265206e6f7420612076616c696461746f72202160381b604082015260600190565b6020808252603c908201527f596f75206861766520616c726561647920636c61696d656420796f757220636f60408201527f6d70656e736174696f6e20666f72207468697320706572696f64202100000000606082015260800190565b918252602082015260400190565b9283526020830191909152604082015260600190565b8781526020810187905260408101869052841515606082015260e0810160038510612c0757fe5b8460808301528360a08301528260c083015298975050505050505050565b60005b83811015612c40578181015183820152602001612c28565b838111156115845750506000910152565b6001600160a01b0381168114612c6657600080fd5b5056fea264697066735822122053953b040916530c65b172019d79a53e997b325c15a06eb296eea01e0d8fd97064736f6c634300060c00338be0079c531659141344cd1fd0a4f28419497f9722a3daafe3b4186f6b6457e0",
  "immutableReferences": {},
  "source": "// SPDX-License-Identifier: MIT\npragma solidity ^0.6.0;\npragma experimental ABIEncoderV2;\n\nimport \"@openzeppelin/contracts/access/Ownable.sol\";\nimport \"@openzeppelin/contracts/token/ERC20/IERC20.sol\";\nimport \"@openzeppelin/contracts/math/SafeMath.sol\";\nimport \"../SLO/SLO.sol\";\nimport \"../SLARegistry.sol\";\nimport \"./Staking.sol\";\n\n/**\n * @title SLA\n * @dev SLA is a service level agreement contract used for service downtime\n * compensation\n */\ncontract SLA is Ownable, Staking {\n    using SafeMath for uint256;\n\n    /// @dev The required amount to stake when subscribing to the agreement\n    uint256 public stake;\n\n    /// @dev The time between SLI registration\n    uint256 private sliInterval;\n\n    /// @dev The ipfs hash that stores extra information about the agreement\n    string public ipfsHash;\n\n    /// @dev The address of the registry contract\n    SLARegistry public registry;\n\n    /// @dev Struct used for storing registered SLI's\n    struct SLI {\n        uint256 timestamp;\n        uint256 value;\n        uint256 periodId;\n    }\n\n    /// @dev mapping to get SLO addresses from SLO names in bytes32\n    mapping(bytes32 => SLO) public SLOs;\n\n    /// @dev mapping to get SLI structs from SLO names in bytes32\n    mapping(bytes32 => SLI[]) public SLIs;\n\n    /// @dev array storing the names of the SLO's of this agreement\n    bytes32[] public SLONames;\n\n    /// @dev block timestamp of SLA deployment\n    uint256 public blockNumberCreation;\n\n    /**\n     * @dev event for SLI creation logging\n     * @param _timestamp 1. the time the SLI has been registered\n     * @param _value 2. the value of the SLI\n     * @param _periodId 3. the id of the given period\n     */\n    event SLICreated(uint256 _timestamp, uint256 _value, uint256 _periodId);\n\n    /**\n     * @dev throws if called by any address other than the messenger contract.\n     */\n    modifier onlyMessenger() {\n        require(\n            msg.sender == address(registry.messenger()),\n            \"Only Messenger can call this function\"\n        );\n        _;\n    }\n\n    /**\n     * @dev throws if called by any address other than the messenger contract.\n     */\n    modifier onlySLARegistry() {\n        require(\n            msg.sender == address(registry),\n            \"Only SLARegistry can call this function\"\n        );\n        _;\n    }\n\n    /**\n     * @param _owner 1. address of the owner of the service level agreement\n     * @param _SLONames 2. array of the names of the service level objectives\n     * in bytes32\n     * @param _SLOs 3. array of service level objective contract addressess\n     * service level objective breach\n     * @param _stake 4. uint of the amount required to stake when signing the\n     * service level agreement\n     * @param _ipfsHash 5. string with the ipfs hash that contains extra\n     * information about the service level agreement\n     * @param _sliInterval 6. uint the interval in seconds between requesting a new SLI\n     * @param _baseTokenAddress 7. address of the Base Token to be unlocked for staking\n     * @param _sla_period_starts 8. array with the values for the \"start\" of every period\n     * @param _sla_period_ends 9. array with the values for the \"end\" of every period\n     */\n    constructor(\n        address _owner,\n        bytes32[] memory _SLONames,\n        SLO[] memory _SLOs,\n        uint256 _stake,\n        string memory _ipfsHash,\n        uint256 _sliInterval,\n        address _baseTokenAddress,\n        uint256[] memory _sla_period_starts,\n        uint256[] memory _sla_period_ends\n    )\n        public\n        Staking(_baseTokenAddress, _sla_period_starts, _sla_period_ends, _owner)\n    {\n        require(_SLOs.length < 5, \"max amount of SLOs is 5\");\n        require(\n            _SLONames.length == _SLOs.length,\n            \"_SLONames and _SLOs should have the same length\"\n        );\n\n        for (uint256 i = 0; i < _SLOs.length; i++) {\n            SLOs[_SLONames[i]] = _SLOs[i];\n        }\n\n        transferOwnership(_owner);\n        SLONames = _SLONames;\n        stake = _stake;\n        ipfsHash = _ipfsHash;\n        registry = SLARegistry(msg.sender);\n        sliInterval = _sliInterval;\n        blockNumberCreation = block.number;\n    }\n\n    /**\n     * @dev external function to register SLI's and check them against the SLO's\n     * @param _SLOName 1. the name of the SLO in bytes32\n     * @param _value 2. the value of the SLI to check\n     * @param _periodId 3. the id of the given period\n     */\n    function registerSLI(\n        bytes32 _SLOName,\n        uint256 _value,\n        uint256 _periodId\n    ) external onlyMessenger {\n        SLIs[_SLOName].push(SLI(block.timestamp, _value, _periodId));\n        periods[_periodId].sli = _value;\n        periods[_periodId].timestamp = block.timestamp;\n\n        emit SLICreated(block.timestamp, _value, _periodId);\n\n        if (!SLOs[_SLOName].isSLOHonored(_value)) {\n            periods[_periodId].status = Status.NotRespected;\n        } else {\n            periods[_periodId].status = Status.Respected;\n        }\n    }\n\n    /**\n     * @dev external function to get SLIs of certain _SLO\n     * @param _SLOName 1. the name of the SLO in bytes32\n     * @return SLI[] array of SLIs associated to the input SLOs\n     */\n    function getSLI(bytes32 _SLOName) public view returns (SLI[] memory) {\n        return SLIs[_SLOName];\n    }\n\n    /**\n     * @dev external view function that returns the sliInterval value\n      @return uint256 value of the sliInterval\n     */\n    function getSliInterval() external view returns (uint256) {\n        return sliInterval;\n    }\n\n    /**\n     * @dev external view function that returns all agreement information\n     * @return address owner\n     * @return string ipfsHash\n     * @return uint256 amount necessary to stake\n     * @return bytes32[] SLONames array\n     * @return SLO[] SLO addresses array\n     */\n\n    function getDetails()\n        external\n        view\n        returns (\n            address,\n            string memory,\n            uint256,\n            bytes32[] memory,\n            SLO[] memory\n        )\n    {\n        SLO[] memory _SLOAddresses = new SLO[](SLONames.length);\n\n        for (uint256 i = 0; i < SLONames.length; i++) {\n            _SLOAddresses[i] = SLOs[SLONames[i]];\n        }\n\n        return (owner(), ipfsHash, stake, SLONames, _SLOAddresses);\n    }\n\n    /**\n     *@dev increase the _amount staked per _token of _sla\n     *@param _amount 1. amount to be staked\n     *@param _token 2. address of the ERC to be staked\n     *@param _period 3. period id to stake\n     */\n\n    function stakeTokens(\n        uint256 _amount,\n        address _token,\n        uint256 _period\n    ) public {\n        bool success = registry.registerStakedSla(msg.sender);\n        require(success, \"sla was not registered as staked by the msg.sender\");\n        _stakeTokens(_amount, _token, _period);\n    }\n}\n",
  "sourcePath": "/Users/matiasbn/Desktop/stacktical/stacktical-dsla-contracts/contracts/SLA/SLA.sol",
  "compiler": {
    "name": "solc",
    "version": "0.6.12+commit.27d51765.Emscripten.clang"
  },
  "schemaVersion": "3.2.5",
  "updatedAt": "2021-01-14T19:13:47.604Z",
  "devdoc": {
    "details": "SLA is a service level agreement contract used for service downtime compensation",
    "events": {
      "SLICreated(uint256,uint256,uint256)": {
        "details": "event for SLI creation logging",
        "params": {
          "_periodId": "3. the id of the given period",
          "_timestamp": "1. the time the SLI has been registered",
          "_value": "2. the value of the SLI"
        }
      }
    },
    "kind": "dev",
    "methods": {
      "addAllowedTokens(address)": {
        "details": "add a token to ve allowed for staking",
        "params": {
          "_token": "1. address of the new allowed token"
        }
      },
      "addNewPeriod(uint256,uint256)": {
        "details": "add a new period to the array",
        "params": {
          "_sla_period_end": "2. uint256 of the end of the period",
          "_sla_period_start": "1. uint256 of the start of the period"
        }
      },
      "claimCompensation(uint256)": {
        "details": "claim from delegators",
        "params": {
          "_period": "1. period id to claim"
        }
      },
      "claimReward(uint256)": {
        "details": "claim from validators",
        "params": {
          "_period": "1. period id to claim"
        }
      },
      "constructor": {
        "params": {
          "_SLONames": "2. array of the names of the service level objectives in bytes32",
          "_SLOs": "3. array of service level objective contract addressess service level objective breach",
          "_baseTokenAddress": "7. address of the Base Token to be unlocked for staking",
          "_ipfsHash": "5. string with the ipfs hash that contains extra information about the service level agreement",
          "_owner": "1. address of the owner of the service level agreement",
          "_sla_period_ends": "9. array with the values for the \"end\" of every period",
          "_sla_period_starts": "8. array with the values for the \"start\" of every period",
          "_sliInterval": "6. uint the interval in seconds between requesting a new SLI",
          "_stake": "4. uint of the amount required to stake when signing the service level agreement"
        }
      },
      "getDetails()": {
        "details": "external view function that returns all agreement information",
        "returns": {
          "_0": "address owner",
          "_1": "string ipfsHash",
          "_2": "uint256 amount necessary to stake",
          "_3": "bytes32[] SLONames array",
          "_4": "SLO[] SLO addresses array"
        }
      },
      "getPeriodLength()": {
        "details": "returns the lenght of the periods array"
      },
      "getSLI(bytes32)": {
        "details": "external function to get SLIs of certain _SLO",
        "params": {
          "_SLOName": "1. the name of the SLO in bytes32"
        },
        "returns": {
          "_0": "SLI[] array of SLIs associated to the input SLOs"
        }
      },
      "getSliInterval()": {
        "details": "external view function that returns the sliInterval value",
        "returns": {
          "_0": "uint256 value of the sliInterval"
        }
      },
      "getTokenStake(address,uint256)": {
        "details": "returns the token stake according to index",
        "params": {
          "_index": "2. index of the TokenStake",
          "_owner": "1. owner of the stake"
        }
      },
      "getTokenStakeLength(address)": {
        "details": "returns the length of TokenStakes per user",
        "params": {
          "_owner": "1. owner of the stake"
        }
      },
      "getUserTotalValue(address,uint256)": {
        "details": "get the user total value staked",
        "params": {
          "_period": "2. period id to claim",
          "_user": "1. address of the user"
        }
      },
      "owner()": {
        "details": "Returns the address of the current owner."
      },
      "registerSLI(bytes32,uint256,uint256)": {
        "details": "external function to register SLI's and check them against the SLO's",
        "params": {
          "_SLOName": "1. the name of the SLO in bytes32",
          "_periodId": "3. the id of the given period",
          "_value": "2. the value of the SLI to check"
        }
      },
      "renounceOwnership()": {
        "details": "Leaves the contract without owner. It will not be possible to call `onlyOwner` functions anymore. Can only be called by the current owner. NOTE: Renouncing ownership will leave the contract without an owner, thereby removing any functionality that is only available to the owner."
      },
      "stakeTokens(uint256,address,uint256)": {
        "details": "increase the _amount staked per _token of _sla",
        "params": {
          "_amount": "1. amount to be staked",
          "_period": "3. period id to stake",
          "_token": "2. address of the ERC to be staked"
        }
      },
      "stakersCount()": {
        "details": "public view function that returns the total amount of stakers"
      },
      "transferOwnership(address)": {
        "details": "Transfers ownership of the contract to a new account (`newOwner`). Can only be called by the current owner."
      },
      "withdraw(address,uint256)": {
        "details": "withdraw staked tokens",
        "params": {
          "_period": "2. period id to withdraw",
          "_token": "1. address of the token"
        }
      },
      "withdrawAndStake(address,uint256,uint256)": {
        "details": "withdraw BaseToken and stake d Tokens",
        "params": {
          "_amount": "2. amount to withdraw",
          "_period": "3. period id to withdraw",
          "_token": "1. address of the token"
        }
      }
    },
    "stateVariables": {
      "SLIs": {
        "details": "mapping to get SLI structs from SLO names in bytes32"
      },
      "SLONames": {
        "details": "array storing the names of the SLO's of this agreement"
      },
      "SLOs": {
        "details": "mapping to get SLO addresses from SLO names in bytes32"
      },
      "blockNumberCreation": {
        "details": "block timestamp of SLA deployment"
      },
      "ipfsHash": {
        "details": "The ipfs hash that stores extra information about the agreement"
      },
      "registry": {
        "details": "The address of the registry contract"
      },
      "sliInterval": {
        "details": "The time between SLI registration"
      },
      "stake": {
        "details": "The required amount to stake when subscribing to the agreement"
      }
    },
    "title": "SLA",
    "version": 1
  },
  "userdoc": {
    "kind": "user",
    "methods": {},
    "version": 1
  }
}