{
  "contractName": "SLA",
  "abi": [
    {
      "inputs": [
        {
          "internalType": "address",
          "name": "_owner",
          "type": "address"
        },
        {
          "internalType": "contract SLO",
          "name": "_SLO",
          "type": "address"
        },
        {
          "internalType": "string",
          "name": "_ipfsHash",
          "type": "string"
        },
        {
          "internalType": "address",
          "name": "_messengerAddress",
          "type": "address"
        },
        {
          "internalType": "uint256[]",
          "name": "_periodIds",
          "type": "uint256[]"
        },
        {
          "internalType": "enum PeriodRegistry.PeriodType",
          "name": "_periodType",
          "type": "uint8"
        },
        {
          "internalType": "address",
          "name": "_stakeRegistry",
          "type": "address"
        },
        {
          "internalType": "address",
          "name": "_periodRegistry",
          "type": "address"
        },
        {
          "internalType": "bool",
          "name": "_whitelisted",
          "type": "bool"
        },
        {
          "internalType": "bytes32[]",
          "name": "_extraData",
          "type": "bytes32[]"
        },
        {
          "internalType": "uint256",
          "name": "_slaID",
          "type": "uint256"
        }
      ],
      "stateMutability": "nonpayable",
      "type": "constructor"
    },
    {
      "anonymous": false,
      "inputs": [
        {
          "indexed": true,
          "internalType": "address",
          "name": "previousOwner",
          "type": "address"
        },
        {
          "indexed": true,
          "internalType": "address",
          "name": "newOwner",
          "type": "address"
        }
      ],
      "name": "OwnershipTransferred",
      "type": "event"
    },
    {
      "anonymous": false,
      "inputs": [
        {
          "indexed": true,
          "internalType": "uint256",
          "name": "periodId",
          "type": "uint256"
        },
        {
          "indexed": true,
          "internalType": "address",
          "name": "tokenAddress",
          "type": "address"
        },
        {
          "indexed": false,
          "internalType": "uint256",
          "name": "rewardPercentage",
          "type": "uint256"
        },
        {
          "indexed": false,
          "internalType": "uint256",
          "name": "rewardPercentagePrecision",
          "type": "uint256"
        },
        {
          "indexed": false,
          "internalType": "uint256",
          "name": "rewardAmount",
          "type": "uint256"
        }
      ],
      "name": "ProviderRewardGenerated",
      "type": "event"
    },
    {
      "anonymous": false,
      "inputs": [
        {
          "indexed": false,
          "internalType": "uint256",
          "name": "_periodId",
          "type": "uint256"
        },
        {
          "indexed": false,
          "internalType": "uint256",
          "name": "_sli",
          "type": "uint256"
        }
      ],
      "name": "SLANotRespected",
      "type": "event"
    },
    {
      "anonymous": false,
      "inputs": [
        {
          "indexed": false,
          "internalType": "uint256",
          "name": "_timestamp",
          "type": "uint256"
        },
        {
          "indexed": false,
          "internalType": "uint256",
          "name": "_sli",
          "type": "uint256"
        },
        {
          "indexed": false,
          "internalType": "uint256",
          "name": "_periodId",
          "type": "uint256"
        }
      ],
      "name": "SLICreated",
      "type": "event"
    },
    {
      "inputs": [],
      "name": "DSLAburnRate",
      "outputs": [
        {
          "internalType": "uint256",
          "name": "",
          "type": "uint256"
        }
      ],
      "stateMutability": "view",
      "type": "function",
      "constant": true
    },
    {
      "inputs": [
        {
          "internalType": "address",
          "name": "_tokenAddress",
          "type": "address"
        }
      ],
      "name": "_claimCompensation",
      "outputs": [],
      "stateMutability": "nonpayable",
      "type": "function"
    },
    {
      "inputs": [
        {
          "internalType": "address",
          "name": "_tokenAddress",
          "type": "address"
        }
      ],
      "name": "addAllowedTokens",
      "outputs": [],
      "stateMutability": "nonpayable",
      "type": "function"
    },
    {
      "inputs": [
        {
          "internalType": "address",
          "name": "_userAddress",
          "type": "address"
        }
      ],
      "name": "addUserToWhitelist",
      "outputs": [],
      "stateMutability": "nonpayable",
      "type": "function"
    },
    {
      "inputs": [
        {
          "internalType": "uint256",
          "name": "",
          "type": "uint256"
        }
      ],
      "name": "allowedTokens",
      "outputs": [
        {
          "internalType": "address",
          "name": "",
          "type": "address"
        }
      ],
      "stateMutability": "view",
      "type": "function",
      "constant": true
    },
    {
      "inputs": [],
      "name": "creationBlockNumber",
      "outputs": [
        {
          "internalType": "uint256",
          "name": "",
          "type": "uint256"
        }
      ],
      "stateMutability": "view",
      "type": "function",
      "constant": true
    },
    {
      "inputs": [],
      "name": "cumulatedDevaluation",
      "outputs": [
        {
          "internalType": "uint256",
          "name": "",
          "type": "uint256"
        }
      ],
      "stateMutability": "view",
      "type": "function",
      "constant": true
    },
    {
      "inputs": [
        {
          "internalType": "address",
          "name": "",
          "type": "address"
        }
      ],
      "name": "dpTokenRegistry",
      "outputs": [
        {
          "internalType": "contract ERC20PresetMinterPauser",
          "name": "",
          "type": "address"
        }
      ],
      "stateMutability": "view",
      "type": "function",
      "constant": true
    },
    {
      "inputs": [],
      "name": "dslaTokenAddress",
      "outputs": [
        {
          "internalType": "address",
          "name": "",
          "type": "address"
        }
      ],
      "stateMutability": "view",
      "type": "function",
      "constant": true
    },
    {
      "inputs": [
        {
          "internalType": "address",
          "name": "",
          "type": "address"
        }
      ],
      "name": "duTokenRegistry",
      "outputs": [
        {
          "internalType": "contract ERC20PresetMinterPauser",
          "name": "",
          "type": "address"
        }
      ],
      "stateMutability": "view",
      "type": "function",
      "constant": true
    },
    {
      "inputs": [
        {
          "internalType": "uint256",
          "name": "",
          "type": "uint256"
        }
      ],
      "name": "extraData",
      "outputs": [
        {
          "internalType": "bytes32",
          "name": "",
          "type": "bytes32"
        }
      ],
      "stateMutability": "view",
      "type": "function",
      "constant": true
    },
    {
      "inputs": [],
      "name": "getAllowedTokensLength",
      "outputs": [
        {
          "internalType": "uint256",
          "name": "",
          "type": "uint256"
        }
      ],
      "stateMutability": "view",
      "type": "function",
      "constant": true
    },
    {
      "inputs": [
        {
          "internalType": "address",
          "name": "_staker",
          "type": "address"
        },
        {
          "internalType": "uint256",
          "name": "_allowedTokenIndex",
          "type": "uint256"
        }
      ],
      "name": "getTokenStake",
      "outputs": [
        {
          "internalType": "address",
          "name": "tokenAddress",
          "type": "address"
        },
        {
          "internalType": "uint256",
          "name": "stake",
          "type": "uint256"
        }
      ],
      "stateMutability": "view",
      "type": "function",
      "constant": true
    },
    {
      "inputs": [],
      "name": "ipfsHash",
      "outputs": [
        {
          "internalType": "string",
          "name": "",
          "type": "string"
        }
      ],
      "stateMutability": "view",
      "type": "function",
      "constant": true
    },
    {
      "inputs": [
        {
          "internalType": "address",
          "name": "_tokenAddress",
          "type": "address"
        }
      ],
      "name": "isAllowedToken",
      "outputs": [
        {
          "internalType": "bool",
          "name": "",
          "type": "bool"
        }
      ],
      "stateMutability": "view",
      "type": "function",
      "constant": true
    },
    {
      "inputs": [
        {
          "internalType": "address",
          "name": "_staker",
          "type": "address"
        }
      ],
      "name": "isStaker",
      "outputs": [
        {
          "internalType": "bool",
          "name": "",
          "type": "bool"
        }
      ],
      "stateMutability": "view",
      "type": "function",
      "constant": true
    },
    {
      "inputs": [],
      "name": "messengerAddress",
      "outputs": [
        {
          "internalType": "address",
          "name": "",
          "type": "address"
        }
      ],
      "stateMutability": "view",
      "type": "function",
      "constant": true
    },
    {
      "inputs": [],
      "name": "minimumDSLAStakedTier1",
      "outputs": [
        {
          "internalType": "uint256",
          "name": "",
          "type": "uint256"
        }
      ],
      "stateMutability": "view",
      "type": "function",
      "constant": true
    },
    {
      "inputs": [],
      "name": "minimumDSLAStakedTier2",
      "outputs": [
        {
          "internalType": "uint256",
          "name": "",
          "type": "uint256"
        }
      ],
      "stateMutability": "view",
      "type": "function",
      "constant": true
    },
    {
      "inputs": [],
      "name": "minimumDSLAStakedTier3",
      "outputs": [
        {
          "internalType": "uint256",
          "name": "",
          "type": "uint256"
        }
      ],
      "stateMutability": "view",
      "type": "function",
      "constant": true
    },
    {
      "inputs": [],
      "name": "owner",
      "outputs": [
        {
          "internalType": "address",
          "name": "",
          "type": "address"
        }
      ],
      "stateMutability": "view",
      "type": "function",
      "constant": true
    },
    {
      "inputs": [
        {
          "internalType": "uint256",
          "name": "",
          "type": "uint256"
        }
      ],
      "name": "periodIds",
      "outputs": [
        {
          "internalType": "uint256",
          "name": "",
          "type": "uint256"
        }
      ],
      "stateMutability": "view",
      "type": "function",
      "constant": true
    },
    {
      "inputs": [],
      "name": "periodRegistry",
      "outputs": [
        {
          "internalType": "contract PeriodRegistry",
          "name": "",
          "type": "address"
        }
      ],
      "stateMutability": "view",
      "type": "function",
      "constant": true
    },
    {
      "inputs": [
        {
          "internalType": "uint256",
          "name": "",
          "type": "uint256"
        }
      ],
      "name": "periodSLIs",
      "outputs": [
        {
          "internalType": "uint256",
          "name": "timestamp",
          "type": "uint256"
        },
        {
          "internalType": "uint256",
          "name": "sli",
          "type": "uint256"
        },
        {
          "internalType": "enum SLA.Status",
          "name": "status",
          "type": "uint8"
        }
      ],
      "stateMutability": "view",
      "type": "function",
      "constant": true
    },
    {
      "inputs": [],
      "name": "periodType",
      "outputs": [
        {
          "internalType": "enum PeriodRegistry.PeriodType",
          "name": "",
          "type": "uint8"
        }
      ],
      "stateMutability": "view",
      "type": "function",
      "constant": true
    },
    {
      "inputs": [
        {
          "internalType": "address",
          "name": "",
          "type": "address"
        }
      ],
      "name": "providerPool",
      "outputs": [
        {
          "internalType": "uint256",
          "name": "",
          "type": "uint256"
        }
      ],
      "stateMutability": "view",
      "type": "function",
      "constant": true
    },
    {
      "inputs": [
        {
          "internalType": "address",
          "name": "_userAddress",
          "type": "address"
        }
      ],
      "name": "removeUserFromWhitelist",
      "outputs": [],
      "stateMutability": "nonpayable",
      "type": "function"
    },
    {
      "inputs": [],
      "name": "renounceOwnership",
      "outputs": [],
      "stateMutability": "nonpayable",
      "type": "function"
    },
    {
      "inputs": [],
      "name": "slaID",
      "outputs": [
        {
          "internalType": "uint256",
          "name": "",
          "type": "uint256"
        }
      ],
      "stateMutability": "view",
      "type": "function",
      "constant": true
    },
    {
      "inputs": [],
      "name": "slaPeriodsLength",
      "outputs": [
        {
          "internalType": "uint256",
          "name": "",
          "type": "uint256"
        }
      ],
      "stateMutability": "view",
      "type": "function",
      "constant": true
    },
    {
      "inputs": [],
      "name": "slaRegistry",
      "outputs": [
        {
          "internalType": "contract SLARegistry",
          "name": "",
          "type": "address"
        }
      ],
      "stateMutability": "view",
      "type": "function",
      "constant": true
    },
    {
      "inputs": [],
      "name": "slo",
      "outputs": [
        {
          "internalType": "contract SLO",
          "name": "",
          "type": "address"
        }
      ],
      "stateMutability": "view",
      "type": "function",
      "constant": true
    },
    {
      "inputs": [
        {
          "internalType": "uint256",
          "name": "",
          "type": "uint256"
        }
      ],
      "name": "stakers",
      "outputs": [
        {
          "internalType": "address",
          "name": "",
          "type": "address"
        }
      ],
      "stateMutability": "view",
      "type": "function",
      "constant": true
    },
    {
      "inputs": [
        {
          "internalType": "address",
          "name": "newOwner",
          "type": "address"
        }
      ],
      "name": "transferOwnership",
      "outputs": [],
      "stateMutability": "nonpayable",
      "type": "function"
    },
    {
      "inputs": [
        {
          "internalType": "address",
          "name": "",
          "type": "address"
        }
      ],
      "name": "usersPool",
      "outputs": [
        {
          "internalType": "uint256",
          "name": "",
          "type": "uint256"
        }
      ],
      "stateMutability": "view",
      "type": "function",
      "constant": true
    },
    {
      "inputs": [
        {
          "internalType": "address",
          "name": "",
          "type": "address"
        }
      ],
      "name": "whitelist",
      "outputs": [
        {
          "internalType": "bool",
          "name": "",
          "type": "bool"
        }
      ],
      "stateMutability": "view",
      "type": "function",
      "constant": true
    },
    {
      "inputs": [],
      "name": "whitelistedContract",
      "outputs": [
        {
          "internalType": "bool",
          "name": "",
          "type": "bool"
        }
      ],
      "stateMutability": "view",
      "type": "function",
      "constant": true
    },
    {
      "inputs": [
        {
          "internalType": "uint256",
          "name": "_sli",
          "type": "uint256"
        },
        {
          "internalType": "uint256",
          "name": "_periodId",
          "type": "uint256"
        }
      ],
      "name": "registerSLI",
      "outputs": [],
      "stateMutability": "nonpayable",
      "type": "function"
    },
    {
      "inputs": [
        {
          "internalType": "uint256",
          "name": "_periodId",
          "type": "uint256"
        }
      ],
      "name": "isAllowedPeriod",
      "outputs": [
        {
          "internalType": "bool",
          "name": "",
          "type": "bool"
        }
      ],
      "stateMutability": "view",
      "type": "function",
      "constant": true
    },
    {
      "inputs": [
        {
          "internalType": "uint256",
          "name": "_amount",
          "type": "uint256"
        },
        {
          "internalType": "address",
          "name": "_token",
          "type": "address"
        }
      ],
      "name": "stakeTokens",
      "outputs": [],
      "stateMutability": "nonpayable",
      "type": "function"
    },
    {
      "inputs": [
        {
          "internalType": "uint256",
          "name": "_amount",
          "type": "uint256"
        },
        {
          "internalType": "address",
          "name": "_tokenAddress",
          "type": "address"
        }
      ],
      "name": "withdrawStakedTokens",
      "outputs": [],
      "stateMutability": "nonpayable",
      "type": "function"
    },
    {
      "inputs": [
        {
          "internalType": "address",
          "name": "_tokenAddress",
          "type": "address"
        }
      ],
      "name": "claimUserCompensation",
      "outputs": [],
      "stateMutability": "nonpayable",
      "type": "function"
    },
    {
      "inputs": [],
      "name": "getPeriodIdsLength",
      "outputs": [
        {
          "internalType": "uint256",
          "name": "",
          "type": "uint256"
        }
      ],
      "stateMutability": "view",
      "type": "function",
      "constant": true
    },
    {
      "inputs": [],
      "name": "getStakersLength",
      "outputs": [
        {
          "internalType": "uint256",
          "name": "",
          "type": "uint256"
        }
      ],
      "stateMutability": "view",
      "type": "function",
      "constant": true
    },
    {
      "inputs": [],
      "name": "breachedContract",
      "outputs": [
        {
          "internalType": "bool",
          "name": "",
          "type": "bool"
        }
      ],
      "stateMutability": "view",
      "type": "function",
      "constant": true
    }
  ],
  "bytecode": "0x6080604052603c600855620f4240600955601e805460ff191690553480156200002757600080fd5b5060405162003933380380620039338339810160408190526200004a91620006d4565b848487895186856000620000636200034860201b60201c565b600080546001600160a01b0319166001600160a01b03831690811782556040519293509160008051602062003913833981519152908290a350600180546001600160a01b038089166001600160a01b0319928316178355600280549189169190921617905560118054869260ff1990911690836005811115620000e257fe5b021790555060128390556013805460ff191683151517905560015460408051637b8041cf60e11b815290516000928392839283926001600160a01b03169163f700839e916004808301926080929190829003018186803b1580156200014657600080fd5b505afa1580156200015b573d6000803e3d6000fd5b505050506040513d601f19601f8201168201806040525081019062000181919062000805565b9350935093509350600160009054906101000a90046001600160a01b03166001600160a01b0316638b8e53096040518163ffffffff1660e01b815260040160206040518083038186803b158015620001d857600080fd5b505afa158015620001ed573d6000803e3d6000fd5b505050506040513d601f19601f82011682018060405250810190620002139190620006ae565b600b80546001600160a01b0319166001600160a01b0392909216919091179055600d849055600e839055600f829055601081905562000252336200034c565b505050600391909155506200026f94508f935050620003ef915050565b8851620002849060169060208c01906200049c565b50601a80546001600160a01b03808b166001600160a01b03199283161790925560198054909116331790556017805491861661010002610100600160a81b031990921691909117905543601c558651620002e69060189060208a019062000521565b506017805487919060ff191660018360058111156200030157fe5b0217905550601580546001600160a01b0319166001600160a01b038c1617905581516200033690601d90602085019062000521565b5050505050505050505050506200094d565b3390565b6200035662000348565b6000546001600160a01b039081169116146200038f5760405162461bcd60e51b81526004016200038690620008b8565b60405180910390fd5b6001600160a01b03811660009081526014602052604090205460ff1615620003cb5760405162461bcd60e51b815260040162000386906200083b565b6001600160a01b03166000908152601460205260409020805460ff19166001179055565b620003f962000348565b6000546001600160a01b03908116911614620004295760405162461bcd60e51b81526004016200038690620008b8565b6001600160a01b038116620004525760405162461bcd60e51b8152600401620003869062000872565b600080546040516001600160a01b03808516939216916000805160206200391383398151915291a3600080546001600160a01b0319166001600160a01b0392909216919091179055565b828054600181600116156101000203166002900490600052602060002090601f016020900481019282601f10620004df57805160ff19168380011785556200050f565b828001600101855582156200050f579182015b828111156200050f578251825591602001919060010190620004f2565b506200051d9291506200055e565b5090565b8280548282559060005260206000209081019282156200050f57916020028201828111156200050f578251825591602001919060010190620004f2565b5b808211156200051d57600081556001016200055f565b8051620005828162000934565b92915050565b600082601f83011262000599578081fd5b8151620005b0620005aa8262000914565b620008ed565b818152915060208083019084810181840286018201871015620005d257600080fd5b60005b84811015620005f357815184529282019290820190600101620005d5565b505050505092915050565b805180151581146200058257600080fd5b8051600681106200058257600080fd5b600082601f83011262000630578081fd5b81516001600160401b0381111562000646578182fd5b60206200065c601f8301601f19168201620008ed565b925081835284818386010111156200067357600080fd5b60005b828110156200069357848101820151848201830152810162000676565b82811115620006a55760008284860101525b50505092915050565b600060208284031215620006c0578081fd5b8151620006cd8162000934565b9392505050565b60008060008060008060008060008060006101608c8e031215620006f6578687fd5b620007028d8d62000575565b9a50620007138d60208e0162000575565b60408d0151909a506001600160401b038111156200072f578788fd5b6200073d8e828f016200061f565b9950506200074f8d60608e0162000575565b60808d01519098506001600160401b038111156200076b578788fd5b620007798e828f0162000588565b9750506200078b8d60a08e016200060f565b95506200079c8d60c08e0162000575565b9450620007ad8d60e08e0162000575565b9350620007bf8d6101008e01620005fe565b6101208d01519093506001600160401b03811115620007dc578283fd5b620007ea8e828f0162000588565b9250506101408c015190509295989b509295989b9093969950565b600080600080608085870312156200081b578384fd5b505082516020840151604085015160609095015191969095509092509050565b60208082526018908201527f5573657220616c72656164792077686974656c69737465640000000000000000604082015260600190565b60208082526026908201527f4f776e61626c653a206e6577206f776e657220697320746865207a65726f206160408201526564647265737360d01b606082015260800190565b6020808252818101527f4f776e61626c653a2063616c6c6572206973206e6f7420746865206f776e6572604082015260600190565b6040518181016001600160401b03811182821017156200090c57600080fd5b604052919050565b60006001600160401b038211156200092a578081fd5b5060209081020190565b6001600160a01b03811681146200094a57600080fd5b50565b612fb6806200095d6000396000f3fe608060405234801561001057600080fd5b506004361061027f5760003560e01c8063715018a61161015c578063b7bc347e116100ce578063ee575c2811610087578063ee575c2814610501578063f2db10fe14610509578063f2fde38b14610511578063f7e9dfff14610524578063f9902bb11461052c578063fd5e6dd11461053f5761027f565b8063b7bc347e146104ae578063c623674f146104b6578063cbe230c3146104cb578063cd92890e146104de578063d7a5c422146104e6578063db69a462146104f95761027f565b80638da5cb5b116101205780638da5cb5b146104735780639b19251a1461047b5780639fabeb001461048e5780639fc4caa514610496578063a224ee9c1461049e578063b18ac918146104a65761027f565b8063715018a614610435578063747b80501461043d57806378025ec4146104505780637fd788aa146104635780638d4f567d1461046b5761027f565b806346e0fbae116101f557806357ac94f0116101b957806357ac94f0146103cb5780635c1c20de146103ec5780635e5f2e26146103f45780635fc1b5fd14610407578063639b6fc31461040f5780636f1e8533146104225761027f565b806346e0fbae1461035d578063484fbf2b146103725780634e0c91f6146103855780634fb2647e146103a5578063524f0735146103b85761027f565b806318e454271161024757806318e45427146102fd5780631bf30929146103055780631fc2cd931461030d57806327cd727c146103205780632eb8197a146103335780634190edde1461033b5761027f565b8063021eef7f146102845780630ae9ea45146102ad5780630bea440d146102cd5780630c5160f4146102e2578063171e44ea146102ea575b600080fd5b6102976102923660046126bc565b610552565b6040516102a49190612907565b60405180910390f35b6102c06102bb3660046126bc565b61059c565b6040516102a49190612912565b6102e06102db3660046126ec565b6105ba565b005b6102c0610714565b6102e06102f836600461259e565b61071a565b610297610ae3565b6102c0610aec565b6102e061031b36600461259e565b610af2565b6102e061032e3660046126ec565b610d5a565b6102c0610eb2565b61034e6103493660046126bc565b610eb8565b6040516102a493929190612ef8565b610365610edc565b6040516102a4919061291b565b6102c061038036600461259e565b610ee5565b61039861039336600461259e565b610ef7565b6040516102a491906128b6565b6103986103b336600461259e565b610f12565b6102e06103c636600461259e565b610f2d565b6103de6103d93660046125d6565b610f39565b6040516102a49291906128ca565b6102c0611100565b6103986104023660046126bc565b611106565b6102c061112d565b6102c061041d36600461259e565b611133565b61029761043036600461259e565b611145565b6102e0611197565b6102e061044b36600461259e565b611216565b6102c061045e3660046126bc565b6112a8565b6102976112b5565b6102c06112be565b6103986112c4565b61029761048936600461259e565b6112d3565b6102c06112e8565b6103986112ee565b610398611302565b6102c0611311565b6102c0611317565b6104be61131d565b6040516102a4919061294c565b6102976104d936600461259e565b6113ab565b6103986113fd565b6102e06104f436600461271b565b61140c565b6103986116c8565b6102c06116d7565b6102c06116dd565b6102e061051f36600461259e565b6116e3565b610398611799565b6102e061053a36600461259e565b6117a8565b61039861054d3660046126bc565b61183b565b6000805b60185481101561059157826018828154811061056e57fe5b90600052602060002001541415610589576001915050610597565b600101610556565b50600090505b919050565b601881815481106105a957fe5b600091825260209091200154905081565b600082116105e35760405162461bcd60e51b81526004016105da90612db8565b60405180910390fd5b601e5460ff16156106065760405162461bcd60e51b81526004016105da90612d0c565b6106108282611848565b60195460408051636830483560e01b815290516000926001600160a01b0316916368304835916004808301926020929190829003018186803b15801561065557600080fd5b505afa158015610669573d6000803e3d6000fd5b505050506040513d601f19601f8201168201806040525081019061068d91906125ba565b604051635948284760e11b81529091506001600160a01b0382169063b290508e906106bc9033906004016128b6565b602060405180830381600087803b1580156106d657600080fd5b505af11580156106ea573d6000803e3d6000fd5b505050506040513d601f19601f8201168201806040525081019061070e9190612601565b50505050565b60125481565b610722611c28565b6000546001600160a01b0390811691161461074f5760405162461bcd60e51b81526004016105da90612cd7565b610758816113ab565b156107755760405162461bcd60e51b81526004016105da90612d54565b60015460405163cbe230c360e01b81526001600160a01b039091169063cbe230c3906107a59084906004016128b6565b60206040518083038186803b1580156107bd57600080fd5b505afa1580156107d1573d6000803e3d6000fd5b505050506040513d601f19601f820116820180604052508101906107f59190612601565b15156001146108165760405162461bcd60e51b81526004016105da90612abb565b600c80546001810182556000919091527fdf6966c971051c3d54ec59162606531493a51404a002842f56009d7e5cf4a8c70180546001600160a01b0319166001600160a01b03831617905560035460609061087090611c2c565b90506060826001600160a01b03166395d89b416040518163ffffffff1660e01b815260040160006040518083038186803b1580156108ad57600080fd5b505afa1580156108c1573d6000803e3d6000fd5b505050506040513d6000823e601f3d908101601f191682016040526108e99190810190612621565b905060608183604051602001610900929190612864565b6040516020818303038152906040529050606082846040516020016109269291906127a7565b60405160208183030381529060405290506060838560405160200161094c9291906127f1565b604051602081830303815290604052905060608486604051602001610972929190612847565b60408051601f1981840301815290829052600154633350214760e11b83529092506000916001600160a01b03909116906366a0428e906109b8908890889060040161295f565b602060405180830381600087803b1580156109d257600080fd5b505af11580156109e6573d6000803e3d6000fd5b505050506040513d601f19601f82011682018060405250810190610a0a91906125ba565b600154604051633350214760e11b81529192506000916001600160a01b03909116906366a0428e90610a42908790879060040161295f565b602060405180830381600087803b158015610a5c57600080fd5b505af1158015610a70573d6000803e3d6000fd5b505050506040513d601f19601f82011682018060405250810190610a9491906125ba565b6001600160a01b03998a1660009081526007602090815260408083208054948e166001600160a01b031995861617905560069091529020805493909a1692169190911790975550505050505050565b60135460ff1681565b601c5481565b610afa6112c4565b6001600160a01b0316336001600160a01b03161415610b2b5760405162461bcd60e51b81526004016105da90612ea5565b60135460ff16151560011415610b6f573360009081526014602052604090205460ff161515600114610b6f5760405162461bcd60e51b81526004016105da90612baa565b6001600160a01b038082166000908152600660205260408082205490516370a0823160e01b815292169182906370a0823190610baf9033906004016128b6565b60206040518083038186803b158015610bc757600080fd5b505afa158015610bdb573d6000803e3d6000fd5b505050506040513d601f19601f82011682018060405250810190610bff91906126d4565b90506000826001600160a01b03166318160ddd6040518163ffffffff1660e01b815260040160206040518083038186803b158015610c3c57600080fd5b505afa158015610c50573d6000803e3d6000fd5b505050506040513d601f19601f82011682018060405250810190610c7491906126d4565b905061271082610c965760405162461bcd60e51b81526004016105da90612b4d565b6000610cac83610ca68685611d07565b90611d4a565b6001600160a01b03871660009081526005602052604081205491925090610cd9908490610ca69085611d07565b60405163079cc67960e41b81529091506001600160a01b038716906379cc679090610d0a90339089906004016128ca565b600060405180830381600087803b158015610d2457600080fd5b505af1158015610d38573d6000803e3d6000fd5b50610d51925050506001600160a01b0388163383611d8c565b50505050505050565b60008211610d7a5760405162461bcd60e51b81526004016105da90612db8565b60188054600091906000198101908110610d9057fe5b600091825260208220015460175460405160016259edcb60e01b031981529193506001600160a01b036101008204169163ffa6123591610dda9160ff909116908690600401612930565b604080518083038186803b158015610df157600080fd5b505afa158015610e05573d6000803e3d6000fd5b505050506040513d601f19601f82011682018060405250810190610e29919061273c565b915050610e346112c4565b6001600160a01b0316336001600160a01b031614610ea857601e5460ff16151560011480610e8c5750804210158015610e8c57506000828152601b6020526040812060029081015460ff1690811115610e8957fe5b14155b610ea85760405162461bcd60e51b81526004016105da906129bf565b61070e8484611de2565b60105481565b601b6020526000908152604090208054600182015460029092015490919060ff1683565b60175460ff1681565b60056020526000908152604090205481565b6006602052600090815260409020546001600160a01b031681565b6007602052600090815260409020546001600160a01b031681565b610f3681610af2565b50565b6000806000600c8481548110610f4b57fe5b6000918252602090912001546001600160a01b03169050610f6a6112c4565b6001600160a01b0316856001600160a01b03161415610fa6576001600160a01b03811660009081526004602052604090205490925090506110f9565b6001600160a01b038082166000908152600660205260408082205490516370a0823160e01b815292169182906370a0823190610fe69033906004016128b6565b60206040518083038186803b158015610ffe57600080fd5b505afa158015611012573d6000803e3d6000fd5b505050506040513d601f19601f8201168201806040525081019061103691906126d4565b90506000826001600160a01b03166318160ddd6040518163ffffffff1660e01b815260040160206040518083038186803b15801561107357600080fd5b505afa158015611087573d6000803e3d6000fd5b505050506040513d601f19601f820116820180604052508101906110ab91906126d4565b905061271060006110c083610ca68685611d07565b6001600160a01b03871660009081526005602052604090205490915086906110ee908490610ca69085611d07565b975097505050505050505b9250929050565b600d5481565b600c818154811061111357fe5b6000918252602090912001546001600160a01b0316905081565b60185490565b60046020526000908152604090205481565b6000805b600a5481101561059157826001600160a01b0316600a828154811061116a57fe5b6000918252602090912001546001600160a01b0316141561118f576001915050610597565b600101611149565b61119f611c28565b6000546001600160a01b039081169116146111cc5760405162461bcd60e51b81526004016105da90612cd7565b600080546040516001600160a01b03909116907f8be0079c531659141344cd1fd0a4f28419497f9722a3daafe3b4186f6b6457e0908390a3600080546001600160a01b0319169055565b61121e611c28565b6000546001600160a01b0390811691161461124b5760405162461bcd60e51b81526004016105da90612cd7565b6001600160a01b03811660009081526014602052604090205460ff16156112845760405162461bcd60e51b81526004016105da9061298d565b6001600160a01b03166000908152601460205260409020805460ff19166001179055565b601d81815481106105a957fe5b601e5460ff1690565b60085481565b6000546001600160a01b031690565b60146020526000908152604090205460ff1681565b600a5490565b60175461010090046001600160a01b031681565b601a546001600160a01b031681565b600f5481565b600c5490565b6016805460408051602060026001851615610100026000190190941693909304601f810184900484028201840190925281815292918301828280156113a35780601f10611378576101008083540402835291602001916113a3565b820191906000526020600020905b81548152906001019060200180831161138657829003601f168201915b505050505081565b6000805b600c5481101561059157826001600160a01b0316600c82815481106113d057fe5b6000918252602090912001546001600160a01b031614156113f5576001915050610597565b6001016113af565b6015546001600160a01b031681565b601a546001600160a01b031633146114365760405162461bcd60e51b81526004016105da90612b08565b7fc95987c1992805ee34bdc915e017cceae36ba1c156b9911fa7e691e6435eb46e42838360405161146993929190612f1e565b60405180910390a16000818152601b60209081526040808320600181018690554281556015548251633fa4f24560e01b815292519194936001600160a01b0390911692633fa4f2459260048083019392829003018186803b1580156114cd57600080fd5b505afa1580156114e1573d6000803e3d6000fd5b505050506040513d601f19601f8201168201806040525081019061150591906126d4565b6015546040516303c8f2e360e21b81529192506001600160a01b031690630f23cb8c90611536908790600401612912565b60206040518083038186803b15801561154e57600080fd5b505afa158015611562573d6000803e3d6000fd5b505050506040513d601f19601f820116820180604052508101906115869190612601565b15611663576002828101805460ff19166001179055612710906000906115c8906115b490610ca68987611fc6565b610ca6846115c28a88611feb565b90611d07565b9050600061160260016115fc60186000815481106115e257fe5b906000526020600020015489611feb90919063ffffffff16565b90611fc6565b60188054919250600091600019810190811061161a57fe5b906000526020600020015487141561163c57611637600185611d07565b61164d565b60185461164d90610ca68585611d07565b905061165a87828661202d565b5050505061070e565b6002828101805460ff1916909117905561167b612193565b601e805460ff191660011790556040517fbd33f7a3bfa88a467c9df5ae7d2341cf061084c386b20a0d48130f5cbce38a4d906116ba9085908790612eea565b60405180910390a150505050565b6019546001600160a01b031681565b600e5481565b60035481565b6116eb611c28565b6000546001600160a01b039081169116146117185760405162461bcd60e51b81526004016105da90612cd7565b6001600160a01b03811661173e5760405162461bcd60e51b81526004016105da90612a3e565b600080546040516001600160a01b03808516939216917f8be0079c531659141344cd1fd0a4f28419497f9722a3daafe3b4186f6b6457e091a3600080546001600160a01b0319166001600160a01b0392909216919091179055565b600b546001600160a01b031681565b6117b0611c28565b6000546001600160a01b039081169116146117dd5760405162461bcd60e51b81526004016105da90612cd7565b6001600160a01b03811660009081526014602052604090205460ff16151560011461181a5760405162461bcd60e51b81526004016105da90612de4565b6001600160a01b03166000908152601460205260409020805460ff19169055565b600a818154811061111357fe5b80611852816113ab565b15156001146118735760405162461bcd60e51b81526004016105da90612ca9565b60135460ff161515600114156118b7573360009081526014602052604090205460ff1615156001146118b75760405162461bcd60e51b81526004016105da90612baa565b6118cc6001600160a01b038316333086612278565b6118d46112c4565b6001600160a01b0316336001600160a01b031614611a0f576001600160a01b0382166000908152600460209081526040808320546005909252909120548161191c8287611fc6565b111561193a5760405162461bcd60e51b81526004016105da90612e12565b6001600160a01b03841660009081526005602052604090205461195d9086611fc6565b6001600160a01b03851660009081526005602052604081209190915560085460095461198f9190610ca6908990611d07565b6001600160a01b03808716600090815260066020526040908190205490516340c10f1960e01b8152929350169081906340c10f19906119d490339086906004016128ca565b600060405180830381600087803b1580156119ee57600080fd5b505af1158015611a02573d6000803e3d6000fd5b5050505050505050611bd3565b6001600160a01b0380831660009081526007602090815260408083205481516318160ddd60e01b8152915194169384926318160ddd9260048082019391829003018186803b158015611a6057600080fd5b505afa158015611a74573d6000803e3d6000fd5b505050506040513d601f19601f82011682018060405250810190611a9891906126d4565b6001600160a01b03851660009081526004602052604090205490915081611b1e576040516340c10f1960e01b81526001600160a01b038416906340c10f1990611ae79033908a906004016128ca565b600060405180830381600087803b158015611b0157600080fd5b505af1158015611b15573d6000803e3d6000fd5b50505050611b93565b6000611b2e82610ca68986611d07565b6040516340c10f1960e01b81529091506001600160a01b038516906340c10f1990611b5f90339085906004016128ca565b600060405180830381600087803b158015611b7957600080fd5b505af1158015611b8d573d6000803e3d6000fd5b50505050505b6001600160a01b038516600090815260046020526040902054611bb69087611fc6565b6001600160a01b0386166000908152600460205260409020555050505b611bdc33611145565b611c2357600a80546001810182556000919091527fc65a7bb8d6351c1cf70c95a316cc6a92839c986682d98bc35f958f4883f9d2a80180546001600160a01b031916331790555b505050565b3390565b60608180611c535750506040805180820190915260018152600360fc1b6020820152610597565b8060005b8115611c6b57600101600a82049150611c57565b60608167ffffffffffffffff81118015611c8457600080fd5b506040519080825280601f01601f191660200182016040528015611caf576020820181803683370190505b50905060001982015b8415611cfd57600a850660300160f81b82828060019003935081518110611cdb57fe5b60200101906001600160f81b031916908160001a905350600a85049450611cb8565b5095945050505050565b600082611d1657506000611d44565b82820282848281611d2357fe5b0414611d415760405162461bcd60e51b81526004016105da90612c68565b90505b92915050565b6000611d4183836040518060400160405280601a81526020017f536166654d6174683a206469766973696f6e206279207a65726f000000000000815250612299565b611c238363a9059cbb60e01b8484604051602401611dab9291906128ca565b60408051601f198184030181529190526020810180516001600160e01b03166001600160e01b0319909316929092179091526122d0565b80611dec816113ab565b1515600114611e0d5760405162461bcd60e51b81526004016105da90612ca9565b6001600160a01b03821660009081526004602090815260408083205460059092529091205480611e3d8387611feb565b1015611e5b5760405162461bcd60e51b81526004016105da90612bdb565b6001600160a01b0380851660009081526007602090815260408083205481516318160ddd60e01b8152915194169384926318160ddd9260048082019391829003018186803b158015611eac57600080fd5b505afa158015611ec0573d6000803e3d6000fd5b505050506040513d601f19601f82011682018060405250810190611ee491906126d4565b6001600160a01b038716600090815260046020526040812054919250611f0e82610ca68b86611d07565b60405163079cc67960e41b81529091506001600160a01b038516906379cc679090611f3f90339085906004016128ca565b600060405180830381600087803b158015611f5957600080fd5b505af1158015611f6d573d6000803e3d6000fd5b5050506001600160a01b038916600090815260046020526040902054611f9491508a611feb565b6001600160a01b038916600081815260046020526040902091909155611fbb90338b611d8c565b505050505050505050565b600082820183811015611d415760405162461bcd60e51b81526004016105da90612a84565b6000611d4183836040518060400160405280601e81526020017f536166654d6174683a207375627472616374696f6e206f766572666c6f77000081525061235f565b60005b600c54811015612170576000600c828154811061204957fe5b60009182526020808320909101546001600160a01b0316808352600590915260408220549092509061207f85610ca68489611d07565b6001600160a01b0384166000908152600560205260409020549091506120a59082611feb565b6001600160a01b03808516600081815260056020526040902092909255600b541614156120e75760006120d78261238b565b90506120e38282611feb565b9150505b6001600160a01b03831660009081526004602052604090205461210a9082611fc6565b6001600160a01b0384166000818152600460205260409081902092909255905188907f3173c1c4b679e2da86dbb0382bde749a6e16cd31912c5410e17985cd7d2b90529061215d908a908a908790612f1e565b60405180910390a3505050600101612030565b5061218b81610ca66121828286611feb565b60085490611d07565b600855505050565b60005b600c54811015610f36576000600c82815481106121af57fe5b60009182526020808320909101546001600160a01b0316808352600582526040808420546004909352909220549192509081906121ec9082611feb565b6001600160a01b03808516600081815260046020526040902092909255600b5416141561222e57600061221e8261238b565b905061222a8282611feb565b9150505b6001600160a01b0383166000908152600560205260409020546122519082611fc6565b6001600160a01b039093166000908152600560205260409020929092555050600101612196565b61070e846323b872dd60e01b858585604051602401611dab939291906128e3565b600081836122ba5760405162461bcd60e51b81526004016105da919061294c565b5060008385816122c657fe5b0495945050505050565b6060612325826040518060400160405280602081526020017f5361666545524332303a206c6f772d6c6576656c2063616c6c206661696c6564815250856001600160a01b03166124bd9092919063ffffffff16565b805190915015611c2357808060200190518101906123439190612601565b611c235760405162461bcd60e51b81526004016105da90612e5b565b600081848411156123835760405162461bcd60e51b81526004016105da919061294c565b505050900390565b60408051808201909152600d8082526c6275726e2875696e743235362960981b602090920191909152546000907f42966c689b5afe9b9b3f8a7103b2a19980d59629bfd6a20a60972312ed41d836906123ed906103e890610ca6908690611d07565b600b546040519193506000916001600160a01b03909116908390612415908690602401612912565b60408051601f198184030181529181526020820180516001600160e01b03166001600160e01b0319909416939093179092529051612453919061278b565b6000604051808303816000865af19150503d8060008114612490576040519150601f19603f3d011682016040523d82523d6000602084013e612495565b606091505b50509050806124b65760405162461bcd60e51b81526004016105da90612c24565b5050919050565b60606124cc84846000856124d4565b949350505050565b60606124df85612598565b6124fb5760405162461bcd60e51b81526004016105da90612d81565b60006060866001600160a01b03168587604051612518919061278b565b60006040518083038185875af1925050503d8060008114612555576040519150601f19603f3d011682016040523d82523d6000602084013e61255a565b606091505b5091509150811561256e5791506124cc9050565b80511561257e5780518082602001fd5b8360405162461bcd60e51b81526004016105da919061294c565b3b151590565b6000602082840312156125af578081fd5b8135611d4181612f6b565b6000602082840312156125cb578081fd5b8151611d4181612f6b565b600080604083850312156125e8578081fd5b82356125f381612f6b565b946020939093013593505050565b600060208284031215612612578081fd5b81518015158114611d41578182fd5b600060208284031215612632578081fd5b815167ffffffffffffffff80821115612649578283fd5b818401915084601f83011261265c578283fd5b81518181111561266a578384fd5b604051601f8201601f19168101602001838111828210171561268a578586fd5b6040528181528382016020018710156126a1578485fd5b6126b2826020830160208701612f3f565b9695505050505050565b6000602082840312156126cd578081fd5b5035919050565b6000602082840312156126e5578081fd5b5051919050565b600080604083850312156126fe578182fd5b82359150602083013561271081612f6b565b809150509250929050565b6000806040838503121561272d578182fd5b50508035926020909101359150565b6000806040838503121561274e578182fd5b505080516020909101519092909150565b60008151808452612777816020860160208601612f3f565b601f01601f19169290920160200192915050565b6000825161279d818460208701612f3f565b9190910192915050565b600061647560f01b825283516127c4816002850160208801612f3f565b602d60f81b60029184019182015283516127e5816003840160208801612f3f565b01600301949350505050565b60006d44534c412d50524f56494445522d60901b8252835161281a81600e850160208801612f3f565b602d60f81b600e91840191820152835161283b81600f840160208801612f3f565b01600f01949350505050565b600061064760f41b825283516127c4816002850160208801612f3f565b60006944534c412d555345522d60b01b8252835161288981600a850160208801612f3f565b602d60f81b600a9184019182015283516128aa81600b840160208801612f3f565b01600b01949350505050565b6001600160a01b0391909116815260200190565b6001600160a01b03929092168252602082015260400190565b6001600160a01b039384168152919092166020820152604081019190915260600190565b901515815260200190565b90815260200190565b6020810161292883612f34565b825292915050565b6040810161293d84612f34565b82528260208301529392505050565b600060208252611d41602083018461275f565b600060408252612972604083018561275f565b8281036020840152612984818561275f565b95945050505050565b602080825260189082015277155cd95c88185b1c9958591e481dda1a5d195b1a5cdd195960421b604082015260600190565b60208082526059908201527f43616e206f6e6c79207769746864726177207374616b6520616674657220746860408201527f652066696e616c20706572696f642069732066696e6973686564206f72206966606082015278081d1a194818dbdb9d1c9858dd081a5cc8189c995858da1959603a1b608082015260a00190565b60208082526026908201527f4f776e61626c653a206e6577206f776e657220697320746865207a65726f206160408201526564647265737360d01b606082015260800190565b6020808252601b908201527f536166654d6174683a206164646974696f6e206f766572666c6f770000000000604082015260600190565b6020808252602d908201527f546f6b656e206e6f7420616c6c6f7765642062792074686520534c415265676960408201526c1cdd1c9e4818dbdb9d1c9858dd609a1b606082015260800190565b60208082526025908201527f4f6e6c79204d657373656e6765722063616e2063616c6c20746869732066756e60408201526431ba34b7b760d91b606082015260800190565b6020808252603a908201527f43616e206f6e6c7920636c61696d206120636f6d70656e736174696f6e20696660408201527f20706f736974696f6e20697320626967676572207468616e2030000000000000606082015260800190565b602080825260179082015276155cd95c881a5cc81b9bdd081dda1a5d195b1a5cdd1959604a1b604082015260600190565b60208082526029908201527f53686f756c64206e6f74207769746864726177206d6f7265207468616e207573604082015268657273207374616b6560b81b606082015260800190565b60208082526024908201527f44534c41206275726e2070726f6365737320776173206e6f74207375636365736040820152631cd99d5b60e21b606082015260800190565b60208082526021908201527f536166654d6174683a206d756c7469706c69636174696f6e206f766572666c6f6040820152607760f81b606082015260800190565b6020808252601490820152731d1bdad95b881a5cc81b9bdd08185b1b1bddd95960621b604082015260600190565b6020808252818101527f4f776e61626c653a2063616c6c6572206973206e6f7420746865206f776e6572604082015260600190565b60208082526028908201527f43616e206f6e6c79207374616b65206f6e206e6f7420627265616368656420636040820152676f6e74726163747360c01b606082015260800190565b602080825260139082015272151bdad95b88185b1c9958591e481859191959606a1b604082015260600190565b6020808252601d908201527f416464726573733a2063616c6c20746f206e6f6e2d636f6e7472616374000000604082015260600190565b6020808252601290820152710616d6f756e742063616e6e6f7420626520360741b604082015260600190565b602080825260149082015273155cd95c881b9bdd081dda1a5d195b1a5cdd195960621b604082015260600190565b60208082526029908201527f43616e6e6f74207374616b65206d6f7265207468616e20534c412070726f7669604082015268646572207374616b6560b81b606082015260800190565b6020808252602a908201527f5361666545524332303a204552433230206f7065726174696f6e20646964206e6040820152691bdd081cdd58d8d9595960b21b606082015260800190565b60208082526025908201527f53686f756c64206e6f742062652063616c6c65642062792074686520534c412060408201526437bbb732b960d91b606082015260800190565b918252602082015260400190565b838152602081018390526060810160038310612f1057fe5b826040830152949350505050565b9283526020830191909152604082015260600190565b806006811061059757fe5b60005b83811015612f5a578181015183820152602001612f42565b8381111561070e5750506000910152565b6001600160a01b0381168114610f3657600080fdfea264697066735822122096bf8397fbe02d68d8dcf45489d0c750497dc37873628cac45d787ebf10bf49364736f6c634300060c00338be0079c531659141344cd1fd0a4f28419497f9722a3daafe3b4186f6b6457e0",
  "immutableReferences": {},
  "source": "// SPDX-License-Identifier: MIT\npragma solidity ^0.6.0;\npragma experimental ABIEncoderV2;\n\nimport \"@openzeppelin/contracts/access/Ownable.sol\";\nimport \"@openzeppelin/contracts/token/ERC20/IERC20.sol\";\nimport \"@openzeppelin/contracts/math/SafeMath.sol\";\nimport \"./SLO.sol\";\nimport \"./SLARegistry.sol\";\nimport \"./StakeRegistry.sol\";\nimport \"./PeriodRegistry.sol\";\nimport \"./Staking.sol\";\n\n/**\n * @title SLA\n * @dev SLA is a service level agreement contract used for service downtime\n * compensation\n */\ncontract SLA is Staking {\n    using SafeMath for uint256;\n\n    enum Status {NotVerified, Respected, NotRespected}\n\n    /// @dev Struct used for storing period status\n    struct PeriodSLI {\n        uint256 timestamp;\n        uint256 sli;\n        Status status;\n    }\n\n    /// @dev address of the SLO\n    SLO public slo;\n\n    /// @dev The ipfs hash that stores extra information about the agreement\n    string public ipfsHash;\n\n    /// @dev uint8 of the period type\n    PeriodRegistry.PeriodType public periodType;\n\n    PeriodRegistry public periodRegistry;\n\n    /// @dev array of he allowed canonical period ids\n    uint256[] public periodIds;\n\n    /// @dev The address of the slaRegistry contract\n    SLARegistry public slaRegistry;\n\n    /// @dev The address of the messenger\n    address public messengerAddress;\n\n    /// @dev periodId=>PeriodSLI mapping\n    mapping(uint256 => PeriodSLI) public periodSLIs;\n\n    /// @dev block number of SLA deployment\n    uint256 public creationBlockNumber;\n\n    /// @dev extra data for customized workflows\n    bytes32[] public extraData;\n\n    /// @dev states if the contract was breached or not\n    bool private _breachedContract = false;\n\n    /**\n     * @dev event for SLI creation logging\n     * @param _timestamp 1. the time the SLI has been registered\n     * @param _sli 2. the value of the SLI\n     * @param _periodId 3. the id of the given period\n     */\n    event SLICreated(uint256 _timestamp, uint256 _sli, uint256 _periodId);\n\n    /**\n     * @dev event for SLI creation logging\n     * @param _periodId 1. the id of the given period\n     * @param _sli 2. value of the SLI\n     */\n    event SLANotRespected(uint256 _periodId, uint256 _sli);\n\n    /**\n     * @dev throws if called by any address other than the messenger contract.\n     */\n    modifier onlyMessenger() {\n        require(\n            msg.sender == messengerAddress,\n            \"Only Messenger can call this function\"\n        );\n        _;\n    }\n\n    /**\n     * @dev throws if called by any address other than the messenger contract.\n     */\n    modifier onlySLARegistry() {\n        require(\n            msg.sender == address(slaRegistry),\n            \"Only SLARegistry can call this function\"\n        );\n        _;\n    }\n\n    /**\n     * @param _owner 1. address of the owner of the service level agreement\n     * @param _SLO 2. address of the SLO\n     * @param _ipfsHash 3. string with the ipfs hash that contains SLA information\n     * @param _periodIds 4. id of the allowed canonical periods\n     * @param _periodType 5. period type of the SLA contract\n     * @param _stakeRegistry 6. stakeRegistry address\n     * @param _periodRegistry 7. periodRegistry address\n     * @param _whitelisted 8. boolean to declare whitelisted contracts\n     * @param _extraData 9. array of bytes32 to store extra data on deployment time\n     * @param _slaID 10. identifies the SLA to uniquely to emit dTokens\n     */\n    constructor(\n        address _owner,\n        SLO _SLO,\n        string memory _ipfsHash,\n        address _messengerAddress,\n        uint256[] memory _periodIds,\n        PeriodRegistry.PeriodType _periodType,\n        address _stakeRegistry,\n        address _periodRegistry,\n        bool _whitelisted,\n        bytes32[] memory _extraData,\n        uint256 _slaID\n    )\n        public\n        Staking(\n            _stakeRegistry,\n            _periodRegistry,\n            _periodType,\n            _periodIds.length,\n            _whitelisted,\n            _slaID\n        )\n    {\n        transferOwnership(_owner);\n        ipfsHash = _ipfsHash;\n        messengerAddress = _messengerAddress;\n        slaRegistry = SLARegistry(msg.sender);\n        periodRegistry = PeriodRegistry(_periodRegistry);\n        creationBlockNumber = block.number;\n        periodIds = _periodIds;\n        periodType = _periodType;\n        slo = _SLO;\n        extraData = _extraData;\n    }\n\n    /**\n     * @dev external function to register SLI's and check them against the SLO's\n     * @param _sli 1. the value of the SLI to check\n     * @param _periodId 2. the id of the given period\n     */\n    function registerSLI(uint256 _sli, uint256 _periodId)\n        external\n        onlyMessenger\n    {\n        emit SLICreated(block.timestamp, _sli, _periodId);\n        PeriodSLI storage periodSLI = periodSLIs[_periodId];\n        periodSLI.sli = _sli;\n        periodSLI.timestamp = block.timestamp;\n        uint256 sloValue = slo.value();\n        if (slo.isRespected(_sli)) {\n            periodSLI.status = Status.Respected;\n            uint256 precision = 10000;\n            // deviation = (sli-slo)*precision/((sli+slo)/2)\n            uint256 deviation =\n                _sli.sub(sloValue).mul(precision).div(\n                    _sli.add(sloValue).div(2)\n                );\n            // to get the reward formula, we get the periodId but respecting to the SLA\n            // because _periodId is the periodId of the platform\n            // e.g. if periodIds = 7,8,9,10, normalized periods are = 1,2,3,4\n            uint256 normalizedPeriodId = _periodId.sub(periodIds[0]).add(1);\n\n            // if is the last period, then deliver the whole usersStake to the provider\n            uint256 rewardPercentage =\n                _periodId != periodIds[periodIds.length - 1]\n                    ? deviation.mul(normalizedPeriodId).div(periodIds.length)\n                    : uint256(1).mul(precision);\n            _setRespectedPeriodReward(_periodId, rewardPercentage, precision);\n        } else {\n            periodSLI.status = Status.NotRespected;\n            _setUsersCompensation();\n            _breachedContract = true;\n            emit SLANotRespected(_periodId, _sli);\n        }\n    }\n\n    function isAllowedPeriod(uint256 _periodId) public view returns (bool) {\n        for (uint256 index = 0; index < periodIds.length; index++) {\n            if (periodIds[index] == _periodId) {\n                return true;\n            }\n        }\n        return false;\n    }\n\n    /**\n     *@dev stake _amount tokens into the _token contract\n     *@param _amount 1. amount to be staked\n     *@param _token 2. address of the ERC to be staked\n     */\n\n    function stakeTokens(uint256 _amount, address _token) public {\n        require(_amount > 0, \"amount cannot be 0\");\n        require(\n            _breachedContract == false,\n            \"Can only stake on not breached contracts\"\n        );\n        _stake(_amount, _token);\n        StakeRegistry stakeRegistry = slaRegistry.stakeRegistry();\n        stakeRegistry.registerStakedSla(msg.sender);\n    }\n\n    /**\n     *@dev withdraw _amount tokens from the _token contract\n     *@param _amount 1. amount to be staked\n     *@param _tokenAddress 2. address of the ERC to be staked\n     */\n\n    function withdrawStakedTokens(uint256 _amount, address _tokenAddress)\n        public\n    {\n        require(_amount > 0, \"amount cannot be 0\");\n        uint256 lastValidPeriodId = periodIds[periodIds.length - 1];\n        (, uint256 endOfLastValidPeriod) =\n            periodRegistry.getPeriodStartAndEnd(periodType, lastValidPeriodId);\n        // providers and users can withdraw only if the contract is breached\n        // or if the last period is finished and the period status was verified\n        if (msg.sender != owner()) {\n            require(\n                _breachedContract == true ||\n                    (block.timestamp >= endOfLastValidPeriod &&\n                        periodSLIs[lastValidPeriodId].status !=\n                        Status.NotVerified),\n                \"Can only withdraw stake after the final period is finished or if the contract is breached\"\n            );\n        }\n        _withdraw(_amount, _tokenAddress);\n    }\n\n    /**\n     *@dev withdraw provider reward of a given token address\n     *@param _tokenAddress 1. address of the token to withdraw rewards\n     */\n\n    function claimUserCompensation(address _tokenAddress) public {\n        _claimCompensation(_tokenAddress);\n    }\n\n    function getPeriodIdsLength() public view returns (uint256) {\n        return periodIds.length;\n    }\n\n    function getStakersLength() public view returns (uint256) {\n        return stakers.length;\n    }\n\n    function breachedContract() public view returns (bool) {\n        return _breachedContract;\n    }\n}\n",
  "sourcePath": "/Users/matiasbn/Desktop/stacktical/stacktical-dsla-contracts/contracts/SLA.sol",
  "compiler": {
    "name": "solc",
    "version": "0.6.12+commit.27d51765.Emscripten.clang"
  },
  "schemaVersion": "3.3.3",
  "updatedAt": "2021-03-02T17:29:54.009Z",
  "networkType": "ethereum",
  "devdoc": {
    "details": "SLA is a service level agreement contract used for service downtime compensation",
    "events": {
      "SLANotRespected(uint256,uint256)": {
        "details": "event for SLI creation logging",
        "params": {
          "_periodId": "1. the id of the given period",
          "_sli": "2. value of the SLI"
        }
      },
      "SLICreated(uint256,uint256,uint256)": {
        "details": "event for SLI creation logging",
        "params": {
          "_periodId": "3. the id of the given period",
          "_sli": "2. the value of the SLI",
          "_timestamp": "1. the time the SLI has been registered"
        }
      }
    },
    "kind": "dev",
    "methods": {
      "_claimCompensation(address)": {
        "details": "claim user compensation. Transfers both the compensation and the user remaining stake.",
        "params": {
          "_tokenAddress": "1. address of the token to claim compensation"
        }
      },
      "addAllowedTokens(address)": {
        "details": "add a token to ve allowed for staking",
        "params": {
          "_tokenAddress": "1. address of the new allowed token"
        }
      },
      "claimUserCompensation(address)": {
        "details": "withdraw provider reward of a given token address",
        "params": {
          "_tokenAddress": "1. address of the token to withdraw rewards"
        }
      },
      "constructor": {
        "params": {
          "_SLO": "2. address of the SLO",
          "_extraData": "9. array of bytes32 to store extra data on deployment time",
          "_ipfsHash": "3. string with the ipfs hash that contains SLA information",
          "_owner": "1. address of the owner of the service level agreement",
          "_periodIds": "4. id of the allowed canonical periods",
          "_periodRegistry": "7. periodRegistry address",
          "_periodType": "5. period type of the SLA contract",
          "_slaID": "10. identifies the SLA to uniquely to emit dTokens",
          "_stakeRegistry": "6. stakeRegistry address",
          "_whitelisted": "8. boolean to declare whitelisted contracts"
        }
      },
      "getAllowedTokensLength()": {
        "details": "use this function to evaluate the length of the allowed tokens length",
        "returns": {
          "_0": "allowedTokens.length"
        }
      },
      "isAllowedToken(address)": {
        "details": "checks in the allowedTokens array if there's a token with _tokenAddress value",
        "params": {
          "_tokenAddress": "1. token address to check exixtence"
        },
        "returns": {
          "_0": "true if _tokenAddress exists in the allowedTokens array"
        }
      },
      "isStaker(address)": {
        "details": "returns true if the _staker address is registered as staker",
        "params": {
          "_staker": "1. staker address"
        },
        "returns": {
          "_0": "true if address is staker"
        }
      },
      "owner()": {
        "details": "Returns the address of the current owner."
      },
      "registerSLI(uint256,uint256)": {
        "details": "external function to register SLI's and check them against the SLO's",
        "params": {
          "_periodId": "2. the id of the given period",
          "_sli": "1. the value of the SLI to check"
        }
      },
      "renounceOwnership()": {
        "details": "Leaves the contract without owner. It will not be possible to call `onlyOwner` functions anymore. Can only be called by the current owner. NOTE: Renouncing ownership will leave the contract without an owner, thereby removing any functionality that is only available to the owner."
      },
      "stakeTokens(uint256,address)": {
        "details": "stake _amount tokens into the _token contract",
        "params": {
          "_amount": "1. amount to be staked",
          "_token": "2. address of the ERC to be staked"
        }
      },
      "transferOwnership(address)": {
        "details": "Transfers ownership of the contract to a new account (`newOwner`). Can only be called by the current owner."
      },
      "withdrawStakedTokens(uint256,address)": {
        "details": "withdraw _amount tokens from the _token contract",
        "params": {
          "_amount": "1. amount to be staked",
          "_tokenAddress": "2. address of the ERC to be staked"
        }
      }
    },
    "stateVariables": {
      "_breachedContract": {
        "details": "states if the contract was breached or not"
      },
      "creationBlockNumber": {
        "details": "block number of SLA deployment"
      },
      "extraData": {
        "details": "extra data for customized workflows"
      },
      "ipfsHash": {
        "details": "The ipfs hash that stores extra information about the agreement"
      },
      "messengerAddress": {
        "details": "The address of the messenger"
      },
      "periodIds": {
        "details": "array of he allowed canonical period ids"
      },
      "periodSLIs": {
        "details": "periodId=>PeriodSLI mapping"
      },
      "periodType": {
        "details": "uint8 of the period type"
      },
      "slaRegistry": {
        "details": "The address of the slaRegistry contract"
      },
      "slo": {
        "details": "address of the SLO"
      }
    },
    "title": "SLA",
    "version": 1
  },
  "userdoc": {
    "kind": "user",
    "methods": {
      "_claimCompensation(address)": {
        "notice": "it uses the user position and the user total position per token to check the proportion of the compensation pool that corresponds to every user"
      }
    },
    "version": 1
  }
}