{
  "contractName": "SLA",
  "abi": [
    {
      "inputs": [
        {
          "internalType": "address",
          "name": "_owner",
          "type": "address"
        },
        {
          "internalType": "bytes32[]",
          "name": "_SLONames",
          "type": "bytes32[]"
        },
        {
          "internalType": "contract SLO[]",
          "name": "_SLOs",
          "type": "address[]"
        },
        {
          "internalType": "uint256",
          "name": "_stake",
          "type": "uint256"
        },
        {
          "internalType": "string",
          "name": "_ipfsHash",
          "type": "string"
        },
        {
          "internalType": "address",
          "name": "_baseTokenAddress",
          "type": "address"
        },
        {
          "internalType": "uint256[]",
          "name": "_sla_period_starts",
          "type": "uint256[]"
        },
        {
          "internalType": "uint256[]",
          "name": "_sla_period_ends",
          "type": "uint256[]"
        }
      ],
      "stateMutability": "nonpayable",
      "type": "constructor"
    },
    {
      "anonymous": false,
      "inputs": [
        {
          "indexed": true,
          "internalType": "uint256",
          "name": "period_index",
          "type": "uint256"
        }
      ],
      "name": "NewPeriodAdded",
      "type": "event"
    },
    {
      "anonymous": false,
      "inputs": [
        {
          "indexed": true,
          "internalType": "address",
          "name": "previousOwner",
          "type": "address"
        },
        {
          "indexed": true,
          "internalType": "address",
          "name": "newOwner",
          "type": "address"
        }
      ],
      "name": "OwnershipTransferred",
      "type": "event"
    },
    {
      "anonymous": false,
      "inputs": [
        {
          "indexed": false,
          "internalType": "uint256",
          "name": "_timestamp",
          "type": "uint256"
        },
        {
          "indexed": false,
          "internalType": "uint256",
          "name": "_value",
          "type": "uint256"
        },
        {
          "indexed": false,
          "internalType": "uint256",
          "name": "_periodId",
          "type": "uint256"
        }
      ],
      "name": "SLICreated",
      "type": "event"
    },
    {
      "inputs": [],
      "name": "BaseToken",
      "outputs": [
        {
          "internalType": "contract IERC20",
          "name": "",
          "type": "address"
        }
      ],
      "stateMutability": "view",
      "type": "function"
    },
    {
      "inputs": [
        {
          "internalType": "bytes32",
          "name": "",
          "type": "bytes32"
        },
        {
          "internalType": "uint256",
          "name": "",
          "type": "uint256"
        }
      ],
      "name": "SLIs",
      "outputs": [
        {
          "internalType": "uint256",
          "name": "timestamp",
          "type": "uint256"
        },
        {
          "internalType": "uint256",
          "name": "value",
          "type": "uint256"
        },
        {
          "internalType": "uint256",
          "name": "periodId",
          "type": "uint256"
        }
      ],
      "stateMutability": "view",
      "type": "function"
    },
    {
      "inputs": [
        {
          "internalType": "uint256",
          "name": "",
          "type": "uint256"
        }
      ],
      "name": "SLONames",
      "outputs": [
        {
          "internalType": "bytes32",
          "name": "",
          "type": "bytes32"
        }
      ],
      "stateMutability": "view",
      "type": "function"
    },
    {
      "inputs": [
        {
          "internalType": "bytes32",
          "name": "",
          "type": "bytes32"
        }
      ],
      "name": "SLOs",
      "outputs": [
        {
          "internalType": "contract SLO",
          "name": "",
          "type": "address"
        }
      ],
      "stateMutability": "view",
      "type": "function"
    },
    {
      "inputs": [
        {
          "internalType": "address",
          "name": "_token",
          "type": "address"
        }
      ],
      "name": "addAllowedTokens",
      "outputs": [],
      "stateMutability": "nonpayable",
      "type": "function"
    },
    {
      "inputs": [
        {
          "internalType": "uint256",
          "name": "_sla_period_start",
          "type": "uint256"
        },
        {
          "internalType": "uint256",
          "name": "_sla_period_end",
          "type": "uint256"
        }
      ],
      "name": "addNewPeriod",
      "outputs": [],
      "stateMutability": "nonpayable",
      "type": "function"
    },
    {
      "inputs": [
        {
          "internalType": "uint256",
          "name": "",
          "type": "uint256"
        }
      ],
      "name": "allowedTokens",
      "outputs": [
        {
          "internalType": "address",
          "name": "",
          "type": "address"
        }
      ],
      "stateMutability": "view",
      "type": "function"
    },
    {
      "inputs": [
        {
          "internalType": "address",
          "name": "",
          "type": "address"
        }
      ],
      "name": "allowedTokensMapping",
      "outputs": [
        {
          "internalType": "bool",
          "name": "",
          "type": "bool"
        }
      ],
      "stateMutability": "view",
      "type": "function"
    },
    {
      "inputs": [],
      "name": "blockNumberCreation",
      "outputs": [
        {
          "internalType": "uint256",
          "name": "",
          "type": "uint256"
        }
      ],
      "stateMutability": "view",
      "type": "function"
    },
    {
      "inputs": [
        {
          "internalType": "uint256",
          "name": "_period",
          "type": "uint256"
        }
      ],
      "name": "claimCompensation",
      "outputs": [],
      "stateMutability": "nonpayable",
      "type": "function"
    },
    {
      "inputs": [
        {
          "internalType": "uint256",
          "name": "_period",
          "type": "uint256"
        }
      ],
      "name": "claimReward",
      "outputs": [],
      "stateMutability": "nonpayable",
      "type": "function"
    },
    {
      "inputs": [
        {
          "internalType": "uint256",
          "name": "_periodId",
          "type": "uint256"
        }
      ],
      "name": "getPeriodData",
      "outputs": [
        {
          "internalType": "uint256",
          "name": "periodStart",
          "type": "uint256"
        },
        {
          "internalType": "uint256",
          "name": "periodEnd",
          "type": "uint256"
        }
      ],
      "stateMutability": "view",
      "type": "function"
    },
    {
      "inputs": [],
      "name": "getPeriodLength",
      "outputs": [
        {
          "internalType": "uint256",
          "name": "_length",
          "type": "uint256"
        }
      ],
      "stateMutability": "view",
      "type": "function"
    },
    {
      "inputs": [
        {
          "internalType": "address",
          "name": "_owner",
          "type": "address"
        },
        {
          "internalType": "uint256",
          "name": "_index",
          "type": "uint256"
        }
      ],
      "name": "getTokenStake",
      "outputs": [
        {
          "internalType": "address",
          "name": "tokenAddress",
          "type": "address"
        },
        {
          "internalType": "uint256",
          "name": "stake",
          "type": "uint256"
        }
      ],
      "stateMutability": "view",
      "type": "function"
    },
    {
      "inputs": [
        {
          "internalType": "address",
          "name": "_owner",
          "type": "address"
        }
      ],
      "name": "getTokenStakeLength",
      "outputs": [
        {
          "internalType": "uint256",
          "name": "",
          "type": "uint256"
        }
      ],
      "stateMutability": "view",
      "type": "function"
    },
    {
      "inputs": [
        {
          "internalType": "address",
          "name": "_user",
          "type": "address"
        },
        {
          "internalType": "uint256",
          "name": "_period",
          "type": "uint256"
        }
      ],
      "name": "getUserTotalValue",
      "outputs": [
        {
          "internalType": "uint256",
          "name": "",
          "type": "uint256"
        }
      ],
      "stateMutability": "view",
      "type": "function"
    },
    {
      "inputs": [],
      "name": "ipfsHash",
      "outputs": [
        {
          "internalType": "string",
          "name": "",
          "type": "string"
        }
      ],
      "stateMutability": "view",
      "type": "function"
    },
    {
      "inputs": [],
      "name": "owner",
      "outputs": [
        {
          "internalType": "address",
          "name": "",
          "type": "address"
        }
      ],
      "stateMutability": "view",
      "type": "function"
    },
    {
      "inputs": [
        {
          "internalType": "uint256",
          "name": "",
          "type": "uint256"
        }
      ],
      "name": "periods",
      "outputs": [
        {
          "internalType": "uint256",
          "name": "sla_period_start",
          "type": "uint256"
        },
        {
          "internalType": "uint256",
          "name": "sla_period_end",
          "type": "uint256"
        },
        {
          "internalType": "uint256",
          "name": "claimed_reward",
          "type": "uint256"
        },
        {
          "internalType": "bool",
          "name": "claimed",
          "type": "bool"
        },
        {
          "internalType": "enum Staking.Status",
          "name": "status",
          "type": "uint8"
        },
        {
          "internalType": "uint256",
          "name": "sli",
          "type": "uint256"
        },
        {
          "internalType": "uint256",
          "name": "timestamp",
          "type": "uint256"
        }
      ],
      "stateMutability": "view",
      "type": "function"
    },
    {
      "inputs": [],
      "name": "registry",
      "outputs": [
        {
          "internalType": "contract SLARegistry",
          "name": "",
          "type": "address"
        }
      ],
      "stateMutability": "view",
      "type": "function"
    },
    {
      "inputs": [],
      "name": "renounceOwnership",
      "outputs": [],
      "stateMutability": "nonpayable",
      "type": "function"
    },
    {
      "inputs": [],
      "name": "stake",
      "outputs": [
        {
          "internalType": "uint256",
          "name": "",
          "type": "uint256"
        }
      ],
      "stateMutability": "view",
      "type": "function"
    },
    {
      "inputs": [
        {
          "internalType": "uint256",
          "name": "",
          "type": "uint256"
        }
      ],
      "name": "stakers",
      "outputs": [
        {
          "internalType": "address",
          "name": "",
          "type": "address"
        }
      ],
      "stateMutability": "view",
      "type": "function"
    },
    {
      "inputs": [],
      "name": "stakersCount",
      "outputs": [
        {
          "internalType": "uint256",
          "name": "",
          "type": "uint256"
        }
      ],
      "stateMutability": "view",
      "type": "function"
    },
    {
      "inputs": [
        {
          "internalType": "address",
          "name": "",
          "type": "address"
        }
      ],
      "name": "tokensPool",
      "outputs": [
        {
          "internalType": "uint256",
          "name": "",
          "type": "uint256"
        }
      ],
      "stateMutability": "view",
      "type": "function"
    },
    {
      "inputs": [],
      "name": "totalStaked",
      "outputs": [
        {
          "internalType": "uint256",
          "name": "",
          "type": "uint256"
        }
      ],
      "stateMutability": "view",
      "type": "function"
    },
    {
      "inputs": [
        {
          "internalType": "address",
          "name": "newOwner",
          "type": "address"
        }
      ],
      "name": "transferOwnership",
      "outputs": [],
      "stateMutability": "nonpayable",
      "type": "function"
    },
    {
      "inputs": [
        {
          "internalType": "address",
          "name": "",
          "type": "address"
        }
      ],
      "name": "uniqueTokensStaked",
      "outputs": [
        {
          "internalType": "uint256",
          "name": "",
          "type": "uint256"
        }
      ],
      "stateMutability": "view",
      "type": "function"
    },
    {
      "inputs": [
        {
          "internalType": "address",
          "name": "",
          "type": "address"
        },
        {
          "internalType": "address",
          "name": "",
          "type": "address"
        }
      ],
      "name": "userStakedTokens",
      "outputs": [
        {
          "internalType": "bool",
          "name": "",
          "type": "bool"
        }
      ],
      "stateMutability": "view",
      "type": "function"
    },
    {
      "inputs": [
        {
          "internalType": "address",
          "name": "",
          "type": "address"
        },
        {
          "internalType": "address",
          "name": "",
          "type": "address"
        }
      ],
      "name": "userStakedTokensIndex",
      "outputs": [
        {
          "internalType": "uint256",
          "name": "",
          "type": "uint256"
        }
      ],
      "stateMutability": "view",
      "type": "function"
    },
    {
      "inputs": [
        {
          "internalType": "address",
          "name": "",
          "type": "address"
        },
        {
          "internalType": "uint256",
          "name": "",
          "type": "uint256"
        }
      ],
      "name": "userStakes",
      "outputs": [
        {
          "internalType": "address",
          "name": "tokenAddress",
          "type": "address"
        },
        {
          "internalType": "uint256",
          "name": "stake",
          "type": "uint256"
        }
      ],
      "stateMutability": "view",
      "type": "function"
    },
    {
      "inputs": [],
      "name": "validator",
      "outputs": [
        {
          "internalType": "address",
          "name": "",
          "type": "address"
        }
      ],
      "stateMutability": "view",
      "type": "function"
    },
    {
      "inputs": [
        {
          "internalType": "address",
          "name": "_token",
          "type": "address"
        },
        {
          "internalType": "uint256",
          "name": "_period",
          "type": "uint256"
        }
      ],
      "name": "withdraw",
      "outputs": [],
      "stateMutability": "nonpayable",
      "type": "function"
    },
    {
      "inputs": [
        {
          "internalType": "address",
          "name": "_token",
          "type": "address"
        },
        {
          "internalType": "uint256",
          "name": "_amount",
          "type": "uint256"
        },
        {
          "internalType": "uint256",
          "name": "_period",
          "type": "uint256"
        }
      ],
      "name": "withdrawAndStake",
      "outputs": [],
      "stateMutability": "nonpayable",
      "type": "function"
    },
    {
      "inputs": [
        {
          "internalType": "bytes32",
          "name": "_SLOName",
          "type": "bytes32"
        },
        {
          "internalType": "uint256",
          "name": "_value",
          "type": "uint256"
        },
        {
          "internalType": "uint256",
          "name": "_periodId",
          "type": "uint256"
        }
      ],
      "name": "registerSLI",
      "outputs": [],
      "stateMutability": "nonpayable",
      "type": "function"
    },
    {
      "inputs": [
        {
          "internalType": "bytes32",
          "name": "_SLOName",
          "type": "bytes32"
        }
      ],
      "name": "getSLI",
      "outputs": [
        {
          "components": [
            {
              "internalType": "uint256",
              "name": "timestamp",
              "type": "uint256"
            },
            {
              "internalType": "uint256",
              "name": "value",
              "type": "uint256"
            },
            {
              "internalType": "uint256",
              "name": "periodId",
              "type": "uint256"
            }
          ],
          "internalType": "struct SLA.SLI[]",
          "name": "",
          "type": "tuple[]"
        }
      ],
      "stateMutability": "view",
      "type": "function"
    },
    {
      "inputs": [],
      "name": "getDetails",
      "outputs": [
        {
          "internalType": "address",
          "name": "_slaOwner",
          "type": "address"
        },
        {
          "internalType": "string",
          "name": "_ipfsHash",
          "type": "string"
        },
        {
          "internalType": "uint256",
          "name": "_stake",
          "type": "uint256"
        },
        {
          "internalType": "bytes32[]",
          "name": "_SLONames",
          "type": "bytes32[]"
        },
        {
          "internalType": "contract SLO[]",
          "name": "_SLOAddresses",
          "type": "address[]"
        },
        {
          "components": [
            {
              "internalType": "uint256",
              "name": "sla_period_start",
              "type": "uint256"
            },
            {
              "internalType": "uint256",
              "name": "sla_period_end",
              "type": "uint256"
            },
            {
              "internalType": "uint256",
              "name": "claimed_reward",
              "type": "uint256"
            },
            {
              "internalType": "bool",
              "name": "claimed",
              "type": "bool"
            },
            {
              "internalType": "enum Staking.Status",
              "name": "status",
              "type": "uint8"
            },
            {
              "internalType": "uint256",
              "name": "sli",
              "type": "uint256"
            },
            {
              "internalType": "uint256",
              "name": "timestamp",
              "type": "uint256"
            }
          ],
          "internalType": "struct SLA.SLAPeriod[]",
          "name": "_SLAPeriods",
          "type": "tuple[]"
        },
        {
          "internalType": "uint256",
          "name": "_stakersCount",
          "type": "uint256"
        },
        {
          "components": [
            {
              "internalType": "address",
              "name": "tokenAddress",
              "type": "address"
            },
            {
              "internalType": "uint256",
              "name": "stake",
              "type": "uint256"
            }
          ],
          "internalType": "struct Staking.TokenStake[]",
          "name": "_tokensStake",
          "type": "tuple[]"
        }
      ],
      "stateMutability": "view",
      "type": "function"
    },
    {
      "inputs": [
        {
          "internalType": "uint256",
          "name": "_amount",
          "type": "uint256"
        },
        {
          "internalType": "address",
          "name": "_token",
          "type": "address"
        },
        {
          "internalType": "uint256",
          "name": "_period",
          "type": "uint256"
        }
      ],
      "name": "stakeTokens",
      "outputs": [],
      "stateMutability": "nonpayable",
      "type": "function"
    }
  ],
  "bytecode": "0x60806040523480156200001157600080fd5b5060405162003b5138038062003b518339810160408190526200003491620007c8565b8282828a60006200004462000297565b600080546001600160a01b0319166001600160a01b03831690811782556040519293509160008051602062003b31833981519152908290a3508151835114620000aa5760405162461bcd60e51b8152600401620000a19062000950565b60405180910390fd5b600480546001600160a01b038084166001600160a01b0319928316179092556001805492871692821683178155600680548083019091557ff652222313e28459528d920b65115c16c04f3efc82aaedc97be59f3f377c0d3f01805490921683179091556000918252600760205260408220805460ff191690911790555b835181101562000174576200016b8482815181106200014257fe5b60200260200101518483815181106200015757fe5b60200260200101516200029b60201b60201c565b60010162000127565b505050505060058651106200019d5760405162461bcd60e51b8152600401620000a19062000a1d565b8551875114620001c15760405162461bcd60e51b8152600401620000a190620009ce565b60005b86518110156200023557868181518110620001db57fe5b6020026020010151601060008a8481518110620001f457fe5b602090810291909101810151825281019190915260400160002080546001600160a01b0319166001600160a01b0392909216919091179055600101620001c4565b50620002418862000414565b8651620002569060129060208a019062000543565b50600d85905583516200027190600e90602087019062000593565b5050600f80546001600160a01b031916331790555050436013555062000ae79350505050565b3390565b620002a562000605565b8281526020810182815260006080830181815260a0840182905260c08401829052600280546001810182559281905284517f405787fa12a823e0f2b7631cc41b3ba8828b3321ca811111fa75cd3aa3bb5ace600890940293840190815593517f405787fa12a823e0f2b7631cc41b3ba8828b3321ca811111fa75cd3aa3bb5acf84015560408501517f405787fa12a823e0f2b7631cc41b3ba8828b3321ca811111fa75cd3aa3bb5ad084015560608501517f405787fa12a823e0f2b7631cc41b3ba8828b3321ca811111fa75cd3aa3bb5ad1909301805460ff19169315159390931780845591518594939092909161ff001990911690610100908490811115620003ab57fe5b021790555060a0820151816004015560c082015181600501555050620003e66001600280549050620004c160201b62001e971790919060201c565b6040517ff791e873e3b67fe74b29aeede7bcbbdaa59c4b64e542571183cd837aa56f6ac990600090a2505050565b6200041e62000297565b6000546001600160a01b039081169116146200044e5760405162461bcd60e51b8152600401620000a19062000999565b6001600160a01b038116620004775760405162461bcd60e51b8152600401620000a1906200090a565b600080546040516001600160a01b038085169392169160008051602062003b3183398151915291a3600080546001600160a01b0319166001600160a01b0392909216919091179055565b60006200050b83836040518060400160405280601e81526020017f536166654d6174683a207375627472616374696f6e206f766572666c6f7700008152506200051460201b60201c565b90505b92915050565b600081848411156200053b5760405162461bcd60e51b8152600401620000a19190620008d5565b505050900390565b82805482825590600052602060002090810192821562000581579160200282015b828111156200058157825182559160200191906001019062000564565b506200058f92915062000650565b5090565b828054600181600116156101000203166002900490600052602060002090601f016020900481019282601f10620005d657805160ff191683800117855562000581565b828001600101855582156200058157918201828111156200058157825182559160200191906001019062000564565b6040518060e00160405280600081526020016000815260200160008152602001600015158152602001600060028111156200063c57fe5b815260200160008152602001600081525090565b5b808211156200058f576000815560010162000651565b80516200050e8162000ace565b600082601f83011262000685578081fd5b81516200069c620006968262000a7b565b62000a54565b818152915060208083019084810181840286018201871015620006be57600080fd5b60005b84811015620006df57815184529282019290820190600101620006c1565b505050505092915050565b600082601f830112620006fb578081fd5b81516200070c620006968262000a7b565b8181529150602080830190848101818402860182018710156200072e57600080fd5b60005b84811015620006df578151620007478162000ace565b8452928201929082019060010162000731565b600082601f8301126200076b578081fd5b81516001600160401b0381111562000781578182fd5b62000796601f8201601f191660200162000a54565b9150808252836020828501011115620007ae57600080fd5b620007c181602084016020860162000a9b565b5092915050565b600080600080600080600080610100898b031215620007e5578384fd5b620007f18a8a62000667565b60208a01519098506001600160401b03808211156200080e578586fd5b6200081c8c838d0162000674565b985060408b015191508082111562000832578586fd5b620008408c838d01620006ea565b975060608b0151965060808b01519150808211156200085d578586fd5b6200086b8c838d016200075a565b95506200087c8c60a08d0162000667565b945060c08b015191508082111562000892578384fd5b620008a08c838d0162000674565b935060e08b0151915080821115620008b6578283fd5b50620008c58b828c0162000674565b9150509295985092959890939650565b6000602082528251806020840152620008f681604085016020870162000a9b565b601f01601f19169190910160400192915050565b60208082526026908201527f4f776e61626c653a206e6577206f776e657220697320746865207a65726f206160408201526564647265737360d01b606082015260800190565b60208082526029908201527f506c6561736520636865636b2074686520706172616d73206f6620796f757220604082015268706572696f6473202160b81b606082015260800190565b6020808252818101527f4f776e61626c653a2063616c6c6572206973206e6f7420746865206f776e6572604082015260600190565b6020808252602f908201527f5f534c4f4e616d657320616e64205f534c4f732073686f756c6420686176652060408201526e0e8d0ca40e6c2daca40d8cadccee8d608b1b606082015260800190565b60208082526017908201527f6d617820616d6f756e74206f6620534c4f732069732035000000000000000000604082015260600190565b6040518181016001600160401b038111828210171562000a7357600080fd5b604052919050565b60006001600160401b0382111562000a91578081fd5b5060209081020190565b60005b8381101562000ab857818101518382015260200162000a9e565b8381111562000ac8576000848401525b50505050565b6001600160a01b038116811462000ae457600080fd5b50565b61303a8062000af76000396000f3fe608060405234801561001057600080fd5b50600436106102125760003560e01c806394199c6111610120578063ea4a1104116100b8578063f3fef3a31161007c578063f3fef3a31461048d578063fbbf93a0146104a0578063fc875ece146104bc578063fd0d5534146104dd578063fd5e6dd1146104f057610212565b8063ea4a11041461041b578063ec04de4814610441578063f10bd77214610454578063f2fde38b14610467578063f34ed40d1461047a57610212565b806394199c6114610375578063a2e80c5e14610397578063ae169a501461039f578063b0227b47146103b2578063b5d5b5fa146103c5578063b83e0234146103d8578063c623674f146103eb578063cec534d614610400578063dbc389ec1461041357610212565b806357ac94f0116101ae578063817b1cd211610172578063817b1cd2146103425780638469ddc71461034a578063869c3925146103525780638da5cb5b1461036557806390f817021461036d57610212565b806357ac94f0146102eb5780635e5f2e261461030c578063715018a61461031f57806375fdf2a9146103275780637b1039991461033a57610212565b806302e8b893146102175780630e1fcf3414610240578063105237cf14610255578063171e44ea146102755780631934d0e8146102885780632eac97871461029b5780633a4b66f1146102bb5780633a5381b5146102c357806353e85fd5146102d8575b600080fd5b61022a6102253660046127bb565b610503565b6040516102379190612adb565b60405180910390f35b61025361024e3660046127d3565b610594565b005b6102686102633660046126e8565b6105e0565b6040516102379190612b34565b6102536102833660046126e8565b6105f5565b610268610296366004612704565b6106ca565b6102ae6102a9366004612704565b6106ea565b6040516102379190612b3f565b6102ae610707565b6102cb61070d565b60405161023791906129d5565b6102536102e63660046127bb565b61071c565b6102fe6102f936600461273c565b610a3a565b604051610237929190612a0d565b6102cb61031a3660046127bb565b610aba565b610253610ae1565b610253610335366004612767565b610b60565b6102cb610ec3565b6102ae610ed2565b6102ae610ed8565b6102536103603660046127f4565b610ede565b6102cb61117c565b6102cb61118b565b6103886103833660046127d3565b61119a565b60405161023793929190612f65565b6102ae6111d9565b6102536103ad3660046127bb565b6111df565b6102cb6103c03660046127bb565b6113b9565b6102fe6103d336600461273c565b6113d4565b6102ae6103e63660046126e8565b611417565b6103f3611429565b6040516102379190612b48565b61025361040e36600461283b565b6114b7565b6102ae61156a565b61042e6104293660046127bb565b611570565b6040516102379796959493929190612f7b565b6102ae61044f3660046126e8565b6115c1565b6102ae61046236600461273c565b6115dc565b6102536104753660046126e8565b61168a565b6102ae6104883660046127bb565b611740565b61025361049b36600461273c565b61175e565b6104a86119cc565b604051610237989796959493929190612a26565b6104cf6104ca3660046127bb565b611e2e565b604051610237929190612f57565b6102ae6104eb3660046126e8565b611e78565b6102cb6104fe3660046127bb565b611e8a565b606060116000838152602001908152602001600020805480602002602001604051908101604052809291908181526020016000905b828210156105885783829060005260206000209060030201604051806060016040529081600082015481526020016001820154815260200160028201548152505081526020019060010190610538565b5050505090505b919050565b61059c611ed9565b6000546001600160a01b039081169116146105d25760405162461bcd60e51b81526004016105c990612e14565b60405180910390fd5b6105dc8282611edd565b5050565b60076020526000908152604090205460ff1681565b6105fd611ed9565b6000546001600160a01b0390811691161461062a5760405162461bcd60e51b81526004016105c990612e14565b6001600160a01b03811660009081526007602052604090205460ff16156106635760405162461bcd60e51b81526004016105c990612d22565b6006805460018181019092557ff652222313e28459528d920b65115c16c04f3efc82aaedc97be59f3f377c0d3f0180546001600160a01b039093166001600160a01b031990931683179055600091825260076020526040909120805460ff19169091179055565b600b60209081526000928352604080842090915290825290205460ff1681565b600a60209081526000928352604080842090915290825290205481565b600d5481565b6004546001600160a01b031681565b806002818154811061072a57fe5b906000526020600020906008020160000154421015801561076957506002818154811061075357fe5b9060005260206000209060080201600101544211155b61077257600080fd5b6004546001600160a01b031633141561079d5760405162461bcd60e51b81526004016105c990612cbc565b60028083815481106107ab57fe5b906000526020600020906008020160030160019054906101000a900460ff1660028111156107d557fe5b146107f25760405162461bcd60e51b81526004016105c990612bd1565b600282815481106107ff57fe5b60009182526020808320338452600760089093020191909101905260409020541561083c5760405162461bcd60e51b81526004016105c990612efa565b600061084833846115dc565b90506000610862600a61085c846003612041565b9061207b565b6003549091506108729083611e97565b600381905550816002858154811061088657fe5b600091825260208083203380855260089390930201600701905260409182902092909255600154905163a9059cbb60e01b81526001600160a01b039091169163a9059cbb916108da91908690600401612a0d565b602060405180830381600087803b1580156108f457600080fd5b505af1158015610908573d6000803e3d6000fd5b505050506040513d601f19601f8201168201806040525081019061092c919061279b565b50600154604080518082018252600d81526c6275726e2875696e743235362960981b602090910152516000916001600160a01b0316907f42966c689b5afe9b9b3f8a7103b2a19980d59629bfd6a20a60972312ed41d83690610992908590602401612b3f565b60408051601f198184030181529181526020820180516001600160e01b03166001600160e01b03199094169390931790925290516109d091906129b9565b6000604051808303816000865af19150503d8060008114610a0d576040519150601f19603f3d011682016040523d82523d6000602084013e610a12565b606091505b5050905080610a335760405162461bcd60e51b81526004016105c990612b5b565b5050505050565b6001600160a01b0382166000908152600960205260408120805482919084908110610a6157fe5b600091825260208083206002909202909101546001600160a01b03878116845260099092526040909220805491909216919085908110610a9d57fe5b906000526020600020906002020160010154915091509250929050565b60068181548110610ac757fe5b6000918252602090912001546001600160a01b0316905081565b610ae9611ed9565b6000546001600160a01b03908116911614610b165760405162461bcd60e51b81526004016105c990612e14565b600080546040516001600160a01b03909116907f8be0079c531659141344cd1fd0a4f28419497f9722a3daafe3b4186f6b6457e0908390a3600080546001600160a01b0319169055565b6004546001600160a01b0316331415610b8b5760405162461bcd60e51b81526004016105c990612cbc565b6001600160a01b038316600090815260076020526040902054839060ff161515600114610bca5760405162461bcd60e51b81526004016105c990612de6565b600060028381548110610bd957fe5b600091825260208083206001600160a01b03891684526006600890930201919091018152604080832033845290915290205411610c285760405162461bcd60e51b81526004016105c990612ceb565b6040516323b872dd60e01b81526001600160a01b038516906323b872dd90610c58903390309088906004016129e9565b602060405180830381600087803b158015610c7257600080fd5b505af1158015610c86573d6000803e3d6000fd5b505050506040513d601f19601f82011682018060405250810190610caa919061279b565b50610cf48360028481548110610cbc57fe5b600091825260208083206001600160a01b038a16845260066008909302019190910181526040808320338452909152902054906120bd565b60028381548110610d0157fe5b600091825260208083206001600160a01b038916845260066008909302019190910181526040808320338452909152902055600354610d4090846120bd565b600355610d4d84846120e2565b600060028381548110610d5c57fe5b600091825260208083206001600160a01b03891684526006600890930201919091018152604080832033845290915281205460055460028054929450610dc69287908110610da657fe5b90600052602060002090600802016002015461207b90919063ffffffff16565b9050600060028581548110610dd757fe5b600091825260208083206001600160a01b038b16845260066008909302019190910181526040808320338452909152902055600354610e169083611e97565b6003556001546001600160a01b031663a9059cbb33610e358585611e97565b6040518363ffffffff1660e01b8152600401610e52929190612a0d565b602060405180830381600087803b158015610e6c57600080fd5b505af1158015610e80573d6000803e3d6000fd5b505050506040513d601f19601f82011682018060405250810190610ea4919061279b565b50600154610ebb906001600160a01b031683612282565b505050505050565b600f546001600160a01b031681565b60035481565b60025490565b600f60009054906101000a90046001600160a01b03166001600160a01b0316633cb747bf6040518163ffffffff1660e01b815260040160206040518083038186803b158015610f2c57600080fd5b505afa158015610f40573d6000803e3d6000fd5b505050506040513d601f19601f82011682018060405250810190610f64919061281f565b6001600160a01b0316336001600160a01b031614610f945760405162461bcd60e51b81526004016105c990612c77565b600083815260116020908152604080832081516060810183524281528084018781529281018681528254600181810185559387529490952090516003909402019283559051908201559051600291820155805483919083908110610ff457fe5b906000526020600020906008020160040181905550426002828154811061101757fe5b9060005260206000209060080201600501819055507fc95987c1992805ee34bdc915e017cceae36ba1c156b9911fa7e691e6435eb46e42838360405161105f93929190612f65565b60405180910390a16000838152601060205260409081902054905163868d08f760e01b81526001600160a01b039091169063868d08f7906110a4908590600401612b3f565b60206040518083038186803b1580156110bc57600080fd5b505afa1580156110d0573d6000803e3d6000fd5b505050506040513d601f19601f820116820180604052508101906110f4919061279b565b61113957600280828154811061110657fe5b60009182526020909120600360089092020101805461ff00191661010083600281111561112f57fe5b0217905550611177565b60016002828154811061114857fe5b60009182526020909120600360089092020101805461ff00191661010083600281111561117157fe5b02179055505b505050565b6000546001600160a01b031690565b6001546001600160a01b031681565b601160205281600052604060002081815481106111b357fe5b600091825260209091206003909102018054600182015460029092015490935090915083565b60055490565b80600281815481106111ed57fe5b906000526020600020906008020160000154421015801561122c57506002818154811061121657fe5b9060005260206000209060080201600101544211155b61123557600080fd5b6004546001600160a01b0316331461125f5760405162461bcd60e51b81526004016105c990612ec7565b60016002838154811061126e57fe5b906000526020600020906008020160030160019054906101000a900460ff16600281111561129857fe5b146112b55760405162461bcd60e51b81526004016105c990612ba4565b600282815481106112c257fe5b600091825260209091206003600890920201015460ff16156112f65760405162461bcd60e51b81526004016105c990612d4f565b600254600354600091611309919061207b565b9050600061131d600a61085c846003612041565b60035490915061132d9083611e97565b600381905550816002858154811061134157fe5b90600052602060002090600802016002018190555060016002858154811061136557fe5b60009182526020909120600890910201600301805460ff191691151591909117905560015460405163a9059cbb60e01b81526001600160a01b039091169063a9059cbb906108da9033908690600401612a0d565b6010602052600090815260409020546001600160a01b031681565b600960205281600052604060002081815481106113ed57fe5b6000918252602090912060029091020180546001909101546001600160a01b039091169250905082565b60086020526000908152604090205481565b600e805460408051602060026001851615610100026000190190941693909304601f810184900484028201840190925281815292918301828280156114af5780601f10611484576101008083540402835291602001916114af565b820191906000526020600020905b81548152906001019060200180831161149257829003601f168201915b505050505081565b600f54604051635948284760e11b81526000916001600160a01b03169063b290508e906114e89033906004016129d5565b602060405180830381600087803b15801561150257600080fd5b505af1158015611516573d6000803e3d6000fd5b505050506040513d601f19601f8201168201806040525081019061153a919061279b565b9050806115595760405162461bcd60e51b81526004016105c990612e49565b611564848484612358565b50505050565b60135481565b6002818154811061157d57fe5b60009182526020909120600890910201805460018201546002830154600384015460048501546005909501549395509193909260ff80841693610100900416919087565b6001600160a01b031660009081526009602052604090205490565b6001600160a01b0382166000908152600860205260408120548190156116815760005b60065481101561167f576116756002858154811061161957fe5b906000526020600020906008020160060160006006848154811061163957fe5b60009182526020808320909101546001600160a01b0390811684528382019490945260409283018220938a1682529290925290205483906120bd565b91506001016115ff565b505b90505b92915050565b611692611ed9565b6000546001600160a01b039081169116146116bf5760405162461bcd60e51b81526004016105c990612e14565b6001600160a01b0381166116e55760405162461bcd60e51b81526004016105c990612bfa565b600080546040516001600160a01b03808516939216917f8be0079c531659141344cd1fd0a4f28419497f9722a3daafe3b4186f6b6457e091a3600080546001600160a01b0319166001600160a01b0392909216919091179055565b6012818154811061174d57fe5b600091825260209091200154905081565b6004546001600160a01b03163314156117895760405162461bcd60e51b81526004016105c990612cbc565b6001600160a01b038216600090815260076020526040902054829060ff1615156001146117c85760405162461bcd60e51b81526004016105c990612de6565b6000600283815481106117d757fe5b600091825260208083206001600160a01b038816845260066008909302019190910181526040808320338452909152902054116118265760405162461bcd60e51b81526004016105c990612ceb565b60006002838154811061183557fe5b600091825260208083206001600160a01b0388168452600660089093020191909101815260408083203384529091528120546005546002805492945061187f9287908110610da657fe5b905060006002858154811061189057fe5b600091825260208083206001600160a01b038a168452600660089093020191909101815260408083203384529091529020556003546118cf9083611e97565b6003556001600160a01b03851663a9059cbb336118ec8585611e97565b6040518363ffffffff1660e01b8152600401611909929190612a0d565b602060405180830381600087803b15801561192357600080fd5b505af1158015611937573d6000803e3d6000fd5b505050506040513d601f19601f8201168201806040525081019061195b919061279b565b5033600090815260086020526040902054611977906001611e97565b3360009081526008602052604090208190556119c257600061199833612542565b9050600581815481106119a757fe5b600091825260209091200180546001600160a01b0319169055505b610a338583612282565b6000606060006060806060600060606119e361117c565b600e8054604080516020601f60026000196101006001881615020190951694909404938401819004810282018101909252828152939b50830182828015611a6b5780601f10611a4057610100808354040283529160200191611a6b565b820191906000526020600020905b815481529060010190602001808311611a4e57829003601f168201915b50505050509650600d5495506012805480602002602001604051908101604052809291908181526020018280548015611ac357602002820191906000526020600020905b815481526020019060010190808311611aaf575b50506012549398505067ffffffffffffffff83119150508015611ae557600080fd5b50604051908082528060200260200182016040528015611b0f578160200160208202803683370190505b50935060005b601254811015611b89576010600060128381548110611b3057fe5b9060005260206000200154815260200190815260200160002060009054906101000a90046001600160a01b0316858281518110611b6957fe5b6001600160a01b0390921660209283029190910190910152600101611b15565b506000611b94610ed8565b90508067ffffffffffffffff81118015611bad57600080fd5b50604051908082528060200260200182016040528015611be757816020015b611bd4612687565b815260200190600190039081611bcc5790505b50935060005b81811015611d1b57611bfd612687565b60028281548110611c0a57fe5b90600052602060002090600802016040518060e00160405290816000820154815260200160018201548152602001600282015481526020016003820160009054906101000a900460ff161515151581526020016003820160019054906101000a900460ff166002811115611c7a57fe5b6002811115611c8557fe5b81526020016004820154815260200160058201548152505090506040518060e0016040528082600001518152602001826020015181526020018260400151815260200182606001511515815260200182608001516002811115611ce457fe5b81526020018260a0015181526020018260c00151815250868381518110611d0757fe5b602090810291909101015250600101611bed565b5060055460065490935067ffffffffffffffff81118015611d3b57600080fd5b50604051908082528060200260200182016040528015611d7557816020015b611d626126d1565b815260200190600190039081611d5a5790505b50915060005b600654811015611e2257604051806040016040528060068381548110611d9d57fe5b9060005260206000200160009054906101000a90046001600160a01b03166001600160a01b03168152602001600c600060068581548110611dda57fe5b60009182526020808320909101546001600160a01b0316835282019290925260400190205490528351849083908110611e0f57fe5b6020908102919091010152600101611d7b565b50509091929394959697565b60008060028381548110611e3e57fe5b90600052602060002090600802016000015460028481548110611e5d57fe5b90600052602060002090600802016001015491509150915091565b600c6020526000908152604090205481565b60058181548110610ac757fe5b600061168183836040518060400160405280601e81526020017f536166654d6174683a207375627472616374696f6e206f766572666c6f77000081525061259b565b3390565b611ee5612687565b8281526020810182815260006080830181815260a0840182905260c08401829052600280546001810182559281905284517f405787fa12a823e0f2b7631cc41b3ba8828b3321ca811111fa75cd3aa3bb5ace600890940293840190815593517f405787fa12a823e0f2b7631cc41b3ba8828b3321ca811111fa75cd3aa3bb5acf84015560408501517f405787fa12a823e0f2b7631cc41b3ba8828b3321ca811111fa75cd3aa3bb5ad084015560608501517f405787fa12a823e0f2b7631cc41b3ba8828b3321ca811111fa75cd3aa3bb5ad1909301805460ff19169315159390931780845591518594939092909161ff001990911690610100908490811115611fea57fe5b021790555060a0820151600482015560c090910151600590910155600254612013906001611e97565b6040517ff791e873e3b67fe74b29aeede7bcbbdaa59c4b64e542571183cd837aa56f6ac990600090a2505050565b60008261205057506000611684565b8282028284828161205d57fe5b04146116815760405162461bcd60e51b81526004016105c990612da5565b600061168183836040518060400160405280601a81526020017f536166654d6174683a206469766973696f6e206279207a65726f0000000000008152506125c7565b6000828201838110156116815760405162461bcd60e51b81526004016105c990612c40565b336000908152600b602090815260408083206001600160a01b038616845290915290205460ff166121ad57336000818152600960209081526040808320815180830183526001600160a01b03888116808352828601898152845460018082018755868a52888a209551600290920290950180546001600160a01b0319169190941617835551918301919091558686529154600a85528386208387528552838620600019919091019055948452600b83528184209084529091529020805460ff1916909117905561223f565b336000818152600a602090815260408083206001600160a01b038716845282528083205493835260099091529020805461220d918491849081106121ed57fe5b9060005260206000209060020201600101546120bd90919063ffffffff16565b33600090815260096020526040902080548390811061222857fe5b906000526020600020906002020160010181905550505b6001600160a01b0382166000908152600c602052604090205461226290826120bd565b6001600160a01b039092166000908152600c602052604090209190915550565b336000818152600a602090815260408083206001600160a01b03871684528252808320549383526009909152902080546122e2918491849081106122c257fe5b906000526020600020906002020160010154611e9790919063ffffffff16565b3360009081526009602052604090208054839081106122fd57fe5b60009182526020808320600160029093020191909101929092556001600160a01b0385168152600c90915260409020546123379083611e97565b6001600160a01b039093166000908152600c60205260409020929092555050565b6001600160a01b038216600090815260076020526040902054829060ff1615156001146123975760405162461bcd60e51b81526004016105c990612de6565b600084116123b75760405162461bcd60e51b81526004016105c990612e9b565b6123c23384846125fe565b6040516323b872dd60e01b81526001600160a01b038416906323b872dd906123f2903390309089906004016129e9565b602060405180830381600087803b15801561240c57600080fd5b505af1158015612420573d6000803e3d6000fd5b505050506040513d601f19601f82011682018060405250810190612444919061279b565b5061248e846002848154811061245657fe5b600091825260208083206001600160a01b038916845260066008909302019190910181526040808320338452909152902054906120bd565b6002838154811061249b57fe5b600091825260208083206001600160a01b0388168452600660089093020191909101815260408083203384529091529020556003546124da90856120bd565b600355336000908152600860205260409020546001141561253857600580546001810182556000919091527f036b6384b5eca791c62761152d0c79bb0604c104a5fb6f4eb0703f3154bb3db00180546001600160a01b031916331790555b61156483856120e2565b6000805b60055481101561259157826001600160a01b03166005828154811061256757fe5b6000918252602090912001546001600160a01b0316141561258957905061058f565b600101612546565b5060001992915050565b600081848411156125bf5760405162461bcd60e51b81526004016105c99190612b48565b505050900390565b600081836125e85760405162461bcd60e51b81526004016105c99190612b48565b5060008385816125f457fe5b0495945050505050565b60006002828154811061260d57fe5b600091825260208083206001600160a01b0387811685526008939093020160060181526040808420928816845291905290205411611177576001600160a01b0383166000908152600860205260409020546126699060016120bd565b6001600160a01b038416600090815260086020526040902055505050565b6040518060e00160405280600081526020016000815260200160008152602001600015158152602001600060028111156126bd57fe5b815260200160008152602001600081525090565b604080518082019091526000808252602082015290565b6000602082840312156126f9578081fd5b813561168181612fec565b60008060408385031215612716578081fd5b823561272181612fec565b9150602083013561273181612fec565b809150509250929050565b6000806040838503121561274e578182fd5b823561275981612fec565b946020939093013593505050565b60008060006060848603121561277b578081fd5b833561278681612fec565b95602085013595506040909401359392505050565b6000602082840312156127ac578081fd5b81518015158114611681578182fd5b6000602082840312156127cc578081fd5b5035919050565b600080604083850312156127e5578182fd5b50508035926020909101359150565b600080600060608486031215612808578283fd5b505081359360208301359350604090920135919050565b600060208284031215612830578081fd5b815161168181612fec565b60008060006060848603121561284f578283fd5b83359250602084013561286181612fec565b929592945050506040919091013590565b6000815180845260208085019450808401835b838110156128aa5781516001600160a01b031687529582019590820190600101612885565b509495945050505050565b6000815180845260208085019450808401835b838110156128aa578151805188528381015184890152604080820151908901526060808201516128fa828b0182612979565b505060808082015161290e828b018261297f565b505060a0818101519089015260c0908101519088015260e090960195908201906001016128c8565b6000815180845260208085019450808401835b838110156128aa57815180516001600160a01b031688528301518388015260409096019590820190600101612949565b15159052565b6003811061298957fe5b9052565b600081518084526129a5816020860160208601612fc0565b601f01601f19169290920160200192915050565b600082516129cb818460208701612fc0565b9190910192915050565b6001600160a01b0391909116815260200190565b6001600160a01b039384168152919092166020820152604081019190915260600190565b6001600160a01b03929092168252602082015260400190565b6001600160a01b0389168152610100602080830182905260009190612a4d8483018c61298d565b604085018b905284810360608601528951808252828b01935090820190845b81811015612a8857845183529383019391830191600101612a6c565b50508481036080860152612a9c818a612872565b9250505082810360a0840152612ab281876128b5565b90508460c084015282810360e0840152612acc8185612936565b9b9a5050505050505050505050565b602080825282518282018190526000919060409081850190868401855b82811015612b275781518051855286810151878601528501518585015260609093019290850190600101612af8565b5091979650505050505050565b901515815260200190565b90815260200190565b600060208252611681602083018461298d565b60208082526029908201527f42617365546f6b656e206275726e2070726f6365737320776173206e6f7420736040820152681d58d8d95cdcd99d5b60ba1b606082015260800190565b602080825260139082015272534c41206e6f7420726573706563746564202160681b604082015260600190565b6020808252600f908201526e534c4120726573706563746564202160881b604082015260600190565b60208082526026908201527f4f776e61626c653a206e6577206f776e657220697320746865207a65726f206160408201526564647265737360d01b606082015260800190565b6020808252601b908201527f536166654d6174683a206164646974696f6e206f766572666c6f770000000000604082015260600190565b60208082526025908201527f4f6e6c79204d657373656e6765722063616e2063616c6c20746869732066756e60408201526431ba34b7b760d91b606082015260800190565b602080825260159082015274596f752061726520612076616c696461746f72202160581b604082015260600190565b6020808252601b908201527f7374616b696e672062616c616e63652063616e6e6f7420626520300000000000604082015260600190565b6020808252601390820152721d1bdad95b88185b1c9958591e481859191959606a1b604082015260600190565b60208082526036908201527f596f75206861766520616c726561647920636c61696d656420796f75722072656040820152757761726420666f72207468697320706572696f64202160501b606082015260800190565b60208082526021908201527f536166654d6174683a206d756c7469706c69636174696f6e206f766572666c6f6040820152607760f81b606082015260800190565b6020808252601490820152731d1bdad95b881a5cc81b9bdd08185b1b1bddd95960621b604082015260600190565b6020808252818101527f4f776e61626c653a2063616c6c6572206973206e6f7420746865206f776e6572604082015260600190565b60208082526032908201527f736c6120776173206e6f742072656769737465726564206173207374616b656460408201527110313c903a34329036b9b39739b2b73232b960711b606082015260800190565b6020808252601290820152710616d6f756e742063616e6e6f7420626520360741b604082015260600190565b602080825260199082015278596f7520617265206e6f7420612076616c696461746f72202160381b604082015260600190565b6020808252603c908201527f596f75206861766520616c726561647920636c61696d656420796f757220636f60408201527f6d70656e736174696f6e20666f72207468697320706572696f64202100000000606082015260800190565b918252602082015260400190565b9283526020830191909152604082015260600190565b8781526020810187905260408101869052841515606082015260e0810160038510612fa257fe5b8460808301528360a08301528260c083015298975050505050505050565b60005b83811015612fdb578181015183820152602001612fc3565b838111156115645750506000910152565b6001600160a01b038116811461300157600080fd5b5056fea2646970667358221220d8b5b14ebbbafd506c9e1f20b206d020f8d0f4d6a4a390984d850dfb48f6fdd464736f6c634300060c00338be0079c531659141344cd1fd0a4f28419497f9722a3daafe3b4186f6b6457e0",
  "immutableReferences": {},
  "source": "// SPDX-License-Identifier: MIT\npragma solidity ^0.6.0;\npragma experimental ABIEncoderV2;\n\nimport \"@openzeppelin/contracts/access/Ownable.sol\";\nimport \"@openzeppelin/contracts/token/ERC20/IERC20.sol\";\nimport \"@openzeppelin/contracts/math/SafeMath.sol\";\nimport \"../SLO/SLO.sol\";\nimport \"../SLARegistry.sol\";\nimport \"./Staking.sol\";\n\n/**\n * @title SLA\n * @dev SLA is a service level agreement contract used for service downtime\n * compensation\n */\ncontract SLA is Ownable, Staking {\n    using SafeMath for uint256;\n\n    /// @dev The required amount to stake when subscribing to the agreement\n    uint256 public stake;\n\n    /// @dev The ipfs hash that stores extra information about the agreement\n    string public ipfsHash;\n\n    /// @dev The address of the registry contract\n    SLARegistry public registry;\n\n    /// @dev Struct used for storing registered SLI's\n    struct SLI {\n        uint256 timestamp;\n        uint256 value;\n        uint256 periodId;\n    }\n\n    struct SLAPeriod {\n        uint256 sla_period_start;\n        uint256 sla_period_end;\n        uint256 claimed_reward;\n        bool claimed;\n        Status status;\n        uint256 sli;\n        uint256 timestamp;\n    }\n\n    /// @dev mapping to get SLO addresses from SLO names in bytes32\n    mapping(bytes32 => SLO) public SLOs;\n\n    /// @dev mapping to get SLI structs from SLO names in bytes32\n    mapping(bytes32 => SLI[]) public SLIs;\n\n    /// @dev array storing the names of the SLO's of this agreement\n    bytes32[] public SLONames;\n\n    /// @dev block timestamp of SLA deployment\n    uint256 public blockNumberCreation;\n\n    /**\n     * @dev event for SLI creation logging\n     * @param _timestamp 1. the time the SLI has been registered\n     * @param _value 2. the value of the SLI\n     * @param _periodId 3. the id of the given period\n     */\n    event SLICreated(uint256 _timestamp, uint256 _value, uint256 _periodId);\n\n    /**\n     * @dev throws if called by any address other than the messenger contract.\n     */\n    modifier onlyMessenger() {\n        require(\n            msg.sender == address(registry.messenger()),\n            \"Only Messenger can call this function\"\n        );\n        _;\n    }\n\n    /**\n     * @dev throws if called by any address other than the messenger contract.\n     */\n    modifier onlySLARegistry() {\n        require(\n            msg.sender == address(registry),\n            \"Only SLARegistry can call this function\"\n        );\n        _;\n    }\n\n    /**\n     * @param _owner 1. address of the owner of the service level agreement\n     * @param _SLONames 2. array of the names of the service level objectives\n     * in bytes32\n     * @param _SLOs 3. array of service level objective contract addressess\n     * service level objective breach\n     * @param _stake 4. uint of the amount required to stake when signing the\n     * service level agreement\n     * @param _ipfsHash 5. string with the ipfs hash that contains extra\n     * information about the service level agreement\n     * @param _baseTokenAddress 6. address of the Base Token to be unlocked for staking\n     * @param _sla_period_starts 7. array with the values for the \"start\" of every period\n     * @param _sla_period_ends 8. array with the values for the \"end\" of every period\n     */\n    constructor(\n        address _owner,\n        bytes32[] memory _SLONames,\n        SLO[] memory _SLOs,\n        uint256 _stake,\n        string memory _ipfsHash,\n        address _baseTokenAddress,\n        uint256[] memory _sla_period_starts,\n        uint256[] memory _sla_period_ends\n    )\n        public\n        Staking(_baseTokenAddress, _sla_period_starts, _sla_period_ends, _owner)\n    {\n        require(_SLOs.length < 5, \"max amount of SLOs is 5\");\n        require(\n            _SLONames.length == _SLOs.length,\n            \"_SLONames and _SLOs should have the same length\"\n        );\n\n        for (uint256 i = 0; i < _SLOs.length; i++) {\n            SLOs[_SLONames[i]] = _SLOs[i];\n        }\n\n        transferOwnership(_owner);\n        SLONames = _SLONames;\n        stake = _stake;\n        ipfsHash = _ipfsHash;\n        registry = SLARegistry(msg.sender);\n        blockNumberCreation = block.number;\n    }\n\n    /**\n     * @dev external function to register SLI's and check them against the SLO's\n     * @param _SLOName 1. the name of the SLO in bytes32\n     * @param _value 2. the value of the SLI to check\n     * @param _periodId 3. the id of the given period\n     */\n    function registerSLI(\n        bytes32 _SLOName,\n        uint256 _value,\n        uint256 _periodId\n    ) external onlyMessenger {\n        SLIs[_SLOName].push(SLI(block.timestamp, _value, _periodId));\n        periods[_periodId].sli = _value;\n        periods[_periodId].timestamp = block.timestamp;\n\n        emit SLICreated(block.timestamp, _value, _periodId);\n\n        if (!SLOs[_SLOName].isSLOHonored(_value)) {\n            periods[_periodId].status = Status.NotRespected;\n        } else {\n            periods[_periodId].status = Status.Respected;\n        }\n    }\n\n    /**\n     * @dev external function to get SLIs of certain _SLO\n     * @param _SLOName 1. the name of the SLO in bytes32\n     * @return SLI[] array of SLIs associated to the input SLOs\n     */\n    function getSLI(bytes32 _SLOName) public view returns (SLI[] memory) {\n        return SLIs[_SLOName];\n    }\n\n    /**\n     * @dev external view function that returns all agreement information\n     * @return _slaOwner 1. address  owner\n     * @return _ipfsHash 2. string  ipfsHash\n     * @return _stake 3. uint256  amount necessary to stake\n     * @return _SLONames 4. bytes32[]  array\n     * @return _SLOAddresses 5. SLO[]  addresses array\n     * @return _SLAPeriods 6. SLAPeriod[]  addresses array\n     */\n\n    function getDetails()\n        external\n        view\n        returns (\n            address _slaOwner,\n            string memory _ipfsHash,\n            uint256 _stake,\n            bytes32[] memory _SLONames,\n            SLO[] memory _SLOAddresses,\n            SLAPeriod[] memory _SLAPeriods,\n            uint256 _stakersCount,\n            Staking.TokenStake[] memory _tokensStake\n        )\n    {\n        _slaOwner = owner();\n        _ipfsHash = ipfsHash;\n        _stake = stake;\n        _SLONames = SLONames;\n        _SLOAddresses = new SLO[](SLONames.length);\n\n        for (uint256 i = 0; i < SLONames.length; i++) {\n            _SLOAddresses[i] = SLOs[SLONames[i]];\n        }\n\n        uint256 periodsLength = getPeriodLength();\n        _SLAPeriods = new SLAPeriod[](periodsLength);\n        for (uint256 index = 0; index < periodsLength; index++) {\n            Staking.Period memory period = periods[index];\n            _SLAPeriods[index] = SLAPeriod({\n                sla_period_start: period.sla_period_start,\n                sla_period_end: period.sla_period_end,\n                claimed_reward: period.claimed_reward,\n                claimed: period.claimed,\n                status: period.status,\n                sli: period.sli,\n                timestamp: period.timestamp\n            });\n        }\n        _stakersCount = stakers.length;\n        _tokensStake = new Staking.TokenStake[](allowedTokens.length);\n        for (uint256 index = 0; index < allowedTokens.length; index++) {\n            _tokensStake[index] = Staking.TokenStake({\n                tokenAddress: allowedTokens[index],\n                stake: tokensPool[allowedTokens[index]]\n            });\n        }\n    }\n\n    /**\n     *@dev increase the _amount staked per _token of _sla\n     *@param _amount 1. amount to be staked\n     *@param _token 2. address of the ERC to be staked\n     *@param _period 3. period id to stake\n     */\n\n    function stakeTokens(\n        uint256 _amount,\n        address _token,\n        uint256 _period\n    ) public {\n        bool success = registry.registerStakedSla(msg.sender);\n        require(success, \"sla was not registered as staked by the msg.sender\");\n        _stakeTokens(_amount, _token, _period);\n    }\n}\n",
  "sourcePath": "/Users/matiasbn/Desktop/stacktical/stacktical-dsla-contracts/contracts/SLA/SLA.sol",
  "compiler": {
    "name": "solc",
    "version": "0.6.12+commit.27d51765.Emscripten.clang"
  },
  "schemaVersion": "3.3.3",
  "updatedAt": "2021-02-04T16:53:10.006Z",
  "devdoc": {
    "details": "SLA is a service level agreement contract used for service downtime compensation",
    "events": {
      "SLICreated(uint256,uint256,uint256)": {
        "details": "event for SLI creation logging",
        "params": {
          "_periodId": "3. the id of the given period",
          "_timestamp": "1. the time the SLI has been registered",
          "_value": "2. the value of the SLI"
        }
      }
    },
    "kind": "dev",
    "methods": {
      "addAllowedTokens(address)": {
        "details": "add a token to ve allowed for staking",
        "params": {
          "_token": "1. address of the new allowed token"
        }
      },
      "addNewPeriod(uint256,uint256)": {
        "details": "add a new period to the array",
        "params": {
          "_sla_period_end": "2. uint256 of the end of the period",
          "_sla_period_start": "1. uint256 of the start of the period"
        }
      },
      "claimCompensation(uint256)": {
        "details": "claim from delegators",
        "params": {
          "_period": "1. period id to claim"
        }
      },
      "claimReward(uint256)": {
        "details": "claim from validators",
        "params": {
          "_period": "1. period id to claim"
        }
      },
      "constructor": {
        "params": {
          "_SLONames": "2. array of the names of the service level objectives in bytes32",
          "_SLOs": "3. array of service level objective contract addressess service level objective breach",
          "_baseTokenAddress": "6. address of the Base Token to be unlocked for staking",
          "_ipfsHash": "5. string with the ipfs hash that contains extra information about the service level agreement",
          "_owner": "1. address of the owner of the service level agreement",
          "_sla_period_ends": "8. array with the values for the \"end\" of every period",
          "_sla_period_starts": "7. array with the values for the \"start\" of every period",
          "_stake": "4. uint of the amount required to stake when signing the service level agreement"
        }
      },
      "getDetails()": {
        "details": "external view function that returns all agreement information",
        "returns": {
          "_SLAPeriods": "6. SLAPeriod[]  addresses array",
          "_SLOAddresses": "5. SLO[]  addresses array",
          "_SLONames": "4. bytes32[]  array",
          "_ipfsHash": "2. string  ipfsHash",
          "_slaOwner": "1. address  owner",
          "_stake": "3. uint256  amount necessary to stake"
        }
      },
      "getPeriodLength()": {
        "details": "returns the length of the periods array"
      },
      "getSLI(bytes32)": {
        "details": "external function to get SLIs of certain _SLO",
        "params": {
          "_SLOName": "1. the name of the SLO in bytes32"
        },
        "returns": {
          "_0": "SLI[] array of SLIs associated to the input SLOs"
        }
      },
      "getTokenStake(address,uint256)": {
        "details": "returns the token stake according to index",
        "params": {
          "_index": "2. index of the TokenStake",
          "_owner": "1. owner of the stake"
        }
      },
      "getTokenStakeLength(address)": {
        "details": "returns the length of TokenStakes per user",
        "params": {
          "_owner": "1. owner of the stake"
        }
      },
      "getUserTotalValue(address,uint256)": {
        "details": "get the user total value staked",
        "params": {
          "_period": "2. period id to claim",
          "_user": "1. address of the user"
        }
      },
      "owner()": {
        "details": "Returns the address of the current owner."
      },
      "registerSLI(bytes32,uint256,uint256)": {
        "details": "external function to register SLI's and check them against the SLO's",
        "params": {
          "_SLOName": "1. the name of the SLO in bytes32",
          "_periodId": "3. the id of the given period",
          "_value": "2. the value of the SLI to check"
        }
      },
      "renounceOwnership()": {
        "details": "Leaves the contract without owner. It will not be possible to call `onlyOwner` functions anymore. Can only be called by the current owner. NOTE: Renouncing ownership will leave the contract without an owner, thereby removing any functionality that is only available to the owner."
      },
      "stakeTokens(uint256,address,uint256)": {
        "details": "increase the _amount staked per _token of _sla",
        "params": {
          "_amount": "1. amount to be staked",
          "_period": "3. period id to stake",
          "_token": "2. address of the ERC to be staked"
        }
      },
      "stakersCount()": {
        "details": "public view function that returns the total amount of stakers"
      },
      "transferOwnership(address)": {
        "details": "Transfers ownership of the contract to a new account (`newOwner`). Can only be called by the current owner."
      },
      "withdraw(address,uint256)": {
        "details": "withdraw staked tokens",
        "params": {
          "_period": "2. period id to withdraw",
          "_token": "1. address of the token"
        }
      },
      "withdrawAndStake(address,uint256,uint256)": {
        "details": "withdraw BaseToken and stake d Tokens",
        "params": {
          "_amount": "2. amount to withdraw",
          "_period": "3. period id to withdraw",
          "_token": "1. address of the token"
        }
      }
    },
    "stateVariables": {
      "SLIs": {
        "details": "mapping to get SLI structs from SLO names in bytes32"
      },
      "SLONames": {
        "details": "array storing the names of the SLO's of this agreement"
      },
      "SLOs": {
        "details": "mapping to get SLO addresses from SLO names in bytes32"
      },
      "blockNumberCreation": {
        "details": "block timestamp of SLA deployment"
      },
      "ipfsHash": {
        "details": "The ipfs hash that stores extra information about the agreement"
      },
      "registry": {
        "details": "The address of the registry contract"
      },
      "stake": {
        "details": "The required amount to stake when subscribing to the agreement"
      }
    },
    "title": "SLA",
    "version": 1
  },
  "userdoc": {
    "kind": "user",
    "methods": {},
    "version": 1
  }
}