{
  "contractName": "SLA",
  "abi": [
    {
      "inputs": [
        {
          "internalType": "address",
          "name": "_owner",
          "type": "address"
        },
        {
          "internalType": "bytes32[]",
          "name": "_SLONames",
          "type": "bytes32[]"
        },
        {
          "internalType": "contract SLO[]",
          "name": "_SLOs",
          "type": "address[]"
        },
        {
          "internalType": "uint256",
          "name": "_stake",
          "type": "uint256"
        },
        {
          "internalType": "string",
          "name": "_ipfsHash",
          "type": "string"
        },
        {
          "internalType": "uint256",
          "name": "_sliInterval",
          "type": "uint256"
        },
        {
          "internalType": "contract bDSLAToken",
          "name": "_tokenAddress",
          "type": "address"
        },
        {
          "internalType": "uint256[]",
          "name": "_sla_period_starts",
          "type": "uint256[]"
        },
        {
          "internalType": "uint256[]",
          "name": "_sla_period_ends",
          "type": "uint256[]"
        }
      ],
      "stateMutability": "nonpayable",
      "type": "constructor"
    },
    {
      "anonymous": false,
      "inputs": [
        {
          "indexed": true,
          "internalType": "uint256",
          "name": "period_index",
          "type": "uint256"
        }
      ],
      "name": "NewPeriodAdded",
      "type": "event"
    },
    {
      "anonymous": false,
      "inputs": [
        {
          "indexed": true,
          "internalType": "address",
          "name": "previousOwner",
          "type": "address"
        },
        {
          "indexed": true,
          "internalType": "address",
          "name": "newOwner",
          "type": "address"
        }
      ],
      "name": "OwnershipTransferred",
      "type": "event"
    },
    {
      "anonymous": false,
      "inputs": [
        {
          "indexed": false,
          "internalType": "uint256",
          "name": "_timestamp",
          "type": "uint256"
        },
        {
          "indexed": false,
          "internalType": "uint256",
          "name": "_value",
          "type": "uint256"
        },
        {
          "indexed": false,
          "internalType": "uint256",
          "name": "_periodId",
          "type": "uint256"
        }
      ],
      "name": "SLICreated",
      "type": "event"
    },
    {
      "inputs": [
        {
          "internalType": "bytes32",
          "name": "",
          "type": "bytes32"
        },
        {
          "internalType": "uint256",
          "name": "",
          "type": "uint256"
        }
      ],
      "name": "SLIs",
      "outputs": [
        {
          "internalType": "uint256",
          "name": "timestamp",
          "type": "uint256"
        },
        {
          "internalType": "uint256",
          "name": "value",
          "type": "uint256"
        },
        {
          "internalType": "uint256",
          "name": "periodId",
          "type": "uint256"
        }
      ],
      "stateMutability": "view",
      "type": "function"
    },
    {
      "inputs": [
        {
          "internalType": "bytes32",
          "name": "",
          "type": "bytes32"
        }
      ],
      "name": "SLOs",
      "outputs": [
        {
          "internalType": "contract SLO",
          "name": "",
          "type": "address"
        }
      ],
      "stateMutability": "view",
      "type": "function"
    },
    {
      "inputs": [
        {
          "internalType": "address",
          "name": "_token",
          "type": "address"
        }
      ],
      "name": "addAllowedTokens",
      "outputs": [],
      "stateMutability": "nonpayable",
      "type": "function"
    },
    {
      "inputs": [
        {
          "internalType": "uint256",
          "name": "_sla_period_start",
          "type": "uint256"
        },
        {
          "internalType": "uint256",
          "name": "_sla_period_end",
          "type": "uint256"
        }
      ],
      "name": "addNewPeriod",
      "outputs": [],
      "stateMutability": "nonpayable",
      "type": "function"
    },
    {
      "inputs": [
        {
          "internalType": "uint256",
          "name": "",
          "type": "uint256"
        }
      ],
      "name": "allowedTokens",
      "outputs": [
        {
          "internalType": "address",
          "name": "",
          "type": "address"
        }
      ],
      "stateMutability": "view",
      "type": "function"
    },
    {
      "inputs": [],
      "name": "bDSLA",
      "outputs": [
        {
          "internalType": "contract bDSLAToken",
          "name": "",
          "type": "address"
        }
      ],
      "stateMutability": "view",
      "type": "function"
    },
    {
      "inputs": [
        {
          "internalType": "uint256",
          "name": "_period",
          "type": "uint256"
        }
      ],
      "name": "claimCompensation",
      "outputs": [],
      "stateMutability": "nonpayable",
      "type": "function"
    },
    {
      "inputs": [
        {
          "internalType": "uint256",
          "name": "_period",
          "type": "uint256"
        }
      ],
      "name": "claimReward",
      "outputs": [],
      "stateMutability": "nonpayable",
      "type": "function"
    },
    {
      "inputs": [
        {
          "internalType": "uint256",
          "name": "_periodId",
          "type": "uint256"
        }
      ],
      "name": "getPeriodData",
      "outputs": [
        {
          "internalType": "uint256",
          "name": "periodStart",
          "type": "uint256"
        },
        {
          "internalType": "uint256",
          "name": "periodEnd",
          "type": "uint256"
        }
      ],
      "stateMutability": "view",
      "type": "function"
    },
    {
      "inputs": [
        {
          "internalType": "address",
          "name": "_user",
          "type": "address"
        },
        {
          "internalType": "uint256",
          "name": "_period",
          "type": "uint256"
        }
      ],
      "name": "getUserTotalValue",
      "outputs": [
        {
          "internalType": "uint256",
          "name": "",
          "type": "uint256"
        }
      ],
      "stateMutability": "view",
      "type": "function"
    },
    {
      "inputs": [],
      "name": "ipfsHash",
      "outputs": [
        {
          "internalType": "string",
          "name": "",
          "type": "string"
        }
      ],
      "stateMutability": "view",
      "type": "function"
    },
    {
      "inputs": [],
      "name": "owner",
      "outputs": [
        {
          "internalType": "address",
          "name": "",
          "type": "address"
        }
      ],
      "stateMutability": "view",
      "type": "function"
    },
    {
      "inputs": [
        {
          "internalType": "uint256",
          "name": "",
          "type": "uint256"
        }
      ],
      "name": "periods",
      "outputs": [
        {
          "internalType": "uint256",
          "name": "sla_period_start",
          "type": "uint256"
        },
        {
          "internalType": "uint256",
          "name": "sla_period_end",
          "type": "uint256"
        },
        {
          "internalType": "uint256",
          "name": "claimed_reward",
          "type": "uint256"
        },
        {
          "internalType": "bool",
          "name": "claimed",
          "type": "bool"
        },
        {
          "internalType": "enum Staking.Status",
          "name": "status",
          "type": "uint8"
        }
      ],
      "stateMutability": "view",
      "type": "function"
    },
    {
      "inputs": [],
      "name": "registry",
      "outputs": [
        {
          "internalType": "contract SLARegistry",
          "name": "",
          "type": "address"
        }
      ],
      "stateMutability": "view",
      "type": "function"
    },
    {
      "inputs": [],
      "name": "renounceOwnership",
      "outputs": [],
      "stateMutability": "nonpayable",
      "type": "function"
    },
    {
      "inputs": [],
      "name": "stake",
      "outputs": [
        {
          "internalType": "uint256",
          "name": "",
          "type": "uint256"
        }
      ],
      "stateMutability": "view",
      "type": "function"
    },
    {
      "inputs": [
        {
          "internalType": "uint256",
          "name": "_amount",
          "type": "uint256"
        },
        {
          "internalType": "address",
          "name": "_token",
          "type": "address"
        },
        {
          "internalType": "uint256",
          "name": "_period",
          "type": "uint256"
        }
      ],
      "name": "stakeTokens",
      "outputs": [],
      "stateMutability": "nonpayable",
      "type": "function"
    },
    {
      "inputs": [
        {
          "internalType": "uint256",
          "name": "",
          "type": "uint256"
        }
      ],
      "name": "stakers",
      "outputs": [
        {
          "internalType": "address",
          "name": "",
          "type": "address"
        }
      ],
      "stateMutability": "view",
      "type": "function"
    },
    {
      "inputs": [],
      "name": "stakersCount",
      "outputs": [
        {
          "internalType": "uint256",
          "name": "",
          "type": "uint256"
        }
      ],
      "stateMutability": "view",
      "type": "function"
    },
    {
      "inputs": [],
      "name": "totalStaked",
      "outputs": [
        {
          "internalType": "uint256",
          "name": "",
          "type": "uint256"
        }
      ],
      "stateMutability": "view",
      "type": "function"
    },
    {
      "inputs": [
        {
          "internalType": "address",
          "name": "newOwner",
          "type": "address"
        }
      ],
      "name": "transferOwnership",
      "outputs": [],
      "stateMutability": "nonpayable",
      "type": "function"
    },
    {
      "inputs": [
        {
          "internalType": "address",
          "name": "",
          "type": "address"
        }
      ],
      "name": "uniqueTokensStaked",
      "outputs": [
        {
          "internalType": "uint256",
          "name": "",
          "type": "uint256"
        }
      ],
      "stateMutability": "view",
      "type": "function"
    },
    {
      "inputs": [],
      "name": "validator",
      "outputs": [
        {
          "internalType": "address",
          "name": "",
          "type": "address"
        }
      ],
      "stateMutability": "view",
      "type": "function"
    },
    {
      "inputs": [
        {
          "internalType": "address",
          "name": "_token",
          "type": "address"
        },
        {
          "internalType": "uint256",
          "name": "_period",
          "type": "uint256"
        }
      ],
      "name": "withdraw",
      "outputs": [],
      "stateMutability": "nonpayable",
      "type": "function"
    },
    {
      "inputs": [
        {
          "internalType": "address",
          "name": "_token",
          "type": "address"
        },
        {
          "internalType": "uint256",
          "name": "_amount",
          "type": "uint256"
        },
        {
          "internalType": "uint256",
          "name": "_period",
          "type": "uint256"
        }
      ],
      "name": "withdrawAndStake",
      "outputs": [],
      "stateMutability": "nonpayable",
      "type": "function"
    },
    {
      "inputs": [
        {
          "internalType": "bytes32",
          "name": "_SLOName",
          "type": "bytes32"
        },
        {
          "internalType": "uint256",
          "name": "_value",
          "type": "uint256"
        },
        {
          "internalType": "uint256",
          "name": "_periodId",
          "type": "uint256"
        }
      ],
      "name": "registerSLI",
      "outputs": [],
      "stateMutability": "nonpayable",
      "type": "function"
    },
    {
      "inputs": [
        {
          "internalType": "bytes32",
          "name": "_SLOName",
          "type": "bytes32"
        }
      ],
      "name": "getSLI",
      "outputs": [
        {
          "components": [
            {
              "internalType": "uint256",
              "name": "timestamp",
              "type": "uint256"
            },
            {
              "internalType": "uint256",
              "name": "value",
              "type": "uint256"
            },
            {
              "internalType": "uint256",
              "name": "periodId",
              "type": "uint256"
            }
          ],
          "internalType": "struct SLA.SLI[]",
          "name": "",
          "type": "tuple[]"
        }
      ],
      "stateMutability": "view",
      "type": "function"
    },
    {
      "inputs": [],
      "name": "getSliInterval",
      "outputs": [
        {
          "internalType": "uint256",
          "name": "",
          "type": "uint256"
        }
      ],
      "stateMutability": "view",
      "type": "function"
    },
    {
      "inputs": [],
      "name": "getDetails",
      "outputs": [
        {
          "internalType": "address",
          "name": "",
          "type": "address"
        },
        {
          "internalType": "string",
          "name": "",
          "type": "string"
        },
        {
          "internalType": "uint256",
          "name": "",
          "type": "uint256"
        },
        {
          "internalType": "bytes32[]",
          "name": "",
          "type": "bytes32[]"
        },
        {
          "internalType": "contract SLO[]",
          "name": "",
          "type": "address[]"
        }
      ],
      "stateMutability": "view",
      "type": "function"
    }
  ],
  "bytecode": "0x60806040523480156200001157600080fd5b5060405162002da738038062002da7833981016040819052620000349162000755565b8282828b6000620000446200025c565b600080546001600160a01b0319166001600160a01b03831690811782556040519293509160008051602062002d87833981519152908290a3508151835114620000aa5760405162461bcd60e51b8152600401620000a190620008e7565b60405180910390fd5b600180546001600160a01b038087166001600160a01b03199283161780845560048054948501815560009081527f8a35acfbc15ff81a39ae7d344fd709f28e8600b4aa8c65c6b64bfe7fe36bd19b9094018054841691831691909117905560028054918516919092161790555b835181101562000164576200015b8482815181106200013257fe5b60200260200101518483815181106200014757fe5b60200260200101516200026060201b60201c565b60010162000117565b505050505060058751106200017857600080fd5b86518851146200018757600080fd5b60005b8751811015620001fb57878181518110620001a157fe5b6020026020010151600c60008b8481518110620001ba57fe5b602090810291909101810151825281019190915260400160002080546001600160a01b0319166001600160a01b03929092169190911790556001016200018a565b506200020789620003b0565b87516200021c90600e9060208b0190620004df565b50600886905584516200023790600a9060208801906200052f565b5050600b80546001600160a01b03191633179055505060095550620009f89350505050565b3390565b6200026a620005a1565b82815260208101828152600060808301818152600580546001810182559252835160069092027f036b6384b5eca791c62761152d0c79bb0604c104a5fb6f4eb0703f3154bb3db0810192835592517f036b6384b5eca791c62761152d0c79bb0604c104a5fb6f4eb0703f3154bb3db184015560408401517f036b6384b5eca791c62761152d0c79bb0604c104a5fb6f4eb0703f3154bb3db284015560608401517f036b6384b5eca791c62761152d0c79bb0604c104a5fb6f4eb0703f3154bb3db3909301805493151560ff199094169390931780845590518493909161ff0019166101008360028111156200035b57fe5b021790555050506200038260016005805490506200045d60201b620018ca1790919060201c565b6040517ff791e873e3b67fe74b29aeede7bcbbdaa59c4b64e542571183cd837aa56f6ac990600090a2505050565b620003ba6200025c565b6000546001600160a01b03908116911614620003ea5760405162461bcd60e51b8152600401620000a19062000930565b6001600160a01b038116620004135760405162461bcd60e51b8152600401620000a190620008a1565b600080546040516001600160a01b038085169392169160008051602062002d8783398151915291a3600080546001600160a01b0319166001600160a01b0392909216919091179055565b6000620004a783836040518060400160405280601e81526020017f536166654d6174683a207375627472616374696f6e206f766572666c6f770000815250620004b060201b60201c565b90505b92915050565b60008184841115620004d75760405162461bcd60e51b8152600401620000a191906200086c565b505050900390565b8280548282559060005260206000209081019282156200051d579160200282015b828111156200051d57825182559160200191906001019062000500565b506200052b929150620005dd565b5090565b828054600181600116156101000203166002900490600052602060002090601f016020900481019282601f106200057257805160ff19168380011785556200051d565b828001600101855582156200051d57918201828111156200051d57825182559160200191906001019062000500565b6040518060a0016040528060008152602001600081526020016000815260200160001515815260200160006002811115620005d857fe5b905290565b5b808211156200052b5760008155600101620005de565b8051620004aa81620009df565b600082601f83011262000612578081fd5b81516200062962000623826200098c565b62000965565b8181529150602080830190848101818402860182018710156200064b57600080fd5b60005b848110156200066c578151845292820192908201906001016200064e565b505050505092915050565b600082601f83011262000688578081fd5b81516200069962000623826200098c565b818152915060208083019084810181840286018201871015620006bb57600080fd5b60005b848110156200066c578151620006d481620009df565b84529282019290820190600101620006be565b600082601f830112620006f8578081fd5b81516001600160401b038111156200070e578182fd5b62000723601f8201601f191660200162000965565b91508082528360208285010111156200073b57600080fd5b6200074e816020840160208601620009ac565b5092915050565b60008060008060008060008060006101208a8c03121562000774578485fd5b620007808b8b620005f4565b60208b01519099506001600160401b03808211156200079d578687fd5b620007ab8d838e0162000601565b995060408c0151915080821115620007c1578687fd5b620007cf8d838e0162000677565b985060608c0151975060808c0151915080821115620007ec578687fd5b620007fa8d838e01620006e7565b965060a08c01519550620008128d60c08e01620005f4565b945060e08c015191508082111562000828578384fd5b620008368d838e0162000601565b93506101008c01519150808211156200084d578283fd5b506200085c8c828d0162000601565b9150509295985092959850929598565b60006020825282518060208401526200088d816040850160208701620009ac565b601f01601f19169190910160400192915050565b60208082526026908201527f4f776e61626c653a206e6577206f776e657220697320746865207a65726f206160408201526564647265737360d01b606082015260800190565b60208082526029908201527f506c6561736520636865636b2074686520706172616d73206f6620796f757220604082015268706572696f6473202160b81b606082015260800190565b6020808252818101527f4f776e61626c653a2063616c6c6572206973206e6f7420746865206f776e6572604082015260600190565b6040518181016001600160401b03811182821017156200098457600080fd5b604052919050565b60006001600160401b03821115620009a2578081fd5b5060209081020190565b60005b83811015620009c9578181015183820152602001620009af565b83811115620009d9576000848401525b50505050565b6001600160a01b0381168114620009f557600080fd5b50565b61237f8062000a086000396000f3fe608060405234801561001057600080fd5b506004361061018f5760003560e01c806394199c61116100e4578063e7ab816a11610092578063e7ab816a1461030e578063ea4a110414610316578063f10bd7721461033a578063f2fde38b1461034d578063f3fef3a314610360578063fbbf93a014610373578063fc875ece1461038c578063fd5e6dd1146103ad5761018f565b806394199c6114610283578063a2e80c5e146102a5578063ae169a50146102ad578063b0227b47146102c0578063b83e0234146102d3578063c623674f146102e6578063cec534d6146102fb5761018f565b80635f4efaba116101415780635f4efaba14610235578063715018a61461023d57806375fdf2a9146102455780637b10399914610258578063817b1cd214610260578063869c3925146102685780638da5cb5b1461027b5761018f565b806302e8b893146101945780630e1fcf34146101bd578063171e44ea146101d25780633a4b66f1146101e55780633a5381b5146101fa57806353e85fd51461020f5780635e5f2e2614610222575b600080fd5b6101a76101a2366004611d62565b6103c0565b6040516101b49190611f5a565b60405180910390f35b6101d06101cb366004611d7a565b610451565b005b6101d06101e0366004611cc7565b61049d565b6101ed610524565b6040516101b491906122cd565b61020261052a565b6040516101b49190611e64565b6101d061021d366004611d62565b610539565b610202610230366004611d62565b6107b3565b6102026107da565b6101d06107e9565b6101d0610253366004611d0e565b610868565b610202610b93565b6101ed610ba2565b6101d0610276366004611d9b565b610ba8565b610202610df3565b610296610291366004611d7a565b610e02565b6040516101b4939291906122e4565b6101ed610e41565b6101d06102bb366004611d62565b610e47565b6102026102ce366004611d62565b611021565b6101ed6102e1366004611cc7565b61103c565b6102ee61104e565b6040516101b49190611fb3565b6101d0610309366004611de2565b6110dc565b6101ed6112a6565b610329610324366004611d62565b6112ac565b6040516101b49594939291906122fa565b6101ed610348366004611ce3565b6112ef565b6101d061035b366004611cc7565b61139d565b6101d061036e366004611ce3565b611453565b61037b6116a3565b6040516101b4959493929190611eb5565b61039f61039a366004611d62565b611873565b6040516101b49291906122d6565b6102026103bb366004611d62565b6118bd565b6060600d6000838152602001908152602001600020805480602002602001604051908101604052809291908181526020016000905b8282101561044557838290600052602060002090600302016040518060600160405290816000820154815260200160018201548152602001600282015481525050815260200190600101906103f5565b5050505090505b919050565b61045961190c565b6000546001600160a01b0390811691161461048f5760405162461bcd60e51b815260040161048690612196565b60405180910390fd5b6104998282611910565b5050565b6104a561190c565b6000546001600160a01b039081169116146104d25760405162461bcd60e51b815260040161048690612196565b600480546001810182556000919091527f8a35acfbc15ff81a39ae7d344fd709f28e8600b4aa8c65c6b64bfe7fe36bd19b0180546001600160a01b0319166001600160a01b0392909216919091179055565b60085481565b6002546001600160a01b031681565b806005818154811061054757fe5b906000526020600020906006020160000154421015801561058657506005818154811061057057fe5b9060005260206000209060060201600101544211155b61058f57600080fd5b6002546001600160a01b03163314156105ba5760405162461bcd60e51b815260040161048690612099565b6002600583815481106105c957fe5b906000526020600020906006020160030160019054906101000a900460ff1660028111156105f357fe5b146106105760405162461bcd60e51b815260040161048690611ff3565b6005828154811061061d57fe5b60009182526020808320338452600560069093020191909101905260409020541561065a5760405162461bcd60e51b815260040161048690612270565b600061066633846112ef565b90506000610680600a61067a846003611a4b565b90611a85565b60075490915061069090836118ca565b60078190555081600585815481106106a457fe5b600091825260208083203380855260069390930201600501905260409182902092909255600154905163a9059cbb60e01b81526001600160a01b039091169163a9059cbb916106f891908690600401611e9c565b602060405180830381600087803b15801561071257600080fd5b505af1158015610726573d6000803e3d6000fd5b505050506040513d601f19601f8201168201806040525081019061074a9190611d42565b50600154604051630852cd8d60e31b81526001600160a01b03909116906342966c689061077b9084906004016122cd565b600060405180830381600087803b15801561079557600080fd5b505af11580156107a9573d6000803e3d6000fd5b5050505050505050565b600481815481106107c057fe5b6000918252602090912001546001600160a01b0316905081565b6001546001600160a01b031681565b6107f161190c565b6000546001600160a01b0390811691161461081e5760405162461bcd60e51b815260040161048690612196565b600080546040516001600160a01b03909116907f8be0079c531659141344cd1fd0a4f28419497f9722a3daafe3b4186f6b6457e0908390a3600080546001600160a01b0319169055565b6002546001600160a01b03163314156108935760405162461bcd60e51b815260040161048690612099565b6000600582815481106108a257fe5b600091825260208083206001600160a01b038816845260046006909302019190910181526040808320338452909152902054116108f15760405162461bcd60e51b8152600401610486906120c8565b6108fa83611ac7565b6109165760405162461bcd60e51b8152600401610486906121f7565b6040516323b872dd60e01b81526001600160a01b038416906323b872dd9061094690339030908790600401611e78565b602060405180830381600087803b15801561096057600080fd5b505af1158015610974573d6000803e3d6000fd5b505050506040513d601f19601f820116820180604052508101906109989190611d42565b506109e282600583815481106109aa57fe5b600091825260208083206001600160a01b03891684526004600690930201919091018152604080832033845290915290205490611b22565b600582815481106109ef57fe5b600091825260208083206001600160a01b038816845260046006909302019190910181526040808320338452909152902055600754610a2e9083611b22565b600781905550600060058281548110610a4357fe5b600091825260208083206001600160a01b03881684526004600690930201919091018152604080832033845290915281205460035460058054929450610aad9286908110610a8d57fe5b906000526020600020906006020160020154611a8590919063ffffffff16565b9050600060058481548110610abe57fe5b600091825260208083206001600160a01b038a16845260046006909302019190910181526040808320338452909152902055600754610afd90836118ca565b6007556001546001600160a01b031663a9059cbb33610b1c85856118ca565b6040518363ffffffff1660e01b8152600401610b39929190611e9c565b602060405180830381600087803b158015610b5357600080fd5b505af1158015610b67573d6000803e3d6000fd5b505050506040513d601f19601f82011682018060405250810190610b8b9190611d42565b505050505050565b600b546001600160a01b031681565b60075481565b600b60009054906101000a90046001600160a01b03166001600160a01b0316633cb747bf6040518163ffffffff1660e01b815260040160206040518083038186803b158015610bf657600080fd5b505afa158015610c0a573d6000803e3d6000fd5b505050506040513d601f19601f82011682018060405250810190610c2e9190611dc6565b6001600160a01b0316336001600160a01b031614610c4b57600080fd5b6000838152600d6020908152604080832081516060810183524280825281850188815282850188815284546001818101875595895296909720925160039096029092019485559051918401919091559251600290920191909155517fc95987c1992805ee34bdc915e017cceae36ba1c156b9911fa7e691e6435eb46e91610cd591859085906122e4565b60405180910390a16000838152600c60205260409081902054905163868d08f760e01b81526001600160a01b039091169063868d08f790610d1a9085906004016122cd565b60206040518083038186803b158015610d3257600080fd5b505afa158015610d46573d6000803e3d6000fd5b505050506040513d601f19601f82011682018060405250810190610d6a9190611d42565b610db057600260058281548110610d7d57fe5b60009182526020909120600360069092020101805461ff001916610100836002811115610da657fe5b0217905550610dee565b600160058281548110610dbf57fe5b60009182526020909120600360069092020101805461ff001916610100836002811115610de857fe5b02179055505b505050565b6000546001600160a01b031690565b600d6020528160005260406000208181548110610e1b57fe5b600091825260209091206003909102018054600182015460029092015490935090915083565b60035490565b8060058181548110610e5557fe5b9060005260206000209060060201600001544210158015610e94575060058181548110610e7e57fe5b9060005260206000209060060201600101544211155b610e9d57600080fd5b6002546001600160a01b03163314610ec75760405162461bcd60e51b81526004016104869061223d565b600160058381548110610ed657fe5b906000526020600020906006020160030160019054906101000a900460ff166002811115610f0057fe5b14610f1d5760405162461bcd60e51b815260040161048690611fc6565b60058281548110610f2a57fe5b600091825260209091206003600690920201015460ff1615610f5e5760405162461bcd60e51b8152600401610486906120ff565b600554600754600091610f719190611a85565b90506000610f85600a61067a846003611a4b565b600754909150610f9590836118ca565b6007819055508160058581548110610fa957fe5b906000526020600020906006020160020181905550600160058581548110610fcd57fe5b60009182526020909120600690910201600301805460ff191691151591909117905560015460405163a9059cbb60e01b81526001600160a01b039091169063a9059cbb906106f89033908690600401611e9c565b600c602052600090815260409020546001600160a01b031681565b60066020526000908152604090205481565b600a805460408051602060026001851615610100026000190190941693909304601f810184900484028201840190925281815292918301828280156110d45780601f106110a9576101008083540402835291602001916110d4565b820191906000526020600020905b8154815290600101906020018083116110b757829003601f168201915b505050505081565b600083116110fc5760405162461bcd60e51b8152600401610486906121cb565b61110582611ac7565b6111215760405162461bcd60e51b8152600401610486906121f7565b61112c338383611b47565b6040516323b872dd60e01b81526001600160a01b038316906323b872dd9061115c90339030908890600401611e78565b602060405180830381600087803b15801561117657600080fd5b505af115801561118a573d6000803e3d6000fd5b505050506040513d601f19601f820116820180604052508101906111ae9190611d42565b506111f883600583815481106111c057fe5b600091825260208083206001600160a01b03881684526004600690930201919091018152604080832033845290915290205490611b22565b6005828154811061120557fe5b600091825260208083206001600160a01b0387168452600460069093020191909101815260408083203384529091529020556007546112449084611b22565b6007553360009081526006602052604090205460011415610dee57600380546001810182556000919091527fc2575a0e9e593c00f959f8c92f12db2869c3395a3b0502d05e2516446f71f85b0180546001600160a01b03191633179055505050565b60095490565b600581815481106112b957fe5b60009182526020909120600690910201805460018201546002830154600390930154919350919060ff8082169161010090041685565b6001600160a01b0382166000908152600660205260408120548190156113945760005b600454811015611392576113886005858154811061132c57fe5b906000526020600020906006020160040160006004848154811061134c57fe5b60009182526020808320909101546001600160a01b0390811684528382019490945260409283018220938a168252929092529020548390611b22565b9150600101611312565b505b90505b92915050565b6113a561190c565b6000546001600160a01b039081169116146113d25760405162461bcd60e51b815260040161048690612196565b6001600160a01b0381166113f85760405162461bcd60e51b81526004016104869061201c565b600080546040516001600160a01b03808516939216917f8be0079c531659141344cd1fd0a4f28419497f9722a3daafe3b4186f6b6457e091a3600080546001600160a01b0319166001600160a01b0392909216919091179055565b6002546001600160a01b031633141561147e5760405162461bcd60e51b815260040161048690612099565b60006005828154811061148d57fe5b600091825260208083206001600160a01b038716845260046006909302019190910181526040808320338452909152902054116114dc5760405162461bcd60e51b8152600401610486906120c8565b6114e582611ac7565b6115015760405162461bcd60e51b8152600401610486906121f7565b60006005828154811061151057fe5b600091825260208083206001600160a01b0387168452600460069093020191909101815260408083203384529091528120546003546005805492945061155a9286908110610a8d57fe5b905060006005848154811061156b57fe5b600091825260208083206001600160a01b0389168452600460069093020191909101815260408083203384529091529020556007546115aa90836118ca565b6007556001600160a01b03841663a9059cbb336115c785856118ca565b6040518363ffffffff1660e01b81526004016115e4929190611e9c565b602060405180830381600087803b1580156115fe57600080fd5b505af1158015611612573d6000803e3d6000fd5b505050506040513d601f19601f820116820180604052508101906116369190611d42565b50336000908152600660205260409020546116529060016118ca565b33600090815260066020526040902081905561169d57600061167333611bd0565b90506003818154811061168257fe5b600091825260209091200180546001600160a01b0319169055505b50505050565b6000606060006060806060600e8054905067ffffffffffffffff811180156116ca57600080fd5b506040519080825280602002602001820160405280156116f4578160200160208202803683370190505b50905060005b600e5481101561176e57600c6000600e838154811061171557fe5b9060005260206000200154815260200190815260200160002060009054906101000a90046001600160a01b031682828151811061174e57fe5b6001600160a01b03909216602092830291909101909101526001016116fa565b50611777610df3565b600854600a805460408051602060026001851615610100026000190190941693909304601f8101849004840282018401909252818152929392600e92879286918301828280156118085780601f106117dd57610100808354040283529160200191611808565b820191906000526020600020905b8154815290600101906020018083116117eb57829003601f168201915b505050505093508180548060200260200160405190810160405280929190818152602001828054801561185a57602002820191906000526020600020905b815481526020019060010190808311611846575b5050505050915095509550955095509550509091929394565b6000806005838154811061188357fe5b906000526020600020906006020160000154600584815481106118a257fe5b90600052602060002090600602016001015491509150915091565b600381815481106107c057fe5b600061139483836040518060400160405280601e81526020017f536166654d6174683a207375627472616374696f6e206f766572666c6f770000815250611c29565b3390565b611918611c8c565b82815260208101828152600060808301818152600580546001810182559252835160069092027f036b6384b5eca791c62761152d0c79bb0604c104a5fb6f4eb0703f3154bb3db0810192835592517f036b6384b5eca791c62761152d0c79bb0604c104a5fb6f4eb0703f3154bb3db184015560408401517f036b6384b5eca791c62761152d0c79bb0604c104a5fb6f4eb0703f3154bb3db284015560608401517f036b6384b5eca791c62761152d0c79bb0604c104a5fb6f4eb0703f3154bb3db3909301805493151560ff199094169390931780845590518493909161ff001916610100836002811115611a0857fe5b021790555050600554611a1d915060016118ca565b6040517ff791e873e3b67fe74b29aeede7bcbbdaa59c4b64e542571183cd837aa56f6ac990600090a2505050565b600082611a5a57506000611397565b82820282848281611a6757fe5b04146113945760405162461bcd60e51b815260040161048690612155565b600061139483836040518060400160405280601a81526020017f536166654d6174683a206469766973696f6e206279207a65726f000000000000815250611c55565b6000805b600454811015611b1957826001600160a01b031660048281548110611aec57fe5b6000918252602090912001546001600160a01b03161415611b1157600191505061044c565b600101611acb565b50600092915050565b6000828201838110156113945760405162461bcd60e51b815260040161048690612062565b600060058281548110611b5657fe5b600091825260208083206001600160a01b0387811685526006939093020160040181526040808420928816845291905290205411610dee576001600160a01b038316600090815260066020526040902054611bb2906001611b22565b6001600160a01b038416600090815260066020526040902055505050565b6000805b600354811015611c1f57826001600160a01b031660038281548110611bf557fe5b6000918252602090912001546001600160a01b03161415611c1757905061044c565b600101611bd4565b5060001992915050565b60008184841115611c4d5760405162461bcd60e51b81526004016104869190611fb3565b505050900390565b60008183611c765760405162461bcd60e51b81526004016104869190611fb3565b506000838581611c8257fe5b0495945050505050565b6040518060a0016040528060008152602001600081526020016000815260200160001515815260200160006002811115611cc257fe5b905290565b600060208284031215611cd8578081fd5b813561139481612331565b60008060408385031215611cf5578081fd5b8235611d0081612331565b946020939093013593505050565b600080600060608486031215611d22578081fd5b8335611d2d81612331565b95602085013595506040909401359392505050565b600060208284031215611d53578081fd5b81518015158114611394578182fd5b600060208284031215611d73578081fd5b5035919050565b60008060408385031215611d8c578182fd5b50508035926020909101359150565b600080600060608486031215611daf578283fd5b505081359360208301359350604090920135919050565b600060208284031215611dd7578081fd5b815161139481612331565b600080600060608486031215611df6578283fd5b833592506020840135611e0881612331565b929592945050506040919091013590565b60008151808452815b81811015611e3e57602081850181015186830182015201611e22565b81811115611e4f5782602083870101525b50601f01601f19169290920160200192915050565b6001600160a01b0391909116815260200190565b6001600160a01b039384168152919092166020820152604081019190915260600190565b6001600160a01b03929092168252602082015260400190565b600060018060a01b038088168352602060a081850152611ed860a0850189611e19565b604085018890528481036060860152865180825282880191830190855b81811015611f1157835183529284019291840191600101611ef5565b505085810360808701528651808252908301915082870190855b81811015611f49578251861684529284019291840191600101611f2b565b50919b9a5050505050505050505050565b602080825282518282018190526000919060409081850190868401855b82811015611fa65781518051855286810151878601528501518585015260609093019290850190600101611f77565b5091979650505050505050565b6000602082526113946020830184611e19565b602080825260139082015272534c41206e6f7420726573706563746564202160681b604082015260600190565b6020808252600f908201526e534c4120726573706563746564202160881b604082015260600190565b60208082526026908201527f4f776e61626c653a206e6577206f776e657220697320746865207a65726f206160408201526564647265737360d01b606082015260800190565b6020808252601b908201527f536166654d6174683a206164646974696f6e206f766572666c6f770000000000604082015260600190565b602080825260159082015274596f752061726520612076616c696461746f72202160581b604082015260600190565b6020808252601b908201527f7374616b696e672062616c616e63652063616e6e6f7420626520300000000000604082015260600190565b60208082526036908201527f596f75206861766520616c726561647920636c61696d656420796f75722072656040820152757761726420666f72207468697320706572696f64202160501b606082015260800190565b60208082526021908201527f536166654d6174683a206d756c7469706c69636174696f6e206f766572666c6f6040820152607760f81b606082015260800190565b6020808252818101527f4f776e61626c653a2063616c6c6572206973206e6f7420746865206f776e6572604082015260600190565b6020808252601290820152710616d6f756e742063616e6e6f7420626520360741b604082015260600190565b60208082526026908201527f746f6b656e2073686f756c64206265206175746f726973656420746f206265206040820152651cdd185ad95960d21b606082015260800190565b602080825260199082015278596f7520617265206e6f7420612076616c696461746f72202160381b604082015260600190565b6020808252603c908201527f596f75206861766520616c726561647920636c61696d656420796f757220636f60408201527f6d70656e736174696f6e20666f72207468697320706572696f64202100000000606082015260800190565b90815260200190565b918252602082015260400190565b9283526020830191909152604082015260600190565b8581526020810185905260408101849052821515606082015260a081016003831061232157fe5b8260808301529695505050505050565b6001600160a01b038116811461234657600080fd5b5056fea264697066735822122049d8edd95bfda3fb5ab314814d3caac1e9201cf9bdc2650b6b7d521f37d3fce864736f6c634300060c00338be0079c531659141344cd1fd0a4f28419497f9722a3daafe3b4186f6b6457e0",
  "immutableReferences": {},
  "source": "// SPDX-License-Identifier: MIT\npragma solidity ^0.6.0;\npragma experimental ABIEncoderV2;\n\nimport \"@openzeppelin/contracts/access/Ownable.sol\";\nimport \"@openzeppelin/contracts/token/ERC20/IERC20.sol\";\nimport \"@openzeppelin/contracts/math/SafeMath.sol\";\nimport \"../interfaces/IMessenger.sol\";\nimport \"../SLO/SLO.sol\";\nimport \"../SLARegistry.sol\";\nimport \"./Staking.sol\";\n\n/**\n * @title SLA\n * @dev SLA is a service level agreement contract used for service downtime\n * compensation\n */\ncontract SLA is Ownable, Staking {\n    using SafeMath for uint256;\n\n    // The required amount to stake when subscribing to the agreement\n    uint256 public stake;\n\n    // The time between SLI registration\n    uint256 private sliInterval;\n\n    // The ipfs hash that stores extra information about the agreement\n    string public ipfsHash;\n\n    // The address of the registry contract\n    SLARegistry public registry;\n\n    // Struct used for storing registered SLI's\n    struct SLI {\n        uint256 timestamp;\n        uint256 value;\n        uint256 periodId;\n    }\n\n    // Mapping to get SLO addresses from SLO names in bytes32\n    mapping(bytes32 => SLO) public SLOs;\n\n    // Mapping to get SLI structs from SLO names in bytes32\n    mapping(bytes32 => SLI[]) public SLIs;\n\n    // Array storing the names of the SLO's of this agreement\n    bytes32[] SLONames;\n\n    /**\n     * @dev event for SLI creation logging\n     * @param _timestamp the time the SLI has been registered\n     * @param _value the value of the SLI\n     * @param _periodId the id of the given period\n     */\n    event SLICreated(uint256 _timestamp, uint256 _value, uint256 _periodId);\n\n    /**\n     * @dev Throws if called by any address other than the Oraclize or\n     * messenger contract.\n     */\n    modifier onlyMessenger() {\n        require(msg.sender == address(registry.messenger()));\n        _;\n    }\n\n    /**\n     * @dev constructor\n     * @param _owner the owner of the service level agreement\n     * @param _SLONames the names of the service level objectives in a bytes32\n     * array\n     * @param _SLOs an array with the service level objective addresses\n     * @param _stake the amount required to stake when subscribing to the\n     * agreement\n     * @param _ipfsHash the ipfs hash that stores extra information about the\n     * agreement\n     */\n    constructor(\n        address _owner,\n        bytes32[] memory _SLONames,\n        SLO[] memory _SLOs,\n        uint256 _stake,\n        string memory _ipfsHash,\n        uint256 _sliInterval,\n        bDSLAToken _tokenAddress,\n        uint256[] memory _sla_period_starts,\n        uint256[] memory _sla_period_ends\n    )\n        public\n        Staking(_tokenAddress, _sla_period_starts, _sla_period_ends, _owner)\n    {\n        require(_SLOs.length < 5);\n        require(_SLONames.length == _SLOs.length);\n\n        for (uint256 i = 0; i < _SLOs.length; i++) {\n            SLOs[_SLONames[i]] = _SLOs[i];\n        }\n\n        transferOwnership(_owner);\n        SLONames = _SLONames;\n        stake = _stake;\n        ipfsHash = _ipfsHash;\n        registry = SLARegistry(msg.sender);\n        sliInterval = _sliInterval;\n    }\n\n    /**\n     * @dev external function to register SLI's and check them against the SLO's\n     * @param _SLOName the name of the SLO in bytes32\n     * @param _value the value of the SLI to check\n     * @param _periodId the id of the given period\n     */\n    function registerSLI(\n        bytes32 _SLOName,\n        uint256 _value,\n        uint256 _periodId\n    ) external onlyMessenger {\n        SLIs[_SLOName].push(SLI(block.timestamp, _value, _periodId));\n\n        emit SLICreated(block.timestamp, _value, _periodId);\n\n        if (!SLOs[_SLOName].isSLOHonored(_value)) {\n            periods[_periodId].status = Status.NotRespected;\n        } else {\n            periods[_periodId].status = Status.Respected;\n        }\n    }\n\n    /**\n     * @dev external function to get SLI\n     * @param _SLOName the name of the SLO in bytes32\n     */\n    function getSLI(bytes32 _SLOName) public view returns (SLI[] memory) {\n        return SLIs[_SLOName];\n    }\n\n    /**\n     * @dev external view function that returns the sliInterval value\n     */\n    function getSliInterval() external view returns (uint256) {\n        return sliInterval;\n    }\n\n    /**\n     * @dev external view function that returns all agreement information\n     */\n\n    function getDetails()\n        external\n        view\n        returns (\n            address,\n            string memory,\n            uint256,\n            bytes32[] memory,\n            SLO[] memory\n        )\n    {\n        SLO[] memory _SLOAddresses = new SLO[](SLONames.length);\n\n        for (uint256 i = 0; i < SLONames.length; i++) {\n            _SLOAddresses[i] = SLOs[SLONames[i]];\n        }\n\n        return (owner(), ipfsHash, stake, SLONames, _SLOAddresses);\n    }\n}\n",
  "sourcePath": "/Users/matiasbn/Desktop/stacktical-dsla-contracts/contracts/SLA/SLA.sol",
  "compiler": {
    "name": "solc",
    "version": "0.6.12+commit.27d51765.Emscripten.clang"
  },
  "schemaVersion": "3.2.5",
  "updatedAt": "2020-12-10T20:18:18.299Z",
  "devdoc": {
    "details": "SLA is a service level agreement contract used for service downtime compensation",
    "events": {
      "SLICreated(uint256,uint256,uint256)": {
        "details": "event for SLI creation logging",
        "params": {
          "_periodId": "the id of the given period",
          "_timestamp": "the time the SLI has been registered",
          "_value": "the value of the SLI"
        }
      }
    },
    "kind": "dev",
    "methods": {
      "constructor": {
        "details": "constructor",
        "params": {
          "_SLONames": "the names of the service level objectives in a bytes32 array",
          "_SLOs": "an array with the service level objective addresses",
          "_ipfsHash": "the ipfs hash that stores extra information about the agreement",
          "_owner": "the owner of the service level agreement",
          "_stake": "the amount required to stake when subscribing to the agreement"
        }
      },
      "getDetails()": {
        "details": "external view function that returns all agreement information"
      },
      "getSLI(bytes32)": {
        "details": "external function to get SLI",
        "params": {
          "_SLOName": "the name of the SLO in bytes32"
        }
      },
      "getSliInterval()": {
        "details": "external view function that returns the sliInterval value"
      },
      "owner()": {
        "details": "Returns the address of the current owner."
      },
      "registerSLI(bytes32,uint256,uint256)": {
        "details": "external function to register SLI's and check them against the SLO's",
        "params": {
          "_SLOName": "the name of the SLO in bytes32",
          "_periodId": "the id of the given period",
          "_value": "the value of the SLI to check"
        }
      },
      "renounceOwnership()": {
        "details": "Leaves the contract without owner. It will not be possible to call `onlyOwner` functions anymore. Can only be called by the current owner. NOTE: Renouncing ownership will leave the contract without an owner, thereby removing any functionality that is only available to the owner."
      },
      "stakersCount()": {
        "details": "public view function that returns the total amount of stakers"
      },
      "transferOwnership(address)": {
        "details": "Transfers ownership of the contract to a new account (`newOwner`). Can only be called by the current owner."
      }
    },
    "title": "SLA",
    "version": 1
  },
  "userdoc": {
    "kind": "user",
    "methods": {},
    "version": 1
  }
}