{
  "contractName": "SLA",
  "abi": [
    {
      "inputs": [
        {
          "internalType": "address",
          "name": "_owner",
          "type": "address"
        },
        {
          "internalType": "contract SLO",
          "name": "_SLO",
          "type": "address"
        },
        {
          "internalType": "string",
          "name": "_ipfsHash",
          "type": "string"
        },
        {
          "internalType": "address",
          "name": "_messengerAddress",
          "type": "address"
        },
        {
          "internalType": "uint256[]",
          "name": "_periodIds",
          "type": "uint256[]"
        },
        {
          "internalType": "enum PeriodRegistry.PeriodType",
          "name": "_periodType",
          "type": "uint8"
        },
        {
          "internalType": "address",
          "name": "_stakeRegistry",
          "type": "address"
        },
        {
          "internalType": "address",
          "name": "_periodRegistry",
          "type": "address"
        },
        {
          "internalType": "bool",
          "name": "_whitelisted",
          "type": "bool"
        },
        {
          "internalType": "bytes32[]",
          "name": "_extraData",
          "type": "bytes32[]"
        },
        {
          "internalType": "uint256",
          "name": "_slaID",
          "type": "uint256"
        }
      ],
      "stateMutability": "nonpayable",
      "type": "constructor"
    },
    {
      "anonymous": false,
      "inputs": [
        {
          "indexed": true,
          "internalType": "address",
          "name": "previousOwner",
          "type": "address"
        },
        {
          "indexed": true,
          "internalType": "address",
          "name": "newOwner",
          "type": "address"
        }
      ],
      "name": "OwnershipTransferred",
      "type": "event"
    },
    {
      "anonymous": false,
      "inputs": [
        {
          "indexed": true,
          "internalType": "uint256",
          "name": "periodId",
          "type": "uint256"
        },
        {
          "indexed": true,
          "internalType": "address",
          "name": "tokenAddress",
          "type": "address"
        },
        {
          "indexed": false,
          "internalType": "uint256",
          "name": "rewardPercentage",
          "type": "uint256"
        },
        {
          "indexed": false,
          "internalType": "uint256",
          "name": "rewardPercentagePrecision",
          "type": "uint256"
        },
        {
          "indexed": false,
          "internalType": "uint256",
          "name": "rewardAmount",
          "type": "uint256"
        }
      ],
      "name": "ProviderRewardGenerated",
      "type": "event"
    },
    {
      "anonymous": false,
      "inputs": [
        {
          "indexed": false,
          "internalType": "uint256",
          "name": "_periodId",
          "type": "uint256"
        },
        {
          "indexed": false,
          "internalType": "uint256",
          "name": "_sli",
          "type": "uint256"
        }
      ],
      "name": "SLANotRespected",
      "type": "event"
    },
    {
      "anonymous": false,
      "inputs": [
        {
          "indexed": false,
          "internalType": "uint256",
          "name": "timestamp",
          "type": "uint256"
        },
        {
          "indexed": false,
          "internalType": "uint256",
          "name": "sli",
          "type": "uint256"
        },
        {
          "indexed": false,
          "internalType": "uint256",
          "name": "periodId",
          "type": "uint256"
        }
      ],
      "name": "SLICreated",
      "type": "event"
    },
    {
      "inputs": [],
      "name": "DSLAburnRate",
      "outputs": [
        {
          "internalType": "uint256",
          "name": "",
          "type": "uint256"
        }
      ],
      "stateMutability": "view",
      "type": "function"
    },
    {
      "inputs": [
        {
          "internalType": "address",
          "name": "_tokenAddress",
          "type": "address"
        }
      ],
      "name": "_claimCompensation",
      "outputs": [],
      "stateMutability": "nonpayable",
      "type": "function"
    },
    {
      "inputs": [
        {
          "internalType": "address",
          "name": "_tokenAddress",
          "type": "address"
        }
      ],
      "name": "addAllowedTokens",
      "outputs": [],
      "stateMutability": "nonpayable",
      "type": "function"
    },
    {
      "inputs": [
        {
          "internalType": "address",
          "name": "_userAddress",
          "type": "address"
        }
      ],
      "name": "addUserToWhitelist",
      "outputs": [],
      "stateMutability": "nonpayable",
      "type": "function"
    },
    {
      "inputs": [
        {
          "internalType": "uint256",
          "name": "",
          "type": "uint256"
        }
      ],
      "name": "allowedTokens",
      "outputs": [
        {
          "internalType": "address",
          "name": "",
          "type": "address"
        }
      ],
      "stateMutability": "view",
      "type": "function"
    },
    {
      "inputs": [],
      "name": "creationBlockNumber",
      "outputs": [
        {
          "internalType": "uint256",
          "name": "",
          "type": "uint256"
        }
      ],
      "stateMutability": "view",
      "type": "function"
    },
    {
      "inputs": [],
      "name": "cumulatedDevaluation",
      "outputs": [
        {
          "internalType": "uint256",
          "name": "",
          "type": "uint256"
        }
      ],
      "stateMutability": "view",
      "type": "function"
    },
    {
      "inputs": [
        {
          "internalType": "address",
          "name": "",
          "type": "address"
        }
      ],
      "name": "dpTokenRegistry",
      "outputs": [
        {
          "internalType": "contract ERC20PresetMinterPauser",
          "name": "",
          "type": "address"
        }
      ],
      "stateMutability": "view",
      "type": "function"
    },
    {
      "inputs": [],
      "name": "dslaTokenAddress",
      "outputs": [
        {
          "internalType": "address",
          "name": "",
          "type": "address"
        }
      ],
      "stateMutability": "view",
      "type": "function"
    },
    {
      "inputs": [
        {
          "internalType": "address",
          "name": "",
          "type": "address"
        }
      ],
      "name": "duTokenRegistry",
      "outputs": [
        {
          "internalType": "contract ERC20PresetMinterPauser",
          "name": "",
          "type": "address"
        }
      ],
      "stateMutability": "view",
      "type": "function"
    },
    {
      "inputs": [
        {
          "internalType": "uint256",
          "name": "",
          "type": "uint256"
        }
      ],
      "name": "extraData",
      "outputs": [
        {
          "internalType": "bytes32",
          "name": "",
          "type": "bytes32"
        }
      ],
      "stateMutability": "view",
      "type": "function"
    },
    {
      "inputs": [],
      "name": "getAllowedTokensLength",
      "outputs": [
        {
          "internalType": "uint256",
          "name": "",
          "type": "uint256"
        }
      ],
      "stateMutability": "view",
      "type": "function"
    },
    {
      "inputs": [
        {
          "internalType": "address",
          "name": "_staker",
          "type": "address"
        },
        {
          "internalType": "uint256",
          "name": "_allowedTokenIndex",
          "type": "uint256"
        }
      ],
      "name": "getTokenStake",
      "outputs": [
        {
          "internalType": "address",
          "name": "tokenAddress",
          "type": "address"
        },
        {
          "internalType": "uint256",
          "name": "stake",
          "type": "uint256"
        }
      ],
      "stateMutability": "view",
      "type": "function"
    },
    {
      "inputs": [],
      "name": "ipfsHash",
      "outputs": [
        {
          "internalType": "string",
          "name": "",
          "type": "string"
        }
      ],
      "stateMutability": "view",
      "type": "function"
    },
    {
      "inputs": [
        {
          "internalType": "address",
          "name": "_tokenAddress",
          "type": "address"
        }
      ],
      "name": "isAllowedToken",
      "outputs": [
        {
          "internalType": "bool",
          "name": "",
          "type": "bool"
        }
      ],
      "stateMutability": "view",
      "type": "function"
    },
    {
      "inputs": [
        {
          "internalType": "address",
          "name": "_staker",
          "type": "address"
        }
      ],
      "name": "isStaker",
      "outputs": [
        {
          "internalType": "bool",
          "name": "",
          "type": "bool"
        }
      ],
      "stateMutability": "view",
      "type": "function"
    },
    {
      "inputs": [],
      "name": "messengerAddress",
      "outputs": [
        {
          "internalType": "address",
          "name": "",
          "type": "address"
        }
      ],
      "stateMutability": "view",
      "type": "function"
    },
    {
      "inputs": [],
      "name": "minimumDSLAStakedTier1",
      "outputs": [
        {
          "internalType": "uint256",
          "name": "",
          "type": "uint256"
        }
      ],
      "stateMutability": "view",
      "type": "function"
    },
    {
      "inputs": [],
      "name": "minimumDSLAStakedTier2",
      "outputs": [
        {
          "internalType": "uint256",
          "name": "",
          "type": "uint256"
        }
      ],
      "stateMutability": "view",
      "type": "function"
    },
    {
      "inputs": [],
      "name": "minimumDSLAStakedTier3",
      "outputs": [
        {
          "internalType": "uint256",
          "name": "",
          "type": "uint256"
        }
      ],
      "stateMutability": "view",
      "type": "function"
    },
    {
      "inputs": [],
      "name": "nextVerifiablePeriod",
      "outputs": [
        {
          "internalType": "uint256",
          "name": "",
          "type": "uint256"
        }
      ],
      "stateMutability": "view",
      "type": "function"
    },
    {
      "inputs": [],
      "name": "owner",
      "outputs": [
        {
          "internalType": "address",
          "name": "",
          "type": "address"
        }
      ],
      "stateMutability": "view",
      "type": "function"
    },
    {
      "inputs": [
        {
          "internalType": "uint256",
          "name": "",
          "type": "uint256"
        }
      ],
      "name": "periodIds",
      "outputs": [
        {
          "internalType": "uint256",
          "name": "",
          "type": "uint256"
        }
      ],
      "stateMutability": "view",
      "type": "function"
    },
    {
      "inputs": [],
      "name": "periodRegistry",
      "outputs": [
        {
          "internalType": "contract PeriodRegistry",
          "name": "",
          "type": "address"
        }
      ],
      "stateMutability": "view",
      "type": "function"
    },
    {
      "inputs": [
        {
          "internalType": "uint256",
          "name": "",
          "type": "uint256"
        }
      ],
      "name": "periodSLIs",
      "outputs": [
        {
          "internalType": "uint256",
          "name": "timestamp",
          "type": "uint256"
        },
        {
          "internalType": "uint256",
          "name": "sli",
          "type": "uint256"
        },
        {
          "internalType": "enum SLA.Status",
          "name": "status",
          "type": "uint8"
        }
      ],
      "stateMutability": "view",
      "type": "function"
    },
    {
      "inputs": [],
      "name": "periodType",
      "outputs": [
        {
          "internalType": "enum PeriodRegistry.PeriodType",
          "name": "",
          "type": "uint8"
        }
      ],
      "stateMutability": "view",
      "type": "function"
    },
    {
      "inputs": [
        {
          "internalType": "address",
          "name": "",
          "type": "address"
        }
      ],
      "name": "providerPool",
      "outputs": [
        {
          "internalType": "uint256",
          "name": "",
          "type": "uint256"
        }
      ],
      "stateMutability": "view",
      "type": "function"
    },
    {
      "inputs": [
        {
          "internalType": "address",
          "name": "_userAddress",
          "type": "address"
        }
      ],
      "name": "removeUserFromWhitelist",
      "outputs": [],
      "stateMutability": "nonpayable",
      "type": "function"
    },
    {
      "inputs": [],
      "name": "renounceOwnership",
      "outputs": [],
      "stateMutability": "nonpayable",
      "type": "function"
    },
    {
      "inputs": [],
      "name": "slaID",
      "outputs": [
        {
          "internalType": "uint256",
          "name": "",
          "type": "uint256"
        }
      ],
      "stateMutability": "view",
      "type": "function"
    },
    {
      "inputs": [],
      "name": "slaPeriodsLength",
      "outputs": [
        {
          "internalType": "uint256",
          "name": "",
          "type": "uint256"
        }
      ],
      "stateMutability": "view",
      "type": "function"
    },
    {
      "inputs": [],
      "name": "slaRegistry",
      "outputs": [
        {
          "internalType": "contract SLARegistry",
          "name": "",
          "type": "address"
        }
      ],
      "stateMutability": "view",
      "type": "function"
    },
    {
      "inputs": [],
      "name": "slo",
      "outputs": [
        {
          "internalType": "contract SLO",
          "name": "",
          "type": "address"
        }
      ],
      "stateMutability": "view",
      "type": "function"
    },
    {
      "inputs": [
        {
          "internalType": "uint256",
          "name": "",
          "type": "uint256"
        }
      ],
      "name": "stakers",
      "outputs": [
        {
          "internalType": "address",
          "name": "",
          "type": "address"
        }
      ],
      "stateMutability": "view",
      "type": "function"
    },
    {
      "inputs": [
        {
          "internalType": "address",
          "name": "newOwner",
          "type": "address"
        }
      ],
      "name": "transferOwnership",
      "outputs": [],
      "stateMutability": "nonpayable",
      "type": "function"
    },
    {
      "inputs": [
        {
          "internalType": "address",
          "name": "",
          "type": "address"
        }
      ],
      "name": "usersPool",
      "outputs": [
        {
          "internalType": "uint256",
          "name": "",
          "type": "uint256"
        }
      ],
      "stateMutability": "view",
      "type": "function"
    },
    {
      "inputs": [
        {
          "internalType": "address",
          "name": "",
          "type": "address"
        }
      ],
      "name": "whitelist",
      "outputs": [
        {
          "internalType": "bool",
          "name": "",
          "type": "bool"
        }
      ],
      "stateMutability": "view",
      "type": "function"
    },
    {
      "inputs": [],
      "name": "whitelistedContract",
      "outputs": [
        {
          "internalType": "bool",
          "name": "",
          "type": "bool"
        }
      ],
      "stateMutability": "view",
      "type": "function"
    },
    {
      "inputs": [
        {
          "internalType": "uint256",
          "name": "_sli",
          "type": "uint256"
        },
        {
          "internalType": "uint256",
          "name": "_periodId",
          "type": "uint256"
        }
      ],
      "name": "registerSLI",
      "outputs": [],
      "stateMutability": "nonpayable",
      "type": "function"
    },
    {
      "inputs": [
        {
          "internalType": "uint256",
          "name": "_periodId",
          "type": "uint256"
        }
      ],
      "name": "isAllowedPeriod",
      "outputs": [
        {
          "internalType": "bool",
          "name": "",
          "type": "bool"
        }
      ],
      "stateMutability": "view",
      "type": "function"
    },
    {
      "inputs": [
        {
          "internalType": "uint256",
          "name": "_amount",
          "type": "uint256"
        },
        {
          "internalType": "address",
          "name": "_token",
          "type": "address"
        }
      ],
      "name": "stakeTokens",
      "outputs": [],
      "stateMutability": "nonpayable",
      "type": "function"
    },
    {
      "inputs": [
        {
          "internalType": "uint256",
          "name": "_amount",
          "type": "uint256"
        },
        {
          "internalType": "address",
          "name": "_tokenAddress",
          "type": "address"
        }
      ],
      "name": "withdrawStakedTokens",
      "outputs": [],
      "stateMutability": "nonpayable",
      "type": "function"
    },
    {
      "inputs": [
        {
          "internalType": "address",
          "name": "_tokenAddress",
          "type": "address"
        }
      ],
      "name": "claimUserCompensation",
      "outputs": [],
      "stateMutability": "nonpayable",
      "type": "function"
    },
    {
      "inputs": [],
      "name": "getPeriodIdsLength",
      "outputs": [
        {
          "internalType": "uint256",
          "name": "",
          "type": "uint256"
        }
      ],
      "stateMutability": "view",
      "type": "function"
    },
    {
      "inputs": [],
      "name": "getStakersLength",
      "outputs": [
        {
          "internalType": "uint256",
          "name": "",
          "type": "uint256"
        }
      ],
      "stateMutability": "view",
      "type": "function"
    },
    {
      "inputs": [],
      "name": "breachedContract",
      "outputs": [
        {
          "internalType": "bool",
          "name": "",
          "type": "bool"
        }
      ],
      "stateMutability": "view",
      "type": "function"
    }
  ],
  "bytecode": "0x6080604052620f42406008819055600955601a805460ff60a01b191690553480156200002a57600080fd5b5060405162003993380380620039938339810160408190526200004d91620006f3565b848487895186856000620000666200036760201b60201c565b600080546001600160a01b0319166001600160a01b03831690811782556040519293509160008051602062003973833981519152908290a350600180546001600160a01b038089166001600160a01b0319928316178355600280549189169190921617905560118054869260ff1990911690836005811115620000e557fe5b021790555060128390556013805460ff191683151517905560015460408051637b8041cf60e11b815290516000928392839283926001600160a01b03169163f700839e916004808301926080929190829003018186803b1580156200014957600080fd5b505afa1580156200015e573d6000803e3d6000fd5b505050506040513d601f19601f8201168201806040525081019062000184919062000824565b9350935093509350600160009054906101000a90046001600160a01b03166001600160a01b0316638b8e53096040518163ffffffff1660e01b815260040160206040518083038186803b158015620001db57600080fd5b505afa158015620001f0573d6000803e3d6000fd5b505050506040513d601f19601f82011682018060405250810190620002169190620006cd565b600b80546001600160a01b0319166001600160a01b0392909216919091179055600d849055600e839055600f829055601081905562000255336200036b565b505050600391909155506200027294508f9350506200040e915050565b8851620002879060169060208c0190620004bb565b50601a80546001600160a01b03808b166001600160a01b03199283161790925560198054909116331790556017805491861661010002610100600160a81b031990921691909117905543601c558651620002e99060189060208a019062000540565b506017805487919060ff191660018360058111156200030457fe5b0217905550601580546001600160a01b0319166001600160a01b038c1617905581516200033990601d90602085019062000540565b50866000815181106200034857fe5b6020026020010151601e8190555050505050505050505050506200096c565b3390565b6200037562000367565b6000546001600160a01b03908116911614620003ae5760405162461bcd60e51b8152600401620003a590620008d7565b60405180910390fd5b6001600160a01b03811660009081526014602052604090205460ff1615620003ea5760405162461bcd60e51b8152600401620003a5906200085a565b6001600160a01b03166000908152601460205260409020805460ff19166001179055565b6200041862000367565b6000546001600160a01b03908116911614620004485760405162461bcd60e51b8152600401620003a590620008d7565b6001600160a01b038116620004715760405162461bcd60e51b8152600401620003a59062000891565b600080546040516001600160a01b03808516939216916000805160206200397383398151915291a3600080546001600160a01b0319166001600160a01b0392909216919091179055565b828054600181600116156101000203166002900490600052602060002090601f016020900481019282601f10620004fe57805160ff19168380011785556200052e565b828001600101855582156200052e579182015b828111156200052e57825182559160200191906001019062000511565b506200053c9291506200057d565b5090565b8280548282559060005260206000209081019282156200052e57916020028201828111156200052e57825182559160200191906001019062000511565b5b808211156200053c57600081556001016200057e565b8051620005a18162000953565b92915050565b600082601f830112620005b8578081fd5b8151620005cf620005c98262000933565b6200090c565b818152915060208083019084810181840286018201871015620005f157600080fd5b60005b848110156200061257815184529282019290820190600101620005f4565b505050505092915050565b80518015158114620005a157600080fd5b805160068110620005a157600080fd5b600082601f8301126200064f578081fd5b81516001600160401b0381111562000665578182fd5b60206200067b601f8301601f191682016200090c565b925081835284818386010111156200069257600080fd5b60005b82811015620006b257848101820151848201830152810162000695565b82811115620006c45760008284860101525b50505092915050565b600060208284031215620006df578081fd5b8151620006ec8162000953565b9392505050565b60008060008060008060008060008060006101608c8e03121562000715578687fd5b620007218d8d62000594565b9a50620007328d60208e0162000594565b60408d0151909a506001600160401b038111156200074e578788fd5b6200075c8e828f016200063e565b9950506200076e8d60608e0162000594565b60808d01519098506001600160401b038111156200078a578788fd5b620007988e828f01620005a7565b975050620007aa8d60a08e016200062e565b9550620007bb8d60c08e0162000594565b9450620007cc8d60e08e0162000594565b9350620007de8d6101008e016200061d565b6101208d01519093506001600160401b03811115620007fb578283fd5b620008098e828f01620005a7565b9250506101408c015190509295989b509295989b9093969950565b600080600080608085870312156200083a578384fd5b505082516020840151604085015160609095015191969095509092509050565b60208082526018908201527f5573657220616c72656164792077686974656c69737465640000000000000000604082015260600190565b60208082526026908201527f4f776e61626c653a206e6577206f776e657220697320746865207a65726f206160408201526564647265737360d01b606082015260800190565b6020808252818101527f4f776e61626c653a2063616c6c6572206973206e6f7420746865206f776e6572604082015260600190565b6040518181016001600160401b03811182821017156200092b57600080fd5b604052919050565b60006001600160401b0382111562000949578081fd5b5060209081020190565b6001600160a01b03811681146200096957600080fd5b50565b612ff7806200097c6000396000f3fe608060405234801561001057600080fd5b506004361061028a5760003560e01c8063747b80501161015c578063b7bc347e116100ce578063ee575c2811610087578063ee575c2814610514578063f2db10fe1461051c578063f2fde38b14610524578063f7e9dfff14610537578063f9902bb11461053f578063fd5e6dd1146105525761028a565b8063b7bc347e146104c1578063c623674f146104c9578063cbe230c3146104de578063cd92890e146104f1578063d7a5c422146104f9578063db69a4621461050c5761028a565b80639b19251a116101205780639b19251a146104865780639fabeb00146104995780639fc4caa5146104a1578063a224ee9c146104a9578063b1659bad146104b1578063b18ac918146104b95761028a565b8063747b80501461044857806378025ec41461045b5780637fd788aa1461046e5780638d4f567d146104765780638da5cb5b1461047e5761028a565b806346e0fbae116102005780635c1c20de116101b95780635c1c20de146103f75780635e5f2e26146103ff5780635fc1b5fd14610412578063639b6fc31461041a5780636f1e85331461042d578063715018a6146104405761028a565b806346e0fbae14610368578063484fbf2b1461037d5780634e0c91f6146103905780634fb2647e146103b0578063524f0735146103c357806357ac94f0146103d65761028a565b806318e454271161025257806318e45427146103085780631bf30929146103105780631fc2cd931461031857806327cd727c1461032b5780632eb8197a1461033e5780634190edde146103465761028a565b8063021eef7f1461028f5780630ae9ea45146102b85780630bea440d146102d85780630c5160f4146102ed578063171e44ea146102f5575b600080fd5b6102a261029d36600461270d565b610565565b6040516102af9190612958565b60405180910390f35b6102cb6102c636600461270d565b6105af565b6040516102af9190612963565b6102eb6102e636600461273d565b6105cd565b005b6102cb61072e565b6102eb6103033660046125ef565b610734565b6102a2610afd565b6102cb610b06565b6102eb6103263660046125ef565b610b0c565b6102eb61033936600461273d565b610d74565b6102cb610ed3565b61035961035436600461270d565b610ed9565b6040516102af93929190612f44565b610370610efd565b6040516102af919061296c565b6102cb61038b3660046125ef565b610f06565b6103a361039e3660046125ef565b610f18565b6040516102af9190612907565b6103a36103be3660046125ef565b610f33565b6102eb6103d13660046125ef565b610f4e565b6103e96103e4366004612627565b610f5a565b6040516102af92919061291b565b6102cb61113a565b6103a361040d36600461270d565b611140565b6102cb611167565b6102cb6104283660046125ef565b61116d565b6102a261043b3660046125ef565b61117f565b6102eb6111d1565b6102eb6104563660046125ef565b611250565b6102cb61046936600461270d565b6112e2565b6102a26112ef565b6102cb6112ff565b6103a3611305565b6102a26104943660046125ef565b611314565b6102cb611329565b6103a361132f565b6103a3611343565b6102cb611352565b6102cb611358565b6102cb61135e565b6104d1611364565b6040516102af9190612998565b6102a26104ec3660046125ef565b6113f2565b6103a3611444565b6102eb61050736600461276c565b611453565b6103a3611719565b6102cb611728565b6102cb61172e565b6102eb6105323660046125ef565b611734565b6103a36117ea565b6102eb61054d3660046125ef565b6117f9565b6103a361056036600461270d565b61188c565b6000805b6018548110156105a457826018828154811061058157fe5b9060005260206000200154141561059c5760019150506105aa565b600101610569565b50600090505b919050565b601881815481106105bc57fe5b600091825260209091200154905081565b600082116105f65760405162461bcd60e51b81526004016105ed90612e04565b60405180910390fd5b601a54600160a01b900460ff16156106205760405162461bcd60e51b81526004016105ed90612d58565b61062a8282611899565b60195460408051636830483560e01b815290516000926001600160a01b0316916368304835916004808301926020929190829003018186803b15801561066f57600080fd5b505afa158015610683573d6000803e3d6000fd5b505050506040513d601f19601f820116820180604052508101906106a7919061260b565b604051635948284760e11b81529091506001600160a01b0382169063b290508e906106d6903390600401612907565b602060405180830381600087803b1580156106f057600080fd5b505af1158015610704573d6000803e3d6000fd5b505050506040513d601f19601f820116820180604052508101906107289190612652565b50505050565b60125481565b61073c611c79565b6000546001600160a01b039081169116146107695760405162461bcd60e51b81526004016105ed90612d23565b610772816113f2565b1561078f5760405162461bcd60e51b81526004016105ed90612da0565b60015460405163cbe230c360e01b81526001600160a01b039091169063cbe230c3906107bf908490600401612907565b60206040518083038186803b1580156107d757600080fd5b505afa1580156107eb573d6000803e3d6000fd5b505050506040513d601f19601f8201168201806040525081019061080f9190612652565b15156001146108305760405162461bcd60e51b81526004016105ed90612b07565b600c80546001810182556000919091527fdf6966c971051c3d54ec59162606531493a51404a002842f56009d7e5cf4a8c70180546001600160a01b0319166001600160a01b03831617905560035460609061088a90611c7d565b90506060826001600160a01b03166395d89b416040518163ffffffff1660e01b815260040160006040518083038186803b1580156108c757600080fd5b505afa1580156108db573d6000803e3d6000fd5b505050506040513d6000823e601f3d908101601f191682016040526109039190810190612672565b90506060818360405160200161091a9291906128b5565b6040516020818303038152906040529050606082846040516020016109409291906127f8565b604051602081830303815290604052905060608385604051602001610966929190612842565b60405160208183030381529060405290506060848660405160200161098c929190612898565b60408051601f1981840301815290829052600154633350214760e11b83529092506000916001600160a01b03909116906366a0428e906109d290889088906004016129ab565b602060405180830381600087803b1580156109ec57600080fd5b505af1158015610a00573d6000803e3d6000fd5b505050506040513d601f19601f82011682018060405250810190610a24919061260b565b600154604051633350214760e11b81529192506000916001600160a01b03909116906366a0428e90610a5c90879087906004016129ab565b602060405180830381600087803b158015610a7657600080fd5b505af1158015610a8a573d6000803e3d6000fd5b505050506040513d601f19601f82011682018060405250810190610aae919061260b565b6001600160a01b03998a1660009081526007602090815260408083208054948e166001600160a01b031995861617905560069091529020805493909a1692169190911790975550505050505050565b60135460ff1681565b601c5481565b610b14611305565b6001600160a01b0316336001600160a01b03161415610b455760405162461bcd60e51b81526004016105ed90612ef1565b60135460ff16151560011415610b89573360009081526014602052604090205460ff161515600114610b895760405162461bcd60e51b81526004016105ed90612bf6565b6001600160a01b038082166000908152600660205260408082205490516370a0823160e01b815292169182906370a0823190610bc9903390600401612907565b60206040518083038186803b158015610be157600080fd5b505afa158015610bf5573d6000803e3d6000fd5b505050506040513d601f19601f82011682018060405250810190610c199190612725565b90506000826001600160a01b03166318160ddd6040518163ffffffff1660e01b815260040160206040518083038186803b158015610c5657600080fd5b505afa158015610c6a573d6000803e3d6000fd5b505050506040513d601f19601f82011682018060405250810190610c8e9190612725565b905061271082610cb05760405162461bcd60e51b81526004016105ed90612b99565b6000610cc683610cc08685611d58565b90611d9b565b6001600160a01b03871660009081526005602052604081205491925090610cf3908490610cc09085611d58565b60405163079cc67960e41b81529091506001600160a01b038716906379cc679090610d24903390899060040161291b565b600060405180830381600087803b158015610d3e57600080fd5b505af1158015610d52573d6000803e3d6000fd5b50610d6b925050506001600160a01b0388163383611ddd565b50505050505050565b60008211610d945760405162461bcd60e51b81526004016105ed90612e04565b60188054600091906000198101908110610daa57fe5b600091825260208220015460175460405160016259edcb60e01b031981529193506001600160a01b036101008204169163ffa6123591610df49160ff909116908690600401612980565b604080518083038186803b158015610e0b57600080fd5b505afa158015610e1f573d6000803e3d6000fd5b505050506040513d601f19601f82011682018060405250810190610e43919061278d565b915050610e4e611305565b6001600160a01b0316336001600160a01b031614610ec957601a54600160a01b900460ff16151560011480610ead5750804210158015610ead57506000828152601b6020526040812060029081015460ff1690811115610eaa57fe5b14155b610ec95760405162461bcd60e51b81526004016105ed90612a0b565b6107288484611e33565b60105481565b601b6020526000908152604090208054600182015460029092015490919060ff1683565b60175460ff1681565b60056020526000908152604090205481565b6006602052600090815260409020546001600160a01b031681565b6007602052600090815260409020546001600160a01b031681565b610f5781610b0c565b50565b6000806000600c8481548110610f6c57fe5b6000918252602090912001546001600160a01b03169050610f8b611305565b6001600160a01b0316856001600160a01b03161415610fc7576001600160a01b0381166000908152600460205260409020549092509050611133565b6001600160a01b0380821660009081526006602090815260408083205481516318160ddd60e01b8152915194169384926318160ddd9260048082019391829003018186803b15801561101857600080fd5b505afa15801561102c573d6000803e3d6000fd5b505050506040513d601f19601f820116820180604052508101906110509190612725565b9050806110665782600094509450505050611133565b6040516370a0823160e01b81526000906001600160a01b038416906370a0823190611095908b90600401612907565b60206040518083038186803b1580156110ad57600080fd5b505afa1580156110c1573d6000803e3d6000fd5b505050506040513d601f19601f820116820180604052508101906110e59190612725565b905061271060006110fa84610cc08585611d58565b6001600160a01b0387166000908152600560205260409020549091508690611128908490610cc09085611d58565b975097505050505050505b9250929050565b600d5481565b600c818154811061114d57fe5b6000918252602090912001546001600160a01b0316905081565b60185490565b60046020526000908152604090205481565b6000805b600a548110156105a457826001600160a01b0316600a82815481106111a457fe5b6000918252602090912001546001600160a01b031614156111c95760019150506105aa565b600101611183565b6111d9611c79565b6000546001600160a01b039081169116146112065760405162461bcd60e51b81526004016105ed90612d23565b600080546040516001600160a01b03909116907f8be0079c531659141344cd1fd0a4f28419497f9722a3daafe3b4186f6b6457e0908390a3600080546001600160a01b0319169055565b611258611c79565b6000546001600160a01b039081169116146112855760405162461bcd60e51b81526004016105ed90612d23565b6001600160a01b03811660009081526014602052604090205460ff16156112be5760405162461bcd60e51b81526004016105ed906129d9565b6001600160a01b03166000908152601460205260409020805460ff19166001179055565b601d81815481106105bc57fe5b601a54600160a01b900460ff1690565b60085481565b6000546001600160a01b031690565b60146020526000908152604090205460ff1681565b600a5490565b60175461010090046001600160a01b031681565b601a546001600160a01b031681565b601e5481565b600f5481565b600c5490565b6016805460408051602060026001851615610100026000190190941693909304601f810184900484028201840190925281815292918301828280156113ea5780601f106113bf576101008083540402835291602001916113ea565b820191906000526020600020905b8154815290600101906020018083116113cd57829003601f168201915b505050505081565b6000805b600c548110156105a457826001600160a01b0316600c828154811061141757fe5b6000918252602090912001546001600160a01b0316141561143c5760019150506105aa565b6001016113f6565b6015546001600160a01b031681565b601a546001600160a01b0316331461147d5760405162461bcd60e51b81526004016105ed90612b54565b7fc95987c1992805ee34bdc915e017cceae36ba1c156b9911fa7e691e6435eb46e4283836040516114b093929190612f6a565b60405180910390a16001808201601e556000828152601b602090815260408083209384018690554284556015548151633fa4f24560e01b815291516001600160a01b0390911692633fa4f2459260048082019391829003018186803b15801561151857600080fd5b505afa15801561152c573d6000803e3d6000fd5b505050506040513d601f19601f820116820180604052508101906115509190612725565b6015546040516303c8f2e360e21b81529192506001600160a01b031690630f23cb8c90611581908790600401612963565b60206040518083038186803b15801561159957600080fd5b505afa1580156115ad573d6000803e3d6000fd5b505050506040513d601f19601f820116820180604052508101906115d19190612652565b156116ae576002828101805460ff1916600117905561271090600090611613906115ff90610cc08987612017565b610cc08461160d8a8861203c565b90611d58565b9050600061164d6001611647601860008154811061162d57fe5b90600052602060002001548961203c90919063ffffffff16565b90612017565b60188054919250600091600019810190811061166557fe5b906000526020600020015487141561168757611682600185611d58565b611698565b60185461169890610cc08585611d58565b90506116a587828661207e565b50505050610728565b6002828101805460ff191690911790556116c66121e4565b601a805460ff60a01b1916600160a01b1790556040517fbd33f7a3bfa88a467c9df5ae7d2341cf061084c386b20a0d48130f5cbce38a4d9061170b9085908790612f36565b60405180910390a150505050565b6019546001600160a01b031681565b600e5481565b60035481565b61173c611c79565b6000546001600160a01b039081169116146117695760405162461bcd60e51b81526004016105ed90612d23565b6001600160a01b03811661178f5760405162461bcd60e51b81526004016105ed90612a8a565b600080546040516001600160a01b03808516939216917f8be0079c531659141344cd1fd0a4f28419497f9722a3daafe3b4186f6b6457e091a3600080546001600160a01b0319166001600160a01b0392909216919091179055565b600b546001600160a01b031681565b611801611c79565b6000546001600160a01b0390811691161461182e5760405162461bcd60e51b81526004016105ed90612d23565b6001600160a01b03811660009081526014602052604090205460ff16151560011461186b5760405162461bcd60e51b81526004016105ed90612e30565b6001600160a01b03166000908152601460205260409020805460ff19169055565b600a818154811061114d57fe5b806118a3816113f2565b15156001146118c45760405162461bcd60e51b81526004016105ed90612cf5565b60135460ff16151560011415611908573360009081526014602052604090205460ff1615156001146119085760405162461bcd60e51b81526004016105ed90612bf6565b61191d6001600160a01b0383163330866122c9565b611925611305565b6001600160a01b0316336001600160a01b031614611a60576001600160a01b0382166000908152600460209081526040808320546005909252909120548161196d8287612017565b111561198b5760405162461bcd60e51b81526004016105ed90612e5e565b6001600160a01b0384166000908152600560205260409020546119ae9086612017565b6001600160a01b0385166000908152600560205260408120919091556008546009546119e09190610cc0908990611d58565b6001600160a01b03808716600090815260066020526040908190205490516340c10f1960e01b8152929350169081906340c10f1990611a25903390869060040161291b565b600060405180830381600087803b158015611a3f57600080fd5b505af1158015611a53573d6000803e3d6000fd5b5050505050505050611c24565b6001600160a01b0380831660009081526007602090815260408083205481516318160ddd60e01b8152915194169384926318160ddd9260048082019391829003018186803b158015611ab157600080fd5b505afa158015611ac5573d6000803e3d6000fd5b505050506040513d601f19601f82011682018060405250810190611ae99190612725565b6001600160a01b03851660009081526004602052604090205490915081611b6f576040516340c10f1960e01b81526001600160a01b038416906340c10f1990611b389033908a9060040161291b565b600060405180830381600087803b158015611b5257600080fd5b505af1158015611b66573d6000803e3d6000fd5b50505050611be4565b6000611b7f82610cc08986611d58565b6040516340c10f1960e01b81529091506001600160a01b038516906340c10f1990611bb0903390859060040161291b565b600060405180830381600087803b158015611bca57600080fd5b505af1158015611bde573d6000803e3d6000fd5b50505050505b6001600160a01b038516600090815260046020526040902054611c079087612017565b6001600160a01b0386166000908152600460205260409020555050505b611c2d3361117f565b611c7457600a80546001810182556000919091527fc65a7bb8d6351c1cf70c95a316cc6a92839c986682d98bc35f958f4883f9d2a80180546001600160a01b031916331790555b505050565b3390565b60608180611ca45750506040805180820190915260018152600360fc1b60208201526105aa565b8060005b8115611cbc57600101600a82049150611ca8565b60608167ffffffffffffffff81118015611cd557600080fd5b506040519080825280601f01601f191660200182016040528015611d00576020820181803683370190505b50905060001982015b8415611d4e57600a850660300160f81b82828060019003935081518110611d2c57fe5b60200101906001600160f81b031916908160001a905350600a85049450611d09565b5095945050505050565b600082611d6757506000611d95565b82820282848281611d7457fe5b0414611d925760405162461bcd60e51b81526004016105ed90612cb4565b90505b92915050565b6000611d9283836040518060400160405280601a81526020017f536166654d6174683a206469766973696f6e206279207a65726f0000000000008152506122ea565b611c748363a9059cbb60e01b8484604051602401611dfc92919061291b565b60408051601f198184030181529190526020810180516001600160e01b03166001600160e01b031990931692909217909152612321565b80611e3d816113f2565b1515600114611e5e5760405162461bcd60e51b81526004016105ed90612cf5565b6001600160a01b03821660009081526004602090815260408083205460059092529091205480611e8e838761203c565b1015611eac5760405162461bcd60e51b81526004016105ed90612c27565b6001600160a01b0380851660009081526007602090815260408083205481516318160ddd60e01b8152915194169384926318160ddd9260048082019391829003018186803b158015611efd57600080fd5b505afa158015611f11573d6000803e3d6000fd5b505050506040513d601f19601f82011682018060405250810190611f359190612725565b6001600160a01b038716600090815260046020526040812054919250611f5f82610cc08b86611d58565b60405163079cc67960e41b81529091506001600160a01b038516906379cc679090611f90903390859060040161291b565b600060405180830381600087803b158015611faa57600080fd5b505af1158015611fbe573d6000803e3d6000fd5b5050506001600160a01b038916600090815260046020526040902054611fe591508a61203c565b6001600160a01b03891660008181526004602052604090209190915561200c90338b611ddd565b505050505050505050565b600082820183811015611d925760405162461bcd60e51b81526004016105ed90612ad0565b6000611d9283836040518060400160405280601e81526020017f536166654d6174683a207375627472616374696f6e206f766572666c6f7700008152506123b0565b60005b600c548110156121c1576000600c828154811061209a57fe5b60009182526020808320909101546001600160a01b031680835260059091526040822054909250906120d085610cc08489611d58565b6001600160a01b0384166000908152600560205260409020549091506120f6908261203c565b6001600160a01b03808516600081815260056020526040902092909255600b54161415612138576000612128826123dc565b9050612134828261203c565b9150505b6001600160a01b03831660009081526004602052604090205461215b9082612017565b6001600160a01b0384166000818152600460205260409081902092909255905188907f3173c1c4b679e2da86dbb0382bde749a6e16cd31912c5410e17985cd7d2b9052906121ae908a908a908790612f6a565b60405180910390a3505050600101612081565b506121dc81610cc06121d3828661203c565b60085490611d58565b600855505050565b60005b600c54811015610f57576000600c828154811061220057fe5b60009182526020808320909101546001600160a01b03168083526005825260408084205460049093529092205491925090819061223d908261203c565b6001600160a01b03808516600081815260046020526040902092909255600b5416141561227f57600061226f826123dc565b905061227b828261203c565b9150505b6001600160a01b0383166000908152600560205260409020546122a29082612017565b6001600160a01b0390931660009081526005602052604090209290925550506001016121e7565b610728846323b872dd60e01b858585604051602401611dfc93929190612934565b6000818361230b5760405162461bcd60e51b81526004016105ed9190612998565b50600083858161231757fe5b0495945050505050565b6060612376826040518060400160405280602081526020017f5361666545524332303a206c6f772d6c6576656c2063616c6c206661696c6564815250856001600160a01b031661250e9092919063ffffffff16565b805190915015611c7457808060200190518101906123949190612652565b611c745760405162461bcd60e51b81526004016105ed90612ea7565b600081848411156123d45760405162461bcd60e51b81526004016105ed9190612998565b505050900390565b60408051808201909152600d8082526c6275726e2875696e743235362960981b602090920191909152546000907f42966c689b5afe9b9b3f8a7103b2a19980d59629bfd6a20a60972312ed41d8369061243e906103e890610cc0908690611d58565b600b546040519193506000916001600160a01b03909116908390612466908690602401612963565b60408051601f198184030181529181526020820180516001600160e01b03166001600160e01b03199094169390931790925290516124a491906127dc565b6000604051808303816000865af19150503d80600081146124e1576040519150601f19603f3d011682016040523d82523d6000602084013e6124e6565b606091505b50509050806125075760405162461bcd60e51b81526004016105ed90612c70565b5050919050565b606061251d8484600085612525565b949350505050565b6060612530856125e9565b61254c5760405162461bcd60e51b81526004016105ed90612dcd565b60006060866001600160a01b0316858760405161256991906127dc565b60006040518083038185875af1925050503d80600081146125a6576040519150601f19603f3d011682016040523d82523d6000602084013e6125ab565b606091505b509150915081156125bf57915061251d9050565b8051156125cf5780518082602001fd5b8360405162461bcd60e51b81526004016105ed9190612998565b3b151590565b600060208284031215612600578081fd5b8135611d9281612fac565b60006020828403121561261c578081fd5b8151611d9281612fac565b60008060408385031215612639578081fd5b823561264481612fac565b946020939093013593505050565b600060208284031215612663578081fd5b81518015158114611d92578182fd5b600060208284031215612683578081fd5b815167ffffffffffffffff8082111561269a578283fd5b818401915084601f8301126126ad578283fd5b8151818111156126bb578384fd5b604051601f8201601f1916810160200183811182821017156126db578586fd5b6040528181528382016020018710156126f2578485fd5b612703826020830160208701612f80565b9695505050505050565b60006020828403121561271e578081fd5b5035919050565b600060208284031215612736578081fd5b5051919050565b6000806040838503121561274f578182fd5b82359150602083013561276181612fac565b809150509250929050565b6000806040838503121561277e578182fd5b50508035926020909101359150565b6000806040838503121561279f578182fd5b505080516020909101519092909150565b600081518084526127c8816020860160208601612f80565b601f01601f19169290920160200192915050565b600082516127ee818460208701612f80565b9190910192915050565b600061647560f01b82528351612815816002850160208801612f80565b602d60f81b6002918401918201528351612836816003840160208801612f80565b01600301949350505050565b60006d44534c412d50524f56494445522d60901b8252835161286b81600e850160208801612f80565b602d60f81b600e91840191820152835161288c81600f840160208801612f80565b01600f01949350505050565b600061064760f41b82528351612815816002850160208801612f80565b60006944534c412d555345522d60b01b825283516128da81600a850160208801612f80565b602d60f81b600a9184019182015283516128fb81600b840160208801612f80565b01600b01949350505050565b6001600160a01b0391909116815260200190565b6001600160a01b03929092168252602082015260400190565b6001600160a01b039384168152919092166020820152604081019190915260600190565b901515815260200190565b90815260200190565b602081016006831061297a57fe5b91905290565b604081016006841061298e57fe5b9281526020015290565b600060208252611d9260208301846127b0565b6000604082526129be60408301856127b0565b82810360208401526129d081856127b0565b95945050505050565b602080825260189082015277155cd95c88185b1c9958591e481dda1a5d195b1a5cdd195960421b604082015260600190565b60208082526059908201527f43616e206f6e6c79207769746864726177207374616b6520616674657220746860408201527f652066696e616c20706572696f642069732066696e6973686564206f72206966606082015278081d1a194818dbdb9d1c9858dd081a5cc8189c995858da1959603a1b608082015260a00190565b60208082526026908201527f4f776e61626c653a206e6577206f776e657220697320746865207a65726f206160408201526564647265737360d01b606082015260800190565b6020808252601b908201527f536166654d6174683a206164646974696f6e206f766572666c6f770000000000604082015260600190565b6020808252602d908201527f546f6b656e206e6f7420616c6c6f7765642062792074686520534c415265676960408201526c1cdd1c9e4818dbdb9d1c9858dd609a1b606082015260800190565b60208082526025908201527f4f6e6c79204d657373656e6765722063616e2063616c6c20746869732066756e60408201526431ba34b7b760d91b606082015260800190565b6020808252603a908201527f43616e206f6e6c7920636c61696d206120636f6d70656e736174696f6e20696660408201527f20706f736974696f6e20697320626967676572207468616e2030000000000000606082015260800190565b602080825260179082015276155cd95c881a5cc81b9bdd081dda1a5d195b1a5cdd1959604a1b604082015260600190565b60208082526029908201527f53686f756c64206e6f74207769746864726177206d6f7265207468616e207573604082015268657273207374616b6560b81b606082015260800190565b60208082526024908201527f44534c41206275726e2070726f6365737320776173206e6f74207375636365736040820152631cd99d5b60e21b606082015260800190565b60208082526021908201527f536166654d6174683a206d756c7469706c69636174696f6e206f766572666c6f6040820152607760f81b606082015260800190565b6020808252601490820152731d1bdad95b881a5cc81b9bdd08185b1b1bddd95960621b604082015260600190565b6020808252818101527f4f776e61626c653a2063616c6c6572206973206e6f7420746865206f776e6572604082015260600190565b60208082526028908201527f43616e206f6e6c79207374616b65206f6e206e6f7420627265616368656420636040820152676f6e74726163747360c01b606082015260800190565b602080825260139082015272151bdad95b88185b1c9958591e481859191959606a1b604082015260600190565b6020808252601d908201527f416464726573733a2063616c6c20746f206e6f6e2d636f6e7472616374000000604082015260600190565b6020808252601290820152710616d6f756e742063616e6e6f7420626520360741b604082015260600190565b602080825260149082015273155cd95c881b9bdd081dda1a5d195b1a5cdd195960621b604082015260600190565b60208082526029908201527f43616e6e6f74207374616b65206d6f7265207468616e20534c412070726f7669604082015268646572207374616b6560b81b606082015260800190565b6020808252602a908201527f5361666545524332303a204552433230206f7065726174696f6e20646964206e6040820152691bdd081cdd58d8d9595960b21b606082015260800190565b60208082526025908201527f53686f756c64206e6f742062652063616c6c65642062792074686520534c412060408201526437bbb732b960d91b606082015260800190565b918252602082015260400190565b838152602081018390526060810160038310612f5c57fe5b826040830152949350505050565b9283526020830191909152604082015260600190565b60005b83811015612f9b578181015183820152602001612f83565b838111156107285750506000910152565b6001600160a01b0381168114610f5757600080fdfea2646970667358221220e4b12392535bdcc58328e509248151e4d937021620602e8c93acc55cac1607ee64736f6c634300060c00338be0079c531659141344cd1fd0a4f28419497f9722a3daafe3b4186f6b6457e0",
  "immutableReferences": {},
  "source": "// SPDX-License-Identifier: MIT\npragma solidity ^0.6.0;\npragma experimental ABIEncoderV2;\n\nimport \"@openzeppelin/contracts/access/Ownable.sol\";\nimport \"@openzeppelin/contracts/token/ERC20/IERC20.sol\";\nimport \"@openzeppelin/contracts/math/SafeMath.sol\";\nimport \"./SLO.sol\";\nimport \"./SLARegistry.sol\";\nimport \"./StakeRegistry.sol\";\nimport \"./PeriodRegistry.sol\";\nimport \"./Staking.sol\";\n\n/**\n * @title SLA\n * @dev SLA is a service level agreement contract used for service downtime\n * compensation\n */\ncontract SLA is Staking {\n    using SafeMath for uint256;\n\n    enum Status {NotVerified, Respected, NotRespected}\n\n    /// @dev Struct used for storing period status\n    struct PeriodSLI {\n        uint256 timestamp;\n        uint256 sli;\n        Status status;\n    }\n\n    /// @dev address of the SLO\n    SLO public slo;\n\n    /// @dev The ipfs hash that stores extra information about the agreement\n    string public ipfsHash;\n\n    /// @dev uint8 of the period type\n    PeriodRegistry.PeriodType public periodType;\n\n    PeriodRegistry public periodRegistry;\n\n    /// @dev array of he allowed canonical period ids\n    uint256[] public periodIds;\n\n    /// @dev The address of the slaRegistry contract\n    SLARegistry public slaRegistry;\n\n    /// @dev The address of the messenger\n    address public messengerAddress;\n\n    /// @dev states if the contract was breached or not\n    bool private _breachedContract = false;\n\n    /// @dev periodId=>PeriodSLI mapping\n    mapping(uint256 => PeriodSLI) public periodSLIs;\n\n    /// @dev block number of SLA deployment\n    uint256 public creationBlockNumber;\n\n    /// @dev extra data for customized workflows\n    bytes32[] public extraData;\n\n    /// @dev states if the contract was breached or not\n    uint256 public nextVerifiablePeriod;\n\n    /**\n     * @dev event for SLI creation logging\n     * @param timestamp 1. the time the SLI has been registered\n     * @param sli 2. the value of the SLI\n     * @param periodId 3. the id of the given period\n     */\n    event SLICreated(uint256 timestamp, uint256 sli, uint256 periodId);\n\n    /**\n     * @dev event for SLI creation logging\n     * @param _periodId 1. the id of the given period\n     * @param _sli 2. value of the SLI\n     */\n    event SLANotRespected(uint256 _periodId, uint256 _sli);\n\n    /**\n     * @dev throws if called by any address other than the messenger contract.\n     */\n    modifier onlyMessenger() {\n        require(\n            msg.sender == messengerAddress,\n            \"Only Messenger can call this function\"\n        );\n        _;\n    }\n\n    /**\n     * @dev throws if called by any address other than the messenger contract.\n     */\n    modifier onlySLARegistry() {\n        require(\n            msg.sender == address(slaRegistry),\n            \"Only SLARegistry can call this function\"\n        );\n        _;\n    }\n\n    /**\n     * @param _owner 1. address of the owner of the service level agreement\n     * @param _SLO 2. address of the SLO\n     * @param _ipfsHash 3. string with the ipfs hash that contains SLA information\n     * @param _periodIds 4. id of the allowed canonical periods\n     * @param _periodType 5. period type of the SLA contract\n     * @param _stakeRegistry 6. stakeRegistry address\n     * @param _periodRegistry 7. periodRegistry address\n     * @param _whitelisted 8. boolean to declare whitelisted contracts\n     * @param _extraData 9. array of bytes32 to store extra data on deployment time\n     * @param _slaID 10. identifies the SLA to uniquely to emit dTokens\n     */\n    constructor(\n        address _owner,\n        SLO _SLO,\n        string memory _ipfsHash,\n        address _messengerAddress,\n        uint256[] memory _periodIds,\n        PeriodRegistry.PeriodType _periodType,\n        address _stakeRegistry,\n        address _periodRegistry,\n        bool _whitelisted,\n        bytes32[] memory _extraData,\n        uint256 _slaID\n    )\n        public\n        Staking(\n            _stakeRegistry,\n            _periodRegistry,\n            _periodType,\n            _periodIds.length,\n            _whitelisted,\n            _slaID\n        )\n    {\n        transferOwnership(_owner);\n        ipfsHash = _ipfsHash;\n        messengerAddress = _messengerAddress;\n        slaRegistry = SLARegistry(msg.sender);\n        periodRegistry = PeriodRegistry(_periodRegistry);\n        creationBlockNumber = block.number;\n        periodIds = _periodIds;\n        periodType = _periodType;\n        slo = _SLO;\n        extraData = _extraData;\n        nextVerifiablePeriod = _periodIds[0];\n    }\n\n    /**\n     * @dev external function to register SLI's and check them against the SLO's\n     * @param _sli 1. the value of the SLI to check\n     * @param _periodId 2. the id of the given period\n     */\n    function registerSLI(uint256 _sli, uint256 _periodId)\n        external\n        onlyMessenger\n    {\n        emit SLICreated(block.timestamp, _sli, _periodId);\n        nextVerifiablePeriod = _periodId + 1;\n        PeriodSLI storage periodSLI = periodSLIs[_periodId];\n        periodSLI.sli = _sli;\n        periodSLI.timestamp = block.timestamp;\n        uint256 sloValue = slo.value();\n        if (slo.isRespected(_sli)) {\n            periodSLI.status = Status.Respected;\n            uint256 precision = 10000;\n            // deviation = (sli-slo)*precision/((sli+slo)/2)\n            uint256 deviation =\n                _sli.sub(sloValue).mul(precision).div(\n                    _sli.add(sloValue).div(2)\n                );\n            // to get the reward formula, we get the periodId but respecting to the SLA\n            // because _periodId is the periodId of the platform\n            // e.g. if periodIds = 7,8,9,10, normalized periods are = 1,2,3,4\n            uint256 normalizedPeriodId = _periodId.sub(periodIds[0]).add(1);\n\n            // if is the last period, then deliver the whole usersStake to the provider\n            uint256 rewardPercentage =\n                _periodId != periodIds[periodIds.length - 1]\n                    ? deviation.mul(normalizedPeriodId).div(periodIds.length)\n                    : uint256(1).mul(precision);\n            _setRespectedPeriodReward(_periodId, rewardPercentage, precision);\n        } else {\n            periodSLI.status = Status.NotRespected;\n            _setUsersCompensation();\n            _breachedContract = true;\n            emit SLANotRespected(_periodId, _sli);\n        }\n    }\n\n    function isAllowedPeriod(uint256 _periodId) public view returns (bool) {\n        for (uint256 index = 0; index < periodIds.length; index++) {\n            if (periodIds[index] == _periodId) {\n                return true;\n            }\n        }\n        return false;\n    }\n\n    /**\n     *@dev stake _amount tokens into the _token contract\n     *@param _amount 1. amount to be staked\n     *@param _token 2. address of the ERC to be staked\n     */\n\n    function stakeTokens(uint256 _amount, address _token) public {\n        require(_amount > 0, \"amount cannot be 0\");\n        require(\n            _breachedContract == false,\n            \"Can only stake on not breached contracts\"\n        );\n        _stake(_amount, _token);\n        StakeRegistry stakeRegistry = slaRegistry.stakeRegistry();\n        stakeRegistry.registerStakedSla(msg.sender);\n    }\n\n    /**\n     *@dev withdraw _amount tokens from the _token contract\n     *@param _amount 1. amount to be staked\n     *@param _tokenAddress 2. address of the ERC to be staked\n     */\n\n    function withdrawStakedTokens(uint256 _amount, address _tokenAddress)\n        public\n    {\n        require(_amount > 0, \"amount cannot be 0\");\n        uint256 lastValidPeriodId = periodIds[periodIds.length - 1];\n        (, uint256 endOfLastValidPeriod) =\n            periodRegistry.getPeriodStartAndEnd(periodType, lastValidPeriodId);\n        // providers and users can withdraw only if the contract is breached\n        // or if the last period is finished and the period status was verified\n        if (msg.sender != owner()) {\n            require(\n                _breachedContract == true ||\n                    (block.timestamp >= endOfLastValidPeriod &&\n                        periodSLIs[lastValidPeriodId].status !=\n                        Status.NotVerified),\n                \"Can only withdraw stake after the final period is finished or if the contract is breached\"\n            );\n        }\n        _withdraw(_amount, _tokenAddress);\n    }\n\n    /**\n     *@dev withdraw provider reward of a given token address\n     *@param _tokenAddress 1. address of the token to withdraw rewards\n     */\n\n    function claimUserCompensation(address _tokenAddress) public {\n        _claimCompensation(_tokenAddress);\n    }\n\n    function getPeriodIdsLength() public view returns (uint256) {\n        return periodIds.length;\n    }\n\n    function getStakersLength() public view returns (uint256) {\n        return stakers.length;\n    }\n\n    function breachedContract() public view returns (bool) {\n        return _breachedContract;\n    }\n}\n",
  "sourcePath": "/Users/matiasbn/Desktop/stacktical/stacktical-dsla-contracts/contracts/SLA.sol",
  "compiler": {
    "name": "solc",
    "version": "0.6.12+commit.27d51765.Emscripten.clang"
  },
  "schemaVersion": "3.3.3",
  "updatedAt": "2021-03-07T22:17:03.170Z",
  "devdoc": {
    "details": "SLA is a service level agreement contract used for service downtime compensation",
    "events": {
      "SLANotRespected(uint256,uint256)": {
        "details": "event for SLI creation logging",
        "params": {
          "_periodId": "1. the id of the given period",
          "_sli": "2. value of the SLI"
        }
      },
      "SLICreated(uint256,uint256,uint256)": {
        "details": "event for SLI creation logging",
        "params": {
          "periodId": "3. the id of the given period",
          "sli": "2. the value of the SLI",
          "timestamp": "1. the time the SLI has been registered"
        }
      }
    },
    "kind": "dev",
    "methods": {
      "_claimCompensation(address)": {
        "details": "claim user compensation. Transfers both the compensation and the user remaining stake.",
        "params": {
          "_tokenAddress": "1. address of the token to claim compensation"
        }
      },
      "addAllowedTokens(address)": {
        "details": "add a token to ve allowed for staking",
        "params": {
          "_tokenAddress": "1. address of the new allowed token"
        }
      },
      "claimUserCompensation(address)": {
        "details": "withdraw provider reward of a given token address",
        "params": {
          "_tokenAddress": "1. address of the token to withdraw rewards"
        }
      },
      "constructor": {
        "params": {
          "_SLO": "2. address of the SLO",
          "_extraData": "9. array of bytes32 to store extra data on deployment time",
          "_ipfsHash": "3. string with the ipfs hash that contains SLA information",
          "_owner": "1. address of the owner of the service level agreement",
          "_periodIds": "4. id of the allowed canonical periods",
          "_periodRegistry": "7. periodRegistry address",
          "_periodType": "5. period type of the SLA contract",
          "_slaID": "10. identifies the SLA to uniquely to emit dTokens",
          "_stakeRegistry": "6. stakeRegistry address",
          "_whitelisted": "8. boolean to declare whitelisted contracts"
        }
      },
      "getAllowedTokensLength()": {
        "details": "use this function to evaluate the length of the allowed tokens length",
        "returns": {
          "_0": "allowedTokens.length"
        }
      },
      "isAllowedToken(address)": {
        "details": "checks in the allowedTokens array if there's a token with _tokenAddress value",
        "params": {
          "_tokenAddress": "1. token address to check exixtence"
        },
        "returns": {
          "_0": "true if _tokenAddress exists in the allowedTokens array"
        }
      },
      "isStaker(address)": {
        "details": "returns true if the _staker address is registered as staker",
        "params": {
          "_staker": "1. staker address"
        },
        "returns": {
          "_0": "true if address is staker"
        }
      },
      "owner()": {
        "details": "Returns the address of the current owner."
      },
      "registerSLI(uint256,uint256)": {
        "details": "external function to register SLI's and check them against the SLO's",
        "params": {
          "_periodId": "2. the id of the given period",
          "_sli": "1. the value of the SLI to check"
        }
      },
      "renounceOwnership()": {
        "details": "Leaves the contract without owner. It will not be possible to call `onlyOwner` functions anymore. Can only be called by the current owner. NOTE: Renouncing ownership will leave the contract without an owner, thereby removing any functionality that is only available to the owner."
      },
      "stakeTokens(uint256,address)": {
        "details": "stake _amount tokens into the _token contract",
        "params": {
          "_amount": "1. amount to be staked",
          "_token": "2. address of the ERC to be staked"
        }
      },
      "transferOwnership(address)": {
        "details": "Transfers ownership of the contract to a new account (`newOwner`). Can only be called by the current owner."
      },
      "withdrawStakedTokens(uint256,address)": {
        "details": "withdraw _amount tokens from the _token contract",
        "params": {
          "_amount": "1. amount to be staked",
          "_tokenAddress": "2. address of the ERC to be staked"
        }
      }
    },
    "stateVariables": {
      "_breachedContract": {
        "details": "states if the contract was breached or not"
      },
      "creationBlockNumber": {
        "details": "block number of SLA deployment"
      },
      "extraData": {
        "details": "extra data for customized workflows"
      },
      "ipfsHash": {
        "details": "The ipfs hash that stores extra information about the agreement"
      },
      "messengerAddress": {
        "details": "The address of the messenger"
      },
      "nextVerifiablePeriod": {
        "details": "states if the contract was breached or not"
      },
      "periodIds": {
        "details": "array of he allowed canonical period ids"
      },
      "periodSLIs": {
        "details": "periodId=>PeriodSLI mapping"
      },
      "periodType": {
        "details": "uint8 of the period type"
      },
      "slaRegistry": {
        "details": "The address of the slaRegistry contract"
      },
      "slo": {
        "details": "address of the SLO"
      }
    },
    "title": "SLA",
    "version": 1
  },
  "userdoc": {
    "kind": "user",
    "methods": {
      "_claimCompensation(address)": {
        "notice": "it uses the user position and the user total position per token to check the proportion of the compensation pool that corresponds to every user"
      }
    },
    "version": 1
  }
}