{
  "contractName": "SLA",
  "abi": [
    {
      "inputs": [
        {
          "internalType": "address",
          "name": "_owner",
          "type": "address"
        },
        {
          "internalType": "bool",
          "name": "_whitelisted",
          "type": "bool"
        },
        {
          "internalType": "enum PeriodRegistry.PeriodType",
          "name": "_periodType",
          "type": "uint8"
        },
        {
          "internalType": "address",
          "name": "_messengerAddress",
          "type": "address"
        },
        {
          "internalType": "uint128",
          "name": "_initialPeriodId",
          "type": "uint128"
        },
        {
          "internalType": "uint128",
          "name": "_finalPeriodId",
          "type": "uint128"
        },
        {
          "internalType": "uint128",
          "name": "_slaID",
          "type": "uint128"
        },
        {
          "internalType": "string",
          "name": "_ipfsHash",
          "type": "string"
        },
        {
          "internalType": "bytes32[]",
          "name": "_extraData",
          "type": "bytes32[]"
        },
        {
          "internalType": "uint256",
          "name": "_leverage",
          "type": "uint256"
        }
      ],
      "stateMutability": "nonpayable",
      "type": "constructor"
    },
    {
      "anonymous": false,
      "inputs": [
        {
          "indexed": true,
          "internalType": "address",
          "name": "previousOwner",
          "type": "address"
        },
        {
          "indexed": true,
          "internalType": "address",
          "name": "newOwner",
          "type": "address"
        }
      ],
      "name": "OwnershipTransferred",
      "type": "event"
    },
    {
      "anonymous": false,
      "inputs": [
        {
          "indexed": true,
          "internalType": "uint256",
          "name": "periodId",
          "type": "uint256"
        },
        {
          "indexed": true,
          "internalType": "address",
          "name": "tokenAddress",
          "type": "address"
        },
        {
          "indexed": false,
          "internalType": "uint256",
          "name": "rewardPercentage",
          "type": "uint256"
        },
        {
          "indexed": false,
          "internalType": "uint256",
          "name": "rewardPercentagePrecision",
          "type": "uint256"
        },
        {
          "indexed": false,
          "internalType": "uint256",
          "name": "rewardAmount",
          "type": "uint256"
        }
      ],
      "name": "ProviderRewardGenerated",
      "type": "event"
    },
    {
      "anonymous": false,
      "inputs": [
        {
          "indexed": false,
          "internalType": "uint256",
          "name": "_periodId",
          "type": "uint256"
        },
        {
          "indexed": false,
          "internalType": "uint256",
          "name": "_sli",
          "type": "uint256"
        }
      ],
      "name": "SLANotRespected",
      "type": "event"
    },
    {
      "anonymous": false,
      "inputs": [
        {
          "indexed": false,
          "internalType": "uint256",
          "name": "timestamp",
          "type": "uint256"
        },
        {
          "indexed": false,
          "internalType": "uint256",
          "name": "sli",
          "type": "uint256"
        },
        {
          "indexed": false,
          "internalType": "uint256",
          "name": "periodId",
          "type": "uint256"
        }
      ],
      "name": "SLICreated",
      "type": "event"
    },
    {
      "inputs": [],
      "name": "DSLAburnRate",
      "outputs": [
        {
          "internalType": "uint256",
          "name": "",
          "type": "uint256"
        }
      ],
      "stateMutability": "view",
      "type": "function"
    },
    {
      "inputs": [
        {
          "internalType": "address",
          "name": "_tokenAddress",
          "type": "address"
        }
      ],
      "name": "addAllowedTokens",
      "outputs": [],
      "stateMutability": "nonpayable",
      "type": "function"
    },
    {
      "inputs": [
        {
          "internalType": "address[]",
          "name": "_userAddresses",
          "type": "address[]"
        }
      ],
      "name": "addMultipleUsersToWhitelist",
      "outputs": [],
      "stateMutability": "nonpayable",
      "type": "function"
    },
    {
      "inputs": [
        {
          "internalType": "address",
          "name": "_userAddress",
          "type": "address"
        }
      ],
      "name": "addUserToWhitelist",
      "outputs": [],
      "stateMutability": "nonpayable",
      "type": "function"
    },
    {
      "inputs": [
        {
          "internalType": "uint256",
          "name": "",
          "type": "uint256"
        }
      ],
      "name": "allowedTokens",
      "outputs": [
        {
          "internalType": "address",
          "name": "",
          "type": "address"
        }
      ],
      "stateMutability": "view",
      "type": "function"
    },
    {
      "inputs": [],
      "name": "creationBlockNumber",
      "outputs": [
        {
          "internalType": "uint256",
          "name": "",
          "type": "uint256"
        }
      ],
      "stateMutability": "view",
      "type": "function"
    },
    {
      "inputs": [
        {
          "internalType": "address",
          "name": "",
          "type": "address"
        }
      ],
      "name": "dpTokenRegistry",
      "outputs": [
        {
          "internalType": "contract ERC20PresetMinterPauser",
          "name": "",
          "type": "address"
        }
      ],
      "stateMutability": "view",
      "type": "function"
    },
    {
      "inputs": [],
      "name": "dslaTokenAddress",
      "outputs": [
        {
          "internalType": "address",
          "name": "",
          "type": "address"
        }
      ],
      "stateMutability": "view",
      "type": "function"
    },
    {
      "inputs": [
        {
          "internalType": "address",
          "name": "",
          "type": "address"
        }
      ],
      "name": "duTokenRegistry",
      "outputs": [
        {
          "internalType": "contract ERC20PresetMinterPauser",
          "name": "",
          "type": "address"
        }
      ],
      "stateMutability": "view",
      "type": "function"
    },
    {
      "inputs": [
        {
          "internalType": "uint256",
          "name": "",
          "type": "uint256"
        }
      ],
      "name": "extraData",
      "outputs": [
        {
          "internalType": "bytes32",
          "name": "",
          "type": "bytes32"
        }
      ],
      "stateMutability": "view",
      "type": "function"
    },
    {
      "inputs": [],
      "name": "finalPeriodId",
      "outputs": [
        {
          "internalType": "uint128",
          "name": "",
          "type": "uint128"
        }
      ],
      "stateMutability": "view",
      "type": "function"
    },
    {
      "inputs": [],
      "name": "getAllowedTokensLength",
      "outputs": [
        {
          "internalType": "uint256",
          "name": "",
          "type": "uint256"
        }
      ],
      "stateMutability": "view",
      "type": "function"
    },
    {
      "inputs": [
        {
          "internalType": "address",
          "name": "_staker",
          "type": "address"
        },
        {
          "internalType": "uint256",
          "name": "_allowedTokenIndex",
          "type": "uint256"
        }
      ],
      "name": "getTokenStake",
      "outputs": [
        {
          "internalType": "address",
          "name": "tokenAddress",
          "type": "address"
        },
        {
          "internalType": "uint256",
          "name": "stake",
          "type": "uint256"
        }
      ],
      "stateMutability": "view",
      "type": "function"
    },
    {
      "inputs": [],
      "name": "initialPeriodId",
      "outputs": [
        {
          "internalType": "uint128",
          "name": "",
          "type": "uint128"
        }
      ],
      "stateMutability": "view",
      "type": "function"
    },
    {
      "inputs": [],
      "name": "ipfsHash",
      "outputs": [
        {
          "internalType": "string",
          "name": "",
          "type": "string"
        }
      ],
      "stateMutability": "view",
      "type": "function"
    },
    {
      "inputs": [
        {
          "internalType": "address",
          "name": "_tokenAddress",
          "type": "address"
        }
      ],
      "name": "isAllowedToken",
      "outputs": [
        {
          "internalType": "bool",
          "name": "",
          "type": "bool"
        }
      ],
      "stateMutability": "view",
      "type": "function"
    },
    {
      "inputs": [],
      "name": "leverage",
      "outputs": [
        {
          "internalType": "uint256",
          "name": "",
          "type": "uint256"
        }
      ],
      "stateMutability": "view",
      "type": "function"
    },
    {
      "inputs": [],
      "name": "messengerAddress",
      "outputs": [
        {
          "internalType": "address",
          "name": "",
          "type": "address"
        }
      ],
      "stateMutability": "view",
      "type": "function"
    },
    {
      "inputs": [],
      "name": "nextVerifiablePeriod",
      "outputs": [
        {
          "internalType": "uint256",
          "name": "",
          "type": "uint256"
        }
      ],
      "stateMutability": "view",
      "type": "function"
    },
    {
      "inputs": [],
      "name": "owner",
      "outputs": [
        {
          "internalType": "address",
          "name": "",
          "type": "address"
        }
      ],
      "stateMutability": "view",
      "type": "function"
    },
    {
      "inputs": [
        {
          "internalType": "uint256",
          "name": "",
          "type": "uint256"
        }
      ],
      "name": "periodSLIs",
      "outputs": [
        {
          "internalType": "uint256",
          "name": "timestamp",
          "type": "uint256"
        },
        {
          "internalType": "uint256",
          "name": "sli",
          "type": "uint256"
        },
        {
          "internalType": "enum SLA.Status",
          "name": "status",
          "type": "uint8"
        }
      ],
      "stateMutability": "view",
      "type": "function"
    },
    {
      "inputs": [],
      "name": "periodType",
      "outputs": [
        {
          "internalType": "enum PeriodRegistry.PeriodType",
          "name": "",
          "type": "uint8"
        }
      ],
      "stateMutability": "view",
      "type": "function"
    },
    {
      "inputs": [
        {
          "internalType": "address",
          "name": "",
          "type": "address"
        }
      ],
      "name": "providerPool",
      "outputs": [
        {
          "internalType": "uint256",
          "name": "",
          "type": "uint256"
        }
      ],
      "stateMutability": "view",
      "type": "function"
    },
    {
      "inputs": [
        {
          "internalType": "address",
          "name": "",
          "type": "address"
        }
      ],
      "name": "registeredStakers",
      "outputs": [
        {
          "internalType": "bool",
          "name": "",
          "type": "bool"
        }
      ],
      "stateMutability": "view",
      "type": "function"
    },
    {
      "inputs": [
        {
          "internalType": "address[]",
          "name": "_userAddresses",
          "type": "address[]"
        }
      ],
      "name": "removeMultipleUsersFromWhitelist",
      "outputs": [],
      "stateMutability": "nonpayable",
      "type": "function"
    },
    {
      "inputs": [
        {
          "internalType": "address",
          "name": "_userAddress",
          "type": "address"
        }
      ],
      "name": "removeUserFromWhitelist",
      "outputs": [],
      "stateMutability": "nonpayable",
      "type": "function"
    },
    {
      "inputs": [],
      "name": "renounceOwnership",
      "outputs": [],
      "stateMutability": "nonpayable",
      "type": "function"
    },
    {
      "inputs": [],
      "name": "slaID",
      "outputs": [
        {
          "internalType": "uint128",
          "name": "",
          "type": "uint128"
        }
      ],
      "stateMutability": "view",
      "type": "function"
    },
    {
      "inputs": [],
      "name": "slaRegistry",
      "outputs": [
        {
          "internalType": "contract SLARegistry",
          "name": "",
          "type": "address"
        }
      ],
      "stateMutability": "view",
      "type": "function"
    },
    {
      "inputs": [
        {
          "internalType": "uint256",
          "name": "",
          "type": "uint256"
        }
      ],
      "name": "stakers",
      "outputs": [
        {
          "internalType": "address",
          "name": "",
          "type": "address"
        }
      ],
      "stateMutability": "view",
      "type": "function"
    },
    {
      "inputs": [
        {
          "internalType": "address",
          "name": "newOwner",
          "type": "address"
        }
      ],
      "name": "transferOwnership",
      "outputs": [],
      "stateMutability": "nonpayable",
      "type": "function"
    },
    {
      "inputs": [
        {
          "internalType": "address",
          "name": "",
          "type": "address"
        }
      ],
      "name": "usersPool",
      "outputs": [
        {
          "internalType": "uint256",
          "name": "",
          "type": "uint256"
        }
      ],
      "stateMutability": "view",
      "type": "function"
    },
    {
      "inputs": [
        {
          "internalType": "address",
          "name": "",
          "type": "address"
        }
      ],
      "name": "whitelist",
      "outputs": [
        {
          "internalType": "bool",
          "name": "",
          "type": "bool"
        }
      ],
      "stateMutability": "view",
      "type": "function"
    },
    {
      "inputs": [],
      "name": "whitelistedContract",
      "outputs": [
        {
          "internalType": "bool",
          "name": "",
          "type": "bool"
        }
      ],
      "stateMutability": "view",
      "type": "function"
    },
    {
      "inputs": [
        {
          "internalType": "uint256",
          "name": "_sli",
          "type": "uint256"
        },
        {
          "internalType": "uint256",
          "name": "_periodId",
          "type": "uint256"
        }
      ],
      "name": "registerSLI",
      "outputs": [],
      "stateMutability": "nonpayable",
      "type": "function"
    },
    {
      "inputs": [
        {
          "internalType": "uint256",
          "name": "_periodId",
          "type": "uint256"
        }
      ],
      "name": "isAllowedPeriod",
      "outputs": [
        {
          "internalType": "bool",
          "name": "",
          "type": "bool"
        }
      ],
      "stateMutability": "view",
      "type": "function"
    },
    {
      "inputs": [],
      "name": "contractFinished",
      "outputs": [
        {
          "internalType": "bool",
          "name": "",
          "type": "bool"
        }
      ],
      "stateMutability": "view",
      "type": "function"
    },
    {
      "inputs": [
        {
          "internalType": "uint256",
          "name": "_amount",
          "type": "uint256"
        },
        {
          "internalType": "address",
          "name": "_token",
          "type": "address"
        }
      ],
      "name": "stakeTokens",
      "outputs": [],
      "stateMutability": "nonpayable",
      "type": "function"
    },
    {
      "inputs": [
        {
          "internalType": "uint256",
          "name": "_amount",
          "type": "uint256"
        },
        {
          "internalType": "address",
          "name": "_tokenAddress",
          "type": "address"
        }
      ],
      "name": "withdrawProviderTokens",
      "outputs": [],
      "stateMutability": "nonpayable",
      "type": "function"
    },
    {
      "inputs": [
        {
          "internalType": "uint256",
          "name": "_amount",
          "type": "uint256"
        },
        {
          "internalType": "address",
          "name": "_tokenAddress",
          "type": "address"
        }
      ],
      "name": "withdrawUserTokens",
      "outputs": [],
      "stateMutability": "nonpayable",
      "type": "function"
    },
    {
      "inputs": [],
      "name": "getStakersLength",
      "outputs": [
        {
          "internalType": "uint256",
          "name": "",
          "type": "uint256"
        }
      ],
      "stateMutability": "view",
      "type": "function"
    },
    {
      "inputs": [],
      "name": "breachedContract",
      "outputs": [
        {
          "internalType": "bool",
          "name": "",
          "type": "bool"
        }
      ],
      "stateMutability": "view",
      "type": "function"
    }
  ],
  "bytecode": "0x610240604052600e805460ff191690553480156200001c57600080fd5b50604051620040a7380380620040a78339810160408190526200003f9162000980565b33888a86846000620000596001600160e01b03620005b316565b600080546001600160a01b0319166001600160a01b03831690811782556040519293509160008051602062004087833981519152908290a35060018081905550846001600160a01b031663683048356040518163ffffffff1660e01b815260040160206040518083038186803b158015620000d357600080fd5b505afa158015620000e8573d6000803e3d6000fd5b505050506040513d601f19601f820116820180604052508101906200010e91906200095a565b600260006101000a8154816001600160a01b0302191690836001600160a01b03160217905550846001600160a01b0316639fc4caa56040518163ffffffff1660e01b815260040160206040518083038186803b1580156200016e57600080fd5b505afa15801562000183573d6000803e3d6000fd5b505050506040513d601f19601f82011682018060405250810190620001a991906200095a565b60601b6001600160601b031916608052836005811115620001c657fe5b610100816005811115620001d657fe5b60f890811b909152841515901b610120525060025460408051637b8041cf60e11b815290516000926001600160a01b03169163f700839e9160048083019260e0929190829003018186803b1580156200022e57600080fd5b505afa15801562000243573d6000803e3d6000fd5b505050506040513d601f19601f8201168201806040525081019062000269919062000a96565b5050505050509050600260009054906101000a90046001600160a01b03166001600160a01b0316638b8e53096040518163ffffffff1660e01b815260040160206040518083038186803b158015620002c057600080fd5b505afa158015620002d5573d6000803e3d6000fd5b505050506040513d601f19601f82011682018060405250810190620002fb91906200095a565b60601b6001600160601b03191660c05260e08190526200031b33620005b8565b6001600160801b0319608084901b1660a05260025460408051631c79942160e31b815290516001600160a01b039092169163e3cca10891600480820192602092909190829003018186803b1580156200037357600080fd5b505afa15801562000388573d6000803e3d6000fd5b505050506040513d601f19601f82011682018060405250810190620003ae919062000a7d565b821115620003bb57600080fd5b506101405250620003da92508c9150506001600160e01b036200066416565b8251620003ef90600b9060208601906200071a565b506001600160601b0319606088901b1661016052600c80546001600160a01b03191633179081905560408051639fc4caa560e01b815290516001600160a01b039290921691639fc4caa591600480820192602092909190829003018186803b1580156200045b57600080fd5b505afa15801562000470573d6000803e3d6000fd5b505050506040513d601f19601f820116820180604052508101906200049691906200095a565b60601b6001600160601b03191661018052600c5460408051635a7d1e5d60e01b815290516001600160a01b0390921691635a7d1e5d91600480820192602092909190829003018186803b158015620004ed57600080fd5b505afa15801562000502573d6000803e3d6000fd5b505050506040513d601f19601f820116820180604052508101906200052891906200095a565b60601b6001600160601b0319166101a052436101c052608086811b6001600160801b03199081166101e0529086901b16610200528760058111156200056957fe5b6102208160058111156200057957fe5b60f81b90525081516200059490600d9060208501906200079f565b5050506001600160801b03909316600f555062000bdc95505050505050565b335b90565b620005cb6001600160e01b03620005b316565b6000546001600160a01b03908116911614620006045760405162461bcd60e51b8152600401620005fb9062000b67565b60405180910390fd5b6001600160a01b0381166000908152600a602052604090205460ff1615620006405760405162461bcd60e51b8152600401620005fb9062000aea565b6001600160a01b03166000908152600a60205260409020805460ff19166001179055565b620006776001600160e01b03620005b316565b6000546001600160a01b03908116911614620006a75760405162461bcd60e51b8152600401620005fb9062000b67565b6001600160a01b038116620006d05760405162461bcd60e51b8152600401620005fb9062000b21565b600080546040516001600160a01b03808516939216916000805160206200408783398151915291a3600080546001600160a01b0319166001600160a01b0392909216919091179055565b828054600181600116156101000203166002900490600052602060002090601f016020900481019282601f106200075d57805160ff19168380011785556200078d565b828001600101855582156200078d579182015b828111156200078d57825182559160200191906001019062000770565b506200079b929150620007dc565b5090565b8280548282559060005260206000209081019282156200078d57916020028201828111156200078d57825182559160200191906001019062000770565b620005b591905b808211156200079b5760008155600101620007e3565b8051620008068162000bc3565b92915050565b600082601f8301126200081d578081fd5b81516001600160401b0381111562000833578182fd5b60208082026200084582820162000b9c565b838152935081840185830182870184018810156200086257600080fd5b600092505b848310156200088757805182526001929092019190830190830162000867565b505050505092915050565b805180151581146200080657600080fd5b8051600681106200080657600080fd5b600082601f830112620008c4578081fd5b81516001600160401b03811115620008da578182fd5b6020620008f0601f8301601f1916820162000b9c565b925081835284818386010111156200090757600080fd5b60005b82811015620009275784810182015184820183015281016200090a565b82811115620009395760008284860101525b50505092915050565b80516001600160801b03811681146200080657600080fd5b6000602082840312156200096c578081fd5b8151620009798162000bc3565b9392505050565b6000806000806000806000806000806101408b8d031215620009a0578586fd5b620009ac8c8c620007f9565b9950620009bd8c60208d0162000892565b9850620009ce8c60408d01620008a3565b9750620009df8c60608d01620007f9565b9650620009f08c60808d0162000942565b955062000a018c60a08d0162000942565b945062000a128c60c08d0162000942565b60e08c01519094506001600160401b038082111562000a2f578485fd5b62000a3d8e838f01620008b3565b94506101008d015191508082111562000a54578384fd5b5062000a638d828e016200080c565b9250506101208b015190509295989b9194979a5092959850565b60006020828403121562000a8f578081fd5b5051919050565b600080600080600080600060e0888a03121562000ab1578283fd5b5050855160208701516040880151606089015160808a015160a08b015160c0909b0151949c939b50919990985090965094509092509050565b60208082526018908201527f5573657220616c72656164792077686974656c69737465640000000000000000604082015260600190565b60208082526026908201527f4f776e61626c653a206e6577206f776e657220697320746865207a65726f206160408201526564647265737360d01b606082015260800190565b6020808252818101527f4f776e61626c653a2063616c6c6572206973206e6f7420746865206f776e6572604082015260600190565b6040518181016001600160401b038111828210171562000bbb57600080fd5b604052919050565b6001600160a01b038116811462000bd957600080fd5b50565b60805160601c60a05160801c60c05160601c60e0516101005160f81c6101205160f81c610140516101605160601c6101805160601c6101a05160601c6101c0516101e05160801c6102005160801c6102205160f81c6133af62000cd860003980610c94528061118f5250806105635280610c4c52806111b0528061125e52806117c952508061052a5280610b89528061175e52806117a8525080610b655250806115d352806116725250806111605250806112cd5280611526525080610c285280611b3b5280612361528061270b525080610b415280611a5252505080610edb52508061196152508061091c52806118875250506133af6000f3fe608060405234801561001057600080fd5b506004361061025e5760003560e01c806378025ec411610146578063c26ff615116100c3578063db69a46211610087578063db69a462146104d5578063f2db10fe146104dd578063f2fde38b146104e5578063f7e9dfff146104f8578063f9902bb114610500578063fd5e6dd1146105135761025e565b8063c26ff61514610474578063c623674f14610487578063c8b5c2481461049c578063cbe230c3146104af578063d7a5c422146104c25761025e565b80639fabeb001161010a5780639fabeb0014610441578063a224ee9c14610449578063a7e8d8d414610451578063b1659bad14610464578063b7bc347e1461046c5761025e565b806378025ec4146104035780637fd788aa146104165780638da5cb5b1461041e57806396f76f11146104265780639b19251a1461042e5761025e565b806346e0fbae116101df5780635c1c20de116101a35780635c1c20de146103a75780635e5f2e26146103af578063639b6fc3146103c2578063715018a6146103d5578063740882ac146103dd578063747b8050146103f05761025e565b806346e0fbae1461032b578063484fbf2b146103405780634e0c91f6146103535780634fb2647e1461037357806357ac94f0146103865761025e565b80632526743a116102265780632526743a146102d157806326db18ac146102e65780632c86d98e146102f95780633385d334146103015780634190edde146103095761025e565b8063021eef7f146102635780630bea440d1461028c578063171e44ea146102a157806318e45427146102b45780631bf30929146102bc575b600080fd5b610276610271366004612af9565b610526565b6040516102839190612d67565b60405180910390f35b61029f61029a366004612b29565b6105a3565b005b61029f6102af366004612a0a565b610707565b610276610b3f565b6102c4610b63565b6040516102839190612d72565b6102d9610b87565b60405161028391906132c3565b61029f6102f4366004612b29565b610bab565b6102c4610c26565b6102d9610c4a565b61031c610317366004612af9565b610c6e565b604051610283939291906132fc565b610333610c92565b6040516102839190612d7b565b6102c461034e366004612a0a565b610cb6565b610366610361366004612a0a565b610cc8565b6040516102839190612d16565b610366610381366004612a0a565b610ce3565b610399610394366004612a42565b610cfe565b604051610283929190612d2a565b6102c4610ed9565b6103666103bd366004612af9565b610efd565b6102c46103d0366004612a0a565b610f24565b61029f610f36565b61029f6103eb366004612a6d565b610fb5565b61029f6103fe366004612a0a565b611093565b6102c4610411366004612af9565b611125565b610276611143565b61036661114c565b61027661115b565b61027661043c366004612a0a565b6112b0565b6102c46112c5565b6103666112cb565b61027661045f366004612a0a565b6112ef565b6102c4611304565b6102c461130a565b61029f610482366004612a6d565b611310565b61048f6113f4565b6040516102839190612db5565b61029f6104aa366004612b29565b611482565b6102766104bd366004612a0a565b6114c0565b61029f6104d0366004612b7f565b61151b565b610366611876565b6102d9611885565b61029f6104f3366004612a0a565b6118a9565b61036661195f565b61029f61050e366004612a0a565b611983565b610366610521366004612af9565b611a16565b60007f00000000000000000000000000000000000000000000000000000000000000006001600160801b03168210156105615750600061059e565b7f00000000000000000000000000000000000000000000000000000000000000006001600160801b031682111561059a5750600061059e565b5060015b919050565b81600081116105cd5760405162461bcd60e51b81526004016105c4906131e8565b60405180910390fd5b60006105d761115b565b905080156105f75760405162461bcd60e51b81526004016105c490613061565b6106018484611a23565b600c5460408051636830483560e01b815290516000926001600160a01b0316916368304835916004808301926020929190829003018186803b15801561064657600080fd5b505afa15801561065a573d6000803e3d6000fd5b505050506040513d601f19601f8201168201806040525081019061067e9190612a26565b604051635948284760e11b81529091506001600160a01b0382169063b290508e906106ad903390600401612d16565b602060405180830381600087803b1580156106c757600080fd5b505af11580156106db573d6000803e3d6000fd5b505050506040513d601f19601f820116820180604052508101906106ff9190612ad9565b505050505050565b61070f611fa8565b6000546001600160a01b0390811691161461073c5760405162461bcd60e51b81526004016105c490613118565b6002600154141561075f5760405162461bcd60e51b81526004016105c49061328c565b600260018190555460408051637b8041cf60e11b815290516000926001600160a01b03169163f700839e9160048083019260e0929190829003018186803b1580156107a957600080fd5b505afa1580156107bd573d6000803e3d6000fd5b505050506040513d601f19601f820116820180604052508101906107e19190612bc3565b96505050505050506107f2826114c0565b1561080f5760405162461bcd60e51b81526004016105c490613184565b60025460405163cbe230c360e01b81526001600160a01b039091169063cbe230c39061083f908590600401612d16565b60206040518083038186803b15801561085757600080fd5b505afa15801561086b573d6000803e3d6000fd5b505050506040513d601f19601f8201168201806040525081019061088f9190612ad9565b6108ab5760405162461bcd60e51b81526004016105c490612f4b565b6009805460018101825560008290527f6e1540171b6c0c960b71a7020d9f60077f6af931a8bbf590da0223dacf75c7af0180546001600160a01b0319166001600160a01b038516179055548110156109155760405162461bcd60e51b81526004016105c490612df6565b60606109497f00000000000000000000000000000000000000000000000000000000000000006001600160801b0316611fac565b905060608160405160200161095e9190612c5e565b60405160208183030381529060405290506060826040516020016109829190612c91565b60405160208183030381529060405290506060836040516020016109a69190612cc1565b60405160208183030381529060405290506060846040516020016109ca9190612cf3565b60408051601f1981840301815290829052600254633350214760e11b83529092506000916001600160a01b03909116906366a0428e90610a109088908890600401612dc8565b602060405180830381600087803b158015610a2a57600080fd5b505af1158015610a3e573d6000803e3d6000fd5b505050506040513d601f19601f82011682018060405250810190610a629190612a26565b600254604051633350214760e11b81529192506000916001600160a01b03909116906366a0428e90610a9a9087908790600401612dc8565b602060405180830381600087803b158015610ab457600080fd5b505af1158015610ac8573d6000803e3d6000fd5b505050506040513d601f19601f82011682018060405250810190610aec9190612a26565b6001600160a01b03998a1660009081526006602090815260408083208054948e166001600160a01b031995861617905560059091529020805493909a169216919091179097555050600180555050505050565b7f000000000000000000000000000000000000000000000000000000000000000081565b7f000000000000000000000000000000000000000000000000000000000000000081565b7f000000000000000000000000000000000000000000000000000000000000000081565b8160008111610bcc5760405162461bcd60e51b81526004016105c4906131e8565b610bd461114c565b6001600160a01b0316336001600160a01b031614610c17576000610bf661115b565b905080610c155760405162461bcd60e51b81526004016105c49061314d565b505b610c218383612087565b505050565b7f000000000000000000000000000000000000000000000000000000000000000081565b7f000000000000000000000000000000000000000000000000000000000000000081565b60106020526000908152604090208054600182015460029092015490919060ff1683565b7f000000000000000000000000000000000000000000000000000000000000000081565b60046020526000908152604090205481565b6005602052600090815260409020546001600160a01b031681565b6006602052600090815260409020546001600160a01b031681565b600080600060098481548110610d1057fe5b6000918252602090912001546001600160a01b03169050610d2f61114c565b6001600160a01b0316856001600160a01b03161415610d6b576001600160a01b0381166000908152600360205260409020549092509050610ed2565b6001600160a01b0380821660009081526005602090815260408083205481516318160ddd60e01b8152915194169384926318160ddd9260048082019391829003018186803b158015610dbc57600080fd5b505afa158015610dd0573d6000803e3d6000fd5b505050506040513d601f19601f82011682018060405250810190610df49190612b11565b905080610e0a575090925060009150610ed29050565b6040516370a0823160e01b81526000906001600160a01b038416906370a0823190610e39908b90600401612d16565b60206040518083038186803b158015610e5157600080fd5b505afa158015610e65573d6000803e3d6000fd5b505050506040513d601f19601f82011682018060405250810190610e899190612b11565b6001600160a01b0385166000908152600460205260409020549091508490610ec9908490610ebd908563ffffffff61225916565b9063ffffffff61229c16565b95509550505050505b9250929050565b7f000000000000000000000000000000000000000000000000000000000000000081565b60098181548110610f0a57fe5b6000918252602090912001546001600160a01b0316905081565b60036020526000908152604090205481565b610f3e611fa8565b6000546001600160a01b03908116911614610f6b5760405162461bcd60e51b81526004016105c490613118565b600080546040516001600160a01b03909116907f8be0079c531659141344cd1fd0a4f28419497f9722a3daafe3b4186f6b6457e0908390a3600080546001600160a01b0319169055565b610fbd611fa8565b6000546001600160a01b03908116911614610fea5760405162461bcd60e51b81526004016105c490613118565b60005b81811015610c2157600a600084848481811061100557fe5b905060200201602081019061101a9190612a0a565b6001600160a01b0316815260208101919091526040016000205460ff1661108b576001600a600085858581811061104d57fe5b90506020020160208101906110629190612a0a565b6001600160a01b031681526020810191909152604001600020805460ff19169115159190911790555b600101610fed565b61109b611fa8565b6000546001600160a01b039081169116146110c85760405162461bcd60e51b81526004016105c490613118565b6001600160a01b0381166000908152600a602052604090205460ff16156111015760405162461bcd60e51b81526004016105c490612e49565b6001600160a01b03166000908152600a60205260409020805460ff19166001179055565b600d818154811061113257fe5b600091825260209091200154905081565b600e5460ff1690565b6000546001600160a01b031690565b6000807f00000000000000000000000000000000000000000000000000000000000000006001600160a01b031663ffa612357f00000000000000000000000000000000000000000000000000000000000000007f00000000000000000000000000000000000000000000000000000000000000006040518363ffffffff1660e01b81526004016111ec929190612d8f565b604080518083038186803b15801561120357600080fd5b505afa158015611217573d6000803e3d6000fd5b505050506040513d601f19601f8201168201806040525081019061123b9190612ba0565b600e5490925060ff1615156001149050806112aa57508042101580156112aa57507f00000000000000000000000000000000000000000000000000000000000000006001600160801b0316600090815260106020526040812060029081015460ff16908111156112a757fe5b14155b91505090565b600a6020526000908152604090205460ff1681565b60075490565b7f000000000000000000000000000000000000000000000000000000000000000081565b60086020526000908152604090205460ff1681565b600f5481565b60095490565b611318611fa8565b6000546001600160a01b039081169116146113455760405162461bcd60e51b81526004016105c490613118565b60005b81811015610c2157600a600084848481811061136057fe5b90506020020160208101906113759190612a0a565b6001600160a01b0316815260208101919091526040016000205460ff161515600114156113ec576000600a60008585858181106113ae57fe5b90506020020160208101906113c39190612a0a565b6001600160a01b031681526020810191909152604001600020805460ff19169115159190911790555b600101611348565b600b805460408051602060026001851615610100026000190190941693909304601f8101849004840282018401909252818152929183018282801561147a5780601f1061144f5761010080835404028352916020019161147a565b820191906000526020600020905b81548152906001019060200180831161145d57829003601f168201915b505050505081565b81600081116114a35760405162461bcd60e51b81526004016105c4906131e8565b60006114ad61115b565b90506114ba8484836122de565b50505050565b6000805b60095481101561151257826001600160a01b0316600982815481106114e557fe5b6000918252602090912001546001600160a01b0316141561150a57600191505061059e565b6001016114c4565b50600092915050565b336001600160a01b037f000000000000000000000000000000000000000000000000000000000000000016146115635760405162461bcd60e51b81526004016105c490612f98565b7fc95987c1992805ee34bdc915e017cceae36ba1c156b9911fa7e691e6435eb46e42838360405161159693929190613322565b60405180910390a16001808201600f556000828152601060205260408082209283018590554283555163a7b72ac560e01b81526001600160a01b037f0000000000000000000000000000000000000000000000000000000000000000169063a7b72ac590611608903090600401612d16565b604080518083038186803b15801561161f57600080fd5b505afa158015611633573d6000803e3d6000fd5b505050506040513d601f19601f820116820180604052508101906116579190612b58565b50604051631993b9df60e01b81529091506001600160a01b037f00000000000000000000000000000000000000000000000000000000000000001690631993b9df906116a990879030906004016132d7565b60206040518083038186803b1580156116c157600080fd5b505afa1580156116d5573d6000803e3d6000fd5b505050506040513d601f19601f820116820180604052508101906116f99190612ad9565b15611811576002828101805460ff19166001179055612710906000906117479061172790610ebd898761253b565b610ebd8461173b8a8863ffffffff61256016565b9063ffffffff61225916565b905060006117956001611789886001600160801b037f00000000000000000000000000000000000000000000000000000000000000001663ffffffff61256016565b9063ffffffff61253b16565b905060006117fb6001600160801b0360017f00000000000000000000000000000000000000000000000000000000000000007f0000000000000000000000000000000000000000000000000000000000000000030116610ebd858563ffffffff61225916565b90506118088782866125a2565b505050506114ba565b6002828101805460ff191690911790556118296126c1565b600e805460ff191660011790556040517fbd33f7a3bfa88a467c9df5ae7d2341cf061084c386b20a0d48130f5cbce38a4d9061186890859087906132ee565b60405180910390a150505050565b600c546001600160a01b031681565b7f000000000000000000000000000000000000000000000000000000000000000081565b6118b1611fa8565b6000546001600160a01b039081169116146118de5760405162461bcd60e51b81526004016105c490613118565b6001600160a01b0381166119045760405162461bcd60e51b81526004016105c490612e7b565b600080546040516001600160a01b03808516939216917f8be0079c531659141344cd1fd0a4f28419497f9722a3daafe3b4186f6b6457e091a3600080546001600160a01b0319166001600160a01b0392909216919091179055565b7f000000000000000000000000000000000000000000000000000000000000000081565b61198b611fa8565b6000546001600160a01b039081169116146119b85760405162461bcd60e51b81526004016105c490613118565b6001600160a01b0381166000908152600a602052604090205460ff1615156001146119f55760405162461bcd60e51b81526004016105c490613214565b6001600160a01b03166000908152600a60205260409020805460ff19169055565b60078181548110610f0a57fe5b80611a2d816114c0565b1515600114611a4e5760405162461bcd60e51b81526004016105c4906130ea565b60017f000000000000000000000000000000000000000000000000000000000000000015151415611aad57336000908152600a602052604090205460ff161515600114611aad5760405162461bcd60e51b81526004016105c490613030565b60026001541415611ad05760405162461bcd60e51b81526004016105c49061328c565b6002600155611af06001600160a01b03831633308663ffffffff6127c016565b611af861114c565b6001600160a01b0316336001600160a01b031614611d5d576001600160a01b03821660009081526003602090815260408083205460049092529091205481611b6a7f000000000000000000000000000000000000000000000000000000000000000061173b848963ffffffff61253b16565b1115611b885760405162461bcd60e51b81526004016105c490612fdd565b6001600160a01b0380851660009081526005602090815260408083205481516318160ddd60e01b8152915194169384926318160ddd9260048082019391829003018186803b158015611bd957600080fd5b505afa158015611bed573d6000803e3d6000fd5b505050506040513d601f19601f82011682018060405250810190611c119190612b11565b905080611c7d576040516340c10f1960e01b81526001600160a01b038316906340c10f1990611c469033908b90600401612d2a565b600060405180830381600087803b158015611c6057600080fd5b505af1158015611c74573d6000803e3d6000fd5b50505050611d11565b6001600160a01b03861660009081526004602052604081205490611cab82610ebd8b8663ffffffff61225916565b6040516340c10f1960e01b81529091506001600160a01b038516906340c10f1990611cdc9033908590600401612d2a565b600060405180830381600087803b158015611cf657600080fd5b505af1158015611d0a573d6000803e3d6000fd5b5050505050505b6001600160a01b038616600090815260046020526040902054611d3a908863ffffffff61253b16565b6001600160a01b03871660009081526004602052604090205550611f2b92505050565b6001600160a01b0380831660009081526006602090815260408083205481516318160ddd60e01b8152915194169384926318160ddd9260048082019391829003018186803b158015611dae57600080fd5b505afa158015611dc2573d6000803e3d6000fd5b505050506040513d601f19601f82011682018060405250810190611de69190612b11565b905080611e52576040516340c10f1960e01b81526001600160a01b038316906340c10f1990611e1b9033908990600401612d2a565b600060405180830381600087803b158015611e3557600080fd5b505af1158015611e49573d6000803e3d6000fd5b50505050611ee6565b6001600160a01b03841660009081526003602052604081205490611e8082610ebd898663ffffffff61225916565b6040516340c10f1960e01b81529091506001600160a01b038516906340c10f1990611eb19033908590600401612d2a565b600060405180830381600087803b158015611ecb57600080fd5b505af1158015611edf573d6000803e3d6000fd5b5050505050505b6001600160a01b038416600090815260036020526040902054611f0f908663ffffffff61253b16565b6001600160a01b03851660009081526003602052604090205550505b3360009081526008602052604090205460ff16611f9f57336000818152600860205260408120805460ff191660019081179091556007805491820181559091527fa66cc928b5edb82af9bd49922954155ab7b0942694bea4ce44661d9a8736c6880180546001600160a01b03191690911790555b50506001805550565b3390565b60608180611fd35750506040805180820190915260018152600360fc1b602082015261059e565b8060005b8115611feb57600101600a82049150611fd7565b60608167ffffffffffffffff8111801561200457600080fd5b506040519080825280601f01601f19166020018201604052801561202f576020820181803683370190505b50905060001982015b841561207d57600a850660300160f81b8282806001900393508151811061205b57fe5b60200101906001600160f81b031916908160001a905350600a85049450612038565b5095945050505050565b80612091816114c0565b15156001146120b25760405162461bcd60e51b81526004016105c4906130ea565b600260015414156120d55760405162461bcd60e51b81526004016105c49061328c565b60026001556001600160a01b0380831660009081526005602090815260408083205481516318160ddd60e01b8152915194169384926318160ddd9260048082019391829003018186803b15801561212b57600080fd5b505afa15801561213f573d6000803e3d6000fd5b505050506040513d601f19601f820116820180604052508101906121639190612b11565b6001600160a01b03851660009081526004602052604081205491925061219382610ebd898663ffffffff61225916565b60405163079cc67960e41b81529091506001600160a01b038516906379cc6790906121c49033908590600401612d2a565b600060405180830381600087803b1580156121de57600080fd5b505af11580156121f2573d6000803e3d6000fd5b5050506001600160a01b03871660009081526004602052604090205461221f91508863ffffffff61256016565b6001600160a01b03871660008181526004602052604090209190915561224c90338963ffffffff61281816565b5050600180555050505050565b60008261226857506000612296565b8282028284828161227557fe5b04146122935760405162461bcd60e51b81526004016105c4906130a9565b90505b92915050565b600061229383836040518060400160405280601a81526020017f536166654d6174683a206469766973696f6e206279207a65726f000000000000815250612837565b816122e8816114c0565b15156001146123095760405162461bcd60e51b81526004016105c4906130ea565b6002600154141561232c5760405162461bcd60e51b81526004016105c49061328c565b60026001556001600160a01b038316600090815260036020908152604080832054600490925290912054836123b95761238b817f000000000000000000000000000000000000000000000000000000000000000063ffffffff61225916565b61239b838863ffffffff61256016565b10156123b95760405162461bcd60e51b81526004016105c490612ec1565b6001600160a01b0380861660009081526006602090815260408083205481516318160ddd60e01b8152915194169384926318160ddd9260048082019391829003018186803b15801561240a57600080fd5b505afa15801561241e573d6000803e3d6000fd5b505050506040513d601f19601f820116820180604052508101906124429190612b11565b6001600160a01b03881660009081526003602052604081205491925061247282610ebd8c8663ffffffff61225916565b60405163079cc67960e41b81529091506001600160a01b038516906379cc6790906124a39033908590600401612d2a565b600060405180830381600087803b1580156124bd57600080fd5b505af11580156124d1573d6000803e3d6000fd5b5050506001600160a01b038a166000908152600360205260409020546124fe91508b63ffffffff61256016565b6001600160a01b038a1660008181526003602052604090209190915561252b90338c63ffffffff61281816565b5050600180555050505050505050565b6000828201838110156122935760405162461bcd60e51b81526004016105c490612f14565b600061229383836040518060400160405280601e81526020017f536166654d6174683a207375627472616374696f6e206f766572666c6f77000081525061286e565b60005b6009548110156114ba576000600982815481106125be57fe5b60009182526020808320909101546001600160a01b031680835260049091526040822054909250906125fa85610ebd848963ffffffff61225916565b6001600160a01b038416600090815260046020526040902054909150612626908263ffffffff61256016565b6001600160a01b03841660009081526004602090815260408083209390935560039052205461265b908263ffffffff61253b16565b6001600160a01b0384166000818152600360205260409081902092909255905188907f3173c1c4b679e2da86dbb0382bde749a6e16cd31912c5410e17985cd7d2b9052906126ae908a908a908790613322565b60405180910390a35050506001016125a5565b60005b6009548110156127bd576000600982815481106126dd57fe5b60009182526020808320909101546001600160a01b03168083526004909152604082205490925090612735827f000000000000000000000000000000000000000000000000000000000000000063ffffffff61225916565b6001600160a01b038416600090815260036020526040902054909150612761908263ffffffff61256016565b6001600160a01b038416600090815260036020908152604080832093909355600490522054612796908263ffffffff61253b16565b6001600160a01b0390931660009081526004602052604090209290925550506001016126c4565b50565b6114ba846323b872dd60e01b8585856040516024016127e193929190612d43565b60408051601f198184030181529190526020810180516001600160e01b03166001600160e01b03199093169290921790915261289a565b610c218363a9059cbb60e01b84846040516024016127e1929190612d2a565b600081836128585760405162461bcd60e51b81526004016105c49190612db5565b50600083858161286457fe5b0495945050505050565b600081848411156128925760405162461bcd60e51b81526004016105c49190612db5565b505050900390565b60606128ef826040518060400160405280602081526020017f5361666545524332303a206c6f772d6c6576656c2063616c6c206661696c6564815250856001600160a01b03166129299092919063ffffffff16565b805190915015610c21578080602001905181019061290d9190612ad9565b610c215760405162461bcd60e51b81526004016105c490613242565b60606129388484600085612940565b949350505050565b606061294b85612a04565b6129675760405162461bcd60e51b81526004016105c4906131b1565b60006060866001600160a01b031685876040516129849190612c42565b60006040518083038185875af1925050503d80600081146129c1576040519150601f19603f3d011682016040523d82523d6000602084013e6129c6565b606091505b509150915081156129da5791506129389050565b8051156129ea5780518082602001fd5b8360405162461bcd60e51b81526004016105c49190612db5565b3b151590565b600060208284031215612a1b578081fd5b813561229381613364565b600060208284031215612a37578081fd5b815161229381613364565b60008060408385031215612a54578081fd5b8235612a5f81613364565b946020939093013593505050565b60008060208385031215612a7f578182fd5b823567ffffffffffffffff80821115612a96578384fd5b81850186601f820112612aa7578485fd5b8035925081831115612ab7578485fd5b8660208085028301011115612aca578485fd5b60200196919550909350505050565b600060208284031215612aea578081fd5b81518015158114612293578182fd5b600060208284031215612b0a578081fd5b5035919050565b600060208284031215612b22578081fd5b5051919050565b60008060408385031215612b3b578182fd5b823591506020830135612b4d81613364565b809150509250929050565b60008060408385031215612b6a578182fd5b82519150602083015160068110612b4d578182fd5b60008060408385031215612b91578182fd5b50508035926020909101359150565b60008060408385031215612bb2578182fd5b505080516020909101519092909150565b600080600080600080600060e0888a031215612bdd578283fd5b5050855160208701516040880151606089015160808a015160a08b015160c0909b0151949c939b50919990985090965094509092509050565b60008151808452612c2e816020860160208601613338565b601f01601f19169290920160200192915050565b60008251612c54818460208701613338565b9190910192915050565b60006a44534c412d53484f52542d60a81b82528251612c8481600b850160208701613338565b91909101600b0192915050565b60006744534c412d53502d60c01b82528251612cb4816008850160208701613338565b9190910160080192915050565b60006944534c412d4c4f4e472d60b01b82528251612ce681600a850160208701613338565b91909101600a0192915050565b60006744534c412d4c502d60c01b82528251612cb4816008850160208701613338565b6001600160a01b0391909116815260200190565b6001600160a01b03929092168252602082015260400190565b6001600160a01b039384168152919092166020820152604081019190915260600190565b901515815260200190565b90815260200190565b6020810160068310612d8957fe5b91905290565b6040810160068410612d9d57fe5b9281526001600160801b039190911660209091015290565b6000602082526122936020830184612c16565b600060408252612ddb6040830185612c16565b8281036020840152612ded8185612c16565b95945050505050565b60208082526033908201527f416c6c6f77656420746f6b656e73206c656e67746820677265617465722074686040820152720c2dc40dac2f040e8ded6cadc40d8cadccee8d606b1b606082015260800190565b602080825260189082015277155cd95c88185b1c9958591e481dda1a5d195b1a5cdd195960421b604082015260600190565b60208082526026908201527f4f776e61626c653a206e6577206f776e657220697320746865207a65726f206160408201526564647265737360d01b606082015260800190565b60208082526033908201527f53686f756c64206e6f74207769746864726177206d6f7265207468616e206c6560408201527276657261676564207573657273207374616b6560681b606082015260800190565b6020808252601b908201527f536166654d6174683a206164646974696f6e206f766572666c6f770000000000604082015260600190565b6020808252602d908201527f546f6b656e206e6f7420616c6c6f7765642062792074686520534c415265676960408201526c1cdd1c9e4818dbdb9d1c9858dd609a1b606082015260800190565b60208082526025908201527f4f6e6c79204d657373656e6765722063616e2063616c6c20746869732066756e60408201526431ba34b7b760d91b606082015260800190565b60208082526033908201527f43616e6e6f74207374616b65206d6f7265207468616e206c657665726167656460408201527220534c412070726f7669646572207374616b6560681b606082015260800190565b602080825260179082015276155cd95c881a5cc81b9bdd081dda1a5d195b1a5cdd1959604a1b604082015260600190565b60208082526028908201527f43616e206f6e6c79207374616b65206f6e206e6f742066696e697368656420636040820152676f6e74726163747360c01b606082015260800190565b60208082526021908201527f536166654d6174683a206d756c7469706c69636174696f6e206f766572666c6f6040820152607760f81b606082015260800190565b6020808252601490820152731d1bdad95b881a5cc81b9bdd08185b1b1bddd95960621b604082015260600190565b6020808252818101527f4f776e61626c653a2063616c6c6572206973206e6f7420746865206f776e6572604082015260600190565b6020808252601a908201527f4f6e6c7920666f722066696e697368656420636f6e7472616374000000000000604082015260600190565b602080825260139082015272151bdad95b88185b1c9958591e481859191959606a1b604082015260600190565b6020808252601d908201527f416464726573733a2063616c6c20746f206e6f6e2d636f6e7472616374000000604082015260600190565b6020808252601290820152710616d6f756e742063616e6e6f7420626520360741b604082015260600190565b602080825260149082015273155cd95c881b9bdd081dda1a5d195b1a5cdd195960621b604082015260600190565b6020808252602a908201527f5361666545524332303a204552433230206f7065726174696f6e20646964206e6040820152691bdd081cdd58d8d9595960b21b606082015260800190565b6020808252601f908201527f5265656e7472616e637947756172643a207265656e7472616e742063616c6c00604082015260600190565b6001600160801b0391909116815260200190565b9182526001600160a01b0316602082015260400190565b918252602082015260400190565b83815260208101839052606081016003831061331457fe5b826040830152949350505050565b9283526020830191909152604082015260600190565b60005b8381101561335357818101518382015260200161333b565b838111156114ba5750506000910152565b6001600160a01b03811681146127bd57600080fdfea2646970667358221220129aeae4f3dcf2670277b886eaf38141747eab0d7de0fc22218d6adbae7ace4564736f6c634300060600338be0079c531659141344cd1fd0a4f28419497f9722a3daafe3b4186f6b6457e0",
  "immutableReferences": {
    "1457": [
      {
        "length": 32,
        "start": 4813
      },
      {
        "length": 32,
        "start": 5414
      }
    ],
    "1461": [
      {
        "length": 32,
        "start": 4448
      }
    ],
    "1463": [
      {
        "length": 32,
        "start": 5587
      },
      {
        "length": 32,
        "start": 5746
      }
    ],
    "1465": [
      {
        "length": 32,
        "start": 2917
      }
    ],
    "1467": [
      {
        "length": 32,
        "start": 1322
      },
      {
        "length": 32,
        "start": 2953
      },
      {
        "length": 32,
        "start": 5982
      },
      {
        "length": 32,
        "start": 6056
      }
    ],
    "1469": [
      {
        "length": 32,
        "start": 1379
      },
      {
        "length": 32,
        "start": 3148
      },
      {
        "length": 32,
        "start": 4528
      },
      {
        "length": 32,
        "start": 4702
      },
      {
        "length": 32,
        "start": 6089
      }
    ],
    "1471": [
      {
        "length": 32,
        "start": 3220
      },
      {
        "length": 32,
        "start": 4495
      }
    ],
    "3682": [
      {
        "length": 32,
        "start": 2332
      },
      {
        "length": 32,
        "start": 6279
      }
    ],
    "3707": [
      {
        "length": 32,
        "start": 6497
      }
    ],
    "3712": [
      {
        "length": 32,
        "start": 3803
      }
    ],
    "3716": [
      {
        "length": 32,
        "start": 2881
      },
      {
        "length": 32,
        "start": 6738
      }
    ],
    "3722": [
      {
        "length": 32,
        "start": 3112
      },
      {
        "length": 32,
        "start": 6971
      },
      {
        "length": 32,
        "start": 9057
      },
      {
        "length": 32,
        "start": 9995
      }
    ]
  },
  "source": "// SPDX-License-Identifier: MIT\npragma solidity 0.6.6;\npragma experimental ABIEncoderV2;\n\nimport \"@openzeppelin/contracts/access/Ownable.sol\";\nimport \"@openzeppelin/contracts/token/ERC20/IERC20.sol\";\nimport \"@openzeppelin/contracts/math/SafeMath.sol\";\nimport \"./SLARegistry.sol\";\nimport \"./SLORegistry.sol\";\nimport \"./StakeRegistry.sol\";\nimport \"./PeriodRegistry.sol\";\nimport \"./Staking.sol\";\n\n/**\n * @title SLA\n * @dev SLA is a service level agreement contract used for service downtime\n * compensation\n */\ncontract SLA is Staking {\n    using SafeMath for uint256;\n\n    enum Status {NotVerified, Respected, NotRespected}\n\n    struct PeriodSLI {\n        uint256 timestamp;\n        uint256 sli;\n        Status status;\n    }\n\n    //\n    string public ipfsHash;\n    address public immutable messengerAddress;\n    SLARegistry public slaRegistry;\n    PeriodRegistry private immutable periodRegistry;\n    SLORegistry private immutable sloRegistry;\n    uint256 public immutable creationBlockNumber;\n    uint128 public immutable initialPeriodId;\n    uint128 public immutable finalPeriodId;\n    PeriodRegistry.PeriodType public immutable periodType;\n    /// @dev extra data for customized workflows\n    bytes32[] public extraData;\n\n    bool private _breachedContract = false;\n    uint256 public nextVerifiablePeriod;\n\n    /// @dev periodId=>PeriodSLI mapping\n    mapping(uint256 => PeriodSLI) public periodSLIs;\n\n    /**\n     * @dev event for SLI creation logging\n     * @param timestamp 1. the time the SLI has been registered\n     * @param sli 2. the value of the SLI\n     * @param periodId 3. the id of the given period\n     */\n    event SLICreated(uint256 timestamp, uint256 sli, uint256 periodId);\n\n    /**\n     * @dev event for SLI creation logging\n     * @param _periodId 1. the id of the given period\n     * @param _sli 2. value of the SLI\n     */\n    event SLANotRespected(uint256 _periodId, uint256 _sli);\n\n    /**\n     * @dev throws if called by any address other than the messenger contract.\n     */\n    modifier onlyMessenger() {\n        require(\n            msg.sender == messengerAddress,\n            \"Only Messenger can call this function\"\n        );\n        _;\n    }\n\n    /**\n     * @dev throws if called by any address other than the messenger contract.\n     */\n    modifier onlySLARegistry() {\n        require(\n            msg.sender == address(slaRegistry),\n            \"Only SLARegistry can call this function\"\n        );\n        _;\n    }\n\n    /**\n     * @dev throws if called with an amount less or equal to zero.\n     */\n    modifier notZero(uint256 _amount) {\n        require(_amount > 0, \"amount cannot be 0\");\n        _;\n    }\n\n    /**\n     * @param _owner 1. -\n     * @param _ipfsHash 3. -\n     * @param _messengerAddress 3. -\n     * @param _initialPeriodId 4. -\n     * @param _finalPeriodId 4. -\n     * @param _periodType 5. -\n     * @param _whitelisted 8. -\n     * @param _extraData 9. -\n     * @param _slaID 10. -\n     */\n    constructor(\n        address _owner,\n        bool _whitelisted,\n        PeriodRegistry.PeriodType _periodType,\n        address _messengerAddress,\n        uint128 _initialPeriodId,\n        uint128 _finalPeriodId,\n        uint128 _slaID,\n        string memory _ipfsHash,\n        bytes32[] memory _extraData,\n        uint256 _leverage\n    )\n        public\n        Staking(\n            SLARegistry(msg.sender),\n            _periodType,\n            _whitelisted,\n            _slaID,\n            _leverage\n        )\n    {\n        transferOwnership(_owner);\n        ipfsHash = _ipfsHash;\n        messengerAddress = _messengerAddress;\n        slaRegistry = SLARegistry(msg.sender);\n        periodRegistry = slaRegistry.periodRegistry();\n        sloRegistry = slaRegistry.sloRegistry();\n        creationBlockNumber = block.number;\n        initialPeriodId = _initialPeriodId;\n        finalPeriodId = _finalPeriodId;\n        periodType = _periodType;\n        extraData = _extraData;\n        nextVerifiablePeriod = _initialPeriodId;\n    }\n\n    /**\n     * @dev external function to register SLI's and check them against the SLORegistry\n     * @param _sli 1. the value of the SLI to check\n     * @param _periodId 2. the id of the given period\n     */\n    function registerSLI(uint256 _sli, uint256 _periodId)\n        external\n        onlyMessenger\n    {\n        emit SLICreated(block.timestamp, _sli, _periodId);\n        nextVerifiablePeriod = _periodId + 1;\n        PeriodSLI storage periodSLI = periodSLIs[_periodId];\n        periodSLI.sli = _sli;\n        periodSLI.timestamp = block.timestamp;\n        (uint256 sloValue, ) = sloRegistry.registeredSLO(address(this));\n        if (sloRegistry.isRespected(_sli, address(this))) {\n            periodSLI.status = Status.Respected;\n            uint256 precision = 10000;\n            uint256 deviation =\n                _sli.sub(sloValue).mul(precision).div(\n                    _sli.add(sloValue).div(2)\n                );\n            uint256 normalizedPeriodId = _periodId.sub(initialPeriodId).add(1);\n            uint256 rewardPercentage =\n                deviation.mul(normalizedPeriodId).div(\n                    finalPeriodId - initialPeriodId + 1\n                );\n            _setRespectedPeriodReward(_periodId, rewardPercentage, precision);\n        } else {\n            periodSLI.status = Status.NotRespected;\n            _setUsersCompensation();\n            _breachedContract = true;\n            emit SLANotRespected(_periodId, _sli);\n        }\n    }\n\n    function isAllowedPeriod(uint256 _periodId) external view returns (bool) {\n        if (_periodId < initialPeriodId) return false;\n        if (_periodId > finalPeriodId) return false;\n        return true;\n    }\n\n    function contractFinished() public view returns (bool) {\n        (, uint256 endOfLastValidPeriod) =\n            periodRegistry.getPeriodStartAndEnd(periodType, finalPeriodId);\n        return\n            _breachedContract == true ||\n            (block.timestamp >= endOfLastValidPeriod &&\n                periodSLIs[finalPeriodId].status != Status.NotVerified);\n    }\n\n    /**\n     *@dev stake _amount tokens into the _token contract\n     *@param _amount 1. amount to be staked\n     *@param _token 2. address of the ERC to be staked\n     */\n\n    function stakeTokens(uint256 _amount, address _token)\n        external\n        notZero(_amount)\n    {\n        bool isContractFinished = contractFinished();\n        require(\n            !isContractFinished,\n            \"Can only stake on not finished contracts\"\n        );\n        _stake(_amount, _token);\n        StakeRegistry stakeRegistry = slaRegistry.stakeRegistry();\n        stakeRegistry.registerStakedSla(msg.sender);\n    }\n\n    function withdrawProviderTokens(uint256 _amount, address _tokenAddress)\n        external\n        notZero(_amount)\n    {\n        bool isContractFinished = contractFinished();\n        _withdrawProviderTokens(_amount, _tokenAddress, isContractFinished);\n    }\n\n    /**\n     *@dev withdraw _amount tokens from the _token contract\n     *@param _amount 1. amount to be staked\n     *@param _tokenAddress 2. address of the ERC to be staked\n     */\n\n    function withdrawUserTokens(uint256 _amount, address _tokenAddress)\n        external\n        notZero(_amount)\n    {\n        if (msg.sender != owner()) {\n            bool isContractFinished = contractFinished();\n            require(isContractFinished, \"Only for finished contract\");\n        }\n        _withdrawUserTokens(_amount, _tokenAddress);\n    }\n\n    function getStakersLength() external view returns (uint256) {\n        return stakers.length;\n    }\n\n    function breachedContract() external view returns (bool) {\n        return _breachedContract;\n    }\n}\n",
  "sourcePath": "/Users/matiasbn/Desktop/stacktical/stacktical-dsla-contracts/contracts/SLA.sol",
  "compiler": {
    "name": "solc",
    "version": "0.6.6+commit.6c089d02.Emscripten.clang"
  },
  "schemaVersion": "3.3.3",
  "updatedAt": "2021-04-09T21:41:34.330Z",
  "devdoc": {
    "details": "SLA is a service level agreement contract used for service downtime compensation",
    "methods": {
      "constructor": {
        "params": {
          "_extraData": "9. -",
          "_finalPeriodId": "4. -",
          "_initialPeriodId": "4. -",
          "_ipfsHash": "3. -",
          "_messengerAddress": "3. -",
          "_owner": "1. -",
          "_periodType": "5. -",
          "_slaID": "10. -",
          "_whitelisted": "8. -"
        }
      },
      "owner()": {
        "details": "Returns the address of the current owner."
      },
      "registerSLI(uint256,uint256)": {
        "details": "external function to register SLI's and check them against the SLORegistry",
        "params": {
          "_periodId": "2. the id of the given period",
          "_sli": "1. the value of the SLI to check"
        }
      },
      "renounceOwnership()": {
        "details": "Leaves the contract without owner. It will not be possible to call `onlyOwner` functions anymore. Can only be called by the current owner.     * NOTE: Renouncing ownership will leave the contract without an owner, thereby removing any functionality that is only available to the owner."
      },
      "transferOwnership(address)": {
        "details": "Transfers ownership of the contract to a new account (`newOwner`). Can only be called by the current owner."
      }
    },
    "title": "SLA"
  },
  "userdoc": {
    "methods": {
      "addAllowedTokens(address)": {
        "notice": "dev add a token to ve allowed for staking param _tokenAddress 1. address of the new allowed token"
      },
      "getAllowedTokensLength()": {
        "notice": "dev use this function to evaluate the length of the allowed tokens length return allowedTokens.length"
      },
      "isAllowedToken(address)": {
        "notice": "dev checks in the allowedTokens array if there's a token with _tokenAddress value param _tokenAddress 1. token address to check exixtence return true if _tokenAddress exists in the allowedTokens array"
      },
      "stakeTokens(uint256,address)": {
        "notice": "dev stake _amount tokens into the _token contract param _amount 1. amount to be staked param _token 2. address of the ERC to be staked"
      },
      "withdrawUserTokens(uint256,address)": {
        "notice": "dev withdraw _amount tokens from the _token contract param _amount 1. amount to be staked param _tokenAddress 2. address of the ERC to be staked"
      }
    }
  }
}