{
  "contractName": "SLA",
  "abi": [
    {
      "constant": true,
      "inputs": [],
      "name": "subscribersCount",
      "outputs": [
        {
          "name": "",
          "type": "uint256"
        }
      ],
      "payable": false,
      "stateMutability": "view",
      "type": "function"
    },
    {
      "constant": true,
      "inputs": [],
      "name": "stake",
      "outputs": [
        {
          "name": "",
          "type": "uint256"
        }
      ],
      "payable": false,
      "stateMutability": "view",
      "type": "function"
    },
    {
      "constant": true,
      "inputs": [
        {
          "name": "",
          "type": "address"
        }
      ],
      "name": "userToWithdrawn",
      "outputs": [
        {
          "name": "",
          "type": "uint256"
        }
      ],
      "payable": false,
      "stateMutability": "view",
      "type": "function"
    },
    {
      "constant": true,
      "inputs": [
        {
          "name": "",
          "type": "address"
        }
      ],
      "name": "userToCompensated",
      "outputs": [
        {
          "name": "",
          "type": "uint256"
        }
      ],
      "payable": false,
      "stateMutability": "view",
      "type": "function"
    },
    {
      "constant": false,
      "inputs": [],
      "name": "renounceOwnership",
      "outputs": [],
      "payable": false,
      "stateMutability": "nonpayable",
      "type": "function"
    },
    {
      "constant": true,
      "inputs": [],
      "name": "compensationPerUser",
      "outputs": [
        {
          "name": "",
          "type": "uint256"
        }
      ],
      "payable": false,
      "stateMutability": "view",
      "type": "function"
    },
    {
      "constant": true,
      "inputs": [],
      "name": "dsla",
      "outputs": [
        {
          "name": "",
          "type": "address"
        }
      ],
      "payable": false,
      "stateMutability": "view",
      "type": "function"
    },
    {
      "constant": true,
      "inputs": [],
      "name": "owner",
      "outputs": [
        {
          "name": "",
          "type": "address"
        }
      ],
      "payable": false,
      "stateMutability": "view",
      "type": "function"
    },
    {
      "constant": true,
      "inputs": [],
      "name": "isOwner",
      "outputs": [
        {
          "name": "",
          "type": "bool"
        }
      ],
      "payable": false,
      "stateMutability": "view",
      "type": "function"
    },
    {
      "constant": true,
      "inputs": [],
      "name": "whitelist",
      "outputs": [
        {
          "name": "",
          "type": "address"
        }
      ],
      "payable": false,
      "stateMutability": "view",
      "type": "function"
    },
    {
      "constant": true,
      "inputs": [
        {
          "name": "",
          "type": "bytes32"
        },
        {
          "name": "",
          "type": "uint256"
        }
      ],
      "name": "SLIs",
      "outputs": [
        {
          "name": "timestamp",
          "type": "uint256"
        },
        {
          "name": "value",
          "type": "uint256"
        },
        {
          "name": "ipfsHash",
          "type": "string"
        }
      ],
      "payable": false,
      "stateMutability": "view",
      "type": "function"
    },
    {
      "constant": true,
      "inputs": [
        {
          "name": "",
          "type": "bytes32"
        }
      ],
      "name": "SLOs",
      "outputs": [
        {
          "name": "",
          "type": "address"
        }
      ],
      "payable": false,
      "stateMutability": "view",
      "type": "function"
    },
    {
      "constant": true,
      "inputs": [
        {
          "name": "_userAddress",
          "type": "address"
        }
      ],
      "name": "isSubscribed",
      "outputs": [
        {
          "name": "",
          "type": "bool"
        }
      ],
      "payable": false,
      "stateMutability": "view",
      "type": "function"
    },
    {
      "constant": true,
      "inputs": [],
      "name": "compensationAmount",
      "outputs": [
        {
          "name": "",
          "type": "uint256"
        }
      ],
      "payable": false,
      "stateMutability": "view",
      "type": "function"
    },
    {
      "constant": false,
      "inputs": [
        {
          "name": "newOwner",
          "type": "address"
        }
      ],
      "name": "transferOwnership",
      "outputs": [],
      "payable": false,
      "stateMutability": "nonpayable",
      "type": "function"
    },
    {
      "inputs": [
        {
          "name": "_owner",
          "type": "address"
        },
        {
          "name": "_whitelist",
          "type": "address"
        },
        {
          "name": "_dsla",
          "type": "address"
        },
        {
          "name": "_SLONames",
          "type": "bytes32[]"
        },
        {
          "name": "_SLOs",
          "type": "address[]"
        },
        {
          "name": "_compensationAmount",
          "type": "uint256"
        },
        {
          "name": "_stake",
          "type": "uint256"
        },
        {
          "name": "_ipfsHash",
          "type": "string"
        }
      ],
      "payable": false,
      "stateMutability": "nonpayable",
      "type": "constructor"
    },
    {
      "anonymous": false,
      "inputs": [
        {
          "indexed": false,
          "name": "_timestamp",
          "type": "uint256"
        },
        {
          "indexed": false,
          "name": "_value",
          "type": "uint256"
        },
        {
          "indexed": false,
          "name": "_hash",
          "type": "string"
        }
      ],
      "name": "SLICreated",
      "type": "event"
    },
    {
      "anonymous": false,
      "inputs": [
        {
          "indexed": true,
          "name": "user",
          "type": "address"
        }
      ],
      "name": "Subscribed",
      "type": "event"
    },
    {
      "anonymous": false,
      "inputs": [
        {
          "indexed": true,
          "name": "user",
          "type": "address"
        }
      ],
      "name": "Unsubscribed",
      "type": "event"
    },
    {
      "anonymous": false,
      "inputs": [
        {
          "indexed": true,
          "name": "user",
          "type": "address"
        },
        {
          "indexed": false,
          "name": "value",
          "type": "uint256"
        }
      ],
      "name": "InitialUserCompensation",
      "type": "event"
    },
    {
      "anonymous": false,
      "inputs": [
        {
          "indexed": true,
          "name": "user",
          "type": "address"
        },
        {
          "indexed": false,
          "name": "value",
          "type": "uint256"
        }
      ],
      "name": "CompensationWithdrawn",
      "type": "event"
    },
    {
      "anonymous": false,
      "inputs": [
        {
          "indexed": false,
          "name": "compensationPerUser",
          "type": "uint256"
        }
      ],
      "name": "CompensationAdded",
      "type": "event"
    },
    {
      "anonymous": false,
      "inputs": [
        {
          "indexed": true,
          "name": "previousOwner",
          "type": "address"
        },
        {
          "indexed": true,
          "name": "newOwner",
          "type": "address"
        }
      ],
      "name": "OwnershipTransferred",
      "type": "event"
    },
    {
      "constant": false,
      "inputs": [
        {
          "name": "_SLOName",
          "type": "bytes32"
        },
        {
          "name": "_value",
          "type": "uint256"
        },
        {
          "name": "_hash",
          "type": "string"
        }
      ],
      "name": "registerSLI",
      "outputs": [],
      "payable": false,
      "stateMutability": "nonpayable",
      "type": "function"
    },
    {
      "constant": false,
      "inputs": [
        {
          "name": "_newWhitelist",
          "type": "address"
        }
      ],
      "name": "changeWhitelist",
      "outputs": [],
      "payable": false,
      "stateMutability": "nonpayable",
      "type": "function"
    },
    {
      "constant": false,
      "inputs": [],
      "name": "signAgreement",
      "outputs": [],
      "payable": false,
      "stateMutability": "nonpayable",
      "type": "function"
    },
    {
      "constant": false,
      "inputs": [],
      "name": "withdrawCompensation",
      "outputs": [],
      "payable": false,
      "stateMutability": "nonpayable",
      "type": "function"
    },
    {
      "constant": false,
      "inputs": [
        {
          "name": "_users",
          "type": "address[]"
        }
      ],
      "name": "withdrawCompensations",
      "outputs": [],
      "payable": false,
      "stateMutability": "nonpayable",
      "type": "function"
    },
    {
      "constant": false,
      "inputs": [],
      "name": "revokeAgreement",
      "outputs": [],
      "payable": false,
      "stateMutability": "nonpayable",
      "type": "function"
    },
    {
      "constant": true,
      "inputs": [],
      "name": "getDetails",
      "outputs": [
        {
          "name": "",
          "type": "string"
        },
        {
          "name": "",
          "type": "address"
        },
        {
          "name": "",
          "type": "address"
        },
        {
          "name": "",
          "type": "address"
        },
        {
          "name": "",
          "type": "uint256"
        },
        {
          "name": "",
          "type": "uint256"
        },
        {
          "name": "",
          "type": "uint256"
        },
        {
          "name": "",
          "type": "bytes32[]"
        },
        {
          "name": "",
          "type": "address[]"
        }
      ],
      "payable": false,
      "stateMutability": "view",
      "type": "function"
    },
    {
      "constant": true,
      "inputs": [],
      "name": "getWithdrawableSubscribers",
      "outputs": [
        {
          "name": "",
          "type": "address[]"
        }
      ],
      "payable": false,
      "stateMutability": "view",
      "type": "function"
    }
  ],
  "bytecode": "0x60806040523480156200001157600080fd5b5060405162002a8638038062002a8683398101806040526101008110156200003857600080fd5b8101908080519060200190929190805190602001909291908051906020019092919080516401000000008111156200006f57600080fd5b828101905060208101848111156200008657600080fd5b8151856020820283011164010000000082111715620000a457600080fd5b50509291906020018051640100000000811115620000c157600080fd5b82810190506020810184811115620000d857600080fd5b8151856020820283011164010000000082111715620000f657600080fd5b5050929190602001805190602001909291908051906020019092919080516401000000008111156200012757600080fd5b828101905060208101848111156200013e57600080fd5b81518560018202830111640100000000821117156200015c57600080fd5b5050929190505050336000806101000a81548173ffffffffffffffffffffffffffffffffffffffff021916908373ffffffffffffffffffffffffffffffffffffffff1602179055506000809054906101000a900473ffffffffffffffffffffffffffffffffffffffff1673ffffffffffffffffffffffffffffffffffffffff16600073ffffffffffffffffffffffffffffffffffffffff167f8be0079c531659141344cd1fd0a4f28419497f9722a3daafe3b4186f6b6457e060405160405180910390a360058451106200022f57600080fd5b83518551146200023e57600080fd5b60008090505b8451811015620002d6578481815181106200025b57fe5b6020026020010151600e60008884815181106200027457fe5b6020026020010151815260200190815260200160002060006101000a81548173ffffffffffffffffffffffffffffffffffffffff021916908373ffffffffffffffffffffffffffffffffffffffff160217905550808060010191505062000244565b50620002f188620003c1640100000000026401000000009004565b84601090805190602001906200030992919062000551565b5086600660006101000a81548173ffffffffffffffffffffffffffffffffffffffff021916908373ffffffffffffffffffffffffffffffffffffffff16021790555085600b60006101000a81548173ffffffffffffffffffffffffffffffffffffffff021916908373ffffffffffffffffffffffffffffffffffffffff1602179055508260058190555081600c8190555080600d9080519060200190620003b2929190620005a3565b5050505050505050506200067a565b620003da62000401640100000000026401000000009004565b620003e457600080fd5b620003fe8162000458640100000000026401000000009004565b50565b60008060009054906101000a900473ffffffffffffffffffffffffffffffffffffffff1673ffffffffffffffffffffffffffffffffffffffff163373ffffffffffffffffffffffffffffffffffffffff1614905090565b600073ffffffffffffffffffffffffffffffffffffffff168173ffffffffffffffffffffffffffffffffffffffff1614156200049357600080fd5b8073ffffffffffffffffffffffffffffffffffffffff166000809054906101000a900473ffffffffffffffffffffffffffffffffffffffff1673ffffffffffffffffffffffffffffffffffffffff167f8be0079c531659141344cd1fd0a4f28419497f9722a3daafe3b4186f6b6457e060405160405180910390a3806000806101000a81548173ffffffffffffffffffffffffffffffffffffffff021916908373ffffffffffffffffffffffffffffffffffffffff16021790555050565b82805482825590600052602060002090810192821562000590579160200282015b828111156200058f57825182559160200191906001019062000572565b5b5090506200059f91906200062a565b5090565b828054600181600116156101000203166002900490600052602060002090601f016020900481019282601f10620005e657805160ff191683800117855562000617565b8280016001018555821562000617579182015b8281111562000616578251825591602001919060010190620005f9565b5b50905062000626919062000652565b5090565b6200064f91905b808211156200064b57600081600090555060010162000631565b5090565b90565b6200067791905b808211156200067357600081600090555060010162000659565b5090565b90565b6123fc806200068a6000396000f3fe608060405234801561001057600080fd5b506004361061016a576000357c0100000000000000000000000000000000000000000000000000000000900480638da5cb5b116100e0578063b64d07ce11610099578063b64d07ce1461060e578063b92ae87c1461066d578063c939329b146106c9578063d994df28146106d3578063f2fde38b146106f1578063fbbf93a0146107355761016a565b80638da5cb5b146103b25780638f32d59b146103fc57806393e59dc11461041e57806394199c6114610468578063acc559de14610527578063b0227b47146105a05761016a565b8063715018a611610132578063715018a61461029f5780637440ac43146102a9578063797b363a146102c7578063810019cf146102d157806387a15dc91461035e578063880842bd146103685761016a565b806308d0a7cf1461016f5780630daa77a8146101b35780633a4b66f1146101d15780635268f557146101ef57806365546f8614610247575b600080fd5b6101b16004803603602081101561018557600080fd5b81019080803573ffffffffffffffffffffffffffffffffffffffff1690602001909291905050506108f6565b005b6101bb61094b565b6040518082815260200191505060405180910390f35b6101d9610951565b6040518082815260200191505060405180910390f35b6102316004803603602081101561020557600080fd5b81019080803573ffffffffffffffffffffffffffffffffffffffff169060200190929190505050610957565b6040518082815260200191505060405180910390f35b6102896004803603602081101561025d57600080fd5b81019080803573ffffffffffffffffffffffffffffffffffffffff16906020019092919050505061096f565b6040518082815260200191505060405180910390f35b6102a7610987565b005b6102b1610a57565b6040518082815260200191505060405180910390f35b6102cf610a5d565b005b61035c600480360360608110156102e757600080fd5b8101908080359060200190929190803590602001909291908035906020019064010000000081111561031857600080fd5b82018360208201111561032a57600080fd5b8035906020019184600183028401116401000000008311171561034c57600080fd5b9091929391929390505050610ba1565b005b610366610de4565b005b610370610f07565b604051808273ffffffffffffffffffffffffffffffffffffffff1673ffffffffffffffffffffffffffffffffffffffff16815260200191505060405180910390f35b6103ba610f2d565b604051808273ffffffffffffffffffffffffffffffffffffffff1673ffffffffffffffffffffffffffffffffffffffff16815260200191505060405180910390f35b610404610f56565b604051808215151515815260200191505060405180910390f35b610426610fad565b604051808273ffffffffffffffffffffffffffffffffffffffff1673ffffffffffffffffffffffffffffffffffffffff16815260200191505060405180910390f35b61049e6004803603604081101561047e57600080fd5b810190808035906020019092919080359060200190929190505050610fd3565b6040518084815260200183815260200180602001828103825283818151815260200191508051906020019080838360005b838110156104ea5780820151818401526020810190506104cf565b50505050905090810190601f1680156105175780820380516001836020036101000a031916815260200191505b5094505050505060405180910390f35b61059e6004803603602081101561053d57600080fd5b810190808035906020019064010000000081111561055a57600080fd5b82018360208201111561056c57600080fd5b8035906020019184602083028401116401000000008311171561058e57600080fd5b90919293919293905050506110af565b005b6105cc600480360360208110156105b657600080fd5b8101908080359060200190929190505050611353565b604051808273ffffffffffffffffffffffffffffffffffffffff1673ffffffffffffffffffffffffffffffffffffffff16815260200191505060405180910390f35b610616611386565b6040518080602001828103825283818151815260200191508051906020019060200280838360005b8381101561065957808201518184015260208101905061063e565b505050509050019250505060405180910390f35b6106af6004803603602081101561068357600080fd5b81019080803573ffffffffffffffffffffffffffffffffffffffff1690602001909291905050506114d3565b604051808215151515815260200191505060405180910390f35b6106d1611529565b005b6106db6118ea565b6040518082815260200191505060405180910390f35b6107336004803603602081101561070757600080fd5b81019080803573ffffffffffffffffffffffffffffffffffffffff1690602001909291905050506118f0565b005b61073d61190d565b60405180806020018a73ffffffffffffffffffffffffffffffffffffffff1673ffffffffffffffffffffffffffffffffffffffff1681526020018973ffffffffffffffffffffffffffffffffffffffff1673ffffffffffffffffffffffffffffffffffffffff1681526020018873ffffffffffffffffffffffffffffffffffffffff1673ffffffffffffffffffffffffffffffffffffffff168152602001878152602001868152602001858152602001806020018060200184810384528d818151815260200191508051906020019080838360005b8381101561082d578082015181840152602081019050610812565b50505050905090810190601f16801561085a5780820380516001836020036101000a031916815260200191505b50848103835286818151815260200191508051906020019060200280838360005b8381101561089657808201518184015260208101905061087b565b50505050905001848103825285818151815260200191508051906020019060200280838360005b838110156108d85780820151818401526020810190506108bd565b505050509050019c5050505050505050505050505060405180910390f35b6108fe610f56565b61090757600080fd5b80600660006101000a81548173ffffffffffffffffffffffffffffffffffffffff021916908373ffffffffffffffffffffffffffffffffffffffff16021790555050565b60095481565b600c5481565b60036020528060005260406000206000915090505481565b60026020528060005260406000206000915090505481565b61098f610f56565b61099857600080fd5b600073ffffffffffffffffffffffffffffffffffffffff166000809054906101000a900473ffffffffffffffffffffffffffffffffffffffff1673ffffffffffffffffffffffffffffffffffffffff167f8be0079c531659141344cd1fd0a4f28419497f9722a3daafe3b4186f6b6457e060405160405180910390a360008060006101000a81548173ffffffffffffffffffffffffffffffffffffffff021916908373ffffffffffffffffffffffffffffffffffffffff160217905550565b60045481565b610a66336114d3565b610a6f57600080fd5b610a7833611b6e565b15610a8857610a8633611bbb565b505b610a90611da8565b6000600c541115610b9f57600b60009054906101000a900473ffffffffffffffffffffffffffffffffffffffff1673ffffffffffffffffffffffffffffffffffffffff1663a9059cbb33600c546040518363ffffffff167c0100000000000000000000000000000000000000000000000000000000028152600401808373ffffffffffffffffffffffffffffffffffffffff1673ffffffffffffffffffffffffffffffffffffffff16815260200182815260200192505050602060405180830381600087803b158015610b6257600080fd5b505af1158015610b76573d6000803e3d6000fd5b505050506040513d6020811015610b8c57600080fd5b8101908080519060200190929190505050505b565b610ba9610f56565b610bb257600080fd5b600f6000858152602001908152602001600020604051806060016040528042815260200185815260200184848080601f016020809104026020016040519081016040528093929190818152602001838380828437600081840152601f19601f820116905080830192505050505050508152509080600181540180825580915050906001820390600052602060002090600302016000909192909190915060008201518160000155602082015181600101556040820151816002019080519060200190610c7f92919061232b565b505050507f048094af00d5b1e004ae2a3f03c2bd4897a83b5672ed2b02b7b3416b9709805c4284848460405180858152602001848152602001806020018281038252848482818152602001925080828437600081840152601f19601f8201169050808301925050509550505050505060405180910390a1600e600085815260200190815260200160002060009054906101000a900473ffffffffffffffffffffffffffffffffffffffff1673ffffffffffffffffffffffffffffffffffffffff1663868d08f7846040518263ffffffff167c01000000000000000000000000000000000000000000000000000000000281526004018082815260200191505060206040518083038186803b158015610d9657600080fd5b505afa158015610daa573d6000803e3d6000fd5b505050506040513d6020811015610dc057600080fd5b8101908080519060200190929190505050610dde57610ddd611e73565b5b50505050565b610ded336114d3565b610df657600080fd5b6000610e0133611bbb565b9050600b60009054906101000a900473ffffffffffffffffffffffffffffffffffffffff1673ffffffffffffffffffffffffffffffffffffffff1663a9059cbb33836040518363ffffffff167c0100000000000000000000000000000000000000000000000000000000028152600401808373ffffffffffffffffffffffffffffffffffffffff1673ffffffffffffffffffffffffffffffffffffffff16815260200182815260200192505050602060405180830381600087803b158015610ec857600080fd5b505af1158015610edc573d6000803e3d6000fd5b505050506040513d6020811015610ef257600080fd5b81019080805190602001909291905050505050565b600b60009054906101000a900473ffffffffffffffffffffffffffffffffffffffff1681565b60008060009054906101000a900473ffffffffffffffffffffffffffffffffffffffff16905090565b60008060009054906101000a900473ffffffffffffffffffffffffffffffffffffffff1673ffffffffffffffffffffffffffffffffffffffff163373ffffffffffffffffffffffffffffffffffffffff1614905090565b600660009054906101000a900473ffffffffffffffffffffffffffffffffffffffff1681565b600f6020528160005260406000208181548110610fec57fe5b906000526020600020906003020160009150915050806000015490806001015490806002018054600181600116156101000203166002900480601f0160208091040260200160405190810160405280929190818152602001828054600181600116156101000203166002900480156110a55780601f1061107a576101008083540402835291602001916110a5565b820191906000526020600020905b81548152906001019060200180831161108857829003601f168201915b5050505050905083565b600080905060008090505b8383905081101561124c5760008484838181106110d357fe5b9050602002013573ffffffffffffffffffffffffffffffffffffffff1690506110fb816114d3565b801561110c575061110b81611b6e565b5b1561123e57600061111c82611bbb565b9050600b60009054906101000a900473ffffffffffffffffffffffffffffffffffffffff1673ffffffffffffffffffffffffffffffffffffffff1663a9059cbb83836040518363ffffffff167c0100000000000000000000000000000000000000000000000000000000028152600401808373ffffffffffffffffffffffffffffffffffffffff1673ffffffffffffffffffffffffffffffffffffffff16815260200182815260200192505050602060405180830381600087803b1580156111e357600080fd5b505af11580156111f7573d6000803e3d6000fd5b505050506040513d602081101561120d57600080fd5b81019080805190602001909291905050505061123a670de0b6b3a764000085611ecb90919063ffffffff16565b9350505b5080806001019150506110ba565b50600b60009054906101000a900473ffffffffffffffffffffffffffffffffffffffff1673ffffffffffffffffffffffffffffffffffffffff1663a9059cbb33836040518363ffffffff167c0100000000000000000000000000000000000000000000000000000000028152600401808373ffffffffffffffffffffffffffffffffffffffff1673ffffffffffffffffffffffffffffffffffffffff16815260200182815260200192505050602060405180830381600087803b15801561131257600080fd5b505af1158015611326573d6000803e3d6000fd5b505050506040513d602081101561133c57600080fd5b810190808051906020019092919050505050505050565b600e6020528060005260406000206000915054906101000a900473ffffffffffffffffffffffffffffffffffffffff1681565b606080600a546040519080825280602002602001820160405280156113ba5781602001602082028038833980820191505090505b50905060008090505b600a548110156114cb576000600882815481106113dc57fe5b9060005260206000200160009054906101000a900473ffffffffffffffffffffffffffffffffffffffff169050611412816114d3565b8015611423575061142281611b6e565b5b15611474578083838151811061143557fe5b602002602001019073ffffffffffffffffffffffffffffffffffffffff16908173ffffffffffffffffffffffffffffffffffffffff16815250506114bd565b600083838151811061148257fe5b602002602001019073ffffffffffffffffffffffffffffffffffffffff16908173ffffffffffffffffffffffffffffffffffffffff16815250505b5080806001019150506113c3565b508091505090565b6000600760008373ffffffffffffffffffffffffffffffffffffffff1673ffffffffffffffffffffffffffffffffffffffff16815260200190815260200160002060009054906101000a900460ff169050919050565b600073ffffffffffffffffffffffffffffffffffffffff16600660009054906101000a900473ffffffffffffffffffffffffffffffffffffffff1673ffffffffffffffffffffffffffffffffffffffff161461167f57600660009054906101000a900473ffffffffffffffffffffffffffffffffffffffff1673ffffffffffffffffffffffffffffffffffffffff16633af32abf336040518263ffffffff167c0100000000000000000000000000000000000000000000000000000000028152600401808273ffffffffffffffffffffffffffffffffffffffff1673ffffffffffffffffffffffffffffffffffffffff16815260200191505060206040518083038186803b15801561163a57600080fd5b505afa15801561164e573d6000803e3d6000fd5b505050506040513d602081101561166457600080fd5b810190808051906020019092919050505061167e57600080fd5b5b611688336114d3565b1561169257600080fd5b61169a611eea565b6116a261217b565b6000600c5411156118e857600b60009054906101000a900473ffffffffffffffffffffffffffffffffffffffff1673ffffffffffffffffffffffffffffffffffffffff1663095ea7b330600c546040518363ffffffff167c0100000000000000000000000000000000000000000000000000000000028152600401808373ffffffffffffffffffffffffffffffffffffffff1673ffffffffffffffffffffffffffffffffffffffff16815260200182815260200192505050602060405180830381600087803b15801561177457600080fd5b505af1158015611788573d6000803e3d6000fd5b505050506040513d602081101561179e57600080fd5b810190808051906020019092919050505050600b60009054906101000a900473ffffffffffffffffffffffffffffffffffffffff1673ffffffffffffffffffffffffffffffffffffffff166323b872dd3330600c546040518463ffffffff167c0100000000000000000000000000000000000000000000000000000000028152600401808473ffffffffffffffffffffffffffffffffffffffff1673ffffffffffffffffffffffffffffffffffffffff1681526020018373ffffffffffffffffffffffffffffffffffffffff1673ffffffffffffffffffffffffffffffffffffffff1681526020018281526020019350505050602060405180830381600087803b1580156118ab57600080fd5b505af11580156118bf573d6000803e3d6000fd5b505050506040513d60208110156118d557600080fd5b8101908080519060200190929190505050505b565b60055481565b6118f8610f56565b61190157600080fd5b61190a81612213565b50565b606060008060008060008060608060606010805490506040519080825280602002602001820160405280156119515781602001602082028038833980820191505090505b50905060008090505b601080549050811015611a0557600e60006010838154811061197857fe5b9060005260206000200154815260200190815260200160002060009054906101000a900473ffffffffffffffffffffffffffffffffffffffff168282815181106119be57fe5b602002602001019073ffffffffffffffffffffffffffffffffffffffff16908173ffffffffffffffffffffffffffffffffffffffff1681525050808060010191505061195a565b50600d600b60009054906101000a900473ffffffffffffffffffffffffffffffffffffffff16600660009054906101000a900473ffffffffffffffffffffffffffffffffffffffff16611a56610f2d565b600554600c54600954601088888054600181600116156101000203166002900480601f016020809104026020016040519081016040528092919081815260200182805460018160011615610100020316600290048015611af75780601f10611acc57610100808354040283529160200191611af7565b820191906000526020600020905b815481529060010190602001808311611ada57829003601f168201915b5050505050985081805480602002602001604051908101604052809291908181526020018280548015611b4957602002820191906000526020600020905b815481526020019060010190808311611b35575b5050505050915099509950995099509950995099509950995050909192939495969798565b6000600454600260008473ffffffffffffffffffffffffffffffffffffffff1673ffffffffffffffffffffffffffffffffffffffff16815260200190815260200160002054109050919050565b6000611bc682611b6e565b611bcf57600080fd5b6000611c25600260008573ffffffffffffffffffffffffffffffffffffffff1673ffffffffffffffffffffffffffffffffffffffff1681526020019081526020016000205460045461230b90919063ffffffff16565b9050611c7981600260008673ffffffffffffffffffffffffffffffffffffffff1673ffffffffffffffffffffffffffffffffffffffff16815260200190815260200160002054611ecb90919063ffffffff16565b600260008573ffffffffffffffffffffffffffffffffffffffff1673ffffffffffffffffffffffffffffffffffffffff16815260200190815260200160002081905550611d0e81600360008673ffffffffffffffffffffffffffffffffffffffff1673ffffffffffffffffffffffffffffffffffffffff16815260200190815260200160002054611ecb90919063ffffffff16565b600360008573ffffffffffffffffffffffffffffffffffffffff1673ffffffffffffffffffffffffffffffffffffffff168152602001908152602001600020819055508273ffffffffffffffffffffffffffffffffffffffff167f1480b15e3eab83a9b923578ffe330e3dce94536007ec9c0b48a5dfbde8c49181826040518082815260200191505060405180910390a280915050919050565b611db1336114d3565b611dba57600080fd5b6000600760003373ffffffffffffffffffffffffffffffffffffffff1673ffffffffffffffffffffffffffffffffffffffff16815260200190815260200160002060006101000a81548160ff021916908315150217905550611e28600160095461230b90919063ffffffff16565b6009819055503373ffffffffffffffffffffffffffffffffffffffff167fae563681ccc696fae58fe830f401bc9c043a43ddb9f7c2830b32c3c70d9966e760405160405180910390a2565b611e8a600554600454611ecb90919063ffffffff16565b6004819055507f8f54d482248b8bb080211e41e3b058544f2444f56ab4e6d0368cbb17b5b2b8eb6004546040518082815260200191505060405180910390a1565b600080828401905083811015611ee057600080fd5b8091505092915050565b600073ffffffffffffffffffffffffffffffffffffffff16600660009054906101000a900473ffffffffffffffffffffffffffffffffffffffff1673ffffffffffffffffffffffffffffffffffffffff161461204057600660009054906101000a900473ffffffffffffffffffffffffffffffffffffffff1673ffffffffffffffffffffffffffffffffffffffff16633af32abf336040518263ffffffff167c0100000000000000000000000000000000000000000000000000000000028152600401808273ffffffffffffffffffffffffffffffffffffffff1673ffffffffffffffffffffffffffffffffffffffff16815260200191505060206040518083038186803b158015611ffb57600080fd5b505afa15801561200f573d6000803e3d6000fd5b505050506040513d602081101561202557600080fd5b810190808051906020019092919050505061203f57600080fd5b5b6001600760003373ffffffffffffffffffffffffffffffffffffffff1673ffffffffffffffffffffffffffffffffffffffff16815260200190815260200160002060006101000a81548160ff0219169083151502179055506120ae6001600954611ecb90919063ffffffff16565b60098190555060083390806001815401808255809150509060018203906000526020600020016000909192909190916101000a81548173ffffffffffffffffffffffffffffffffffffffff021916908373ffffffffffffffffffffffffffffffffffffffff160217905550506121306001600a54611ecb90919063ffffffff16565b600a819055503373ffffffffffffffffffffffffffffffffffffffff167fa88fac53823b534c72d6958345adbe6801e072750d83b490d52ebbac51473a6360405160405180910390a2565b600454600260003373ffffffffffffffffffffffffffffffffffffffff1673ffffffffffffffffffffffffffffffffffffffff168152602001908152602001600020819055503373ffffffffffffffffffffffffffffffffffffffff167f86bd51a87477f175261ed976d5f38ebe16b536267992a6308317ad92c417b2f46004546040518082815260200191505060405180910390a2565b600073ffffffffffffffffffffffffffffffffffffffff168173ffffffffffffffffffffffffffffffffffffffff16141561224d57600080fd5b8073ffffffffffffffffffffffffffffffffffffffff166000809054906101000a900473ffffffffffffffffffffffffffffffffffffffff1673ffffffffffffffffffffffffffffffffffffffff167f8be0079c531659141344cd1fd0a4f28419497f9722a3daafe3b4186f6b6457e060405160405180910390a3806000806101000a81548173ffffffffffffffffffffffffffffffffffffffff021916908373ffffffffffffffffffffffffffffffffffffffff16021790555050565b60008282111561231a57600080fd5b600082840390508091505092915050565b828054600181600116156101000203166002900490600052602060002090601f016020900481019282601f1061236c57805160ff191683800117855561239a565b8280016001018555821561239a579182015b8281111561239957825182559160200191906001019061237e565b5b5090506123a791906123ab565b5090565b6123cd91905b808211156123c95760008160009055506001016123b1565b5090565b9056fea165627a7a72305820240c4d1155815a9cfc82406baa96899bd73e4ce98c5cddc9f589080d2b1510340029",
  "source": "pragma solidity 0.5.7;\n\nimport \"openzeppelin-solidity/contracts/ownership/Ownable.sol\";\nimport \"openzeppelin-solidity/contracts/token/ERC20/IERC20.sol\";\nimport \"openzeppelin-solidity/contracts/math/SafeMath.sol\";\nimport \"./Compensatable.sol\";\nimport \"./Subscribable.sol\";\nimport \"../Whitelist/Whitelist.sol\";\nimport \"../SLO/SLO.sol\";\n\ncontract SLA is Ownable, Compensatable, Subscribable {\n\n    using SafeMath for uint256;\n\n    IERC20 public dsla;\n\n    uint public stake;\n    string ipfsHash;\n\n    struct SLI {\n        uint timestamp;\n        uint value;\n        string ipfsHash;\n    }\n\n    mapping(bytes32 => SLO) public SLOs;\n    mapping(bytes32 => SLI[]) public SLIs;\n\n    bytes32[] SLONames;\n\n    event SLICreated(uint _timestamp, uint _value, string _hash);\n\n    constructor(\n        address _owner,\n        Whitelist _whitelist,\n        IERC20 _dsla,\n        bytes32[] memory _SLONames,\n        SLO[] memory _SLOs,\n        uint _compensationAmount,\n        uint _stake,\n        string memory _ipfsHash\n    )\n    public {\n        require(_SLOs.length < 5);\n        require(_SLONames.length == _SLOs.length);\n\n        for(uint i = 0; i < _SLOs.length; i++) {\n            SLOs[_SLONames[i]] = _SLOs[i];\n        }\n\n        transferOwnership(_owner);\n        SLONames = _SLONames;\n        whitelist = _whitelist;\n        dsla = _dsla;\n        compensationAmount = _compensationAmount;\n        stake = _stake;\n        ipfsHash = _ipfsHash;\n    }\n\n    function registerSLI(bytes32 _SLOName, uint _value, string calldata _hash)\n        external\n        onlyOwner\n    {\n        SLIs[_SLOName].push(SLI(now, _value, _hash));\n\n        emit SLICreated(now, _value, _hash);\n\n        if(!SLOs[_SLOName].isSLOHonored(_value)) {\n            _compensate();\n        }\n    }\n\n    function changeWhitelist(Whitelist _newWhitelist) external onlyOwner {\n        whitelist = _newWhitelist;\n    }\n\n    function signAgreement() external onlyWhitelisted onlyNotSubscribed{\n        _subscribe();\n        _setInitialuserCompensation();\n\n        if (stake > 0) {\n            dsla.approve(address(this), stake);\n            dsla.transferFrom(msg.sender, address(this), stake);\n        }\n    }\n\n    function withdrawCompensation() external onlySubscribed {\n        uint withdrawalAmount = _withdrawCompensation(msg.sender);\n        dsla.transfer(msg.sender, withdrawalAmount);\n    }\n\n    function withdrawCompensations(address[] calldata _users) external {\n        uint reward = 0;\n\n        for(uint i = 0; i < _users.length; i++) {\n            address userAddress = _users[i];\n\n            if (isSubscribed(userAddress) && _compensationWithdrawable(userAddress)) {\n                uint withdrawalAmount = _withdrawCompensation(userAddress);\n                dsla.transfer(userAddress, withdrawalAmount);\n\n                reward = reward.add(1e18);\n            }\n        }\n\n        // TODO: Replace temporary reward calculation with actual calculation\n        dsla.transfer(msg.sender, reward);\n    }\n\n    function revokeAgreement() external onlySubscribed {\n        if (_compensationWithdrawable(msg.sender)) {\n            _withdrawCompensation(msg.sender);\n        }\n\n        _unSubscribe();\n\n        if (stake > 0) {\n            dsla.transfer(msg.sender, stake);\n        }\n    }\n\n    function getDetails() external view returns(\n        string memory,\n        IERC20,\n        Whitelist,\n        address,\n        uint,\n        uint,\n        uint,\n        bytes32[] memory,\n        SLO[] memory\n    ){\n        SLO[] memory _SLOAddressess = new SLO[](SLONames.length);\n\n        for(uint i = 0; i < SLONames.length; i++) {\n            _SLOAddressess[i] = SLOs[SLONames[i]];\n        }\n\n        return(\n            ipfsHash,\n            dsla,\n            whitelist,\n            owner(),\n            compensationAmount,\n            stake,\n            subscribersCount,\n            SLONames,\n            _SLOAddressess\n        );\n    }\n\n    function getWithdrawableSubscribers() external view returns(address[] memory) {\n        address[] memory userList = new address[](usersCount);\n\n        for(uint i = 0; i < usersCount; i++) {\n            address userAddress = allUsers[i];\n\n            if (isSubscribed(userAddress) && _compensationWithdrawable(userAddress)) {\n                userList[i] = userAddress;\n            } else {\n                userList[i] = address(0);\n            }\n        }\n\n        return userList;\n    }\n}\n",
  "sourcePath": "/Users/Martin_Balk/projects/stacktical/stacktical-mvp-contracts/contracts/SLA/SLA.sol",
  "compiler": {
    "name": "solc",
    "version": "0.5.7+commit.6da8b019.Emscripten.clang"
  },
  "schemaVersion": "3.0.6",
  "updatedAt": "2019-04-11T14:15:13.023Z",
  "devdoc": {
    "methods": {
      "isOwner()": {
        "return": "true if `msg.sender` is the owner of the contract."
      },
      "owner()": {
        "return": "the address of the owner."
      },
      "renounceOwnership()": {
        "details": "Allows the current owner to relinquish control of the contract."
      },
      "transferOwnership(address)": {
        "details": "Allows the current owner to transfer control of the contract to a newOwner.",
        "params": {
          "newOwner": "The address to transfer ownership to."
        }
      }
    }
  },
  "userdoc": {
    "methods": {
      "renounceOwnership()": {
        "notice": "Renouncing to ownership will leave the contract without an owner. It will not be possible to call the functions with the `onlyOwner` modifier anymore."
      }
    }
  }
}