{
  "contractName": "SLA",
  "abi": [
    {
      "inputs": [
        {
          "internalType": "address",
          "name": "_owner",
          "type": "address"
        },
        {
          "internalType": "contract SLO",
          "name": "_SLO",
          "type": "address"
        },
        {
          "internalType": "string",
          "name": "_ipfsHash",
          "type": "string"
        },
        {
          "internalType": "address",
          "name": "_messengerAddress",
          "type": "address"
        },
        {
          "internalType": "uint256[]",
          "name": "_periodIds",
          "type": "uint256[]"
        },
        {
          "internalType": "enum PeriodRegistry.PeriodType",
          "name": "_periodType",
          "type": "uint8"
        },
        {
          "internalType": "address",
          "name": "_stakeRegistry",
          "type": "address"
        },
        {
          "internalType": "address",
          "name": "_periodRegistry",
          "type": "address"
        },
        {
          "internalType": "bool",
          "name": "_whitelisted",
          "type": "bool"
        },
        {
          "internalType": "bytes32[]",
          "name": "_extraData",
          "type": "bytes32[]"
        },
        {
          "internalType": "uint256",
          "name": "_slaID",
          "type": "uint256"
        }
      ],
      "stateMutability": "nonpayable",
      "type": "constructor"
    },
    {
      "anonymous": false,
      "inputs": [
        {
          "indexed": true,
          "internalType": "address",
          "name": "previousOwner",
          "type": "address"
        },
        {
          "indexed": true,
          "internalType": "address",
          "name": "newOwner",
          "type": "address"
        }
      ],
      "name": "OwnershipTransferred",
      "type": "event"
    },
    {
      "anonymous": false,
      "inputs": [
        {
          "indexed": true,
          "internalType": "uint256",
          "name": "periodId",
          "type": "uint256"
        },
        {
          "indexed": true,
          "internalType": "address",
          "name": "tokenAddress",
          "type": "address"
        },
        {
          "indexed": false,
          "internalType": "uint256",
          "name": "rewardPercentage",
          "type": "uint256"
        },
        {
          "indexed": false,
          "internalType": "uint256",
          "name": "rewardPercentagePrecision",
          "type": "uint256"
        },
        {
          "indexed": false,
          "internalType": "uint256",
          "name": "rewardAmount",
          "type": "uint256"
        }
      ],
      "name": "ProviderRewardGenerated",
      "type": "event"
    },
    {
      "anonymous": false,
      "inputs": [
        {
          "indexed": false,
          "internalType": "uint256",
          "name": "_periodId",
          "type": "uint256"
        },
        {
          "indexed": false,
          "internalType": "uint256",
          "name": "_sli",
          "type": "uint256"
        }
      ],
      "name": "SLANotRespected",
      "type": "event"
    },
    {
      "anonymous": false,
      "inputs": [
        {
          "indexed": false,
          "internalType": "uint256",
          "name": "timestamp",
          "type": "uint256"
        },
        {
          "indexed": false,
          "internalType": "uint256",
          "name": "sli",
          "type": "uint256"
        },
        {
          "indexed": false,
          "internalType": "uint256",
          "name": "periodId",
          "type": "uint256"
        }
      ],
      "name": "SLICreated",
      "type": "event"
    },
    {
      "inputs": [],
      "name": "DSLAburnRate",
      "outputs": [
        {
          "internalType": "uint256",
          "name": "",
          "type": "uint256"
        }
      ],
      "stateMutability": "view",
      "type": "function",
      "constant": true
    },
    {
      "inputs": [
        {
          "internalType": "address",
          "name": "_tokenAddress",
          "type": "address"
        }
      ],
      "name": "_claimCompensation",
      "outputs": [],
      "stateMutability": "nonpayable",
      "type": "function"
    },
    {
      "inputs": [
        {
          "internalType": "address",
          "name": "_tokenAddress",
          "type": "address"
        }
      ],
      "name": "addAllowedTokens",
      "outputs": [],
      "stateMutability": "nonpayable",
      "type": "function"
    },
    {
      "inputs": [
        {
          "internalType": "address",
          "name": "_userAddress",
          "type": "address"
        }
      ],
      "name": "addUserToWhitelist",
      "outputs": [],
      "stateMutability": "nonpayable",
      "type": "function"
    },
    {
      "inputs": [
        {
          "internalType": "uint256",
          "name": "",
          "type": "uint256"
        }
      ],
      "name": "allowedTokens",
      "outputs": [
        {
          "internalType": "address",
          "name": "",
          "type": "address"
        }
      ],
      "stateMutability": "view",
      "type": "function",
      "constant": true
    },
    {
      "inputs": [],
      "name": "creationBlockNumber",
      "outputs": [
        {
          "internalType": "uint256",
          "name": "",
          "type": "uint256"
        }
      ],
      "stateMutability": "view",
      "type": "function",
      "constant": true
    },
    {
      "inputs": [],
      "name": "cumulatedDevaluation",
      "outputs": [
        {
          "internalType": "uint256",
          "name": "",
          "type": "uint256"
        }
      ],
      "stateMutability": "view",
      "type": "function",
      "constant": true
    },
    {
      "inputs": [
        {
          "internalType": "address",
          "name": "",
          "type": "address"
        }
      ],
      "name": "dpTokenRegistry",
      "outputs": [
        {
          "internalType": "contract ERC20PresetMinterPauser",
          "name": "",
          "type": "address"
        }
      ],
      "stateMutability": "view",
      "type": "function",
      "constant": true
    },
    {
      "inputs": [],
      "name": "dslaTokenAddress",
      "outputs": [
        {
          "internalType": "address",
          "name": "",
          "type": "address"
        }
      ],
      "stateMutability": "view",
      "type": "function",
      "constant": true
    },
    {
      "inputs": [
        {
          "internalType": "address",
          "name": "",
          "type": "address"
        }
      ],
      "name": "duTokenRegistry",
      "outputs": [
        {
          "internalType": "contract ERC20PresetMinterPauser",
          "name": "",
          "type": "address"
        }
      ],
      "stateMutability": "view",
      "type": "function",
      "constant": true
    },
    {
      "inputs": [
        {
          "internalType": "uint256",
          "name": "",
          "type": "uint256"
        }
      ],
      "name": "extraData",
      "outputs": [
        {
          "internalType": "bytes32",
          "name": "",
          "type": "bytes32"
        }
      ],
      "stateMutability": "view",
      "type": "function",
      "constant": true
    },
    {
      "inputs": [],
      "name": "getAllowedTokensLength",
      "outputs": [
        {
          "internalType": "uint256",
          "name": "",
          "type": "uint256"
        }
      ],
      "stateMutability": "view",
      "type": "function",
      "constant": true
    },
    {
      "inputs": [
        {
          "internalType": "address",
          "name": "_staker",
          "type": "address"
        },
        {
          "internalType": "uint256",
          "name": "_allowedTokenIndex",
          "type": "uint256"
        }
      ],
      "name": "getTokenStake",
      "outputs": [
        {
          "internalType": "address",
          "name": "tokenAddress",
          "type": "address"
        },
        {
          "internalType": "uint256",
          "name": "stake",
          "type": "uint256"
        }
      ],
      "stateMutability": "view",
      "type": "function",
      "constant": true
    },
    {
      "inputs": [],
      "name": "ipfsHash",
      "outputs": [
        {
          "internalType": "string",
          "name": "",
          "type": "string"
        }
      ],
      "stateMutability": "view",
      "type": "function",
      "constant": true
    },
    {
      "inputs": [
        {
          "internalType": "address",
          "name": "_tokenAddress",
          "type": "address"
        }
      ],
      "name": "isAllowedToken",
      "outputs": [
        {
          "internalType": "bool",
          "name": "",
          "type": "bool"
        }
      ],
      "stateMutability": "view",
      "type": "function",
      "constant": true
    },
    {
      "inputs": [
        {
          "internalType": "address",
          "name": "_staker",
          "type": "address"
        }
      ],
      "name": "isStaker",
      "outputs": [
        {
          "internalType": "bool",
          "name": "",
          "type": "bool"
        }
      ],
      "stateMutability": "view",
      "type": "function",
      "constant": true
    },
    {
      "inputs": [],
      "name": "messengerAddress",
      "outputs": [
        {
          "internalType": "address",
          "name": "",
          "type": "address"
        }
      ],
      "stateMutability": "view",
      "type": "function",
      "constant": true
    },
    {
      "inputs": [],
      "name": "nextVerifiablePeriod",
      "outputs": [
        {
          "internalType": "uint256",
          "name": "",
          "type": "uint256"
        }
      ],
      "stateMutability": "view",
      "type": "function",
      "constant": true
    },
    {
      "inputs": [],
      "name": "owner",
      "outputs": [
        {
          "internalType": "address",
          "name": "",
          "type": "address"
        }
      ],
      "stateMutability": "view",
      "type": "function",
      "constant": true
    },
    {
      "inputs": [
        {
          "internalType": "uint256",
          "name": "",
          "type": "uint256"
        }
      ],
      "name": "periodIds",
      "outputs": [
        {
          "internalType": "uint256",
          "name": "",
          "type": "uint256"
        }
      ],
      "stateMutability": "view",
      "type": "function",
      "constant": true
    },
    {
      "inputs": [],
      "name": "periodRegistry",
      "outputs": [
        {
          "internalType": "contract PeriodRegistry",
          "name": "",
          "type": "address"
        }
      ],
      "stateMutability": "view",
      "type": "function",
      "constant": true
    },
    {
      "inputs": [
        {
          "internalType": "uint256",
          "name": "",
          "type": "uint256"
        }
      ],
      "name": "periodSLIs",
      "outputs": [
        {
          "internalType": "uint256",
          "name": "timestamp",
          "type": "uint256"
        },
        {
          "internalType": "uint256",
          "name": "sli",
          "type": "uint256"
        },
        {
          "internalType": "enum SLA.Status",
          "name": "status",
          "type": "uint8"
        }
      ],
      "stateMutability": "view",
      "type": "function",
      "constant": true
    },
    {
      "inputs": [],
      "name": "periodType",
      "outputs": [
        {
          "internalType": "enum PeriodRegistry.PeriodType",
          "name": "",
          "type": "uint8"
        }
      ],
      "stateMutability": "view",
      "type": "function",
      "constant": true
    },
    {
      "inputs": [
        {
          "internalType": "address",
          "name": "",
          "type": "address"
        }
      ],
      "name": "providerPool",
      "outputs": [
        {
          "internalType": "uint256",
          "name": "",
          "type": "uint256"
        }
      ],
      "stateMutability": "view",
      "type": "function",
      "constant": true
    },
    {
      "inputs": [
        {
          "internalType": "address",
          "name": "_userAddress",
          "type": "address"
        }
      ],
      "name": "removeUserFromWhitelist",
      "outputs": [],
      "stateMutability": "nonpayable",
      "type": "function"
    },
    {
      "inputs": [],
      "name": "renounceOwnership",
      "outputs": [],
      "stateMutability": "nonpayable",
      "type": "function"
    },
    {
      "inputs": [],
      "name": "slaID",
      "outputs": [
        {
          "internalType": "uint256",
          "name": "",
          "type": "uint256"
        }
      ],
      "stateMutability": "view",
      "type": "function",
      "constant": true
    },
    {
      "inputs": [],
      "name": "slaPeriodsLength",
      "outputs": [
        {
          "internalType": "uint256",
          "name": "",
          "type": "uint256"
        }
      ],
      "stateMutability": "view",
      "type": "function",
      "constant": true
    },
    {
      "inputs": [],
      "name": "slaRegistry",
      "outputs": [
        {
          "internalType": "contract SLARegistry",
          "name": "",
          "type": "address"
        }
      ],
      "stateMutability": "view",
      "type": "function",
      "constant": true
    },
    {
      "inputs": [],
      "name": "slo",
      "outputs": [
        {
          "internalType": "contract SLO",
          "name": "",
          "type": "address"
        }
      ],
      "stateMutability": "view",
      "type": "function",
      "constant": true
    },
    {
      "inputs": [
        {
          "internalType": "uint256",
          "name": "",
          "type": "uint256"
        }
      ],
      "name": "stakers",
      "outputs": [
        {
          "internalType": "address",
          "name": "",
          "type": "address"
        }
      ],
      "stateMutability": "view",
      "type": "function",
      "constant": true
    },
    {
      "inputs": [
        {
          "internalType": "address",
          "name": "newOwner",
          "type": "address"
        }
      ],
      "name": "transferOwnership",
      "outputs": [],
      "stateMutability": "nonpayable",
      "type": "function"
    },
    {
      "inputs": [
        {
          "internalType": "address",
          "name": "",
          "type": "address"
        }
      ],
      "name": "usersPool",
      "outputs": [
        {
          "internalType": "uint256",
          "name": "",
          "type": "uint256"
        }
      ],
      "stateMutability": "view",
      "type": "function",
      "constant": true
    },
    {
      "inputs": [
        {
          "internalType": "address",
          "name": "",
          "type": "address"
        }
      ],
      "name": "whitelist",
      "outputs": [
        {
          "internalType": "bool",
          "name": "",
          "type": "bool"
        }
      ],
      "stateMutability": "view",
      "type": "function",
      "constant": true
    },
    {
      "inputs": [],
      "name": "whitelistedContract",
      "outputs": [
        {
          "internalType": "bool",
          "name": "",
          "type": "bool"
        }
      ],
      "stateMutability": "view",
      "type": "function",
      "constant": true
    },
    {
      "inputs": [
        {
          "internalType": "uint256",
          "name": "_sli",
          "type": "uint256"
        },
        {
          "internalType": "uint256",
          "name": "_periodId",
          "type": "uint256"
        }
      ],
      "name": "registerSLI",
      "outputs": [],
      "stateMutability": "nonpayable",
      "type": "function"
    },
    {
      "inputs": [
        {
          "internalType": "uint256",
          "name": "_periodId",
          "type": "uint256"
        }
      ],
      "name": "isAllowedPeriod",
      "outputs": [
        {
          "internalType": "bool",
          "name": "",
          "type": "bool"
        }
      ],
      "stateMutability": "view",
      "type": "function",
      "constant": true
    },
    {
      "inputs": [
        {
          "internalType": "uint256",
          "name": "_amount",
          "type": "uint256"
        },
        {
          "internalType": "address",
          "name": "_token",
          "type": "address"
        }
      ],
      "name": "stakeTokens",
      "outputs": [],
      "stateMutability": "nonpayable",
      "type": "function"
    },
    {
      "inputs": [
        {
          "internalType": "uint256",
          "name": "_amount",
          "type": "uint256"
        },
        {
          "internalType": "address",
          "name": "_tokenAddress",
          "type": "address"
        }
      ],
      "name": "withdrawStakedTokens",
      "outputs": [],
      "stateMutability": "nonpayable",
      "type": "function"
    },
    {
      "inputs": [
        {
          "internalType": "address",
          "name": "_tokenAddress",
          "type": "address"
        }
      ],
      "name": "claimUserCompensation",
      "outputs": [],
      "stateMutability": "nonpayable",
      "type": "function"
    },
    {
      "inputs": [],
      "name": "getPeriodIdsLength",
      "outputs": [
        {
          "internalType": "uint256",
          "name": "",
          "type": "uint256"
        }
      ],
      "stateMutability": "view",
      "type": "function",
      "constant": true
    },
    {
      "inputs": [],
      "name": "getStakersLength",
      "outputs": [
        {
          "internalType": "uint256",
          "name": "",
          "type": "uint256"
        }
      ],
      "stateMutability": "view",
      "type": "function",
      "constant": true
    },
    {
      "inputs": [],
      "name": "breachedContract",
      "outputs": [
        {
          "internalType": "bool",
          "name": "",
          "type": "bool"
        }
      ],
      "stateMutability": "view",
      "type": "function",
      "constant": true
    }
  ],
  "bytecode": "0x6080604052620f424060088190556009556017805460ff60a01b191690553480156200002a57600080fd5b506040516200393a3803806200393a8339810160408190526200004d91620006cb565b848487895186856000620000666200033f60201b60201c565b600080546001600160a01b0319166001600160a01b0383169081178255604051929350916000805160206200391a833981519152908290a350600180546001600160a01b038089166001600160a01b03199283161783556002805491891691909216179055600e8054869260ff1990911690836005811115620000e557fe5b0217905550600f8390556010805460ff191683151517905560015460408051637b8041cf60e11b815290516000926001600160a01b03169163f700839e9160048083019260a0929190829003018186803b1580156200014357600080fd5b505afa15801562000158573d6000803e3d6000fd5b505050506040513d601f19601f820116820180604052508101906200017e9190620007fc565b505060015460408051638b8e530960e01b815290519495506001600160a01b0390911693638b8e5309935060048083019350602092829003018186803b158015620001c857600080fd5b505afa158015620001dd573d6000803e3d6000fd5b505050506040513d601f19601f82011682018060405250810190620002039190620006a5565b600b80546001600160a01b0319166001600160a01b0392909216919091179055600d819055620002333362000343565b50600355506200024a93508e925050620003e69050565b88516200025f9060139060208c019062000493565b50601780546001600160a01b03808b166001600160a01b03199283161790925560168054909116331790556014805491861661010002610100600160a81b0319909216919091179055436019558651620002c19060159060208a019062000518565b506014805487919060ff19166001836005811115620002dc57fe5b0217905550601280546001600160a01b0319166001600160a01b038c1617905581516200031190601a90602085019062000518565b50866000815181106200032057fe5b6020026020010151601b8190555050505050505050505050506200094e565b3390565b6200034d6200033f565b6000546001600160a01b03908116911614620003865760405162461bcd60e51b81526004016200037d90620008b9565b60405180910390fd5b6001600160a01b03811660009081526011602052604090205460ff1615620003c25760405162461bcd60e51b81526004016200037d906200083c565b6001600160a01b03166000908152601160205260409020805460ff19166001179055565b620003f06200033f565b6000546001600160a01b03908116911614620004205760405162461bcd60e51b81526004016200037d90620008b9565b6001600160a01b038116620004495760405162461bcd60e51b81526004016200037d9062000873565b600080546040516001600160a01b03808516939216916000805160206200391a83398151915291a3600080546001600160a01b0319166001600160a01b0392909216919091179055565b828054600181600116156101000203166002900490600052602060002090601f016020900481019282601f10620004d657805160ff191683800117855562000506565b8280016001018555821562000506579182015b8281111562000506578251825591602001919060010190620004e9565b506200051492915062000555565b5090565b82805482825590600052602060002090810192821562000506579160200282018281111562000506578251825591602001919060010190620004e9565b5b8082111562000514576000815560010162000556565b8051620005798162000935565b92915050565b600082601f83011262000590578081fd5b8151620005a7620005a18262000915565b620008ee565b818152915060208083019084810181840286018201871015620005c957600080fd5b60005b84811015620005ea57815184529282019290820190600101620005cc565b505050505092915050565b805180151581146200057957600080fd5b8051600681106200057957600080fd5b600082601f83011262000627578081fd5b81516001600160401b038111156200063d578182fd5b602062000653601f8301601f19168201620008ee565b925081835284818386010111156200066a57600080fd5b60005b828110156200068a5784810182015184820183015281016200066d565b828111156200069c5760008284860101525b50505092915050565b600060208284031215620006b7578081fd5b8151620006c48162000935565b9392505050565b60008060008060008060008060008060006101608c8e031215620006ed578687fd5b620006f98d8d6200056c565b9a506200070a8d60208e016200056c565b60408d0151909a506001600160401b0381111562000726578788fd5b620007348e828f0162000616565b995050620007468d60608e016200056c565b60808d01519098506001600160401b0381111562000762578788fd5b620007708e828f016200057f565b975050620007828d60a08e0162000606565b9550620007938d60c08e016200056c565b9450620007a48d60e08e016200056c565b9350620007b68d6101008e01620005f5565b6101208d01519093506001600160401b03811115620007d3578283fd5b620007e18e828f016200057f565b9250506101408c015190509295989b509295989b9093969950565b600080600080600060a0868803121562000814578081fd5b5050835160208501516040860151606087015160809097015192989197509594509092509050565b60208082526018908201527f5573657220616c72656164792077686974656c69737465640000000000000000604082015260600190565b60208082526026908201527f4f776e61626c653a206e6577206f776e657220697320746865207a65726f206160408201526564647265737360d01b606082015260800190565b6020808252818101527f4f776e61626c653a2063616c6c6572206973206e6f7420746865206f776e6572604082015260600190565b6040518181016001600160401b03811182821017156200090d57600080fd5b604052919050565b60006001600160401b038211156200092b578081fd5b5060209081020190565b6001600160a01b03811681146200094b57600080fd5b50565b612fbc806200095e6000396000f3fe608060405234801561001057600080fd5b50600436106102695760003560e01c8063715018a611610151578063b7bc347e116100c3578063db69a46211610087578063db69a462146104db578063f2db10fe146104e3578063f2fde38b146104eb578063f7e9dfff146104fe578063f9902bb114610506578063fd5e6dd11461051957610269565b8063b7bc347e14610490578063c623674f14610498578063cbe230c3146104ad578063cd92890e146104c0578063d7a5c422146104c857610269565b80638da5cb5b116101155780638da5cb5b146104555780639b19251a1461045d5780639fabeb00146104705780639fc4caa514610478578063a224ee9c14610480578063b1659bad1461048857610269565b8063715018a614610417578063747b80501461041f57806378025ec4146104325780637fd788aa146104455780638d4f567d1461044d57610269565b806346e0fbae116101ea57806357ac94f0116101ae57806357ac94f0146103ad5780635c1c20de146103ce5780635e5f2e26146103d65780635fc1b5fd146103e9578063639b6fc3146103f15780636f1e85331461040457610269565b806346e0fbae1461033f578063484fbf2b146103545780634e0c91f6146103675780634fb2647e14610387578063524f07351461039a57610269565b806318e454271161023157806318e45427146102e75780631bf30929146102ef5780631fc2cd93146102f757806327cd727c1461030a5780634190edde1461031d57610269565b8063021eef7f1461026e5780630ae9ea45146102975780630bea440d146102b75780630c5160f4146102cc578063171e44ea146102d4575b600080fd5b61028161027c3660046126c2565b61052c565b60405161028e919061290d565b60405180910390f35b6102aa6102a53660046126c2565b610576565b60405161028e9190612918565b6102ca6102c53660046126f2565b610594565b005b6102aa6106f5565b6102ca6102e23660046125a4565b6106fb565b610281610ac4565b6102aa610acd565b6102ca6103053660046125a4565b610ad3565b6102ca6103183660046126f2565b610d3b565b61033061032b3660046126c2565b610e9a565b60405161028e93929190612efe565b610347610ebe565b60405161028e9190612921565b6102aa6103623660046125a4565b610ec7565b61037a6103753660046125a4565b610ed9565b60405161028e91906128bc565b61037a6103953660046125a4565b610ef4565b6102ca6103a83660046125a4565b610f0f565b6103c06103bb3660046125dc565b610f1b565b60405161028e9291906128d0565b6102aa6110fb565b61037a6103e43660046126c2565b611101565b6102aa611128565b6102aa6103ff3660046125a4565b61112e565b6102816104123660046125a4565b611140565b6102ca611192565b6102ca61042d3660046125a4565b611211565b6102aa6104403660046126c2565b6112a3565b6102816112b0565b6102aa6112c0565b61037a6112c6565b61028161046b3660046125a4565b6112d5565b6102aa6112ea565b61037a6112f0565b61037a611304565b6102aa611313565b6102aa611319565b6104a061131f565b60405161028e9190612952565b6102816104bb3660046125a4565b6113ad565b61037a6113ff565b6102ca6104d6366004612721565b61140e565b61037a6116d4565b6102aa6116e3565b6102ca6104f93660046125a4565b6116e9565b61037a61179f565b6102ca6105143660046125a4565b6117ae565b61037a6105273660046126c2565b611841565b6000805b60155481101561056b57826015828154811061054857fe5b90600052602060002001541415610563576001915050610571565b600101610530565b50600090505b919050565b6015818154811061058357fe5b600091825260209091200154905081565b600082116105bd5760405162461bcd60e51b81526004016105b490612dbe565b60405180910390fd5b601754600160a01b900460ff16156105e75760405162461bcd60e51b81526004016105b490612d12565b6105f1828261184e565b60165460408051636830483560e01b815290516000926001600160a01b0316916368304835916004808301926020929190829003018186803b15801561063657600080fd5b505afa15801561064a573d6000803e3d6000fd5b505050506040513d601f19601f8201168201806040525081019061066e91906125c0565b604051635948284760e11b81529091506001600160a01b0382169063b290508e9061069d9033906004016128bc565b602060405180830381600087803b1580156106b757600080fd5b505af11580156106cb573d6000803e3d6000fd5b505050506040513d601f19601f820116820180604052508101906106ef9190612607565b50505050565b600f5481565b610703611c2e565b6000546001600160a01b039081169116146107305760405162461bcd60e51b81526004016105b490612cdd565b610739816113ad565b156107565760405162461bcd60e51b81526004016105b490612d5a565b60015460405163cbe230c360e01b81526001600160a01b039091169063cbe230c3906107869084906004016128bc565b60206040518083038186803b15801561079e57600080fd5b505afa1580156107b2573d6000803e3d6000fd5b505050506040513d601f19601f820116820180604052508101906107d69190612607565b15156001146107f75760405162461bcd60e51b81526004016105b490612ac1565b600c80546001810182556000919091527fdf6966c971051c3d54ec59162606531493a51404a002842f56009d7e5cf4a8c70180546001600160a01b0319166001600160a01b03831617905560035460609061085190611c32565b90506060826001600160a01b03166395d89b416040518163ffffffff1660e01b815260040160006040518083038186803b15801561088e57600080fd5b505afa1580156108a2573d6000803e3d6000fd5b505050506040513d6000823e601f3d908101601f191682016040526108ca9190810190612627565b9050606081836040516020016108e192919061286a565b6040516020818303038152906040529050606082846040516020016109079291906127ad565b60405160208183030381529060405290506060838560405160200161092d9291906127f7565b60405160208183030381529060405290506060848660405160200161095392919061284d565b60408051601f1981840301815290829052600154633350214760e11b83529092506000916001600160a01b03909116906366a0428e906109999088908890600401612965565b602060405180830381600087803b1580156109b357600080fd5b505af11580156109c7573d6000803e3d6000fd5b505050506040513d601f19601f820116820180604052508101906109eb91906125c0565b600154604051633350214760e11b81529192506000916001600160a01b03909116906366a0428e90610a239087908790600401612965565b602060405180830381600087803b158015610a3d57600080fd5b505af1158015610a51573d6000803e3d6000fd5b505050506040513d601f19601f82011682018060405250810190610a7591906125c0565b6001600160a01b03998a1660009081526007602090815260408083208054948e166001600160a01b031995861617905560069091529020805493909a1692169190911790975550505050505050565b60105460ff1681565b60195481565b610adb6112c6565b6001600160a01b0316336001600160a01b03161415610b0c5760405162461bcd60e51b81526004016105b490612eab565b60105460ff16151560011415610b50573360009081526011602052604090205460ff161515600114610b505760405162461bcd60e51b81526004016105b490612bb0565b6001600160a01b038082166000908152600660205260408082205490516370a0823160e01b815292169182906370a0823190610b909033906004016128bc565b60206040518083038186803b158015610ba857600080fd5b505afa158015610bbc573d6000803e3d6000fd5b505050506040513d601f19601f82011682018060405250810190610be091906126da565b90506000826001600160a01b03166318160ddd6040518163ffffffff1660e01b815260040160206040518083038186803b158015610c1d57600080fd5b505afa158015610c31573d6000803e3d6000fd5b505050506040513d601f19601f82011682018060405250810190610c5591906126da565b905061271082610c775760405162461bcd60e51b81526004016105b490612b53565b6000610c8d83610c878685611d0d565b90611d50565b6001600160a01b03871660009081526005602052604081205491925090610cba908490610c879085611d0d565b60405163079cc67960e41b81529091506001600160a01b038716906379cc679090610ceb90339089906004016128d0565b600060405180830381600087803b158015610d0557600080fd5b505af1158015610d19573d6000803e3d6000fd5b50610d32925050506001600160a01b0388163383611d92565b50505050505050565b60008211610d5b5760405162461bcd60e51b81526004016105b490612dbe565b60158054600091906000198101908110610d7157fe5b600091825260208220015460145460405160016259edcb60e01b031981529193506001600160a01b036101008204169163ffa6123591610dbb9160ff909116908690600401612936565b604080518083038186803b158015610dd257600080fd5b505afa158015610de6573d6000803e3d6000fd5b505050506040513d601f19601f82011682018060405250810190610e0a9190612742565b915050610e156112c6565b6001600160a01b0316336001600160a01b031614610e9057601754600160a01b900460ff16151560011480610e745750804210158015610e745750600082815260186020526040812060029081015460ff1690811115610e7157fe5b14155b610e905760405162461bcd60e51b81526004016105b4906129c5565b6106ef8484611de8565b60186020526000908152604090208054600182015460029092015490919060ff1683565b60145460ff1681565b60056020526000908152604090205481565b6006602052600090815260409020546001600160a01b031681565b6007602052600090815260409020546001600160a01b031681565b610f1881610ad3565b50565b6000806000600c8481548110610f2d57fe5b6000918252602090912001546001600160a01b03169050610f4c6112c6565b6001600160a01b0316856001600160a01b03161415610f88576001600160a01b03811660009081526004602052604090205490925090506110f4565b6001600160a01b0380821660009081526006602090815260408083205481516318160ddd60e01b8152915194169384926318160ddd9260048082019391829003018186803b158015610fd957600080fd5b505afa158015610fed573d6000803e3d6000fd5b505050506040513d601f19601f8201168201806040525081019061101191906126da565b90508061102757826000945094505050506110f4565b6040516370a0823160e01b81526000906001600160a01b038416906370a0823190611056908b906004016128bc565b60206040518083038186803b15801561106e57600080fd5b505afa158015611082573d6000803e3d6000fd5b505050506040513d601f19601f820116820180604052508101906110a691906126da565b905061271060006110bb84610c878585611d0d565b6001600160a01b03871660009081526005602052604090205490915086906110e9908490610c879085611d0d565b975097505050505050505b9250929050565b600d5481565b600c818154811061110e57fe5b6000918252602090912001546001600160a01b0316905081565b60155490565b60046020526000908152604090205481565b6000805b600a5481101561056b57826001600160a01b0316600a828154811061116557fe5b6000918252602090912001546001600160a01b0316141561118a576001915050610571565b600101611144565b61119a611c2e565b6000546001600160a01b039081169116146111c75760405162461bcd60e51b81526004016105b490612cdd565b600080546040516001600160a01b03909116907f8be0079c531659141344cd1fd0a4f28419497f9722a3daafe3b4186f6b6457e0908390a3600080546001600160a01b0319169055565b611219611c2e565b6000546001600160a01b039081169116146112465760405162461bcd60e51b81526004016105b490612cdd565b6001600160a01b03811660009081526011602052604090205460ff161561127f5760405162461bcd60e51b81526004016105b490612993565b6001600160a01b03166000908152601160205260409020805460ff19166001179055565b601a818154811061058357fe5b601754600160a01b900460ff1690565b60085481565b6000546001600160a01b031690565b60116020526000908152604090205460ff1681565b600a5490565b60145461010090046001600160a01b031681565b6017546001600160a01b031681565b601b5481565b600c5490565b6013805460408051602060026001851615610100026000190190941693909304601f810184900484028201840190925281815292918301828280156113a55780601f1061137a576101008083540402835291602001916113a5565b820191906000526020600020905b81548152906001019060200180831161138857829003601f168201915b505050505081565b6000805b600c5481101561056b57826001600160a01b0316600c82815481106113d257fe5b6000918252602090912001546001600160a01b031614156113f7576001915050610571565b6001016113b1565b6012546001600160a01b031681565b6017546001600160a01b031633146114385760405162461bcd60e51b81526004016105b490612b0e565b7fc95987c1992805ee34bdc915e017cceae36ba1c156b9911fa7e691e6435eb46e42838360405161146b93929190612f24565b60405180910390a16001808201601b5560008281526018602090815260408083209384018690554284556012548151633fa4f24560e01b815291516001600160a01b0390911692633fa4f2459260048082019391829003018186803b1580156114d357600080fd5b505afa1580156114e7573d6000803e3d6000fd5b505050506040513d601f19601f8201168201806040525081019061150b91906126da565b6012546040516303c8f2e360e21b81529192506001600160a01b031690630f23cb8c9061153c908790600401612918565b60206040518083038186803b15801561155457600080fd5b505afa158015611568573d6000803e3d6000fd5b505050506040513d601f19601f8201168201806040525081019061158c9190612607565b15611669576002828101805460ff19166001179055612710906000906115ce906115ba90610c878987611fcc565b610c87846115c88a88611ff1565b90611d0d565b90506000611608600161160260156000815481106115e857fe5b906000526020600020015489611ff190919063ffffffff16565b90611fcc565b60158054919250600091600019810190811061162057fe5b90600052602060002001548714156116425761163d600185611d0d565b611653565b60155461165390610c878585611d0d565b9050611660878286612033565b505050506106ef565b6002828101805460ff19169091179055611681612199565b6017805460ff60a01b1916600160a01b1790556040517fbd33f7a3bfa88a467c9df5ae7d2341cf061084c386b20a0d48130f5cbce38a4d906116c69085908790612ef0565b60405180910390a150505050565b6016546001600160a01b031681565b60035481565b6116f1611c2e565b6000546001600160a01b0390811691161461171e5760405162461bcd60e51b81526004016105b490612cdd565b6001600160a01b0381166117445760405162461bcd60e51b81526004016105b490612a44565b600080546040516001600160a01b03808516939216917f8be0079c531659141344cd1fd0a4f28419497f9722a3daafe3b4186f6b6457e091a3600080546001600160a01b0319166001600160a01b0392909216919091179055565b600b546001600160a01b031681565b6117b6611c2e565b6000546001600160a01b039081169116146117e35760405162461bcd60e51b81526004016105b490612cdd565b6001600160a01b03811660009081526011602052604090205460ff1615156001146118205760405162461bcd60e51b81526004016105b490612dea565b6001600160a01b03166000908152601160205260409020805460ff19169055565b600a818154811061110e57fe5b80611858816113ad565b15156001146118795760405162461bcd60e51b81526004016105b490612caf565b60105460ff161515600114156118bd573360009081526011602052604090205460ff1615156001146118bd5760405162461bcd60e51b81526004016105b490612bb0565b6118d26001600160a01b03831633308661227e565b6118da6112c6565b6001600160a01b0316336001600160a01b031614611a15576001600160a01b038216600090815260046020908152604080832054600590925290912054816119228287611fcc565b11156119405760405162461bcd60e51b81526004016105b490612e18565b6001600160a01b0384166000908152600560205260409020546119639086611fcc565b6001600160a01b0385166000908152600560205260408120919091556008546009546119959190610c87908990611d0d565b6001600160a01b03808716600090815260066020526040908190205490516340c10f1960e01b8152929350169081906340c10f19906119da90339086906004016128d0565b600060405180830381600087803b1580156119f457600080fd5b505af1158015611a08573d6000803e3d6000fd5b5050505050505050611bd9565b6001600160a01b0380831660009081526007602090815260408083205481516318160ddd60e01b8152915194169384926318160ddd9260048082019391829003018186803b158015611a6657600080fd5b505afa158015611a7a573d6000803e3d6000fd5b505050506040513d601f19601f82011682018060405250810190611a9e91906126da565b6001600160a01b03851660009081526004602052604090205490915081611b24576040516340c10f1960e01b81526001600160a01b038416906340c10f1990611aed9033908a906004016128d0565b600060405180830381600087803b158015611b0757600080fd5b505af1158015611b1b573d6000803e3d6000fd5b50505050611b99565b6000611b3482610c878986611d0d565b6040516340c10f1960e01b81529091506001600160a01b038516906340c10f1990611b6590339085906004016128d0565b600060405180830381600087803b158015611b7f57600080fd5b505af1158015611b93573d6000803e3d6000fd5b50505050505b6001600160a01b038516600090815260046020526040902054611bbc9087611fcc565b6001600160a01b0386166000908152600460205260409020555050505b611be233611140565b611c2957600a80546001810182556000919091527fc65a7bb8d6351c1cf70c95a316cc6a92839c986682d98bc35f958f4883f9d2a80180546001600160a01b031916331790555b505050565b3390565b60608180611c595750506040805180820190915260018152600360fc1b6020820152610571565b8060005b8115611c7157600101600a82049150611c5d565b60608167ffffffffffffffff81118015611c8a57600080fd5b506040519080825280601f01601f191660200182016040528015611cb5576020820181803683370190505b50905060001982015b8415611d0357600a850660300160f81b82828060019003935081518110611ce157fe5b60200101906001600160f81b031916908160001a905350600a85049450611cbe565b5095945050505050565b600082611d1c57506000611d4a565b82820282848281611d2957fe5b0414611d475760405162461bcd60e51b81526004016105b490612c6e565b90505b92915050565b6000611d4783836040518060400160405280601a81526020017f536166654d6174683a206469766973696f6e206279207a65726f00000000000081525061229f565b611c298363a9059cbb60e01b8484604051602401611db19291906128d0565b60408051601f198184030181529190526020810180516001600160e01b03166001600160e01b0319909316929092179091526122d6565b80611df2816113ad565b1515600114611e135760405162461bcd60e51b81526004016105b490612caf565b6001600160a01b03821660009081526004602090815260408083205460059092529091205480611e438387611ff1565b1015611e615760405162461bcd60e51b81526004016105b490612be1565b6001600160a01b0380851660009081526007602090815260408083205481516318160ddd60e01b8152915194169384926318160ddd9260048082019391829003018186803b158015611eb257600080fd5b505afa158015611ec6573d6000803e3d6000fd5b505050506040513d601f19601f82011682018060405250810190611eea91906126da565b6001600160a01b038716600090815260046020526040812054919250611f1482610c878b86611d0d565b60405163079cc67960e41b81529091506001600160a01b038516906379cc679090611f4590339085906004016128d0565b600060405180830381600087803b158015611f5f57600080fd5b505af1158015611f73573d6000803e3d6000fd5b5050506001600160a01b038916600090815260046020526040902054611f9a91508a611ff1565b6001600160a01b038916600081815260046020526040902091909155611fc190338b611d92565b505050505050505050565b600082820183811015611d475760405162461bcd60e51b81526004016105b490612a8a565b6000611d4783836040518060400160405280601e81526020017f536166654d6174683a207375627472616374696f6e206f766572666c6f770000815250612365565b60005b600c54811015612176576000600c828154811061204f57fe5b60009182526020808320909101546001600160a01b0316808352600590915260408220549092509061208585610c878489611d0d565b6001600160a01b0384166000908152600560205260409020549091506120ab9082611ff1565b6001600160a01b03808516600081815260056020526040902092909255600b541614156120ed5760006120dd82612391565b90506120e98282611ff1565b9150505b6001600160a01b0383166000908152600460205260409020546121109082611fcc565b6001600160a01b0384166000818152600460205260409081902092909255905188907f3173c1c4b679e2da86dbb0382bde749a6e16cd31912c5410e17985cd7d2b905290612163908a908a908790612f24565b60405180910390a3505050600101612036565b5061219181610c876121888286611ff1565b60085490611d0d565b600855505050565b60005b600c54811015610f18576000600c82815481106121b557fe5b60009182526020808320909101546001600160a01b0316808352600582526040808420546004909352909220549192509081906121f29082611ff1565b6001600160a01b03808516600081815260046020526040902092909255600b5416141561223457600061222482612391565b90506122308282611ff1565b9150505b6001600160a01b0383166000908152600560205260409020546122579082611fcc565b6001600160a01b03909316600090815260056020526040902092909255505060010161219c565b6106ef846323b872dd60e01b858585604051602401611db1939291906128e9565b600081836122c05760405162461bcd60e51b81526004016105b49190612952565b5060008385816122cc57fe5b0495945050505050565b606061232b826040518060400160405280602081526020017f5361666545524332303a206c6f772d6c6576656c2063616c6c206661696c6564815250856001600160a01b03166124c39092919063ffffffff16565b805190915015611c2957808060200190518101906123499190612607565b611c295760405162461bcd60e51b81526004016105b490612e61565b600081848411156123895760405162461bcd60e51b81526004016105b49190612952565b505050900390565b60408051808201909152600d8082526c6275726e2875696e743235362960981b602090920191909152546000907f42966c689b5afe9b9b3f8a7103b2a19980d59629bfd6a20a60972312ed41d836906123f3906103e890610c87908690611d0d565b600b546040519193506000916001600160a01b0390911690839061241b908690602401612918565b60408051601f198184030181529181526020820180516001600160e01b03166001600160e01b03199094169390931790925290516124599190612791565b6000604051808303816000865af19150503d8060008114612496576040519150601f19603f3d011682016040523d82523d6000602084013e61249b565b606091505b50509050806124bc5760405162461bcd60e51b81526004016105b490612c2a565b5050919050565b60606124d284846000856124da565b949350505050565b60606124e58561259e565b6125015760405162461bcd60e51b81526004016105b490612d87565b60006060866001600160a01b0316858760405161251e9190612791565b60006040518083038185875af1925050503d806000811461255b576040519150601f19603f3d011682016040523d82523d6000602084013e612560565b606091505b509150915081156125745791506124d29050565b8051156125845780518082602001fd5b8360405162461bcd60e51b81526004016105b49190612952565b3b151590565b6000602082840312156125b5578081fd5b8135611d4781612f71565b6000602082840312156125d1578081fd5b8151611d4781612f71565b600080604083850312156125ee578081fd5b82356125f981612f71565b946020939093013593505050565b600060208284031215612618578081fd5b81518015158114611d47578182fd5b600060208284031215612638578081fd5b815167ffffffffffffffff8082111561264f578283fd5b818401915084601f830112612662578283fd5b815181811115612670578384fd5b604051601f8201601f191681016020018381118282101715612690578586fd5b6040528181528382016020018710156126a7578485fd5b6126b8826020830160208701612f45565b9695505050505050565b6000602082840312156126d3578081fd5b5035919050565b6000602082840312156126eb578081fd5b5051919050565b60008060408385031215612704578182fd5b82359150602083013561271681612f71565b809150509250929050565b60008060408385031215612733578182fd5b50508035926020909101359150565b60008060408385031215612754578182fd5b505080516020909101519092909150565b6000815180845261277d816020860160208601612f45565b601f01601f19169290920160200192915050565b600082516127a3818460208701612f45565b9190910192915050565b600061647560f01b825283516127ca816002850160208801612f45565b602d60f81b60029184019182015283516127eb816003840160208801612f45565b01600301949350505050565b60006d44534c412d50524f56494445522d60901b8252835161282081600e850160208801612f45565b602d60f81b600e91840191820152835161284181600f840160208801612f45565b01600f01949350505050565b600061064760f41b825283516127ca816002850160208801612f45565b60006944534c412d555345522d60b01b8252835161288f81600a850160208801612f45565b602d60f81b600a9184019182015283516128b081600b840160208801612f45565b01600b01949350505050565b6001600160a01b0391909116815260200190565b6001600160a01b03929092168252602082015260400190565b6001600160a01b039384168152919092166020820152604081019190915260600190565b901515815260200190565b90815260200190565b6020810161292e83612f3a565b825292915050565b6040810161294384612f3a565b82528260208301529392505050565b600060208252611d476020830184612765565b6000604082526129786040830185612765565b828103602084015261298a8185612765565b95945050505050565b602080825260189082015277155cd95c88185b1c9958591e481dda1a5d195b1a5cdd195960421b604082015260600190565b60208082526059908201527f43616e206f6e6c79207769746864726177207374616b6520616674657220746860408201527f652066696e616c20706572696f642069732066696e6973686564206f72206966606082015278081d1a194818dbdb9d1c9858dd081a5cc8189c995858da1959603a1b608082015260a00190565b60208082526026908201527f4f776e61626c653a206e6577206f776e657220697320746865207a65726f206160408201526564647265737360d01b606082015260800190565b6020808252601b908201527f536166654d6174683a206164646974696f6e206f766572666c6f770000000000604082015260600190565b6020808252602d908201527f546f6b656e206e6f7420616c6c6f7765642062792074686520534c415265676960408201526c1cdd1c9e4818dbdb9d1c9858dd609a1b606082015260800190565b60208082526025908201527f4f6e6c79204d657373656e6765722063616e2063616c6c20746869732066756e60408201526431ba34b7b760d91b606082015260800190565b6020808252603a908201527f43616e206f6e6c7920636c61696d206120636f6d70656e736174696f6e20696660408201527f20706f736974696f6e20697320626967676572207468616e2030000000000000606082015260800190565b602080825260179082015276155cd95c881a5cc81b9bdd081dda1a5d195b1a5cdd1959604a1b604082015260600190565b60208082526029908201527f53686f756c64206e6f74207769746864726177206d6f7265207468616e207573604082015268657273207374616b6560b81b606082015260800190565b60208082526024908201527f44534c41206275726e2070726f6365737320776173206e6f74207375636365736040820152631cd99d5b60e21b606082015260800190565b60208082526021908201527f536166654d6174683a206d756c7469706c69636174696f6e206f766572666c6f6040820152607760f81b606082015260800190565b6020808252601490820152731d1bdad95b881a5cc81b9bdd08185b1b1bddd95960621b604082015260600190565b6020808252818101527f4f776e61626c653a2063616c6c6572206973206e6f7420746865206f776e6572604082015260600190565b60208082526028908201527f43616e206f6e6c79207374616b65206f6e206e6f7420627265616368656420636040820152676f6e74726163747360c01b606082015260800190565b602080825260139082015272151bdad95b88185b1c9958591e481859191959606a1b604082015260600190565b6020808252601d908201527f416464726573733a2063616c6c20746f206e6f6e2d636f6e7472616374000000604082015260600190565b6020808252601290820152710616d6f756e742063616e6e6f7420626520360741b604082015260600190565b602080825260149082015273155cd95c881b9bdd081dda1a5d195b1a5cdd195960621b604082015260600190565b60208082526029908201527f43616e6e6f74207374616b65206d6f7265207468616e20534c412070726f7669604082015268646572207374616b6560b81b606082015260800190565b6020808252602a908201527f5361666545524332303a204552433230206f7065726174696f6e20646964206e6040820152691bdd081cdd58d8d9595960b21b606082015260800190565b60208082526025908201527f53686f756c64206e6f742062652063616c6c65642062792074686520534c412060408201526437bbb732b960d91b606082015260800190565b918252602082015260400190565b838152602081018390526060810160038310612f1657fe5b826040830152949350505050565b9283526020830191909152604082015260600190565b806006811061057157fe5b60005b83811015612f60578181015183820152602001612f48565b838111156106ef5750506000910152565b6001600160a01b0381168114610f1857600080fdfea2646970667358221220fefd194641d4f0d189c1f637697511a2c97001eab9bb325113f464e6fa5b8a2764736f6c634300060c00338be0079c531659141344cd1fd0a4f28419497f9722a3daafe3b4186f6b6457e0",
  "immutableReferences": {},
  "source": "// SPDX-License-Identifier: MIT\npragma solidity ^0.6.0;\npragma experimental ABIEncoderV2;\n\nimport \"@openzeppelin/contracts/access/Ownable.sol\";\nimport \"@openzeppelin/contracts/token/ERC20/IERC20.sol\";\nimport \"@openzeppelin/contracts/math/SafeMath.sol\";\nimport \"./SLO.sol\";\nimport \"./SLARegistry.sol\";\nimport \"./StakeRegistry.sol\";\nimport \"./PeriodRegistry.sol\";\nimport \"./Staking.sol\";\n\n/**\n * @title SLA\n * @dev SLA is a service level agreement contract used for service downtime\n * compensation\n */\ncontract SLA is Staking {\n    using SafeMath for uint256;\n\n    enum Status {NotVerified, Respected, NotRespected}\n\n    /// @dev Struct used for storing period status\n    struct PeriodSLI {\n        uint256 timestamp;\n        uint256 sli;\n        Status status;\n    }\n\n    /// @dev address of the SLO\n    SLO public slo;\n\n    /// @dev The ipfs hash that stores extra information about the agreement\n    string public ipfsHash;\n\n    /// @dev uint8 of the period type\n    PeriodRegistry.PeriodType public periodType;\n\n    PeriodRegistry public periodRegistry;\n\n    /// @dev array of he allowed canonical period ids\n    uint256[] public periodIds;\n\n    /// @dev The address of the slaRegistry contract\n    SLARegistry public slaRegistry;\n\n    /// @dev The address of the messenger\n    address public messengerAddress;\n\n    /// @dev states if the contract was breached or not\n    bool private _breachedContract = false;\n\n    /// @dev periodId=>PeriodSLI mapping\n    mapping(uint256 => PeriodSLI) public periodSLIs;\n\n    /// @dev block number of SLA deployment\n    uint256 public creationBlockNumber;\n\n    /// @dev extra data for customized workflows\n    bytes32[] public extraData;\n\n    /// @dev states if the contract was breached or not\n    uint256 public nextVerifiablePeriod;\n\n    /**\n     * @dev event for SLI creation logging\n     * @param timestamp 1. the time the SLI has been registered\n     * @param sli 2. the value of the SLI\n     * @param periodId 3. the id of the given period\n     */\n    event SLICreated(uint256 timestamp, uint256 sli, uint256 periodId);\n\n    /**\n     * @dev event for SLI creation logging\n     * @param _periodId 1. the id of the given period\n     * @param _sli 2. value of the SLI\n     */\n    event SLANotRespected(uint256 _periodId, uint256 _sli);\n\n    /**\n     * @dev throws if called by any address other than the messenger contract.\n     */\n    modifier onlyMessenger() {\n        require(\n            msg.sender == messengerAddress,\n            \"Only Messenger can call this function\"\n        );\n        _;\n    }\n\n    /**\n     * @dev throws if called by any address other than the messenger contract.\n     */\n    modifier onlySLARegistry() {\n        require(\n            msg.sender == address(slaRegistry),\n            \"Only SLARegistry can call this function\"\n        );\n        _;\n    }\n\n    /**\n     * @param _owner 1. address of the owner of the service level agreement\n     * @param _SLO 2. address of the SLO\n     * @param _ipfsHash 3. string with the ipfs hash that contains SLA information\n     * @param _periodIds 4. id of the allowed canonical periods\n     * @param _periodType 5. period type of the SLA contract\n     * @param _stakeRegistry 6. stakeRegistry address\n     * @param _periodRegistry 7. periodRegistry address\n     * @param _whitelisted 8. boolean to declare whitelisted contracts\n     * @param _extraData 9. array of bytes32 to store extra data on deployment time\n     * @param _slaID 10. identifies the SLA to uniquely to emit dTokens\n     */\n    constructor(\n        address _owner,\n        SLO _SLO,\n        string memory _ipfsHash,\n        address _messengerAddress,\n        uint256[] memory _periodIds,\n        PeriodRegistry.PeriodType _periodType,\n        address _stakeRegistry,\n        address _periodRegistry,\n        bool _whitelisted,\n        bytes32[] memory _extraData,\n        uint256 _slaID\n    )\n        public\n        Staking(\n            _stakeRegistry,\n            _periodRegistry,\n            _periodType,\n            _periodIds.length,\n            _whitelisted,\n            _slaID\n        )\n    {\n        transferOwnership(_owner);\n        ipfsHash = _ipfsHash;\n        messengerAddress = _messengerAddress;\n        slaRegistry = SLARegistry(msg.sender);\n        periodRegistry = PeriodRegistry(_periodRegistry);\n        creationBlockNumber = block.number;\n        periodIds = _periodIds;\n        periodType = _periodType;\n        slo = _SLO;\n        extraData = _extraData;\n        nextVerifiablePeriod = _periodIds[0];\n    }\n\n    /**\n     * @dev external function to register SLI's and check them against the SLO's\n     * @param _sli 1. the value of the SLI to check\n     * @param _periodId 2. the id of the given period\n     */\n    function registerSLI(uint256 _sli, uint256 _periodId)\n        external\n        onlyMessenger\n    {\n        emit SLICreated(block.timestamp, _sli, _periodId);\n        nextVerifiablePeriod = _periodId + 1;\n        PeriodSLI storage periodSLI = periodSLIs[_periodId];\n        periodSLI.sli = _sli;\n        periodSLI.timestamp = block.timestamp;\n        uint256 sloValue = slo.value();\n        if (slo.isRespected(_sli)) {\n            periodSLI.status = Status.Respected;\n            uint256 precision = 10000;\n            // deviation = (sli-slo)*precision/((sli+slo)/2)\n            uint256 deviation =\n                _sli.sub(sloValue).mul(precision).div(\n                    _sli.add(sloValue).div(2)\n                );\n            // to get the reward formula, we get the periodId but respecting to the SLA\n            // because _periodId is the periodId of the platform\n            // e.g. if periodIds = 7,8,9,10, normalized periods are = 1,2,3,4\n            uint256 normalizedPeriodId = _periodId.sub(periodIds[0]).add(1);\n\n            // if is the last period, then deliver the whole usersStake to the provider\n            uint256 rewardPercentage =\n                _periodId != periodIds[periodIds.length - 1]\n                    ? deviation.mul(normalizedPeriodId).div(periodIds.length)\n                    : uint256(1).mul(precision);\n            _setRespectedPeriodReward(_periodId, rewardPercentage, precision);\n        } else {\n            periodSLI.status = Status.NotRespected;\n            _setUsersCompensation();\n            _breachedContract = true;\n            emit SLANotRespected(_periodId, _sli);\n        }\n    }\n\n    function isAllowedPeriod(uint256 _periodId) public view returns (bool) {\n        for (uint256 index = 0; index < periodIds.length; index++) {\n            if (periodIds[index] == _periodId) {\n                return true;\n            }\n        }\n        return false;\n    }\n\n    /**\n     *@dev stake _amount tokens into the _token contract\n     *@param _amount 1. amount to be staked\n     *@param _token 2. address of the ERC to be staked\n     */\n\n    function stakeTokens(uint256 _amount, address _token) public {\n        require(_amount > 0, \"amount cannot be 0\");\n        require(\n            _breachedContract == false,\n            \"Can only stake on not breached contracts\"\n        );\n        _stake(_amount, _token);\n        StakeRegistry stakeRegistry = slaRegistry.stakeRegistry();\n        stakeRegistry.registerStakedSla(msg.sender);\n    }\n\n    /**\n     *@dev withdraw _amount tokens from the _token contract\n     *@param _amount 1. amount to be staked\n     *@param _tokenAddress 2. address of the ERC to be staked\n     */\n\n    function withdrawStakedTokens(uint256 _amount, address _tokenAddress)\n        public\n    {\n        require(_amount > 0, \"amount cannot be 0\");\n        uint256 lastValidPeriodId = periodIds[periodIds.length - 1];\n        (, uint256 endOfLastValidPeriod) =\n            periodRegistry.getPeriodStartAndEnd(periodType, lastValidPeriodId);\n        // users can withdraw only if the contract is breached\n        // or if the last period is finished and the period status was verified\n        if (msg.sender != owner()) {\n            require(\n                _breachedContract == true ||\n                    (block.timestamp >= endOfLastValidPeriod &&\n                        periodSLIs[lastValidPeriodId].status !=\n                        Status.NotVerified),\n                \"Can only withdraw stake after the final period is finished or if the contract is breached\"\n            );\n        }\n        _withdraw(_amount, _tokenAddress);\n    }\n\n    /**\n     *@dev withdraw provider reward of a given token address\n     *@param _tokenAddress 1. address of the token to withdraw rewards\n     */\n\n    function claimUserCompensation(address _tokenAddress) public {\n        _claimCompensation(_tokenAddress);\n    }\n\n    function getPeriodIdsLength() public view returns (uint256) {\n        return periodIds.length;\n    }\n\n    function getStakersLength() public view returns (uint256) {\n        return stakers.length;\n    }\n\n    function breachedContract() public view returns (bool) {\n        return _breachedContract;\n    }\n}\n",
  "sourcePath": "/Users/matiasbn/Desktop/stacktical/stacktical-dsla-contracts/contracts/SLA.sol",
  "compiler": {
    "name": "solc",
    "version": "0.6.12+commit.27d51765.Emscripten.clang"
  },
  "schemaVersion": "3.3.3",
  "updatedAt": "2021-03-08T16:31:16.202Z",
  "networkType": "ethereum",
  "devdoc": {
    "details": "SLA is a service level agreement contract used for service downtime compensation",
    "events": {
      "SLANotRespected(uint256,uint256)": {
        "details": "event for SLI creation logging",
        "params": {
          "_periodId": "1. the id of the given period",
          "_sli": "2. value of the SLI"
        }
      },
      "SLICreated(uint256,uint256,uint256)": {
        "details": "event for SLI creation logging",
        "params": {
          "periodId": "3. the id of the given period",
          "sli": "2. the value of the SLI",
          "timestamp": "1. the time the SLI has been registered"
        }
      }
    },
    "kind": "dev",
    "methods": {
      "_claimCompensation(address)": {
        "details": "claim user compensation. Transfers both the compensation and the user remaining stake.",
        "params": {
          "_tokenAddress": "1. address of the token to claim compensation"
        }
      },
      "addAllowedTokens(address)": {
        "details": "add a token to ve allowed for staking",
        "params": {
          "_tokenAddress": "1. address of the new allowed token"
        }
      },
      "claimUserCompensation(address)": {
        "details": "withdraw provider reward of a given token address",
        "params": {
          "_tokenAddress": "1. address of the token to withdraw rewards"
        }
      },
      "constructor": {
        "params": {
          "_SLO": "2. address of the SLO",
          "_extraData": "9. array of bytes32 to store extra data on deployment time",
          "_ipfsHash": "3. string with the ipfs hash that contains SLA information",
          "_owner": "1. address of the owner of the service level agreement",
          "_periodIds": "4. id of the allowed canonical periods",
          "_periodRegistry": "7. periodRegistry address",
          "_periodType": "5. period type of the SLA contract",
          "_slaID": "10. identifies the SLA to uniquely to emit dTokens",
          "_stakeRegistry": "6. stakeRegistry address",
          "_whitelisted": "8. boolean to declare whitelisted contracts"
        }
      },
      "getAllowedTokensLength()": {
        "details": "use this function to evaluate the length of the allowed tokens length",
        "returns": {
          "_0": "allowedTokens.length"
        }
      },
      "isAllowedToken(address)": {
        "details": "checks in the allowedTokens array if there's a token with _tokenAddress value",
        "params": {
          "_tokenAddress": "1. token address to check exixtence"
        },
        "returns": {
          "_0": "true if _tokenAddress exists in the allowedTokens array"
        }
      },
      "isStaker(address)": {
        "details": "returns true if the _staker address is registered as staker",
        "params": {
          "_staker": "1. staker address"
        },
        "returns": {
          "_0": "true if address is staker"
        }
      },
      "owner()": {
        "details": "Returns the address of the current owner."
      },
      "registerSLI(uint256,uint256)": {
        "details": "external function to register SLI's and check them against the SLO's",
        "params": {
          "_periodId": "2. the id of the given period",
          "_sli": "1. the value of the SLI to check"
        }
      },
      "renounceOwnership()": {
        "details": "Leaves the contract without owner. It will not be possible to call `onlyOwner` functions anymore. Can only be called by the current owner. NOTE: Renouncing ownership will leave the contract without an owner, thereby removing any functionality that is only available to the owner."
      },
      "stakeTokens(uint256,address)": {
        "details": "stake _amount tokens into the _token contract",
        "params": {
          "_amount": "1. amount to be staked",
          "_token": "2. address of the ERC to be staked"
        }
      },
      "transferOwnership(address)": {
        "details": "Transfers ownership of the contract to a new account (`newOwner`). Can only be called by the current owner."
      },
      "withdrawStakedTokens(uint256,address)": {
        "details": "withdraw _amount tokens from the _token contract",
        "params": {
          "_amount": "1. amount to be staked",
          "_tokenAddress": "2. address of the ERC to be staked"
        }
      }
    },
    "stateVariables": {
      "_breachedContract": {
        "details": "states if the contract was breached or not"
      },
      "creationBlockNumber": {
        "details": "block number of SLA deployment"
      },
      "extraData": {
        "details": "extra data for customized workflows"
      },
      "ipfsHash": {
        "details": "The ipfs hash that stores extra information about the agreement"
      },
      "messengerAddress": {
        "details": "The address of the messenger"
      },
      "nextVerifiablePeriod": {
        "details": "states if the contract was breached or not"
      },
      "periodIds": {
        "details": "array of he allowed canonical period ids"
      },
      "periodSLIs": {
        "details": "periodId=>PeriodSLI mapping"
      },
      "periodType": {
        "details": "uint8 of the period type"
      },
      "slaRegistry": {
        "details": "The address of the slaRegistry contract"
      },
      "slo": {
        "details": "address of the SLO"
      }
    },
    "title": "SLA",
    "version": 1
  },
  "userdoc": {
    "kind": "user",
    "methods": {
      "_claimCompensation(address)": {
        "notice": "it uses the user position and the user total position per token to check the proportion of the compensation pool that corresponds to every user"
      }
    },
    "version": 1
  }
}