{
  "contractName": "SLA",
  "abi": [
    {
      "inputs": [
        {
          "internalType": "address",
          "name": "_owner",
          "type": "address"
        },
        {
          "internalType": "contract SLO",
          "name": "_SLO",
          "type": "address"
        },
        {
          "internalType": "string",
          "name": "_ipfsHash",
          "type": "string"
        },
        {
          "internalType": "address",
          "name": "_messengerAddress",
          "type": "address"
        },
        {
          "internalType": "uint256[]",
          "name": "_periodIds",
          "type": "uint256[]"
        },
        {
          "internalType": "enum PeriodRegistry.PeriodType",
          "name": "_periodType",
          "type": "uint8"
        },
        {
          "internalType": "address",
          "name": "_stakeRegistry",
          "type": "address"
        },
        {
          "internalType": "address",
          "name": "_periodRegistry",
          "type": "address"
        },
        {
          "internalType": "bool",
          "name": "_whitelisted",
          "type": "bool"
        },
        {
          "internalType": "bytes32[]",
          "name": "_extraData",
          "type": "bytes32[]"
        },
        {
          "internalType": "uint256",
          "name": "_slaID",
          "type": "uint256"
        }
      ],
      "stateMutability": "nonpayable",
      "type": "constructor"
    },
    {
      "anonymous": false,
      "inputs": [
        {
          "indexed": true,
          "internalType": "address",
          "name": "previousOwner",
          "type": "address"
        },
        {
          "indexed": true,
          "internalType": "address",
          "name": "newOwner",
          "type": "address"
        }
      ],
      "name": "OwnershipTransferred",
      "type": "event"
    },
    {
      "anonymous": false,
      "inputs": [
        {
          "indexed": true,
          "internalType": "uint256",
          "name": "periodId",
          "type": "uint256"
        },
        {
          "indexed": true,
          "internalType": "address",
          "name": "tokenAddress",
          "type": "address"
        },
        {
          "indexed": false,
          "internalType": "uint256",
          "name": "rewardPercentage",
          "type": "uint256"
        },
        {
          "indexed": false,
          "internalType": "uint256",
          "name": "rewardPercentagePrecision",
          "type": "uint256"
        },
        {
          "indexed": false,
          "internalType": "uint256",
          "name": "rewardAmount",
          "type": "uint256"
        }
      ],
      "name": "ProviderRewardGenerated",
      "type": "event"
    },
    {
      "anonymous": false,
      "inputs": [
        {
          "indexed": false,
          "internalType": "uint256",
          "name": "_periodId",
          "type": "uint256"
        },
        {
          "indexed": false,
          "internalType": "uint256",
          "name": "_sli",
          "type": "uint256"
        }
      ],
      "name": "SLANotRespected",
      "type": "event"
    },
    {
      "anonymous": false,
      "inputs": [
        {
          "indexed": false,
          "internalType": "uint256",
          "name": "timestamp",
          "type": "uint256"
        },
        {
          "indexed": false,
          "internalType": "uint256",
          "name": "sli",
          "type": "uint256"
        },
        {
          "indexed": false,
          "internalType": "uint256",
          "name": "periodId",
          "type": "uint256"
        }
      ],
      "name": "SLICreated",
      "type": "event"
    },
    {
      "inputs": [],
      "name": "DSLAburnRate",
      "outputs": [
        {
          "internalType": "uint256",
          "name": "",
          "type": "uint256"
        }
      ],
      "stateMutability": "view",
      "type": "function",
      "constant": true
    },
    {
      "inputs": [
        {
          "internalType": "address",
          "name": "_tokenAddress",
          "type": "address"
        }
      ],
      "name": "addAllowedTokens",
      "outputs": [],
      "stateMutability": "nonpayable",
      "type": "function"
    },
    {
      "inputs": [
        {
          "internalType": "address[]",
          "name": "_userAddresses",
          "type": "address[]"
        }
      ],
      "name": "addMultipleUsersToWhitelist",
      "outputs": [],
      "stateMutability": "nonpayable",
      "type": "function"
    },
    {
      "inputs": [
        {
          "internalType": "address",
          "name": "_userAddress",
          "type": "address"
        }
      ],
      "name": "addUserToWhitelist",
      "outputs": [],
      "stateMutability": "nonpayable",
      "type": "function"
    },
    {
      "inputs": [
        {
          "internalType": "uint256",
          "name": "",
          "type": "uint256"
        }
      ],
      "name": "allowedTokens",
      "outputs": [
        {
          "internalType": "address",
          "name": "",
          "type": "address"
        }
      ],
      "stateMutability": "view",
      "type": "function",
      "constant": true
    },
    {
      "inputs": [],
      "name": "creationBlockNumber",
      "outputs": [
        {
          "internalType": "uint256",
          "name": "",
          "type": "uint256"
        }
      ],
      "stateMutability": "view",
      "type": "function",
      "constant": true
    },
    {
      "inputs": [
        {
          "internalType": "address",
          "name": "",
          "type": "address"
        }
      ],
      "name": "dpTokenRegistry",
      "outputs": [
        {
          "internalType": "contract ERC20PresetMinterPauser",
          "name": "",
          "type": "address"
        }
      ],
      "stateMutability": "view",
      "type": "function",
      "constant": true
    },
    {
      "inputs": [],
      "name": "dslaTokenAddress",
      "outputs": [
        {
          "internalType": "address",
          "name": "",
          "type": "address"
        }
      ],
      "stateMutability": "view",
      "type": "function",
      "constant": true
    },
    {
      "inputs": [
        {
          "internalType": "address",
          "name": "",
          "type": "address"
        }
      ],
      "name": "duTokenRegistry",
      "outputs": [
        {
          "internalType": "contract ERC20PresetMinterPauser",
          "name": "",
          "type": "address"
        }
      ],
      "stateMutability": "view",
      "type": "function",
      "constant": true
    },
    {
      "inputs": [
        {
          "internalType": "uint256",
          "name": "",
          "type": "uint256"
        }
      ],
      "name": "extraData",
      "outputs": [
        {
          "internalType": "bytes32",
          "name": "",
          "type": "bytes32"
        }
      ],
      "stateMutability": "view",
      "type": "function",
      "constant": true
    },
    {
      "inputs": [],
      "name": "getAllowedTokensLength",
      "outputs": [
        {
          "internalType": "uint256",
          "name": "",
          "type": "uint256"
        }
      ],
      "stateMutability": "view",
      "type": "function",
      "constant": true
    },
    {
      "inputs": [
        {
          "internalType": "address",
          "name": "_staker",
          "type": "address"
        },
        {
          "internalType": "uint256",
          "name": "_allowedTokenIndex",
          "type": "uint256"
        }
      ],
      "name": "getTokenStake",
      "outputs": [
        {
          "internalType": "address",
          "name": "tokenAddress",
          "type": "address"
        },
        {
          "internalType": "uint256",
          "name": "stake",
          "type": "uint256"
        }
      ],
      "stateMutability": "view",
      "type": "function",
      "constant": true
    },
    {
      "inputs": [],
      "name": "ipfsHash",
      "outputs": [
        {
          "internalType": "string",
          "name": "",
          "type": "string"
        }
      ],
      "stateMutability": "view",
      "type": "function",
      "constant": true
    },
    {
      "inputs": [
        {
          "internalType": "address",
          "name": "_tokenAddress",
          "type": "address"
        }
      ],
      "name": "isAllowedToken",
      "outputs": [
        {
          "internalType": "bool",
          "name": "",
          "type": "bool"
        }
      ],
      "stateMutability": "view",
      "type": "function",
      "constant": true
    },
    {
      "inputs": [
        {
          "internalType": "address",
          "name": "_staker",
          "type": "address"
        }
      ],
      "name": "isStaker",
      "outputs": [
        {
          "internalType": "bool",
          "name": "",
          "type": "bool"
        }
      ],
      "stateMutability": "view",
      "type": "function",
      "constant": true
    },
    {
      "inputs": [],
      "name": "messengerAddress",
      "outputs": [
        {
          "internalType": "address",
          "name": "",
          "type": "address"
        }
      ],
      "stateMutability": "view",
      "type": "function",
      "constant": true
    },
    {
      "inputs": [],
      "name": "nextVerifiablePeriod",
      "outputs": [
        {
          "internalType": "uint256",
          "name": "",
          "type": "uint256"
        }
      ],
      "stateMutability": "view",
      "type": "function",
      "constant": true
    },
    {
      "inputs": [],
      "name": "owner",
      "outputs": [
        {
          "internalType": "address",
          "name": "",
          "type": "address"
        }
      ],
      "stateMutability": "view",
      "type": "function",
      "constant": true
    },
    {
      "inputs": [
        {
          "internalType": "uint256",
          "name": "",
          "type": "uint256"
        }
      ],
      "name": "periodIds",
      "outputs": [
        {
          "internalType": "uint256",
          "name": "",
          "type": "uint256"
        }
      ],
      "stateMutability": "view",
      "type": "function",
      "constant": true
    },
    {
      "inputs": [],
      "name": "periodRegistry",
      "outputs": [
        {
          "internalType": "contract PeriodRegistry",
          "name": "",
          "type": "address"
        }
      ],
      "stateMutability": "view",
      "type": "function",
      "constant": true
    },
    {
      "inputs": [
        {
          "internalType": "uint256",
          "name": "",
          "type": "uint256"
        }
      ],
      "name": "periodSLIs",
      "outputs": [
        {
          "internalType": "uint256",
          "name": "timestamp",
          "type": "uint256"
        },
        {
          "internalType": "uint256",
          "name": "sli",
          "type": "uint256"
        },
        {
          "internalType": "enum SLA.Status",
          "name": "status",
          "type": "uint8"
        }
      ],
      "stateMutability": "view",
      "type": "function",
      "constant": true
    },
    {
      "inputs": [],
      "name": "periodType",
      "outputs": [
        {
          "internalType": "enum PeriodRegistry.PeriodType",
          "name": "",
          "type": "uint8"
        }
      ],
      "stateMutability": "view",
      "type": "function",
      "constant": true
    },
    {
      "inputs": [
        {
          "internalType": "address",
          "name": "",
          "type": "address"
        }
      ],
      "name": "providerPool",
      "outputs": [
        {
          "internalType": "uint256",
          "name": "",
          "type": "uint256"
        }
      ],
      "stateMutability": "view",
      "type": "function",
      "constant": true
    },
    {
      "inputs": [
        {
          "internalType": "address[]",
          "name": "_userAddresses",
          "type": "address[]"
        }
      ],
      "name": "removeMultipleUsersFromWhitelist",
      "outputs": [],
      "stateMutability": "nonpayable",
      "type": "function"
    },
    {
      "inputs": [
        {
          "internalType": "address",
          "name": "_userAddress",
          "type": "address"
        }
      ],
      "name": "removeUserFromWhitelist",
      "outputs": [],
      "stateMutability": "nonpayable",
      "type": "function"
    },
    {
      "inputs": [],
      "name": "renounceOwnership",
      "outputs": [],
      "stateMutability": "nonpayable",
      "type": "function"
    },
    {
      "inputs": [],
      "name": "slaID",
      "outputs": [
        {
          "internalType": "uint256",
          "name": "",
          "type": "uint256"
        }
      ],
      "stateMutability": "view",
      "type": "function",
      "constant": true
    },
    {
      "inputs": [],
      "name": "slaPeriodsLength",
      "outputs": [
        {
          "internalType": "uint256",
          "name": "",
          "type": "uint256"
        }
      ],
      "stateMutability": "view",
      "type": "function",
      "constant": true
    },
    {
      "inputs": [],
      "name": "slaRegistry",
      "outputs": [
        {
          "internalType": "contract SLARegistry",
          "name": "",
          "type": "address"
        }
      ],
      "stateMutability": "view",
      "type": "function",
      "constant": true
    },
    {
      "inputs": [],
      "name": "slo",
      "outputs": [
        {
          "internalType": "contract SLO",
          "name": "",
          "type": "address"
        }
      ],
      "stateMutability": "view",
      "type": "function",
      "constant": true
    },
    {
      "inputs": [
        {
          "internalType": "uint256",
          "name": "",
          "type": "uint256"
        }
      ],
      "name": "stakers",
      "outputs": [
        {
          "internalType": "address",
          "name": "",
          "type": "address"
        }
      ],
      "stateMutability": "view",
      "type": "function",
      "constant": true
    },
    {
      "inputs": [
        {
          "internalType": "address",
          "name": "newOwner",
          "type": "address"
        }
      ],
      "name": "transferOwnership",
      "outputs": [],
      "stateMutability": "nonpayable",
      "type": "function"
    },
    {
      "inputs": [
        {
          "internalType": "address",
          "name": "",
          "type": "address"
        }
      ],
      "name": "usersPool",
      "outputs": [
        {
          "internalType": "uint256",
          "name": "",
          "type": "uint256"
        }
      ],
      "stateMutability": "view",
      "type": "function",
      "constant": true
    },
    {
      "inputs": [
        {
          "internalType": "address",
          "name": "",
          "type": "address"
        }
      ],
      "name": "whitelist",
      "outputs": [
        {
          "internalType": "bool",
          "name": "",
          "type": "bool"
        }
      ],
      "stateMutability": "view",
      "type": "function",
      "constant": true
    },
    {
      "inputs": [],
      "name": "whitelistedContract",
      "outputs": [
        {
          "internalType": "bool",
          "name": "",
          "type": "bool"
        }
      ],
      "stateMutability": "view",
      "type": "function",
      "constant": true
    },
    {
      "inputs": [
        {
          "internalType": "uint256",
          "name": "_sli",
          "type": "uint256"
        },
        {
          "internalType": "uint256",
          "name": "_periodId",
          "type": "uint256"
        }
      ],
      "name": "registerSLI",
      "outputs": [],
      "stateMutability": "nonpayable",
      "type": "function"
    },
    {
      "inputs": [
        {
          "internalType": "uint256",
          "name": "_periodId",
          "type": "uint256"
        }
      ],
      "name": "isAllowedPeriod",
      "outputs": [
        {
          "internalType": "bool",
          "name": "",
          "type": "bool"
        }
      ],
      "stateMutability": "view",
      "type": "function",
      "constant": true
    },
    {
      "inputs": [
        {
          "internalType": "uint256",
          "name": "_amount",
          "type": "uint256"
        },
        {
          "internalType": "address",
          "name": "_token",
          "type": "address"
        }
      ],
      "name": "stakeTokens",
      "outputs": [],
      "stateMutability": "nonpayable",
      "type": "function"
    },
    {
      "inputs": [
        {
          "internalType": "uint256",
          "name": "_amount",
          "type": "uint256"
        },
        {
          "internalType": "address",
          "name": "_tokenAddress",
          "type": "address"
        }
      ],
      "name": "withdrawProviderTokens",
      "outputs": [],
      "stateMutability": "nonpayable",
      "type": "function"
    },
    {
      "inputs": [
        {
          "internalType": "uint256",
          "name": "_amount",
          "type": "uint256"
        },
        {
          "internalType": "address",
          "name": "_tokenAddress",
          "type": "address"
        }
      ],
      "name": "withdrawUserTokens",
      "outputs": [],
      "stateMutability": "nonpayable",
      "type": "function"
    },
    {
      "inputs": [],
      "name": "getPeriodIdsLength",
      "outputs": [
        {
          "internalType": "uint256",
          "name": "",
          "type": "uint256"
        }
      ],
      "stateMutability": "view",
      "type": "function",
      "constant": true
    },
    {
      "inputs": [],
      "name": "getStakersLength",
      "outputs": [
        {
          "internalType": "uint256",
          "name": "",
          "type": "uint256"
        }
      ],
      "stateMutability": "view",
      "type": "function",
      "constant": true
    },
    {
      "inputs": [],
      "name": "breachedContract",
      "outputs": [
        {
          "internalType": "bool",
          "name": "",
          "type": "bool"
        }
      ],
      "stateMutability": "view",
      "type": "function",
      "constant": true
    }
  ],
  "bytecode": "0x60806040526015805460ff60a01b191690553480156200001e57600080fd5b5060405162003dff38038062003dff8339810160408190526200004191620006ed565b8484878951868560006200005a6200034860201b60201c565b600080546001600160a01b0319166001600160a01b03831690811782556040519293509160008051602062003ddf833981519152908290a350600180546001600160a01b038089166001600160a01b03199283161783556002805491891691909216179055600c8054869260ff1990911690836005811115620000d957fe5b0217905550600d839055600e805460ff191683151517905560015460408051637b8041cf60e11b815290516000926001600160a01b03169163f700839e9160048083019260c0929190829003018186803b1580156200013757600080fd5b505afa1580156200014c573d6000803e3d6000fd5b505050506040513d601f19601f820116820180604052508101906200017291906200081e565b50505050509050600160009054906101000a90046001600160a01b03166001600160a01b0316638b8e53096040518163ffffffff1660e01b815260040160206040518083038186803b158015620001c857600080fd5b505afa158015620001dd573d6000803e3d6000fd5b505050506040513d601f19601f82011682018060405250810190620002039190620006c7565b600980546001600160a01b0319166001600160a01b0392909216919091179055600b81905562000233336200034d565b50600355506200025393508e9250506001600160e01b03620003f9169050565b8851620002689060119060208c0190620004af565b50601580546001600160a01b03808b166001600160a01b03199283161790925560148054909116331790556012805491861661010002610100600160a81b0319909216919091179055436017558651620002ca9060139060208a019062000534565b506012805487919060ff19166001836005811115620002e557fe5b0217905550601080546001600160a01b0319166001600160a01b038c1617905581516200031a90601890602085019062000534565b50866000815181106200032957fe5b602002602001015160198190555050505050505050505050506200097a565b335b90565b620003606001600160e01b036200034816565b6000546001600160a01b03908116911614620003995760405162461bcd60e51b81526004016200039090620008e5565b60405180910390fd5b6001600160a01b0381166000908152600f602052604090205460ff1615620003d55760405162461bcd60e51b8152600401620003909062000868565b6001600160a01b03166000908152600f60205260409020805460ff19166001179055565b6200040c6001600160e01b036200034816565b6000546001600160a01b039081169116146200043c5760405162461bcd60e51b81526004016200039090620008e5565b6001600160a01b038116620004655760405162461bcd60e51b815260040162000390906200089f565b600080546040516001600160a01b038085169392169160008051602062003ddf83398151915291a3600080546001600160a01b0319166001600160a01b0392909216919091179055565b828054600181600116156101000203166002900490600052602060002090601f016020900481019282601f10620004f257805160ff191683800117855562000522565b8280016001018555821562000522579182015b828111156200052257825182559160200191906001019062000505565b506200053092915062000571565b5090565b8280548282559060005260206000209081019282156200052257916020028201828111156200052257825182559160200191906001019062000505565b6200034a91905b8082111562000530576000815560010162000578565b80516200059b8162000961565b92915050565b600082601f830112620005b2578081fd5b8151620005c9620005c38262000941565b6200091a565b818152915060208083019084810181840286018201871015620005eb57600080fd5b60005b848110156200060c57815184529282019290820190600101620005ee565b505050505092915050565b805180151581146200059b57600080fd5b8051600681106200059b57600080fd5b600082601f83011262000649578081fd5b81516001600160401b038111156200065f578182fd5b602062000675601f8301601f191682016200091a565b925081835284818386010111156200068c57600080fd5b60005b82811015620006ac5784810182015184820183015281016200068f565b82811115620006be5760008284860101525b50505092915050565b600060208284031215620006d9578081fd5b8151620006e68162000961565b9392505050565b60008060008060008060008060008060006101608c8e0312156200070f578687fd5b6200071b8d8d6200058e565b9a506200072c8d60208e016200058e565b60408d0151909a506001600160401b0381111562000748578788fd5b620007568e828f0162000638565b995050620007688d60608e016200058e565b60808d01519098506001600160401b0381111562000784578788fd5b620007928e828f01620005a1565b975050620007a48d60a08e0162000628565b9550620007b58d60c08e016200058e565b9450620007c68d60e08e016200058e565b9350620007d88d6101008e0162000617565b6101208d01519093506001600160401b03811115620007f5578283fd5b620008038e828f01620005a1565b9250506101408c015190509295989b509295989b9093969950565b60008060008060008060c0878903121562000837578182fd5b865195506020870151945060408701519350606087015192506080870151915060a087015190509295509295509295565b60208082526018908201527f5573657220616c72656164792077686974656c69737465640000000000000000604082015260600190565b60208082526026908201527f4f776e61626c653a206e6577206f776e657220697320746865207a65726f206160408201526564647265737360d01b606082015260800190565b6020808252818101527f4f776e61626c653a2063616c6c6572206973206e6f7420746865206f776e6572604082015260600190565b6040518181016001600160401b03811182821017156200093957600080fd5b604052919050565b60006001600160401b0382111562000957578081fd5b5060209081020190565b6001600160a01b03811681146200097757600080fd5b50565b613455806200098a6000396000f3fe608060405234801561001057600080fd5b50600436106102695760003560e01c8063747b805011610151578063c623674f116100c3578063db69a46211610087578063db69a462146104e6578063f2db10fe146104ee578063f2fde38b146104f6578063f7e9dfff14610509578063f9902bb114610511578063fd5e6dd11461052457610269565b8063c623674f14610490578063c8b5c248146104a5578063cbe230c3146104b8578063cd92890e146104cb578063d7a5c422146104d357610269565b80639fabeb00116101155780639fabeb00146104555780639fc4caa51461045d578063a224ee9c14610465578063b1659bad1461046d578063b7bc347e14610475578063c26ff6151461047d57610269565b8063747b80501461040c57806378025ec41461041f5780637fd788aa146104325780638da5cb5b1461043a5780639b19251a1461044257610269565b8063484fbf2b116101ea5780635e5f2e26116101ae5780635e5f2e26146103b05780635fc1b5fd146103c3578063639b6fc3146103cb5780636f1e8533146103de578063715018a6146103f1578063740882ac146103f957610269565b8063484fbf2b146103415780634e0c91f6146103545780634fb2647e1461037457806357ac94f0146103875780635c1c20de146103a857610269565b806318e454271161023157806318e45427146102e75780631bf30929146102ef57806326db18ac146102f75780634190edde1461030a57806346e0fbae1461032c57610269565b8063021eef7f1461026e5780630ae9ea45146102975780630bea440d146102b75780630c5160f4146102cc578063171e44ea146102d4575b600080fd5b61028161027c366004612bb3565b610537565b60405161028e9190612e01565b60405180910390f35b6102aa6102a5366004612bb3565b610581565b60405161028e9190612e0c565b6102ca6102c5366004612be3565b61059f565b005b6102aa6107f9565b6102ca6102e2366004612a04565b6107ff565b610281610bc8565b6102aa610bd1565b6102ca610305366004612be3565b610bd7565b61031d610318366004612bb3565b610d3c565b60405161028e93929190613350565b610334610d60565b60405161028e9190612e15565b6102aa61034f366004612a04565b610d69565b610367610362366004612a04565b610d7b565b60405161028e9190612db0565b610367610382366004612a04565b610d96565b61039a610395366004612a3c565b610db1565b60405161028e929190612dc4565b6102aa610fa9565b6103676103be366004612bb3565b610faf565b6102aa610fd6565b6102aa6103d9366004612a04565b610fdc565b6102816103ec366004612a04565b610fee565b6102ca611040565b6102ca610407366004612a67565b6110bf565b6102ca61041a366004612a04565b611199565b6102aa61042d366004612bb3565b61122b565b610281611238565b610367611248565b610281610450366004612a04565b611257565b6102aa61126c565b610367611272565b610367611286565b6102aa611295565b6102aa61129b565b6102ca61048b366004612a67565b6112a1565b61049861137d565b60405161028e9190612e46565b6102ca6104b3366004612be3565b61140b565b6102816104c6366004612a04565b61153f565b610367611591565b6102ca6104e1366004612c12565b6115a0565b61036761184a565b6102aa611859565b6102ca610504366004612a04565b61185f565b610367611915565b6102ca61051f366004612a04565b611924565b610367610532366004612bb3565b6119b7565b6000805b60135481101561057657826013828154811061055357fe5b9060005260206000200154141561056e57600191505061057c565b60010161053b565b50600090505b919050565b6013818154811061058e57fe5b600091825260209091200154905081565b600082116105c85760405162461bcd60e51b81526004016105bf90613255565b60405180910390fd5b601380546000919060001981019081106105de57fe5b600091825260208220015460125460405160016259edcb60e01b031981529193506001600160a01b036101008204169163ffa61235916106289160ff909116908690600401612e2a565b604080518083038186803b15801561063f57600080fd5b505afa158015610653573d6000803e3d6000fd5b505050506040513d601f19601f820116820180604052508101906106779190612c33565b9150506000601560149054906101000a900460ff1615156001151514806106c857508142101580156106c85750600083815260166020526040812060029081015460ff16908111156106c557fe5b14155b905080156106e85760405162461bcd60e51b81526004016105bf906130c1565b6106f285856119c4565b60145460408051636830483560e01b815290516000926001600160a01b0316916368304835916004808301926020929190829003018186803b15801561073757600080fd5b505afa15801561074b573d6000803e3d6000fd5b505050506040513d601f19601f8201168201806040525081019061076f9190612a20565b604051635948284760e11b81529091506001600160a01b0382169063b290508e9061079e903390600401612db0565b602060405180830381600087803b1580156107b857600080fd5b505af11580156107cc573d6000803e3d6000fd5b505050506040513d601f19601f820116820180604052508101906107f09190612b07565b50505050505050565b600d5481565b610807611eba565b6000546001600160a01b039081169116146108345760405162461bcd60e51b81526004016105bf906131bc565b61083d8161153f565b1561085a5760405162461bcd60e51b81526004016105bf906131f1565b60015460405163cbe230c360e01b81526001600160a01b039091169063cbe230c39061088a908490600401612db0565b60206040518083038186803b1580156108a257600080fd5b505afa1580156108b6573d6000803e3d6000fd5b505050506040513d601f19601f820116820180604052508101906108da9190612b07565b15156001146108fb5760405162461bcd60e51b81526004016105bf90612fb5565b600a80546001810182556000919091527fc65a7bb8d6351c1cf70c95a316cc6a92839c986682d98bc35f958f4883f9d2a80180546001600160a01b0319166001600160a01b03831617905560035460609061095590611ebe565b90506060826001600160a01b03166395d89b416040518163ffffffff1660e01b815260040160006040518083038186803b15801561099257600080fd5b505afa1580156109a6573d6000803e3d6000fd5b505050506040513d6000823e601f3d908101601f191682016040526109ce9190810190612b27565b9050606081836040516020016109e5929190612d5d565b604051602081830303815290604052905060608284604051602001610a0b929190612c9e565b604051602081830303815290604052905060608385604051602001610a31929190612ce9565b604051602081830303815290604052905060608486604051602001610a57929190612d40565b60408051601f1981840301815290829052600154633350214760e11b83529092506000916001600160a01b03909116906366a0428e90610a9d9088908890600401612e59565b602060405180830381600087803b158015610ab757600080fd5b505af1158015610acb573d6000803e3d6000fd5b505050506040513d601f19601f82011682018060405250810190610aef9190612a20565b600154604051633350214760e11b81529192506000916001600160a01b03909116906366a0428e90610b279087908790600401612e59565b602060405180830381600087803b158015610b4157600080fd5b505af1158015610b55573d6000803e3d6000fd5b505050506040513d601f19601f82011682018060405250810190610b799190612a20565b6001600160a01b03998a1660009081526007602090815260408083208054948e166001600160a01b031995861617905560069091529020805493909a1692169190911790975550505050505050565b600e5460ff1681565b60175481565b60008211610bf75760405162461bcd60e51b81526004016105bf90613255565b60138054600091906000198101908110610c0d57fe5b600091825260208220015460125460405160016259edcb60e01b031981529193506001600160a01b036101008204169163ffa6123591610c579160ff909116908690600401612e2a565b604080518083038186803b158015610c6e57600080fd5b505afa158015610c82573d6000803e3d6000fd5b505050506040513d601f19601f82011682018060405250810190610ca69190612c33565b915050610cb1611248565b6001600160a01b0316336001600160a01b031614610d2c57601554600160a01b900460ff16151560011480610d105750804210158015610d105750600082815260166020526040812060029081015460ff1690811115610d0d57fe5b14155b610d2c5760405162461bcd60e51b81526004016105bf90612eb9565b610d368484611f99565b50505050565b60166020526000908152604090208054600182015460029092015490919060ff1683565b60125460ff1681565b60056020526000908152604090205481565b6006602052600090815260409020546001600160a01b031681565b6007602052600090815260409020546001600160a01b031681565b6000806000600a8481548110610dc357fe5b6000918252602090912001546001600160a01b03169050610de2611248565b6001600160a01b0316856001600160a01b03161415610e1e576001600160a01b0381166000908152600460205260409020549092509050610fa2565b6001600160a01b0380821660009081526006602090815260408083205481516318160ddd60e01b8152915194169384926318160ddd9260048082019391829003018186803b158015610e6f57600080fd5b505afa158015610e83573d6000803e3d6000fd5b505050506040513d601f19601f82011682018060405250810190610ea79190612bcb565b905080610ebd575090925060009150610fa29050565b6040516370a0823160e01b81526000906001600160a01b038416906370a0823190610eec908b90600401612db0565b60206040518083038186803b158015610f0457600080fd5b505afa158015610f18573d6000803e3d6000fd5b505050506040513d601f19601f82011682018060405250810190610f3c9190612bcb565b90506127106000610f6384610f57858563ffffffff61213616565b9063ffffffff61217916565b6001600160a01b0387166000908152600560205260409020549091508690610f97908490610f57908563ffffffff61213616565b975097505050505050505b9250929050565b600b5481565b600a8181548110610fbc57fe5b6000918252602090912001546001600160a01b0316905081565b60135490565b60046020526000908152604090205481565b6000805b60085481101561057657826001600160a01b03166008828154811061101357fe5b6000918252602090912001546001600160a01b0316141561103857600191505061057c565b600101610ff2565b611048611eba565b6000546001600160a01b039081169116146110755760405162461bcd60e51b81526004016105bf906131bc565b600080546040516001600160a01b03909116907f8be0079c531659141344cd1fd0a4f28419497f9722a3daafe3b4186f6b6457e0908390a3600080546001600160a01b0319169055565b6110c7611eba565b6000546001600160a01b039081169116146110f45760405162461bcd60e51b81526004016105bf906131bc565b60005b815181101561119557600f600083838151811061111057fe5b6020908102919091018101516001600160a01b031682528101919091526040016000205460ff1661118d576001600f600084848151811061114d57fe5b60200260200101516001600160a01b03166001600160a01b0316815260200190815260200160002060006101000a81548160ff0219169083151502179055505b6001016110f7565b5050565b6111a1611eba565b6000546001600160a01b039081169116146111ce5760405162461bcd60e51b81526004016105bf906131bc565b6001600160a01b0381166000908152600f602052604090205460ff16156112075760405162461bcd60e51b81526004016105bf90612e87565b6001600160a01b03166000908152600f60205260409020805460ff19166001179055565b6018818154811061058e57fe5b601554600160a01b900460ff1690565b6000546001600160a01b031690565b600f6020526000908152604090205460ff1681565b60085490565b60125461010090046001600160a01b031681565b6015546001600160a01b031681565b60195481565b600a5490565b6112a9611eba565b6000546001600160a01b039081169116146112d65760405162461bcd60e51b81526004016105bf906131bc565b60005b815181101561119557600f60008383815181106112f257fe5b6020908102919091018101516001600160a01b031682528101919091526040016000205460ff16151560011415611375576000600f600084848151811061133557fe5b60200260200101516001600160a01b03166001600160a01b0316815260200190815260200160002060006101000a81548160ff0219169083151502179055505b6001016112d9565b6011805460408051602060026001851615610100026000190190941693909304601f810184900484028201840190925281815292918301828280156114035780601f106113d857610100808354040283529160200191611403565b820191906000526020600020905b8154815290600101906020018083116113e657829003601f168201915b505050505081565b6000821161142b5760405162461bcd60e51b81526004016105bf90613255565b6013805460009190600019810190811061144157fe5b600091825260208220015460125460405160016259edcb60e01b031981529193506001600160a01b036101008204169163ffa612359161148b9160ff909116908690600401612e2a565b604080518083038186803b1580156114a257600080fd5b505afa1580156114b6573d6000803e3d6000fd5b505050506040513d601f19601f820116820180604052508101906114da9190612c33565b9150506000601560149054906101000a900460ff16151560011515148061152b575081421015801561152b5750600083815260166020526040812060029081015460ff169081111561152857fe5b14155b90506115388585836121bb565b5050505050565b6000805b600a5481101561057657826001600160a01b0316600a828154811061156457fe5b6000918252602090912001546001600160a01b0316141561158957600191505061057c565b600101611543565b6010546001600160a01b031681565b6015546001600160a01b031633146115ca5760405162461bcd60e51b81526004016105bf90613002565b7fc95987c1992805ee34bdc915e017cceae36ba1c156b9911fa7e691e6435eb46e4283836040516115fd93929190613376565b60405180910390a1600180820160195560008281526016602090815260408083209384018690554284556010548151633fa4f24560e01b815291516001600160a01b0390911692633fa4f2459260048082019391829003018186803b15801561166557600080fd5b505afa158015611679573d6000803e3d6000fd5b505050506040513d601f19601f8201168201806040525081019061169d9190612bcb565b6010546040516303c8f2e360e21b81529192506001600160a01b031690630f23cb8c906116ce908790600401612e0c565b60206040518083038186803b1580156116e657600080fd5b505afa1580156116fa573d6000803e3d6000fd5b505050506040513d601f19601f8201168201806040525081019061171e9190612b07565b156117df576002828101805460ff191660011790556127109060009061176c9061174c90610f5789876123bd565b610f57846117608a8863ffffffff6123e216565b9063ffffffff61213616565b905060006117ac60016117a0601360008154811061178657fe5b9060005260206000200154896123e290919063ffffffff16565b9063ffffffff6123bd16565b6013549091506000906117c990610f57858563ffffffff61213616565b90506117d6878286612424565b50505050610d36565b6002828101805460ff191690911790556117f761257f565b6015805460ff60a01b1916600160a01b1790556040517fbd33f7a3bfa88a467c9df5ae7d2341cf061084c386b20a0d48130f5cbce38a4d9061183c9085908790613342565b60405180910390a150505050565b6014546001600160a01b031681565b60035481565b611867611eba565b6000546001600160a01b039081169116146118945760405162461bcd60e51b81526004016105bf906131bc565b6001600160a01b0381166118ba5760405162461bcd60e51b81526004016105bf90612f38565b600080546040516001600160a01b03808516939216917f8be0079c531659141344cd1fd0a4f28419497f9722a3daafe3b4186f6b6457e091a3600080546001600160a01b0319166001600160a01b0392909216919091179055565b6009546001600160a01b031681565b61192c611eba565b6000546001600160a01b039081169116146119595760405162461bcd60e51b81526004016105bf906131bc565b6001600160a01b0381166000908152600f602052604090205460ff1615156001146119965760405162461bcd60e51b81526004016105bf90613281565b6001600160a01b03166000908152600f60205260409020805460ff19169055565b60088181548110610fbc57fe5b806119ce8161153f565b15156001146119ef5760405162461bcd60e51b81526004016105bf9061318e565b600e5460ff16151560011415611a3357336000908152600f602052604090205460ff161515600114611a335760405162461bcd60e51b81526004016105bf90613047565b611a4e6001600160a01b03831633308663ffffffff61267916565b611a56611248565b6001600160a01b0316336001600160a01b031614611c97576001600160a01b03821660009081526004602090815260408083205460059092529091205481611aa4828763ffffffff6123bd16565b1115611ac25760405162461bcd60e51b81526004016105bf906132af565b6001600160a01b0380851660009081526006602090815260408083205481516318160ddd60e01b8152915194169384926318160ddd9260048082019391829003018186803b158015611b1357600080fd5b505afa158015611b27573d6000803e3d6000fd5b505050506040513d601f19601f82011682018060405250810190611b4b9190612bcb565b905080611bb7576040516340c10f1960e01b81526001600160a01b038316906340c10f1990611b809033908b90600401612dc4565b600060405180830381600087803b158015611b9a57600080fd5b505af1158015611bae573d6000803e3d6000fd5b50505050611c4b565b6001600160a01b03861660009081526005602052604081205490611be582610f578b8663ffffffff61213616565b6040516340c10f1960e01b81529091506001600160a01b038516906340c10f1990611c169033908590600401612dc4565b600060405180830381600087803b158015611c3057600080fd5b505af1158015611c44573d6000803e3d6000fd5b5050505050505b6001600160a01b038616600090815260056020526040902054611c74908863ffffffff6123bd16565b6001600160a01b03871660009081526005602052604090205550611e6592505050565b6001600160a01b0380831660009081526007602090815260408083205481516318160ddd60e01b8152915194169384926318160ddd9260048082019391829003018186803b158015611ce857600080fd5b505afa158015611cfc573d6000803e3d6000fd5b505050506040513d601f19601f82011682018060405250810190611d209190612bcb565b905080611d8c576040516340c10f1960e01b81526001600160a01b038316906340c10f1990611d559033908990600401612dc4565b600060405180830381600087803b158015611d6f57600080fd5b505af1158015611d83573d6000803e3d6000fd5b50505050611e20565b6001600160a01b03841660009081526004602052604081205490611dba82610f57898663ffffffff61213616565b6040516340c10f1960e01b81529091506001600160a01b038516906340c10f1990611deb9033908590600401612dc4565b600060405180830381600087803b158015611e0557600080fd5b505af1158015611e19573d6000803e3d6000fd5b5050505050505b6001600160a01b038416600090815260046020526040902054611e49908663ffffffff6123bd16565b6001600160a01b03851660009081526004602052604090205550505b611e6e33610fee565b611eb557600880546001810182556000919091527ff3f7a9fe364faab93b216da50a3214154f22a0a2b415b23a84c8169e8b636ee30180546001600160a01b031916331790555b505050565b3390565b60608180611ee55750506040805180820190915260018152600360fc1b602082015261057c565b8060005b8115611efd57600101600a82049150611ee9565b60608167ffffffffffffffff81118015611f1657600080fd5b506040519080825280601f01601f191660200182016040528015611f41576020820181803683370190505b50905060001982015b8415611f8f57600a850660300160f81b82828060019003935081518110611f6d57fe5b60200101906001600160f81b031916908160001a905350600a85049450611f4a565b5095945050505050565b80611fa38161153f565b1515600114611fc45760405162461bcd60e51b81526004016105bf9061318e565b6001600160a01b0380831660009081526006602090815260408083205481516318160ddd60e01b8152915194169384926318160ddd9260048082019391829003018186803b15801561201557600080fd5b505afa158015612029573d6000803e3d6000fd5b505050506040513d601f19601f8201168201806040525081019061204d9190612bcb565b6001600160a01b03851660009081526005602052604081205491925061207d82610f57898663ffffffff61213616565b60405163079cc67960e41b81529091506001600160a01b038516906379cc6790906120ae9033908590600401612dc4565b600060405180830381600087803b1580156120c857600080fd5b505af11580156120dc573d6000803e3d6000fd5b5050506001600160a01b03871660009081526005602052604090205461210991508863ffffffff6123e216565b6001600160a01b0387166000818152600560205260409020919091556107f090338963ffffffff6126d116565b60008261214557506000612173565b8282028284828161215257fe5b04146121705760405162461bcd60e51b81526004016105bf9061314d565b90505b92915050565b600061217083836040518060400160405280601a81526020017f536166654d6174683a206469766973696f6e206279207a65726f0000000000008152506126f0565b816121c58161153f565b15156001146121e65760405162461bcd60e51b81526004016105bf9061318e565b6001600160a01b0383166000908152600460209081526040808320546005909252909120548361223f5780612221838863ffffffff6123e216565b101561223f5760405162461bcd60e51b81526004016105bf90613078565b6001600160a01b0380861660009081526007602090815260408083205481516318160ddd60e01b8152915194169384926318160ddd9260048082019391829003018186803b15801561229057600080fd5b505afa1580156122a4573d6000803e3d6000fd5b505050506040513d601f19601f820116820180604052508101906122c89190612bcb565b6001600160a01b0388166000908152600460205260408120549192506122f882610f578c8663ffffffff61213616565b60405163079cc67960e41b81529091506001600160a01b038516906379cc6790906123299033908590600401612dc4565b600060405180830381600087803b15801561234357600080fd5b505af1158015612357573d6000803e3d6000fd5b5050506001600160a01b038a1660009081526004602052604090205461238491508b63ffffffff6123e216565b6001600160a01b038a166000818152600460205260409020919091556123b190338c63ffffffff6126d116565b50505050505050505050565b6000828201838110156121705760405162461bcd60e51b81526004016105bf90612f7e565b600061217083836040518060400160405280601e81526020017f536166654d6174683a207375627472616374696f6e206f766572666c6f770000815250612727565b60005b600a54811015610d36576000600a828154811061244057fe5b60009182526020808320909101546001600160a01b0316808352600590915260408220549092509061247c85610f57848963ffffffff61213616565b6001600160a01b0384166000908152600560205260409020549091506124a8908263ffffffff6123e216565b6001600160a01b038085166000818152600560205260409020929092556009541614156124f05760006124da82612753565b90506124ec828263ffffffff6123e216565b9150505b6001600160a01b038316600090815260046020526040902054612519908263ffffffff6123bd16565b6001600160a01b0384166000818152600460205260409081902092909255905188907f3173c1c4b679e2da86dbb0382bde749a6e16cd31912c5410e17985cd7d2b90529061256c908a908a908790613376565b60405180910390a3505050600101612427565b60005b600a54811015612676576000600a828154811061259b57fe5b60009182526020808320909101546001600160a01b0316808352600582526040808420546004909352909220549192509081906125de908263ffffffff6123e216565b6001600160a01b0380851660008181526004602052604090209290925560095416141561262657600061261082612753565b9050612622828263ffffffff6123e216565b9150505b6001600160a01b03831660009081526005602052604090205461264f908263ffffffff6123bd16565b6001600160a01b039093166000908152600560205260409020929092555050600101612582565b50565b610d36846323b872dd60e01b85858560405160240161269a93929190612ddd565b60408051601f198184030181529190526020810180516001600160e01b03166001600160e01b031990931692909217909152612889565b611eb58363a9059cbb60e01b848460405160240161269a929190612dc4565b600081836127115760405162461bcd60e51b81526004016105bf9190612e46565b50600083858161271d57fe5b0495945050505050565b6000818484111561274b5760405162461bcd60e51b81526004016105bf9190612e46565b505050900390565b60408051808201909152600d81526c6275726e2875696e743235362960981b602090910152600b546000907f42966c689b5afe9b9b3f8a7103b2a19980d59629bfd6a20a60972312ed41d836906127b9906103e890610f5790869063ffffffff61213616565b6009546040519193506000916001600160a01b039091169083906127e1908690602401612e0c565b60408051601f198184030181529181526020820180516001600160e01b03166001600160e01b031990941693909317909252905161281f9190612c82565b6000604051808303816000865af19150503d806000811461285c576040519150601f19603f3d011682016040523d82523d6000602084013e612861565b606091505b50509050806128825760405162461bcd60e51b81526004016105bf90613109565b5050919050565b60606128de826040518060400160405280602081526020017f5361666545524332303a206c6f772d6c6576656c2063616c6c206661696c6564815250856001600160a01b03166129189092919063ffffffff16565b805190915015611eb557808060200190518101906128fc9190612b07565b611eb55760405162461bcd60e51b81526004016105bf906132f8565b6060612927848460008561292f565b949350505050565b606061293a856129f3565b6129565760405162461bcd60e51b81526004016105bf9061321e565b60006060866001600160a01b031685876040516129739190612c82565b60006040518083038185875af1925050503d80600081146129b0576040519150601f19603f3d011682016040523d82523d6000602084013e6129b5565b606091505b509150915081156129c95791506129279050565b8051156129d95780518082602001fd5b8360405162461bcd60e51b81526004016105bf9190612e46565b3b151590565b80356121738161340a565b600060208284031215612a15578081fd5b81356121708161340a565b600060208284031215612a31578081fd5b81516121708161340a565b60008060408385031215612a4e578081fd5b8235612a598161340a565b946020939093013593505050565b60006020808385031215612a79578182fd5b823567ffffffffffffffff811115612a8f578283fd5b80840185601f820112612aa0578384fd5b80359150612ab5612ab0836133b3565b61338c565b8281528381019082850185850284018601891015612ad1578687fd5b8693505b84841015612afb57612ae789826129f9565b835260019390930192918501918501612ad5565b50979650505050505050565b600060208284031215612b18578081fd5b81518015158114612170578182fd5b600060208284031215612b38578081fd5b815167ffffffffffffffff80821115612b4f578283fd5b81840185601f820112612b60578384fd5b8051925081831115612b70578384fd5b612b83601f8401601f191660200161338c565b9150828252856020848301011115612b99578384fd5b612baa8360208401602084016133de565b50949350505050565b600060208284031215612bc4578081fd5b5035919050565b600060208284031215612bdc578081fd5b5051919050565b60008060408385031215612bf5578182fd5b823591506020830135612c078161340a565b809150509250929050565b60008060408385031215612c24578182fd5b50508035926020909101359150565b60008060408385031215612c45578182fd5b505080516020909101519092909150565b60008151808452612c6e8160208601602086016133de565b601f01601f19169290920160200192915050565b60008251612c948184602087016133de565b9190910192915050565b600061647560f01b82528351612cbb8160028501602088016133de565b808301602d60f81b600282015284519150612cdd8260038301602088016133de565b01600301949350505050565b60006d44534c412d50524f56494445522d60901b82528351612d1281600e8501602088016133de565b808301602d60f81b600e82015284519150612d3482600f8301602088016133de565b01600f01949350505050565b600061064760f41b82528351612cbb8160028501602088016133de565b60006944534c412d555345522d60b01b82528351612d8281600a8501602088016133de565b808301602d60f81b600a82015284519150612da482600b8301602088016133de565b01600b01949350505050565b6001600160a01b0391909116815260200190565b6001600160a01b03929092168252602082015260400190565b6001600160a01b039384168152919092166020820152604081019190915260600190565b901515815260200190565b90815260200190565b60208101612e22836133d3565b825292915050565b60408101612e37846133d3565b82528260208301529392505050565b6000602082526121706020830184612c56565b600060408252612e6c6040830185612c56565b8281036020840152612e7e8185612c56565b95945050505050565b602080825260189082015277155cd95c88185b1c9958591e481dda1a5d195b1a5cdd195960421b604082015260600190565b60208082526059908201527f43616e206f6e6c79207769746864726177207374616b6520616674657220746860408201527f652066696e616c20706572696f642069732066696e6973686564206f72206966606082015278081d1a194818dbdb9d1c9858dd081a5cc8189c995858da1959603a1b608082015260a00190565b60208082526026908201527f4f776e61626c653a206e6577206f776e657220697320746865207a65726f206160408201526564647265737360d01b606082015260800190565b6020808252601b908201527f536166654d6174683a206164646974696f6e206f766572666c6f770000000000604082015260600190565b6020808252602d908201527f546f6b656e206e6f7420616c6c6f7765642062792074686520534c415265676960408201526c1cdd1c9e4818dbdb9d1c9858dd609a1b606082015260800190565b60208082526025908201527f4f6e6c79204d657373656e6765722063616e2063616c6c20746869732066756e60408201526431ba34b7b760d91b606082015260800190565b602080825260179082015276155cd95c881a5cc81b9bdd081dda1a5d195b1a5cdd1959604a1b604082015260600190565b60208082526029908201527f53686f756c64206e6f74207769746864726177206d6f7265207468616e207573604082015268657273207374616b6560b81b606082015260800190565b60208082526028908201527f43616e206f6e6c79207374616b65206f6e206e6f742066696e697368656420636040820152676f6e74726163747360c01b606082015260800190565b60208082526024908201527f44534c41206275726e2070726f6365737320776173206e6f74207375636365736040820152631cd99d5b60e21b606082015260800190565b60208082526021908201527f536166654d6174683a206d756c7469706c69636174696f6e206f766572666c6f6040820152607760f81b606082015260800190565b6020808252601490820152731d1bdad95b881a5cc81b9bdd08185b1b1bddd95960621b604082015260600190565b6020808252818101527f4f776e61626c653a2063616c6c6572206973206e6f7420746865206f776e6572604082015260600190565b602080825260139082015272151bdad95b88185b1c9958591e481859191959606a1b604082015260600190565b6020808252601d908201527f416464726573733a2063616c6c20746f206e6f6e2d636f6e7472616374000000604082015260600190565b6020808252601290820152710616d6f756e742063616e6e6f7420626520360741b604082015260600190565b602080825260149082015273155cd95c881b9bdd081dda1a5d195b1a5cdd195960621b604082015260600190565b60208082526029908201527f43616e6e6f74207374616b65206d6f7265207468616e20534c412070726f7669604082015268646572207374616b6560b81b606082015260800190565b6020808252602a908201527f5361666545524332303a204552433230206f7065726174696f6e20646964206e6040820152691bdd081cdd58d8d9595960b21b606082015260800190565b918252602082015260400190565b83815260208101839052606081016003831061336857fe5b826040830152949350505050565b9283526020830191909152604082015260600190565b60405181810167ffffffffffffffff811182821017156133ab57600080fd5b604052919050565b600067ffffffffffffffff8211156133c9578081fd5b5060209081020190565b806006811061057c57fe5b60005b838110156133f95781810151838201526020016133e1565b83811115610d365750506000910152565b6001600160a01b038116811461267657600080fdfea2646970667358221220ab58d6891fbd3402abf348004e640c6f51ed154b6fd319dcc1b18cc55ecb68e464736f6c634300060600338be0079c531659141344cd1fd0a4f28419497f9722a3daafe3b4186f6b6457e0",
  "immutableReferences": {},
  "source": "// SPDX-License-Identifier: MIT\npragma solidity 0.6.6;\npragma experimental ABIEncoderV2;\n\nimport \"@openzeppelin/contracts/access/Ownable.sol\";\nimport \"@openzeppelin/contracts/token/ERC20/IERC20.sol\";\nimport \"@openzeppelin/contracts/math/SafeMath.sol\";\nimport \"./SLO.sol\";\nimport \"./SLARegistry.sol\";\nimport \"./StakeRegistry.sol\";\nimport \"./PeriodRegistry.sol\";\nimport \"./Staking.sol\";\n\n/**\n * @title SLA\n * @dev SLA is a service level agreement contract used for service downtime\n * compensation\n */\ncontract SLA is Staking {\n    using SafeMath for uint256;\n\n    enum Status {NotVerified, Respected, NotRespected}\n\n    /// @dev Struct used for storing period status\n    struct PeriodSLI {\n        uint256 timestamp;\n        uint256 sli;\n        Status status;\n    }\n\n    /// @dev address of the SLO\n    SLO public slo;\n\n    /// @dev The ipfs hash that stores extra information about the agreement\n    string public ipfsHash;\n\n    /// @dev uint8 of the period type\n    PeriodRegistry.PeriodType public periodType;\n\n    PeriodRegistry public periodRegistry;\n\n    /// @dev array of he allowed canonical period ids\n    uint256[] public periodIds;\n\n    /// @dev The address of the slaRegistry contract\n    SLARegistry public slaRegistry;\n\n    /// @dev The address of the messenger\n    address public messengerAddress;\n\n    /// @dev states if the contract was breached or not\n    bool private _breachedContract = false;\n\n    /// @dev periodId=>PeriodSLI mapping\n    mapping(uint256 => PeriodSLI) public periodSLIs;\n\n    /// @dev block number of SLA deployment\n    uint256 public creationBlockNumber;\n\n    /// @dev extra data for customized workflows\n    bytes32[] public extraData;\n\n    /// @dev states if the contract was breached or not\n    uint256 public nextVerifiablePeriod;\n\n    /**\n     * @dev event for SLI creation logging\n     * @param timestamp 1. the time the SLI has been registered\n     * @param sli 2. the value of the SLI\n     * @param periodId 3. the id of the given period\n     */\n    event SLICreated(uint256 timestamp, uint256 sli, uint256 periodId);\n\n    /**\n     * @dev event for SLI creation logging\n     * @param _periodId 1. the id of the given period\n     * @param _sli 2. value of the SLI\n     */\n    event SLANotRespected(uint256 _periodId, uint256 _sli);\n\n    /**\n     * @dev throws if called by any address other than the messenger contract.\n     */\n    modifier onlyMessenger() {\n        require(\n            msg.sender == messengerAddress,\n            \"Only Messenger can call this function\"\n        );\n        _;\n    }\n\n    /**\n     * @dev throws if called by any address other than the messenger contract.\n     */\n    modifier onlySLARegistry() {\n        require(\n            msg.sender == address(slaRegistry),\n            \"Only SLARegistry can call this function\"\n        );\n        _;\n    }\n\n    /**\n     * @param _owner 1. address of the owner of the service level agreement\n     * @param _SLO 2. address of the SLO\n     * @param _ipfsHash 3. string with the ipfs hash that contains SLA information\n     * @param _periodIds 4. id of the allowed canonical periods\n     * @param _periodType 5. period type of the SLA contract\n     * @param _stakeRegistry 6. stakeRegistry address\n     * @param _periodRegistry 7. periodRegistry address\n     * @param _whitelisted 8. boolean to declare whitelisted contracts\n     * @param _extraData 9. array of bytes32 to store extra data on deployment time\n     * @param _slaID 10. identifies the SLA to uniquely to emit dTokens\n     */\n    constructor(\n        address _owner,\n        SLO _SLO,\n        string memory _ipfsHash,\n        address _messengerAddress,\n        uint256[] memory _periodIds,\n        PeriodRegistry.PeriodType _periodType,\n        address _stakeRegistry,\n        address _periodRegistry,\n        bool _whitelisted,\n        bytes32[] memory _extraData,\n        uint256 _slaID\n    )\n        public\n        Staking(\n            _stakeRegistry,\n            _periodRegistry,\n            _periodType,\n            _periodIds.length,\n            _whitelisted,\n            _slaID\n        )\n    {\n        transferOwnership(_owner);\n        ipfsHash = _ipfsHash;\n        messengerAddress = _messengerAddress;\n        slaRegistry = SLARegistry(msg.sender);\n        periodRegistry = PeriodRegistry(_periodRegistry);\n        creationBlockNumber = block.number;\n        periodIds = _periodIds;\n        periodType = _periodType;\n        slo = _SLO;\n        extraData = _extraData;\n        nextVerifiablePeriod = _periodIds[0];\n    }\n\n    /**\n     * @dev external function to register SLI's and check them against the SLO's\n     * @param _sli 1. the value of the SLI to check\n     * @param _periodId 2. the id of the given period\n     */\n    function registerSLI(uint256 _sli, uint256 _periodId)\n        external\n        onlyMessenger\n    {\n        emit SLICreated(block.timestamp, _sli, _periodId);\n        nextVerifiablePeriod = _periodId + 1;\n        PeriodSLI storage periodSLI = periodSLIs[_periodId];\n        periodSLI.sli = _sli;\n        periodSLI.timestamp = block.timestamp;\n        uint256 sloValue = slo.value();\n        if (slo.isRespected(_sli)) {\n            periodSLI.status = Status.Respected;\n            uint256 precision = 10000;\n            // deviation = (sli-slo)*precision/((sli+slo)/2)\n            uint256 deviation =\n                _sli.sub(sloValue).mul(precision).div(\n                    _sli.add(sloValue).div(2)\n                );\n            // to get the reward formula, we get the periodId but respecting to the SLA\n            // because _periodId is the periodId of the platform\n            // e.g. if periodIds = 7,8,9,10, normalized periods are = 1,2,3,4\n            uint256 normalizedPeriodId = _periodId.sub(periodIds[0]).add(1);\n            // if is the last period, then deliver the whole usersStake to the provider\n            // uint256 rewardPercentage =\n            //     _periodId != periodIds[periodIds.length - 1] &&\n            //         ? deviation.mul(normalizedPeriodId).div(periodIds.length)\n            //         : uint256(1).mul(precision);\n            uint256 rewardPercentage =\n                deviation.mul(normalizedPeriodId).div(periodIds.length);\n            _setRespectedPeriodReward(_periodId, rewardPercentage, precision);\n        } else {\n            periodSLI.status = Status.NotRespected;\n            _setUsersCompensation();\n            _breachedContract = true;\n            emit SLANotRespected(_periodId, _sli);\n        }\n    }\n\n    function isAllowedPeriod(uint256 _periodId) public view returns (bool) {\n        for (uint256 index = 0; index < periodIds.length; index++) {\n            if (periodIds[index] == _periodId) {\n                return true;\n            }\n        }\n        return false;\n    }\n\n    /**\n     *@dev stake _amount tokens into the _token contract\n     *@param _amount 1. amount to be staked\n     *@param _token 2. address of the ERC to be staked\n     */\n\n    function stakeTokens(uint256 _amount, address _token) public {\n        require(_amount > 0, \"amount cannot be 0\");\n        uint256 lastValidPeriodId = periodIds[periodIds.length - 1];\n        (, uint256 endOfLastValidPeriod) =\n            periodRegistry.getPeriodStartAndEnd(periodType, lastValidPeriodId);\n        bool contractFinished =\n            _breachedContract == true ||\n                (block.timestamp >= endOfLastValidPeriod &&\n                    periodSLIs[lastValidPeriodId].status != Status.NotVerified);\n        require(\n            contractFinished == false,\n            \"Can only stake on not finished contracts\"\n        );\n        _stake(_amount, _token);\n        StakeRegistry stakeRegistry = slaRegistry.stakeRegistry();\n        stakeRegistry.registerStakedSla(msg.sender);\n    }\n\n    function withdrawProviderTokens(uint256 _amount, address _tokenAddress)\n        public\n    {\n        require(_amount > 0, \"amount cannot be 0\");\n        uint256 lastValidPeriodId = periodIds[periodIds.length - 1];\n        (, uint256 endOfLastValidPeriod) =\n            periodRegistry.getPeriodStartAndEnd(periodType, lastValidPeriodId);\n        // contract is finished if is breached or if the last period is finished and verified\n        bool contractFinished =\n            _breachedContract == true ||\n                (block.timestamp >= endOfLastValidPeriod &&\n                    periodSLIs[lastValidPeriodId].status != Status.NotVerified);\n        _withdrawProviderTokens(_amount, _tokenAddress, contractFinished);\n    }\n\n    /**\n     *@dev withdraw _amount tokens from the _token contract\n     *@param _amount 1. amount to be staked\n     *@param _tokenAddress 2. address of the ERC to be staked\n     */\n\n    function withdrawUserTokens(uint256 _amount, address _tokenAddress) public {\n        require(_amount > 0, \"amount cannot be 0\");\n        uint256 lastValidPeriodId = periodIds[periodIds.length - 1];\n        (, uint256 endOfLastValidPeriod) =\n            periodRegistry.getPeriodStartAndEnd(periodType, lastValidPeriodId);\n        // users tokens can be withdrawn only if the contract is breached\n        // or if the last period is finished and the period status was verified\n        if (msg.sender != owner()) {\n            require(\n                _breachedContract == true ||\n                    (block.timestamp >= endOfLastValidPeriod &&\n                        periodSLIs[lastValidPeriodId].status !=\n                        Status.NotVerified),\n                \"Can only withdraw stake after the final period is finished or if the contract is breached\"\n            );\n        }\n        _withdrawUserTokens(_amount, _tokenAddress);\n    }\n\n    function getPeriodIdsLength() public view returns (uint256) {\n        return periodIds.length;\n    }\n\n    function getStakersLength() public view returns (uint256) {\n        return stakers.length;\n    }\n\n    function breachedContract() public view returns (bool) {\n        return _breachedContract;\n    }\n}\n",
  "sourcePath": "/Users/matiasbn/Desktop/stacktical/stacktical-dsla-contracts/contracts/SLA.sol",
  "compiler": {
    "name": "solc",
    "version": "0.6.6+commit.6c089d02.Emscripten.clang"
  },
  "schemaVersion": "3.3.3",
  "updatedAt": "2021-03-14T21:22:02.108Z",
  "networkType": "ethereum",
  "devdoc": {
    "details": "SLA is a service level agreement contract used for service downtime compensation",
    "methods": {
      "constructor": {
        "params": {
          "_SLO": "2. address of the SLO",
          "_extraData": "9. array of bytes32 to store extra data on deployment time",
          "_ipfsHash": "3. string with the ipfs hash that contains SLA information",
          "_owner": "1. address of the owner of the service level agreement",
          "_periodIds": "4. id of the allowed canonical periods",
          "_periodRegistry": "7. periodRegistry address",
          "_periodType": "5. period type of the SLA contract",
          "_slaID": "10. identifies the SLA to uniquely to emit dTokens",
          "_stakeRegistry": "6. stakeRegistry address",
          "_whitelisted": "8. boolean to declare whitelisted contracts"
        }
      },
      "owner()": {
        "details": "Returns the address of the current owner."
      },
      "registerSLI(uint256,uint256)": {
        "details": "external function to register SLI's and check them against the SLO's",
        "params": {
          "_periodId": "2. the id of the given period",
          "_sli": "1. the value of the SLI to check"
        }
      },
      "renounceOwnership()": {
        "details": "Leaves the contract without owner. It will not be possible to call `onlyOwner` functions anymore. Can only be called by the current owner.     * NOTE: Renouncing ownership will leave the contract without an owner, thereby removing any functionality that is only available to the owner."
      },
      "transferOwnership(address)": {
        "details": "Transfers ownership of the contract to a new account (`newOwner`). Can only be called by the current owner."
      }
    },
    "title": "SLA"
  },
  "userdoc": {
    "methods": {
      "addAllowedTokens(address)": {
        "notice": "dev add a token to ve allowed for staking param _tokenAddress 1. address of the new allowed token"
      },
      "getAllowedTokensLength()": {
        "notice": "dev use this function to evaluate the length of the allowed tokens length return allowedTokens.length"
      },
      "isAllowedToken(address)": {
        "notice": "dev checks in the allowedTokens array if there's a token with _tokenAddress value param _tokenAddress 1. token address to check exixtence return true if _tokenAddress exists in the allowedTokens array"
      },
      "isStaker(address)": {
        "notice": "dev returns true if the _staker address is registered as staker param _staker 1. staker address return true if address is staker"
      },
      "stakeTokens(uint256,address)": {
        "notice": "dev stake _amount tokens into the _token contract param _amount 1. amount to be staked param _token 2. address of the ERC to be staked"
      },
      "withdrawUserTokens(uint256,address)": {
        "notice": "dev withdraw _amount tokens from the _token contract param _amount 1. amount to be staked param _tokenAddress 2. address of the ERC to be staked"
      }
    }
  }
}