{
  "contractName": "SLA",
  "abi": [
    {
      "inputs": [
        {
          "internalType": "address",
          "name": "_owner",
          "type": "address"
        },
        {
          "internalType": "bytes32[]",
          "name": "_SLONames",
          "type": "bytes32[]"
        },
        {
          "internalType": "contract SLO[]",
          "name": "_SLOs",
          "type": "address[]"
        },
        {
          "internalType": "uint256",
          "name": "_stake",
          "type": "uint256"
        },
        {
          "internalType": "string",
          "name": "_ipfsHash",
          "type": "string"
        },
        {
          "internalType": "uint256",
          "name": "_sliInterval",
          "type": "uint256"
        },
        {
          "internalType": "contract bDSLAToken",
          "name": "_tokenAddress",
          "type": "address"
        },
        {
          "internalType": "uint256[]",
          "name": "_sla_period_starts",
          "type": "uint256[]"
        },
        {
          "internalType": "uint256[]",
          "name": "_sla_period_ends",
          "type": "uint256[]"
        }
      ],
      "stateMutability": "nonpayable",
      "type": "constructor"
    },
    {
      "anonymous": false,
      "inputs": [
        {
          "indexed": true,
          "internalType": "uint256",
          "name": "period_index",
          "type": "uint256"
        }
      ],
      "name": "NewPeriodAdded",
      "type": "event"
    },
    {
      "anonymous": false,
      "inputs": [
        {
          "indexed": true,
          "internalType": "address",
          "name": "previousOwner",
          "type": "address"
        },
        {
          "indexed": true,
          "internalType": "address",
          "name": "newOwner",
          "type": "address"
        }
      ],
      "name": "OwnershipTransferred",
      "type": "event"
    },
    {
      "anonymous": false,
      "inputs": [
        {
          "indexed": false,
          "internalType": "uint256",
          "name": "_timestamp",
          "type": "uint256"
        },
        {
          "indexed": false,
          "internalType": "uint256",
          "name": "_value",
          "type": "uint256"
        },
        {
          "indexed": false,
          "internalType": "string",
          "name": "_hash",
          "type": "string"
        }
      ],
      "name": "SLICreated",
      "type": "event"
    },
    {
      "inputs": [
        {
          "internalType": "bytes32",
          "name": "",
          "type": "bytes32"
        },
        {
          "internalType": "uint256",
          "name": "",
          "type": "uint256"
        }
      ],
      "name": "SLIs",
      "outputs": [
        {
          "internalType": "uint256",
          "name": "timestamp",
          "type": "uint256"
        },
        {
          "internalType": "uint256",
          "name": "value",
          "type": "uint256"
        },
        {
          "internalType": "string",
          "name": "ipfsHash",
          "type": "string"
        }
      ],
      "stateMutability": "view",
      "type": "function"
    },
    {
      "inputs": [
        {
          "internalType": "bytes32",
          "name": "",
          "type": "bytes32"
        }
      ],
      "name": "SLOs",
      "outputs": [
        {
          "internalType": "contract SLO",
          "name": "",
          "type": "address"
        }
      ],
      "stateMutability": "view",
      "type": "function"
    },
    {
      "inputs": [
        {
          "internalType": "address",
          "name": "_token",
          "type": "address"
        }
      ],
      "name": "addAllowedTokens",
      "outputs": [],
      "stateMutability": "nonpayable",
      "type": "function"
    },
    {
      "inputs": [
        {
          "internalType": "uint256",
          "name": "_sla_period_start",
          "type": "uint256"
        },
        {
          "internalType": "uint256",
          "name": "_sla_period_end",
          "type": "uint256"
        }
      ],
      "name": "addNewPeriod",
      "outputs": [],
      "stateMutability": "nonpayable",
      "type": "function"
    },
    {
      "inputs": [
        {
          "internalType": "uint256",
          "name": "",
          "type": "uint256"
        }
      ],
      "name": "allowedTokens",
      "outputs": [
        {
          "internalType": "address",
          "name": "",
          "type": "address"
        }
      ],
      "stateMutability": "view",
      "type": "function"
    },
    {
      "inputs": [],
      "name": "bDSLA",
      "outputs": [
        {
          "internalType": "contract bDSLAToken",
          "name": "",
          "type": "address"
        }
      ],
      "stateMutability": "view",
      "type": "function"
    },
    {
      "inputs": [
        {
          "internalType": "uint256",
          "name": "_period",
          "type": "uint256"
        }
      ],
      "name": "claimCompensation",
      "outputs": [],
      "stateMutability": "nonpayable",
      "type": "function"
    },
    {
      "inputs": [
        {
          "internalType": "uint256",
          "name": "_period",
          "type": "uint256"
        }
      ],
      "name": "claimReward",
      "outputs": [],
      "stateMutability": "nonpayable",
      "type": "function"
    },
    {
      "inputs": [
        {
          "internalType": "address",
          "name": "_user",
          "type": "address"
        },
        {
          "internalType": "uint256",
          "name": "_period",
          "type": "uint256"
        }
      ],
      "name": "getUserTotalValue",
      "outputs": [
        {
          "internalType": "uint256",
          "name": "",
          "type": "uint256"
        }
      ],
      "stateMutability": "view",
      "type": "function"
    },
    {
      "inputs": [],
      "name": "ipfsHash",
      "outputs": [
        {
          "internalType": "string",
          "name": "",
          "type": "string"
        }
      ],
      "stateMutability": "view",
      "type": "function"
    },
    {
      "inputs": [],
      "name": "owner",
      "outputs": [
        {
          "internalType": "address",
          "name": "",
          "type": "address"
        }
      ],
      "stateMutability": "view",
      "type": "function"
    },
    {
      "inputs": [
        {
          "internalType": "uint256",
          "name": "",
          "type": "uint256"
        }
      ],
      "name": "periods",
      "outputs": [
        {
          "internalType": "uint256",
          "name": "sla_period_start",
          "type": "uint256"
        },
        {
          "internalType": "uint256",
          "name": "sla_period_end",
          "type": "uint256"
        },
        {
          "internalType": "uint256",
          "name": "claimed_reward",
          "type": "uint256"
        },
        {
          "internalType": "bool",
          "name": "claimed",
          "type": "bool"
        },
        {
          "internalType": "enum Staking.Status",
          "name": "status",
          "type": "uint8"
        }
      ],
      "stateMutability": "view",
      "type": "function"
    },
    {
      "inputs": [],
      "name": "registry",
      "outputs": [
        {
          "internalType": "contract SLARegistry",
          "name": "",
          "type": "address"
        }
      ],
      "stateMutability": "view",
      "type": "function"
    },
    {
      "inputs": [],
      "name": "renounceOwnership",
      "outputs": [],
      "stateMutability": "nonpayable",
      "type": "function"
    },
    {
      "inputs": [],
      "name": "stake",
      "outputs": [
        {
          "internalType": "uint256",
          "name": "",
          "type": "uint256"
        }
      ],
      "stateMutability": "view",
      "type": "function"
    },
    {
      "inputs": [
        {
          "internalType": "uint256",
          "name": "_amount",
          "type": "uint256"
        },
        {
          "internalType": "address",
          "name": "_token",
          "type": "address"
        },
        {
          "internalType": "uint256",
          "name": "_period",
          "type": "uint256"
        }
      ],
      "name": "stakeTokens",
      "outputs": [],
      "stateMutability": "nonpayable",
      "type": "function"
    },
    {
      "inputs": [
        {
          "internalType": "uint256",
          "name": "",
          "type": "uint256"
        }
      ],
      "name": "stakers",
      "outputs": [
        {
          "internalType": "address",
          "name": "",
          "type": "address"
        }
      ],
      "stateMutability": "view",
      "type": "function"
    },
    {
      "inputs": [],
      "name": "stakersCount",
      "outputs": [
        {
          "internalType": "uint256",
          "name": "",
          "type": "uint256"
        }
      ],
      "stateMutability": "view",
      "type": "function"
    },
    {
      "inputs": [],
      "name": "totalStaked",
      "outputs": [
        {
          "internalType": "uint256",
          "name": "",
          "type": "uint256"
        }
      ],
      "stateMutability": "view",
      "type": "function"
    },
    {
      "inputs": [
        {
          "internalType": "address",
          "name": "newOwner",
          "type": "address"
        }
      ],
      "name": "transferOwnership",
      "outputs": [],
      "stateMutability": "nonpayable",
      "type": "function"
    },
    {
      "inputs": [
        {
          "internalType": "address",
          "name": "",
          "type": "address"
        }
      ],
      "name": "uniqueTokensStaked",
      "outputs": [
        {
          "internalType": "uint256",
          "name": "",
          "type": "uint256"
        }
      ],
      "stateMutability": "view",
      "type": "function"
    },
    {
      "inputs": [],
      "name": "validator",
      "outputs": [
        {
          "internalType": "address",
          "name": "",
          "type": "address"
        }
      ],
      "stateMutability": "view",
      "type": "function"
    },
    {
      "inputs": [
        {
          "internalType": "address",
          "name": "_token",
          "type": "address"
        },
        {
          "internalType": "uint256",
          "name": "_period",
          "type": "uint256"
        }
      ],
      "name": "withdraw",
      "outputs": [],
      "stateMutability": "nonpayable",
      "type": "function"
    },
    {
      "inputs": [
        {
          "internalType": "address",
          "name": "_token",
          "type": "address"
        },
        {
          "internalType": "uint256",
          "name": "_amount",
          "type": "uint256"
        },
        {
          "internalType": "uint256",
          "name": "_period",
          "type": "uint256"
        }
      ],
      "name": "withdrawAndStake",
      "outputs": [],
      "stateMutability": "nonpayable",
      "type": "function"
    },
    {
      "inputs": [
        {
          "internalType": "bytes32",
          "name": "_SLOName",
          "type": "bytes32"
        },
        {
          "internalType": "uint256",
          "name": "_value",
          "type": "uint256"
        },
        {
          "internalType": "string",
          "name": "_hash",
          "type": "string"
        },
        {
          "internalType": "uint256",
          "name": "_period",
          "type": "uint256"
        }
      ],
      "name": "registerSLI",
      "outputs": [],
      "stateMutability": "nonpayable",
      "type": "function"
    },
    {
      "inputs": [
        {
          "internalType": "bytes32",
          "name": "_SLOName",
          "type": "bytes32"
        }
      ],
      "name": "getSLI",
      "outputs": [
        {
          "components": [
            {
              "internalType": "uint256",
              "name": "timestamp",
              "type": "uint256"
            },
            {
              "internalType": "uint256",
              "name": "value",
              "type": "uint256"
            },
            {
              "internalType": "string",
              "name": "ipfsHash",
              "type": "string"
            }
          ],
          "internalType": "struct SLA.SLI[]",
          "name": "",
          "type": "tuple[]"
        }
      ],
      "stateMutability": "view",
      "type": "function"
    },
    {
      "inputs": [],
      "name": "getSliInterval",
      "outputs": [
        {
          "internalType": "uint256",
          "name": "",
          "type": "uint256"
        }
      ],
      "stateMutability": "view",
      "type": "function"
    },
    {
      "inputs": [],
      "name": "getDetails",
      "outputs": [
        {
          "internalType": "address",
          "name": "",
          "type": "address"
        },
        {
          "internalType": "string",
          "name": "",
          "type": "string"
        },
        {
          "internalType": "uint256",
          "name": "",
          "type": "uint256"
        },
        {
          "internalType": "bytes32[]",
          "name": "",
          "type": "bytes32[]"
        },
        {
          "internalType": "contract SLO[]",
          "name": "",
          "type": "address[]"
        }
      ],
      "stateMutability": "view",
      "type": "function"
    }
  ],
  "bytecode": "0x60806040523480156200001157600080fd5b5060405162002ffc38038062002ffc833981016040819052620000349162000755565b8282828b6000620000446200025c565b600080546001600160a01b0319166001600160a01b03831690811782556040519293509160008051602062002fdc833981519152908290a3508151835114620000aa5760405162461bcd60e51b8152600401620000a190620008e7565b60405180910390fd5b600180546001600160a01b038087166001600160a01b03199283161780845560048054948501815560009081527f8a35acfbc15ff81a39ae7d344fd709f28e8600b4aa8c65c6b64bfe7fe36bd19b9094018054841691831691909117905560028054918516919092161790555b835181101562000164576200015b8482815181106200013257fe5b60200260200101518483815181106200014757fe5b60200260200101516200026060201b60201c565b60010162000117565b505050505060058751106200017857600080fd5b86518851146200018757600080fd5b60005b8751811015620001fb57878181518110620001a157fe5b6020026020010151600c60008b8481518110620001ba57fe5b602090810291909101810151825281019190915260400160002080546001600160a01b0319166001600160a01b03929092169190911790556001016200018a565b506200020789620003b0565b87516200021c90600e9060208b0190620004df565b50600886905584516200023790600a9060208801906200052f565b5050600b80546001600160a01b03191633179055505060095550620009f89350505050565b3390565b6200026a620005a1565b82815260208101828152600060808301818152600580546001810182559252835160069092027f036b6384b5eca791c62761152d0c79bb0604c104a5fb6f4eb0703f3154bb3db0810192835592517f036b6384b5eca791c62761152d0c79bb0604c104a5fb6f4eb0703f3154bb3db184015560408401517f036b6384b5eca791c62761152d0c79bb0604c104a5fb6f4eb0703f3154bb3db284015560608401517f036b6384b5eca791c62761152d0c79bb0604c104a5fb6f4eb0703f3154bb3db3909301805493151560ff199094169390931780845590518493909161ff0019166101008360028111156200035b57fe5b021790555050506200038260016005805490506200045d60201b620019d01790919060201c565b6040517ff791e873e3b67fe74b29aeede7bcbbdaa59c4b64e542571183cd837aa56f6ac990600090a2505050565b620003ba6200025c565b6000546001600160a01b03908116911614620003ea5760405162461bcd60e51b8152600401620000a19062000930565b6001600160a01b038116620004135760405162461bcd60e51b8152600401620000a190620008a1565b600080546040516001600160a01b038085169392169160008051602062002fdc83398151915291a3600080546001600160a01b0319166001600160a01b0392909216919091179055565b6000620004a783836040518060400160405280601e81526020017f536166654d6174683a207375627472616374696f6e206f766572666c6f770000815250620004b060201b60201c565b90505b92915050565b60008184841115620004d75760405162461bcd60e51b8152600401620000a191906200086c565b505050900390565b8280548282559060005260206000209081019282156200051d579160200282015b828111156200051d57825182559160200191906001019062000500565b506200052b929150620005dd565b5090565b828054600181600116156101000203166002900490600052602060002090601f016020900481019282601f106200057257805160ff19168380011785556200051d565b828001600101855582156200051d57918201828111156200051d57825182559160200191906001019062000500565b6040518060a0016040528060008152602001600081526020016000815260200160001515815260200160006002811115620005d857fe5b905290565b5b808211156200052b5760008155600101620005de565b8051620004aa81620009df565b600082601f83011262000612578081fd5b81516200062962000623826200098c565b62000965565b8181529150602080830190848101818402860182018710156200064b57600080fd5b60005b848110156200066c578151845292820192908201906001016200064e565b505050505092915050565b600082601f83011262000688578081fd5b81516200069962000623826200098c565b818152915060208083019084810181840286018201871015620006bb57600080fd5b60005b848110156200066c578151620006d481620009df565b84529282019290820190600101620006be565b600082601f830112620006f8578081fd5b81516001600160401b038111156200070e578182fd5b62000723601f8201601f191660200162000965565b91508082528360208285010111156200073b57600080fd5b6200074e816020840160208601620009ac565b5092915050565b60008060008060008060008060006101208a8c03121562000774578485fd5b620007808b8b620005f4565b60208b01519099506001600160401b03808211156200079d578687fd5b620007ab8d838e0162000601565b995060408c0151915080821115620007c1578687fd5b620007cf8d838e0162000677565b985060608c0151975060808c0151915080821115620007ec578687fd5b620007fa8d838e01620006e7565b965060a08c01519550620008128d60c08e01620005f4565b945060e08c015191508082111562000828578384fd5b620008368d838e0162000601565b93506101008c01519150808211156200084d578283fd5b506200085c8c828d0162000601565b9150509295985092959850929598565b60006020825282518060208401526200088d816040850160208701620009ac565b601f01601f19169190910160400192915050565b60208082526026908201527f4f776e61626c653a206e6577206f776e657220697320746865207a65726f206160408201526564647265737360d01b606082015260800190565b60208082526029908201527f506c6561736520636865636b2074686520706172616d73206f6620796f757220604082015268706572696f6473202160b81b606082015260800190565b6020808252818101527f4f776e61626c653a2063616c6c6572206973206e6f7420746865206f776e6572604082015260600190565b6040518181016001600160401b03811182821017156200098457600080fd5b604052919050565b60006001600160401b03821115620009a2578081fd5b5060209081020190565b60005b83811015620009c9578181015183820152602001620009af565b83811115620009d9576000848401525b50505050565b6001600160a01b0381168114620009f557600080fd5b50565b6125d48062000a086000396000f3fe608060405234801561001057600080fd5b50600436106101845760003560e01c8063a2e80c5e116100d9578063e7ab816a11610087578063e7ab816a14610303578063ea4a11041461030b578063f10bd7721461032f578063f2fde38b14610342578063f3fef3a314610355578063fbbf93a014610368578063fd5e6dd11461038157610184565b8063a2e80c5e14610287578063ae169a501461028f578063b0227b47146102a2578063b83e0234146102b5578063c623674f146102c8578063cec534d6146102dd578063e23ef92c146102f057610184565b80635f4efaba116101365780635f4efaba1461022a578063715018a61461023257806375fdf2a91461023a5780637b1039991461024d578063817b1cd2146102555780638da5cb5b1461025d57806394199c611461026557610184565b806302e8b893146101895780630e1fcf34146101b2578063171e44ea146101c75780633a4b66f1146101da5780633a5381b5146101ef57806353e85fd5146102045780635e5f2e2614610217575b600080fd5b61019c610197366004611efb565b610394565b6040516101a9919061214b565b60405180910390f35b6101c56101c0366004611f13565b6104bd565b005b6101c56101d5366004611e60565b610509565b6101e2610590565b6040516101a991906124e1565b6101f7610596565b6040516101a99190612055565b6101c5610212366004611efb565b6105a5565b6101f7610225366004611efb565b61081f565b6101f7610846565b6101c5610855565b6101c5610248366004611ea7565b6108d4565b6101f7610bff565b6101e2610c0e565b6101f7610c14565b610278610273366004611f13565b610c23565b6040516101a993929190612527565b6101e2610ced565b6101c561029d366004611efb565b610cf3565b6101f76102b0366004611efb565b610ecd565b6101e26102c3366004611e60565b610ee8565b6102d0610efa565b6040516101a991906121c7565b6101c56102eb366004611fd3565b610f88565b6101c56102fe366004611f34565b611153565b6101e26113f6565b61031e610319366004611efb565b6113fc565b6040516101a995949392919061254f565b6101e261033d366004611e7c565b61143f565b6101c5610350366004611e60565b6114ed565b6101c5610363366004611e7c565b6115a3565b6103706117f3565b6040516101a99594939291906120a6565b6101f761038f366004611efb565b6119c3565b6060600d6000838152602001908152602001600020805480602002602001604051908101604052809291908181526020016000905b828210156104b157838290600052602060002090600302016040518060600160405290816000820154815260200160018201548152602001600282018054600181600116156101000203166002900480601f0160208091040260200160405190810160405280929190818152602001828054600181600116156101000203166002900480156104995780601f1061046e57610100808354040283529160200191610499565b820191906000526020600020905b81548152906001019060200180831161047c57829003601f168201915b505050505081525050815260200190600101906103c9565b5050505090505b919050565b6104c5611a12565b6000546001600160a01b039081169116146104fb5760405162461bcd60e51b81526004016104f2906123aa565b60405180910390fd5b6105058282611a16565b5050565b610511611a12565b6000546001600160a01b0390811691161461053e5760405162461bcd60e51b81526004016104f2906123aa565b600480546001810182556000919091527f8a35acfbc15ff81a39ae7d344fd709f28e8600b4aa8c65c6b64bfe7fe36bd19b0180546001600160a01b0319166001600160a01b0392909216919091179055565b60085481565b6002546001600160a01b031681565b80600581815481106105b357fe5b90600052602060002090600602016000015442101580156105f25750600581815481106105dc57fe5b9060005260206000209060060201600101544211155b6105fb57600080fd5b6002546001600160a01b03163314156106265760405162461bcd60e51b81526004016104f2906122ad565b60026005838154811061063557fe5b906000526020600020906006020160030160019054906101000a900460ff16600281111561065f57fe5b1461067c5760405162461bcd60e51b81526004016104f290612207565b6005828154811061068957fe5b6000918252602080832033845260056006909302019190910190526040902054156106c65760405162461bcd60e51b81526004016104f290612484565b60006106d2338461143f565b905060006106ec600a6106e6846003611b51565b90611b8b565b6007549091506106fc90836119d0565b600781905550816005858154811061071057fe5b600091825260208083203380855260069390930201600501905260409182902092909255600154905163a9059cbb60e01b81526001600160a01b039091169163a9059cbb916107649190869060040161208d565b602060405180830381600087803b15801561077e57600080fd5b505af1158015610792573d6000803e3d6000fd5b505050506040513d601f19601f820116820180604052508101906107b69190611edb565b50600154604051630852cd8d60e31b81526001600160a01b03909116906342966c68906107e79084906004016124e1565b600060405180830381600087803b15801561080157600080fd5b505af1158015610815573d6000803e3d6000fd5b5050505050505050565b6004818154811061082c57fe5b6000918252602090912001546001600160a01b0316905081565b6001546001600160a01b031681565b61085d611a12565b6000546001600160a01b0390811691161461088a5760405162461bcd60e51b81526004016104f2906123aa565b600080546040516001600160a01b03909116907f8be0079c531659141344cd1fd0a4f28419497f9722a3daafe3b4186f6b6457e0908390a3600080546001600160a01b0319169055565b6002546001600160a01b03163314156108ff5760405162461bcd60e51b81526004016104f2906122ad565b60006005828154811061090e57fe5b600091825260208083206001600160a01b0388168452600460069093020191909101815260408083203384529091529020541161095d5760405162461bcd60e51b81526004016104f2906122dc565b61096683611bcd565b6109825760405162461bcd60e51b81526004016104f29061240b565b6040516323b872dd60e01b81526001600160a01b038416906323b872dd906109b290339030908790600401612069565b602060405180830381600087803b1580156109cc57600080fd5b505af11580156109e0573d6000803e3d6000fd5b505050506040513d601f19601f82011682018060405250810190610a049190611edb565b50610a4e8260058381548110610a1657fe5b600091825260208083206001600160a01b03891684526004600690930201919091018152604080832033845290915290205490611c28565b60058281548110610a5b57fe5b600091825260208083206001600160a01b038816845260046006909302019190910181526040808320338452909152902055600754610a9a9083611c28565b600781905550600060058281548110610aaf57fe5b600091825260208083206001600160a01b03881684526004600690930201919091018152604080832033845290915281205460035460058054929450610b199286908110610af957fe5b906000526020600020906006020160020154611b8b90919063ffffffff16565b9050600060058481548110610b2a57fe5b600091825260208083206001600160a01b038a16845260046006909302019190910181526040808320338452909152902055600754610b6990836119d0565b6007556001546001600160a01b031663a9059cbb33610b8885856119d0565b6040518363ffffffff1660e01b8152600401610ba592919061208d565b602060405180830381600087803b158015610bbf57600080fd5b505af1158015610bd3573d6000803e3d6000fd5b505050506040513d601f19601f82011682018060405250810190610bf79190611edb565b505050505050565b600b546001600160a01b031681565b60075481565b6000546001600160a01b031690565b600d6020528160005260406000208181548110610c3c57fe5b6000918252602091829020600391909102018054600180830154600280850180546040805195821615610100026000190190911692909204601f81018890048802850188019092528184529397509095509293909290830182828015610ce35780601f10610cb857610100808354040283529160200191610ce3565b820191906000526020600020905b815481529060010190602001808311610cc657829003601f168201915b5050505050905083565b60035490565b8060058181548110610d0157fe5b9060005260206000209060060201600001544210158015610d40575060058181548110610d2a57fe5b9060005260206000209060060201600101544211155b610d4957600080fd5b6002546001600160a01b03163314610d735760405162461bcd60e51b81526004016104f290612451565b600160058381548110610d8257fe5b906000526020600020906006020160030160019054906101000a900460ff166002811115610dac57fe5b14610dc95760405162461bcd60e51b81526004016104f2906121da565b60058281548110610dd657fe5b600091825260209091206003600690920201015460ff1615610e0a5760405162461bcd60e51b81526004016104f290612313565b600554600754600091610e1d9190611b8b565b90506000610e31600a6106e6846003611b51565b600754909150610e4190836119d0565b6007819055508160058581548110610e5557fe5b906000526020600020906006020160020181905550600160058581548110610e7957fe5b60009182526020909120600690910201600301805460ff191691151591909117905560015460405163a9059cbb60e01b81526001600160a01b039091169063a9059cbb90610764903390869060040161208d565b600c602052600090815260409020546001600160a01b031681565b60066020526000908152604090205481565b600a805460408051602060026001851615610100026000190190941693909304601f81018490048402820184019092528181529291830182828015610f805780601f10610f5557610100808354040283529160200191610f80565b820191906000526020600020905b815481529060010190602001808311610f6357829003601f168201915b505050505081565b60008311610fa85760405162461bcd60e51b81526004016104f2906123df565b610fb182611bcd565b610fcd5760405162461bcd60e51b81526004016104f29061240b565b610fd8338383611c4d565b6040516323b872dd60e01b81526001600160a01b038316906323b872dd9061100890339030908890600401612069565b602060405180830381600087803b15801561102257600080fd5b505af1158015611036573d6000803e3d6000fd5b505050506040513d601f19601f8201168201806040525081019061105a9190611edb565b506110a4836005838154811061106c57fe5b600091825260208083206001600160a01b03881684526004600690930201919091018152604080832033845290915290205490611c28565b600582815481106110b157fe5b600091825260208083206001600160a01b0387168452600460069093020191909101815260408083203384529091529020556007546110f09084611c28565b600755336000908152600660205260409020546001141561114e57600380546001810182556000919091527fc2575a0e9e593c00f959f8c92f12db2869c3395a3b0502d05e2516446f71f85b0180546001600160a01b031916331790555b505050565b600b60009054906101000a90046001600160a01b03166001600160a01b0316633cb747bf6040518163ffffffff1660e01b815260040160206040518083038186803b1580156111a157600080fd5b505afa1580156111b5573d6000803e3d6000fd5b505050506040513d601f19601f820116820180604052508101906111d99190611fb7565b6001600160a01b0316336001600160a01b0316146111f657600080fd5b600d6000868152602001908152602001600020604051806060016040528042815260200186815260200185858080601f0160208091040260200160405190810160405280939291908181526020018383808284376000920182905250939094525050835460018181018655948252602091829020845160039092020190815581840151948101949094556040830151805193949361129e935060028501929190910190611d92565b5050507f048094af00d5b1e004ae2a3f03c2bd4897a83b5672ed2b02b7b3416b9709805c428585856040516112d694939291906124ea565b60405180910390a16000858152600c60205260409081902054905163868d08f760e01b81526001600160a01b039091169063868d08f79061131b9087906004016124e1565b60206040518083038186803b15801561133357600080fd5b505afa158015611347573d6000803e3d6000fd5b505050506040513d601f19601f8201168201806040525081019061136b9190611edb565b6113b15760026005828154811061137e57fe5b60009182526020909120600360069092020101805461ff0019166101008360028111156113a757fe5b02179055506113ef565b6001600582815481106113c057fe5b60009182526020909120600360069092020101805461ff0019166101008360028111156113e957fe5b02179055505b5050505050565b60095490565b6005818154811061140957fe5b60009182526020909120600690910201805460018201546002830154600390930154919350919060ff8082169161010090041685565b6001600160a01b0382166000908152600660205260408120548190156114e45760005b6004548110156114e2576114d86005858154811061147c57fe5b906000526020600020906006020160040160006004848154811061149c57fe5b60009182526020808320909101546001600160a01b0390811684528382019490945260409283018220938a168252929092529020548390611c28565b9150600101611462565b505b90505b92915050565b6114f5611a12565b6000546001600160a01b039081169116146115225760405162461bcd60e51b81526004016104f2906123aa565b6001600160a01b0381166115485760405162461bcd60e51b81526004016104f290612230565b600080546040516001600160a01b03808516939216917f8be0079c531659141344cd1fd0a4f28419497f9722a3daafe3b4186f6b6457e091a3600080546001600160a01b0319166001600160a01b0392909216919091179055565b6002546001600160a01b03163314156115ce5760405162461bcd60e51b81526004016104f2906122ad565b6000600582815481106115dd57fe5b600091825260208083206001600160a01b0387168452600460069093020191909101815260408083203384529091529020541161162c5760405162461bcd60e51b81526004016104f2906122dc565b61163582611bcd565b6116515760405162461bcd60e51b81526004016104f29061240b565b60006005828154811061166057fe5b600091825260208083206001600160a01b038716845260046006909302019190910181526040808320338452909152812054600354600580549294506116aa9286908110610af957fe5b90506000600584815481106116bb57fe5b600091825260208083206001600160a01b0389168452600460069093020191909101815260408083203384529091529020556007546116fa90836119d0565b6007556001600160a01b03841663a9059cbb3361171785856119d0565b6040518363ffffffff1660e01b815260040161173492919061208d565b602060405180830381600087803b15801561174e57600080fd5b505af1158015611762573d6000803e3d6000fd5b505050506040513d601f19601f820116820180604052508101906117869190611edb565b50336000908152600660205260409020546117a29060016119d0565b3360009081526006602052604090208190556117ed5760006117c333611cd6565b9050600381815481106117d257fe5b600091825260209091200180546001600160a01b0319169055505b50505050565b6000606060006060806060600e8054905067ffffffffffffffff8111801561181a57600080fd5b50604051908082528060200260200182016040528015611844578160200160208202803683370190505b50905060005b600e548110156118be57600c6000600e838154811061186557fe5b9060005260206000200154815260200190815260200160002060009054906101000a90046001600160a01b031682828151811061189e57fe5b6001600160a01b039092166020928302919091019091015260010161184a565b506118c7610c14565b600854600a805460408051602060026001851615610100026000190190941693909304601f8101849004840282018401909252818152929392600e92879286918301828280156119585780601f1061192d57610100808354040283529160200191611958565b820191906000526020600020905b81548152906001019060200180831161193b57829003601f168201915b50505050509350818054806020026020016040519081016040528092919081815260200182805480156119aa57602002820191906000526020600020905b815481526020019060010190808311611996575b5050505050915095509550955095509550509091929394565b6003818154811061082c57fe5b60006114e483836040518060400160405280601e81526020017f536166654d6174683a207375627472616374696f6e206f766572666c6f770000815250611d2f565b3390565b611a1e611e10565b82815260208101828152600060808301818152600580546001810182559252835160069092027f036b6384b5eca791c62761152d0c79bb0604c104a5fb6f4eb0703f3154bb3db0810192835592517f036b6384b5eca791c62761152d0c79bb0604c104a5fb6f4eb0703f3154bb3db184015560408401517f036b6384b5eca791c62761152d0c79bb0604c104a5fb6f4eb0703f3154bb3db284015560608401517f036b6384b5eca791c62761152d0c79bb0604c104a5fb6f4eb0703f3154bb3db3909301805493151560ff199094169390931780845590518493909161ff001916610100836002811115611b0e57fe5b021790555050600554611b23915060016119d0565b6040517ff791e873e3b67fe74b29aeede7bcbbdaa59c4b64e542571183cd837aa56f6ac990600090a2505050565b600082611b60575060006114e7565b82820282848281611b6d57fe5b04146114e45760405162461bcd60e51b81526004016104f290612369565b60006114e483836040518060400160405280601a81526020017f536166654d6174683a206469766973696f6e206279207a65726f000000000000815250611d5b565b6000805b600454811015611c1f57826001600160a01b031660048281548110611bf257fe5b6000918252602090912001546001600160a01b03161415611c175760019150506104b8565b600101611bd1565b50600092915050565b6000828201838110156114e45760405162461bcd60e51b81526004016104f290612276565b600060058281548110611c5c57fe5b600091825260208083206001600160a01b038781168552600693909302016004018152604080842092881684529190529020541161114e576001600160a01b038316600090815260066020526040902054611cb8906001611c28565b6001600160a01b038416600090815260066020526040902055505050565b6000805b600354811015611d2557826001600160a01b031660038281548110611cfb57fe5b6000918252602090912001546001600160a01b03161415611d1d5790506104b8565b600101611cda565b5060001992915050565b60008184841115611d535760405162461bcd60e51b81526004016104f291906121c7565b505050900390565b60008183611d7c5760405162461bcd60e51b81526004016104f291906121c7565b506000838581611d8857fe5b0495945050505050565b828054600181600116156101000203166002900490600052602060002090601f016020900481019282601f10611dd357805160ff1916838001178555611e00565b82800160010185558215611e00579182015b82811115611e00578251825591602001919060010190611de5565b50611e0c929150611e4b565b5090565b6040518060a0016040528060008152602001600081526020016000815260200160001515815260200160006002811115611e4657fe5b905290565b5b80821115611e0c5760008155600101611e4c565b600060208284031215611e71578081fd5b81356114e481612586565b60008060408385031215611e8e578081fd5b8235611e9981612586565b946020939093013593505050565b600080600060608486031215611ebb578081fd5b8335611ec681612586565b95602085013595506040909401359392505050565b600060208284031215611eec578081fd5b815180151581146114e4578182fd5b600060208284031215611f0c578081fd5b5035919050565b60008060408385031215611f25578182fd5b50508035926020909101359150565b600080600080600060808688031215611f4b578081fd5b8535945060208601359350604086013567ffffffffffffffff80821115611f70578283fd5b818801915088601f830112611f83578283fd5b813581811115611f91578384fd5b896020828501011115611fa2578384fd5b96999598505060200195606001359392505050565b600060208284031215611fc8578081fd5b81516114e481612586565b600080600060608486031215611fe7578283fd5b833592506020840135611ff981612586565b929592945050506040919091013590565b60008151808452815b8181101561202f57602081850181015186830182015201612013565b818111156120405782602083870101525b50601f01601f19169290920160200192915050565b6001600160a01b0391909116815260200190565b6001600160a01b039384168152919092166020820152604081019190915260600190565b6001600160a01b03929092168252602082015260400190565b600060018060a01b038088168352602060a0818501526120c960a085018961200a565b604085018890528481036060860152865180825282880191830190855b81811015612102578351835292840192918401916001016120e6565b505085810360808701528651808252908301915082870190855b8181101561213a57825186168452928401929184019160010161211c565b50919b9a5050505050505050505050565b60208082528251828201819052600091906040908185019080840286018301878501865b838110156121b957888303603f19018552815180518452878101518885015286015160608785018190526121a58186018361200a565b96890196945050509086019060010161216f565b509098975050505050505050565b6000602082526114e4602083018461200a565b602080825260139082015272534c41206e6f7420726573706563746564202160681b604082015260600190565b6020808252600f908201526e534c4120726573706563746564202160881b604082015260600190565b60208082526026908201527f4f776e61626c653a206e6577206f776e657220697320746865207a65726f206160408201526564647265737360d01b606082015260800190565b6020808252601b908201527f536166654d6174683a206164646974696f6e206f766572666c6f770000000000604082015260600190565b602080825260159082015274596f752061726520612076616c696461746f72202160581b604082015260600190565b6020808252601b908201527f7374616b696e672062616c616e63652063616e6e6f7420626520300000000000604082015260600190565b60208082526036908201527f596f75206861766520616c726561647920636c61696d656420796f75722072656040820152757761726420666f72207468697320706572696f64202160501b606082015260800190565b60208082526021908201527f536166654d6174683a206d756c7469706c69636174696f6e206f766572666c6f6040820152607760f81b606082015260800190565b6020808252818101527f4f776e61626c653a2063616c6c6572206973206e6f7420746865206f776e6572604082015260600190565b6020808252601290820152710616d6f756e742063616e6e6f7420626520360741b604082015260600190565b60208082526026908201527f746f6b656e2073686f756c64206265206175746f726973656420746f206265206040820152651cdd185ad95960d21b606082015260800190565b602080825260199082015278596f7520617265206e6f7420612076616c696461746f72202160381b604082015260600190565b6020808252603c908201527f596f75206861766520616c726561647920636c61696d656420796f757220636f60408201527f6d70656e736174696f6e20666f72207468697320706572696f64202100000000606082015260800190565b90815260200190565b60008582528460208301526060604083015282606083015282846080840137818301608090810191909152601f909201601f191601019392505050565b600084825283602083015260606040830152612546606083018461200a565b95945050505050565b8581526020810185905260408101849052821515606082015260a081016003831061257657fe5b8260808301529695505050505050565b6001600160a01b038116811461259b57600080fd5b5056fea2646970667358221220d17973a1624242c9e7c758ec56eafae82d09772b11017e70d1d0fdfec7f736ec64736f6c634300060c00338be0079c531659141344cd1fd0a4f28419497f9722a3daafe3b4186f6b6457e0",
  "immutableReferences": {},
  "source": "// SPDX-License-Identifier: MIT\npragma solidity ^0.6.0;\npragma experimental ABIEncoderV2;\n\nimport \"@openzeppelin/contracts/access/Ownable.sol\";\nimport \"@openzeppelin/contracts/token/ERC20/IERC20.sol\";\nimport \"@openzeppelin/contracts/math/SafeMath.sol\";\nimport \"../interfaces/IMessenger.sol\";\nimport \"../SLO/SLO.sol\";\nimport \"../SLARegistry.sol\";\nimport \"./Staking.sol\";\n\n/**\n * @title SLA\n * @dev SLA is a service level agreement contract used for service downtime\n * compensation\n */\ncontract SLA is Ownable, Staking {\n    using SafeMath for uint256;\n\n    // The required amount to stake when subscribing to the agreement\n    uint256 public stake;\n\n    // The time between SLI registration\n    uint256 private sliInterval;\n\n    // The ipfs hash that stores extra information about the agreement\n    string public ipfsHash;\n\n    // The address of the registry contract\n    SLARegistry public registry;\n\n    // Struct used for storing registered SLI's\n    struct SLI {\n        uint256 timestamp;\n        uint256 value;\n        string ipfsHash;\n    }\n\n    // Mapping to get SLO addresses from SLO names in bytes32\n    mapping(bytes32 => SLO) public SLOs;\n\n    // Mapping to get SLI structs from SLO names in bytes32\n    mapping(bytes32 => SLI[]) public SLIs;\n\n    // Array storing the names of the SLO's of this agreement\n    bytes32[] SLONames;\n\n    /**\n     * @dev event for SLI creation logging\n     * @param _timestamp the time the SLI has been registered\n     * @param _value the value of the SLI\n     * @param _hash the ipfs hash that stores additional info\n     */\n    event SLICreated(uint256 _timestamp, uint256 _value, string _hash);\n\n    /**\n     * @dev Throws if called by any address other than the Oraclize or\n     * messenger contract.\n     */\n    modifier onlyMessenger() {\n        require(msg.sender == address(registry.messenger()));\n        _;\n    }\n\n    /**\n     * @dev constructor\n     * @param _owner the owner of the service level agreement\n     * @param _SLONames the names of the service level objectives in a bytes32\n     * array\n     * @param _SLOs an array with the service level objective addresses\n     * @param _stake the amount required to stake when subscribing to the\n     * agreement\n     * @param _ipfsHash the ipfs hash that stores extra information about the\n     * agreement\n     */\n    constructor(\n        address _owner,\n        bytes32[] memory _SLONames,\n        SLO[] memory _SLOs,\n        uint256 _stake,\n        string memory _ipfsHash,\n        uint256 _sliInterval,\n        bDSLAToken _tokenAddress,\n        uint[] memory _sla_period_starts, \n        uint[] memory _sla_period_ends\n    ) public Staking(_tokenAddress, _sla_period_starts, _sla_period_ends, _owner) {\n        require(_SLOs.length < 5);\n        require(_SLONames.length == _SLOs.length);\n\n        for (uint256 i = 0; i < _SLOs.length; i++) {\n            SLOs[_SLONames[i]] = _SLOs[i];\n        }\n\n        transferOwnership(_owner);\n        SLONames = _SLONames;\n        stake = _stake;\n        ipfsHash = _ipfsHash;\n        registry = SLARegistry(msg.sender);\n        sliInterval = _sliInterval;\n    }\n\n    /**\n     * @dev external function to register SLI's and check them against the SLO's\n     * @param _SLOName the name of the SLO in bytes32\n     * @param _value the value of the SLI to check\n     * @param _hash the ipfs hash with additional information\n     */\n    function registerSLI(\n        bytes32 _SLOName,\n        uint256 _value,\n        string calldata _hash,\n        uint256 _period\n    ) external onlyMessenger {\n        SLIs[_SLOName].push(SLI(now, _value, _hash));\n\n        emit SLICreated(now, _value, _hash);\n\n        if (!SLOs[_SLOName].isSLOHonored(_value)) {\n            periods[_period].status = Status.NotRespected;\n        } else {\n            periods[_period].status = Status.Respected;\n        }\n    }\n\n    /**\n     * @dev external function to get SLI\n     * @param _SLOName the name of the SLO in bytes32\n     */\n    function getSLI(bytes32 _SLOName) public view returns (SLI[] memory) {\n        return SLIs[_SLOName];\n    }\n\n    /**\n     * @dev external view function that returns the sliInterval value\n     */\n    function getSliInterval() external view returns (uint256) {\n        return sliInterval;\n    }\n\n    /**\n     * @dev external view function that returns all agreement information\n     */\n\n    function getDetails()\n        external\n        view\n        returns (\n            address,\n            string memory,\n            uint256,\n            bytes32[] memory,\n            SLO[] memory\n        )\n    {\n        SLO[] memory _SLOAddresses = new SLO[](SLONames.length);\n\n        for (uint256 i = 0; i < SLONames.length; i++) {\n            _SLOAddresses[i] = SLOs[SLONames[i]];\n        }\n\n        return (owner(), ipfsHash, stake, SLONames, _SLOAddresses);\n    }\n}\n",
  "sourcePath": "/Users/wilhempujar/Development/stacktical-dsla-contracts/contracts/SLA/SLA.sol",
  "compiler": {
    "name": "solc",
    "version": "0.6.12+commit.27d51765.Emscripten.clang"
  },
  "schemaVersion": "3.2.5",
  "updatedAt": "2020-10-17T00:08:07.889Z",
  "devdoc": {
    "details": "SLA is a service level agreement contract used for service downtime compensation",
    "events": {
      "SLICreated(uint256,uint256,string)": {
        "details": "event for SLI creation logging",
        "params": {
          "_hash": "the ipfs hash that stores additional info",
          "_timestamp": "the time the SLI has been registered",
          "_value": "the value of the SLI"
        }
      }
    },
    "kind": "dev",
    "methods": {
      "constructor": {
        "details": "constructor",
        "params": {
          "_SLONames": "the names of the service level objectives in a bytes32 array",
          "_SLOs": "an array with the service level objective addresses",
          "_ipfsHash": "the ipfs hash that stores extra information about the agreement",
          "_owner": "the owner of the service level agreement",
          "_stake": "the amount required to stake when subscribing to the agreement"
        }
      },
      "getDetails()": {
        "details": "external view function that returns all agreement information"
      },
      "getSLI(bytes32)": {
        "details": "external function to get SLI",
        "params": {
          "_SLOName": "the name of the SLO in bytes32"
        }
      },
      "getSliInterval()": {
        "details": "external view function that returns the sliInterval value"
      },
      "owner()": {
        "details": "Returns the address of the current owner."
      },
      "registerSLI(bytes32,uint256,string,uint256)": {
        "details": "external function to register SLI's and check them against the SLO's",
        "params": {
          "_SLOName": "the name of the SLO in bytes32",
          "_hash": "the ipfs hash with additional information",
          "_value": "the value of the SLI to check"
        }
      },
      "renounceOwnership()": {
        "details": "Leaves the contract without owner. It will not be possible to call `onlyOwner` functions anymore. Can only be called by the current owner. NOTE: Renouncing ownership will leave the contract without an owner, thereby removing any functionality that is only available to the owner."
      },
      "stakersCount()": {
        "details": "public view function that returns the total amount of stakers"
      },
      "transferOwnership(address)": {
        "details": "Transfers ownership of the contract to a new account (`newOwner`). Can only be called by the current owner."
      }
    },
    "title": "SLA",
    "version": 1
  },
  "userdoc": {
    "kind": "user",
    "methods": {},
    "version": 1
  }
}