{
  "contractName": "SLA",
  "abi": [
    {
      "inputs": [
        {
          "internalType": "address",
          "name": "_owner",
          "type": "address"
        },
        {
          "internalType": "bytes32[]",
          "name": "_SLONames",
          "type": "bytes32[]"
        },
        {
          "internalType": "contract SLO[]",
          "name": "_SLOs",
          "type": "address[]"
        },
        {
          "internalType": "uint256",
          "name": "_stake",
          "type": "uint256"
        },
        {
          "internalType": "string",
          "name": "_ipfsHash",
          "type": "string"
        },
        {
          "internalType": "uint256",
          "name": "_sliInterval",
          "type": "uint256"
        },
        {
          "internalType": "contract bDSLAToken",
          "name": "_tokenAddress",
          "type": "address"
        }
      ],
      "stateMutability": "nonpayable",
      "type": "constructor"
    },
    {
      "anonymous": false,
      "inputs": [
        {
          "indexed": true,
          "internalType": "address",
          "name": "previousOwner",
          "type": "address"
        },
        {
          "indexed": true,
          "internalType": "address",
          "name": "newOwner",
          "type": "address"
        }
      ],
      "name": "OwnershipTransferred",
      "type": "event"
    },
    {
      "anonymous": false,
      "inputs": [
        {
          "indexed": false,
          "internalType": "uint256",
          "name": "_timestamp",
          "type": "uint256"
        },
        {
          "indexed": false,
          "internalType": "uint256",
          "name": "_value",
          "type": "uint256"
        },
        {
          "indexed": false,
          "internalType": "string",
          "name": "_hash",
          "type": "string"
        }
      ],
      "name": "SLICreated",
      "type": "event"
    },
    {
      "inputs": [
        {
          "internalType": "bytes32",
          "name": "",
          "type": "bytes32"
        },
        {
          "internalType": "uint256",
          "name": "",
          "type": "uint256"
        }
      ],
      "name": "SLIs",
      "outputs": [
        {
          "internalType": "uint256",
          "name": "timestamp",
          "type": "uint256"
        },
        {
          "internalType": "uint256",
          "name": "value",
          "type": "uint256"
        },
        {
          "internalType": "string",
          "name": "ipfsHash",
          "type": "string"
        }
      ],
      "stateMutability": "view",
      "type": "function"
    },
    {
      "inputs": [
        {
          "internalType": "bytes32",
          "name": "",
          "type": "bytes32"
        }
      ],
      "name": "SLOs",
      "outputs": [
        {
          "internalType": "contract SLO",
          "name": "",
          "type": "address"
        }
      ],
      "stateMutability": "view",
      "type": "function"
    },
    {
      "inputs": [
        {
          "internalType": "address",
          "name": "_token",
          "type": "address"
        }
      ],
      "name": "addAllowedTokens",
      "outputs": [],
      "stateMutability": "nonpayable",
      "type": "function"
    },
    {
      "inputs": [],
      "name": "bDSLA",
      "outputs": [
        {
          "internalType": "contract bDSLAToken",
          "name": "",
          "type": "address"
        }
      ],
      "stateMutability": "view",
      "type": "function"
    },
    {
      "inputs": [
        {
          "internalType": "uint256",
          "name": "_period",
          "type": "uint256"
        }
      ],
      "name": "claimCompensation",
      "outputs": [],
      "stateMutability": "nonpayable",
      "type": "function"
    },
    {
      "inputs": [
        {
          "internalType": "uint256",
          "name": "_period",
          "type": "uint256"
        }
      ],
      "name": "claimReward",
      "outputs": [],
      "stateMutability": "nonpayable",
      "type": "function"
    },
    {
      "inputs": [
        {
          "internalType": "address",
          "name": "_user",
          "type": "address"
        },
        {
          "internalType": "uint256",
          "name": "_period",
          "type": "uint256"
        }
      ],
      "name": "getUserTotalValue",
      "outputs": [
        {
          "internalType": "uint256",
          "name": "",
          "type": "uint256"
        }
      ],
      "stateMutability": "view",
      "type": "function"
    },
    {
      "inputs": [],
      "name": "ipfsHash",
      "outputs": [
        {
          "internalType": "string",
          "name": "",
          "type": "string"
        }
      ],
      "stateMutability": "view",
      "type": "function"
    },
    {
      "inputs": [],
      "name": "owner",
      "outputs": [
        {
          "internalType": "address",
          "name": "",
          "type": "address"
        }
      ],
      "stateMutability": "view",
      "type": "function"
    },
    {
      "inputs": [
        {
          "internalType": "uint256",
          "name": "",
          "type": "uint256"
        }
      ],
      "name": "periods",
      "outputs": [
        {
          "internalType": "uint256",
          "name": "sla_period_start",
          "type": "uint256"
        },
        {
          "internalType": "uint256",
          "name": "sla_period_end",
          "type": "uint256"
        },
        {
          "internalType": "uint256",
          "name": "claimed_reward",
          "type": "uint256"
        },
        {
          "internalType": "bool",
          "name": "claimed",
          "type": "bool"
        },
        {
          "internalType": "enum Staking.Status",
          "name": "status",
          "type": "uint8"
        }
      ],
      "stateMutability": "view",
      "type": "function"
    },
    {
      "inputs": [],
      "name": "registry",
      "outputs": [
        {
          "internalType": "contract SLARegistry",
          "name": "",
          "type": "address"
        }
      ],
      "stateMutability": "view",
      "type": "function"
    },
    {
      "inputs": [],
      "name": "renounceOwnership",
      "outputs": [],
      "stateMutability": "nonpayable",
      "type": "function"
    },
    {
      "inputs": [],
      "name": "stake",
      "outputs": [
        {
          "internalType": "uint256",
          "name": "",
          "type": "uint256"
        }
      ],
      "stateMutability": "view",
      "type": "function"
    },
    {
      "inputs": [
        {
          "internalType": "uint256",
          "name": "_amount",
          "type": "uint256"
        },
        {
          "internalType": "address",
          "name": "_token",
          "type": "address"
        },
        {
          "internalType": "uint256",
          "name": "_period",
          "type": "uint256"
        }
      ],
      "name": "stakeTokens",
      "outputs": [],
      "stateMutability": "nonpayable",
      "type": "function"
    },
    {
      "inputs": [
        {
          "internalType": "uint256",
          "name": "",
          "type": "uint256"
        }
      ],
      "name": "stakers",
      "outputs": [
        {
          "internalType": "address",
          "name": "",
          "type": "address"
        }
      ],
      "stateMutability": "view",
      "type": "function"
    },
    {
      "inputs": [],
      "name": "totalStaked",
      "outputs": [
        {
          "internalType": "uint256",
          "name": "",
          "type": "uint256"
        }
      ],
      "stateMutability": "view",
      "type": "function"
    },
    {
      "inputs": [
        {
          "internalType": "address",
          "name": "newOwner",
          "type": "address"
        }
      ],
      "name": "transferOwnership",
      "outputs": [],
      "stateMutability": "nonpayable",
      "type": "function"
    },
    {
      "inputs": [
        {
          "internalType": "address",
          "name": "",
          "type": "address"
        }
      ],
      "name": "uniqueTokensStaked",
      "outputs": [
        {
          "internalType": "uint256",
          "name": "",
          "type": "uint256"
        }
      ],
      "stateMutability": "view",
      "type": "function"
    },
    {
      "inputs": [],
      "name": "validator",
      "outputs": [
        {
          "internalType": "address",
          "name": "",
          "type": "address"
        }
      ],
      "stateMutability": "view",
      "type": "function"
    },
    {
      "inputs": [
        {
          "internalType": "address",
          "name": "_token",
          "type": "address"
        },
        {
          "internalType": "uint256",
          "name": "_period",
          "type": "uint256"
        }
      ],
      "name": "withdraw",
      "outputs": [],
      "stateMutability": "nonpayable",
      "type": "function"
    },
    {
      "inputs": [
        {
          "internalType": "address",
          "name": "_token",
          "type": "address"
        },
        {
          "internalType": "uint256",
          "name": "_amount",
          "type": "uint256"
        },
        {
          "internalType": "uint256",
          "name": "_period",
          "type": "uint256"
        }
      ],
      "name": "withdrawAndStake",
      "outputs": [],
      "stateMutability": "nonpayable",
      "type": "function"
    },
    {
      "inputs": [
        {
          "internalType": "bytes32",
          "name": "_SLOName",
          "type": "bytes32"
        },
        {
          "internalType": "uint256",
          "name": "_value",
          "type": "uint256"
        },
        {
          "internalType": "string",
          "name": "_hash",
          "type": "string"
        },
        {
          "internalType": "uint256",
          "name": "_period",
          "type": "uint256"
        }
      ],
      "name": "registerSLI",
      "outputs": [],
      "stateMutability": "nonpayable",
      "type": "function"
    },
    {
      "inputs": [
        {
          "internalType": "bytes32",
          "name": "_SLOName",
          "type": "bytes32"
        }
      ],
      "name": "getSLI",
      "outputs": [
        {
          "components": [
            {
              "internalType": "uint256",
              "name": "timestamp",
              "type": "uint256"
            },
            {
              "internalType": "uint256",
              "name": "value",
              "type": "uint256"
            },
            {
              "internalType": "string",
              "name": "ipfsHash",
              "type": "string"
            }
          ],
          "internalType": "struct SLA.SLI[]",
          "name": "",
          "type": "tuple[]"
        }
      ],
      "stateMutability": "view",
      "type": "function"
    },
    {
      "inputs": [],
      "name": "getSliInterval",
      "outputs": [
        {
          "internalType": "uint256",
          "name": "",
          "type": "uint256"
        }
      ],
      "stateMutability": "view",
      "type": "function"
    },
    {
      "inputs": [],
      "name": "getDetails",
      "outputs": [
        {
          "internalType": "address",
          "name": "",
          "type": "address"
        },
        {
          "internalType": "string",
          "name": "",
          "type": "string"
        },
        {
          "internalType": "uint256",
          "name": "",
          "type": "uint256"
        },
        {
          "internalType": "bytes32[]",
          "name": "",
          "type": "bytes32[]"
        },
        {
          "internalType": "contract SLO[]",
          "name": "",
          "type": "address[]"
        }
      ],
      "stateMutability": "view",
      "type": "function"
    }
  ],
  "bytecode": "0x60806040523480156200001157600080fd5b50604051620048653803806200486583398181016040528101906200003791906200081b565b8060006200004a6200034360201b60201c565b9050806000806101000a81548173ffffffffffffffffffffffffffffffffffffffff021916908373ffffffffffffffffffffffffffffffffffffffff1602179055508073ffffffffffffffffffffffffffffffffffffffff16600073ffffffffffffffffffffffffffffffffffffffff167f8be0079c531659141344cd1fd0a4f28419497f9722a3daafe3b4186f6b6457e060405160405180910390a35080600160006101000a81548173ffffffffffffffffffffffffffffffffffffffff021916908373ffffffffffffffffffffffffffffffffffffffff1602179055506004600160009054906101000a900473ffffffffffffffffffffffffffffffffffffffff169080600181540180825580915050600190039060005260206000200160009091909190916101000a81548173ffffffffffffffffffffffffffffffffffffffff021916908373ffffffffffffffffffffffffffffffffffffffff16021790555033600260006101000a81548173ffffffffffffffffffffffffffffffffffffffff021916908373ffffffffffffffffffffffffffffffffffffffff160217905550506005855110620001ff57600080fd5b84518651146200020e57600080fd5b60005b8551811015620002a3578581815181106200022857fe5b6020026020010151600c60008984815181106200024157fe5b6020026020010151815260200190815260200160002060006101000a81548173ffffffffffffffffffffffffffffffffffffffff021916908373ffffffffffffffffffffffffffffffffffffffff160217905550808060010191505062000211565b50620002b5876200034b60201b60201c565b85600e9080519060200190620002cd9291906200051b565b508360088190555082600a9080519060200190620002ed9291906200056d565b5033600b60006101000a81548173ffffffffffffffffffffffffffffffffffffffff021916908373ffffffffffffffffffffffffffffffffffffffff160217905550816009819055505050505050505062000be7565b600033905090565b6200035b6200034360201b60201c565b73ffffffffffffffffffffffffffffffffffffffff1660008054906101000a900473ffffffffffffffffffffffffffffffffffffffff1673ffffffffffffffffffffffffffffffffffffffff1614620003eb576040517f08c379a0000000000000000000000000000000000000000000000000000000008152600401620003e290620009df565b60405180910390fd5b600073ffffffffffffffffffffffffffffffffffffffff168173ffffffffffffffffffffffffffffffffffffffff1614156200045e576040517f08c379a00000000000000000000000000000000000000000000000000000000081526004016200045590620009bd565b60405180910390fd5b8073ffffffffffffffffffffffffffffffffffffffff1660008054906101000a900473ffffffffffffffffffffffffffffffffffffffff1673ffffffffffffffffffffffffffffffffffffffff167f8be0079c531659141344cd1fd0a4f28419497f9722a3daafe3b4186f6b6457e060405160405180910390a3806000806101000a81548173ffffffffffffffffffffffffffffffffffffffff021916908373ffffffffffffffffffffffffffffffffffffffff16021790555050565b8280548282559060005260206000209081019282156200055a579160200282015b82811115620005595782518255916020019190600101906200053c565b5b509050620005699190620005f4565b5090565b828054600181600116156101000203166002900490600052602060002090601f016020900481019282601f10620005b057805160ff1916838001178555620005e1565b82800160010185558215620005e1579182015b82811115620005e0578251825591602001919060010190620005c3565b5b509050620005f0919062000613565b5090565b5b808211156200060f576000816000905550600101620005f5565b5090565b5b808211156200062e57600081600090555060010162000614565b5090565b600081519050620006438162000b65565b92915050565b600082601f8301126200065b57600080fd5b8151620006726200066c8262000a2f565b62000a01565b915081818352602084019350602081019050838560208402820111156200069857600080fd5b60005b83811015620006cc5781620006b1888262000763565b8452602084019350602083019250506001810190506200069b565b5050505092915050565b600082601f830112620006e857600080fd5b8151620006ff620006f98262000a58565b62000a01565b915081818352602084019350602081019050838560208402820111156200072557600080fd5b60005b838110156200075957816200073e88826200077a565b84526020840193506020830192505060018101905062000728565b5050505092915050565b600081519050620007748162000b7f565b92915050565b6000815190506200078b8162000b99565b92915050565b600081519050620007a28162000bb3565b92915050565b600082601f830112620007ba57600080fd5b8151620007d1620007cb8262000a81565b62000a01565b91508082526020830160208301858383011115620007ee57600080fd5b620007fb83828462000b2f565b50505092915050565b600081519050620008158162000bcd565b92915050565b600080600080600080600060e0888a0312156200083757600080fd5b6000620008478a828b0162000632565b975050602088015167ffffffffffffffff8111156200086557600080fd5b620008738a828b0162000649565b965050604088015167ffffffffffffffff8111156200089157600080fd5b6200089f8a828b01620006d6565b9550506060620008b28a828b0162000804565b945050608088015167ffffffffffffffff811115620008d057600080fd5b620008de8a828b01620007a8565b93505060a0620008f18a828b0162000804565b92505060c0620009048a828b0162000791565b91505092959891949750929550565b60006200092260268362000aae565b91507f4f776e61626c653a206e6577206f776e657220697320746865207a65726f206160008301527f64647265737300000000000000000000000000000000000000000000000000006020830152604082019050919050565b60006200098a60208362000aae565b91507f4f776e61626c653a2063616c6c6572206973206e6f7420746865206f776e65726000830152602082019050919050565b60006020820190508181036000830152620009d88162000913565b9050919050565b60006020820190508181036000830152620009fa816200097b565b9050919050565b6000604051905081810181811067ffffffffffffffff8211171562000a2557600080fd5b8060405250919050565b600067ffffffffffffffff82111562000a4757600080fd5b602082029050602081019050919050565b600067ffffffffffffffff82111562000a7057600080fd5b602082029050602081019050919050565b600067ffffffffffffffff82111562000a9957600080fd5b601f19601f8301169050602081019050919050565b600082825260208201905092915050565b600062000acc8262000b05565b9050919050565b6000819050919050565b600062000aea8262000abf565b9050919050565b600062000afe8262000abf565b9050919050565b600073ffffffffffffffffffffffffffffffffffffffff82169050919050565b6000819050919050565b60005b8381101562000b4f57808201518184015260208101905062000b32565b8381111562000b5f576000848401525b50505050565b62000b708162000abf565b811462000b7c57600080fd5b50565b62000b8a8162000ad3565b811462000b9657600080fd5b50565b62000ba48162000add565b811462000bb057600080fd5b50565b62000bbe8162000af1565b811462000bca57600080fd5b50565b62000bd88162000b25565b811462000be457600080fd5b50565b613c6e8062000bf76000396000f3fe608060405234801561001057600080fd5b50600436106101735760003560e01c8063ae169a50116100de578063e7ab816a11610097578063f2fde38b11610071578063f2fde38b14610440578063f3fef3a31461045c578063fbbf93a014610478578063fd5e6dd11461049a57610173565b8063e7ab816a146103be578063ea4a1104146103dc578063f10bd7721461041057610173565b8063ae169a50146102ec578063b0227b4714610308578063b83e023414610338578063c623674f14610368578063cec534d614610386578063e23ef92c146103a257610173565b8063715018a611610130578063715018a61461023a57806375fdf2a9146102445780637b10399914610260578063817b1cd21461027e5780638da5cb5b1461029c57806394199c61146102ba57610173565b806302e8b89314610178578063171e44ea146101a85780633a4b66f1146101c45780633a5381b5146101e257806353e85fd5146102005780635f4efaba1461021c575b600080fd5b610192600480360381019061018d9190612db7565b6104ca565b60405161019f9190613681565b60405180910390f35b6101c260048036038101906101bd9190612cda565b6105f2565b005b6101cc6106ed565b6040516101d99190613876565b60405180910390f35b6101ea6106f3565b6040516101f7919061359e565b60405180910390f35b61021a60048036038101906102159190612ec5565b610719565b005b610224610b18565b60405161023191906136d9565b60405180910390f35b610242610b3e565b005b61025e60048036038101906102599190612d3f565b610c91565b005b610268611248565b60405161027591906136a3565b60405180910390f35b61028661126e565b6040516102939190613876565b60405180910390f35b6102a4611274565b6040516102b1919061359e565b60405180910390f35b6102d460048036038101906102cf9190612de0565b61129d565b6040516102e3939291906138d1565b60405180910390f35b61030660048036038101906103019190612ec5565b611379565b005b610322600480360381019061031d9190612db7565b611750565b60405161032f91906136be565b60405180910390f35b610352600480360381019061034d9190612cda565b611783565b60405161035f9190613876565b60405180910390f35b61037061179b565b60405161037d91906136f4565b60405180910390f35b6103a0600480360381019061039b9190612eee565b611839565b005b6103bc60048036038101906103b79190612e1c565b611adc565b005b6103c6611e0b565b6040516103d39190613876565b60405180910390f35b6103f660048036038101906103f19190612ec5565b611e15565b60405161040795949392919061390f565b60405180910390f35b61042a60048036038101906104259190612d03565b611e72565b6040516104379190613876565b60405180910390f35b61045a60048036038101906104559190612cda565b611fce565b005b61047660048036038101906104719190612d03565b612190565b005b610480612659565b604051610491959493929190613619565b60405180910390f35b6104b460048036038101906104af9190612ec5565b612871565b6040516104c1919061359e565b60405180910390f35b6060600d6000838152602001908152602001600020805480602002602001604051908101604052809291908181526020016000905b828210156105e757838290600052602060002090600302016040518060600160405290816000820154815260200160018201548152602001600282018054600181600116156101000203166002900480601f0160208091040260200160405190810160405280929190818152602001828054600181600116156101000203166002900480156105cf5780601f106105a4576101008083540402835291602001916105cf565b820191906000526020600020905b8154815290600101906020018083116105b257829003601f168201915b505050505081525050815260200190600101906104ff565b505050509050919050565b6105fa6128ad565b73ffffffffffffffffffffffffffffffffffffffff1660008054906101000a900473ffffffffffffffffffffffffffffffffffffffff1673ffffffffffffffffffffffffffffffffffffffff1614610687576040517f08c379a000000000000000000000000000000000000000000000000000000000815260040161067e90613816565b60405180910390fd5b6004819080600181540180825580915050600190039060005260206000200160009091909190916101000a81548173ffffffffffffffffffffffffffffffffffffffff021916908373ffffffffffffffffffffffffffffffffffffffff16021790555050565b60085481565b600260009054906101000a900473ffffffffffffffffffffffffffffffffffffffff1681565b806005818154811061072757fe5b906000526020600020906006020160000154421015801561076657506005818154811061075057fe5b9060005260206000209060060201600101544211155b61076f57600080fd5b600260009054906101000a900473ffffffffffffffffffffffffffffffffffffffff1673ffffffffffffffffffffffffffffffffffffffff163373ffffffffffffffffffffffffffffffffffffffff161415610800576040517f08c379a00000000000000000000000000000000000000000000000000000000081526004016107f790613796565b60405180910390fd5b60028081111561080c57fe5b6005838154811061081957fe5b906000526020600020906006020160030160019054906101000a900460ff16600281111561084357fe5b14610883576040517f08c379a000000000000000000000000000000000000000000000000000000000815260040161087a90613736565b60405180910390fd5b60006005838154811061089257fe5b906000526020600020906006020160050160003373ffffffffffffffffffffffffffffffffffffffff1673ffffffffffffffffffffffffffffffffffffffff1681526020019081526020016000205414610921576040517f08c379a000000000000000000000000000000000000000000000000000000000815260040161091890613856565b60405180910390fd5b600061092d3384611e72565b90506000610958600a61094a6003856128b590919063ffffffff16565b61292590919063ffffffff16565b905061096f8260075461296f90919063ffffffff16565b600781905550816005858154811061098357fe5b906000526020600020906006020160050160003373ffffffffffffffffffffffffffffffffffffffff1673ffffffffffffffffffffffffffffffffffffffff16815260200190815260200160002081905550600160009054906101000a900473ffffffffffffffffffffffffffffffffffffffff1673ffffffffffffffffffffffffffffffffffffffff1663a9059cbb33846040518363ffffffff1660e01b8152600401610a329291906135f0565b602060405180830381600087803b158015610a4c57600080fd5b505af1158015610a60573d6000803e3d6000fd5b505050506040513d601f19601f82011682018060405250810190610a849190612d8e565b50600160009054906101000a900473ffffffffffffffffffffffffffffffffffffffff1673ffffffffffffffffffffffffffffffffffffffff166342966c68826040518263ffffffff1660e01b8152600401610ae09190613876565b600060405180830381600087803b158015610afa57600080fd5b505af1158015610b0e573d6000803e3d6000fd5b5050505050505050565b600160009054906101000a900473ffffffffffffffffffffffffffffffffffffffff1681565b610b466128ad565b73ffffffffffffffffffffffffffffffffffffffff1660008054906101000a900473ffffffffffffffffffffffffffffffffffffffff1673ffffffffffffffffffffffffffffffffffffffff1614610bd3576040517f08c379a0000000000000000000000000000000000000000000000000000000008152600401610bca90613816565b60405180910390fd5b600073ffffffffffffffffffffffffffffffffffffffff1660008054906101000a900473ffffffffffffffffffffffffffffffffffffffff1673ffffffffffffffffffffffffffffffffffffffff167f8be0079c531659141344cd1fd0a4f28419497f9722a3daafe3b4186f6b6457e060405160405180910390a360008060006101000a81548173ffffffffffffffffffffffffffffffffffffffff021916908373ffffffffffffffffffffffffffffffffffffffff160217905550565b600260009054906101000a900473ffffffffffffffffffffffffffffffffffffffff1673ffffffffffffffffffffffffffffffffffffffff163373ffffffffffffffffffffffffffffffffffffffff161415610d22576040517f08c379a0000000000000000000000000000000000000000000000000000000008152600401610d1990613796565b60405180910390fd5b600060058281548110610d3157fe5b906000526020600020906006020160040160008573ffffffffffffffffffffffffffffffffffffffff1673ffffffffffffffffffffffffffffffffffffffff16815260200190815260200160002060003373ffffffffffffffffffffffffffffffffffffffff1673ffffffffffffffffffffffffffffffffffffffff1681526020019081526020016000205411610dfd576040517f08c379a0000000000000000000000000000000000000000000000000000000008152600401610df4906137b6565b60405180910390fd5b8273ffffffffffffffffffffffffffffffffffffffff166323b872dd3330856040518463ffffffff1660e01b8152600401610e3a939291906135b9565b602060405180830381600087803b158015610e5457600080fd5b505af1158015610e68573d6000803e3d6000fd5b505050506040513d601f19601f82011682018060405250810190610e8c9190612d8e565b50610f388260058381548110610e9e57fe5b906000526020600020906006020160040160008673ffffffffffffffffffffffffffffffffffffffff1673ffffffffffffffffffffffffffffffffffffffff16815260200190815260200160002060003373ffffffffffffffffffffffffffffffffffffffff1673ffffffffffffffffffffffffffffffffffffffff168152602001908152602001600020546129b990919063ffffffff16565b60058281548110610f4557fe5b906000526020600020906006020160040160008573ffffffffffffffffffffffffffffffffffffffff1673ffffffffffffffffffffffffffffffffffffffff16815260200190815260200160002060003373ffffffffffffffffffffffffffffffffffffffff1673ffffffffffffffffffffffffffffffffffffffff16815260200190815260200160002081905550610fe9826007546129b990919063ffffffff16565b600781905550600060058281548110610ffe57fe5b906000526020600020906006020160040160008573ffffffffffffffffffffffffffffffffffffffff1673ffffffffffffffffffffffffffffffffffffffff16815260200190815260200160002060003373ffffffffffffffffffffffffffffffffffffffff1673ffffffffffffffffffffffffffffffffffffffff16815260200190815260200160002054905060006110c4600380549050600585815481106110a457fe5b90600052602060002090600602016002015461292590919063ffffffff16565b90506000600584815481106110d557fe5b906000526020600020906006020160040160008773ffffffffffffffffffffffffffffffffffffffff1673ffffffffffffffffffffffffffffffffffffffff16815260200190815260200160002060003373ffffffffffffffffffffffffffffffffffffffff1673ffffffffffffffffffffffffffffffffffffffff168152602001908152602001600020819055506111798260075461296f90919063ffffffff16565b600781905550600160009054906101000a900473ffffffffffffffffffffffffffffffffffffffff1673ffffffffffffffffffffffffffffffffffffffff1663a9059cbb336111d1848661296f90919063ffffffff16565b6040518363ffffffff1660e01b81526004016111ee9291906135f0565b602060405180830381600087803b15801561120857600080fd5b505af115801561121c573d6000803e3d6000fd5b505050506040513d601f19601f820116820180604052508101906112409190612d8e565b505050505050565b600b60009054906101000a900473ffffffffffffffffffffffffffffffffffffffff1681565b60075481565b60008060009054906101000a900473ffffffffffffffffffffffffffffffffffffffff16905090565b600d60205281600052604060002081815481106112b657fe5b906000526020600020906003020160009150915050806000015490806001015490806002018054600181600116156101000203166002900480601f01602080910402602001604051908101604052809291908181526020018280546001816001161561010002031660029004801561136f5780601f106113445761010080835404028352916020019161136f565b820191906000526020600020905b81548152906001019060200180831161135257829003601f168201915b5050505050905083565b806005818154811061138757fe5b90600052602060002090600602016000015442101580156113c65750600581815481106113b057fe5b9060005260206000209060060201600101544211155b6113cf57600080fd5b600260009054906101000a900473ffffffffffffffffffffffffffffffffffffffff1673ffffffffffffffffffffffffffffffffffffffff163373ffffffffffffffffffffffffffffffffffffffff161461145f576040517f08c379a000000000000000000000000000000000000000000000000000000000815260040161145690613836565b60405180910390fd5b6001600281111561146c57fe5b6005838154811061147957fe5b906000526020600020906006020160030160019054906101000a900460ff1660028111156114a357fe5b146114e3576040517f08c379a00000000000000000000000000000000000000000000000000000000081526004016114da90613716565b60405180910390fd5b600582815481106114f057fe5b906000526020600020906006020160030160009054906101000a900460ff161561154f576040517f08c379a0000000000000000000000000000000000000000000000000000000008152600401611546906137d6565b60405180910390fd5b600061156b60058054905060075461292590919063ffffffff16565b90506000611596600a6115886003856128b590919063ffffffff16565b61292590919063ffffffff16565b90506115ad8260075461296f90919063ffffffff16565b60078190555081600585815481106115c157fe5b9060005260206000209060060201600201819055506001600585815481106115e557fe5b906000526020600020906006020160030160006101000a81548160ff021916908315150217905550600160009054906101000a900473ffffffffffffffffffffffffffffffffffffffff1673ffffffffffffffffffffffffffffffffffffffff1663a9059cbb33846040518363ffffffff1660e01b815260040161166a9291906135f0565b602060405180830381600087803b15801561168457600080fd5b505af1158015611698573d6000803e3d6000fd5b505050506040513d601f19601f820116820180604052508101906116bc9190612d8e565b50600160009054906101000a900473ffffffffffffffffffffffffffffffffffffffff1673ffffffffffffffffffffffffffffffffffffffff166342966c68826040518263ffffffff1660e01b81526004016117189190613876565b600060405180830381600087803b15801561173257600080fd5b505af1158015611746573d6000803e3d6000fd5b5050505050505050565b600c6020528060005260406000206000915054906101000a900473ffffffffffffffffffffffffffffffffffffffff1681565b60066020528060005260406000206000915090505481565b600a8054600181600116156101000203166002900480601f0160208091040260200160405190810160405280929190818152602001828054600181600116156101000203166002900480156118315780601f1061180657610100808354040283529160200191611831565b820191906000526020600020905b81548152906001019060200180831161181457829003601f168201915b505050505081565b8173ffffffffffffffffffffffffffffffffffffffff166323b872dd3330866040518463ffffffff1660e01b8152600401611876939291906135b9565b602060405180830381600087803b15801561189057600080fd5b505af11580156118a4573d6000803e3d6000fd5b505050506040513d601f19601f820116820180604052508101906118c89190612d8e565b5061197483600583815481106118da57fe5b906000526020600020906006020160040160008573ffffffffffffffffffffffffffffffffffffffff1673ffffffffffffffffffffffffffffffffffffffff16815260200190815260200160002060003373ffffffffffffffffffffffffffffffffffffffff1673ffffffffffffffffffffffffffffffffffffffff168152602001908152602001600020546129b990919063ffffffff16565b6005828154811061198157fe5b906000526020600020906006020160040160008473ffffffffffffffffffffffffffffffffffffffff1673ffffffffffffffffffffffffffffffffffffffff16815260200190815260200160002060003373ffffffffffffffffffffffffffffffffffffffff1673ffffffffffffffffffffffffffffffffffffffff16815260200190815260200160002081905550611a25836007546129b990919063ffffffff16565b6007819055506001600660003373ffffffffffffffffffffffffffffffffffffffff1673ffffffffffffffffffffffffffffffffffffffff168152602001908152602001600020541415611ad7576003339080600181540180825580915050600190039060005260206000200160009091909190916101000a81548173ffffffffffffffffffffffffffffffffffffffff021916908373ffffffffffffffffffffffffffffffffffffffff1602179055505b505050565b600b60009054906101000a900473ffffffffffffffffffffffffffffffffffffffff1673ffffffffffffffffffffffffffffffffffffffff16633cb747bf6040518163ffffffff1660e01b815260040160206040518083038186803b158015611b4457600080fd5b505afa158015611b58573d6000803e3d6000fd5b505050506040513d601f19601f82011682018060405250810190611b7c9190612e9c565b73ffffffffffffffffffffffffffffffffffffffff163373ffffffffffffffffffffffffffffffffffffffff1614611bb357600080fd5b600d6000868152602001908152602001600020604051806060016040528042815260200186815260200185858080601f016020809104026020016040519081016040528093929190818152602001838380828437600081840152601f19601f82011690508083019250505050505050815250908060018154018082558091505060019003906000526020600020906003020160009091909190915060008201518160000155602082015181600101556040820151816002019080519060200190611c7e929190612b8a565b5050507f048094af00d5b1e004ae2a3f03c2bd4897a83b5672ed2b02b7b3416b9709805c42858585604051611cb69493929190613891565b60405180910390a1600c600086815260200190815260200160002060009054906101000a900473ffffffffffffffffffffffffffffffffffffffff1673ffffffffffffffffffffffffffffffffffffffff1663868d08f7856040518263ffffffff1660e01b8152600401611d2a9190613876565b60206040518083038186803b158015611d4257600080fd5b505afa158015611d56573d6000803e3d6000fd5b505050506040513d601f19601f82011682018060405250810190611d7a9190612d8e565b611dc357600260058281548110611d8d57fe5b906000526020600020906006020160030160016101000a81548160ff02191690836002811115611db957fe5b0217905550611e04565b600160058281548110611dd257fe5b906000526020600020906006020160030160016101000a81548160ff02191690836002811115611dfe57fe5b02179055505b5050505050565b6000600954905090565b60058181548110611e2257fe5b90600052602060002090600602016000915090508060000154908060010154908060020154908060030160009054906101000a900460ff16908060030160019054906101000a900460ff16905085565b600080600090506000600660008673ffffffffffffffffffffffffffffffffffffffff1673ffffffffffffffffffffffffffffffffffffffff168152602001908152602001600020541115611fc45760005b600480549050811015611fc257611fb360058581548110611ee157fe5b9060005260206000209060060201600401600060048481548110611f0157fe5b9060005260206000200160009054906101000a900473ffffffffffffffffffffffffffffffffffffffff1673ffffffffffffffffffffffffffffffffffffffff1673ffffffffffffffffffffffffffffffffffffffff16815260200190815260200160002060008773ffffffffffffffffffffffffffffffffffffffff1673ffffffffffffffffffffffffffffffffffffffff16815260200190815260200160002054836129b990919063ffffffff16565b91508080600101915050611ec4565b505b8091505092915050565b611fd66128ad565b73ffffffffffffffffffffffffffffffffffffffff1660008054906101000a900473ffffffffffffffffffffffffffffffffffffffff1673ffffffffffffffffffffffffffffffffffffffff1614612063576040517f08c379a000000000000000000000000000000000000000000000000000000000815260040161205a90613816565b60405180910390fd5b600073ffffffffffffffffffffffffffffffffffffffff168173ffffffffffffffffffffffffffffffffffffffff1614156120d3576040517f08c379a00000000000000000000000000000000000000000000000000000000081526004016120ca90613756565b60405180910390fd5b8073ffffffffffffffffffffffffffffffffffffffff1660008054906101000a900473ffffffffffffffffffffffffffffffffffffffff1673ffffffffffffffffffffffffffffffffffffffff167f8be0079c531659141344cd1fd0a4f28419497f9722a3daafe3b4186f6b6457e060405160405180910390a3806000806101000a81548173ffffffffffffffffffffffffffffffffffffffff021916908373ffffffffffffffffffffffffffffffffffffffff16021790555050565b600260009054906101000a900473ffffffffffffffffffffffffffffffffffffffff1673ffffffffffffffffffffffffffffffffffffffff163373ffffffffffffffffffffffffffffffffffffffff161415612221576040517f08c379a000000000000000000000000000000000000000000000000000000000815260040161221890613796565b60405180910390fd5b60006005828154811061223057fe5b906000526020600020906006020160040160008473ffffffffffffffffffffffffffffffffffffffff1673ffffffffffffffffffffffffffffffffffffffff16815260200190815260200160002060003373ffffffffffffffffffffffffffffffffffffffff1673ffffffffffffffffffffffffffffffffffffffff16815260200190815260200160002054116122fc576040517f08c379a00000000000000000000000000000000000000000000000000000000081526004016122f3906137b6565b60405180910390fd5b60006005828154811061230b57fe5b906000526020600020906006020160040160008473ffffffffffffffffffffffffffffffffffffffff1673ffffffffffffffffffffffffffffffffffffffff16815260200190815260200160002060003373ffffffffffffffffffffffffffffffffffffffff1673ffffffffffffffffffffffffffffffffffffffff16815260200190815260200160002054905060006123d1600380549050600585815481106123b157fe5b90600052602060002090600602016002015461292590919063ffffffff16565b90506000600584815481106123e257fe5b906000526020600020906006020160040160008673ffffffffffffffffffffffffffffffffffffffff1673ffffffffffffffffffffffffffffffffffffffff16815260200190815260200160002060003373ffffffffffffffffffffffffffffffffffffffff1673ffffffffffffffffffffffffffffffffffffffff168152602001908152602001600020819055506124868260075461296f90919063ffffffff16565b6007819055508373ffffffffffffffffffffffffffffffffffffffff1663a9059cbb336124bc848661296f90919063ffffffff16565b6040518363ffffffff1660e01b81526004016124d99291906135f0565b602060405180830381600087803b1580156124f357600080fd5b505af1158015612507573d6000803e3d6000fd5b505050506040513d601f19601f8201168201806040525081019061252b9190612d8e565b5061257f6001600660003373ffffffffffffffffffffffffffffffffffffffff1673ffffffffffffffffffffffffffffffffffffffff1681526020019081526020016000205461296f90919063ffffffff16565b600660003373ffffffffffffffffffffffffffffffffffffffff1673ffffffffffffffffffffffffffffffffffffffff168152602001908152602001600020819055506000600660003373ffffffffffffffffffffffffffffffffffffffff1673ffffffffffffffffffffffffffffffffffffffff16815260200190815260200160002054141561265357600061261533612a0e565b90506003818154811061262457fe5b9060005260206000200160006101000a81549073ffffffffffffffffffffffffffffffffffffffff0219169055505b50505050565b6000606060006060806060600e8054905067ffffffffffffffff8111801561268057600080fd5b506040519080825280602002602001820160405280156126af5781602001602082028036833780820191505090505b50905060005b600e8054905081101561276057600c6000600e83815481106126d357fe5b9060005260206000200154815260200190815260200160002060009054906101000a900473ffffffffffffffffffffffffffffffffffffffff1682828151811061271957fe5b602002602001019073ffffffffffffffffffffffffffffffffffffffff16908173ffffffffffffffffffffffffffffffffffffffff168152505080806001019150506126b5565b50612769611274565b600a600854600e84838054600181600116156101000203166002900480601f0160208091040260200160405190810160405280929190818152602001828054600181600116156101000203166002900480156128065780601f106127db57610100808354040283529160200191612806565b820191906000526020600020905b8154815290600101906020018083116127e957829003601f168201915b505050505093508180548060200260200160405190810160405280929190818152602001828054801561285857602002820191906000526020600020905b815481526020019060010190808311612844575b5050505050915095509550955095509550509091929394565b6003818154811061287e57fe5b906000526020600020016000915054906101000a900473ffffffffffffffffffffffffffffffffffffffff1681565b600033905090565b6000808314156128c8576000905061291f565b60008284029050828482816128d957fe5b041461291a576040517f08c379a0000000000000000000000000000000000000000000000000000000008152600401612911906137f6565b60405180910390fd5b809150505b92915050565b600061296783836040518060400160405280601a81526020017f536166654d6174683a206469766973696f6e206279207a65726f000000000000815250612ace565b905092915050565b60006129b183836040518060400160405280601e81526020017f536166654d6174683a207375627472616374696f6e206f766572666c6f770000815250612b2f565b905092915050565b600080828401905083811015612a04576040517f08c379a00000000000000000000000000000000000000000000000000000000081526004016129fb90613776565b60405180910390fd5b8091505092915050565b600080600090505b600380549050811015612aa4578273ffffffffffffffffffffffffffffffffffffffff1660038281548110612a4757fe5b9060005260206000200160009054906101000a900473ffffffffffffffffffffffffffffffffffffffff1673ffffffffffffffffffffffffffffffffffffffff161415612a975780915050612ac9565b8080600101915050612a16565b507fffffffffffffffffffffffffffffffffffffffffffffffffffffffffffffffff90505b919050565b60008083118290612b15576040517f08c379a0000000000000000000000000000000000000000000000000000000008152600401612b0c91906136f4565b60405180910390fd5b506000838581612b2157fe5b049050809150509392505050565b6000838311158290612b77576040517f08c379a0000000000000000000000000000000000000000000000000000000008152600401612b6e91906136f4565b60405180910390fd5b5060008385039050809150509392505050565b828054600181600116156101000203166002900490600052602060002090601f016020900481019282601f10612bcb57805160ff1916838001178555612bf9565b82800160010185558215612bf9579182015b82811115612bf8578251825591602001919060010190612bdd565b5b509050612c069190612c0a565b5090565b5b80821115612c23576000816000905550600101612c0b565b5090565b600081359050612c3681613bc5565b92915050565b600081519050612c4b81613bdc565b92915050565b600081359050612c6081613bf3565b92915050565b600081519050612c7581613c0a565b92915050565b60008083601f840112612c8d57600080fd5b8235905067ffffffffffffffff811115612ca657600080fd5b602083019150836001820283011115612cbe57600080fd5b9250929050565b600081359050612cd481613c21565b92915050565b600060208284031215612cec57600080fd5b6000612cfa84828501612c27565b91505092915050565b60008060408385031215612d1657600080fd5b6000612d2485828601612c27565b9250506020612d3585828601612cc5565b9150509250929050565b600080600060608486031215612d5457600080fd5b6000612d6286828701612c27565b9350506020612d7386828701612cc5565b9250506040612d8486828701612cc5565b9150509250925092565b600060208284031215612da057600080fd5b6000612dae84828501612c3c565b91505092915050565b600060208284031215612dc957600080fd5b6000612dd784828501612c51565b91505092915050565b60008060408385031215612df357600080fd5b6000612e0185828601612c51565b9250506020612e1285828601612cc5565b9150509250929050565b600080600080600060808688031215612e3457600080fd5b6000612e4288828901612c51565b9550506020612e5388828901612cc5565b945050604086013567ffffffffffffffff811115612e7057600080fd5b612e7c88828901612c7b565b93509350506060612e8f88828901612cc5565b9150509295509295909350565b600060208284031215612eae57600080fd5b6000612ebc84828501612c66565b91505092915050565b600060208284031215612ed757600080fd5b6000612ee584828501612cc5565b91505092915050565b600080600060608486031215612f0357600080fd5b6000612f1186828701612cc5565b9350506020612f2286828701612c27565b9250506040612f3386828701612cc5565b9150509250925092565b6000612f4983836130df565b60208301905092915050565b6000612f6183836130fd565b60208301905092915050565b6000612f798383613530565b905092915050565b612f8a81613ab1565b82525050565b612f9981613a3a565b82525050565b6000612faa82613992565b612fb481856139f6565b9350612fbf83613962565b8060005b83811015612ff0578151612fd78882612f3d565b9750612fe2836139be565b925050600181019050612fc3565b5085935050505092915050565b60006130088261399d565b61301281856139e5565b935061301d83613972565b8060005b8381101561304e5781516130358882612f55565b9750613040836139cb565b925050600181019050613021565b5085935050505092915050565b6000613066826139a8565b6130708185613a07565b93508360208202850161308285613982565b8060005b858110156130be578484038952815161309f8582612f6d565b94506130aa836139d8565b925060208a01995050600181019050613086565b50829750879550505050505092915050565b6130d981613a4c565b82525050565b6130e881613a58565b82525050565b6130f781613ac3565b82525050565b61310681613ae7565b82525050565b61311581613ae7565b82525050565b61312481613b0b565b82525050565b61313381613b2f565b82525050565b60006131458385613a29565b9350613152838584613b65565b61315b83613ba7565b840190509392505050565b6000613171826139b3565b61317b8185613a18565b935061318b818560208601613b74565b61319481613ba7565b840191505092915050565b60006131aa826139b3565b6131b48185613a29565b93506131c4818560208601613b74565b6131cd81613ba7565b840191505092915050565b60006131e5601383613a29565b91507f534c41206e6f74207265737065637465642021000000000000000000000000006000830152602082019050919050565b6000613225600f83613a29565b91507f534c4120726573706563746564202100000000000000000000000000000000006000830152602082019050919050565b6000613265602683613a29565b91507f4f776e61626c653a206e6577206f776e657220697320746865207a65726f206160008301527f64647265737300000000000000000000000000000000000000000000000000006020830152604082019050919050565b60006132cb601b83613a29565b91507f536166654d6174683a206164646974696f6e206f766572666c6f7700000000006000830152602082019050919050565b600061330b601583613a29565b91507f596f752061726520612076616c696461746f72202100000000000000000000006000830152602082019050919050565b600061334b601b83613a29565b91507f7374616b696e672062616c616e63652063616e6e6f74206265203000000000006000830152602082019050919050565b600061338b603683613a29565b91507f596f75206861766520616c726561647920636c61696d656420796f757220726560008301527f7761726420666f72207468697320706572696f642021000000000000000000006020830152604082019050919050565b60006133f1602183613a29565b91507f536166654d6174683a206d756c7469706c69636174696f6e206f766572666c6f60008301527f77000000000000000000000000000000000000000000000000000000000000006020830152604082019050919050565b6000613457602083613a29565b91507f4f776e61626c653a2063616c6c6572206973206e6f7420746865206f776e65726000830152602082019050919050565b6000613497601983613a29565b91507f596f7520617265206e6f7420612076616c696461746f722021000000000000006000830152602082019050919050565b60006134d7603c83613a29565b91507f596f75206861766520616c726561647920636c61696d656420796f757220636f60008301527f6d70656e736174696f6e20666f72207468697320706572696f642021000000006020830152604082019050919050565b60006060830160008301516135486000860182613580565b50602083015161355b6020860182613580565b50604083015184820360408601526135738282613166565b9150508091505092915050565b61358981613aa7565b82525050565b61359881613aa7565b82525050565b60006020820190506135b36000830184612f90565b92915050565b60006060820190506135ce6000830186612f81565b6135db6020830185612f90565b6135e8604083018461358f565b949350505050565b60006040820190506136056000830185612f81565b613612602083018461358f565b9392505050565b600060a08201905061362e6000830188612f90565b8181036020830152613640818761319f565b905061364f604083018661358f565b81810360608301526136618185612f9f565b905081810360808301526136758184612ffd565b90509695505050505050565b6000602082019050818103600083015261369b818461305b565b905092915050565b60006020820190506136b860008301846130ee565b92915050565b60006020820190506136d3600083018461310c565b92915050565b60006020820190506136ee600083018461311b565b92915050565b6000602082019050818103600083015261370e818461319f565b905092915050565b6000602082019050818103600083015261372f816131d8565b9050919050565b6000602082019050818103600083015261374f81613218565b9050919050565b6000602082019050818103600083015261376f81613258565b9050919050565b6000602082019050818103600083015261378f816132be565b9050919050565b600060208201905081810360008301526137af816132fe565b9050919050565b600060208201905081810360008301526137cf8161333e565b9050919050565b600060208201905081810360008301526137ef8161337e565b9050919050565b6000602082019050818103600083015261380f816133e4565b9050919050565b6000602082019050818103600083015261382f8161344a565b9050919050565b6000602082019050818103600083015261384f8161348a565b9050919050565b6000602082019050818103600083015261386f816134ca565b9050919050565b600060208201905061388b600083018461358f565b92915050565b60006060820190506138a6600083018761358f565b6138b3602083018661358f565b81810360408301526138c6818486613139565b905095945050505050565b60006060820190506138e6600083018661358f565b6138f3602083018561358f565b8181036040830152613905818461319f565b9050949350505050565b600060a082019050613924600083018861358f565b613931602083018761358f565b61393e604083018661358f565b61394b60608301856130d0565b613958608083018461312a565b9695505050505050565b6000819050602082019050919050565b6000819050602082019050919050565b6000819050602082019050919050565b600081519050919050565b600081519050919050565b600081519050919050565b600081519050919050565b6000602082019050919050565b6000602082019050919050565b6000602082019050919050565b600082825260208201905092915050565b600082825260208201905092915050565b600082825260208201905092915050565b600082825260208201905092915050565b600082825260208201905092915050565b6000613a4582613a87565b9050919050565b60008115159050919050565b6000819050919050565b6000613a6d82613a3a565b9050919050565b6000819050613a8282613bb8565b919050565b600073ffffffffffffffffffffffffffffffffffffffff82169050919050565b6000819050919050565b6000613abc82613b41565b9050919050565b6000613ace82613ad5565b9050919050565b6000613ae082613a87565b9050919050565b6000613af282613af9565b9050919050565b6000613b0482613a87565b9050919050565b6000613b1682613b1d565b9050919050565b6000613b2882613a87565b9050919050565b6000613b3a82613a74565b9050919050565b6000613b4c82613b53565b9050919050565b6000613b5e82613a87565b9050919050565b82818337600083830152505050565b60005b83811015613b92578082015181840152602081019050613b77565b83811115613ba1576000848401525b50505050565b6000601f19601f8301169050919050565b60038110613bc257fe5b50565b613bce81613a3a565b8114613bd957600080fd5b50565b613be581613a4c565b8114613bf057600080fd5b50565b613bfc81613a58565b8114613c0757600080fd5b50565b613c1381613a62565b8114613c1e57600080fd5b50565b613c2a81613aa7565b8114613c3557600080fd5b5056fea2646970667358221220daef39448235e04c4287e9e408da1957535d62361a0d17459767a17c150709bb64736f6c634300060c0033",
  "immutableReferences": {},
  "source": "// SPDX-License-Identifier: MIT\npragma solidity ^0.6.0;\npragma experimental ABIEncoderV2;\n\nimport \"@openzeppelin/contracts/access/Ownable.sol\";\nimport \"@openzeppelin/contracts/token/ERC20/IERC20.sol\";\nimport \"@openzeppelin/contracts/math/SafeMath.sol\";\nimport \"../interfaces/IMessenger.sol\";\nimport \"../Whitelist/Whitelist.sol\";\nimport \"../SLO/SLO.sol\";\nimport \"../SLARegistry.sol\";\nimport \"./Staking.sol\";\n\n/**\n * @title SLA\n * @dev SLA is a service level agreement contract used for service downtime\n * compensation\n */\ncontract SLA is Ownable, Staking {\n    using SafeMath for uint256;\n\n    // The required amount to stake when subscribing to the agreement\n    uint256 public stake;\n\n    // The time between SLI registration\n    uint256 private sliInterval;\n\n    // The ipfs hash that stores extra information about the agreement\n    string public ipfsHash;\n\n    // The address of the registry contract\n    SLARegistry public registry;\n\n    // Struct used for storing registered SLI's\n    struct SLI {\n        uint256 timestamp;\n        uint256 value;\n        string ipfsHash;\n    }\n\n    // Mapping to get SLO addresses from SLO names in bytes32\n    mapping(bytes32 => SLO) public SLOs;\n\n    // Mapping to get SLI structs from SLO names in bytes32\n    mapping(bytes32 => SLI[]) public SLIs;\n\n    // Array storing the names of the SLO's of this agreement\n    bytes32[] SLONames;\n\n    /**\n     * @dev event for SLI creation logging\n     * @param _timestamp the time the SLI has been registered\n     * @param _value the value of the SLI\n     * @param _hash the ipfs hash that stores additional info\n     */\n    event SLICreated(uint256 _timestamp, uint256 _value, string _hash);\n\n    /**\n     * @dev Throws if called by any address other than the Oraclize or\n     * messenger contract.\n     */\n    modifier onlyMessenger() {\n        require(msg.sender == address(registry.messenger()));\n        _;\n    }\n\n    /**\n     * @dev constructor\n     * @param _owner the owner of the service level agreement\n     * @param _SLONames the names of the service level objectives in a bytes32\n     * array\n     * @param _SLOs an array with the service level objective addresses\n     * @param _stake the amount required to stake when subscribing to the\n     * agreement\n     * @param _ipfsHash the ipfs hash that stores extra information about the\n     * agreement\n     */\n    constructor(\n        address _owner,\n        bytes32[] memory _SLONames,\n        SLO[] memory _SLOs,\n        uint256 _stake,\n        string memory _ipfsHash,\n        uint256 _sliInterval,\n        bDSLAToken _tokenAddress\n    ) public Staking(_tokenAddress) {\n        require(_SLOs.length < 5);\n        require(_SLONames.length == _SLOs.length);\n\n        for (uint256 i = 0; i < _SLOs.length; i++) {\n            SLOs[_SLONames[i]] = _SLOs[i];\n        }\n\n        transferOwnership(_owner);\n        SLONames = _SLONames;\n        stake = _stake;\n        ipfsHash = _ipfsHash;\n        registry = SLARegistry(msg.sender);\n        sliInterval = _sliInterval;\n    }\n\n    /**\n     * @dev external function to register SLI's and check them against the SLO's\n     * @param _SLOName the name of the SLO in bytes32\n     * @param _value the value of the SLI to check\n     * @param _hash the ipfs hash with additional information\n     */\n    function registerSLI(\n        bytes32 _SLOName,\n        uint256 _value,\n        string calldata _hash,\n        uint256 _period\n    ) external onlyMessenger {\n        SLIs[_SLOName].push(SLI(now, _value, _hash));\n\n        emit SLICreated(now, _value, _hash);\n\n        if (!SLOs[_SLOName].isSLOHonored(_value)) {\n            periods[_period].status = Status.NotRespected;\n        } else {\n            periods[_period].status = Status.Respected;\n        }\n    }\n\n    /**\n     * @dev external function to get SLI\n     * @param _SLOName the name of the SLO in bytes32\n     */\n    function getSLI(bytes32 _SLOName) public view returns (SLI[] memory) {\n        return SLIs[_SLOName];\n    }\n\n    /**\n     * @dev external view function that returns the sliInterval value\n     */\n    function getSliInterval() external view returns (uint256) {\n        return sliInterval;\n    }\n\n    /**\n     * @dev external view function that returns all agreement information\n     */\n\n    function getDetails()\n        external\n        view\n        returns (\n            address,\n            string memory,\n            uint256,\n            bytes32[] memory,\n            SLO[] memory\n        )\n    {\n        SLO[] memory _SLOAddresses = new SLO[](SLONames.length);\n\n        for (uint256 i = 0; i < SLONames.length; i++) {\n            _SLOAddresses[i] = SLOs[SLONames[i]];\n        }\n\n        return (owner(), ipfsHash, stake, SLONames, _SLOAddresses);\n    }\n}\n",
  "sourcePath": "/Users/wilhempujar/Development/stacktical-dsla-contracts/contracts/SLA/SLA.sol",
  "compiler": {
    "name": "solc",
    "version": "0.6.12+commit.27d51765.Emscripten.clang"
  },
  "schemaVersion": "3.2.5",
  "updatedAt": "2020-10-15T22:27:47.536Z",
  "devdoc": {
    "details": "SLA is a service level agreement contract used for service downtime compensation",
    "events": {
      "SLICreated(uint256,uint256,string)": {
        "details": "event for SLI creation logging",
        "params": {
          "_hash": "the ipfs hash that stores additional info",
          "_timestamp": "the time the SLI has been registered",
          "_value": "the value of the SLI"
        }
      }
    },
    "kind": "dev",
    "methods": {
      "constructor": {
        "details": "constructor",
        "params": {
          "_SLONames": "the names of the service level objectives in a bytes32 array",
          "_SLOs": "an array with the service level objective addresses",
          "_ipfsHash": "the ipfs hash that stores extra information about the agreement",
          "_owner": "the owner of the service level agreement",
          "_stake": "the amount required to stake when subscribing to the agreement"
        }
      },
      "getDetails()": {
        "details": "external view function that returns all agreement information"
      },
      "getSLI(bytes32)": {
        "details": "external function to get SLI",
        "params": {
          "_SLOName": "the name of the SLO in bytes32"
        }
      },
      "getSliInterval()": {
        "details": "external view function that returns the sliInterval value"
      },
      "owner()": {
        "details": "Returns the address of the current owner."
      },
      "registerSLI(bytes32,uint256,string,uint256)": {
        "details": "external function to register SLI's and check them against the SLO's",
        "params": {
          "_SLOName": "the name of the SLO in bytes32",
          "_hash": "the ipfs hash with additional information",
          "_value": "the value of the SLI to check"
        }
      },
      "renounceOwnership()": {
        "details": "Leaves the contract without owner. It will not be possible to call `onlyOwner` functions anymore. Can only be called by the current owner. NOTE: Renouncing ownership will leave the contract without an owner, thereby removing any functionality that is only available to the owner."
      },
      "transferOwnership(address)": {
        "details": "Transfers ownership of the contract to a new account (`newOwner`). Can only be called by the current owner."
      }
    },
    "title": "SLA",
    "version": 1
  },
  "userdoc": {
    "kind": "user",
    "methods": {},
    "version": 1
  }
}