{
  "contractName": "SLA",
  "abi": [
    {
      "inputs": [
        {
          "internalType": "address",
          "name": "_owner",
          "type": "address"
        },
        {
          "internalType": "bool",
          "name": "_whitelisted",
          "type": "bool"
        },
        {
          "internalType": "contract SLO",
          "name": "_SLO",
          "type": "address"
        },
        {
          "internalType": "enum PeriodRegistry.PeriodType",
          "name": "_periodType",
          "type": "uint8"
        },
        {
          "internalType": "address",
          "name": "_messengerAddress",
          "type": "address"
        },
        {
          "internalType": "uint128",
          "name": "_initialPeriodId",
          "type": "uint128"
        },
        {
          "internalType": "uint128",
          "name": "_finalPeriodId",
          "type": "uint128"
        },
        {
          "internalType": "uint128",
          "name": "_slaID",
          "type": "uint128"
        },
        {
          "internalType": "string",
          "name": "_ipfsHash",
          "type": "string"
        },
        {
          "internalType": "bytes32[]",
          "name": "_extraData",
          "type": "bytes32[]"
        }
      ],
      "stateMutability": "nonpayable",
      "type": "constructor"
    },
    {
      "anonymous": false,
      "inputs": [
        {
          "indexed": true,
          "internalType": "address",
          "name": "previousOwner",
          "type": "address"
        },
        {
          "indexed": true,
          "internalType": "address",
          "name": "newOwner",
          "type": "address"
        }
      ],
      "name": "OwnershipTransferred",
      "type": "event"
    },
    {
      "anonymous": false,
      "inputs": [
        {
          "indexed": true,
          "internalType": "uint256",
          "name": "periodId",
          "type": "uint256"
        },
        {
          "indexed": true,
          "internalType": "address",
          "name": "tokenAddress",
          "type": "address"
        },
        {
          "indexed": false,
          "internalType": "uint256",
          "name": "rewardPercentage",
          "type": "uint256"
        },
        {
          "indexed": false,
          "internalType": "uint256",
          "name": "rewardPercentagePrecision",
          "type": "uint256"
        },
        {
          "indexed": false,
          "internalType": "uint256",
          "name": "rewardAmount",
          "type": "uint256"
        }
      ],
      "name": "ProviderRewardGenerated",
      "type": "event"
    },
    {
      "anonymous": false,
      "inputs": [
        {
          "indexed": false,
          "internalType": "uint256",
          "name": "_periodId",
          "type": "uint256"
        },
        {
          "indexed": false,
          "internalType": "uint256",
          "name": "_sli",
          "type": "uint256"
        }
      ],
      "name": "SLANotRespected",
      "type": "event"
    },
    {
      "anonymous": false,
      "inputs": [
        {
          "indexed": false,
          "internalType": "uint256",
          "name": "timestamp",
          "type": "uint256"
        },
        {
          "indexed": false,
          "internalType": "uint256",
          "name": "sli",
          "type": "uint256"
        },
        {
          "indexed": false,
          "internalType": "uint256",
          "name": "periodId",
          "type": "uint256"
        }
      ],
      "name": "SLICreated",
      "type": "event"
    },
    {
      "inputs": [],
      "name": "DSLAburnRate",
      "outputs": [
        {
          "internalType": "uint256",
          "name": "",
          "type": "uint256"
        }
      ],
      "stateMutability": "view",
      "type": "function"
    },
    {
      "inputs": [
        {
          "internalType": "address",
          "name": "_tokenAddress",
          "type": "address"
        }
      ],
      "name": "addAllowedTokens",
      "outputs": [],
      "stateMutability": "nonpayable",
      "type": "function"
    },
    {
      "inputs": [
        {
          "internalType": "address[]",
          "name": "_userAddresses",
          "type": "address[]"
        }
      ],
      "name": "addMultipleUsersToWhitelist",
      "outputs": [],
      "stateMutability": "nonpayable",
      "type": "function"
    },
    {
      "inputs": [
        {
          "internalType": "address",
          "name": "_userAddress",
          "type": "address"
        }
      ],
      "name": "addUserToWhitelist",
      "outputs": [],
      "stateMutability": "nonpayable",
      "type": "function"
    },
    {
      "inputs": [
        {
          "internalType": "uint256",
          "name": "",
          "type": "uint256"
        }
      ],
      "name": "allowedTokens",
      "outputs": [
        {
          "internalType": "address",
          "name": "",
          "type": "address"
        }
      ],
      "stateMutability": "view",
      "type": "function"
    },
    {
      "inputs": [],
      "name": "creationBlockNumber",
      "outputs": [
        {
          "internalType": "uint256",
          "name": "",
          "type": "uint256"
        }
      ],
      "stateMutability": "view",
      "type": "function"
    },
    {
      "inputs": [
        {
          "internalType": "address",
          "name": "",
          "type": "address"
        }
      ],
      "name": "dpTokenRegistry",
      "outputs": [
        {
          "internalType": "contract ERC20PresetMinterPauser",
          "name": "",
          "type": "address"
        }
      ],
      "stateMutability": "view",
      "type": "function"
    },
    {
      "inputs": [],
      "name": "dslaTokenAddress",
      "outputs": [
        {
          "internalType": "address",
          "name": "",
          "type": "address"
        }
      ],
      "stateMutability": "view",
      "type": "function"
    },
    {
      "inputs": [
        {
          "internalType": "address",
          "name": "",
          "type": "address"
        }
      ],
      "name": "duTokenRegistry",
      "outputs": [
        {
          "internalType": "contract ERC20PresetMinterPauser",
          "name": "",
          "type": "address"
        }
      ],
      "stateMutability": "view",
      "type": "function"
    },
    {
      "inputs": [
        {
          "internalType": "uint256",
          "name": "",
          "type": "uint256"
        }
      ],
      "name": "extraData",
      "outputs": [
        {
          "internalType": "bytes32",
          "name": "",
          "type": "bytes32"
        }
      ],
      "stateMutability": "view",
      "type": "function"
    },
    {
      "inputs": [],
      "name": "finalPeriodId",
      "outputs": [
        {
          "internalType": "uint128",
          "name": "",
          "type": "uint128"
        }
      ],
      "stateMutability": "view",
      "type": "function"
    },
    {
      "inputs": [],
      "name": "getAllowedTokensLength",
      "outputs": [
        {
          "internalType": "uint256",
          "name": "",
          "type": "uint256"
        }
      ],
      "stateMutability": "view",
      "type": "function"
    },
    {
      "inputs": [
        {
          "internalType": "address",
          "name": "_staker",
          "type": "address"
        },
        {
          "internalType": "uint256",
          "name": "_allowedTokenIndex",
          "type": "uint256"
        }
      ],
      "name": "getTokenStake",
      "outputs": [
        {
          "internalType": "address",
          "name": "tokenAddress",
          "type": "address"
        },
        {
          "internalType": "uint256",
          "name": "stake",
          "type": "uint256"
        }
      ],
      "stateMutability": "view",
      "type": "function"
    },
    {
      "inputs": [],
      "name": "initialPeriodId",
      "outputs": [
        {
          "internalType": "uint128",
          "name": "",
          "type": "uint128"
        }
      ],
      "stateMutability": "view",
      "type": "function"
    },
    {
      "inputs": [],
      "name": "ipfsHash",
      "outputs": [
        {
          "internalType": "string",
          "name": "",
          "type": "string"
        }
      ],
      "stateMutability": "view",
      "type": "function"
    },
    {
      "inputs": [
        {
          "internalType": "address",
          "name": "_tokenAddress",
          "type": "address"
        }
      ],
      "name": "isAllowedToken",
      "outputs": [
        {
          "internalType": "bool",
          "name": "",
          "type": "bool"
        }
      ],
      "stateMutability": "view",
      "type": "function"
    },
    {
      "inputs": [
        {
          "internalType": "address",
          "name": "_staker",
          "type": "address"
        }
      ],
      "name": "isStaker",
      "outputs": [
        {
          "internalType": "bool",
          "name": "",
          "type": "bool"
        }
      ],
      "stateMutability": "view",
      "type": "function"
    },
    {
      "inputs": [],
      "name": "messengerAddress",
      "outputs": [
        {
          "internalType": "address",
          "name": "",
          "type": "address"
        }
      ],
      "stateMutability": "view",
      "type": "function"
    },
    {
      "inputs": [],
      "name": "nextVerifiablePeriod",
      "outputs": [
        {
          "internalType": "uint256",
          "name": "",
          "type": "uint256"
        }
      ],
      "stateMutability": "view",
      "type": "function"
    },
    {
      "inputs": [],
      "name": "owner",
      "outputs": [
        {
          "internalType": "address",
          "name": "",
          "type": "address"
        }
      ],
      "stateMutability": "view",
      "type": "function"
    },
    {
      "inputs": [
        {
          "internalType": "uint256",
          "name": "",
          "type": "uint256"
        }
      ],
      "name": "periodSLIs",
      "outputs": [
        {
          "internalType": "uint256",
          "name": "timestamp",
          "type": "uint256"
        },
        {
          "internalType": "uint256",
          "name": "sli",
          "type": "uint256"
        },
        {
          "internalType": "enum SLA.Status",
          "name": "status",
          "type": "uint8"
        }
      ],
      "stateMutability": "view",
      "type": "function"
    },
    {
      "inputs": [],
      "name": "periodType",
      "outputs": [
        {
          "internalType": "enum PeriodRegistry.PeriodType",
          "name": "",
          "type": "uint8"
        }
      ],
      "stateMutability": "view",
      "type": "function"
    },
    {
      "inputs": [
        {
          "internalType": "address",
          "name": "",
          "type": "address"
        }
      ],
      "name": "providerPool",
      "outputs": [
        {
          "internalType": "uint256",
          "name": "",
          "type": "uint256"
        }
      ],
      "stateMutability": "view",
      "type": "function"
    },
    {
      "inputs": [
        {
          "internalType": "address[]",
          "name": "_userAddresses",
          "type": "address[]"
        }
      ],
      "name": "removeMultipleUsersFromWhitelist",
      "outputs": [],
      "stateMutability": "nonpayable",
      "type": "function"
    },
    {
      "inputs": [
        {
          "internalType": "address",
          "name": "_userAddress",
          "type": "address"
        }
      ],
      "name": "removeUserFromWhitelist",
      "outputs": [],
      "stateMutability": "nonpayable",
      "type": "function"
    },
    {
      "inputs": [],
      "name": "renounceOwnership",
      "outputs": [],
      "stateMutability": "nonpayable",
      "type": "function"
    },
    {
      "inputs": [],
      "name": "slaID",
      "outputs": [
        {
          "internalType": "uint128",
          "name": "",
          "type": "uint128"
        }
      ],
      "stateMutability": "view",
      "type": "function"
    },
    {
      "inputs": [],
      "name": "slaRegistry",
      "outputs": [
        {
          "internalType": "contract SLARegistry",
          "name": "",
          "type": "address"
        }
      ],
      "stateMutability": "view",
      "type": "function"
    },
    {
      "inputs": [],
      "name": "slo",
      "outputs": [
        {
          "internalType": "contract SLO",
          "name": "",
          "type": "address"
        }
      ],
      "stateMutability": "view",
      "type": "function"
    },
    {
      "inputs": [
        {
          "internalType": "uint256",
          "name": "",
          "type": "uint256"
        }
      ],
      "name": "stakers",
      "outputs": [
        {
          "internalType": "address",
          "name": "",
          "type": "address"
        }
      ],
      "stateMutability": "view",
      "type": "function"
    },
    {
      "inputs": [
        {
          "internalType": "address",
          "name": "newOwner",
          "type": "address"
        }
      ],
      "name": "transferOwnership",
      "outputs": [],
      "stateMutability": "nonpayable",
      "type": "function"
    },
    {
      "inputs": [
        {
          "internalType": "address",
          "name": "",
          "type": "address"
        }
      ],
      "name": "usersPool",
      "outputs": [
        {
          "internalType": "uint256",
          "name": "",
          "type": "uint256"
        }
      ],
      "stateMutability": "view",
      "type": "function"
    },
    {
      "inputs": [
        {
          "internalType": "address",
          "name": "",
          "type": "address"
        }
      ],
      "name": "whitelist",
      "outputs": [
        {
          "internalType": "bool",
          "name": "",
          "type": "bool"
        }
      ],
      "stateMutability": "view",
      "type": "function"
    },
    {
      "inputs": [],
      "name": "whitelistedContract",
      "outputs": [
        {
          "internalType": "bool",
          "name": "",
          "type": "bool"
        }
      ],
      "stateMutability": "view",
      "type": "function"
    },
    {
      "inputs": [
        {
          "internalType": "uint256",
          "name": "_sli",
          "type": "uint256"
        },
        {
          "internalType": "uint256",
          "name": "_periodId",
          "type": "uint256"
        }
      ],
      "name": "registerSLI",
      "outputs": [],
      "stateMutability": "nonpayable",
      "type": "function"
    },
    {
      "inputs": [
        {
          "internalType": "uint256",
          "name": "_periodId",
          "type": "uint256"
        }
      ],
      "name": "isAllowedPeriod",
      "outputs": [
        {
          "internalType": "bool",
          "name": "",
          "type": "bool"
        }
      ],
      "stateMutability": "view",
      "type": "function"
    },
    {
      "inputs": [],
      "name": "contractFinished",
      "outputs": [
        {
          "internalType": "bool",
          "name": "",
          "type": "bool"
        }
      ],
      "stateMutability": "view",
      "type": "function"
    },
    {
      "inputs": [
        {
          "internalType": "uint256",
          "name": "_amount",
          "type": "uint256"
        },
        {
          "internalType": "address",
          "name": "_token",
          "type": "address"
        }
      ],
      "name": "stakeTokens",
      "outputs": [],
      "stateMutability": "nonpayable",
      "type": "function"
    },
    {
      "inputs": [
        {
          "internalType": "uint256",
          "name": "_amount",
          "type": "uint256"
        },
        {
          "internalType": "address",
          "name": "_tokenAddress",
          "type": "address"
        }
      ],
      "name": "withdrawProviderTokens",
      "outputs": [],
      "stateMutability": "nonpayable",
      "type": "function"
    },
    {
      "inputs": [
        {
          "internalType": "uint256",
          "name": "_amount",
          "type": "uint256"
        },
        {
          "internalType": "address",
          "name": "_tokenAddress",
          "type": "address"
        }
      ],
      "name": "withdrawUserTokens",
      "outputs": [],
      "stateMutability": "nonpayable",
      "type": "function"
    },
    {
      "inputs": [],
      "name": "getStakersLength",
      "outputs": [
        {
          "internalType": "uint256",
          "name": "",
          "type": "uint256"
        }
      ],
      "stateMutability": "view",
      "type": "function"
    },
    {
      "inputs": [],
      "name": "breachedContract",
      "outputs": [
        {
          "internalType": "bool",
          "name": "",
          "type": "bool"
        }
      ],
      "stateMutability": "view",
      "type": "function"
    }
  ],
  "bytecode": "0x60806040526013805460ff60a01b191690553480156200001e57600080fd5b5060405162003bb138038062003bb18339810160408190526200004191620008af565b33878a8560006200005a6001600160e01b03620004e216565b600080546001600160a01b0319166001600160a01b03831690811782556040519293509160008051602062003b91833981519152908290a350836001600160a01b031663683048356040518163ffffffff1660e01b815260040160206040518083038186803b158015620000cd57600080fd5b505afa158015620000e2573d6000803e3d6000fd5b505050506040513d601f19601f8201168201806040525081019062000108919062000889565b600160006101000a8154816001600160a01b0302191690836001600160a01b03160217905550836001600160a01b0316639fc4caa56040518163ffffffff1660e01b815260040160206040518083038186803b1580156200016857600080fd5b505afa1580156200017d573d6000803e3d6000fd5b505050506040513d601f19601f82011682018060405250810190620001a3919062000889565b600280546001600160a01b0319166001600160a01b0392909216919091179055600c805484919060ff19166001836005811115620001dd57fe5b0217905550600c805461ff0019166101008415150217905560015460408051637b8041cf60e11b815290516000926001600160a01b03169163f700839e9160048083019260c0929190829003018186803b1580156200023b57600080fd5b505afa15801562000250573d6000803e3d6000fd5b505050506040513d601f19601f82011682018060405250810190620002769190620009b6565b50505050509050600160009054906101000a90046001600160a01b03166001600160a01b0316638b8e53096040518163ffffffff1660e01b815260040160206040518083038186803b158015620002cc57600080fd5b505afa158015620002e1573d6000803e3d6000fd5b505050506040513d601f19601f8201168201806040525081019062000307919062000889565b600980546001600160a01b0319166001600160a01b0392909216919091179055600b8190556200033733620004e7565b50600380546001600160801b0319166001600160801b0392909216919091179055506200036891508b905062000593565b81516200037d90600f90602085019062000649565b50601380546001600160a01b038089166001600160a01b0319928316179092556012805490911633179081905560408051639fc4caa560e01b815290519190921691639fc4caa5916004808301926020929190829003018186803b158015620003e557600080fd5b505afa158015620003fa573d6000803e3d6000fd5b505050506040513d601f19601f8201168201806040525081019062000420919062000889565b601080546001600160a01b039290921661010002610100600160a81b03199092169190911780825543601555601180546001600160801b03888116600160801b02818b166001600160801b0319909316929092171617905588919060ff191660018360058111156200048e57fe5b0217905550600e80546001600160a01b0319166001600160a01b038a161790558051620004c3906016906020840190620006ce565b5050506001600160801b039092166017555062000af295505050505050565b335b90565b620004fa6001600160e01b03620004e216565b6000546001600160a01b03908116911614620005335760405162461bcd60e51b81526004016200052a9062000a7d565b60405180910390fd5b6001600160a01b0381166000908152600d602052604090205460ff16156200056f5760405162461bcd60e51b81526004016200052a9062000a00565b6001600160a01b03166000908152600d60205260409020805460ff19166001179055565b620005a66001600160e01b03620004e216565b6000546001600160a01b03908116911614620005d65760405162461bcd60e51b81526004016200052a9062000a7d565b6001600160a01b038116620005ff5760405162461bcd60e51b81526004016200052a9062000a37565b600080546040516001600160a01b038085169392169160008051602062003b9183398151915291a3600080546001600160a01b0319166001600160a01b0392909216919091179055565b828054600181600116156101000203166002900490600052602060002090601f016020900481019282601f106200068c57805160ff1916838001178555620006bc565b82800160010185558215620006bc579182015b82811115620006bc5782518255916020019190600101906200069f565b50620006ca9291506200070b565b5090565b828054828255906000526020600020908101928215620006bc5791602002820182811115620006bc5782518255916020019190600101906200069f565b620004e491905b80821115620006ca576000815560010162000712565b8051620007358162000ad9565b92915050565b600082601f8301126200074c578081fd5b81516001600160401b0381111562000762578182fd5b60208082026200077482820162000ab2565b838152935081840185830182870184018810156200079157600080fd5b600092505b84831015620007b657805182526001929092019190830190830162000796565b505050505092915050565b805180151581146200073557600080fd5b8051600681106200073557600080fd5b600082601f830112620007f3578081fd5b81516001600160401b0381111562000809578182fd5b60206200081f601f8301601f1916820162000ab2565b925081835284818386010111156200083657600080fd5b60005b828110156200085657848101820151848201830152810162000839565b82811115620008685760008284860101525b50505092915050565b80516001600160801b03811681146200073557600080fd5b6000602082840312156200089b578081fd5b8151620008a88162000ad9565b9392505050565b6000806000806000806000806000806101408b8d031215620008cf578586fd5b620008db8c8c62000728565b9950620008ec8c60208d01620007c1565b9850620008fd8c60408d0162000728565b97506200090e8c60608d01620007d2565b96506200091f8c60808d0162000728565b9550620009308c60a08d0162000871565b9450620009418c60c08d0162000871565b9350620009528c60e08d0162000871565b6101008c01519093506001600160401b038082111562000970578384fd5b6200097e8e838f01620007e2565b93506101208d015191508082111562000995578283fd5b50620009a48d828e016200073b565b9150509295989b9194979a5092959850565b60008060008060008060c08789031215620009cf578182fd5b865195506020870151945060408701519350606087015192506080870151915060a087015190509295509295509295565b60208082526018908201527f5573657220616c72656164792077686974656c69737465640000000000000000604082015260600190565b60208082526026908201527f4f776e61626c653a206e6577206f776e657220697320746865207a65726f206160408201526564647265737360d01b606082015260800190565b6020808252818101527f4f776e61626c653a2063616c6c6572206973206e6f7420746865206f776e6572604082015260600190565b6040518181016001600160401b038111828210171562000ad157600080fd5b604052919050565b6001600160a01b038116811462000aef57600080fd5b50565b61308f8062000b026000396000f3fe608060405234801561001057600080fd5b506004361061025e5760003560e01c806378025ec411610146578063c623674f116100c3578063db69a46211610087578063db69a462146104d5578063f2db10fe146104dd578063f2fde38b146104e5578063f7e9dfff146104f8578063f9902bb114610500578063fd5e6dd1146105135761025e565b8063c623674f1461047f578063c8b5c24814610494578063cbe230c3146104a7578063cd92890e146104ba578063d7a5c422146104c25761025e565b80639fabeb001161010a5780639fabeb001461044c578063a224ee9c14610454578063b1659bad1461045c578063b7bc347e14610464578063c26ff6151461046c5761025e565b806378025ec41461040e5780637fd788aa146104215780638da5cb5b1461042957806396f76f11146104315780639b19251a146104395761025e565b8063484fbf2b116101df5780635e5f2e26116101a35780635e5f2e26146103a7578063639b6fc3146103ba5780636f1e8533146103cd578063715018a6146103e0578063740882ac146103e8578063747b8050146103fb5761025e565b8063484fbf2b146103385780634e0c91f61461034b5780634fb2647e1461036b57806357ac94f01461037e5780635c1c20de1461039f5761025e565b80632526743a116102265780632526743a146102d157806326db18ac146102e65780633385d334146102f95780634190edde1461030157806346e0fbae146103235761025e565b8063021eef7f146102635780630bea440d1461028c578063171e44ea146102a157806318e45427146102b45780631bf30929146102bc575b600080fd5b61027661027136600461285f565b610526565b6040516102839190612aad565b60405180910390f35b61029f61029a36600461288f565b61056f565b005b61029f6102af3660046126b0565b6106d1565b610276610aa3565b6102c4610ab1565b6040516102839190612ab8565b6102d9610ab7565b6040516102839190612f69565b61029f6102f436600461288f565b610ac6565b6102d9610b44565b61031461030f36600461285f565b610b5a565b60405161028393929190612f8b565b61032b610b7e565b6040516102839190612ac1565b6102c46103463660046126b0565b610b87565b61035e6103593660046126b0565b610b99565b6040516102839190612a5c565b61035e6103793660046126b0565b610bb4565b61039161038c3660046126e8565b610bcf565b604051610283929190612a70565b6102c4610dc7565b61035e6103b536600461285f565b610dcd565b6102c46103c83660046126b0565b610df4565b6102766103db3660046126b0565b610e06565b61029f610e61565b61029f6103f6366004612713565b610ee0565b61029f6104093660046126b0565b610fb6565b6102c461041c36600461285f565b611048565b610276611066565b61035e611076565b610276611085565b6102766104473660046126b0565b611192565b6102c46111a7565b61035e6111ad565b6102c46111bc565b6102c46111c2565b61029f61047a366004612713565b6111c8565b6104876112a4565b6040516102839190612af9565b61029f6104a236600461288f565b611332565b6102766104b53660046126b0565b61136e565b61035e6113c0565b61029f6104d03660046128be565b6113cf565b61035e61168d565b6102d961169c565b61029f6104f33660046126b0565b6116ab565b61035e611761565b61029f61050e3660046126b0565b611770565b61035e61052136600461285f565b611803565b6011546000906001600160801b03168210156105445750600061056a565b601154600160801b90046001600160801b03168211156105665750600061056a565b5060015b919050565b600082116105985760405162461bcd60e51b815260040161058f90612e7c565b60405180910390fd5b60006105a2611085565b905080156105c25760405162461bcd60e51b815260040161058f90612cf5565b6105cc8383611810565b60125460408051636830483560e01b815290516000926001600160a01b0316916368304835916004808301926020929190829003018186803b15801561061157600080fd5b505afa158015610625573d6000803e3d6000fd5b505050506040513d601f19601f8201168201806040525081019061064991906126cc565b604051635948284760e11b81529091506001600160a01b0382169063b290508e90610678903390600401612a5c565b602060405180830381600087803b15801561069257600080fd5b505af11580156106a6573d6000803e3d6000fd5b505050506040513d601f19601f820116820180604052508101906106ca91906127b3565b5050505050565b6106d9611d0b565b6000546001600160a01b039081169116146107065760405162461bcd60e51b815260040161058f90612dac565b61070f8161136e565b1561072c5760405162461bcd60e51b815260040161058f90612e18565b60015460405163cbe230c360e01b81526001600160a01b039091169063cbe230c39061075c908490600401612a5c565b60206040518083038186803b15801561077457600080fd5b505afa158015610788573d6000803e3d6000fd5b505050506040513d601f19601f820116820180604052508101906107ac91906127b3565b15156001146107cd5760405162461bcd60e51b815260040161058f90612be9565b600a80546001810182556000919091527fc65a7bb8d6351c1cf70c95a316cc6a92839c986682d98bc35f958f4883f9d2a80180546001600160a01b0319166001600160a01b038316179055600354606090610830906001600160801b0316611d0f565b90506060826001600160a01b03166395d89b416040518163ffffffff1660e01b815260040160006040518083038186803b15801561086d57600080fd5b505afa158015610881573d6000803e3d6000fd5b505050506040513d6000823e601f3d908101601f191682016040526108a991908101906127d3565b9050606081836040516020016108c0929190612a09565b6040516020818303038152906040529050606082846040516020016108e692919061294a565b60405160208183030381529060405290506060838560405160200161090c929190612995565b6040516020818303038152906040529050606084866040516020016109329291906129ec565b60408051601f1981840301815290829052600154633350214760e11b83529092506000916001600160a01b03909116906366a0428e906109789088908890600401612b0c565b602060405180830381600087803b15801561099257600080fd5b505af11580156109a6573d6000803e3d6000fd5b505050506040513d601f19601f820116820180604052508101906109ca91906126cc565b600154604051633350214760e11b81529192506000916001600160a01b03909116906366a0428e90610a029087908790600401612b0c565b602060405180830381600087803b158015610a1c57600080fd5b505af1158015610a30573d6000803e3d6000fd5b505050506040513d601f19601f82011682018060405250810190610a5491906126cc565b6001600160a01b03998a1660009081526007602090815260408083208054948e166001600160a01b031995861617905560069091529020805493909a1692169190911790975550505050505050565b600c54610100900460ff1681565b60155481565b6011546001600160801b031681565b60008211610ae65760405162461bcd60e51b815260040161058f90612e7c565b610aee611076565b6001600160a01b0316336001600160a01b031614610b36576000610b10611085565b9050600181151514610b345760405162461bcd60e51b815260040161058f90612de1565b505b610b408282611dea565b5050565b601154600160801b90046001600160801b031681565b60146020526000908152604090208054600182015460029092015490919060ff1683565b60105460ff1681565b60056020526000908152604090205481565b6006602052600090815260409020546001600160a01b031681565b6007602052600090815260409020546001600160a01b031681565b6000806000600a8481548110610be157fe5b6000918252602090912001546001600160a01b03169050610c00611076565b6001600160a01b0316856001600160a01b03161415610c3c576001600160a01b0381166000908152600460205260409020549092509050610dc0565b6001600160a01b0380821660009081526006602090815260408083205481516318160ddd60e01b8152915194169384926318160ddd9260048082019391829003018186803b158015610c8d57600080fd5b505afa158015610ca1573d6000803e3d6000fd5b505050506040513d601f19601f82011682018060405250810190610cc59190612877565b905080610cdb575090925060009150610dc09050565b6040516370a0823160e01b81526000906001600160a01b038416906370a0823190610d0a908b90600401612a5c565b60206040518083038186803b158015610d2257600080fd5b505afa158015610d36573d6000803e3d6000fd5b505050506040513d601f19601f82011682018060405250810190610d5a9190612877565b90506127106000610d8184610d75858563ffffffff611f9016565b9063ffffffff611fd316565b6001600160a01b0387166000908152600560205260409020549091508690610db5908490610d75908563ffffffff611f9016565b975097505050505050505b9250929050565b600b5481565b600a8181548110610dda57fe5b6000918252602090912001546001600160a01b0316905081565b60046020526000908152604090205481565b6000805b600854811015610e5857826001600160a01b031660088281548110610e2b57fe5b6000918252602090912001546001600160a01b03161415610e5057600191505061056a565b600101610e0a565b50600092915050565b610e69611d0b565b6000546001600160a01b03908116911614610e965760405162461bcd60e51b815260040161058f90612dac565b600080546040516001600160a01b03909116907f8be0079c531659141344cd1fd0a4f28419497f9722a3daafe3b4186f6b6457e0908390a3600080546001600160a01b0319169055565b610ee8611d0b565b6000546001600160a01b03908116911614610f155760405162461bcd60e51b815260040161058f90612dac565b60005b8151811015610b4057600d6000838381518110610f3157fe5b6020908102919091018101516001600160a01b031682528101919091526040016000205460ff16610fae576001600d6000848481518110610f6e57fe5b60200260200101516001600160a01b03166001600160a01b0316815260200190815260200160002060006101000a81548160ff0219169083151502179055505b600101610f18565b610fbe611d0b565b6000546001600160a01b03908116911614610feb5760405162461bcd60e51b815260040161058f90612dac565b6001600160a01b0381166000908152600d602052604090205460ff16156110245760405162461bcd60e51b815260040161058f90612b3a565b6001600160a01b03166000908152600d60205260409020805460ff19166001179055565b6016818154811061105557fe5b600091825260209091200154905081565b601354600160a01b900460ff1690565b6000546001600160a01b031690565b60105460115460405160016259edcb60e01b03198152600092839261010082046001600160a01b03169263ffa61235926110d99260ff90911691600160801b9091046001600160801b031690600401612ad4565b604080518083038186803b1580156110f057600080fd5b505afa158015611104573d6000803e3d6000fd5b505050506040513d601f19601f8201168201806040525081019061112891906128df565b915050601360149054906101000a900460ff16151560011515148061118c575080421015801561118c57506000601154600160801b90046001600160801b0316600090815260146020526040902060029081015460ff169081111561118957fe5b14155b91505090565b600d6020526000908152604090205460ff1681565b60085490565b6013546001600160a01b031681565b60175481565b600a5490565b6111d0611d0b565b6000546001600160a01b039081169116146111fd5760405162461bcd60e51b815260040161058f90612dac565b60005b8151811015610b4057600d600083838151811061121957fe5b6020908102919091018101516001600160a01b031682528101919091526040016000205460ff1615156001141561129c576000600d600084848151811061125c57fe5b60200260200101516001600160a01b03166001600160a01b0316815260200190815260200160002060006101000a81548160ff0219169083151502179055505b600101611200565b600f805460408051602060026001851615610100026000190190941693909304601f8101849004840282018401909252818152929183018282801561132a5780601f106112ff5761010080835404028352916020019161132a565b820191906000526020600020905b81548152906001019060200180831161130d57829003601f168201915b505050505081565b600082116113525760405162461bcd60e51b815260040161058f90612e7c565b600061135c611085565b9050611369838383612015565b505050565b6000805b600a54811015610e5857826001600160a01b0316600a828154811061139357fe5b6000918252602090912001546001600160a01b031614156113b857600191505061056a565b600101611372565b600e546001600160a01b031681565b6013546001600160a01b031633146113f95760405162461bcd60e51b815260040161058f90612c36565b7fc95987c1992805ee34bdc915e017cceae36ba1c156b9911fa7e691e6435eb46e42838360405161142c93929190612fb1565b60405180910390a160018082016017556000828152601460209081526040808320938401869055428455600e548151633fa4f24560e01b815291516001600160a01b0390911692633fa4f2459260048082019391829003018186803b15801561149457600080fd5b505afa1580156114a8573d6000803e3d6000fd5b505050506040513d601f19601f820116820180604052508101906114cc9190612877565b600e546040516303c8f2e360e21b81529192506001600160a01b031690630f23cb8c906114fd908790600401612ab8565b60206040518083038186803b15801561151557600080fd5b505afa158015611529573d6000803e3d6000fd5b505050506040513d601f19601f8201168201806040525081019061154d91906127b3565b15611621576002828101805460ff191660011790556127109060009061159b9061157b90610d758987612217565b610d758461158f8a8863ffffffff61223c16565b9063ffffffff611f9016565b6011549091506000906115d1906001906115c59089906001600160801b031663ffffffff61223c16565b9063ffffffff61221716565b60115490915060009061160b906001600160801b03808216600160801b90920481169190910360010116610d75858563ffffffff611f9016565b905061161887828661227e565b50505050611687565b6002828101805460ff1916909117905561163961239d565b6013805460ff60a01b1916600160a01b1790556040517fbd33f7a3bfa88a467c9df5ae7d2341cf061084c386b20a0d48130f5cbce38a4d9061167e9085908790612f7d565b60405180910390a15b50505050565b6012546001600160a01b031681565b6003546001600160801b031681565b6116b3611d0b565b6000546001600160a01b039081169116146116e05760405162461bcd60e51b815260040161058f90612dac565b6001600160a01b0381166117065760405162461bcd60e51b815260040161058f90612b6c565b600080546040516001600160a01b03808516939216917f8be0079c531659141344cd1fd0a4f28419497f9722a3daafe3b4186f6b6457e091a3600080546001600160a01b0319166001600160a01b0392909216919091179055565b6009546001600160a01b031681565b611778611d0b565b6000546001600160a01b039081169116146117a55760405162461bcd60e51b815260040161058f90612dac565b6001600160a01b0381166000908152600d602052604090205460ff1615156001146117e25760405162461bcd60e51b815260040161058f90612ea8565b6001600160a01b03166000908152600d60205260409020805460ff19169055565b60088181548110610dda57fe5b8061181a8161136e565b151560011461183b5760405162461bcd60e51b815260040161058f90612d7e565b600c5460ff6101009091041615156001141561188557336000908152600d602052604090205460ff1615156001146118855760405162461bcd60e51b815260040161058f90612c7b565b6118a06001600160a01b03831633308663ffffffff61245b16565b6118a8611076565b6001600160a01b0316336001600160a01b031614611ae9576001600160a01b038216600090815260046020908152604080832054600590925290912054816118f6828763ffffffff61221716565b11156119145760405162461bcd60e51b815260040161058f90612ed6565b6001600160a01b0380851660009081526006602090815260408083205481516318160ddd60e01b8152915194169384926318160ddd9260048082019391829003018186803b15801561196557600080fd5b505afa158015611979573d6000803e3d6000fd5b505050506040513d601f19601f8201168201806040525081019061199d9190612877565b905080611a09576040516340c10f1960e01b81526001600160a01b038316906340c10f19906119d29033908b90600401612a70565b600060405180830381600087803b1580156119ec57600080fd5b505af1158015611a00573d6000803e3d6000fd5b50505050611a9d565b6001600160a01b03861660009081526005602052604081205490611a3782610d758b8663ffffffff611f9016565b6040516340c10f1960e01b81529091506001600160a01b038516906340c10f1990611a689033908590600401612a70565b600060405180830381600087803b158015611a8257600080fd5b505af1158015611a96573d6000803e3d6000fd5b5050505050505b6001600160a01b038616600090815260056020526040902054611ac6908863ffffffff61221716565b6001600160a01b03871660009081526005602052604090205550611cb792505050565b6001600160a01b0380831660009081526007602090815260408083205481516318160ddd60e01b8152915194169384926318160ddd9260048082019391829003018186803b158015611b3a57600080fd5b505afa158015611b4e573d6000803e3d6000fd5b505050506040513d601f19601f82011682018060405250810190611b729190612877565b905080611bde576040516340c10f1960e01b81526001600160a01b038316906340c10f1990611ba79033908990600401612a70565b600060405180830381600087803b158015611bc157600080fd5b505af1158015611bd5573d6000803e3d6000fd5b50505050611c72565b6001600160a01b03841660009081526004602052604081205490611c0c82610d75898663ffffffff611f9016565b6040516340c10f1960e01b81529091506001600160a01b038516906340c10f1990611c3d9033908590600401612a70565b600060405180830381600087803b158015611c5757600080fd5b505af1158015611c6b573d6000803e3d6000fd5b5050505050505b6001600160a01b038416600090815260046020526040902054611c9b908663ffffffff61221716565b6001600160a01b03851660009081526004602052604090205550505b611cc033610e06565b61136957600880546001810182556000919091527ff3f7a9fe364faab93b216da50a3214154f22a0a2b415b23a84c8169e8b636ee30180546001600160a01b03191633179055505050565b3390565b60608180611d365750506040805180820190915260018152600360fc1b602082015261056a565b8060005b8115611d4e57600101600a82049150611d3a565b60608167ffffffffffffffff81118015611d6757600080fd5b506040519080825280601f01601f191660200182016040528015611d92576020820181803683370190505b50905060001982015b8415611de057600a850660300160f81b82828060019003935081518110611dbe57fe5b60200101906001600160f81b031916908160001a905350600a85049450611d9b565b5095945050505050565b80611df48161136e565b1515600114611e155760405162461bcd60e51b815260040161058f90612d7e565b6001600160a01b0380831660009081526006602090815260408083205481516318160ddd60e01b8152915194169384926318160ddd9260048082019391829003018186803b158015611e6657600080fd5b505afa158015611e7a573d6000803e3d6000fd5b505050506040513d601f19601f82011682018060405250810190611e9e9190612877565b6001600160a01b038516600090815260056020526040812054919250611ece82610d75898663ffffffff611f9016565b60405163079cc67960e41b81529091506001600160a01b038516906379cc679090611eff9033908590600401612a70565b600060405180830381600087803b158015611f1957600080fd5b505af1158015611f2d573d6000803e3d6000fd5b5050506001600160a01b038716600090815260056020526040902054611f5a91508863ffffffff61223c16565b6001600160a01b038716600081815260056020526040902091909155611f8790338963ffffffff6124b316565b50505050505050565b600082611f9f57506000611fcd565b82820282848281611fac57fe5b0414611fca5760405162461bcd60e51b815260040161058f90612d3d565b90505b92915050565b6000611fca83836040518060400160405280601a81526020017f536166654d6174683a206469766973696f6e206279207a65726f0000000000008152506124d2565b8161201f8161136e565b15156001146120405760405162461bcd60e51b815260040161058f90612d7e565b6001600160a01b03831660009081526004602090815260408083205460059092529091205483612099578061207b838863ffffffff61223c16565b10156120995760405162461bcd60e51b815260040161058f90612cac565b6001600160a01b0380861660009081526007602090815260408083205481516318160ddd60e01b8152915194169384926318160ddd9260048082019391829003018186803b1580156120ea57600080fd5b505afa1580156120fe573d6000803e3d6000fd5b505050506040513d601f19601f820116820180604052508101906121229190612877565b6001600160a01b03881660009081526004602052604081205491925061215282610d758c8663ffffffff611f9016565b60405163079cc67960e41b81529091506001600160a01b038516906379cc6790906121839033908590600401612a70565b600060405180830381600087803b15801561219d57600080fd5b505af11580156121b1573d6000803e3d6000fd5b5050506001600160a01b038a166000908152600460205260409020546121de91508b63ffffffff61223c16565b6001600160a01b038a1660008181526004602052604090209190915561220b90338c63ffffffff6124b316565b50505050505050505050565b600082820183811015611fca5760405162461bcd60e51b815260040161058f90612bb2565b6000611fca83836040518060400160405280601e81526020017f536166654d6174683a207375627472616374696f6e206f766572666c6f770000815250612509565b60005b600a54811015611687576000600a828154811061229a57fe5b60009182526020808320909101546001600160a01b031680835260059091526040822054909250906122d685610d75848963ffffffff611f9016565b6001600160a01b038416600090815260056020526040902054909150612302908263ffffffff61223c16565b6001600160a01b038416600090815260056020908152604080832093909355600490522054612337908263ffffffff61221716565b6001600160a01b0384166000818152600460205260409081902092909255905188907f3173c1c4b679e2da86dbb0382bde749a6e16cd31912c5410e17985cd7d2b90529061238a908a908a908790612fb1565b60405180910390a3505050600101612281565b60005b600a54811015612458576000600a82815481106123b957fe5b60009182526020808320909101546001600160a01b0316808352600582526040808420546004909352909220549192509081906123fc908263ffffffff61223c16565b6001600160a01b038416600090815260046020908152604080832093909355600590522054612431908263ffffffff61221716565b6001600160a01b0390931660009081526005602052604090209290925550506001016123a0565b50565b611687846323b872dd60e01b85858560405160240161247c93929190612a89565b60408051601f198184030181529190526020810180516001600160e01b03166001600160e01b031990931692909217909152612535565b6113698363a9059cbb60e01b848460405160240161247c929190612a70565b600081836124f35760405162461bcd60e51b815260040161058f9190612af9565b5060008385816124ff57fe5b0495945050505050565b6000818484111561252d5760405162461bcd60e51b815260040161058f9190612af9565b505050900390565b606061258a826040518060400160405280602081526020017f5361666545524332303a206c6f772d6c6576656c2063616c6c206661696c6564815250856001600160a01b03166125c49092919063ffffffff16565b80519091501561136957808060200190518101906125a891906127b3565b6113695760405162461bcd60e51b815260040161058f90612f1f565b60606125d384846000856125db565b949350505050565b60606125e68561269f565b6126025760405162461bcd60e51b815260040161058f90612e45565b60006060866001600160a01b0316858760405161261f919061292e565b60006040518083038185875af1925050503d806000811461265c576040519150601f19603f3d011682016040523d82523d6000602084013e612661565b606091505b509150915081156126755791506125d39050565b8051156126855780518082602001fd5b8360405162461bcd60e51b815260040161058f9190612af9565b3b151590565b8035611fcd81613044565b6000602082840312156126c1578081fd5b8135611fca81613044565b6000602082840312156126dd578081fd5b8151611fca81613044565b600080604083850312156126fa578081fd5b823561270581613044565b946020939093013593505050565b60006020808385031215612725578182fd5b823567ffffffffffffffff81111561273b578283fd5b80840185601f82011261274c578384fd5b8035915061276161275c83612fee565b612fc7565b828152838101908285018585028401860189101561277d578687fd5b8693505b848410156127a75761279389826126a5565b835260019390930192918501918501612781565b50979650505050505050565b6000602082840312156127c4578081fd5b81518015158114611fca578182fd5b6000602082840312156127e4578081fd5b815167ffffffffffffffff808211156127fb578283fd5b81840185601f82011261280c578384fd5b805192508183111561281c578384fd5b61282f601f8401601f1916602001612fc7565b9150828252856020848301011115612845578384fd5b61285683602084016020840161300e565b50949350505050565b600060208284031215612870578081fd5b5035919050565b600060208284031215612888578081fd5b5051919050565b600080604083850312156128a1578182fd5b8235915060208301356128b381613044565b809150509250929050565b600080604083850312156128d0578182fd5b50508035926020909101359150565b600080604083850312156128f1578182fd5b505080516020909101519092909150565b6000815180845261291a81602086016020860161300e565b601f01601f19169290920160200192915050565b6000825161294081846020870161300e565b9190910192915050565b600061647560f01b8252835161296781600285016020880161300e565b808301602d60f81b60028201528451915061298982600383016020880161300e565b01600301949350505050565b60006d44534c412d50524f56494445522d60901b825283516129be81600e85016020880161300e565b808301602d60f81b600e820152845191506129e082600f83016020880161300e565b01600f01949350505050565b600061064760f41b8252835161296781600285016020880161300e565b60006944534c412d555345522d60b01b82528351612a2e81600a85016020880161300e565b808301602d60f81b600a82015284519150612a5082600b83016020880161300e565b01600b01949350505050565b6001600160a01b0391909116815260200190565b6001600160a01b03929092168252602082015260400190565b6001600160a01b039384168152919092166020820152604081019190915260600190565b901515815260200190565b90815260200190565b60208101612ace8361303a565b91905290565b60408101612ae18461303a565b9281526001600160801b039190911660209091015290565b600060208252611fca6020830184612902565b600060408252612b1f6040830185612902565b8281036020840152612b318185612902565b95945050505050565b602080825260189082015277155cd95c88185b1c9958591e481dda1a5d195b1a5cdd195960421b604082015260600190565b60208082526026908201527f4f776e61626c653a206e6577206f776e657220697320746865207a65726f206160408201526564647265737360d01b606082015260800190565b6020808252601b908201527f536166654d6174683a206164646974696f6e206f766572666c6f770000000000604082015260600190565b6020808252602d908201527f546f6b656e206e6f7420616c6c6f7765642062792074686520534c415265676960408201526c1cdd1c9e4818dbdb9d1c9858dd609a1b606082015260800190565b60208082526025908201527f4f6e6c79204d657373656e6765722063616e2063616c6c20746869732066756e60408201526431ba34b7b760d91b606082015260800190565b602080825260179082015276155cd95c881a5cc81b9bdd081dda1a5d195b1a5cdd1959604a1b604082015260600190565b60208082526029908201527f53686f756c64206e6f74207769746864726177206d6f7265207468616e207573604082015268657273207374616b6560b81b606082015260800190565b60208082526028908201527f43616e206f6e6c79207374616b65206f6e206e6f742066696e697368656420636040820152676f6e74726163747360c01b606082015260800190565b60208082526021908201527f536166654d6174683a206d756c7469706c69636174696f6e206f766572666c6f6040820152607760f81b606082015260800190565b6020808252601490820152731d1bdad95b881a5cc81b9bdd08185b1b1bddd95960621b604082015260600190565b6020808252818101527f4f776e61626c653a2063616c6c6572206973206e6f7420746865206f776e6572604082015260600190565b6020808252601a908201527f4f6e6c7920666f722066696e697368656420636f6e7472616374000000000000604082015260600190565b602080825260139082015272151bdad95b88185b1c9958591e481859191959606a1b604082015260600190565b6020808252601d908201527f416464726573733a2063616c6c20746f206e6f6e2d636f6e7472616374000000604082015260600190565b6020808252601290820152710616d6f756e742063616e6e6f7420626520360741b604082015260600190565b602080825260149082015273155cd95c881b9bdd081dda1a5d195b1a5cdd195960621b604082015260600190565b60208082526029908201527f43616e6e6f74207374616b65206d6f7265207468616e20534c412070726f7669604082015268646572207374616b6560b81b606082015260800190565b6020808252602a908201527f5361666545524332303a204552433230206f7065726174696f6e20646964206e6040820152691bdd081cdd58d8d9595960b21b606082015260800190565b6001600160801b0391909116815260200190565b918252602082015260400190565b838152602081018390526060810160038310612fa357fe5b826040830152949350505050565b9283526020830191909152604082015260600190565b60405181810167ffffffffffffffff81118282101715612fe657600080fd5b604052919050565b600067ffffffffffffffff821115613004578081fd5b5060209081020190565b60005b83811015613029578181015183820152602001613011565b838111156116875750506000910152565b6006811061245857fe5b6001600160a01b038116811461245857600080fdfea26469706673582212208803255292f1870810af4df9061d6656a73b64b5f1da85952dfe36cf7a357ef864736f6c634300060600338be0079c531659141344cd1fd0a4f28419497f9722a3daafe3b4186f6b6457e0",
  "immutableReferences": {},
  "source": "// SPDX-License-Identifier: MIT\npragma solidity 0.6.6;\npragma experimental ABIEncoderV2;\n\nimport \"@openzeppelin/contracts/access/Ownable.sol\";\nimport \"@openzeppelin/contracts/token/ERC20/IERC20.sol\";\nimport \"@openzeppelin/contracts/math/SafeMath.sol\";\nimport \"./SLO.sol\";\nimport \"./SLARegistry.sol\";\nimport \"./StakeRegistry.sol\";\nimport \"./PeriodRegistry.sol\";\nimport \"./Staking.sol\";\n\n/**\n * @title SLA\n * @dev SLA is a service level agreement contract used for service downtime\n * compensation\n */\ncontract SLA is Staking {\n    using SafeMath for uint256;\n\n    enum Status {NotVerified, Respected, NotRespected}\n\n    /// @dev Struct used for storing period status\n    struct PeriodSLI {\n        uint256 timestamp;\n        uint256 sli;\n        Status status;\n    }\n\n    /// @dev address of the SLO\n    SLO public slo;\n\n    /// @dev The ipfs hash that stores extra information about the agreement\n    string public ipfsHash;\n\n    /// @dev uint8 of the period type\n    PeriodRegistry.PeriodType public periodType;\n\n    PeriodRegistry private periodRegistry;\n\n    uint128 public initialPeriodId;\n    uint128 public finalPeriodId;\n\n    /// @dev The address of the slaRegistry contract\n    SLARegistry public slaRegistry;\n\n    /// @dev The address of the messenger\n    address public messengerAddress;\n\n    /// @dev states if the contract was breached or not\n    bool private _breachedContract = false;\n\n    /// @dev periodId=>PeriodSLI mapping\n    mapping(uint256 => PeriodSLI) public periodSLIs;\n\n    /// @dev block number of SLA deployment\n    uint256 public creationBlockNumber;\n\n    /// @dev extra data for customized workflows\n    bytes32[] public extraData;\n\n    /// @dev states if the contract was breached or not\n    uint256 public nextVerifiablePeriod;\n\n    /**\n     * @dev event for SLI creation logging\n     * @param timestamp 1. the time the SLI has been registered\n     * @param sli 2. the value of the SLI\n     * @param periodId 3. the id of the given period\n     */\n    event SLICreated(uint256 timestamp, uint256 sli, uint256 periodId);\n\n    /**\n     * @dev event for SLI creation logging\n     * @param _periodId 1. the id of the given period\n     * @param _sli 2. value of the SLI\n     */\n    event SLANotRespected(uint256 _periodId, uint256 _sli);\n\n    /**\n     * @dev throws if called by any address other than the messenger contract.\n     */\n    modifier onlyMessenger() {\n        require(\n            msg.sender == messengerAddress,\n            \"Only Messenger can call this function\"\n        );\n        _;\n    }\n\n    /**\n     * @dev throws if called by any address other than the messenger contract.\n     */\n    modifier onlySLARegistry() {\n        require(\n            msg.sender == address(slaRegistry),\n            \"Only SLARegistry can call this function\"\n        );\n        _;\n    }\n\n    /**\n     * @param _owner 1. address of the owner of the service level agreement\n     * @param _SLO 2. address of the SLO\n     * @param _ipfsHash 3. string with the ipfs hash that contains SLA information\n     * @param _messengerAddress 3. -\n     * @param _initialPeriodId 4. -\n     * @param _finalPeriodId 4. -\n     * @param _periodType 5. period type of the SLA contract\n     * @param _whitelisted 8. boolean to declare whitelisted contracts\n     * @param _extraData 9. array of bytes32 to store extra data on deployment time\n     * @param _slaID 10. identifies the SLA to uniquely to emit dTokens\n     */\n    constructor(\n        address _owner,\n        bool _whitelisted,\n        SLO _SLO,\n        PeriodRegistry.PeriodType _periodType,\n        address _messengerAddress,\n        uint128 _initialPeriodId,\n        uint128 _finalPeriodId,\n        uint128 _slaID,\n        string memory _ipfsHash,\n        bytes32[] memory _extraData\n    )\n        public\n        Staking(SLARegistry(msg.sender), _periodType, _whitelisted, _slaID)\n    {\n        transferOwnership(_owner);\n        ipfsHash = _ipfsHash;\n        messengerAddress = _messengerAddress;\n        slaRegistry = SLARegistry(msg.sender);\n        periodRegistry = slaRegistry.periodRegistry();\n        creationBlockNumber = block.number;\n        initialPeriodId = _initialPeriodId;\n        finalPeriodId = _finalPeriodId;\n        periodType = _periodType;\n        slo = _SLO;\n        extraData = _extraData;\n        nextVerifiablePeriod = _initialPeriodId;\n    }\n\n    /**\n     * @dev external function to register SLI's and check them against the SLO's\n     * @param _sli 1. the value of the SLI to check\n     * @param _periodId 2. the id of the given period\n     */\n    function registerSLI(uint256 _sli, uint256 _periodId)\n        external\n        onlyMessenger\n    {\n        emit SLICreated(block.timestamp, _sli, _periodId);\n        nextVerifiablePeriod = _periodId + 1;\n        PeriodSLI storage periodSLI = periodSLIs[_periodId];\n        periodSLI.sli = _sli;\n        periodSLI.timestamp = block.timestamp;\n        uint256 sloValue = slo.value();\n        if (slo.isRespected(_sli)) {\n            periodSLI.status = Status.Respected;\n            uint256 precision = 10000;\n            // deviation = (sli-slo)*precision/((sli+slo)/2)\n            uint256 deviation =\n                _sli.sub(sloValue).mul(precision).div(\n                    _sli.add(sloValue).div(2)\n                );\n            // to get the reward formula, we get the periodId but respecting to the SLA\n            // because _periodId is the periodId of the platform\n            // e.g. if periodIds = 7,8,9,10, normalized periods are = 1,2,3,4\n            uint256 normalizedPeriodId = _periodId.sub(initialPeriodId).add(1);\n            // if is the last period, then deliver the whole usersStake to the provider\n            // uint256 rewardPercentage =\n            //     _periodId != periodIds[periodIds.length - 1] &&\n            //         ? deviation.mul(normalizedPeriodId).div(periodIds.length)\n            //         : uint256(1).mul(precision);\n            uint256 rewardPercentage =\n                deviation.mul(normalizedPeriodId).div(\n                    finalPeriodId - initialPeriodId + 1\n                );\n            _setRespectedPeriodReward(_periodId, rewardPercentage, precision);\n        } else {\n            periodSLI.status = Status.NotRespected;\n            _setUsersCompensation();\n            _breachedContract = true;\n            emit SLANotRespected(_periodId, _sli);\n        }\n    }\n\n    function isAllowedPeriod(uint256 _periodId) public view returns (bool) {\n        if (_periodId < initialPeriodId) return false;\n        if (_periodId > finalPeriodId) return false;\n        return true;\n    }\n\n    function contractFinished() public view returns (bool) {\n        (, uint256 endOfLastValidPeriod) =\n            periodRegistry.getPeriodStartAndEnd(periodType, finalPeriodId);\n        return\n            _breachedContract == true ||\n            (block.timestamp >= endOfLastValidPeriod &&\n                periodSLIs[finalPeriodId].status != Status.NotVerified);\n    }\n\n    /**\n     *@dev stake _amount tokens into the _token contract\n     *@param _amount 1. amount to be staked\n     *@param _token 2. address of the ERC to be staked\n     */\n\n    function stakeTokens(uint256 _amount, address _token) public {\n        require(_amount > 0, \"amount cannot be 0\");\n        bool isContractFinished = contractFinished();\n        require(\n            isContractFinished == false,\n            \"Can only stake on not finished contracts\"\n        );\n        _stake(_amount, _token);\n        StakeRegistry stakeRegistry = slaRegistry.stakeRegistry();\n        stakeRegistry.registerStakedSla(msg.sender);\n    }\n\n    function withdrawProviderTokens(uint256 _amount, address _tokenAddress)\n        public\n    {\n        require(_amount > 0, \"amount cannot be 0\");\n        bool isContractFinished = contractFinished();\n        _withdrawProviderTokens(_amount, _tokenAddress, isContractFinished);\n    }\n\n    /**\n     *@dev withdraw _amount tokens from the _token contract\n     *@param _amount 1. amount to be staked\n     *@param _tokenAddress 2. address of the ERC to be staked\n     */\n\n    function withdrawUserTokens(uint256 _amount, address _tokenAddress) public {\n        require(_amount > 0, \"amount cannot be 0\");\n        if (msg.sender != owner()) {\n            bool isContractFinished = contractFinished();\n            require(isContractFinished == true, \"Only for finished contract\");\n        }\n        _withdrawUserTokens(_amount, _tokenAddress);\n    }\n\n    function getStakersLength() public view returns (uint256) {\n        return stakers.length;\n    }\n\n    function breachedContract() public view returns (bool) {\n        return _breachedContract;\n    }\n}\n",
  "sourcePath": "/Users/matiasbn/Desktop/stacktical/stacktical-dsla-contracts/contracts/SLA.sol",
  "compiler": {
    "name": "solc",
    "version": "0.6.6+commit.6c089d02.Emscripten.clang"
  },
  "schemaVersion": "3.3.3",
  "updatedAt": "2021-03-16T16:03:02.281Z",
  "devdoc": {
    "details": "SLA is a service level agreement contract used for service downtime compensation",
    "methods": {
      "constructor": {
        "params": {
          "_SLO": "2. address of the SLO",
          "_extraData": "9. array of bytes32 to store extra data on deployment time",
          "_finalPeriodId": "4. -",
          "_initialPeriodId": "4. -",
          "_ipfsHash": "3. string with the ipfs hash that contains SLA information",
          "_messengerAddress": "3. -",
          "_owner": "1. address of the owner of the service level agreement",
          "_periodType": "5. period type of the SLA contract",
          "_slaID": "10. identifies the SLA to uniquely to emit dTokens",
          "_whitelisted": "8. boolean to declare whitelisted contracts"
        }
      },
      "owner()": {
        "details": "Returns the address of the current owner."
      },
      "registerSLI(uint256,uint256)": {
        "details": "external function to register SLI's and check them against the SLO's",
        "params": {
          "_periodId": "2. the id of the given period",
          "_sli": "1. the value of the SLI to check"
        }
      },
      "renounceOwnership()": {
        "details": "Leaves the contract without owner. It will not be possible to call `onlyOwner` functions anymore. Can only be called by the current owner.     * NOTE: Renouncing ownership will leave the contract without an owner, thereby removing any functionality that is only available to the owner."
      },
      "transferOwnership(address)": {
        "details": "Transfers ownership of the contract to a new account (`newOwner`). Can only be called by the current owner."
      }
    },
    "title": "SLA"
  },
  "userdoc": {
    "methods": {
      "addAllowedTokens(address)": {
        "notice": "dev add a token to ve allowed for staking param _tokenAddress 1. address of the new allowed token"
      },
      "getAllowedTokensLength()": {
        "notice": "dev use this function to evaluate the length of the allowed tokens length return allowedTokens.length"
      },
      "isAllowedToken(address)": {
        "notice": "dev checks in the allowedTokens array if there's a token with _tokenAddress value param _tokenAddress 1. token address to check exixtence return true if _tokenAddress exists in the allowedTokens array"
      },
      "isStaker(address)": {
        "notice": "dev returns true if the _staker address is registered as staker param _staker 1. staker address return true if address is staker"
      },
      "stakeTokens(uint256,address)": {
        "notice": "dev stake _amount tokens into the _token contract param _amount 1. amount to be staked param _token 2. address of the ERC to be staked"
      },
      "withdrawUserTokens(uint256,address)": {
        "notice": "dev withdraw _amount tokens from the _token contract param _amount 1. amount to be staked param _tokenAddress 2. address of the ERC to be staked"
      }
    }
  }
}