{
  "contractName": "SLA",
  "abi": [
    {
      "inputs": [
        {
          "internalType": "address",
          "name": "_owner",
          "type": "address"
        },
        {
          "internalType": "contract SLO",
          "name": "_SLO",
          "type": "address"
        },
        {
          "internalType": "string",
          "name": "_ipfsHash",
          "type": "string"
        },
        {
          "internalType": "address",
          "name": "_dslaTokenAddress",
          "type": "address"
        },
        {
          "internalType": "uint256[]",
          "name": "_canonicalPeriodIds",
          "type": "uint256[]"
        }
      ],
      "stateMutability": "nonpayable",
      "type": "constructor"
    },
    {
      "anonymous": false,
      "inputs": [
        {
          "indexed": true,
          "internalType": "address",
          "name": "previousOwner",
          "type": "address"
        },
        {
          "indexed": true,
          "internalType": "address",
          "name": "newOwner",
          "type": "address"
        }
      ],
      "name": "OwnershipTransferred",
      "type": "event"
    },
    {
      "anonymous": false,
      "inputs": [
        {
          "indexed": false,
          "internalType": "uint256",
          "name": "_timestamp",
          "type": "uint256"
        },
        {
          "indexed": false,
          "internalType": "uint256",
          "name": "_value",
          "type": "uint256"
        },
        {
          "indexed": false,
          "internalType": "uint256",
          "name": "_periodId",
          "type": "uint256"
        }
      ],
      "name": "SLICreated",
      "type": "event"
    },
    {
      "inputs": [
        {
          "internalType": "uint256",
          "name": "_period",
          "type": "uint256"
        }
      ],
      "name": "_claimCompensation",
      "outputs": [],
      "stateMutability": "nonpayable",
      "type": "function"
    },
    {
      "inputs": [
        {
          "internalType": "address",
          "name": "_token",
          "type": "address"
        }
      ],
      "name": "addAllowedTokens",
      "outputs": [],
      "stateMutability": "nonpayable",
      "type": "function"
    },
    {
      "inputs": [
        {
          "internalType": "uint256",
          "name": "",
          "type": "uint256"
        }
      ],
      "name": "allowedTokens",
      "outputs": [
        {
          "internalType": "address",
          "name": "",
          "type": "address"
        }
      ],
      "stateMutability": "view",
      "type": "function"
    },
    {
      "inputs": [
        {
          "internalType": "address",
          "name": "",
          "type": "address"
        }
      ],
      "name": "allowedTokensMapping",
      "outputs": [
        {
          "internalType": "bool",
          "name": "",
          "type": "bool"
        }
      ],
      "stateMutability": "view",
      "type": "function"
    },
    {
      "inputs": [
        {
          "internalType": "uint256",
          "name": "",
          "type": "uint256"
        }
      ],
      "name": "canonicalPeriodIds",
      "outputs": [
        {
          "internalType": "uint256",
          "name": "",
          "type": "uint256"
        }
      ],
      "stateMutability": "view",
      "type": "function"
    },
    {
      "inputs": [],
      "name": "creationBlockNumber",
      "outputs": [
        {
          "internalType": "uint256",
          "name": "",
          "type": "uint256"
        }
      ],
      "stateMutability": "view",
      "type": "function"
    },
    {
      "inputs": [],
      "name": "getAllowedTokensLength",
      "outputs": [
        {
          "internalType": "uint256",
          "name": "",
          "type": "uint256"
        }
      ],
      "stateMutability": "view",
      "type": "function"
    },
    {
      "inputs": [
        {
          "internalType": "address",
          "name": "_staker",
          "type": "address"
        },
        {
          "internalType": "uint256",
          "name": "_allowedTokenIndex",
          "type": "uint256"
        }
      ],
      "name": "getTokenStake",
      "outputs": [
        {
          "internalType": "address",
          "name": "tokenAddress",
          "type": "address"
        },
        {
          "internalType": "uint256",
          "name": "stake",
          "type": "uint256"
        }
      ],
      "stateMutability": "view",
      "type": "function"
    },
    {
      "inputs": [],
      "name": "ipfsHash",
      "outputs": [
        {
          "internalType": "string",
          "name": "",
          "type": "string"
        }
      ],
      "stateMutability": "view",
      "type": "function"
    },
    {
      "inputs": [],
      "name": "owner",
      "outputs": [
        {
          "internalType": "address",
          "name": "",
          "type": "address"
        }
      ],
      "stateMutability": "view",
      "type": "function"
    },
    {
      "inputs": [],
      "name": "renounceOwnership",
      "outputs": [],
      "stateMutability": "nonpayable",
      "type": "function"
    },
    {
      "inputs": [
        {
          "internalType": "uint256",
          "name": "",
          "type": "uint256"
        }
      ],
      "name": "slaPeriods",
      "outputs": [
        {
          "internalType": "uint256",
          "name": "timestamp",
          "type": "uint256"
        },
        {
          "internalType": "uint256",
          "name": "sli",
          "type": "uint256"
        },
        {
          "internalType": "enum SLA.Status",
          "name": "status",
          "type": "uint8"
        },
        {
          "internalType": "uint256",
          "name": "reward",
          "type": "uint256"
        },
        {
          "internalType": "uint256",
          "name": "compensation",
          "type": "uint256"
        },
        {
          "internalType": "bool",
          "name": "claimed",
          "type": "bool"
        }
      ],
      "stateMutability": "view",
      "type": "function"
    },
    {
      "inputs": [],
      "name": "slaRegistry",
      "outputs": [
        {
          "internalType": "contract SLARegistry",
          "name": "",
          "type": "address"
        }
      ],
      "stateMutability": "view",
      "type": "function"
    },
    {
      "inputs": [],
      "name": "slo",
      "outputs": [
        {
          "internalType": "contract SLO",
          "name": "",
          "type": "address"
        }
      ],
      "stateMutability": "view",
      "type": "function"
    },
    {
      "inputs": [
        {
          "internalType": "uint256",
          "name": "",
          "type": "uint256"
        }
      ],
      "name": "stakers",
      "outputs": [
        {
          "internalType": "address",
          "name": "",
          "type": "address"
        }
      ],
      "stateMutability": "view",
      "type": "function"
    },
    {
      "inputs": [
        {
          "internalType": "address",
          "name": "newOwner",
          "type": "address"
        }
      ],
      "name": "transferOwnership",
      "outputs": [],
      "stateMutability": "nonpayable",
      "type": "function"
    },
    {
      "inputs": [
        {
          "internalType": "uint256",
          "name": "_sli",
          "type": "uint256"
        },
        {
          "internalType": "uint256",
          "name": "_periodId",
          "type": "uint256"
        }
      ],
      "name": "registerSLI",
      "outputs": [],
      "stateMutability": "nonpayable",
      "type": "function"
    },
    {
      "inputs": [
        {
          "internalType": "uint256",
          "name": "_amount",
          "type": "uint256"
        },
        {
          "internalType": "address",
          "name": "_token",
          "type": "address"
        }
      ],
      "name": "stakeTokens",
      "outputs": [],
      "stateMutability": "nonpayable",
      "type": "function"
    },
    {
      "inputs": [
        {
          "internalType": "uint256",
          "name": "_amount",
          "type": "uint256"
        },
        {
          "internalType": "address",
          "name": "_token",
          "type": "address"
        }
      ],
      "name": "withdrawStake",
      "outputs": [],
      "stateMutability": "nonpayable",
      "type": "function"
    },
    {
      "inputs": [],
      "name": "getDetails",
      "outputs": [
        {
          "internalType": "address",
          "name": "_slaOwner",
          "type": "address"
        },
        {
          "internalType": "string",
          "name": "_ipfsHash",
          "type": "string"
        },
        {
          "internalType": "contract SLO",
          "name": "_SLO",
          "type": "address"
        },
        {
          "components": [
            {
              "internalType": "uint256",
              "name": "timestamp",
              "type": "uint256"
            },
            {
              "internalType": "uint256",
              "name": "sli",
              "type": "uint256"
            },
            {
              "internalType": "enum SLA.Status",
              "name": "status",
              "type": "uint8"
            },
            {
              "internalType": "uint256",
              "name": "reward",
              "type": "uint256"
            },
            {
              "internalType": "uint256",
              "name": "compensation",
              "type": "uint256"
            },
            {
              "internalType": "bool",
              "name": "claimed",
              "type": "bool"
            }
          ],
          "internalType": "struct SLA.SLAPeriod[]",
          "name": "_SLAPeriods",
          "type": "tuple[]"
        },
        {
          "internalType": "uint256",
          "name": "_stakersCount",
          "type": "uint256"
        },
        {
          "components": [
            {
              "internalType": "address",
              "name": "tokenAddress",
              "type": "address"
            },
            {
              "internalType": "uint256",
              "name": "stake",
              "type": "uint256"
            }
          ],
          "internalType": "struct SLA.TokenStake[]",
          "name": "_tokensStake",
          "type": "tuple[]"
        }
      ],
      "stateMutability": "view",
      "type": "function"
    }
  ],
  "bytecode": "0x60806040523480156200001157600080fd5b5060405162002030380380620020308339810160408190526200003491620003e8565b81600062000041620001c5565b600080546001600160a01b0319166001600160a01b03831690811782556040519293509160008051602062002010833981519152908290a3506004805460018181019092557f8a35acfbc15ff81a39ae7d344fd709f28e8600b4aa8c65c6b64bfe7fe36bd19b0180546001600160a01b039093166001600160a01b0319909316831790556000918252600560205260408220805460ff191690911790555b60018251038110156200014b57818160010181518110620000fc57fe5b60200260200101518282815181106200011157fe5b602002602001015110620001425760405162461bcd60e51b8152600401620001399062000501565b60405180910390fd5b600101620000df565b506200015785620001c9565b82516200016c90600790602086019062000276565b50600980546001600160a01b0319163317905543600b55805162000198906008906020840190620002fb565b5050600680546001600160a01b0319166001600160a01b03949094169390931790925550620005fd915050565b3390565b620001d3620001c5565b6000546001600160a01b03908116911614620002035760405162461bcd60e51b8152600401620001399062000588565b6001600160a01b0381166200022c5760405162461bcd60e51b8152600401620001399062000542565b600080546040516001600160a01b03808516939216916000805160206200201083398151915291a3600080546001600160a01b0319166001600160a01b0392909216919091179055565b828054600181600116156101000203166002900490600052602060002090601f016020900481019282601f10620002b957805160ff1916838001178555620002e9565b82800160010185558215620002e9579182015b82811115620002e9578251825591602001919060010190620002cc565b50620002f792915062000338565b5090565b828054828255906000526020600020908101928215620002e95791602002820182811115620002e9578251825591602001919060010190620002cc565b5b80821115620002f7576000815560010162000339565b80516200035c81620005e4565b92915050565b600082601f83011262000373578081fd5b81516001600160401b0381111562000389578182fd5b60208082026200039b828201620005bd565b83815293508184018583018287018401881015620003b857600080fd5b600092505b84831015620003dd578051825260019290920191908301908301620003bd565b505050505092915050565b600080600080600060a0868803121562000400578081fd5b85516200040d81620005e4565b809550506020808701516200042281620005e4565b60408801519095506001600160401b03808211156200043f578384fd5b818901915089601f83011262000453578384fd5b81518181111562000462578485fd5b62000476601f8201601f19168501620005bd565b8181528b858386010111156200048a578586fd5b855b82811015620004a95784810186015182820187015285016200048c565b82811115620004ba57868684840101525b509650620004ce90508a60608b016200034f565b94506080890151925080831115620004e4578384fd5b5050620004f48882890162000362565b9150509295509295909350565b60208082526021908201527f506572696f64206964732061727261792073686f756c6420626520736f7274656040820152601960fa1b606082015260800190565b60208082526026908201527f4f776e61626c653a206e6577206f776e657220697320746865207a65726f206160408201526564647265737360d01b606082015260800190565b6020808252818101527f4f776e61626c653a2063616c6c6572206973206e6f7420746865206f776e6572604082015260600190565b6040518181016001600160401b0381118282101715620005dc57600080fd5b604052919050565b6001600160a01b0381168114620005fa57600080fd5b50565b611a03806200060d6000396000f3fe608060405234801561001057600080fd5b506004361061012c5760003560e01c80639868e51a116100ad578063d7a5c42211610071578063d7a5c4221461026b578063db69a4621461027e578063f2fde38b14610286578063fbbf93a014610299578063fd5e6dd1146102b35761012c565b80639868e51a1461020e5780639ab4438f14610221578063b7bc347e14610246578063c623674f1461024e578063cd92890e146102635761012c565b80635e5f2e26116100f45780635e5f2e26146101b857806364b7b34b146101d8578063676a6300146101eb578063715018a6146101fe5780638da5cb5b146102065761012c565b80630bea440d14610131578063105237cf14610146578063171e44ea1461016f5780631bf309291461018257806357ac94f014610197575b600080fd5b61014461013f3660046113ec565b6102c6565b005b610159610154366004611351565b610380565b6040516101669190611633565b60405180910390f35b61014461017d366004611351565b610395565b61018a61046a565b6040516101669190611953565b6101aa6101a536600461136d565b610470565b604051610166929190611543565b6101cb6101c63660046113d4565b6104be565b604051610166919061150b565b6101446101e63660046113d4565b6104e5565b6101446101f93660046113ec565b610521565b610144610632565b6101cb6106b1565b61018a61021c3660046113d4565b6106c0565b61023461022f3660046113d4565b6106de565b6040516101669695949392919061195c565b61018a610718565b61025661071e565b604051610166919061163e565b6101cb6107ac565b61014461027936600461141b565b6107bb565b6101cb610972565b610144610294366004611351565b610981565b6102a1610a37565b6040516101669695949392919061155c565b6101cb6102c13660046113d4565b610d79565b600082116102ef5760405162461bcd60e51b81526004016102e690611885565b60405180910390fd5b6102f98282610d86565b600954604051635948284760e11b81526001600160a01b039091169063b290508e9061032990339060040161150b565b602060405180830381600087803b15801561034357600080fd5b505af1158015610357573d6000803e3d6000fd5b505050506040513d601f19601f8201168201806040525081019061037b9190611398565b505050565b60056020526000908152604090205460ff1681565b61039d610fb6565b6000546001600160a01b039081169116146103ca5760405162461bcd60e51b81526004016102e690611850565b6001600160a01b03811660009081526005602052604090205460ff16156104035760405162461bcd60e51b81526004016102e690611765565b6004805460018181019092557f8a35acfbc15ff81a39ae7d344fd709f28e8600b4aa8c65c6b64bfe7fe36bd19b0180546001600160a01b039093166001600160a01b031990931683179055600091825260056020526040909120805460ff19169091179055565b600b5481565b60008060006004848154811061048257fe5b6000918252602080832091909101546001600160a01b039081168084526002835260408085209990921684529790915290205494959350505050565b600481815481106104cb57fe5b6000918252602090912001546001600160a01b0316905081565b6104ed6106b1565b6001600160a01b0316336001600160a01b0316141561051e5760405162461bcd60e51b81526004016102e69061190e565b50565b600082116105415760405162461bcd60e51b81526004016102e690611885565b6105496106b1565b6001600160a01b0316336001600160a01b03161461062457600954600880546000926001600160a01b03169163dfce8ae091600019810190811061058957fe5b90600052602060002001546040518263ffffffff1660e01b81526004016105b09190611953565b604080518083038186803b1580156105c757600080fd5b505afa1580156105db573d6000803e3d6000fd5b505050506040513d601f19601f820116820180604052508101906105ff919061143c565b915050804210156106225760405162461bcd60e51b81526004016102e6906118b1565b505b61062e8282610fba565b5050565b61063a610fb6565b6000546001600160a01b039081169116146106675760405162461bcd60e51b81526004016102e690611850565b600080546040516001600160a01b03909116907f8be0079c531659141344cd1fd0a4f28419497f9722a3daafe3b4186f6b6457e0908390a3600080546001600160a01b0319169055565b6000546001600160a01b031690565b600881815481106106cd57fe5b600091825260209091200154905081565b600a602052600090815260409020805460018201546002830154600384015460048501546005909501549394929360ff9283169391921686565b60045490565b6007805460408051602060026001851615610100026000190190941693909304601f810184900484028201840190925281815292918301828280156107a45780601f10610779576101008083540402835291602001916107a4565b820191906000526020600020905b81548152906001019060200180831161078757829003601f168201915b505050505081565b6006546001600160a01b031681565b600960009054906101000a90046001600160a01b03166001600160a01b0316633cb747bf6040518163ffffffff1660e01b815260040160206040518083038186803b15801561080957600080fd5b505afa15801561081d573d6000803e3d6000fd5b505050506040513d601f19601f8201168201806040525081019061084191906113b8565b6001600160a01b0316336001600160a01b0316146108715760405162461bcd60e51b81526004016102e690611720565b7fc95987c1992805ee34bdc915e017cceae36ba1c156b9911fa7e691e6435eb46e4283836040516108a493929190611998565b60405180910390a16000818152600a60205260409081902060018101849055428155600654915163868d08f760e01b815290916001600160a01b03169063868d08f7906108f5908690600401611953565b60206040518083038186803b15801561090d57600080fd5b505afa158015610921573d6000803e3d6000fd5b505050506040513d601f19601f820116820180604052508101906109459190611398565b1561095e5760028101805460ff1916600117905561037b565b6002908101805460ff191690911790555050565b6009546001600160a01b031681565b610989610fb6565b6000546001600160a01b039081169116146109b65760405162461bcd60e51b81526004016102e690611850565b6001600160a01b0381166109dc5760405162461bcd60e51b81526004016102e690611651565b600080546040516001600160a01b03808516939216917f8be0079c531659141344cd1fd0a4f28419497f9722a3daafe3b4186f6b6457e091a3600080546001600160a01b0319166001600160a01b0392909216919091179055565b600060606000606060006060610a4b6106b1565b60078054604080516020601f60026000196101006001881615020190951694909404938401819004810282018101909252828152939950830182828015610ad35780601f10610aa857610100808354040283529160200191610ad3565b820191906000526020600020905b815481529060010190602001808311610ab657829003601f168201915b50506006546008549499506001600160a01b031697505067ffffffffffffffff83119150508015610b0357600080fd5b50604051908082528060200260200182016040528015610b3d57816020015b610b2a6112f7565b815260200190600190039081610b225790505b50925060005b600854811015610c6957600060088281548110610b5c57fe5b90600052602060002001549050610b716112f7565b6000828152600a6020908152604091829020825160c08101845281548152600182015492810192909252600280820154929391929184019160ff1690811115610bb657fe5b6002811115610bc157fe5b815260200160038201548152602001600482015481526020016005820160009054906101000a900460ff16151515158152505090506040518060c00160405280826000015181526020018260200151815260200182604001516002811115610c2557fe5b815260200182606001518152602001826080015181526020018260a001511515815250868481518110610c5457fe5b60209081029190910101525050600101610b43565b5060035460045490925067ffffffffffffffff81118015610c8957600080fd5b50604051908082528060200260200182016040528015610cc357816020015b610cb061133a565b815260200190600190039081610ca85790505b50905060005b600454811015610d7057604051806040016040528060048381548110610ceb57fe5b9060005260206000200160009054906101000a90046001600160a01b03166001600160a01b031681526020016001600060048581548110610d2857fe5b60009182526020808320909101546001600160a01b0316835282019290925260400190205490528251839083908110610d5d57fe5b6020908102919091010152600101610cc9565b50909192939495565b600381815481106104cb57fe5b6001600160a01b038116600090815260056020526040902054819060ff161515600114610dc55760405162461bcd60e51b81526004016102e690611822565b610dcd6106b1565b6001600160a01b0316336001600160a01b031614610e5c576001600160a01b038216600090815260026020526040812090610e066106b1565b6001600160a01b039081168252602080830193909352604091820160009081205491861681526001909352912054610e3e9085611205565b1115610e5c5760405162461bcd60e51b81526004016102e6906117dc565b6001600160a01b038216600090815260016020526040902054610e7f9084611205565b6001600160a01b0383166000908152600160209081526040808320939093556002815282822033835290522054610eb69084611205565b6001600160a01b038316600090815260026020908152604080832033808552925290912091909155610ee790611231565b610f2e57600380546001810182556000919091527fc2575a0e9e593c00f959f8c92f12db2869c3395a3b0502d05e2516446f71f85b0180546001600160a01b031916331790555b6040516323b872dd60e01b81526001600160a01b038316906323b872dd90610f5e9033903090889060040161151f565b602060405180830381600087803b158015610f7857600080fd5b505af1158015610f8c573d6000803e3d6000fd5b505050506040513d601f19601f82011682018060405250810190610fb09190611398565b50505050565b3390565b6001600160a01b038116600090815260056020526040902054819060ff161515600114610ff95760405162461bcd60e51b81526004016102e690611822565b6001600160a01b038216600090815260026020908152604080832033845290915290205483111561103c5760405162461bcd60e51b81526004016102e690611792565b6110446106b1565b6001600160a01b0316336001600160a01b031614156110fe576001600160a01b03821660009081526002602052604081206110b690826110826106b1565b6001600160a01b0390811682526020808301939093526040918201600090812054918816815260019093529120549061128e565b6001600160a01b03841660009081526001602052604090205490915081906110de908661128e565b10156110fc5760405162461bcd60e51b81526004016102e690611697565b505b60405163a9059cbb60e01b81526001600160a01b0383169063a9059cbb9061112c9033908790600401611543565b602060405180830381600087803b15801561114657600080fd5b505af115801561115a573d6000803e3d6000fd5b505050506040513d601f19601f8201168201806040525081019061117e9190611398565b506001600160a01b0382166000908152600160205260409020546111a2908461128e565b6001600160a01b03831660009081526001602090815260408083209390935560028152828220338352905220546111d9908461128e565b6001600160a01b0390921660009081526002602090815260408083203384529091529020919091555050565b60008282018381101561122a5760405162461bcd60e51b81526004016102e6906116e9565b9392505050565b6000805b60035481101561128357826001600160a01b03166003828154811061125657fe5b6000918252602090912001546001600160a01b0316141561127b576001915050611289565b600101611235565b50600090505b919050565b600061122a83836040518060400160405280601e81526020017f536166654d6174683a207375627472616374696f6e206f766572666c6f770000815250600081848411156112ef5760405162461bcd60e51b81526004016102e6919061163e565b505050900390565b6040518060c0016040528060008152602001600081526020016000600281111561131d57fe5b815260200160008152602001600081526020016000151581525090565b604080518082019091526000808252602082015290565b600060208284031215611362578081fd5b813561122a816119b8565b6000806040838503121561137f578081fd5b823561138a816119b8565b946020939093013593505050565b6000602082840312156113a9578081fd5b8151801515811461122a578182fd5b6000602082840312156113c9578081fd5b815161122a816119b8565b6000602082840312156113e5578081fd5b5035919050565b600080604083850312156113fe578182fd5b823591506020830135611410816119b8565b809150509250929050565b6000806040838503121561142d578182fd5b50508035926020909101359150565b6000806040838503121561144e578182fd5b505080516020909101519092909150565b6000815180845260208085019450808401835b838110156114a257815180516001600160a01b031688528301518388015260409096019590820190600101611472565b509495945050505050565b15159052565b6114bc816119ae565b9052565b60008151808452815b818110156114e5576020818501810151868301820152016114c9565b818111156114f65782602083870101525b50601f01601f19169290920160200192915050565b6001600160a01b0391909116815260200190565b6001600160a01b039384168152919092166020820152604081019190915260600190565b6001600160a01b03929092168252602082015260400190565b6001600160a01b03878116825260c06020808401829052600092906115838584018b6114c0565b6040838b16818801526060935086820384880152818a518084528484019150848c019350875b81811015611607578451805184528681015187850152848101516115cf868601826114b3565b5080880151848901526080808201519085015260a090810151906115f5818601836114ad565b505093850193918701916001016115a9565b505089608089015287810360a0890152611621818a61145f565b9e9d5050505050505050505050505050565b901515815260200190565b60006020825261122a60208301846114c0565b60208082526026908201527f4f776e61626c653a206e6577206f776e657220697320746865207a65726f206160408201526564647265737360d01b606082015260800190565b60208082526032908201527f53686f756c64206e6f74207769746864726177206d6f7265207468616e207468604082015271652064656c656761746f7273207374616b6560701b606082015260800190565b6020808252601b908201527f536166654d6174683a206164646974696f6e206f766572666c6f770000000000604082015260600190565b60208082526025908201527f4f6e6c79204d657373656e6765722063616e2063616c6c20746869732066756e60408201526431ba34b7b760d91b606082015260800190565b6020808252601390820152721d1bdad95b88185b1c9958591e481859191959606a1b604082015260600190565b6020808252602a908201527f53686f756c64206e6f74207769746864726177206d6f7265207374616b6520746040820152691a185b881cdd185ad95960b21b606082015260800190565b60208082526026908201527f43616e6e6f74207374616b65206d6f7265207468616e20534c41206f776e6572604082015265207374616b6560d01b606082015260800190565b6020808252601490820152731d1bdad95b881a5cc81b9bdd08185b1b1bddd95960621b604082015260600190565b6020808252818101527f4f776e61626c653a2063616c6c6572206973206e6f7420746865206f776e6572604082015260600190565b6020808252601290820152710616d6f756e742063616e6e6f7420626520360741b604082015260600190565b6020808252603a908201527f43616e206f6e6c79207769746864726177207374616b6520616674657220746860408201527f652066696e616c20706572696f642069732066696e6973686564000000000000606082015260800190565b60208082526025908201527f53686f756c64206e6f742062652063616c6c65642062792074686520534c412060408201526437bbb732b960d91b606082015260800190565b90815260200190565b8681526020810186905260c08101611973866119ae565b85604083015284606083015283608083015282151560a0830152979650505050505050565b9283526020830191909152604082015260600190565b6003811061051e57fe5b6001600160a01b038116811461051e57600080fdfea2646970667358221220ace84eb1fc8f0eb479599c56e02a7c42950931ea1d08bfe76a4fbcd16aa2c8d164736f6c634300060c00338be0079c531659141344cd1fd0a4f28419497f9722a3daafe3b4186f6b6457e0",
  "immutableReferences": {},
  "source": "// SPDX-License-Identifier: MIT\npragma solidity ^0.6.0;\npragma experimental ABIEncoderV2;\n\nimport \"@openzeppelin/contracts/access/Ownable.sol\";\nimport \"@openzeppelin/contracts/token/ERC20/IERC20.sol\";\nimport \"@openzeppelin/contracts/math/SafeMath.sol\";\nimport \"./SLO.sol\";\nimport \"./SLARegistry.sol\";\nimport \"./Staking.sol\";\n\n/**\n * @title SLA\n * @dev SLA is a service level agreement contract used for service downtime\n * compensation\n */\ncontract SLA is Staking {\n    using SafeMath for uint256;\n\n    enum Status {NotVerified, Respected, NotRespected}\n\n    /// @dev Struct used for storing period status\n    struct SLAPeriod {\n        uint256 timestamp;\n        uint256 sli;\n        Status status;\n        uint256 reward;\n        uint256 compensation;\n        bool claimed;\n    }\n\n    struct TokenStake {\n        address tokenAddress;\n        uint256 stake;\n    }\n\n    /// @dev address of the SLO\n    SLO public slo;\n\n    /// @dev The ipfs hash that stores extra information about the agreement\n    string public ipfsHash;\n\n    /// @dev array of he allowed canonical period ids\n    uint256[] public canonicalPeriodIds;\n\n    /// @dev The address of the slaRegistry contract\n    SLARegistry public slaRegistry;\n\n    /// @dev periodId=>SLAPeriod mapping\n    mapping(uint256 => SLAPeriod) public slaPeriods;\n\n    /// @dev block number of SLA deployment\n    uint256 public creationBlockNumber;\n\n    /**\n     * @dev event for SLI creation logging\n     * @param _timestamp 1. the time the SLI has been registered\n     * @param _value 2. the value of the SLI\n     * @param _periodId 3. the id of the given period\n     */\n    event SLICreated(uint256 _timestamp, uint256 _value, uint256 _periodId);\n\n    /**\n     * @dev throws if called by any address other than the messenger contract.\n     */\n    modifier onlyMessenger() {\n        require(\n            msg.sender == address(slaRegistry.messenger()),\n            \"Only Messenger can call this function\"\n        );\n        _;\n    }\n\n    /**\n     * @dev throws if called by any address other than the messenger contract.\n     */\n    modifier onlySLARegistry() {\n        require(\n            msg.sender == address(slaRegistry),\n            \"Only SLARegistry can call this function\"\n        );\n        _;\n    }\n\n    /**\n     * @param _owner 1. address of the owner of the service level agreement\n     * @param _SLO 2. address of the SLO\n     * @param _ipfsHash 3. string with the ipfs hash that contains SLA information\n     * @param _dslaTokenAddress 4. DSLA token address\n     * @param _canonicalPeriodIds 5. id of the allowed canonical periods\n     */\n    constructor(\n        address _owner,\n        SLO _SLO,\n        string memory _ipfsHash,\n        address _dslaTokenAddress,\n        uint256[] memory _canonicalPeriodIds\n    ) public Staking(_dslaTokenAddress) {\n        for (\n            uint256 index = 0;\n            index < _canonicalPeriodIds.length - 1;\n            index++\n        ) {\n            require(\n                _canonicalPeriodIds[index] < _canonicalPeriodIds[index + 1],\n                \"Period ids array should be sorted\"\n            );\n        }\n        transferOwnership(_owner);\n        ipfsHash = _ipfsHash;\n        slaRegistry = SLARegistry(msg.sender);\n        creationBlockNumber = block.number;\n        canonicalPeriodIds = _canonicalPeriodIds;\n        slo = _SLO;\n    }\n\n    /**\n     * @dev external function to register SLI's and check them against the SLO's\n     * @param _sli 1. the value of the SLI to check\n     * @param _periodId 2. the id of the given period\n     */\n    function registerSLI(uint256 _sli, uint256 _periodId)\n        external\n        onlyMessenger\n    {\n        emit SLICreated(block.timestamp, _sli, _periodId);\n        SLAPeriod storage slaPeriod = slaPeriods[_periodId];\n        slaPeriod.sli = _sli;\n        slaPeriod.timestamp = block.timestamp;\n        if (slo.isSLOHonored(_sli)) {\n            slaPeriod.status = Status.Respected;\n        } else {\n            slaPeriod.status = Status.NotRespected;\n        }\n    }\n\n    function _isAllowedPeriod(uint256 _periodId) internal view returns (bool) {\n        for (uint256 index = 0; index < canonicalPeriodIds.length; index++) {\n            if (canonicalPeriodIds[index] == _periodId) return true;\n        }\n        return false;\n    }\n\n    /**\n     *@dev stake _amount tokens into the _token contract\n     *@param _amount 1. amount to be staked\n     *@param _token 2. address of the ERC to be staked\n     */\n\n    function stakeTokens(uint256 _amount, address _token) public {\n        require(_amount > 0, \"amount cannot be 0\");\n        _stake(_amount, _token);\n        slaRegistry.registerStakedSla(msg.sender);\n    }\n\n    /**\n     *@dev withdraw _amount tokens from the _token contract\n     *@param _amount 1. amount to be staked\n     *@param _token 2. address of the ERC to be staked\n     */\n\n    function withdrawStake(uint256 _amount, address _token) public {\n        require(_amount > 0, \"amount cannot be 0\");\n        if (msg.sender != owner()) {\n            (, uint256 endOfLastValidPeriod) =\n                slaRegistry.canonicalPeriods(\n                    canonicalPeriodIds[canonicalPeriodIds.length - 1]\n                );\n            require(\n                block.timestamp >= endOfLastValidPeriod,\n                \"Can only withdraw stake after the final period is finished\"\n            );\n        }\n        _withdraw(_amount, _token);\n    }\n\n    /**\n     * @dev external view function that returns all agreement information\n     * @return _slaOwner 1. address  owner\n     * @return _ipfsHash 2. string  ipfsHash\n     * @return _SLO 3. addresses of the SLO\n     * @return _SLAPeriods 5. SLAPeriod[]\n     * @return _stakersCount 6. amount of stakers\n     * @return _tokensStake 7. SLAPeriod[]  addresses array\n     */\n\n    function getDetails()\n        external\n        view\n        returns (\n            address _slaOwner,\n            string memory _ipfsHash,\n            SLO _SLO,\n            SLAPeriod[] memory _SLAPeriods,\n            uint256 _stakersCount,\n            TokenStake[] memory _tokensStake\n        )\n    {\n        _slaOwner = owner();\n        _ipfsHash = ipfsHash;\n        _SLO = slo;\n        _SLAPeriods = new SLAPeriod[](canonicalPeriodIds.length);\n        for (uint256 index = 0; index < canonicalPeriodIds.length; index++) {\n            uint256 periodId = canonicalPeriodIds[index];\n            SLAPeriod memory slaPeriod = slaPeriods[periodId];\n            _SLAPeriods[index] = SLAPeriod({\n                reward: slaPeriod.reward,\n                compensation: slaPeriod.compensation,\n                claimed: slaPeriod.claimed,\n                status: slaPeriod.status,\n                sli: slaPeriod.sli,\n                timestamp: slaPeriod.timestamp\n            });\n        }\n        _stakersCount = stakers.length;\n        _tokensStake = new TokenStake[](allowedTokens.length);\n        for (uint256 index = 0; index < allowedTokens.length; index++) {\n            _tokensStake[index] = TokenStake({\n                tokenAddress: allowedTokens[index],\n                stake: tokenStake[allowedTokens[index]]\n            });\n        }\n    }\n}\n",
  "sourcePath": "/Users/matiasbn/Desktop/stacktical/stacktical-dsla-contracts/contracts/SLA.sol",
  "compiler": {
    "name": "solc",
    "version": "0.6.12+commit.27d51765.Emscripten.clang"
  },
  "schemaVersion": "3.3.3",
  "updatedAt": "2021-02-11T00:55:10.041Z",
  "devdoc": {
    "details": "SLA is a service level agreement contract used for service downtime compensation",
    "events": {
      "SLICreated(uint256,uint256,uint256)": {
        "details": "event for SLI creation logging",
        "params": {
          "_periodId": "3. the id of the given period",
          "_timestamp": "1. the time the SLI has been registered",
          "_value": "2. the value of the SLI"
        }
      }
    },
    "kind": "dev",
    "methods": {
      "_claimCompensation(uint256)": {
        "details": "claim from delegators",
        "params": {
          "_period": "1. period id to claim"
        }
      },
      "addAllowedTokens(address)": {
        "details": "add a token to ve allowed for staking",
        "params": {
          "_token": "1. address of the new allowed token"
        }
      },
      "constructor": {
        "params": {
          "_SLO": "2. address of the SLO",
          "_canonicalPeriodIds": "5. id of the allowed canonical periods",
          "_dslaTokenAddress": "4. DSLA token address",
          "_ipfsHash": "3. string with the ipfs hash that contains SLA information",
          "_owner": "1. address of the owner of the service level agreement"
        }
      },
      "getDetails()": {
        "details": "external view function that returns all agreement information",
        "returns": {
          "_SLAPeriods": "5. SLAPeriod[]",
          "_SLO": "3. addresses of the SLO",
          "_ipfsHash": "2. string  ipfsHash",
          "_slaOwner": "1. address  owner",
          "_stakersCount": "6. amount of stakers",
          "_tokensStake": "7. SLAPeriod[]  addresses array"
        }
      },
      "owner()": {
        "details": "Returns the address of the current owner."
      },
      "registerSLI(uint256,uint256)": {
        "details": "external function to register SLI's and check them against the SLO's",
        "params": {
          "_periodId": "2. the id of the given period",
          "_sli": "1. the value of the SLI to check"
        }
      },
      "renounceOwnership()": {
        "details": "Leaves the contract without owner. It will not be possible to call `onlyOwner` functions anymore. Can only be called by the current owner. NOTE: Renouncing ownership will leave the contract without an owner, thereby removing any functionality that is only available to the owner."
      },
      "stakeTokens(uint256,address)": {
        "details": "stake _amount tokens into the _token contract",
        "params": {
          "_amount": "1. amount to be staked",
          "_token": "2. address of the ERC to be staked"
        }
      },
      "transferOwnership(address)": {
        "details": "Transfers ownership of the contract to a new account (`newOwner`). Can only be called by the current owner."
      },
      "withdrawStake(uint256,address)": {
        "details": "withdraw _amount tokens from the _token contract",
        "params": {
          "_amount": "1. amount to be staked",
          "_token": "2. address of the ERC to be staked"
        }
      }
    },
    "stateVariables": {
      "canonicalPeriodIds": {
        "details": "array of he allowed canonical period ids"
      },
      "creationBlockNumber": {
        "details": "block number of SLA deployment"
      },
      "ipfsHash": {
        "details": "The ipfs hash that stores extra information about the agreement"
      },
      "slaPeriods": {
        "details": "periodId=>SLAPeriod mapping"
      },
      "slaRegistry": {
        "details": "The address of the slaRegistry contract"
      },
      "slo": {
        "details": "address of the SLO"
      }
    },
    "title": "SLA",
    "version": 1
  },
  "userdoc": {
    "kind": "user",
    "methods": {},
    "version": 1
  }
}