{
  "contractName": "SLA",
  "abi": [
    {
      "inputs": [
        {
          "internalType": "address",
          "name": "_owner",
          "type": "address"
        },
        {
          "internalType": "contract SLO",
          "name": "_SLO",
          "type": "address"
        },
        {
          "internalType": "string",
          "name": "_ipfsHash",
          "type": "string"
        },
        {
          "internalType": "address",
          "name": "_messengerAddress",
          "type": "address"
        },
        {
          "internalType": "uint256[]",
          "name": "_periodIds",
          "type": "uint256[]"
        },
        {
          "internalType": "enum PeriodRegistry.PeriodType",
          "name": "_periodType",
          "type": "uint8"
        },
        {
          "internalType": "address",
          "name": "_stakeRegistry",
          "type": "address"
        },
        {
          "internalType": "address",
          "name": "_periodRegistry",
          "type": "address"
        },
        {
          "internalType": "bool",
          "name": "_whitelisted",
          "type": "bool"
        }
      ],
      "stateMutability": "nonpayable",
      "type": "constructor"
    },
    {
      "anonymous": false,
      "inputs": [
        {
          "indexed": true,
          "internalType": "address",
          "name": "previousOwner",
          "type": "address"
        },
        {
          "indexed": true,
          "internalType": "address",
          "name": "newOwner",
          "type": "address"
        }
      ],
      "name": "OwnershipTransferred",
      "type": "event"
    },
    {
      "anonymous": false,
      "inputs": [
        {
          "indexed": false,
          "internalType": "uint256",
          "name": "_periodId",
          "type": "uint256"
        },
        {
          "indexed": false,
          "internalType": "uint256",
          "name": "_sli",
          "type": "uint256"
        }
      ],
      "name": "SLANotRespected",
      "type": "event"
    },
    {
      "anonymous": false,
      "inputs": [
        {
          "indexed": false,
          "internalType": "uint256",
          "name": "_timestamp",
          "type": "uint256"
        },
        {
          "indexed": false,
          "internalType": "uint256",
          "name": "_sli",
          "type": "uint256"
        },
        {
          "indexed": false,
          "internalType": "uint256",
          "name": "_periodId",
          "type": "uint256"
        }
      ],
      "name": "SLICreated",
      "type": "event"
    },
    {
      "inputs": [],
      "name": "DSLAburnRate",
      "outputs": [
        {
          "internalType": "uint256",
          "name": "",
          "type": "uint256"
        }
      ],
      "stateMutability": "view",
      "type": "function"
    },
    {
      "inputs": [
        {
          "internalType": "address",
          "name": "_tokenAddress",
          "type": "address"
        }
      ],
      "name": "_claimCompensation",
      "outputs": [],
      "stateMutability": "nonpayable",
      "type": "function"
    },
    {
      "inputs": [
        {
          "internalType": "address",
          "name": "_tokenAddress",
          "type": "address"
        }
      ],
      "name": "addAllowedTokens",
      "outputs": [],
      "stateMutability": "nonpayable",
      "type": "function"
    },
    {
      "inputs": [
        {
          "internalType": "uint256",
          "name": "",
          "type": "uint256"
        }
      ],
      "name": "allowedTokens",
      "outputs": [
        {
          "internalType": "address",
          "name": "",
          "type": "address"
        }
      ],
      "stateMutability": "view",
      "type": "function"
    },
    {
      "inputs": [],
      "name": "creationBlockNumber",
      "outputs": [
        {
          "internalType": "uint256",
          "name": "",
          "type": "uint256"
        }
      ],
      "stateMutability": "view",
      "type": "function"
    },
    {
      "inputs": [],
      "name": "dslaTokenAddress",
      "outputs": [
        {
          "internalType": "address",
          "name": "",
          "type": "address"
        }
      ],
      "stateMutability": "view",
      "type": "function"
    },
    {
      "inputs": [],
      "name": "getAllowedTokensLength",
      "outputs": [
        {
          "internalType": "uint256",
          "name": "",
          "type": "uint256"
        }
      ],
      "stateMutability": "view",
      "type": "function"
    },
    {
      "inputs": [
        {
          "internalType": "address",
          "name": "_tokenAddress",
          "type": "address"
        }
      ],
      "name": "getStakeholdersPositions",
      "outputs": [
        {
          "internalType": "uint256",
          "name": "providerStake",
          "type": "uint256"
        },
        {
          "internalType": "uint256",
          "name": "usersStake",
          "type": "uint256"
        }
      ],
      "stateMutability": "view",
      "type": "function"
    },
    {
      "inputs": [
        {
          "internalType": "address",
          "name": "_staker",
          "type": "address"
        },
        {
          "internalType": "uint256",
          "name": "_allowedTokenIndex",
          "type": "uint256"
        }
      ],
      "name": "getTokenStake",
      "outputs": [
        {
          "internalType": "address",
          "name": "tokenAddress",
          "type": "address"
        },
        {
          "internalType": "uint256",
          "name": "stake",
          "type": "uint256"
        }
      ],
      "stateMutability": "view",
      "type": "function"
    },
    {
      "inputs": [],
      "name": "ipfsHash",
      "outputs": [
        {
          "internalType": "string",
          "name": "",
          "type": "string"
        }
      ],
      "stateMutability": "view",
      "type": "function"
    },
    {
      "inputs": [
        {
          "internalType": "address",
          "name": "_tokenAddress",
          "type": "address"
        }
      ],
      "name": "isAllowedToken",
      "outputs": [
        {
          "internalType": "bool",
          "name": "",
          "type": "bool"
        }
      ],
      "stateMutability": "view",
      "type": "function"
    },
    {
      "inputs": [],
      "name": "messengerAddress",
      "outputs": [
        {
          "internalType": "address",
          "name": "",
          "type": "address"
        }
      ],
      "stateMutability": "view",
      "type": "function"
    },
    {
      "inputs": [],
      "name": "minimumDSLAStakedTier1",
      "outputs": [
        {
          "internalType": "uint256",
          "name": "",
          "type": "uint256"
        }
      ],
      "stateMutability": "view",
      "type": "function"
    },
    {
      "inputs": [],
      "name": "minimumDSLAStakedTier2",
      "outputs": [
        {
          "internalType": "uint256",
          "name": "",
          "type": "uint256"
        }
      ],
      "stateMutability": "view",
      "type": "function"
    },
    {
      "inputs": [],
      "name": "minimumDSLAStakedTier3",
      "outputs": [
        {
          "internalType": "uint256",
          "name": "",
          "type": "uint256"
        }
      ],
      "stateMutability": "view",
      "type": "function"
    },
    {
      "inputs": [],
      "name": "owner",
      "outputs": [
        {
          "internalType": "address",
          "name": "",
          "type": "address"
        }
      ],
      "stateMutability": "view",
      "type": "function"
    },
    {
      "inputs": [
        {
          "internalType": "uint256",
          "name": "",
          "type": "uint256"
        }
      ],
      "name": "periodIds",
      "outputs": [
        {
          "internalType": "uint256",
          "name": "",
          "type": "uint256"
        }
      ],
      "stateMutability": "view",
      "type": "function"
    },
    {
      "inputs": [],
      "name": "periodRegistry",
      "outputs": [
        {
          "internalType": "contract PeriodRegistry",
          "name": "",
          "type": "address"
        }
      ],
      "stateMutability": "view",
      "type": "function"
    },
    {
      "inputs": [],
      "name": "periodType",
      "outputs": [
        {
          "internalType": "enum PeriodRegistry.PeriodType",
          "name": "",
          "type": "uint8"
        }
      ],
      "stateMutability": "view",
      "type": "function"
    },
    {
      "inputs": [
        {
          "internalType": "uint256",
          "name": "",
          "type": "uint256"
        },
        {
          "internalType": "address",
          "name": "",
          "type": "address"
        }
      ],
      "name": "providerPeriodsRewards",
      "outputs": [
        {
          "internalType": "uint256",
          "name": "",
          "type": "uint256"
        }
      ],
      "stateMutability": "view",
      "type": "function"
    },
    {
      "inputs": [],
      "name": "renounceOwnership",
      "outputs": [],
      "stateMutability": "nonpayable",
      "type": "function"
    },
    {
      "inputs": [
        {
          "internalType": "uint256",
          "name": "",
          "type": "uint256"
        }
      ],
      "name": "slaPeriods",
      "outputs": [
        {
          "internalType": "uint256",
          "name": "timestamp",
          "type": "uint256"
        },
        {
          "internalType": "uint256",
          "name": "sli",
          "type": "uint256"
        },
        {
          "internalType": "enum SLA.Status",
          "name": "status",
          "type": "uint8"
        }
      ],
      "stateMutability": "view",
      "type": "function"
    },
    {
      "inputs": [],
      "name": "slaPeriodsLength",
      "outputs": [
        {
          "internalType": "uint256",
          "name": "",
          "type": "uint256"
        }
      ],
      "stateMutability": "view",
      "type": "function"
    },
    {
      "inputs": [],
      "name": "slaRegistry",
      "outputs": [
        {
          "internalType": "contract SLARegistry",
          "name": "",
          "type": "address"
        }
      ],
      "stateMutability": "view",
      "type": "function"
    },
    {
      "inputs": [],
      "name": "slo",
      "outputs": [
        {
          "internalType": "contract SLO",
          "name": "",
          "type": "address"
        }
      ],
      "stateMutability": "view",
      "type": "function"
    },
    {
      "inputs": [
        {
          "internalType": "uint256",
          "name": "",
          "type": "uint256"
        }
      ],
      "name": "stakers",
      "outputs": [
        {
          "internalType": "address",
          "name": "",
          "type": "address"
        }
      ],
      "stateMutability": "view",
      "type": "function"
    },
    {
      "inputs": [
        {
          "internalType": "address",
          "name": "newOwner",
          "type": "address"
        }
      ],
      "name": "transferOwnership",
      "outputs": [],
      "stateMutability": "nonpayable",
      "type": "function"
    },
    {
      "inputs": [
        {
          "internalType": "address",
          "name": "",
          "type": "address"
        }
      ],
      "name": "usersCompensationPools",
      "outputs": [
        {
          "internalType": "uint256",
          "name": "",
          "type": "uint256"
        }
      ],
      "stateMutability": "view",
      "type": "function"
    },
    {
      "inputs": [
        {
          "internalType": "address",
          "name": "",
          "type": "address"
        }
      ],
      "name": "usersTotalPositions",
      "outputs": [
        {
          "internalType": "uint256",
          "name": "",
          "type": "uint256"
        }
      ],
      "stateMutability": "view",
      "type": "function"
    },
    {
      "inputs": [
        {
          "internalType": "address",
          "name": "_userAddress",
          "type": "address"
        }
      ],
      "name": "whitelistUser",
      "outputs": [],
      "stateMutability": "nonpayable",
      "type": "function"
    },
    {
      "inputs": [],
      "name": "whitelisted",
      "outputs": [
        {
          "internalType": "bool",
          "name": "",
          "type": "bool"
        }
      ],
      "stateMutability": "view",
      "type": "function"
    },
    {
      "inputs": [],
      "name": "yearlyPeriods",
      "outputs": [
        {
          "internalType": "uint256",
          "name": "",
          "type": "uint256"
        }
      ],
      "stateMutability": "view",
      "type": "function"
    },
    {
      "inputs": [
        {
          "internalType": "uint256",
          "name": "_sli",
          "type": "uint256"
        },
        {
          "internalType": "uint256",
          "name": "_periodId",
          "type": "uint256"
        }
      ],
      "name": "registerSLI",
      "outputs": [],
      "stateMutability": "nonpayable",
      "type": "function"
    },
    {
      "inputs": [
        {
          "internalType": "uint256",
          "name": "_periodId",
          "type": "uint256"
        }
      ],
      "name": "isAllowedPeriod",
      "outputs": [
        {
          "internalType": "bool",
          "name": "",
          "type": "bool"
        }
      ],
      "stateMutability": "view",
      "type": "function"
    },
    {
      "inputs": [
        {
          "internalType": "uint256",
          "name": "_amount",
          "type": "uint256"
        },
        {
          "internalType": "address",
          "name": "_token",
          "type": "address"
        }
      ],
      "name": "stakeTokens",
      "outputs": [],
      "stateMutability": "nonpayable",
      "type": "function"
    },
    {
      "inputs": [
        {
          "internalType": "uint256",
          "name": "_amount",
          "type": "uint256"
        },
        {
          "internalType": "address",
          "name": "_tokenAddress",
          "type": "address"
        }
      ],
      "name": "withdrawStakedTokens",
      "outputs": [],
      "stateMutability": "nonpayable",
      "type": "function"
    },
    {
      "inputs": [
        {
          "internalType": "address",
          "name": "_tokenAddress",
          "type": "address"
        }
      ],
      "name": "claimUserCompensation",
      "outputs": [],
      "stateMutability": "nonpayable",
      "type": "function"
    },
    {
      "inputs": [],
      "name": "getDetails",
      "outputs": [
        {
          "internalType": "address",
          "name": "_slaOwner",
          "type": "address"
        },
        {
          "internalType": "string",
          "name": "_ipfsHash",
          "type": "string"
        },
        {
          "internalType": "contract SLO",
          "name": "_SLO",
          "type": "address"
        },
        {
          "components": [
            {
              "internalType": "uint256",
              "name": "timestamp",
              "type": "uint256"
            },
            {
              "internalType": "uint256",
              "name": "sli",
              "type": "uint256"
            },
            {
              "internalType": "enum SLA.Status",
              "name": "status",
              "type": "uint8"
            }
          ],
          "internalType": "struct SLA.SLAPeriod[]",
          "name": "_SLAPeriods",
          "type": "tuple[]"
        },
        {
          "internalType": "uint256",
          "name": "_stakersCount",
          "type": "uint256"
        },
        {
          "components": [
            {
              "internalType": "address",
              "name": "tokenAddress",
              "type": "address"
            },
            {
              "internalType": "uint256",
              "name": "stake",
              "type": "uint256"
            }
          ],
          "internalType": "struct SLA.TokenStake[]",
          "name": "_tokensStake",
          "type": "tuple[]"
        }
      ],
      "stateMutability": "view",
      "type": "function"
    },
    {
      "inputs": [],
      "name": "breachedContract",
      "outputs": [
        {
          "internalType": "bool",
          "name": "",
          "type": "bool"
        }
      ],
      "stateMutability": "view",
      "type": "function"
    }
  ],
  "bytecode": "0x6080604052601c805460ff191690553480156200001b57600080fd5b5060405162003208380380620032088339810160408190526200003e91620006a0565b8282858751846000620000566200039e60201b60201c565b600080546001600160a01b0319166001600160a01b038316908117825560405192935091600080516020620031e8833981519152908290a350600180546001600160a01b038088166001600160a01b0319928316178355600280549188169190921617905560108054859260ff1990911690836005811115620000d557fe5b021790555060118290556012805460ff191682151517905560015460408051637b8041cf60e11b815290516000928392839283926001600160a01b03169163f700839e916004808301926080929190829003018186803b1580156200013957600080fd5b505afa1580156200014e573d6000803e3d6000fd5b505050506040513d601f19601f82011682018060405250810190620001749190620007ca565b600254604051635c98d15760e01b815294985092965090945092506000916001600160a01b0390911690635c98d15790620001b4908b9060040162000800565b604080518083038186803b158015620001cc57600080fd5b505afa158015620001e1573d6000803e3d6000fd5b505050506040513d601f19601f8201168201806040525081019062000207919062000795565b50600f81905560015460408051638b8e530960e01b815290519293506001600160a01b0390911691638b8e530991600480820192602092909190829003018186803b1580156200025657600080fd5b505afa1580156200026b573d6000803e3d6000fd5b505050506040513d601f19601f820116820180604052508101906200029191906200067a565b600980546001600160a01b0319166001600160a01b039290921691909117905550600b93909355600c91909155600d55600e5550620002d793508c9250620003a2915050565b8651620002ec9060159060208a019062000458565b50601980546001600160a01b038089166001600160a01b03199283161790925560188054909116331790556016805491841661010002610100600160a81b031990921691909117905543601b5584516200034e906017906020880190620004dd565b506016805485919060ff191660018360058111156200036957fe5b021790555050601480546001600160a01b0319166001600160a01b03989098169790971790965550620008d095505050505050565b3390565b620003ac6200039e565b6000546001600160a01b03908116911614620003e55760405162461bcd60e51b8152600401620003dc906200085b565b60405180910390fd5b6001600160a01b0381166200040e5760405162461bcd60e51b8152600401620003dc9062000815565b600080546040516001600160a01b0380851693921691600080516020620031e883398151915291a3600080546001600160a01b0319166001600160a01b0392909216919091179055565b828054600181600116156101000203166002900490600052602060002090601f016020900481019282601f106200049b57805160ff1916838001178555620004cb565b82800160010185558215620004cb579182015b82811115620004cb578251825591602001919060010190620004ae565b50620004d99291506200051a565b5090565b828054828255906000526020600020908101928215620004cb5791602002820182811115620004cb578251825591602001919060010190620004ae565b5b80821115620004d957600081556001016200051b565b80516200053e81620008b7565b92915050565b600082601f83011262000555578081fd5b81516001600160401b038111156200056b578182fd5b60208082026200057d82820162000890565b838152935081840185830182870184018810156200059a57600080fd5b600092505b84831015620005bf5780518252600192909201919083019083016200059f565b505050505092915050565b805180151581146200053e57600080fd5b8051600681106200053e57600080fd5b600082601f830112620005fc578081fd5b81516001600160401b0381111562000612578182fd5b602062000628601f8301601f1916820162000890565b925081835284818386010111156200063f57600080fd5b60005b828110156200065f57848101820151848201830152810162000642565b82811115620006715760008284860101525b50505092915050565b6000602082840312156200068c578081fd5b81516200069981620008b7565b9392505050565b60008060008060008060008060006101208a8c031215620006bf578485fd5b8951620006cc81620008b7565b60208b0151909950620006df81620008b7565b60408b01519098506001600160401b0380821115620006fc578687fd5b6200070a8d838e01620005eb565b98506200071b8d60608e0162000531565b975060808c015191508082111562000731578687fd5b50620007408c828d0162000544565b955050620007528b60a08c01620005db565b9350620007638b60c08c0162000531565b9250620007748b60e08c0162000531565b9150620007868b6101008c01620005ca565b90509295985092959850929598565b60008060408385031215620007a8578182fd5b8251915060208301518015158114620007bf578182fd5b809150509250929050565b60008060008060808587031215620007e0578384fd5b505082516020840151604085015160609095015191969095509092509050565b60208101600683106200080f57fe5b91905290565b60208082526026908201527f4f776e61626c653a206e6577206f776e657220697320746865207a65726f206160408201526564647265737360d01b606082015260800190565b6020808252818101527f4f776e61626c653a2063616c6c6572206973206e6f7420746865206f776e6572604082015260600190565b6040518181016001600160401b0381118282101715620008af57600080fd5b604052919050565b6001600160a01b0381168114620008cd57600080fd5b50565b61290880620008e06000396000f3fe608060405234801561001057600080fd5b506004361061022d5760003560e01c80637fd788aa1161013b578063d7a5c422116100b8578063f2fde38b1161007c578063f2fde38b14610474578063f51b7ab914610487578063f7e9dfff1461048f578063fbbf93a014610497578063fd5e6dd1146104b15761022d565b8063d7a5c4221461042b578063db2da48c1461043e578063db69a46214610451578063e68e276d14610459578063ee575c281461046c5761022d565b8063b18ac918116100ff578063b18ac918146103eb578063b7bc347e146103f3578063c623674f146103fb578063cbe230c314610410578063cd92890e146104235761022d565b80637fd788aa146103a95780638da5cb5b146103b15780639ab4438f146103b95780639fc4caa5146103db578063a224ee9c146103e35761022d565b806333df1541116101c957806357ac94f01161018d57806357ac94f0146103375780635c1c20de146103585780635e5f2e26146103605780636f265a3414610380578063715018a6146103a15761022d565b806333df1541146102e15780633d9287fa146102f457806346e0fbae146102fc5780634a4c560d14610311578063524f0735146103245761022d565b8063021eef7f146102325780630ae9ea451461025b5780630bea440d1461027b5780630c5160f414610290578063171e44ea146102985780631bf30929146102ab5780631fc2cd93146102b357806327cd727c146102c65780632eb8197a146102d9575b600080fd5b610245610240366004611fe4565b6104c4565b6040516102529190612223565b60405180910390f35b61026e610269366004611fe4565b61050e565b6040516102529190612856565b61028e610289366004612014565b61052c565b005b61026e610609565b61028e6102a6366004611f7f565b61060f565b61026e61079a565b61028e6102c1366004611f7f565b6107a0565b61028e6102d4366004612014565b6109f3565b61026e610b33565b61026e6102ef366004612014565b610b39565b610245610b56565b610304610b5f565b604051610252919061222e565b61028e61031f366004611f7f565b610b68565b61028e610332366004611f7f565b610bfa565b61034a610345366004611f9a565b610c06565b604051610252929190612160565b61026e610c54565b61037361036e366004611fe4565b610c5a565b6040516102529190612128565b61039361038e366004611f7f565b610c81565b60405161025292919061285f565b61028e610ce6565b610245610d65565b610373610d6e565b6103cc6103c7366004611fe4565b610d7d565b6040516102529392919061286d565b610373610da1565b610373610db5565b61026e610dc4565b61026e610dca565b610403610dd0565b604051610252919061225a565b61024561041e366004611f7f565b610e5e565b610373610eb0565b61028e610439366004612040565b610ebf565b61026e61044c366004611f7f565b6110ca565b6103736110dc565b61026e610467366004611f7f565b6110eb565b61026e6110fd565b61028e610482366004611f7f565b611103565b61026e6111b9565b6103736111bf565b61049f6111ce565b60405161025296959493929190612179565b6103736104bf366004611fe4565b6114c1565b6000805b6017548110156105035782601782815481106104e057fe5b906000526020600020015414156104fb576001915050610509565b6001016104c8565b50600090505b919050565b6017818154811061051b57fe5b600091825260209091200154905081565b600082116105555760405162461bcd60e51b815260040161054c90612720565b60405180910390fd5b601c5460ff16156105785760405162461bcd60e51b815260040161054c9061266a565b61058282826114ce565b601854604051635948284760e11b81526001600160a01b039091169063b290508e906105b2903390600401612128565b602060405180830381600087803b1580156105cc57600080fd5b505af11580156105e0573d6000803e3d6000fd5b505050506040513d601f19601f820116820180604052508101906106049190611fc4565b505050565b60115481565b610617611777565b6000546001600160a01b039081169116146106445760405162461bcd60e51b815260040161054c90612635565b61064d81610e5e565b1561066a5760405162461bcd60e51b815260040161054c906126f3565b60015460405163cbe230c360e01b81526001600160a01b039091169063cbe230c39061069a908490600401612128565b60206040518083038186803b1580156106b257600080fd5b505afa1580156106c6573d6000803e3d6000fd5b505050506040513d601f19601f820116820180604052508101906106ea9190611fc4565b151560011461070b5760405162461bcd60e51b815260040161054c906123d0565b600954600090610723906001600160a01b0316610c81565b509050600c5481116107475760405162461bcd60e51b815260040161054c906127b4565b50600a80546001810182556000919091527fc65a7bb8d6351c1cf70c95a316cc6a92839c986682d98bc35f958f4883f9d2a80180546001600160a01b0319166001600160a01b0392909216919091179055565b601b5481565b6107a8610d6e565b6001600160a01b0316336001600160a01b031614156107d95760405162461bcd60e51b815260040161054c90612811565b60125460ff1615156001141561081d573360009081526013602052604090205460ff16151560011461081d5760405162461bcd60e51b815260040161054c906124bf565b6001600160a01b038116600090815260046020908152604080832033845290915290205461271090806108625760405162461bcd60e51b815260040161054c90612462565b6001600160a01b03831660009081526005602052604081205461088f90610889848661177b565b906117be565b6001600160a01b038516600090815260066020526040812054919250906108bc908590610889908561177b565b90506000856001600160a01b031663a9059cbb33846002026040518363ffffffff1660e01b81526004016108f1929190612160565b602060405180830381600087803b15801561090b57600080fd5b505af115801561091f573d6000803e3d6000fd5b505050506040513d601f19601f820116820180604052508101906109439190611fc4565b90506001811515146109675760405162461bcd60e51b815260040161054c9061274c565b6001600160a01b03861660009081526005602052604090205461098a9085611800565b6001600160a01b0387166000908152600560209081526040808320939093556006905220546109b99083611800565b6001600160a01b03909616600090815260066020908152604080832098909855600481528782203383529052958620959095555050505050565b60008211610a135760405162461bcd60e51b815260040161054c90612720565b60178054600091906000198101908110610a2957fe5b600091825260208220015460165460405160016259edcb60e01b031981529193506001600160a01b036101008204169163ffa6123591610a739160ff909116908690600401612242565b604080518083038186803b158015610a8a57600080fd5b505afa158015610a9e573d6000803e3d6000fd5b505050506040513d601f19601f82011682018060405250810190610ac29190612061565b601c5490925060ff161515600114905080610b075750804210158015610b0757506000828152601a6020526040812060029081015460ff1690811115610b0457fe5b14155b610b235760405162461bcd60e51b815260040161054c906122d4565b610b2d8484611842565b50505050565b600e5481565b600760209081526000928352604080842090915290825290205481565b60125460ff1681565b60165460ff1681565b610b70611777565b6000546001600160a01b03908116911614610b9d5760405162461bcd60e51b815260040161054c90612635565b6001600160a01b03811660009081526013602052604090205460ff1615610bd65760405162461bcd60e51b815260040161054c906122a2565b6001600160a01b03166000908152601360205260409020805460ff19166001179055565b610c03816107a0565b50565b6000806000600a8481548110610c1857fe5b6000918252602080832091909101546001600160a01b039081168084526004835260408085209990921684529790915290205494959350505050565b600b5481565b600a8181548110610c6757fe5b6000918252602090912001546001600160a01b0316905081565b6001600160a01b0381166000908152600460205260408120819081610ca4610d6e565b6001600160a01b039081168252602080830193909352604091820160009081205491871681526003909352912054909250610cdf9083611800565b9050915091565b610cee611777565b6000546001600160a01b03908116911614610d1b5760405162461bcd60e51b815260040161054c90612635565b600080546040516001600160a01b03909116907f8be0079c531659141344cd1fd0a4f28419497f9722a3daafe3b4186f6b6457e0908390a3600080546001600160a01b0319169055565b601c5460ff1690565b6000546001600160a01b031690565b601a6020526000908152604090208054600182015460029092015490919060ff1683565b60165461010090046001600160a01b031681565b6019546001600160a01b031681565b600d5481565b600a5490565b6015805460408051602060026001851615610100026000190190941693909304601f81018490048402820184019092528181529291830182828015610e565780601f10610e2b57610100808354040283529160200191610e56565b820191906000526020600020905b815481529060010190602001808311610e3957829003601f168201915b505050505081565b6000805b600a5481101561050357826001600160a01b0316600a8281548110610e8357fe5b6000918252602090912001546001600160a01b03161415610ea8576001915050610509565b600101610e62565b6014546001600160a01b031681565b6019546001600160a01b03163314610ee95760405162461bcd60e51b815260040161054c9061241d565b7fc95987c1992805ee34bdc915e017cceae36ba1c156b9911fa7e691e6435eb46e428383604051610f1c93929190612890565b60405180910390a16000818152601a60209081526040808320600181018690554281556014548251633fa4f24560e01b815292519194936001600160a01b0390911692633fa4f2459260048083019392829003018186803b158015610f8057600080fd5b505afa158015610f94573d6000803e3d6000fd5b505050506040513d601f19601f82011682018060405250810190610fb89190611ffc565b60145460405163868d08f760e01b81529192506001600160a01b03169063868d08f790610fe9908790600401612856565b60206040518083038186803b15801561100157600080fd5b505afa158015611015573d6000803e3d6000fd5b505050506040513d601f19601f820116820180604052508101906110399190611fc4565b156110655760028201805460ff191660011790556110608361105b8684611800565b611a0c565b610b2d565b6002828101805460ff1916909117905561107d611b70565b601c805460ff191660011790556040517fbd33f7a3bfa88a467c9df5ae7d2341cf061084c386b20a0d48130f5cbce38a4d906110bc908590879061285f565b60405180910390a150505050565b60066020526000908152604090205481565b6018546001600160a01b031681565b60056020526000908152604090205481565b600c5481565b61110b611777565b6000546001600160a01b039081169116146111385760405162461bcd60e51b815260040161054c90612635565b6001600160a01b03811661115e5760405162461bcd60e51b815260040161054c90612353565b600080546040516001600160a01b03808516939216917f8be0079c531659141344cd1fd0a4f28419497f9722a3daafe3b4186f6b6457e091a3600080546001600160a01b0319166001600160a01b0392909216919091179055565b600f5481565b6009546001600160a01b031681565b6000606060006060600060606111e2610d6e565b60158054604080516020601f6002600019610100600188161502019095169490940493840181900481028201810190925282815293995083018282801561126a5780601f1061123f5761010080835404028352916020019161126a565b820191906000526020600020905b81548152906001019060200180831161124d57829003601f168201915b50506014546017549499506001600160a01b031697505067ffffffffffffffff8311915050801561129a57600080fd5b506040519080825280602002602001820160405280156112d457816020015b6112c1611f26565b8152602001906001900390816112b95790505b50925060005b6017548110156113b1576000601782815481106112f357fe5b90600052602060002001549050611308611f26565b6000828152601a6020908152604091829020825160608101845281548152600182015492810192909252600280820154929391929184019160ff169081111561134d57fe5b600281111561135857fe5b815250509050604051806060016040528082600001518152602001826020015181526020018260400151600281111561138d57fe5b81525086848151811061139c57fe5b602090810291909101015250506001016112da565b50600854600a5490925067ffffffffffffffff811180156113d157600080fd5b5060405190808252806020026020018201604052801561140b57816020015b6113f8611f51565b8152602001906001900390816113f05790505b50905060005b600a548110156114b8576040518060400160405280600a838154811061143357fe5b9060005260206000200160009054906101000a90046001600160a01b03166001600160a01b0316815260200160036000600a858154811061147057fe5b60009182526020808320909101546001600160a01b03168352820192909252604001902054905282518390839081106114a557fe5b6020908102919091010152600101611411565b50909192939495565b60088181548110610c6757fe5b806114d881610e5e565b15156001146114f95760405162461bcd60e51b815260040161054c90612607565b60125460ff1615156001141561153d573360009081526013602052604090205460ff16151560011461153d5760405162461bcd60e51b815260040161054c906124bf565b611545610d6e565b6001600160a01b0316336001600160a01b03161461159a5760008061156984610c81565b9092509050816115798287611cdb565b11156115975760405162461bcd60e51b815260040161054c9061257e565b50505b6040516323b872dd60e01b81526000906001600160a01b038416906323b872dd906115cd9033903090899060040161213c565b602060405180830381600087803b1580156115e757600080fd5b505af11580156115fb573d6000803e3d6000fd5b505050506040513d601f19601f8201168201806040525081019061161f9190611fc4565b90506001811515146116435760405162461bcd60e51b815260040161054c906126b2565b6001600160a01b0383166000908152600360205260409020546116669085611cdb565b6001600160a01b038416600090815260036020908152604080832093909355600481528282203383529052205461169d9085611cdb565b6001600160a01b0384166000908152600460209081526040808320338085529252909120919091556116ce90611d00565b61171557600880546001810182556000919091527ff3f7a9fe364faab93b216da50a3214154f22a0a2b415b23a84c8169e8b636ee30180546001600160a01b031916331790555b61171d610d6e565b6001600160a01b0316336001600160a01b031614610b2d576001600160a01b0383166000908152600560205260409020546117589085611cdb565b6001600160a01b03841660009081526005602052604090205550505050565b3390565b60008261178a575060006117b8565b8282028284828161179757fe5b04146117b55760405162461bcd60e51b815260040161054c906125c6565b90505b92915050565b60006117b583836040518060400160405280601a81526020017f536166654d6174683a206469766973696f6e206279207a65726f000000000000815250611d52565b60006117b583836040518060400160405280601e81526020017f536166654d6174683a207375627472616374696f6e206f766572666c6f770000815250611d89565b8061184c81610e5e565b151560011461186d5760405162461bcd60e51b815260040161054c90612607565b60125460ff161515600114156118b1573360009081526013602052604090205460ff1615156001146118b15760405162461bcd60e51b815260040161054c906124bf565b6001600160a01b03821660009081526004602090815260408083203384529091529020548311156118f45760405162461bcd60e51b815260040161054c90612534565b6001600160a01b0382166000908152600360205260409020546119179084611800565b6001600160a01b038316600090815260036020908152604080832093909355600481528282203383529052205461194e9084611800565b6001600160a01b038316600081815260046020818152604080842033808652925280842095909555935163a9059cbb60e01b8152919363a9059cbb9261199692899101612160565b602060405180830381600087803b1580156119b057600080fd5b505af11580156119c4573d6000803e3d6000fd5b505050506040513d601f19601f820116820180604052508101906119e89190611fc4565b9050600181151514610b2d5760405162461bcd60e51b815260040161054c9061226d565b60005b600a54811015610604576000600a8281548110611a2857fe5b60009182526020822001546001600160a01b03169150611a4782610c81565b915050600061271090506000611a78600f5461088988611a728660115461177b90919063ffffffff16565b9061177b565b90506000611a8d60648402610889868561177b565b6009549091506001600160a01b0386811691161415611ac0576000611ab182611db5565b9050611abd8282611800565b50505b6001600160a01b0385166000908152600460205260408120611b0791839190611ae7610d6e565b6001600160a01b0316815260208101919091526040016000205490611cdb565b6001600160a01b038616600090815260046020526040812090611b28610d6e565b6001600160a01b03908116825260208083019390935260409182016000908120949094558b845260078352818420981683529690529490942093909355505050600101611a0f565b60005b600a54811015610c03576000600a8281548110611b8c57fe5b60009182526020822001546001600160a01b03169150611bab82610c81565b6009549092508291506001600160a01b0384811691161415611be1576000611bd282611db5565b9050611bde8282611800565b50505b6001600160a01b038316600090815260036020526040902054611c049082611800565b6001600160a01b03841660009081526003602090815260408083209390935560049052908120611c5991839190611c39610d6e565b6001600160a01b0316815260208101919091526040016000205490611800565b6001600160a01b038416600090815260046020526040812090611c7a610d6e565b6001600160a01b0390811682526020808301939093526040918201600090812094909455861683526006909152902054611cb49082611cdb565b6001600160a01b039093166000908152600660205260409020929092555050600101611b73565b6000828201838110156117b55760405162461bcd60e51b815260040161054c90612399565b6000805b60085481101561050357826001600160a01b031660088281548110611d2557fe5b6000918252602090912001546001600160a01b03161415611d4a576001915050610509565b600101611d04565b60008183611d735760405162461bcd60e51b815260040161054c919061225a565b506000838581611d7f57fe5b0495945050505050565b60008184841115611dad5760405162461bcd60e51b815260040161054c919061225a565b505050900390565b60408051808201909152600d81526c6275726e2875696e743235362960981b602090910152600b546000907f42966c689b5afe9b9b3f8a7103b2a19980d59629bfd6a20a60972312ed41d83690611e15906103e89061088990869061177b565b6009546040519193506000916001600160a01b03909116908390611e3d908690602401612856565b60408051601f198184030181529181526020820180516001600160e01b03166001600160e01b0319909416939093179092529051611e7b919061210c565b6000604051808303816000865af19150503d8060008114611eb8576040519150601f19603f3d011682016040523d82523d6000602084013e611ebd565b606091505b5050905080611ede5760405162461bcd60e51b815260040161054c906124f0565b6009546001600160a01b0316600090815260036020526040902054611f039084611800565b6009546001600160a01b0316600090815260036020526040902055509092915050565b6040518060600160405280600081526020016000815260200160006002811115611f4c57fe5b905290565b604080518082019091526000808252602082015290565b80356001600160a01b03811681146117b857600080fd5b600060208284031215611f90578081fd5b6117b58383611f68565b60008060408385031215611fac578081fd5b611fb68484611f68565b946020939093013593505050565b600060208284031215611fd5578081fd5b815180151581146117b5578182fd5b600060208284031215611ff5578081fd5b5035919050565b60006020828403121561200d578081fd5b5051919050565b60008060408385031215612026578182fd5b823591506120378460208501611f68565b90509250929050565b60008060408385031215612052578182fd5b50508035926020909101359150565b60008060408385031215612073578182fd5b505080516020909101519092909150565b6000815180845260208085019450808401835b838110156120c757815180516001600160a01b031688528301518388015260409096019590820190600101612097565b509495945050505050565b600381106120dc57fe5b9052565b600081518084526120f88160208601602086016128a6565b601f01601f19169290920160200192915050565b6000825161211e8184602087016128a6565b9190910192915050565b6001600160a01b0391909116815260200190565b6001600160a01b039384168152919092166020820152604081019190915260600190565b6001600160a01b03929092168252602082015260400190565b600060018060a01b038089168352602060c08185015261219c60c085018a6120e0565b6040838a168187015260609350858203848701528189518084528484019150848b019350865b818110156121f85784518051845286810151878501528401516121e7858501826120d2565b5093850193918601916001016121c2565b505088608088015286810360a08801526122128189612084565b9d9c50505050505050505050505050565b901515815260200190565b602081016006831061223c57fe5b91905290565b604081016006841061225057fe5b9281526020015290565b6000602082526117b560208301846120e0565b6020808252818101527f5374616b6520776974686472617720776173206e6f742073756363657366756c604082015260600190565b602080825260189082015277155cd95c88185b1c9958591e481dda1a5d195b1a5cdd195960421b604082015260600190565b60208082526059908201527f43616e206f6e6c79207769746864726177207374616b6520616674657220746860408201527f652066696e616c20706572696f642069732066696e6973686564206f72206966606082015278081d1a194818dbdb9d1c9858dd081a5cc8189c995858da1959603a1b608082015260a00190565b60208082526026908201527f4f776e61626c653a206e6577206f776e657220697320746865207a65726f206160408201526564647265737360d01b606082015260800190565b6020808252601b908201527f536166654d6174683a206164646974696f6e206f766572666c6f770000000000604082015260600190565b6020808252602d908201527f546f6b656e206e6f7420616c6c6f7765642062792074686520534c415265676960408201526c1cdd1c9e4818dbdb9d1c9858dd609a1b606082015260800190565b60208082526025908201527f4f6e6c79204d657373656e6765722063616e2063616c6c20746869732066756e60408201526431ba34b7b760d91b606082015260800190565b6020808252603a908201527f43616e206f6e6c7920636c61696d206120636f6d70656e736174696f6e20696660408201527f20706f736974696f6e20697320626967676572207468616e2030000000000000606082015260800190565b602080825260179082015276155cd95c881a5cc81b9bdd081dda1a5d195b1a5cdd1959604a1b604082015260600190565b60208082526024908201527f44534c41206275726e2070726f6365737320776173206e6f74207375636365736040820152631cd99d5b60e21b606082015260800190565b6020808252602a908201527f53686f756c64206e6f74207769746864726177206d6f7265207374616b6520746040820152691a185b881cdd185ad95960b21b606082015260800190565b60208082526028908201527f43616e6e6f74207374616b65206d6f7265207468616e20534c412070726f76696040820152676465727374616b6560c01b606082015260800190565b60208082526021908201527f536166654d6174683a206d756c7469706c69636174696f6e206f766572666c6f6040820152607760f81b606082015260800190565b6020808252601490820152731d1bdad95b881a5cc81b9bdd08185b1b1bddd95960621b604082015260600190565b6020808252818101527f4f776e61626c653a2063616c6c6572206973206e6f7420746865206f776e6572604082015260600190565b60208082526028908201527f43616e206f6e6c79207374616b65206f6e206e6f7420627265616368656420636040820152676f6e74726163747360c01b606082015260800190565b60208082526021908201527f5374616b696e672070726f6365737320776173206e6f742073756363657366756040820152601b60fa1b606082015260800190565b602080825260139082015272151bdad95b88185b1c9958591e481859191959606a1b604082015260600190565b6020808252601290820152710616d6f756e742063616e6e6f7420626520360741b604082015260600190565b60208082526042908201527f5472616e736665722070726f636573732066726f6d20534c4120636f6e74726160408201527f637420746f206d73672e73656e64657220776173206e6f7420737563636573666060820152611d5b60f21b608082015260a00190565b6020808252603f908201527f53686f756c64207374616b65206174206c65617374206d696e696d756d44534c60408201527f415374616b6564546965723120746f206164642061206e657720746f6b656e00606082015260800190565b60208082526025908201527f53686f756c64206e6f742062652063616c6c65642062792074686520534c412060408201526437bbb732b960d91b606082015260800190565b90815260200190565b918252602082015260400190565b838152602081018390526060810161288860408301846120d2565b949350505050565b9283526020830191909152604082015260600190565b60005b838110156128c15781810151838201526020016128a9565b83811115610b2d575050600091015256fea2646970667358221220ab24353a37d1da09f790c04daa6a25d74985bb6a7cd7563c7ecbfd47fb00d13364736f6c634300060c00338be0079c531659141344cd1fd0a4f28419497f9722a3daafe3b4186f6b6457e0",
  "immutableReferences": {},
  "source": "// SPDX-License-Identifier: MIT\npragma solidity ^0.6.0;\npragma experimental ABIEncoderV2;\n\nimport \"@openzeppelin/contracts/access/Ownable.sol\";\nimport \"@openzeppelin/contracts/token/ERC20/IERC20.sol\";\nimport \"@openzeppelin/contracts/math/SafeMath.sol\";\nimport \"./SLO.sol\";\nimport \"./SLARegistry.sol\";\nimport \"./PeriodRegistry.sol\";\nimport \"./Staking.sol\";\n\n/**\n * @title SLA\n * @dev SLA is a service level agreement contract used for service downtime\n * compensation\n */\ncontract SLA is Staking {\n    using SafeMath for uint256;\n\n    enum Status {NotVerified, Respected, NotRespected}\n\n    /// @dev Struct used for storing period status\n    struct SLAPeriod {\n        uint256 timestamp;\n        uint256 sli;\n        Status status;\n    }\n\n    struct TokenStake {\n        address tokenAddress;\n        uint256 stake;\n    }\n\n    /// @dev address of the SLO\n    SLO public slo;\n\n    /// @dev The ipfs hash that stores extra information about the agreement\n    string public ipfsHash;\n\n    /// @dev uint8 of the period type\n    PeriodRegistry.PeriodType public periodType;\n\n    PeriodRegistry public periodRegistry;\n\n    /// @dev array of he allowed canonical period ids\n    uint256[] public periodIds;\n\n    /// @dev The address of the slaRegistry contract\n    SLARegistry public slaRegistry;\n\n    /// @dev The address of the messenger\n    address public messengerAddress;\n\n    /// @dev periodId=>SLAPeriod mapping\n    mapping(uint256 => SLAPeriod) public slaPeriods;\n\n    /// @dev block number of SLA deployment\n    uint256 public creationBlockNumber;\n\n    /// @dev states if the contract was breached or not\n    bool private _breachedContract = false;\n\n    /**\n     * @dev event for SLI creation logging\n     * @param _timestamp 1. the time the SLI has been registered\n     * @param _sli 2. the value of the SLI\n     * @param _periodId 3. the id of the given period\n     */\n    event SLICreated(uint256 _timestamp, uint256 _sli, uint256 _periodId);\n\n    /**\n     * @dev event for SLI creation logging\n     * @param _periodId 1. the id of the given period\n     * @param _sli 2. value of the SLI\n     */\n    event SLANotRespected(uint256 _periodId, uint256 _sli);\n\n    /**\n     * @dev throws if called by any address other than the messenger contract.\n     */\n    modifier onlyMessenger() {\n        require(\n            msg.sender == messengerAddress,\n            \"Only Messenger can call this function\"\n        );\n        _;\n    }\n\n    /**\n     * @dev throws if called by any address other than the messenger contract.\n     */\n    modifier onlySLARegistry() {\n        require(\n            msg.sender == address(slaRegistry),\n            \"Only SLARegistry can call this function\"\n        );\n        _;\n    }\n\n    /**\n     * @param _owner 1. address of the owner of the service level agreement\n     * @param _SLO 2. address of the SLO\n     * @param _ipfsHash 3. string with the ipfs hash that contains SLA information\n     * @param _periodIds 4. id of the allowed canonical periods\n     * @param _periodType 5. period type of the SLA contract\n     * @param _stakeRegistry 6. stakeRegistry address\n     * @param _periodRegistry 7. periodRegistry address\n     * @param _whitelisted 8. boolean to declare whitelisted contracts\n     */\n    constructor(\n        address _owner,\n        SLO _SLO,\n        string memory _ipfsHash,\n        address _messengerAddress,\n        uint256[] memory _periodIds,\n        PeriodRegistry.PeriodType _periodType,\n        address _stakeRegistry,\n        address _periodRegistry,\n        bool _whitelisted\n    )\n        public\n        Staking(\n            _stakeRegistry,\n            _periodRegistry,\n            _periodType,\n            _periodIds.length,\n            _whitelisted\n        )\n    {\n        transferOwnership(_owner);\n        ipfsHash = _ipfsHash;\n        messengerAddress = _messengerAddress;\n        slaRegistry = SLARegistry(msg.sender);\n        periodRegistry = PeriodRegistry(_periodRegistry);\n        creationBlockNumber = block.number;\n        periodIds = _periodIds;\n        periodType = _periodType;\n        slo = _SLO;\n    }\n\n    /**\n     * @dev external function to register SLI's and check them against the SLO's\n     * @param _sli 1. the value of the SLI to check\n     * @param _periodId 2. the id of the given period\n     */\n    function registerSLI(uint256 _sli, uint256 _periodId)\n        external\n        onlyMessenger\n    {\n        emit SLICreated(block.timestamp, _sli, _periodId);\n        SLAPeriod storage slaPeriod = slaPeriods[_periodId];\n        slaPeriod.sli = _sli;\n        slaPeriod.timestamp = block.timestamp;\n        uint256 sloValue = slo.value();\n        if (slo.isSLOHonored(_sli)) {\n            slaPeriod.status = Status.Respected;\n            _setRespectedPeriodReward(_periodId, _sli.sub(sloValue));\n        } else {\n            slaPeriod.status = Status.NotRespected;\n            _setUsersCompensationPool();\n            _breachedContract = true;\n            emit SLANotRespected(_periodId, _sli);\n        }\n    }\n\n    function isAllowedPeriod(uint256 _periodId) public view returns (bool) {\n        for (uint256 index = 0; index < periodIds.length; index++) {\n            if (periodIds[index] == _periodId) {\n                return true;\n            }\n        }\n        return false;\n    }\n\n    /**\n     *@dev stake _amount tokens into the _token contract\n     *@param _amount 1. amount to be staked\n     *@param _token 2. address of the ERC to be staked\n     */\n\n    function stakeTokens(uint256 _amount, address _token) public {\n        require(_amount > 0, \"amount cannot be 0\");\n        require(\n            _breachedContract == false,\n            \"Can only stake on not breached contracts\"\n        );\n        _stake(_amount, _token);\n        slaRegistry.registerStakedSla(msg.sender);\n    }\n\n    /**\n     *@dev withdraw _amount tokens from the _token contract\n     *@param _amount 1. amount to be staked\n     *@param _tokenAddress 2. address of the ERC to be staked\n     */\n\n    function withdrawStakedTokens(uint256 _amount, address _tokenAddress)\n        public\n    {\n        require(_amount > 0, \"amount cannot be 0\");\n        uint256 lastValidPeriodId = periodIds[periodIds.length - 1];\n        (, uint256 endOfLastValidPeriod) =\n            periodRegistry.getPeriodStartAndEnd(periodType, lastValidPeriodId);\n        // providers and users can withdraw only if the contract is breached\n        // or if the last period is finished and the period status was verified\n        require(\n            _breachedContract == true ||\n                (block.timestamp >= endOfLastValidPeriod &&\n                    slaPeriods[lastValidPeriodId].status != Status.NotVerified),\n            \"Can only withdraw stake after the final period is finished or if the contract is breached\"\n        );\n        _withdraw(_amount, _tokenAddress);\n    }\n\n    /**\n     *@dev withdraw provider reward of a given token address\n     *@param _tokenAddress 1. address of the token to withdraw rewards\n     */\n\n    function claimUserCompensation(address _tokenAddress) public {\n        _claimCompensation(_tokenAddress);\n    }\n\n    /**\n     * @dev external view function that returns all agreement information\n     * @return _slaOwner 1. address  owner\n     * @return _ipfsHash 2. string  ipfsHash\n     * @return _SLO 3. addresses of the SLO\n     * @return _SLAPeriods 5. SLAPeriod[]\n     * @return _stakersCount 6. amount of stakers\n     * @return _tokensStake 7. SLAPeriod[]  addresses array\n     */\n\n    function getDetails()\n        external\n        view\n        returns (\n            address _slaOwner,\n            string memory _ipfsHash,\n            SLO _SLO,\n            SLAPeriod[] memory _SLAPeriods,\n            uint256 _stakersCount,\n            TokenStake[] memory _tokensStake\n        )\n    {\n        _slaOwner = owner();\n        _ipfsHash = ipfsHash;\n        _SLO = slo;\n        _SLAPeriods = new SLAPeriod[](periodIds.length);\n        for (uint256 index = 0; index < periodIds.length; index++) {\n            uint256 periodId = periodIds[index];\n            SLAPeriod memory slaPeriod = slaPeriods[periodId];\n            _SLAPeriods[index] = SLAPeriod({\n                status: slaPeriod.status,\n                sli: slaPeriod.sli,\n                timestamp: slaPeriod.timestamp\n            });\n        }\n        _stakersCount = stakers.length;\n        _tokensStake = new TokenStake[](allowedTokens.length);\n        for (uint256 index = 0; index < allowedTokens.length; index++) {\n            _tokensStake[index] = TokenStake({\n                tokenAddress: allowedTokens[index],\n                stake: tokenPools[allowedTokens[index]]\n            });\n        }\n    }\n\n    function breachedContract() public view returns (bool) {\n        return _breachedContract;\n    }\n}\n",
  "sourcePath": "/Users/matiasbn/Desktop/stacktical/stacktical-dsla-contracts/contracts/SLA.sol",
  "compiler": {
    "name": "solc",
    "version": "0.6.12+commit.27d51765.Emscripten.clang"
  },
  "schemaVersion": "3.3.3",
  "updatedAt": "2021-02-14T22:24:49.938Z",
  "devdoc": {
    "details": "SLA is a service level agreement contract used for service downtime compensation",
    "events": {
      "SLANotRespected(uint256,uint256)": {
        "details": "event for SLI creation logging",
        "params": {
          "_periodId": "1. the id of the given period",
          "_sli": "2. value of the SLI"
        }
      },
      "SLICreated(uint256,uint256,uint256)": {
        "details": "event for SLI creation logging",
        "params": {
          "_periodId": "3. the id of the given period",
          "_sli": "2. the value of the SLI",
          "_timestamp": "1. the time the SLI has been registered"
        }
      }
    },
    "kind": "dev",
    "methods": {
      "_claimCompensation(address)": {
        "details": "claim user compensation. Transfers both the compensation and the user remaining stake.",
        "params": {
          "_tokenAddress": "1. address of the token to claim compensation"
        }
      },
      "addAllowedTokens(address)": {
        "details": "add a token to ve allowed for staking",
        "params": {
          "_tokenAddress": "1. address of the new allowed token"
        }
      },
      "claimUserCompensation(address)": {
        "details": "withdraw provider reward of a given token address",
        "params": {
          "_tokenAddress": "1. address of the token to withdraw rewards"
        }
      },
      "constructor": {
        "params": {
          "_SLO": "2. address of the SLO",
          "_ipfsHash": "3. string with the ipfs hash that contains SLA information",
          "_owner": "1. address of the owner of the service level agreement",
          "_periodIds": "4. id of the allowed canonical periods",
          "_periodRegistry": "7. periodRegistry address",
          "_periodType": "5. period type of the SLA contract",
          "_stakeRegistry": "6. stakeRegistry address",
          "_whitelisted": "8. boolean to declare whitelisted contracts"
        }
      },
      "getDetails()": {
        "details": "external view function that returns all agreement information",
        "returns": {
          "_SLAPeriods": "5. SLAPeriod[]",
          "_SLO": "3. addresses of the SLO",
          "_ipfsHash": "2. string  ipfsHash",
          "_slaOwner": "1. address  owner",
          "_stakersCount": "6. amount of stakers",
          "_tokensStake": "7. SLAPeriod[]  addresses array"
        }
      },
      "getStakeholdersPositions(address)": {
        "details": "gets the positions of stake both for provider and for users",
        "params": {
          "_tokenAddress": "1. token address to get the positions"
        },
        "returns": {
          "providerStake": "position of the provider (owner) of the SLA contract",
          "usersStake": "position of the user of the SLA contract"
        }
      },
      "owner()": {
        "details": "Returns the address of the current owner."
      },
      "registerSLI(uint256,uint256)": {
        "details": "external function to register SLI's and check them against the SLO's",
        "params": {
          "_periodId": "2. the id of the given period",
          "_sli": "1. the value of the SLI to check"
        }
      },
      "renounceOwnership()": {
        "details": "Leaves the contract without owner. It will not be possible to call `onlyOwner` functions anymore. Can only be called by the current owner. NOTE: Renouncing ownership will leave the contract without an owner, thereby removing any functionality that is only available to the owner."
      },
      "stakeTokens(uint256,address)": {
        "details": "stake _amount tokens into the _token contract",
        "params": {
          "_amount": "1. amount to be staked",
          "_token": "2. address of the ERC to be staked"
        }
      },
      "transferOwnership(address)": {
        "details": "Transfers ownership of the contract to a new account (`newOwner`). Can only be called by the current owner."
      },
      "withdrawStakedTokens(uint256,address)": {
        "details": "withdraw _amount tokens from the _token contract",
        "params": {
          "_amount": "1. amount to be staked",
          "_tokenAddress": "2. address of the ERC to be staked"
        }
      }
    },
    "stateVariables": {
      "_breachedContract": {
        "details": "states if the contract was breached or not"
      },
      "creationBlockNumber": {
        "details": "block number of SLA deployment"
      },
      "ipfsHash": {
        "details": "The ipfs hash that stores extra information about the agreement"
      },
      "messengerAddress": {
        "details": "The address of the messenger"
      },
      "periodIds": {
        "details": "array of he allowed canonical period ids"
      },
      "periodType": {
        "details": "uint8 of the period type"
      },
      "slaPeriods": {
        "details": "periodId=>SLAPeriod mapping"
      },
      "slaRegistry": {
        "details": "The address of the slaRegistry contract"
      },
      "slo": {
        "details": "address of the SLO"
      }
    },
    "title": "SLA",
    "version": 1
  },
  "userdoc": {
    "kind": "user",
    "methods": {
      "_claimCompensation(address)": {
        "notice": "it uses the user position and the user total position per token to check the proportion of the compensation pool that corresponds to every user"
      }
    },
    "version": 1
  }
}