{
  "contractName": "SLA",
  "abi": [
    {
      "inputs": [
        {
          "internalType": "address",
          "name": "_owner",
          "type": "address"
        },
        {
          "internalType": "bytes32[]",
          "name": "_SLONames",
          "type": "bytes32[]"
        },
        {
          "internalType": "contract SLO[]",
          "name": "_SLOs",
          "type": "address[]"
        },
        {
          "internalType": "uint256",
          "name": "_stake",
          "type": "uint256"
        },
        {
          "internalType": "string",
          "name": "_ipfsHash",
          "type": "string"
        },
        {
          "internalType": "uint256",
          "name": "_sliInterval",
          "type": "uint256"
        },
        {
          "internalType": "contract bDSLAToken",
          "name": "_tokenAddress",
          "type": "address"
        },
        {
          "internalType": "uint256[]",
          "name": "_sla_period_starts",
          "type": "uint256[]"
        },
        {
          "internalType": "uint256[]",
          "name": "_sla_period_ends",
          "type": "uint256[]"
        }
      ],
      "stateMutability": "nonpayable",
      "type": "constructor"
    },
    {
      "anonymous": false,
      "inputs": [
        {
          "indexed": true,
          "internalType": "uint256",
          "name": "period_index",
          "type": "uint256"
        }
      ],
      "name": "NewPeriodAdded",
      "type": "event"
    },
    {
      "anonymous": false,
      "inputs": [
        {
          "indexed": true,
          "internalType": "address",
          "name": "previousOwner",
          "type": "address"
        },
        {
          "indexed": true,
          "internalType": "address",
          "name": "newOwner",
          "type": "address"
        }
      ],
      "name": "OwnershipTransferred",
      "type": "event"
    },
    {
      "anonymous": false,
      "inputs": [
        {
          "indexed": false,
          "internalType": "uint256",
          "name": "_timestamp",
          "type": "uint256"
        },
        {
          "indexed": false,
          "internalType": "uint256",
          "name": "_value",
          "type": "uint256"
        },
        {
          "indexed": false,
          "internalType": "string",
          "name": "_hash",
          "type": "string"
        }
      ],
      "name": "SLICreated",
      "type": "event"
    },
    {
      "inputs": [
        {
          "internalType": "bytes32",
          "name": "",
          "type": "bytes32"
        },
        {
          "internalType": "uint256",
          "name": "",
          "type": "uint256"
        }
      ],
      "name": "SLIs",
      "outputs": [
        {
          "internalType": "uint256",
          "name": "timestamp",
          "type": "uint256"
        },
        {
          "internalType": "uint256",
          "name": "value",
          "type": "uint256"
        },
        {
          "internalType": "string",
          "name": "ipfsHash",
          "type": "string"
        }
      ],
      "stateMutability": "view",
      "type": "function"
    },
    {
      "inputs": [
        {
          "internalType": "bytes32",
          "name": "",
          "type": "bytes32"
        }
      ],
      "name": "SLOs",
      "outputs": [
        {
          "internalType": "contract SLO",
          "name": "",
          "type": "address"
        }
      ],
      "stateMutability": "view",
      "type": "function"
    },
    {
      "inputs": [
        {
          "internalType": "address",
          "name": "_token",
          "type": "address"
        }
      ],
      "name": "addAllowedTokens",
      "outputs": [],
      "stateMutability": "nonpayable",
      "type": "function"
    },
    {
      "inputs": [
        {
          "internalType": "uint256",
          "name": "_sla_period_start",
          "type": "uint256"
        },
        {
          "internalType": "uint256",
          "name": "_sla_period_end",
          "type": "uint256"
        }
      ],
      "name": "addNewPeriod",
      "outputs": [],
      "stateMutability": "nonpayable",
      "type": "function"
    },
    {
      "inputs": [
        {
          "internalType": "uint256",
          "name": "",
          "type": "uint256"
        }
      ],
      "name": "allowedTokens",
      "outputs": [
        {
          "internalType": "address",
          "name": "",
          "type": "address"
        }
      ],
      "stateMutability": "view",
      "type": "function"
    },
    {
      "inputs": [],
      "name": "bDSLA",
      "outputs": [
        {
          "internalType": "contract bDSLAToken",
          "name": "",
          "type": "address"
        }
      ],
      "stateMutability": "view",
      "type": "function"
    },
    {
      "inputs": [
        {
          "internalType": "uint256",
          "name": "_period",
          "type": "uint256"
        }
      ],
      "name": "claimCompensation",
      "outputs": [],
      "stateMutability": "nonpayable",
      "type": "function"
    },
    {
      "inputs": [
        {
          "internalType": "uint256",
          "name": "_period",
          "type": "uint256"
        }
      ],
      "name": "claimReward",
      "outputs": [],
      "stateMutability": "nonpayable",
      "type": "function"
    },
    {
      "inputs": [
        {
          "internalType": "address",
          "name": "_user",
          "type": "address"
        },
        {
          "internalType": "uint256",
          "name": "_period",
          "type": "uint256"
        }
      ],
      "name": "getUserTotalValue",
      "outputs": [
        {
          "internalType": "uint256",
          "name": "",
          "type": "uint256"
        }
      ],
      "stateMutability": "view",
      "type": "function"
    },
    {
      "inputs": [],
      "name": "ipfsHash",
      "outputs": [
        {
          "internalType": "string",
          "name": "",
          "type": "string"
        }
      ],
      "stateMutability": "view",
      "type": "function"
    },
    {
      "inputs": [],
      "name": "owner",
      "outputs": [
        {
          "internalType": "address",
          "name": "",
          "type": "address"
        }
      ],
      "stateMutability": "view",
      "type": "function"
    },
    {
      "inputs": [
        {
          "internalType": "uint256",
          "name": "",
          "type": "uint256"
        }
      ],
      "name": "periods",
      "outputs": [
        {
          "internalType": "uint256",
          "name": "sla_period_start",
          "type": "uint256"
        },
        {
          "internalType": "uint256",
          "name": "sla_period_end",
          "type": "uint256"
        },
        {
          "internalType": "uint256",
          "name": "claimed_reward",
          "type": "uint256"
        },
        {
          "internalType": "bool",
          "name": "claimed",
          "type": "bool"
        },
        {
          "internalType": "enum Staking.Status",
          "name": "status",
          "type": "uint8"
        }
      ],
      "stateMutability": "view",
      "type": "function"
    },
    {
      "inputs": [],
      "name": "registry",
      "outputs": [
        {
          "internalType": "contract SLARegistry",
          "name": "",
          "type": "address"
        }
      ],
      "stateMutability": "view",
      "type": "function"
    },
    {
      "inputs": [],
      "name": "renounceOwnership",
      "outputs": [],
      "stateMutability": "nonpayable",
      "type": "function"
    },
    {
      "inputs": [],
      "name": "stake",
      "outputs": [
        {
          "internalType": "uint256",
          "name": "",
          "type": "uint256"
        }
      ],
      "stateMutability": "view",
      "type": "function"
    },
    {
      "inputs": [
        {
          "internalType": "uint256",
          "name": "_amount",
          "type": "uint256"
        },
        {
          "internalType": "address",
          "name": "_token",
          "type": "address"
        },
        {
          "internalType": "uint256",
          "name": "_period",
          "type": "uint256"
        }
      ],
      "name": "stakeTokens",
      "outputs": [],
      "stateMutability": "nonpayable",
      "type": "function"
    },
    {
      "inputs": [
        {
          "internalType": "uint256",
          "name": "",
          "type": "uint256"
        }
      ],
      "name": "stakers",
      "outputs": [
        {
          "internalType": "address",
          "name": "",
          "type": "address"
        }
      ],
      "stateMutability": "view",
      "type": "function"
    },
    {
      "inputs": [],
      "name": "totalStaked",
      "outputs": [
        {
          "internalType": "uint256",
          "name": "",
          "type": "uint256"
        }
      ],
      "stateMutability": "view",
      "type": "function"
    },
    {
      "inputs": [
        {
          "internalType": "address",
          "name": "newOwner",
          "type": "address"
        }
      ],
      "name": "transferOwnership",
      "outputs": [],
      "stateMutability": "nonpayable",
      "type": "function"
    },
    {
      "inputs": [
        {
          "internalType": "address",
          "name": "",
          "type": "address"
        }
      ],
      "name": "uniqueTokensStaked",
      "outputs": [
        {
          "internalType": "uint256",
          "name": "",
          "type": "uint256"
        }
      ],
      "stateMutability": "view",
      "type": "function"
    },
    {
      "inputs": [],
      "name": "validator",
      "outputs": [
        {
          "internalType": "address",
          "name": "",
          "type": "address"
        }
      ],
      "stateMutability": "view",
      "type": "function"
    },
    {
      "inputs": [
        {
          "internalType": "address",
          "name": "_token",
          "type": "address"
        },
        {
          "internalType": "uint256",
          "name": "_period",
          "type": "uint256"
        }
      ],
      "name": "withdraw",
      "outputs": [],
      "stateMutability": "nonpayable",
      "type": "function"
    },
    {
      "inputs": [
        {
          "internalType": "address",
          "name": "_token",
          "type": "address"
        },
        {
          "internalType": "uint256",
          "name": "_amount",
          "type": "uint256"
        },
        {
          "internalType": "uint256",
          "name": "_period",
          "type": "uint256"
        }
      ],
      "name": "withdrawAndStake",
      "outputs": [],
      "stateMutability": "nonpayable",
      "type": "function"
    },
    {
      "inputs": [
        {
          "internalType": "bytes32",
          "name": "_SLOName",
          "type": "bytes32"
        },
        {
          "internalType": "uint256",
          "name": "_value",
          "type": "uint256"
        },
        {
          "internalType": "string",
          "name": "_hash",
          "type": "string"
        },
        {
          "internalType": "uint256",
          "name": "_period",
          "type": "uint256"
        }
      ],
      "name": "registerSLI",
      "outputs": [],
      "stateMutability": "nonpayable",
      "type": "function"
    },
    {
      "inputs": [
        {
          "internalType": "bytes32",
          "name": "_SLOName",
          "type": "bytes32"
        }
      ],
      "name": "getSLI",
      "outputs": [
        {
          "components": [
            {
              "internalType": "uint256",
              "name": "timestamp",
              "type": "uint256"
            },
            {
              "internalType": "uint256",
              "name": "value",
              "type": "uint256"
            },
            {
              "internalType": "string",
              "name": "ipfsHash",
              "type": "string"
            }
          ],
          "internalType": "struct SLA.SLI[]",
          "name": "",
          "type": "tuple[]"
        }
      ],
      "stateMutability": "view",
      "type": "function"
    },
    {
      "inputs": [],
      "name": "getSliInterval",
      "outputs": [
        {
          "internalType": "uint256",
          "name": "",
          "type": "uint256"
        }
      ],
      "stateMutability": "view",
      "type": "function"
    },
    {
      "inputs": [],
      "name": "getDetails",
      "outputs": [
        {
          "internalType": "address",
          "name": "",
          "type": "address"
        },
        {
          "internalType": "string",
          "name": "",
          "type": "string"
        },
        {
          "internalType": "uint256",
          "name": "",
          "type": "uint256"
        },
        {
          "internalType": "bytes32[]",
          "name": "",
          "type": "bytes32[]"
        },
        {
          "internalType": "contract SLO[]",
          "name": "",
          "type": "address[]"
        }
      ],
      "stateMutability": "view",
      "type": "function"
    }
  ],
  "bytecode": "0x60806040523480156200001157600080fd5b5060405162002fa038038062002fa083398101604081905262000034916200074e565b82828260006200004362000255565b600080546001600160a01b0319166001600160a01b03831690811782556040519293509160008051602062002f80833981519152908290a3508051825114620000a95760405162461bcd60e51b8152600401620000a090620008e0565b60405180910390fd5b600180546001600160a01b038086166001600160a01b03199283161780845560048054948501815560009081527f8a35acfbc15ff81a39ae7d344fd709f28e8600b4aa8c65c6b64bfe7fe36bd19b909401805484169190921617905560028054909116331790555b82518110156200015e57620001558382815181106200012c57fe5b60200260200101518383815181106200014157fe5b60200260200101516200025960201b60201c565b60010162000111565b5050505060058751106200017157600080fd5b86518851146200018057600080fd5b60005b8751811015620001f4578781815181106200019a57fe5b6020026020010151600c60008b8481518110620001b357fe5b602090810291909101810151825281019190915260400160002080546001600160a01b0319166001600160a01b039290921691909117905560010162000183565b506200020089620003a9565b87516200021590600e9060208b0190620004d8565b50600886905584516200023090600a90602088019062000528565b5050600b80546001600160a01b03191633179055505060095550620009f19350505050565b3390565b620002636200059a565b82815260208101828152600060808301818152600580546001810182559252835160069092027f036b6384b5eca791c62761152d0c79bb0604c104a5fb6f4eb0703f3154bb3db0810192835592517f036b6384b5eca791c62761152d0c79bb0604c104a5fb6f4eb0703f3154bb3db184015560408401517f036b6384b5eca791c62761152d0c79bb0604c104a5fb6f4eb0703f3154bb3db284015560608401517f036b6384b5eca791c62761152d0c79bb0604c104a5fb6f4eb0703f3154bb3db3909301805493151560ff199094169390931780845590518493909161ff0019166101008360028111156200035457fe5b021790555050506200037b60016005805490506200045660201b620019621790919060201c565b6040517ff791e873e3b67fe74b29aeede7bcbbdaa59c4b64e542571183cd837aa56f6ac990600090a2505050565b620003b362000255565b6000546001600160a01b03908116911614620003e35760405162461bcd60e51b8152600401620000a09062000929565b6001600160a01b0381166200040c5760405162461bcd60e51b8152600401620000a0906200089a565b600080546040516001600160a01b038085169392169160008051602062002f8083398151915291a3600080546001600160a01b0319166001600160a01b0392909216919091179055565b6000620004a083836040518060400160405280601e81526020017f536166654d6174683a207375627472616374696f6e206f766572666c6f770000815250620004a960201b60201c565b90505b92915050565b60008184841115620004d05760405162461bcd60e51b8152600401620000a0919062000865565b505050900390565b82805482825590600052602060002090810192821562000516579160200282015b8281111562000516578251825591602001919060010190620004f9565b5062000524929150620005d6565b5090565b828054600181600116156101000203166002900490600052602060002090601f016020900481019282601f106200056b57805160ff191683800117855562000516565b8280016001018555821562000516579182018281111562000516578251825591602001919060010190620004f9565b6040518060a0016040528060008152602001600081526020016000815260200160001515815260200160006002811115620005d157fe5b905290565b5b80821115620005245760008155600101620005d7565b8051620004a381620009d8565b600082601f8301126200060b578081fd5b8151620006226200061c8262000985565b6200095e565b8181529150602080830190848101818402860182018710156200064457600080fd5b60005b84811015620006655781518452928201929082019060010162000647565b505050505092915050565b600082601f83011262000681578081fd5b8151620006926200061c8262000985565b818152915060208083019084810181840286018201871015620006b457600080fd5b60005b8481101562000665578151620006cd81620009d8565b84529282019290820190600101620006b7565b600082601f830112620006f1578081fd5b81516001600160401b0381111562000707578182fd5b6200071c601f8201601f19166020016200095e565b91508082528360208285010111156200073457600080fd5b62000747816020840160208601620009a5565b5092915050565b60008060008060008060008060006101208a8c0312156200076d578485fd5b620007798b8b620005ed565b60208b01519099506001600160401b038082111562000796578687fd5b620007a48d838e01620005fa565b995060408c0151915080821115620007ba578687fd5b620007c88d838e0162000670565b985060608c0151975060808c0151915080821115620007e5578687fd5b620007f38d838e01620006e0565b965060a08c015195506200080b8d60c08e01620005ed565b945060e08c015191508082111562000821578384fd5b6200082f8d838e01620005fa565b93506101008c015191508082111562000846578283fd5b50620008558c828d01620005fa565b9150509295985092959850929598565b600060208252825180602084015262000886816040850160208701620009a5565b601f01601f19169190910160400192915050565b60208082526026908201527f4f776e61626c653a206e6577206f776e657220697320746865207a65726f206160408201526564647265737360d01b606082015260800190565b60208082526029908201527f506c6561736520636865636b2074686520706172616d73206f6620796f757220604082015268706572696f6473202160b81b606082015260800190565b6020808252818101527f4f776e61626c653a2063616c6c6572206973206e6f7420746865206f776e6572604082015260600190565b6040518181016001600160401b03811182821017156200097d57600080fd5b604052919050565b60006001600160401b038211156200099b578081fd5b5060209081020190565b60005b83811015620009c2578181015183820152602001620009a8565b83811115620009d2576000848401525b50505050565b6001600160a01b0381168114620009ee57600080fd5b50565b61257f8062000a016000396000f3fe608060405234801561001057600080fd5b50600436106101495760003560e01c806302e8b8931461014e5780630e1fcf3414610177578063171e44ea1461018c5780633a4b66f11461019f5780633a5381b5146101b457806353e85fd5146101c95780635e5f2e26146101dc5780635f4efaba146101ef578063715018a6146101f757806375fdf2a9146101ff5780637b10399914610212578063817b1cd21461021a5780638da5cb5b1461022257806394199c611461022a578063ae169a501461024c578063b0227b471461025f578063b83e023414610272578063c623674f14610285578063cec534d61461029a578063e23ef92c146102ad578063e7ab816a146102c0578063ea4a1104146102c8578063f10bd772146102ec578063f2fde38b146102ff578063f3fef3a314610312578063fbbf93a014610325578063fd5e6dd11461033e575b600080fd5b61016161015c366004611e8a565b610351565b60405161016e91906120db565b60405180910390f35b61018a610185366004611ea2565b61047a565b005b61018a61019a366004611def565b6104c6565b6101a761054d565b60405161016e919061246c565b6101bc610553565b60405161016e9190611fe5565b61018a6101d7366004611e8a565b610562565b6101bc6101ea366004611e8a565b6107dc565b6101bc610803565b61018a610812565b61018a61020d366004611e36565b61087f565b6101bc610baa565b6101a7610bb9565b6101bc610bbf565b61023d610238366004611ea2565b610bce565b60405161016e939291906124b2565b61018a61025a366004611e8a565b610c98565b6101bc61026d366004611e8a565b610e72565b6101a7610280366004611def565b610e8d565b61028d610e9f565b60405161016e9190612157565b61018a6102a8366004611f61565b610f2d565b61018a6102bb366004611ec3565b6110f8565b6101a761139b565b6102db6102d6366004611e8a565b6113a1565b60405161016e9594939291906124da565b6101a76102fa366004611e0b565b6113e4565b61018a61030d366004611def565b611492565b61018a610320366004611e0b565b611536565b61032d611786565b60405161016e959493929190612036565b6101bc61034c366004611e8a565b611955565b6060600d6000838152602001908152602001600020805480602002602001604051908101604052809291908181526020016000905b8282101561046e57838290600052602060002090600302016040518060600160405290816000820154815260200160018201548152602001600282018054600181600116156101000203166002900480601f0160208091040260200160405190810160405280929190818152602001828054600181600116156101000203166002900480156104565780601f1061042b57610100808354040283529160200191610456565b820191906000526020600020905b81548152906001019060200180831161043957829003601f168201915b50505050508152505081526020019060010190610386565b5050505090505b919050565b6104826119a4565b6000546001600160a01b039081169116146104b85760405162461bcd60e51b81526004016104af90612336565b60405180910390fd5b6104c282826119a8565b5050565b6104ce6119a4565b6000546001600160a01b039081169116146104fb5760405162461bcd60e51b81526004016104af90612336565b600480546001810182556000919091527f8a35acfbc15ff81a39ae7d344fd709f28e8600b4aa8c65c6b64bfe7fe36bd19b0180546001600160a01b0319166001600160a01b0392909216919091179055565b60085481565b6002546001600160a01b031681565b806005818154811061057057fe5b90600052602060002090600602016000015442101580156105af57506005818154811061059957fe5b9060005260206000209060060201600101544211155b6105b857600080fd5b6002546001600160a01b03163314156105e35760405162461bcd60e51b81526004016104af9061223b565b6002600583815481106105f257fe5b906000526020600020906006020160030160019054906101000a900460ff16600281111561061c57fe5b146106395760405162461bcd60e51b81526004016104af90612197565b6005828154811061064657fe5b6000918252602080832033845260056006909302019190910190526040902054156106835760405162461bcd60e51b81526004016104af90612410565b600061068f33846113e4565b905060006106a9600a6106a3846003611ae3565b90611b1d565b6007549091506106b99083611962565b60078190555081600585815481106106cd57fe5b600091825260208083203380855260069390930201600501905260409182902092909255600154905163a9059cbb60e01b81526001600160a01b039091169163a9059cbb916107219190869060040161201d565b602060405180830381600087803b15801561073b57600080fd5b505af115801561074f573d6000803e3d6000fd5b505050506040513d601f19601f820116820180604052508101906107739190611e6a565b50600154604051630852cd8d60e31b81526001600160a01b03909116906342966c68906107a490849060040161246c565b600060405180830381600087803b1580156107be57600080fd5b505af11580156107d2573d6000803e3d6000fd5b5050505050505050565b600481815481106107e957fe5b6000918252602090912001546001600160a01b0316905081565b6001546001600160a01b031681565b61081a6119a4565b6000546001600160a01b039081169116146108475760405162461bcd60e51b81526004016104af90612336565b600080546040516001600160a01b039091169060008051602061252a833981519152908390a3600080546001600160a01b0319169055565b6002546001600160a01b03163314156108aa5760405162461bcd60e51b81526004016104af9061223b565b6000600582815481106108b957fe5b600091825260208083206001600160a01b038816845260046006909302019190910181526040808320338452909152902054116109085760405162461bcd60e51b81526004016104af9061226a565b61091183611b5c565b61092d5760405162461bcd60e51b81526004016104af90612397565b6040516323b872dd60e01b81526001600160a01b038416906323b872dd9061095d90339030908790600401611ff9565b602060405180830381600087803b15801561097757600080fd5b505af115801561098b573d6000803e3d6000fd5b505050506040513d601f19601f820116820180604052508101906109af9190611e6a565b506109f982600583815481106109c157fe5b600091825260208083206001600160a01b03891684526004600690930201919091018152604080832033845290915290205490611bb7565b60058281548110610a0657fe5b600091825260208083206001600160a01b038816845260046006909302019190910181526040808320338452909152902055600754610a459083611bb7565b600781905550600060058281548110610a5a57fe5b600091825260208083206001600160a01b03881684526004600690930201919091018152604080832033845290915281205460035460058054929450610ac49286908110610aa457fe5b906000526020600020906006020160020154611b1d90919063ffffffff16565b9050600060058481548110610ad557fe5b600091825260208083206001600160a01b038a16845260046006909302019190910181526040808320338452909152902055600754610b149083611962565b6007556001546001600160a01b031663a9059cbb33610b338585611962565b6040518363ffffffff1660e01b8152600401610b5092919061201d565b602060405180830381600087803b158015610b6a57600080fd5b505af1158015610b7e573d6000803e3d6000fd5b505050506040513d601f19601f82011682018060405250810190610ba29190611e6a565b505050505050565b600b546001600160a01b031681565b60075481565b6000546001600160a01b031690565b600d6020528160005260406000208181548110610be757fe5b6000918252602091829020600391909102018054600180830154600280850180546040805195821615610100026000190190911692909204601f81018890048802850188019092528184529397509095509293909290830182828015610c8e5780601f10610c6357610100808354040283529160200191610c8e565b820191906000526020600020905b815481529060010190602001808311610c7157829003601f168201915b5050505050905083565b8060058181548110610ca657fe5b9060005260206000209060060201600001544210158015610ce5575060058181548110610ccf57fe5b9060005260206000209060060201600101544211155b610cee57600080fd5b6002546001600160a01b03163314610d185760405162461bcd60e51b81526004016104af906123dd565b600160058381548110610d2757fe5b906000526020600020906006020160030160019054906101000a900460ff166002811115610d5157fe5b14610d6e5760405162461bcd60e51b81526004016104af9061216a565b60058281548110610d7b57fe5b600091825260209091206003600690920201015460ff1615610daf5760405162461bcd60e51b81526004016104af9061229f565b600554600754600091610dc29190611b1d565b90506000610dd6600a6106a3846003611ae3565b600754909150610de69083611962565b6007819055508160058581548110610dfa57fe5b906000526020600020906006020160020181905550600160058581548110610e1e57fe5b60009182526020909120600690910201600301805460ff191691151591909117905560015460405163a9059cbb60e01b81526001600160a01b039091169063a9059cbb90610721903390869060040161201d565b600c602052600090815260409020546001600160a01b031681565b60066020526000908152604090205481565b600a805460408051602060026001851615610100026000190190941693909304601f81018490048402820184019092528181529291830182828015610f255780601f10610efa57610100808354040283529160200191610f25565b820191906000526020600020905b815481529060010190602001808311610f0857829003601f168201915b505050505081565b60008311610f4d5760405162461bcd60e51b81526004016104af9061236b565b610f5682611b5c565b610f725760405162461bcd60e51b81526004016104af90612397565b610f7d338383611bdc565b6040516323b872dd60e01b81526001600160a01b038316906323b872dd90610fad90339030908890600401611ff9565b602060405180830381600087803b158015610fc757600080fd5b505af1158015610fdb573d6000803e3d6000fd5b505050506040513d601f19601f82011682018060405250810190610fff9190611e6a565b50611049836005838154811061101157fe5b600091825260208083206001600160a01b03881684526004600690930201919091018152604080832033845290915290205490611bb7565b6005828154811061105657fe5b600091825260208083206001600160a01b0387168452600460069093020191909101815260408083203384529091529020556007546110959084611bb7565b60075533600090815260066020526040902054600114156110f357600380546001810182556000919091527fc2575a0e9e593c00f959f8c92f12db2869c3395a3b0502d05e2516446f71f85b0180546001600160a01b031916331790555b505050565b600b60009054906101000a90046001600160a01b03166001600160a01b0316633cb747bf6040518163ffffffff1660e01b815260040160206040518083038186803b15801561114657600080fd5b505afa15801561115a573d6000803e3d6000fd5b505050506040513d601f19601f8201168201806040525081019061117e9190611f45565b6001600160a01b0316336001600160a01b03161461119b57600080fd5b600d6000868152602001908152602001600020604051806060016040528042815260200186815260200185858080601f01602080910402602001604051908101604052809392919081815260200183838082843760009201829052509390945250508354600181810186559482526020918290208451600390920201908155818401519481019490945560408301518051939493611243935060028501929190910190611d21565b5050507f048094af00d5b1e004ae2a3f03c2bd4897a83b5672ed2b02b7b3416b9709805c4285858560405161127b9493929190612475565b60405180910390a16000858152600c60205260409081902054905163868d08f760e01b81526001600160a01b039091169063868d08f7906112c090879060040161246c565b60206040518083038186803b1580156112d857600080fd5b505afa1580156112ec573d6000803e3d6000fd5b505050506040513d601f19601f820116820180604052508101906113109190611e6a565b6113565760026005828154811061132357fe5b60009182526020909120600360069092020101805461ff00191661010083600281111561134c57fe5b0217905550611394565b60016005828154811061136557fe5b60009182526020909120600360069092020101805461ff00191661010083600281111561138e57fe5b02179055505b5050505050565b60095490565b600581815481106113ae57fe5b60009182526020909120600690910201805460018201546002830154600390930154919350919060ff8082169161010090041685565b6001600160a01b0382166000908152600660205260408120548190156114895760005b6004548110156114875761147d6005858154811061142157fe5b906000526020600020906006020160040160006004848154811061144157fe5b60009182526020808320909101546001600160a01b0390811684528382019490945260409283018220938a168252929092529020548390611bb7565b9150600101611407565b505b90505b92915050565b61149a6119a4565b6000546001600160a01b039081169116146114c75760405162461bcd60e51b81526004016104af90612336565b6001600160a01b0381166114ed5760405162461bcd60e51b81526004016104af906121c0565b600080546040516001600160a01b038085169392169160008051602061252a83398151915291a3600080546001600160a01b0319166001600160a01b0392909216919091179055565b6002546001600160a01b03163314156115615760405162461bcd60e51b81526004016104af9061223b565b60006005828154811061157057fe5b600091825260208083206001600160a01b038716845260046006909302019190910181526040808320338452909152902054116115bf5760405162461bcd60e51b81526004016104af9061226a565b6115c882611b5c565b6115e45760405162461bcd60e51b81526004016104af90612397565b6000600582815481106115f357fe5b600091825260208083206001600160a01b0387168452600460069093020191909101815260408083203384529091528120546003546005805492945061163d9286908110610aa457fe5b905060006005848154811061164e57fe5b600091825260208083206001600160a01b03891684526004600690930201919091018152604080832033845290915290205560075461168d9083611962565b6007556001600160a01b03841663a9059cbb336116aa8585611962565b6040518363ffffffff1660e01b81526004016116c792919061201d565b602060405180830381600087803b1580156116e157600080fd5b505af11580156116f5573d6000803e3d6000fd5b505050506040513d601f19601f820116820180604052508101906117199190611e6a565b5033600090815260066020526040902054611735906001611962565b33600090815260066020526040902081905561178057600061175633611c65565b90506003818154811061176557fe5b600091825260209091200180546001600160a01b0319169055505b50505050565b6000606060006060806060600e805490506001600160401b03811180156117ac57600080fd5b506040519080825280602002602001820160405280156117d6578160200160208202803683370190505b50905060005b600e5481101561185057600c6000600e83815481106117f757fe5b9060005260206000200154815260200190815260200160002060009054906101000a90046001600160a01b031682828151811061183057fe5b6001600160a01b03909216602092830291909101909101526001016117dc565b50611859610bbf565b600854600a805460408051602060026001851615610100026000190190941693909304601f8101849004840282018401909252818152929392600e92879286918301828280156118ea5780601f106118bf576101008083540402835291602001916118ea565b820191906000526020600020905b8154815290600101906020018083116118cd57829003601f168201915b505050505093508180548060200260200160405190810160405280929190818152602001828054801561193c57602002820191906000526020600020905b815481526020019060010190808311611928575b5050505050915095509550955095509550509091929394565b600381815481106107e957fe5b600061148983836040518060400160405280601e81526020017f536166654d6174683a207375627472616374696f6e206f766572666c6f770000815250611cbe565b3390565b6119b0611d9f565b82815260208101828152600060808301818152600580546001810182559252835160069092027f036b6384b5eca791c62761152d0c79bb0604c104a5fb6f4eb0703f3154bb3db0810192835592517f036b6384b5eca791c62761152d0c79bb0604c104a5fb6f4eb0703f3154bb3db184015560408401517f036b6384b5eca791c62761152d0c79bb0604c104a5fb6f4eb0703f3154bb3db284015560608401517f036b6384b5eca791c62761152d0c79bb0604c104a5fb6f4eb0703f3154bb3db3909301805493151560ff199094169390931780845590518493909161ff001916610100836002811115611aa057fe5b021790555050600554611ab591506001611962565b6040517ff791e873e3b67fe74b29aeede7bcbbdaa59c4b64e542571183cd837aa56f6ac990600090a2505050565b600082611af25750600061148c565b82820282848281611aff57fe5b04146114895760405162461bcd60e51b81526004016104af906122f5565b600061148983836040518060400160405280601a815260200179536166654d6174683a206469766973696f6e206279207a65726f60301b815250611cea565b6000805b600454811015611bae57826001600160a01b031660048281548110611b8157fe5b6000918252602090912001546001600160a01b03161415611ba6576001915050610475565b600101611b60565b50600092915050565b6000828201838110156114895760405162461bcd60e51b81526004016104af90612206565b600060058281548110611beb57fe5b600091825260208083206001600160a01b03878116855260069390930201600401815260408084209288168452919052902054116110f3576001600160a01b038316600090815260066020526040902054611c47906001611bb7565b6001600160a01b038416600090815260066020526040902055505050565b6000805b600354811015611cb457826001600160a01b031660038281548110611c8a57fe5b6000918252602090912001546001600160a01b03161415611cac579050610475565b600101611c69565b5060001992915050565b60008184841115611ce25760405162461bcd60e51b81526004016104af9190612157565b505050900390565b60008183611d0b5760405162461bcd60e51b81526004016104af9190612157565b506000838581611d1757fe5b0495945050505050565b828054600181600116156101000203166002900490600052602060002090601f016020900481019282601f10611d6257805160ff1916838001178555611d8f565b82800160010185558215611d8f579182015b82811115611d8f578251825591602001919060010190611d74565b50611d9b929150611dda565b5090565b6040518060a0016040528060008152602001600081526020016000815260200160001515815260200160006002811115611dd557fe5b905290565b5b80821115611d9b5760008155600101611ddb565b600060208284031215611e00578081fd5b813561148981612511565b60008060408385031215611e1d578081fd5b8235611e2881612511565b946020939093013593505050565b600080600060608486031215611e4a578081fd5b8335611e5581612511565b95602085013595506040909401359392505050565b600060208284031215611e7b578081fd5b81518015158114611489578182fd5b600060208284031215611e9b578081fd5b5035919050565b60008060408385031215611eb4578182fd5b50508035926020909101359150565b600080600080600060808688031215611eda578081fd5b853594506020860135935060408601356001600160401b0380821115611efe578283fd5b818801915088601f830112611f11578283fd5b813581811115611f1f578384fd5b896020828501011115611f30578384fd5b96999598505060200195606001359392505050565b600060208284031215611f56578081fd5b815161148981612511565b600080600060608486031215611f75578283fd5b833592506020840135611f8781612511565b929592945050506040919091013590565b600081518084526020825b82811015611fbe578481018201518682018301528101611fa3565b82811115611fce57838284880101525b5080601f19601f8401168601019250505092915050565b6001600160a01b0391909116815260200190565b6001600160a01b039384168152919092166020820152604081019190915260600190565b6001600160a01b03929092168252602082015260400190565b600060018060a01b038088168352602060a08185015261205960a0850189611f98565b604085018890528481036060860152865180825282880191830190855b8181101561209257835183529284019291840191600101612076565b505085810360808701528651808252908301915082870190855b818110156120ca5782518616845292840192918401916001016120ac565b50919b9a5050505050505050505050565b60208082528251828201819052600091906040908185019080840286018301878501865b8381101561214957888303603f190185528151805184528781015188850152860151606087850181905261213581860183611f98565b9689019694505050908601906001016120ff565b509098975050505050505050565b6000602082526114896020830184611f98565b602080825260139082015272534c41206e6f7420726573706563746564202160681b604082015260600190565b6020808252600f908201526e534c4120726573706563746564202160881b604082015260600190565b60208082526026908201527f4f776e61626c653a206e6577206f776e657220697320746865207a65726f206160408201526564647265737360d01b606082015260800190565b6020808252601b908201527a536166654d6174683a206164646974696f6e206f766572666c6f7760281b604082015260600190565b602080825260159082015274596f752061726520612076616c696461746f72202160581b604082015260600190565b6020808252601b908201527a07374616b696e672062616c616e63652063616e6e6f74206265203602c1b604082015260600190565b60208082526036908201527f596f75206861766520616c726561647920636c61696d656420796f75722072656040820152757761726420666f72207468697320706572696f64202160501b606082015260800190565b60208082526021908201527f536166654d6174683a206d756c7469706c69636174696f6e206f766572666c6f6040820152607760f81b606082015260800190565b6020808252818101527f4f776e61626c653a2063616c6c6572206973206e6f7420746865206f776e6572604082015260600190565b6020808252601290820152710616d6f756e742063616e6e6f7420626520360741b604082015260600190565b60208082526026908201527f746f6b656e2073686f756c64206265206175746f726973656420746f206265206040820152651cdd185ad95960d21b606082015260800190565b602080825260199082015278596f7520617265206e6f7420612076616c696461746f72202160381b604082015260600190565b6020808252603c908201527f596f75206861766520616c726561647920636c61696d656420796f757220636f60408201527b6d70656e736174696f6e20666f72207468697320706572696f64202160201b606082015260800190565b90815260200190565b60008582528460208301526060604083015282606083015282846080840137818301608090810191909152601f909201601f191601019392505050565b6000848252836020830152606060408301526124d16060830184611f98565b95945050505050565b8581526020810185905260408101849052821515606082015260a081016003831061250157fe5b8260808301529695505050505050565b6001600160a01b038116811461252657600080fd5b5056fe8be0079c531659141344cd1fd0a4f28419497f9722a3daafe3b4186f6b6457e0a2646970667358221220e52b3ce04def46865444a64b45dc2d2c1a7dbf169b88a70850828c1779bd6d7e64736f6c634300060c00338be0079c531659141344cd1fd0a4f28419497f9722a3daafe3b4186f6b6457e0",
  "immutableReferences": {},
  "source": "// SPDX-License-Identifier: MIT\npragma solidity ^0.6.0;\npragma experimental ABIEncoderV2;\n\nimport \"@openzeppelin/contracts/access/Ownable.sol\";\nimport \"@openzeppelin/contracts/token/ERC20/IERC20.sol\";\nimport \"@openzeppelin/contracts/math/SafeMath.sol\";\nimport \"../interfaces/IMessenger.sol\";\nimport \"../SLO/SLO.sol\";\nimport \"../SLARegistry.sol\";\nimport \"./Staking.sol\";\n\n/**\n * @title SLA\n * @dev SLA is a service level agreement contract used for service downtime\n * compensation\n */\ncontract SLA is Ownable, Staking {\n    using SafeMath for uint256;\n\n    // The required amount to stake when subscribing to the agreement\n    uint256 public stake;\n\n    // The time between SLI registration\n    uint256 private sliInterval;\n\n    // The ipfs hash that stores extra information about the agreement\n    string public ipfsHash;\n\n    // The address of the registry contract\n    SLARegistry public registry;\n\n    // Struct used for storing registered SLI's\n    struct SLI {\n        uint256 timestamp;\n        uint256 value;\n        string ipfsHash;\n    }\n\n    // Mapping to get SLO addresses from SLO names in bytes32\n    mapping(bytes32 => SLO) public SLOs;\n\n    // Mapping to get SLI structs from SLO names in bytes32\n    mapping(bytes32 => SLI[]) public SLIs;\n\n    // Array storing the names of the SLO's of this agreement\n    bytes32[] SLONames;\n\n    /**\n     * @dev event for SLI creation logging\n     * @param _timestamp the time the SLI has been registered\n     * @param _value the value of the SLI\n     * @param _hash the ipfs hash that stores additional info\n     */\n    event SLICreated(uint256 _timestamp, uint256 _value, string _hash);\n\n    /**\n     * @dev Throws if called by any address other than the Oraclize or\n     * messenger contract.\n     */\n    modifier onlyMessenger() {\n        require(msg.sender == address(registry.messenger()));\n        _;\n    }\n\n    /**\n     * @dev constructor\n     * @param _owner the owner of the service level agreement\n     * @param _SLONames the names of the service level objectives in a bytes32\n     * array\n     * @param _SLOs an array with the service level objective addresses\n     * @param _stake the amount required to stake when subscribing to the\n     * agreement\n     * @param _ipfsHash the ipfs hash that stores extra information about the\n     * agreement\n     */\n    constructor(\n        address _owner,\n        bytes32[] memory _SLONames,\n        SLO[] memory _SLOs,\n        uint256 _stake,\n        string memory _ipfsHash,\n        uint256 _sliInterval,\n        bDSLAToken _tokenAddress,\n        uint[] memory _sla_period_starts, \n        uint[] memory _sla_period_ends\n    ) public Staking(_tokenAddress, _sla_period_starts, _sla_period_ends) {\n        require(_SLOs.length < 5);\n        require(_SLONames.length == _SLOs.length);\n\n        for (uint256 i = 0; i < _SLOs.length; i++) {\n            SLOs[_SLONames[i]] = _SLOs[i];\n        }\n\n        transferOwnership(_owner);\n        SLONames = _SLONames;\n        stake = _stake;\n        ipfsHash = _ipfsHash;\n        registry = SLARegistry(msg.sender);\n        sliInterval = _sliInterval;\n    }\n\n    /**\n     * @dev external function to register SLI's and check them against the SLO's\n     * @param _SLOName the name of the SLO in bytes32\n     * @param _value the value of the SLI to check\n     * @param _hash the ipfs hash with additional information\n     */\n    function registerSLI(\n        bytes32 _SLOName,\n        uint256 _value,\n        string calldata _hash,\n        uint256 _period\n    ) external onlyMessenger {\n        SLIs[_SLOName].push(SLI(now, _value, _hash));\n\n        emit SLICreated(now, _value, _hash);\n\n        if (!SLOs[_SLOName].isSLOHonored(_value)) {\n            periods[_period].status = Status.NotRespected;\n        } else {\n            periods[_period].status = Status.Respected;\n        }\n    }\n\n    /**\n     * @dev external function to get SLI\n     * @param _SLOName the name of the SLO in bytes32\n     */\n    function getSLI(bytes32 _SLOName) public view returns (SLI[] memory) {\n        return SLIs[_SLOName];\n    }\n\n    /**\n     * @dev external view function that returns the sliInterval value\n     */\n    function getSliInterval() external view returns (uint256) {\n        return sliInterval;\n    }\n\n    /**\n     * @dev external view function that returns all agreement information\n     */\n\n    function getDetails()\n        external\n        view\n        returns (\n            address,\n            string memory,\n            uint256,\n            bytes32[] memory,\n            SLO[] memory\n        )\n    {\n        SLO[] memory _SLOAddresses = new SLO[](SLONames.length);\n\n        for (uint256 i = 0; i < SLONames.length; i++) {\n            _SLOAddresses[i] = SLOs[SLONames[i]];\n        }\n\n        return (owner(), ipfsHash, stake, SLONames, _SLOAddresses);\n    }\n}\n",
  "sourcePath": "/Users/wilhempujar/Development/stacktical-dsla-contracts/contracts/SLA/SLA.sol",
  "compiler": {
    "name": "solc",
    "version": "0.6.12+commit.27d51765.Emscripten.clang"
  },
  "schemaVersion": "3.2.5",
  "updatedAt": "2020-10-16T11:59:01.055Z",
  "devdoc": {
    "details": "SLA is a service level agreement contract used for service downtime compensation",
    "events": {
      "SLICreated(uint256,uint256,string)": {
        "details": "event for SLI creation logging",
        "params": {
          "_hash": "the ipfs hash that stores additional info",
          "_timestamp": "the time the SLI has been registered",
          "_value": "the value of the SLI"
        }
      }
    },
    "kind": "dev",
    "methods": {
      "constructor": {
        "details": "constructor",
        "params": {
          "_SLONames": "the names of the service level objectives in a bytes32 array",
          "_SLOs": "an array with the service level objective addresses",
          "_ipfsHash": "the ipfs hash that stores extra information about the agreement",
          "_owner": "the owner of the service level agreement",
          "_stake": "the amount required to stake when subscribing to the agreement"
        }
      },
      "getDetails()": {
        "details": "external view function that returns all agreement information"
      },
      "getSLI(bytes32)": {
        "details": "external function to get SLI",
        "params": {
          "_SLOName": "the name of the SLO in bytes32"
        }
      },
      "getSliInterval()": {
        "details": "external view function that returns the sliInterval value"
      },
      "owner()": {
        "details": "Returns the address of the current owner."
      },
      "registerSLI(bytes32,uint256,string,uint256)": {
        "details": "external function to register SLI's and check them against the SLO's",
        "params": {
          "_SLOName": "the name of the SLO in bytes32",
          "_hash": "the ipfs hash with additional information",
          "_value": "the value of the SLI to check"
        }
      },
      "renounceOwnership()": {
        "details": "Leaves the contract without owner. It will not be possible to call `onlyOwner` functions anymore. Can only be called by the current owner. NOTE: Renouncing ownership will leave the contract without an owner, thereby removing any functionality that is only available to the owner."
      },
      "transferOwnership(address)": {
        "details": "Transfers ownership of the contract to a new account (`newOwner`). Can only be called by the current owner."
      }
    },
    "title": "SLA",
    "version": 1
  },
  "userdoc": {
    "kind": "user",
    "methods": {},
    "version": 1
  }
}