{
  "contractName": "SLA",
  "abi": [
    {
      "inputs": [
        {
          "internalType": "address",
          "name": "_owner",
          "type": "address"
        },
        {
          "internalType": "bytes32[]",
          "name": "_SLONames",
          "type": "bytes32[]"
        },
        {
          "internalType": "contract SLO[]",
          "name": "_SLOs",
          "type": "address[]"
        },
        {
          "internalType": "uint256",
          "name": "_stake",
          "type": "uint256"
        },
        {
          "internalType": "string",
          "name": "_ipfsHash",
          "type": "string"
        },
        {
          "internalType": "uint256",
          "name": "_sliInterval",
          "type": "uint256"
        },
        {
          "internalType": "contract bDSLAToken",
          "name": "_tokenAddress",
          "type": "address"
        },
        {
          "internalType": "uint256[]",
          "name": "_sla_period_starts",
          "type": "uint256[]"
        },
        {
          "internalType": "uint256[]",
          "name": "_sla_period_ends",
          "type": "uint256[]"
        },
        {
          "internalType": "address",
          "name": "_daiAddress",
          "type": "address"
        }
      ],
      "stateMutability": "nonpayable",
      "type": "constructor"
    },
    {
      "anonymous": false,
      "inputs": [
        {
          "indexed": true,
          "internalType": "uint256",
          "name": "period_index",
          "type": "uint256"
        }
      ],
      "name": "NewPeriodAdded",
      "type": "event"
    },
    {
      "anonymous": false,
      "inputs": [
        {
          "indexed": true,
          "internalType": "address",
          "name": "previousOwner",
          "type": "address"
        },
        {
          "indexed": true,
          "internalType": "address",
          "name": "newOwner",
          "type": "address"
        }
      ],
      "name": "OwnershipTransferred",
      "type": "event"
    },
    {
      "anonymous": false,
      "inputs": [
        {
          "indexed": false,
          "internalType": "uint256",
          "name": "_timestamp",
          "type": "uint256"
        },
        {
          "indexed": false,
          "internalType": "uint256",
          "name": "_value",
          "type": "uint256"
        },
        {
          "indexed": false,
          "internalType": "uint256",
          "name": "_periodId",
          "type": "uint256"
        }
      ],
      "name": "SLICreated",
      "type": "event"
    },
    {
      "inputs": [],
      "name": "DAI",
      "outputs": [
        {
          "internalType": "contract IERC20",
          "name": "",
          "type": "address"
        }
      ],
      "stateMutability": "view",
      "type": "function"
    },
    {
      "inputs": [
        {
          "internalType": "bytes32",
          "name": "",
          "type": "bytes32"
        },
        {
          "internalType": "uint256",
          "name": "",
          "type": "uint256"
        }
      ],
      "name": "SLIs",
      "outputs": [
        {
          "internalType": "uint256",
          "name": "timestamp",
          "type": "uint256"
        },
        {
          "internalType": "uint256",
          "name": "value",
          "type": "uint256"
        },
        {
          "internalType": "uint256",
          "name": "periodId",
          "type": "uint256"
        }
      ],
      "stateMutability": "view",
      "type": "function"
    },
    {
      "inputs": [
        {
          "internalType": "uint256",
          "name": "",
          "type": "uint256"
        }
      ],
      "name": "SLONames",
      "outputs": [
        {
          "internalType": "bytes32",
          "name": "",
          "type": "bytes32"
        }
      ],
      "stateMutability": "view",
      "type": "function"
    },
    {
      "inputs": [
        {
          "internalType": "bytes32",
          "name": "",
          "type": "bytes32"
        }
      ],
      "name": "SLOs",
      "outputs": [
        {
          "internalType": "contract SLO",
          "name": "",
          "type": "address"
        }
      ],
      "stateMutability": "view",
      "type": "function"
    },
    {
      "inputs": [
        {
          "internalType": "address",
          "name": "_token",
          "type": "address"
        }
      ],
      "name": "addAllowedTokens",
      "outputs": [],
      "stateMutability": "nonpayable",
      "type": "function"
    },
    {
      "inputs": [
        {
          "internalType": "uint256",
          "name": "_sla_period_start",
          "type": "uint256"
        },
        {
          "internalType": "uint256",
          "name": "_sla_period_end",
          "type": "uint256"
        }
      ],
      "name": "addNewPeriod",
      "outputs": [],
      "stateMutability": "nonpayable",
      "type": "function"
    },
    {
      "inputs": [
        {
          "internalType": "uint256",
          "name": "",
          "type": "uint256"
        }
      ],
      "name": "allowedTokens",
      "outputs": [
        {
          "internalType": "address",
          "name": "",
          "type": "address"
        }
      ],
      "stateMutability": "view",
      "type": "function"
    },
    {
      "inputs": [
        {
          "internalType": "address",
          "name": "",
          "type": "address"
        }
      ],
      "name": "allowedTokensMapping",
      "outputs": [
        {
          "internalType": "bool",
          "name": "",
          "type": "bool"
        }
      ],
      "stateMutability": "view",
      "type": "function"
    },
    {
      "inputs": [],
      "name": "bDSLA",
      "outputs": [
        {
          "internalType": "contract bDSLAToken",
          "name": "",
          "type": "address"
        }
      ],
      "stateMutability": "view",
      "type": "function"
    },
    {
      "inputs": [
        {
          "internalType": "uint256",
          "name": "_period",
          "type": "uint256"
        }
      ],
      "name": "claimCompensation",
      "outputs": [],
      "stateMutability": "nonpayable",
      "type": "function"
    },
    {
      "inputs": [
        {
          "internalType": "uint256",
          "name": "_period",
          "type": "uint256"
        }
      ],
      "name": "claimReward",
      "outputs": [],
      "stateMutability": "nonpayable",
      "type": "function"
    },
    {
      "inputs": [
        {
          "internalType": "uint256",
          "name": "_periodId",
          "type": "uint256"
        }
      ],
      "name": "getPeriodData",
      "outputs": [
        {
          "internalType": "uint256",
          "name": "periodStart",
          "type": "uint256"
        },
        {
          "internalType": "uint256",
          "name": "periodEnd",
          "type": "uint256"
        }
      ],
      "stateMutability": "view",
      "type": "function"
    },
    {
      "inputs": [
        {
          "internalType": "address",
          "name": "_owner",
          "type": "address"
        },
        {
          "internalType": "uint256",
          "name": "_index",
          "type": "uint256"
        }
      ],
      "name": "getTokenStake",
      "outputs": [
        {
          "internalType": "address",
          "name": "tokenAddress",
          "type": "address"
        },
        {
          "internalType": "uint256",
          "name": "stake",
          "type": "uint256"
        }
      ],
      "stateMutability": "view",
      "type": "function"
    },
    {
      "inputs": [
        {
          "internalType": "address",
          "name": "_owner",
          "type": "address"
        }
      ],
      "name": "getTokenStakeLength",
      "outputs": [
        {
          "internalType": "uint256",
          "name": "",
          "type": "uint256"
        }
      ],
      "stateMutability": "view",
      "type": "function"
    },
    {
      "inputs": [
        {
          "internalType": "address",
          "name": "_user",
          "type": "address"
        },
        {
          "internalType": "uint256",
          "name": "_period",
          "type": "uint256"
        }
      ],
      "name": "getUserTotalValue",
      "outputs": [
        {
          "internalType": "uint256",
          "name": "",
          "type": "uint256"
        }
      ],
      "stateMutability": "view",
      "type": "function"
    },
    {
      "inputs": [],
      "name": "ipfsHash",
      "outputs": [
        {
          "internalType": "string",
          "name": "",
          "type": "string"
        }
      ],
      "stateMutability": "view",
      "type": "function"
    },
    {
      "inputs": [],
      "name": "owner",
      "outputs": [
        {
          "internalType": "address",
          "name": "",
          "type": "address"
        }
      ],
      "stateMutability": "view",
      "type": "function"
    },
    {
      "inputs": [
        {
          "internalType": "uint256",
          "name": "",
          "type": "uint256"
        }
      ],
      "name": "periods",
      "outputs": [
        {
          "internalType": "uint256",
          "name": "sla_period_start",
          "type": "uint256"
        },
        {
          "internalType": "uint256",
          "name": "sla_period_end",
          "type": "uint256"
        },
        {
          "internalType": "uint256",
          "name": "claimed_reward",
          "type": "uint256"
        },
        {
          "internalType": "bool",
          "name": "claimed",
          "type": "bool"
        },
        {
          "internalType": "enum Staking.Status",
          "name": "status",
          "type": "uint8"
        }
      ],
      "stateMutability": "view",
      "type": "function"
    },
    {
      "inputs": [],
      "name": "registry",
      "outputs": [
        {
          "internalType": "contract SLARegistry",
          "name": "",
          "type": "address"
        }
      ],
      "stateMutability": "view",
      "type": "function"
    },
    {
      "inputs": [],
      "name": "renounceOwnership",
      "outputs": [],
      "stateMutability": "nonpayable",
      "type": "function"
    },
    {
      "inputs": [],
      "name": "stake",
      "outputs": [
        {
          "internalType": "uint256",
          "name": "",
          "type": "uint256"
        }
      ],
      "stateMutability": "view",
      "type": "function"
    },
    {
      "inputs": [
        {
          "internalType": "uint256",
          "name": "_amount",
          "type": "uint256"
        },
        {
          "internalType": "address",
          "name": "_token",
          "type": "address"
        },
        {
          "internalType": "uint256",
          "name": "_period",
          "type": "uint256"
        }
      ],
      "name": "stakeTokens",
      "outputs": [],
      "stateMutability": "nonpayable",
      "type": "function"
    },
    {
      "inputs": [
        {
          "internalType": "uint256",
          "name": "",
          "type": "uint256"
        }
      ],
      "name": "stakers",
      "outputs": [
        {
          "internalType": "address",
          "name": "",
          "type": "address"
        }
      ],
      "stateMutability": "view",
      "type": "function"
    },
    {
      "inputs": [],
      "name": "stakersCount",
      "outputs": [
        {
          "internalType": "uint256",
          "name": "",
          "type": "uint256"
        }
      ],
      "stateMutability": "view",
      "type": "function"
    },
    {
      "inputs": [],
      "name": "totalStaked",
      "outputs": [
        {
          "internalType": "uint256",
          "name": "",
          "type": "uint256"
        }
      ],
      "stateMutability": "view",
      "type": "function"
    },
    {
      "inputs": [
        {
          "internalType": "address",
          "name": "newOwner",
          "type": "address"
        }
      ],
      "name": "transferOwnership",
      "outputs": [],
      "stateMutability": "nonpayable",
      "type": "function"
    },
    {
      "inputs": [
        {
          "internalType": "address",
          "name": "",
          "type": "address"
        }
      ],
      "name": "uniqueTokensStaked",
      "outputs": [
        {
          "internalType": "uint256",
          "name": "",
          "type": "uint256"
        }
      ],
      "stateMutability": "view",
      "type": "function"
    },
    {
      "inputs": [
        {
          "internalType": "address",
          "name": "",
          "type": "address"
        },
        {
          "internalType": "address",
          "name": "",
          "type": "address"
        }
      ],
      "name": "userStakedTokens",
      "outputs": [
        {
          "internalType": "bool",
          "name": "",
          "type": "bool"
        }
      ],
      "stateMutability": "view",
      "type": "function"
    },
    {
      "inputs": [
        {
          "internalType": "address",
          "name": "",
          "type": "address"
        },
        {
          "internalType": "address",
          "name": "",
          "type": "address"
        }
      ],
      "name": "userStakedTokensIndex",
      "outputs": [
        {
          "internalType": "uint256",
          "name": "",
          "type": "uint256"
        }
      ],
      "stateMutability": "view",
      "type": "function"
    },
    {
      "inputs": [
        {
          "internalType": "address",
          "name": "",
          "type": "address"
        },
        {
          "internalType": "uint256",
          "name": "",
          "type": "uint256"
        }
      ],
      "name": "userStakes",
      "outputs": [
        {
          "internalType": "address",
          "name": "tokenAddress",
          "type": "address"
        },
        {
          "internalType": "uint256",
          "name": "stake",
          "type": "uint256"
        }
      ],
      "stateMutability": "view",
      "type": "function"
    },
    {
      "inputs": [],
      "name": "validator",
      "outputs": [
        {
          "internalType": "address",
          "name": "",
          "type": "address"
        }
      ],
      "stateMutability": "view",
      "type": "function"
    },
    {
      "inputs": [
        {
          "internalType": "address",
          "name": "_token",
          "type": "address"
        },
        {
          "internalType": "uint256",
          "name": "_period",
          "type": "uint256"
        }
      ],
      "name": "withdraw",
      "outputs": [],
      "stateMutability": "nonpayable",
      "type": "function"
    },
    {
      "inputs": [
        {
          "internalType": "address",
          "name": "_token",
          "type": "address"
        },
        {
          "internalType": "uint256",
          "name": "_amount",
          "type": "uint256"
        },
        {
          "internalType": "uint256",
          "name": "_period",
          "type": "uint256"
        }
      ],
      "name": "withdrawAndStake",
      "outputs": [],
      "stateMutability": "nonpayable",
      "type": "function"
    },
    {
      "inputs": [
        {
          "internalType": "bytes32",
          "name": "_SLOName",
          "type": "bytes32"
        },
        {
          "internalType": "uint256",
          "name": "_value",
          "type": "uint256"
        },
        {
          "internalType": "uint256",
          "name": "_periodId",
          "type": "uint256"
        }
      ],
      "name": "registerSLI",
      "outputs": [],
      "stateMutability": "nonpayable",
      "type": "function"
    },
    {
      "inputs": [
        {
          "internalType": "bytes32",
          "name": "_SLOName",
          "type": "bytes32"
        }
      ],
      "name": "getSLI",
      "outputs": [
        {
          "components": [
            {
              "internalType": "uint256",
              "name": "timestamp",
              "type": "uint256"
            },
            {
              "internalType": "uint256",
              "name": "value",
              "type": "uint256"
            },
            {
              "internalType": "uint256",
              "name": "periodId",
              "type": "uint256"
            }
          ],
          "internalType": "struct SLA.SLI[]",
          "name": "",
          "type": "tuple[]"
        }
      ],
      "stateMutability": "view",
      "type": "function"
    },
    {
      "inputs": [],
      "name": "getSliInterval",
      "outputs": [
        {
          "internalType": "uint256",
          "name": "",
          "type": "uint256"
        }
      ],
      "stateMutability": "view",
      "type": "function"
    },
    {
      "inputs": [],
      "name": "getDetails",
      "outputs": [
        {
          "internalType": "address",
          "name": "",
          "type": "address"
        },
        {
          "internalType": "string",
          "name": "",
          "type": "string"
        },
        {
          "internalType": "uint256",
          "name": "",
          "type": "uint256"
        },
        {
          "internalType": "bytes32[]",
          "name": "",
          "type": "bytes32[]"
        },
        {
          "internalType": "contract SLO[]",
          "name": "",
          "type": "address[]"
        }
      ],
      "stateMutability": "view",
      "type": "function"
    }
  ],
  "bytecode": "0x60806040523480156200001157600080fd5b5060405162003412380380620034128339810160408190526200003491620007d9565b8383838c84600062000045620002e1565b600080546001600160a01b0319166001600160a01b038316908117825560405192935091600080516020620033f2833981519152908290a3508251845114620000ab5760405162461bcd60e51b8152600401620000a29062000980565b60405180910390fd5b600280546001600160a01b038085166001600160a01b03199283161790925560018054888416908316178082556004805480840182557f8a35acfbc15ff81a39ae7d344fd709f28e8600b4aa8c65c6b64bfe7fe36bd19b908101805486169387169390931790925582548516600090815260056020526040808220805460ff199081168717909155600c80548a8a1690891617808255855480890190965594909501805490971693881693909317909555915490941681529182208054909316179091555b8451811015620001bd57620001b48582815181106200018b57fe5b6020026020010151858381518110620001a057fe5b6020026020010151620002e560201b60201c565b60010162000170565b5050505050506005885110620001e75760405162461bcd60e51b8152600401620000a29062000a4d565b87518951146200020b5760405162461bcd60e51b8152600401620000a290620009fe565b60005b88518110156200027f578881815181106200022557fe5b6020026020010151601160008c84815181106200023e57fe5b602090810291909101810151825281019190915260400160002080546001600160a01b0319166001600160a01b03929092169190911790556001016200020e565b506200028b8a62000434565b8851620002a09060139060208c019062000563565b50600d8790558551620002bb90600f906020890190620005b3565b5050601080546001600160a01b03191633179055505050600e555062000b179350505050565b3390565b620002ef62000625565b828152602081018281526000608083018181526006805460018101825592819052845192027ff652222313e28459528d920b65115c16c04f3efc82aaedc97be59f3f377c0d3f810192835592517ff652222313e28459528d920b65115c16c04f3efc82aaedc97be59f3f377c0d4084015560408401517ff652222313e28459528d920b65115c16c04f3efc82aaedc97be59f3f377c0d4184015560608401517ff652222313e28459528d920b65115c16c04f3efc82aaedc97be59f3f377c0d42909301805493151560ff199094169390931780845590518493909161ff001916610100836002811115620003df57fe5b02179055505050620004066001600680549050620004e160201b62001c151790919060201c565b6040517ff791e873e3b67fe74b29aeede7bcbbdaa59c4b64e542571183cd837aa56f6ac990600090a2505050565b6200043e620002e1565b6000546001600160a01b039081169116146200046e5760405162461bcd60e51b8152600401620000a290620009c9565b6001600160a01b038116620004975760405162461bcd60e51b8152600401620000a2906200093a565b600080546040516001600160a01b0380851693921691600080516020620033f283398151915291a3600080546001600160a01b0319166001600160a01b0392909216919091179055565b60006200052b83836040518060400160405280601e81526020017f536166654d6174683a207375627472616374696f6e206f766572666c6f7700008152506200053460201b60201c565b90505b92915050565b600081848411156200055b5760405162461bcd60e51b8152600401620000a2919062000905565b505050900390565b828054828255906000526020600020908101928215620005a1579160200282015b82811115620005a157825182559160200191906001019062000584565b50620005af92915062000661565b5090565b828054600181600116156101000203166002900490600052602060002090601f016020900481019282601f10620005f657805160ff1916838001178555620005a1565b82800160010185558215620005a15791820182811115620005a157825182559160200191906001019062000584565b6040518060a00160405280600081526020016000815260200160008152602001600015158152602001600060028111156200065c57fe5b905290565b5b80821115620005af576000815560010162000662565b80516200052e8162000afe565b600082601f83011262000696578081fd5b8151620006ad620006a78262000aab565b62000a84565b818152915060208083019084810181840286018201871015620006cf57600080fd5b60005b84811015620006f057815184529282019290820190600101620006d2565b505050505092915050565b600082601f8301126200070c578081fd5b81516200071d620006a78262000aab565b8181529150602080830190848101818402860182018710156200073f57600080fd5b60005b84811015620006f0578151620007588162000afe565b8452928201929082019060010162000742565b600082601f8301126200077c578081fd5b81516001600160401b0381111562000792578182fd5b620007a7601f8201601f191660200162000a84565b9150808252836020828501011115620007bf57600080fd5b620007d281602084016020860162000acb565b5092915050565b6000806000806000806000806000806101408b8d031215620007f9578586fd5b620008058c8c62000678565b60208c0151909a506001600160401b038082111562000822578788fd5b620008308e838f0162000685565b9a5060408d015191508082111562000846578788fd5b620008548e838f01620006fb565b995060608d0151985060808d015191508082111562000871578788fd5b6200087f8e838f016200076b565b975060a08d01519650620008978e60c08f0162000678565b955060e08d0151915080821115620008ad578485fd5b620008bb8e838f0162000685565b94506101008d0151915080821115620008d2578384fd5b50620008e18d828e0162000685565b925050620008f48c6101208d0162000678565b90509295989b9194979a5092959850565b60006020825282518060208401526200092681604085016020870162000acb565b601f01601f19169190910160400192915050565b60208082526026908201527f4f776e61626c653a206e6577206f776e657220697320746865207a65726f206160408201526564647265737360d01b606082015260800190565b60208082526029908201527f506c6561736520636865636b2074686520706172616d73206f6620796f757220604082015268706572696f6473202160b81b606082015260800190565b6020808252818101527f4f776e61626c653a2063616c6c6572206973206e6f7420746865206f776e6572604082015260600190565b6020808252602f908201527f5f534c4f4e616d657320616e64205f534c4f732073686f756c6420686176652060408201526e0e8d0ca40e6c2daca40d8cadccee8d608b1b606082015260800190565b60208082526017908201527f6d617820616d6f756e74206f6620534c4f732069732035000000000000000000604082015260600190565b6040518181016001600160401b038111828210171562000aa357600080fd5b604052919050565b60006001600160401b0382111562000ac1578081fd5b5060209081020190565b60005b8381101562000ae857818101518382015260200162000ace565b8381111562000af8576000848401525b50505050565b6001600160a01b038116811462000b1457600080fd5b50565b6128cb8062000b276000396000f3fe608060405234801561001057600080fd5b50600436106101f75760003560e01c806394199c6111610120578063e7ab816a116100b8578063f34ed40d1161007c578063f34ed40d1461045d578063f3fef3a314610470578063fbbf93a014610483578063fc875ece1461049c578063fd5e6dd1146104bd576101f7565b8063e7ab816a146103f8578063ea4a110414610400578063ec04de4814610424578063f10bd77214610437578063f2fde38b1461044a576101f7565b806394199c6114610352578063a2e80c5e14610374578063ae169a501461037c578063b0227b471461038f578063b5d5b5fa146103a2578063b83e0234146103b5578063c623674f146103c8578063cec534d6146103dd578063e0bab4c4146103f0576101f7565b806357ac94f01161019357806357ac94f0146102d05780635e5f2e26146102f15780635f4efaba14610304578063715018a61461030c57806375fdf2a9146103145780637b10399914610327578063817b1cd21461032f578063869c3925146103375780638da5cb5b1461034a576101f7565b806302e8b893146101fc5780630e1fcf3414610225578063105237cf1461023a578063171e44ea1461025a5780631934d0e81461026d5780632eac9787146102805780633a4b66f1146102a05780633a5381b5146102a857806353e85fd5146102bd575b600080fd5b61020f61020a366004612249565b6104d0565b60405161021c9190612441565b60405180910390f35b610238610233366004612261565b610561565b005b61024d610248366004612176565b6105ad565b60405161021c919061249a565b610238610268366004612176565b6105c2565b61024d61027b366004612192565b610697565b61029361028e366004612192565b6106b7565b60405161021c91906124a5565b6102936106d4565b6102b06106da565b60405161021c919061234b565b6102386102cb366004612249565b6106e9565b6102e36102de3660046121ca565b610963565b60405161021c929190612383565b6102b06102ff366004612249565b6109e3565b6102b0610a0a565b610238610a19565b6102386103223660046121f5565b610a98565b6102b0610df8565b610293610e07565b610238610345366004612282565b610e0d565b6102b061106b565b610365610360366004612261565b61107a565b60405161021c93929190612830565b6102936110b9565b61023861038a366004612249565b6110bf565b6102b061039d366004612249565b611299565b6102e36103b03660046121ca565b6112b4565b6102936103c3366004612176565b6112f7565b6103d0611309565b60405161021c91906124ae565b6102386103eb3660046122c9565b611397565b6102b0611587565b610293611596565b61041361040e366004612249565b61159c565b60405161021c959493929190612846565b610293610432366004612176565b6115df565b6102936104453660046121ca565b6115fa565b610238610458366004612176565b6116a8565b61029361046b366004612249565b61175e565b61023861047e3660046121ca565b61177c565b61048b6119ee565b60405161021c95949392919061239c565b6104af6104aa366004612249565b611bbe565b60405161021c929190612822565b6102b06104cb366004612249565b611c08565b606060126000838152602001908152602001600020805480602002602001604051908101604052809291908181526020016000905b828210156105555783829060005260206000209060030201604051806060016040529081600082015481526020016001820154815260200160028201548152505081526020019060010190610505565b5050505090505b919050565b610569611c57565b6000546001600160a01b0390811691161461059f5760405162461bcd60e51b815260040161059690612731565b60405180910390fd5b6105a98282611c5b565b5050565b60056020526000908152604090205460ff1681565b6105ca611c57565b6000546001600160a01b039081169116146105f75760405162461bcd60e51b815260040161059690612731565b6001600160a01b03811660009081526005602052604090205460ff16156106305760405162461bcd60e51b81526004016105969061263f565b6004805460018181019092557f8a35acfbc15ff81a39ae7d344fd709f28e8600b4aa8c65c6b64bfe7fe36bd19b0180546001600160a01b039093166001600160a01b031990931683179055600091825260056020526040909120805460ff19169091179055565b600a60209081526000928352604080842090915290825290205460ff1681565b600960209081526000928352604080842090915290825290205481565b600d5481565b6002546001600160a01b031681565b80600681815481106106f757fe5b906000526020600020906006020160000154421015801561073657506006818154811061072057fe5b9060005260206000209060060201600101544211155b61073f57600080fd5b6002546001600160a01b031633141561076a5760405162461bcd60e51b8152600401610596906125d9565b60026006838154811061077957fe5b906000526020600020906006020160030160019054906101000a900460ff1660028111156107a357fe5b146107c05760405162461bcd60e51b8152600401610596906124ee565b600682815481106107cd57fe5b60009182526020808320338452600560069093020191909101905260409020541561080a5760405162461bcd60e51b8152600401610596906127c5565b600061081633846115fa565b90506000610830600a61082a846003611d95565b90611dcf565b600b549091506108409083611c15565b600b81905550816006858154811061085457fe5b600091825260208083203380855260069390930201600501905260409182902092909255600154905163a9059cbb60e01b81526001600160a01b039091169163a9059cbb916108a891908690600401612383565b602060405180830381600087803b1580156108c257600080fd5b505af11580156108d6573d6000803e3d6000fd5b505050506040513d601f19601f820116820180604052508101906108fa9190612229565b50600154604051630852cd8d60e31b81526001600160a01b03909116906342966c689061092b9084906004016124a5565b600060405180830381600087803b15801561094557600080fd5b505af1158015610959573d6000803e3d6000fd5b5050505050505050565b6001600160a01b038216600090815260086020526040812080548291908490811061098a57fe5b600091825260208083206002909202909101546001600160a01b038781168452600890925260409092208054919092169190859081106109c657fe5b906000526020600020906002020160010154915091509250929050565b600481815481106109f057fe5b6000918252602090912001546001600160a01b0316905081565b6001546001600160a01b031681565b610a21611c57565b6000546001600160a01b03908116911614610a4e5760405162461bcd60e51b815260040161059690612731565b600080546040516001600160a01b03909116907f8be0079c531659141344cd1fd0a4f28419497f9722a3daafe3b4186f6b6457e0908390a3600080546001600160a01b0319169055565b6002546001600160a01b0316331415610ac35760405162461bcd60e51b8152600401610596906125d9565b6001600160a01b038316600090815260056020526040902054839060ff161515600114610b025760405162461bcd60e51b815260040161059690612703565b600060068381548110610b1157fe5b600091825260208083206001600160a01b03891684526004600690930201919091018152604080832033845290915290205411610b605760405162461bcd60e51b815260040161059690612608565b6040516323b872dd60e01b81526001600160a01b038516906323b872dd90610b909033903090889060040161235f565b602060405180830381600087803b158015610baa57600080fd5b505af1158015610bbe573d6000803e3d6000fd5b505050506040513d601f19601f82011682018060405250810190610be29190612229565b50610c2c8360068481548110610bf457fe5b600091825260208083206001600160a01b038a1684526004600690930201919091018152604080832033845290915290205490611e11565b60068381548110610c3957fe5b600091825260208083206001600160a01b038916845260046006909302019190910181526040808320338452909152902055600b54610c789084611e11565b600b55610c858484611e36565b600060068381548110610c9457fe5b600091825260208083206001600160a01b0389168452600692830201600401815260408084203385529091528220546003548254919450610cfb92909187908110610cdb57fe5b906000526020600020906006020160020154611dcf90919063ffffffff16565b9050600060068581548110610d0c57fe5b600091825260208083206001600160a01b038b16845260046006909302019190910181526040808320338452909152902055600b54610d4b9083611c15565b600b556001546001600160a01b031663a9059cbb33610d6a8585611c15565b6040518363ffffffff1660e01b8152600401610d87929190612383565b602060405180830381600087803b158015610da157600080fd5b505af1158015610db5573d6000803e3d6000fd5b505050506040513d601f19601f82011682018060405250810190610dd99190612229565b50600154610df0906001600160a01b031683611f96565b505050505050565b6010546001600160a01b031681565b600b5481565b601060009054906101000a90046001600160a01b03166001600160a01b0316633cb747bf6040518163ffffffff1660e01b815260040160206040518083038186803b158015610e5b57600080fd5b505afa158015610e6f573d6000803e3d6000fd5b505050506040513d601f19601f82011682018060405250810190610e9391906122ad565b6001600160a01b0316336001600160a01b031614610ec35760405162461bcd60e51b815260040161059690612594565b600083815260126020908152604080832081516060810183524280825281850188815282850188815284546001818101875595895296909720925160039096029092019485559051918401919091559251600290920191909155517fc95987c1992805ee34bdc915e017cceae36ba1c156b9911fa7e691e6435eb46e91610f4d9185908590612830565b60405180910390a16000838152601160205260409081902054905163868d08f760e01b81526001600160a01b039091169063868d08f790610f929085906004016124a5565b60206040518083038186803b158015610faa57600080fd5b505afa158015610fbe573d6000803e3d6000fd5b505050506040513d601f19601f82011682018060405250810190610fe29190612229565b61102857600260068281548110610ff557fe5b60009182526020909120600360069092020101805461ff00191661010083600281111561101e57fe5b0217905550611066565b60016006828154811061103757fe5b60009182526020909120600360069092020101805461ff00191661010083600281111561106057fe5b02179055505b505050565b6000546001600160a01b031690565b6012602052816000526040600020818154811061109357fe5b600091825260209091206003909102018054600182015460029092015490935090915083565b60035490565b80600681815481106110cd57fe5b906000526020600020906006020160000154421015801561110c5750600681815481106110f657fe5b9060005260206000209060060201600101544211155b61111557600080fd5b6002546001600160a01b0316331461113f5760405162461bcd60e51b815260040161059690612792565b60016006838154811061114e57fe5b906000526020600020906006020160030160019054906101000a900460ff16600281111561117857fe5b146111955760405162461bcd60e51b8152600401610596906124c1565b600682815481106111a257fe5b600091825260209091206003600690920201015460ff16156111d65760405162461bcd60e51b81526004016105969061266c565b600654600b546000916111e99190611dcf565b905060006111fd600a61082a846003611d95565b600b5490915061120d9083611c15565b600b81905550816006858154811061122157fe5b90600052602060002090600602016002018190555060016006858154811061124557fe5b60009182526020909120600690910201600301805460ff191691151591909117905560015460405163a9059cbb60e01b81526001600160a01b039091169063a9059cbb906108a89033908690600401612383565b6011602052600090815260409020546001600160a01b031681565b600860205281600052604060002081815481106112cd57fe5b6000918252602090912060029091020180546001909101546001600160a01b039091169250905082565b60076020526000908152604090205481565b600f805460408051602060026001851615610100026000190190941693909304601f8101849004840282018401909252818152929183018282801561138f5780601f106113645761010080835404028352916020019161138f565b820191906000526020600020905b81548152906001019060200180831161137257829003601f168201915b505050505081565b6001600160a01b038216600090815260056020526040902054829060ff1615156001146113d65760405162461bcd60e51b815260040161059690612703565b600084116113f65760405162461bcd60e51b815260040161059690612766565b611401338484611ff6565b6040516323b872dd60e01b81526001600160a01b038416906323b872dd906114319033903090899060040161235f565b602060405180830381600087803b15801561144b57600080fd5b505af115801561145f573d6000803e3d6000fd5b505050506040513d601f19601f820116820180604052508101906114839190612229565b506114cd846006848154811061149557fe5b600091825260208083206001600160a01b03891684526004600690930201919091018152604080832033845290915290205490611e11565b600683815481106114da57fe5b600091825260208083206001600160a01b038816845260046006909302019190910181526040808320338452909152902055600b546115199085611e11565b600b55336000908152600760205260409020546001141561157757600380546001810182556000919091527fc2575a0e9e593c00f959f8c92f12db2869c3395a3b0502d05e2516446f71f85b0180546001600160a01b031916331790555b6115818385611e36565b50505050565b600c546001600160a01b031681565b600e5490565b600681815481106115a957fe5b60009182526020909120600690910201805460018201546002830154600390930154919350919060ff8082169161010090041685565b6001600160a01b031660009081526008602052604090205490565b6001600160a01b03821660009081526007602052604081205481901561169f5760005b60045481101561169d576116936006858154811061163757fe5b906000526020600020906006020160040160006004848154811061165757fe5b60009182526020808320909101546001600160a01b0390811684528382019490945260409283018220938a168252929092529020548390611e11565b915060010161161d565b505b90505b92915050565b6116b0611c57565b6000546001600160a01b039081169116146116dd5760405162461bcd60e51b815260040161059690612731565b6001600160a01b0381166117035760405162461bcd60e51b815260040161059690612517565b600080546040516001600160a01b03808516939216917f8be0079c531659141344cd1fd0a4f28419497f9722a3daafe3b4186f6b6457e091a3600080546001600160a01b0319166001600160a01b0392909216919091179055565b6013818154811061176b57fe5b600091825260209091200154905081565b6002546001600160a01b03163314156117a75760405162461bcd60e51b8152600401610596906125d9565b6001600160a01b038216600090815260056020526040902054829060ff1615156001146117e65760405162461bcd60e51b815260040161059690612703565b6000600683815481106117f557fe5b600091825260208083206001600160a01b038816845260046006909302019190910181526040808320338452909152902054116118445760405162461bcd60e51b815260040161059690612608565b60006006838154811061185357fe5b600091825260208083206001600160a01b038816845260069283020160040181526040808420338552909152822054600354825491945061189a92909187908110610cdb57fe5b90506000600685815481106118ab57fe5b600091825260208083206001600160a01b038a16845260046006909302019190910181526040808320338452909152902055600b546118ea9083611c15565b600b556001600160a01b03851663a9059cbb336119078585611c15565b6040518363ffffffff1660e01b8152600401611924929190612383565b602060405180830381600087803b15801561193e57600080fd5b505af1158015611952573d6000803e3d6000fd5b505050506040513d601f19601f820116820180604052508101906119769190612229565b5033600090815260076020526040902054611992906001611c15565b3360009081526007602052604090208190556119dd5760006119b33361207f565b9050600381815481106119c257fe5b600091825260209091200180546001600160a01b0319169055505b6119e78583611f96565b5050505050565b600060606000606080606060138054905067ffffffffffffffff81118015611a1557600080fd5b50604051908082528060200260200182016040528015611a3f578160200160208202803683370190505b50905060005b601354811015611ab9576011600060138381548110611a6057fe5b9060005260206000200154815260200190815260200160002060009054906101000a90046001600160a01b0316828281518110611a9957fe5b6001600160a01b0390921660209283029190910190910152600101611a45565b50611ac261106b565b600d54600f805460408051602060026001851615610100026000190190941693909304601f810184900484028201840190925281815292939260139287928691830182828015611b535780601f10611b2857610100808354040283529160200191611b53565b820191906000526020600020905b815481529060010190602001808311611b3657829003601f168201915b5050505050935081805480602002602001604051908101604052809291908181526020018280548015611ba557602002820191906000526020600020905b815481526020019060010190808311611b91575b5050505050915095509550955095509550509091929394565b60008060068381548110611bce57fe5b90600052602060002090600602016000015460068481548110611bed57fe5b90600052602060002090600602016001015491509150915091565b600381815481106109f057fe5b600061169f83836040518060400160405280601e81526020017f536166654d6174683a207375627472616374696f6e206f766572666c6f7700008152506120d8565b3390565b611c6361213b565b828152602081018281526000608083018181526006805460018101825592819052845192027ff652222313e28459528d920b65115c16c04f3efc82aaedc97be59f3f377c0d3f810192835592517ff652222313e28459528d920b65115c16c04f3efc82aaedc97be59f3f377c0d4084015560408401517ff652222313e28459528d920b65115c16c04f3efc82aaedc97be59f3f377c0d4184015560608401517ff652222313e28459528d920b65115c16c04f3efc82aaedc97be59f3f377c0d42909301805493151560ff199094169390931780845590518493909161ff001916610100836002811115611d5257fe5b021790555050600654611d6791506001611c15565b6040517ff791e873e3b67fe74b29aeede7bcbbdaa59c4b64e542571183cd837aa56f6ac990600090a2505050565b600082611da4575060006116a2565b82820282848281611db157fe5b041461169f5760405162461bcd60e51b8152600401610596906126c2565b600061169f83836040518060400160405280601a81526020017f536166654d6174683a206469766973696f6e206279207a65726f000000000000815250612104565b60008282018381101561169f5760405162461bcd60e51b81526004016105969061255d565b336000908152600a602090815260408083206001600160a01b038616845290915290205460ff16611f0157336000818152600860209081526040808320815180830183526001600160a01b03888116808352828601898152845460018082018755868a52888a209551600290920290950180546001600160a01b0319169190941617835551918301919091558686529154600985528386208387528552838620600019919091019055948452600a83528184209084529091529020805460ff191690911790556105a9565b3360008181526009602090815260408083206001600160a01b0387168452825280832054938352600890915290208054611f6191849184908110611f4157fe5b906000526020600020906002020160010154611e1190919063ffffffff16565b336000908152600860205260409020805483908110611f7c57fe5b906000526020600020906002020160010181905550505050565b3360008181526009602090815260408083206001600160a01b038716845282528083205493835260089091529020805461158191849184908110611fd657fe5b906000526020600020906002020160010154611c1590919063ffffffff16565b60006006828154811061200557fe5b600091825260208083206001600160a01b0387811685526006939093020160040181526040808420928816845291905290205411611066576001600160a01b038316600090815260076020526040902054612061906001611e11565b6001600160a01b038416600090815260076020526040902055505050565b6000805b6003548110156120ce57826001600160a01b0316600382815481106120a457fe5b6000918252602090912001546001600160a01b031614156120c657905061055c565b600101612083565b5060001992915050565b600081848411156120fc5760405162461bcd60e51b815260040161059691906124ae565b505050900390565b600081836121255760405162461bcd60e51b815260040161059691906124ae565b50600083858161213157fe5b0495945050505050565b6040518060a001604052806000815260200160008152602001600081526020016000151581526020016000600281111561217157fe5b905290565b600060208284031215612187578081fd5b813561169f8161287d565b600080604083850312156121a4578081fd5b82356121af8161287d565b915060208301356121bf8161287d565b809150509250929050565b600080604083850312156121dc578182fd5b82356121e78161287d565b946020939093013593505050565b600080600060608486031215612209578081fd5b83356122148161287d565b95602085013595506040909401359392505050565b60006020828403121561223a578081fd5b8151801515811461169f578182fd5b60006020828403121561225a578081fd5b5035919050565b60008060408385031215612273578182fd5b50508035926020909101359150565b600080600060608486031215612296578283fd5b505081359360208301359350604090920135919050565b6000602082840312156122be578081fd5b815161169f8161287d565b6000806000606084860312156122dd578283fd5b8335925060208401356122ef8161287d565b929592945050506040919091013590565b60008151808452815b8181101561232557602081850181015186830182015201612309565b818111156123365782602083870101525b50601f01601f19169290920160200192915050565b6001600160a01b0391909116815260200190565b6001600160a01b039384168152919092166020820152604081019190915260600190565b6001600160a01b03929092168252602082015260400190565b600060018060a01b038088168352602060a0818501526123bf60a0850189612300565b604085018890528481036060860152865180825282880191830190855b818110156123f8578351835292840192918401916001016123dc565b505085810360808701528651808252908301915082870190855b81811015612430578251861684529284019291840191600101612412565b50919b9a5050505050505050505050565b602080825282518282018190526000919060409081850190868401855b8281101561248d578151805185528681015187860152850151858501526060909301929085019060010161245e565b5091979650505050505050565b901515815260200190565b90815260200190565b60006020825261169f6020830184612300565b602080825260139082015272534c41206e6f7420726573706563746564202160681b604082015260600190565b6020808252600f908201526e534c4120726573706563746564202160881b604082015260600190565b60208082526026908201527f4f776e61626c653a206e6577206f776e657220697320746865207a65726f206160408201526564647265737360d01b606082015260800190565b6020808252601b908201527f536166654d6174683a206164646974696f6e206f766572666c6f770000000000604082015260600190565b60208082526025908201527f4f6e6c79204d657373656e6765722063616e2063616c6c20746869732066756e6040820152643a31b4b7b760d91b606082015260800190565b602080825260159082015274596f752061726520612076616c696461746f72202160581b604082015260600190565b6020808252601b908201527f7374616b696e672062616c616e63652063616e6e6f7420626520300000000000604082015260600190565b6020808252601390820152721d1bdad95b88185b1c9958591e481859191959606a1b604082015260600190565b60208082526036908201527f596f75206861766520616c726561647920636c61696d656420796f75722072656040820152757761726420666f72207468697320706572696f64202160501b606082015260800190565b60208082526021908201527f536166654d6174683a206d756c7469706c69636174696f6e206f766572666c6f6040820152607760f81b606082015260800190565b6020808252601490820152731d1bdad95b881a5cc81b9bdd08185b1b1bddd95960621b604082015260600190565b6020808252818101527f4f776e61626c653a2063616c6c6572206973206e6f7420746865206f776e6572604082015260600190565b6020808252601290820152710616d6f756e742063616e6e6f7420626520360741b604082015260600190565b602080825260199082015278596f7520617265206e6f7420612076616c696461746f72202160381b604082015260600190565b6020808252603c908201527f596f75206861766520616c726561647920636c61696d656420796f757220636f60408201527f6d70656e736174696f6e20666f72207468697320706572696f64202100000000606082015260800190565b918252602082015260400190565b9283526020830191909152604082015260600190565b8581526020810185905260408101849052821515606082015260a081016003831061286d57fe5b8260808301529695505050505050565b6001600160a01b038116811461289257600080fd5b5056fea2646970667358221220b744634499428e3ee4b9ef2d5634a08e5d1fbd4392ee3aca09b8c17bd0c7678464736f6c634300060c00338be0079c531659141344cd1fd0a4f28419497f9722a3daafe3b4186f6b6457e0",
  "immutableReferences": {},
  "source": "// SPDX-License-Identifier: MIT\npragma solidity ^0.6.0;\npragma experimental ABIEncoderV2;\n\nimport \"@openzeppelin/contracts/access/Ownable.sol\";\nimport \"@openzeppelin/contracts/token/ERC20/IERC20.sol\";\nimport \"@openzeppelin/contracts/math/SafeMath.sol\";\nimport \"../SLO/SLO.sol\";\nimport \"../SLARegistry.sol\";\nimport \"./Staking.sol\";\n\n/**\n * @title SLA\n * @dev SLA is a service level agreement contract used for service downtime\n * compensation\n */\ncontract SLA is Ownable, Staking {\n    using SafeMath for uint256;\n\n    /// @dev The required amount to stake when subscribing to the agreement\n    uint256 public stake;\n\n    /// @dev The time between SLI registration\n    uint256 private sliInterval;\n\n    /// @dev The ipfs hash that stores extra information about the agreement\n    string public ipfsHash;\n\n    /// @dev The address of the registry contract\n    SLARegistry public registry;\n\n    /// @dev Struct used for storing registered SLI's\n    struct SLI {\n        uint256 timestamp;\n        uint256 value;\n        uint256 periodId;\n    }\n\n    /// @dev mapping to get SLO addresses from SLO names in bytes32\n    mapping(bytes32 => SLO) public SLOs;\n\n    /// @dev mapping to get SLI structs from SLO names in bytes32\n    mapping(bytes32 => SLI[]) public SLIs;\n\n    /// @dev array storing the names of the SLO's of this agreement\n    bytes32[] public SLONames;\n\n    /**\n     * @dev event for SLI creation logging\n     * @param _timestamp 1. the time the SLI has been registered\n     * @param _value 2. the value of the SLI\n     * @param _periodId 3. the id of the given period\n     */\n    event SLICreated(uint256 _timestamp, uint256 _value, uint256 _periodId);\n\n    /**\n     * @dev throws if called by any address other than the messenger contract.\n     */\n    modifier onlyMessenger() {\n        require(\n            msg.sender == address(registry.messenger()),\n            \"Only Messenger can call this funtcion\"\n        );\n        _;\n    }\n\n    /**\n     * @param _owner 1. address of the owner of the service level agreement\n     * @param _SLONames 2. array of the names of the service level objectives\n     * in bytes32\n     * @param _SLOs 3. array of service level objective contract addressess\n     * service level objective breach\n     * @param _stake 4. uint of the amount required to stake when signing the\n     * service level agreement\n     * @param _ipfsHash 5. string with the ipfs hash that contains extra\n     * information about the service level agreement\n     * @param _sliInterval 6. uint the interval in seconds between requesting a new SLI\n     * @param _tokenAddress 7. address of the DSLA token to be unlocked for staking\n     * @param _sla_period_starts 8. array with the values for the \"start\" of every period\n     * @param _sla_period_ends 9. array with the values for the \"end\" of every period\n     * @param _daiAddress 10. DAI Token Address to accept by default\n     */\n    constructor(\n        address _owner,\n        bytes32[] memory _SLONames,\n        SLO[] memory _SLOs,\n        uint256 _stake,\n        string memory _ipfsHash,\n        uint256 _sliInterval,\n        bDSLAToken _tokenAddress,\n        uint256[] memory _sla_period_starts,\n        uint256[] memory _sla_period_ends,\n        address _daiAddress\n    )\n        public\n        Staking(\n            _tokenAddress,\n            _sla_period_starts,\n            _sla_period_ends,\n            _owner,\n            _daiAddress\n        )\n    {\n        require(_SLOs.length < 5, \"max amount of SLOs is 5\");\n        require(\n            _SLONames.length == _SLOs.length,\n            \"_SLONames and _SLOs should have the same length\"\n        );\n\n        for (uint256 i = 0; i < _SLOs.length; i++) {\n            SLOs[_SLONames[i]] = _SLOs[i];\n        }\n\n        transferOwnership(_owner);\n        SLONames = _SLONames;\n        stake = _stake;\n        ipfsHash = _ipfsHash;\n        registry = SLARegistry(msg.sender);\n        sliInterval = _sliInterval;\n    }\n\n    /**\n     * @dev external function to register SLI's and check them against the SLO's\n     * @param _SLOName 1. the name of the SLO in bytes32\n     * @param _value 2. the value of the SLI to check\n     * @param _periodId 3. the id of the given period\n     */\n    function registerSLI(\n        bytes32 _SLOName,\n        uint256 _value,\n        uint256 _periodId\n    ) external onlyMessenger {\n        SLIs[_SLOName].push(SLI(block.timestamp, _value, _periodId));\n\n        emit SLICreated(block.timestamp, _value, _periodId);\n\n        if (!SLOs[_SLOName].isSLOHonored(_value)) {\n            periods[_periodId].status = Status.NotRespected;\n        } else {\n            periods[_periodId].status = Status.Respected;\n        }\n    }\n\n    /**\n     * @dev external function to get SLIs of certain _SLO\n     * @param _SLOName 1. the name of the SLO in bytes32\n     * @return SLI[] array of SLIs associated to the input SLOs\n     */\n    function getSLI(bytes32 _SLOName) public view returns (SLI[] memory) {\n        return SLIs[_SLOName];\n    }\n\n    /**\n     * @dev external view function that returns the sliInterval value\n      @return uint256 value of the sliInterval\n     */\n    function getSliInterval() external view returns (uint256) {\n        return sliInterval;\n    }\n\n    /**\n     * @dev external view function that returns all agreement information\n     * @return address owner\n     * @return string ipfsHash\n     * @return uint256 amount necessary to stake\n     * @return bytes32[] SLONames array\n     * @return SLO[] SLO addresses array\n     */\n\n    function getDetails()\n        external\n        view\n        returns (\n            address,\n            string memory,\n            uint256,\n            bytes32[] memory,\n            SLO[] memory\n        )\n    {\n        SLO[] memory _SLOAddresses = new SLO[](SLONames.length);\n\n        for (uint256 i = 0; i < SLONames.length; i++) {\n            _SLOAddresses[i] = SLOs[SLONames[i]];\n        }\n\n        return (owner(), ipfsHash, stake, SLONames, _SLOAddresses);\n    }\n}\n",
  "sourcePath": "/Users/matiasbn/Desktop/stacktical/stacktical-dsla-contracts/contracts/SLA/SLA.sol",
  "compiler": {
    "name": "solc",
    "version": "0.6.12+commit.27d51765.Emscripten.clang"
  },
  "schemaVersion": "3.2.5",
  "updatedAt": "2020-12-28T22:16:35.221Z",
  "devdoc": {
    "details": "SLA is a service level agreement contract used for service downtime compensation",
    "events": {
      "SLICreated(uint256,uint256,uint256)": {
        "details": "event for SLI creation logging",
        "params": {
          "_periodId": "3. the id of the given period",
          "_timestamp": "1. the time the SLI has been registered",
          "_value": "2. the value of the SLI"
        }
      }
    },
    "kind": "dev",
    "methods": {
      "constructor": {
        "params": {
          "_SLONames": "2. array of the names of the service level objectives in bytes32",
          "_SLOs": "3. array of service level objective contract addressess service level objective breach",
          "_daiAddress": "10. DAI Token Address to accept by default",
          "_ipfsHash": "5. string with the ipfs hash that contains extra information about the service level agreement",
          "_owner": "1. address of the owner of the service level agreement",
          "_sla_period_ends": "9. array with the values for the \"end\" of every period",
          "_sla_period_starts": "8. array with the values for the \"start\" of every period",
          "_sliInterval": "6. uint the interval in seconds between requesting a new SLI",
          "_stake": "4. uint of the amount required to stake when signing the service level agreement",
          "_tokenAddress": "7. address of the DSLA token to be unlocked for staking"
        }
      },
      "getDetails()": {
        "details": "external view function that returns all agreement information",
        "returns": {
          "_0": "address owner",
          "_1": "string ipfsHash",
          "_2": "uint256 amount necessary to stake",
          "_3": "bytes32[] SLONames array",
          "_4": "SLO[] SLO addresses array"
        }
      },
      "getSLI(bytes32)": {
        "details": "external function to get SLIs of certain _SLO",
        "params": {
          "_SLOName": "1. the name of the SLO in bytes32"
        },
        "returns": {
          "_0": "SLI[] array of SLIs associated to the input SLOs"
        }
      },
      "getSliInterval()": {
        "details": "external view function that returns the sliInterval value",
        "returns": {
          "_0": "uint256 value of the sliInterval"
        }
      },
      "owner()": {
        "details": "Returns the address of the current owner."
      },
      "registerSLI(bytes32,uint256,uint256)": {
        "details": "external function to register SLI's and check them against the SLO's",
        "params": {
          "_SLOName": "1. the name of the SLO in bytes32",
          "_periodId": "3. the id of the given period",
          "_value": "2. the value of the SLI to check"
        }
      },
      "renounceOwnership()": {
        "details": "Leaves the contract without owner. It will not be possible to call `onlyOwner` functions anymore. Can only be called by the current owner. NOTE: Renouncing ownership will leave the contract without an owner, thereby removing any functionality that is only available to the owner."
      },
      "stakersCount()": {
        "details": "public view function that returns the total amount of stakers"
      },
      "transferOwnership(address)": {
        "details": "Transfers ownership of the contract to a new account (`newOwner`). Can only be called by the current owner."
      }
    },
    "stateVariables": {
      "SLIs": {
        "details": "mapping to get SLI structs from SLO names in bytes32"
      },
      "SLONames": {
        "details": "array storing the names of the SLO's of this agreement"
      },
      "SLOs": {
        "details": "mapping to get SLO addresses from SLO names in bytes32"
      },
      "ipfsHash": {
        "details": "The ipfs hash that stores extra information about the agreement"
      },
      "registry": {
        "details": "The address of the registry contract"
      },
      "sliInterval": {
        "details": "The time between SLI registration"
      },
      "stake": {
        "details": "The required amount to stake when subscribing to the agreement"
      }
    },
    "title": "SLA",
    "version": 1
  },
  "userdoc": {
    "kind": "user",
    "methods": {},
    "version": 1
  }
}