{
  "contractName": "SLA",
  "abi": [
    {
      "inputs": [
        {
          "internalType": "address",
          "name": "_owner",
          "type": "address"
        },
        {
          "internalType": "bytes32[]",
          "name": "_SLONames",
          "type": "bytes32[]"
        },
        {
          "internalType": "contract SLO[]",
          "name": "_SLOs",
          "type": "address[]"
        },
        {
          "internalType": "uint256",
          "name": "_stake",
          "type": "uint256"
        },
        {
          "internalType": "string",
          "name": "_ipfsHash",
          "type": "string"
        },
        {
          "internalType": "uint256",
          "name": "_sliInterval",
          "type": "uint256"
        },
        {
          "internalType": "contract bDSLAToken",
          "name": "_tokenAddress",
          "type": "address"
        },
        {
          "internalType": "uint256[]",
          "name": "_sla_period_starts",
          "type": "uint256[]"
        },
        {
          "internalType": "uint256[]",
          "name": "_sla_period_ends",
          "type": "uint256[]"
        }
      ],
      "stateMutability": "nonpayable",
      "type": "constructor"
    },
    {
      "anonymous": false,
      "inputs": [
        {
          "indexed": true,
          "internalType": "uint256",
          "name": "period_index",
          "type": "uint256"
        }
      ],
      "name": "NewPeriodAdded",
      "type": "event"
    },
    {
      "anonymous": false,
      "inputs": [
        {
          "indexed": true,
          "internalType": "address",
          "name": "previousOwner",
          "type": "address"
        },
        {
          "indexed": true,
          "internalType": "address",
          "name": "newOwner",
          "type": "address"
        }
      ],
      "name": "OwnershipTransferred",
      "type": "event"
    },
    {
      "anonymous": false,
      "inputs": [
        {
          "indexed": false,
          "internalType": "uint256",
          "name": "_timestamp",
          "type": "uint256"
        },
        {
          "indexed": false,
          "internalType": "uint256",
          "name": "_value",
          "type": "uint256"
        },
        {
          "indexed": false,
          "internalType": "uint256",
          "name": "_periodId",
          "type": "uint256"
        }
      ],
      "name": "SLICreated",
      "type": "event"
    },
    {
      "inputs": [
        {
          "internalType": "bytes32",
          "name": "",
          "type": "bytes32"
        },
        {
          "internalType": "uint256",
          "name": "",
          "type": "uint256"
        }
      ],
      "name": "SLIs",
      "outputs": [
        {
          "internalType": "uint256",
          "name": "timestamp",
          "type": "uint256"
        },
        {
          "internalType": "uint256",
          "name": "value",
          "type": "uint256"
        },
        {
          "internalType": "uint256",
          "name": "periodId",
          "type": "uint256"
        }
      ],
      "stateMutability": "view",
      "type": "function"
    },
    {
      "inputs": [
        {
          "internalType": "uint256",
          "name": "",
          "type": "uint256"
        }
      ],
      "name": "SLONames",
      "outputs": [
        {
          "internalType": "bytes32",
          "name": "",
          "type": "bytes32"
        }
      ],
      "stateMutability": "view",
      "type": "function"
    },
    {
      "inputs": [
        {
          "internalType": "bytes32",
          "name": "",
          "type": "bytes32"
        }
      ],
      "name": "SLOs",
      "outputs": [
        {
          "internalType": "contract SLO",
          "name": "",
          "type": "address"
        }
      ],
      "stateMutability": "view",
      "type": "function"
    },
    {
      "inputs": [
        {
          "internalType": "address",
          "name": "_token",
          "type": "address"
        }
      ],
      "name": "addAllowedTokens",
      "outputs": [],
      "stateMutability": "nonpayable",
      "type": "function"
    },
    {
      "inputs": [
        {
          "internalType": "uint256",
          "name": "_sla_period_start",
          "type": "uint256"
        },
        {
          "internalType": "uint256",
          "name": "_sla_period_end",
          "type": "uint256"
        }
      ],
      "name": "addNewPeriod",
      "outputs": [],
      "stateMutability": "nonpayable",
      "type": "function"
    },
    {
      "inputs": [
        {
          "internalType": "uint256",
          "name": "",
          "type": "uint256"
        }
      ],
      "name": "allowedTokens",
      "outputs": [
        {
          "internalType": "address",
          "name": "",
          "type": "address"
        }
      ],
      "stateMutability": "view",
      "type": "function"
    },
    {
      "inputs": [
        {
          "internalType": "address",
          "name": "",
          "type": "address"
        }
      ],
      "name": "allowedTokensMapping",
      "outputs": [
        {
          "internalType": "bool",
          "name": "",
          "type": "bool"
        }
      ],
      "stateMutability": "view",
      "type": "function"
    },
    {
      "inputs": [],
      "name": "bDSLA",
      "outputs": [
        {
          "internalType": "contract bDSLAToken",
          "name": "",
          "type": "address"
        }
      ],
      "stateMutability": "view",
      "type": "function"
    },
    {
      "inputs": [
        {
          "internalType": "uint256",
          "name": "_period",
          "type": "uint256"
        }
      ],
      "name": "claimCompensation",
      "outputs": [],
      "stateMutability": "nonpayable",
      "type": "function"
    },
    {
      "inputs": [
        {
          "internalType": "uint256",
          "name": "_period",
          "type": "uint256"
        }
      ],
      "name": "claimReward",
      "outputs": [],
      "stateMutability": "nonpayable",
      "type": "function"
    },
    {
      "inputs": [
        {
          "internalType": "uint256",
          "name": "_periodId",
          "type": "uint256"
        }
      ],
      "name": "getPeriodData",
      "outputs": [
        {
          "internalType": "uint256",
          "name": "periodStart",
          "type": "uint256"
        },
        {
          "internalType": "uint256",
          "name": "periodEnd",
          "type": "uint256"
        }
      ],
      "stateMutability": "view",
      "type": "function"
    },
    {
      "inputs": [
        {
          "internalType": "address",
          "name": "_owner",
          "type": "address"
        },
        {
          "internalType": "uint256",
          "name": "_index",
          "type": "uint256"
        }
      ],
      "name": "getTokenStake",
      "outputs": [
        {
          "internalType": "address",
          "name": "tokenAddress",
          "type": "address"
        },
        {
          "internalType": "uint256",
          "name": "stake",
          "type": "uint256"
        }
      ],
      "stateMutability": "view",
      "type": "function"
    },
    {
      "inputs": [
        {
          "internalType": "address",
          "name": "_owner",
          "type": "address"
        }
      ],
      "name": "getTokenStakeLength",
      "outputs": [
        {
          "internalType": "uint256",
          "name": "",
          "type": "uint256"
        }
      ],
      "stateMutability": "view",
      "type": "function"
    },
    {
      "inputs": [
        {
          "internalType": "address",
          "name": "_user",
          "type": "address"
        },
        {
          "internalType": "uint256",
          "name": "_period",
          "type": "uint256"
        }
      ],
      "name": "getUserTotalValue",
      "outputs": [
        {
          "internalType": "uint256",
          "name": "",
          "type": "uint256"
        }
      ],
      "stateMutability": "view",
      "type": "function"
    },
    {
      "inputs": [],
      "name": "ipfsHash",
      "outputs": [
        {
          "internalType": "string",
          "name": "",
          "type": "string"
        }
      ],
      "stateMutability": "view",
      "type": "function"
    },
    {
      "inputs": [],
      "name": "owner",
      "outputs": [
        {
          "internalType": "address",
          "name": "",
          "type": "address"
        }
      ],
      "stateMutability": "view",
      "type": "function"
    },
    {
      "inputs": [
        {
          "internalType": "uint256",
          "name": "",
          "type": "uint256"
        }
      ],
      "name": "periods",
      "outputs": [
        {
          "internalType": "uint256",
          "name": "sla_period_start",
          "type": "uint256"
        },
        {
          "internalType": "uint256",
          "name": "sla_period_end",
          "type": "uint256"
        },
        {
          "internalType": "uint256",
          "name": "claimed_reward",
          "type": "uint256"
        },
        {
          "internalType": "bool",
          "name": "claimed",
          "type": "bool"
        },
        {
          "internalType": "enum Staking.Status",
          "name": "status",
          "type": "uint8"
        }
      ],
      "stateMutability": "view",
      "type": "function"
    },
    {
      "inputs": [],
      "name": "registry",
      "outputs": [
        {
          "internalType": "contract SLARegistry",
          "name": "",
          "type": "address"
        }
      ],
      "stateMutability": "view",
      "type": "function"
    },
    {
      "inputs": [],
      "name": "renounceOwnership",
      "outputs": [],
      "stateMutability": "nonpayable",
      "type": "function"
    },
    {
      "inputs": [],
      "name": "stake",
      "outputs": [
        {
          "internalType": "uint256",
          "name": "",
          "type": "uint256"
        }
      ],
      "stateMutability": "view",
      "type": "function"
    },
    {
      "inputs": [
        {
          "internalType": "uint256",
          "name": "_amount",
          "type": "uint256"
        },
        {
          "internalType": "address",
          "name": "_token",
          "type": "address"
        },
        {
          "internalType": "uint256",
          "name": "_period",
          "type": "uint256"
        }
      ],
      "name": "stakeTokens",
      "outputs": [],
      "stateMutability": "nonpayable",
      "type": "function"
    },
    {
      "inputs": [
        {
          "internalType": "uint256",
          "name": "",
          "type": "uint256"
        }
      ],
      "name": "stakers",
      "outputs": [
        {
          "internalType": "address",
          "name": "",
          "type": "address"
        }
      ],
      "stateMutability": "view",
      "type": "function"
    },
    {
      "inputs": [],
      "name": "stakersCount",
      "outputs": [
        {
          "internalType": "uint256",
          "name": "",
          "type": "uint256"
        }
      ],
      "stateMutability": "view",
      "type": "function"
    },
    {
      "inputs": [],
      "name": "totalStaked",
      "outputs": [
        {
          "internalType": "uint256",
          "name": "",
          "type": "uint256"
        }
      ],
      "stateMutability": "view",
      "type": "function"
    },
    {
      "inputs": [
        {
          "internalType": "address",
          "name": "newOwner",
          "type": "address"
        }
      ],
      "name": "transferOwnership",
      "outputs": [],
      "stateMutability": "nonpayable",
      "type": "function"
    },
    {
      "inputs": [
        {
          "internalType": "address",
          "name": "",
          "type": "address"
        }
      ],
      "name": "uniqueTokensStaked",
      "outputs": [
        {
          "internalType": "uint256",
          "name": "",
          "type": "uint256"
        }
      ],
      "stateMutability": "view",
      "type": "function"
    },
    {
      "inputs": [
        {
          "internalType": "address",
          "name": "",
          "type": "address"
        },
        {
          "internalType": "address",
          "name": "",
          "type": "address"
        }
      ],
      "name": "userStakedTokens",
      "outputs": [
        {
          "internalType": "bool",
          "name": "",
          "type": "bool"
        }
      ],
      "stateMutability": "view",
      "type": "function"
    },
    {
      "inputs": [
        {
          "internalType": "address",
          "name": "",
          "type": "address"
        },
        {
          "internalType": "address",
          "name": "",
          "type": "address"
        }
      ],
      "name": "userStakedTokensIndex",
      "outputs": [
        {
          "internalType": "uint256",
          "name": "",
          "type": "uint256"
        }
      ],
      "stateMutability": "view",
      "type": "function"
    },
    {
      "inputs": [
        {
          "internalType": "address",
          "name": "",
          "type": "address"
        },
        {
          "internalType": "uint256",
          "name": "",
          "type": "uint256"
        }
      ],
      "name": "userStakes",
      "outputs": [
        {
          "internalType": "address",
          "name": "tokenAddress",
          "type": "address"
        },
        {
          "internalType": "uint256",
          "name": "stake",
          "type": "uint256"
        }
      ],
      "stateMutability": "view",
      "type": "function"
    },
    {
      "inputs": [],
      "name": "validator",
      "outputs": [
        {
          "internalType": "address",
          "name": "",
          "type": "address"
        }
      ],
      "stateMutability": "view",
      "type": "function"
    },
    {
      "inputs": [
        {
          "internalType": "address",
          "name": "_token",
          "type": "address"
        },
        {
          "internalType": "uint256",
          "name": "_period",
          "type": "uint256"
        }
      ],
      "name": "withdraw",
      "outputs": [],
      "stateMutability": "nonpayable",
      "type": "function"
    },
    {
      "inputs": [
        {
          "internalType": "address",
          "name": "_token",
          "type": "address"
        },
        {
          "internalType": "uint256",
          "name": "_amount",
          "type": "uint256"
        },
        {
          "internalType": "uint256",
          "name": "_period",
          "type": "uint256"
        }
      ],
      "name": "withdrawAndStake",
      "outputs": [],
      "stateMutability": "nonpayable",
      "type": "function"
    },
    {
      "inputs": [
        {
          "internalType": "bytes32",
          "name": "_SLOName",
          "type": "bytes32"
        },
        {
          "internalType": "uint256",
          "name": "_value",
          "type": "uint256"
        },
        {
          "internalType": "uint256",
          "name": "_periodId",
          "type": "uint256"
        }
      ],
      "name": "registerSLI",
      "outputs": [],
      "stateMutability": "nonpayable",
      "type": "function"
    },
    {
      "inputs": [
        {
          "internalType": "bytes32",
          "name": "_SLOName",
          "type": "bytes32"
        }
      ],
      "name": "getSLI",
      "outputs": [
        {
          "components": [
            {
              "internalType": "uint256",
              "name": "timestamp",
              "type": "uint256"
            },
            {
              "internalType": "uint256",
              "name": "value",
              "type": "uint256"
            },
            {
              "internalType": "uint256",
              "name": "periodId",
              "type": "uint256"
            }
          ],
          "internalType": "struct SLA.SLI[]",
          "name": "",
          "type": "tuple[]"
        }
      ],
      "stateMutability": "view",
      "type": "function"
    },
    {
      "inputs": [],
      "name": "getSliInterval",
      "outputs": [
        {
          "internalType": "uint256",
          "name": "",
          "type": "uint256"
        }
      ],
      "stateMutability": "view",
      "type": "function"
    },
    {
      "inputs": [],
      "name": "getDetails",
      "outputs": [
        {
          "internalType": "address",
          "name": "",
          "type": "address"
        },
        {
          "internalType": "string",
          "name": "",
          "type": "string"
        },
        {
          "internalType": "uint256",
          "name": "",
          "type": "uint256"
        },
        {
          "internalType": "bytes32[]",
          "name": "",
          "type": "bytes32[]"
        },
        {
          "internalType": "contract SLO[]",
          "name": "",
          "type": "address[]"
        }
      ],
      "stateMutability": "view",
      "type": "function"
    }
  ],
  "bytecode": "0x60806040523480156200001157600080fd5b50604051620032b1380380620032b183398101604081905262000034916200076c565b8282828b60006200004462000274565b600080546001600160a01b0319166001600160a01b03831690811782556040519293509160008051602062003291833981519152908290a3508151835114620000aa5760405162461bcd60e51b8152600401620000a190620008fe565b60405180910390fd5b600180546001600160a01b038087166001600160a01b031992831617808455600480548086019091557f8a35acfbc15ff81a39ae7d344fd709f28e8600b4aa8c65c6b64bfe7fe36bd19b0180548416918316919091179055825481166000908152600560205260408120805460ff191690941790935560028054918516919092161790555b83518110156200017c57620001738482815181106200014a57fe5b60200260200101518483815181106200015f57fe5b60200260200101516200027860201b60201c565b6001016200012f565b505050505060058751106200019057600080fd5b86518851146200019f57600080fd5b60005b87518110156200021357878181518110620001b957fe5b6020026020010151601060008b8481518110620001d257fe5b602090810291909101810151825281019190915260400160002080546001600160a01b0319166001600160a01b0392909216919091179055600101620001a2565b506200021f89620003c7565b8751620002349060129060208b0190620004f6565b50600c86905584516200024f90600e90602088019062000546565b5050600f80546001600160a01b031916331790555050600d555062000a0f9350505050565b3390565b62000282620005b8565b828152602081018281526000608083018181526006805460018101825592819052845192027ff652222313e28459528d920b65115c16c04f3efc82aaedc97be59f3f377c0d3f810192835592517ff652222313e28459528d920b65115c16c04f3efc82aaedc97be59f3f377c0d4084015560408401517ff652222313e28459528d920b65115c16c04f3efc82aaedc97be59f3f377c0d4184015560608401517ff652222313e28459528d920b65115c16c04f3efc82aaedc97be59f3f377c0d42909301805493151560ff199094169390931780845590518493909161ff0019166101008360028111156200037257fe5b021790555050506200039960016006805490506200047460201b62001be51790919060201c565b6040517ff791e873e3b67fe74b29aeede7bcbbdaa59c4b64e542571183cd837aa56f6ac990600090a2505050565b620003d162000274565b6000546001600160a01b03908116911614620004015760405162461bcd60e51b8152600401620000a19062000947565b6001600160a01b0381166200042a5760405162461bcd60e51b8152600401620000a190620008b8565b600080546040516001600160a01b03808516939216916000805160206200329183398151915291a3600080546001600160a01b0319166001600160a01b0392909216919091179055565b6000620004be83836040518060400160405280601e81526020017f536166654d6174683a207375627472616374696f6e206f766572666c6f770000815250620004c760201b60201c565b90505b92915050565b60008184841115620004ee5760405162461bcd60e51b8152600401620000a1919062000883565b505050900390565b82805482825590600052602060002090810192821562000534579160200282015b828111156200053457825182559160200191906001019062000517565b5062000542929150620005f4565b5090565b828054600181600116156101000203166002900490600052602060002090601f016020900481019282601f106200058957805160ff191683800117855562000534565b828001600101855582156200053457918201828111156200053457825182559160200191906001019062000517565b6040518060a0016040528060008152602001600081526020016000815260200160001515815260200160006002811115620005ef57fe5b905290565b5b80821115620005425760008155600101620005f5565b8051620004c181620009f6565b600082601f83011262000629578081fd5b8151620006406200063a82620009a3565b6200097c565b8181529150602080830190848101818402860182018710156200066257600080fd5b60005b84811015620006835781518452928201929082019060010162000665565b505050505092915050565b600082601f8301126200069f578081fd5b8151620006b06200063a82620009a3565b818152915060208083019084810181840286018201871015620006d257600080fd5b60005b8481101562000683578151620006eb81620009f6565b84529282019290820190600101620006d5565b600082601f8301126200070f578081fd5b81516001600160401b0381111562000725578182fd5b6200073a601f8201601f19166020016200097c565b91508082528360208285010111156200075257600080fd5b62000765816020840160208601620009c3565b5092915050565b60008060008060008060008060006101208a8c0312156200078b578485fd5b620007978b8b6200060b565b60208b01519099506001600160401b0380821115620007b4578687fd5b620007c28d838e0162000618565b995060408c0151915080821115620007d8578687fd5b620007e68d838e016200068e565b985060608c0151975060808c015191508082111562000803578687fd5b620008118d838e01620006fe565b965060a08c01519550620008298d60c08e016200060b565b945060e08c01519150808211156200083f578384fd5b6200084d8d838e0162000618565b93506101008c015191508082111562000864578283fd5b50620008738c828d0162000618565b9150509295985092959850929598565b6000602082528251806020840152620008a4816040850160208701620009c3565b601f01601f19169190910160400192915050565b60208082526026908201527f4f776e61626c653a206e6577206f776e657220697320746865207a65726f206160408201526564647265737360d01b606082015260800190565b60208082526029908201527f506c6561736520636865636b2074686520706172616d73206f6620796f757220604082015268706572696f6473202160b81b606082015260800190565b6020808252818101527f4f776e61626c653a2063616c6c6572206973206e6f7420746865206f776e6572604082015260600190565b6040518181016001600160401b03811182821017156200099b57600080fd5b604052919050565b60006001600160401b03821115620009b9578081fd5b5060209081020190565b60005b83811015620009e0578181015183820152602001620009c6565b83811115620009f0576000848401525b50505050565b6001600160a01b038116811462000a0c57600080fd5b50565b6128728062000a1f6000396000f3fe608060405234801561001057600080fd5b50600436106101dc5760003560e01c806394199c6111610105578063ea4a11041161009d578063ea4a1104146103dd578063ec04de4814610401578063f10bd77214610414578063f2fde38b14610427578063f34ed40d1461043a578063f3fef3a31461044d578063fbbf93a014610460578063fc875ece14610479578063fd5e6dd11461049a576101dc565b806394199c6114610337578063a2e80c5e14610359578063ae169a5014610361578063b0227b4714610374578063b5d5b5fa14610387578063b83e02341461039a578063c623674f146103ad578063cec534d6146103c2578063e7ab816a146103d5576101dc565b806357ac94f01161017857806357ac94f0146102b55780635e5f2e26146102d65780635f4efaba146102e9578063715018a6146102f157806375fdf2a9146102f95780637b1039991461030c578063817b1cd214610314578063869c39251461031c5780638da5cb5b1461032f576101dc565b806302e8b893146101e15780630e1fcf341461020a578063105237cf1461021f578063171e44ea1461023f5780631934d0e8146102525780632eac9787146102655780633a4b66f1146102855780633a5381b51461028d57806353e85fd5146102a2575b600080fd5b6101f46101ef3660046121eb565b6104ad565b60405161020191906123f6565b60405180910390f35b61021d610218366004612203565b61053e565b005b61023261022d366004612118565b61058a565b604051610201919061244f565b61021d61024d366004612118565b61059f565b610232610260366004612134565b610674565b610278610273366004612134565b610694565b604051610201919061245a565b6102786106b1565b6102956106b7565b60405161020191906122fa565b61021d6102b03660046121eb565b6106c6565b6102c86102c336600461216c565b610940565b604051610201929190612332565b6102956102e43660046121eb565b6109c0565b6102956109e7565b61021d6109f6565b61021d610307366004612197565b610a75565b610295610dd5565b610278610de4565b61021d61032a366004612224565b610dea565b610295611035565b61034a610345366004612203565b611044565b604051610201939291906127d7565b610278611083565b61021d61036f3660046121eb565b611089565b6102956103823660046121eb565b611263565b6102c861039536600461216c565b61127e565b6102786103a8366004612118565b6112c1565b6103b56112d3565b6040516102019190612463565b61021d6103d036600461226b565b611361565b610278611551565b6103f06103eb3660046121eb565b611557565b6040516102019594939291906127ed565b61027861040f366004612118565b61159a565b61027861042236600461216c565b6115b5565b61021d610435366004612118565b611678565b6102786104483660046121eb565b61172e565b61021d61045b36600461216c565b61174c565b6104686119be565b60405161020195949392919061234b565b61048c6104873660046121eb565b611b8e565b6040516102019291906127c9565b6102956104a83660046121eb565b611bd8565b606060116000838152602001908152602001600020805480602002602001604051908101604052809291908181526020016000905b8282101561053257838290600052602060002090600302016040518060600160405290816000820154815260200160018201548152602001600282015481525050815260200190600101906104e2565b5050505090505b919050565b610546611c2e565b6000546001600160a01b0390811691161461057c5760405162461bcd60e51b8152600401610573906126d8565b60405180910390fd5b6105868282611c32565b5050565b60056020526000908152604090205460ff1681565b6105a7611c2e565b6000546001600160a01b039081169116146105d45760405162461bcd60e51b8152600401610573906126d8565b6001600160a01b03811660009081526005602052604090205460ff161561060d5760405162461bcd60e51b8152600401610573906125e6565b6004805460018181019092557f8a35acfbc15ff81a39ae7d344fd709f28e8600b4aa8c65c6b64bfe7fe36bd19b0180546001600160a01b039093166001600160a01b031990931683179055600091825260056020526040909120805460ff19169091179055565b600a60209081526000928352604080842090915290825290205460ff1681565b600960209081526000928352604080842090915290825290205481565b600c5481565b6002546001600160a01b031681565b80600681815481106106d457fe5b90600052602060002090600602016000015442101580156107135750600681815481106106fd57fe5b9060005260206000209060060201600101544211155b61071c57600080fd5b6002546001600160a01b03163314156107475760405162461bcd60e51b815260040161057390612580565b60026006838154811061075657fe5b906000526020600020906006020160030160019054906101000a900460ff16600281111561078057fe5b1461079d5760405162461bcd60e51b8152600401610573906124da565b600682815481106107aa57fe5b6000918252602080832033845260056006909302019190910190526040902054156107e75760405162461bcd60e51b81526004016105739061276c565b60006107f333846115b5565b9050600061080d600a610807846003611d6c565b90611da6565b600b5490915061081d9083611be5565b600b81905550816006858154811061083157fe5b600091825260208083203380855260069390930201600501905260409182902092909255600154905163a9059cbb60e01b81526001600160a01b039091169163a9059cbb9161088591908690600401612332565b602060405180830381600087803b15801561089f57600080fd5b505af11580156108b3573d6000803e3d6000fd5b505050506040513d601f19601f820116820180604052508101906108d791906121cb565b50600154604051630852cd8d60e31b81526001600160a01b03909116906342966c689061090890849060040161245a565b600060405180830381600087803b15801561092257600080fd5b505af1158015610936573d6000803e3d6000fd5b5050505050505050565b6001600160a01b038216600090815260086020526040812080548291908490811061096757fe5b600091825260208083206002909202909101546001600160a01b038781168452600890925260409092208054919092169190859081106109a357fe5b906000526020600020906002020160010154915091509250929050565b600481815481106109cd57fe5b6000918252602090912001546001600160a01b0316905081565b6001546001600160a01b031681565b6109fe611c2e565b6000546001600160a01b03908116911614610a2b5760405162461bcd60e51b8152600401610573906126d8565b600080546040516001600160a01b03909116907f8be0079c531659141344cd1fd0a4f28419497f9722a3daafe3b4186f6b6457e0908390a3600080546001600160a01b0319169055565b6002546001600160a01b0316331415610aa05760405162461bcd60e51b815260040161057390612580565b6001600160a01b038316600090815260056020526040902054839060ff161515600114610adf5760405162461bcd60e51b8152600401610573906126aa565b600060068381548110610aee57fe5b600091825260208083206001600160a01b03891684526004600690930201919091018152604080832033845290915290205411610b3d5760405162461bcd60e51b8152600401610573906125af565b6040516323b872dd60e01b81526001600160a01b038516906323b872dd90610b6d9033903090889060040161230e565b602060405180830381600087803b158015610b8757600080fd5b505af1158015610b9b573d6000803e3d6000fd5b505050506040513d601f19601f82011682018060405250810190610bbf91906121cb565b50610c098360068481548110610bd157fe5b600091825260208083206001600160a01b038a1684526004600690930201919091018152604080832033845290915290205490611de8565b60068381548110610c1657fe5b600091825260208083206001600160a01b038916845260046006909302019190910181526040808320338452909152902055600b54610c559084611de8565b600b55610c628484611e0d565b600060068381548110610c7157fe5b600091825260208083206001600160a01b0389168452600692830201600401815260408084203385529091528220546003548254919450610cd892909187908110610cb857fe5b906000526020600020906006020160020154611da690919063ffffffff16565b9050600060068581548110610ce957fe5b600091825260208083206001600160a01b038b16845260046006909302019190910181526040808320338452909152902055600b54610d289083611be5565b600b556001546001600160a01b031663a9059cbb33610d478585611be5565b6040518363ffffffff1660e01b8152600401610d64929190612332565b602060405180830381600087803b158015610d7e57600080fd5b505af1158015610d92573d6000803e3d6000fd5b505050506040513d601f19601f82011682018060405250810190610db691906121cb565b50600154610dcd906001600160a01b031683611f38565b505050505050565b600f546001600160a01b031681565b600b5481565b600f60009054906101000a90046001600160a01b03166001600160a01b0316633cb747bf6040518163ffffffff1660e01b815260040160206040518083038186803b158015610e3857600080fd5b505afa158015610e4c573d6000803e3d6000fd5b505050506040513d601f19601f82011682018060405250810190610e70919061224f565b6001600160a01b0316336001600160a01b031614610e8d57600080fd5b600083815260116020908152604080832081516060810183524280825281850188815282850188815284546001818101875595895296909720925160039096029092019485559051918401919091559251600290920191909155517fc95987c1992805ee34bdc915e017cceae36ba1c156b9911fa7e691e6435eb46e91610f1791859085906127d7565b60405180910390a16000838152601060205260409081902054905163868d08f760e01b81526001600160a01b039091169063868d08f790610f5c90859060040161245a565b60206040518083038186803b158015610f7457600080fd5b505afa158015610f88573d6000803e3d6000fd5b505050506040513d601f19601f82011682018060405250810190610fac91906121cb565b610ff257600260068281548110610fbf57fe5b60009182526020909120600360069092020101805461ff001916610100836002811115610fe857fe5b0217905550611030565b60016006828154811061100157fe5b60009182526020909120600360069092020101805461ff00191661010083600281111561102a57fe5b02179055505b505050565b6000546001600160a01b031690565b6011602052816000526040600020818154811061105d57fe5b600091825260209091206003909102018054600182015460029092015490935090915083565b60035490565b806006818154811061109757fe5b90600052602060002090600602016000015442101580156110d65750600681815481106110c057fe5b9060005260206000209060060201600101544211155b6110df57600080fd5b6002546001600160a01b031633146111095760405162461bcd60e51b815260040161057390612739565b60016006838154811061111857fe5b906000526020600020906006020160030160019054906101000a900460ff16600281111561114257fe5b1461115f5760405162461bcd60e51b8152600401610573906124ad565b6006828154811061116c57fe5b600091825260209091206003600690920201015460ff16156111a05760405162461bcd60e51b815260040161057390612613565b600654600b546000916111b39190611da6565b905060006111c7600a610807846003611d6c565b600b549091506111d79083611be5565b600b8190555081600685815481106111eb57fe5b90600052602060002090600602016002018190555060016006858154811061120f57fe5b60009182526020909120600690910201600301805460ff191691151591909117905560015460405163a9059cbb60e01b81526001600160a01b039091169063a9059cbb906108859033908690600401612332565b6010602052600090815260409020546001600160a01b031681565b6008602052816000526040600020818154811061129757fe5b6000918252602090912060029091020180546001909101546001600160a01b039091169250905082565b60076020526000908152604090205481565b600e805460408051602060026001851615610100026000190190941693909304601f810184900484028201840190925281815292918301828280156113595780601f1061132e57610100808354040283529160200191611359565b820191906000526020600020905b81548152906001019060200180831161133c57829003601f168201915b505050505081565b6001600160a01b038216600090815260056020526040902054829060ff1615156001146113a05760405162461bcd60e51b8152600401610573906126aa565b600084116113c05760405162461bcd60e51b81526004016105739061270d565b6113cb338484611f98565b6040516323b872dd60e01b81526001600160a01b038416906323b872dd906113fb9033903090899060040161230e565b602060405180830381600087803b15801561141557600080fd5b505af1158015611429573d6000803e3d6000fd5b505050506040513d601f19601f8201168201806040525081019061144d91906121cb565b50611497846006848154811061145f57fe5b600091825260208083206001600160a01b03891684526004600690930201919091018152604080832033845290915290205490611de8565b600683815481106114a457fe5b600091825260208083206001600160a01b038816845260046006909302019190910181526040808320338452909152902055600b546114e39085611de8565b600b55336000908152600760205260409020546001141561154157600380546001810182556000919091527fc2575a0e9e593c00f959f8c92f12db2869c3395a3b0502d05e2516446f71f85b0180546001600160a01b031916331790555b61154b8385611e0d565b50505050565b600d5490565b6006818154811061156457fe5b60009182526020909120600690910201805460018201546002830154600390930154919350919060ff8082169161010090041685565b6001600160a01b031660009081526008602052604090205490565b6001600160a01b0382166000908152600760205260408120546115ea5760405162461bcd60e51b815260040161057390612476565b6000805b60045481101561166e576116646006858154811061160857fe5b906000526020600020906006020160040160006004848154811061162857fe5b60009182526020808320909101546001600160a01b0390811684528382019490945260409283018220938a168252929092529020548390611de8565b91506001016115ee565b5090505b92915050565b611680611c2e565b6000546001600160a01b039081169116146116ad5760405162461bcd60e51b8152600401610573906126d8565b6001600160a01b0381166116d35760405162461bcd60e51b815260040161057390612503565b600080546040516001600160a01b03808516939216917f8be0079c531659141344cd1fd0a4f28419497f9722a3daafe3b4186f6b6457e091a3600080546001600160a01b0319166001600160a01b0392909216919091179055565b6012818154811061173b57fe5b600091825260209091200154905081565b6002546001600160a01b03163314156117775760405162461bcd60e51b815260040161057390612580565b6001600160a01b038216600090815260056020526040902054829060ff1615156001146117b65760405162461bcd60e51b8152600401610573906126aa565b6000600683815481106117c557fe5b600091825260208083206001600160a01b038816845260046006909302019190910181526040808320338452909152902054116118145760405162461bcd60e51b8152600401610573906125af565b60006006838154811061182357fe5b600091825260208083206001600160a01b038816845260069283020160040181526040808420338552909152822054600354825491945061186a92909187908110610cb857fe5b905060006006858154811061187b57fe5b600091825260208083206001600160a01b038a16845260046006909302019190910181526040808320338452909152902055600b546118ba9083611be5565b600b556001600160a01b03851663a9059cbb336118d78585611be5565b6040518363ffffffff1660e01b81526004016118f4929190612332565b602060405180830381600087803b15801561190e57600080fd5b505af1158015611922573d6000803e3d6000fd5b505050506040513d601f19601f8201168201806040525081019061194691906121cb565b5033600090815260076020526040902054611962906001611be5565b3360009081526007602052604090208190556119ad57600061198333612021565b90506003818154811061199257fe5b600091825260209091200180546001600160a01b0319169055505b6119b78583611f38565b5050505050565b600060606000606080606060128054905067ffffffffffffffff811180156119e557600080fd5b50604051908082528060200260200182016040528015611a0f578160200160208202803683370190505b50905060005b601254811015611a89576010600060128381548110611a3057fe5b9060005260206000200154815260200190815260200160002060009054906101000a90046001600160a01b0316828281518110611a6957fe5b6001600160a01b0390921660209283029190910190910152600101611a15565b50611a92611035565b600c54600e805460408051602060026001851615610100026000190190941693909304601f810184900484028201840190925281815292939260129287928691830182828015611b235780601f10611af857610100808354040283529160200191611b23565b820191906000526020600020905b815481529060010190602001808311611b0657829003601f168201915b5050505050935081805480602002602001604051908101604052809291908181526020018280548015611b7557602002820191906000526020600020905b815481526020019060010190808311611b61575b5050505050915095509550955095509550509091929394565b60008060068381548110611b9e57fe5b90600052602060002090600602016000015460068481548110611bbd57fe5b90600052602060002090600602016001015491509150915091565b600381815481106109cd57fe5b6000611c2783836040518060400160405280601e81526020017f536166654d6174683a207375627472616374696f6e206f766572666c6f77000081525061207a565b9392505050565b3390565b611c3a6120dd565b828152602081018281526000608083018181526006805460018101825592819052845192027ff652222313e28459528d920b65115c16c04f3efc82aaedc97be59f3f377c0d3f810192835592517ff652222313e28459528d920b65115c16c04f3efc82aaedc97be59f3f377c0d4084015560408401517ff652222313e28459528d920b65115c16c04f3efc82aaedc97be59f3f377c0d4184015560608401517ff652222313e28459528d920b65115c16c04f3efc82aaedc97be59f3f377c0d42909301805493151560ff199094169390931780845590518493909161ff001916610100836002811115611d2957fe5b021790555050600654611d3e91506001611be5565b6040517ff791e873e3b67fe74b29aeede7bcbbdaa59c4b64e542571183cd837aa56f6ac990600090a2505050565b600082611d7b57506000611672565b82820282848281611d8857fe5b0414611c275760405162461bcd60e51b815260040161057390612669565b6000611c2783836040518060400160405280601a81526020017f536166654d6174683a206469766973696f6e206279207a65726f0000000000008152506120a6565b600082820183811015611c275760405162461bcd60e51b815260040161057390612549565b336000908152600a602090815260408083206001600160a01b038616845290915290205460ff16611ed857336000818152600860209081526040808320815180830183526001600160a01b03888116808352828601898152845460018082018755868a52888a209551600290920290950180546001600160a01b0319169190941617835551918301919091558686529154600985528386208387528552838620600019919091019055948452600a83528184209084529091529020805460ff19169091179055610586565b3360008181526009602090815260408083206001600160a01b038716845282528083205493835260089091529020805461154b91849184908110611f1857fe5b906000526020600020906002020160010154611de890919063ffffffff16565b3360008181526009602090815260408083206001600160a01b038716845282528083205493835260089091529020805461154b91849184908110611f7857fe5b906000526020600020906002020160010154611be590919063ffffffff16565b600060068281548110611fa757fe5b600091825260208083206001600160a01b0387811685526006939093020160040181526040808420928816845291905290205411611030576001600160a01b038316600090815260076020526040902054612003906001611de8565b6001600160a01b038416600090815260076020526040902055505050565b6000805b60035481101561207057826001600160a01b03166003828154811061204657fe5b6000918252602090912001546001600160a01b03161415612068579050610539565b600101612025565b5060001992915050565b6000818484111561209e5760405162461bcd60e51b81526004016105739190612463565b505050900390565b600081836120c75760405162461bcd60e51b81526004016105739190612463565b5060008385816120d357fe5b0495945050505050565b6040518060a001604052806000815260200160008152602001600081526020016000151581526020016000600281111561211357fe5b905290565b600060208284031215612129578081fd5b8135611c2781612824565b60008060408385031215612146578081fd5b823561215181612824565b9150602083013561216181612824565b809150509250929050565b6000806040838503121561217e578182fd5b823561218981612824565b946020939093013593505050565b6000806000606084860312156121ab578081fd5b83356121b681612824565b95602085013595506040909401359392505050565b6000602082840312156121dc578081fd5b81518015158114611c27578182fd5b6000602082840312156121fc578081fd5b5035919050565b60008060408385031215612215578182fd5b50508035926020909101359150565b600080600060608486031215612238578283fd5b505081359360208301359350604090920135919050565b600060208284031215612260578081fd5b8151611c2781612824565b60008060006060848603121561227f578283fd5b83359250602084013561229181612824565b929592945050506040919091013590565b6001600160a01b03169052565b60008151808452815b818110156122d4576020818501810151868301820152016122b8565b818111156122e55782602083870101525b50601f01601f19169290920160200192915050565b6001600160a01b0391909116815260200190565b6001600160a01b039384168152919092166020820152604081019190915260600190565b6001600160a01b03929092168252602082015260400190565b6001600160a01b038616815260a06020808301829052600091612370908401886122af565b604084018790528381036060850152855180825282870191830190845b818110156123a95783518352928401929184019160010161238d565b505084810360808601528551808252908301915082860190845b818110156123e6576123d68484516122a2565b92840192918401916001016123c3565b50919a9950505050505050505050565b602080825282518282018190526000919060409081850190868401855b828110156124425781518051855286810151878601528501518585015260609093019290850190600101612413565b5091979650505050505050565b901515815260200190565b90815260200190565b600060208252611c2760208301846122af565b6020808252601d908201527f5573657220686173206e6f7420616e7920746f6b656e207374616b6564000000604082015260600190565b602080825260139082015272534c41206e6f7420726573706563746564202160681b604082015260600190565b6020808252600f908201526e534c4120726573706563746564202160881b604082015260600190565b60208082526026908201527f4f776e61626c653a206e6577206f776e657220697320746865207a65726f206160408201526564647265737360d01b606082015260800190565b6020808252601b908201527f536166654d6174683a206164646974696f6e206f766572666c6f770000000000604082015260600190565b602080825260159082015274596f752061726520612076616c696461746f72202160581b604082015260600190565b6020808252601b908201527f7374616b696e672062616c616e63652063616e6e6f7420626520300000000000604082015260600190565b6020808252601390820152721d1bdad95b88185b1c9958591e481859191959606a1b604082015260600190565b60208082526036908201527f596f75206861766520616c726561647920636c61696d656420796f75722072656040820152757761726420666f72207468697320706572696f64202160501b606082015260800190565b60208082526021908201527f536166654d6174683a206d756c7469706c69636174696f6e206f766572666c6f6040820152607760f81b606082015260800190565b6020808252601490820152731d1bdad95b881a5cc81b9bdd08185b1b1bddd95960621b604082015260600190565b6020808252818101527f4f776e61626c653a2063616c6c6572206973206e6f7420746865206f776e6572604082015260600190565b6020808252601290820152710616d6f756e742063616e6e6f7420626520360741b604082015260600190565b602080825260199082015278596f7520617265206e6f7420612076616c696461746f72202160381b604082015260600190565b6020808252603c908201527f596f75206861766520616c726561647920636c61696d656420796f757220636f60408201527f6d70656e736174696f6e20666f72207468697320706572696f64202100000000606082015260800190565b918252602082015260400190565b9283526020830191909152604082015260600190565b8581526020810185905260408101849052821515606082015260a081016003831061281457fe5b8260808301529695505050505050565b6001600160a01b038116811461283957600080fd5b5056fea2646970667358221220191ccda9421f174c4e65c65dd8029f0d92fc1fcb990ba3e917cdbd6599b32e0664736f6c634300060c00338be0079c531659141344cd1fd0a4f28419497f9722a3daafe3b4186f6b6457e0",
  "immutableReferences": {},
  "source": "// SPDX-License-Identifier: MIT\npragma solidity ^0.6.0;\npragma experimental ABIEncoderV2;\n\nimport \"@openzeppelin/contracts/access/Ownable.sol\";\nimport \"@openzeppelin/contracts/token/ERC20/IERC20.sol\";\nimport \"@openzeppelin/contracts/math/SafeMath.sol\";\nimport \"../SLO/SLO.sol\";\nimport \"../SLARegistry.sol\";\nimport \"./Staking.sol\";\n\n/**\n * @title SLA\n * @dev SLA is a service level agreement contract used for service downtime\n * compensation\n */\ncontract SLA is Ownable, Staking {\n    using SafeMath for uint256;\n\n    /// @dev The required amount to stake when subscribing to the agreement\n    uint256 public stake;\n\n    /// @dev The time between SLI registration\n    uint256 private sliInterval;\n\n    /// @dev The ipfs hash that stores extra information about the agreement\n    string public ipfsHash;\n\n    /// @dev The address of the registry contract\n    SLARegistry public registry;\n\n    /// @dev Struct used for storing registered SLI's\n    struct SLI {\n        uint256 timestamp;\n        uint256 value;\n        uint256 periodId;\n    }\n\n    /// @dev mapping to get SLO addresses from SLO names in bytes32\n    mapping(bytes32 => SLO) public SLOs;\n\n    /// @dev mapping to get SLI structs from SLO names in bytes32\n    mapping(bytes32 => SLI[]) public SLIs;\n\n    /// @dev array storing the names of the SLO's of this agreement\n    bytes32[] public SLONames;\n\n    /**\n     * @dev event for SLI creation logging\n     * @param _timestamp 1. the time the SLI has been registered\n     * @param _value 2. the value of the SLI\n     * @param _periodId 3. the id of the given period\n     */\n    event SLICreated(uint256 _timestamp, uint256 _value, uint256 _periodId);\n\n    /**\n     * @dev throws if called by any address other than the messenger contract.\n     */\n    modifier onlyMessenger() {\n        require(msg.sender == address(registry.messenger()));\n        _;\n    }\n\n    /**\n     * @param _owner 1. address of the owner of the service level agreement\n     * @param _SLONames 2. array of the names of the service level objectives\n     * in bytes32\n     * @param _SLOs 3. array of service level objective contract addressess\n     * service level objective breach\n     * @param _stake 4. uint of the amount required to stake when signing the\n     * service level agreement\n     * @param _ipfsHash 5. string with the ipfs hash that contains extra\n     * information about the service level agreement\n     * @param _sliInterval 6. uint the interval in seconds between requesting a new SLI\n     * @param _tokenAddress 7. address of the DSLA token to be unlocked for staking\n     * @param _sla_period_starts 8. array with the values for the \"start\" of every period\n     * @param _sla_period_ends 9. array with the values for the \"end\" of every period\n     */\n    constructor(\n        address _owner,\n        bytes32[] memory _SLONames,\n        SLO[] memory _SLOs,\n        uint256 _stake,\n        string memory _ipfsHash,\n        uint256 _sliInterval,\n        bDSLAToken _tokenAddress,\n        uint256[] memory _sla_period_starts,\n        uint256[] memory _sla_period_ends\n    )\n        public\n        Staking(_tokenAddress, _sla_period_starts, _sla_period_ends, _owner)\n    {\n        require(_SLOs.length < 5);\n        require(_SLONames.length == _SLOs.length);\n\n        for (uint256 i = 0; i < _SLOs.length; i++) {\n            SLOs[_SLONames[i]] = _SLOs[i];\n        }\n\n        transferOwnership(_owner);\n        SLONames = _SLONames;\n        stake = _stake;\n        ipfsHash = _ipfsHash;\n        registry = SLARegistry(msg.sender);\n        sliInterval = _sliInterval;\n    }\n\n    /**\n     * @dev external function to register SLI's and check them against the SLO's\n     * @param _SLOName 1. the name of the SLO in bytes32\n     * @param _value 2. the value of the SLI to check\n     * @param _periodId 3. the id of the given period\n     */\n    function registerSLI(\n        bytes32 _SLOName,\n        uint256 _value,\n        uint256 _periodId\n    ) external onlyMessenger {\n        SLIs[_SLOName].push(SLI(block.timestamp, _value, _periodId));\n\n        emit SLICreated(block.timestamp, _value, _periodId);\n\n        if (!SLOs[_SLOName].isSLOHonored(_value)) {\n            periods[_periodId].status = Status.NotRespected;\n        } else {\n            periods[_periodId].status = Status.Respected;\n        }\n    }\n\n    /**\n     * @dev external function to get SLIs of certain _SLO\n     * @param _SLOName 1. the name of the SLO in bytes32\n     * @return SLI[] array of SLIs associated to the input SLOs\n     */\n    function getSLI(bytes32 _SLOName) public view returns (SLI[] memory) {\n        return SLIs[_SLOName];\n    }\n\n    /**\n     * @dev external view function that returns the sliInterval value\n      @return uint256 value of the sliInterval\n     */\n    function getSliInterval() external view returns (uint256) {\n        return sliInterval;\n    }\n\n    /**\n     * @dev external view function that returns all agreement information\n     * @return address owner\n     * @return string ipfsHash\n     * @return uint256 amount necessary to stake\n     * @return bytes32[] aasdad\n     * @return SL[] aasdad\n     */\n\n    function getDetails()\n        external\n        view\n        returns (\n            address,\n            string memory,\n            uint256,\n            bytes32[] memory,\n            SLO[] memory\n        )\n    {\n        SLO[] memory _SLOAddresses = new SLO[](SLONames.length);\n\n        for (uint256 i = 0; i < SLONames.length; i++) {\n            _SLOAddresses[i] = SLOs[SLONames[i]];\n        }\n\n        return (owner(), ipfsHash, stake, SLONames, _SLOAddresses);\n    }\n}\n",
  "sourcePath": "/Users/matiasbn/Desktop/stacktical/stacktical-dsla-contracts/contracts/SLA/SLA.sol",
  "compiler": {
    "name": "solc",
    "version": "0.6.12+commit.27d51765.Emscripten.clang"
  },
  "schemaVersion": "3.2.5",
  "updatedAt": "2020-12-23T13:40:37.251Z",
  "devdoc": {
    "details": "SLA is a service level agreement contract used for service downtime compensation",
    "events": {
      "SLICreated(uint256,uint256,uint256)": {
        "details": "event for SLI creation logging",
        "params": {
          "_periodId": "3. the id of the given period",
          "_timestamp": "1. the time the SLI has been registered",
          "_value": "2. the value of the SLI"
        }
      }
    },
    "kind": "dev",
    "methods": {
      "constructor": {
        "params": {
          "_SLONames": "2. array of the names of the service level objectives in bytes32",
          "_SLOs": "3. array of service level objective contract addressess service level objective breach",
          "_ipfsHash": "5. string with the ipfs hash that contains extra information about the service level agreement",
          "_owner": "1. address of the owner of the service level agreement",
          "_sla_period_ends": "9. array with the values for the \"end\" of every period",
          "_sla_period_starts": "8. array with the values for the \"start\" of every period",
          "_sliInterval": "6. uint the interval in seconds between requesting a new SLI",
          "_stake": "4. uint of the amount required to stake when signing the service level agreement",
          "_tokenAddress": "7. address of the DSLA token to be unlocked for staking"
        }
      },
      "getDetails()": {
        "details": "external view function that returns all agreement information",
        "returns": {
          "_0": "address owner",
          "_1": "string ipfsHash",
          "_2": "uint256 amount necessary to stake",
          "_3": "bytes32[] aasdad",
          "_4": "SL[] aasdad"
        }
      },
      "getSLI(bytes32)": {
        "details": "external function to get SLIs of certain _SLO",
        "params": {
          "_SLOName": "1. the name of the SLO in bytes32"
        },
        "returns": {
          "_0": "SLI[] array of SLIs associated to the input SLOs"
        }
      },
      "getSliInterval()": {
        "details": "external view function that returns the sliInterval value",
        "returns": {
          "_0": "uint256 value of the sliInterval"
        }
      },
      "owner()": {
        "details": "Returns the address of the current owner."
      },
      "registerSLI(bytes32,uint256,uint256)": {
        "details": "external function to register SLI's and check them against the SLO's",
        "params": {
          "_SLOName": "1. the name of the SLO in bytes32",
          "_periodId": "3. the id of the given period",
          "_value": "2. the value of the SLI to check"
        }
      },
      "renounceOwnership()": {
        "details": "Leaves the contract without owner. It will not be possible to call `onlyOwner` functions anymore. Can only be called by the current owner. NOTE: Renouncing ownership will leave the contract without an owner, thereby removing any functionality that is only available to the owner."
      },
      "stakersCount()": {
        "details": "public view function that returns the total amount of stakers"
      },
      "transferOwnership(address)": {
        "details": "Transfers ownership of the contract to a new account (`newOwner`). Can only be called by the current owner."
      }
    },
    "stateVariables": {
      "SLIs": {
        "details": "mapping to get SLI structs from SLO names in bytes32"
      },
      "SLONames": {
        "details": "array storing the names of the SLO's of this agreement"
      },
      "SLOs": {
        "details": "mapping to get SLO addresses from SLO names in bytes32"
      },
      "ipfsHash": {
        "details": "The ipfs hash that stores extra information about the agreement"
      },
      "registry": {
        "details": "The address of the registry contract"
      },
      "sliInterval": {
        "details": "The time between SLI registration"
      },
      "stake": {
        "details": "The required amount to stake when subscribing to the agreement"
      }
    },
    "title": "SLA",
    "version": 1
  },
  "userdoc": {
    "kind": "user",
    "methods": {},
    "version": 1
  }
}