{
  "contractName": "SLA",
  "abi": [
    {
      "constant": true,
      "inputs": [],
      "name": "subscribersCount",
      "outputs": [
        {
          "name": "",
          "type": "uint256"
        }
      ],
      "payable": false,
      "stateMutability": "view",
      "type": "function"
    },
    {
      "constant": true,
      "inputs": [],
      "name": "stake",
      "outputs": [
        {
          "name": "",
          "type": "uint256"
        }
      ],
      "payable": false,
      "stateMutability": "view",
      "type": "function"
    },
    {
      "constant": true,
      "inputs": [
        {
          "name": "",
          "type": "address"
        }
      ],
      "name": "userToWithdrawn",
      "outputs": [
        {
          "name": "",
          "type": "uint256"
        }
      ],
      "payable": false,
      "stateMutability": "view",
      "type": "function"
    },
    {
      "constant": true,
      "inputs": [
        {
          "name": "",
          "type": "address"
        }
      ],
      "name": "userToCompensated",
      "outputs": [
        {
          "name": "",
          "type": "uint256"
        }
      ],
      "payable": false,
      "stateMutability": "view",
      "type": "function"
    },
    {
      "constant": false,
      "inputs": [],
      "name": "renounceOwnership",
      "outputs": [],
      "payable": false,
      "stateMutability": "nonpayable",
      "type": "function"
    },
    {
      "constant": true,
      "inputs": [],
      "name": "compensationPerUser",
      "outputs": [
        {
          "name": "",
          "type": "uint256"
        }
      ],
      "payable": false,
      "stateMutability": "view",
      "type": "function"
    },
    {
      "constant": true,
      "inputs": [],
      "name": "registry",
      "outputs": [
        {
          "name": "",
          "type": "address"
        }
      ],
      "payable": false,
      "stateMutability": "view",
      "type": "function"
    },
    {
      "constant": true,
      "inputs": [],
      "name": "dsla",
      "outputs": [
        {
          "name": "",
          "type": "address"
        }
      ],
      "payable": false,
      "stateMutability": "view",
      "type": "function"
    },
    {
      "constant": true,
      "inputs": [],
      "name": "owner",
      "outputs": [
        {
          "name": "",
          "type": "address"
        }
      ],
      "payable": false,
      "stateMutability": "view",
      "type": "function"
    },
    {
      "constant": true,
      "inputs": [],
      "name": "isOwner",
      "outputs": [
        {
          "name": "",
          "type": "bool"
        }
      ],
      "payable": false,
      "stateMutability": "view",
      "type": "function"
    },
    {
      "constant": true,
      "inputs": [],
      "name": "whitelist",
      "outputs": [
        {
          "name": "",
          "type": "address"
        }
      ],
      "payable": false,
      "stateMutability": "view",
      "type": "function"
    },
    {
      "constant": true,
      "inputs": [
        {
          "name": "",
          "type": "bytes32"
        },
        {
          "name": "",
          "type": "uint256"
        }
      ],
      "name": "SLIs",
      "outputs": [
        {
          "name": "timestamp",
          "type": "uint256"
        },
        {
          "name": "value",
          "type": "uint256"
        },
        {
          "name": "ipfsHash",
          "type": "string"
        }
      ],
      "payable": false,
      "stateMutability": "view",
      "type": "function"
    },
    {
      "constant": true,
      "inputs": [
        {
          "name": "",
          "type": "bytes32"
        }
      ],
      "name": "SLOs",
      "outputs": [
        {
          "name": "",
          "type": "address"
        }
      ],
      "payable": false,
      "stateMutability": "view",
      "type": "function"
    },
    {
      "constant": true,
      "inputs": [
        {
          "name": "_userAddress",
          "type": "address"
        }
      ],
      "name": "isSubscribed",
      "outputs": [
        {
          "name": "",
          "type": "bool"
        }
      ],
      "payable": false,
      "stateMutability": "view",
      "type": "function"
    },
    {
      "constant": true,
      "inputs": [],
      "name": "ipfsHash",
      "outputs": [
        {
          "name": "",
          "type": "string"
        }
      ],
      "payable": false,
      "stateMutability": "view",
      "type": "function"
    },
    {
      "constant": true,
      "inputs": [],
      "name": "compensationAmount",
      "outputs": [
        {
          "name": "",
          "type": "uint256"
        }
      ],
      "payable": false,
      "stateMutability": "view",
      "type": "function"
    },
    {
      "constant": false,
      "inputs": [
        {
          "name": "newOwner",
          "type": "address"
        }
      ],
      "name": "transferOwnership",
      "outputs": [],
      "payable": false,
      "stateMutability": "nonpayable",
      "type": "function"
    },
    {
      "inputs": [
        {
          "name": "_owner",
          "type": "address"
        },
        {
          "name": "_whitelist",
          "type": "address"
        },
        {
          "name": "_dsla",
          "type": "address"
        },
        {
          "name": "_SLONames",
          "type": "bytes32[]"
        },
        {
          "name": "_SLOs",
          "type": "address[]"
        },
        {
          "name": "_compensationAmount",
          "type": "uint256"
        },
        {
          "name": "_stake",
          "type": "uint256"
        },
        {
          "name": "_ipfsHash",
          "type": "string"
        },
        {
          "name": "_sliInterval",
          "type": "uint256"
        }
      ],
      "payable": false,
      "stateMutability": "nonpayable",
      "type": "constructor"
    },
    {
      "anonymous": false,
      "inputs": [
        {
          "indexed": false,
          "name": "_timestamp",
          "type": "uint256"
        },
        {
          "indexed": false,
          "name": "_value",
          "type": "uint256"
        },
        {
          "indexed": false,
          "name": "_hash",
          "type": "string"
        }
      ],
      "name": "SLICreated",
      "type": "event"
    },
    {
      "anonymous": false,
      "inputs": [
        {
          "indexed": true,
          "name": "user",
          "type": "address"
        }
      ],
      "name": "Subscribed",
      "type": "event"
    },
    {
      "anonymous": false,
      "inputs": [
        {
          "indexed": true,
          "name": "user",
          "type": "address"
        }
      ],
      "name": "Unsubscribed",
      "type": "event"
    },
    {
      "anonymous": false,
      "inputs": [
        {
          "indexed": true,
          "name": "user",
          "type": "address"
        },
        {
          "indexed": false,
          "name": "value",
          "type": "uint256"
        }
      ],
      "name": "InitialUserCompensation",
      "type": "event"
    },
    {
      "anonymous": false,
      "inputs": [
        {
          "indexed": true,
          "name": "user",
          "type": "address"
        },
        {
          "indexed": false,
          "name": "value",
          "type": "uint256"
        }
      ],
      "name": "CompensationWithdrawn",
      "type": "event"
    },
    {
      "anonymous": false,
      "inputs": [
        {
          "indexed": false,
          "name": "compensationPerUser",
          "type": "uint256"
        }
      ],
      "name": "CompensationAdded",
      "type": "event"
    },
    {
      "anonymous": false,
      "inputs": [
        {
          "indexed": true,
          "name": "previousOwner",
          "type": "address"
        },
        {
          "indexed": true,
          "name": "newOwner",
          "type": "address"
        }
      ],
      "name": "OwnershipTransferred",
      "type": "event"
    },
    {
      "constant": false,
      "inputs": [
        {
          "name": "_SLOName",
          "type": "bytes32"
        },
        {
          "name": "_value",
          "type": "uint256"
        },
        {
          "name": "_hash",
          "type": "string"
        }
      ],
      "name": "registerSLI",
      "outputs": [],
      "payable": false,
      "stateMutability": "nonpayable",
      "type": "function"
    },
    {
      "constant": false,
      "inputs": [
        {
          "name": "_newWhitelist",
          "type": "address"
        }
      ],
      "name": "changeWhitelist",
      "outputs": [],
      "payable": false,
      "stateMutability": "nonpayable",
      "type": "function"
    },
    {
      "constant": false,
      "inputs": [],
      "name": "signAgreement",
      "outputs": [],
      "payable": false,
      "stateMutability": "nonpayable",
      "type": "function"
    },
    {
      "constant": false,
      "inputs": [],
      "name": "withdrawCompensation",
      "outputs": [],
      "payable": false,
      "stateMutability": "nonpayable",
      "type": "function"
    },
    {
      "constant": false,
      "inputs": [
        {
          "name": "_users",
          "type": "address[]"
        }
      ],
      "name": "withdrawCompensations",
      "outputs": [],
      "payable": false,
      "stateMutability": "nonpayable",
      "type": "function"
    },
    {
      "constant": false,
      "inputs": [],
      "name": "revokeAgreement",
      "outputs": [],
      "payable": false,
      "stateMutability": "nonpayable",
      "type": "function"
    },
    {
      "constant": true,
      "inputs": [
        {
          "name": "_SLOName",
          "type": "bytes32"
        }
      ],
      "name": "getSLI",
      "outputs": [
        {
          "components": [
            {
              "name": "timestamp",
              "type": "uint256"
            },
            {
              "name": "value",
              "type": "uint256"
            },
            {
              "name": "ipfsHash",
              "type": "string"
            }
          ],
          "name": "",
          "type": "tuple[]"
        }
      ],
      "payable": false,
      "stateMutability": "view",
      "type": "function"
    },
    {
      "constant": true,
      "inputs": [],
      "name": "getSliInterval",
      "outputs": [
        {
          "name": "",
          "type": "uint256"
        }
      ],
      "payable": false,
      "stateMutability": "view",
      "type": "function"
    },
    {
      "constant": true,
      "inputs": [],
      "name": "getDetails",
      "outputs": [
        {
          "name": "",
          "type": "string"
        },
        {
          "name": "",
          "type": "address"
        },
        {
          "name": "",
          "type": "address"
        },
        {
          "name": "",
          "type": "address"
        },
        {
          "name": "",
          "type": "uint256"
        },
        {
          "name": "",
          "type": "uint256"
        },
        {
          "name": "",
          "type": "uint256"
        },
        {
          "name": "",
          "type": "bytes32[]"
        },
        {
          "name": "",
          "type": "address[]"
        }
      ],
      "payable": false,
      "stateMutability": "view",
      "type": "function"
    },
    {
      "constant": true,
      "inputs": [],
      "name": "getWithdrawableSubscribers",
      "outputs": [
        {
          "name": "",
          "type": "address[]"
        }
      ],
      "payable": false,
      "stateMutability": "view",
      "type": "function"
    }
  ],
  "bytecode": "0x60806040523480156200001157600080fd5b506040516200361738038062003617833981018060405262000037919081019062000775565b336000806101000a81548173ffffffffffffffffffffffffffffffffffffffff021916908373ffffffffffffffffffffffffffffffffffffffff1602179055506000809054906101000a900473ffffffffffffffffffffffffffffffffffffffff1673ffffffffffffffffffffffffffffffffffffffff16600073ffffffffffffffffffffffffffffffffffffffff167f8be0079c531659141344cd1fd0a4f28419497f9722a3daafe3b4186f6b6457e060405160405180910390a360058551106200010257600080fd5b84518651146200011157600080fd5b60008090505b8551811015620001a9578581815181106200012e57fe5b6020026020010151601060008984815181106200014757fe5b6020026020010151815260200190815260200160002060006101000a81548173ffffffffffffffffffffffffffffffffffffffff021916908373ffffffffffffffffffffffffffffffffffffffff160217905550808060010191505062000117565b50620001bb89620002d460201b60201c565b8560129080519060200190620001d392919062000452565b5087600660006101000a81548173ffffffffffffffffffffffffffffffffffffffff021916908373ffffffffffffffffffffffffffffffffffffffff16021790555086600b60006101000a81548173ffffffffffffffffffffffffffffffffffffffff021916908373ffffffffffffffffffffffffffffffffffffffff1602179055508360058190555082600c8190555081600e90805190602001906200027c929190620004a4565b5033600f60006101000a81548173ffffffffffffffffffffffffffffffffffffffff021916908373ffffffffffffffffffffffffffffffffffffffff16021790555080600d8190555050505050505050505062000a00565b620002e46200030260201b60201c565b620002ee57600080fd5b620002ff816200035960201b60201c565b50565b60008060009054906101000a900473ffffffffffffffffffffffffffffffffffffffff1673ffffffffffffffffffffffffffffffffffffffff163373ffffffffffffffffffffffffffffffffffffffff1614905090565b600073ffffffffffffffffffffffffffffffffffffffff168173ffffffffffffffffffffffffffffffffffffffff1614156200039457600080fd5b8073ffffffffffffffffffffffffffffffffffffffff166000809054906101000a900473ffffffffffffffffffffffffffffffffffffffff1673ffffffffffffffffffffffffffffffffffffffff167f8be0079c531659141344cd1fd0a4f28419497f9722a3daafe3b4186f6b6457e060405160405180910390a3806000806101000a81548173ffffffffffffffffffffffffffffffffffffffff021916908373ffffffffffffffffffffffffffffffffffffffff16021790555050565b82805482825590600052602060002090810192821562000491579160200282015b828111156200049057825182559160200191906001019062000473565b5b509050620004a091906200052b565b5090565b828054600181600116156101000203166002900490600052602060002090601f016020900481019282601f10620004e757805160ff191683800117855562000518565b8280016001018555821562000518579182015b8281111562000517578251825591602001919060010190620004fa565b5b50905062000527919062000553565b5090565b6200055091905b808211156200054c57600081600090555060010162000532565b5090565b90565b6200057891905b80821115620005745760008160009055506001016200055a565b5090565b90565b600062000589825162000946565b905092915050565b600082601f830112620005a357600080fd5b8151620005ba620005b482620008c7565b62000899565b91508181835260208401935060208101905083856020840282011115620005e057600080fd5b60005b83811015620006145781620005f98882620006ab565b845260208401935060208301925050600181019050620005e3565b5050505092915050565b600082601f8301126200063057600080fd5b8151620006476200064182620008f0565b62000899565b915081818352602084019350602081019050838560208402820111156200066d57600080fd5b60005b83811015620006a15781620006868882620006d7565b84526020840193506020830192505060018101905062000670565b5050505092915050565b6000620006b982516200095a565b905092915050565b6000620006cf825162000964565b905092915050565b6000620006e5825162000978565b905092915050565b6000620006fb82516200098c565b905092915050565b600082601f8301126200071557600080fd5b81516200072c620007268262000919565b62000899565b915080825260208301602083018583830111156200074957600080fd5b62000756838284620009ca565b50505092915050565b60006200076d8251620009c0565b905092915050565b60008060008060008060008060006101208a8c0312156200079557600080fd5b6000620007a58c828d016200057b565b9950506020620007b88c828d01620006ed565b9850506040620007cb8c828d01620006c1565b97505060608a015167ffffffffffffffff811115620007e957600080fd5b620007f78c828d0162000591565b96505060808a015167ffffffffffffffff8111156200081557600080fd5b620008238c828d016200061e565b95505060a0620008368c828d016200075f565b94505060c0620008498c828d016200075f565b93505060e08a015167ffffffffffffffff8111156200086757600080fd5b620008758c828d0162000703565b925050610100620008898c828d016200075f565b9150509295985092959850929598565b6000604051905081810181811067ffffffffffffffff82111715620008bd57600080fd5b8060405250919050565b600067ffffffffffffffff821115620008df57600080fd5b602082029050602081019050919050565b600067ffffffffffffffff8211156200090857600080fd5b602082029050602081019050919050565b600067ffffffffffffffff8211156200093157600080fd5b601f19601f8301169050602081019050919050565b60006200095382620009a0565b9050919050565b6000819050919050565b6000620009718262000946565b9050919050565b6000620009858262000946565b9050919050565b6000620009998262000946565b9050919050565b600073ffffffffffffffffffffffffffffffffffffffff82169050919050565b6000819050919050565b60005b83811015620009ea578082015181840152602081019050620009cd565b83811115620009fa576000848401525b50505050565b612c078062000a106000396000f3fe608060405234801561001057600080fd5b50600436106101a95760003560e01c80638da5cb5b116100f9578063b92ae87c11610097578063d994df2811610071578063d994df2814610478578063e7ab816a14610496578063f2fde38b146104b4578063fbbf93a0146104d0576101a9565b8063b92ae87c14610420578063c623674f14610450578063c939329b1461046e576101a9565b806394199c61116100d357806394199c6114610384578063acc559de146103b6578063b0227b47146103d2578063b64d07ce14610402576101a9565b80638da5cb5b1461032a5780638f32d59b1461034857806393e59dc114610366576101a9565b8063715018a6116101665780637b103999116101405780637b103999146102c8578063810019cf146102e657806387a15dc914610302578063880842bd1461030c576101a9565b8063715018a6146102965780637440ac43146102a0578063797b363a146102be576101a9565b806302e8b893146101ae57806308d0a7cf146101de5780630daa77a8146101fa5780633a4b66f1146102185780635268f5571461023657806365546f8614610266575b600080fd5b6101c860048036036101c3919081019061212c565b6104f6565b6040516101d591906126e7565b60405180910390f35b6101f860048036036101f39190810190612226565b61061e565b005b610202610673565b60405161020f9190612854565b60405180910390f35b610220610679565b60405161022d9190612854565b60405180910390f35b610250600480360361024b9190810190612095565b61067f565b60405161025d9190612854565b60405180910390f35b610280600480360361027b9190810190612095565b610697565b60405161028d9190612854565b60405180910390f35b61029e6106af565b005b6102a861077f565b6040516102b59190612854565b60405180910390f35b6102c6610785565b005b6102d0610878565b6040516102dd919061273f565b60405180910390f35b61030060048036036102fb9190810190612191565b61089e565b005b61030a610b52565b005b610314610c24565b6040516103219190612724565b60405180910390f35b610332610c4a565b60405161033f9190612606565b60405180910390f35b610350610c73565b60405161035d9190612709565b60405180910390f35b61036e610cca565b60405161037b9190612775565b60405180910390f35b61039e60048036036103999190810190612155565b610cf0565b6040516103ad939291906128af565b60405180910390f35b6103d060048036036103cb91908101906120be565b610dcc565b005b6103ec60048036036103e7919081019061212c565b610fce565b6040516103f9919061275a565b60405180910390f35b61040a611001565b60405161041791906126c5565b60405180910390f35b61043a60048036036104359190810190612095565b61114e565b6040516104479190612709565b60405180910390f35b6104586111a4565b6040516104659190612790565b60405180910390f35b610476611242565b005b6104806114e4565b60405161048d9190612854565b60405180910390f35b61049e6114ea565b6040516104ab9190612854565b60405180910390f35b6104ce60048036036104c99190810190612095565b6114f4565b005b6104d8611511565b6040516104ed999897969594939291906127b2565b60405180910390f35b606060116000838152602001908152602001600020805480602002602001604051908101604052809291908181526020016000905b8282101561061357838290600052602060002090600302016040518060600160405290816000820154815260200160018201548152602001600282018054600181600116156101000203166002900480601f0160208091040260200160405190810160405280929190818152602001828054600181600116156101000203166002900480156105fb5780601f106105d0576101008083540402835291602001916105fb565b820191906000526020600020905b8154815290600101906020018083116105de57829003601f168201915b5050505050815250508152602001906001019061052b565b505050509050919050565b610626610c73565b61062f57600080fd5b80600660006101000a81548173ffffffffffffffffffffffffffffffffffffffff021916908373ffffffffffffffffffffffffffffffffffffffff16021790555050565b60095481565b600c5481565b60036020528060005260406000206000915090505481565b60026020528060005260406000206000915090505481565b6106b7610c73565b6106c057600080fd5b600073ffffffffffffffffffffffffffffffffffffffff166000809054906101000a900473ffffffffffffffffffffffffffffffffffffffff1673ffffffffffffffffffffffffffffffffffffffff167f8be0079c531659141344cd1fd0a4f28419497f9722a3daafe3b4186f6b6457e060405160405180910390a360008060006101000a81548173ffffffffffffffffffffffffffffffffffffffff021916908373ffffffffffffffffffffffffffffffffffffffff160217905550565b60045481565b61078e3361114e565b61079757600080fd5b6107a033611772565b156107b0576107ae336117bf565b505b6107b86119ac565b6000600c54111561087657600b60009054906101000a900473ffffffffffffffffffffffffffffffffffffffff1673ffffffffffffffffffffffffffffffffffffffff1663a9059cbb33600c546040518363ffffffff1660e01b8152600401610822929190612673565b602060405180830381600087803b15801561083c57600080fd5b505af1158015610850573d6000803e3d6000fd5b505050506040513d601f19601f820116820180604052506108749190810190612103565b505b565b600f60009054906101000a900473ffffffffffffffffffffffffffffffffffffffff1681565b600f60009054906101000a900473ffffffffffffffffffffffffffffffffffffffff1673ffffffffffffffffffffffffffffffffffffffff16633cb747bf6040518163ffffffff1660e01b815260040160206040518083038186803b15801561090657600080fd5b505afa15801561091a573d6000803e3d6000fd5b505050506040513d601f19601f8201168201806040525061093e91908101906121fd565b73ffffffffffffffffffffffffffffffffffffffff163373ffffffffffffffffffffffffffffffffffffffff161461097557600080fd5b60116000858152602001908152602001600020604051806060016040528042815260200185815260200184848080601f016020809104026020016040519081016040528093929190818152602001838380828437600081840152601f19601f820116905080830192505050505050508152509080600181540180825580915050906001820390600052602060002090600302016000909192909190915060008201518160000155602082015181600101556040820151816002019080519060200190610a42929190611ee4565b505050507f048094af00d5b1e004ae2a3f03c2bd4897a83b5672ed2b02b7b3416b9709805c42848484604051610a7b949392919061286f565b60405180910390a16010600085815260200190815260200160002060009054906101000a900473ffffffffffffffffffffffffffffffffffffffff1673ffffffffffffffffffffffffffffffffffffffff1663868d08f7846040518263ffffffff1660e01b8152600401610aef9190612854565b60206040518083038186803b158015610b0757600080fd5b505afa158015610b1b573d6000803e3d6000fd5b505050506040513d601f19601f82011682018060405250610b3f9190810190612103565b610b4c57610b4b611a77565b5b50505050565b610b5b3361114e565b610b6457600080fd5b6000610b6f336117bf565b9050600b60009054906101000a900473ffffffffffffffffffffffffffffffffffffffff1673ffffffffffffffffffffffffffffffffffffffff1663a9059cbb33836040518363ffffffff1660e01b8152600401610bce929190612673565b602060405180830381600087803b158015610be857600080fd5b505af1158015610bfc573d6000803e3d6000fd5b505050506040513d601f19601f82011682018060405250610c209190810190612103565b5050565b600b60009054906101000a900473ffffffffffffffffffffffffffffffffffffffff1681565b60008060009054906101000a900473ffffffffffffffffffffffffffffffffffffffff16905090565b60008060009054906101000a900473ffffffffffffffffffffffffffffffffffffffff1673ffffffffffffffffffffffffffffffffffffffff163373ffffffffffffffffffffffffffffffffffffffff1614905090565b600660009054906101000a900473ffffffffffffffffffffffffffffffffffffffff1681565b60116020528160005260406000208181548110610d0957fe5b906000526020600020906003020160009150915050806000015490806001015490806002018054600181600116156101000203166002900480601f016020809104026020016040519081016040528092919081815260200182805460018160011615610100020316600290048015610dc25780601f10610d9757610100808354040283529160200191610dc2565b820191906000526020600020905b815481529060010190602001808311610da557829003601f168201915b5050505050905083565b600080905060008090505b83839050811015610f18576000848483818110610df057fe5b9050602002013573ffffffffffffffffffffffffffffffffffffffff169050610e188161114e565b8015610e295750610e2881611772565b5b15610f0a576000610e39826117bf565b9050600b60009054906101000a900473ffffffffffffffffffffffffffffffffffffffff1673ffffffffffffffffffffffffffffffffffffffff1663a9059cbb83836040518363ffffffff1660e01b8152600401610e9892919061269c565b602060405180830381600087803b158015610eb257600080fd5b505af1158015610ec6573d6000803e3d6000fd5b505050506040513d601f19601f82011682018060405250610eea9190810190612103565b50610f06670de0b6b3a764000085611acf90919063ffffffff16565b9350505b508080600101915050610dd7565b50600b60009054906101000a900473ffffffffffffffffffffffffffffffffffffffff1673ffffffffffffffffffffffffffffffffffffffff1663a9059cbb33836040518363ffffffff1660e01b8152600401610f76929190612673565b602060405180830381600087803b158015610f9057600080fd5b505af1158015610fa4573d6000803e3d6000fd5b505050506040513d601f19601f82011682018060405250610fc89190810190612103565b50505050565b60106020528060005260406000206000915054906101000a900473ffffffffffffffffffffffffffffffffffffffff1681565b606080600a546040519080825280602002602001820160405280156110355781602001602082028038833980820191505090505b50905060008090505b600a548110156111465760006008828154811061105757fe5b9060005260206000200160009054906101000a900473ffffffffffffffffffffffffffffffffffffffff16905061108d8161114e565b801561109e575061109d81611772565b5b156110ef57808383815181106110b057fe5b602002602001019073ffffffffffffffffffffffffffffffffffffffff16908173ffffffffffffffffffffffffffffffffffffffff1681525050611138565b60008383815181106110fd57fe5b602002602001019073ffffffffffffffffffffffffffffffffffffffff16908173ffffffffffffffffffffffffffffffffffffffff16815250505b50808060010191505061103e565b508091505090565b6000600760008373ffffffffffffffffffffffffffffffffffffffff1673ffffffffffffffffffffffffffffffffffffffff16815260200190815260200160002060009054906101000a900460ff169050919050565b600e8054600181600116156101000203166002900480601f01602080910402602001604051908101604052809291908181526020018280546001816001161561010002031660029004801561123a5780601f1061120f5761010080835404028352916020019161123a565b820191906000526020600020905b81548152906001019060200180831161121d57829003601f168201915b505050505081565b600073ffffffffffffffffffffffffffffffffffffffff16600660009054906101000a900473ffffffffffffffffffffffffffffffffffffffff1673ffffffffffffffffffffffffffffffffffffffff161461134d57600660009054906101000a900473ffffffffffffffffffffffffffffffffffffffff1673ffffffffffffffffffffffffffffffffffffffff16633af32abf336040518263ffffffff1660e01b81526004016112f39190612621565b60206040518083038186803b15801561130b57600080fd5b505afa15801561131f573d6000803e3d6000fd5b505050506040513d601f19601f820116820180604052506113439190810190612103565b61134c57600080fd5b5b6113563361114e565b1561136057600080fd5b611368611aee565b611370611d34565b6000600c5411156114e257600b60009054906101000a900473ffffffffffffffffffffffffffffffffffffffff1673ffffffffffffffffffffffffffffffffffffffff1663095ea7b330600c546040518363ffffffff1660e01b81526004016113da92919061269c565b602060405180830381600087803b1580156113f457600080fd5b505af1158015611408573d6000803e3d6000fd5b505050506040513d601f19601f8201168201806040525061142c9190810190612103565b50600b60009054906101000a900473ffffffffffffffffffffffffffffffffffffffff1673ffffffffffffffffffffffffffffffffffffffff166323b872dd3330600c546040518463ffffffff1660e01b815260040161148e9392919061263c565b602060405180830381600087803b1580156114a857600080fd5b505af11580156114bc573d6000803e3d6000fd5b505050506040513d601f19601f820116820180604052506114e09190810190612103565b505b565b60055481565b6000600d54905090565b6114fc610c73565b61150557600080fd5b61150e81611dcc565b50565b606060008060008060008060608060606012805490506040519080825280602002602001820160405280156115555781602001602082028038833980820191505090505b50905060008090505b60128054905081101561160957601060006012838154811061157c57fe5b9060005260206000200154815260200190815260200160002060009054906101000a900473ffffffffffffffffffffffffffffffffffffffff168282815181106115c257fe5b602002602001019073ffffffffffffffffffffffffffffffffffffffff16908173ffffffffffffffffffffffffffffffffffffffff1681525050808060010191505061155e565b50600e600b60009054906101000a900473ffffffffffffffffffffffffffffffffffffffff16600660009054906101000a900473ffffffffffffffffffffffffffffffffffffffff1661165a610c4a565b600554600c54600954601288888054600181600116156101000203166002900480601f0160208091040260200160405190810160405280929190818152602001828054600181600116156101000203166002900480156116fb5780601f106116d0576101008083540402835291602001916116fb565b820191906000526020600020905b8154815290600101906020018083116116de57829003601f168201915b505050505098508180548060200260200160405190810160405280929190818152602001828054801561174d57602002820191906000526020600020905b815481526020019060010190808311611739575b5050505050915099509950995099509950995099509950995050909192939495969798565b6000600454600260008473ffffffffffffffffffffffffffffffffffffffff1673ffffffffffffffffffffffffffffffffffffffff16815260200190815260200160002054109050919050565b60006117ca82611772565b6117d357600080fd5b6000611829600260008573ffffffffffffffffffffffffffffffffffffffff1673ffffffffffffffffffffffffffffffffffffffff16815260200190815260200160002054600454611ec490919063ffffffff16565b905061187d81600260008673ffffffffffffffffffffffffffffffffffffffff1673ffffffffffffffffffffffffffffffffffffffff16815260200190815260200160002054611acf90919063ffffffff16565b600260008573ffffffffffffffffffffffffffffffffffffffff1673ffffffffffffffffffffffffffffffffffffffff1681526020019081526020016000208190555061191281600360008673ffffffffffffffffffffffffffffffffffffffff1673ffffffffffffffffffffffffffffffffffffffff16815260200190815260200160002054611acf90919063ffffffff16565b600360008573ffffffffffffffffffffffffffffffffffffffff1673ffffffffffffffffffffffffffffffffffffffff168152602001908152602001600020819055508273ffffffffffffffffffffffffffffffffffffffff167f1480b15e3eab83a9b923578ffe330e3dce94536007ec9c0b48a5dfbde8c491818260405161199b9190612854565b60405180910390a280915050919050565b6119b53361114e565b6119be57600080fd5b6000600760003373ffffffffffffffffffffffffffffffffffffffff1673ffffffffffffffffffffffffffffffffffffffff16815260200190815260200160002060006101000a81548160ff021916908315150217905550611a2c6001600954611ec490919063ffffffff16565b6009819055503373ffffffffffffffffffffffffffffffffffffffff167fae563681ccc696fae58fe830f401bc9c043a43ddb9f7c2830b32c3c70d9966e760405160405180910390a2565b611a8e600554600454611acf90919063ffffffff16565b6004819055507f8f54d482248b8bb080211e41e3b058544f2444f56ab4e6d0368cbb17b5b2b8eb600454604051611ac59190612854565b60405180910390a1565b600080828401905083811015611ae457600080fd5b8091505092915050565b600073ffffffffffffffffffffffffffffffffffffffff16600660009054906101000a900473ffffffffffffffffffffffffffffffffffffffff1673ffffffffffffffffffffffffffffffffffffffff1614611bf957600660009054906101000a900473ffffffffffffffffffffffffffffffffffffffff1673ffffffffffffffffffffffffffffffffffffffff16633af32abf336040518263ffffffff1660e01b8152600401611b9f9190612621565b60206040518083038186803b158015611bb757600080fd5b505afa158015611bcb573d6000803e3d6000fd5b505050506040513d601f19601f82011682018060405250611bef9190810190612103565b611bf857600080fd5b5b6001600760003373ffffffffffffffffffffffffffffffffffffffff1673ffffffffffffffffffffffffffffffffffffffff16815260200190815260200160002060006101000a81548160ff021916908315150217905550611c676001600954611acf90919063ffffffff16565b60098190555060083390806001815401808255809150509060018203906000526020600020016000909192909190916101000a81548173ffffffffffffffffffffffffffffffffffffffff021916908373ffffffffffffffffffffffffffffffffffffffff16021790555050611ce96001600a54611acf90919063ffffffff16565b600a819055503373ffffffffffffffffffffffffffffffffffffffff167fa88fac53823b534c72d6958345adbe6801e072750d83b490d52ebbac51473a6360405160405180910390a2565b600454600260003373ffffffffffffffffffffffffffffffffffffffff1673ffffffffffffffffffffffffffffffffffffffff168152602001908152602001600020819055503373ffffffffffffffffffffffffffffffffffffffff167f86bd51a87477f175261ed976d5f38ebe16b536267992a6308317ad92c417b2f4600454604051611dc29190612854565b60405180910390a2565b600073ffffffffffffffffffffffffffffffffffffffff168173ffffffffffffffffffffffffffffffffffffffff161415611e0657600080fd5b8073ffffffffffffffffffffffffffffffffffffffff166000809054906101000a900473ffffffffffffffffffffffffffffffffffffffff1673ffffffffffffffffffffffffffffffffffffffff167f8be0079c531659141344cd1fd0a4f28419497f9722a3daafe3b4186f6b6457e060405160405180910390a3806000806101000a81548173ffffffffffffffffffffffffffffffffffffffff021916908373ffffffffffffffffffffffffffffffffffffffff16021790555050565b600082821115611ed357600080fd5b600082840390508091505092915050565b828054600181600116156101000203166002900490600052602060002090601f016020900481019282601f10611f2557805160ff1916838001178555611f53565b82800160010185558215611f53579182015b82811115611f52578251825591602001919060010190611f37565b5b509050611f609190611f64565b5090565b611f8691905b80821115611f82576000816000905550600101611f6a565b5090565b90565b6000611f958235612a3e565b905092915050565b60008083601f840112611faf57600080fd5b8235905067ffffffffffffffff811115611fc857600080fd5b602083019150836020820283011115611fe057600080fd5b9250929050565b6000611ff38251612a50565b905092915050565b60006120078235612a5c565b905092915050565b600061201b8251612a66565b905092915050565b600061202f8235612a78565b905092915050565b60008083601f84011261204957600080fd5b8235905067ffffffffffffffff81111561206257600080fd5b60208301915083600182028301111561207a57600080fd5b9250929050565b600061208d8235612aaa565b905092915050565b6000602082840312156120a757600080fd5b60006120b584828501611f89565b91505092915050565b600080602083850312156120d157600080fd5b600083013567ffffffffffffffff8111156120eb57600080fd5b6120f785828601611f9d565b92509250509250929050565b60006020828403121561211557600080fd5b600061212384828501611fe7565b91505092915050565b60006020828403121561213e57600080fd5b600061214c84828501611ffb565b91505092915050565b6000806040838503121561216857600080fd5b600061217685828601611ffb565b925050602061218785828601612081565b9150509250929050565b600080600080606085870312156121a757600080fd5b60006121b587828801611ffb565b94505060206121c687828801612081565b935050604085013567ffffffffffffffff8111156121e357600080fd5b6121ef87828801612037565b925092505092959194509250565b60006020828403121561220f57600080fd5b600061221d8482850161200f565b91505092915050565b60006020828403121561223857600080fd5b600061224684828501612023565b91505092915050565b600061225b83836122ba565b60208301905092915050565b60006122738383612466565b60208301905092915050565b600061228b8383612493565b60208301905092915050565b60006122a38383612598565b905092915050565b6122b481612ab4565b82525050565b6122c3816129ec565b82525050565b6122d2816129ec565b82525050565b60006122e382612921565b6122ed8185612997565b93506122f8836128ed565b60005b828110156123265761230e86835161224f565b955061231982612963565b91506001810190506122fb565b50849250505092915050565b600061233d8261292c565b61234781856129a8565b9350612352836128fa565b60005b8281101561238057612368868351612267565b955061237382612970565b9150600181019050612355565b50849250505092915050565b600061239782612937565b6123a18185612997565b93506123ac83612907565b60005b828110156123da576123c286835161227f565b95506123cd8261297d565b91506001810190506123af565b50849250505092915050565b60006123f182612942565b6123fb81856129b9565b93508360208202850161240d85612914565b60005b84811015612446578383038852612428838351612297565b92506124338261298a565b9150602088019750600181019050612410565b508196508694505050505092915050565b612460816129fe565b82525050565b61246f81612a0a565b82525050565b61247e81612ac6565b82525050565b61248d81612aea565b82525050565b61249c81612b0e565b82525050565b6124ab81612b0e565b82525050565b6124ba81612b32565b82525050565b60006124cc83856129db565b93506124d9838584612b7a565b6124e283612bbc565b840190509392505050565b60006124f882612958565b61250281856129db565b9350612512818560208601612b89565b61251b81612bbc565b840191505092915050565b60006125318261294d565b61253b81856129ca565b935061254b818560208601612b89565b61255481612bbc565b840191505092915050565b600061256a8261294d565b61257481856129db565b9350612584818560208601612b89565b61258d81612bbc565b840191505092915050565b60006060830160008301516125b060008601826125e8565b5060208301516125c360208601826125e8565b50604083015184820360408601526125db8282612526565b9150508091505092915050565b6125f181612a34565b82525050565b61260081612a34565b82525050565b600060208201905061261b60008301846122c9565b92915050565b600060208201905061263660008301846122ab565b92915050565b600060608201905061265160008301866122ab565b61265e60208301856122c9565b61266b60408301846125f7565b949350505050565b600060408201905061268860008301856122ab565b61269560208301846125f7565b9392505050565b60006040820190506126b160008301856122c9565b6126be60208301846125f7565b9392505050565b600060208201905081810360008301526126df81846122d8565b905092915050565b6000602082019050818103600083015261270181846123e6565b905092915050565b600060208201905061271e6000830184612457565b92915050565b60006020820190506127396000830184612475565b92915050565b60006020820190506127546000830184612484565b92915050565b600060208201905061276f60008301846124a2565b92915050565b600060208201905061278a60008301846124b1565b92915050565b600060208201905081810360008301526127aa818461255f565b905092915050565b60006101208201905081810360008301526127cd818c6124ed565b90506127dc602083018b612475565b6127e9604083018a6124b1565b6127f660608301896122c9565b61280360808301886125f7565b61281060a08301876125f7565b61281d60c08301866125f7565b81810360e083015261282f8185612332565b9050818103610100830152612844818461238c565b90509a9950505050505050505050565b600060208201905061286960008301846125f7565b92915050565b600060608201905061288460008301876125f7565b61289160208301866125f7565b81810360408301526128a48184866124c0565b905095945050505050565b60006060820190506128c460008301866125f7565b6128d160208301856125f7565b81810360408301526128e3818461255f565b9050949350505050565b6000602082019050919050565b6000602082019050919050565b6000602082019050919050565b6000602082019050919050565b600081519050919050565b600081519050919050565b600081519050919050565b600081519050919050565b600081519050919050565b600081519050919050565b6000602082019050919050565b6000602082019050919050565b6000602082019050919050565b6000602082019050919050565b600082825260208201905092915050565b600082825260208201905092915050565b600082825260208201905092915050565b600082825260208201905092915050565b600082825260208201905092915050565b60006129f782612a14565b9050919050565b60008115159050919050565b6000819050919050565b600073ffffffffffffffffffffffffffffffffffffffff82169050919050565b6000819050919050565b6000612a4982612a8a565b9050919050565b60008115159050919050565b6000819050919050565b6000612a7182612a3e565b9050919050565b6000612a8382612a3e565b9050919050565b600073ffffffffffffffffffffffffffffffffffffffff82169050919050565b6000819050919050565b6000612abf82612b56565b9050919050565b6000612ad182612ad8565b9050919050565b6000612ae382612a14565b9050919050565b6000612af582612afc565b9050919050565b6000612b0782612a14565b9050919050565b6000612b1982612b20565b9050919050565b6000612b2b82612a14565b9050919050565b6000612b3d82612b44565b9050919050565b6000612b4f82612a14565b9050919050565b6000612b6182612b68565b9050919050565b6000612b7382612a14565b9050919050565b82818337600083830152505050565b60005b83811015612ba7578082015181840152602081019050612b8c565b83811115612bb6576000848401525b50505050565b6000601f19601f830116905091905056fea265627a7a72305820325745b60939f9eb550116a4e8b7a55655967c0960c1c8c47c584a79e8be26316c6578706572696d656e74616cf50037",
  "source": "pragma solidity 0.5.7;\npragma experimental ABIEncoderV2;\n\nimport \"openzeppelin-solidity/contracts/ownership/Ownable.sol\";\nimport \"openzeppelin-solidity/contracts/token/ERC20/IERC20.sol\";\nimport \"openzeppelin-solidity/contracts/math/SafeMath.sol\";\nimport \"../interfaces/IMessenger.sol\";\nimport \"../Whitelist/Whitelist.sol\";\nimport \"../SLO/SLO.sol\";\nimport \"../SLARegistry.sol\";\nimport \"./Subscribable.sol\";\nimport \"./Compensatable.sol\";\n\n/**\n * @title SLA\n * @dev SLA is a service level agreement contract used for service downtime\n * compensation\n */\ncontract SLA is Ownable, Compensatable, Subscribable {\n\n    using SafeMath for uint256;\n\n    // The ERC20 contract address used for compensations and staking\n    IERC20 public dsla;\n\n    // The required amount to stake when subscribing to the agreement\n    uint public stake;\n\n    // The time between SLI registration\n    uint private sliInterval;\n\n    // The ipfs hash that stores extra information about the agreement\n    string public ipfsHash;\n\n    // The address of the registry contract\n    SLARegistry public registry;\n\n    // Struct used for storing registered SLI's\n    struct SLI {\n        uint timestamp;\n        uint value;\n        string ipfsHash;\n    }\n\n    // Mapping to get SLO addresses from SLO names in bytes32\n    mapping(bytes32 => SLO) public SLOs;\n\n    // Mapping to get SLI structs from SLO names in bytes32\n    mapping(bytes32 => SLI[]) public SLIs;\n\n    // Array storing the names of the SLO's of this agreement\n    bytes32[] SLONames;\n\n    /**\n     * @dev event for SLI creation logging\n     * @param _timestamp the time the SLI has been registered\n     * @param _value the value of the SLI\n     * @param _hash the ipfs hash that stores additional info\n     */\n    event SLICreated(uint _timestamp, uint _value, string _hash);\n\n    /**\n     * @dev constructor\n     * @param _owner the owner of the service level agreement\n     * @param _whitelist the address of the whitelist used for allowing users to\n     * sign the agreement\n     * @param _dsla the address of the ERC20 contract used for compensations and\n     * staking\n     * @param _SLONames the names of the service level objectives in a bytes32\n     * array\n     * @param _SLOs an array with the service level objective addresses\n     * @param _compensationAmount the amount of ERC20 tokens that is distributed\n     * on a breach\n     * @param _stake the amount required to stake when subscribing to the\n     * agreement\n     * @param _ipfsHash the ipfs hash that stores extra information about the\n     * agreement\n     */\n    constructor(\n        address _owner,\n        Whitelist _whitelist,\n        IERC20 _dsla,\n        bytes32[] memory _SLONames,\n        SLO[] memory _SLOs,\n        uint _compensationAmount,\n        uint _stake,\n        string memory _ipfsHash,\n        uint _sliInterval\n    )\n    public {\n        require(_SLOs.length < 5);\n        require(_SLONames.length == _SLOs.length);\n\n        for(uint i = 0; i < _SLOs.length; i++) {\n            SLOs[_SLONames[i]] = _SLOs[i];\n        }\n\n        transferOwnership(_owner);\n        SLONames = _SLONames;\n        whitelist = _whitelist;\n        dsla = _dsla;\n        compensationAmount = _compensationAmount;\n        stake = _stake;\n        ipfsHash = _ipfsHash;\n        registry = SLARegistry(msg.sender);\n        sliInterval = _sliInterval;\n    }\n\n    /**\n     * @dev Throws if called by any address other than the Oraclize or\n     * messenger contract.\n     */\n    modifier onlyMessenger() {\n        require(msg.sender == address(registry.messenger()));\n        _;\n    }\n\n    /**\n     * @dev external function to register SLI's and check them against the SLO's\n     * @param _SLOName the name of the SLO in bytes32\n     * @param _value the value of the SLI to check\n     * @param _hash the ipfs hash with additional information\n     */\n    function registerSLI(bytes32 _SLOName, uint _value, string calldata _hash)\n        external\n        onlyMessenger\n    {\n        SLIs[_SLOName].push(SLI(now, _value, _hash));\n\n        emit SLICreated(now, _value, _hash);\n\n        if(!SLOs[_SLOName].isSLOHonored(_value)) {\n            _compensate();\n        }\n    }\n\n    /**\n     * @dev external function to change the whitelist address\n     * @param _newWhitelist the address of the new whitelist contract\n     */\n    function changeWhitelist(Whitelist _newWhitelist) external onlyOwner {\n        whitelist = _newWhitelist;\n    }\n\n    /**\n     * @dev external function to sign the agreement\n     */\n    function signAgreement() external onlyWhitelisted onlyNotSubscribed{\n        _subscribe();\n        _setInitialuserCompensation();\n\n        if (stake > 0) {\n            dsla.approve(address(this), stake);\n            dsla.transferFrom(msg.sender, address(this), stake);\n        }\n    }\n\n    /**\n     * @dev external function to withdraw the entitled compensation from the\n     * contract\n     */\n    function withdrawCompensation() external onlySubscribed {\n        uint withdrawalAmount = _withdrawCompensation(msg.sender);\n        dsla.transfer(msg.sender, withdrawalAmount);\n    }\n\n    /**\n     * @dev external function to withdraw entitled compensations for an array\n     * of addresses\n     * @param _users the array of user addresses to withdraw compensations for\n     */\n    function withdrawCompensations(address[] calldata _users) external {\n        uint reward = 0;\n\n        for(uint i = 0; i < _users.length; i++) {\n            address userAddress = _users[i];\n\n            if (isSubscribed(userAddress) && _compensationWithdrawable(userAddress)) {\n                uint withdrawalAmount = _withdrawCompensation(userAddress);\n                dsla.transfer(userAddress, withdrawalAmount);\n\n                reward = reward.add(1e18);\n            }\n        }\n\n        // TODO: Replace temporary reward calculation with actual calculation\n        dsla.transfer(msg.sender, reward);\n    }\n\n    /**\n     * @dev external function to revoke the agreement\n     */\n    function revokeAgreement() external onlySubscribed {\n        if (_compensationWithdrawable(msg.sender)) {\n            _withdrawCompensation(msg.sender);\n        }\n\n        _unSubscribe();\n\n        if (stake > 0) {\n            dsla.transfer(msg.sender, stake);\n        }\n    }\n\n    /**\n     * @dev external function to get SLI\n     * @param _SLOName the name of the SLO in bytes32\n     */\n    function getSLI(bytes32 _SLOName) public view returns(SLI[] memory) {\n        return SLIs[_SLOName];\n    }\n\n    /**\n     * @dev external view function that returns the sliInterval value\n     */\n    function getSliInterval() external view returns(uint) {\n        return sliInterval;\n    }\n\n    /**\n     * @dev external view function that returns all agreement information\n     */\n    function getDetails() external view returns(\n        string memory,\n        IERC20,\n        Whitelist,\n        address,\n        uint,\n        uint,\n        uint,\n        bytes32[] memory,\n        SLO[] memory\n    ){\n        SLO[] memory _SLOAddressess = new SLO[](SLONames.length);\n\n        for(uint i = 0; i < SLONames.length; i++) {\n            _SLOAddressess[i] = SLOs[SLONames[i]];\n        }\n\n        return(\n            ipfsHash,\n            dsla,\n            whitelist,\n            owner(),\n            compensationAmount,\n            stake,\n            subscribersCount,\n            SLONames,\n            _SLOAddressess\n        );\n    }\n\n    /**\n     * @dev external view function that returns all subscribers that are\n     * entitled to a compensation\n     */\n    function getWithdrawableSubscribers() external view returns(address[] memory) {\n        address[] memory userList = new address[](usersCount);\n\n        for(uint i = 0; i < usersCount; i++) {\n            address userAddress = allUsers[i];\n\n            if (isSubscribed(userAddress) && _compensationWithdrawable(userAddress)) {\n                userList[i] = userAddress;\n            } else {\n                userList[i] = address(0);\n            }\n        }\n\n        return userList;\n    }\n}\n",
  "sourcePath": "/Users/matiasbn/Desktop/stacktical-dsla-contracts/contracts/SLA/SLA.sol",
  "compiler": {
    "name": "solc",
    "version": "0.5.7+commit.6da8b019.Emscripten.clang"
  },
  "schemaVersion": "3.2.5",
  "updatedAt": "2020-11-22T18:15:09.011Z",
  "devdoc": {
    "details": "SLA is a service level agreement contract used for service downtime compensation",
    "methods": {
      "changeWhitelist(address)": {
        "details": "external function to change the whitelist address",
        "params": {
          "_newWhitelist": "the address of the new whitelist contract"
        }
      },
      "constructor": {
        "details": "constructor",
        "params": {
          "_SLONames": "the names of the service level objectives in a bytes32 array",
          "_SLOs": "an array with the service level objective addresses",
          "_compensationAmount": "the amount of ERC20 tokens that is distributed on a breach",
          "_dsla": "the address of the ERC20 contract used for compensations and staking",
          "_ipfsHash": "the ipfs hash that stores extra information about the agreement",
          "_owner": "the owner of the service level agreement",
          "_stake": "the amount required to stake when subscribing to the agreement",
          "_whitelist": "the address of the whitelist used for allowing users to sign the agreement"
        }
      },
      "getDetails()": {
        "details": "external view function that returns all agreement information"
      },
      "getSLI(bytes32)": {
        "details": "external function to get SLI",
        "params": {
          "_SLOName": "the name of the SLO in bytes32"
        }
      },
      "getSliInterval()": {
        "details": "external view function that returns the sliInterval value"
      },
      "getWithdrawableSubscribers()": {
        "details": "external view function that returns all subscribers that are entitled to a compensation"
      },
      "isOwner()": {
        "return": "true if `msg.sender` is the owner of the contract."
      },
      "isSubscribed(address)": {
        "details": "public view function to check if a given user is subscribed to the contract",
        "params": {
          "_userAddress": "the address of the user to check"
        },
        "return": "true if _userAddress is subscribed to the contract"
      },
      "owner()": {
        "return": "the address of the owner."
      },
      "registerSLI(bytes32,uint256,string)": {
        "details": "external function to register SLI's and check them against the SLO's",
        "params": {
          "_SLOName": "the name of the SLO in bytes32",
          "_hash": "the ipfs hash with additional information",
          "_value": "the value of the SLI to check"
        }
      },
      "renounceOwnership()": {
        "details": "Allows the current owner to relinquish control of the contract."
      },
      "revokeAgreement()": {
        "details": "external function to revoke the agreement"
      },
      "signAgreement()": {
        "details": "external function to sign the agreement"
      },
      "transferOwnership(address)": {
        "details": "Allows the current owner to transfer control of the contract to a newOwner.",
        "params": {
          "newOwner": "The address to transfer ownership to."
        }
      },
      "withdrawCompensation()": {
        "details": "external function to withdraw the entitled compensation from the contract"
      },
      "withdrawCompensations(address[])": {
        "details": "external function to withdraw entitled compensations for an array of addresses",
        "params": {
          "_users": "the array of user addresses to withdraw compensations for"
        }
      }
    },
    "title": "SLA"
  },
  "userdoc": {
    "methods": {
      "renounceOwnership()": {
        "notice": "Renouncing to ownership will leave the contract without an owner. It will not be possible to call the functions with the `onlyOwner` modifier anymore."
      }
    }
  }
}