{
  "contractName": "SLA",
  "abi": [
    {
      "inputs": [
        {
          "internalType": "address",
          "name": "_owner",
          "type": "address"
        },
        {
          "internalType": "contract SLO",
          "name": "_SLO",
          "type": "address"
        },
        {
          "internalType": "string",
          "name": "_ipfsHash",
          "type": "string"
        },
        {
          "internalType": "address",
          "name": "_messengerAddress",
          "type": "address"
        },
        {
          "internalType": "uint256[]",
          "name": "_periodIds",
          "type": "uint256[]"
        },
        {
          "internalType": "enum PeriodRegistry.PeriodType",
          "name": "_periodType",
          "type": "uint8"
        },
        {
          "internalType": "address",
          "name": "_stakeRegistry",
          "type": "address"
        },
        {
          "internalType": "address",
          "name": "_periodRegistry",
          "type": "address"
        },
        {
          "internalType": "bool",
          "name": "_whitelisted",
          "type": "bool"
        },
        {
          "internalType": "bytes32[]",
          "name": "_extraData",
          "type": "bytes32[]"
        },
        {
          "internalType": "uint256",
          "name": "_slaID",
          "type": "uint256"
        }
      ],
      "stateMutability": "nonpayable",
      "type": "constructor"
    },
    {
      "anonymous": false,
      "inputs": [
        {
          "indexed": true,
          "internalType": "address",
          "name": "previousOwner",
          "type": "address"
        },
        {
          "indexed": true,
          "internalType": "address",
          "name": "newOwner",
          "type": "address"
        }
      ],
      "name": "OwnershipTransferred",
      "type": "event"
    },
    {
      "anonymous": false,
      "inputs": [
        {
          "indexed": true,
          "internalType": "uint256",
          "name": "periodId",
          "type": "uint256"
        },
        {
          "indexed": true,
          "internalType": "address",
          "name": "tokenAddress",
          "type": "address"
        },
        {
          "indexed": false,
          "internalType": "uint256",
          "name": "rewardPercentage",
          "type": "uint256"
        },
        {
          "indexed": false,
          "internalType": "uint256",
          "name": "rewardPercentagePrecision",
          "type": "uint256"
        },
        {
          "indexed": false,
          "internalType": "uint256",
          "name": "rewardAmount",
          "type": "uint256"
        }
      ],
      "name": "ProviderRewardGenerated",
      "type": "event"
    },
    {
      "anonymous": false,
      "inputs": [
        {
          "indexed": false,
          "internalType": "uint256",
          "name": "_periodId",
          "type": "uint256"
        },
        {
          "indexed": false,
          "internalType": "uint256",
          "name": "_sli",
          "type": "uint256"
        }
      ],
      "name": "SLANotRespected",
      "type": "event"
    },
    {
      "anonymous": false,
      "inputs": [
        {
          "indexed": false,
          "internalType": "uint256",
          "name": "timestamp",
          "type": "uint256"
        },
        {
          "indexed": false,
          "internalType": "uint256",
          "name": "sli",
          "type": "uint256"
        },
        {
          "indexed": false,
          "internalType": "uint256",
          "name": "periodId",
          "type": "uint256"
        }
      ],
      "name": "SLICreated",
      "type": "event"
    },
    {
      "inputs": [],
      "name": "DSLAburnRate",
      "outputs": [
        {
          "internalType": "uint256",
          "name": "",
          "type": "uint256"
        }
      ],
      "stateMutability": "view",
      "type": "function"
    },
    {
      "inputs": [
        {
          "internalType": "address",
          "name": "_tokenAddress",
          "type": "address"
        }
      ],
      "name": "_claimCompensation",
      "outputs": [],
      "stateMutability": "nonpayable",
      "type": "function"
    },
    {
      "inputs": [
        {
          "internalType": "address",
          "name": "_tokenAddress",
          "type": "address"
        }
      ],
      "name": "addAllowedTokens",
      "outputs": [],
      "stateMutability": "nonpayable",
      "type": "function"
    },
    {
      "inputs": [
        {
          "internalType": "address",
          "name": "_userAddress",
          "type": "address"
        }
      ],
      "name": "addUserToWhitelist",
      "outputs": [],
      "stateMutability": "nonpayable",
      "type": "function"
    },
    {
      "inputs": [
        {
          "internalType": "uint256",
          "name": "",
          "type": "uint256"
        }
      ],
      "name": "allowedTokens",
      "outputs": [
        {
          "internalType": "address",
          "name": "",
          "type": "address"
        }
      ],
      "stateMutability": "view",
      "type": "function"
    },
    {
      "inputs": [],
      "name": "creationBlockNumber",
      "outputs": [
        {
          "internalType": "uint256",
          "name": "",
          "type": "uint256"
        }
      ],
      "stateMutability": "view",
      "type": "function"
    },
    {
      "inputs": [],
      "name": "cumulatedDevaluation",
      "outputs": [
        {
          "internalType": "uint256",
          "name": "",
          "type": "uint256"
        }
      ],
      "stateMutability": "view",
      "type": "function"
    },
    {
      "inputs": [],
      "name": "cumulatedDevaluationPrecision",
      "outputs": [
        {
          "internalType": "uint256",
          "name": "",
          "type": "uint256"
        }
      ],
      "stateMutability": "view",
      "type": "function"
    },
    {
      "inputs": [
        {
          "internalType": "address",
          "name": "",
          "type": "address"
        }
      ],
      "name": "dpTokenRegistry",
      "outputs": [
        {
          "internalType": "contract ERC20PresetMinterPauser",
          "name": "",
          "type": "address"
        }
      ],
      "stateMutability": "view",
      "type": "function"
    },
    {
      "inputs": [],
      "name": "dslaTokenAddress",
      "outputs": [
        {
          "internalType": "address",
          "name": "",
          "type": "address"
        }
      ],
      "stateMutability": "view",
      "type": "function"
    },
    {
      "inputs": [
        {
          "internalType": "address",
          "name": "",
          "type": "address"
        }
      ],
      "name": "duTokenRegistry",
      "outputs": [
        {
          "internalType": "contract ERC20PresetMinterPauser",
          "name": "",
          "type": "address"
        }
      ],
      "stateMutability": "view",
      "type": "function"
    },
    {
      "inputs": [
        {
          "internalType": "uint256",
          "name": "",
          "type": "uint256"
        }
      ],
      "name": "extraData",
      "outputs": [
        {
          "internalType": "bytes32",
          "name": "",
          "type": "bytes32"
        }
      ],
      "stateMutability": "view",
      "type": "function"
    },
    {
      "inputs": [],
      "name": "getAllowedTokensLength",
      "outputs": [
        {
          "internalType": "uint256",
          "name": "",
          "type": "uint256"
        }
      ],
      "stateMutability": "view",
      "type": "function"
    },
    {
      "inputs": [
        {
          "internalType": "address",
          "name": "_staker",
          "type": "address"
        },
        {
          "internalType": "uint256",
          "name": "_allowedTokenIndex",
          "type": "uint256"
        }
      ],
      "name": "getTokenStake",
      "outputs": [
        {
          "internalType": "address",
          "name": "tokenAddress",
          "type": "address"
        },
        {
          "internalType": "uint256",
          "name": "stake",
          "type": "uint256"
        }
      ],
      "stateMutability": "view",
      "type": "function"
    },
    {
      "inputs": [],
      "name": "ipfsHash",
      "outputs": [
        {
          "internalType": "string",
          "name": "",
          "type": "string"
        }
      ],
      "stateMutability": "view",
      "type": "function"
    },
    {
      "inputs": [
        {
          "internalType": "address",
          "name": "_tokenAddress",
          "type": "address"
        }
      ],
      "name": "isAllowedToken",
      "outputs": [
        {
          "internalType": "bool",
          "name": "",
          "type": "bool"
        }
      ],
      "stateMutability": "view",
      "type": "function"
    },
    {
      "inputs": [
        {
          "internalType": "address",
          "name": "_staker",
          "type": "address"
        }
      ],
      "name": "isStaker",
      "outputs": [
        {
          "internalType": "bool",
          "name": "",
          "type": "bool"
        }
      ],
      "stateMutability": "view",
      "type": "function"
    },
    {
      "inputs": [],
      "name": "messengerAddress",
      "outputs": [
        {
          "internalType": "address",
          "name": "",
          "type": "address"
        }
      ],
      "stateMutability": "view",
      "type": "function"
    },
    {
      "inputs": [],
      "name": "nextVerifiablePeriod",
      "outputs": [
        {
          "internalType": "uint256",
          "name": "",
          "type": "uint256"
        }
      ],
      "stateMutability": "view",
      "type": "function"
    },
    {
      "inputs": [],
      "name": "owner",
      "outputs": [
        {
          "internalType": "address",
          "name": "",
          "type": "address"
        }
      ],
      "stateMutability": "view",
      "type": "function"
    },
    {
      "inputs": [
        {
          "internalType": "uint256",
          "name": "",
          "type": "uint256"
        }
      ],
      "name": "periodIds",
      "outputs": [
        {
          "internalType": "uint256",
          "name": "",
          "type": "uint256"
        }
      ],
      "stateMutability": "view",
      "type": "function"
    },
    {
      "inputs": [],
      "name": "periodRegistry",
      "outputs": [
        {
          "internalType": "contract PeriodRegistry",
          "name": "",
          "type": "address"
        }
      ],
      "stateMutability": "view",
      "type": "function"
    },
    {
      "inputs": [
        {
          "internalType": "uint256",
          "name": "",
          "type": "uint256"
        }
      ],
      "name": "periodSLIs",
      "outputs": [
        {
          "internalType": "uint256",
          "name": "timestamp",
          "type": "uint256"
        },
        {
          "internalType": "uint256",
          "name": "sli",
          "type": "uint256"
        },
        {
          "internalType": "enum SLA.Status",
          "name": "status",
          "type": "uint8"
        }
      ],
      "stateMutability": "view",
      "type": "function"
    },
    {
      "inputs": [],
      "name": "periodType",
      "outputs": [
        {
          "internalType": "enum PeriodRegistry.PeriodType",
          "name": "",
          "type": "uint8"
        }
      ],
      "stateMutability": "view",
      "type": "function"
    },
    {
      "inputs": [
        {
          "internalType": "address",
          "name": "",
          "type": "address"
        }
      ],
      "name": "providerPool",
      "outputs": [
        {
          "internalType": "uint256",
          "name": "",
          "type": "uint256"
        }
      ],
      "stateMutability": "view",
      "type": "function"
    },
    {
      "inputs": [
        {
          "internalType": "address",
          "name": "_userAddress",
          "type": "address"
        }
      ],
      "name": "removeUserFromWhitelist",
      "outputs": [],
      "stateMutability": "nonpayable",
      "type": "function"
    },
    {
      "inputs": [],
      "name": "renounceOwnership",
      "outputs": [],
      "stateMutability": "nonpayable",
      "type": "function"
    },
    {
      "inputs": [],
      "name": "slaID",
      "outputs": [
        {
          "internalType": "uint256",
          "name": "",
          "type": "uint256"
        }
      ],
      "stateMutability": "view",
      "type": "function"
    },
    {
      "inputs": [],
      "name": "slaPeriodsLength",
      "outputs": [
        {
          "internalType": "uint256",
          "name": "",
          "type": "uint256"
        }
      ],
      "stateMutability": "view",
      "type": "function"
    },
    {
      "inputs": [],
      "name": "slaRegistry",
      "outputs": [
        {
          "internalType": "contract SLARegistry",
          "name": "",
          "type": "address"
        }
      ],
      "stateMutability": "view",
      "type": "function"
    },
    {
      "inputs": [],
      "name": "slo",
      "outputs": [
        {
          "internalType": "contract SLO",
          "name": "",
          "type": "address"
        }
      ],
      "stateMutability": "view",
      "type": "function"
    },
    {
      "inputs": [
        {
          "internalType": "uint256",
          "name": "",
          "type": "uint256"
        }
      ],
      "name": "stakers",
      "outputs": [
        {
          "internalType": "address",
          "name": "",
          "type": "address"
        }
      ],
      "stateMutability": "view",
      "type": "function"
    },
    {
      "inputs": [
        {
          "internalType": "address",
          "name": "newOwner",
          "type": "address"
        }
      ],
      "name": "transferOwnership",
      "outputs": [],
      "stateMutability": "nonpayable",
      "type": "function"
    },
    {
      "inputs": [
        {
          "internalType": "address",
          "name": "",
          "type": "address"
        }
      ],
      "name": "usersPool",
      "outputs": [
        {
          "internalType": "uint256",
          "name": "",
          "type": "uint256"
        }
      ],
      "stateMutability": "view",
      "type": "function"
    },
    {
      "inputs": [
        {
          "internalType": "address",
          "name": "",
          "type": "address"
        }
      ],
      "name": "whitelist",
      "outputs": [
        {
          "internalType": "bool",
          "name": "",
          "type": "bool"
        }
      ],
      "stateMutability": "view",
      "type": "function"
    },
    {
      "inputs": [],
      "name": "whitelistedContract",
      "outputs": [
        {
          "internalType": "bool",
          "name": "",
          "type": "bool"
        }
      ],
      "stateMutability": "view",
      "type": "function"
    },
    {
      "inputs": [
        {
          "internalType": "uint256",
          "name": "_sli",
          "type": "uint256"
        },
        {
          "internalType": "uint256",
          "name": "_periodId",
          "type": "uint256"
        }
      ],
      "name": "registerSLI",
      "outputs": [],
      "stateMutability": "nonpayable",
      "type": "function"
    },
    {
      "inputs": [
        {
          "internalType": "uint256",
          "name": "_periodId",
          "type": "uint256"
        }
      ],
      "name": "isAllowedPeriod",
      "outputs": [
        {
          "internalType": "bool",
          "name": "",
          "type": "bool"
        }
      ],
      "stateMutability": "view",
      "type": "function"
    },
    {
      "inputs": [
        {
          "internalType": "uint256",
          "name": "_amount",
          "type": "uint256"
        },
        {
          "internalType": "address",
          "name": "_token",
          "type": "address"
        }
      ],
      "name": "stakeTokens",
      "outputs": [],
      "stateMutability": "nonpayable",
      "type": "function"
    },
    {
      "inputs": [
        {
          "internalType": "uint256",
          "name": "_amount",
          "type": "uint256"
        },
        {
          "internalType": "address",
          "name": "_tokenAddress",
          "type": "address"
        }
      ],
      "name": "withdrawProviderTokens",
      "outputs": [],
      "stateMutability": "nonpayable",
      "type": "function"
    },
    {
      "inputs": [
        {
          "internalType": "uint256",
          "name": "_amount",
          "type": "uint256"
        },
        {
          "internalType": "address",
          "name": "_tokenAddress",
          "type": "address"
        }
      ],
      "name": "withdrawUserTokens",
      "outputs": [],
      "stateMutability": "nonpayable",
      "type": "function"
    },
    {
      "inputs": [
        {
          "internalType": "address",
          "name": "_tokenAddress",
          "type": "address"
        }
      ],
      "name": "claimUserCompensation",
      "outputs": [],
      "stateMutability": "nonpayable",
      "type": "function"
    },
    {
      "inputs": [],
      "name": "getPeriodIdsLength",
      "outputs": [
        {
          "internalType": "uint256",
          "name": "",
          "type": "uint256"
        }
      ],
      "stateMutability": "view",
      "type": "function"
    },
    {
      "inputs": [],
      "name": "getStakersLength",
      "outputs": [
        {
          "internalType": "uint256",
          "name": "",
          "type": "uint256"
        }
      ],
      "stateMutability": "view",
      "type": "function"
    },
    {
      "inputs": [],
      "name": "breachedContract",
      "outputs": [
        {
          "internalType": "bool",
          "name": "",
          "type": "bool"
        }
      ],
      "stateMutability": "view",
      "type": "function"
    }
  ],
  "bytecode": "0x6080604052620f424060088190556009556017805460ff60a01b191690553480156200002a57600080fd5b5060405162003cf338038062003cf38339810160408190526200004d91620006cb565b848487895186856000620000666200033f60201b60201c565b600080546001600160a01b0319166001600160a01b03831690811782556040519293509160008051602062003cd3833981519152908290a350600180546001600160a01b038089166001600160a01b03199283161783556002805491891691909216179055600e8054869260ff1990911690836005811115620000e557fe5b0217905550600f8390556010805460ff191683151517905560015460408051637b8041cf60e11b815290516000926001600160a01b03169163f700839e9160048083019260a0929190829003018186803b1580156200014357600080fd5b505afa15801562000158573d6000803e3d6000fd5b505050506040513d601f19601f820116820180604052508101906200017e9190620007fc565b505060015460408051638b8e530960e01b815290519495506001600160a01b0390911693638b8e5309935060048083019350602092829003018186803b158015620001c857600080fd5b505afa158015620001dd573d6000803e3d6000fd5b505050506040513d601f19601f82011682018060405250810190620002039190620006a5565b600b80546001600160a01b0319166001600160a01b0392909216919091179055600d819055620002333362000343565b50600355506200024a93508e925050620003e69050565b88516200025f9060139060208c019062000493565b50601780546001600160a01b03808b166001600160a01b03199283161790925560168054909116331790556014805491861661010002610100600160a81b0319909216919091179055436019558651620002c19060159060208a019062000518565b506014805487919060ff19166001836005811115620002dc57fe5b0217905550601280546001600160a01b0319166001600160a01b038c1617905581516200031190601a90602085019062000518565b50866000815181106200032057fe5b6020026020010151601b8190555050505050505050505050506200094e565b3390565b6200034d6200033f565b6000546001600160a01b03908116911614620003865760405162461bcd60e51b81526004016200037d90620008b9565b60405180910390fd5b6001600160a01b03811660009081526011602052604090205460ff1615620003c25760405162461bcd60e51b81526004016200037d906200083c565b6001600160a01b03166000908152601160205260409020805460ff19166001179055565b620003f06200033f565b6000546001600160a01b03908116911614620004205760405162461bcd60e51b81526004016200037d90620008b9565b6001600160a01b038116620004495760405162461bcd60e51b81526004016200037d9062000873565b600080546040516001600160a01b038085169392169160008051602062003cd383398151915291a3600080546001600160a01b0319166001600160a01b0392909216919091179055565b828054600181600116156101000203166002900490600052602060002090601f016020900481019282601f10620004d657805160ff191683800117855562000506565b8280016001018555821562000506579182015b8281111562000506578251825591602001919060010190620004e9565b506200051492915062000555565b5090565b82805482825590600052602060002090810192821562000506579160200282018281111562000506578251825591602001919060010190620004e9565b5b8082111562000514576000815560010162000556565b8051620005798162000935565b92915050565b600082601f83011262000590578081fd5b8151620005a7620005a18262000915565b620008ee565b818152915060208083019084810181840286018201871015620005c957600080fd5b60005b84811015620005ea57815184529282019290820190600101620005cc565b505050505092915050565b805180151581146200057957600080fd5b8051600681106200057957600080fd5b600082601f83011262000627578081fd5b81516001600160401b038111156200063d578182fd5b602062000653601f8301601f19168201620008ee565b925081835284818386010111156200066a57600080fd5b60005b828110156200068a5784810182015184820183015281016200066d565b828111156200069c5760008284860101525b50505092915050565b600060208284031215620006b7578081fd5b8151620006c48162000935565b9392505050565b60008060008060008060008060008060006101608c8e031215620006ed578687fd5b620006f98d8d6200056c565b9a506200070a8d60208e016200056c565b60408d0151909a506001600160401b0381111562000726578788fd5b620007348e828f0162000616565b995050620007468d60608e016200056c565b60808d01519098506001600160401b0381111562000762578788fd5b620007708e828f016200057f565b975050620007828d60a08e0162000606565b9550620007938d60c08e016200056c565b9450620007a48d60e08e016200056c565b9350620007b68d6101008e01620005f5565b6101208d01519093506001600160401b03811115620007d3578283fd5b620007e18e828f016200057f565b9250506101408c015190509295989b509295989b9093969950565b600080600080600060a0868803121562000814578081fd5b5050835160208501516040860151606087015160809097015192989197509594509092509050565b60208082526018908201527f5573657220616c72656164792077686974656c69737465640000000000000000604082015260600190565b60208082526026908201527f4f776e61626c653a206e6577206f776e657220697320746865207a65726f206160408201526564647265737360d01b606082015260800190565b6020808252818101527f4f776e61626c653a2063616c6c6572206973206e6f7420746865206f776e6572604082015260600190565b6040518181016001600160401b03811182821017156200090d57600080fd5b604052919050565b60006001600160401b038211156200092b578081fd5b5060209081020190565b6001600160a01b03811681146200094b57600080fd5b50565b613375806200095e6000396000f3fe608060405234801561001057600080fd5b506004361061027f5760003560e01c8063747b80501161015c578063c623674f116100ce578063ee6226c111610087578063ee6226c11461050c578063f2db10fe14610514578063f2fde38b1461051c578063f7e9dfff1461052f578063f9902bb114610537578063fd5e6dd11461054a5761027f565b8063c623674f146104ae578063c8b5c248146104c3578063cbe230c3146104d6578063cd92890e146104e9578063d7a5c422146104f1578063db69a462146105045761027f565b80639b19251a116101205780639b19251a146104735780639fabeb00146104865780639fc4caa51461048e578063a224ee9c14610496578063b1659bad1461049e578063b7bc347e146104a65761027f565b8063747b80501461043557806378025ec4146104485780637fd788aa1461045b5780638d4f567d146104635780638da5cb5b1461046b5761027f565b8063484fbf2b116101f55780635c1c20de116101b95780635c1c20de146103e45780635e5f2e26146103ec5780635fc1b5fd146103ff578063639b6fc3146104075780636f1e85331461041a578063715018a61461042d5761027f565b8063484fbf2b1461036a5780634e0c91f61461037d5780634fb2647e1461039d578063524f0735146103b057806357ac94f0146103c35761027f565b806318e454271161024757806318e45427146102fd5780631bf30929146103055780631fc2cd931461030d57806326db18ac146103205780634190edde1461033357806346e0fbae146103555761027f565b8063021eef7f146102845780630ae9ea45146102ad5780630bea440d146102cd5780630c5160f4146102e2578063171e44ea146102ea575b600080fd5b610297610292366004612a80565b61055d565b6040516102a49190612cd9565b60405180910390f35b6102c06102bb366004612a80565b6105a7565b6040516102a49190612ce4565b6102e06102db366004612ab0565b6105c5565b005b6102c061081f565b6102e06102f8366004612962565b610825565b610297610bee565b6102c0610bf7565b6102e061031b366004612962565b610bfd565b6102e061032e366004612ab0565b610e5c565b610346610341366004612a80565b610fc1565b6040516102a4939291906132c2565b61035d610fe5565b6040516102a49190612ced565b6102c0610378366004612962565b610fee565b61039061038b366004612962565b611000565b6040516102a49190612c88565b6103906103ab366004612962565b61101b565b6102e06103be366004612962565b611036565b6103d66103d136600461299a565b611042565b6040516102a4929190612c9c565b6102c0611222565b6103906103fa366004612a80565b611228565b6102c061124f565b6102c0610415366004612962565b611255565b610297610428366004612962565b611267565b6102e06112b9565b6102e0610443366004612962565b611338565b6102c0610456366004612a80565b6113ca565b6102976113d7565b6102c06113e7565b6103906113ed565b610297610481366004612962565b6113fc565b6102c0611411565b610390611417565b61039061142b565b6102c061143a565b6102c0611440565b6104b6611446565b6040516102a49190612d16565b6102e06104d1366004612ab0565b6114d4565b6102976104e4366004612962565b611608565b61039061165a565b6102e06104ff366004612adf565b611669565b6103906118fb565b6102c061190a565b6102c0611910565b6102e061052a366004612962565b611916565b6103906119cc565b6102e0610545366004612962565b6119db565b610390610558366004612a80565b611a6e565b6000805b60155481101561059c57826015828154811061057957fe5b906000526020600020015414156105945760019150506105a2565b600101610561565b50600090505b919050565b601581815481106105b457fe5b600091825260209091200154905081565b600082116105ee5760405162461bcd60e51b81526004016105e590613182565b60405180910390fd5b6015805460009190600019810190811061060457fe5b600091825260208220015460145460405160016259edcb60e01b031981529193506001600160a01b036101008204169163ffa612359161064e9160ff909116908690600401612cfb565b604080518083038186803b15801561066557600080fd5b505afa158015610679573d6000803e3d6000fd5b505050506040513d601f19601f8201168201806040525081019061069d9190612b00565b9150506000601760149054906101000a900460ff1615156001151514806106ee57508142101580156106ee5750600083815260186020526040812060029081015460ff16908111156106eb57fe5b14155b9050801561070e5760405162461bcd60e51b81526004016105e590612fee565b6107188585611a7b565b60165460408051636830483560e01b815290516000926001600160a01b0316916368304835916004808301926020929190829003018186803b15801561075d57600080fd5b505afa158015610771573d6000803e3d6000fd5b505050506040513d601f19601f82011682018060405250810190610795919061297e565b604051635948284760e11b81529091506001600160a01b0382169063b290508e906107c4903390600401612c88565b602060405180830381600087803b1580156107de57600080fd5b505af11580156107f2573d6000803e3d6000fd5b505050506040513d601f19601f8201168201806040525081019061081691906129c5565b50505050505050565b600f5481565b61082d611e5b565b6000546001600160a01b0390811691161461085a5760405162461bcd60e51b81526004016105e5906130e9565b61086381611608565b156108805760405162461bcd60e51b81526004016105e59061311e565b60015460405163cbe230c360e01b81526001600160a01b039091169063cbe230c3906108b0908490600401612c88565b60206040518083038186803b1580156108c857600080fd5b505afa1580156108dc573d6000803e3d6000fd5b505050506040513d601f19601f8201168201806040525081019061090091906129c5565b15156001146109215760405162461bcd60e51b81526004016105e590612e85565b600c80546001810182556000919091527fdf6966c971051c3d54ec59162606531493a51404a002842f56009d7e5cf4a8c70180546001600160a01b0319166001600160a01b03831617905560035460609061097b90611e5f565b90506060826001600160a01b03166395d89b416040518163ffffffff1660e01b815260040160006040518083038186803b1580156109b857600080fd5b505afa1580156109cc573d6000803e3d6000fd5b505050506040513d6000823e601f3d908101601f191682016040526109f491908101906129e5565b905060608183604051602001610a0b929190612c36565b604051602081830303815290604052905060608284604051602001610a31929190612b79565b604051602081830303815290604052905060608385604051602001610a57929190612bc3565b604051602081830303815290604052905060608486604051602001610a7d929190612c19565b60408051601f1981840301815290829052600154633350214760e11b83529092506000916001600160a01b03909116906366a0428e90610ac39088908890600401612d29565b602060405180830381600087803b158015610add57600080fd5b505af1158015610af1573d6000803e3d6000fd5b505050506040513d601f19601f82011682018060405250810190610b15919061297e565b600154604051633350214760e11b81529192506000916001600160a01b03909116906366a0428e90610b4d9087908790600401612d29565b602060405180830381600087803b158015610b6757600080fd5b505af1158015610b7b573d6000803e3d6000fd5b505050506040513d601f19601f82011682018060405250810190610b9f919061297e565b6001600160a01b03998a1660009081526007602090815260408083208054948e166001600160a01b031995861617905560069091529020805493909a1692169190911790975550505050505050565b60105460ff1681565b60195481565b610c056113ed565b6001600160a01b0316336001600160a01b03161415610c365760405162461bcd60e51b81526004016105e59061326f565b60105460ff16151560011415610c7a573360009081526011602052604090205460ff161515600114610c7a5760405162461bcd60e51b81526004016105e590612f74565b6001600160a01b038082166000908152600660205260408082205490516370a0823160e01b815292169182906370a0823190610cba903390600401612c88565b60206040518083038186803b158015610cd257600080fd5b505afa158015610ce6573d6000803e3d6000fd5b505050506040513d601f19601f82011682018060405250810190610d0a9190612a98565b90506000826001600160a01b03166318160ddd6040518163ffffffff1660e01b815260040160206040518083038186803b158015610d4757600080fd5b505afa158015610d5b573d6000803e3d6000fd5b505050506040513d601f19601f82011682018060405250810190610d7f9190612a98565b905061271082610da15760405162461bcd60e51b81526004016105e590612f17565b6000610db783610db18685611f3a565b90611f7d565b6001600160a01b03871660009081526005602052604081205491925090610de4908490610db19085611f3a565b60405163079cc67960e41b81529091506001600160a01b038716906379cc679090610e159033908990600401612c9c565b600060405180830381600087803b158015610e2f57600080fd5b505af1158015610e43573d6000803e3d6000fd5b50610816925050506001600160a01b0388163383611fbf565b60008211610e7c5760405162461bcd60e51b81526004016105e590613182565b60158054600091906000198101908110610e9257fe5b600091825260208220015460145460405160016259edcb60e01b031981529193506001600160a01b036101008204169163ffa6123591610edc9160ff909116908690600401612cfb565b604080518083038186803b158015610ef357600080fd5b505afa158015610f07573d6000803e3d6000fd5b505050506040513d601f19601f82011682018060405250810190610f2b9190612b00565b915050610f366113ed565b6001600160a01b0316336001600160a01b031614610fb157601754600160a01b900460ff16151560011480610f955750804210158015610f955750600082815260186020526040812060029081015460ff1690811115610f9257fe5b14155b610fb15760405162461bcd60e51b81526004016105e590612d89565b610fbb8484612015565b50505050565b60186020526000908152604090208054600182015460029092015490919060ff1683565b60145460ff1681565b60056020526000908152604090205481565b6006602052600090815260409020546001600160a01b031681565b6007602052600090815260409020546001600160a01b031681565b61103f81610bfd565b50565b6000806000600c848154811061105457fe5b6000918252602090912001546001600160a01b031690506110736113ed565b6001600160a01b0316856001600160a01b031614156110af576001600160a01b038116600090815260046020526040902054909250905061121b565b6001600160a01b0380821660009081526006602090815260408083205481516318160ddd60e01b8152915194169384926318160ddd9260048082019391829003018186803b15801561110057600080fd5b505afa158015611114573d6000803e3d6000fd5b505050506040513d601f19601f820116820180604052508101906111389190612a98565b90508061114e578260009450945050505061121b565b6040516370a0823160e01b81526000906001600160a01b038416906370a082319061117d908b90600401612c88565b60206040518083038186803b15801561119557600080fd5b505afa1580156111a9573d6000803e3d6000fd5b505050506040513d601f19601f820116820180604052508101906111cd9190612a98565b905061271060006111e284610db18585611f3a565b6001600160a01b0387166000908152600560205260409020549091508690611210908490610db19085611f3a565b975097505050505050505b9250929050565b600d5481565b600c818154811061123557fe5b6000918252602090912001546001600160a01b0316905081565b60155490565b60046020526000908152604090205481565b6000805b600a5481101561059c57826001600160a01b0316600a828154811061128c57fe5b6000918252602090912001546001600160a01b031614156112b15760019150506105a2565b60010161126b565b6112c1611e5b565b6000546001600160a01b039081169116146112ee5760405162461bcd60e51b81526004016105e5906130e9565b600080546040516001600160a01b03909116907f8be0079c531659141344cd1fd0a4f28419497f9722a3daafe3b4186f6b6457e0908390a3600080546001600160a01b0319169055565b611340611e5b565b6000546001600160a01b0390811691161461136d5760405162461bcd60e51b81526004016105e5906130e9565b6001600160a01b03811660009081526011602052604090205460ff16156113a65760405162461bcd60e51b81526004016105e590612d57565b6001600160a01b03166000908152601160205260409020805460ff19166001179055565b601a81815481106105b457fe5b601754600160a01b900460ff1690565b60085481565b6000546001600160a01b031690565b60116020526000908152604090205460ff1681565b600a5490565b60145461010090046001600160a01b031681565b6017546001600160a01b031681565b601b5481565b600c5490565b6013805460408051602060026001851615610100026000190190941693909304601f810184900484028201840190925281815292918301828280156114cc5780601f106114a1576101008083540402835291602001916114cc565b820191906000526020600020905b8154815290600101906020018083116114af57829003601f168201915b505050505081565b600082116114f45760405162461bcd60e51b81526004016105e590613182565b6015805460009190600019810190811061150a57fe5b600091825260208220015460145460405160016259edcb60e01b031981529193506001600160a01b036101008204169163ffa61235916115549160ff909116908690600401612cfb565b604080518083038186803b15801561156b57600080fd5b505afa15801561157f573d6000803e3d6000fd5b505050506040513d601f19601f820116820180604052508101906115a39190612b00565b9150506000601760149054906101000a900460ff1615156001151514806115f457508142101580156115f45750600083815260186020526040812060029081015460ff16908111156115f157fe5b14155b90506116018585836121a0565b5050505050565b6000805b600c5481101561059c57826001600160a01b0316600c828154811061162d57fe5b6000918252602090912001546001600160a01b031614156116525760019150506105a2565b60010161160c565b6012546001600160a01b031681565b6017546001600160a01b031633146116935760405162461bcd60e51b81526004016105e590612ed2565b7fc95987c1992805ee34bdc915e017cceae36ba1c156b9911fa7e691e6435eb46e4283836040516116c6939291906132e8565b60405180910390a16001808201601b5560008281526018602090815260408083209384018690554284556012548151633fa4f24560e01b815291516001600160a01b0390911692633fa4f2459260048082019391829003018186803b15801561172e57600080fd5b505afa158015611742573d6000803e3d6000fd5b505050506040513d601f19601f820116820180604052508101906117669190612a98565b6012546040516303c8f2e360e21b81529192506001600160a01b031690630f23cb8c90611797908790600401612ce4565b60206040518083038186803b1580156117af57600080fd5b505afa1580156117c3573d6000803e3d6000fd5b505050506040513d601f19601f820116820180604052508101906117e791906129c5565b15611890576002828101805460ff19166001179055612710906000906118299061181590610db1898761238a565b610db1846118238a886123af565b90611f3a565b90506000611863600161185d601560008154811061184357fe5b9060005260206000200154896123af90919063ffffffff16565b9061238a565b60155490915060009061187a90610db18585611f3a565b90506118878782866123f1565b50505050610fbb565b6002828101805460ff191690911790556118a8612557565b6017805460ff60a01b1916600160a01b1790556040517fbd33f7a3bfa88a467c9df5ae7d2341cf061084c386b20a0d48130f5cbce38a4d906118ed90859087906132b4565b60405180910390a150505050565b6016546001600160a01b031681565b60095481565b60035481565b61191e611e5b565b6000546001600160a01b0390811691161461194b5760405162461bcd60e51b81526004016105e5906130e9565b6001600160a01b0381166119715760405162461bcd60e51b81526004016105e590612e08565b600080546040516001600160a01b03808516939216917f8be0079c531659141344cd1fd0a4f28419497f9722a3daafe3b4186f6b6457e091a3600080546001600160a01b0319166001600160a01b0392909216919091179055565b600b546001600160a01b031681565b6119e3611e5b565b6000546001600160a01b03908116911614611a105760405162461bcd60e51b81526004016105e5906130e9565b6001600160a01b03811660009081526011602052604090205460ff161515600114611a4d5760405162461bcd60e51b81526004016105e5906131ae565b6001600160a01b03166000908152601160205260409020805460ff19169055565b600a818154811061123557fe5b80611a8581611608565b1515600114611aa65760405162461bcd60e51b81526004016105e5906130bb565b60105460ff16151560011415611aea573360009081526011602052604090205460ff161515600114611aea5760405162461bcd60e51b81526004016105e590612f74565b611aff6001600160a01b03831633308661263c565b611b076113ed565b6001600160a01b0316336001600160a01b031614611c42576001600160a01b03821660009081526004602090815260408083205460059092529091205481611b4f828761238a565b1115611b6d5760405162461bcd60e51b81526004016105e5906131dc565b6001600160a01b038416600090815260056020526040902054611b90908661238a565b6001600160a01b038516600090815260056020526040812091909155600854600954611bc29190610db1908990611f3a565b6001600160a01b03808716600090815260066020526040908190205490516340c10f1960e01b8152929350169081906340c10f1990611c079033908690600401612c9c565b600060405180830381600087803b158015611c2157600080fd5b505af1158015611c35573d6000803e3d6000fd5b5050505050505050611e06565b6001600160a01b0380831660009081526007602090815260408083205481516318160ddd60e01b8152915194169384926318160ddd9260048082019391829003018186803b158015611c9357600080fd5b505afa158015611ca7573d6000803e3d6000fd5b505050506040513d601f19601f82011682018060405250810190611ccb9190612a98565b6001600160a01b03851660009081526004602052604090205490915081611d51576040516340c10f1960e01b81526001600160a01b038416906340c10f1990611d1a9033908a90600401612c9c565b600060405180830381600087803b158015611d3457600080fd5b505af1158015611d48573d6000803e3d6000fd5b50505050611dc6565b6000611d6182610db18986611f3a565b6040516340c10f1960e01b81529091506001600160a01b038516906340c10f1990611d929033908590600401612c9c565b600060405180830381600087803b158015611dac57600080fd5b505af1158015611dc0573d6000803e3d6000fd5b50505050505b6001600160a01b038516600090815260046020526040902054611de9908761238a565b6001600160a01b0386166000908152600460205260409020555050505b611e0f33611267565b611e5657600a80546001810182556000919091527fc65a7bb8d6351c1cf70c95a316cc6a92839c986682d98bc35f958f4883f9d2a80180546001600160a01b031916331790555b505050565b3390565b60608180611e865750506040805180820190915260018152600360fc1b60208201526105a2565b8060005b8115611e9e57600101600a82049150611e8a565b60608167ffffffffffffffff81118015611eb757600080fd5b506040519080825280601f01601f191660200182016040528015611ee2576020820181803683370190505b50905060001982015b8415611f3057600a850660300160f81b82828060019003935081518110611f0e57fe5b60200101906001600160f81b031916908160001a905350600a85049450611eeb565b5095945050505050565b600082611f4957506000611f77565b82820282848281611f5657fe5b0414611f745760405162461bcd60e51b81526004016105e59061307a565b90505b92915050565b6000611f7483836040518060400160405280601a81526020017f536166654d6174683a206469766973696f6e206279207a65726f00000000000081525061265d565b611e568363a9059cbb60e01b8484604051602401611fde929190612c9c565b60408051601f198184030181529190526020810180516001600160e01b03166001600160e01b031990931692909217909152612694565b8061201f81611608565b15156001146120405760405162461bcd60e51b81526004016105e5906130bb565b6001600160a01b0380831660009081526006602090815260408083205481516318160ddd60e01b8152915194169384926318160ddd9260048082019391829003018186803b15801561209157600080fd5b505afa1580156120a5573d6000803e3d6000fd5b505050506040513d601f19601f820116820180604052508101906120c99190612a98565b6001600160a01b0385166000908152600560205260408120549192506120f382610db18986611f3a565b60405163079cc67960e41b81529091506001600160a01b038516906379cc6790906121249033908590600401612c9c565b600060405180830381600087803b15801561213e57600080fd5b505af1158015612152573d6000803e3d6000fd5b5050506001600160a01b0387166000908152600560205260409020546121799150886123af565b6001600160a01b038716600081815260056020526040902091909155610816903389611fbf565b816121aa81611608565b15156001146121cb5760405162461bcd60e51b81526004016105e5906130bb565b6001600160a01b0383166000908152600460209081526040808320546005909252909120548361221e578061220083886123af565b101561221e5760405162461bcd60e51b81526004016105e590612fa5565b6001600160a01b0380861660009081526007602090815260408083205481516318160ddd60e01b8152915194169384926318160ddd9260048082019391829003018186803b15801561226f57600080fd5b505afa158015612283573d6000803e3d6000fd5b505050506040513d601f19601f820116820180604052508101906122a79190612a98565b6001600160a01b0388166000908152600460205260408120549192506122d182610db18c86611f3a565b60405163079cc67960e41b81529091506001600160a01b038516906379cc6790906123029033908590600401612c9c565b600060405180830381600087803b15801561231c57600080fd5b505af1158015612330573d6000803e3d6000fd5b5050506001600160a01b038a1660009081526004602052604090205461235791508b6123af565b6001600160a01b038a1660008181526004602052604090209190915561237e90338c611fbf565b50505050505050505050565b600082820183811015611f745760405162461bcd60e51b81526004016105e590612e4e565b6000611f7483836040518060400160405280601e81526020017f536166654d6174683a207375627472616374696f6e206f766572666c6f770000815250612723565b60005b600c54811015612534576000600c828154811061240d57fe5b60009182526020808320909101546001600160a01b0316808352600590915260408220549092509061244385610db18489611f3a565b6001600160a01b03841660009081526005602052604090205490915061246990826123af565b6001600160a01b03808516600081815260056020526040902092909255600b541614156124ab57600061249b8261274f565b90506124a782826123af565b9150505b6001600160a01b0383166000908152600460205260409020546124ce908261238a565b6001600160a01b0384166000818152600460205260409081902092909255905188907f3173c1c4b679e2da86dbb0382bde749a6e16cd31912c5410e17985cd7d2b905290612521908a908a9087906132e8565b60405180910390a35050506001016123f4565b5061254f81610db161254682866123af565b60085490611f3a565b600855505050565b60005b600c5481101561103f576000600c828154811061257357fe5b60009182526020808320909101546001600160a01b0316808352600582526040808420546004909352909220549192509081906125b090826123af565b6001600160a01b03808516600081815260046020526040902092909255600b541614156125f25760006125e28261274f565b90506125ee82826123af565b9150505b6001600160a01b038316600090815260056020526040902054612615908261238a565b6001600160a01b03909316600090815260056020526040902092909255505060010161255a565b610fbb846323b872dd60e01b858585604051602401611fde93929190612cb5565b6000818361267e5760405162461bcd60e51b81526004016105e59190612d16565b50600083858161268a57fe5b0495945050505050565b60606126e9826040518060400160405280602081526020017f5361666545524332303a206c6f772d6c6576656c2063616c6c206661696c6564815250856001600160a01b03166128819092919063ffffffff16565b805190915015611e56578080602001905181019061270791906129c5565b611e565760405162461bcd60e51b81526004016105e590613225565b600081848411156127475760405162461bcd60e51b81526004016105e59190612d16565b505050900390565b60408051808201909152600d8082526c6275726e2875696e743235362960981b602090920191909152546000907f42966c689b5afe9b9b3f8a7103b2a19980d59629bfd6a20a60972312ed41d836906127b1906103e890610db1908690611f3a565b600b546040519193506000916001600160a01b039091169083906127d9908690602401612ce4565b60408051601f198184030181529181526020820180516001600160e01b03166001600160e01b03199094169390931790925290516128179190612b5d565b6000604051808303816000865af19150503d8060008114612854576040519150601f19603f3d011682016040523d82523d6000602084013e612859565b606091505b505090508061287a5760405162461bcd60e51b81526004016105e590613036565b5050919050565b60606128908484600085612898565b949350505050565b60606128a38561295c565b6128bf5760405162461bcd60e51b81526004016105e59061314b565b60006060866001600160a01b031685876040516128dc9190612b5d565b60006040518083038185875af1925050503d8060008114612919576040519150601f19603f3d011682016040523d82523d6000602084013e61291e565b606091505b509150915081156129325791506128909050565b8051156129425780518082602001fd5b8360405162461bcd60e51b81526004016105e59190612d16565b3b151590565b600060208284031215612973578081fd5b8135611f748161332a565b60006020828403121561298f578081fd5b8151611f748161332a565b600080604083850312156129ac578081fd5b82356129b78161332a565b946020939093013593505050565b6000602082840312156129d6578081fd5b81518015158114611f74578182fd5b6000602082840312156129f6578081fd5b815167ffffffffffffffff80821115612a0d578283fd5b818401915084601f830112612a20578283fd5b815181811115612a2e578384fd5b604051601f8201601f191681016020018381118282101715612a4e578586fd5b604052818152838201602001871015612a65578485fd5b612a768260208301602087016132fe565b9695505050505050565b600060208284031215612a91578081fd5b5035919050565b600060208284031215612aa9578081fd5b5051919050565b60008060408385031215612ac2578182fd5b823591506020830135612ad48161332a565b809150509250929050565b60008060408385031215612af1578182fd5b50508035926020909101359150565b60008060408385031215612b12578182fd5b505080516020909101519092909150565b60068110612b2d57fe5b9052565b60008151808452612b498160208601602086016132fe565b601f01601f19169290920160200192915050565b60008251612b6f8184602087016132fe565b9190910192915050565b600061647560f01b82528351612b968160028501602088016132fe565b602d60f81b6002918401918201528351612bb78160038401602088016132fe565b01600301949350505050565b60006d44534c412d50524f56494445522d60901b82528351612bec81600e8501602088016132fe565b602d60f81b600e918401918201528351612c0d81600f8401602088016132fe565b01600f01949350505050565b600061064760f41b82528351612b968160028501602088016132fe565b60006944534c412d555345522d60b01b82528351612c5b81600a8501602088016132fe565b602d60f81b600a918401918201528351612c7c81600b8401602088016132fe565b01600b01949350505050565b6001600160a01b0391909116815260200190565b6001600160a01b03929092168252602082015260400190565b6001600160a01b039384168152919092166020820152604081019190915260600190565b901515815260200190565b90815260200190565b60208101611f778284612b23565b60408101612d098285612b23565b8260208301529392505050565b600060208252611f746020830184612b31565b600060408252612d3c6040830185612b31565b8281036020840152612d4e8185612b31565b95945050505050565b602080825260189082015277155cd95c88185b1c9958591e481dda1a5d195b1a5cdd195960421b604082015260600190565b60208082526059908201527f43616e206f6e6c79207769746864726177207374616b6520616674657220746860408201527f652066696e616c20706572696f642069732066696e6973686564206f72206966606082015278081d1a194818dbdb9d1c9858dd081a5cc8189c995858da1959603a1b608082015260a00190565b60208082526026908201527f4f776e61626c653a206e6577206f776e657220697320746865207a65726f206160408201526564647265737360d01b606082015260800190565b6020808252601b908201527f536166654d6174683a206164646974696f6e206f766572666c6f770000000000604082015260600190565b6020808252602d908201527f546f6b656e206e6f7420616c6c6f7765642062792074686520534c415265676960408201526c1cdd1c9e4818dbdb9d1c9858dd609a1b606082015260800190565b60208082526025908201527f4f6e6c79204d657373656e6765722063616e2063616c6c20746869732066756e60408201526431ba34b7b760d91b606082015260800190565b6020808252603a908201527f43616e206f6e6c7920636c61696d206120636f6d70656e736174696f6e20696660408201527f20706f736974696f6e20697320626967676572207468616e2030000000000000606082015260800190565b602080825260179082015276155cd95c881a5cc81b9bdd081dda1a5d195b1a5cdd1959604a1b604082015260600190565b60208082526029908201527f53686f756c64206e6f74207769746864726177206d6f7265207468616e207573604082015268657273207374616b6560b81b606082015260800190565b60208082526028908201527f43616e206f6e6c79207374616b65206f6e206e6f742066696e697368656420636040820152676f6e74726163747360c01b606082015260800190565b60208082526024908201527f44534c41206275726e2070726f6365737320776173206e6f74207375636365736040820152631cd99d5b60e21b606082015260800190565b60208082526021908201527f536166654d6174683a206d756c7469706c69636174696f6e206f766572666c6f6040820152607760f81b606082015260800190565b6020808252601490820152731d1bdad95b881a5cc81b9bdd08185b1b1bddd95960621b604082015260600190565b6020808252818101527f4f776e61626c653a2063616c6c6572206973206e6f7420746865206f776e6572604082015260600190565b602080825260139082015272151bdad95b88185b1c9958591e481859191959606a1b604082015260600190565b6020808252601d908201527f416464726573733a2063616c6c20746f206e6f6e2d636f6e7472616374000000604082015260600190565b6020808252601290820152710616d6f756e742063616e6e6f7420626520360741b604082015260600190565b602080825260149082015273155cd95c881b9bdd081dda1a5d195b1a5cdd195960621b604082015260600190565b60208082526029908201527f43616e6e6f74207374616b65206d6f7265207468616e20534c412070726f7669604082015268646572207374616b6560b81b606082015260800190565b6020808252602a908201527f5361666545524332303a204552433230206f7065726174696f6e20646964206e6040820152691bdd081cdd58d8d9595960b21b606082015260800190565b60208082526025908201527f53686f756c64206e6f742062652063616c6c65642062792074686520534c412060408201526437bbb732b960d91b606082015260800190565b918252602082015260400190565b8381526020810183905260608101600383106132da57fe5b826040830152949350505050565b9283526020830191909152604082015260600190565b60005b83811015613319578181015183820152602001613301565b83811115610fbb5750506000910152565b6001600160a01b038116811461103f57600080fdfea2646970667358221220276c8e2a1670d13276fe78954fc3640cdcebd1871137fa15f49dee57b32fd93964736f6c634300060c00338be0079c531659141344cd1fd0a4f28419497f9722a3daafe3b4186f6b6457e0",
  "immutableReferences": {},
  "source": "// SPDX-License-Identifier: MIT\npragma solidity ^0.6.0;\npragma experimental ABIEncoderV2;\n\nimport \"@openzeppelin/contracts/access/Ownable.sol\";\nimport \"@openzeppelin/contracts/token/ERC20/IERC20.sol\";\nimport \"@openzeppelin/contracts/math/SafeMath.sol\";\nimport \"./SLO.sol\";\nimport \"./SLARegistry.sol\";\nimport \"./StakeRegistry.sol\";\nimport \"./PeriodRegistry.sol\";\nimport \"./Staking.sol\";\n\n/**\n * @title SLA\n * @dev SLA is a service level agreement contract used for service downtime\n * compensation\n */\ncontract SLA is Staking {\n    using SafeMath for uint256;\n\n    enum Status {NotVerified, Respected, NotRespected}\n\n    /// @dev Struct used for storing period status\n    struct PeriodSLI {\n        uint256 timestamp;\n        uint256 sli;\n        Status status;\n    }\n\n    /// @dev address of the SLO\n    SLO public slo;\n\n    /// @dev The ipfs hash that stores extra information about the agreement\n    string public ipfsHash;\n\n    /// @dev uint8 of the period type\n    PeriodRegistry.PeriodType public periodType;\n\n    PeriodRegistry public periodRegistry;\n\n    /// @dev array of he allowed canonical period ids\n    uint256[] public periodIds;\n\n    /// @dev The address of the slaRegistry contract\n    SLARegistry public slaRegistry;\n\n    /// @dev The address of the messenger\n    address public messengerAddress;\n\n    /// @dev states if the contract was breached or not\n    bool private _breachedContract = false;\n\n    /// @dev periodId=>PeriodSLI mapping\n    mapping(uint256 => PeriodSLI) public periodSLIs;\n\n    /// @dev block number of SLA deployment\n    uint256 public creationBlockNumber;\n\n    /// @dev extra data for customized workflows\n    bytes32[] public extraData;\n\n    /// @dev states if the contract was breached or not\n    uint256 public nextVerifiablePeriod;\n\n    /**\n     * @dev event for SLI creation logging\n     * @param timestamp 1. the time the SLI has been registered\n     * @param sli 2. the value of the SLI\n     * @param periodId 3. the id of the given period\n     */\n    event SLICreated(uint256 timestamp, uint256 sli, uint256 periodId);\n\n    /**\n     * @dev event for SLI creation logging\n     * @param _periodId 1. the id of the given period\n     * @param _sli 2. value of the SLI\n     */\n    event SLANotRespected(uint256 _periodId, uint256 _sli);\n\n    /**\n     * @dev throws if called by any address other than the messenger contract.\n     */\n    modifier onlyMessenger() {\n        require(\n            msg.sender == messengerAddress,\n            \"Only Messenger can call this function\"\n        );\n        _;\n    }\n\n    /**\n     * @dev throws if called by any address other than the messenger contract.\n     */\n    modifier onlySLARegistry() {\n        require(\n            msg.sender == address(slaRegistry),\n            \"Only SLARegistry can call this function\"\n        );\n        _;\n    }\n\n    /**\n     * @param _owner 1. address of the owner of the service level agreement\n     * @param _SLO 2. address of the SLO\n     * @param _ipfsHash 3. string with the ipfs hash that contains SLA information\n     * @param _periodIds 4. id of the allowed canonical periods\n     * @param _periodType 5. period type of the SLA contract\n     * @param _stakeRegistry 6. stakeRegistry address\n     * @param _periodRegistry 7. periodRegistry address\n     * @param _whitelisted 8. boolean to declare whitelisted contracts\n     * @param _extraData 9. array of bytes32 to store extra data on deployment time\n     * @param _slaID 10. identifies the SLA to uniquely to emit dTokens\n     */\n    constructor(\n        address _owner,\n        SLO _SLO,\n        string memory _ipfsHash,\n        address _messengerAddress,\n        uint256[] memory _periodIds,\n        PeriodRegistry.PeriodType _periodType,\n        address _stakeRegistry,\n        address _periodRegistry,\n        bool _whitelisted,\n        bytes32[] memory _extraData,\n        uint256 _slaID\n    )\n        public\n        Staking(\n            _stakeRegistry,\n            _periodRegistry,\n            _periodType,\n            _periodIds.length,\n            _whitelisted,\n            _slaID\n        )\n    {\n        transferOwnership(_owner);\n        ipfsHash = _ipfsHash;\n        messengerAddress = _messengerAddress;\n        slaRegistry = SLARegistry(msg.sender);\n        periodRegistry = PeriodRegistry(_periodRegistry);\n        creationBlockNumber = block.number;\n        periodIds = _periodIds;\n        periodType = _periodType;\n        slo = _SLO;\n        extraData = _extraData;\n        nextVerifiablePeriod = _periodIds[0];\n    }\n\n    /**\n     * @dev external function to register SLI's and check them against the SLO's\n     * @param _sli 1. the value of the SLI to check\n     * @param _periodId 2. the id of the given period\n     */\n    function registerSLI(uint256 _sli, uint256 _periodId)\n        external\n        onlyMessenger\n    {\n        emit SLICreated(block.timestamp, _sli, _periodId);\n        nextVerifiablePeriod = _periodId + 1;\n        PeriodSLI storage periodSLI = periodSLIs[_periodId];\n        periodSLI.sli = _sli;\n        periodSLI.timestamp = block.timestamp;\n        uint256 sloValue = slo.value();\n        if (slo.isRespected(_sli)) {\n            periodSLI.status = Status.Respected;\n            uint256 precision = 10000;\n            // deviation = (sli-slo)*precision/((sli+slo)/2)\n            uint256 deviation =\n                _sli.sub(sloValue).mul(precision).div(\n                    _sli.add(sloValue).div(2)\n                );\n            // to get the reward formula, we get the periodId but respecting to the SLA\n            // because _periodId is the periodId of the platform\n            // e.g. if periodIds = 7,8,9,10, normalized periods are = 1,2,3,4\n            uint256 normalizedPeriodId = _periodId.sub(periodIds[0]).add(1);\n            // if is the last period, then deliver the whole usersStake to the provider\n            // uint256 rewardPercentage =\n            //     _periodId != periodIds[periodIds.length - 1] &&\n            //         ? deviation.mul(normalizedPeriodId).div(periodIds.length)\n            //         : uint256(1).mul(precision);\n            uint256 rewardPercentage =\n                deviation.mul(normalizedPeriodId).div(periodIds.length);\n            _setRespectedPeriodReward(_periodId, rewardPercentage, precision);\n        } else {\n            periodSLI.status = Status.NotRespected;\n            _setUsersCompensation();\n            _breachedContract = true;\n            emit SLANotRespected(_periodId, _sli);\n        }\n    }\n\n    function isAllowedPeriod(uint256 _periodId) public view returns (bool) {\n        for (uint256 index = 0; index < periodIds.length; index++) {\n            if (periodIds[index] == _periodId) {\n                return true;\n            }\n        }\n        return false;\n    }\n\n    /**\n     *@dev stake _amount tokens into the _token contract\n     *@param _amount 1. amount to be staked\n     *@param _token 2. address of the ERC to be staked\n     */\n\n    function stakeTokens(uint256 _amount, address _token) public {\n        require(_amount > 0, \"amount cannot be 0\");\n        uint256 lastValidPeriodId = periodIds[periodIds.length - 1];\n        (, uint256 endOfLastValidPeriod) =\n            periodRegistry.getPeriodStartAndEnd(periodType, lastValidPeriodId);\n        bool contractFinished =\n            _breachedContract == true ||\n                (block.timestamp >= endOfLastValidPeriod &&\n                    periodSLIs[lastValidPeriodId].status != Status.NotVerified);\n        require(\n            contractFinished == false,\n            \"Can only stake on not finished contracts\"\n        );\n        _stake(_amount, _token);\n        StakeRegistry stakeRegistry = slaRegistry.stakeRegistry();\n        stakeRegistry.registerStakedSla(msg.sender);\n    }\n\n    function withdrawProviderTokens(uint256 _amount, address _tokenAddress)\n        public\n    {\n        require(_amount > 0, \"amount cannot be 0\");\n        uint256 lastValidPeriodId = periodIds[periodIds.length - 1];\n        (, uint256 endOfLastValidPeriod) =\n            periodRegistry.getPeriodStartAndEnd(periodType, lastValidPeriodId);\n        // contract is finished if is breached or if the last period is finished and verified\n        bool contractFinished =\n            _breachedContract == true ||\n                (block.timestamp >= endOfLastValidPeriod &&\n                    periodSLIs[lastValidPeriodId].status != Status.NotVerified);\n        _withdrawProviderTokens(_amount, _tokenAddress, contractFinished);\n    }\n\n    /**\n     *@dev withdraw _amount tokens from the _token contract\n     *@param _amount 1. amount to be staked\n     *@param _tokenAddress 2. address of the ERC to be staked\n     */\n\n    function withdrawUserTokens(uint256 _amount, address _tokenAddress) public {\n        require(_amount > 0, \"amount cannot be 0\");\n        uint256 lastValidPeriodId = periodIds[periodIds.length - 1];\n        (, uint256 endOfLastValidPeriod) =\n            periodRegistry.getPeriodStartAndEnd(periodType, lastValidPeriodId);\n        // users tokens can be withdrawn only if the contract is breached\n        // or if the last period is finished and the period status was verified\n        if (msg.sender != owner()) {\n            require(\n                _breachedContract == true ||\n                    (block.timestamp >= endOfLastValidPeriod &&\n                        periodSLIs[lastValidPeriodId].status !=\n                        Status.NotVerified),\n                \"Can only withdraw stake after the final period is finished or if the contract is breached\"\n            );\n        }\n        _withdrawUserTokens(_amount, _tokenAddress);\n    }\n\n    /**\n     *@dev withdraw provider reward of a given token address\n     *@param _tokenAddress 1. address of the token to withdraw rewards\n     */\n\n    function claimUserCompensation(address _tokenAddress) public {\n        _claimCompensation(_tokenAddress);\n    }\n\n    function getPeriodIdsLength() public view returns (uint256) {\n        return periodIds.length;\n    }\n\n    function getStakersLength() public view returns (uint256) {\n        return stakers.length;\n    }\n\n    function breachedContract() public view returns (bool) {\n        return _breachedContract;\n    }\n}\n",
  "sourcePath": "/Users/matiasbn/Desktop/stacktical/stacktical-dsla-contracts/contracts/SLA.sol",
  "compiler": {
    "name": "solc",
    "version": "0.6.12+commit.27d51765.Emscripten.clang"
  },
  "schemaVersion": "3.3.3",
  "updatedAt": "2021-03-09T23:11:46.395Z",
  "devdoc": {
    "details": "SLA is a service level agreement contract used for service downtime compensation",
    "events": {
      "SLANotRespected(uint256,uint256)": {
        "details": "event for SLI creation logging",
        "params": {
          "_periodId": "1. the id of the given period",
          "_sli": "2. value of the SLI"
        }
      },
      "SLICreated(uint256,uint256,uint256)": {
        "details": "event for SLI creation logging",
        "params": {
          "periodId": "3. the id of the given period",
          "sli": "2. the value of the SLI",
          "timestamp": "1. the time the SLI has been registered"
        }
      }
    },
    "kind": "dev",
    "methods": {
      "_claimCompensation(address)": {
        "details": "claim user compensation. Transfers both the compensation and the user remaining stake.",
        "params": {
          "_tokenAddress": "1. address of the token to claim compensation"
        }
      },
      "addAllowedTokens(address)": {
        "details": "add a token to ve allowed for staking",
        "params": {
          "_tokenAddress": "1. address of the new allowed token"
        }
      },
      "claimUserCompensation(address)": {
        "details": "withdraw provider reward of a given token address",
        "params": {
          "_tokenAddress": "1. address of the token to withdraw rewards"
        }
      },
      "constructor": {
        "params": {
          "_SLO": "2. address of the SLO",
          "_extraData": "9. array of bytes32 to store extra data on deployment time",
          "_ipfsHash": "3. string with the ipfs hash that contains SLA information",
          "_owner": "1. address of the owner of the service level agreement",
          "_periodIds": "4. id of the allowed canonical periods",
          "_periodRegistry": "7. periodRegistry address",
          "_periodType": "5. period type of the SLA contract",
          "_slaID": "10. identifies the SLA to uniquely to emit dTokens",
          "_stakeRegistry": "6. stakeRegistry address",
          "_whitelisted": "8. boolean to declare whitelisted contracts"
        }
      },
      "getAllowedTokensLength()": {
        "details": "use this function to evaluate the length of the allowed tokens length",
        "returns": {
          "_0": "allowedTokens.length"
        }
      },
      "isAllowedToken(address)": {
        "details": "checks in the allowedTokens array if there's a token with _tokenAddress value",
        "params": {
          "_tokenAddress": "1. token address to check exixtence"
        },
        "returns": {
          "_0": "true if _tokenAddress exists in the allowedTokens array"
        }
      },
      "isStaker(address)": {
        "details": "returns true if the _staker address is registered as staker",
        "params": {
          "_staker": "1. staker address"
        },
        "returns": {
          "_0": "true if address is staker"
        }
      },
      "owner()": {
        "details": "Returns the address of the current owner."
      },
      "registerSLI(uint256,uint256)": {
        "details": "external function to register SLI's and check them against the SLO's",
        "params": {
          "_periodId": "2. the id of the given period",
          "_sli": "1. the value of the SLI to check"
        }
      },
      "renounceOwnership()": {
        "details": "Leaves the contract without owner. It will not be possible to call `onlyOwner` functions anymore. Can only be called by the current owner. NOTE: Renouncing ownership will leave the contract without an owner, thereby removing any functionality that is only available to the owner."
      },
      "stakeTokens(uint256,address)": {
        "details": "stake _amount tokens into the _token contract",
        "params": {
          "_amount": "1. amount to be staked",
          "_token": "2. address of the ERC to be staked"
        }
      },
      "transferOwnership(address)": {
        "details": "Transfers ownership of the contract to a new account (`newOwner`). Can only be called by the current owner."
      },
      "withdrawUserTokens(uint256,address)": {
        "details": "withdraw _amount tokens from the _token contract",
        "params": {
          "_amount": "1. amount to be staked",
          "_tokenAddress": "2. address of the ERC to be staked"
        }
      }
    },
    "stateVariables": {
      "_breachedContract": {
        "details": "states if the contract was breached or not"
      },
      "creationBlockNumber": {
        "details": "block number of SLA deployment"
      },
      "extraData": {
        "details": "extra data for customized workflows"
      },
      "ipfsHash": {
        "details": "The ipfs hash that stores extra information about the agreement"
      },
      "messengerAddress": {
        "details": "The address of the messenger"
      },
      "nextVerifiablePeriod": {
        "details": "states if the contract was breached or not"
      },
      "periodIds": {
        "details": "array of he allowed canonical period ids"
      },
      "periodSLIs": {
        "details": "periodId=>PeriodSLI mapping"
      },
      "periodType": {
        "details": "uint8 of the period type"
      },
      "slaRegistry": {
        "details": "The address of the slaRegistry contract"
      },
      "slo": {
        "details": "address of the SLO"
      }
    },
    "title": "SLA",
    "version": 1
  },
  "userdoc": {
    "kind": "user",
    "methods": {
      "_claimCompensation(address)": {
        "notice": "it uses the user position and the user total position per token to check the proportion of the compensation pool that corresponds to every user"
      }
    },
    "version": 1
  }
}