{
  "contractName": "SLA",
  "abi": [
    {
      "inputs": [
        {
          "internalType": "address",
          "name": "_owner",
          "type": "address"
        },
        {
          "internalType": "contract SLO",
          "name": "_SLO",
          "type": "address"
        },
        {
          "internalType": "string",
          "name": "_ipfsHash",
          "type": "string"
        },
        {
          "internalType": "address",
          "name": "_messengerAddress",
          "type": "address"
        },
        {
          "internalType": "uint256[]",
          "name": "_periodIds",
          "type": "uint256[]"
        },
        {
          "internalType": "enum PeriodRegistry.PeriodType",
          "name": "_periodType",
          "type": "uint8"
        },
        {
          "internalType": "address",
          "name": "_stakeRegistry",
          "type": "address"
        },
        {
          "internalType": "address",
          "name": "_periodRegistry",
          "type": "address"
        },
        {
          "internalType": "bool",
          "name": "_whitelisted",
          "type": "bool"
        },
        {
          "internalType": "bytes32[]",
          "name": "_extraData",
          "type": "bytes32[]"
        },
        {
          "internalType": "uint256",
          "name": "_slaID",
          "type": "uint256"
        }
      ],
      "stateMutability": "nonpayable",
      "type": "constructor"
    },
    {
      "anonymous": false,
      "inputs": [
        {
          "indexed": true,
          "internalType": "address",
          "name": "previousOwner",
          "type": "address"
        },
        {
          "indexed": true,
          "internalType": "address",
          "name": "newOwner",
          "type": "address"
        }
      ],
      "name": "OwnershipTransferred",
      "type": "event"
    },
    {
      "anonymous": false,
      "inputs": [
        {
          "indexed": true,
          "internalType": "uint256",
          "name": "periodId",
          "type": "uint256"
        },
        {
          "indexed": true,
          "internalType": "address",
          "name": "tokenAddress",
          "type": "address"
        },
        {
          "indexed": false,
          "internalType": "uint256",
          "name": "rewardPercentage",
          "type": "uint256"
        },
        {
          "indexed": false,
          "internalType": "uint256",
          "name": "amount",
          "type": "uint256"
        }
      ],
      "name": "ProviderRewardGenerated",
      "type": "event"
    },
    {
      "anonymous": false,
      "inputs": [
        {
          "indexed": false,
          "internalType": "uint256",
          "name": "_periodId",
          "type": "uint256"
        },
        {
          "indexed": false,
          "internalType": "uint256",
          "name": "_sli",
          "type": "uint256"
        }
      ],
      "name": "SLANotRespected",
      "type": "event"
    },
    {
      "anonymous": false,
      "inputs": [
        {
          "indexed": false,
          "internalType": "uint256",
          "name": "_timestamp",
          "type": "uint256"
        },
        {
          "indexed": false,
          "internalType": "uint256",
          "name": "_sli",
          "type": "uint256"
        },
        {
          "indexed": false,
          "internalType": "uint256",
          "name": "_periodId",
          "type": "uint256"
        }
      ],
      "name": "SLICreated",
      "type": "event"
    },
    {
      "inputs": [],
      "name": "DSLAburnRate",
      "outputs": [
        {
          "internalType": "uint256",
          "name": "",
          "type": "uint256"
        }
      ],
      "stateMutability": "view",
      "type": "function"
    },
    {
      "inputs": [
        {
          "internalType": "address",
          "name": "_tokenAddress",
          "type": "address"
        }
      ],
      "name": "_claimCompensation",
      "outputs": [],
      "stateMutability": "nonpayable",
      "type": "function"
    },
    {
      "inputs": [
        {
          "internalType": "address",
          "name": "_tokenAddress",
          "type": "address"
        }
      ],
      "name": "addAllowedTokens",
      "outputs": [],
      "stateMutability": "nonpayable",
      "type": "function"
    },
    {
      "inputs": [
        {
          "internalType": "address",
          "name": "_userAddress",
          "type": "address"
        }
      ],
      "name": "addUserToWhitelist",
      "outputs": [],
      "stateMutability": "nonpayable",
      "type": "function"
    },
    {
      "inputs": [
        {
          "internalType": "uint256",
          "name": "",
          "type": "uint256"
        }
      ],
      "name": "allowedTokens",
      "outputs": [
        {
          "internalType": "address",
          "name": "",
          "type": "address"
        }
      ],
      "stateMutability": "view",
      "type": "function"
    },
    {
      "inputs": [],
      "name": "creationBlockNumber",
      "outputs": [
        {
          "internalType": "uint256",
          "name": "",
          "type": "uint256"
        }
      ],
      "stateMutability": "view",
      "type": "function"
    },
    {
      "inputs": [],
      "name": "cumulatedDevaluation",
      "outputs": [
        {
          "internalType": "uint256",
          "name": "",
          "type": "uint256"
        }
      ],
      "stateMutability": "view",
      "type": "function"
    },
    {
      "inputs": [
        {
          "internalType": "address",
          "name": "",
          "type": "address"
        }
      ],
      "name": "dTokenRegistry",
      "outputs": [
        {
          "internalType": "contract ERC20PresetMinterPauser",
          "name": "",
          "type": "address"
        }
      ],
      "stateMutability": "view",
      "type": "function"
    },
    {
      "inputs": [],
      "name": "dslaTokenAddress",
      "outputs": [
        {
          "internalType": "address",
          "name": "",
          "type": "address"
        }
      ],
      "stateMutability": "view",
      "type": "function"
    },
    {
      "inputs": [
        {
          "internalType": "uint256",
          "name": "",
          "type": "uint256"
        }
      ],
      "name": "extraData",
      "outputs": [
        {
          "internalType": "bytes32",
          "name": "",
          "type": "bytes32"
        }
      ],
      "stateMutability": "view",
      "type": "function"
    },
    {
      "inputs": [],
      "name": "getAllowedTokensLength",
      "outputs": [
        {
          "internalType": "uint256",
          "name": "",
          "type": "uint256"
        }
      ],
      "stateMutability": "view",
      "type": "function"
    },
    {
      "inputs": [
        {
          "internalType": "address",
          "name": "_staker",
          "type": "address"
        },
        {
          "internalType": "uint256",
          "name": "_allowedTokenIndex",
          "type": "uint256"
        }
      ],
      "name": "getTokenStake",
      "outputs": [
        {
          "internalType": "address",
          "name": "tokenAddress",
          "type": "address"
        },
        {
          "internalType": "uint256",
          "name": "stake",
          "type": "uint256"
        }
      ],
      "stateMutability": "view",
      "type": "function"
    },
    {
      "inputs": [],
      "name": "ipfsHash",
      "outputs": [
        {
          "internalType": "string",
          "name": "",
          "type": "string"
        }
      ],
      "stateMutability": "view",
      "type": "function"
    },
    {
      "inputs": [
        {
          "internalType": "address",
          "name": "_tokenAddress",
          "type": "address"
        }
      ],
      "name": "isAllowedToken",
      "outputs": [
        {
          "internalType": "bool",
          "name": "",
          "type": "bool"
        }
      ],
      "stateMutability": "view",
      "type": "function"
    },
    {
      "inputs": [
        {
          "internalType": "address",
          "name": "_staker",
          "type": "address"
        }
      ],
      "name": "isStaker",
      "outputs": [
        {
          "internalType": "bool",
          "name": "",
          "type": "bool"
        }
      ],
      "stateMutability": "view",
      "type": "function"
    },
    {
      "inputs": [],
      "name": "messengerAddress",
      "outputs": [
        {
          "internalType": "address",
          "name": "",
          "type": "address"
        }
      ],
      "stateMutability": "view",
      "type": "function"
    },
    {
      "inputs": [],
      "name": "minimumDSLAStakedTier1",
      "outputs": [
        {
          "internalType": "uint256",
          "name": "",
          "type": "uint256"
        }
      ],
      "stateMutability": "view",
      "type": "function"
    },
    {
      "inputs": [],
      "name": "minimumDSLAStakedTier2",
      "outputs": [
        {
          "internalType": "uint256",
          "name": "",
          "type": "uint256"
        }
      ],
      "stateMutability": "view",
      "type": "function"
    },
    {
      "inputs": [],
      "name": "minimumDSLAStakedTier3",
      "outputs": [
        {
          "internalType": "uint256",
          "name": "",
          "type": "uint256"
        }
      ],
      "stateMutability": "view",
      "type": "function"
    },
    {
      "inputs": [],
      "name": "owner",
      "outputs": [
        {
          "internalType": "address",
          "name": "",
          "type": "address"
        }
      ],
      "stateMutability": "view",
      "type": "function"
    },
    {
      "inputs": [
        {
          "internalType": "uint256",
          "name": "",
          "type": "uint256"
        }
      ],
      "name": "periodIds",
      "outputs": [
        {
          "internalType": "uint256",
          "name": "",
          "type": "uint256"
        }
      ],
      "stateMutability": "view",
      "type": "function"
    },
    {
      "inputs": [],
      "name": "periodRegistry",
      "outputs": [
        {
          "internalType": "contract PeriodRegistry",
          "name": "",
          "type": "address"
        }
      ],
      "stateMutability": "view",
      "type": "function"
    },
    {
      "inputs": [],
      "name": "periodType",
      "outputs": [
        {
          "internalType": "enum PeriodRegistry.PeriodType",
          "name": "",
          "type": "uint8"
        }
      ],
      "stateMutability": "view",
      "type": "function"
    },
    {
      "inputs": [
        {
          "internalType": "address",
          "name": "",
          "type": "address"
        }
      ],
      "name": "providerPool",
      "outputs": [
        {
          "internalType": "uint256",
          "name": "",
          "type": "uint256"
        }
      ],
      "stateMutability": "view",
      "type": "function"
    },
    {
      "inputs": [
        {
          "internalType": "address",
          "name": "_userAddress",
          "type": "address"
        }
      ],
      "name": "removeUserFromWhitelist",
      "outputs": [],
      "stateMutability": "nonpayable",
      "type": "function"
    },
    {
      "inputs": [],
      "name": "renounceOwnership",
      "outputs": [],
      "stateMutability": "nonpayable",
      "type": "function"
    },
    {
      "inputs": [],
      "name": "slaID",
      "outputs": [
        {
          "internalType": "uint256",
          "name": "",
          "type": "uint256"
        }
      ],
      "stateMutability": "view",
      "type": "function"
    },
    {
      "inputs": [
        {
          "internalType": "uint256",
          "name": "",
          "type": "uint256"
        }
      ],
      "name": "slaPeriods",
      "outputs": [
        {
          "internalType": "uint256",
          "name": "timestamp",
          "type": "uint256"
        },
        {
          "internalType": "uint256",
          "name": "sli",
          "type": "uint256"
        },
        {
          "internalType": "enum SLA.Status",
          "name": "status",
          "type": "uint8"
        }
      ],
      "stateMutability": "view",
      "type": "function"
    },
    {
      "inputs": [],
      "name": "slaPeriodsLength",
      "outputs": [
        {
          "internalType": "uint256",
          "name": "",
          "type": "uint256"
        }
      ],
      "stateMutability": "view",
      "type": "function"
    },
    {
      "inputs": [],
      "name": "slaRegistry",
      "outputs": [
        {
          "internalType": "contract SLARegistry",
          "name": "",
          "type": "address"
        }
      ],
      "stateMutability": "view",
      "type": "function"
    },
    {
      "inputs": [],
      "name": "slo",
      "outputs": [
        {
          "internalType": "contract SLO",
          "name": "",
          "type": "address"
        }
      ],
      "stateMutability": "view",
      "type": "function"
    },
    {
      "inputs": [
        {
          "internalType": "uint256",
          "name": "",
          "type": "uint256"
        }
      ],
      "name": "stakers",
      "outputs": [
        {
          "internalType": "address",
          "name": "",
          "type": "address"
        }
      ],
      "stateMutability": "view",
      "type": "function"
    },
    {
      "inputs": [
        {
          "internalType": "address",
          "name": "newOwner",
          "type": "address"
        }
      ],
      "name": "transferOwnership",
      "outputs": [],
      "stateMutability": "nonpayable",
      "type": "function"
    },
    {
      "inputs": [
        {
          "internalType": "address",
          "name": "",
          "type": "address"
        }
      ],
      "name": "usersPool",
      "outputs": [
        {
          "internalType": "uint256",
          "name": "",
          "type": "uint256"
        }
      ],
      "stateMutability": "view",
      "type": "function"
    },
    {
      "inputs": [
        {
          "internalType": "address",
          "name": "",
          "type": "address"
        }
      ],
      "name": "whitelist",
      "outputs": [
        {
          "internalType": "bool",
          "name": "",
          "type": "bool"
        }
      ],
      "stateMutability": "view",
      "type": "function"
    },
    {
      "inputs": [],
      "name": "whitelistedContract",
      "outputs": [
        {
          "internalType": "bool",
          "name": "",
          "type": "bool"
        }
      ],
      "stateMutability": "view",
      "type": "function"
    },
    {
      "inputs": [
        {
          "internalType": "uint256",
          "name": "_sli",
          "type": "uint256"
        },
        {
          "internalType": "uint256",
          "name": "_periodId",
          "type": "uint256"
        }
      ],
      "name": "registerSLI",
      "outputs": [],
      "stateMutability": "nonpayable",
      "type": "function"
    },
    {
      "inputs": [
        {
          "internalType": "uint256",
          "name": "_periodId",
          "type": "uint256"
        }
      ],
      "name": "isAllowedPeriod",
      "outputs": [
        {
          "internalType": "bool",
          "name": "",
          "type": "bool"
        }
      ],
      "stateMutability": "view",
      "type": "function"
    },
    {
      "inputs": [
        {
          "internalType": "uint256",
          "name": "_amount",
          "type": "uint256"
        },
        {
          "internalType": "address",
          "name": "_token",
          "type": "address"
        }
      ],
      "name": "stakeTokens",
      "outputs": [],
      "stateMutability": "nonpayable",
      "type": "function"
    },
    {
      "inputs": [
        {
          "internalType": "uint256",
          "name": "_amount",
          "type": "uint256"
        },
        {
          "internalType": "address",
          "name": "_tokenAddress",
          "type": "address"
        }
      ],
      "name": "withdrawStakedTokens",
      "outputs": [],
      "stateMutability": "nonpayable",
      "type": "function"
    },
    {
      "inputs": [
        {
          "internalType": "address",
          "name": "_tokenAddress",
          "type": "address"
        }
      ],
      "name": "claimUserCompensation",
      "outputs": [],
      "stateMutability": "nonpayable",
      "type": "function"
    },
    {
      "inputs": [],
      "name": "getDetails",
      "outputs": [
        {
          "internalType": "address",
          "name": "_slaOwner",
          "type": "address"
        },
        {
          "internalType": "string",
          "name": "_ipfsHash",
          "type": "string"
        },
        {
          "internalType": "contract SLO",
          "name": "_SLO",
          "type": "address"
        },
        {
          "components": [
            {
              "internalType": "uint256",
              "name": "timestamp",
              "type": "uint256"
            },
            {
              "internalType": "uint256",
              "name": "sli",
              "type": "uint256"
            },
            {
              "internalType": "enum SLA.Status",
              "name": "status",
              "type": "uint8"
            }
          ],
          "internalType": "struct SLA.SLAPeriod[]",
          "name": "_SLAPeriods",
          "type": "tuple[]"
        },
        {
          "internalType": "uint256",
          "name": "_stakersCount",
          "type": "uint256"
        },
        {
          "components": [
            {
              "internalType": "address",
              "name": "tokenAddress",
              "type": "address"
            },
            {
              "internalType": "uint256",
              "name": "stake",
              "type": "uint256"
            }
          ],
          "internalType": "struct SLA.TokenStake[]",
          "name": "_tokensStake",
          "type": "tuple[]"
        }
      ],
      "stateMutability": "view",
      "type": "function"
    },
    {
      "inputs": [],
      "name": "breachedContract",
      "outputs": [
        {
          "internalType": "bool",
          "name": "",
          "type": "bool"
        }
      ],
      "stateMutability": "view",
      "type": "function"
    }
  ],
  "bytecode": "0x6080604052603c600755620f4240600855601d805460ff191690553480156200002757600080fd5b506040516200781f3803806200781f8339810160408190526200004a91620008f8565b848487895186856000620000636200049a60201b60201c565b600080546001600160a01b0319166001600160a01b038316908117825560405192935091600080516020620077ff833981519152908290a350600180546001600160a01b038089166001600160a01b0319928316178355600280549189169190921617905560108054869260ff1990911690836005811115620000e257fe5b021790555060118390556012805460ff191683151517905560015460408051637b8041cf60e11b815290516000928392839283926001600160a01b03169163f700839e916004808301926080929190829003018186803b1580156200014657600080fd5b505afa1580156200015b573d6000803e3d6000fd5b505050506040513d601f19601f8201168201806040525081019062000181919062000a29565b9350935093509350600160009054906101000a90046001600160a01b03166001600160a01b0316638b8e53096040518163ffffffff1660e01b815260040160206040518083038186803b158015620001d857600080fd5b505afa158015620001ed573d6000803e3d6000fd5b505050506040513d601f19601f82011682018060405250810190620002139190620008d2565b600a80546001600160a01b0319166001600160a01b0392909216919091179055600c849055600d839055600e829055600f81905562000252336200049e565b600a54600b80546001810182556000919091527f0175b7a638427703f0dbe7bb9bbf987a2551717b34e79f33b5b1008d1fa01db90180546001600160a01b0319166001600160a01b0390921691909117905560038590556060620002b68662000541565b9050606081604051602001620002cd919062000abd565b6040516020818303038152906040529050606082604051602001620002f3919062000a8d565b6040516020818303038152906040529050600082826040516200031690620006d3565b6200032392919062000af1565b604051809103906000f08015801562000340573d6000803e3d6000fd5b5090508060066000600a60009054906101000a90046001600160a01b03166001600160a01b03166001600160a01b0316815260200190815260200160002060006101000a8154816001600160a01b0302191690836001600160a01b031602179055505050505050505050505050505050620003c18b6200062660201b60201c565b8851620003d69060159060208c0190620006e1565b50601980546001600160a01b03808b166001600160a01b03199283161790925560188054909116331790556016805491861661010002610100600160a81b031990921691909117905543601b558651620004389060179060208a019062000766565b506016805487919060ff191660018360058111156200045357fe5b0217905550601480546001600160a01b0319166001600160a01b038c1617905581516200048890601c90602085019062000766565b50505050505050505050505062000c68565b3390565b620004a86200049a565b6000546001600160a01b03908116911614620004e15760405162461bcd60e51b8152600401620004d89062000ba0565b60405180910390fd5b6001600160a01b03811660009081526013602052604090205460ff16156200051d5760405162461bcd60e51b8152600401620004d89062000b23565b6001600160a01b03166000908152601360205260409020805460ff19166001179055565b606081806200056a5750506040805180820190915260018152600360fc1b602082015262000621565b8060005b81156200058457600101600a820491506200056e565b6060816001600160401b03811180156200059d57600080fd5b506040519080825280601f01601f191660200182016040528015620005c9576020820181803683370190505b50905060001982015b84156200061a57600a850660300160f81b82828060019003935081518110620005f757fe5b60200101906001600160f81b031916908160001a905350600a85049450620005d2565b5093505050505b919050565b620006306200049a565b6000546001600160a01b03908116911614620006605760405162461bcd60e51b8152600401620004d89062000ba0565b6001600160a01b038116620006895760405162461bcd60e51b8152600401620004d89062000b5a565b600080546040516001600160a01b0380851693921691600080516020620077ff83398151915291a3600080546001600160a01b0319166001600160a01b0392909216919091179055565b611c768062005b8983390190565b828054600181600116156101000203166002900490600052602060002090601f016020900481019282601f106200072457805160ff191683800117855562000754565b8280016001018555821562000754579182015b828111156200075457825182559160200191906001019062000737565b5062000762929150620007a3565b5090565b8280548282559060005260206000209081019282156200075457916020028201828111156200075457825182559160200191906001019062000737565b5b80821115620007625760008155600101620007a4565b8051620007c78162000c4f565b92915050565b600082601f830112620007de578081fd5b8151620007f5620007ef8262000bfc565b62000bd5565b8181529150602080830190848101818402860182018710156200081757600080fd5b60005b8481101562000838578151845292820192908201906001016200081a565b505050505092915050565b80518015158114620007c757600080fd5b805160068110620007c757600080fd5b600082601f83011262000875578081fd5b81516001600160401b038111156200088b578182fd5b620008a0601f8201601f191660200162000bd5565b9150808252836020828501011115620008b857600080fd5b620008cb81602084016020860162000c1c565b5092915050565b600060208284031215620008e4578081fd5b8151620008f18162000c4f565b9392505050565b60008060008060008060008060008060006101608c8e0312156200091a578687fd5b620009268d8d620007ba565b9a50620009378d60208e01620007ba565b60408d0151909a506001600160401b0381111562000953578788fd5b620009618e828f0162000864565b995050620009738d60608e01620007ba565b60808d01519098506001600160401b038111156200098f578788fd5b6200099d8e828f01620007cd565b975050620009af8d60a08e0162000854565b9550620009c08d60c08e01620007ba565b9450620009d18d60e08e01620007ba565b9350620009e38d6101008e0162000843565b6101208d01519093506001600160401b0381111562000a00578283fd5b62000a0e8e828f01620007cd565b9250506101408c015190509295989b509295989b9093969950565b6000806000806080858703121562000a3f578384fd5b505082516020840151604085015160609095015191969095509092509050565b6000815180845262000a7981602086016020860162000c1c565b601f01601f19169290920160200192915050565b6000656444534c412d60d01b8252825162000ab081600685016020870162000c1c565b9190910160060192915050565b60006944534c412d44534c412d60b01b8252825162000ae481600a85016020870162000c1c565b91909101600a0192915050565b60006040825262000b06604083018562000a5f565b828103602084015262000b1a818562000a5f565b95945050505050565b60208082526018908201527f5573657220616c72656164792077686974656c69737465640000000000000000604082015260600190565b60208082526026908201527f4f776e61626c653a206e6577206f776e657220697320746865207a65726f206160408201526564647265737360d01b606082015260800190565b6020808252818101527f4f776e61626c653a2063616c6c6572206973206e6f7420746865206f776e6572604082015260600190565b6040518181016001600160401b038111828210171562000bf457600080fd5b604052919050565b60006001600160401b0382111562000c12578081fd5b5060209081020190565b60005b8381101562000c3957818101518382015260200162000c1f565b8381111562000c49576000848401525b50505050565b6001600160a01b038116811462000c6557600080fd5b50565b614f118062000c786000396000f3fe60806040523480156200001157600080fd5b5060043610620002a45760003560e01c80637fd788aa1162000171578063cbe230c311620000d5578063f2db10fe1162000093578063f2db10fe1462000589578063f2fde38b1462000593578063f7e9dfff14620005aa578063f9902bb114620005b4578063fbbf93a014620005cb578063fd5e6dd114620005e957620002a4565b8063cbe230c3146200053d578063cd92890e1462000554578063d7a5c422146200055e578063db69a4621462000575578063ee575c28146200057f57620002a4565b80639fc4caa5116200012f5780639fc4caa514620004e5578063a224ee9c14620004ef578063b18ac91814620004f9578063b7bc347e1462000503578063bce8abb1146200050d578063c623674f146200052457620002a4565b80637fd788aa14620004885780638d4f567d14620004925780638da5cb5b146200049c5780639ab4438f14620004a65780639b19251a14620004ce57620002a4565b806346e0fbae11620002195780635e5f2e2611620001d75780635e5f2e2614620003fc578063639b6fc314620004225780636f1e85331462000439578063715018a61462000450578063747b8050146200045a57806378025ec4146200047157620002a4565b806346e0fbae1462000384578063484fbf2b146200039d578063524f073514620003b457806357ac94f014620003cb5780635c1c20de14620003f257620002a4565b806318e45427116200026757806318e4542714620003385780631bf3092914620003425780631fc2cd93146200034c57806327cd727c14620003635780632eb8197a146200037a57620002a4565b8063021eef7f14620002a95780630ae9ea4514620002d85780630bea440d14620002fe5780630c5160f41462000317578063171e44ea1462000321575b600080fd5b620002c0620002ba366004620028e3565b62000600565b604051620002cf919062002be4565b60405180910390f35b620002ef620002e9366004620028e3565b6200064f565b604051620002cf919062002bef565b620003156200030f36600462002915565b6200066e565b005b620002ef620007e1565b6200031562000332366004620027b2565b620007e7565b620002c062000a92565b620002ef62000a9b565b620003156200035d366004620027b2565b62000aa1565b620003156200037436600462002915565b62000d2a565b620002ef62000e97565b6200038e62000e9d565b604051620002cf919062002bf8565b620002ef620003ae366004620027b2565b62000ea6565b62000315620003c5366004620027b2565b62000eb8565b620003e2620003dc366004620027d1565b62000ec6565b604051620002cf92919062002af5565b620002ef620010a2565b620004136200040d366004620028e3565b620010a8565b604051620002cf919062002ac7565b620002ef62000433366004620027b2565b620010d0565b620002c06200044a366004620027b2565b620010e2565b6200031562001139565b620003156200046b366004620027b2565b620011bd565b620002ef62000482366004620028e3565b62001257565b620002c062001265565b620002ef6200126e565b6200041362001274565b620004bd620004b7366004620028e3565b62001283565b604051620002cf93929190620031d8565b620002c0620004df366004620027b2565b620012a7565b62000413620012bc565b62000413620012d0565b620002ef620012df565b620002ef620012e5565b620004136200051e366004620027b2565b620012eb565b6200052e62001306565b604051620002cf919062002c26565b620002c06200054e366004620027b2565b62001398565b62000413620013ef565b620003156200056f36600462002947565b620013fe565b62000413620016e6565b620002ef620016f5565b620002ef620016fb565b62000315620005a4366004620027b2565b62001701565b62000413620017bf565b62000315620005c5366004620027b2565b620017ce565b620005d562001869565b604051620002cf9695949392919062002b32565b62000413620005fa366004620028e3565b62001bcc565b6000805b601754811015620006445782601782815481106200061e57fe5b906000526020600020015414156200063b5760019150506200064a565b60010162000604565b50600090505b919050565b601781815481106200065d57fe5b600091825260209091200154905081565b600082116200069a5760405162461bcd60e51b8152600401620006919062003098565b60405180910390fd5b601d5460ff1615620006c05760405162461bcd60e51b8152600401620006919062002fec565b620006cc828262001bda565b60185460408051636830483560e01b815290516000926001600160a01b0316916368304835916004808301926020929190829003018186803b1580156200071257600080fd5b505afa15801562000727573d6000803e3d6000fd5b505050506040513d601f19601f820116820180604052508101906200074d919062002821565b601854604051637852389760e01b81529192506001600160a01b03808416926378523897926200078592339291169060040162002adb565b602060405180830381600087803b158015620007a057600080fd5b505af1158015620007b5573d6000803e3d6000fd5b505050506040513d601f19601f82011682018060405250810190620007db9190620027ff565b50505050565b60115481565b620007f162001e55565b6000546001600160a01b03908116911614620008215760405162461bcd60e51b8152600401620006919062002fb7565b6200082c8162001398565b156200084c5760405162461bcd60e51b8152600401620006919062003034565b60015460405163cbe230c360e01b81526001600160a01b039091169063cbe230c3906200087e90849060040162002ac7565b60206040518083038186803b1580156200089757600080fd5b505afa158015620008ac573d6000803e3d6000fd5b505050506040513d601f19601f82011682018060405250810190620008d29190620027ff565b1515600114620008f65760405162461bcd60e51b8152600401620006919062002d9b565b600b80546001810182556000919091527f0175b7a638427703f0dbe7bb9bbf987a2551717b34e79f33b5b1008d1fa01db90180546001600160a01b0319166001600160a01b038316179055600354606090620009529062001e59565b90506060826001600160a01b03166306fdde036040518163ffffffff1660e01b815260040160006040518083038186803b1580156200099057600080fd5b505afa158015620009a5573d6000803e3d6000fd5b505050506040513d6000823e601f3d908101601f19168201604052620009cf919081019062002840565b905060608183604051602001620009e892919062002a29565b60405160208183030381529060405290506060828460405160200162000a1092919062002a7a565b60405160208183030381529060405290506000828260405162000a339062002761565b62000a4092919062002c3b565b604051809103906000f08015801562000a5d573d6000803e3d6000fd5b506001600160a01b03968716600090815260066020526040902080546001600160a01b03191691909716179095555050505050565b60125460ff1681565b601b5481565b62000aab62001274565b6001600160a01b0316336001600160a01b0316141562000adf5760405162461bcd60e51b8152600401620006919062003185565b60125460ff1615156001141562000b27573360009081526013602052604090205460ff16151560011462000b275760405162461bcd60e51b8152600401620006919062002e8a565b6001600160a01b038082166000908152600660205260408082205490516370a0823160e01b815292169182906370a082319062000b6990339060040162002ac7565b60206040518083038186803b15801562000b8257600080fd5b505afa15801562000b97573d6000803e3d6000fd5b505050506040513d601f19601f8201168201806040525081019062000bbd9190620028fc565b90506000826001600160a01b03166318160ddd6040518163ffffffff1660e01b815260040160206040518083038186803b15801562000bfb57600080fd5b505afa15801562000c10573d6000803e3d6000fd5b505050506040513d601f19601f8201168201806040525081019062000c369190620028fc565b90506127108262000c5b5760405162461bcd60e51b8152600401620006919062002e2d565b600062000c758362000c6e868562001f3d565b9062001f86565b6001600160a01b0387166000908152600560205260408120549192509062000ca590849062000c6e908562001f3d565b604051630852cd8d60e31b81529091506001600160a01b038716906342966c689062000cd690889060040162002bef565b600060405180830381600087803b15801562000cf157600080fd5b505af115801562000d06573d6000803e3d6000fd5b5062000d21925050506001600160a01b038816338362001fca565b50505050505050565b6000821162000d4d5760405162461bcd60e51b8152600401620006919062003098565b6017805460009190600019810190811062000d6457fe5b600091825260208220015460165460405160016259edcb60e01b031981529193506001600160a01b036101008204169163ffa612359162000db09160ff90911690869060040162002c0d565b604080518083038186803b15801562000dc857600080fd5b505afa15801562000ddd573d6000803e3d6000fd5b505050506040513d601f19601f8201168201806040525081019062000e03919062002969565b91505062000e1062001274565b6001600160a01b0316336001600160a01b03161462000e8b57601d5460ff1615156001148062000e6c575080421015801562000e6c57506000828152601a6020526040812060029081015460ff169081111562000e6957fe5b14155b62000e8b5760405162461bcd60e51b8152600401620006919062002c9f565b620007db848462002024565b600f5481565b60165460ff1681565b60056020526000908152604090205481565b62000ec38162000aa1565b50565b6000806000600b848154811062000ed957fe5b6000918252602090912001546001600160a01b0316905062000efa62001274565b6001600160a01b0316856001600160a01b0316141562000f38576001600160a01b03811660009081526004602052604090205490925090506200109b565b6001600160a01b038082166000908152600660205260408082205490516370a0823160e01b815292169182906370a082319062000f7a90339060040162002ac7565b60206040518083038186803b15801562000f9357600080fd5b505afa15801562000fa8573d6000803e3d6000fd5b505050506040513d601f19601f8201168201806040525081019062000fce9190620028fc565b90506000826001600160a01b03166318160ddd6040518163ffffffff1660e01b815260040160206040518083038186803b1580156200100c57600080fd5b505afa15801562001021573d6000803e3d6000fd5b505050506040513d601f19601f82011682018060405250810190620010479190620028fc565b905061271060006200105f8362000c6e868562001f3d565b6001600160a01b03871660009081526005602052604090205490915086906200109090849062000c6e908562001f3d565b975097505050505050505b9250929050565b600c5481565b600b8181548110620010b657fe5b6000918252602090912001546001600160a01b0316905081565b60046020526000908152604090205481565b6000805b6009548110156200064457826001600160a01b0316600982815481106200110957fe5b6000918252602090912001546001600160a01b03161415620011305760019150506200064a565b600101620010e6565b6200114362001e55565b6000546001600160a01b03908116911614620011735760405162461bcd60e51b8152600401620006919062002fb7565b600080546040516001600160a01b03909116907f8be0079c531659141344cd1fd0a4f28419497f9722a3daafe3b4186f6b6457e0908390a3600080546001600160a01b0319169055565b620011c762001e55565b6000546001600160a01b03908116911614620011f75760405162461bcd60e51b8152600401620006919062002fb7565b6001600160a01b03811660009081526013602052604090205460ff1615620012335760405162461bcd60e51b8152600401620006919062002c6d565b6001600160a01b03166000908152601360205260409020805460ff19166001179055565b601c81815481106200065d57fe5b601d5460ff1690565b60075481565b6000546001600160a01b031690565b601a6020526000908152604090208054600182015460029092015490919060ff1683565b60136020526000908152604090205460ff1681565b60165461010090046001600160a01b031681565b6019546001600160a01b031681565b600e5481565b600b5490565b6006602052600090815260409020546001600160a01b031681565b6015805460408051602060026001851615610100026000190190941693909304601f81018490048402820184019092528181529291830182828015620013905780601f10620013645761010080835404028352916020019162001390565b820191906000526020600020905b8154815290600101906020018083116200137257829003601f168201915b505050505081565b6000805b600b548110156200064457826001600160a01b0316600b8281548110620013bf57fe5b6000918252602090912001546001600160a01b03161415620013e65760019150506200064a565b6001016200139c565b6014546001600160a01b031681565b6019546001600160a01b031633146200142b5760405162461bcd60e51b8152600401620006919062002de8565b7fc95987c1992805ee34bdc915e017cceae36ba1c156b9911fa7e691e6435eb46e4283836040516200146093929190620031ff565b60405180910390a16000818152601a60209081526040808320600181018690554281556014548251633fa4f24560e01b815292519194936001600160a01b0390911692633fa4f2459260048083019392829003018186803b158015620014c557600080fd5b505afa158015620014da573d6000803e3d6000fd5b505050506040513d601f19601f82011682018060405250810190620015009190620028fc565b6014546040516303c8f2e360e21b81529192506001600160a01b031690630f23cb8c906200153390879060040162002bef565b60206040518083038186803b1580156200154c57600080fd5b505afa15801562001561573d6000803e3d6000fd5b505050506040513d601f19601f82011682018060405250810190620015879190620027ff565b156200167d576002828101805460ff1916600117905561271090600090620015d290620015ba9062000c6e898762002136565b62000c6e84620015cb8a886200215e565b9062001f3d565b905060006200161160016200160a6017600081548110620015ef57fe5b9060005260206000200154896200215e90919063ffffffff16565b9062002136565b6017805491925060009160001981019081106200162a57fe5b906000526020600020015487141562001650576200164a60648562001f3d565b62001664565b601754620016649062000c6e858562001f3d565b905062001673878286620021a2565b50505050620007db565b6002828101805460ff19169091179055620016976200231e565b601d805460ff191660011790556040517fbd33f7a3bfa88a467c9df5ae7d2341cf061084c386b20a0d48130f5cbce38a4d90620016d89085908790620031ca565b60405180910390a150505050565b6018546001600160a01b031681565b600d5481565b60035481565b6200170b62001e55565b6000546001600160a01b039081169116146200173b5760405162461bcd60e51b8152600401620006919062002fb7565b6001600160a01b038116620017645760405162461bcd60e51b8152600401620006919062002d1e565b600080546040516001600160a01b03808516939216917f8be0079c531659141344cd1fd0a4f28419497f9722a3daafe3b4186f6b6457e091a3600080546001600160a01b0319166001600160a01b0392909216919091179055565b600a546001600160a01b031681565b620017d862001e55565b6000546001600160a01b03908116911614620018085760405162461bcd60e51b8152600401620006919062002fb7565b6001600160a01b03811660009081526013602052604090205460ff161515600114620018485760405162461bcd60e51b81526004016200069190620030c4565b6001600160a01b03166000908152601360205260409020805460ff19169055565b6000606060006060600060606200187f62001274565b60158054604080516020601f600260001961010060018816150201909516949094049384018190048102820181019092528281529399508301828280156200190b5780601f10620018df576101008083540402835291602001916200190b565b820191906000526020600020905b815481529060010190602001808311620018ed57829003601f168201915b50506014546017549499506001600160a01b031697505067ffffffffffffffff831191505080156200193c57600080fd5b506040519080825280602002602001820160405280156200197a57816020015b620019666200276f565b8152602001906001900390816200195c5790505b50925060005b60175481101562001a60576000601782815481106200199b57fe5b90600052602060002001549050620019b26200276f565b6000828152601a6020908152604091829020825160608101845281548152600182015492810192909252600280820154929391929184019160ff1690811115620019f857fe5b600281111562001a0457fe5b815250509050604051806060016040528082600001518152602001826020015181526020018260400151600281111562001a3a57fe5b81525086848151811062001a4a57fe5b6020908102919091010152505060010162001980565b50600954600b5490925067ffffffffffffffff8111801562001a8157600080fd5b5060405190808252806020026020018201604052801562001abf57816020015b62001aab6200279b565b81526020019060019003908162001aa15790505b50905060005b600b5481101562001bc3576040518060400160405280600b838154811062001ae957fe5b9060005260206000200160009054906101000a90046001600160a01b03166001600160a01b0316815260200160046000600b858154811062001b2757fe5b9060005260206000200160009054906101000a90046001600160a01b03166001600160a01b03166001600160a01b031681526020019081526020016000205460056000600b868154811062001b7857fe5b60009182526020808320909101546001600160a01b03168352820192909252604001902054019052825183908390811062001baf57fe5b602090810291909101015260010162001ac5565b50909192939495565b60098181548110620010b657fe5b8062001be68162001398565b151560011462001c0a5760405162461bcd60e51b8152600401620006919062002f89565b60125460ff1615156001141562001c52573360009081526013602052604090205460ff16151560011462001c525760405162461bcd60e51b8152600401620006919062002e8a565b62001c696001600160a01b0383163330866200240f565b62001c7362001274565b6001600160a01b0316336001600160a01b03161462001dbe576001600160a01b0382166000908152600460209081526040808320546005909252909120548162001cbe828762002136565b111562001cdf5760405162461bcd60e51b81526004016200069190620030f2565b6001600160a01b03841660009081526005602052604090205462001d04908662002136565b6001600160a01b03851660009081526005602052604081209190915560075460085462001d39919062000c6e90899062001f3d565b6001600160a01b03808716600090815260066020526040908190205490516340c10f1960e01b8152929350169081906340c10f199062001d80903390869060040162002af5565b600060405180830381600087803b15801562001d9b57600080fd5b505af115801562001db0573d6000803e3d6000fd5b505050505050505062001dfd565b6001600160a01b03821660009081526004602052604090205462001de3908462002136565b6001600160a01b0383166000908152600460205260409020555b62001e0833620010e2565b62001e5057600980546001810182556000919091527f6e1540171b6c0c960b71a7020d9f60077f6af931a8bbf590da0223dacf75c7af0180546001600160a01b031916331790555b505050565b3390565b6060818062001e825750506040805180820190915260018152600360fc1b60208201526200064a565b8060005b811562001e9c57600101600a8204915062001e86565b60608167ffffffffffffffff8111801562001eb657600080fd5b506040519080825280601f01601f19166020018201604052801562001ee2576020820181803683370190505b50905060001982015b841562001f3357600a850660300160f81b8282806001900393508151811062001f1057fe5b60200101906001600160f81b031916908160001a905350600a8504945062001eeb565b5095945050505050565b60008262001f4e5750600062001f80565b8282028284828162001f5c57fe5b041462001f7d5760405162461bcd60e51b8152600401620006919062002f48565b90505b92915050565b600062001f7d83836040518060400160405280601a81526020017f536166654d6174683a206469766973696f6e206279207a65726f00000000000081525062002433565b62001e508363a9059cbb60e01b848460405160240162001fec92919062002af5565b60408051601f198184030181529190526020810180516001600160e01b03166001600160e01b0319909316929092179091526200246e565b80620020308162001398565b1515600114620020545760405162461bcd60e51b8152600401620006919062002f89565b6200205e62001e55565b6000546001600160a01b039081169116146200208e5760405162461bcd60e51b8152600401620006919062002fb7565b6001600160a01b03821660009081526004602090815260408083205460059092529091205480620020c083876200215e565b1015620020e15760405162461bcd60e51b8152600401620006919062002ebb565b6001600160a01b0384166000908152600460205260409020546200210690866200215e565b6001600160a01b0385166000818152600460205260409020919091556200212f90338762001fca565b5050505050565b60008282018381101562001f7d5760405162461bcd60e51b8152600401620006919062002d64565b600062001f7d83836040518060400160405280601e81526020017f536166654d6174683a207375627472616374696f6e206f766572666c6f77000081525062002505565b60005b600b54811015620022f7576000600b8281548110620021c057fe5b60009182526020808320909101546001600160a01b03168083526005909152604082205490925090620021fc6064860262000c6e848962001f3d565b6001600160a01b0384166000908152600560205260409020549091506200222490826200215e565b6001600160a01b03808516600081815260056020526040902092909255600a541614156200226b576000620022598262002534565b90506200226782826200215e565b9150505b6001600160a01b03831660009081526004602052604090205462002290908262002136565b6001600160a01b0384166000818152600460205260409081902092909255905188907f5b198a5cc7fe2897f7df50e07dfc99fb672c1b4c1d1c0b3d2fe4f8f386dabc7690620022e3908a908690620031ca565b60405180910390a3505050600101620021a5565b50620023168162000c6e84840360075462001f3d90919063ffffffff16565b600755505050565b60005b600b5481101562000ec3576000600b82815481106200233c57fe5b60009182526020808320909101546001600160a01b0316808352600582526040808420546004909352909220549192509081906200237b90826200215e565b6001600160a01b03808516600081815260046020526040902092909255600a54161415620023c2576000620023b08262002534565b9050620023be82826200215e565b9150505b6001600160a01b038316600090815260056020526040902054620023e7908262002136565b6001600160a01b03909316600090815260056020526040902092909255505060010162002321565b620007db846323b872dd60e01b85858560405160240162001fec9392919062002b0e565b60008183620024575760405162461bcd60e51b815260040162000691919062002c26565b5060008385816200246457fe5b0495945050505050565b6060620024c5826040518060400160405280602081526020017f5361666545524332303a206c6f772d6c6576656c2063616c6c206661696c6564815250856001600160a01b0316620026709092919063ffffffff16565b80519091501562001e505780806020019051810190620024e69190620027ff565b62001e505760405162461bcd60e51b815260040162000691906200313b565b600081848411156200252c5760405162461bcd60e51b815260040162000691919062002c26565b505050900390565b60408051808201909152600d81526c6275726e2875696e743235362960981b602090910152600c546000907f42966c689b5afe9b9b3f8a7103b2a19980d59629bfd6a20a60972312ed41d8369062002597906103e89062000c6e90869062001f3d565b600a546040519193506000916001600160a01b03909116908390620025c190869060240162002bef565b60408051601f198184030181529181526020820180516001600160e01b03166001600160e01b031990941693909317909252905162002601919062002a0b565b6000604051808303816000865af19150503d806000811462002640576040519150601f19603f3d011682016040523d82523d6000602084013e62002645565b606091505b5050905080620026695760405162461bcd60e51b8152600401620006919062002f04565b5050919050565b606062002681848460008562002689565b949350505050565b606062002696856200275b565b620026b55760405162461bcd60e51b8152600401620006919062003061565b60006060866001600160a01b03168587604051620026d4919062002a0b565b60006040518083038185875af1925050503d806000811462002713576040519150601f19603f3d011682016040523d82523d6000602084013e62002718565b606091505b509150915081156200272e579150620026819050565b8051156200273f5780518082602001fd5b8360405162461bcd60e51b815260040162000691919062002c26565b3b151590565b611c76806200326683390190565b60405180606001604052806000815260200160008152602001600060028111156200279657fe5b905290565b604080518082019091526000808252602082015290565b600060208284031215620027c4578081fd5b813562001f7d816200324f565b60008060408385031215620027e4578081fd5b8235620027f1816200324f565b946020939093013593505050565b60006020828403121562002811578081fd5b8151801515811462001f7d578182fd5b60006020828403121562002833578081fd5b815162001f7d816200324f565b60006020828403121562002852578081fd5b815167ffffffffffffffff808211156200286a578283fd5b818401915084601f8301126200287e578283fd5b8151818111156200288d578384fd5b604051601f8201601f191681016020018381118282101715620028ae578586fd5b604052818152838201602001871015620028c6578485fd5b620028d982602083016020870162003215565b9695505050505050565b600060208284031215620028f5578081fd5b5035919050565b6000602082840312156200290e578081fd5b5051919050565b6000806040838503121562002928578182fd5b8235915060208301356200293c816200324f565b809150509250929050565b600080604083850312156200295a578182fd5b50508035926020909101359150565b600080604083850312156200297c578182fd5b505080516020909101519092909150565b6000815180845260208085019450808401835b83811015620029d257815180516001600160a01b031688528301518388015260409096019590820190600101620029a0565b509495945050505050565b60008151808452620029f781602086016020860162003215565b601f01601f19169290920160200192915050565b6000825162002a1f81846020870162003215565b9190910192915050565b60006444534c412d60d81b8252835162002a4b81600585016020880162003215565b602d60f81b600591840191820152835162002a6e81600684016020880162003215565b01600601949350505050565b6000601960fa1b8252835162002a9881600185016020880162003215565b602d60f81b600191840191820152835162002abb81600284016020880162003215565b01600201949350505050565b6001600160a01b0391909116815260200190565b6001600160a01b0392831681529116602082015260400190565b6001600160a01b03929092168252602082015260400190565b6001600160a01b039384168152919092166020820152604081019190915260600190565b600060018060a01b038089168352602060c08185015262002b5760c085018a620029dd565b6040838a168187015260609350858203848701528189518084528484019150848b019350865b8181101562002bb757845180518452868101518785015284015162002ba28162003244565b83850152938501939186019160010162002b7d565b505088608088015286810360a088015262002bd381896200298d565b9d9c50505050505050505050505050565b901515815260200190565b90815260200190565b602081016006831062002c0757fe5b91905290565b604081016006841062002c1c57fe5b9281526020015290565b60006020825262001f7d6020830184620029dd565b60006040825262002c506040830185620029dd565b828103602084015262002c648185620029dd565b95945050505050565b602080825260189082015277155cd95c88185b1c9958591e481dda1a5d195b1a5cdd195960421b604082015260600190565b60208082526059908201527f43616e206f6e6c79207769746864726177207374616b6520616674657220746860408201527f652066696e616c20706572696f642069732066696e6973686564206f72206966606082015278081d1a194818dbdb9d1c9858dd081a5cc8189c995858da1959603a1b608082015260a00190565b60208082526026908201527f4f776e61626c653a206e6577206f776e657220697320746865207a65726f206160408201526564647265737360d01b606082015260800190565b6020808252601b908201527f536166654d6174683a206164646974696f6e206f766572666c6f770000000000604082015260600190565b6020808252602d908201527f546f6b656e206e6f7420616c6c6f7765642062792074686520534c415265676960408201526c1cdd1c9e4818dbdb9d1c9858dd609a1b606082015260800190565b60208082526025908201527f4f6e6c79204d657373656e6765722063616e2063616c6c20746869732066756e60408201526431ba34b7b760d91b606082015260800190565b6020808252603a908201527f43616e206f6e6c7920636c61696d206120636f6d70656e736174696f6e20696660408201527f20706f736974696f6e20697320626967676572207468616e2030000000000000606082015260800190565b602080825260179082015276155cd95c881a5cc81b9bdd081dda1a5d195b1a5cdd1959604a1b604082015260600190565b60208082526029908201527f53686f756c64206e6f74207769746864726177206d6f7265207468616e207573604082015268657273207374616b6560b81b606082015260800190565b60208082526024908201527f44534c41206275726e2070726f6365737320776173206e6f74207375636365736040820152631cd99d5b60e21b606082015260800190565b60208082526021908201527f536166654d6174683a206d756c7469706c69636174696f6e206f766572666c6f6040820152607760f81b606082015260800190565b6020808252601490820152731d1bdad95b881a5cc81b9bdd08185b1b1bddd95960621b604082015260600190565b6020808252818101527f4f776e61626c653a2063616c6c6572206973206e6f7420746865206f776e6572604082015260600190565b60208082526028908201527f43616e206f6e6c79207374616b65206f6e206e6f7420627265616368656420636040820152676f6e74726163747360c01b606082015260800190565b602080825260139082015272151bdad95b88185b1c9958591e481859191959606a1b604082015260600190565b6020808252601d908201527f416464726573733a2063616c6c20746f206e6f6e2d636f6e7472616374000000604082015260600190565b6020808252601290820152710616d6f756e742063616e6e6f7420626520360741b604082015260600190565b602080825260149082015273155cd95c881b9bdd081dda1a5d195b1a5cdd195960621b604082015260600190565b60208082526029908201527f43616e6e6f74207374616b65206d6f7265207468616e20534c412070726f7669604082015268646572207374616b6560b81b606082015260800190565b6020808252602a908201527f5361666545524332303a204552433230206f7065726174696f6e20646964206e6040820152691bdd081cdd58d8d9595960b21b606082015260800190565b60208082526025908201527f53686f756c64206e6f742062652063616c6c65642062792074686520534c412060408201526437bbb732b960d91b606082015260800190565b918252602082015260400190565b8381526020810183905260608101620031f18362003244565b826040830152949350505050565b9283526020830191909152604082015260600190565b60005b838110156200323257818101518382015260200162003218565b83811115620007db5750506000910152565b6003811062000ec357fe5b6001600160a01b038116811462000ec357600080fdfe60806040523480156200001157600080fd5b5060405162001c7638038062001c76833981810160405260408110156200003757600080fd5b81019080805160405193929190846401000000008211156200005857600080fd5b9083019060208201858111156200006e57600080fd5b82516401000000008111828201881017156200008957600080fd5b82525081516020918201929091019080838360005b83811015620000b85781810151838201526020016200009e565b50505050905090810190601f168015620000e65780820380516001836020036101000a031916815260200191505b50604052602001805160405193929190846401000000008211156200010a57600080fd5b9083019060208201858111156200012057600080fd5b82516401000000008111828201881017156200013b57600080fd5b82525081516020918201929091019080838360005b838110156200016a57818101518382015260200162000150565b50505050905090810190601f168015620001985780820380516001836020036101000a031916815260200191505b50604052505082518391508290620001b890600490602085019062000375565b508051620001ce90600590602084019062000375565b50506006805461ff001960ff1990911660121716905550620001fb6000620001f562000261565b62000265565b6200022a7f9f2df0fed2c77648de5860a4cc508cd0818c85b8b8a1ab4ceeef8d981c8956a6620001f562000261565b620002597f65d7a28e3265b37a6474929f336521b332c1681b933f6cb9f3376673440d862a620001f562000261565b505062000411565b3390565b62000271828262000275565b5050565b6000828152602081815260409091206200029a91839062000b81620002ee821b17901c565b156200027157620002aa62000261565b6001600160a01b0316816001600160a01b0316837f2f8788117e7eff1d82e926ec794901d17c78024a50270940304540a733656f0d60405160405180910390a45050565b600062000305836001600160a01b0384166200030e565b90505b92915050565b60006200031c83836200035d565b620003545750815460018181018455600084815260208082209093018490558454848252828601909352604090209190915562000308565b50600062000308565b60009081526001919091016020526040902054151590565b828054600181600116156101000203166002900490600052602060002090601f016020900481019282601f10620003b857805160ff1916838001178555620003e8565b82800160010185558215620003e8579182015b82811115620003e8578251825591602001919060010190620003cb565b50620003f6929150620003fa565b5090565b5b80821115620003f65760008155600101620003fb565b61185580620004216000396000f3fe608060405234801561001057600080fd5b50600436106101795760003560e01c806370a08231116100d9578063a457c2d711610087578063a457c2d71461047a578063a9059cbb146104a6578063ca15c873146104d2578063d5391393146104ef578063d547741f146104f7578063dd62ed3e14610523578063e63ab1e91461055157610179565b806370a08231146103a557806379cc6790146103cb5780638456cb59146103f75780639010d07c146103ff57806391d148541461043e57806395d89b411461046a578063a217fddf1461047257610179565b8063313ce56711610136578063313ce567146102d657806336568abe146102f457806339509351146103205780633f4ba83a1461034c57806340c10f191461035457806342966c68146103805780635c975abb1461039d57610179565b806306fdde031461017e578063095ea7b3146101fb57806318160ddd1461023b57806323b872dd14610255578063248a9ca31461028b5780632f2ff15d146102a8575b600080fd5b610186610559565b6040805160208082528351818301528351919283929083019185019080838360005b838110156101c05781810151838201526020016101a8565b50505050905090810190601f1680156101ed5780820380516001836020036101000a031916815260200191505b509250505060405180910390f35b6102276004803603604081101561021157600080fd5b506001600160a01b0381351690602001356105ef565b604080519115158252519081900360200190f35b61024361060d565b60408051918252519081900360200190f35b6102276004803603606081101561026b57600080fd5b506001600160a01b03813581169160208101359091169060400135610613565b610243600480360360208110156102a157600080fd5b503561069a565b6102d4600480360360408110156102be57600080fd5b50803590602001356001600160a01b03166106af565b005b6102de61071b565b6040805160ff9092168252519081900360200190f35b6102d46004803603604081101561030a57600080fd5b50803590602001356001600160a01b0316610724565b6102276004803603604081101561033657600080fd5b506001600160a01b038135169060200135610785565b6102d46107d3565b6102d46004803603604081101561036a57600080fd5b506001600160a01b038135169060200135610832565b6102d46004803603602081101561039657600080fd5b50356108a3565b6102276108b7565b610243600480360360208110156103bb57600080fd5b50356001600160a01b03166108c5565b6102d4600480360360408110156103e157600080fd5b506001600160a01b0381351690602001356108e0565b6102d461093a565b6104226004803603604081101561041557600080fd5b5080359060200135610997565b604080516001600160a01b039092168252519081900360200190f35b6102276004803603604081101561045457600080fd5b50803590602001356001600160a01b03166109b6565b6101866109ce565b610243610a2f565b6102276004803603604081101561049057600080fd5b506001600160a01b038135169060200135610a34565b610227600480360360408110156104bc57600080fd5b506001600160a01b038135169060200135610a9c565b610243600480360360208110156104e857600080fd5b5035610ab0565b610243610ac7565b6102d46004803603604081101561050d57600080fd5b50803590602001356001600160a01b0316610aeb565b6102436004803603604081101561053957600080fd5b506001600160a01b0381358116916020013516610b44565b610243610b6f565b60048054604080516020601f60026000196101006001881615020190951694909404938401819004810282018101909252828152606093909290918301828280156105e55780601f106105ba576101008083540402835291602001916105e5565b820191906000526020600020905b8154815290600101906020018083116105c857829003601f168201915b5050505050905090565b60006106036105fc610b96565b8484610b9a565b5060015b92915050565b60035490565b6000610620848484610c86565b6106908461062c610b96565b61068b8560405180606001604052806028815260200161163f602891396001600160a01b038a1660009081526002602052604081209061066a610b96565b6001600160a01b031681526020810191909152604001600020549190610dd1565b610b9a565b5060019392505050565b60009081526020819052604090206002015490565b6000828152602081905260409020600201546106d2906106cd610b96565b6109b6565b61070d5760405162461bcd60e51b815260040180806020018281038252602f81526020018061153d602f913960400191505060405180910390fd5b6107178282610e68565b5050565b60065460ff1690565b61072c610b96565b6001600160a01b0316816001600160a01b03161461077b5760405162461bcd60e51b815260040180806020018281038252602f8152602001806117c7602f913960400191505060405180910390fd5b6107178282610ed1565b6000610603610792610b96565b8461068b85600260006107a3610b96565b6001600160a01b03908116825260208083019390935260409182016000908120918c168152925290205490610f3a565b6107ed6000805160206116678339815191526106cd610b96565b6108285760405162461bcd60e51b815260040180806020018281038252603981526020018061158e6039913960400191505060405180910390fd5b610830610f94565b565b61085e7f9f2df0fed2c77648de5860a4cc508cd0818c85b8b8a1ab4ceeef8d981c8956a66106cd610b96565b6108995760405162461bcd60e51b81526004018080602001828103825260368152602001806116876036913960400191505060405180910390fd5b6107178282611038565b6108b46108ae610b96565b82611118565b50565b600654610100900460ff1690565b6001600160a01b031660009081526001602052604090205490565b6000610917826040518060600160405280602481526020016116bd602491396109108661090b610b96565b610b44565b9190610dd1565b905061092b83610925610b96565b83610b9a565b6109358383611118565b505050565b6109546000805160206116678339815191526106cd610b96565b61098f5760405162461bcd60e51b815260040180806020018281038252603781526020018061176b6037913960400191505060405180910390fd5b610830611202565b60008281526020819052604081206109af908361128a565b9392505050565b60008281526020819052604081206109af9083611296565b60058054604080516020601f60026000196101006001881615020190951694909404938401819004810282018101909252828152606093909290918301828280156105e55780601f106105ba576101008083540402835291602001916105e5565b600081565b6000610603610a41610b96565b8461068b856040518060600160405280602581526020016117a26025913960026000610a6b610b96565b6001600160a01b03908116825260208083019390935260409182016000908120918d16815292529020549190610dd1565b6000610603610aa9610b96565b8484610c86565b6000818152602081905260408120610607906112ab565b7f9f2df0fed2c77648de5860a4cc508cd0818c85b8b8a1ab4ceeef8d981c8956a681565b600082815260208190526040902060020154610b09906106cd610b96565b61077b5760405162461bcd60e51b815260040180806020018281038252603081526020018061160f6030913960400191505060405180910390fd5b6001600160a01b03918216600090815260026020908152604080832093909416825291909152205490565b60008051602061166783398151915281565b60006109af836001600160a01b0384166112b6565b3390565b6001600160a01b038316610bdf5760405162461bcd60e51b81526004018080602001828103825260248152602001806117476024913960400191505060405180910390fd5b6001600160a01b038216610c245760405162461bcd60e51b81526004018080602001828103825260228152602001806115c76022913960400191505060405180910390fd5b6001600160a01b03808416600081815260026020908152604080832094871680845294825291829020859055815185815291517f8c5be1e5ebec7d5bd14f71427d1e84f3dd0314c0f7b2291e5b200ac8c7c3b9259281900390910190a3505050565b6001600160a01b038316610ccb5760405162461bcd60e51b81526004018080602001828103825260258152602001806117226025913960400191505060405180910390fd5b6001600160a01b038216610d105760405162461bcd60e51b815260040180806020018281038252602381526020018061151a6023913960400191505060405180910390fd5b610d1b838383611300565b610d58816040518060600160405280602681526020016115e9602691396001600160a01b0386166000908152600160205260409020549190610dd1565b6001600160a01b038085166000908152600160205260408082209390935590841681522054610d879082610f3a565b6001600160a01b0380841660008181526001602090815260409182902094909455805185815290519193928716926000805160206116e183398151915292918290030190a3505050565b60008184841115610e605760405162461bcd60e51b81526004018080602001828103825283818151815260200191508051906020019080838360005b83811015610e25578181015183820152602001610e0d565b50505050905090810190601f168015610e525780820380516001836020036101000a031916815260200191505b509250505060405180910390fd5b505050900390565b6000828152602081905260409020610e809082610b81565b1561071757610e8d610b96565b6001600160a01b0316816001600160a01b0316837f2f8788117e7eff1d82e926ec794901d17c78024a50270940304540a733656f0d60405160405180910390a45050565b6000828152602081905260409020610ee9908261130b565b1561071757610ef6610b96565b6001600160a01b0316816001600160a01b0316837ff6391f5c32d9c69d2a47ea670b442974b53935d1edc7fd64eb21e047a839171b60405160405180910390a45050565b6000828201838110156109af576040805162461bcd60e51b815260206004820152601b60248201527f536166654d6174683a206164646974696f6e206f766572666c6f770000000000604482015290519081900360640190fd5b600654610100900460ff16610fe7576040805162461bcd60e51b815260206004820152601460248201527314185d5cd8589b194e881b9bdd081c185d5cd95960621b604482015290519081900360640190fd5b6006805461ff00191690557f5db9ee0a495bf2e6ff9c91a7834c1ba4fdd244a5e8aa4e537bd38aeae4b073aa61101b610b96565b604080516001600160a01b039092168252519081900360200190a1565b6001600160a01b038216611093576040805162461bcd60e51b815260206004820152601f60248201527f45524332303a206d696e7420746f20746865207a65726f206164647265737300604482015290519081900360640190fd5b61109f60008383611300565b6003546110ac9082610f3a565b6003556001600160a01b0382166000908152600160205260409020546110d29082610f3a565b6001600160a01b03831660008181526001602090815260408083209490945583518581529351929391926000805160206116e18339815191529281900390910190a35050565b6001600160a01b03821661115d5760405162461bcd60e51b81526004018080602001828103825260218152602001806117016021913960400191505060405180910390fd5b61116982600083611300565b6111a68160405180606001604052806022815260200161156c602291396001600160a01b0385166000908152600160205260409020549190610dd1565b6001600160a01b0383166000908152600160205260409020556003546111cc9082611320565b6003556040805182815290516000916001600160a01b038516916000805160206116e18339815191529181900360200190a35050565b600654610100900460ff1615611252576040805162461bcd60e51b815260206004820152601060248201526f14185d5cd8589b194e881c185d5cd95960821b604482015290519081900360640190fd5b6006805461ff0019166101001790557f62e78cea01bee320cd4e420270b5ea74000d11b0c9f74754ebdbfc544b05a25861101b610b96565b60006109af8383611362565b60006109af836001600160a01b0384166113c6565b6000610607826113de565b60006112c283836113c6565b6112f857508154600181810184556000848152602080822090930184905584548482528286019093526040902091909155610607565b506000610607565b6109358383836113e2565b60006109af836001600160a01b038416611431565b60006109af83836040518060400160405280601e81526020017f536166654d6174683a207375627472616374696f6e206f766572666c6f770000815250610dd1565b815460009082106113a45760405162461bcd60e51b81526004018080602001828103825260228152602001806114f86022913960400191505060405180910390fd5b8260000182815481106113b357fe5b9060005260206000200154905092915050565b60009081526001919091016020526040902054151590565b5490565b6113ed838383610935565b6113f56108b7565b156109355760405162461bcd60e51b815260040180806020018281038252602a8152602001806117f6602a913960400191505060405180910390fd5b600081815260018301602052604081205480156114ed578354600019808301919081019060009087908390811061146457fe5b906000526020600020015490508087600001848154811061148157fe5b6000918252602080832090910192909255828152600189810190925260409020908401905586548790806114b157fe5b60019003818190600052602060002001600090559055866001016000878152602001908152602001600020600090556001945050505050610607565b600091505061060756fe456e756d657261626c655365743a20696e646578206f7574206f6620626f756e647345524332303a207472616e7366657220746f20746865207a65726f2061646472657373416363657373436f6e74726f6c3a2073656e646572206d75737420626520616e2061646d696e20746f206772616e7445524332303a206275726e20616d6f756e7420657863656564732062616c616e636545524332305072657365744d696e7465725061757365723a206d75737420686176652070617573657220726f6c6520746f20756e706175736545524332303a20617070726f766520746f20746865207a65726f206164647265737345524332303a207472616e7366657220616d6f756e7420657863656564732062616c616e6365416363657373436f6e74726f6c3a2073656e646572206d75737420626520616e2061646d696e20746f207265766f6b6545524332303a207472616e7366657220616d6f756e74206578636565647320616c6c6f77616e636565d7a28e3265b37a6474929f336521b332c1681b933f6cb9f3376673440d862a45524332305072657365744d696e7465725061757365723a206d7573742068617665206d696e74657220726f6c6520746f206d696e7445524332303a206275726e20616d6f756e74206578636565647320616c6c6f77616e6365ddf252ad1be2c89b69c2b068fc378daa952ba7f163c4a11628f55a4df523b3ef45524332303a206275726e2066726f6d20746865207a65726f206164647265737345524332303a207472616e736665722066726f6d20746865207a65726f206164647265737345524332303a20617070726f76652066726f6d20746865207a65726f206164647265737345524332305072657365744d696e7465725061757365723a206d75737420686176652070617573657220726f6c6520746f20706175736545524332303a2064656372656173656420616c6c6f77616e63652062656c6f77207a65726f416363657373436f6e74726f6c3a2063616e206f6e6c792072656e6f756e636520726f6c657320666f722073656c6645524332305061757361626c653a20746f6b656e207472616e73666572207768696c6520706175736564a26469706673582212206130014f97dbd16fd03646e95b4536191f4361184f9662a1f152d08acc1c3a1164736f6c634300060c0033a26469706673582212209c7080bcec176d6480f516616846fb60e1c0f69f9416ad8d1f547beb76025bfa64736f6c634300060c003360806040523480156200001157600080fd5b5060405162001c7638038062001c76833981810160405260408110156200003757600080fd5b81019080805160405193929190846401000000008211156200005857600080fd5b9083019060208201858111156200006e57600080fd5b82516401000000008111828201881017156200008957600080fd5b82525081516020918201929091019080838360005b83811015620000b85781810151838201526020016200009e565b50505050905090810190601f168015620000e65780820380516001836020036101000a031916815260200191505b50604052602001805160405193929190846401000000008211156200010a57600080fd5b9083019060208201858111156200012057600080fd5b82516401000000008111828201881017156200013b57600080fd5b82525081516020918201929091019080838360005b838110156200016a57818101518382015260200162000150565b50505050905090810190601f168015620001985780820380516001836020036101000a031916815260200191505b50604052505082518391508290620001b890600490602085019062000375565b508051620001ce90600590602084019062000375565b50506006805461ff001960ff1990911660121716905550620001fb6000620001f562000261565b62000265565b6200022a7f9f2df0fed2c77648de5860a4cc508cd0818c85b8b8a1ab4ceeef8d981c8956a6620001f562000261565b620002597f65d7a28e3265b37a6474929f336521b332c1681b933f6cb9f3376673440d862a620001f562000261565b505062000411565b3390565b62000271828262000275565b5050565b6000828152602081815260409091206200029a91839062000b81620002ee821b17901c565b156200027157620002aa62000261565b6001600160a01b0316816001600160a01b0316837f2f8788117e7eff1d82e926ec794901d17c78024a50270940304540a733656f0d60405160405180910390a45050565b600062000305836001600160a01b0384166200030e565b90505b92915050565b60006200031c83836200035d565b620003545750815460018181018455600084815260208082209093018490558454848252828601909352604090209190915562000308565b50600062000308565b60009081526001919091016020526040902054151590565b828054600181600116156101000203166002900490600052602060002090601f016020900481019282601f10620003b857805160ff1916838001178555620003e8565b82800160010185558215620003e8579182015b82811115620003e8578251825591602001919060010190620003cb565b50620003f6929150620003fa565b5090565b5b80821115620003f65760008155600101620003fb565b61185580620004216000396000f3fe608060405234801561001057600080fd5b50600436106101795760003560e01c806370a08231116100d9578063a457c2d711610087578063a457c2d71461047a578063a9059cbb146104a6578063ca15c873146104d2578063d5391393146104ef578063d547741f146104f7578063dd62ed3e14610523578063e63ab1e91461055157610179565b806370a08231146103a557806379cc6790146103cb5780638456cb59146103f75780639010d07c146103ff57806391d148541461043e57806395d89b411461046a578063a217fddf1461047257610179565b8063313ce56711610136578063313ce567146102d657806336568abe146102f457806339509351146103205780633f4ba83a1461034c57806340c10f191461035457806342966c68146103805780635c975abb1461039d57610179565b806306fdde031461017e578063095ea7b3146101fb57806318160ddd1461023b57806323b872dd14610255578063248a9ca31461028b5780632f2ff15d146102a8575b600080fd5b610186610559565b6040805160208082528351818301528351919283929083019185019080838360005b838110156101c05781810151838201526020016101a8565b50505050905090810190601f1680156101ed5780820380516001836020036101000a031916815260200191505b509250505060405180910390f35b6102276004803603604081101561021157600080fd5b506001600160a01b0381351690602001356105ef565b604080519115158252519081900360200190f35b61024361060d565b60408051918252519081900360200190f35b6102276004803603606081101561026b57600080fd5b506001600160a01b03813581169160208101359091169060400135610613565b610243600480360360208110156102a157600080fd5b503561069a565b6102d4600480360360408110156102be57600080fd5b50803590602001356001600160a01b03166106af565b005b6102de61071b565b6040805160ff9092168252519081900360200190f35b6102d46004803603604081101561030a57600080fd5b50803590602001356001600160a01b0316610724565b6102276004803603604081101561033657600080fd5b506001600160a01b038135169060200135610785565b6102d46107d3565b6102d46004803603604081101561036a57600080fd5b506001600160a01b038135169060200135610832565b6102d46004803603602081101561039657600080fd5b50356108a3565b6102276108b7565b610243600480360360208110156103bb57600080fd5b50356001600160a01b03166108c5565b6102d4600480360360408110156103e157600080fd5b506001600160a01b0381351690602001356108e0565b6102d461093a565b6104226004803603604081101561041557600080fd5b5080359060200135610997565b604080516001600160a01b039092168252519081900360200190f35b6102276004803603604081101561045457600080fd5b50803590602001356001600160a01b03166109b6565b6101866109ce565b610243610a2f565b6102276004803603604081101561049057600080fd5b506001600160a01b038135169060200135610a34565b610227600480360360408110156104bc57600080fd5b506001600160a01b038135169060200135610a9c565b610243600480360360208110156104e857600080fd5b5035610ab0565b610243610ac7565b6102d46004803603604081101561050d57600080fd5b50803590602001356001600160a01b0316610aeb565b6102436004803603604081101561053957600080fd5b506001600160a01b0381358116916020013516610b44565b610243610b6f565b60048054604080516020601f60026000196101006001881615020190951694909404938401819004810282018101909252828152606093909290918301828280156105e55780601f106105ba576101008083540402835291602001916105e5565b820191906000526020600020905b8154815290600101906020018083116105c857829003601f168201915b5050505050905090565b60006106036105fc610b96565b8484610b9a565b5060015b92915050565b60035490565b6000610620848484610c86565b6106908461062c610b96565b61068b8560405180606001604052806028815260200161163f602891396001600160a01b038a1660009081526002602052604081209061066a610b96565b6001600160a01b031681526020810191909152604001600020549190610dd1565b610b9a565b5060019392505050565b60009081526020819052604090206002015490565b6000828152602081905260409020600201546106d2906106cd610b96565b6109b6565b61070d5760405162461bcd60e51b815260040180806020018281038252602f81526020018061153d602f913960400191505060405180910390fd5b6107178282610e68565b5050565b60065460ff1690565b61072c610b96565b6001600160a01b0316816001600160a01b03161461077b5760405162461bcd60e51b815260040180806020018281038252602f8152602001806117c7602f913960400191505060405180910390fd5b6107178282610ed1565b6000610603610792610b96565b8461068b85600260006107a3610b96565b6001600160a01b03908116825260208083019390935260409182016000908120918c168152925290205490610f3a565b6107ed6000805160206116678339815191526106cd610b96565b6108285760405162461bcd60e51b815260040180806020018281038252603981526020018061158e6039913960400191505060405180910390fd5b610830610f94565b565b61085e7f9f2df0fed2c77648de5860a4cc508cd0818c85b8b8a1ab4ceeef8d981c8956a66106cd610b96565b6108995760405162461bcd60e51b81526004018080602001828103825260368152602001806116876036913960400191505060405180910390fd5b6107178282611038565b6108b46108ae610b96565b82611118565b50565b600654610100900460ff1690565b6001600160a01b031660009081526001602052604090205490565b6000610917826040518060600160405280602481526020016116bd602491396109108661090b610b96565b610b44565b9190610dd1565b905061092b83610925610b96565b83610b9a565b6109358383611118565b505050565b6109546000805160206116678339815191526106cd610b96565b61098f5760405162461bcd60e51b815260040180806020018281038252603781526020018061176b6037913960400191505060405180910390fd5b610830611202565b60008281526020819052604081206109af908361128a565b9392505050565b60008281526020819052604081206109af9083611296565b60058054604080516020601f60026000196101006001881615020190951694909404938401819004810282018101909252828152606093909290918301828280156105e55780601f106105ba576101008083540402835291602001916105e5565b600081565b6000610603610a41610b96565b8461068b856040518060600160405280602581526020016117a26025913960026000610a6b610b96565b6001600160a01b03908116825260208083019390935260409182016000908120918d16815292529020549190610dd1565b6000610603610aa9610b96565b8484610c86565b6000818152602081905260408120610607906112ab565b7f9f2df0fed2c77648de5860a4cc508cd0818c85b8b8a1ab4ceeef8d981c8956a681565b600082815260208190526040902060020154610b09906106cd610b96565b61077b5760405162461bcd60e51b815260040180806020018281038252603081526020018061160f6030913960400191505060405180910390fd5b6001600160a01b03918216600090815260026020908152604080832093909416825291909152205490565b60008051602061166783398151915281565b60006109af836001600160a01b0384166112b6565b3390565b6001600160a01b038316610bdf5760405162461bcd60e51b81526004018080602001828103825260248152602001806117476024913960400191505060405180910390fd5b6001600160a01b038216610c245760405162461bcd60e51b81526004018080602001828103825260228152602001806115c76022913960400191505060405180910390fd5b6001600160a01b03808416600081815260026020908152604080832094871680845294825291829020859055815185815291517f8c5be1e5ebec7d5bd14f71427d1e84f3dd0314c0f7b2291e5b200ac8c7c3b9259281900390910190a3505050565b6001600160a01b038316610ccb5760405162461bcd60e51b81526004018080602001828103825260258152602001806117226025913960400191505060405180910390fd5b6001600160a01b038216610d105760405162461bcd60e51b815260040180806020018281038252602381526020018061151a6023913960400191505060405180910390fd5b610d1b838383611300565b610d58816040518060600160405280602681526020016115e9602691396001600160a01b0386166000908152600160205260409020549190610dd1565b6001600160a01b038085166000908152600160205260408082209390935590841681522054610d879082610f3a565b6001600160a01b0380841660008181526001602090815260409182902094909455805185815290519193928716926000805160206116e183398151915292918290030190a3505050565b60008184841115610e605760405162461bcd60e51b81526004018080602001828103825283818151815260200191508051906020019080838360005b83811015610e25578181015183820152602001610e0d565b50505050905090810190601f168015610e525780820380516001836020036101000a031916815260200191505b509250505060405180910390fd5b505050900390565b6000828152602081905260409020610e809082610b81565b1561071757610e8d610b96565b6001600160a01b0316816001600160a01b0316837f2f8788117e7eff1d82e926ec794901d17c78024a50270940304540a733656f0d60405160405180910390a45050565b6000828152602081905260409020610ee9908261130b565b1561071757610ef6610b96565b6001600160a01b0316816001600160a01b0316837ff6391f5c32d9c69d2a47ea670b442974b53935d1edc7fd64eb21e047a839171b60405160405180910390a45050565b6000828201838110156109af576040805162461bcd60e51b815260206004820152601b60248201527f536166654d6174683a206164646974696f6e206f766572666c6f770000000000604482015290519081900360640190fd5b600654610100900460ff16610fe7576040805162461bcd60e51b815260206004820152601460248201527314185d5cd8589b194e881b9bdd081c185d5cd95960621b604482015290519081900360640190fd5b6006805461ff00191690557f5db9ee0a495bf2e6ff9c91a7834c1ba4fdd244a5e8aa4e537bd38aeae4b073aa61101b610b96565b604080516001600160a01b039092168252519081900360200190a1565b6001600160a01b038216611093576040805162461bcd60e51b815260206004820152601f60248201527f45524332303a206d696e7420746f20746865207a65726f206164647265737300604482015290519081900360640190fd5b61109f60008383611300565b6003546110ac9082610f3a565b6003556001600160a01b0382166000908152600160205260409020546110d29082610f3a565b6001600160a01b03831660008181526001602090815260408083209490945583518581529351929391926000805160206116e18339815191529281900390910190a35050565b6001600160a01b03821661115d5760405162461bcd60e51b81526004018080602001828103825260218152602001806117016021913960400191505060405180910390fd5b61116982600083611300565b6111a68160405180606001604052806022815260200161156c602291396001600160a01b0385166000908152600160205260409020549190610dd1565b6001600160a01b0383166000908152600160205260409020556003546111cc9082611320565b6003556040805182815290516000916001600160a01b038516916000805160206116e18339815191529181900360200190a35050565b600654610100900460ff1615611252576040805162461bcd60e51b815260206004820152601060248201526f14185d5cd8589b194e881c185d5cd95960821b604482015290519081900360640190fd5b6006805461ff0019166101001790557f62e78cea01bee320cd4e420270b5ea74000d11b0c9f74754ebdbfc544b05a25861101b610b96565b60006109af8383611362565b60006109af836001600160a01b0384166113c6565b6000610607826113de565b60006112c283836113c6565b6112f857508154600181810184556000848152602080822090930184905584548482528286019093526040902091909155610607565b506000610607565b6109358383836113e2565b60006109af836001600160a01b038416611431565b60006109af83836040518060400160405280601e81526020017f536166654d6174683a207375627472616374696f6e206f766572666c6f770000815250610dd1565b815460009082106113a45760405162461bcd60e51b81526004018080602001828103825260228152602001806114f86022913960400191505060405180910390fd5b8260000182815481106113b357fe5b9060005260206000200154905092915050565b60009081526001919091016020526040902054151590565b5490565b6113ed838383610935565b6113f56108b7565b156109355760405162461bcd60e51b815260040180806020018281038252602a8152602001806117f6602a913960400191505060405180910390fd5b600081815260018301602052604081205480156114ed578354600019808301919081019060009087908390811061146457fe5b906000526020600020015490508087600001848154811061148157fe5b6000918252602080832090910192909255828152600189810190925260409020908401905586548790806114b157fe5b60019003818190600052602060002001600090559055866001016000878152602001908152602001600020600090556001945050505050610607565b600091505061060756fe456e756d657261626c655365743a20696e646578206f7574206f6620626f756e647345524332303a207472616e7366657220746f20746865207a65726f2061646472657373416363657373436f6e74726f6c3a2073656e646572206d75737420626520616e2061646d696e20746f206772616e7445524332303a206275726e20616d6f756e7420657863656564732062616c616e636545524332305072657365744d696e7465725061757365723a206d75737420686176652070617573657220726f6c6520746f20756e706175736545524332303a20617070726f766520746f20746865207a65726f206164647265737345524332303a207472616e7366657220616d6f756e7420657863656564732062616c616e6365416363657373436f6e74726f6c3a2073656e646572206d75737420626520616e2061646d696e20746f207265766f6b6545524332303a207472616e7366657220616d6f756e74206578636565647320616c6c6f77616e636565d7a28e3265b37a6474929f336521b332c1681b933f6cb9f3376673440d862a45524332305072657365744d696e7465725061757365723a206d7573742068617665206d696e74657220726f6c6520746f206d696e7445524332303a206275726e20616d6f756e74206578636565647320616c6c6f77616e6365ddf252ad1be2c89b69c2b068fc378daa952ba7f163c4a11628f55a4df523b3ef45524332303a206275726e2066726f6d20746865207a65726f206164647265737345524332303a207472616e736665722066726f6d20746865207a65726f206164647265737345524332303a20617070726f76652066726f6d20746865207a65726f206164647265737345524332305072657365744d696e7465725061757365723a206d75737420686176652070617573657220726f6c6520746f20706175736545524332303a2064656372656173656420616c6c6f77616e63652062656c6f77207a65726f416363657373436f6e74726f6c3a2063616e206f6e6c792072656e6f756e636520726f6c657320666f722073656c6645524332305061757361626c653a20746f6b656e207472616e73666572207768696c6520706175736564a26469706673582212206130014f97dbd16fd03646e95b4536191f4361184f9662a1f152d08acc1c3a1164736f6c634300060c00338be0079c531659141344cd1fd0a4f28419497f9722a3daafe3b4186f6b6457e0",
  "immutableReferences": {},
  "source": "// SPDX-License-Identifier: MIT\npragma solidity ^0.6.0;\npragma experimental ABIEncoderV2;\n\nimport \"@openzeppelin/contracts/access/Ownable.sol\";\nimport \"@openzeppelin/contracts/token/ERC20/IERC20.sol\";\nimport \"@openzeppelin/contracts/math/SafeMath.sol\";\nimport \"./SLO.sol\";\nimport \"./SLARegistry.sol\";\nimport \"./StakeRegistry.sol\";\nimport \"./PeriodRegistry.sol\";\nimport \"./Staking.sol\";\n\n/**\n * @title SLA\n * @dev SLA is a service level agreement contract used for service downtime\n * compensation\n */\ncontract SLA is Staking {\n    using SafeMath for uint256;\n\n    enum Status {NotVerified, Respected, NotRespected}\n\n    /// @dev Struct used for storing period status\n    struct SLAPeriod {\n        uint256 timestamp;\n        uint256 sli;\n        Status status;\n    }\n\n    struct TokenStake {\n        address tokenAddress;\n        uint256 stake;\n    }\n\n    /// @dev address of the SLO\n    SLO public slo;\n\n    /// @dev The ipfs hash that stores extra information about the agreement\n    string public ipfsHash;\n\n    /// @dev uint8 of the period type\n    PeriodRegistry.PeriodType public periodType;\n\n    PeriodRegistry public periodRegistry;\n\n    /// @dev array of he allowed canonical period ids\n    uint256[] public periodIds;\n\n    /// @dev The address of the slaRegistry contract\n    SLARegistry public slaRegistry;\n\n    /// @dev The address of the messenger\n    address public messengerAddress;\n\n    /// @dev periodId=>SLAPeriod mapping\n    mapping(uint256 => SLAPeriod) public slaPeriods;\n\n    /// @dev block number of SLA deployment\n    uint256 public creationBlockNumber;\n\n    /// @dev extra data for customized workflows\n    bytes32[] public extraData;\n\n    /// @dev states if the contract was breached or not\n    bool private _breachedContract = false;\n\n    /**\n     * @dev event for SLI creation logging\n     * @param _timestamp 1. the time the SLI has been registered\n     * @param _sli 2. the value of the SLI\n     * @param _periodId 3. the id of the given period\n     */\n    event SLICreated(uint256 _timestamp, uint256 _sli, uint256 _periodId);\n\n    /**\n     * @dev event for SLI creation logging\n     * @param _periodId 1. the id of the given period\n     * @param _sli 2. value of the SLI\n     */\n    event SLANotRespected(uint256 _periodId, uint256 _sli);\n\n    /**\n     * @dev throws if called by any address other than the messenger contract.\n     */\n    modifier onlyMessenger() {\n        require(\n            msg.sender == messengerAddress,\n            \"Only Messenger can call this function\"\n        );\n        _;\n    }\n\n    /**\n     * @dev throws if called by any address other than the messenger contract.\n     */\n    modifier onlySLARegistry() {\n        require(\n            msg.sender == address(slaRegistry),\n            \"Only SLARegistry can call this function\"\n        );\n        _;\n    }\n\n    /**\n     * @param _owner 1. address of the owner of the service level agreement\n     * @param _SLO 2. address of the SLO\n     * @param _ipfsHash 3. string with the ipfs hash that contains SLA information\n     * @param _periodIds 4. id of the allowed canonical periods\n     * @param _periodType 5. period type of the SLA contract\n     * @param _stakeRegistry 6. stakeRegistry address\n     * @param _periodRegistry 7. periodRegistry address\n     * @param _whitelisted 8. boolean to declare whitelisted contracts\n     * @param _extraData 9. array of bytes32 to store extra data on deployment time\n     * @param _slaID 10. identifies the SLA to uniquely to emit dTokens\n     */\n    constructor(\n        address _owner,\n        SLO _SLO,\n        string memory _ipfsHash,\n        address _messengerAddress,\n        uint256[] memory _periodIds,\n        PeriodRegistry.PeriodType _periodType,\n        address _stakeRegistry,\n        address _periodRegistry,\n        bool _whitelisted,\n        bytes32[] memory _extraData,\n        uint256 _slaID\n    )\n        public\n        Staking(\n            _stakeRegistry,\n            _periodRegistry,\n            _periodType,\n            _periodIds.length,\n            _whitelisted,\n            _slaID\n        )\n    {\n        transferOwnership(_owner);\n        ipfsHash = _ipfsHash;\n        messengerAddress = _messengerAddress;\n        slaRegistry = SLARegistry(msg.sender);\n        periodRegistry = PeriodRegistry(_periodRegistry);\n        creationBlockNumber = block.number;\n        periodIds = _periodIds;\n        periodType = _periodType;\n        slo = _SLO;\n        extraData = _extraData;\n    }\n\n    /**\n     * @dev external function to register SLI's and check them against the SLO's\n     * @param _sli 1. the value of the SLI to check\n     * @param _periodId 2. the id of the given period\n     */\n    function registerSLI(uint256 _sli, uint256 _periodId)\n        external\n        onlyMessenger\n    {\n        emit SLICreated(block.timestamp, _sli, _periodId);\n        SLAPeriod storage slaPeriod = slaPeriods[_periodId];\n        slaPeriod.sli = _sli;\n        slaPeriod.timestamp = block.timestamp;\n        uint256 sloValue = slo.value();\n        if (slo.isRespected(_sli)) {\n            slaPeriod.status = Status.Respected;\n            uint256 precision = 10000;\n            // deviation = (sli-slo)*precision/((sli+slo)/2)\n            uint256 deviation =\n                _sli.sub(sloValue).mul(precision).div(\n                    _sli.add(sloValue).div(2)\n                );\n            // to get the reward formula, we get the periodId but respecting to the SLA\n            // because _periodId is the periodId of the platform\n            // e.g. if periodIds = 7,8,9,10, normalized periods are = 1,2,3,4\n            uint256 normalizedPeriodId = _periodId.sub(periodIds[0]).add(1);\n\n            // if is the last period, then deliver the whole usersStake to the provider\n            uint256 rewardPercentage =\n                _periodId != periodIds[periodIds.length - 1]\n                    ? deviation.mul(normalizedPeriodId).div(periodIds.length)\n                    : uint256(100).mul(precision);\n            _setRespectedPeriodReward(_periodId, rewardPercentage, precision);\n        } else {\n            slaPeriod.status = Status.NotRespected;\n            _setUsersCompensation();\n            _breachedContract = true;\n            emit SLANotRespected(_periodId, _sli);\n        }\n    }\n\n    function isAllowedPeriod(uint256 _periodId) public view returns (bool) {\n        for (uint256 index = 0; index < periodIds.length; index++) {\n            if (periodIds[index] == _periodId) {\n                return true;\n            }\n        }\n        return false;\n    }\n\n    /**\n     *@dev stake _amount tokens into the _token contract\n     *@param _amount 1. amount to be staked\n     *@param _token 2. address of the ERC to be staked\n     */\n\n    function stakeTokens(uint256 _amount, address _token) public {\n        require(_amount > 0, \"amount cannot be 0\");\n        require(\n            _breachedContract == false,\n            \"Can only stake on not breached contracts\"\n        );\n        _stake(_amount, _token);\n        StakeRegistry stakeRegistry = slaRegistry.stakeRegistry();\n        stakeRegistry.registerStakedSla(msg.sender, address(slaRegistry));\n    }\n\n    /**\n     *@dev withdraw _amount tokens from the _token contract\n     *@param _amount 1. amount to be staked\n     *@param _tokenAddress 2. address of the ERC to be staked\n     */\n\n    function withdrawStakedTokens(uint256 _amount, address _tokenAddress)\n        public\n    {\n        require(_amount > 0, \"amount cannot be 0\");\n        uint256 lastValidPeriodId = periodIds[periodIds.length - 1];\n        (, uint256 endOfLastValidPeriod) =\n            periodRegistry.getPeriodStartAndEnd(periodType, lastValidPeriodId);\n        // providers and users can withdraw only if the contract is breached\n        // or if the last period is finished and the period status was verified\n        if (msg.sender != owner()) {\n            require(\n                _breachedContract == true ||\n                    (block.timestamp >= endOfLastValidPeriod &&\n                        slaPeriods[lastValidPeriodId].status !=\n                        Status.NotVerified),\n                \"Can only withdraw stake after the final period is finished or if the contract is breached\"\n            );\n        }\n        _withdraw(_amount, _tokenAddress);\n    }\n\n    /**\n     *@dev withdraw provider reward of a given token address\n     *@param _tokenAddress 1. address of the token to withdraw rewards\n     */\n\n    function claimUserCompensation(address _tokenAddress) public {\n        _claimCompensation(_tokenAddress);\n    }\n\n    /**\n     * @dev external view function that returns all agreement information\n     * @return _slaOwner 1. address  owner\n     * @return _ipfsHash 2. string  ipfsHash\n     * @return _SLO 3. addresses of the SLO\n     * @return _SLAPeriods 5. SLAPeriod[]\n     * @return _stakersCount 6. amount of stakers\n     * @return _tokensStake 7. SLAPeriod[]  addresses array\n     */\n\n    function getDetails()\n        external\n        view\n        returns (\n            address _slaOwner,\n            string memory _ipfsHash,\n            SLO _SLO,\n            SLAPeriod[] memory _SLAPeriods,\n            uint256 _stakersCount,\n            TokenStake[] memory _tokensStake\n        )\n    {\n        _slaOwner = owner();\n        _ipfsHash = ipfsHash;\n        _SLO = slo;\n        _SLAPeriods = new SLAPeriod[](periodIds.length);\n        for (uint256 index = 0; index < periodIds.length; index++) {\n            uint256 periodId = periodIds[index];\n            SLAPeriod memory slaPeriod = slaPeriods[periodId];\n            _SLAPeriods[index] = SLAPeriod({\n                status: slaPeriod.status,\n                sli: slaPeriod.sli,\n                timestamp: slaPeriod.timestamp\n            });\n        }\n        _stakersCount = stakers.length;\n        _tokensStake = new TokenStake[](allowedTokens.length);\n        for (uint256 index = 0; index < allowedTokens.length; index++) {\n            _tokensStake[index] = TokenStake({\n                tokenAddress: allowedTokens[index],\n                stake: usersPool[allowedTokens[index]] +\n                    providerPool[allowedTokens[index]]\n            });\n        }\n    }\n\n    function breachedContract() public view returns (bool) {\n        return _breachedContract;\n    }\n}\n",
  "sourcePath": "/Users/matiasbn/Desktop/stacktical/stacktical-dsla-contracts/contracts/SLA.sol",
  "compiler": {
    "name": "solc",
    "version": "0.6.12+commit.27d51765.Emscripten.clang"
  },
  "schemaVersion": "3.3.3",
  "updatedAt": "2021-02-23T21:33:54.373Z",
  "devdoc": {
    "details": "SLA is a service level agreement contract used for service downtime compensation",
    "events": {
      "SLANotRespected(uint256,uint256)": {
        "details": "event for SLI creation logging",
        "params": {
          "_periodId": "1. the id of the given period",
          "_sli": "2. value of the SLI"
        }
      },
      "SLICreated(uint256,uint256,uint256)": {
        "details": "event for SLI creation logging",
        "params": {
          "_periodId": "3. the id of the given period",
          "_sli": "2. the value of the SLI",
          "_timestamp": "1. the time the SLI has been registered"
        }
      }
    },
    "kind": "dev",
    "methods": {
      "_claimCompensation(address)": {
        "details": "claim user compensation. Transfers both the compensation and the user remaining stake.",
        "params": {
          "_tokenAddress": "1. address of the token to claim compensation"
        }
      },
      "addAllowedTokens(address)": {
        "details": "add a token to ve allowed for staking",
        "params": {
          "_tokenAddress": "1. address of the new allowed token"
        }
      },
      "claimUserCompensation(address)": {
        "details": "withdraw provider reward of a given token address",
        "params": {
          "_tokenAddress": "1. address of the token to withdraw rewards"
        }
      },
      "constructor": {
        "params": {
          "_SLO": "2. address of the SLO",
          "_extraData": "9. array of bytes32 to store extra data on deployment time",
          "_ipfsHash": "3. string with the ipfs hash that contains SLA information",
          "_owner": "1. address of the owner of the service level agreement",
          "_periodIds": "4. id of the allowed canonical periods",
          "_periodRegistry": "7. periodRegistry address",
          "_periodType": "5. period type of the SLA contract",
          "_slaID": "10. identifies the SLA to uniquely to emit dTokens",
          "_stakeRegistry": "6. stakeRegistry address",
          "_whitelisted": "8. boolean to declare whitelisted contracts"
        }
      },
      "getAllowedTokensLength()": {
        "details": "use this function to evaluate the length of the allowed tokens length",
        "returns": {
          "_0": "allowedTokens.length"
        }
      },
      "getDetails()": {
        "details": "external view function that returns all agreement information",
        "returns": {
          "_SLAPeriods": "5. SLAPeriod[]",
          "_SLO": "3. addresses of the SLO",
          "_ipfsHash": "2. string  ipfsHash",
          "_slaOwner": "1. address  owner",
          "_stakersCount": "6. amount of stakers",
          "_tokensStake": "7. SLAPeriod[]  addresses array"
        }
      },
      "isAllowedToken(address)": {
        "details": "checks in the allowedTokens array if there's a token with _tokenAddress value",
        "params": {
          "_tokenAddress": "1. token address to check exixtence"
        },
        "returns": {
          "_0": "true if _tokenAddress exists in the allowedTokens array"
        }
      },
      "isStaker(address)": {
        "details": "returns true if the _staker address is registered as staker",
        "params": {
          "_staker": "1. staker address"
        },
        "returns": {
          "_0": "true if address is staker"
        }
      },
      "owner()": {
        "details": "Returns the address of the current owner."
      },
      "registerSLI(uint256,uint256)": {
        "details": "external function to register SLI's and check them against the SLO's",
        "params": {
          "_periodId": "2. the id of the given period",
          "_sli": "1. the value of the SLI to check"
        }
      },
      "renounceOwnership()": {
        "details": "Leaves the contract without owner. It will not be possible to call `onlyOwner` functions anymore. Can only be called by the current owner. NOTE: Renouncing ownership will leave the contract without an owner, thereby removing any functionality that is only available to the owner."
      },
      "stakeTokens(uint256,address)": {
        "details": "stake _amount tokens into the _token contract",
        "params": {
          "_amount": "1. amount to be staked",
          "_token": "2. address of the ERC to be staked"
        }
      },
      "transferOwnership(address)": {
        "details": "Transfers ownership of the contract to a new account (`newOwner`). Can only be called by the current owner."
      },
      "withdrawStakedTokens(uint256,address)": {
        "details": "withdraw _amount tokens from the _token contract",
        "params": {
          "_amount": "1. amount to be staked",
          "_tokenAddress": "2. address of the ERC to be staked"
        }
      }
    },
    "stateVariables": {
      "_breachedContract": {
        "details": "states if the contract was breached or not"
      },
      "creationBlockNumber": {
        "details": "block number of SLA deployment"
      },
      "extraData": {
        "details": "extra data for customized workflows"
      },
      "ipfsHash": {
        "details": "The ipfs hash that stores extra information about the agreement"
      },
      "messengerAddress": {
        "details": "The address of the messenger"
      },
      "periodIds": {
        "details": "array of he allowed canonical period ids"
      },
      "periodType": {
        "details": "uint8 of the period type"
      },
      "slaPeriods": {
        "details": "periodId=>SLAPeriod mapping"
      },
      "slaRegistry": {
        "details": "The address of the slaRegistry contract"
      },
      "slo": {
        "details": "address of the SLO"
      }
    },
    "title": "SLA",
    "version": 1
  },
  "userdoc": {
    "kind": "user",
    "methods": {
      "_claimCompensation(address)": {
        "notice": "it uses the user position and the user total position per token to check the proportion of the compensation pool that corresponds to every user"
      }
    },
    "version": 1
  }
}