{
  "contractName": "SLARegistry",
  "abi": [
    {
      "inputs": [
        {
          "internalType": "contract SLORegistry",
          "name": "_sloRegistry",
          "type": "address"
        },
        {
          "internalType": "contract PeriodRegistry",
          "name": "_periodRegistry",
          "type": "address"
        },
        {
          "internalType": "contract MessengerRegistry",
          "name": "_messengerRegistry",
          "type": "address"
        },
        {
          "internalType": "contract StakeRegistry",
          "name": "_stakeRegistry",
          "type": "address"
        }
      ],
      "stateMutability": "nonpayable",
      "type": "constructor"
    },
    {
      "anonymous": false,
      "inputs": [
        {
          "indexed": true,
          "internalType": "address",
          "name": "previousOwner",
          "type": "address"
        },
        {
          "indexed": true,
          "internalType": "address",
          "name": "newOwner",
          "type": "address"
        }
      ],
      "name": "OwnershipTransferred",
      "type": "event"
    },
    {
      "anonymous": false,
      "inputs": [
        {
          "indexed": true,
          "internalType": "contract SLA",
          "name": "sla",
          "type": "address"
        },
        {
          "indexed": true,
          "internalType": "address",
          "name": "owner",
          "type": "address"
        }
      ],
      "name": "SLACreated",
      "type": "event"
    },
    {
      "inputs": [
        {
          "internalType": "uint256",
          "name": "",
          "type": "uint256"
        }
      ],
      "name": "SLAs",
      "outputs": [
        {
          "internalType": "contract SLA",
          "name": "",
          "type": "address"
        }
      ],
      "stateMutability": "view",
      "type": "function",
      "constant": true
    },
    {
      "inputs": [],
      "name": "messengerRegistry",
      "outputs": [
        {
          "internalType": "contract MessengerRegistry",
          "name": "",
          "type": "address"
        }
      ],
      "stateMutability": "view",
      "type": "function",
      "constant": true
    },
    {
      "inputs": [],
      "name": "owner",
      "outputs": [
        {
          "internalType": "address",
          "name": "",
          "type": "address"
        }
      ],
      "stateMutability": "view",
      "type": "function",
      "constant": true
    },
    {
      "inputs": [],
      "name": "periodRegistry",
      "outputs": [
        {
          "internalType": "contract PeriodRegistry",
          "name": "",
          "type": "address"
        }
      ],
      "stateMutability": "view",
      "type": "function",
      "constant": true
    },
    {
      "inputs": [],
      "name": "renounceOwnership",
      "outputs": [],
      "stateMutability": "nonpayable",
      "type": "function"
    },
    {
      "inputs": [],
      "name": "sloRegistry",
      "outputs": [
        {
          "internalType": "contract SLORegistry",
          "name": "",
          "type": "address"
        }
      ],
      "stateMutability": "view",
      "type": "function",
      "constant": true
    },
    {
      "inputs": [],
      "name": "stakeRegistry",
      "outputs": [
        {
          "internalType": "contract StakeRegistry",
          "name": "",
          "type": "address"
        }
      ],
      "stateMutability": "view",
      "type": "function",
      "constant": true
    },
    {
      "inputs": [
        {
          "internalType": "address",
          "name": "newOwner",
          "type": "address"
        }
      ],
      "name": "transferOwnership",
      "outputs": [],
      "stateMutability": "nonpayable",
      "type": "function"
    },
    {
      "inputs": [
        {
          "internalType": "uint256",
          "name": "_sloValue",
          "type": "uint256"
        },
        {
          "internalType": "enum SLORegistry.SLOType",
          "name": "_sloType",
          "type": "uint8"
        },
        {
          "internalType": "bool",
          "name": "_whitelisted",
          "type": "bool"
        },
        {
          "internalType": "address",
          "name": "_messengerAddress",
          "type": "address"
        },
        {
          "internalType": "enum PeriodRegistry.PeriodType",
          "name": "_periodType",
          "type": "uint8"
        },
        {
          "internalType": "uint128",
          "name": "_initialPeriodId",
          "type": "uint128"
        },
        {
          "internalType": "uint128",
          "name": "_finalPeriodId",
          "type": "uint128"
        },
        {
          "internalType": "string",
          "name": "_ipfsHash",
          "type": "string"
        },
        {
          "internalType": "bytes32[]",
          "name": "_extraData",
          "type": "bytes32[]"
        }
      ],
      "name": "createSLA",
      "outputs": [],
      "stateMutability": "nonpayable",
      "type": "function"
    },
    {
      "inputs": [
        {
          "internalType": "uint256",
          "name": "_periodId",
          "type": "uint256"
        },
        {
          "internalType": "contract SLA",
          "name": "_sla",
          "type": "address"
        },
        {
          "internalType": "bool",
          "name": "_ownerApproval",
          "type": "bool"
        }
      ],
      "name": "requestSLI",
      "outputs": [],
      "stateMutability": "nonpayable",
      "type": "function"
    },
    {
      "inputs": [
        {
          "internalType": "contract SLA",
          "name": "_sla",
          "type": "address"
        }
      ],
      "name": "returnLockedValue",
      "outputs": [],
      "stateMutability": "nonpayable",
      "type": "function"
    },
    {
      "inputs": [
        {
          "internalType": "address",
          "name": "_messengerAddress",
          "type": "address"
        },
        {
          "internalType": "string",
          "name": "_messengerBaseURL",
          "type": "string"
        },
        {
          "internalType": "string",
          "name": "_messengerOwnershipURL",
          "type": "string"
        },
        {
          "internalType": "string",
          "name": "_messengerSpecificationURL",
          "type": "string"
        }
      ],
      "name": "registerMessenger",
      "outputs": [],
      "stateMutability": "nonpayable",
      "type": "function"
    },
    {
      "inputs": [
        {
          "internalType": "address",
          "name": "_user",
          "type": "address"
        }
      ],
      "name": "userSLAs",
      "outputs": [
        {
          "internalType": "contract SLA[]",
          "name": "",
          "type": "address[]"
        }
      ],
      "stateMutability": "view",
      "type": "function",
      "constant": true
    },
    {
      "inputs": [
        {
          "internalType": "address",
          "name": "_user",
          "type": "address"
        }
      ],
      "name": "userSLACount",
      "outputs": [
        {
          "internalType": "uint256",
          "name": "",
          "type": "uint256"
        }
      ],
      "stateMutability": "view",
      "type": "function",
      "constant": true
    },
    {
      "inputs": [],
      "name": "allSLAs",
      "outputs": [
        {
          "internalType": "contract SLA[]",
          "name": "",
          "type": "address[]"
        }
      ],
      "stateMutability": "view",
      "type": "function",
      "constant": true
    },
    {
      "inputs": [],
      "name": "SLACount",
      "outputs": [
        {
          "internalType": "uint256",
          "name": "",
          "type": "uint256"
        }
      ],
      "stateMutability": "view",
      "type": "function",
      "constant": true
    },
    {
      "inputs": [
        {
          "internalType": "address",
          "name": "_slaAddress",
          "type": "address"
        }
      ],
      "name": "isRegisteredSLA",
      "outputs": [
        {
          "internalType": "bool",
          "name": "",
          "type": "bool"
        }
      ],
      "stateMutability": "view",
      "type": "function",
      "constant": true
    }
  ],
  "bytecode": "0x60806040523480156200001157600080fd5b5060405162005e7b38038062005e7b833981016040819052620000349162000210565b6000620000496001600160e01b036200020c16565b600080546001600160a01b0319166001600160a01b0383169081178255604051929350917f8be0079c531659141344cd1fd0a4f28419497f9722a3daafe3b4186f6b6457e0908290a350600180546001600160a01b0319166001600160a01b0386811691909117918290556040805163f388158960e01b81529051929091169163f38815899160048082019260009290919082900301818387803b158015620000f157600080fd5b505af115801562000106573d6000803e3d6000fd5b5050600280546001600160a01b038088166001600160a01b031992831617909255600480548684169216919091178082556040805163f388158960e01b8152905191909316945063f38815899350828201926000929082900301818387803b1580156200017257600080fd5b505af115801562000187573d6000803e3d6000fd5b5050600380546001600160a01b0319166001600160a01b0386811691909117918290556040805163f388158960e01b8152905192909116935063f3881589925060048082019260009290919082900301818387803b158015620001e957600080fd5b505af1158015620001fe573d6000803e3d6000fd5b505050505050505062000290565b3390565b6000806000806080858703121562000226578384fd5b8451620002338162000277565b6020860151909450620002468162000277565b6040860151909350620002598162000277565b60608601519092506200026c8162000277565b939692955090935050565b6001600160a01b03811681146200028d57600080fd5b50565b615bdb80620002a06000396000f3fe60806040523480156200001157600080fd5b5060043610620001005760003560e01c8063767f5d0d116200009f578063767f5d0d14620001b2578063788164b114620001c9578063816ff98614620001e05780638da5cb5b14620001f957806396bddc1014620002035780639fc4caa5146200020d578063c4277a7b1462000217578063e9b1e98c146200023d578063f2fde38b14620002545762000100565b80632575d7ca14620001055780633a443683146200011e57806350c5abfe1462000135578063516c285714620001645780635a7d1e5d146200018a5780635c4df332146200019457806368304835146200019e578063715018a614620001a8575b600080fd5b6200011c62000116366004620015de565b6200026b565b005b6200011c6200012f3660046200179b565b6200065a565b6200014c6200014636600462001723565b62000aad565b6040516200015b919062001929565b60405180910390f35b6200017b62000175366004620015de565b62000ad5565b6040516200015b919062001aa7565b6200014c62000c1f565b6200014c62000c2e565b6200014c62000c3d565b6200011c62000c4c565b6200011c620001c336600462001623565b62000cd0565b6200011c620001da36600462001755565b62000d97565b620001ea620012b5565b6040516200015b919062001f0b565b6200014c620012bb565b6200017b620012ca565b6200014c6200132e565b6200022e62000228366004620015de565b6200133d565b6040516200015b919062001af6565b620001ea6200024e366004620015de565b6200135b565b6200011c62000265366004620015de565b62001376565b806001600160a01b0316638da5cb5b6040518163ffffffff1660e01b815260040160206040518083038186803b158015620002a557600080fd5b505afa158015620002ba573d6000803e3d6000fd5b505050506040513d601f19601f82011682018060405250810190620002e0919062001604565b6001600160a01b0316336001600160a01b0316146200031c5760405162461bcd60e51b8152600401620003139062001e0e565b60405180910390fd5b6000816001600160a01b0316633385d3346040518163ffffffff1660e01b815260040160206040518083038186803b1580156200035857600080fd5b505afa1580156200036d573d6000803e3d6000fd5b505050506040513d601f19601f8201168201806040525081019062000393919062001704565b6001600160801b031690506000826001600160a01b03166346e0fbae6040518163ffffffff1660e01b815260040160206040518083038186803b158015620003da57600080fd5b505afa158015620003ef573d6000803e3d6000fd5b505050506040513d601f19601f82011682018060405250810190620004159190620016e5565b60025460405160016259edcb60e01b031981529192506000916001600160a01b039091169063ffa612359062000452908590879060040162001b28565b604080518083038186803b1580156200046a57600080fd5b505afa1580156200047f573d6000803e3d6000fd5b505050506040513d601f19601f82011682018060405250810190620004a5919062001885565b9150506000846001600160a01b0316634190edde856040518263ffffffff1660e01b8152600401620004d8919062001f0b565b60606040518083038186803b158015620004f157600080fd5b505afa15801562000506573d6000803e3d6000fd5b505050506040513d601f19601f820116820180604052508101906200052c9190620018a9565b92505050846001600160a01b0316637fd788aa6040518163ffffffff1660e01b815260040160206040518083038186803b1580156200056a57600080fd5b505afa1580156200057f573d6000803e3d6000fd5b505050506040513d601f19601f82011682018060405250810190620005a59190620016c6565b151560011480620005cf5750814210158015620005cf57506000816002811115620005cc57fe5b14155b620005ee5760405162461bcd60e51b8152600401620003139062001b99565b600480546040516312baebe560e11b81526001600160a01b0390911691632575d7ca916200061f9189910162001929565b600060405180830381600087803b1580156200063a57600080fd5b505af11580156200064f573d6000803e3d6000fd5b505050505050505050565b600254604051636efe27ef60e11b81526000916001600160a01b03169063ddfc4fde906200068f908990899060040162001b01565b60206040518083038186803b158015620006a857600080fd5b505afa158015620006bd573d6000803e3d6000fd5b505050506040513d601f19601f82011682018060405250810190620006e39190620016c6565b905080620007055760405162461bcd60e51b8152600401620003139062001c95565b600254604051636efe27ef60e11b81526001600160a01b039091169063ddfc4fde9062000739908990889060040162001b01565b60206040518083038186803b1580156200075257600080fd5b505afa15801562000767573d6000803e3d6000fd5b505050506040513d601f19601f820116820180604052508101906200078d9190620016c6565b905080620007af5760405162461bcd60e51b8152600401620003139062001c62565b846001600160801b0316846001600160801b03161015620007e45760405162461bcd60e51b8152600401620003139062001d60565b60035460405163ef4003db60e01b81526000916001600160a01b03169063ef4003db9062000817908b9060040162001929565b60206040518083038186803b1580156200083057600080fd5b505afa15801562000845573d6000803e3d6000fd5b505050506040513d601f19601f820116820180604052508101906200086b9190620016c6565b9050600181151514620008925760405162461bcd60e51b8152600401620003139062001b56565b600033600160009054906101000a90046001600160a01b03168b8a8c8b8b6005805490508c8c604051620008c690620014b4565b620008db9a999897969594939291906200193d565b604051809103906000f080158015620008f8573d6000803e3d6000fd5b50600154604051630c7ad72b60e01b81529192506001600160a01b031690630c7ad72b9062000930908f908f90869060040162001f3b565b600060405180830381600087803b1580156200094b57600080fd5b505af115801562000960573d6000803e3d6000fd5b505060048054604051633d7da60560e11b81526001600160a01b039091169350637afb4c0a92506200099e91339186918d8d036001019101620019fd565b600060405180830381600087803b158015620009b957600080fd5b505af1158015620009ce573d6000803e3d6000fd5b505060058054600180820183557f036b6384b5eca791c62761152d0c79bb0604c104a5fb6f4eb0703f3154bb3db090910180546001600160a01b0319166001600160a01b0387169081179091556000908152600760205260408120805460ff191683179055915491935062000a44925062001434565b33600081815260066020908152604080832080546001810182559084529183209091018490555192935090916001600160a01b038516917fb52f284a6c14f1a66ab5513b5b539066933e58e69e6432666f0e3c8c8a7d750391a350505050505050505050505050565b6005818154811062000abb57fe5b6000918252602090912001546001600160a01b0316905081565b6060600062000ae4836200135b565b905060608167ffffffffffffffff8111801562000b0057600080fd5b5060405190808252806020026020018201604052801562000b2b578160200160208202803683370190505b506001600160a01b0385166000908152600660209081526040918290208054835181840281018401909452808452939450606093909183018282801562000b9257602002820191906000526020600020905b81548152602001906001019080831162000b7d575b50939450600093505050505b8381101562000c1557600582828151811062000bb657fe5b60200260200101518154811062000bc957fe5b9060005260206000200160009054906101000a90046001600160a01b031683828151811062000bf457fe5b6001600160a01b039092166020928302919091019091015260010162000b9e565b5090949350505050565b6001546001600160a01b031681565b6003546001600160a01b031681565b6004546001600160a01b031681565b62000c5662001481565b6000546001600160a01b0390811691161462000c865760405162461bcd60e51b8152600401620003139062001e8a565b600080546040516001600160a01b03909116907f8be0079c531659141344cd1fd0a4f28419497f9722a3daafe3b4186f6b6457e0908390a3600080546001600160a01b0319169055565b836001600160a01b031663f38815896040518163ffffffff1660e01b8152600401600060405180830381600087803b15801562000d0c57600080fd5b505af115801562000d21573d6000803e3d6000fd5b505060035460405163767f5d0d60e01b81526001600160a01b03909116925063767f5d0d915062000d5d90879087908790879060040162001a4d565b600060405180830381600087803b15801562000d7857600080fd5b505af115801562000d8d573d6000803e3d6000fd5b5050505050505050565b816001600160a01b031663b1659bad6040518163ffffffff1660e01b815260040160206040518083038186803b15801562000dd157600080fd5b505afa15801562000de6573d6000803e3d6000fd5b505050506040513d601f19601f8201168201806040525081019062000e0c91906200173c565b831462000e2d5760405162461bcd60e51b8152600401620003139062001e53565b6040516320c876ef60e11b81526000906001600160a01b03841690634190edde9062000e5e90879060040162001f0b565b60606040518083038186803b15801562000e7757600080fd5b505afa15801562000e8c573d6000803e3d6000fd5b505050506040513d601f19601f8201168201806040525081019062000eb29190620018a9565b92506000915062000ec09050565b81600281111562000ecd57fe5b1462000eed5760405162461bcd60e51b8152600401620003139062001cc8565b6000836001600160a01b0316637fd788aa6040518163ffffffff1660e01b815260040160206040518083038186803b15801562000f2957600080fd5b505afa15801562000f3e573d6000803e3d6000fd5b505050506040513d601f19601f8201168201806040525081019062000f649190620016c6565b9050801562000f875760405162461bcd60e51b8152600401620003139062001dbe565b60405163021eef7f60e01b81526000906001600160a01b0386169063021eef7f9062000fb890899060040162001f0b565b60206040518083038186803b15801562000fd157600080fd5b505afa15801562000fe6573d6000803e3d6000fd5b505050506040513d601f19601f820116820180604052508101906200100c9190620016c6565b9050600181151514620010335760405162461bcd60e51b8152600401620003139062001ebf565b6000856001600160a01b03166346e0fbae6040518163ffffffff1660e01b815260040160206040518083038186803b1580156200106f57600080fd5b505afa15801562001084573d6000803e3d6000fd5b505050506040513d601f19601f82011682018060405250810190620010aa9190620016e5565b6002546040516331edb3ad60e21b81529192506000916001600160a01b039091169063c7b6ceb490620010e49085908c9060040162001b28565b60206040518083038186803b158015620010fd57600080fd5b505afa15801562001112573d6000803e3d6000fd5b505050506040513d601f19601f82011682018060405250810190620011389190620016c6565b90506001811515146200115f5760405162461bcd60e51b8152600401620003139062001d18565b6000876001600160a01b031663a224ee9c6040518163ffffffff1660e01b815260040160206040518083038186803b1580156200119b57600080fd5b505afa158015620011b0573d6000803e3d6000fd5b505050506040513d601f19601f82011682018060405250810190620011d6919062001604565b604051634bd410c960e11b81529091506001600160a01b038216906397a82192906200120d908c908c908c90339060040162001f14565b600060405180830381600087803b1580156200122857600080fd5b505af11580156200123d573d6000803e3d6000fd5b5050600480546040516308bcf0cf60e21b81526001600160a01b0390911693506322f3c33c925062001276918c9133918f910162001a29565b600060405180830381600087803b1580156200129157600080fd5b505af1158015620012a6573d6000803e3d6000fd5b50505050505050505050505050565b60055490565b6000546001600160a01b031690565b606060058054806020026020016040519081016040528092919081815260200182805480156200132457602002820191906000526020600020905b81546001600160a01b0316815260019091019060200180831162001305575b5050505050905090565b6002546001600160a01b031681565b6001600160a01b031660009081526007602052604090205460ff1690565b6001600160a01b031660009081526006602052604090205490565b6200138062001481565b6000546001600160a01b03908116911614620013b05760405162461bcd60e51b8152600401620003139062001e8a565b6001600160a01b038116620013d95760405162461bcd60e51b8152600401620003139062001c1c565b600080546040516001600160a01b03808516939216917f8be0079c531659141344cd1fd0a4f28419497f9722a3daafe3b4186f6b6457e091a3600080546001600160a01b0319166001600160a01b0392909216919091179055565b60006200147883836040518060400160405280601e81526020017f536166654d6174683a207375627472616374696f6e206f766572666c6f77000081525062001485565b90505b92915050565b3390565b60008184841115620014ac5760405162461bcd60e51b815260040162000313919062001b41565b505050900390565b613bba8062001fec83390190565b80356200147b8162001fa2565b600082601f830112620014e0578081fd5b813567ffffffffffffffff811115620014f7578182fd5b60208082026200150982820162001f6c565b838152935081840185830182870184018810156200152657600080fd5b600092505b848310156200154b5780358252600192909201919083019083016200152b565b505050505092915050565b80356200147b8162001fc7565b600082601f83011262001574578081fd5b813567ffffffffffffffff8111156200158b578182fd5b620015a0601f8201601f191660200162001f6c565b9150808252836020828501011115620015b857600080fd5b8060208401602084013760009082016020015292915050565b80356200147b8162001fd5565b600060208284031215620015f0578081fd5b8135620015fd8162001fa2565b9392505050565b60006020828403121562001616578081fd5b8151620015fd8162001fa2565b6000806000806080858703121562001639578283fd5b8435620016468162001fa2565b9350602085013567ffffffffffffffff8082111562001663578485fd5b620016718883890162001563565b9450604087013591508082111562001687578384fd5b620016958883890162001563565b93506060870135915080821115620016ab578283fd5b50620016ba8782880162001563565b91505092959194509250565b600060208284031215620016d8578081fd5b8151620015fd8162001fb8565b600060208284031215620016f7578081fd5b8151620015fd8162001fc7565b60006020828403121562001716578081fd5b8151620015fd8162001fd5565b60006020828403121562001735578081fd5b5035919050565b6000602082840312156200174e578081fd5b5051919050565b6000806000606084860312156200176a578283fd5b8335925060208401356200177e8162001fa2565b91506040840135620017908162001fb8565b809150509250925092565b60008060008060008060008060006101208a8c031215620017ba578485fd5b8935985060208a0135620017ce8162001fc7565b975060408a0135620017e08162001fb8565b9650620017f18b60608c01620014c2565b9550620018028b60808c0162001556565b9450620018138b60a08c01620015d1565b9350620018248b60c08c01620015d1565b925060e08a013567ffffffffffffffff8082111562001841578384fd5b6200184f8d838e0162001563565b93506101008c013591508082111562001866578283fd5b50620018758c828d01620014cf565b9150509295985092959850929598565b6000806040838503121562001898578182fd5b505080516020909101519092909150565b600080600060608486031215620018be578081fd5b835192506020840151915060408401516003811062001790578182fd5b60008151808452815b818110156200190257602081850181015186830182015201620018e4565b81811115620019145782602083870101525b50601f01601f19169290920160200192915050565b6001600160a01b0391909116815260200190565b600061014060018060a01b03808e1684526020818e16818601528c151560408601526200196a8c62001f94565b606085018c9052908a1660808501526001600160801b0389811660a086015288811660c086015287811660e0860152610100850183905290620019b083860188620018db565b858103610120870152865180825290820193508187019250845b81811015620019e857835185529382019392820192600101620019ca565b50929f9e505050505050505050505050505050565b6001600160a01b0393841681529190921660208201526001600160801b03909116604082015260600190565b6001600160a01b039384168152919092166020820152604081019190915260600190565b6001600160a01b038516815260806020820181905260009062001a7390830186620018db565b828103604084015262001a878186620018db565b838103606085015262001a9b8186620018db565b98975050505050505050565b6020808252825182820181905260009190848201906040850190845b8181101562001aea5783516001600160a01b03168352928401929184019160010162001ac3565b50909695505050505050565b901515815260200190565b6040810162001b108462001f94565b9281526001600160801b039190911660209091015290565b6040810162001b378462001f94565b9281526020015290565b600060208252620014786020830184620018db565b60208082526023908201527f6d657373656e6765722061646472657373206973206e6f7420726567697374656040820152621c995960ea1b606082015260800190565b6020808252605f908201527f43616e206f6e6c79207769746864726177206c6f636b65642044534c4120616660408201527f746572207468652066696e616c20706572696f6420697320766572696669656460608201527f206f722069662074686520636f6e747261637420697320627265616368656400608082015260a00190565b60208082526026908201527f4f776e61626c653a206e6577206f776e657220697320746865207a65726f206160408201526564647265737360d01b606082015260800190565b602080825260199082015278119a5b985b081c195c9a5bd9081a59081b9bdd081d985b1a59603a1b604082015260600190565b602080825260199082015278119a5c9cdd081c195c9a5bd9081a59081b9bdd081d985b1a59603a1b604082015260600190565b60208082526030908201527f534c4120636f6e74726163742077617320616c7265616479207665726966696560408201526f1908199bdc881d1a19481c195c9a5bd960821b606082015260800190565b60208082526028908201527f534c4120636f6e747261637420706572696f6420686173206e6f742066696e696040820152671cda1959081e595d60c21b606082015260800190565b602080825260409082018190527f66696e616c506572696f6449642073686f756c64206265206772656174657220908201527f7468616e206f7220657175616c20746f20696e697469616c506572696f644964606082015260800190565b60208082526030908201527f53686f756c64206f6e6c792062652063616c6c656420666f72206e6f7420627260408201526f65616368656420636f6e74726163747360801b606082015260800190565b60208082526025908201527f4f6e6c7920534c41206f776e65722063616e20636c61696d206c6f636b65642060408201526476616c756560d81b606082015260800190565b6020808252601e908201527f53686f756c64206f6e6c7920766572696679206e65787420706572696f640000604082015260600190565b6020808252818101527f4f776e61626c653a2063616c6c6572206973206e6f7420746865206f776e6572604082015260600190565b6020808252602c908201527f506572696f64204944206e6f74207265676973746572656420696e207468652060408201526b14d3104818dbdb9d1c9858dd60a21b606082015260800190565b90815260200190565b9384526001600160a01b039283166020850152901515604084015216606082015260800190565b8381526060810162001f4d8462001f94565b60208201939093526001600160a01b0391909116604090910152919050565b60405181810167ffffffffffffffff8111828210171562001f8c57600080fd5b604052919050565b6006811062001f9f57fe5b50565b6001600160a01b038116811462001f9f57600080fd5b801515811462001f9f57600080fd5b6006811062001f9f57600080fd5b6001600160801b038116811462001f9f57600080fdfe60806040526014805460ff60a01b191690553480156200001e57600080fd5b5060405162003bba38038062003bba8339810160408190526200004191620008b5565b3387898560006200005a6001600160e01b03620004e816565b600080546001600160a01b0319166001600160a01b03831690811782556040519293509160008051602062003b9a833981519152908290a350836001600160a01b031663683048356040518163ffffffff1660e01b815260040160206040518083038186803b158015620000cd57600080fd5b505afa158015620000e2573d6000803e3d6000fd5b505050506040513d601f19601f820116820180604052508101906200010891906200088f565b600160006101000a8154816001600160a01b0302191690836001600160a01b03160217905550836001600160a01b0316639fc4caa56040518163ffffffff1660e01b815260040160206040518083038186803b1580156200016857600080fd5b505afa1580156200017d573d6000803e3d6000fd5b505050506040513d601f19601f82011682018060405250810190620001a391906200088f565b600280546001600160a01b0319166001600160a01b0392909216919091179055600d805484919060ff19166001836005811115620001dd57fe5b0217905550600d805461ff0019166101008415150217905560015460408051637b8041cf60e11b815290516000926001600160a01b03169163f700839e9160048083019260c0929190829003018186803b1580156200023b57600080fd5b505afa15801562000250573d6000803e3d6000fd5b505050506040513d601f19601f82011682018060405250810190620002769190620009bc565b50505050509050600160009054906101000a90046001600160a01b03166001600160a01b0316638b8e53096040518163ffffffff1660e01b815260040160206040518083038186803b158015620002cc57600080fd5b505afa158015620002e1573d6000803e3d6000fd5b505050506040513d601f19601f820116820180604052508101906200030791906200088f565b600a80546001600160a01b0319166001600160a01b0392909216919091179055600c8190556200033733620004ed565b50600380546001600160801b0319166001600160801b0392909216919091179055506200036891508b905062000599565b81516200037d90600f9060208501906200064f565b50601480546001600160a01b038089166001600160a01b0319928316179092556013805490911633179081905560408051639fc4caa560e01b815290519190921691639fc4caa5916004808301926020929190829003018186803b158015620003e557600080fd5b505afa158015620003fa573d6000803e3d6000fd5b505050506040513d601f19601f820116820180604052508101906200042091906200088f565b601080546001600160a01b039290921661010002610100600160a81b03199092169190911780825543601655601280546001600160801b03888116600160801b02818b166001600160801b0319909316929092171617905588919060ff191660018360058111156200048e57fe5b02179055508051620004a8906017906020840190620006d4565b5050506001600160801b039092166018555050601180546001600160a01b039095166001600160a01b0319909516949094179093555062000af892505050565b335b90565b620005006001600160e01b03620004e816565b6000546001600160a01b03908116911614620005395760405162461bcd60e51b8152600401620005309062000a83565b60405180910390fd5b6001600160a01b0381166000908152600e602052604090205460ff1615620005755760405162461bcd60e51b8152600401620005309062000a06565b6001600160a01b03166000908152600e60205260409020805460ff19166001179055565b620005ac6001600160e01b03620004e816565b6000546001600160a01b03908116911614620005dc5760405162461bcd60e51b8152600401620005309062000a83565b6001600160a01b038116620006055760405162461bcd60e51b8152600401620005309062000a3d565b600080546040516001600160a01b038085169392169160008051602062003b9a83398151915291a3600080546001600160a01b0319166001600160a01b0392909216919091179055565b828054600181600116156101000203166002900490600052602060002090601f016020900481019282601f106200069257805160ff1916838001178555620006c2565b82800160010185558215620006c2579182015b82811115620006c2578251825591602001919060010190620006a5565b50620006d092915062000711565b5090565b828054828255906000526020600020908101928215620006c25791602002820182811115620006c2578251825591602001919060010190620006a5565b620004ea91905b80821115620006d0576000815560010162000718565b80516200073b8162000adf565b92915050565b600082601f83011262000752578081fd5b81516001600160401b0381111562000768578182fd5b60208082026200077a82820162000ab8565b838152935081840185830182870184018810156200079757600080fd5b600092505b84831015620007bc5780518252600192909201919083019083016200079c565b505050505092915050565b805180151581146200073b57600080fd5b8051600681106200073b57600080fd5b600082601f830112620007f9578081fd5b81516001600160401b038111156200080f578182fd5b602062000825601f8301601f1916820162000ab8565b925081835284818386010111156200083c57600080fd5b60005b828110156200085c5784810182015184820183015281016200083f565b828111156200086e5760008284860101525b50505092915050565b80516001600160801b03811681146200073b57600080fd5b600060208284031215620008a1578081fd5b8151620008ae8162000adf565b9392505050565b6000806000806000806000806000806101408b8d031215620008d5578586fd5b620008e18c8c6200072e565b9950620008f28c60208d016200072e565b9850620009038c60408d01620007c7565b9750620009148c60608d01620007d8565b9650620009258c60808d016200072e565b9550620009368c60a08d0162000877565b9450620009478c60c08d0162000877565b9350620009588c60e08d0162000877565b6101008c01519093506001600160401b038082111562000976578384fd5b620009848e838f01620007e8565b93506101208d01519150808211156200099b578283fd5b50620009aa8d828e0162000741565b9150509295989b9194979a5092959850565b60008060008060008060c08789031215620009d5578182fd5b865195506020870151945060408701519350606087015192506080870151915060a087015190509295509295509295565b60208082526018908201527f5573657220616c72656164792077686974656c69737465640000000000000000604082015260600190565b60208082526026908201527f4f776e61626c653a206e6577206f776e657220697320746865207a65726f206160408201526564647265737360d01b606082015260800190565b6020808252818101527f4f776e61626c653a2063616c6c6572206973206e6f7420746865206f776e6572604082015260600190565b6040518181016001600160401b038111828210171562000ad757600080fd5b604052919050565b6001600160a01b038116811462000af557600080fd5b50565b6130928062000b086000396000f3fe608060405234801561001057600080fd5b50600436106102535760003560e01c806378025ec411610146578063c26ff615116100c3578063db69a46211610087578063db69a462146104c2578063f2db10fe146104ca578063f2fde38b146104d2578063f7e9dfff146104e5578063f9902bb1146104ed578063fd5e6dd11461050057610253565b8063c26ff61514610461578063c623674f14610474578063c8b5c24814610489578063cbe230c31461049c578063d7a5c422146104af57610253565b80639fabeb001161010a5780639fabeb001461042e578063a224ee9c14610436578063a7e8d8d41461043e578063b1659bad14610451578063b7bc347e1461045957610253565b806378025ec4146103f05780637fd788aa146104035780638da5cb5b1461040b57806396f76f11146104135780639b19251a1461041b57610253565b8063484fbf2b116101d45780635e5f2e26116101985780635e5f2e261461039c578063639b6fc3146103af578063715018a6146103c2578063740882ac146103ca578063747b8050146103dd57610253565b8063484fbf2b1461032d5780634e0c91f6146103405780634fb2647e1461036057806357ac94f0146103735780635c1c20de1461039457610253565b80632526743a1161021b5780632526743a146102c657806326db18ac146102db5780633385d334146102ee5780634190edde146102f657806346e0fbae1461031857610253565b8063021eef7f146102585780630bea440d14610281578063171e44ea1461029657806318e45427146102a95780631bf30929146102b1575b600080fd5b61026b61026636600461282c565b610513565b6040516102789190612aa1565b60405180910390f35b61029461028f36600461285c565b61055c565b005b6102946102a436600461267d565b6106be565b61026b610a90565b6102b9610a9e565b6040516102789190612aac565b6102ce610aa4565b6040516102789190612f5f565b6102946102e936600461285c565b610ab3565b6102ce610b31565b61030961030436600461282c565b610b47565b60405161027893929190612f98565b610320610b6b565b6040516102789190612ab5565b6102b961033b36600461267d565b610b74565b61035361034e36600461267d565b610b86565b6040516102789190612a50565b61035361036e36600461267d565b610ba1565b6103866103813660046126b5565b610bbc565b604051610278929190612a64565b6102b9610db4565b6103536103aa36600461282c565b610dba565b6102b96103bd36600461267d565b610de1565b610294610df3565b6102946103d83660046126e0565b610e72565b6102946103eb36600461267d565b610f48565b6102b96103fe36600461282c565b610fda565b61026b610ff8565b610353611008565b61026b611017565b61026b61042936600461267d565b611123565b6102b9611138565b61035361113e565b61026b61044c36600461267d565b61114d565b6102b9611162565b6102b9611168565b61029461046f3660046126e0565b61116e565b61047c61124a565b6040516102789190612aef565b61029461049736600461285c565b6112d8565b61026b6104aa36600461267d565b611314565b6102946104bd3660046128b2565b61136f565b610353611636565b6102ce611645565b6102946104e036600461267d565b611654565b61035361170a565b6102946104fb36600461267d565b611719565b61035361050e36600461282c565b6117ac565b6012546000906001600160801b031682101561053157506000610557565b601254600160801b90046001600160801b031682111561055357506000610557565b5060015b919050565b600082116105855760405162461bcd60e51b815260040161057c90612e72565b60405180910390fd5b600061058f611017565b905080156105af5760405162461bcd60e51b815260040161057c90612ceb565b6105b983836117b9565b60135460408051636830483560e01b815290516000926001600160a01b0316916368304835916004808301926020929190829003018186803b1580156105fe57600080fd5b505afa158015610612573d6000803e3d6000fd5b505050506040513d601f19601f820116820180604052508101906106369190612699565b604051635948284760e11b81529091506001600160a01b0382169063b290508e90610665903390600401612a50565b602060405180830381600087803b15801561067f57600080fd5b505af1158015610693573d6000803e3d6000fd5b505050506040513d601f19601f820116820180604052508101906106b79190612780565b5050505050565b6106c6611cd8565b6000546001600160a01b039081169116146106f35760405162461bcd60e51b815260040161057c90612da2565b6106fc81611314565b156107195760405162461bcd60e51b815260040161057c90612e0e565b60015460405163cbe230c360e01b81526001600160a01b039091169063cbe230c390610749908490600401612a50565b60206040518083038186803b15801561076157600080fd5b505afa158015610775573d6000803e3d6000fd5b505050506040513d601f19601f820116820180604052508101906107999190612780565b15156001146107ba5760405162461bcd60e51b815260040161057c90612bdf565b600b80546001810182556000919091527f0175b7a638427703f0dbe7bb9bbf987a2551717b34e79f33b5b1008d1fa01db90180546001600160a01b0319166001600160a01b03831617905560035460609061081d906001600160801b0316611cdc565b90506060826001600160a01b03166395d89b416040518163ffffffff1660e01b815260040160006040518083038186803b15801561085a57600080fd5b505afa15801561086e573d6000803e3d6000fd5b505050506040513d6000823e601f3d908101601f1916820160405261089691908101906127a0565b9050606081836040516020016108ad9291906129fd565b6040516020818303038152906040529050606082846040516020016108d392919061293e565b6040516020818303038152906040529050606083856040516020016108f9929190612989565b60405160208183030381529060405290506060848660405160200161091f9291906129e0565b60408051601f1981840301815290829052600154633350214760e11b83529092506000916001600160a01b03909116906366a0428e906109659088908890600401612b02565b602060405180830381600087803b15801561097f57600080fd5b505af1158015610993573d6000803e3d6000fd5b505050506040513d601f19601f820116820180604052508101906109b79190612699565b600154604051633350214760e11b81529192506000916001600160a01b03909116906366a0428e906109ef9087908790600401612b02565b602060405180830381600087803b158015610a0957600080fd5b505af1158015610a1d573d6000803e3d6000fd5b505050506040513d601f19601f82011682018060405250810190610a419190612699565b6001600160a01b03998a1660009081526007602090815260408083208054948e166001600160a01b031995861617905560069091529020805493909a1692169190911790975550505050505050565b600d54610100900460ff1681565b60165481565b6012546001600160801b031681565b60008211610ad35760405162461bcd60e51b815260040161057c90612e72565b610adb611008565b6001600160a01b0316336001600160a01b031614610b23576000610afd611017565b9050600181151514610b215760405162461bcd60e51b815260040161057c90612dd7565b505b610b2d8282611db7565b5050565b601254600160801b90046001600160801b031681565b60156020526000908152604090208054600182015460029092015490919060ff1683565b60105460ff1681565b60056020526000908152604090205481565b6006602052600090815260409020546001600160a01b031681565b6007602052600090815260409020546001600160a01b031681565b6000806000600b8481548110610bce57fe5b6000918252602090912001546001600160a01b03169050610bed611008565b6001600160a01b0316856001600160a01b03161415610c29576001600160a01b0381166000908152600460205260409020549092509050610dad565b6001600160a01b0380821660009081526006602090815260408083205481516318160ddd60e01b8152915194169384926318160ddd9260048082019391829003018186803b158015610c7a57600080fd5b505afa158015610c8e573d6000803e3d6000fd5b505050506040513d601f19601f82011682018060405250810190610cb29190612844565b905080610cc8575090925060009150610dad9050565b6040516370a0823160e01b81526000906001600160a01b038416906370a0823190610cf7908b90600401612a50565b60206040518083038186803b158015610d0f57600080fd5b505afa158015610d23573d6000803e3d6000fd5b505050506040513d601f19601f82011682018060405250810190610d479190612844565b90506127106000610d6e84610d62858563ffffffff611f5d16565b9063ffffffff611fa016565b6001600160a01b0387166000908152600560205260409020549091508690610da2908490610d62908563ffffffff611f5d16565b975097505050505050505b9250929050565b600c5481565b600b8181548110610dc757fe5b6000918252602090912001546001600160a01b0316905081565b60046020526000908152604090205481565b610dfb611cd8565b6000546001600160a01b03908116911614610e285760405162461bcd60e51b815260040161057c90612da2565b600080546040516001600160a01b03909116907f8be0079c531659141344cd1fd0a4f28419497f9722a3daafe3b4186f6b6457e0908390a3600080546001600160a01b0319169055565b610e7a611cd8565b6000546001600160a01b03908116911614610ea75760405162461bcd60e51b815260040161057c90612da2565b60005b8151811015610b2d57600e6000838381518110610ec357fe5b6020908102919091018101516001600160a01b031682528101919091526040016000205460ff16610f40576001600e6000848481518110610f0057fe5b60200260200101516001600160a01b03166001600160a01b0316815260200190815260200160002060006101000a81548160ff0219169083151502179055505b600101610eaa565b610f50611cd8565b6000546001600160a01b03908116911614610f7d5760405162461bcd60e51b815260040161057c90612da2565b6001600160a01b0381166000908152600e602052604090205460ff1615610fb65760405162461bcd60e51b815260040161057c90612b30565b6001600160a01b03166000908152600e60205260409020805460ff19166001179055565b60178181548110610fe757fe5b600091825260209091200154905081565b601454600160a01b900460ff1690565b6000546001600160a01b031690565b60105460125460405160016259edcb60e01b03198152600092839261010082046001600160a01b03169263ffa612359261106b9260ff90911691600160801b9091046001600160801b031690600401612ac9565b604080518083038186803b15801561108257600080fd5b505afa158015611096573d6000803e3d6000fd5b505050506040513d601f19601f820116820180604052508101906110ba91906128d3565b9150506014809054906101000a900460ff16151560011515148061111d575080421015801561111d57506000601254600160801b90046001600160801b0316600090815260156020526040902060029081015460ff169081111561111a57fe5b14155b91505090565b600e6020526000908152604090205460ff1681565b60085490565b6014546001600160a01b031681565b60096020526000908152604090205460ff1681565b60185481565b600b5490565b611176611cd8565b6000546001600160a01b039081169116146111a35760405162461bcd60e51b815260040161057c90612da2565b60005b8151811015610b2d57600e60008383815181106111bf57fe5b6020908102919091018101516001600160a01b031682528101919091526040016000205460ff16151560011415611242576000600e600084848151811061120257fe5b60200260200101516001600160a01b03166001600160a01b0316815260200190815260200160002060006101000a81548160ff0219169083151502179055505b6001016111a6565b600f805460408051602060026001851615610100026000190190941693909304601f810184900484028201840190925281815292918301828280156112d05780601f106112a5576101008083540402835291602001916112d0565b820191906000526020600020905b8154815290600101906020018083116112b357829003601f168201915b505050505081565b600082116112f85760405162461bcd60e51b815260040161057c90612e72565b6000611302611017565b905061130f838383611fe2565b505050565b6000805b600b5481101561136657826001600160a01b0316600b828154811061133957fe5b6000918252602090912001546001600160a01b0316141561135e576001915050610557565b600101611318565b50600092915050565b6014546001600160a01b031633146113995760405162461bcd60e51b815260040161057c90612c2c565b7fc95987c1992805ee34bdc915e017cceae36ba1c156b9911fa7e691e6435eb46e4283836040516113cc93929190612fbe565b60405180910390a16001808201601855600082815260156020526040808220928301859055428355601154905163a7b72ac560e01b81526001600160a01b039091169063a7b72ac590611423903090600401612a50565b604080518083038186803b15801561143a57600080fd5b505afa15801561144e573d6000803e3d6000fd5b505050506040513d601f19601f82011682018060405250810190611472919061288b565b50601154604051631993b9df60e01b81529192506001600160a01b031690631993b9df906114a69087903090600401612f73565b60206040518083038186803b1580156114be57600080fd5b505afa1580156114d2573d6000803e3d6000fd5b505050506040513d601f19601f820116820180604052508101906114f69190612780565b156115ca576002828101805460ff19166001179055612710906000906115449061152490610d6289876121e4565b610d62846115388a8863ffffffff61220916565b9063ffffffff611f5d16565b60125490915060009061157a9060019061156e9089906001600160801b031663ffffffff61220916565b9063ffffffff6121e416565b6012549091506000906115b4906001600160801b03808216600160801b90920481169190910360010116610d62858563ffffffff611f5d16565b90506115c187828661224b565b50505050611630565b6002828101805460ff191690911790556115e261236a565b6014805460ff60a01b1916600160a01b1790556040517fbd33f7a3bfa88a467c9df5ae7d2341cf061084c386b20a0d48130f5cbce38a4d906116279085908790612f8a565b60405180910390a15b50505050565b6013546001600160a01b031681565b6003546001600160801b031681565b61165c611cd8565b6000546001600160a01b039081169116146116895760405162461bcd60e51b815260040161057c90612da2565b6001600160a01b0381166116af5760405162461bcd60e51b815260040161057c90612b62565b600080546040516001600160a01b03808516939216917f8be0079c531659141344cd1fd0a4f28419497f9722a3daafe3b4186f6b6457e091a3600080546001600160a01b0319166001600160a01b0392909216919091179055565b600a546001600160a01b031681565b611721611cd8565b6000546001600160a01b0390811691161461174e5760405162461bcd60e51b815260040161057c90612da2565b6001600160a01b0381166000908152600e602052604090205460ff16151560011461178b5760405162461bcd60e51b815260040161057c90612e9e565b6001600160a01b03166000908152600e60205260409020805460ff19169055565b60088181548110610dc757fe5b806117c381611314565b15156001146117e45760405162461bcd60e51b815260040161057c90612d74565b600d5460ff6101009091041615156001141561182e57336000908152600e602052604090205460ff16151560011461182e5760405162461bcd60e51b815260040161057c90612c71565b6118496001600160a01b03831633308663ffffffff61242816565b611851611008565b6001600160a01b0316336001600160a01b031614611a92576001600160a01b0382166000908152600460209081526040808320546005909252909120548161189f828763ffffffff6121e416565b11156118bd5760405162461bcd60e51b815260040161057c90612ecc565b6001600160a01b0380851660009081526006602090815260408083205481516318160ddd60e01b8152915194169384926318160ddd9260048082019391829003018186803b15801561190e57600080fd5b505afa158015611922573d6000803e3d6000fd5b505050506040513d601f19601f820116820180604052508101906119469190612844565b9050806119b2576040516340c10f1960e01b81526001600160a01b038316906340c10f199061197b9033908b90600401612a64565b600060405180830381600087803b15801561199557600080fd5b505af11580156119a9573d6000803e3d6000fd5b50505050611a46565b6001600160a01b038616600090815260056020526040812054906119e082610d628b8663ffffffff611f5d16565b6040516340c10f1960e01b81529091506001600160a01b038516906340c10f1990611a119033908590600401612a64565b600060405180830381600087803b158015611a2b57600080fd5b505af1158015611a3f573d6000803e3d6000fd5b5050505050505b6001600160a01b038616600090815260056020526040902054611a6f908863ffffffff6121e416565b6001600160a01b03871660009081526005602052604090205550611c6092505050565b6001600160a01b0380831660009081526007602090815260408083205481516318160ddd60e01b8152915194169384926318160ddd9260048082019391829003018186803b158015611ae357600080fd5b505afa158015611af7573d6000803e3d6000fd5b505050506040513d601f19601f82011682018060405250810190611b1b9190612844565b905080611b87576040516340c10f1960e01b81526001600160a01b038316906340c10f1990611b509033908990600401612a64565b600060405180830381600087803b158015611b6a57600080fd5b505af1158015611b7e573d6000803e3d6000fd5b50505050611c1b565b6001600160a01b03841660009081526004602052604081205490611bb582610d62898663ffffffff611f5d16565b6040516340c10f1960e01b81529091506001600160a01b038516906340c10f1990611be69033908590600401612a64565b600060405180830381600087803b158015611c0057600080fd5b505af1158015611c14573d6000803e3d6000fd5b5050505050505b6001600160a01b038416600090815260046020526040902054611c44908663ffffffff6121e416565b6001600160a01b03851660009081526004602052604090205550505b3360009081526009602052604090205460ff1661130f57336000818152600960205260408120805460ff191660019081179091556008805491820181559091527ff3f7a9fe364faab93b216da50a3214154f22a0a2b415b23a84c8169e8b636ee30180546001600160a01b0319169091179055505050565b3390565b60608180611d035750506040805180820190915260018152600360fc1b6020820152610557565b8060005b8115611d1b57600101600a82049150611d07565b60608167ffffffffffffffff81118015611d3457600080fd5b506040519080825280601f01601f191660200182016040528015611d5f576020820181803683370190505b50905060001982015b8415611dad57600a850660300160f81b82828060019003935081518110611d8b57fe5b60200101906001600160f81b031916908160001a905350600a85049450611d68565b5095945050505050565b80611dc181611314565b1515600114611de25760405162461bcd60e51b815260040161057c90612d74565b6001600160a01b0380831660009081526006602090815260408083205481516318160ddd60e01b8152915194169384926318160ddd9260048082019391829003018186803b158015611e3357600080fd5b505afa158015611e47573d6000803e3d6000fd5b505050506040513d601f19601f82011682018060405250810190611e6b9190612844565b6001600160a01b038516600090815260056020526040812054919250611e9b82610d62898663ffffffff611f5d16565b60405163079cc67960e41b81529091506001600160a01b038516906379cc679090611ecc9033908590600401612a64565b600060405180830381600087803b158015611ee657600080fd5b505af1158015611efa573d6000803e3d6000fd5b5050506001600160a01b038716600090815260056020526040902054611f2791508863ffffffff61220916565b6001600160a01b038716600081815260056020526040902091909155611f5490338963ffffffff61248016565b50505050505050565b600082611f6c57506000611f9a565b82820282848281611f7957fe5b0414611f975760405162461bcd60e51b815260040161057c90612d33565b90505b92915050565b6000611f9783836040518060400160405280601a81526020017f536166654d6174683a206469766973696f6e206279207a65726f00000000000081525061249f565b81611fec81611314565b151560011461200d5760405162461bcd60e51b815260040161057c90612d74565b6001600160a01b038316600090815260046020908152604080832054600590925290912054836120665780612048838863ffffffff61220916565b10156120665760405162461bcd60e51b815260040161057c90612ca2565b6001600160a01b0380861660009081526007602090815260408083205481516318160ddd60e01b8152915194169384926318160ddd9260048082019391829003018186803b1580156120b757600080fd5b505afa1580156120cb573d6000803e3d6000fd5b505050506040513d601f19601f820116820180604052508101906120ef9190612844565b6001600160a01b03881660009081526004602052604081205491925061211f82610d628c8663ffffffff611f5d16565b60405163079cc67960e41b81529091506001600160a01b038516906379cc6790906121509033908590600401612a64565b600060405180830381600087803b15801561216a57600080fd5b505af115801561217e573d6000803e3d6000fd5b5050506001600160a01b038a166000908152600460205260409020546121ab91508b63ffffffff61220916565b6001600160a01b038a166000818152600460205260409020919091556121d890338c63ffffffff61248016565b50505050505050505050565b600082820183811015611f975760405162461bcd60e51b815260040161057c90612ba8565b6000611f9783836040518060400160405280601e81526020017f536166654d6174683a207375627472616374696f6e206f766572666c6f7700008152506124d6565b60005b600b54811015611630576000600b828154811061226757fe5b60009182526020808320909101546001600160a01b031680835260059091526040822054909250906122a385610d62848963ffffffff611f5d16565b6001600160a01b0384166000908152600560205260409020549091506122cf908263ffffffff61220916565b6001600160a01b038416600090815260056020908152604080832093909355600490522054612304908263ffffffff6121e416565b6001600160a01b0384166000818152600460205260409081902092909255905188907f3173c1c4b679e2da86dbb0382bde749a6e16cd31912c5410e17985cd7d2b905290612357908a908a908790612fbe565b60405180910390a350505060010161224e565b60005b600b54811015612425576000600b828154811061238657fe5b60009182526020808320909101546001600160a01b0316808352600582526040808420546004909352909220549192509081906123c9908263ffffffff61220916565b6001600160a01b0384166000908152600460209081526040808320939093556005905220546123fe908263ffffffff6121e416565b6001600160a01b03909316600090815260056020526040902092909255505060010161236d565b50565b611630846323b872dd60e01b85858560405160240161244993929190612a7d565b60408051601f198184030181529190526020810180516001600160e01b03166001600160e01b031990931692909217909152612502565b61130f8363a9059cbb60e01b8484604051602401612449929190612a64565b600081836124c05760405162461bcd60e51b815260040161057c9190612aef565b5060008385816124cc57fe5b0495945050505050565b600081848411156124fa5760405162461bcd60e51b815260040161057c9190612aef565b505050900390565b6060612557826040518060400160405280602081526020017f5361666545524332303a206c6f772d6c6576656c2063616c6c206661696c6564815250856001600160a01b03166125919092919063ffffffff16565b80519091501561130f57808060200190518101906125759190612780565b61130f5760405162461bcd60e51b815260040161057c90612f15565b60606125a084846000856125a8565b949350505050565b60606125b38561266c565b6125cf5760405162461bcd60e51b815260040161057c90612e3b565b60006060866001600160a01b031685876040516125ec9190612922565b60006040518083038185875af1925050503d8060008114612629576040519150601f19603f3d011682016040523d82523d6000602084013e61262e565b606091505b509150915081156126425791506125a09050565b8051156126525780518082602001fd5b8360405162461bcd60e51b815260040161057c9190612aef565b3b151590565b8035611f9a81613047565b60006020828403121561268e578081fd5b8135611f9781613047565b6000602082840312156126aa578081fd5b8151611f9781613047565b600080604083850312156126c7578081fd5b82356126d281613047565b946020939093013593505050565b600060208083850312156126f2578182fd5b823567ffffffffffffffff811115612708578283fd5b80840185601f820112612719578384fd5b8035915061272e61272983612ffb565b612fd4565b828152838101908285018585028401860189101561274a578687fd5b8693505b84841015612774576127608982612672565b83526001939093019291850191850161274e565b50979650505050505050565b600060208284031215612791578081fd5b81518015158114611f97578182fd5b6000602082840312156127b1578081fd5b815167ffffffffffffffff808211156127c8578283fd5b81840185601f8201126127d9578384fd5b80519250818311156127e9578384fd5b6127fc601f8401601f1916602001612fd4565b9150828252856020848301011115612812578384fd5b61282383602084016020840161301b565b50949350505050565b60006020828403121561283d578081fd5b5035919050565b600060208284031215612855578081fd5b5051919050565b6000806040838503121561286e578182fd5b82359150602083013561288081613047565b809150509250929050565b6000806040838503121561289d578182fd5b82519150602083015160068110612880578182fd5b600080604083850312156128c4578182fd5b50508035926020909101359150565b600080604083850312156128e5578182fd5b505080516020909101519092909150565b6000815180845261290e81602086016020860161301b565b601f01601f19169290920160200192915050565b6000825161293481846020870161301b565b9190910192915050565b600061647560f01b8252835161295b81600285016020880161301b565b808301602d60f81b60028201528451915061297d82600383016020880161301b565b01600301949350505050565b60006d44534c412d50524f56494445522d60901b825283516129b281600e85016020880161301b565b808301602d60f81b600e820152845191506129d482600f83016020880161301b565b01600f01949350505050565b600061064760f41b8252835161295b81600285016020880161301b565b60006944534c412d555345522d60b01b82528351612a2281600a85016020880161301b565b808301602d60f81b600a82015284519150612a4482600b83016020880161301b565b01600b01949350505050565b6001600160a01b0391909116815260200190565b6001600160a01b03929092168252602082015260400190565b6001600160a01b039384168152919092166020820152604081019190915260600190565b901515815260200190565b90815260200190565b6020810160068310612ac357fe5b91905290565b6040810160068410612ad757fe5b9281526001600160801b039190911660209091015290565b600060208252611f9760208301846128f6565b600060408252612b1560408301856128f6565b8281036020840152612b2781856128f6565b95945050505050565b602080825260189082015277155cd95c88185b1c9958591e481dda1a5d195b1a5cdd195960421b604082015260600190565b60208082526026908201527f4f776e61626c653a206e6577206f776e657220697320746865207a65726f206160408201526564647265737360d01b606082015260800190565b6020808252601b908201527f536166654d6174683a206164646974696f6e206f766572666c6f770000000000604082015260600190565b6020808252602d908201527f546f6b656e206e6f7420616c6c6f7765642062792074686520534c415265676960408201526c1cdd1c9e4818dbdb9d1c9858dd609a1b606082015260800190565b60208082526025908201527f4f6e6c79204d657373656e6765722063616e2063616c6c20746869732066756e60408201526431ba34b7b760d91b606082015260800190565b602080825260179082015276155cd95c881a5cc81b9bdd081dda1a5d195b1a5cdd1959604a1b604082015260600190565b60208082526029908201527f53686f756c64206e6f74207769746864726177206d6f7265207468616e207573604082015268657273207374616b6560b81b606082015260800190565b60208082526028908201527f43616e206f6e6c79207374616b65206f6e206e6f742066696e697368656420636040820152676f6e74726163747360c01b606082015260800190565b60208082526021908201527f536166654d6174683a206d756c7469706c69636174696f6e206f766572666c6f6040820152607760f81b606082015260800190565b6020808252601490820152731d1bdad95b881a5cc81b9bdd08185b1b1bddd95960621b604082015260600190565b6020808252818101527f4f776e61626c653a2063616c6c6572206973206e6f7420746865206f776e6572604082015260600190565b6020808252601a908201527f4f6e6c7920666f722066696e697368656420636f6e7472616374000000000000604082015260600190565b602080825260139082015272151bdad95b88185b1c9958591e481859191959606a1b604082015260600190565b6020808252601d908201527f416464726573733a2063616c6c20746f206e6f6e2d636f6e7472616374000000604082015260600190565b6020808252601290820152710616d6f756e742063616e6e6f7420626520360741b604082015260600190565b602080825260149082015273155cd95c881b9bdd081dda1a5d195b1a5cdd195960621b604082015260600190565b60208082526029908201527f43616e6e6f74207374616b65206d6f7265207468616e20534c412070726f7669604082015268646572207374616b6560b81b606082015260800190565b6020808252602a908201527f5361666545524332303a204552433230206f7065726174696f6e20646964206e6040820152691bdd081cdd58d8d9595960b21b606082015260800190565b6001600160801b0391909116815260200190565b9182526001600160a01b0316602082015260400190565b918252602082015260400190565b838152602081018390526060810160038310612fb057fe5b826040830152949350505050565b9283526020830191909152604082015260600190565b60405181810167ffffffffffffffff81118282101715612ff357600080fd5b604052919050565b600067ffffffffffffffff821115613011578081fd5b5060209081020190565b60005b8381101561303657818101518382015260200161301e565b838111156116305750506000910152565b6001600160a01b038116811461242557600080fdfea264697066735822122024b07abaa0ceec9d730bc1565442b5cc22fbb145450f47f48704e554a50125e564736f6c634300060600338be0079c531659141344cd1fd0a4f28419497f9722a3daafe3b4186f6b6457e0a264697066735822122030582e34edbd93c85706ba3ebf2d6064d4a7e244813c0e02def02dacaeaeba0164736f6c63430006060033",
  "immutableReferences": {},
  "source": "// SPDX-License-Identifier: MIT\npragma solidity 0.6.6;\npragma experimental ABIEncoderV2;\n\nimport \"@openzeppelin/contracts/math/SafeMath.sol\";\nimport \"@openzeppelin/contracts/access/Ownable.sol\";\nimport \"./SLA.sol\";\nimport \"./SLORegistry.sol\";\nimport \"./PeriodRegistry.sol\";\nimport \"./MessengerRegistry.sol\";\nimport \"./StakeRegistry.sol\";\nimport \"./messenger/IMessenger.sol\";\n\n/**\n * @title SLARegistry\n * @dev SLARegistry is a contract for handling creation of service level\n * agreements and keeping track of the created agreements\n */\ncontract SLARegistry is Ownable {\n    using SafeMath for uint256;\n\n    /// @dev SLO registry\n    SLORegistry public sloRegistry;\n    /// @dev Periods registry\n    PeriodRegistry public periodRegistry;\n    /// @dev Messengers registry\n    MessengerRegistry public messengerRegistry;\n    /// @dev Stake registry\n    StakeRegistry public stakeRegistry;\n    /// @dev stores the addresses of created SLAs\n    SLA[] public SLAs;\n    /// @dev stores the indexes of service level agreements owned by an user\n    mapping(address => uint256[]) private userToSLAIndexes;\n    /// @dev to check if registered SLA\n    mapping(address => bool) private registeredSLAs;\n\n    /**\n     * @dev event for service level agreement creation logging\n     * @param sla 1. The address of the created service level agreement contract\n     * @param owner 2. The address of the owner of the service level agreement\n     */\n    event SLACreated(SLA indexed sla, address indexed owner);\n\n    /**\n     * @dev constructor\n     * @param _sloRegistry 1. SLO Registry\n     * @param _periodRegistry 2. Periods registry\n     * @param _messengerRegistry 3. Messenger registry\n     * @param _stakeRegistry 4. Stake registry\n     */\n    constructor(\n        SLORegistry _sloRegistry,\n        PeriodRegistry _periodRegistry,\n        MessengerRegistry _messengerRegistry,\n        StakeRegistry _stakeRegistry\n    ) public {\n        sloRegistry = _sloRegistry;\n        sloRegistry.setSLARegistry();\n        periodRegistry = _periodRegistry;\n        stakeRegistry = _stakeRegistry;\n        stakeRegistry.setSLARegistry();\n        messengerRegistry = _messengerRegistry;\n        messengerRegistry.setSLARegistry();\n    }\n\n    /**\n     * @dev public function for creating canonical service level agreements\n     * @param _sloValue 1. -\n     * @param _sloType 2. -\n     * @param _ipfsHash 3. -\n     * @param _periodType 4. -\n     * @param _initialPeriodId 5. -\n     * @param _finalPeriodId 6. -\n     * @param _messengerAddress 7. -\n     * @param _whitelisted 8. -\n     * @param _extraData 9. -\n     */\n    function createSLA(\n        uint256 _sloValue,\n        SLORegistry.SLOType _sloType,\n        bool _whitelisted,\n        address _messengerAddress,\n        PeriodRegistry.PeriodType _periodType,\n        uint128 _initialPeriodId,\n        uint128 _finalPeriodId,\n        string memory _ipfsHash,\n        bytes32[] memory _extraData\n    ) public {\n        bool validPeriod =\n            periodRegistry.isValidPeriod(_periodType, _initialPeriodId);\n        require(validPeriod, \"First period id not valid\");\n        validPeriod = periodRegistry.isValidPeriod(_periodType, _finalPeriodId);\n        require(validPeriod, \"Final period id not valid\");\n        require(\n            _finalPeriodId >= _initialPeriodId,\n            \"finalPeriodId should be greater than or equal to initialPeriodId\"\n        );\n        // UNCOMMENT THE NEXT 3 LINES BEFORE MAINNET\n        // bool periodHasStarted =\n        //     periodRegistry.periodHasStarted(_periodType, _initialPeriodId);\n        // require(!periodHasStarted, \"Period has started\");\n        bool registeredMessenger =\n            messengerRegistry.registeredMessengers(_messengerAddress);\n        require(\n            registeredMessenger == true,\n            \"messenger address is not registered\"\n        );\n\n        SLA sla =\n            new SLA(\n                msg.sender,\n                address(sloRegistry),\n                _whitelisted,\n                _periodType,\n                _messengerAddress,\n                _initialPeriodId,\n                _finalPeriodId,\n                uint128(SLAs.length),\n                _ipfsHash,\n                _extraData\n            );\n\n        sloRegistry.registerSLO(_sloValue, _sloType, address(sla));\n        stakeRegistry.lockDSLAValue(\n            msg.sender,\n            address(sla),\n            _finalPeriodId - _initialPeriodId + 1\n        );\n        SLAs.push(sla);\n        registeredSLAs[address(sla)] = true;\n        uint256 index = SLAs.length.sub(1);\n        userToSLAIndexes[msg.sender].push(index);\n        emit SLACreated(sla, msg.sender);\n    }\n\n    /**\n     * @dev Gets SLI information for the specified SLA and SLO\n     * @param _periodId 1. id of the period\n     * @param _sla 2. SLA Address\n     * @param _ownerApproval 3. if approval by owner or msg.sender\n     */\n    function requestSLI(\n        uint256 _periodId,\n        SLA _sla,\n        bool _ownerApproval\n    ) public {\n        require(\n            _periodId == _sla.nextVerifiablePeriod(),\n            \"Should only verify next period\"\n        );\n        (, , SLA.Status status) = _sla.periodSLIs(_periodId);\n        require(\n            status == SLA.Status.NotVerified,\n            \"SLA contract was already verified for the period\"\n        );\n        bool breachedContract = _sla.breachedContract();\n        require(\n            breachedContract == false,\n            \"Should only be called for not breached contracts\"\n        );\n        bool slaAllowedPeriodId = _sla.isAllowedPeriod(_periodId);\n        require(\n            slaAllowedPeriodId == true,\n            \"Period ID not registered in the SLA contract\"\n        );\n        PeriodRegistry.PeriodType slaPeriodType = _sla.periodType();\n        bool periodFinished =\n            periodRegistry.periodIsFinished(slaPeriodType, _periodId);\n        require(\n            periodFinished == true,\n            \"SLA contract period has not finished yet\"\n        );\n        address slaMessenger = _sla.messengerAddress();\n        IMessenger(slaMessenger).requestSLI(\n            _periodId,\n            address(_sla),\n            _ownerApproval,\n            msg.sender\n        );\n        stakeRegistry.distributeVerificationRewards(\n            address(_sla),\n            msg.sender,\n            _periodId\n        );\n    }\n\n    function returnLockedValue(SLA _sla) public {\n        require(\n            msg.sender == _sla.owner(),\n            \"Only SLA owner can claim locked value\"\n        );\n        uint256 lastValidPeriodId = _sla.finalPeriodId();\n        PeriodRegistry.PeriodType periodType = _sla.periodType();\n        (, uint256 endOfLastValidPeriod) =\n            periodRegistry.getPeriodStartAndEnd(periodType, lastValidPeriodId);\n\n        (, , SLA.Status lastPeriodStatus) = _sla.periodSLIs(lastValidPeriodId);\n        require(\n            _sla.breachedContract() == true ||\n                (block.timestamp >= endOfLastValidPeriod &&\n                    lastPeriodStatus != SLA.Status.NotVerified),\n            \"Can only withdraw locked DSLA after the final period is verified or if the contract is breached\"\n        );\n        stakeRegistry.returnLockedValue(address(_sla));\n    }\n\n    /**\n     * @dev function to declare this SLARegistry contract as SLARegistry of _messengerAddress\n     * @param _messengerAddress 1. address of the messenger\n     */\n\n    function registerMessenger(\n        address _messengerAddress,\n        string memory _messengerBaseURL,\n        string memory _messengerOwnershipURL,\n        string memory _messengerSpecificationURL\n    ) public {\n        IMessenger(_messengerAddress).setSLARegistry();\n        messengerRegistry.registerMessenger(\n            _messengerAddress,\n            _messengerBaseURL,\n            _messengerOwnershipURL,\n            _messengerSpecificationURL\n        );\n    }\n\n    /**\n     * @dev public view function that returns the service level agreements that\n     * the given user is the owner of\n     * @param _user Address of the user for which to return the service level\n     * agreements\n     * @return array of SLAs\n     */\n    function userSLAs(address _user) public view returns (SLA[] memory) {\n        uint256 count = userSLACount(_user);\n        SLA[] memory SLAList = new SLA[](count);\n        uint256[] memory userSLAIndexes = userToSLAIndexes[_user];\n\n        for (uint256 i = 0; i < count; i++) {\n            SLAList[i] = (SLAs[userSLAIndexes[i]]);\n        }\n\n        return (SLAList);\n    }\n\n    /**\n     * @dev public view function that returns the amount of service level\n     * agreements the given user is the owner of\n     * @param _user 1. address of the user for which to return the amount of\n     * service level agreements\n     * @return uint256 corresponding to the amount of user's SLAs\n     */\n    function userSLACount(address _user) public view returns (uint256) {\n        return userToSLAIndexes[_user].length;\n    }\n\n    /**\n     * @dev public view function that returns all the service level agreements\n     * @return SLA[] array of SLAs\n     */\n    function allSLAs() public view returns (SLA[] memory) {\n        return (SLAs);\n    }\n\n    /**\n     * @dev public view function that returns the total amount of service\n     * level agreements\n     * @return uint256, the length of SLA array\n     */\n    function SLACount() public view returns (uint256) {\n        return SLAs.length;\n    }\n\n    /**\n     * @dev public view function that returns true if _slaAddress was deployed using this SLARegistry\n     * @param _slaAddress address of the SLA to be checked\n     */\n    function isRegisteredSLA(address _slaAddress) public view returns (bool) {\n        return registeredSLAs[_slaAddress];\n    }\n}\n",
  "sourcePath": "/Users/matiasbn/Desktop/stacktical/stacktical-dsla-contracts/contracts/SLARegistry.sol",
  "compiler": {
    "name": "solc",
    "version": "0.6.6+commit.6c089d02.Emscripten.clang"
  },
  "schemaVersion": "3.3.3",
  "updatedAt": "2021-03-16T21:26:33.637Z",
  "networkType": "ethereum",
  "devdoc": {
    "details": "SLARegistry is a contract for handling creation of service level agreements and keeping track of the created agreements",
    "methods": {
      "SLACount()": {
        "details": "public view function that returns the total amount of service level agreements",
        "returns": {
          "_0": "uint256, the length of SLA array"
        }
      },
      "allSLAs()": {
        "details": "public view function that returns all the service level agreements",
        "returns": {
          "_0": "SLA[] array of SLAs"
        }
      },
      "constructor": {
        "details": "constructor",
        "params": {
          "_messengerRegistry": "3. Messenger registry",
          "_periodRegistry": "2. Periods registry",
          "_sloRegistry": "1. SLO Registry",
          "_stakeRegistry": "4. Stake registry"
        }
      },
      "createSLA(uint256,uint8,bool,address,uint8,uint128,uint128,string,bytes32[])": {
        "details": "public function for creating canonical service level agreements",
        "params": {
          "_extraData": "9. -",
          "_finalPeriodId": "6. -",
          "_initialPeriodId": "5. -",
          "_ipfsHash": "3. -",
          "_messengerAddress": "7. -",
          "_periodType": "4. -",
          "_sloType": "2. -",
          "_sloValue": "1. -",
          "_whitelisted": "8. -"
        }
      },
      "isRegisteredSLA(address)": {
        "details": "public view function that returns true if _slaAddress was deployed using this SLARegistry",
        "params": {
          "_slaAddress": "address of the SLA to be checked"
        }
      },
      "owner()": {
        "details": "Returns the address of the current owner."
      },
      "registerMessenger(address,string,string,string)": {
        "details": "function to declare this SLARegistry contract as SLARegistry of _messengerAddress",
        "params": {
          "_messengerAddress": "1. address of the messenger"
        }
      },
      "renounceOwnership()": {
        "details": "Leaves the contract without owner. It will not be possible to call `onlyOwner` functions anymore. Can only be called by the current owner.     * NOTE: Renouncing ownership will leave the contract without an owner, thereby removing any functionality that is only available to the owner."
      },
      "requestSLI(uint256,address,bool)": {
        "details": "Gets SLI information for the specified SLA and SLO",
        "params": {
          "_ownerApproval": "3. if approval by owner or msg.sender",
          "_periodId": "1. id of the period",
          "_sla": "2. SLA Address"
        }
      },
      "transferOwnership(address)": {
        "details": "Transfers ownership of the contract to a new account (`newOwner`). Can only be called by the current owner."
      },
      "userSLACount(address)": {
        "details": "public view function that returns the amount of service level agreements the given user is the owner of",
        "params": {
          "_user": "1. address of the user for which to return the amount of service level agreements"
        },
        "returns": {
          "_0": "uint256 corresponding to the amount of user's SLAs"
        }
      },
      "userSLAs(address)": {
        "details": "public view function that returns the service level agreements that the given user is the owner of",
        "params": {
          "_user": "Address of the user for which to return the service level agreements"
        },
        "returns": {
          "_0": "array of SLAs"
        }
      }
    },
    "title": "SLARegistry"
  },
  "userdoc": {
    "methods": {}
  }
}