{
  "contractName": "SLARegistry",
  "abi": [
    {
      "inputs": [
        {
          "internalType": "contract Messenger",
          "name": "_messengerAddress",
          "type": "address"
        }
      ],
      "stateMutability": "nonpayable",
      "type": "constructor"
    },
    {
      "anonymous": false,
      "inputs": [
        {
          "indexed": true,
          "internalType": "contract SLA",
          "name": "sla",
          "type": "address"
        },
        {
          "indexed": true,
          "internalType": "address",
          "name": "owner",
          "type": "address"
        }
      ],
      "name": "SLACreated",
      "type": "event"
    },
    {
      "inputs": [
        {
          "internalType": "uint256",
          "name": "",
          "type": "uint256"
        }
      ],
      "name": "SLAs",
      "outputs": [
        {
          "internalType": "contract SLA",
          "name": "",
          "type": "address"
        }
      ],
      "stateMutability": "view",
      "type": "function",
      "constant": true
    },
    {
      "inputs": [],
      "name": "messenger",
      "outputs": [
        {
          "internalType": "contract Messenger",
          "name": "",
          "type": "address"
        }
      ],
      "stateMutability": "view",
      "type": "function",
      "constant": true
    },
    {
      "inputs": [
        {
          "internalType": "address",
          "name": "_owner",
          "type": "address"
        },
        {
          "internalType": "bytes32[]",
          "name": "_SLONames",
          "type": "bytes32[]"
        },
        {
          "internalType": "contract SLO[]",
          "name": "_SLOs",
          "type": "address[]"
        },
        {
          "internalType": "uint256",
          "name": "_stake",
          "type": "uint256"
        },
        {
          "internalType": "string",
          "name": "_ipfsHash",
          "type": "string"
        },
        {
          "internalType": "uint256",
          "name": "_sliInterval",
          "type": "uint256"
        },
        {
          "internalType": "contract bDSLAToken",
          "name": "_tokenAddress",
          "type": "address"
        },
        {
          "internalType": "uint256[]",
          "name": "_sla_period_starts",
          "type": "uint256[]"
        },
        {
          "internalType": "uint256[]",
          "name": "_sla_period_ends",
          "type": "uint256[]"
        },
        {
          "internalType": "address",
          "name": "_daiAddress",
          "type": "address"
        }
      ],
      "name": "createSLA",
      "outputs": [],
      "stateMutability": "nonpayable",
      "type": "function"
    },
    {
      "inputs": [
        {
          "internalType": "uint256",
          "name": "_periodId",
          "type": "uint256"
        },
        {
          "internalType": "contract SLA",
          "name": "_sla",
          "type": "address"
        },
        {
          "internalType": "bytes32",
          "name": "_sloName",
          "type": "bytes32"
        }
      ],
      "name": "requestSLI",
      "outputs": [],
      "stateMutability": "nonpayable",
      "type": "function"
    },
    {
      "inputs": [
        {
          "internalType": "address",
          "name": "_user",
          "type": "address"
        }
      ],
      "name": "userSLAs",
      "outputs": [
        {
          "internalType": "contract SLA[]",
          "name": "",
          "type": "address[]"
        }
      ],
      "stateMutability": "view",
      "type": "function",
      "constant": true
    },
    {
      "inputs": [
        {
          "internalType": "address",
          "name": "_user",
          "type": "address"
        }
      ],
      "name": "userSLACount",
      "outputs": [
        {
          "internalType": "uint256",
          "name": "",
          "type": "uint256"
        }
      ],
      "stateMutability": "view",
      "type": "function",
      "constant": true
    },
    {
      "inputs": [],
      "name": "allSLAs",
      "outputs": [
        {
          "internalType": "contract SLA[]",
          "name": "",
          "type": "address[]"
        }
      ],
      "stateMutability": "view",
      "type": "function",
      "constant": true
    },
    {
      "inputs": [],
      "name": "SLACount",
      "outputs": [
        {
          "internalType": "uint256",
          "name": "",
          "type": "uint256"
        }
      ],
      "stateMutability": "view",
      "type": "function",
      "constant": true
    },
    {
      "inputs": [
        {
          "internalType": "address",
          "name": "_slaOwner",
          "type": "address"
        }
      ],
      "name": "getActivePool",
      "outputs": [
        {
          "components": [
            {
              "internalType": "address",
              "name": "SLAaddress",
              "type": "address"
            },
            {
              "internalType": "uint256",
              "name": "stake",
              "type": "uint256"
            },
            {
              "internalType": "string",
              "name": "assetName",
              "type": "string"
            },
            {
              "internalType": "address",
              "name": "assetAddress",
              "type": "address"
            }
          ],
          "internalType": "struct SLARegistry.ActivePool[]",
          "name": "",
          "type": "tuple[]"
        }
      ],
      "stateMutability": "view",
      "type": "function",
      "constant": true
    }
  ],
  "bytecode": "0x608060405234801561001057600080fd5b5060405161482a38038061482a83398101604081905261002f916100a4565b600080546001600160a01b0319166001600160a01b03838116919091178083556040805163f388158960e01b81529051919092169263f3881589926004808201939182900301818387803b15801561008657600080fd5b505af115801561009a573d6000803e3d6000fd5b50505050506100d2565b6000602082840312156100b5578081fd5b81516001600160a01b03811681146100cb578182fd5b9392505050565b614749806100e16000396000f3fe60806040523480156200001157600080fd5b50600436106200008e5760003560e01c80631428241c14620000935780633cb747bf14620000ac57806350c5abfe14620000ce578063516c285714620000e5578063558450be146200010b578063816ff986146200012257806396bddc10146200013b578063e9b1e98c1462000145578063f2c0dfd4146200015c575b600080fd5b620000aa620000a436600462000c35565b62000182565b005b620000b662000296565b604051620000c5919062000eeb565b60405180910390f35b620000b6620000df36600462000db0565b620002a5565b620000fc620000f636600462000c16565b620002cd565b604051620000c5919062000ffc565b620000aa6200011c36600462000de2565b62000415565b6200012c6200053c565b604051620000c59190620010e8565b620000fc62000542565b6200012c6200015636600462000c16565b620005a6565b620001736200016d36600462000c16565b620005c1565b604051620000c591906200104b565b60008a8a8a8a8a8a8a8a8a8a6040516200019c9062000a6d565b620001b19a9998979695949392919062000f18565b604051809103906000f080158015620001ce573d6000803e3d6000fd5b5060018054808201825560008281527fb10e2d527612073b26eecdfd717e6a320cf44b4afac2b0732d9fcbe2b7fa0cf690910180546001600160a01b0319166001600160a01b0385161790558154929350916200022b91620009c9565b3360009081526002602090815260408083208054600181018255908452918320909101839055519192506001600160a01b038e811692908516917fb52f284a6c14f1a66ab5513b5b539066933e58e69e6432666f0e3c8c8a7d750391a3505050505050505050505050565b6000546001600160a01b031681565b60018181548110620002b357fe5b6000918252602090912001546001600160a01b0316905081565b60606000620002dc83620005a6565b905060608167ffffffffffffffff81118015620002f857600080fd5b5060405190808252806020026020018201604052801562000323578160200160208202803683370190505b506001600160a01b038516600090815260026020908152604091829020805483518184028101840190945280845293945060609390918301828280156200038a57602002820191906000526020600020905b81548152602001906001019080831162000375575b5050505050905060005b838110156200040b576001828281518110620003ac57fe5b602002602001015181548110620003bf57fe5b9060005260206000200160009054906101000a90046001600160a01b0316838281518110620003ea57fe5b6001600160a01b039092166020928302919091019091015260010162000394565b5090949350505050565b60405163b0227b4760e01b81526000906001600160a01b0384169063b0227b479062000446908590600401620010e8565b60206040518083038186803b1580156200045f57600080fd5b505afa15801562000474573d6000803e3d6000fd5b505050506040513d601f19601f820116820180604052508101906200049a919062000d91565b6001600160a01b03161415620004cd5760405162461bcd60e51b8152600401620004c4906200113d565b60405180910390fd5b600054604051632ac2285f60e11b81526001600160a01b039091169063558450be90620005039086908690869060040162001188565b600060405180830381600087803b1580156200051e57600080fd5b505af115801562000533573d6000803e3d6000fd5b50505050505050565b60015490565b606060018054806020026020016040519081016040528092919081815260200182805480156200059c57602002820191906000526020600020905b81546001600160a01b031681526001909101906020018083116200057d575b5050505050905090565b6001600160a01b031660009081526002602052604090205490565b60606000805b620005d284620005a6565b811015620006c4576001600160a01b0384166000908152600260205260408120805460019190849081106200060357fe5b9060005260206000200154815481106200061957fe5b600091825260209091200154604051631d809bc960e31b81526001600160a01b039091169150620006b890829063ec04de48906200065c90339060040162000eeb565b60206040518083038186803b1580156200067557600080fd5b505afa1580156200068a573d6000803e3d6000fd5b505050506040513d601f19601f82011682018060405250810190620006b0919062000dc9565b849062000a16565b925050600101620005c7565b5060608167ffffffffffffffff81118015620006df57600080fd5b506040519080825280602002602001820160405280156200071d57816020015b6200070962000a7b565b815260200190600190039081620006ff5790505b5090506000805b6200072f86620005a6565b8110156200040b576001600160a01b0386166000908152600260205260408120805460019190849081106200076057fe5b9060005260206000200154815481106200077657fe5b60009182526020822001546001600160a01b031691505b604051631d809bc960e31b81526001600160a01b0383169063ec04de4890620007bb90339060040162000eeb565b60206040518083038186803b158015620007d457600080fd5b505afa158015620007e9573d6000803e3d6000fd5b505050506040513d601f19601f820116820180604052508101906200080f919062000dc9565b811015620009be57600080836001600160a01b03166357ac94f033856040518363ffffffff1660e01b81526004016200084a92919062000eff565b604080518083038186803b1580156200086257600080fd5b505afa15801562000877573d6000803e3d6000fd5b505050506040513d601f19601f820116820180604052508101906200089d919062000d61565b60408051808201825260068152656e616d65282960d01b60209182015281516004815260248101835290810180516001600160e01b03166306fdde0360e01b17905290519294509092506060916001600160a01b03851691620009009162000ecd565b600060405180830381855afa9150503d80600081146200093d576040519150601f19603f3d011682016040523d82523d6000602084013e62000942565b606091505b509150506200095062000a7b565b6040518060800160405280876001600160a01b03168152602001848152602001838152602001856001600160a01b03168152509050808989815181106200099357fe5b6020908102919091010152620009ab88600162000a16565b975050600190930192506200078d915050565b505060010162000724565b600062000a0d83836040518060400160405280601e81526020017f536166654d6174683a207375627472616374696f6e206f766572666c6f77000081525062000a3e565b90505b92915050565b60008282018381101562000a0d5760405162461bcd60e51b8152600401620004c49062001106565b6000818484111562000a655760405162461bcd60e51b8152600401620004c49190620010f1565b505050900390565b6134d7806200123d83390190565b604051806080016040528060006001600160a01b03168152602001600081526020016060815260200160006001600160a01b031681525090565b803562000a108162001223565b600082601f83011262000ad3578081fd5b813562000aea62000ae482620011cf565b620011a7565b81815291506020808301908481018184028601820187101562000b0c57600080fd5b60005b8481101562000b2d5781358452928201929082019060010162000b0f565b505050505092915050565b600082601f83011262000b49578081fd5b813562000b5a62000ae482620011cf565b81815291506020808301908481018184028601820187101562000b7c57600080fd5b60005b8481101562000b2d57813562000b958162001223565b8452928201929082019060010162000b7f565b600082601f83011262000bb9578081fd5b813567ffffffffffffffff81111562000bd0578182fd5b62000be5601f8201601f1916602001620011a7565b915080825283602082850101111562000bfd57600080fd5b8060208401602084013760009082016020015292915050565b60006020828403121562000c28578081fd5b813562000a0d8162001223565b6000806000806000806000806000806101408b8d03121562000c55578586fd5b62000c618c8c62000ab5565b995060208b013567ffffffffffffffff8082111562000c7e578788fd5b62000c8c8e838f0162000ac2565b9a5060408d013591508082111562000ca2578788fd5b62000cb08e838f0162000b38565b995060608d0135985060808d013591508082111562000ccd578788fd5b62000cdb8e838f0162000ba8565b975060a08d0135965062000cf38e60c08f0162000ab5565b955060e08d013591508082111562000d09578485fd5b62000d178e838f0162000ac2565b94506101008d013591508082111562000d2e578384fd5b5062000d3d8d828e0162000ac2565b92505062000d508c6101208d0162000ab5565b90509295989b9194979a5092959850565b6000806040838503121562000d74578182fd5b825162000d818162001223565b6020939093015192949293505050565b60006020828403121562000da3578081fd5b815162000a0d8162001223565b60006020828403121562000dc2578081fd5b5035919050565b60006020828403121562000ddb578081fd5b5051919050565b60008060006060848603121562000df7578283fd5b83359250602084013562000e0b8162001223565b929592945050506040919091013590565b6001600160a01b03169052565b6000815180845260208085019450808401835b8381101562000e635781516001600160a01b03168752958201959082019060010162000e3c565b509495945050505050565b6000815180845260208085019450808401835b8381101562000e635781518752958201959082019060010162000e81565b6000815180845262000eb9816020860160208601620011f0565b601f01601f19169290920160200192915050565b6000825162000ee1818460208701620011f0565b9190910192915050565b6001600160a01b0391909116815260200190565b6001600160a01b03929092168252602082015260400190565b6001600160a01b038b16815261014060208083018290528b519183018290526000916101608401918d810191845b8181101562000f645783518552938201939282019260010162000f46565b50505050828103604084015262000f7c818c62000e29565b9050896060840152828103608084015262000f98818a62000e9f565b90508760a084015262000faf60c084018862000e1c565b82810360e084015262000fc3818762000e6e565b905082810361010084015262000fda818662000e6e565b91505062000fed61012083018462000e1c565b9b9a5050505050505050505050565b6020808252825182820181905260009190848201906040850190845b818110156200103f5783516001600160a01b03168352928401929184019160010162001018565b50909695505050505050565b60208082528251828201819052600091906040908185019080840286018301878501865b83811015620010da57888303603f19018552815180516001600160a01b03908116855288820151898601528782015160808987018190529190620010b68388018262000e9f565b6060948501519092169690930195909552505093860193908601906001016200106f565b509098975050505050505050565b90815260200190565b60006020825262000a0d602083018462000e9f565b6020808252601b908201527f536166654d6174683a206164646974696f6e206f766572666c6f770000000000604082015260600190565b6020808252602b908201527f5f736c6f4e616d6520646f6573206e6f7420657869737420696e20746865205360408201526a13104818dbdb9d1c9858dd60aa1b606082015260800190565b9283526001600160a01b03919091166020830152604082015260600190565b60405181810167ffffffffffffffff81118282101715620011c757600080fd5b604052919050565b600067ffffffffffffffff821115620011e6578081fd5b5060209081020190565b60005b838110156200120d578181015183820152602001620011f3565b838111156200121d576000848401525b50505050565b6001600160a01b03811681146200123957600080fd5b5056fe60806040523480156200001157600080fd5b50604051620034d7380380620034d78339810160408190526200003491620007da565b8383838c84600062000045620002e1565b600080546001600160a01b0319166001600160a01b038316908117825560405192935091600080516020620034b7833981519152908290a3508251845114620000ab5760405162461bcd60e51b8152600401620000a29062000981565b60405180910390fd5b600580546001600160a01b038085166001600160a01b03199283161790925560018054888416908316178082556007805480840182557fa66cc928b5edb82af9bd49922954155ab7b0942694bea4ce44661d9a8736c688908101805486169387169390931790925582548516600090815260086020526040808220805460ff199081168717909155600280548a8a1690891617808255855480890190965594909501805490971693881693909317909555915490941681529182208054909316179091555b8451811015620001bd57620001b48582815181106200018b57fe5b6020026020010151858381518110620001a057fe5b6020026020010151620002e560201b60201c565b60010162000170565b5050505050506005885110620001e75760405162461bcd60e51b8152600401620000a29062000a4e565b87518951146200020b5760405162461bcd60e51b8152600401620000a290620009ff565b60005b88518110156200027f578881815181106200022557fe5b6020026020010151601260008c84815181106200023e57fe5b602090810291909101810151825281019190915260400160002080546001600160a01b0319166001600160a01b03929092169190911790556001016200020e565b506200028b8a62000435565b8851620002a09060149060208c019062000564565b50600e8790558551620002bb906010906020890190620005b4565b5050601180546001600160a01b03191633179055505050600f555062000b189350505050565b3390565b620002ef62000626565b82815260208101828152600060808301818152600380546001810182559252835160069092027fc2575a0e9e593c00f959f8c92f12db2869c3395a3b0502d05e2516446f71f85b810192835592517fc2575a0e9e593c00f959f8c92f12db2869c3395a3b0502d05e2516446f71f85c84015560408401517fc2575a0e9e593c00f959f8c92f12db2869c3395a3b0502d05e2516446f71f85d84015560608401517fc2575a0e9e593c00f959f8c92f12db2869c3395a3b0502d05e2516446f71f85e909301805493151560ff199094169390931780845590518493909161ff001916610100836002811115620003e057fe5b02179055505050620004076001600380549050620004e260201b62001c531790919060201c565b6040517ff791e873e3b67fe74b29aeede7bcbbdaa59c4b64e542571183cd837aa56f6ac990600090a2505050565b6200043f620002e1565b6000546001600160a01b039081169116146200046f5760405162461bcd60e51b8152600401620000a290620009ca565b6001600160a01b038116620004985760405162461bcd60e51b8152600401620000a2906200093b565b600080546040516001600160a01b0380851693921691600080516020620034b783398151915291a3600080546001600160a01b0319166001600160a01b0392909216919091179055565b60006200052c83836040518060400160405280601e81526020017f536166654d6174683a207375627472616374696f6e206f766572666c6f7700008152506200053560201b60201c565b90505b92915050565b600081848411156200055c5760405162461bcd60e51b8152600401620000a2919062000906565b505050900390565b828054828255906000526020600020908101928215620005a2579160200282015b82811115620005a257825182559160200191906001019062000585565b50620005b092915062000662565b5090565b828054600181600116156101000203166002900490600052602060002090601f016020900481019282601f10620005f757805160ff1916838001178555620005a2565b82800160010185558215620005a25791820182811115620005a257825182559160200191906001019062000585565b6040518060a00160405280600081526020016000815260200160008152602001600015158152602001600060028111156200065d57fe5b905290565b5b80821115620005b0576000815560010162000663565b80516200052f8162000aff565b600082601f83011262000697578081fd5b8151620006ae620006a88262000aac565b62000a85565b818152915060208083019084810181840286018201871015620006d057600080fd5b60005b84811015620006f157815184529282019290820190600101620006d3565b505050505092915050565b600082601f8301126200070d578081fd5b81516200071e620006a88262000aac565b8181529150602080830190848101818402860182018710156200074057600080fd5b60005b84811015620006f1578151620007598162000aff565b8452928201929082019060010162000743565b600082601f8301126200077d578081fd5b81516001600160401b0381111562000793578182fd5b620007a8601f8201601f191660200162000a85565b9150808252836020828501011115620007c057600080fd5b620007d381602084016020860162000acc565b5092915050565b6000806000806000806000806000806101408b8d031215620007fa578586fd5b620008068c8c62000679565b60208c0151909a506001600160401b038082111562000823578788fd5b620008318e838f0162000686565b9a5060408d015191508082111562000847578788fd5b620008558e838f01620006fc565b995060608d0151985060808d015191508082111562000872578788fd5b620008808e838f016200076c565b975060a08d01519650620008988e60c08f0162000679565b955060e08d0151915080821115620008ae578485fd5b620008bc8e838f0162000686565b94506101008d0151915080821115620008d3578384fd5b50620008e28d828e0162000686565b925050620008f58c6101208d0162000679565b90509295989b9194979a5092959850565b60006020825282518060208401526200092781604085016020870162000acc565b601f01601f19169190910160400192915050565b60208082526026908201527f4f776e61626c653a206e6577206f776e657220697320746865207a65726f206160408201526564647265737360d01b606082015260800190565b60208082526029908201527f506c6561736520636865636b2074686520706172616d73206f6620796f757220604082015268706572696f6473202160b81b606082015260800190565b6020808252818101527f4f776e61626c653a2063616c6c6572206973206e6f7420746865206f776e6572604082015260600190565b6020808252602f908201527f5f534c4f4e616d657320616e64205f534c4f732073686f756c6420686176652060408201526e0e8d0ca40e6c2daca40d8cadccee8d608b1b606082015260800190565b60208082526017908201527f6d617820616d6f756e74206f6620534c4f732069732035000000000000000000604082015260600190565b6040518181016001600160401b038111828210171562000aa457600080fd5b604052919050565b60006001600160401b0382111562000ac2578081fd5b5060209081020190565b60005b8381101562000ae957818101518382015260200162000acf565b8381111562000af9576000848401525b50505050565b6001600160a01b038116811462000b1557600080fd5b50565b61298f8062000b286000396000f3fe608060405234801561001057600080fd5b50600436106102125760003560e01c8063a2e80c5e11610120578063ea4a1104116100b8578063f3fef3a31161007c578063f3fef3a31461048b578063fbbf93a01461049e578063fc875ece146104b7578063fd0d5534146104d8578063fd5e6dd1146104eb57610212565b8063ea4a11041461041b578063ec04de481461043f578063f10bd77214610452578063f2fde38b14610465578063f34ed40d1461047857610212565b8063a2e80c5e1461038f578063ae169a5014610397578063b0227b47146103aa578063b5d5b5fa146103bd578063b83e0234146103d0578063c623674f146103e3578063cec534d6146103f8578063e0bab4c41461040b578063e7ab816a1461041357610212565b806357ac94f0116101ae5780637b103999116101725780637b10399914610342578063817b1cd21461034a578063869c3925146103525780638da5cb5b1461036557806394199c611461036d57610212565b806357ac94f0146102eb5780635e5f2e261461030c5780635f4efaba1461031f578063715018a61461032757806375fdf2a91461032f57610212565b806302e8b893146102175780630e1fcf3414610240578063105237cf14610255578063171e44ea146102755780631934d0e8146102885780632eac97871461029b5780633a4b66f1146102bb5780633a5381b5146102c357806353e85fd5146102d8575b600080fd5b61022a61022536600461230d565b6104fe565b6040516102379190612505565b60405180910390f35b61025361024e366004612325565b61058f565b005b61026861026336600461223a565b6105db565b604051610237919061255e565b61025361028336600461223a565b6105f0565b610268610296366004612256565b6106c5565b6102ae6102a9366004612256565b6106e5565b6040516102379190612569565b6102ae610702565b6102cb610708565b604051610237919061240f565b6102536102e636600461230d565b610717565b6102fe6102f936600461228e565b610991565b604051610237929190612447565b6102cb61031a36600461230d565b610a11565b6102cb610a38565b610253610a47565b61025361033d3660046122b9565b610ac6565b6102cb610e25565b6102ae610e34565b610253610360366004612346565b610e3a565b6102cb611098565b61038061037b366004612325565b6110a7565b604051610237939291906128f4565b6102ae6110e6565b6102536103a536600461230d565b6110ec565b6102cb6103b836600461230d565b6112c6565b6102fe6103cb36600461228e565b6112e1565b6102ae6103de36600461223a565b611324565b6103eb611336565b6040516102379190612572565b61025361040636600461238d565b6113c4565b6102cb6115b4565b6102ae6115c3565b61042e61042936600461230d565b6115c9565b60405161023795949392919061290a565b6102ae61044d36600461223a565b61160c565b6102ae61046036600461228e565b611627565b61025361047336600461223a565b6116d5565b6102ae61048636600461230d565b61178b565b61025361049936600461228e565b6117a9565b6104a6611a1a565b604051610237959493929190612460565b6104ca6104c536600461230d565b611bea565b6040516102379291906128e6565b6102ae6104e636600461223a565b611c34565b6102cb6104f936600461230d565b611c46565b606060136000838152602001908152602001600020805480602002602001604051908101604052809291908181526020016000905b828210156105835783829060005260206000209060030201604051806060016040529081600082015481526020016001820154815260200160028201548152505081526020019060010190610533565b5050505090505b919050565b610597611c95565b6000546001600160a01b039081169116146105cd5760405162461bcd60e51b81526004016105c4906127f5565b60405180910390fd5b6105d78282611c99565b5050565b60086020526000908152604090205460ff1681565b6105f8611c95565b6000546001600160a01b039081169116146106255760405162461bcd60e51b81526004016105c4906127f5565b6001600160a01b03811660009081526008602052604090205460ff161561065e5760405162461bcd60e51b81526004016105c490612703565b6007805460018181019092557fa66cc928b5edb82af9bd49922954155ab7b0942694bea4ce44661d9a8736c6880180546001600160a01b039093166001600160a01b031990931683179055600091825260086020526040909120805460ff19169091179055565b600c60209081526000928352604080842090915290825290205460ff1681565b600b60209081526000928352604080842090915290825290205481565b600e5481565b6005546001600160a01b031681565b806003818154811061072557fe5b906000526020600020906006020160000154421015801561076457506003818154811061074e57fe5b9060005260206000209060060201600101544211155b61076d57600080fd5b6005546001600160a01b03163314156107985760405162461bcd60e51b81526004016105c49061269d565b6002600383815481106107a757fe5b906000526020600020906006020160030160019054906101000a900460ff1660028111156107d157fe5b146107ee5760405162461bcd60e51b81526004016105c4906125b2565b600382815481106107fb57fe5b6000918252602080832033845260056006909302019190910190526040902054156108385760405162461bcd60e51b81526004016105c490612889565b60006108443384611627565b9050600061085e600a610858846003611dd4565b90611e0e565b60045490915061086e9083611c53565b600481905550816003858154811061088257fe5b600091825260208083203380855260069390930201600501905260409182902092909255600154905163a9059cbb60e01b81526001600160a01b039091169163a9059cbb916108d691908690600401612447565b602060405180830381600087803b1580156108f057600080fd5b505af1158015610904573d6000803e3d6000fd5b505050506040513d601f19601f8201168201806040525081019061092891906122ed565b50600154604051630852cd8d60e31b81526001600160a01b03909116906342966c6890610959908490600401612569565b600060405180830381600087803b15801561097357600080fd5b505af1158015610987573d6000803e3d6000fd5b5050505050505050565b6001600160a01b0382166000908152600a602052604081208054829190849081106109b857fe5b600091825260208083206002909202909101546001600160a01b038781168452600a90925260409092208054919092169190859081106109f457fe5b906000526020600020906002020160010154915091509250929050565b60078181548110610a1e57fe5b6000918252602090912001546001600160a01b0316905081565b6001546001600160a01b031681565b610a4f611c95565b6000546001600160a01b03908116911614610a7c5760405162461bcd60e51b81526004016105c4906127f5565b600080546040516001600160a01b03909116907f8be0079c531659141344cd1fd0a4f28419497f9722a3daafe3b4186f6b6457e0908390a3600080546001600160a01b0319169055565b6005546001600160a01b0316331415610af15760405162461bcd60e51b81526004016105c49061269d565b6001600160a01b038316600090815260086020526040902054839060ff161515600114610b305760405162461bcd60e51b81526004016105c4906127c7565b600060038381548110610b3f57fe5b600091825260208083206001600160a01b03891684526004600690930201919091018152604080832033845290915290205411610b8e5760405162461bcd60e51b81526004016105c4906126cc565b6040516323b872dd60e01b81526001600160a01b038516906323b872dd90610bbe90339030908890600401612423565b602060405180830381600087803b158015610bd857600080fd5b505af1158015610bec573d6000803e3d6000fd5b505050506040513d601f19601f82011682018060405250810190610c1091906122ed565b50610c5a8360038481548110610c2257fe5b600091825260208083206001600160a01b038a1684526004600690930201919091018152604080832033845290915290205490611e50565b60038381548110610c6757fe5b600091825260208083206001600160a01b038916845260046006909302018201815260408084203385529091529091209190915554610ca69084611e50565b600455610cb38484611e75565b600060038381548110610cc257fe5b600091825260208083206001600160a01b038916845260069283020160040181526040808420338552909152822054905460038054929450610d289287908110610d0857fe5b906000526020600020906006020160020154611e0e90919063ffffffff16565b9050600060038581548110610d3957fe5b600091825260208083206001600160a01b038b16845260046006909302018201815260408084203385529091529091209190915554610d789083611c53565b6004556001546001600160a01b031663a9059cbb33610d978585611c53565b6040518363ffffffff1660e01b8152600401610db4929190612447565b602060405180830381600087803b158015610dce57600080fd5b505af1158015610de2573d6000803e3d6000fd5b505050506040513d601f19601f82011682018060405250810190610e0691906122ed565b50600154610e1d906001600160a01b031683612015565b505050505050565b6011546001600160a01b031681565b60045481565b601160009054906101000a90046001600160a01b03166001600160a01b0316633cb747bf6040518163ffffffff1660e01b815260040160206040518083038186803b158015610e8857600080fd5b505afa158015610e9c573d6000803e3d6000fd5b505050506040513d601f19601f82011682018060405250810190610ec09190612371565b6001600160a01b0316336001600160a01b031614610ef05760405162461bcd60e51b81526004016105c490612658565b600083815260136020908152604080832081516060810183524280825281850188815282850188815284546001818101875595895296909720925160039096029092019485559051918401919091559251600290920191909155517fc95987c1992805ee34bdc915e017cceae36ba1c156b9911fa7e691e6435eb46e91610f7a91859085906128f4565b60405180910390a16000838152601260205260409081902054905163868d08f760e01b81526001600160a01b039091169063868d08f790610fbf908590600401612569565b60206040518083038186803b158015610fd757600080fd5b505afa158015610feb573d6000803e3d6000fd5b505050506040513d601f19601f8201168201806040525081019061100f91906122ed565b6110555760026003828154811061102257fe5b60009182526020909120600360069092020101805461ff00191661010083600281111561104b57fe5b0217905550611093565b60016003828154811061106457fe5b60009182526020909120600360069092020101805461ff00191661010083600281111561108d57fe5b02179055505b505050565b6000546001600160a01b031690565b601360205281600052604060002081815481106110c057fe5b600091825260209091206003909102018054600182015460029092015490935090915083565b60065490565b80600381815481106110fa57fe5b906000526020600020906006020160000154421015801561113957506003818154811061112357fe5b9060005260206000209060060201600101544211155b61114257600080fd5b6005546001600160a01b0316331461116c5760405162461bcd60e51b81526004016105c490612856565b60016003838154811061117b57fe5b906000526020600020906006020160030160019054906101000a900460ff1660028111156111a557fe5b146111c25760405162461bcd60e51b81526004016105c490612585565b600382815481106111cf57fe5b600091825260209091206003600690920201015460ff16156112035760405162461bcd60e51b81526004016105c490612730565b6003546004546000916112169190611e0e565b9050600061122a600a610858846003611dd4565b60045490915061123a9083611c53565b600481905550816003858154811061124e57fe5b90600052602060002090600602016002018190555060016003858154811061127257fe5b60009182526020909120600690910201600301805460ff191691151591909117905560015460405163a9059cbb60e01b81526001600160a01b039091169063a9059cbb906108d69033908690600401612447565b6012602052600090815260409020546001600160a01b031681565b600a60205281600052604060002081815481106112fa57fe5b6000918252602090912060029091020180546001909101546001600160a01b039091169250905082565b60096020526000908152604090205481565b6010805460408051602060026001851615610100026000190190941693909304601f810184900484028201840190925281815292918301828280156113bc5780601f10611391576101008083540402835291602001916113bc565b820191906000526020600020905b81548152906001019060200180831161139f57829003601f168201915b505050505081565b6001600160a01b038216600090815260086020526040902054829060ff1615156001146114035760405162461bcd60e51b81526004016105c4906127c7565b600084116114235760405162461bcd60e51b81526004016105c49061282a565b61142e3384846120ba565b6040516323b872dd60e01b81526001600160a01b038416906323b872dd9061145e90339030908990600401612423565b602060405180830381600087803b15801561147857600080fd5b505af115801561148c573d6000803e3d6000fd5b505050506040513d601f19601f820116820180604052508101906114b091906122ed565b506114fa84600384815481106114c257fe5b600091825260208083206001600160a01b03891684526004600690930201919091018152604080832033845290915290205490611e50565b6003838154811061150757fe5b600091825260208083206001600160a01b0388168452600460069093020182018152604080842033855290915290912091909155546115469085611e50565b60045533600090815260096020526040902054600114156115a457600680546001810182556000919091527ff652222313e28459528d920b65115c16c04f3efc82aaedc97be59f3f377c0d3f0180546001600160a01b031916331790555b6115ae8385611e75565b50505050565b6002546001600160a01b031681565b600f5490565b600381815481106115d657fe5b60009182526020909120600690910201805460018201546002830154600390930154919350919060ff8082169161010090041685565b6001600160a01b03166000908152600a602052604090205490565b6001600160a01b0382166000908152600960205260408120548190156116cc5760005b6007548110156116ca576116c06003858154811061166457fe5b906000526020600020906006020160040160006007848154811061168457fe5b60009182526020808320909101546001600160a01b0390811684528382019490945260409283018220938a168252929092529020548390611e50565b915060010161164a565b505b90505b92915050565b6116dd611c95565b6000546001600160a01b0390811691161461170a5760405162461bcd60e51b81526004016105c4906127f5565b6001600160a01b0381166117305760405162461bcd60e51b81526004016105c4906125db565b600080546040516001600160a01b03808516939216917f8be0079c531659141344cd1fd0a4f28419497f9722a3daafe3b4186f6b6457e091a3600080546001600160a01b0319166001600160a01b0392909216919091179055565b6014818154811061179857fe5b600091825260209091200154905081565b6005546001600160a01b03163314156117d45760405162461bcd60e51b81526004016105c49061269d565b6001600160a01b038216600090815260086020526040902054829060ff1615156001146118135760405162461bcd60e51b81526004016105c4906127c7565b60006003838154811061182257fe5b600091825260208083206001600160a01b038816845260046006909302019190910181526040808320338452909152902054116118715760405162461bcd60e51b81526004016105c4906126cc565b60006003838154811061188057fe5b600091825260208083206001600160a01b0388168452600692830201600401815260408084203385529091528220549054600380549294506118c69287908110610d0857fe5b90506000600385815481106118d757fe5b600091825260208083206001600160a01b038a168452600460069093020182018152604080842033855290915290912091909155546119169083611c53565b6004556001600160a01b03851663a9059cbb336119338585611c53565b6040518363ffffffff1660e01b8152600401611950929190612447565b602060405180830381600087803b15801561196a57600080fd5b505af115801561197e573d6000803e3d6000fd5b505050506040513d601f19601f820116820180604052508101906119a291906122ed565b50336000908152600960205260409020546119be906001611c53565b336000908152600960205260409020819055611a095760006119df33612143565b9050600681815481106119ee57fe5b600091825260209091200180546001600160a01b0319169055505b611a138583612015565b5050505050565b600060606000606080606060148054905067ffffffffffffffff81118015611a4157600080fd5b50604051908082528060200260200182016040528015611a6b578160200160208202803683370190505b50905060005b601454811015611ae5576012600060148381548110611a8c57fe5b9060005260206000200154815260200190815260200160002060009054906101000a90046001600160a01b0316828281518110611ac557fe5b6001600160a01b0390921660209283029190910190910152600101611a71565b50611aee611098565b600e546010805460408051602060026001851615610100026000190190941693909304601f810184900484028201840190925281815292939260149287928691830182828015611b7f5780601f10611b5457610100808354040283529160200191611b7f565b820191906000526020600020905b815481529060010190602001808311611b6257829003601f168201915b5050505050935081805480602002602001604051908101604052809291908181526020018280548015611bd157602002820191906000526020600020905b815481526020019060010190808311611bbd575b5050505050915095509550955095509550509091929394565b60008060038381548110611bfa57fe5b90600052602060002090600602016000015460038481548110611c1957fe5b90600052602060002090600602016001015491509150915091565b600d6020526000908152604090205481565b60068181548110610a1e57fe5b60006116cc83836040518060400160405280601e81526020017f536166654d6174683a207375627472616374696f6e206f766572666c6f77000081525061219c565b3390565b611ca16121ff565b82815260208101828152600060808301818152600380546001810182559252835160069092027fc2575a0e9e593c00f959f8c92f12db2869c3395a3b0502d05e2516446f71f85b810192835592517fc2575a0e9e593c00f959f8c92f12db2869c3395a3b0502d05e2516446f71f85c84015560408401517fc2575a0e9e593c00f959f8c92f12db2869c3395a3b0502d05e2516446f71f85d84015560608401517fc2575a0e9e593c00f959f8c92f12db2869c3395a3b0502d05e2516446f71f85e909301805493151560ff199094169390931780845590518493909161ff001916610100836002811115611d9157fe5b021790555050600354611da691506001611c53565b6040517ff791e873e3b67fe74b29aeede7bcbbdaa59c4b64e542571183cd837aa56f6ac990600090a2505050565b600082611de3575060006116cf565b82820282848281611df057fe5b04146116cc5760405162461bcd60e51b81526004016105c490612786565b60006116cc83836040518060400160405280601a81526020017f536166654d6174683a206469766973696f6e206279207a65726f0000000000008152506121c8565b6000828201838110156116cc5760405162461bcd60e51b81526004016105c490612621565b336000908152600c602090815260408083206001600160a01b038616845290915290205460ff16611f4057336000818152600a60209081526040808320815180830183526001600160a01b03888116808352828601898152845460018082018755868a52888a209551600290920290950180546001600160a01b0319169190941617835551918301919091558686529154600b85528386208387528552838620600019919091019055948452600c83528184209084529091529020805460ff19169091179055611fd2565b336000818152600b602090815260408083206001600160a01b0387168452825280832054938352600a90915290208054611fa091849184908110611f8057fe5b906000526020600020906002020160010154611e5090919063ffffffff16565b336000908152600a60205260409020805483908110611fbb57fe5b906000526020600020906002020160010181905550505b6001600160a01b0382166000908152600d6020526040902054611ff59082611e50565b6001600160a01b039092166000908152600d602052604090209190915550565b336000818152600b602090815260408083206001600160a01b0387168452825280832054938352600a909152902080546120759184918490811061205557fe5b906000526020600020906002020160010154611c5390919063ffffffff16565b506001600160a01b0383166000908152600d60205260409020546120999083611c53565b6001600160a01b039093166000908152600d60205260409020929092555050565b6000600382815481106120c957fe5b600091825260208083206001600160a01b0387811685526006939093020160040181526040808420928816845291905290205411611093576001600160a01b038316600090815260096020526040902054612125906001611e50565b6001600160a01b038416600090815260096020526040902055505050565b6000805b60065481101561219257826001600160a01b03166006828154811061216857fe5b6000918252602090912001546001600160a01b0316141561218a57905061058a565b600101612147565b5060001992915050565b600081848411156121c05760405162461bcd60e51b81526004016105c49190612572565b505050900390565b600081836121e95760405162461bcd60e51b81526004016105c49190612572565b5060008385816121f557fe5b0495945050505050565b6040518060a001604052806000815260200160008152602001600081526020016000151581526020016000600281111561223557fe5b905290565b60006020828403121561224b578081fd5b81356116cc81612941565b60008060408385031215612268578081fd5b823561227381612941565b9150602083013561228381612941565b809150509250929050565b600080604083850312156122a0578182fd5b82356122ab81612941565b946020939093013593505050565b6000806000606084860312156122cd578081fd5b83356122d881612941565b95602085013595506040909401359392505050565b6000602082840312156122fe578081fd5b815180151581146116cc578182fd5b60006020828403121561231e578081fd5b5035919050565b60008060408385031215612337578182fd5b50508035926020909101359150565b60008060006060848603121561235a578283fd5b505081359360208301359350604090920135919050565b600060208284031215612382578081fd5b81516116cc81612941565b6000806000606084860312156123a1578283fd5b8335925060208401356123b381612941565b929592945050506040919091013590565b60008151808452815b818110156123e9576020818501810151868301820152016123cd565b818111156123fa5782602083870101525b50601f01601f19169290920160200192915050565b6001600160a01b0391909116815260200190565b6001600160a01b039384168152919092166020820152604081019190915260600190565b6001600160a01b03929092168252602082015260400190565b600060018060a01b038088168352602060a08185015261248360a08501896123c4565b604085018890528481036060860152865180825282880191830190855b818110156124bc578351835292840192918401916001016124a0565b505085810360808701528651808252908301915082870190855b818110156124f45782518616845292840192918401916001016124d6565b50919b9a5050505050505050505050565b602080825282518282018190526000919060409081850190868401855b828110156125515781518051855286810151878601528501518585015260609093019290850190600101612522565b5091979650505050505050565b901515815260200190565b90815260200190565b6000602082526116cc60208301846123c4565b602080825260139082015272534c41206e6f7420726573706563746564202160681b604082015260600190565b6020808252600f908201526e534c4120726573706563746564202160881b604082015260600190565b60208082526026908201527f4f776e61626c653a206e6577206f776e657220697320746865207a65726f206160408201526564647265737360d01b606082015260800190565b6020808252601b908201527f536166654d6174683a206164646974696f6e206f766572666c6f770000000000604082015260600190565b60208082526025908201527f4f6e6c79204d657373656e6765722063616e2063616c6c20746869732066756e6040820152643a31b4b7b760d91b606082015260800190565b602080825260159082015274596f752061726520612076616c696461746f72202160581b604082015260600190565b6020808252601b908201527f7374616b696e672062616c616e63652063616e6e6f7420626520300000000000604082015260600190565b6020808252601390820152721d1bdad95b88185b1c9958591e481859191959606a1b604082015260600190565b60208082526036908201527f596f75206861766520616c726561647920636c61696d656420796f75722072656040820152757761726420666f72207468697320706572696f64202160501b606082015260800190565b60208082526021908201527f536166654d6174683a206d756c7469706c69636174696f6e206f766572666c6f6040820152607760f81b606082015260800190565b6020808252601490820152731d1bdad95b881a5cc81b9bdd08185b1b1bddd95960621b604082015260600190565b6020808252818101527f4f776e61626c653a2063616c6c6572206973206e6f7420746865206f776e6572604082015260600190565b6020808252601290820152710616d6f756e742063616e6e6f7420626520360741b604082015260600190565b602080825260199082015278596f7520617265206e6f7420612076616c696461746f72202160381b604082015260600190565b6020808252603c908201527f596f75206861766520616c726561647920636c61696d656420796f757220636f60408201527f6d70656e736174696f6e20666f72207468697320706572696f64202100000000606082015260800190565b918252602082015260400190565b9283526020830191909152604082015260600190565b8581526020810185905260408101849052821515606082015260a081016003831061293157fe5b8260808301529695505050505050565b6001600160a01b038116811461295657600080fd5b5056fea264697066735822122082c7a5c5e82b120fcd47b86e522a068e34376db6c2ca261503b14716f895930164736f6c634300060c00338be0079c531659141344cd1fd0a4f28419497f9722a3daafe3b4186f6b6457e0a2646970667358221220b1e07fd1aee14e8467c61791f81e8c349ed5dea01fb5cb35ddc710cb68e0bd6664736f6c634300060c0033",
  "immutableReferences": {},
  "source": "// SPDX-License-Identifier: MIT\npragma solidity ^0.6.0;\npragma experimental ABIEncoderV2;\n\nimport \"@openzeppelin/contracts/math/SafeMath.sol\";\nimport \"@openzeppelin/contracts/token/ERC20/IERC20.sol\";\nimport \"./Messenger.sol\";\nimport \"./SLA/SLA.sol\";\nimport \"./SLO/SLO.sol\";\nimport \"./bDSLA/bDSLAToken.sol\";\n\n/**\n * @title SLARegistry\n * @dev SLARegistry is a contract for handling creation of service level\n * agreements and keeping track of the created agreements\n */\ncontract SLARegistry {\n    using SafeMath for uint256;\n    bytes4 private constant NAME_SELECTOR = bytes4(keccak256(bytes(\"name()\")));\n\n    /// @dev struct to return on getActivePool function.\n    struct ActivePool {\n        address SLAaddress;\n        uint256 stake;\n        string assetName;\n        address assetAddress;\n    }\n\n    /// @dev Messenger of the SLA Registry\n    Messenger public messenger;\n\n    /// @dev stores the addresses of created SLAs\n    SLA[] public SLAs;\n\n    /// @dev stores the indexes of service level agreements owned by an user\n    mapping(address => uint256[]) private userToSLAIndexes;\n\n    /**\n     * @dev event for service level agreement creation logging\n     * @param sla 1. The address of the created service level agreement contract\n     * @param owner 2. The address of the owner of the service level agreement\n     */\n    event SLACreated(SLA indexed sla, address indexed owner);\n\n    /**\n     * @dev constructor\n     * @param _messengerAddress the address of the chainlink messenger contract\n     */\n    constructor(Messenger _messengerAddress) public {\n        messenger = _messengerAddress;\n        /// TODO:change to call(signature(params)))\n        messenger.setSLARegistry();\n    }\n\n    /**\n     * @dev public function for creating service level agreements\n     * @param _owner 1. address of the owner of the service level agreement\n     * @param _SLONames 2. array of the names of the service level objectives\n     * in bytes32\n     * @param _SLOs 3. array of service level objective contract addressess\n     * service level objective breach\n     * @param _stake 4. uint of the amount required to stake when signing the\n     * service level agreement\n     * @param _ipfsHash 5. string with the ipfs hash that contains extra\n     * information about the service level agreement\n     * @param _sliInterval 6. uint the interval in seconds between requesting a new SLI\n     * @param _tokenAddress 7. address of the DSLA token to be unlocked for staking\n     * @param _sla_period_starts 8. array with the values for the \"start\" of every period\n     * @param _sla_period_ends 9. array with the values for the \"end\" of every period\n     * @param _daiAddress 10. DAI Token Address to accept by default\n     */\n    function createSLA(\n        address _owner,\n        bytes32[] memory _SLONames,\n        SLO[] memory _SLOs,\n        uint256 _stake,\n        string memory _ipfsHash,\n        uint256 _sliInterval,\n        bDSLAToken _tokenAddress,\n        uint256[] memory _sla_period_starts,\n        uint256[] memory _sla_period_ends,\n        address _daiAddress\n    ) public {\n        SLA sla =\n            new SLA(\n                _owner,\n                _SLONames,\n                _SLOs,\n                _stake,\n                _ipfsHash,\n                _sliInterval,\n                _tokenAddress,\n                _sla_period_starts,\n                _sla_period_ends,\n                _daiAddress\n            );\n\n        SLAs.push(sla);\n\n        uint256 index = SLAs.length.sub(1);\n\n        userToSLAIndexes[msg.sender].push(index);\n\n        emit SLACreated(sla, _owner);\n    }\n\n    /**\n     * @dev Gets SLI information for the specified SLA and SLO\n     * @param _periodId 1. id of the period\n     * @param _sla 2. SLA Address\n     * @param _sloName 3. SLO Name\n     * @notice it will revert if the SLO is not registered in the SLA\n     */\n    function requestSLI(\n        uint256 _periodId,\n        SLA _sla,\n        bytes32 _sloName\n    ) public {\n        require(\n            address(SLA(_sla).SLOs(_sloName)) != address(0),\n            \"_sloName does not exist in the SLA contract\"\n        );\n        /// TODO:change to call(signature(params)))\n        messenger.requestSLI(_periodId, _sla, _sloName);\n    }\n\n    /**\n     * @dev public view function that returns the service level agreements that\n     * the given user is the owner of\n     * @param _user Address of the user for which to return the service level\n     * agreements\n     * @return array of SLAs\n     */\n    function userSLAs(address _user) public view returns (SLA[] memory) {\n        uint256 count = userSLACount(_user);\n        SLA[] memory SLAList = new SLA[](count);\n        uint256[] memory userSLAIndexes = userToSLAIndexes[_user];\n\n        for (uint256 i = 0; i < count; i++) {\n            SLAList[i] = (SLAs[userSLAIndexes[i]]);\n        }\n\n        return (SLAList);\n    }\n\n    /**\n     * @dev public view function that returns the amount of service level\n     * agreements the given user is the owner of\n     * @param _user 1. address of the user for which to return the amount of\n     * service level agreements\n     * @return uint256 corresponding to the amount of user's SLAs\n     */\n    function userSLACount(address _user) public view returns (uint256) {\n        return userToSLAIndexes[_user].length;\n    }\n\n    /**\n     * @dev public view function that returns all the service level agreements\n     * @return SLA[] array of SLAs\n     */\n    function allSLAs() public view returns (SLA[] memory) {\n        return (SLAs);\n    }\n\n    /**\n     * @dev public view function that returns the total amount of service\n     * level agreements\n     * @return uint256, the length of SLA array\n     */\n    function SLACount() public view returns (uint256) {\n        return SLAs.length;\n    }\n\n    /**\n     * @dev returns the active pools owned by a user.\n     * @param _slaOwner 1. owner of the active pool\n     * @return ActivePool[], array of structs: {SLAaddress,stake,assetName}\n     */\n    function getActivePool(address _slaOwner)\n        public\n        view\n        returns (ActivePool[] memory)\n    {\n        uint256 stakeCounter = 0;\n        // Count the stakes of the user\n        for (uint256 index = 0; index < userSLACount(_slaOwner); index++) {\n            SLA currentSLA = SLAs[userToSLAIndexes[_slaOwner][index]];\n            stakeCounter = stakeCounter.add(\n                currentSLA.getTokenStakeLength(msg.sender)\n            );\n        }\n\n        ActivePool[] memory activePools = new ActivePool[](stakeCounter);\n        // to insert on activePools array\n        uint256 stakePosition = 0;\n        for (uint256 index = 0; index < userSLACount(_slaOwner); index++) {\n            SLA currentSLA = SLAs[userToSLAIndexes[_slaOwner][index]];\n            for (\n                uint256 tokenIndex = 0;\n                tokenIndex < currentSLA.getTokenStakeLength(msg.sender);\n                tokenIndex++\n            ) {\n                (address tokenAddress, uint256 stake) =\n                    currentSLA.getTokenStake(msg.sender, tokenIndex);\n                (, bytes memory tokenNameBytes) =\n                    tokenAddress.staticcall(\n                        abi.encodeWithSelector(NAME_SELECTOR)\n                    );\n                ActivePool memory currentActivePool =\n                    ActivePool({\n                        SLAaddress: address(currentSLA),\n                        stake: stake,\n                        assetName: string(tokenNameBytes),\n                        assetAddress: tokenAddress\n                    });\n                activePools[stakePosition] = currentActivePool;\n                stakePosition = stakePosition.add(1);\n            }\n        }\n        return activePools;\n    }\n}\n",
  "sourcePath": "/Users/matiasbn/Desktop/stacktical/stacktical-dsla-contracts/contracts/SLARegistry.sol",
  "compiler": {
    "name": "solc",
    "version": "0.6.12+commit.27d51765.Emscripten.clang"
  },
  "schemaVersion": "3.2.5",
  "updatedAt": "2020-12-29T22:04:32.984Z",
  "networkType": "ethereum",
  "devdoc": {
    "details": "SLARegistry is a contract for handling creation of service level agreements and keeping track of the created agreements",
    "events": {
      "SLACreated(address,address)": {
        "details": "event for service level agreement creation logging",
        "params": {
          "owner": "2. The address of the owner of the service level agreement",
          "sla": "1. The address of the created service level agreement contract"
        }
      }
    },
    "kind": "dev",
    "methods": {
      "SLACount()": {
        "details": "public view function that returns the total amount of service level agreements",
        "returns": {
          "_0": "uint256, the length of SLA array"
        }
      },
      "allSLAs()": {
        "details": "public view function that returns all the service level agreements",
        "returns": {
          "_0": "SLA[] array of SLAs"
        }
      },
      "constructor": {
        "details": "constructor",
        "params": {
          "_messengerAddress": "the address of the chainlink messenger contract"
        }
      },
      "createSLA(address,bytes32[],address[],uint256,string,uint256,address,uint256[],uint256[],address)": {
        "details": "public function for creating service level agreements",
        "params": {
          "_SLONames": "2. array of the names of the service level objectives in bytes32",
          "_SLOs": "3. array of service level objective contract addressess service level objective breach",
          "_daiAddress": "10. DAI Token Address to accept by default",
          "_ipfsHash": "5. string with the ipfs hash that contains extra information about the service level agreement",
          "_owner": "1. address of the owner of the service level agreement",
          "_sla_period_ends": "9. array with the values for the \"end\" of every period",
          "_sla_period_starts": "8. array with the values for the \"start\" of every period",
          "_sliInterval": "6. uint the interval in seconds between requesting a new SLI",
          "_stake": "4. uint of the amount required to stake when signing the service level agreement",
          "_tokenAddress": "7. address of the DSLA token to be unlocked for staking"
        }
      },
      "getActivePool(address)": {
        "details": "returns the active pools owned by a user.",
        "params": {
          "_slaOwner": "1. owner of the active pool"
        },
        "returns": {
          "_0": "ActivePool[], array of structs: {SLAaddress,stake,assetName}"
        }
      },
      "requestSLI(uint256,address,bytes32)": {
        "details": "Gets SLI information for the specified SLA and SLO",
        "params": {
          "_periodId": "1. id of the period",
          "_sla": "2. SLA Address",
          "_sloName": "3. SLO Name"
        }
      },
      "userSLACount(address)": {
        "details": "public view function that returns the amount of service level agreements the given user is the owner of",
        "params": {
          "_user": "1. address of the user for which to return the amount of service level agreements"
        },
        "returns": {
          "_0": "uint256 corresponding to the amount of user's SLAs"
        }
      },
      "userSLAs(address)": {
        "details": "public view function that returns the service level agreements that the given user is the owner of",
        "params": {
          "_user": "Address of the user for which to return the service level agreements"
        },
        "returns": {
          "_0": "array of SLAs"
        }
      }
    },
    "stateVariables": {
      "SLAs": {
        "details": "stores the addresses of created SLAs"
      },
      "messenger": {
        "details": "Messenger of the SLA Registry"
      },
      "userToSLAIndexes": {
        "details": "stores the indexes of service level agreements owned by an user"
      }
    },
    "title": "SLARegistry",
    "version": 1
  },
  "userdoc": {
    "kind": "user",
    "methods": {
      "requestSLI(uint256,address,bytes32)": {
        "notice": "it will revert if the SLO is not registered in the SLA"
      }
    },
    "version": 1
  }
}