{
  "contractName": "SLARegistry",
  "abi": [
    {
      "inputs": [
        {
          "internalType": "contract Messenger",
          "name": "_messengerAddress",
          "type": "address"
        }
      ],
      "stateMutability": "nonpayable",
      "type": "constructor"
    },
    {
      "anonymous": false,
      "inputs": [
        {
          "indexed": true,
          "internalType": "contract SLA",
          "name": "sla",
          "type": "address"
        },
        {
          "indexed": true,
          "internalType": "address",
          "name": "owner",
          "type": "address"
        }
      ],
      "name": "SLACreated",
      "type": "event"
    },
    {
      "inputs": [
        {
          "internalType": "uint256",
          "name": "",
          "type": "uint256"
        }
      ],
      "name": "SLAs",
      "outputs": [
        {
          "internalType": "contract SLA",
          "name": "",
          "type": "address"
        }
      ],
      "stateMutability": "view",
      "type": "function"
    },
    {
      "inputs": [],
      "name": "messenger",
      "outputs": [
        {
          "internalType": "contract Messenger",
          "name": "",
          "type": "address"
        }
      ],
      "stateMutability": "view",
      "type": "function"
    },
    {
      "inputs": [
        {
          "internalType": "address",
          "name": "_owner",
          "type": "address"
        },
        {
          "internalType": "bytes32[]",
          "name": "_SLONames",
          "type": "bytes32[]"
        },
        {
          "internalType": "contract SLO[]",
          "name": "_SLOs",
          "type": "address[]"
        },
        {
          "internalType": "uint256",
          "name": "_stake",
          "type": "uint256"
        },
        {
          "internalType": "string",
          "name": "_ipfsHash",
          "type": "string"
        },
        {
          "internalType": "uint256",
          "name": "_sliInterval",
          "type": "uint256"
        },
        {
          "internalType": "address",
          "name": "_baseTokenAddress",
          "type": "address"
        },
        {
          "internalType": "uint256[]",
          "name": "_sla_period_starts",
          "type": "uint256[]"
        },
        {
          "internalType": "uint256[]",
          "name": "_sla_period_ends",
          "type": "uint256[]"
        }
      ],
      "name": "createSLA",
      "outputs": [],
      "stateMutability": "nonpayable",
      "type": "function"
    },
    {
      "inputs": [
        {
          "internalType": "uint256",
          "name": "_periodId",
          "type": "uint256"
        },
        {
          "internalType": "contract SLA",
          "name": "_sla",
          "type": "address"
        },
        {
          "internalType": "bytes32",
          "name": "_sloName",
          "type": "bytes32"
        }
      ],
      "name": "requestSLI",
      "outputs": [],
      "stateMutability": "nonpayable",
      "type": "function"
    },
    {
      "inputs": [
        {
          "internalType": "address",
          "name": "_user",
          "type": "address"
        }
      ],
      "name": "userSLAs",
      "outputs": [
        {
          "internalType": "contract SLA[]",
          "name": "",
          "type": "address[]"
        }
      ],
      "stateMutability": "view",
      "type": "function"
    },
    {
      "inputs": [
        {
          "internalType": "address",
          "name": "_user",
          "type": "address"
        }
      ],
      "name": "userSLACount",
      "outputs": [
        {
          "internalType": "uint256",
          "name": "",
          "type": "uint256"
        }
      ],
      "stateMutability": "view",
      "type": "function"
    },
    {
      "inputs": [],
      "name": "allSLAs",
      "outputs": [
        {
          "internalType": "contract SLA[]",
          "name": "",
          "type": "address[]"
        }
      ],
      "stateMutability": "view",
      "type": "function"
    },
    {
      "inputs": [],
      "name": "SLACount",
      "outputs": [
        {
          "internalType": "uint256",
          "name": "",
          "type": "uint256"
        }
      ],
      "stateMutability": "view",
      "type": "function"
    },
    {
      "inputs": [
        {
          "internalType": "address",
          "name": "_slaOwner",
          "type": "address"
        }
      ],
      "name": "getActivePool",
      "outputs": [
        {
          "components": [
            {
              "internalType": "address",
              "name": "SLAaddress",
              "type": "address"
            },
            {
              "internalType": "uint256",
              "name": "stake",
              "type": "uint256"
            },
            {
              "internalType": "string",
              "name": "assetName",
              "type": "string"
            },
            {
              "internalType": "address",
              "name": "assetAddress",
              "type": "address"
            }
          ],
          "internalType": "struct SLARegistry.ActivePool[]",
          "name": "",
          "type": "tuple[]"
        }
      ],
      "stateMutability": "view",
      "type": "function"
    }
  ],
  "bytecode": "0x608060405234801561001057600080fd5b506040516148a93803806148a983398101604081905261002f916100a4565b600080546001600160a01b0319166001600160a01b03838116919091178083556040805163f388158960e01b81529051919092169263f3881589926004808201939182900301818387803b15801561008657600080fd5b505af115801561009a573d6000803e3d6000fd5b50505050506100d2565b6000602082840312156100b5578081fd5b81516001600160a01b03811681146100cb578182fd5b9392505050565b6147c8806100e16000396000f3fe60806040523480156200001157600080fd5b50600436106200008e5760003560e01c80633cb747bf146200009357806345e3e32714620000b557806350c5abfe14620000ce578063516c285714620000e5578063558450be146200010b578063816ff986146200012257806396bddc10146200013b578063e9b1e98c1462000145578063f2c0dfd4146200015c575b600080fd5b6200009d62000182565b604051620000ac919062000edb565b60405180910390f35b620000cc620000c636600462000c32565b62000191565b005b6200009d620000df36600462000d98565b620002a2565b620000fc620000f636600462000c13565b620002ca565b604051620000ac919062000fe9565b620000cc6200011c36600462000dca565b62000412565b6200012c62000539565b604051620000ac9190620010d5565b620000fc6200053f565b6200012c6200015636600462000c13565b620005a3565b620001736200016d36600462000c13565b620005be565b604051620000ac919062001038565b6000546001600160a01b031681565b6000898989898989898989604051620001aa9062000a6a565b620001be9998979695949392919062000f08565b604051809103906000f080158015620001db573d6000803e3d6000fd5b5060018054808201825560008281527fb10e2d527612073b26eecdfd717e6a320cf44b4afac2b0732d9fcbe2b7fa0cf690910180546001600160a01b0319166001600160a01b0385161790558154929350916200023891620009c6565b3360009081526002602090815260408083208054600181018255908452918320909101839055519192506001600160a01b038d811692908516917fb52f284a6c14f1a66ab5513b5b539066933e58e69e6432666f0e3c8c8a7d750391a35050505050505050505050565b60018181548110620002b057fe5b6000918252602090912001546001600160a01b0316905081565b60606000620002d983620005a3565b905060608167ffffffffffffffff81118015620002f557600080fd5b5060405190808252806020026020018201604052801562000320578160200160208202803683370190505b506001600160a01b038516600090815260026020908152604091829020805483518184028101840190945280845293945060609390918301828280156200038757602002820191906000526020600020905b81548152602001906001019080831162000372575b5050505050905060005b8381101562000408576001828281518110620003a957fe5b602002602001015181548110620003bc57fe5b9060005260206000200160009054906101000a90046001600160a01b0316838281518110620003e757fe5b6001600160a01b039092166020928302919091019091015260010162000391565b5090949350505050565b60405163b0227b4760e01b81526000906001600160a01b0384169063b0227b479062000443908590600401620010d5565b60206040518083038186803b1580156200045c57600080fd5b505afa15801562000471573d6000803e3d6000fd5b505050506040513d601f19601f8201168201806040525081019062000497919062000d79565b6001600160a01b03161415620004ca5760405162461bcd60e51b8152600401620004c1906200112a565b60405180910390fd5b600054604051632ac2285f60e11b81526001600160a01b039091169063558450be90620005009086908690869060040162001175565b600060405180830381600087803b1580156200051b57600080fd5b505af115801562000530573d6000803e3d6000fd5b50505050505050565b60015490565b606060018054806020026020016040519081016040528092919081815260200182805480156200059957602002820191906000526020600020905b81546001600160a01b031681526001909101906020018083116200057a575b5050505050905090565b6001600160a01b031660009081526002602052604090205490565b60606000805b620005cf84620005a3565b811015620006c1576001600160a01b0384166000908152600260205260408120805460019190849081106200060057fe5b9060005260206000200154815481106200061657fe5b600091825260209091200154604051631d809bc960e31b81526001600160a01b039091169150620006b590829063ec04de48906200065990339060040162000edb565b60206040518083038186803b1580156200067257600080fd5b505afa15801562000687573d6000803e3d6000fd5b505050506040513d601f19601f82011682018060405250810190620006ad919062000db1565b849062000a13565b925050600101620005c4565b5060608167ffffffffffffffff81118015620006dc57600080fd5b506040519080825280602002602001820160405280156200071a57816020015b6200070662000a78565b815260200190600190039081620006fc5790505b5090506000805b6200072c86620005a3565b81101562000408576001600160a01b0386166000908152600260205260408120805460019190849081106200075d57fe5b9060005260206000200154815481106200077357fe5b60009182526020822001546001600160a01b031691505b604051631d809bc960e31b81526001600160a01b0383169063ec04de4890620007b890339060040162000edb565b60206040518083038186803b158015620007d157600080fd5b505afa158015620007e6573d6000803e3d6000fd5b505050506040513d601f19601f820116820180604052508101906200080c919062000db1565b811015620009bb57600080836001600160a01b03166357ac94f033856040518363ffffffff1660e01b81526004016200084792919062000eef565b604080518083038186803b1580156200085f57600080fd5b505afa15801562000874573d6000803e3d6000fd5b505050506040513d601f19601f820116820180604052508101906200089a919062000d49565b60408051808201825260068152656e616d65282960d01b60209182015281516004815260248101835290810180516001600160e01b03166306fdde0360e01b17905290519294509092506060916001600160a01b03851691620008fd9162000ebd565b600060405180830381855afa9150503d80600081146200093a576040519150601f19603f3d011682016040523d82523d6000602084013e6200093f565b606091505b509150506200094d62000a78565b6040518060800160405280876001600160a01b03168152602001848152602001838152602001856001600160a01b03168152509050808989815181106200099057fe5b6020908102919091010152620009a888600162000a13565b975050600190930192506200078a915050565b505060010162000721565b600062000a0a83836040518060400160405280601e81526020017f536166654d6174683a207375627472616374696f6e206f766572666c6f77000081525062000a3b565b90505b92915050565b60008282018381101562000a0a5760405162461bcd60e51b8152600401620004c190620010f3565b6000818484111562000a625760405162461bcd60e51b8152600401620004c19190620010de565b505050900390565b613569806200122a83390190565b604051806080016040528060006001600160a01b03168152602001600081526020016060815260200160006001600160a01b031681525090565b803562000a0d8162001210565b600082601f83011262000ad0578081fd5b813562000ae762000ae182620011bc565b62001194565b81815291506020808301908481018184028601820187101562000b0957600080fd5b60005b8481101562000b2a5781358452928201929082019060010162000b0c565b505050505092915050565b600082601f83011262000b46578081fd5b813562000b5762000ae182620011bc565b81815291506020808301908481018184028601820187101562000b7957600080fd5b60005b8481101562000b2a57813562000b928162001210565b8452928201929082019060010162000b7c565b600082601f83011262000bb6578081fd5b813567ffffffffffffffff81111562000bcd578182fd5b62000be2601f8201601f191660200162001194565b915080825283602082850101111562000bfa57600080fd5b8060208401602084013760009082016020015292915050565b60006020828403121562000c25578081fd5b813562000a0a8162001210565b60008060008060008060008060006101208a8c03121562000c51578485fd5b62000c5d8b8b62000ab2565b985060208a013567ffffffffffffffff8082111562000c7a578687fd5b62000c888d838e0162000abf565b995060408c013591508082111562000c9e578687fd5b62000cac8d838e0162000b35565b985060608c0135975060808c013591508082111562000cc9578687fd5b62000cd78d838e0162000ba5565b965060a08c0135955062000cef8d60c08e0162000ab2565b945060e08c013591508082111562000d05578384fd5b62000d138d838e0162000abf565b93506101008c013591508082111562000d2a578283fd5b5062000d398c828d0162000abf565b9150509295985092959850929598565b6000806040838503121562000d5c578182fd5b825162000d698162001210565b6020939093015192949293505050565b60006020828403121562000d8b578081fd5b815162000a0a8162001210565b60006020828403121562000daa578081fd5b5035919050565b60006020828403121562000dc3578081fd5b5051919050565b60008060006060848603121562000ddf578283fd5b83359250602084013562000df38162001210565b929592945050506040919091013590565b815260200190565b6001600160a01b03169052565b6000815180845260208085019450808401835b8381101562000e535781516001600160a01b03168752958201959082019060010162000e2c565b509495945050505050565b6000815180845260208085019450808401835b8381101562000e535781518752958201959082019060010162000e71565b6000815180845262000ea9816020860160208601620011dd565b601f01601f19169290920160200192915050565b6000825162000ed1818460208701620011dd565b9190910192915050565b6001600160a01b0391909116815260200190565b6001600160a01b03929092168252602082015260400190565b6001600160a01b038a16815261012060208083018290528a51600092840191829162000f358184620010d5565b9350818e019250845b8181101562000f635762000f5485855162000e04565b94509282019260010162000f3e565b50505050828103604084015262000f7b818b62000e19565b9050886060840152828103608084015262000f97818962000e8f565b90508660a084015262000fae60c084018762000e0c565b82810360e084015262000fc2818662000e5e565b905082810361010084015262000fd9818562000e5e565b9c9b505050505050505050505050565b6020808252825182820181905260009190848201906040850190845b818110156200102c5783516001600160a01b03168352928401929184019160010162001005565b50909695505050505050565b60208082528251828201819052600091906040908185019080840286018301878501865b83811015620010c757888303603f19018552815180516001600160a01b03908116855288820151898601528782015160808987018190529190620010a38388018262000e8f565b6060948501519092169690930195909552505093860193908601906001016200105c565b509098975050505050505050565b90815260200190565b60006020825262000a0a602083018462000e8f565b6020808252601b908201527f536166654d6174683a206164646974696f6e206f766572666c6f770000000000604082015260600190565b6020808252602b908201527f5f736c6f4e616d6520646f6573206e6f7420657869737420696e20746865205360408201526a13104818dbdb9d1c9858dd60aa1b606082015260800190565b9283526001600160a01b03919091166020830152604082015260600190565b60405181810167ffffffffffffffff81118282101715620011b457600080fd5b604052919050565b600067ffffffffffffffff821115620011d3578081fd5b5060209081020190565b60005b83811015620011fa578181015183820152602001620011e0565b838111156200120a576000848401525b50505050565b6001600160a01b03811681146200122657600080fd5b5056fe60806040523480156200001157600080fd5b506040516200356938038062003569833981016040819052620000349162000796565b8282828b60006200004462000296565b600080546001600160a01b0319166001600160a01b03831690811782556040519293509160008051602062003549833981519152908290a3508151835114620000aa5760405162461bcd60e51b8152600401620000a19062000928565b60405180910390fd5b600480546001600160a01b038084166001600160a01b0319928316179092556001805492871692821683178155600680548083019091557ff652222313e28459528d920b65115c16c04f3efc82aaedc97be59f3f377c0d3f01805490921683179091556000918252600760205260408220805460ff191690911790555b835181101562000174576200016b8482815181106200014257fe5b60200260200101518483815181106200015757fe5b60200260200101516200029a60201b60201c565b60010162000127565b505050505060058751106200019d5760405162461bcd60e51b8152600401620000a190620009f5565b8651885114620001c15760405162461bcd60e51b8152600401620000a190620009a6565b60005b87518110156200023557878181518110620001db57fe5b6020026020010151601160008b8481518110620001f457fe5b602090810291909101810151825281019190915260400160002080546001600160a01b0319166001600160a01b0392909216919091179055600101620001c4565b506200024189620003f1565b8751620002569060139060208b019062000520565b50600d86905584516200027190600f90602088019062000570565b5050601080546001600160a01b031916331790555050600e555062000abf9350505050565b3390565b620002a4620005e2565b82815260208101828152600060808301818152600280546001810182559281905284517f405787fa12a823e0f2b7631cc41b3ba8828b3321ca811111fa75cd3aa3bb5ace600690940293840190815593517f405787fa12a823e0f2b7631cc41b3ba8828b3321ca811111fa75cd3aa3bb5acf84015560408501517f405787fa12a823e0f2b7631cc41b3ba8828b3321ca811111fa75cd3aa3bb5ad084015560608501517f405787fa12a823e0f2b7631cc41b3ba8828b3321ca811111fa75cd3aa3bb5ad1909301805460ff19169315159390931780845591518594939092909161ff0019909116906101009084908111156200039c57fe5b02179055505050620003c360016002805490506200049e60201b62001cc51790919060201c565b6040517ff791e873e3b67fe74b29aeede7bcbbdaa59c4b64e542571183cd837aa56f6ac990600090a2505050565b620003fb62000296565b6000546001600160a01b039081169116146200042b5760405162461bcd60e51b8152600401620000a19062000971565b6001600160a01b038116620004545760405162461bcd60e51b8152600401620000a190620008e2565b600080546040516001600160a01b03808516939216916000805160206200354983398151915291a3600080546001600160a01b0319166001600160a01b0392909216919091179055565b6000620004e883836040518060400160405280601e81526020017f536166654d6174683a207375627472616374696f6e206f766572666c6f770000815250620004f160201b60201c565b90505b92915050565b60008184841115620005185760405162461bcd60e51b8152600401620000a19190620008ad565b505050900390565b8280548282559060005260206000209081019282156200055e579160200282015b828111156200055e57825182559160200191906001019062000541565b506200056c9291506200061e565b5090565b828054600181600116156101000203166002900490600052602060002090601f016020900481019282601f10620005b357805160ff19168380011785556200055e565b828001600101855582156200055e57918201828111156200055e57825182559160200191906001019062000541565b6040518060a00160405280600081526020016000815260200160008152602001600015158152602001600060028111156200061957fe5b905290565b5b808211156200056c57600081556001016200061f565b8051620004eb8162000aa6565b600082601f83011262000653578081fd5b81516200066a620006648262000a53565b62000a2c565b8181529150602080830190848101818402860182018710156200068c57600080fd5b60005b84811015620006ad578151845292820192908201906001016200068f565b505050505092915050565b600082601f830112620006c9578081fd5b8151620006da620006648262000a53565b818152915060208083019084810181840286018201871015620006fc57600080fd5b60005b84811015620006ad578151620007158162000aa6565b84529282019290820190600101620006ff565b600082601f83011262000739578081fd5b81516001600160401b038111156200074f578182fd5b62000764601f8201601f191660200162000a2c565b91508082528360208285010111156200077c57600080fd5b6200078f81602084016020860162000a73565b5092915050565b60008060008060008060008060006101208a8c031215620007b5578485fd5b620007c18b8b62000635565b60208b01519099506001600160401b0380821115620007de578687fd5b620007ec8d838e0162000642565b995060408c015191508082111562000802578687fd5b620008108d838e01620006b8565b985060608c0151975060808c01519150808211156200082d578687fd5b6200083b8d838e0162000728565b965060a08c01519550620008538d60c08e0162000635565b945060e08c015191508082111562000869578384fd5b620008778d838e0162000642565b93506101008c01519150808211156200088e578283fd5b506200089d8c828d0162000642565b9150509295985092959850929598565b6000602082528251806020840152620008ce81604085016020870162000a73565b601f01601f19169190910160400192915050565b60208082526026908201527f4f776e61626c653a206e6577206f776e657220697320746865207a65726f206160408201526564647265737360d01b606082015260800190565b60208082526029908201527f506c6561736520636865636b2074686520706172616d73206f6620796f757220604082015268706572696f6473202160b81b606082015260800190565b6020808252818101527f4f776e61626c653a2063616c6c6572206973206e6f7420746865206f776e6572604082015260600190565b6020808252602f908201527f5f534c4f4e616d657320616e64205f534c4f732073686f756c6420686176652060408201526e0e8d0ca40e6c2daca40d8cadccee8d608b1b606082015260800190565b60208082526017908201527f6d617820616d6f756e74206f6620534c4f732069732035000000000000000000604082015260600190565b6040518181016001600160401b038111828210171562000a4b57600080fd5b604052919050565b60006001600160401b0382111562000a69578081fd5b5060209081020190565b60005b8381101562000a9057818101518382015260200162000a76565b8381111562000aa0576000848401525b50505050565b6001600160a01b038116811462000abc57600080fd5b50565b612a7a8062000acf6000396000f3fe608060405234801561001057600080fd5b50600436106101f75760003560e01c806394199c6111610120578063ea4a1104116100b8578063f3fef3a31161007c578063f3fef3a314610468578063fbbf93a01461047b578063fc875ece14610494578063fd0d5534146104b5578063fd5e6dd1146104c8576101f7565b8063ea4a1104146103f8578063ec04de481461041c578063f10bd7721461042f578063f2fde38b14610442578063f34ed40d14610455576101f7565b806394199c6114610352578063a2e80c5e14610374578063ae169a501461037c578063b0227b471461038f578063b5d5b5fa146103a2578063b83e0234146103b5578063c623674f146103c8578063cec534d6146103dd578063e7ab816a146103f0576101f7565b806357ac94f01161019357806357ac94f0146102d05780635e5f2e26146102f1578063715018a61461030457806375fdf2a91461030c5780637b1039991461031f578063817b1cd214610327578063869c39251461032f5780638da5cb5b1461034257806390f817021461034a576101f7565b806302e8b893146101fc5780630e1fcf3414610225578063105237cf1461023a578063171e44ea1461025a5780631934d0e81461026d5780632eac9787146102805780633a4b66f1146102a05780633a5381b5146102a857806353e85fd5146102bd575b600080fd5b61020f61020a366004612386565b6104db565b60405161021c919061257b565b60405180910390f35b61023861023336600461239e565b61056c565b005b61024d6102483660046122b3565b6105b8565b60405161021c91906125d4565b6102386102683660046122b3565b6105cd565b61024d61027b3660046122cf565b6106a2565b61029361028e3660046122cf565b6106c2565b60405161021c91906125df565b6102936106df565b6102b06106e5565b60405161021c9190612485565b6102386102cb366004612386565b6106f4565b6102e36102de366004612307565b610a12565b60405161021c9291906124bd565b6102b06102ff366004612386565b610a92565b610238610ab9565b61023861031a366004612332565b610b38565b6102b0610e9b565b610293610eaa565b61023861033d3660046123bf565b610eb0565b6102b061110d565b6102b061111c565b61036561036036600461239e565b61112b565b60405161021c939291906129b3565b61029361116a565b61023861038a366004612386565b611170565b6102b061039d366004612386565b61134a565b6102e36103b0366004612307565b611365565b6102936103c33660046122b3565b6113a8565b6103d06113ba565b60405161021c91906125e8565b6102386103eb366004612406565b611448565b610293611638565b61040b610406366004612386565b61163e565b60405161021c9594939291906129c9565b61029361042a3660046122b3565b611681565b61029361043d366004612307565b61169c565b6102386104503660046122b3565b61174a565b610293610463366004612386565b611800565b610238610476366004612307565b61181e565b610483611a8c565b60405161021c9594939291906124d6565b6104a76104a2366004612386565b611c5c565b60405161021c9291906129a5565b6102936104c33660046122b3565b611ca6565b6102b06104d6366004612386565b611cb8565b606060126000838152602001908152602001600020805480602002602001604051908101604052809291908181526020016000905b828210156105605783829060005260206000209060030201604051806060016040529081600082015481526020016001820154815260200160028201548152505081526020019060010190610510565b5050505090505b919050565b610574611d07565b6000546001600160a01b039081169116146105aa5760405162461bcd60e51b81526004016105a1906128b4565b60405180910390fd5b6105b48282611d0b565b5050565b60076020526000908152604090205460ff1681565b6105d5611d07565b6000546001600160a01b039081169116146106025760405162461bcd60e51b81526004016105a1906128b4565b6001600160a01b03811660009081526007602052604090205460ff161561063b5760405162461bcd60e51b81526004016105a1906127c2565b6006805460018181019092557ff652222313e28459528d920b65115c16c04f3efc82aaedc97be59f3f377c0d3f0180546001600160a01b039093166001600160a01b031990931683179055600091825260076020526040909120805460ff19169091179055565b600b60209081526000928352604080842090915290825290205460ff1681565b600a60209081526000928352604080842090915290825290205481565b600d5481565b6004546001600160a01b031681565b806002818154811061070257fe5b906000526020600020906006020160000154421015801561074157506002818154811061072b57fe5b9060005260206000209060060201600101544211155b61074a57600080fd5b6004546001600160a01b03163314156107755760405162461bcd60e51b81526004016105a19061275c565b600280838154811061078357fe5b906000526020600020906006020160030160019054906101000a900460ff1660028111156107ad57fe5b146107ca5760405162461bcd60e51b81526004016105a190612671565b600282815481106107d757fe5b6000918252602080832033845260056006909302019190910190526040902054156108145760405162461bcd60e51b81526004016105a190612948565b6000610820338461169c565b9050600061083a600a610834846003611e4d565b90611e87565b60035490915061084a9083611cc5565b600381905550816002858154811061085e57fe5b600091825260208083203380855260069390930201600501905260409182902092909255600154905163a9059cbb60e01b81526001600160a01b039091169163a9059cbb916108b2919086906004016124bd565b602060405180830381600087803b1580156108cc57600080fd5b505af11580156108e0573d6000803e3d6000fd5b505050506040513d601f19601f820116820180604052508101906109049190612366565b50600154604080518082018252600d81526c6275726e2875696e743235362960981b602090910152516000916001600160a01b0316907f42966c689b5afe9b9b3f8a7103b2a19980d59629bfd6a20a60972312ed41d8369061096a9085906024016125df565b60408051601f198184030181529181526020820180516001600160e01b03166001600160e01b03199094169390931790925290516109a89190612469565b6000604051808303816000865af19150503d80600081146109e5576040519150601f19603f3d011682016040523d82523d6000602084013e6109ea565b606091505b5050905080610a0b5760405162461bcd60e51b81526004016105a1906125fb565b5050505050565b6001600160a01b0382166000908152600960205260408120805482919084908110610a3957fe5b600091825260208083206002909202909101546001600160a01b03878116845260099092526040909220805491909216919085908110610a7557fe5b906000526020600020906002020160010154915091509250929050565b60068181548110610a9f57fe5b6000918252602090912001546001600160a01b0316905081565b610ac1611d07565b6000546001600160a01b03908116911614610aee5760405162461bcd60e51b81526004016105a1906128b4565b600080546040516001600160a01b03909116907f8be0079c531659141344cd1fd0a4f28419497f9722a3daafe3b4186f6b6457e0908390a3600080546001600160a01b0319169055565b6004546001600160a01b0316331415610b635760405162461bcd60e51b81526004016105a19061275c565b6001600160a01b038316600090815260076020526040902054839060ff161515600114610ba25760405162461bcd60e51b81526004016105a190612886565b600060028381548110610bb157fe5b600091825260208083206001600160a01b03891684526004600690930201919091018152604080832033845290915290205411610c005760405162461bcd60e51b81526004016105a19061278b565b6040516323b872dd60e01b81526001600160a01b038516906323b872dd90610c3090339030908890600401612499565b602060405180830381600087803b158015610c4a57600080fd5b505af1158015610c5e573d6000803e3d6000fd5b505050506040513d601f19601f82011682018060405250810190610c829190612366565b50610ccc8360028481548110610c9457fe5b600091825260208083206001600160a01b038a1684526004600690930201919091018152604080832033845290915290205490611ec9565b60028381548110610cd957fe5b600091825260208083206001600160a01b038916845260046006909302019190910181526040808320338452909152902055600354610d189084611ec9565b600355610d258484611eee565b600060028381548110610d3457fe5b600091825260208083206001600160a01b03891684526004600690930201919091018152604080832033845290915281205460055460028054929450610d9e9287908110610d7e57fe5b906000526020600020906006020160020154611e8790919063ffffffff16565b9050600060028581548110610daf57fe5b600091825260208083206001600160a01b038b16845260046006909302019190910181526040808320338452909152902055600354610dee9083611cc5565b6003556001546001600160a01b031663a9059cbb33610e0d8585611cc5565b6040518363ffffffff1660e01b8152600401610e2a9291906124bd565b602060405180830381600087803b158015610e4457600080fd5b505af1158015610e58573d6000803e3d6000fd5b505050506040513d601f19601f82011682018060405250810190610e7c9190612366565b50600154610e93906001600160a01b03168361208e565b505050505050565b6010546001600160a01b031681565b60035481565b601060009054906101000a90046001600160a01b03166001600160a01b0316633cb747bf6040518163ffffffff1660e01b815260040160206040518083038186803b158015610efe57600080fd5b505afa158015610f12573d6000803e3d6000fd5b505050506040513d601f19601f82011682018060405250810190610f3691906123ea565b6001600160a01b0316336001600160a01b031614610f665760405162461bcd60e51b81526004016105a190612717565b600083815260126020908152604080832081516060810183524280825281850188815282850188815284546001818101875595895296909720925160039096029092019485559051918401919091559251600290920191909155517fc95987c1992805ee34bdc915e017cceae36ba1c156b9911fa7e691e6435eb46e91610ff091859085906129b3565b60405180910390a16000838152601160205260409081902054905163868d08f760e01b81526001600160a01b039091169063868d08f7906110359085906004016125df565b60206040518083038186803b15801561104d57600080fd5b505afa158015611061573d6000803e3d6000fd5b505050506040513d601f19601f820116820180604052508101906110859190612366565b6110ca57600280828154811061109757fe5b60009182526020909120600360069092020101805461ff0019166101008360028111156110c057fe5b0217905550611108565b6001600282815481106110d957fe5b60009182526020909120600360069092020101805461ff00191661010083600281111561110257fe5b02179055505b505050565b6000546001600160a01b031690565b6001546001600160a01b031681565b6012602052816000526040600020818154811061114457fe5b600091825260209091206003909102018054600182015460029092015490935090915083565b60055490565b806002818154811061117e57fe5b90600052602060002090600602016000015442101580156111bd5750600281815481106111a757fe5b9060005260206000209060060201600101544211155b6111c657600080fd5b6004546001600160a01b031633146111f05760405162461bcd60e51b81526004016105a190612915565b6001600283815481106111ff57fe5b906000526020600020906006020160030160019054906101000a900460ff16600281111561122957fe5b146112465760405162461bcd60e51b81526004016105a190612644565b6002828154811061125357fe5b600091825260209091206003600690920201015460ff16156112875760405162461bcd60e51b81526004016105a1906127ef565b60025460035460009161129a9190611e87565b905060006112ae600a610834846003611e4d565b6003549091506112be9083611cc5565b60038190555081600285815481106112d257fe5b9060005260206000209060060201600201819055506001600285815481106112f657fe5b60009182526020909120600690910201600301805460ff191691151591909117905560015460405163a9059cbb60e01b81526001600160a01b039091169063a9059cbb906108b290339086906004016124bd565b6011602052600090815260409020546001600160a01b031681565b6009602052816000526040600020818154811061137e57fe5b6000918252602090912060029091020180546001909101546001600160a01b039091169250905082565b60086020526000908152604090205481565b600f805460408051602060026001851615610100026000190190941693909304601f810184900484028201840190925281815292918301828280156114405780601f1061141557610100808354040283529160200191611440565b820191906000526020600020905b81548152906001019060200180831161142357829003601f168201915b505050505081565b6001600160a01b038216600090815260076020526040902054829060ff1615156001146114875760405162461bcd60e51b81526004016105a190612886565b600084116114a75760405162461bcd60e51b81526004016105a1906128e9565b6114b2338484612133565b6040516323b872dd60e01b81526001600160a01b038416906323b872dd906114e290339030908990600401612499565b602060405180830381600087803b1580156114fc57600080fd5b505af1158015611510573d6000803e3d6000fd5b505050506040513d601f19601f820116820180604052508101906115349190612366565b5061157e846002848154811061154657fe5b600091825260208083206001600160a01b03891684526004600690930201919091018152604080832033845290915290205490611ec9565b6002838154811061158b57fe5b600091825260208083206001600160a01b0388168452600460069093020191909101815260408083203384529091529020556003546115ca9085611ec9565b600355336000908152600860205260409020546001141561162857600580546001810182556000919091527f036b6384b5eca791c62761152d0c79bb0604c104a5fb6f4eb0703f3154bb3db00180546001600160a01b031916331790555b6116328385611eee565b50505050565b600e5490565b6002818154811061164b57fe5b60009182526020909120600690910201805460018201546002830154600390930154919350919060ff8082169161010090041685565b6001600160a01b031660009081526009602052604090205490565b6001600160a01b0382166000908152600860205260408120548190156117415760005b60065481101561173f57611735600285815481106116d957fe5b90600052602060002090600602016004016000600684815481106116f957fe5b60009182526020808320909101546001600160a01b0390811684528382019490945260409283018220938a168252929092529020548390611ec9565b91506001016116bf565b505b90505b92915050565b611752611d07565b6000546001600160a01b0390811691161461177f5760405162461bcd60e51b81526004016105a1906128b4565b6001600160a01b0381166117a55760405162461bcd60e51b81526004016105a19061269a565b600080546040516001600160a01b03808516939216917f8be0079c531659141344cd1fd0a4f28419497f9722a3daafe3b4186f6b6457e091a3600080546001600160a01b0319166001600160a01b0392909216919091179055565b6013818154811061180d57fe5b600091825260209091200154905081565b6004546001600160a01b03163314156118495760405162461bcd60e51b81526004016105a19061275c565b6001600160a01b038216600090815260076020526040902054829060ff1615156001146118885760405162461bcd60e51b81526004016105a190612886565b60006002838154811061189757fe5b600091825260208083206001600160a01b038816845260046006909302019190910181526040808320338452909152902054116118e65760405162461bcd60e51b81526004016105a19061278b565b6000600283815481106118f557fe5b600091825260208083206001600160a01b0388168452600460069093020191909101815260408083203384529091528120546005546002805492945061193f9287908110610d7e57fe5b905060006002858154811061195057fe5b600091825260208083206001600160a01b038a1684526004600690930201919091018152604080832033845290915290205560035461198f9083611cc5565b6003556001600160a01b03851663a9059cbb336119ac8585611cc5565b6040518363ffffffff1660e01b81526004016119c99291906124bd565b602060405180830381600087803b1580156119e357600080fd5b505af11580156119f7573d6000803e3d6000fd5b505050506040513d601f19601f82011682018060405250810190611a1b9190612366565b5033600090815260086020526040902054611a37906001611cc5565b336000908152600860205260409020819055611a82576000611a58336121bc565b905060058181548110611a6757fe5b600091825260209091200180546001600160a01b0319169055505b610a0b858361208e565b600060606000606080606060138054905067ffffffffffffffff81118015611ab357600080fd5b50604051908082528060200260200182016040528015611add578160200160208202803683370190505b50905060005b601354811015611b57576011600060138381548110611afe57fe5b9060005260206000200154815260200190815260200160002060009054906101000a90046001600160a01b0316828281518110611b3757fe5b6001600160a01b0390921660209283029190910190910152600101611ae3565b50611b6061110d565b600d54600f805460408051602060026001851615610100026000190190941693909304601f810184900484028201840190925281815292939260139287928691830182828015611bf15780601f10611bc657610100808354040283529160200191611bf1565b820191906000526020600020905b815481529060010190602001808311611bd457829003601f168201915b5050505050935081805480602002602001604051908101604052809291908181526020018280548015611c4357602002820191906000526020600020905b815481526020019060010190808311611c2f575b5050505050915095509550955095509550509091929394565b60008060028381548110611c6c57fe5b90600052602060002090600602016000015460028481548110611c8b57fe5b90600052602060002090600602016001015491509150915091565b600c6020526000908152604090205481565b60058181548110610a9f57fe5b600061174183836040518060400160405280601e81526020017f536166654d6174683a207375627472616374696f6e206f766572666c6f770000815250612215565b3390565b611d13612278565b82815260208101828152600060808301818152600280546001810182559281905284517f405787fa12a823e0f2b7631cc41b3ba8828b3321ca811111fa75cd3aa3bb5ace600690940293840190815593517f405787fa12a823e0f2b7631cc41b3ba8828b3321ca811111fa75cd3aa3bb5acf84015560408501517f405787fa12a823e0f2b7631cc41b3ba8828b3321ca811111fa75cd3aa3bb5ad084015560608501517f405787fa12a823e0f2b7631cc41b3ba8828b3321ca811111fa75cd3aa3bb5ad1909301805460ff19169315159390931780845591518594939092909161ff001990911690610100908490811115611e0a57fe5b021790555050600254611e1f91506001611cc5565b6040517ff791e873e3b67fe74b29aeede7bcbbdaa59c4b64e542571183cd837aa56f6ac990600090a2505050565b600082611e5c57506000611744565b82820282848281611e6957fe5b04146117415760405162461bcd60e51b81526004016105a190612845565b600061174183836040518060400160405280601a81526020017f536166654d6174683a206469766973696f6e206279207a65726f000000000000815250612241565b6000828201838110156117415760405162461bcd60e51b81526004016105a1906126e0565b336000908152600b602090815260408083206001600160a01b038616845290915290205460ff16611fb957336000818152600960209081526040808320815180830183526001600160a01b03888116808352828601898152845460018082018755868a52888a209551600290920290950180546001600160a01b0319169190941617835551918301919091558686529154600a85528386208387528552838620600019919091019055948452600b83528184209084529091529020805460ff1916909117905561204b565b336000818152600a602090815260408083206001600160a01b038716845282528083205493835260099091529020805461201991849184908110611ff957fe5b906000526020600020906002020160010154611ec990919063ffffffff16565b33600090815260096020526040902080548390811061203457fe5b906000526020600020906002020160010181905550505b6001600160a01b0382166000908152600c602052604090205461206e9082611ec9565b6001600160a01b039092166000908152600c602052604090209190915550565b336000818152600a602090815260408083206001600160a01b03871684528252808320549383526009909152902080546120ee918491849081106120ce57fe5b906000526020600020906002020160010154611cc590919063ffffffff16565b506001600160a01b0383166000908152600c60205260409020546121129083611cc5565b6001600160a01b039093166000908152600c60205260409020929092555050565b60006002828154811061214257fe5b600091825260208083206001600160a01b0387811685526006939093020160040181526040808420928816845291905290205411611108576001600160a01b03831660009081526008602052604090205461219e906001611ec9565b6001600160a01b038416600090815260086020526040902055505050565b6000805b60055481101561220b57826001600160a01b0316600582815481106121e157fe5b6000918252602090912001546001600160a01b03161415612203579050610567565b6001016121c0565b5060001992915050565b600081848411156122395760405162461bcd60e51b81526004016105a191906125e8565b505050900390565b600081836122625760405162461bcd60e51b81526004016105a191906125e8565b50600083858161226e57fe5b0495945050505050565b6040518060a00160405280600081526020016000815260200160008152602001600015158152602001600060028111156122ae57fe5b905290565b6000602082840312156122c4578081fd5b813561174181612a2c565b600080604083850312156122e1578081fd5b82356122ec81612a2c565b915060208301356122fc81612a2c565b809150509250929050565b60008060408385031215612319578182fd5b823561232481612a2c565b946020939093013593505050565b600080600060608486031215612346578081fd5b833561235181612a2c565b95602085013595506040909401359392505050565b600060208284031215612377578081fd5b81518015158114611741578182fd5b600060208284031215612397578081fd5b5035919050565b600080604083850312156123b0578182fd5b50508035926020909101359150565b6000806000606084860312156123d3578283fd5b505081359360208301359350604090920135919050565b6000602082840312156123fb578081fd5b815161174181612a2c565b60008060006060848603121561241a578283fd5b83359250602084013561242c81612a2c565b929592945050506040919091013590565b60008151808452612455816020860160208601612a00565b601f01601f19169290920160200192915050565b6000825161247b818460208701612a00565b9190910192915050565b6001600160a01b0391909116815260200190565b6001600160a01b039384168152919092166020820152604081019190915260600190565b6001600160a01b03929092168252602082015260400190565b600060018060a01b038088168352602060a0818501526124f960a085018961243d565b604085018890528481036060860152865180825282880191830190855b8181101561253257835183529284019291840191600101612516565b505085810360808701528651808252908301915082870190855b8181101561256a57825186168452928401929184019160010161254c565b50919b9a5050505050505050505050565b602080825282518282018190526000919060409081850190868401855b828110156125c75781518051855286810151878601528501518585015260609093019290850190600101612598565b5091979650505050505050565b901515815260200190565b90815260200190565b600060208252611741602083018461243d565b60208082526029908201527f42617365546f6b656e206275726e2070726f6365737320776173206e6f7420736040820152681d58d8d95cdcd99d5b60ba1b606082015260800190565b602080825260139082015272534c41206e6f7420726573706563746564202160681b604082015260600190565b6020808252600f908201526e534c4120726573706563746564202160881b604082015260600190565b60208082526026908201527f4f776e61626c653a206e6577206f776e657220697320746865207a65726f206160408201526564647265737360d01b606082015260800190565b6020808252601b908201527f536166654d6174683a206164646974696f6e206f766572666c6f770000000000604082015260600190565b60208082526025908201527f4f6e6c79204d657373656e6765722063616e2063616c6c20746869732066756e6040820152643a31b4b7b760d91b606082015260800190565b602080825260159082015274596f752061726520612076616c696461746f72202160581b604082015260600190565b6020808252601b908201527f7374616b696e672062616c616e63652063616e6e6f7420626520300000000000604082015260600190565b6020808252601390820152721d1bdad95b88185b1c9958591e481859191959606a1b604082015260600190565b60208082526036908201527f596f75206861766520616c726561647920636c61696d656420796f75722072656040820152757761726420666f72207468697320706572696f64202160501b606082015260800190565b60208082526021908201527f536166654d6174683a206d756c7469706c69636174696f6e206f766572666c6f6040820152607760f81b606082015260800190565b6020808252601490820152731d1bdad95b881a5cc81b9bdd08185b1b1bddd95960621b604082015260600190565b6020808252818101527f4f776e61626c653a2063616c6c6572206973206e6f7420746865206f776e6572604082015260600190565b6020808252601290820152710616d6f756e742063616e6e6f7420626520360741b604082015260600190565b602080825260199082015278596f7520617265206e6f7420612076616c696461746f72202160381b604082015260600190565b6020808252603c908201527f596f75206861766520616c726561647920636c61696d656420796f757220636f60408201527f6d70656e736174696f6e20666f72207468697320706572696f64202100000000606082015260800190565b918252602082015260400190565b9283526020830191909152604082015260600190565b8581526020810185905260408101849052821515606082015260a08101600383106129f057fe5b8260808301529695505050505050565b60005b83811015612a1b578181015183820152602001612a03565b838111156116325750506000910152565b6001600160a01b0381168114612a4157600080fd5b5056fea26469706673582212205700e91cbe1ce62a06af7c54feb1dbc80e665dba28bdbb69a230a0f51ccc292d64736f6c634300060c00338be0079c531659141344cd1fd0a4f28419497f9722a3daafe3b4186f6b6457e0a2646970667358221220ef6d91bf3539d843b17ce1f6214c478fa121beb44a785659f96fd530f7b0976a64736f6c634300060c0033",
  "immutableReferences": {},
  "source": "// SPDX-License-Identifier: MIT\npragma solidity ^0.6.0;\npragma experimental ABIEncoderV2;\n\nimport \"@openzeppelin/contracts/math/SafeMath.sol\";\nimport \"@openzeppelin/contracts/token/ERC20/IERC20.sol\";\nimport \"./Messenger.sol\";\nimport \"./SLA/SLA.sol\";\nimport \"./SLO/SLO.sol\";\n\n/**\n * @title SLARegistry\n * @dev SLARegistry is a contract for handling creation of service level\n * agreements and keeping track of the created agreements\n */\ncontract SLARegistry {\n    using SafeMath for uint256;\n    bytes4 private constant NAME_SELECTOR = bytes4(keccak256(bytes(\"name()\")));\n\n    /// @dev struct to return on getActivePool function.\n    struct ActivePool {\n        address SLAaddress;\n        uint256 stake;\n        string assetName;\n        address assetAddress;\n    }\n\n    /// @dev Messenger of the SLA Registry\n    Messenger public messenger;\n\n    /// @dev stores the addresses of created SLAs\n    SLA[] public SLAs;\n\n    /// @dev stores the indexes of service level agreements owned by an user\n    mapping(address => uint256[]) private userToSLAIndexes;\n\n    /**\n     * @dev event for service level agreement creation logging\n     * @param sla 1. The address of the created service level agreement contract\n     * @param owner 2. The address of the owner of the service level agreement\n     */\n    event SLACreated(SLA indexed sla, address indexed owner);\n\n    /**\n     * @dev constructor\n     * @param _messengerAddress the address of the chainlink messenger contract\n     */\n    constructor(Messenger _messengerAddress) public {\n        messenger = _messengerAddress;\n        /// TODO:change to call(signature(params)))\n        messenger.setSLARegistry();\n    }\n\n    /**\n     * @dev public function for creating service level agreements\n     * @param _owner 1. address of the owner of the service level agreement\n     * @param _SLONames 2. array of the names of the service level objectives\n     * in bytes32\n     * @param _SLOs 3. array of service level objective contract addressess\n     * service level objective breach\n     * @param _stake 4. uint of the amount required to stake when signing the\n     * service level agreement\n     * @param _ipfsHash 5. string with the ipfs hash that contains extra\n     * information about the service level agreement\n     * @param _sliInterval 6. uint the interval in seconds between requesting a new SLI\n     * @param _baseTokenAddress 7. address of the base token\n     * @param _sla_period_starts 8. array with the values for the \"start\" of every period\n     * @param _sla_period_ends 9. array with the values for the \"end\" of every period\n     */\n    function createSLA(\n        address _owner,\n        bytes32[] memory _SLONames,\n        SLO[] memory _SLOs,\n        uint256 _stake,\n        string memory _ipfsHash,\n        uint256 _sliInterval,\n        address _baseTokenAddress,\n        uint256[] memory _sla_period_starts,\n        uint256[] memory _sla_period_ends\n    ) public {\n        SLA sla =\n            new SLA(\n                _owner,\n                _SLONames,\n                _SLOs,\n                _stake,\n                _ipfsHash,\n                _sliInterval,\n                _baseTokenAddress,\n                _sla_period_starts,\n                _sla_period_ends\n            );\n\n        SLAs.push(sla);\n\n        uint256 index = SLAs.length.sub(1);\n\n        userToSLAIndexes[msg.sender].push(index);\n\n        emit SLACreated(sla, _owner);\n    }\n\n    /**\n     * @dev Gets SLI information for the specified SLA and SLO\n     * @param _periodId 1. id of the period\n     * @param _sla 2. SLA Address\n     * @param _sloName 3. SLO Name\n     * @notice it will revert if the SLO is not registered in the SLA\n     */\n    function requestSLI(\n        uint256 _periodId,\n        SLA _sla,\n        bytes32 _sloName\n    ) public {\n        require(\n            address(SLA(_sla).SLOs(_sloName)) != address(0),\n            \"_sloName does not exist in the SLA contract\"\n        );\n        /// TODO:change to call(signature(params)))\n        messenger.requestSLI(_periodId, _sla, _sloName);\n    }\n\n    /**\n     * @dev public view function that returns the service level agreements that\n     * the given user is the owner of\n     * @param _user Address of the user for which to return the service level\n     * agreements\n     * @return array of SLAs\n     */\n    function userSLAs(address _user) public view returns (SLA[] memory) {\n        uint256 count = userSLACount(_user);\n        SLA[] memory SLAList = new SLA[](count);\n        uint256[] memory userSLAIndexes = userToSLAIndexes[_user];\n\n        for (uint256 i = 0; i < count; i++) {\n            SLAList[i] = (SLAs[userSLAIndexes[i]]);\n        }\n\n        return (SLAList);\n    }\n\n    /**\n     * @dev public view function that returns the amount of service level\n     * agreements the given user is the owner of\n     * @param _user 1. address of the user for which to return the amount of\n     * service level agreements\n     * @return uint256 corresponding to the amount of user's SLAs\n     */\n    function userSLACount(address _user) public view returns (uint256) {\n        return userToSLAIndexes[_user].length;\n    }\n\n    /**\n     * @dev public view function that returns all the service level agreements\n     * @return SLA[] array of SLAs\n     */\n    function allSLAs() public view returns (SLA[] memory) {\n        return (SLAs);\n    }\n\n    /**\n     * @dev public view function that returns the total amount of service\n     * level agreements\n     * @return uint256, the length of SLA array\n     */\n    function SLACount() public view returns (uint256) {\n        return SLAs.length;\n    }\n\n    /**\n     * @dev returns the active pools owned by a user.\n     * @param _slaOwner 1. owner of the active pool\n     * @return ActivePool[], array of structs: {SLAaddress,stake,assetName}\n     */\n    function getActivePool(address _slaOwner)\n        public\n        view\n        returns (ActivePool[] memory)\n    {\n        uint256 stakeCounter = 0;\n        // Count the stakes of the user\n        for (uint256 index = 0; index < userSLACount(_slaOwner); index++) {\n            SLA currentSLA = SLAs[userToSLAIndexes[_slaOwner][index]];\n            stakeCounter = stakeCounter.add(\n                currentSLA.getTokenStakeLength(msg.sender)\n            );\n        }\n\n        ActivePool[] memory activePools = new ActivePool[](stakeCounter);\n        // to insert on activePools array\n        uint256 stakePosition = 0;\n        for (uint256 index = 0; index < userSLACount(_slaOwner); index++) {\n            SLA currentSLA = SLAs[userToSLAIndexes[_slaOwner][index]];\n            for (\n                uint256 tokenIndex = 0;\n                tokenIndex < currentSLA.getTokenStakeLength(msg.sender);\n                tokenIndex++\n            ) {\n                (address tokenAddress, uint256 stake) =\n                    currentSLA.getTokenStake(msg.sender, tokenIndex);\n                (, bytes memory tokenNameBytes) =\n                    tokenAddress.staticcall(\n                        abi.encodeWithSelector(NAME_SELECTOR)\n                    );\n                ActivePool memory currentActivePool =\n                    ActivePool({\n                        SLAaddress: address(currentSLA),\n                        stake: stake,\n                        assetName: string(tokenNameBytes),\n                        assetAddress: tokenAddress\n                    });\n                activePools[stakePosition] = currentActivePool;\n                stakePosition = stakePosition.add(1);\n            }\n        }\n        return activePools;\n    }\n}\n",
  "sourcePath": "/Users/matiasbn/Desktop/stacktical/stacktical-dsla-contracts/contracts/SLARegistry.sol",
  "compiler": {
    "name": "solc",
    "version": "0.6.12+commit.27d51765.Emscripten.clang"
  },
  "schemaVersion": "3.2.5",
  "updatedAt": "2021-01-04T18:44:17.167Z",
  "networkType": "ethereum",
  "devdoc": {
    "details": "SLARegistry is a contract for handling creation of service level agreements and keeping track of the created agreements",
    "events": {
      "SLACreated(address,address)": {
        "details": "event for service level agreement creation logging",
        "params": {
          "owner": "2. The address of the owner of the service level agreement",
          "sla": "1. The address of the created service level agreement contract"
        }
      }
    },
    "kind": "dev",
    "methods": {
      "SLACount()": {
        "details": "public view function that returns the total amount of service level agreements",
        "returns": {
          "_0": "uint256, the length of SLA array"
        }
      },
      "allSLAs()": {
        "details": "public view function that returns all the service level agreements",
        "returns": {
          "_0": "SLA[] array of SLAs"
        }
      },
      "constructor": {
        "details": "constructor",
        "params": {
          "_messengerAddress": "the address of the chainlink messenger contract"
        }
      },
      "createSLA(address,bytes32[],address[],uint256,string,uint256,address,uint256[],uint256[])": {
        "details": "public function for creating service level agreements",
        "params": {
          "_SLONames": "2. array of the names of the service level objectives in bytes32",
          "_SLOs": "3. array of service level objective contract addressess service level objective breach",
          "_baseTokenAddress": "7. address of the base token",
          "_ipfsHash": "5. string with the ipfs hash that contains extra information about the service level agreement",
          "_owner": "1. address of the owner of the service level agreement",
          "_sla_period_ends": "9. array with the values for the \"end\" of every period",
          "_sla_period_starts": "8. array with the values for the \"start\" of every period",
          "_sliInterval": "6. uint the interval in seconds between requesting a new SLI",
          "_stake": "4. uint of the amount required to stake when signing the service level agreement"
        }
      },
      "getActivePool(address)": {
        "details": "returns the active pools owned by a user.",
        "params": {
          "_slaOwner": "1. owner of the active pool"
        },
        "returns": {
          "_0": "ActivePool[], array of structs: {SLAaddress,stake,assetName}"
        }
      },
      "requestSLI(uint256,address,bytes32)": {
        "details": "Gets SLI information for the specified SLA and SLO",
        "params": {
          "_periodId": "1. id of the period",
          "_sla": "2. SLA Address",
          "_sloName": "3. SLO Name"
        }
      },
      "userSLACount(address)": {
        "details": "public view function that returns the amount of service level agreements the given user is the owner of",
        "params": {
          "_user": "1. address of the user for which to return the amount of service level agreements"
        },
        "returns": {
          "_0": "uint256 corresponding to the amount of user's SLAs"
        }
      },
      "userSLAs(address)": {
        "details": "public view function that returns the service level agreements that the given user is the owner of",
        "params": {
          "_user": "Address of the user for which to return the service level agreements"
        },
        "returns": {
          "_0": "array of SLAs"
        }
      }
    },
    "stateVariables": {
      "SLAs": {
        "details": "stores the addresses of created SLAs"
      },
      "messenger": {
        "details": "Messenger of the SLA Registry"
      },
      "userToSLAIndexes": {
        "details": "stores the indexes of service level agreements owned by an user"
      }
    },
    "title": "SLARegistry",
    "version": 1
  },
  "userdoc": {
    "kind": "user",
    "methods": {
      "requestSLI(uint256,address,bytes32)": {
        "notice": "it will revert if the SLO is not registered in the SLA"
      }
    },
    "version": 1
  }
}