{
  "contractName": "SLARegistry",
  "abi": [
    {
      "inputs": [
        {
          "internalType": "contract SLORegistry",
          "name": "_sloRegistry",
          "type": "address"
        },
        {
          "internalType": "contract PeriodRegistry",
          "name": "_periodRegistry",
          "type": "address"
        },
        {
          "internalType": "contract MessengerRegistry",
          "name": "_messengerRegistry",
          "type": "address"
        },
        {
          "internalType": "contract StakeRegistry",
          "name": "_stakeRegistry",
          "type": "address"
        }
      ],
      "stateMutability": "nonpayable",
      "type": "constructor"
    },
    {
      "anonymous": false,
      "inputs": [
        {
          "indexed": true,
          "internalType": "address",
          "name": "previousOwner",
          "type": "address"
        },
        {
          "indexed": true,
          "internalType": "address",
          "name": "newOwner",
          "type": "address"
        }
      ],
      "name": "OwnershipTransferred",
      "type": "event"
    },
    {
      "anonymous": false,
      "inputs": [
        {
          "indexed": true,
          "internalType": "contract SLA",
          "name": "sla",
          "type": "address"
        },
        {
          "indexed": true,
          "internalType": "address",
          "name": "owner",
          "type": "address"
        }
      ],
      "name": "SLACreated",
      "type": "event"
    },
    {
      "anonymous": false,
      "inputs": [
        {
          "indexed": true,
          "internalType": "contract SLA",
          "name": "sla",
          "type": "address"
        },
        {
          "indexed": true,
          "internalType": "address",
          "name": "requester",
          "type": "address"
        },
        {
          "indexed": false,
          "internalType": "uint256",
          "name": "userReward",
          "type": "uint256"
        },
        {
          "indexed": false,
          "internalType": "uint256",
          "name": "platformReward",
          "type": "uint256"
        },
        {
          "indexed": false,
          "internalType": "uint256",
          "name": "burnedDSLA",
          "type": "uint256"
        }
      ],
      "name": "SLIRequested",
      "type": "event"
    },
    {
      "inputs": [
        {
          "internalType": "uint256",
          "name": "",
          "type": "uint256"
        }
      ],
      "name": "SLAs",
      "outputs": [
        {
          "internalType": "contract SLA",
          "name": "",
          "type": "address"
        }
      ],
      "stateMutability": "view",
      "type": "function"
    },
    {
      "inputs": [],
      "name": "messengerRegistry",
      "outputs": [
        {
          "internalType": "contract MessengerRegistry",
          "name": "",
          "type": "address"
        }
      ],
      "stateMutability": "view",
      "type": "function"
    },
    {
      "inputs": [],
      "name": "owner",
      "outputs": [
        {
          "internalType": "address",
          "name": "",
          "type": "address"
        }
      ],
      "stateMutability": "view",
      "type": "function"
    },
    {
      "inputs": [],
      "name": "periodRegistry",
      "outputs": [
        {
          "internalType": "contract PeriodRegistry",
          "name": "",
          "type": "address"
        }
      ],
      "stateMutability": "view",
      "type": "function"
    },
    {
      "inputs": [],
      "name": "renounceOwnership",
      "outputs": [],
      "stateMutability": "nonpayable",
      "type": "function"
    },
    {
      "inputs": [
        {
          "internalType": "address",
          "name": "",
          "type": "address"
        },
        {
          "internalType": "address",
          "name": "",
          "type": "address"
        }
      ],
      "name": "slaOwnerLockedValue",
      "outputs": [
        {
          "internalType": "uint256",
          "name": "lockedValue",
          "type": "uint256"
        },
        {
          "internalType": "uint256",
          "name": "dslaDepositByPeriod",
          "type": "uint256"
        },
        {
          "internalType": "uint256",
          "name": "dslaPlatformReward",
          "type": "uint256"
        },
        {
          "internalType": "uint256",
          "name": "dslaUserReward",
          "type": "uint256"
        },
        {
          "internalType": "uint256",
          "name": "dslaBurnedByVerification",
          "type": "uint256"
        }
      ],
      "stateMutability": "view",
      "type": "function"
    },
    {
      "inputs": [],
      "name": "sloRegistry",
      "outputs": [
        {
          "internalType": "contract SLORegistry",
          "name": "",
          "type": "address"
        }
      ],
      "stateMutability": "view",
      "type": "function"
    },
    {
      "inputs": [],
      "name": "stakeRegistry",
      "outputs": [
        {
          "internalType": "contract StakeRegistry",
          "name": "",
          "type": "address"
        }
      ],
      "stateMutability": "view",
      "type": "function"
    },
    {
      "inputs": [
        {
          "internalType": "address",
          "name": "newOwner",
          "type": "address"
        }
      ],
      "name": "transferOwnership",
      "outputs": [],
      "stateMutability": "nonpayable",
      "type": "function"
    },
    {
      "inputs": [
        {
          "internalType": "contract SLO",
          "name": "_SLO",
          "type": "address"
        },
        {
          "internalType": "string",
          "name": "_ipfsHash",
          "type": "string"
        },
        {
          "internalType": "enum PeriodRegistry.PeriodType",
          "name": "_periodType",
          "type": "uint8"
        },
        {
          "internalType": "uint256[]",
          "name": "_periodIds",
          "type": "uint256[]"
        },
        {
          "internalType": "address",
          "name": "_messengerAddress",
          "type": "address"
        },
        {
          "internalType": "bool",
          "name": "_whitelisted",
          "type": "bool"
        },
        {
          "internalType": "bytes32[]",
          "name": "_extraData",
          "type": "bytes32[]"
        }
      ],
      "name": "createSLA",
      "outputs": [],
      "stateMutability": "nonpayable",
      "type": "function"
    },
    {
      "inputs": [
        {
          "internalType": "uint256",
          "name": "_periodId",
          "type": "uint256"
        },
        {
          "internalType": "contract SLA",
          "name": "_sla",
          "type": "address"
        }
      ],
      "name": "requestSLI",
      "outputs": [],
      "stateMutability": "nonpayable",
      "type": "function"
    },
    {
      "inputs": [
        {
          "internalType": "contract SLA",
          "name": "_sla",
          "type": "address"
        }
      ],
      "name": "withdrawLockedValue",
      "outputs": [],
      "stateMutability": "nonpayable",
      "type": "function"
    },
    {
      "inputs": [
        {
          "internalType": "address",
          "name": "_messengerAddress",
          "type": "address"
        }
      ],
      "name": "setMessengerSLARegistryAddress",
      "outputs": [],
      "stateMutability": "nonpayable",
      "type": "function"
    },
    {
      "inputs": [
        {
          "internalType": "address",
          "name": "_user",
          "type": "address"
        }
      ],
      "name": "userSLAs",
      "outputs": [
        {
          "internalType": "contract SLA[]",
          "name": "",
          "type": "address[]"
        }
      ],
      "stateMutability": "view",
      "type": "function"
    },
    {
      "inputs": [
        {
          "internalType": "address",
          "name": "_user",
          "type": "address"
        }
      ],
      "name": "userSLACount",
      "outputs": [
        {
          "internalType": "uint256",
          "name": "",
          "type": "uint256"
        }
      ],
      "stateMutability": "view",
      "type": "function"
    },
    {
      "inputs": [],
      "name": "allSLAs",
      "outputs": [
        {
          "internalType": "contract SLA[]",
          "name": "",
          "type": "address[]"
        }
      ],
      "stateMutability": "view",
      "type": "function"
    },
    {
      "inputs": [],
      "name": "SLACount",
      "outputs": [
        {
          "internalType": "uint256",
          "name": "",
          "type": "uint256"
        }
      ],
      "stateMutability": "view",
      "type": "function"
    },
    {
      "inputs": [
        {
          "internalType": "address",
          "name": "_slaAddress",
          "type": "address"
        }
      ],
      "name": "isRegisteredSLA",
      "outputs": [
        {
          "internalType": "bool",
          "name": "",
          "type": "bool"
        }
      ],
      "stateMutability": "view",
      "type": "function"
    }
  ],
  "bytecode": "0x60806040523480156200001157600080fd5b506040516200661c3803806200661c83398101604081905262000034916200019f565b6000620000406200019b565b600080546001600160a01b0319166001600160a01b0383169081178255604051929350917f8be0079c531659141344cd1fd0a4f28419497f9722a3daafe3b4186f6b6457e0908290a350600180546001600160a01b038087166001600160a01b03199283161790925560028054868416908316179055600480548484169216919091178082556040805163f388158960e01b81529051919093169263f3881589928181019260009290919082900301818387803b1580156200010157600080fd5b505af115801562000116573d6000803e3d6000fd5b5050600380546001600160a01b0319166001600160a01b0386811691909117918290556040805163f388158960e01b8152905192909116935063f3881589925060048082019260009290919082900301818387803b1580156200017857600080fd5b505af11580156200018d573d6000803e3d6000fd5b50505050505050506200021f565b3390565b60008060008060808587031215620001b5578384fd5b8451620001c28162000206565b6020860151909450620001d58162000206565b6040860151909350620001e88162000206565b6060860151909250620001fb8162000206565b939692955090935050565b6001600160a01b03811681146200021c57600080fd5b50565b6163ed806200022f6000396000f3fe60806040523480156200001157600080fd5b50600436106200010c5760003560e01c80638da5cb5b116200009f5780638da5cb5b14620001d757806396bddc1014620001e15780639fc4caa514620001eb578063a17f23d214620001f5578063c4277a7b146200021f578063d19944081462000245578063e9b1e98c146200025c578063ec9176ba1462000273578063f2fde38b146200028a576200010c565b806302e97639146200011157806350c5abfe146200012a578063516c285714620001595780635a7d1e5d146200017f5780635c4df33214620001895780636435dc9c14620001935780636830483514620001aa578063715018a614620001b4578063816ff98614620001be575b600080fd5b620001286200012236600462001f25565b620002a1565b005b620001416200013b36600462002115565b620007f5565b604051620001509190620022b9565b60405180910390f35b620001706200016a36600462001f25565b6200081d565b604051620001509190620023ff565b6200014162000967565b6200014162000976565b62000128620001a436600462001f25565b62000985565b6200014162000a45565b6200012862000a54565b620001c862000ad8565b60405162000150919062002998565b6200014162000ade565b6200017062000aed565b6200014162000b51565b6200020c6200020636600462001f63565b62000b60565b60405162000150959493929190620029ce565b620002366200023036600462001f25565b62000b9a565b6040516200015091906200244e565b620001286200025636600462002147565b62000bfa565b620001c86200026d36600462001f25565b620013d9565b620001286200028436600462001fbf565b620013f4565b620001286200029b36600462001f25565b62001b0f565b806001600160a01b0316638da5cb5b6040518163ffffffff1660e01b815260040160206040518083038186803b158015620002db57600080fd5b505afa158015620002f0573d6000803e3d6000fd5b505050506040513d601f19601f8201168201806040525081019062000316919062001f44565b6001600160a01b0316336001600160a01b031614620003525760405162461bcd60e51b815260040162000349906200264b565b60405180910390fd5b6000816001600160a01b0316635fc1b5fd6040518163ffffffff1660e01b815260040160206040518083038186803b1580156200038e57600080fd5b505afa158015620003a3573d6000803e3d6000fd5b505050506040513d601f19601f82011682018060405250810190620003c991906200212e565b90506000826001600160a01b0316630ae9ea45600184036040518263ffffffff1660e01b8152600401620003fe919062002998565b60206040518083038186803b1580156200041757600080fd5b505afa1580156200042c573d6000803e3d6000fd5b505050506040513d601f19601f820116820180604052508101906200045291906200212e565b90506000836001600160a01b03166346e0fbae6040518163ffffffff1660e01b815260040160206040518083038186803b1580156200049057600080fd5b505afa158015620004a5573d6000803e3d6000fd5b505050506040513d601f19601f82011682018060405250810190620004cb9190620020f6565b60025460405160016259edcb60e01b031981529192506000916001600160a01b039091169063ffa61235906200050890859087906004016200246e565b604080518083038186803b1580156200052057600080fd5b505afa15801562000535573d6000803e3d6000fd5b505050506040513d601f19601f820116820180604052508101906200055b91906200216e565b9150506000856001600160a01b0316634190edde856040518263ffffffff1660e01b81526004016200058e919062002998565b60606040518083038186803b158015620005a757600080fd5b505afa158015620005bc573d6000803e3d6000fd5b505050506040513d601f19601f82011682018060405250810190620005e2919062002192565b92505050856001600160a01b0316637fd788aa6040518163ffffffff1660e01b815260040160206040518083038186803b1580156200062057600080fd5b505afa15801562000635573d6000803e3d6000fd5b505050506040513d601f19601f820116820180604052508101906200065b919062001fa0565b15156001148062000685575081421015801562000685575060008160028111156200068257fe5b14155b620006a45760405162461bcd60e51b8152600401620003499062002520565b3360009081526007602090815260408083206001600160a01b038a16845290915290205480620006e85760405162461bcd60e51b8152600401620003499062002931565b6004805460408051638b8e530960e01b815290516001600160a01b0390921692638b8e5309928282019260209290829003018186803b1580156200072b57600080fd5b505afa15801562000740573d6000803e3d6000fd5b505050506040513d601f19601f8201168201806040525081019062000766919062001f44565b6001600160a01b031663a9059cbb33836040518363ffffffff1660e01b815260040162000795929190620023cc565b602060405180830381600087803b158015620007b057600080fd5b505af1158015620007c5573d6000803e3d6000fd5b505050506040513d601f19601f82011682018060405250810190620007eb919062001fa0565b5050505050505050565b600581815481106200080357fe5b6000918252602090912001546001600160a01b0316905081565b606060006200082c83620013d9565b905060608167ffffffffffffffff811180156200084857600080fd5b5060405190808252806020026020018201604052801562000873578160200160208202803683370190505b506001600160a01b03851660009081526006602090815260409182902080548351818402810184019094528084529394506060939091830182828015620008da57602002820191906000526020600020905b815481526020019060010190808311620008c5575b5050505050905060005b838110156200095b576005828281518110620008fc57fe5b6020026020010151815481106200090f57fe5b9060005260206000200160009054906101000a90046001600160a01b03168382815181106200093a57fe5b6001600160a01b0390921660209283029190910190910152600101620008e4565b5090925050505b919050565b6001546001600160a01b031681565b6003546001600160a01b031681565b806001600160a01b031663f38815896040518163ffffffff1660e01b8152600401600060405180830381600087803b158015620009c157600080fd5b505af1158015620009d6573d6000803e3d6000fd5b50506003546040516319d71f1f60e31b81526001600160a01b03909116925063ceb8f8f8915062000a0e9084903390600401620023e5565b600060405180830381600087803b15801562000a2957600080fd5b505af115801562000a3e573d6000803e3d6000fd5b5050505050565b6004546001600160a01b031681565b62000a5e62001bcd565b6000546001600160a01b0390811691161462000a8e5760405162461bcd60e51b815260040162000349906200286e565b600080546040516001600160a01b03909116907f8be0079c531659141344cd1fd0a4f28419497f9722a3daafe3b4186f6b6457e0908390a3600080546001600160a01b0319169055565b60055490565b6000546001600160a01b031690565b6060600580548060200260200160405190810160405280929190818152602001828054801562000b4757602002820191906000526020600020905b81546001600160a01b0316815260019091019060200180831162000b28575b5050505050905090565b6002546001600160a01b031681565b6007602090815260009283526040808420909152908252902080546001820154600283015460038401546004909401549293919290919085565b6000805b60055481101562000bf157826001600160a01b03166005828154811062000bc157fe5b6000918252602090912001546001600160a01b0316141562000be857600191505062000962565b60010162000b9e565b50600092915050565b806001600160a01b031663b1659bad6040518163ffffffff1660e01b815260040160206040518083038186803b15801562000c3457600080fd5b505afa15801562000c49573d6000803e3d6000fd5b505050506040513d601f19601f8201168201806040525081019062000c6f91906200212e565b821462000c905760405162461bcd60e51b81526004016200034990620027f6565b6040516320c876ef60e11b81526000906001600160a01b03831690634190edde9062000cc190869060040162002998565b60606040518083038186803b15801562000cda57600080fd5b505afa15801562000cef573d6000803e3d6000fd5b505050506040513d601f19601f8201168201806040525081019062000d15919062002192565b92506000915062000d239050565b81600281111562000d3057fe5b1462000d505760405162461bcd60e51b8152600401620003499062002693565b6000826001600160a01b0316637fd788aa6040518163ffffffff1660e01b815260040160206040518083038186803b15801562000d8c57600080fd5b505afa15801562000da1573d6000803e3d6000fd5b505050506040513d601f19601f8201168201806040525081019062000dc7919062001fa0565b9050801562000dea5760405162461bcd60e51b8152600401620003499062002762565b60405163021eef7f60e01b81526000906001600160a01b0385169063021eef7f9062000e1b90889060040162002998565b60206040518083038186803b15801562000e3457600080fd5b505afa15801562000e49573d6000803e3d6000fd5b505050506040513d601f19601f8201168201806040525081019062000e6f919062001fa0565b905060018115151462000e965760405162461bcd60e51b81526004016200034990620028e5565b6000846001600160a01b03166346e0fbae6040518163ffffffff1660e01b815260040160206040518083038186803b15801562000ed257600080fd5b505afa15801562000ee7573d6000803e3d6000fd5b505050506040513d601f19601f8201168201806040525081019062000f0d9190620020f6565b6002546040516331edb3ad60e21b81529192506000916001600160a01b039091169063c7b6ceb49062000f479085908b906004016200246e565b60206040518083038186803b15801562000f6057600080fd5b505afa15801562000f75573d6000803e3d6000fd5b505050506040513d601f19601f8201168201806040525081019062000f9b919062001fa0565b905060018115151462000fc25760405162461bcd60e51b81526004016200034990620026e3565b6000866001600160a01b031663a224ee9c6040518163ffffffff1660e01b815260040160206040518083038186803b15801562000ffe57600080fd5b505afa15801562001013573d6000803e3d6000fd5b505050506040513d601f19601f8201168201806040525081019062001039919062001f44565b604051631a33288160e31b81529091506001600160a01b0382169063d1994408906200106c908b908b90600401620029a1565b600060405180830381600087803b1580156200108757600080fd5b505af11580156200109c573d6000803e3d6000fd5b50505050600060076000896001600160a01b0316638da5cb5b6040518163ffffffff1660e01b815260040160206040518083038186803b158015620010e057600080fd5b505afa158015620010f5573d6000803e3d6000fd5b505050506040513d601f19601f820116820180604052508101906200111b919062001f44565b6001600160a01b039081168252602080830193909352604091820160009081208c831682528452829020600480548451638b8e530960e01b8152945192965090921693638b8e5309938084019391929190829003018186803b1580156200118157600080fd5b505afa15801562001196573d6000803e3d6000fd5b505050506040513d601f19601f82011682018060405250810190620011bc919062001f44565b6001600160a01b031663a9059cbb3383600301546040518363ffffffff1660e01b8152600401620011ef929190620023cc565b602060405180830381600087803b1580156200120a57600080fd5b505af11580156200121f573d6000803e3d6000fd5b505050506040513d601f19601f8201168201806040525081019062001245919062001fa0565b506004805460408051638b8e530960e01b815290516001600160a01b0390921692638b8e5309928282019260209290829003018186803b1580156200128957600080fd5b505afa1580156200129e573d6000803e3d6000fd5b505050506040513d601f19601f82011682018060405250810190620012c4919062001f44565b6001600160a01b031663a9059cbb620012dc62000ade565b83600201546040518363ffffffff1660e01b815260040162001300929190620023cc565b602060405180830381600087803b1580156200131b57600080fd5b505af115801562001330573d6000803e3d6000fd5b505050506040513d601f19601f8201168201806040525081019062001356919062001fa0565b5062001366816004015462001bd1565b60018101548154620013789162001d61565b815560038101546002820154600483015460405133936001600160a01b038d16937ffa8a1ac0f9887ecac7f4f256ec56d6c7400974e4c2bf52bcde8c06b159aa6f3f93620013c693620029b8565b60405180910390a3505050505050505050565b6001600160a01b031660009081526006602052604090205490565b600254604051635c98d15760e01b81526000916001600160a01b031690635c98d1579062001427908a9060040162002459565b60206040518083038186803b1580156200144057600080fd5b505afa15801562001455573d6000803e3d6000fd5b505050506040513d601f19601f820116820180604052508101906200147b919062001fa0565b9050600181151514620014a25760405162461bcd60e51b81526004016200034990620028a3565b600154604051636891286d60e11b81526001600160a01b039091169063d12250da90620014d4908c90600401620022b9565b60206040518083038186803b158015620014ed57600080fd5b505afa15801562001502573d6000803e3d6000fd5b505050506040513d601f19601f8201168201806040525081019062001528919062001fa0565b15156001146200154c5760405162461bcd60e51b81526004016200034990620024df565b846200156c5760405162461bcd60e51b815260040162000349906200272b565b60005b85811015620016f8576002546000906001600160a01b031663ddfc4fde8a8a8a868181106200159a57fe5b905060200201356040518363ffffffff1660e01b8152600401620015c09291906200246e565b60206040518083038186803b158015620015d957600080fd5b505afa158015620015ee573d6000803e3d6000fd5b505050506040513d601f19601f8201168201806040525081019062001614919062001fa0565b905080620016365760405162461bcd60e51b81526004016200034990620025a3565b6000198701821015620016ee578787836001018181106200165357fe5b905060200201358888848181106200166757fe5b90506020020135106200168e5760405162461bcd60e51b8152600401620003499062002961565b620016cc8888848181106200169f57fe5b90506020020135898985600101818110620016b657fe5b9050602002013562001d6190919063ffffffff16565b600114620016ee5760405162461bcd60e51b8152600401620003499062002616565b506001016200156f565b5060035460405163ef4003db60e01b81526000916001600160a01b03169063ef4003db906200172c908890600401620022b9565b60206040518083038186803b1580156200174557600080fd5b505afa1580156200175a573d6000803e3d6000fd5b505050506040513d601f19601f8201168201806040525081019062001780919062001fa0565b9050600181151514620017a75760405162461bcd60e51b815260040162000349906200249c565b6000338b8b888b8b8e600460009054906101000a90046001600160a01b0316600260009054906101000a90046001600160a01b03168d8d600580549050604051620017f29062001e1d565b620018099c9b9a99989796959493929190620022f1565b604051809103906000f08015801562001826573d6000803e3d6000fd5b509050600080600080600460009054906101000a90046001600160a01b03166001600160a01b031663f700839e6040518163ffffffff1660e01b815260040160a06040518083038186803b1580156200187e57600080fd5b505afa15801562001893573d6000803e3d6000fd5b505050506040513d601f19601f82011682018060405250810190620018b99190620021cf565b9297509095509350915060009050620018d3858d62001dae565b9050600460009054906101000a90046001600160a01b03166001600160a01b0316638b8e53096040518163ffffffff1660e01b815260040160206040518083038186803b1580156200192457600080fd5b505afa15801562001939573d6000803e3d6000fd5b505050506040513d601f19601f820116820180604052508101906200195f919062001f44565b6001600160a01b03166323b872dd3330846040518463ffffffff1660e01b81526004016200199093929190620022cd565b602060405180830381600087803b158015620019ab57600080fd5b505af1158015620019c0573d6000803e3d6000fd5b505050506040513d601f19601f82011682018060405250810190620019e6919062001fa0565b506040805160a08101825282815260208082018881528284018881526060840188815260808501888152336000908152600786528781206001600160a01b038f1680835296529687209551865592516001808701919091559151600286015551600385015590516004909301929092556005805480840182558185527f036b6384b5eca791c62761152d0c79bb0604c104a5fb6f4eb0703f3154bb3db00180546001600160a01b0319169092179091555462001aa29162001d61565b33600081815260066020908152604080832080546001810182559084529183209091018490555192935090916001600160a01b038a16917fb52f284a6c14f1a66ab5513b5b539066933e58e69e6432666f0e3c8c8a7d750391a35050505050505050505050505050505050565b62001b1962001bcd565b6000546001600160a01b0390811691161462001b495760405162461bcd60e51b815260040162000349906200286e565b6001600160a01b03811662001b725760405162461bcd60e51b81526004016200034990620025d0565b600080546040516001600160a01b03808516939216917f8be0079c531659141344cd1fd0a4f28419497f9722a3daafe3b4186f6b6457e091a3600080546001600160a01b0319166001600160a01b0392909216919091179055565b3390565b604080518082018252600d81526c6275726e2875696e743235362960981b602091820152600480548351638b8e530960e01b815293517f42966c689b5afe9b9b3f8a7103b2a19980d59629bfd6a20a60972312ed41d836946000946001600160a01b0390931693638b8e530993828201939092909190829003018186803b15801562001c5c57600080fd5b505afa15801562001c71573d6000803e3d6000fd5b505050506040513d601f19601f8201168201806040525081019062001c97919062001f44565b6001600160a01b0316828460405160240162001cb4919062002998565b60408051601f198184030181529181526020820180516001600160e01b03166001600160e01b031990941693909317909252905162001cf491906200229b565b6000604051808303816000865af19150503d806000811462001d33576040519150601f19603f3d011682016040523d82523d6000602084013e62001d38565b606091505b505090508062001d5c5760405162461bcd60e51b81526004016200034990620027b2565b505050565b600062001da583836040518060400160405280601e81526020017f536166654d6174683a207375627472616374696f6e206f766572666c6f77000081525062001dee565b90505b92915050565b60008262001dbf5750600062001da8565b8282028284828162001dcd57fe5b041462001da55760405162461bcd60e51b815260040162000349906200282d565b6000818484111562001e155760405162461bcd60e51b815260040162000349919062002487565b505050900390565b61392a8062002a8e83390190565b803562001da88162002a5a565b600082601f83011262001e49578081fd5b813567ffffffffffffffff81111562001e60578182fd5b602080820262001e72828201620029f1565b8381529350818401858301828701840188101562001e8f57600080fd5b600092505b8483101562001eb457803582526001929092019190830190830162001e94565b505050505092915050565b60008083601f84011262001ed1578081fd5b50813567ffffffffffffffff81111562001ee9578182fd5b602083019150836020808302850101111562001f0457600080fd5b9250929050565b803562001da88162002a70565b803562001da88162002a7f565b60006020828403121562001f37578081fd5b813562001da58162002a5a565b60006020828403121562001f56578081fd5b815162001da58162002a5a565b6000806040838503121562001f76578081fd5b823562001f838162002a5a565b9150602083013562001f958162002a5a565b809150509250929050565b60006020828403121562001fb2578081fd5b815162001da58162002a70565b60008060008060008060008060e0898b03121562001fdb578384fd5b883562001fe88162002a5a565b975060208981013567ffffffffffffffff8082111562002006578687fd5b818c0191508c601f8301126200201a578687fd5b81358181111562002029578788fd5b6200203d601f8201601f19168501620029f1565b8181528e8583860101111562002051578889fd5b818585018683013790810184018890529950620020728d60408e0162001f18565b985060608c013592508083111562002088578687fd5b620020968d848e0162001ebf565b93509150819750829650620020af8d60808e0162001e2b565b9550620020c08d60a08e0162001f0b565b945060c08c0135925080831115620020d6578384fd5b5050620020e68b828c0162001e38565b9150509295985092959890939650565b60006020828403121562002108578081fd5b815162001da58162002a7f565b60006020828403121562002127578081fd5b5035919050565b60006020828403121562002140578081fd5b5051919050565b600080604083850312156200215a578182fd5b82359150602083013562001f958162002a5a565b6000806040838503121562002181578182fd5b505080516020909101519092909150565b600080600060608486031215620021a7578081fd5b8351925060208401519150604084015160038110620021c4578182fd5b809150509250925092565b600080600080600060a08688031215620021e7578283fd5b5050835160208501516040860151606087015160809097015192989197509594509092509050565b6001600160a01b03169052565b6000815180845260208085019450808401835b838110156200224d578151875295820195908201906001016200222f565b509495945050505050565b15159052565b620022698162002a4c565b9052565b600081518084526200228781602086016020860162002a19565b601f01601f19169290920160200192915050565b60008251620022af81846020870162002a19565b9190910192915050565b6001600160a01b0391909116815260200190565b6001600160a01b039384168152919092166020820152604081019190915260600190565b600060018060a01b03808f168352808e16602084015261016060408401526200231f61016084018e6200226d565b8c8216606085015283810360808501528a81526001600160fb1b038b111562002346578283fd5b60208b029150818c602083013701602081018281526200236a60a085018b6200225e565b6200237960c085018a6200220f565b6200238860e08501896200220f565b6200239861010085018862002258565b602084830301610120850152620023b081876200221c565b92505050826101408301529d9c50505050505050505050505050565b6001600160a01b03929092168252602082015260400190565b6001600160a01b0392831681529116602082015260400190565b6020808252825182820181905260009190848201906040850190845b81811015620024425783516001600160a01b0316835292840192918401916001016200241b565b50909695505050505050565b901515815260200190565b60208101620024688362002a4c565b91905290565b60408101600684106200247d57fe5b9281526020015290565b60006020825262001da560208301846200226d565b60208082526023908201527f6d657373656e6765722061646472657373206973206e6f7420726567697374656040820152621c995960ea1b606082015260800190565b60208082526021908201527f534c4f206e6f742072656769737465726564206f6e20534c4f526567697374726040820152607960f81b606082015260800190565b6020808252605f908201527f43616e206f6e6c79207769746864726177206c6f636b65642044534c4120616660408201527f746572207468652066696e616c20706572696f6420697320766572696669656460608201527f206f722069662074686520636f6e747261637420697320627265616368656400608082015260a00190565b60208082526013908201527214195c9a5bd9081a59081b9bdd081d985b1a59606a1b604082015260600190565b60208082526026908201527f4f776e61626c653a206e6577206f776e657220697320746865207a65726f206160408201526564647265737360d01b606082015260800190565b6020808252818101527f506572696f64206964732073686f756c6420626520636f6e7365637574697665604082015260600190565b60208082526028908201527f4f6e6c7920534c41206f776e65722063616e207769746864726177206c6f636b60408201526765642076616c756560c01b606082015260800190565b60208082526030908201527f534c4120636f6e74726163742077617320616c7265616479207665726966696560408201526f1908199bdc881d1a19481c195c9a5bd960821b606082015260800190565b60208082526028908201527f534c4120636f6e747261637420706572696f6420686173206e6f742066696e696040820152671cda1959081e595d60c21b606082015260800190565b6020808252601c908201527f506572696f647320696e666f726d6174696f6e20697320656d70747900000000604082015260600190565b60208082526030908201527f53686f756c64206f6e6c792062652063616c6c656420666f72206e6f7420627260408201526f65616368656420636f6e74726163747360801b606082015260800190565b60208082526024908201527f44534c41206275726e2070726f6365737320776173206e6f74207375636365736040820152631cd99d5b60e21b606082015260800190565b6020808252601e908201527f53686f756c64206f6e6c7920766572696679206e65787420706572696f640000604082015260600190565b60208082526021908201527f536166654d6174683a206d756c7469706c69636174696f6e206f766572666c6f6040820152607760f81b606082015260800190565b6020808252818101527f4f776e61626c653a2063616c6c6572206973206e6f7420746865206f776e6572604082015260600190565b60208082526022908201527f506572696f642074797065206973206e6f7420696e697469616c697a65642079604082015261195d60f21b606082015260800190565b6020808252602c908201527f506572696f64204944206e6f74207265676973746572656420696e207468652060408201526b14d3104818dbdb9d1c9858dd60a21b606082015260800190565b60208082526016908201527503637b1b5b2b2103b30b63ab29034b99032b6b83a3c960551b604082015260600190565b6020808252601c908201527f506572696f64206964732073686f756c6420626520736f727465642000000000604082015260600190565b90815260200190565b9182526001600160a01b0316602082015260400190565b9283526020830191909152604082015260600190565b948552602085019390935260408401919091526060830152608082015260a00190565b60405181810167ffffffffffffffff8111828210171562002a1157600080fd5b604052919050565b60005b8381101562002a3657818101518382015260200162002a1c565b8381111562002a46576000848401525b50505050565b6006811062002a5757fe5b50565b6001600160a01b038116811462002a5757600080fd5b801515811462002a5757600080fd5b6006811062002a5757600080fdfe6080604052620f424060088190556009556017805460ff60a01b191690553480156200002a57600080fd5b506040516200392a3803806200392a8339810160408190526200004d91620006cb565b848487895186856000620000666200033f60201b60201c565b600080546001600160a01b0319166001600160a01b0383169081178255604051929350916000805160206200390a833981519152908290a350600180546001600160a01b038089166001600160a01b03199283161783556002805491891691909216179055600e8054869260ff1990911690836005811115620000e557fe5b0217905550600f8390556010805460ff191683151517905560015460408051637b8041cf60e11b815290516000926001600160a01b03169163f700839e9160048083019260a0929190829003018186803b1580156200014357600080fd5b505afa15801562000158573d6000803e3d6000fd5b505050506040513d601f19601f820116820180604052508101906200017e9190620007fc565b505060015460408051638b8e530960e01b815290519495506001600160a01b0390911693638b8e5309935060048083019350602092829003018186803b158015620001c857600080fd5b505afa158015620001dd573d6000803e3d6000fd5b505050506040513d601f19601f82011682018060405250810190620002039190620006a5565b600b80546001600160a01b0319166001600160a01b0392909216919091179055600d819055620002333362000343565b50600355506200024a93508e925050620003e69050565b88516200025f9060139060208c019062000493565b50601780546001600160a01b03808b166001600160a01b03199283161790925560168054909116331790556014805491861661010002610100600160a81b0319909216919091179055436019558651620002c19060159060208a019062000518565b506014805487919060ff19166001836005811115620002dc57fe5b0217905550601280546001600160a01b0319166001600160a01b038c1617905581516200031190601a90602085019062000518565b50866000815181106200032057fe5b6020026020010151601b8190555050505050505050505050506200094e565b3390565b6200034d6200033f565b6000546001600160a01b03908116911614620003865760405162461bcd60e51b81526004016200037d90620008b9565b60405180910390fd5b6001600160a01b03811660009081526011602052604090205460ff1615620003c25760405162461bcd60e51b81526004016200037d906200083c565b6001600160a01b03166000908152601160205260409020805460ff19166001179055565b620003f06200033f565b6000546001600160a01b03908116911614620004205760405162461bcd60e51b81526004016200037d90620008b9565b6001600160a01b038116620004495760405162461bcd60e51b81526004016200037d9062000873565b600080546040516001600160a01b03808516939216916000805160206200390a83398151915291a3600080546001600160a01b0319166001600160a01b0392909216919091179055565b828054600181600116156101000203166002900490600052602060002090601f016020900481019282601f10620004d657805160ff191683800117855562000506565b8280016001018555821562000506579182015b8281111562000506578251825591602001919060010190620004e9565b506200051492915062000555565b5090565b82805482825590600052602060002090810192821562000506579160200282018281111562000506578251825591602001919060010190620004e9565b5b8082111562000514576000815560010162000556565b8051620005798162000935565b92915050565b600082601f83011262000590578081fd5b8151620005a7620005a18262000915565b620008ee565b818152915060208083019084810181840286018201871015620005c957600080fd5b60005b84811015620005ea57815184529282019290820190600101620005cc565b505050505092915050565b805180151581146200057957600080fd5b8051600681106200057957600080fd5b600082601f83011262000627578081fd5b81516001600160401b038111156200063d578182fd5b602062000653601f8301601f19168201620008ee565b925081835284818386010111156200066a57600080fd5b60005b828110156200068a5784810182015184820183015281016200066d565b828111156200069c5760008284860101525b50505092915050565b600060208284031215620006b7578081fd5b8151620006c48162000935565b9392505050565b60008060008060008060008060008060006101608c8e031215620006ed578687fd5b620006f98d8d6200056c565b9a506200070a8d60208e016200056c565b60408d0151909a506001600160401b0381111562000726578788fd5b620007348e828f0162000616565b995050620007468d60608e016200056c565b60808d01519098506001600160401b0381111562000762578788fd5b620007708e828f016200057f565b975050620007828d60a08e0162000606565b9550620007938d60c08e016200056c565b9450620007a48d60e08e016200056c565b9350620007b68d6101008e01620005f5565b6101208d01519093506001600160401b03811115620007d3578283fd5b620007e18e828f016200057f565b9250506101408c015190509295989b509295989b9093969950565b600080600080600060a0868803121562000814578081fd5b5050835160208501516040860151606087015160809097015192989197509594509092509050565b60208082526018908201527f5573657220616c72656164792077686974656c69737465640000000000000000604082015260600190565b60208082526026908201527f4f776e61626c653a206e6577206f776e657220697320746865207a65726f206160408201526564647265737360d01b606082015260800190565b6020808252818101527f4f776e61626c653a2063616c6c6572206973206e6f7420746865206f776e6572604082015260600190565b6040518181016001600160401b03811182821017156200090d57600080fd5b604052919050565b60006001600160401b038211156200092b578081fd5b5060209081020190565b6001600160a01b03811681146200094b57600080fd5b50565b612fac806200095e6000396000f3fe608060405234801561001057600080fd5b50600436106102695760003560e01c8063715018a611610151578063b7bc347e116100c3578063db69a46211610087578063db69a462146104db578063f2db10fe146104e3578063f2fde38b146104eb578063f7e9dfff146104fe578063f9902bb114610506578063fd5e6dd11461051957610269565b8063b7bc347e14610490578063c623674f14610498578063cbe230c3146104ad578063cd92890e146104c0578063d7a5c422146104c857610269565b80638da5cb5b116101155780638da5cb5b146104555780639b19251a1461045d5780639fabeb00146104705780639fc4caa514610478578063a224ee9c14610480578063b1659bad1461048857610269565b8063715018a614610417578063747b80501461041f57806378025ec4146104325780637fd788aa146104455780638d4f567d1461044d57610269565b806346e0fbae116101ea57806357ac94f0116101ae57806357ac94f0146103ad5780635c1c20de146103ce5780635e5f2e26146103d65780635fc1b5fd146103e9578063639b6fc3146103f15780636f1e85331461040457610269565b806346e0fbae1461033f578063484fbf2b146103545780634e0c91f6146103675780634fb2647e14610387578063524f07351461039a57610269565b806318e454271161023157806318e45427146102e75780631bf30929146102ef5780631fc2cd93146102f757806327cd727c1461030a5780634190edde1461031d57610269565b8063021eef7f1461026e5780630ae9ea45146102975780630bea440d146102b75780630c5160f4146102cc578063171e44ea146102d4575b600080fd5b61028161027c3660046126c2565b61052c565b60405161028e919061290d565b60405180910390f35b6102aa6102a53660046126c2565b610576565b60405161028e9190612918565b6102ca6102c53660046126f2565b610594565b005b6102aa6106f5565b6102ca6102e23660046125a4565b6106fb565b610281610ac4565b6102aa610acd565b6102ca6103053660046125a4565b610ad3565b6102ca6103183660046126f2565b610d3b565b61033061032b3660046126c2565b610e9a565b60405161028e93929190612ef9565b610347610ebe565b60405161028e9190612921565b6102aa6103623660046125a4565b610ec7565b61037a6103753660046125a4565b610ed9565b60405161028e91906128bc565b61037a6103953660046125a4565b610ef4565b6102ca6103a83660046125a4565b610f0f565b6103c06103bb3660046125dc565b610f1b565b60405161028e9291906128d0565b6102aa6110fb565b61037a6103e43660046126c2565b611101565b6102aa611128565b6102aa6103ff3660046125a4565b61112e565b6102816104123660046125a4565b611140565b6102ca611192565b6102ca61042d3660046125a4565b611211565b6102aa6104403660046126c2565b6112a3565b6102816112b0565b6102aa6112c0565b61037a6112c6565b61028161046b3660046125a4565b6112d5565b6102aa6112ea565b61037a6112f0565b61037a611304565b6102aa611313565b6102aa611319565b6104a061131f565b60405161028e919061294d565b6102816104bb3660046125a4565b6113ad565b61037a6113ff565b6102ca6104d6366004612721565b61140e565b61037a6116d4565b6102aa6116e3565b6102ca6104f93660046125a4565b6116e9565b61037a61179f565b6102ca6105143660046125a4565b6117ae565b61037a6105273660046126c2565b611841565b6000805b60155481101561056b57826015828154811061054857fe5b90600052602060002001541415610563576001915050610571565b600101610530565b50600090505b919050565b6015818154811061058357fe5b600091825260209091200154905081565b600082116105bd5760405162461bcd60e51b81526004016105b490612db9565b60405180910390fd5b601754600160a01b900460ff16156105e75760405162461bcd60e51b81526004016105b490612d0d565b6105f1828261184e565b60165460408051636830483560e01b815290516000926001600160a01b0316916368304835916004808301926020929190829003018186803b15801561063657600080fd5b505afa15801561064a573d6000803e3d6000fd5b505050506040513d601f19601f8201168201806040525081019061066e91906125c0565b604051635948284760e11b81529091506001600160a01b0382169063b290508e9061069d9033906004016128bc565b602060405180830381600087803b1580156106b757600080fd5b505af11580156106cb573d6000803e3d6000fd5b505050506040513d601f19601f820116820180604052508101906106ef9190612607565b50505050565b600f5481565b610703611c2e565b6000546001600160a01b039081169116146107305760405162461bcd60e51b81526004016105b490612cd8565b610739816113ad565b156107565760405162461bcd60e51b81526004016105b490612d55565b60015460405163cbe230c360e01b81526001600160a01b039091169063cbe230c3906107869084906004016128bc565b60206040518083038186803b15801561079e57600080fd5b505afa1580156107b2573d6000803e3d6000fd5b505050506040513d601f19601f820116820180604052508101906107d69190612607565b15156001146107f75760405162461bcd60e51b81526004016105b490612abc565b600c80546001810182556000919091527fdf6966c971051c3d54ec59162606531493a51404a002842f56009d7e5cf4a8c70180546001600160a01b0319166001600160a01b03831617905560035460609061085190611c32565b90506060826001600160a01b03166395d89b416040518163ffffffff1660e01b815260040160006040518083038186803b15801561088e57600080fd5b505afa1580156108a2573d6000803e3d6000fd5b505050506040513d6000823e601f3d908101601f191682016040526108ca9190810190612627565b9050606081836040516020016108e192919061286a565b6040516020818303038152906040529050606082846040516020016109079291906127ad565b60405160208183030381529060405290506060838560405160200161092d9291906127f7565b60405160208183030381529060405290506060848660405160200161095392919061284d565b60408051601f1981840301815290829052600154633350214760e11b83529092506000916001600160a01b03909116906366a0428e906109999088908890600401612960565b602060405180830381600087803b1580156109b357600080fd5b505af11580156109c7573d6000803e3d6000fd5b505050506040513d601f19601f820116820180604052508101906109eb91906125c0565b600154604051633350214760e11b81529192506000916001600160a01b03909116906366a0428e90610a239087908790600401612960565b602060405180830381600087803b158015610a3d57600080fd5b505af1158015610a51573d6000803e3d6000fd5b505050506040513d601f19601f82011682018060405250810190610a7591906125c0565b6001600160a01b03998a1660009081526007602090815260408083208054948e166001600160a01b031995861617905560069091529020805493909a1692169190911790975550505050505050565b60105460ff1681565b60195481565b610adb6112c6565b6001600160a01b0316336001600160a01b03161415610b0c5760405162461bcd60e51b81526004016105b490612ea6565b60105460ff16151560011415610b50573360009081526011602052604090205460ff161515600114610b505760405162461bcd60e51b81526004016105b490612bab565b6001600160a01b038082166000908152600660205260408082205490516370a0823160e01b815292169182906370a0823190610b909033906004016128bc565b60206040518083038186803b158015610ba857600080fd5b505afa158015610bbc573d6000803e3d6000fd5b505050506040513d601f19601f82011682018060405250810190610be091906126da565b90506000826001600160a01b03166318160ddd6040518163ffffffff1660e01b815260040160206040518083038186803b158015610c1d57600080fd5b505afa158015610c31573d6000803e3d6000fd5b505050506040513d601f19601f82011682018060405250810190610c5591906126da565b905061271082610c775760405162461bcd60e51b81526004016105b490612b4e565b6000610c8d83610c878685611d0d565b90611d50565b6001600160a01b03871660009081526005602052604081205491925090610cba908490610c879085611d0d565b60405163079cc67960e41b81529091506001600160a01b038716906379cc679090610ceb90339089906004016128d0565b600060405180830381600087803b158015610d0557600080fd5b505af1158015610d19573d6000803e3d6000fd5b50610d32925050506001600160a01b0388163383611d92565b50505050505050565b60008211610d5b5760405162461bcd60e51b81526004016105b490612db9565b60158054600091906000198101908110610d7157fe5b600091825260208220015460145460405160016259edcb60e01b031981529193506001600160a01b036101008204169163ffa6123591610dbb9160ff909116908690600401612935565b604080518083038186803b158015610dd257600080fd5b505afa158015610de6573d6000803e3d6000fd5b505050506040513d601f19601f82011682018060405250810190610e0a9190612742565b915050610e156112c6565b6001600160a01b0316336001600160a01b031614610e9057601754600160a01b900460ff16151560011480610e745750804210158015610e745750600082815260186020526040812060029081015460ff1690811115610e7157fe5b14155b610e905760405162461bcd60e51b81526004016105b4906129c0565b6106ef8484611de8565b60186020526000908152604090208054600182015460029092015490919060ff1683565b60145460ff1681565b60056020526000908152604090205481565b6006602052600090815260409020546001600160a01b031681565b6007602052600090815260409020546001600160a01b031681565b610f1881610ad3565b50565b6000806000600c8481548110610f2d57fe5b6000918252602090912001546001600160a01b03169050610f4c6112c6565b6001600160a01b0316856001600160a01b03161415610f88576001600160a01b03811660009081526004602052604090205490925090506110f4565b6001600160a01b0380821660009081526006602090815260408083205481516318160ddd60e01b8152915194169384926318160ddd9260048082019391829003018186803b158015610fd957600080fd5b505afa158015610fed573d6000803e3d6000fd5b505050506040513d601f19601f8201168201806040525081019061101191906126da565b90508061102757826000945094505050506110f4565b6040516370a0823160e01b81526000906001600160a01b038416906370a0823190611056908b906004016128bc565b60206040518083038186803b15801561106e57600080fd5b505afa158015611082573d6000803e3d6000fd5b505050506040513d601f19601f820116820180604052508101906110a691906126da565b905061271060006110bb84610c878585611d0d565b6001600160a01b03871660009081526005602052604090205490915086906110e9908490610c879085611d0d565b975097505050505050505b9250929050565b600d5481565b600c818154811061110e57fe5b6000918252602090912001546001600160a01b0316905081565b60155490565b60046020526000908152604090205481565b6000805b600a5481101561056b57826001600160a01b0316600a828154811061116557fe5b6000918252602090912001546001600160a01b0316141561118a576001915050610571565b600101611144565b61119a611c2e565b6000546001600160a01b039081169116146111c75760405162461bcd60e51b81526004016105b490612cd8565b600080546040516001600160a01b03909116907f8be0079c531659141344cd1fd0a4f28419497f9722a3daafe3b4186f6b6457e0908390a3600080546001600160a01b0319169055565b611219611c2e565b6000546001600160a01b039081169116146112465760405162461bcd60e51b81526004016105b490612cd8565b6001600160a01b03811660009081526011602052604090205460ff161561127f5760405162461bcd60e51b81526004016105b49061298e565b6001600160a01b03166000908152601160205260409020805460ff19166001179055565b601a818154811061058357fe5b601754600160a01b900460ff1690565b60085481565b6000546001600160a01b031690565b60116020526000908152604090205460ff1681565b600a5490565b60145461010090046001600160a01b031681565b6017546001600160a01b031681565b601b5481565b600c5490565b6013805460408051602060026001851615610100026000190190941693909304601f810184900484028201840190925281815292918301828280156113a55780601f1061137a576101008083540402835291602001916113a5565b820191906000526020600020905b81548152906001019060200180831161138857829003601f168201915b505050505081565b6000805b600c5481101561056b57826001600160a01b0316600c82815481106113d257fe5b6000918252602090912001546001600160a01b031614156113f7576001915050610571565b6001016113b1565b6012546001600160a01b031681565b6017546001600160a01b031633146114385760405162461bcd60e51b81526004016105b490612b09565b7fc95987c1992805ee34bdc915e017cceae36ba1c156b9911fa7e691e6435eb46e42838360405161146b93929190612f1f565b60405180910390a16001808201601b5560008281526018602090815260408083209384018690554284556012548151633fa4f24560e01b815291516001600160a01b0390911692633fa4f2459260048082019391829003018186803b1580156114d357600080fd5b505afa1580156114e7573d6000803e3d6000fd5b505050506040513d601f19601f8201168201806040525081019061150b91906126da565b6012546040516303c8f2e360e21b81529192506001600160a01b031690630f23cb8c9061153c908790600401612918565b60206040518083038186803b15801561155457600080fd5b505afa158015611568573d6000803e3d6000fd5b505050506040513d601f19601f8201168201806040525081019061158c9190612607565b15611669576002828101805460ff19166001179055612710906000906115ce906115ba90610c878987611fcc565b610c87846115c88a88611ff1565b90611d0d565b90506000611608600161160260156000815481106115e857fe5b906000526020600020015489611ff190919063ffffffff16565b90611fcc565b60158054919250600091600019810190811061162057fe5b90600052602060002001548714156116425761163d600185611d0d565b611653565b60155461165390610c878585611d0d565b9050611660878286612033565b505050506106ef565b6002828101805460ff19169091179055611681612199565b6017805460ff60a01b1916600160a01b1790556040517fbd33f7a3bfa88a467c9df5ae7d2341cf061084c386b20a0d48130f5cbce38a4d906116c69085908790612eeb565b60405180910390a150505050565b6016546001600160a01b031681565b60035481565b6116f1611c2e565b6000546001600160a01b0390811691161461171e5760405162461bcd60e51b81526004016105b490612cd8565b6001600160a01b0381166117445760405162461bcd60e51b81526004016105b490612a3f565b600080546040516001600160a01b03808516939216917f8be0079c531659141344cd1fd0a4f28419497f9722a3daafe3b4186f6b6457e091a3600080546001600160a01b0319166001600160a01b0392909216919091179055565b600b546001600160a01b031681565b6117b6611c2e565b6000546001600160a01b039081169116146117e35760405162461bcd60e51b81526004016105b490612cd8565b6001600160a01b03811660009081526011602052604090205460ff1615156001146118205760405162461bcd60e51b81526004016105b490612de5565b6001600160a01b03166000908152601160205260409020805460ff19169055565b600a818154811061110e57fe5b80611858816113ad565b15156001146118795760405162461bcd60e51b81526004016105b490612caa565b60105460ff161515600114156118bd573360009081526011602052604090205460ff1615156001146118bd5760405162461bcd60e51b81526004016105b490612bab565b6118d26001600160a01b03831633308661227e565b6118da6112c6565b6001600160a01b0316336001600160a01b031614611a15576001600160a01b038216600090815260046020908152604080832054600590925290912054816119228287611fcc565b11156119405760405162461bcd60e51b81526004016105b490612e13565b6001600160a01b0384166000908152600560205260409020546119639086611fcc565b6001600160a01b0385166000908152600560205260408120919091556008546009546119959190610c87908990611d0d565b6001600160a01b03808716600090815260066020526040908190205490516340c10f1960e01b8152929350169081906340c10f19906119da90339086906004016128d0565b600060405180830381600087803b1580156119f457600080fd5b505af1158015611a08573d6000803e3d6000fd5b5050505050505050611bd9565b6001600160a01b0380831660009081526007602090815260408083205481516318160ddd60e01b8152915194169384926318160ddd9260048082019391829003018186803b158015611a6657600080fd5b505afa158015611a7a573d6000803e3d6000fd5b505050506040513d601f19601f82011682018060405250810190611a9e91906126da565b6001600160a01b03851660009081526004602052604090205490915081611b24576040516340c10f1960e01b81526001600160a01b038416906340c10f1990611aed9033908a906004016128d0565b600060405180830381600087803b158015611b0757600080fd5b505af1158015611b1b573d6000803e3d6000fd5b50505050611b99565b6000611b3482610c878986611d0d565b6040516340c10f1960e01b81529091506001600160a01b038516906340c10f1990611b6590339085906004016128d0565b600060405180830381600087803b158015611b7f57600080fd5b505af1158015611b93573d6000803e3d6000fd5b50505050505b6001600160a01b038516600090815260046020526040902054611bbc9087611fcc565b6001600160a01b0386166000908152600460205260409020555050505b611be233611140565b611c2957600a80546001810182556000919091527fc65a7bb8d6351c1cf70c95a316cc6a92839c986682d98bc35f958f4883f9d2a80180546001600160a01b031916331790555b505050565b3390565b60608180611c595750506040805180820190915260018152600360fc1b6020820152610571565b8060005b8115611c7157600101600a82049150611c5d565b60608167ffffffffffffffff81118015611c8a57600080fd5b506040519080825280601f01601f191660200182016040528015611cb5576020820181803683370190505b50905060001982015b8415611d0357600a850660300160f81b82828060019003935081518110611ce157fe5b60200101906001600160f81b031916908160001a905350600a85049450611cbe565b5095945050505050565b600082611d1c57506000611d4a565b82820282848281611d2957fe5b0414611d475760405162461bcd60e51b81526004016105b490612c69565b90505b92915050565b6000611d4783836040518060400160405280601a81526020017f536166654d6174683a206469766973696f6e206279207a65726f00000000000081525061229f565b611c298363a9059cbb60e01b8484604051602401611db19291906128d0565b60408051601f198184030181529190526020810180516001600160e01b03166001600160e01b0319909316929092179091526122d6565b80611df2816113ad565b1515600114611e135760405162461bcd60e51b81526004016105b490612caa565b6001600160a01b03821660009081526004602090815260408083205460059092529091205480611e438387611ff1565b1015611e615760405162461bcd60e51b81526004016105b490612bdc565b6001600160a01b0380851660009081526007602090815260408083205481516318160ddd60e01b8152915194169384926318160ddd9260048082019391829003018186803b158015611eb257600080fd5b505afa158015611ec6573d6000803e3d6000fd5b505050506040513d601f19601f82011682018060405250810190611eea91906126da565b6001600160a01b038716600090815260046020526040812054919250611f1482610c878b86611d0d565b60405163079cc67960e41b81529091506001600160a01b038516906379cc679090611f4590339085906004016128d0565b600060405180830381600087803b158015611f5f57600080fd5b505af1158015611f73573d6000803e3d6000fd5b5050506001600160a01b038916600090815260046020526040902054611f9a91508a611ff1565b6001600160a01b038916600081815260046020526040902091909155611fc190338b611d92565b505050505050505050565b600082820183811015611d475760405162461bcd60e51b81526004016105b490612a85565b6000611d4783836040518060400160405280601e81526020017f536166654d6174683a207375627472616374696f6e206f766572666c6f770000815250612365565b60005b600c54811015612176576000600c828154811061204f57fe5b60009182526020808320909101546001600160a01b0316808352600590915260408220549092509061208585610c878489611d0d565b6001600160a01b0384166000908152600560205260409020549091506120ab9082611ff1565b6001600160a01b03808516600081815260056020526040902092909255600b541614156120ed5760006120dd82612391565b90506120e98282611ff1565b9150505b6001600160a01b0383166000908152600460205260409020546121109082611fcc565b6001600160a01b0384166000818152600460205260409081902092909255905188907f3173c1c4b679e2da86dbb0382bde749a6e16cd31912c5410e17985cd7d2b905290612163908a908a908790612f1f565b60405180910390a3505050600101612036565b5061219181610c876121888286611ff1565b60085490611d0d565b600855505050565b60005b600c54811015610f18576000600c82815481106121b557fe5b60009182526020808320909101546001600160a01b0316808352600582526040808420546004909352909220549192509081906121f29082611ff1565b6001600160a01b03808516600081815260046020526040902092909255600b5416141561223457600061222482612391565b90506122308282611ff1565b9150505b6001600160a01b0383166000908152600560205260409020546122579082611fcc565b6001600160a01b03909316600090815260056020526040902092909255505060010161219c565b6106ef846323b872dd60e01b858585604051602401611db1939291906128e9565b600081836122c05760405162461bcd60e51b81526004016105b4919061294d565b5060008385816122cc57fe5b0495945050505050565b606061232b826040518060400160405280602081526020017f5361666545524332303a206c6f772d6c6576656c2063616c6c206661696c6564815250856001600160a01b03166124c39092919063ffffffff16565b805190915015611c2957808060200190518101906123499190612607565b611c295760405162461bcd60e51b81526004016105b490612e5c565b600081848411156123895760405162461bcd60e51b81526004016105b4919061294d565b505050900390565b60408051808201909152600d8082526c6275726e2875696e743235362960981b602090920191909152546000907f42966c689b5afe9b9b3f8a7103b2a19980d59629bfd6a20a60972312ed41d836906123f3906103e890610c87908690611d0d565b600b546040519193506000916001600160a01b0390911690839061241b908690602401612918565b60408051601f198184030181529181526020820180516001600160e01b03166001600160e01b03199094169390931790925290516124599190612791565b6000604051808303816000865af19150503d8060008114612496576040519150601f19603f3d011682016040523d82523d6000602084013e61249b565b606091505b50509050806124bc5760405162461bcd60e51b81526004016105b490612c25565b5050919050565b60606124d284846000856124da565b949350505050565b60606124e58561259e565b6125015760405162461bcd60e51b81526004016105b490612d82565b60006060866001600160a01b0316858760405161251e9190612791565b60006040518083038185875af1925050503d806000811461255b576040519150601f19603f3d011682016040523d82523d6000602084013e612560565b606091505b509150915081156125745791506124d29050565b8051156125845780518082602001fd5b8360405162461bcd60e51b81526004016105b4919061294d565b3b151590565b6000602082840312156125b5578081fd5b8135611d4781612f61565b6000602082840312156125d1578081fd5b8151611d4781612f61565b600080604083850312156125ee578081fd5b82356125f981612f61565b946020939093013593505050565b600060208284031215612618578081fd5b81518015158114611d47578182fd5b600060208284031215612638578081fd5b815167ffffffffffffffff8082111561264f578283fd5b818401915084601f830112612662578283fd5b815181811115612670578384fd5b604051601f8201601f191681016020018381118282101715612690578586fd5b6040528181528382016020018710156126a7578485fd5b6126b8826020830160208701612f35565b9695505050505050565b6000602082840312156126d3578081fd5b5035919050565b6000602082840312156126eb578081fd5b5051919050565b60008060408385031215612704578182fd5b82359150602083013561271681612f61565b809150509250929050565b60008060408385031215612733578182fd5b50508035926020909101359150565b60008060408385031215612754578182fd5b505080516020909101519092909150565b6000815180845261277d816020860160208601612f35565b601f01601f19169290920160200192915050565b600082516127a3818460208701612f35565b9190910192915050565b600061647560f01b825283516127ca816002850160208801612f35565b602d60f81b60029184019182015283516127eb816003840160208801612f35565b01600301949350505050565b60006d44534c412d50524f56494445522d60901b8252835161282081600e850160208801612f35565b602d60f81b600e91840191820152835161284181600f840160208801612f35565b01600f01949350505050565b600061064760f41b825283516127ca816002850160208801612f35565b60006944534c412d555345522d60b01b8252835161288f81600a850160208801612f35565b602d60f81b600a9184019182015283516128b081600b840160208801612f35565b01600b01949350505050565b6001600160a01b0391909116815260200190565b6001600160a01b03929092168252602082015260400190565b6001600160a01b039384168152919092166020820152604081019190915260600190565b901515815260200190565b90815260200190565b602081016006831061292f57fe5b91905290565b604081016006841061294357fe5b9281526020015290565b600060208252611d476020830184612765565b6000604082526129736040830185612765565b82810360208401526129858185612765565b95945050505050565b602080825260189082015277155cd95c88185b1c9958591e481dda1a5d195b1a5cdd195960421b604082015260600190565b60208082526059908201527f43616e206f6e6c79207769746864726177207374616b6520616674657220746860408201527f652066696e616c20706572696f642069732066696e6973686564206f72206966606082015278081d1a194818dbdb9d1c9858dd081a5cc8189c995858da1959603a1b608082015260a00190565b60208082526026908201527f4f776e61626c653a206e6577206f776e657220697320746865207a65726f206160408201526564647265737360d01b606082015260800190565b6020808252601b908201527f536166654d6174683a206164646974696f6e206f766572666c6f770000000000604082015260600190565b6020808252602d908201527f546f6b656e206e6f7420616c6c6f7765642062792074686520534c415265676960408201526c1cdd1c9e4818dbdb9d1c9858dd609a1b606082015260800190565b60208082526025908201527f4f6e6c79204d657373656e6765722063616e2063616c6c20746869732066756e60408201526431ba34b7b760d91b606082015260800190565b6020808252603a908201527f43616e206f6e6c7920636c61696d206120636f6d70656e736174696f6e20696660408201527f20706f736974696f6e20697320626967676572207468616e2030000000000000606082015260800190565b602080825260179082015276155cd95c881a5cc81b9bdd081dda1a5d195b1a5cdd1959604a1b604082015260600190565b60208082526029908201527f53686f756c64206e6f74207769746864726177206d6f7265207468616e207573604082015268657273207374616b6560b81b606082015260800190565b60208082526024908201527f44534c41206275726e2070726f6365737320776173206e6f74207375636365736040820152631cd99d5b60e21b606082015260800190565b60208082526021908201527f536166654d6174683a206d756c7469706c69636174696f6e206f766572666c6f6040820152607760f81b606082015260800190565b6020808252601490820152731d1bdad95b881a5cc81b9bdd08185b1b1bddd95960621b604082015260600190565b6020808252818101527f4f776e61626c653a2063616c6c6572206973206e6f7420746865206f776e6572604082015260600190565b60208082526028908201527f43616e206f6e6c79207374616b65206f6e206e6f7420627265616368656420636040820152676f6e74726163747360c01b606082015260800190565b602080825260139082015272151bdad95b88185b1c9958591e481859191959606a1b604082015260600190565b6020808252601d908201527f416464726573733a2063616c6c20746f206e6f6e2d636f6e7472616374000000604082015260600190565b6020808252601290820152710616d6f756e742063616e6e6f7420626520360741b604082015260600190565b602080825260149082015273155cd95c881b9bdd081dda1a5d195b1a5cdd195960621b604082015260600190565b60208082526029908201527f43616e6e6f74207374616b65206d6f7265207468616e20534c412070726f7669604082015268646572207374616b6560b81b606082015260800190565b6020808252602a908201527f5361666545524332303a204552433230206f7065726174696f6e20646964206e6040820152691bdd081cdd58d8d9595960b21b606082015260800190565b60208082526025908201527f53686f756c64206e6f742062652063616c6c65642062792074686520534c412060408201526437bbb732b960d91b606082015260800190565b918252602082015260400190565b838152602081018390526060810160038310612f1157fe5b826040830152949350505050565b9283526020830191909152604082015260600190565b60005b83811015612f50578181015183820152602001612f38565b838111156106ef5750506000910152565b6001600160a01b0381168114610f1857600080fdfea26469706673582212205388f8331ca47f221b14ffd1a947693986ac47af6961e508a297fc7020533e6264736f6c634300060c00338be0079c531659141344cd1fd0a4f28419497f9722a3daafe3b4186f6b6457e0a2646970667358221220ca4834fd7c8570ae77c54beaa857ba01217589f45982d0013ab37d0f915bdcaf64736f6c634300060c0033",
  "immutableReferences": {},
  "source": "// SPDX-License-Identifier: MIT\npragma solidity ^0.6.0;\npragma experimental ABIEncoderV2;\n\nimport \"@openzeppelin/contracts/math/SafeMath.sol\";\nimport \"@openzeppelin/contracts/token/ERC20/IERC20.sol\";\nimport \"@openzeppelin/contracts/access/Ownable.sol\";\nimport \"./SLA.sol\";\nimport \"./SLO.sol\";\nimport \"./SLORegistry.sol\";\nimport \"./PeriodRegistry.sol\";\nimport \"./MessengerRegistry.sol\";\nimport \"./StakeRegistry.sol\";\nimport \"./messenger/IMessenger.sol\";\n\n/**\n * @title SLARegistry\n * @dev SLARegistry is a contract for handling creation of service level\n * agreements and keeping track of the created agreements\n */\ncontract SLARegistry is Ownable {\n    using SafeMath for uint256;\n\n    struct LockedValue {\n        uint256 lockedValue;\n        uint256 dslaDepositByPeriod;\n        uint256 dslaPlatformReward;\n        uint256 dslaUserReward;\n        uint256 dslaBurnedByVerification;\n    }\n\n    /// @dev SLO registry\n    SLORegistry public sloRegistry;\n    /// @dev Periods registry\n    PeriodRegistry public periodRegistry;\n    /// @dev Messengers registry\n    MessengerRegistry public messengerRegistry;\n    /// @dev Stake registry\n    StakeRegistry public stakeRegistry;\n    /// @dev stores the addresses of created SLAs\n    SLA[] public SLAs;\n    /// @dev stores the indexes of service level agreements owned by an user\n    mapping(address => uint256[]) private userToSLAIndexes;\n    /// @dev (ownerAddress => slaAddress => LockedValue) stores the locked value by the staker\n    mapping(address => mapping(address => LockedValue))\n        public slaOwnerLockedValue;\n\n    /**\n     * @dev event for service level agreement creation logging\n     * @param sla 1. The address of the created service level agreement contract\n     * @param owner 2. The address of the owner of the service level agreement\n     */\n    event SLACreated(SLA indexed sla, address indexed owner);\n\n    /**\n     * @dev event for service level agreement creation logging\n     * @param sla 1. The address of the created service level agreement contract\n     * @param requester 2. -\n     * @param userReward 3. -\n     * @param platformReward 4. -\n     * @param burnedDSLA 5. -\n     */\n    event SLIRequested(\n        SLA indexed sla,\n        address indexed requester,\n        uint256 userReward,\n        uint256 platformReward,\n        uint256 burnedDSLA\n    );\n\n    /**\n     * @dev constructor\n     * @param _sloRegistry 1. SLO Registry\n     * @param _periodRegistry 2. Periods registry\n     * @param _messengerRegistry 3. Messenger registry\n     * @param _stakeRegistry 4. Stake registry\n     */\n    constructor(\n        SLORegistry _sloRegistry,\n        PeriodRegistry _periodRegistry,\n        MessengerRegistry _messengerRegistry,\n        StakeRegistry _stakeRegistry\n    ) public {\n        sloRegistry = _sloRegistry;\n        periodRegistry = _periodRegistry;\n        stakeRegistry = _stakeRegistry;\n        stakeRegistry.setSLARegistry();\n        messengerRegistry = _messengerRegistry;\n        messengerRegistry.setSLARegistry();\n    }\n\n    /**\n     * @dev public function for creating canonical service level agreements\n     * @param _SLO 1. SLO\n     * @param _ipfsHash 2. string with the ipfs hash that contains extra information about the service level agreement\n     * @param _periodType 3. period type\n     * @param _periodIds 4. array of allowed period ids\n     * @param _messengerAddress 5. address of the messenger for the corresponding SLA\n     * @param _whitelisted 6. bool to declare whitelisted SLA\n     * @param _extraData 7. bytes32 to embed extra data for customized workflows\n     */\n    function createSLA(\n        SLO _SLO,\n        string memory _ipfsHash,\n        PeriodRegistry.PeriodType _periodType,\n        uint256[] calldata _periodIds,\n        address _messengerAddress,\n        bool _whitelisted,\n        bytes32[] memory _extraData\n    ) public {\n        bool initialized = periodRegistry.periodDefinitions(_periodType);\n        require(initialized == true, \"Period type is not initialized yet\");\n        require(\n            sloRegistry.isRegisteredSLO(address(_SLO)) == true,\n            \"SLO not registered on SLORegistry\"\n        );\n        require(_periodIds.length > 0, \"Periods information is empty\");\n        // check if _periodIds are valid and sorted in ascendant order\n        for (uint256 index = 0; index < _periodIds.length; index++) {\n            bool validPeriod =\n                periodRegistry.isValidPeriod(_periodType, _periodIds[index]);\n            require(validPeriod, \"Period id not valid\");\n            if (index < _periodIds.length - 1) {\n                require(\n                    _periodIds[index] < _periodIds[index + 1],\n                    \"Period ids should be sorted \"\n                );\n                require(\n                    _periodIds[index + 1].sub(_periodIds[index]) == 1,\n                    \"Period ids should be consecutive\"\n                );\n            }\n        }\n        bool registeredMessenger =\n            messengerRegistry.registeredMessengers(_messengerAddress);\n        require(\n            registeredMessenger == true,\n            \"messenger address is not registered\"\n        );\n\n        SLA sla =\n            new SLA(\n                msg.sender,\n                _SLO,\n                _ipfsHash,\n                _messengerAddress,\n                _periodIds,\n                _periodType,\n                address(stakeRegistry),\n                address(periodRegistry),\n                _whitelisted,\n                _extraData,\n                SLAs.length\n            );\n\n        (\n            ,\n            uint256 dslaDepositByPeriod,\n            uint256 dslaPlatformReward,\n            uint256 dslaUserReward,\n            uint256 dslaBurnedByVerification\n        ) = stakeRegistry.getStakingParameters();\n        uint256 lockedValue = dslaDepositByPeriod.mul(_periodIds.length);\n        IERC20(stakeRegistry.DSLATokenAddress()).transferFrom(\n            msg.sender,\n            address(this),\n            lockedValue\n        );\n        slaOwnerLockedValue[msg.sender][address(sla)] = LockedValue({\n            lockedValue: lockedValue,\n            dslaDepositByPeriod: dslaDepositByPeriod,\n            dslaPlatformReward: dslaPlatformReward,\n            dslaUserReward: dslaUserReward,\n            dslaBurnedByVerification: dslaBurnedByVerification\n        });\n        SLAs.push(sla);\n        uint256 index = SLAs.length.sub(1);\n        userToSLAIndexes[msg.sender].push(index);\n        emit SLACreated(sla, msg.sender);\n    }\n\n    /**\n     * @dev Gets SLI information for the specified SLA and SLO\n     * @param _periodId 1. id of the period\n     * @param _sla 2. SLA Address\n     */\n    function requestSLI(uint256 _periodId, SLA _sla) public {\n        require(\n            _periodId == _sla.nextVerifiablePeriod(),\n            \"Should only verify next period\"\n        );\n        (, , SLA.Status status) = _sla.periodSLIs(_periodId);\n        require(\n            status == SLA.Status.NotVerified,\n            \"SLA contract was already verified for the period\"\n        );\n        bool breachedContract = _sla.breachedContract();\n        require(\n            breachedContract == false,\n            \"Should only be called for not breached contracts\"\n        );\n        bool slaAllowedPeriodId = _sla.isAllowedPeriod(_periodId);\n        require(\n            slaAllowedPeriodId == true,\n            \"Period ID not registered in the SLA contract\"\n        );\n        PeriodRegistry.PeriodType slaPeriodType = _sla.periodType();\n        bool periodFinished =\n            periodRegistry.periodIsFinished(slaPeriodType, _periodId);\n        require(\n            periodFinished == true,\n            \"SLA contract period has not finished yet\"\n        );\n        address slaMessenger = _sla.messengerAddress();\n        IMessenger(slaMessenger).requestSLI(_periodId, address(_sla));\n        LockedValue storage _lockedValue =\n            slaOwnerLockedValue[_sla.owner()][address(_sla)];\n        IERC20(stakeRegistry.DSLATokenAddress()).transfer(\n            msg.sender,\n            _lockedValue.dslaUserReward\n        );\n        IERC20(stakeRegistry.DSLATokenAddress()).transfer(\n            owner(),\n            _lockedValue.dslaPlatformReward\n        );\n        _burnDSLATokens(_lockedValue.dslaBurnedByVerification);\n        _lockedValue.lockedValue = _lockedValue.lockedValue.sub(\n            _lockedValue.dslaDepositByPeriod\n        );\n        emit SLIRequested(\n            _sla,\n            msg.sender,\n            _lockedValue.dslaUserReward,\n            _lockedValue.dslaPlatformReward,\n            _lockedValue.dslaBurnedByVerification\n        );\n    }\n\n    function _burnDSLATokens(uint256 _amount) internal {\n        bytes4 BURN_SELECTOR = bytes4(keccak256(bytes(\"burn(uint256)\")));\n        (bool _success, ) =\n            stakeRegistry.DSLATokenAddress().call(\n                abi.encodeWithSelector(BURN_SELECTOR, _amount)\n            );\n        require(_success, \"DSLA burn process was not successful\");\n    }\n\n    function withdrawLockedValue(SLA _sla) public {\n        require(\n            msg.sender == _sla.owner(),\n            \"Only SLA owner can withdraw locked value\"\n        );\n        uint256 periodIdsLength = _sla.getPeriodIdsLength();\n        uint256 lastValidPeriodId = _sla.periodIds(periodIdsLength - 1);\n        PeriodRegistry.PeriodType periodType = _sla.periodType();\n        (, uint256 endOfLastValidPeriod) =\n            periodRegistry.getPeriodStartAndEnd(periodType, lastValidPeriodId);\n\n        (, , SLA.Status lastPeriodStatus) = _sla.periodSLIs(lastValidPeriodId);\n        require(\n            _sla.breachedContract() == true ||\n                (block.timestamp >= endOfLastValidPeriod &&\n                    lastPeriodStatus != SLA.Status.NotVerified),\n            \"Can only withdraw locked DSLA after the final period is verified or if the contract is breached\"\n        );\n        uint256 leftBalance =\n            slaOwnerLockedValue[msg.sender][address(_sla)].lockedValue;\n        require(leftBalance > 0, \"locked value is empty \");\n        IERC20(stakeRegistry.DSLATokenAddress()).transfer(\n            msg.sender,\n            leftBalance\n        );\n    }\n\n    /**\n     * @dev function to declare this SLARegistry contract as SLARegistry of _messengerAddress\n     * @param _messengerAddress 1. address of the messenger\n     */\n\n    function setMessengerSLARegistryAddress(address _messengerAddress) public {\n        IMessenger(_messengerAddress).setSLARegistry();\n        messengerRegistry.registerMessenger(_messengerAddress, msg.sender);\n    }\n\n    /**\n     * @dev public view function that returns the service level agreements that\n     * the given user is the owner of\n     * @param _user Address of the user for which to return the service level\n     * agreements\n     * @return array of SLAs\n     */\n    function userSLAs(address _user) public view returns (SLA[] memory) {\n        uint256 count = userSLACount(_user);\n        SLA[] memory SLAList = new SLA[](count);\n        uint256[] memory userSLAIndexes = userToSLAIndexes[_user];\n\n        for (uint256 i = 0; i < count; i++) {\n            SLAList[i] = (SLAs[userSLAIndexes[i]]);\n        }\n\n        return (SLAList);\n    }\n\n    /**\n     * @dev public view function that returns the amount of service level\n     * agreements the given user is the owner of\n     * @param _user 1. address of the user for which to return the amount of\n     * service level agreements\n     * @return uint256 corresponding to the amount of user's SLAs\n     */\n    function userSLACount(address _user) public view returns (uint256) {\n        return userToSLAIndexes[_user].length;\n    }\n\n    /**\n     * @dev public view function that returns all the service level agreements\n     * @return SLA[] array of SLAs\n     */\n    function allSLAs() public view returns (SLA[] memory) {\n        return (SLAs);\n    }\n\n    /**\n     * @dev public view function that returns the total amount of service\n     * level agreements\n     * @return uint256, the length of SLA array\n     */\n    function SLACount() public view returns (uint256) {\n        return SLAs.length;\n    }\n\n    /**\n     * @dev public view function that returns true if _slaAddress was deployed using this SLARegistry\n     * @param _slaAddress address of the SLA to be checked\n     */\n    function isRegisteredSLA(address _slaAddress) public view returns (bool) {\n        for (uint256 index = 0; index < SLAs.length; index++) {\n            if (address(SLAs[index]) == _slaAddress) {\n                return true;\n            }\n        }\n        return false;\n    }\n}\n",
  "sourcePath": "/Users/matiasbn/Desktop/stacktical/stacktical-dsla-contracts/contracts/SLARegistry.sol",
  "compiler": {
    "name": "solc",
    "version": "0.6.12+commit.27d51765.Emscripten.clang"
  },
  "schemaVersion": "3.3.3",
  "updatedAt": "2021-03-08T02:37:40.783Z",
  "devdoc": {
    "details": "SLARegistry is a contract for handling creation of service level agreements and keeping track of the created agreements",
    "events": {
      "SLACreated(address,address)": {
        "details": "event for service level agreement creation logging",
        "params": {
          "owner": "2. The address of the owner of the service level agreement",
          "sla": "1. The address of the created service level agreement contract"
        }
      },
      "SLIRequested(address,address,uint256,uint256,uint256)": {
        "details": "event for service level agreement creation logging",
        "params": {
          "burnedDSLA": "5. -",
          "platformReward": "4. -",
          "requester": "2. -",
          "sla": "1. The address of the created service level agreement contract",
          "userReward": "3. -"
        }
      }
    },
    "kind": "dev",
    "methods": {
      "SLACount()": {
        "details": "public view function that returns the total amount of service level agreements",
        "returns": {
          "_0": "uint256, the length of SLA array"
        }
      },
      "allSLAs()": {
        "details": "public view function that returns all the service level agreements",
        "returns": {
          "_0": "SLA[] array of SLAs"
        }
      },
      "constructor": {
        "details": "constructor",
        "params": {
          "_messengerRegistry": "3. Messenger registry",
          "_periodRegistry": "2. Periods registry",
          "_sloRegistry": "1. SLO Registry",
          "_stakeRegistry": "4. Stake registry"
        }
      },
      "createSLA(address,string,uint8,uint256[],address,bool,bytes32[])": {
        "details": "public function for creating canonical service level agreements",
        "params": {
          "_SLO": "1. SLO",
          "_extraData": "7. bytes32 to embed extra data for customized workflows",
          "_ipfsHash": "2. string with the ipfs hash that contains extra information about the service level agreement",
          "_messengerAddress": "5. address of the messenger for the corresponding SLA",
          "_periodIds": "4. array of allowed period ids",
          "_periodType": "3. period type",
          "_whitelisted": "6. bool to declare whitelisted SLA"
        }
      },
      "isRegisteredSLA(address)": {
        "details": "public view function that returns true if _slaAddress was deployed using this SLARegistry",
        "params": {
          "_slaAddress": "address of the SLA to be checked"
        }
      },
      "owner()": {
        "details": "Returns the address of the current owner."
      },
      "renounceOwnership()": {
        "details": "Leaves the contract without owner. It will not be possible to call `onlyOwner` functions anymore. Can only be called by the current owner. NOTE: Renouncing ownership will leave the contract without an owner, thereby removing any functionality that is only available to the owner."
      },
      "requestSLI(uint256,address)": {
        "details": "Gets SLI information for the specified SLA and SLO",
        "params": {
          "_periodId": "1. id of the period",
          "_sla": "2. SLA Address"
        }
      },
      "setMessengerSLARegistryAddress(address)": {
        "details": "function to declare this SLARegistry contract as SLARegistry of _messengerAddress",
        "params": {
          "_messengerAddress": "1. address of the messenger"
        }
      },
      "transferOwnership(address)": {
        "details": "Transfers ownership of the contract to a new account (`newOwner`). Can only be called by the current owner."
      },
      "userSLACount(address)": {
        "details": "public view function that returns the amount of service level agreements the given user is the owner of",
        "params": {
          "_user": "1. address of the user for which to return the amount of service level agreements"
        },
        "returns": {
          "_0": "uint256 corresponding to the amount of user's SLAs"
        }
      },
      "userSLAs(address)": {
        "details": "public view function that returns the service level agreements that the given user is the owner of",
        "params": {
          "_user": "Address of the user for which to return the service level agreements"
        },
        "returns": {
          "_0": "array of SLAs"
        }
      }
    },
    "stateVariables": {
      "SLAs": {
        "details": "stores the addresses of created SLAs"
      },
      "messengerRegistry": {
        "details": "Messengers registry"
      },
      "periodRegistry": {
        "details": "Periods registry"
      },
      "slaOwnerLockedValue": {
        "details": "(ownerAddress => slaAddress => LockedValue) stores the locked value by the staker"
      },
      "sloRegistry": {
        "details": "SLO registry"
      },
      "stakeRegistry": {
        "details": "Stake registry"
      },
      "userToSLAIndexes": {
        "details": "stores the indexes of service level agreements owned by an user"
      }
    },
    "title": "SLARegistry",
    "version": 1
  },
  "userdoc": {
    "kind": "user",
    "methods": {},
    "version": 1
  }
}