{
  "contractName": "SLARegistry",
  "abi": [
    {
      "inputs": [
        {
          "internalType": "contract SLORegistry",
          "name": "_sloRegistry",
          "type": "address"
        },
        {
          "internalType": "contract PeriodRegistry",
          "name": "_periodRegistry",
          "type": "address"
        },
        {
          "internalType": "contract MessengerRegistry",
          "name": "_messengerRegistry",
          "type": "address"
        },
        {
          "internalType": "contract StakeRegistry",
          "name": "_stakeRegistry",
          "type": "address"
        }
      ],
      "stateMutability": "nonpayable",
      "type": "constructor"
    },
    {
      "anonymous": false,
      "inputs": [
        {
          "indexed": true,
          "internalType": "address",
          "name": "previousOwner",
          "type": "address"
        },
        {
          "indexed": true,
          "internalType": "address",
          "name": "newOwner",
          "type": "address"
        }
      ],
      "name": "OwnershipTransferred",
      "type": "event"
    },
    {
      "anonymous": false,
      "inputs": [
        {
          "indexed": true,
          "internalType": "contract SLA",
          "name": "sla",
          "type": "address"
        },
        {
          "indexed": true,
          "internalType": "address",
          "name": "owner",
          "type": "address"
        }
      ],
      "name": "SLACreated",
      "type": "event"
    },
    {
      "inputs": [
        {
          "internalType": "uint256",
          "name": "",
          "type": "uint256"
        }
      ],
      "name": "SLAs",
      "outputs": [
        {
          "internalType": "contract SLA",
          "name": "",
          "type": "address"
        }
      ],
      "stateMutability": "view",
      "type": "function",
      "constant": true
    },
    {
      "inputs": [],
      "name": "messengerRegistry",
      "outputs": [
        {
          "internalType": "contract MessengerRegistry",
          "name": "",
          "type": "address"
        }
      ],
      "stateMutability": "view",
      "type": "function",
      "constant": true
    },
    {
      "inputs": [],
      "name": "owner",
      "outputs": [
        {
          "internalType": "address",
          "name": "",
          "type": "address"
        }
      ],
      "stateMutability": "view",
      "type": "function",
      "constant": true
    },
    {
      "inputs": [],
      "name": "periodRegistry",
      "outputs": [
        {
          "internalType": "contract PeriodRegistry",
          "name": "",
          "type": "address"
        }
      ],
      "stateMutability": "view",
      "type": "function",
      "constant": true
    },
    {
      "inputs": [],
      "name": "renounceOwnership",
      "outputs": [],
      "stateMutability": "nonpayable",
      "type": "function"
    },
    {
      "inputs": [],
      "name": "sloRegistry",
      "outputs": [
        {
          "internalType": "contract SLORegistry",
          "name": "",
          "type": "address"
        }
      ],
      "stateMutability": "view",
      "type": "function",
      "constant": true
    },
    {
      "inputs": [],
      "name": "stakeRegistry",
      "outputs": [
        {
          "internalType": "contract StakeRegistry",
          "name": "",
          "type": "address"
        }
      ],
      "stateMutability": "view",
      "type": "function",
      "constant": true
    },
    {
      "inputs": [
        {
          "internalType": "address",
          "name": "newOwner",
          "type": "address"
        }
      ],
      "name": "transferOwnership",
      "outputs": [],
      "stateMutability": "nonpayable",
      "type": "function"
    },
    {
      "inputs": [
        {
          "internalType": "contract SLO",
          "name": "_SLO",
          "type": "address"
        },
        {
          "internalType": "string",
          "name": "_ipfsHash",
          "type": "string"
        },
        {
          "internalType": "enum PeriodRegistry.PeriodType",
          "name": "_periodType",
          "type": "uint8"
        },
        {
          "internalType": "uint256[]",
          "name": "_periodIds",
          "type": "uint256[]"
        },
        {
          "internalType": "address",
          "name": "_messengerAddress",
          "type": "address"
        },
        {
          "internalType": "bool",
          "name": "_whitelisted",
          "type": "bool"
        },
        {
          "internalType": "bytes32[]",
          "name": "_extraData",
          "type": "bytes32[]"
        }
      ],
      "name": "createSLA",
      "outputs": [],
      "stateMutability": "nonpayable",
      "type": "function"
    },
    {
      "inputs": [
        {
          "internalType": "uint256",
          "name": "_periodId",
          "type": "uint256"
        },
        {
          "internalType": "contract SLA",
          "name": "_sla",
          "type": "address"
        }
      ],
      "name": "requestSLI",
      "outputs": [],
      "stateMutability": "nonpayable",
      "type": "function"
    },
    {
      "inputs": [
        {
          "internalType": "address",
          "name": "_messengerAddress",
          "type": "address"
        }
      ],
      "name": "setMessengerSLARegistryAddress",
      "outputs": [],
      "stateMutability": "nonpayable",
      "type": "function"
    },
    {
      "inputs": [
        {
          "internalType": "address",
          "name": "_user",
          "type": "address"
        }
      ],
      "name": "userSLAs",
      "outputs": [
        {
          "internalType": "contract SLA[]",
          "name": "",
          "type": "address[]"
        }
      ],
      "stateMutability": "view",
      "type": "function",
      "constant": true
    },
    {
      "inputs": [
        {
          "internalType": "address",
          "name": "_user",
          "type": "address"
        }
      ],
      "name": "userSLACount",
      "outputs": [
        {
          "internalType": "uint256",
          "name": "",
          "type": "uint256"
        }
      ],
      "stateMutability": "view",
      "type": "function",
      "constant": true
    },
    {
      "inputs": [],
      "name": "allSLAs",
      "outputs": [
        {
          "internalType": "contract SLA[]",
          "name": "",
          "type": "address[]"
        }
      ],
      "stateMutability": "view",
      "type": "function",
      "constant": true
    },
    {
      "inputs": [],
      "name": "SLACount",
      "outputs": [
        {
          "internalType": "uint256",
          "name": "",
          "type": "uint256"
        }
      ],
      "stateMutability": "view",
      "type": "function",
      "constant": true
    },
    {
      "inputs": [
        {
          "internalType": "address",
          "name": "_slaAddress",
          "type": "address"
        }
      ],
      "name": "isRegisteredSLA",
      "outputs": [
        {
          "internalType": "bool",
          "name": "",
          "type": "bool"
        }
      ],
      "stateMutability": "view",
      "type": "function",
      "constant": true
    }
  ],
  "bytecode": "0x60806040523480156200001157600080fd5b50604051620051aa380380620051aa833981016040819052620000349162000132565b6000620000406200012e565b600080546001600160a01b0319166001600160a01b0383169081178255604051929350917f8be0079c531659141344cd1fd0a4f28419497f9722a3daafe3b4186f6b6457e0908290a350600180546001600160a01b03199081166001600160a01b03878116919091179092556002805482168684161790556004805482168484161781556003805490921685841617918290556040805163f388158960e01b81529051929093169263f3881589928183019260009282900301818387803b1580156200010b57600080fd5b505af115801562000120573d6000803e3d6000fd5b5050505050505050620001b2565b3390565b6000806000806080858703121562000148578384fd5b8451620001558162000199565b6020860151909450620001688162000199565b60408601519093506200017b8162000199565b60608601519092506200018e8162000199565b939692955090935050565b6001600160a01b0381168114620001af57600080fd5b50565b614fe880620001c26000396000f3fe60806040523480156200001157600080fd5b5060043610620000f45760003560e01c80638da5cb5b11620000935780638da5cb5b14620001a857806396bddc1014620001b25780639fc4caa514620001bc578063c4277a7b14620001c6578063d199440814620001ec578063e9b1e98c1462000203578063ec9176ba146200021a578063f2fde38b146200023157620000f4565b806350c5abfe14620000f9578063516c285714620001285780635a7d1e5d146200014e5780635c4df33214620001585780636435dc9c146200016257806368304835146200017b578063715018a61462000185578063816ff986146200018f575b600080fd5b620001106200010a366004620012e2565b62000248565b6040516200011f91906200143d565b60405180910390f35b6200013f6200013936600462001128565b62000270565b6040516200011f919062001545565b62000110620003ba565b62000110620003c9565b620001796200017336600462001128565b620003d8565b005b6200011062000498565b62000179620004a7565b6200019962000534565b6040516200011f9190620018f2565b620001106200053a565b6200013f62000549565b62000110620005ad565b620001dd620001d736600462001128565b620005bc565b6040516200011f919062001594565b62000179620001fd3660046200132d565b6200061c565b620001996200021436600462001128565b62000a35565b620001796200022b3660046200118c565b62000a50565b620001796200024236600462001128565b62000ee2565b600581815481106200025657fe5b6000918252602090912001546001600160a01b0316905081565b606060006200027f8362000a35565b905060608167ffffffffffffffff811180156200029b57600080fd5b50604051908082528060200260200182016040528015620002c6578160200160208202803683370190505b506001600160a01b038516600090815260066020908152604091829020805483518184028101840190945280845293945060609390918301828280156200032d57602002820191906000526020600020905b81548152602001906001019080831162000318575b5050505050905060005b83811015620003ae5760058282815181106200034f57fe5b6020026020010151815481106200036257fe5b9060005260206000200160009054906101000a90046001600160a01b03168382815181106200038d57fe5b6001600160a01b039092166020928302919091019091015260010162000337565b5090925050505b919050565b6001546001600160a01b031681565b6003546001600160a01b031681565b806001600160a01b031663f38815896040518163ffffffff1660e01b8152600401600060405180830381600087803b1580156200041457600080fd5b505af115801562000429573d6000803e3d6000fd5b50506003546040516319d71f1f60e31b81526001600160a01b03909116925063ceb8f8f891506200046190849033906004016200152b565b600060405180830381600087803b1580156200047c57600080fd5b505af115801562000491573d6000803e3d6000fd5b5050505050565b6004546001600160a01b031681565b620004b162000fa0565b6000546001600160a01b03908116911614620004ea5760405162461bcd60e51b8152600401620004e190620017f8565b60405180910390fd5b600080546040516001600160a01b03909116907f8be0079c531659141344cd1fd0a4f28419497f9722a3daafe3b4186f6b6457e0908390a3600080546001600160a01b0319169055565b60055490565b6000546001600160a01b031690565b60606005805480602002602001604051908101604052809291908181526020018280548015620005a357602002820191906000526020600020905b81546001600160a01b0316815260019091019060200180831162000584575b5050505050905090565b6002546001600160a01b031681565b6000805b6005548110156200061357826001600160a01b031660058281548110620005e357fe5b6000918252602090912001546001600160a01b031614156200060a576001915050620003b5565b600101620005c0565b50600092915050565b6000816001600160a01b0316637fd788aa6040518163ffffffff1660e01b815260040160206040518083038186803b1580156200065857600080fd5b505afa1580156200066d573d6000803e3d6000fd5b505050506040513d601f19601f820116820180604052508101906200069391906200116d565b90506000826001600160a01b0316639ab4438f856040518263ffffffff1660e01b8152600401620006c59190620018f2565b60606040518083038186803b158015620006de57600080fd5b505afa158015620006f3573d6000803e3d6000fd5b505050506040513d601f19601f8201168201806040525081019062000719919062001354565b925060009150620007279050565b8160028111156200073457fe5b14620007545760405162461bcd60e51b8152600401620004e190620016d9565b8115620007755760405162461bcd60e51b8152600401620004e190620017a8565b60405163021eef7f60e01b81526000906001600160a01b0385169063021eef7f90620007a6908890600401620018f2565b60206040518083038186803b158015620007bf57600080fd5b505afa158015620007d4573d6000803e3d6000fd5b505050506040513d601f19601f82011682018060405250810190620007fa91906200116d565b9050600181151514620008215760405162461bcd60e51b8152600401620004e1906200186f565b6000846001600160a01b03166346e0fbae6040518163ffffffff1660e01b815260040160206040518083038186803b1580156200085d57600080fd5b505afa15801562000872573d6000803e3d6000fd5b505050506040513d601f19601f82011682018060405250810190620008989190620012c3565b6002546040516331edb3ad60e21b81529192506000916001600160a01b039091169063c7b6ceb490620008d29085908b90600401620015b4565b60206040518083038186803b158015620008eb57600080fd5b505afa15801562000900573d6000803e3d6000fd5b505050506040513d601f19601f820116820180604052508101906200092691906200116d565b90506001811515146200094d5760405162461bcd60e51b8152600401620004e19062001729565b6000866001600160a01b031663a224ee9c6040518163ffffffff1660e01b815260040160206040518083038186803b1580156200098957600080fd5b505afa1580156200099e573d6000803e3d6000fd5b505050506040513d601f19601f82011682018060405250810190620009c491906200114e565b604051631a33288160e31b81529091506001600160a01b0382169063d199440890620009f7908b908b90600401620018fb565b600060405180830381600087803b15801562000a1257600080fd5b505af115801562000a27573d6000803e3d6000fd5b505050505050505050505050565b6001600160a01b031660009081526006602052604090205490565b600254604051635c98d15760e01b81526000916001600160a01b031690635c98d1579062000a83908a906004016200159f565b604080518083038186803b15801562000a9b57600080fd5b505afa15801562000ab0573d6000803e3d6000fd5b505050506040513d601f19601f8201168201806040525081019062000ad69190620012fb565b91505060018115151462000afe5760405162461bcd60e51b8152600401620004e1906200182d565b600154604051636891286d60e11b81526001600160a01b039091169063d12250da9062000b30908c906004016200143d565b60206040518083038186803b15801562000b4957600080fd5b505afa15801562000b5e573d6000803e3d6000fd5b505050506040513d601f19601f8201168201806040525081019062000b8491906200116d565b151560011462000ba85760405162461bcd60e51b8152600401620004e19062001625565b8462000bc85760405162461bcd60e51b8152600401620004e19062001771565b60005b8581101562000cf4576002546000906001600160a01b031663ddfc4fde8a8a8a8681811062000bf657fe5b905060200201356040518363ffffffff1660e01b815260040162000c1c929190620015b4565b60206040518083038186803b15801562000c3557600080fd5b505afa15801562000c4a573d6000803e3d6000fd5b505050506040513d601f19601f8201168201806040525081019062000c7091906200116d565b90508062000c925760405162461bcd60e51b8152600401620004e19062001666565b600019870182101562000cea5787878360010181811062000caf57fe5b9050602002013588888481811062000cc357fe5b905060200201351062000cea5760405162461bcd60e51b8152600401620004e190620018bb565b5060010162000bcb565b5060035460405163ef4003db60e01b81526000916001600160a01b03169063ef4003db9062000d289088906004016200143d565b60206040518083038186803b15801562000d4157600080fd5b505afa15801562000d56573d6000803e3d6000fd5b505050506040513d601f19601f8201168201806040525081019062000d7c91906200116d565b905060018115151462000da35760405162461bcd60e51b8152600401620004e190620015e2565b6000338b8b888b8b8e600460009054906101000a90046001600160a01b0316600260009054906101000a90046001600160a01b03168d8d60405162000de89062001020565b62000dfe9b9a9998979695949392919062001451565b604051809103906000f08015801562000e1b573d6000803e3d6000fd5b50600580546001808201835560008381527f036b6384b5eca791c62761152d0c79bb0604c104a5fb6f4eb0703f3154bb3db090920180546001600160a01b0319166001600160a01b03861617905591549293509162000e7a9162000fa4565b33600081815260066020908152604080832080546001810182559084529183209091018490555192935090916001600160a01b038516917fb52f284a6c14f1a66ab5513b5b539066933e58e69e6432666f0e3c8c8a7d750391a3505050505050505050505050565b62000eec62000fa0565b6000546001600160a01b0390811691161462000f1c5760405162461bcd60e51b8152600401620004e190620017f8565b6001600160a01b03811662000f455760405162461bcd60e51b8152600401620004e19062001693565b600080546040516001600160a01b03808516939216917f8be0079c531659141344cd1fd0a4f28419497f9722a3daafe3b4186f6b6457e091a3600080546001600160a01b0319166001600160a01b0392909216919091179055565b3390565b600062000fe883836040518060400160405280601e81526020017f536166654d6174683a207375627472616374696f6e206f766572666c6f77000081525062000ff1565b90505b92915050565b60008184841115620010185760405162461bcd60e51b8152600401620004e19190620015cd565b505050900390565b61362b806200198883390190565b803562000feb8162001954565b600082601f8301126200104c578081fd5b813567ffffffffffffffff81111562001063578182fd5b60208082026200107582820162001912565b838152935081840185830182870184018810156200109257600080fd5b600092505b84831015620010b757803582526001929092019190830190830162001097565b505050505092915050565b60008083601f840112620010d4578081fd5b50813567ffffffffffffffff811115620010ec578182fd5b60208301915083602080830285010111156200110757600080fd5b9250929050565b803562000feb816200196a565b803562000feb8162001979565b6000602082840312156200113a578081fd5b8135620011478162001954565b9392505050565b60006020828403121562001160578081fd5b8151620011478162001954565b6000602082840312156200117f578081fd5b815162001147816200196a565b60008060008060008060008060e0898b031215620011a8578384fd5b8835620011b58162001954565b975060208981013567ffffffffffffffff80821115620011d3578687fd5b818c0191508c601f830112620011e7578687fd5b813581811115620011f6578788fd5b6200120a601f8201601f1916850162001912565b8181528e858386010111156200121e578889fd5b8185850186830137908101840188905299506200123f8d60408e016200111b565b985060608c013592508083111562001255578687fd5b620012638d848e01620010c2565b935091508197508296506200127c8d60808e016200102e565b95506200128d8d60a08e016200110e565b945060c08c0135925080831115620012a3578384fd5b5050620012b38b828c016200103b565b9150509295985092959890939650565b600060208284031215620012d5578081fd5b8151620011478162001979565b600060208284031215620012f4578081fd5b5035919050565b600080604083850312156200130e578182fd5b82519150602083015162001322816200196a565b809150509250929050565b6000806040838503121562001340578182fd5b823591506020830135620013228162001954565b60008060006060848603121562001369578283fd5b835192506020840151915060408401516003811062001386578182fd5b809150509250925092565b6001600160a01b03169052565b6000815180845260208085019450808401835b83811015620013cf57815187529582019590820190600101620013b1565b509495945050505050565b15159052565b620013eb8162001946565b9052565b60008151808452815b818110156200141657602081850181015186830182015201620013f8565b81811115620014285782602083870101525b50601f01601f19169290920160200192915050565b6001600160a01b0391909116815260200190565b6001600160a01b038c811682528b8116602083015261014060408301819052600091620014818483018e620013ef565b908c166060850152838103608085015290506200149f8982620018f2565b90506001600160fb1b03891115620014b5578182fd5b60208902620014c681838d6200193a565b01620014d660a0840189620013e0565b620014e560c084018862001391565b620014f460e084018762001391565b62001504610100840186620013da565b8281036101208401526200151981856200139e565b9e9d5050505050505050505050505050565b6001600160a01b0392831681529116602082015260400190565b6020808252825182820181905260009190848201906040850190845b81811015620015885783516001600160a01b03168352928401929184019160010162001561565b50909695505050505050565b901515815260200190565b6020810160068310620015ae57fe5b91905290565b60408101620015c38462001946565b9281526020015290565b60006020825262000fe86020830184620013ef565b60208082526023908201527f6d657373656e6765722061646472657373206973206e6f7420726567697374656040820152621c995960ea1b606082015260800190565b60208082526021908201527f534c4f206e6f742072656769737465726564206f6e20534c4f526567697374726040820152607960f81b606082015260800190565b60208082526013908201527214195c9a5bd9081a59081b9bdd081d985b1a59606a1b604082015260600190565b60208082526026908201527f4f776e61626c653a206e6577206f776e657220697320746865207a65726f206160408201526564647265737360d01b606082015260800190565b60208082526030908201527f534c4120636f6e74726163742077617320616c7265616479207665726966696560408201526f1908199bdc881d1a19481c195c9a5bd960821b606082015260800190565b60208082526028908201527f534c4120636f6e747261637420706572696f6420686173206e6f742066696e696040820152671cda1959081e595d60c21b606082015260800190565b6020808252601c908201527f506572696f647320696e666f726d6174696f6e20697320656d70747900000000604082015260600190565b60208082526030908201527f53686f756c64206f6e6c792062652063616c6c656420666f72206e6f7420627260408201526f65616368656420636f6e74726163747360801b606082015260800190565b6020808252818101527f4f776e61626c653a2063616c6c6572206973206e6f7420746865206f776e6572604082015260600190565b60208082526022908201527f506572696f642074797065206973206e6f7420696e697469616c697a65642079604082015261195d60f21b606082015260800190565b6020808252602c908201527f506572696f64204944206e6f74207265676973746572656420696e207468652060408201526b14d3104818dbdb9d1c9858dd60a21b606082015260800190565b6020808252601c908201527f506572696f64206964732073686f756c6420626520736f727465642000000000604082015260600190565b90815260200190565b9182526001600160a01b0316602082015260400190565b60405181810167ffffffffffffffff811182821017156200193257600080fd5b604052919050565b82818337506000910152565b600681106200195157fe5b50565b6001600160a01b03811681146200195157600080fd5b80151581146200195157600080fd5b600681106200195157600080fdfe6080604052601d805460ff191690553480156200001b57600080fd5b506040516200362b3803806200362b8339810160408190526200003e91620007ad565b8383868851856000620000566200042160201b60201c565b600080546001600160a01b0319166001600160a01b0383169081178255604051929350916000805160206200360b833981519152908290a350600180546001600160a01b038088166001600160a01b0319928316178355600280549188169190921617905560108054859260ff1990911690836005811115620000d557fe5b021790555060118290556012805460ff191682151517905560015460408051637b8041cf60e11b815290516000928392839283926001600160a01b03169163f700839e916004808301926080929190829003018186803b1580156200013957600080fd5b505afa1580156200014e573d6000803e3d6000fd5b505050506040513d601f19601f82011682018060405250810190620001749190620008fc565b600254604051635c98d15760e01b815294985092965090945092506000916001600160a01b0390911690635c98d15790620001b4908b9060040162000932565b604080518083038186803b158015620001cc57600080fd5b505afa158015620001e1573d6000803e3d6000fd5b505050506040513d601f19601f82011682018060405250810190620002079190620008c7565b50600f81905560015460408051638b8e530960e01b815290519293506001600160a01b0390911691638b8e530991600480820192602092909190829003018186803b1580156200025657600080fd5b505afa1580156200026b573d6000803e3d6000fd5b505050506040513d601f19601f8201168201806040525081019062000291919062000787565b600980546001600160a01b0319166001600160a01b0392909216919091179055600b859055600c849055600d839055600e829055620002d03362000425565b600a600960009054906101000a90046001600160a01b03169080600181540180825580915050600190039060005260206000200160009091909190916101000a8154816001600160a01b0302191690836001600160a01b0316021790555050505050505050505050620003498a620004c860201b60201c565b87516200035e9060159060208b019062000575565b50601980546001600160a01b03808a166001600160a01b03199283161790925560188054909116331790556016805491851661010002610100600160a81b031990921691909117905543601b558551620003c0906017906020890190620005fa565b506016805486919060ff19166001836005811115620003db57fe5b0217905550601480546001600160a01b0319166001600160a01b038b1617905580516200041090601c906020840190620005fa565b505050505050505050505062000a59565b3390565b6200042f62000421565b6000546001600160a01b03908116911614620004685760405162461bcd60e51b81526004016200045f90620009c4565b60405180910390fd5b6001600160a01b03811660009081526013602052604090205460ff1615620004a45760405162461bcd60e51b81526004016200045f9062000947565b6001600160a01b03166000908152601360205260409020805460ff19166001179055565b620004d262000421565b6000546001600160a01b03908116911614620005025760405162461bcd60e51b81526004016200045f90620009c4565b6001600160a01b0381166200052b5760405162461bcd60e51b81526004016200045f906200097e565b600080546040516001600160a01b03808516939216916000805160206200360b83398151915291a3600080546001600160a01b0319166001600160a01b0392909216919091179055565b828054600181600116156101000203166002900490600052602060002090601f016020900481019282601f10620005b857805160ff1916838001178555620005e8565b82800160010185558215620005e8579182015b82811115620005e8578251825591602001919060010190620005cb565b50620005f692915062000637565b5090565b828054828255906000526020600020908101928215620005e85791602002820182811115620005e8578251825591602001919060010190620005cb565b5b80821115620005f6576000815560010162000638565b80516200065b8162000a40565b92915050565b600082601f83011262000672578081fd5b815162000689620006838262000a20565b620009f9565b818152915060208083019084810181840286018201871015620006ab57600080fd5b60005b84811015620006cc57815184529282019290820190600101620006ae565b505050505092915050565b805180151581146200065b57600080fd5b8051600681106200065b57600080fd5b600082601f83011262000709578081fd5b81516001600160401b038111156200071f578182fd5b602062000735601f8301601f19168201620009f9565b925081835284818386010111156200074c57600080fd5b60005b828110156200076c5784810182015184820183015281016200074f565b828111156200077e5760008284860101525b50505092915050565b60006020828403121562000799578081fd5b8151620007a68162000a40565b9392505050565b6000806000806000806000806000806101408b8d031215620007cd578586fd5b620007d98c8c6200064e565b9950620007ea8c60208d016200064e565b60408c01519099506001600160401b038082111562000807578788fd5b620008158e838f01620006f8565b9950620008268e60608f016200064e565b985060808d01519150808211156200083c578788fd5b6200084a8e838f0162000661565b97506200085b8e60a08f01620006e8565b96506200086c8e60c08f016200064e565b95506200087d8e60e08f016200064e565b94506200088f8e6101008f01620006d7565b93506101208d0151915080821115620008a6578283fd5b50620008b58d828e0162000661565b9150509295989b9194979a5092959850565b60008060408385031215620008da578182fd5b8251915060208301518015158114620008f1578182fd5b809150509250929050565b6000806000806080858703121562000912578384fd5b505082516020840151604085015160609095015191969095509092509050565b60208101600683106200094157fe5b91905290565b60208082526018908201527f5573657220616c72656164792077686974656c69737465640000000000000000604082015260600190565b60208082526026908201527f4f776e61626c653a206e6577206f776e657220697320746865207a65726f206160408201526564647265737360d01b606082015260800190565b6020808252818101527f4f776e61626c653a2063616c6c6572206973206e6f7420746865206f776e6572604082015260600190565b6040518181016001600160401b038111828210171562000a1857600080fd5b604052919050565b60006001600160401b0382111562000a36578081fd5b5060209081020190565b6001600160a01b038116811462000a5657600080fd5b50565b612ba28062000a696000396000f3fe608060405234801561001057600080fd5b506004361061025e5760003560e01c80637fd788aa11610146578063d7a5c422116100c3578063f2fde38b11610087578063f2fde38b146104cb578063f51b7ab9146104de578063f7e9dfff146104e6578063f9902bb1146104ee578063fbbf93a014610501578063fd5e6dd11461051b5761025e565b8063d7a5c42214610482578063db2da48c14610495578063db69a462146104a8578063e68e276d146104b0578063ee575c28146104c35761025e565b8063b18ac9181161010a578063b18ac91814610442578063b7bc347e1461044a578063c623674f14610452578063cbe230c314610467578063cd92890e1461047a5761025e565b80637fd788aa146104005780638da5cb5b146104085780639ab4438f146104105780639fc4caa514610432578063a224ee9c1461043a5761025e565b80633d9287fa116101df5780635e5f2e26116101a35780635e5f2e261461037e5780636f1e85331461039e5780636f265a34146103b1578063715018a6146103d2578063747b8050146103da57806378025ec4146103ed5761025e565b80633d9287fa1461032557806346e0fbae1461032d578063524f07351461034257806357ac94f0146103555780635c1c20de146103765761025e565b80631bf30929116102265780631bf30929146102dc5780631fc2cd93146102e457806327cd727c146102f75780632eb8197a1461030a57806333df1541146103125761025e565b8063021eef7f146102635780630ae9ea451461028c5780630bea440d146102ac5780630c5160f4146102c1578063171e44ea146102c9575b600080fd5b610276610271366004612232565b61052e565b6040516102839190612481565b60405180910390f35b61029f61029a366004612232565b610578565b604051610283919061248c565b6102bf6102ba366004612262565b610596565b005b61029f6106f7565b6102bf6102d73660046121af565b6106fd565b61029f61084b565b6102bf6102f23660046121af565b610851565b6102bf610305366004612262565b610aa4565b61029f610bfc565b61029f610320366004612262565b610c02565b610276610c1f565b610335610c28565b6040516102839190612495565b6102bf6103503660046121af565b610c31565b6103686103633660046121cb565b610c3d565b6040516102839291906123bd565b61029f610c8b565b61039161038c366004612232565b610c91565b604051610283919061236b565b6102766103ac3660046121af565b610cb8565b6103c46103bf3660046121af565b610d0a565b604051610283929190612ad8565b6102bf610d6f565b6102bf6103e83660046121af565b610dee565b61029f6103fb366004612232565b610e80565b610276610e8d565b610391610e96565b61042361041e366004612232565b610ea5565b60405161028393929190612ae6565b610391610ec9565b610391610edd565b61029f610eec565b61029f610ef2565b61045a610ef8565b60405161028391906124c1565b6102766104753660046121af565b610f86565b610391610fd8565b6102bf610490366004612291565b610fe7565b61029f6104a33660046121af565b6112a3565b6103916112b5565b61029f6104be3660046121af565b6112c4565b61029f6112d6565b6102bf6104d93660046121af565b6112dc565b61029f611392565b610391611398565b6102bf6104fc3660046121af565b6113a7565b61050961143a565b604051610283969594939291906123d6565b610391610529366004612232565b61172d565b6000805b60175481101561056d57826017828154811061054a57fe5b90600052602060002001541415610565576001915050610573565b600101610532565b50600090505b919050565b6017818154811061058557fe5b600091825260209091200154905081565b600082116105bf5760405162461bcd60e51b81526004016105b690612988565b60405180910390fd5b601d5460ff16156105e25760405162461bcd60e51b81526004016105b6906128d2565b6105ec828261173a565b60185460408051636830483560e01b815290516000926001600160a01b0316916368304835916004808301926020929190829003018186803b15801561063157600080fd5b505afa158015610645573d6000803e3d6000fd5b505050506040513d601f19601f820116820180604052508101906106699190612216565b601854604051637852389760e01b81529192506001600160a01b038084169263785238979261069f92339291169060040161237f565b602060405180830381600087803b1580156106b957600080fd5b505af11580156106cd573d6000803e3d6000fd5b505050506040513d601f19601f820116820180604052508101906106f191906121f6565b50505050565b60115481565b6107056119e3565b6000546001600160a01b039081169116146107325760405162461bcd60e51b81526004016105b69061289d565b61073b81610f86565b156107585760405162461bcd60e51b81526004016105b69061295b565b60015460405163cbe230c360e01b81526001600160a01b039091169063cbe230c39061078890849060040161236b565b60206040518083038186803b1580156107a057600080fd5b505afa1580156107b4573d6000803e3d6000fd5b505050506040513d601f19601f820116820180604052508101906107d891906121f6565b15156001146107f95760405162461bcd60e51b81526004016105b690612637565b600a80546001810182556000919091527fc65a7bb8d6351c1cf70c95a316cc6a92839c986682d98bc35f958f4883f9d2a80180546001600160a01b0319166001600160a01b0392909216919091179055565b601b5481565b610859610e96565b6001600160a01b0316336001600160a01b0316141561088a5760405162461bcd60e51b81526004016105b690612a93565b60125460ff161515600114156108ce573360009081526013602052604090205460ff1615156001146108ce5760405162461bcd60e51b81526004016105b690612726565b6001600160a01b038116600090815260046020908152604080832033845290915290205461271090806109135760405162461bcd60e51b81526004016105b6906126c9565b6001600160a01b0383166000908152600560205260408120546109409061093a84866119e7565b90611a2a565b6001600160a01b0385166000908152600660205260408120549192509061096d90859061093a90856119e7565b90506000856001600160a01b031663a9059cbb33846002026040518363ffffffff1660e01b81526004016109a29291906123bd565b602060405180830381600087803b1580156109bc57600080fd5b505af11580156109d0573d6000803e3d6000fd5b505050506040513d601f19601f820116820180604052508101906109f491906121f6565b9050600181151514610a185760405162461bcd60e51b81526004016105b690612a2b565b6001600160a01b038616600090815260056020526040902054610a3b9085611a6c565b6001600160a01b038716600090815260056020908152604080832093909355600690522054610a6a9083611a6c565b6001600160a01b03909616600090815260066020908152604080832098909855600481528782203383529052958620959095555050505050565b60008211610ac45760405162461bcd60e51b81526004016105b690612988565b60178054600091906000198101908110610ada57fe5b600091825260208220015460165460405160016259edcb60e01b031981529193506001600160a01b036101008204169163ffa6123591610b249160ff9091169086906004016124a9565b604080518083038186803b158015610b3b57600080fd5b505afa158015610b4f573d6000803e3d6000fd5b505050506040513d601f19601f82011682018060405250810190610b7391906122b2565b915050610b7e610e96565b6001600160a01b0316336001600160a01b031614610bf257601d5460ff16151560011480610bd65750804210158015610bd657506000828152601a6020526040812060029081015460ff1690811115610bd357fe5b14155b610bf25760405162461bcd60e51b81526004016105b69061253b565b6106f18484611aae565b600e5481565b600760209081526000928352604080842090915290825290205481565b60125460ff1681565b60165460ff1681565b610c3a81610851565b50565b6000806000600a8481548110610c4f57fe5b6000918252602080832091909101546001600160a01b039081168084526004835260408085209990921684529790915290205494959350505050565b600b5481565b600a8181548110610c9e57fe5b6000918252602090912001546001600160a01b0316905081565b6000805b60085481101561056d57826001600160a01b031660088281548110610cdd57fe5b6000918252602090912001546001600160a01b03161415610d02576001915050610573565b600101610cbc565b6001600160a01b0381166000908152600460205260408120819081610d2d610e96565b6001600160a01b039081168252602080830193909352604091820160009081205491871681526003909352912054909250610d689083611a6c565b9050915091565b610d776119e3565b6000546001600160a01b03908116911614610da45760405162461bcd60e51b81526004016105b69061289d565b600080546040516001600160a01b03909116907f8be0079c531659141344cd1fd0a4f28419497f9722a3daafe3b4186f6b6457e0908390a3600080546001600160a01b0319169055565b610df66119e3565b6000546001600160a01b03908116911614610e235760405162461bcd60e51b81526004016105b69061289d565b6001600160a01b03811660009081526013602052604090205460ff1615610e5c5760405162461bcd60e51b81526004016105b690612509565b6001600160a01b03166000908152601360205260409020805460ff19166001179055565b601c818154811061058557fe5b601d5460ff1690565b6000546001600160a01b031690565b601a6020526000908152604090208054600182015460029092015490919060ff1683565b60165461010090046001600160a01b031681565b6019546001600160a01b031681565b600d5481565b600a5490565b6015805460408051602060026001851615610100026000190190941693909304601f81018490048402820184019092528181529291830182828015610f7e5780601f10610f5357610100808354040283529160200191610f7e565b820191906000526020600020905b815481529060010190602001808311610f6157829003601f168201915b505050505081565b6000805b600a5481101561056d57826001600160a01b0316600a8281548110610fab57fe5b6000918252602090912001546001600160a01b03161415610fd0576001915050610573565b600101610f8a565b6014546001600160a01b031681565b6019546001600160a01b031633146110115760405162461bcd60e51b81526004016105b690612684565b7fc95987c1992805ee34bdc915e017cceae36ba1c156b9911fa7e691e6435eb46e42838360405161104493929190612b0a565b60405180910390a16000818152601a60209081526040808320600181018690554281556014548251633fa4f24560e01b815292519194936001600160a01b0390911692633fa4f2459260048083019392829003018186803b1580156110a857600080fd5b505afa1580156110bc573d6000803e3d6000fd5b505050506040513d601f19601f820116820180604052508101906110e0919061224a565b6014546040516303c8f2e360e21b81529192506001600160a01b031690630f23cb8c9061111190879060040161248c565b60206040518083038186803b15801561112957600080fd5b505afa15801561113d573d6000803e3d6000fd5b505050506040513d601f19601f8201168201806040525081019061116191906121f6565b1561123e576002828101805460ff19166001179055612710906000906111a39061118f9061093a8987611cd6565b61093a8461119d8a88611a6c565b906119e7565b905060006111dd60016111d760176000815481106111bd57fe5b906000526020600020015489611a6c90919063ffffffff16565b90611cd6565b6017805491925060009160001981019081106111f557fe5b9060005260206000200154871415611217576112126064856119e7565b611228565b6017546112289061093a85856119e7565b9050611235878286611cfb565b505050506106f1565b6002828101805460ff19169091179055611256611e2e565b601d805460ff191660011790556040517fbd33f7a3bfa88a467c9df5ae7d2341cf061084c386b20a0d48130f5cbce38a4d906112959085908790612ad8565b60405180910390a150505050565b60066020526000908152604090205481565b6018546001600160a01b031681565b60056020526000908152604090205481565b600c5481565b6112e46119e3565b6000546001600160a01b039081169116146113115760405162461bcd60e51b81526004016105b69061289d565b6001600160a01b0381166113375760405162461bcd60e51b81526004016105b6906125ba565b600080546040516001600160a01b03808516939216917f8be0079c531659141344cd1fd0a4f28419497f9722a3daafe3b4186f6b6457e091a3600080546001600160a01b0319166001600160a01b0392909216919091179055565b600f5481565b6009546001600160a01b031681565b6113af6119e3565b6000546001600160a01b039081169116146113dc5760405162461bcd60e51b81526004016105b69061289d565b6001600160a01b03811660009081526013602052604090205460ff1615156001146114195760405162461bcd60e51b81526004016105b6906129b4565b6001600160a01b03166000908152601360205260409020805460ff19169055565b60006060600060606000606061144e610e96565b60158054604080516020601f600260001961010060018816150201909516949094049384018190048102820181019092528281529399508301828280156114d65780601f106114ab576101008083540402835291602001916114d6565b820191906000526020600020905b8154815290600101906020018083116114b957829003601f168201915b50506014546017549499506001600160a01b031697505067ffffffffffffffff8311915050801561150657600080fd5b5060405190808252806020026020018201604052801561154057816020015b61152d61216d565b8152602001906001900390816115255790505b50925060005b60175481101561161d5760006017828154811061155f57fe5b9060005260206000200154905061157461216d565b6000828152601a6020908152604091829020825160608101845281548152600182015492810192909252600280820154929391929184019160ff16908111156115b957fe5b60028111156115c457fe5b81525050905060405180606001604052808260000151815260200182602001518152602001826040015160028111156115f957fe5b81525086848151811061160857fe5b60209081029190910101525050600101611546565b50600854600a5490925067ffffffffffffffff8111801561163d57600080fd5b5060405190808252806020026020018201604052801561167757816020015b611664612198565b81526020019060019003908161165c5790505b50905060005b600a54811015611724576040518060400160405280600a838154811061169f57fe5b9060005260206000200160009054906101000a90046001600160a01b03166001600160a01b0316815260200160036000600a85815481106116dc57fe5b60009182526020808320909101546001600160a01b031683528201929092526040019020549052825183908390811061171157fe5b602090810291909101015260010161167d565b50909192939495565b60088181548110610c9e57fe5b8061174481610f86565b15156001146117655760405162461bcd60e51b81526004016105b69061286f565b60125460ff161515600114156117a9573360009081526013602052604090205460ff1615156001146117a95760405162461bcd60e51b81526004016105b690612726565b6117b1610e96565b6001600160a01b0316336001600160a01b031614611806576000806117d584610d0a565b9092509050816117e58287611cd6565b11156118035760405162461bcd60e51b81526004016105b6906129e2565b50505b6040516323b872dd60e01b81526000906001600160a01b038416906323b872dd9061183990339030908990600401612399565b602060405180830381600087803b15801561185357600080fd5b505af1158015611867573d6000803e3d6000fd5b505050506040513d601f19601f8201168201806040525081019061188b91906121f6565b90506001811515146118af5760405162461bcd60e51b81526004016105b69061291a565b6001600160a01b0383166000908152600360205260409020546118d29085611cd6565b6001600160a01b03841660009081526003602090815260408083209390935560048152828220338352905220546119099085611cd6565b6001600160a01b03841660009081526004602090815260408083203380855292529091209190915561193a90610cb8565b61198157600880546001810182556000919091527ff3f7a9fe364faab93b216da50a3214154f22a0a2b415b23a84c8169e8b636ee30180546001600160a01b031916331790555b611989610e96565b6001600160a01b0316336001600160a01b0316146106f1576001600160a01b0383166000908152600560205260409020546119c49085611cd6565b6001600160a01b03841660009081526005602052604090205550505050565b3390565b6000826119f657506000611a24565b82820282848281611a0357fe5b0414611a215760405162461bcd60e51b81526004016105b69061282e565b90505b92915050565b6000611a2183836040518060400160405280601a81526020017f536166654d6174683a206469766973696f6e206279207a65726f000000000000815250611f99565b6000611a2183836040518060400160405280601e81526020017f536166654d6174683a207375627472616374696f6e206f766572666c6f770000815250611fd0565b80611ab881610f86565b1515600114611ad95760405162461bcd60e51b81526004016105b69061286f565b60125460ff16151560011415611b1d573360009081526013602052604090205460ff161515600114611b1d5760405162461bcd60e51b81526004016105b690612726565b611b25610e96565b6001600160a01b0316336001600160a01b03161415611b7b57600080611b4a84610d0a565b909250905080611b5a8387611a6c565b1015611b785760405162461bcd60e51b81526004016105b690612757565b50505b6001600160a01b0382166000908152600460209081526040808320338452909152902054831115611bbe5760405162461bcd60e51b81526004016105b6906127e4565b6001600160a01b038216600090815260036020526040902054611be19084611a6c565b6001600160a01b0383166000908152600360209081526040808320939093556004815282822033835290522054611c189084611a6c565b6001600160a01b038316600081815260046020818152604080842033808652925280842095909555935163a9059cbb60e01b8152919363a9059cbb92611c60928991016123bd565b602060405180830381600087803b158015611c7a57600080fd5b505af1158015611c8e573d6000803e3d6000fd5b505050506040513d601f19601f82011682018060405250810190611cb291906121f6565b90506001811515146106f15760405162461bcd60e51b81526004016105b6906124d4565b600082820183811015611a215760405162461bcd60e51b81526004016105b690612600565b60005b600a548110156106f1576000600a8281548110611d1757fe5b60009182526020822001546001600160a01b03169150611d3682610d0a565b915060009050611d4d6064860261093a84896119e7565b6009549091506001600160a01b0384811691161415611d80576000611d7182611ffc565b9050611d7d8282611a6c565b50505b6001600160a01b0383166000908152600460205260408120611dc791839190611da7610e96565b6001600160a01b0316815260208101919091526040016000205490611cd6565b6001600160a01b038416600090815260046020526040812090611de8610e96565b6001600160a01b03908116825260208083019390935260409182016000908120949094558a84526007835281842096168352949052929092209190915550600101611cfe565b60005b600a54811015610c3a576000600a8281548110611e4a57fe5b60009182526020822001546001600160a01b03169150611e6982610d0a565b6009549092508291506001600160a01b0384811691161415611e9f576000611e9082611ffc565b9050611e9c8282611a6c565b50505b6001600160a01b038316600090815260036020526040902054611ec29082611a6c565b6001600160a01b03841660009081526003602090815260408083209390935560049052908120611f1791839190611ef7610e96565b6001600160a01b0316815260208101919091526040016000205490611a6c565b6001600160a01b038416600090815260046020526040812090611f38610e96565b6001600160a01b0390811682526020808301939093526040918201600090812094909455861683526006909152902054611f729082611cd6565b6001600160a01b039093166000908152600660205260409020929092555050600101611e31565b60008183611fba5760405162461bcd60e51b81526004016105b691906124c1565b506000838581611fc657fe5b0495945050505050565b60008184841115611ff45760405162461bcd60e51b81526004016105b691906124c1565b505050900390565b60408051808201909152600d81526c6275726e2875696e743235362960981b602090910152600b546000907f42966c689b5afe9b9b3f8a7103b2a19980d59629bfd6a20a60972312ed41d8369061205c906103e89061093a9086906119e7565b6009546040519193506000916001600160a01b0390911690839061208490869060240161248c565b60408051601f198184030181529181526020820180516001600160e01b03166001600160e01b03199094169390931790925290516120c2919061234f565b6000604051808303816000865af19150503d80600081146120ff576040519150601f19603f3d011682016040523d82523d6000602084013e612104565b606091505b50509050806121255760405162461bcd60e51b81526004016105b6906127a0565b6009546001600160a01b031660009081526003602052604090205461214a9084611a6c565b6009546001600160a01b0316600090815260036020526040902055509092915050565b604051806060016040528060008152602001600081526020016000600281111561219357fe5b905290565b604080518082019091526000808252602082015290565b6000602082840312156121c0578081fd5b8135611a2181612b57565b600080604083850312156121dd578081fd5b82356121e881612b57565b946020939093013593505050565b600060208284031215612207578081fd5b81518015158114611a21578182fd5b600060208284031215612227578081fd5b8151611a2181612b57565b600060208284031215612243578081fd5b5035919050565b60006020828403121561225b578081fd5b5051919050565b60008060408385031215612274578182fd5b82359150602083013561228681612b57565b809150509250929050565b600080604083850312156122a3578182fd5b50508035926020909101359150565b600080604083850312156122c4578182fd5b505080516020909101519092909150565b6000815180845260208085019450808401835b8381101561231857815180516001600160a01b0316885283015183880152604090960195908201906001016122e8565b509495945050505050565b6000815180845261233b816020860160208601612b2b565b601f01601f19169290920160200192915050565b60008251612361818460208701612b2b565b9190910192915050565b6001600160a01b0391909116815260200190565b6001600160a01b0392831681529116602082015260400190565b6001600160a01b039384168152919092166020820152604081019190915260600190565b6001600160a01b03929092168252602082015260400190565b600060018060a01b038089168352602060c0818501526123f960c085018a612323565b6040838a168187015260609350858203848701528189518084528484019150848b019350865b8181101561245657845180518452868101518785015261244185820151612b20565b8486015250938501939186019160010161241f565b505088608088015286810360a088015261247081896122d5565b9d9c50505050505050505050505050565b901515815260200190565b90815260200190565b60208101600683106124a357fe5b91905290565b60408101600684106124b757fe5b9281526020015290565b600060208252611a216020830184612323565b6020808252818101527f5374616b6520776974686472617720776173206e6f742073756363657366756c604082015260600190565b602080825260189082015277155cd95c88185b1c9958591e481dda1a5d195b1a5cdd195960421b604082015260600190565b60208082526059908201527f43616e206f6e6c79207769746864726177207374616b6520616674657220746860408201527f652066696e616c20706572696f642069732066696e6973686564206f72206966606082015278081d1a194818dbdb9d1c9858dd081a5cc8189c995858da1959603a1b608082015260a00190565b60208082526026908201527f4f776e61626c653a206e6577206f776e657220697320746865207a65726f206160408201526564647265737360d01b606082015260800190565b6020808252601b908201527f536166654d6174683a206164646974696f6e206f766572666c6f770000000000604082015260600190565b6020808252602d908201527f546f6b656e206e6f7420616c6c6f7765642062792074686520534c415265676960408201526c1cdd1c9e4818dbdb9d1c9858dd609a1b606082015260800190565b60208082526025908201527f4f6e6c79204d657373656e6765722063616e2063616c6c20746869732066756e60408201526431ba34b7b760d91b606082015260800190565b6020808252603a908201527f43616e206f6e6c7920636c61696d206120636f6d70656e736174696f6e20696660408201527f20706f736974696f6e20697320626967676572207468616e2030000000000000606082015260800190565b602080825260179082015276155cd95c881a5cc81b9bdd081dda1a5d195b1a5cdd1959604a1b604082015260600190565b60208082526029908201527f53686f756c64206e6f74207769746864726177206d6f7265207468616e207573604082015268657273207374616b6560b81b606082015260800190565b60208082526024908201527f44534c41206275726e2070726f6365737320776173206e6f74207375636365736040820152631cd99d5b60e21b606082015260800190565b6020808252602a908201527f53686f756c64206e6f74207769746864726177206d6f7265207374616b6520746040820152691a185b881cdd185ad95960b21b606082015260800190565b60208082526021908201527f536166654d6174683a206d756c7469706c69636174696f6e206f766572666c6f6040820152607760f81b606082015260800190565b6020808252601490820152731d1bdad95b881a5cc81b9bdd08185b1b1bddd95960621b604082015260600190565b6020808252818101527f4f776e61626c653a2063616c6c6572206973206e6f7420746865206f776e6572604082015260600190565b60208082526028908201527f43616e206f6e6c79207374616b65206f6e206e6f7420627265616368656420636040820152676f6e74726163747360c01b606082015260800190565b60208082526021908201527f5374616b696e672070726f6365737320776173206e6f742073756363657366756040820152601b60fa1b606082015260800190565b602080825260139082015272151bdad95b88185b1c9958591e481859191959606a1b604082015260600190565b6020808252601290820152710616d6f756e742063616e6e6f7420626520360741b604082015260600190565b602080825260149082015273155cd95c881b9bdd081dda1a5d195b1a5cdd195960621b604082015260600190565b60208082526029908201527f43616e6e6f74207374616b65206d6f7265207468616e20534c412070726f7669604082015268646572207374616b6560b81b606082015260800190565b60208082526042908201527f5472616e736665722070726f636573732066726f6d20534c4120636f6e74726160408201527f637420746f206d73672e73656e64657220776173206e6f7420737563636573666060820152611d5b60f21b608082015260a00190565b60208082526025908201527f53686f756c64206e6f742062652063616c6c65642062792074686520534c412060408201526437bbb732b960d91b606082015260800190565b918252602082015260400190565b8381526020810183905260608101612afd83612b20565b6040830152949350505050565b9283526020830191909152604082015260600190565b806003811061057357fe5b60005b83811015612b46578181015183820152602001612b2e565b838111156106f15750506000910152565b6001600160a01b0381168114610c3a57600080fdfea26469706673582212208940f2d2583b4901a48c06f90f097283c1a9ce350e869603e1178a202e7c171864736f6c634300060c00338be0079c531659141344cd1fd0a4f28419497f9722a3daafe3b4186f6b6457e0a2646970667358221220fdc98141867ed4138130e8b639758c8cc403306c281d110e26efaffa613d134f64736f6c634300060c0033",
  "immutableReferences": {},
  "source": "// SPDX-License-Identifier: MIT\npragma solidity ^0.6.0;\npragma experimental ABIEncoderV2;\n\nimport \"@openzeppelin/contracts/math/SafeMath.sol\";\nimport \"@openzeppelin/contracts/token/ERC20/IERC20.sol\";\nimport \"@openzeppelin/contracts/access/Ownable.sol\";\nimport \"./SLA.sol\";\nimport \"./SLO.sol\";\nimport \"./SLORegistry.sol\";\nimport \"./PeriodRegistry.sol\";\nimport \"./MessengerRegistry.sol\";\nimport \"./StakeRegistry.sol\";\nimport \"./messenger/IMessenger.sol\";\n\n/**\n * @title SLARegistry\n * @dev SLARegistry is a contract for handling creation of service level\n * agreements and keeping track of the created agreements\n */\ncontract SLARegistry is Ownable {\n    using SafeMath for uint256;\n\n    /// @dev SLO registry\n    SLORegistry public sloRegistry;\n    /// @dev Periods registry\n    PeriodRegistry public periodRegistry;\n    /// @dev Messengers registry\n    MessengerRegistry public messengerRegistry;\n    /// @dev Stake registry\n    StakeRegistry public stakeRegistry;\n    /// @dev stores the addresses of created SLAs\n    SLA[] public SLAs;\n    /// @dev stores the indexes of service level agreements owned by an user\n    mapping(address => uint256[]) private userToSLAIndexes;\n\n    /**\n     * @dev event for service level agreement creation logging\n     * @param sla 1. The address of the created service level agreement contract\n     * @param owner 2. The address of the owner of the service level agreement\n     */\n    event SLACreated(SLA indexed sla, address indexed owner);\n\n    /**\n     * @dev constructor\n     * @param _sloRegistry 1. SLO Registry\n     * @param _periodRegistry 2. Periods registry\n     * @param _messengerRegistry 3. Messenger registry\n     * @param _stakeRegistry 4. Stake registry\n     */\n    constructor(\n        SLORegistry _sloRegistry,\n        PeriodRegistry _periodRegistry,\n        MessengerRegistry _messengerRegistry,\n        StakeRegistry _stakeRegistry\n    ) public {\n        sloRegistry = _sloRegistry;\n        periodRegistry = _periodRegistry;\n        stakeRegistry = _stakeRegistry;\n        messengerRegistry = _messengerRegistry;\n        messengerRegistry.setSLARegistry();\n    }\n\n    /**\n     * @dev public function for creating canonical service level agreements\n     * @param _SLO 1. SLO\n     * @param _ipfsHash 2. string with the ipfs hash that contains extra information about the service level agreement\n     * @param _periodType 3. period type\n     * @param _periodIds 4. array of allowed period ids\n     * @param _messengerAddress 5. address of the messenger for the corresponding SLA\n     * @param _whitelisted 6. bool to declare whitelisted SLA\n     * @param _extraData 7. bytes32 to embed extra data for customized workflows\n     */\n    function createSLA(\n        SLO _SLO,\n        string memory _ipfsHash,\n        PeriodRegistry.PeriodType _periodType,\n        uint256[] calldata _periodIds,\n        address _messengerAddress,\n        bool _whitelisted,\n        bytes32[] memory _extraData\n    ) public {\n        (, bool initialized) = periodRegistry.periodDefinitions(_periodType);\n        require(initialized == true, \"Period type is not initialized yet\");\n        require(\n            sloRegistry.isRegisteredSLO(address(_SLO)) == true,\n            \"SLO not registered on SLORegistry\"\n        );\n        require(_periodIds.length > 0, \"Periods information is empty\");\n        // check if _periodIds are valid and sorted in ascendant order\n        for (uint256 index = 0; index < _periodIds.length; index++) {\n            bool validPeriod =\n                periodRegistry.isValidPeriod(_periodType, _periodIds[index]);\n            require(validPeriod, \"Period id not valid\");\n            if (index < _periodIds.length - 1) {\n                require(\n                    _periodIds[index] < _periodIds[index + 1],\n                    \"Period ids should be sorted \"\n                );\n            }\n        }\n        bool registeredMessenger =\n            messengerRegistry.registeredMessengers(_messengerAddress);\n        require(\n            registeredMessenger == true,\n            \"messenger address is not registered\"\n        );\n\n        SLA sla =\n            new SLA(\n                msg.sender,\n                _SLO,\n                _ipfsHash,\n                _messengerAddress,\n                _periodIds,\n                _periodType,\n                address(stakeRegistry),\n                address(periodRegistry),\n                _whitelisted,\n                _extraData\n            );\n\n        SLAs.push(sla);\n        uint256 index = SLAs.length.sub(1);\n        userToSLAIndexes[msg.sender].push(index);\n        emit SLACreated(sla, msg.sender);\n    }\n\n    /**\n     * @dev Gets SLI information for the specified SLA and SLO\n     * @param _periodId 1. id of the period\n     * @param _sla 2. SLA Address\n     */\n    function requestSLI(uint256 _periodId, SLA _sla) public {\n        bool breachedContract = _sla.breachedContract();\n        (, , SLA.Status status) = _sla.slaPeriods(_periodId);\n        require(\n            status == SLA.Status.NotVerified,\n            \"SLA contract was already verified for the period\"\n        );\n        require(\n            breachedContract == false,\n            \"Should only be called for not breached contracts\"\n        );\n        bool slaAllowedPeriodId = _sla.isAllowedPeriod(_periodId);\n        require(\n            slaAllowedPeriodId == true,\n            \"Period ID not registered in the SLA contract\"\n        );\n        PeriodRegistry.PeriodType slaPeriodType = _sla.periodType();\n        bool periodFinished =\n            periodRegistry.periodIsFinished(slaPeriodType, _periodId);\n        require(\n            periodFinished == true,\n            \"SLA contract period has not finished yet\"\n        );\n        address slaMessenger = _sla.messengerAddress();\n        IMessenger(slaMessenger).requestSLI(_periodId, address(_sla));\n    }\n\n    /**\n     * @dev function to declare this SLARegistry contract as SLARegistry of _messengerAddress\n     * @param _messengerAddress 1. address of the messenger\n     */\n\n    function setMessengerSLARegistryAddress(address _messengerAddress) public {\n        IMessenger(_messengerAddress).setSLARegistry();\n        messengerRegistry.registerMessenger(_messengerAddress, msg.sender);\n    }\n\n    /**\n     * @dev public view function that returns the service level agreements that\n     * the given user is the owner of\n     * @param _user Address of the user for which to return the service level\n     * agreements\n     * @return array of SLAs\n     */\n    function userSLAs(address _user) public view returns (SLA[] memory) {\n        uint256 count = userSLACount(_user);\n        SLA[] memory SLAList = new SLA[](count);\n        uint256[] memory userSLAIndexes = userToSLAIndexes[_user];\n\n        for (uint256 i = 0; i < count; i++) {\n            SLAList[i] = (SLAs[userSLAIndexes[i]]);\n        }\n\n        return (SLAList);\n    }\n\n    /**\n     * @dev public view function that returns the amount of service level\n     * agreements the given user is the owner of\n     * @param _user 1. address of the user for which to return the amount of\n     * service level agreements\n     * @return uint256 corresponding to the amount of user's SLAs\n     */\n    function userSLACount(address _user) public view returns (uint256) {\n        return userToSLAIndexes[_user].length;\n    }\n\n    /**\n     * @dev public view function that returns all the service level agreements\n     * @return SLA[] array of SLAs\n     */\n    function allSLAs() public view returns (SLA[] memory) {\n        return (SLAs);\n    }\n\n    /**\n     * @dev public view function that returns the total amount of service\n     * level agreements\n     * @return uint256, the length of SLA array\n     */\n    function SLACount() public view returns (uint256) {\n        return SLAs.length;\n    }\n\n    /**\n     * @dev public view function that returns true if _slaAddress was deployed using this SLARegistry\n     * @param _slaAddress address of the SLA to be checked\n     */\n    function isRegisteredSLA(address _slaAddress) public view returns (bool) {\n        for (uint256 index = 0; index < SLAs.length; index++) {\n            if (address(SLAs[index]) == _slaAddress) {\n                return true;\n            }\n        }\n        return false;\n    }\n}\n",
  "sourcePath": "/Users/matiasbn/Desktop/stacktical/stacktical-dsla-contracts/contracts/SLARegistry.sol",
  "compiler": {
    "name": "solc",
    "version": "0.6.12+commit.27d51765.Emscripten.clang"
  },
  "schemaVersion": "3.3.3",
  "updatedAt": "2021-02-19T18:12:40.309Z",
  "networkType": "ethereum",
  "devdoc": {
    "details": "SLARegistry is a contract for handling creation of service level agreements and keeping track of the created agreements",
    "events": {
      "SLACreated(address,address)": {
        "details": "event for service level agreement creation logging",
        "params": {
          "owner": "2. The address of the owner of the service level agreement",
          "sla": "1. The address of the created service level agreement contract"
        }
      }
    },
    "kind": "dev",
    "methods": {
      "SLACount()": {
        "details": "public view function that returns the total amount of service level agreements",
        "returns": {
          "_0": "uint256, the length of SLA array"
        }
      },
      "allSLAs()": {
        "details": "public view function that returns all the service level agreements",
        "returns": {
          "_0": "SLA[] array of SLAs"
        }
      },
      "constructor": {
        "details": "constructor",
        "params": {
          "_messengerRegistry": "3. Messenger registry",
          "_periodRegistry": "2. Periods registry",
          "_sloRegistry": "1. SLO Registry",
          "_stakeRegistry": "4. Stake registry"
        }
      },
      "createSLA(address,string,uint8,uint256[],address,bool,bytes32[])": {
        "details": "public function for creating canonical service level agreements",
        "params": {
          "_SLO": "1. SLO",
          "_extraData": "7. bytes32 to embed extra data for customized workflows",
          "_ipfsHash": "2. string with the ipfs hash that contains extra information about the service level agreement",
          "_messengerAddress": "5. address of the messenger for the corresponding SLA",
          "_periodIds": "4. array of allowed period ids",
          "_periodType": "3. period type",
          "_whitelisted": "6. bool to declare whitelisted SLA"
        }
      },
      "isRegisteredSLA(address)": {
        "details": "public view function that returns true if _slaAddress was deployed using this SLARegistry",
        "params": {
          "_slaAddress": "address of the SLA to be checked"
        }
      },
      "owner()": {
        "details": "Returns the address of the current owner."
      },
      "renounceOwnership()": {
        "details": "Leaves the contract without owner. It will not be possible to call `onlyOwner` functions anymore. Can only be called by the current owner. NOTE: Renouncing ownership will leave the contract without an owner, thereby removing any functionality that is only available to the owner."
      },
      "requestSLI(uint256,address)": {
        "details": "Gets SLI information for the specified SLA and SLO",
        "params": {
          "_periodId": "1. id of the period",
          "_sla": "2. SLA Address"
        }
      },
      "setMessengerSLARegistryAddress(address)": {
        "details": "function to declare this SLARegistry contract as SLARegistry of _messengerAddress",
        "params": {
          "_messengerAddress": "1. address of the messenger"
        }
      },
      "transferOwnership(address)": {
        "details": "Transfers ownership of the contract to a new account (`newOwner`). Can only be called by the current owner."
      },
      "userSLACount(address)": {
        "details": "public view function that returns the amount of service level agreements the given user is the owner of",
        "params": {
          "_user": "1. address of the user for which to return the amount of service level agreements"
        },
        "returns": {
          "_0": "uint256 corresponding to the amount of user's SLAs"
        }
      },
      "userSLAs(address)": {
        "details": "public view function that returns the service level agreements that the given user is the owner of",
        "params": {
          "_user": "Address of the user for which to return the service level agreements"
        },
        "returns": {
          "_0": "array of SLAs"
        }
      }
    },
    "stateVariables": {
      "SLAs": {
        "details": "stores the addresses of created SLAs"
      },
      "messengerRegistry": {
        "details": "Messengers registry"
      },
      "periodRegistry": {
        "details": "Periods registry"
      },
      "sloRegistry": {
        "details": "SLO registry"
      },
      "stakeRegistry": {
        "details": "Stake registry"
      },
      "userToSLAIndexes": {
        "details": "stores the indexes of service level agreements owned by an user"
      }
    },
    "title": "SLARegistry",
    "version": 1
  },
  "userdoc": {
    "kind": "user",
    "methods": {},
    "version": 1
  }
}