{
  "contractName": "SLARegistry",
  "abi": [
    {
      "inputs": [
        {
          "internalType": "contract Messenger",
          "name": "_messengerAddress",
          "type": "address"
        }
      ],
      "stateMutability": "nonpayable",
      "type": "constructor"
    },
    {
      "anonymous": false,
      "inputs": [
        {
          "indexed": true,
          "internalType": "contract SLA",
          "name": "sla",
          "type": "address"
        },
        {
          "indexed": true,
          "internalType": "address",
          "name": "owner",
          "type": "address"
        }
      ],
      "name": "SLACreated",
      "type": "event"
    },
    {
      "inputs": [
        {
          "internalType": "uint256",
          "name": "",
          "type": "uint256"
        }
      ],
      "name": "SLAs",
      "outputs": [
        {
          "internalType": "contract SLA",
          "name": "",
          "type": "address"
        }
      ],
      "stateMutability": "view",
      "type": "function"
    },
    {
      "inputs": [],
      "name": "messenger",
      "outputs": [
        {
          "internalType": "contract Messenger",
          "name": "",
          "type": "address"
        }
      ],
      "stateMutability": "view",
      "type": "function"
    },
    {
      "inputs": [
        {
          "internalType": "address",
          "name": "",
          "type": "address"
        }
      ],
      "name": "registeredSLAs",
      "outputs": [
        {
          "internalType": "bool",
          "name": "",
          "type": "bool"
        }
      ],
      "stateMutability": "view",
      "type": "function"
    },
    {
      "inputs": [
        {
          "internalType": "address",
          "name": "",
          "type": "address"
        },
        {
          "internalType": "uint256",
          "name": "",
          "type": "uint256"
        }
      ],
      "name": "userStakedSlas",
      "outputs": [
        {
          "internalType": "contract SLA",
          "name": "",
          "type": "address"
        }
      ],
      "stateMutability": "view",
      "type": "function"
    },
    {
      "inputs": [
        {
          "internalType": "address",
          "name": "_owner",
          "type": "address"
        },
        {
          "internalType": "bytes32[]",
          "name": "_SLONames",
          "type": "bytes32[]"
        },
        {
          "internalType": "contract SLO[]",
          "name": "_SLOs",
          "type": "address[]"
        },
        {
          "internalType": "uint256",
          "name": "_stake",
          "type": "uint256"
        },
        {
          "internalType": "string",
          "name": "_ipfsHash",
          "type": "string"
        },
        {
          "internalType": "uint256",
          "name": "_sliInterval",
          "type": "uint256"
        },
        {
          "internalType": "address",
          "name": "_baseTokenAddress",
          "type": "address"
        },
        {
          "internalType": "uint256[]",
          "name": "_sla_period_starts",
          "type": "uint256[]"
        },
        {
          "internalType": "uint256[]",
          "name": "_sla_period_ends",
          "type": "uint256[]"
        }
      ],
      "name": "createSLA",
      "outputs": [],
      "stateMutability": "nonpayable",
      "type": "function"
    },
    {
      "inputs": [
        {
          "internalType": "uint256",
          "name": "_periodId",
          "type": "uint256"
        },
        {
          "internalType": "contract SLA",
          "name": "_sla",
          "type": "address"
        },
        {
          "internalType": "bytes32",
          "name": "_sloName",
          "type": "bytes32"
        }
      ],
      "name": "requestSLI",
      "outputs": [],
      "stateMutability": "nonpayable",
      "type": "function"
    },
    {
      "inputs": [
        {
          "internalType": "address",
          "name": "_user",
          "type": "address"
        }
      ],
      "name": "userSLAs",
      "outputs": [
        {
          "internalType": "contract SLA[]",
          "name": "",
          "type": "address[]"
        }
      ],
      "stateMutability": "view",
      "type": "function"
    },
    {
      "inputs": [
        {
          "internalType": "address",
          "name": "_user",
          "type": "address"
        }
      ],
      "name": "userSLACount",
      "outputs": [
        {
          "internalType": "uint256",
          "name": "",
          "type": "uint256"
        }
      ],
      "stateMutability": "view",
      "type": "function"
    },
    {
      "inputs": [],
      "name": "allSLAs",
      "outputs": [
        {
          "internalType": "contract SLA[]",
          "name": "",
          "type": "address[]"
        }
      ],
      "stateMutability": "view",
      "type": "function"
    },
    {
      "inputs": [],
      "name": "SLACount",
      "outputs": [
        {
          "internalType": "uint256",
          "name": "",
          "type": "uint256"
        }
      ],
      "stateMutability": "view",
      "type": "function"
    },
    {
      "inputs": [
        {
          "internalType": "address",
          "name": "_user",
          "type": "address"
        },
        {
          "internalType": "address",
          "name": "_sla",
          "type": "address"
        }
      ],
      "name": "slaWasStakedByUser",
      "outputs": [
        {
          "internalType": "bool",
          "name": "",
          "type": "bool"
        }
      ],
      "stateMutability": "view",
      "type": "function"
    },
    {
      "inputs": [
        {
          "internalType": "address",
          "name": "_owner",
          "type": "address"
        }
      ],
      "name": "registerStakedSla",
      "outputs": [
        {
          "internalType": "bool",
          "name": "",
          "type": "bool"
        }
      ],
      "stateMutability": "nonpayable",
      "type": "function"
    },
    {
      "inputs": [
        {
          "internalType": "address",
          "name": "_slaOwner",
          "type": "address"
        }
      ],
      "name": "getActivePool",
      "outputs": [
        {
          "components": [
            {
              "internalType": "address",
              "name": "SLAaddress",
              "type": "address"
            },
            {
              "internalType": "uint256",
              "name": "stake",
              "type": "uint256"
            },
            {
              "internalType": "string",
              "name": "assetName",
              "type": "string"
            },
            {
              "internalType": "address",
              "name": "assetAddress",
              "type": "address"
            }
          ],
          "internalType": "struct SLARegistry.ActivePool[]",
          "name": "",
          "type": "tuple[]"
        }
      ],
      "stateMutability": "view",
      "type": "function"
    }
  ],
  "bytecode": "0x608060405234801561001057600080fd5b5060405162004c9938038062004c99833981016040819052610031916100a6565b600080546001600160a01b0319166001600160a01b03838116919091178083556040805163f388158960e01b81529051919092169263f3881589926004808201939182900301818387803b15801561008857600080fd5b505af115801561009c573d6000803e3d6000fd5b50505050506100d4565b6000602082840312156100b7578081fd5b81516001600160a01b03811681146100cd578182fd5b9392505050565b614bb580620000e46000396000f3fe60806040523480156200001157600080fd5b5060043610620000d05760003560e01c8063558450be1162000087578063558450be146200018a578063816ff98614620001a157806396bddc1014620001ba578063a3f5cadf14620001c4578063b290508e14620001db578063e9b1e98c14620001f2578063f2c0dfd4146200020957620000d0565b80630df0bfc614620000d55780633cb747bf146200010457806345e3e327146200011d57806350c5abfe1462000136578063516c2857146200014d57806351e99ec61462000173575b600080fd5b620000ec620000e636600462000e38565b6200022f565b604051620000fb919062001349565b60405180910390f35b6200010e620002ba565b604051620000fb91906200114c565b620001346200012e36600462000e75565b620002c9565b005b6200010e6200014736600462001009565b620003ee565b620001646200015e36600462000e19565b62000416565b604051620000fb91906200125a565b620000ec6200018436600462000e19565b6200055e565b620001346200019b3660046200103b565b62000573565b620001ab6200069a565b604051620000fb919062001354565b62000164620006a0565b6200010e620001d536600462000f8c565b62000704565b620000ec620001ec36600462000e19565b6200073a565b620001ab6200020336600462000e19565b620007c3565b620002206200021a36600462000e19565b620007de565b604051620000fb9190620012a9565b6000805b6001600160a01b038416600090815260046020526040902054811015620002ae576001600160a01b038481166000908152600460205260409020805491851691839081106200027e57fe5b6000918252602090912001546001600160a01b03161415620002a5576001915050620002b4565b60010162000233565b50600090505b92915050565b6000546001600160a01b031681565b6000898989898989898989604051620002e29062000c70565b620002f69998979695949392919062001160565b604051809103906000f08015801562000313573d6000803e3d6000fd5b506001805480820182557fb10e2d527612073b26eecdfd717e6a320cf44b4afac2b0732d9fcbe2b7fa0cf60180546001600160a01b0319166001600160a01b0384169081179091556000908152600260205260408120805460ff191683179055815492935091620003849162000bce565b3360009081526003602090815260408083208054600181018255908452918320909101839055519192506001600160a01b038d811692908516917fb52f284a6c14f1a66ab5513b5b539066933e58e69e6432666f0e3c8c8a7d750391a35050505050505050505050565b60018181548110620003fc57fe5b6000918252602090912001546001600160a01b0316905081565b606060006200042583620007c3565b905060608167ffffffffffffffff811180156200044157600080fd5b506040519080825280602002602001820160405280156200046c578160200160208202803683370190505b506001600160a01b03851660009081526003602090815260409182902080548351818402810184019094528084529394506060939091830182828015620004d357602002820191906000526020600020905b815481526020019060010190808311620004be575b5050505050905060005b8381101562000554576001828281518110620004f557fe5b6020026020010151815481106200050857fe5b9060005260206000200160009054906101000a90046001600160a01b03168382815181106200053357fe5b6001600160a01b0390921660209283029190910190910152600101620004dd565b5090949350505050565b60026020526000908152604090205460ff1681565b60405163b0227b4760e01b81526000906001600160a01b0384169063b0227b4790620005a490859060040162001354565b60206040518083038186803b158015620005bd57600080fd5b505afa158015620005d2573d6000803e3d6000fd5b505050506040513d601f19601f82011682018060405250810190620005f8919062000fea565b6001600160a01b031614156200062b5760405162461bcd60e51b81526004016200062290620013db565b60405180910390fd5b600054604051632ac2285f60e11b81526001600160a01b039091169063558450be90620006619086908690869060040162001426565b600060405180830381600087803b1580156200067c57600080fd5b505af115801562000691573d6000803e3d6000fd5b50505050505050565b60015490565b60606001805480602002602001604051908101604052809291908181526020018280548015620006fa57602002820191906000526020600020905b81546001600160a01b03168152600190910190602001808311620006db575b5050505050905090565b600460205281600052604060002081815481106200071e57fe5b6000918252602090912001546001600160a01b03169150829050565b3360009081526002602052604081205460ff161515600114620007715760405162461bcd60e51b8152600401620006229062001372565b6200077d82336200022f565b620007bb576001600160a01b03821660009081526004602090815260408220805460018101825590835291200180546001600160a01b031916331790555b506001919050565b6001600160a01b031660009081526003602052604090205490565b60606000805b6001600160a01b038416600090815260046020526040902054811015620008d5576001600160a01b03841660009081526004602052604081208054839081106200082a57fe5b600091825260209091200154604051631d809bc960e31b81526001600160a01b039091169150620008c990829063ec04de48906200086d9089906004016200114c565b60206040518083038186803b1580156200088657600080fd5b505afa1580156200089b573d6000803e3d6000fd5b505050506040513d601f19601f82011682018060405250810190620008c1919062001022565b849062000c19565b925050600101620007e4565b5060608167ffffffffffffffff81118015620008f057600080fd5b506040519080825280602002602001820160405280156200092e57816020015b6200091a62000c7e565b815260200190600190039081620009105790505b5090506000805b6001600160a01b03861660009081526004602052604090205481101562000554576001600160a01b03861660009081526004602052604081208054839081106200097b57fe5b60009182526020822001546001600160a01b031691505b604051631d809bc960e31b81526001600160a01b0383169063ec04de4890620009c0908b906004016200114c565b60206040518083038186803b158015620009d957600080fd5b505afa158015620009ee573d6000803e3d6000fd5b505050506040513d601f19601f8201168201806040525081019062000a14919062001022565b81101562000bc357600080836001600160a01b03166357ac94f08b856040518363ffffffff1660e01b815260040162000a4f92919062001241565b604080518083038186803b15801562000a6757600080fd5b505afa15801562000a7c573d6000803e3d6000fd5b505050506040513d601f19601f8201168201806040525081019062000aa2919062000fba565b60408051808201825260068152656e616d65282960d01b60209182015281516004815260248101835290810180516001600160e01b03166306fdde0360e01b17905290519294509092506060916001600160a01b0385169162000b05916200112e565b600060405180830381855afa9150503d806000811462000b42576040519150601f19603f3d011682016040523d82523d6000602084013e62000b47565b606091505b5091505062000b5562000c7e565b6040518060800160405280876001600160a01b03168152602001848152602001838152602001856001600160a01b031681525090508089898151811062000b9857fe5b602090810291909101015262000bb088600162000c19565b9750506001909301925062000992915050565b505060010162000935565b600062000c1283836040518060400160405280601e81526020017f536166654d6174683a207375627472616374696f6e206f766572666c6f77000081525062000c41565b9392505050565b60008282018381101562000c125760405162461bcd60e51b81526004016200062290620013a4565b6000818484111562000c685760405162461bcd60e51b81526004016200062291906200135d565b505050900390565b61369980620014e783390190565b604051806080016040528060006001600160a01b03168152602001600081526020016060815260200160006001600160a01b031681525090565b8035620002b481620014cd565b600082601f83011262000cd6578081fd5b813562000ced62000ce7826200146d565b62001445565b81815291506020808301908481018184028601820187101562000d0f57600080fd5b60005b8481101562000d305781358452928201929082019060010162000d12565b505050505092915050565b600082601f83011262000d4c578081fd5b813562000d5d62000ce7826200146d565b81815291506020808301908481018184028601820187101562000d7f57600080fd5b60005b8481101562000d3057813562000d9881620014cd565b8452928201929082019060010162000d82565b600082601f83011262000dbc578081fd5b813567ffffffffffffffff81111562000dd3578182fd5b62000de8601f8201601f191660200162001445565b915080825283602082850101111562000e0057600080fd5b8060208401602084013760009082016020015292915050565b60006020828403121562000e2b578081fd5b813562000c1281620014cd565b6000806040838503121562000e4b578081fd5b823562000e5881620014cd565b9150602083013562000e6a81620014cd565b809150509250929050565b60008060008060008060008060006101208a8c03121562000e94578485fd5b62000ea08b8b62000cb8565b985060208a013567ffffffffffffffff8082111562000ebd578687fd5b62000ecb8d838e0162000cc5565b995060408c013591508082111562000ee1578687fd5b62000eef8d838e0162000d3b565b985060608c0135975060808c013591508082111562000f0c578687fd5b62000f1a8d838e0162000dab565b965060a08c0135955062000f328d60c08e0162000cb8565b945060e08c013591508082111562000f48578384fd5b62000f568d838e0162000cc5565b93506101008c013591508082111562000f6d578283fd5b5062000f7c8c828d0162000cc5565b9150509295985092959850929598565b6000806040838503121562000f9f578182fd5b823562000fac81620014cd565b946020939093013593505050565b6000806040838503121562000fcd578182fd5b825162000fda81620014cd565b6020939093015192949293505050565b60006020828403121562000ffc578081fd5b815162000c1281620014cd565b6000602082840312156200101b578081fd5b5035919050565b60006020828403121562001034578081fd5b5051919050565b60008060006060848603121562001050578283fd5b8335925060208401356200106481620014cd565b929592945050506040919091013590565b815260200190565b6001600160a01b03169052565b6000815180845260208085019450808401835b83811015620010c45781516001600160a01b0316875295820195908201906001016200109d565b509495945050505050565b6000815180845260208085019450808401835b83811015620010c457815187529582019590820190600101620010e2565b600081518084526200111a8160208601602086016200149a565b601f01601f19169290920160200192915050565b60008251620011428184602087016200149a565b9190910192915050565b6001600160a01b0391909116815260200190565b6001600160a01b038a16815261012060208083018290528a5160009284019182916200118d818462001354565b9350818e019250845b81811015620011bb57620011ac85855162001075565b94509282019260010162001196565b505050508281036040840152620011d3818b6200108a565b90508860608401528281036080840152620011ef818962001100565b90508660a08401526200120660c08401876200107d565b82810360e08401526200121a8186620010cf565b9050828103610100840152620012318185620010cf565b9c9b505050505050505050505050565b6001600160a01b03929092168252602082015260400190565b6020808252825182820181905260009190848201906040850190845b818110156200129d5783516001600160a01b03168352928401929184019160010162001276565b50909695505050505050565b60208082528251828201819052600091906040908185019080840286018301878501865b838110156200133b57603f1989840301855281516080620012ef82516200148e565b85528882015189860152878201518189870152620013108287018262001100565b6060938401516001600160a01b031696909301959095525094870194925090860190600101620012cd565b509098975050505050505050565b901515815260200190565b90815260200190565b60006020825262000c12602083018462001100565b6020808252601890820152774f6e6c7920666f72207265676973746572656420534c417360401b604082015260600190565b6020808252601b908201527f536166654d6174683a206164646974696f6e206f766572666c6f770000000000604082015260600190565b6020808252602b908201527f5f736c6f4e616d6520646f6573206e6f7420657869737420696e20746865205360408201526a13104818dbdb9d1c9858dd60aa1b606082015260800190565b9283526001600160a01b03919091166020830152604082015260600190565b60405181810167ffffffffffffffff811182821017156200146557600080fd5b604052919050565b600067ffffffffffffffff82111562001484578081fd5b5060209081020190565b6001600160a01b031690565b60005b83811015620014b75781810151838201526020016200149d565b83811115620014c7576000848401525b50505050565b6001600160a01b0381168114620014e357600080fd5b5056fe60806040523480156200001157600080fd5b506040516200369938038062003699833981016040819052620000349162000796565b8282828b60006200004462000296565b600080546001600160a01b0319166001600160a01b03831690811782556040519293509160008051602062003679833981519152908290a3508151835114620000aa5760405162461bcd60e51b8152600401620000a19062000928565b60405180910390fd5b600480546001600160a01b038084166001600160a01b0319928316179092556001805492871692821683178155600680548083019091557ff652222313e28459528d920b65115c16c04f3efc82aaedc97be59f3f377c0d3f01805490921683179091556000918252600760205260408220805460ff191690911790555b835181101562000174576200016b8482815181106200014257fe5b60200260200101518483815181106200015757fe5b60200260200101516200029a60201b60201c565b60010162000127565b505050505060058751106200019d5760405162461bcd60e51b8152600401620000a190620009f5565b8651885114620001c15760405162461bcd60e51b8152600401620000a190620009a6565b60005b87518110156200023557878181518110620001db57fe5b6020026020010151601160008b8481518110620001f457fe5b602090810291909101810151825281019190915260400160002080546001600160a01b0319166001600160a01b0392909216919091179055600101620001c4565b506200024189620003f1565b8751620002569060139060208b019062000520565b50600d86905584516200027190600f90602088019062000570565b5050601080546001600160a01b031916331790555050600e555062000abf9350505050565b3390565b620002a4620005e2565b82815260208101828152600060808301818152600280546001810182559281905284517f405787fa12a823e0f2b7631cc41b3ba8828b3321ca811111fa75cd3aa3bb5ace600690940293840190815593517f405787fa12a823e0f2b7631cc41b3ba8828b3321ca811111fa75cd3aa3bb5acf84015560408501517f405787fa12a823e0f2b7631cc41b3ba8828b3321ca811111fa75cd3aa3bb5ad084015560608501517f405787fa12a823e0f2b7631cc41b3ba8828b3321ca811111fa75cd3aa3bb5ad1909301805460ff19169315159390931780845591518594939092909161ff0019909116906101009084908111156200039c57fe5b02179055505050620003c360016002805490506200049e60201b62001b881790919060201c565b6040517ff791e873e3b67fe74b29aeede7bcbbdaa59c4b64e542571183cd837aa56f6ac990600090a2505050565b620003fb62000296565b6000546001600160a01b039081169116146200042b5760405162461bcd60e51b8152600401620000a19062000971565b6001600160a01b038116620004545760405162461bcd60e51b8152600401620000a190620008e2565b600080546040516001600160a01b03808516939216916000805160206200367983398151915291a3600080546001600160a01b0319166001600160a01b0392909216919091179055565b6000620004e883836040518060400160405280601e81526020017f536166654d6174683a207375627472616374696f6e206f766572666c6f770000815250620004f160201b60201c565b90505b92915050565b60008184841115620005185760405162461bcd60e51b8152600401620000a19190620008ad565b505050900390565b8280548282559060005260206000209081019282156200055e579160200282015b828111156200055e57825182559160200191906001019062000541565b506200056c9291506200061e565b5090565b828054600181600116156101000203166002900490600052602060002090601f016020900481019282601f10620005b357805160ff19168380011785556200055e565b828001600101855582156200055e57918201828111156200055e57825182559160200191906001019062000541565b6040518060a00160405280600081526020016000815260200160008152602001600015158152602001600060028111156200061957fe5b905290565b5b808211156200056c57600081556001016200061f565b8051620004eb8162000aa6565b600082601f83011262000653578081fd5b81516200066a620006648262000a53565b62000a2c565b8181529150602080830190848101818402860182018710156200068c57600080fd5b60005b84811015620006ad578151845292820192908201906001016200068f565b505050505092915050565b600082601f830112620006c9578081fd5b8151620006da620006648262000a53565b818152915060208083019084810181840286018201871015620006fc57600080fd5b60005b84811015620006ad578151620007158162000aa6565b84529282019290820190600101620006ff565b600082601f83011262000739578081fd5b81516001600160401b038111156200074f578182fd5b62000764601f8201601f191660200162000a2c565b91508082528360208285010111156200077c57600080fd5b6200078f81602084016020860162000a73565b5092915050565b60008060008060008060008060006101208a8c031215620007b5578485fd5b620007c18b8b62000635565b60208b01519099506001600160401b0380821115620007de578687fd5b620007ec8d838e0162000642565b995060408c015191508082111562000802578687fd5b620008108d838e01620006b8565b985060608c0151975060808c01519150808211156200082d578687fd5b6200083b8d838e0162000728565b965060a08c01519550620008538d60c08e0162000635565b945060e08c015191508082111562000869578384fd5b620008778d838e0162000642565b93506101008c01519150808211156200088e578283fd5b506200089d8c828d0162000642565b9150509295985092959850929598565b6000602082528251806020840152620008ce81604085016020870162000a73565b601f01601f19169190910160400192915050565b60208082526026908201527f4f776e61626c653a206e6577206f776e657220697320746865207a65726f206160408201526564647265737360d01b606082015260800190565b60208082526029908201527f506c6561736520636865636b2074686520706172616d73206f6620796f757220604082015268706572696f6473202160b81b606082015260800190565b6020808252818101527f4f776e61626c653a2063616c6c6572206973206e6f7420746865206f776e6572604082015260600190565b6020808252602f908201527f5f534c4f4e616d657320616e64205f534c4f732073686f756c6420686176652060408201526e0e8d0ca40e6c2daca40d8cadccee8d608b1b606082015260800190565b60208082526017908201527f6d617820616d6f756e74206f6620534c4f732069732035000000000000000000604082015260600190565b6040518181016001600160401b038111828210171562000a4b57600080fd5b604052919050565b60006001600160401b0382111562000a69578081fd5b5060209081020190565b60005b8381101562000a9057818101518382015260200162000a76565b8381111562000aa0576000848401525b50505050565b6001600160a01b038116811462000abc57600080fd5b50565b612baa8062000acf6000396000f3fe608060405234801561001057600080fd5b50600436106101f75760003560e01c806394199c6111610120578063ea4a1104116100b8578063f3fef3a31161007c578063f3fef3a314610468578063fbbf93a01461047b578063fc875ece14610494578063fd0d5534146104b5578063fd5e6dd1146104c8576101f7565b8063ea4a1104146103f8578063ec04de481461041c578063f10bd7721461042f578063f2fde38b14610442578063f34ed40d14610455576101f7565b806394199c6114610352578063a2e80c5e14610374578063ae169a501461037c578063b0227b471461038f578063b5d5b5fa146103a2578063b83e0234146103b5578063c623674f146103c8578063cec534d6146103dd578063e7ab816a146103f0576101f7565b806357ac94f01161019357806357ac94f0146102d05780635e5f2e26146102f1578063715018a61461030457806375fdf2a91461030c5780637b1039991461031f578063817b1cd214610327578063869c39251461032f5780638da5cb5b1461034257806390f817021461034a576101f7565b806302e8b893146101fc5780630e1fcf3414610225578063105237cf1461023a578063171e44ea1461025a5780631934d0e81461026d5780632eac9787146102805780633a4b66f1146102a05780633a5381b5146102a857806353e85fd5146102bd575b600080fd5b61020f61020a366004612464565b6104db565b60405161021c9190612659565b60405180910390f35b61023861023336600461247c565b61056c565b005b61024d610248366004612391565b6105b8565b60405161021c91906126b2565b610238610268366004612391565b6105cd565b61024d61027b3660046123ad565b6106a2565b61029361028e3660046123ad565b6106c2565b60405161021c91906126bd565b6102936106df565b6102b06106e5565b60405161021c9190612563565b6102386102cb366004612464565b6106f4565b6102e36102de3660046123e5565b610a12565b60405161021c92919061259b565b6102b06102ff366004612464565b610a92565b610238610ab9565b61023861031a366004612410565b610b38565b6102b0610e9b565b610293610eaa565b61023861033d36600461249d565b610eb0565b6102b061110d565b6102b061111c565b61036561036036600461247c565b61112b565b60405161021c93929190612ae3565b61029361116a565b61023861038a366004612464565b611170565b6102b061039d366004612464565b61134a565b6102e36103b03660046123e5565b611365565b6102936103c3366004612391565b6113a8565b6103d06113ba565b60405161021c91906126c6565b6102386103eb3660046124e4565b611448565b6102936114fb565b61040b610406366004612464565b611501565b60405161021c959493929190612af9565b61029361042a366004612391565b611544565b61029361043d3660046123e5565b61155f565b610238610450366004612391565b61160d565b610293610463366004612464565b6116c3565b6102386104763660046123e5565b6116e1565b61048361194f565b60405161021c9594939291906125b4565b6104a76104a2366004612464565b611b1f565b60405161021c929190612ad5565b6102936104c3366004612391565b611b69565b6102b06104d6366004612464565b611b7b565b606060126000838152602001908152602001600020805480602002602001604051908101604052809291908181526020016000905b828210156105605783829060005260206000209060030201604051806060016040529081600082015481526020016001820154815260200160028201548152505081526020019060010190610510565b5050505090505b919050565b610574611bca565b6000546001600160a01b039081169116146105aa5760405162461bcd60e51b81526004016105a190612992565b60405180910390fd5b6105b48282611bce565b5050565b60076020526000908152604090205460ff1681565b6105d5611bca565b6000546001600160a01b039081169116146106025760405162461bcd60e51b81526004016105a190612992565b6001600160a01b03811660009081526007602052604090205460ff161561063b5760405162461bcd60e51b81526004016105a1906128a0565b6006805460018181019092557ff652222313e28459528d920b65115c16c04f3efc82aaedc97be59f3f377c0d3f0180546001600160a01b039093166001600160a01b031990931683179055600091825260076020526040909120805460ff19169091179055565b600b60209081526000928352604080842090915290825290205460ff1681565b600a60209081526000928352604080842090915290825290205481565b600d5481565b6004546001600160a01b031681565b806002818154811061070257fe5b906000526020600020906006020160000154421015801561074157506002818154811061072b57fe5b9060005260206000209060060201600101544211155b61074a57600080fd5b6004546001600160a01b03163314156107755760405162461bcd60e51b81526004016105a19061283a565b600280838154811061078357fe5b906000526020600020906006020160030160019054906101000a900460ff1660028111156107ad57fe5b146107ca5760405162461bcd60e51b81526004016105a19061274f565b600282815481106107d757fe5b6000918252602080832033845260056006909302019190910190526040902054156108145760405162461bcd60e51b81526004016105a190612a78565b6000610820338461155f565b9050600061083a600a610834846003611d10565b90611d4a565b60035490915061084a9083611b88565b600381905550816002858154811061085e57fe5b600091825260208083203380855260069390930201600501905260409182902092909255600154905163a9059cbb60e01b81526001600160a01b039091169163a9059cbb916108b29190869060040161259b565b602060405180830381600087803b1580156108cc57600080fd5b505af11580156108e0573d6000803e3d6000fd5b505050506040513d601f19601f820116820180604052508101906109049190612444565b50600154604080518082018252600d81526c6275726e2875696e743235362960981b602090910152516000916001600160a01b0316907f42966c689b5afe9b9b3f8a7103b2a19980d59629bfd6a20a60972312ed41d8369061096a9085906024016126bd565b60408051601f198184030181529181526020820180516001600160e01b03166001600160e01b03199094169390931790925290516109a89190612547565b6000604051808303816000865af19150503d80600081146109e5576040519150601f19603f3d011682016040523d82523d6000602084013e6109ea565b606091505b5050905080610a0b5760405162461bcd60e51b81526004016105a1906126d9565b5050505050565b6001600160a01b0382166000908152600960205260408120805482919084908110610a3957fe5b600091825260208083206002909202909101546001600160a01b03878116845260099092526040909220805491909216919085908110610a7557fe5b906000526020600020906002020160010154915091509250929050565b60068181548110610a9f57fe5b6000918252602090912001546001600160a01b0316905081565b610ac1611bca565b6000546001600160a01b03908116911614610aee5760405162461bcd60e51b81526004016105a190612992565b600080546040516001600160a01b03909116907f8be0079c531659141344cd1fd0a4f28419497f9722a3daafe3b4186f6b6457e0908390a3600080546001600160a01b0319169055565b6004546001600160a01b0316331415610b635760405162461bcd60e51b81526004016105a19061283a565b6001600160a01b038316600090815260076020526040902054839060ff161515600114610ba25760405162461bcd60e51b81526004016105a190612964565b600060028381548110610bb157fe5b600091825260208083206001600160a01b03891684526004600690930201919091018152604080832033845290915290205411610c005760405162461bcd60e51b81526004016105a190612869565b6040516323b872dd60e01b81526001600160a01b038516906323b872dd90610c3090339030908890600401612577565b602060405180830381600087803b158015610c4a57600080fd5b505af1158015610c5e573d6000803e3d6000fd5b505050506040513d601f19601f82011682018060405250810190610c829190612444565b50610ccc8360028481548110610c9457fe5b600091825260208083206001600160a01b038a1684526004600690930201919091018152604080832033845290915290205490611d8c565b60028381548110610cd957fe5b600091825260208083206001600160a01b038916845260046006909302019190910181526040808320338452909152902055600354610d189084611d8c565b600355610d258484611db1565b600060028381548110610d3457fe5b600091825260208083206001600160a01b03891684526004600690930201919091018152604080832033845290915281205460055460028054929450610d9e9287908110610d7e57fe5b906000526020600020906006020160020154611d4a90919063ffffffff16565b9050600060028581548110610daf57fe5b600091825260208083206001600160a01b038b16845260046006909302019190910181526040808320338452909152902055600354610dee9083611b88565b6003556001546001600160a01b031663a9059cbb33610e0d8585611b88565b6040518363ffffffff1660e01b8152600401610e2a92919061259b565b602060405180830381600087803b158015610e4457600080fd5b505af1158015610e58573d6000803e3d6000fd5b505050506040513d601f19601f82011682018060405250810190610e7c9190612444565b50600154610e93906001600160a01b031683611f51565b505050505050565b6010546001600160a01b031681565b60035481565b601060009054906101000a90046001600160a01b03166001600160a01b0316633cb747bf6040518163ffffffff1660e01b815260040160206040518083038186803b158015610efe57600080fd5b505afa158015610f12573d6000803e3d6000fd5b505050506040513d601f19601f82011682018060405250810190610f3691906124c8565b6001600160a01b0316336001600160a01b031614610f665760405162461bcd60e51b81526004016105a1906127f5565b600083815260126020908152604080832081516060810183524280825281850188815282850188815284546001818101875595895296909720925160039096029092019485559051918401919091559251600290920191909155517fc95987c1992805ee34bdc915e017cceae36ba1c156b9911fa7e691e6435eb46e91610ff09185908590612ae3565b60405180910390a16000838152601160205260409081902054905163868d08f760e01b81526001600160a01b039091169063868d08f7906110359085906004016126bd565b60206040518083038186803b15801561104d57600080fd5b505afa158015611061573d6000803e3d6000fd5b505050506040513d601f19601f820116820180604052508101906110859190612444565b6110ca57600280828154811061109757fe5b60009182526020909120600360069092020101805461ff0019166101008360028111156110c057fe5b0217905550611108565b6001600282815481106110d957fe5b60009182526020909120600360069092020101805461ff00191661010083600281111561110257fe5b02179055505b505050565b6000546001600160a01b031690565b6001546001600160a01b031681565b6012602052816000526040600020818154811061114457fe5b600091825260209091206003909102018054600182015460029092015490935090915083565b60055490565b806002818154811061117e57fe5b90600052602060002090600602016000015442101580156111bd5750600281815481106111a757fe5b9060005260206000209060060201600101544211155b6111c657600080fd5b6004546001600160a01b031633146111f05760405162461bcd60e51b81526004016105a190612a45565b6001600283815481106111ff57fe5b906000526020600020906006020160030160019054906101000a900460ff16600281111561122957fe5b146112465760405162461bcd60e51b81526004016105a190612722565b6002828154811061125357fe5b600091825260209091206003600690920201015460ff16156112875760405162461bcd60e51b81526004016105a1906128cd565b60025460035460009161129a9190611d4a565b905060006112ae600a610834846003611d10565b6003549091506112be9083611b88565b60038190555081600285815481106112d257fe5b9060005260206000209060060201600201819055506001600285815481106112f657fe5b60009182526020909120600690910201600301805460ff191691151591909117905560015460405163a9059cbb60e01b81526001600160a01b039091169063a9059cbb906108b2903390869060040161259b565b6011602052600090815260409020546001600160a01b031681565b6009602052816000526040600020818154811061137e57fe5b6000918252602090912060029091020180546001909101546001600160a01b039091169250905082565b60086020526000908152604090205481565b600f805460408051602060026001851615610100026000190190941693909304601f810184900484028201840190925281815292918301828280156114405780601f1061141557610100808354040283529160200191611440565b820191906000526020600020905b81548152906001019060200180831161142357829003601f168201915b505050505081565b601054604051635948284760e11b81526000916001600160a01b03169063b290508e90611479903390600401612563565b602060405180830381600087803b15801561149357600080fd5b505af11580156114a7573d6000803e3d6000fd5b505050506040513d601f19601f820116820180604052508101906114cb9190612444565b9050806114ea5760405162461bcd60e51b81526004016105a1906129c7565b6114f5848484612027565b50505050565b600e5490565b6002818154811061150e57fe5b60009182526020909120600690910201805460018201546002830154600390930154919350919060ff8082169161010090041685565b6001600160a01b031660009081526009602052604090205490565b6001600160a01b0382166000908152600860205260408120548190156116045760005b600654811015611602576115f86002858154811061159c57fe5b90600052602060002090600602016004016000600684815481106115bc57fe5b60009182526020808320909101546001600160a01b0390811684528382019490945260409283018220938a168252929092529020548390611d8c565b9150600101611582565b505b90505b92915050565b611615611bca565b6000546001600160a01b039081169116146116425760405162461bcd60e51b81526004016105a190612992565b6001600160a01b0381166116685760405162461bcd60e51b81526004016105a190612778565b600080546040516001600160a01b03808516939216917f8be0079c531659141344cd1fd0a4f28419497f9722a3daafe3b4186f6b6457e091a3600080546001600160a01b0319166001600160a01b0392909216919091179055565b601381815481106116d057fe5b600091825260209091200154905081565b6004546001600160a01b031633141561170c5760405162461bcd60e51b81526004016105a19061283a565b6001600160a01b038216600090815260076020526040902054829060ff16151560011461174b5760405162461bcd60e51b81526004016105a190612964565b60006002838154811061175a57fe5b600091825260208083206001600160a01b038816845260046006909302019190910181526040808320338452909152902054116117a95760405162461bcd60e51b81526004016105a190612869565b6000600283815481106117b857fe5b600091825260208083206001600160a01b038816845260046006909302019190910181526040808320338452909152812054600554600280549294506118029287908110610d7e57fe5b905060006002858154811061181357fe5b600091825260208083206001600160a01b038a168452600460069093020191909101815260408083203384529091529020556003546118529083611b88565b6003556001600160a01b03851663a9059cbb3361186f8585611b88565b6040518363ffffffff1660e01b815260040161188c92919061259b565b602060405180830381600087803b1580156118a657600080fd5b505af11580156118ba573d6000803e3d6000fd5b505050506040513d601f19601f820116820180604052508101906118de9190612444565b50336000908152600860205260409020546118fa906001611b88565b33600090815260086020526040902081905561194557600061191b33612211565b90506005818154811061192a57fe5b600091825260209091200180546001600160a01b0319169055505b610a0b8583611f51565b600060606000606080606060138054905067ffffffffffffffff8111801561197657600080fd5b506040519080825280602002602001820160405280156119a0578160200160208202803683370190505b50905060005b601354811015611a1a5760116000601383815481106119c157fe5b9060005260206000200154815260200190815260200160002060009054906101000a90046001600160a01b03168282815181106119fa57fe5b6001600160a01b03909216602092830291909101909101526001016119a6565b50611a2361110d565b600d54600f805460408051602060026001851615610100026000190190941693909304601f810184900484028201840190925281815292939260139287928691830182828015611ab45780601f10611a8957610100808354040283529160200191611ab4565b820191906000526020600020905b815481529060010190602001808311611a9757829003601f168201915b5050505050935081805480602002602001604051908101604052809291908181526020018280548015611b0657602002820191906000526020600020905b815481526020019060010190808311611af2575b5050505050915095509550955095509550509091929394565b60008060028381548110611b2f57fe5b90600052602060002090600602016000015460028481548110611b4e57fe5b90600052602060002090600602016001015491509150915091565b600c6020526000908152604090205481565b60058181548110610a9f57fe5b600061160483836040518060400160405280601e81526020017f536166654d6174683a207375627472616374696f6e206f766572666c6f77000081525061226a565b3390565b611bd6612356565b82815260208101828152600060808301818152600280546001810182559281905284517f405787fa12a823e0f2b7631cc41b3ba8828b3321ca811111fa75cd3aa3bb5ace600690940293840190815593517f405787fa12a823e0f2b7631cc41b3ba8828b3321ca811111fa75cd3aa3bb5acf84015560408501517f405787fa12a823e0f2b7631cc41b3ba8828b3321ca811111fa75cd3aa3bb5ad084015560608501517f405787fa12a823e0f2b7631cc41b3ba8828b3321ca811111fa75cd3aa3bb5ad1909301805460ff19169315159390931780845591518594939092909161ff001990911690610100908490811115611ccd57fe5b021790555050600254611ce291506001611b88565b6040517ff791e873e3b67fe74b29aeede7bcbbdaa59c4b64e542571183cd837aa56f6ac990600090a2505050565b600082611d1f57506000611607565b82820282848281611d2c57fe5b04146116045760405162461bcd60e51b81526004016105a190612923565b600061160483836040518060400160405280601a81526020017f536166654d6174683a206469766973696f6e206279207a65726f000000000000815250612296565b6000828201838110156116045760405162461bcd60e51b81526004016105a1906127be565b336000908152600b602090815260408083206001600160a01b038616845290915290205460ff16611e7c57336000818152600960209081526040808320815180830183526001600160a01b03888116808352828601898152845460018082018755868a52888a209551600290920290950180546001600160a01b0319169190941617835551918301919091558686529154600a85528386208387528552838620600019919091019055948452600b83528184209084529091529020805460ff19169091179055611f0e565b336000818152600a602090815260408083206001600160a01b0387168452825280832054938352600990915290208054611edc91849184908110611ebc57fe5b906000526020600020906002020160010154611d8c90919063ffffffff16565b336000908152600960205260409020805483908110611ef757fe5b906000526020600020906002020160010181905550505b6001600160a01b0382166000908152600c6020526040902054611f319082611d8c565b6001600160a01b039092166000908152600c602052604090209190915550565b336000818152600a602090815260408083206001600160a01b0387168452825280832054938352600990915290208054611fb191849184908110611f9157fe5b906000526020600020906002020160010154611b8890919063ffffffff16565b336000908152600960205260409020805483908110611fcc57fe5b60009182526020808320600160029093020191909101929092556001600160a01b0385168152600c90915260409020546120069083611b88565b6001600160a01b039093166000908152600c60205260409020929092555050565b6001600160a01b038216600090815260076020526040902054829060ff1615156001146120665760405162461bcd60e51b81526004016105a190612964565b600084116120865760405162461bcd60e51b81526004016105a190612a19565b6120913384846122cd565b6040516323b872dd60e01b81526001600160a01b038416906323b872dd906120c190339030908990600401612577565b602060405180830381600087803b1580156120db57600080fd5b505af11580156120ef573d6000803e3d6000fd5b505050506040513d601f19601f820116820180604052508101906121139190612444565b5061215d846002848154811061212557fe5b600091825260208083206001600160a01b03891684526004600690930201919091018152604080832033845290915290205490611d8c565b6002838154811061216a57fe5b600091825260208083206001600160a01b0388168452600460069093020191909101815260408083203384529091529020556003546121a99085611d8c565b600355336000908152600860205260409020546001141561220757600580546001810182556000919091527f036b6384b5eca791c62761152d0c79bb0604c104a5fb6f4eb0703f3154bb3db00180546001600160a01b031916331790555b6114f58385611db1565b6000805b60055481101561226057826001600160a01b03166005828154811061223657fe5b6000918252602090912001546001600160a01b03161415612258579050610567565b600101612215565b5060001992915050565b6000818484111561228e5760405162461bcd60e51b81526004016105a191906126c6565b505050900390565b600081836122b75760405162461bcd60e51b81526004016105a191906126c6565b5060008385816122c357fe5b0495945050505050565b6000600282815481106122dc57fe5b600091825260208083206001600160a01b0387811685526006939093020160040181526040808420928816845291905290205411611108576001600160a01b038316600090815260086020526040902054612338906001611d8c565b6001600160a01b038416600090815260086020526040902055505050565b6040518060a001604052806000815260200160008152602001600081526020016000151581526020016000600281111561238c57fe5b905290565b6000602082840312156123a2578081fd5b813561160481612b5c565b600080604083850312156123bf578081fd5b82356123ca81612b5c565b915060208301356123da81612b5c565b809150509250929050565b600080604083850312156123f7578182fd5b823561240281612b5c565b946020939093013593505050565b600080600060608486031215612424578081fd5b833561242f81612b5c565b95602085013595506040909401359392505050565b600060208284031215612455578081fd5b81518015158114611604578182fd5b600060208284031215612475578081fd5b5035919050565b6000806040838503121561248e578182fd5b50508035926020909101359150565b6000806000606084860312156124b1578283fd5b505081359360208301359350604090920135919050565b6000602082840312156124d9578081fd5b815161160481612b5c565b6000806000606084860312156124f8578283fd5b83359250602084013561250a81612b5c565b929592945050506040919091013590565b60008151808452612533816020860160208601612b30565b601f01601f19169290920160200192915050565b60008251612559818460208701612b30565b9190910192915050565b6001600160a01b0391909116815260200190565b6001600160a01b039384168152919092166020820152604081019190915260600190565b6001600160a01b03929092168252602082015260400190565b600060018060a01b038088168352602060a0818501526125d760a085018961251b565b604085018890528481036060860152865180825282880191830190855b81811015612610578351835292840192918401916001016125f4565b505085810360808701528651808252908301915082870190855b8181101561264857825186168452928401929184019160010161262a565b50919b9a5050505050505050505050565b602080825282518282018190526000919060409081850190868401855b828110156126a55781518051855286810151878601528501518585015260609093019290850190600101612676565b5091979650505050505050565b901515815260200190565b90815260200190565b600060208252611604602083018461251b565b60208082526029908201527f42617365546f6b656e206275726e2070726f6365737320776173206e6f7420736040820152681d58d8d95cdcd99d5b60ba1b606082015260800190565b602080825260139082015272534c41206e6f7420726573706563746564202160681b604082015260600190565b6020808252600f908201526e534c4120726573706563746564202160881b604082015260600190565b60208082526026908201527f4f776e61626c653a206e6577206f776e657220697320746865207a65726f206160408201526564647265737360d01b606082015260800190565b6020808252601b908201527f536166654d6174683a206164646974696f6e206f766572666c6f770000000000604082015260600190565b60208082526025908201527f4f6e6c79204d657373656e6765722063616e2063616c6c20746869732066756e60408201526431ba34b7b760d91b606082015260800190565b602080825260159082015274596f752061726520612076616c696461746f72202160581b604082015260600190565b6020808252601b908201527f7374616b696e672062616c616e63652063616e6e6f7420626520300000000000604082015260600190565b6020808252601390820152721d1bdad95b88185b1c9958591e481859191959606a1b604082015260600190565b60208082526036908201527f596f75206861766520616c726561647920636c61696d656420796f75722072656040820152757761726420666f72207468697320706572696f64202160501b606082015260800190565b60208082526021908201527f536166654d6174683a206d756c7469706c69636174696f6e206f766572666c6f6040820152607760f81b606082015260800190565b6020808252601490820152731d1bdad95b881a5cc81b9bdd08185b1b1bddd95960621b604082015260600190565b6020808252818101527f4f776e61626c653a2063616c6c6572206973206e6f7420746865206f776e6572604082015260600190565b60208082526032908201527f736c6120776173206e6f742072656769737465726564206173207374616b656460408201527110313c903a34329036b9b39739b2b73232b960711b606082015260800190565b6020808252601290820152710616d6f756e742063616e6e6f7420626520360741b604082015260600190565b602080825260199082015278596f7520617265206e6f7420612076616c696461746f72202160381b604082015260600190565b6020808252603c908201527f596f75206861766520616c726561647920636c61696d656420796f757220636f60408201527f6d70656e736174696f6e20666f72207468697320706572696f64202100000000606082015260800190565b918252602082015260400190565b9283526020830191909152604082015260600190565b8581526020810185905260408101849052821515606082015260a0810160038310612b2057fe5b8260808301529695505050505050565b60005b83811015612b4b578181015183820152602001612b33565b838111156114f55750506000910152565b6001600160a01b0381168114612b7157600080fd5b5056fea2646970667358221220db6ecbbc020ced1d0dace72d3c0a2a7dc8fe1bd47173d25b3533df3808fc8cf364736f6c634300060c00338be0079c531659141344cd1fd0a4f28419497f9722a3daafe3b4186f6b6457e0a264697066735822122008f5ffe0bb10627ee4301d6f474d6778ba9d8d429136bb32d185b2abdbc2109364736f6c634300060c0033",
  "immutableReferences": {},
  "source": "// SPDX-License-Identifier: MIT\npragma solidity ^0.6.0;\npragma experimental ABIEncoderV2;\n\nimport \"@openzeppelin/contracts/math/SafeMath.sol\";\nimport \"./Messenger.sol\";\nimport \"./SLA/SLA.sol\";\nimport \"./SLO/SLO.sol\";\n\n/**\n * @title SLARegistry\n * @dev SLARegistry is a contract for handling creation of service level\n * agreements and keeping track of the created agreements\n */\ncontract SLARegistry {\n    using SafeMath for uint256;\n    bytes4 private constant NAME_SELECTOR = bytes4(keccak256(bytes(\"name()\")));\n\n    /// @dev struct to return on getActivePool function.\n    struct ActivePool {\n        address SLAaddress;\n        uint256 stake;\n        string assetName;\n        address assetAddress;\n    }\n\n    /// @dev Messenger of the SLA Registry\n    Messenger public messenger;\n\n    /// @dev stores the addresses of created SLAs\n    SLA[] public SLAs;\n\n    /// @dev mapping SLA=>bool to check if SLA is registered\n    mapping(address => bool) public registeredSLAs;\n\n    /// @dev stores the indexes of service level agreements owned by an user\n    mapping(address => uint256[]) private userToSLAIndexes;\n\n    /// @dev mapping userAddress => SLA[]\n    mapping(address => SLA[]) public userStakedSlas;\n\n    modifier onlyRegisteredSla {\n        require(registeredSLAs[msg.sender] == true, \"Only for registered SLAs\");\n        _;\n    }\n\n    /**\n     * @dev event for service level agreement creation logging\n     * @param sla 1. The address of the created service level agreement contract\n     * @param owner 2. The address of the owner of the service level agreement\n     */\n    event SLACreated(SLA indexed sla, address indexed owner);\n\n    /**\n     * @dev constructor\n     * @param _messengerAddress the address of the chainlink messenger contract\n     */\n    constructor(Messenger _messengerAddress) public {\n        messenger = _messengerAddress;\n        messenger.setSLARegistry();\n    }\n\n    /**\n     * @dev public function for creating service level agreements\n     * @param _owner 1. address of the owner of the service level agreement\n     * @param _SLONames 2. array of the names of the service level objectives\n     * in bytes32\n     * @param _SLOs 3. array of service level objective contract addressess\n     * service level objective breach\n     * @param _stake 4. uint of the amount required to stake when signing the\n     * service level agreement\n     * @param _ipfsHash 5. string with the ipfs hash that contains extra\n     * information about the service level agreement\n     * @param _sliInterval 6. uint the interval in seconds between requesting a new SLI\n     * @param _baseTokenAddress 7. address of the base token\n     * @param _sla_period_starts 8. array with the values for the \"start\" of every period\n     * @param _sla_period_ends 9. array with the values for the \"end\" of every period\n     */\n    function createSLA(\n        address _owner,\n        bytes32[] memory _SLONames,\n        SLO[] memory _SLOs,\n        uint256 _stake,\n        string memory _ipfsHash,\n        uint256 _sliInterval,\n        address _baseTokenAddress,\n        uint256[] memory _sla_period_starts,\n        uint256[] memory _sla_period_ends\n    ) public {\n        SLA sla =\n            new SLA(\n                _owner,\n                _SLONames,\n                _SLOs,\n                _stake,\n                _ipfsHash,\n                _sliInterval,\n                _baseTokenAddress,\n                _sla_period_starts,\n                _sla_period_ends\n            );\n\n        SLAs.push(sla);\n        registeredSLAs[address(sla)] = true;\n        uint256 index = SLAs.length.sub(1);\n\n        userToSLAIndexes[msg.sender].push(index);\n\n        emit SLACreated(sla, _owner);\n    }\n\n    /**\n     * @dev Gets SLI information for the specified SLA and SLO\n     * @param _periodId 1. id of the period\n     * @param _sla 2. SLA Address\n     * @param _sloName 3. SLO Name\n     * @notice it will revert if the SLO is not registered in the SLA\n     */\n    function requestSLI(\n        uint256 _periodId,\n        SLA _sla,\n        bytes32 _sloName\n    ) public {\n        require(\n            address(SLA(_sla).SLOs(_sloName)) != address(0),\n            \"_sloName does not exist in the SLA contract\"\n        );\n        messenger.requestSLI(_periodId, _sla, _sloName);\n    }\n\n    /**\n     * @dev public view function that returns the service level agreements that\n     * the given user is the owner of\n     * @param _user Address of the user for which to return the service level\n     * agreements\n     * @return array of SLAs\n     */\n    function userSLAs(address _user) public view returns (SLA[] memory) {\n        uint256 count = userSLACount(_user);\n        SLA[] memory SLAList = new SLA[](count);\n        uint256[] memory userSLAIndexes = userToSLAIndexes[_user];\n\n        for (uint256 i = 0; i < count; i++) {\n            SLAList[i] = (SLAs[userSLAIndexes[i]]);\n        }\n\n        return (SLAList);\n    }\n\n    /**\n     * @dev public view function that returns the amount of service level\n     * agreements the given user is the owner of\n     * @param _user 1. address of the user for which to return the amount of\n     * service level agreements\n     * @return uint256 corresponding to the amount of user's SLAs\n     */\n    function userSLACount(address _user) public view returns (uint256) {\n        return userToSLAIndexes[_user].length;\n    }\n\n    /**\n     * @dev public view function that returns all the service level agreements\n     * @return SLA[] array of SLAs\n     */\n    function allSLAs() public view returns (SLA[] memory) {\n        return (SLAs);\n    }\n\n    /**\n     * @dev public view function that returns the total amount of service\n     * level agreements\n     * @return uint256, the length of SLA array\n     */\n    function SLACount() public view returns (uint256) {\n        return SLAs.length;\n    }\n\n    /**\n     *@dev public view function that returns true if the _owner has staked on _sla\n     *@param _user 1. address to check\n     *@param _sla 2. sla to check\n     *@return bool, true if _sla was staked by _user\n     */\n    function slaWasStakedByUser(address _user, address _sla)\n        public\n        view\n        returns (bool)\n    {\n        for (uint256 index = 0; index < userStakedSlas[_user].length; index++) {\n            if (address(userStakedSlas[_user][index]) == _sla) {\n                return true;\n            }\n        }\n        return false;\n    }\n\n    /**\n     *@dev register the sending SLA contract as staked by _owner\n     *@param _owner 1. SLA contract to stake\n     */\n    function registerStakedSla(address _owner)\n        public\n        onlyRegisteredSla\n        returns (bool)\n    {\n        if (slaWasStakedByUser(_owner, msg.sender) == false) {\n            userStakedSlas[_owner].push(SLA(msg.sender));\n        }\n        return true;\n    }\n\n    /**\n     * @dev returns the active pools owned by a user.\n     * @param _slaOwner 1. owner of the active pool\n     * @return ActivePool[], array of structs: {SLAaddress,stake,assetName}\n     */\n    function getActivePool(address _slaOwner)\n        public\n        view\n        returns (ActivePool[] memory)\n    {\n        uint256 stakeCounter = 0;\n        // Count the stakes of the user, checking every SLA staked\n        for (\n            uint256 index = 0;\n            index < userStakedSlas[_slaOwner].length;\n            index++\n        ) {\n            SLA currentSLA = SLA(userStakedSlas[_slaOwner][index]);\n            stakeCounter = stakeCounter.add(\n                currentSLA.getTokenStakeLength(_slaOwner)\n            );\n        }\n\n        ActivePool[] memory activePools = new ActivePool[](stakeCounter);\n        // to insert on activePools array\n        uint256 stakePosition = 0;\n        for (\n            uint256 index = 0;\n            index < userStakedSlas[_slaOwner].length;\n            index++\n        ) {\n            SLA currentSLA = userStakedSlas[_slaOwner][index];\n            for (\n                uint256 tokenIndex = 0;\n                tokenIndex < currentSLA.getTokenStakeLength(_slaOwner);\n                tokenIndex++\n            ) {\n                (address tokenAddress, uint256 stake) =\n                    currentSLA.getTokenStake(_slaOwner, tokenIndex);\n                (, bytes memory tokenNameBytes) =\n                    tokenAddress.staticcall(\n                        abi.encodeWithSelector(NAME_SELECTOR)\n                    );\n                ActivePool memory currentActivePool =\n                    ActivePool({\n                        SLAaddress: address(currentSLA),\n                        stake: stake,\n                        assetName: string(tokenNameBytes),\n                        assetAddress: tokenAddress\n                    });\n                activePools[stakePosition] = currentActivePool;\n                stakePosition = stakePosition.add(1);\n            }\n        }\n        return activePools;\n    }\n}\n",
  "sourcePath": "/Users/matiasbn/Desktop/stacktical/stacktical-dsla-contracts/contracts/SLARegistry.sol",
  "compiler": {
    "name": "solc",
    "version": "0.6.12+commit.27d51765.Emscripten.clang"
  },
  "schemaVersion": "3.2.5",
  "updatedAt": "2021-01-13T19:06:47.628Z",
  "devdoc": {
    "details": "SLARegistry is a contract for handling creation of service level agreements and keeping track of the created agreements",
    "events": {
      "SLACreated(address,address)": {
        "details": "event for service level agreement creation logging",
        "params": {
          "owner": "2. The address of the owner of the service level agreement",
          "sla": "1. The address of the created service level agreement contract"
        }
      }
    },
    "kind": "dev",
    "methods": {
      "SLACount()": {
        "details": "public view function that returns the total amount of service level agreements",
        "returns": {
          "_0": "uint256, the length of SLA array"
        }
      },
      "allSLAs()": {
        "details": "public view function that returns all the service level agreements",
        "returns": {
          "_0": "SLA[] array of SLAs"
        }
      },
      "constructor": {
        "details": "constructor",
        "params": {
          "_messengerAddress": "the address of the chainlink messenger contract"
        }
      },
      "createSLA(address,bytes32[],address[],uint256,string,uint256,address,uint256[],uint256[])": {
        "details": "public function for creating service level agreements",
        "params": {
          "_SLONames": "2. array of the names of the service level objectives in bytes32",
          "_SLOs": "3. array of service level objective contract addressess service level objective breach",
          "_baseTokenAddress": "7. address of the base token",
          "_ipfsHash": "5. string with the ipfs hash that contains extra information about the service level agreement",
          "_owner": "1. address of the owner of the service level agreement",
          "_sla_period_ends": "9. array with the values for the \"end\" of every period",
          "_sla_period_starts": "8. array with the values for the \"start\" of every period",
          "_sliInterval": "6. uint the interval in seconds between requesting a new SLI",
          "_stake": "4. uint of the amount required to stake when signing the service level agreement"
        }
      },
      "getActivePool(address)": {
        "details": "returns the active pools owned by a user.",
        "params": {
          "_slaOwner": "1. owner of the active pool"
        },
        "returns": {
          "_0": "ActivePool[], array of structs: {SLAaddress,stake,assetName}"
        }
      },
      "registerStakedSla(address)": {
        "details": "register the sending SLA contract as staked by _owner",
        "params": {
          "_owner": "1. SLA contract to stake"
        }
      },
      "requestSLI(uint256,address,bytes32)": {
        "details": "Gets SLI information for the specified SLA and SLO",
        "params": {
          "_periodId": "1. id of the period",
          "_sla": "2. SLA Address",
          "_sloName": "3. SLO Name"
        }
      },
      "slaWasStakedByUser(address,address)": {
        "details": "public view function that returns true if the _owner has staked on _sla",
        "params": {
          "_sla": "2. sla to check",
          "_user": "1. address to check"
        },
        "returns": {
          "_0": "bool, true if _sla was staked by _user"
        }
      },
      "userSLACount(address)": {
        "details": "public view function that returns the amount of service level agreements the given user is the owner of",
        "params": {
          "_user": "1. address of the user for which to return the amount of service level agreements"
        },
        "returns": {
          "_0": "uint256 corresponding to the amount of user's SLAs"
        }
      },
      "userSLAs(address)": {
        "details": "public view function that returns the service level agreements that the given user is the owner of",
        "params": {
          "_user": "Address of the user for which to return the service level agreements"
        },
        "returns": {
          "_0": "array of SLAs"
        }
      }
    },
    "stateVariables": {
      "SLAs": {
        "details": "stores the addresses of created SLAs"
      },
      "messenger": {
        "details": "Messenger of the SLA Registry"
      },
      "registeredSLAs": {
        "details": "mapping SLA=>bool to check if SLA is registered"
      },
      "userStakedSlas": {
        "details": "mapping userAddress => SLA[]"
      },
      "userToSLAIndexes": {
        "details": "stores the indexes of service level agreements owned by an user"
      }
    },
    "title": "SLARegistry",
    "version": 1
  },
  "userdoc": {
    "kind": "user",
    "methods": {
      "requestSLI(uint256,address,bytes32)": {
        "notice": "it will revert if the SLO is not registered in the SLA"
      }
    },
    "version": 1
  }
}