{
  "contractName": "SLARegistry",
  "abi": [
    {
      "inputs": [
        {
          "internalType": "contract SLORegistry",
          "name": "_sloRegistry",
          "type": "address"
        },
        {
          "internalType": "contract PeriodRegistry",
          "name": "_periodRegistry",
          "type": "address"
        },
        {
          "internalType": "contract MessengerRegistry",
          "name": "_messengerRegistry",
          "type": "address"
        },
        {
          "internalType": "contract StakeRegistry",
          "name": "_stakeRegistry",
          "type": "address"
        }
      ],
      "stateMutability": "nonpayable",
      "type": "constructor"
    },
    {
      "anonymous": false,
      "inputs": [
        {
          "indexed": true,
          "internalType": "address",
          "name": "previousOwner",
          "type": "address"
        },
        {
          "indexed": true,
          "internalType": "address",
          "name": "newOwner",
          "type": "address"
        }
      ],
      "name": "OwnershipTransferred",
      "type": "event"
    },
    {
      "anonymous": false,
      "inputs": [
        {
          "indexed": true,
          "internalType": "contract SLA",
          "name": "sla",
          "type": "address"
        },
        {
          "indexed": true,
          "internalType": "address",
          "name": "owner",
          "type": "address"
        }
      ],
      "name": "SLACreated",
      "type": "event"
    },
    {
      "inputs": [
        {
          "internalType": "uint256",
          "name": "",
          "type": "uint256"
        }
      ],
      "name": "SLAs",
      "outputs": [
        {
          "internalType": "contract SLA",
          "name": "",
          "type": "address"
        }
      ],
      "stateMutability": "view",
      "type": "function"
    },
    {
      "inputs": [],
      "name": "messengerRegistry",
      "outputs": [
        {
          "internalType": "contract MessengerRegistry",
          "name": "",
          "type": "address"
        }
      ],
      "stateMutability": "view",
      "type": "function"
    },
    {
      "inputs": [],
      "name": "owner",
      "outputs": [
        {
          "internalType": "address",
          "name": "",
          "type": "address"
        }
      ],
      "stateMutability": "view",
      "type": "function"
    },
    {
      "inputs": [],
      "name": "periodRegistry",
      "outputs": [
        {
          "internalType": "contract PeriodRegistry",
          "name": "",
          "type": "address"
        }
      ],
      "stateMutability": "view",
      "type": "function"
    },
    {
      "inputs": [
        {
          "internalType": "address",
          "name": "",
          "type": "address"
        }
      ],
      "name": "registeredSLAs",
      "outputs": [
        {
          "internalType": "bool",
          "name": "",
          "type": "bool"
        }
      ],
      "stateMutability": "view",
      "type": "function"
    },
    {
      "inputs": [],
      "name": "renounceOwnership",
      "outputs": [],
      "stateMutability": "nonpayable",
      "type": "function"
    },
    {
      "inputs": [],
      "name": "sloRegistry",
      "outputs": [
        {
          "internalType": "contract SLORegistry",
          "name": "",
          "type": "address"
        }
      ],
      "stateMutability": "view",
      "type": "function"
    },
    {
      "inputs": [],
      "name": "stakeRegistry",
      "outputs": [
        {
          "internalType": "contract StakeRegistry",
          "name": "",
          "type": "address"
        }
      ],
      "stateMutability": "view",
      "type": "function"
    },
    {
      "inputs": [
        {
          "internalType": "address",
          "name": "newOwner",
          "type": "address"
        }
      ],
      "name": "transferOwnership",
      "outputs": [],
      "stateMutability": "nonpayable",
      "type": "function"
    },
    {
      "inputs": [
        {
          "internalType": "address",
          "name": "",
          "type": "address"
        },
        {
          "internalType": "uint256",
          "name": "",
          "type": "uint256"
        }
      ],
      "name": "userStakedSlas",
      "outputs": [
        {
          "internalType": "contract SLA",
          "name": "",
          "type": "address"
        }
      ],
      "stateMutability": "view",
      "type": "function"
    },
    {
      "inputs": [
        {
          "internalType": "contract SLO",
          "name": "_SLO",
          "type": "address"
        },
        {
          "internalType": "string",
          "name": "_ipfsHash",
          "type": "string"
        },
        {
          "internalType": "enum PeriodRegistry.PeriodType",
          "name": "_periodType",
          "type": "uint8"
        },
        {
          "internalType": "uint256[]",
          "name": "_periodIds",
          "type": "uint256[]"
        },
        {
          "internalType": "address",
          "name": "_messengerAddress",
          "type": "address"
        }
      ],
      "name": "createSLA",
      "outputs": [],
      "stateMutability": "nonpayable",
      "type": "function"
    },
    {
      "inputs": [
        {
          "internalType": "uint256",
          "name": "_periodId",
          "type": "uint256"
        },
        {
          "internalType": "contract SLA",
          "name": "_sla",
          "type": "address"
        }
      ],
      "name": "requestSLI",
      "outputs": [],
      "stateMutability": "nonpayable",
      "type": "function"
    },
    {
      "inputs": [
        {
          "internalType": "address",
          "name": "_messengerAddress",
          "type": "address"
        }
      ],
      "name": "setMessengerSLARegistryAddress",
      "outputs": [],
      "stateMutability": "nonpayable",
      "type": "function"
    },
    {
      "inputs": [
        {
          "internalType": "address",
          "name": "_user",
          "type": "address"
        }
      ],
      "name": "userSLAs",
      "outputs": [
        {
          "internalType": "contract SLA[]",
          "name": "",
          "type": "address[]"
        }
      ],
      "stateMutability": "view",
      "type": "function"
    },
    {
      "inputs": [
        {
          "internalType": "address",
          "name": "_user",
          "type": "address"
        }
      ],
      "name": "userSLACount",
      "outputs": [
        {
          "internalType": "uint256",
          "name": "",
          "type": "uint256"
        }
      ],
      "stateMutability": "view",
      "type": "function"
    },
    {
      "inputs": [],
      "name": "allSLAs",
      "outputs": [
        {
          "internalType": "contract SLA[]",
          "name": "",
          "type": "address[]"
        }
      ],
      "stateMutability": "view",
      "type": "function"
    },
    {
      "inputs": [],
      "name": "SLACount",
      "outputs": [
        {
          "internalType": "uint256",
          "name": "",
          "type": "uint256"
        }
      ],
      "stateMutability": "view",
      "type": "function"
    },
    {
      "inputs": [
        {
          "internalType": "address",
          "name": "_user",
          "type": "address"
        },
        {
          "internalType": "address",
          "name": "_sla",
          "type": "address"
        }
      ],
      "name": "slaWasStakedByUser",
      "outputs": [
        {
          "internalType": "bool",
          "name": "",
          "type": "bool"
        }
      ],
      "stateMutability": "view",
      "type": "function"
    },
    {
      "inputs": [
        {
          "internalType": "address",
          "name": "_owner",
          "type": "address"
        }
      ],
      "name": "registerStakedSla",
      "outputs": [
        {
          "internalType": "bool",
          "name": "",
          "type": "bool"
        }
      ],
      "stateMutability": "nonpayable",
      "type": "function"
    }
  ],
  "bytecode": "0x60806040523480156200001157600080fd5b5060405162004a9938038062004a99833981016040819052620000349162000132565b6000620000406200012e565b600080546001600160a01b0319166001600160a01b0383169081178255604051929350917f8be0079c531659141344cd1fd0a4f28419497f9722a3daafe3b4186f6b6457e0908290a350600180546001600160a01b03199081166001600160a01b03878116919091179092556002805482168684161790556004805482168484161781556003805490921685841617918290556040805163f388158960e01b81529051929093169263f3881589928183019260009282900301818387803b1580156200010b57600080fd5b505af115801562000120573d6000803e3d6000fd5b5050505050505050620001b2565b3390565b6000806000806080858703121562000148578384fd5b8451620001558162000199565b6020860151909450620001688162000199565b60408601519093506200017b8162000199565b60608601519092506200018e8162000199565b939692955090935050565b6001600160a01b0381168114620001af57600080fd5b50565b6148d780620001c26000396000f3fe60806040523480156200001157600080fd5b50600436106200012a5760003560e01c8063715018a611620000bd578063a3f5cadf116200007b578063a3f5cadf1462000250578063b290508e1462000267578063d1994408146200027e578063e9b1e98c1462000295578063f2fde38b14620002ac576200012a565b8063715018a6146200020f578063816ff98614620002195780638da5cb5b146200023257806396bddc10146200023c5780639fc4caa51462000246576200012a565b80630df0bfc6146200012f5780634d3ca7d3146200015e57806350c5abfe1462000177578063516c2857146200019d57806351e99ec614620001c35780635a7d1e5d14620001da5780635c4df33214620001e45780636435dc9c14620001ee578063683048351462000205575b600080fd5b620001466200014036600462001250565b620002c3565b60405162000155919062001639565b60405180910390f35b620001756200016f366004620012da565b6200034e565b005b6200018e6200018836600462001400565b620007f0565b6040516200015591906200151d565b620001b4620001ae36600462001212565b62000818565b604051620001559190620015ea565b62000146620001d436600462001212565b62000960565b6200018e62000975565b6200018e62000984565b62000175620001ff36600462001212565b62000993565b6200018e62000a53565b6200017562000a62565b6200022362000ae6565b604051620001559190620019c4565b6200018e62000aec565b620001b462000afb565b6200018e62000b5f565b6200018e620002613660046200128d565b62000b6e565b620001466200027836600462001212565b62000ba4565b620001756200028f36600462001419565b62000c2d565b62000223620002a636600462001212565b62001047565b62000175620002bd36600462001212565b62001062565b6000805b6001600160a01b03841660009081526008602052604090205481101562000342576001600160a01b038481166000908152600860205260409020805491851691839081106200031257fe5b6000918252602090912001546001600160a01b031614156200033957600191505062000348565b600101620002c7565b50600090505b92915050565b600254604051635c98d15760e01b81526000916001600160a01b031690635c98d157906200038190889060040162001644565b60806040518083038186803b1580156200039a57600080fd5b505afa158015620003af573d6000803e3d6000fd5b505050506040513d601f19601f82011682018060405250810190620003d591906200147d565b935050505080151560011515146200040a5760405162461bcd60e51b81526004016200040190620018ff565b60405180910390fd5b600154604051632af1c01d60e01b81526001600160a01b0390911690632af1c01d906200043c908a906004016200151d565b60206040518083038186803b1580156200045557600080fd5b505afa1580156200046a573d6000803e3d6000fd5b505050506040513d601f19601f82011682018060405250810190620004909190620012bb565b1515600114620004b45760405162461bcd60e51b81526004016200040190620016c5565b82620004d45760405162461bcd60e51b8152600401620004019062001843565b60005b8381101562000600576002546000906001600160a01b031663ddfc4fde888888868181106200050257fe5b905060200201356040518363ffffffff1660e01b81526004016200052892919062001654565b60206040518083038186803b1580156200054157600080fd5b505afa15801562000556573d6000803e3d6000fd5b505050506040513d601f19601f820116820180604052508101906200057c9190620012bb565b9050806200059e5760405162461bcd60e51b8152600401620004019062001706565b6000198501821015620005f657858583600101818110620005bb57fe5b90506020020135868684818110620005cf57fe5b9050602002013510620005f65760405162461bcd60e51b815260040162000401906200198d565b50600101620004d7565b5060035460405163ef4003db60e01b81526000916001600160a01b03169063ef4003db90620006349086906004016200151d565b60206040518083038186803b1580156200064d57600080fd5b505afa15801562000662573d6000803e3d6000fd5b505050506040513d601f19601f82011682018060405250810190620006889190620012bb565b9050600181151514620006af5760405162461bcd60e51b8152600401620004019062001682565b60045460025460405160009233928c928c9289928c928c928f926001600160a01b0391821692911690620006e3906200119e565b620006f79998979695949392919062001531565b604051809103906000f08015801562000714573d6000803e3d6000fd5b5060058054600180820183557f036b6384b5eca791c62761152d0c79bb0604c104a5fb6f4eb0703f3154bb3db090910180546001600160a01b0319166001600160a01b0385169081179091556000908152600660205260408120805460ff191683179055915492935090916200078a9162001120565b33600081815260076020908152604080832080546001810182559084529183209091018490555192935090916001600160a01b038516917fb52f284a6c14f1a66ab5513b5b539066933e58e69e6432666f0e3c8c8a7d750391a350505050505050505050565b60058181548110620007fe57fe5b6000918252602090912001546001600160a01b0316905081565b60606000620008278362001047565b905060608167ffffffffffffffff811180156200084357600080fd5b506040519080825280602002602001820160405280156200086e578160200160208202803683370190505b506001600160a01b03851660009081526007602090815260409182902080548351818402810184019094528084529394506060939091830182828015620008d557602002820191906000526020600020905b815481526020019060010190808311620008c0575b5050505050905060005b8381101562000956576005828281518110620008f757fe5b6020026020010151815481106200090a57fe5b9060005260206000200160009054906101000a90046001600160a01b03168382815181106200093557fe5b6001600160a01b0390921660209283029190910190910152600101620008df565b5090949350505050565b60066020526000908152604090205460ff1681565b6001546001600160a01b031681565b6003546001600160a01b031681565b806001600160a01b031663f38815896040518163ffffffff1660e01b8152600401600060405180830381600087803b158015620009cf57600080fd5b505af1158015620009e4573d6000803e3d6000fd5b50506003546040516319d71f1f60e31b81526001600160a01b03909116925063ceb8f8f8915062000a1c9084903390600401620015d0565b600060405180830381600087803b15801562000a3757600080fd5b505af115801562000a4c573d6000803e3d6000fd5b5050505050565b6004546001600160a01b031681565b62000a6c6200116b565b6000546001600160a01b0390811691161462000a9c5760405162461bcd60e51b81526004016200040190620018ca565b600080546040516001600160a01b03909116907f8be0079c531659141344cd1fd0a4f28419497f9722a3daafe3b4186f6b6457e0908390a3600080546001600160a01b0319169055565b60055490565b6000546001600160a01b031690565b6060600580548060200260200160405190810160405280929190818152602001828054801562000b5557602002820191906000526020600020905b81546001600160a01b0316815260019091019060200180831162000b36575b5050505050905090565b6002546001600160a01b031681565b6008602052816000526040600020818154811062000b8857fe5b6000918252602090912001546001600160a01b03169150829050565b3360009081526006602052604081205460ff16151560011462000bdb5760405162461bcd60e51b8152600401620004019062001733565b62000be78233620002c3565b62000c25576001600160a01b03821660009081526008602090815260408220805460018101825590835291200180546001600160a01b031916331790555b506001919050565b6000816001600160a01b0316637fd788aa6040518163ffffffff1660e01b815260040160206040518083038186803b15801562000c6957600080fd5b505afa15801562000c7e573d6000803e3d6000fd5b505050506040513d601f19601f8201168201806040525081019062000ca49190620012bb565b9050801562000cc75760405162461bcd60e51b815260040162000401906200187a565b60405163021eef7f60e01b81526000906001600160a01b0384169063021eef7f9062000cf8908790600401620019c4565b60206040518083038186803b15801562000d1157600080fd5b505afa15801562000d26573d6000803e3d6000fd5b505050506040513d601f19601f8201168201806040525081019062000d4c9190620012bb565b905060018115151462000d735760405162461bcd60e51b8152600401620004019062001941565b6000836001600160a01b03166346e0fbae6040518163ffffffff1660e01b815260040160206040518083038186803b15801562000daf57600080fd5b505afa15801562000dc4573d6000803e3d6000fd5b505050506040513d601f19601f8201168201806040525081019062000dea9190620013e1565b6002546040516331edb3ad60e21b81529192506000916001600160a01b039091169063c7b6ceb49062000e249085908a9060040162001654565b60206040518083038186803b15801562000e3d57600080fd5b505afa15801562000e52573d6000803e3d6000fd5b505050506040513d601f19601f8201168201806040525081019062000e789190620012bb565b905060018115151462000e9f5760405162461bcd60e51b81526004016200040190620017fb565b604051639ab4438f60e01b81526000906001600160a01b03871690639ab4438f9062000ed0908a90600401620019c4565b60606040518083038186803b15801562000ee957600080fd5b505afa15801562000efe573d6000803e3d6000fd5b505050506040513d601f19601f8201168201806040525081019062000f24919062001440565b92506000915062000f329050565b81600281111562000f3f57fe5b1462000f5f5760405162461bcd60e51b81526004016200040190620017ab565b6000866001600160a01b031663a224ee9c6040518163ffffffff1660e01b815260040160206040518083038186803b15801562000f9b57600080fd5b505afa15801562000fb0573d6000803e3d6000fd5b505050506040513d601f19601f8201168201806040525081019062000fd6919062001231565b604051631a33288160e31b81529091506001600160a01b0382169063d19944089062001009908b908b90600401620019cd565b600060405180830381600087803b1580156200102457600080fd5b505af115801562001039573d6000803e3d6000fd5b505050505050505050505050565b6001600160a01b031660009081526007602052604090205490565b6200106c6200116b565b6000546001600160a01b039081169116146200109c5760405162461bcd60e51b81526004016200040190620018ca565b6001600160a01b038116620010c55760405162461bcd60e51b8152600401620004019062001765565b600080546040516001600160a01b03808516939216917f8be0079c531659141344cd1fd0a4f28419497f9722a3daafe3b4186f6b6457e091a3600080546001600160a01b0319166001600160a01b0392909216919091179055565b60006200116483836040518060400160405280601e81526020017f536166654d6174683a207375627472616374696f6e206f766572666c6f7700008152506200116f565b9392505050565b3390565b60008184841115620011965760405162461bcd60e51b81526004016200040191906200166d565b505050900390565b612e878062001a1b83390190565b80356200034881620019e4565b60008083601f840112620011cb578182fd5b50813567ffffffffffffffff811115620011e3578182fd5b6020830191508360208083028501011115620011fe57600080fd5b9250929050565b8035620003488162001a0c565b60006020828403121562001224578081fd5b81356200116481620019e4565b60006020828403121562001243578081fd5b81516200116481620019e4565b6000806040838503121562001263578081fd5b82356200127081620019e4565b915060208301356200128281620019e4565b809150509250929050565b60008060408385031215620012a0578182fd5b8235620012ad81620019e4565b946020939093013593505050565b600060208284031215620012cd578081fd5b81516200116481620019fd565b60008060008060008060a08789031215620012f3578182fd5b86356200130081620019e4565b955060208781013567ffffffffffffffff808211156200131e578485fd5b818a0191508a601f83011262001332578485fd5b81358181111562001341578586fd5b604051601f8201601f191681018501838111828210171562001361578788fd5b60405281815283820185018d101562001378578687fd5b818585018683013790810184018690529750620013998b60408c0162001205565b965060608a0135925080831115620013af578485fd5b5050620013bf89828a01620011b9565b9094509250620013d590508860808901620011ac565b90509295509295509295565b600060208284031215620013f3578081fd5b8151620011648162001a0c565b60006020828403121562001412578081fd5b5035919050565b600080604083850312156200142c578182fd5b8235915060208301356200128281620019e4565b60008060006060848603121562001455578283fd5b835192506020840151915060408401516003811062001472578182fd5b809150509250925092565b6000806000806080858703121562001493578384fd5b8451935060208501519250604085015191506060850151620014b581620019fd565b939692955090935050565b60068110620014cb57fe5b9052565b60008151808452815b81811015620014f657602081850181015186830182015201620014d8565b81811115620015085782602083870101525b50601f01601f19169290920160200192915050565b6001600160a01b0391909116815260200190565b6001600160a01b038a81168252898116602083015261010060408301819052600091620015618483018c620014cf565b8a82166060860152848103608086015288815291506001600160fb1b038811156200158a578283fd5b60208802808a6020850137919091016020019182528190620015b060a0850188620014c0565b80861660c085015280851660e085015250509a9950505050505050505050565b6001600160a01b0392831681529116602082015260400190565b6020808252825182820181905260009190848201906040850190845b818110156200162d5783516001600160a01b03168352928401929184019160010162001606565b50909695505050505050565b901515815260200190565b60208101620003488284620014c0565b60408101600684106200166357fe5b9281526020015290565b600060208252620011646020830184620014cf565b60208082526023908201527f6d657373656e6765722061646472657373206973206e6f7420726567697374656040820152621c995960ea1b606082015260800190565b60208082526021908201527f534c4f206e6f742072656769737465726564206f6e20534c4f526567697374726040820152607960f81b606082015260800190565b60208082526013908201527214195c9a5bd9081a59081b9bdd081d985b1a59606a1b604082015260600190565b6020808252601890820152774f6e6c7920666f72207265676973746572656420534c417360401b604082015260600190565b60208082526026908201527f4f776e61626c653a206e6577206f776e657220697320746865207a65726f206160408201526564647265737360d01b606082015260800190565b60208082526030908201527f534c4120636f6e74726163742077617320616c7265616479207665726966696560408201526f1908199bdc881d1a19481c195c9a5bd960821b606082015260800190565b60208082526028908201527f534c4120636f6e747261637420706572696f6420686173206e6f742066696e696040820152671cda1959081e595d60c21b606082015260800190565b6020808252601c908201527f506572696f647320696e666f726d6174696f6e20697320656d70747900000000604082015260600190565b60208082526030908201527f53686f756c64206f6e6c792062652063616c6c656420666f72206e6f7420627260408201526f65616368656420636f6e74726163747360801b606082015260800190565b6020808252818101527f4f776e61626c653a2063616c6c6572206973206e6f7420746865206f776e6572604082015260600190565b60208082526022908201527f506572696f642074797065206973206e6f7420696e697469616c697a65642079604082015261195d60f21b606082015260800190565b6020808252602c908201527f506572696f64204944206e6f74207265676973746572656420696e207468652060408201526b14d3104818dbdb9d1c9858dd60a21b606082015260800190565b6020808252601c908201527f506572696f64206964732073686f756c6420626520736f727465642000000000604082015260600190565b90815260200190565b9182526001600160a01b0316602082015260400190565b6001600160a01b0381168114620019fa57600080fd5b50565b8015158114620019fa57600080fd5b60068110620019fa57600080fdfe60806040526018805460ff191690553480156200001b57600080fd5b5060405162002e8738038062002e878339810160408190526200003e9162000533565b8160006200004b620002d1565b600080546001600160a01b0319166001600160a01b03831690811782556040519293509160008051602062002e67833981519152908290a35080600160006101000a8154816001600160a01b0302191690836001600160a01b03160217905550600080600080600160009054906101000a90046001600160a01b03166001600160a01b031663f700839e6040518163ffffffff1660e01b815260040160806040518083038186803b1580156200010057600080fd5b505afa15801562000115573d6000803e3d6000fd5b505050506040513d601f19601f820116820180604052508101906200013b91906200065b565b9350935093509350600160009054906101000a90046001600160a01b03166001600160a01b0316638b8e53096040518163ffffffff1660e01b815260040160206040518083038186803b1580156200019257600080fd5b505afa158015620001a7573d6000803e3d6000fd5b505050506040513d601f19601f82011682018060405250810190620001cd91906200050d565b600980546001600160a01b0319166001600160a01b0392909216919091179055600c93909355600d91909155600e55600f55506200020b88620002d5565b8551620002209060119060208901906200038b565b50601580546001600160a01b038088166001600160a01b03199283161790925560148054909116331790556012805491831661010002610100600160a81b03199092169190911790554360175583516200028290601390602087019062000410565b506012805484919060ff191660018360058111156200029d57fe5b021790555050601080546001600160a01b0319166001600160a01b03979097169690961790955550620007a3945050505050565b3390565b620002df620002d1565b6000546001600160a01b03908116911614620003185760405162461bcd60e51b81526004016200030f90620006d7565b60405180910390fd5b6001600160a01b038116620003415760405162461bcd60e51b81526004016200030f9062000691565b600080546040516001600160a01b038085169392169160008051602062002e6783398151915291a3600080546001600160a01b0319166001600160a01b0392909216919091179055565b828054600181600116156101000203166002900490600052602060002090601f016020900481019282601f10620003ce57805160ff1916838001178555620003fe565b82800160010185558215620003fe579182015b82811115620003fe578251825591602001919060010190620003e1565b506200040c9291506200044d565b5090565b828054828255906000526020600020908101928215620003fe5791602002820182811115620003fe578251825591602001919060010190620003e1565b5b808211156200040c57600081556001016200044e565b805162000471816200078a565b92915050565b600082601f83011262000488578081fd5b81516001600160401b038111156200049e578182fd5b6020808202620004b08282016200070c565b83815293508184018583018287018401881015620004cd57600080fd5b600092505b84831015620004f2578051825260019290920191908301908301620004d2565b505050505092915050565b8051600681106200047157600080fd5b6000602082840312156200051f578081fd5b81516200052c816200078a565b9392505050565b600080600080600080600080610100898b03121562000550578384fd5b88516200055d816200078a565b60208a015190985062000570816200078a565b60408a01519097506001600160401b03808211156200058d578586fd5b818b0191508b601f830112620005a1578586fd5b8151620005b8620005b28262000733565b6200070c565b8181528d6020838601011115620005cd578788fd5b620005e082602083016020870162000757565b9850620005f390508c60608d0162000464565b965060808b015191508082111562000609578586fd5b50620006188b828c0162000477565b9450506200062a8a60a08b01620004fd565b92506200063b8a60c08b0162000464565b91506200064c8a60e08b0162000464565b90509295985092959890939650565b6000806000806080858703121562000671578384fd5b505082516020840151604085015160609095015191969095509092509050565b60208082526026908201527f4f776e61626c653a206e6577206f776e657220697320746865207a65726f206160408201526564647265737360d01b606082015260800190565b6020808252818101527f4f776e61626c653a2063616c6c6572206973206e6f7420746865206f776e6572604082015260600190565b6040518181016001600160401b03811182821017156200072b57600080fd5b604052919050565b60006001600160401b0382111562000749578081fd5b50601f01601f191660200190565b60005b83811015620007745781810151838201526020016200075a565b8381111562000784576000848401525b50505050565b6001600160a01b0381168114620007a057600080fd5b50565b6126b480620007b36000396000f3fe608060405234801561001057600080fd5b50600436106101f75760003560e01c80639ab4438f11610120578063db2da48c116100b8578063ee575c281161007c578063ee575c281461042e578063f2fde38b14610436578063f7e9dfff14610449578063fbbf93a014610451578063fd5e6dd11461046b576101f7565b8063db2da48c146103cc578063db69a462146103df578063dcd21f18146103e7578063e68e276d14610408578063ecd731ca1461041b576101f7565b80639ab4438f146103475780639fc4caa514610369578063a224ee9c14610371578063b18ac91814610379578063b7bc347e14610381578063c623674f14610389578063cbe230c31461039e578063cd92890e146103b1578063d7a5c422146103b9576101f7565b806336a05f261161019357806336a05f26146102b657806346e0fbae146102be578063524f0735146102d357806357ac94f0146102e65780635c1c20de146103075780635e5f2e261461030f578063715018a61461032f5780637fd788aa146103375780638da5cb5b1461033f576101f7565b8063021eef7f146101fc5780630ae9ea45146102255780630bea440d14610245578063171e44ea1461025a5780631bf309291461026d5780631fc2cd931461027557806327cd727c146102885780632eb8197a1461029b57806333df1541146102a3575b600080fd5b61020f61020a366004611dde565b61047e565b60405161021c9190611ff8565b60405180910390f35b610238610233366004611dde565b6104c8565b60405161021c91906125ff565b610258610253366004611df6565b6104e6565b005b610258610268366004611d79565b6105c3565b61023861074e565b610258610283366004611d79565b610754565b610258610296366004611df6565b610963565b610238610aa3565b6102386102b1366004611df6565b610aa9565b610238610ac6565b6102c6610acc565b60405161021c9190612003565b6102586102e1366004611d79565b610ad5565b6102f96102f4366004611d94565b610ae1565b60405161021c929190611f34565b610238610b2f565b61032261031d366004611dde565b610b35565b60405161021c9190611efc565b610258610b5c565b61020f610bdb565b610322610be4565b61035a610355366004611dde565b610bf3565b60405161021c93929190612616565b610322610c17565b610322610c2b565b610238610c3a565b610238610c40565b610391610c46565b60405161021c919061202f565b61020f6103ac366004611d79565b610cd4565b610322610d26565b6102586103c7366004611e22565b610d35565b6102386103da366004611d79565b610eb9565b610322610ecb565b6103fa6103f5366004611d79565b610eda565b60405161021c929190612608565b610238610416366004611d79565b610f3f565b610238610429366004611d79565b610f51565b610238610f63565b610258610444366004611d79565b610f69565b61032261101f565b61045961102e565b60405161021c96959493929190611f4d565b610322610479366004611dde565b611321565b6000805b6013548110156104bd57826013828154811061049a57fe5b906000526020600020015414156104b55760019150506104c3565b600101610482565b50600090505b919050565b601381815481106104d557fe5b600091825260209091200154905081565b6000821161050f5760405162461bcd60e51b8152600401610506906124c9565b60405180910390fd5b60185460ff16156105325760405162461bcd60e51b8152600401610506906123a7565b61053c828261132e565b601454604051635948284760e11b81526001600160a01b039091169063b290508e9061056c903390600401611efc565b602060405180830381600087803b15801561058657600080fd5b505af115801561059a573d6000803e3d6000fd5b505050506040513d601f19601f820116820180604052508101906105be9190611dbe565b505050565b6105cb611593565b6000546001600160a01b039081169116146105f85760405162461bcd60e51b815260040161050690612372565b61060181610cd4565b1561061e5760405162461bcd60e51b8152600401610506906123ef565b60015460405163cbe230c360e01b81526001600160a01b039091169063cbe230c39061064e908490600401611efc565b60206040518083038186803b15801561066657600080fd5b505afa15801561067a573d6000803e3d6000fd5b505050506040513d601f19601f8201168201806040525081019061069e9190611dbe565b15156001146106bf5760405162461bcd60e51b81526004016105069061213e565b6009546000906106d7906001600160a01b0316610eda565b509050600d5481116106fb5760405162461bcd60e51b81526004016105069061255d565b50600a80546001810182556000919091527fc65a7bb8d6351c1cf70c95a316cc6a92839c986682d98bc35f958f4883f9d2a80180546001600160a01b0319166001600160a01b0392909216919091179055565b60175481565b61075c610be4565b6001600160a01b0316336001600160a01b0316141561078d5760405162461bcd60e51b8152600401610506906125ba565b6001600160a01b038116600090815260036020908152604080832033845290915290205461271090806107d25760405162461bcd60e51b8152600401610506906121d0565b6001600160a01b0383166000908152600460205260408120546107ff906107f98486611597565b906115da565b6001600160a01b0385166000908152600660205260408120549192509061082c9085906107f99085611597565b90506000856001600160a01b031663a9059cbb33846002026040518363ffffffff1660e01b8152600401610861929190611f34565b602060405180830381600087803b15801561087b57600080fd5b505af115801561088f573d6000803e3d6000fd5b505050506040513d601f19601f820116820180604052508101906108b39190611dbe565b90506001811515146108d75760405162461bcd60e51b8152600401610506906124f5565b6001600160a01b0386166000908152600460205260409020546108fa908561161c565b6001600160a01b038716600090815260046020908152604080832093909355600690522054610929908361161c565b6001600160a01b03909616600090815260066020908152604080832098909855600381528782203383529052958620959095555050505050565b600082116109835760405162461bcd60e51b8152600401610506906124c9565b6013805460009190600019810190811061099957fe5b600091825260208220015460125460405160016259edcb60e01b031981529193506001600160a01b036101008204169163ffa61235916109e39160ff909116908690600401612017565b604080518083038186803b1580156109fa57600080fd5b505afa158015610a0e573d6000803e3d6000fd5b505050506040513d601f19601f82011682018060405250810190610a329190611e43565b60185490925060ff161515600114905080610a775750804210158015610a775750600082815260166020526040812060029081015460ff1690811115610a7457fe5b14155b610a935760405162461bcd60e51b815260040161050690612042565b610a9d848461165e565b50505050565b600f5481565b600760209081526000928352604080842090915290825290205481565b600b5481565b60125460ff1681565b610ade81610754565b50565b6000806000600a8481548110610af357fe5b6000918252602080832091909101546001600160a01b039081168084526003835260408085209990921684529790915290205494959350505050565b600c5481565b600a8181548110610b4257fe5b6000918252602090912001546001600160a01b0316905081565b610b64611593565b6000546001600160a01b03908116911614610b915760405162461bcd60e51b815260040161050690612372565b600080546040516001600160a01b03909116907f8be0079c531659141344cd1fd0a4f28419497f9722a3daafe3b4186f6b6457e0908390a3600080546001600160a01b0319169055565b60185460ff1690565b6000546001600160a01b031690565b60166020526000908152604090208054600182015460029092015490919060ff1683565b60125461010090046001600160a01b031681565b6015546001600160a01b031681565b600e5481565b600a5490565b6011805460408051602060026001851615610100026000190190941693909304601f81018490048402820184019092528181529291830182828015610ccc5780601f10610ca157610100808354040283529160200191610ccc565b820191906000526020600020905b815481529060010190602001808311610caf57829003601f168201915b505050505081565b6000805b600a548110156104bd57826001600160a01b0316600a8281548110610cf957fe5b6000918252602090912001546001600160a01b03161415610d1e5760019150506104c3565b600101610cd8565b6010546001600160a01b031681565b6015546001600160a01b03163314610d5f5760405162461bcd60e51b81526004016105069061218b565b7fc95987c1992805ee34bdc915e017cceae36ba1c156b9911fa7e691e6435eb46e428383604051610d929392919061263c565b60405180910390a16000818152601660205260409081902060018101849055428155601054915163868d08f760e01b815290916001600160a01b03169063868d08f790610de39086906004016125ff565b60206040518083038186803b158015610dfb57600080fd5b505afa158015610e0f573d6000803e3d6000fd5b505050506040513d601f19601f82011682018060405250810190610e339190611dbe565b15610e555760028101805460ff19166001179055610e5082611845565b6105be565b6002818101805460ff19169091179055610e6d61196a565b6018805460ff191660011790556040517fbd33f7a3bfa88a467c9df5ae7d2341cf061084c386b20a0d48130f5cbce38a4d90610eac9084908690612608565b60405180910390a1505050565b60066020526000908152604090205481565b6014546001600160a01b031681565b6001600160a01b0381166000908152600360205260408120819081610efd610be4565b6001600160a01b039081168252602080830193909352604091820160009081205491871681526002909352912054909250610f38908361161c565b9050915091565b60046020526000908152604090205481565b60056020526000908152604090205481565b600d5481565b610f71611593565b6000546001600160a01b03908116911614610f9e5760405162461bcd60e51b815260040161050690612372565b6001600160a01b038116610fc45760405162461bcd60e51b8152600401610506906120c1565b600080546040516001600160a01b03808516939216917f8be0079c531659141344cd1fd0a4f28419497f9722a3daafe3b4186f6b6457e091a3600080546001600160a01b0319166001600160a01b0392909216919091179055565b6009546001600160a01b031681565b600060606000606060006060611042610be4565b60118054604080516020601f600260001961010060018816150201909516949094049384018190048102820181019092528281529399508301828280156110ca5780601f1061109f576101008083540402835291602001916110ca565b820191906000526020600020905b8154815290600101906020018083116110ad57829003601f168201915b50506010546013549499506001600160a01b031697505067ffffffffffffffff831191505080156110fa57600080fd5b5060405190808252806020026020018201604052801561113457816020015b611121611d20565b8152602001906001900390816111195790505b50925060005b6013548110156112115760006013828154811061115357fe5b90600052602060002001549050611168611d20565b600082815260166020908152604091829020825160608101845281548152600182015492810192909252600280820154929391929184019160ff16908111156111ad57fe5b60028111156111b857fe5b81525050905060405180606001604052808260000151815260200182602001518152602001826040015160028111156111ed57fe5b8152508684815181106111fc57fe5b6020908102919091010152505060010161113a565b50600854600a5490925067ffffffffffffffff8111801561123157600080fd5b5060405190808252806020026020018201604052801561126b57816020015b611258611d4b565b8152602001906001900390816112505790505b50905060005b600a54811015611318576040518060400160405280600a838154811061129357fe5b9060005260206000200160009054906101000a90046001600160a01b03166001600160a01b0316815260200160026000600a85815481106112d057fe5b60009182526020808320909101546001600160a01b031683528201929092526040019020549052825183908390811061130557fe5b6020908102919091010152600101611271565b50909192939495565b60088181548110610b4257fe5b8061133881610cd4565b15156001146113595760405162461bcd60e51b815260040161050690612344565b611361610be4565b6001600160a01b0316336001600160a01b0316146113b65760008061138584610eda565b9092509050816113958287611ad5565b11156113b35760405162461bcd60e51b8152600401610506906122bb565b50505b6001600160a01b0382166000908152600260205260409020546113d99084611ad5565b6001600160a01b03831660009081526002602090815260408083209390935560038152828220338352905220546114109084611ad5565b6001600160a01b03831660009081526003602090815260408083203380855292529091209190915561144190611afa565b61148857600880546001810182556000919091527ff3f7a9fe364faab93b216da50a3214154f22a0a2b415b23a84c8169e8b636ee30180546001600160a01b031916331790555b6040516323b872dd60e01b81526000906001600160a01b038416906323b872dd906114bb90339030908990600401611f10565b602060405180830381600087803b1580156114d557600080fd5b505af11580156114e9573d6000803e3d6000fd5b505050506040513d601f19601f8201168201806040525081019061150d9190611dbe565b90506001811515146115315760405162461bcd60e51b81526004016105069061246c565b611539610be4565b6001600160a01b0316336001600160a01b031614610a9d576001600160a01b0383166000908152600460205260409020546115749085611ad5565b6001600160a01b03841660009081526004602052604090205550505050565b3390565b6000826115a6575060006115d4565b828202828482816115b357fe5b04146115d15760405162461bcd60e51b815260040161050690612303565b90505b92915050565b60006115d183836040518060400160405280601a81526020017f536166654d6174683a206469766973696f6e206279207a65726f000000000000815250611b4c565b60006115d183836040518060400160405280601e81526020017f536166654d6174683a207375627472616374696f6e206f766572666c6f770000815250611b83565b8061166881610cd4565b15156001146116895760405162461bcd60e51b815260040161050690612344565b6001600160a01b03821660009081526003602090815260408083203384529091529020548311156116cc5760405162461bcd60e51b815260040161050690612271565b6116d4610be4565b6001600160a01b0316336001600160a01b0316141561172a576000806116f984610eda565b909250905080611709838761161c565b10156117275760405162461bcd60e51b81526004016105069061241c565b50505b6001600160a01b03821660009081526002602052604090205461174d908461161c565b6001600160a01b0383166000908152600260209081526040808320939093556003815282822033835290522054611784908461161c565b6001600160a01b038316600081815260036020908152604080832033808552925280832094909455925163a9059cbb60e01b8152909263a9059cbb916117cf91908890600401611f34565b602060405180830381600087803b1580156117e957600080fd5b505af11580156117fd573d6000803e3d6000fd5b505050506040513d601f19601f820116820180604052508101906118219190611dbe565b9050600181151514610a9d5760405162461bcd60e51b8152600401610506906124f5565b60005b600a54811015611966576000600a828154811061186157fe5b60009182526020822001546001600160a01b0316915061188082610eda565b915050600061189f60646107f9600b548561159790919063ffffffff16565b6009549091506001600160a01b03848116911614156118d25760006118c382611baf565b90506118cf828261161c565b50505b6001600160a01b0383166000908152600260205260409020546118f5908261161c565b6001600160a01b0384166000908152600260209081526040808320939093556005905220546119249082611ad5565b6001600160a01b039093166000818152600560209081526040808320969096558782526007815285822092825291909152929092209190915550600101611848565b5050565b60005b600a54811015610ade576000600a828154811061198657fe5b60009182526020822001546001600160a01b031691506119a582610eda565b6009549092508291506001600160a01b03848116911614156119db5760006119cc82611baf565b90506119d8828261161c565b50505b6001600160a01b0383166000908152600260205260409020546119fe908261161c565b6001600160a01b03841660009081526002602090815260408083209390935560039052908120611a5391839190611a33610be4565b6001600160a01b031681526020810191909152604001600020549061161c565b6001600160a01b038416600090815260036020526040812090611a74610be4565b6001600160a01b0390811682526020808301939093526040918201600090812094909455861683526006909152902054611aae9082611ad5565b6001600160a01b03909316600090815260066020526040902092909255505060010161196d565b6000828201838110156115d15760405162461bcd60e51b815260040161050690612107565b6000805b6008548110156104bd57826001600160a01b031660088281548110611b1f57fe5b6000918252602090912001546001600160a01b03161415611b445760019150506104c3565b600101611afe565b60008183611b6d5760405162461bcd60e51b8152600401610506919061202f565b506000838581611b7957fe5b0495945050505050565b60008184841115611ba75760405162461bcd60e51b8152600401610506919061202f565b505050900390565b60408051808201909152600d81526c6275726e2875696e743235362960981b602090910152600c546000907f42966c689b5afe9b9b3f8a7103b2a19980d59629bfd6a20a60972312ed41d83690611c0f906103e8906107f9908690611597565b6009546040519193506000916001600160a01b03909116908390611c379086906024016125ff565b60408051601f198184030181529181526020820180516001600160e01b03166001600160e01b0319909416939093179092529051611c759190611ee0565b6000604051808303816000865af19150503d8060008114611cb2576040519150601f19603f3d011682016040523d82523d6000602084013e611cb7565b606091505b5050905080611cd85760405162461bcd60e51b81526004016105069061222d565b6009546001600160a01b0316600090815260026020526040902054611cfd908461161c565b6009546001600160a01b0316600090815260026020526040902055509092915050565b6040518060600160405280600081526020016000815260200160006002811115611d4657fe5b905290565b604080518082019091526000808252602082015290565b80356001600160a01b03811681146115d457600080fd5b600060208284031215611d8a578081fd5b6115d18383611d62565b60008060408385031215611da6578081fd5b611db08484611d62565b946020939093013593505050565b600060208284031215611dcf578081fd5b815180151581146115d1578182fd5b600060208284031215611def578081fd5b5035919050565b60008060408385031215611e08578182fd5b82359150611e198460208501611d62565b90509250929050565b60008060408385031215611e34578182fd5b50508035926020909101359150565b60008060408385031215611e55578182fd5b505080516020909101519092909150565b6000815180845260208085019450808401835b83811015611ea957815180516001600160a01b031688528301518388015260409096019590820190600101611e79565b509495945050505050565b60008151808452611ecc816020860160208601612652565b601f01601f19169290920160200192915050565b60008251611ef2818460208701612652565b9190910192915050565b6001600160a01b0391909116815260200190565b6001600160a01b039384168152919092166020820152604081019190915260600190565b6001600160a01b03929092168252602082015260400190565b600060018060a01b038089168352602060c081850152611f7060c085018a611eb4565b6040838a168187015260609350858203848701528189518084528484019150848b019350865b81811015611fcd57845180518452868101518785015284015160038110611fb957fe5b838501529385019391860191600101611f96565b505088608088015286810360a0880152611fe78189611e66565b9d9c50505050505050505050505050565b901515815260200190565b602081016006831061201157fe5b91905290565b604081016006841061202557fe5b9281526020015290565b6000602082526115d16020830184611eb4565b60208082526059908201527f43616e206f6e6c79207769746864726177207374616b6520616674657220746860408201527f652066696e616c20706572696f642069732066696e6973686564206f72206966606082015278081d1a194818dbdb9d1c9858dd081a5cc8189c995858da1959603a1b608082015260a00190565b60208082526026908201527f4f776e61626c653a206e6577206f776e657220697320746865207a65726f206160408201526564647265737360d01b606082015260800190565b6020808252601b908201527f536166654d6174683a206164646974696f6e206f766572666c6f770000000000604082015260600190565b6020808252602d908201527f546f6b656e206e6f7420616c6c6f7765642062792074686520534c415265676960408201526c1cdd1c9e4818dbdb9d1c9858dd609a1b606082015260800190565b60208082526025908201527f4f6e6c79204d657373656e6765722063616e2063616c6c20746869732066756e60408201526431ba34b7b760d91b606082015260800190565b6020808252603a908201527f43616e206f6e6c7920636c61696d206120636f6d70656e736174696f6e20696660408201527f20706f736974696f6e20697320626967676572207468616e2030000000000000606082015260800190565b60208082526024908201527f44534c41206275726e2070726f6365737320776173206e6f74207375636365736040820152631cd99d5b60e21b606082015260800190565b6020808252602a908201527f53686f756c64206e6f74207769746864726177206d6f7265207374616b6520746040820152691a185b881cdd185ad95960b21b606082015260800190565b60208082526028908201527f43616e6e6f74207374616b65206d6f7265207468616e20534c412070726f76696040820152676465727374616b6560c01b606082015260800190565b60208082526021908201527f536166654d6174683a206d756c7469706c69636174696f6e206f766572666c6f6040820152607760f81b606082015260800190565b6020808252601490820152731d1bdad95b881a5cc81b9bdd08185b1b1bddd95960621b604082015260600190565b6020808252818101527f4f776e61626c653a2063616c6c6572206973206e6f7420746865206f776e6572604082015260600190565b60208082526028908201527f43616e206f6e6c79207374616b65206f6e206e6f7420627265616368656420636040820152676f6e74726163747360c01b606082015260800190565b602080825260139082015272151bdad95b88185b1c9958591e481859191959606a1b604082015260600190565b60208082526030908201527f53686f756c64206e6f74207769746864726177206d6f7265207468616e20746860408201526f32903ab9b2b939903837b9b4ba34b7b760811b606082015260800190565b6020808252603d908201527f5472616e736665722070726f636573732066726f6d20455243323020746f205360408201527f4c4120636f6e747261637420776173206e6f742073756363657366756c000000606082015260800190565b6020808252601290820152710616d6f756e742063616e6e6f7420626520360741b604082015260600190565b60208082526042908201527f5472616e736665722070726f636573732066726f6d20534c4120636f6e74726160408201527f637420746f206d73672e73656e64657220776173206e6f7420737563636573666060820152611d5b60f21b608082015260a00190565b6020808252603f908201527f53686f756c64207374616b65206174206c65617374206d696e696d756d44534c60408201527f415374616b6564546965723120746f206164642061206e657720746f6b656e00606082015260800190565b60208082526025908201527f53686f756c64206e6f742062652063616c6c65642062792074686520534c412060408201526437bbb732b960d91b606082015260800190565b90815260200190565b918252602082015260400190565b83815260208101839052606081016003831061262e57fe5b826040830152949350505050565b9283526020830191909152604082015260600190565b60005b8381101561266d578181015183820152602001612655565b83811115610a9d575050600091015256fea26469706673582212201b995b25fe5dd225111a731b8b737ed8bfb338ab06fc297b015520e1de87534664736f6c634300060c00338be0079c531659141344cd1fd0a4f28419497f9722a3daafe3b4186f6b6457e0a26469706673582212206d781afaddd20f258868b3974567eb8c79c1d9e68db534c74cfab50571a6f64d64736f6c634300060c0033",
  "immutableReferences": {},
  "source": "// SPDX-License-Identifier: MIT\npragma solidity ^0.6.0;\npragma experimental ABIEncoderV2;\n\nimport \"@openzeppelin/contracts/math/SafeMath.sol\";\nimport \"@openzeppelin/contracts/token/ERC20/IERC20.sol\";\nimport \"@openzeppelin/contracts/access/Ownable.sol\";\nimport \"./SLA.sol\";\nimport \"./SLO.sol\";\nimport \"./SLORegistry.sol\";\nimport \"./PeriodRegistry.sol\";\nimport \"./MessengerRegistry.sol\";\nimport \"./StakeRegistry.sol\";\nimport \"./messenger/IMessenger.sol\";\n\n/**\n * @title SLARegistry\n * @dev SLARegistry is a contract for handling creation of service level\n * agreements and keeping track of the created agreements\n */\ncontract SLARegistry is Ownable {\n    using SafeMath for uint256;\n\n    /// @dev SLO registry\n    SLORegistry public sloRegistry;\n    /// @dev Periods registry\n    PeriodRegistry public periodRegistry;\n    /// @dev Messengers registry\n    MessengerRegistry public messengerRegistry;\n    /// @dev Stake registry\n    StakeRegistry public stakeRegistry;\n    /// @dev stores the addresses of created SLAs\n    SLA[] public SLAs;\n    /// @dev (slaAddress=>bool) to check if SLA is registered\n    mapping(address => bool) public registeredSLAs;\n    /// @dev stores the indexes of service level agreements owned by an user\n    mapping(address => uint256[]) private userToSLAIndexes;\n    /// @dev mapping userAddress => SLA[]\n    mapping(address => SLA[]) public userStakedSlas;\n\n    /**\n     * @dev event for service level agreement creation logging\n     * @param sla 1. The address of the created service level agreement contract\n     * @param owner 2. The address of the owner of the service level agreement\n     */\n    event SLACreated(SLA indexed sla, address indexed owner);\n\n    /**\n     * @dev constructor\n     * @param _sloRegistry 1. SLO Registry\n     * @param _periodRegistry 2. Periods registry\n     * @param _messengerRegistry 3. Messenger registry\n     * @param _stakeRegistry 4. Stake registry\n     */\n    constructor(\n        SLORegistry _sloRegistry,\n        PeriodRegistry _periodRegistry,\n        MessengerRegistry _messengerRegistry,\n        StakeRegistry _stakeRegistry\n    ) public {\n        sloRegistry = _sloRegistry;\n        periodRegistry = _periodRegistry;\n        stakeRegistry = _stakeRegistry;\n        messengerRegistry = _messengerRegistry;\n        messengerRegistry.setSLARegistry();\n    }\n\n    /**\n     * @dev public function for creating canonical service level agreements\n     * @param _SLO 1. SLO\n     * @param _ipfsHash 2. string with the ipfs hash that contains extra information about the service level agreement\n     * @param _periodType 3. period type\n     * @param _periodIds 4. array of allowed period ids\n     * @param _messengerAddress 5. address of the messenger for the corresponding SLA\n     */\n    function createSLA(\n        SLO _SLO,\n        string memory _ipfsHash,\n        PeriodRegistry.PeriodType _periodType,\n        uint256[] calldata _periodIds,\n        address _messengerAddress\n    ) public {\n        (, , , bool initialized) =\n            periodRegistry.periodDefinitions(_periodType);\n        require(initialized == true, \"Period type is not initialized yet\");\n        require(\n            sloRegistry.registeredSLOs(address(_SLO)) == true,\n            \"SLO not registered on SLORegistry\"\n        );\n        require(_periodIds.length > 0, \"Periods information is empty\");\n        // check if _periodIds are valid and sorted in ascendant order\n        for (uint256 index = 0; index < _periodIds.length; index++) {\n            bool validPeriod =\n                periodRegistry.isValidPeriod(_periodType, _periodIds[index]);\n            require(validPeriod, \"Period id not valid\");\n            if (index < _periodIds.length - 1) {\n                require(\n                    _periodIds[index] < _periodIds[index + 1],\n                    \"Period ids should be sorted \"\n                );\n            }\n        }\n        bool registeredMessenger =\n            messengerRegistry.registeredMessengers(_messengerAddress);\n        require(\n            registeredMessenger == true,\n            \"messenger address is not registered\"\n        );\n\n        SLA sla =\n            new SLA(\n                msg.sender,\n                _SLO,\n                _ipfsHash,\n                _messengerAddress,\n                _periodIds,\n                _periodType,\n                address(stakeRegistry),\n                address(periodRegistry)\n            );\n\n        SLAs.push(sla);\n        registeredSLAs[address(sla)] = true;\n        uint256 index = SLAs.length.sub(1);\n        userToSLAIndexes[msg.sender].push(index);\n        emit SLACreated(sla, msg.sender);\n    }\n\n    /**\n     * @dev Gets SLI information for the specified SLA and SLO\n     * @param _periodId 1. id of the period\n     * @param _sla 2. SLA Address\n     */\n    function requestSLI(uint256 _periodId, SLA _sla) public {\n        bool breachedContract = _sla.breachedContract();\n        require(\n            breachedContract == false,\n            \"Should only be called for not breached contracts\"\n        );\n        bool slaAllowedPeriodId = _sla.isAllowedPeriod(_periodId);\n        require(\n            slaAllowedPeriodId == true,\n            \"Period ID not registered in the SLA contract\"\n        );\n        PeriodRegistry.PeriodType slaPeriodType = _sla.periodType();\n        bool periodFinished =\n            periodRegistry.periodIsFinished(slaPeriodType, _periodId);\n        require(\n            periodFinished == true,\n            \"SLA contract period has not finished yet\"\n        );\n        (, , SLA.Status status) = _sla.slaPeriods(_periodId);\n        require(\n            status == SLA.Status.NotVerified,\n            \"SLA contract was already verified for the period\"\n        );\n        address slaMessenger = _sla.messengerAddress();\n        IMessenger(slaMessenger).requestSLI(_periodId, address(_sla));\n    }\n\n    function setMessengerSLARegistryAddress(address _messengerAddress) public {\n        IMessenger(_messengerAddress).setSLARegistry();\n        messengerRegistry.registerMessenger(_messengerAddress, msg.sender);\n    }\n\n    /**\n     * @dev public view function that returns the service level agreements that\n     * the given user is the owner of\n     * @param _user Address of the user for which to return the service level\n     * agreements\n     * @return array of SLAs\n     */\n    function userSLAs(address _user) public view returns (SLA[] memory) {\n        uint256 count = userSLACount(_user);\n        SLA[] memory SLAList = new SLA[](count);\n        uint256[] memory userSLAIndexes = userToSLAIndexes[_user];\n\n        for (uint256 i = 0; i < count; i++) {\n            SLAList[i] = (SLAs[userSLAIndexes[i]]);\n        }\n\n        return (SLAList);\n    }\n\n    /**\n     * @dev public view function that returns the amount of service level\n     * agreements the given user is the owner of\n     * @param _user 1. address of the user for which to return the amount of\n     * service level agreements\n     * @return uint256 corresponding to the amount of user's SLAs\n     */\n    function userSLACount(address _user) public view returns (uint256) {\n        return userToSLAIndexes[_user].length;\n    }\n\n    /**\n     * @dev public view function that returns all the service level agreements\n     * @return SLA[] array of SLAs\n     */\n    function allSLAs() public view returns (SLA[] memory) {\n        return (SLAs);\n    }\n\n    /**\n     * @dev public view function that returns the total amount of service\n     * level agreements\n     * @return uint256, the length of SLA array\n     */\n    function SLACount() public view returns (uint256) {\n        return SLAs.length;\n    }\n\n    /**\n     *@dev public view function that returns true if the _owner has staked on _sla\n     *@param _user 1. address to check\n     *@param _sla 2. sla to check\n     *@return bool, true if _sla was staked by _user\n     */\n    function slaWasStakedByUser(address _user, address _sla)\n        public\n        view\n        returns (bool)\n    {\n        for (uint256 index = 0; index < userStakedSlas[_user].length; index++) {\n            if (address(userStakedSlas[_user][index]) == _sla) {\n                return true;\n            }\n        }\n        return false;\n    }\n\n    /**\n     *@dev register the sending SLA contract as staked by _owner\n     *@param _owner 1. SLA contract to stake\n     */\n    function registerStakedSla(address _owner) public returns (bool) {\n        require(registeredSLAs[msg.sender] == true, \"Only for registered SLAs\");\n        if (slaWasStakedByUser(_owner, msg.sender) == false) {\n            userStakedSlas[_owner].push(SLA(msg.sender));\n        }\n        return true;\n    }\n}\n",
  "sourcePath": "/Users/matiasbn/Desktop/stacktical/stacktical-dsla-contracts/contracts/SLARegistry.sol",
  "compiler": {
    "name": "solc",
    "version": "0.6.12+commit.27d51765.Emscripten.clang"
  },
  "schemaVersion": "3.3.3",
  "updatedAt": "2021-02-13T23:43:23.076Z",
  "devdoc": {
    "details": "SLARegistry is a contract for handling creation of service level agreements and keeping track of the created agreements",
    "events": {
      "SLACreated(address,address)": {
        "details": "event for service level agreement creation logging",
        "params": {
          "owner": "2. The address of the owner of the service level agreement",
          "sla": "1. The address of the created service level agreement contract"
        }
      }
    },
    "kind": "dev",
    "methods": {
      "SLACount()": {
        "details": "public view function that returns the total amount of service level agreements",
        "returns": {
          "_0": "uint256, the length of SLA array"
        }
      },
      "allSLAs()": {
        "details": "public view function that returns all the service level agreements",
        "returns": {
          "_0": "SLA[] array of SLAs"
        }
      },
      "constructor": {
        "details": "constructor",
        "params": {
          "_messengerRegistry": "3. Messenger registry",
          "_periodRegistry": "2. Periods registry",
          "_sloRegistry": "1. SLO Registry",
          "_stakeRegistry": "4. Stake registry"
        }
      },
      "createSLA(address,string,uint8,uint256[],address)": {
        "details": "public function for creating canonical service level agreements",
        "params": {
          "_SLO": "1. SLO",
          "_ipfsHash": "2. string with the ipfs hash that contains extra information about the service level agreement",
          "_messengerAddress": "5. address of the messenger for the corresponding SLA",
          "_periodIds": "4. array of allowed period ids",
          "_periodType": "3. period type"
        }
      },
      "owner()": {
        "details": "Returns the address of the current owner."
      },
      "registerStakedSla(address)": {
        "details": "register the sending SLA contract as staked by _owner",
        "params": {
          "_owner": "1. SLA contract to stake"
        }
      },
      "renounceOwnership()": {
        "details": "Leaves the contract without owner. It will not be possible to call `onlyOwner` functions anymore. Can only be called by the current owner. NOTE: Renouncing ownership will leave the contract without an owner, thereby removing any functionality that is only available to the owner."
      },
      "requestSLI(uint256,address)": {
        "details": "Gets SLI information for the specified SLA and SLO",
        "params": {
          "_periodId": "1. id of the period",
          "_sla": "2. SLA Address"
        }
      },
      "slaWasStakedByUser(address,address)": {
        "details": "public view function that returns true if the _owner has staked on _sla",
        "params": {
          "_sla": "2. sla to check",
          "_user": "1. address to check"
        },
        "returns": {
          "_0": "bool, true if _sla was staked by _user"
        }
      },
      "transferOwnership(address)": {
        "details": "Transfers ownership of the contract to a new account (`newOwner`). Can only be called by the current owner."
      },
      "userSLACount(address)": {
        "details": "public view function that returns the amount of service level agreements the given user is the owner of",
        "params": {
          "_user": "1. address of the user for which to return the amount of service level agreements"
        },
        "returns": {
          "_0": "uint256 corresponding to the amount of user's SLAs"
        }
      },
      "userSLAs(address)": {
        "details": "public view function that returns the service level agreements that the given user is the owner of",
        "params": {
          "_user": "Address of the user for which to return the service level agreements"
        },
        "returns": {
          "_0": "array of SLAs"
        }
      }
    },
    "stateVariables": {
      "SLAs": {
        "details": "stores the addresses of created SLAs"
      },
      "messengerRegistry": {
        "details": "Messengers registry"
      },
      "periodRegistry": {
        "details": "Periods registry"
      },
      "registeredSLAs": {
        "details": "(slaAddress=>bool) to check if SLA is registered"
      },
      "sloRegistry": {
        "details": "SLO registry"
      },
      "stakeRegistry": {
        "details": "Stake registry"
      },
      "userStakedSlas": {
        "details": "mapping userAddress => SLA[]"
      },
      "userToSLAIndexes": {
        "details": "stores the indexes of service level agreements owned by an user"
      }
    },
    "title": "SLARegistry",
    "version": 1
  },
  "userdoc": {
    "kind": "user",
    "methods": {},
    "version": 1
  }
}