{
  "contractName": "SLARegistry",
  "abi": [
    {
      "inputs": [
        {
          "internalType": "contract SLORegistry",
          "name": "_sloRegistry",
          "type": "address"
        },
        {
          "internalType": "contract PeriodRegistry",
          "name": "_periodRegistry",
          "type": "address"
        },
        {
          "internalType": "contract MessengerRegistry",
          "name": "_messengerRegistry",
          "type": "address"
        },
        {
          "internalType": "contract StakeRegistry",
          "name": "_stakeRegistry",
          "type": "address"
        }
      ],
      "stateMutability": "nonpayable",
      "type": "constructor"
    },
    {
      "anonymous": false,
      "inputs": [
        {
          "indexed": true,
          "internalType": "address",
          "name": "previousOwner",
          "type": "address"
        },
        {
          "indexed": true,
          "internalType": "address",
          "name": "newOwner",
          "type": "address"
        }
      ],
      "name": "OwnershipTransferred",
      "type": "event"
    },
    {
      "anonymous": false,
      "inputs": [
        {
          "indexed": true,
          "internalType": "contract SLA",
          "name": "sla",
          "type": "address"
        },
        {
          "indexed": true,
          "internalType": "address",
          "name": "owner",
          "type": "address"
        }
      ],
      "name": "SLACreated",
      "type": "event"
    },
    {
      "inputs": [
        {
          "internalType": "uint256",
          "name": "",
          "type": "uint256"
        }
      ],
      "name": "SLAs",
      "outputs": [
        {
          "internalType": "contract SLA",
          "name": "",
          "type": "address"
        }
      ],
      "stateMutability": "view",
      "type": "function"
    },
    {
      "inputs": [],
      "name": "messengerRegistry",
      "outputs": [
        {
          "internalType": "contract MessengerRegistry",
          "name": "",
          "type": "address"
        }
      ],
      "stateMutability": "view",
      "type": "function"
    },
    {
      "inputs": [],
      "name": "owner",
      "outputs": [
        {
          "internalType": "address",
          "name": "",
          "type": "address"
        }
      ],
      "stateMutability": "view",
      "type": "function"
    },
    {
      "inputs": [],
      "name": "periodRegistry",
      "outputs": [
        {
          "internalType": "contract PeriodRegistry",
          "name": "",
          "type": "address"
        }
      ],
      "stateMutability": "view",
      "type": "function"
    },
    {
      "inputs": [],
      "name": "renounceOwnership",
      "outputs": [],
      "stateMutability": "nonpayable",
      "type": "function"
    },
    {
      "inputs": [],
      "name": "sloRegistry",
      "outputs": [
        {
          "internalType": "contract SLORegistry",
          "name": "",
          "type": "address"
        }
      ],
      "stateMutability": "view",
      "type": "function"
    },
    {
      "inputs": [],
      "name": "stakeRegistry",
      "outputs": [
        {
          "internalType": "contract StakeRegistry",
          "name": "",
          "type": "address"
        }
      ],
      "stateMutability": "view",
      "type": "function"
    },
    {
      "inputs": [
        {
          "internalType": "address",
          "name": "newOwner",
          "type": "address"
        }
      ],
      "name": "transferOwnership",
      "outputs": [],
      "stateMutability": "nonpayable",
      "type": "function"
    },
    {
      "inputs": [
        {
          "internalType": "contract SLO",
          "name": "_SLO",
          "type": "address"
        },
        {
          "internalType": "string",
          "name": "_ipfsHash",
          "type": "string"
        },
        {
          "internalType": "enum PeriodRegistry.PeriodType",
          "name": "_periodType",
          "type": "uint8"
        },
        {
          "internalType": "uint256[]",
          "name": "_periodIds",
          "type": "uint256[]"
        },
        {
          "internalType": "address",
          "name": "_messengerAddress",
          "type": "address"
        },
        {
          "internalType": "bool",
          "name": "_whitelisted",
          "type": "bool"
        },
        {
          "internalType": "bytes32[]",
          "name": "_extraData",
          "type": "bytes32[]"
        }
      ],
      "name": "createSLA",
      "outputs": [],
      "stateMutability": "nonpayable",
      "type": "function"
    },
    {
      "inputs": [
        {
          "internalType": "uint256",
          "name": "_periodId",
          "type": "uint256"
        },
        {
          "internalType": "contract SLA",
          "name": "_sla",
          "type": "address"
        }
      ],
      "name": "requestSLI",
      "outputs": [],
      "stateMutability": "nonpayable",
      "type": "function"
    },
    {
      "inputs": [
        {
          "internalType": "contract SLA",
          "name": "_sla",
          "type": "address"
        }
      ],
      "name": "returnLockedValue",
      "outputs": [],
      "stateMutability": "nonpayable",
      "type": "function"
    },
    {
      "inputs": [
        {
          "internalType": "address",
          "name": "_messengerAddress",
          "type": "address"
        }
      ],
      "name": "setMessengerSLARegistryAddress",
      "outputs": [],
      "stateMutability": "nonpayable",
      "type": "function"
    },
    {
      "inputs": [
        {
          "internalType": "address",
          "name": "_user",
          "type": "address"
        }
      ],
      "name": "userSLAs",
      "outputs": [
        {
          "internalType": "contract SLA[]",
          "name": "",
          "type": "address[]"
        }
      ],
      "stateMutability": "view",
      "type": "function"
    },
    {
      "inputs": [
        {
          "internalType": "address",
          "name": "_user",
          "type": "address"
        }
      ],
      "name": "userSLACount",
      "outputs": [
        {
          "internalType": "uint256",
          "name": "",
          "type": "uint256"
        }
      ],
      "stateMutability": "view",
      "type": "function"
    },
    {
      "inputs": [],
      "name": "allSLAs",
      "outputs": [
        {
          "internalType": "contract SLA[]",
          "name": "",
          "type": "address[]"
        }
      ],
      "stateMutability": "view",
      "type": "function"
    },
    {
      "inputs": [],
      "name": "SLACount",
      "outputs": [
        {
          "internalType": "uint256",
          "name": "",
          "type": "uint256"
        }
      ],
      "stateMutability": "view",
      "type": "function"
    },
    {
      "inputs": [
        {
          "internalType": "address",
          "name": "_slaAddress",
          "type": "address"
        }
      ],
      "name": "isRegisteredSLA",
      "outputs": [
        {
          "internalType": "bool",
          "name": "",
          "type": "bool"
        }
      ],
      "stateMutability": "view",
      "type": "function"
    }
  ],
  "bytecode": "0x60806040523480156200001157600080fd5b50604051620060903803806200609083398101604081905262000034916200019f565b6000620000406200019b565b600080546001600160a01b0319166001600160a01b0383169081178255604051929350917f8be0079c531659141344cd1fd0a4f28419497f9722a3daafe3b4186f6b6457e0908290a350600180546001600160a01b038087166001600160a01b03199283161790925560028054868416908316179055600480548484169216919091178082556040805163f388158960e01b81529051919093169263f3881589928181019260009290919082900301818387803b1580156200010157600080fd5b505af115801562000116573d6000803e3d6000fd5b5050600380546001600160a01b0319166001600160a01b0386811691909117918290556040805163f388158960e01b8152905192909116935063f3881589925060048082019260009290919082900301818387803b1580156200017857600080fd5b505af11580156200018d573d6000803e3d6000fd5b50505050505050506200021f565b3390565b60008060008060808587031215620001b5578384fd5b8451620001c28162000206565b6020860151909450620001d58162000206565b6040860151909350620001e88162000206565b6060860151909250620001fb8162000206565b939692955090935050565b6001600160a01b03811681146200021c57600080fd5b50565b615e61806200022f6000396000f3fe60806040523480156200001157600080fd5b5060043610620001005760003560e01c8063816ff986116200009f578063816ff98614620001b25780638da5cb5b14620001cb57806396bddc1014620001d55780639fc4caa514620001df578063c4277a7b14620001e9578063d1994408146200020f578063e9b1e98c1462000226578063ec9176ba146200023d578063f2fde38b14620002545762000100565b80632575d7ca146200010557806350c5abfe146200011e578063516c2857146200014d5780635a7d1e5d14620001735780635c4df332146200017d5780636435dc9c146200018757806368304835146200019e578063715018a614620001a8575b600080fd5b6200011c6200011636600462001782565b6200026b565b005b620001356200012f3660046200193c565b620006db565b60405162000144919062001aad565b60405180910390f35b620001646200015e36600462001782565b62000703565b60405162000144919062001bda565b620001356200084d565b620001356200085c565b6200011c6200019836600462001782565b6200086b565b620001356200092b565b6200011c6200093a565b620001bc620009be565b604051620001449190620020ba565b62000135620009c4565b62000164620009d3565b6200013562000a37565b62000200620001fa36600462001782565b62000a46565b60405162000144919062001c29565b6200011c620002203660046200196e565b62000aa6565b620001bc6200023736600462001782565b62000fbf565b6200011c6200024e366004620017e6565b62000fda565b6200011c6200026536600462001782565b6200153c565b806001600160a01b0316638da5cb5b6040518163ffffffff1660e01b815260040160206040518083038186803b158015620002a557600080fd5b505afa158015620002ba573d6000803e3d6000fd5b505050506040513d601f19601f82011682018060405250810190620002e09190620017a8565b6001600160a01b0316336001600160a01b0316146200031c5760405162461bcd60e51b8152600401620003139062001f44565b60405180910390fd5b6000816001600160a01b0316635fc1b5fd6040518163ffffffff1660e01b815260040160206040518083038186803b1580156200035857600080fd5b505afa1580156200036d573d6000803e3d6000fd5b505050506040513d601f19601f8201168201806040525081019062000393919062001955565b90506000826001600160a01b0316630ae9ea45600184036040518263ffffffff1660e01b8152600401620003c89190620020ba565b60206040518083038186803b158015620003e157600080fd5b505afa158015620003f6573d6000803e3d6000fd5b505050506040513d601f19601f820116820180604052508101906200041c919062001955565b90506000836001600160a01b03166346e0fbae6040518163ffffffff1660e01b815260040160206040518083038186803b1580156200045a57600080fd5b505afa1580156200046f573d6000803e3d6000fd5b505050506040513d601f19601f820116820180604052508101906200049591906200191d565b60025460405160016259edcb60e01b031981529192506000916001600160a01b039091169063ffa6123590620004d2908590879060040162001c44565b604080518083038186803b158015620004ea57600080fd5b505afa158015620004ff573d6000803e3d6000fd5b505050506040513d601f19601f82011682018060405250810190620005259190620019a0565b9150506000856001600160a01b0316634190edde856040518263ffffffff1660e01b8152600401620005589190620020ba565b60606040518083038186803b1580156200057157600080fd5b505afa15801562000586573d6000803e3d6000fd5b505050506040513d601f19601f82011682018060405250810190620005ac9190620019c4565b92505050856001600160a01b0316637fd788aa6040518163ffffffff1660e01b815260040160206040518083038186803b158015620005ea57600080fd5b505afa158015620005ff573d6000803e3d6000fd5b505050506040513d601f19601f82011682018060405250810190620006259190620017c7565b1515600114806200064f57508142101580156200064f575060008160028111156200064c57fe5b14155b6200066e5760405162461bcd60e51b8152600401620003139062001cfa565b600480546040516312baebe560e11b81526001600160a01b0390911691632575d7ca916200069f918a910162001aad565b600060405180830381600087803b158015620006ba57600080fd5b505af1158015620006cf573d6000803e3d6000fd5b50505050505050505050565b60058181548110620006e957fe5b6000918252602090912001546001600160a01b0316905081565b60606000620007128362000fbf565b905060608167ffffffffffffffff811180156200072e57600080fd5b5060405190808252806020026020018201604052801562000759578160200160208202803683370190505b506001600160a01b03851660009081526006602090815260409182902080548351818402810184019094528084529394506060939091830182828015620007c057602002820191906000526020600020905b815481526020019060010190808311620007ab575b5050505050905060005b8381101562000841576005828281518110620007e257fe5b602002602001015181548110620007f557fe5b9060005260206000200160009054906101000a90046001600160a01b03168382815181106200082057fe5b6001600160a01b0390921660209283029190910190910152600101620007ca565b5090925050505b919050565b6001546001600160a01b031681565b6003546001600160a01b031681565b806001600160a01b031663f38815896040518163ffffffff1660e01b8152600401600060405180830381600087803b158015620008a757600080fd5b505af1158015620008bc573d6000803e3d6000fd5b50506003546040516319d71f1f60e31b81526001600160a01b03909116925063ceb8f8f89150620008f4908490339060040162001bc0565b600060405180830381600087803b1580156200090f57600080fd5b505af115801562000924573d6000803e3d6000fd5b5050505050565b6004546001600160a01b031681565b62000944620015fa565b6000546001600160a01b03908116911614620009745760405162461bcd60e51b8152600401620003139062001fc0565b600080546040516001600160a01b03909116907f8be0079c531659141344cd1fd0a4f28419497f9722a3daafe3b4186f6b6457e0908390a3600080546001600160a01b0319169055565b60055490565b6000546001600160a01b031690565b6060600580548060200260200160405190810160405280929190818152602001828054801562000a2d57602002820191906000526020600020905b81546001600160a01b0316815260019091019060200180831162000a0e575b5050505050905090565b6002546001600160a01b031681565b6000805b60055481101562000a9d57826001600160a01b03166005828154811062000a6d57fe5b6000918252602090912001546001600160a01b0316141562000a9457600191505062000848565b60010162000a4a565b50600092915050565b806001600160a01b031663b1659bad6040518163ffffffff1660e01b815260040160206040518083038186803b15801562000ae057600080fd5b505afa15801562000af5573d6000803e3d6000fd5b505050506040513d601f19601f8201168201806040525081019062000b1b919062001955565b821462000b3c5760405162461bcd60e51b8152600401620003139062001f89565b6040516320c876ef60e11b81526000906001600160a01b03831690634190edde9062000b6d908690600401620020ba565b60606040518083038186803b15801562000b8657600080fd5b505afa15801562000b9b573d6000803e3d6000fd5b505050506040513d601f19601f8201168201806040525081019062000bc19190620019c4565b92506000915062000bcf9050565b81600281111562000bdc57fe5b1462000bfc5760405162461bcd60e51b8152600401620003139062001e25565b6000826001600160a01b0316637fd788aa6040518163ffffffff1660e01b815260040160206040518083038186803b15801562000c3857600080fd5b505afa15801562000c4d573d6000803e3d6000fd5b505050506040513d601f19601f8201168201806040525081019062000c739190620017c7565b9050801562000c965760405162461bcd60e51b8152600401620003139062001ef4565b60405163021eef7f60e01b81526000906001600160a01b0385169063021eef7f9062000cc7908890600401620020ba565b60206040518083038186803b15801562000ce057600080fd5b505afa15801562000cf5573d6000803e3d6000fd5b505050506040513d601f19601f8201168201806040525081019062000d1b9190620017c7565b905060018115151462000d425760405162461bcd60e51b8152600401620003139062002037565b6000846001600160a01b03166346e0fbae6040518163ffffffff1660e01b815260040160206040518083038186803b15801562000d7e57600080fd5b505afa15801562000d93573d6000803e3d6000fd5b505050506040513d601f19601f8201168201806040525081019062000db991906200191d565b6002546040516331edb3ad60e21b81529192506000916001600160a01b039091169063c7b6ceb49062000df39085908b9060040162001c44565b60206040518083038186803b15801562000e0c57600080fd5b505afa15801562000e21573d6000803e3d6000fd5b505050506040513d601f19601f8201168201806040525081019062000e479190620017c7565b905060018115151462000e6e5760405162461bcd60e51b8152600401620003139062001e75565b6000866001600160a01b031663a224ee9c6040518163ffffffff1660e01b815260040160206040518083038186803b15801562000eaa57600080fd5b505afa15801562000ebf573d6000803e3d6000fd5b505050506040513d601f19601f8201168201806040525081019062000ee59190620017a8565b604051631a33288160e31b81529091506001600160a01b0382169063d19944089062000f18908b908b90600401620020c3565b600060405180830381600087803b15801562000f3357600080fd5b505af115801562000f48573d6000803e3d6000fd5b5050600480546040516308bcf0cf60e21b81526001600160a01b0390911693506322f3c33c925062000f81918b9133918e910162001ac1565b600060405180830381600087803b15801562000f9c57600080fd5b505af115801562000fb1573d6000803e3d6000fd5b505050505050505050505050565b6001600160a01b031660009081526006602052604090205490565b600254604051635c98d15760e01b81526000916001600160a01b031690635c98d157906200100d908a9060040162001c34565b60206040518083038186803b1580156200102657600080fd5b505afa1580156200103b573d6000803e3d6000fd5b505050506040513d601f19601f82011682018060405250810190620010619190620017c7565b9050600181151514620010885760405162461bcd60e51b8152600401620003139062001ff5565b600154604051636891286d60e11b81526001600160a01b039091169063d12250da90620010ba908c9060040162001aad565b60206040518083038186803b158015620010d357600080fd5b505afa158015620010e8573d6000803e3d6000fd5b505050506040513d601f19601f820116820180604052508101906200110e9190620017c7565b1515600114620011325760405162461bcd60e51b8152600401620003139062001cb9565b84620011525760405162461bcd60e51b8152600401620003139062001ebd565b60005b85811015620012de576002546000906001600160a01b031663ddfc4fde8a8a8a868181106200118057fe5b905060200201356040518363ffffffff1660e01b8152600401620011a692919062001c44565b60206040518083038186803b158015620011bf57600080fd5b505afa158015620011d4573d6000803e3d6000fd5b505050506040513d601f19601f82011682018060405250810190620011fa9190620017c7565b9050806200121c5760405162461bcd60e51b8152600401620003139062001d7d565b6000198701821015620012d4578787836001018181106200123957fe5b905060200201358888848181106200124d57fe5b9050602002013510620012745760405162461bcd60e51b8152600401620003139062002083565b620012b28888848181106200128557fe5b905060200201358989856001018181106200129c57fe5b90506020020135620015fe90919063ffffffff16565b600114620012d45760405162461bcd60e51b8152600401620003139062001df0565b5060010162001155565b5060035460405163ef4003db60e01b81526000916001600160a01b03169063ef4003db906200131290889060040162001aad565b60206040518083038186803b1580156200132b57600080fd5b505afa15801562001340573d6000803e3d6000fd5b505050506040513d601f19601f82011682018060405250810190620013669190620017c7565b90506001811515146200138d5760405162461bcd60e51b8152600401620003139062001c76565b6000338b8b888b8b8e600460009054906101000a90046001600160a01b0316600260009054906101000a90046001600160a01b03168d8d600580549050604051620013d8906200167a565b620013ef9c9b9a9998979695949392919062001ae5565b604051809103906000f0801580156200140c573d6000803e3d6000fd5b5060048054604051633d7da60560e11b81529293506001600160a01b031691637afb4c0a916200144391339186918d910162001ac1565b600060405180830381600087803b1580156200145e57600080fd5b505af115801562001473573d6000803e3d6000fd5b5050600580546001808201835560008381527f036b6384b5eca791c62761152d0c79bb0604c104a5fb6f4eb0703f3154bb3db090920180546001600160a01b0319166001600160a01b0388161790559154909350620014d4925090620015fe565b33600081815260066020908152604080832080546001810182559084529183209091018490555192935090916001600160a01b038516917fb52f284a6c14f1a66ab5513b5b539066933e58e69e6432666f0e3c8c8a7d750391a3505050505050505050505050565b62001546620015fa565b6000546001600160a01b03908116911614620015765760405162461bcd60e51b8152600401620003139062001fc0565b6001600160a01b0381166200159f5760405162461bcd60e51b8152600401620003139062001daa565b600080546040516001600160a01b03808516939216917f8be0079c531659141344cd1fd0a4f28419497f9722a3daafe3b4186f6b6457e091a3600080546001600160a01b0319166001600160a01b0392909216919091179055565b3390565b60006200164283836040518060400160405280601e81526020017f536166654d6174683a207375627472616374696f6e206f766572666c6f7700008152506200164b565b90505b92915050565b60008184841115620016725760405162461bcd60e51b815260040162000313919062001c61565b505050900390565b613cf3806200213983390190565b8035620016458162002102565b600082601f830112620016a6578081fd5b813567ffffffffffffffff811115620016bd578182fd5b6020808202620016cf828201620020da565b83815293508184018583018287018401881015620016ec57600080fd5b600092505b8483101562001711578035825260019290920191908301908301620016f1565b505050505092915050565b60008083601f8401126200172e578081fd5b50813567ffffffffffffffff81111562001746578182fd5b60208301915083602080830285010111156200176157600080fd5b9250929050565b803562001645816200211b565b803562001645816200212a565b60006020828403121562001794578081fd5b8135620017a18162002102565b9392505050565b600060208284031215620017ba578081fd5b8151620017a18162002102565b600060208284031215620017d9578081fd5b8151620017a1816200211b565b60008060008060008060008060e0898b03121562001802578384fd5b88356200180f8162002102565b975060208981013567ffffffffffffffff808211156200182d578687fd5b818c0191508c601f83011262001841578687fd5b81358181111562001850578788fd5b62001864601f8201601f19168501620020da565b8181528e8583860101111562001878578889fd5b818585018683013790810184018890529950620018998d60408e0162001775565b985060608c0135925080831115620018af578687fd5b620018bd8d848e016200171c565b93509150819750829650620018d68d60808e0162001688565b9550620018e78d60a08e0162001768565b945060c08c0135925080831115620018fd578384fd5b50506200190d8b828c0162001695565b9150509295985092959890939650565b6000602082840312156200192f578081fd5b8151620017a1816200212a565b6000602082840312156200194e578081fd5b5035919050565b60006020828403121562001967578081fd5b5051919050565b6000806040838503121562001981578182fd5b823591506020830135620019958162002102565b809150509250929050565b60008060408385031215620019b3578182fd5b505080516020909101519092909150565b600080600060608486031215620019d9578283fd5b8351925060208401519150604084015160038110620019f6578182fd5b809150509250925092565b6001600160a01b03169052565b6000815180845260208085019450808401835b8381101562001a3f5781518752958201959082019060010162001a21565b509495945050505050565b15159052565b6006811062001a5b57fe5b9052565b60008151808452815b8181101562001a865760208185018101518683018201520162001a68565b8181111562001a985782602083870101525b50601f01601f19169290920160200192915050565b6001600160a01b0391909116815260200190565b6001600160a01b039384168152919092166020820152604081019190915260600190565b600060018060a01b03808f168352808e166020840152610160604084015262001b1361016084018e62001a5f565b8c8216606085015283810360808501528a81526001600160fb1b038b111562001b3a578283fd5b60208b029150818c6020830137016020810182815262001b5e60a085018b62001a50565b62001b6d60c085018a62001a01565b62001b7c60e085018962001a01565b62001b8c61010085018862001a4a565b60208483030161012085015262001ba4818762001a0e565b92505050826101408301529d9c50505050505050505050505050565b6001600160a01b0392831681529116602082015260400190565b6020808252825182820181905260009190848201906040850190845b8181101562001c1d5783516001600160a01b03168352928401929184019160010162001bf6565b50909695505050505050565b901515815260200190565b6020810162001645828462001a50565b6040810162001c54828562001a50565b8260208301529392505050565b60006020825262001642602083018462001a5f565b60208082526023908201527f6d657373656e6765722061646472657373206973206e6f7420726567697374656040820152621c995960ea1b606082015260800190565b60208082526021908201527f534c4f206e6f742072656769737465726564206f6e20534c4f526567697374726040820152607960f81b606082015260800190565b6020808252605f908201527f43616e206f6e6c79207769746864726177206c6f636b65642044534c4120616660408201527f746572207468652066696e616c20706572696f6420697320766572696669656460608201527f206f722069662074686520636f6e747261637420697320627265616368656400608082015260a00190565b60208082526013908201527214195c9a5bd9081a59081b9bdd081d985b1a59606a1b604082015260600190565b60208082526026908201527f4f776e61626c653a206e6577206f776e657220697320746865207a65726f206160408201526564647265737360d01b606082015260800190565b6020808252818101527f506572696f64206964732073686f756c6420626520636f6e7365637574697665604082015260600190565b60208082526030908201527f534c4120636f6e74726163742077617320616c7265616479207665726966696560408201526f1908199bdc881d1a19481c195c9a5bd960821b606082015260800190565b60208082526028908201527f534c4120636f6e747261637420706572696f6420686173206e6f742066696e696040820152671cda1959081e595d60c21b606082015260800190565b6020808252601c908201527f506572696f647320696e666f726d6174696f6e20697320656d70747900000000604082015260600190565b60208082526030908201527f53686f756c64206f6e6c792062652063616c6c656420666f72206e6f7420627260408201526f65616368656420636f6e74726163747360801b606082015260800190565b60208082526025908201527f4f6e6c7920534c41206f776e65722063616e20636c61696d206c6f636b65642060408201526476616c756560d81b606082015260800190565b6020808252601e908201527f53686f756c64206f6e6c7920766572696679206e65787420706572696f640000604082015260600190565b6020808252818101527f4f776e61626c653a2063616c6c6572206973206e6f7420746865206f776e6572604082015260600190565b60208082526022908201527f506572696f642074797065206973206e6f7420696e697469616c697a65642079604082015261195d60f21b606082015260800190565b6020808252602c908201527f506572696f64204944206e6f74207265676973746572656420696e207468652060408201526b14d3104818dbdb9d1c9858dd60a21b606082015260800190565b6020808252601c908201527f506572696f64206964732073686f756c6420626520736f727465642000000000604082015260600190565b90815260200190565b9182526001600160a01b0316602082015260400190565b60405181810167ffffffffffffffff81118282101715620020fa57600080fd5b604052919050565b6001600160a01b03811681146200211857600080fd5b50565b80151581146200211857600080fd5b600681106200211857600080fdfe6080604052620f424060088190556009556017805460ff60a01b191690553480156200002a57600080fd5b5060405162003cf338038062003cf38339810160408190526200004d91620006cb565b848487895186856000620000666200033f60201b60201c565b600080546001600160a01b0319166001600160a01b03831690811782556040519293509160008051602062003cd3833981519152908290a350600180546001600160a01b038089166001600160a01b03199283161783556002805491891691909216179055600e8054869260ff1990911690836005811115620000e557fe5b0217905550600f8390556010805460ff191683151517905560015460408051637b8041cf60e11b815290516000926001600160a01b03169163f700839e9160048083019260a0929190829003018186803b1580156200014357600080fd5b505afa15801562000158573d6000803e3d6000fd5b505050506040513d601f19601f820116820180604052508101906200017e9190620007fc565b505060015460408051638b8e530960e01b815290519495506001600160a01b0390911693638b8e5309935060048083019350602092829003018186803b158015620001c857600080fd5b505afa158015620001dd573d6000803e3d6000fd5b505050506040513d601f19601f82011682018060405250810190620002039190620006a5565b600b80546001600160a01b0319166001600160a01b0392909216919091179055600d819055620002333362000343565b50600355506200024a93508e925050620003e69050565b88516200025f9060139060208c019062000493565b50601780546001600160a01b03808b166001600160a01b03199283161790925560168054909116331790556014805491861661010002610100600160a81b0319909216919091179055436019558651620002c19060159060208a019062000518565b506014805487919060ff19166001836005811115620002dc57fe5b0217905550601280546001600160a01b0319166001600160a01b038c1617905581516200031190601a90602085019062000518565b50866000815181106200032057fe5b6020026020010151601b8190555050505050505050505050506200094e565b3390565b6200034d6200033f565b6000546001600160a01b03908116911614620003865760405162461bcd60e51b81526004016200037d90620008b9565b60405180910390fd5b6001600160a01b03811660009081526011602052604090205460ff1615620003c25760405162461bcd60e51b81526004016200037d906200083c565b6001600160a01b03166000908152601160205260409020805460ff19166001179055565b620003f06200033f565b6000546001600160a01b03908116911614620004205760405162461bcd60e51b81526004016200037d90620008b9565b6001600160a01b038116620004495760405162461bcd60e51b81526004016200037d9062000873565b600080546040516001600160a01b038085169392169160008051602062003cd383398151915291a3600080546001600160a01b0319166001600160a01b0392909216919091179055565b828054600181600116156101000203166002900490600052602060002090601f016020900481019282601f10620004d657805160ff191683800117855562000506565b8280016001018555821562000506579182015b8281111562000506578251825591602001919060010190620004e9565b506200051492915062000555565b5090565b82805482825590600052602060002090810192821562000506579160200282018281111562000506578251825591602001919060010190620004e9565b5b8082111562000514576000815560010162000556565b8051620005798162000935565b92915050565b600082601f83011262000590578081fd5b8151620005a7620005a18262000915565b620008ee565b818152915060208083019084810181840286018201871015620005c957600080fd5b60005b84811015620005ea57815184529282019290820190600101620005cc565b505050505092915050565b805180151581146200057957600080fd5b8051600681106200057957600080fd5b600082601f83011262000627578081fd5b81516001600160401b038111156200063d578182fd5b602062000653601f8301601f19168201620008ee565b925081835284818386010111156200066a57600080fd5b60005b828110156200068a5784810182015184820183015281016200066d565b828111156200069c5760008284860101525b50505092915050565b600060208284031215620006b7578081fd5b8151620006c48162000935565b9392505050565b60008060008060008060008060008060006101608c8e031215620006ed578687fd5b620006f98d8d6200056c565b9a506200070a8d60208e016200056c565b60408d0151909a506001600160401b0381111562000726578788fd5b620007348e828f0162000616565b995050620007468d60608e016200056c565b60808d01519098506001600160401b0381111562000762578788fd5b620007708e828f016200057f565b975050620007828d60a08e0162000606565b9550620007938d60c08e016200056c565b9450620007a48d60e08e016200056c565b9350620007b68d6101008e01620005f5565b6101208d01519093506001600160401b03811115620007d3578283fd5b620007e18e828f016200057f565b9250506101408c015190509295989b509295989b9093969950565b600080600080600060a0868803121562000814578081fd5b5050835160208501516040860151606087015160809097015192989197509594509092509050565b60208082526018908201527f5573657220616c72656164792077686974656c69737465640000000000000000604082015260600190565b60208082526026908201527f4f776e61626c653a206e6577206f776e657220697320746865207a65726f206160408201526564647265737360d01b606082015260800190565b6020808252818101527f4f776e61626c653a2063616c6c6572206973206e6f7420746865206f776e6572604082015260600190565b6040518181016001600160401b03811182821017156200090d57600080fd5b604052919050565b60006001600160401b038211156200092b578081fd5b5060209081020190565b6001600160a01b03811681146200094b57600080fd5b50565b613375806200095e6000396000f3fe608060405234801561001057600080fd5b506004361061027f5760003560e01c8063747b80501161015c578063c623674f116100ce578063ee6226c111610087578063ee6226c11461050c578063f2db10fe14610514578063f2fde38b1461051c578063f7e9dfff1461052f578063f9902bb114610537578063fd5e6dd11461054a5761027f565b8063c623674f146104ae578063c8b5c248146104c3578063cbe230c3146104d6578063cd92890e146104e9578063d7a5c422146104f1578063db69a462146105045761027f565b80639b19251a116101205780639b19251a146104735780639fabeb00146104865780639fc4caa51461048e578063a224ee9c14610496578063b1659bad1461049e578063b7bc347e146104a65761027f565b8063747b80501461043557806378025ec4146104485780637fd788aa1461045b5780638d4f567d146104635780638da5cb5b1461046b5761027f565b8063484fbf2b116101f55780635c1c20de116101b95780635c1c20de146103e45780635e5f2e26146103ec5780635fc1b5fd146103ff578063639b6fc3146104075780636f1e85331461041a578063715018a61461042d5761027f565b8063484fbf2b1461036a5780634e0c91f61461037d5780634fb2647e1461039d578063524f0735146103b057806357ac94f0146103c35761027f565b806318e454271161024757806318e45427146102fd5780631bf30929146103055780631fc2cd931461030d57806326db18ac146103205780634190edde1461033357806346e0fbae146103555761027f565b8063021eef7f146102845780630ae9ea45146102ad5780630bea440d146102cd5780630c5160f4146102e2578063171e44ea146102ea575b600080fd5b610297610292366004612a80565b61055d565b6040516102a49190612cd9565b60405180910390f35b6102c06102bb366004612a80565b6105a7565b6040516102a49190612ce4565b6102e06102db366004612ab0565b6105c5565b005b6102c061081f565b6102e06102f8366004612962565b610825565b610297610bee565b6102c0610bf7565b6102e061031b366004612962565b610bfd565b6102e061032e366004612ab0565b610e5c565b610346610341366004612a80565b610fc1565b6040516102a4939291906132c2565b61035d610fe5565b6040516102a49190612ced565b6102c0610378366004612962565b610fee565b61039061038b366004612962565b611000565b6040516102a49190612c88565b6103906103ab366004612962565b61101b565b6102e06103be366004612962565b611036565b6103d66103d136600461299a565b611042565b6040516102a4929190612c9c565b6102c0611222565b6103906103fa366004612a80565b611228565b6102c061124f565b6102c0610415366004612962565b611255565b610297610428366004612962565b611267565b6102e06112b9565b6102e0610443366004612962565b611338565b6102c0610456366004612a80565b6113ca565b6102976113d7565b6102c06113e7565b6103906113ed565b610297610481366004612962565b6113fc565b6102c0611411565b610390611417565b61039061142b565b6102c061143a565b6102c0611440565b6104b6611446565b6040516102a49190612d16565b6102e06104d1366004612ab0565b6114d4565b6102976104e4366004612962565b611608565b61039061165a565b6102e06104ff366004612adf565b611669565b6103906118fb565b6102c061190a565b6102c0611910565b6102e061052a366004612962565b611916565b6103906119cc565b6102e0610545366004612962565b6119db565b610390610558366004612a80565b611a6e565b6000805b60155481101561059c57826015828154811061057957fe5b906000526020600020015414156105945760019150506105a2565b600101610561565b50600090505b919050565b601581815481106105b457fe5b600091825260209091200154905081565b600082116105ee5760405162461bcd60e51b81526004016105e590613182565b60405180910390fd5b6015805460009190600019810190811061060457fe5b600091825260208220015460145460405160016259edcb60e01b031981529193506001600160a01b036101008204169163ffa612359161064e9160ff909116908690600401612cfb565b604080518083038186803b15801561066557600080fd5b505afa158015610679573d6000803e3d6000fd5b505050506040513d601f19601f8201168201806040525081019061069d9190612b00565b9150506000601760149054906101000a900460ff1615156001151514806106ee57508142101580156106ee5750600083815260186020526040812060029081015460ff16908111156106eb57fe5b14155b9050801561070e5760405162461bcd60e51b81526004016105e590612fee565b6107188585611a7b565b60165460408051636830483560e01b815290516000926001600160a01b0316916368304835916004808301926020929190829003018186803b15801561075d57600080fd5b505afa158015610771573d6000803e3d6000fd5b505050506040513d601f19601f82011682018060405250810190610795919061297e565b604051635948284760e11b81529091506001600160a01b0382169063b290508e906107c4903390600401612c88565b602060405180830381600087803b1580156107de57600080fd5b505af11580156107f2573d6000803e3d6000fd5b505050506040513d601f19601f8201168201806040525081019061081691906129c5565b50505050505050565b600f5481565b61082d611e5b565b6000546001600160a01b0390811691161461085a5760405162461bcd60e51b81526004016105e5906130e9565b61086381611608565b156108805760405162461bcd60e51b81526004016105e59061311e565b60015460405163cbe230c360e01b81526001600160a01b039091169063cbe230c3906108b0908490600401612c88565b60206040518083038186803b1580156108c857600080fd5b505afa1580156108dc573d6000803e3d6000fd5b505050506040513d601f19601f8201168201806040525081019061090091906129c5565b15156001146109215760405162461bcd60e51b81526004016105e590612e85565b600c80546001810182556000919091527fdf6966c971051c3d54ec59162606531493a51404a002842f56009d7e5cf4a8c70180546001600160a01b0319166001600160a01b03831617905560035460609061097b90611e5f565b90506060826001600160a01b03166395d89b416040518163ffffffff1660e01b815260040160006040518083038186803b1580156109b857600080fd5b505afa1580156109cc573d6000803e3d6000fd5b505050506040513d6000823e601f3d908101601f191682016040526109f491908101906129e5565b905060608183604051602001610a0b929190612c36565b604051602081830303815290604052905060608284604051602001610a31929190612b79565b604051602081830303815290604052905060608385604051602001610a57929190612bc3565b604051602081830303815290604052905060608486604051602001610a7d929190612c19565b60408051601f1981840301815290829052600154633350214760e11b83529092506000916001600160a01b03909116906366a0428e90610ac39088908890600401612d29565b602060405180830381600087803b158015610add57600080fd5b505af1158015610af1573d6000803e3d6000fd5b505050506040513d601f19601f82011682018060405250810190610b15919061297e565b600154604051633350214760e11b81529192506000916001600160a01b03909116906366a0428e90610b4d9087908790600401612d29565b602060405180830381600087803b158015610b6757600080fd5b505af1158015610b7b573d6000803e3d6000fd5b505050506040513d601f19601f82011682018060405250810190610b9f919061297e565b6001600160a01b03998a1660009081526007602090815260408083208054948e166001600160a01b031995861617905560069091529020805493909a1692169190911790975550505050505050565b60105460ff1681565b60195481565b610c056113ed565b6001600160a01b0316336001600160a01b03161415610c365760405162461bcd60e51b81526004016105e59061326f565b60105460ff16151560011415610c7a573360009081526011602052604090205460ff161515600114610c7a5760405162461bcd60e51b81526004016105e590612f74565b6001600160a01b038082166000908152600660205260408082205490516370a0823160e01b815292169182906370a0823190610cba903390600401612c88565b60206040518083038186803b158015610cd257600080fd5b505afa158015610ce6573d6000803e3d6000fd5b505050506040513d601f19601f82011682018060405250810190610d0a9190612a98565b90506000826001600160a01b03166318160ddd6040518163ffffffff1660e01b815260040160206040518083038186803b158015610d4757600080fd5b505afa158015610d5b573d6000803e3d6000fd5b505050506040513d601f19601f82011682018060405250810190610d7f9190612a98565b905061271082610da15760405162461bcd60e51b81526004016105e590612f17565b6000610db783610db18685611f3a565b90611f7d565b6001600160a01b03871660009081526005602052604081205491925090610de4908490610db19085611f3a565b60405163079cc67960e41b81529091506001600160a01b038716906379cc679090610e159033908990600401612c9c565b600060405180830381600087803b158015610e2f57600080fd5b505af1158015610e43573d6000803e3d6000fd5b50610816925050506001600160a01b0388163383611fbf565b60008211610e7c5760405162461bcd60e51b81526004016105e590613182565b60158054600091906000198101908110610e9257fe5b600091825260208220015460145460405160016259edcb60e01b031981529193506001600160a01b036101008204169163ffa6123591610edc9160ff909116908690600401612cfb565b604080518083038186803b158015610ef357600080fd5b505afa158015610f07573d6000803e3d6000fd5b505050506040513d601f19601f82011682018060405250810190610f2b9190612b00565b915050610f366113ed565b6001600160a01b0316336001600160a01b031614610fb157601754600160a01b900460ff16151560011480610f955750804210158015610f955750600082815260186020526040812060029081015460ff1690811115610f9257fe5b14155b610fb15760405162461bcd60e51b81526004016105e590612d89565b610fbb8484612015565b50505050565b60186020526000908152604090208054600182015460029092015490919060ff1683565b60145460ff1681565b60056020526000908152604090205481565b6006602052600090815260409020546001600160a01b031681565b6007602052600090815260409020546001600160a01b031681565b61103f81610bfd565b50565b6000806000600c848154811061105457fe5b6000918252602090912001546001600160a01b031690506110736113ed565b6001600160a01b0316856001600160a01b031614156110af576001600160a01b038116600090815260046020526040902054909250905061121b565b6001600160a01b0380821660009081526006602090815260408083205481516318160ddd60e01b8152915194169384926318160ddd9260048082019391829003018186803b15801561110057600080fd5b505afa158015611114573d6000803e3d6000fd5b505050506040513d601f19601f820116820180604052508101906111389190612a98565b90508061114e578260009450945050505061121b565b6040516370a0823160e01b81526000906001600160a01b038416906370a082319061117d908b90600401612c88565b60206040518083038186803b15801561119557600080fd5b505afa1580156111a9573d6000803e3d6000fd5b505050506040513d601f19601f820116820180604052508101906111cd9190612a98565b905061271060006111e284610db18585611f3a565b6001600160a01b0387166000908152600560205260409020549091508690611210908490610db19085611f3a565b975097505050505050505b9250929050565b600d5481565b600c818154811061123557fe5b6000918252602090912001546001600160a01b0316905081565b60155490565b60046020526000908152604090205481565b6000805b600a5481101561059c57826001600160a01b0316600a828154811061128c57fe5b6000918252602090912001546001600160a01b031614156112b15760019150506105a2565b60010161126b565b6112c1611e5b565b6000546001600160a01b039081169116146112ee5760405162461bcd60e51b81526004016105e5906130e9565b600080546040516001600160a01b03909116907f8be0079c531659141344cd1fd0a4f28419497f9722a3daafe3b4186f6b6457e0908390a3600080546001600160a01b0319169055565b611340611e5b565b6000546001600160a01b0390811691161461136d5760405162461bcd60e51b81526004016105e5906130e9565b6001600160a01b03811660009081526011602052604090205460ff16156113a65760405162461bcd60e51b81526004016105e590612d57565b6001600160a01b03166000908152601160205260409020805460ff19166001179055565b601a81815481106105b457fe5b601754600160a01b900460ff1690565b60085481565b6000546001600160a01b031690565b60116020526000908152604090205460ff1681565b600a5490565b60145461010090046001600160a01b031681565b6017546001600160a01b031681565b601b5481565b600c5490565b6013805460408051602060026001851615610100026000190190941693909304601f810184900484028201840190925281815292918301828280156114cc5780601f106114a1576101008083540402835291602001916114cc565b820191906000526020600020905b8154815290600101906020018083116114af57829003601f168201915b505050505081565b600082116114f45760405162461bcd60e51b81526004016105e590613182565b6015805460009190600019810190811061150a57fe5b600091825260208220015460145460405160016259edcb60e01b031981529193506001600160a01b036101008204169163ffa61235916115549160ff909116908690600401612cfb565b604080518083038186803b15801561156b57600080fd5b505afa15801561157f573d6000803e3d6000fd5b505050506040513d601f19601f820116820180604052508101906115a39190612b00565b9150506000601760149054906101000a900460ff1615156001151514806115f457508142101580156115f45750600083815260186020526040812060029081015460ff16908111156115f157fe5b14155b90506116018585836121a0565b5050505050565b6000805b600c5481101561059c57826001600160a01b0316600c828154811061162d57fe5b6000918252602090912001546001600160a01b031614156116525760019150506105a2565b60010161160c565b6012546001600160a01b031681565b6017546001600160a01b031633146116935760405162461bcd60e51b81526004016105e590612ed2565b7fc95987c1992805ee34bdc915e017cceae36ba1c156b9911fa7e691e6435eb46e4283836040516116c6939291906132e8565b60405180910390a16001808201601b5560008281526018602090815260408083209384018690554284556012548151633fa4f24560e01b815291516001600160a01b0390911692633fa4f2459260048082019391829003018186803b15801561172e57600080fd5b505afa158015611742573d6000803e3d6000fd5b505050506040513d601f19601f820116820180604052508101906117669190612a98565b6012546040516303c8f2e360e21b81529192506001600160a01b031690630f23cb8c90611797908790600401612ce4565b60206040518083038186803b1580156117af57600080fd5b505afa1580156117c3573d6000803e3d6000fd5b505050506040513d601f19601f820116820180604052508101906117e791906129c5565b15611890576002828101805460ff19166001179055612710906000906118299061181590610db1898761238a565b610db1846118238a886123af565b90611f3a565b90506000611863600161185d601560008154811061184357fe5b9060005260206000200154896123af90919063ffffffff16565b9061238a565b60155490915060009061187a90610db18585611f3a565b90506118878782866123f1565b50505050610fbb565b6002828101805460ff191690911790556118a8612557565b6017805460ff60a01b1916600160a01b1790556040517fbd33f7a3bfa88a467c9df5ae7d2341cf061084c386b20a0d48130f5cbce38a4d906118ed90859087906132b4565b60405180910390a150505050565b6016546001600160a01b031681565b60095481565b60035481565b61191e611e5b565b6000546001600160a01b0390811691161461194b5760405162461bcd60e51b81526004016105e5906130e9565b6001600160a01b0381166119715760405162461bcd60e51b81526004016105e590612e08565b600080546040516001600160a01b03808516939216917f8be0079c531659141344cd1fd0a4f28419497f9722a3daafe3b4186f6b6457e091a3600080546001600160a01b0319166001600160a01b0392909216919091179055565b600b546001600160a01b031681565b6119e3611e5b565b6000546001600160a01b03908116911614611a105760405162461bcd60e51b81526004016105e5906130e9565b6001600160a01b03811660009081526011602052604090205460ff161515600114611a4d5760405162461bcd60e51b81526004016105e5906131ae565b6001600160a01b03166000908152601160205260409020805460ff19169055565b600a818154811061123557fe5b80611a8581611608565b1515600114611aa65760405162461bcd60e51b81526004016105e5906130bb565b60105460ff16151560011415611aea573360009081526011602052604090205460ff161515600114611aea5760405162461bcd60e51b81526004016105e590612f74565b611aff6001600160a01b03831633308661263c565b611b076113ed565b6001600160a01b0316336001600160a01b031614611c42576001600160a01b03821660009081526004602090815260408083205460059092529091205481611b4f828761238a565b1115611b6d5760405162461bcd60e51b81526004016105e5906131dc565b6001600160a01b038416600090815260056020526040902054611b90908661238a565b6001600160a01b038516600090815260056020526040812091909155600854600954611bc29190610db1908990611f3a565b6001600160a01b03808716600090815260066020526040908190205490516340c10f1960e01b8152929350169081906340c10f1990611c079033908690600401612c9c565b600060405180830381600087803b158015611c2157600080fd5b505af1158015611c35573d6000803e3d6000fd5b5050505050505050611e06565b6001600160a01b0380831660009081526007602090815260408083205481516318160ddd60e01b8152915194169384926318160ddd9260048082019391829003018186803b158015611c9357600080fd5b505afa158015611ca7573d6000803e3d6000fd5b505050506040513d601f19601f82011682018060405250810190611ccb9190612a98565b6001600160a01b03851660009081526004602052604090205490915081611d51576040516340c10f1960e01b81526001600160a01b038416906340c10f1990611d1a9033908a90600401612c9c565b600060405180830381600087803b158015611d3457600080fd5b505af1158015611d48573d6000803e3d6000fd5b50505050611dc6565b6000611d6182610db18986611f3a565b6040516340c10f1960e01b81529091506001600160a01b038516906340c10f1990611d929033908590600401612c9c565b600060405180830381600087803b158015611dac57600080fd5b505af1158015611dc0573d6000803e3d6000fd5b50505050505b6001600160a01b038516600090815260046020526040902054611de9908761238a565b6001600160a01b0386166000908152600460205260409020555050505b611e0f33611267565b611e5657600a80546001810182556000919091527fc65a7bb8d6351c1cf70c95a316cc6a92839c986682d98bc35f958f4883f9d2a80180546001600160a01b031916331790555b505050565b3390565b60608180611e865750506040805180820190915260018152600360fc1b60208201526105a2565b8060005b8115611e9e57600101600a82049150611e8a565b60608167ffffffffffffffff81118015611eb757600080fd5b506040519080825280601f01601f191660200182016040528015611ee2576020820181803683370190505b50905060001982015b8415611f3057600a850660300160f81b82828060019003935081518110611f0e57fe5b60200101906001600160f81b031916908160001a905350600a85049450611eeb565b5095945050505050565b600082611f4957506000611f77565b82820282848281611f5657fe5b0414611f745760405162461bcd60e51b81526004016105e59061307a565b90505b92915050565b6000611f7483836040518060400160405280601a81526020017f536166654d6174683a206469766973696f6e206279207a65726f00000000000081525061265d565b611e568363a9059cbb60e01b8484604051602401611fde929190612c9c565b60408051601f198184030181529190526020810180516001600160e01b03166001600160e01b031990931692909217909152612694565b8061201f81611608565b15156001146120405760405162461bcd60e51b81526004016105e5906130bb565b6001600160a01b0380831660009081526006602090815260408083205481516318160ddd60e01b8152915194169384926318160ddd9260048082019391829003018186803b15801561209157600080fd5b505afa1580156120a5573d6000803e3d6000fd5b505050506040513d601f19601f820116820180604052508101906120c99190612a98565b6001600160a01b0385166000908152600560205260408120549192506120f382610db18986611f3a565b60405163079cc67960e41b81529091506001600160a01b038516906379cc6790906121249033908590600401612c9c565b600060405180830381600087803b15801561213e57600080fd5b505af1158015612152573d6000803e3d6000fd5b5050506001600160a01b0387166000908152600560205260409020546121799150886123af565b6001600160a01b038716600081815260056020526040902091909155610816903389611fbf565b816121aa81611608565b15156001146121cb5760405162461bcd60e51b81526004016105e5906130bb565b6001600160a01b0383166000908152600460209081526040808320546005909252909120548361221e578061220083886123af565b101561221e5760405162461bcd60e51b81526004016105e590612fa5565b6001600160a01b0380861660009081526007602090815260408083205481516318160ddd60e01b8152915194169384926318160ddd9260048082019391829003018186803b15801561226f57600080fd5b505afa158015612283573d6000803e3d6000fd5b505050506040513d601f19601f820116820180604052508101906122a79190612a98565b6001600160a01b0388166000908152600460205260408120549192506122d182610db18c86611f3a565b60405163079cc67960e41b81529091506001600160a01b038516906379cc6790906123029033908590600401612c9c565b600060405180830381600087803b15801561231c57600080fd5b505af1158015612330573d6000803e3d6000fd5b5050506001600160a01b038a1660009081526004602052604090205461235791508b6123af565b6001600160a01b038a1660008181526004602052604090209190915561237e90338c611fbf565b50505050505050505050565b600082820183811015611f745760405162461bcd60e51b81526004016105e590612e4e565b6000611f7483836040518060400160405280601e81526020017f536166654d6174683a207375627472616374696f6e206f766572666c6f770000815250612723565b60005b600c54811015612534576000600c828154811061240d57fe5b60009182526020808320909101546001600160a01b0316808352600590915260408220549092509061244385610db18489611f3a565b6001600160a01b03841660009081526005602052604090205490915061246990826123af565b6001600160a01b03808516600081815260056020526040902092909255600b541614156124ab57600061249b8261274f565b90506124a782826123af565b9150505b6001600160a01b0383166000908152600460205260409020546124ce908261238a565b6001600160a01b0384166000818152600460205260409081902092909255905188907f3173c1c4b679e2da86dbb0382bde749a6e16cd31912c5410e17985cd7d2b905290612521908a908a9087906132e8565b60405180910390a35050506001016123f4565b5061254f81610db161254682866123af565b60085490611f3a565b600855505050565b60005b600c5481101561103f576000600c828154811061257357fe5b60009182526020808320909101546001600160a01b0316808352600582526040808420546004909352909220549192509081906125b090826123af565b6001600160a01b03808516600081815260046020526040902092909255600b541614156125f25760006125e28261274f565b90506125ee82826123af565b9150505b6001600160a01b038316600090815260056020526040902054612615908261238a565b6001600160a01b03909316600090815260056020526040902092909255505060010161255a565b610fbb846323b872dd60e01b858585604051602401611fde93929190612cb5565b6000818361267e5760405162461bcd60e51b81526004016105e59190612d16565b50600083858161268a57fe5b0495945050505050565b60606126e9826040518060400160405280602081526020017f5361666545524332303a206c6f772d6c6576656c2063616c6c206661696c6564815250856001600160a01b03166128819092919063ffffffff16565b805190915015611e56578080602001905181019061270791906129c5565b611e565760405162461bcd60e51b81526004016105e590613225565b600081848411156127475760405162461bcd60e51b81526004016105e59190612d16565b505050900390565b60408051808201909152600d8082526c6275726e2875696e743235362960981b602090920191909152546000907f42966c689b5afe9b9b3f8a7103b2a19980d59629bfd6a20a60972312ed41d836906127b1906103e890610db1908690611f3a565b600b546040519193506000916001600160a01b039091169083906127d9908690602401612ce4565b60408051601f198184030181529181526020820180516001600160e01b03166001600160e01b03199094169390931790925290516128179190612b5d565b6000604051808303816000865af19150503d8060008114612854576040519150601f19603f3d011682016040523d82523d6000602084013e612859565b606091505b505090508061287a5760405162461bcd60e51b81526004016105e590613036565b5050919050565b60606128908484600085612898565b949350505050565b60606128a38561295c565b6128bf5760405162461bcd60e51b81526004016105e59061314b565b60006060866001600160a01b031685876040516128dc9190612b5d565b60006040518083038185875af1925050503d8060008114612919576040519150601f19603f3d011682016040523d82523d6000602084013e61291e565b606091505b509150915081156129325791506128909050565b8051156129425780518082602001fd5b8360405162461bcd60e51b81526004016105e59190612d16565b3b151590565b600060208284031215612973578081fd5b8135611f748161332a565b60006020828403121561298f578081fd5b8151611f748161332a565b600080604083850312156129ac578081fd5b82356129b78161332a565b946020939093013593505050565b6000602082840312156129d6578081fd5b81518015158114611f74578182fd5b6000602082840312156129f6578081fd5b815167ffffffffffffffff80821115612a0d578283fd5b818401915084601f830112612a20578283fd5b815181811115612a2e578384fd5b604051601f8201601f191681016020018381118282101715612a4e578586fd5b604052818152838201602001871015612a65578485fd5b612a768260208301602087016132fe565b9695505050505050565b600060208284031215612a91578081fd5b5035919050565b600060208284031215612aa9578081fd5b5051919050565b60008060408385031215612ac2578182fd5b823591506020830135612ad48161332a565b809150509250929050565b60008060408385031215612af1578182fd5b50508035926020909101359150565b60008060408385031215612b12578182fd5b505080516020909101519092909150565b60068110612b2d57fe5b9052565b60008151808452612b498160208601602086016132fe565b601f01601f19169290920160200192915050565b60008251612b6f8184602087016132fe565b9190910192915050565b600061647560f01b82528351612b968160028501602088016132fe565b602d60f81b6002918401918201528351612bb78160038401602088016132fe565b01600301949350505050565b60006d44534c412d50524f56494445522d60901b82528351612bec81600e8501602088016132fe565b602d60f81b600e918401918201528351612c0d81600f8401602088016132fe565b01600f01949350505050565b600061064760f41b82528351612b968160028501602088016132fe565b60006944534c412d555345522d60b01b82528351612c5b81600a8501602088016132fe565b602d60f81b600a918401918201528351612c7c81600b8401602088016132fe565b01600b01949350505050565b6001600160a01b0391909116815260200190565b6001600160a01b03929092168252602082015260400190565b6001600160a01b039384168152919092166020820152604081019190915260600190565b901515815260200190565b90815260200190565b60208101611f778284612b23565b60408101612d098285612b23565b8260208301529392505050565b600060208252611f746020830184612b31565b600060408252612d3c6040830185612b31565b8281036020840152612d4e8185612b31565b95945050505050565b602080825260189082015277155cd95c88185b1c9958591e481dda1a5d195b1a5cdd195960421b604082015260600190565b60208082526059908201527f43616e206f6e6c79207769746864726177207374616b6520616674657220746860408201527f652066696e616c20706572696f642069732066696e6973686564206f72206966606082015278081d1a194818dbdb9d1c9858dd081a5cc8189c995858da1959603a1b608082015260a00190565b60208082526026908201527f4f776e61626c653a206e6577206f776e657220697320746865207a65726f206160408201526564647265737360d01b606082015260800190565b6020808252601b908201527f536166654d6174683a206164646974696f6e206f766572666c6f770000000000604082015260600190565b6020808252602d908201527f546f6b656e206e6f7420616c6c6f7765642062792074686520534c415265676960408201526c1cdd1c9e4818dbdb9d1c9858dd609a1b606082015260800190565b60208082526025908201527f4f6e6c79204d657373656e6765722063616e2063616c6c20746869732066756e60408201526431ba34b7b760d91b606082015260800190565b6020808252603a908201527f43616e206f6e6c7920636c61696d206120636f6d70656e736174696f6e20696660408201527f20706f736974696f6e20697320626967676572207468616e2030000000000000606082015260800190565b602080825260179082015276155cd95c881a5cc81b9bdd081dda1a5d195b1a5cdd1959604a1b604082015260600190565b60208082526029908201527f53686f756c64206e6f74207769746864726177206d6f7265207468616e207573604082015268657273207374616b6560b81b606082015260800190565b60208082526028908201527f43616e206f6e6c79207374616b65206f6e206e6f742066696e697368656420636040820152676f6e74726163747360c01b606082015260800190565b60208082526024908201527f44534c41206275726e2070726f6365737320776173206e6f74207375636365736040820152631cd99d5b60e21b606082015260800190565b60208082526021908201527f536166654d6174683a206d756c7469706c69636174696f6e206f766572666c6f6040820152607760f81b606082015260800190565b6020808252601490820152731d1bdad95b881a5cc81b9bdd08185b1b1bddd95960621b604082015260600190565b6020808252818101527f4f776e61626c653a2063616c6c6572206973206e6f7420746865206f776e6572604082015260600190565b602080825260139082015272151bdad95b88185b1c9958591e481859191959606a1b604082015260600190565b6020808252601d908201527f416464726573733a2063616c6c20746f206e6f6e2d636f6e7472616374000000604082015260600190565b6020808252601290820152710616d6f756e742063616e6e6f7420626520360741b604082015260600190565b602080825260149082015273155cd95c881b9bdd081dda1a5d195b1a5cdd195960621b604082015260600190565b60208082526029908201527f43616e6e6f74207374616b65206d6f7265207468616e20534c412070726f7669604082015268646572207374616b6560b81b606082015260800190565b6020808252602a908201527f5361666545524332303a204552433230206f7065726174696f6e20646964206e6040820152691bdd081cdd58d8d9595960b21b606082015260800190565b60208082526025908201527f53686f756c64206e6f742062652063616c6c65642062792074686520534c412060408201526437bbb732b960d91b606082015260800190565b918252602082015260400190565b8381526020810183905260608101600383106132da57fe5b826040830152949350505050565b9283526020830191909152604082015260600190565b60005b83811015613319578181015183820152602001613301565b83811115610fbb5750506000910152565b6001600160a01b038116811461103f57600080fdfea2646970667358221220276c8e2a1670d13276fe78954fc3640cdcebd1871137fa15f49dee57b32fd93964736f6c634300060c00338be0079c531659141344cd1fd0a4f28419497f9722a3daafe3b4186f6b6457e0a2646970667358221220955d167919f9adbecd953a77e0109705dc9e447c66f1d9fe4c2fbd332ed4047364736f6c634300060c0033",
  "immutableReferences": {},
  "source": "// SPDX-License-Identifier: MIT\npragma solidity ^0.6.0;\npragma experimental ABIEncoderV2;\n\nimport \"@openzeppelin/contracts/math/SafeMath.sol\";\nimport \"@openzeppelin/contracts/access/Ownable.sol\";\nimport \"./SLA.sol\";\nimport \"./SLO.sol\";\nimport \"./SLORegistry.sol\";\nimport \"./PeriodRegistry.sol\";\nimport \"./MessengerRegistry.sol\";\nimport \"./StakeRegistry.sol\";\nimport \"./messenger/IMessenger.sol\";\n\n/**\n * @title SLARegistry\n * @dev SLARegistry is a contract for handling creation of service level\n * agreements and keeping track of the created agreements\n */\ncontract SLARegistry is Ownable {\n    using SafeMath for uint256;\n\n    /// @dev SLO registry\n    SLORegistry public sloRegistry;\n    /// @dev Periods registry\n    PeriodRegistry public periodRegistry;\n    /// @dev Messengers registry\n    MessengerRegistry public messengerRegistry;\n    /// @dev Stake registry\n    StakeRegistry public stakeRegistry;\n    /// @dev stores the addresses of created SLAs\n    SLA[] public SLAs;\n    /// @dev stores the indexes of service level agreements owned by an user\n    mapping(address => uint256[]) private userToSLAIndexes;\n\n    /**\n     * @dev event for service level agreement creation logging\n     * @param sla 1. The address of the created service level agreement contract\n     * @param owner 2. The address of the owner of the service level agreement\n     */\n    event SLACreated(SLA indexed sla, address indexed owner);\n\n    /**\n     * @dev constructor\n     * @param _sloRegistry 1. SLO Registry\n     * @param _periodRegistry 2. Periods registry\n     * @param _messengerRegistry 3. Messenger registry\n     * @param _stakeRegistry 4. Stake registry\n     */\n    constructor(\n        SLORegistry _sloRegistry,\n        PeriodRegistry _periodRegistry,\n        MessengerRegistry _messengerRegistry,\n        StakeRegistry _stakeRegistry\n    ) public {\n        sloRegistry = _sloRegistry;\n        periodRegistry = _periodRegistry;\n        stakeRegistry = _stakeRegistry;\n        stakeRegistry.setSLARegistry();\n        messengerRegistry = _messengerRegistry;\n        messengerRegistry.setSLARegistry();\n    }\n\n    /**\n     * @dev public function for creating canonical service level agreements\n     * @param _SLO 1. SLO\n     * @param _ipfsHash 2. string with the ipfs hash that contains extra information about the service level agreement\n     * @param _periodType 3. period type\n     * @param _periodIds 4. array of allowed period ids\n     * @param _messengerAddress 5. address of the messenger for the corresponding SLA\n     * @param _whitelisted 6. bool to declare whitelisted SLA\n     * @param _extraData 7. bytes32 to embed extra data for customized workflows\n     */\n    function createSLA(\n        SLO _SLO,\n        string memory _ipfsHash,\n        PeriodRegistry.PeriodType _periodType,\n        uint256[] calldata _periodIds,\n        address _messengerAddress,\n        bool _whitelisted,\n        bytes32[] memory _extraData\n    ) public {\n        bool initialized = periodRegistry.periodDefinitions(_periodType);\n        require(initialized == true, \"Period type is not initialized yet\");\n        require(\n            sloRegistry.isRegisteredSLO(address(_SLO)) == true,\n            \"SLO not registered on SLORegistry\"\n        );\n        require(_periodIds.length > 0, \"Periods information is empty\");\n        // check if _periodIds are valid and sorted in ascendant order\n        for (uint256 index = 0; index < _periodIds.length; index++) {\n            bool validPeriod =\n                periodRegistry.isValidPeriod(_periodType, _periodIds[index]);\n            require(validPeriod, \"Period id not valid\");\n            if (index < _periodIds.length - 1) {\n                require(\n                    _periodIds[index] < _periodIds[index + 1],\n                    \"Period ids should be sorted \"\n                );\n                require(\n                    _periodIds[index + 1].sub(_periodIds[index]) == 1,\n                    \"Period ids should be consecutive\"\n                );\n            }\n        }\n        bool registeredMessenger =\n            messengerRegistry.registeredMessengers(_messengerAddress);\n        require(\n            registeredMessenger == true,\n            \"messenger address is not registered\"\n        );\n\n        SLA sla =\n            new SLA(\n                msg.sender,\n                _SLO,\n                _ipfsHash,\n                _messengerAddress,\n                _periodIds,\n                _periodType,\n                address(stakeRegistry),\n                address(periodRegistry),\n                _whitelisted,\n                _extraData,\n                SLAs.length\n            );\n\n        stakeRegistry.lockDSLAValue(\n            msg.sender,\n            address(sla),\n            _periodIds.length\n        );\n        SLAs.push(sla);\n        uint256 index = SLAs.length.sub(1);\n        userToSLAIndexes[msg.sender].push(index);\n        emit SLACreated(sla, msg.sender);\n    }\n\n    /**\n     * @dev Gets SLI information for the specified SLA and SLO\n     * @param _periodId 1. id of the period\n     * @param _sla 2. SLA Address\n     */\n    function requestSLI(uint256 _periodId, SLA _sla) public {\n        require(\n            _periodId == _sla.nextVerifiablePeriod(),\n            \"Should only verify next period\"\n        );\n        (, , SLA.Status status) = _sla.periodSLIs(_periodId);\n        require(\n            status == SLA.Status.NotVerified,\n            \"SLA contract was already verified for the period\"\n        );\n        bool breachedContract = _sla.breachedContract();\n        require(\n            breachedContract == false,\n            \"Should only be called for not breached contracts\"\n        );\n        bool slaAllowedPeriodId = _sla.isAllowedPeriod(_periodId);\n        require(\n            slaAllowedPeriodId == true,\n            \"Period ID not registered in the SLA contract\"\n        );\n        PeriodRegistry.PeriodType slaPeriodType = _sla.periodType();\n        bool periodFinished =\n            periodRegistry.periodIsFinished(slaPeriodType, _periodId);\n        require(\n            periodFinished == true,\n            \"SLA contract period has not finished yet\"\n        );\n        address slaMessenger = _sla.messengerAddress();\n        IMessenger(slaMessenger).requestSLI(_periodId, address(_sla));\n        stakeRegistry.distributeVerificationRewards(\n            address(_sla),\n            msg.sender,\n            _periodId\n        );\n    }\n\n    function returnLockedValue(SLA _sla) public {\n        require(\n            msg.sender == _sla.owner(),\n            \"Only SLA owner can claim locked value\"\n        );\n        uint256 periodIdsLength = _sla.getPeriodIdsLength();\n        uint256 lastValidPeriodId = _sla.periodIds(periodIdsLength - 1);\n        PeriodRegistry.PeriodType periodType = _sla.periodType();\n        (, uint256 endOfLastValidPeriod) =\n            periodRegistry.getPeriodStartAndEnd(periodType, lastValidPeriodId);\n\n        (, , SLA.Status lastPeriodStatus) = _sla.periodSLIs(lastValidPeriodId);\n        require(\n            _sla.breachedContract() == true ||\n                (block.timestamp >= endOfLastValidPeriod &&\n                    lastPeriodStatus != SLA.Status.NotVerified),\n            \"Can only withdraw locked DSLA after the final period is verified or if the contract is breached\"\n        );\n        stakeRegistry.returnLockedValue(address(_sla));\n    }\n\n    /**\n     * @dev function to declare this SLARegistry contract as SLARegistry of _messengerAddress\n     * @param _messengerAddress 1. address of the messenger\n     */\n\n    function setMessengerSLARegistryAddress(address _messengerAddress) public {\n        IMessenger(_messengerAddress).setSLARegistry();\n        messengerRegistry.registerMessenger(_messengerAddress, msg.sender);\n    }\n\n    /**\n     * @dev public view function that returns the service level agreements that\n     * the given user is the owner of\n     * @param _user Address of the user for which to return the service level\n     * agreements\n     * @return array of SLAs\n     */\n    function userSLAs(address _user) public view returns (SLA[] memory) {\n        uint256 count = userSLACount(_user);\n        SLA[] memory SLAList = new SLA[](count);\n        uint256[] memory userSLAIndexes = userToSLAIndexes[_user];\n\n        for (uint256 i = 0; i < count; i++) {\n            SLAList[i] = (SLAs[userSLAIndexes[i]]);\n        }\n\n        return (SLAList);\n    }\n\n    /**\n     * @dev public view function that returns the amount of service level\n     * agreements the given user is the owner of\n     * @param _user 1. address of the user for which to return the amount of\n     * service level agreements\n     * @return uint256 corresponding to the amount of user's SLAs\n     */\n    function userSLACount(address _user) public view returns (uint256) {\n        return userToSLAIndexes[_user].length;\n    }\n\n    /**\n     * @dev public view function that returns all the service level agreements\n     * @return SLA[] array of SLAs\n     */\n    function allSLAs() public view returns (SLA[] memory) {\n        return (SLAs);\n    }\n\n    /**\n     * @dev public view function that returns the total amount of service\n     * level agreements\n     * @return uint256, the length of SLA array\n     */\n    function SLACount() public view returns (uint256) {\n        return SLAs.length;\n    }\n\n    /**\n     * @dev public view function that returns true if _slaAddress was deployed using this SLARegistry\n     * @param _slaAddress address of the SLA to be checked\n     */\n    function isRegisteredSLA(address _slaAddress) public view returns (bool) {\n        for (uint256 index = 0; index < SLAs.length; index++) {\n            if (address(SLAs[index]) == _slaAddress) {\n                return true;\n            }\n        }\n        return false;\n    }\n}\n",
  "sourcePath": "/Users/matiasbn/Desktop/stacktical/stacktical-dsla-contracts/contracts/SLARegistry.sol",
  "compiler": {
    "name": "solc",
    "version": "0.6.12+commit.27d51765.Emscripten.clang"
  },
  "schemaVersion": "3.3.3",
  "updatedAt": "2021-03-09T23:11:46.410Z",
  "devdoc": {
    "details": "SLARegistry is a contract for handling creation of service level agreements and keeping track of the created agreements",
    "events": {
      "SLACreated(address,address)": {
        "details": "event for service level agreement creation logging",
        "params": {
          "owner": "2. The address of the owner of the service level agreement",
          "sla": "1. The address of the created service level agreement contract"
        }
      }
    },
    "kind": "dev",
    "methods": {
      "SLACount()": {
        "details": "public view function that returns the total amount of service level agreements",
        "returns": {
          "_0": "uint256, the length of SLA array"
        }
      },
      "allSLAs()": {
        "details": "public view function that returns all the service level agreements",
        "returns": {
          "_0": "SLA[] array of SLAs"
        }
      },
      "constructor": {
        "details": "constructor",
        "params": {
          "_messengerRegistry": "3. Messenger registry",
          "_periodRegistry": "2. Periods registry",
          "_sloRegistry": "1. SLO Registry",
          "_stakeRegistry": "4. Stake registry"
        }
      },
      "createSLA(address,string,uint8,uint256[],address,bool,bytes32[])": {
        "details": "public function for creating canonical service level agreements",
        "params": {
          "_SLO": "1. SLO",
          "_extraData": "7. bytes32 to embed extra data for customized workflows",
          "_ipfsHash": "2. string with the ipfs hash that contains extra information about the service level agreement",
          "_messengerAddress": "5. address of the messenger for the corresponding SLA",
          "_periodIds": "4. array of allowed period ids",
          "_periodType": "3. period type",
          "_whitelisted": "6. bool to declare whitelisted SLA"
        }
      },
      "isRegisteredSLA(address)": {
        "details": "public view function that returns true if _slaAddress was deployed using this SLARegistry",
        "params": {
          "_slaAddress": "address of the SLA to be checked"
        }
      },
      "owner()": {
        "details": "Returns the address of the current owner."
      },
      "renounceOwnership()": {
        "details": "Leaves the contract without owner. It will not be possible to call `onlyOwner` functions anymore. Can only be called by the current owner. NOTE: Renouncing ownership will leave the contract without an owner, thereby removing any functionality that is only available to the owner."
      },
      "requestSLI(uint256,address)": {
        "details": "Gets SLI information for the specified SLA and SLO",
        "params": {
          "_periodId": "1. id of the period",
          "_sla": "2. SLA Address"
        }
      },
      "setMessengerSLARegistryAddress(address)": {
        "details": "function to declare this SLARegistry contract as SLARegistry of _messengerAddress",
        "params": {
          "_messengerAddress": "1. address of the messenger"
        }
      },
      "transferOwnership(address)": {
        "details": "Transfers ownership of the contract to a new account (`newOwner`). Can only be called by the current owner."
      },
      "userSLACount(address)": {
        "details": "public view function that returns the amount of service level agreements the given user is the owner of",
        "params": {
          "_user": "1. address of the user for which to return the amount of service level agreements"
        },
        "returns": {
          "_0": "uint256 corresponding to the amount of user's SLAs"
        }
      },
      "userSLAs(address)": {
        "details": "public view function that returns the service level agreements that the given user is the owner of",
        "params": {
          "_user": "Address of the user for which to return the service level agreements"
        },
        "returns": {
          "_0": "array of SLAs"
        }
      }
    },
    "stateVariables": {
      "SLAs": {
        "details": "stores the addresses of created SLAs"
      },
      "messengerRegistry": {
        "details": "Messengers registry"
      },
      "periodRegistry": {
        "details": "Periods registry"
      },
      "sloRegistry": {
        "details": "SLO registry"
      },
      "stakeRegistry": {
        "details": "Stake registry"
      },
      "userToSLAIndexes": {
        "details": "stores the indexes of service level agreements owned by an user"
      }
    },
    "title": "SLARegistry",
    "version": 1
  },
  "userdoc": {
    "kind": "user",
    "methods": {},
    "version": 1
  }
}