{
  "contractName": "SLARegistry",
  "abi": [
    {
      "inputs": [
        {
          "internalType": "contract SLORegistry",
          "name": "_sloRegistry",
          "type": "address"
        },
        {
          "internalType": "contract PeriodRegistry",
          "name": "_periodRegistry",
          "type": "address"
        },
        {
          "internalType": "contract MessengerRegistry",
          "name": "_messengerRegistry",
          "type": "address"
        },
        {
          "internalType": "contract StakeRegistry",
          "name": "_stakeRegistry",
          "type": "address"
        },
        {
          "internalType": "bool",
          "name": "_checkPastPeriod",
          "type": "bool"
        }
      ],
      "stateMutability": "nonpayable",
      "type": "constructor"
    },
    {
      "anonymous": false,
      "inputs": [
        {
          "indexed": false,
          "internalType": "bool",
          "name": "checkPastPeriod",
          "type": "bool"
        },
        {
          "indexed": true,
          "internalType": "address",
          "name": "owner",
          "type": "address"
        }
      ],
      "name": "CheckPastPeriod",
      "type": "event"
    },
    {
      "anonymous": false,
      "inputs": [
        {
          "indexed": true,
          "internalType": "address",
          "name": "previousOwner",
          "type": "address"
        },
        {
          "indexed": true,
          "internalType": "address",
          "name": "newOwner",
          "type": "address"
        }
      ],
      "name": "OwnershipTransferred",
      "type": "event"
    },
    {
      "anonymous": false,
      "inputs": [
        {
          "indexed": true,
          "internalType": "contract SLA",
          "name": "sla",
          "type": "address"
        },
        {
          "indexed": true,
          "internalType": "address",
          "name": "owner",
          "type": "address"
        }
      ],
      "name": "SLACreated",
      "type": "event"
    },
    {
      "inputs": [
        {
          "internalType": "uint256",
          "name": "",
          "type": "uint256"
        }
      ],
      "name": "SLAs",
      "outputs": [
        {
          "internalType": "contract SLA",
          "name": "",
          "type": "address"
        }
      ],
      "stateMutability": "view",
      "type": "function",
      "constant": true
    },
    {
      "inputs": [],
      "name": "checkPastPeriod",
      "outputs": [
        {
          "internalType": "bool",
          "name": "",
          "type": "bool"
        }
      ],
      "stateMutability": "view",
      "type": "function",
      "constant": true
    },
    {
      "inputs": [],
      "name": "messengerRegistry",
      "outputs": [
        {
          "internalType": "contract MessengerRegistry",
          "name": "",
          "type": "address"
        }
      ],
      "stateMutability": "view",
      "type": "function",
      "constant": true
    },
    {
      "inputs": [],
      "name": "owner",
      "outputs": [
        {
          "internalType": "address",
          "name": "",
          "type": "address"
        }
      ],
      "stateMutability": "view",
      "type": "function",
      "constant": true
    },
    {
      "inputs": [],
      "name": "periodRegistry",
      "outputs": [
        {
          "internalType": "contract PeriodRegistry",
          "name": "",
          "type": "address"
        }
      ],
      "stateMutability": "view",
      "type": "function",
      "constant": true
    },
    {
      "inputs": [],
      "name": "renounceOwnership",
      "outputs": [],
      "stateMutability": "nonpayable",
      "type": "function"
    },
    {
      "inputs": [],
      "name": "sloRegistry",
      "outputs": [
        {
          "internalType": "contract SLORegistry",
          "name": "",
          "type": "address"
        }
      ],
      "stateMutability": "view",
      "type": "function",
      "constant": true
    },
    {
      "inputs": [],
      "name": "stakeRegistry",
      "outputs": [
        {
          "internalType": "contract StakeRegistry",
          "name": "",
          "type": "address"
        }
      ],
      "stateMutability": "view",
      "type": "function",
      "constant": true
    },
    {
      "inputs": [
        {
          "internalType": "address",
          "name": "newOwner",
          "type": "address"
        }
      ],
      "name": "transferOwnership",
      "outputs": [],
      "stateMutability": "nonpayable",
      "type": "function"
    },
    {
      "inputs": [
        {
          "internalType": "uint256",
          "name": "_sloValue",
          "type": "uint256"
        },
        {
          "internalType": "enum SLORegistry.SLOType",
          "name": "_sloType",
          "type": "uint8"
        },
        {
          "internalType": "bool",
          "name": "_whitelisted",
          "type": "bool"
        },
        {
          "internalType": "address",
          "name": "_messengerAddress",
          "type": "address"
        },
        {
          "internalType": "enum PeriodRegistry.PeriodType",
          "name": "_periodType",
          "type": "uint8"
        },
        {
          "internalType": "uint128",
          "name": "_initialPeriodId",
          "type": "uint128"
        },
        {
          "internalType": "uint128",
          "name": "_finalPeriodId",
          "type": "uint128"
        },
        {
          "internalType": "string",
          "name": "_ipfsHash",
          "type": "string"
        },
        {
          "internalType": "bytes32[]",
          "name": "_extraData",
          "type": "bytes32[]"
        }
      ],
      "name": "createSLA",
      "outputs": [],
      "stateMutability": "nonpayable",
      "type": "function"
    },
    {
      "inputs": [
        {
          "internalType": "uint256",
          "name": "_periodId",
          "type": "uint256"
        },
        {
          "internalType": "contract SLA",
          "name": "_sla",
          "type": "address"
        },
        {
          "internalType": "bool",
          "name": "_ownerApproval",
          "type": "bool"
        }
      ],
      "name": "requestSLI",
      "outputs": [],
      "stateMutability": "nonpayable",
      "type": "function"
    },
    {
      "inputs": [
        {
          "internalType": "contract SLA",
          "name": "_sla",
          "type": "address"
        }
      ],
      "name": "returnLockedValue",
      "outputs": [],
      "stateMutability": "nonpayable",
      "type": "function"
    },
    {
      "inputs": [
        {
          "internalType": "address",
          "name": "_messengerAddress",
          "type": "address"
        },
        {
          "internalType": "string",
          "name": "_specificationUrl",
          "type": "string"
        }
      ],
      "name": "registerMessenger",
      "outputs": [],
      "stateMutability": "nonpayable",
      "type": "function"
    },
    {
      "inputs": [
        {
          "internalType": "address",
          "name": "_user",
          "type": "address"
        }
      ],
      "name": "userSLAs",
      "outputs": [
        {
          "internalType": "contract SLA[]",
          "name": "",
          "type": "address[]"
        }
      ],
      "stateMutability": "view",
      "type": "function",
      "constant": true
    },
    {
      "inputs": [
        {
          "internalType": "address",
          "name": "_user",
          "type": "address"
        }
      ],
      "name": "userSLACount",
      "outputs": [
        {
          "internalType": "uint256",
          "name": "",
          "type": "uint256"
        }
      ],
      "stateMutability": "view",
      "type": "function",
      "constant": true
    },
    {
      "inputs": [],
      "name": "allSLAs",
      "outputs": [
        {
          "internalType": "contract SLA[]",
          "name": "",
          "type": "address[]"
        }
      ],
      "stateMutability": "view",
      "type": "function",
      "constant": true
    },
    {
      "inputs": [],
      "name": "SLACount",
      "outputs": [
        {
          "internalType": "uint256",
          "name": "",
          "type": "uint256"
        }
      ],
      "stateMutability": "view",
      "type": "function",
      "constant": true
    },
    {
      "inputs": [
        {
          "internalType": "address",
          "name": "_slaAddress",
          "type": "address"
        }
      ],
      "name": "isRegisteredSLA",
      "outputs": [
        {
          "internalType": "bool",
          "name": "",
          "type": "bool"
        }
      ],
      "stateMutability": "view",
      "type": "function",
      "constant": true
    },
    {
      "inputs": [
        {
          "internalType": "bool",
          "name": "_checkPastPeriod",
          "type": "bool"
        }
      ],
      "name": "changeCheckPastPeriod",
      "outputs": [],
      "stateMutability": "nonpayable",
      "type": "function"
    }
  ],
  "bytecode": "0x60806040523480156200001157600080fd5b506040516200616b3803806200616b833981016040819052620000349162000223565b6000620000496001600160e01b036200021f16565b600080546001600160a01b0319166001600160a01b0383169081178255604051929350917f8be0079c531659141344cd1fd0a4f28419497f9722a3daafe3b4186f6b6457e0908290a350600180546001600160a01b0319166001600160a01b0387811691909117918290556040805163f388158960e01b81529051929091169163f38815899160048082019260009290919082900301818387803b158015620000f157600080fd5b505af115801562000106573d6000803e3d6000fd5b5050600280546001600160a01b038089166001600160a01b031992831617909255600480548784169216919091178082556040805163f388158960e01b8152905191909316945063f38815899350828201926000929082900301818387803b1580156200017257600080fd5b505af115801562000187573d6000803e3d6000fd5b5050600380546001600160a01b0319166001600160a01b0387811691909117918290556040805163f388158960e01b8152905192909116935063f3881589925060048082019260009290919082900301818387803b158015620001e957600080fd5b505af1158015620001fe573d6000803e3d6000fd5b50506008805460ff19169315159390931790925550620002be945050505050565b3390565b600080600080600060a086880312156200023b578081fd5b85516200024881620002a5565b60208701519095506200025b81620002a5565b60408701519094506200026e81620002a5565b60608701519093506200028181620002a5565b6080870151909250801515811462000297578182fd5b809150509295509295909350565b6001600160a01b0381168114620002bb57600080fd5b50565b615e9d80620002ce6000396000f3fe60806040523480156200001157600080fd5b50600436106200012a5760003560e01c8063816ff98611620000bd5780639fc4caa5116200007b5780639fc4caa5146200024e578063a9e43e7f1462000258578063c4277a7b1462000271578063e9b1e98c1462000288578063f2fde38b146200029f576200012a565b8063816ff98614620001f357806383fe663b146200020c5780638d2113ed14620002235780638da5cb5b146200023a57806396bddc101462000244576200012a565b80632575d7ca146200012f5780633a443683146200014857806350c5abfe146200015f578063516c2857146200018e5780635a7d1e5d14620001b45780635c4df33214620001be5780636830483514620001c8578063715018a614620001d2578063788164b114620001dc575b600080fd5b620001466200014036600462001874565b620002b6565b005b620001466200015936600462001a01565b620006ca565b620001766200017036600462001989565b62000c93565b60405162000185919062001b8f565b60405180910390f35b620001a56200019f36600462001874565b62000cbb565b60405162000185919062001cea565b6200017662000e05565b6200017662000e14565b6200017662000e23565b6200014662000e32565b62000146620001ed366004620019bb565b62000eb6565b620001fd620013f4565b604051620001859190620021fd565b620001466200021d3660046200190d565b620013fa565b6200014662000234366004620018b9565b62001485565b6200017662001548565b620001a562001557565b62000176620015bb565b62000262620015ca565b60405162000185919062001d39565b620002626200028236600462001874565b620015d3565b620001fd6200029936600462001874565b620015f1565b62000146620002b036600462001874565b6200160c565b620002c181620015d3565b620002e95760405162461bcd60e51b8152600401620002e0906200210e565b60405180910390fd5b806001600160a01b0316638da5cb5b6040518163ffffffff1660e01b815260040160206040518083038186803b1580156200032357600080fd5b505afa15801562000338573d6000803e3d6000fd5b505050506040513d601f19601f820116820180604052508101906200035e91906200189a565b6001600160a01b0316336001600160a01b031614620003915760405162461bcd60e51b8152600401620002e090620020c9565b6000816001600160a01b0316633385d3346040518163ffffffff1660e01b815260040160206040518083038186803b158015620003cd57600080fd5b505afa158015620003e2573d6000803e3d6000fd5b505050506040513d601f19601f820116820180604052508101906200040891906200196a565b6001600160801b031690506000826001600160a01b03166346e0fbae6040518163ffffffff1660e01b815260040160206040518083038186803b1580156200044f57600080fd5b505afa15801562000464573d6000803e3d6000fd5b505050506040513d601f19601f820116820180604052508101906200048a91906200194b565b60025460405160016259edcb60e01b031981529192506000916001600160a01b039091169063ffa6123590620004c7908590879060040162001d80565b604080518083038186803b158015620004df57600080fd5b505afa158015620004f4573d6000803e3d6000fd5b505050506040513d601f19601f820116820180604052508101906200051a919062001aeb565b9150506000846001600160a01b0316634190edde856040518263ffffffff1660e01b81526004016200054d9190620021fd565b60606040518083038186803b1580156200056657600080fd5b505afa1580156200057b573d6000803e3d6000fd5b505050506040513d601f19601f82011682018060405250810190620005a1919062001b0f565b92505050846001600160a01b0316637fd788aa6040518163ffffffff1660e01b815260040160206040518083038186803b158015620005df57600080fd5b505afa158015620005f4573d6000803e3d6000fd5b505050506040513d601f19601f820116820180604052508101906200061a91906200192c565b806200063f57508142101580156200063f575060008160028111156200063c57fe5b14155b6200065e5760405162461bcd60e51b8152600401620002e09062001e28565b600480546040516312baebe560e11b81526001600160a01b0390911691632575d7ca916200068f9189910162001b8f565b600060405180830381600087803b158015620006aa57600080fd5b505af1158015620006bf573d6000803e3d6000fd5b505050505050505050565b600254604051636efe27ef60e11b81526000916001600160a01b03169063ddfc4fde90620006ff908990899060040162001d59565b60206040518083038186803b1580156200071857600080fd5b505afa1580156200072d573d6000803e3d6000fd5b505050506040513d601f19601f820116820180604052508101906200075391906200192c565b905080620007755760405162461bcd60e51b8152600401620002e09062001f24565b600254604051636efe27ef60e11b81526001600160a01b039091169063ddfc4fde90620007a9908990889060040162001d59565b60206040518083038186803b158015620007c257600080fd5b505afa158015620007d7573d6000803e3d6000fd5b505050506040513d601f19601f82011682018060405250810190620007fd91906200192c565b9050806200081f5760405162461bcd60e51b8152600401620002e09062001ef1565b6002546040516347ef60ed60e11b81526000916001600160a01b031690638fdec1da9062000852908a9060040162001d44565b60206040518083038186803b1580156200086b57600080fd5b505afa15801562000880573d6000803e3d6000fd5b505050506040513d601f19601f82011682018060405250810190620008a691906200192c565b905080620008c85760405162461bcd60e51b8152600401620002e09062001df1565b856001600160801b0316856001600160801b03161015620008fd5760405162461bcd60e51b8152600401620002e09062001fef565b60085460ff1615620009b757600254604051631e8760ef60e21b81526000916001600160a01b031690637a1d83bc906200093e908b908b9060040162001d59565b60206040518083038186803b1580156200095757600080fd5b505afa1580156200096c573d6000803e3d6000fd5b505050506040513d601f19601f820116820180604052508101906200099291906200192c565b90508015620009b55760405162461bcd60e51b8152600401620002e0906200204d565b505b60035460405163ef4003db60e01b81526000916001600160a01b03169063ef4003db90620009ea908c9060040162001b8f565b60206040518083038186803b15801562000a0357600080fd5b505afa15801562000a18573d6000803e3d6000fd5b505050506040513d601f19601f8201168201806040525081019062000a3e91906200192c565b905060018115151462000a655760405162461bcd60e51b8152600401620002e09062001dae565b600033600160009054906101000a90046001600160a01b03168c8b8d8c8c6005805490508d8d60405162000a99906200174a565b62000aae9a9998979695949392919062001ba3565b604051809103906000f08015801562000acb573d6000803e3d6000fd5b509050600160009054906101000a90046001600160a01b03166001600160a01b0316630c7ad72b8e8e846040518463ffffffff1660e01b815260040162000b15939291906200222d565b600060405180830381600087803b15801562000b3057600080fd5b505af115801562000b45573d6000803e3d6000fd5b505060048054604051633d7da60560e11b81526001600160a01b039091169350637afb4c0a925062000b8391339186918e8e03600101910162001c9a565b600060405180830381600087803b15801562000b9e57600080fd5b505af115801562000bb3573d6000803e3d6000fd5b505060058054600180820183557f036b6384b5eca791c62761152d0c79bb0604c104a5fb6f4eb0703f3154bb3db090910180546001600160a01b0319166001600160a01b0387169081179091556000908152600760205260408120805460ff191683179055915491935062000c299250620016ca565b33600081815260066020908152604080832080546001810182559084529183209091018490555192935090916001600160a01b038516917fb52f284a6c14f1a66ab5513b5b539066933e58e69e6432666f0e3c8c8a7d750391a35050505050505050505050505050565b6005818154811062000ca157fe5b6000918252602090912001546001600160a01b0316905081565b6060600062000cca83620015f1565b905060608167ffffffffffffffff8111801562000ce657600080fd5b5060405190808252806020026020018201604052801562000d11578160200160208202803683370190505b506001600160a01b0385166000908152600660209081526040918290208054835181840281018401909452808452939450606093909183018282801562000d7857602002820191906000526020600020905b81548152602001906001019080831162000d63575b50939450600093505050505b8381101562000dfb57600582828151811062000d9c57fe5b60200260200101518154811062000daf57fe5b9060005260206000200160009054906101000a90046001600160a01b031683828151811062000dda57fe5b6001600160a01b039092166020928302919091019091015260010162000d84565b5090949350505050565b6001546001600160a01b031681565b6003546001600160a01b031681565b6004546001600160a01b031681565b62000e3c62001717565b6000546001600160a01b0390811691161462000e6c5760405162461bcd60e51b8152600401620002e0906200217c565b600080546040516001600160a01b03909116907f8be0079c531659141344cd1fd0a4f28419497f9722a3daafe3b4186f6b6457e0908390a3600080546001600160a01b0319169055565b62000ec182620015d3565b62000ee05760405162461bcd60e51b8152600401620002e0906200210e565b816001600160a01b031663b1659bad6040518163ffffffff1660e01b815260040160206040518083038186803b15801562000f1a57600080fd5b505afa15801562000f2f573d6000803e3d6000fd5b505050506040513d601f19601f8201168201806040525081019062000f559190620019a2565b831462000f765760405162461bcd60e51b8152600401620002e09062002145565b6040516320c876ef60e11b81526000906001600160a01b03841690634190edde9062000fa7908790600401620021fd565b60606040518083038186803b15801562000fc057600080fd5b505afa15801562000fd5573d6000803e3d6000fd5b505050506040513d601f19601f8201168201806040525081019062000ffb919062001b0f565b925060009150620010099050565b8160028111156200101657fe5b14620010365760405162461bcd60e51b8152600401620002e09062001f57565b6000836001600160a01b0316637fd788aa6040518163ffffffff1660e01b815260040160206040518083038186803b1580156200107257600080fd5b505afa15801562001087573d6000803e3d6000fd5b505050506040513d601f19601f82011682018060405250810190620010ad91906200192c565b90508015620010d05760405162461bcd60e51b8152600401620002e09062002079565b60405163021eef7f60e01b81526000906001600160a01b0386169063021eef7f9062001101908990600401620021fd565b60206040518083038186803b1580156200111a57600080fd5b505afa1580156200112f573d6000803e3d6000fd5b505050506040513d601f19601f820116820180604052508101906200115591906200192c565b905080620011775760405162461bcd60e51b8152600401620002e090620021b1565b6000856001600160a01b03166346e0fbae6040518163ffffffff1660e01b815260040160206040518083038186803b158015620011b357600080fd5b505afa158015620011c8573d6000803e3d6000fd5b505050506040513d601f19601f82011682018060405250810190620011ee91906200194b565b6002546040516331edb3ad60e21b81529192506000916001600160a01b039091169063c7b6ceb490620012289085908c9060040162001d80565b60206040518083038186803b1580156200124157600080fd5b505afa15801562001256573d6000803e3d6000fd5b505050506040513d601f19601f820116820180604052508101906200127c91906200192c565b9050806200129e5760405162461bcd60e51b8152600401620002e09062001fa7565b6000876001600160a01b031663a224ee9c6040518163ffffffff1660e01b815260040160206040518083038186803b158015620012da57600080fd5b505afa158015620012ef573d6000803e3d6000fd5b505050506040513d601f19601f820116820180604052508101906200131591906200189a565b604051634bd410c960e11b81529091506001600160a01b038216906397a82192906200134c908c908c908c90339060040162002206565b600060405180830381600087803b1580156200136757600080fd5b505af11580156200137c573d6000803e3d6000fd5b5050600480546040516308bcf0cf60e21b81526001600160a01b0390911693506322f3c33c9250620013b5918c9133918f910162001cc6565b600060405180830381600087803b158015620013d057600080fd5b505af1158015620013e5573d6000803e3d6000fd5b50505050505050505050505050565b60055490565b6200140462001717565b6000546001600160a01b03908116911614620014345760405162461bcd60e51b8152600401620002e0906200217c565b6008805460ff1916821515179081905560405133917f3159c2a06120b840ed206569d7d551296f45f877588c03ad1a0a6f5542bb1a75916200147a9160ff169062001d39565b60405180910390a250565b816001600160a01b031663f38815896040518163ffffffff1660e01b8152600401600060405180830381600087803b158015620014c157600080fd5b505af1158015620014d6573d6000803e3d6000fd5b505060035460405163eabb8a7360e01b81526001600160a01b03909116925063eabb8a739150620015109033908690869060040162001c63565b600060405180830381600087803b1580156200152b57600080fd5b505af115801562001540573d6000803e3d6000fd5b505050505050565b6000546001600160a01b031690565b60606005805480602002602001604051908101604052809291908181526020018280548015620015b157602002820191906000526020600020905b81546001600160a01b0316815260019091019060200180831162001592575b5050505050905090565b6002546001600160a01b031681565b60085460ff1681565b6001600160a01b031660009081526007602052604090205460ff1690565b6001600160a01b031660009081526006602052604090205490565b6200161662001717565b6000546001600160a01b03908116911614620016465760405162461bcd60e51b8152600401620002e0906200217c565b6001600160a01b0381166200166f5760405162461bcd60e51b8152600401620002e09062001eab565b600080546040516001600160a01b03808516939216917f8be0079c531659141344cd1fd0a4f28419497f9722a3daafe3b4186f6b6457e091a3600080546001600160a01b0319166001600160a01b0392909216919091179055565b60006200170e83836040518060400160405280601e81526020017f536166654d6174683a207375627472616374696f6e206f766572666c6f7700008152506200171b565b90505b92915050565b3390565b60008184841115620017425760405162461bcd60e51b8152600401620002e0919062001d99565b505050900390565b613b8a80620022de83390190565b8035620017118162002294565b600082601f83011262001776578081fd5b813567ffffffffffffffff8111156200178d578182fd5b60208082026200179f8282016200225e565b83815293508184018583018287018401881015620017bc57600080fd5b600092505b84831015620017e1578035825260019290920191908301908301620017c1565b505050505092915050565b80356200171181620022b9565b600082601f8301126200180a578081fd5b813567ffffffffffffffff81111562001821578182fd5b62001836601f8201601f19166020016200225e565b91508082528360208285010111156200184e57600080fd5b8060208401602084013760009082016020015292915050565b80356200171181620022c7565b60006020828403121562001886578081fd5b8135620018938162002294565b9392505050565b600060208284031215620018ac578081fd5b8151620018938162002294565b60008060408385031215620018cc578081fd5b8235620018d98162002294565b9150602083013567ffffffffffffffff811115620018f5578182fd5b6200190385828601620017f9565b9150509250929050565b6000602082840312156200191f578081fd5b81356200189381620022aa565b6000602082840312156200193e578081fd5b81516200189381620022aa565b6000602082840312156200195d578081fd5b81516200189381620022b9565b6000602082840312156200197c578081fd5b81516200189381620022c7565b6000602082840312156200199b578081fd5b5035919050565b600060208284031215620019b4578081fd5b5051919050565b600080600060608486031215620019d0578081fd5b833592506020840135620019e48162002294565b91506040840135620019f681620022aa565b809150509250925092565b60008060008060008060008060006101208a8c03121562001a20578485fd5b8935985060208a013562001a3481620022b9565b975060408a013562001a4681620022aa565b965062001a578b60608c0162001758565b955062001a688b60808c01620017ec565b945062001a798b60a08c0162001867565b935062001a8a8b60c08c0162001867565b925060e08a013567ffffffffffffffff8082111562001aa7578384fd5b62001ab58d838e01620017f9565b93506101008c013591508082111562001acc578283fd5b5062001adb8c828d0162001765565b9150509295985092959850929598565b6000806040838503121562001afe578182fd5b505080516020909101519092909150565b60008060006060848603121562001b24578081fd5b8351925060208401519150604084015160038110620019f6578182fd5b60008151808452815b8181101562001b685760208185018101518683018201520162001b4a565b8181111562001b7a5782602083870101525b50601f01601f19169290920160200192915050565b6001600160a01b0391909116815260200190565b600061014060018060a01b03808e1684526020818e16818601528c1515604086015262001bd08c62002286565b606085018c9052908a1660808501526001600160801b0389811660a086015288811660c086015287811660e086015261010085018390529062001c168386018862001b41565b858103610120870152865180825290820193508187019250845b8181101562001c4e5783518552938201939282019260010162001c30565b50929f9e505050505050505050505050505050565b6001600160a01b0384811682528316602082015260606040820181905260009062001c919083018462001b41565b95945050505050565b6001600160a01b0393841681529190921660208201526001600160801b03909116604082015260600190565b6001600160a01b039384168152919092166020820152604081019190915260600190565b6020808252825182820181905260009190848201906040850190845b8181101562001d2d5783516001600160a01b03168352928401929184019160010162001d06565b50909695505050505050565b901515815260200190565b6020810162001d538362002286565b91905290565b6040810162001d688462002286565b9281526001600160801b039190911660209091015290565b6040810162001d8f8462002286565b9281526020015290565b6000602082526200170e602083018462001b41565b60208082526023908201527f6d657373656e6765722061646472657373206973206e6f7420726567697374656040820152621c995960ea1b606082015260800190565b6020808252601f908201527f506572696f642074797065206e6f7420696e697469616c697a65642079657400604082015260600190565b6020808252605f908201527f43616e206f6e6c79207769746864726177206c6f636b65642044534c4120616660408201527f746572207468652066696e616c20706572696f6420697320766572696669656460608201527f206f722069662074686520636f6e747261637420697320627265616368656400608082015260a00190565b60208082526026908201527f4f776e61626c653a206e6577206f776e657220697320746865207a65726f206160408201526564647265737360d01b606082015260800190565b602080825260199082015278119a5b985b081c195c9a5bd9081a59081b9bdd081d985b1a59603a1b604082015260600190565b602080825260199082015278119a5c9cdd081c195c9a5bd9081a59081b9bdd081d985b1a59603a1b604082015260600190565b60208082526030908201527f534c4120636f6e74726163742077617320616c7265616479207665726966696560408201526f1908199bdc881d1a19481c195c9a5bd960821b606082015260800190565b60208082526028908201527f534c4120636f6e747261637420706572696f6420686173206e6f742066696e696040820152671cda1959081e595d60c21b606082015260800190565b602080825260409082018190527f66696e616c506572696f6449642073686f756c64206265206772656174657220908201527f7468616e206f7220657175616c20746f20696e697469616c506572696f644964606082015260800190565b60208082526012908201527114195c9a5bd9081a185cc81cdd185c9d195960721b604082015260600190565b60208082526030908201527f53686f756c64206f6e6c792062652063616c6c656420666f72206e6f7420627260408201526f65616368656420636f6e74726163747360801b606082015260800190565b60208082526025908201527f4f6e6c7920534c41206f776e65722063616e20636c61696d206c6f636b65642060408201526476616c756560d81b606082015260800190565b6020808252601c908201527f534c4120636f6e74726163742073686f756c642062652076616c696400000000604082015260600190565b6020808252601e908201527f53686f756c64206f6e6c7920766572696679206e65787420706572696f640000604082015260600190565b6020808252818101527f4f776e61626c653a2063616c6c6572206973206e6f7420746865206f776e6572604082015260600190565b6020808252602c908201527f506572696f64204944206e6f74207265676973746572656420696e207468652060408201526b14d3104818dbdb9d1c9858dd60a21b606082015260800190565b90815260200190565b9384526001600160a01b039283166020850152901515604084015216606082015260800190565b838152606081016200223f8462002286565b60208201939093526001600160a01b0391909116604090910152919050565b60405181810167ffffffffffffffff811182821017156200227e57600080fd5b604052919050565b600681106200229157fe5b50565b6001600160a01b03811681146200229157600080fd5b80151581146200229157600080fd5b600681106200229157600080fd5b6001600160801b03811681146200229157600080fdfe60806040526014805460ff60a01b191690553480156200001e57600080fd5b5060405162003b8a38038062003b8a8339810160408190526200004191620008b6565b3387898560006200005a6001600160e01b03620004e916565b600080546001600160a01b0319166001600160a01b03831690811782556040519293509160008051602062003b6a833981519152908290a350836001600160a01b031663683048356040518163ffffffff1660e01b815260040160206040518083038186803b158015620000cd57600080fd5b505afa158015620000e2573d6000803e3d6000fd5b505050506040513d601f19601f8201168201806040525081019062000108919062000890565b600160006101000a8154816001600160a01b0302191690836001600160a01b03160217905550836001600160a01b0316639fc4caa56040518163ffffffff1660e01b815260040160206040518083038186803b1580156200016857600080fd5b505afa1580156200017d573d6000803e3d6000fd5b505050506040513d601f19601f82011682018060405250810190620001a3919062000890565b600280546001600160a01b0319166001600160a01b0392909216919091179055600d805484919060ff19166001836005811115620001dd57fe5b0217905550600d805461ff0019166101008415150217905560015460408051637b8041cf60e11b815290516000926001600160a01b03169163f700839e9160048083019260e0929190829003018186803b1580156200023b57600080fd5b505afa15801562000250573d6000803e3d6000fd5b505050506040513d601f19601f82011682018060405250810190620002769190620009bd565b5050505050509050600160009054906101000a90046001600160a01b03166001600160a01b0316638b8e53096040518163ffffffff1660e01b815260040160206040518083038186803b158015620002cd57600080fd5b505afa158015620002e2573d6000803e3d6000fd5b505050506040513d601f19601f8201168201806040525081019062000308919062000890565b600a80546001600160a01b0319166001600160a01b0392909216919091179055600c8190556200033833620004ee565b50600380546001600160801b0319166001600160801b0392909216919091179055506200036991508b90506200059a565b81516200037e90600f90602085019062000650565b50601480546001600160a01b038089166001600160a01b0319928316179092556013805490911633179081905560408051639fc4caa560e01b815290519190921691639fc4caa5916004808301926020929190829003018186803b158015620003e657600080fd5b505afa158015620003fb573d6000803e3d6000fd5b505050506040513d601f19601f8201168201806040525081019062000421919062000890565b601080546001600160a01b039290921661010002610100600160a81b03199092169190911780825543601655601280546001600160801b03888116600160801b02818b166001600160801b0319909316929092171617905588919060ff191660018360058111156200048f57fe5b02179055508051620004a9906017906020840190620006d5565b5050506001600160801b039092166018555050601180546001600160a01b039095166001600160a01b0319909516949094179093555062000b0392505050565b335b90565b620005016001600160e01b03620004e916565b6000546001600160a01b039081169116146200053a5760405162461bcd60e51b8152600401620005319062000a8e565b60405180910390fd5b6001600160a01b0381166000908152600e602052604090205460ff1615620005765760405162461bcd60e51b8152600401620005319062000a11565b6001600160a01b03166000908152600e60205260409020805460ff19166001179055565b620005ad6001600160e01b03620004e916565b6000546001600160a01b03908116911614620005dd5760405162461bcd60e51b8152600401620005319062000a8e565b6001600160a01b038116620006065760405162461bcd60e51b8152600401620005319062000a48565b600080546040516001600160a01b038085169392169160008051602062003b6a83398151915291a3600080546001600160a01b0319166001600160a01b0392909216919091179055565b828054600181600116156101000203166002900490600052602060002090601f016020900481019282601f106200069357805160ff1916838001178555620006c3565b82800160010185558215620006c3579182015b82811115620006c3578251825591602001919060010190620006a6565b50620006d192915062000712565b5090565b828054828255906000526020600020908101928215620006c35791602002820182811115620006c3578251825591602001919060010190620006a6565b620004eb91905b80821115620006d1576000815560010162000719565b80516200073c8162000aea565b92915050565b600082601f83011262000753578081fd5b81516001600160401b0381111562000769578182fd5b60208082026200077b82820162000ac3565b838152935081840185830182870184018810156200079857600080fd5b600092505b84831015620007bd5780518252600192909201919083019083016200079d565b505050505092915050565b805180151581146200073c57600080fd5b8051600681106200073c57600080fd5b600082601f830112620007fa578081fd5b81516001600160401b0381111562000810578182fd5b602062000826601f8301601f1916820162000ac3565b925081835284818386010111156200083d57600080fd5b60005b828110156200085d57848101820151848201830152810162000840565b828111156200086f5760008284860101525b50505092915050565b80516001600160801b03811681146200073c57600080fd5b600060208284031215620008a2578081fd5b8151620008af8162000aea565b9392505050565b6000806000806000806000806000806101408b8d031215620008d6578586fd5b620008e28c8c6200072f565b9950620008f38c60208d016200072f565b9850620009048c60408d01620007c8565b9750620009158c60608d01620007d9565b9650620009268c60808d016200072f565b9550620009378c60a08d0162000878565b9450620009488c60c08d0162000878565b9350620009598c60e08d0162000878565b6101008c01519093506001600160401b038082111562000977578384fd5b620009858e838f01620007e9565b93506101208d01519150808211156200099c578283fd5b50620009ab8d828e0162000742565b9150509295989b9194979a5092959850565b600080600080600080600060e0888a031215620009d8578283fd5b5050855160208701516040880151606089015160808a015160a08b015160c0909b0151949c939b50919990985090965094509092509050565b60208082526018908201527f5573657220616c72656164792077686974656c69737465640000000000000000604082015260600190565b60208082526026908201527f4f776e61626c653a206e6577206f776e657220697320746865207a65726f206160408201526564647265737360d01b606082015260800190565b6020808252818101527f4f776e61626c653a2063616c6c6572206973206e6f7420746865206f776e6572604082015260600190565b6040518181016001600160401b038111828210171562000ae257600080fd5b604052919050565b6001600160a01b038116811462000b0057600080fd5b50565b6130578062000b136000396000f3fe608060405234801561001057600080fd5b50600436106102535760003560e01c806378025ec411610146578063c26ff615116100c3578063db69a46211610087578063db69a462146104c2578063f2db10fe146104ca578063f2fde38b146104d2578063f7e9dfff146104e5578063f9902bb1146104ed578063fd5e6dd11461050057610253565b8063c26ff61514610461578063c623674f14610474578063c8b5c24814610489578063cbe230c31461049c578063d7a5c422146104af57610253565b80639fabeb001161010a5780639fabeb001461042e578063a224ee9c14610436578063a7e8d8d41461043e578063b1659bad14610451578063b7bc347e1461045957610253565b806378025ec4146103f05780637fd788aa146104035780638da5cb5b1461040b57806396f76f11146104135780639b19251a1461041b57610253565b8063484fbf2b116101d45780635e5f2e26116101985780635e5f2e261461039c578063639b6fc3146103af578063715018a6146103c2578063740882ac146103ca578063747b8050146103dd57610253565b8063484fbf2b1461032d5780634e0c91f6146103405780634fb2647e1461036057806357ac94f0146103735780635c1c20de1461039457610253565b80632526743a1161021b5780632526743a146102c657806326db18ac146102db5780633385d334146102ee5780634190edde146102f657806346e0fbae1461031857610253565b8063021eef7f146102585780630bea440d14610281578063171e44ea1461029657806318e45427146102a95780631bf30929146102b1575b600080fd5b61026b6102663660046127a5565b610513565b6040516102789190612a13565b60405180910390f35b61029461028f3660046127d5565b61055c565b005b6102946102a4366004612682565b6106c0565b61026b610ab0565b6102b9610abe565b6040516102789190612a1e565b6102ce610ac4565b6040516102789190612f24565b6102946102e93660046127d5565b610ad3565b6102ce610b4e565b6103096103043660046127a5565b610b64565b60405161027893929190612f5d565b610320610b88565b6040516102789190612a27565b6102b961033b366004612682565b610b91565b61035361034e366004612682565b610ba3565b60405161027891906129c2565b61035361036e366004612682565b610bbe565b6103866103813660046126ba565b610bd9565b6040516102789291906129d6565b6102b9610db4565b6103536103aa3660046127a5565b610dba565b6102b96103bd366004612682565b610de1565b610294610df3565b6102946103d83660046126e5565b610e72565b6102946103eb366004612682565b610f4c565b6102b96103fe3660046127a5565b610fde565b61026b610ffc565b61035361100c565b61026b61101b565b61026b610429366004612682565b611127565b6102b961113c565b610353611142565b61026b61044c366004612682565b611151565b6102b9611166565b6102b961116c565b61029461046f3660046126e5565b611172565b61047c61124e565b6040516102789190612a61565b6102946104973660046127d5565b6112dc565b61026b6104aa366004612682565b61131a565b6102946104bd36600461282b565b611375565b61035361163b565b6102ce61164a565b6102946104e0366004612682565b611659565b61035361170f565b6102946104fb366004612682565b61171e565b61035361050e3660046127a5565b6117b1565b6012546000906001600160801b031682101561053157506000610557565b601254600160801b90046001600160801b031682111561055357506000610557565b5060015b919050565b81600081116105865760405162461bcd60e51b815260040161057d90612e37565b60405180910390fd5b600061059061101b565b905080156105b05760405162461bcd60e51b815260040161057d90612cb0565b6105ba84846117be565b60135460408051636830483560e01b815290516000926001600160a01b0316916368304835916004808301926020929190829003018186803b1580156105ff57600080fd5b505afa158015610613573d6000803e3d6000fd5b505050506040513d601f19601f82011682018060405250810190610637919061269e565b604051635948284760e11b81529091506001600160a01b0382169063b290508e906106669033906004016129c2565b602060405180830381600087803b15801561068057600080fd5b505af1158015610694573d6000803e3d6000fd5b505050506040513d601f19601f820116820180604052508101906106b89190612785565b505050505050565b6106c8611cdd565b6000546001600160a01b039081169116146106f55760405162461bcd60e51b815260040161057d90612d67565b60015460408051637b8041cf60e11b815290516000926001600160a01b03169163f700839e9160048083019260e0929190829003018186803b15801561073a57600080fd5b505afa15801561074e573d6000803e3d6000fd5b505050506040513d601f19601f82011682018060405250810190610772919061286f565b96505050505050506107838261131a565b156107a05760405162461bcd60e51b815260040161057d90612dd3565b60015460405163cbe230c360e01b81526001600160a01b039091169063cbe230c3906107d09085906004016129c2565b60206040518083038186803b1580156107e857600080fd5b505afa1580156107fc573d6000803e3d6000fd5b505050506040513d601f19601f820116820180604052508101906108209190612785565b61083c5760405162461bcd60e51b815260040161057d90612ba4565b600b805460018101825560008290527f0175b7a638427703f0dbe7bb9bbf987a2551717b34e79f33b5b1008d1fa01db90180546001600160a01b0319166001600160a01b038516179055548110156108a65760405162461bcd60e51b815260040161057d90612aa2565b6003546060906108be906001600160801b0316611ce1565b90506060816040516020016108d3919061290a565b60405160208183030381529060405290506060826040516020016108f7919061293d565b604051602081830303815290604052905060608360405160200161091b919061296d565b604051602081830303815290604052905060608460405160200161093f919061299f565b60408051601f1981840301815290829052600154633350214760e11b83529092506000916001600160a01b03909116906366a0428e906109859088908890600401612a74565b602060405180830381600087803b15801561099f57600080fd5b505af11580156109b3573d6000803e3d6000fd5b505050506040513d601f19601f820116820180604052508101906109d7919061269e565b600154604051633350214760e11b81529192506000916001600160a01b03909116906366a0428e90610a0f9087908790600401612a74565b602060405180830381600087803b158015610a2957600080fd5b505af1158015610a3d573d6000803e3d6000fd5b505050506040513d601f19601f82011682018060405250810190610a61919061269e565b6001600160a01b03998a1660009081526007602090815260408083208054948e166001600160a01b031995861617905560069091529020805493909a1692169190911790975550505050505050565b600d54610100900460ff1681565b60165481565b6012546001600160801b031681565b8160008111610af45760405162461bcd60e51b815260040161057d90612e37565b610afc61100c565b6001600160a01b0316336001600160a01b031614610b3f576000610b1e61101b565b905080610b3d5760405162461bcd60e51b815260040161057d90612d9c565b505b610b498383611dbc565b505050565b601254600160801b90046001600160801b031681565b60156020526000908152604090208054600182015460029092015490919060ff1683565b60105460ff1681565b60056020526000908152604090205481565b6006602052600090815260409020546001600160a01b031681565b6007602052600090815260409020546001600160a01b031681565b6000806000600b8481548110610beb57fe5b6000918252602090912001546001600160a01b03169050610c0a61100c565b6001600160a01b0316856001600160a01b03161415610c46576001600160a01b0381166000908152600460205260409020549092509050610dad565b6001600160a01b0380821660009081526006602090815260408083205481516318160ddd60e01b8152915194169384926318160ddd9260048082019391829003018186803b158015610c9757600080fd5b505afa158015610cab573d6000803e3d6000fd5b505050506040513d601f19601f82011682018060405250810190610ccf91906127bd565b905080610ce5575090925060009150610dad9050565b6040516370a0823160e01b81526000906001600160a01b038416906370a0823190610d14908b906004016129c2565b60206040518083038186803b158015610d2c57600080fd5b505afa158015610d40573d6000803e3d6000fd5b505050506040513d601f19601f82011682018060405250810190610d6491906127bd565b6001600160a01b0385166000908152600560205260409020549091508490610da4908490610d98908563ffffffff611f6216565b9063ffffffff611fa516565b95509550505050505b9250929050565b600c5481565b600b8181548110610dc757fe5b6000918252602090912001546001600160a01b0316905081565b60046020526000908152604090205481565b610dfb611cdd565b6000546001600160a01b03908116911614610e285760405162461bcd60e51b815260040161057d90612d67565b600080546040516001600160a01b03909116907f8be0079c531659141344cd1fd0a4f28419497f9722a3daafe3b4186f6b6457e0908390a3600080546001600160a01b0319169055565b610e7a611cdd565b6000546001600160a01b03908116911614610ea75760405162461bcd60e51b815260040161057d90612d67565b60005b8151811015610f4857600e6000838381518110610ec357fe5b6020908102919091018101516001600160a01b031682528101919091526040016000205460ff16610f40576001600e6000848481518110610f0057fe5b60200260200101516001600160a01b03166001600160a01b0316815260200190815260200160002060006101000a81548160ff0219169083151502179055505b600101610eaa565b5050565b610f54611cdd565b6000546001600160a01b03908116911614610f815760405162461bcd60e51b815260040161057d90612d67565b6001600160a01b0381166000908152600e602052604090205460ff1615610fba5760405162461bcd60e51b815260040161057d90612af5565b6001600160a01b03166000908152600e60205260409020805460ff19166001179055565b60178181548110610feb57fe5b600091825260209091200154905081565b601454600160a01b900460ff1690565b6000546001600160a01b031690565b60105460125460405160016259edcb60e01b03198152600092839261010082046001600160a01b03169263ffa612359261106f9260ff90911691600160801b9091046001600160801b031690600401612a3b565b604080518083038186803b15801561108657600080fd5b505afa15801561109a573d6000803e3d6000fd5b505050506040513d601f19601f820116820180604052508101906110be919061284c565b9150506014809054906101000a900460ff161515600115151480611121575080421015801561112157506000601254600160801b90046001600160801b0316600090815260156020526040902060029081015460ff169081111561111e57fe5b14155b91505090565b600e6020526000908152604090205460ff1681565b60085490565b6014546001600160a01b031681565b60096020526000908152604090205460ff1681565b60185481565b600b5490565b61117a611cdd565b6000546001600160a01b039081169116146111a75760405162461bcd60e51b815260040161057d90612d67565b60005b8151811015610f4857600e60008383815181106111c357fe5b6020908102919091018101516001600160a01b031682528101919091526040016000205460ff16151560011415611246576000600e600084848151811061120657fe5b60200260200101516001600160a01b03166001600160a01b0316815260200190815260200160002060006101000a81548160ff0219169083151502179055505b6001016111aa565b600f805460408051602060026001851615610100026000190190941693909304601f810184900484028201840190925281815292918301828280156112d45780601f106112a9576101008083540402835291602001916112d4565b820191906000526020600020905b8154815290600101906020018083116112b757829003601f168201915b505050505081565b81600081116112fd5760405162461bcd60e51b815260040161057d90612e37565b600061130761101b565b9050611314848483611fe7565b50505050565b6000805b600b5481101561136c57826001600160a01b0316600b828154811061133f57fe5b6000918252602090912001546001600160a01b03161415611364576001915050610557565b60010161131e565b50600092915050565b6014546001600160a01b0316331461139f5760405162461bcd60e51b815260040161057d90612bf1565b7fc95987c1992805ee34bdc915e017cceae36ba1c156b9911fa7e691e6435eb46e4283836040516113d293929190612f83565b60405180910390a16001808201601855600082815260156020526040808220928301859055428355601154905163a7b72ac560e01b81526001600160a01b039091169063a7b72ac5906114299030906004016129c2565b604080518083038186803b15801561144057600080fd5b505afa158015611454573d6000803e3d6000fd5b505050506040513d601f19601f820116820180604052508101906114789190612804565b50601154604051631993b9df60e01b81529192506001600160a01b031690631993b9df906114ac9087903090600401612f38565b60206040518083038186803b1580156114c457600080fd5b505afa1580156114d8573d6000803e3d6000fd5b505050506040513d601f19601f820116820180604052508101906114fc9190612785565b156115d0576002828101805460ff191660011790556127109060009061154a9061152a90610d9889876121e9565b610d988461153e8a8863ffffffff61220e16565b9063ffffffff611f6216565b601254909150600090611580906001906115749089906001600160801b031663ffffffff61220e16565b9063ffffffff6121e916565b6012549091506000906115ba906001600160801b03808216600160801b90920481169190910360010116610d98858563ffffffff611f6216565b90506115c7878286612250565b50505050611314565b6002828101805460ff191690911790556115e861236f565b6014805460ff60a01b1916600160a01b1790556040517fbd33f7a3bfa88a467c9df5ae7d2341cf061084c386b20a0d48130f5cbce38a4d9061162d9085908790612f4f565b60405180910390a150505050565b6013546001600160a01b031681565b6003546001600160801b031681565b611661611cdd565b6000546001600160a01b0390811691161461168e5760405162461bcd60e51b815260040161057d90612d67565b6001600160a01b0381166116b45760405162461bcd60e51b815260040161057d90612b27565b600080546040516001600160a01b03808516939216917f8be0079c531659141344cd1fd0a4f28419497f9722a3daafe3b4186f6b6457e091a3600080546001600160a01b0319166001600160a01b0392909216919091179055565b600a546001600160a01b031681565b611726611cdd565b6000546001600160a01b039081169116146117535760405162461bcd60e51b815260040161057d90612d67565b6001600160a01b0381166000908152600e602052604090205460ff1615156001146117905760405162461bcd60e51b815260040161057d90612e63565b6001600160a01b03166000908152600e60205260409020805460ff19169055565b60088181548110610dc757fe5b806117c88161131a565b15156001146117e95760405162461bcd60e51b815260040161057d90612d39565b600d5460ff6101009091041615156001141561183357336000908152600e602052604090205460ff1615156001146118335760405162461bcd60e51b815260040161057d90612c36565b61184e6001600160a01b03831633308663ffffffff61242d16565b61185661100c565b6001600160a01b0316336001600160a01b031614611a97576001600160a01b038216600090815260046020908152604080832054600590925290912054816118a4828763ffffffff6121e916565b11156118c25760405162461bcd60e51b815260040161057d90612e91565b6001600160a01b0380851660009081526006602090815260408083205481516318160ddd60e01b8152915194169384926318160ddd9260048082019391829003018186803b15801561191357600080fd5b505afa158015611927573d6000803e3d6000fd5b505050506040513d601f19601f8201168201806040525081019061194b91906127bd565b9050806119b7576040516340c10f1960e01b81526001600160a01b038316906340c10f19906119809033908b906004016129d6565b600060405180830381600087803b15801561199a57600080fd5b505af11580156119ae573d6000803e3d6000fd5b50505050611a4b565b6001600160a01b038616600090815260056020526040812054906119e582610d988b8663ffffffff611f6216565b6040516340c10f1960e01b81529091506001600160a01b038516906340c10f1990611a1690339085906004016129d6565b600060405180830381600087803b158015611a3057600080fd5b505af1158015611a44573d6000803e3d6000fd5b5050505050505b6001600160a01b038616600090815260056020526040902054611a74908863ffffffff6121e916565b6001600160a01b03871660009081526005602052604090205550611c6592505050565b6001600160a01b0380831660009081526007602090815260408083205481516318160ddd60e01b8152915194169384926318160ddd9260048082019391829003018186803b158015611ae857600080fd5b505afa158015611afc573d6000803e3d6000fd5b505050506040513d601f19601f82011682018060405250810190611b2091906127bd565b905080611b8c576040516340c10f1960e01b81526001600160a01b038316906340c10f1990611b5590339089906004016129d6565b600060405180830381600087803b158015611b6f57600080fd5b505af1158015611b83573d6000803e3d6000fd5b50505050611c20565b6001600160a01b03841660009081526004602052604081205490611bba82610d98898663ffffffff611f6216565b6040516340c10f1960e01b81529091506001600160a01b038516906340c10f1990611beb90339085906004016129d6565b600060405180830381600087803b158015611c0557600080fd5b505af1158015611c19573d6000803e3d6000fd5b5050505050505b6001600160a01b038416600090815260046020526040902054611c49908663ffffffff6121e916565b6001600160a01b03851660009081526004602052604090205550505b3360009081526009602052604090205460ff16610b4957336000818152600960205260408120805460ff191660019081179091556008805491820181559091527ff3f7a9fe364faab93b216da50a3214154f22a0a2b415b23a84c8169e8b636ee30180546001600160a01b0319169091179055505050565b3390565b60608180611d085750506040805180820190915260018152600360fc1b6020820152610557565b8060005b8115611d2057600101600a82049150611d0c565b60608167ffffffffffffffff81118015611d3957600080fd5b506040519080825280601f01601f191660200182016040528015611d64576020820181803683370190505b50905060001982015b8415611db257600a850660300160f81b82828060019003935081518110611d9057fe5b60200101906001600160f81b031916908160001a905350600a85049450611d6d565b5095945050505050565b80611dc68161131a565b1515600114611de75760405162461bcd60e51b815260040161057d90612d39565b6001600160a01b0380831660009081526006602090815260408083205481516318160ddd60e01b8152915194169384926318160ddd9260048082019391829003018186803b158015611e3857600080fd5b505afa158015611e4c573d6000803e3d6000fd5b505050506040513d601f19601f82011682018060405250810190611e7091906127bd565b6001600160a01b038516600090815260056020526040812054919250611ea082610d98898663ffffffff611f6216565b60405163079cc67960e41b81529091506001600160a01b038516906379cc679090611ed190339085906004016129d6565b600060405180830381600087803b158015611eeb57600080fd5b505af1158015611eff573d6000803e3d6000fd5b5050506001600160a01b038716600090815260056020526040902054611f2c91508863ffffffff61220e16565b6001600160a01b038716600081815260056020526040902091909155611f5990338963ffffffff61248516565b50505050505050565b600082611f7157506000611f9f565b82820282848281611f7e57fe5b0414611f9c5760405162461bcd60e51b815260040161057d90612cf8565b90505b92915050565b6000611f9c83836040518060400160405280601a81526020017f536166654d6174683a206469766973696f6e206279207a65726f0000000000008152506124a4565b81611ff18161131a565b15156001146120125760405162461bcd60e51b815260040161057d90612d39565b6001600160a01b0383166000908152600460209081526040808320546005909252909120548361206b578061204d838863ffffffff61220e16565b101561206b5760405162461bcd60e51b815260040161057d90612c67565b6001600160a01b0380861660009081526007602090815260408083205481516318160ddd60e01b8152915194169384926318160ddd9260048082019391829003018186803b1580156120bc57600080fd5b505afa1580156120d0573d6000803e3d6000fd5b505050506040513d601f19601f820116820180604052508101906120f491906127bd565b6001600160a01b03881660009081526004602052604081205491925061212482610d988c8663ffffffff611f6216565b60405163079cc67960e41b81529091506001600160a01b038516906379cc67909061215590339085906004016129d6565b600060405180830381600087803b15801561216f57600080fd5b505af1158015612183573d6000803e3d6000fd5b5050506001600160a01b038a166000908152600460205260409020546121b091508b63ffffffff61220e16565b6001600160a01b038a166000818152600460205260409020919091556121dd90338c63ffffffff61248516565b50505050505050505050565b600082820183811015611f9c5760405162461bcd60e51b815260040161057d90612b6d565b6000611f9c83836040518060400160405280601e81526020017f536166654d6174683a207375627472616374696f6e206f766572666c6f7700008152506124db565b60005b600b54811015611314576000600b828154811061226c57fe5b60009182526020808320909101546001600160a01b031680835260059091526040822054909250906122a885610d98848963ffffffff611f6216565b6001600160a01b0384166000908152600560205260409020549091506122d4908263ffffffff61220e16565b6001600160a01b038416600090815260056020908152604080832093909355600490522054612309908263ffffffff6121e916565b6001600160a01b0384166000818152600460205260409081902092909255905188907f3173c1c4b679e2da86dbb0382bde749a6e16cd31912c5410e17985cd7d2b90529061235c908a908a908790612f83565b60405180910390a3505050600101612253565b60005b600b5481101561242a576000600b828154811061238b57fe5b60009182526020808320909101546001600160a01b0316808352600582526040808420546004909352909220549192509081906123ce908263ffffffff61220e16565b6001600160a01b038416600090815260046020908152604080832093909355600590522054612403908263ffffffff6121e916565b6001600160a01b039093166000908152600560205260409020929092555050600101612372565b50565b611314846323b872dd60e01b85858560405160240161244e939291906129ef565b60408051601f198184030181529190526020810180516001600160e01b03166001600160e01b031990931692909217909152612507565b610b498363a9059cbb60e01b848460405160240161244e9291906129d6565b600081836124c55760405162461bcd60e51b815260040161057d9190612a61565b5060008385816124d157fe5b0495945050505050565b600081848411156124ff5760405162461bcd60e51b815260040161057d9190612a61565b505050900390565b606061255c826040518060400160405280602081526020017f5361666545524332303a206c6f772d6c6576656c2063616c6c206661696c6564815250856001600160a01b03166125969092919063ffffffff16565b805190915015610b49578080602001905181019061257a9190612785565b610b495760405162461bcd60e51b815260040161057d90612eda565b60606125a584846000856125ad565b949350505050565b60606125b885612671565b6125d45760405162461bcd60e51b815260040161057d90612e00565b60006060866001600160a01b031685876040516125f191906128ee565b60006040518083038185875af1925050503d806000811461262e576040519150601f19603f3d011682016040523d82523d6000602084013e612633565b606091505b509150915081156126475791506125a59050565b8051156126575780518082602001fd5b8360405162461bcd60e51b815260040161057d9190612a61565b3b151590565b8035611f9f8161300c565b600060208284031215612693578081fd5b8135611f9c8161300c565b6000602082840312156126af578081fd5b8151611f9c8161300c565b600080604083850312156126cc578081fd5b82356126d78161300c565b946020939093013593505050565b600060208083850312156126f7578182fd5b823567ffffffffffffffff81111561270d578283fd5b80840185601f82011261271e578384fd5b8035915061273361272e83612fc0565b612f99565b828152838101908285018585028401860189101561274f578687fd5b8693505b84841015612779576127658982612677565b835260019390930192918501918501612753565b50979650505050505050565b600060208284031215612796578081fd5b81518015158114611f9c578182fd5b6000602082840312156127b6578081fd5b5035919050565b6000602082840312156127ce578081fd5b5051919050565b600080604083850312156127e7578182fd5b8235915060208301356127f98161300c565b809150509250929050565b60008060408385031215612816578182fd5b825191506020830151600681106127f9578182fd5b6000806040838503121561283d578182fd5b50508035926020909101359150565b6000806040838503121561285e578182fd5b505080516020909101519092909150565b600080600080600080600060e0888a031215612889578283fd5b5050855160208701516040880151606089015160808a015160a08b015160c0909b0151949c939b50919990985090965094509092509050565b600081518084526128da816020860160208601612fe0565b601f01601f19169290920160200192915050565b60008251612900818460208701612fe0565b9190910192915050565b60006a44534c412d53484f52542d60a81b8252825161293081600b850160208701612fe0565b91909101600b0192915050565b60006744534c412d53502d60c01b82528251612960816008850160208701612fe0565b9190910160080192915050565b60006944534c412d4c4f4e472d60b01b8252825161299281600a850160208701612fe0565b91909101600a0192915050565b60006744534c412d4c502d60c01b82528251612960816008850160208701612fe0565b6001600160a01b0391909116815260200190565b6001600160a01b03929092168252602082015260400190565b6001600160a01b039384168152919092166020820152604081019190915260600190565b901515815260200190565b90815260200190565b6020810160068310612a3557fe5b91905290565b6040810160068410612a4957fe5b9281526001600160801b039190911660209091015290565b600060208252611f9c60208301846128c2565b600060408252612a8760408301856128c2565b8281036020840152612a9981856128c2565b95945050505050565b60208082526033908201527f416c6c6f77656420746f6b656e73206c656e67746820677265617465722074686040820152720c2dc40dac2f040e8ded6cadc40d8cadccee8d606b1b606082015260800190565b602080825260189082015277155cd95c88185b1c9958591e481dda1a5d195b1a5cdd195960421b604082015260600190565b60208082526026908201527f4f776e61626c653a206e6577206f776e657220697320746865207a65726f206160408201526564647265737360d01b606082015260800190565b6020808252601b908201527f536166654d6174683a206164646974696f6e206f766572666c6f770000000000604082015260600190565b6020808252602d908201527f546f6b656e206e6f7420616c6c6f7765642062792074686520534c415265676960408201526c1cdd1c9e4818dbdb9d1c9858dd609a1b606082015260800190565b60208082526025908201527f4f6e6c79204d657373656e6765722063616e2063616c6c20746869732066756e60408201526431ba34b7b760d91b606082015260800190565b602080825260179082015276155cd95c881a5cc81b9bdd081dda1a5d195b1a5cdd1959604a1b604082015260600190565b60208082526029908201527f53686f756c64206e6f74207769746864726177206d6f7265207468616e207573604082015268657273207374616b6560b81b606082015260800190565b60208082526028908201527f43616e206f6e6c79207374616b65206f6e206e6f742066696e697368656420636040820152676f6e74726163747360c01b606082015260800190565b60208082526021908201527f536166654d6174683a206d756c7469706c69636174696f6e206f766572666c6f6040820152607760f81b606082015260800190565b6020808252601490820152731d1bdad95b881a5cc81b9bdd08185b1b1bddd95960621b604082015260600190565b6020808252818101527f4f776e61626c653a2063616c6c6572206973206e6f7420746865206f776e6572604082015260600190565b6020808252601a908201527f4f6e6c7920666f722066696e697368656420636f6e7472616374000000000000604082015260600190565b602080825260139082015272151bdad95b88185b1c9958591e481859191959606a1b604082015260600190565b6020808252601d908201527f416464726573733a2063616c6c20746f206e6f6e2d636f6e7472616374000000604082015260600190565b6020808252601290820152710616d6f756e742063616e6e6f7420626520360741b604082015260600190565b602080825260149082015273155cd95c881b9bdd081dda1a5d195b1a5cdd195960621b604082015260600190565b60208082526029908201527f43616e6e6f74207374616b65206d6f7265207468616e20534c412070726f7669604082015268646572207374616b6560b81b606082015260800190565b6020808252602a908201527f5361666545524332303a204552433230206f7065726174696f6e20646964206e6040820152691bdd081cdd58d8d9595960b21b606082015260800190565b6001600160801b0391909116815260200190565b9182526001600160a01b0316602082015260400190565b918252602082015260400190565b838152602081018390526060810160038310612f7557fe5b826040830152949350505050565b9283526020830191909152604082015260600190565b60405181810167ffffffffffffffff81118282101715612fb857600080fd5b604052919050565b600067ffffffffffffffff821115612fd6578081fd5b5060209081020190565b60005b83811015612ffb578181015183820152602001612fe3565b838111156113145750506000910152565b6001600160a01b038116811461242a57600080fdfea26469706673582212204ea46da38e84499df2109c060c1f71fc12afd7b99e46d52bf56723625ca59c8164736f6c634300060600338be0079c531659141344cd1fd0a4f28419497f9722a3daafe3b4186f6b6457e0a26469706673582212208df711b34f797002e6769a3d55225d0615fdccec8c68b429b9fd6f99f69dd9c964736f6c63430006060033",
  "immutableReferences": {},
  "source": "// SPDX-License-Identifier: MIT\npragma solidity 0.6.6;\npragma experimental ABIEncoderV2;\n\nimport \"@openzeppelin/contracts/math/SafeMath.sol\";\nimport \"@openzeppelin/contracts/access/Ownable.sol\";\nimport \"./SLA.sol\";\nimport \"./SLORegistry.sol\";\nimport \"./PeriodRegistry.sol\";\nimport \"./MessengerRegistry.sol\";\nimport \"./StakeRegistry.sol\";\nimport \"./messenger/IMessenger.sol\";\n\n/**\n * @title SLARegistry\n * @dev SLARegistry is a contract for handling creation of service level\n * agreements and keeping track of the created agreements\n */\ncontract SLARegistry is Ownable {\n    using SafeMath for uint256;\n\n    /// @dev SLO registry\n    SLORegistry public sloRegistry;\n    /// @dev Periods registry\n    PeriodRegistry public periodRegistry;\n    /// @dev Messengers registry\n    MessengerRegistry public messengerRegistry;\n    /// @dev Stake registry\n    StakeRegistry public stakeRegistry;\n    /// @dev stores the addresses of created SLAs\n    SLA[] public SLAs;\n    /// @dev stores the indexes of service level agreements owned by an user\n    mapping(address => uint256[]) private userToSLAIndexes;\n    /// @dev to check if registered SLA\n    mapping(address => bool) private registeredSLAs;\n    // value to lock past periods on SLA deployment\n    bool public checkPastPeriod;\n\n    /**\n     * @dev event for service level agreement creation logging\n     * @param sla 1. The address of the created service level agreement contract\n     * @param owner 2. The address of the owner of the service level agreement\n     */\n    event SLACreated(SLA indexed sla, address indexed owner);\n\n    /**\n     * @dev event for check past period changed\n     * @param checkPastPeriod 1. checkPastPeriod new value\n     * @param owner 2. The address of the function caller\n     */\n    event CheckPastPeriod(bool checkPastPeriod, address indexed owner);\n\n    /**\n     * @dev constructor\n     * @param _sloRegistry 1. SLO Registry\n     * @param _periodRegistry 2. Periods registry\n     * @param _messengerRegistry 3. Messenger registry\n     * @param _stakeRegistry 4. Stake registry\n     * @param _checkPastPeriod 5. -\n     */\n    constructor(\n        SLORegistry _sloRegistry,\n        PeriodRegistry _periodRegistry,\n        MessengerRegistry _messengerRegistry,\n        StakeRegistry _stakeRegistry,\n        bool _checkPastPeriod\n    ) public {\n        sloRegistry = _sloRegistry;\n        sloRegistry.setSLARegistry();\n        periodRegistry = _periodRegistry;\n        stakeRegistry = _stakeRegistry;\n        stakeRegistry.setSLARegistry();\n        messengerRegistry = _messengerRegistry;\n        messengerRegistry.setSLARegistry();\n        checkPastPeriod = _checkPastPeriod;\n    }\n\n    /**\n     * @dev public function for creating canonical service level agreements\n     * @param _sloValue 1. -\n     * @param _sloType 2. -\n     * @param _ipfsHash 3. -\n     * @param _periodType 4. -\n     * @param _initialPeriodId 5. -\n     * @param _finalPeriodId 6. -\n     * @param _messengerAddress 7. -\n     * @param _whitelisted 8. -\n     * @param _extraData 9. -\n     */\n    function createSLA(\n        uint256 _sloValue,\n        SLORegistry.SLOType _sloType,\n        bool _whitelisted,\n        address _messengerAddress,\n        PeriodRegistry.PeriodType _periodType,\n        uint128 _initialPeriodId,\n        uint128 _finalPeriodId,\n        string memory _ipfsHash,\n        bytes32[] memory _extraData\n    ) public {\n        bool validPeriod =\n            periodRegistry.isValidPeriod(_periodType, _initialPeriodId);\n        require(validPeriod, \"First period id not valid\");\n        validPeriod = periodRegistry.isValidPeriod(_periodType, _finalPeriodId);\n        require(validPeriod, \"Final period id not valid\");\n        bool initializedPeriod =\n            periodRegistry.isInitializedPeriod(_periodType);\n        require(initializedPeriod, \"Period type not initialized yet\");\n        require(\n            _finalPeriodId >= _initialPeriodId,\n            \"finalPeriodId should be greater than or equal to initialPeriodId\"\n        );\n\n        if (checkPastPeriod) {\n            bool periodHasStarted =\n                periodRegistry.periodHasStarted(_periodType, _initialPeriodId);\n            require(!periodHasStarted, \"Period has started\");\n        }\n        bool registeredMessenger =\n            messengerRegistry.registeredMessengers(_messengerAddress);\n        require(\n            registeredMessenger == true,\n            \"messenger address is not registered\"\n        );\n\n        SLA sla =\n            new SLA(\n                msg.sender,\n                address(sloRegistry),\n                _whitelisted,\n                _periodType,\n                _messengerAddress,\n                _initialPeriodId,\n                _finalPeriodId,\n                uint128(SLAs.length),\n                _ipfsHash,\n                _extraData\n            );\n\n        sloRegistry.registerSLO(_sloValue, _sloType, address(sla));\n        stakeRegistry.lockDSLAValue(\n            msg.sender,\n            address(sla),\n            _finalPeriodId - _initialPeriodId + 1\n        );\n        SLAs.push(sla);\n        registeredSLAs[address(sla)] = true;\n        uint256 index = SLAs.length.sub(1);\n        userToSLAIndexes[msg.sender].push(index);\n        emit SLACreated(sla, msg.sender);\n    }\n\n    /**\n     * @dev Gets SLI information for the specified SLA and SLO\n     * @param _periodId 1. id of the period\n     * @param _sla 2. SLA Address\n     * @param _ownerApproval 3. if approval by owner or msg.sender\n     */\n    function requestSLI(\n        uint256 _periodId,\n        SLA _sla,\n        bool _ownerApproval\n    ) public {\n        require(isRegisteredSLA(address(_sla)), \"SLA contract should be valid\");\n        require(\n            _periodId == _sla.nextVerifiablePeriod(),\n            \"Should only verify next period\"\n        );\n        (, , SLA.Status status) = _sla.periodSLIs(_periodId);\n        require(\n            status == SLA.Status.NotVerified,\n            \"SLA contract was already verified for the period\"\n        );\n        bool breachedContract = _sla.breachedContract();\n        require(\n            !breachedContract,\n            \"Should only be called for not breached contracts\"\n        );\n        bool slaAllowedPeriodId = _sla.isAllowedPeriod(_periodId);\n        require(\n            slaAllowedPeriodId,\n            \"Period ID not registered in the SLA contract\"\n        );\n        PeriodRegistry.PeriodType slaPeriodType = _sla.periodType();\n        bool periodFinished =\n            periodRegistry.periodIsFinished(slaPeriodType, _periodId);\n        require(periodFinished, \"SLA contract period has not finished yet\");\n        address slaMessenger = _sla.messengerAddress();\n        IMessenger(slaMessenger).requestSLI(\n            _periodId,\n            address(_sla),\n            _ownerApproval,\n            msg.sender\n        );\n        stakeRegistry.distributeVerificationRewards(\n            address(_sla),\n            msg.sender,\n            _periodId\n        );\n    }\n\n    function returnLockedValue(SLA _sla) public {\n        require(isRegisteredSLA(address(_sla)), \"SLA contract should be valid\");\n        require(\n            msg.sender == _sla.owner(),\n            \"Only SLA owner can claim locked value\"\n        );\n        uint256 lastValidPeriodId = _sla.finalPeriodId();\n        PeriodRegistry.PeriodType periodType = _sla.periodType();\n        (, uint256 endOfLastValidPeriod) =\n            periodRegistry.getPeriodStartAndEnd(periodType, lastValidPeriodId);\n\n        (, , SLA.Status lastPeriodStatus) = _sla.periodSLIs(lastValidPeriodId);\n        require(\n            _sla.breachedContract() ||\n                (block.timestamp >= endOfLastValidPeriod &&\n                    lastPeriodStatus != SLA.Status.NotVerified),\n            \"Can only withdraw locked DSLA after the final period is verified or if the contract is breached\"\n        );\n        stakeRegistry.returnLockedValue(address(_sla));\n    }\n\n    /**\n     * @dev function to declare this SLARegistry contract as SLARegistry of _messengerAddress\n     * @param _messengerAddress 1. address of the messenger\n     */\n\n    function registerMessenger(\n        address _messengerAddress,\n        string memory _specificationUrl\n    ) public {\n        IMessenger(_messengerAddress).setSLARegistry();\n        messengerRegistry.registerMessenger(\n            msg.sender,\n            _messengerAddress,\n            _specificationUrl\n        );\n    }\n\n    /**\n     * @dev public view function that returns the service level agreements that\n     * the given user is the owner of\n     * @param _user Address of the user for which to return the service level\n     * agreements\n     * @return array of SLAs\n     */\n    function userSLAs(address _user) public view returns (SLA[] memory) {\n        uint256 count = userSLACount(_user);\n        SLA[] memory SLAList = new SLA[](count);\n        uint256[] memory userSLAIndexes = userToSLAIndexes[_user];\n\n        for (uint256 i = 0; i < count; i++) {\n            SLAList[i] = (SLAs[userSLAIndexes[i]]);\n        }\n\n        return (SLAList);\n    }\n\n    /**\n     * @dev public view function that returns the amount of service level\n     * agreements the given user is the owner of\n     * @param _user 1. address of the user for which to return the amount of\n     * service level agreements\n     * @return uint256 corresponding to the amount of user's SLAs\n     */\n    function userSLACount(address _user) public view returns (uint256) {\n        return userToSLAIndexes[_user].length;\n    }\n\n    /**\n     * @dev public view function that returns all the service level agreements\n     * @return SLA[] array of SLAs\n     */\n    function allSLAs() public view returns (SLA[] memory) {\n        return (SLAs);\n    }\n\n    /**\n     * @dev public view function that returns the total amount of service\n     * level agreements\n     * @return uint256, the length of SLA array\n     */\n    function SLACount() public view returns (uint256) {\n        return SLAs.length;\n    }\n\n    /**\n     * @dev public view function that returns true if _slaAddress was deployed using this SLARegistry\n     * @param _slaAddress address of the SLA to be checked\n     */\n    function isRegisteredSLA(address _slaAddress) public view returns (bool) {\n        return registeredSLAs[_slaAddress];\n    }\n\n    /**\n     * @dev change the checkPastPeriod value\n     * @param _checkPastPeriod new value\n     */\n    function changeCheckPastPeriod(bool _checkPastPeriod) public onlyOwner {\n        checkPastPeriod = _checkPastPeriod;\n        emit CheckPastPeriod(checkPastPeriod, msg.sender);\n    }\n}\n",
  "sourcePath": "/Users/matiasbn/Desktop/stacktical/stacktical-dsla-contracts/contracts/SLARegistry.sol",
  "compiler": {
    "name": "solc",
    "version": "0.6.6+commit.6c089d02.Emscripten.clang"
  },
  "schemaVersion": "3.3.3",
  "updatedAt": "2021-04-07T23:29:18.755Z",
  "networkType": "ethereum",
  "devdoc": {
    "details": "SLARegistry is a contract for handling creation of service level agreements and keeping track of the created agreements",
    "methods": {
      "SLACount()": {
        "details": "public view function that returns the total amount of service level agreements",
        "returns": {
          "_0": "uint256, the length of SLA array"
        }
      },
      "allSLAs()": {
        "details": "public view function that returns all the service level agreements",
        "returns": {
          "_0": "SLA[] array of SLAs"
        }
      },
      "changeCheckPastPeriod(bool)": {
        "details": "change the checkPastPeriod value",
        "params": {
          "_checkPastPeriod": "new value"
        }
      },
      "constructor": {
        "details": "constructor",
        "params": {
          "_checkPastPeriod": "5. -",
          "_messengerRegistry": "3. Messenger registry",
          "_periodRegistry": "2. Periods registry",
          "_sloRegistry": "1. SLO Registry",
          "_stakeRegistry": "4. Stake registry"
        }
      },
      "createSLA(uint256,uint8,bool,address,uint8,uint128,uint128,string,bytes32[])": {
        "details": "public function for creating canonical service level agreements",
        "params": {
          "_extraData": "9. -",
          "_finalPeriodId": "6. -",
          "_initialPeriodId": "5. -",
          "_ipfsHash": "3. -",
          "_messengerAddress": "7. -",
          "_periodType": "4. -",
          "_sloType": "2. -",
          "_sloValue": "1. -",
          "_whitelisted": "8. -"
        }
      },
      "isRegisteredSLA(address)": {
        "details": "public view function that returns true if _slaAddress was deployed using this SLARegistry",
        "params": {
          "_slaAddress": "address of the SLA to be checked"
        }
      },
      "owner()": {
        "details": "Returns the address of the current owner."
      },
      "registerMessenger(address,string)": {
        "details": "function to declare this SLARegistry contract as SLARegistry of _messengerAddress",
        "params": {
          "_messengerAddress": "1. address of the messenger"
        }
      },
      "renounceOwnership()": {
        "details": "Leaves the contract without owner. It will not be possible to call `onlyOwner` functions anymore. Can only be called by the current owner.     * NOTE: Renouncing ownership will leave the contract without an owner, thereby removing any functionality that is only available to the owner."
      },
      "requestSLI(uint256,address,bool)": {
        "details": "Gets SLI information for the specified SLA and SLO",
        "params": {
          "_ownerApproval": "3. if approval by owner or msg.sender",
          "_periodId": "1. id of the period",
          "_sla": "2. SLA Address"
        }
      },
      "transferOwnership(address)": {
        "details": "Transfers ownership of the contract to a new account (`newOwner`). Can only be called by the current owner."
      },
      "userSLACount(address)": {
        "details": "public view function that returns the amount of service level agreements the given user is the owner of",
        "params": {
          "_user": "1. address of the user for which to return the amount of service level agreements"
        },
        "returns": {
          "_0": "uint256 corresponding to the amount of user's SLAs"
        }
      },
      "userSLAs(address)": {
        "details": "public view function that returns the service level agreements that the given user is the owner of",
        "params": {
          "_user": "Address of the user for which to return the service level agreements"
        },
        "returns": {
          "_0": "array of SLAs"
        }
      }
    },
    "title": "SLARegistry"
  },
  "userdoc": {
    "methods": {}
  }
}