{
  "contractName": "SLARegistry",
  "abi": [
    {
      "inputs": [
        {
          "internalType": "contract SLORegistry",
          "name": "_sloRegistry",
          "type": "address"
        },
        {
          "internalType": "contract PeriodRegistry",
          "name": "_periodRegistry",
          "type": "address"
        },
        {
          "internalType": "contract MessengerRegistry",
          "name": "_messengerRegistry",
          "type": "address"
        },
        {
          "internalType": "contract StakeRegistry",
          "name": "_stakeRegistry",
          "type": "address"
        }
      ],
      "stateMutability": "nonpayable",
      "type": "constructor"
    },
    {
      "anonymous": false,
      "inputs": [
        {
          "indexed": true,
          "internalType": "address",
          "name": "previousOwner",
          "type": "address"
        },
        {
          "indexed": true,
          "internalType": "address",
          "name": "newOwner",
          "type": "address"
        }
      ],
      "name": "OwnershipTransferred",
      "type": "event"
    },
    {
      "anonymous": false,
      "inputs": [
        {
          "indexed": true,
          "internalType": "contract SLA",
          "name": "sla",
          "type": "address"
        },
        {
          "indexed": true,
          "internalType": "address",
          "name": "owner",
          "type": "address"
        }
      ],
      "name": "SLACreated",
      "type": "event"
    },
    {
      "inputs": [
        {
          "internalType": "uint256",
          "name": "",
          "type": "uint256"
        }
      ],
      "name": "SLAs",
      "outputs": [
        {
          "internalType": "contract SLA",
          "name": "",
          "type": "address"
        }
      ],
      "stateMutability": "view",
      "type": "function"
    },
    {
      "inputs": [],
      "name": "messengerRegistry",
      "outputs": [
        {
          "internalType": "contract MessengerRegistry",
          "name": "",
          "type": "address"
        }
      ],
      "stateMutability": "view",
      "type": "function"
    },
    {
      "inputs": [],
      "name": "owner",
      "outputs": [
        {
          "internalType": "address",
          "name": "",
          "type": "address"
        }
      ],
      "stateMutability": "view",
      "type": "function"
    },
    {
      "inputs": [],
      "name": "periodRegistry",
      "outputs": [
        {
          "internalType": "contract PeriodRegistry",
          "name": "",
          "type": "address"
        }
      ],
      "stateMutability": "view",
      "type": "function"
    },
    {
      "inputs": [
        {
          "internalType": "address",
          "name": "",
          "type": "address"
        }
      ],
      "name": "registeredSLAs",
      "outputs": [
        {
          "internalType": "bool",
          "name": "",
          "type": "bool"
        }
      ],
      "stateMutability": "view",
      "type": "function"
    },
    {
      "inputs": [],
      "name": "renounceOwnership",
      "outputs": [],
      "stateMutability": "nonpayable",
      "type": "function"
    },
    {
      "inputs": [],
      "name": "sloRegistry",
      "outputs": [
        {
          "internalType": "contract SLORegistry",
          "name": "",
          "type": "address"
        }
      ],
      "stateMutability": "view",
      "type": "function"
    },
    {
      "inputs": [],
      "name": "stakeRegistry",
      "outputs": [
        {
          "internalType": "contract StakeRegistry",
          "name": "",
          "type": "address"
        }
      ],
      "stateMutability": "view",
      "type": "function"
    },
    {
      "inputs": [
        {
          "internalType": "address",
          "name": "newOwner",
          "type": "address"
        }
      ],
      "name": "transferOwnership",
      "outputs": [],
      "stateMutability": "nonpayable",
      "type": "function"
    },
    {
      "inputs": [
        {
          "internalType": "address",
          "name": "",
          "type": "address"
        },
        {
          "internalType": "uint256",
          "name": "",
          "type": "uint256"
        }
      ],
      "name": "userStakedSlas",
      "outputs": [
        {
          "internalType": "contract SLA",
          "name": "",
          "type": "address"
        }
      ],
      "stateMutability": "view",
      "type": "function"
    },
    {
      "inputs": [
        {
          "internalType": "contract SLO",
          "name": "_SLO",
          "type": "address"
        },
        {
          "internalType": "string",
          "name": "_ipfsHash",
          "type": "string"
        },
        {
          "internalType": "enum PeriodRegistry.PeriodType",
          "name": "_periodType",
          "type": "uint8"
        },
        {
          "internalType": "uint256[]",
          "name": "_periodIds",
          "type": "uint256[]"
        },
        {
          "internalType": "address",
          "name": "_messengerAddress",
          "type": "address"
        },
        {
          "internalType": "bool",
          "name": "_whitelisted",
          "type": "bool"
        }
      ],
      "name": "createSLA",
      "outputs": [],
      "stateMutability": "nonpayable",
      "type": "function"
    },
    {
      "inputs": [
        {
          "internalType": "uint256",
          "name": "_periodId",
          "type": "uint256"
        },
        {
          "internalType": "contract SLA",
          "name": "_sla",
          "type": "address"
        }
      ],
      "name": "requestSLI",
      "outputs": [],
      "stateMutability": "nonpayable",
      "type": "function"
    },
    {
      "inputs": [
        {
          "internalType": "address",
          "name": "_messengerAddress",
          "type": "address"
        }
      ],
      "name": "setMessengerSLARegistryAddress",
      "outputs": [],
      "stateMutability": "nonpayable",
      "type": "function"
    },
    {
      "inputs": [
        {
          "internalType": "address",
          "name": "_user",
          "type": "address"
        }
      ],
      "name": "userSLAs",
      "outputs": [
        {
          "internalType": "contract SLA[]",
          "name": "",
          "type": "address[]"
        }
      ],
      "stateMutability": "view",
      "type": "function"
    },
    {
      "inputs": [
        {
          "internalType": "address",
          "name": "_user",
          "type": "address"
        }
      ],
      "name": "userSLACount",
      "outputs": [
        {
          "internalType": "uint256",
          "name": "",
          "type": "uint256"
        }
      ],
      "stateMutability": "view",
      "type": "function"
    },
    {
      "inputs": [],
      "name": "allSLAs",
      "outputs": [
        {
          "internalType": "contract SLA[]",
          "name": "",
          "type": "address[]"
        }
      ],
      "stateMutability": "view",
      "type": "function"
    },
    {
      "inputs": [],
      "name": "SLACount",
      "outputs": [
        {
          "internalType": "uint256",
          "name": "",
          "type": "uint256"
        }
      ],
      "stateMutability": "view",
      "type": "function"
    },
    {
      "inputs": [
        {
          "internalType": "address",
          "name": "_user",
          "type": "address"
        },
        {
          "internalType": "address",
          "name": "_sla",
          "type": "address"
        }
      ],
      "name": "slaWasStakedByUser",
      "outputs": [
        {
          "internalType": "bool",
          "name": "",
          "type": "bool"
        }
      ],
      "stateMutability": "view",
      "type": "function"
    },
    {
      "inputs": [
        {
          "internalType": "address",
          "name": "_owner",
          "type": "address"
        }
      ],
      "name": "registerStakedSla",
      "outputs": [
        {
          "internalType": "bool",
          "name": "",
          "type": "bool"
        }
      ],
      "stateMutability": "nonpayable",
      "type": "function"
    }
  ],
  "bytecode": "0x60806040523480156200001157600080fd5b5060405162004e0c38038062004e0c833981016040819052620000349162000132565b6000620000406200012e565b600080546001600160a01b0319166001600160a01b0383169081178255604051929350917f8be0079c531659141344cd1fd0a4f28419497f9722a3daafe3b4186f6b6457e0908290a350600180546001600160a01b03199081166001600160a01b03878116919091179092556002805482168684161790556004805482168484161781556003805490921685841617918290556040805163f388158960e01b81529051929093169263f3881589928183019260009282900301818387803b1580156200010b57600080fd5b505af115801562000120573d6000803e3d6000fd5b5050505050505050620001b2565b3390565b6000806000806080858703121562000148578384fd5b8451620001558162000199565b6020860151909450620001688162000199565b60408601519093506200017b8162000199565b60608601519092506200018e8162000199565b939692955090935050565b6001600160a01b0381168114620001af57600080fd5b50565b614c4a80620001c26000396000f3fe60806040523480156200001157600080fd5b5060043610620001295760003560e01c8063715018a611620000bd578063a3f5cadf116200007b578063a3f5cadf146200024f578063b290508e1462000266578063d1994408146200027d578063e9b1e98c1462000294578063f2fde38b14620002ab5762000129565b8063715018a6146200020e578063816ff98614620002185780638da5cb5b146200023157806396bddc10146200023b5780639fc4caa514620002455762000129565b8062bc9add146200012e5780630df0bfc6146200014757806350c5abfe1462000176578063516c2857146200019c57806351e99ec614620001c25780635a7d1e5d14620001d95780635c4df33214620001e35780636435dc9c14620001ed578063683048351462000204575b600080fd5b620001456200013f366004620012f5565b620002c2565b005b6200015e620001583660046200126b565b62000773565b6040516200016d91906200167f565b60405180910390f35b6200018d6200018736600462001430565b620007fe565b6040516200016d91906200154d565b620001b3620001ad3660046200122d565b62000826565b6040516200016d919062001630565b6200015e620001d33660046200122d565b6200096e565b6200018d62000983565b6200018d62000992565b62000145620001fe3660046200122d565b620009a1565b6200018d62000a61565b6200014562000a70565b6200022262000af4565b6040516200016d919062001a0a565b6200018d62000afa565b620001b362000b09565b6200018d62000b6d565b6200018d62000260366004620012a8565b62000b7c565b6200015e620002773660046200122d565b62000bb2565b620001456200028e36600462001449565b62000c3b565b62000222620002a53660046200122d565b62001055565b62000145620002bc3660046200122d565b62001070565b600254604051635c98d15760e01b81526000916001600160a01b031690635c98d15790620002f59089906004016200168a565b60606040518083038186803b1580156200030e57600080fd5b505afa15801562000323573d6000803e3d6000fd5b505050506040513d601f19601f8201168201806040525081019062000349919062001470565b925050508015156001146200037b5760405162461bcd60e51b8152600401620003729062001945565b60405180910390fd5b600154604051632af1c01d60e01b81526001600160a01b0390911690632af1c01d90620003ad908b906004016200154d565b60206040518083038186803b158015620003c657600080fd5b505afa158015620003db573d6000803e3d6000fd5b505050506040513d601f19601f82011682018060405250810190620004019190620012d6565b1515600114620004255760405162461bcd60e51b815260040162000372906200170b565b83620004455760405162461bcd60e51b8152600401620003729062001889565b60005b8481101562000571576002546000906001600160a01b031663ddfc4fde898989868181106200047357fe5b905060200201356040518363ffffffff1660e01b8152600401620004999291906200169a565b60206040518083038186803b158015620004b257600080fd5b505afa158015620004c7573d6000803e3d6000fd5b505050506040513d601f19601f82011682018060405250810190620004ed9190620012d6565b9050806200050f5760405162461bcd60e51b815260040162000372906200174c565b600019860182101562000567578686836001018181106200052c57fe5b905060200201358787848181106200054057fe5b9050602002013510620005675760405162461bcd60e51b81526004016200037290620019d3565b5060010162000448565b5060035460405163ef4003db60e01b81526000916001600160a01b03169063ef4003db90620005a59087906004016200154d565b60206040518083038186803b158015620005be57600080fd5b505afa158015620005d3573d6000803e3d6000fd5b505050506040513d601f19601f82011682018060405250810190620005f99190620012d6565b9050600181151514620006205760405162461bcd60e51b81526004016200037290620016c8565b6000338a8a878a8a8d600460009054906101000a90046001600160a01b0316600260009054906101000a90046001600160a01b03168c6040516200066490620011ac565b620006799a9998979695949392919062001561565b604051809103906000f08015801562000696573d6000803e3d6000fd5b5060058054600180820183557f036b6384b5eca791c62761152d0c79bb0604c104a5fb6f4eb0703f3154bb3db090910180546001600160a01b0319166001600160a01b0385169081179091556000908152600660205260408120805460ff191683179055915492935090916200070c916200112e565b33600081815260076020908152604080832080546001810182559084529183209091018490555192935090916001600160a01b038516917fb52f284a6c14f1a66ab5513b5b539066933e58e69e6432666f0e3c8c8a7d750391a35050505050505050505050565b6000805b6001600160a01b038416600090815260086020526040902054811015620007f2576001600160a01b03848116600090815260086020526040902080549185169183908110620007c257fe5b6000918252602090912001546001600160a01b03161415620007e9576001915050620007f8565b60010162000777565b50600090505b92915050565b600581815481106200080c57fe5b6000918252602090912001546001600160a01b0316905081565b60606000620008358362001055565b905060608167ffffffffffffffff811180156200085157600080fd5b506040519080825280602002602001820160405280156200087c578160200160208202803683370190505b506001600160a01b03851660009081526007602090815260409182902080548351818402810184019094528084529394506060939091830182828015620008e357602002820191906000526020600020905b815481526020019060010190808311620008ce575b5050505050905060005b83811015620009645760058282815181106200090557fe5b6020026020010151815481106200091857fe5b9060005260206000200160009054906101000a90046001600160a01b03168382815181106200094357fe5b6001600160a01b0390921660209283029190910190910152600101620008ed565b5090949350505050565b60066020526000908152604090205460ff1681565b6001546001600160a01b031681565b6003546001600160a01b031681565b806001600160a01b031663f38815896040518163ffffffff1660e01b8152600401600060405180830381600087803b158015620009dd57600080fd5b505af1158015620009f2573d6000803e3d6000fd5b50506003546040516319d71f1f60e31b81526001600160a01b03909116925063ceb8f8f8915062000a2a908490339060040162001616565b600060405180830381600087803b15801562000a4557600080fd5b505af115801562000a5a573d6000803e3d6000fd5b5050505050565b6004546001600160a01b031681565b62000a7a62001179565b6000546001600160a01b0390811691161462000aaa5760405162461bcd60e51b8152600401620003729062001910565b600080546040516001600160a01b03909116907f8be0079c531659141344cd1fd0a4f28419497f9722a3daafe3b4186f6b6457e0908390a3600080546001600160a01b0319169055565b60055490565b6000546001600160a01b031690565b6060600580548060200260200160405190810160405280929190818152602001828054801562000b6357602002820191906000526020600020905b81546001600160a01b0316815260019091019060200180831162000b44575b5050505050905090565b6002546001600160a01b031681565b6008602052816000526040600020818154811062000b9657fe5b6000918252602090912001546001600160a01b03169150829050565b3360009081526006602052604081205460ff16151560011462000be95760405162461bcd60e51b8152600401620003729062001779565b62000bf5823362000773565b62000c33576001600160a01b03821660009081526008602090815260408220805460018101825590835291200180546001600160a01b031916331790555b506001919050565b6000816001600160a01b0316637fd788aa6040518163ffffffff1660e01b815260040160206040518083038186803b15801562000c7757600080fd5b505afa15801562000c8c573d6000803e3d6000fd5b505050506040513d601f19601f8201168201806040525081019062000cb29190620012d6565b9050801562000cd55760405162461bcd60e51b81526004016200037290620018c0565b60405163021eef7f60e01b81526000906001600160a01b0384169063021eef7f9062000d0690879060040162001a0a565b60206040518083038186803b15801562000d1f57600080fd5b505afa15801562000d34573d6000803e3d6000fd5b505050506040513d601f19601f8201168201806040525081019062000d5a9190620012d6565b905060018115151462000d815760405162461bcd60e51b8152600401620003729062001987565b6000836001600160a01b03166346e0fbae6040518163ffffffff1660e01b815260040160206040518083038186803b15801562000dbd57600080fd5b505afa15801562000dd2573d6000803e3d6000fd5b505050506040513d601f19601f8201168201806040525081019062000df8919062001411565b6002546040516331edb3ad60e21b81529192506000916001600160a01b039091169063c7b6ceb49062000e329085908a906004016200169a565b60206040518083038186803b15801562000e4b57600080fd5b505afa15801562000e60573d6000803e3d6000fd5b505050506040513d601f19601f8201168201806040525081019062000e869190620012d6565b905060018115151462000ead5760405162461bcd60e51b8152600401620003729062001841565b604051639ab4438f60e01b81526000906001600160a01b03871690639ab4438f9062000ede908a9060040162001a0a565b60606040518083038186803b15801562000ef757600080fd5b505afa15801562000f0c573d6000803e3d6000fd5b505050506040513d601f19601f8201168201806040525081019062000f329190620014ab565b92506000915062000f409050565b81600281111562000f4d57fe5b1462000f6d5760405162461bcd60e51b81526004016200037290620017f1565b6000866001600160a01b031663a224ee9c6040518163ffffffff1660e01b815260040160206040518083038186803b15801562000fa957600080fd5b505afa15801562000fbe573d6000803e3d6000fd5b505050506040513d601f19601f8201168201806040525081019062000fe491906200124c565b604051631a33288160e31b81529091506001600160a01b0382169063d19944089062001017908b908b9060040162001a13565b600060405180830381600087803b1580156200103257600080fd5b505af115801562001047573d6000803e3d6000fd5b505050505050505050505050565b6001600160a01b031660009081526007602052604090205490565b6200107a62001179565b6000546001600160a01b03908116911614620010aa5760405162461bcd60e51b8152600401620003729062001910565b6001600160a01b038116620010d35760405162461bcd60e51b81526004016200037290620017ab565b600080546040516001600160a01b03808516939216917f8be0079c531659141344cd1fd0a4f28419497f9722a3daafe3b4186f6b6457e091a3600080546001600160a01b0319166001600160a01b0392909216919091179055565b60006200117283836040518060400160405280601e81526020017f536166654d6174683a207375627472616374696f6e206f766572666c6f7700008152506200117d565b9392505050565b3390565b60008184841115620011a45760405162461bcd60e51b8152600401620003729190620016b3565b505050900390565b6131b48062001a6183390190565b8035620007f88162001a2a565b60008083601f840112620011d9578182fd5b50813567ffffffffffffffff811115620011f1578182fd5b60208301915083602080830285010111156200120c57600080fd5b9250929050565b8035620007f88162001a43565b8035620007f88162001a52565b6000602082840312156200123f578081fd5b8135620011728162001a2a565b6000602082840312156200125e578081fd5b8151620011728162001a2a565b600080604083850312156200127e578081fd5b82356200128b8162001a2a565b915060208301356200129d8162001a2a565b809150509250929050565b60008060408385031215620012bb578182fd5b8235620012c88162001a2a565b946020939093013593505050565b600060208284031215620012e8578081fd5b8151620011728162001a43565b600080600080600080600060c0888a03121562001310578283fd5b87356200131d8162001a2a565b965060208881013567ffffffffffffffff808211156200133b578586fd5b818b0191508b601f8301126200134f578586fd5b8135818111156200135e578687fd5b604051601f8201601f19168101850183811182821017156200137e578889fd5b60405281815283820185018e101562001395578788fd5b818585018683013790810184018790529850620013b68c60408d0162001220565b975060608b0135925080831115620013cc578586fd5b5050620013dc8a828b01620011c7565b9095509350620013f290508960808a01620011ba565b9150620014038960a08a0162001213565b905092959891949750929550565b60006020828403121562001423578081fd5b8151620011728162001a52565b60006020828403121562001442578081fd5b5035919050565b600080604083850312156200145c578182fd5b8235915060208301356200129d8162001a2a565b60008060006060848603121562001485578283fd5b83519250602084015191506040840151620014a08162001a43565b809150509250925092565b600080600060608486031215620014c0578283fd5b8351925060208401519150604084015160038110620014a0578182fd5b6001600160a01b03169052565b15159052565b60068110620014fb57fe5b9052565b60008151808452815b81811015620015265760208185018101518683018201520162001508565b81811115620015385782602083870101525b50601f01601f19169290920160200192915050565b6001600160a01b0391909116815260200190565b6001600160a01b038b811682528a8116602083015261012060408301819052600091620015918483018d620014ff565b8b82166060860152848103608086015289815291506001600160fb1b03891115620015ba578283fd5b60208902808b6020850137919091016020019182528190620015e060a0850189620014f0565b861660c084015250620015f760e0830185620014dd565b62001607610100830184620014ea565b9b9a5050505050505050505050565b6001600160a01b0392831681529116602082015260400190565b6020808252825182820181905260009190848201906040850190845b81811015620016735783516001600160a01b0316835292840192918401916001016200164c565b50909695505050505050565b901515815260200190565b60208101620007f88284620014f0565b6040810160068410620016a957fe5b9281526020015290565b600060208252620011726020830184620014ff565b60208082526023908201527f6d657373656e6765722061646472657373206973206e6f7420726567697374656040820152621c995960ea1b606082015260800190565b60208082526021908201527f534c4f206e6f742072656769737465726564206f6e20534c4f526567697374726040820152607960f81b606082015260800190565b60208082526013908201527214195c9a5bd9081a59081b9bdd081d985b1a59606a1b604082015260600190565b6020808252601890820152774f6e6c7920666f72207265676973746572656420534c417360401b604082015260600190565b60208082526026908201527f4f776e61626c653a206e6577206f776e657220697320746865207a65726f206160408201526564647265737360d01b606082015260800190565b60208082526030908201527f534c4120636f6e74726163742077617320616c7265616479207665726966696560408201526f1908199bdc881d1a19481c195c9a5bd960821b606082015260800190565b60208082526028908201527f534c4120636f6e747261637420706572696f6420686173206e6f742066696e696040820152671cda1959081e595d60c21b606082015260800190565b6020808252601c908201527f506572696f647320696e666f726d6174696f6e20697320656d70747900000000604082015260600190565b60208082526030908201527f53686f756c64206f6e6c792062652063616c6c656420666f72206e6f7420627260408201526f65616368656420636f6e74726163747360801b606082015260800190565b6020808252818101527f4f776e61626c653a2063616c6c6572206973206e6f7420746865206f776e6572604082015260600190565b60208082526022908201527f506572696f642074797065206973206e6f7420696e697469616c697a65642079604082015261195d60f21b606082015260800190565b6020808252602c908201527f506572696f64204944206e6f74207265676973746572656420696e207468652060408201526b14d3104818dbdb9d1c9858dd60a21b606082015260800190565b6020808252601c908201527f506572696f64206964732073686f756c6420626520736f727465642000000000604082015260600190565b90815260200190565b9182526001600160a01b0316602082015260400190565b6001600160a01b038116811462001a4057600080fd5b50565b801515811462001a4057600080fd5b6006811062001a4057600080fdfe6080604052601d805460ff191690553480156200001b57600080fd5b50604051620031b4380380620031b48339810160408190526200003e91620006a8565b828285875184600062000056620003a660201b60201c565b600080546001600160a01b0319166001600160a01b03831690811782556040519293509160008051602062003194833981519152908290a350600180546001600160a01b038088166001600160a01b0319928316178355600280549188169190921617905560118054859260ff1990911690836005811115620000d557fe5b021790555060128290556013805460ff191682151517905560015460408051637b8041cf60e11b815290516000928392839283926001600160a01b03169163f700839e916004808301926080929190829003018186803b1580156200013957600080fd5b505afa1580156200014e573d6000803e3d6000fd5b505050506040513d601f19601f82011682018060405250810190620001749190620007db565b600254604051635c98d15760e01b8152949850929650909450925060009182916001600160a01b031690635c98d15790620001b4908c9060040162000811565b60606040518083038186803b158015620001cd57600080fd5b505afa158015620001e2573d6000803e3d6000fd5b505050506040513d601f19601f820116820180604052508101906200020891906200079d565b50600f829055601081905560015460408051638b8e530960e01b815290519395509193506001600160a01b031691638b8e530991600480820192602092909190829003018186803b1580156200025d57600080fd5b505afa15801562000272573d6000803e3d6000fd5b505050506040513d601f19601f8201168201806040525081019062000298919062000682565b600980546001600160a01b0319166001600160a01b03929092169190911790555050600b93909355600c91909155600d55600e5550620002df93508c9250620003aa915050565b8651620002f49060169060208a019062000460565b50601a80546001600160a01b038089166001600160a01b03199283161790925560198054909116331790556017805491841661010002610100600160a81b031990921691909117905543601c55845162000356906018906020880190620004e5565b506017805485919060ff191660018360058111156200037157fe5b021790555050601580546001600160a01b0319166001600160a01b03989098169790971790965550620008e195505050505050565b3390565b620003b4620003a6565b6000546001600160a01b03908116911614620003ed5760405162461bcd60e51b8152600401620003e4906200086c565b60405180910390fd5b6001600160a01b038116620004165760405162461bcd60e51b8152600401620003e49062000826565b600080546040516001600160a01b03808516939216916000805160206200319483398151915291a3600080546001600160a01b0319166001600160a01b0392909216919091179055565b828054600181600116156101000203166002900490600052602060002090601f016020900481019282601f10620004a357805160ff1916838001178555620004d3565b82800160010185558215620004d3579182015b82811115620004d3578251825591602001919060010190620004b6565b50620004e192915062000522565b5090565b828054828255906000526020600020908101928215620004d35791602002820182811115620004d3578251825591602001919060010190620004b6565b5b80821115620004e1576000815560010162000523565b80516200054681620008c8565b92915050565b600082601f8301126200055d578081fd5b81516001600160401b0381111562000573578182fd5b602080820262000585828201620008a1565b83815293508184018583018287018401881015620005a257600080fd5b600092505b84831015620005c7578051825260019290920191908301908301620005a7565b505050505092915050565b805180151581146200054657600080fd5b8051600681106200054657600080fd5b600082601f83011262000604578081fd5b81516001600160401b038111156200061a578182fd5b602062000630601f8301601f19168201620008a1565b925081835284818386010111156200064757600080fd5b60005b82811015620006675784810182015184820183015281016200064a565b82811115620006795760008284860101525b50505092915050565b60006020828403121562000694578081fd5b8151620006a181620008c8565b9392505050565b60008060008060008060008060006101208a8c031215620006c7578485fd5b8951620006d481620008c8565b60208b0151909950620006e781620008c8565b60408b01519098506001600160401b038082111562000704578687fd5b620007128d838e01620005f3565b9850620007238d60608e0162000539565b975060808c015191508082111562000739578687fd5b50620007488c828d016200054c565b9550506200075a8b60a08c01620005e3565b93506200076b8b60c08c0162000539565b92506200077c8b60e08c0162000539565b91506200078e8b6101008c01620005d2565b90509295985092959850929598565b600080600060608486031215620007b2578283fd5b835192506020840151915060408401518015158114620007d0578182fd5b809150509250925092565b60008060008060808587031215620007f1578384fd5b505082516020840151604085015160609095015191969095509092509050565b60208101600683106200082057fe5b91905290565b60208082526026908201527f4f776e61626c653a206e6577206f776e657220697320746865207a65726f206160408201526564647265737360d01b606082015260800190565b6020808252818101527f4f776e61626c653a2063616c6c6572206973206e6f7420746865206f776e6572604082015260600190565b6040518181016001600160401b0381118282101715620008c057600080fd5b604052919050565b6001600160a01b0381168114620008de57600080fd5b50565b6128a380620008f16000396000f3fe608060405234801561001057600080fd5b50600436106102485760003560e01c80637fd788aa1161013b578063d7a5c422116100b8578063f2fde38b1161007c578063f2fde38b14610497578063f51b7ab9146104aa578063f7e9dfff146104b2578063fbbf93a0146104ba578063fd5e6dd1146104d457610248565b8063d7a5c4221461044e578063db2da48c14610461578063db69a46214610474578063e68e276d1461047c578063ee575c281461048f57610248565b8063b18ac918116100ff578063b18ac9181461040e578063b7bc347e14610416578063c623674f1461041e578063cbe230c314610433578063cd92890e1461044657610248565b80637fd788aa146103cc5780638da5cb5b146103d45780639ab4438f146103dc5780639fc4caa5146103fe578063a224ee9c1461040657610248565b80633bcfc4b8116101c957806357ac94f01161018d57806357ac94f01461035a5780635c1c20de1461037b5780635e5f2e26146103835780636f265a34146103a3578063715018a6146103c457610248565b80633bcfc4b81461030f5780633d9287fa1461031757806346e0fbae1461031f5780634a4c560d14610334578063524f07351461034757610248565b80631bf30929116102105780631bf30929146102c65780631fc2cd93146102ce57806327cd727c146102e15780632eb8197a146102f457806333df1541146102fc57610248565b8063021eef7f1461024d5780630ae9ea45146102765780630bea440d146102965780630c5160f4146102ab578063171e44ea146102b3575b600080fd5b61026061025b366004611f8c565b6104e7565b60405161026d91906121b2565b60405180910390f35b610289610284366004611f8c565b610531565b60405161026d91906127e5565b6102a96102a4366004611fa4565b61054f565b005b61028961062c565b6102a96102c1366004611f27565b610632565b6102896107bd565b6102a96102dc366004611f27565b6107c3565b6102a96102ef366004611fa4565b610a16565b610289610b56565b61028961030a366004611fa4565b610b5c565b610289610b79565b610260610b7f565b610327610b88565b60405161026d91906121bd565b6102a9610342366004611f27565b610b91565b6102a9610355366004611f27565b610c23565b61036d610368366004611f42565b610c2f565b60405161026d9291906120ef565b610289610c7d565b610396610391366004611f8c565b610c83565b60405161026d91906120b7565b6103b66103b1366004611f27565b610caa565b60405161026d9291906127ee565b6102a9610d0f565b610260610d8e565b610396610d97565b6103ef6103ea366004611f8c565b610da6565b60405161026d939291906127fc565b610396610dca565b610396610dde565b610289610ded565b610289610df3565b610426610df9565b60405161026d91906121e9565b610260610441366004611f27565b610e87565b610396610ed9565b6102a961045c366004611fd0565b610ee8565b61028961046f366004611f27565b61106c565b61039661107e565b61028961048a366004611f27565b61108d565b61028961109f565b6102a96104a5366004611f27565b6110a5565b61028961115b565b610396611161565b6104c2611170565b60405161026d96959493929190612108565b6103966104e2366004611f8c565b611463565b6000805b60185481101561052657826018828154811061050357fe5b9060005260206000200154141561051e57600191505061052c565b6001016104eb565b50600090505b919050565b6018818154811061053e57fe5b600091825260209091200154905081565b600082116105785760405162461bcd60e51b815260040161056f906126af565b60405180910390fd5b601d5460ff161561059b5760405162461bcd60e51b815260040161056f906125f9565b6105a58282611470565b601954604051635948284760e11b81526001600160a01b039091169063b290508e906105d59033906004016120b7565b602060405180830381600087803b1580156105ef57600080fd5b505af1158015610603573d6000803e3d6000fd5b505050506040513d601f19601f820116820180604052508101906106279190611f6c565b505050565b60125481565b61063a611719565b6000546001600160a01b039081169116146106675760405162461bcd60e51b815260040161056f906125c4565b61067081610e87565b1561068d5760405162461bcd60e51b815260040161056f90612682565b60015460405163cbe230c360e01b81526001600160a01b039091169063cbe230c3906106bd9084906004016120b7565b60206040518083038186803b1580156106d557600080fd5b505afa1580156106e9573d6000803e3d6000fd5b505050506040513d601f19601f8201168201806040525081019061070d9190611f6c565b151560011461072e5760405162461bcd60e51b815260040161056f9061235f565b600954600090610746906001600160a01b0316610caa565b509050600c54811161076a5760405162461bcd60e51b815260040161056f90612743565b50600a80546001810182556000919091527fc65a7bb8d6351c1cf70c95a316cc6a92839c986682d98bc35f958f4883f9d2a80180546001600160a01b0319166001600160a01b0392909216919091179055565b601c5481565b6107cb610d97565b6001600160a01b0316336001600160a01b031614156107fc5760405162461bcd60e51b815260040161056f906127a0565b60135460ff16151560011415610840573360009081526014602052604090205460ff1615156001146108405760405162461bcd60e51b815260040161056f9061244e565b6001600160a01b038116600090815260046020908152604080832033845290915290205461271090806108855760405162461bcd60e51b815260040161056f906123f1565b6001600160a01b0383166000908152600560205260408120546108b2906108ac848661171d565b90611760565b6001600160a01b038516600090815260066020526040812054919250906108df9085906108ac908561171d565b90506000856001600160a01b031663a9059cbb33846002026040518363ffffffff1660e01b81526004016109149291906120ef565b602060405180830381600087803b15801561092e57600080fd5b505af1158015610942573d6000803e3d6000fd5b505050506040513d601f19601f820116820180604052508101906109669190611f6c565b905060018115151461098a5760405162461bcd60e51b815260040161056f906126db565b6001600160a01b0386166000908152600560205260409020546109ad90856117a2565b6001600160a01b0387166000908152600560209081526040808320939093556006905220546109dc90836117a2565b6001600160a01b03909616600090815260066020908152604080832098909855600481528782203383529052958620959095555050505050565b60008211610a365760405162461bcd60e51b815260040161056f906126af565b60188054600091906000198101908110610a4c57fe5b600091825260208220015460175460405160016259edcb60e01b031981529193506001600160a01b036101008204169163ffa6123591610a969160ff9091169086906004016121d1565b604080518083038186803b158015610aad57600080fd5b505afa158015610ac1573d6000803e3d6000fd5b505050506040513d601f19601f82011682018060405250810190610ae59190611ff1565b601d5490925060ff161515600114905080610b2a5750804210158015610b2a57506000828152601b6020526040812060029081015460ff1690811115610b2757fe5b14155b610b465760405162461bcd60e51b815260040161056f90612263565b610b5084846117e4565b50505050565b600e5481565b600760209081526000928352604080842090915290825290205481565b600f5481565b60135460ff1681565b60175460ff1681565b610b99611719565b6000546001600160a01b03908116911614610bc65760405162461bcd60e51b815260040161056f906125c4565b6001600160a01b03811660009081526014602052604090205460ff1615610bff5760405162461bcd60e51b815260040161056f90612231565b6001600160a01b03166000908152601460205260409020805460ff19166001179055565b610c2c816107c3565b50565b6000806000600a8481548110610c4157fe5b6000918252602080832091909101546001600160a01b039081168084526004835260408085209990921684529790915290205494959350505050565b600b5481565b600a8181548110610c9057fe5b6000918252602090912001546001600160a01b0316905081565b6001600160a01b0381166000908152600460205260408120819081610ccd610d97565b6001600160a01b039081168252602080830193909352604091820160009081205491871681526003909352912054909250610d0890836117a2565b9050915091565b610d17611719565b6000546001600160a01b03908116911614610d445760405162461bcd60e51b815260040161056f906125c4565b600080546040516001600160a01b03909116907f8be0079c531659141344cd1fd0a4f28419497f9722a3daafe3b4186f6b6457e0908390a3600080546001600160a01b0319169055565b601d5460ff1690565b6000546001600160a01b031690565b601b6020526000908152604090208054600182015460029092015490919060ff1683565b60175461010090046001600160a01b031681565b601a546001600160a01b031681565b600d5481565b600a5490565b6016805460408051602060026001851615610100026000190190941693909304601f81018490048402820184019092528181529291830182828015610e7f5780601f10610e5457610100808354040283529160200191610e7f565b820191906000526020600020905b815481529060010190602001808311610e6257829003601f168201915b505050505081565b6000805b600a5481101561052657826001600160a01b0316600a8281548110610eac57fe5b6000918252602090912001546001600160a01b03161415610ed157600191505061052c565b600101610e8b565b6015546001600160a01b031681565b601a546001600160a01b03163314610f125760405162461bcd60e51b815260040161056f906123ac565b7fc95987c1992805ee34bdc915e017cceae36ba1c156b9911fa7e691e6435eb46e428383604051610f4593929190612821565b60405180910390a16000818152601b60205260409081902060018101849055428155601554915163868d08f760e01b815290916001600160a01b03169063868d08f790610f969086906004016127e5565b60206040518083038186803b158015610fae57600080fd5b505afa158015610fc2573d6000803e3d6000fd5b505050506040513d601f19601f82011682018060405250810190610fe69190611f6c565b156110085760028101805460ff19166001179055611003826119ae565b610627565b6002818101805460ff19169091179055611020611b18565b601d805460ff191660011790556040517fbd33f7a3bfa88a467c9df5ae7d2341cf061084c386b20a0d48130f5cbce38a4d9061105f90849086906127ee565b60405180910390a1505050565b60066020526000908152604090205481565b6019546001600160a01b031681565b60056020526000908152604090205481565b600c5481565b6110ad611719565b6000546001600160a01b039081169116146110da5760405162461bcd60e51b815260040161056f906125c4565b6001600160a01b0381166111005760405162461bcd60e51b815260040161056f906122e2565b600080546040516001600160a01b03808516939216917f8be0079c531659141344cd1fd0a4f28419497f9722a3daafe3b4186f6b6457e091a3600080546001600160a01b0319166001600160a01b0392909216919091179055565b60105481565b6009546001600160a01b031681565b600060606000606060006060611184610d97565b60168054604080516020601f6002600019610100600188161502019095169490940493840181900481028201810190925282815293995083018282801561120c5780601f106111e15761010080835404028352916020019161120c565b820191906000526020600020905b8154815290600101906020018083116111ef57829003601f168201915b50506015546018549499506001600160a01b031697505067ffffffffffffffff8311915050801561123c57600080fd5b5060405190808252806020026020018201604052801561127657816020015b611263611ece565b81526020019060019003908161125b5790505b50925060005b6018548110156113535760006018828154811061129557fe5b906000526020600020015490506112aa611ece565b6000828152601b6020908152604091829020825160608101845281548152600182015492810192909252600280820154929391929184019160ff16908111156112ef57fe5b60028111156112fa57fe5b815250509050604051806060016040528082600001518152602001826020015181526020018260400151600281111561132f57fe5b81525086848151811061133e57fe5b6020908102919091010152505060010161127c565b50600854600a5490925067ffffffffffffffff8111801561137357600080fd5b506040519080825280602002602001820160405280156113ad57816020015b61139a611ef9565b8152602001906001900390816113925790505b50905060005b600a5481101561145a576040518060400160405280600a83815481106113d557fe5b9060005260206000200160009054906101000a90046001600160a01b03166001600160a01b0316815260200160036000600a858154811061141257fe5b60009182526020808320909101546001600160a01b031683528201929092526040019020549052825183908390811061144757fe5b60209081029190910101526001016113b3565b50909192939495565b60088181548110610c9057fe5b8061147a81610e87565b151560011461149b5760405162461bcd60e51b815260040161056f90612596565b60135460ff161515600114156114df573360009081526014602052604090205460ff1615156001146114df5760405162461bcd60e51b815260040161056f9061244e565b6114e7610d97565b6001600160a01b0316336001600160a01b03161461153c5760008061150b84610caa565b90925090508161151b8287611c83565b11156115395760405162461bcd60e51b815260040161056f9061250d565b50505b6040516323b872dd60e01b81526000906001600160a01b038416906323b872dd9061156f903390309089906004016120cb565b602060405180830381600087803b15801561158957600080fd5b505af115801561159d573d6000803e3d6000fd5b505050506040513d601f19601f820116820180604052508101906115c19190611f6c565b90506001811515146115e55760405162461bcd60e51b815260040161056f90612641565b6001600160a01b0383166000908152600360205260409020546116089085611c83565b6001600160a01b038416600090815260036020908152604080832093909355600481528282203383529052205461163f9085611c83565b6001600160a01b03841660009081526004602090815260408083203380855292529091209190915561167090611ca8565b6116b757600880546001810182556000919091527ff3f7a9fe364faab93b216da50a3214154f22a0a2b415b23a84c8169e8b636ee30180546001600160a01b031916331790555b6116bf610d97565b6001600160a01b0316336001600160a01b031614610b50576001600160a01b0383166000908152600560205260409020546116fa9085611c83565b6001600160a01b03841660009081526005602052604090205550505050565b3390565b60008261172c5750600061175a565b8282028284828161173957fe5b04146117575760405162461bcd60e51b815260040161056f90612555565b90505b92915050565b600061175783836040518060400160405280601a81526020017f536166654d6174683a206469766973696f6e206279207a65726f000000000000815250611cfa565b600061175783836040518060400160405280601e81526020017f536166654d6174683a207375627472616374696f6e206f766572666c6f770000815250611d31565b806117ee81610e87565b151560011461180f5760405162461bcd60e51b815260040161056f90612596565b60135460ff16151560011415611853573360009081526014602052604090205460ff1615156001146118535760405162461bcd60e51b815260040161056f9061244e565b6001600160a01b03821660009081526004602090815260408083203384529091529020548311156118965760405162461bcd60e51b815260040161056f906124c3565b6001600160a01b0382166000908152600360205260409020546118b990846117a2565b6001600160a01b03831660009081526003602090815260408083209390935560048152828220338352905220546118f090846117a2565b6001600160a01b038316600081815260046020818152604080842033808652925280842095909555935163a9059cbb60e01b8152919363a9059cbb92611938928991016120ef565b602060405180830381600087803b15801561195257600080fd5b505af1158015611966573d6000803e3d6000fd5b505050506040513d601f19601f8201168201806040525081019061198a9190611f6c565b9050600181151514610b505760405162461bcd60e51b815260040161056f906121fc565b60005b600a54811015611b14576000600a82815481106119ca57fe5b60009182526020822001546001600160a01b031691506119e982610caa565b915050600061271090506000611a1c6010546108ac600f54611a168660125461171d90919063ffffffff16565b9061171d565b90506000611a31606484026108ac868561171d565b6009549091506001600160a01b0386811691161415611a64576000611a5582611d5d565b9050611a6182826117a2565b50505b6001600160a01b0385166000908152600460205260408120611aab91839190611a8b610d97565b6001600160a01b0316815260208101919091526040016000205490611c83565b6001600160a01b038616600090815260046020526040812090611acc610d97565b6001600160a01b03908116825260208083019390935260409182016000908120949094558a8452600783528184209816835296905294909420939093555050506001016119b1565b5050565b60005b600a54811015610c2c576000600a8281548110611b3457fe5b60009182526020822001546001600160a01b03169150611b5382610caa565b6009549092508291506001600160a01b0384811691161415611b89576000611b7a82611d5d565b9050611b8682826117a2565b50505b6001600160a01b038316600090815260036020526040902054611bac90826117a2565b6001600160a01b03841660009081526003602090815260408083209390935560049052908120611c0191839190611be1610d97565b6001600160a01b03168152602081019190915260400160002054906117a2565b6001600160a01b038416600090815260046020526040812090611c22610d97565b6001600160a01b0390811682526020808301939093526040918201600090812094909455861683526006909152902054611c5c9082611c83565b6001600160a01b039093166000908152600660205260409020929092555050600101611b1b565b6000828201838110156117575760405162461bcd60e51b815260040161056f90612328565b6000805b60085481101561052657826001600160a01b031660088281548110611ccd57fe5b6000918252602090912001546001600160a01b03161415611cf257600191505061052c565b600101611cac565b60008183611d1b5760405162461bcd60e51b815260040161056f91906121e9565b506000838581611d2757fe5b0495945050505050565b60008184841115611d555760405162461bcd60e51b815260040161056f91906121e9565b505050900390565b60408051808201909152600d81526c6275726e2875696e743235362960981b602090910152600b546000907f42966c689b5afe9b9b3f8a7103b2a19980d59629bfd6a20a60972312ed41d83690611dbd906103e8906108ac90869061171d565b6009546040519193506000916001600160a01b03909116908390611de59086906024016127e5565b60408051601f198184030181529181526020820180516001600160e01b03166001600160e01b0319909416939093179092529051611e23919061209b565b6000604051808303816000865af19150503d8060008114611e60576040519150601f19603f3d011682016040523d82523d6000602084013e611e65565b606091505b5050905080611e865760405162461bcd60e51b815260040161056f9061247f565b6009546001600160a01b0316600090815260036020526040902054611eab90846117a2565b6009546001600160a01b0316600090815260036020526040902055509092915050565b6040518060600160405280600081526020016000815260200160006002811115611ef457fe5b905290565b604080518082019091526000808252602082015290565b80356001600160a01b038116811461175a57600080fd5b600060208284031215611f38578081fd5b6117578383611f10565b60008060408385031215611f54578081fd5b611f5e8484611f10565b946020939093013593505050565b600060208284031215611f7d578081fd5b81518015158114611757578182fd5b600060208284031215611f9d578081fd5b5035919050565b60008060408385031215611fb6578182fd5b82359150611fc78460208501611f10565b90509250929050565b60008060408385031215611fe2578182fd5b50508035926020909101359150565b60008060408385031215612003578182fd5b505080516020909101519092909150565b6000815180845260208085019450808401835b8381101561205757815180516001600160a01b031688528301518388015260409096019590820190600101612027565b509495945050505050565b61206b81612863565b9052565b60008151808452612087816020860160208601612837565b601f01601f19169290920160200192915050565b600082516120ad818460208701612837565b9190910192915050565b6001600160a01b0391909116815260200190565b6001600160a01b039384168152919092166020820152604081019190915260600190565b6001600160a01b03929092168252602082015260400190565b600060018060a01b038089168352602060c08185015261212b60c085018a61206f565b6040838a168187015260609350858203848701528189518084528484019150848b019350865b8181101561218757845180518452868101518785015284015161217685850182612062565b509385019391860191600101612151565b505088608088015286810360a08801526121a18189612014565b9d9c50505050505050505050505050565b901515815260200190565b60208101600683106121cb57fe5b91905290565b60408101600684106121df57fe5b9281526020015290565b600060208252611757602083018461206f565b6020808252818101527f5374616b6520776974686472617720776173206e6f742073756363657366756c604082015260600190565b602080825260189082015277155cd95c88185b1c9958591e481dda1a5d195b1a5cdd195960421b604082015260600190565b60208082526059908201527f43616e206f6e6c79207769746864726177207374616b6520616674657220746860408201527f652066696e616c20706572696f642069732066696e6973686564206f72206966606082015278081d1a194818dbdb9d1c9858dd081a5cc8189c995858da1959603a1b608082015260a00190565b60208082526026908201527f4f776e61626c653a206e6577206f776e657220697320746865207a65726f206160408201526564647265737360d01b606082015260800190565b6020808252601b908201527f536166654d6174683a206164646974696f6e206f766572666c6f770000000000604082015260600190565b6020808252602d908201527f546f6b656e206e6f7420616c6c6f7765642062792074686520534c415265676960408201526c1cdd1c9e4818dbdb9d1c9858dd609a1b606082015260800190565b60208082526025908201527f4f6e6c79204d657373656e6765722063616e2063616c6c20746869732066756e60408201526431ba34b7b760d91b606082015260800190565b6020808252603a908201527f43616e206f6e6c7920636c61696d206120636f6d70656e736174696f6e20696660408201527f20706f736974696f6e20697320626967676572207468616e2030000000000000606082015260800190565b602080825260179082015276155cd95c881a5cc81b9bdd081dda1a5d195b1a5cdd1959604a1b604082015260600190565b60208082526024908201527f44534c41206275726e2070726f6365737320776173206e6f74207375636365736040820152631cd99d5b60e21b606082015260800190565b6020808252602a908201527f53686f756c64206e6f74207769746864726177206d6f7265207374616b6520746040820152691a185b881cdd185ad95960b21b606082015260800190565b60208082526028908201527f43616e6e6f74207374616b65206d6f7265207468616e20534c412070726f76696040820152676465727374616b6560c01b606082015260800190565b60208082526021908201527f536166654d6174683a206d756c7469706c69636174696f6e206f766572666c6f6040820152607760f81b606082015260800190565b6020808252601490820152731d1bdad95b881a5cc81b9bdd08185b1b1bddd95960621b604082015260600190565b6020808252818101527f4f776e61626c653a2063616c6c6572206973206e6f7420746865206f776e6572604082015260600190565b60208082526028908201527f43616e206f6e6c79207374616b65206f6e206e6f7420627265616368656420636040820152676f6e74726163747360c01b606082015260800190565b60208082526021908201527f5374616b696e672070726f6365737320776173206e6f742073756363657366756040820152601b60fa1b606082015260800190565b602080825260139082015272151bdad95b88185b1c9958591e481859191959606a1b604082015260600190565b6020808252601290820152710616d6f756e742063616e6e6f7420626520360741b604082015260600190565b60208082526042908201527f5472616e736665722070726f636573732066726f6d20534c4120636f6e74726160408201527f637420746f206d73672e73656e64657220776173206e6f7420737563636573666060820152611d5b60f21b608082015260a00190565b6020808252603f908201527f53686f756c64207374616b65206174206c65617374206d696e696d756d44534c60408201527f415374616b6564546965723120746f206164642061206e657720746f6b656e00606082015260800190565b60208082526025908201527f53686f756c64206e6f742062652063616c6c65642062792074686520534c412060408201526437bbb732b960d91b606082015260800190565b90815260200190565b918252602082015260400190565b838152602081018390526060810161281383612863565b826040830152949350505050565b9283526020830191909152604082015260600190565b60005b8381101561285257818101518382015260200161283a565b83811115610b505750506000910152565b60038110610c2c57fefea264697066735822122058c9cf255af0e299731459b4ae231453f0c83d608306ab7167c90675504f255664736f6c634300060c00338be0079c531659141344cd1fd0a4f28419497f9722a3daafe3b4186f6b6457e0a2646970667358221220f6b85c0e385755427e4410fbdd7782c639bafb08d767a651eb1175a95dd656fd64736f6c634300060c0033",
  "immutableReferences": {},
  "source": "// SPDX-License-Identifier: MIT\npragma solidity ^0.6.0;\npragma experimental ABIEncoderV2;\n\nimport \"@openzeppelin/contracts/math/SafeMath.sol\";\nimport \"@openzeppelin/contracts/token/ERC20/IERC20.sol\";\nimport \"@openzeppelin/contracts/access/Ownable.sol\";\nimport \"./SLA.sol\";\nimport \"./SLO.sol\";\nimport \"./SLORegistry.sol\";\nimport \"./PeriodRegistry.sol\";\nimport \"./MessengerRegistry.sol\";\nimport \"./StakeRegistry.sol\";\nimport \"./messenger/IMessenger.sol\";\n\n/**\n * @title SLARegistry\n * @dev SLARegistry is a contract for handling creation of service level\n * agreements and keeping track of the created agreements\n */\ncontract SLARegistry is Ownable {\n    using SafeMath for uint256;\n\n    /// @dev SLO registry\n    SLORegistry public sloRegistry;\n    /// @dev Periods registry\n    PeriodRegistry public periodRegistry;\n    /// @dev Messengers registry\n    MessengerRegistry public messengerRegistry;\n    /// @dev Stake registry\n    StakeRegistry public stakeRegistry;\n    /// @dev stores the addresses of created SLAs\n    SLA[] public SLAs;\n    /// @dev (slaAddress=>bool) to check if SLA is registered\n    mapping(address => bool) public registeredSLAs;\n    /// @dev stores the indexes of service level agreements owned by an user\n    mapping(address => uint256[]) private userToSLAIndexes;\n    /// @dev mapping userAddress => SLA[]\n    mapping(address => SLA[]) public userStakedSlas;\n\n    /**\n     * @dev event for service level agreement creation logging\n     * @param sla 1. The address of the created service level agreement contract\n     * @param owner 2. The address of the owner of the service level agreement\n     */\n    event SLACreated(SLA indexed sla, address indexed owner);\n\n    /**\n     * @dev constructor\n     * @param _sloRegistry 1. SLO Registry\n     * @param _periodRegistry 2. Periods registry\n     * @param _messengerRegistry 3. Messenger registry\n     * @param _stakeRegistry 4. Stake registry\n     */\n    constructor(\n        SLORegistry _sloRegistry,\n        PeriodRegistry _periodRegistry,\n        MessengerRegistry _messengerRegistry,\n        StakeRegistry _stakeRegistry\n    ) public {\n        sloRegistry = _sloRegistry;\n        periodRegistry = _periodRegistry;\n        stakeRegistry = _stakeRegistry;\n        messengerRegistry = _messengerRegistry;\n        messengerRegistry.setSLARegistry();\n    }\n\n    /**\n     * @dev public function for creating canonical service level agreements\n     * @param _SLO 1. SLO\n     * @param _ipfsHash 2. string with the ipfs hash that contains extra information about the service level agreement\n     * @param _periodType 3. period type\n     * @param _periodIds 4. array of allowed period ids\n     * @param _messengerAddress 5. address of the messenger for the corresponding SLA\n     * @param _whitelisted 6. bool to declare whitelisted SLA\n     */\n    function createSLA(\n        SLO _SLO,\n        string memory _ipfsHash,\n        PeriodRegistry.PeriodType _periodType,\n        uint256[] calldata _periodIds,\n        address _messengerAddress,\n        bool _whitelisted\n    ) public {\n        (, , bool initialized) = periodRegistry.periodDefinitions(_periodType);\n        require(initialized == true, \"Period type is not initialized yet\");\n        require(\n            sloRegistry.registeredSLOs(address(_SLO)) == true,\n            \"SLO not registered on SLORegistry\"\n        );\n        require(_periodIds.length > 0, \"Periods information is empty\");\n        // check if _periodIds are valid and sorted in ascendant order\n        for (uint256 index = 0; index < _periodIds.length; index++) {\n            bool validPeriod =\n                periodRegistry.isValidPeriod(_periodType, _periodIds[index]);\n            require(validPeriod, \"Period id not valid\");\n            if (index < _periodIds.length - 1) {\n                require(\n                    _periodIds[index] < _periodIds[index + 1],\n                    \"Period ids should be sorted \"\n                );\n            }\n        }\n        bool registeredMessenger =\n            messengerRegistry.registeredMessengers(_messengerAddress);\n        require(\n            registeredMessenger == true,\n            \"messenger address is not registered\"\n        );\n\n        SLA sla =\n            new SLA(\n                msg.sender,\n                _SLO,\n                _ipfsHash,\n                _messengerAddress,\n                _periodIds,\n                _periodType,\n                address(stakeRegistry),\n                address(periodRegistry),\n                _whitelisted\n            );\n\n        SLAs.push(sla);\n        registeredSLAs[address(sla)] = true;\n        uint256 index = SLAs.length.sub(1);\n        userToSLAIndexes[msg.sender].push(index);\n        emit SLACreated(sla, msg.sender);\n    }\n\n    /**\n     * @dev Gets SLI information for the specified SLA and SLO\n     * @param _periodId 1. id of the period\n     * @param _sla 2. SLA Address\n     */\n    function requestSLI(uint256 _periodId, SLA _sla) public {\n        bool breachedContract = _sla.breachedContract();\n        require(\n            breachedContract == false,\n            \"Should only be called for not breached contracts\"\n        );\n        bool slaAllowedPeriodId = _sla.isAllowedPeriod(_periodId);\n        require(\n            slaAllowedPeriodId == true,\n            \"Period ID not registered in the SLA contract\"\n        );\n        PeriodRegistry.PeriodType slaPeriodType = _sla.periodType();\n        bool periodFinished =\n            periodRegistry.periodIsFinished(slaPeriodType, _periodId);\n        require(\n            periodFinished == true,\n            \"SLA contract period has not finished yet\"\n        );\n        (, , SLA.Status status) = _sla.slaPeriods(_periodId);\n        require(\n            status == SLA.Status.NotVerified,\n            \"SLA contract was already verified for the period\"\n        );\n        address slaMessenger = _sla.messengerAddress();\n        IMessenger(slaMessenger).requestSLI(_periodId, address(_sla));\n    }\n\n    /**\n     * @dev function to declare this SLARegistry contract as SLARegistry of _messengerAddress\n     * @param _messengerAddress 1. address of the messenger\n     */\n\n    function setMessengerSLARegistryAddress(address _messengerAddress) public {\n        IMessenger(_messengerAddress).setSLARegistry();\n        messengerRegistry.registerMessenger(_messengerAddress, msg.sender);\n    }\n\n    /**\n     * @dev public view function that returns the service level agreements that\n     * the given user is the owner of\n     * @param _user Address of the user for which to return the service level\n     * agreements\n     * @return array of SLAs\n     */\n    function userSLAs(address _user) public view returns (SLA[] memory) {\n        uint256 count = userSLACount(_user);\n        SLA[] memory SLAList = new SLA[](count);\n        uint256[] memory userSLAIndexes = userToSLAIndexes[_user];\n\n        for (uint256 i = 0; i < count; i++) {\n            SLAList[i] = (SLAs[userSLAIndexes[i]]);\n        }\n\n        return (SLAList);\n    }\n\n    /**\n     * @dev public view function that returns the amount of service level\n     * agreements the given user is the owner of\n     * @param _user 1. address of the user for which to return the amount of\n     * service level agreements\n     * @return uint256 corresponding to the amount of user's SLAs\n     */\n    function userSLACount(address _user) public view returns (uint256) {\n        return userToSLAIndexes[_user].length;\n    }\n\n    /**\n     * @dev public view function that returns all the service level agreements\n     * @return SLA[] array of SLAs\n     */\n    function allSLAs() public view returns (SLA[] memory) {\n        return (SLAs);\n    }\n\n    /**\n     * @dev public view function that returns the total amount of service\n     * level agreements\n     * @return uint256, the length of SLA array\n     */\n    function SLACount() public view returns (uint256) {\n        return SLAs.length;\n    }\n\n    /**\n     *@dev public view function that returns true if the _owner has staked on _sla\n     *@param _user 1. address to check\n     *@param _sla 2. sla to check\n     *@return bool, true if _sla was staked by _user\n     */\n    function slaWasStakedByUser(address _user, address _sla)\n        public\n        view\n        returns (bool)\n    {\n        for (uint256 index = 0; index < userStakedSlas[_user].length; index++) {\n            if (address(userStakedSlas[_user][index]) == _sla) {\n                return true;\n            }\n        }\n        return false;\n    }\n\n    /**\n     *@dev register the sending SLA contract as staked by _owner\n     *@param _owner 1. SLA contract to stake\n     */\n    function registerStakedSla(address _owner) public returns (bool) {\n        require(registeredSLAs[msg.sender] == true, \"Only for registered SLAs\");\n        if (slaWasStakedByUser(_owner, msg.sender) == false) {\n            userStakedSlas[_owner].push(SLA(msg.sender));\n        }\n        return true;\n    }\n}\n",
  "sourcePath": "/Users/matiasbn/Desktop/stacktical/stacktical-dsla-contracts/contracts/SLARegistry.sol",
  "compiler": {
    "name": "solc",
    "version": "0.6.12+commit.27d51765.Emscripten.clang"
  },
  "schemaVersion": "3.3.3",
  "updatedAt": "2021-02-14T13:32:24.473Z",
  "devdoc": {
    "details": "SLARegistry is a contract for handling creation of service level agreements and keeping track of the created agreements",
    "events": {
      "SLACreated(address,address)": {
        "details": "event for service level agreement creation logging",
        "params": {
          "owner": "2. The address of the owner of the service level agreement",
          "sla": "1. The address of the created service level agreement contract"
        }
      }
    },
    "kind": "dev",
    "methods": {
      "SLACount()": {
        "details": "public view function that returns the total amount of service level agreements",
        "returns": {
          "_0": "uint256, the length of SLA array"
        }
      },
      "allSLAs()": {
        "details": "public view function that returns all the service level agreements",
        "returns": {
          "_0": "SLA[] array of SLAs"
        }
      },
      "constructor": {
        "details": "constructor",
        "params": {
          "_messengerRegistry": "3. Messenger registry",
          "_periodRegistry": "2. Periods registry",
          "_sloRegistry": "1. SLO Registry",
          "_stakeRegistry": "4. Stake registry"
        }
      },
      "createSLA(address,string,uint8,uint256[],address,bool)": {
        "details": "public function for creating canonical service level agreements",
        "params": {
          "_SLO": "1. SLO",
          "_ipfsHash": "2. string with the ipfs hash that contains extra information about the service level agreement",
          "_messengerAddress": "5. address of the messenger for the corresponding SLA",
          "_periodIds": "4. array of allowed period ids",
          "_periodType": "3. period type",
          "_whitelisted": "6. bool to declare whitelisted SLA"
        }
      },
      "owner()": {
        "details": "Returns the address of the current owner."
      },
      "registerStakedSla(address)": {
        "details": "register the sending SLA contract as staked by _owner",
        "params": {
          "_owner": "1. SLA contract to stake"
        }
      },
      "renounceOwnership()": {
        "details": "Leaves the contract without owner. It will not be possible to call `onlyOwner` functions anymore. Can only be called by the current owner. NOTE: Renouncing ownership will leave the contract without an owner, thereby removing any functionality that is only available to the owner."
      },
      "requestSLI(uint256,address)": {
        "details": "Gets SLI information for the specified SLA and SLO",
        "params": {
          "_periodId": "1. id of the period",
          "_sla": "2. SLA Address"
        }
      },
      "setMessengerSLARegistryAddress(address)": {
        "details": "function to declare this SLARegistry contract as SLARegistry of _messengerAddress",
        "params": {
          "_messengerAddress": "1. address of the messenger"
        }
      },
      "slaWasStakedByUser(address,address)": {
        "details": "public view function that returns true if the _owner has staked on _sla",
        "params": {
          "_sla": "2. sla to check",
          "_user": "1. address to check"
        },
        "returns": {
          "_0": "bool, true if _sla was staked by _user"
        }
      },
      "transferOwnership(address)": {
        "details": "Transfers ownership of the contract to a new account (`newOwner`). Can only be called by the current owner."
      },
      "userSLACount(address)": {
        "details": "public view function that returns the amount of service level agreements the given user is the owner of",
        "params": {
          "_user": "1. address of the user for which to return the amount of service level agreements"
        },
        "returns": {
          "_0": "uint256 corresponding to the amount of user's SLAs"
        }
      },
      "userSLAs(address)": {
        "details": "public view function that returns the service level agreements that the given user is the owner of",
        "params": {
          "_user": "Address of the user for which to return the service level agreements"
        },
        "returns": {
          "_0": "array of SLAs"
        }
      }
    },
    "stateVariables": {
      "SLAs": {
        "details": "stores the addresses of created SLAs"
      },
      "messengerRegistry": {
        "details": "Messengers registry"
      },
      "periodRegistry": {
        "details": "Periods registry"
      },
      "registeredSLAs": {
        "details": "(slaAddress=>bool) to check if SLA is registered"
      },
      "sloRegistry": {
        "details": "SLO registry"
      },
      "stakeRegistry": {
        "details": "Stake registry"
      },
      "userStakedSlas": {
        "details": "mapping userAddress => SLA[]"
      },
      "userToSLAIndexes": {
        "details": "stores the indexes of service level agreements owned by an user"
      }
    },
    "title": "SLARegistry",
    "version": 1
  },
  "userdoc": {
    "kind": "user",
    "methods": {},
    "version": 1
  }
}