{
  "contractName": "SLARegistry",
  "abi": [
    {
      "inputs": [
        {
          "internalType": "contract SLORegistry",
          "name": "_sloRegistry",
          "type": "address"
        },
        {
          "internalType": "contract PeriodRegistry",
          "name": "_periodRegistry",
          "type": "address"
        },
        {
          "internalType": "contract MessengerRegistry",
          "name": "_messengerRegistry",
          "type": "address"
        },
        {
          "internalType": "contract StakeRegistry",
          "name": "_stakeRegistry",
          "type": "address"
        },
        {
          "internalType": "bool",
          "name": "_checkPastPeriod",
          "type": "bool"
        }
      ],
      "stateMutability": "nonpayable",
      "type": "constructor"
    },
    {
      "anonymous": false,
      "inputs": [
        {
          "indexed": true,
          "internalType": "contract SLA",
          "name": "sla",
          "type": "address"
        },
        {
          "indexed": true,
          "internalType": "address",
          "name": "owner",
          "type": "address"
        }
      ],
      "name": "SLACreated",
      "type": "event"
    },
    {
      "inputs": [
        {
          "internalType": "uint256",
          "name": "",
          "type": "uint256"
        }
      ],
      "name": "SLAs",
      "outputs": [
        {
          "internalType": "contract SLA",
          "name": "",
          "type": "address"
        }
      ],
      "stateMutability": "view",
      "type": "function",
      "constant": true
    },
    {
      "inputs": [],
      "name": "checkPastPeriod",
      "outputs": [
        {
          "internalType": "bool",
          "name": "",
          "type": "bool"
        }
      ],
      "stateMutability": "view",
      "type": "function",
      "constant": true
    },
    {
      "inputs": [],
      "name": "messengerRegistry",
      "outputs": [
        {
          "internalType": "contract MessengerRegistry",
          "name": "",
          "type": "address"
        }
      ],
      "stateMutability": "view",
      "type": "function",
      "constant": true
    },
    {
      "inputs": [],
      "name": "periodRegistry",
      "outputs": [
        {
          "internalType": "contract PeriodRegistry",
          "name": "",
          "type": "address"
        }
      ],
      "stateMutability": "view",
      "type": "function",
      "constant": true
    },
    {
      "inputs": [],
      "name": "sloRegistry",
      "outputs": [
        {
          "internalType": "contract SLORegistry",
          "name": "",
          "type": "address"
        }
      ],
      "stateMutability": "view",
      "type": "function",
      "constant": true
    },
    {
      "inputs": [],
      "name": "stakeRegistry",
      "outputs": [
        {
          "internalType": "contract StakeRegistry",
          "name": "",
          "type": "address"
        }
      ],
      "stateMutability": "view",
      "type": "function",
      "constant": true
    },
    {
      "inputs": [
        {
          "internalType": "uint256",
          "name": "_sloValue",
          "type": "uint256"
        },
        {
          "internalType": "enum SLORegistry.SLOType",
          "name": "_sloType",
          "type": "uint8"
        },
        {
          "internalType": "bool",
          "name": "_whitelisted",
          "type": "bool"
        },
        {
          "internalType": "address",
          "name": "_messengerAddress",
          "type": "address"
        },
        {
          "internalType": "enum PeriodRegistry.PeriodType",
          "name": "_periodType",
          "type": "uint8"
        },
        {
          "internalType": "uint128",
          "name": "_initialPeriodId",
          "type": "uint128"
        },
        {
          "internalType": "uint128",
          "name": "_finalPeriodId",
          "type": "uint128"
        },
        {
          "internalType": "string",
          "name": "_ipfsHash",
          "type": "string"
        },
        {
          "internalType": "bytes32[]",
          "name": "_extraData",
          "type": "bytes32[]"
        },
        {
          "internalType": "uint64",
          "name": "_leverage",
          "type": "uint64"
        }
      ],
      "name": "createSLA",
      "outputs": [],
      "stateMutability": "nonpayable",
      "type": "function"
    },
    {
      "inputs": [
        {
          "internalType": "uint256",
          "name": "_periodId",
          "type": "uint256"
        },
        {
          "internalType": "contract SLA",
          "name": "_sla",
          "type": "address"
        },
        {
          "internalType": "bool",
          "name": "_ownerApproval",
          "type": "bool"
        }
      ],
      "name": "requestSLI",
      "outputs": [],
      "stateMutability": "nonpayable",
      "type": "function"
    },
    {
      "inputs": [
        {
          "internalType": "contract SLA",
          "name": "_sla",
          "type": "address"
        }
      ],
      "name": "returnLockedValue",
      "outputs": [],
      "stateMutability": "nonpayable",
      "type": "function"
    },
    {
      "inputs": [
        {
          "internalType": "address",
          "name": "_messengerAddress",
          "type": "address"
        },
        {
          "internalType": "string",
          "name": "_specificationUrl",
          "type": "string"
        }
      ],
      "name": "registerMessenger",
      "outputs": [],
      "stateMutability": "nonpayable",
      "type": "function"
    },
    {
      "inputs": [
        {
          "internalType": "address",
          "name": "_user",
          "type": "address"
        }
      ],
      "name": "userSLAs",
      "outputs": [
        {
          "internalType": "contract SLA[]",
          "name": "",
          "type": "address[]"
        }
      ],
      "stateMutability": "view",
      "type": "function",
      "constant": true
    },
    {
      "inputs": [],
      "name": "allSLAs",
      "outputs": [
        {
          "internalType": "contract SLA[]",
          "name": "",
          "type": "address[]"
        }
      ],
      "stateMutability": "view",
      "type": "function",
      "constant": true
    },
    {
      "inputs": [
        {
          "internalType": "address",
          "name": "_slaAddress",
          "type": "address"
        }
      ],
      "name": "isRegisteredSLA",
      "outputs": [
        {
          "internalType": "bool",
          "name": "",
          "type": "bool"
        }
      ],
      "stateMutability": "view",
      "type": "function",
      "constant": true
    }
  ],
  "bytecode": "0x60a06040523480156200001157600080fd5b50604051620061e7380380620061e78339810160408190526200003491620001b4565b600080546001600160a01b0319166001600160a01b03878116919091178083556040805163f388158960e01b81529051919092169263f3881589926004808201939182900301818387803b1580156200008c57600080fd5b505af1158015620000a1573d6000803e3d6000fd5b5050600180546001600160a01b038089166001600160a01b03199283161790925560038054878416921691909117908190556040805163f388158960e01b8152905191909216935063f38815899250600480830192600092919082900301818387803b1580156200011157600080fd5b505af115801562000126573d6000803e3d6000fd5b5050600280546001600160a01b0319166001600160a01b0387811691909117918290556040805163f388158960e01b8152905192909116935063f3881589925060048082019260009290919082900301818387803b1580156200018857600080fd5b505af11580156200019d573d6000803e3d6000fd5b50505050151560f81b608052506200024f92505050565b600080600080600060a08688031215620001cc578081fd5b8551620001d98162000236565b6020870151909550620001ec8162000236565b6040870151909450620001ff8162000236565b6060870151909350620002128162000236565b6080870151909250801515811462000228578182fd5b809150509295509295909350565b6001600160a01b03811681146200024c57600080fd5b50565b60805160f81c615f75620002726000398061042852806113ee5250615f756000f3fe60806040523480156200001157600080fd5b5060043610620000d05760003560e01c806368304835116200008757806368304835146200016e578063788164b114620001785780638d2113ed146200018f57806396bddc1014620001a65780639fc4caa514620001b0578063a9e43e7f14620001ba578063c4277a7b14620001d357620000d0565b80630d0f4db714620000d55780632575d7ca14620000ee57806350c5abfe1462000105578063516c285714620001345780635a7d1e5d146200015a5780635c4df3321462000164575b600080fd5b620000ec620000e636600462001764565b620001ea565b005b620000ec620000ff366004620015f7565b620007c3565b6200011c62000116366004620016ec565b62000bcf565b6040516200012b919062001911565b60405180910390f35b6200014b62000145366004620015f7565b62000bf7565b6040516200012b919062001a75565b6200011c62000d4a565b6200011c62000d59565b6200011c62000d68565b620000ec620001893660046200171e565b62000d77565b620000ec620001a03660046200163c565b620012b6565b6200014b62001379565b6200011c620013dd565b620001c4620013ec565b6040516200012b919062001ac4565b620001c4620001e4366004620015f7565b62001410565b600154604051636efe27ef60e11b81526000916001600160a01b03169063ddfc4fde906200021f908a908a9060040162001ae4565b60206040518083038186803b1580156200023857600080fd5b505afa1580156200024d573d6000803e3d6000fd5b505050506040513d601f19601f820116820180604052508101906200027391906200168f565b9050806200029e5760405162461bcd60e51b8152600401620002959062001c19565b60405180910390fd5b600154604051636efe27ef60e11b81526001600160a01b039091169063ddfc4fde90620002d2908a90899060040162001ae4565b60206040518083038186803b158015620002eb57600080fd5b505afa15801562000300573d6000803e3d6000fd5b505050506040513d601f19601f820116820180604052508101906200032691906200168f565b905080620003485760405162461bcd60e51b8152600401620002959062001bb9565b6001546040516347ef60ed60e11b81526000916001600160a01b031690638fdec1da906200037b908b9060040162001acf565b60206040518083038186803b1580156200039457600080fd5b505afa158015620003a9573d6000803e3d6000fd5b505050506040513d601f19601f82011682018060405250810190620003cf91906200168f565b905080620003f15760405162461bcd60e51b8152600401620002959062001b39565b866001600160801b0316866001600160801b03161015620004265760405162461bcd60e51b8152600401620002959062001b70565b7f000000000000000000000000000000000000000000000000000000000000000015620004fb57600154604051631e8760ef60e21b81526000916001600160a01b031690637a1d83bc9062000482908c908c9060040162001ae4565b60206040518083038186803b1580156200049b57600080fd5b505afa158015620004b0573d6000803e3d6000fd5b505050506040513d601f19601f82011682018060405250810190620004d691906200168f565b90508015620004f95760405162461bcd60e51b8152600401620002959062001c9b565b505b60025460405163ef4003db60e01b81526000916001600160a01b03169063ef4003db906200052e908d9060040162001911565b60206040518083038186803b1580156200054757600080fd5b505afa1580156200055c573d6000803e3d6000fd5b505050506040513d601f19601f820116820180604052508101906200058291906200168f565b9050600181151514620005a95760405162461bcd60e51b8152600401620002959062001cf5565b6000338c8b8d8c8c6004805490508d8d8d604051620005c890620014aa565b620005dd9a9998979695949392919062001988565b604051809103906000f080158015620005fa573d6000803e3d6000fd5b5090506000809054906101000a90046001600160a01b03166001600160a01b0316630c7ad72b8f8f846040518463ffffffff1660e01b8152600401620006439392919062001e24565b600060405180830381600087803b1580156200065e57600080fd5b505af115801562000673573d6000803e3d6000fd5b5050600354604051633d7da60560e11b81526001600160a01b039091169250637afb4c0a9150620006b290339085908e8e03600101906004016200195c565b600060405180830381600087803b158015620006cd57600080fd5b505af1158015620006e2573d6000803e3d6000fd5b505060048054600180820183557f8a35acfbc15ff81a39ae7d344fd709f28e8600b4aa8c65c6b64bfe7fe36bd19b90910180546001600160a01b0319166001600160a01b0387169081179091556000908152600660205260408120805460ff19168317905591549193506200075892506200142e565b33600081815260056020908152604080832080546001810182559084529183209091018490555192935090916001600160a01b038516917fb52f284a6c14f1a66ab5513b5b539066933e58e69e6432666f0e3c8c8a7d750391a3505050505050505050505050505050565b620007ce8162001410565b620007ed5760405162461bcd60e51b8152600401620002959062001c76565b806001600160a01b0316638da5cb5b6040518163ffffffff1660e01b815260040160206040518083038186803b1580156200082757600080fd5b505afa1580156200083c573d6000803e3d6000fd5b505050506040513d601f19601f820116820180604052508101906200086291906200161d565b6001600160a01b0316336001600160a01b031614620008955760405162461bcd60e51b8152600401620002959062001cc7565b6000816001600160a01b0316633385d3346040518163ffffffff1660e01b815260040160206040518083038186803b158015620008d157600080fd5b505afa158015620008e6573d6000803e3d6000fd5b505050506040513d601f19601f820116820180604052508101906200090c9190620016cd565b6001600160801b031690506000826001600160a01b03166346e0fbae6040518163ffffffff1660e01b815260040160206040518083038186803b1580156200095357600080fd5b505afa15801562000968573d6000803e3d6000fd5b505050506040513d601f19601f820116820180604052508101906200098e9190620016ae565b60015460405160016259edcb60e01b031981529192506000916001600160a01b039091169063ffa6123590620009cb908590879060040162001b0b565b604080518083038186803b158015620009e357600080fd5b505afa158015620009f8573d6000803e3d6000fd5b505050506040513d601f19601f8201168201806040525081019062000a1e919062001860565b9150506000846001600160a01b0316634190edde856040518263ffffffff1660e01b815260040162000a51919062001df4565b60606040518083038186803b15801562000a6a57600080fd5b505afa15801562000a7f573d6000803e3d6000fd5b505050506040513d601f19601f8201168201806040525081019062000aa5919062001884565b92505050846001600160a01b0316637fd788aa6040518163ffffffff1660e01b815260040160206040518083038186803b15801562000ae357600080fd5b505afa15801562000af8573d6000803e3d6000fd5b505050506040513d601f19601f8201168201806040525081019062000b1e91906200168f565b8062000b43575081421015801562000b435750600081600281111562000b4057fe5b14155b62000b625760405162461bcd60e51b8152600401620002959062001d27565b6003546040516312baebe560e11b81526001600160a01b0390911690632575d7ca9062000b9490889060040162001911565b600060405180830381600087803b15801562000baf57600080fd5b505af115801562000bc4573d6000803e3d6000fd5b505050505050505050565b6004818154811062000bdd57fe5b6000918252602090912001546001600160a01b0316905081565b6001600160a01b03811660009081526005602052604090205460609081816001600160401b038111801562000c2b57600080fd5b5060405190808252806020026020018201604052801562000c56578160200160208202803683370190505b506001600160a01b0385166000908152600560209081526040918290208054835181840281018401909452808452939450606093909183018282801562000cbd57602002820191906000526020600020905b81548152602001906001019080831162000ca8575b50939450600093505050505b8381101562000d4057600482828151811062000ce157fe5b60200260200101518154811062000cf457fe5b9060005260206000200160009054906101000a90046001600160a01b031683828151811062000d1f57fe5b6001600160a01b039092166020928302919091019091015260010162000cc9565b5090949350505050565b6000546001600160a01b031681565b6002546001600160a01b031681565b6003546001600160a01b031681565b62000d828262001410565b62000da15760405162461bcd60e51b8152600401620002959062001c76565b816001600160a01b031663b1659bad6040518163ffffffff1660e01b815260040160206040518083038186803b15801562000ddb57600080fd5b505afa15801562000df0573d6000803e3d6000fd5b505050506040513d601f19601f8201168201806040525081019062000e16919062001705565b831462000e375760405162461bcd60e51b8152600401620002959062001c4c565b6040516320c876ef60e11b81526000906001600160a01b03841690634190edde9062000e6890879060040162001df4565b60606040518083038186803b15801562000e8157600080fd5b505afa15801562000e96573d6000803e3d6000fd5b505050506040513d601f19601f8201168201806040525081019062000ebc919062001884565b92506000915062000eca9050565b81600281111562000ed757fe5b1462000ef75760405162461bcd60e51b8152600401620002959062001d72565b6000836001600160a01b0316637fd788aa6040518163ffffffff1660e01b815260040160206040518083038186803b15801562000f3357600080fd5b505afa15801562000f48573d6000803e3d6000fd5b505050506040513d601f19601f8201168201806040525081019062000f6e91906200168f565b9050801562000f915760405162461bcd60e51b8152600401620002959062001dc9565b60405163021eef7f60e01b81526000906001600160a01b0386169063021eef7f9062000fc290899060040162001df4565b60206040518083038186803b15801562000fdb57600080fd5b505afa15801562000ff0573d6000803e3d6000fd5b505050506040513d601f19601f820116820180604052508101906200101691906200168f565b905080620010385760405162461bcd60e51b8152600401620002959062001d9e565b6000856001600160a01b03166346e0fbae6040518163ffffffff1660e01b815260040160206040518083038186803b1580156200107457600080fd5b505afa15801562001089573d6000803e3d6000fd5b505050506040513d601f19601f82011682018060405250810190620010af9190620016ae565b6001546040516331edb3ad60e21b81529192506000916001600160a01b039091169063c7b6ceb490620010e99085908c9060040162001b0b565b60206040518083038186803b1580156200110257600080fd5b505afa15801562001117573d6000803e3d6000fd5b505050506040513d601f19601f820116820180604052508101906200113d91906200168f565b9050806200115f5760405162461bcd60e51b8152600401620002959062001bec565b6000876001600160a01b031663a224ee9c6040518163ffffffff1660e01b815260040160206040518083038186803b1580156200119b57600080fd5b505afa158015620011b0573d6000803e3d6000fd5b505050506040513d601f19601f82011682018060405250810190620011d691906200161d565b604051634bd410c960e11b81529091506001600160a01b038216906397a82192906200120d908c908c908c90339060040162001dfd565b600060405180830381600087803b1580156200122857600080fd5b505af11580156200123d573d6000803e3d6000fd5b50506003546040516308bcf0cf60e21b81526001600160a01b0390911692506322f3c33c915062001277908b9033908e9060040162001a51565b600060405180830381600087803b1580156200129257600080fd5b505af1158015620012a7573d6000803e3d6000fd5b50505050505050505050505050565b816001600160a01b031663f38815896040518163ffffffff1660e01b8152600401600060405180830381600087803b158015620012f257600080fd5b505af115801562001307573d6000803e3d6000fd5b505060025460405163eabb8a7360e01b81526001600160a01b03909116925063eabb8a739150620013419033908690869060040162001925565b600060405180830381600087803b1580156200135c57600080fd5b505af115801562001371573d6000803e3d6000fd5b505050505050565b60606004805480602002602001604051908101604052809291908181526020018280548015620013d357602002820191906000526020600020905b81546001600160a01b03168152600190910190602001808311620013b4575b5050505050905090565b6001546001600160a01b031681565b7f000000000000000000000000000000000000000000000000000000000000000081565b6001600160a01b031660009081526006602052604090205460ff1690565b60006200147283836040518060400160405280601e81526020017f536166654d6174683a207375627472616374696f6e206f766572666c6f7700008152506200147b565b90505b92915050565b60008184841115620014a25760405162461bcd60e51b815260040162000295919062001b24565b505050900390565b61406c8062001ed483390190565b8035620014758162001e8a565b600082601f830112620014d6578081fd5b81356001600160401b03811115620014ec578182fd5b6020808202620014fe82820162001e55565b838152935081840185830182870184018810156200151b57600080fd5b600092505b848310156200154057803582526001929092019190830190830162001520565b505050505092915050565b8035620014758162001ea0565b8035620014758162001eaf565b600082601f83011262001576578081fd5b81356001600160401b038111156200158c578182fd5b620015a1601f8201601f191660200162001e55565b9150808252836020828501011115620015b957600080fd5b8060208401602084013760009082016020015292915050565b8035620014758162001ebd565b80356001600160401b03811681146200147557600080fd5b60006020828403121562001609578081fd5b8135620016168162001e8a565b9392505050565b6000602082840312156200162f578081fd5b8151620016168162001e8a565b600080604083850312156200164f578081fd5b82356200165c8162001e8a565b915060208301356001600160401b0381111562001677578182fd5b620016858582860162001565565b9150509250929050565b600060208284031215620016a1578081fd5b8151620016168162001ea0565b600060208284031215620016c0578081fd5b8151620016168162001eaf565b600060208284031215620016df578081fd5b8151620016168162001ebd565b600060208284031215620016fe578081fd5b5035919050565b60006020828403121562001717578081fd5b5051919050565b60008060006060848603121562001733578081fd5b833592506020840135620017478162001e8a565b91506040840135620017598162001ea0565b809150509250925092565b6000806000806000806000806000806101408b8d03121562001784578586fd5b8a359950620017978c60208d0162001558565b9850620017a88c60408d016200154b565b9750620017b98c60608d01620014b8565b9650620017ca8c60808d0162001558565b9550620017db8c60a08d01620015d2565b9450620017ec8c60c08d01620015d2565b935060e08b01356001600160401b038082111562001808578485fd5b620018168e838f0162001565565b94506101008d01359150808211156200182d578384fd5b506200183c8d828e01620014c5565b9250506200184f8c6101208d01620015df565b90509295989b9194979a5092959850565b6000806040838503121562001873578182fd5b505080516020909101519092909150565b60008060006060848603121562001899578081fd5b835192506020840151915060408401516003811062001759578182fd5b60008151808452815b81811015620018dd57602081850181015186830182015201620018bf565b81811115620018ef5782602083870101525b50601f01601f19169290920160200192915050565b6001600160401b03169052565b6001600160a01b0391909116815260200190565b6001600160a01b038481168252831660208201526060604082018190526000906200195390830184620018b6565b95945050505050565b6001600160a01b0393841681529190921660208201526001600160801b03909116604082015260600190565b600061014060018060a01b03808e16845260208d151581860152620019ad8d62001e7c565b604085018d9052908b1660608501526001600160801b038a8116608086015289811660a086015288811660c086015260e0850183905290620019f283860189620018b6565b858103610100870152875180825290820193508188019250845b8181101562001a2a5783518552938201939282019260010162001a0c565b505050508091505062001a4261012083018462001904565b9b9a5050505050505050505050565b6001600160a01b039384168152919092166020820152604081019190915260600190565b6020808252825182820181905260009190848201906040850190845b8181101562001ab85783516001600160a01b03168352928401929184019160010162001a91565b50909695505050505050565b901515815260200190565b6020810162001ade8362001e7c565b91905290565b6040810162001af38462001e7c565b9281526001600160801b039190911660209091015290565b6040810162001b1a8462001e7c565b9281526020015290565b600060208252620014726020830184620018b6565b6020808252601f908201527f506572696f642074797065206e6f7420696e697469616c697a65642079657400604082015260600190565b60208082526029908201527f696e76616c69642066696e616c506572696f64496420616e6420696e697469616040820152681b14195c9a5bd9125960ba1b606082015260800190565b602080825260199082015278119a5b985b081c195c9a5bd9081a59081b9bdd081d985b1a59603a1b604082015260600190565b6020808252601390820152721c195c9a5bd9081b9bdd08199a5b9a5cda1959606a1b604082015260600190565b602080825260199082015278119a5c9cdd081c195c9a5bd9081a59081b9bdd081d985b1a59603a1b604082015260600190565b60208082526010908201526f1a5b9d985b1a59081c195c9a5bd9125960821b604082015260600190565b6020808252600b908201526a696e76616c696420534c4160a81b604082015260600190565b60208082526012908201527114195c9a5bd9081a185cc81cdd185c9d195960721b604082015260600190565b60208082526014908201527336b9b39739b2b73232b9103737ba1037bbb732b960611b604082015260600190565b6020808252601890820152771b595cdcd95b99d95c881b9bdd081c9959da5cdd195c995960421b604082015260600190565b6020808252602b908201527f53686f756c64206f6e6c7920776974686472617720666f722066696e6973686560408201526a6420636f6e74726163747360a81b606082015260800190565b602080825260129082015271696e76616c696420534c412073746174757360701b604082015260600190565b6020808252601190820152701a5b9d985b1a59081c195c9a5bd9081259607a1b604082015260600190565b602080825260119082015270189c995858da19590818dbdb9d1c9858dd607a1b604082015260600190565b90815260200190565b9384526001600160a01b039283166020850152901515604084015216606082015260800190565b8381526060810162001e368462001e7c565b60208201939093526001600160a01b0391909116604090910152919050565b6040518181016001600160401b038111828210171562001e7457600080fd5b604052919050565b6006811062001e8757fe5b50565b6001600160a01b038116811462001e8757600080fd5b801515811462001e8757600080fd5b6006811062001e8757600080fd5b6001600160801b038116811462001e8757600080fdfe610240604052600d805460ff191690553480156200001c57600080fd5b506040516200406c3803806200406c8339810160408190526200003f9162000956565b33888a86846000620000596001600160e01b036200057a16565b600080546001600160a01b0319166001600160a01b0383169081178255604051929350916000805160206200404c833981519152908290a350846001600160a01b031663683048356040518163ffffffff1660e01b815260040160206040518083038186803b158015620000cc57600080fd5b505afa158015620000e1573d6000803e3d6000fd5b505050506040513d601f19601f8201168201806040525081019062000107919062000930565b600160006101000a8154816001600160a01b0302191690836001600160a01b03160217905550846001600160a01b0316639fc4caa56040518163ffffffff1660e01b815260040160206040518083038186803b1580156200016757600080fd5b505afa1580156200017c573d6000803e3d6000fd5b505050506040513d601f19601f82011682018060405250810190620001a2919062000930565b60601b6001600160601b031916608052836005811115620001bf57fe5b610100816005811115620001cf57fe5b60f890811b909152841515901b610120525060015460408051637b8041cf60e11b8152905160009283926001600160a01b039091169163f700839e9160048082019261010092909190829003018186803b1580156200022d57600080fd5b505afa15801562000242573d6000803e3d6000fd5b505050506040513d601f19601f8201168201806040525081019062000268919062000a5d565b97505050505050509150600160009054906101000a90046001600160a01b03166001600160a01b0316638b8e53096040518163ffffffff1660e01b815260040160206040518083038186803b158015620002c157600080fd5b505afa158015620002d6573d6000803e3d6000fd5b505050506040513d601f19601f82011682018060405250810190620002fc919062000930565b60601b6001600160601b03191660c05260e08290526200031c336200057f565b6001600160801b0319608085901b1660a0526001600160401b03808216908416118015906200035557506001836001600160401b031610155b6200037d5760405162461bcd60e51b8152600401620003749062000b43565b60405180910390fd5b505060c01b6001600160c01b0319166101405250620003a192508c91505062000622565b8251620003b690600a906020860190620006d8565b506001600160601b0319606088901b1661016052600b80546001600160a01b03191633179081905560408051639fc4caa560e01b815290516001600160a01b039290921691639fc4caa591600480820192602092909190829003018186803b1580156200042257600080fd5b505afa15801562000437573d6000803e3d6000fd5b505050506040513d601f19601f820116820180604052508101906200045d919062000930565b60601b6001600160601b03191661018052600b5460408051635a7d1e5d60e01b815290516001600160a01b0390921691635a7d1e5d91600480820192602092909190829003018186803b158015620004b457600080fd5b505afa158015620004c9573d6000803e3d6000fd5b505050506040513d601f19601f82011682018060405250810190620004ef919062000930565b60601b6001600160601b0319166101a052436101c052608086811b6001600160801b03199081166101e0529086901b16610200528760058111156200053057fe5b6102208160058111156200054057fe5b60f81b90525081516200055b90600c9060208501906200075d565b5050506001600160801b03909316600e555062000be495505050505050565b335b90565b620005926001600160e01b036200057a16565b6000546001600160a01b03908116911614620005c25760405162461bcd60e51b8152600401620003749062000b6f565b6001600160a01b03811660009081526009602052604090205460ff1615620005fe5760405162461bcd60e51b8152600401620003749062000ac6565b6001600160a01b03166000908152600960205260409020805460ff19166001179055565b620006356001600160e01b036200057a16565b6000546001600160a01b03908116911614620006655760405162461bcd60e51b8152600401620003749062000b6f565b6001600160a01b0381166200068e5760405162461bcd60e51b8152600401620003749062000afd565b600080546040516001600160a01b03808516939216916000805160206200404c83398151915291a3600080546001600160a01b0319166001600160a01b0392909216919091179055565b828054600181600116156101000203166002900490600052602060002090601f016020900481019282601f106200071b57805160ff19168380011785556200074b565b828001600101855582156200074b579182015b828111156200074b5782518255916020019190600101906200072e565b50620007599291506200079a565b5090565b8280548282559060005260206000209081019282156200074b57916020028201828111156200074b5782518255916020019190600101906200072e565b6200057c91905b80821115620007595760008155600101620007a1565b8051620007c48162000bcb565b92915050565b600082601f830112620007db578081fd5b81516001600160401b03811115620007f1578182fd5b60208082026200080382820162000ba4565b838152935081840185830182870184018810156200082057600080fd5b600092505b848310156200084557805182526001929092019190830190830162000825565b505050505092915050565b80518015158114620007c457600080fd5b805160068110620007c457600080fd5b600082601f83011262000882578081fd5b81516001600160401b0381111562000898578182fd5b6020620008ae601f8301601f1916820162000ba4565b92508183528481838601011115620008c557600080fd5b60005b82811015620008e5578481018201518482018301528101620008c8565b82811115620008f75760008284860101525b50505092915050565b80516001600160801b0381168114620007c457600080fd5b80516001600160401b0381168114620007c457600080fd5b60006020828403121562000942578081fd5b81516200094f8162000bcb565b9392505050565b6000806000806000806000806000806101408b8d03121562000976578586fd5b620009828c8c620007b7565b9950620009938c60208d0162000850565b9850620009a48c60408d0162000861565b9750620009b58c60608d01620007b7565b9650620009c68c60808d0162000900565b9550620009d78c60a08d0162000900565b9450620009e88c60c08d0162000900565b60e08c01519094506001600160401b038082111562000a05578485fd5b62000a138e838f0162000871565b94506101008d015191508082111562000a2a578384fd5b5062000a398d828e01620007ca565b92505062000a4c8c6101208d0162000918565b90509295989b9194979a5092959850565b600080600080600080600080610100898b03121562000a7a578384fd5b885197506020890151965060408901519550606089015194506080890151935060a0890151925060c0890151915062000ab78a60e08b0162000918565b90509295985092959890939650565b60208082526018908201527f5573657220616c72656164792077686974656c69737465640000000000000000604082015260600190565b60208082526026908201527f4f776e61626c653a206e6577206f776e657220697320746865207a65726f206160408201526564647265737360d01b606082015260800190565b602080825260129082015271496e636f7272656374206c6576657261676560701b604082015260600190565b6020808252818101527f4f776e61626c653a2063616c6c6572206973206e6f7420746865206f776e6572604082015260600190565b6040518181016001600160401b038111828210171562000bc357600080fd5b604052919050565b6001600160a01b038116811462000be157600080fd5b50565b60805160601c60a05160801c60c05160601c60e0516101005160f81c6101205160f81c6101405160c01c6101605160601c6101805160601c6101a05160601c6101c0516101e05160801c6102005160801c6102205160f81c61336962000ce360003980610cf152806111ed5250806105705280610ca9528061120e52806112bc52806118275250806105375280610be652806117bc5280611806525080610bc252508061163152806116d05250806111be52508061132b5280611584525080610c855280611b7952806122765280612625525080610b9e5280611ab052505080610f395250806119bf52508061092e52806118e55250506133696000f3fe608060405234801561001057600080fd5b506004361061025e5760003560e01c806378025ec411610146578063c26ff615116100c3578063db69a46211610087578063db69a462146104e2578063f2db10fe146104ea578063f2fde38b146104f2578063f7e9dfff14610505578063f9902bb11461050d578063fd5e6dd1146105205761025e565b8063c26ff61514610481578063c623674f14610494578063c8b5c248146104a9578063cbe230c3146104bc578063d7a5c422146104cf5761025e565b80639fabeb001161010a5780639fabeb001461044e578063a224ee9c14610456578063a7e8d8d41461045e578063b1659bad14610471578063b7bc347e146104795761025e565b806378025ec4146104105780637fd788aa146104235780638da5cb5b1461042b57806396f76f11146104335780639b19251a1461043b5761025e565b806346e0fbae116101df5780635c1c20de116101a35780635c1c20de146103b45780635e5f2e26146103bc578063639b6fc3146103cf578063715018a6146103e2578063740882ac146103ea578063747b8050146103fd5761025e565b806346e0fbae14610338578063484fbf2b1461034d5780634e0c91f6146103605780634fb2647e1461038057806357ac94f0146103935761025e565b80632526743a116102265780632526743a146102d157806326db18ac146102e65780632c86d98e146102f95780633385d3341461030e5780634190edde146103165761025e565b8063021eef7f146102635780630bea440d1461028c578063171e44ea146102a157806318e45427146102b45780631bf30929146102bc575b600080fd5b610276610271366004612aad565b610533565b6040516102839190612d3c565b60405180910390f35b61029f61029a366004612add565b6105b0565b005b61029f6102af366004612925565b610714565b610276610b9c565b6102c4610bc0565b6040516102839190612d47565b6102d9610be4565b604051610283919061325f565b61029f6102f4366004612add565b610c08565b610301610c83565b60405161028391906132d4565b6102d9610ca7565b610329610324366004612aad565b610ccb565b60405161028393929190613298565b610340610cef565b6040516102839190612d50565b6102c461035b366004612925565b610d13565b61037361036e366004612925565b610d25565b6040516102839190612ceb565b61037361038e366004612925565b610d40565b6103a66103a136600461295d565b610d5b565b604051610283929190612cff565b6102c4610f37565b6103736103ca366004612aad565b610f5b565b6102c46103dd366004612925565b610f82565b61029f610f94565b61029f6103f8366004612988565b611013565b61029f61040b366004612925565b6110f1565b6102c461041e366004612aad565b611183565b6102766111a1565b6103736111aa565b6102766111b9565b610276610449366004612925565b61130e565b6102c4611323565b610373611329565b61027661046c366004612925565b61134d565b6102c4611362565b6102c4611368565b61029f61048f366004612988565b61136e565b61049c611452565b6040516102839190612d88565b61029f6104b7366004612add565b6114e0565b6102766104ca366004612925565b61151e565b61029f6104dd366004612b33565b611579565b6103736118d4565b6102d96118e3565b61029f610500366004612925565b611907565b6103736119bd565b61029f61051b366004612925565b6119e1565b61037361052e366004612aad565b611a74565b60007f00000000000000000000000000000000000000000000000000000000000000006001600160801b031682101561056e575060006105ab565b7f00000000000000000000000000000000000000000000000000000000000000006001600160801b03168211156105a7575060006105ab565b5060015b919050565b81600081116105da5760405162461bcd60e51b81526004016105d1906131bb565b60405180910390fd5b60006105e46111b9565b905080156106045760405162461bcd60e51b81526004016105d190613034565b61060e8484611a81565b600b5460408051636830483560e01b815290516000926001600160a01b0316916368304835916004808301926020929190829003018186803b15801561065357600080fd5b505afa158015610667573d6000803e3d6000fd5b505050506040513d601f19601f8201168201806040525081019061068b9190612941565b604051635948284760e11b81529091506001600160a01b0382169063b290508e906106ba903390600401612ceb565b602060405180830381600087803b1580156106d457600080fd5b505af11580156106e8573d6000803e3d6000fd5b505050506040513d601f19601f8201168201806040525081019061070c91906129f3565b505050505050565b61071c611fe3565b6000546001600160a01b039081169116146107495760405162461bcd60e51b81526004016105d1906130eb565b60015460408051637b8041cf60e11b815290516000926001600160a01b03169163f700839e91600480830192610100929190829003018186803b15801561078f57600080fd5b505afa1580156107a3573d6000803e3d6000fd5b505050506040513d601f19601f820116820180604052508101906107c79190612b77565b5096505050505050506107d98261151e565b156107f65760405162461bcd60e51b81526004016105d190613157565b60015460405163cbe230c360e01b81526001600160a01b039091169063cbe230c390610826908590600401612ceb565b60206040518083038186803b15801561083e57600080fd5b505afa158015610852573d6000803e3d6000fd5b505050506040513d601f19601f8201168201806040525081019061087691906129f3565b6108925760405162461bcd60e51b81526004016105d190612f1e565b6008805460018101825560008290527ff3f7a9fe364faab93b216da50a3214154f22a0a2b415b23a84c8169e8b636ee30180546001600160a01b0319166001600160a01b038516179055548110156108fc5760405162461bcd60e51b81526004016105d190612dc9565b60405163fc966d4560e01b815260609073__StringUtils___________________________9063fc966d4590610956907f00000000000000000000000000000000000000000000000000000000000000009060040161325f565b60006040518083038186803b15801561096e57600080fd5b505af4158015610982573d6000803e3d6000fd5b505050506040513d6000823e601f3d908101601f191682016040526109aa9190810190612a13565b90506060816040516020016109bf9190612c33565b60405160208183030381529060405290506060826040516020016109e39190612c66565b6040516020818303038152906040529050606083604051602001610a079190612c96565b6040516020818303038152906040529050606084604051602001610a2b9190612cc8565b60408051601f1981840301815290829052600154633350214760e11b83529092506000916001600160a01b03909116906366a0428e90610a719088908890600401612d9b565b602060405180830381600087803b158015610a8b57600080fd5b505af1158015610a9f573d6000803e3d6000fd5b505050506040513d601f19601f82011682018060405250810190610ac39190612941565b600154604051633350214760e11b81529192506000916001600160a01b03909116906366a0428e90610afb9087908790600401612d9b565b602060405180830381600087803b158015610b1557600080fd5b505af1158015610b29573d6000803e3d6000fd5b505050506040513d601f19601f82011682018060405250810190610b4d9190612941565b6001600160a01b03998a1660009081526005602090815260408083208054948e166001600160a01b031995861617905560049091529020805493909a1692169190911790975550505050505050565b7f000000000000000000000000000000000000000000000000000000000000000081565b7f000000000000000000000000000000000000000000000000000000000000000081565b7f000000000000000000000000000000000000000000000000000000000000000081565b8160008111610c295760405162461bcd60e51b81526004016105d1906131bb565b610c316111aa565b6001600160a01b0316336001600160a01b031614610c74576000610c536111b9565b905080610c725760405162461bcd60e51b81526004016105d190613120565b505b610c7e8383611fe7565b505050565b7f000000000000000000000000000000000000000000000000000000000000000081565b7f000000000000000000000000000000000000000000000000000000000000000081565b600f6020526000908152604090208054600182015460029092015490919060ff1683565b7f000000000000000000000000000000000000000000000000000000000000000081565b60036020526000908152604090205481565b6004602052600090815260409020546001600160a01b031681565b6005602052600090815260409020546001600160a01b031681565b600080600060088481548110610d6d57fe5b6000918252602090912001546001600160a01b03169050610d8c6111aa565b6001600160a01b0316856001600160a01b03161415610dc8576001600160a01b0381166000908152600260205260409020549092509050610f30565b6001600160a01b0380821660009081526004602081815260408084205481516318160ddd60e01b8152915195169485936318160ddd938382019390929190829003018186803b158015610e1a57600080fd5b505afa158015610e2e573d6000803e3d6000fd5b505050506040513d601f19601f82011682018060405250810190610e529190612ac5565b905080610e68575090925060009150610f309050565b6040516370a0823160e01b81526000906001600160a01b038416906370a0823190610e97908b90600401612ceb565b60206040518083038186803b158015610eaf57600080fd5b505afa158015610ec3573d6000803e3d6000fd5b505050506040513d601f19601f82011682018060405250810190610ee79190612ac5565b6001600160a01b0385166000908152600360205260409020549091508490610f27908490610f1b908563ffffffff61218e16565b9063ffffffff6121d116565b95509550505050505b9250929050565b7f000000000000000000000000000000000000000000000000000000000000000081565b60088181548110610f6857fe5b6000918252602090912001546001600160a01b0316905081565b60026020526000908152604090205481565b610f9c611fe3565b6000546001600160a01b03908116911614610fc95760405162461bcd60e51b81526004016105d1906130eb565b600080546040516001600160a01b03909116907f8be0079c531659141344cd1fd0a4f28419497f9722a3daafe3b4186f6b6457e0908390a3600080546001600160a01b0319169055565b61101b611fe3565b6000546001600160a01b039081169116146110485760405162461bcd60e51b81526004016105d1906130eb565b60005b81811015610c7e576009600084848481811061106357fe5b90506020020160208101906110789190612925565b6001600160a01b0316815260208101919091526040016000205460ff166110e9576001600960008585858181106110ab57fe5b90506020020160208101906110c09190612925565b6001600160a01b031681526020810191909152604001600020805460ff19169115159190911790555b60010161104b565b6110f9611fe3565b6000546001600160a01b039081169116146111265760405162461bcd60e51b81526004016105d1906130eb565b6001600160a01b03811660009081526009602052604090205460ff161561115f5760405162461bcd60e51b81526004016105d190612e1c565b6001600160a01b03166000908152600960205260409020805460ff19166001179055565b600c818154811061119057fe5b600091825260209091200154905081565b600d5460ff1690565b6000546001600160a01b031690565b6000807f00000000000000000000000000000000000000000000000000000000000000006001600160a01b031663ffa612357f00000000000000000000000000000000000000000000000000000000000000007f00000000000000000000000000000000000000000000000000000000000000006040518363ffffffff1660e01b815260040161124a929190612d63565b604080518083038186803b15801561126157600080fd5b505afa158015611275573d6000803e3d6000fd5b505050506040513d601f19601f820116820180604052508101906112999190612b54565b600d5490925060ff161515600114905080611308575080421015801561130857507f00000000000000000000000000000000000000000000000000000000000000006001600160801b03166000908152600f6020526040812060029081015460ff169081111561130557fe5b14155b91505090565b60096020526000908152604090205460ff1681565b60065490565b7f000000000000000000000000000000000000000000000000000000000000000081565b60076020526000908152604090205460ff1681565b600e5481565b60085490565b611376611fe3565b6000546001600160a01b039081169116146113a35760405162461bcd60e51b81526004016105d1906130eb565b60005b81811015610c7e57600960008484848181106113be57fe5b90506020020160208101906113d39190612925565b6001600160a01b0316815260208101919091526040016000205460ff1615156001141561144a5760006009600085858581811061140c57fe5b90506020020160208101906114219190612925565b6001600160a01b031681526020810191909152604001600020805460ff19169115159190911790555b6001016113a6565b600a805460408051602060026001851615610100026000190190941693909304601f810184900484028201840190925281815292918301828280156114d85780601f106114ad576101008083540402835291602001916114d8565b820191906000526020600020905b8154815290600101906020018083116114bb57829003601f168201915b505050505081565b81600081116115015760405162461bcd60e51b81526004016105d1906131bb565b600061150b6111b9565b9050611518848483612213565b50505050565b6000805b60085481101561157057826001600160a01b03166008828154811061154357fe5b6000918252602090912001546001600160a01b031614156115685760019150506105ab565b600101611522565b50600092915050565b336001600160a01b037f000000000000000000000000000000000000000000000000000000000000000016146115c15760405162461bcd60e51b81526004016105d190612f6b565b7fc95987c1992805ee34bdc915e017cceae36ba1c156b9911fa7e691e6435eb46e4283836040516115f4939291906132be565b60405180910390a16001808201600e556000828152600f60205260408082209283018590554283555163a7b72ac560e01b81526001600160a01b037f0000000000000000000000000000000000000000000000000000000000000000169063a7b72ac590611666903090600401612ceb565b604080518083038186803b15801561167d57600080fd5b505afa158015611691573d6000803e3d6000fd5b505050506040513d601f19601f820116820180604052508101906116b59190612b0c565b50604051631993b9df60e01b81529091506001600160a01b037f00000000000000000000000000000000000000000000000000000000000000001690631993b9df906117079087903090600401613273565b60206040518083038186803b15801561171f57600080fd5b505afa158015611733573d6000803e3d6000fd5b505050506040513d601f19601f8201168201806040525081019061175791906129f3565b1561186f576002828101805460ff19166001179055612710906000906117a59061178590610f1b898761244d565b610f1b846117998a8863ffffffff61247216565b9063ffffffff61218e16565b905060006117f360016117e7886001600160801b037f00000000000000000000000000000000000000000000000000000000000000001663ffffffff61247216565b9063ffffffff61244d16565b905060006118596001600160801b0360017f00000000000000000000000000000000000000000000000000000000000000007f0000000000000000000000000000000000000000000000000000000000000000030116610f1b858563ffffffff61218e16565b90506118668782866124b4565b50505050611518565b6002828101805460ff191690911790556118876125d3565b600d805460ff191660011790556040517fbd33f7a3bfa88a467c9df5ae7d2341cf061084c386b20a0d48130f5cbce38a4d906118c6908590879061328a565b60405180910390a150505050565b600b546001600160a01b031681565b7f000000000000000000000000000000000000000000000000000000000000000081565b61190f611fe3565b6000546001600160a01b0390811691161461193c5760405162461bcd60e51b81526004016105d1906130eb565b6001600160a01b0381166119625760405162461bcd60e51b81526004016105d190612e4e565b600080546040516001600160a01b03808516939216917f8be0079c531659141344cd1fd0a4f28419497f9722a3daafe3b4186f6b6457e091a3600080546001600160a01b0319166001600160a01b0392909216919091179055565b7f000000000000000000000000000000000000000000000000000000000000000081565b6119e9611fe3565b6000546001600160a01b03908116911614611a165760405162461bcd60e51b81526004016105d1906130eb565b6001600160a01b03811660009081526009602052604090205460ff161515600114611a535760405162461bcd60e51b81526004016105d1906131e7565b6001600160a01b03166000908152600960205260409020805460ff19169055565b60068181548110610f6857fe5b80611a8b8161151e565b1515600114611aac5760405162461bcd60e51b81526004016105d1906130bd565b60017f000000000000000000000000000000000000000000000000000000000000000015151415611b0b573360009081526009602052604090205460ff161515600114611b0b5760405162461bcd60e51b81526004016105d190613003565b611b266001600160a01b03831633308663ffffffff6126db16565b611b2e6111aa565b6001600160a01b0316336001600160a01b031614611d9d576001600160a01b03821660009081526002602090815260408083205460039092529091205481611ba96001600160401b037f000000000000000000000000000000000000000000000000000000000000000016611799848963ffffffff61244d16565b1115611bc75760405162461bcd60e51b81526004016105d190612fb0565b6001600160a01b0380851660009081526004602081815260408084205481516318160ddd60e01b8152915195169485936318160ddd938382019390929190829003018186803b158015611c1957600080fd5b505afa158015611c2d573d6000803e3d6000fd5b505050506040513d601f19601f82011682018060405250810190611c519190612ac5565b905080611cbd576040516340c10f1960e01b81526001600160a01b038316906340c10f1990611c869033908b90600401612cff565b600060405180830381600087803b158015611ca057600080fd5b505af1158015611cb4573d6000803e3d6000fd5b50505050611d51565b6001600160a01b03861660009081526003602052604081205490611ceb82610f1b8b8663ffffffff61218e16565b6040516340c10f1960e01b81529091506001600160a01b038516906340c10f1990611d1c9033908590600401612cff565b600060405180830381600087803b158015611d3657600080fd5b505af1158015611d4a573d6000803e3d6000fd5b5050505050505b6001600160a01b038616600090815260036020526040902054611d7a908863ffffffff61244d16565b6001600160a01b03871660009081526003602052604090205550611f6b92505050565b6001600160a01b0380831660009081526005602090815260408083205481516318160ddd60e01b8152915194169384926318160ddd9260048082019391829003018186803b158015611dee57600080fd5b505afa158015611e02573d6000803e3d6000fd5b505050506040513d601f19601f82011682018060405250810190611e269190612ac5565b905080611e92576040516340c10f1960e01b81526001600160a01b038316906340c10f1990611e5b9033908990600401612cff565b600060405180830381600087803b158015611e7557600080fd5b505af1158015611e89573d6000803e3d6000fd5b50505050611f26565b6001600160a01b03841660009081526002602052604081205490611ec082610f1b898663ffffffff61218e16565b6040516340c10f1960e01b81529091506001600160a01b038516906340c10f1990611ef19033908590600401612cff565b600060405180830381600087803b158015611f0b57600080fd5b505af1158015611f1f573d6000803e3d6000fd5b5050505050505b6001600160a01b038416600090815260026020526040902054611f4f908663ffffffff61244d16565b6001600160a01b03851660009081526002602052604090205550505b3360009081526007602052604090205460ff16610c7e57336000818152600760205260408120805460ff191660019081179091556006805491820181559091527ff652222313e28459528d920b65115c16c04f3efc82aaedc97be59f3f377c0d3f0180546001600160a01b0319169091179055505050565b3390565b80611ff18161151e565b15156001146120125760405162461bcd60e51b81526004016105d1906130bd565b6001600160a01b0380831660009081526004602081815260408084205481516318160ddd60e01b8152915195169485936318160ddd938382019390929190829003018186803b15801561206457600080fd5b505afa158015612078573d6000803e3d6000fd5b505050506040513d601f19601f8201168201806040525081019061209c9190612ac5565b6001600160a01b0385166000908152600360205260408120549192506120cc82610f1b898663ffffffff61218e16565b60405163079cc67960e41b81529091506001600160a01b038516906379cc6790906120fd9033908590600401612cff565b600060405180830381600087803b15801561211757600080fd5b505af115801561212b573d6000803e3d6000fd5b5050506001600160a01b03871660009081526003602052604090205461215891508863ffffffff61247216565b6001600160a01b03871660008181526003602052604090209190915561218590338963ffffffff61273316565b50505050505050565b60008261219d575060006121cb565b828202828482816121aa57fe5b04146121c85760405162461bcd60e51b81526004016105d19061307c565b90505b92915050565b60006121c883836040518060400160405280601a81526020017f536166654d6174683a206469766973696f6e206279207a65726f000000000000815250612752565b8161221d8161151e565b151560011461223e5760405162461bcd60e51b81526004016105d1906130bd565b6001600160a01b038316600090815260026020908152604080832054600390925290912054836122cf576122a1816001600160401b037f00000000000000000000000000000000000000000000000000000000000000001663ffffffff61218e16565b6122b1838863ffffffff61247216565b10156122cf5760405162461bcd60e51b81526004016105d190612e94565b6001600160a01b0380861660009081526005602090815260408083205481516318160ddd60e01b8152915194169384926318160ddd9260048082019391829003018186803b15801561232057600080fd5b505afa158015612334573d6000803e3d6000fd5b505050506040513d601f19601f820116820180604052508101906123589190612ac5565b6001600160a01b03881660009081526002602052604081205491925061238882610f1b8c8663ffffffff61218e16565b60405163079cc67960e41b81529091506001600160a01b038516906379cc6790906123b99033908590600401612cff565b600060405180830381600087803b1580156123d357600080fd5b505af11580156123e7573d6000803e3d6000fd5b5050506001600160a01b038a1660009081526002602052604090205461241491508b63ffffffff61247216565b6001600160a01b038a1660008181526002602052604090209190915561244190338c63ffffffff61273316565b50505050505050505050565b6000828201838110156121c85760405162461bcd60e51b81526004016105d190612ee7565b60006121c883836040518060400160405280601e81526020017f536166654d6174683a207375627472616374696f6e206f766572666c6f770000815250612789565b60005b600854811015611518576000600882815481106124d057fe5b60009182526020808320909101546001600160a01b0316808352600390915260408220549092509061250c85610f1b848963ffffffff61218e16565b6001600160a01b038416600090815260036020526040902054909150612538908263ffffffff61247216565b6001600160a01b03841660009081526003602090815260408083209390935560029052205461256d908263ffffffff61244d16565b6001600160a01b0384166000818152600260205260409081902092909255905188907f3173c1c4b679e2da86dbb0382bde749a6e16cd31912c5410e17985cd7d2b9052906125c0908a908a9087906132be565b60405180910390a35050506001016124b7565b60005b6008548110156126d8576000600882815481106125ef57fe5b60009182526020808320909101546001600160a01b03168083526003909152604082205490925090612650826001600160401b037f00000000000000000000000000000000000000000000000000000000000000001663ffffffff61218e16565b6001600160a01b03841660009081526002602052604090205490915061267c908263ffffffff61247216565b6001600160a01b0384166000908152600260209081526040808320939093556003905220546126b1908263ffffffff61244d16565b6001600160a01b0390931660009081526003602052604090209290925550506001016125d6565b50565b611518846323b872dd60e01b8585856040516024016126fc93929190612d18565b60408051601f198184030181529190526020810180516001600160e01b03166001600160e01b0319909316929092179091526127b5565b610c7e8363a9059cbb60e01b84846040516024016126fc929190612cff565b600081836127735760405162461bcd60e51b81526004016105d19190612d88565b50600083858161277f57fe5b0495945050505050565b600081848411156127ad5760405162461bcd60e51b81526004016105d19190612d88565b505050900390565b606061280a826040518060400160405280602081526020017f5361666545524332303a206c6f772d6c6576656c2063616c6c206661696c6564815250856001600160a01b03166128449092919063ffffffff16565b805190915015610c7e578080602001905181019061282891906129f3565b610c7e5760405162461bcd60e51b81526004016105d190613215565b6060612853848460008561285b565b949350505050565b60606128668561291f565b6128825760405162461bcd60e51b81526004016105d190613184565b60006060866001600160a01b0316858760405161289f9190612c17565b60006040518083038185875af1925050503d80600081146128dc576040519150601f19603f3d011682016040523d82523d6000602084013e6128e1565b606091505b509150915081156128f55791506128539050565b8051156129055780518082602001fd5b8360405162461bcd60e51b81526004016105d19190612d88565b3b151590565b600060208284031215612936578081fd5b81356121c88161331e565b600060208284031215612952578081fd5b81516121c88161331e565b6000806040838503121561296f578081fd5b823561297a8161331e565b946020939093013593505050565b6000806020838503121561299a578182fd5b82356001600160401b03808211156129b0578384fd5b81850186601f8201126129c1578485fd5b80359250818311156129d1578485fd5b86602080850283010111156129e4578485fd5b60200196919550909350505050565b600060208284031215612a04578081fd5b815180151581146121c8578182fd5b600060208284031215612a24578081fd5b81516001600160401b0380821115612a3a578283fd5b81840185601f820112612a4b578384fd5b8051925081831115612a5b578384fd5b604051601f8401601f191681016020018381118282101715612a7b578586fd5b604052838152818401602001871015612a92578485fd5b612aa38460208301602085016132e8565b9695505050505050565b600060208284031215612abe578081fd5b5035919050565b600060208284031215612ad6578081fd5b5051919050565b60008060408385031215612aef578182fd5b823591506020830135612b018161331e565b809150509250929050565b60008060408385031215612b1e578182fd5b82519150602083015160068110612b01578182fd5b60008060408385031215612b45578182fd5b50508035926020909101359150565b60008060408385031215612b66578182fd5b505080516020909101519092909150565b600080600080600080600080610100898b031215612b93578384fd5b885197506020890151965060408901519550606089015194506080890151935060a0890151925060c0890151915060e08901516001600160401b0381168114612bda578182fd5b809150509295985092959890939650565b60008151808452612c038160208601602086016132e8565b601f01601f19169290920160200192915050565b60008251612c298184602087016132e8565b9190910192915050565b60006a44534c412d53484f52542d60a81b82528251612c5981600b8501602087016132e8565b91909101600b0192915050565b60006744534c412d53502d60c01b82528251612c898160088501602087016132e8565b9190910160080192915050565b60006944534c412d4c4f4e472d60b01b82528251612cbb81600a8501602087016132e8565b91909101600a0192915050565b60006744534c412d4c502d60c01b82528251612c898160088501602087016132e8565b6001600160a01b0391909116815260200190565b6001600160a01b03929092168252602082015260400190565b6001600160a01b039384168152919092166020820152604081019190915260600190565b901515815260200190565b90815260200190565b60208101612d5d83613314565b91905290565b60408101612d7084613314565b9281526001600160801b039190911660209091015290565b6000602082526121c86020830184612beb565b600060408252612dae6040830185612beb565b8281036020840152612dc08185612beb565b95945050505050565b60208082526033908201527f416c6c6f77656420746f6b656e73206c656e67746820677265617465722074686040820152720c2dc40dac2f040e8ded6cadc40d8cadccee8d606b1b606082015260800190565b602080825260189082015277155cd95c88185b1c9958591e481dda1a5d195b1a5cdd195960421b604082015260600190565b60208082526026908201527f4f776e61626c653a206e6577206f776e657220697320746865207a65726f206160408201526564647265737360d01b606082015260800190565b60208082526033908201527f53686f756c64206e6f74207769746864726177206d6f7265207468616e206c6560408201527276657261676564207573657273207374616b6560681b606082015260800190565b6020808252601b908201527f536166654d6174683a206164646974696f6e206f766572666c6f770000000000604082015260600190565b6020808252602d908201527f546f6b656e206e6f7420616c6c6f7765642062792074686520534c415265676960408201526c1cdd1c9e4818dbdb9d1c9858dd609a1b606082015260800190565b60208082526025908201527f4f6e6c79204d657373656e6765722063616e2063616c6c20746869732066756e60408201526431ba34b7b760d91b606082015260800190565b60208082526033908201527f43616e6e6f74207374616b65206d6f7265207468616e206c657665726167656460408201527220534c412070726f7669646572207374616b6560681b606082015260800190565b602080825260179082015276155cd95c881a5cc81b9bdd081dda1a5d195b1a5cdd1959604a1b604082015260600190565b60208082526028908201527f43616e206f6e6c79207374616b65206f6e206e6f742066696e697368656420636040820152676f6e74726163747360c01b606082015260800190565b60208082526021908201527f536166654d6174683a206d756c7469706c69636174696f6e206f766572666c6f6040820152607760f81b606082015260800190565b6020808252601490820152731d1bdad95b881a5cc81b9bdd08185b1b1bddd95960621b604082015260600190565b6020808252818101527f4f776e61626c653a2063616c6c6572206973206e6f7420746865206f776e6572604082015260600190565b6020808252601a908201527f4f6e6c7920666f722066696e697368656420636f6e7472616374000000000000604082015260600190565b602080825260139082015272151bdad95b88185b1c9958591e481859191959606a1b604082015260600190565b6020808252601d908201527f416464726573733a2063616c6c20746f206e6f6e2d636f6e7472616374000000604082015260600190565b6020808252601290820152710616d6f756e742063616e6e6f7420626520360741b604082015260600190565b602080825260149082015273155cd95c881b9bdd081dda1a5d195b1a5cdd195960621b604082015260600190565b6020808252602a908201527f5361666545524332303a204552433230206f7065726174696f6e20646964206e6040820152691bdd081cdd58d8d9595960b21b606082015260800190565b6001600160801b0391909116815260200190565b9182526001600160a01b0316602082015260400190565b918252602082015260400190565b8381526020810183905260608101600383106132b057fe5b826040830152949350505050565b9283526020830191909152604082015260600190565b6001600160401b0391909116815260200190565b60005b838110156133035781810151838201526020016132eb565b838111156115185750506000910152565b600681106126d857fe5b6001600160a01b03811681146126d857600080fdfea264697066735822122053e2c0df464a5f4fe7c4de05fe57f71b63b03ed6e38cb3268161587ac2587a6564736f6c634300060600338be0079c531659141344cd1fd0a4f28419497f9722a3daafe3b4186f6b6457e0a264697066735822122055356c7ded150cb54836a4b6dcdbb97a0bd94813f44388c5207c9b999aa55a1764736f6c63430006060033",
  "immutableReferences": {
    "1990": [
      {
        "length": 32,
        "start": 1064
      },
      {
        "length": 32,
        "start": 5102
      }
    ]
  },
  "source": "// SPDX-License-Identifier: MIT\npragma solidity 0.6.6;\npragma experimental ABIEncoderV2;\n\nimport \"@openzeppelin/contracts/math/SafeMath.sol\";\nimport \"./SLA.sol\";\nimport \"./SLORegistry.sol\";\nimport \"./PeriodRegistry.sol\";\nimport \"./MessengerRegistry.sol\";\nimport \"./StakeRegistry.sol\";\nimport \"./messenger/IMessenger.sol\";\n\n/**\n * @title SLARegistry\n * @dev SLARegistry is a contract for handling creation of service level\n * agreements and keeping track of the created agreements\n */\ncontract SLARegistry {\n    using SafeMath for uint256;\n\n    /// @dev SLO registry\n    SLORegistry public sloRegistry;\n    /// @dev Periods registry\n    PeriodRegistry public periodRegistry;\n    /// @dev Messengers registry\n    MessengerRegistry public messengerRegistry;\n    /// @dev Stake registry\n    StakeRegistry public stakeRegistry;\n    /// @dev stores the addresses of created SLAs\n    SLA[] public SLAs;\n    /// @dev stores the indexes of service level agreements owned by an user\n    mapping(address => uint256[]) private userToSLAIndexes;\n    /// @dev to check if registered SLA\n    mapping(address => bool) private registeredSLAs;\n    // value to lock past periods on SLA deployment\n    bool public immutable checkPastPeriod;\n\n    /**\n     * @dev event for service level agreement creation logging\n     * @param sla 1. The address of the created service level agreement contract\n     * @param owner 2. The address of the owner of the service level agreement\n     */\n    event SLACreated(SLA indexed sla, address indexed owner);\n\n    /**\n     * @dev constructor\n     * @param _sloRegistry 1. SLO Registry\n     * @param _periodRegistry 2. Periods registry\n     * @param _messengerRegistry 3. Messenger registry\n     * @param _stakeRegistry 4. Stake registry\n     * @param _checkPastPeriod 5. -\n     */\n    constructor(\n        SLORegistry _sloRegistry,\n        PeriodRegistry _periodRegistry,\n        MessengerRegistry _messengerRegistry,\n        StakeRegistry _stakeRegistry,\n        bool _checkPastPeriod\n    ) public {\n        sloRegistry = _sloRegistry;\n        sloRegistry.setSLARegistry();\n        periodRegistry = _periodRegistry;\n        stakeRegistry = _stakeRegistry;\n        stakeRegistry.setSLARegistry();\n        messengerRegistry = _messengerRegistry;\n        messengerRegistry.setSLARegistry();\n        checkPastPeriod = _checkPastPeriod;\n    }\n\n    /**\n     * @dev public function for creating canonical service level agreements\n     * @param _sloValue 1. -\n     * @param _sloType 2. -\n     * @param _ipfsHash 3. -\n     * @param _periodType 4. -\n     * @param _initialPeriodId 5. -\n     * @param _finalPeriodId 6. -\n     * @param _messengerAddress 7. -\n     * @param _whitelisted 8. -\n     * @param _extraData 9. -\n     * @param _leverage 10. -\n     */\n    function createSLA(\n        uint256 _sloValue,\n        SLORegistry.SLOType _sloType,\n        bool _whitelisted,\n        address _messengerAddress,\n        PeriodRegistry.PeriodType _periodType,\n        uint128 _initialPeriodId,\n        uint128 _finalPeriodId,\n        string memory _ipfsHash,\n        bytes32[] memory _extraData,\n        uint64 _leverage\n    ) public {\n        bool validPeriod =\n            periodRegistry.isValidPeriod(_periodType, _initialPeriodId);\n        require(validPeriod, \"First period id not valid\");\n        validPeriod = periodRegistry.isValidPeriod(_periodType, _finalPeriodId);\n        require(validPeriod, \"Final period id not valid\");\n        bool initializedPeriod =\n            periodRegistry.isInitializedPeriod(_periodType);\n        require(initializedPeriod, \"Period type not initialized yet\");\n        require(\n            _finalPeriodId >= _initialPeriodId,\n            \"invalid finalPeriodId and initialPeriodId\"\n        );\n\n        if (checkPastPeriod) {\n            bool periodHasStarted =\n                periodRegistry.periodHasStarted(_periodType, _initialPeriodId);\n            require(!periodHasStarted, \"Period has started\");\n        }\n        bool registeredMessenger =\n            messengerRegistry.registeredMessengers(_messengerAddress);\n        require(registeredMessenger == true, \"messenger not registered\");\n\n        SLA sla =\n            new SLA(\n                msg.sender,\n                _whitelisted,\n                _periodType,\n                _messengerAddress,\n                _initialPeriodId,\n                _finalPeriodId,\n                uint128(SLAs.length),\n                _ipfsHash,\n                _extraData,\n                _leverage\n            );\n\n        sloRegistry.registerSLO(_sloValue, _sloType, address(sla));\n        stakeRegistry.lockDSLAValue(\n            msg.sender,\n            address(sla),\n            _finalPeriodId - _initialPeriodId + 1\n        );\n        SLAs.push(sla);\n        registeredSLAs[address(sla)] = true;\n        uint256 index = SLAs.length.sub(1);\n        userToSLAIndexes[msg.sender].push(index);\n        emit SLACreated(sla, msg.sender);\n    }\n\n    /**\n     * @dev Gets SLI information for the specified SLA and SLO\n     * @param _periodId 1. id of the period\n     * @param _sla 2. SLA Address\n     * @param _ownerApproval 3. if approval by owner or msg.sender\n     */\n    function requestSLI(\n        uint256 _periodId,\n        SLA _sla,\n        bool _ownerApproval\n    ) public {\n        require(isRegisteredSLA(address(_sla)), \"invalid SLA\");\n        require(_periodId == _sla.nextVerifiablePeriod(), \"invalid periodId\");\n        (, , SLA.Status status) = _sla.periodSLIs(_periodId);\n        require(status == SLA.Status.NotVerified, \"invalid SLA status\");\n        bool breachedContract = _sla.breachedContract();\n        require(!breachedContract, \"breached contract\");\n        bool slaAllowedPeriodId = _sla.isAllowedPeriod(_periodId);\n        require(slaAllowedPeriodId, \"invalid period Id\");\n        PeriodRegistry.PeriodType slaPeriodType = _sla.periodType();\n        bool periodFinished =\n            periodRegistry.periodIsFinished(slaPeriodType, _periodId);\n        require(periodFinished, \"period not finished\");\n        address slaMessenger = _sla.messengerAddress();\n        IMessenger(slaMessenger).requestSLI(\n            _periodId,\n            address(_sla),\n            _ownerApproval,\n            msg.sender\n        );\n        stakeRegistry.distributeVerificationRewards(\n            address(_sla),\n            msg.sender,\n            _periodId\n        );\n    }\n\n    function returnLockedValue(SLA _sla) public {\n        require(isRegisteredSLA(address(_sla)), \"invalid SLA\");\n        require(msg.sender == _sla.owner(), \"msg.sender not owner\");\n        uint256 lastValidPeriodId = _sla.finalPeriodId();\n        PeriodRegistry.PeriodType periodType = _sla.periodType();\n        (, uint256 endOfLastValidPeriod) =\n            periodRegistry.getPeriodStartAndEnd(periodType, lastValidPeriodId);\n\n        (, , SLA.Status lastPeriodStatus) = _sla.periodSLIs(lastValidPeriodId);\n        require(\n            _sla.breachedContract() ||\n                (block.timestamp >= endOfLastValidPeriod &&\n                    lastPeriodStatus != SLA.Status.NotVerified),\n            \"Should only withdraw for finished contracts\"\n        );\n        stakeRegistry.returnLockedValue(address(_sla));\n    }\n\n    /**\n     * @dev function to declare this SLARegistry contract as SLARegistry of _messengerAddress\n     * @param _messengerAddress 1. address of the messenger\n     */\n\n    function registerMessenger(\n        address _messengerAddress,\n        string memory _specificationUrl\n    ) public {\n        IMessenger(_messengerAddress).setSLARegistry();\n        messengerRegistry.registerMessenger(\n            msg.sender,\n            _messengerAddress,\n            _specificationUrl\n        );\n    }\n\n    /**\n     * @dev public view function that returns the service level agreements that\n     * the given user is the owner of\n     * @param _user Address of the user for which to return the service level\n     * agreements\n     * @return array of SLAs\n     */\n    function userSLAs(address _user) public view returns (SLA[] memory) {\n        uint256 count = userToSLAIndexes[_user].length;\n        SLA[] memory SLAList = new SLA[](count);\n        uint256[] memory userSLAIndexes = userToSLAIndexes[_user];\n\n        for (uint256 i = 0; i < count; i++) {\n            SLAList[i] = (SLAs[userSLAIndexes[i]]);\n        }\n\n        return (SLAList);\n    }\n\n    /**\n     * @dev public view function that returns all the service level agreements\n     * @return SLA[] array of SLAs\n     */\n    function allSLAs() public view returns (SLA[] memory) {\n        return (SLAs);\n    }\n\n    /**\n     * @dev public view function that returns true if _slaAddress was deployed using this SLARegistry\n     * @param _slaAddress address of the SLA to be checked\n     */\n    function isRegisteredSLA(address _slaAddress) public view returns (bool) {\n        return registeredSLAs[_slaAddress];\n    }\n}\n",
  "sourcePath": "/Users/matiasbn/Desktop/stacktical/stacktical-dsla-contracts/contracts/SLARegistry.sol",
  "compiler": {
    "name": "solc",
    "version": "0.6.6+commit.6c089d02.Emscripten.clang"
  },
  "schemaVersion": "3.3.3",
  "updatedAt": "2021-04-12T16:06:12.414Z",
  "networkType": "ethereum",
  "devdoc": {
    "details": "SLARegistry is a contract for handling creation of service level agreements and keeping track of the created agreements",
    "methods": {
      "allSLAs()": {
        "details": "public view function that returns all the service level agreements",
        "returns": {
          "_0": "SLA[] array of SLAs"
        }
      },
      "constructor": {
        "details": "constructor",
        "params": {
          "_checkPastPeriod": "5. -",
          "_messengerRegistry": "3. Messenger registry",
          "_periodRegistry": "2. Periods registry",
          "_sloRegistry": "1. SLO Registry",
          "_stakeRegistry": "4. Stake registry"
        }
      },
      "createSLA(uint256,uint8,bool,address,uint8,uint128,uint128,string,bytes32[],uint64)": {
        "details": "public function for creating canonical service level agreements",
        "params": {
          "_extraData": "9. -",
          "_finalPeriodId": "6. -",
          "_initialPeriodId": "5. -",
          "_ipfsHash": "3. -",
          "_leverage": "10. -",
          "_messengerAddress": "7. -",
          "_periodType": "4. -",
          "_sloType": "2. -",
          "_sloValue": "1. -",
          "_whitelisted": "8. -"
        }
      },
      "isRegisteredSLA(address)": {
        "details": "public view function that returns true if _slaAddress was deployed using this SLARegistry",
        "params": {
          "_slaAddress": "address of the SLA to be checked"
        }
      },
      "registerMessenger(address,string)": {
        "details": "function to declare this SLARegistry contract as SLARegistry of _messengerAddress",
        "params": {
          "_messengerAddress": "1. address of the messenger"
        }
      },
      "requestSLI(uint256,address,bool)": {
        "details": "Gets SLI information for the specified SLA and SLO",
        "params": {
          "_ownerApproval": "3. if approval by owner or msg.sender",
          "_periodId": "1. id of the period",
          "_sla": "2. SLA Address"
        }
      },
      "userSLAs(address)": {
        "details": "public view function that returns the service level agreements that the given user is the owner of",
        "params": {
          "_user": "Address of the user for which to return the service level agreements"
        },
        "returns": {
          "_0": "array of SLAs"
        }
      }
    },
    "title": "SLARegistry"
  },
  "userdoc": {
    "methods": {}
  }
}