{
  "contractName": "SLARegistry",
  "abi": [
    {
      "inputs": [
        {
          "internalType": "contract IMessenger",
          "name": "_messengerAddress",
          "type": "address"
        }
      ],
      "stateMutability": "nonpayable",
      "type": "constructor"
    },
    {
      "anonymous": false,
      "inputs": [
        {
          "indexed": true,
          "internalType": "contract SLA",
          "name": "sla",
          "type": "address"
        },
        {
          "indexed": true,
          "internalType": "address",
          "name": "owner",
          "type": "address"
        }
      ],
      "name": "SLACreated",
      "type": "event"
    },
    {
      "inputs": [
        {
          "internalType": "uint256",
          "name": "",
          "type": "uint256"
        }
      ],
      "name": "SLAs",
      "outputs": [
        {
          "internalType": "contract SLA",
          "name": "",
          "type": "address"
        }
      ],
      "stateMutability": "view",
      "type": "function"
    },
    {
      "inputs": [],
      "name": "messenger",
      "outputs": [
        {
          "internalType": "contract IMessenger",
          "name": "",
          "type": "address"
        }
      ],
      "stateMutability": "view",
      "type": "function"
    },
    {
      "inputs": [
        {
          "internalType": "address",
          "name": "_owner",
          "type": "address"
        },
        {
          "internalType": "bytes32[]",
          "name": "_SLONames",
          "type": "bytes32[]"
        },
        {
          "internalType": "contract SLO[]",
          "name": "_SLOs",
          "type": "address[]"
        },
        {
          "internalType": "uint256",
          "name": "_stake",
          "type": "uint256"
        },
        {
          "internalType": "string",
          "name": "_ipfsHash",
          "type": "string"
        },
        {
          "internalType": "uint256",
          "name": "_sliInterval",
          "type": "uint256"
        },
        {
          "internalType": "contract bDSLAToken",
          "name": "_tokenAddress",
          "type": "address"
        },
        {
          "internalType": "uint256[]",
          "name": "_sla_period_starts",
          "type": "uint256[]"
        },
        {
          "internalType": "uint256[]",
          "name": "_sla_period_ends",
          "type": "uint256[]"
        }
      ],
      "name": "createSLA",
      "outputs": [],
      "stateMutability": "nonpayable",
      "type": "function"
    },
    {
      "inputs": [
        {
          "internalType": "uint256",
          "name": "_periodId",
          "type": "uint256"
        },
        {
          "internalType": "contract SLA",
          "name": "_sla",
          "type": "address"
        },
        {
          "internalType": "bytes32",
          "name": "_sloName",
          "type": "bytes32"
        }
      ],
      "name": "requestSLI",
      "outputs": [],
      "stateMutability": "nonpayable",
      "type": "function"
    },
    {
      "inputs": [
        {
          "internalType": "address",
          "name": "_user",
          "type": "address"
        }
      ],
      "name": "userSLAs",
      "outputs": [
        {
          "internalType": "contract SLA[]",
          "name": "",
          "type": "address[]"
        }
      ],
      "stateMutability": "view",
      "type": "function"
    },
    {
      "inputs": [
        {
          "internalType": "address",
          "name": "_user",
          "type": "address"
        }
      ],
      "name": "userSLACount",
      "outputs": [
        {
          "internalType": "uint256",
          "name": "",
          "type": "uint256"
        }
      ],
      "stateMutability": "view",
      "type": "function"
    },
    {
      "inputs": [],
      "name": "allSLAs",
      "outputs": [
        {
          "internalType": "contract SLA[]",
          "name": "",
          "type": "address[]"
        }
      ],
      "stateMutability": "view",
      "type": "function"
    },
    {
      "inputs": [],
      "name": "SLACount",
      "outputs": [
        {
          "internalType": "uint256",
          "name": "",
          "type": "uint256"
        }
      ],
      "stateMutability": "view",
      "type": "function"
    }
  ],
  "bytecode": "0x608060405234801561001057600080fd5b506040516139803803806139808339818101604052602081101561003357600080fd5b5051600080546001600160a01b0319166001600160a01b03808416919091178083556040805163f388158960e01b81529051919092169263f3881589926004808201939182900301818387803b15801561008c57600080fd5b505af11580156100a0573d6000803e3d6000fd5b50505050506138cc806100b46000396000f3fe60806040523480156200001157600080fd5b5060043610620000825760003560e01c80633cb747bf146200008757806345e3e32714620000ad57806350c5abfe146200039b578063516c285714620003bb578063558450be1462000436578063816ff986146200046b57806396bddc101462000487578063e9b1e98c1462000491575b600080fd5b62000091620004ba565b604080516001600160a01b039092168252519081900360200190f35b620003996004803603610120811015620000c657600080fd5b6001600160a01b038235169190810190604081016020820135600160201b811115620000f157600080fd5b8201836020820111156200010457600080fd5b803590602001918460208302840111600160201b831117156200012657600080fd5b9190808060200260200160405190810160405280939291908181526020018383602002808284376000920191909152509295949360208101935035915050600160201b8111156200017657600080fd5b8201836020820111156200018957600080fd5b803590602001918460208302840111600160201b83111715620001ab57600080fd5b91908080602002602001604051908101604052809392919081815260200183836020028082843760009201919091525092958435959094909350604081019250602001359050600160201b8111156200020357600080fd5b8201836020820111156200021657600080fd5b803590602001918460018302840111600160201b831117156200023857600080fd5b91908080601f01602080910402602001604051908101604052809392919081815260200183838082843760009201919091525092958435956001600160a01b0360208701351695919450925060608101915060400135600160201b811115620002a057600080fd5b820183602082011115620002b357600080fd5b803590602001918460208302840111600160201b83111715620002d557600080fd5b9190808060200260200160405190810160405280939291908181526020018383602002808284376000920191909152509295949360208101935035915050600160201b8111156200032557600080fd5b8201836020820111156200033857600080fd5b803590602001918460208302840111600160201b831117156200035a57600080fd5b919080806020026020016040519081016040528093929190818152602001838360200280828437600092019190915250929550620004c9945050505050565b005b6200009160048036036020811015620003b357600080fd5b50356200077b565b620003e460048036036020811015620003d357600080fd5b50356001600160a01b0316620007a3565b60408051602080825283518183015283519192839290830191858101910280838360005b838110156200042257818101518382015260200162000408565b505050509050019250505060405180910390f35b62000399600480360360608110156200044e57600080fd5b508035906001600160a01b036020820135169060400135620008eb565b6200047562000963565b60408051918252519081900360200190f35b620003e462000969565b6200047560048036036020811015620004a957600080fd5b50356001600160a01b0316620009cd565b6000546001600160a01b031681565b6000898989898989898989604051620004e29062000ace565b808a6001600160a01b03168152602001806020018060200189815260200180602001888152602001876001600160a01b03168152602001806020018060200186810386528e818151815260200191508051906020019060200280838360005b838110156200055b57818101518382015260200162000541565b5050505090500186810385528d818151815260200191508051906020019060200280838360005b838110156200059c57818101518382015260200162000582565b5050505090500186810384528b818151815260200191508051906020019080838360005b83811015620005da578181015183820152602001620005c0565b50505050905090810190601f168015620006085780820380516001836020036101000a031916815260200191505b508681038352885181528851602091820191808b01910280838360005b838110156200063f57818101518382015260200162000625565b50505050905001868103825287818151815260200191508051906020019060200280838360005b838110156200068057818101518382015260200162000666565b505050509050019e505050505050505050505050505050604051809103906000f080158015620006b4573d6000803e3d6000fd5b5060018054808201825560008281527fb10e2d527612073b26eecdfd717e6a320cf44b4afac2b0732d9fcbe2b7fa0cf690910180546001600160a01b0319166001600160a01b0385161790558154929350916200071191620009e8565b3360009081526002602090815260408083208054600181018255908452918320909101839055519192506001600160a01b038d811692908516917fb52f284a6c14f1a66ab5513b5b539066933e58e69e6432666f0e3c8c8a7d750391a35050505050505050505050565b600181815481106200078957fe5b6000918252602090912001546001600160a01b0316905081565b60606000620007b283620009cd565b905060608167ffffffffffffffff81118015620007ce57600080fd5b50604051908082528060200260200182016040528015620007f9578160200160208202803683370190505b506001600160a01b038516600090815260026020908152604091829020805483518184028101840190945280845293945060609390918301828280156200086057602002820191906000526020600020905b8154815260200190600101908083116200084b575b5050505050905060005b83811015620008e15760018282815181106200088257fe5b6020026020010151815481106200089557fe5b9060005260206000200160009054906101000a90046001600160a01b0316838281518110620008c057fe5b6001600160a01b03909216602092830291909101909101526001016200086a565b5090949350505050565b6000805460408051632ac2285f60e11b8152600481018790526001600160a01b038681166024830152604482018690529151919092169263558450be926064808201939182900301818387803b1580156200094557600080fd5b505af11580156200095a573d6000803e3d6000fd5b50505050505050565b60015490565b60606001805480602002602001604051908101604052809291908181526020018280548015620009c357602002820191906000526020600020905b81546001600160a01b03168152600190910190602001808311620009a4575b5050505050905090565b6001600160a01b031660009081526002602052604090205490565b600062000a2c83836040518060400160405280601e81526020017f536166654d6174683a207375627472616374696f6e206f766572666c6f77000081525062000a33565b9392505050565b6000818484111562000ac65760405162461bcd60e51b81526004018080602001828103825283818151815260200191508051906020019080838360005b8381101562000a8a57818101518382015260200162000a70565b50505050905090810190601f16801562000ab85780820380516001836020036101000a031916815260200191505b509250505060405180910390fd5b505050900390565b612dba8062000add8339019056fe60806040523480156200001157600080fd5b5060405162002dba38038062002dba833981016040819052620000349162000755565b8282828b6000620000446200025c565b600080546001600160a01b0319166001600160a01b03831690811782556040519293509160008051602062002d9a833981519152908290a3508151835114620000aa5760405162461bcd60e51b8152600401620000a190620008e7565b60405180910390fd5b600180546001600160a01b038087166001600160a01b03199283161780845560048054948501815560009081527f8a35acfbc15ff81a39ae7d344fd709f28e8600b4aa8c65c6b64bfe7fe36bd19b9094018054841691831691909117905560028054918516919092161790555b835181101562000164576200015b8482815181106200013257fe5b60200260200101518483815181106200014757fe5b60200260200101516200026060201b60201c565b60010162000117565b505050505060058751106200017857600080fd5b86518851146200018757600080fd5b60005b8751811015620001fb57878181518110620001a157fe5b6020026020010151600c60008b8481518110620001ba57fe5b602090810291909101810151825281019190915260400160002080546001600160a01b0319166001600160a01b03929092169190911790556001016200018a565b506200020789620003b0565b87516200021c90600e9060208b0190620004df565b50600886905584516200023790600a9060208801906200052f565b5050600b80546001600160a01b03191633179055505060095550620009f89350505050565b3390565b6200026a620005a1565b82815260208101828152600060808301818152600580546001810182559252835160069092027f036b6384b5eca791c62761152d0c79bb0604c104a5fb6f4eb0703f3154bb3db0810192835592517f036b6384b5eca791c62761152d0c79bb0604c104a5fb6f4eb0703f3154bb3db184015560408401517f036b6384b5eca791c62761152d0c79bb0604c104a5fb6f4eb0703f3154bb3db284015560608401517f036b6384b5eca791c62761152d0c79bb0604c104a5fb6f4eb0703f3154bb3db3909301805493151560ff199094169390931780845590518493909161ff0019166101008360028111156200035b57fe5b021790555050506200038260016005805490506200045d60201b620018ca1790919060201c565b6040517ff791e873e3b67fe74b29aeede7bcbbdaa59c4b64e542571183cd837aa56f6ac990600090a2505050565b620003ba6200025c565b6000546001600160a01b03908116911614620003ea5760405162461bcd60e51b8152600401620000a19062000930565b6001600160a01b038116620004135760405162461bcd60e51b8152600401620000a190620008a1565b600080546040516001600160a01b038085169392169160008051602062002d9a83398151915291a3600080546001600160a01b0319166001600160a01b0392909216919091179055565b6000620004a783836040518060400160405280601e81526020017f536166654d6174683a207375627472616374696f6e206f766572666c6f770000815250620004b060201b60201c565b90505b92915050565b60008184841115620004d75760405162461bcd60e51b8152600401620000a191906200086c565b505050900390565b8280548282559060005260206000209081019282156200051d579160200282015b828111156200051d57825182559160200191906001019062000500565b506200052b929150620005dd565b5090565b828054600181600116156101000203166002900490600052602060002090601f016020900481019282601f106200057257805160ff19168380011785556200051d565b828001600101855582156200051d57918201828111156200051d57825182559160200191906001019062000500565b6040518060a0016040528060008152602001600081526020016000815260200160001515815260200160006002811115620005d857fe5b905290565b5b808211156200052b5760008155600101620005de565b8051620004aa81620009df565b600082601f83011262000612578081fd5b81516200062962000623826200098c565b62000965565b8181529150602080830190848101818402860182018710156200064b57600080fd5b60005b848110156200066c578151845292820192908201906001016200064e565b505050505092915050565b600082601f83011262000688578081fd5b81516200069962000623826200098c565b818152915060208083019084810181840286018201871015620006bb57600080fd5b60005b848110156200066c578151620006d481620009df565b84529282019290820190600101620006be565b600082601f830112620006f8578081fd5b81516001600160401b038111156200070e578182fd5b62000723601f8201601f191660200162000965565b91508082528360208285010111156200073b57600080fd5b6200074e816020840160208601620009ac565b5092915050565b60008060008060008060008060006101208a8c03121562000774578485fd5b620007808b8b620005f4565b60208b01519099506001600160401b03808211156200079d578687fd5b620007ab8d838e0162000601565b995060408c0151915080821115620007c1578687fd5b620007cf8d838e0162000677565b985060608c0151975060808c0151915080821115620007ec578687fd5b620007fa8d838e01620006e7565b965060a08c01519550620008128d60c08e01620005f4565b945060e08c015191508082111562000828578384fd5b620008368d838e0162000601565b93506101008c01519150808211156200084d578283fd5b506200085c8c828d0162000601565b9150509295985092959850929598565b60006020825282518060208401526200088d816040850160208701620009ac565b601f01601f19169190910160400192915050565b60208082526026908201527f4f776e61626c653a206e6577206f776e657220697320746865207a65726f206160408201526564647265737360d01b606082015260800190565b60208082526029908201527f506c6561736520636865636b2074686520706172616d73206f6620796f757220604082015268706572696f6473202160b81b606082015260800190565b6020808252818101527f4f776e61626c653a2063616c6c6572206973206e6f7420746865206f776e6572604082015260600190565b6040518181016001600160401b03811182821017156200098457600080fd5b604052919050565b60006001600160401b03821115620009a2578081fd5b5060209081020190565b60005b83811015620009c9578181015183820152602001620009af565b83811115620009d9576000848401525b50505050565b6001600160a01b0381168114620009f557600080fd5b50565b6123928062000a086000396000f3fe608060405234801561001057600080fd5b506004361061018f5760003560e01c806394199c61116100e4578063e7ab816a11610092578063e7ab816a1461030e578063ea4a110414610316578063f10bd7721461033a578063f2fde38b1461034d578063f3fef3a314610360578063fbbf93a014610373578063fc875ece1461038c578063fd5e6dd1146103ad5761018f565b806394199c6114610283578063a2e80c5e146102a5578063ae169a50146102ad578063b0227b47146102c0578063b83e0234146102d3578063c623674f146102e6578063cec534d6146102fb5761018f565b80635f4efaba116101415780635f4efaba14610235578063715018a61461023d57806375fdf2a9146102455780637b10399914610258578063817b1cd214610260578063869c3925146102685780638da5cb5b1461027b5761018f565b806302e8b893146101945780630e1fcf34146101bd578063171e44ea146101d25780633a4b66f1146101e55780633a5381b5146101fa57806353e85fd51461020f5780635e5f2e2614610222575b600080fd5b6101a76101a2366004611d62565b6103c0565b6040516101b49190611f61565b60405180910390f35b6101d06101cb366004611d7a565b610451565b005b6101d06101e0366004611cc7565b61049d565b6101ed610524565b6040516101b491906122d4565b61020261052a565b6040516101b49190611e64565b6101d061021d366004611d62565b610539565b610202610230366004611d62565b6107b3565b6102026107da565b6101d06107e9565b6101d0610253366004611d0e565b610868565b610202610b93565b6101ed610ba2565b6101d0610276366004611d9b565b610ba8565b610202610df3565b610296610291366004611d7a565b610e02565b6040516101b4939291906122eb565b6101ed610e41565b6101d06102bb366004611d62565b610e47565b6102026102ce366004611d62565b611021565b6101ed6102e1366004611cc7565b61103c565b6102ee61104e565b6040516101b49190611fba565b6101d0610309366004611de2565b6110dc565b6101ed6112a6565b610329610324366004611d62565b6112ac565b6040516101b4959493929190612301565b6101ed610348366004611ce3565b6112ef565b6101d061035b366004611cc7565b61139d565b6101d061036e366004611ce3565b611453565b61037b6116a3565b6040516101b4959493929190611eb5565b61039f61039a366004611d62565b611873565b6040516101b49291906122dd565b6102026103bb366004611d62565b6118bd565b6060600d6000838152602001908152602001600020805480602002602001604051908101604052809291908181526020016000905b8282101561044557838290600052602060002090600302016040518060600160405290816000820154815260200160018201548152602001600282015481525050815260200190600101906103f5565b5050505090505b919050565b61045961190c565b6000546001600160a01b0390811691161461048f5760405162461bcd60e51b81526004016104869061219d565b60405180910390fd5b6104998282611910565b5050565b6104a561190c565b6000546001600160a01b039081169116146104d25760405162461bcd60e51b81526004016104869061219d565b600480546001810182556000919091527f8a35acfbc15ff81a39ae7d344fd709f28e8600b4aa8c65c6b64bfe7fe36bd19b0180546001600160a01b0319166001600160a01b0392909216919091179055565b60085481565b6002546001600160a01b031681565b806005818154811061054757fe5b906000526020600020906006020160000154421015801561058657506005818154811061057057fe5b9060005260206000209060060201600101544211155b61058f57600080fd5b6002546001600160a01b03163314156105ba5760405162461bcd60e51b8152600401610486906120a0565b6002600583815481106105c957fe5b906000526020600020906006020160030160019054906101000a900460ff1660028111156105f357fe5b146106105760405162461bcd60e51b815260040161048690611ffa565b6005828154811061061d57fe5b60009182526020808320338452600560069093020191909101905260409020541561065a5760405162461bcd60e51b815260040161048690612277565b600061066633846112ef565b90506000610680600a61067a846003611a4b565b90611a85565b60075490915061069090836118ca565b60078190555081600585815481106106a457fe5b600091825260208083203380855260069390930201600501905260409182902092909255600154905163a9059cbb60e01b81526001600160a01b039091169163a9059cbb916106f891908690600401611e9c565b602060405180830381600087803b15801561071257600080fd5b505af1158015610726573d6000803e3d6000fd5b505050506040513d601f19601f8201168201806040525081019061074a9190611d42565b50600154604051630852cd8d60e31b81526001600160a01b03909116906342966c689061077b9084906004016122d4565b600060405180830381600087803b15801561079557600080fd5b505af11580156107a9573d6000803e3d6000fd5b5050505050505050565b600481815481106107c057fe5b6000918252602090912001546001600160a01b0316905081565b6001546001600160a01b031681565b6107f161190c565b6000546001600160a01b0390811691161461081e5760405162461bcd60e51b81526004016104869061219d565b600080546040516001600160a01b03909116907f8be0079c531659141344cd1fd0a4f28419497f9722a3daafe3b4186f6b6457e0908390a3600080546001600160a01b0319169055565b6002546001600160a01b03163314156108935760405162461bcd60e51b8152600401610486906120a0565b6000600582815481106108a257fe5b600091825260208083206001600160a01b038816845260046006909302019190910181526040808320338452909152902054116108f15760405162461bcd60e51b8152600401610486906120cf565b6108fa83611ac7565b6109165760405162461bcd60e51b8152600401610486906121fe565b6040516323b872dd60e01b81526001600160a01b038416906323b872dd9061094690339030908790600401611e78565b602060405180830381600087803b15801561096057600080fd5b505af1158015610974573d6000803e3d6000fd5b505050506040513d601f19601f820116820180604052508101906109989190611d42565b506109e282600583815481106109aa57fe5b600091825260208083206001600160a01b03891684526004600690930201919091018152604080832033845290915290205490611b22565b600582815481106109ef57fe5b600091825260208083206001600160a01b038816845260046006909302019190910181526040808320338452909152902055600754610a2e9083611b22565b600781905550600060058281548110610a4357fe5b600091825260208083206001600160a01b03881684526004600690930201919091018152604080832033845290915281205460035460058054929450610aad9286908110610a8d57fe5b906000526020600020906006020160020154611a8590919063ffffffff16565b9050600060058481548110610abe57fe5b600091825260208083206001600160a01b038a16845260046006909302019190910181526040808320338452909152902055600754610afd90836118ca565b6007556001546001600160a01b031663a9059cbb33610b1c85856118ca565b6040518363ffffffff1660e01b8152600401610b39929190611e9c565b602060405180830381600087803b158015610b5357600080fd5b505af1158015610b67573d6000803e3d6000fd5b505050506040513d601f19601f82011682018060405250810190610b8b9190611d42565b505050505050565b600b546001600160a01b031681565b60075481565b600b60009054906101000a90046001600160a01b03166001600160a01b0316633cb747bf6040518163ffffffff1660e01b815260040160206040518083038186803b158015610bf657600080fd5b505afa158015610c0a573d6000803e3d6000fd5b505050506040513d601f19601f82011682018060405250810190610c2e9190611dc6565b6001600160a01b0316336001600160a01b031614610c4b57600080fd5b6000838152600d6020908152604080832081516060810183524280825281850188815282850188815284546001818101875595895296909720925160039096029092019485559051918401919091559251600290920191909155517fc95987c1992805ee34bdc915e017cceae36ba1c156b9911fa7e691e6435eb46e91610cd591859085906122eb565b60405180910390a16000838152600c60205260409081902054905163868d08f760e01b81526001600160a01b039091169063868d08f790610d1a9085906004016122d4565b60206040518083038186803b158015610d3257600080fd5b505afa158015610d46573d6000803e3d6000fd5b505050506040513d601f19601f82011682018060405250810190610d6a9190611d42565b610db057600260058281548110610d7d57fe5b60009182526020909120600360069092020101805461ff001916610100836002811115610da657fe5b0217905550610dee565b600160058281548110610dbf57fe5b60009182526020909120600360069092020101805461ff001916610100836002811115610de857fe5b02179055505b505050565b6000546001600160a01b031690565b600d6020528160005260406000208181548110610e1b57fe5b600091825260209091206003909102018054600182015460029092015490935090915083565b60035490565b8060058181548110610e5557fe5b9060005260206000209060060201600001544210158015610e94575060058181548110610e7e57fe5b9060005260206000209060060201600101544211155b610e9d57600080fd5b6002546001600160a01b03163314610ec75760405162461bcd60e51b815260040161048690612244565b600160058381548110610ed657fe5b906000526020600020906006020160030160019054906101000a900460ff166002811115610f0057fe5b14610f1d5760405162461bcd60e51b815260040161048690611fcd565b60058281548110610f2a57fe5b600091825260209091206003600690920201015460ff1615610f5e5760405162461bcd60e51b815260040161048690612106565b600554600754600091610f719190611a85565b90506000610f85600a61067a846003611a4b565b600754909150610f9590836118ca565b6007819055508160058581548110610fa957fe5b906000526020600020906006020160020181905550600160058581548110610fcd57fe5b60009182526020909120600690910201600301805460ff191691151591909117905560015460405163a9059cbb60e01b81526001600160a01b039091169063a9059cbb906106f89033908690600401611e9c565b600c602052600090815260409020546001600160a01b031681565b60066020526000908152604090205481565b600a805460408051602060026001851615610100026000190190941693909304601f810184900484028201840190925281815292918301828280156110d45780601f106110a9576101008083540402835291602001916110d4565b820191906000526020600020905b8154815290600101906020018083116110b757829003601f168201915b505050505081565b600083116110fc5760405162461bcd60e51b8152600401610486906121d2565b61110582611ac7565b6111215760405162461bcd60e51b8152600401610486906121fe565b61112c338383611b47565b6040516323b872dd60e01b81526001600160a01b038316906323b872dd9061115c90339030908890600401611e78565b602060405180830381600087803b15801561117657600080fd5b505af115801561118a573d6000803e3d6000fd5b505050506040513d601f19601f820116820180604052508101906111ae9190611d42565b506111f883600583815481106111c057fe5b600091825260208083206001600160a01b03881684526004600690930201919091018152604080832033845290915290205490611b22565b6005828154811061120557fe5b600091825260208083206001600160a01b0387168452600460069093020191909101815260408083203384529091529020556007546112449084611b22565b6007553360009081526006602052604090205460011415610dee57600380546001810182556000919091527fc2575a0e9e593c00f959f8c92f12db2869c3395a3b0502d05e2516446f71f85b0180546001600160a01b03191633179055505050565b60095490565b600581815481106112b957fe5b60009182526020909120600690910201805460018201546002830154600390930154919350919060ff8082169161010090041685565b6001600160a01b0382166000908152600660205260408120548190156113945760005b600454811015611392576113886005858154811061132c57fe5b906000526020600020906006020160040160006004848154811061134c57fe5b60009182526020808320909101546001600160a01b0390811684528382019490945260409283018220938a168252929092529020548390611b22565b9150600101611312565b505b90505b92915050565b6113a561190c565b6000546001600160a01b039081169116146113d25760405162461bcd60e51b81526004016104869061219d565b6001600160a01b0381166113f85760405162461bcd60e51b815260040161048690612023565b600080546040516001600160a01b03808516939216917f8be0079c531659141344cd1fd0a4f28419497f9722a3daafe3b4186f6b6457e091a3600080546001600160a01b0319166001600160a01b0392909216919091179055565b6002546001600160a01b031633141561147e5760405162461bcd60e51b8152600401610486906120a0565b60006005828154811061148d57fe5b600091825260208083206001600160a01b038716845260046006909302019190910181526040808320338452909152902054116114dc5760405162461bcd60e51b8152600401610486906120cf565b6114e582611ac7565b6115015760405162461bcd60e51b8152600401610486906121fe565b60006005828154811061151057fe5b600091825260208083206001600160a01b0387168452600460069093020191909101815260408083203384529091528120546003546005805492945061155a9286908110610a8d57fe5b905060006005848154811061156b57fe5b600091825260208083206001600160a01b0389168452600460069093020191909101815260408083203384529091529020556007546115aa90836118ca565b6007556001600160a01b03841663a9059cbb336115c785856118ca565b6040518363ffffffff1660e01b81526004016115e4929190611e9c565b602060405180830381600087803b1580156115fe57600080fd5b505af1158015611612573d6000803e3d6000fd5b505050506040513d601f19601f820116820180604052508101906116369190611d42565b50336000908152600660205260409020546116529060016118ca565b33600090815260066020526040902081905561169d57600061167333611bd0565b90506003818154811061168257fe5b600091825260209091200180546001600160a01b0319169055505b50505050565b6000606060006060806060600e8054905067ffffffffffffffff811180156116ca57600080fd5b506040519080825280602002602001820160405280156116f4578160200160208202803683370190505b50905060005b600e5481101561176e57600c6000600e838154811061171557fe5b9060005260206000200154815260200190815260200160002060009054906101000a90046001600160a01b031682828151811061174e57fe5b6001600160a01b03909216602092830291909101909101526001016116fa565b50611777610df3565b600854600a805460408051602060026001851615610100026000190190941693909304601f8101849004840282018401909252818152929392600e92879286918301828280156118085780601f106117dd57610100808354040283529160200191611808565b820191906000526020600020905b8154815290600101906020018083116117eb57829003601f168201915b505050505093508180548060200260200160405190810160405280929190818152602001828054801561185a57602002820191906000526020600020905b815481526020019060010190808311611846575b5050505050915095509550955095509550509091929394565b6000806005838154811061188357fe5b906000526020600020906006020160000154600584815481106118a257fe5b90600052602060002090600602016001015491509150915091565b600381815481106107c057fe5b600061139483836040518060400160405280601e81526020017f536166654d6174683a207375627472616374696f6e206f766572666c6f770000815250611c29565b3390565b611918611c8c565b82815260208101828152600060808301818152600580546001810182559252835160069092027f036b6384b5eca791c62761152d0c79bb0604c104a5fb6f4eb0703f3154bb3db0810192835592517f036b6384b5eca791c62761152d0c79bb0604c104a5fb6f4eb0703f3154bb3db184015560408401517f036b6384b5eca791c62761152d0c79bb0604c104a5fb6f4eb0703f3154bb3db284015560608401517f036b6384b5eca791c62761152d0c79bb0604c104a5fb6f4eb0703f3154bb3db3909301805493151560ff199094169390931780845590518493909161ff001916610100836002811115611a0857fe5b021790555050600554611a1d915060016118ca565b6040517ff791e873e3b67fe74b29aeede7bcbbdaa59c4b64e542571183cd837aa56f6ac990600090a2505050565b600082611a5a57506000611397565b82820282848281611a6757fe5b04146113945760405162461bcd60e51b81526004016104869061215c565b600061139483836040518060400160405280601a81526020017f536166654d6174683a206469766973696f6e206279207a65726f000000000000815250611c55565b6000805b600454811015611b1957826001600160a01b031660048281548110611aec57fe5b6000918252602090912001546001600160a01b03161415611b1157600191505061044c565b600101611acb565b50600092915050565b6000828201838110156113945760405162461bcd60e51b815260040161048690612069565b600060058281548110611b5657fe5b600091825260208083206001600160a01b0387811685526006939093020160040181526040808420928816845291905290205411610dee576001600160a01b038316600090815260066020526040902054611bb2906001611b22565b6001600160a01b038416600090815260066020526040902055505050565b6000805b600354811015611c1f57826001600160a01b031660038281548110611bf557fe5b6000918252602090912001546001600160a01b03161415611c1757905061044c565b600101611bd4565b5060001992915050565b60008184841115611c4d5760405162461bcd60e51b81526004016104869190611fba565b505050900390565b60008183611c765760405162461bcd60e51b81526004016104869190611fba565b506000838581611c8257fe5b0495945050505050565b6040518060a0016040528060008152602001600081526020016000815260200160001515815260200160006002811115611cc257fe5b905290565b600060208284031215611cd8578081fd5b813561139481612344565b60008060408385031215611cf5578081fd5b8235611d0081612344565b946020939093013593505050565b600080600060608486031215611d22578081fd5b8335611d2d81612344565b95602085013595506040909401359392505050565b600060208284031215611d53578081fd5b81518015158114611394578182fd5b600060208284031215611d73578081fd5b5035919050565b60008060408385031215611d8c578182fd5b50508035926020909101359150565b600080600060608486031215611daf578283fd5b505081359360208301359350604090920135919050565b600060208284031215611dd7578081fd5b815161139481612344565b600080600060608486031215611df6578283fd5b833592506020840135611e0881612344565b929592945050506040919091013590565b60008151808452815b81811015611e3e57602081850181015186830182015201611e22565b81811115611e4f5782602083870101525b50601f01601f19169290920160200192915050565b6001600160a01b0391909116815260200190565b6001600160a01b039384168152919092166020820152604081019190915260600190565b6001600160a01b03929092168252602082015260400190565b6001600160a01b038616815260a06020808301829052600091611eda90840188611e19565b604084018790528381036060850152855180825282870191830190845b81811015611f1357835183529284019291840191600101611ef7565b505084810360808601528551808252908301915082860190845b81811015611f5157611f3f8351612338565b84529284019291840191600101611f2d565b50919a9950505050505050505050565b602080825282518282018190526000919060409081850190868401855b82811015611fad5781518051855286810151878601528501518585015260609093019290850190600101611f7e565b5091979650505050505050565b6000602082526113946020830184611e19565b602080825260139082015272534c41206e6f7420726573706563746564202160681b604082015260600190565b6020808252600f908201526e534c4120726573706563746564202160881b604082015260600190565b60208082526026908201527f4f776e61626c653a206e6577206f776e657220697320746865207a65726f206160408201526564647265737360d01b606082015260800190565b6020808252601b908201527f536166654d6174683a206164646974696f6e206f766572666c6f770000000000604082015260600190565b602080825260159082015274596f752061726520612076616c696461746f72202160581b604082015260600190565b6020808252601b908201527f7374616b696e672062616c616e63652063616e6e6f7420626520300000000000604082015260600190565b60208082526036908201527f596f75206861766520616c726561647920636c61696d656420796f75722072656040820152757761726420666f72207468697320706572696f64202160501b606082015260800190565b60208082526021908201527f536166654d6174683a206d756c7469706c69636174696f6e206f766572666c6f6040820152607760f81b606082015260800190565b6020808252818101527f4f776e61626c653a2063616c6c6572206973206e6f7420746865206f776e6572604082015260600190565b6020808252601290820152710616d6f756e742063616e6e6f7420626520360741b604082015260600190565b60208082526026908201527f746f6b656e2073686f756c64206265206175746f726973656420746f206265206040820152651cdd185ad95960d21b606082015260800190565b602080825260199082015278596f7520617265206e6f7420612076616c696461746f72202160381b604082015260600190565b6020808252603c908201527f596f75206861766520616c726561647920636c61696d656420796f757220636f60408201527f6d70656e736174696f6e20666f72207468697320706572696f64202100000000606082015260800190565b90815260200190565b918252602082015260400190565b9283526020830191909152604082015260600190565b8581526020810185905260408101849052821515606082015260a081016003831061232857fe5b8260808301529695505050505050565b6001600160a01b031690565b6001600160a01b038116811461235957600080fd5b5056fea26469706673582212205b58ef9518f6984d6de65d7e9bcbf9c039ea268601de6aec62345bb85490be4364736f6c634300060c00338be0079c531659141344cd1fd0a4f28419497f9722a3daafe3b4186f6b6457e0a26469706673582212204ef1b41ed76373458e9d2e077e6e7426168bd6210f63c13e1dc0f0525f21db9564736f6c634300060c0033",
  "immutableReferences": {},
  "source": "// SPDX-License-Identifier: MIT\npragma solidity ^0.6.0;\n\nimport \"@openzeppelin/contracts/math/SafeMath.sol\";\nimport \"@openzeppelin/contracts/token/ERC20/IERC20.sol\";\nimport \"./interfaces/IMessenger.sol\";\nimport \"./SLA/SLA.sol\";\nimport \"./SLO/SLO.sol\";\nimport \"./bDSLA/bDSLAToken.sol\";\n/**\n * @title SLARegistry\n * @dev SLARegistry is a contract for handling creation of service level\n * agreements and keeping track of the created agreements\n */\ncontract SLARegistry {\n\n    using SafeMath for uint256;\n\n    IMessenger public messenger;\n\n    // Array that stores the addresses of created service level agreements\n    SLA[] public SLAs;\n\n    // Mapping that stores the indexes of service level agreements owned by a user\n    mapping(address => uint[]) private userToSLAIndexes;\n\n    /**\n     * @dev event for service level agreement creation logging\n     * @param sla The address of the created service level agreement contract\n     * @param owner The address of the owner of the service level agreement\n     */\n    event SLACreated(SLA indexed sla, address indexed owner);\n\n    /**\n     * @dev constructor\n     * @param _messengerAddress the address of the chainlink messenger contract\n     */\n    constructor(IMessenger _messengerAddress) public {\n        messenger = _messengerAddress;\n\n        messenger.setSLARegistry();\n    }\n\n    /**\n     * @dev public function for creating service level agreements\n     * @param _owner Address of the owner of the service level agreement\n     * @param _SLONames Array of the names of the service level objectives\n     * in bytes32\n     * @param _SLOs Array of service level objective contract addressess\n     * service level objective breach\n     * @param _stake Uint of the amount required to stake when signing the\n     * service level agreement\n     * @param _ipfsHash String with the ipfs hash that contains extra\n     * information about the service level agreement\n     * @param _sliInterval uint the interval in seconds between requesting a new SLI\n     */\n    function createSLA(\n        address _owner,\n        bytes32[] memory _SLONames,\n        SLO[] memory _SLOs,\n        uint _stake,\n        string memory _ipfsHash,\n        uint _sliInterval,\n        bDSLAToken _tokenAddress, \n        uint[] memory _sla_period_starts, \n        uint[] memory _sla_period_ends\n    ) public {\n        SLA sla = new SLA(\n            _owner,\n            _SLONames,\n            _SLOs,\n            _stake,\n            _ipfsHash,\n            _sliInterval, \n            _tokenAddress, \n            _sla_period_starts, \n            _sla_period_ends\n        );\n\n        SLAs.push(sla);\n        \n        uint index = SLAs.length.sub(1);\n\n        userToSLAIndexes[msg.sender].push(index);\n\n        emit SLACreated(sla, _owner);\n    }\n\n    /**\n     * @dev Gets SLI information for the specified SLA and SLO\n     * @param _periodId Oracle Proof\n     * @param _sla SLA Address\n     * @param _sloName SLO Name\n     */\n    function requestSLI(\n        uint256 _periodId,\n        SLA _sla,\n        bytes32 _sloName\n    ) public {\n        messenger.requestSLI(_periodId, _sla, _sloName);\n    }\n\n    /**\n     * @dev public view function that returns the service level agreements that\n     * the given user is the owner of\n     * @param _user Address of the user for which to return the service level\n     * agreements\n     */\n    function userSLAs(address _user) public view returns(SLA[] memory) {\n        uint count = userSLACount(_user);\n        SLA[] memory SLAList = new SLA[](count);\n        uint[] memory userSLAIndexes = userToSLAIndexes[_user];\n\n        for(uint i = 0; i < count; i++) {\n            SLAList[i] = (SLAs[userSLAIndexes[i]]);\n        }\n\n        return(SLAList);\n    }\n\n    /**\n     * @dev public view function that returns the amount of service level\n     * agreements the given user is the owner of\n     * @param _user Address of the user for which to return the amount of\n     * service level agreements\n     */\n    function userSLACount(address _user) public view returns(uint) {\n        return userToSLAIndexes[_user].length;\n    }\n\n    /**\n     * @dev public view function that returns all the service level agreements\n     */\n    function allSLAs() public view returns(SLA[] memory) {\n        return(SLAs);\n    }\n\n    /**\n     * @dev public view function that returns the total amount of service\n     * level agreements\n     */\n    function SLACount() public view returns(uint) {\n        return SLAs.length;\n    }\n}\n",
  "sourcePath": "/Users/matiasbn/Desktop/stacktical-dsla-contracts/contracts/SLARegistry.sol",
  "compiler": {
    "name": "solc",
    "version": "0.6.12+commit.27d51765.Emscripten.clang"
  },
  "schemaVersion": "3.2.5",
  "updatedAt": "2020-11-29T18:21:51.279Z",
  "devdoc": {
    "details": "SLARegistry is a contract for handling creation of service level agreements and keeping track of the created agreements",
    "events": {
      "SLACreated(address,address)": {
        "details": "event for service level agreement creation logging",
        "params": {
          "owner": "The address of the owner of the service level agreement",
          "sla": "The address of the created service level agreement contract"
        }
      }
    },
    "kind": "dev",
    "methods": {
      "SLACount()": {
        "details": "public view function that returns the total amount of service level agreements"
      },
      "allSLAs()": {
        "details": "public view function that returns all the service level agreements"
      },
      "constructor": {
        "details": "constructor",
        "params": {
          "_messengerAddress": "the address of the chainlink messenger contract"
        }
      },
      "createSLA(address,bytes32[],address[],uint256,string,uint256,address,uint256[],uint256[])": {
        "details": "public function for creating service level agreements",
        "params": {
          "_SLONames": "Array of the names of the service level objectives in bytes32",
          "_SLOs": "Array of service level objective contract addressess service level objective breach",
          "_ipfsHash": "String with the ipfs hash that contains extra information about the service level agreement",
          "_owner": "Address of the owner of the service level agreement",
          "_sliInterval": "uint the interval in seconds between requesting a new SLI",
          "_stake": "Uint of the amount required to stake when signing the service level agreement"
        }
      },
      "requestSLI(uint256,address,bytes32)": {
        "details": "Gets SLI information for the specified SLA and SLO",
        "params": {
          "_periodId": "Oracle Proof",
          "_sla": "SLA Address",
          "_sloName": "SLO Name"
        }
      },
      "userSLACount(address)": {
        "details": "public view function that returns the amount of service level agreements the given user is the owner of",
        "params": {
          "_user": "Address of the user for which to return the amount of service level agreements"
        }
      },
      "userSLAs(address)": {
        "details": "public view function that returns the service level agreements that the given user is the owner of",
        "params": {
          "_user": "Address of the user for which to return the service level agreements"
        }
      }
    },
    "title": "SLARegistry",
    "version": 1
  },
  "userdoc": {
    "kind": "user",
    "methods": {},
    "version": 1
  }
}