{
  "contractName": "SLARegistry",
  "abi": [
    {
      "inputs": [
        {
          "internalType": "contract IMessenger",
          "name": "_messengerAddress",
          "type": "address"
        }
      ],
      "stateMutability": "nonpayable",
      "type": "constructor"
    },
    {
      "anonymous": false,
      "inputs": [
        {
          "indexed": true,
          "internalType": "contract SLA",
          "name": "sla",
          "type": "address"
        },
        {
          "indexed": true,
          "internalType": "address",
          "name": "owner",
          "type": "address"
        }
      ],
      "name": "SLACreated",
      "type": "event"
    },
    {
      "inputs": [
        {
          "internalType": "uint256",
          "name": "",
          "type": "uint256"
        }
      ],
      "name": "SLAs",
      "outputs": [
        {
          "internalType": "contract SLA",
          "name": "",
          "type": "address"
        }
      ],
      "stateMutability": "view",
      "type": "function",
      "constant": true
    },
    {
      "inputs": [],
      "name": "messenger",
      "outputs": [
        {
          "internalType": "contract IMessenger",
          "name": "",
          "type": "address"
        }
      ],
      "stateMutability": "view",
      "type": "function",
      "constant": true
    },
    {
      "inputs": [
        {
          "internalType": "address",
          "name": "_owner",
          "type": "address"
        },
        {
          "internalType": "bytes32[]",
          "name": "_SLONames",
          "type": "bytes32[]"
        },
        {
          "internalType": "contract SLO[]",
          "name": "_SLOs",
          "type": "address[]"
        },
        {
          "internalType": "uint256",
          "name": "_stake",
          "type": "uint256"
        },
        {
          "internalType": "string",
          "name": "_ipfsHash",
          "type": "string"
        },
        {
          "internalType": "uint256",
          "name": "_sliInterval",
          "type": "uint256"
        },
        {
          "internalType": "contract bDSLAToken",
          "name": "_tokenAddress",
          "type": "address"
        }
      ],
      "name": "createSLA",
      "outputs": [],
      "stateMutability": "nonpayable",
      "type": "function"
    },
    {
      "inputs": [
        {
          "internalType": "bytes",
          "name": "_data",
          "type": "bytes"
        },
        {
          "internalType": "contract SLA",
          "name": "_sla",
          "type": "address"
        },
        {
          "internalType": "bytes32",
          "name": "_sloName",
          "type": "bytes32"
        }
      ],
      "name": "requestSLI",
      "outputs": [],
      "stateMutability": "nonpayable",
      "type": "function"
    },
    {
      "inputs": [
        {
          "internalType": "address",
          "name": "_user",
          "type": "address"
        }
      ],
      "name": "userSLAs",
      "outputs": [
        {
          "internalType": "contract SLA[]",
          "name": "",
          "type": "address[]"
        }
      ],
      "stateMutability": "view",
      "type": "function",
      "constant": true
    },
    {
      "inputs": [
        {
          "internalType": "address",
          "name": "_user",
          "type": "address"
        }
      ],
      "name": "userSLACount",
      "outputs": [
        {
          "internalType": "uint256",
          "name": "",
          "type": "uint256"
        }
      ],
      "stateMutability": "view",
      "type": "function",
      "constant": true
    },
    {
      "inputs": [],
      "name": "allSLAs",
      "outputs": [
        {
          "internalType": "contract SLA[]",
          "name": "",
          "type": "address[]"
        }
      ],
      "stateMutability": "view",
      "type": "function",
      "constant": true
    },
    {
      "inputs": [],
      "name": "SLACount",
      "outputs": [
        {
          "internalType": "uint256",
          "name": "",
          "type": "uint256"
        }
      ],
      "stateMutability": "view",
      "type": "function",
      "constant": true
    }
  ],
  "bytecode": "0x608060405234801561001057600080fd5b5060405161587e38038061587e8339818101604052602081101561003357600080fd5b8101908080519060200190929190505050806000806101000a81548173ffffffffffffffffffffffffffffffffffffffff021916908373ffffffffffffffffffffffffffffffffffffffff16021790555060008054906101000a900473ffffffffffffffffffffffffffffffffffffffff1673ffffffffffffffffffffffffffffffffffffffff1663f38815896040518163ffffffff1660e01b8152600401600060405180830381600087803b1580156100ec57600080fd5b505af1158015610100573d6000803e3d6000fd5b505050505061576a806101146000396000f3fe60806040523480156200001157600080fd5b5060043610620000945760003560e01c8063516c28571162000063578063516c28571462000458578063816ff98614620004f657806396bddc101462000516578063e9b1e98c14620005795762000094565b806325df174514620000995780632b08068414620001845780633cb747bf14620003c757806350c5abfe14620003fd575b600080fd5b6200018260048036036060811015620000b157600080fd5b8101908080359060200190640100000000811115620000cf57600080fd5b820183602082011115620000e257600080fd5b803590602001918460018302840111640100000000831117156200010557600080fd5b91908080601f016020809104026020016040519081016040528093929190818152602001838380828437600081840152601f19601f820116905080830192505050505050509192919290803573ffffffffffffffffffffffffffffffffffffffff16906020019092919080359060200190929190505050620005d4565b005b620003c5600480360360e08110156200019c57600080fd5b81019080803573ffffffffffffffffffffffffffffffffffffffff16906020019092919080359060200190640100000000811115620001da57600080fd5b820183602082011115620001ed57600080fd5b803590602001918460208302840111640100000000831117156200021057600080fd5b919080806020026020016040519081016040528093929190818152602001838360200280828437600081840152601f19601f820116905080830192505050505050509192919290803590602001906401000000008111156200027157600080fd5b8201836020820111156200028457600080fd5b80359060200191846020830284011164010000000083111715620002a757600080fd5b919080806020026020016040519081016040528093929190818152602001838360200280828437600081840152601f19601f82011690508083019250505050505050919291929080359060200190929190803590602001906401000000008111156200031257600080fd5b8201836020820111156200032557600080fd5b803590602001918460018302840111640100000000831117156200034857600080fd5b91908080601f016020809104026020016040519081016040528093929190818152602001838380828437600081840152601f19601f82011690508083019250505050505050919291929080359060200190929190803573ffffffffffffffffffffffffffffffffffffffff169060200190929190505050620006f4565b005b620003d1620009c5565b604051808273ffffffffffffffffffffffffffffffffffffffff16815260200191505060405180910390f35b6200042c600480360360208110156200041557600080fd5b8101908080359060200190929190505050620009e9565b604051808273ffffffffffffffffffffffffffffffffffffffff16815260200191505060405180910390f35b6200049d600480360360208110156200047057600080fd5b81019080803573ffffffffffffffffffffffffffffffffffffffff16906020019092919050505062000a26565b6040518080602001828103825283818151815260200191508051906020019060200280838360005b83811015620004e2578082015181840152602081019050620004c5565b505050509050019250505060405180910390f35b6200050062000bd2565b6040518082815260200191505060405180910390f35b6200052062000bdf565b6040518080602001828103825283818151815260200191508051906020019060200280838360005b838110156200056557808201518184015260208101905062000548565b505050509050019250505060405180910390f35b620005be600480360360208110156200059157600080fd5b81019080803573ffffffffffffffffffffffffffffffffffffffff16906020019092919050505062000c6f565b6040518082815260200191505060405180910390f35b60008054906101000a900473ffffffffffffffffffffffffffffffffffffffff1673ffffffffffffffffffffffffffffffffffffffff166325df17458484846040518463ffffffff1660e01b815260040180806020018473ffffffffffffffffffffffffffffffffffffffff168152602001838152602001828103825285818151815260200191508051906020019080838360005b838110156200068657808201518184015260208101905062000669565b50505050905090810190601f168015620006b45780820380516001836020036101000a031916815260200191505b50945050505050600060405180830381600087803b158015620006d657600080fd5b505af1158015620006eb573d6000803e3d6000fd5b50505050505050565b6000878787878787876040516200070b9062000dcb565b808873ffffffffffffffffffffffffffffffffffffffff1681526020018060200180602001878152602001806020018681526020018573ffffffffffffffffffffffffffffffffffffffff16815260200184810384528a818151815260200191508051906020019060200280838360005b83811015620007995780820151818401526020810190506200077c565b50505050905001848103835289818151815260200191508051906020019060200280838360005b83811015620007dd578082015181840152602081019050620007c0565b50505050905001848103825287818151815260200191508051906020019080838360005b838110156200081e57808201518184015260208101905062000801565b50505050905090810190601f1680156200084c5780820380516001836020036101000a031916815260200191505b509a5050505050505050505050604051809103906000f08015801562000876573d6000803e3d6000fd5b5090506001819080600181540180825580915050600190039060005260206000200160009091909190916101000a81548173ffffffffffffffffffffffffffffffffffffffff021916908373ffffffffffffffffffffffffffffffffffffffff1602179055506000620008f86001808054905062000cbb90919063ffffffff16565b9050600260003373ffffffffffffffffffffffffffffffffffffffff1673ffffffffffffffffffffffffffffffffffffffff1681526020019081526020016000208190806001815401808255809150506001900390600052602060002001600090919091909150558873ffffffffffffffffffffffffffffffffffffffff168273ffffffffffffffffffffffffffffffffffffffff167fb52f284a6c14f1a66ab5513b5b539066933e58e69e6432666f0e3c8c8a7d750360405160405180910390a3505050505050505050565b60008054906101000a900473ffffffffffffffffffffffffffffffffffffffff1681565b60018181548110620009f757fe5b906000526020600020016000915054906101000a900473ffffffffffffffffffffffffffffffffffffffff1681565b6060600062000a358362000c6f565b905060608167ffffffffffffffff8111801562000a5157600080fd5b5060405190808252806020026020018201604052801562000a815781602001602082028036833780820191505090505b5090506060600260008673ffffffffffffffffffffffffffffffffffffffff1673ffffffffffffffffffffffffffffffffffffffff16815260200190815260200160002080548060200260200160405190810160405280929190818152602001828054801562000b1157602002820191906000526020600020905b81548152602001906001019080831162000afc575b5050505050905060005b8381101562000bc657600182828151811062000b3357fe5b60200260200101518154811062000b4657fe5b9060005260206000200160009054906101000a900473ffffffffffffffffffffffffffffffffffffffff1683828151811062000b7e57fe5b602002602001019073ffffffffffffffffffffffffffffffffffffffff16908173ffffffffffffffffffffffffffffffffffffffff1681525050808060010191505062000b1b565b50819350505050919050565b6000600180549050905090565b6060600180548060200260200160405190810160405280929190818152602001828054801562000c6557602002820191906000526020600020905b8160009054906101000a900473ffffffffffffffffffffffffffffffffffffffff1673ffffffffffffffffffffffffffffffffffffffff168152602001906001019080831162000c1a575b5050505050905090565b6000600260008373ffffffffffffffffffffffffffffffffffffffff1673ffffffffffffffffffffffffffffffffffffffff168152602001908152602001600020805490509050919050565b600062000cff83836040518060400160405280601e81526020017f536166654d6174683a207375627472616374696f6e206f766572666c6f77000081525062000d07565b905092915050565b600083831115829062000db8576040517f08c379a00000000000000000000000000000000000000000000000000000000081526004018080602001828103825283818151815260200191508051906020019080838360005b8381101562000d7c57808201518184015260208101905062000d5f565b50505050905090810190601f16801562000daa5780820380516001836020036101000a031916815260200191505b509250505060405180910390fd5b5060008385039050809150509392505050565b61495b8062000dda8339019056fe60806040523480156200001157600080fd5b506040516200495b3803806200495b83398181016040528101906200003791906200081b565b8060006200004a6200034360201b60201c565b9050806000806101000a81548173ffffffffffffffffffffffffffffffffffffffff021916908373ffffffffffffffffffffffffffffffffffffffff1602179055508073ffffffffffffffffffffffffffffffffffffffff16600073ffffffffffffffffffffffffffffffffffffffff167f8be0079c531659141344cd1fd0a4f28419497f9722a3daafe3b4186f6b6457e060405160405180910390a35080600160006101000a81548173ffffffffffffffffffffffffffffffffffffffff021916908373ffffffffffffffffffffffffffffffffffffffff1602179055506004600160009054906101000a900473ffffffffffffffffffffffffffffffffffffffff169080600181540180825580915050600190039060005260206000200160009091909190916101000a81548173ffffffffffffffffffffffffffffffffffffffff021916908373ffffffffffffffffffffffffffffffffffffffff16021790555033600260006101000a81548173ffffffffffffffffffffffffffffffffffffffff021916908373ffffffffffffffffffffffffffffffffffffffff160217905550506005855110620001ff57600080fd5b84518651146200020e57600080fd5b60005b8551811015620002a3578581815181106200022857fe5b6020026020010151600c60008984815181106200024157fe5b6020026020010151815260200190815260200160002060006101000a81548173ffffffffffffffffffffffffffffffffffffffff021916908373ffffffffffffffffffffffffffffffffffffffff160217905550808060010191505062000211565b50620002b5876200034b60201b60201c565b85600e9080519060200190620002cd9291906200051b565b508360088190555082600a9080519060200190620002ed9291906200056d565b5033600b60006101000a81548173ffffffffffffffffffffffffffffffffffffffff021916908373ffffffffffffffffffffffffffffffffffffffff160217905550816009819055505050505050505062000be7565b600033905090565b6200035b6200034360201b60201c565b73ffffffffffffffffffffffffffffffffffffffff1660008054906101000a900473ffffffffffffffffffffffffffffffffffffffff1673ffffffffffffffffffffffffffffffffffffffff1614620003eb576040517f08c379a0000000000000000000000000000000000000000000000000000000008152600401620003e290620009df565b60405180910390fd5b600073ffffffffffffffffffffffffffffffffffffffff168173ffffffffffffffffffffffffffffffffffffffff1614156200045e576040517f08c379a00000000000000000000000000000000000000000000000000000000081526004016200045590620009bd565b60405180910390fd5b8073ffffffffffffffffffffffffffffffffffffffff1660008054906101000a900473ffffffffffffffffffffffffffffffffffffffff1673ffffffffffffffffffffffffffffffffffffffff167f8be0079c531659141344cd1fd0a4f28419497f9722a3daafe3b4186f6b6457e060405160405180910390a3806000806101000a81548173ffffffffffffffffffffffffffffffffffffffff021916908373ffffffffffffffffffffffffffffffffffffffff16021790555050565b8280548282559060005260206000209081019282156200055a579160200282015b82811115620005595782518255916020019190600101906200053c565b5b509050620005699190620005f4565b5090565b828054600181600116156101000203166002900490600052602060002090601f016020900481019282601f10620005b057805160ff1916838001178555620005e1565b82800160010185558215620005e1579182015b82811115620005e0578251825591602001919060010190620005c3565b5b509050620005f0919062000613565b5090565b5b808211156200060f576000816000905550600101620005f5565b5090565b5b808211156200062e57600081600090555060010162000614565b5090565b600081519050620006438162000b65565b92915050565b600082601f8301126200065b57600080fd5b8151620006726200066c8262000a2f565b62000a01565b915081818352602084019350602081019050838560208402820111156200069857600080fd5b60005b83811015620006cc5781620006b1888262000763565b8452602084019350602083019250506001810190506200069b565b5050505092915050565b600082601f830112620006e857600080fd5b8151620006ff620006f98262000a58565b62000a01565b915081818352602084019350602081019050838560208402820111156200072557600080fd5b60005b838110156200075957816200073e88826200077a565b84526020840193506020830192505060018101905062000728565b5050505092915050565b600081519050620007748162000b7f565b92915050565b6000815190506200078b8162000b99565b92915050565b600081519050620007a28162000bb3565b92915050565b600082601f830112620007ba57600080fd5b8151620007d1620007cb8262000a81565b62000a01565b91508082526020830160208301858383011115620007ee57600080fd5b620007fb83828462000b2f565b50505092915050565b600081519050620008158162000bcd565b92915050565b600080600080600080600060e0888a0312156200083757600080fd5b6000620008478a828b0162000632565b975050602088015167ffffffffffffffff8111156200086557600080fd5b620008738a828b0162000649565b965050604088015167ffffffffffffffff8111156200089157600080fd5b6200089f8a828b01620006d6565b9550506060620008b28a828b0162000804565b945050608088015167ffffffffffffffff811115620008d057600080fd5b620008de8a828b01620007a8565b93505060a0620008f18a828b0162000804565b92505060c0620009048a828b0162000791565b91505092959891949750929550565b60006200092260268362000aae565b91507f4f776e61626c653a206e6577206f776e657220697320746865207a65726f206160008301527f64647265737300000000000000000000000000000000000000000000000000006020830152604082019050919050565b60006200098a60208362000aae565b91507f4f776e61626c653a2063616c6c6572206973206e6f7420746865206f776e65726000830152602082019050919050565b60006020820190508181036000830152620009d88162000913565b9050919050565b60006020820190508181036000830152620009fa816200097b565b9050919050565b6000604051905081810181811067ffffffffffffffff8211171562000a2557600080fd5b8060405250919050565b600067ffffffffffffffff82111562000a4757600080fd5b602082029050602081019050919050565b600067ffffffffffffffff82111562000a7057600080fd5b602082029050602081019050919050565b600067ffffffffffffffff82111562000a9957600080fd5b601f19601f8301169050602081019050919050565b600082825260208201905092915050565b600062000acc8262000b05565b9050919050565b6000819050919050565b600062000aea8262000abf565b9050919050565b600062000afe8262000abf565b9050919050565b600073ffffffffffffffffffffffffffffffffffffffff82169050919050565b6000819050919050565b60005b8381101562000b4f57808201518184015260208101905062000b32565b8381111562000b5f576000848401525b50505050565b62000b708162000abf565b811462000b7c57600080fd5b50565b62000b8a8162000ad3565b811462000b9657600080fd5b50565b62000ba48162000add565b811462000bb057600080fd5b50565b62000bbe8162000af1565b811462000bca57600080fd5b50565b62000bd88162000b25565b811462000be457600080fd5b50565b613d648062000bf76000396000f3fe608060405234801561001057600080fd5b50600436106101585760003560e01c8063ae169a50116100c3578063e7ab816a1161007c578063e7ab816a146103a3578063ea4a1104146103c1578063f10bd772146103f5578063f2fde38b14610425578063f3fef3a314610441578063fd5e6dd11461045d57610158565b8063ae169a50146102d1578063b0227b47146102ed578063b83e02341461031d578063c623674f1461034d578063cec534d61461036b578063e23ef92c1461038757610158565b8063715018a611610115578063715018a61461021f57806375fdf2a9146102295780637b10399914610245578063817b1cd2146102635780638da5cb5b1461028157806394199c611461029f57610158565b806302e8b8931461015d578063171e44ea1461018d5780633a4b66f1146101a95780633a5381b5146101c757806353e85fd5146101e55780635f4efaba14610201575b600080fd5b61017760048036038101906101729190612f82565b61048d565b60405161018491906137a9565b60405180910390f35b6101a760048036038101906101a29190612ea5565b6105b5565b005b6101b16106b0565b6040516101be91906139de565b60405180910390f35b6101cf6106b6565b6040516101dc9190613705565b60405180910390f35b6101ff60048036038101906101fa9190613090565b6106dc565b005b610209610adb565b6040516102169190613801565b60405180910390f35b610227610b01565b005b610243600480360381019061023e9190612f0a565b610c54565b005b61024d6112e1565b60405161025a91906137cb565b60405180910390f35b61026b611307565b60405161027891906139de565b60405180910390f35b61028961130d565b6040516102969190613705565b60405180910390f35b6102b960048036038101906102b49190612fab565b611336565b6040516102c893929190613a39565b60405180910390f35b6102eb60048036038101906102e69190613090565b611412565b005b61030760048036038101906103029190612f82565b6117e9565b60405161031491906137e6565b60405180910390f35b61033760048036038101906103329190612ea5565b61181c565b60405161034491906139de565b60405180910390f35b610355611834565b604051610362919061381c565b60405180910390f35b610385600480360381019061038091906130b9565b6118d2565b005b6103a1600480360381019061039c9190612fe7565b611c99565b005b6103ab611fc8565b6040516103b891906139de565b60405180910390f35b6103db60048036038101906103d69190613090565b611fd2565b6040516103ec959493929190613a77565b60405180910390f35b61040f600480360381019061040a9190612ece565b61202f565b60405161041c91906139de565b60405180910390f35b61043f600480360381019061043a9190612ea5565b61218b565b005b61045b60048036038101906104569190612ece565b61234d565b005b61047760048036038101906104729190613090565b61285e565b6040516104849190613705565b60405180910390f35b6060600d6000838152602001908152602001600020805480602002602001604051908101604052809291908181526020016000905b828210156105aa57838290600052602060002090600302016040518060600160405290816000820154815260200160018201548152602001600282018054600181600116156101000203166002900480601f0160208091040260200160405190810160405280929190818152602001828054600181600116156101000203166002900480156105925780601f1061056757610100808354040283529160200191610592565b820191906000526020600020905b81548152906001019060200180831161057557829003601f168201915b505050505081525050815260200190600101906104c2565b505050509050919050565b6105bd61289a565b73ffffffffffffffffffffffffffffffffffffffff1660008054906101000a900473ffffffffffffffffffffffffffffffffffffffff1673ffffffffffffffffffffffffffffffffffffffff161461064a576040517f08c379a00000000000000000000000000000000000000000000000000000000081526004016106419061393e565b60405180910390fd5b6004819080600181540180825580915050600190039060005260206000200160009091909190916101000a81548173ffffffffffffffffffffffffffffffffffffffff021916908373ffffffffffffffffffffffffffffffffffffffff16021790555050565b60085481565b600260009054906101000a900473ffffffffffffffffffffffffffffffffffffffff1681565b80600581815481106106ea57fe5b906000526020600020906006020160000154421015801561072957506005818154811061071357fe5b9060005260206000209060060201600101544211155b61073257600080fd5b600260009054906101000a900473ffffffffffffffffffffffffffffffffffffffff1673ffffffffffffffffffffffffffffffffffffffff163373ffffffffffffffffffffffffffffffffffffffff1614156107c3576040517f08c379a00000000000000000000000000000000000000000000000000000000081526004016107ba906138be565b60405180910390fd5b6002808111156107cf57fe5b600583815481106107dc57fe5b906000526020600020906006020160030160019054906101000a900460ff16600281111561080657fe5b14610846576040517f08c379a000000000000000000000000000000000000000000000000000000000815260040161083d9061385e565b60405180910390fd5b60006005838154811061085557fe5b906000526020600020906006020160050160003373ffffffffffffffffffffffffffffffffffffffff1673ffffffffffffffffffffffffffffffffffffffff16815260200190815260200160002054146108e4576040517f08c379a00000000000000000000000000000000000000000000000000000000081526004016108db906139be565b60405180910390fd5b60006108f0338461202f565b9050600061091b600a61090d6003856128a290919063ffffffff16565b61291290919063ffffffff16565b90506109328260075461295c90919063ffffffff16565b600781905550816005858154811061094657fe5b906000526020600020906006020160050160003373ffffffffffffffffffffffffffffffffffffffff1673ffffffffffffffffffffffffffffffffffffffff16815260200190815260200160002081905550600160009054906101000a900473ffffffffffffffffffffffffffffffffffffffff1673ffffffffffffffffffffffffffffffffffffffff1663a9059cbb33846040518363ffffffff1660e01b81526004016109f5929190613757565b602060405180830381600087803b158015610a0f57600080fd5b505af1158015610a23573d6000803e3d6000fd5b505050506040513d601f19601f82011682018060405250810190610a479190612f59565b50600160009054906101000a900473ffffffffffffffffffffffffffffffffffffffff1673ffffffffffffffffffffffffffffffffffffffff166342966c68826040518263ffffffff1660e01b8152600401610aa391906139de565b600060405180830381600087803b158015610abd57600080fd5b505af1158015610ad1573d6000803e3d6000fd5b5050505050505050565b600160009054906101000a900473ffffffffffffffffffffffffffffffffffffffff1681565b610b0961289a565b73ffffffffffffffffffffffffffffffffffffffff1660008054906101000a900473ffffffffffffffffffffffffffffffffffffffff1673ffffffffffffffffffffffffffffffffffffffff1614610b96576040517f08c379a0000000000000000000000000000000000000000000000000000000008152600401610b8d9061393e565b60405180910390fd5b600073ffffffffffffffffffffffffffffffffffffffff1660008054906101000a900473ffffffffffffffffffffffffffffffffffffffff1673ffffffffffffffffffffffffffffffffffffffff167f8be0079c531659141344cd1fd0a4f28419497f9722a3daafe3b4186f6b6457e060405160405180910390a360008060006101000a81548173ffffffffffffffffffffffffffffffffffffffff021916908373ffffffffffffffffffffffffffffffffffffffff160217905550565b600260009054906101000a900473ffffffffffffffffffffffffffffffffffffffff1673ffffffffffffffffffffffffffffffffffffffff163373ffffffffffffffffffffffffffffffffffffffff161415610ce5576040517f08c379a0000000000000000000000000000000000000000000000000000000008152600401610cdc906138be565b60405180910390fd5b600060058281548110610cf457fe5b906000526020600020906006020160040160008573ffffffffffffffffffffffffffffffffffffffff1673ffffffffffffffffffffffffffffffffffffffff16815260200190815260200160002060003373ffffffffffffffffffffffffffffffffffffffff1673ffffffffffffffffffffffffffffffffffffffff1681526020019081526020016000205411610dc0576040517f08c379a0000000000000000000000000000000000000000000000000000000008152600401610db7906138de565b60405180910390fd5b610dc9836129a6565b610e08576040517f08c379a0000000000000000000000000000000000000000000000000000000008152600401610dff9061397e565b60405180910390fd5b8273ffffffffffffffffffffffffffffffffffffffff1663095ea7b330846040518363ffffffff1660e01b8152600401610e43929190613780565b602060405180830381600087803b158015610e5d57600080fd5b505af1158015610e71573d6000803e3d6000fd5b505050506040513d601f19601f82011682018060405250810190610e959190612f59565b508273ffffffffffffffffffffffffffffffffffffffff166323b872dd3330856040518463ffffffff1660e01b8152600401610ed393929190613720565b602060405180830381600087803b158015610eed57600080fd5b505af1158015610f01573d6000803e3d6000fd5b505050506040513d601f19601f82011682018060405250810190610f259190612f59565b50610fd18260058381548110610f3757fe5b906000526020600020906006020160040160008673ffffffffffffffffffffffffffffffffffffffff1673ffffffffffffffffffffffffffffffffffffffff16815260200190815260200160002060003373ffffffffffffffffffffffffffffffffffffffff1673ffffffffffffffffffffffffffffffffffffffff16815260200190815260200160002054612a4890919063ffffffff16565b60058281548110610fde57fe5b906000526020600020906006020160040160008573ffffffffffffffffffffffffffffffffffffffff1673ffffffffffffffffffffffffffffffffffffffff16815260200190815260200160002060003373ffffffffffffffffffffffffffffffffffffffff1673ffffffffffffffffffffffffffffffffffffffff1681526020019081526020016000208190555061108282600754612a4890919063ffffffff16565b60078190555060006005828154811061109757fe5b906000526020600020906006020160040160008573ffffffffffffffffffffffffffffffffffffffff1673ffffffffffffffffffffffffffffffffffffffff16815260200190815260200160002060003373ffffffffffffffffffffffffffffffffffffffff1673ffffffffffffffffffffffffffffffffffffffff168152602001908152602001600020549050600061115d6003805490506005858154811061113d57fe5b90600052602060002090600602016002015461291290919063ffffffff16565b905060006005848154811061116e57fe5b906000526020600020906006020160040160008773ffffffffffffffffffffffffffffffffffffffff1673ffffffffffffffffffffffffffffffffffffffff16815260200190815260200160002060003373ffffffffffffffffffffffffffffffffffffffff1673ffffffffffffffffffffffffffffffffffffffff168152602001908152602001600020819055506112128260075461295c90919063ffffffff16565b600781905550600160009054906101000a900473ffffffffffffffffffffffffffffffffffffffff1673ffffffffffffffffffffffffffffffffffffffff1663a9059cbb3361126a848661295c90919063ffffffff16565b6040518363ffffffff1660e01b8152600401611287929190613757565b602060405180830381600087803b1580156112a157600080fd5b505af11580156112b5573d6000803e3d6000fd5b505050506040513d601f19601f820116820180604052508101906112d99190612f59565b505050505050565b600b60009054906101000a900473ffffffffffffffffffffffffffffffffffffffff1681565b60075481565b60008060009054906101000a900473ffffffffffffffffffffffffffffffffffffffff16905090565b600d602052816000526040600020818154811061134f57fe5b906000526020600020906003020160009150915050806000015490806001015490806002018054600181600116156101000203166002900480601f0160208091040260200160405190810160405280929190818152602001828054600181600116156101000203166002900480156114085780601f106113dd57610100808354040283529160200191611408565b820191906000526020600020905b8154815290600101906020018083116113eb57829003601f168201915b5050505050905083565b806005818154811061142057fe5b906000526020600020906006020160000154421015801561145f57506005818154811061144957fe5b9060005260206000209060060201600101544211155b61146857600080fd5b600260009054906101000a900473ffffffffffffffffffffffffffffffffffffffff1673ffffffffffffffffffffffffffffffffffffffff163373ffffffffffffffffffffffffffffffffffffffff16146114f8576040517f08c379a00000000000000000000000000000000000000000000000000000000081526004016114ef9061399e565b60405180910390fd5b6001600281111561150557fe5b6005838154811061151257fe5b906000526020600020906006020160030160019054906101000a900460ff16600281111561153c57fe5b1461157c576040517f08c379a00000000000000000000000000000000000000000000000000000000081526004016115739061383e565b60405180910390fd5b6005828154811061158957fe5b906000526020600020906006020160030160009054906101000a900460ff16156115e8576040517f08c379a00000000000000000000000000000000000000000000000000000000081526004016115df906138fe565b60405180910390fd5b600061160460058054905060075461291290919063ffffffff16565b9050600061162f600a6116216003856128a290919063ffffffff16565b61291290919063ffffffff16565b90506116468260075461295c90919063ffffffff16565b600781905550816005858154811061165a57fe5b90600052602060002090600602016002018190555060016005858154811061167e57fe5b906000526020600020906006020160030160006101000a81548160ff021916908315150217905550600160009054906101000a900473ffffffffffffffffffffffffffffffffffffffff1673ffffffffffffffffffffffffffffffffffffffff1663a9059cbb33846040518363ffffffff1660e01b8152600401611703929190613757565b602060405180830381600087803b15801561171d57600080fd5b505af1158015611731573d6000803e3d6000fd5b505050506040513d601f19601f820116820180604052508101906117559190612f59565b50600160009054906101000a900473ffffffffffffffffffffffffffffffffffffffff1673ffffffffffffffffffffffffffffffffffffffff166342966c68826040518263ffffffff1660e01b81526004016117b191906139de565b600060405180830381600087803b1580156117cb57600080fd5b505af11580156117df573d6000803e3d6000fd5b5050505050505050565b600c6020528060005260406000206000915054906101000a900473ffffffffffffffffffffffffffffffffffffffff1681565b60066020528060005260406000206000915090505481565b600a8054600181600116156101000203166002900480601f0160208091040260200160405190810160405280929190818152602001828054600181600116156101000203166002900480156118ca5780601f1061189f576101008083540402835291602001916118ca565b820191906000526020600020905b8154815290600101906020018083116118ad57829003601f168201915b505050505081565b60008311611915576040517f08c379a000000000000000000000000000000000000000000000000000000000815260040161190c9061395e565b60405180910390fd5b61191e826129a6565b61195d576040517f08c379a00000000000000000000000000000000000000000000000000000000081526004016119549061397e565b60405180910390fd5b611968338383612a9d565b8173ffffffffffffffffffffffffffffffffffffffff1663095ea7b330856040518363ffffffff1660e01b81526004016119a3929190613780565b602060405180830381600087803b1580156119bd57600080fd5b505af11580156119d1573d6000803e3d6000fd5b505050506040513d601f19601f820116820180604052508101906119f59190612f59565b508173ffffffffffffffffffffffffffffffffffffffff166323b872dd3330866040518463ffffffff1660e01b8152600401611a3393929190613720565b602060405180830381600087803b158015611a4d57600080fd5b505af1158015611a61573d6000803e3d6000fd5b505050506040513d601f19601f82011682018060405250810190611a859190612f59565b50611b318360058381548110611a9757fe5b906000526020600020906006020160040160008573ffffffffffffffffffffffffffffffffffffffff1673ffffffffffffffffffffffffffffffffffffffff16815260200190815260200160002060003373ffffffffffffffffffffffffffffffffffffffff1673ffffffffffffffffffffffffffffffffffffffff16815260200190815260200160002054612a4890919063ffffffff16565b60058281548110611b3e57fe5b906000526020600020906006020160040160008473ffffffffffffffffffffffffffffffffffffffff1673ffffffffffffffffffffffffffffffffffffffff16815260200190815260200160002060003373ffffffffffffffffffffffffffffffffffffffff1673ffffffffffffffffffffffffffffffffffffffff16815260200190815260200160002081905550611be283600754612a4890919063ffffffff16565b6007819055506001600660003373ffffffffffffffffffffffffffffffffffffffff1673ffffffffffffffffffffffffffffffffffffffff168152602001908152602001600020541415611c94576003339080600181540180825580915050600190039060005260206000200160009091909190916101000a81548173ffffffffffffffffffffffffffffffffffffffff021916908373ffffffffffffffffffffffffffffffffffffffff1602179055505b505050565b600b60009054906101000a900473ffffffffffffffffffffffffffffffffffffffff1673ffffffffffffffffffffffffffffffffffffffff16633cb747bf6040518163ffffffff1660e01b815260040160206040518083038186803b158015611d0157600080fd5b505afa158015611d15573d6000803e3d6000fd5b505050506040513d601f19601f82011682018060405250810190611d399190613067565b73ffffffffffffffffffffffffffffffffffffffff163373ffffffffffffffffffffffffffffffffffffffff1614611d7057600080fd5b600d6000868152602001908152602001600020604051806060016040528042815260200186815260200185858080601f016020809104026020016040519081016040528093929190818152602001838380828437600081840152601f19601f82011690508083019250505050505050815250908060018154018082558091505060019003906000526020600020906003020160009091909190915060008201518160000155602082015181600101556040820151816002019080519060200190611e3b929190612d55565b5050507f048094af00d5b1e004ae2a3f03c2bd4897a83b5672ed2b02b7b3416b9709805c42858585604051611e7394939291906139f9565b60405180910390a1600c600086815260200190815260200160002060009054906101000a900473ffffffffffffffffffffffffffffffffffffffff1673ffffffffffffffffffffffffffffffffffffffff1663868d08f7856040518263ffffffff1660e01b8152600401611ee791906139de565b60206040518083038186803b158015611eff57600080fd5b505afa158015611f13573d6000803e3d6000fd5b505050506040513d601f19601f82011682018060405250810190611f379190612f59565b611f8057600260058281548110611f4a57fe5b906000526020600020906006020160030160016101000a81548160ff02191690836002811115611f7657fe5b0217905550611fc1565b600160058281548110611f8f57fe5b906000526020600020906006020160030160016101000a81548160ff02191690836002811115611fbb57fe5b02179055505b5050505050565b6000600954905090565b60058181548110611fdf57fe5b90600052602060002090600602016000915090508060000154908060010154908060020154908060030160009054906101000a900460ff16908060030160019054906101000a900460ff16905085565b600080600090506000600660008673ffffffffffffffffffffffffffffffffffffffff1673ffffffffffffffffffffffffffffffffffffffff1681526020019081526020016000205411156121815760005b60048054905081101561217f576121706005858154811061209e57fe5b90600052602060002090600602016004016000600484815481106120be57fe5b9060005260206000200160009054906101000a900473ffffffffffffffffffffffffffffffffffffffff1673ffffffffffffffffffffffffffffffffffffffff1673ffffffffffffffffffffffffffffffffffffffff16815260200190815260200160002060008773ffffffffffffffffffffffffffffffffffffffff1673ffffffffffffffffffffffffffffffffffffffff1681526020019081526020016000205483612a4890919063ffffffff16565b91508080600101915050612081565b505b8091505092915050565b61219361289a565b73ffffffffffffffffffffffffffffffffffffffff1660008054906101000a900473ffffffffffffffffffffffffffffffffffffffff1673ffffffffffffffffffffffffffffffffffffffff1614612220576040517f08c379a00000000000000000000000000000000000000000000000000000000081526004016122179061393e565b60405180910390fd5b600073ffffffffffffffffffffffffffffffffffffffff168173ffffffffffffffffffffffffffffffffffffffff161415612290576040517f08c379a00000000000000000000000000000000000000000000000000000000081526004016122879061387e565b60405180910390fd5b8073ffffffffffffffffffffffffffffffffffffffff1660008054906101000a900473ffffffffffffffffffffffffffffffffffffffff1673ffffffffffffffffffffffffffffffffffffffff167f8be0079c531659141344cd1fd0a4f28419497f9722a3daafe3b4186f6b6457e060405160405180910390a3806000806101000a81548173ffffffffffffffffffffffffffffffffffffffff021916908373ffffffffffffffffffffffffffffffffffffffff16021790555050565b600260009054906101000a900473ffffffffffffffffffffffffffffffffffffffff1673ffffffffffffffffffffffffffffffffffffffff163373ffffffffffffffffffffffffffffffffffffffff1614156123de576040517f08c379a00000000000000000000000000000000000000000000000000000000081526004016123d5906138be565b60405180910390fd5b6000600582815481106123ed57fe5b906000526020600020906006020160040160008473ffffffffffffffffffffffffffffffffffffffff1673ffffffffffffffffffffffffffffffffffffffff16815260200190815260200160002060003373ffffffffffffffffffffffffffffffffffffffff1673ffffffffffffffffffffffffffffffffffffffff16815260200190815260200160002054116124b9576040517f08c379a00000000000000000000000000000000000000000000000000000000081526004016124b0906138de565b60405180910390fd5b6124c2826129a6565b612501576040517f08c379a00000000000000000000000000000000000000000000000000000000081526004016124f89061397e565b60405180910390fd5b60006005828154811061251057fe5b906000526020600020906006020160040160008473ffffffffffffffffffffffffffffffffffffffff1673ffffffffffffffffffffffffffffffffffffffff16815260200190815260200160002060003373ffffffffffffffffffffffffffffffffffffffff1673ffffffffffffffffffffffffffffffffffffffff16815260200190815260200160002054905060006125d6600380549050600585815481106125b657fe5b90600052602060002090600602016002015461291290919063ffffffff16565b90506000600584815481106125e757fe5b906000526020600020906006020160040160008673ffffffffffffffffffffffffffffffffffffffff1673ffffffffffffffffffffffffffffffffffffffff16815260200190815260200160002060003373ffffffffffffffffffffffffffffffffffffffff1673ffffffffffffffffffffffffffffffffffffffff1681526020019081526020016000208190555061268b8260075461295c90919063ffffffff16565b6007819055508373ffffffffffffffffffffffffffffffffffffffff1663a9059cbb336126c1848661295c90919063ffffffff16565b6040518363ffffffff1660e01b81526004016126de929190613757565b602060405180830381600087803b1580156126f857600080fd5b505af115801561270c573d6000803e3d6000fd5b505050506040513d601f19601f820116820180604052508101906127309190612f59565b506127846001600660003373ffffffffffffffffffffffffffffffffffffffff1673ffffffffffffffffffffffffffffffffffffffff1681526020019081526020016000205461295c90919063ffffffff16565b600660003373ffffffffffffffffffffffffffffffffffffffff1673ffffffffffffffffffffffffffffffffffffffff168152602001908152602001600020819055506000600660003373ffffffffffffffffffffffffffffffffffffffff1673ffffffffffffffffffffffffffffffffffffffff16815260200190815260200160002054141561285857600061281a33612bd9565b90506003818154811061282957fe5b9060005260206000200160006101000a81549073ffffffffffffffffffffffffffffffffffffffff0219169055505b50505050565b6003818154811061286b57fe5b906000526020600020016000915054906101000a900473ffffffffffffffffffffffffffffffffffffffff1681565b600033905090565b6000808314156128b5576000905061290c565b60008284029050828482816128c657fe5b0414612907576040517f08c379a00000000000000000000000000000000000000000000000000000000081526004016128fe9061391e565b60405180910390fd5b809150505b92915050565b600061295483836040518060400160405280601a81526020017f536166654d6174683a206469766973696f6e206279207a65726f000000000000815250612c99565b905092915050565b600061299e83836040518060400160405280601e81526020017f536166654d6174683a207375627472616374696f6e206f766572666c6f770000815250612cfa565b905092915050565b600080600090505b600480549050811015612a3d578273ffffffffffffffffffffffffffffffffffffffff16600482815481106129df57fe5b9060005260206000200160009054906101000a900473ffffffffffffffffffffffffffffffffffffffff1673ffffffffffffffffffffffffffffffffffffffff161415612a30576001915050612a43565b80806001019150506129ae565b50600090505b919050565b600080828401905083811015612a93576040517f08c379a0000000000000000000000000000000000000000000000000000000008152600401612a8a9061389e565b60405180910390fd5b8091505092915050565b600060058281548110612aac57fe5b906000526020600020906006020160040160008473ffffffffffffffffffffffffffffffffffffffff1673ffffffffffffffffffffffffffffffffffffffff16815260200190815260200160002060008573ffffffffffffffffffffffffffffffffffffffff1673ffffffffffffffffffffffffffffffffffffffff1681526020019081526020016000205411612bd457612b906001600660008673ffffffffffffffffffffffffffffffffffffffff1673ffffffffffffffffffffffffffffffffffffffff16815260200190815260200160002054612a4890919063ffffffff16565b600660008573ffffffffffffffffffffffffffffffffffffffff1673ffffffffffffffffffffffffffffffffffffffff168152602001908152602001600020819055505b505050565b600080600090505b600380549050811015612c6f578273ffffffffffffffffffffffffffffffffffffffff1660038281548110612c1257fe5b9060005260206000200160009054906101000a900473ffffffffffffffffffffffffffffffffffffffff1673ffffffffffffffffffffffffffffffffffffffff161415612c625780915050612c94565b8080600101915050612be1565b507fffffffffffffffffffffffffffffffffffffffffffffffffffffffffffffffff90505b919050565b60008083118290612ce0576040517f08c379a0000000000000000000000000000000000000000000000000000000008152600401612cd7919061381c565b60405180910390fd5b506000838581612cec57fe5b049050809150509392505050565b6000838311158290612d42576040517f08c379a0000000000000000000000000000000000000000000000000000000008152600401612d39919061381c565b60405180910390fd5b5060008385039050809150509392505050565b828054600181600116156101000203166002900490600052602060002090601f016020900481019282601f10612d9657805160ff1916838001178555612dc4565b82800160010185558215612dc4579182015b82811115612dc3578251825591602001919060010190612da8565b5b509050612dd19190612dd5565b5090565b5b80821115612dee576000816000905550600101612dd6565b5090565b600081359050612e0181613cbb565b92915050565b600081519050612e1681613cd2565b92915050565b600081359050612e2b81613ce9565b92915050565b600081519050612e4081613d00565b92915050565b60008083601f840112612e5857600080fd5b8235905067ffffffffffffffff811115612e7157600080fd5b602083019150836001820283011115612e8957600080fd5b9250929050565b600081359050612e9f81613d17565b92915050565b600060208284031215612eb757600080fd5b6000612ec584828501612df2565b91505092915050565b60008060408385031215612ee157600080fd5b6000612eef85828601612df2565b9250506020612f0085828601612e90565b9150509250929050565b600080600060608486031215612f1f57600080fd5b6000612f2d86828701612df2565b9350506020612f3e86828701612e90565b9250506040612f4f86828701612e90565b9150509250925092565b600060208284031215612f6b57600080fd5b6000612f7984828501612e07565b91505092915050565b600060208284031215612f9457600080fd5b6000612fa284828501612e1c565b91505092915050565b60008060408385031215612fbe57600080fd5b6000612fcc85828601612e1c565b9250506020612fdd85828601612e90565b9150509250929050565b600080600080600060808688031215612fff57600080fd5b600061300d88828901612e1c565b955050602061301e88828901612e90565b945050604086013567ffffffffffffffff81111561303b57600080fd5b61304788828901612e46565b9350935050606061305a88828901612e90565b9150509295509295909350565b60006020828403121561307957600080fd5b600061308784828501612e31565b91505092915050565b6000602082840312156130a257600080fd5b60006130b084828501612e90565b91505092915050565b6000806000606084860312156130ce57600080fd5b60006130dc86828701612e90565b93505060206130ed86828701612df2565b92505060406130fe86828701612e90565b9150509250925092565b60006131148383613697565b905092915050565b61312581613ba7565b82525050565b61313481613b30565b82525050565b600061314582613ada565b61314f8185613afd565b93508360208202850161316185613aca565b8060005b8581101561319d578484038952815161317e8582613108565b945061318983613af0565b925060208a01995050600181019050613165565b50829750879550505050505092915050565b6131b881613b42565b82525050565b6131c781613bb9565b82525050565b6131d681613bdd565b82525050565b6131e581613c01565b82525050565b6131f481613c25565b82525050565b60006132068385613b1f565b9350613213838584613c5b565b61321c83613c9d565b840190509392505050565b600061323282613ae5565b61323c8185613b0e565b935061324c818560208601613c6a565b61325581613c9d565b840191505092915050565b600061326b82613ae5565b6132758185613b1f565b9350613285818560208601613c6a565b61328e81613c9d565b840191505092915050565b60006132a6601383613b1f565b91507f534c41206e6f74207265737065637465642021000000000000000000000000006000830152602082019050919050565b60006132e6600f83613b1f565b91507f534c4120726573706563746564202100000000000000000000000000000000006000830152602082019050919050565b6000613326602683613b1f565b91507f4f776e61626c653a206e6577206f776e657220697320746865207a65726f206160008301527f64647265737300000000000000000000000000000000000000000000000000006020830152604082019050919050565b600061338c601b83613b1f565b91507f536166654d6174683a206164646974696f6e206f766572666c6f7700000000006000830152602082019050919050565b60006133cc601583613b1f565b91507f596f752061726520612076616c696461746f72202100000000000000000000006000830152602082019050919050565b600061340c601b83613b1f565b91507f7374616b696e672062616c616e63652063616e6e6f74206265203000000000006000830152602082019050919050565b600061344c603683613b1f565b91507f596f75206861766520616c726561647920636c61696d656420796f757220726560008301527f7761726420666f72207468697320706572696f642021000000000000000000006020830152604082019050919050565b60006134b2602183613b1f565b91507f536166654d6174683a206d756c7469706c69636174696f6e206f766572666c6f60008301527f77000000000000000000000000000000000000000000000000000000000000006020830152604082019050919050565b6000613518602083613b1f565b91507f4f776e61626c653a2063616c6c6572206973206e6f7420746865206f776e65726000830152602082019050919050565b6000613558601283613b1f565b91507f616d6f756e742063616e6e6f74206265203000000000000000000000000000006000830152602082019050919050565b6000613598602683613b1f565b91507f746f6b656e2073686f756c64206265206175746f726973656420746f2062652060008301527f7374616b656400000000000000000000000000000000000000000000000000006020830152604082019050919050565b60006135fe601983613b1f565b91507f596f7520617265206e6f7420612076616c696461746f722021000000000000006000830152602082019050919050565b600061363e603c83613b1f565b91507f596f75206861766520616c726561647920636c61696d656420796f757220636f60008301527f6d70656e736174696f6e20666f72207468697320706572696f642021000000006020830152604082019050919050565b60006060830160008301516136af60008601826136e7565b5060208301516136c260208601826136e7565b50604083015184820360408601526136da8282613227565b9150508091505092915050565b6136f081613b9d565b82525050565b6136ff81613b9d565b82525050565b600060208201905061371a600083018461312b565b92915050565b6000606082019050613735600083018661311c565b613742602083018561312b565b61374f60408301846136f6565b949350505050565b600060408201905061376c600083018561311c565b61377960208301846136f6565b9392505050565b6000604082019050613795600083018561312b565b6137a260208301846136f6565b9392505050565b600060208201905081810360008301526137c3818461313a565b905092915050565b60006020820190506137e060008301846131be565b92915050565b60006020820190506137fb60008301846131cd565b92915050565b600060208201905061381660008301846131dc565b92915050565b600060208201905081810360008301526138368184613260565b905092915050565b6000602082019050818103600083015261385781613299565b9050919050565b60006020820190508181036000830152613877816132d9565b9050919050565b6000602082019050818103600083015261389781613319565b9050919050565b600060208201905081810360008301526138b78161337f565b9050919050565b600060208201905081810360008301526138d7816133bf565b9050919050565b600060208201905081810360008301526138f7816133ff565b9050919050565b600060208201905081810360008301526139178161343f565b9050919050565b60006020820190508181036000830152613937816134a5565b9050919050565b600060208201905081810360008301526139578161350b565b9050919050565b600060208201905081810360008301526139778161354b565b9050919050565b600060208201905081810360008301526139978161358b565b9050919050565b600060208201905081810360008301526139b7816135f1565b9050919050565b600060208201905081810360008301526139d781613631565b9050919050565b60006020820190506139f360008301846136f6565b92915050565b6000606082019050613a0e60008301876136f6565b613a1b60208301866136f6565b8181036040830152613a2e8184866131fa565b905095945050505050565b6000606082019050613a4e60008301866136f6565b613a5b60208301856136f6565b8181036040830152613a6d8184613260565b9050949350505050565b600060a082019050613a8c60008301886136f6565b613a9960208301876136f6565b613aa660408301866136f6565b613ab360608301856131af565b613ac060808301846131eb565b9695505050505050565b6000819050602082019050919050565b600081519050919050565b600081519050919050565b6000602082019050919050565b600082825260208201905092915050565b600082825260208201905092915050565b600082825260208201905092915050565b6000613b3b82613b7d565b9050919050565b60008115159050919050565b6000819050919050565b6000613b6382613b30565b9050919050565b6000819050613b7882613cae565b919050565b600073ffffffffffffffffffffffffffffffffffffffff82169050919050565b6000819050919050565b6000613bb282613c37565b9050919050565b6000613bc482613bcb565b9050919050565b6000613bd682613b7d565b9050919050565b6000613be882613bef565b9050919050565b6000613bfa82613b7d565b9050919050565b6000613c0c82613c13565b9050919050565b6000613c1e82613b7d565b9050919050565b6000613c3082613b6a565b9050919050565b6000613c4282613c49565b9050919050565b6000613c5482613b7d565b9050919050565b82818337600083830152505050565b60005b83811015613c88578082015181840152602081019050613c6d565b83811115613c97576000848401525b50505050565b6000601f19601f8301169050919050565b60038110613cb857fe5b50565b613cc481613b30565b8114613ccf57600080fd5b50565b613cdb81613b42565b8114613ce657600080fd5b50565b613cf281613b4e565b8114613cfd57600080fd5b50565b613d0981613b58565b8114613d1457600080fd5b50565b613d2081613b9d565b8114613d2b57600080fd5b5056fea2646970667358221220bfd393efa8fa3c8b30654d5f457884b815c614dce83d70ba8a167088b6f9a08664736f6c634300060c0033a2646970667358221220c51eb86d8e1a676e626f6ea97fce5feb388287695e16c05626980ac22fe7b03f64736f6c634300060c0033",
  "immutableReferences": {},
  "source": "// SPDX-License-Identifier: MIT\npragma solidity ^0.6.0;\n\nimport \"@openzeppelin/contracts/math/SafeMath.sol\";\nimport \"@openzeppelin/contracts/token/ERC20/IERC20.sol\";\nimport \"./interfaces/IMessenger.sol\";\nimport \"./SLA/SLA.sol\";\nimport \"./SLO/SLO.sol\";\nimport \"./bDSLA/bDSLAToken.sol\";\n/**\n * @title SLARegistry\n * @dev SLARegistry is a contract for handling creation of service level\n * agreements and keeping track of the created agreements\n */\ncontract SLARegistry {\n\n    using SafeMath for uint256;\n\n    IMessenger public messenger;\n\n    // Array that stores the addresses of created service level agreements\n    SLA[] public SLAs;\n\n    // Mapping that stores the indexes of service level agreements owned by a user\n    mapping(address => uint[]) private userToSLAIndexes;\n\n    /**\n     * @dev event for service level agreement creation logging\n     * @param sla The address of the created service level agreement contract\n     * @param owner The address of the owner of the service level agreement\n     */\n    event SLACreated(SLA indexed sla, address indexed owner);\n\n    /**\n     * @dev constructor\n     * @param _messengerAddress the address of the chainlink messenger contract\n     */\n    constructor(IMessenger _messengerAddress) public {\n        messenger = _messengerAddress;\n\n        messenger.setSLARegistry();\n    }\n\n    /**\n     * @dev public function for creating service level agreements\n     * @param _owner Address of the owner of the service level agreement\n     * @param _SLONames Array of the names of the service level objectives\n     * in bytes32\n     * @param _SLOs Array of service level objective contract addressess\n     * service level objective breach\n     * @param _stake Uint of the amount required to stake when signing the\n     * service level agreement\n     * @param _ipfsHash String with the ipfs hash that contains extra\n     * information about the service level agreement\n     * @param _sliInterval uint the interval in seconds between requesting a new SLI\n     */\n    function createSLA(\n        address _owner,\n        bytes32[] memory _SLONames,\n        SLO[] memory _SLOs,\n        uint _stake,\n        string memory _ipfsHash,\n        uint _sliInterval,\n        bDSLAToken _tokenAddress\n    ) public {\n        SLA sla = new SLA(\n            _owner,\n            _SLONames,\n            _SLOs,\n            _stake,\n            _ipfsHash,\n            _sliInterval, \n            _tokenAddress\n        );\n\n        SLAs.push(sla);\n        \n        uint index = SLAs.length.sub(1);\n\n        userToSLAIndexes[msg.sender].push(index);\n\n        emit SLACreated(sla, _owner);\n    }\n\n    /**\n     * @dev Gets SLI information for the specified SLA and SLO\n     * @param _data Oracle Proof\n     * @param _sla SLA Address\n     * @param _sloName SLO Name\n     */\n    function requestSLI(\n        bytes memory _data,\n        SLA _sla,\n        bytes32 _sloName\n    ) public {\n        messenger.requestSLI(_data, _sla, _sloName);\n    }\n\n    /**\n     * @dev public view function that returns the service level agreements that\n     * the given user is the owner of\n     * @param _user Address of the user for which to return the service level\n     * agreements\n     */\n    function userSLAs(address _user) public view returns(SLA[] memory) {\n        uint count = userSLACount(_user);\n        SLA[] memory SLAList = new SLA[](count);\n        uint[] memory userSLAIndexes = userToSLAIndexes[_user];\n\n        for(uint i = 0; i < count; i++) {\n            SLAList[i] = (SLAs[userSLAIndexes[i]]);\n        }\n\n        return(SLAList);\n    }\n\n    /**\n     * @dev public view function that returns the amount of service level\n     * agreements the given user is the owner of\n     * @param _user Address of the user for which to return the amount of\n     * service level agreements\n     */\n    function userSLACount(address _user) public view returns(uint) {\n        return userToSLAIndexes[_user].length;\n    }\n\n    /**\n     * @dev public view function that returns all the service level agreements\n     */\n    function allSLAs() public view returns(SLA[] memory) {\n        return(SLAs);\n    }\n\n    /**\n     * @dev public view function that returns the total amount of service\n     * level agreements\n     */\n    function SLACount() public view returns(uint) {\n        return SLAs.length;\n    }\n}\n",
  "sourcePath": "/Users/wilhempujar/Development/stacktical-dsla-contracts/contracts/SLARegistry.sol",
  "compiler": {
    "name": "solc",
    "version": "0.6.12+commit.27d51765.Emscripten.clang"
  },
  "schemaVersion": "3.2.5",
  "updatedAt": "2020-10-14T21:34:59.507Z",
  "networkType": "ethereum",
  "devdoc": {
    "details": "SLARegistry is a contract for handling creation of service level agreements and keeping track of the created agreements",
    "events": {
      "SLACreated(address,address)": {
        "details": "event for service level agreement creation logging",
        "params": {
          "owner": "The address of the owner of the service level agreement",
          "sla": "The address of the created service level agreement contract"
        }
      }
    },
    "kind": "dev",
    "methods": {
      "SLACount()": {
        "details": "public view function that returns the total amount of service level agreements"
      },
      "allSLAs()": {
        "details": "public view function that returns all the service level agreements"
      },
      "constructor": {
        "details": "constructor",
        "params": {
          "_messengerAddress": "the address of the chainlink messenger contract"
        }
      },
      "createSLA(address,bytes32[],address[],uint256,string,uint256,address)": {
        "details": "public function for creating service level agreements",
        "params": {
          "_SLONames": "Array of the names of the service level objectives in bytes32",
          "_SLOs": "Array of service level objective contract addressess service level objective breach",
          "_ipfsHash": "String with the ipfs hash that contains extra information about the service level agreement",
          "_owner": "Address of the owner of the service level agreement",
          "_sliInterval": "uint the interval in seconds between requesting a new SLI",
          "_stake": "Uint of the amount required to stake when signing the service level agreement"
        }
      },
      "requestSLI(bytes,address,bytes32)": {
        "details": "Gets SLI information for the specified SLA and SLO",
        "params": {
          "_data": "Oracle Proof",
          "_sla": "SLA Address",
          "_sloName": "SLO Name"
        }
      },
      "userSLACount(address)": {
        "details": "public view function that returns the amount of service level agreements the given user is the owner of",
        "params": {
          "_user": "Address of the user for which to return the amount of service level agreements"
        }
      },
      "userSLAs(address)": {
        "details": "public view function that returns the service level agreements that the given user is the owner of",
        "params": {
          "_user": "Address of the user for which to return the service level agreements"
        }
      }
    },
    "title": "SLARegistry",
    "version": 1
  },
  "userdoc": {
    "kind": "user",
    "methods": {},
    "version": 1
  }
}