{
  "contractName": "SLARegistry",
  "abi": [
    {
      "inputs": [
        {
          "internalType": "contract SLORegistry",
          "name": "_sloRegistry",
          "type": "address"
        },
        {
          "internalType": "contract PeriodRegistry",
          "name": "_periodRegistry",
          "type": "address"
        },
        {
          "internalType": "contract MessengerRegistry",
          "name": "_messengerRegistry",
          "type": "address"
        },
        {
          "internalType": "contract StakeRegistry",
          "name": "_stakeRegistry",
          "type": "address"
        },
        {
          "internalType": "bool",
          "name": "_checkPastPeriod",
          "type": "bool"
        }
      ],
      "stateMutability": "nonpayable",
      "type": "constructor"
    },
    {
      "anonymous": false,
      "inputs": [
        {
          "indexed": true,
          "internalType": "contract SLA",
          "name": "sla",
          "type": "address"
        },
        {
          "indexed": true,
          "internalType": "address",
          "name": "owner",
          "type": "address"
        }
      ],
      "name": "SLACreated",
      "type": "event"
    },
    {
      "inputs": [
        {
          "internalType": "uint256",
          "name": "",
          "type": "uint256"
        }
      ],
      "name": "SLAs",
      "outputs": [
        {
          "internalType": "contract SLA",
          "name": "",
          "type": "address"
        }
      ],
      "stateMutability": "view",
      "type": "function",
      "constant": true
    },
    {
      "inputs": [],
      "name": "checkPastPeriod",
      "outputs": [
        {
          "internalType": "bool",
          "name": "",
          "type": "bool"
        }
      ],
      "stateMutability": "view",
      "type": "function",
      "constant": true
    },
    {
      "inputs": [],
      "name": "messengerRegistry",
      "outputs": [
        {
          "internalType": "contract MessengerRegistry",
          "name": "",
          "type": "address"
        }
      ],
      "stateMutability": "view",
      "type": "function",
      "constant": true
    },
    {
      "inputs": [],
      "name": "periodRegistry",
      "outputs": [
        {
          "internalType": "contract PeriodRegistry",
          "name": "",
          "type": "address"
        }
      ],
      "stateMutability": "view",
      "type": "function",
      "constant": true
    },
    {
      "inputs": [],
      "name": "sloRegistry",
      "outputs": [
        {
          "internalType": "contract SLORegistry",
          "name": "",
          "type": "address"
        }
      ],
      "stateMutability": "view",
      "type": "function",
      "constant": true
    },
    {
      "inputs": [],
      "name": "stakeRegistry",
      "outputs": [
        {
          "internalType": "contract StakeRegistry",
          "name": "",
          "type": "address"
        }
      ],
      "stateMutability": "view",
      "type": "function",
      "constant": true
    },
    {
      "inputs": [
        {
          "internalType": "uint256",
          "name": "_sloValue",
          "type": "uint256"
        },
        {
          "internalType": "enum SLORegistry.SLOType",
          "name": "_sloType",
          "type": "uint8"
        },
        {
          "internalType": "bool",
          "name": "_whitelisted",
          "type": "bool"
        },
        {
          "internalType": "address",
          "name": "_messengerAddress",
          "type": "address"
        },
        {
          "internalType": "enum PeriodRegistry.PeriodType",
          "name": "_periodType",
          "type": "uint8"
        },
        {
          "internalType": "uint128",
          "name": "_initialPeriodId",
          "type": "uint128"
        },
        {
          "internalType": "uint128",
          "name": "_finalPeriodId",
          "type": "uint128"
        },
        {
          "internalType": "string",
          "name": "_ipfsHash",
          "type": "string"
        },
        {
          "internalType": "bytes32[]",
          "name": "_extraData",
          "type": "bytes32[]"
        },
        {
          "internalType": "uint256",
          "name": "_leverage",
          "type": "uint256"
        }
      ],
      "name": "createSLA",
      "outputs": [],
      "stateMutability": "nonpayable",
      "type": "function"
    },
    {
      "inputs": [
        {
          "internalType": "uint256",
          "name": "_periodId",
          "type": "uint256"
        },
        {
          "internalType": "contract SLA",
          "name": "_sla",
          "type": "address"
        },
        {
          "internalType": "bool",
          "name": "_ownerApproval",
          "type": "bool"
        }
      ],
      "name": "requestSLI",
      "outputs": [],
      "stateMutability": "nonpayable",
      "type": "function"
    },
    {
      "inputs": [
        {
          "internalType": "contract SLA",
          "name": "_sla",
          "type": "address"
        }
      ],
      "name": "returnLockedValue",
      "outputs": [],
      "stateMutability": "nonpayable",
      "type": "function"
    },
    {
      "inputs": [
        {
          "internalType": "address",
          "name": "_messengerAddress",
          "type": "address"
        },
        {
          "internalType": "string",
          "name": "_specificationUrl",
          "type": "string"
        }
      ],
      "name": "registerMessenger",
      "outputs": [],
      "stateMutability": "nonpayable",
      "type": "function"
    },
    {
      "inputs": [
        {
          "internalType": "address",
          "name": "_user",
          "type": "address"
        }
      ],
      "name": "userSLAs",
      "outputs": [
        {
          "internalType": "contract SLA[]",
          "name": "",
          "type": "address[]"
        }
      ],
      "stateMutability": "view",
      "type": "function",
      "constant": true
    },
    {
      "inputs": [],
      "name": "allSLAs",
      "outputs": [
        {
          "internalType": "contract SLA[]",
          "name": "",
          "type": "address[]"
        }
      ],
      "stateMutability": "view",
      "type": "function",
      "constant": true
    },
    {
      "inputs": [
        {
          "internalType": "address",
          "name": "_slaAddress",
          "type": "address"
        }
      ],
      "name": "isRegisteredSLA",
      "outputs": [
        {
          "internalType": "bool",
          "name": "",
          "type": "bool"
        }
      ],
      "stateMutability": "view",
      "type": "function",
      "constant": true
    }
  ],
  "bytecode": "0x60a06040523480156200001157600080fd5b5060405162006244380380620062448339810160408190526200003491620001b4565b600080546001600160a01b0319166001600160a01b03878116919091178083556040805163f388158960e01b81529051919092169263f3881589926004808201939182900301818387803b1580156200008c57600080fd5b505af1158015620000a1573d6000803e3d6000fd5b5050600180546001600160a01b038089166001600160a01b03199283161790925560038054878416921691909117908190556040805163f388158960e01b8152905191909216935063f38815899250600480830192600092919082900301818387803b1580156200011157600080fd5b505af115801562000126573d6000803e3d6000fd5b5050600280546001600160a01b0319166001600160a01b0387811691909117918290556040805163f388158960e01b8152905192909116935063f3881589925060048082019260009290919082900301818387803b1580156200018857600080fd5b505af11580156200019d573d6000803e3d6000fd5b50505050151560f81b608052506200024f92505050565b600080600080600060a08688031215620001cc578081fd5b8551620001d98162000236565b6020870151909550620001ec8162000236565b6040870151909450620001ff8162000236565b6060870151909350620002128162000236565b6080870151909250801515811462000228578182fd5b809150509295509295909350565b6001600160a01b03811681146200024c57600080fd5b50565b60805160f81c615fd2620002726000398061083452806113ef5250615fd26000f3fe60806040523480156200001157600080fd5b5060043610620000d05760003560e01c806368304835116200008757806368304835146200016e578063788164b114620001785780638d2113ed146200018f57806396bddc1014620001a65780639fc4caa514620001b0578063a9e43e7f14620001ba578063c4277a7b14620001d357620000d0565b80632575d7ca14620000d55780633904e06b14620000ee57806350c5abfe1462000105578063516c285714620001345780635a7d1e5d146200015a5780635c4df3321462000164575b600080fd5b620000ec620000e6366004620015e2565b620001ea565b005b620000ec620000ff36600462001750565b620005ff565b6200011c62000116366004620016d8565b62000bcf565b6040516200012b9190620018e7565b60405180910390f35b6200014b62000145366004620015e2565b62000bf7565b6040516200012b919062001a41565b6200011c62000d4b565b6200011c62000d5a565b6200011c62000d69565b620000ec620001893660046200170a565b62000d78565b620000ec620001a036600462001627565b620012b7565b6200014b6200137a565b6200011c620013de565b620001c4620013ed565b6040516200012b919062001a90565b620001c4620001e4366004620015e2565b62001411565b620001f58162001411565b6200021d5760405162461bcd60e51b8152600401620002149062001d9c565b60405180910390fd5b806001600160a01b0316638da5cb5b6040518163ffffffff1660e01b815260040160206040518083038186803b1580156200025757600080fd5b505afa1580156200026c573d6000803e3d6000fd5b505050506040513d601f19601f8201168201806040525081019062000292919062001608565b6001600160a01b0316336001600160a01b031614620002c55760405162461bcd60e51b8152600401620002149062001d57565b6000816001600160a01b0316633385d3346040518163ffffffff1660e01b815260040160206040518083038186803b1580156200030157600080fd5b505afa15801562000316573d6000803e3d6000fd5b505050506040513d601f19601f820116820180604052508101906200033c9190620016b9565b6001600160801b031690506000826001600160a01b03166346e0fbae6040518163ffffffff1660e01b815260040160206040518083038186803b1580156200038357600080fd5b505afa15801562000398573d6000803e3d6000fd5b505050506040513d601f19601f82011682018060405250810190620003be91906200169a565b60015460405160016259edcb60e01b031981529192506000916001600160a01b039091169063ffa6123590620003fb908590879060040162001ad7565b604080518083038186803b1580156200041357600080fd5b505afa15801562000428573d6000803e3d6000fd5b505050506040513d601f19601f820116820180604052508101906200044e919062001843565b9150506000846001600160a01b0316634190edde856040518263ffffffff1660e01b815260040162000481919062001ea1565b60606040518083038186803b1580156200049a57600080fd5b505afa158015620004af573d6000803e3d6000fd5b505050506040513d601f19601f82011682018060405250810190620004d5919062001867565b92505050846001600160a01b0316637fd788aa6040518163ffffffff1660e01b815260040160206040518083038186803b1580156200051357600080fd5b505afa15801562000528573d6000803e3d6000fd5b505050506040513d601f19601f820116820180604052508101906200054e91906200167b565b8062000573575081421015801562000573575060008160028111156200057057fe5b14155b620005925760405162461bcd60e51b8152600401620002149062001e0a565b6003546040516312baebe560e11b81526001600160a01b0390911690632575d7ca90620005c4908890600401620018e7565b600060405180830381600087803b158015620005df57600080fd5b505af1158015620005f4573d6000803e3d6000fd5b505050505050505050565b600154604051636efe27ef60e11b81526000916001600160a01b03169063ddfc4fde9062000634908a908a9060040162001ab0565b60206040518083038186803b1580156200064d57600080fd5b505afa15801562000662573d6000803e3d6000fd5b505050506040513d601f19601f820116820180604052508101906200068891906200167b565b905080620006aa5760405162461bcd60e51b8152600401620002149062001bb2565b600154604051636efe27ef60e11b81526001600160a01b039091169063ddfc4fde90620006de908a90899060040162001ab0565b60206040518083038186803b158015620006f757600080fd5b505afa1580156200070c573d6000803e3d6000fd5b505050506040513d601f19601f820116820180604052508101906200073291906200167b565b905080620007545760405162461bcd60e51b8152600401620002149062001b7f565b6001546040516347ef60ed60e11b81526000916001600160a01b031690638fdec1da9062000787908b9060040162001a9b565b60206040518083038186803b158015620007a057600080fd5b505afa158015620007b5573d6000803e3d6000fd5b505050506040513d601f19601f82011682018060405250810190620007db91906200167b565b905080620007fd5760405162461bcd60e51b8152600401620002149062001b48565b866001600160801b0316866001600160801b03161015620008325760405162461bcd60e51b8152600401620002149062001c7d565b7f0000000000000000000000000000000000000000000000000000000000000000156200090757600154604051631e8760ef60e21b81526000916001600160a01b031690637a1d83bc906200088e908c908c9060040162001ab0565b60206040518083038186803b158015620008a757600080fd5b505afa158015620008bc573d6000803e3d6000fd5b505050506040513d601f19601f82011682018060405250810190620008e291906200167b565b90508015620009055760405162461bcd60e51b8152600401620002149062001cdb565b505b60025460405163ef4003db60e01b81526000916001600160a01b03169063ef4003db906200093a908d90600401620018e7565b60206040518083038186803b1580156200095357600080fd5b505afa15801562000968573d6000803e3d6000fd5b505050506040513d601f19601f820116820180604052508101906200098e91906200167b565b9050600181151514620009b55760405162461bcd60e51b8152600401620002149062001b05565b6000338c8b8d8c8c6004805490508d8d8d604051620009d490620014ab565b620009e99a999897969594939291906200195e565b604051809103906000f08015801562000a06573d6000803e3d6000fd5b5090506000809054906101000a90046001600160a01b03166001600160a01b0316630c7ad72b8f8f846040518463ffffffff1660e01b815260040162000a4f9392919062001ed1565b600060405180830381600087803b15801562000a6a57600080fd5b505af115801562000a7f573d6000803e3d6000fd5b5050600354604051633d7da60560e11b81526001600160a01b039091169250637afb4c0a915062000abe90339085908e8e036001019060040162001932565b600060405180830381600087803b15801562000ad957600080fd5b505af115801562000aee573d6000803e3d6000fd5b505060048054600180820183557f8a35acfbc15ff81a39ae7d344fd709f28e8600b4aa8c65c6b64bfe7fe36bd19b90910180546001600160a01b0319166001600160a01b0387169081179091556000908152600660205260408120805460ff191683179055915491935062000b6492506200142f565b33600081815260056020908152604080832080546001810182559084529183209091018490555192935090916001600160a01b038516917fb52f284a6c14f1a66ab5513b5b539066933e58e69e6432666f0e3c8c8a7d750391a3505050505050505050505050505050565b6004818154811062000bdd57fe5b6000918252602090912001546001600160a01b0316905081565b6001600160a01b038116600090815260056020526040902054606090818167ffffffffffffffff8111801562000c2c57600080fd5b5060405190808252806020026020018201604052801562000c57578160200160208202803683370190505b506001600160a01b0385166000908152600560209081526040918290208054835181840281018401909452808452939450606093909183018282801562000cbe57602002820191906000526020600020905b81548152602001906001019080831162000ca9575b50939450600093505050505b8381101562000d4157600482828151811062000ce257fe5b60200260200101518154811062000cf557fe5b9060005260206000200160009054906101000a90046001600160a01b031683828151811062000d2057fe5b6001600160a01b039092166020928302919091019091015260010162000cca565b5090949350505050565b6000546001600160a01b031681565b6002546001600160a01b031681565b6003546001600160a01b031681565b62000d838262001411565b62000da25760405162461bcd60e51b8152600401620002149062001d9c565b816001600160a01b031663b1659bad6040518163ffffffff1660e01b815260040160206040518083038186803b15801562000ddc57600080fd5b505afa15801562000df1573d6000803e3d6000fd5b505050506040513d601f19601f8201168201806040525081019062000e179190620016f1565b831462000e385760405162461bcd60e51b8152600401620002149062001dd3565b6040516320c876ef60e11b81526000906001600160a01b03841690634190edde9062000e6990879060040162001ea1565b60606040518083038186803b15801562000e8257600080fd5b505afa15801562000e97573d6000803e3d6000fd5b505050506040513d601f19601f8201168201806040525081019062000ebd919062001867565b92506000915062000ecb9050565b81600281111562000ed857fe5b1462000ef85760405162461bcd60e51b8152600401620002149062001be5565b6000836001600160a01b0316637fd788aa6040518163ffffffff1660e01b815260040160206040518083038186803b15801562000f3457600080fd5b505afa15801562000f49573d6000803e3d6000fd5b505050506040513d601f19601f8201168201806040525081019062000f6f91906200167b565b9050801562000f925760405162461bcd60e51b8152600401620002149062001d07565b60405163021eef7f60e01b81526000906001600160a01b0386169063021eef7f9062000fc390899060040162001ea1565b60206040518083038186803b15801562000fdc57600080fd5b505afa15801562000ff1573d6000803e3d6000fd5b505050506040513d601f19601f820116820180604052508101906200101791906200167b565b905080620010395760405162461bcd60e51b8152600401620002149062001e55565b6000856001600160a01b03166346e0fbae6040518163ffffffff1660e01b815260040160206040518083038186803b1580156200107557600080fd5b505afa1580156200108a573d6000803e3d6000fd5b505050506040513d601f19601f82011682018060405250810190620010b091906200169a565b6001546040516331edb3ad60e21b81529192506000916001600160a01b039091169063c7b6ceb490620010ea9085908c9060040162001ad7565b60206040518083038186803b1580156200110357600080fd5b505afa15801562001118573d6000803e3d6000fd5b505050506040513d601f19601f820116820180604052508101906200113e91906200167b565b905080620011605760405162461bcd60e51b8152600401620002149062001c35565b6000876001600160a01b031663a224ee9c6040518163ffffffff1660e01b815260040160206040518083038186803b1580156200119c57600080fd5b505afa158015620011b1573d6000803e3d6000fd5b505050506040513d601f19601f82011682018060405250810190620011d7919062001608565b604051634bd410c960e11b81529091506001600160a01b038216906397a82192906200120e908c908c908c90339060040162001eaa565b600060405180830381600087803b1580156200122957600080fd5b505af11580156200123e573d6000803e3d6000fd5b50506003546040516308bcf0cf60e21b81526001600160a01b0390911692506322f3c33c915062001278908b9033908e9060040162001a1d565b600060405180830381600087803b1580156200129357600080fd5b505af1158015620012a8573d6000803e3d6000fd5b50505050505050505050505050565b816001600160a01b031663f38815896040518163ffffffff1660e01b8152600401600060405180830381600087803b158015620012f357600080fd5b505af115801562001308573d6000803e3d6000fd5b505060025460405163eabb8a7360e01b81526001600160a01b03909116925063eabb8a7391506200134290339086908690600401620018fb565b600060405180830381600087803b1580156200135d57600080fd5b505af115801562001372573d6000803e3d6000fd5b505050505050565b60606004805480602002602001604051908101604052809291908181526020018280548015620013d457602002820191906000526020600020905b81546001600160a01b03168152600190910190602001808311620013b5575b5050505050905090565b6001546001600160a01b031681565b7f000000000000000000000000000000000000000000000000000000000000000081565b6001600160a01b031660009081526006602052604090205460ff1690565b60006200147383836040518060400160405280601e81526020017f536166654d6174683a207375627472616374696f6e206f766572666c6f7700008152506200147c565b90505b92915050565b60008184841115620014a35760405162461bcd60e51b815260040162000214919062001af0565b505050900390565b61401b8062001f8283390190565b8035620014768162001f38565b600082601f830112620014d7578081fd5b813567ffffffffffffffff811115620014ee578182fd5b60208082026200150082820162001f02565b838152935081840185830182870184018810156200151d57600080fd5b600092505b848310156200154257803582526001929092019190830190830162001522565b505050505092915050565b8035620014768162001f4e565b8035620014768162001f5d565b600082601f83011262001578578081fd5b813567ffffffffffffffff8111156200158f578182fd5b620015a4601f8201601f191660200162001f02565b9150808252836020828501011115620015bc57600080fd5b8060208401602084013760009082016020015292915050565b8035620014768162001f6b565b600060208284031215620015f4578081fd5b8135620016018162001f38565b9392505050565b6000602082840312156200161a578081fd5b8151620016018162001f38565b600080604083850312156200163a578081fd5b8235620016478162001f38565b9150602083013567ffffffffffffffff81111562001663578182fd5b620016718582860162001567565b9150509250929050565b6000602082840312156200168d578081fd5b8151620016018162001f4e565b600060208284031215620016ac578081fd5b8151620016018162001f5d565b600060208284031215620016cb578081fd5b8151620016018162001f6b565b600060208284031215620016ea578081fd5b5035919050565b60006020828403121562001703578081fd5b5051919050565b6000806000606084860312156200171f578081fd5b833592506020840135620017338162001f38565b91506040840135620017458162001f4e565b809150509250925092565b6000806000806000806000806000806101408b8d03121562001770578586fd5b8a359950620017838c60208d016200155a565b9850620017948c60408d016200154d565b9750620017a58c60608d01620014b9565b9650620017b68c60808d016200155a565b9550620017c78c60a08d01620015d5565b9450620017d88c60c08d01620015d5565b935060e08b013567ffffffffffffffff80821115620017f5578485fd5b620018038e838f0162001567565b94506101008d01359150808211156200181a578384fd5b50620018298d828e01620014c6565b9250506101208b013590509295989b9194979a5092959850565b6000806040838503121562001856578182fd5b505080516020909101519092909150565b6000806000606084860312156200187c578081fd5b835192506020840151915060408401516003811062001745578182fd5b60008151808452815b81811015620018c057602081850181015186830182015201620018a2565b81811115620018d25782602083870101525b50601f01601f19169290920160200192915050565b6001600160a01b0391909116815260200190565b6001600160a01b03848116825283166020820152606060408201819052600090620019299083018462001899565b95945050505050565b6001600160a01b0393841681529190921660208201526001600160801b03909116604082015260600190565b600061014060018060a01b03808e16845260208d151581860152620019838d62001f2a565b604085018d9052908b1660608501526001600160801b038a8116608086015289811660a086015288811660c086015260e0850183905290620019c88386018962001899565b858103610100870152875180825290820193508188019250845b8181101562001a0057835185529382019392820192600101620019e2565b5050505061012092909201929092529a9950505050505050505050565b6001600160a01b039384168152919092166020820152604081019190915260600190565b6020808252825182820181905260009190848201906040850190845b8181101562001a845783516001600160a01b03168352928401929184019160010162001a5d565b50909695505050505050565b901515815260200190565b6020810162001aaa8362001f2a565b91905290565b6040810162001abf8462001f2a565b9281526001600160801b039190911660209091015290565b6040810162001ae68462001f2a565b9281526020015290565b60006020825262001473602083018462001899565b60208082526023908201527f6d657373656e6765722061646472657373206973206e6f7420726567697374656040820152621c995960ea1b606082015260800190565b6020808252601f908201527f506572696f642074797065206e6f7420696e697469616c697a65642079657400604082015260600190565b602080825260199082015278119a5b985b081c195c9a5bd9081a59081b9bdd081d985b1a59603a1b604082015260600190565b602080825260199082015278119a5c9cdd081c195c9a5bd9081a59081b9bdd081d985b1a59603a1b604082015260600190565b60208082526030908201527f534c4120636f6e74726163742077617320616c7265616479207665726966696560408201526f1908199bdc881d1a19481c195c9a5bd960821b606082015260800190565b60208082526028908201527f534c4120636f6e747261637420706572696f6420686173206e6f742066696e696040820152671cda1959081e595d60c21b606082015260800190565b602080825260409082018190527f66696e616c506572696f6449642073686f756c64206265206772656174657220908201527f7468616e206f7220657175616c20746f20696e697469616c506572696f644964606082015260800190565b60208082526012908201527114195c9a5bd9081a185cc81cdd185c9d195960721b604082015260600190565b60208082526030908201527f53686f756c64206f6e6c792062652063616c6c656420666f72206e6f7420627260408201526f65616368656420636f6e74726163747360801b606082015260800190565b60208082526025908201527f4f6e6c7920534c41206f776e65722063616e20636c61696d206c6f636b65642060408201526476616c756560d81b606082015260800190565b6020808252601c908201527f534c4120636f6e74726163742073686f756c642062652076616c696400000000604082015260600190565b6020808252601e908201527f53686f756c64206f6e6c7920766572696679206e65787420706572696f640000604082015260600190565b6020808252602b908201527f53686f756c64206f6e6c7920776974686472617720666f722066696e6973686560408201526a6420636f6e74726163747360a81b606082015260800190565b6020808252602c908201527f506572696f64204944206e6f74207265676973746572656420696e207468652060408201526b14d3104818dbdb9d1c9858dd60a21b606082015260800190565b90815260200190565b9384526001600160a01b039283166020850152901515604084015216606082015260800190565b8381526060810162001ee38462001f2a565b60208201939093526001600160a01b0391909116604090910152919050565b60405181810167ffffffffffffffff8111828210171562001f2257600080fd5b604052919050565b6006811062001f3557fe5b50565b6001600160a01b038116811462001f3557600080fd5b801515811462001f3557600080fd5b6006811062001f3557600080fd5b6001600160801b038116811462001f3557600080fdfe610240604052600d805460ff191690553480156200001c57600080fd5b506040516200401b3803806200401b8339810160408190526200003f916200098e565b33888a86846000620000596001600160e01b03620005ca16565b600080546001600160a01b0319166001600160a01b03831690811782556040519293509160008051602062003ffb833981519152908290a350846001600160a01b031663683048356040518163ffffffff1660e01b815260040160206040518083038186803b158015620000cc57600080fd5b505afa158015620000e1573d6000803e3d6000fd5b505050506040513d601f19601f8201168201806040525081019062000107919062000968565b600160006101000a8154816001600160a01b0302191690836001600160a01b03160217905550846001600160a01b0316639fc4caa56040518163ffffffff1660e01b815260040160206040518083038186803b1580156200016757600080fd5b505afa1580156200017c573d6000803e3d6000fd5b505050506040513d601f19601f82011682018060405250810190620001a2919062000968565b60601b6001600160601b031916608052836005811115620001bf57fe5b610100816005811115620001cf57fe5b60f890811b909152841515901b610120525060015460408051637b8041cf60e11b815290516000926001600160a01b03169163f700839e9160048083019260e0929190829003018186803b1580156200022757600080fd5b505afa1580156200023c573d6000803e3d6000fd5b505050506040513d601f19601f8201168201806040525081019062000262919062000aa4565b5050505050509050600160009054906101000a90046001600160a01b03166001600160a01b0316638b8e53096040518163ffffffff1660e01b815260040160206040518083038186803b158015620002b957600080fd5b505afa158015620002ce573d6000803e3d6000fd5b505050506040513d601f19601f82011682018060405250810190620002f4919062000968565b60601b6001600160601b03191660c05260e08190526200031433620005cf565b6001600160801b0319608084901b1660a05260015460408051631c79942160e31b815290516001600160a01b039092169163e3cca10891600480820192602092909190829003018186803b1580156200036c57600080fd5b505afa15801562000381573d6000803e3d6000fd5b505050506040513d601f19601f82011682018060405250810190620003a7919062000a8b565b821115620003d25760405162461bcd60e51b8152600401620003c99062000b75565b60405180910390fd5b506101405250620003f192508c9150506001600160e01b036200067216565b82516200040690600a90602086019062000728565b506001600160601b0319606088901b1661016052600b80546001600160a01b03191633179081905560408051639fc4caa560e01b815290516001600160a01b039290921691639fc4caa591600480820192602092909190829003018186803b1580156200047257600080fd5b505afa15801562000487573d6000803e3d6000fd5b505050506040513d601f19601f82011682018060405250810190620004ad919062000968565b60601b6001600160601b03191661018052600b5460408051635a7d1e5d60e01b815290516001600160a01b0390921691635a7d1e5d91600480820192602092909190829003018186803b1580156200050457600080fd5b505afa15801562000519573d6000803e3d6000fd5b505050506040513d601f19601f820116820180604052508101906200053f919062000968565b60601b6001600160601b0319166101a052436101c052608086811b6001600160801b03199081166101e0529086901b16610200528760058111156200058057fe5b6102208160058111156200059057fe5b60f81b9052508151620005ab90600c906020850190620007ad565b5050506001600160801b03909316600e555062000c3595505050505050565b335b90565b620005e26001600160e01b03620005ca16565b6000546001600160a01b03908116911614620006125760405162461bcd60e51b8152600401620003c99062000bc0565b6001600160a01b03811660009081526009602052604090205460ff16156200064e5760405162461bcd60e51b8152600401620003c99062000af8565b6001600160a01b03166000908152600960205260409020805460ff19166001179055565b620006856001600160e01b03620005ca16565b6000546001600160a01b03908116911614620006b55760405162461bcd60e51b8152600401620003c99062000bc0565b6001600160a01b038116620006de5760405162461bcd60e51b8152600401620003c99062000b2f565b600080546040516001600160a01b038085169392169160008051602062003ffb83398151915291a3600080546001600160a01b0319166001600160a01b0392909216919091179055565b828054600181600116156101000203166002900490600052602060002090601f016020900481019282601f106200076b57805160ff19168380011785556200079b565b828001600101855582156200079b579182015b828111156200079b5782518255916020019190600101906200077e565b50620007a9929150620007ea565b5090565b8280548282559060005260206000209081019282156200079b57916020028201828111156200079b5782518255916020019190600101906200077e565b620005cc91905b80821115620007a95760008155600101620007f1565b8051620008148162000c1c565b92915050565b600082601f8301126200082b578081fd5b81516001600160401b0381111562000841578182fd5b60208082026200085382820162000bf5565b838152935081840185830182870184018810156200087057600080fd5b600092505b848310156200089557805182526001929092019190830190830162000875565b505050505092915050565b805180151581146200081457600080fd5b8051600681106200081457600080fd5b600082601f830112620008d2578081fd5b81516001600160401b03811115620008e8578182fd5b6020620008fe601f8301601f1916820162000bf5565b925081835284818386010111156200091557600080fd5b60005b828110156200093557848101820151848201830152810162000918565b82811115620009475760008284860101525b50505092915050565b80516001600160801b03811681146200081457600080fd5b6000602082840312156200097a578081fd5b8151620009878162000c1c565b9392505050565b6000806000806000806000806000806101408b8d031215620009ae578586fd5b620009ba8c8c62000807565b9950620009cb8c60208d01620008a0565b9850620009dc8c60408d01620008b1565b9750620009ed8c60608d0162000807565b9650620009fe8c60808d0162000950565b955062000a0f8c60a08d0162000950565b945062000a208c60c08d0162000950565b60e08c01519094506001600160401b038082111562000a3d578485fd5b62000a4b8e838f01620008c1565b94506101008d015191508082111562000a62578384fd5b5062000a718d828e016200081a565b9250506101208b015190509295989b9194979a5092959850565b60006020828403121562000a9d578081fd5b5051919050565b600080600080600080600060e0888a03121562000abf578283fd5b5050855160208701516040880151606089015160808a015160a08b015160c0909b0151949c939b50919990985090965094509092509050565b60208082526018908201527f5573657220616c72656164792077686974656c69737465640000000000000000604082015260600190565b60208082526026908201527f4f776e61626c653a206e6577206f776e657220697320746865207a65726f206160408201526564647265737360d01b606082015260800190565b6020808252602b908201527f6c657665726167652073686f756c6420626520736d616c6c6572207468616e2060408201526a6d61784c6576657261676560a81b606082015260800190565b6020808252818101527f4f776e61626c653a2063616c6c6572206973206e6f7420746865206f776e6572604082015260600190565b6040518181016001600160401b038111828210171562000c1457600080fd5b604052919050565b6001600160a01b038116811462000c3257600080fd5b50565b60805160601c60a05160801c60c05160601c60e0516101005160f81c6101205160f81c610140516101605160601c6101805160601c6101a05160601c6101c0516101e05160801c6102005160801c6102205160f81c6132ca62000d3160003980610c6852806111645250806105635280610c2052806111855280611233528061179e52508061052a5280610b5d5280611733528061177d525080610b395250806115a852806116475250806111355250806112a252806114fb525080610bfc5280611ae852806122b7528061265d525080610b155280611a2752505080610eb05250806119365250806108f4528061185c5250506132ca6000f3fe608060405234801561001057600080fd5b506004361061025e5760003560e01c806378025ec411610146578063c26ff615116100c3578063db69a46211610087578063db69a462146104d5578063f2db10fe146104dd578063f2fde38b146104e5578063f7e9dfff146104f8578063f9902bb114610500578063fd5e6dd1146105135761025e565b8063c26ff61514610474578063c623674f14610487578063c8b5c2481461049c578063cbe230c3146104af578063d7a5c422146104c25761025e565b80639fabeb001161010a5780639fabeb0014610441578063a224ee9c14610449578063a7e8d8d414610451578063b1659bad14610464578063b7bc347e1461046c5761025e565b806378025ec4146104035780637fd788aa146104165780638da5cb5b1461041e57806396f76f11146104265780639b19251a1461042e5761025e565b806346e0fbae116101df5780635c1c20de116101a35780635c1c20de146103a75780635e5f2e26146103af578063639b6fc3146103c2578063715018a6146103d5578063740882ac146103dd578063747b8050146103f05761025e565b806346e0fbae1461032b578063484fbf2b146103405780634e0c91f6146103535780634fb2647e1461037357806357ac94f0146103865761025e565b80632526743a116102265780632526743a146102d157806326db18ac146102e65780632c86d98e146102f95780633385d334146103015780634190edde146103095761025e565b8063021eef7f146102635780630bea440d1461028c578063171e44ea146102a157806318e45427146102b45780631bf30929146102bc575b600080fd5b610276610271366004612a4b565b610526565b6040516102839190612cb9565b60405180910390f35b61029f61029a366004612a7b565b6105a3565b005b61029f6102af36600461295c565b610707565b610276610b13565b6102c4610b37565b6040516102839190612cc4565b6102d9610b5b565b60405161028391906131de565b61029f6102f4366004612a7b565b610b7f565b6102c4610bfa565b6102d9610c1e565b61031c610317366004612a4b565b610c42565b60405161028393929190613217565b610333610c66565b6040516102839190612ccd565b6102c461034e36600461295c565b610c8a565b61036661036136600461295c565b610c9c565b6040516102839190612c68565b61036661038136600461295c565b610cb7565b610399610394366004612994565b610cd2565b604051610283929190612c7c565b6102c4610eae565b6103666103bd366004612a4b565b610ed2565b6102c46103d036600461295c565b610ef9565b61029f610f0b565b61029f6103eb3660046129bf565b610f8a565b61029f6103fe36600461295c565b611068565b6102c4610411366004612a4b565b6110fa565b610276611118565b610366611121565b610276611130565b61027661043c36600461295c565b611285565b6102c461129a565b6103666112a0565b61027661045f36600461295c565b6112c4565b6102c46112d9565b6102c46112df565b61029f6104823660046129bf565b6112e5565b61048f6113c9565b6040516102839190612d07565b61029f6104aa366004612a7b565b611457565b6102766104bd36600461295c565b611495565b61029f6104d0366004612ad1565b6114f0565b61036661184b565b6102d961185a565b61029f6104f336600461295c565b61187e565b610366611934565b61029f61050e36600461295c565b611958565b610366610521366004612a4b565b6119eb565b60007f00000000000000000000000000000000000000000000000000000000000000006001600160801b03168210156105615750600061059e565b7f00000000000000000000000000000000000000000000000000000000000000006001600160801b031682111561059a5750600061059e565b5060015b919050565b81600081116105cd5760405162461bcd60e51b81526004016105c49061313a565b60405180910390fd5b60006105d7611130565b905080156105f75760405162461bcd60e51b81526004016105c490612fb3565b61060184846119f8565b600b5460408051636830483560e01b815290516000926001600160a01b0316916368304835916004808301926020929190829003018186803b15801561064657600080fd5b505afa15801561065a573d6000803e3d6000fd5b505050506040513d601f19601f8201168201806040525081019061067e9190612978565b604051635948284760e11b81529091506001600160a01b0382169063b290508e906106ad903390600401612c68565b602060405180830381600087803b1580156106c757600080fd5b505af11580156106db573d6000803e3d6000fd5b505050506040513d601f19601f820116820180604052508101906106ff9190612a2b565b505050505050565b61070f611f51565b6000546001600160a01b0390811691161461073c5760405162461bcd60e51b81526004016105c49061306a565b60015460408051637b8041cf60e11b815290516000926001600160a01b03169163f700839e9160048083019260e0929190829003018186803b15801561078157600080fd5b505afa158015610795573d6000803e3d6000fd5b505050506040513d601f19601f820116820180604052508101906107b99190612b15565b96505050505050506107ca82611495565b156107e75760405162461bcd60e51b81526004016105c4906130d6565b60015460405163cbe230c360e01b81526001600160a01b039091169063cbe230c390610817908590600401612c68565b60206040518083038186803b15801561082f57600080fd5b505afa158015610843573d6000803e3d6000fd5b505050506040513d601f19601f820116820180604052508101906108679190612a2b565b6108835760405162461bcd60e51b81526004016105c490612e9d565b6008805460018101825560008290527ff3f7a9fe364faab93b216da50a3214154f22a0a2b415b23a84c8169e8b636ee30180546001600160a01b0319166001600160a01b038516179055548110156108ed5760405162461bcd60e51b81526004016105c490612d48565b60606109217f00000000000000000000000000000000000000000000000000000000000000006001600160801b0316611f55565b90506060816040516020016109369190612bb0565b604051602081830303815290604052905060608260405160200161095a9190612be3565b604051602081830303815290604052905060608360405160200161097e9190612c13565b60405160208183030381529060405290506060846040516020016109a29190612c45565b60408051601f1981840301815290829052600154633350214760e11b83529092506000916001600160a01b03909116906366a0428e906109e89088908890600401612d1a565b602060405180830381600087803b158015610a0257600080fd5b505af1158015610a16573d6000803e3d6000fd5b505050506040513d601f19601f82011682018060405250810190610a3a9190612978565b600154604051633350214760e11b81529192506000916001600160a01b03909116906366a0428e90610a729087908790600401612d1a565b602060405180830381600087803b158015610a8c57600080fd5b505af1158015610aa0573d6000803e3d6000fd5b505050506040513d601f19601f82011682018060405250810190610ac49190612978565b6001600160a01b03998a1660009081526005602090815260408083208054948e166001600160a01b031995861617905560049091529020805493909a1692169190911790975550505050505050565b7f000000000000000000000000000000000000000000000000000000000000000081565b7f000000000000000000000000000000000000000000000000000000000000000081565b7f000000000000000000000000000000000000000000000000000000000000000081565b8160008111610ba05760405162461bcd60e51b81526004016105c49061313a565b610ba8611121565b6001600160a01b0316336001600160a01b031614610beb576000610bca611130565b905080610be95760405162461bcd60e51b81526004016105c49061309f565b505b610bf58383612030565b505050565b7f000000000000000000000000000000000000000000000000000000000000000081565b7f000000000000000000000000000000000000000000000000000000000000000081565b600f6020526000908152604090208054600182015460029092015490919060ff1683565b7f000000000000000000000000000000000000000000000000000000000000000081565b60036020526000908152604090205481565b6004602052600090815260409020546001600160a01b031681565b6005602052600090815260409020546001600160a01b031681565b600080600060088481548110610ce457fe5b6000918252602090912001546001600160a01b03169050610d03611121565b6001600160a01b0316856001600160a01b03161415610d3f576001600160a01b0381166000908152600260205260409020549092509050610ea7565b6001600160a01b0380821660009081526004602081815260408084205481516318160ddd60e01b8152915195169485936318160ddd938382019390929190829003018186803b158015610d9157600080fd5b505afa158015610da5573d6000803e3d6000fd5b505050506040513d601f19601f82011682018060405250810190610dc99190612a63565b905080610ddf575090925060009150610ea79050565b6040516370a0823160e01b81526000906001600160a01b038416906370a0823190610e0e908b90600401612c68565b60206040518083038186803b158015610e2657600080fd5b505afa158015610e3a573d6000803e3d6000fd5b505050506040513d601f19601f82011682018060405250810190610e5e9190612a63565b6001600160a01b0385166000908152600360205260409020549091508490610e9e908490610e92908563ffffffff6121d716565b9063ffffffff61221a16565b95509550505050505b9250929050565b7f000000000000000000000000000000000000000000000000000000000000000081565b60088181548110610edf57fe5b6000918252602090912001546001600160a01b0316905081565b60026020526000908152604090205481565b610f13611f51565b6000546001600160a01b03908116911614610f405760405162461bcd60e51b81526004016105c49061306a565b600080546040516001600160a01b03909116907f8be0079c531659141344cd1fd0a4f28419497f9722a3daafe3b4186f6b6457e0908390a3600080546001600160a01b0319169055565b610f92611f51565b6000546001600160a01b03908116911614610fbf5760405162461bcd60e51b81526004016105c49061306a565b60005b81811015610bf55760096000848484818110610fda57fe5b9050602002016020810190610fef919061295c565b6001600160a01b0316815260208101919091526040016000205460ff166110605760016009600085858581811061102257fe5b9050602002016020810190611037919061295c565b6001600160a01b031681526020810191909152604001600020805460ff19169115159190911790555b600101610fc2565b611070611f51565b6000546001600160a01b0390811691161461109d5760405162461bcd60e51b81526004016105c49061306a565b6001600160a01b03811660009081526009602052604090205460ff16156110d65760405162461bcd60e51b81526004016105c490612d9b565b6001600160a01b03166000908152600960205260409020805460ff19166001179055565b600c818154811061110757fe5b600091825260209091200154905081565b600d5460ff1690565b6000546001600160a01b031690565b6000807f00000000000000000000000000000000000000000000000000000000000000006001600160a01b031663ffa612357f00000000000000000000000000000000000000000000000000000000000000007f00000000000000000000000000000000000000000000000000000000000000006040518363ffffffff1660e01b81526004016111c1929190612ce1565b604080518083038186803b1580156111d857600080fd5b505afa1580156111ec573d6000803e3d6000fd5b505050506040513d601f19601f820116820180604052508101906112109190612af2565b600d5490925060ff16151560011490508061127f575080421015801561127f57507f00000000000000000000000000000000000000000000000000000000000000006001600160801b03166000908152600f6020526040812060029081015460ff169081111561127c57fe5b14155b91505090565b60096020526000908152604090205460ff1681565b60065490565b7f000000000000000000000000000000000000000000000000000000000000000081565b60076020526000908152604090205460ff1681565b600e5481565b60085490565b6112ed611f51565b6000546001600160a01b0390811691161461131a5760405162461bcd60e51b81526004016105c49061306a565b60005b81811015610bf5576009600084848481811061133557fe5b905060200201602081019061134a919061295c565b6001600160a01b0316815260208101919091526040016000205460ff161515600114156113c15760006009600085858581811061138357fe5b9050602002016020810190611398919061295c565b6001600160a01b031681526020810191909152604001600020805460ff19169115159190911790555b60010161131d565b600a805460408051602060026001851615610100026000190190941693909304601f8101849004840282018401909252818152929183018282801561144f5780601f106114245761010080835404028352916020019161144f565b820191906000526020600020905b81548152906001019060200180831161143257829003601f168201915b505050505081565b81600081116114785760405162461bcd60e51b81526004016105c49061313a565b6000611482611130565b905061148f84848361225c565b50505050565b6000805b6008548110156114e757826001600160a01b0316600882815481106114ba57fe5b6000918252602090912001546001600160a01b031614156114df57600191505061059e565b600101611499565b50600092915050565b336001600160a01b037f000000000000000000000000000000000000000000000000000000000000000016146115385760405162461bcd60e51b81526004016105c490612eea565b7fc95987c1992805ee34bdc915e017cceae36ba1c156b9911fa7e691e6435eb46e42838360405161156b9392919061323d565b60405180910390a16001808201600e556000828152600f60205260408082209283018590554283555163a7b72ac560e01b81526001600160a01b037f0000000000000000000000000000000000000000000000000000000000000000169063a7b72ac5906115dd903090600401612c68565b604080518083038186803b1580156115f457600080fd5b505afa158015611608573d6000803e3d6000fd5b505050506040513d601f19601f8201168201806040525081019061162c9190612aaa565b50604051631993b9df60e01b81529091506001600160a01b037f00000000000000000000000000000000000000000000000000000000000000001690631993b9df9061167e90879030906004016131f2565b60206040518083038186803b15801561169657600080fd5b505afa1580156116aa573d6000803e3d6000fd5b505050506040513d601f19601f820116820180604052508101906116ce9190612a2b565b156117e6576002828101805460ff191660011790556127109060009061171c906116fc90610e92898761248d565b610e92846117108a8863ffffffff6124b216565b9063ffffffff6121d716565b9050600061176a600161175e886001600160801b037f00000000000000000000000000000000000000000000000000000000000000001663ffffffff6124b216565b9063ffffffff61248d16565b905060006117d06001600160801b0360017f00000000000000000000000000000000000000000000000000000000000000007f0000000000000000000000000000000000000000000000000000000000000000030116610e92858563ffffffff6121d716565b90506117dd8782866124f4565b5050505061148f565b6002828101805460ff191690911790556117fe612613565b600d805460ff191660011790556040517fbd33f7a3bfa88a467c9df5ae7d2341cf061084c386b20a0d48130f5cbce38a4d9061183d9085908790613209565b60405180910390a150505050565b600b546001600160a01b031681565b7f000000000000000000000000000000000000000000000000000000000000000081565b611886611f51565b6000546001600160a01b039081169116146118b35760405162461bcd60e51b81526004016105c49061306a565b6001600160a01b0381166118d95760405162461bcd60e51b81526004016105c490612dcd565b600080546040516001600160a01b03808516939216917f8be0079c531659141344cd1fd0a4f28419497f9722a3daafe3b4186f6b6457e091a3600080546001600160a01b0319166001600160a01b0392909216919091179055565b7f000000000000000000000000000000000000000000000000000000000000000081565b611960611f51565b6000546001600160a01b0390811691161461198d5760405162461bcd60e51b81526004016105c49061306a565b6001600160a01b03811660009081526009602052604090205460ff1615156001146119ca5760405162461bcd60e51b81526004016105c490613166565b6001600160a01b03166000908152600960205260409020805460ff19169055565b60068181548110610edf57fe5b80611a0281611495565b1515600114611a235760405162461bcd60e51b81526004016105c49061303c565b60017f000000000000000000000000000000000000000000000000000000000000000015151415611a82573360009081526009602052604090205460ff161515600114611a825760405162461bcd60e51b81526004016105c490612f82565b611a9d6001600160a01b03831633308663ffffffff61271216565b611aa5611121565b6001600160a01b0316336001600160a01b031614611d0b576001600160a01b03821660009081526002602090815260408083205460039092529091205481611b177f0000000000000000000000000000000000000000000000000000000000000000611710848963ffffffff61248d16565b1115611b355760405162461bcd60e51b81526004016105c490612f2f565b6001600160a01b0380851660009081526004602081815260408084205481516318160ddd60e01b8152915195169485936318160ddd938382019390929190829003018186803b158015611b8757600080fd5b505afa158015611b9b573d6000803e3d6000fd5b505050506040513d601f19601f82011682018060405250810190611bbf9190612a63565b905080611c2b576040516340c10f1960e01b81526001600160a01b038316906340c10f1990611bf49033908b90600401612c7c565b600060405180830381600087803b158015611c0e57600080fd5b505af1158015611c22573d6000803e3d6000fd5b50505050611cbf565b6001600160a01b03861660009081526003602052604081205490611c5982610e928b8663ffffffff6121d716565b6040516340c10f1960e01b81529091506001600160a01b038516906340c10f1990611c8a9033908590600401612c7c565b600060405180830381600087803b158015611ca457600080fd5b505af1158015611cb8573d6000803e3d6000fd5b5050505050505b6001600160a01b038616600090815260036020526040902054611ce8908863ffffffff61248d16565b6001600160a01b03871660009081526003602052604090205550611ed992505050565b6001600160a01b0380831660009081526005602090815260408083205481516318160ddd60e01b8152915194169384926318160ddd9260048082019391829003018186803b158015611d5c57600080fd5b505afa158015611d70573d6000803e3d6000fd5b505050506040513d601f19601f82011682018060405250810190611d949190612a63565b905080611e00576040516340c10f1960e01b81526001600160a01b038316906340c10f1990611dc99033908990600401612c7c565b600060405180830381600087803b158015611de357600080fd5b505af1158015611df7573d6000803e3d6000fd5b50505050611e94565b6001600160a01b03841660009081526002602052604081205490611e2e82610e92898663ffffffff6121d716565b6040516340c10f1960e01b81529091506001600160a01b038516906340c10f1990611e5f9033908590600401612c7c565b600060405180830381600087803b158015611e7957600080fd5b505af1158015611e8d573d6000803e3d6000fd5b5050505050505b6001600160a01b038416600090815260026020526040902054611ebd908663ffffffff61248d16565b6001600160a01b03851660009081526002602052604090205550505b3360009081526007602052604090205460ff16610bf557336000818152600760205260408120805460ff191660019081179091556006805491820181559091527ff652222313e28459528d920b65115c16c04f3efc82aaedc97be59f3f377c0d3f0180546001600160a01b0319169091179055505050565b3390565b60608180611f7c5750506040805180820190915260018152600360fc1b602082015261059e565b8060005b8115611f9457600101600a82049150611f80565b60608167ffffffffffffffff81118015611fad57600080fd5b506040519080825280601f01601f191660200182016040528015611fd8576020820181803683370190505b50905060001982015b841561202657600a850660300160f81b8282806001900393508151811061200457fe5b60200101906001600160f81b031916908160001a905350600a85049450611fe1565b5095945050505050565b8061203a81611495565b151560011461205b5760405162461bcd60e51b81526004016105c49061303c565b6001600160a01b0380831660009081526004602081815260408084205481516318160ddd60e01b8152915195169485936318160ddd938382019390929190829003018186803b1580156120ad57600080fd5b505afa1580156120c1573d6000803e3d6000fd5b505050506040513d601f19601f820116820180604052508101906120e59190612a63565b6001600160a01b03851660009081526003602052604081205491925061211582610e92898663ffffffff6121d716565b60405163079cc67960e41b81529091506001600160a01b038516906379cc6790906121469033908590600401612c7c565b600060405180830381600087803b15801561216057600080fd5b505af1158015612174573d6000803e3d6000fd5b5050506001600160a01b0387166000908152600360205260409020546121a191508863ffffffff6124b216565b6001600160a01b0387166000818152600360205260409020919091556121ce90338963ffffffff61276a16565b50505050505050565b6000826121e657506000612214565b828202828482816121f357fe5b04146122115760405162461bcd60e51b81526004016105c490612ffb565b90505b92915050565b600061221183836040518060400160405280601a81526020017f536166654d6174683a206469766973696f6e206279207a65726f000000000000815250612789565b8161226681611495565b15156001146122875760405162461bcd60e51b81526004016105c49061303c565b6001600160a01b0383166000908152600260209081526040808320546003909252909120548361230f576122e1817f000000000000000000000000000000000000000000000000000000000000000063ffffffff6121d716565b6122f1838863ffffffff6124b216565b101561230f5760405162461bcd60e51b81526004016105c490612e13565b6001600160a01b0380861660009081526005602090815260408083205481516318160ddd60e01b8152915194169384926318160ddd9260048082019391829003018186803b15801561236057600080fd5b505afa158015612374573d6000803e3d6000fd5b505050506040513d601f19601f820116820180604052508101906123989190612a63565b6001600160a01b0388166000908152600260205260408120549192506123c882610e928c8663ffffffff6121d716565b60405163079cc67960e41b81529091506001600160a01b038516906379cc6790906123f99033908590600401612c7c565b600060405180830381600087803b15801561241357600080fd5b505af1158015612427573d6000803e3d6000fd5b5050506001600160a01b038a1660009081526002602052604090205461245491508b63ffffffff6124b216565b6001600160a01b038a1660008181526002602052604090209190915561248190338c63ffffffff61276a16565b50505050505050505050565b6000828201838110156122115760405162461bcd60e51b81526004016105c490612e66565b600061221183836040518060400160405280601e81526020017f536166654d6174683a207375627472616374696f6e206f766572666c6f7700008152506127c0565b60005b60085481101561148f5760006008828154811061251057fe5b60009182526020808320909101546001600160a01b0316808352600390915260408220549092509061254c85610e92848963ffffffff6121d716565b6001600160a01b038416600090815260036020526040902054909150612578908263ffffffff6124b216565b6001600160a01b0384166000908152600360209081526040808320939093556002905220546125ad908263ffffffff61248d16565b6001600160a01b0384166000818152600260205260409081902092909255905188907f3173c1c4b679e2da86dbb0382bde749a6e16cd31912c5410e17985cd7d2b905290612600908a908a90879061323d565b60405180910390a35050506001016124f7565b60005b60085481101561270f5760006008828154811061262f57fe5b60009182526020808320909101546001600160a01b03168083526003909152604082205490925090612687827f000000000000000000000000000000000000000000000000000000000000000063ffffffff6121d716565b6001600160a01b0384166000908152600260205260409020549091506126b3908263ffffffff6124b216565b6001600160a01b0384166000908152600260209081526040808320939093556003905220546126e8908263ffffffff61248d16565b6001600160a01b039093166000908152600360205260409020929092555050600101612616565b50565b61148f846323b872dd60e01b85858560405160240161273393929190612c95565b60408051601f198184030181529190526020810180516001600160e01b03166001600160e01b0319909316929092179091526127ec565b610bf58363a9059cbb60e01b8484604051602401612733929190612c7c565b600081836127aa5760405162461bcd60e51b81526004016105c49190612d07565b5060008385816127b657fe5b0495945050505050565b600081848411156127e45760405162461bcd60e51b81526004016105c49190612d07565b505050900390565b6060612841826040518060400160405280602081526020017f5361666545524332303a206c6f772d6c6576656c2063616c6c206661696c6564815250856001600160a01b031661287b9092919063ffffffff16565b805190915015610bf5578080602001905181019061285f9190612a2b565b610bf55760405162461bcd60e51b81526004016105c490613194565b606061288a8484600085612892565b949350505050565b606061289d85612956565b6128b95760405162461bcd60e51b81526004016105c490613103565b60006060866001600160a01b031685876040516128d69190612b94565b60006040518083038185875af1925050503d8060008114612913576040519150601f19603f3d011682016040523d82523d6000602084013e612918565b606091505b5091509150811561292c57915061288a9050565b80511561293c5780518082602001fd5b8360405162461bcd60e51b81526004016105c49190612d07565b3b151590565b60006020828403121561296d578081fd5b81356122118161327f565b600060208284031215612989578081fd5b81516122118161327f565b600080604083850312156129a6578081fd5b82356129b18161327f565b946020939093013593505050565b600080602083850312156129d1578182fd5b823567ffffffffffffffff808211156129e8578384fd5b81850186601f8201126129f9578485fd5b8035925081831115612a09578485fd5b8660208085028301011115612a1c578485fd5b60200196919550909350505050565b600060208284031215612a3c578081fd5b81518015158114612211578182fd5b600060208284031215612a5c578081fd5b5035919050565b600060208284031215612a74578081fd5b5051919050565b60008060408385031215612a8d578182fd5b823591506020830135612a9f8161327f565b809150509250929050565b60008060408385031215612abc578182fd5b82519150602083015160068110612a9f578182fd5b60008060408385031215612ae3578182fd5b50508035926020909101359150565b60008060408385031215612b04578182fd5b505080516020909101519092909150565b600080600080600080600060e0888a031215612b2f578283fd5b5050855160208701516040880151606089015160808a015160a08b015160c0909b0151949c939b50919990985090965094509092509050565b60008151808452612b80816020860160208601613253565b601f01601f19169290920160200192915050565b60008251612ba6818460208701613253565b9190910192915050565b60006a44534c412d53484f52542d60a81b82528251612bd681600b850160208701613253565b91909101600b0192915050565b60006744534c412d53502d60c01b82528251612c06816008850160208701613253565b9190910160080192915050565b60006944534c412d4c4f4e472d60b01b82528251612c3881600a850160208701613253565b91909101600a0192915050565b60006744534c412d4c502d60c01b82528251612c06816008850160208701613253565b6001600160a01b0391909116815260200190565b6001600160a01b03929092168252602082015260400190565b6001600160a01b039384168152919092166020820152604081019190915260600190565b901515815260200190565b90815260200190565b6020810160068310612cdb57fe5b91905290565b6040810160068410612cef57fe5b9281526001600160801b039190911660209091015290565b6000602082526122116020830184612b68565b600060408252612d2d6040830185612b68565b8281036020840152612d3f8185612b68565b95945050505050565b60208082526033908201527f416c6c6f77656420746f6b656e73206c656e67746820677265617465722074686040820152720c2dc40dac2f040e8ded6cadc40d8cadccee8d606b1b606082015260800190565b602080825260189082015277155cd95c88185b1c9958591e481dda1a5d195b1a5cdd195960421b604082015260600190565b60208082526026908201527f4f776e61626c653a206e6577206f776e657220697320746865207a65726f206160408201526564647265737360d01b606082015260800190565b60208082526033908201527f53686f756c64206e6f74207769746864726177206d6f7265207468616e206c6560408201527276657261676564207573657273207374616b6560681b606082015260800190565b6020808252601b908201527f536166654d6174683a206164646974696f6e206f766572666c6f770000000000604082015260600190565b6020808252602d908201527f546f6b656e206e6f7420616c6c6f7765642062792074686520534c415265676960408201526c1cdd1c9e4818dbdb9d1c9858dd609a1b606082015260800190565b60208082526025908201527f4f6e6c79204d657373656e6765722063616e2063616c6c20746869732066756e60408201526431ba34b7b760d91b606082015260800190565b60208082526033908201527f43616e6e6f74207374616b65206d6f7265207468616e206c657665726167656460408201527220534c412070726f7669646572207374616b6560681b606082015260800190565b602080825260179082015276155cd95c881a5cc81b9bdd081dda1a5d195b1a5cdd1959604a1b604082015260600190565b60208082526028908201527f43616e206f6e6c79207374616b65206f6e206e6f742066696e697368656420636040820152676f6e74726163747360c01b606082015260800190565b60208082526021908201527f536166654d6174683a206d756c7469706c69636174696f6e206f766572666c6f6040820152607760f81b606082015260800190565b6020808252601490820152731d1bdad95b881a5cc81b9bdd08185b1b1bddd95960621b604082015260600190565b6020808252818101527f4f776e61626c653a2063616c6c6572206973206e6f7420746865206f776e6572604082015260600190565b6020808252601a908201527f4f6e6c7920666f722066696e697368656420636f6e7472616374000000000000604082015260600190565b602080825260139082015272151bdad95b88185b1c9958591e481859191959606a1b604082015260600190565b6020808252601d908201527f416464726573733a2063616c6c20746f206e6f6e2d636f6e7472616374000000604082015260600190565b6020808252601290820152710616d6f756e742063616e6e6f7420626520360741b604082015260600190565b602080825260149082015273155cd95c881b9bdd081dda1a5d195b1a5cdd195960621b604082015260600190565b6020808252602a908201527f5361666545524332303a204552433230206f7065726174696f6e20646964206e6040820152691bdd081cdd58d8d9595960b21b606082015260800190565b6001600160801b0391909116815260200190565b9182526001600160a01b0316602082015260400190565b918252602082015260400190565b83815260208101839052606081016003831061322f57fe5b826040830152949350505050565b9283526020830191909152604082015260600190565b60005b8381101561326e578181015183820152602001613256565b8381111561148f5750506000910152565b6001600160a01b038116811461270f57600080fdfea2646970667358221220fe702f6c2082758e7b468c065373b2e0ecc1ee65423975ca26e2b5560c56d2fa64736f6c634300060600338be0079c531659141344cd1fd0a4f28419497f9722a3daafe3b4186f6b6457e0a26469706673582212203b13c9b7da85f7f03ded3860ea23bf2d2d2cca88ab27aeab255d234dfe486db064736f6c63430006060033",
  "immutableReferences": {
    "1982": [
      {
        "length": 32,
        "start": 2100
      },
      {
        "length": 32,
        "start": 5103
      }
    ]
  },
  "source": "// SPDX-License-Identifier: MIT\npragma solidity 0.6.6;\npragma experimental ABIEncoderV2;\n\nimport \"@openzeppelin/contracts/math/SafeMath.sol\";\nimport \"./SLA.sol\";\nimport \"./SLORegistry.sol\";\nimport \"./PeriodRegistry.sol\";\nimport \"./MessengerRegistry.sol\";\nimport \"./StakeRegistry.sol\";\nimport \"./messenger/IMessenger.sol\";\n\n/**\n * @title SLARegistry\n * @dev SLARegistry is a contract for handling creation of service level\n * agreements and keeping track of the created agreements\n */\ncontract SLARegistry {\n    using SafeMath for uint256;\n\n    /// @dev SLO registry\n    SLORegistry public sloRegistry;\n    /// @dev Periods registry\n    PeriodRegistry public periodRegistry;\n    /// @dev Messengers registry\n    MessengerRegistry public messengerRegistry;\n    /// @dev Stake registry\n    StakeRegistry public stakeRegistry;\n    /// @dev stores the addresses of created SLAs\n    SLA[] public SLAs;\n    /// @dev stores the indexes of service level agreements owned by an user\n    mapping(address => uint256[]) private userToSLAIndexes;\n    /// @dev to check if registered SLA\n    mapping(address => bool) private registeredSLAs;\n    // value to lock past periods on SLA deployment\n    bool public immutable checkPastPeriod;\n\n    /**\n     * @dev event for service level agreement creation logging\n     * @param sla 1. The address of the created service level agreement contract\n     * @param owner 2. The address of the owner of the service level agreement\n     */\n    event SLACreated(SLA indexed sla, address indexed owner);\n\n    /**\n     * @dev constructor\n     * @param _sloRegistry 1. SLO Registry\n     * @param _periodRegistry 2. Periods registry\n     * @param _messengerRegistry 3. Messenger registry\n     * @param _stakeRegistry 4. Stake registry\n     * @param _checkPastPeriod 5. -\n     */\n    constructor(\n        SLORegistry _sloRegistry,\n        PeriodRegistry _periodRegistry,\n        MessengerRegistry _messengerRegistry,\n        StakeRegistry _stakeRegistry,\n        bool _checkPastPeriod\n    ) public {\n        sloRegistry = _sloRegistry;\n        sloRegistry.setSLARegistry();\n        periodRegistry = _periodRegistry;\n        stakeRegistry = _stakeRegistry;\n        stakeRegistry.setSLARegistry();\n        messengerRegistry = _messengerRegistry;\n        messengerRegistry.setSLARegistry();\n        checkPastPeriod = _checkPastPeriod;\n    }\n\n    /**\n     * @dev public function for creating canonical service level agreements\n     * @param _sloValue 1. -\n     * @param _sloType 2. -\n     * @param _ipfsHash 3. -\n     * @param _periodType 4. -\n     * @param _initialPeriodId 5. -\n     * @param _finalPeriodId 6. -\n     * @param _messengerAddress 7. -\n     * @param _whitelisted 8. -\n     * @param _extraData 9. -\n     * @param _leverage 10. -\n     */\n    function createSLA(\n        uint256 _sloValue,\n        SLORegistry.SLOType _sloType,\n        bool _whitelisted,\n        address _messengerAddress,\n        PeriodRegistry.PeriodType _periodType,\n        uint128 _initialPeriodId,\n        uint128 _finalPeriodId,\n        string memory _ipfsHash,\n        bytes32[] memory _extraData,\n        uint256 _leverage\n    ) public {\n        bool validPeriod =\n            periodRegistry.isValidPeriod(_periodType, _initialPeriodId);\n        require(validPeriod, \"First period id not valid\");\n        validPeriod = periodRegistry.isValidPeriod(_periodType, _finalPeriodId);\n        require(validPeriod, \"Final period id not valid\");\n        bool initializedPeriod =\n            periodRegistry.isInitializedPeriod(_periodType);\n        require(initializedPeriod, \"Period type not initialized yet\");\n        require(\n            _finalPeriodId >= _initialPeriodId,\n            \"finalPeriodId should be greater than or equal to initialPeriodId\"\n        );\n\n        if (checkPastPeriod) {\n            bool periodHasStarted =\n                periodRegistry.periodHasStarted(_periodType, _initialPeriodId);\n            require(!periodHasStarted, \"Period has started\");\n        }\n        bool registeredMessenger =\n            messengerRegistry.registeredMessengers(_messengerAddress);\n        require(\n            registeredMessenger == true,\n            \"messenger address is not registered\"\n        );\n\n        SLA sla =\n            new SLA(\n                msg.sender,\n                _whitelisted,\n                _periodType,\n                _messengerAddress,\n                _initialPeriodId,\n                _finalPeriodId,\n                uint128(SLAs.length),\n                _ipfsHash,\n                _extraData,\n                _leverage\n            );\n\n        sloRegistry.registerSLO(_sloValue, _sloType, address(sla));\n        stakeRegistry.lockDSLAValue(\n            msg.sender,\n            address(sla),\n            _finalPeriodId - _initialPeriodId + 1\n        );\n        SLAs.push(sla);\n        registeredSLAs[address(sla)] = true;\n        uint256 index = SLAs.length.sub(1);\n        userToSLAIndexes[msg.sender].push(index);\n        emit SLACreated(sla, msg.sender);\n    }\n\n    /**\n     * @dev Gets SLI information for the specified SLA and SLO\n     * @param _periodId 1. id of the period\n     * @param _sla 2. SLA Address\n     * @param _ownerApproval 3. if approval by owner or msg.sender\n     */\n    function requestSLI(\n        uint256 _periodId,\n        SLA _sla,\n        bool _ownerApproval\n    ) public {\n        require(isRegisteredSLA(address(_sla)), \"SLA contract should be valid\");\n        require(\n            _periodId == _sla.nextVerifiablePeriod(),\n            \"Should only verify next period\"\n        );\n        (, , SLA.Status status) = _sla.periodSLIs(_periodId);\n        require(\n            status == SLA.Status.NotVerified,\n            \"SLA contract was already verified for the period\"\n        );\n        bool breachedContract = _sla.breachedContract();\n        require(\n            !breachedContract,\n            \"Should only be called for not breached contracts\"\n        );\n        bool slaAllowedPeriodId = _sla.isAllowedPeriod(_periodId);\n        require(\n            slaAllowedPeriodId,\n            \"Period ID not registered in the SLA contract\"\n        );\n        PeriodRegistry.PeriodType slaPeriodType = _sla.periodType();\n        bool periodFinished =\n            periodRegistry.periodIsFinished(slaPeriodType, _periodId);\n        require(periodFinished, \"SLA contract period has not finished yet\");\n        address slaMessenger = _sla.messengerAddress();\n        IMessenger(slaMessenger).requestSLI(\n            _periodId,\n            address(_sla),\n            _ownerApproval,\n            msg.sender\n        );\n        stakeRegistry.distributeVerificationRewards(\n            address(_sla),\n            msg.sender,\n            _periodId\n        );\n    }\n\n    function returnLockedValue(SLA _sla) public {\n        require(isRegisteredSLA(address(_sla)), \"SLA contract should be valid\");\n        require(\n            msg.sender == _sla.owner(),\n            \"Only SLA owner can claim locked value\"\n        );\n        uint256 lastValidPeriodId = _sla.finalPeriodId();\n        PeriodRegistry.PeriodType periodType = _sla.periodType();\n        (, uint256 endOfLastValidPeriod) =\n            periodRegistry.getPeriodStartAndEnd(periodType, lastValidPeriodId);\n\n        (, , SLA.Status lastPeriodStatus) = _sla.periodSLIs(lastValidPeriodId);\n        require(\n            _sla.breachedContract() ||\n                (block.timestamp >= endOfLastValidPeriod &&\n                    lastPeriodStatus != SLA.Status.NotVerified),\n            \"Should only withdraw for finished contracts\"\n        );\n        stakeRegistry.returnLockedValue(address(_sla));\n    }\n\n    /**\n     * @dev function to declare this SLARegistry contract as SLARegistry of _messengerAddress\n     * @param _messengerAddress 1. address of the messenger\n     */\n\n    function registerMessenger(\n        address _messengerAddress,\n        string memory _specificationUrl\n    ) public {\n        IMessenger(_messengerAddress).setSLARegistry();\n        messengerRegistry.registerMessenger(\n            msg.sender,\n            _messengerAddress,\n            _specificationUrl\n        );\n    }\n\n    /**\n     * @dev public view function that returns the service level agreements that\n     * the given user is the owner of\n     * @param _user Address of the user for which to return the service level\n     * agreements\n     * @return array of SLAs\n     */\n    function userSLAs(address _user) public view returns (SLA[] memory) {\n        uint256 count = userToSLAIndexes[_user].length;\n        SLA[] memory SLAList = new SLA[](count);\n        uint256[] memory userSLAIndexes = userToSLAIndexes[_user];\n\n        for (uint256 i = 0; i < count; i++) {\n            SLAList[i] = (SLAs[userSLAIndexes[i]]);\n        }\n\n        return (SLAList);\n    }\n\n    /**\n     * @dev public view function that returns all the service level agreements\n     * @return SLA[] array of SLAs\n     */\n    function allSLAs() public view returns (SLA[] memory) {\n        return (SLAs);\n    }\n\n    /**\n     * @dev public view function that returns true if _slaAddress was deployed using this SLARegistry\n     * @param _slaAddress address of the SLA to be checked\n     */\n    function isRegisteredSLA(address _slaAddress) public view returns (bool) {\n        return registeredSLAs[_slaAddress];\n    }\n}\n",
  "sourcePath": "/Users/matiasbn/Desktop/stacktical/stacktical-dsla-contracts/contracts/SLARegistry.sol",
  "compiler": {
    "name": "solc",
    "version": "0.6.6+commit.6c089d02.Emscripten.clang"
  },
  "schemaVersion": "3.3.3",
  "updatedAt": "2021-04-09T23:33:49.446Z",
  "networkType": "ethereum",
  "devdoc": {
    "details": "SLARegistry is a contract for handling creation of service level agreements and keeping track of the created agreements",
    "methods": {
      "allSLAs()": {
        "details": "public view function that returns all the service level agreements",
        "returns": {
          "_0": "SLA[] array of SLAs"
        }
      },
      "constructor": {
        "details": "constructor",
        "params": {
          "_checkPastPeriod": "5. -",
          "_messengerRegistry": "3. Messenger registry",
          "_periodRegistry": "2. Periods registry",
          "_sloRegistry": "1. SLO Registry",
          "_stakeRegistry": "4. Stake registry"
        }
      },
      "createSLA(uint256,uint8,bool,address,uint8,uint128,uint128,string,bytes32[],uint256)": {
        "details": "public function for creating canonical service level agreements",
        "params": {
          "_extraData": "9. -",
          "_finalPeriodId": "6. -",
          "_initialPeriodId": "5. -",
          "_ipfsHash": "3. -",
          "_leverage": "10. -",
          "_messengerAddress": "7. -",
          "_periodType": "4. -",
          "_sloType": "2. -",
          "_sloValue": "1. -",
          "_whitelisted": "8. -"
        }
      },
      "isRegisteredSLA(address)": {
        "details": "public view function that returns true if _slaAddress was deployed using this SLARegistry",
        "params": {
          "_slaAddress": "address of the SLA to be checked"
        }
      },
      "registerMessenger(address,string)": {
        "details": "function to declare this SLARegistry contract as SLARegistry of _messengerAddress",
        "params": {
          "_messengerAddress": "1. address of the messenger"
        }
      },
      "requestSLI(uint256,address,bool)": {
        "details": "Gets SLI information for the specified SLA and SLO",
        "params": {
          "_ownerApproval": "3. if approval by owner or msg.sender",
          "_periodId": "1. id of the period",
          "_sla": "2. SLA Address"
        }
      },
      "userSLAs(address)": {
        "details": "public view function that returns the service level agreements that the given user is the owner of",
        "params": {
          "_user": "Address of the user for which to return the service level agreements"
        },
        "returns": {
          "_0": "array of SLAs"
        }
      }
    },
    "title": "SLARegistry"
  },
  "userdoc": {
    "methods": {}
  }
}