{
  "contractName": "SLARegistry",
  "abi": [
    {
      "inputs": [
        {
          "internalType": "contract SLORegistry",
          "name": "_sloRegistry",
          "type": "address"
        },
        {
          "internalType": "contract PeriodRegistry",
          "name": "_periodRegistry",
          "type": "address"
        },
        {
          "internalType": "contract MessengerRegistry",
          "name": "_messengerRegistry",
          "type": "address"
        },
        {
          "internalType": "contract StakeRegistry",
          "name": "_stakeRegistry",
          "type": "address"
        }
      ],
      "stateMutability": "nonpayable",
      "type": "constructor"
    },
    {
      "anonymous": false,
      "inputs": [
        {
          "indexed": true,
          "internalType": "address",
          "name": "previousOwner",
          "type": "address"
        },
        {
          "indexed": true,
          "internalType": "address",
          "name": "newOwner",
          "type": "address"
        }
      ],
      "name": "OwnershipTransferred",
      "type": "event"
    },
    {
      "anonymous": false,
      "inputs": [
        {
          "indexed": true,
          "internalType": "contract SLA",
          "name": "sla",
          "type": "address"
        },
        {
          "indexed": true,
          "internalType": "address",
          "name": "owner",
          "type": "address"
        }
      ],
      "name": "SLACreated",
      "type": "event"
    },
    {
      "inputs": [
        {
          "internalType": "uint256",
          "name": "",
          "type": "uint256"
        }
      ],
      "name": "SLAs",
      "outputs": [
        {
          "internalType": "contract SLA",
          "name": "",
          "type": "address"
        }
      ],
      "stateMutability": "view",
      "type": "function",
      "constant": true
    },
    {
      "inputs": [],
      "name": "messengerRegistry",
      "outputs": [
        {
          "internalType": "contract MessengerRegistry",
          "name": "",
          "type": "address"
        }
      ],
      "stateMutability": "view",
      "type": "function",
      "constant": true
    },
    {
      "inputs": [],
      "name": "owner",
      "outputs": [
        {
          "internalType": "address",
          "name": "",
          "type": "address"
        }
      ],
      "stateMutability": "view",
      "type": "function",
      "constant": true
    },
    {
      "inputs": [],
      "name": "periodRegistry",
      "outputs": [
        {
          "internalType": "contract PeriodRegistry",
          "name": "",
          "type": "address"
        }
      ],
      "stateMutability": "view",
      "type": "function",
      "constant": true
    },
    {
      "inputs": [
        {
          "internalType": "address",
          "name": "",
          "type": "address"
        }
      ],
      "name": "registeredSLAs",
      "outputs": [
        {
          "internalType": "bool",
          "name": "",
          "type": "bool"
        }
      ],
      "stateMutability": "view",
      "type": "function",
      "constant": true
    },
    {
      "inputs": [],
      "name": "renounceOwnership",
      "outputs": [],
      "stateMutability": "nonpayable",
      "type": "function"
    },
    {
      "inputs": [],
      "name": "sloRegistry",
      "outputs": [
        {
          "internalType": "contract SLORegistry",
          "name": "",
          "type": "address"
        }
      ],
      "stateMutability": "view",
      "type": "function",
      "constant": true
    },
    {
      "inputs": [],
      "name": "stakeRegistry",
      "outputs": [
        {
          "internalType": "contract StakeRegistry",
          "name": "",
          "type": "address"
        }
      ],
      "stateMutability": "view",
      "type": "function",
      "constant": true
    },
    {
      "inputs": [
        {
          "internalType": "address",
          "name": "newOwner",
          "type": "address"
        }
      ],
      "name": "transferOwnership",
      "outputs": [],
      "stateMutability": "nonpayable",
      "type": "function"
    },
    {
      "inputs": [
        {
          "internalType": "address",
          "name": "",
          "type": "address"
        },
        {
          "internalType": "uint256",
          "name": "",
          "type": "uint256"
        }
      ],
      "name": "userStakedSlas",
      "outputs": [
        {
          "internalType": "contract SLA",
          "name": "",
          "type": "address"
        }
      ],
      "stateMutability": "view",
      "type": "function",
      "constant": true
    },
    {
      "inputs": [
        {
          "internalType": "contract SLO",
          "name": "_SLO",
          "type": "address"
        },
        {
          "internalType": "string",
          "name": "_ipfsHash",
          "type": "string"
        },
        {
          "internalType": "enum PeriodRegistry.PeriodType",
          "name": "_periodType",
          "type": "uint8"
        },
        {
          "internalType": "uint256[]",
          "name": "_periodIds",
          "type": "uint256[]"
        },
        {
          "internalType": "address",
          "name": "_messengerAddress",
          "type": "address"
        },
        {
          "internalType": "bool",
          "name": "_whitelisted",
          "type": "bool"
        },
        {
          "internalType": "bytes32[]",
          "name": "_extraData",
          "type": "bytes32[]"
        }
      ],
      "name": "createSLA",
      "outputs": [],
      "stateMutability": "nonpayable",
      "type": "function"
    },
    {
      "inputs": [
        {
          "internalType": "uint256",
          "name": "_periodId",
          "type": "uint256"
        },
        {
          "internalType": "contract SLA",
          "name": "_sla",
          "type": "address"
        }
      ],
      "name": "requestSLI",
      "outputs": [],
      "stateMutability": "nonpayable",
      "type": "function"
    },
    {
      "inputs": [
        {
          "internalType": "address",
          "name": "_messengerAddress",
          "type": "address"
        }
      ],
      "name": "setMessengerSLARegistryAddress",
      "outputs": [],
      "stateMutability": "nonpayable",
      "type": "function"
    },
    {
      "inputs": [
        {
          "internalType": "address",
          "name": "_user",
          "type": "address"
        }
      ],
      "name": "userSLAs",
      "outputs": [
        {
          "internalType": "contract SLA[]",
          "name": "",
          "type": "address[]"
        }
      ],
      "stateMutability": "view",
      "type": "function",
      "constant": true
    },
    {
      "inputs": [
        {
          "internalType": "address",
          "name": "_user",
          "type": "address"
        }
      ],
      "name": "userSLACount",
      "outputs": [
        {
          "internalType": "uint256",
          "name": "",
          "type": "uint256"
        }
      ],
      "stateMutability": "view",
      "type": "function",
      "constant": true
    },
    {
      "inputs": [],
      "name": "allSLAs",
      "outputs": [
        {
          "internalType": "contract SLA[]",
          "name": "",
          "type": "address[]"
        }
      ],
      "stateMutability": "view",
      "type": "function",
      "constant": true
    },
    {
      "inputs": [],
      "name": "SLACount",
      "outputs": [
        {
          "internalType": "uint256",
          "name": "",
          "type": "uint256"
        }
      ],
      "stateMutability": "view",
      "type": "function",
      "constant": true
    },
    {
      "inputs": [
        {
          "internalType": "address",
          "name": "_user",
          "type": "address"
        },
        {
          "internalType": "address",
          "name": "_sla",
          "type": "address"
        }
      ],
      "name": "slaWasStakedByUser",
      "outputs": [
        {
          "internalType": "bool",
          "name": "",
          "type": "bool"
        }
      ],
      "stateMutability": "view",
      "type": "function",
      "constant": true
    },
    {
      "inputs": [
        {
          "internalType": "address",
          "name": "_owner",
          "type": "address"
        }
      ],
      "name": "registerStakedSla",
      "outputs": [
        {
          "internalType": "bool",
          "name": "",
          "type": "bool"
        }
      ],
      "stateMutability": "nonpayable",
      "type": "function"
    }
  ],
  "bytecode": "0x60806040523480156200001157600080fd5b50604051620052e0380380620052e0833981016040819052620000349162000132565b6000620000406200012e565b600080546001600160a01b0319166001600160a01b0383169081178255604051929350917f8be0079c531659141344cd1fd0a4f28419497f9722a3daafe3b4186f6b6457e0908290a350600180546001600160a01b03199081166001600160a01b03878116919091179092556002805482168684161790556004805482168484161781556003805490921685841617918290556040805163f388158960e01b81529051929093169263f3881589928183019260009282900301818387803b1580156200010b57600080fd5b505af115801562000120573d6000803e3d6000fd5b5050505050505050620001b2565b3390565b6000806000806080858703121562000148578384fd5b8451620001558162000199565b6020860151909450620001688162000199565b60408601519093506200017b8162000199565b60608601519092506200018e8162000199565b939692955090935050565b6001600160a01b0381168114620001af57600080fd5b50565b61511e80620001c26000396000f3fe60806040523480156200001157600080fd5b50600436106200012a5760003560e01c8063816ff98611620000bd578063b290508e116200007b578063b290508e1462000250578063d19944081462000267578063e9b1e98c146200027e578063ec9176ba1462000295578063f2fde38b14620002ac576200012a565b8063816ff98614620002025780638da5cb5b146200021b57806396bddc1014620002255780639fc4caa5146200022f578063a3f5cadf1462000239576200012a565b80630df0bfc6146200012f57806350c5abfe146200015e578063516c2857146200018457806351e99ec614620001aa5780635a7d1e5d14620001c15780635c4df33214620001cb5780636435dc9c14620001d55780636830483514620001ee578063715018a614620001f8575b600080fd5b6200014662000140366004620012f3565b620002c3565b60405162000155919062001774565b60405180910390f35b620001756200016f366004620014d3565b6200034e565b60405162000155919062001623565b6200019b62000195366004620012b5565b62000376565b60405162000155919062001725565b62000146620001bb366004620012b5565b620004be565b62000175620004d3565b62000175620004e2565b620001ec620001e6366004620012b5565b620004f1565b005b62000175620005b1565b620001ec620005c0565b6200020c6200064d565b60405162000155919062001aff565b6200017562000653565b6200019b62000662565b62000175620006c6565b620001756200024a36600462001330565b620006d5565b6200014662000261366004620012b5565b6200070b565b620001ec6200027836600462001513565b62000794565b6200020c6200028f366004620012b5565b62000bad565b620001ec620002a63660046200137d565b62000bc8565b620001ec620002bd366004620012b5565b62001071565b6000805b6001600160a01b03841660009081526008602052604090205481101562000342576001600160a01b038481166000908152600860205260409020805491851691839081106200031257fe5b6000918252602090912001546001600160a01b031614156200033957600191505062000348565b600101620002c7565b50600090505b92915050565b600581815481106200035c57fe5b6000918252602090912001546001600160a01b0316905081565b60606000620003858362000bad565b905060608167ffffffffffffffff81118015620003a157600080fd5b50604051908082528060200260200182016040528015620003cc578160200160208202803683370190505b506001600160a01b038516600090815260076020908152604091829020805483518184028101840190945280845293945060609390918301828280156200043357602002820191906000526020600020905b8154815260200190600101908083116200041e575b5050505050905060005b83811015620004b45760058282815181106200045557fe5b6020026020010151815481106200046857fe5b9060005260206000200160009054906101000a90046001600160a01b03168382815181106200049357fe5b6001600160a01b03909216602092830291909101909101526001016200043d565b5090949350505050565b60066020526000908152604090205460ff1681565b6001546001600160a01b031681565b6003546001600160a01b031681565b806001600160a01b031663f38815896040518163ffffffff1660e01b8152600401600060405180830381600087803b1580156200052d57600080fd5b505af115801562000542573d6000803e3d6000fd5b50506003546040516319d71f1f60e31b81526001600160a01b03909116925063ceb8f8f891506200057a90849033906004016200170b565b600060405180830381600087803b1580156200059557600080fd5b505af1158015620005aa573d6000803e3d6000fd5b5050505050565b6004546001600160a01b031681565b620005ca6200112f565b6000546001600160a01b03908116911614620006035760405162461bcd60e51b8152600401620005fa9062001a05565b60405180910390fd5b600080546040516001600160a01b03909116907f8be0079c531659141344cd1fd0a4f28419497f9722a3daafe3b4186f6b6457e0908390a3600080546001600160a01b0319169055565b60055490565b6000546001600160a01b031690565b60606005805480602002602001604051908101604052809291908181526020018280548015620006bc57602002820191906000526020600020905b81546001600160a01b031681526001909101906020018083116200069d575b5050505050905090565b6002546001600160a01b031681565b60086020528160005260406000208181548110620006ef57fe5b6000918252602090912001546001600160a01b03169150829050565b3360009081526006602052604081205460ff161515600114620007425760405162461bcd60e51b8152600401620005fa906200186e565b6200074e8233620002c3565b6200078c576001600160a01b03821660009081526008602090815260408220805460018101825590835291200180546001600160a01b031916331790555b506001919050565b6000816001600160a01b0316637fd788aa6040518163ffffffff1660e01b815260040160206040518083038186803b158015620007d057600080fd5b505afa158015620007e5573d6000803e3d6000fd5b505050506040513d601f19601f820116820180604052508101906200080b91906200135e565b90506000826001600160a01b0316639ab4438f856040518263ffffffff1660e01b81526004016200083d919062001aff565b60606040518083038186803b1580156200085657600080fd5b505afa1580156200086b573d6000803e3d6000fd5b505050506040513d601f19601f820116820180604052508101906200089191906200153a565b9250600091506200089f9050565b816002811115620008ac57fe5b14620008cc5760405162461bcd60e51b8152600401620005fa90620018e6565b8115620008ed5760405162461bcd60e51b8152600401620005fa90620019b5565b60405163021eef7f60e01b81526000906001600160a01b0385169063021eef7f906200091e90889060040162001aff565b60206040518083038186803b1580156200093757600080fd5b505afa1580156200094c573d6000803e3d6000fd5b505050506040513d601f19601f820116820180604052508101906200097291906200135e565b9050600181151514620009995760405162461bcd60e51b8152600401620005fa9062001a7c565b6000846001600160a01b03166346e0fbae6040518163ffffffff1660e01b815260040160206040518083038186803b158015620009d557600080fd5b505afa158015620009ea573d6000803e3d6000fd5b505050506040513d601f19601f8201168201806040525081019062000a109190620014b4565b6002546040516331edb3ad60e21b81529192506000916001600160a01b039091169063c7b6ceb49062000a4a9085908b906004016200178f565b60206040518083038186803b15801562000a6357600080fd5b505afa15801562000a78573d6000803e3d6000fd5b505050506040513d601f19601f8201168201806040525081019062000a9e91906200135e565b905060018115151462000ac55760405162461bcd60e51b8152600401620005fa9062001936565b6000866001600160a01b031663a224ee9c6040518163ffffffff1660e01b815260040160206040518083038186803b15801562000b0157600080fd5b505afa15801562000b16573d6000803e3d6000fd5b505050506040513d601f19601f8201168201806040525081019062000b3c9190620012d4565b604051631a33288160e31b81529091506001600160a01b0382169063d19944089062000b6f908b908b9060040162001b08565b600060405180830381600087803b15801562000b8a57600080fd5b505af115801562000b9f573d6000803e3d6000fd5b505050505050505050505050565b6001600160a01b031660009081526007602052604090205490565b600254604051635c98d15760e01b81526000916001600160a01b031690635c98d1579062000bfb908a906004016200177f565b604080518083038186803b15801562000c1357600080fd5b505afa15801562000c28573d6000803e3d6000fd5b505050506040513d601f19601f8201168201806040525081019062000c4e9190620014ec565b91505060018115151462000c765760405162461bcd60e51b8152600401620005fa9062001a3a565b600154604051636891286d60e11b81526001600160a01b039091169063d12250da9062000ca8908c9060040162001623565b60206040518083038186803b15801562000cc157600080fd5b505afa15801562000cd6573d6000803e3d6000fd5b505050506040513d601f19601f8201168201806040525081019062000cfc91906200135e565b151560011462000d205760405162461bcd60e51b8152600401620005fa9062001800565b8462000d405760405162461bcd60e51b8152600401620005fa906200197e565b60005b8581101562000e6c576002546000906001600160a01b031663ddfc4fde8a8a8a8681811062000d6e57fe5b905060200201356040518363ffffffff1660e01b815260040162000d949291906200178f565b60206040518083038186803b15801562000dad57600080fd5b505afa15801562000dc2573d6000803e3d6000fd5b505050506040513d601f19601f8201168201806040525081019062000de891906200135e565b90508062000e0a5760405162461bcd60e51b8152600401620005fa9062001841565b600019870182101562000e625787878360010181811062000e2757fe5b9050602002013588888481811062000e3b57fe5b905060200201351062000e625760405162461bcd60e51b8152600401620005fa9062001ac8565b5060010162000d43565b5060035460405163ef4003db60e01b81526000916001600160a01b03169063ef4003db9062000ea090889060040162001623565b60206040518083038186803b15801562000eb957600080fd5b505afa15801562000ece573d6000803e3d6000fd5b505050506040513d601f19601f8201168201806040525081019062000ef491906200135e565b905060018115151462000f1b5760405162461bcd60e51b8152600401620005fa90620017bd565b6000338b8b888b8b8e600460009054906101000a90046001600160a01b0316600260009054906101000a90046001600160a01b03168d8d60405162000f6090620011ad565b62000f769b9a9998979695949392919062001637565b604051809103906000f08015801562000f93573d6000803e3d6000fd5b5060058054600180820183557f036b6384b5eca791c62761152d0c79bb0604c104a5fb6f4eb0703f3154bb3db090910180546001600160a01b0319166001600160a01b0385169081179091556000908152600660205260408120805460ff19168317905591549293509091620010099162001133565b33600081815260076020908152604080832080546001810182559084529183209091018490555192935090916001600160a01b038516917fb52f284a6c14f1a66ab5513b5b539066933e58e69e6432666f0e3c8c8a7d750391a3505050505050505050505050565b6200107b6200112f565b6000546001600160a01b03908116911614620010ab5760405162461bcd60e51b8152600401620005fa9062001a05565b6001600160a01b038116620010d45760405162461bcd60e51b8152600401620005fa90620018a0565b600080546040516001600160a01b03808516939216917f8be0079c531659141344cd1fd0a4f28419497f9722a3daafe3b4186f6b6457e091a3600080546001600160a01b0319166001600160a01b0392909216919091179055565b3390565b60006200117783836040518060400160405280601e81526020017f536166654d6174683a207375627472616374696f6e206f766572666c6f7700008152506200117e565b9392505050565b60008184841115620011a55760405162461bcd60e51b8152600401620005fa9190620017a8565b505050900390565b61356b8062001b7e83390190565b8035620003488162001b47565b600082601f830112620011d9578081fd5b813567ffffffffffffffff811115620011f0578182fd5b60208082026200120282820162001b1f565b838152935081840185830182870184018810156200121f57600080fd5b600092505b848310156200124457803582526001929092019190830190830162001224565b505050505092915050565b60008083601f84011262001261578081fd5b50813567ffffffffffffffff81111562001279578182fd5b60208301915083602080830285010111156200129457600080fd5b9250929050565b8035620003488162001b60565b8035620003488162001b6f565b600060208284031215620012c7578081fd5b8135620011778162001b47565b600060208284031215620012e6578081fd5b8151620011778162001b47565b6000806040838503121562001306578081fd5b8235620013138162001b47565b91506020830135620013258162001b47565b809150509250929050565b6000806040838503121562001343578182fd5b8235620013508162001b47565b946020939093013593505050565b60006020828403121562001370578081fd5b8151620011778162001b60565b60008060008060008060008060e0898b03121562001399578384fd5b8835620013a68162001b47565b975060208981013567ffffffffffffffff80821115620013c4578687fd5b818c0191508c601f830112620013d8578687fd5b813581811115620013e7578788fd5b620013fb601f8201601f1916850162001b1f565b8181528e858386010111156200140f578889fd5b818585018683013790810184018890529950620014308d60408e01620012a8565b985060608c013592508083111562001446578687fd5b620014548d848e016200124f565b935091508197508296506200146d8d60808e01620011bb565b95506200147e8d60a08e016200129b565b945060c08c013592508083111562001494578384fd5b5050620014a48b828c01620011c8565b9150509295985092959890939650565b600060208284031215620014c6578081fd5b8151620011778162001b6f565b600060208284031215620014e5578081fd5b5035919050565b60008060408385031215620014ff578182fd5b825191506020830151620013258162001b60565b6000806040838503121562001526578182fd5b823591506020830135620013258162001b47565b6000806000606084860312156200154f578081fd5b83519250602084015191506040840151600381106200156c578182fd5b809150509250925092565b6001600160a01b03169052565b6000815180845260208085019450808401835b83811015620015b55781518752958201959082019060010162001597565b509495945050505050565b15159052565b60068110620015d157fe5b9052565b60008151808452815b81811015620015fc57602081850181015186830182015201620015de565b818111156200160e5782602083870101525b50601f01601f19169290920160200192915050565b6001600160a01b0391909116815260200190565b6001600160a01b038c811682528b8116602083015261014060408301819052600091620016678483018e620015d5565b908c166060850152838103608085015289815290506001600160fb1b0389111562001690578182fd5b60208902808b60208401370160208101828152620016b260a085018a620015c6565b620016c160c085018962001577565b620016d060e085018862001577565b620016e0610100850187620015c0565b602084830301610120850152620016f8818662001584565b9f9e505050505050505050505050505050565b6001600160a01b0392831681529116602082015260400190565b6020808252825182820181905260009190848201906040850190845b81811015620017685783516001600160a01b03168352928401929184019160010162001741565b50909695505050505050565b901515815260200190565b60208101620003488284620015c6565b60408101600684106200179e57fe5b9281526020015290565b600060208252620011776020830184620015d5565b60208082526023908201527f6d657373656e6765722061646472657373206973206e6f7420726567697374656040820152621c995960ea1b606082015260800190565b60208082526021908201527f534c4f206e6f742072656769737465726564206f6e20534c4f526567697374726040820152607960f81b606082015260800190565b60208082526013908201527214195c9a5bd9081a59081b9bdd081d985b1a59606a1b604082015260600190565b6020808252601890820152774f6e6c7920666f72207265676973746572656420534c417360401b604082015260600190565b60208082526026908201527f4f776e61626c653a206e6577206f776e657220697320746865207a65726f206160408201526564647265737360d01b606082015260800190565b60208082526030908201527f534c4120636f6e74726163742077617320616c7265616479207665726966696560408201526f1908199bdc881d1a19481c195c9a5bd960821b606082015260800190565b60208082526028908201527f534c4120636f6e747261637420706572696f6420686173206e6f742066696e696040820152671cda1959081e595d60c21b606082015260800190565b6020808252601c908201527f506572696f647320696e666f726d6174696f6e20697320656d70747900000000604082015260600190565b60208082526030908201527f53686f756c64206f6e6c792062652063616c6c656420666f72206e6f7420627260408201526f65616368656420636f6e74726163747360801b606082015260800190565b6020808252818101527f4f776e61626c653a2063616c6c6572206973206e6f7420746865206f776e6572604082015260600190565b60208082526022908201527f506572696f642074797065206973206e6f7420696e697469616c697a65642079604082015261195d60f21b606082015260800190565b6020808252602c908201527f506572696f64204944206e6f74207265676973746572656420696e207468652060408201526b14d3104818dbdb9d1c9858dd60a21b606082015260800190565b6020808252601c908201527f506572696f64206964732073686f756c6420626520736f727465642000000000604082015260600190565b90815260200190565b9182526001600160a01b0316602082015260400190565b60405181810167ffffffffffffffff8111828210171562001b3f57600080fd5b604052919050565b6001600160a01b038116811462001b5d57600080fd5b50565b801515811462001b5d57600080fd5b6006811062001b5d57600080fdfe6080604052601d805460ff191690553480156200001b57600080fd5b506040516200356b3803806200356b8339810160408190526200003e91620007ad565b8383868851856000620000566200042160201b60201c565b600080546001600160a01b0319166001600160a01b0383169081178255604051929350916000805160206200354b833981519152908290a350600180546001600160a01b038088166001600160a01b0319928316178355600280549188169190921617905560108054859260ff1990911690836005811115620000d557fe5b021790555060118290556012805460ff191682151517905560015460408051637b8041cf60e11b815290516000928392839283926001600160a01b03169163f700839e916004808301926080929190829003018186803b1580156200013957600080fd5b505afa1580156200014e573d6000803e3d6000fd5b505050506040513d601f19601f82011682018060405250810190620001749190620008fc565b600254604051635c98d15760e01b815294985092965090945092506000916001600160a01b0390911690635c98d15790620001b4908b9060040162000932565b604080518083038186803b158015620001cc57600080fd5b505afa158015620001e1573d6000803e3d6000fd5b505050506040513d601f19601f82011682018060405250810190620002079190620008c7565b50600f81905560015460408051638b8e530960e01b815290519293506001600160a01b0390911691638b8e530991600480820192602092909190829003018186803b1580156200025657600080fd5b505afa1580156200026b573d6000803e3d6000fd5b505050506040513d601f19601f8201168201806040525081019062000291919062000787565b600980546001600160a01b0319166001600160a01b0392909216919091179055600b859055600c849055600d839055600e829055620002d03362000425565b600a600960009054906101000a90046001600160a01b03169080600181540180825580915050600190039060005260206000200160009091909190916101000a8154816001600160a01b0302191690836001600160a01b0316021790555050505050505050505050620003498a620004c860201b60201c565b87516200035e9060159060208b019062000575565b50601980546001600160a01b03808a166001600160a01b03199283161790925560188054909116331790556016805491851661010002610100600160a81b031990921691909117905543601b558551620003c0906017906020890190620005fa565b506016805486919060ff19166001836005811115620003db57fe5b0217905550601480546001600160a01b0319166001600160a01b038b1617905580516200041090601c906020840190620005fa565b505050505050505050505062000a59565b3390565b6200042f62000421565b6000546001600160a01b03908116911614620004685760405162461bcd60e51b81526004016200045f90620009c4565b60405180910390fd5b6001600160a01b03811660009081526013602052604090205460ff1615620004a45760405162461bcd60e51b81526004016200045f9062000947565b6001600160a01b03166000908152601360205260409020805460ff19166001179055565b620004d262000421565b6000546001600160a01b03908116911614620005025760405162461bcd60e51b81526004016200045f90620009c4565b6001600160a01b0381166200052b5760405162461bcd60e51b81526004016200045f906200097e565b600080546040516001600160a01b03808516939216916000805160206200354b83398151915291a3600080546001600160a01b0319166001600160a01b0392909216919091179055565b828054600181600116156101000203166002900490600052602060002090601f016020900481019282601f10620005b857805160ff1916838001178555620005e8565b82800160010185558215620005e8579182015b82811115620005e8578251825591602001919060010190620005cb565b50620005f692915062000637565b5090565b828054828255906000526020600020908101928215620005e85791602002820182811115620005e8578251825591602001919060010190620005cb565b5b80821115620005f6576000815560010162000638565b80516200065b8162000a40565b92915050565b600082601f83011262000672578081fd5b815162000689620006838262000a20565b620009f9565b818152915060208083019084810181840286018201871015620006ab57600080fd5b60005b84811015620006cc57815184529282019290820190600101620006ae565b505050505092915050565b805180151581146200065b57600080fd5b8051600681106200065b57600080fd5b600082601f83011262000709578081fd5b81516001600160401b038111156200071f578182fd5b602062000735601f8301601f19168201620009f9565b925081835284818386010111156200074c57600080fd5b60005b828110156200076c5784810182015184820183015281016200074f565b828111156200077e5760008284860101525b50505092915050565b60006020828403121562000799578081fd5b8151620007a68162000a40565b9392505050565b6000806000806000806000806000806101408b8d031215620007cd578586fd5b620007d98c8c6200064e565b9950620007ea8c60208d016200064e565b60408c01519099506001600160401b038082111562000807578788fd5b620008158e838f01620006f8565b9950620008268e60608f016200064e565b985060808d01519150808211156200083c578788fd5b6200084a8e838f0162000661565b97506200085b8e60a08f01620006e8565b96506200086c8e60c08f016200064e565b95506200087d8e60e08f016200064e565b94506200088f8e6101008f01620006d7565b93506101208d0151915080821115620008a6578283fd5b50620008b58d828e0162000661565b9150509295989b9194979a5092959850565b60008060408385031215620008da578182fd5b8251915060208301518015158114620008f1578182fd5b809150509250929050565b6000806000806080858703121562000912578384fd5b505082516020840151604085015160609095015191969095509092509050565b60208101600683106200094157fe5b91905290565b60208082526018908201527f5573657220616c72656164792077686974656c69737465640000000000000000604082015260600190565b60208082526026908201527f4f776e61626c653a206e6577206f776e657220697320746865207a65726f206160408201526564647265737360d01b606082015260800190565b6020808252818101527f4f776e61626c653a2063616c6c6572206973206e6f7420746865206f776e6572604082015260600190565b6040518181016001600160401b038111828210171562000a1857600080fd5b604052919050565b60006001600160401b0382111562000a36578081fd5b5060209081020190565b6001600160a01b038116811462000a5657600080fd5b50565b612ae28062000a696000396000f3fe608060405234801561001057600080fd5b506004361061025e5760003560e01c80637fd788aa11610146578063d7a5c422116100c3578063f2fde38b11610087578063f2fde38b146104cb578063f51b7ab9146104de578063f7e9dfff146104e6578063f9902bb1146104ee578063fbbf93a014610501578063fd5e6dd11461051b5761025e565b8063d7a5c42214610482578063db2da48c14610495578063db69a462146104a8578063e68e276d146104b0578063ee575c28146104c35761025e565b8063b18ac9181161010a578063b18ac91814610442578063b7bc347e1461044a578063c623674f14610452578063cbe230c314610467578063cd92890e1461047a5761025e565b80637fd788aa146104005780638da5cb5b146104085780639ab4438f146104105780639fc4caa514610432578063a224ee9c1461043a5761025e565b80633d9287fa116101df5780635e5f2e26116101a35780635e5f2e261461037e5780636f1e85331461039e5780636f265a34146103b1578063715018a6146103d2578063747b8050146103da57806378025ec4146103ed5761025e565b80633d9287fa1461032557806346e0fbae1461032d578063524f07351461034257806357ac94f0146103555780635c1c20de146103765761025e565b80631bf30929116102265780631bf30929146102dc5780631fc2cd93146102e457806327cd727c146102f75780632eb8197a1461030a57806333df1541146103125761025e565b8063021eef7f146102635780630ae9ea451461028c5780630bea440d146102ac5780630c5160f4146102c1578063171e44ea146102c9575b600080fd5b6102766102713660046121ad565b61052e565b60405161028391906123df565b60405180910390f35b61029f61029a3660046121ad565b610578565b60405161028391906123ea565b6102bf6102ba3660046121dd565b610596565b005b61029f610673565b6102bf6102d7366004612148565b610679565b61029f6107c7565b6102bf6102f2366004612148565b6107cd565b6102bf6103053660046121dd565b610a20565b61029f610b7e565b61029f6103203660046121dd565b610b84565b610276610ba1565b610335610baa565b60405161028391906123f3565b6102bf610350366004612148565b610bb3565b610368610363366004612163565b610bbf565b60405161028392919061231b565b61029f610c0d565b61039161038c3660046121ad565b610c13565b60405161028391906122e3565b6102766103ac366004612148565b610c3a565b6103c46103bf366004612148565b610c8c565b604051610283929190612a36565b6102bf610cf1565b6102bf6103e8366004612148565b610d70565b61029f6103fb3660046121ad565b610e02565b610276610e0f565b610391610e18565b61042361041e3660046121ad565b610e27565b60405161028393929190612a44565b610391610e4b565b610391610e5f565b61029f610e6e565b61029f610e74565b61045a610e7a565b604051610283919061241f565b610276610475366004612148565b610f08565b610391610f5a565b6102bf610490366004612209565b610f69565b61029f6104a3366004612148565b611225565b610391611237565b61029f6104be366004612148565b611246565b61029f611258565b6102bf6104d9366004612148565b61125e565b61029f611314565b61039161131a565b6102bf6104fc366004612148565b611329565b6105096113bc565b60405161028396959493929190612334565b6103916105293660046121ad565b6116af565b6000805b60175481101561056d57826017828154811061054a57fe5b90600052602060002001541415610565576001915050610573565b600101610532565b50600090505b919050565b6017818154811061058557fe5b600091825260209091200154905081565b600082116105bf5760405162461bcd60e51b81526004016105b6906128e6565b60405180910390fd5b601d5460ff16156105e25760405162461bcd60e51b81526004016105b690612830565b6105ec82826116bc565b601854604051635948284760e11b81526001600160a01b039091169063b290508e9061061c9033906004016122e3565b602060405180830381600087803b15801561063657600080fd5b505af115801561064a573d6000803e3d6000fd5b505050506040513d601f19601f8201168201806040525081019061066e919061218d565b505050565b60115481565b610681611965565b6000546001600160a01b039081169116146106ae5760405162461bcd60e51b81526004016105b6906127fb565b6106b781610f08565b156106d45760405162461bcd60e51b81526004016105b6906128b9565b60015460405163cbe230c360e01b81526001600160a01b039091169063cbe230c3906107049084906004016122e3565b60206040518083038186803b15801561071c57600080fd5b505afa158015610730573d6000803e3d6000fd5b505050506040513d601f19601f82011682018060405250810190610754919061218d565b15156001146107755760405162461bcd60e51b81526004016105b690612595565b600a80546001810182556000919091527fc65a7bb8d6351c1cf70c95a316cc6a92839c986682d98bc35f958f4883f9d2a80180546001600160a01b0319166001600160a01b0392909216919091179055565b601b5481565b6107d5610e18565b6001600160a01b0316336001600160a01b031614156108065760405162461bcd60e51b81526004016105b6906129f1565b60125460ff1615156001141561084a573360009081526013602052604090205460ff16151560011461084a5760405162461bcd60e51b81526004016105b690612684565b6001600160a01b0381166000908152600460209081526040808320338452909152902054612710908061088f5760405162461bcd60e51b81526004016105b690612627565b6001600160a01b0383166000908152600560205260408120546108bc906108b68486611969565b906119ac565b6001600160a01b038516600090815260066020526040812054919250906108e99085906108b69085611969565b90506000856001600160a01b031663a9059cbb33846002026040518363ffffffff1660e01b815260040161091e92919061231b565b602060405180830381600087803b15801561093857600080fd5b505af115801561094c573d6000803e3d6000fd5b505050506040513d601f19601f82011682018060405250810190610970919061218d565b90506001811515146109945760405162461bcd60e51b81526004016105b690612989565b6001600160a01b0386166000908152600560205260409020546109b790856119ee565b6001600160a01b0387166000908152600560209081526040808320939093556006905220546109e690836119ee565b6001600160a01b03909616600090815260066020908152604080832098909855600481528782203383529052958620959095555050505050565b60008211610a405760405162461bcd60e51b81526004016105b6906128e6565b60178054600091906000198101908110610a5657fe5b600091825260208220015460165460405160016259edcb60e01b031981529193506001600160a01b036101008204169163ffa6123591610aa09160ff909116908690600401612407565b604080518083038186803b158015610ab757600080fd5b505afa158015610acb573d6000803e3d6000fd5b505050506040513d601f19601f82011682018060405250810190610aef919061222a565b915050610afa610e18565b6001600160a01b0316336001600160a01b031614610b6e57601d5460ff16151560011480610b525750804210158015610b5257506000828152601a6020526040812060029081015460ff1690811115610b4f57fe5b14155b610b6e5760405162461bcd60e51b81526004016105b690612499565b610b788484611a30565b50505050565b600e5481565b600760209081526000928352604080842090915290825290205481565b60125460ff1681565b60165460ff1681565b610bbc816107cd565b50565b6000806000600a8481548110610bd157fe5b6000918252602080832091909101546001600160a01b039081168084526004835260408085209990921684529790915290205494959350505050565b600b5481565b600a8181548110610c2057fe5b6000918252602090912001546001600160a01b0316905081565b6000805b60085481101561056d57826001600160a01b031660088281548110610c5f57fe5b6000918252602090912001546001600160a01b03161415610c84576001915050610573565b600101610c3e565b6001600160a01b0381166000908152600460205260408120819081610caf610e18565b6001600160a01b039081168252602080830193909352604091820160009081205491871681526003909352912054909250610cea90836119ee565b9050915091565b610cf9611965565b6000546001600160a01b03908116911614610d265760405162461bcd60e51b81526004016105b6906127fb565b600080546040516001600160a01b03909116907f8be0079c531659141344cd1fd0a4f28419497f9722a3daafe3b4186f6b6457e0908390a3600080546001600160a01b0319169055565b610d78611965565b6000546001600160a01b03908116911614610da55760405162461bcd60e51b81526004016105b6906127fb565b6001600160a01b03811660009081526013602052604090205460ff1615610dde5760405162461bcd60e51b81526004016105b690612467565b6001600160a01b03166000908152601360205260409020805460ff19166001179055565b601c818154811061058557fe5b601d5460ff1690565b6000546001600160a01b031690565b601a6020526000908152604090208054600182015460029092015490919060ff1683565b60165461010090046001600160a01b031681565b6019546001600160a01b031681565b600d5481565b600a5490565b6015805460408051602060026001851615610100026000190190941693909304601f81018490048402820184019092528181529291830182828015610f005780601f10610ed557610100808354040283529160200191610f00565b820191906000526020600020905b815481529060010190602001808311610ee357829003601f168201915b505050505081565b6000805b600a5481101561056d57826001600160a01b0316600a8281548110610f2d57fe5b6000918252602090912001546001600160a01b03161415610f52576001915050610573565b600101610f0c565b6014546001600160a01b031681565b6019546001600160a01b03163314610f935760405162461bcd60e51b81526004016105b6906125e2565b7fc95987c1992805ee34bdc915e017cceae36ba1c156b9911fa7e691e6435eb46e428383604051610fc693929190612a6a565b60405180910390a16000818152601a60209081526040808320600181018690554281556014548251633fa4f24560e01b815292519194936001600160a01b0390911692633fa4f2459260048083019392829003018186803b15801561102a57600080fd5b505afa15801561103e573d6000803e3d6000fd5b505050506040513d601f19601f8201168201806040525081019061106291906121c5565b6014546040516303c8f2e360e21b81529192506001600160a01b031690630f23cb8c906110939087906004016123ea565b60206040518083038186803b1580156110ab57600080fd5b505afa1580156110bf573d6000803e3d6000fd5b505050506040513d601f19601f820116820180604052508101906110e3919061218d565b156111c0576002828101805460ff191660011790556127109060009061112590611111906108b68987611c58565b6108b68461111f8a886119ee565b90611969565b9050600061115f6001611159601760008154811061113f57fe5b9060005260206000200154896119ee90919063ffffffff16565b90611c58565b60178054919250600091600019810190811061117757fe5b906000526020600020015487141561119957611194606485611969565b6111aa565b6017546111aa906108b68585611969565b90506111b7878286611c7d565b50505050610b78565b6002828101805460ff191690911790556111d8611db0565b601d805460ff191660011790556040517fbd33f7a3bfa88a467c9df5ae7d2341cf061084c386b20a0d48130f5cbce38a4d906112179085908790612a36565b60405180910390a150505050565b60066020526000908152604090205481565b6018546001600160a01b031681565b60056020526000908152604090205481565b600c5481565b611266611965565b6000546001600160a01b039081169116146112935760405162461bcd60e51b81526004016105b6906127fb565b6001600160a01b0381166112b95760405162461bcd60e51b81526004016105b690612518565b600080546040516001600160a01b03808516939216917f8be0079c531659141344cd1fd0a4f28419497f9722a3daafe3b4186f6b6457e091a3600080546001600160a01b0319166001600160a01b0392909216919091179055565b600f5481565b6009546001600160a01b031681565b611331611965565b6000546001600160a01b0390811691161461135e5760405162461bcd60e51b81526004016105b6906127fb565b6001600160a01b03811660009081526013602052604090205460ff16151560011461139b5760405162461bcd60e51b81526004016105b690612912565b6001600160a01b03166000908152601360205260409020805460ff19169055565b6000606060006060600060606113d0610e18565b60158054604080516020601f600260001961010060018816150201909516949094049384018190048102820181019092528281529399508301828280156114585780601f1061142d57610100808354040283529160200191611458565b820191906000526020600020905b81548152906001019060200180831161143b57829003601f168201915b50506014546017549499506001600160a01b031697505067ffffffffffffffff8311915050801561148857600080fd5b506040519080825280602002602001820160405280156114c257816020015b6114af6120ef565b8152602001906001900390816114a75790505b50925060005b60175481101561159f576000601782815481106114e157fe5b906000526020600020015490506114f66120ef565b6000828152601a6020908152604091829020825160608101845281548152600182015492810192909252600280820154929391929184019160ff169081111561153b57fe5b600281111561154657fe5b815250509050604051806060016040528082600001518152602001826020015181526020018260400151600281111561157b57fe5b81525086848151811061158a57fe5b602090810291909101015250506001016114c8565b50600854600a5490925067ffffffffffffffff811180156115bf57600080fd5b506040519080825280602002602001820160405280156115f957816020015b6115e661211a565b8152602001906001900390816115de5790505b50905060005b600a548110156116a6576040518060400160405280600a838154811061162157fe5b9060005260206000200160009054906101000a90046001600160a01b03166001600160a01b0316815260200160036000600a858154811061165e57fe5b60009182526020808320909101546001600160a01b031683528201929092526040019020549052825183908390811061169357fe5b60209081029190910101526001016115ff565b50909192939495565b60088181548110610c2057fe5b806116c681610f08565b15156001146116e75760405162461bcd60e51b81526004016105b6906127cd565b60125460ff1615156001141561172b573360009081526013602052604090205460ff16151560011461172b5760405162461bcd60e51b81526004016105b690612684565b611733610e18565b6001600160a01b0316336001600160a01b0316146117885760008061175784610c8c565b9092509050816117678287611c58565b11156117855760405162461bcd60e51b81526004016105b690612940565b50505b6040516323b872dd60e01b81526000906001600160a01b038416906323b872dd906117bb903390309089906004016122f7565b602060405180830381600087803b1580156117d557600080fd5b505af11580156117e9573d6000803e3d6000fd5b505050506040513d601f19601f8201168201806040525081019061180d919061218d565b90506001811515146118315760405162461bcd60e51b81526004016105b690612878565b6001600160a01b0383166000908152600360205260409020546118549085611c58565b6001600160a01b038416600090815260036020908152604080832093909355600481528282203383529052205461188b9085611c58565b6001600160a01b0384166000908152600460209081526040808320338085529252909120919091556118bc90610c3a565b61190357600880546001810182556000919091527ff3f7a9fe364faab93b216da50a3214154f22a0a2b415b23a84c8169e8b636ee30180546001600160a01b031916331790555b61190b610e18565b6001600160a01b0316336001600160a01b031614610b78576001600160a01b0383166000908152600560205260409020546119469085611c58565b6001600160a01b03841660009081526005602052604090205550505050565b3390565b600082611978575060006119a6565b8282028284828161198557fe5b04146119a35760405162461bcd60e51b81526004016105b69061278c565b90505b92915050565b60006119a383836040518060400160405280601a81526020017f536166654d6174683a206469766973696f6e206279207a65726f000000000000815250611f1b565b60006119a383836040518060400160405280601e81526020017f536166654d6174683a207375627472616374696f6e206f766572666c6f770000815250611f52565b80611a3a81610f08565b1515600114611a5b5760405162461bcd60e51b81526004016105b6906127cd565b60125460ff16151560011415611a9f573360009081526013602052604090205460ff161515600114611a9f5760405162461bcd60e51b81526004016105b690612684565b611aa7610e18565b6001600160a01b0316336001600160a01b03161415611afd57600080611acc84610c8c565b909250905080611adc83876119ee565b1015611afa5760405162461bcd60e51b81526004016105b6906126b5565b50505b6001600160a01b0382166000908152600460209081526040808320338452909152902054831115611b405760405162461bcd60e51b81526004016105b690612742565b6001600160a01b038216600090815260036020526040902054611b6390846119ee565b6001600160a01b0383166000908152600360209081526040808320939093556004815282822033835290522054611b9a90846119ee565b6001600160a01b038316600081815260046020818152604080842033808652925280842095909555935163a9059cbb60e01b8152919363a9059cbb92611be29289910161231b565b602060405180830381600087803b158015611bfc57600080fd5b505af1158015611c10573d6000803e3d6000fd5b505050506040513d601f19601f82011682018060405250810190611c34919061218d565b9050600181151514610b785760405162461bcd60e51b81526004016105b690612432565b6000828201838110156119a35760405162461bcd60e51b81526004016105b69061255e565b60005b600a54811015610b78576000600a8281548110611c9957fe5b60009182526020822001546001600160a01b03169150611cb882610c8c565b915060009050611ccf606486026108b68489611969565b6009549091506001600160a01b0384811691161415611d02576000611cf382611f7e565b9050611cff82826119ee565b50505b6001600160a01b0383166000908152600460205260408120611d4991839190611d29610e18565b6001600160a01b0316815260208101919091526040016000205490611c58565b6001600160a01b038416600090815260046020526040812090611d6a610e18565b6001600160a01b03908116825260208083019390935260409182016000908120949094558a84526007835281842096168352949052929092209190915550600101611c80565b60005b600a54811015610bbc576000600a8281548110611dcc57fe5b60009182526020822001546001600160a01b03169150611deb82610c8c565b6009549092508291506001600160a01b0384811691161415611e21576000611e1282611f7e565b9050611e1e82826119ee565b50505b6001600160a01b038316600090815260036020526040902054611e4490826119ee565b6001600160a01b03841660009081526003602090815260408083209390935560049052908120611e9991839190611e79610e18565b6001600160a01b03168152602081019190915260400160002054906119ee565b6001600160a01b038416600090815260046020526040812090611eba610e18565b6001600160a01b0390811682526020808301939093526040918201600090812094909455861683526006909152902054611ef49082611c58565b6001600160a01b039093166000908152600660205260409020929092555050600101611db3565b60008183611f3c5760405162461bcd60e51b81526004016105b6919061241f565b506000838581611f4857fe5b0495945050505050565b60008184841115611f765760405162461bcd60e51b81526004016105b6919061241f565b505050900390565b60408051808201909152600d81526c6275726e2875696e743235362960981b602090910152600b546000907f42966c689b5afe9b9b3f8a7103b2a19980d59629bfd6a20a60972312ed41d83690611fde906103e8906108b6908690611969565b6009546040519193506000916001600160a01b039091169083906120069086906024016123ea565b60408051601f198184030181529181526020820180516001600160e01b03166001600160e01b031990941693909317909252905161204491906122c7565b6000604051808303816000865af19150503d8060008114612081576040519150601f19603f3d011682016040523d82523d6000602084013e612086565b606091505b50509050806120a75760405162461bcd60e51b81526004016105b6906126fe565b6009546001600160a01b03166000908152600360205260409020546120cc90846119ee565b6009546001600160a01b0316600090815260036020526040902055509092915050565b604051806060016040528060008152602001600081526020016000600281111561211557fe5b905290565b604080518082019091526000808252602082015290565b80356001600160a01b03811681146119a657600080fd5b600060208284031215612159578081fd5b6119a38383612131565b60008060408385031215612175578081fd5b61217f8484612131565b946020939093013593505050565b60006020828403121561219e578081fd5b815180151581146119a3578182fd5b6000602082840312156121be578081fd5b5035919050565b6000602082840312156121d6578081fd5b5051919050565b600080604083850312156121ef578182fd5b823591506122008460208501612131565b90509250929050565b6000806040838503121561221b578182fd5b50508035926020909101359150565b6000806040838503121561223c578182fd5b505080516020909101519092909150565b6000815180845260208085019450808401835b8381101561229057815180516001600160a01b031688528301518388015260409096019590820190600101612260565b509495945050505050565b600081518084526122b3816020860160208601612a80565b601f01601f19169290920160200192915050565b600082516122d9818460208701612a80565b9190910192915050565b6001600160a01b0391909116815260200190565b6001600160a01b039384168152919092166020820152604081019190915260600190565b6001600160a01b03929092168252602082015260400190565b600060018060a01b038089168352602060c08185015261235760c085018a61229b565b6040838a168187015260609350858203848701528189518084528484019150848b019350865b818110156123b4578451805184528681015187850152840151600381106123a057fe5b83850152938501939186019160010161237d565b505088608088015286810360a08801526123ce818961224d565b9d9c50505050505050505050505050565b901515815260200190565b90815260200190565b602081016006831061240157fe5b91905290565b604081016006841061241557fe5b9281526020015290565b6000602082526119a3602083018461229b565b6020808252818101527f5374616b6520776974686472617720776173206e6f742073756363657366756c604082015260600190565b602080825260189082015277155cd95c88185b1c9958591e481dda1a5d195b1a5cdd195960421b604082015260600190565b60208082526059908201527f43616e206f6e6c79207769746864726177207374616b6520616674657220746860408201527f652066696e616c20706572696f642069732066696e6973686564206f72206966606082015278081d1a194818dbdb9d1c9858dd081a5cc8189c995858da1959603a1b608082015260a00190565b60208082526026908201527f4f776e61626c653a206e6577206f776e657220697320746865207a65726f206160408201526564647265737360d01b606082015260800190565b6020808252601b908201527f536166654d6174683a206164646974696f6e206f766572666c6f770000000000604082015260600190565b6020808252602d908201527f546f6b656e206e6f7420616c6c6f7765642062792074686520534c415265676960408201526c1cdd1c9e4818dbdb9d1c9858dd609a1b606082015260800190565b60208082526025908201527f4f6e6c79204d657373656e6765722063616e2063616c6c20746869732066756e60408201526431ba34b7b760d91b606082015260800190565b6020808252603a908201527f43616e206f6e6c7920636c61696d206120636f6d70656e736174696f6e20696660408201527f20706f736974696f6e20697320626967676572207468616e2030000000000000606082015260800190565b602080825260179082015276155cd95c881a5cc81b9bdd081dda1a5d195b1a5cdd1959604a1b604082015260600190565b60208082526029908201527f53686f756c64206e6f74207769746864726177206d6f7265207468616e207573604082015268657273207374616b6560b81b606082015260800190565b60208082526024908201527f44534c41206275726e2070726f6365737320776173206e6f74207375636365736040820152631cd99d5b60e21b606082015260800190565b6020808252602a908201527f53686f756c64206e6f74207769746864726177206d6f7265207374616b6520746040820152691a185b881cdd185ad95960b21b606082015260800190565b60208082526021908201527f536166654d6174683a206d756c7469706c69636174696f6e206f766572666c6f6040820152607760f81b606082015260800190565b6020808252601490820152731d1bdad95b881a5cc81b9bdd08185b1b1bddd95960621b604082015260600190565b6020808252818101527f4f776e61626c653a2063616c6c6572206973206e6f7420746865206f776e6572604082015260600190565b60208082526028908201527f43616e206f6e6c79207374616b65206f6e206e6f7420627265616368656420636040820152676f6e74726163747360c01b606082015260800190565b60208082526021908201527f5374616b696e672070726f6365737320776173206e6f742073756363657366756040820152601b60fa1b606082015260800190565b602080825260139082015272151bdad95b88185b1c9958591e481859191959606a1b604082015260600190565b6020808252601290820152710616d6f756e742063616e6e6f7420626520360741b604082015260600190565b602080825260149082015273155cd95c881b9bdd081dda1a5d195b1a5cdd195960621b604082015260600190565b60208082526029908201527f43616e6e6f74207374616b65206d6f7265207468616e20534c412070726f7669604082015268646572207374616b6560b81b606082015260800190565b60208082526042908201527f5472616e736665722070726f636573732066726f6d20534c4120636f6e74726160408201527f637420746f206d73672e73656e64657220776173206e6f7420737563636573666060820152611d5b60f21b608082015260a00190565b60208082526025908201527f53686f756c64206e6f742062652063616c6c65642062792074686520534c412060408201526437bbb732b960d91b606082015260800190565b918252602082015260400190565b838152602081018390526060810160038310612a5c57fe5b826040830152949350505050565b9283526020830191909152604082015260600190565b60005b83811015612a9b578181015183820152602001612a83565b83811115610b78575050600091015256fea2646970667358221220d9de1c0f3ec5256aeae4951acb8f60f90e5f2f049341c7b286f035bad94bbdcf64736f6c634300060c00338be0079c531659141344cd1fd0a4f28419497f9722a3daafe3b4186f6b6457e0a2646970667358221220982ce16ef9212011bc5de74dfe89f52a3c34cc4ae95642cb7778b9cbff42f56a64736f6c634300060c0033",
  "immutableReferences": {},
  "source": "// SPDX-License-Identifier: MIT\npragma solidity ^0.6.0;\npragma experimental ABIEncoderV2;\n\nimport \"@openzeppelin/contracts/math/SafeMath.sol\";\nimport \"@openzeppelin/contracts/token/ERC20/IERC20.sol\";\nimport \"@openzeppelin/contracts/access/Ownable.sol\";\nimport \"./SLA.sol\";\nimport \"./SLO.sol\";\nimport \"./SLORegistry.sol\";\nimport \"./PeriodRegistry.sol\";\nimport \"./MessengerRegistry.sol\";\nimport \"./StakeRegistry.sol\";\nimport \"./messenger/IMessenger.sol\";\n\n/**\n * @title SLARegistry\n * @dev SLARegistry is a contract for handling creation of service level\n * agreements and keeping track of the created agreements\n */\ncontract SLARegistry is Ownable {\n    using SafeMath for uint256;\n\n    /// @dev SLO registry\n    SLORegistry public sloRegistry;\n    /// @dev Periods registry\n    PeriodRegistry public periodRegistry;\n    /// @dev Messengers registry\n    MessengerRegistry public messengerRegistry;\n    /// @dev Stake registry\n    StakeRegistry public stakeRegistry;\n    /// @dev stores the addresses of created SLAs\n    SLA[] public SLAs;\n    /// @dev (slaAddress=>bool) to check if SLA is registered\n    mapping(address => bool) public registeredSLAs;\n    /// @dev stores the indexes of service level agreements owned by an user\n    mapping(address => uint256[]) private userToSLAIndexes;\n    /// @dev mapping userAddress => SLA[]\n    mapping(address => SLA[]) public userStakedSlas;\n\n    /**\n     * @dev event for service level agreement creation logging\n     * @param sla 1. The address of the created service level agreement contract\n     * @param owner 2. The address of the owner of the service level agreement\n     */\n    event SLACreated(SLA indexed sla, address indexed owner);\n\n    /**\n     * @dev constructor\n     * @param _sloRegistry 1. SLO Registry\n     * @param _periodRegistry 2. Periods registry\n     * @param _messengerRegistry 3. Messenger registry\n     * @param _stakeRegistry 4. Stake registry\n     */\n    constructor(\n        SLORegistry _sloRegistry,\n        PeriodRegistry _periodRegistry,\n        MessengerRegistry _messengerRegistry,\n        StakeRegistry _stakeRegistry\n    ) public {\n        sloRegistry = _sloRegistry;\n        periodRegistry = _periodRegistry;\n        stakeRegistry = _stakeRegistry;\n        messengerRegistry = _messengerRegistry;\n        messengerRegistry.setSLARegistry();\n    }\n\n    /**\n     * @dev public function for creating canonical service level agreements\n     * @param _SLO 1. SLO\n     * @param _ipfsHash 2. string with the ipfs hash that contains extra information about the service level agreement\n     * @param _periodType 3. period type\n     * @param _periodIds 4. array of allowed period ids\n     * @param _messengerAddress 5. address of the messenger for the corresponding SLA\n     * @param _whitelisted 6. bool to declare whitelisted SLA\n     * @param _extraData 7. bytes32 to embed extra data for customized workflows\n     */\n    function createSLA(\n        SLO _SLO,\n        string memory _ipfsHash,\n        PeriodRegistry.PeriodType _periodType,\n        uint256[] calldata _periodIds,\n        address _messengerAddress,\n        bool _whitelisted,\n        bytes32[] memory _extraData\n    ) public {\n        (, bool initialized) = periodRegistry.periodDefinitions(_periodType);\n        require(initialized == true, \"Period type is not initialized yet\");\n        require(\n            sloRegistry.isRegisteredSLO(address(_SLO)) == true,\n            \"SLO not registered on SLORegistry\"\n        );\n        require(_periodIds.length > 0, \"Periods information is empty\");\n        // check if _periodIds are valid and sorted in ascendant order\n        for (uint256 index = 0; index < _periodIds.length; index++) {\n            bool validPeriod =\n                periodRegistry.isValidPeriod(_periodType, _periodIds[index]);\n            require(validPeriod, \"Period id not valid\");\n            if (index < _periodIds.length - 1) {\n                require(\n                    _periodIds[index] < _periodIds[index + 1],\n                    \"Period ids should be sorted \"\n                );\n            }\n        }\n        bool registeredMessenger =\n            messengerRegistry.registeredMessengers(_messengerAddress);\n        require(\n            registeredMessenger == true,\n            \"messenger address is not registered\"\n        );\n\n        SLA sla =\n            new SLA(\n                msg.sender,\n                _SLO,\n                _ipfsHash,\n                _messengerAddress,\n                _periodIds,\n                _periodType,\n                address(stakeRegistry),\n                address(periodRegistry),\n                _whitelisted,\n                _extraData\n            );\n\n        SLAs.push(sla);\n        registeredSLAs[address(sla)] = true;\n        uint256 index = SLAs.length.sub(1);\n        userToSLAIndexes[msg.sender].push(index);\n        emit SLACreated(sla, msg.sender);\n    }\n\n    /**\n     * @dev Gets SLI information for the specified SLA and SLO\n     * @param _periodId 1. id of the period\n     * @param _sla 2. SLA Address\n     */\n    function requestSLI(uint256 _periodId, SLA _sla) public {\n        bool breachedContract = _sla.breachedContract();\n        (, , SLA.Status status) = _sla.slaPeriods(_periodId);\n        require(\n            status == SLA.Status.NotVerified,\n            \"SLA contract was already verified for the period\"\n        );\n        require(\n            breachedContract == false,\n            \"Should only be called for not breached contracts\"\n        );\n        bool slaAllowedPeriodId = _sla.isAllowedPeriod(_periodId);\n        require(\n            slaAllowedPeriodId == true,\n            \"Period ID not registered in the SLA contract\"\n        );\n        PeriodRegistry.PeriodType slaPeriodType = _sla.periodType();\n        bool periodFinished =\n            periodRegistry.periodIsFinished(slaPeriodType, _periodId);\n        require(\n            periodFinished == true,\n            \"SLA contract period has not finished yet\"\n        );\n        address slaMessenger = _sla.messengerAddress();\n        IMessenger(slaMessenger).requestSLI(_periodId, address(_sla));\n    }\n\n    /**\n     * @dev function to declare this SLARegistry contract as SLARegistry of _messengerAddress\n     * @param _messengerAddress 1. address of the messenger\n     */\n\n    function setMessengerSLARegistryAddress(address _messengerAddress) public {\n        IMessenger(_messengerAddress).setSLARegistry();\n        messengerRegistry.registerMessenger(_messengerAddress, msg.sender);\n    }\n\n    /**\n     * @dev public view function that returns the service level agreements that\n     * the given user is the owner of\n     * @param _user Address of the user for which to return the service level\n     * agreements\n     * @return array of SLAs\n     */\n    function userSLAs(address _user) public view returns (SLA[] memory) {\n        uint256 count = userSLACount(_user);\n        SLA[] memory SLAList = new SLA[](count);\n        uint256[] memory userSLAIndexes = userToSLAIndexes[_user];\n\n        for (uint256 i = 0; i < count; i++) {\n            SLAList[i] = (SLAs[userSLAIndexes[i]]);\n        }\n\n        return (SLAList);\n    }\n\n    /**\n     * @dev public view function that returns the amount of service level\n     * agreements the given user is the owner of\n     * @param _user 1. address of the user for which to return the amount of\n     * service level agreements\n     * @return uint256 corresponding to the amount of user's SLAs\n     */\n    function userSLACount(address _user) public view returns (uint256) {\n        return userToSLAIndexes[_user].length;\n    }\n\n    /**\n     * @dev public view function that returns all the service level agreements\n     * @return SLA[] array of SLAs\n     */\n    function allSLAs() public view returns (SLA[] memory) {\n        return (SLAs);\n    }\n\n    /**\n     * @dev public view function that returns the total amount of service\n     * level agreements\n     * @return uint256, the length of SLA array\n     */\n    function SLACount() public view returns (uint256) {\n        return SLAs.length;\n    }\n\n    /**\n     *@dev public view function that returns true if the _owner has staked on _sla\n     *@param _user 1. address to check\n     *@param _sla 2. sla to check\n     *@return bool, true if _sla was staked by _user\n     */\n    function slaWasStakedByUser(address _user, address _sla)\n        public\n        view\n        returns (bool)\n    {\n        for (uint256 index = 0; index < userStakedSlas[_user].length; index++) {\n            if (address(userStakedSlas[_user][index]) == _sla) {\n                return true;\n            }\n        }\n        return false;\n    }\n\n    /**\n     *@dev register the sending SLA contract as staked by _owner\n     *@param _owner 1. SLA contract to stake\n     */\n    function registerStakedSla(address _owner) public returns (bool) {\n        require(registeredSLAs[msg.sender] == true, \"Only for registered SLAs\");\n        if (slaWasStakedByUser(_owner, msg.sender) == false) {\n            userStakedSlas[_owner].push(SLA(msg.sender));\n        }\n        return true;\n    }\n}\n",
  "sourcePath": "/Users/matiasbn/Desktop/stacktical/stacktical-dsla-contracts/contracts/SLARegistry.sol",
  "compiler": {
    "name": "solc",
    "version": "0.6.12+commit.27d51765.Emscripten.clang"
  },
  "schemaVersion": "3.3.3",
  "updatedAt": "2021-02-19T15:27:36.276Z",
  "networkType": "ethereum",
  "devdoc": {
    "details": "SLARegistry is a contract for handling creation of service level agreements and keeping track of the created agreements",
    "events": {
      "SLACreated(address,address)": {
        "details": "event for service level agreement creation logging",
        "params": {
          "owner": "2. The address of the owner of the service level agreement",
          "sla": "1. The address of the created service level agreement contract"
        }
      }
    },
    "kind": "dev",
    "methods": {
      "SLACount()": {
        "details": "public view function that returns the total amount of service level agreements",
        "returns": {
          "_0": "uint256, the length of SLA array"
        }
      },
      "allSLAs()": {
        "details": "public view function that returns all the service level agreements",
        "returns": {
          "_0": "SLA[] array of SLAs"
        }
      },
      "constructor": {
        "details": "constructor",
        "params": {
          "_messengerRegistry": "3. Messenger registry",
          "_periodRegistry": "2. Periods registry",
          "_sloRegistry": "1. SLO Registry",
          "_stakeRegistry": "4. Stake registry"
        }
      },
      "createSLA(address,string,uint8,uint256[],address,bool,bytes32[])": {
        "details": "public function for creating canonical service level agreements",
        "params": {
          "_SLO": "1. SLO",
          "_extraData": "7. bytes32 to embed extra data for customized workflows",
          "_ipfsHash": "2. string with the ipfs hash that contains extra information about the service level agreement",
          "_messengerAddress": "5. address of the messenger for the corresponding SLA",
          "_periodIds": "4. array of allowed period ids",
          "_periodType": "3. period type",
          "_whitelisted": "6. bool to declare whitelisted SLA"
        }
      },
      "owner()": {
        "details": "Returns the address of the current owner."
      },
      "registerStakedSla(address)": {
        "details": "register the sending SLA contract as staked by _owner",
        "params": {
          "_owner": "1. SLA contract to stake"
        }
      },
      "renounceOwnership()": {
        "details": "Leaves the contract without owner. It will not be possible to call `onlyOwner` functions anymore. Can only be called by the current owner. NOTE: Renouncing ownership will leave the contract without an owner, thereby removing any functionality that is only available to the owner."
      },
      "requestSLI(uint256,address)": {
        "details": "Gets SLI information for the specified SLA and SLO",
        "params": {
          "_periodId": "1. id of the period",
          "_sla": "2. SLA Address"
        }
      },
      "setMessengerSLARegistryAddress(address)": {
        "details": "function to declare this SLARegistry contract as SLARegistry of _messengerAddress",
        "params": {
          "_messengerAddress": "1. address of the messenger"
        }
      },
      "slaWasStakedByUser(address,address)": {
        "details": "public view function that returns true if the _owner has staked on _sla",
        "params": {
          "_sla": "2. sla to check",
          "_user": "1. address to check"
        },
        "returns": {
          "_0": "bool, true if _sla was staked by _user"
        }
      },
      "transferOwnership(address)": {
        "details": "Transfers ownership of the contract to a new account (`newOwner`). Can only be called by the current owner."
      },
      "userSLACount(address)": {
        "details": "public view function that returns the amount of service level agreements the given user is the owner of",
        "params": {
          "_user": "1. address of the user for which to return the amount of service level agreements"
        },
        "returns": {
          "_0": "uint256 corresponding to the amount of user's SLAs"
        }
      },
      "userSLAs(address)": {
        "details": "public view function that returns the service level agreements that the given user is the owner of",
        "params": {
          "_user": "Address of the user for which to return the service level agreements"
        },
        "returns": {
          "_0": "array of SLAs"
        }
      }
    },
    "stateVariables": {
      "SLAs": {
        "details": "stores the addresses of created SLAs"
      },
      "messengerRegistry": {
        "details": "Messengers registry"
      },
      "periodRegistry": {
        "details": "Periods registry"
      },
      "registeredSLAs": {
        "details": "(slaAddress=>bool) to check if SLA is registered"
      },
      "sloRegistry": {
        "details": "SLO registry"
      },
      "stakeRegistry": {
        "details": "Stake registry"
      },
      "userStakedSlas": {
        "details": "mapping userAddress => SLA[]"
      },
      "userToSLAIndexes": {
        "details": "stores the indexes of service level agreements owned by an user"
      }
    },
    "title": "SLARegistry",
    "version": 1
  },
  "userdoc": {
    "kind": "user",
    "methods": {},
    "version": 1
  }
}