{
  "contractName": "SLARegistry",
  "abi": [
    {
      "inputs": [
        {
          "internalType": "contract Messenger",
          "name": "_messengerAddress",
          "type": "address"
        },
        {
          "internalType": "uint256[]",
          "name": "_sla_week_period_starts",
          "type": "uint256[]"
        },
        {
          "internalType": "uint256[]",
          "name": "_sla_week_period_ends",
          "type": "uint256[]"
        },
        {
          "internalType": "bytes32[]",
          "name": "_networkNames",
          "type": "bytes32[]"
        },
        {
          "internalType": "contract IERC20",
          "name": "_dslaToken",
          "type": "address"
        },
        {
          "internalType": "contract SLORegistry",
          "name": "_sloRegistry",
          "type": "address"
        }
      ],
      "stateMutability": "nonpayable",
      "type": "constructor"
    },
    {
      "anonymous": false,
      "inputs": [
        {
          "indexed": false,
          "internalType": "bytes32",
          "name": "_ipfsHash",
          "type": "bytes32"
        },
        {
          "indexed": false,
          "internalType": "bytes32",
          "name": "_network",
          "type": "bytes32"
        },
        {
          "indexed": false,
          "internalType": "uint256",
          "name": "_periodId",
          "type": "uint256"
        }
      ],
      "name": "AnalyticsReceived",
      "type": "event"
    },
    {
      "anonymous": false,
      "inputs": [
        {
          "indexed": true,
          "internalType": "address",
          "name": "previousOwner",
          "type": "address"
        },
        {
          "indexed": true,
          "internalType": "address",
          "name": "newOwner",
          "type": "address"
        }
      ],
      "name": "OwnershipTransferred",
      "type": "event"
    },
    {
      "anonymous": false,
      "inputs": [
        {
          "indexed": true,
          "internalType": "contract SLA",
          "name": "sla",
          "type": "address"
        },
        {
          "indexed": true,
          "internalType": "address",
          "name": "owner",
          "type": "address"
        }
      ],
      "name": "SLACreated",
      "type": "event"
    },
    {
      "anonymous": false,
      "inputs": [
        {
          "indexed": false,
          "internalType": "uint256",
          "name": "providerRewardPercentage",
          "type": "uint256"
        },
        {
          "indexed": false,
          "internalType": "uint256",
          "name": "burnRate",
          "type": "uint256"
        },
        {
          "indexed": false,
          "internalType": "uint256",
          "name": "minimumDSLAStakedTier1",
          "type": "uint256"
        },
        {
          "indexed": false,
          "internalType": "uint256",
          "name": "minimumDSLAStakedTier2",
          "type": "uint256"
        },
        {
          "indexed": false,
          "internalType": "uint256",
          "name": "minimumDSLAStakedTier3",
          "type": "uint256"
        }
      ],
      "name": "StakingParametersModified",
      "type": "event"
    },
    {
      "inputs": [],
      "name": "DSLAToken",
      "outputs": [
        {
          "internalType": "contract IERC20",
          "name": "",
          "type": "address"
        }
      ],
      "stateMutability": "view",
      "type": "function"
    },
    {
      "inputs": [
        {
          "internalType": "uint256",
          "name": "",
          "type": "uint256"
        }
      ],
      "name": "SLAs",
      "outputs": [
        {
          "internalType": "contract SLA",
          "name": "",
          "type": "address"
        }
      ],
      "stateMutability": "view",
      "type": "function"
    },
    {
      "inputs": [
        {
          "internalType": "uint256",
          "name": "",
          "type": "uint256"
        }
      ],
      "name": "allowedTokens",
      "outputs": [
        {
          "internalType": "address",
          "name": "",
          "type": "address"
        }
      ],
      "stateMutability": "view",
      "type": "function"
    },
    {
      "inputs": [
        {
          "internalType": "uint256",
          "name": "",
          "type": "uint256"
        }
      ],
      "name": "canonicalPeriods",
      "outputs": [
        {
          "internalType": "uint256",
          "name": "start",
          "type": "uint256"
        },
        {
          "internalType": "uint256",
          "name": "end",
          "type": "uint256"
        }
      ],
      "stateMutability": "view",
      "type": "function"
    },
    {
      "inputs": [
        {
          "internalType": "bytes32",
          "name": "",
          "type": "bytes32"
        },
        {
          "internalType": "uint256",
          "name": "",
          "type": "uint256"
        }
      ],
      "name": "canonicalPeriodsAnalytics",
      "outputs": [
        {
          "internalType": "bytes32",
          "name": "",
          "type": "bytes32"
        }
      ],
      "stateMutability": "view",
      "type": "function"
    },
    {
      "inputs": [],
      "name": "canonicalPeriodsLastId",
      "outputs": [
        {
          "internalType": "uint256",
          "name": "",
          "type": "uint256"
        }
      ],
      "stateMutability": "view",
      "type": "function"
    },
    {
      "inputs": [],
      "name": "messenger",
      "outputs": [
        {
          "internalType": "contract Messenger",
          "name": "",
          "type": "address"
        }
      ],
      "stateMutability": "view",
      "type": "function"
    },
    {
      "inputs": [
        {
          "internalType": "uint256",
          "name": "",
          "type": "uint256"
        }
      ],
      "name": "networkNames",
      "outputs": [
        {
          "internalType": "bytes32",
          "name": "",
          "type": "bytes32"
        }
      ],
      "stateMutability": "view",
      "type": "function"
    },
    {
      "inputs": [],
      "name": "owner",
      "outputs": [
        {
          "internalType": "address",
          "name": "",
          "type": "address"
        }
      ],
      "stateMutability": "view",
      "type": "function"
    },
    {
      "inputs": [
        {
          "internalType": "address",
          "name": "",
          "type": "address"
        }
      ],
      "name": "registeredSLAs",
      "outputs": [
        {
          "internalType": "bool",
          "name": "",
          "type": "bool"
        }
      ],
      "stateMutability": "view",
      "type": "function"
    },
    {
      "inputs": [],
      "name": "renounceOwnership",
      "outputs": [],
      "stateMutability": "nonpayable",
      "type": "function"
    },
    {
      "inputs": [],
      "name": "sloRegistry",
      "outputs": [
        {
          "internalType": "contract SLORegistry",
          "name": "",
          "type": "address"
        }
      ],
      "stateMutability": "view",
      "type": "function"
    },
    {
      "inputs": [
        {
          "internalType": "address",
          "name": "newOwner",
          "type": "address"
        }
      ],
      "name": "transferOwnership",
      "outputs": [],
      "stateMutability": "nonpayable",
      "type": "function"
    },
    {
      "inputs": [
        {
          "internalType": "address",
          "name": "",
          "type": "address"
        },
        {
          "internalType": "uint256",
          "name": "",
          "type": "uint256"
        }
      ],
      "name": "userStakedSlas",
      "outputs": [
        {
          "internalType": "contract SLA",
          "name": "",
          "type": "address"
        }
      ],
      "stateMutability": "view",
      "type": "function"
    },
    {
      "inputs": [
        {
          "internalType": "bytes32",
          "name": "",
          "type": "bytes32"
        }
      ],
      "name": "validNetworks",
      "outputs": [
        {
          "internalType": "bool",
          "name": "",
          "type": "bool"
        }
      ],
      "stateMutability": "view",
      "type": "function"
    },
    {
      "inputs": [
        {
          "internalType": "contract SLO",
          "name": "_SLO",
          "type": "address"
        },
        {
          "internalType": "string",
          "name": "_ipfsHash",
          "type": "string"
        },
        {
          "internalType": "uint256[]",
          "name": "_canonicalPeriodIds",
          "type": "uint256[]"
        }
      ],
      "name": "createSLA",
      "outputs": [],
      "stateMutability": "nonpayable",
      "type": "function"
    },
    {
      "inputs": [
        {
          "internalType": "uint256",
          "name": "_periodId",
          "type": "uint256"
        },
        {
          "internalType": "contract SLA",
          "name": "_sla",
          "type": "address"
        }
      ],
      "name": "requestSLI",
      "outputs": [],
      "stateMutability": "nonpayable",
      "type": "function"
    },
    {
      "inputs": [
        {
          "internalType": "uint256",
          "name": "_canonicalPeriodId",
          "type": "uint256"
        },
        {
          "internalType": "bytes32",
          "name": "_network",
          "type": "bytes32"
        }
      ],
      "name": "requestAnalytics",
      "outputs": [],
      "stateMutability": "nonpayable",
      "type": "function"
    },
    {
      "inputs": [
        {
          "internalType": "bytes32",
          "name": "_ipfsHash",
          "type": "bytes32"
        },
        {
          "internalType": "bytes32",
          "name": "_network",
          "type": "bytes32"
        },
        {
          "internalType": "uint256",
          "name": "_periodId",
          "type": "uint256"
        }
      ],
      "name": "publishAnalyticsHash",
      "outputs": [],
      "stateMutability": "nonpayable",
      "type": "function"
    },
    {
      "inputs": [
        {
          "internalType": "address",
          "name": "_user",
          "type": "address"
        }
      ],
      "name": "userSLAs",
      "outputs": [
        {
          "internalType": "contract SLA[]",
          "name": "",
          "type": "address[]"
        }
      ],
      "stateMutability": "view",
      "type": "function"
    },
    {
      "inputs": [
        {
          "internalType": "address",
          "name": "_user",
          "type": "address"
        }
      ],
      "name": "userSLACount",
      "outputs": [
        {
          "internalType": "uint256",
          "name": "",
          "type": "uint256"
        }
      ],
      "stateMutability": "view",
      "type": "function"
    },
    {
      "inputs": [],
      "name": "allSLAs",
      "outputs": [
        {
          "internalType": "contract SLA[]",
          "name": "",
          "type": "address[]"
        }
      ],
      "stateMutability": "view",
      "type": "function"
    },
    {
      "inputs": [],
      "name": "SLACount",
      "outputs": [
        {
          "internalType": "uint256",
          "name": "",
          "type": "uint256"
        }
      ],
      "stateMutability": "view",
      "type": "function"
    },
    {
      "inputs": [
        {
          "internalType": "address",
          "name": "_user",
          "type": "address"
        },
        {
          "internalType": "address",
          "name": "_sla",
          "type": "address"
        }
      ],
      "name": "slaWasStakedByUser",
      "outputs": [
        {
          "internalType": "bool",
          "name": "",
          "type": "bool"
        }
      ],
      "stateMutability": "view",
      "type": "function"
    },
    {
      "inputs": [
        {
          "internalType": "address",
          "name": "_owner",
          "type": "address"
        }
      ],
      "name": "registerStakedSla",
      "outputs": [
        {
          "internalType": "bool",
          "name": "",
          "type": "bool"
        }
      ],
      "stateMutability": "nonpayable",
      "type": "function"
    },
    {
      "inputs": [
        {
          "internalType": "address",
          "name": "_slaOwner",
          "type": "address"
        }
      ],
      "name": "getActivePool",
      "outputs": [
        {
          "components": [
            {
              "internalType": "address",
              "name": "SLAaddress",
              "type": "address"
            },
            {
              "internalType": "uint256",
              "name": "stake",
              "type": "uint256"
            },
            {
              "internalType": "string",
              "name": "assetName",
              "type": "string"
            },
            {
              "internalType": "address",
              "name": "assetAddress",
              "type": "address"
            }
          ],
          "internalType": "struct SLARegistry.ActivePool[]",
          "name": "",
          "type": "tuple[]"
        }
      ],
      "stateMutability": "view",
      "type": "function"
    },
    {
      "inputs": [
        {
          "internalType": "address",
          "name": "_tokenAddress",
          "type": "address"
        }
      ],
      "name": "isAllowedToken",
      "outputs": [
        {
          "internalType": "bool",
          "name": "",
          "type": "bool"
        }
      ],
      "stateMutability": "view",
      "type": "function"
    },
    {
      "inputs": [
        {
          "internalType": "uint256",
          "name": "providerRewardPercentage",
          "type": "uint256"
        },
        {
          "internalType": "uint256",
          "name": "burnRate",
          "type": "uint256"
        },
        {
          "internalType": "uint256",
          "name": "minimumDSLAStakedTier1",
          "type": "uint256"
        },
        {
          "internalType": "uint256",
          "name": "minimumDSLAStakedTier2",
          "type": "uint256"
        },
        {
          "internalType": "uint256",
          "name": "minimumDSLAStakedTier3",
          "type": "uint256"
        }
      ],
      "name": "setStakingParameters",
      "outputs": [],
      "stateMutability": "nonpayable",
      "type": "function"
    },
    {
      "inputs": [
        {
          "internalType": "address",
          "name": "_tokenAddress",
          "type": "address"
        }
      ],
      "name": "addAllowedTokens",
      "outputs": [],
      "stateMutability": "nonpayable",
      "type": "function"
    }
  ],
  "bytecode": "0x60806040526003600d556003600e5568a2a15d09519be00000600f5569014542ba12a337c000006010556901e7e4171bf4d3a000006011553480156200004457600080fd5b50604051620057083803806200570883398101604081905262000067916200047f565b60006200007362000272565b600080546001600160a01b0319166001600160a01b0383169081178255604051929350917f8be0079c531659141344cd1fd0a4f28419497f9722a3daafe3b4186f6b6457e0908290a3508351855114620000ea5760405162461bcd60e51b8152600401620000e190620005a5565b60405180910390fd5b60005b8551811015620001a3578481815181106200010457fe5b60200260200101518682815181106200011957fe5b602002602001015110620001415760405162461bcd60e51b8152600401620000e190620005f1565b60405180604001604052808783815181106200015957fe5b602002602001015181526020018683815181106200017357fe5b602090810291909101810151909152600083815260068252604090208251815591015160019182015501620000ed565b508251620001b99060099060208601906200038f565b508451600019016004908155600180546001600160a01b038086166001600160a01b03199283161790925560028054858416908316179055600380548a8416921691909117908190556040805163f388158960e01b81529051919092169263f38815899280820192600092909182900301818387803b1580156200023c57600080fd5b505af115801562000251573d6000803e3d6000fd5b5050505062000266826200027660201b60201c565b5050505050506200070b565b3390565b6200028062000272565b6000546001600160a01b03908116911614620002b05760405162461bcd60e51b8152600401620000e19062000676565b620002bb816200032d565b15620002db5760405162461bcd60e51b8152600401620000e1906200063f565b601280546001810182556000919091527fbb8a6a4669ba250d26cd7a459eca9d215f8307e33aebe50379bc5a3617ec34440180546001600160a01b0319166001600160a01b0392909216919091179055565b6000805b6012548110156200038457826001600160a01b0316601282815481106200035457fe5b6000918252602090912001546001600160a01b031614156200037b5760019150506200038a565b60010162000331565b50600090505b919050565b828054828255906000526020600020908101928215620003cd579160200282015b82811115620003cd578251825591602001919060010190620003b0565b50620003db929150620003df565b5090565b5b80821115620003db5760008155600101620003e0565b600082601f83011262000407578081fd5b81516200041e6200041882620006d2565b620006ab565b8181529150602080830190848101818402860182018710156200044057600080fd5b60005b84811015620004615781518452928201929082019060010162000443565b505050505092915050565b80516200047981620006f2565b92915050565b60008060008060008060c0878903121562000498578182fd5b8651620004a581620006f2565b602088810151919750906001600160401b0380821115620004c4578485fd5b620004d28b838c01620003f6565b975060408a0151915080821115620004e8578485fd5b620004f68b838c01620003f6565b965060608a01519150808211156200050c578485fd5b508801601f81018a136200051e578384fd5b80516200052f6200041882620006d2565b81815283810190838501858402850186018e10156200054c578788fd5b8794505b838510156200057057805183526001949094019391850191850162000550565b5080975050505050506200058888608089016200046c565b9150620005998860a089016200046c565b90509295509295509295565b6020808252602c908201527f506572696f64732073746172747320616e6420656e6473206c656e677468732060408201526b0e6d0deead8c840dac2e8c6d60a31b606082015260800190565b6020808252602e908201527f506572696f6420656e642073686f756c6420626520677265617465722074686160408201526d1b881c195c9a5bd9081cdd185c9d60921b606082015260800190565b60208082526013908201527f746f6b656e20616c726561647920616464656400000000000000000000000000604082015260600190565b6020808252818101527f4f776e61626c653a2063616c6c6572206973206e6f7420746865206f776e6572604082015260600190565b6040518181016001600160401b0381118282101715620006ca57600080fd5b604052919050565b60006001600160401b03821115620006e8578081fd5b5060209081020190565b6001600160a01b03811681146200070857600080fd5b50565b614fed806200071b6000396000f3fe60806040523480156200001157600080fd5b5060043610620001b45760003560e01c80638da5cb5b11620000f9578063cbe230c3116200009f578063cbe230c31462000388578063d1994408146200039f578063dfce8ae014620003b6578063e9b1e98c14620003dd578063e9dcf6c914620003f4578063f2c0dfd414620003fe578063f2fde38b1462000424578063f62d1b46146200043b57620001b4565b80638da5cb5b146200030157806396bddc10146200030b57806399317c701462000315578063a0a2f054146200032c578063a3f5cadf1462000343578063b290508e146200035a578063b45756d5146200037157620001b4565b8063516c2857116200015f578063516c2857146200027857806351e99ec6146200029e5780635a7d1e5d14620002b55780635e5f2e2614620002bf578063610663b414620002d6578063715018a614620002ed578063816ff98614620002f757620001b4565b80630df0bfc614620001b9578063171e44ea14620001e85780631e0ab5141462000201578063227a38a21462000218578063356f2bbf14620002315780633cb747bf146200024857806350c5abfe1462000261575b600080fd5b620001d0620001ca36600462001749565b62000452565b604051620001df919062001c1e565b60405180910390f35b620001ff620001f93660046200172a565b620004dd565b005b620001ff620002123660046200184b565b6200059d565b62000222620006c2565b604051620001df919062001c29565b620001ff620002423660046200186d565b620006c8565b620002526200091a565b604051620001df919062001a5c565b620002526200027236600462001806565b62000929565b6200028f620002893660046200172a565b62000951565b604051620001df919062001b32565b620001d0620002af3660046200172a565b62000a9b565b6200025262000ab0565b62000252620002d036600462001806565b62000abf565b620001d0620002e736600462001806565b62000acd565b620001ff62000ae2565b6200022262000b66565b6200025262000b6c565b6200028f62000b7b565b620001ff62000326366004620019c8565b62000bdf565b620002226200033d36600462001806565b62000c7b565b620002526200035436600462001786565b62000c9a565b620001d06200036b3660046200172a565b62000cd0565b62000222620003823660046200184b565b62000d59565b620001d0620003993660046200172a565b62000d76565b620001ff620003b036600462001964565b62000dd6565b620003cd620003c736600462001806565b62000ff3565b604051620001df92919062002036565b62000222620003ee3660046200172a565b6200100c565b6200025262001027565b620004156200040f3660046200172a565b62001036565b604051620001df919062001b81565b620001ff620004353660046200172a565b6200144e565b620001ff6200044c3660046200181f565b6200150c565b6000805b6001600160a01b0384166000908152600c6020526040902054811015620004d1576001600160a01b038481166000908152600c6020526040902080549185169183908110620004a157fe5b6000918252602090912001546001600160a01b03161415620004c8576001915050620004d7565b60010162000456565b50600090505b92915050565b620004e762001592565b6000546001600160a01b03908116911614620005205760405162461bcd60e51b8152600401620005179062001fca565b60405180910390fd5b6200052b8162000d76565b156200054b5760405162461bcd60e51b8152600401620005179062001de9565b601280546001810182556000919091527fbb8a6a4669ba250d26cd7a459eca9d215f8307e33aebe50379bc5a3617ec34440180546001600160a01b0319166001600160a01b0392909216919091179055565b620005a88162001596565b620005c75760405162461bcd60e51b8152600401620005179062001fff565b620005d16200167c565b506000828152600660209081526040918290208251808401909352805483526001015490820181905242116200061b5760405162461bcd60e51b8152600401620005179062001f51565b600082815260076020908152604080832086845290915290205415620006555760405162461bcd60e51b8152600401620005179062001f88565b600354604051630782ad4560e21b81526001600160a01b0390911690631e0ab5149062000689908690869060040162002036565b600060405180830381600087803b158015620006a457600080fd5b505af1158015620006b9573d6000803e3d6000fd5b50505050505050565b60045481565b600254604051632af1c01d60e01b81526001600160a01b0390911690632af1c01d90620006fa90879060040162001a5c565b60206040518083038186803b1580156200071357600080fd5b505afa15801562000728573d6000803e3d6000fd5b505050506040513d601f19601f820116820180604052508101906200074e9190620017e4565b1515600114620007725760405162461bcd60e51b8152600401620005179062001c5d565b80620007925760405162461bcd60e51b8152600401620005179062001e5e565b600160045403828260018585905003818110620007ab57fe5b905060200201351115620007d35760405162461bcd60e51b8152600401620005179062001e95565b6000338585600160009054906101000a90046001600160a01b0316868630600d54600e54600f546010546011546040516200080e9062001696565b620008259c9b9a9998979695949392919062001a70565b604051809103906000f08015801562000842573d6000803e3d6000fd5b5060058054600180820183557f036b6384b5eca791c62761152d0c79bb0604c104a5fb6f4eb0703f3154bb3db090910180546001600160a01b0319166001600160a01b0385169081179091556000908152600860205260408120805460ff19168317905591549293509091620008b891620015da565b336000818152600b6020908152604080832080546001810182559084529183209091018490555192935090916001600160a01b038516917fb52f284a6c14f1a66ab5513b5b539066933e58e69e6432666f0e3c8c8a7d750391a3505050505050565b6003546001600160a01b031681565b600581815481106200093757fe5b6000918252602090912001546001600160a01b0316905081565b6060600062000960836200100c565b905060608167ffffffffffffffff811180156200097c57600080fd5b50604051908082528060200260200182016040528015620009a7578160200160208202803683370190505b506001600160a01b0385166000908152600b60209081526040918290208054835181840281018401909452808452939450606093909183018282801562000a0e57602002820191906000526020600020905b815481526020019060010190808311620009f9575b5050505050905060005b8381101562000a8f57600582828151811062000a3057fe5b60200260200101518154811062000a4357fe5b9060005260206000200160009054906101000a90046001600160a01b031683828151811062000a6e57fe5b6001600160a01b039092166020928302919091019091015260010162000a18565b5090925050505b919050565b60086020526000908152604090205460ff1681565b6002546001600160a01b031681565b601281815481106200093757fe5b600a6020526000908152604090205460ff1681565b62000aec62001592565b6000546001600160a01b0390811691161462000b1c5760405162461bcd60e51b8152600401620005179062001fca565b600080546040516001600160a01b03909116907f8be0079c531659141344cd1fd0a4f28419497f9722a3daafe3b4186f6b6457e0908390a3600080546001600160a01b0319169055565b60055490565b6000546001600160a01b031690565b6060600580548060200260200160405190810160405280929190818152602001828054801562000bd557602002820191906000526020600020905b81546001600160a01b0316815260019091019060200180831162000bb6575b5050505050905090565b62000be962001592565b6000546001600160a01b0390811691161462000c195760405162461bcd60e51b8152600401620005179062001fca565b600d859055600e849055600f839055601082905560118190556040517f2d8ff15b210b309d5f27b582c867c39595f241cef8f6a806ad0c278c421639199062000c6c90879087908790879087906200205b565b60405180910390a15050505050565b6009818154811062000c8957fe5b600091825260209091200154905081565b600c602052816000526040600020818154811062000cb457fe5b6000918252602090912001546001600160a01b03169150829050565b3360009081526008602052604081205460ff16151560011462000d075760405162461bcd60e51b8152600401620005179062001c9e565b62000d13823362000452565b62000d51576001600160a01b0382166000908152600c602090815260408220805460018101825590835291200180546001600160a01b031916331790555b506001919050565b600760209081526000928352604080842090915290825290205481565b6000805b60125481101562000dcd57826001600160a01b03166012828154811062000d9d57fe5b6000918252602090912001546001600160a01b0316141562000dc457600191505062000a96565b60010162000d7a565b50600092915050565b6000816001600160a01b0316637fd788aa6040518163ffffffff1660e01b815260040160206040518083038186803b15801562000e1257600080fd5b505afa15801562000e27573d6000803e3d6000fd5b505050506040513d601f19601f8201168201806040525081019062000e4d9190620017e4565b9050801562000e705760405162461bcd60e51b8152600401620005179062001f01565b62000e7a6200167c565b5060008381526006602090815260409182902082518084019093528054835260010154908201819052421162000ec45760405162461bcd60e51b8152600401620005179062001e16565b604051639ab4438f60e01b81526000906001600160a01b03851690639ab4438f9062000ef590889060040162001c29565b60606040518083038186803b15801562000f0e57600080fd5b505afa15801562000f23573d6000803e3d6000fd5b505050506040513d601f19601f8201168201806040525081019062000f4991906200198b565b92506000915062000f579050565b81600281111562000f6457fe5b1462000f845760405162461bcd60e51b8152600401620005179062001d99565b600354604051631a33288160e31b81526001600160a01b039091169063d19944089062000fb8908890889060040162002044565b600060405180830381600087803b15801562000fd357600080fd5b505af115801562000fe8573d6000803e3d6000fd5b505050505050505050565b6006602052600090815260409020805460019091015482565b6001600160a01b03166000908152600b602052604090205490565b6001546001600160a01b031681565b6040805180820190915260068152656e616d65282960d01b60209091015260607f06fdde0383f15d582d1a74511486c9ddf862a882fb7904b3d9fe9b8b8e58a7966000805b6001600160a01b0385166000908152600c60205260409020548110156200116e576001600160a01b0385166000908152600c60205260408120805483908110620010c157fe5b9060005260206000200160009054906101000a90046001600160a01b0316905062001162816001600160a01b031663b7bc347e6040518163ffffffff1660e01b815260040160206040518083038186803b1580156200111f57600080fd5b505afa15801562001134573d6000803e3d6000fd5b505050506040513d601f19601f820116820180604052508101906200115a91906200194b565b849062001625565b9250506001016200107b565b5060608167ffffffffffffffff811180156200118957600080fd5b50604051908082528060200260200182016040528015620011c757816020015b620011b3620016a4565b815260200190600190039081620011a95790505b5090506000805b6001600160a01b0387166000908152600c602052604090205481101562001443576001600160a01b0387166000908152600c602052604081208054839081106200121457fe5b60009182526020822001546001600160a01b031691505b816001600160a01b031663b7bc347e6040518163ffffffff1660e01b815260040160206040518083038186803b1580156200126557600080fd5b505afa1580156200127a573d6000803e3d6000fd5b505050506040513d601f19601f82011682018060405250810190620012a091906200194b565b8110156200143857600080836001600160a01b03166357ac94f08c856040518363ffffffff1660e01b8152600401620012db92919062001b19565b604080518083038186803b158015620012f357600080fd5b505afa15801562001308573d6000803e3d6000fd5b505050506040513d601f19601f820116820180604052508101906200132e9190620017b4565b60408051600481526024810182526020810180516001600160e01b03166001600160e01b03198f1617905290519294509092506060916001600160a01b038516916200137a9162001a3e565b600060405180830381855afa9150503d8060008114620013b7576040519150601f19603f3d011682016040523d82523d6000602084013e620013bc565b606091505b50915050620013ca620016a4565b6040518060800160405280876001600160a01b03168152602001848152602001838152602001856001600160a01b03168152509050808989815181106200140d57fe5b60209081029190910101526200142588600162001625565b975050600190930192506200122b915050565b5050600101620011ce565b509095945050505050565b6200145862001592565b6000546001600160a01b03908116911614620014885760405162461bcd60e51b8152600401620005179062001fca565b6001600160a01b038116620014b15760405162461bcd60e51b8152600401620005179062001d1c565b600080546040516001600160a01b03808516939216917f8be0079c531659141344cd1fd0a4f28419497f9722a3daafe3b4186f6b6457e091a3600080546001600160a01b0319166001600160a01b0392909216919091179055565b6003546001600160a01b03163314620015395760405162461bcd60e51b8152600401620005179062001cd0565b7f26a56275e1df915c64434b498c50983d75b2c8e01ba0e70bf597cf3d561054418383836040516200156e9392919062001c32565b60405180910390a16000918252600760209081526040808420928452919052902055565b3390565b6000805b60095481101562000dcd578260098281548110620015b457fe5b90600052602060002001541415620015d157600191505062000a96565b6001016200159a565b60006200161e83836040518060400160405280601e81526020017f536166654d6174683a207375627472616374696f6e206f766572666c6f7700008152506200164d565b9392505050565b6000828201838110156200161e5760405162461bcd60e51b8152600401620005179062001d62565b60008184841115620016745760405162461bcd60e51b815260040162000517919062001c48565b505050900390565b604051806040016040528060008152602001600081525090565b612eed80620020cb83390190565b604051806080016040528060006001600160a01b03168152602001600081526020016060815260200160006001600160a01b031681525090565b60008083601f840112620016f0578182fd5b50813567ffffffffffffffff81111562001708578182fd5b60208301915083602080830285010111156200172357600080fd5b9250929050565b6000602082840312156200173c578081fd5b81356200161e81620020b1565b600080604083850312156200175c578081fd5b82356200176981620020b1565b915060208301356200177b81620020b1565b809150509250929050565b6000806040838503121562001799578182fd5b8235620017a681620020b1565b946020939093013593505050565b60008060408385031215620017c7578182fd5b8251620017d481620020b1565b6020939093015192949293505050565b600060208284031215620017f6578081fd5b815180151581146200161e578182fd5b60006020828403121562001818578081fd5b5035919050565b60008060006060848603121562001834578081fd5b505081359360208301359350604090920135919050565b600080604083850312156200185e578182fd5b50508035926020909101359150565b6000806000806060858703121562001883578081fd5b84356200189081620020b1565b935060208581013567ffffffffffffffff80821115620018ae578384fd5b818801915088601f830112620018c2578384fd5b813581811115620018d1578485fd5b604051601f8201601f1916810185018381118282101715620018f1578687fd5b60405281815283820185018b101562001908578586fd5b8185850186830137908101909301849052919450604087013591808311156200192f578384fd5b50506200193f87828801620016de565b95989497509550505050565b6000602082840312156200195d578081fd5b5051919050565b6000806040838503121562001977578182fd5b8235915060208301356200177b81620020b1565b600080600060608486031215620019a0578081fd5b8351925060208401519150604084015160038110620019bd578182fd5b809150509250925092565b600080600080600060a08688031215620019e0578283fd5b505083359560208501359550604085013594606081013594506080013592509050565b6001600160a01b03169052565b6000815180845262001a2a8160208601602086016200207e565b601f01601f19169290920160200192915050565b6000825162001a528184602087016200207e565b9190910192915050565b6001600160a01b0391909116815260200190565b600060018060a01b03808f168352808e166020840152610160604084015262001a9e61016084018e62001a10565b8c8216606085015283810360808501528a81526001600160fb1b038b111562001ac5578283fd5b60208b029150818c60208301370160200190815262001ae860a083018962001a03565b60c082019690965260e081019490945261010084019290925261012083015261014090910152979650505050505050565b6001600160a01b03929092168252602082015260400190565b6020808252825182820181905260009190848201906040850190845b8181101562001b755783516001600160a01b03168352928401929184019160010162001b4e565b50909695505050505050565b60208082528251828201819052600091906040908185019080840286018301878501865b8381101562001c1057888303603f19018552815180516001600160a01b0390811685528882015189860152878201516080898701819052919062001bec8388018262001a10565b60609485015190921696909301959095525050938601939086019060010162001ba5565b509098975050505050505050565b901515815260200190565b90815260200190565b9283526020830191909152604082015260600190565b6000602082526200161e602083018462001a10565b60208082526021908201527f534c4f206e6f742072656769737465726564206f6e20534c4f526567697374726040820152607960f81b606082015260800190565b6020808252601890820152774f6e6c7920666f72207265676973746572656420534c417360401b604082015260600190565b6020808252602c908201527f43616e206f6e6c792062652063616c6c656420627920746865204d657373656e60408201526b19d95c8818dbdb9d1c9858dd60a21b606082015260800190565b60208082526026908201527f4f776e61626c653a206e6577206f776e657220697320746865207a65726f206160408201526564647265737360d01b606082015260800190565b6020808252601b908201527f536166654d6174683a206164646974696f6e206f766572666c6f770000000000604082015260600190565b60208082526030908201527f534c4120636f6e74726163742077617320616c7265616479207665726966696560408201526f1908199bdc881d1a19481c195c9a5bd960821b606082015260800190565b6020808252601390820152721d1bdad95b88185b1c9958591e481859191959606a1b604082015260600190565b60208082526028908201527f534c4120636f6e747261637420706572696f6420686173206e6f742066696e696040820152671cda1959081e595d60c21b606082015260800190565b6020808252601c908201527f506572696f647320696e666f726d6174696f6e20697320656d70747900000000604082015260600190565b60208082526046908201527f53686f756c64206e6f742073656c656374206120706572696f6420696420626960408201527f67676572207468616e20746865206c6173742063616e6f6e6963616c207065726060820152651a5bd9081a5960d21b608082015260a00190565b60208082526030908201527f53686f756c64206f6e6c792062652063616c6c656420666f72206e6f7420627260408201526f65616368656420636f6e74726163747360801b606082015260800190565b6020808252601b908201527f506572696f6420686173206e6f742066696e6973686564207965740000000000604082015260600190565b60208082526022908201527f416e616c7974696373206f626a65637420616c7265616479207075626c697368604082015261195960f21b606082015260800190565b6020808252818101527f4f776e61626c653a2063616c6c6572206973206e6f7420746865206f776e6572604082015260600190565b6020808252601b908201527f4e6574776f726b206e616d65206e6f74207265636f676e697a65640000000000604082015260600190565b918252602082015260400190565b9182526001600160a01b0316602082015260400190565b948552602085019390935260408401919091526060830152608082015260a00190565b60005b838110156200209b57818101518382015260200162002081565b83811115620020ab576000848401525b50505050565b6001600160a01b0381168114620020c757600080fd5b5056fe60806040526016805460ff191690553480156200001b57600080fd5b5060405162002eed38038062002eed8339810160408190526200003e91620004b5565b87868686868686600062000051620001f8565b600080546001600160a01b0319166001600160a01b03831690811782556040519293509160008051602062002ecd833981519152908290a350600980546001600160a01b039889166001600160a01b031991821681179092556001805498909916978116979097178855600a8054988901815560009081527fc65a7bb8d6351c1cf70c95a316cc6a92839c986682d98bc35f958f4883f9d2a8909801805490971617909555600b93909355600c91909155600d55600e55600f555b600188510381101562000178578781600101815181106200012957fe5b60200260200101518882815181106200013e57fe5b6020026020010151106200016f5760405162461bcd60e51b81526004016200016690620005a4565b60405180910390fd5b6001016200010c565b50620001848b620001fc565b8851620001999060119060208c0190620002a9565b50601380546001600160a01b03191633179055436015558651620001c59060129060208a01906200032e565b5050601080546001600160a01b0319166001600160a01b039a909a16999099179098555062000687975050505050505050565b3390565b62000206620001f8565b6000546001600160a01b03908116911614620002365760405162461bcd60e51b815260040162000166906200062b565b6001600160a01b0381166200025f5760405162461bcd60e51b81526004016200016690620005e5565b600080546040516001600160a01b038085169392169160008051602062002ecd83398151915291a3600080546001600160a01b0319166001600160a01b0392909216919091179055565b828054600181600116156101000203166002900490600052602060002090601f016020900481019282601f10620002ec57805160ff19168380011785556200031c565b828001600101855582156200031c579182015b828111156200031c578251825591602001919060010190620002ff565b506200032a9291506200036b565b5090565b8280548282559060005260206000209081019282156200031c57916020028201828111156200031c578251825591602001919060010190620002ff565b5b808211156200032a57600081556001016200036c565b80516001600160a01b03811681146200039a57600080fd5b92915050565b600082601f830112620003b1578081fd5b81516001600160401b03811115620003c7578182fd5b6020808202620003d982820162000660565b83815293508184018583018287018401881015620003f657600080fd5b600092505b848310156200041b578051825260019290920191908301908301620003fb565b505050505092915050565b600082601f83011262000437578081fd5b81516001600160401b038111156200044d578182fd5b602062000463601f8301601f1916820162000660565b925081835284818386010111156200047a57600080fd5b60005b828110156200049a5784810182015184820183015281016200047d565b82811115620004ac5760008284860101525b50505092915050565b60008060008060008060008060008060006101608c8e031215620004d7578687fd5b620004e38d8d62000382565b9a50620004f48d60208e0162000382565b60408d0151909a506001600160401b0381111562000510578788fd5b6200051e8e828f0162000426565b995050620005308d60608e0162000382565b60808d01519098506001600160401b038111156200054c578788fd5b6200055a8e828f01620003a0565b9750506200056c8d60a08e0162000382565b955060c08c0151945060e08c015193506101008c015192506101208c015191506101408c015190509295989b509295989b9093969950565b60208082526021908201527f506572696f64206964732061727261792073686f756c6420626520736f7274656040820152601960fa1b606082015260800190565b60208082526026908201527f4f776e61626c653a206e6577206f776e657220697320746865207a65726f206160408201526564647265737360d01b606082015260800190565b6020808252818101527f4f776e61626c653a2063616c6c6572206973206e6f7420746865206f776e6572604082015260600190565b6040518181016001600160401b03811182821017156200067f57600080fd5b604052919050565b61283680620006976000396000f3fe608060405234801561001057600080fd5b50600436106101c65760003560e01c8063b7bc347e116100fa578063db69a4621161009d578063db69a46214610389578063dcd21f1814610391578063e68e276d146103b2578063ecd731ca146103c5578063ee575c28146103d8578063f2fde38b146103e0578063f7e9dfff146103f3578063fbbf93a0146103fb578063fd5e6dd114610415576101c6565b8063b7bc347e14610310578063bed9985014610318578063c623674f14610320578063cbe230c314610335578063cd92890e14610348578063d7a5c42214610350578063d94a29c114610363578063db2da48c14610376576101c6565b8063524f07351161016d578063524f07351461025a57806357ac94f01461026d5780635e5f2e261461028e578063715018a6146102ae5780637fd788aa146102b65780638da5cb5b146102cb5780639868e51a146102d35780639ab4438f146102e6578063b18ac91814610308576101c6565b80630bea440d146101cb578063171e44ea146101e05780631bf30929146101f35780631fc2cd931461021157806327cd727c146102245780632eb8197a1461023757806333df15411461023f57806336a05f2614610252575b600080fd5b6101de6101d9366004611f32565b610428565b005b6101de6101ee366004611e97565b610505565b6101fb610690565b6040516102089190612762565b60405180910390f35b6101de61021f366004611e97565b610696565b6101de610232366004611f32565b610899565b6101fb6109ec565b6101fb61024d366004611f32565b6109f2565b6101fb610a0f565b6101de610268366004611e97565b610a15565b61028061027b366004611eb3565b610a56565b604051610208929190612073565b6102a161029c366004611f1a565b610aa4565b604051610208919061203b565b6101de610acb565b6102be610b4a565b6040516102089190612136565b6102a1610b53565b6101fb6102e1366004611f1a565b610b62565b6102f96102f4366004611f1a565b610b80565b60405161020893929190612779565b6101fb610ba4565b6101fb610baa565b6101fb610bb0565b610328610bb6565b6040516102089190612141565b6102be610343366004611e97565b610c44565b6102a1610ca1565b6101de61035e366004611f61565b610cb0565b6101de610371366004611e97565b610ec0565b6101fb610384366004611e97565b610efe565b6102a1610f10565b6103a461039f366004611e97565b610f1f565b60405161020892919061276b565b6101fb6103c0366004611e97565b610f84565b6101fb6103d3366004611e97565b610f96565b6101fb610fa8565b6101de6103ee366004611e97565b610fae565b6102a1611064565b610403611073565b6040516102089695949392919061208c565b6102a1610423366004611f1a565b611366565b600082116104515760405162461bcd60e51b81526004016104489061262c565b60405180910390fd5b60165460ff16156104745760405162461bcd60e51b81526004016104489061250a565b61047e8282611373565b601354604051635948284760e11b81526001600160a01b039091169063b290508e906104ae90339060040161203b565b602060405180830381600087803b1580156104c857600080fd5b505af11580156104dc573d6000803e3d6000fd5b505050506040513d601f19601f820116820180604052508101906105009190611ede565b505050565b61050d6115d9565b6000546001600160a01b0390811691161461053a5760405162461bcd60e51b8152600401610448906124d5565b61054381610c44565b156105605760405162461bcd60e51b815260040161044890612552565b60015460405163cbe230c360e01b81526001600160a01b039091169063cbe230c39061059090849060040161203b565b60206040518083038186803b1580156105a857600080fd5b505afa1580156105bc573d6000803e3d6000fd5b505050506040513d601f19601f820116820180604052508101906105e09190611ede565b15156001146106015760405162461bcd60e51b8152600401610448906122a1565b600954600090610619906001600160a01b0316610f1f565b509050600d54811161063d5760405162461bcd60e51b8152600401610448906126c0565b50600a80546001810182556000919091527fc65a7bb8d6351c1cf70c95a316cc6a92839c986682d98bc35f958f4883f9d2a80180546001600160a01b0319166001600160a01b0392909216919091179055565b60155481565b61069e610b53565b6001600160a01b0316336001600160a01b031614156106cf5760405162461bcd60e51b81526004016104489061271d565b6001600160a01b038116600090815260036020908152604080832033845290915290205461271090806107145760405162461bcd60e51b815260040161044890612333565b6001600160a01b0383166000908152600460205260408120546107419061073b84866115dd565b90611620565b6001600160a01b0385166000908152600660205260408120549192509061076e90859061073b90856115dd565b6001600160a01b0386166000908152600460205260409020549091506107949084611662565b6001600160a01b0386166000908152600460209081526040808320939093556006905220546107c39082611662565b6001600160a01b03861660008181526006602090815260408083209490945560038152838220338084529152838220829055925163a9059cbb60e01b8152909263a9059cbb9161081b91906002870290600401612073565b602060405180830381600087803b15801561083557600080fd5b505af1158015610849573d6000803e3d6000fd5b505050506040513d601f19601f8201168201806040525081019061086d9190611ede565b90506001811515146108915760405162461bcd60e51b815260040161044890612658565b505050505050565b600082116108b95760405162461bcd60e51b81526004016104489061262c565b6108c1610b53565b6001600160a01b0316336001600160a01b0316146109de57601280546000919060001981019081106108ef57fe5b60009182526020822001546013546040516306fe745760e51b81529193506001600160a01b03169063dfce8ae09061092b908590600401612762565b604080518083038186803b15801561094257600080fd5b505afa158015610956573d6000803e3d6000fd5b505050506040513d601f19601f8201168201806040525081019061097a9190611f82565b60165490925060ff1615156001149050806109bf57508042101580156109bf5750600082815260146020526040812060029081015460ff16908111156109bc57fe5b14155b6109db5760405162461bcd60e51b815260040161044890612154565b50505b6109e882826116a4565b5050565b600f5481565b600760209081526000928352604080842090915290825290205481565b600b5481565b610a1d6115d9565b6000546001600160a01b03908116911614610a4a5760405162461bcd60e51b8152600401610448906124d5565b610a5381610696565b50565b6000806000600a8481548110610a6857fe5b6000918252602080832091909101546001600160a01b039081168084526003835260408085209990921684529790915290205494959350505050565b600a8181548110610ab157fe5b6000918252602090912001546001600160a01b0316905081565b610ad36115d9565b6000546001600160a01b03908116911614610b005760405162461bcd60e51b8152600401610448906124d5565b600080546040516001600160a01b03909116907f8be0079c531659141344cd1fd0a4f28419497f9722a3daafe3b4186f6b6457e0908390a3600080546001600160a01b0319169055565b60165460ff1690565b6000546001600160a01b031690565b60128181548110610b6f57fe5b600091825260209091200154905081565b60146020526000908152604090208054600182015460029092015490919060ff1683565b600e5481565b600a5490565b600c5481565b6011805460408051602060026001851615610100026000190190941693909304601f81018490048402820184019092528181529291830182828015610c3c5780601f10610c1157610100808354040283529160200191610c3c565b820191906000526020600020905b815481529060010190602001808311610c1f57829003601f168201915b505050505081565b6000805b600a54811015610c9657826001600160a01b0316600a8281548110610c6957fe5b6000918252602090912001546001600160a01b03161415610c8e576001915050610c9c565b600101610c48565b50600090505b919050565b6010546001600160a01b031681565b601360009054906101000a90046001600160a01b03166001600160a01b0316633cb747bf6040518163ffffffff1660e01b815260040160206040518083038186803b158015610cfe57600080fd5b505afa158015610d12573d6000803e3d6000fd5b505050506040513d601f19601f82011682018060405250810190610d369190611efe565b6001600160a01b0316336001600160a01b031614610d665760405162461bcd60e51b8152600401610448906122ee565b7fc95987c1992805ee34bdc915e017cceae36ba1c156b9911fa7e691e6435eb46e428383604051610d999392919061279f565b60405180910390a16000818152601460205260409081902060018101849055428155601054915163868d08f760e01b815290916001600160a01b03169063868d08f790610dea908690600401612762565b60206040518083038186803b158015610e0257600080fd5b505afa158015610e16573d6000803e3d6000fd5b505050506040513d601f19601f82011682018060405250810190610e3a9190611ede565b15610e5c5760028101805460ff19166001179055610e578261188b565b610500565b6002818101805460ff19169091179055610e746119ac565b6016805460ff191660011790556040517fbd33f7a3bfa88a467c9df5ae7d2341cf061084c386b20a0d48130f5cbce38a4d90610eb3908490869061276b565b60405180910390a1505050565b610ec86115d9565b6000546001600160a01b03908116911614610ef55760405162461bcd60e51b8152600401610448906124d5565b610a5381611b17565b60066020526000908152604090205481565b6013546001600160a01b031681565b6001600160a01b0381166000908152600360205260408120819081610f42610b53565b6001600160a01b039081168252602080830193909352604091820160009081205491871681526002909352912054909250610f7d9083611662565b9050915091565b60046020526000908152604090205481565b60056020526000908152604090205481565b600d5481565b610fb66115d9565b6000546001600160a01b03908116911614610fe35760405162461bcd60e51b8152600401610448906124d5565b6001600160a01b0381166110095760405162461bcd60e51b815260040161044890612224565b600080546040516001600160a01b03808516939216917f8be0079c531659141344cd1fd0a4f28419497f9722a3daafe3b4186f6b6457e091a3600080546001600160a01b0319166001600160a01b0392909216919091179055565b6009546001600160a01b031681565b600060606000606060006060611087610b53565b60118054604080516020601f6002600019610100600188161502019095169490940493840181900481028201810190925282815293995083018282801561110f5780601f106110e45761010080835404028352916020019161110f565b820191906000526020600020905b8154815290600101906020018083116110f257829003601f168201915b50506010546012549499506001600160a01b031697505067ffffffffffffffff8311915050801561113f57600080fd5b5060405190808252806020026020018201604052801561117957816020015b611166611e55565b81526020019060019003908161115e5790505b50925060005b6012548110156112565760006012828154811061119857fe5b906000526020600020015490506111ad611e55565b600082815260146020908152604091829020825160608101845281548152600182015492810192909252600280820154929391929184019160ff16908111156111f257fe5b60028111156111fd57fe5b815250509050604051806060016040528082600001518152602001826020015181526020018260400151600281111561123257fe5b81525086848151811061124157fe5b6020908102919091010152505060010161117f565b50600854600a5490925067ffffffffffffffff8111801561127657600080fd5b506040519080825280602002602001820160405280156112b057816020015b61129d611e80565b8152602001906001900390816112955790505b50905060005b600a5481101561135d576040518060400160405280600a83815481106112d857fe5b9060005260206000200160009054906101000a90046001600160a01b03166001600160a01b0316815260200160026000600a858154811061131557fe5b60009182526020808320909101546001600160a01b031683528201929092526040019020549052825183908390811061134a57fe5b60209081029190910101526001016112b6565b50909192939495565b60088181548110610ab157fe5b8061137d81610c44565b151560011461139e5760405162461bcd60e51b8152600401610448906124a7565b6113a6610b53565b6001600160a01b0316336001600160a01b0316146113fb576000806113ca84610f1f565b9092509050816113da8287611c0a565b11156113f85760405162461bcd60e51b81526004016104489061241e565b50505b6001600160a01b03821660009081526002602052604090205461141e9084611c0a565b6001600160a01b03831660009081526002602090815260408083209390935560038152828220338352905220546114559084611c0a565b6001600160a01b03831660009081526003602090815260408083203380855292529091209190915561148690611c2f565b6114cd57600880546001810182556000919091527ff3f7a9fe364faab93b216da50a3214154f22a0a2b415b23a84c8169e8b636ee30180546001600160a01b031916331790555b6040516323b872dd60e01b81526000906001600160a01b038416906323b872dd906115009033903090899060040161204f565b602060405180830381600087803b15801561151a57600080fd5b505af115801561152e573d6000803e3d6000fd5b505050506040513d601f19601f820116820180604052508101906115529190611ede565b90506001811515146115765760405162461bcd60e51b8152600401610448906125cf565b61157e610b53565b6001600160a01b0316336001600160a01b0316146115d3576001600160a01b0383166000908152600460205260409020546115b99085611c0a565b6001600160a01b0384166000908152600460205260409020555b50505050565b3390565b6000826115ec5750600061161a565b828202828482816115f957fe5b04146116175760405162461bcd60e51b815260040161044890612466565b90505b92915050565b600061161783836040518060400160405280601a81526020017f536166654d6174683a206469766973696f6e206279207a65726f000000000000815250611c81565b600061161783836040518060400160405280601e81526020017f536166654d6174683a207375627472616374696f6e206f766572666c6f770000815250611cb8565b806116ae81610c44565b15156001146116cf5760405162461bcd60e51b8152600401610448906124a7565b6001600160a01b03821660009081526003602090815260408083203384529091529020548311156117125760405162461bcd60e51b8152600401610448906123d4565b61171a610b53565b6001600160a01b0316336001600160a01b031614156117705760008061173f84610f1f565b90925090508061174f8387611662565b101561176d5760405162461bcd60e51b81526004016104489061257f565b50505b6001600160a01b0382166000908152600260205260409020546117939084611662565b6001600160a01b03831660009081526002602090815260408083209390935560038152828220338352905220546117ca9084611662565b6001600160a01b038316600081815260036020908152604080832033808552925280832094909455925163a9059cbb60e01b8152909263a9059cbb9161181591908890600401612073565b602060405180830381600087803b15801561182f57600080fd5b505af1158015611843573d6000803e3d6000fd5b505050506040513d601f19601f820116820180604052508101906118679190611ede565b90506001811515146115d35760405162461bcd60e51b815260040161044890612658565b60005b600a548110156109e8576000600a82815481106118a757fe5b60009182526020822001546001600160a01b031691506118c682610f1f565b91505060006118e5606461073b600b54856115dd90919063ffffffff16565b6009549091506001600160a01b038481169116141561191857600061190982611ce4565b90506119158282611662565b50505b6001600160a01b03831660009081526002602052604090205461193b9082611662565b6001600160a01b03841660009081526002602090815260408083209390935560059052205461196a9082611c0a565b6001600160a01b03909316600081815260056020908152604080832096909655878252600781528582209282529190915292909220919091555060010161188e565b60005b600a54811015610a53576000600a82815481106119c857fe5b60009182526020822001546001600160a01b031691506119e782610f1f565b6009549092508291506001600160a01b0384811691161415611a1d576000611a0e82611ce4565b9050611a1a8282611662565b50505b6001600160a01b038316600090815260026020526040902054611a409082611662565b6001600160a01b03841660009081526002602090815260408083209390935560039052908120611a9591839190611a75610b53565b6001600160a01b0316815260208101919091526040016000205490611662565b6001600160a01b038416600090815260036020526040812090611ab6610b53565b6001600160a01b0390811682526020808301939093526040918201600090812094909455861683526006909152902054611af09082611c0a565b6001600160a01b0390931660009081526006602052604090209290925550506001016119af565b6001600160a01b03811660009081526005602052604090205480611b4d5760405162461bcd60e51b8152600401610448906121d3565b6001600160a01b03821660008181526005602052604081208190559063a9059cbb611b76610b53565b846040518363ffffffff1660e01b8152600401611b94929190612073565b602060405180830381600087803b158015611bae57600080fd5b505af1158015611bc2573d6000803e3d6000fd5b505050506040513d601f19601f82011682018060405250810190611be69190611ede565b90506001811515146105005760405162461bcd60e51b815260040161044890612658565b6000828201838110156116175760405162461bcd60e51b81526004016104489061226a565b6000805b600854811015610c9657826001600160a01b031660088281548110611c5457fe5b6000918252602090912001546001600160a01b03161415611c79576001915050610c9c565b600101611c33565b60008183611ca25760405162461bcd60e51b81526004016104489190612141565b506000838581611cae57fe5b0495945050505050565b60008184841115611cdc5760405162461bcd60e51b81526004016104489190612141565b505050900390565b60408051808201909152600d81526c6275726e2875696e743235362960981b602090910152600c546000907f42966c689b5afe9b9b3f8a7103b2a19980d59629bfd6a20a60972312ed41d83690611d44906103e89061073b9086906115dd565b6009546040519193506000916001600160a01b03909116908390611d6c908690602401612762565b60408051601f198184030181529181526020820180516001600160e01b03166001600160e01b0319909416939093179092529051611daa919061201f565b6000604051808303816000865af19150503d8060008114611de7576040519150601f19603f3d011682016040523d82523d6000602084013e611dec565b606091505b5050905080611e0d5760405162461bcd60e51b815260040161044890612390565b6009546001600160a01b0316600090815260026020526040902054611e329084611662565b6009546001600160a01b0316600090815260026020526040902055509092915050565b6040518060600160405280600081526020016000815260200160006002811115611e7b57fe5b905290565b604080518082019091526000808252602082015290565b600060208284031215611ea8578081fd5b8135611617816127eb565b60008060408385031215611ec5578081fd5b8235611ed0816127eb565b946020939093013593505050565b600060208284031215611eef578081fd5b81518015158114611617578182fd5b600060208284031215611f0f578081fd5b8151611617816127eb565b600060208284031215611f2b578081fd5b5035919050565b60008060408385031215611f44578182fd5b823591506020830135611f56816127eb565b809150509250929050565b60008060408385031215611f73578182fd5b50508035926020909101359150565b60008060408385031215611f94578182fd5b505080516020909101519092909150565b6000815180845260208085019450808401835b83811015611fe857815180516001600160a01b031688528301518388015260409096019590820190600101611fb8565b509495945050505050565b6000815180845261200b8160208601602086016127b5565b601f01601f19169290920160200192915050565b600082516120318184602087016127b5565b9190910192915050565b6001600160a01b0391909116815260200190565b6001600160a01b039384168152919092166020820152604081019190915260600190565b6001600160a01b03929092168252602082015260400190565b600060018060a01b038089168352602060c0818501526120af60c085018a611ff3565b6040838a168187015260609350858203848701528189518084528484019150848b019350865b8181101561210b5784518051845286810151878501528401516120f7816127e1565b8385015293850193918601916001016120d5565b505088608088015286810360a08801526121258189611fa5565b9d9c50505050505050505050505050565b901515815260200190565b6000602082526116176020830184611ff3565b60208082526059908201527f43616e206f6e6c79207769746864726177207374616b6520616674657220746860408201527f652066696e616c20706572696f642069732066696e6973686564206f72206966606082015278081d1a194818dbdb9d1c9858dd081a5cc8189c995858da1959603a1b608082015260a00190565b60208082526031908201527f4e6f7420617661696c61626c65207265776172647320666f722074686520676960408201527076656e20746f6b656e206164647265737360781b606082015260800190565b60208082526026908201527f4f776e61626c653a206e6577206f776e657220697320746865207a65726f206160408201526564647265737360d01b606082015260800190565b6020808252601b908201527f536166654d6174683a206164646974696f6e206f766572666c6f770000000000604082015260600190565b6020808252602d908201527f546f6b656e206e6f7420616c6c6f7765642062792074686520534c415265676960408201526c1cdd1c9e4818dbdb9d1c9858dd609a1b606082015260800190565b60208082526025908201527f4f6e6c79204d657373656e6765722063616e2063616c6c20746869732066756e60408201526431ba34b7b760d91b606082015260800190565b6020808252603a908201527f43616e206f6e6c7920636c61696d206120636f6d70656e736174696f6e20696660408201527f20706f736974696f6e20697320626967676572207468616e2030000000000000606082015260800190565b60208082526024908201527f44534c41206275726e2070726f6365737320776173206e6f74207375636365736040820152631cd99d5b60e21b606082015260800190565b6020808252602a908201527f53686f756c64206e6f74207769746864726177206d6f7265207374616b6520746040820152691a185b881cdd185ad95960b21b606082015260800190565b60208082526028908201527f43616e6e6f74207374616b65206d6f7265207468616e20534c412070726f76696040820152676465727374616b6560c01b606082015260800190565b60208082526021908201527f536166654d6174683a206d756c7469706c69636174696f6e206f766572666c6f6040820152607760f81b606082015260800190565b6020808252601490820152731d1bdad95b881a5cc81b9bdd08185b1b1bddd95960621b604082015260600190565b6020808252818101527f4f776e61626c653a2063616c6c6572206973206e6f7420746865206f776e6572604082015260600190565b60208082526028908201527f43616e206f6e6c79207374616b65206f6e206e6f7420627265616368656420636040820152676f6e74726163747360c01b606082015260800190565b602080825260139082015272151bdad95b88185b1c9958591e481859191959606a1b604082015260600190565b60208082526030908201527f53686f756c64206e6f74207769746864726177206d6f7265207468616e20746860408201526f32903ab9b2b939903837b9b4ba34b7b760811b606082015260800190565b6020808252603d908201527f5472616e736665722070726f636573732066726f6d20455243323020746f205360408201527f4c4120636f6e747261637420776173206e6f742073756363657366756c000000606082015260800190565b6020808252601290820152710616d6f756e742063616e6e6f7420626520360741b604082015260600190565b60208082526042908201527f5472616e736665722070726f636573732066726f6d20534c4120636f6e74726160408201527f637420746f206d73672e73656e64657220776173206e6f7420737563636573666060820152611d5b60f21b608082015260a00190565b6020808252603f908201527f53686f756c64207374616b65206174206c65617374206d696e696d756d44534c60408201527f415374616b6564546965723120746f206164642061206e657720746f6b656e00606082015260800190565b60208082526025908201527f53686f756c64206e6f742062652063616c6c65642062792074686520534c412060408201526437bbb732b960d91b606082015260800190565b90815260200190565b918252602082015260400190565b83815260208101839052606081016003831061279157fe5b826040830152949350505050565b9283526020830191909152604082015260600190565b60005b838110156127d05781810151838201526020016127b8565b838111156115d35750506000910152565b60038110610a5357fe5b6001600160a01b0381168114610a5357600080fdfea2646970667358221220f4105009da498d0629b79694e16d161f86e4da439e105b475561da28dea52b1d64736f6c634300060c00338be0079c531659141344cd1fd0a4f28419497f9722a3daafe3b4186f6b6457e0a2646970667358221220a9cd15ca643873c8da7834bb1cbf26529f184a54712d562cc3d95b597937eea564736f6c634300060c0033",
  "immutableReferences": {},
  "source": "// SPDX-License-Identifier: MIT\npragma solidity ^0.6.0;\npragma experimental ABIEncoderV2;\n\nimport \"@openzeppelin/contracts/math/SafeMath.sol\";\nimport \"@openzeppelin/contracts/token/ERC20/IERC20.sol\";\nimport \"@openzeppelin/contracts/access/Ownable.sol\";\nimport \"./Messenger.sol\";\nimport \"./SLA.sol\";\nimport \"./SLO.sol\";\nimport \"./SLORegistry.sol\";\nimport \"./Staking.sol\";\n\n/**\n * @title SLARegistry\n * @dev SLARegistry is a contract for handling creation of service level\n * agreements and keeping track of the created agreements\n */\ncontract SLARegistry is Ownable {\n    using SafeMath for uint256;\n\n    /// @dev struct to return on getActivePool function.\n    struct ActivePool {\n        address SLAaddress;\n        uint256 stake;\n        string assetName;\n        address assetAddress;\n    }\n    /// @dev struct to store the start and end of the periods\n    struct CanonicalPeriod {\n        uint256 start;\n        uint256 end;\n    }\n\n    /// @dev address of the DSLA token\n    IERC20 public DSLAToken;\n    /// @dev sloRegistryAddress\n    SLORegistry public sloRegistry;\n    /// @dev Messenger of the SLA Registry\n    Messenger public messenger;\n    /// @dev mapping periodId=>CanonicalPeriod to check if SLA is registered\n    uint256 public canonicalPeriodsLastId;\n    /// @dev stores the addresses of created SLAs\n    SLA[] public SLAs;\n    /// @dev mapping periodId=>CanonicalPeriod to check if SLA is registered\n    mapping(uint256 => CanonicalPeriod) public canonicalPeriods;\n    /// @dev mapping networkName=>periodId=>bytes32 to store ipfsHash of the analytics corresponding to periodId\n    mapping(bytes32 => mapping(uint256 => bytes32))\n        public canonicalPeriodsAnalytics;\n    /// @dev mapping SLA=>bool to check if SLA is registered\n    mapping(address => bool) public registeredSLAs;\n    /// @dev bytes32 to store the available network names\n    bytes32[] public networkNames;\n    /// @dev mapping SLA=>bool to store the if the network is valid\n    mapping(bytes32 => bool) public validNetworks;\n    /// @dev stores the indexes of service level agreements owned by an user\n    mapping(address => uint256[]) private userToSLAIndexes;\n    /// @dev mapping userAddress => SLA[]\n    mapping(address => SLA[]) public userStakedSlas;\n\n    //______ onlyOwner modifiable parameters ______\n    /// @dev corresponds to the reward percentage to be paid to the provider after a respected period\n    uint256 private _providerRewardPercentage = 3;\n    /// @dev corresponds to the burn rate of DSLA tokens, but divided by 1000 i.e burn percentage = burnRate/1000 %\n    uint256 private _burnRate = 3;\n    /// @dev minimum deposit for Tier 1 staking\n    uint256 private _minimumDSLAStakedTier1 = 3000 ether;\n    /// @dev minimum deposit for Tier 2 staking\n    uint256 private _minimumDSLAStakedTier2 = 6000 ether;\n    /// @dev minimum deposit for Tier 3 staking\n    uint256 private _minimumDSLAStakedTier3 = 9000 ether;\n    /// @dev array with the allowed tokens addresses of the StakeRegistry\n    address[] public allowedTokens;\n\n    modifier onlyRegisteredSla {\n        require(registeredSLAs[msg.sender] == true, \"Only for registered SLAs\");\n        _;\n    }\n\n    /**\n     * @dev event to log modifications on the staking parameters\n     *@param providerRewardPercentage 2. percentage of the users pool to be rewarded to the provider\n     *@param burnRate 3. (burnRate/1000)% of DSLA to be burned after a reward/compensation is paid\n     *@param minimumDSLAStakedTier1 4. minimum stake of DSLA to enable tier 1 privileges\n     *@param minimumDSLAStakedTier2 5. minimum stake of DSLA to enable tier 2 privileges\n     *@param minimumDSLAStakedTier3 6. minimum stake of DSLA to enable tier 3 privileges\n     */\n    event StakingParametersModified(\n        uint256 providerRewardPercentage,\n        uint256 burnRate,\n        uint256 minimumDSLAStakedTier1,\n        uint256 minimumDSLAStakedTier2,\n        uint256 minimumDSLAStakedTier3\n    );\n\n    /**\n     * @dev event for service level agreement creation logging\n     * @param sla 1. The address of the created service level agreement contract\n     * @param owner 2. The address of the owner of the service level agreement\n     */\n    event SLACreated(SLA indexed sla, address indexed owner);\n\n    /**\n     * @dev Event to store a new analytics ipfs hash received\n     * @param _ipfsHash 1. id of the canonical period to be analyzed\n     * @param _network 2. network name to publish analytics\n     */\n    event AnalyticsReceived(\n        bytes32 _ipfsHash,\n        bytes32 _network,\n        uint256 _periodId\n    );\n\n    /**\n     * @dev constructor\n     * @param _messengerAddress 1. the address of the chainlink messenger contract\n     * @param _sla_week_period_starts 3. array of the starts of the weeks period\n     * @param _sla_week_period_ends 4. array of the ends of the weeks period\n     * @param _networkNames 5. array of bytes32 with the names of the valid networks\n     * @param _dslaToken 6. DSLA Token\n     * @param _sloRegistry 7. SLORegistry\n     */\n    constructor(\n        Messenger _messengerAddress,\n        uint256[] memory _sla_week_period_starts,\n        uint256[] memory _sla_week_period_ends,\n        bytes32[] memory _networkNames,\n        IERC20 _dslaToken,\n        SLORegistry _sloRegistry\n    ) public {\n        require(\n            _sla_week_period_starts.length == _sla_week_period_ends.length,\n            \"Periods starts and ends lengths should match\"\n        );\n        for (\n            uint256 index = 0;\n            index < _sla_week_period_starts.length;\n            index++\n        ) {\n            require(\n                _sla_week_period_starts[index] < _sla_week_period_ends[index],\n                \"Period end should be greater than period start\"\n            );\n            canonicalPeriods[index] = CanonicalPeriod({\n                start: _sla_week_period_starts[index],\n                end: _sla_week_period_ends[index]\n            });\n        }\n        networkNames = _networkNames;\n        canonicalPeriodsLastId = _sla_week_period_starts.length - 1;\n        DSLAToken = _dslaToken;\n        sloRegistry = _sloRegistry;\n        messenger = _messengerAddress;\n        messenger.setSLARegistry();\n        addAllowedTokens(address(_dslaToken));\n    }\n\n    /**\n     * @dev public function for creating canonical service level agreements\n     * @param _SLO 2. SLO\n     * @param _ipfsHash 4. string with the ipfs hash that contains extra information about the service level agreement\n     * @param _canonicalPeriodIds 6. array of allowed canonical period ids\n     */\n    function createSLA(\n        SLO _SLO,\n        string memory _ipfsHash,\n        uint256[] calldata _canonicalPeriodIds\n    ) public {\n        require(\n            sloRegistry.registeredSLOs(address(_SLO)) == true,\n            \"SLO not registered on SLORegistry\"\n        );\n        require(_canonicalPeriodIds.length > 0, \"Periods information is empty\");\n        require(\n            _canonicalPeriodIds[_canonicalPeriodIds.length - 1] <=\n                canonicalPeriodsLastId - 1,\n            \"Should not select a period id bigger than the last canonical period id\"\n        );\n        SLA sla =\n            new SLA(\n                msg.sender,\n                _SLO,\n                _ipfsHash,\n                address(DSLAToken),\n                _canonicalPeriodIds,\n                address(this),\n                _providerRewardPercentage,\n                _burnRate,\n                _minimumDSLAStakedTier1,\n                _minimumDSLAStakedTier2,\n                _minimumDSLAStakedTier3\n            );\n\n        SLAs.push(sla);\n        registeredSLAs[address(sla)] = true;\n        uint256 index = SLAs.length.sub(1);\n        userToSLAIndexes[msg.sender].push(index);\n        emit SLACreated(sla, msg.sender);\n    }\n\n    /**\n     * @dev Gets SLI information for the specified SLA and SLO\n     * @param _periodId 1. id of the period\n     * @param _sla 2. SLA Address\n     */\n    function requestSLI(uint256 _periodId, SLA _sla) public {\n        bool breachedContract = _sla.breachedContract();\n        require(\n            breachedContract == false,\n            \"Should only be called for not breached contracts\"\n        );\n        CanonicalPeriod memory canonicalPeriod = canonicalPeriods[_periodId];\n        require(\n            canonicalPeriod.end < block.timestamp,\n            \"SLA contract period has not finished yet\"\n        );\n        (, , SLA.Status status) = _sla.slaPeriods(_periodId);\n        require(\n            status == SLA.Status.NotVerified,\n            \"SLA contract was already verified for the period\"\n        );\n        messenger.requestSLI(_periodId, _sla);\n    }\n\n    /**\n     * @dev Request analytics object for the current period.\n     * @param _canonicalPeriodId 1. id of the canonical period to be analyzed\n     * @param _network 2. network name to publish analytics\n     */\n    function requestAnalytics(uint256 _canonicalPeriodId, bytes32 _network)\n        public\n    {\n        require(_isValidNetwork(_network), \"Network name not recognized\");\n        CanonicalPeriod memory period = canonicalPeriods[_canonicalPeriodId];\n        require(period.end < block.timestamp, \"Period has not finished yet\");\n        require(\n            canonicalPeriodsAnalytics[_network][_canonicalPeriodId] == \"\",\n            \"Analytics object already published\"\n        );\n        messenger.requestAnalytics(_canonicalPeriodId, _network);\n    }\n\n    /**\n     * @dev Receives the data from the Messenger contract\n     * @param _ipfsHash 1. id of the canonical period to be analyzed\n     * @param _network 2. network name to publish analytics\n     * @param _periodId 3. id of the canonical period\n     */\n    function publishAnalyticsHash(\n        bytes32 _ipfsHash,\n        bytes32 _network,\n        uint256 _periodId\n    ) public {\n        require(\n            address(messenger) == msg.sender,\n            \"Can only be called by the Messenger contract\"\n        );\n        emit AnalyticsReceived(_ipfsHash, _network, _periodId);\n        canonicalPeriodsAnalytics[_network][_periodId] = _ipfsHash;\n    }\n\n    /**\n     * @dev public view function that returns the service level agreements that\n     * the given user is the owner of\n     * @param _user Address of the user for which to return the service level\n     * agreements\n     * @return array of SLAs\n     */\n    function userSLAs(address _user) public view returns (SLA[] memory) {\n        uint256 count = userSLACount(_user);\n        SLA[] memory SLAList = new SLA[](count);\n        uint256[] memory userSLAIndexes = userToSLAIndexes[_user];\n\n        for (uint256 i = 0; i < count; i++) {\n            SLAList[i] = (SLAs[userSLAIndexes[i]]);\n        }\n\n        return (SLAList);\n    }\n\n    /**\n     * @dev public view function that returns the amount of service level\n     * agreements the given user is the owner of\n     * @param _user 1. address of the user for which to return the amount of\n     * service level agreements\n     * @return uint256 corresponding to the amount of user's SLAs\n     */\n    function userSLACount(address _user) public view returns (uint256) {\n        return userToSLAIndexes[_user].length;\n    }\n\n    /**\n     * @dev public view function that returns all the service level agreements\n     * @return SLA[] array of SLAs\n     */\n    function allSLAs() public view returns (SLA[] memory) {\n        return (SLAs);\n    }\n\n    /**\n     * @dev public view function that returns the total amount of service\n     * level agreements\n     * @return uint256, the length of SLA array\n     */\n    function SLACount() public view returns (uint256) {\n        return SLAs.length;\n    }\n\n    /**\n     *@dev public view function that returns true if the _owner has staked on _sla\n     *@param _user 1. address to check\n     *@param _sla 2. sla to check\n     *@return bool, true if _sla was staked by _user\n     */\n    function slaWasStakedByUser(address _user, address _sla)\n        public\n        view\n        returns (bool)\n    {\n        for (uint256 index = 0; index < userStakedSlas[_user].length; index++) {\n            if (address(userStakedSlas[_user][index]) == _sla) {\n                return true;\n            }\n        }\n        return false;\n    }\n\n    /**\n     *@dev register the sending SLA contract as staked by _owner\n     *@param _owner 1. SLA contract to stake\n     */\n    function registerStakedSla(address _owner)\n        public\n        onlyRegisteredSla\n        returns (bool)\n    {\n        if (slaWasStakedByUser(_owner, msg.sender) == false) {\n            userStakedSlas[_owner].push(SLA(msg.sender));\n        }\n        return true;\n    }\n\n    /**\n     * @dev returns the active pools owned by a user.\n     * @param _slaOwner 1. owner of the active pool\n     * @return ActivePool[], array of structs: {SLAaddress,stake,assetName}\n     */\n    function getActivePool(address _slaOwner)\n        public\n        view\n        returns (ActivePool[] memory)\n    {\n        bytes4 NAME_SELECTOR = bytes4(keccak256(bytes(\"name()\")));\n        uint256 stakeCounter = 0;\n        // Count the stakes of the user, checking every SLA staked\n        for (\n            uint256 index = 0;\n            index < userStakedSlas[_slaOwner].length;\n            index++\n        ) {\n            SLA currentSLA = SLA(userStakedSlas[_slaOwner][index]);\n            stakeCounter = stakeCounter.add(\n                currentSLA.getAllowedTokensLength()\n            );\n        }\n\n        ActivePool[] memory activePools = new ActivePool[](stakeCounter);\n        // to insert on activePools array\n        uint256 stakePosition = 0;\n        for (\n            uint256 index = 0;\n            index < userStakedSlas[_slaOwner].length;\n            index++\n        ) {\n            SLA currentSLA = userStakedSlas[_slaOwner][index];\n            for (\n                uint256 tokenIndex = 0;\n                tokenIndex < currentSLA.getAllowedTokensLength();\n                tokenIndex++\n            ) {\n                (address tokenAddress, uint256 stake) =\n                    currentSLA.getTokenStake(_slaOwner, tokenIndex);\n                (, bytes memory tokenNameBytes) =\n                    tokenAddress.staticcall(\n                        abi.encodeWithSelector(NAME_SELECTOR)\n                    );\n                ActivePool memory currentActivePool =\n                    ActivePool({\n                        SLAaddress: address(currentSLA),\n                        stake: stake,\n                        assetName: string(tokenNameBytes),\n                        assetAddress: tokenAddress\n                    });\n                activePools[stakePosition] = currentActivePool;\n                stakePosition = stakePosition.add(1);\n            }\n        }\n        return activePools;\n    }\n\n    function isAllowedToken(address _tokenAddress) public view returns (bool) {\n        for (uint256 index = 0; index < allowedTokens.length; index++) {\n            if (allowedTokens[index] == _tokenAddress) {\n                return true;\n            }\n        }\n        return false;\n    }\n\n    function _isValidNetwork(bytes32 _networkName)\n        internal\n        view\n        returns (bool)\n    {\n        for (uint256 index; index < networkNames.length; index++) {\n            if (networkNames[index] == _networkName) return true;\n        }\n        return false;\n    }\n\n//    function getStakingParameters()\n//        public\n//        view\n//        returns (\n//            uint256 providerRewardPercentage,\n//            uint256 burnRate,\n//            uint256 minimumDSLAStakedTier1,\n//            uint256 minimumDSLAStakedTier2,\n//            uint256 minimumDSLAStakedTier3\n//        )\n//    {\n//        providerRewardPercentage = _providerRewardPercentage;\n//        burnRate = _burnRate;\n//        minimumDSLAStakedTier1 = _minimumDSLAStakedTier1;\n//        minimumDSLAStakedTier2 = _minimumDSLAStakedTier2;\n//        minimumDSLAStakedTier3 = _minimumDSLAStakedTier3;\n//    }\n\n    //_______ OnlyOwner functions _______\n    function setStakingParameters(\n        uint256 providerRewardPercentage,\n        uint256 burnRate,\n        uint256 minimumDSLAStakedTier1,\n        uint256 minimumDSLAStakedTier2,\n        uint256 minimumDSLAStakedTier3\n    ) public onlyOwner {\n        _providerRewardPercentage = providerRewardPercentage;\n        _burnRate = burnRate;\n        _minimumDSLAStakedTier1 = minimumDSLAStakedTier1;\n        _minimumDSLAStakedTier2 = minimumDSLAStakedTier2;\n        _minimumDSLAStakedTier3 = minimumDSLAStakedTier3;\n        emit StakingParametersModified(\n            providerRewardPercentage,\n            burnRate,\n            minimumDSLAStakedTier1,\n            minimumDSLAStakedTier2,\n            minimumDSLAStakedTier3\n        );\n    }\n\n    /**\n     *@dev add a token to ve allowed for staking\n     *@param _tokenAddress 1. address of the new allowed token\n     */\n    function addAllowedTokens(address _tokenAddress) public onlyOwner {\n        require(isAllowedToken(_tokenAddress) == false, \"token already added\");\n        allowedTokens.push(_tokenAddress);\n    }\n}\n",
  "sourcePath": "/Users/matiasbn/Desktop/stacktical/stacktical-dsla-contracts/contracts/SLARegistry.sol",
  "compiler": {
    "name": "solc",
    "version": "0.6.12+commit.27d51765.Emscripten.clang"
  },
  "schemaVersion": "3.3.3",
  "updatedAt": "2021-02-12T01:05:57.032Z",
  "devdoc": {
    "details": "SLARegistry is a contract for handling creation of service level agreements and keeping track of the created agreements",
    "events": {
      "AnalyticsReceived(bytes32,bytes32,uint256)": {
        "details": "Event to store a new analytics ipfs hash received",
        "params": {
          "_ipfsHash": "1. id of the canonical period to be analyzed",
          "_network": "2. network name to publish analytics"
        }
      },
      "SLACreated(address,address)": {
        "details": "event for service level agreement creation logging",
        "params": {
          "owner": "2. The address of the owner of the service level agreement",
          "sla": "1. The address of the created service level agreement contract"
        }
      },
      "StakingParametersModified(uint256,uint256,uint256,uint256,uint256)": {
        "details": "event to log modifications on the staking parameters",
        "params": {
          "burnRate": "3. (burnRate/1000)% of DSLA to be burned after a reward/compensation is paid",
          "minimumDSLAStakedTier1": "4. minimum stake of DSLA to enable tier 1 privileges",
          "minimumDSLAStakedTier2": "5. minimum stake of DSLA to enable tier 2 privileges",
          "minimumDSLAStakedTier3": "6. minimum stake of DSLA to enable tier 3 privileges",
          "providerRewardPercentage": "2. percentage of the users pool to be rewarded to the provider"
        }
      }
    },
    "kind": "dev",
    "methods": {
      "SLACount()": {
        "details": "public view function that returns the total amount of service level agreements",
        "returns": {
          "_0": "uint256, the length of SLA array"
        }
      },
      "addAllowedTokens(address)": {
        "details": "add a token to ve allowed for staking",
        "params": {
          "_tokenAddress": "1. address of the new allowed token"
        }
      },
      "allSLAs()": {
        "details": "public view function that returns all the service level agreements",
        "returns": {
          "_0": "SLA[] array of SLAs"
        }
      },
      "constructor": {
        "details": "constructor",
        "params": {
          "_dslaToken": "6. DSLA Token",
          "_messengerAddress": "1. the address of the chainlink messenger contract",
          "_networkNames": "5. array of bytes32 with the names of the valid networks",
          "_sla_week_period_ends": "4. array of the ends of the weeks period",
          "_sla_week_period_starts": "3. array of the starts of the weeks period",
          "_sloRegistry": "7. SLORegistry"
        }
      },
      "createSLA(address,string,uint256[])": {
        "details": "public function for creating canonical service level agreements",
        "params": {
          "_SLO": "2. SLO",
          "_canonicalPeriodIds": "6. array of allowed canonical period ids",
          "_ipfsHash": "4. string with the ipfs hash that contains extra information about the service level agreement"
        }
      },
      "getActivePool(address)": {
        "details": "returns the active pools owned by a user.",
        "params": {
          "_slaOwner": "1. owner of the active pool"
        },
        "returns": {
          "_0": "ActivePool[], array of structs: {SLAaddress,stake,assetName}"
        }
      },
      "owner()": {
        "details": "Returns the address of the current owner."
      },
      "publishAnalyticsHash(bytes32,bytes32,uint256)": {
        "details": "Receives the data from the Messenger contract",
        "params": {
          "_ipfsHash": "1. id of the canonical period to be analyzed",
          "_network": "2. network name to publish analytics",
          "_periodId": "3. id of the canonical period"
        }
      },
      "registerStakedSla(address)": {
        "details": "register the sending SLA contract as staked by _owner",
        "params": {
          "_owner": "1. SLA contract to stake"
        }
      },
      "renounceOwnership()": {
        "details": "Leaves the contract without owner. It will not be possible to call `onlyOwner` functions anymore. Can only be called by the current owner. NOTE: Renouncing ownership will leave the contract without an owner, thereby removing any functionality that is only available to the owner."
      },
      "requestAnalytics(uint256,bytes32)": {
        "details": "Request analytics object for the current period.",
        "params": {
          "_canonicalPeriodId": "1. id of the canonical period to be analyzed",
          "_network": "2. network name to publish analytics"
        }
      },
      "requestSLI(uint256,address)": {
        "details": "Gets SLI information for the specified SLA and SLO",
        "params": {
          "_periodId": "1. id of the period",
          "_sla": "2. SLA Address"
        }
      },
      "slaWasStakedByUser(address,address)": {
        "details": "public view function that returns true if the _owner has staked on _sla",
        "params": {
          "_sla": "2. sla to check",
          "_user": "1. address to check"
        },
        "returns": {
          "_0": "bool, true if _sla was staked by _user"
        }
      },
      "transferOwnership(address)": {
        "details": "Transfers ownership of the contract to a new account (`newOwner`). Can only be called by the current owner."
      },
      "userSLACount(address)": {
        "details": "public view function that returns the amount of service level agreements the given user is the owner of",
        "params": {
          "_user": "1. address of the user for which to return the amount of service level agreements"
        },
        "returns": {
          "_0": "uint256 corresponding to the amount of user's SLAs"
        }
      },
      "userSLAs(address)": {
        "details": "public view function that returns the service level agreements that the given user is the owner of",
        "params": {
          "_user": "Address of the user for which to return the service level agreements"
        },
        "returns": {
          "_0": "array of SLAs"
        }
      }
    },
    "stateVariables": {
      "DSLAToken": {
        "details": "address of the DSLA token"
      },
      "SLAs": {
        "details": "stores the addresses of created SLAs"
      },
      "_burnRate": {
        "details": "corresponds to the burn rate of DSLA tokens, but divided by 1000 i.e burn percentage = burnRate/1000 %"
      },
      "_minimumDSLAStakedTier1": {
        "details": "minimum deposit for Tier 1 staking"
      },
      "_minimumDSLAStakedTier2": {
        "details": "minimum deposit for Tier 2 staking"
      },
      "_minimumDSLAStakedTier3": {
        "details": "minimum deposit for Tier 3 staking"
      },
      "_providerRewardPercentage": {
        "details": "corresponds to the reward percentage to be paid to the provider after a respected period"
      },
      "allowedTokens": {
        "details": "array with the allowed tokens addresses of the StakeRegistry"
      },
      "canonicalPeriods": {
        "details": "mapping periodId=>CanonicalPeriod to check if SLA is registered"
      },
      "canonicalPeriodsAnalytics": {
        "details": "mapping networkName=>periodId=>bytes32 to store ipfsHash of the analytics corresponding to periodId"
      },
      "canonicalPeriodsLastId": {
        "details": "mapping periodId=>CanonicalPeriod to check if SLA is registered"
      },
      "messenger": {
        "details": "Messenger of the SLA Registry"
      },
      "networkNames": {
        "details": "bytes32 to store the available network names"
      },
      "registeredSLAs": {
        "details": "mapping SLA=>bool to check if SLA is registered"
      },
      "sloRegistry": {
        "details": "sloRegistryAddress"
      },
      "userStakedSlas": {
        "details": "mapping userAddress => SLA[]"
      },
      "userToSLAIndexes": {
        "details": "stores the indexes of service level agreements owned by an user"
      },
      "validNetworks": {
        "details": "mapping SLA=>bool to store the if the network is valid"
      }
    },
    "title": "SLARegistry",
    "version": 1
  },
  "userdoc": {
    "kind": "user",
    "methods": {},
    "version": 1
  }
}