{
  "contractName": "SLARegistry",
  "abi": [
    {
      "anonymous": false,
      "inputs": [
        {
          "indexed": true,
          "name": "sla",
          "type": "address"
        }
      ],
      "name": "SLARegistered",
      "type": "event",
      "signature": "0x3b43896e2dd0436410ea408b797f05df22b0433146c1b1e58622c031a37362ce"
    },
    {
      "constant": false,
      "inputs": [
        {
          "name": "_owner",
          "type": "address"
        },
        {
          "name": "_whitelist",
          "type": "address"
        },
        {
          "name": "_dsla",
          "type": "address"
        },
        {
          "name": "_SLONames",
          "type": "bytes32[]"
        },
        {
          "name": "_SLOs",
          "type": "address[]"
        },
        {
          "name": "_compensationAmount",
          "type": "uint256"
        },
        {
          "name": "_stake",
          "type": "uint256"
        },
        {
          "name": "_ipfsHash",
          "type": "string"
        },
        {
          "name": "_poolSize",
          "type": "uint256"
        }
      ],
      "name": "createSLA",
      "outputs": [],
      "payable": false,
      "stateMutability": "nonpayable",
      "type": "function",
      "signature": "0xd475c153"
    },
    {
      "constant": true,
      "inputs": [
        {
          "name": "_user",
          "type": "address"
        }
      ],
      "name": "userSLAs",
      "outputs": [
        {
          "name": "",
          "type": "address[]"
        }
      ],
      "payable": false,
      "stateMutability": "view",
      "type": "function",
      "signature": "0x516c2857"
    }
  ],
  "bytecode": "0x608060405234801561001057600080fd5b50612f8a806100206000396000f3fe6080604052600436106200004f576000357c0100000000000000000000000000000000000000000000000000000000900463ffffffff168063516c28571462000054578063d475c1531462000100575b600080fd5b3480156200006157600080fd5b50620000a7600480360360208110156200007a57600080fd5b81019080803573ffffffffffffffffffffffffffffffffffffffff1690602001909291905050506200037c565b6040518080602001828103825283818151815260200191508051906020019060200280838360005b83811015620000ec578082015181840152602081019050620000cf565b505050509050019250505060405180910390f35b3480156200010d57600080fd5b506200037a60048036036101208110156200012757600080fd5b81019080803573ffffffffffffffffffffffffffffffffffffffff169060200190929190803573ffffffffffffffffffffffffffffffffffffffff169060200190929190803573ffffffffffffffffffffffffffffffffffffffff16906020019092919080359060200190640100000000811115620001a557600080fd5b820183602082011115620001b857600080fd5b80359060200191846020830284011164010000000083111715620001db57600080fd5b919080806020026020016040519081016040528093929190818152602001838360200280828437600081840152601f19601f820116905080830192505050505050509192919290803590602001906401000000008111156200023c57600080fd5b8201836020820111156200024f57600080fd5b803590602001918460208302840111640100000000831117156200027257600080fd5b919080806020026020016040519081016040528093929190818152602001838360200280828437600081840152601f19601f820116905080830192505050505050509192919290803590602001909291908035906020019092919080359060200190640100000000811115620002e757600080fd5b820183602082011115620002fa57600080fd5b803590602001918460018302840111640100000000831117156200031d57600080fd5b91908080601f016020809104026020016040519081016040528093929190818152602001838380828437600081840152601f19601f820116905080830192505050505050509192919290803590602001909291905050506200044a565b005b60606000808373ffffffffffffffffffffffffffffffffffffffff1673ffffffffffffffffffffffffffffffffffffffff1681526020019081526020016000208054806020026020016040519081016040528092919081815260200182805480156200043e57602002820191906000526020600020905b8160009054906101000a900473ffffffffffffffffffffffffffffffffffffffff1673ffffffffffffffffffffffffffffffffffffffff1681526020019060010190808311620003f3575b50505050509050919050565b808773ffffffffffffffffffffffffffffffffffffffff1663dd62ed3e33306040518363ffffffff167c0100000000000000000000000000000000000000000000000000000000028152600401808373ffffffffffffffffffffffffffffffffffffffff1673ffffffffffffffffffffffffffffffffffffffff1681526020018273ffffffffffffffffffffffffffffffffffffffff1673ffffffffffffffffffffffffffffffffffffffff1681526020019250505060206040518083038186803b1580156200051957600080fd5b505afa1580156200052e573d6000803e3d6000fd5b505050506040513d60208110156200054557600080fd5b8101908080519060200190929190505050101515156200056457600080fd5b60008989898989898989620005786200094c565b808973ffffffffffffffffffffffffffffffffffffffff1673ffffffffffffffffffffffffffffffffffffffff1681526020018873ffffffffffffffffffffffffffffffffffffffff1673ffffffffffffffffffffffffffffffffffffffff1681526020018773ffffffffffffffffffffffffffffffffffffffff1673ffffffffffffffffffffffffffffffffffffffff168152602001806020018060200186815260200185815260200180602001848103845289818151815260200191508051906020019060200280838360005b838110156200066457808201518184015260208101905062000647565b50505050905001848103835288818151815260200191508051906020019060200280838360005b83811015620006a85780820151818401526020810190506200068b565b50505050905001848103825285818151815260200191508051906020019080838360005b83811015620006e9578082015181840152602081019050620006cc565b50505050905090810190601f168015620007175780820380516001836020036101000a031916815260200191505b509b505050505050505050505050604051809103906000f08015801562000742573d6000803e3d6000fd5b5090508073ffffffffffffffffffffffffffffffffffffffff167f3b43896e2dd0436410ea408b797f05df22b0433146c1b1e58622c031a37362ce60405160405180910390a26000803373ffffffffffffffffffffffffffffffffffffffff1673ffffffffffffffffffffffffffffffffffffffff1681526020019081526020016000208190806001815401808255809150509060018203906000526020600020016000909192909190916101000a81548173ffffffffffffffffffffffffffffffffffffffff021916908373ffffffffffffffffffffffffffffffffffffffff160217905550508773ffffffffffffffffffffffffffffffffffffffff166323b872dd3383856040518463ffffffff167c0100000000000000000000000000000000000000000000000000000000028152600401808473ffffffffffffffffffffffffffffffffffffffff1673ffffffffffffffffffffffffffffffffffffffff1681526020018373ffffffffffffffffffffffffffffffffffffffff1673ffffffffffffffffffffffffffffffffffffffff1681526020018281526020019350505050602060405180830381600087803b1580156200090257600080fd5b505af115801562000917573d6000803e3d6000fd5b505050506040513d60208110156200092e57600080fd5b81019080805190602001909291905050505050505050505050505050565b604051612601806200095e8339019056fe60806040523480156200001157600080fd5b50604051620026013803806200260183398101806040526101008110156200003857600080fd5b8101908080519060200190929190805190602001909291908051906020019092919080516401000000008111156200006f57600080fd5b828101905060208101848111156200008657600080fd5b8151856020820283011164010000000082111715620000a457600080fd5b50509291906020018051640100000000811115620000c157600080fd5b82810190506020810184811115620000d857600080fd5b8151856020820283011164010000000082111715620000f657600080fd5b5050929190602001805190602001909291908051906020019092919080516401000000008111156200012757600080fd5b828101905060208101848111156200013e57600080fd5b81518560018202830111640100000000821117156200015c57600080fd5b5050929190505050336000806101000a81548173ffffffffffffffffffffffffffffffffffffffff021916908373ffffffffffffffffffffffffffffffffffffffff1602179055506000809054906101000a900473ffffffffffffffffffffffffffffffffffffffff1673ffffffffffffffffffffffffffffffffffffffff16600073ffffffffffffffffffffffffffffffffffffffff167f8be0079c531659141344cd1fd0a4f28419497f9722a3daafe3b4186f6b6457e060405160405180910390a3600584511015156200023157600080fd5b835185511415156200024257600080fd5b60008090505b8451811015620002e25784818151811015156200026157fe5b90602001906020020151600c600088848151811015156200027e57fe5b90602001906020020151815260200190815260200160002060006101000a81548173ffffffffffffffffffffffffffffffffffffffff021916908373ffffffffffffffffffffffffffffffffffffffff160217905550808060010191505062000248565b50620002fd88620003cd640100000000026401000000009004565b84600e90805190602001906200031592919062000561565b5086600660006101000a81548173ffffffffffffffffffffffffffffffffffffffff021916908373ffffffffffffffffffffffffffffffffffffffff16021790555085600960006101000a81548173ffffffffffffffffffffffffffffffffffffffff021916908373ffffffffffffffffffffffffffffffffffffffff1602179055508260058190555081600a8190555080600b9080519060200190620003be929190620005b3565b5050505050505050506200068a565b620003e66200040f640100000000026401000000009004565b1515620003f257600080fd5b6200040c8162000466640100000000026401000000009004565b50565b60008060009054906101000a900473ffffffffffffffffffffffffffffffffffffffff1673ffffffffffffffffffffffffffffffffffffffff163373ffffffffffffffffffffffffffffffffffffffff1614905090565b600073ffffffffffffffffffffffffffffffffffffffff168173ffffffffffffffffffffffffffffffffffffffff1614151515620004a357600080fd5b8073ffffffffffffffffffffffffffffffffffffffff166000809054906101000a900473ffffffffffffffffffffffffffffffffffffffff1673ffffffffffffffffffffffffffffffffffffffff167f8be0079c531659141344cd1fd0a4f28419497f9722a3daafe3b4186f6b6457e060405160405180910390a3806000806101000a81548173ffffffffffffffffffffffffffffffffffffffff021916908373ffffffffffffffffffffffffffffffffffffffff16021790555050565b828054828255906000526020600020908101928215620005a0579160200282015b828111156200059f57825182559160200191906001019062000582565b5b509050620005af91906200063a565b5090565b828054600181600116156101000203166002900490600052602060002090601f016020900481019282601f10620005f657805160ff191683800117855562000627565b8280016001018555821562000627579182015b828111156200062657825182559160200191906001019062000609565b5b50905062000636919062000662565b5090565b6200065f91905b808211156200065b57600081600090555060010162000641565b5090565b90565b6200068791905b808211156200068357600081600090555060010162000669565b5090565b90565b611f67806200069a6000396000f3fe60806040526004361061011d576000357c0100000000000000000000000000000000000000000000000000000000900463ffffffff16806308d0a7cf146101225780630daa77a8146101735780633a4b66f11461019e5780635268f557146101c957806365546f861461022e578063715018a6146102935780637440ac43146102aa578063797b363a146102d5578063810019cf146102ec57806387a15dc914610386578063880842bd1461039d5780638da5cb5b146103f45780638f32d59b1461044b57806393e59dc11461047a57806394199c61146104d1578063b0227b471461059d578063b92ae87c14610618578063c939329b14610681578063d994df2814610698578063f2fde38b146106c3578063fbbf93a014610714575b600080fd5b34801561012e57600080fd5b506101716004803603602081101561014557600080fd5b81019080803573ffffffffffffffffffffffffffffffffffffffff1690602001909291905050506108e2565b005b34801561017f57600080fd5b50610188610939565b6040518082815260200191505060405180910390f35b3480156101aa57600080fd5b506101b361093f565b6040518082815260200191505060405180910390f35b3480156101d557600080fd5b50610218600480360360208110156101ec57600080fd5b81019080803573ffffffffffffffffffffffffffffffffffffffff169060200190929190505050610945565b6040518082815260200191505060405180910390f35b34801561023a57600080fd5b5061027d6004803603602081101561025157600080fd5b81019080803573ffffffffffffffffffffffffffffffffffffffff16906020019092919050505061095d565b6040518082815260200191505060405180910390f35b34801561029f57600080fd5b506102a8610975565b005b3480156102b657600080fd5b506102bf610a47565b6040518082815260200191505060405180910390f35b3480156102e157600080fd5b506102ea610a4d565b005b3480156102f857600080fd5b506103846004803603606081101561030f57600080fd5b8101908080359060200190929190803590602001909291908035906020019064010000000081111561034057600080fd5b82018360208201111561035257600080fd5b8035906020019184600183028401116401000000008311171561037457600080fd5b9091929391929390505050610b7a565b005b34801561039257600080fd5b5061039b610dc2565b005b3480156103a957600080fd5b506103b2610de0565b604051808273ffffffffffffffffffffffffffffffffffffffff1673ffffffffffffffffffffffffffffffffffffffff16815260200191505060405180910390f35b34801561040057600080fd5b50610409610e06565b604051808273ffffffffffffffffffffffffffffffffffffffff1673ffffffffffffffffffffffffffffffffffffffff16815260200191505060405180910390f35b34801561045757600080fd5b50610460610e2f565b604051808215151515815260200191505060405180910390f35b34801561048657600080fd5b5061048f610e86565b604051808273ffffffffffffffffffffffffffffffffffffffff1673ffffffffffffffffffffffffffffffffffffffff16815260200191505060405180910390f35b3480156104dd57600080fd5b50610514600480360360408110156104f457600080fd5b810190808035906020019092919080359060200190929190505050610eac565b6040518084815260200183815260200180602001828103825283818151815260200191508051906020019080838360005b83811015610560578082015181840152602081019050610545565b50505050905090810190601f16801561058d5780820380516001836020036101000a031916815260200191505b5094505050505060405180910390f35b3480156105a957600080fd5b506105d6600480360360208110156105c057600080fd5b8101908080359060200190929190505050610f8a565b604051808273ffffffffffffffffffffffffffffffffffffffff1673ffffffffffffffffffffffffffffffffffffffff16815260200191505060405180910390f35b34801561062457600080fd5b506106676004803603602081101561063b57600080fd5b81019080803573ffffffffffffffffffffffffffffffffffffffff169060200190929190505050610fbd565b604051808215151515815260200191505060405180910390f35b34801561068d57600080fd5b50610696611013565b005b3480156106a457600080fd5b506106ad6113da565b6040518082815260200191505060405180910390f35b3480156106cf57600080fd5b50610712600480360360208110156106e657600080fd5b81019080803573ffffffffffffffffffffffffffffffffffffffff1690602001909291905050506113e0565b005b34801561072057600080fd5b506107296113ff565b60405180806020018a73ffffffffffffffffffffffffffffffffffffffff1673ffffffffffffffffffffffffffffffffffffffff1681526020018973ffffffffffffffffffffffffffffffffffffffff1673ffffffffffffffffffffffffffffffffffffffff1681526020018873ffffffffffffffffffffffffffffffffffffffff1673ffffffffffffffffffffffffffffffffffffffff168152602001878152602001868152602001858152602001806020018060200184810384528d818151815260200191508051906020019080838360005b838110156108195780820151818401526020810190506107fe565b50505050905090810190601f1680156108465780820380516001836020036101000a031916815260200191505b50848103835286818151815260200191508051906020019060200280838360005b83811015610882578082015181840152602081019050610867565b50505050905001848103825285818151815260200191508051906020019060200280838360005b838110156108c45780820151818401526020810190506108a9565b505050509050019c5050505050505050505050505060405180910390f35b6108ea610e2f565b15156108f557600080fd5b80600660006101000a81548173ffffffffffffffffffffffffffffffffffffffff021916908373ffffffffffffffffffffffffffffffffffffffff16021790555050565b60085481565b600a5481565b60036020528060005260406000206000915090505481565b60026020528060005260406000206000915090505481565b61097d610e2f565b151561098857600080fd5b600073ffffffffffffffffffffffffffffffffffffffff166000809054906101000a900473ffffffffffffffffffffffffffffffffffffffff1673ffffffffffffffffffffffffffffffffffffffff167f8be0079c531659141344cd1fd0a4f28419497f9722a3daafe3b4186f6b6457e060405160405180910390a360008060006101000a81548173ffffffffffffffffffffffffffffffffffffffff021916908373ffffffffffffffffffffffffffffffffffffffff160217905550565b60045481565b610a5633610fbd565b1515610a6157600080fd5b610a69611666565b6000600a541115610b7857600960009054906101000a900473ffffffffffffffffffffffffffffffffffffffff1673ffffffffffffffffffffffffffffffffffffffff1663a9059cbb33600a546040518363ffffffff167c0100000000000000000000000000000000000000000000000000000000028152600401808373ffffffffffffffffffffffffffffffffffffffff1673ffffffffffffffffffffffffffffffffffffffff16815260200182815260200192505050602060405180830381600087803b158015610b3b57600080fd5b505af1158015610b4f573d6000803e3d6000fd5b505050506040513d6020811015610b6557600080fd5b8101908080519060200190929190505050505b565b610b82610e2f565b1515610b8d57600080fd5b600d600085815260200190815260200160002060606040519081016040528042815260200185815260200184848080601f016020809104026020016040519081016040528093929190818152602001838380828437600081840152601f19601f820116905080830192505050505050508152509080600181540180825580915050906001820390600052602060002090600302016000909192909190915060008201518160000155602082015181600101556040820151816002019080519060200190610c5b929190611e96565b505050507f048094af00d5b1e004ae2a3f03c2bd4897a83b5672ed2b02b7b3416b9709805c4284848460405180858152602001848152602001806020018281038252848482818152602001925080828437600081840152601f19601f8201169050808301925050509550505050505060405180910390a1600c600085815260200190815260200160002060009054906101000a900473ffffffffffffffffffffffffffffffffffffffff1673ffffffffffffffffffffffffffffffffffffffff1663868d08f7846040518263ffffffff167c01000000000000000000000000000000000000000000000000000000000281526004018082815260200191505060206040518083038186803b158015610d7257600080fd5b505afa158015610d86573d6000803e3d6000fd5b505050506040513d6020811015610d9c57600080fd5b81019080805190602001909291905050501515610dbc57610dbb611733565b5b50505050565b610dcb33610fbd565b1515610dd657600080fd5b610dde61178b565b565b600960009054906101000a900473ffffffffffffffffffffffffffffffffffffffff1681565b60008060009054906101000a900473ffffffffffffffffffffffffffffffffffffffff16905090565b60008060009054906101000a900473ffffffffffffffffffffffffffffffffffffffff1673ffffffffffffffffffffffffffffffffffffffff163373ffffffffffffffffffffffffffffffffffffffff1614905090565b600660009054906101000a900473ffffffffffffffffffffffffffffffffffffffff1681565b600d60205281600052604060002081815481101515610ec757fe5b906000526020600020906003020160009150915050806000015490806001015490806002018054600181600116156101000203166002900480601f016020809104026020016040519081016040528092919081815260200182805460018160011615610100020316600290048015610f805780601f10610f5557610100808354040283529160200191610f80565b820191906000526020600020905b815481529060010190602001808311610f6357829003601f168201915b5050505050905083565b600c6020528060005260406000206000915054906101000a900473ffffffffffffffffffffffffffffffffffffffff1681565b6000600760008373ffffffffffffffffffffffffffffffffffffffff1673ffffffffffffffffffffffffffffffffffffffff16815260200190815260200160002060009054906101000a900460ff169050919050565b600073ffffffffffffffffffffffffffffffffffffffff16600660009054906101000a900473ffffffffffffffffffffffffffffffffffffffff1673ffffffffffffffffffffffffffffffffffffffff1614151561116d57600660009054906101000a900473ffffffffffffffffffffffffffffffffffffffff1673ffffffffffffffffffffffffffffffffffffffff16633af32abf336040518263ffffffff167c0100000000000000000000000000000000000000000000000000000000028152600401808273ffffffffffffffffffffffffffffffffffffffff1673ffffffffffffffffffffffffffffffffffffffff16815260200191505060206040518083038186803b15801561112657600080fd5b505afa15801561113a573d6000803e3d6000fd5b505050506040513d602081101561115057600080fd5b8101908080519060200190929190505050151561116c57600080fd5b5b61117633610fbd565b15151561118257600080fd5b61118a611aae565b611192611cc1565b6000600a5411156113d857600960009054906101000a900473ffffffffffffffffffffffffffffffffffffffff1673ffffffffffffffffffffffffffffffffffffffff1663095ea7b330600a546040518363ffffffff167c0100000000000000000000000000000000000000000000000000000000028152600401808373ffffffffffffffffffffffffffffffffffffffff1673ffffffffffffffffffffffffffffffffffffffff16815260200182815260200192505050602060405180830381600087803b15801561126457600080fd5b505af1158015611278573d6000803e3d6000fd5b505050506040513d602081101561128e57600080fd5b810190808051906020019092919050505050600960009054906101000a900473ffffffffffffffffffffffffffffffffffffffff1673ffffffffffffffffffffffffffffffffffffffff166323b872dd3330600a546040518463ffffffff167c0100000000000000000000000000000000000000000000000000000000028152600401808473ffffffffffffffffffffffffffffffffffffffff1673ffffffffffffffffffffffffffffffffffffffff1681526020018373ffffffffffffffffffffffffffffffffffffffff1673ffffffffffffffffffffffffffffffffffffffff1681526020018281526020019350505050602060405180830381600087803b15801561139b57600080fd5b505af11580156113af573d6000803e3d6000fd5b505050506040513d60208110156113c557600080fd5b8101908080519060200190929190505050505b565b60055481565b6113e8610e2f565b15156113f357600080fd5b6113fc81611d59565b50565b60606000806000806000806060806060600e805490506040519080825280602002602001820160405280156114435781602001602082028038833980820191505090505b50905060008090505b600e805490508110156114fd57600c6000600e8381548110151561146c57fe5b9060005260206000200154815260200190815260200160002060009054906101000a900473ffffffffffffffffffffffffffffffffffffffff1682828151811015156114b457fe5b9060200190602002019073ffffffffffffffffffffffffffffffffffffffff16908173ffffffffffffffffffffffffffffffffffffffff1681525050808060010191505061144c565b50600b600960009054906101000a900473ffffffffffffffffffffffffffffffffffffffff16600660009054906101000a900473ffffffffffffffffffffffffffffffffffffffff1661154e610e06565b600554600a54600854600e88888054600181600116156101000203166002900480601f0160208091040260200160405190810160405280929190818152602001828054600181600116156101000203166002900480156115ef5780601f106115c4576101008083540402835291602001916115ef565b820191906000526020600020905b8154815290600101906020018083116115d257829003601f168201915b505050505098508180548060200260200160405190810160405280929190818152602001828054801561164157602002820191906000526020600020905b81548152602001906001019080831161162d575b5050505050915099509950995099509950995099509950995050909192939495969798565b61166f33610fbd565b151561167a57600080fd5b6000600760003373ffffffffffffffffffffffffffffffffffffffff1673ffffffffffffffffffffffffffffffffffffffff16815260200190815260200160002060006101000a81548160ff0219169083151502179055506116e86001600854611e5390919063ffffffff16565b6008819055503373ffffffffffffffffffffffffffffffffffffffff167fae563681ccc696fae58fe830f401bc9c043a43ddb9f7c2830b32c3c70d9966e760405160405180910390a2565b61174a600554600454611e7590919063ffffffff16565b6004819055507f8f54d482248b8bb080211e41e3b058544f2444f56ab4e6d0368cbb17b5b2b8eb6004546040518082815260200191505060405180910390a1565b600454600260003373ffffffffffffffffffffffffffffffffffffffff1673ffffffffffffffffffffffffffffffffffffffff168152602001908152602001600020541015156117da57600080fd5b6000611830600260003373ffffffffffffffffffffffffffffffffffffffff1673ffffffffffffffffffffffffffffffffffffffff16815260200190815260200160002054600454611e5390919063ffffffff16565b905061188481600260003373ffffffffffffffffffffffffffffffffffffffff1673ffffffffffffffffffffffffffffffffffffffff16815260200190815260200160002054611e7590919063ffffffff16565b600260003373ffffffffffffffffffffffffffffffffffffffff1673ffffffffffffffffffffffffffffffffffffffff1681526020019081526020016000208190555061191981600360003373ffffffffffffffffffffffffffffffffffffffff1673ffffffffffffffffffffffffffffffffffffffff16815260200190815260200160002054611e7590919063ffffffff16565b600360003373ffffffffffffffffffffffffffffffffffffffff1673ffffffffffffffffffffffffffffffffffffffff16815260200190815260200160002081905550600160009054906101000a900473ffffffffffffffffffffffffffffffffffffffff1673ffffffffffffffffffffffffffffffffffffffff1663a9059cbb33836040518363ffffffff167c0100000000000000000000000000000000000000000000000000000000028152600401808373ffffffffffffffffffffffffffffffffffffffff1673ffffffffffffffffffffffffffffffffffffffff16815260200182815260200192505050602060405180830381600087803b158015611a2157600080fd5b505af1158015611a35573d6000803e3d6000fd5b505050506040513d6020811015611a4b57600080fd5b8101908080519060200190929190505050503373ffffffffffffffffffffffffffffffffffffffff167f1480b15e3eab83a9b923578ffe330e3dce94536007ec9c0b48a5dfbde8c49181826040518082815260200191505060405180910390a250565b600073ffffffffffffffffffffffffffffffffffffffff16600660009054906101000a900473ffffffffffffffffffffffffffffffffffffffff1673ffffffffffffffffffffffffffffffffffffffff16141515611c0857600660009054906101000a900473ffffffffffffffffffffffffffffffffffffffff1673ffffffffffffffffffffffffffffffffffffffff16633af32abf336040518263ffffffff167c0100000000000000000000000000000000000000000000000000000000028152600401808273ffffffffffffffffffffffffffffffffffffffff1673ffffffffffffffffffffffffffffffffffffffff16815260200191505060206040518083038186803b158015611bc157600080fd5b505afa158015611bd5573d6000803e3d6000fd5b505050506040513d6020811015611beb57600080fd5b81019080805190602001909291905050501515611c0757600080fd5b5b6001600760003373ffffffffffffffffffffffffffffffffffffffff1673ffffffffffffffffffffffffffffffffffffffff16815260200190815260200160002060006101000a81548160ff021916908315150217905550611c766001600854611e7590919063ffffffff16565b6008819055503373ffffffffffffffffffffffffffffffffffffffff167fa88fac53823b534c72d6958345adbe6801e072750d83b490d52ebbac51473a6360405160405180910390a2565b600454600260003373ffffffffffffffffffffffffffffffffffffffff1673ffffffffffffffffffffffffffffffffffffffff168152602001908152602001600020819055503373ffffffffffffffffffffffffffffffffffffffff167f86bd51a87477f175261ed976d5f38ebe16b536267992a6308317ad92c417b2f46004546040518082815260200191505060405180910390a2565b600073ffffffffffffffffffffffffffffffffffffffff168173ffffffffffffffffffffffffffffffffffffffff1614151515611d9557600080fd5b8073ffffffffffffffffffffffffffffffffffffffff166000809054906101000a900473ffffffffffffffffffffffffffffffffffffffff1673ffffffffffffffffffffffffffffffffffffffff167f8be0079c531659141344cd1fd0a4f28419497f9722a3daafe3b4186f6b6457e060405160405180910390a3806000806101000a81548173ffffffffffffffffffffffffffffffffffffffff021916908373ffffffffffffffffffffffffffffffffffffffff16021790555050565b6000828211151515611e6457600080fd5b600082840390508091505092915050565b6000808284019050838110151515611e8c57600080fd5b8091505092915050565b828054600181600116156101000203166002900490600052602060002090601f016020900481019282601f10611ed757805160ff1916838001178555611f05565b82800160010185558215611f05579182015b82811115611f04578251825591602001919060010190611ee9565b5b509050611f129190611f16565b5090565b611f3891905b80821115611f34576000816000905550600101611f1c565b5090565b9056fea165627a7a72305820e84a700f39d591201e6f6c0b9804450693b6351b30d25b9e7202a8fbea7a58560029a165627a7a723058205e1ef7d1b22ab0c0e56e1e25db3cd6f25a71d72c1b4b73111a0a1a758a74c9eb0029",
  "source": "pragma solidity ^0.5.0;\n\nimport \"./SLA/SLA.sol\";\n\ncontract SLARegistry {\n\n    mapping(address => SLA[]) private userToSLAs;\n\n    event SLARegistered(SLA indexed sla);\n\n    function createSLA(\n        address _owner,\n        Whitelist _whitelist,\n        IERC20 _dsla,\n        bytes32[] memory _SLONames,\n        SLO[] memory _SLOs,\n        uint _compensationAmount,\n        uint _stake,\n        string memory _ipfsHash,\n        uint _poolSize\n    ) public {\n        require(_dsla.allowance(msg.sender, address(this)) >= _poolSize);\n\n        SLA sla = new SLA(\n            _owner,\n            _whitelist,\n            _dsla,\n            _SLONames,\n            _SLOs,\n            _compensationAmount,\n            _stake,\n            _ipfsHash\n        );\n\n        emit SLARegistered(sla);\n\n        userToSLAs[msg.sender].push(sla);\n\n        _dsla.transferFrom(msg.sender, address(sla), _poolSize);\n    }\n\n    function userSLAs(address _user) public view returns(SLA[] memory) {\n        return(userToSLAs[_user]);\n    }\n}\n",
  "sourcePath": "/Users/Martin_Balk/projects/stacktical/stacktical-mvp-contracts/contracts/SLARegistry.sol",
  "compiler": {
    "name": "solc",
    "version": "0.5.0+commit.1d4f565a.Emscripten.clang"
  },
  "schemaVersion": "3.0.2",
  "updatedAt": "2019-03-26T09:57:57.569Z",
  "devdoc": {
    "methods": {}
  },
  "userdoc": {
    "methods": {}
  }
}