{
  "contractName": "SLARegistry",
  "abi": [
    {
      "inputs": [
        {
          "internalType": "contract SLORegistry",
          "name": "_sloRegistry",
          "type": "address"
        },
        {
          "internalType": "contract PeriodRegistry",
          "name": "_periodRegistry",
          "type": "address"
        },
        {
          "internalType": "contract MessengerRegistry",
          "name": "_messengerRegistry",
          "type": "address"
        },
        {
          "internalType": "contract StakeRegistry",
          "name": "_stakeRegistry",
          "type": "address"
        }
      ],
      "stateMutability": "nonpayable",
      "type": "constructor"
    },
    {
      "anonymous": false,
      "inputs": [
        {
          "indexed": true,
          "internalType": "address",
          "name": "previousOwner",
          "type": "address"
        },
        {
          "indexed": true,
          "internalType": "address",
          "name": "newOwner",
          "type": "address"
        }
      ],
      "name": "OwnershipTransferred",
      "type": "event"
    },
    {
      "anonymous": false,
      "inputs": [
        {
          "indexed": true,
          "internalType": "contract SLA",
          "name": "sla",
          "type": "address"
        },
        {
          "indexed": true,
          "internalType": "address",
          "name": "owner",
          "type": "address"
        }
      ],
      "name": "SLACreated",
      "type": "event"
    },
    {
      "inputs": [
        {
          "internalType": "uint256",
          "name": "",
          "type": "uint256"
        }
      ],
      "name": "SLAs",
      "outputs": [
        {
          "internalType": "contract SLA",
          "name": "",
          "type": "address"
        }
      ],
      "stateMutability": "view",
      "type": "function"
    },
    {
      "inputs": [],
      "name": "messengerRegistry",
      "outputs": [
        {
          "internalType": "contract MessengerRegistry",
          "name": "",
          "type": "address"
        }
      ],
      "stateMutability": "view",
      "type": "function"
    },
    {
      "inputs": [],
      "name": "owner",
      "outputs": [
        {
          "internalType": "address",
          "name": "",
          "type": "address"
        }
      ],
      "stateMutability": "view",
      "type": "function"
    },
    {
      "inputs": [],
      "name": "periodRegistry",
      "outputs": [
        {
          "internalType": "contract PeriodRegistry",
          "name": "",
          "type": "address"
        }
      ],
      "stateMutability": "view",
      "type": "function"
    },
    {
      "inputs": [
        {
          "internalType": "address",
          "name": "",
          "type": "address"
        }
      ],
      "name": "registeredSLAs",
      "outputs": [
        {
          "internalType": "bool",
          "name": "",
          "type": "bool"
        }
      ],
      "stateMutability": "view",
      "type": "function"
    },
    {
      "inputs": [],
      "name": "renounceOwnership",
      "outputs": [],
      "stateMutability": "nonpayable",
      "type": "function"
    },
    {
      "inputs": [],
      "name": "sloRegistry",
      "outputs": [
        {
          "internalType": "contract SLORegistry",
          "name": "",
          "type": "address"
        }
      ],
      "stateMutability": "view",
      "type": "function"
    },
    {
      "inputs": [],
      "name": "stakeRegistry",
      "outputs": [
        {
          "internalType": "contract StakeRegistry",
          "name": "",
          "type": "address"
        }
      ],
      "stateMutability": "view",
      "type": "function"
    },
    {
      "inputs": [
        {
          "internalType": "address",
          "name": "newOwner",
          "type": "address"
        }
      ],
      "name": "transferOwnership",
      "outputs": [],
      "stateMutability": "nonpayable",
      "type": "function"
    },
    {
      "inputs": [
        {
          "internalType": "address",
          "name": "",
          "type": "address"
        },
        {
          "internalType": "uint256",
          "name": "",
          "type": "uint256"
        }
      ],
      "name": "userStakedSlas",
      "outputs": [
        {
          "internalType": "contract SLA",
          "name": "",
          "type": "address"
        }
      ],
      "stateMutability": "view",
      "type": "function"
    },
    {
      "inputs": [
        {
          "internalType": "contract SLO",
          "name": "_SLO",
          "type": "address"
        },
        {
          "internalType": "string",
          "name": "_ipfsHash",
          "type": "string"
        },
        {
          "internalType": "enum PeriodRegistry.PeriodType",
          "name": "_periodType",
          "type": "uint8"
        },
        {
          "internalType": "uint256[]",
          "name": "_periodIds",
          "type": "uint256[]"
        },
        {
          "internalType": "address",
          "name": "_messengerAddress",
          "type": "address"
        },
        {
          "internalType": "bool",
          "name": "_whitelisted",
          "type": "bool"
        },
        {
          "internalType": "bytes32",
          "name": "_extraData",
          "type": "bytes32"
        }
      ],
      "name": "createSLA",
      "outputs": [],
      "stateMutability": "nonpayable",
      "type": "function"
    },
    {
      "inputs": [
        {
          "internalType": "uint256",
          "name": "_periodId",
          "type": "uint256"
        },
        {
          "internalType": "contract SLA",
          "name": "_sla",
          "type": "address"
        }
      ],
      "name": "requestSLI",
      "outputs": [],
      "stateMutability": "nonpayable",
      "type": "function"
    },
    {
      "inputs": [
        {
          "internalType": "address",
          "name": "_messengerAddress",
          "type": "address"
        }
      ],
      "name": "setMessengerSLARegistryAddress",
      "outputs": [],
      "stateMutability": "nonpayable",
      "type": "function"
    },
    {
      "inputs": [
        {
          "internalType": "address",
          "name": "_user",
          "type": "address"
        }
      ],
      "name": "userSLAs",
      "outputs": [
        {
          "internalType": "contract SLA[]",
          "name": "",
          "type": "address[]"
        }
      ],
      "stateMutability": "view",
      "type": "function"
    },
    {
      "inputs": [
        {
          "internalType": "address",
          "name": "_user",
          "type": "address"
        }
      ],
      "name": "userSLACount",
      "outputs": [
        {
          "internalType": "uint256",
          "name": "",
          "type": "uint256"
        }
      ],
      "stateMutability": "view",
      "type": "function"
    },
    {
      "inputs": [],
      "name": "allSLAs",
      "outputs": [
        {
          "internalType": "contract SLA[]",
          "name": "",
          "type": "address[]"
        }
      ],
      "stateMutability": "view",
      "type": "function"
    },
    {
      "inputs": [],
      "name": "SLACount",
      "outputs": [
        {
          "internalType": "uint256",
          "name": "",
          "type": "uint256"
        }
      ],
      "stateMutability": "view",
      "type": "function"
    },
    {
      "inputs": [
        {
          "internalType": "address",
          "name": "_user",
          "type": "address"
        },
        {
          "internalType": "address",
          "name": "_sla",
          "type": "address"
        }
      ],
      "name": "slaWasStakedByUser",
      "outputs": [
        {
          "internalType": "bool",
          "name": "",
          "type": "bool"
        }
      ],
      "stateMutability": "view",
      "type": "function"
    },
    {
      "inputs": [
        {
          "internalType": "address",
          "name": "_owner",
          "type": "address"
        }
      ],
      "name": "registerStakedSla",
      "outputs": [
        {
          "internalType": "bool",
          "name": "",
          "type": "bool"
        }
      ],
      "stateMutability": "nonpayable",
      "type": "function"
    }
  ],
  "bytecode": "0x60806040523480156200001157600080fd5b5060405162004efb38038062004efb833981016040819052620000349162000132565b6000620000406200012e565b600080546001600160a01b0319166001600160a01b0383169081178255604051929350917f8be0079c531659141344cd1fd0a4f28419497f9722a3daafe3b4186f6b6457e0908290a350600180546001600160a01b03199081166001600160a01b03878116919091179092556002805482168684161790556004805482168484161781556003805490921685841617918290556040805163f388158960e01b81529051929093169263f3881589928183019260009282900301818387803b1580156200010b57600080fd5b505af115801562000120573d6000803e3d6000fd5b5050505050505050620001b2565b3390565b6000806000806080858703121562000148578384fd5b8451620001558162000199565b6020860151909450620001688162000199565b60408601519093506200017b8162000199565b60608601519092506200018e8162000199565b939692955090935050565b6001600160a01b0381168114620001af57600080fd5b50565b614d3980620001c26000396000f3fe60806040523480156200001157600080fd5b50600436106200012a5760003560e01c8063816ff98611620000bd578063b290508e116200007b578063b290508e1462000250578063d19944081462000267578063e2d003f1146200027e578063e9b1e98c1462000295578063f2fde38b14620002ac576200012a565b8063816ff98614620002025780638da5cb5b146200021b57806396bddc1014620002255780639fc4caa5146200022f578063a3f5cadf1462000239576200012a565b80630df0bfc6146200012f57806350c5abfe146200015e578063516c2857146200018457806351e99ec614620001aa5780635a7d1e5d14620001c15780635c4df33214620001cb5780636435dc9c14620001d55780636830483514620001ee578063715018a614620001f8575b600080fd5b62000146620001403660046200126c565b620002c3565b60405162000155919062001692565b60405180910390f35b620001756200016f3660046200143a565b6200034e565b6040516200015591906200154e565b6200019b620001953660046200122e565b62000376565b60405162000155919062001643565b62000146620001bb3660046200122e565b620004be565b62000175620004d3565b62000175620004e2565b620001ec620001e63660046200122e565b620004f1565b005b62000175620005b1565b620001ec620005c0565b6200020c6200064d565b60405162000155919062001a1d565b6200017562000653565b6200019b62000662565b62000175620006c6565b620001756200024a366004620012a9565b620006d5565b62000146620002613660046200122e565b6200070b565b620001ec620002783660046200147a565b62000794565b620001ec6200028f366004620012f6565b62000bad565b6200020c620002a63660046200122e565b62001056565b620001ec620002bd3660046200122e565b62001071565b6000805b6001600160a01b03841660009081526008602052604090205481101562000342576001600160a01b038481166000908152600860205260409020805491851691839081106200031257fe5b6000918252602090912001546001600160a01b031614156200033957600191505062000348565b600101620002c7565b50600090505b92915050565b600581815481106200035c57fe5b6000918252602090912001546001600160a01b0316905081565b60606000620003858362001056565b905060608167ffffffffffffffff81118015620003a157600080fd5b50604051908082528060200260200182016040528015620003cc578160200160208202803683370190505b506001600160a01b038516600090815260076020908152604091829020805483518184028101840190945280845293945060609390918301828280156200043357602002820191906000526020600020905b8154815260200190600101908083116200041e575b5050505050905060005b83811015620004b45760058282815181106200045557fe5b6020026020010151815481106200046857fe5b9060005260206000200160009054906101000a90046001600160a01b03168382815181106200049357fe5b6001600160a01b03909216602092830291909101909101526001016200043d565b5090949350505050565b60066020526000908152604090205460ff1681565b6001546001600160a01b031681565b6003546001600160a01b031681565b806001600160a01b031663f38815896040518163ffffffff1660e01b8152600401600060405180830381600087803b1580156200052d57600080fd5b505af115801562000542573d6000803e3d6000fd5b50506003546040516319d71f1f60e31b81526001600160a01b03909116925063ceb8f8f891506200057a908490339060040162001629565b600060405180830381600087803b1580156200059557600080fd5b505af1158015620005aa573d6000803e3d6000fd5b5050505050565b6004546001600160a01b031681565b620005ca6200112f565b6000546001600160a01b03908116911614620006035760405162461bcd60e51b8152600401620005fa9062001923565b60405180910390fd5b600080546040516001600160a01b03909116907f8be0079c531659141344cd1fd0a4f28419497f9722a3daafe3b4186f6b6457e0908390a3600080546001600160a01b0319169055565b60055490565b6000546001600160a01b031690565b60606005805480602002602001604051908101604052809291908181526020018280548015620006bc57602002820191906000526020600020905b81546001600160a01b031681526001909101906020018083116200069d575b5050505050905090565b6002546001600160a01b031681565b60086020528160005260406000208181548110620006ef57fe5b6000918252602090912001546001600160a01b03169150829050565b3360009081526006602052604081205460ff161515600114620007425760405162461bcd60e51b8152600401620005fa906200178c565b6200074e8233620002c3565b6200078c576001600160a01b03821660009081526008602090815260408220805460018101825590835291200180546001600160a01b031916331790555b506001919050565b6000816001600160a01b0316637fd788aa6040518163ffffffff1660e01b815260040160206040518083038186803b158015620007d057600080fd5b505afa158015620007e5573d6000803e3d6000fd5b505050506040513d601f19601f820116820180604052508101906200080b9190620012d7565b90506000826001600160a01b0316639ab4438f856040518263ffffffff1660e01b81526004016200083d919062001a1d565b60606040518083038186803b1580156200085657600080fd5b505afa1580156200086b573d6000803e3d6000fd5b505050506040513d601f19601f82011682018060405250810190620008919190620014a1565b9250600091506200089f9050565b816002811115620008ac57fe5b14620008cc5760405162461bcd60e51b8152600401620005fa9062001804565b8115620008ed5760405162461bcd60e51b8152600401620005fa90620018d3565b60405163021eef7f60e01b81526000906001600160a01b0385169063021eef7f906200091e90889060040162001a1d565b60206040518083038186803b1580156200093757600080fd5b505afa1580156200094c573d6000803e3d6000fd5b505050506040513d601f19601f82011682018060405250810190620009729190620012d7565b9050600181151514620009995760405162461bcd60e51b8152600401620005fa906200199a565b6000846001600160a01b03166346e0fbae6040518163ffffffff1660e01b815260040160206040518083038186803b158015620009d557600080fd5b505afa158015620009ea573d6000803e3d6000fd5b505050506040513d601f19601f8201168201806040525081019062000a1091906200141b565b6002546040516331edb3ad60e21b81529192506000916001600160a01b039091169063c7b6ceb49062000a4a9085908b90600401620016ad565b60206040518083038186803b15801562000a6357600080fd5b505afa15801562000a78573d6000803e3d6000fd5b505050506040513d601f19601f8201168201806040525081019062000a9e9190620012d7565b905060018115151462000ac55760405162461bcd60e51b8152600401620005fa9062001854565b6000866001600160a01b031663a224ee9c6040518163ffffffff1660e01b815260040160206040518083038186803b15801562000b0157600080fd5b505afa15801562000b16573d6000803e3d6000fd5b505050506040513d601f19601f8201168201806040525081019062000b3c91906200124d565b604051631a33288160e31b81529091506001600160a01b0382169063d19944089062000b6f908b908b9060040162001a26565b600060405180830381600087803b15801562000b8a57600080fd5b505af115801562000b9f573d6000803e3d6000fd5b505050505050505050505050565b600254604051635c98d15760e01b81526000916001600160a01b031690635c98d1579062000be0908a906004016200169d565b604080518083038186803b15801562000bf857600080fd5b505afa15801562000c0d573d6000803e3d6000fd5b505050506040513d601f19601f8201168201806040525081019062000c33919062001453565b91505060018115151462000c5b5760405162461bcd60e51b8152600401620005fa9062001958565b600154604051632af1c01d60e01b81526001600160a01b0390911690632af1c01d9062000c8d908c906004016200154e565b60206040518083038186803b15801562000ca657600080fd5b505afa15801562000cbb573d6000803e3d6000fd5b505050506040513d601f19601f8201168201806040525081019062000ce19190620012d7565b151560011462000d055760405162461bcd60e51b8152600401620005fa906200171e565b8462000d255760405162461bcd60e51b8152600401620005fa906200189c565b60005b8581101562000e51576002546000906001600160a01b031663ddfc4fde8a8a8a8681811062000d5357fe5b905060200201356040518363ffffffff1660e01b815260040162000d79929190620016ad565b60206040518083038186803b15801562000d9257600080fd5b505afa15801562000da7573d6000803e3d6000fd5b505050506040513d601f19601f8201168201806040525081019062000dcd9190620012d7565b90508062000def5760405162461bcd60e51b8152600401620005fa906200175f565b600019870182101562000e475787878360010181811062000e0c57fe5b9050602002013588888481811062000e2057fe5b905060200201351062000e475760405162461bcd60e51b8152600401620005fa90620019e6565b5060010162000d28565b5060035460405163ef4003db60e01b81526000916001600160a01b03169063ef4003db9062000e859088906004016200154e565b60206040518083038186803b15801562000e9e57600080fd5b505afa15801562000eb3573d6000803e3d6000fd5b505050506040513d601f19601f8201168201806040525081019062000ed99190620012d7565b905060018115151462000f005760405162461bcd60e51b8152600401620005fa90620016db565b6000338b8b888b8b8e600460009054906101000a90046001600160a01b0316600260009054906101000a90046001600160a01b03168d8d60405162000f4590620011ad565b62000f5b9b9a9998979695949392919062001562565b604051809103906000f08015801562000f78573d6000803e3d6000fd5b5060058054600180820183557f036b6384b5eca791c62761152d0c79bb0604c104a5fb6f4eb0703f3154bb3db090910180546001600160a01b0319166001600160a01b0385169081179091556000908152600660205260408120805460ff1916831790559154929350909162000fee9162001133565b33600081815260076020908152604080832080546001810182559084529183209091018490555192935090916001600160a01b038516917fb52f284a6c14f1a66ab5513b5b539066933e58e69e6432666f0e3c8c8a7d750391a3505050505050505050505050565b6001600160a01b031660009081526007602052604090205490565b6200107b6200112f565b6000546001600160a01b03908116911614620010ab5760405162461bcd60e51b8152600401620005fa9062001923565b6001600160a01b038116620010d45760405162461bcd60e51b8152600401620005fa90620017be565b600080546040516001600160a01b03808516939216917f8be0079c531659141344cd1fd0a4f28419497f9722a3daafe3b4186f6b6457e091a3600080546001600160a01b0319166001600160a01b0392909216919091179055565b3390565b60006200117783836040518060400160405280601e81526020017f536166654d6174683a207375627472616374696f6e206f766572666c6f7700008152506200117e565b9392505050565b60008184841115620011a55760405162461bcd60e51b8152600401620005fa9190620016c6565b505050900390565b6132848062001a8083390190565b8035620003488162001a49565b60008083601f840112620011da578182fd5b50813567ffffffffffffffff811115620011f2578182fd5b60208301915083602080830285010111156200120d57600080fd5b9250929050565b8035620003488162001a62565b8035620003488162001a71565b60006020828403121562001240578081fd5b8135620011778162001a49565b6000602082840312156200125f578081fd5b8151620011778162001a49565b600080604083850312156200127f578081fd5b82356200128c8162001a49565b915060208301356200129e8162001a49565b809150509250929050565b60008060408385031215620012bc578182fd5b8235620012c98162001a49565b946020939093013593505050565b600060208284031215620012e9578081fd5b8151620011778162001a62565b60008060008060008060008060e0898b03121562001312578384fd5b88356200131f8162001a49565b975060208981013567ffffffffffffffff808211156200133d578687fd5b818c0191508c601f83011262001351578687fd5b81358181111562001360578788fd5b604051601f8201601f19168101850183811182821017156200138057898afd5b60405281815283820185018f101562001397578889fd5b818585018683013790810184018890529950620013b88d60408e0162001221565b985060608c0135925080831115620013ce578687fd5b5050620013de8b828c01620011c8565b9096509450620013f490508a60808b01620011bb565b9250620014058a60a08b0162001214565b915060c089013590509295985092959890939650565b6000602082840312156200142d578081fd5b8151620011778162001a71565b6000602082840312156200144c578081fd5b5035919050565b6000806040838503121562001466578182fd5b8251915060208301516200129e8162001a62565b600080604083850312156200148d578182fd5b8235915060208301356200129e8162001a49565b600080600060608486031215620014b6578283fd5b8351925060208401519150604084015160038110620014d3578182fd5b809150509250925092565b6001600160a01b03169052565b15159052565b60068110620014fc57fe5b9052565b60008151808452815b81811015620015275760208185018101518683018201520162001509565b81811115620015395782602083870101525b50601f01601f19169290920160200192915050565b6001600160a01b0391909116815260200190565b6001600160a01b038c811682528b8116602083015261014060408301819052600091620015928483018e62001500565b908c166060850152838103608085015289815290506001600160fb1b03891115620015bb578182fd5b60208902620015cf81602084018d62001a3d565b016020019050620015e460a0830188620014f1565b620015f360c0830187620014de565b6200160260e0830186620014de565b62001612610100830185620014eb565b826101208301529c9b505050505050505050505050565b6001600160a01b0392831681529116602082015260400190565b6020808252825182820181905260009190848201906040850190845b81811015620016865783516001600160a01b0316835292840192918401916001016200165f565b50909695505050505050565b901515815260200190565b60208101620003488284620014f1565b6040810160068410620016bc57fe5b9281526020015290565b60006020825262001177602083018462001500565b60208082526023908201527f6d657373656e6765722061646472657373206973206e6f7420726567697374656040820152621c995960ea1b606082015260800190565b60208082526021908201527f534c4f206e6f742072656769737465726564206f6e20534c4f526567697374726040820152607960f81b606082015260800190565b60208082526013908201527214195c9a5bd9081a59081b9bdd081d985b1a59606a1b604082015260600190565b6020808252601890820152774f6e6c7920666f72207265676973746572656420534c417360401b604082015260600190565b60208082526026908201527f4f776e61626c653a206e6577206f776e657220697320746865207a65726f206160408201526564647265737360d01b606082015260800190565b60208082526030908201527f534c4120636f6e74726163742077617320616c7265616479207665726966696560408201526f1908199bdc881d1a19481c195c9a5bd960821b606082015260800190565b60208082526028908201527f534c4120636f6e747261637420706572696f6420686173206e6f742066696e696040820152671cda1959081e595d60c21b606082015260800190565b6020808252601c908201527f506572696f647320696e666f726d6174696f6e20697320656d70747900000000604082015260600190565b60208082526030908201527f53686f756c64206f6e6c792062652063616c6c656420666f72206e6f7420627260408201526f65616368656420636f6e74726163747360801b606082015260800190565b6020808252818101527f4f776e61626c653a2063616c6c6572206973206e6f7420746865206f776e6572604082015260600190565b60208082526022908201527f506572696f642074797065206973206e6f7420696e697469616c697a65642079604082015261195d60f21b606082015260800190565b6020808252602c908201527f506572696f64204944206e6f74207265676973746572656420696e207468652060408201526b14d3104818dbdb9d1c9858dd60a21b606082015260800190565b6020808252601c908201527f506572696f64206964732073686f756c6420626520736f727465642000000000604082015260600190565b90815260200190565b9182526001600160a01b0316602082015260400190565b82818337506000910152565b6001600160a01b038116811462001a5f57600080fd5b50565b801515811462001a5f57600080fd5b6006811062001a5f57600080fdfe6080604052601d805460ff191690553480156200001b57600080fd5b5060405162003284380380620032848339810160408190526200003e91620006a6565b838386885185600062000056620003a460201b60201c565b600080546001600160a01b0319166001600160a01b03831690811782556040519293509160008051602062003264833981519152908290a350600180546001600160a01b038088166001600160a01b0319928316178355600280549188169190921617905560108054859260ff1990911690836005811115620000d557fe5b021790555060118290556012805460ff191682151517905560015460408051637b8041cf60e11b815290516000928392839283926001600160a01b03169163f700839e916004808301926080929190829003018186803b1580156200013957600080fd5b505afa1580156200014e573d6000803e3d6000fd5b505050506040513d601f19601f82011682018060405250810190620001749190620007d8565b600254604051635c98d15760e01b815294985092965090945092506000916001600160a01b0390911690635c98d15790620001b4908b906004016200080e565b604080518083038186803b158015620001cc57600080fd5b505afa158015620001e1573d6000803e3d6000fd5b505050506040513d601f19601f82011682018060405250810190620002079190620007a3565b50600f81905560015460408051638b8e530960e01b815290519293506001600160a01b0390911691638b8e530991600480820192602092909190829003018186803b1580156200025657600080fd5b505afa1580156200026b573d6000803e3d6000fd5b505050506040513d601f19601f8201168201806040525081019062000291919062000680565b600980546001600160a01b0319166001600160a01b039290921691909117905550600b93909355600c91909155600d55600e5550620002d793508d9250620003a8915050565b8751620002ec9060159060208b01906200045e565b50601980546001600160a01b03808a166001600160a01b03199283161790925560188054909116331790556016805491851661010002610100600160a81b031990921691909117905543601b5585516200034e906017906020890190620004e3565b506016805486919060ff191660018360058111156200036957fe5b0217905550601480546001600160a01b0319166001600160a01b039a909a1699909917909855505050601c9490945550620008de9350505050565b3390565b620003b2620003a4565b6000546001600160a01b03908116911614620003eb5760405162461bcd60e51b8152600401620003e29062000869565b60405180910390fd5b6001600160a01b038116620004145760405162461bcd60e51b8152600401620003e29062000823565b600080546040516001600160a01b03808516939216916000805160206200326483398151915291a3600080546001600160a01b0319166001600160a01b0392909216919091179055565b828054600181600116156101000203166002900490600052602060002090601f016020900481019282601f10620004a157805160ff1916838001178555620004d1565b82800160010185558215620004d1579182015b82811115620004d1578251825591602001919060010190620004b4565b50620004df92915062000520565b5090565b828054828255906000526020600020908101928215620004d15791602002820182811115620004d1578251825591602001919060010190620004b4565b5b80821115620004df576000815560010162000521565b80516200054481620008c5565b92915050565b600082601f8301126200055b578081fd5b81516001600160401b0381111562000571578182fd5b6020808202620005838282016200089e565b83815293508184018583018287018401881015620005a057600080fd5b600092505b84831015620005c5578051825260019290920191908301908301620005a5565b505050505092915050565b805180151581146200054457600080fd5b8051600681106200054457600080fd5b600082601f83011262000602578081fd5b81516001600160401b0381111562000618578182fd5b60206200062e601f8301601f191682016200089e565b925081835284818386010111156200064557600080fd5b60005b828110156200066557848101820151848201830152810162000648565b82811115620006775760008284860101525b50505092915050565b60006020828403121562000692578081fd5b81516200069f81620008c5565b9392505050565b6000806000806000806000806000806101408b8d031215620006c6578586fd5b620006d28c8c62000537565b9950620006e38c60208d0162000537565b60408c01519099506001600160401b038082111562000700578788fd5b6200070e8e838f01620005f1565b99506200071f8e60608f0162000537565b985060808d015191508082111562000735578788fd5b50620007448d828e016200054a565b965050620007568c60a08d01620005e1565b9450620007678c60c08d0162000537565b9350620007788c60e08d0162000537565b92506200078a8c6101008d01620005d0565b91506101208b015190509295989b9194979a5092959850565b60008060408385031215620007b6578182fd5b8251915060208301518015158114620007cd578182fd5b809150509250929050565b60008060008060808587031215620007ee578384fd5b505082516020840151604085015160609095015191969095509092509050565b60208101600683106200081d57fe5b91905290565b60208082526026908201527f4f776e61626c653a206e6577206f776e657220697320746865207a65726f206160408201526564647265737360d01b606082015260800190565b6020808252818101527f4f776e61626c653a2063616c6c6572206973206e6f7420746865206f776e6572604082015260600190565b6040518181016001600160401b0381118282101715620008bd57600080fd5b604052919050565b6001600160a01b0381168114620008db57600080fd5b50565b61297680620008ee6000396000f3fe608060405234801561001057600080fd5b50600436106102535760003560e01c8063715018a611610146578063cd92890e116100c3578063ee575c2811610087578063ee575c28146104ad578063f2fde38b146104b5578063f51b7ab9146104c8578063f7e9dfff146104d0578063fbbf93a0146104d8578063fd5e6dd1146104f257610253565b8063cd92890e14610464578063d7a5c4221461046c578063db2da48c1461047f578063db69a46214610492578063e68e276d1461049a57610253565b8063a224ee9c1161010a578063a224ee9c14610424578063b18ac9181461042c578063b7bc347e14610434578063c623674f1461043c578063cbe230c31461045157610253565b8063715018a6146103e25780637fd788aa146103ea5780638da5cb5b146103f25780639ab4438f146103fa5780639fc4caa51461041c57610253565b80633d9287fa116101d457806357ac94f01161019857806357ac94f0146103705780635c1c20de146103915780635e5f2e2614610399578063609d3334146103b95780636f265a34146103c157610253565b80633d9287fa1461031a57806346e0fbae146103225780634a4c560d14610337578063524f07351461034a578063565ae2731461035d57610253565b80631bf309291161021b5780631bf30929146102d15780631fc2cd93146102d957806327cd727c146102ec5780632eb8197a146102ff57806333df15411461030757610253565b8063021eef7f146102585780630ae9ea45146102815780630bea440d146102a15780630c5160f4146102b6578063171e44ea146102be575b600080fd5b61026b610266366004612081565b610505565b60405161027891906122c0565b60405180910390f35b61029461028f366004612081565b61054f565b60405161027891906122cb565b6102b46102af3660046120b1565b61056d565b005b61029461064a565b6102b46102cc36600461201c565b610650565b61029461079e565b6102b46102e736600461201c565b6107a4565b6102b46102fa3660046120b1565b6109f7565b610294610b37565b6102946103153660046120b1565b610b3d565b61026b610b5a565b61032a610b63565b60405161027891906122d4565b6102b461034536600461201c565b610b6c565b6102b461035836600461201c565b610bfe565b6102b461036b36600461201c565b610c0a565b61038361037e366004612037565b610c9d565b6040516102789291906121fd565b610294610ceb565b6103ac6103a7366004612081565b610cf1565b60405161027891906121c5565b610294610d18565b6103d46103cf36600461201c565b610d1e565b6040516102789291906128cd565b6102b4610d83565b61026b610e02565b6103ac610e0b565b61040d610408366004612081565b610e1a565b604051610278939291906128db565b6103ac610e3e565b6103ac610e52565b610294610e61565b610294610e67565b610444610e6d565b6040516102789190612300565b61026b61045f36600461201c565b610efb565b6103ac610f4d565b6102b461047a3660046120dd565b610f5c565b61029461048d36600461201c565b611167565b6103ac611179565b6102946104a836600461201c565b611188565b61029461119a565b6102b46104c336600461201c565b6111a0565b610294611256565b6103ac61125c565b6104e061126b565b60405161027896959493929190612216565b6103ac610500366004612081565b61155e565b6000805b60175481101561054457826017828154811061052157fe5b9060005260206000200154141561053c57600191505061054a565b600101610509565b50600090505b919050565b6017818154811061055c57fe5b600091825260209091200154905081565b600082116105965760405162461bcd60e51b815260040161058d906127c6565b60405180910390fd5b601d5460ff16156105b95760405162461bcd60e51b815260040161058d90612710565b6105c3828261156b565b601854604051635948284760e11b81526001600160a01b039091169063b290508e906105f39033906004016121c5565b602060405180830381600087803b15801561060d57600080fd5b505af1158015610621573d6000803e3d6000fd5b505050506040513d601f19601f820116820180604052508101906106459190612061565b505050565b60115481565b610658611814565b6000546001600160a01b039081169116146106855760405162461bcd60e51b815260040161058d906126db565b61068e81610efb565b156106ab5760405162461bcd60e51b815260040161058d90612799565b60015460405163cbe230c360e01b81526001600160a01b039091169063cbe230c3906106db9084906004016121c5565b60206040518083038186803b1580156106f357600080fd5b505afa158015610707573d6000803e3d6000fd5b505050506040513d601f19601f8201168201806040525081019061072b9190612061565b151560011461074c5760405162461bcd60e51b815260040161058d90612476565b600a80546001810182556000919091527fc65a7bb8d6351c1cf70c95a316cc6a92839c986682d98bc35f958f4883f9d2a80180546001600160a01b0319166001600160a01b0392909216919091179055565b601b5481565b6107ac610e0b565b6001600160a01b0316336001600160a01b031614156107dd5760405162461bcd60e51b815260040161058d90612888565b60125460ff16151560011415610821573360009081526013602052604090205460ff1615156001146108215760405162461bcd60e51b815260040161058d90612565565b6001600160a01b038116600090815260046020908152604080832033845290915290205461271090806108665760405162461bcd60e51b815260040161058d90612508565b6001600160a01b0383166000908152600560205260408120546108939061088d8486611818565b9061185b565b6001600160a01b038516600090815260066020526040812054919250906108c090859061088d9085611818565b90506000856001600160a01b031663a9059cbb33846002026040518363ffffffff1660e01b81526004016108f59291906121fd565b602060405180830381600087803b15801561090f57600080fd5b505af1158015610923573d6000803e3d6000fd5b505050506040513d601f19601f820116820180604052508101906109479190612061565b905060018115151461096b5760405162461bcd60e51b815260040161058d90612820565b6001600160a01b03861660009081526005602052604090205461098e908561189d565b6001600160a01b0387166000908152600560209081526040808320939093556006905220546109bd908361189d565b6001600160a01b03909616600090815260066020908152604080832098909855600481528782203383529052958620959095555050505050565b60008211610a175760405162461bcd60e51b815260040161058d906127c6565b60178054600091906000198101908110610a2d57fe5b600091825260208220015460165460405160016259edcb60e01b031981529193506001600160a01b036101008204169163ffa6123591610a779160ff9091169086906004016122e8565b604080518083038186803b158015610a8e57600080fd5b505afa158015610aa2573d6000803e3d6000fd5b505050506040513d601f19601f82011682018060405250810190610ac691906120fe565b601d5490925060ff161515600114905080610b0b5750804210158015610b0b57506000828152601a6020526040812060029081015460ff1690811115610b0857fe5b14155b610b275760405162461bcd60e51b815260040161058d9061237a565b610b3184846118df565b50505050565b600e5481565b600760209081526000928352604080842090915290825290205481565b60125460ff1681565b60165460ff1681565b610b74611814565b6000546001600160a01b03908116911614610ba15760405162461bcd60e51b815260040161058d906126db565b6001600160a01b03811660009081526013602052604090205460ff1615610bda5760405162461bcd60e51b815260040161058d90612348565b6001600160a01b03166000908152601360205260409020805460ff19166001179055565b610c07816107a4565b50565b610c12611814565b6000546001600160a01b03908116911614610c3f5760405162461bcd60e51b815260040161058d906126db565b6001600160a01b03811660009081526013602052604090205460ff161515600114610c7c5760405162461bcd60e51b815260040161058d906127f2565b6001600160a01b03166000908152601360205260409020805460ff19169055565b6000806000600a8481548110610caf57fe5b6000918252602080832091909101546001600160a01b039081168084526004835260408085209990921684529790915290205494959350505050565b600b5481565b600a8181548110610cfe57fe5b6000918252602090912001546001600160a01b0316905081565b601c5481565b6001600160a01b0381166000908152600460205260408120819081610d41610e0b565b6001600160a01b039081168252602080830193909352604091820160009081205491871681526003909352912054909250610d7c908361189d565b9050915091565b610d8b611814565b6000546001600160a01b03908116911614610db85760405162461bcd60e51b815260040161058d906126db565b600080546040516001600160a01b03909116907f8be0079c531659141344cd1fd0a4f28419497f9722a3daafe3b4186f6b6457e0908390a3600080546001600160a01b0319169055565b601d5460ff1690565b6000546001600160a01b031690565b601a6020526000908152604090208054600182015460029092015490919060ff1683565b60165461010090046001600160a01b031681565b6019546001600160a01b031681565b600d5481565b600a5490565b6015805460408051602060026001851615610100026000190190941693909304601f81018490048402820184019092528181529291830182828015610ef35780601f10610ec857610100808354040283529160200191610ef3565b820191906000526020600020905b815481529060010190602001808311610ed657829003601f168201915b505050505081565b6000805b600a5481101561054457826001600160a01b0316600a8281548110610f2057fe5b6000918252602090912001546001600160a01b03161415610f4557600191505061054a565b600101610eff565b6014546001600160a01b031681565b6019546001600160a01b03163314610f865760405162461bcd60e51b815260040161058d906124c3565b7fc95987c1992805ee34bdc915e017cceae36ba1c156b9911fa7e691e6435eb46e428383604051610fb9939291906128fe565b60405180910390a16000818152601a60209081526040808320600181018690554281556014548251633fa4f24560e01b815292519194936001600160a01b0390911692633fa4f2459260048083019392829003018186803b15801561101d57600080fd5b505afa158015611031573d6000803e3d6000fd5b505050506040513d601f19601f820116820180604052508101906110559190612099565b60145460405163868d08f760e01b81529192506001600160a01b03169063868d08f7906110869087906004016122cb565b60206040518083038186803b15801561109e57600080fd5b505afa1580156110b2573d6000803e3d6000fd5b505050506040513d601f19601f820116820180604052508101906110d69190612061565b156111025760028201805460ff191660011790556110fd836110f8868461189d565b611aa9565b610b31565b6002828101805460ff1916909117905561111a611c0d565b601d805460ff191660011790556040517fbd33f7a3bfa88a467c9df5ae7d2341cf061084c386b20a0d48130f5cbce38a4d9061115990859087906128cd565b60405180910390a150505050565b60066020526000908152604090205481565b6018546001600160a01b031681565b60056020526000908152604090205481565b600c5481565b6111a8611814565b6000546001600160a01b039081169116146111d55760405162461bcd60e51b815260040161058d906126db565b6001600160a01b0381166111fb5760405162461bcd60e51b815260040161058d906123f9565b600080546040516001600160a01b03808516939216917f8be0079c531659141344cd1fd0a4f28419497f9722a3daafe3b4186f6b6457e091a3600080546001600160a01b0319166001600160a01b0392909216919091179055565b600f5481565b6009546001600160a01b031681565b60006060600060606000606061127f610e0b565b60158054604080516020601f600260001961010060018816150201909516949094049384018190048102820181019092528281529399508301828280156113075780601f106112dc57610100808354040283529160200191611307565b820191906000526020600020905b8154815290600101906020018083116112ea57829003601f168201915b50506014546017549499506001600160a01b031697505067ffffffffffffffff8311915050801561133757600080fd5b5060405190808252806020026020018201604052801561137157816020015b61135e611fc3565b8152602001906001900390816113565790505b50925060005b60175481101561144e5760006017828154811061139057fe5b906000526020600020015490506113a5611fc3565b6000828152601a6020908152604091829020825160608101845281548152600182015492810192909252600280820154929391929184019160ff16908111156113ea57fe5b60028111156113f557fe5b815250509050604051806060016040528082600001518152602001826020015181526020018260400151600281111561142a57fe5b81525086848151811061143957fe5b60209081029190910101525050600101611377565b50600854600a5490925067ffffffffffffffff8111801561146e57600080fd5b506040519080825280602002602001820160405280156114a857816020015b611495611fee565b81526020019060019003908161148d5790505b50905060005b600a54811015611555576040518060400160405280600a83815481106114d057fe5b9060005260206000200160009054906101000a90046001600160a01b03166001600160a01b0316815260200160036000600a858154811061150d57fe5b60009182526020808320909101546001600160a01b031683528201929092526040019020549052825183908390811061154257fe5b60209081029190910101526001016114ae565b50909192939495565b60088181548110610cfe57fe5b8061157581610efb565b15156001146115965760405162461bcd60e51b815260040161058d906126ad565b60125460ff161515600114156115da573360009081526013602052604090205460ff1615156001146115da5760405162461bcd60e51b815260040161058d90612565565b6115e2610e0b565b6001600160a01b0316336001600160a01b0316146116375760008061160684610d1e565b9092509050816116168287611d78565b11156116345760405162461bcd60e51b815260040161058d90612624565b50505b6040516323b872dd60e01b81526000906001600160a01b038416906323b872dd9061166a903390309089906004016121d9565b602060405180830381600087803b15801561168457600080fd5b505af1158015611698573d6000803e3d6000fd5b505050506040513d601f19601f820116820180604052508101906116bc9190612061565b90506001811515146116e05760405162461bcd60e51b815260040161058d90612758565b6001600160a01b0383166000908152600360205260409020546117039085611d78565b6001600160a01b038416600090815260036020908152604080832093909355600481528282203383529052205461173a9085611d78565b6001600160a01b03841660009081526004602090815260408083203380855292529091209190915561176b90611d9d565b6117b257600880546001810182556000919091527ff3f7a9fe364faab93b216da50a3214154f22a0a2b415b23a84c8169e8b636ee30180546001600160a01b031916331790555b6117ba610e0b565b6001600160a01b0316336001600160a01b031614610b31576001600160a01b0383166000908152600560205260409020546117f59085611d78565b6001600160a01b03841660009081526005602052604090205550505050565b3390565b60008261182757506000611855565b8282028284828161183457fe5b04146118525760405162461bcd60e51b815260040161058d9061266c565b90505b92915050565b600061185283836040518060400160405280601a81526020017f536166654d6174683a206469766973696f6e206279207a65726f000000000000815250611def565b600061185283836040518060400160405280601e81526020017f536166654d6174683a207375627472616374696f6e206f766572666c6f770000815250611e26565b806118e981610efb565b151560011461190a5760405162461bcd60e51b815260040161058d906126ad565b60125460ff1615156001141561194e573360009081526013602052604090205460ff16151560011461194e5760405162461bcd60e51b815260040161058d90612565565b6001600160a01b03821660009081526004602090815260408083203384529091529020548311156119915760405162461bcd60e51b815260040161058d906125da565b6001600160a01b0382166000908152600360205260409020546119b4908461189d565b6001600160a01b03831660009081526003602090815260408083209390935560048152828220338352905220546119eb908461189d565b6001600160a01b038316600081815260046020818152604080842033808652925280842095909555935163a9059cbb60e01b8152919363a9059cbb92611a33928991016121fd565b602060405180830381600087803b158015611a4d57600080fd5b505af1158015611a61573d6000803e3d6000fd5b505050506040513d601f19601f82011682018060405250810190611a859190612061565b9050600181151514610b315760405162461bcd60e51b815260040161058d90612313565b60005b600a54811015610645576000600a8281548110611ac557fe5b60009182526020822001546001600160a01b03169150611ae482610d1e565b915050600061271090506000611b15600f5461088d88611b0f8660115461181890919063ffffffff16565b90611818565b90506000611b2a6064840261088d8685611818565b6009549091506001600160a01b0386811691161415611b5d576000611b4e82611e52565b9050611b5a828261189d565b50505b6001600160a01b0385166000908152600460205260408120611ba491839190611b84610e0b565b6001600160a01b0316815260208101919091526040016000205490611d78565b6001600160a01b038616600090815260046020526040812090611bc5610e0b565b6001600160a01b03908116825260208083019390935260409182016000908120949094558b845260078352818420981683529690529490942093909355505050600101611aac565b60005b600a54811015610c07576000600a8281548110611c2957fe5b60009182526020822001546001600160a01b03169150611c4882610d1e565b6009549092508291506001600160a01b0384811691161415611c7e576000611c6f82611e52565b9050611c7b828261189d565b50505b6001600160a01b038316600090815260036020526040902054611ca1908261189d565b6001600160a01b03841660009081526003602090815260408083209390935560049052908120611cf691839190611cd6610e0b565b6001600160a01b031681526020810191909152604001600020549061189d565b6001600160a01b038416600090815260046020526040812090611d17610e0b565b6001600160a01b0390811682526020808301939093526040918201600090812094909455861683526006909152902054611d519082611d78565b6001600160a01b039093166000908152600660205260409020929092555050600101611c10565b6000828201838110156118525760405162461bcd60e51b815260040161058d9061243f565b6000805b60085481101561054457826001600160a01b031660088281548110611dc257fe5b6000918252602090912001546001600160a01b03161415611de757600191505061054a565b600101611da1565b60008183611e105760405162461bcd60e51b815260040161058d9190612300565b506000838581611e1c57fe5b0495945050505050565b60008184841115611e4a5760405162461bcd60e51b815260040161058d9190612300565b505050900390565b60408051808201909152600d81526c6275726e2875696e743235362960981b602090910152600b546000907f42966c689b5afe9b9b3f8a7103b2a19980d59629bfd6a20a60972312ed41d83690611eb2906103e89061088d908690611818565b6009546040519193506000916001600160a01b03909116908390611eda9086906024016122cb565b60408051601f198184030181529181526020820180516001600160e01b03166001600160e01b0319909416939093179092529051611f1891906121a9565b6000604051808303816000865af19150503d8060008114611f55576040519150601f19603f3d011682016040523d82523d6000602084013e611f5a565b606091505b5050905080611f7b5760405162461bcd60e51b815260040161058d90612596565b6009546001600160a01b0316600090815260036020526040902054611fa0908461189d565b6009546001600160a01b0316600090815260036020526040902055509092915050565b6040518060600160405280600081526020016000815260200160006002811115611fe957fe5b905290565b604080518082019091526000808252602082015290565b80356001600160a01b038116811461185557600080fd5b60006020828403121561202d578081fd5b6118528383612005565b60008060408385031215612049578081fd5b6120538484612005565b946020939093013593505050565b600060208284031215612072578081fd5b81518015158114611852578182fd5b600060208284031215612092578081fd5b5035919050565b6000602082840312156120aa578081fd5b5051919050565b600080604083850312156120c3578182fd5b823591506120d48460208501612005565b90509250929050565b600080604083850312156120ef578182fd5b50508035926020909101359150565b60008060408385031215612110578182fd5b505080516020909101519092909150565b6000815180845260208085019450808401835b8381101561216457815180516001600160a01b031688528301518388015260409096019590820190600101612134565b509495945050505050565b6003811061217957fe5b9052565b60008151808452612195816020860160208601612914565b601f01601f19169290920160200192915050565b600082516121bb818460208701612914565b9190910192915050565b6001600160a01b0391909116815260200190565b6001600160a01b039384168152919092166020820152604081019190915260600190565b6001600160a01b03929092168252602082015260400190565b600060018060a01b038089168352602060c08185015261223960c085018a61217d565b6040838a168187015260609350858203848701528189518084528484019150848b019350865b818110156122955784518051845286810151878501528401516122848585018261216f565b50938501939186019160010161225f565b505088608088015286810360a08801526122af8189612121565b9d9c50505050505050505050505050565b901515815260200190565b90815260200190565b60208101600683106122e257fe5b91905290565b60408101600684106122f657fe5b9281526020015290565b600060208252611852602083018461217d565b6020808252818101527f5374616b6520776974686472617720776173206e6f742073756363657366756c604082015260600190565b602080825260189082015277155cd95c88185b1c9958591e481dda1a5d195b1a5cdd195960421b604082015260600190565b60208082526059908201527f43616e206f6e6c79207769746864726177207374616b6520616674657220746860408201527f652066696e616c20706572696f642069732066696e6973686564206f72206966606082015278081d1a194818dbdb9d1c9858dd081a5cc8189c995858da1959603a1b608082015260a00190565b60208082526026908201527f4f776e61626c653a206e6577206f776e657220697320746865207a65726f206160408201526564647265737360d01b606082015260800190565b6020808252601b908201527f536166654d6174683a206164646974696f6e206f766572666c6f770000000000604082015260600190565b6020808252602d908201527f546f6b656e206e6f7420616c6c6f7765642062792074686520534c415265676960408201526c1cdd1c9e4818dbdb9d1c9858dd609a1b606082015260800190565b60208082526025908201527f4f6e6c79204d657373656e6765722063616e2063616c6c20746869732066756e60408201526431ba34b7b760d91b606082015260800190565b6020808252603a908201527f43616e206f6e6c7920636c61696d206120636f6d70656e736174696f6e20696660408201527f20706f736974696f6e20697320626967676572207468616e2030000000000000606082015260800190565b602080825260179082015276155cd95c881a5cc81b9bdd081dda1a5d195b1a5cdd1959604a1b604082015260600190565b60208082526024908201527f44534c41206275726e2070726f6365737320776173206e6f74207375636365736040820152631cd99d5b60e21b606082015260800190565b6020808252602a908201527f53686f756c64206e6f74207769746864726177206d6f7265207374616b6520746040820152691a185b881cdd185ad95960b21b606082015260800190565b60208082526028908201527f43616e6e6f74207374616b65206d6f7265207468616e20534c412070726f76696040820152676465727374616b6560c01b606082015260800190565b60208082526021908201527f536166654d6174683a206d756c7469706c69636174696f6e206f766572666c6f6040820152607760f81b606082015260800190565b6020808252601490820152731d1bdad95b881a5cc81b9bdd08185b1b1bddd95960621b604082015260600190565b6020808252818101527f4f776e61626c653a2063616c6c6572206973206e6f7420746865206f776e6572604082015260600190565b60208082526028908201527f43616e206f6e6c79207374616b65206f6e206e6f7420627265616368656420636040820152676f6e74726163747360c01b606082015260800190565b60208082526021908201527f5374616b696e672070726f6365737320776173206e6f742073756363657366756040820152601b60fa1b606082015260800190565b602080825260139082015272151bdad95b88185b1c9958591e481859191959606a1b604082015260600190565b6020808252601290820152710616d6f756e742063616e6e6f7420626520360741b604082015260600190565b602080825260149082015273155cd95c881b9bdd081dda1a5d195b1a5cdd195960621b604082015260600190565b60208082526042908201527f5472616e736665722070726f636573732066726f6d20534c4120636f6e74726160408201527f637420746f206d73672e73656e64657220776173206e6f7420737563636573666060820152611d5b60f21b608082015260a00190565b60208082526025908201527f53686f756c64206e6f742062652063616c6c65642062792074686520534c412060408201526437bbb732b960d91b606082015260800190565b918252602082015260400190565b83815260208101839052606081016128f6604083018461216f565b949350505050565b9283526020830191909152604082015260600190565b60005b8381101561292f578181015183820152602001612917565b83811115610b31575050600091015256fea26469706673582212206c94c7ee376b6169c262ea85987f70ae4cd79a7669c2c0536e8cd7cc317ee8e464736f6c634300060c00338be0079c531659141344cd1fd0a4f28419497f9722a3daafe3b4186f6b6457e0a26469706673582212204ee835130c30c23d6a1dcf2c14e97d8c870bbb59d938c2f071490ab70f01dadf64736f6c634300060c0033",
  "immutableReferences": {},
  "source": "// SPDX-License-Identifier: MIT\npragma solidity ^0.6.0;\npragma experimental ABIEncoderV2;\n\nimport \"@openzeppelin/contracts/math/SafeMath.sol\";\nimport \"@openzeppelin/contracts/token/ERC20/IERC20.sol\";\nimport \"@openzeppelin/contracts/access/Ownable.sol\";\nimport \"./SLA.sol\";\nimport \"./SLO.sol\";\nimport \"./SLORegistry.sol\";\nimport \"./PeriodRegistry.sol\";\nimport \"./MessengerRegistry.sol\";\nimport \"./StakeRegistry.sol\";\nimport \"./messenger/IMessenger.sol\";\n\n/**\n * @title SLARegistry\n * @dev SLARegistry is a contract for handling creation of service level\n * agreements and keeping track of the created agreements\n */\ncontract SLARegistry is Ownable {\n    using SafeMath for uint256;\n\n    /// @dev SLO registry\n    SLORegistry public sloRegistry;\n    /// @dev Periods registry\n    PeriodRegistry public periodRegistry;\n    /// @dev Messengers registry\n    MessengerRegistry public messengerRegistry;\n    /// @dev Stake registry\n    StakeRegistry public stakeRegistry;\n    /// @dev stores the addresses of created SLAs\n    SLA[] public SLAs;\n    /// @dev (slaAddress=>bool) to check if SLA is registered\n    mapping(address => bool) public registeredSLAs;\n    /// @dev stores the indexes of service level agreements owned by an user\n    mapping(address => uint256[]) private userToSLAIndexes;\n    /// @dev mapping userAddress => SLA[]\n    mapping(address => SLA[]) public userStakedSlas;\n\n    /**\n     * @dev event for service level agreement creation logging\n     * @param sla 1. The address of the created service level agreement contract\n     * @param owner 2. The address of the owner of the service level agreement\n     */\n    event SLACreated(SLA indexed sla, address indexed owner);\n\n    /**\n     * @dev constructor\n     * @param _sloRegistry 1. SLO Registry\n     * @param _periodRegistry 2. Periods registry\n     * @param _messengerRegistry 3. Messenger registry\n     * @param _stakeRegistry 4. Stake registry\n     */\n    constructor(\n        SLORegistry _sloRegistry,\n        PeriodRegistry _periodRegistry,\n        MessengerRegistry _messengerRegistry,\n        StakeRegistry _stakeRegistry\n    ) public {\n        sloRegistry = _sloRegistry;\n        periodRegistry = _periodRegistry;\n        stakeRegistry = _stakeRegistry;\n        messengerRegistry = _messengerRegistry;\n        messengerRegistry.setSLARegistry();\n    }\n\n    /**\n     * @dev public function for creating canonical service level agreements\n     * @param _SLO 1. SLO\n     * @param _ipfsHash 2. string with the ipfs hash that contains extra information about the service level agreement\n     * @param _periodType 3. period type\n     * @param _periodIds 4. array of allowed period ids\n     * @param _messengerAddress 5. address of the messenger for the corresponding SLA\n     * @param _whitelisted 6. bool to declare whitelisted SLA\n     * @param _extraData 7. bytes32 to embed extra data for customized workflows\n     */\n    function createSLA(\n        SLO _SLO,\n        string memory _ipfsHash,\n        PeriodRegistry.PeriodType _periodType,\n        uint256[] calldata _periodIds,\n        address _messengerAddress,\n        bool _whitelisted,\n        bytes32 _extraData\n    ) public {\n        (, bool initialized) = periodRegistry.periodDefinitions(_periodType);\n        require(initialized == true, \"Period type is not initialized yet\");\n        require(\n            sloRegistry.registeredSLOs(address(_SLO)) == true,\n            \"SLO not registered on SLORegistry\"\n        );\n        require(_periodIds.length > 0, \"Periods information is empty\");\n        // check if _periodIds are valid and sorted in ascendant order\n        for (uint256 index = 0; index < _periodIds.length; index++) {\n            bool validPeriod =\n                periodRegistry.isValidPeriod(_periodType, _periodIds[index]);\n            require(validPeriod, \"Period id not valid\");\n            if (index < _periodIds.length - 1) {\n                require(\n                    _periodIds[index] < _periodIds[index + 1],\n                    \"Period ids should be sorted \"\n                );\n            }\n        }\n        bool registeredMessenger =\n            messengerRegistry.registeredMessengers(_messengerAddress);\n        require(\n            registeredMessenger == true,\n            \"messenger address is not registered\"\n        );\n\n        SLA sla =\n            new SLA(\n                msg.sender,\n                _SLO,\n                _ipfsHash,\n                _messengerAddress,\n                _periodIds,\n                _periodType,\n                address(stakeRegistry),\n                address(periodRegistry),\n                _whitelisted,\n                _extraData\n            );\n\n        SLAs.push(sla);\n        registeredSLAs[address(sla)] = true;\n        uint256 index = SLAs.length.sub(1);\n        userToSLAIndexes[msg.sender].push(index);\n        emit SLACreated(sla, msg.sender);\n    }\n\n    /**\n     * @dev Gets SLI information for the specified SLA and SLO\n     * @param _periodId 1. id of the period\n     * @param _sla 2. SLA Address\n     */\n    function requestSLI(uint256 _periodId, SLA _sla) public {\n        bool breachedContract = _sla.breachedContract();\n        (, , SLA.Status status) = _sla.slaPeriods(_periodId);\n        require(\n            status == SLA.Status.NotVerified,\n            \"SLA contract was already verified for the period\"\n        );\n        require(\n            breachedContract == false,\n            \"Should only be called for not breached contracts\"\n        );\n        bool slaAllowedPeriodId = _sla.isAllowedPeriod(_periodId);\n        require(\n            slaAllowedPeriodId == true,\n            \"Period ID not registered in the SLA contract\"\n        );\n        PeriodRegistry.PeriodType slaPeriodType = _sla.periodType();\n        bool periodFinished =\n            periodRegistry.periodIsFinished(slaPeriodType, _periodId);\n        require(\n            periodFinished == true,\n            \"SLA contract period has not finished yet\"\n        );\n        address slaMessenger = _sla.messengerAddress();\n        IMessenger(slaMessenger).requestSLI(_periodId, address(_sla));\n    }\n\n    /**\n     * @dev function to declare this SLARegistry contract as SLARegistry of _messengerAddress\n     * @param _messengerAddress 1. address of the messenger\n     */\n\n    function setMessengerSLARegistryAddress(address _messengerAddress) public {\n        IMessenger(_messengerAddress).setSLARegistry();\n        messengerRegistry.registerMessenger(_messengerAddress, msg.sender);\n    }\n\n    /**\n     * @dev public view function that returns the service level agreements that\n     * the given user is the owner of\n     * @param _user Address of the user for which to return the service level\n     * agreements\n     * @return array of SLAs\n     */\n    function userSLAs(address _user) public view returns (SLA[] memory) {\n        uint256 count = userSLACount(_user);\n        SLA[] memory SLAList = new SLA[](count);\n        uint256[] memory userSLAIndexes = userToSLAIndexes[_user];\n\n        for (uint256 i = 0; i < count; i++) {\n            SLAList[i] = (SLAs[userSLAIndexes[i]]);\n        }\n\n        return (SLAList);\n    }\n\n    /**\n     * @dev public view function that returns the amount of service level\n     * agreements the given user is the owner of\n     * @param _user 1. address of the user for which to return the amount of\n     * service level agreements\n     * @return uint256 corresponding to the amount of user's SLAs\n     */\n    function userSLACount(address _user) public view returns (uint256) {\n        return userToSLAIndexes[_user].length;\n    }\n\n    /**\n     * @dev public view function that returns all the service level agreements\n     * @return SLA[] array of SLAs\n     */\n    function allSLAs() public view returns (SLA[] memory) {\n        return (SLAs);\n    }\n\n    /**\n     * @dev public view function that returns the total amount of service\n     * level agreements\n     * @return uint256, the length of SLA array\n     */\n    function SLACount() public view returns (uint256) {\n        return SLAs.length;\n    }\n\n    /**\n     *@dev public view function that returns true if the _owner has staked on _sla\n     *@param _user 1. address to check\n     *@param _sla 2. sla to check\n     *@return bool, true if _sla was staked by _user\n     */\n    function slaWasStakedByUser(address _user, address _sla)\n        public\n        view\n        returns (bool)\n    {\n        for (uint256 index = 0; index < userStakedSlas[_user].length; index++) {\n            if (address(userStakedSlas[_user][index]) == _sla) {\n                return true;\n            }\n        }\n        return false;\n    }\n\n    /**\n     *@dev register the sending SLA contract as staked by _owner\n     *@param _owner 1. SLA contract to stake\n     */\n    function registerStakedSla(address _owner) public returns (bool) {\n        require(registeredSLAs[msg.sender] == true, \"Only for registered SLAs\");\n        if (slaWasStakedByUser(_owner, msg.sender) == false) {\n            userStakedSlas[_owner].push(SLA(msg.sender));\n        }\n        return true;\n    }\n}\n",
  "sourcePath": "/Users/matiasbn/Desktop/stacktical/stacktical-dsla-contracts/contracts/SLARegistry.sol",
  "compiler": {
    "name": "solc",
    "version": "0.6.12+commit.27d51765.Emscripten.clang"
  },
  "schemaVersion": "3.3.3",
  "updatedAt": "2021-02-15T00:22:29.593Z",
  "devdoc": {
    "details": "SLARegistry is a contract for handling creation of service level agreements and keeping track of the created agreements",
    "events": {
      "SLACreated(address,address)": {
        "details": "event for service level agreement creation logging",
        "params": {
          "owner": "2. The address of the owner of the service level agreement",
          "sla": "1. The address of the created service level agreement contract"
        }
      }
    },
    "kind": "dev",
    "methods": {
      "SLACount()": {
        "details": "public view function that returns the total amount of service level agreements",
        "returns": {
          "_0": "uint256, the length of SLA array"
        }
      },
      "allSLAs()": {
        "details": "public view function that returns all the service level agreements",
        "returns": {
          "_0": "SLA[] array of SLAs"
        }
      },
      "constructor": {
        "details": "constructor",
        "params": {
          "_messengerRegistry": "3. Messenger registry",
          "_periodRegistry": "2. Periods registry",
          "_sloRegistry": "1. SLO Registry",
          "_stakeRegistry": "4. Stake registry"
        }
      },
      "createSLA(address,string,uint8,uint256[],address,bool,bytes32)": {
        "details": "public function for creating canonical service level agreements",
        "params": {
          "_SLO": "1. SLO",
          "_extraData": "7. bytes32 to embed extra data for customized workflows",
          "_ipfsHash": "2. string with the ipfs hash that contains extra information about the service level agreement",
          "_messengerAddress": "5. address of the messenger for the corresponding SLA",
          "_periodIds": "4. array of allowed period ids",
          "_periodType": "3. period type",
          "_whitelisted": "6. bool to declare whitelisted SLA"
        }
      },
      "owner()": {
        "details": "Returns the address of the current owner."
      },
      "registerStakedSla(address)": {
        "details": "register the sending SLA contract as staked by _owner",
        "params": {
          "_owner": "1. SLA contract to stake"
        }
      },
      "renounceOwnership()": {
        "details": "Leaves the contract without owner. It will not be possible to call `onlyOwner` functions anymore. Can only be called by the current owner. NOTE: Renouncing ownership will leave the contract without an owner, thereby removing any functionality that is only available to the owner."
      },
      "requestSLI(uint256,address)": {
        "details": "Gets SLI information for the specified SLA and SLO",
        "params": {
          "_periodId": "1. id of the period",
          "_sla": "2. SLA Address"
        }
      },
      "setMessengerSLARegistryAddress(address)": {
        "details": "function to declare this SLARegistry contract as SLARegistry of _messengerAddress",
        "params": {
          "_messengerAddress": "1. address of the messenger"
        }
      },
      "slaWasStakedByUser(address,address)": {
        "details": "public view function that returns true if the _owner has staked on _sla",
        "params": {
          "_sla": "2. sla to check",
          "_user": "1. address to check"
        },
        "returns": {
          "_0": "bool, true if _sla was staked by _user"
        }
      },
      "transferOwnership(address)": {
        "details": "Transfers ownership of the contract to a new account (`newOwner`). Can only be called by the current owner."
      },
      "userSLACount(address)": {
        "details": "public view function that returns the amount of service level agreements the given user is the owner of",
        "params": {
          "_user": "1. address of the user for which to return the amount of service level agreements"
        },
        "returns": {
          "_0": "uint256 corresponding to the amount of user's SLAs"
        }
      },
      "userSLAs(address)": {
        "details": "public view function that returns the service level agreements that the given user is the owner of",
        "params": {
          "_user": "Address of the user for which to return the service level agreements"
        },
        "returns": {
          "_0": "array of SLAs"
        }
      }
    },
    "stateVariables": {
      "SLAs": {
        "details": "stores the addresses of created SLAs"
      },
      "messengerRegistry": {
        "details": "Messengers registry"
      },
      "periodRegistry": {
        "details": "Periods registry"
      },
      "registeredSLAs": {
        "details": "(slaAddress=>bool) to check if SLA is registered"
      },
      "sloRegistry": {
        "details": "SLO registry"
      },
      "stakeRegistry": {
        "details": "Stake registry"
      },
      "userStakedSlas": {
        "details": "mapping userAddress => SLA[]"
      },
      "userToSLAIndexes": {
        "details": "stores the indexes of service level agreements owned by an user"
      }
    },
    "title": "SLARegistry",
    "version": 1
  },
  "userdoc": {
    "kind": "user",
    "methods": {},
    "version": 1
  }
}