{
  "contractName": "SLARegistry",
  "abi": [
    {
      "inputs": [
        {
          "internalType": "contract SLORegistry",
          "name": "_sloRegistry",
          "type": "address"
        },
        {
          "internalType": "contract PeriodRegistry",
          "name": "_periodRegistry",
          "type": "address"
        },
        {
          "internalType": "contract MessengerRegistry",
          "name": "_messengerRegistry",
          "type": "address"
        },
        {
          "internalType": "contract StakeRegistry",
          "name": "_stakeRegistry",
          "type": "address"
        },
        {
          "internalType": "bool",
          "name": "_checkPastPeriod",
          "type": "bool"
        }
      ],
      "stateMutability": "nonpayable",
      "type": "constructor"
    },
    {
      "anonymous": false,
      "inputs": [
        {
          "indexed": true,
          "internalType": "address",
          "name": "sla",
          "type": "address"
        },
        {
          "indexed": true,
          "internalType": "address",
          "name": "caller",
          "type": "address"
        }
      ],
      "name": "ReturnLockedValue",
      "type": "event"
    },
    {
      "anonymous": false,
      "inputs": [
        {
          "indexed": true,
          "internalType": "contract SLA",
          "name": "sla",
          "type": "address"
        },
        {
          "indexed": true,
          "internalType": "address",
          "name": "owner",
          "type": "address"
        }
      ],
      "name": "SLACreated",
      "type": "event"
    },
    {
      "anonymous": false,
      "inputs": [
        {
          "indexed": false,
          "internalType": "uint256",
          "name": "periodId",
          "type": "uint256"
        },
        {
          "indexed": true,
          "internalType": "address",
          "name": "sla",
          "type": "address"
        },
        {
          "indexed": true,
          "internalType": "address",
          "name": "caller",
          "type": "address"
        }
      ],
      "name": "SLIRequested",
      "type": "event"
    },
    {
      "inputs": [
        {
          "internalType": "uint256",
          "name": "",
          "type": "uint256"
        }
      ],
      "name": "SLAs",
      "outputs": [
        {
          "internalType": "contract SLA",
          "name": "",
          "type": "address"
        }
      ],
      "stateMutability": "view",
      "type": "function"
    },
    {
      "inputs": [],
      "name": "checkPastPeriod",
      "outputs": [
        {
          "internalType": "bool",
          "name": "",
          "type": "bool"
        }
      ],
      "stateMutability": "view",
      "type": "function"
    },
    {
      "inputs": [],
      "name": "messengerRegistry",
      "outputs": [
        {
          "internalType": "contract MessengerRegistry",
          "name": "",
          "type": "address"
        }
      ],
      "stateMutability": "view",
      "type": "function"
    },
    {
      "inputs": [],
      "name": "periodRegistry",
      "outputs": [
        {
          "internalType": "contract PeriodRegistry",
          "name": "",
          "type": "address"
        }
      ],
      "stateMutability": "view",
      "type": "function"
    },
    {
      "inputs": [],
      "name": "sloRegistry",
      "outputs": [
        {
          "internalType": "contract SLORegistry",
          "name": "",
          "type": "address"
        }
      ],
      "stateMutability": "view",
      "type": "function"
    },
    {
      "inputs": [],
      "name": "stakeRegistry",
      "outputs": [
        {
          "internalType": "contract StakeRegistry",
          "name": "",
          "type": "address"
        }
      ],
      "stateMutability": "view",
      "type": "function"
    },
    {
      "inputs": [
        {
          "internalType": "uint256",
          "name": "_sloValue",
          "type": "uint256"
        },
        {
          "internalType": "enum SLORegistry.SLOType",
          "name": "_sloType",
          "type": "uint8"
        },
        {
          "internalType": "bool",
          "name": "_whitelisted",
          "type": "bool"
        },
        {
          "internalType": "address",
          "name": "_messengerAddress",
          "type": "address"
        },
        {
          "internalType": "enum PeriodRegistry.PeriodType",
          "name": "_periodType",
          "type": "uint8"
        },
        {
          "internalType": "uint128",
          "name": "_initialPeriodId",
          "type": "uint128"
        },
        {
          "internalType": "uint128",
          "name": "_finalPeriodId",
          "type": "uint128"
        },
        {
          "internalType": "string",
          "name": "_ipfsHash",
          "type": "string"
        },
        {
          "internalType": "bytes32[]",
          "name": "_extraData",
          "type": "bytes32[]"
        },
        {
          "internalType": "uint64",
          "name": "_leverage",
          "type": "uint64"
        }
      ],
      "name": "createSLA",
      "outputs": [],
      "stateMutability": "nonpayable",
      "type": "function"
    },
    {
      "inputs": [
        {
          "internalType": "uint256",
          "name": "_periodId",
          "type": "uint256"
        },
        {
          "internalType": "contract SLA",
          "name": "_sla",
          "type": "address"
        },
        {
          "internalType": "bool",
          "name": "_ownerApproval",
          "type": "bool"
        }
      ],
      "name": "requestSLI",
      "outputs": [],
      "stateMutability": "nonpayable",
      "type": "function"
    },
    {
      "inputs": [
        {
          "internalType": "contract SLA",
          "name": "_sla",
          "type": "address"
        }
      ],
      "name": "returnLockedValue",
      "outputs": [],
      "stateMutability": "nonpayable",
      "type": "function"
    },
    {
      "inputs": [
        {
          "internalType": "address",
          "name": "_messengerAddress",
          "type": "address"
        },
        {
          "internalType": "string",
          "name": "_specificationUrl",
          "type": "string"
        }
      ],
      "name": "registerMessenger",
      "outputs": [],
      "stateMutability": "nonpayable",
      "type": "function"
    },
    {
      "inputs": [
        {
          "internalType": "address",
          "name": "_user",
          "type": "address"
        }
      ],
      "name": "userSLAs",
      "outputs": [
        {
          "internalType": "contract SLA[]",
          "name": "",
          "type": "address[]"
        }
      ],
      "stateMutability": "view",
      "type": "function"
    },
    {
      "inputs": [],
      "name": "allSLAs",
      "outputs": [
        {
          "internalType": "contract SLA[]",
          "name": "",
          "type": "address[]"
        }
      ],
      "stateMutability": "view",
      "type": "function"
    },
    {
      "inputs": [
        {
          "internalType": "address",
          "name": "_slaAddress",
          "type": "address"
        }
      ],
      "name": "isRegisteredSLA",
      "outputs": [
        {
          "internalType": "bool",
          "name": "",
          "type": "bool"
        }
      ],
      "stateMutability": "view",
      "type": "function"
    }
  ],
  "bytecode": "0x60a06040523480156200001157600080fd5b5060405162006235380380620062358339810160408190526200003491620001b4565b600080546001600160a01b0319166001600160a01b03878116919091178083556040805163f388158960e01b81529051919092169263f3881589926004808201939182900301818387803b1580156200008c57600080fd5b505af1158015620000a1573d6000803e3d6000fd5b5050600180546001600160a01b038089166001600160a01b03199283161790925560038054878416921691909117908190556040805163f388158960e01b8152905191909216935063f38815899250600480830192600092919082900301818387803b1580156200011157600080fd5b505af115801562000126573d6000803e3d6000fd5b5050600280546001600160a01b0319166001600160a01b0387811691909117918290556040805163f388158960e01b8152905192909116935063f3881589925060048082019260009290919082900301818387803b1580156200018857600080fd5b505af11580156200019d573d6000803e3d6000fd5b50505050151560f81b608052506200024f92505050565b600080600080600060a08688031215620001cc578081fd5b8551620001d98162000236565b6020870151909550620001ec8162000236565b6040870151909450620001ff8162000236565b6060870151909350620002128162000236565b6080870151909250801515811462000228578182fd5b809150509295509295909350565b6001600160a01b03811681146200024c57600080fd5b50565b60805160f81c615fc3620002726000398061042852806114705250615fc36000f3fe60806040523480156200001157600080fd5b5060043610620000d05760003560e01c806368304835116200008757806368304835146200016e578063788164b114620001785780638d2113ed146200018f57806396bddc1014620001a65780639fc4caa514620001b0578063a9e43e7f14620001ba578063c4277a7b14620001d357620000d0565b80630d0f4db714620000d55780632575d7ca14620000ee57806350c5abfe1462000105578063516c285714620001345780635a7d1e5d146200015a5780635c4df3321462000164575b600080fd5b620000ec620000e6366004620017e6565b620001ea565b005b620000ec620000ff36600462001679565b620007c3565b6200011c620001163660046200176e565b62000c05565b6040516200012b919062001993565b60405180910390f35b6200014b6200014536600462001679565b62000c2d565b6040516200012b919062001af7565b6200011c62000d80565b6200011c62000d8f565b6200011c62000d9e565b620000ec62000189366004620017a0565b62000dad565b620000ec620001a0366004620016be565b62001338565b6200014b620013fb565b6200011c6200145f565b620001c46200146e565b6040516200012b919062001b46565b620001c4620001e436600462001679565b62001492565b600154604051636efe27ef60e11b81526000916001600160a01b03169063ddfc4fde906200021f908a908a9060040162001b66565b60206040518083038186803b1580156200023857600080fd5b505afa1580156200024d573d6000803e3d6000fd5b505050506040513d601f19601f8201168201806040525081019062000273919062001711565b9050806200029e5760405162461bcd60e51b8152600401620002959062001c9b565b60405180910390fd5b600154604051636efe27ef60e11b81526001600160a01b039091169063ddfc4fde90620002d2908a90899060040162001b66565b60206040518083038186803b158015620002eb57600080fd5b505afa15801562000300573d6000803e3d6000fd5b505050506040513d601f19601f8201168201806040525081019062000326919062001711565b905080620003485760405162461bcd60e51b8152600401620002959062001c3b565b6001546040516347ef60ed60e11b81526000916001600160a01b031690638fdec1da906200037b908b9060040162001b51565b60206040518083038186803b1580156200039457600080fd5b505afa158015620003a9573d6000803e3d6000fd5b505050506040513d601f19601f82011682018060405250810190620003cf919062001711565b905080620003f15760405162461bcd60e51b8152600401620002959062001bbb565b866001600160801b0316866001600160801b03161015620004265760405162461bcd60e51b8152600401620002959062001bf2565b7f000000000000000000000000000000000000000000000000000000000000000015620004fb57600154604051631e8760ef60e21b81526000916001600160a01b031690637a1d83bc9062000482908c908c9060040162001b66565b60206040518083038186803b1580156200049b57600080fd5b505afa158015620004b0573d6000803e3d6000fd5b505050506040513d601f19601f82011682018060405250810190620004d6919062001711565b90508015620004f95760405162461bcd60e51b8152600401620002959062001d1d565b505b60025460405163ef4003db60e01b81526000916001600160a01b03169063ef4003db906200052e908d9060040162001993565b60206040518083038186803b1580156200054757600080fd5b505afa1580156200055c573d6000803e3d6000fd5b505050506040513d601f19601f8201168201806040525081019062000582919062001711565b9050600181151514620005a95760405162461bcd60e51b8152600401620002959062001d77565b6000338c8b8d8c8c6004805490508d8d8d604051620005c8906200152c565b620005dd9a9998979695949392919062001a0a565b604051809103906000f080158015620005fa573d6000803e3d6000fd5b5090506000809054906101000a90046001600160a01b03166001600160a01b0316630c7ad72b8f8f846040518463ffffffff1660e01b8152600401620006439392919062001ea6565b600060405180830381600087803b1580156200065e57600080fd5b505af115801562000673573d6000803e3d6000fd5b5050600354604051633d7da60560e11b81526001600160a01b039091169250637afb4c0a9150620006b290339085908e8e0360010190600401620019de565b600060405180830381600087803b158015620006cd57600080fd5b505af1158015620006e2573d6000803e3d6000fd5b505060048054600180820183557f8a35acfbc15ff81a39ae7d344fd709f28e8600b4aa8c65c6b64bfe7fe36bd19b90910180546001600160a01b0319166001600160a01b0387169081179091556000908152600660205260408120805460ff1916831790559154919350620007589250620014b0565b33600081815260056020908152604080832080546001810182559084529183209091018490555192935090916001600160a01b038516917fb52f284a6c14f1a66ab5513b5b539066933e58e69e6432666f0e3c8c8a7d750391a3505050505050505050505050505050565b620007ce8162001492565b620007ed5760405162461bcd60e51b8152600401620002959062001cf8565b806001600160a01b0316638da5cb5b6040518163ffffffff1660e01b815260040160206040518083038186803b1580156200082757600080fd5b505afa1580156200083c573d6000803e3d6000fd5b505050506040513d601f19601f820116820180604052508101906200086291906200169f565b6001600160a01b0316336001600160a01b031614620008955760405162461bcd60e51b8152600401620002959062001d49565b6000816001600160a01b0316633385d3346040518163ffffffff1660e01b815260040160206040518083038186803b158015620008d157600080fd5b505afa158015620008e6573d6000803e3d6000fd5b505050506040513d601f19601f820116820180604052508101906200090c91906200174f565b6001600160801b031690506000826001600160a01b03166346e0fbae6040518163ffffffff1660e01b815260040160206040518083038186803b1580156200095357600080fd5b505afa15801562000968573d6000803e3d6000fd5b505050506040513d601f19601f820116820180604052508101906200098e919062001730565b60015460405160016259edcb60e01b031981529192506000916001600160a01b039091169063ffa6123590620009cb908590879060040162001b8d565b604080518083038186803b158015620009e357600080fd5b505afa158015620009f8573d6000803e3d6000fd5b505050506040513d601f19601f8201168201806040525081019062000a1e9190620018e2565b9150506000846001600160a01b0316634190edde856040518263ffffffff1660e01b815260040162000a51919062001e76565b60606040518083038186803b15801562000a6a57600080fd5b505afa15801562000a7f573d6000803e3d6000fd5b505050506040513d601f19601f8201168201806040525081019062000aa5919062001906565b92505050846001600160a01b0316637fd788aa6040518163ffffffff1660e01b815260040160206040518083038186803b15801562000ae357600080fd5b505afa15801562000af8573d6000803e3d6000fd5b505050506040513d601f19601f8201168201806040525081019062000b1e919062001711565b8062000b43575081421015801562000b435750600081600281111562000b4057fe5b14155b62000b625760405162461bcd60e51b8152600401620002959062001da9565b60405133906001600160a01b038716907f892dba94a39dc15a34a9767dc9a0e553ace780857b076507becf599634bfbb6790600090a36003546040516312baebe560e11b81526001600160a01b0390911690632575d7ca9062000bca90889060040162001993565b600060405180830381600087803b15801562000be557600080fd5b505af115801562000bfa573d6000803e3d6000fd5b505050505050505050565b6004818154811062000c1357fe5b6000918252602090912001546001600160a01b0316905081565b6001600160a01b03811660009081526005602052604090205460609081816001600160401b038111801562000c6157600080fd5b5060405190808252806020026020018201604052801562000c8c578160200160208202803683370190505b506001600160a01b0385166000908152600560209081526040918290208054835181840281018401909452808452939450606093909183018282801562000cf357602002820191906000526020600020905b81548152602001906001019080831162000cde575b50939450600093505050505b8381101562000d7657600482828151811062000d1757fe5b60200260200101518154811062000d2a57fe5b9060005260206000200160009054906101000a90046001600160a01b031683828151811062000d5557fe5b6001600160a01b039092166020928302919091019091015260010162000cff565b5090949350505050565b6000546001600160a01b031681565b6002546001600160a01b031681565b6003546001600160a01b031681565b62000db88262001492565b62000dd75760405162461bcd60e51b8152600401620002959062001cf8565b816001600160a01b031663b1659bad6040518163ffffffff1660e01b815260040160206040518083038186803b15801562000e1157600080fd5b505afa15801562000e26573d6000803e3d6000fd5b505050506040513d601f19601f8201168201806040525081019062000e4c919062001787565b831462000e6d5760405162461bcd60e51b8152600401620002959062001cce565b6040516320c876ef60e11b81526000906001600160a01b03841690634190edde9062000e9e90879060040162001e76565b60606040518083038186803b15801562000eb757600080fd5b505afa15801562000ecc573d6000803e3d6000fd5b505050506040513d601f19601f8201168201806040525081019062000ef2919062001906565b92506000915062000f009050565b81600281111562000f0d57fe5b1462000f2d5760405162461bcd60e51b8152600401620002959062001df4565b6000836001600160a01b0316637fd788aa6040518163ffffffff1660e01b815260040160206040518083038186803b15801562000f6957600080fd5b505afa15801562000f7e573d6000803e3d6000fd5b505050506040513d601f19601f8201168201806040525081019062000fa4919062001711565b9050801562000fc75760405162461bcd60e51b8152600401620002959062001e4b565b60405163021eef7f60e01b81526000906001600160a01b0386169063021eef7f9062000ff890899060040162001e76565b60206040518083038186803b1580156200101157600080fd5b505afa15801562001026573d6000803e3d6000fd5b505050506040513d601f19601f820116820180604052508101906200104c919062001711565b9050806200106e5760405162461bcd60e51b8152600401620002959062001e20565b6000856001600160a01b03166346e0fbae6040518163ffffffff1660e01b815260040160206040518083038186803b158015620010aa57600080fd5b505afa158015620010bf573d6000803e3d6000fd5b505050506040513d601f19601f82011682018060405250810190620010e5919062001730565b6001546040516331edb3ad60e21b81529192506000916001600160a01b039091169063c7b6ceb4906200111f9085908c9060040162001b8d565b60206040518083038186803b1580156200113857600080fd5b505afa1580156200114d573d6000803e3d6000fd5b505050506040513d601f19601f8201168201806040525081019062001173919062001711565b905080620011955760405162461bcd60e51b8152600401620002959062001c6e565b6000876001600160a01b031663a224ee9c6040518163ffffffff1660e01b815260040160206040518083038186803b158015620011d157600080fd5b505afa158015620011e6573d6000803e3d6000fd5b505050506040513d601f19601f820116820180604052508101906200120c91906200169f565b9050336001600160a01b0316886001600160a01b03167fa204d52d2c80fbd794029bca489fb7b1c4dd5f7d5967806277f579cc683431468b60405162001253919062001e76565b60405180910390a3604051634bd410c960e11b81526001600160a01b038216906397a82192906200128f908c908c908c90339060040162001e7f565b600060405180830381600087803b158015620012aa57600080fd5b505af1158015620012bf573d6000803e3d6000fd5b50506003546040516308bcf0cf60e21b81526001600160a01b0390911692506322f3c33c9150620012f9908b9033908e9060040162001ad3565b600060405180830381600087803b1580156200131457600080fd5b505af115801562001329573d6000803e3d6000fd5b50505050505050505050505050565b816001600160a01b031663f38815896040518163ffffffff1660e01b8152600401600060405180830381600087803b1580156200137457600080fd5b505af115801562001389573d6000803e3d6000fd5b505060025460405163eabb8a7360e01b81526001600160a01b03909116925063eabb8a739150620013c390339086908690600401620019a7565b600060405180830381600087803b158015620013de57600080fd5b505af1158015620013f3573d6000803e3d6000fd5b505050505050565b606060048054806020026020016040519081016040528092919081815260200182805480156200145557602002820191906000526020600020905b81546001600160a01b0316815260019091019060200180831162001436575b5050505050905090565b6001546001600160a01b031681565b7f000000000000000000000000000000000000000000000000000000000000000081565b6001600160a01b031660009081526006602052604090205460ff1690565b6000620014f483836040518060400160405280601e81526020017f536166654d6174683a207375627472616374696f6e206f766572666c6f770000815250620014fd565b90505b92915050565b60008184841115620015245760405162461bcd60e51b815260040162000295919062001ba6565b505050900390565b6140388062001f5683390190565b8035620014f78162001f0c565b600082601f83011262001558578081fd5b81356001600160401b038111156200156e578182fd5b60208082026200158082820162001ed7565b838152935081840185830182870184018810156200159d57600080fd5b600092505b84831015620015c2578035825260019290920191908301908301620015a2565b505050505092915050565b8035620014f78162001f22565b8035620014f78162001f31565b600082601f830112620015f8578081fd5b81356001600160401b038111156200160e578182fd5b62001623601f8201601f191660200162001ed7565b91508082528360208285010111156200163b57600080fd5b8060208401602084013760009082016020015292915050565b8035620014f78162001f3f565b80356001600160401b0381168114620014f757600080fd5b6000602082840312156200168b578081fd5b8135620016988162001f0c565b9392505050565b600060208284031215620016b1578081fd5b8151620016988162001f0c565b60008060408385031215620016d1578081fd5b8235620016de8162001f0c565b915060208301356001600160401b03811115620016f9578182fd5b6200170785828601620015e7565b9150509250929050565b60006020828403121562001723578081fd5b8151620016988162001f22565b60006020828403121562001742578081fd5b8151620016988162001f31565b60006020828403121562001761578081fd5b8151620016988162001f3f565b60006020828403121562001780578081fd5b5035919050565b60006020828403121562001799578081fd5b5051919050565b600080600060608486031215620017b5578081fd5b833592506020840135620017c98162001f0c565b91506040840135620017db8162001f22565b809150509250925092565b6000806000806000806000806000806101408b8d03121562001806578586fd5b8a359950620018198c60208d01620015da565b98506200182a8c60408d01620015cd565b97506200183b8c60608d016200153a565b96506200184c8c60808d01620015da565b95506200185d8c60a08d0162001654565b94506200186e8c60c08d0162001654565b935060e08b01356001600160401b03808211156200188a578485fd5b620018988e838f01620015e7565b94506101008d0135915080821115620018af578384fd5b50620018be8d828e0162001547565b925050620018d18c6101208d0162001661565b90509295989b9194979a5092959850565b60008060408385031215620018f5578182fd5b505080516020909101519092909150565b6000806000606084860312156200191b578081fd5b8351925060208401519150604084015160038110620017db578182fd5b60008151808452815b818110156200195f5760208185018101518683018201520162001941565b81811115620019715782602083870101525b50601f01601f19169290920160200192915050565b6001600160401b03169052565b6001600160a01b0391909116815260200190565b6001600160a01b03848116825283166020820152606060408201819052600090620019d59083018462001938565b95945050505050565b6001600160a01b0393841681529190921660208201526001600160801b03909116604082015260600190565b600061014060018060a01b03808e16845260208d15158186015262001a2f8d62001efe565b604085018d9052908b1660608501526001600160801b038a8116608086015289811660a086015288811660c086015260e085018390529062001a748386018962001938565b858103610100870152875180825290820193508188019250845b8181101562001aac5783518552938201939282019260010162001a8e565b505050508091505062001ac461012083018462001986565b9b9a5050505050505050505050565b6001600160a01b039384168152919092166020820152604081019190915260600190565b6020808252825182820181905260009190848201906040850190845b8181101562001b3a5783516001600160a01b03168352928401929184019160010162001b13565b50909695505050505050565b901515815260200190565b6020810162001b608362001efe565b91905290565b6040810162001b758462001efe565b9281526001600160801b039190911660209091015290565b6040810162001b9c8462001efe565b9281526020015290565b600060208252620014f4602083018462001938565b6020808252601f908201527f506572696f642074797065206e6f7420696e697469616c697a65642079657400604082015260600190565b60208082526029908201527f696e76616c69642066696e616c506572696f64496420616e6420696e697469616040820152681b14195c9a5bd9125960ba1b606082015260800190565b602080825260199082015278119a5b985b081c195c9a5bd9081a59081b9bdd081d985b1a59603a1b604082015260600190565b6020808252601390820152721c195c9a5bd9081b9bdd08199a5b9a5cda1959606a1b604082015260600190565b602080825260199082015278119a5c9cdd081c195c9a5bd9081a59081b9bdd081d985b1a59603a1b604082015260600190565b60208082526010908201526f1a5b9d985b1a59081c195c9a5bd9125960821b604082015260600190565b6020808252600b908201526a696e76616c696420534c4160a81b604082015260600190565b60208082526012908201527114195c9a5bd9081a185cc81cdd185c9d195960721b604082015260600190565b60208082526014908201527336b9b39739b2b73232b9103737ba1037bbb732b960611b604082015260600190565b6020808252601890820152771b595cdcd95b99d95c881b9bdd081c9959da5cdd195c995960421b604082015260600190565b6020808252602b908201527f53686f756c64206f6e6c7920776974686472617720666f722066696e6973686560408201526a6420636f6e74726163747360a81b606082015260800190565b602080825260129082015271696e76616c696420534c412073746174757360701b604082015260600190565b6020808252601190820152701a5b9d985b1a59081c195c9a5bd9081259607a1b604082015260600190565b602080825260119082015270189c995858da19590818dbdb9d1c9858dd607a1b604082015260600190565b90815260200190565b9384526001600160a01b039283166020850152901515604084015216606082015260800190565b8381526060810162001eb88462001efe565b60208201939093526001600160a01b0391909116604090910152919050565b6040518181016001600160401b038111828210171562001ef657600080fd5b604052919050565b6006811062001f0957fe5b50565b6001600160a01b038116811462001f0957600080fd5b801515811462001f0957600080fd5b6006811062001f0957600080fd5b6001600160801b038116811462001f0957600080fdfe610240604052600d805460ff191690553480156200001c57600080fd5b5060405162004038380380620040388339810160408190526200003f91620008cf565b33888a86848e60006200005a6001600160e01b036200059616565b600080546001600160a01b0319166001600160a01b03831690811782556040519293509160008051602062004018833981519152908290a350856001600160a01b031663683048356040518163ffffffff1660e01b815260040160206040518083038186803b158015620000cd57600080fd5b505afa158015620000e2573d6000803e3d6000fd5b505050506040513d601f19601f82011682018060405250810190620001089190620008a9565b600160006101000a8154816001600160a01b0302191690836001600160a01b03160217905550856001600160a01b0316639fc4caa56040518163ffffffff1660e01b815260040160206040518083038186803b1580156200016857600080fd5b505afa1580156200017d573d6000803e3d6000fd5b505050506040513d601f19601f82011682018060405250810190620001a39190620008a9565b60601b6001600160601b031916608052846005811115620001c057fe5b610100816005811115620001d057fe5b60f890811b909152851515901b610120525060015460408051637b8041cf60e11b8152905160009283926001600160a01b039091169163f700839e9160048082019261010092909190829003018186803b1580156200022e57600080fd5b505afa15801562000243573d6000803e3d6000fd5b505050506040513d601f19601f82011682018060405250810190620002699190620009d6565b97505050505050509150600160009054906101000a90046001600160a01b03166001600160a01b0316638b8e53096040518163ffffffff1660e01b815260040160206040518083038186803b158015620002c257600080fd5b505afa158015620002d7573d6000803e3d6000fd5b505050506040513d601f19601f82011682018060405250810190620002fd9190620008a9565b60601b6001600160601b03191660c05260e08290526001600160a01b03831660009081526009602052604090208054600160ff19909116179055608085901b6001600160801b03191660a0526001600160401b03818116908516118015906200037057506001846001600160401b031610155b620003985760405162461bcd60e51b81526004016200038f9062000a85565b60405180910390fd5b50505060c01b6001600160c01b0319166101405250620003bd92508c9150506200059b565b8251620003d290600a90602086019062000651565b506001600160601b0319606088901b1661016052600b80546001600160a01b03191633179081905560408051639fc4caa560e01b815290516001600160a01b039290921691639fc4caa591600480820192602092909190829003018186803b1580156200043e57600080fd5b505afa15801562000453573d6000803e3d6000fd5b505050506040513d601f19601f82011682018060405250810190620004799190620008a9565b60601b6001600160601b03191661018052600b5460408051635a7d1e5d60e01b815290516001600160a01b0390921691635a7d1e5d91600480820192602092909190829003018186803b158015620004d057600080fd5b505afa158015620004e5573d6000803e3d6000fd5b505050506040513d601f19601f820116820180604052508101906200050b9190620008a9565b60601b6001600160601b0319166101a052436101c052608086811b6001600160801b03199081166101e0529086901b16610200528760058111156200054c57fe5b6102208160058111156200055c57fe5b60f81b90525081516200057790600c906020850190620006d6565b5050506001600160801b03909316600e555062000b2695505050505050565b335b90565b620005ae6001600160e01b036200059616565b6000546001600160a01b03908116911614620005de5760405162461bcd60e51b81526004016200038f9062000ab1565b6001600160a01b038116620006075760405162461bcd60e51b81526004016200038f9062000a3f565b600080546040516001600160a01b03808516939216916000805160206200401883398151915291a3600080546001600160a01b0319166001600160a01b0392909216919091179055565b828054600181600116156101000203166002900490600052602060002090601f016020900481019282601f106200069457805160ff1916838001178555620006c4565b82800160010185558215620006c4579182015b82811115620006c4578251825591602001919060010190620006a7565b50620006d292915062000713565b5090565b828054828255906000526020600020908101928215620006c45791602002820182811115620006c4578251825591602001919060010190620006a7565b6200059891905b80821115620006d257600081556001016200071a565b80516200073d8162000b0d565b92915050565b600082601f83011262000754578081fd5b81516001600160401b038111156200076a578182fd5b60208082026200077c82820162000ae6565b838152935081840185830182870184018810156200079957600080fd5b600092505b84831015620007be5780518252600192909201919083019083016200079e565b505050505092915050565b805180151581146200073d57600080fd5b8051600681106200073d57600080fd5b600082601f830112620007fb578081fd5b81516001600160401b0381111562000811578182fd5b602062000827601f8301601f1916820162000ae6565b925081835284818386010111156200083e57600080fd5b60005b828110156200085e57848101820151848201830152810162000841565b82811115620008705760008284860101525b50505092915050565b80516001600160801b03811681146200073d57600080fd5b80516001600160401b03811681146200073d57600080fd5b600060208284031215620008bb578081fd5b8151620008c88162000b0d565b9392505050565b6000806000806000806000806000806101408b8d031215620008ef578586fd5b620008fb8c8c62000730565b99506200090c8c60208d01620007c9565b98506200091d8c60408d01620007da565b97506200092e8c60608d0162000730565b96506200093f8c60808d0162000879565b9550620009508c60a08d0162000879565b9450620009618c60c08d0162000879565b60e08c01519094506001600160401b03808211156200097e578485fd5b6200098c8e838f01620007ea565b94506101008d0151915080821115620009a3578384fd5b50620009b28d828e0162000743565b925050620009c58c6101208d0162000891565b90509295989b9194979a5092959850565b600080600080600080600080610100898b031215620009f3578384fd5b885197506020890151965060408901519550606089015194506080890151935060a0890151925060c0890151915062000a308a60e08b0162000891565b90509295985092959890939650565b60208082526026908201527f4f776e61626c653a206e6577206f776e657220697320746865207a65726f206160408201526564647265737360d01b606082015260800190565b602080825260129082015271496e636f7272656374206c6576657261676560701b604082015260600190565b6020808252818101527f4f776e61626c653a2063616c6c6572206973206e6f7420746865206f776e6572604082015260600190565b6040518181016001600160401b038111828210171562000b0557600080fd5b604052919050565b6001600160a01b038116811462000b2357600080fd5b50565b60805160601c60a05160801c60c05160601c60e0516101005160f81c6101205160f81c6101405160c01c6101605160601c6101805160601c6101a05160601c6101c0516101e05160801c6102005160801c6102205160f81c6133ee62000c2a60003980610d9752806112e15250806105345280610d4f528061130252806113b052806118855250806104fb5280610c3e528061181a5280611864525080610c1a52508061168f528061172e5250806112b252508061141f52806115e2525080610d2b5280611b0b528061220852806125b7528061268f525080610bf65280611a42525050806110b95250806119e4525080610940528061190a5250506133ee6000f3fe608060405234801561001057600080fd5b50600436106102485760003560e01c806378025ec41161013b578063b7bc347e116100b8578063db69a4621161007c578063db69a462146104b9578063f2db10fe146104c1578063f2fde38b146104c9578063f7e9dfff146104dc578063fd5e6dd1146104e457610248565b8063b7bc347e14610463578063c623674f1461046b578063c8b5c24814610480578063cbe230c314610493578063d7a5c422146104a657610248565b80639b19251a116100ff5780639b19251a146104255780639fabeb0014610438578063a224ee9c14610440578063a7e8d8d414610448578063b1659bad1461045b57610248565b806378025ec4146103e75780637fd788aa146103fa5780638d21c770146104025780638da5cb5b1461041557806396f76f111461041d57610248565b806346e0fbae116101c95780635ae698ff1161018d5780635ae698ff1461039e5780635c1c20de146103b15780635e5f2e26146103b9578063639b6fc3146103cc578063715018a6146103df57610248565b806346e0fbae14610322578063484fbf2b146103375780634e0c91f61461034a5780634fb2647e1461036a57806357ac94f01461037d57610248565b80632526743a116102105780632526743a146102bb57806326db18ac146102d05780632c86d98e146102e35780633385d334146102f85780634190edde1461030057610248565b8063021eef7f1461024d5780630bea440d14610276578063171e44ea1461028b57806318e454271461029e5780631bf30929146102a6575b600080fd5b61026061025b366004612b36565b6104f7565b60405161026d9190612dc5565b60405180910390f35b610289610284366004612b66565b610574565b005b61028961029936600461291e565b610726565b610260610bf4565b6102ae610c18565b60405161026d9190612dd0565b6102c3610c3c565b60405161026d919061328b565b6102896102de366004612b66565b610c60565b6102eb610d29565b60405161026d9190613311565b6102c3610d4d565b61031361030e366004612b36565b610d71565b60405161026d939291906132b6565b61032a610d95565b60405161026d9190612dd9565b6102ae61034536600461291e565b610db9565b61035d61035836600461291e565b610dcb565b60405161026d9190612d74565b61035d61037836600461291e565b610de6565b61039061038b366004612956565b610e01565b60405161026d929190612d88565b6102896103ac3660046129ec565b610fdd565b6102ae6110b7565b61035d6103c7366004612b36565b6110db565b6102ae6103da36600461291e565b611102565b610289611114565b6102ae6103f5366004612b36565b611193565b6102606111b1565b610289610410366004612981565b6111ba565b61035d61129e565b6102606112ad565b61026061043336600461291e565b611402565b6102ae611417565b61035d61141d565b61026061045636600461291e565b611441565b6102ae611456565b6102ae61145c565b610473611462565b60405161026d9190612e11565b61028961048e366004612b66565b6114f0565b6102606104a136600461291e565b61157c565b6102896104b4366004612bbc565b6115d7565b61035d6118f9565b6102c3611908565b6102896104d736600461291e565b61192c565b61035d6119e2565b61035d6104f2366004612b36565b611a06565b60007f00000000000000000000000000000000000000000000000000000000000000006001600160801b03168210156105325750600061056f565b7f00000000000000000000000000000000000000000000000000000000000000006001600160801b031682111561056b5750600061056f565b5060015b919050565b816000811161059e5760405162461bcd60e51b815260040161059590613215565b60405180910390fd5b60006105a86112ad565b905080156105c85760405162461bcd60e51b815260040161059590613034565b6105d28484611a13565b336001600160a01b0316600e54846001600160a01b03167f1bd1eb6b4fd3f08e718d7a241c54c4641c9f36004b6949383f48d15a2fcc8f52876040516106189190612dd0565b60405180910390a4600b5460408051636830483560e01b815290516000926001600160a01b0316916368304835916004808301926020929190829003018186803b15801561066557600080fd5b505afa158015610679573d6000803e3d6000fd5b505050506040513d601f19601f8201168201806040525081019061069d919061293a565b604051635948284760e11b81529091506001600160a01b0382169063b290508e906106cc903390600401612d74565b602060405180830381600087803b1580156106e657600080fd5b505af11580156106fa573d6000803e3d6000fd5b505050506040513d601f19601f8201168201806040525081019061071e9190612a8b565b505050505050565b61072e611f75565b6000546001600160a01b0390811691161461075b5760405162461bcd60e51b815260040161059590613119565b60015460408051637b8041cf60e11b815290516000926001600160a01b03169163f700839e91600480830192610100929190829003018186803b1580156107a157600080fd5b505afa1580156107b5573d6000803e3d6000fd5b505050506040513d601f19601f820116820180604052508101906107d99190612c00565b5096505050505050506107eb8261157c565b156108085760405162461bcd60e51b815260040161059590613185565b60015460405163cbe230c360e01b81526001600160a01b039091169063cbe230c390610838908590600401612d74565b60206040518083038186803b15801561085057600080fd5b505afa158015610864573d6000803e3d6000fd5b505050506040513d601f19601f820116820180604052508101906108889190612a8b565b6108a45760405162461bcd60e51b815260040161059590612f79565b6008805460018101825560008290527ff3f7a9fe364faab93b216da50a3214154f22a0a2b415b23a84c8169e8b636ee30180546001600160a01b0319166001600160a01b0385161790555481101561090e5760405162461bcd60e51b815260040161059590612ea9565b60405163fc966d4560e01b815260609073__StringUtils___________________________9063fc966d4590610968907f00000000000000000000000000000000000000000000000000000000000000009060040161328b565b60006040518083038186803b15801561098057600080fd5b505af4158015610994573d6000803e3d6000fd5b505050506040513d6000823e601f3d908101601f191682016040526109bc9190810190612aab565b90506060816040516020016109d19190612cbc565b60405160208183030381529060405290506060826040516020016109f59190612cef565b6040516020818303038152906040529050606083604051602001610a199190612d1f565b6040516020818303038152906040529050606084604051602001610a3d9190612d51565b60408051601f1981840301815290829052600154633350214760e11b83529092506000916001600160a01b03909116906366a0428e90610a839088908890600401612e24565b602060405180830381600087803b158015610a9d57600080fd5b505af1158015610ab1573d6000803e3d6000fd5b505050506040513d601f19601f82011682018060405250810190610ad5919061293a565b600154604051633350214760e11b81529192506000916001600160a01b03909116906366a0428e90610b0d9087908790600401612e24565b602060405180830381600087803b158015610b2757600080fd5b505af1158015610b3b573d6000803e3d6000fd5b505050506040513d601f19601f82011682018060405250810190610b5f919061293a565b6001600160a01b03808b16600081815260056020908152604080832080548688166001600160a01b0319918216811790925560049093529281902080549589169590921685179091555193945091927fce8c390dc55dbcd418078f1391fbb7d471c01c228fc4464926095354cb27c02990610be190899081908d908190612e52565b60405180910390a4505050505050505050565b7f000000000000000000000000000000000000000000000000000000000000000081565b7f000000000000000000000000000000000000000000000000000000000000000081565b7f000000000000000000000000000000000000000000000000000000000000000081565b8160008111610c815760405162461bcd60e51b815260040161059590613215565b610c8961129e565b6001600160a01b0316336001600160a01b031614610ccc576000610cab6112ad565b905080610cca5760405162461bcd60e51b81526004016105959061314e565b505b336001600160a01b0316600e54836001600160a01b03167f5d73c1b3aab5bae46e08e09668d192166389623bef76bbe8cdae8df8ad320fce86604051610d129190612dd0565b60405180910390a4610d248383611f79565b505050565b7f000000000000000000000000000000000000000000000000000000000000000081565b7f000000000000000000000000000000000000000000000000000000000000000081565b600f6020526000908152604090208054600182015460029092015490919060ff1683565b7f000000000000000000000000000000000000000000000000000000000000000081565b60036020526000908152604090205481565b6004602052600090815260409020546001600160a01b031681565b6005602052600090815260409020546001600160a01b031681565b600080600060088481548110610e1357fe5b6000918252602090912001546001600160a01b03169050610e3261129e565b6001600160a01b0316856001600160a01b03161415610e6e576001600160a01b0381166000908152600260205260409020549092509050610fd6565b6001600160a01b0380821660009081526004602081815260408084205481516318160ddd60e01b8152915195169485936318160ddd938382019390929190829003018186803b158015610ec057600080fd5b505afa158015610ed4573d6000803e3d6000fd5b505050506040513d601f19601f82011682018060405250810190610ef89190612b4e565b905080610f0e575090925060009150610fd69050565b6040516370a0823160e01b81526000906001600160a01b038416906370a0823190610f3d908b90600401612d74565b60206040518083038186803b158015610f5557600080fd5b505afa158015610f69573d6000803e3d6000fd5b505050506040513d601f19601f82011682018060405250810190610f8d9190612b4e565b6001600160a01b0385166000908152600360205260409020549091508490610fcd908490610fc1908563ffffffff61212016565b9063ffffffff61216316565b95509550505050505b9250929050565b610fe5611f75565b6000546001600160a01b039081169116146110125760405162461bcd60e51b815260040161059590613119565b60005b81518110156110b3576009600083838151811061102e57fe5b6020908102919091018101516001600160a01b031682528101919091526040016000205460ff166110ab5760016009600084848151811061106b57fe5b60200260200101516001600160a01b03166001600160a01b0316815260200190815260200160002060006101000a81548160ff0219169083151502179055505b600101611015565b5050565b7f000000000000000000000000000000000000000000000000000000000000000081565b600881815481106110e857fe5b6000918252602090912001546001600160a01b0316905081565b60026020526000908152604090205481565b61111c611f75565b6000546001600160a01b039081169116146111495760405162461bcd60e51b815260040161059590613119565b600080546040516001600160a01b03909116907f8be0079c531659141344cd1fd0a4f28419497f9722a3daafe3b4186f6b6457e0908390a3600080546001600160a01b0319169055565b600c81815481106111a057fe5b600091825260209091200154905081565b600d5460ff1690565b6111c2611f75565b6000546001600160a01b039081169116146111ef5760405162461bcd60e51b815260040161059590613119565b60005b81811015610d24576009600084848481811061120a57fe5b905060200201602081019061121f919061291e565b6001600160a01b0316815260208101919091526040016000205460ff161515600114156112965760006009600085858581811061125857fe5b905060200201602081019061126d919061291e565b6001600160a01b031681526020810191909152604001600020805460ff19169115159190911790555b6001016111f2565b6000546001600160a01b031690565b6000807f00000000000000000000000000000000000000000000000000000000000000006001600160a01b031663ffa612357f00000000000000000000000000000000000000000000000000000000000000007f00000000000000000000000000000000000000000000000000000000000000006040518363ffffffff1660e01b815260040161133e929190612dec565b604080518083038186803b15801561135557600080fd5b505afa158015611369573d6000803e3d6000fd5b505050506040513d601f19601f8201168201806040525081019061138d9190612bdd565b600d5490925060ff1615156001149050806113fc57508042101580156113fc57507f00000000000000000000000000000000000000000000000000000000000000006001600160801b03166000908152600f6020526040812060029081015460ff16908111156113f957fe5b14155b91505090565b60096020526000908152604090205460ff1681565b60065490565b7f000000000000000000000000000000000000000000000000000000000000000081565b60076020526000908152604090205460ff1681565b600e5481565b60085490565b600a805460408051602060026001851615610100026000190190941693909304601f810184900484028201840190925281815292918301828280156114e85780601f106114bd576101008083540402835291602001916114e8565b820191906000526020600020905b8154815290600101906020018083116114cb57829003601f168201915b505050505081565b81600081116115115760405162461bcd60e51b815260040161059590613215565b600061151b6112ad565b9050336001600160a01b0316600e54846001600160a01b03167fbd9be3d6449ecbdf4b3b9980b1631ec06c13d8cf9e09e2433075f123b348e3ba876040516115639190612dd0565b60405180910390a46115768484836121a5565b50505050565b6000805b6008548110156115ce57826001600160a01b0316600882815481106115a157fe5b6000918252602090912001546001600160a01b031614156115c657600191505061056f565b600101611580565b50600092915050565b336001600160a01b037f0000000000000000000000000000000000000000000000000000000000000000161461161f5760405162461bcd60e51b815260040161059590612fc6565b7fc95987c1992805ee34bdc915e017cceae36ba1c156b9911fa7e691e6435eb46e428383604051611652939291906132dc565b60405180910390a16001808201600e556000828152600f60205260408082209283018590554283555163a7b72ac560e01b81526001600160a01b037f0000000000000000000000000000000000000000000000000000000000000000169063a7b72ac5906116c4903090600401612d74565b604080518083038186803b1580156116db57600080fd5b505afa1580156116ef573d6000803e3d6000fd5b505050506040513d601f19601f820116820180604052508101906117139190612b95565b50604051631993b9df60e01b81529091506001600160a01b037f00000000000000000000000000000000000000000000000000000000000000001690631993b9df90611765908790309060040161329f565b60206040518083038186803b15801561177d57600080fd5b505afa158015611791573d6000803e3d6000fd5b505050506040513d601f19601f820116820180604052508101906117b59190612a8b565b156118cd576002828101805460ff1916600117905561271090600090611803906117e390610fc189876123df565b610fc1846117f78a8863ffffffff61240416565b9063ffffffff61212016565b905060006118516001611845886001600160801b037f00000000000000000000000000000000000000000000000000000000000000001663ffffffff61240416565b9063ffffffff6123df16565b905060006118b76001600160801b0360017f00000000000000000000000000000000000000000000000000000000000000007f0000000000000000000000000000000000000000000000000000000000000000030116610fc1858563ffffffff61212016565b90506118c4878286612446565b50505050611576565b6002828101805460ff191690911790556118e683612565565b600d805460ff1916600117905550505050565b600b546001600160a01b031681565b7f000000000000000000000000000000000000000000000000000000000000000081565b611934611f75565b6000546001600160a01b039081169116146119615760405162461bcd60e51b815260040161059590613119565b6001600160a01b0381166119875760405162461bcd60e51b815260040161059590612efc565b600080546040516001600160a01b03808516939216917f8be0079c531659141344cd1fd0a4f28419497f9722a3daafe3b4186f6b6457e091a3600080546001600160a01b0319166001600160a01b0392909216919091179055565b7f000000000000000000000000000000000000000000000000000000000000000081565b600681815481106110e857fe5b80611a1d8161157c565b1515600114611a3e5760405162461bcd60e51b8152600401610595906130eb565b60017f000000000000000000000000000000000000000000000000000000000000000015151415611a9d573360009081526009602052604090205460ff161515600114611a9d5760405162461bcd60e51b81526004016105959061300b565b611ab86001600160a01b03831633308663ffffffff6126c916565b611ac061129e565b6001600160a01b0316336001600160a01b031614611d2f576001600160a01b03821660009081526002602090815260408083205460039092529091205481611b3b6001600160401b037f0000000000000000000000000000000000000000000000000000000000000000166117f7848963ffffffff6123df16565b1115611b595760405162461bcd60e51b81526004016105959061307c565b6001600160a01b0380851660009081526004602081815260408084205481516318160ddd60e01b8152915195169485936318160ddd938382019390929190829003018186803b158015611bab57600080fd5b505afa158015611bbf573d6000803e3d6000fd5b505050506040513d601f19601f82011682018060405250810190611be39190612b4e565b905080611c4f576040516340c10f1960e01b81526001600160a01b038316906340c10f1990611c189033908b90600401612d88565b600060405180830381600087803b158015611c3257600080fd5b505af1158015611c46573d6000803e3d6000fd5b50505050611ce3565b6001600160a01b03861660009081526003602052604081205490611c7d82610fc18b8663ffffffff61212016565b6040516340c10f1960e01b81529091506001600160a01b038516906340c10f1990611cae9033908590600401612d88565b600060405180830381600087803b158015611cc857600080fd5b505af1158015611cdc573d6000803e3d6000fd5b5050505050505b6001600160a01b038616600090815260036020526040902054611d0c908863ffffffff6123df16565b6001600160a01b03871660009081526003602052604090205550611efd92505050565b6001600160a01b0380831660009081526005602090815260408083205481516318160ddd60e01b8152915194169384926318160ddd9260048082019391829003018186803b158015611d8057600080fd5b505afa158015611d94573d6000803e3d6000fd5b505050506040513d601f19601f82011682018060405250810190611db89190612b4e565b905080611e24576040516340c10f1960e01b81526001600160a01b038316906340c10f1990611ded9033908990600401612d88565b600060405180830381600087803b158015611e0757600080fd5b505af1158015611e1b573d6000803e3d6000fd5b50505050611eb8565b6001600160a01b03841660009081526002602052604081205490611e5282610fc1898663ffffffff61212016565b6040516340c10f1960e01b81529091506001600160a01b038516906340c10f1990611e839033908590600401612d88565b600060405180830381600087803b158015611e9d57600080fd5b505af1158015611eb1573d6000803e3d6000fd5b5050505050505b6001600160a01b038416600090815260026020526040902054611ee1908663ffffffff6123df16565b6001600160a01b03851660009081526002602052604090205550505b3360009081526007602052604090205460ff16610d2457336000818152600760205260408120805460ff191660019081179091556006805491820181559091527ff652222313e28459528d920b65115c16c04f3efc82aaedc97be59f3f377c0d3f0180546001600160a01b0319169091179055505050565b3390565b80611f838161157c565b1515600114611fa45760405162461bcd60e51b8152600401610595906130eb565b6001600160a01b0380831660009081526004602081815260408084205481516318160ddd60e01b8152915195169485936318160ddd938382019390929190829003018186803b158015611ff657600080fd5b505afa15801561200a573d6000803e3d6000fd5b505050506040513d601f19601f8201168201806040525081019061202e9190612b4e565b6001600160a01b03851660009081526003602052604081205491925061205e82610fc1898663ffffffff61212016565b60405163079cc67960e41b81529091506001600160a01b038516906379cc67909061208f9033908590600401612d88565b600060405180830381600087803b1580156120a957600080fd5b505af11580156120bd573d6000803e3d6000fd5b5050506001600160a01b0387166000908152600360205260409020546120ea91508863ffffffff61240416565b6001600160a01b03871660008181526003602052604090209190915561211790338963ffffffff61272116565b50505050505050565b60008261212f5750600061215d565b8282028284828161213c57fe5b041461215a5760405162461bcd60e51b8152600401610595906130aa565b90505b92915050565b600061215a83836040518060400160405280601a81526020017f536166654d6174683a206469766973696f6e206279207a65726f000000000000815250612740565b816121af8161157c565b15156001146121d05760405162461bcd60e51b8152600401610595906130eb565b6001600160a01b0383166000908152600260209081526040808320546003909252909120548361226157612233816001600160401b037f00000000000000000000000000000000000000000000000000000000000000001663ffffffff61212016565b612243838863ffffffff61240416565b10156122615760405162461bcd60e51b8152600401610595906131b2565b6001600160a01b0380861660009081526005602090815260408083205481516318160ddd60e01b8152915194169384926318160ddd9260048082019391829003018186803b1580156122b257600080fd5b505afa1580156122c6573d6000803e3d6000fd5b505050506040513d601f19601f820116820180604052508101906122ea9190612b4e565b6001600160a01b03881660009081526002602052604081205491925061231a82610fc18c8663ffffffff61212016565b60405163079cc67960e41b81529091506001600160a01b038516906379cc67909061234b9033908590600401612d88565b600060405180830381600087803b15801561236557600080fd5b505af1158015612379573d6000803e3d6000fd5b5050506001600160a01b038a166000908152600260205260409020546123a691508b63ffffffff61240416565b6001600160a01b038a166000818152600260205260409020919091556123d390338c63ffffffff61272116565b50505050505050505050565b60008282018381101561215a5760405162461bcd60e51b815260040161059590612f42565b600061215a83836040518060400160405280601e81526020017f536166654d6174683a207375627472616374696f6e206f766572666c6f770000815250612777565b60005b6008548110156115765760006008828154811061246257fe5b60009182526020808320909101546001600160a01b0316808352600390915260408220549092509061249e85610fc1848963ffffffff61212016565b6001600160a01b0384166000908152600360205260409020549091506124ca908263ffffffff61240416565b6001600160a01b0384166000908152600360209081526040808320939093556002905220546124ff908263ffffffff6123df16565b6001600160a01b0384166000818152600260205260409081902092909255905188907f3173c1c4b679e2da86dbb0382bde749a6e16cd31912c5410e17985cd7d2b905290612552908a908a9087906132dc565b60405180910390a3505050600101612449565b60005b6008548110156110b35760006008828154811061258157fe5b60009182526020808320909101546001600160a01b031680835260039091526040822054909250906125e2826001600160401b037f00000000000000000000000000000000000000000000000000000000000000001663ffffffff61212016565b6001600160a01b03841660009081526002602052604090205490915061260e908263ffffffff61240416565b6001600160a01b038416600090815260026020908152604080832093909355600390522054612643908263ffffffff6123df16565b6001600160a01b0384166000818152600360205260409081902092909255905186907f89385e9d619600da63726158403c0cfd9772b2cac90d3e093387a5456ee1a247906126b69086907f00000000000000000000000000000000000000000000000000000000000000009087906132f2565b60405180910390a3505050600101612568565b611576846323b872dd60e01b8585856040516024016126ea93929190612da1565b60408051601f198184030181529190526020810180516001600160e01b03166001600160e01b0319909316929092179091526127a3565b610d248363a9059cbb60e01b84846040516024016126ea929190612d88565b600081836127615760405162461bcd60e51b81526004016105959190612e11565b50600083858161276d57fe5b0495945050505050565b6000818484111561279b5760405162461bcd60e51b81526004016105959190612e11565b505050900390565b60606127f8826040518060400160405280602081526020017f5361666545524332303a206c6f772d6c6576656c2063616c6c206661696c6564815250856001600160a01b03166128329092919063ffffffff16565b805190915015610d2457808060200190518101906128169190612a8b565b610d245760405162461bcd60e51b815260040161059590613241565b60606128418484600085612849565b949350505050565b60606128548561290d565b6128705760405162461bcd60e51b8152600401610595906131de565b60006060866001600160a01b0316858760405161288d9190612ca0565b60006040518083038185875af1925050503d80600081146128ca576040519150601f19603f3d011682016040523d82523d6000602084013e6128cf565b606091505b509150915081156128e35791506128419050565b8051156128f35780518082602001fd5b8360405162461bcd60e51b81526004016105959190612e11565b3b151590565b803561215d816133a3565b60006020828403121561292f578081fd5b813561215a816133a3565b60006020828403121561294b578081fd5b815161215a816133a3565b60008060408385031215612968578081fd5b8235612973816133a3565b946020939093013593505050565b60008060208385031215612993578182fd5b82356001600160401b03808211156129a9578384fd5b81850186601f8201126129ba578485fd5b80359250818311156129ca578485fd5b86602080850283010111156129dd578485fd5b60200196919550909350505050565b600060208083850312156129fe578182fd5b82356001600160401b03811115612a13578283fd5b80840185601f820112612a24578384fd5b80359150612a39612a348361334b565b613325565b8281528381019082850185850284018601891015612a55578687fd5b8693505b84841015612a7f57612a6b8982612913565b835260019390930192918501918501612a59565b50979650505050505050565b600060208284031215612a9c578081fd5b8151801515811461215a578182fd5b600060208284031215612abc578081fd5b81516001600160401b0380821115612ad2578283fd5b81840185601f820112612ae3578384fd5b8051925081831115612af3578384fd5b612b06601f8401601f1916602001613325565b9150828252856020848301011115612b1c578384fd5b612b2d83602084016020840161336a565b50949350505050565b600060208284031215612b47578081fd5b5035919050565b600060208284031215612b5f578081fd5b5051919050565b60008060408385031215612b78578182fd5b823591506020830135612b8a816133a3565b809150509250929050565b60008060408385031215612ba7578182fd5b82519150602083015160068110612b8a578182fd5b60008060408385031215612bce578182fd5b50508035926020909101359150565b60008060408385031215612bef578182fd5b505080516020909101519092909150565b600080600080600080600080610100898b031215612c1c578384fd5b885197506020890151965060408901519550606089015194506080890151935060a0890151925060c0890151915060e08901516001600160401b0381168114612c63578182fd5b809150509295985092959890939650565b60008151808452612c8c81602086016020860161336a565b601f01601f19169290920160200192915050565b60008251612cb281846020870161336a565b9190910192915050565b60006a44534c412d53484f52542d60a81b82528251612ce281600b85016020870161336a565b91909101600b0192915050565b60006744534c412d53502d60c01b82528251612d1281600885016020870161336a565b9190910160080192915050565b60006944534c412d4c4f4e472d60b01b82528251612d4481600a85016020870161336a565b91909101600a0192915050565b60006744534c412d4c502d60c01b82528251612d1281600885016020870161336a565b6001600160a01b0391909116815260200190565b6001600160a01b03929092168252602082015260400190565b6001600160a01b039384168152919092166020820152604081019190915260600190565b901515815260200190565b90815260200190565b60208101612de683613396565b91905290565b60408101612df984613396565b9281526001600160801b039190911660209091015290565b60006020825261215a6020830184612c74565b600060408252612e376040830185612c74565b8281036020840152612e498185612c74565b95945050505050565b600060808252612e656080830187612c74565b8281036020840152612e778187612c74565b8381036040850152612e898187612c74565b9150508281036060840152612e9e8185612c74565b979650505050505050565b60208082526033908201527f416c6c6f77656420746f6b656e73206c656e67746820677265617465722074686040820152720c2dc40dac2f040e8ded6cadc40d8cadccee8d606b1b606082015260800190565b60208082526026908201527f4f776e61626c653a206e6577206f776e657220697320746865207a65726f206160408201526564647265737360d01b606082015260800190565b6020808252601b908201527f536166654d6174683a206164646974696f6e206f766572666c6f770000000000604082015260600190565b6020808252602d908201527f546f6b656e206e6f7420616c6c6f7765642062792074686520534c415265676960408201526c1cdd1c9e4818dbdb9d1c9858dd609a1b606082015260800190565b60208082526025908201527f4f6e6c79204d657373656e6765722063616e2063616c6c20746869732066756e60408201526431ba34b7b760d91b606082015260800190565b6020808252600f908201526e139bdd081dda1a5d195b1a5cdd1959608a1b604082015260600190565b60208082526028908201527f43616e206f6e6c79207374616b65206f6e206e6f742066696e697368656420636040820152676f6e74726163747360c01b606082015260800190565b602080825260149082015273496e636f72726563742075736572207374616b6560601b604082015260600190565b60208082526021908201527f536166654d6174683a206d756c7469706c69636174696f6e206f766572666c6f6040820152607760f81b606082015260800190565b6020808252601490820152731d1bdad95b881a5cc81b9bdd08185b1b1bddd95960621b604082015260600190565b6020808252818101527f4f776e61626c653a2063616c6c6572206973206e6f7420746865206f776e6572604082015260600190565b6020808252601a908201527f4f6e6c7920666f722066696e697368656420636f6e7472616374000000000000604082015260600190565b602080825260139082015272151bdad95b88185b1c9958591e481859191959606a1b604082015260600190565b602080825260129082015271496e636f727265637420776974686472617760701b604082015260600190565b6020808252601d908201527f416464726573733a2063616c6c20746f206e6f6e2d636f6e7472616374000000604082015260600190565b6020808252601290820152710616d6f756e742063616e6e6f7420626520360741b604082015260600190565b6020808252602a908201527f5361666545524332303a204552433230206f7065726174696f6e20646964206e6040820152691bdd081cdd58d8d9595960b21b606082015260800190565b6001600160801b0391909116815260200190565b9182526001600160a01b0316602082015260400190565b8381526020810183905260608101600383106132ce57fe5b826040830152949350505050565b9283526020830191909152604082015260600190565b9283526001600160401b03919091166020830152604082015260600190565b6001600160401b0391909116815260200190565b6040518181016001600160401b038111828210171561334357600080fd5b604052919050565b60006001600160401b03821115613360578081fd5b5060209081020190565b60005b8381101561338557818101518382015260200161336d565b838111156115765750506000910152565b600681106133a057fe5b50565b6001600160a01b03811681146133a057600080fdfea264697066735822122077e349719208b9166994429897e9e04bc89514069cf422ad97baedbc5176718564736f6c634300060600338be0079c531659141344cd1fd0a4f28419497f9722a3daafe3b4186f6b6457e0a26469706673582212200b0e58e5aae977b2b8985057d2f9a8aba06f2f39e5921772e66886a232cf8dcb64736f6c63430006060033",
  "immutableReferences": {
    "2050": [
      {
        "length": 32,
        "start": 1064
      },
      {
        "length": 32,
        "start": 5232
      }
    ]
  },
  "source": "// SPDX-License-Identifier: MIT\npragma solidity 0.6.6;\npragma experimental ABIEncoderV2;\n\nimport \"@openzeppelin/contracts/math/SafeMath.sol\";\nimport \"./SLA.sol\";\nimport \"./SLORegistry.sol\";\nimport \"./PeriodRegistry.sol\";\nimport \"./MessengerRegistry.sol\";\nimport \"./StakeRegistry.sol\";\nimport \"./messenger/IMessenger.sol\";\n\n/**\n * @title SLARegistry\n * @dev SLARegistry is a contract for handling creation of service level\n * agreements and keeping track of the created agreements\n */\ncontract SLARegistry {\n    using SafeMath for uint256;\n\n    /// @dev SLO registry\n    SLORegistry public sloRegistry;\n    /// @dev Periods registry\n    PeriodRegistry public periodRegistry;\n    /// @dev Messengers registry\n    MessengerRegistry public messengerRegistry;\n    /// @dev Stake registry\n    StakeRegistry public stakeRegistry;\n    /// @dev stores the addresses of created SLAs\n    SLA[] public SLAs;\n    /// @dev stores the indexes of service level agreements owned by an user\n    mapping(address => uint256[]) private userToSLAIndexes;\n    /// @dev to check if registered SLA\n    mapping(address => bool) private registeredSLAs;\n    // value to lock past periods on SLA deployment\n    bool public immutable checkPastPeriod;\n\n    /**\n     * @dev event for service level agreement creation logging\n     * @param sla 1. The address of the created service level agreement contract\n     * @param owner 2. The address of the owner of the service level agreement\n     */\n    event SLACreated(SLA indexed sla, address indexed owner);\n\n    /**\n     * @dev event for service level agreement creation logging\n     * @param periodId 1. -\n     * @param sla 2. -\n     * @param caller 3. -\n     */\n    event SLIRequested(\n        uint256 periodId,\n        address indexed sla,\n        address indexed caller\n    );\n\n    /**\n     * @dev event for service level agreement creation logging\n     * @param sla 1. -\n     * @param caller 2. -\n     */\n    event ReturnLockedValue(address indexed sla, address indexed caller);\n\n    /**\n     * @dev constructor\n     * @param _sloRegistry 1. SLO Registry\n     * @param _periodRegistry 2. Periods registry\n     * @param _messengerRegistry 3. Messenger registry\n     * @param _stakeRegistry 4. Stake registry\n     * @param _checkPastPeriod 5. -\n     */\n    constructor(\n        SLORegistry _sloRegistry,\n        PeriodRegistry _periodRegistry,\n        MessengerRegistry _messengerRegistry,\n        StakeRegistry _stakeRegistry,\n        bool _checkPastPeriod\n    ) public {\n        sloRegistry = _sloRegistry;\n        sloRegistry.setSLARegistry();\n        periodRegistry = _periodRegistry;\n        stakeRegistry = _stakeRegistry;\n        stakeRegistry.setSLARegistry();\n        messengerRegistry = _messengerRegistry;\n        messengerRegistry.setSLARegistry();\n        checkPastPeriod = _checkPastPeriod;\n    }\n\n    /**\n     * @dev public function for creating canonical service level agreements\n     * @param _sloValue 1. -\n     * @param _sloType 2. -\n     * @param _ipfsHash 3. -\n     * @param _periodType 4. -\n     * @param _initialPeriodId 5. -\n     * @param _finalPeriodId 6. -\n     * @param _messengerAddress 7. -\n     * @param _whitelisted 8. -\n     * @param _extraData 9. -\n     * @param _leverage 10. -\n     */\n    function createSLA(\n        uint256 _sloValue,\n        SLORegistry.SLOType _sloType,\n        bool _whitelisted,\n        address _messengerAddress,\n        PeriodRegistry.PeriodType _periodType,\n        uint128 _initialPeriodId,\n        uint128 _finalPeriodId,\n        string memory _ipfsHash,\n        bytes32[] memory _extraData,\n        uint64 _leverage\n    ) public {\n        bool validPeriod =\n            periodRegistry.isValidPeriod(_periodType, _initialPeriodId);\n        require(validPeriod, \"First period id not valid\");\n        validPeriod = periodRegistry.isValidPeriod(_periodType, _finalPeriodId);\n        require(validPeriod, \"Final period id not valid\");\n        bool initializedPeriod =\n            periodRegistry.isInitializedPeriod(_periodType);\n        require(initializedPeriod, \"Period type not initialized yet\");\n        require(\n            _finalPeriodId >= _initialPeriodId,\n            \"invalid finalPeriodId and initialPeriodId\"\n        );\n\n        if (checkPastPeriod) {\n            bool periodHasStarted =\n                periodRegistry.periodHasStarted(_periodType, _initialPeriodId);\n            require(!periodHasStarted, \"Period has started\");\n        }\n        bool registeredMessenger =\n            messengerRegistry.registeredMessengers(_messengerAddress);\n        require(registeredMessenger == true, \"messenger not registered\");\n\n        SLA sla =\n            new SLA(\n                msg.sender,\n                _whitelisted,\n                _periodType,\n                _messengerAddress,\n                _initialPeriodId,\n                _finalPeriodId,\n                uint128(SLAs.length),\n                _ipfsHash,\n                _extraData,\n                _leverage\n            );\n\n        sloRegistry.registerSLO(_sloValue, _sloType, address(sla));\n        stakeRegistry.lockDSLAValue(\n            msg.sender,\n            address(sla),\n            _finalPeriodId - _initialPeriodId + 1\n        );\n        SLAs.push(sla);\n        registeredSLAs[address(sla)] = true;\n        uint256 index = SLAs.length.sub(1);\n        userToSLAIndexes[msg.sender].push(index);\n        emit SLACreated(sla, msg.sender);\n    }\n\n    /**\n     * @dev Gets SLI information for the specified SLA and SLO\n     * @param _periodId 1. id of the period\n     * @param _sla 2. SLA Address\n     * @param _ownerApproval 3. if approval by owner or msg.sender\n     */\n    function requestSLI(\n        uint256 _periodId,\n        SLA _sla,\n        bool _ownerApproval\n    ) public {\n        require(isRegisteredSLA(address(_sla)), \"invalid SLA\");\n        require(_periodId == _sla.nextVerifiablePeriod(), \"invalid periodId\");\n        (, , SLA.Status status) = _sla.periodSLIs(_periodId);\n        require(status == SLA.Status.NotVerified, \"invalid SLA status\");\n        bool breachedContract = _sla.breachedContract();\n        require(!breachedContract, \"breached contract\");\n        bool slaAllowedPeriodId = _sla.isAllowedPeriod(_periodId);\n        require(slaAllowedPeriodId, \"invalid period Id\");\n        PeriodRegistry.PeriodType slaPeriodType = _sla.periodType();\n        bool periodFinished =\n            periodRegistry.periodIsFinished(slaPeriodType, _periodId);\n        require(periodFinished, \"period not finished\");\n        address slaMessenger = _sla.messengerAddress();\n        SLIRequested(_periodId, address(_sla), msg.sender);\n        IMessenger(slaMessenger).requestSLI(\n            _periodId,\n            address(_sla),\n            _ownerApproval,\n            msg.sender\n        );\n        stakeRegistry.distributeVerificationRewards(\n            address(_sla),\n            msg.sender,\n            _periodId\n        );\n    }\n\n    function returnLockedValue(SLA _sla) public {\n        require(isRegisteredSLA(address(_sla)), \"invalid SLA\");\n        require(msg.sender == _sla.owner(), \"msg.sender not owner\");\n        uint256 lastValidPeriodId = _sla.finalPeriodId();\n        PeriodRegistry.PeriodType periodType = _sla.periodType();\n        (, uint256 endOfLastValidPeriod) =\n            periodRegistry.getPeriodStartAndEnd(periodType, lastValidPeriodId);\n\n        (, , SLA.Status lastPeriodStatus) = _sla.periodSLIs(lastValidPeriodId);\n        require(\n            _sla.breachedContract() ||\n                (block.timestamp >= endOfLastValidPeriod &&\n                    lastPeriodStatus != SLA.Status.NotVerified),\n            \"Should only withdraw for finished contracts\"\n        );\n        ReturnLockedValue(address(_sla), msg.sender);\n        stakeRegistry.returnLockedValue(address(_sla));\n    }\n\n    /**\n     * @dev function to declare this SLARegistry contract as SLARegistry of _messengerAddress\n     * @param _messengerAddress 1. address of the messenger\n     */\n\n    function registerMessenger(\n        address _messengerAddress,\n        string memory _specificationUrl\n    ) public {\n        IMessenger(_messengerAddress).setSLARegistry();\n        messengerRegistry.registerMessenger(\n            msg.sender,\n            _messengerAddress,\n            _specificationUrl\n        );\n    }\n\n    /**\n     * @dev public view function that returns the service level agreements that\n     * the given user is the owner of\n     * @param _user Address of the user for which to return the service level\n     * agreements\n     * @return array of SLAs\n     */\n    function userSLAs(address _user) public view returns (SLA[] memory) {\n        uint256 count = userToSLAIndexes[_user].length;\n        SLA[] memory SLAList = new SLA[](count);\n        uint256[] memory userSLAIndexes = userToSLAIndexes[_user];\n\n        for (uint256 i = 0; i < count; i++) {\n            SLAList[i] = (SLAs[userSLAIndexes[i]]);\n        }\n\n        return (SLAList);\n    }\n\n    /**\n     * @dev public view function that returns all the service level agreements\n     * @return SLA[] array of SLAs\n     */\n    function allSLAs() public view returns (SLA[] memory) {\n        return (SLAs);\n    }\n\n    /**\n     * @dev public view function that returns true if _slaAddress was deployed using this SLARegistry\n     * @param _slaAddress address of the SLA to be checked\n     */\n    function isRegisteredSLA(address _slaAddress) public view returns (bool) {\n        return registeredSLAs[_slaAddress];\n    }\n}\n",
  "sourcePath": "/Users/matiasbn/Desktop/stacktical/stacktical-dsla-contracts/contracts/SLARegistry.sol",
  "compiler": {
    "name": "solc",
    "version": "0.6.6+commit.6c089d02.Emscripten.clang"
  },
  "schemaVersion": "3.3.3",
  "updatedAt": "2021-04-13T18:55:59.569Z",
  "devdoc": {
    "details": "SLARegistry is a contract for handling creation of service level agreements and keeping track of the created agreements",
    "methods": {
      "allSLAs()": {
        "details": "public view function that returns all the service level agreements",
        "returns": {
          "_0": "SLA[] array of SLAs"
        }
      },
      "constructor": {
        "details": "constructor",
        "params": {
          "_checkPastPeriod": "5. -",
          "_messengerRegistry": "3. Messenger registry",
          "_periodRegistry": "2. Periods registry",
          "_sloRegistry": "1. SLO Registry",
          "_stakeRegistry": "4. Stake registry"
        }
      },
      "createSLA(uint256,uint8,bool,address,uint8,uint128,uint128,string,bytes32[],uint64)": {
        "details": "public function for creating canonical service level agreements",
        "params": {
          "_extraData": "9. -",
          "_finalPeriodId": "6. -",
          "_initialPeriodId": "5. -",
          "_ipfsHash": "3. -",
          "_leverage": "10. -",
          "_messengerAddress": "7. -",
          "_periodType": "4. -",
          "_sloType": "2. -",
          "_sloValue": "1. -",
          "_whitelisted": "8. -"
        }
      },
      "isRegisteredSLA(address)": {
        "details": "public view function that returns true if _slaAddress was deployed using this SLARegistry",
        "params": {
          "_slaAddress": "address of the SLA to be checked"
        }
      },
      "registerMessenger(address,string)": {
        "details": "function to declare this SLARegistry contract as SLARegistry of _messengerAddress",
        "params": {
          "_messengerAddress": "1. address of the messenger"
        }
      },
      "requestSLI(uint256,address,bool)": {
        "details": "Gets SLI information for the specified SLA and SLO",
        "params": {
          "_ownerApproval": "3. if approval by owner or msg.sender",
          "_periodId": "1. id of the period",
          "_sla": "2. SLA Address"
        }
      },
      "userSLAs(address)": {
        "details": "public view function that returns the service level agreements that the given user is the owner of",
        "params": {
          "_user": "Address of the user for which to return the service level agreements"
        },
        "returns": {
          "_0": "array of SLAs"
        }
      }
    },
    "title": "SLARegistry"
  },
  "userdoc": {
    "methods": {}
  }
}