{
  "contractName": "SLARegistry",
  "abi": [
    {
      "inputs": [
        {
          "internalType": "contract Messenger",
          "name": "_messengerAddress",
          "type": "address"
        },
        {
          "internalType": "uint256[]",
          "name": "_sla_week_period_starts",
          "type": "uint256[]"
        },
        {
          "internalType": "uint256[]",
          "name": "_sla_week_period_ends",
          "type": "uint256[]"
        },
        {
          "internalType": "bytes32[]",
          "name": "_networkNames",
          "type": "bytes32[]"
        }
      ],
      "stateMutability": "nonpayable",
      "type": "constructor"
    },
    {
      "anonymous": false,
      "inputs": [
        {
          "indexed": false,
          "internalType": "bytes32",
          "name": "_ipfsHash",
          "type": "bytes32"
        },
        {
          "indexed": false,
          "internalType": "bytes32",
          "name": "_network",
          "type": "bytes32"
        },
        {
          "indexed": false,
          "internalType": "uint256",
          "name": "_periodId",
          "type": "uint256"
        }
      ],
      "name": "AnalyticsReceived",
      "type": "event"
    },
    {
      "anonymous": false,
      "inputs": [
        {
          "indexed": true,
          "internalType": "contract SLA",
          "name": "sla",
          "type": "address"
        },
        {
          "indexed": true,
          "internalType": "address",
          "name": "owner",
          "type": "address"
        }
      ],
      "name": "SLACreated",
      "type": "event"
    },
    {
      "inputs": [
        {
          "internalType": "uint256",
          "name": "",
          "type": "uint256"
        }
      ],
      "name": "SLAs",
      "outputs": [
        {
          "internalType": "contract SLA",
          "name": "",
          "type": "address"
        }
      ],
      "stateMutability": "view",
      "type": "function",
      "constant": true
    },
    {
      "inputs": [],
      "name": "canonicalPeriodLastID",
      "outputs": [
        {
          "internalType": "uint256",
          "name": "",
          "type": "uint256"
        }
      ],
      "stateMutability": "view",
      "type": "function",
      "constant": true
    },
    {
      "inputs": [
        {
          "internalType": "uint256",
          "name": "",
          "type": "uint256"
        }
      ],
      "name": "canonicalPeriods",
      "outputs": [
        {
          "internalType": "uint256",
          "name": "start",
          "type": "uint256"
        },
        {
          "internalType": "uint256",
          "name": "end",
          "type": "uint256"
        }
      ],
      "stateMutability": "view",
      "type": "function",
      "constant": true
    },
    {
      "inputs": [
        {
          "internalType": "bytes32",
          "name": "",
          "type": "bytes32"
        },
        {
          "internalType": "uint256",
          "name": "",
          "type": "uint256"
        }
      ],
      "name": "canonicalPeriodsAnalytics",
      "outputs": [
        {
          "internalType": "bytes32",
          "name": "",
          "type": "bytes32"
        }
      ],
      "stateMutability": "view",
      "type": "function",
      "constant": true
    },
    {
      "inputs": [],
      "name": "messenger",
      "outputs": [
        {
          "internalType": "contract Messenger",
          "name": "",
          "type": "address"
        }
      ],
      "stateMutability": "view",
      "type": "function",
      "constant": true
    },
    {
      "inputs": [
        {
          "internalType": "uint256",
          "name": "",
          "type": "uint256"
        }
      ],
      "name": "networkNames",
      "outputs": [
        {
          "internalType": "bytes32",
          "name": "",
          "type": "bytes32"
        }
      ],
      "stateMutability": "view",
      "type": "function",
      "constant": true
    },
    {
      "inputs": [
        {
          "internalType": "address",
          "name": "",
          "type": "address"
        }
      ],
      "name": "registeredSLAs",
      "outputs": [
        {
          "internalType": "bool",
          "name": "",
          "type": "bool"
        }
      ],
      "stateMutability": "view",
      "type": "function",
      "constant": true
    },
    {
      "inputs": [
        {
          "internalType": "address",
          "name": "",
          "type": "address"
        },
        {
          "internalType": "uint256",
          "name": "",
          "type": "uint256"
        }
      ],
      "name": "userStakedSlas",
      "outputs": [
        {
          "internalType": "contract SLA",
          "name": "",
          "type": "address"
        }
      ],
      "stateMutability": "view",
      "type": "function",
      "constant": true
    },
    {
      "inputs": [
        {
          "internalType": "bytes32",
          "name": "",
          "type": "bytes32"
        }
      ],
      "name": "validNetworks",
      "outputs": [
        {
          "internalType": "bool",
          "name": "",
          "type": "bool"
        }
      ],
      "stateMutability": "view",
      "type": "function",
      "constant": true
    },
    {
      "inputs": [
        {
          "internalType": "address",
          "name": "_owner",
          "type": "address"
        },
        {
          "internalType": "bytes32[]",
          "name": "_SLONames",
          "type": "bytes32[]"
        },
        {
          "internalType": "contract SLO[]",
          "name": "_SLOs",
          "type": "address[]"
        },
        {
          "internalType": "uint256",
          "name": "_stake",
          "type": "uint256"
        },
        {
          "internalType": "string",
          "name": "_ipfsHash",
          "type": "string"
        },
        {
          "internalType": "address",
          "name": "_baseTokenAddress",
          "type": "address"
        },
        {
          "internalType": "uint256[]",
          "name": "_periodIds",
          "type": "uint256[]"
        }
      ],
      "name": "createSLA",
      "outputs": [],
      "stateMutability": "nonpayable",
      "type": "function"
    },
    {
      "inputs": [
        {
          "internalType": "uint256",
          "name": "_periodId",
          "type": "uint256"
        },
        {
          "internalType": "contract SLA",
          "name": "_sla",
          "type": "address"
        },
        {
          "internalType": "bytes32",
          "name": "_sloName",
          "type": "bytes32"
        }
      ],
      "name": "requestSLI",
      "outputs": [],
      "stateMutability": "nonpayable",
      "type": "function"
    },
    {
      "inputs": [
        {
          "internalType": "uint256",
          "name": "_canonicalPeriodId",
          "type": "uint256"
        },
        {
          "internalType": "bytes32",
          "name": "_network",
          "type": "bytes32"
        }
      ],
      "name": "requestAnalytics",
      "outputs": [],
      "stateMutability": "nonpayable",
      "type": "function"
    },
    {
      "inputs": [
        {
          "internalType": "bytes32",
          "name": "_ipfsHash",
          "type": "bytes32"
        },
        {
          "internalType": "bytes32",
          "name": "_network",
          "type": "bytes32"
        },
        {
          "internalType": "uint256",
          "name": "_periodId",
          "type": "uint256"
        }
      ],
      "name": "publishAnalyticsHash",
      "outputs": [],
      "stateMutability": "nonpayable",
      "type": "function"
    },
    {
      "inputs": [
        {
          "internalType": "address",
          "name": "_user",
          "type": "address"
        }
      ],
      "name": "userSLAs",
      "outputs": [
        {
          "internalType": "contract SLA[]",
          "name": "",
          "type": "address[]"
        }
      ],
      "stateMutability": "view",
      "type": "function",
      "constant": true
    },
    {
      "inputs": [
        {
          "internalType": "address",
          "name": "_user",
          "type": "address"
        }
      ],
      "name": "userSLACount",
      "outputs": [
        {
          "internalType": "uint256",
          "name": "",
          "type": "uint256"
        }
      ],
      "stateMutability": "view",
      "type": "function",
      "constant": true
    },
    {
      "inputs": [],
      "name": "allSLAs",
      "outputs": [
        {
          "internalType": "contract SLA[]",
          "name": "",
          "type": "address[]"
        }
      ],
      "stateMutability": "view",
      "type": "function",
      "constant": true
    },
    {
      "inputs": [],
      "name": "SLACount",
      "outputs": [
        {
          "internalType": "uint256",
          "name": "",
          "type": "uint256"
        }
      ],
      "stateMutability": "view",
      "type": "function",
      "constant": true
    },
    {
      "inputs": [
        {
          "internalType": "address",
          "name": "_user",
          "type": "address"
        },
        {
          "internalType": "address",
          "name": "_sla",
          "type": "address"
        }
      ],
      "name": "slaWasStakedByUser",
      "outputs": [
        {
          "internalType": "bool",
          "name": "",
          "type": "bool"
        }
      ],
      "stateMutability": "view",
      "type": "function",
      "constant": true
    },
    {
      "inputs": [
        {
          "internalType": "address",
          "name": "_owner",
          "type": "address"
        }
      ],
      "name": "registerStakedSla",
      "outputs": [
        {
          "internalType": "bool",
          "name": "",
          "type": "bool"
        }
      ],
      "stateMutability": "nonpayable",
      "type": "function"
    },
    {
      "inputs": [
        {
          "internalType": "address",
          "name": "_slaOwner",
          "type": "address"
        }
      ],
      "name": "getActivePool",
      "outputs": [
        {
          "components": [
            {
              "internalType": "address",
              "name": "SLAaddress",
              "type": "address"
            },
            {
              "internalType": "uint256",
              "name": "stake",
              "type": "uint256"
            },
            {
              "internalType": "string",
              "name": "assetName",
              "type": "string"
            },
            {
              "internalType": "address",
              "name": "assetAddress",
              "type": "address"
            }
          ],
          "internalType": "struct SLARegistry.ActivePool[]",
          "name": "",
          "type": "tuple[]"
        }
      ],
      "stateMutability": "view",
      "type": "function",
      "constant": true
    }
  ],
  "bytecode": "0x60806040523480156200001157600080fd5b50604051620058f5380380620058f5833981016040819052620000349162000297565b8151835114620000615760405162461bcd60e51b8152600401620000589062000395565b60405180910390fd5b60005b835181101562000119578281815181106200007b57fe5b60200260200101518482815181106200009057fe5b602002602001015110620000b85760405162461bcd60e51b81526004016200005890620003e1565b6040518060400160405280858381518110620000d057fe5b60200260200101518152602001848381518110620000ea57fe5b602090810291909101810151909152600083815280825260409020825181559101516001918201550162000064565b50600380546001600160a01b0319166001600160a01b0386811691909117918290556040805163f388158960e01b81529051929091169163f38815899160048082019260009290919082900301818387803b1580156200017857600080fd5b505af11580156200018d573d6000803e3d6000fd5b50508251620001a69250600691506020840190620001ba565b5050905160001901600155506200048f9050565b828054828255906000526020600020908101928215620001f8579160200282015b82811115620001f8578251825591602001919060010190620001db565b50620002069291506200020a565b5090565b5b808211156200020657600081556001016200020b565b600082601f83011262000232578081fd5b815162000249620002438262000456565b6200042f565b8181529150602080830190848101818402860182018710156200026b57600080fd5b60005b848110156200028c578151845292820192908201906001016200026e565b505050505092915050565b60008060008060808587031215620002ad578384fd5b8451620002ba8162000476565b602086810151919550906001600160401b0380821115620002d9578586fd5b620002e789838a0162000221565b95506040880151915080821115620002fd578485fd5b6200030b89838a0162000221565b9450606088015191508082111562000321578384fd5b508601601f8101881362000333578283fd5b805162000344620002438262000456565b81815283810190838501858402850186018c101562000361578687fd5b8694505b838510156200038557805183526001949094019391850191850162000365565b50979a9699509497505050505050565b6020808252602c908201527f506572696f64732073746172747320616e6420656e6473206c656e677468732060408201526b0e6d0deead8c840dac2e8c6d60a31b606082015260800190565b6020808252602e908201527f506572696f6420656e642073686f756c6420626520677265617465722074686160408201526d1b881c195c9a5bd9081cdd185c9d60921b606082015260800190565b6040518181016001600160401b03811182821017156200044e57600080fd5b604052919050565b60006001600160401b038211156200046c578081fd5b5060209081020190565b6001600160a01b03811681146200048c57600080fd5b50565b615456806200049f6000396000f3fe60806040523480156200001157600080fd5b5060043610620001485760003560e01c80638d171a6f11620000bd578063b45756d5116200007b578063b45756d514620002b9578063dfce8ae014620002d0578063e9b1e98c14620002f7578063f2c0dfd4146200030e578063f62d1b4614620003345762000148565b80638d171a6f146200026057806396bddc10146200026a578063a0a2f0541462000274578063a3f5cadf146200028b578063b290508e14620002a25762000148565b806351e99ec6116200010b57806351e99ec614620001eb578063558450be1462000202578063610663b41462000219578063816ff986146200023057806387b2175314620002495762000148565b80630df0bfc6146200014d5780631e0ab514146200017c5780633cb747bf146200019557806350c5abfe14620001ae578063516c285714620001c5575b600080fd5b620001646200015e366004620013c1565b6200034b565b6040516200017391906200195c565b60405180910390f35b620001936200018d3660046200159a565b620003d6565b005b6200019f62000502565b60405162000173919062001777565b6200019f620001bf36600462001555565b62000511565b620001dc620001d6366004620013a2565b62000539565b6040516200017391906200186b565b62000164620001fc366004620013a2565b62000682565b6200019362000213366004620015f4565b62000697565b620001646200022a36600462001555565b6200089f565b6200023a620008b4565b60405162000173919062001967565b620001936200025a366004620013fe565b620008ba565b6200023a62000b6a565b620001dc62000b70565b6200023a6200028536600462001555565b62000bd4565b6200019f6200029c366004620014f7565b62000bf3565b62000164620002b3366004620013a2565b62000c29565b6200023a620002ca3660046200159a565b62000cb2565b620002e7620002e136600462001555565b62000ccf565b6040516200017392919062001c1a565b6200023a62000308366004620013a2565b62000ce8565b620003256200031f366004620013a2565b62000d03565b604051620001739190620018ba565b62000193620003453660046200156e565b620010f2565b6000805b6001600160a01b038416600090815260096020526040902054811015620003ca576001600160a01b038481166000908152600960205260409020805491851691839081106200039a57fe5b6000918252602090912001546001600160a01b03161415620003c1576001915050620003d0565b6001016200034f565b50600090505b92915050565b620003e18162001178565b620004095760405162461bcd60e51b8152600401620004009062001be3565b60405180910390fd5b6200041362001267565b50600082815260208181526040918290208251808401909352805483526001015490820181905242116200045b5760405162461bcd60e51b8152600401620004009062001b6a565b600082815260026020908152604080832086845290915290205415620004955760405162461bcd60e51b8152600401620004009062001ba1565b600354604051630782ad4560e21b81526001600160a01b0390911690631e0ab51490620004c9908690869060040162001c1a565b600060405180830381600087803b158015620004e457600080fd5b505af1158015620004f9573d6000803e3d6000fd5b50505050505050565b6003546001600160a01b031681565b600481815481106200051f57fe5b6000918252602090912001546001600160a01b0316905081565b60606000620005488362000ce8565b90506060816001600160401b03811180156200056357600080fd5b506040519080825280602002602001820160405280156200058e578160200160208202803683370190505b506001600160a01b03851660009081526008602090815260409182902080548351818402810184019094528084529394506060939091830182828015620005f557602002820191906000526020600020905b815481526020019060010190808311620005e0575b5050505050905060005b83811015620006765760048282815181106200061757fe5b6020026020010151815481106200062a57fe5b9060005260206000200160009054906101000a90046001600160a01b03168382815181106200065557fe5b6001600160a01b0390921660209283029190910190910152600101620005ff565b5090925050505b919050565b60056020526000908152604090205460ff1681565b60405163b0227b4760e01b81526000906001600160a01b0384169063b0227b4790620006c890859060040162001967565b60206040518083038186803b158015620006e157600080fd5b505afa158015620006f6573d6000803e3d6000fd5b505050506040513d601f19601f820116820180604052508101906200071c9190620015bc565b6001600160a01b03161415620007465760405162461bcd60e51b8152600401620004009062001a50565b600080836001600160a01b031663ea4a1104866040518263ffffffff1660e01b815260040162000777919062001967565b60e06040518083038186803b1580156200079057600080fd5b505afa158015620007a5573d6000803e3d6000fd5b505050506040513d601f19601f82011682018060405250810190620007cb91906200162e565b50939650945060009350620007df92505050565b816002811115620007ec57fe5b146200080c5760405162461bcd60e51b8152600401620004009062001a9b565b4282106200082e5760405162461bcd60e51b8152600401620004009062001aeb565b600354604051632ac2285f60e11b81526001600160a01b039091169063558450be90620008649088908890889060040162001c28565b600060405180830381600087803b1580156200087f57600080fd5b505af115801562000894573d6000803e3d6000fd5b505050505050505050565b60076020526000908152604090205460ff1681565b60045490565b80620008da5760405162461bcd60e51b8152600401620004009062001b33565b6060816001600160401b0381118015620008f357600080fd5b506040519080825280602002602001820160405280156200091e578160200160208202803683370190505b5090506060826001600160401b03811180156200093a57600080fd5b5060405190808252806020026020018201604052801562000965578160200160208202803683370190505b50905060005b8381101562000a09576200097e62001267565b6000808787858181106200098e57fe5b9050602002013581526020019081526020016000206040518060400160405290816000820154815260200160018201548152505090508060000151848381518110620009d657fe5b6020026020010181815250508060200151838381518110620009f457fe5b6020908102919091010152506001016200096b565b5060008c8c8c8c8c8c8c8c8a8a60405162000a249062001281565b62000a399a999897969594939291906200178b565b604051809103906000f08015801562000a56573d6000803e3d6000fd5b5060048054600180820183557f8a35acfbc15ff81a39ae7d344fd709f28e8600b4aa8c65c6b64bfe7fe36bd19b90910180546001600160a01b0319166001600160a01b0385169081179091556000908152600560205260408120805460ff1916831790559154929350909162000acc91620011c5565b905060086000336001600160a01b03166001600160a01b031681526020019081526020016000208190806001815401808255809150506001900390600052602060002001600090919091909150558d6001600160a01b0316826001600160a01b03167fb52f284a6c14f1a66ab5513b5b539066933e58e69e6432666f0e3c8c8a7d750360405160405180910390a35050505050505050505050505050565b60015481565b6060600480548060200260200160405190810160405280929190818152602001828054801562000bca57602002820191906000526020600020905b81546001600160a01b0316815260019091019060200180831162000bab575b5050505050905090565b6006818154811062000be257fe5b600091825260209091200154905081565b6009602052816000526040600020818154811062000c0d57fe5b6000918252602090912001546001600160a01b03169150829050565b3360009081526005602052604081205460ff16151560011462000c605760405162461bcd60e51b815260040162000400906200199b565b62000c6c82336200034b565b62000caa576001600160a01b03821660009081526009602090815260408220805460018101825590835291200180546001600160a01b031916331790555b506001919050565b600260209081526000928352604080842090915290825290205481565b6000602081905290815260409020805460019091015482565b6001600160a01b031660009081526008602052604090205490565b60606000805b6001600160a01b03841660009081526009602052604090205481101562000dfa576001600160a01b038416600090815260096020526040812080548390811062000d4f57fe5b600091825260209091200154604051631d809bc960e31b81526001600160a01b03909116915062000dee90829063ec04de489062000d9290899060040162001777565b60206040518083038186803b15801562000dab57600080fd5b505afa15801562000dc0573d6000803e3d6000fd5b505050506040513d601f19601f8201168201806040525081019062000de69190620015db565b849062001210565b92505060010162000d09565b506060816001600160401b038111801562000e1457600080fd5b5060405190808252806020026020018201604052801562000e5257816020015b62000e3e6200128f565b81526020019060019003908162000e345790505b5090506000805b6001600160a01b03861660009081526009602052604090205481101562000676576001600160a01b038616600090815260096020526040812080548390811062000e9f57fe5b60009182526020822001546001600160a01b031691505b604051631d809bc960e31b81526001600160a01b0383169063ec04de489062000ee4908b9060040162001777565b60206040518083038186803b15801562000efd57600080fd5b505afa15801562000f12573d6000803e3d6000fd5b505050506040513d601f19601f8201168201806040525081019062000f389190620015db565b811015620010e757600080836001600160a01b03166357ac94f08b856040518363ffffffff1660e01b815260040162000f7392919062001852565b604080518083038186803b15801562000f8b57600080fd5b505afa15801562000fa0573d6000803e3d6000fd5b505050506040513d601f19601f8201168201806040525081019062000fc6919062001525565b60408051808201825260068152656e616d65282960d01b60209182015281516004815260248101835290810180516001600160e01b03166306fdde0360e01b17905290519294509092506060916001600160a01b03851691620010299162001759565b600060405180830381855afa9150503d806000811462001066576040519150601f19603f3d011682016040523d82523d6000602084013e6200106b565b606091505b50915050620010796200128f565b6040518060800160405280876001600160a01b03168152602001848152602001838152602001856001600160a01b0316815250905080898981518110620010bc57fe5b6020908102919091010152620010d488600162001210565b9750506001909301925062000eb6915050565b505060010162000e59565b6003546001600160a01b031633146200111f5760405162461bcd60e51b81526004016200040090620019cd565b7f26a56275e1df915c64434b498c50983d75b2c8e01ba0e70bf597cf3d56105441838383604051620011549392919062001970565b60405180910390a16000918252600260209081526040808420928452919052902055565b6000805b600654811015620011bc5782600682815481106200119657fe5b90600052602060002001541415620011b35760019150506200067d565b6001016200117c565b50600092915050565b60006200120983836040518060400160405280601e81526020017f536166654d6174683a207375627472616374696f6e206f766572666c6f77000081525062001238565b9392505050565b600082820183811015620012095760405162461bcd60e51b8152600401620004009062001a19565b600081848411156200125f5760405162461bcd60e51b815260040162000400919062001986565b505050900390565b604051806040016040528060008152602001600081525090565b61378d8062001c9483390190565b604051806080016040528060006001600160a01b03168152602001600081526020016060815260200160006001600160a01b031681525090565b8035620003d08162001c7a565b60008083601f840112620012e8578182fd5b5081356001600160401b03811115620012ff578182fd5b60208301915083602080830285010111156200131a57600080fd5b9250929050565b600082601f83011262001332578081fd5b81356001600160401b038082111562001349578283fd5b604051601f8301601f1916810160200182811182821017156200136a578485fd5b6040528281529250828483016020018610156200138657600080fd5b8260208601602083013760006020848301015250505092915050565b600060208284031215620013b4578081fd5b8135620012098162001c7a565b60008060408385031215620013d4578081fd5b8235620013e18162001c7a565b91506020830135620013f38162001c7a565b809150509250929050565b60008060008060008060008060008060e08b8d0312156200141d578586fd5b620014298c8c620012c9565b995060208b01356001600160401b038082111562001445578788fd5b620014538e838f01620012d6565b909b50995060408d01359150808211156200146c578788fd5b6200147a8e838f01620012d6565b909950975060608d0135965060808d01359150808211156200149a578586fd5b620014a88e838f0162001321565b9550620014b98e60a08f01620012c9565b945060c08d0135915080821115620014cf578384fd5b50620014de8d828e01620012d6565b915080935050809150509295989b9194979a5092959850565b600080604083850312156200150a578182fd5b8235620015178162001c7a565b946020939093013593505050565b6000806040838503121562001538578182fd5b8251620015458162001c7a565b6020939093015192949293505050565b60006020828403121562001567578081fd5b5035919050565b60008060006060848603121562001583578283fd5b505081359360208301359350604090920135919050565b60008060408385031215620015ad578182fd5b50508035926020909101359150565b600060208284031215620015ce578081fd5b8151620012098162001c7a565b600060208284031215620015ed578081fd5b5051919050565b60008060006060848603121562001609578081fd5b8335925060208401356200161d8162001c7a565b929592945050506040919091013590565b600080600080600080600060e0888a03121562001649578081fd5b875196506020880151955060408801519450606088015180151581146200166e578182fd5b60808901519094506003811062001683578182fd5b8093505060a0880151915060c0880151905092959891949750929550565b6001600160a01b03169052565b60008284526020808501945082825b85811015620016ef578135620016d38162001c7a565b6001600160a01b031687529582019590820190600101620016bd565b509495945050505050565b6000815180845260208085019450808401835b83811015620016ef578151875295820195908201906001016200170d565b600081518084526200174581602086016020860162001c47565b601f01601f19169290920160200192915050565b600082516200176d81846020870162001c47565b9190910192915050565b6001600160a01b0391909116815260200190565b6001600160a01b038b16815261010060208201819052810189905260006101206001600160fb1b038b1115620017bf578182fd5b60208b02808d83860137830181810183815284820383016040860152620017e8818c8e620016ae565b9250505087606084015282810360808401526200180681886200172b565b90506200181760a0840187620016a1565b82810360c08401526200182b8186620016fa565b905082810360e0840152620018418185620016fa565b9d9c50505050505050505050505050565b6001600160a01b03929092168252602082015260400190565b6020808252825182820181905260009190848201906040850190845b81811015620018ae5783516001600160a01b03168352928401929184019160010162001887565b50909695505050505050565b60208082528251828201819052600091906040908185019080840286018301878501865b838110156200194e57603f198984030185528151608062001901858351620016a1565b888201518986015287820151818987015262001920828701826200172b565b91505060608083015192506200193981870184620016a1565b509588019593505090860190600101620018de565b509098975050505050505050565b901515815260200190565b90815260200190565b9283526020830191909152604082015260600190565b6000602082526200120960208301846200172b565b6020808252601890820152774f6e6c7920666f72207265676973746572656420534c417360401b604082015260600190565b6020808252602c908201527f43616e206f6e6c792062652063616c6c656420627920746865204d657373656e60408201526b19d95c8818dbdb9d1c9858dd60a21b606082015260800190565b6020808252601b908201527f536166654d6174683a206164646974696f6e206f766572666c6f770000000000604082015260600190565b6020808252602b908201527f5f736c6f4e616d6520646f6573206e6f7420657869737420696e20746865205360408201526a13104818dbdb9d1c9858dd60aa1b606082015260800190565b60208082526030908201527f534c4120636f6e74726163742077617320616c7265616479207665726966696560408201526f1908199bdc881d1a19481c195c9a5bd960821b606082015260800190565b60208082526028908201527f534c4120636f6e747261637420706572696f6420686173206e6f742066696e696040820152671cda1959081e595d60c21b606082015260800190565b6020808252601c908201527f506572696f647320696e666f726d6174696f6e20697320656d70747900000000604082015260600190565b6020808252601b908201527f506572696f6420686173206e6f742066696e6973686564207965740000000000604082015260600190565b60208082526022908201527f416e616c7974696373206f626a65637420616c7265616479207075626c697368604082015261195960f21b606082015260800190565b6020808252601b908201527f4e6574776f726b206e616d65206e6f74207265636f676e697a65640000000000604082015260600190565b918252602082015260400190565b9283526001600160a01b03919091166020830152604082015260600190565b60005b8381101562001c6457818101518382015260200162001c4a565b8381111562001c74576000848401525b50505050565b6001600160a01b038116811462001c9057600080fd5b5056fe60806040523480156200001157600080fd5b506040516200378d3803806200378d8339810160408190526200003491620007c8565b8282828a60006200004462000297565b600080546001600160a01b0319166001600160a01b0383169081178255604051929350916000805160206200376d833981519152908290a3508151835114620000aa5760405162461bcd60e51b8152600401620000a19062000950565b60405180910390fd5b600480546001600160a01b038084166001600160a01b0319928316179092556001805492871692821683178155600680548083019091557ff652222313e28459528d920b65115c16c04f3efc82aaedc97be59f3f377c0d3f01805490921683179091556000918252600760205260408220805460ff191690911790555b835181101562000174576200016b8482815181106200014257fe5b60200260200101518483815181106200015757fe5b60200260200101516200029b60201b60201c565b60010162000127565b505050505060058651106200019d5760405162461bcd60e51b8152600401620000a19062000a1d565b8551875114620001c15760405162461bcd60e51b8152600401620000a190620009ce565b60005b86518110156200023557868181518110620001db57fe5b6020026020010151601060008a8481518110620001f457fe5b602090810291909101810151825281019190915260400160002080546001600160a01b0319166001600160a01b0392909216919091179055600101620001c4565b50620002418862000414565b8651620002569060129060208a019062000543565b50600d85905583516200027190600e90602087019062000593565b5050600f80546001600160a01b031916331790555050436013555062000ae79350505050565b3390565b620002a562000605565b8281526020810182815260006080830181815260a0840182905260c08401829052600280546001810182559281905284517f405787fa12a823e0f2b7631cc41b3ba8828b3321ca811111fa75cd3aa3bb5ace600890940293840190815593517f405787fa12a823e0f2b7631cc41b3ba8828b3321ca811111fa75cd3aa3bb5acf84015560408501517f405787fa12a823e0f2b7631cc41b3ba8828b3321ca811111fa75cd3aa3bb5ad084015560608501517f405787fa12a823e0f2b7631cc41b3ba8828b3321ca811111fa75cd3aa3bb5ad1909301805460ff19169315159390931780845591518594939092909161ff001990911690610100908490811115620003ab57fe5b021790555060a0820151816004015560c082015181600501555050620003e66001600280549050620004c160201b62001c021790919060201c565b6040517ff791e873e3b67fe74b29aeede7bcbbdaa59c4b64e542571183cd837aa56f6ac990600090a2505050565b6200041e62000297565b6000546001600160a01b039081169116146200044e5760405162461bcd60e51b8152600401620000a19062000999565b6001600160a01b038116620004775760405162461bcd60e51b8152600401620000a1906200090a565b600080546040516001600160a01b03808516939216916000805160206200376d83398151915291a3600080546001600160a01b0319166001600160a01b0392909216919091179055565b60006200050b83836040518060400160405280601e81526020017f536166654d6174683a207375627472616374696f6e206f766572666c6f7700008152506200051460201b60201c565b90505b92915050565b600081848411156200053b5760405162461bcd60e51b8152600401620000a19190620008d5565b505050900390565b82805482825590600052602060002090810192821562000581579160200282015b828111156200058157825182559160200191906001019062000564565b506200058f92915062000650565b5090565b828054600181600116156101000203166002900490600052602060002090601f016020900481019282601f10620005d657805160ff191683800117855562000581565b828001600101855582156200058157918201828111156200058157825182559160200191906001019062000564565b6040518060e00160405280600081526020016000815260200160008152602001600015158152602001600060028111156200063c57fe5b815260200160008152602001600081525090565b5b808211156200058f576000815560010162000651565b80516200050e8162000ace565b600082601f83011262000685578081fd5b81516200069c620006968262000a7b565b62000a54565b818152915060208083019084810181840286018201871015620006be57600080fd5b60005b84811015620006df57815184529282019290820190600101620006c1565b505050505092915050565b600082601f830112620006fb578081fd5b81516200070c620006968262000a7b565b8181529150602080830190848101818402860182018710156200072e57600080fd5b60005b84811015620006df578151620007478162000ace565b8452928201929082019060010162000731565b600082601f8301126200076b578081fd5b81516001600160401b0381111562000781578182fd5b62000796601f8201601f191660200162000a54565b9150808252836020828501011115620007ae57600080fd5b620007c181602084016020860162000a9b565b5092915050565b600080600080600080600080610100898b031215620007e5578384fd5b620007f18a8a62000667565b60208a01519098506001600160401b03808211156200080e578586fd5b6200081c8c838d0162000674565b985060408b015191508082111562000832578586fd5b620008408c838d01620006ea565b975060608b0151965060808b01519150808211156200085d578586fd5b6200086b8c838d016200075a565b95506200087c8c60a08d0162000667565b945060c08b015191508082111562000892578384fd5b620008a08c838d0162000674565b935060e08b0151915080821115620008b6578283fd5b50620008c58b828c0162000674565b9150509295985092959890939650565b6000602082528251806020840152620008f681604085016020870162000a9b565b601f01601f19169190910160400192915050565b60208082526026908201527f4f776e61626c653a206e6577206f776e657220697320746865207a65726f206160408201526564647265737360d01b606082015260800190565b60208082526029908201527f506c6561736520636865636b2074686520706172616d73206f6620796f757220604082015268706572696f6473202160b81b606082015260800190565b6020808252818101527f4f776e61626c653a2063616c6c6572206973206e6f7420746865206f776e6572604082015260600190565b6020808252602f908201527f5f534c4f4e616d657320616e64205f534c4f732073686f756c6420686176652060408201526e0e8d0ca40e6c2daca40d8cadccee8d608b1b606082015260800190565b60208082526017908201527f6d617820616d6f756e74206f6620534c4f732069732035000000000000000000604082015260600190565b6040518181016001600160401b038111828210171562000a7357600080fd5b604052919050565b60006001600160401b0382111562000a91578081fd5b5060209081020190565b60005b8381101562000ab857818101518382015260200162000a9e565b8381111562000ac8576000848401525b50505050565b6001600160a01b038116811462000ae457600080fd5b50565b612c768062000af76000396000f3fe608060405234801561001057600080fd5b50600436106102125760003560e01c806394199c6111610120578063ea4a1104116100b8578063f3fef3a31161007c578063f3fef3a31461048d578063fbbf93a0146104a0578063fc875ece146104b9578063fd0d5534146104da578063fd5e6dd1146104ed57610212565b8063ea4a11041461041b578063ec04de4814610441578063f10bd77214610454578063f2fde38b14610467578063f34ed40d1461047a57610212565b806394199c6114610375578063a2e80c5e14610397578063ae169a501461039f578063b0227b47146103b2578063b5d5b5fa146103c5578063b83e0234146103d8578063c623674f146103eb578063cec534d614610400578063dbc389ec1461041357610212565b806357ac94f0116101ae578063817b1cd211610172578063817b1cd2146103425780638469ddc71461034a578063869c3925146103525780638da5cb5b1461036557806390f817021461036d57610212565b806357ac94f0146102eb5780635e5f2e261461030c578063715018a61461031f57806375fdf2a9146103275780637b1039991461033a57610212565b806302e8b893146102175780630e1fcf3414610240578063105237cf14610255578063171e44ea146102755780631934d0e8146102885780632eac97871461029b5780633a4b66f1146102bb5780633a5381b5146102c357806353e85fd5146102d8575b600080fd5b61022a61022536600461250f565b610500565b604051610237919061270b565b60405180910390f35b61025361024e366004612527565b610591565b005b61026861026336600461243c565b6105dd565b6040516102379190612764565b61025361028336600461243c565b6105f2565b610268610296366004612458565b6106c7565b6102ae6102a9366004612458565b6106e7565b604051610237919061276f565b6102ae610704565b6102cb61070a565b604051610237919061260e565b6102536102e636600461250f565b610719565b6102fe6102f9366004612490565b610a37565b604051610237929190612646565b6102cb61031a36600461250f565b610ab7565b610253610ade565b6102536103353660046124bb565b610b5d565b6102cb610ec0565b6102ae610ecf565b6102ae610ed5565b610253610360366004612548565b610edb565b6102cb611179565b6102cb611188565b610388610383366004612527565b611197565b60405161023793929190612b95565b6102ae6111d6565b6102536103ad36600461250f565b6111dc565b6102cb6103c036600461250f565b6113b6565b6102fe6103d3366004612490565b6113d1565b6102ae6103e636600461243c565b611414565b6103f3611426565b6040516102379190612778565b61025361040e36600461258f565b6114b4565b6102ae611567565b61042e61042936600461250f565b61156d565b6040516102379796959493929190612bab565b6102ae61044f36600461243c565b6115be565b6102ae610462366004612490565b6115d9565b61025361047536600461243c565b611687565b6102ae61048836600461250f565b61173d565b61025361049b366004612490565b61175b565b6104a86119c9565b60405161023795949392919061265f565b6104cc6104c736600461250f565b611b99565b604051610237929190612b87565b6102ae6104e836600461243c565b611be3565b6102cb6104fb36600461250f565b611bf5565b606060116000838152602001908152602001600020805480602002602001604051908101604052809291908181526020016000905b828210156105855783829060005260206000209060030201604051806060016040529081600082015481526020016001820154815260200160028201548152505081526020019060010190610535565b5050505090505b919050565b610599611c44565b6000546001600160a01b039081169116146105cf5760405162461bcd60e51b81526004016105c690612a44565b60405180910390fd5b6105d98282611c48565b5050565b60076020526000908152604090205460ff1681565b6105fa611c44565b6000546001600160a01b039081169116146106275760405162461bcd60e51b81526004016105c690612a44565b6001600160a01b03811660009081526007602052604090205460ff16156106605760405162461bcd60e51b81526004016105c690612952565b6006805460018181019092557ff652222313e28459528d920b65115c16c04f3efc82aaedc97be59f3f377c0d3f0180546001600160a01b039093166001600160a01b031990931683179055600091825260076020526040909120805460ff19169091179055565b600b60209081526000928352604080842090915290825290205460ff1681565b600a60209081526000928352604080842090915290825290205481565b600d5481565b6004546001600160a01b031681565b806002818154811061072757fe5b906000526020600020906008020160000154421015801561076657506002818154811061075057fe5b9060005260206000209060080201600101544211155b61076f57600080fd5b6004546001600160a01b031633141561079a5760405162461bcd60e51b81526004016105c6906128ec565b60028083815481106107a857fe5b906000526020600020906008020160030160019054906101000a900460ff1660028111156107d257fe5b146107ef5760405162461bcd60e51b81526004016105c690612801565b600282815481106107fc57fe5b6000918252602080832033845260076008909302019190910190526040902054156108395760405162461bcd60e51b81526004016105c690612b2a565b600061084533846115d9565b9050600061085f600a610859846003611dac565b90611de6565b60035490915061086f9083611c02565b600381905550816002858154811061088357fe5b600091825260208083203380855260089390930201600701905260409182902092909255600154905163a9059cbb60e01b81526001600160a01b039091169163a9059cbb916108d791908690600401612646565b602060405180830381600087803b1580156108f157600080fd5b505af1158015610905573d6000803e3d6000fd5b505050506040513d601f19601f8201168201806040525081019061092991906124ef565b50600154604080518082018252600d81526c6275726e2875696e743235362960981b602090910152516000916001600160a01b0316907f42966c689b5afe9b9b3f8a7103b2a19980d59629bfd6a20a60972312ed41d8369061098f90859060240161276f565b60408051601f198184030181529181526020820180516001600160e01b03166001600160e01b03199094169390931790925290516109cd91906125f2565b6000604051808303816000865af19150503d8060008114610a0a576040519150601f19603f3d011682016040523d82523d6000602084013e610a0f565b606091505b5050905080610a305760405162461bcd60e51b81526004016105c69061278b565b5050505050565b6001600160a01b0382166000908152600960205260408120805482919084908110610a5e57fe5b600091825260208083206002909202909101546001600160a01b03878116845260099092526040909220805491909216919085908110610a9a57fe5b906000526020600020906002020160010154915091509250929050565b60068181548110610ac457fe5b6000918252602090912001546001600160a01b0316905081565b610ae6611c44565b6000546001600160a01b03908116911614610b135760405162461bcd60e51b81526004016105c690612a44565b600080546040516001600160a01b03909116907f8be0079c531659141344cd1fd0a4f28419497f9722a3daafe3b4186f6b6457e0908390a3600080546001600160a01b0319169055565b6004546001600160a01b0316331415610b885760405162461bcd60e51b81526004016105c6906128ec565b6001600160a01b038316600090815260076020526040902054839060ff161515600114610bc75760405162461bcd60e51b81526004016105c690612a16565b600060028381548110610bd657fe5b600091825260208083206001600160a01b03891684526006600890930201919091018152604080832033845290915290205411610c255760405162461bcd60e51b81526004016105c69061291b565b6040516323b872dd60e01b81526001600160a01b038516906323b872dd90610c5590339030908890600401612622565b602060405180830381600087803b158015610c6f57600080fd5b505af1158015610c83573d6000803e3d6000fd5b505050506040513d601f19601f82011682018060405250810190610ca791906124ef565b50610cf18360028481548110610cb957fe5b600091825260208083206001600160a01b038a1684526006600890930201919091018152604080832033845290915290205490611e28565b60028381548110610cfe57fe5b600091825260208083206001600160a01b038916845260066008909302019190910181526040808320338452909152902055600354610d3d9084611e28565b600355610d4a8484611e4d565b600060028381548110610d5957fe5b600091825260208083206001600160a01b03891684526006600890930201919091018152604080832033845290915281205460055460028054929450610dc39287908110610da357fe5b906000526020600020906008020160020154611de690919063ffffffff16565b9050600060028581548110610dd457fe5b600091825260208083206001600160a01b038b16845260066008909302019190910181526040808320338452909152902055600354610e139083611c02565b6003556001546001600160a01b031663a9059cbb33610e328585611c02565b6040518363ffffffff1660e01b8152600401610e4f929190612646565b602060405180830381600087803b158015610e6957600080fd5b505af1158015610e7d573d6000803e3d6000fd5b505050506040513d601f19601f82011682018060405250810190610ea191906124ef565b50600154610eb8906001600160a01b031683611fed565b505050505050565b600f546001600160a01b031681565b60035481565b60025490565b600f60009054906101000a90046001600160a01b03166001600160a01b0316633cb747bf6040518163ffffffff1660e01b815260040160206040518083038186803b158015610f2957600080fd5b505afa158015610f3d573d6000803e3d6000fd5b505050506040513d601f19601f82011682018060405250810190610f619190612573565b6001600160a01b0316336001600160a01b031614610f915760405162461bcd60e51b81526004016105c6906128a7565b600083815260116020908152604080832081516060810183524281528084018781529281018681528254600181810185559387529490952090516003909402019283559051908201559051600291820155805483919083908110610ff157fe5b906000526020600020906008020160040181905550426002828154811061101457fe5b9060005260206000209060080201600501819055507fc95987c1992805ee34bdc915e017cceae36ba1c156b9911fa7e691e6435eb46e42838360405161105c93929190612b95565b60405180910390a16000838152601060205260409081902054905163868d08f760e01b81526001600160a01b039091169063868d08f7906110a190859060040161276f565b60206040518083038186803b1580156110b957600080fd5b505afa1580156110cd573d6000803e3d6000fd5b505050506040513d601f19601f820116820180604052508101906110f191906124ef565b61113657600280828154811061110357fe5b60009182526020909120600360089092020101805461ff00191661010083600281111561112c57fe5b0217905550611174565b60016002828154811061114557fe5b60009182526020909120600360089092020101805461ff00191661010083600281111561116e57fe5b02179055505b505050565b6000546001600160a01b031690565b6001546001600160a01b031681565b601160205281600052604060002081815481106111b057fe5b600091825260209091206003909102018054600182015460029092015490935090915083565b60055490565b80600281815481106111ea57fe5b906000526020600020906008020160000154421015801561122957506002818154811061121357fe5b9060005260206000209060080201600101544211155b61123257600080fd5b6004546001600160a01b0316331461125c5760405162461bcd60e51b81526004016105c690612af7565b60016002838154811061126b57fe5b906000526020600020906008020160030160019054906101000a900460ff16600281111561129557fe5b146112b25760405162461bcd60e51b81526004016105c6906127d4565b600282815481106112bf57fe5b600091825260209091206003600890920201015460ff16156112f35760405162461bcd60e51b81526004016105c69061297f565b6002546003546000916113069190611de6565b9050600061131a600a610859846003611dac565b60035490915061132a9083611c02565b600381905550816002858154811061133e57fe5b90600052602060002090600802016002018190555060016002858154811061136257fe5b60009182526020909120600890910201600301805460ff191691151591909117905560015460405163a9059cbb60e01b81526001600160a01b039091169063a9059cbb906108d79033908690600401612646565b6010602052600090815260409020546001600160a01b031681565b600960205281600052604060002081815481106113ea57fe5b6000918252602090912060029091020180546001909101546001600160a01b039091169250905082565b60086020526000908152604090205481565b600e805460408051602060026001851615610100026000190190941693909304601f810184900484028201840190925281815292918301828280156114ac5780601f10611481576101008083540402835291602001916114ac565b820191906000526020600020905b81548152906001019060200180831161148f57829003601f168201915b505050505081565b600f54604051635948284760e11b81526000916001600160a01b03169063b290508e906114e590339060040161260e565b602060405180830381600087803b1580156114ff57600080fd5b505af1158015611513573d6000803e3d6000fd5b505050506040513d601f19601f8201168201806040525081019061153791906124ef565b9050806115565760405162461bcd60e51b81526004016105c690612a79565b6115618484846120c3565b50505050565b60135481565b6002818154811061157a57fe5b60009182526020909120600890910201805460018201546002830154600384015460048501546005909501549395509193909260ff80841693610100900416919087565b6001600160a01b031660009081526009602052604090205490565b6001600160a01b03821660009081526008602052604081205481901561167e5760005b60065481101561167c576116726002858154811061161657fe5b906000526020600020906008020160060160006006848154811061163657fe5b60009182526020808320909101546001600160a01b0390811684528382019490945260409283018220938a168252929092529020548390611e28565b91506001016115fc565b505b90505b92915050565b61168f611c44565b6000546001600160a01b039081169116146116bc5760405162461bcd60e51b81526004016105c690612a44565b6001600160a01b0381166116e25760405162461bcd60e51b81526004016105c69061282a565b600080546040516001600160a01b03808516939216917f8be0079c531659141344cd1fd0a4f28419497f9722a3daafe3b4186f6b6457e091a3600080546001600160a01b0319166001600160a01b0392909216919091179055565b6012818154811061174a57fe5b600091825260209091200154905081565b6004546001600160a01b03163314156117865760405162461bcd60e51b81526004016105c6906128ec565b6001600160a01b038216600090815260076020526040902054829060ff1615156001146117c55760405162461bcd60e51b81526004016105c690612a16565b6000600283815481106117d457fe5b600091825260208083206001600160a01b038816845260066008909302019190910181526040808320338452909152902054116118235760405162461bcd60e51b81526004016105c69061291b565b60006002838154811061183257fe5b600091825260208083206001600160a01b0388168452600660089093020191909101815260408083203384529091528120546005546002805492945061187c9287908110610da357fe5b905060006002858154811061188d57fe5b600091825260208083206001600160a01b038a168452600660089093020191909101815260408083203384529091529020556003546118cc9083611c02565b6003556001600160a01b03851663a9059cbb336118e98585611c02565b6040518363ffffffff1660e01b8152600401611906929190612646565b602060405180830381600087803b15801561192057600080fd5b505af1158015611934573d6000803e3d6000fd5b505050506040513d601f19601f8201168201806040525081019061195891906124ef565b5033600090815260086020526040902054611974906001611c02565b3360009081526008602052604090208190556119bf576000611995336122ad565b9050600581815481106119a457fe5b600091825260209091200180546001600160a01b0319169055505b610a308583611fed565b600060606000606080606060128054905067ffffffffffffffff811180156119f057600080fd5b50604051908082528060200260200182016040528015611a1a578160200160208202803683370190505b50905060005b601254811015611a94576010600060128381548110611a3b57fe5b9060005260206000200154815260200190815260200160002060009054906101000a90046001600160a01b0316828281518110611a7457fe5b6001600160a01b0390921660209283029190910190910152600101611a20565b50611a9d611179565b600d54600e805460408051602060026001851615610100026000190190941693909304601f810184900484028201840190925281815292939260129287928691830182828015611b2e5780601f10611b0357610100808354040283529160200191611b2e565b820191906000526020600020905b815481529060010190602001808311611b1157829003601f168201915b5050505050935081805480602002602001604051908101604052809291908181526020018280548015611b8057602002820191906000526020600020905b815481526020019060010190808311611b6c575b5050505050915095509550955095509550509091929394565b60008060028381548110611ba957fe5b90600052602060002090600802016000015460028481548110611bc857fe5b90600052602060002090600802016001015491509150915091565b600c6020526000908152604090205481565b60058181548110610ac457fe5b600061167e83836040518060400160405280601e81526020017f536166654d6174683a207375627472616374696f6e206f766572666c6f770000815250612306565b3390565b611c506123f2565b8281526020810182815260006080830181815260a0840182905260c08401829052600280546001810182559281905284517f405787fa12a823e0f2b7631cc41b3ba8828b3321ca811111fa75cd3aa3bb5ace600890940293840190815593517f405787fa12a823e0f2b7631cc41b3ba8828b3321ca811111fa75cd3aa3bb5acf84015560408501517f405787fa12a823e0f2b7631cc41b3ba8828b3321ca811111fa75cd3aa3bb5ad084015560608501517f405787fa12a823e0f2b7631cc41b3ba8828b3321ca811111fa75cd3aa3bb5ad1909301805460ff19169315159390931780845591518594939092909161ff001990911690610100908490811115611d5557fe5b021790555060a0820151600482015560c090910151600590910155600254611d7e906001611c02565b6040517ff791e873e3b67fe74b29aeede7bcbbdaa59c4b64e542571183cd837aa56f6ac990600090a2505050565b600082611dbb57506000611681565b82820282848281611dc857fe5b041461167e5760405162461bcd60e51b81526004016105c6906129d5565b600061167e83836040518060400160405280601a81526020017f536166654d6174683a206469766973696f6e206279207a65726f000000000000815250612332565b60008282018381101561167e5760405162461bcd60e51b81526004016105c690612870565b336000908152600b602090815260408083206001600160a01b038616845290915290205460ff16611f1857336000818152600960209081526040808320815180830183526001600160a01b03888116808352828601898152845460018082018755868a52888a209551600290920290950180546001600160a01b0319169190941617835551918301919091558686529154600a85528386208387528552838620600019919091019055948452600b83528184209084529091529020805460ff19169091179055611faa565b336000818152600a602090815260408083206001600160a01b0387168452825280832054938352600990915290208054611f7891849184908110611f5857fe5b906000526020600020906002020160010154611e2890919063ffffffff16565b336000908152600960205260409020805483908110611f9357fe5b906000526020600020906002020160010181905550505b6001600160a01b0382166000908152600c6020526040902054611fcd9082611e28565b6001600160a01b039092166000908152600c602052604090209190915550565b336000818152600a602090815260408083206001600160a01b038716845282528083205493835260099091529020805461204d9184918490811061202d57fe5b906000526020600020906002020160010154611c0290919063ffffffff16565b33600090815260096020526040902080548390811061206857fe5b60009182526020808320600160029093020191909101929092556001600160a01b0385168152600c90915260409020546120a29083611c02565b6001600160a01b039093166000908152600c60205260409020929092555050565b6001600160a01b038216600090815260076020526040902054829060ff1615156001146121025760405162461bcd60e51b81526004016105c690612a16565b600084116121225760405162461bcd60e51b81526004016105c690612acb565b61212d338484612369565b6040516323b872dd60e01b81526001600160a01b038416906323b872dd9061215d90339030908990600401612622565b602060405180830381600087803b15801561217757600080fd5b505af115801561218b573d6000803e3d6000fd5b505050506040513d601f19601f820116820180604052508101906121af91906124ef565b506121f984600284815481106121c157fe5b600091825260208083206001600160a01b03891684526006600890930201919091018152604080832033845290915290205490611e28565b6002838154811061220657fe5b600091825260208083206001600160a01b0388168452600660089093020191909101815260408083203384529091529020556003546122459085611e28565b60035533600090815260086020526040902054600114156122a357600580546001810182556000919091527f036b6384b5eca791c62761152d0c79bb0604c104a5fb6f4eb0703f3154bb3db00180546001600160a01b031916331790555b6115618385611e4d565b6000805b6005548110156122fc57826001600160a01b0316600582815481106122d257fe5b6000918252602090912001546001600160a01b031614156122f457905061058c565b6001016122b1565b5060001992915050565b6000818484111561232a5760405162461bcd60e51b81526004016105c69190612778565b505050900390565b600081836123535760405162461bcd60e51b81526004016105c69190612778565b50600083858161235f57fe5b0495945050505050565b60006002828154811061237857fe5b600091825260208083206001600160a01b0387811685526008939093020160060181526040808420928816845291905290205411611174576001600160a01b0383166000908152600860205260409020546123d4906001611e28565b6001600160a01b038416600090815260086020526040902055505050565b6040518060e001604052806000815260200160008152602001600081526020016000151581526020016000600281111561242857fe5b815260200160008152602001600081525090565b60006020828403121561244d578081fd5b813561167e81612c28565b6000806040838503121561246a578081fd5b823561247581612c28565b9150602083013561248581612c28565b809150509250929050565b600080604083850312156124a2578182fd5b82356124ad81612c28565b946020939093013593505050565b6000806000606084860312156124cf578081fd5b83356124da81612c28565b95602085013595506040909401359392505050565b600060208284031215612500578081fd5b8151801515811461167e578182fd5b600060208284031215612520578081fd5b5035919050565b60008060408385031215612539578182fd5b50508035926020909101359150565b60008060006060848603121561255c578283fd5b505081359360208301359350604090920135919050565b600060208284031215612584578081fd5b815161167e81612c28565b6000806000606084860312156125a3578283fd5b8335925060208401356125b581612c28565b929592945050506040919091013590565b600081518084526125de816020860160208601612bfc565b601f01601f19169290920160200192915050565b60008251612604818460208701612bfc565b9190910192915050565b6001600160a01b0391909116815260200190565b6001600160a01b039384168152919092166020820152604081019190915260600190565b6001600160a01b03929092168252602082015260400190565b6001600160a01b038616815260a06020808301829052600091612684908401886125c6565b604084018790528381036060850152855180825282870191830190845b818110156126bd578351835292840192918401916001016126a1565b505084810360808601528551808252908301915082860190845b818110156126fb576126e98351612bf0565b845292840192918401916001016126d7565b50919a9950505050505050505050565b602080825282518282018190526000919060409081850190868401855b828110156127575781518051855286810151878601528501518585015260609093019290850190600101612728565b5091979650505050505050565b901515815260200190565b90815260200190565b60006020825261167e60208301846125c6565b60208082526029908201527f42617365546f6b656e206275726e2070726f6365737320776173206e6f7420736040820152681d58d8d95cdcd99d5b60ba1b606082015260800190565b602080825260139082015272534c41206e6f7420726573706563746564202160681b604082015260600190565b6020808252600f908201526e534c4120726573706563746564202160881b604082015260600190565b60208082526026908201527f4f776e61626c653a206e6577206f776e657220697320746865207a65726f206160408201526564647265737360d01b606082015260800190565b6020808252601b908201527f536166654d6174683a206164646974696f6e206f766572666c6f770000000000604082015260600190565b60208082526025908201527f4f6e6c79204d657373656e6765722063616e2063616c6c20746869732066756e60408201526431ba34b7b760d91b606082015260800190565b602080825260159082015274596f752061726520612076616c696461746f72202160581b604082015260600190565b6020808252601b908201527f7374616b696e672062616c616e63652063616e6e6f7420626520300000000000604082015260600190565b6020808252601390820152721d1bdad95b88185b1c9958591e481859191959606a1b604082015260600190565b60208082526036908201527f596f75206861766520616c726561647920636c61696d656420796f75722072656040820152757761726420666f72207468697320706572696f64202160501b606082015260800190565b60208082526021908201527f536166654d6174683a206d756c7469706c69636174696f6e206f766572666c6f6040820152607760f81b606082015260800190565b6020808252601490820152731d1bdad95b881a5cc81b9bdd08185b1b1bddd95960621b604082015260600190565b6020808252818101527f4f776e61626c653a2063616c6c6572206973206e6f7420746865206f776e6572604082015260600190565b60208082526032908201527f736c6120776173206e6f742072656769737465726564206173207374616b656460408201527110313c903a34329036b9b39739b2b73232b960711b606082015260800190565b6020808252601290820152710616d6f756e742063616e6e6f7420626520360741b604082015260600190565b602080825260199082015278596f7520617265206e6f7420612076616c696461746f72202160381b604082015260600190565b6020808252603c908201527f596f75206861766520616c726561647920636c61696d656420796f757220636f60408201527f6d70656e736174696f6e20666f72207468697320706572696f64202100000000606082015260800190565b918252602082015260400190565b9283526020830191909152604082015260600190565b8781526020810187905260408101869052841515606082015260e0810160038510612bd257fe5b8460808301528360a08301528260c083015298975050505050505050565b6001600160a01b031690565b60005b83811015612c17578181015183820152602001612bff565b838111156115615750506000910152565b6001600160a01b0381168114612c3d57600080fd5b5056fea264697066735822122017e053b7b078349986e0d2e985427ad975274446a6d27a2aa18c37093545ddde64736f6c634300060c00338be0079c531659141344cd1fd0a4f28419497f9722a3daafe3b4186f6b6457e0a26469706673582212209efd34105dc7abc68b9be303ec354d235641073bdcc5ac53ede88c30f615189d64736f6c634300060c0033",
  "immutableReferences": {},
  "source": "// SPDX-License-Identifier: MIT\npragma solidity ^0.6.0;\npragma experimental ABIEncoderV2;\n\nimport \"@openzeppelin/contracts/math/SafeMath.sol\";\nimport \"./Messenger.sol\";\nimport \"./SLA/SLA.sol\";\nimport \"./SLO/SLO.sol\";\nimport \"./SLA/Staking.sol\";\n\n/**\n * @title SLARegistry\n * @dev SLARegistry is a contract for handling creation of service level\n * agreements and keeping track of the created agreements\n */\ncontract SLARegistry {\n    using SafeMath for uint256;\n    bytes4 private constant NAME_SELECTOR = bytes4(keccak256(bytes(\"name()\")));\n\n    /// @dev struct to return on getActivePool function.\n    struct ActivePool {\n        address SLAaddress;\n        uint256 stake;\n        string assetName;\n        address assetAddress;\n    }\n\n    /// @dev struct to store the start and end of the periods\n    struct CanonicalPeriod {\n        uint256 start;\n        uint256 end;\n    }\n\n    /// @dev mapping periodId=>CanonicalPeriod to check if SLA is registered\n    mapping(uint256 => CanonicalPeriod) public canonicalPeriods;\n\n    /// @dev mapping periodId=>CanonicalPeriod to check if SLA is registered\n    uint256 public canonicalPeriodLastID;\n\n    /// @dev mapping networkName=>periodId=>bytes32 to store ipfsHash of the analytics corresponding to periodId\n    mapping(bytes32 => mapping(uint256 => bytes32))\n        public canonicalPeriodsAnalytics;\n\n    /// @dev Messenger of the SLA Registry\n    Messenger public messenger;\n\n    /// @dev stores the addresses of created SLAs\n    SLA[] public SLAs;\n\n    /// @dev mapping SLA=>bool to check if SLA is registered\n    mapping(address => bool) public registeredSLAs;\n\n    /// @dev bytes32 to store the available network names\n    bytes32[] public networkNames;\n\n    /// @dev mapping SLA=>bool to store the if the network is valid\n    mapping(bytes32 => bool) public validNetworks;\n\n    /// @dev stores the indexes of service level agreements owned by an user\n    mapping(address => uint256[]) private userToSLAIndexes;\n\n    /// @dev mapping userAddress => SLA[]\n    mapping(address => SLA[]) public userStakedSlas;\n\n    modifier onlyRegisteredSla {\n        require(registeredSLAs[msg.sender] == true, \"Only for registered SLAs\");\n        _;\n    }\n\n    /**\n     * @dev event for service level agreement creation logging\n     * @param sla 1. The address of the created service level agreement contract\n     * @param owner 2. The address of the owner of the service level agreement\n     */\n    event SLACreated(SLA indexed sla, address indexed owner);\n\n    /**\n     * @dev constructor\n     * @param _messengerAddress 1. the address of the chainlink messenger contract\n     * @param _sla_week_period_starts 3. array of the starts of the weeks period\n     * @param _sla_week_period_ends 4. array of the ends of the weeks period\n     * @param _networkNames 5. array of bytes32 with the names of the valid networks\n     */\n    constructor(\n        Messenger _messengerAddress,\n        uint256[] memory _sla_week_period_starts,\n        uint256[] memory _sla_week_period_ends,\n        bytes32[] memory _networkNames\n    ) public {\n        require(\n            _sla_week_period_starts.length == _sla_week_period_ends.length,\n            \"Periods starts and ends lengths should match\"\n        );\n        for (\n            uint256 index = 0;\n            index < _sla_week_period_starts.length;\n            index++\n        ) {\n            require(\n                _sla_week_period_starts[index] < _sla_week_period_ends[index],\n                \"Period end should be greater than period start\"\n            );\n            canonicalPeriods[index] = CanonicalPeriod({\n                start: _sla_week_period_starts[index],\n                end: _sla_week_period_ends[index]\n            });\n        }\n        messenger = _messengerAddress;\n        messenger.setSLARegistry();\n        networkNames = _networkNames;\n        canonicalPeriodLastID = _sla_week_period_starts.length - 1;\n    }\n\n    /**\n     * @dev public function for creating canonical service level agreements\n     * @param _owner 1. address of the owner of the service level agreement\n     * @param _SLONames 2. array of the names of the service level objectives\n     * in bytes32\n     * @param _SLOs 3. array of service level objective contract addressess\n     * service level objective breach\n     * @param _stake 4. uint of the amount required to stake when signing the\n     * service level agreement\n     * @param _ipfsHash 5. string with the ipfs hash that contains extra information about the service level agreement\n     * @param _baseTokenAddress 6. address of the base token\n     * @param _periodIds 7. array of week ids to look in the\n     */\n    function createSLA(\n        address _owner,\n        bytes32[] calldata _SLONames,\n        SLO[] calldata _SLOs,\n        uint256 _stake,\n        string memory _ipfsHash,\n        address _baseTokenAddress,\n        uint256[] calldata _periodIds\n    ) public {\n        require(_periodIds.length > 0, \"Periods information is empty\");\n\n        uint256[] memory period_starts = new uint256[](_periodIds.length);\n        uint256[] memory period_ends = new uint256[](_periodIds.length);\n        for (uint256 index = 0; index < _periodIds.length; index++) {\n            CanonicalPeriod memory period = canonicalPeriods[_periodIds[index]];\n            period_starts[index] = period.start;\n            period_ends[index] = period.end;\n        }\n        SLA sla =\n            new SLA(\n                _owner,\n                _SLONames,\n                _SLOs,\n                _stake,\n                _ipfsHash,\n                _baseTokenAddress,\n                period_starts,\n                period_ends\n            );\n\n        SLAs.push(sla);\n        registeredSLAs[address(sla)] = true;\n        uint256 index = SLAs.length.sub(1);\n\n        userToSLAIndexes[msg.sender].push(index);\n\n        emit SLACreated(sla, _owner);\n    }\n\n    /**\n     * @dev Gets SLI information for the specified SLA and SLO\n     * @param _periodId 1. id of the period\n     * @param _sla 2. SLA Address\n     * @param _sloName 3. SLO Name\n     * @notice it will revert if the SLO is not registered in the SLA\n     */\n    function requestSLI(\n        uint256 _periodId,\n        SLA _sla,\n        bytes32 _sloName\n    ) public {\n        require(\n            address(SLA(_sla).SLOs(_sloName)) != address(0),\n            \"_sloName does not exist in the SLA contract\"\n        );\n        (, uint256 sla_period_end, , , Staking.Status status, , ) =\n            _sla.periods(_periodId);\n        require(\n            status == Staking.Status.NotVerified,\n            \"SLA contract was already verified for the period\"\n        );\n        require(\n            sla_period_end < block.timestamp,\n            \"SLA contract period has not finished yet\"\n        );\n        messenger.requestSLI(_periodId, _sla, _sloName);\n    }\n\n    function isValidNetwork(bytes32 _networkName) internal view returns (bool) {\n        for (uint256 index; index < networkNames.length; index++) {\n            if (networkNames[index] == _networkName) return true;\n        }\n        return false;\n    }\n\n    /**\n     * @dev Request analytics object for the current period.\n     * @param _canonicalPeriodId 1. id of the canonical period to be analyzed\n     * @param _network 2. network name to publish analytics\n     */\n    function requestAnalytics(uint256 _canonicalPeriodId, bytes32 _network)\n        public\n    {\n        require(isValidNetwork(_network), \"Network name not recognized\");\n        CanonicalPeriod memory period = canonicalPeriods[_canonicalPeriodId];\n        require(period.end < block.timestamp, \"Period has not finished yet\");\n        require(\n            canonicalPeriodsAnalytics[_network][_canonicalPeriodId] == \"\",\n            \"Analytics object already published\"\n        );\n        messenger.requestAnalytics(_canonicalPeriodId, _network);\n    }\n\n    /**\n     * @dev Event to store a new analytics ipfs hash received\n     * @param _ipfsHash 1. id of the canonical period to be analyzed\n     * @param _network 2. network name to publish analytics\n     */\n    event AnalyticsReceived(\n        bytes32 _ipfsHash,\n        bytes32 _network,\n        uint256 _periodId\n    );\n\n    /**\n     * @dev Receives the data from the Messenger contract\n     * @param _ipfsHash 1. id of the canonical period to be analyzed\n     * @param _network 2. network name to publish analytics\n     */\n    function publishAnalyticsHash(\n        bytes32 _ipfsHash,\n        bytes32 _network,\n        uint256 _periodId\n    ) public {\n        require(\n            address(messenger) == msg.sender,\n            \"Can only be called by the Messenger contract\"\n        );\n        emit AnalyticsReceived(_ipfsHash, _network, _periodId);\n        canonicalPeriodsAnalytics[_network][_periodId] = _ipfsHash;\n    }\n\n    /**\n     * @dev public view function that returns the service level agreements that\n     * the given user is the owner of\n     * @param _user Address of the user for which to return the service level\n     * agreements\n     * @return array of SLAs\n     */\n    function userSLAs(address _user) public view returns (SLA[] memory) {\n        uint256 count = userSLACount(_user);\n        SLA[] memory SLAList = new SLA[](count);\n        uint256[] memory userSLAIndexes = userToSLAIndexes[_user];\n\n        for (uint256 i = 0; i < count; i++) {\n            SLAList[i] = (SLAs[userSLAIndexes[i]]);\n        }\n\n        return (SLAList);\n    }\n\n    /**\n     * @dev public view function that returns the amount of service level\n     * agreements the given user is the owner of\n     * @param _user 1. address of the user for which to return the amount of\n     * service level agreements\n     * @return uint256 corresponding to the amount of user's SLAs\n     */\n    function userSLACount(address _user) public view returns (uint256) {\n        return userToSLAIndexes[_user].length;\n    }\n\n    /**\n     * @dev public view function that returns all the service level agreements\n     * @return SLA[] array of SLAs\n     */\n    function allSLAs() public view returns (SLA[] memory) {\n        return (SLAs);\n    }\n\n    /**\n     * @dev public view function that returns the total amount of service\n     * level agreements\n     * @return uint256, the length of SLA array\n     */\n    function SLACount() public view returns (uint256) {\n        return SLAs.length;\n    }\n\n    /**\n     *@dev public view function that returns true if the _owner has staked on _sla\n     *@param _user 1. address to check\n     *@param _sla 2. sla to check\n     *@return bool, true if _sla was staked by _user\n     */\n    function slaWasStakedByUser(address _user, address _sla)\n        public\n        view\n        returns (bool)\n    {\n        for (uint256 index = 0; index < userStakedSlas[_user].length; index++) {\n            if (address(userStakedSlas[_user][index]) == _sla) {\n                return true;\n            }\n        }\n        return false;\n    }\n\n    /**\n     *@dev register the sending SLA contract as staked by _owner\n     *@param _owner 1. SLA contract to stake\n     */\n    function registerStakedSla(address _owner)\n        public\n        onlyRegisteredSla\n        returns (bool)\n    {\n        if (slaWasStakedByUser(_owner, msg.sender) == false) {\n            userStakedSlas[_owner].push(SLA(msg.sender));\n        }\n        return true;\n    }\n\n    /**\n     * @dev returns the active pools owned by a user.\n     * @param _slaOwner 1. owner of the active pool\n     * @return ActivePool[], array of structs: {SLAaddress,stake,assetName}\n     */\n    function getActivePool(address _slaOwner)\n        public\n        view\n        returns (ActivePool[] memory)\n    {\n        uint256 stakeCounter = 0;\n        // Count the stakes of the user, checking every SLA staked\n        for (\n            uint256 index = 0;\n            index < userStakedSlas[_slaOwner].length;\n            index++\n        ) {\n            SLA currentSLA = SLA(userStakedSlas[_slaOwner][index]);\n            stakeCounter = stakeCounter.add(\n                currentSLA.getTokenStakeLength(_slaOwner)\n            );\n        }\n\n        ActivePool[] memory activePools = new ActivePool[](stakeCounter);\n        // to insert on activePools array\n        uint256 stakePosition = 0;\n        for (\n            uint256 index = 0;\n            index < userStakedSlas[_slaOwner].length;\n            index++\n        ) {\n            SLA currentSLA = userStakedSlas[_slaOwner][index];\n            for (\n                uint256 tokenIndex = 0;\n                tokenIndex < currentSLA.getTokenStakeLength(_slaOwner);\n                tokenIndex++\n            ) {\n                (address tokenAddress, uint256 stake) =\n                    currentSLA.getTokenStake(_slaOwner, tokenIndex);\n                (, bytes memory tokenNameBytes) =\n                    tokenAddress.staticcall(\n                        abi.encodeWithSelector(NAME_SELECTOR)\n                    );\n                ActivePool memory currentActivePool =\n                    ActivePool({\n                        SLAaddress: address(currentSLA),\n                        stake: stake,\n                        assetName: string(tokenNameBytes),\n                        assetAddress: tokenAddress\n                    });\n                activePools[stakePosition] = currentActivePool;\n                stakePosition = stakePosition.add(1);\n            }\n        }\n        return activePools;\n    }\n}\n",
  "sourcePath": "/Users/matiasbn/Desktop/stacktical/stacktical-dsla-contracts/contracts/SLARegistry.sol",
  "compiler": {
    "name": "solc",
    "version": "0.6.12+commit.27d51765.Emscripten.clang"
  },
  "schemaVersion": "3.2.5",
  "updatedAt": "2021-01-28T21:14:43.183Z",
  "networkType": "ethereum",
  "devdoc": {
    "details": "SLARegistry is a contract for handling creation of service level agreements and keeping track of the created agreements",
    "events": {
      "AnalyticsReceived(bytes32,bytes32,uint256)": {
        "details": "Event to store a new analytics ipfs hash received",
        "params": {
          "_ipfsHash": "1. id of the canonical period to be analyzed",
          "_network": "2. network name to publish analytics"
        }
      },
      "SLACreated(address,address)": {
        "details": "event for service level agreement creation logging",
        "params": {
          "owner": "2. The address of the owner of the service level agreement",
          "sla": "1. The address of the created service level agreement contract"
        }
      }
    },
    "kind": "dev",
    "methods": {
      "SLACount()": {
        "details": "public view function that returns the total amount of service level agreements",
        "returns": {
          "_0": "uint256, the length of SLA array"
        }
      },
      "allSLAs()": {
        "details": "public view function that returns all the service level agreements",
        "returns": {
          "_0": "SLA[] array of SLAs"
        }
      },
      "constructor": {
        "details": "constructor",
        "params": {
          "_messengerAddress": "1. the address of the chainlink messenger contract",
          "_networkNames": "5. array of bytes32 with the names of the valid networks",
          "_sla_week_period_ends": "4. array of the ends of the weeks period",
          "_sla_week_period_starts": "3. array of the starts of the weeks period"
        }
      },
      "createSLA(address,bytes32[],address[],uint256,string,address,uint256[])": {
        "details": "public function for creating canonical service level agreements",
        "params": {
          "_SLONames": "2. array of the names of the service level objectives in bytes32",
          "_SLOs": "3. array of service level objective contract addressess service level objective breach",
          "_baseTokenAddress": "6. address of the base token",
          "_ipfsHash": "5. string with the ipfs hash that contains extra information about the service level agreement",
          "_owner": "1. address of the owner of the service level agreement",
          "_periodIds": "7. array of week ids to look in the",
          "_stake": "4. uint of the amount required to stake when signing the service level agreement"
        }
      },
      "getActivePool(address)": {
        "details": "returns the active pools owned by a user.",
        "params": {
          "_slaOwner": "1. owner of the active pool"
        },
        "returns": {
          "_0": "ActivePool[], array of structs: {SLAaddress,stake,assetName}"
        }
      },
      "publishAnalyticsHash(bytes32,bytes32,uint256)": {
        "details": "Receives the data from the Messenger contract",
        "params": {
          "_ipfsHash": "1. id of the canonical period to be analyzed",
          "_network": "2. network name to publish analytics"
        }
      },
      "registerStakedSla(address)": {
        "details": "register the sending SLA contract as staked by _owner",
        "params": {
          "_owner": "1. SLA contract to stake"
        }
      },
      "requestAnalytics(uint256,bytes32)": {
        "details": "Request analytics object for the current period.",
        "params": {
          "_canonicalPeriodId": "1. id of the canonical period to be analyzed",
          "_network": "2. network name to publish analytics"
        }
      },
      "requestSLI(uint256,address,bytes32)": {
        "details": "Gets SLI information for the specified SLA and SLO",
        "params": {
          "_periodId": "1. id of the period",
          "_sla": "2. SLA Address",
          "_sloName": "3. SLO Name"
        }
      },
      "slaWasStakedByUser(address,address)": {
        "details": "public view function that returns true if the _owner has staked on _sla",
        "params": {
          "_sla": "2. sla to check",
          "_user": "1. address to check"
        },
        "returns": {
          "_0": "bool, true if _sla was staked by _user"
        }
      },
      "userSLACount(address)": {
        "details": "public view function that returns the amount of service level agreements the given user is the owner of",
        "params": {
          "_user": "1. address of the user for which to return the amount of service level agreements"
        },
        "returns": {
          "_0": "uint256 corresponding to the amount of user's SLAs"
        }
      },
      "userSLAs(address)": {
        "details": "public view function that returns the service level agreements that the given user is the owner of",
        "params": {
          "_user": "Address of the user for which to return the service level agreements"
        },
        "returns": {
          "_0": "array of SLAs"
        }
      }
    },
    "stateVariables": {
      "SLAs": {
        "details": "stores the addresses of created SLAs"
      },
      "canonicalPeriodLastID": {
        "details": "mapping periodId=>CanonicalPeriod to check if SLA is registered"
      },
      "canonicalPeriods": {
        "details": "mapping periodId=>CanonicalPeriod to check if SLA is registered"
      },
      "canonicalPeriodsAnalytics": {
        "details": "mapping networkName=>periodId=>bytes32 to store ipfsHash of the analytics corresponding to periodId"
      },
      "messenger": {
        "details": "Messenger of the SLA Registry"
      },
      "networkNames": {
        "details": "bytes32 to store the available network names"
      },
      "registeredSLAs": {
        "details": "mapping SLA=>bool to check if SLA is registered"
      },
      "userStakedSlas": {
        "details": "mapping userAddress => SLA[]"
      },
      "userToSLAIndexes": {
        "details": "stores the indexes of service level agreements owned by an user"
      },
      "validNetworks": {
        "details": "mapping SLA=>bool to store the if the network is valid"
      }
    },
    "title": "SLARegistry",
    "version": 1
  },
  "userdoc": {
    "kind": "user",
    "methods": {
      "requestSLI(uint256,address,bytes32)": {
        "notice": "it will revert if the SLO is not registered in the SLA"
      }
    },
    "version": 1
  }
}