{
  "contractName": "SLARegistry",
  "abi": [
    {
      "inputs": [
        {
          "internalType": "contract SLORegistry",
          "name": "_sloRegistry",
          "type": "address"
        },
        {
          "internalType": "contract PeriodRegistry",
          "name": "_periodRegistry",
          "type": "address"
        },
        {
          "internalType": "contract MessengerRegistry",
          "name": "_messengerRegistry",
          "type": "address"
        },
        {
          "internalType": "contract StakeRegistry",
          "name": "_stakeRegistry",
          "type": "address"
        }
      ],
      "stateMutability": "nonpayable",
      "type": "constructor"
    },
    {
      "anonymous": false,
      "inputs": [
        {
          "indexed": true,
          "internalType": "address",
          "name": "previousOwner",
          "type": "address"
        },
        {
          "indexed": true,
          "internalType": "address",
          "name": "newOwner",
          "type": "address"
        }
      ],
      "name": "OwnershipTransferred",
      "type": "event"
    },
    {
      "anonymous": false,
      "inputs": [
        {
          "indexed": true,
          "internalType": "contract SLA",
          "name": "sla",
          "type": "address"
        },
        {
          "indexed": true,
          "internalType": "address",
          "name": "owner",
          "type": "address"
        }
      ],
      "name": "SLACreated",
      "type": "event"
    },
    {
      "inputs": [
        {
          "internalType": "uint256",
          "name": "",
          "type": "uint256"
        }
      ],
      "name": "SLAs",
      "outputs": [
        {
          "internalType": "contract SLA",
          "name": "",
          "type": "address"
        }
      ],
      "stateMutability": "view",
      "type": "function"
    },
    {
      "inputs": [],
      "name": "messengerRegistry",
      "outputs": [
        {
          "internalType": "contract MessengerRegistry",
          "name": "",
          "type": "address"
        }
      ],
      "stateMutability": "view",
      "type": "function"
    },
    {
      "inputs": [],
      "name": "owner",
      "outputs": [
        {
          "internalType": "address",
          "name": "",
          "type": "address"
        }
      ],
      "stateMutability": "view",
      "type": "function"
    },
    {
      "inputs": [],
      "name": "periodRegistry",
      "outputs": [
        {
          "internalType": "contract PeriodRegistry",
          "name": "",
          "type": "address"
        }
      ],
      "stateMutability": "view",
      "type": "function"
    },
    {
      "inputs": [],
      "name": "renounceOwnership",
      "outputs": [],
      "stateMutability": "nonpayable",
      "type": "function"
    },
    {
      "inputs": [],
      "name": "sloRegistry",
      "outputs": [
        {
          "internalType": "contract SLORegistry",
          "name": "",
          "type": "address"
        }
      ],
      "stateMutability": "view",
      "type": "function"
    },
    {
      "inputs": [],
      "name": "stakeRegistry",
      "outputs": [
        {
          "internalType": "contract StakeRegistry",
          "name": "",
          "type": "address"
        }
      ],
      "stateMutability": "view",
      "type": "function"
    },
    {
      "inputs": [
        {
          "internalType": "address",
          "name": "newOwner",
          "type": "address"
        }
      ],
      "name": "transferOwnership",
      "outputs": [],
      "stateMutability": "nonpayable",
      "type": "function"
    },
    {
      "inputs": [
        {
          "internalType": "contract SLO",
          "name": "_SLO",
          "type": "address"
        },
        {
          "internalType": "string",
          "name": "_ipfsHash",
          "type": "string"
        },
        {
          "internalType": "enum PeriodRegistry.PeriodType",
          "name": "_periodType",
          "type": "uint8"
        },
        {
          "internalType": "uint256[]",
          "name": "_periodIds",
          "type": "uint256[]"
        },
        {
          "internalType": "address",
          "name": "_messengerAddress",
          "type": "address"
        },
        {
          "internalType": "bool",
          "name": "_whitelisted",
          "type": "bool"
        },
        {
          "internalType": "bytes32[]",
          "name": "_extraData",
          "type": "bytes32[]"
        }
      ],
      "name": "createSLA",
      "outputs": [],
      "stateMutability": "nonpayable",
      "type": "function"
    },
    {
      "inputs": [
        {
          "internalType": "uint256",
          "name": "_periodId",
          "type": "uint256"
        },
        {
          "internalType": "contract SLA",
          "name": "_sla",
          "type": "address"
        }
      ],
      "name": "requestSLI",
      "outputs": [],
      "stateMutability": "nonpayable",
      "type": "function"
    },
    {
      "inputs": [
        {
          "internalType": "contract SLA",
          "name": "_sla",
          "type": "address"
        }
      ],
      "name": "returnLockedValue",
      "outputs": [],
      "stateMutability": "nonpayable",
      "type": "function"
    },
    {
      "inputs": [
        {
          "internalType": "address",
          "name": "_messengerAddress",
          "type": "address"
        }
      ],
      "name": "setMessengerSLARegistryAddress",
      "outputs": [],
      "stateMutability": "nonpayable",
      "type": "function"
    },
    {
      "inputs": [
        {
          "internalType": "address",
          "name": "_user",
          "type": "address"
        }
      ],
      "name": "userSLAs",
      "outputs": [
        {
          "internalType": "contract SLA[]",
          "name": "",
          "type": "address[]"
        }
      ],
      "stateMutability": "view",
      "type": "function"
    },
    {
      "inputs": [
        {
          "internalType": "address",
          "name": "_user",
          "type": "address"
        }
      ],
      "name": "userSLACount",
      "outputs": [
        {
          "internalType": "uint256",
          "name": "",
          "type": "uint256"
        }
      ],
      "stateMutability": "view",
      "type": "function"
    },
    {
      "inputs": [],
      "name": "allSLAs",
      "outputs": [
        {
          "internalType": "contract SLA[]",
          "name": "",
          "type": "address[]"
        }
      ],
      "stateMutability": "view",
      "type": "function"
    },
    {
      "inputs": [],
      "name": "SLACount",
      "outputs": [
        {
          "internalType": "uint256",
          "name": "",
          "type": "uint256"
        }
      ],
      "stateMutability": "view",
      "type": "function"
    },
    {
      "inputs": [
        {
          "internalType": "address",
          "name": "_slaAddress",
          "type": "address"
        }
      ],
      "name": "isRegisteredSLA",
      "outputs": [
        {
          "internalType": "bool",
          "name": "",
          "type": "bool"
        }
      ],
      "stateMutability": "view",
      "type": "function"
    }
  ],
  "bytecode": "0x60806040523480156200001157600080fd5b5060405162006143380380620061438339810160408190526200003491620001a8565b6000620000496001600160e01b03620001a416565b600080546001600160a01b0319166001600160a01b0383169081178255604051929350917f8be0079c531659141344cd1fd0a4f28419497f9722a3daafe3b4186f6b6457e0908290a350600180546001600160a01b038087166001600160a01b03199283161790925560028054868416908316179055600480548484169216919091178082556040805163f388158960e01b81529051919093169263f3881589928181019260009290919082900301818387803b1580156200010a57600080fd5b505af11580156200011f573d6000803e3d6000fd5b5050600380546001600160a01b0319166001600160a01b0386811691909117918290556040805163f388158960e01b8152905192909116935063f3881589925060048082019260009290919082900301818387803b1580156200018157600080fd5b505af115801562000196573d6000803e3d6000fd5b505050505050505062000228565b3390565b60008060008060808587031215620001be578384fd5b8451620001cb816200020f565b6020860151909450620001de816200020f565b6040860151909350620001f1816200020f565b606086015190925062000204816200020f565b939692955090935050565b6001600160a01b03811681146200022557600080fd5b50565b615f0b80620002386000396000f3fe60806040523480156200001157600080fd5b5060043610620001005760003560e01c8063816ff986116200009f578063816ff98614620001b25780638da5cb5b14620001cb57806396bddc1014620001d55780639fc4caa514620001df578063c4277a7b14620001e9578063d1994408146200020f578063e9b1e98c1462000226578063ec9176ba146200023d578063f2fde38b14620002545762000100565b80632575d7ca146200010557806350c5abfe146200011e578063516c2857146200014d5780635a7d1e5d14620001735780635c4df332146200017d5780636435dc9c146200018757806368304835146200019e578063715018a614620001a8575b600080fd5b6200011c6200011636600462001735565b6200026b565b005b620001356200012f366004620018e7565b620006db565b60405162000144919062001a49565b60405180910390f35b620001646200015e36600462001735565b62000703565b60405162000144919062001b59565b620001356200084f565b620001356200085e565b6200011c6200019836600462001735565b6200086d565b620001356200092d565b6200011c6200093c565b620001bc620009c0565b60405162000144919062002041565b62000135620009c6565b62000164620009d5565b6200013562000a39565b62000200620001fa36600462001735565b62000a48565b60405162000144919062001ba8565b6200011c6200022036600462001919565b62000aa8565b620001bc6200023736600462001735565b62000fc1565b6200011c6200024e36600462001799565b62000fdc565b6200011c6200026536600462001735565b6200154c565b806001600160a01b0316638da5cb5b6040518163ffffffff1660e01b815260040160206040518083038186803b158015620002a557600080fd5b505afa158015620002ba573d6000803e3d6000fd5b505050506040513d601f19601f82011682018060405250810190620002e091906200175b565b6001600160a01b0316336001600160a01b0316146200031c5760405162461bcd60e51b8152600401620003139062001ecb565b60405180910390fd5b6000816001600160a01b0316635fc1b5fd6040518163ffffffff1660e01b815260040160206040518083038186803b1580156200035857600080fd5b505afa1580156200036d573d6000803e3d6000fd5b505050506040513d601f19601f8201168201806040525081019062000393919062001900565b90506000826001600160a01b0316630ae9ea45600184036040518263ffffffff1660e01b8152600401620003c8919062002041565b60206040518083038186803b158015620003e157600080fd5b505afa158015620003f6573d6000803e3d6000fd5b505050506040513d601f19601f820116820180604052508101906200041c919062001900565b90506000836001600160a01b03166346e0fbae6040518163ffffffff1660e01b815260040160206040518083038186803b1580156200045a57600080fd5b505afa1580156200046f573d6000803e3d6000fd5b505050506040513d601f19601f82011682018060405250810190620004959190620018c8565b60025460405160016259edcb60e01b031981529192506000916001600160a01b039091169063ffa6123590620004d2908590879060040162001bca565b604080518083038186803b158015620004ea57600080fd5b505afa158015620004ff573d6000803e3d6000fd5b505050506040513d601f19601f820116820180604052508101906200052591906200194b565b9150506000856001600160a01b0316634190edde856040518263ffffffff1660e01b815260040162000558919062002041565b60606040518083038186803b1580156200057157600080fd5b505afa15801562000586573d6000803e3d6000fd5b505050506040513d601f19601f82011682018060405250810190620005ac91906200196f565b92505050856001600160a01b0316637fd788aa6040518163ffffffff1660e01b815260040160206040518083038186803b158015620005ea57600080fd5b505afa158015620005ff573d6000803e3d6000fd5b505050506040513d601f19601f820116820180604052508101906200062591906200177a565b1515600114806200064f57508142101580156200064f575060008160028111156200064c57fe5b14155b6200066e5760405162461bcd60e51b8152600401620003139062001c81565b600480546040516312baebe560e11b81526001600160a01b0390911691632575d7ca916200069f918a910162001a49565b600060405180830381600087803b158015620006ba57600080fd5b505af1158015620006cf573d6000803e3d6000fd5b50505050505050505050565b60058181548110620006e957fe5b6000918252602090912001546001600160a01b0316905081565b60606000620007128362000fc1565b905060608167ffffffffffffffff811180156200072e57600080fd5b5060405190808252806020026020018201604052801562000759578160200160208202803683370190505b506001600160a01b03851660009081526006602090815260409182902080548351818402810184019094528084529394506060939091830182828015620007c057602002820191906000526020600020905b815481526020019060010190808311620007ab575b50939450600093505050505b8381101562000843576005828281518110620007e457fe5b602002602001015181548110620007f757fe5b9060005260206000200160009054906101000a90046001600160a01b03168382815181106200082257fe5b6001600160a01b0390921660209283029190910190910152600101620007cc565b5090925050505b919050565b6001546001600160a01b031681565b6003546001600160a01b031681565b806001600160a01b031663f38815896040518163ffffffff1660e01b8152600401600060405180830381600087803b158015620008a957600080fd5b505af1158015620008be573d6000803e3d6000fd5b50506003546040516319d71f1f60e31b81526001600160a01b03909116925063ceb8f8f89150620008f6908490339060040162001b3f565b600060405180830381600087803b1580156200091157600080fd5b505af115801562000926573d6000803e3d6000fd5b5050505050565b6004546001600160a01b031681565b620009466200160a565b6000546001600160a01b03908116911614620009765760405162461bcd60e51b8152600401620003139062001f47565b600080546040516001600160a01b03909116907f8be0079c531659141344cd1fd0a4f28419497f9722a3daafe3b4186f6b6457e0908390a3600080546001600160a01b0319169055565b60055490565b6000546001600160a01b031690565b6060600580548060200260200160405190810160405280929190818152602001828054801562000a2f57602002820191906000526020600020905b81546001600160a01b0316815260019091019060200180831162000a10575b5050505050905090565b6002546001600160a01b031681565b6000805b60055481101562000a9f57826001600160a01b03166005828154811062000a6f57fe5b6000918252602090912001546001600160a01b0316141562000a965760019150506200084a565b60010162000a4c565b50600092915050565b806001600160a01b031663b1659bad6040518163ffffffff1660e01b815260040160206040518083038186803b15801562000ae257600080fd5b505afa15801562000af7573d6000803e3d6000fd5b505050506040513d601f19601f8201168201806040525081019062000b1d919062001900565b821462000b3e5760405162461bcd60e51b8152600401620003139062001f10565b6040516320c876ef60e11b81526000906001600160a01b03831690634190edde9062000b6f90869060040162002041565b60606040518083038186803b15801562000b8857600080fd5b505afa15801562000b9d573d6000803e3d6000fd5b505050506040513d601f19601f8201168201806040525081019062000bc391906200196f565b92506000915062000bd19050565b81600281111562000bde57fe5b1462000bfe5760405162461bcd60e51b8152600401620003139062001dac565b6000826001600160a01b0316637fd788aa6040518163ffffffff1660e01b815260040160206040518083038186803b15801562000c3a57600080fd5b505afa15801562000c4f573d6000803e3d6000fd5b505050506040513d601f19601f8201168201806040525081019062000c7591906200177a565b9050801562000c985760405162461bcd60e51b8152600401620003139062001e7b565b60405163021eef7f60e01b81526000906001600160a01b0385169063021eef7f9062000cc990889060040162002041565b60206040518083038186803b15801562000ce257600080fd5b505afa15801562000cf7573d6000803e3d6000fd5b505050506040513d601f19601f8201168201806040525081019062000d1d91906200177a565b905060018115151462000d445760405162461bcd60e51b8152600401620003139062001fbe565b6000846001600160a01b03166346e0fbae6040518163ffffffff1660e01b815260040160206040518083038186803b15801562000d8057600080fd5b505afa15801562000d95573d6000803e3d6000fd5b505050506040513d601f19601f8201168201806040525081019062000dbb9190620018c8565b6002546040516331edb3ad60e21b81529192506000916001600160a01b039091169063c7b6ceb49062000df59085908b9060040162001bca565b60206040518083038186803b15801562000e0e57600080fd5b505afa15801562000e23573d6000803e3d6000fd5b505050506040513d601f19601f8201168201806040525081019062000e4991906200177a565b905060018115151462000e705760405162461bcd60e51b8152600401620003139062001dfc565b6000866001600160a01b031663a224ee9c6040518163ffffffff1660e01b815260040160206040518083038186803b15801562000eac57600080fd5b505afa15801562000ec1573d6000803e3d6000fd5b505050506040513d601f19601f8201168201806040525081019062000ee791906200175b565b604051631a33288160e31b81529091506001600160a01b0382169063d19944089062000f1a908b908b906004016200204a565b600060405180830381600087803b15801562000f3557600080fd5b505af115801562000f4a573d6000803e3d6000fd5b5050600480546040516308bcf0cf60e21b81526001600160a01b0390911693506322f3c33c925062000f83918b9133918e910162001a5d565b600060405180830381600087803b15801562000f9e57600080fd5b505af115801562000fb3573d6000803e3d6000fd5b505050505050505050505050565b6001600160a01b031660009081526006602052604090205490565b600254604051635c98d15760e01b81526000916001600160a01b031690635c98d157906200100f90899060040162001bb3565b60206040518083038186803b1580156200102857600080fd5b505afa1580156200103d573d6000803e3d6000fd5b505050506040513d601f19601f820116820180604052508101906200106391906200177a565b90506001811515146200108a5760405162461bcd60e51b8152600401620003139062001f7c565b600154604051636891286d60e11b81526001600160a01b039091169063d12250da90620010bc908b9060040162001a49565b60206040518083038186803b158015620010d557600080fd5b505afa158015620010ea573d6000803e3d6000fd5b505050506040513d601f19601f820116820180604052508101906200111091906200177a565b1515600114620011345760405162461bcd60e51b8152600401620003139062001c40565b6000855111620011585760405162461bcd60e51b8152600401620003139062001e44565b60005b8551811015620012ef5760025486516000916001600160a01b03169063ddfc4fde908a908a90869081106200118c57fe5b60200260200101516040518363ffffffff1660e01b8152600401620011b392919062001bca565b60206040518083038186803b158015620011cc57600080fd5b505afa158015620011e1573d6000803e3d6000fd5b505050506040513d601f19601f820116820180604052508101906200120791906200177a565b905080620012295760405162461bcd60e51b8152600401620003139062001d04565b6001875103821015620012e5578682600101815181106200124657fe5b60200260200101518783815181106200125b57fe5b602002602001015110620012835760405162461bcd60e51b815260040162000313906200200a565b620012c38783815181106200129457fe5b6020026020010151888460010181518110620012ac57fe5b60200260200101516200160e90919063ffffffff16565b600114620012e55760405162461bcd60e51b8152600401620003139062001d77565b506001016200115b565b5060035460405163ef4003db60e01b81526000916001600160a01b03169063ef4003db906200132390889060040162001a49565b60206040518083038186803b1580156200133c57600080fd5b505afa15801562001351573d6000803e3d6000fd5b505050506040513d601f19601f820116820180604052508101906200137791906200177a565b90506001811515146200139e5760405162461bcd60e51b8152600401620003139062001bfd565b6000338a8a888a8c600460009054906101000a90046001600160a01b0316600260009054906101000a90046001600160a01b03168c8c600580549050604051620013e8906200168a565b620013fe9b9a9998979695949392919062001a81565b604051809103906000f0801580156200141b573d6000803e3d6000fd5b50600480548951604051633d7da60560e11b81529394506001600160a01b0390911692637afb4c0a926200145492339287920162001a5d565b600060405180830381600087803b1580156200146f57600080fd5b505af115801562001484573d6000803e3d6000fd5b5050600580546001808201835560008381527f036b6384b5eca791c62761152d0c79bb0604c104a5fb6f4eb0703f3154bb3db090920180546001600160a01b0319166001600160a01b0388161790559154909350620014e59250906200160e565b33600081815260066020908152604080832080546001810182559084529183209091018490555192935090916001600160a01b038516917fb52f284a6c14f1a66ab5513b5b539066933e58e69e6432666f0e3c8c8a7d750391a35050505050505050505050565b620015566200160a565b6000546001600160a01b03908116911614620015865760405162461bcd60e51b8152600401620003139062001f47565b6001600160a01b038116620015af5760405162461bcd60e51b8152600401620003139062001d31565b600080546040516001600160a01b03808516939216917f8be0079c531659141344cd1fd0a4f28419497f9722a3daafe3b4186f6b6457e091a3600080546001600160a01b0319166001600160a01b0392909216919091179055565b3390565b60006200165283836040518060400160405280601e81526020017f536166654d6174683a207375627472616374696f6e206f766572666c6f7700008152506200165b565b90505b92915050565b60008184841115620016825760405162461bcd60e51b815260040162000313919062001be8565b505050900390565b613de980620020ed83390190565b80356200165581620020b6565b600082601f830112620016b6578081fd5b8135620016cd620016c78262002089565b62002061565b818152915060208083019084810181840286018201871015620016ef57600080fd5b60005b848110156200171057813584529282019290820190600101620016f2565b505050505092915050565b80356200165581620020cf565b80356200165581620020de565b60006020828403121562001747578081fd5b81356200175481620020b6565b9392505050565b6000602082840312156200176d578081fd5b81516200175481620020b6565b6000602082840312156200178c578081fd5b81516200175481620020cf565b600080600080600080600060e0888a031215620017b4578283fd5b8735620017c181620020b6565b965060208881013567ffffffffffffffff80821115620017df578586fd5b818b018c601f820112620017f1578687fd5b803592508183111562001802578687fd5b62001816601f8401601f1916850162002061565b8381528d858584010111156200182a578788fd5b838583018683013787858583010152809a5050506200184d8c60408d0162001728565b975060608b013592508083111562001863578586fd5b620018718c848d01620016a5565b9650620018828c60808d0162001698565b9550620018938c60a08d016200171b565b945060c08b0135925080831115620018a9578384fd5b5050620018b98a828b01620016a5565b91505092959891949750929550565b600060208284031215620018da578081fd5b81516200175481620020de565b600060208284031215620018f9578081fd5b5035919050565b60006020828403121562001912578081fd5b5051919050565b600080604083850312156200192c578182fd5b8235915060208301356200194081620020b6565b809150509250929050565b600080604083850312156200195e578182fd5b505080516020909101519092909150565b60008060006060848603121562001984578081fd5b8351925060208401519150604084015160038110620019a1578182fd5b809150509250925092565b6001600160a01b03169052565b6000815180845260208085019450808401835b83811015620019ea57815187529582019590820190600101620019cc565b509495945050505050565b15159052565b60008151808452815b8181101562001a225760208185018101518683018201520162001a04565b8181111562001a345782602083870101525b50601f01601f19169290920160200192915050565b6001600160a01b0391909116815260200190565b6001600160a01b039384168152919092166020820152604081019190915260600190565b6001600160a01b038c811682528b811660208301526101606040830181905260009162001ab18483018e620019fb565b818d166060860152848103608086015262001acd818d620019b9565b925050506006891062001adc57fe5b8860a084015262001af160c0840189620019ac565b62001b0060e0840188620019ac565b62001b10610100840187620019f5565b82810361012084015262001b258186620019b9565b915050826101408301529c9b505050505050505050505050565b6001600160a01b0392831681529116602082015260400190565b6020808252825182820181905260009190848201906040850190845b8181101562001b9c5783516001600160a01b03168352928401929184019160010162001b75565b50909695505050505050565b901515815260200190565b6020810162001bc283620020aa565b825292915050565b6040810162001bd984620020aa565b82528260208301529392505050565b600060208252620016526020830184620019fb565b60208082526023908201527f6d657373656e6765722061646472657373206973206e6f7420726567697374656040820152621c995960ea1b606082015260800190565b60208082526021908201527f534c4f206e6f742072656769737465726564206f6e20534c4f526567697374726040820152607960f81b606082015260800190565b6020808252605f908201527f43616e206f6e6c79207769746864726177206c6f636b65642044534c4120616660408201527f746572207468652066696e616c20706572696f6420697320766572696669656460608201527f206f722069662074686520636f6e747261637420697320627265616368656400608082015260a00190565b60208082526013908201527214195c9a5bd9081a59081b9bdd081d985b1a59606a1b604082015260600190565b60208082526026908201527f4f776e61626c653a206e6577206f776e657220697320746865207a65726f206160408201526564647265737360d01b606082015260800190565b6020808252818101527f506572696f64206964732073686f756c6420626520636f6e7365637574697665604082015260600190565b60208082526030908201527f534c4120636f6e74726163742077617320616c7265616479207665726966696560408201526f1908199bdc881d1a19481c195c9a5bd960821b606082015260800190565b60208082526028908201527f534c4120636f6e747261637420706572696f6420686173206e6f742066696e696040820152671cda1959081e595d60c21b606082015260800190565b6020808252601c908201527f506572696f647320696e666f726d6174696f6e20697320656d70747900000000604082015260600190565b60208082526030908201527f53686f756c64206f6e6c792062652063616c6c656420666f72206e6f7420627260408201526f65616368656420636f6e74726163747360801b606082015260800190565b60208082526025908201527f4f6e6c7920534c41206f776e65722063616e20636c61696d206c6f636b65642060408201526476616c756560d81b606082015260800190565b6020808252601e908201527f53686f756c64206f6e6c7920766572696679206e65787420706572696f640000604082015260600190565b6020808252818101527f4f776e61626c653a2063616c6c6572206973206e6f7420746865206f776e6572604082015260600190565b60208082526022908201527f506572696f642074797065206973206e6f7420696e697469616c697a65642079604082015261195d60f21b606082015260800190565b6020808252602c908201527f506572696f64204944206e6f74207265676973746572656420696e207468652060408201526b14d3104818dbdb9d1c9858dd60a21b606082015260800190565b6020808252601c908201527f506572696f64206964732073686f756c6420626520736f727465642000000000604082015260600190565b90815260200190565b9182526001600160a01b0316602082015260400190565b60405181810167ffffffffffffffff811182821017156200208157600080fd5b604052919050565b600067ffffffffffffffff821115620020a0578081fd5b5060209081020190565b80600681106200084a57fe5b6001600160a01b0381168114620020cc57600080fd5b50565b8015158114620020cc57600080fd5b60068110620020cc57600080fdfe60806040526015805460ff60a01b191690553480156200001e57600080fd5b5060405162003de938038062003de98339810160408190526200004191620006e1565b8484878951868560006200005a6200033c60201b60201c565b600080546001600160a01b0319166001600160a01b03831690811782556040519293509160008051602062003dc9833981519152908290a350600180546001600160a01b038089166001600160a01b03199283161783556002805491891691909216179055600c8054869260ff1990911690836005811115620000d957fe5b0217905550600d839055600e805460ff191683151517905560015460408051637b8041cf60e11b815290516000926001600160a01b03169163f700839e9160048083019260a0929190829003018186803b1580156200013757600080fd5b505afa1580156200014c573d6000803e3d6000fd5b505050506040513d601f19601f8201168201806040525081019062000172919062000812565b505060015460408051638b8e530960e01b815290519495506001600160a01b0390911693638b8e5309935060048083019350602092829003018186803b158015620001bc57600080fd5b505afa158015620001d1573d6000803e3d6000fd5b505050506040513d601f19601f82011682018060405250810190620001f79190620006bb565b600980546001600160a01b0319166001600160a01b0392909216919091179055600b819055620002273362000341565b50600355506200024793508e9250506001600160e01b03620003ed169050565b88516200025c9060119060208c0190620004a3565b50601580546001600160a01b03808b166001600160a01b03199283161790925560148054909116331790556012805491861661010002610100600160a81b0319909216919091179055436017558651620002be9060139060208a019062000528565b506012805487919060ff19166001836005811115620002d957fe5b0217905550601080546001600160a01b0319166001600160a01b038c1617905581516200030e90601890602085019062000528565b50866000815181106200031d57fe5b6020026020010151601981905550505050505050505050505062000964565b335b90565b620003546001600160e01b036200033c16565b6000546001600160a01b039081169116146200038d5760405162461bcd60e51b81526004016200038490620008cf565b60405180910390fd5b6001600160a01b0381166000908152600f602052604090205460ff1615620003c95760405162461bcd60e51b8152600401620003849062000852565b6001600160a01b03166000908152600f60205260409020805460ff19166001179055565b620004006001600160e01b036200033c16565b6000546001600160a01b03908116911614620004305760405162461bcd60e51b81526004016200038490620008cf565b6001600160a01b038116620004595760405162461bcd60e51b8152600401620003849062000889565b600080546040516001600160a01b038085169392169160008051602062003dc983398151915291a3600080546001600160a01b0319166001600160a01b0392909216919091179055565b828054600181600116156101000203166002900490600052602060002090601f016020900481019282601f10620004e657805160ff191683800117855562000516565b8280016001018555821562000516579182015b8281111562000516578251825591602001919060010190620004f9565b506200052492915062000565565b5090565b82805482825590600052602060002090810192821562000516579160200282018281111562000516578251825591602001919060010190620004f9565b6200033e91905b808211156200052457600081556001016200056c565b80516200058f816200094b565b92915050565b600082601f830112620005a6578081fd5b8151620005bd620005b7826200092b565b62000904565b818152915060208083019084810181840286018201871015620005df57600080fd5b60005b848110156200060057815184529282019290820190600101620005e2565b505050505092915050565b805180151581146200058f57600080fd5b8051600681106200058f57600080fd5b600082601f8301126200063d578081fd5b81516001600160401b0381111562000653578182fd5b602062000669601f8301601f1916820162000904565b925081835284818386010111156200068057600080fd5b60005b82811015620006a057848101820151848201830152810162000683565b82811115620006b25760008284860101525b50505092915050565b600060208284031215620006cd578081fd5b8151620006da816200094b565b9392505050565b60008060008060008060008060008060006101608c8e03121562000703578687fd5b6200070f8d8d62000582565b9a50620007208d60208e0162000582565b60408d0151909a506001600160401b038111156200073c578788fd5b6200074a8e828f016200062c565b9950506200075c8d60608e0162000582565b60808d01519098506001600160401b0381111562000778578788fd5b620007868e828f0162000595565b975050620007988d60a08e016200061c565b9550620007a98d60c08e0162000582565b9450620007ba8d60e08e0162000582565b9350620007cc8d6101008e016200060b565b6101208d01519093506001600160401b03811115620007e9578283fd5b620007f78e828f0162000595565b9250506101408c015190509295989b509295989b9093969950565b600080600080600060a086880312156200082a578081fd5b5050835160208501516040860151606087015160809097015192989197509594509092509050565b60208082526018908201527f5573657220616c72656164792077686974656c69737465640000000000000000604082015260600190565b60208082526026908201527f4f776e61626c653a206e6577206f776e657220697320746865207a65726f206160408201526564647265737360d01b606082015260800190565b6020808252818101527f4f776e61626c653a2063616c6c6572206973206e6f7420746865206f776e6572604082015260600190565b6040518181016001600160401b03811182821017156200092357600080fd5b604052919050565b60006001600160401b0382111562000941578081fd5b5060209081020190565b6001600160a01b03811681146200096157600080fd5b50565b61345580620009746000396000f3fe608060405234801561001057600080fd5b50600436106102695760003560e01c8063747b805011610151578063c623674f116100c3578063db69a46211610087578063db69a462146104e6578063f2db10fe146104ee578063f2fde38b146104f6578063f7e9dfff14610509578063f9902bb114610511578063fd5e6dd11461052457610269565b8063c623674f14610490578063c8b5c248146104a5578063cbe230c3146104b8578063cd92890e146104cb578063d7a5c422146104d357610269565b80639fabeb00116101155780639fabeb00146104555780639fc4caa51461045d578063a224ee9c14610465578063b1659bad1461046d578063b7bc347e14610475578063c26ff6151461047d57610269565b8063747b80501461040c57806378025ec41461041f5780637fd788aa146104325780638da5cb5b1461043a5780639b19251a1461044257610269565b8063484fbf2b116101ea5780635e5f2e26116101ae5780635e5f2e26146103b05780635fc1b5fd146103c3578063639b6fc3146103cb5780636f1e8533146103de578063715018a6146103f1578063740882ac146103f957610269565b8063484fbf2b146103415780634e0c91f6146103545780634fb2647e1461037457806357ac94f0146103875780635c1c20de146103a857610269565b806318e454271161023157806318e45427146102e75780631bf30929146102ef57806326db18ac146102f75780634190edde1461030a57806346e0fbae1461032c57610269565b8063021eef7f1461026e5780630ae9ea45146102975780630bea440d146102b75780630c5160f4146102cc578063171e44ea146102d4575b600080fd5b61028161027c366004612bb3565b610537565b60405161028e9190612e01565b60405180910390f35b6102aa6102a5366004612bb3565b610581565b60405161028e9190612e0c565b6102ca6102c5366004612be3565b61059f565b005b6102aa6107f9565b6102ca6102e2366004612a04565b6107ff565b610281610bc8565b6102aa610bd1565b6102ca610305366004612be3565b610bd7565b61031d610318366004612bb3565b610d3c565b60405161028e93929190613350565b610334610d60565b60405161028e9190612e15565b6102aa61034f366004612a04565b610d69565b610367610362366004612a04565b610d7b565b60405161028e9190612db0565b610367610382366004612a04565b610d96565b61039a610395366004612a3c565b610db1565b60405161028e929190612dc4565b6102aa610fa9565b6103676103be366004612bb3565b610faf565b6102aa610fd6565b6102aa6103d9366004612a04565b610fdc565b6102816103ec366004612a04565b610fee565b6102ca611040565b6102ca610407366004612a67565b6110bf565b6102ca61041a366004612a04565b611199565b6102aa61042d366004612bb3565b61122b565b610281611238565b610367611248565b610281610450366004612a04565b611257565b6102aa61126c565b610367611272565b610367611286565b6102aa611295565b6102aa61129b565b6102ca61048b366004612a67565b6112a1565b61049861137d565b60405161028e9190612e46565b6102ca6104b3366004612be3565b61140b565b6102816104c6366004612a04565b61153f565b610367611591565b6102ca6104e1366004612c12565b6115a0565b61036761184a565b6102aa611859565b6102ca610504366004612a04565b61185f565b610367611915565b6102ca61051f366004612a04565b611924565b610367610532366004612bb3565b6119b7565b6000805b60135481101561057657826013828154811061055357fe5b9060005260206000200154141561056e57600191505061057c565b60010161053b565b50600090505b919050565b6013818154811061058e57fe5b600091825260209091200154905081565b600082116105c85760405162461bcd60e51b81526004016105bf90613255565b60405180910390fd5b601380546000919060001981019081106105de57fe5b600091825260208220015460125460405160016259edcb60e01b031981529193506001600160a01b036101008204169163ffa61235916106289160ff909116908690600401612e2a565b604080518083038186803b15801561063f57600080fd5b505afa158015610653573d6000803e3d6000fd5b505050506040513d601f19601f820116820180604052508101906106779190612c33565b9150506000601560149054906101000a900460ff1615156001151514806106c857508142101580156106c85750600083815260166020526040812060029081015460ff16908111156106c557fe5b14155b905080156106e85760405162461bcd60e51b81526004016105bf906130c1565b6106f285856119c4565b60145460408051636830483560e01b815290516000926001600160a01b0316916368304835916004808301926020929190829003018186803b15801561073757600080fd5b505afa15801561074b573d6000803e3d6000fd5b505050506040513d601f19601f8201168201806040525081019061076f9190612a20565b604051635948284760e11b81529091506001600160a01b0382169063b290508e9061079e903390600401612db0565b602060405180830381600087803b1580156107b857600080fd5b505af11580156107cc573d6000803e3d6000fd5b505050506040513d601f19601f820116820180604052508101906107f09190612b07565b50505050505050565b600d5481565b610807611eba565b6000546001600160a01b039081169116146108345760405162461bcd60e51b81526004016105bf906131bc565b61083d8161153f565b1561085a5760405162461bcd60e51b81526004016105bf906131f1565b60015460405163cbe230c360e01b81526001600160a01b039091169063cbe230c39061088a908490600401612db0565b60206040518083038186803b1580156108a257600080fd5b505afa1580156108b6573d6000803e3d6000fd5b505050506040513d601f19601f820116820180604052508101906108da9190612b07565b15156001146108fb5760405162461bcd60e51b81526004016105bf90612fb5565b600a80546001810182556000919091527fc65a7bb8d6351c1cf70c95a316cc6a92839c986682d98bc35f958f4883f9d2a80180546001600160a01b0319166001600160a01b03831617905560035460609061095590611ebe565b90506060826001600160a01b03166395d89b416040518163ffffffff1660e01b815260040160006040518083038186803b15801561099257600080fd5b505afa1580156109a6573d6000803e3d6000fd5b505050506040513d6000823e601f3d908101601f191682016040526109ce9190810190612b27565b9050606081836040516020016109e5929190612d5d565b604051602081830303815290604052905060608284604051602001610a0b929190612c9e565b604051602081830303815290604052905060608385604051602001610a31929190612ce9565b604051602081830303815290604052905060608486604051602001610a57929190612d40565b60408051601f1981840301815290829052600154633350214760e11b83529092506000916001600160a01b03909116906366a0428e90610a9d9088908890600401612e59565b602060405180830381600087803b158015610ab757600080fd5b505af1158015610acb573d6000803e3d6000fd5b505050506040513d601f19601f82011682018060405250810190610aef9190612a20565b600154604051633350214760e11b81529192506000916001600160a01b03909116906366a0428e90610b279087908790600401612e59565b602060405180830381600087803b158015610b4157600080fd5b505af1158015610b55573d6000803e3d6000fd5b505050506040513d601f19601f82011682018060405250810190610b799190612a20565b6001600160a01b03998a1660009081526007602090815260408083208054948e166001600160a01b031995861617905560069091529020805493909a1692169190911790975550505050505050565b600e5460ff1681565b60175481565b60008211610bf75760405162461bcd60e51b81526004016105bf90613255565b60138054600091906000198101908110610c0d57fe5b600091825260208220015460125460405160016259edcb60e01b031981529193506001600160a01b036101008204169163ffa6123591610c579160ff909116908690600401612e2a565b604080518083038186803b158015610c6e57600080fd5b505afa158015610c82573d6000803e3d6000fd5b505050506040513d601f19601f82011682018060405250810190610ca69190612c33565b915050610cb1611248565b6001600160a01b0316336001600160a01b031614610d2c57601554600160a01b900460ff16151560011480610d105750804210158015610d105750600082815260166020526040812060029081015460ff1690811115610d0d57fe5b14155b610d2c5760405162461bcd60e51b81526004016105bf90612eb9565b610d368484611f99565b50505050565b60166020526000908152604090208054600182015460029092015490919060ff1683565b60125460ff1681565b60056020526000908152604090205481565b6006602052600090815260409020546001600160a01b031681565b6007602052600090815260409020546001600160a01b031681565b6000806000600a8481548110610dc357fe5b6000918252602090912001546001600160a01b03169050610de2611248565b6001600160a01b0316856001600160a01b03161415610e1e576001600160a01b0381166000908152600460205260409020549092509050610fa2565b6001600160a01b0380821660009081526006602090815260408083205481516318160ddd60e01b8152915194169384926318160ddd9260048082019391829003018186803b158015610e6f57600080fd5b505afa158015610e83573d6000803e3d6000fd5b505050506040513d601f19601f82011682018060405250810190610ea79190612bcb565b905080610ebd575090925060009150610fa29050565b6040516370a0823160e01b81526000906001600160a01b038416906370a0823190610eec908b90600401612db0565b60206040518083038186803b158015610f0457600080fd5b505afa158015610f18573d6000803e3d6000fd5b505050506040513d601f19601f82011682018060405250810190610f3c9190612bcb565b90506127106000610f6384610f57858563ffffffff61213616565b9063ffffffff61217916565b6001600160a01b0387166000908152600560205260409020549091508690610f97908490610f57908563ffffffff61213616565b975097505050505050505b9250929050565b600b5481565b600a8181548110610fbc57fe5b6000918252602090912001546001600160a01b0316905081565b60135490565b60046020526000908152604090205481565b6000805b60085481101561057657826001600160a01b03166008828154811061101357fe5b6000918252602090912001546001600160a01b0316141561103857600191505061057c565b600101610ff2565b611048611eba565b6000546001600160a01b039081169116146110755760405162461bcd60e51b81526004016105bf906131bc565b600080546040516001600160a01b03909116907f8be0079c531659141344cd1fd0a4f28419497f9722a3daafe3b4186f6b6457e0908390a3600080546001600160a01b0319169055565b6110c7611eba565b6000546001600160a01b039081169116146110f45760405162461bcd60e51b81526004016105bf906131bc565b60005b815181101561119557600f600083838151811061111057fe5b6020908102919091018101516001600160a01b031682528101919091526040016000205460ff1661118d576001600f600084848151811061114d57fe5b60200260200101516001600160a01b03166001600160a01b0316815260200190815260200160002060006101000a81548160ff0219169083151502179055505b6001016110f7565b5050565b6111a1611eba565b6000546001600160a01b039081169116146111ce5760405162461bcd60e51b81526004016105bf906131bc565b6001600160a01b0381166000908152600f602052604090205460ff16156112075760405162461bcd60e51b81526004016105bf90612e87565b6001600160a01b03166000908152600f60205260409020805460ff19166001179055565b6018818154811061058e57fe5b601554600160a01b900460ff1690565b6000546001600160a01b031690565b600f6020526000908152604090205460ff1681565b60085490565b60125461010090046001600160a01b031681565b6015546001600160a01b031681565b60195481565b600a5490565b6112a9611eba565b6000546001600160a01b039081169116146112d65760405162461bcd60e51b81526004016105bf906131bc565b60005b815181101561119557600f60008383815181106112f257fe5b6020908102919091018101516001600160a01b031682528101919091526040016000205460ff16151560011415611375576000600f600084848151811061133557fe5b60200260200101516001600160a01b03166001600160a01b0316815260200190815260200160002060006101000a81548160ff0219169083151502179055505b6001016112d9565b6011805460408051602060026001851615610100026000190190941693909304601f810184900484028201840190925281815292918301828280156114035780601f106113d857610100808354040283529160200191611403565b820191906000526020600020905b8154815290600101906020018083116113e657829003601f168201915b505050505081565b6000821161142b5760405162461bcd60e51b81526004016105bf90613255565b6013805460009190600019810190811061144157fe5b600091825260208220015460125460405160016259edcb60e01b031981529193506001600160a01b036101008204169163ffa612359161148b9160ff909116908690600401612e2a565b604080518083038186803b1580156114a257600080fd5b505afa1580156114b6573d6000803e3d6000fd5b505050506040513d601f19601f820116820180604052508101906114da9190612c33565b9150506000601560149054906101000a900460ff16151560011515148061152b575081421015801561152b5750600083815260166020526040812060029081015460ff169081111561152857fe5b14155b90506115388585836121bb565b5050505050565b6000805b600a5481101561057657826001600160a01b0316600a828154811061156457fe5b6000918252602090912001546001600160a01b0316141561158957600191505061057c565b600101611543565b6010546001600160a01b031681565b6015546001600160a01b031633146115ca5760405162461bcd60e51b81526004016105bf90613002565b7fc95987c1992805ee34bdc915e017cceae36ba1c156b9911fa7e691e6435eb46e4283836040516115fd93929190613376565b60405180910390a1600180820160195560008281526016602090815260408083209384018690554284556010548151633fa4f24560e01b815291516001600160a01b0390911692633fa4f2459260048082019391829003018186803b15801561166557600080fd5b505afa158015611679573d6000803e3d6000fd5b505050506040513d601f19601f8201168201806040525081019061169d9190612bcb565b6010546040516303c8f2e360e21b81529192506001600160a01b031690630f23cb8c906116ce908790600401612e0c565b60206040518083038186803b1580156116e657600080fd5b505afa1580156116fa573d6000803e3d6000fd5b505050506040513d601f19601f8201168201806040525081019061171e9190612b07565b156117df576002828101805460ff191660011790556127109060009061176c9061174c90610f5789876123bd565b610f57846117608a8863ffffffff6123e216565b9063ffffffff61213616565b905060006117ac60016117a0601360008154811061178657fe5b9060005260206000200154896123e290919063ffffffff16565b9063ffffffff6123bd16565b6013549091506000906117c990610f57858563ffffffff61213616565b90506117d6878286612424565b50505050610d36565b6002828101805460ff191690911790556117f761257f565b6015805460ff60a01b1916600160a01b1790556040517fbd33f7a3bfa88a467c9df5ae7d2341cf061084c386b20a0d48130f5cbce38a4d9061183c9085908790613342565b60405180910390a150505050565b6014546001600160a01b031681565b60035481565b611867611eba565b6000546001600160a01b039081169116146118945760405162461bcd60e51b81526004016105bf906131bc565b6001600160a01b0381166118ba5760405162461bcd60e51b81526004016105bf90612f38565b600080546040516001600160a01b03808516939216917f8be0079c531659141344cd1fd0a4f28419497f9722a3daafe3b4186f6b6457e091a3600080546001600160a01b0319166001600160a01b0392909216919091179055565b6009546001600160a01b031681565b61192c611eba565b6000546001600160a01b039081169116146119595760405162461bcd60e51b81526004016105bf906131bc565b6001600160a01b0381166000908152600f602052604090205460ff1615156001146119965760405162461bcd60e51b81526004016105bf90613281565b6001600160a01b03166000908152600f60205260409020805460ff19169055565b60088181548110610fbc57fe5b806119ce8161153f565b15156001146119ef5760405162461bcd60e51b81526004016105bf9061318e565b600e5460ff16151560011415611a3357336000908152600f602052604090205460ff161515600114611a335760405162461bcd60e51b81526004016105bf90613047565b611a4e6001600160a01b03831633308663ffffffff61267916565b611a56611248565b6001600160a01b0316336001600160a01b031614611c97576001600160a01b03821660009081526004602090815260408083205460059092529091205481611aa4828763ffffffff6123bd16565b1115611ac25760405162461bcd60e51b81526004016105bf906132af565b6001600160a01b0380851660009081526006602090815260408083205481516318160ddd60e01b8152915194169384926318160ddd9260048082019391829003018186803b158015611b1357600080fd5b505afa158015611b27573d6000803e3d6000fd5b505050506040513d601f19601f82011682018060405250810190611b4b9190612bcb565b905080611bb7576040516340c10f1960e01b81526001600160a01b038316906340c10f1990611b809033908b90600401612dc4565b600060405180830381600087803b158015611b9a57600080fd5b505af1158015611bae573d6000803e3d6000fd5b50505050611c4b565b6001600160a01b03861660009081526005602052604081205490611be582610f578b8663ffffffff61213616565b6040516340c10f1960e01b81529091506001600160a01b038516906340c10f1990611c169033908590600401612dc4565b600060405180830381600087803b158015611c3057600080fd5b505af1158015611c44573d6000803e3d6000fd5b5050505050505b6001600160a01b038616600090815260056020526040902054611c74908863ffffffff6123bd16565b6001600160a01b03871660009081526005602052604090205550611e6592505050565b6001600160a01b0380831660009081526007602090815260408083205481516318160ddd60e01b8152915194169384926318160ddd9260048082019391829003018186803b158015611ce857600080fd5b505afa158015611cfc573d6000803e3d6000fd5b505050506040513d601f19601f82011682018060405250810190611d209190612bcb565b905080611d8c576040516340c10f1960e01b81526001600160a01b038316906340c10f1990611d559033908990600401612dc4565b600060405180830381600087803b158015611d6f57600080fd5b505af1158015611d83573d6000803e3d6000fd5b50505050611e20565b6001600160a01b03841660009081526004602052604081205490611dba82610f57898663ffffffff61213616565b6040516340c10f1960e01b81529091506001600160a01b038516906340c10f1990611deb9033908590600401612dc4565b600060405180830381600087803b158015611e0557600080fd5b505af1158015611e19573d6000803e3d6000fd5b5050505050505b6001600160a01b038416600090815260046020526040902054611e49908663ffffffff6123bd16565b6001600160a01b03851660009081526004602052604090205550505b611e6e33610fee565b611eb557600880546001810182556000919091527ff3f7a9fe364faab93b216da50a3214154f22a0a2b415b23a84c8169e8b636ee30180546001600160a01b031916331790555b505050565b3390565b60608180611ee55750506040805180820190915260018152600360fc1b602082015261057c565b8060005b8115611efd57600101600a82049150611ee9565b60608167ffffffffffffffff81118015611f1657600080fd5b506040519080825280601f01601f191660200182016040528015611f41576020820181803683370190505b50905060001982015b8415611f8f57600a850660300160f81b82828060019003935081518110611f6d57fe5b60200101906001600160f81b031916908160001a905350600a85049450611f4a565b5095945050505050565b80611fa38161153f565b1515600114611fc45760405162461bcd60e51b81526004016105bf9061318e565b6001600160a01b0380831660009081526006602090815260408083205481516318160ddd60e01b8152915194169384926318160ddd9260048082019391829003018186803b15801561201557600080fd5b505afa158015612029573d6000803e3d6000fd5b505050506040513d601f19601f8201168201806040525081019061204d9190612bcb565b6001600160a01b03851660009081526005602052604081205491925061207d82610f57898663ffffffff61213616565b60405163079cc67960e41b81529091506001600160a01b038516906379cc6790906120ae9033908590600401612dc4565b600060405180830381600087803b1580156120c857600080fd5b505af11580156120dc573d6000803e3d6000fd5b5050506001600160a01b03871660009081526005602052604090205461210991508863ffffffff6123e216565b6001600160a01b0387166000818152600560205260409020919091556107f090338963ffffffff6126d116565b60008261214557506000612173565b8282028284828161215257fe5b04146121705760405162461bcd60e51b81526004016105bf9061314d565b90505b92915050565b600061217083836040518060400160405280601a81526020017f536166654d6174683a206469766973696f6e206279207a65726f0000000000008152506126f0565b816121c58161153f565b15156001146121e65760405162461bcd60e51b81526004016105bf9061318e565b6001600160a01b0383166000908152600460209081526040808320546005909252909120548361223f5780612221838863ffffffff6123e216565b101561223f5760405162461bcd60e51b81526004016105bf90613078565b6001600160a01b0380861660009081526007602090815260408083205481516318160ddd60e01b8152915194169384926318160ddd9260048082019391829003018186803b15801561229057600080fd5b505afa1580156122a4573d6000803e3d6000fd5b505050506040513d601f19601f820116820180604052508101906122c89190612bcb565b6001600160a01b0388166000908152600460205260408120549192506122f882610f578c8663ffffffff61213616565b60405163079cc67960e41b81529091506001600160a01b038516906379cc6790906123299033908590600401612dc4565b600060405180830381600087803b15801561234357600080fd5b505af1158015612357573d6000803e3d6000fd5b5050506001600160a01b038a1660009081526004602052604090205461238491508b63ffffffff6123e216565b6001600160a01b038a166000818152600460205260409020919091556123b190338c63ffffffff6126d116565b50505050505050505050565b6000828201838110156121705760405162461bcd60e51b81526004016105bf90612f7e565b600061217083836040518060400160405280601e81526020017f536166654d6174683a207375627472616374696f6e206f766572666c6f770000815250612727565b60005b600a54811015610d36576000600a828154811061244057fe5b60009182526020808320909101546001600160a01b0316808352600590915260408220549092509061247c85610f57848963ffffffff61213616565b6001600160a01b0384166000908152600560205260409020549091506124a8908263ffffffff6123e216565b6001600160a01b038085166000818152600560205260409020929092556009541614156124f05760006124da82612753565b90506124ec828263ffffffff6123e216565b9150505b6001600160a01b038316600090815260046020526040902054612519908263ffffffff6123bd16565b6001600160a01b0384166000818152600460205260409081902092909255905188907f3173c1c4b679e2da86dbb0382bde749a6e16cd31912c5410e17985cd7d2b90529061256c908a908a908790613376565b60405180910390a3505050600101612427565b60005b600a54811015612676576000600a828154811061259b57fe5b60009182526020808320909101546001600160a01b0316808352600582526040808420546004909352909220549192509081906125de908263ffffffff6123e216565b6001600160a01b0380851660008181526004602052604090209290925560095416141561262657600061261082612753565b9050612622828263ffffffff6123e216565b9150505b6001600160a01b03831660009081526005602052604090205461264f908263ffffffff6123bd16565b6001600160a01b039093166000908152600560205260409020929092555050600101612582565b50565b610d36846323b872dd60e01b85858560405160240161269a93929190612ddd565b60408051601f198184030181529190526020810180516001600160e01b03166001600160e01b031990931692909217909152612889565b611eb58363a9059cbb60e01b848460405160240161269a929190612dc4565b600081836127115760405162461bcd60e51b81526004016105bf9190612e46565b50600083858161271d57fe5b0495945050505050565b6000818484111561274b5760405162461bcd60e51b81526004016105bf9190612e46565b505050900390565b60408051808201909152600d81526c6275726e2875696e743235362960981b602090910152600b546000907f42966c689b5afe9b9b3f8a7103b2a19980d59629bfd6a20a60972312ed41d836906127b9906103e890610f5790869063ffffffff61213616565b6009546040519193506000916001600160a01b039091169083906127e1908690602401612e0c565b60408051601f198184030181529181526020820180516001600160e01b03166001600160e01b031990941693909317909252905161281f9190612c82565b6000604051808303816000865af19150503d806000811461285c576040519150601f19603f3d011682016040523d82523d6000602084013e612861565b606091505b50509050806128825760405162461bcd60e51b81526004016105bf90613109565b5050919050565b60606128de826040518060400160405280602081526020017f5361666545524332303a206c6f772d6c6576656c2063616c6c206661696c6564815250856001600160a01b03166129189092919063ffffffff16565b805190915015611eb557808060200190518101906128fc9190612b07565b611eb55760405162461bcd60e51b81526004016105bf906132f8565b6060612927848460008561292f565b949350505050565b606061293a856129f3565b6129565760405162461bcd60e51b81526004016105bf9061321e565b60006060866001600160a01b031685876040516129739190612c82565b60006040518083038185875af1925050503d80600081146129b0576040519150601f19603f3d011682016040523d82523d6000602084013e6129b5565b606091505b509150915081156129c95791506129279050565b8051156129d95780518082602001fd5b8360405162461bcd60e51b81526004016105bf9190612e46565b3b151590565b80356121738161340a565b600060208284031215612a15578081fd5b81356121708161340a565b600060208284031215612a31578081fd5b81516121708161340a565b60008060408385031215612a4e578081fd5b8235612a598161340a565b946020939093013593505050565b60006020808385031215612a79578182fd5b823567ffffffffffffffff811115612a8f578283fd5b80840185601f820112612aa0578384fd5b80359150612ab5612ab0836133b3565b61338c565b8281528381019082850185850284018601891015612ad1578687fd5b8693505b84841015612afb57612ae789826129f9565b835260019390930192918501918501612ad5565b50979650505050505050565b600060208284031215612b18578081fd5b81518015158114612170578182fd5b600060208284031215612b38578081fd5b815167ffffffffffffffff80821115612b4f578283fd5b81840185601f820112612b60578384fd5b8051925081831115612b70578384fd5b612b83601f8401601f191660200161338c565b9150828252856020848301011115612b99578384fd5b612baa8360208401602084016133de565b50949350505050565b600060208284031215612bc4578081fd5b5035919050565b600060208284031215612bdc578081fd5b5051919050565b60008060408385031215612bf5578182fd5b823591506020830135612c078161340a565b809150509250929050565b60008060408385031215612c24578182fd5b50508035926020909101359150565b60008060408385031215612c45578182fd5b505080516020909101519092909150565b60008151808452612c6e8160208601602086016133de565b601f01601f19169290920160200192915050565b60008251612c948184602087016133de565b9190910192915050565b600061647560f01b82528351612cbb8160028501602088016133de565b808301602d60f81b600282015284519150612cdd8260038301602088016133de565b01600301949350505050565b60006d44534c412d50524f56494445522d60901b82528351612d1281600e8501602088016133de565b808301602d60f81b600e82015284519150612d3482600f8301602088016133de565b01600f01949350505050565b600061064760f41b82528351612cbb8160028501602088016133de565b60006944534c412d555345522d60b01b82528351612d8281600a8501602088016133de565b808301602d60f81b600a82015284519150612da482600b8301602088016133de565b01600b01949350505050565b6001600160a01b0391909116815260200190565b6001600160a01b03929092168252602082015260400190565b6001600160a01b039384168152919092166020820152604081019190915260600190565b901515815260200190565b90815260200190565b60208101612e22836133d3565b825292915050565b60408101612e37846133d3565b82528260208301529392505050565b6000602082526121706020830184612c56565b600060408252612e6c6040830185612c56565b8281036020840152612e7e8185612c56565b95945050505050565b602080825260189082015277155cd95c88185b1c9958591e481dda1a5d195b1a5cdd195960421b604082015260600190565b60208082526059908201527f43616e206f6e6c79207769746864726177207374616b6520616674657220746860408201527f652066696e616c20706572696f642069732066696e6973686564206f72206966606082015278081d1a194818dbdb9d1c9858dd081a5cc8189c995858da1959603a1b608082015260a00190565b60208082526026908201527f4f776e61626c653a206e6577206f776e657220697320746865207a65726f206160408201526564647265737360d01b606082015260800190565b6020808252601b908201527f536166654d6174683a206164646974696f6e206f766572666c6f770000000000604082015260600190565b6020808252602d908201527f546f6b656e206e6f7420616c6c6f7765642062792074686520534c415265676960408201526c1cdd1c9e4818dbdb9d1c9858dd609a1b606082015260800190565b60208082526025908201527f4f6e6c79204d657373656e6765722063616e2063616c6c20746869732066756e60408201526431ba34b7b760d91b606082015260800190565b602080825260179082015276155cd95c881a5cc81b9bdd081dda1a5d195b1a5cdd1959604a1b604082015260600190565b60208082526029908201527f53686f756c64206e6f74207769746864726177206d6f7265207468616e207573604082015268657273207374616b6560b81b606082015260800190565b60208082526028908201527f43616e206f6e6c79207374616b65206f6e206e6f742066696e697368656420636040820152676f6e74726163747360c01b606082015260800190565b60208082526024908201527f44534c41206275726e2070726f6365737320776173206e6f74207375636365736040820152631cd99d5b60e21b606082015260800190565b60208082526021908201527f536166654d6174683a206d756c7469706c69636174696f6e206f766572666c6f6040820152607760f81b606082015260800190565b6020808252601490820152731d1bdad95b881a5cc81b9bdd08185b1b1bddd95960621b604082015260600190565b6020808252818101527f4f776e61626c653a2063616c6c6572206973206e6f7420746865206f776e6572604082015260600190565b602080825260139082015272151bdad95b88185b1c9958591e481859191959606a1b604082015260600190565b6020808252601d908201527f416464726573733a2063616c6c20746f206e6f6e2d636f6e7472616374000000604082015260600190565b6020808252601290820152710616d6f756e742063616e6e6f7420626520360741b604082015260600190565b602080825260149082015273155cd95c881b9bdd081dda1a5d195b1a5cdd195960621b604082015260600190565b60208082526029908201527f43616e6e6f74207374616b65206d6f7265207468616e20534c412070726f7669604082015268646572207374616b6560b81b606082015260800190565b6020808252602a908201527f5361666545524332303a204552433230206f7065726174696f6e20646964206e6040820152691bdd081cdd58d8d9595960b21b606082015260800190565b918252602082015260400190565b83815260208101839052606081016003831061336857fe5b826040830152949350505050565b9283526020830191909152604082015260600190565b60405181810167ffffffffffffffff811182821017156133ab57600080fd5b604052919050565b600067ffffffffffffffff8211156133c9578081fd5b5060209081020190565b806006811061057c57fe5b60005b838110156133f95781810151838201526020016133e1565b83811115610d365750506000910152565b6001600160a01b038116811461267657600080fdfea2646970667358221220f86ab8487f5da6ed1243d88b3f637d21c0065893a0baed5fca9b521b5d406bae64736f6c634300060600338be0079c531659141344cd1fd0a4f28419497f9722a3daafe3b4186f6b6457e0a264697066735822122079e95b725219fe7a3a588f554c02458b40f9d93c1ac430f096952ca3d251f66064736f6c63430006060033",
  "immutableReferences": {},
  "source": "// SPDX-License-Identifier: MIT\npragma solidity 0.6.6;\npragma experimental ABIEncoderV2;\n\nimport \"@openzeppelin/contracts/math/SafeMath.sol\";\nimport \"@openzeppelin/contracts/access/Ownable.sol\";\nimport \"./SLA.sol\";\nimport \"./SLO.sol\";\nimport \"./SLORegistry.sol\";\nimport \"./PeriodRegistry.sol\";\nimport \"./MessengerRegistry.sol\";\nimport \"./StakeRegistry.sol\";\nimport \"./messenger/IMessenger.sol\";\n\n/**\n * @title SLARegistry\n * @dev SLARegistry is a contract for handling creation of service level\n * agreements and keeping track of the created agreements\n */\ncontract SLARegistry is Ownable {\n    using SafeMath for uint256;\n\n    /// @dev SLO registry\n    SLORegistry public sloRegistry;\n    /// @dev Periods registry\n    PeriodRegistry public periodRegistry;\n    /// @dev Messengers registry\n    MessengerRegistry public messengerRegistry;\n    /// @dev Stake registry\n    StakeRegistry public stakeRegistry;\n    /// @dev stores the addresses of created SLAs\n    SLA[] public SLAs;\n    /// @dev stores the indexes of service level agreements owned by an user\n    mapping(address => uint256[]) private userToSLAIndexes;\n\n    /**\n     * @dev event for service level agreement creation logging\n     * @param sla 1. The address of the created service level agreement contract\n     * @param owner 2. The address of the owner of the service level agreement\n     */\n    event SLACreated(SLA indexed sla, address indexed owner);\n\n    /**\n     * @dev constructor\n     * @param _sloRegistry 1. SLO Registry\n     * @param _periodRegistry 2. Periods registry\n     * @param _messengerRegistry 3. Messenger registry\n     * @param _stakeRegistry 4. Stake registry\n     */\n    constructor(\n        SLORegistry _sloRegistry,\n        PeriodRegistry _periodRegistry,\n        MessengerRegistry _messengerRegistry,\n        StakeRegistry _stakeRegistry\n    ) public {\n        sloRegistry = _sloRegistry;\n        periodRegistry = _periodRegistry;\n        stakeRegistry = _stakeRegistry;\n        stakeRegistry.setSLARegistry();\n        messengerRegistry = _messengerRegistry;\n        messengerRegistry.setSLARegistry();\n    }\n\n    /**\n     * @dev public function for creating canonical service level agreements\n     * @param _SLO 1. SLO\n     * @param _ipfsHash 2. string with the ipfs hash that contains extra information about the service level agreement\n     * @param _periodType 3. period type\n     * @param _periodIds 4. array of allowed period ids\n     * @param _messengerAddress 5. address of the messenger for the corresponding SLA\n     * @param _whitelisted 6. bool to declare whitelisted SLA\n     * @param _extraData 7. bytes32 to embed extra data for customized workflows\n     */\n    function createSLA(\n        SLO _SLO,\n        string memory _ipfsHash,\n        PeriodRegistry.PeriodType _periodType,\n        uint256[] memory _periodIds,\n        address _messengerAddress,\n        bool _whitelisted,\n        bytes32[] memory _extraData\n    ) public {\n        bool initialized = periodRegistry.periodDefinitions(_periodType);\n        require(initialized == true, \"Period type is not initialized yet\");\n        require(\n            sloRegistry.isRegisteredSLO(address(_SLO)) == true,\n            \"SLO not registered on SLORegistry\"\n        );\n        require(_periodIds.length > 0, \"Periods information is empty\");\n        // check if _periodIds are valid and sorted in ascendant order\n        for (uint256 index = 0; index < _periodIds.length; index++) {\n            bool validPeriod =\n                periodRegistry.isValidPeriod(_periodType, _periodIds[index]);\n            require(validPeriod, \"Period id not valid\");\n            if (index < _periodIds.length - 1) {\n                require(\n                    _periodIds[index] < _periodIds[index + 1],\n                    \"Period ids should be sorted \"\n                );\n                require(\n                    _periodIds[index + 1].sub(_periodIds[index]) == 1,\n                    \"Period ids should be consecutive\"\n                );\n            }\n        }\n        bool registeredMessenger =\n            messengerRegistry.registeredMessengers(_messengerAddress);\n        require(\n            registeredMessenger == true,\n            \"messenger address is not registered\"\n        );\n\n        SLA sla =\n            new SLA(\n                msg.sender,\n                _SLO,\n                _ipfsHash,\n                _messengerAddress,\n                _periodIds,\n                _periodType,\n                address(stakeRegistry),\n                address(periodRegistry),\n                _whitelisted,\n                _extraData,\n                SLAs.length\n            );\n\n        stakeRegistry.lockDSLAValue(\n            msg.sender,\n            address(sla),\n            _periodIds.length\n        );\n        SLAs.push(sla);\n        uint256 index = SLAs.length.sub(1);\n        userToSLAIndexes[msg.sender].push(index);\n        emit SLACreated(sla, msg.sender);\n    }\n\n    /**\n     * @dev Gets SLI information for the specified SLA and SLO\n     * @param _periodId 1. id of the period\n     * @param _sla 2. SLA Address\n     */\n    function requestSLI(uint256 _periodId, SLA _sla) public {\n        require(\n            _periodId == _sla.nextVerifiablePeriod(),\n            \"Should only verify next period\"\n        );\n        (, , SLA.Status status) = _sla.periodSLIs(_periodId);\n        require(\n            status == SLA.Status.NotVerified,\n            \"SLA contract was already verified for the period\"\n        );\n        bool breachedContract = _sla.breachedContract();\n        require(\n            breachedContract == false,\n            \"Should only be called for not breached contracts\"\n        );\n        bool slaAllowedPeriodId = _sla.isAllowedPeriod(_periodId);\n        require(\n            slaAllowedPeriodId == true,\n            \"Period ID not registered in the SLA contract\"\n        );\n        PeriodRegistry.PeriodType slaPeriodType = _sla.periodType();\n        bool periodFinished =\n            periodRegistry.periodIsFinished(slaPeriodType, _periodId);\n        require(\n            periodFinished == true,\n            \"SLA contract period has not finished yet\"\n        );\n        address slaMessenger = _sla.messengerAddress();\n        IMessenger(slaMessenger).requestSLI(_periodId, address(_sla));\n        stakeRegistry.distributeVerificationRewards(\n            address(_sla),\n            msg.sender,\n            _periodId\n        );\n    }\n\n    function returnLockedValue(SLA _sla) public {\n        require(\n            msg.sender == _sla.owner(),\n            \"Only SLA owner can claim locked value\"\n        );\n        uint256 periodIdsLength = _sla.getPeriodIdsLength();\n        uint256 lastValidPeriodId = _sla.periodIds(periodIdsLength - 1);\n        PeriodRegistry.PeriodType periodType = _sla.periodType();\n        (, uint256 endOfLastValidPeriod) =\n            periodRegistry.getPeriodStartAndEnd(periodType, lastValidPeriodId);\n\n        (, , SLA.Status lastPeriodStatus) = _sla.periodSLIs(lastValidPeriodId);\n        require(\n            _sla.breachedContract() == true ||\n                (block.timestamp >= endOfLastValidPeriod &&\n                    lastPeriodStatus != SLA.Status.NotVerified),\n            \"Can only withdraw locked DSLA after the final period is verified or if the contract is breached\"\n        );\n        stakeRegistry.returnLockedValue(address(_sla));\n    }\n\n    /**\n     * @dev function to declare this SLARegistry contract as SLARegistry of _messengerAddress\n     * @param _messengerAddress 1. address of the messenger\n     */\n\n    function setMessengerSLARegistryAddress(address _messengerAddress) public {\n        IMessenger(_messengerAddress).setSLARegistry();\n        messengerRegistry.registerMessenger(_messengerAddress, msg.sender);\n    }\n\n    /**\n     * @dev public view function that returns the service level agreements that\n     * the given user is the owner of\n     * @param _user Address of the user for which to return the service level\n     * agreements\n     * @return array of SLAs\n     */\n    function userSLAs(address _user) public view returns (SLA[] memory) {\n        uint256 count = userSLACount(_user);\n        SLA[] memory SLAList = new SLA[](count);\n        uint256[] memory userSLAIndexes = userToSLAIndexes[_user];\n\n        for (uint256 i = 0; i < count; i++) {\n            SLAList[i] = (SLAs[userSLAIndexes[i]]);\n        }\n\n        return (SLAList);\n    }\n\n    /**\n     * @dev public view function that returns the amount of service level\n     * agreements the given user is the owner of\n     * @param _user 1. address of the user for which to return the amount of\n     * service level agreements\n     * @return uint256 corresponding to the amount of user's SLAs\n     */\n    function userSLACount(address _user) public view returns (uint256) {\n        return userToSLAIndexes[_user].length;\n    }\n\n    /**\n     * @dev public view function that returns all the service level agreements\n     * @return SLA[] array of SLAs\n     */\n    function allSLAs() public view returns (SLA[] memory) {\n        return (SLAs);\n    }\n\n    /**\n     * @dev public view function that returns the total amount of service\n     * level agreements\n     * @return uint256, the length of SLA array\n     */\n    function SLACount() public view returns (uint256) {\n        return SLAs.length;\n    }\n\n    /**\n     * @dev public view function that returns true if _slaAddress was deployed using this SLARegistry\n     * @param _slaAddress address of the SLA to be checked\n     */\n    function isRegisteredSLA(address _slaAddress) public view returns (bool) {\n        for (uint256 index = 0; index < SLAs.length; index++) {\n            if (address(SLAs[index]) == _slaAddress) {\n                return true;\n            }\n        }\n        return false;\n    }\n}\n",
  "sourcePath": "/Users/matiasbn/Desktop/stacktical/stacktical-dsla-contracts/contracts/SLARegistry.sol",
  "compiler": {
    "name": "solc",
    "version": "0.6.6+commit.6c089d02.Emscripten.clang"
  },
  "schemaVersion": "3.3.3",
  "updatedAt": "2021-03-13T00:11:33.634Z",
  "devdoc": {
    "details": "SLARegistry is a contract for handling creation of service level agreements and keeping track of the created agreements",
    "methods": {
      "SLACount()": {
        "details": "public view function that returns the total amount of service level agreements",
        "returns": {
          "_0": "uint256, the length of SLA array"
        }
      },
      "allSLAs()": {
        "details": "public view function that returns all the service level agreements",
        "returns": {
          "_0": "SLA[] array of SLAs"
        }
      },
      "constructor": {
        "details": "constructor",
        "params": {
          "_messengerRegistry": "3. Messenger registry",
          "_periodRegistry": "2. Periods registry",
          "_sloRegistry": "1. SLO Registry",
          "_stakeRegistry": "4. Stake registry"
        }
      },
      "createSLA(address,string,uint8,uint256[],address,bool,bytes32[])": {
        "details": "public function for creating canonical service level agreements",
        "params": {
          "_SLO": "1. SLO",
          "_extraData": "7. bytes32 to embed extra data for customized workflows",
          "_ipfsHash": "2. string with the ipfs hash that contains extra information about the service level agreement",
          "_messengerAddress": "5. address of the messenger for the corresponding SLA",
          "_periodIds": "4. array of allowed period ids",
          "_periodType": "3. period type",
          "_whitelisted": "6. bool to declare whitelisted SLA"
        }
      },
      "isRegisteredSLA(address)": {
        "details": "public view function that returns true if _slaAddress was deployed using this SLARegistry",
        "params": {
          "_slaAddress": "address of the SLA to be checked"
        }
      },
      "owner()": {
        "details": "Returns the address of the current owner."
      },
      "renounceOwnership()": {
        "details": "Leaves the contract without owner. It will not be possible to call `onlyOwner` functions anymore. Can only be called by the current owner.     * NOTE: Renouncing ownership will leave the contract without an owner, thereby removing any functionality that is only available to the owner."
      },
      "requestSLI(uint256,address)": {
        "details": "Gets SLI information for the specified SLA and SLO",
        "params": {
          "_periodId": "1. id of the period",
          "_sla": "2. SLA Address"
        }
      },
      "setMessengerSLARegistryAddress(address)": {
        "details": "function to declare this SLARegistry contract as SLARegistry of _messengerAddress",
        "params": {
          "_messengerAddress": "1. address of the messenger"
        }
      },
      "transferOwnership(address)": {
        "details": "Transfers ownership of the contract to a new account (`newOwner`). Can only be called by the current owner."
      },
      "userSLACount(address)": {
        "details": "public view function that returns the amount of service level agreements the given user is the owner of",
        "params": {
          "_user": "1. address of the user for which to return the amount of service level agreements"
        },
        "returns": {
          "_0": "uint256 corresponding to the amount of user's SLAs"
        }
      },
      "userSLAs(address)": {
        "details": "public view function that returns the service level agreements that the given user is the owner of",
        "params": {
          "_user": "Address of the user for which to return the service level agreements"
        },
        "returns": {
          "_0": "array of SLAs"
        }
      }
    },
    "title": "SLARegistry"
  },
  "userdoc": {
    "methods": {}
  }
}