{
  "contractName": "SLARegistry",
  "abi": [
    {
      "inputs": [
        {
          "internalType": "contract Messenger",
          "name": "_messengerAddress",
          "type": "address"
        }
      ],
      "stateMutability": "nonpayable",
      "type": "constructor"
    },
    {
      "anonymous": false,
      "inputs": [
        {
          "indexed": true,
          "internalType": "contract SLA",
          "name": "sla",
          "type": "address"
        },
        {
          "indexed": true,
          "internalType": "address",
          "name": "owner",
          "type": "address"
        }
      ],
      "name": "SLACreated",
      "type": "event"
    },
    {
      "inputs": [
        {
          "internalType": "uint256",
          "name": "",
          "type": "uint256"
        }
      ],
      "name": "SLAs",
      "outputs": [
        {
          "internalType": "contract SLA",
          "name": "",
          "type": "address"
        }
      ],
      "stateMutability": "view",
      "type": "function"
    },
    {
      "inputs": [],
      "name": "messenger",
      "outputs": [
        {
          "internalType": "contract Messenger",
          "name": "",
          "type": "address"
        }
      ],
      "stateMutability": "view",
      "type": "function"
    },
    {
      "inputs": [
        {
          "internalType": "address",
          "name": "_owner",
          "type": "address"
        },
        {
          "internalType": "bytes32[]",
          "name": "_SLONames",
          "type": "bytes32[]"
        },
        {
          "internalType": "contract SLO[]",
          "name": "_SLOs",
          "type": "address[]"
        },
        {
          "internalType": "uint256",
          "name": "_stake",
          "type": "uint256"
        },
        {
          "internalType": "string",
          "name": "_ipfsHash",
          "type": "string"
        },
        {
          "internalType": "uint256",
          "name": "_sliInterval",
          "type": "uint256"
        },
        {
          "internalType": "contract bDSLAToken",
          "name": "_tokenAddress",
          "type": "address"
        },
        {
          "internalType": "uint256[]",
          "name": "_sla_period_starts",
          "type": "uint256[]"
        },
        {
          "internalType": "uint256[]",
          "name": "_sla_period_ends",
          "type": "uint256[]"
        }
      ],
      "name": "createSLA",
      "outputs": [],
      "stateMutability": "nonpayable",
      "type": "function"
    },
    {
      "inputs": [
        {
          "internalType": "uint256",
          "name": "_periodId",
          "type": "uint256"
        },
        {
          "internalType": "contract SLA",
          "name": "_sla",
          "type": "address"
        },
        {
          "internalType": "bytes32",
          "name": "_sloName",
          "type": "bytes32"
        }
      ],
      "name": "requestSLI",
      "outputs": [],
      "stateMutability": "nonpayable",
      "type": "function"
    },
    {
      "inputs": [
        {
          "internalType": "address",
          "name": "_user",
          "type": "address"
        }
      ],
      "name": "userSLAs",
      "outputs": [
        {
          "internalType": "contract SLA[]",
          "name": "",
          "type": "address[]"
        }
      ],
      "stateMutability": "view",
      "type": "function"
    },
    {
      "inputs": [
        {
          "internalType": "address",
          "name": "_user",
          "type": "address"
        }
      ],
      "name": "userSLACount",
      "outputs": [
        {
          "internalType": "uint256",
          "name": "",
          "type": "uint256"
        }
      ],
      "stateMutability": "view",
      "type": "function"
    },
    {
      "inputs": [],
      "name": "allSLAs",
      "outputs": [
        {
          "internalType": "contract SLA[]",
          "name": "",
          "type": "address[]"
        }
      ],
      "stateMutability": "view",
      "type": "function"
    },
    {
      "inputs": [],
      "name": "SLACount",
      "outputs": [
        {
          "internalType": "uint256",
          "name": "",
          "type": "uint256"
        }
      ],
      "stateMutability": "view",
      "type": "function"
    },
    {
      "inputs": [
        {
          "internalType": "address",
          "name": "_slaOwner",
          "type": "address"
        }
      ],
      "name": "getActivePool",
      "outputs": [
        {
          "components": [
            {
              "internalType": "address",
              "name": "SLAaddress",
              "type": "address"
            },
            {
              "internalType": "uint256",
              "name": "stake",
              "type": "uint256"
            },
            {
              "internalType": "string",
              "name": "assetName",
              "type": "string"
            }
          ],
          "internalType": "struct SLARegistry.ActivePool[]",
          "name": "",
          "type": "tuple[]"
        }
      ],
      "stateMutability": "view",
      "type": "function"
    },
    {
      "inputs": [],
      "name": "getMessenger",
      "outputs": [
        {
          "internalType": "address",
          "name": "",
          "type": "address"
        }
      ],
      "stateMutability": "view",
      "type": "function"
    }
  ],
  "bytecode": "0x608060405234801561001057600080fd5b506040516142ad3803806142ad83398101604081905261002f916100a4565b600080546001600160a01b0319166001600160a01b03838116919091178083556040805163f388158960e01b81529051919092169263f3881589926004808201939182900301818387803b15801561008657600080fd5b505af115801561009a573d6000803e3d6000fd5b50505050506100d2565b6000602082840312156100b5578081fd5b81516001600160a01b03811681146100cb578182fd5b9392505050565b6141cc806100e16000396000f3fe60806040523480156200001157600080fd5b5060043610620000ac5760003560e01c8063779c9ad8116200006f578063779c9ad81462000140578063816ff986146200014a57806396bddc101462000163578063e9b1e98c146200016d578063f2c0dfd4146200018457620000ac565b80633cb747bf14620000b157806345e3e32714620000d357806350c5abfe14620000ec578063516c28571462000103578063558450be1462000129575b600080fd5b620000bb620001aa565b604051620000ca919062000cf8565b60405180910390f35b620000ea620000e436600462000a6e565b620001b9565b005b620000bb620000fd36600462000bb5565b620002ca565b6200011a6200011436600462000a48565b620002f2565b604051620000ca919062000e06565b620000ea6200013a36600462000be7565b6200043a565b620000bb620004a9565b62000154620004ad565b604051620000ca919062000ef3565b6200011a620004b3565b620001546200017e36600462000a48565b62000517565b6200019b6200019536600462000a48565b62000532565b604051620000ca919062000e55565b6000546001600160a01b031681565b6000898989898989898989604051620001d290620008af565b620001e69998979695949392919062000d25565b604051809103906000f08015801562000203573d6000803e3d6000fd5b5060018054808201825560008281527fb10e2d527612073b26eecdfd717e6a320cf44b4afac2b0732d9fcbe2b7fa0cf690910180546001600160a01b0319166001600160a01b03851617905581549293509162000260916200082a565b3360009081526002602090815260408083208054600181018255908452918320909101839055519192506001600160a01b038d811692908516917fb52f284a6c14f1a66ab5513b5b539066933e58e69e6432666f0e3c8c8a7d750391a35050505050505050505050565b60018181548110620002d857fe5b6000918252602090912001546001600160a01b0316905081565b60606000620003018362000517565b905060608167ffffffffffffffff811180156200031d57600080fd5b5060405190808252806020026020018201604052801562000348578160200160208202803683370190505b506001600160a01b03851660009081526002602090815260409182902080548351818402810184019094528084529394506060939091830182828015620003af57602002820191906000526020600020905b8154815260200190600101908083116200039a575b5050505050905060005b8381101562000430576001828281518110620003d157fe5b602002602001015181548110620003e457fe5b9060005260206000200160009054906101000a90046001600160a01b03168382815181106200040f57fe5b6001600160a01b0390921660209283029190910190910152600101620003b9565b5090949350505050565b600054604051632ac2285f60e11b81526001600160a01b039091169063558450be90620004709086908690869060040162000efc565b600060405180830381600087803b1580156200048b57600080fd5b505af1158015620004a0573d6000803e3d6000fd5b50505050505050565b3090565b60015490565b606060018054806020026020016040519081016040528092919081815260200182805480156200050d57602002820191906000526020600020905b81546001600160a01b03168152600190910190602001808311620004ee575b5050505050905090565b6001600160a01b031660009081526002602052604090205490565b606080620005408362000517565b67ffffffffffffffff811180156200055757600080fd5b506040519080825280602002602001820160405280156200059557816020015b62000581620008bd565b815260200190600190039081620005775790505b50905060005b620005a68462000517565b81101562000823576001600160a01b038416600090815260026020526040812080546001919084908110620005d757fe5b906000526020600020015481548110620005ed57fe5b60009182526020822001546001600160a01b031691505b604051631d809bc960e31b81526001600160a01b0383169063ec04de48906200063290339060040162000cf8565b60206040518083038186803b1580156200064b57600080fd5b505afa15801562000660573d6000803e3d6000fd5b505050506040513d601f19601f8201168201806040525081019062000686919062000bce565b8110156200081857600080836001600160a01b03166357ac94f033856040518363ffffffff1660e01b8152600401620006c192919062000d0c565b604080518083038186803b158015620006d957600080fd5b505afa158015620006ee573d6000803e3d6000fd5b505050506040513d601f19601f8201168201806040525081019062000714919062000b85565b60408051808201825260068152656e616d65282960d01b60209182015281516004815260248101835290810180516001600160e01b03166306fdde0360e01b17905290519294509092506060916001600160a01b03851691620007779162000cda565b600060405180830381855afa9150503d8060008114620007b4576040519150601f19603f3d011682016040523d82523d6000602084013e620007b9565b606091505b50915050620007c7620008bd565b6040518060600160405280876001600160a01b0316815260200184815260200183815250905080888881518110620007fb57fe5b602002602001018190525050505050808060010191505062000604565b50506001016200059b565b5092915050565b60006200086e83836040518060400160405280601e81526020017f536166654d6174683a207375627472616374696f6e206f766572666c6f77000081525062000877565b90505b92915050565b60008184841115620008a75760405162461bcd60e51b81526004016200089e919062000ede565b60405180910390fd5b505050900390565b6131e68062000fb183390190565b604051806060016040528060006001600160a01b0316815260200160008152602001606081525090565b8035620008718162000f97565b600082601f83011262000905578081fd5b81356200091c620009168262000f43565b62000f1b565b8181529150602080830190848101818402860182018710156200093e57600080fd5b60005b848110156200095f5781358452928201929082019060010162000941565b505050505092915050565b600082601f8301126200097b578081fd5b81356200098c620009168262000f43565b818152915060208083019084810181840286018201871015620009ae57600080fd5b60005b848110156200095f578135620009c78162000f97565b84529282019290820190600101620009b1565b600082601f830112620009eb578081fd5b813567ffffffffffffffff81111562000a02578182fd5b62000a17601f8201601f191660200162000f1b565b915080825283602082850101111562000a2f57600080fd5b8060208401602084013760009082016020015292915050565b60006020828403121562000a5a578081fd5b813562000a678162000f97565b9392505050565b60008060008060008060008060006101208a8c03121562000a8d578485fd5b62000a998b8b620008e7565b985060208a013567ffffffffffffffff8082111562000ab6578687fd5b62000ac48d838e01620008f4565b995060408c013591508082111562000ada578687fd5b62000ae88d838e016200096a565b985060608c0135975060808c013591508082111562000b05578687fd5b62000b138d838e01620009da565b965060a08c0135955062000b2b8d60c08e01620008e7565b945060e08c013591508082111562000b41578384fd5b62000b4f8d838e01620008f4565b93506101008c013591508082111562000b66578283fd5b5062000b758c828d01620008f4565b9150509295985092959850929598565b6000806040838503121562000b98578182fd5b825162000ba58162000f97565b6020939093015192949293505050565b60006020828403121562000bc7578081fd5b5035919050565b60006020828403121562000be0578081fd5b5051919050565b60008060006060848603121562000bfc578283fd5b83359250602084013562000c108162000f97565b929592945050506040919091013590565b815260200190565b6000815180845260208085019450808401835b8381101562000c635781516001600160a01b03168752958201959082019060010162000c3c565b509495945050505050565b6000815180845260208085019450808401835b8381101562000c635781518752958201959082019060010162000c81565b6001600160a01b03169052565b6000815180845262000cc681602086016020860162000f64565b601f01601f19169290920160200192915050565b6000825162000cee81846020870162000f64565b9190910192915050565b6001600160a01b0391909116815260200190565b6001600160a01b03929092168252602082015260400190565b6001600160a01b038a16815261012060208083018290528a51600092840191829162000d52818462000ef3565b9350818e019250845b8181101562000d805762000d7185855162000c21565b94509282019260010162000d5b565b50505050828103604084015262000d98818b62000c29565b9050886060840152828103608084015262000db4818962000cac565b90508660a084015262000dcb60c084018762000c9f565b82810360e084015262000ddf818662000c6e565b905082810361010084015262000df6818562000c6e565b9c9b505050505050505050505050565b6020808252825182820181905260009190848201906040850190845b8181101562000e495783516001600160a01b03168352928401929184019160010162000e22565b50909695505050505050565b60208082528251828201819052600091906040908185019080840286018301878501865b8381101562000ed057888303603f19018552815180516001600160a01b031684528781015188850152860151606087850181905262000ebb8186018362000cac565b96890196945050509086019060010162000e79565b509098975050505050505050565b6000602082526200086e602083018462000cac565b90815260200190565b9283526001600160a01b03919091166020830152604082015260600190565b60405181810167ffffffffffffffff8111828210171562000f3b57600080fd5b604052919050565b600067ffffffffffffffff82111562000f5a578081fd5b5060209081020190565b60005b8381101562000f8157818101518382015260200162000f67565b8381111562000f91576000848401525b50505050565b6001600160a01b038116811462000fad57600080fd5b5056fe60806040523480156200001157600080fd5b50604051620031e6380380620031e683398101604081905262000034916200076c565b8282828b60006200004462000274565b600080546001600160a01b0319166001600160a01b038316908117825560405192935091600080516020620031c6833981519152908290a3508151835114620000aa5760405162461bcd60e51b8152600401620000a190620008fe565b60405180910390fd5b600180546001600160a01b038087166001600160a01b031992831617808455600480548086019091557f8a35acfbc15ff81a39ae7d344fd709f28e8600b4aa8c65c6b64bfe7fe36bd19b0180548416918316919091179055825481166000908152600560205260408120805460ff191690941790935560028054918516919092161790555b83518110156200017c57620001738482815181106200014a57fe5b60200260200101518483815181106200015f57fe5b60200260200101516200027860201b60201c565b6001016200012f565b505050505060058751106200019057600080fd5b86518851146200019f57600080fd5b60005b87518110156200021357878181518110620001b957fe5b6020026020010151601060008b8481518110620001d257fe5b602090810291909101810151825281019190915260400160002080546001600160a01b0319166001600160a01b0392909216919091179055600101620001a2565b506200021f89620003c7565b8751620002349060129060208b0190620004f6565b50600c86905584516200024f90600e90602088019062000546565b5050600f80546001600160a01b031916331790555050600d555062000a0f9350505050565b3390565b62000282620005b8565b828152602081018281526000608083018181526006805460018101825592819052845192027ff652222313e28459528d920b65115c16c04f3efc82aaedc97be59f3f377c0d3f810192835592517ff652222313e28459528d920b65115c16c04f3efc82aaedc97be59f3f377c0d4084015560408401517ff652222313e28459528d920b65115c16c04f3efc82aaedc97be59f3f377c0d4184015560608401517ff652222313e28459528d920b65115c16c04f3efc82aaedc97be59f3f377c0d42909301805493151560ff199094169390931780845590518493909161ff0019166101008360028111156200037257fe5b021790555050506200039960016006805490506200047460201b62001ae71790919060201c565b6040517ff791e873e3b67fe74b29aeede7bcbbdaa59c4b64e542571183cd837aa56f6ac990600090a2505050565b620003d162000274565b6000546001600160a01b03908116911614620004015760405162461bcd60e51b8152600401620000a19062000947565b6001600160a01b0381166200042a5760405162461bcd60e51b8152600401620000a190620008b8565b600080546040516001600160a01b0380851693921691600080516020620031c683398151915291a3600080546001600160a01b0319166001600160a01b0392909216919091179055565b6000620004be83836040518060400160405280601e81526020017f536166654d6174683a207375627472616374696f6e206f766572666c6f770000815250620004c760201b60201c565b90505b92915050565b60008184841115620004ee5760405162461bcd60e51b8152600401620000a1919062000883565b505050900390565b82805482825590600052602060002090810192821562000534579160200282015b828111156200053457825182559160200191906001019062000517565b5062000542929150620005f4565b5090565b828054600181600116156101000203166002900490600052602060002090601f016020900481019282601f106200058957805160ff191683800117855562000534565b828001600101855582156200053457918201828111156200053457825182559160200191906001019062000517565b6040518060a0016040528060008152602001600081526020016000815260200160001515815260200160006002811115620005ef57fe5b905290565b5b80821115620005425760008155600101620005f5565b8051620004c181620009f6565b600082601f83011262000629578081fd5b8151620006406200063a82620009a3565b6200097c565b8181529150602080830190848101818402860182018710156200066257600080fd5b60005b84811015620006835781518452928201929082019060010162000665565b505050505092915050565b600082601f8301126200069f578081fd5b8151620006b06200063a82620009a3565b818152915060208083019084810181840286018201871015620006d257600080fd5b60005b8481101562000683578151620006eb81620009f6565b84529282019290820190600101620006d5565b600082601f8301126200070f578081fd5b81516001600160401b0381111562000725578182fd5b6200073a601f8201601f19166020016200097c565b91508082528360208285010111156200075257600080fd5b62000765816020840160208601620009c3565b5092915050565b60008060008060008060008060006101208a8c0312156200078b578485fd5b620007978b8b6200060b565b60208b01519099506001600160401b0380821115620007b4578687fd5b620007c28d838e0162000618565b995060408c0151915080821115620007d8578687fd5b620007e68d838e016200068e565b985060608c0151975060808c015191508082111562000803578687fd5b620008118d838e01620006fe565b965060a08c01519550620008298d60c08e016200060b565b945060e08c01519150808211156200083f578384fd5b6200084d8d838e0162000618565b93506101008c015191508082111562000864578283fd5b50620008738c828d0162000618565b9150509295985092959850929598565b6000602082528251806020840152620008a4816040850160208701620009c3565b601f01601f19169190910160400192915050565b60208082526026908201527f4f776e61626c653a206e6577206f776e657220697320746865207a65726f206160408201526564647265737360d01b606082015260800190565b60208082526029908201527f506c6561736520636865636b2074686520706172616d73206f6620796f757220604082015268706572696f6473202160b81b606082015260800190565b6020808252818101527f4f776e61626c653a2063616c6c6572206973206e6f7420746865206f776e6572604082015260600190565b6040518181016001600160401b03811182821017156200099b57600080fd5b604052919050565b60006001600160401b03821115620009b9578081fd5b5060209081020190565b60005b83811015620009e0578181015183820152602001620009c6565b83811115620009f0576000848401525b50505050565b6001600160a01b038116811462000a0c57600080fd5b50565b6127a78062000a1f6000396000f3fe608060405234801561001057600080fd5b50600436106101dc5760003560e01c806394199c6111610105578063ea4a11041161009d578063ea4a1104146103dd578063ec04de4814610401578063f10bd77214610414578063f2fde38b14610427578063f34ed40d1461043a578063f3fef3a31461044d578063fbbf93a014610460578063fc875ece14610479578063fd5e6dd11461049a576101dc565b806394199c6114610337578063a2e80c5e14610359578063ae169a5014610361578063b0227b4714610374578063b5d5b5fa14610387578063b83e02341461039a578063c623674f146103ad578063cec534d6146103c2578063e7ab816a146103d5576101dc565b806357ac94f01161017857806357ac94f0146102b55780635e5f2e26146102d65780635f4efaba146102e9578063715018a6146102f157806375fdf2a9146102f95780637b1039991461030c578063817b1cd214610314578063869c39251461031c5780638da5cb5b1461032f576101dc565b806302e8b893146101e15780630e1fcf341461020a578063105237cf1461021f578063171e44ea1461023f5780631934d0e8146102525780632eac9787146102655780633a4b66f1146102855780633a5381b51461028d57806353e85fd5146102a2575b600080fd5b6101f46101ef3660046120ee565b6104ad565b60405161020191906122e6565b60405180910390f35b61021d610218366004612106565b61053e565b005b61023261022d36600461201b565b61058a565b604051610201919061233f565b61021d61024d36600461201b565b61059f565b610232610260366004612037565b610674565b610278610273366004612037565b610694565b604051610201919061234a565b6102786106b1565b6102956106b7565b60405161020191906121f0565b61021d6102b03660046120ee565b6106c6565b6102c86102c336600461206f565b610940565b604051610201929190612228565b6102956102e43660046120ee565b6109c0565b6102956109e7565b61021d6109f6565b61021d61030736600461209a565b610a75565b610295610dd5565b610278610de4565b61021d61032a366004612127565b610dea565b610295610f37565b61034a610345366004612106565b610f46565b6040516102019392919061270c565b610278610f85565b61021d61036f3660046120ee565b610f8b565b6102956103823660046120ee565b611165565b6102c861039536600461206f565b611180565b6102786103a836600461201b565b6111c3565b6103b56111d5565b6040516102019190612353565b61021d6103d036600461216e565b611263565b610278611453565b6103f06103eb3660046120ee565b611459565b604051610201959493929190612722565b61027861040f36600461201b565b61149c565b61027861042236600461206f565b6114b7565b61021d61043536600461201b565b61157a565b6102786104483660046120ee565b611630565b61021d61045b36600461206f565b61164e565b6104686118c0565b604051610201959493929190612241565b61048c6104873660046120ee565b611a90565b6040516102019291906126fe565b6102956104a83660046120ee565b611ada565b606060116000838152602001908152602001600020805480602002602001604051908101604052809291908181526020016000905b8282101561053257838290600052602060002090600302016040518060600160405290816000820154815260200160018201548152602001600282015481525050815260200190600101906104e2565b5050505090505b919050565b610546611b30565b6000546001600160a01b0390811691161461057c5760405162461bcd60e51b81526004016105739061260d565b60405180910390fd5b6105868282611b34565b5050565b60056020526000908152604090205460ff1681565b6105a7611b30565b6000546001600160a01b039081169116146105d45760405162461bcd60e51b81526004016105739061260d565b6001600160a01b03811660009081526005602052604090205460ff161561060d5760405162461bcd60e51b81526004016105739061251b565b6004805460018181019092557f8a35acfbc15ff81a39ae7d344fd709f28e8600b4aa8c65c6b64bfe7fe36bd19b0180546001600160a01b039093166001600160a01b031990931683179055600091825260056020526040909120805460ff19169091179055565b600a60209081526000928352604080842090915290825290205460ff1681565b600960209081526000928352604080842090915290825290205481565b600c5481565b6002546001600160a01b031681565b80600681815481106106d457fe5b90600052602060002090600602016000015442101580156107135750600681815481106106fd57fe5b9060005260206000209060060201600101544211155b61071c57600080fd5b6002546001600160a01b03163314156107475760405162461bcd60e51b8152600401610573906124b5565b60026006838154811061075657fe5b906000526020600020906006020160030160019054906101000a900460ff16600281111561078057fe5b1461079d5760405162461bcd60e51b8152600401610573906123ca565b600682815481106107aa57fe5b6000918252602080832033845260056006909302019190910190526040902054156107e75760405162461bcd60e51b8152600401610573906126a1565b60006107f333846114b7565b9050600061080d600a610807846003611c6e565b90611ca8565b600b5490915061081d9083611ae7565b600b81905550816006858154811061083157fe5b600091825260208083203380855260069390930201600501905260409182902092909255600154905163a9059cbb60e01b81526001600160a01b039091169163a9059cbb9161088591908690600401612228565b602060405180830381600087803b15801561089f57600080fd5b505af11580156108b3573d6000803e3d6000fd5b505050506040513d601f19601f820116820180604052508101906108d791906120ce565b50600154604051630852cd8d60e31b81526001600160a01b03909116906342966c689061090890849060040161234a565b600060405180830381600087803b15801561092257600080fd5b505af1158015610936573d6000803e3d6000fd5b5050505050505050565b6001600160a01b038216600090815260086020526040812080548291908490811061096757fe5b600091825260208083206002909202909101546001600160a01b038781168452600890925260409092208054919092169190859081106109a357fe5b906000526020600020906002020160010154915091509250929050565b600481815481106109cd57fe5b6000918252602090912001546001600160a01b0316905081565b6001546001600160a01b031681565b6109fe611b30565b6000546001600160a01b03908116911614610a2b5760405162461bcd60e51b81526004016105739061260d565b600080546040516001600160a01b03909116907f8be0079c531659141344cd1fd0a4f28419497f9722a3daafe3b4186f6b6457e0908390a3600080546001600160a01b0319169055565b6002546001600160a01b0316331415610aa05760405162461bcd60e51b8152600401610573906124b5565b6001600160a01b038316600090815260056020526040902054839060ff161515600114610adf5760405162461bcd60e51b8152600401610573906125df565b600060068381548110610aee57fe5b600091825260208083206001600160a01b03891684526004600690930201919091018152604080832033845290915290205411610b3d5760405162461bcd60e51b8152600401610573906124e4565b6040516323b872dd60e01b81526001600160a01b038516906323b872dd90610b6d90339030908890600401612204565b602060405180830381600087803b158015610b8757600080fd5b505af1158015610b9b573d6000803e3d6000fd5b505050506040513d601f19601f82011682018060405250810190610bbf91906120ce565b50610c098360068481548110610bd157fe5b600091825260208083206001600160a01b038a1684526004600690930201919091018152604080832033845290915290205490611cea565b60068381548110610c1657fe5b600091825260208083206001600160a01b038916845260046006909302019190910181526040808320338452909152902055600b54610c559084611cea565b600b55610c628484611d0f565b600060068381548110610c7157fe5b600091825260208083206001600160a01b0389168452600692830201600401815260408084203385529091528220546003548254919450610cd892909187908110610cb857fe5b906000526020600020906006020160020154611ca890919063ffffffff16565b9050600060068581548110610ce957fe5b600091825260208083206001600160a01b038b16845260046006909302019190910181526040808320338452909152902055600b54610d289083611ae7565b600b556001546001600160a01b031663a9059cbb33610d478585611ae7565b6040518363ffffffff1660e01b8152600401610d64929190612228565b602060405180830381600087803b158015610d7e57600080fd5b505af1158015610d92573d6000803e3d6000fd5b505050506040513d601f19601f82011682018060405250810190610db691906120ce565b50600154610dcd906001600160a01b031683611e3a565b505050505050565b600f546001600160a01b031681565b600b5481565b600f60009054906101000a90046001600160a01b03166001600160a01b0316633cb747bf6040518163ffffffff1660e01b815260040160206040518083038186803b158015610e3857600080fd5b505afa158015610e4c573d6000803e3d6000fd5b505050506040513d601f19601f82011682018060405250810190610e709190612152565b6001600160a01b0316336001600160a01b031614610ea05760405162461bcd60e51b815260040161057390612470565b600083815260116020908152604080832081516060810183524280825281850188815282850188815284546001818101875595895296909720925160039096029092019485559051918401919091559251600290920191909155517fc95987c1992805ee34bdc915e017cceae36ba1c156b9911fa7e691e6435eb46e91610f2a918590859061270c565b60405180910390a1505050565b6000546001600160a01b031690565b60116020528160005260406000208181548110610f5f57fe5b600091825260209091206003909102018054600182015460029092015490935090915083565b60035490565b8060068181548110610f9957fe5b9060005260206000209060060201600001544210158015610fd8575060068181548110610fc257fe5b9060005260206000209060060201600101544211155b610fe157600080fd5b6002546001600160a01b0316331461100b5760405162461bcd60e51b81526004016105739061266e565b60016006838154811061101a57fe5b906000526020600020906006020160030160019054906101000a900460ff16600281111561104457fe5b146110615760405162461bcd60e51b81526004016105739061239d565b6006828154811061106e57fe5b600091825260209091206003600690920201015460ff16156110a25760405162461bcd60e51b815260040161057390612548565b600654600b546000916110b59190611ca8565b905060006110c9600a610807846003611c6e565b600b549091506110d99083611ae7565b600b8190555081600685815481106110ed57fe5b90600052602060002090600602016002018190555060016006858154811061111157fe5b60009182526020909120600690910201600301805460ff191691151591909117905560015460405163a9059cbb60e01b81526001600160a01b039091169063a9059cbb906108859033908690600401612228565b6010602052600090815260409020546001600160a01b031681565b6008602052816000526040600020818154811061119957fe5b6000918252602090912060029091020180546001909101546001600160a01b039091169250905082565b60076020526000908152604090205481565b600e805460408051602060026001851615610100026000190190941693909304601f8101849004840282018401909252818152929183018282801561125b5780601f106112305761010080835404028352916020019161125b565b820191906000526020600020905b81548152906001019060200180831161123e57829003601f168201915b505050505081565b6001600160a01b038216600090815260056020526040902054829060ff1615156001146112a25760405162461bcd60e51b8152600401610573906125df565b600084116112c25760405162461bcd60e51b815260040161057390612642565b6112cd338484611e9a565b6040516323b872dd60e01b81526001600160a01b038416906323b872dd906112fd90339030908990600401612204565b602060405180830381600087803b15801561131757600080fd5b505af115801561132b573d6000803e3d6000fd5b505050506040513d601f19601f8201168201806040525081019061134f91906120ce565b50611399846006848154811061136157fe5b600091825260208083206001600160a01b03891684526004600690930201919091018152604080832033845290915290205490611cea565b600683815481106113a657fe5b600091825260208083206001600160a01b038816845260046006909302019190910181526040808320338452909152902055600b546113e59085611cea565b600b55336000908152600760205260409020546001141561144357600380546001810182556000919091527fc2575a0e9e593c00f959f8c92f12db2869c3395a3b0502d05e2516446f71f85b0180546001600160a01b031916331790555b61144d8385611d0f565b50505050565b600d5490565b6006818154811061146657fe5b60009182526020909120600690910201805460018201546002830154600390930154919350919060ff8082169161010090041685565b6001600160a01b031660009081526008602052604090205490565b6001600160a01b0382166000908152600760205260408120546114ec5760405162461bcd60e51b815260040161057390612366565b6000805b600454811015611570576115666006858154811061150a57fe5b906000526020600020906006020160040160006004848154811061152a57fe5b60009182526020808320909101546001600160a01b0390811684528382019490945260409283018220938a168252929092529020548390611cea565b91506001016114f0565b5090505b92915050565b611582611b30565b6000546001600160a01b039081169116146115af5760405162461bcd60e51b81526004016105739061260d565b6001600160a01b0381166115d55760405162461bcd60e51b8152600401610573906123f3565b600080546040516001600160a01b03808516939216917f8be0079c531659141344cd1fd0a4f28419497f9722a3daafe3b4186f6b6457e091a3600080546001600160a01b0319166001600160a01b0392909216919091179055565b6012818154811061163d57fe5b600091825260209091200154905081565b6002546001600160a01b03163314156116795760405162461bcd60e51b8152600401610573906124b5565b6001600160a01b038216600090815260056020526040902054829060ff1615156001146116b85760405162461bcd60e51b8152600401610573906125df565b6000600683815481106116c757fe5b600091825260208083206001600160a01b038816845260046006909302019190910181526040808320338452909152902054116117165760405162461bcd60e51b8152600401610573906124e4565b60006006838154811061172557fe5b600091825260208083206001600160a01b038816845260069283020160040181526040808420338552909152822054600354825491945061176c92909187908110610cb857fe5b905060006006858154811061177d57fe5b600091825260208083206001600160a01b038a16845260046006909302019190910181526040808320338452909152902055600b546117bc9083611ae7565b600b556001600160a01b03851663a9059cbb336117d98585611ae7565b6040518363ffffffff1660e01b81526004016117f6929190612228565b602060405180830381600087803b15801561181057600080fd5b505af1158015611824573d6000803e3d6000fd5b505050506040513d601f19601f8201168201806040525081019061184891906120ce565b5033600090815260076020526040902054611864906001611ae7565b3360009081526007602052604090208190556118af57600061188533611f24565b90506003818154811061189457fe5b600091825260209091200180546001600160a01b0319169055505b6118b98583611e3a565b5050505050565b600060606000606080606060128054905067ffffffffffffffff811180156118e757600080fd5b50604051908082528060200260200182016040528015611911578160200160208202803683370190505b50905060005b60125481101561198b57601060006012838154811061193257fe5b9060005260206000200154815260200190815260200160002060009054906101000a90046001600160a01b031682828151811061196b57fe5b6001600160a01b0390921660209283029190910190910152600101611917565b50611994610f37565b600c54600e805460408051602060026001851615610100026000190190941693909304601f810184900484028201840190925281815292939260129287928691830182828015611a255780601f106119fa57610100808354040283529160200191611a25565b820191906000526020600020905b815481529060010190602001808311611a0857829003601f168201915b5050505050935081805480602002602001604051908101604052809291908181526020018280548015611a7757602002820191906000526020600020905b815481526020019060010190808311611a63575b5050505050915095509550955095509550509091929394565b60008060068381548110611aa057fe5b90600052602060002090600602016000015460068481548110611abf57fe5b90600052602060002090600602016001015491509150915091565b600381815481106109cd57fe5b6000611b2983836040518060400160405280601e81526020017f536166654d6174683a207375627472616374696f6e206f766572666c6f770000815250611f7d565b9392505050565b3390565b611b3c611fe0565b828152602081018281526000608083018181526006805460018101825592819052845192027ff652222313e28459528d920b65115c16c04f3efc82aaedc97be59f3f377c0d3f810192835592517ff652222313e28459528d920b65115c16c04f3efc82aaedc97be59f3f377c0d4084015560408401517ff652222313e28459528d920b65115c16c04f3efc82aaedc97be59f3f377c0d4184015560608401517ff652222313e28459528d920b65115c16c04f3efc82aaedc97be59f3f377c0d42909301805493151560ff199094169390931780845590518493909161ff001916610100836002811115611c2b57fe5b021790555050600654611c4091506001611ae7565b6040517ff791e873e3b67fe74b29aeede7bcbbdaa59c4b64e542571183cd837aa56f6ac990600090a2505050565b600082611c7d57506000611574565b82820282848281611c8a57fe5b0414611b295760405162461bcd60e51b81526004016105739061259e565b6000611b2983836040518060400160405280601a81526020017f536166654d6174683a206469766973696f6e206279207a65726f000000000000815250611fa9565b600082820183811015611b295760405162461bcd60e51b815260040161057390612439565b336000908152600a602090815260408083206001600160a01b038616845290915290205460ff16611dda57336000818152600860209081526040808320815180830183526001600160a01b03888116808352828601898152845460018082018755868a52888a209551600290920290950180546001600160a01b0319169190941617835551918301919091558686529154600985528386208387528552838620600019919091019055948452600a83528184209084529091529020805460ff19169091179055610586565b3360008181526009602090815260408083206001600160a01b038716845282528083205493835260089091529020805461144d91849184908110611e1a57fe5b906000526020600020906002020160010154611cea90919063ffffffff16565b3360008181526009602090815260408083206001600160a01b038716845282528083205493835260089091529020805461144d91849184908110611e7a57fe5b906000526020600020906002020160010154611ae790919063ffffffff16565b600060068281548110611ea957fe5b600091825260208083206001600160a01b0387811685526006939093020160040181526040808420928816845291905290205411611f1f576001600160a01b038316600090815260076020526040902054611f05906001611cea565b6001600160a01b0384166000908152600760205260409020555b505050565b6000805b600354811015611f7357826001600160a01b031660038281548110611f4957fe5b6000918252602090912001546001600160a01b03161415611f6b579050610539565b600101611f28565b5060001992915050565b60008184841115611fa15760405162461bcd60e51b81526004016105739190612353565b505050900390565b60008183611fca5760405162461bcd60e51b81526004016105739190612353565b506000838581611fd657fe5b0495945050505050565b6040518060a001604052806000815260200160008152602001600081526020016000151581526020016000600281111561201657fe5b905290565b60006020828403121561202c578081fd5b8135611b2981612759565b60008060408385031215612049578081fd5b823561205481612759565b9150602083013561206481612759565b809150509250929050565b60008060408385031215612081578182fd5b823561208c81612759565b946020939093013593505050565b6000806000606084860312156120ae578081fd5b83356120b981612759565b95602085013595506040909401359392505050565b6000602082840312156120df578081fd5b81518015158114611b29578182fd5b6000602082840312156120ff578081fd5b5035919050565b60008060408385031215612118578182fd5b50508035926020909101359150565b60008060006060848603121561213b578283fd5b505081359360208301359350604090920135919050565b600060208284031215612163578081fd5b8151611b2981612759565b600080600060608486031215612182578283fd5b83359250602084013561219481612759565b929592945050506040919091013590565b60008151808452815b818110156121ca576020818501810151868301820152016121ae565b818111156121db5782602083870101525b50601f01601f19169290920160200192915050565b6001600160a01b0391909116815260200190565b6001600160a01b039384168152919092166020820152604081019190915260600190565b6001600160a01b03929092168252602082015260400190565b600060018060a01b038088168352602060a08185015261226460a08501896121a5565b604085018890528481036060860152865180825282880191830190855b8181101561229d57835183529284019291840191600101612281565b505085810360808701528651808252908301915082870190855b818110156122d55782518616845292840192918401916001016122b7565b50919b9a5050505050505050505050565b602080825282518282018190526000919060409081850190868401855b828110156123325781518051855286810151878601528501518585015260609093019290850190600101612303565b5091979650505050505050565b901515815260200190565b90815260200190565b600060208252611b2960208301846121a5565b6020808252601d908201527f5573657220686173206e6f7420616e7920746f6b656e207374616b6564000000604082015260600190565b602080825260139082015272534c41206e6f7420726573706563746564202160681b604082015260600190565b6020808252600f908201526e534c4120726573706563746564202160881b604082015260600190565b60208082526026908201527f4f776e61626c653a206e6577206f776e657220697320746865207a65726f206160408201526564647265737360d01b606082015260800190565b6020808252601b908201527f536166654d6174683a206164646974696f6e206f766572666c6f770000000000604082015260600190565b60208082526025908201527f4f6e6c79204d657373656e6765722063616e2063616c6c20746869732066756e6040820152643a31b4b7b760d91b606082015260800190565b602080825260159082015274596f752061726520612076616c696461746f72202160581b604082015260600190565b6020808252601b908201527f7374616b696e672062616c616e63652063616e6e6f7420626520300000000000604082015260600190565b6020808252601390820152721d1bdad95b88185b1c9958591e481859191959606a1b604082015260600190565b60208082526036908201527f596f75206861766520616c726561647920636c61696d656420796f75722072656040820152757761726420666f72207468697320706572696f64202160501b606082015260800190565b60208082526021908201527f536166654d6174683a206d756c7469706c69636174696f6e206f766572666c6f6040820152607760f81b606082015260800190565b6020808252601490820152731d1bdad95b881a5cc81b9bdd08185b1b1bddd95960621b604082015260600190565b6020808252818101527f4f776e61626c653a2063616c6c6572206973206e6f7420746865206f776e6572604082015260600190565b6020808252601290820152710616d6f756e742063616e6e6f7420626520360741b604082015260600190565b602080825260199082015278596f7520617265206e6f7420612076616c696461746f72202160381b604082015260600190565b6020808252603c908201527f596f75206861766520616c726561647920636c61696d656420796f757220636f60408201527f6d70656e736174696f6e20666f72207468697320706572696f64202100000000606082015260800190565b918252602082015260400190565b9283526020830191909152604082015260600190565b8581526020810185905260408101849052821515606082015260a081016003831061274957fe5b8260808301529695505050505050565b6001600160a01b038116811461276e57600080fd5b5056fea264697066735822122048477c0c394d0a704341f31cd3f189a0432b5432c154acbb3fad1f7dc14ce01764736f6c634300060c00338be0079c531659141344cd1fd0a4f28419497f9722a3daafe3b4186f6b6457e0a26469706673582212208c923096569ac3eb849a7e8f562fe6e5a959e517edd3a6a09e380a577972cd9d64736f6c634300060c0033",
  "immutableReferences": {},
  "source": "// SPDX-License-Identifier: MIT\npragma solidity ^0.6.0;\npragma experimental ABIEncoderV2;\n\nimport \"@openzeppelin/contracts/math/SafeMath.sol\";\nimport \"@openzeppelin/contracts/token/ERC20/IERC20.sol\";\nimport \"./Messenger.sol\";\nimport \"./SLA/SLA.sol\";\nimport \"./SLO/SLO.sol\";\nimport \"./bDSLA/bDSLAToken.sol\";\n\n/**\n * @title SLARegistry\n * @dev SLARegistry is a contract for handling creation of service level\n * agreements and keeping track of the created agreements\n */\ncontract SLARegistry {\n    using SafeMath for uint256;\n    bytes4 private constant NAME_SELECTOR = bytes4(keccak256(bytes(\"name()\")));\n\n    /// @dev struct to return on getActivePool function.\n    struct ActivePool {\n        address SLAaddress;\n        uint256 stake;\n        string assetName;\n    }\n\n    /// @dev Messenger of the SLA Registry\n    Messenger public messenger;\n\n    /// @dev stores the addresses of created SLAs\n    SLA[] public SLAs;\n\n    /// @dev stores the indexes of service level agreements owned by an user\n    mapping(address => uint256[]) private userToSLAIndexes;\n\n    /**\n     * @dev event for service level agreement creation logging\n     * @param sla 1. The address of the created service level agreement contract\n     * @param owner 2. The address of the owner of the service level agreement\n     */\n    event SLACreated(SLA indexed sla, address indexed owner);\n\n    /**\n     * @dev constructor\n     * @param _messengerAddress the address of the chainlink messenger contract\n     */\n    constructor(Messenger _messengerAddress) public {\n        messenger = _messengerAddress;\n        /// TODO:change to call(signature(params)))\n        messenger.setSLARegistry();\n    }\n\n    /**\n     * @dev public function for creating service level agreements\n     * @param _owner 1. address of the owner of the service level agreement\n     * @param _SLONames 2. array of the names of the service level objectives\n     * in bytes32\n     * @param _SLOs 3. array of service level objective contract addressess\n     * service level objective breach\n     * @param _stake 4. uint of the amount required to stake when signing the\n     * service level agreement\n     * @param _ipfsHash 5. string with the ipfs hash that contains extra\n     * information about the service level agreement\n     * @param _sliInterval 6. uint the interval in seconds between requesting a new SLI\n     * @param _tokenAddress 7. address of the DSLA token to be unlocked for staking\n     * @param _sla_period_starts 8. array with the values for the \"start\" of every period\n     * @param _sla_period_ends 9. array with the values for the \"end\" of every period\n     */\n    function createSLA(\n        address _owner,\n        bytes32[] memory _SLONames,\n        SLO[] memory _SLOs,\n        uint256 _stake,\n        string memory _ipfsHash,\n        uint256 _sliInterval,\n        bDSLAToken _tokenAddress,\n        uint256[] memory _sla_period_starts,\n        uint256[] memory _sla_period_ends\n    ) public {\n        SLA sla =\n            new SLA(\n                _owner,\n                _SLONames,\n                _SLOs,\n                _stake,\n                _ipfsHash,\n                _sliInterval,\n                _tokenAddress,\n                _sla_period_starts,\n                _sla_period_ends\n            );\n\n        SLAs.push(sla);\n\n        uint256 index = SLAs.length.sub(1);\n\n        userToSLAIndexes[msg.sender].push(index);\n\n        emit SLACreated(sla, _owner);\n    }\n\n    /**\n     * @dev Gets SLI information for the specified SLA and SLO\n     * @param _periodId 1. id of the period\n     * @param _sla 2. SLA Address\n     * @param _sloName 3. SLO Name\n     */\n    function requestSLI(\n        uint256 _periodId,\n        SLA _sla,\n        bytes32 _sloName\n    ) public {\n        /// TODO:change to call(signature(params)))\n        messenger.requestSLI(_periodId, _sla, _sloName);\n    }\n\n    /**\n     * @dev public view function that returns the service level agreements that\n     * the given user is the owner of\n     * @param _user Address of the user for which to return the service level\n     * agreements\n     * @return array of SLAs\n     */\n    function userSLAs(address _user) public view returns (SLA[] memory) {\n        uint256 count = userSLACount(_user);\n        SLA[] memory SLAList = new SLA[](count);\n        uint256[] memory userSLAIndexes = userToSLAIndexes[_user];\n\n        for (uint256 i = 0; i < count; i++) {\n            SLAList[i] = (SLAs[userSLAIndexes[i]]);\n        }\n\n        return (SLAList);\n    }\n\n    /**\n     * @dev public view function that returns the amount of service level\n     * agreements the given user is the owner of\n     * @param _user 1. address of the user for which to return the amount of\n     * service level agreements\n     * @return uint256 corresponding to the amount of user's SLAs\n     */\n    function userSLACount(address _user) public view returns (uint256) {\n        return userToSLAIndexes[_user].length;\n    }\n\n    /**\n     * @dev public view function that returns all the service level agreements\n     * @return SLA[] array of SLAs\n     */\n    function allSLAs() public view returns (SLA[] memory) {\n        return (SLAs);\n    }\n\n    /**\n     * @dev public view function that returns the total amount of service\n     * level agreements\n     * @return uint256, the length of SLA array\n     */\n    function SLACount() public view returns (uint256) {\n        return SLAs.length;\n    }\n\n    /**\n     * @dev returns the active pools owned by a user.\n     * @param _slaOwner 1. owner of the active pool\n     * @return ActivePool[], array of structs: {SLAaddress,stake,assetName}\n     */\n    function getActivePool(address _slaOwner)\n        public\n        view\n        returns (ActivePool[] memory)\n    {\n        ActivePool[] memory activePools =\n            new ActivePool[](userSLACount(_slaOwner));\n        for (uint256 index = 0; index < userSLACount(_slaOwner); index++) {\n            SLA currentSLA = SLAs[userToSLAIndexes[_slaOwner][index]];\n            for (\n                uint256 tokenIndex = 0;\n                tokenIndex < currentSLA.getTokenStakeLength(msg.sender);\n                tokenIndex++\n            ) {\n                (address tokenAddress, uint256 stake) =\n                    currentSLA.getTokenStake(msg.sender, tokenIndex);\n                (, bytes memory tokenNameBytes) =\n                    tokenAddress.staticcall(\n                        abi.encodeWithSelector(NAME_SELECTOR)\n                    );\n                ActivePool memory currentActivePool =\n                    ActivePool({\n                        SLAaddress: address(currentSLA),\n                        stake: stake,\n                        assetName: string(tokenNameBytes)\n                    });\n                activePools[index] = currentActivePool;\n            }\n        }\n        return activePools;\n    }\n\n    /**\n     * @dev returns the Messenger address.\n     * @return address corresponding to Messenger\n     */\n    function getMessenger() public view returns(address){\n        return address(this);\n    }\n}\n",
  "sourcePath": "/Users/matiasbn/Desktop/stacktical/stacktical-dsla-contracts/contracts/SLARegistry.sol",
  "compiler": {
    "name": "solc",
    "version": "0.6.12+commit.27d51765.Emscripten.clang"
  },
  "schemaVersion": "3.2.5",
  "updatedAt": "2020-12-23T17:51:22.753Z",
  "devdoc": {
    "details": "SLARegistry is a contract for handling creation of service level agreements and keeping track of the created agreements",
    "events": {
      "SLACreated(address,address)": {
        "details": "event for service level agreement creation logging",
        "params": {
          "owner": "2. The address of the owner of the service level agreement",
          "sla": "1. The address of the created service level agreement contract"
        }
      }
    },
    "kind": "dev",
    "methods": {
      "SLACount()": {
        "details": "public view function that returns the total amount of service level agreements",
        "returns": {
          "_0": "uint256, the length of SLA array"
        }
      },
      "allSLAs()": {
        "details": "public view function that returns all the service level agreements",
        "returns": {
          "_0": "SLA[] array of SLAs"
        }
      },
      "constructor": {
        "details": "constructor",
        "params": {
          "_messengerAddress": "the address of the chainlink messenger contract"
        }
      },
      "createSLA(address,bytes32[],address[],uint256,string,uint256,address,uint256[],uint256[])": {
        "details": "public function for creating service level agreements",
        "params": {
          "_SLONames": "2. array of the names of the service level objectives in bytes32",
          "_SLOs": "3. array of service level objective contract addressess service level objective breach",
          "_ipfsHash": "5. string with the ipfs hash that contains extra information about the service level agreement",
          "_owner": "1. address of the owner of the service level agreement",
          "_sla_period_ends": "9. array with the values for the \"end\" of every period",
          "_sla_period_starts": "8. array with the values for the \"start\" of every period",
          "_sliInterval": "6. uint the interval in seconds between requesting a new SLI",
          "_stake": "4. uint of the amount required to stake when signing the service level agreement",
          "_tokenAddress": "7. address of the DSLA token to be unlocked for staking"
        }
      },
      "getActivePool(address)": {
        "details": "returns the active pools owned by a user.",
        "params": {
          "_slaOwner": "1. owner of the active pool"
        },
        "returns": {
          "_0": "ActivePool[], array of structs: {SLAaddress,stake,assetName}"
        }
      },
      "getMessenger()": {
        "details": "returns the Messenger address.",
        "returns": {
          "_0": "address corresponding to Messenger"
        }
      },
      "requestSLI(uint256,address,bytes32)": {
        "details": "Gets SLI information for the specified SLA and SLO",
        "params": {
          "_periodId": "1. id of the period",
          "_sla": "2. SLA Address",
          "_sloName": "3. SLO Name"
        }
      },
      "userSLACount(address)": {
        "details": "public view function that returns the amount of service level agreements the given user is the owner of",
        "params": {
          "_user": "1. address of the user for which to return the amount of service level agreements"
        },
        "returns": {
          "_0": "uint256 corresponding to the amount of user's SLAs"
        }
      },
      "userSLAs(address)": {
        "details": "public view function that returns the service level agreements that the given user is the owner of",
        "params": {
          "_user": "Address of the user for which to return the service level agreements"
        },
        "returns": {
          "_0": "array of SLAs"
        }
      }
    },
    "stateVariables": {
      "SLAs": {
        "details": "stores the addresses of created SLAs"
      },
      "messenger": {
        "details": "Messenger of the SLA Registry"
      },
      "userToSLAIndexes": {
        "details": "stores the indexes of service level agreements owned by an user"
      }
    },
    "title": "SLARegistry",
    "version": 1
  },
  "userdoc": {
    "kind": "user",
    "methods": {},
    "version": 1
  }
}