{
  "contractName": "SLARegistry",
  "abi": [
    {
      "constant": true,
      "inputs": [],
      "name": "messenger",
      "outputs": [
        {
          "name": "",
          "type": "address"
        }
      ],
      "payable": false,
      "stateMutability": "view",
      "type": "function",
      "signature": "0x3cb747bf"
    },
    {
      "constant": true,
      "inputs": [
        {
          "name": "",
          "type": "uint256"
        }
      ],
      "name": "SLAs",
      "outputs": [
        {
          "name": "",
          "type": "address"
        }
      ],
      "payable": false,
      "stateMutability": "view",
      "type": "function",
      "signature": "0x50c5abfe"
    },
    {
      "inputs": [
        {
          "name": "_messengerAddress",
          "type": "address"
        }
      ],
      "payable": false,
      "stateMutability": "nonpayable",
      "type": "constructor",
      "signature": "constructor"
    },
    {
      "anonymous": false,
      "inputs": [
        {
          "indexed": true,
          "name": "sla",
          "type": "address"
        },
        {
          "indexed": true,
          "name": "owner",
          "type": "address"
        }
      ],
      "name": "SLACreated",
      "type": "event",
      "signature": "0xb52f284a6c14f1a66ab5513b5b539066933e58e69e6432666f0e3c8c8a7d7503"
    },
    {
      "constant": true,
      "inputs": [
        {
          "name": "_start",
          "type": "uint256"
        },
        {
          "name": "_end",
          "type": "uint256"
        }
      ],
      "name": "paginatedSLAs",
      "outputs": [
        {
          "name": "",
          "type": "address[]"
        }
      ],
      "payable": false,
      "stateMutability": "view",
      "type": "function",
      "signature": "0xa91452d3"
    },
    {
      "constant": false,
      "inputs": [
        {
          "name": "_owner",
          "type": "address"
        },
        {
          "name": "_whitelist",
          "type": "address"
        },
        {
          "name": "_dsla",
          "type": "address"
        },
        {
          "name": "_SLONames",
          "type": "bytes32[]"
        },
        {
          "name": "_SLOs",
          "type": "address[]"
        },
        {
          "name": "_compensationAmount",
          "type": "uint256"
        },
        {
          "name": "_stake",
          "type": "uint256"
        },
        {
          "name": "_ipfsHash",
          "type": "string"
        },
        {
          "name": "_poolSize",
          "type": "uint256"
        },
        {
          "name": "_sliInterval",
          "type": "uint256"
        }
      ],
      "name": "createSLA",
      "outputs": [],
      "payable": false,
      "stateMutability": "nonpayable",
      "type": "function",
      "signature": "0x3c7acafb"
    },
    {
      "constant": true,
      "inputs": [
        {
          "name": "_user",
          "type": "address"
        }
      ],
      "name": "userSLAs",
      "outputs": [
        {
          "name": "",
          "type": "address[]"
        }
      ],
      "payable": false,
      "stateMutability": "view",
      "type": "function",
      "signature": "0x516c2857"
    },
    {
      "constant": true,
      "inputs": [
        {
          "name": "_user",
          "type": "address"
        }
      ],
      "name": "userSLACount",
      "outputs": [
        {
          "name": "",
          "type": "uint256"
        }
      ],
      "payable": false,
      "stateMutability": "view",
      "type": "function",
      "signature": "0xe9b1e98c"
    },
    {
      "constant": true,
      "inputs": [],
      "name": "allSLAs",
      "outputs": [
        {
          "name": "",
          "type": "address[]"
        }
      ],
      "payable": false,
      "stateMutability": "view",
      "type": "function",
      "signature": "0x96bddc10"
    },
    {
      "constant": true,
      "inputs": [
        {
          "name": "_user",
          "type": "address"
        }
      ],
      "name": "subscribedSLAs",
      "outputs": [
        {
          "name": "",
          "type": "address[]"
        }
      ],
      "payable": false,
      "stateMutability": "view",
      "type": "function",
      "signature": "0x018cb097"
    },
    {
      "constant": true,
      "inputs": [
        {
          "name": "_user",
          "type": "address"
        }
      ],
      "name": "subscriptionCount",
      "outputs": [
        {
          "name": "",
          "type": "uint256"
        }
      ],
      "payable": false,
      "stateMutability": "view",
      "type": "function",
      "signature": "0x71499969"
    },
    {
      "constant": true,
      "inputs": [],
      "name": "SLACount",
      "outputs": [
        {
          "name": "",
          "type": "uint256"
        }
      ],
      "payable": false,
      "stateMutability": "view",
      "type": "function",
      "signature": "0x816ff986"
    }
  ],
  "bytecode": "0x608060405234801561001057600080fd5b506040516020806144a68339810180604052602081101561003057600080fd5b8101908080519060200190929190505050806000806101000a81548173ffffffffffffffffffffffffffffffffffffffff021916908373ffffffffffffffffffffffffffffffffffffffff1602179055506000809054906101000a900473ffffffffffffffffffffffffffffffffffffffff1673ffffffffffffffffffffffffffffffffffffffff1663f38815896040518163ffffffff167c0100000000000000000000000000000000000000000000000000000000028152600401600060405180830381600087803b15801561010657600080fd5b505af115801561011a573d6000803e3d6000fd5b50505050506143788061012e6000396000f3fe60806040523480156200001157600080fd5b5060043610620000c9576000357c01000000000000000000000000000000000000000000000000000000009004806371499969116200008c57806371499969146200053f578063816ff986146200059a57806396bddc1014620005ba578063a91452d3146200061d578063e9b1e98c14620006af57620000c9565b8063018cb09714620000ce5780633c7acafb146200016c5780633cb747bf14620003e457806350c5abfe1462000430578063516c285714620004a1575b600080fd5b6200011360048036036020811015620000e657600080fd5b81019080803573ffffffffffffffffffffffffffffffffffffffff1690602001909291905050506200070a565b6040518080602001828103825283818151815260200191508051906020019060200280838360005b83811015620001585780820151818401526020810190506200013b565b505050509050019250505060405180910390f35b620003e260048036036101408110156200018557600080fd5b81019080803573ffffffffffffffffffffffffffffffffffffffff169060200190929190803573ffffffffffffffffffffffffffffffffffffffff169060200190929190803573ffffffffffffffffffffffffffffffffffffffff169060200190929190803590602001906401000000008111156200020357600080fd5b8201836020820111156200021657600080fd5b803590602001918460208302840111640100000000831117156200023957600080fd5b919080806020026020016040519081016040528093929190818152602001838360200280828437600081840152601f19601f820116905080830192505050505050509192919290803590602001906401000000008111156200029a57600080fd5b820183602082011115620002ad57600080fd5b80359060200191846020830284011164010000000083111715620002d057600080fd5b919080806020026020016040519081016040528093929190818152602001838360200280828437600081840152601f19601f8201169050808301925050505050505091929192908035906020019092919080359060200190929190803590602001906401000000008111156200034557600080fd5b8201836020820111156200035857600080fd5b803590602001918460018302840111640100000000831117156200037b57600080fd5b91908080601f016020809104026020016040519081016040528093929190818152602001838380828437600081840152601f19601f82011690508083019250505050505050919291929080359060200190929190803590602001909291905050506200092a565b005b620003ee62000fac565b604051808273ffffffffffffffffffffffffffffffffffffffff1673ffffffffffffffffffffffffffffffffffffffff16815260200191505060405180910390f35b6200045f600480360360208110156200044857600080fd5b810190808035906020019092919050505062000fd1565b604051808273ffffffffffffffffffffffffffffffffffffffff1673ffffffffffffffffffffffffffffffffffffffff16815260200191505060405180910390f35b620004e660048036036020811015620004b957600080fd5b81019080803573ffffffffffffffffffffffffffffffffffffffff1690602001909291905050506200100e565b6040518080602001828103825283818151815260200191508051906020019060200280838360005b838110156200052b5780820151818401526020810190506200050e565b505050509050019250505060405180910390f35b62000584600480360360208110156200055757600080fd5b81019080803573ffffffffffffffffffffffffffffffffffffffff169060200190929190505050620011a5565b6040518082815260200191505060405180910390f35b620005a462001306565b6040518082815260200191505060405180910390f35b620005c462001313565b6040518080602001828103825283818151815260200191508051906020019060200280838360005b8381101562000609578082015181840152602081019050620005ec565b505050509050019250505060405180910390f35b62000656600480360360408110156200063557600080fd5b810190808035906020019092919080359060200190929190505050620013a3565b6040518080602001828103825283818151815260200191508051906020019060200280838360005b838110156200069b5780820151818401526020810190506200067e565b505050509050019250505060405180910390f35b620006f460048036036020811015620006c757600080fd5b81019080803573ffffffffffffffffffffffffffffffffffffffff169060200190929190505050620014f6565b6040518082815260200191505060405180910390f35b6060806200071883620011a5565b604051908082528060200260200182016040528015620007475781602001602082028038833980820191505090505b509050600080905060008090505b6001805490508110156200091f57600181815481106200077157fe5b9060005260206000200160009054906101000a900473ffffffffffffffffffffffffffffffffffffffff1673ffffffffffffffffffffffffffffffffffffffff1663b92ae87c866040518263ffffffff167c0100000000000000000000000000000000000000000000000000000000028152600401808273ffffffffffffffffffffffffffffffffffffffff1673ffffffffffffffffffffffffffffffffffffffff16815260200191505060206040518083038186803b1580156200083557600080fd5b505afa1580156200084a573d6000803e3d6000fd5b505050506040513d60208110156200086157600080fd5b8101908080519060200190929190505050156200091157600181815481106200088657fe5b9060005260206000200160009054906101000a900473ffffffffffffffffffffffffffffffffffffffff16838381518110620008be57fe5b602002602001019073ffffffffffffffffffffffffffffffffffffffff16908173ffffffffffffffffffffffffffffffffffffffff16815250506200090e6001836200154290919063ffffffff16565b91505b808060010191505062000755565b508192505050919050565b818873ffffffffffffffffffffffffffffffffffffffff1663dd62ed3e33306040518363ffffffff167c0100000000000000000000000000000000000000000000000000000000028152600401808373ffffffffffffffffffffffffffffffffffffffff1673ffffffffffffffffffffffffffffffffffffffff1681526020018273ffffffffffffffffffffffffffffffffffffffff1673ffffffffffffffffffffffffffffffffffffffff1681526020019250505060206040518083038186803b158015620009f957600080fd5b505afa15801562000a0e573d6000803e3d6000fd5b505050506040513d602081101562000a2557600080fd5b8101908080519060200190929190505050101562000a4257600080fd5b60008a8a8a8a8a8a8a8a8960405162000a5b9062001583565b808a73ffffffffffffffffffffffffffffffffffffffff1673ffffffffffffffffffffffffffffffffffffffff1681526020018973ffffffffffffffffffffffffffffffffffffffff1673ffffffffffffffffffffffffffffffffffffffff1681526020018873ffffffffffffffffffffffffffffffffffffffff1673ffffffffffffffffffffffffffffffffffffffff16815260200180602001806020018781526020018681526020018060200185815260200184810384528a818151815260200191508051906020019060200280838360005b8381101562000b4d57808201518184015260208101905062000b30565b50505050905001848103835289818151815260200191508051906020019060200280838360005b8381101562000b9157808201518184015260208101905062000b74565b50505050905001848103825286818151815260200191508051906020019080838360005b8381101562000bd257808201518184015260208101905062000bb5565b50505050905090810190601f16801562000c005780820380516001836020036101000a031916815260200191505b509c50505050505050505050505050604051809103906000f08015801562000c2c573d6000803e3d6000fd5b5090508873ffffffffffffffffffffffffffffffffffffffff166323b872dd3383866040518463ffffffff167c0100000000000000000000000000000000000000000000000000000000028152600401808473ffffffffffffffffffffffffffffffffffffffff1673ffffffffffffffffffffffffffffffffffffffff1681526020018373ffffffffffffffffffffffffffffffffffffffff1673ffffffffffffffffffffffffffffffffffffffff1681526020018281526020019350505050602060405180830381600087803b15801562000d0757600080fd5b505af115801562000d1c573d6000803e3d6000fd5b505050506040513d602081101562000d3357600080fd5b810190808051906020019092919050505050600062000dc06001808490806001815401808255809150509060018203906000526020600020016000909192909190916101000a81548173ffffffffffffffffffffffffffffffffffffffff021916908373ffffffffffffffffffffffffffffffffffffffff1602179055506200156290919063ffffffff16565b9050600260003373ffffffffffffffffffffffffffffffffffffffff1673ffffffffffffffffffffffffffffffffffffffff16815260200190815260200160002081908060018154018082558091505090600182039060005260206000200160009091929091909150555060008090505b895181101562000f43576000809054906101000a900473ffffffffffffffffffffffffffffffffffffffff1673ffffffffffffffffffffffffffffffffffffffff16638137d6cb848c848151811062000e8657fe5b6020026020010151876040518463ffffffff167c0100000000000000000000000000000000000000000000000000000000028152600401808473ffffffffffffffffffffffffffffffffffffffff1673ffffffffffffffffffffffffffffffffffffffff1681526020018381526020018281526020019350505050600060405180830381600087803b15801562000f1c57600080fd5b505af115801562000f31573d6000803e3d6000fd5b50505050808060010191505062000e31565b508b73ffffffffffffffffffffffffffffffffffffffff168273ffffffffffffffffffffffffffffffffffffffff167fb52f284a6c14f1a66ab5513b5b539066933e58e69e6432666f0e3c8c8a7d750360405160405180910390a3505050505050505050505050565b6000809054906101000a900473ffffffffffffffffffffffffffffffffffffffff1681565b6001818154811062000fdf57fe5b906000526020600020016000915054906101000a900473ffffffffffffffffffffffffffffffffffffffff1681565b606060006200101d83620014f6565b9050606081604051908082528060200260200182016040528015620010515781602001602082028038833980820191505090505b5090506060600260008673ffffffffffffffffffffffffffffffffffffffff1673ffffffffffffffffffffffffffffffffffffffff168152602001908152602001600020805480602002602001604051908101604052809291908181526020018280548015620010e157602002820191906000526020600020905b815481526020019060010190808311620010cc575b5050505050905060008090505b83811015620011995760018282815181106200110657fe5b6020026020010151815481106200111957fe5b9060005260206000200160009054906101000a900473ffffffffffffffffffffffffffffffffffffffff168382815181106200115157fe5b602002602001019073ffffffffffffffffffffffffffffffffffffffff16908173ffffffffffffffffffffffffffffffffffffffff16815250508080600101915050620010ee565b50819350505050919050565b6000806000905060008090505b600180549050811015620012fc5760018181548110620011ce57fe5b9060005260206000200160009054906101000a900473ffffffffffffffffffffffffffffffffffffffff1673ffffffffffffffffffffffffffffffffffffffff1663b92ae87c856040518263ffffffff167c0100000000000000000000000000000000000000000000000000000000028152600401808273ffffffffffffffffffffffffffffffffffffffff1673ffffffffffffffffffffffffffffffffffffffff16815260200191505060206040518083038186803b1580156200129257600080fd5b505afa158015620012a7573d6000803e3d6000fd5b505050506040513d6020811015620012be57600080fd5b810190808051906020019092919050505015620012ee57620012eb6001836200154290919063ffffffff16565b91505b8080600101915050620011b2565b5080915050919050565b6000600180549050905090565b606060018054806020026020016040519081016040528092919081815260200182805480156200139957602002820191906000526020600020905b8160009054906101000a900473ffffffffffffffffffffffffffffffffffffffff1673ffffffffffffffffffffffffffffffffffffffff16815260200190600101908083116200134e575b5050505050905090565b606081831115620013b357600080fd5b6060620013df6001620013d086866200156290919063ffffffff16565b6200154290919063ffffffff16565b6040519080825280602002602001820160405280156200140e5781602001602082028038833980820191505090505b50905060008090505b6200144160016200143287876200156290919063ffffffff16565b6200154290919063ffffffff16565b811015620014eb5760016200146086836200154290919063ffffffff16565b815481106200146b57fe5b9060005260206000200160009054906101000a900473ffffffffffffffffffffffffffffffffffffffff16828281518110620014a357fe5b602002602001019073ffffffffffffffffffffffffffffffffffffffff16908173ffffffffffffffffffffffffffffffffffffffff1681525050808060010191505062001417565b508091505092915050565b6000600260008373ffffffffffffffffffffffffffffffffffffffff1673ffffffffffffffffffffffffffffffffffffffff168152602001908152602001600020805490509050919050565b6000808284019050838110156200155857600080fd5b8091505092915050565b6000828211156200157257600080fd5b600082840390508091505092915050565b612dbb80620015928339019056fe60806040523480156200001157600080fd5b5060405162002dbb38038062002dbb83398101806040526101208110156200003857600080fd5b8101908080519060200190929190805190602001909291908051906020019092919080516401000000008111156200006f57600080fd5b828101905060208101848111156200008657600080fd5b8151856020820283011164010000000082111715620000a457600080fd5b50509291906020018051640100000000811115620000c157600080fd5b82810190506020810184811115620000d857600080fd5b8151856020820283011164010000000082111715620000f657600080fd5b5050929190602001805190602001909291908051906020019092919080516401000000008111156200012757600080fd5b828101905060208101848111156200013e57600080fd5b81518560018202830111640100000000821117156200015c57600080fd5b505092919060200180519060200190929190505050336000806101000a81548173ffffffffffffffffffffffffffffffffffffffff021916908373ffffffffffffffffffffffffffffffffffffffff1602179055506000809054906101000a900473ffffffffffffffffffffffffffffffffffffffff1673ffffffffffffffffffffffffffffffffffffffff16600073ffffffffffffffffffffffffffffffffffffffff167f8be0079c531659141344cd1fd0a4f28419497f9722a3daafe3b4186f6b6457e060405160405180910390a360058551106200023c57600080fd5b84518651146200024b57600080fd5b60008090505b8551811015620002e3578581815181106200026857fe5b6020026020010151601060008984815181106200028157fe5b6020026020010151815260200190815260200160002060006101000a81548173ffffffffffffffffffffffffffffffffffffffff021916908373ffffffffffffffffffffffffffffffffffffffff160217905550808060010191505062000251565b50620002fe8962000417640100000000026401000000009004565b856012908051906020019062000316929190620005a7565b5087600660006101000a81548173ffffffffffffffffffffffffffffffffffffffff021916908373ffffffffffffffffffffffffffffffffffffffff16021790555086600b60006101000a81548173ffffffffffffffffffffffffffffffffffffffff021916908373ffffffffffffffffffffffffffffffffffffffff1602179055508360058190555082600c8190555081600e9080519060200190620003bf929190620005f9565b5033600f60006101000a81548173ffffffffffffffffffffffffffffffffffffffff021916908373ffffffffffffffffffffffffffffffffffffffff16021790555080600d81905550505050505050505050620006d0565b6200043062000457640100000000026401000000009004565b6200043a57600080fd5b6200045481620004ae640100000000026401000000009004565b50565b60008060009054906101000a900473ffffffffffffffffffffffffffffffffffffffff1673ffffffffffffffffffffffffffffffffffffffff163373ffffffffffffffffffffffffffffffffffffffff1614905090565b600073ffffffffffffffffffffffffffffffffffffffff168173ffffffffffffffffffffffffffffffffffffffff161415620004e957600080fd5b8073ffffffffffffffffffffffffffffffffffffffff166000809054906101000a900473ffffffffffffffffffffffffffffffffffffffff1673ffffffffffffffffffffffffffffffffffffffff167f8be0079c531659141344cd1fd0a4f28419497f9722a3daafe3b4186f6b6457e060405160405180910390a3806000806101000a81548173ffffffffffffffffffffffffffffffffffffffff021916908373ffffffffffffffffffffffffffffffffffffffff16021790555050565b828054828255906000526020600020908101928215620005e6579160200282015b82811115620005e5578251825591602001919060010190620005c8565b5b509050620005f5919062000680565b5090565b828054600181600116156101000203166002900490600052602060002090601f016020900481019282601f106200063c57805160ff19168380011785556200066d565b828001600101855582156200066d579182015b828111156200066c5782518255916020019190600101906200064f565b5b5090506200067c9190620006a8565b5090565b620006a591905b80821115620006a157600081600090555060010162000687565b5090565b90565b620006cd91905b80821115620006c9576000816000905550600101620006af565b5090565b90565b6126db80620006e06000396000f3fe608060405234801561001057600080fd5b50600436106101ab576000357c0100000000000000000000000000000000000000000000000000000000900480638f32d59b116100fb578063b92ae87c116100b4578063d994df281161008e578063d994df28146107e1578063e7ab816a146107ff578063f2fde38b1461081d578063fbbf93a014610861576101ab565b8063b92ae87c146106f8578063c623674f14610754578063c939329b146107d7576101ab565b80638f32d59b1461048757806393e59dc1146104a957806394199c61146104f3578063acc559de146105b2578063b0227b471461062b578063b64d07ce14610699576101ab565b80637440ac4311610168578063810019cf11610142578063810019cf1461035c57806387a15dc9146103e9578063880842bd146103f35780638da5cb5b1461043d576101ab565b80637440ac43146102ea578063797b363a146103085780637b10399914610312576101ab565b806308d0a7cf146101b05780630daa77a8146101f45780633a4b66f1146102125780635268f5571461023057806365546f8614610288578063715018a6146102e0575b600080fd5b6101f2600480360360208110156101c657600080fd5b81019080803573ffffffffffffffffffffffffffffffffffffffff169060200190929190505050610a22565b005b6101fc610a77565b6040518082815260200191505060405180910390f35b61021a610a7d565b6040518082815260200191505060405180910390f35b6102726004803603602081101561024657600080fd5b81019080803573ffffffffffffffffffffffffffffffffffffffff169060200190929190505050610a83565b6040518082815260200191505060405180910390f35b6102ca6004803603602081101561029e57600080fd5b81019080803573ffffffffffffffffffffffffffffffffffffffff169060200190929190505050610a9b565b6040518082815260200191505060405180910390f35b6102e8610ab3565b005b6102f2610b83565b6040518082815260200191505060405180910390f35b610310610b89565b005b61031a610ccd565b604051808273ffffffffffffffffffffffffffffffffffffffff1673ffffffffffffffffffffffffffffffffffffffff16815260200191505060405180910390f35b6103e76004803603606081101561037257600080fd5b810190808035906020019092919080359060200190929190803590602001906401000000008111156103a357600080fd5b8201836020820111156103b557600080fd5b803590602001918460018302840111640100000000831117156103d757600080fd5b9091929391929390505050610cf3565b005b6103f161101b565b005b6103fb61113e565b604051808273ffffffffffffffffffffffffffffffffffffffff1673ffffffffffffffffffffffffffffffffffffffff16815260200191505060405180910390f35b610445611164565b604051808273ffffffffffffffffffffffffffffffffffffffff1673ffffffffffffffffffffffffffffffffffffffff16815260200191505060405180910390f35b61048f61118d565b604051808215151515815260200191505060405180910390f35b6104b16111e4565b604051808273ffffffffffffffffffffffffffffffffffffffff1673ffffffffffffffffffffffffffffffffffffffff16815260200191505060405180910390f35b6105296004803603604081101561050957600080fd5b81019080803590602001909291908035906020019092919050505061120a565b6040518084815260200183815260200180602001828103825283818151815260200191508051906020019080838360005b8381101561057557808201518184015260208101905061055a565b50505050905090810190601f1680156105a25780820380516001836020036101000a031916815260200191505b5094505050505060405180910390f35b610629600480360360208110156105c857600080fd5b81019080803590602001906401000000008111156105e557600080fd5b8201836020820111156105f757600080fd5b8035906020019184602083028401116401000000008311171561061957600080fd5b90919293919293905050506112e6565b005b6106576004803603602081101561064157600080fd5b810190808035906020019092919050505061158a565b604051808273ffffffffffffffffffffffffffffffffffffffff1673ffffffffffffffffffffffffffffffffffffffff16815260200191505060405180910390f35b6106a16115bd565b6040518080602001828103825283818151815260200191508051906020019060200280838360005b838110156106e45780820151818401526020810190506106c9565b505050509050019250505060405180910390f35b61073a6004803603602081101561070e57600080fd5b81019080803573ffffffffffffffffffffffffffffffffffffffff16906020019092919050505061170a565b604051808215151515815260200191505060405180910390f35b61075c611760565b6040518080602001828103825283818151815260200191508051906020019080838360005b8381101561079c578082015181840152602081019050610781565b50505050905090810190601f1680156107c95780820380516001836020036101000a031916815260200191505b509250505060405180910390f35b6107df6117fe565b005b6107e9611bbf565b6040518082815260200191505060405180910390f35b610807611bc5565b6040518082815260200191505060405180910390f35b61085f6004803603602081101561083357600080fd5b81019080803573ffffffffffffffffffffffffffffffffffffffff169060200190929190505050611bcf565b005b610869611bec565b60405180806020018a73ffffffffffffffffffffffffffffffffffffffff1673ffffffffffffffffffffffffffffffffffffffff1681526020018973ffffffffffffffffffffffffffffffffffffffff1673ffffffffffffffffffffffffffffffffffffffff1681526020018873ffffffffffffffffffffffffffffffffffffffff1673ffffffffffffffffffffffffffffffffffffffff168152602001878152602001868152602001858152602001806020018060200184810384528d818151815260200191508051906020019080838360005b8381101561095957808201518184015260208101905061093e565b50505050905090810190601f1680156109865780820380516001836020036101000a031916815260200191505b50848103835286818151815260200191508051906020019060200280838360005b838110156109c25780820151818401526020810190506109a7565b50505050905001848103825285818151815260200191508051906020019060200280838360005b83811015610a045780820151818401526020810190506109e9565b505050509050019c5050505050505050505050505060405180910390f35b610a2a61118d565b610a3357600080fd5b80600660006101000a81548173ffffffffffffffffffffffffffffffffffffffff021916908373ffffffffffffffffffffffffffffffffffffffff16021790555050565b60095481565b600c5481565b60036020528060005260406000206000915090505481565b60026020528060005260406000206000915090505481565b610abb61118d565b610ac457600080fd5b600073ffffffffffffffffffffffffffffffffffffffff166000809054906101000a900473ffffffffffffffffffffffffffffffffffffffff1673ffffffffffffffffffffffffffffffffffffffff167f8be0079c531659141344cd1fd0a4f28419497f9722a3daafe3b4186f6b6457e060405160405180910390a360008060006101000a81548173ffffffffffffffffffffffffffffffffffffffff021916908373ffffffffffffffffffffffffffffffffffffffff160217905550565b60045481565b610b923361170a565b610b9b57600080fd5b610ba433611e4d565b15610bb457610bb233611e9a565b505b610bbc612087565b6000600c541115610ccb57600b60009054906101000a900473ffffffffffffffffffffffffffffffffffffffff1673ffffffffffffffffffffffffffffffffffffffff1663a9059cbb33600c546040518363ffffffff167c0100000000000000000000000000000000000000000000000000000000028152600401808373ffffffffffffffffffffffffffffffffffffffff1673ffffffffffffffffffffffffffffffffffffffff16815260200182815260200192505050602060405180830381600087803b158015610c8e57600080fd5b505af1158015610ca2573d6000803e3d6000fd5b505050506040513d6020811015610cb857600080fd5b8101908080519060200190929190505050505b565b600f60009054906101000a900473ffffffffffffffffffffffffffffffffffffffff1681565b600f60009054906101000a900473ffffffffffffffffffffffffffffffffffffffff1673ffffffffffffffffffffffffffffffffffffffff16633cb747bf6040518163ffffffff167c010000000000000000000000000000000000000000000000000000000002815260040160206040518083038186803b158015610d7757600080fd5b505afa158015610d8b573d6000803e3d6000fd5b505050506040513d6020811015610da157600080fd5b810190808051906020019092919050505073ffffffffffffffffffffffffffffffffffffffff163373ffffffffffffffffffffffffffffffffffffffff1614610de957600080fd5b60116000858152602001908152602001600020604051806060016040528042815260200185815260200184848080601f016020809104026020016040519081016040528093929190818152602001838380828437600081840152601f19601f820116905080830192505050505050508152509080600181540180825580915050906001820390600052602060002090600302016000909192909190915060008201518160000155602082015181600101556040820151816002019080519060200190610eb692919061260a565b505050507f048094af00d5b1e004ae2a3f03c2bd4897a83b5672ed2b02b7b3416b9709805c4284848460405180858152602001848152602001806020018281038252848482818152602001925080828437600081840152601f19601f8201169050808301925050509550505050505060405180910390a16010600085815260200190815260200160002060009054906101000a900473ffffffffffffffffffffffffffffffffffffffff1673ffffffffffffffffffffffffffffffffffffffff1663868d08f7846040518263ffffffff167c01000000000000000000000000000000000000000000000000000000000281526004018082815260200191505060206040518083038186803b158015610fcd57600080fd5b505afa158015610fe1573d6000803e3d6000fd5b505050506040513d6020811015610ff757600080fd5b810190808051906020019092919050505061101557611014612152565b5b50505050565b6110243361170a565b61102d57600080fd5b600061103833611e9a565b9050600b60009054906101000a900473ffffffffffffffffffffffffffffffffffffffff1673ffffffffffffffffffffffffffffffffffffffff1663a9059cbb33836040518363ffffffff167c0100000000000000000000000000000000000000000000000000000000028152600401808373ffffffffffffffffffffffffffffffffffffffff1673ffffffffffffffffffffffffffffffffffffffff16815260200182815260200192505050602060405180830381600087803b1580156110ff57600080fd5b505af1158015611113573d6000803e3d6000fd5b505050506040513d602081101561112957600080fd5b81019080805190602001909291905050505050565b600b60009054906101000a900473ffffffffffffffffffffffffffffffffffffffff1681565b60008060009054906101000a900473ffffffffffffffffffffffffffffffffffffffff16905090565b60008060009054906101000a900473ffffffffffffffffffffffffffffffffffffffff1673ffffffffffffffffffffffffffffffffffffffff163373ffffffffffffffffffffffffffffffffffffffff1614905090565b600660009054906101000a900473ffffffffffffffffffffffffffffffffffffffff1681565b6011602052816000526040600020818154811061122357fe5b906000526020600020906003020160009150915050806000015490806001015490806002018054600181600116156101000203166002900480601f0160208091040260200160405190810160405280929190818152602001828054600181600116156101000203166002900480156112dc5780601f106112b1576101008083540402835291602001916112dc565b820191906000526020600020905b8154815290600101906020018083116112bf57829003601f168201915b5050505050905083565b600080905060008090505b8383905081101561148357600084848381811061130a57fe5b9050602002013573ffffffffffffffffffffffffffffffffffffffff1690506113328161170a565b8015611343575061134281611e4d565b5b1561147557600061135382611e9a565b9050600b60009054906101000a900473ffffffffffffffffffffffffffffffffffffffff1673ffffffffffffffffffffffffffffffffffffffff1663a9059cbb83836040518363ffffffff167c0100000000000000000000000000000000000000000000000000000000028152600401808373ffffffffffffffffffffffffffffffffffffffff1673ffffffffffffffffffffffffffffffffffffffff16815260200182815260200192505050602060405180830381600087803b15801561141a57600080fd5b505af115801561142e573d6000803e3d6000fd5b505050506040513d602081101561144457600080fd5b810190808051906020019092919050505050611471670de0b6b3a7640000856121aa90919063ffffffff16565b9350505b5080806001019150506112f1565b50600b60009054906101000a900473ffffffffffffffffffffffffffffffffffffffff1673ffffffffffffffffffffffffffffffffffffffff1663a9059cbb33836040518363ffffffff167c0100000000000000000000000000000000000000000000000000000000028152600401808373ffffffffffffffffffffffffffffffffffffffff1673ffffffffffffffffffffffffffffffffffffffff16815260200182815260200192505050602060405180830381600087803b15801561154957600080fd5b505af115801561155d573d6000803e3d6000fd5b505050506040513d602081101561157357600080fd5b810190808051906020019092919050505050505050565b60106020528060005260406000206000915054906101000a900473ffffffffffffffffffffffffffffffffffffffff1681565b606080600a546040519080825280602002602001820160405280156115f15781602001602082028038833980820191505090505b50905060008090505b600a548110156117025760006008828154811061161357fe5b9060005260206000200160009054906101000a900473ffffffffffffffffffffffffffffffffffffffff1690506116498161170a565b801561165a575061165981611e4d565b5b156116ab578083838151811061166c57fe5b602002602001019073ffffffffffffffffffffffffffffffffffffffff16908173ffffffffffffffffffffffffffffffffffffffff16815250506116f4565b60008383815181106116b957fe5b602002602001019073ffffffffffffffffffffffffffffffffffffffff16908173ffffffffffffffffffffffffffffffffffffffff16815250505b5080806001019150506115fa565b508091505090565b6000600760008373ffffffffffffffffffffffffffffffffffffffff1673ffffffffffffffffffffffffffffffffffffffff16815260200190815260200160002060009054906101000a900460ff169050919050565b600e8054600181600116156101000203166002900480601f0160208091040260200160405190810160405280929190818152602001828054600181600116156101000203166002900480156117f65780601f106117cb576101008083540402835291602001916117f6565b820191906000526020600020905b8154815290600101906020018083116117d957829003601f168201915b505050505081565b600073ffffffffffffffffffffffffffffffffffffffff16600660009054906101000a900473ffffffffffffffffffffffffffffffffffffffff1673ffffffffffffffffffffffffffffffffffffffff161461195457600660009054906101000a900473ffffffffffffffffffffffffffffffffffffffff1673ffffffffffffffffffffffffffffffffffffffff16633af32abf336040518263ffffffff167c0100000000000000000000000000000000000000000000000000000000028152600401808273ffffffffffffffffffffffffffffffffffffffff1673ffffffffffffffffffffffffffffffffffffffff16815260200191505060206040518083038186803b15801561190f57600080fd5b505afa158015611923573d6000803e3d6000fd5b505050506040513d602081101561193957600080fd5b810190808051906020019092919050505061195357600080fd5b5b61195d3361170a565b1561196757600080fd5b61196f6121c9565b61197761245a565b6000600c541115611bbd57600b60009054906101000a900473ffffffffffffffffffffffffffffffffffffffff1673ffffffffffffffffffffffffffffffffffffffff1663095ea7b330600c546040518363ffffffff167c0100000000000000000000000000000000000000000000000000000000028152600401808373ffffffffffffffffffffffffffffffffffffffff1673ffffffffffffffffffffffffffffffffffffffff16815260200182815260200192505050602060405180830381600087803b158015611a4957600080fd5b505af1158015611a5d573d6000803e3d6000fd5b505050506040513d6020811015611a7357600080fd5b810190808051906020019092919050505050600b60009054906101000a900473ffffffffffffffffffffffffffffffffffffffff1673ffffffffffffffffffffffffffffffffffffffff166323b872dd3330600c546040518463ffffffff167c0100000000000000000000000000000000000000000000000000000000028152600401808473ffffffffffffffffffffffffffffffffffffffff1673ffffffffffffffffffffffffffffffffffffffff1681526020018373ffffffffffffffffffffffffffffffffffffffff1673ffffffffffffffffffffffffffffffffffffffff1681526020018281526020019350505050602060405180830381600087803b158015611b8057600080fd5b505af1158015611b94573d6000803e3d6000fd5b505050506040513d6020811015611baa57600080fd5b8101908080519060200190929190505050505b565b60055481565b6000600d54905090565b611bd761118d565b611be057600080fd5b611be9816124f2565b50565b60606000806000806000806060806060601280549050604051908082528060200260200182016040528015611c305781602001602082028038833980820191505090505b50905060008090505b601280549050811015611ce4576010600060128381548110611c5757fe5b9060005260206000200154815260200190815260200160002060009054906101000a900473ffffffffffffffffffffffffffffffffffffffff16828281518110611c9d57fe5b602002602001019073ffffffffffffffffffffffffffffffffffffffff16908173ffffffffffffffffffffffffffffffffffffffff16815250508080600101915050611c39565b50600e600b60009054906101000a900473ffffffffffffffffffffffffffffffffffffffff16600660009054906101000a900473ffffffffffffffffffffffffffffffffffffffff16611d35611164565b600554600c54600954601288888054600181600116156101000203166002900480601f016020809104026020016040519081016040528092919081815260200182805460018160011615610100020316600290048015611dd65780601f10611dab57610100808354040283529160200191611dd6565b820191906000526020600020905b815481529060010190602001808311611db957829003601f168201915b5050505050985081805480602002602001604051908101604052809291908181526020018280548015611e2857602002820191906000526020600020905b815481526020019060010190808311611e14575b5050505050915099509950995099509950995099509950995050909192939495969798565b6000600454600260008473ffffffffffffffffffffffffffffffffffffffff1673ffffffffffffffffffffffffffffffffffffffff16815260200190815260200160002054109050919050565b6000611ea582611e4d565b611eae57600080fd5b6000611f04600260008573ffffffffffffffffffffffffffffffffffffffff1673ffffffffffffffffffffffffffffffffffffffff168152602001908152602001600020546004546125ea90919063ffffffff16565b9050611f5881600260008673ffffffffffffffffffffffffffffffffffffffff1673ffffffffffffffffffffffffffffffffffffffff168152602001908152602001600020546121aa90919063ffffffff16565b600260008573ffffffffffffffffffffffffffffffffffffffff1673ffffffffffffffffffffffffffffffffffffffff16815260200190815260200160002081905550611fed81600360008673ffffffffffffffffffffffffffffffffffffffff1673ffffffffffffffffffffffffffffffffffffffff168152602001908152602001600020546121aa90919063ffffffff16565b600360008573ffffffffffffffffffffffffffffffffffffffff1673ffffffffffffffffffffffffffffffffffffffff168152602001908152602001600020819055508273ffffffffffffffffffffffffffffffffffffffff167f1480b15e3eab83a9b923578ffe330e3dce94536007ec9c0b48a5dfbde8c49181826040518082815260200191505060405180910390a280915050919050565b6120903361170a565b61209957600080fd5b6000600760003373ffffffffffffffffffffffffffffffffffffffff1673ffffffffffffffffffffffffffffffffffffffff16815260200190815260200160002060006101000a81548160ff02191690831515021790555061210760016009546125ea90919063ffffffff16565b6009819055503373ffffffffffffffffffffffffffffffffffffffff167fae563681ccc696fae58fe830f401bc9c043a43ddb9f7c2830b32c3c70d9966e760405160405180910390a2565b6121696005546004546121aa90919063ffffffff16565b6004819055507f8f54d482248b8bb080211e41e3b058544f2444f56ab4e6d0368cbb17b5b2b8eb6004546040518082815260200191505060405180910390a1565b6000808284019050838110156121bf57600080fd5b8091505092915050565b600073ffffffffffffffffffffffffffffffffffffffff16600660009054906101000a900473ffffffffffffffffffffffffffffffffffffffff1673ffffffffffffffffffffffffffffffffffffffff161461231f57600660009054906101000a900473ffffffffffffffffffffffffffffffffffffffff1673ffffffffffffffffffffffffffffffffffffffff16633af32abf336040518263ffffffff167c0100000000000000000000000000000000000000000000000000000000028152600401808273ffffffffffffffffffffffffffffffffffffffff1673ffffffffffffffffffffffffffffffffffffffff16815260200191505060206040518083038186803b1580156122da57600080fd5b505afa1580156122ee573d6000803e3d6000fd5b505050506040513d602081101561230457600080fd5b810190808051906020019092919050505061231e57600080fd5b5b6001600760003373ffffffffffffffffffffffffffffffffffffffff1673ffffffffffffffffffffffffffffffffffffffff16815260200190815260200160002060006101000a81548160ff02191690831515021790555061238d60016009546121aa90919063ffffffff16565b60098190555060083390806001815401808255809150509060018203906000526020600020016000909192909190916101000a81548173ffffffffffffffffffffffffffffffffffffffff021916908373ffffffffffffffffffffffffffffffffffffffff1602179055505061240f6001600a546121aa90919063ffffffff16565b600a819055503373ffffffffffffffffffffffffffffffffffffffff167fa88fac53823b534c72d6958345adbe6801e072750d83b490d52ebbac51473a6360405160405180910390a2565b600454600260003373ffffffffffffffffffffffffffffffffffffffff1673ffffffffffffffffffffffffffffffffffffffff168152602001908152602001600020819055503373ffffffffffffffffffffffffffffffffffffffff167f86bd51a87477f175261ed976d5f38ebe16b536267992a6308317ad92c417b2f46004546040518082815260200191505060405180910390a2565b600073ffffffffffffffffffffffffffffffffffffffff168173ffffffffffffffffffffffffffffffffffffffff16141561252c57600080fd5b8073ffffffffffffffffffffffffffffffffffffffff166000809054906101000a900473ffffffffffffffffffffffffffffffffffffffff1673ffffffffffffffffffffffffffffffffffffffff167f8be0079c531659141344cd1fd0a4f28419497f9722a3daafe3b4186f6b6457e060405160405180910390a3806000806101000a81548173ffffffffffffffffffffffffffffffffffffffff021916908373ffffffffffffffffffffffffffffffffffffffff16021790555050565b6000828211156125f957600080fd5b600082840390508091505092915050565b828054600181600116156101000203166002900490600052602060002090601f016020900481019282601f1061264b57805160ff1916838001178555612679565b82800160010185558215612679579182015b8281111561267857825182559160200191906001019061265d565b5b509050612686919061268a565b5090565b6126ac91905b808211156126a8576000816000905550600101612690565b5090565b9056fea165627a7a72305820d9590e607f9188f423a370f275ac1c269746e0045abfe644e2e767f3fdad6e9d0029a165627a7a7230582056d971858ecf2fabe28ebcfdc30f31fc86d96f9e4cee6779b72aa9bee688bd830029",
  "source": "pragma solidity 0.5.7;\n\nimport \"openzeppelin-solidity/contracts/math/SafeMath.sol\";\nimport \"openzeppelin-solidity/contracts/token/ERC20/IERC20.sol\";\nimport \"./interfaces/IMessenger.sol\";\nimport \"./SLA/SLA.sol\";\nimport \"./SLO/SLO.sol\";\nimport \"./Whitelist/Whitelist.sol\";\n\n/**\n * @title SLARegistry\n * @dev SLARegistry is a contract for handling creation of service level\n * agreements and keeping track of the created agreements\n */\ncontract SLARegistry {\n\n    using SafeMath for uint256;\n\n    IMessenger public messenger;\n\n    // Array that stores the addresses of created service level agreements\n    SLA[] public SLAs;\n\n    // Mapping that stores the indexes of service level agreements owned by a user\n    mapping(address => uint[]) private userToSLAIndexes;\n\n    /**\n     * @dev event for service level agreement creation logging\n     * @param sla The address of the created service level agreement contract\n     * @param owner The address of the owner of the service level agreement\n     */\n    event SLACreated(SLA indexed sla, address indexed owner);\n\n    /**\n     * @dev constructor\n     * @param _messengerAddress the address of the chainlink messenger contract\n     */\n    constructor(IMessenger _messengerAddress) public {\n        messenger = _messengerAddress;\n\n        messenger.setSLARegistry();\n    }\n\n    /**\n     * @dev external view function that returns the service level agreements for\n     * a certain range in the array\n     * @param _start the index of the start position in the array\n     * @param _end the index of the end position in the array\n     */\n    function paginatedSLAs(uint _start, uint _end) external view returns(\n        SLA[] memory\n    ) {\n        require(_start <= _end);\n\n        SLA[] memory SLAList = new SLA[](_end.sub(_start).add(1));\n\n        for(uint i = 0; i < _end.sub(_start).add(1); i++) {\n            SLAList[i] = (SLAs[i.add(_start)]);\n        }\n\n        return(SLAList);\n    }\n\n    /**\n     * @dev public function for creating service level agreements\n     * @param _owner Address of the owner of the service level agreement\n     * @param _whitelist Address of the whitelist contract\n     * @param _dsla Address of the DSLA token contract\n     * @param _SLONames Array of the names of the service level objectives\n     * in bytes32\n     * @param _SLOs Array of service level objective contract addressess\n     * @param _compensationAmount Uint of the amount of DSLA to compensate on\n     * service level objective breach\n     * @param _stake Uint of the amount required to stake when signing the\n     * service level agreement\n     * @param _ipfsHash String with the ipfs hash that contains extra\n     * information about the service level agreement\n     * @param _poolSize uint the size of the compensation pool the creator will\n     * initialize the contract with\n     * @param _sliInterval uint the interval in seconds between requesting a new SLI\n     */\n    function createSLA(\n        address _owner,\n        Whitelist _whitelist,\n        IERC20 _dsla,\n        bytes32[] memory _SLONames,\n        SLO[] memory _SLOs,\n        uint _compensationAmount,\n        uint _stake,\n        string memory _ipfsHash,\n        uint _poolSize,\n        uint _sliInterval\n    ) public {\n        require(_dsla.allowance(msg.sender, address(this)) >= _poolSize);\n\n        SLA sla = new SLA(\n            _owner,\n            _whitelist,\n            _dsla,\n            _SLONames,\n            _SLOs,\n            _compensationAmount,\n            _stake,\n            _ipfsHash,\n            _sliInterval\n        );\n\n        _dsla.transferFrom(msg.sender, address(sla), _poolSize);\n\n        uint index = SLAs.push(sla).sub(1);\n\n        userToSLAIndexes[msg.sender].push(index);\n\n        for(uint i = 0; i < _SLONames.length; i++) {\n            messenger.initializeSLIRegistering(sla, _SLONames[i], _sliInterval);\n        }\n\n        emit SLACreated(sla, _owner);\n    }\n\n    /**\n     * @dev public view function that returns the service level agreements that\n     * the given user is the owner of\n     * @param _user Address of the user for which to return the service level\n     * agreements\n     */\n    function userSLAs(address _user) public view returns(SLA[] memory) {\n        uint count = userSLACount(_user);\n        SLA[] memory SLAList = new SLA[](count);\n        uint[] memory userSLAIndexes = userToSLAIndexes[_user];\n\n        for(uint i = 0; i < count; i++) {\n            SLAList[i] = (SLAs[userSLAIndexes[i]]);\n        }\n\n        return(SLAList);\n    }\n\n    /**\n     * @dev public view function that returns the amount of service level\n     * agreements the given user is the owner of\n     * @param _user Address of the user for which to return the amount of\n     * service level agreements\n     */\n    function userSLACount(address _user) public view returns(uint) {\n        return userToSLAIndexes[_user].length;\n    }\n\n    /**\n     * @dev public view function that returns all the service level agreements\n     */\n    function allSLAs() public view returns(SLA[] memory) {\n        return(SLAs);\n    }\n\n    /**\n     * @dev public view function that returns the service level agreements the\n     * user is subscribed to\n     */\n    function subscribedSLAs(address _user) public view returns(SLA[] memory) {\n        SLA[] memory SLAList = new SLA[](subscriptionCount(_user));\n        uint SLAListIndex = 0;\n\n        for(uint i = 0; i < SLAs.length; i++) {\n            if (SLAs[i].isSubscribed(_user)) {\n                SLAList[SLAListIndex] = (SLAs[i]);\n                SLAListIndex = SLAListIndex.add(1);\n            }\n        }\n\n        return(SLAList);\n    }\n\n    /**\n     * @dev public view function that returns the amount of SLA's the user is\n     * subscribed to\n     */\n    function subscriptionCount(address _user) public view returns(uint) {\n        uint count = 0;\n\n        for(uint i = 0; i < SLAs.length; i++) {\n            if (SLAs[i].isSubscribed(_user)) {\n                count = count.add(1);\n            }\n        }\n\n        return(count);\n    }\n\n    /**\n     * @dev public view function that returns the total amount of service\n     * level agreements\n     */\n    function SLACount() public view returns(uint) {\n        return SLAs.length;\n    }\n}\n",
  "sourcePath": "/home/silversurfer/Development/stacktical-dsla-contracts/contracts/SLARegistry.sol",
  "compiler": {
    "name": "solc",
    "version": "0.5.7+commit.6da8b019.Emscripten.clang"
  },
  "schemaVersion": "3.0.6",
  "updatedAt": "2019-09-07T06:50:37.230Z",
  "devdoc": {
    "details": "SLARegistry is a contract for handling creation of service level agreements and keeping track of the created agreements",
    "methods": {
      "SLACount()": {
        "details": "public view function that returns the total amount of service level agreements"
      },
      "allSLAs()": {
        "details": "public view function that returns all the service level agreements"
      },
      "constructor": {
        "details": "constructor",
        "params": {
          "_messengerAddress": "the address of the chainlink messenger contract"
        }
      },
      "createSLA(address,address,address,bytes32[],address[],uint256,uint256,string,uint256,uint256)": {
        "details": "public function for creating service level agreements",
        "params": {
          "_SLONames": "Array of the names of the service level objectives in bytes32",
          "_SLOs": "Array of service level objective contract addressess",
          "_compensationAmount": "Uint of the amount of DSLA to compensate on service level objective breach",
          "_dsla": "Address of the DSLA token contract",
          "_ipfsHash": "String with the ipfs hash that contains extra information about the service level agreement",
          "_owner": "Address of the owner of the service level agreement",
          "_poolSize": "uint the size of the compensation pool the creator will initialize the contract with",
          "_sliInterval": "uint the interval in seconds between requesting a new SLI",
          "_stake": "Uint of the amount required to stake when signing the service level agreement",
          "_whitelist": "Address of the whitelist contract"
        }
      },
      "paginatedSLAs(uint256,uint256)": {
        "details": "external view function that returns the service level agreements for a certain range in the array",
        "params": {
          "_end": "the index of the end position in the array",
          "_start": "the index of the start position in the array"
        }
      },
      "subscribedSLAs(address)": {
        "details": "public view function that returns the service level agreements the user is subscribed to"
      },
      "subscriptionCount(address)": {
        "details": "public view function that returns the amount of SLA's the user is subscribed to"
      },
      "userSLACount(address)": {
        "details": "public view function that returns the amount of service level agreements the given user is the owner of",
        "params": {
          "_user": "Address of the user for which to return the amount of service level agreements"
        }
      },
      "userSLAs(address)": {
        "details": "public view function that returns the service level agreements that the given user is the owner of",
        "params": {
          "_user": "Address of the user for which to return the service level agreements"
        }
      }
    },
    "title": "SLARegistry"
  },
  "userdoc": {
    "methods": {}
  }
}