{
  "contractName": "SLARegistry",
  "abi": [
    {
      "inputs": [
        {
          "internalType": "contract SLORegistry",
          "name": "_sloRegistry",
          "type": "address"
        },
        {
          "internalType": "contract PeriodRegistry",
          "name": "_periodRegistry",
          "type": "address"
        },
        {
          "internalType": "contract MessengerRegistry",
          "name": "_messengerRegistry",
          "type": "address"
        },
        {
          "internalType": "contract StakeRegistry",
          "name": "_stakeRegistry",
          "type": "address"
        }
      ],
      "stateMutability": "nonpayable",
      "type": "constructor"
    },
    {
      "anonymous": false,
      "inputs": [
        {
          "indexed": true,
          "internalType": "address",
          "name": "previousOwner",
          "type": "address"
        },
        {
          "indexed": true,
          "internalType": "address",
          "name": "newOwner",
          "type": "address"
        }
      ],
      "name": "OwnershipTransferred",
      "type": "event"
    },
    {
      "anonymous": false,
      "inputs": [
        {
          "indexed": true,
          "internalType": "contract SLA",
          "name": "sla",
          "type": "address"
        },
        {
          "indexed": true,
          "internalType": "address",
          "name": "owner",
          "type": "address"
        }
      ],
      "name": "SLACreated",
      "type": "event"
    },
    {
      "inputs": [
        {
          "internalType": "uint256",
          "name": "",
          "type": "uint256"
        }
      ],
      "name": "SLAs",
      "outputs": [
        {
          "internalType": "contract SLA",
          "name": "",
          "type": "address"
        }
      ],
      "stateMutability": "view",
      "type": "function",
      "constant": true
    },
    {
      "inputs": [],
      "name": "messengerRegistry",
      "outputs": [
        {
          "internalType": "contract MessengerRegistry",
          "name": "",
          "type": "address"
        }
      ],
      "stateMutability": "view",
      "type": "function",
      "constant": true
    },
    {
      "inputs": [],
      "name": "owner",
      "outputs": [
        {
          "internalType": "address",
          "name": "",
          "type": "address"
        }
      ],
      "stateMutability": "view",
      "type": "function",
      "constant": true
    },
    {
      "inputs": [],
      "name": "periodRegistry",
      "outputs": [
        {
          "internalType": "contract PeriodRegistry",
          "name": "",
          "type": "address"
        }
      ],
      "stateMutability": "view",
      "type": "function",
      "constant": true
    },
    {
      "inputs": [],
      "name": "renounceOwnership",
      "outputs": [],
      "stateMutability": "nonpayable",
      "type": "function"
    },
    {
      "inputs": [],
      "name": "sloRegistry",
      "outputs": [
        {
          "internalType": "contract SLORegistry",
          "name": "",
          "type": "address"
        }
      ],
      "stateMutability": "view",
      "type": "function",
      "constant": true
    },
    {
      "inputs": [],
      "name": "stakeRegistry",
      "outputs": [
        {
          "internalType": "contract StakeRegistry",
          "name": "",
          "type": "address"
        }
      ],
      "stateMutability": "view",
      "type": "function",
      "constant": true
    },
    {
      "inputs": [
        {
          "internalType": "address",
          "name": "newOwner",
          "type": "address"
        }
      ],
      "name": "transferOwnership",
      "outputs": [],
      "stateMutability": "nonpayable",
      "type": "function"
    },
    {
      "inputs": [
        {
          "internalType": "contract SLO",
          "name": "_SLO",
          "type": "address"
        },
        {
          "internalType": "bool",
          "name": "_whitelisted",
          "type": "bool"
        },
        {
          "internalType": "address",
          "name": "_messengerAddress",
          "type": "address"
        },
        {
          "internalType": "enum PeriodRegistry.PeriodType",
          "name": "_periodType",
          "type": "uint8"
        },
        {
          "internalType": "uint128",
          "name": "_initialPeriodId",
          "type": "uint128"
        },
        {
          "internalType": "uint128",
          "name": "_finalPeriodId",
          "type": "uint128"
        },
        {
          "internalType": "string",
          "name": "_ipfsHash",
          "type": "string"
        },
        {
          "internalType": "bytes32[]",
          "name": "_extraData",
          "type": "bytes32[]"
        }
      ],
      "name": "createSLA",
      "outputs": [],
      "stateMutability": "nonpayable",
      "type": "function"
    },
    {
      "inputs": [
        {
          "internalType": "uint256",
          "name": "_periodId",
          "type": "uint256"
        },
        {
          "internalType": "contract SLA",
          "name": "_sla",
          "type": "address"
        },
        {
          "internalType": "bool",
          "name": "_ownerApproval",
          "type": "bool"
        }
      ],
      "name": "requestSLI",
      "outputs": [],
      "stateMutability": "nonpayable",
      "type": "function"
    },
    {
      "inputs": [
        {
          "internalType": "contract SLA",
          "name": "_sla",
          "type": "address"
        }
      ],
      "name": "returnLockedValue",
      "outputs": [],
      "stateMutability": "nonpayable",
      "type": "function"
    },
    {
      "inputs": [
        {
          "internalType": "address",
          "name": "_messengerAddress",
          "type": "address"
        },
        {
          "internalType": "string",
          "name": "_messengerBaseURL",
          "type": "string"
        },
        {
          "internalType": "string",
          "name": "_messengerOwnershipURL",
          "type": "string"
        },
        {
          "internalType": "string",
          "name": "_messengerSpecificationURL",
          "type": "string"
        }
      ],
      "name": "registerMessenger",
      "outputs": [],
      "stateMutability": "nonpayable",
      "type": "function"
    },
    {
      "inputs": [
        {
          "internalType": "address",
          "name": "_user",
          "type": "address"
        }
      ],
      "name": "userSLAs",
      "outputs": [
        {
          "internalType": "contract SLA[]",
          "name": "",
          "type": "address[]"
        }
      ],
      "stateMutability": "view",
      "type": "function",
      "constant": true
    },
    {
      "inputs": [
        {
          "internalType": "address",
          "name": "_user",
          "type": "address"
        }
      ],
      "name": "userSLACount",
      "outputs": [
        {
          "internalType": "uint256",
          "name": "",
          "type": "uint256"
        }
      ],
      "stateMutability": "view",
      "type": "function",
      "constant": true
    },
    {
      "inputs": [],
      "name": "allSLAs",
      "outputs": [
        {
          "internalType": "contract SLA[]",
          "name": "",
          "type": "address[]"
        }
      ],
      "stateMutability": "view",
      "type": "function",
      "constant": true
    },
    {
      "inputs": [],
      "name": "SLACount",
      "outputs": [
        {
          "internalType": "uint256",
          "name": "",
          "type": "uint256"
        }
      ],
      "stateMutability": "view",
      "type": "function",
      "constant": true
    },
    {
      "inputs": [
        {
          "internalType": "address",
          "name": "_slaAddress",
          "type": "address"
        }
      ],
      "name": "isRegisteredSLA",
      "outputs": [
        {
          "internalType": "bool",
          "name": "",
          "type": "bool"
        }
      ],
      "stateMutability": "view",
      "type": "function",
      "constant": true
    }
  ],
  "bytecode": "0x60806040523480156200001157600080fd5b5060405162006034380380620060348339810160408190526200003491620001a8565b6000620000496001600160e01b03620001a416565b600080546001600160a01b0319166001600160a01b0383169081178255604051929350917f8be0079c531659141344cd1fd0a4f28419497f9722a3daafe3b4186f6b6457e0908290a350600180546001600160a01b038087166001600160a01b03199283161790925560028054868416908316179055600480548484169216919091178082556040805163f388158960e01b81529051919093169263f3881589928181019260009290919082900301818387803b1580156200010a57600080fd5b505af11580156200011f573d6000803e3d6000fd5b5050600380546001600160a01b0319166001600160a01b0386811691909117918290556040805163f388158960e01b8152905192909116935063f3881589925060048082019260009290919082900301818387803b1580156200018157600080fd5b505af115801562000196573d6000803e3d6000fd5b505050505050505062000228565b3390565b60008060008060808587031215620001be578384fd5b8451620001cb816200020f565b6020860151909450620001de816200020f565b6040860151909350620001f1816200020f565b606086015190925062000204816200020f565b939692955090935050565b6001600160a01b03811681146200022557600080fd5b50565b615dfc80620002386000396000f3fe60806040523480156200001157600080fd5b5060043610620001005760003560e01c8063788164b1116200009f578063788164b114620001b257806378df152f14620001c9578063816ff98614620001e05780638da5cb5b14620001f957806396bddc1014620002035780639fc4caa5146200020d578063c4277a7b1462000217578063e9b1e98c146200023d578063f2fde38b14620002545762000100565b80632575d7ca146200010557806350c5abfe146200011e578063516c2857146200014d5780635a7d1e5d14620001735780635c4df332146200017d578063683048351462000187578063715018a61462000191578063767f5d0d146200019b575b600080fd5b6200011c62000116366004620015ec565b6200026b565b005b620001356200012f36600462001814565b6200065a565b60405162000144919062001979565b60405180910390f35b620001646200015e366004620015ec565b62000682565b60405162000144919062001add565b62000135620007cc565b62000135620007db565b62000135620007ea565b6200011c620007f9565b6200011c620001ac36600462001631565b6200087d565b6200011c620001c336600462001846565b62000944565b6200011c620001da366004620016f3565b62000e60565b620001ea620012dd565b60405162000144919062001f82565b62000135620012e3565b62000164620012f2565b6200013562001356565b6200022e62000228366004620015ec565b62001365565b60405162000144919062001b2c565b620001ea6200024e366004620015ec565b62001383565b6200011c62000265366004620015ec565b6200139e565b806001600160a01b0316638da5cb5b6040518163ffffffff1660e01b815260040160206040518083038186803b158015620002a557600080fd5b505afa158015620002ba573d6000803e3d6000fd5b505050506040513d601f19601f82011682018060405250810190620002e0919062001612565b6001600160a01b0316336001600160a01b0316146200031c5760405162461bcd60e51b8152600401620003139062001e85565b60405180910390fd5b6000816001600160a01b0316633385d3346040518163ffffffff1660e01b815260040160206040518083038186803b1580156200035857600080fd5b505afa1580156200036d573d6000803e3d6000fd5b505050506040513d601f19601f82011682018060405250810190620003939190620017f5565b6001600160801b031690506000826001600160a01b03166346e0fbae6040518163ffffffff1660e01b815260040160206040518083038186803b158015620003da57600080fd5b505afa158015620003ef573d6000803e3d6000fd5b505050506040513d601f19601f82011682018060405250810190620004159190620017d6565b60025460405160016259edcb60e01b031981529192506000916001600160a01b039091169063ffa612359062000452908590879060040162001b5e565b604080518083038186803b1580156200046a57600080fd5b505afa1580156200047f573d6000803e3d6000fd5b505050506040513d601f19601f82011682018060405250810190620004a591906200188c565b9150506000846001600160a01b0316634190edde856040518263ffffffff1660e01b8152600401620004d8919062001f82565b60606040518083038186803b158015620004f157600080fd5b505afa15801562000506573d6000803e3d6000fd5b505050506040513d601f19601f820116820180604052508101906200052c9190620018b0565b92505050846001600160a01b0316637fd788aa6040518163ffffffff1660e01b815260040160206040518083038186803b1580156200056a57600080fd5b505afa1580156200057f573d6000803e3d6000fd5b505050506040513d601f19601f82011682018060405250810190620005a59190620016d4565b151560011480620005cf5750814210158015620005cf57506000816002811115620005cc57fe5b14155b620005ee5760405162461bcd60e51b8152600401620003139062001c10565b600480546040516312baebe560e11b81526001600160a01b0390911691632575d7ca916200061f9189910162001979565b600060405180830381600087803b1580156200063a57600080fd5b505af11580156200064f573d6000803e3d6000fd5b505050505050505050565b600581815481106200066857fe5b6000918252602090912001546001600160a01b0316905081565b60606000620006918362001383565b905060608167ffffffffffffffff81118015620006ad57600080fd5b50604051908082528060200260200182016040528015620006d8578160200160208202803683370190505b506001600160a01b038516600090815260066020908152604091829020805483518184028101840190945280845293945060609390918301828280156200073f57602002820191906000526020600020905b8154815260200190600101908083116200072a575b50939450600093505050505b83811015620007c25760058282815181106200076357fe5b6020026020010151815481106200077657fe5b9060005260206000200160009054906101000a90046001600160a01b0316838281518110620007a157fe5b6001600160a01b03909216602092830291909101909101526001016200074b565b5090949350505050565b6001546001600160a01b031681565b6003546001600160a01b031681565b6004546001600160a01b031681565b620008036200145c565b6000546001600160a01b03908116911614620008335760405162461bcd60e51b8152600401620003139062001f01565b600080546040516001600160a01b03909116907f8be0079c531659141344cd1fd0a4f28419497f9722a3daafe3b4186f6b6457e0908390a3600080546001600160a01b0319169055565b836001600160a01b031663f38815896040518163ffffffff1660e01b8152600401600060405180830381600087803b158015620008b957600080fd5b505af1158015620008ce573d6000803e3d6000fd5b505060035460405163767f5d0d60e01b81526001600160a01b03909116925063767f5d0d91506200090a90879087908790879060040162001a83565b600060405180830381600087803b1580156200092557600080fd5b505af11580156200093a573d6000803e3d6000fd5b5050505050505050565b816001600160a01b031663b1659bad6040518163ffffffff1660e01b815260040160206040518083038186803b1580156200097e57600080fd5b505afa15801562000993573d6000803e3d6000fd5b505050506040513d601f19601f82011682018060405250810190620009b991906200182d565b8314620009da5760405162461bcd60e51b8152600401620003139062001eca565b6040516320c876ef60e11b81526000906001600160a01b03841690634190edde9062000a0b90879060040162001f82565b60606040518083038186803b15801562000a2457600080fd5b505afa15801562000a39573d6000803e3d6000fd5b505050506040513d601f19601f8201168201806040525081019062000a5f9190620018b0565b92506000915062000a6d9050565b81600281111562000a7a57fe5b1462000a9a5760405162461bcd60e51b8152600401620003139062001d3f565b6000836001600160a01b0316637fd788aa6040518163ffffffff1660e01b815260040160206040518083038186803b15801562000ad657600080fd5b505afa15801562000aeb573d6000803e3d6000fd5b505050506040513d601f19601f8201168201806040525081019062000b119190620016d4565b9050801562000b345760405162461bcd60e51b8152600401620003139062001e35565b60405163021eef7f60e01b81526000906001600160a01b0386169063021eef7f9062000b6590899060040162001f82565b60206040518083038186803b15801562000b7e57600080fd5b505afa15801562000b93573d6000803e3d6000fd5b505050506040513d601f19601f8201168201806040525081019062000bb99190620016d4565b905060018115151462000be05760405162461bcd60e51b8152600401620003139062001f36565b6000856001600160a01b03166346e0fbae6040518163ffffffff1660e01b815260040160206040518083038186803b15801562000c1c57600080fd5b505afa15801562000c31573d6000803e3d6000fd5b505050506040513d601f19601f8201168201806040525081019062000c579190620017d6565b6002546040516331edb3ad60e21b81529192506000916001600160a01b039091169063c7b6ceb49062000c919085908c9060040162001b5e565b60206040518083038186803b15801562000caa57600080fd5b505afa15801562000cbf573d6000803e3d6000fd5b505050506040513d601f19601f8201168201806040525081019062000ce59190620016d4565b905060018115151462000d0c5760405162461bcd60e51b8152600401620003139062001d8f565b6000876001600160a01b031663a224ee9c6040518163ffffffff1660e01b815260040160206040518083038186803b15801562000d4857600080fd5b505afa15801562000d5d573d6000803e3d6000fd5b505050506040513d601f19601f8201168201806040525081019062000d83919062001612565b60405163788164b160e01b81529091506001600160a01b0382169063788164b19062000db8908c908c908c9060040162001f8b565b600060405180830381600087803b15801562000dd357600080fd5b505af115801562000de8573d6000803e3d6000fd5b5050600480546040516308bcf0cf60e21b81526001600160a01b0390911693506322f3c33c925062000e21918c9133918f910162001a5f565b600060405180830381600087803b15801562000e3c57600080fd5b505af115801562000e51573d6000803e3d6000fd5b50505050505050505050505050565b600154604051636891286d60e11b81526001600160a01b039091169063d12250da9062000e92908b9060040162001979565b60206040518083038186803b15801562000eab57600080fd5b505afa15801562000ec0573d6000803e3d6000fd5b505050506040513d601f19601f8201168201806040525081019062000ee69190620016d4565b151560011462000f0a5760405162461bcd60e51b8152600401620003139062001bcf565b600254604051636efe27ef60e11b81526000916001600160a01b03169063ddfc4fde9062000f3f908990899060040162001b37565b60206040518083038186803b15801562000f5857600080fd5b505afa15801562000f6d573d6000803e3d6000fd5b505050506040513d601f19601f8201168201806040525081019062000f939190620016d4565b90508062000fb55760405162461bcd60e51b8152600401620003139062001d0c565b600254604051636efe27ef60e11b81526001600160a01b039091169063ddfc4fde9062000fe9908990889060040162001b37565b60206040518083038186803b1580156200100257600080fd5b505afa15801562001017573d6000803e3d6000fd5b505050506040513d601f19601f820116820180604052508101906200103d9190620016d4565b9050806200105f5760405162461bcd60e51b8152600401620003139062001cd9565b846001600160801b0316846001600160801b03161015620010945760405162461bcd60e51b8152600401620003139062001dd7565b60035460405163ef4003db60e01b81526000916001600160a01b03169063ef4003db90620010c7908b9060040162001979565b60206040518083038186803b158015620010e057600080fd5b505afa158015620010f5573d6000803e3d6000fd5b505050506040513d601f19601f820116820180604052508101906200111b9190620016d4565b9050600181151514620011425760405162461bcd60e51b8152600401620003139062001b8c565b6000338a8c8a8c8b8b6005805490508c8c6040516200116190620014dc565b620011769a99989796959493929190620019b9565b604051809103906000f08015801562001193573d6000803e3d6000fd5b5060048054604051633d7da60560e11b81529293506001600160a01b031691637afb4c0a91620011cf91339186918d8d0360010191016200198d565b600060405180830381600087803b158015620011ea57600080fd5b505af1158015620011ff573d6000803e3d6000fd5b505060058054600180820183557f036b6384b5eca791c62761152d0c79bb0604c104a5fb6f4eb0703f3154bb3db090910180546001600160a01b0319166001600160a01b0387169081179091556000908152600760205260408120805460ff191683179055915491935062001275925062001460565b33600081815260066020908152604080832080546001810182559084529183209091018490555192935090916001600160a01b038516917fb52f284a6c14f1a66ab5513b5b539066933e58e69e6432666f0e3c8c8a7d750391a3505050505050505050505050565b60055490565b6000546001600160a01b031690565b606060058054806020026020016040519081016040528092919081815260200182805480156200134c57602002820191906000526020600020905b81546001600160a01b031681526001909101906020018083116200132d575b5050505050905090565b6002546001600160a01b031681565b6001600160a01b031660009081526007602052604090205460ff1690565b6001600160a01b031660009081526006602052604090205490565b620013a86200145c565b6000546001600160a01b03908116911614620013d85760405162461bcd60e51b8152600401620003139062001f01565b6001600160a01b038116620014015760405162461bcd60e51b8152600401620003139062001c93565b600080546040516001600160a01b03808516939216917f8be0079c531659141344cd1fd0a4f28419497f9722a3daafe3b4186f6b6457e091a3600080546001600160a01b0319166001600160a01b0392909216919091179055565b3390565b6000620014a483836040518060400160405280601e81526020017f536166654d6174683a207375627472616374696f6e206f766572666c6f770000815250620014ad565b90505b92915050565b60008184841115620014d45760405162461bcd60e51b815260040162000313919062001b77565b505050900390565b613d9b806200202c83390190565b600082601f830112620014fb578081fd5b813567ffffffffffffffff81111562001512578182fd5b60208082026200152482820162001fac565b838152935081840185830182870184018810156200154157600080fd5b600092505b848310156200156657803582526001929092019190830190830162001546565b505050505092915050565b600082601f83011262001582578081fd5b813567ffffffffffffffff81111562001599578182fd5b620015ae601f8201601f191660200162001fac565b9150808252836020828501011115620015c657600080fd5b8060208401602084013760009082016020015292915050565b8035620014a78162002015565b600060208284031215620015fe578081fd5b81356200160b8162001fe2565b9392505050565b60006020828403121562001624578081fd5b81516200160b8162001fe2565b6000806000806080858703121562001647578283fd5b8435620016548162001fe2565b9350602085013567ffffffffffffffff8082111562001671578485fd5b6200167f8883890162001571565b9450604087013591508082111562001695578384fd5b620016a38883890162001571565b93506060870135915080821115620016b9578283fd5b50620016c88782880162001571565b91505092959194509250565b600060208284031215620016e6578081fd5b81516200160b8162001ff8565b600080600080600080600080610100898b03121562001710578384fd5b88356200171d8162001fe2565b975060208901356200172f8162001ff8565b96506040890135620017418162001fe2565b95506060890135620017538162002007565b94506080890135620017658162002015565b9350620017768a60a08b01620015df565b925060c089013567ffffffffffffffff8082111562001793578384fd5b620017a18c838d0162001571565b935060e08b0135915080821115620017b7578283fd5b50620017c68b828c01620014ea565b9150509295985092959890939650565b600060208284031215620017e8578081fd5b81516200160b8162002007565b60006020828403121562001807578081fd5b81516200160b8162002015565b60006020828403121562001826578081fd5b5035919050565b6000602082840312156200183f578081fd5b5051919050565b6000806000606084860312156200185b578081fd5b8335925060208401356200186f8162001fe2565b91506040840135620018818162001ff8565b809150509250925092565b600080604083850312156200189f578182fd5b505080516020909101519092909150565b600080600060608486031215620018c5578081fd5b835192506020840151915060408401516003811062001881578182fd5b6000815180845260208085019450808401835b838110156200191357815187529582019590820190600101620018f5565b509495945050505050565b60008151808452815b81811015620019455760208185018101518683018201520162001927565b81811115620019575782602083870101525b50601f01601f19169290920160200192915050565b6001600160801b03169052565b6001600160a01b0391909116815260200190565b6001600160a01b0393841681529190921660208201526001600160801b03909116604082015260600190565b6001600160a01b038b811682528a1515602083015289811660408301526000906101409060068b10620019e857fe5b606084018b9052891660808401526001600160801b03881660a084015262001a1460c08401886200196c565b62001a2360e08401876200196c565b8061010084015262001a38818401866200191e565b83810361012085015262001a4d8186620018e2565b9e9d5050505050505050505050505050565b6001600160a01b039384168152919092166020820152604081019190915260600190565b6001600160a01b038516815260806020820181905260009062001aa9908301866200191e565b828103604084015262001abd81866200191e565b838103606085015262001ad181866200191e565b98975050505050505050565b6020808252825182820181905260009190848201906040850190845b8181101562001b205783516001600160a01b03168352928401929184019160010162001af9565b50909695505050505050565b901515815260200190565b6040810162001b468462001fd4565b9281526001600160801b039190911660209091015290565b6040810162001b6d8462001fd4565b9281526020015290565b600060208252620014a460208301846200191e565b60208082526023908201527f6d657373656e6765722061646472657373206973206e6f7420726567697374656040820152621c995960ea1b606082015260800190565b60208082526021908201527f534c4f206e6f742072656769737465726564206f6e20534c4f526567697374726040820152607960f81b606082015260800190565b6020808252605f908201527f43616e206f6e6c79207769746864726177206c6f636b65642044534c4120616660408201527f746572207468652066696e616c20706572696f6420697320766572696669656460608201527f206f722069662074686520636f6e747261637420697320627265616368656400608082015260a00190565b60208082526026908201527f4f776e61626c653a206e6577206f776e657220697320746865207a65726f206160408201526564647265737360d01b606082015260800190565b602080825260199082015278119a5b985b081c195c9a5bd9081a59081b9bdd081d985b1a59603a1b604082015260600190565b602080825260199082015278119a5c9cdd081c195c9a5bd9081a59081b9bdd081d985b1a59603a1b604082015260600190565b60208082526030908201527f534c4120636f6e74726163742077617320616c7265616479207665726966696560408201526f1908199bdc881d1a19481c195c9a5bd960821b606082015260800190565b60208082526028908201527f534c4120636f6e747261637420706572696f6420686173206e6f742066696e696040820152671cda1959081e595d60c21b606082015260800190565b602080825260409082018190527f66696e616c506572696f6449642073686f756c64206265206772656174657220908201527f7468616e206f7220657175616c20746f20696e697469616c506572696f644964606082015260800190565b60208082526030908201527f53686f756c64206f6e6c792062652063616c6c656420666f72206e6f7420627260408201526f65616368656420636f6e74726163747360801b606082015260800190565b60208082526025908201527f4f6e6c7920534c41206f776e65722063616e20636c61696d206c6f636b65642060408201526476616c756560d81b606082015260800190565b6020808252601e908201527f53686f756c64206f6e6c7920766572696679206e65787420706572696f640000604082015260600190565b6020808252818101527f4f776e61626c653a2063616c6c6572206973206e6f7420746865206f776e6572604082015260600190565b6020808252602c908201527f506572696f64204944206e6f74207265676973746572656420696e207468652060408201526b14d3104818dbdb9d1c9858dd60a21b606082015260800190565b90815260200190565b9283526001600160a01b039190911660208301521515604082015260600190565b60405181810167ffffffffffffffff8111828210171562001fcc57600080fd5b604052919050565b6006811062001fdf57fe5b50565b6001600160a01b038116811462001fdf57600080fd5b801515811462001fdf57600080fd5b6006811062001fdf57600080fd5b6001600160801b038116811462001fdf57600080fdfe60806040526013805460ff60a01b191690553480156200001e57600080fd5b5060405162003d9b38038062003d9b8339810160408190526200004191620008af565b33878a8560006200005a6001600160e01b03620004e216565b600080546001600160a01b0319166001600160a01b03831690811782556040519293509160008051602062003d7b833981519152908290a350836001600160a01b031663683048356040518163ffffffff1660e01b815260040160206040518083038186803b158015620000cd57600080fd5b505afa158015620000e2573d6000803e3d6000fd5b505050506040513d601f19601f8201168201806040525081019062000108919062000889565b600160006101000a8154816001600160a01b0302191690836001600160a01b03160217905550836001600160a01b0316639fc4caa56040518163ffffffff1660e01b815260040160206040518083038186803b1580156200016857600080fd5b505afa1580156200017d573d6000803e3d6000fd5b505050506040513d601f19601f82011682018060405250810190620001a3919062000889565b600280546001600160a01b0319166001600160a01b0392909216919091179055600c805484919060ff19166001836005811115620001dd57fe5b0217905550600c805461ff0019166101008415150217905560015460408051637b8041cf60e11b815290516000926001600160a01b03169163f700839e9160048083019260c0929190829003018186803b1580156200023b57600080fd5b505afa15801562000250573d6000803e3d6000fd5b505050506040513d601f19601f82011682018060405250810190620002769190620009b6565b50505050509050600160009054906101000a90046001600160a01b03166001600160a01b0316638b8e53096040518163ffffffff1660e01b815260040160206040518083038186803b158015620002cc57600080fd5b505afa158015620002e1573d6000803e3d6000fd5b505050506040513d601f19601f8201168201806040525081019062000307919062000889565b600980546001600160a01b0319166001600160a01b0392909216919091179055600b8190556200033733620004e7565b50600380546001600160801b0319166001600160801b0392909216919091179055506200036891508b905062000593565b81516200037d90600f90602085019062000649565b50601380546001600160a01b038089166001600160a01b0319928316179092556012805490911633179081905560408051639fc4caa560e01b815290519190921691639fc4caa5916004808301926020929190829003018186803b158015620003e557600080fd5b505afa158015620003fa573d6000803e3d6000fd5b505050506040513d601f19601f8201168201806040525081019062000420919062000889565b601080546001600160a01b039290921661010002610100600160a81b03199092169190911780825543601555601180546001600160801b03888116600160801b02818b166001600160801b0319909316929092171617905588919060ff191660018360058111156200048e57fe5b0217905550600e80546001600160a01b0319166001600160a01b038a161790558051620004c3906016906020840190620006ce565b5050506001600160801b039092166017555062000af295505050505050565b335b90565b620004fa6001600160e01b03620004e216565b6000546001600160a01b03908116911614620005335760405162461bcd60e51b81526004016200052a9062000a7d565b60405180910390fd5b6001600160a01b0381166000908152600d602052604090205460ff16156200056f5760405162461bcd60e51b81526004016200052a9062000a00565b6001600160a01b03166000908152600d60205260409020805460ff19166001179055565b620005a66001600160e01b03620004e216565b6000546001600160a01b03908116911614620005d65760405162461bcd60e51b81526004016200052a9062000a7d565b6001600160a01b038116620005ff5760405162461bcd60e51b81526004016200052a9062000a37565b600080546040516001600160a01b038085169392169160008051602062003d7b83398151915291a3600080546001600160a01b0319166001600160a01b0392909216919091179055565b828054600181600116156101000203166002900490600052602060002090601f016020900481019282601f106200068c57805160ff1916838001178555620006bc565b82800160010185558215620006bc579182015b82811115620006bc5782518255916020019190600101906200069f565b50620006ca9291506200070b565b5090565b828054828255906000526020600020908101928215620006bc5791602002820182811115620006bc5782518255916020019190600101906200069f565b620004e491905b80821115620006ca576000815560010162000712565b8051620007358162000ad9565b92915050565b600082601f8301126200074c578081fd5b81516001600160401b0381111562000762578182fd5b60208082026200077482820162000ab2565b838152935081840185830182870184018810156200079157600080fd5b600092505b84831015620007b657805182526001929092019190830190830162000796565b505050505092915050565b805180151581146200073557600080fd5b8051600681106200073557600080fd5b600082601f830112620007f3578081fd5b81516001600160401b0381111562000809578182fd5b60206200081f601f8301601f1916820162000ab2565b925081835284818386010111156200083657600080fd5b60005b828110156200085657848101820151848201830152810162000839565b82811115620008685760008284860101525b50505092915050565b80516001600160801b03811681146200073557600080fd5b6000602082840312156200089b578081fd5b8151620008a88162000ad9565b9392505050565b6000806000806000806000806000806101408b8d031215620008cf578586fd5b620008db8c8c62000728565b9950620008ec8c60208d01620007c1565b9850620008fd8c60408d0162000728565b97506200090e8c60608d01620007d2565b96506200091f8c60808d0162000728565b9550620009308c60a08d0162000871565b9450620009418c60c08d0162000871565b9350620009528c60e08d0162000871565b6101008c01519093506001600160401b038082111562000970578384fd5b6200097e8e838f01620007e2565b93506101208d015191508082111562000995578283fd5b50620009a48d828e016200073b565b9150509295989b9194979a5092959850565b60008060008060008060c08789031215620009cf578182fd5b865195506020870151945060408701519350606087015192506080870151915060a087015190509295509295509295565b60208082526018908201527f5573657220616c72656164792077686974656c69737465640000000000000000604082015260600190565b60208082526026908201527f4f776e61626c653a206e6577206f776e657220697320746865207a65726f206160408201526564647265737360d01b606082015260800190565b6020808252818101527f4f776e61626c653a2063616c6c6572206973206e6f7420746865206f776e6572604082015260600190565b6040518181016001600160401b038111828210171562000ad157600080fd5b604052919050565b6001600160a01b038116811462000aef57600080fd5b50565b6132798062000b026000396000f3fe608060405234801561001057600080fd5b506004361061025e5760003560e01c806378025ec411610146578063c623674f116100c3578063db69a46211610087578063db69a462146104d5578063f2db10fe146104dd578063f2fde38b146104e5578063f7e9dfff146104f8578063f9902bb114610500578063fd5e6dd1146105135761025e565b8063c623674f1461047f578063c8b5c24814610494578063cbe230c3146104a7578063cd92890e146104ba578063d7a5c422146104c25761025e565b80639fabeb001161010a5780639fabeb001461044c578063a224ee9c14610454578063b1659bad1461045c578063b7bc347e14610464578063c26ff6151461046c5761025e565b806378025ec41461040e5780637fd788aa146104215780638da5cb5b1461042957806396f76f11146104315780639b19251a146104395761025e565b8063484fbf2b116101df5780635e5f2e26116101a35780635e5f2e26146103a7578063639b6fc3146103ba5780636f1e8533146103cd578063715018a6146103e0578063740882ac146103e8578063747b8050146103fb5761025e565b8063484fbf2b146103385780634e0c91f61461034b5780634fb2647e1461036b57806357ac94f01461037e5780635c1c20de1461039f5761025e565b80632526743a116102265780632526743a146102d157806326db18ac146102e65780633385d334146102f95780634190edde1461030157806346e0fbae146103235761025e565b8063021eef7f146102635780630bea440d1461028c578063171e44ea146102a157806318e45427146102b45780631bf30929146102bc575b600080fd5b610276610271366004612a0d565b610526565b6040516102839190612c5b565b60405180910390f35b61029f61029a366004612a3d565b61056f565b005b61029f6102af36600461285e565b6106d1565b610276610aa3565b6102c4610ab1565b6040516102839190612c66565b6102d9610ab7565b604051610283919061315d565b61029f6102f4366004612a3d565b610ac6565b6102d9610b44565b61031461030f366004612a0d565b610b5a565b6040516102839392919061317f565b61032b610b7e565b6040516102839190612c6f565b6102c461034636600461285e565b610b87565b61035e61035936600461285e565b610b99565b6040516102839190612c0a565b61035e61037936600461285e565b610bb4565b61039161038c366004612896565b610bcf565b604051610283929190612c1e565b6102c4610dc7565b61035e6103b5366004612a0d565b610dcd565b6102c46103c836600461285e565b610df4565b6102766103db36600461285e565b610e06565b61029f610e61565b61029f6103f63660046128c1565b610ee0565b61029f61040936600461285e565b610fb6565b6102c461041c366004612a0d565b611048565b610276611066565b61035e611076565b610276611085565b61027661044736600461285e565b611192565b6102c46111a7565b61035e6111ad565b6102c46111bc565b6102c46111c2565b61029f61047a3660046128c1565b6111c8565b6104876112a4565b6040516102839190612ca9565b61029f6104a2366004612a3d565b611332565b6102766104b536600461285e565b61136e565b61035e6113c0565b61029f6104d0366004612a6c565b6113cf565b61035e61168d565b6102d961169c565b61029f6104f336600461285e565b6116ab565b61035e611761565b61029f61050e36600461285e565b611770565b61035e610521366004612a0d565b611803565b6011546000906001600160801b03168210156105445750600061056a565b601154600160801b90046001600160801b03168211156105665750600061056a565b5060015b919050565b600082116105985760405162461bcd60e51b815260040161058f90613070565b60405180910390fd5b60006105a2611085565b905080156105c25760405162461bcd60e51b815260040161058f90612ea5565b6105cc8383611810565b60125460408051636830483560e01b815290516000926001600160a01b0316916368304835916004808301926020929190829003018186803b15801561061157600080fd5b505afa158015610625573d6000803e3d6000fd5b505050506040513d601f19601f82011682018060405250810190610649919061287a565b604051635948284760e11b81529091506001600160a01b0382169063b290508e90610678903390600401612c0a565b602060405180830381600087803b15801561069257600080fd5b505af11580156106a6573d6000803e3d6000fd5b505050506040513d601f19601f820116820180604052508101906106ca9190612961565b5050505050565b6106d9611d0b565b6000546001600160a01b039081169116146107065760405162461bcd60e51b815260040161058f90612fa0565b61070f8161136e565b1561072c5760405162461bcd60e51b815260040161058f9061300c565b60015460405163cbe230c360e01b81526001600160a01b039091169063cbe230c39061075c908490600401612c0a565b60206040518083038186803b15801561077457600080fd5b505afa158015610788573d6000803e3d6000fd5b505050506040513d601f19601f820116820180604052508101906107ac9190612961565b15156001146107cd5760405162461bcd60e51b815260040161058f90612d99565b600a80546001810182556000919091527fc65a7bb8d6351c1cf70c95a316cc6a92839c986682d98bc35f958f4883f9d2a80180546001600160a01b0319166001600160a01b038316179055600354606090610830906001600160801b0316611d0f565b90506060826001600160a01b03166395d89b416040518163ffffffff1660e01b815260040160006040518083038186803b15801561086d57600080fd5b505afa158015610881573d6000803e3d6000fd5b505050506040513d6000823e601f3d908101601f191682016040526108a99190810190612981565b9050606081836040516020016108c0929190612bb7565b6040516020818303038152906040529050606082846040516020016108e6929190612af8565b60405160208183030381529060405290506060838560405160200161090c929190612b43565b604051602081830303815290604052905060608486604051602001610932929190612b9a565b60408051601f1981840301815290829052600154633350214760e11b83529092506000916001600160a01b03909116906366a0428e906109789088908890600401612cbc565b602060405180830381600087803b15801561099257600080fd5b505af11580156109a6573d6000803e3d6000fd5b505050506040513d601f19601f820116820180604052508101906109ca919061287a565b600154604051633350214760e11b81529192506000916001600160a01b03909116906366a0428e90610a029087908790600401612cbc565b602060405180830381600087803b158015610a1c57600080fd5b505af1158015610a30573d6000803e3d6000fd5b505050506040513d601f19601f82011682018060405250810190610a54919061287a565b6001600160a01b03998a1660009081526007602090815260408083208054948e166001600160a01b031995861617905560069091529020805493909a1692169190911790975550505050505050565b600c54610100900460ff1681565b60155481565b6011546001600160801b031681565b60008211610ae65760405162461bcd60e51b815260040161058f90613070565b610aee611076565b6001600160a01b0316336001600160a01b031614610b36576000610b10611085565b9050600181151514610b345760405162461bcd60e51b815260040161058f90612fd5565b505b610b408282611dea565b5050565b601154600160801b90046001600160801b031681565b60146020526000908152604090208054600182015460029092015490919060ff1683565b60105460ff1681565b60056020526000908152604090205481565b6006602052600090815260409020546001600160a01b031681565b6007602052600090815260409020546001600160a01b031681565b6000806000600a8481548110610be157fe5b6000918252602090912001546001600160a01b03169050610c00611076565b6001600160a01b0316856001600160a01b03161415610c3c576001600160a01b0381166000908152600460205260409020549092509050610dc0565b6001600160a01b0380821660009081526006602090815260408083205481516318160ddd60e01b8152915194169384926318160ddd9260048082019391829003018186803b158015610c8d57600080fd5b505afa158015610ca1573d6000803e3d6000fd5b505050506040513d601f19601f82011682018060405250810190610cc59190612a25565b905080610cdb575090925060009150610dc09050565b6040516370a0823160e01b81526000906001600160a01b038416906370a0823190610d0a908b90600401612c0a565b60206040518083038186803b158015610d2257600080fd5b505afa158015610d36573d6000803e3d6000fd5b505050506040513d601f19601f82011682018060405250810190610d5a9190612a25565b90506127106000610d8184610d75858563ffffffff611f9016565b9063ffffffff611fd316565b6001600160a01b0387166000908152600560205260409020549091508690610db5908490610d75908563ffffffff611f9016565b975097505050505050505b9250929050565b600b5481565b600a8181548110610dda57fe5b6000918252602090912001546001600160a01b0316905081565b60046020526000908152604090205481565b6000805b600854811015610e5857826001600160a01b031660088281548110610e2b57fe5b6000918252602090912001546001600160a01b03161415610e5057600191505061056a565b600101610e0a565b50600092915050565b610e69611d0b565b6000546001600160a01b03908116911614610e965760405162461bcd60e51b815260040161058f90612fa0565b600080546040516001600160a01b03909116907f8be0079c531659141344cd1fd0a4f28419497f9722a3daafe3b4186f6b6457e0908390a3600080546001600160a01b0319169055565b610ee8611d0b565b6000546001600160a01b03908116911614610f155760405162461bcd60e51b815260040161058f90612fa0565b60005b8151811015610b4057600d6000838381518110610f3157fe5b6020908102919091018101516001600160a01b031682528101919091526040016000205460ff16610fae576001600d6000848481518110610f6e57fe5b60200260200101516001600160a01b03166001600160a01b0316815260200190815260200160002060006101000a81548160ff0219169083151502179055505b600101610f18565b610fbe611d0b565b6000546001600160a01b03908116911614610feb5760405162461bcd60e51b815260040161058f90612fa0565b6001600160a01b0381166000908152600d602052604090205460ff16156110245760405162461bcd60e51b815260040161058f90612cea565b6001600160a01b03166000908152600d60205260409020805460ff19166001179055565b6016818154811061105557fe5b600091825260209091200154905081565b601354600160a01b900460ff1690565b6000546001600160a01b031690565b60105460115460405160016259edcb60e01b03198152600092839261010082046001600160a01b03169263ffa61235926110d99260ff90911691600160801b9091046001600160801b031690600401612c83565b604080518083038186803b1580156110f057600080fd5b505afa158015611104573d6000803e3d6000fd5b505050506040513d601f19601f820116820180604052508101906111289190612a8d565b915050601360149054906101000a900460ff16151560011515148061118c575080421015801561118c57506000601154600160801b90046001600160801b0316600090815260146020526040902060029081015460ff169081111561118957fe5b14155b91505090565b600d6020526000908152604090205460ff1681565b60085490565b6013546001600160a01b031681565b60175481565b600a5490565b6111d0611d0b565b6000546001600160a01b039081169116146111fd5760405162461bcd60e51b815260040161058f90612fa0565b60005b8151811015610b4057600d600083838151811061121957fe5b6020908102919091018101516001600160a01b031682528101919091526040016000205460ff1615156001141561129c576000600d600084848151811061125c57fe5b60200260200101516001600160a01b03166001600160a01b0316815260200190815260200160002060006101000a81548160ff0219169083151502179055505b600101611200565b600f805460408051602060026001851615610100026000190190941693909304601f8101849004840282018401909252818152929183018282801561132a5780601f106112ff5761010080835404028352916020019161132a565b820191906000526020600020905b81548152906001019060200180831161130d57829003601f168201915b505050505081565b600082116113525760405162461bcd60e51b815260040161058f90613070565b600061135c611085565b9050611369838383612015565b505050565b6000805b600a54811015610e5857826001600160a01b0316600a828154811061139357fe5b6000918252602090912001546001600160a01b031614156113b857600191505061056a565b600101611372565b600e546001600160a01b031681565b6013546001600160a01b031633146113f95760405162461bcd60e51b815260040161058f90612de6565b7fc95987c1992805ee34bdc915e017cceae36ba1c156b9911fa7e691e6435eb46e42838360405161142c939291906131a5565b60405180910390a160018082016017556000828152601460209081526040808320938401869055428455600e548151633fa4f24560e01b815291516001600160a01b0390911692633fa4f2459260048082019391829003018186803b15801561149457600080fd5b505afa1580156114a8573d6000803e3d6000fd5b505050506040513d601f19601f820116820180604052508101906114cc9190612a25565b600e546040516303c8f2e360e21b81529192506001600160a01b031690630f23cb8c906114fd908790600401612c66565b60206040518083038186803b15801561151557600080fd5b505afa158015611529573d6000803e3d6000fd5b505050506040513d601f19601f8201168201806040525081019061154d9190612961565b15611621576002828101805460ff191660011790556127109060009061159b9061157b90610d758987612217565b610d758461158f8a8863ffffffff61223c16565b9063ffffffff611f9016565b6011549091506000906115d1906001906115c59089906001600160801b031663ffffffff61223c16565b9063ffffffff61221716565b60115490915060009061160b906001600160801b03808216600160801b90920481169190910360010116610d75858563ffffffff611f9016565b905061161887828661227e565b50505050611687565b6002828101805460ff191690911790556116396123d9565b6013805460ff60a01b1916600160a01b1790556040517fbd33f7a3bfa88a467c9df5ae7d2341cf061084c386b20a0d48130f5cbce38a4d9061167e9085908790613171565b60405180910390a15b50505050565b6012546001600160a01b031681565b6003546001600160801b031681565b6116b3611d0b565b6000546001600160a01b039081169116146116e05760405162461bcd60e51b815260040161058f90612fa0565b6001600160a01b0381166117065760405162461bcd60e51b815260040161058f90612d1c565b600080546040516001600160a01b03808516939216917f8be0079c531659141344cd1fd0a4f28419497f9722a3daafe3b4186f6b6457e091a3600080546001600160a01b0319166001600160a01b0392909216919091179055565b6009546001600160a01b031681565b611778611d0b565b6000546001600160a01b039081169116146117a55760405162461bcd60e51b815260040161058f90612fa0565b6001600160a01b0381166000908152600d602052604090205460ff1615156001146117e25760405162461bcd60e51b815260040161058f9061309c565b6001600160a01b03166000908152600d60205260409020805460ff19169055565b60088181548110610dda57fe5b8061181a8161136e565b151560011461183b5760405162461bcd60e51b815260040161058f90612f72565b600c5460ff6101009091041615156001141561188557336000908152600d602052604090205460ff1615156001146118855760405162461bcd60e51b815260040161058f90612e2b565b6118a06001600160a01b03831633308663ffffffff6124d316565b6118a8611076565b6001600160a01b0316336001600160a01b031614611ae9576001600160a01b038216600090815260046020908152604080832054600590925290912054816118f6828763ffffffff61221716565b11156119145760405162461bcd60e51b815260040161058f906130ca565b6001600160a01b0380851660009081526006602090815260408083205481516318160ddd60e01b8152915194169384926318160ddd9260048082019391829003018186803b15801561196557600080fd5b505afa158015611979573d6000803e3d6000fd5b505050506040513d601f19601f8201168201806040525081019061199d9190612a25565b905080611a09576040516340c10f1960e01b81526001600160a01b038316906340c10f19906119d29033908b90600401612c1e565b600060405180830381600087803b1580156119ec57600080fd5b505af1158015611a00573d6000803e3d6000fd5b50505050611a9d565b6001600160a01b03861660009081526005602052604081205490611a3782610d758b8663ffffffff611f9016565b6040516340c10f1960e01b81529091506001600160a01b038516906340c10f1990611a689033908590600401612c1e565b600060405180830381600087803b158015611a8257600080fd5b505af1158015611a96573d6000803e3d6000fd5b5050505050505b6001600160a01b038616600090815260056020526040902054611ac6908863ffffffff61221716565b6001600160a01b03871660009081526005602052604090205550611cb792505050565b6001600160a01b0380831660009081526007602090815260408083205481516318160ddd60e01b8152915194169384926318160ddd9260048082019391829003018186803b158015611b3a57600080fd5b505afa158015611b4e573d6000803e3d6000fd5b505050506040513d601f19601f82011682018060405250810190611b729190612a25565b905080611bde576040516340c10f1960e01b81526001600160a01b038316906340c10f1990611ba79033908990600401612c1e565b600060405180830381600087803b158015611bc157600080fd5b505af1158015611bd5573d6000803e3d6000fd5b50505050611c72565b6001600160a01b03841660009081526004602052604081205490611c0c82610d75898663ffffffff611f9016565b6040516340c10f1960e01b81529091506001600160a01b038516906340c10f1990611c3d9033908590600401612c1e565b600060405180830381600087803b158015611c5757600080fd5b505af1158015611c6b573d6000803e3d6000fd5b5050505050505b6001600160a01b038416600090815260046020526040902054611c9b908663ffffffff61221716565b6001600160a01b03851660009081526004602052604090205550505b611cc033610e06565b61136957600880546001810182556000919091527ff3f7a9fe364faab93b216da50a3214154f22a0a2b415b23a84c8169e8b636ee30180546001600160a01b03191633179055505050565b3390565b60608180611d365750506040805180820190915260018152600360fc1b602082015261056a565b8060005b8115611d4e57600101600a82049150611d3a565b60608167ffffffffffffffff81118015611d6757600080fd5b506040519080825280601f01601f191660200182016040528015611d92576020820181803683370190505b50905060001982015b8415611de057600a850660300160f81b82828060019003935081518110611dbe57fe5b60200101906001600160f81b031916908160001a905350600a85049450611d9b565b5095945050505050565b80611df48161136e565b1515600114611e155760405162461bcd60e51b815260040161058f90612f72565b6001600160a01b0380831660009081526006602090815260408083205481516318160ddd60e01b8152915194169384926318160ddd9260048082019391829003018186803b158015611e6657600080fd5b505afa158015611e7a573d6000803e3d6000fd5b505050506040513d601f19601f82011682018060405250810190611e9e9190612a25565b6001600160a01b038516600090815260056020526040812054919250611ece82610d75898663ffffffff611f9016565b60405163079cc67960e41b81529091506001600160a01b038516906379cc679090611eff9033908590600401612c1e565b600060405180830381600087803b158015611f1957600080fd5b505af1158015611f2d573d6000803e3d6000fd5b5050506001600160a01b038716600090815260056020526040902054611f5a91508863ffffffff61223c16565b6001600160a01b038716600081815260056020526040902091909155611f8790338963ffffffff61252b16565b50505050505050565b600082611f9f57506000611fcd565b82820282848281611fac57fe5b0414611fca5760405162461bcd60e51b815260040161058f90612f31565b90505b92915050565b6000611fca83836040518060400160405280601a81526020017f536166654d6174683a206469766973696f6e206279207a65726f00000000000081525061254a565b8161201f8161136e565b15156001146120405760405162461bcd60e51b815260040161058f90612f72565b6001600160a01b03831660009081526004602090815260408083205460059092529091205483612099578061207b838863ffffffff61223c16565b10156120995760405162461bcd60e51b815260040161058f90612e5c565b6001600160a01b0380861660009081526007602090815260408083205481516318160ddd60e01b8152915194169384926318160ddd9260048082019391829003018186803b1580156120ea57600080fd5b505afa1580156120fe573d6000803e3d6000fd5b505050506040513d601f19601f820116820180604052508101906121229190612a25565b6001600160a01b03881660009081526004602052604081205491925061215282610d758c8663ffffffff611f9016565b60405163079cc67960e41b81529091506001600160a01b038516906379cc6790906121839033908590600401612c1e565b600060405180830381600087803b15801561219d57600080fd5b505af11580156121b1573d6000803e3d6000fd5b5050506001600160a01b038a166000908152600460205260409020546121de91508b63ffffffff61223c16565b6001600160a01b038a1660008181526004602052604090209190915561220b90338c63ffffffff61252b16565b50505050505050505050565b600082820183811015611fca5760405162461bcd60e51b815260040161058f90612d62565b6000611fca83836040518060400160405280601e81526020017f536166654d6174683a207375627472616374696f6e206f766572666c6f770000815250612581565b60005b600a54811015611687576000600a828154811061229a57fe5b60009182526020808320909101546001600160a01b031680835260059091526040822054909250906122d685610d75848963ffffffff611f9016565b6001600160a01b038416600090815260056020526040902054909150612302908263ffffffff61223c16565b6001600160a01b0380851660008181526005602052604090209290925560095416141561234a576000612334826125ad565b9050612346828263ffffffff61223c16565b9150505b6001600160a01b038316600090815260046020526040902054612373908263ffffffff61221716565b6001600160a01b0384166000818152600460205260409081902092909255905188907f3173c1c4b679e2da86dbb0382bde749a6e16cd31912c5410e17985cd7d2b9052906123c6908a908a9087906131a5565b60405180910390a3505050600101612281565b60005b600a548110156124d0576000600a82815481106123f557fe5b60009182526020808320909101546001600160a01b031680835260058252604080842054600490935290922054919250908190612438908263ffffffff61223c16565b6001600160a01b0380851660008181526004602052604090209290925560095416141561248057600061246a826125ad565b905061247c828263ffffffff61223c16565b9150505b6001600160a01b0383166000908152600560205260409020546124a9908263ffffffff61221716565b6001600160a01b0390931660009081526005602052604090209290925550506001016123dc565b50565b611687846323b872dd60e01b8585856040516024016124f493929190612c37565b60408051601f198184030181529190526020810180516001600160e01b03166001600160e01b0319909316929092179091526126e3565b6113698363a9059cbb60e01b84846040516024016124f4929190612c1e565b6000818361256b5760405162461bcd60e51b815260040161058f9190612ca9565b50600083858161257757fe5b0495945050505050565b600081848411156125a55760405162461bcd60e51b815260040161058f9190612ca9565b505050900390565b60408051808201909152600d81526c6275726e2875696e743235362960981b602090910152600b546000907f42966c689b5afe9b9b3f8a7103b2a19980d59629bfd6a20a60972312ed41d83690612613906103e890610d7590869063ffffffff611f9016565b6009546040519193506000916001600160a01b0390911690839061263b908690602401612c66565b60408051601f198184030181529181526020820180516001600160e01b03166001600160e01b03199094169390931790925290516126799190612adc565b6000604051808303816000865af19150503d80600081146126b6576040519150601f19603f3d011682016040523d82523d6000602084013e6126bb565b606091505b50509050806126dc5760405162461bcd60e51b815260040161058f90612eed565b5050919050565b6060612738826040518060400160405280602081526020017f5361666545524332303a206c6f772d6c6576656c2063616c6c206661696c6564815250856001600160a01b03166127729092919063ffffffff16565b80519091501561136957808060200190518101906127569190612961565b6113695760405162461bcd60e51b815260040161058f90613113565b60606127818484600085612789565b949350505050565b60606127948561284d565b6127b05760405162461bcd60e51b815260040161058f90613039565b60006060866001600160a01b031685876040516127cd9190612adc565b60006040518083038185875af1925050503d806000811461280a576040519150601f19603f3d011682016040523d82523d6000602084013e61280f565b606091505b509150915081156128235791506127819050565b8051156128335780518082602001fd5b8360405162461bcd60e51b815260040161058f9190612ca9565b3b151590565b8035611fcd8161322e565b60006020828403121561286f578081fd5b8135611fca8161322e565b60006020828403121561288b578081fd5b8151611fca8161322e565b600080604083850312156128a8578081fd5b82356128b38161322e565b946020939093013593505050565b600060208083850312156128d3578182fd5b823567ffffffffffffffff8111156128e9578283fd5b80840185601f8201126128fa578384fd5b8035915061290f61290a836131e2565b6131bb565b828152838101908285018585028401860189101561292b578687fd5b8693505b84841015612955576129418982612853565b83526001939093019291850191850161292f565b50979650505050505050565b600060208284031215612972578081fd5b81518015158114611fca578182fd5b600060208284031215612992578081fd5b815167ffffffffffffffff808211156129a9578283fd5b81840185601f8201126129ba578384fd5b80519250818311156129ca578384fd5b6129dd601f8401601f19166020016131bb565b91508282528560208483010111156129f3578384fd5b612a04836020840160208401613202565b50949350505050565b600060208284031215612a1e578081fd5b5035919050565b600060208284031215612a36578081fd5b5051919050565b60008060408385031215612a4f578182fd5b823591506020830135612a618161322e565b809150509250929050565b60008060408385031215612a7e578182fd5b50508035926020909101359150565b60008060408385031215612a9f578182fd5b505080516020909101519092909150565b60008151808452612ac8816020860160208601613202565b601f01601f19169290920160200192915050565b60008251612aee818460208701613202565b9190910192915050565b600061647560f01b82528351612b15816002850160208801613202565b808301602d60f81b600282015284519150612b37826003830160208801613202565b01600301949350505050565b60006d44534c412d50524f56494445522d60901b82528351612b6c81600e850160208801613202565b808301602d60f81b600e82015284519150612b8e82600f830160208801613202565b01600f01949350505050565b600061064760f41b82528351612b15816002850160208801613202565b60006944534c412d555345522d60b01b82528351612bdc81600a850160208801613202565b808301602d60f81b600a82015284519150612bfe82600b830160208801613202565b01600b01949350505050565b6001600160a01b0391909116815260200190565b6001600160a01b03929092168252602082015260400190565b6001600160a01b039384168152919092166020820152604081019190915260600190565b901515815260200190565b90815260200190565b6020810160068310612c7d57fe5b91905290565b6040810160068410612c9157fe5b9281526001600160801b039190911660209091015290565b600060208252611fca6020830184612ab0565b600060408252612ccf6040830185612ab0565b8281036020840152612ce18185612ab0565b95945050505050565b602080825260189082015277155cd95c88185b1c9958591e481dda1a5d195b1a5cdd195960421b604082015260600190565b60208082526026908201527f4f776e61626c653a206e6577206f776e657220697320746865207a65726f206160408201526564647265737360d01b606082015260800190565b6020808252601b908201527f536166654d6174683a206164646974696f6e206f766572666c6f770000000000604082015260600190565b6020808252602d908201527f546f6b656e206e6f7420616c6c6f7765642062792074686520534c415265676960408201526c1cdd1c9e4818dbdb9d1c9858dd609a1b606082015260800190565b60208082526025908201527f4f6e6c79204d657373656e6765722063616e2063616c6c20746869732066756e60408201526431ba34b7b760d91b606082015260800190565b602080825260179082015276155cd95c881a5cc81b9bdd081dda1a5d195b1a5cdd1959604a1b604082015260600190565b60208082526029908201527f53686f756c64206e6f74207769746864726177206d6f7265207468616e207573604082015268657273207374616b6560b81b606082015260800190565b60208082526028908201527f43616e206f6e6c79207374616b65206f6e206e6f742066696e697368656420636040820152676f6e74726163747360c01b606082015260800190565b60208082526024908201527f44534c41206275726e2070726f6365737320776173206e6f74207375636365736040820152631cd99d5b60e21b606082015260800190565b60208082526021908201527f536166654d6174683a206d756c7469706c69636174696f6e206f766572666c6f6040820152607760f81b606082015260800190565b6020808252601490820152731d1bdad95b881a5cc81b9bdd08185b1b1bddd95960621b604082015260600190565b6020808252818101527f4f776e61626c653a2063616c6c6572206973206e6f7420746865206f776e6572604082015260600190565b6020808252601a908201527f4f6e6c7920666f722066696e697368656420636f6e7472616374000000000000604082015260600190565b602080825260139082015272151bdad95b88185b1c9958591e481859191959606a1b604082015260600190565b6020808252601d908201527f416464726573733a2063616c6c20746f206e6f6e2d636f6e7472616374000000604082015260600190565b6020808252601290820152710616d6f756e742063616e6e6f7420626520360741b604082015260600190565b602080825260149082015273155cd95c881b9bdd081dda1a5d195b1a5cdd195960621b604082015260600190565b60208082526029908201527f43616e6e6f74207374616b65206d6f7265207468616e20534c412070726f7669604082015268646572207374616b6560b81b606082015260800190565b6020808252602a908201527f5361666545524332303a204552433230206f7065726174696f6e20646964206e6040820152691bdd081cdd58d8d9595960b21b606082015260800190565b6001600160801b0391909116815260200190565b918252602082015260400190565b83815260208101839052606081016003831061319757fe5b826040830152949350505050565b9283526020830191909152604082015260600190565b60405181810167ffffffffffffffff811182821017156131da57600080fd5b604052919050565b600067ffffffffffffffff8211156131f8578081fd5b5060209081020190565b60005b8381101561321d578181015183820152602001613205565b838111156116875750506000910152565b6001600160a01b03811681146124d057600080fdfea2646970667358221220fe34a825e7fe80dded29935a019098b70b1ae691a46e59c3c31d09e5e82b479064736f6c634300060600338be0079c531659141344cd1fd0a4f28419497f9722a3daafe3b4186f6b6457e0a26469706673582212203161af88df50354202c6ff4a2aa8e58ad7c45aafbac6da17ac1b3358d1485e7364736f6c63430006060033",
  "immutableReferences": {},
  "source": "// SPDX-License-Identifier: MIT\npragma solidity 0.6.6;\npragma experimental ABIEncoderV2;\n\nimport \"@openzeppelin/contracts/math/SafeMath.sol\";\nimport \"@openzeppelin/contracts/access/Ownable.sol\";\nimport \"./SLA.sol\";\nimport \"./SLO.sol\";\nimport \"./SLORegistry.sol\";\nimport \"./PeriodRegistry.sol\";\nimport \"./MessengerRegistry.sol\";\nimport \"./StakeRegistry.sol\";\nimport \"./messenger/IMessenger.sol\";\n\n/**\n * @title SLARegistry\n * @dev SLARegistry is a contract for handling creation of service level\n * agreements and keeping track of the created agreements\n */\ncontract SLARegistry is Ownable {\n    using SafeMath for uint256;\n\n    /// @dev SLO registry\n    SLORegistry public sloRegistry;\n    /// @dev Periods registry\n    PeriodRegistry public periodRegistry;\n    /// @dev Messengers registry\n    MessengerRegistry public messengerRegistry;\n    /// @dev Stake registry\n    StakeRegistry public stakeRegistry;\n    /// @dev stores the addresses of created SLAs\n    SLA[] public SLAs;\n    /// @dev stores the indexes of service level agreements owned by an user\n    mapping(address => uint256[]) private userToSLAIndexes;\n    /// @dev to check if registered SLA\n    mapping(address => bool) private registeredSLAs;\n\n    /**\n     * @dev event for service level agreement creation logging\n     * @param sla 1. The address of the created service level agreement contract\n     * @param owner 2. The address of the owner of the service level agreement\n     */\n    event SLACreated(SLA indexed sla, address indexed owner);\n\n    /**\n     * @dev constructor\n     * @param _sloRegistry 1. SLO Registry\n     * @param _periodRegistry 2. Periods registry\n     * @param _messengerRegistry 3. Messenger registry\n     * @param _stakeRegistry 4. Stake registry\n     */\n    constructor(\n        SLORegistry _sloRegistry,\n        PeriodRegistry _periodRegistry,\n        MessengerRegistry _messengerRegistry,\n        StakeRegistry _stakeRegistry\n    ) public {\n        sloRegistry = _sloRegistry;\n        periodRegistry = _periodRegistry;\n        stakeRegistry = _stakeRegistry;\n        stakeRegistry.setSLARegistry();\n        messengerRegistry = _messengerRegistry;\n        messengerRegistry.setSLARegistry();\n    }\n\n    /**\n     * @dev public function for creating canonical service level agreements\n     * @param _SLO 1. SLO\n     * @param _ipfsHash 2. string with the ipfs hash that contains extra information about the service level agreement\n     * @param _periodType 3. period type\n     * @param _initialPeriodId 4. -\n     * @param _finalPeriodId 5. -\n     * @param _messengerAddress 6. -\n     * @param _whitelisted 7. -\n     * @param _extraData 8. -\n     */\n    function createSLA(\n        SLO _SLO,\n        bool _whitelisted,\n        address _messengerAddress,\n        PeriodRegistry.PeriodType _periodType,\n        uint128 _initialPeriodId,\n        uint128 _finalPeriodId,\n        string memory _ipfsHash,\n        bytes32[] memory _extraData\n    ) public {\n        require(\n            sloRegistry.isRegisteredSLO(address(_SLO)) == true,\n            \"SLO not registered on SLORegistry\"\n        );\n        bool validPeriod =\n            periodRegistry.isValidPeriod(_periodType, _initialPeriodId);\n        require(validPeriod, \"First period id not valid\");\n        validPeriod = periodRegistry.isValidPeriod(_periodType, _finalPeriodId);\n        require(validPeriod, \"Final period id not valid\");\n        require(\n            _finalPeriodId >= _initialPeriodId,\n            \"finalPeriodId should be greater than or equal to initialPeriodId\"\n        );\n        // UNCOMMENT THE NEXT 3 LINES BEFORE MAINNET\n        // bool periodHasStarted =\n        //     periodRegistry.periodHasStarted(_periodType, _initialPeriodId);\n        // require(!periodHasStarted, \"Period has started\");\n        bool registeredMessenger =\n            messengerRegistry.registeredMessengers(_messengerAddress);\n        require(\n            registeredMessenger == true,\n            \"messenger address is not registered\"\n        );\n\n        SLA sla =\n            new SLA(\n                msg.sender,\n                _whitelisted,\n                _SLO,\n                _periodType,\n                _messengerAddress,\n                _initialPeriodId,\n                _finalPeriodId,\n                uint128(SLAs.length),\n                _ipfsHash,\n                _extraData\n            );\n\n        stakeRegistry.lockDSLAValue(\n            msg.sender,\n            address(sla),\n            _finalPeriodId - _initialPeriodId + 1\n        );\n        SLAs.push(sla);\n        registeredSLAs[address(sla)] = true;\n        uint256 index = SLAs.length.sub(1);\n        userToSLAIndexes[msg.sender].push(index);\n        emit SLACreated(sla, msg.sender);\n    }\n\n    /**\n     * @dev Gets SLI information for the specified SLA and SLO\n     * @param _periodId 1. id of the period\n     * @param _sla 2. SLA Address\n     * @param _ownerApproval 3. if approval by owner or msg.sender\n     */\n    function requestSLI(\n        uint256 _periodId,\n        SLA _sla,\n        bool _ownerApproval\n    ) public {\n        require(\n            _periodId == _sla.nextVerifiablePeriod(),\n            \"Should only verify next period\"\n        );\n        (, , SLA.Status status) = _sla.periodSLIs(_periodId);\n        require(\n            status == SLA.Status.NotVerified,\n            \"SLA contract was already verified for the period\"\n        );\n        bool breachedContract = _sla.breachedContract();\n        require(\n            breachedContract == false,\n            \"Should only be called for not breached contracts\"\n        );\n        bool slaAllowedPeriodId = _sla.isAllowedPeriod(_periodId);\n        require(\n            slaAllowedPeriodId == true,\n            \"Period ID not registered in the SLA contract\"\n        );\n        PeriodRegistry.PeriodType slaPeriodType = _sla.periodType();\n        bool periodFinished =\n            periodRegistry.periodIsFinished(slaPeriodType, _periodId);\n        require(\n            periodFinished == true,\n            \"SLA contract period has not finished yet\"\n        );\n        address slaMessenger = _sla.messengerAddress();\n        IMessenger(slaMessenger).requestSLI(\n            _periodId,\n            address(_sla),\n            _ownerApproval\n        );\n        stakeRegistry.distributeVerificationRewards(\n            address(_sla),\n            msg.sender,\n            _periodId\n        );\n    }\n\n    function returnLockedValue(SLA _sla) public {\n        require(\n            msg.sender == _sla.owner(),\n            \"Only SLA owner can claim locked value\"\n        );\n        uint256 lastValidPeriodId = _sla.finalPeriodId();\n        PeriodRegistry.PeriodType periodType = _sla.periodType();\n        (, uint256 endOfLastValidPeriod) =\n            periodRegistry.getPeriodStartAndEnd(periodType, lastValidPeriodId);\n\n        (, , SLA.Status lastPeriodStatus) = _sla.periodSLIs(lastValidPeriodId);\n        require(\n            _sla.breachedContract() == true ||\n                (block.timestamp >= endOfLastValidPeriod &&\n                    lastPeriodStatus != SLA.Status.NotVerified),\n            \"Can only withdraw locked DSLA after the final period is verified or if the contract is breached\"\n        );\n        stakeRegistry.returnLockedValue(address(_sla));\n    }\n\n    /**\n     * @dev function to declare this SLARegistry contract as SLARegistry of _messengerAddress\n     * @param _messengerAddress 1. address of the messenger\n     */\n\n    function registerMessenger(\n        address _messengerAddress,\n        string memory _messengerBaseURL,\n        string memory _messengerOwnershipURL,\n        string memory _messengerSpecificationURL\n    ) public {\n        IMessenger(_messengerAddress).setSLARegistry();\n        messengerRegistry.registerMessenger(\n            _messengerAddress,\n            _messengerBaseURL,\n            _messengerOwnershipURL,\n            _messengerSpecificationURL\n        );\n    }\n\n    /**\n     * @dev public view function that returns the service level agreements that\n     * the given user is the owner of\n     * @param _user Address of the user for which to return the service level\n     * agreements\n     * @return array of SLAs\n     */\n    function userSLAs(address _user) public view returns (SLA[] memory) {\n        uint256 count = userSLACount(_user);\n        SLA[] memory SLAList = new SLA[](count);\n        uint256[] memory userSLAIndexes = userToSLAIndexes[_user];\n\n        for (uint256 i = 0; i < count; i++) {\n            SLAList[i] = (SLAs[userSLAIndexes[i]]);\n        }\n\n        return (SLAList);\n    }\n\n    /**\n     * @dev public view function that returns the amount of service level\n     * agreements the given user is the owner of\n     * @param _user 1. address of the user for which to return the amount of\n     * service level agreements\n     * @return uint256 corresponding to the amount of user's SLAs\n     */\n    function userSLACount(address _user) public view returns (uint256) {\n        return userToSLAIndexes[_user].length;\n    }\n\n    /**\n     * @dev public view function that returns all the service level agreements\n     * @return SLA[] array of SLAs\n     */\n    function allSLAs() public view returns (SLA[] memory) {\n        return (SLAs);\n    }\n\n    /**\n     * @dev public view function that returns the total amount of service\n     * level agreements\n     * @return uint256, the length of SLA array\n     */\n    function SLACount() public view returns (uint256) {\n        return SLAs.length;\n    }\n\n    /**\n     * @dev public view function that returns true if _slaAddress was deployed using this SLARegistry\n     * @param _slaAddress address of the SLA to be checked\n     */\n    function isRegisteredSLA(address _slaAddress) public view returns (bool) {\n        return registeredSLAs[_slaAddress];\n    }\n}\n",
  "sourcePath": "/Users/matiasbn/Desktop/stacktical/stacktical-dsla-contracts/contracts/SLARegistry.sol",
  "compiler": {
    "name": "solc",
    "version": "0.6.6+commit.6c089d02.Emscripten.clang"
  },
  "schemaVersion": "3.3.3",
  "updatedAt": "2021-03-15T23:17:39.502Z",
  "networkType": "ethereum",
  "devdoc": {
    "details": "SLARegistry is a contract for handling creation of service level agreements and keeping track of the created agreements",
    "methods": {
      "SLACount()": {
        "details": "public view function that returns the total amount of service level agreements",
        "returns": {
          "_0": "uint256, the length of SLA array"
        }
      },
      "allSLAs()": {
        "details": "public view function that returns all the service level agreements",
        "returns": {
          "_0": "SLA[] array of SLAs"
        }
      },
      "constructor": {
        "details": "constructor",
        "params": {
          "_messengerRegistry": "3. Messenger registry",
          "_periodRegistry": "2. Periods registry",
          "_sloRegistry": "1. SLO Registry",
          "_stakeRegistry": "4. Stake registry"
        }
      },
      "createSLA(address,bool,address,uint8,uint128,uint128,string,bytes32[])": {
        "details": "public function for creating canonical service level agreements",
        "params": {
          "_SLO": "1. SLO",
          "_extraData": "8. -",
          "_finalPeriodId": "5. -",
          "_initialPeriodId": "4. -",
          "_ipfsHash": "2. string with the ipfs hash that contains extra information about the service level agreement",
          "_messengerAddress": "6. -",
          "_periodType": "3. period type",
          "_whitelisted": "7. -"
        }
      },
      "isRegisteredSLA(address)": {
        "details": "public view function that returns true if _slaAddress was deployed using this SLARegistry",
        "params": {
          "_slaAddress": "address of the SLA to be checked"
        }
      },
      "owner()": {
        "details": "Returns the address of the current owner."
      },
      "registerMessenger(address,string,string,string)": {
        "details": "function to declare this SLARegistry contract as SLARegistry of _messengerAddress",
        "params": {
          "_messengerAddress": "1. address of the messenger"
        }
      },
      "renounceOwnership()": {
        "details": "Leaves the contract without owner. It will not be possible to call `onlyOwner` functions anymore. Can only be called by the current owner.     * NOTE: Renouncing ownership will leave the contract without an owner, thereby removing any functionality that is only available to the owner."
      },
      "requestSLI(uint256,address,bool)": {
        "details": "Gets SLI information for the specified SLA and SLO",
        "params": {
          "_ownerApproval": "3. if approval by owner or msg.sender",
          "_periodId": "1. id of the period",
          "_sla": "2. SLA Address"
        }
      },
      "transferOwnership(address)": {
        "details": "Transfers ownership of the contract to a new account (`newOwner`). Can only be called by the current owner."
      },
      "userSLACount(address)": {
        "details": "public view function that returns the amount of service level agreements the given user is the owner of",
        "params": {
          "_user": "1. address of the user for which to return the amount of service level agreements"
        },
        "returns": {
          "_0": "uint256 corresponding to the amount of user's SLAs"
        }
      },
      "userSLAs(address)": {
        "details": "public view function that returns the service level agreements that the given user is the owner of",
        "params": {
          "_user": "Address of the user for which to return the service level agreements"
        },
        "returns": {
          "_0": "array of SLAs"
        }
      }
    },
    "title": "SLARegistry"
  },
  "userdoc": {
    "methods": {}
  }
}