{
  "contractName": "SLARegistry",
  "abi": [
    {
      "inputs": [
        {
          "internalType": "contract SLORegistry",
          "name": "_sloRegistry",
          "type": "address"
        },
        {
          "internalType": "contract PeriodRegistry",
          "name": "_periodRegistry",
          "type": "address"
        },
        {
          "internalType": "contract MessengerRegistry",
          "name": "_messengerRegistry",
          "type": "address"
        },
        {
          "internalType": "contract StakeRegistry",
          "name": "_stakeRegistry",
          "type": "address"
        }
      ],
      "stateMutability": "nonpayable",
      "type": "constructor"
    },
    {
      "anonymous": false,
      "inputs": [
        {
          "indexed": true,
          "internalType": "address",
          "name": "previousOwner",
          "type": "address"
        },
        {
          "indexed": true,
          "internalType": "address",
          "name": "newOwner",
          "type": "address"
        }
      ],
      "name": "OwnershipTransferred",
      "type": "event"
    },
    {
      "anonymous": false,
      "inputs": [
        {
          "indexed": true,
          "internalType": "contract SLA",
          "name": "sla",
          "type": "address"
        },
        {
          "indexed": true,
          "internalType": "address",
          "name": "owner",
          "type": "address"
        }
      ],
      "name": "SLACreated",
      "type": "event"
    },
    {
      "inputs": [
        {
          "internalType": "uint256",
          "name": "",
          "type": "uint256"
        }
      ],
      "name": "SLAs",
      "outputs": [
        {
          "internalType": "contract SLA",
          "name": "",
          "type": "address"
        }
      ],
      "stateMutability": "view",
      "type": "function"
    },
    {
      "inputs": [],
      "name": "messengerRegistry",
      "outputs": [
        {
          "internalType": "contract MessengerRegistry",
          "name": "",
          "type": "address"
        }
      ],
      "stateMutability": "view",
      "type": "function"
    },
    {
      "inputs": [],
      "name": "owner",
      "outputs": [
        {
          "internalType": "address",
          "name": "",
          "type": "address"
        }
      ],
      "stateMutability": "view",
      "type": "function"
    },
    {
      "inputs": [],
      "name": "periodRegistry",
      "outputs": [
        {
          "internalType": "contract PeriodRegistry",
          "name": "",
          "type": "address"
        }
      ],
      "stateMutability": "view",
      "type": "function"
    },
    {
      "inputs": [
        {
          "internalType": "address",
          "name": "",
          "type": "address"
        }
      ],
      "name": "registeredSLAs",
      "outputs": [
        {
          "internalType": "bool",
          "name": "",
          "type": "bool"
        }
      ],
      "stateMutability": "view",
      "type": "function"
    },
    {
      "inputs": [],
      "name": "renounceOwnership",
      "outputs": [],
      "stateMutability": "nonpayable",
      "type": "function"
    },
    {
      "inputs": [],
      "name": "sloRegistry",
      "outputs": [
        {
          "internalType": "contract SLORegistry",
          "name": "",
          "type": "address"
        }
      ],
      "stateMutability": "view",
      "type": "function"
    },
    {
      "inputs": [],
      "name": "stakeRegistry",
      "outputs": [
        {
          "internalType": "contract StakeRegistry",
          "name": "",
          "type": "address"
        }
      ],
      "stateMutability": "view",
      "type": "function"
    },
    {
      "inputs": [
        {
          "internalType": "address",
          "name": "newOwner",
          "type": "address"
        }
      ],
      "name": "transferOwnership",
      "outputs": [],
      "stateMutability": "nonpayable",
      "type": "function"
    },
    {
      "inputs": [
        {
          "internalType": "address",
          "name": "",
          "type": "address"
        },
        {
          "internalType": "uint256",
          "name": "",
          "type": "uint256"
        }
      ],
      "name": "userStakedSlas",
      "outputs": [
        {
          "internalType": "contract SLA",
          "name": "",
          "type": "address"
        }
      ],
      "stateMutability": "view",
      "type": "function"
    },
    {
      "inputs": [
        {
          "internalType": "contract SLO",
          "name": "_SLO",
          "type": "address"
        },
        {
          "internalType": "string",
          "name": "_ipfsHash",
          "type": "string"
        },
        {
          "internalType": "enum PeriodRegistry.PeriodType",
          "name": "_periodType",
          "type": "uint8"
        },
        {
          "internalType": "uint256[]",
          "name": "_periodIds",
          "type": "uint256[]"
        },
        {
          "internalType": "address",
          "name": "_messengerAddress",
          "type": "address"
        },
        {
          "internalType": "bool",
          "name": "_whitelisted",
          "type": "bool"
        }
      ],
      "name": "createSLA",
      "outputs": [],
      "stateMutability": "nonpayable",
      "type": "function"
    },
    {
      "inputs": [
        {
          "internalType": "uint256",
          "name": "_periodId",
          "type": "uint256"
        },
        {
          "internalType": "contract SLA",
          "name": "_sla",
          "type": "address"
        }
      ],
      "name": "requestSLI",
      "outputs": [],
      "stateMutability": "nonpayable",
      "type": "function"
    },
    {
      "inputs": [
        {
          "internalType": "address",
          "name": "_messengerAddress",
          "type": "address"
        }
      ],
      "name": "setMessengerSLARegistryAddress",
      "outputs": [],
      "stateMutability": "nonpayable",
      "type": "function"
    },
    {
      "inputs": [
        {
          "internalType": "address",
          "name": "_user",
          "type": "address"
        }
      ],
      "name": "userSLAs",
      "outputs": [
        {
          "internalType": "contract SLA[]",
          "name": "",
          "type": "address[]"
        }
      ],
      "stateMutability": "view",
      "type": "function"
    },
    {
      "inputs": [
        {
          "internalType": "address",
          "name": "_user",
          "type": "address"
        }
      ],
      "name": "userSLACount",
      "outputs": [
        {
          "internalType": "uint256",
          "name": "",
          "type": "uint256"
        }
      ],
      "stateMutability": "view",
      "type": "function"
    },
    {
      "inputs": [],
      "name": "allSLAs",
      "outputs": [
        {
          "internalType": "contract SLA[]",
          "name": "",
          "type": "address[]"
        }
      ],
      "stateMutability": "view",
      "type": "function"
    },
    {
      "inputs": [],
      "name": "SLACount",
      "outputs": [
        {
          "internalType": "uint256",
          "name": "",
          "type": "uint256"
        }
      ],
      "stateMutability": "view",
      "type": "function"
    },
    {
      "inputs": [
        {
          "internalType": "address",
          "name": "_user",
          "type": "address"
        },
        {
          "internalType": "address",
          "name": "_sla",
          "type": "address"
        }
      ],
      "name": "slaWasStakedByUser",
      "outputs": [
        {
          "internalType": "bool",
          "name": "",
          "type": "bool"
        }
      ],
      "stateMutability": "view",
      "type": "function"
    },
    {
      "inputs": [
        {
          "internalType": "address",
          "name": "_owner",
          "type": "address"
        }
      ],
      "name": "registerStakedSla",
      "outputs": [
        {
          "internalType": "bool",
          "name": "",
          "type": "bool"
        }
      ],
      "stateMutability": "nonpayable",
      "type": "function"
    }
  ],
  "bytecode": "0x60806040523480156200001157600080fd5b5060405162004e5538038062004e55833981016040819052620000349162000132565b6000620000406200012e565b600080546001600160a01b0319166001600160a01b0383169081178255604051929350917f8be0079c531659141344cd1fd0a4f28419497f9722a3daafe3b4186f6b6457e0908290a350600180546001600160a01b03199081166001600160a01b03878116919091179092556002805482168684161790556004805482168484161781556003805490921685841617918290556040805163f388158960e01b81529051929093169263f3881589928183019260009282900301818387803b1580156200010b57600080fd5b505af115801562000120573d6000803e3d6000fd5b5050505050505050620001b2565b3390565b6000806000806080858703121562000148578384fd5b8451620001558162000199565b6020860151909450620001688162000199565b60408601519093506200017b8162000199565b60608601519092506200018e8162000199565b939692955090935050565b6001600160a01b0381168114620001af57600080fd5b50565b614c9380620001c26000396000f3fe60806040523480156200001157600080fd5b5060043610620001295760003560e01c8063715018a611620000bd578063a3f5cadf116200007b578063a3f5cadf146200024f578063b290508e1462000266578063d1994408146200027d578063e9b1e98c1462000294578063f2fde38b14620002ab5762000129565b8063715018a6146200020e578063816ff98614620002185780638da5cb5b146200023157806396bddc10146200023b5780639fc4caa514620002455762000129565b8062bc9add146200012e5780630df0bfc6146200014757806350c5abfe1462000176578063516c2857146200019c57806351e99ec614620001c25780635a7d1e5d14620001d95780635c4df33214620001e35780636435dc9c14620001ed578063683048351462000204575b600080fd5b620001456200013f366004620012f3565b620002c2565b005b6200015e6200015836600462001269565b62000771565b6040516200016d919062001674565b60405180910390f35b6200018d620001873660046200142e565b620007fc565b6040516200016d919062001542565b620001b3620001ad3660046200122b565b62000824565b6040516200016d919062001625565b6200015e620001d33660046200122b565b6200096c565b6200018d62000981565b6200018d62000990565b62000145620001fe3660046200122b565b6200099f565b6200018d62000a5f565b6200014562000a6e565b6200022262000af2565b6040516200016d9190620019ff565b6200018d62000af8565b620001b362000b07565b6200018d62000b6b565b6200018d62000260366004620012a6565b62000b7a565b6200015e620002773660046200122b565b62000bb0565b620001456200028e3660046200146e565b62000c39565b62000222620002a53660046200122b565b62001053565b62000145620002bc3660046200122b565b6200106e565b600254604051635c98d15760e01b81526000916001600160a01b031690635c98d15790620002f59089906004016200167f565b604080518083038186803b1580156200030d57600080fd5b505afa15801562000322573d6000803e3d6000fd5b505050506040513d601f19601f8201168201806040525081019062000348919062001447565b915050600181151514620003795760405162461bcd60e51b815260040162000370906200193a565b60405180910390fd5b600154604051632af1c01d60e01b81526001600160a01b0390911690632af1c01d90620003ab908b9060040162001542565b60206040518083038186803b158015620003c457600080fd5b505afa158015620003d9573d6000803e3d6000fd5b505050506040513d601f19601f82011682018060405250810190620003ff9190620012d4565b1515600114620004235760405162461bcd60e51b8152600401620003709062001700565b83620004435760405162461bcd60e51b815260040162000370906200187e565b60005b848110156200056f576002546000906001600160a01b031663ddfc4fde898989868181106200047157fe5b905060200201356040518363ffffffff1660e01b8152600401620004979291906200168f565b60206040518083038186803b158015620004b057600080fd5b505afa158015620004c5573d6000803e3d6000fd5b505050506040513d601f19601f82011682018060405250810190620004eb9190620012d4565b9050806200050d5760405162461bcd60e51b8152600401620003709062001741565b600019860182101562000565578686836001018181106200052a57fe5b905060200201358787848181106200053e57fe5b9050602002013510620005655760405162461bcd60e51b81526004016200037090620019c8565b5060010162000446565b5060035460405163ef4003db60e01b81526000916001600160a01b03169063ef4003db90620005a390879060040162001542565b60206040518083038186803b158015620005bc57600080fd5b505afa158015620005d1573d6000803e3d6000fd5b505050506040513d601f19601f82011682018060405250810190620005f79190620012d4565b90506001811515146200061e5760405162461bcd60e51b81526004016200037090620016bd565b6000338a8a878a8a8d600460009054906101000a90046001600160a01b0316600260009054906101000a90046001600160a01b03168c6040516200066290620011aa565b620006779a9998979695949392919062001556565b604051809103906000f08015801562000694573d6000803e3d6000fd5b5060058054600180820183557f036b6384b5eca791c62761152d0c79bb0604c104a5fb6f4eb0703f3154bb3db090910180546001600160a01b0319166001600160a01b0385169081179091556000908152600660205260408120805460ff191683179055915492935090916200070a916200112c565b33600081815260076020908152604080832080546001810182559084529183209091018490555192935090916001600160a01b038516917fb52f284a6c14f1a66ab5513b5b539066933e58e69e6432666f0e3c8c8a7d750391a35050505050505050505050565b6000805b6001600160a01b038416600090815260086020526040902054811015620007f0576001600160a01b03848116600090815260086020526040902080549185169183908110620007c057fe5b6000918252602090912001546001600160a01b03161415620007e7576001915050620007f6565b60010162000775565b50600090505b92915050565b600581815481106200080a57fe5b6000918252602090912001546001600160a01b0316905081565b60606000620008338362001053565b905060608167ffffffffffffffff811180156200084f57600080fd5b506040519080825280602002602001820160405280156200087a578160200160208202803683370190505b506001600160a01b03851660009081526007602090815260409182902080548351818402810184019094528084529394506060939091830182828015620008e157602002820191906000526020600020905b815481526020019060010190808311620008cc575b5050505050905060005b83811015620009625760058282815181106200090357fe5b6020026020010151815481106200091657fe5b9060005260206000200160009054906101000a90046001600160a01b03168382815181106200094157fe5b6001600160a01b0390921660209283029190910190910152600101620008eb565b5090949350505050565b60066020526000908152604090205460ff1681565b6001546001600160a01b031681565b6003546001600160a01b031681565b806001600160a01b031663f38815896040518163ffffffff1660e01b8152600401600060405180830381600087803b158015620009db57600080fd5b505af1158015620009f0573d6000803e3d6000fd5b50506003546040516319d71f1f60e31b81526001600160a01b03909116925063ceb8f8f8915062000a2890849033906004016200160b565b600060405180830381600087803b15801562000a4357600080fd5b505af115801562000a58573d6000803e3d6000fd5b5050505050565b6004546001600160a01b031681565b62000a7862001177565b6000546001600160a01b0390811691161462000aa85760405162461bcd60e51b8152600401620003709062001905565b600080546040516001600160a01b03909116907f8be0079c531659141344cd1fd0a4f28419497f9722a3daafe3b4186f6b6457e0908390a3600080546001600160a01b0319169055565b60055490565b6000546001600160a01b031690565b6060600580548060200260200160405190810160405280929190818152602001828054801562000b6157602002820191906000526020600020905b81546001600160a01b0316815260019091019060200180831162000b42575b5050505050905090565b6002546001600160a01b031681565b6008602052816000526040600020818154811062000b9457fe5b6000918252602090912001546001600160a01b03169150829050565b3360009081526006602052604081205460ff16151560011462000be75760405162461bcd60e51b815260040162000370906200176e565b62000bf3823362000771565b62000c31576001600160a01b03821660009081526008602090815260408220805460018101825590835291200180546001600160a01b031916331790555b506001919050565b6000816001600160a01b0316637fd788aa6040518163ffffffff1660e01b815260040160206040518083038186803b15801562000c7557600080fd5b505afa15801562000c8a573d6000803e3d6000fd5b505050506040513d601f19601f8201168201806040525081019062000cb09190620012d4565b9050801562000cd35760405162461bcd60e51b81526004016200037090620018b5565b60405163021eef7f60e01b81526000906001600160a01b0384169063021eef7f9062000d04908790600401620019ff565b60206040518083038186803b15801562000d1d57600080fd5b505afa15801562000d32573d6000803e3d6000fd5b505050506040513d601f19601f8201168201806040525081019062000d589190620012d4565b905060018115151462000d7f5760405162461bcd60e51b815260040162000370906200197c565b6000836001600160a01b03166346e0fbae6040518163ffffffff1660e01b815260040160206040518083038186803b15801562000dbb57600080fd5b505afa15801562000dd0573d6000803e3d6000fd5b505050506040513d601f19601f8201168201806040525081019062000df691906200140f565b6002546040516331edb3ad60e21b81529192506000916001600160a01b039091169063c7b6ceb49062000e309085908a906004016200168f565b60206040518083038186803b15801562000e4957600080fd5b505afa15801562000e5e573d6000803e3d6000fd5b505050506040513d601f19601f8201168201806040525081019062000e849190620012d4565b905060018115151462000eab5760405162461bcd60e51b8152600401620003709062001836565b604051639ab4438f60e01b81526000906001600160a01b03871690639ab4438f9062000edc908a90600401620019ff565b60606040518083038186803b15801562000ef557600080fd5b505afa15801562000f0a573d6000803e3d6000fd5b505050506040513d601f19601f8201168201806040525081019062000f30919062001495565b92506000915062000f3e9050565b81600281111562000f4b57fe5b1462000f6b5760405162461bcd60e51b81526004016200037090620017e6565b6000866001600160a01b031663a224ee9c6040518163ffffffff1660e01b815260040160206040518083038186803b15801562000fa757600080fd5b505afa15801562000fbc573d6000803e3d6000fd5b505050506040513d601f19601f8201168201806040525081019062000fe291906200124a565b604051631a33288160e31b81529091506001600160a01b0382169063d19944089062001015908b908b9060040162001a08565b600060405180830381600087803b1580156200103057600080fd5b505af115801562001045573d6000803e3d6000fd5b505050505050505050505050565b6001600160a01b031660009081526007602052604090205490565b6200107862001177565b6000546001600160a01b03908116911614620010a85760405162461bcd60e51b8152600401620003709062001905565b6001600160a01b038116620010d15760405162461bcd60e51b81526004016200037090620017a0565b600080546040516001600160a01b03808516939216917f8be0079c531659141344cd1fd0a4f28419497f9722a3daafe3b4186f6b6457e091a3600080546001600160a01b0319166001600160a01b0392909216919091179055565b60006200117083836040518060400160405280601e81526020017f536166654d6174683a207375627472616374696f6e206f766572666c6f7700008152506200117b565b9392505050565b3390565b60008184841115620011a25760405162461bcd60e51b8152600401620003709190620016a8565b505050900390565b6132088062001a5683390190565b8035620007f68162001a1f565b60008083601f840112620011d7578182fd5b50813567ffffffffffffffff811115620011ef578182fd5b60208301915083602080830285010111156200120a57600080fd5b9250929050565b8035620007f68162001a38565b8035620007f68162001a47565b6000602082840312156200123d578081fd5b8135620011708162001a1f565b6000602082840312156200125c578081fd5b8151620011708162001a1f565b600080604083850312156200127c578081fd5b8235620012898162001a1f565b915060208301356200129b8162001a1f565b809150509250929050565b60008060408385031215620012b9578182fd5b8235620012c68162001a1f565b946020939093013593505050565b600060208284031215620012e6578081fd5b8151620011708162001a38565b600080600080600080600060c0888a0312156200130e578283fd5b87356200131b8162001a1f565b965060208881013567ffffffffffffffff8082111562001339578586fd5b818b0191508b601f8301126200134d578586fd5b8135818111156200135c578687fd5b604051601f8201601f19168101850183811182821017156200137c578889fd5b60405281815283820185018e101562001393578788fd5b818585018683013790810184018790529850620013b48c60408d016200121e565b975060608b0135925080831115620013ca578586fd5b5050620013da8a828b01620011c5565b9095509350620013f090508960808a01620011b8565b9150620014018960a08a0162001211565b905092959891949750929550565b60006020828403121562001421578081fd5b8151620011708162001a47565b60006020828403121562001440578081fd5b5035919050565b600080604083850312156200145a578182fd5b8251915060208301516200129b8162001a38565b6000806040838503121562001481578182fd5b8235915060208301356200129b8162001a1f565b600080600060608486031215620014aa578283fd5b8351925060208401519150604084015160038110620014c7578182fd5b809150509250925092565b6001600160a01b03169052565b15159052565b60068110620014f057fe5b9052565b60008151808452815b818110156200151b57602081850181015186830182015201620014fd565b818111156200152d5782602083870101525b50601f01601f19169290920160200192915050565b6001600160a01b0391909116815260200190565b6001600160a01b038b811682528a8116602083015261012060408301819052600091620015868483018d620014f4565b8b82166060860152848103608086015289815291506001600160fb1b03891115620015af578283fd5b60208902808b6020850137919091016020019182528190620015d560a0850189620014e5565b861660c084015250620015ec60e0830185620014d2565b620015fc610100830184620014df565b9b9a5050505050505050505050565b6001600160a01b0392831681529116602082015260400190565b6020808252825182820181905260009190848201906040850190845b81811015620016685783516001600160a01b03168352928401929184019160010162001641565b50909695505050505050565b901515815260200190565b60208101620007f68284620014e5565b60408101600684106200169e57fe5b9281526020015290565b600060208252620011706020830184620014f4565b60208082526023908201527f6d657373656e6765722061646472657373206973206e6f7420726567697374656040820152621c995960ea1b606082015260800190565b60208082526021908201527f534c4f206e6f742072656769737465726564206f6e20534c4f526567697374726040820152607960f81b606082015260800190565b60208082526013908201527214195c9a5bd9081a59081b9bdd081d985b1a59606a1b604082015260600190565b6020808252601890820152774f6e6c7920666f72207265676973746572656420534c417360401b604082015260600190565b60208082526026908201527f4f776e61626c653a206e6577206f776e657220697320746865207a65726f206160408201526564647265737360d01b606082015260800190565b60208082526030908201527f534c4120636f6e74726163742077617320616c7265616479207665726966696560408201526f1908199bdc881d1a19481c195c9a5bd960821b606082015260800190565b60208082526028908201527f534c4120636f6e747261637420706572696f6420686173206e6f742066696e696040820152671cda1959081e595d60c21b606082015260800190565b6020808252601c908201527f506572696f647320696e666f726d6174696f6e20697320656d70747900000000604082015260600190565b60208082526030908201527f53686f756c64206f6e6c792062652063616c6c656420666f72206e6f7420627260408201526f65616368656420636f6e74726163747360801b606082015260800190565b6020808252818101527f4f776e61626c653a2063616c6c6572206973206e6f7420746865206f776e6572604082015260600190565b60208082526022908201527f506572696f642074797065206973206e6f7420696e697469616c697a65642079604082015261195d60f21b606082015260800190565b6020808252602c908201527f506572696f64204944206e6f74207265676973746572656420696e207468652060408201526b14d3104818dbdb9d1c9858dd60a21b606082015260800190565b6020808252601c908201527f506572696f64206964732073686f756c6420626520736f727465642000000000604082015260600190565b90815260200190565b9182526001600160a01b0316602082015260400190565b6001600160a01b038116811462001a3557600080fd5b50565b801515811462001a3557600080fd5b6006811062001a3557600080fdfe6080604052601c805460ff191690553480156200001b57600080fd5b5060405162003208380380620032088339810160408190526200003e91620006a0565b8282858751846000620000566200039e60201b60201c565b600080546001600160a01b0319166001600160a01b038316908117825560405192935091600080516020620031e8833981519152908290a350600180546001600160a01b038088166001600160a01b0319928316178355600280549188169190921617905560108054859260ff1990911690836005811115620000d557fe5b021790555060118290556012805460ff191682151517905560015460408051637b8041cf60e11b815290516000928392839283926001600160a01b03169163f700839e916004808301926080929190829003018186803b1580156200013957600080fd5b505afa1580156200014e573d6000803e3d6000fd5b505050506040513d601f19601f82011682018060405250810190620001749190620007ca565b600254604051635c98d15760e01b815294985092965090945092506000916001600160a01b0390911690635c98d15790620001b4908b9060040162000800565b604080518083038186803b158015620001cc57600080fd5b505afa158015620001e1573d6000803e3d6000fd5b505050506040513d601f19601f8201168201806040525081019062000207919062000795565b50600f81905560015460408051638b8e530960e01b815290519293506001600160a01b0390911691638b8e530991600480820192602092909190829003018186803b1580156200025657600080fd5b505afa1580156200026b573d6000803e3d6000fd5b505050506040513d601f19601f820116820180604052508101906200029191906200067a565b600980546001600160a01b0319166001600160a01b039290921691909117905550600b93909355600c91909155600d55600e5550620002d793508c9250620003a2915050565b8651620002ec9060159060208a019062000458565b50601980546001600160a01b038089166001600160a01b03199283161790925560188054909116331790556016805491841661010002610100600160a81b031990921691909117905543601b5584516200034e906017906020880190620004dd565b506016805485919060ff191660018360058111156200036957fe5b021790555050601480546001600160a01b0319166001600160a01b03989098169790971790965550620008d095505050505050565b3390565b620003ac6200039e565b6000546001600160a01b03908116911614620003e55760405162461bcd60e51b8152600401620003dc906200085b565b60405180910390fd5b6001600160a01b0381166200040e5760405162461bcd60e51b8152600401620003dc9062000815565b600080546040516001600160a01b0380851693921691600080516020620031e883398151915291a3600080546001600160a01b0319166001600160a01b0392909216919091179055565b828054600181600116156101000203166002900490600052602060002090601f016020900481019282601f106200049b57805160ff1916838001178555620004cb565b82800160010185558215620004cb579182015b82811115620004cb578251825591602001919060010190620004ae565b50620004d99291506200051a565b5090565b828054828255906000526020600020908101928215620004cb5791602002820182811115620004cb578251825591602001919060010190620004ae565b5b80821115620004d957600081556001016200051b565b80516200053e81620008b7565b92915050565b600082601f83011262000555578081fd5b81516001600160401b038111156200056b578182fd5b60208082026200057d82820162000890565b838152935081840185830182870184018810156200059a57600080fd5b600092505b84831015620005bf5780518252600192909201919083019083016200059f565b505050505092915050565b805180151581146200053e57600080fd5b8051600681106200053e57600080fd5b600082601f830112620005fc578081fd5b81516001600160401b0381111562000612578182fd5b602062000628601f8301601f1916820162000890565b925081835284818386010111156200063f57600080fd5b60005b828110156200065f57848101820151848201830152810162000642565b82811115620006715760008284860101525b50505092915050565b6000602082840312156200068c578081fd5b81516200069981620008b7565b9392505050565b60008060008060008060008060006101208a8c031215620006bf578485fd5b8951620006cc81620008b7565b60208b0151909950620006df81620008b7565b60408b01519098506001600160401b0380821115620006fc578687fd5b6200070a8d838e01620005eb565b98506200071b8d60608e0162000531565b975060808c015191508082111562000731578687fd5b50620007408c828d0162000544565b955050620007528b60a08c01620005db565b9350620007638b60c08c0162000531565b9250620007748b60e08c0162000531565b9150620007868b6101008c01620005ca565b90509295985092959850929598565b60008060408385031215620007a8578182fd5b8251915060208301518015158114620007bf578182fd5b809150509250929050565b60008060008060808587031215620007e0578384fd5b505082516020840151604085015160609095015191969095509092509050565b60208101600683106200080f57fe5b91905290565b60208082526026908201527f4f776e61626c653a206e6577206f776e657220697320746865207a65726f206160408201526564647265737360d01b606082015260800190565b6020808252818101527f4f776e61626c653a2063616c6c6572206973206e6f7420746865206f776e6572604082015260600190565b6040518181016001600160401b0381118282101715620008af57600080fd5b604052919050565b6001600160a01b0381168114620008cd57600080fd5b50565b61290880620008e06000396000f3fe608060405234801561001057600080fd5b506004361061022d5760003560e01c80637fd788aa1161013b578063d7a5c422116100b8578063f2fde38b1161007c578063f2fde38b14610474578063f51b7ab914610487578063f7e9dfff1461048f578063fbbf93a014610497578063fd5e6dd1146104b15761022d565b8063d7a5c4221461042b578063db2da48c1461043e578063db69a46214610451578063e68e276d14610459578063ee575c281461046c5761022d565b8063b18ac918116100ff578063b18ac918146103eb578063b7bc347e146103f3578063c623674f146103fb578063cbe230c314610410578063cd92890e146104235761022d565b80637fd788aa146103a95780638da5cb5b146103b15780639ab4438f146103b95780639fc4caa5146103db578063a224ee9c146103e35761022d565b806333df1541116101c957806357ac94f01161018d57806357ac94f0146103375780635c1c20de146103585780635e5f2e26146103605780636f265a3414610380578063715018a6146103a15761022d565b806333df1541146102e15780633d9287fa146102f457806346e0fbae146102fc5780634a4c560d14610311578063524f0735146103245761022d565b8063021eef7f146102325780630ae9ea451461025b5780630bea440d1461027b5780630c5160f414610290578063171e44ea146102985780631bf30929146102ab5780631fc2cd93146102b357806327cd727c146102c65780632eb8197a146102d9575b600080fd5b610245610240366004611fe4565b6104c4565b6040516102529190612223565b60405180910390f35b61026e610269366004611fe4565b61050e565b6040516102529190612856565b61028e610289366004612014565b61052c565b005b61026e610609565b61028e6102a6366004611f7f565b61060f565b61026e61079a565b61028e6102c1366004611f7f565b6107a0565b61028e6102d4366004612014565b6109f3565b61026e610b33565b61026e6102ef366004612014565b610b39565b610245610b56565b610304610b5f565b604051610252919061222e565b61028e61031f366004611f7f565b610b68565b61028e610332366004611f7f565b610bfa565b61034a610345366004611f9a565b610c06565b604051610252929190612160565b61026e610c54565b61037361036e366004611fe4565b610c5a565b6040516102529190612128565b61039361038e366004611f7f565b610c81565b60405161025292919061285f565b61028e610ce6565b610245610d65565b610373610d6e565b6103cc6103c7366004611fe4565b610d7d565b6040516102529392919061286d565b610373610da1565b610373610db5565b61026e610dc4565b61026e610dca565b610403610dd0565b604051610252919061225a565b61024561041e366004611f7f565b610e5e565b610373610eb0565b61028e610439366004612040565b610ebf565b61026e61044c366004611f7f565b6110ca565b6103736110dc565b61026e610467366004611f7f565b6110eb565b61026e6110fd565b61028e610482366004611f7f565b611103565b61026e6111b9565b6103736111bf565b61049f6111ce565b60405161025296959493929190612179565b6103736104bf366004611fe4565b6114c1565b6000805b6017548110156105035782601782815481106104e057fe5b906000526020600020015414156104fb576001915050610509565b6001016104c8565b50600090505b919050565b6017818154811061051b57fe5b600091825260209091200154905081565b600082116105555760405162461bcd60e51b815260040161054c90612720565b60405180910390fd5b601c5460ff16156105785760405162461bcd60e51b815260040161054c9061266a565b61058282826114ce565b601854604051635948284760e11b81526001600160a01b039091169063b290508e906105b2903390600401612128565b602060405180830381600087803b1580156105cc57600080fd5b505af11580156105e0573d6000803e3d6000fd5b505050506040513d601f19601f820116820180604052508101906106049190611fc4565b505050565b60115481565b610617611777565b6000546001600160a01b039081169116146106445760405162461bcd60e51b815260040161054c90612635565b61064d81610e5e565b1561066a5760405162461bcd60e51b815260040161054c906126f3565b60015460405163cbe230c360e01b81526001600160a01b039091169063cbe230c39061069a908490600401612128565b60206040518083038186803b1580156106b257600080fd5b505afa1580156106c6573d6000803e3d6000fd5b505050506040513d601f19601f820116820180604052508101906106ea9190611fc4565b151560011461070b5760405162461bcd60e51b815260040161054c906123d0565b600954600090610723906001600160a01b0316610c81565b509050600c5481116107475760405162461bcd60e51b815260040161054c906127b4565b50600a80546001810182556000919091527fc65a7bb8d6351c1cf70c95a316cc6a92839c986682d98bc35f958f4883f9d2a80180546001600160a01b0319166001600160a01b0392909216919091179055565b601b5481565b6107a8610d6e565b6001600160a01b0316336001600160a01b031614156107d95760405162461bcd60e51b815260040161054c90612811565b60125460ff1615156001141561081d573360009081526013602052604090205460ff16151560011461081d5760405162461bcd60e51b815260040161054c906124bf565b6001600160a01b038116600090815260046020908152604080832033845290915290205461271090806108625760405162461bcd60e51b815260040161054c90612462565b6001600160a01b03831660009081526005602052604081205461088f90610889848661177b565b906117be565b6001600160a01b038516600090815260066020526040812054919250906108bc908590610889908561177b565b90506000856001600160a01b031663a9059cbb33846002026040518363ffffffff1660e01b81526004016108f1929190612160565b602060405180830381600087803b15801561090b57600080fd5b505af115801561091f573d6000803e3d6000fd5b505050506040513d601f19601f820116820180604052508101906109439190611fc4565b90506001811515146109675760405162461bcd60e51b815260040161054c9061274c565b6001600160a01b03861660009081526005602052604090205461098a9085611800565b6001600160a01b0387166000908152600560209081526040808320939093556006905220546109b99083611800565b6001600160a01b03909616600090815260066020908152604080832098909855600481528782203383529052958620959095555050505050565b60008211610a135760405162461bcd60e51b815260040161054c90612720565b60178054600091906000198101908110610a2957fe5b600091825260208220015460165460405160016259edcb60e01b031981529193506001600160a01b036101008204169163ffa6123591610a739160ff909116908690600401612242565b604080518083038186803b158015610a8a57600080fd5b505afa158015610a9e573d6000803e3d6000fd5b505050506040513d601f19601f82011682018060405250810190610ac29190612061565b601c5490925060ff161515600114905080610b075750804210158015610b0757506000828152601a6020526040812060029081015460ff1690811115610b0457fe5b14155b610b235760405162461bcd60e51b815260040161054c906122d4565b610b2d8484611842565b50505050565b600e5481565b600760209081526000928352604080842090915290825290205481565b60125460ff1681565b60165460ff1681565b610b70611777565b6000546001600160a01b03908116911614610b9d5760405162461bcd60e51b815260040161054c90612635565b6001600160a01b03811660009081526013602052604090205460ff1615610bd65760405162461bcd60e51b815260040161054c906122a2565b6001600160a01b03166000908152601360205260409020805460ff19166001179055565b610c03816107a0565b50565b6000806000600a8481548110610c1857fe5b6000918252602080832091909101546001600160a01b039081168084526004835260408085209990921684529790915290205494959350505050565b600b5481565b600a8181548110610c6757fe5b6000918252602090912001546001600160a01b0316905081565b6001600160a01b0381166000908152600460205260408120819081610ca4610d6e565b6001600160a01b039081168252602080830193909352604091820160009081205491871681526003909352912054909250610cdf9083611800565b9050915091565b610cee611777565b6000546001600160a01b03908116911614610d1b5760405162461bcd60e51b815260040161054c90612635565b600080546040516001600160a01b03909116907f8be0079c531659141344cd1fd0a4f28419497f9722a3daafe3b4186f6b6457e0908390a3600080546001600160a01b0319169055565b601c5460ff1690565b6000546001600160a01b031690565b601a6020526000908152604090208054600182015460029092015490919060ff1683565b60165461010090046001600160a01b031681565b6019546001600160a01b031681565b600d5481565b600a5490565b6015805460408051602060026001851615610100026000190190941693909304601f81018490048402820184019092528181529291830182828015610e565780601f10610e2b57610100808354040283529160200191610e56565b820191906000526020600020905b815481529060010190602001808311610e3957829003601f168201915b505050505081565b6000805b600a5481101561050357826001600160a01b0316600a8281548110610e8357fe5b6000918252602090912001546001600160a01b03161415610ea8576001915050610509565b600101610e62565b6014546001600160a01b031681565b6019546001600160a01b03163314610ee95760405162461bcd60e51b815260040161054c9061241d565b7fc95987c1992805ee34bdc915e017cceae36ba1c156b9911fa7e691e6435eb46e428383604051610f1c93929190612890565b60405180910390a16000818152601a60209081526040808320600181018690554281556014548251633fa4f24560e01b815292519194936001600160a01b0390911692633fa4f2459260048083019392829003018186803b158015610f8057600080fd5b505afa158015610f94573d6000803e3d6000fd5b505050506040513d601f19601f82011682018060405250810190610fb89190611ffc565b60145460405163868d08f760e01b81529192506001600160a01b03169063868d08f790610fe9908790600401612856565b60206040518083038186803b15801561100157600080fd5b505afa158015611015573d6000803e3d6000fd5b505050506040513d601f19601f820116820180604052508101906110399190611fc4565b156110655760028201805460ff191660011790556110608361105b8684611800565b611a0c565b610b2d565b6002828101805460ff1916909117905561107d611b70565b601c805460ff191660011790556040517fbd33f7a3bfa88a467c9df5ae7d2341cf061084c386b20a0d48130f5cbce38a4d906110bc908590879061285f565b60405180910390a150505050565b60066020526000908152604090205481565b6018546001600160a01b031681565b60056020526000908152604090205481565b600c5481565b61110b611777565b6000546001600160a01b039081169116146111385760405162461bcd60e51b815260040161054c90612635565b6001600160a01b03811661115e5760405162461bcd60e51b815260040161054c90612353565b600080546040516001600160a01b03808516939216917f8be0079c531659141344cd1fd0a4f28419497f9722a3daafe3b4186f6b6457e091a3600080546001600160a01b0319166001600160a01b0392909216919091179055565b600f5481565b6009546001600160a01b031681565b6000606060006060600060606111e2610d6e565b60158054604080516020601f6002600019610100600188161502019095169490940493840181900481028201810190925282815293995083018282801561126a5780601f1061123f5761010080835404028352916020019161126a565b820191906000526020600020905b81548152906001019060200180831161124d57829003601f168201915b50506014546017549499506001600160a01b031697505067ffffffffffffffff8311915050801561129a57600080fd5b506040519080825280602002602001820160405280156112d457816020015b6112c1611f26565b8152602001906001900390816112b95790505b50925060005b6017548110156113b1576000601782815481106112f357fe5b90600052602060002001549050611308611f26565b6000828152601a6020908152604091829020825160608101845281548152600182015492810192909252600280820154929391929184019160ff169081111561134d57fe5b600281111561135857fe5b815250509050604051806060016040528082600001518152602001826020015181526020018260400151600281111561138d57fe5b81525086848151811061139c57fe5b602090810291909101015250506001016112da565b50600854600a5490925067ffffffffffffffff811180156113d157600080fd5b5060405190808252806020026020018201604052801561140b57816020015b6113f8611f51565b8152602001906001900390816113f05790505b50905060005b600a548110156114b8576040518060400160405280600a838154811061143357fe5b9060005260206000200160009054906101000a90046001600160a01b03166001600160a01b0316815260200160036000600a858154811061147057fe5b60009182526020808320909101546001600160a01b03168352820192909252604001902054905282518390839081106114a557fe5b6020908102919091010152600101611411565b50909192939495565b60088181548110610c6757fe5b806114d881610e5e565b15156001146114f95760405162461bcd60e51b815260040161054c90612607565b60125460ff1615156001141561153d573360009081526013602052604090205460ff16151560011461153d5760405162461bcd60e51b815260040161054c906124bf565b611545610d6e565b6001600160a01b0316336001600160a01b03161461159a5760008061156984610c81565b9092509050816115798287611cdb565b11156115975760405162461bcd60e51b815260040161054c9061257e565b50505b6040516323b872dd60e01b81526000906001600160a01b038416906323b872dd906115cd9033903090899060040161213c565b602060405180830381600087803b1580156115e757600080fd5b505af11580156115fb573d6000803e3d6000fd5b505050506040513d601f19601f8201168201806040525081019061161f9190611fc4565b90506001811515146116435760405162461bcd60e51b815260040161054c906126b2565b6001600160a01b0383166000908152600360205260409020546116669085611cdb565b6001600160a01b038416600090815260036020908152604080832093909355600481528282203383529052205461169d9085611cdb565b6001600160a01b0384166000908152600460209081526040808320338085529252909120919091556116ce90611d00565b61171557600880546001810182556000919091527ff3f7a9fe364faab93b216da50a3214154f22a0a2b415b23a84c8169e8b636ee30180546001600160a01b031916331790555b61171d610d6e565b6001600160a01b0316336001600160a01b031614610b2d576001600160a01b0383166000908152600560205260409020546117589085611cdb565b6001600160a01b03841660009081526005602052604090205550505050565b3390565b60008261178a575060006117b8565b8282028284828161179757fe5b04146117b55760405162461bcd60e51b815260040161054c906125c6565b90505b92915050565b60006117b583836040518060400160405280601a81526020017f536166654d6174683a206469766973696f6e206279207a65726f000000000000815250611d52565b60006117b583836040518060400160405280601e81526020017f536166654d6174683a207375627472616374696f6e206f766572666c6f770000815250611d89565b8061184c81610e5e565b151560011461186d5760405162461bcd60e51b815260040161054c90612607565b60125460ff161515600114156118b1573360009081526013602052604090205460ff1615156001146118b15760405162461bcd60e51b815260040161054c906124bf565b6001600160a01b03821660009081526004602090815260408083203384529091529020548311156118f45760405162461bcd60e51b815260040161054c90612534565b6001600160a01b0382166000908152600360205260409020546119179084611800565b6001600160a01b038316600090815260036020908152604080832093909355600481528282203383529052205461194e9084611800565b6001600160a01b038316600081815260046020818152604080842033808652925280842095909555935163a9059cbb60e01b8152919363a9059cbb9261199692899101612160565b602060405180830381600087803b1580156119b057600080fd5b505af11580156119c4573d6000803e3d6000fd5b505050506040513d601f19601f820116820180604052508101906119e89190611fc4565b9050600181151514610b2d5760405162461bcd60e51b815260040161054c9061226d565b60005b600a54811015610604576000600a8281548110611a2857fe5b60009182526020822001546001600160a01b03169150611a4782610c81565b915050600061271090506000611a78600f5461088988611a728660115461177b90919063ffffffff16565b9061177b565b90506000611a8d60648402610889868561177b565b6009549091506001600160a01b0386811691161415611ac0576000611ab182611db5565b9050611abd8282611800565b50505b6001600160a01b0385166000908152600460205260408120611b0791839190611ae7610d6e565b6001600160a01b0316815260208101919091526040016000205490611cdb565b6001600160a01b038616600090815260046020526040812090611b28610d6e565b6001600160a01b03908116825260208083019390935260409182016000908120949094558b845260078352818420981683529690529490942093909355505050600101611a0f565b60005b600a54811015610c03576000600a8281548110611b8c57fe5b60009182526020822001546001600160a01b03169150611bab82610c81565b6009549092508291506001600160a01b0384811691161415611be1576000611bd282611db5565b9050611bde8282611800565b50505b6001600160a01b038316600090815260036020526040902054611c049082611800565b6001600160a01b03841660009081526003602090815260408083209390935560049052908120611c5991839190611c39610d6e565b6001600160a01b0316815260208101919091526040016000205490611800565b6001600160a01b038416600090815260046020526040812090611c7a610d6e565b6001600160a01b0390811682526020808301939093526040918201600090812094909455861683526006909152902054611cb49082611cdb565b6001600160a01b039093166000908152600660205260409020929092555050600101611b73565b6000828201838110156117b55760405162461bcd60e51b815260040161054c90612399565b6000805b60085481101561050357826001600160a01b031660088281548110611d2557fe5b6000918252602090912001546001600160a01b03161415611d4a576001915050610509565b600101611d04565b60008183611d735760405162461bcd60e51b815260040161054c919061225a565b506000838581611d7f57fe5b0495945050505050565b60008184841115611dad5760405162461bcd60e51b815260040161054c919061225a565b505050900390565b60408051808201909152600d81526c6275726e2875696e743235362960981b602090910152600b546000907f42966c689b5afe9b9b3f8a7103b2a19980d59629bfd6a20a60972312ed41d83690611e15906103e89061088990869061177b565b6009546040519193506000916001600160a01b03909116908390611e3d908690602401612856565b60408051601f198184030181529181526020820180516001600160e01b03166001600160e01b0319909416939093179092529051611e7b919061210c565b6000604051808303816000865af19150503d8060008114611eb8576040519150601f19603f3d011682016040523d82523d6000602084013e611ebd565b606091505b5050905080611ede5760405162461bcd60e51b815260040161054c906124f0565b6009546001600160a01b0316600090815260036020526040902054611f039084611800565b6009546001600160a01b0316600090815260036020526040902055509092915050565b6040518060600160405280600081526020016000815260200160006002811115611f4c57fe5b905290565b604080518082019091526000808252602082015290565b80356001600160a01b03811681146117b857600080fd5b600060208284031215611f90578081fd5b6117b58383611f68565b60008060408385031215611fac578081fd5b611fb68484611f68565b946020939093013593505050565b600060208284031215611fd5578081fd5b815180151581146117b5578182fd5b600060208284031215611ff5578081fd5b5035919050565b60006020828403121561200d578081fd5b5051919050565b60008060408385031215612026578182fd5b823591506120378460208501611f68565b90509250929050565b60008060408385031215612052578182fd5b50508035926020909101359150565b60008060408385031215612073578182fd5b505080516020909101519092909150565b6000815180845260208085019450808401835b838110156120c757815180516001600160a01b031688528301518388015260409096019590820190600101612097565b509495945050505050565b600381106120dc57fe5b9052565b600081518084526120f88160208601602086016128a6565b601f01601f19169290920160200192915050565b6000825161211e8184602087016128a6565b9190910192915050565b6001600160a01b0391909116815260200190565b6001600160a01b039384168152919092166020820152604081019190915260600190565b6001600160a01b03929092168252602082015260400190565b600060018060a01b038089168352602060c08185015261219c60c085018a6120e0565b6040838a168187015260609350858203848701528189518084528484019150848b019350865b818110156121f85784518051845286810151878501528401516121e7858501826120d2565b5093850193918601916001016121c2565b505088608088015286810360a08801526122128189612084565b9d9c50505050505050505050505050565b901515815260200190565b602081016006831061223c57fe5b91905290565b604081016006841061225057fe5b9281526020015290565b6000602082526117b560208301846120e0565b6020808252818101527f5374616b6520776974686472617720776173206e6f742073756363657366756c604082015260600190565b602080825260189082015277155cd95c88185b1c9958591e481dda1a5d195b1a5cdd195960421b604082015260600190565b60208082526059908201527f43616e206f6e6c79207769746864726177207374616b6520616674657220746860408201527f652066696e616c20706572696f642069732066696e6973686564206f72206966606082015278081d1a194818dbdb9d1c9858dd081a5cc8189c995858da1959603a1b608082015260a00190565b60208082526026908201527f4f776e61626c653a206e6577206f776e657220697320746865207a65726f206160408201526564647265737360d01b606082015260800190565b6020808252601b908201527f536166654d6174683a206164646974696f6e206f766572666c6f770000000000604082015260600190565b6020808252602d908201527f546f6b656e206e6f7420616c6c6f7765642062792074686520534c415265676960408201526c1cdd1c9e4818dbdb9d1c9858dd609a1b606082015260800190565b60208082526025908201527f4f6e6c79204d657373656e6765722063616e2063616c6c20746869732066756e60408201526431ba34b7b760d91b606082015260800190565b6020808252603a908201527f43616e206f6e6c7920636c61696d206120636f6d70656e736174696f6e20696660408201527f20706f736974696f6e20697320626967676572207468616e2030000000000000606082015260800190565b602080825260179082015276155cd95c881a5cc81b9bdd081dda1a5d195b1a5cdd1959604a1b604082015260600190565b60208082526024908201527f44534c41206275726e2070726f6365737320776173206e6f74207375636365736040820152631cd99d5b60e21b606082015260800190565b6020808252602a908201527f53686f756c64206e6f74207769746864726177206d6f7265207374616b6520746040820152691a185b881cdd185ad95960b21b606082015260800190565b60208082526028908201527f43616e6e6f74207374616b65206d6f7265207468616e20534c412070726f76696040820152676465727374616b6560c01b606082015260800190565b60208082526021908201527f536166654d6174683a206d756c7469706c69636174696f6e206f766572666c6f6040820152607760f81b606082015260800190565b6020808252601490820152731d1bdad95b881a5cc81b9bdd08185b1b1bddd95960621b604082015260600190565b6020808252818101527f4f776e61626c653a2063616c6c6572206973206e6f7420746865206f776e6572604082015260600190565b60208082526028908201527f43616e206f6e6c79207374616b65206f6e206e6f7420627265616368656420636040820152676f6e74726163747360c01b606082015260800190565b60208082526021908201527f5374616b696e672070726f6365737320776173206e6f742073756363657366756040820152601b60fa1b606082015260800190565b602080825260139082015272151bdad95b88185b1c9958591e481859191959606a1b604082015260600190565b6020808252601290820152710616d6f756e742063616e6e6f7420626520360741b604082015260600190565b60208082526042908201527f5472616e736665722070726f636573732066726f6d20534c4120636f6e74726160408201527f637420746f206d73672e73656e64657220776173206e6f7420737563636573666060820152611d5b60f21b608082015260a00190565b6020808252603f908201527f53686f756c64207374616b65206174206c65617374206d696e696d756d44534c60408201527f415374616b6564546965723120746f206164642061206e657720746f6b656e00606082015260800190565b60208082526025908201527f53686f756c64206e6f742062652063616c6c65642062792074686520534c412060408201526437bbb732b960d91b606082015260800190565b90815260200190565b918252602082015260400190565b838152602081018390526060810161288860408301846120d2565b949350505050565b9283526020830191909152604082015260600190565b60005b838110156128c15781810151838201526020016128a9565b83811115610b2d575050600091015256fea2646970667358221220ab24353a37d1da09f790c04daa6a25d74985bb6a7cd7563c7ecbfd47fb00d13364736f6c634300060c00338be0079c531659141344cd1fd0a4f28419497f9722a3daafe3b4186f6b6457e0a2646970667358221220f2d2e305074615329c58ea02a958981cb601cbd88347e1db581d8c08732b794564736f6c634300060c0033",
  "immutableReferences": {},
  "source": "// SPDX-License-Identifier: MIT\npragma solidity ^0.6.0;\npragma experimental ABIEncoderV2;\n\nimport \"@openzeppelin/contracts/math/SafeMath.sol\";\nimport \"@openzeppelin/contracts/token/ERC20/IERC20.sol\";\nimport \"@openzeppelin/contracts/access/Ownable.sol\";\nimport \"./SLA.sol\";\nimport \"./SLO.sol\";\nimport \"./SLORegistry.sol\";\nimport \"./PeriodRegistry.sol\";\nimport \"./MessengerRegistry.sol\";\nimport \"./StakeRegistry.sol\";\nimport \"./messenger/IMessenger.sol\";\n\n/**\n * @title SLARegistry\n * @dev SLARegistry is a contract for handling creation of service level\n * agreements and keeping track of the created agreements\n */\ncontract SLARegistry is Ownable {\n    using SafeMath for uint256;\n\n    /// @dev SLO registry\n    SLORegistry public sloRegistry;\n    /// @dev Periods registry\n    PeriodRegistry public periodRegistry;\n    /// @dev Messengers registry\n    MessengerRegistry public messengerRegistry;\n    /// @dev Stake registry\n    StakeRegistry public stakeRegistry;\n    /// @dev stores the addresses of created SLAs\n    SLA[] public SLAs;\n    /// @dev (slaAddress=>bool) to check if SLA is registered\n    mapping(address => bool) public registeredSLAs;\n    /// @dev stores the indexes of service level agreements owned by an user\n    mapping(address => uint256[]) private userToSLAIndexes;\n    /// @dev mapping userAddress => SLA[]\n    mapping(address => SLA[]) public userStakedSlas;\n\n    /**\n     * @dev event for service level agreement creation logging\n     * @param sla 1. The address of the created service level agreement contract\n     * @param owner 2. The address of the owner of the service level agreement\n     */\n    event SLACreated(SLA indexed sla, address indexed owner);\n\n    /**\n     * @dev constructor\n     * @param _sloRegistry 1. SLO Registry\n     * @param _periodRegistry 2. Periods registry\n     * @param _messengerRegistry 3. Messenger registry\n     * @param _stakeRegistry 4. Stake registry\n     */\n    constructor(\n        SLORegistry _sloRegistry,\n        PeriodRegistry _periodRegistry,\n        MessengerRegistry _messengerRegistry,\n        StakeRegistry _stakeRegistry\n    ) public {\n        sloRegistry = _sloRegistry;\n        periodRegistry = _periodRegistry;\n        stakeRegistry = _stakeRegistry;\n        messengerRegistry = _messengerRegistry;\n        messengerRegistry.setSLARegistry();\n    }\n\n    /**\n     * @dev public function for creating canonical service level agreements\n     * @param _SLO 1. SLO\n     * @param _ipfsHash 2. string with the ipfs hash that contains extra information about the service level agreement\n     * @param _periodType 3. period type\n     * @param _periodIds 4. array of allowed period ids\n     * @param _messengerAddress 5. address of the messenger for the corresponding SLA\n     * @param _whitelisted 6. bool to declare whitelisted SLA\n     */\n    function createSLA(\n        SLO _SLO,\n        string memory _ipfsHash,\n        PeriodRegistry.PeriodType _periodType,\n        uint256[] calldata _periodIds,\n        address _messengerAddress,\n        bool _whitelisted\n    ) public {\n        (, bool initialized) = periodRegistry.periodDefinitions(_periodType);\n        require(initialized == true, \"Period type is not initialized yet\");\n        require(\n            sloRegistry.registeredSLOs(address(_SLO)) == true,\n            \"SLO not registered on SLORegistry\"\n        );\n        require(_periodIds.length > 0, \"Periods information is empty\");\n        // check if _periodIds are valid and sorted in ascendant order\n        for (uint256 index = 0; index < _periodIds.length; index++) {\n            bool validPeriod =\n                periodRegistry.isValidPeriod(_periodType, _periodIds[index]);\n            require(validPeriod, \"Period id not valid\");\n            if (index < _periodIds.length - 1) {\n                require(\n                    _periodIds[index] < _periodIds[index + 1],\n                    \"Period ids should be sorted \"\n                );\n            }\n        }\n        bool registeredMessenger =\n            messengerRegistry.registeredMessengers(_messengerAddress);\n        require(\n            registeredMessenger == true,\n            \"messenger address is not registered\"\n        );\n\n        SLA sla =\n            new SLA(\n                msg.sender,\n                _SLO,\n                _ipfsHash,\n                _messengerAddress,\n                _periodIds,\n                _periodType,\n                address(stakeRegistry),\n                address(periodRegistry),\n                _whitelisted\n            );\n\n        SLAs.push(sla);\n        registeredSLAs[address(sla)] = true;\n        uint256 index = SLAs.length.sub(1);\n        userToSLAIndexes[msg.sender].push(index);\n        emit SLACreated(sla, msg.sender);\n    }\n\n    /**\n     * @dev Gets SLI information for the specified SLA and SLO\n     * @param _periodId 1. id of the period\n     * @param _sla 2. SLA Address\n     */\n    function requestSLI(uint256 _periodId, SLA _sla) public {\n        bool breachedContract = _sla.breachedContract();\n        require(\n            breachedContract == false,\n            \"Should only be called for not breached contracts\"\n        );\n        bool slaAllowedPeriodId = _sla.isAllowedPeriod(_periodId);\n        require(\n            slaAllowedPeriodId == true,\n            \"Period ID not registered in the SLA contract\"\n        );\n        PeriodRegistry.PeriodType slaPeriodType = _sla.periodType();\n        bool periodFinished =\n            periodRegistry.periodIsFinished(slaPeriodType, _periodId);\n        require(\n            periodFinished == true,\n            \"SLA contract period has not finished yet\"\n        );\n        (, , SLA.Status status) = _sla.slaPeriods(_periodId);\n        require(\n            status == SLA.Status.NotVerified,\n            \"SLA contract was already verified for the period\"\n        );\n        address slaMessenger = _sla.messengerAddress();\n        IMessenger(slaMessenger).requestSLI(_periodId, address(_sla));\n    }\n\n    /**\n     * @dev function to declare this SLARegistry contract as SLARegistry of _messengerAddress\n     * @param _messengerAddress 1. address of the messenger\n     */\n\n    function setMessengerSLARegistryAddress(address _messengerAddress) public {\n        IMessenger(_messengerAddress).setSLARegistry();\n        messengerRegistry.registerMessenger(_messengerAddress, msg.sender);\n    }\n\n    /**\n     * @dev public view function that returns the service level agreements that\n     * the given user is the owner of\n     * @param _user Address of the user for which to return the service level\n     * agreements\n     * @return array of SLAs\n     */\n    function userSLAs(address _user) public view returns (SLA[] memory) {\n        uint256 count = userSLACount(_user);\n        SLA[] memory SLAList = new SLA[](count);\n        uint256[] memory userSLAIndexes = userToSLAIndexes[_user];\n\n        for (uint256 i = 0; i < count; i++) {\n            SLAList[i] = (SLAs[userSLAIndexes[i]]);\n        }\n\n        return (SLAList);\n    }\n\n    /**\n     * @dev public view function that returns the amount of service level\n     * agreements the given user is the owner of\n     * @param _user 1. address of the user for which to return the amount of\n     * service level agreements\n     * @return uint256 corresponding to the amount of user's SLAs\n     */\n    function userSLACount(address _user) public view returns (uint256) {\n        return userToSLAIndexes[_user].length;\n    }\n\n    /**\n     * @dev public view function that returns all the service level agreements\n     * @return SLA[] array of SLAs\n     */\n    function allSLAs() public view returns (SLA[] memory) {\n        return (SLAs);\n    }\n\n    /**\n     * @dev public view function that returns the total amount of service\n     * level agreements\n     * @return uint256, the length of SLA array\n     */\n    function SLACount() public view returns (uint256) {\n        return SLAs.length;\n    }\n\n    /**\n     *@dev public view function that returns true if the _owner has staked on _sla\n     *@param _user 1. address to check\n     *@param _sla 2. sla to check\n     *@return bool, true if _sla was staked by _user\n     */\n    function slaWasStakedByUser(address _user, address _sla)\n        public\n        view\n        returns (bool)\n    {\n        for (uint256 index = 0; index < userStakedSlas[_user].length; index++) {\n            if (address(userStakedSlas[_user][index]) == _sla) {\n                return true;\n            }\n        }\n        return false;\n    }\n\n    /**\n     *@dev register the sending SLA contract as staked by _owner\n     *@param _owner 1. SLA contract to stake\n     */\n    function registerStakedSla(address _owner) public returns (bool) {\n        require(registeredSLAs[msg.sender] == true, \"Only for registered SLAs\");\n        if (slaWasStakedByUser(_owner, msg.sender) == false) {\n            userStakedSlas[_owner].push(SLA(msg.sender));\n        }\n        return true;\n    }\n}\n",
  "sourcePath": "/Users/matiasbn/Desktop/stacktical/stacktical-dsla-contracts/contracts/SLARegistry.sol",
  "compiler": {
    "name": "solc",
    "version": "0.6.12+commit.27d51765.Emscripten.clang"
  },
  "schemaVersion": "3.3.3",
  "updatedAt": "2021-02-14T22:24:49.954Z",
  "devdoc": {
    "details": "SLARegistry is a contract for handling creation of service level agreements and keeping track of the created agreements",
    "events": {
      "SLACreated(address,address)": {
        "details": "event for service level agreement creation logging",
        "params": {
          "owner": "2. The address of the owner of the service level agreement",
          "sla": "1. The address of the created service level agreement contract"
        }
      }
    },
    "kind": "dev",
    "methods": {
      "SLACount()": {
        "details": "public view function that returns the total amount of service level agreements",
        "returns": {
          "_0": "uint256, the length of SLA array"
        }
      },
      "allSLAs()": {
        "details": "public view function that returns all the service level agreements",
        "returns": {
          "_0": "SLA[] array of SLAs"
        }
      },
      "constructor": {
        "details": "constructor",
        "params": {
          "_messengerRegistry": "3. Messenger registry",
          "_periodRegistry": "2. Periods registry",
          "_sloRegistry": "1. SLO Registry",
          "_stakeRegistry": "4. Stake registry"
        }
      },
      "createSLA(address,string,uint8,uint256[],address,bool)": {
        "details": "public function for creating canonical service level agreements",
        "params": {
          "_SLO": "1. SLO",
          "_ipfsHash": "2. string with the ipfs hash that contains extra information about the service level agreement",
          "_messengerAddress": "5. address of the messenger for the corresponding SLA",
          "_periodIds": "4. array of allowed period ids",
          "_periodType": "3. period type",
          "_whitelisted": "6. bool to declare whitelisted SLA"
        }
      },
      "owner()": {
        "details": "Returns the address of the current owner."
      },
      "registerStakedSla(address)": {
        "details": "register the sending SLA contract as staked by _owner",
        "params": {
          "_owner": "1. SLA contract to stake"
        }
      },
      "renounceOwnership()": {
        "details": "Leaves the contract without owner. It will not be possible to call `onlyOwner` functions anymore. Can only be called by the current owner. NOTE: Renouncing ownership will leave the contract without an owner, thereby removing any functionality that is only available to the owner."
      },
      "requestSLI(uint256,address)": {
        "details": "Gets SLI information for the specified SLA and SLO",
        "params": {
          "_periodId": "1. id of the period",
          "_sla": "2. SLA Address"
        }
      },
      "setMessengerSLARegistryAddress(address)": {
        "details": "function to declare this SLARegistry contract as SLARegistry of _messengerAddress",
        "params": {
          "_messengerAddress": "1. address of the messenger"
        }
      },
      "slaWasStakedByUser(address,address)": {
        "details": "public view function that returns true if the _owner has staked on _sla",
        "params": {
          "_sla": "2. sla to check",
          "_user": "1. address to check"
        },
        "returns": {
          "_0": "bool, true if _sla was staked by _user"
        }
      },
      "transferOwnership(address)": {
        "details": "Transfers ownership of the contract to a new account (`newOwner`). Can only be called by the current owner."
      },
      "userSLACount(address)": {
        "details": "public view function that returns the amount of service level agreements the given user is the owner of",
        "params": {
          "_user": "1. address of the user for which to return the amount of service level agreements"
        },
        "returns": {
          "_0": "uint256 corresponding to the amount of user's SLAs"
        }
      },
      "userSLAs(address)": {
        "details": "public view function that returns the service level agreements that the given user is the owner of",
        "params": {
          "_user": "Address of the user for which to return the service level agreements"
        },
        "returns": {
          "_0": "array of SLAs"
        }
      }
    },
    "stateVariables": {
      "SLAs": {
        "details": "stores the addresses of created SLAs"
      },
      "messengerRegistry": {
        "details": "Messengers registry"
      },
      "periodRegistry": {
        "details": "Periods registry"
      },
      "registeredSLAs": {
        "details": "(slaAddress=>bool) to check if SLA is registered"
      },
      "sloRegistry": {
        "details": "SLO registry"
      },
      "stakeRegistry": {
        "details": "Stake registry"
      },
      "userStakedSlas": {
        "details": "mapping userAddress => SLA[]"
      },
      "userToSLAIndexes": {
        "details": "stores the indexes of service level agreements owned by an user"
      }
    },
    "title": "SLARegistry",
    "version": 1
  },
  "userdoc": {
    "kind": "user",
    "methods": {},
    "version": 1
  }
}