{
  "contractName": "SLARegistry",
  "abi": [
    {
      "inputs": [
        {
          "internalType": "contract Messenger",
          "name": "_messengerAddress",
          "type": "address"
        },
        {
          "internalType": "uint256[]",
          "name": "_sla_week_period_starts",
          "type": "uint256[]"
        },
        {
          "internalType": "uint256[]",
          "name": "_sla_week_period_ends",
          "type": "uint256[]"
        },
        {
          "internalType": "bytes32[]",
          "name": "_networkNames",
          "type": "bytes32[]"
        },
        {
          "internalType": "contract IERC20",
          "name": "_dslaToken",
          "type": "address"
        },
        {
          "internalType": "contract SLORegistry",
          "name": "_sloRegistry",
          "type": "address"
        }
      ],
      "stateMutability": "nonpayable",
      "type": "constructor"
    },
    {
      "anonymous": false,
      "inputs": [
        {
          "indexed": false,
          "internalType": "bytes32",
          "name": "_ipfsHash",
          "type": "bytes32"
        },
        {
          "indexed": false,
          "internalType": "bytes32",
          "name": "_network",
          "type": "bytes32"
        },
        {
          "indexed": false,
          "internalType": "uint256",
          "name": "_periodId",
          "type": "uint256"
        }
      ],
      "name": "AnalyticsReceived",
      "type": "event"
    },
    {
      "anonymous": false,
      "inputs": [
        {
          "indexed": true,
          "internalType": "contract SLA",
          "name": "sla",
          "type": "address"
        },
        {
          "indexed": true,
          "internalType": "address",
          "name": "owner",
          "type": "address"
        }
      ],
      "name": "SLACreated",
      "type": "event"
    },
    {
      "inputs": [],
      "name": "DSLAToken",
      "outputs": [
        {
          "internalType": "contract IERC20",
          "name": "",
          "type": "address"
        }
      ],
      "stateMutability": "view",
      "type": "function"
    },
    {
      "inputs": [
        {
          "internalType": "uint256",
          "name": "",
          "type": "uint256"
        }
      ],
      "name": "SLAs",
      "outputs": [
        {
          "internalType": "contract SLA",
          "name": "",
          "type": "address"
        }
      ],
      "stateMutability": "view",
      "type": "function"
    },
    {
      "inputs": [
        {
          "internalType": "uint256",
          "name": "",
          "type": "uint256"
        }
      ],
      "name": "canonicalPeriods",
      "outputs": [
        {
          "internalType": "uint256",
          "name": "start",
          "type": "uint256"
        },
        {
          "internalType": "uint256",
          "name": "end",
          "type": "uint256"
        }
      ],
      "stateMutability": "view",
      "type": "function"
    },
    {
      "inputs": [
        {
          "internalType": "bytes32",
          "name": "",
          "type": "bytes32"
        },
        {
          "internalType": "uint256",
          "name": "",
          "type": "uint256"
        }
      ],
      "name": "canonicalPeriodsAnalytics",
      "outputs": [
        {
          "internalType": "bytes32",
          "name": "",
          "type": "bytes32"
        }
      ],
      "stateMutability": "view",
      "type": "function"
    },
    {
      "inputs": [],
      "name": "canonicalPeriodsLastId",
      "outputs": [
        {
          "internalType": "uint256",
          "name": "",
          "type": "uint256"
        }
      ],
      "stateMutability": "view",
      "type": "function"
    },
    {
      "inputs": [],
      "name": "messenger",
      "outputs": [
        {
          "internalType": "contract Messenger",
          "name": "",
          "type": "address"
        }
      ],
      "stateMutability": "view",
      "type": "function"
    },
    {
      "inputs": [
        {
          "internalType": "uint256",
          "name": "",
          "type": "uint256"
        }
      ],
      "name": "networkNames",
      "outputs": [
        {
          "internalType": "bytes32",
          "name": "",
          "type": "bytes32"
        }
      ],
      "stateMutability": "view",
      "type": "function"
    },
    {
      "inputs": [
        {
          "internalType": "address",
          "name": "",
          "type": "address"
        }
      ],
      "name": "registeredSLAs",
      "outputs": [
        {
          "internalType": "bool",
          "name": "",
          "type": "bool"
        }
      ],
      "stateMutability": "view",
      "type": "function"
    },
    {
      "inputs": [],
      "name": "sloRegistry",
      "outputs": [
        {
          "internalType": "contract SLORegistry",
          "name": "",
          "type": "address"
        }
      ],
      "stateMutability": "view",
      "type": "function"
    },
    {
      "inputs": [
        {
          "internalType": "address",
          "name": "",
          "type": "address"
        },
        {
          "internalType": "uint256",
          "name": "",
          "type": "uint256"
        }
      ],
      "name": "userStakedSlas",
      "outputs": [
        {
          "internalType": "contract SLA",
          "name": "",
          "type": "address"
        }
      ],
      "stateMutability": "view",
      "type": "function"
    },
    {
      "inputs": [
        {
          "internalType": "bytes32",
          "name": "",
          "type": "bytes32"
        }
      ],
      "name": "validNetworks",
      "outputs": [
        {
          "internalType": "bool",
          "name": "",
          "type": "bool"
        }
      ],
      "stateMutability": "view",
      "type": "function"
    },
    {
      "inputs": [
        {
          "internalType": "contract SLO",
          "name": "_SLO",
          "type": "address"
        },
        {
          "internalType": "string",
          "name": "_ipfsHash",
          "type": "string"
        },
        {
          "internalType": "uint256[]",
          "name": "_canonicalPeriodIds",
          "type": "uint256[]"
        }
      ],
      "name": "createSLA",
      "outputs": [],
      "stateMutability": "nonpayable",
      "type": "function"
    },
    {
      "inputs": [
        {
          "internalType": "uint256",
          "name": "_periodId",
          "type": "uint256"
        },
        {
          "internalType": "contract SLA",
          "name": "_sla",
          "type": "address"
        }
      ],
      "name": "requestSLI",
      "outputs": [],
      "stateMutability": "nonpayable",
      "type": "function"
    },
    {
      "inputs": [
        {
          "internalType": "uint256",
          "name": "_canonicalPeriodId",
          "type": "uint256"
        },
        {
          "internalType": "bytes32",
          "name": "_network",
          "type": "bytes32"
        }
      ],
      "name": "requestAnalytics",
      "outputs": [],
      "stateMutability": "nonpayable",
      "type": "function"
    },
    {
      "inputs": [
        {
          "internalType": "bytes32",
          "name": "_ipfsHash",
          "type": "bytes32"
        },
        {
          "internalType": "bytes32",
          "name": "_network",
          "type": "bytes32"
        },
        {
          "internalType": "uint256",
          "name": "_periodId",
          "type": "uint256"
        }
      ],
      "name": "publishAnalyticsHash",
      "outputs": [],
      "stateMutability": "nonpayable",
      "type": "function"
    },
    {
      "inputs": [
        {
          "internalType": "address",
          "name": "_user",
          "type": "address"
        }
      ],
      "name": "userSLAs",
      "outputs": [
        {
          "internalType": "contract SLA[]",
          "name": "",
          "type": "address[]"
        }
      ],
      "stateMutability": "view",
      "type": "function"
    },
    {
      "inputs": [
        {
          "internalType": "address",
          "name": "_user",
          "type": "address"
        }
      ],
      "name": "userSLACount",
      "outputs": [
        {
          "internalType": "uint256",
          "name": "",
          "type": "uint256"
        }
      ],
      "stateMutability": "view",
      "type": "function"
    },
    {
      "inputs": [],
      "name": "allSLAs",
      "outputs": [
        {
          "internalType": "contract SLA[]",
          "name": "",
          "type": "address[]"
        }
      ],
      "stateMutability": "view",
      "type": "function"
    },
    {
      "inputs": [],
      "name": "SLACount",
      "outputs": [
        {
          "internalType": "uint256",
          "name": "",
          "type": "uint256"
        }
      ],
      "stateMutability": "view",
      "type": "function"
    },
    {
      "inputs": [
        {
          "internalType": "address",
          "name": "_user",
          "type": "address"
        },
        {
          "internalType": "address",
          "name": "_sla",
          "type": "address"
        }
      ],
      "name": "slaWasStakedByUser",
      "outputs": [
        {
          "internalType": "bool",
          "name": "",
          "type": "bool"
        }
      ],
      "stateMutability": "view",
      "type": "function"
    },
    {
      "inputs": [
        {
          "internalType": "address",
          "name": "_owner",
          "type": "address"
        }
      ],
      "name": "registerStakedSla",
      "outputs": [
        {
          "internalType": "bool",
          "name": "",
          "type": "bool"
        }
      ],
      "stateMutability": "nonpayable",
      "type": "function"
    },
    {
      "inputs": [
        {
          "internalType": "address",
          "name": "_slaOwner",
          "type": "address"
        }
      ],
      "name": "getActivePool",
      "outputs": [
        {
          "components": [
            {
              "internalType": "address",
              "name": "SLAaddress",
              "type": "address"
            },
            {
              "internalType": "uint256",
              "name": "stake",
              "type": "uint256"
            },
            {
              "internalType": "string",
              "name": "assetName",
              "type": "string"
            },
            {
              "internalType": "address",
              "name": "assetAddress",
              "type": "address"
            }
          ],
          "internalType": "struct SLARegistry.ActivePool[]",
          "name": "",
          "type": "tuple[]"
        }
      ],
      "stateMutability": "view",
      "type": "function"
    }
  ],
  "bytecode": "0x60806040523480156200001157600080fd5b506040516200402a3803806200402a8339810160408190526200003491620002c2565b8351855114620000615760405162461bcd60e51b81526004016200005890620003e8565b60405180910390fd5b60005b85518110156200011a578481815181106200007b57fe5b60200260200101518682815181106200009057fe5b602002602001015110620000b85760405162461bcd60e51b8152600401620000589062000434565b6040518060400160405280878381518110620000d057fe5b60200260200101518152602001868381518110620000ea57fe5b60209081029190910181015190915260008381526002825260409020825181559101516001918201550162000064565b50825162000130906008906020860190620001d2565b50845160001901600355600080546001600160a01b038085166001600160a01b031992831617835560018054858316908416179055600580548a8316931692909217918290556040805163f388158960e01b81529051929091169263f38815899260048084019382900301818387803b158015620001ad57600080fd5b505af1158015620001c2573d6000803e3d6000fd5b50505050505050505050620004e2565b82805482825590600052602060002090810192821562000210579160200282015b8281111562000210578251825591602001919060010190620001f3565b506200021e92915062000222565b5090565b5b808211156200021e576000815560010162000223565b600082601f8301126200024a578081fd5b8151620002616200025b82620004a9565b62000482565b8181529150602080830190848101818402860182018710156200028357600080fd5b60005b84811015620002a45781518452928201929082019060010162000286565b505050505092915050565b8051620002bc81620004c9565b92915050565b60008060008060008060c08789031215620002db578182fd5b8651620002e881620004c9565b602088810151919750906001600160401b038082111562000307578485fd5b620003158b838c0162000239565b975060408a01519150808211156200032b578485fd5b620003398b838c0162000239565b965060608a01519150808211156200034f578485fd5b508801601f81018a1362000361578384fd5b8051620003726200025b82620004a9565b81815283810190838501858402850186018e10156200038f578788fd5b8794505b83851015620003b357805183526001949094019391850191850162000393565b508097505050505050620003cb8860808901620002af565b9150620003dc8860a08901620002af565b90509295509295509295565b6020808252602c908201527f506572696f64732073746172747320616e6420656e6473206c656e677468732060408201526b0e6d0deead8c840dac2e8c6d60a31b606082015260800190565b6020808252602e908201527f506572696f6420656e642073686f756c6420626520677265617465722074686160408201526d1b881c195c9a5bd9081cdd185c9d60921b606082015260800190565b6040518181016001600160401b0381118282101715620004a157600080fd5b604052919050565b60006001600160401b03821115620004bf578081fd5b5060209081020190565b6001600160a01b0381168114620004df57600080fd5b50565b613b3880620004f26000396000f3fe60806040523480156200001157600080fd5b5060043610620001605760003560e01c806396bddc1011620000c9578063d19944081162000087578063d199440814620002db578063dfce8ae014620002f2578063e9b1e98c1462000319578063e9dcf6c91462000330578063f2c0dfd4146200033a578063f62d1b4614620003605762000160565b806396bddc101462000275578063a0a2f054146200027f578063a3f5cadf1462000296578063b290508e14620002ad578063b45756d514620002c45762000160565b806350c5abfe116200012357806350c5abfe14620001f6578063516c2857146200020d57806351e99ec614620002335780635a7d1e5d146200024a578063610663b41462000254578063816ff986146200026b5762000160565b80630df0bfc614620001655780631e0ab5141462000194578063227a38a214620001ad578063356f2bbf14620001c65780633cb747bf14620001dd575b600080fd5b6200017c620001763660046200127f565b62000377565b6040516200018b9190620016e8565b60405180910390f35b620001ab620001a536600462001381565b62000402565b005b620001b762000530565b6040516200018b9190620016f3565b620001ab620001d7366004620013a3565b62000536565b620001e762000770565b6040516200018b91906200155d565b620001e7620002073660046200133c565b6200077f565b620002246200021e36600462001260565b620007a7565b6040516200018b9190620015fc565b6200017c6200024436600462001260565b620008f1565b620001e762000906565b6200017c620002653660046200133c565b62000915565b620001b76200092a565b6200022462000930565b620001b7620002903660046200133c565b62000994565b620001e7620002a7366004620012bc565b620009b3565b6200017c620002be36600462001260565b620009e9565b620001b7620002d536600462001381565b62000a72565b620001ab620002ec36600462001481565b62000a8f565b62000309620003033660046200133c565b62000c15565b6040516200018b92919062001a08565b620001b76200032a36600462001260565b62000c2e565b620001e762000c49565b620003516200034b36600462001260565b62000c58565b6040516200018b91906200164b565b620001ab6200037136600462001355565b6200103d565b6000805b6001600160a01b0384166000908152600b6020526040902054811015620003f6576001600160a01b038481166000908152600b6020526040902080549185169183908110620003c657fe5b6000918252602090912001546001600160a01b03161415620003ed576001915050620003fc565b6001016200037b565b50600090505b92915050565b6200040d81620010c3565b620004355760405162461bcd60e51b81526004016200042c90620019d1565b60405180910390fd5b6200043f620011b2565b50600082815260026020908152604091829020825180840190935280548352600101549082018190524211620004895760405162461bcd60e51b81526004016200042c9062001958565b600082815260046020908152604080832086845290915290205415620004c35760405162461bcd60e51b81526004016200042c906200198f565b600554604051630782ad4560e21b81526001600160a01b0390911690631e0ab51490620004f7908690869060040162001a08565b600060405180830381600087803b1580156200051257600080fd5b505af115801562000527573d6000803e3d6000fd5b50505050505050565b60035481565b600154604051632af1c01d60e01b81526001600160a01b0390911690632af1c01d90620005689087906004016200155d565b60206040518083038186803b1580156200058157600080fd5b505afa15801562000596573d6000803e3d6000fd5b505050506040513d601f19601f82011682018060405250810190620005bc91906200131a565b1515600114620005e05760405162461bcd60e51b81526004016200042c9062001727565b80620006005760405162461bcd60e51b81526004016200042c90620018b5565b6001600354038282600185859050038181106200061957fe5b905060200201351115620006415760405162461bcd60e51b81526004016200042c90620018ec565b600033858560008054906101000a90046001600160a01b031686866040516200066a90620011cc565b6200067b9695949392919062001571565b604051809103906000f08015801562000698573d6000803e3d6000fd5b5060068054600180820183557ff652222313e28459528d920b65115c16c04f3efc82aaedc97be59f3f377c0d3f90910180546001600160a01b0319166001600160a01b0385169081179091556000908152600760205260408120805460ff191683179055915492935090916200070e9162001110565b336000818152600a6020908152604080832080546001810182559084529183209091018490555192935090916001600160a01b038516917fb52f284a6c14f1a66ab5513b5b539066933e58e69e6432666f0e3c8c8a7d750391a3505050505050565b6005546001600160a01b031681565b600681815481106200078d57fe5b6000918252602090912001546001600160a01b0316905081565b60606000620007b68362000c2e565b905060608167ffffffffffffffff81118015620007d257600080fd5b50604051908082528060200260200182016040528015620007fd578160200160208202803683370190505b506001600160a01b0385166000908152600a6020908152604091829020805483518184028101840190945280845293945060609390918301828280156200086457602002820191906000526020600020905b8154815260200190600101908083116200084f575b5050505050905060005b83811015620008e55760068282815181106200088657fe5b6020026020010151815481106200089957fe5b9060005260206000200160009054906101000a90046001600160a01b0316838281518110620008c457fe5b6001600160a01b03909216602092830291909101909101526001016200086e565b5090925050505b919050565b60076020526000908152604090205460ff1681565b6001546001600160a01b031681565b60096020526000908152604090205460ff1681565b60065490565b606060068054806020026020016040519081016040528092919081815260200182805480156200098a57602002820191906000526020600020905b81546001600160a01b031681526001909101906020018083116200096b575b5050505050905090565b60088181548110620009a257fe5b600091825260209091200154905081565b600b6020528160005260406000208181548110620009cd57fe5b6000918252602090912001546001600160a01b03169150829050565b3360009081526007602052604081205460ff16151560011462000a205760405162461bcd60e51b81526004016200042c9062001768565b62000a2c823362000377565b62000a6a576001600160a01b0382166000908152600b602090815260408220805460018101825590835291200180546001600160a01b031916331790555b506001919050565b600460209081526000928352604080842090915290825290205481565b62000a99620011b2565b5060008281526002602090815260409182902082518084019093528054835260010154908201819052421162000ae35760405162461bcd60e51b81526004016200042c906200186d565b604051639ab4438f60e01b81526000906001600160a01b03841690639ab4438f9062000b14908790600401620016f3565b60c06040518083038186803b15801562000b2d57600080fd5b505afa15801562000b42573d6000803e3d6000fd5b505050506040513d601f19601f8201168201806040525081019062000b689190620014a8565b509194506000935062000b7a92505050565b81600281111562000b8757fe5b1462000ba75760405162461bcd60e51b81526004016200042c906200181d565b600554604051631a33288160e31b81526001600160a01b039091169063d19944089062000bdb908790879060040162001a16565b600060405180830381600087803b15801562000bf657600080fd5b505af115801562000c0b573d6000803e3d6000fd5b5050505050505050565b6002602052600090815260409020805460019091015482565b6001600160a01b03166000908152600a602052604090205490565b6000546001600160a01b031681565b60606000805b6001600160a01b0384166000908152600b602052604090205481101562000d51576001600160a01b0384166000908152600b6020526040812080548390811062000ca457fe5b9060005260206000200160009054906101000a90046001600160a01b0316905062000d45816001600160a01b031663b7bc347e6040518163ffffffff1660e01b815260040160206040518083038186803b15801562000d0257600080fd5b505afa15801562000d17573d6000803e3d6000fd5b505050506040513d601f19601f8201168201806040525081019062000d3d919062001468565b84906200115b565b92505060010162000c5e565b5060608167ffffffffffffffff8111801562000d6c57600080fd5b5060405190808252806020026020018201604052801562000daa57816020015b62000d96620011da565b81526020019060019003908162000d8c5790505b5090506000805b6001600160a01b0386166000908152600b6020526040902054811015620008e5576001600160a01b0386166000908152600b6020526040812080548390811062000df757fe5b60009182526020822001546001600160a01b031691505b816001600160a01b031663b7bc347e6040518163ffffffff1660e01b815260040160206040518083038186803b15801562000e4857600080fd5b505afa15801562000e5d573d6000803e3d6000fd5b505050506040513d601f19601f8201168201806040525081019062000e83919062001468565b8110156200103257600080836001600160a01b03166357ac94f08b856040518363ffffffff1660e01b815260040162000ebe929190620015e3565b604080518083038186803b15801562000ed657600080fd5b505afa15801562000eeb573d6000803e3d6000fd5b505050506040513d601f19601f8201168201806040525081019062000f119190620012ea565b60408051808201825260068152656e616d65282960d01b60209182015281516004815260248101835290810180516001600160e01b03166306fdde0360e01b17905290519294509092506060916001600160a01b0385169162000f74916200153f565b600060405180830381855afa9150503d806000811462000fb1576040519150601f19603f3d011682016040523d82523d6000602084013e62000fb6565b606091505b5091505062000fc4620011da565b6040518060800160405280876001600160a01b03168152602001848152602001838152602001856001600160a01b03168152509050808989815181106200100757fe5b60209081029190910101526200101f8860016200115b565b9750506001909301925062000e0e915050565b505060010162000db1565b6005546001600160a01b031633146200106a5760405162461bcd60e51b81526004016200042c906200179a565b7f26a56275e1df915c64434b498c50983d75b2c8e01ba0e70bf597cf3d561054418383836040516200109f93929190620016fc565b60405180910390a16000918252600460209081526040808420928452919052902055565b6000805b60085481101562001107578260088281548110620010e157fe5b90600052602060002001541415620010fe576001915050620008ec565b600101620010c7565b50600092915050565b60006200115483836040518060400160405280601e81526020017f536166654d6174683a207375627472616374696f6e206f766572666c6f77000081525062001183565b9392505050565b600082820183811015620011545760405162461bcd60e51b81526004016200042c90620017e6565b60008184841115620011aa5760405162461bcd60e51b81526004016200042c919062001712565b505050900390565b604051806040016040528060008152602001600081525090565b6120308062001ad383390190565b604051806080016040528060006001600160a01b03168152602001600081526020016060815260200160006001600160a01b031681525090565b60008083601f84011262001226578182fd5b50813567ffffffffffffffff8111156200123e578182fd5b60208301915083602080830285010111156200125957600080fd5b9250929050565b60006020828403121562001272578081fd5b8135620011548162001ab9565b6000806040838503121562001292578081fd5b82356200129f8162001ab9565b91506020830135620012b18162001ab9565b809150509250929050565b60008060408385031215620012cf578182fd5b8235620012dc8162001ab9565b946020939093013593505050565b60008060408385031215620012fd578182fd5b82516200130a8162001ab9565b6020939093015192949293505050565b6000602082840312156200132c578081fd5b8151801515811462001154578182fd5b6000602082840312156200134e578081fd5b5035919050565b6000806000606084860312156200136a578081fd5b505081359360208301359350604090920135919050565b6000806040838503121562001394578182fd5b50508035926020909101359150565b60008060008060608587031215620013b9578081fd5b8435620013c68162001ab9565b9350602085013567ffffffffffffffff80821115620013e3578283fd5b818701915087601f830112620013f7578283fd5b81356200140e620014088262001a55565b62001a2d565b81815289602083860101111562001423578485fd5b6200143682602083016020870162001a7a565b95505060408701359150808211156200144d578283fd5b506200145c8782880162001214565b95989497509550505050565b6000602082840312156200147a578081fd5b5051919050565b6000806040838503121562001494578182fd5b823591506020830135620012b18162001ab9565b60008060008060008060c08789031215620014c1578384fd5b8651955060208701519450604087015160038110620014de578485fd5b80945050606087015192506080870151915060a0870151801515811462001503578182fd5b809150509295509295509295565b600081518084526200152b81602086016020860162001a86565b601f01601f19169290920160200192915050565b600082516200155381846020870162001a86565b9190910192915050565b6001600160a01b0391909116815260200190565b600060018060a01b038089168352808816602084015260a060408401526200159d60a084018862001511565b868216606085015283810360808501528481526001600160fb1b03851115620015c4578283fd5b6020850291508186602083013701602001908152979650505050505050565b6001600160a01b03929092168252602082015260400190565b6020808252825182820181905260009190848201906040850190845b818110156200163f5783516001600160a01b03168352928401929184019160010162001618565b50909695505050505050565b60208082528251828201819052600091906040908185019080840286018301878501865b83811015620016da57888303603f19018552815180516001600160a01b03908116855288820151898601528782015160808987018190529190620016b68388018262001511565b6060948501519092169690930195909552505093860193908601906001016200166f565b509098975050505050505050565b901515815260200190565b90815260200190565b9283526020830191909152604082015260600190565b60006020825262001154602083018462001511565b60208082526021908201527f534c4f206e6f742072656769737465726564206f6e20534c4f526567697374726040820152607960f81b606082015260800190565b6020808252601890820152774f6e6c7920666f72207265676973746572656420534c417360401b604082015260600190565b6020808252602c908201527f43616e206f6e6c792062652063616c6c656420627920746865204d657373656e60408201526b19d95c8818dbdb9d1c9858dd60a21b606082015260800190565b6020808252601b908201527f536166654d6174683a206164646974696f6e206f766572666c6f770000000000604082015260600190565b60208082526030908201527f534c4120636f6e74726163742077617320616c7265616479207665726966696560408201526f1908199bdc881d1a19481c195c9a5bd960821b606082015260800190565b60208082526028908201527f534c4120636f6e747261637420706572696f6420686173206e6f742066696e696040820152671cda1959081e595d60c21b606082015260800190565b6020808252601c908201527f506572696f647320696e666f726d6174696f6e20697320656d70747900000000604082015260600190565b60208082526046908201527f53686f756c64206e6f742073656c656374206120706572696f6420696420626960408201527f67676572207468616e20746865206c6173742063616e6f6e6963616c207065726060820152651a5bd9081a5960d21b608082015260a00190565b6020808252601b908201527f506572696f6420686173206e6f742066696e6973686564207965740000000000604082015260600190565b60208082526022908201527f416e616c7974696373206f626a65637420616c7265616479207075626c697368604082015261195960f21b606082015260800190565b6020808252601b908201527f4e6574776f726b206e616d65206e6f74207265636f676e697a65640000000000604082015260600190565b918252602082015260400190565b9182526001600160a01b0316602082015260400190565b60405181810167ffffffffffffffff8111828210171562001a4d57600080fd5b604052919050565b600067ffffffffffffffff82111562001a6c578081fd5b50601f01601f191660200190565b82818337506000910152565b60005b8381101562001aa357818101518382015260200162001a89565b8381111562001ab3576000848401525b50505050565b6001600160a01b038116811462001acf57600080fd5b5056fe60806040523480156200001157600080fd5b5060405162002030380380620020308339810160408190526200003491620003e8565b81600062000041620001c5565b600080546001600160a01b0319166001600160a01b03831690811782556040519293509160008051602062002010833981519152908290a3506004805460018181019092557f8a35acfbc15ff81a39ae7d344fd709f28e8600b4aa8c65c6b64bfe7fe36bd19b0180546001600160a01b039093166001600160a01b0319909316831790556000918252600560205260408220805460ff191690911790555b60018251038110156200014b57818160010181518110620000fc57fe5b60200260200101518282815181106200011157fe5b602002602001015110620001425760405162461bcd60e51b8152600401620001399062000501565b60405180910390fd5b600101620000df565b506200015785620001c9565b82516200016c90600790602086019062000276565b50600980546001600160a01b0319163317905543600b55805162000198906008906020840190620002fb565b5050600680546001600160a01b0319166001600160a01b03949094169390931790925550620005fd915050565b3390565b620001d3620001c5565b6000546001600160a01b03908116911614620002035760405162461bcd60e51b8152600401620001399062000588565b6001600160a01b0381166200022c5760405162461bcd60e51b8152600401620001399062000542565b600080546040516001600160a01b03808516939216916000805160206200201083398151915291a3600080546001600160a01b0319166001600160a01b0392909216919091179055565b828054600181600116156101000203166002900490600052602060002090601f016020900481019282601f10620002b957805160ff1916838001178555620002e9565b82800160010185558215620002e9579182015b82811115620002e9578251825591602001919060010190620002cc565b50620002f792915062000338565b5090565b828054828255906000526020600020908101928215620002e95791602002820182811115620002e9578251825591602001919060010190620002cc565b5b80821115620002f7576000815560010162000339565b80516200035c81620005e4565b92915050565b600082601f83011262000373578081fd5b81516001600160401b0381111562000389578182fd5b60208082026200039b828201620005bd565b83815293508184018583018287018401881015620003b857600080fd5b600092505b84831015620003dd578051825260019290920191908301908301620003bd565b505050505092915050565b600080600080600060a0868803121562000400578081fd5b85516200040d81620005e4565b809550506020808701516200042281620005e4565b60408801519095506001600160401b03808211156200043f578384fd5b818901915089601f83011262000453578384fd5b81518181111562000462578485fd5b62000476601f8201601f19168501620005bd565b8181528b858386010111156200048a578586fd5b855b82811015620004a95784810186015182820187015285016200048c565b82811115620004ba57868684840101525b509650620004ce90508a60608b016200034f565b94506080890151925080831115620004e4578384fd5b5050620004f48882890162000362565b9150509295509295909350565b60208082526021908201527f506572696f64206964732061727261792073686f756c6420626520736f7274656040820152601960fa1b606082015260800190565b60208082526026908201527f4f776e61626c653a206e6577206f776e657220697320746865207a65726f206160408201526564647265737360d01b606082015260800190565b6020808252818101527f4f776e61626c653a2063616c6c6572206973206e6f7420746865206f776e6572604082015260600190565b6040518181016001600160401b0381118282101715620005dc57600080fd5b604052919050565b6001600160a01b0381168114620005fa57600080fd5b50565b611a03806200060d6000396000f3fe608060405234801561001057600080fd5b506004361061012c5760003560e01c80639868e51a116100ad578063d7a5c42211610071578063d7a5c4221461026b578063db69a4621461027e578063f2fde38b14610286578063fbbf93a014610299578063fd5e6dd1146102b35761012c565b80639868e51a1461020e5780639ab4438f14610221578063b7bc347e14610246578063c623674f1461024e578063cd92890e146102635761012c565b80635e5f2e26116100f45780635e5f2e26146101b857806364b7b34b146101d8578063676a6300146101eb578063715018a6146101fe5780638da5cb5b146102065761012c565b80630bea440d14610131578063105237cf14610146578063171e44ea1461016f5780631bf309291461018257806357ac94f014610197575b600080fd5b61014461013f3660046113ec565b6102c6565b005b610159610154366004611351565b610380565b6040516101669190611633565b60405180910390f35b61014461017d366004611351565b610395565b61018a61046a565b6040516101669190611953565b6101aa6101a536600461136d565b610470565b604051610166929190611543565b6101cb6101c63660046113d4565b6104be565b604051610166919061150b565b6101446101e63660046113d4565b6104e5565b6101446101f93660046113ec565b610521565b610144610632565b6101cb6106b1565b61018a61021c3660046113d4565b6106c0565b61023461022f3660046113d4565b6106de565b6040516101669695949392919061195c565b61018a610718565b61025661071e565b604051610166919061163e565b6101cb6107ac565b61014461027936600461141b565b6107bb565b6101cb610972565b610144610294366004611351565b610981565b6102a1610a37565b6040516101669695949392919061155c565b6101cb6102c13660046113d4565b610d79565b600082116102ef5760405162461bcd60e51b81526004016102e690611885565b60405180910390fd5b6102f98282610d86565b600954604051635948284760e11b81526001600160a01b039091169063b290508e9061032990339060040161150b565b602060405180830381600087803b15801561034357600080fd5b505af1158015610357573d6000803e3d6000fd5b505050506040513d601f19601f8201168201806040525081019061037b9190611398565b505050565b60056020526000908152604090205460ff1681565b61039d610fb6565b6000546001600160a01b039081169116146103ca5760405162461bcd60e51b81526004016102e690611850565b6001600160a01b03811660009081526005602052604090205460ff16156104035760405162461bcd60e51b81526004016102e690611765565b6004805460018181019092557f8a35acfbc15ff81a39ae7d344fd709f28e8600b4aa8c65c6b64bfe7fe36bd19b0180546001600160a01b039093166001600160a01b031990931683179055600091825260056020526040909120805460ff19169091179055565b600b5481565b60008060006004848154811061048257fe5b6000918252602080832091909101546001600160a01b039081168084526002835260408085209990921684529790915290205494959350505050565b600481815481106104cb57fe5b6000918252602090912001546001600160a01b0316905081565b6104ed6106b1565b6001600160a01b0316336001600160a01b0316141561051e5760405162461bcd60e51b81526004016102e69061190e565b50565b600082116105415760405162461bcd60e51b81526004016102e690611885565b6105496106b1565b6001600160a01b0316336001600160a01b03161461062457600954600880546000926001600160a01b03169163dfce8ae091600019810190811061058957fe5b90600052602060002001546040518263ffffffff1660e01b81526004016105b09190611953565b604080518083038186803b1580156105c757600080fd5b505afa1580156105db573d6000803e3d6000fd5b505050506040513d601f19601f820116820180604052508101906105ff919061143c565b915050804210156106225760405162461bcd60e51b81526004016102e6906118b1565b505b61062e8282610fba565b5050565b61063a610fb6565b6000546001600160a01b039081169116146106675760405162461bcd60e51b81526004016102e690611850565b600080546040516001600160a01b03909116907f8be0079c531659141344cd1fd0a4f28419497f9722a3daafe3b4186f6b6457e0908390a3600080546001600160a01b0319169055565b6000546001600160a01b031690565b600881815481106106cd57fe5b600091825260209091200154905081565b600a602052600090815260409020805460018201546002830154600384015460048501546005909501549394929360ff9283169391921686565b60045490565b6007805460408051602060026001851615610100026000190190941693909304601f810184900484028201840190925281815292918301828280156107a45780601f10610779576101008083540402835291602001916107a4565b820191906000526020600020905b81548152906001019060200180831161078757829003601f168201915b505050505081565b6006546001600160a01b031681565b600960009054906101000a90046001600160a01b03166001600160a01b0316633cb747bf6040518163ffffffff1660e01b815260040160206040518083038186803b15801561080957600080fd5b505afa15801561081d573d6000803e3d6000fd5b505050506040513d601f19601f8201168201806040525081019061084191906113b8565b6001600160a01b0316336001600160a01b0316146108715760405162461bcd60e51b81526004016102e690611720565b7fc95987c1992805ee34bdc915e017cceae36ba1c156b9911fa7e691e6435eb46e4283836040516108a493929190611998565b60405180910390a16000818152600a60205260409081902060018101849055428155600654915163868d08f760e01b815290916001600160a01b03169063868d08f7906108f5908690600401611953565b60206040518083038186803b15801561090d57600080fd5b505afa158015610921573d6000803e3d6000fd5b505050506040513d601f19601f820116820180604052508101906109459190611398565b1561095e5760028101805460ff1916600117905561037b565b6002908101805460ff191690911790555050565b6009546001600160a01b031681565b610989610fb6565b6000546001600160a01b039081169116146109b65760405162461bcd60e51b81526004016102e690611850565b6001600160a01b0381166109dc5760405162461bcd60e51b81526004016102e690611651565b600080546040516001600160a01b03808516939216917f8be0079c531659141344cd1fd0a4f28419497f9722a3daafe3b4186f6b6457e091a3600080546001600160a01b0319166001600160a01b0392909216919091179055565b600060606000606060006060610a4b6106b1565b60078054604080516020601f60026000196101006001881615020190951694909404938401819004810282018101909252828152939950830182828015610ad35780601f10610aa857610100808354040283529160200191610ad3565b820191906000526020600020905b815481529060010190602001808311610ab657829003601f168201915b50506006546008549499506001600160a01b031697505067ffffffffffffffff83119150508015610b0357600080fd5b50604051908082528060200260200182016040528015610b3d57816020015b610b2a6112f7565b815260200190600190039081610b225790505b50925060005b600854811015610c6957600060088281548110610b5c57fe5b90600052602060002001549050610b716112f7565b6000828152600a6020908152604091829020825160c08101845281548152600182015492810192909252600280820154929391929184019160ff1690811115610bb657fe5b6002811115610bc157fe5b815260200160038201548152602001600482015481526020016005820160009054906101000a900460ff16151515158152505090506040518060c00160405280826000015181526020018260200151815260200182604001516002811115610c2557fe5b815260200182606001518152602001826080015181526020018260a001511515815250868481518110610c5457fe5b60209081029190910101525050600101610b43565b5060035460045490925067ffffffffffffffff81118015610c8957600080fd5b50604051908082528060200260200182016040528015610cc357816020015b610cb061133a565b815260200190600190039081610ca85790505b50905060005b600454811015610d7057604051806040016040528060048381548110610ceb57fe5b9060005260206000200160009054906101000a90046001600160a01b03166001600160a01b031681526020016001600060048581548110610d2857fe5b60009182526020808320909101546001600160a01b0316835282019290925260400190205490528251839083908110610d5d57fe5b6020908102919091010152600101610cc9565b50909192939495565b600381815481106104cb57fe5b6001600160a01b038116600090815260056020526040902054819060ff161515600114610dc55760405162461bcd60e51b81526004016102e690611822565b610dcd6106b1565b6001600160a01b0316336001600160a01b031614610e5c576001600160a01b038216600090815260026020526040812090610e066106b1565b6001600160a01b039081168252602080830193909352604091820160009081205491861681526001909352912054610e3e9085611205565b1115610e5c5760405162461bcd60e51b81526004016102e6906117dc565b6001600160a01b038216600090815260016020526040902054610e7f9084611205565b6001600160a01b0383166000908152600160209081526040808320939093556002815282822033835290522054610eb69084611205565b6001600160a01b038316600090815260026020908152604080832033808552925290912091909155610ee790611231565b610f2e57600380546001810182556000919091527fc2575a0e9e593c00f959f8c92f12db2869c3395a3b0502d05e2516446f71f85b0180546001600160a01b031916331790555b6040516323b872dd60e01b81526001600160a01b038316906323b872dd90610f5e9033903090889060040161151f565b602060405180830381600087803b158015610f7857600080fd5b505af1158015610f8c573d6000803e3d6000fd5b505050506040513d601f19601f82011682018060405250810190610fb09190611398565b50505050565b3390565b6001600160a01b038116600090815260056020526040902054819060ff161515600114610ff95760405162461bcd60e51b81526004016102e690611822565b6001600160a01b038216600090815260026020908152604080832033845290915290205483111561103c5760405162461bcd60e51b81526004016102e690611792565b6110446106b1565b6001600160a01b0316336001600160a01b031614156110fe576001600160a01b03821660009081526002602052604081206110b690826110826106b1565b6001600160a01b0390811682526020808301939093526040918201600090812054918816815260019093529120549061128e565b6001600160a01b03841660009081526001602052604090205490915081906110de908661128e565b10156110fc5760405162461bcd60e51b81526004016102e690611697565b505b60405163a9059cbb60e01b81526001600160a01b0383169063a9059cbb9061112c9033908790600401611543565b602060405180830381600087803b15801561114657600080fd5b505af115801561115a573d6000803e3d6000fd5b505050506040513d601f19601f8201168201806040525081019061117e9190611398565b506001600160a01b0382166000908152600160205260409020546111a2908461128e565b6001600160a01b03831660009081526001602090815260408083209390935560028152828220338352905220546111d9908461128e565b6001600160a01b0390921660009081526002602090815260408083203384529091529020919091555050565b60008282018381101561122a5760405162461bcd60e51b81526004016102e6906116e9565b9392505050565b6000805b60035481101561128357826001600160a01b03166003828154811061125657fe5b6000918252602090912001546001600160a01b0316141561127b576001915050611289565b600101611235565b50600090505b919050565b600061122a83836040518060400160405280601e81526020017f536166654d6174683a207375627472616374696f6e206f766572666c6f770000815250600081848411156112ef5760405162461bcd60e51b81526004016102e6919061163e565b505050900390565b6040518060c0016040528060008152602001600081526020016000600281111561131d57fe5b815260200160008152602001600081526020016000151581525090565b604080518082019091526000808252602082015290565b600060208284031215611362578081fd5b813561122a816119b8565b6000806040838503121561137f578081fd5b823561138a816119b8565b946020939093013593505050565b6000602082840312156113a9578081fd5b8151801515811461122a578182fd5b6000602082840312156113c9578081fd5b815161122a816119b8565b6000602082840312156113e5578081fd5b5035919050565b600080604083850312156113fe578182fd5b823591506020830135611410816119b8565b809150509250929050565b6000806040838503121561142d578182fd5b50508035926020909101359150565b6000806040838503121561144e578182fd5b505080516020909101519092909150565b6000815180845260208085019450808401835b838110156114a257815180516001600160a01b031688528301518388015260409096019590820190600101611472565b509495945050505050565b15159052565b6114bc816119ae565b9052565b60008151808452815b818110156114e5576020818501810151868301820152016114c9565b818111156114f65782602083870101525b50601f01601f19169290920160200192915050565b6001600160a01b0391909116815260200190565b6001600160a01b039384168152919092166020820152604081019190915260600190565b6001600160a01b03929092168252602082015260400190565b6001600160a01b03878116825260c06020808401829052600092906115838584018b6114c0565b6040838b16818801526060935086820384880152818a518084528484019150848c019350875b81811015611607578451805184528681015187850152848101516115cf868601826114b3565b5080880151848901526080808201519085015260a090810151906115f5818601836114ad565b505093850193918701916001016115a9565b505089608089015287810360a0890152611621818a61145f565b9e9d5050505050505050505050505050565b901515815260200190565b60006020825261122a60208301846114c0565b60208082526026908201527f4f776e61626c653a206e6577206f776e657220697320746865207a65726f206160408201526564647265737360d01b606082015260800190565b60208082526032908201527f53686f756c64206e6f74207769746864726177206d6f7265207468616e207468604082015271652064656c656761746f7273207374616b6560701b606082015260800190565b6020808252601b908201527f536166654d6174683a206164646974696f6e206f766572666c6f770000000000604082015260600190565b60208082526025908201527f4f6e6c79204d657373656e6765722063616e2063616c6c20746869732066756e60408201526431ba34b7b760d91b606082015260800190565b6020808252601390820152721d1bdad95b88185b1c9958591e481859191959606a1b604082015260600190565b6020808252602a908201527f53686f756c64206e6f74207769746864726177206d6f7265207374616b6520746040820152691a185b881cdd185ad95960b21b606082015260800190565b60208082526026908201527f43616e6e6f74207374616b65206d6f7265207468616e20534c41206f776e6572604082015265207374616b6560d01b606082015260800190565b6020808252601490820152731d1bdad95b881a5cc81b9bdd08185b1b1bddd95960621b604082015260600190565b6020808252818101527f4f776e61626c653a2063616c6c6572206973206e6f7420746865206f776e6572604082015260600190565b6020808252601290820152710616d6f756e742063616e6e6f7420626520360741b604082015260600190565b6020808252603a908201527f43616e206f6e6c79207769746864726177207374616b6520616674657220746860408201527f652066696e616c20706572696f642069732066696e6973686564000000000000606082015260800190565b60208082526025908201527f53686f756c64206e6f742062652063616c6c65642062792074686520534c412060408201526437bbb732b960d91b606082015260800190565b90815260200190565b8681526020810186905260c08101611973866119ae565b85604083015284606083015283608083015282151560a0830152979650505050505050565b9283526020830191909152604082015260600190565b6003811061051e57fe5b6001600160a01b038116811461051e57600080fdfea2646970667358221220ace84eb1fc8f0eb479599c56e02a7c42950931ea1d08bfe76a4fbcd16aa2c8d164736f6c634300060c00338be0079c531659141344cd1fd0a4f28419497f9722a3daafe3b4186f6b6457e0a2646970667358221220396c129594cca2e61fba2800cbe1fdbc5481b1259b3dca956d053a6623cde42f64736f6c634300060c0033",
  "immutableReferences": {},
  "source": "// SPDX-License-Identifier: MIT\npragma solidity ^0.6.0;\npragma experimental ABIEncoderV2;\n\nimport \"@openzeppelin/contracts/math/SafeMath.sol\";\nimport \"@openzeppelin/contracts/token/ERC20/IERC20.sol\";\nimport \"./Messenger.sol\";\nimport \"./SLA.sol\";\nimport \"./SLO.sol\";\nimport \"./SLORegistry.sol\";\nimport \"./Staking.sol\";\n\n/**\n * @title SLARegistry\n * @dev SLARegistry is a contract for handling creation of service level\n * agreements and keeping track of the created agreements\n */\ncontract SLARegistry {\n    using SafeMath for uint256;\n    bytes4 private constant NAME_SELECTOR = bytes4(keccak256(bytes(\"name()\")));\n\n    /// @dev address of the DSLA token\n    IERC20 public DSLAToken;\n\n    /// @dev sloRegistryAddress\n    SLORegistry public sloRegistry;\n\n    /// @dev struct to return on getActivePool function.\n    struct ActivePool {\n        address SLAaddress;\n        uint256 stake;\n        string assetName;\n        address assetAddress;\n    }\n\n    /// @dev struct to store the start and end of the periods\n    struct CanonicalPeriod {\n        uint256 start;\n        uint256 end;\n    }\n\n    /// @dev mapping periodId=>CanonicalPeriod to check if SLA is registered\n    mapping(uint256 => CanonicalPeriod) public canonicalPeriods;\n\n    /// @dev mapping periodId=>CanonicalPeriod to check if SLA is registered\n    uint256 public canonicalPeriodsLastId;\n\n    /// @dev mapping networkName=>periodId=>bytes32 to store ipfsHash of the analytics corresponding to periodId\n    mapping(bytes32 => mapping(uint256 => bytes32))\n        public canonicalPeriodsAnalytics;\n\n    /// @dev Messenger of the SLA Registry\n    Messenger public messenger;\n\n    /// @dev stores the addresses of created SLAs\n    SLA[] public SLAs;\n\n    /// @dev mapping SLA=>bool to check if SLA is registered\n    mapping(address => bool) public registeredSLAs;\n\n    /// @dev bytes32 to store the available network names\n    bytes32[] public networkNames;\n\n    /// @dev mapping SLA=>bool to store the if the network is valid\n    mapping(bytes32 => bool) public validNetworks;\n\n    /// @dev stores the indexes of service level agreements owned by an user\n    mapping(address => uint256[]) private userToSLAIndexes;\n\n    /// @dev mapping userAddress => SLA[]\n    mapping(address => SLA[]) public userStakedSlas;\n\n    modifier onlyRegisteredSla {\n        require(registeredSLAs[msg.sender] == true, \"Only for registered SLAs\");\n        _;\n    }\n\n    /**\n     * @dev event for service level agreement creation logging\n     * @param sla 1. The address of the created service level agreement contract\n     * @param owner 2. The address of the owner of the service level agreement\n     */\n    event SLACreated(SLA indexed sla, address indexed owner);\n\n    /**\n     * @dev Event to store a new analytics ipfs hash received\n     * @param _ipfsHash 1. id of the canonical period to be analyzed\n     * @param _network 2. network name to publish analytics\n     */\n    event AnalyticsReceived(\n        bytes32 _ipfsHash,\n        bytes32 _network,\n        uint256 _periodId\n    );\n\n    /**\n     * @dev constructor\n     * @param _messengerAddress 1. the address of the chainlink messenger contract\n     * @param _sla_week_period_starts 3. array of the starts of the weeks period\n     * @param _sla_week_period_ends 4. array of the ends of the weeks period\n     * @param _networkNames 5. array of bytes32 with the names of the valid networks\n     * @param _dslaToken 6. DSLA Token\n     * @param _sloRegistry 7. SLORegistry\n     */\n    constructor(\n        Messenger _messengerAddress,\n        uint256[] memory _sla_week_period_starts,\n        uint256[] memory _sla_week_period_ends,\n        bytes32[] memory _networkNames,\n        IERC20 _dslaToken,\n        SLORegistry _sloRegistry\n    ) public {\n        require(\n            _sla_week_period_starts.length == _sla_week_period_ends.length,\n            \"Periods starts and ends lengths should match\"\n        );\n        for (\n            uint256 index = 0;\n            index < _sla_week_period_starts.length;\n            index++\n        ) {\n            require(\n                _sla_week_period_starts[index] < _sla_week_period_ends[index],\n                \"Period end should be greater than period start\"\n            );\n            canonicalPeriods[index] = CanonicalPeriod({\n                start: _sla_week_period_starts[index],\n                end: _sla_week_period_ends[index]\n            });\n        }\n        networkNames = _networkNames;\n        canonicalPeriodsLastId = _sla_week_period_starts.length - 1;\n        DSLAToken = _dslaToken;\n        sloRegistry = _sloRegistry;\n        messenger = _messengerAddress;\n        messenger.setSLARegistry();\n    }\n\n    /**\n     * @dev public function for creating canonical service level agreements\n     * @param _SLO 2. SLO\n     * @param _ipfsHash 4. string with the ipfs hash that contains extra information about the service level agreement\n     * @param _canonicalPeriodIds 6. array of allowed canonical period ids\n     */\n    function createSLA(\n        SLO _SLO,\n        string memory _ipfsHash,\n        uint256[] calldata _canonicalPeriodIds\n    ) public {\n        require(\n            sloRegistry.registeredSLOs(address(_SLO)) == true,\n            \"SLO not registered on SLORegistry\"\n        );\n        require(_canonicalPeriodIds.length > 0, \"Periods information is empty\");\n        require(\n            _canonicalPeriodIds[_canonicalPeriodIds.length - 1] <=\n                canonicalPeriodsLastId - 1,\n            \"Should not select a period id bigger than the last canonical period id\"\n        );\n        SLA sla =\n            new SLA(\n                msg.sender,\n                _SLO,\n                _ipfsHash,\n                address(DSLAToken),\n                _canonicalPeriodIds\n            );\n\n        SLAs.push(sla);\n        registeredSLAs[address(sla)] = true;\n        uint256 index = SLAs.length.sub(1);\n        userToSLAIndexes[msg.sender].push(index);\n        emit SLACreated(sla, msg.sender);\n    }\n\n    /**\n     * @dev Gets SLI information for the specified SLA and SLO\n     * @param _periodId 1. id of the period\n     * @param _sla 2. SLA Address\n     */\n    function requestSLI(uint256 _periodId, SLA _sla) public {\n        CanonicalPeriod memory canonicalPeriod = canonicalPeriods[_periodId];\n        require(\n            canonicalPeriod.end < block.timestamp,\n            \"SLA contract period has not finished yet\"\n        );\n        (, , SLA.Status status, , , ) = _sla.slaPeriods(_periodId);\n        require(\n            status == SLA.Status.NotVerified,\n            \"SLA contract was already verified for the period\"\n        );\n        messenger.requestSLI(_periodId, _sla);\n    }\n\n    function _isValidNetwork(bytes32 _networkName)\n        internal\n        view\n        returns (bool)\n    {\n        for (uint256 index; index < networkNames.length; index++) {\n            if (networkNames[index] == _networkName) return true;\n        }\n        return false;\n    }\n\n    /**\n     * @dev Request analytics object for the current period.\n     * @param _canonicalPeriodId 1. id of the canonical period to be analyzed\n     * @param _network 2. network name to publish analytics\n     */\n    function requestAnalytics(uint256 _canonicalPeriodId, bytes32 _network)\n        public\n    {\n        require(_isValidNetwork(_network), \"Network name not recognized\");\n        CanonicalPeriod memory period = canonicalPeriods[_canonicalPeriodId];\n        require(period.end < block.timestamp, \"Period has not finished yet\");\n        require(\n            canonicalPeriodsAnalytics[_network][_canonicalPeriodId] == \"\",\n            \"Analytics object already published\"\n        );\n        messenger.requestAnalytics(_canonicalPeriodId, _network);\n    }\n\n    /**\n     * @dev Receives the data from the Messenger contract\n     * @param _ipfsHash 1. id of the canonical period to be analyzed\n     * @param _network 2. network name to publish analytics\n     * @param _periodId 3. id of the canonical period\n     */\n    function publishAnalyticsHash(\n        bytes32 _ipfsHash,\n        bytes32 _network,\n        uint256 _periodId\n    ) public {\n        require(\n            address(messenger) == msg.sender,\n            \"Can only be called by the Messenger contract\"\n        );\n        emit AnalyticsReceived(_ipfsHash, _network, _periodId);\n        canonicalPeriodsAnalytics[_network][_periodId] = _ipfsHash;\n    }\n\n    /**\n     * @dev public view function that returns the service level agreements that\n     * the given user is the owner of\n     * @param _user Address of the user for which to return the service level\n     * agreements\n     * @return array of SLAs\n     */\n    function userSLAs(address _user) public view returns (SLA[] memory) {\n        uint256 count = userSLACount(_user);\n        SLA[] memory SLAList = new SLA[](count);\n        uint256[] memory userSLAIndexes = userToSLAIndexes[_user];\n\n        for (uint256 i = 0; i < count; i++) {\n            SLAList[i] = (SLAs[userSLAIndexes[i]]);\n        }\n\n        return (SLAList);\n    }\n\n    /**\n     * @dev public view function that returns the amount of service level\n     * agreements the given user is the owner of\n     * @param _user 1. address of the user for which to return the amount of\n     * service level agreements\n     * @return uint256 corresponding to the amount of user's SLAs\n     */\n    function userSLACount(address _user) public view returns (uint256) {\n        return userToSLAIndexes[_user].length;\n    }\n\n    /**\n     * @dev public view function that returns all the service level agreements\n     * @return SLA[] array of SLAs\n     */\n    function allSLAs() public view returns (SLA[] memory) {\n        return (SLAs);\n    }\n\n    /**\n     * @dev public view function that returns the total amount of service\n     * level agreements\n     * @return uint256, the length of SLA array\n     */\n    function SLACount() public view returns (uint256) {\n        return SLAs.length;\n    }\n\n    /**\n     *@dev public view function that returns true if the _owner has staked on _sla\n     *@param _user 1. address to check\n     *@param _sla 2. sla to check\n     *@return bool, true if _sla was staked by _user\n     */\n    function slaWasStakedByUser(address _user, address _sla)\n        public\n        view\n        returns (bool)\n    {\n        for (uint256 index = 0; index < userStakedSlas[_user].length; index++) {\n            if (address(userStakedSlas[_user][index]) == _sla) {\n                return true;\n            }\n        }\n        return false;\n    }\n\n    /**\n     *@dev register the sending SLA contract as staked by _owner\n     *@param _owner 1. SLA contract to stake\n     */\n    function registerStakedSla(address _owner)\n        public\n        onlyRegisteredSla\n        returns (bool)\n    {\n        if (slaWasStakedByUser(_owner, msg.sender) == false) {\n            userStakedSlas[_owner].push(SLA(msg.sender));\n        }\n        return true;\n    }\n\n    /**\n     * @dev returns the active pools owned by a user.\n     * @param _slaOwner 1. owner of the active pool\n     * @return ActivePool[], array of structs: {SLAaddress,stake,assetName}\n     */\n    function getActivePool(address _slaOwner)\n        public\n        view\n        returns (ActivePool[] memory)\n    {\n        uint256 stakeCounter = 0;\n        // Count the stakes of the user, checking every SLA staked\n        for (\n            uint256 index = 0;\n            index < userStakedSlas[_slaOwner].length;\n            index++\n        ) {\n            SLA currentSLA = SLA(userStakedSlas[_slaOwner][index]);\n            stakeCounter = stakeCounter.add(\n                currentSLA.getAllowedTokensLength()\n            );\n        }\n\n        ActivePool[] memory activePools = new ActivePool[](stakeCounter);\n        // to insert on activePools array\n        uint256 stakePosition = 0;\n        for (\n            uint256 index = 0;\n            index < userStakedSlas[_slaOwner].length;\n            index++\n        ) {\n            SLA currentSLA = userStakedSlas[_slaOwner][index];\n            for (\n                uint256 tokenIndex = 0;\n                tokenIndex < currentSLA.getAllowedTokensLength();\n                tokenIndex++\n            ) {\n                (address tokenAddress, uint256 stake) =\n                    currentSLA.getTokenStake(_slaOwner, tokenIndex);\n                (, bytes memory tokenNameBytes) =\n                    tokenAddress.staticcall(\n                        abi.encodeWithSelector(NAME_SELECTOR)\n                    );\n                ActivePool memory currentActivePool =\n                    ActivePool({\n                        SLAaddress: address(currentSLA),\n                        stake: stake,\n                        assetName: string(tokenNameBytes),\n                        assetAddress: tokenAddress\n                    });\n                activePools[stakePosition] = currentActivePool;\n                stakePosition = stakePosition.add(1);\n            }\n        }\n        return activePools;\n    }\n}\n",
  "sourcePath": "/Users/matiasbn/Desktop/stacktical/stacktical-dsla-contracts/contracts/SLARegistry.sol",
  "compiler": {
    "name": "solc",
    "version": "0.6.12+commit.27d51765.Emscripten.clang"
  },
  "schemaVersion": "3.3.3",
  "updatedAt": "2021-02-11T00:55:10.052Z",
  "devdoc": {
    "details": "SLARegistry is a contract for handling creation of service level agreements and keeping track of the created agreements",
    "events": {
      "AnalyticsReceived(bytes32,bytes32,uint256)": {
        "details": "Event to store a new analytics ipfs hash received",
        "params": {
          "_ipfsHash": "1. id of the canonical period to be analyzed",
          "_network": "2. network name to publish analytics"
        }
      },
      "SLACreated(address,address)": {
        "details": "event for service level agreement creation logging",
        "params": {
          "owner": "2. The address of the owner of the service level agreement",
          "sla": "1. The address of the created service level agreement contract"
        }
      }
    },
    "kind": "dev",
    "methods": {
      "SLACount()": {
        "details": "public view function that returns the total amount of service level agreements",
        "returns": {
          "_0": "uint256, the length of SLA array"
        }
      },
      "allSLAs()": {
        "details": "public view function that returns all the service level agreements",
        "returns": {
          "_0": "SLA[] array of SLAs"
        }
      },
      "constructor": {
        "details": "constructor",
        "params": {
          "_dslaToken": "6. DSLA Token",
          "_messengerAddress": "1. the address of the chainlink messenger contract",
          "_networkNames": "5. array of bytes32 with the names of the valid networks",
          "_sla_week_period_ends": "4. array of the ends of the weeks period",
          "_sla_week_period_starts": "3. array of the starts of the weeks period",
          "_sloRegistry": "7. SLORegistry"
        }
      },
      "createSLA(address,string,uint256[])": {
        "details": "public function for creating canonical service level agreements",
        "params": {
          "_SLO": "2. SLO",
          "_canonicalPeriodIds": "6. array of allowed canonical period ids",
          "_ipfsHash": "4. string with the ipfs hash that contains extra information about the service level agreement"
        }
      },
      "getActivePool(address)": {
        "details": "returns the active pools owned by a user.",
        "params": {
          "_slaOwner": "1. owner of the active pool"
        },
        "returns": {
          "_0": "ActivePool[], array of structs: {SLAaddress,stake,assetName}"
        }
      },
      "publishAnalyticsHash(bytes32,bytes32,uint256)": {
        "details": "Receives the data from the Messenger contract",
        "params": {
          "_ipfsHash": "1. id of the canonical period to be analyzed",
          "_network": "2. network name to publish analytics",
          "_periodId": "3. id of the canonical period"
        }
      },
      "registerStakedSla(address)": {
        "details": "register the sending SLA contract as staked by _owner",
        "params": {
          "_owner": "1. SLA contract to stake"
        }
      },
      "requestAnalytics(uint256,bytes32)": {
        "details": "Request analytics object for the current period.",
        "params": {
          "_canonicalPeriodId": "1. id of the canonical period to be analyzed",
          "_network": "2. network name to publish analytics"
        }
      },
      "requestSLI(uint256,address)": {
        "details": "Gets SLI information for the specified SLA and SLO",
        "params": {
          "_periodId": "1. id of the period",
          "_sla": "2. SLA Address"
        }
      },
      "slaWasStakedByUser(address,address)": {
        "details": "public view function that returns true if the _owner has staked on _sla",
        "params": {
          "_sla": "2. sla to check",
          "_user": "1. address to check"
        },
        "returns": {
          "_0": "bool, true if _sla was staked by _user"
        }
      },
      "userSLACount(address)": {
        "details": "public view function that returns the amount of service level agreements the given user is the owner of",
        "params": {
          "_user": "1. address of the user for which to return the amount of service level agreements"
        },
        "returns": {
          "_0": "uint256 corresponding to the amount of user's SLAs"
        }
      },
      "userSLAs(address)": {
        "details": "public view function that returns the service level agreements that the given user is the owner of",
        "params": {
          "_user": "Address of the user for which to return the service level agreements"
        },
        "returns": {
          "_0": "array of SLAs"
        }
      }
    },
    "stateVariables": {
      "DSLAToken": {
        "details": "address of the DSLA token"
      },
      "SLAs": {
        "details": "stores the addresses of created SLAs"
      },
      "canonicalPeriods": {
        "details": "mapping periodId=>CanonicalPeriod to check if SLA is registered"
      },
      "canonicalPeriodsAnalytics": {
        "details": "mapping networkName=>periodId=>bytes32 to store ipfsHash of the analytics corresponding to periodId"
      },
      "canonicalPeriodsLastId": {
        "details": "mapping periodId=>CanonicalPeriod to check if SLA is registered"
      },
      "messenger": {
        "details": "Messenger of the SLA Registry"
      },
      "networkNames": {
        "details": "bytes32 to store the available network names"
      },
      "registeredSLAs": {
        "details": "mapping SLA=>bool to check if SLA is registered"
      },
      "sloRegistry": {
        "details": "sloRegistryAddress"
      },
      "userStakedSlas": {
        "details": "mapping userAddress => SLA[]"
      },
      "userToSLAIndexes": {
        "details": "stores the indexes of service level agreements owned by an user"
      },
      "validNetworks": {
        "details": "mapping SLA=>bool to store the if the network is valid"
      }
    },
    "title": "SLARegistry",
    "version": 1
  },
  "userdoc": {
    "kind": "user",
    "methods": {},
    "version": 1
  }
}