{
  "contractName": "SLARegistry",
  "abi": [
    {
      "inputs": [
        {
          "internalType": "contract SLORegistry",
          "name": "_sloRegistry",
          "type": "address"
        },
        {
          "internalType": "contract PeriodRegistry",
          "name": "_periodRegistry",
          "type": "address"
        },
        {
          "internalType": "contract MessengerRegistry",
          "name": "_messengerRegistry",
          "type": "address"
        },
        {
          "internalType": "contract StakeRegistry",
          "name": "_stakeRegistry",
          "type": "address"
        }
      ],
      "stateMutability": "nonpayable",
      "type": "constructor"
    },
    {
      "anonymous": false,
      "inputs": [
        {
          "indexed": true,
          "internalType": "address",
          "name": "previousOwner",
          "type": "address"
        },
        {
          "indexed": true,
          "internalType": "address",
          "name": "newOwner",
          "type": "address"
        }
      ],
      "name": "OwnershipTransferred",
      "type": "event"
    },
    {
      "anonymous": false,
      "inputs": [
        {
          "indexed": true,
          "internalType": "contract SLA",
          "name": "sla",
          "type": "address"
        },
        {
          "indexed": true,
          "internalType": "address",
          "name": "owner",
          "type": "address"
        }
      ],
      "name": "SLACreated",
      "type": "event"
    },
    {
      "inputs": [
        {
          "internalType": "uint256",
          "name": "",
          "type": "uint256"
        }
      ],
      "name": "SLAs",
      "outputs": [
        {
          "internalType": "contract SLA",
          "name": "",
          "type": "address"
        }
      ],
      "stateMutability": "view",
      "type": "function",
      "constant": true
    },
    {
      "inputs": [],
      "name": "messengerRegistry",
      "outputs": [
        {
          "internalType": "contract MessengerRegistry",
          "name": "",
          "type": "address"
        }
      ],
      "stateMutability": "view",
      "type": "function",
      "constant": true
    },
    {
      "inputs": [],
      "name": "owner",
      "outputs": [
        {
          "internalType": "address",
          "name": "",
          "type": "address"
        }
      ],
      "stateMutability": "view",
      "type": "function",
      "constant": true
    },
    {
      "inputs": [],
      "name": "periodRegistry",
      "outputs": [
        {
          "internalType": "contract PeriodRegistry",
          "name": "",
          "type": "address"
        }
      ],
      "stateMutability": "view",
      "type": "function",
      "constant": true
    },
    {
      "inputs": [],
      "name": "renounceOwnership",
      "outputs": [],
      "stateMutability": "nonpayable",
      "type": "function"
    },
    {
      "inputs": [],
      "name": "sloRegistry",
      "outputs": [
        {
          "internalType": "contract SLORegistry",
          "name": "",
          "type": "address"
        }
      ],
      "stateMutability": "view",
      "type": "function",
      "constant": true
    },
    {
      "inputs": [],
      "name": "stakeRegistry",
      "outputs": [
        {
          "internalType": "contract StakeRegistry",
          "name": "",
          "type": "address"
        }
      ],
      "stateMutability": "view",
      "type": "function",
      "constant": true
    },
    {
      "inputs": [
        {
          "internalType": "address",
          "name": "newOwner",
          "type": "address"
        }
      ],
      "name": "transferOwnership",
      "outputs": [],
      "stateMutability": "nonpayable",
      "type": "function"
    },
    {
      "inputs": [
        {
          "internalType": "contract SLO",
          "name": "_SLO",
          "type": "address"
        },
        {
          "internalType": "string",
          "name": "_ipfsHash",
          "type": "string"
        },
        {
          "internalType": "enum PeriodRegistry.PeriodType",
          "name": "_periodType",
          "type": "uint8"
        },
        {
          "internalType": "uint256[]",
          "name": "_periodIds",
          "type": "uint256[]"
        },
        {
          "internalType": "address",
          "name": "_messengerAddress",
          "type": "address"
        },
        {
          "internalType": "bool",
          "name": "_whitelisted",
          "type": "bool"
        },
        {
          "internalType": "bytes32[]",
          "name": "_extraData",
          "type": "bytes32[]"
        }
      ],
      "name": "createSLA",
      "outputs": [],
      "stateMutability": "nonpayable",
      "type": "function"
    },
    {
      "inputs": [
        {
          "internalType": "uint256",
          "name": "_periodId",
          "type": "uint256"
        },
        {
          "internalType": "contract SLA",
          "name": "_sla",
          "type": "address"
        }
      ],
      "name": "requestSLI",
      "outputs": [],
      "stateMutability": "nonpayable",
      "type": "function"
    },
    {
      "inputs": [
        {
          "internalType": "address",
          "name": "_messengerAddress",
          "type": "address"
        }
      ],
      "name": "setMessengerSLARegistryAddress",
      "outputs": [],
      "stateMutability": "nonpayable",
      "type": "function"
    },
    {
      "inputs": [
        {
          "internalType": "address",
          "name": "_user",
          "type": "address"
        }
      ],
      "name": "userSLAs",
      "outputs": [
        {
          "internalType": "contract SLA[]",
          "name": "",
          "type": "address[]"
        }
      ],
      "stateMutability": "view",
      "type": "function",
      "constant": true
    },
    {
      "inputs": [
        {
          "internalType": "address",
          "name": "_user",
          "type": "address"
        }
      ],
      "name": "userSLACount",
      "outputs": [
        {
          "internalType": "uint256",
          "name": "",
          "type": "uint256"
        }
      ],
      "stateMutability": "view",
      "type": "function",
      "constant": true
    },
    {
      "inputs": [],
      "name": "allSLAs",
      "outputs": [
        {
          "internalType": "contract SLA[]",
          "name": "",
          "type": "address[]"
        }
      ],
      "stateMutability": "view",
      "type": "function",
      "constant": true
    },
    {
      "inputs": [],
      "name": "SLACount",
      "outputs": [
        {
          "internalType": "uint256",
          "name": "",
          "type": "uint256"
        }
      ],
      "stateMutability": "view",
      "type": "function",
      "constant": true
    },
    {
      "inputs": [
        {
          "internalType": "address",
          "name": "_slaAddress",
          "type": "address"
        }
      ],
      "name": "isRegisteredSLA",
      "outputs": [
        {
          "internalType": "bool",
          "name": "",
          "type": "bool"
        }
      ],
      "stateMutability": "view",
      "type": "function",
      "constant": true
    }
  ],
  "bytecode": "0x60806040523480156200001157600080fd5b5060405162005e0f38038062005e0f833981016040819052620000349162000132565b6000620000406200012e565b600080546001600160a01b0319166001600160a01b0383169081178255604051929350917f8be0079c531659141344cd1fd0a4f28419497f9722a3daafe3b4186f6b6457e0908290a350600180546001600160a01b03199081166001600160a01b03878116919091179092556002805482168684161790556004805482168484161781556003805490921685841617918290556040805163f388158960e01b81529051929093169263f3881589928183019260009282900301818387803b1580156200010b57600080fd5b505af115801562000120573d6000803e3d6000fd5b5050505050505050620001b2565b3390565b6000806000806080858703121562000148578384fd5b8451620001558162000199565b6020860151909450620001688162000199565b60408601519093506200017b8162000199565b60608601519092506200018e8162000199565b939692955090935050565b6001600160a01b0381168114620001af57600080fd5b50565b615c4d80620001c26000396000f3fe60806040523480156200001157600080fd5b5060043610620000f45760003560e01c80638da5cb5b11620000935780638da5cb5b14620001a857806396bddc1014620001b25780639fc4caa514620001bc578063c4277a7b14620001c6578063d199440814620001ec578063e9b1e98c1462000203578063ec9176ba146200021a578063f2fde38b146200023157620000f4565b806350c5abfe14620000f9578063516c285714620001285780635a7d1e5d146200014e5780635c4df33214620001585780636435dc9c146200016257806368304835146200017b578063715018a61462000185578063816ff986146200018f575b600080fd5b620001106200010a366004620012e9565b62000248565b6040516200011f91906200141d565b60405180910390f35b6200013f620001393660046200112f565b62000270565b6040516200011f919062001526565b62000110620003ba565b62000110620003c9565b62000179620001733660046200112f565b620003d8565b005b6200011062000498565b62000179620004a7565b6200019962000534565b6040516200011f9190620018ce565b620001106200053a565b6200013f62000549565b62000110620005ad565b620001dd620001d73660046200112f565b620005bc565b6040516200011f919062001575565b62000179620001fd36600462001302565b6200061c565b62000199620002143660046200112f565b62000a35565b620001796200022b36600462001193565b62000a50565b62000179620002423660046200112f565b62000ee9565b600581815481106200025657fe5b6000918252602090912001546001600160a01b0316905081565b606060006200027f8362000a35565b905060608167ffffffffffffffff811180156200029b57600080fd5b50604051908082528060200260200182016040528015620002c6578160200160208202803683370190505b506001600160a01b038516600090815260066020908152604091829020805483518184028101840190945280845293945060609390918301828280156200032d57602002820191906000526020600020905b81548152602001906001019080831162000318575b5050505050905060005b83811015620003ae5760058282815181106200034f57fe5b6020026020010151815481106200036257fe5b9060005260206000200160009054906101000a90046001600160a01b03168382815181106200038d57fe5b6001600160a01b039092166020928302919091019091015260010162000337565b5090925050505b919050565b6001546001600160a01b031681565b6003546001600160a01b031681565b806001600160a01b031663f38815896040518163ffffffff1660e01b8152600401600060405180830381600087803b1580156200041457600080fd5b505af115801562000429573d6000803e3d6000fd5b50506003546040516319d71f1f60e31b81526001600160a01b03909116925063ceb8f8f891506200046190849033906004016200150c565b600060405180830381600087803b1580156200047c57600080fd5b505af115801562000491573d6000803e3d6000fd5b5050505050565b6004546001600160a01b031681565b620004b162000fa7565b6000546001600160a01b03908116911614620004ea5760405162461bcd60e51b8152600401620004e190620017d4565b60405180910390fd5b600080546040516001600160a01b03909116907f8be0079c531659141344cd1fd0a4f28419497f9722a3daafe3b4186f6b6457e0908390a3600080546001600160a01b0319169055565b60055490565b6000546001600160a01b031690565b60606005805480602002602001604051908101604052809291908181526020018280548015620005a357602002820191906000526020600020905b81546001600160a01b0316815260019091019060200180831162000584575b5050505050905090565b6002546001600160a01b031681565b6000805b6005548110156200061357826001600160a01b031660058281548110620005e357fe5b6000918252602090912001546001600160a01b031614156200060a576001915050620003b5565b600101620005c0565b50600092915050565b6000816001600160a01b0316637fd788aa6040518163ffffffff1660e01b815260040160206040518083038186803b1580156200065857600080fd5b505afa1580156200066d573d6000803e3d6000fd5b505050506040513d601f19601f8201168201806040525081019062000693919062001174565b90506000826001600160a01b0316639ab4438f856040518263ffffffff1660e01b8152600401620006c59190620018ce565b60606040518083038186803b158015620006de57600080fd5b505afa158015620006f3573d6000803e3d6000fd5b505050506040513d601f19601f8201168201806040525081019062000719919062001334565b925060009150620007279050565b8160028111156200073457fe5b14620007545760405162461bcd60e51b8152600401620004e190620016b5565b8115620007755760405162461bcd60e51b8152600401620004e19062001784565b60405163021eef7f60e01b81526000906001600160a01b0385169063021eef7f90620007a6908890600401620018ce565b60206040518083038186803b158015620007bf57600080fd5b505afa158015620007d4573d6000803e3d6000fd5b505050506040513d601f19601f82011682018060405250810190620007fa919062001174565b9050600181151514620008215760405162461bcd60e51b8152600401620004e1906200184b565b6000846001600160a01b03166346e0fbae6040518163ffffffff1660e01b815260040160206040518083038186803b1580156200085d57600080fd5b505afa15801562000872573d6000803e3d6000fd5b505050506040513d601f19601f82011682018060405250810190620008989190620012ca565b6002546040516331edb3ad60e21b81529192506000916001600160a01b039091169063c7b6ceb490620008d29085908b9060040162001590565b60206040518083038186803b158015620008eb57600080fd5b505afa15801562000900573d6000803e3d6000fd5b505050506040513d601f19601f8201168201806040525081019062000926919062001174565b90506001811515146200094d5760405162461bcd60e51b8152600401620004e19062001705565b6000866001600160a01b031663a224ee9c6040518163ffffffff1660e01b815260040160206040518083038186803b1580156200098957600080fd5b505afa1580156200099e573d6000803e3d6000fd5b505050506040513d601f19601f82011682018060405250810190620009c4919062001155565b604051631a33288160e31b81529091506001600160a01b0382169063d199440890620009f7908b908b90600401620018d7565b600060405180830381600087803b15801562000a1257600080fd5b505af115801562000a27573d6000803e3d6000fd5b505050505050505050505050565b6001600160a01b031660009081526006602052604090205490565b600254604051635c98d15760e01b81526000916001600160a01b031690635c98d1579062000a83908a9060040162001580565b60206040518083038186803b15801562000a9c57600080fd5b505afa15801562000ab1573d6000803e3d6000fd5b505050506040513d601f19601f8201168201806040525081019062000ad7919062001174565b905060018115151462000afe5760405162461bcd60e51b8152600401620004e19062001809565b600154604051636891286d60e11b81526001600160a01b039091169063d12250da9062000b30908c906004016200141d565b60206040518083038186803b15801562000b4957600080fd5b505afa15801562000b5e573d6000803e3d6000fd5b505050506040513d601f19601f8201168201806040525081019062000b84919062001174565b151560011462000ba85760405162461bcd60e51b8152600401620004e19062001601565b8462000bc85760405162461bcd60e51b8152600401620004e1906200174d565b60005b8581101562000cf4576002546000906001600160a01b031663ddfc4fde8a8a8a8681811062000bf657fe5b905060200201356040518363ffffffff1660e01b815260040162000c1c92919062001590565b60206040518083038186803b15801562000c3557600080fd5b505afa15801562000c4a573d6000803e3d6000fd5b505050506040513d601f19601f8201168201806040525081019062000c70919062001174565b90508062000c925760405162461bcd60e51b8152600401620004e19062001642565b600019870182101562000cea5787878360010181811062000caf57fe5b9050602002013588888481811062000cc357fe5b905060200201351062000cea5760405162461bcd60e51b8152600401620004e19062001897565b5060010162000bcb565b5060035460405163ef4003db60e01b81526000916001600160a01b03169063ef4003db9062000d289088906004016200141d565b60206040518083038186803b15801562000d4157600080fd5b505afa15801562000d56573d6000803e3d6000fd5b505050506040513d601f19601f8201168201806040525081019062000d7c919062001174565b905060018115151462000da35760405162461bcd60e51b8152600401620004e190620015be565b6000338b8b888b8b8e600460009054906101000a90046001600160a01b0316600260009054906101000a90046001600160a01b03168d8d60058054905060405162000dee9062001027565b62000e059c9b9a9998979695949392919062001431565b604051809103906000f08015801562000e22573d6000803e3d6000fd5b50600580546001808201835560008381527f036b6384b5eca791c62761152d0c79bb0604c104a5fb6f4eb0703f3154bb3db090920180546001600160a01b0319166001600160a01b03861617905591549293509162000e819162000fab565b33600081815260066020908152604080832080546001810182559084529183209091018490555192935090916001600160a01b038516917fb52f284a6c14f1a66ab5513b5b539066933e58e69e6432666f0e3c8c8a7d750391a3505050505050505050505050565b62000ef362000fa7565b6000546001600160a01b0390811691161462000f235760405162461bcd60e51b8152600401620004e190620017d4565b6001600160a01b03811662000f4c5760405162461bcd60e51b8152600401620004e1906200166f565b600080546040516001600160a01b03808516939216917f8be0079c531659141344cd1fd0a4f28419497f9722a3daafe3b4186f6b6457e091a3600080546001600160a01b0319166001600160a01b0392909216919091179055565b3390565b600062000fef83836040518060400160405280601e81526020017f536166654d6174683a207375627472616374696f6e206f766572666c6f77000081525062000ff8565b90505b92915050565b600081848411156200101f5760405162461bcd60e51b8152600401620004e19190620015a9565b505050900390565b6142cb806200194d83390190565b803562000ff28162001916565b600082601f83011262001053578081fd5b813567ffffffffffffffff8111156200106a578182fd5b60208082026200107c828201620018ee565b838152935081840185830182870184018810156200109957600080fd5b600092505b84831015620010be5780358252600192909201919083019083016200109e565b505050505092915050565b60008083601f840112620010db578081fd5b50813567ffffffffffffffff811115620010f3578182fd5b60208301915083602080830285010111156200110e57600080fd5b9250929050565b803562000ff2816200192f565b803562000ff2816200193e565b60006020828403121562001141578081fd5b81356200114e8162001916565b9392505050565b60006020828403121562001167578081fd5b81516200114e8162001916565b60006020828403121562001186578081fd5b81516200114e816200192f565b60008060008060008060008060e0898b031215620011af578384fd5b8835620011bc8162001916565b975060208981013567ffffffffffffffff80821115620011da578687fd5b818c0191508c601f830112620011ee578687fd5b813581811115620011fd578788fd5b62001211601f8201601f19168501620018ee565b8181528e8583860101111562001225578889fd5b818585018683013790810184018890529950620012468d60408e0162001122565b985060608c01359250808311156200125c578687fd5b6200126a8d848e01620010c9565b93509150819750829650620012838d60808e0162001035565b9550620012948d60a08e0162001115565b945060c08c0135925080831115620012aa578384fd5b5050620012ba8b828c0162001042565b9150509295985092959890939650565b600060208284031215620012dc578081fd5b81516200114e816200193e565b600060208284031215620012fb578081fd5b5035919050565b6000806040838503121562001315578182fd5b823591506020830135620013298162001916565b809150509250929050565b60008060006060848603121562001349578283fd5b835192506020840151915060408401516003811062001366578182fd5b809150509250925092565b6001600160a01b03169052565b6000815180845260208085019450808401835b83811015620013af5781518752958201959082019060010162001391565b509495945050505050565b15159052565b60068110620013cb57fe5b9052565b60008151808452815b81811015620013f657602081850181015186830182015201620013d8565b81811115620014085782602083870101525b50601f01601f19169290920160200192915050565b6001600160a01b0391909116815260200190565b600060018060a01b03808f168352808e16602084015261016060408401526200145f61016084018e620013cf565b8c8216606085015283810360808501528a81526001600160fb1b038b111562001486578283fd5b60208b029150818c60208301370160208101828152620014aa60a085018b620013c0565b620014b960c085018a62001371565b620014c860e085018962001371565b620014d8610100850188620013ba565b602084830301610120850152620014f081876200137e565b92505050826101408301529d9c50505050505050505050505050565b6001600160a01b0392831681529116602082015260400190565b6020808252825182820181905260009190848201906040850190845b81811015620015695783516001600160a01b03168352928401929184019160010162001542565b50909695505050505050565b901515815260200190565b6020810162000ff28284620013c0565b60408101600684106200159f57fe5b9281526020015290565b60006020825262000fef6020830184620013cf565b60208082526023908201527f6d657373656e6765722061646472657373206973206e6f7420726567697374656040820152621c995960ea1b606082015260800190565b60208082526021908201527f534c4f206e6f742072656769737465726564206f6e20534c4f526567697374726040820152607960f81b606082015260800190565b60208082526013908201527214195c9a5bd9081a59081b9bdd081d985b1a59606a1b604082015260600190565b60208082526026908201527f4f776e61626c653a206e6577206f776e657220697320746865207a65726f206160408201526564647265737360d01b606082015260800190565b60208082526030908201527f534c4120636f6e74726163742077617320616c7265616479207665726966696560408201526f1908199bdc881d1a19481c195c9a5bd960821b606082015260800190565b60208082526028908201527f534c4120636f6e747261637420706572696f6420686173206e6f742066696e696040820152671cda1959081e595d60c21b606082015260800190565b6020808252601c908201527f506572696f647320696e666f726d6174696f6e20697320656d70747900000000604082015260600190565b60208082526030908201527f53686f756c64206f6e6c792062652063616c6c656420666f72206e6f7420627260408201526f65616368656420636f6e74726163747360801b606082015260800190565b6020808252818101527f4f776e61626c653a2063616c6c6572206973206e6f7420746865206f776e6572604082015260600190565b60208082526022908201527f506572696f642074797065206973206e6f7420696e697469616c697a65642079604082015261195d60f21b606082015260800190565b6020808252602c908201527f506572696f64204944206e6f74207265676973746572656420696e207468652060408201526b14d3104818dbdb9d1c9858dd60a21b606082015260800190565b6020808252601c908201527f506572696f64206964732073686f756c6420626520736f727465642000000000604082015260600190565b90815260200190565b9182526001600160a01b0316602082015260400190565b60405181810167ffffffffffffffff811182821017156200190e57600080fd5b604052919050565b6001600160a01b03811681146200192c57600080fd5b50565b80151581146200192c57600080fd5b600681106200192c57600080fdfe6080604052603c600855620f4240600955601e805460ff191690553480156200002757600080fd5b50604051620042cb380380620042cb8339810160408190526200004a9162000a78565b848487895186856000620000636200062860201b60201c565b600080546001600160a01b0319166001600160a01b038316908117825560405192935091600080516020620042ab833981519152908290a350600180546001600160a01b038089166001600160a01b0319928316178355600280549189169190921617905560118054869260ff1990911690836005811115620000e257fe5b021790555060128390556013805460ff191683151517905560015460408051637b8041cf60e11b815290516000928392839283926001600160a01b03169163f700839e916004808301926080929190829003018186803b1580156200014657600080fd5b505afa1580156200015b573d6000803e3d6000fd5b505050506040513d601f19601f8201168201806040525081019062000181919062000ba9565b9350935093509350600160009054906101000a90046001600160a01b03166001600160a01b0316638b8e53096040518163ffffffff1660e01b815260040160206040518083038186803b158015620001d857600080fd5b505afa158015620001ed573d6000803e3d6000fd5b505050506040513d601f19601f8201168201806040525081019062000213919062000a52565b600b80546001600160a01b0319166001600160a01b0392909216919091179055600d849055600e839055600f829055601081905562000252336200062c565b600b54600c80546001810182556000919091527fdf6966c971051c3d54ec59162606531493a51404a002842f56009d7e5cf4a8c70180546001600160a01b0319166001600160a01b0390921691909117905560038590556060620002b686620006cf565b9050606081604051602001620002cd919062000c54565b6040516020818303038152906040529050606082604051602001620002f3919062000cbe565b604051602081830303815290604052905060608360405160200162000319919062000c0d565b60405160208183030381529060405290506060846040516020016200033f919062000c8d565b60408051601f1981840301815290829052600154633350214760e11b83529092506000916001600160a01b03909116906366a0428e9062000387908890889060040162000ce2565b602060405180830381600087803b158015620003a257600080fd5b505af1158015620003b7573d6000803e3d6000fd5b505050506040513d601f19601f82011682018060405250810190620003dd919062000a52565b600154604051633350214760e11b81529192506000916001600160a01b03909116906366a0428e9062000417908790879060040162000ce2565b602060405180830381600087803b1580156200043257600080fd5b505af115801562000447573d6000803e3d6000fd5b505050506040513d601f19601f820116820180604052508101906200046d919062000a52565b90508160066000600b60009054906101000a90046001600160a01b03166001600160a01b03166001600160a01b0316815260200190815260200160002060006101000a8154816001600160a01b0302191690836001600160a01b031602179055508060076000600b60009054906101000a90046001600160a01b03166001600160a01b03166001600160a01b0316815260200190815260200160002060006101000a8154816001600160a01b0302191690836001600160a01b0316021790555050505050505050505050505050505050506200054f8b620007b460201b60201c565b8851620005649060169060208c019062000861565b50601a80546001600160a01b03808b166001600160a01b03199283161790925560198054909116331790556017805491861661010002610100600160a81b031990921691909117905543601c558651620005c69060189060208a0190620008e6565b506017805487919060ff19166001836005811115620005e157fe5b0217905550601580546001600160a01b0319166001600160a01b038c1617905581516200061690601d906020850190620008e6565b50505050505050505050505062000e59565b3390565b6200063662000628565b6000546001600160a01b039081169116146200066f5760405162461bcd60e51b8152600401620006669062000d91565b60405180910390fd5b6001600160a01b03811660009081526014602052604090205460ff1615620006ab5760405162461bcd60e51b8152600401620006669062000d14565b6001600160a01b03166000908152601460205260409020805460ff19166001179055565b60608180620006f85750506040805180820190915260018152600360fc1b6020820152620007af565b8060005b81156200071257600101600a82049150620006fc565b6060816001600160401b03811180156200072b57600080fd5b506040519080825280601f01601f19166020018201604052801562000757576020820181803683370190505b50905060001982015b8415620007a857600a850660300160f81b828280600190039350815181106200078557fe5b60200101906001600160f81b031916908160001a905350600a8504945062000760565b5093505050505b919050565b620007be62000628565b6000546001600160a01b03908116911614620007ee5760405162461bcd60e51b8152600401620006669062000d91565b6001600160a01b038116620008175760405162461bcd60e51b8152600401620006669062000d4b565b600080546040516001600160a01b0380851693921691600080516020620042ab83398151915291a3600080546001600160a01b0319166001600160a01b0392909216919091179055565b828054600181600116156101000203166002900490600052602060002090601f016020900481019282601f10620008a457805160ff1916838001178555620008d4565b82800160010185558215620008d4579182015b82811115620008d4578251825591602001919060010190620008b7565b50620008e292915062000923565b5090565b828054828255906000526020600020908101928215620008d45791602002820182811115620008d4578251825591602001919060010190620008b7565b5b80821115620008e2576000815560010162000924565b8051620009478162000e40565b92915050565b600082601f8301126200095e578081fd5b8151620009756200096f8262000ded565b62000dc6565b8181529150602080830190848101818402860182018710156200099757600080fd5b60005b84811015620009b8578151845292820192908201906001016200099a565b505050505092915050565b805180151581146200094757600080fd5b8051600681106200094757600080fd5b600082601f830112620009f5578081fd5b81516001600160401b0381111562000a0b578182fd5b62000a20601f8201601f191660200162000dc6565b915080825283602082850101111562000a3857600080fd5b62000a4b81602084016020860162000e0d565b5092915050565b60006020828403121562000a64578081fd5b815162000a718162000e40565b9392505050565b60008060008060008060008060008060006101608c8e03121562000a9a578687fd5b62000aa68d8d6200093a565b9a5062000ab78d60208e016200093a565b60408d0151909a506001600160401b0381111562000ad3578788fd5b62000ae18e828f01620009e4565b99505062000af38d60608e016200093a565b60808d01519098506001600160401b0381111562000b0f578788fd5b62000b1d8e828f016200094d565b97505062000b2f8d60a08e01620009d4565b955062000b408d60c08e016200093a565b945062000b518d60e08e016200093a565b935062000b638d6101008e01620009c3565b6101208d01519093506001600160401b0381111562000b80578283fd5b62000b8e8e828f016200094d565b9250506101408c015190509295989b509295989b9093969950565b6000806000806080858703121562000bbf578384fd5b505082516020840151604085015160609095015191969095509092509050565b6000815180845262000bf981602086016020860162000e0d565b601f01601f19169290920160200192915050565b60007f44534c412d50524f56494445522d44534c412d000000000000000000000000008252825162000c4781601385016020870162000e0d565b9190910160130192915050565b60006e44534c412d555345522d44534c412d60881b8252825162000c8081600f85016020870162000e0d565b91909101600f0192915050565b600066647044534c412d60c81b8252825162000cb181600785016020870162000e0d565b9190910160070192915050565b600066647544534c412d60c81b8252825162000cb181600785016020870162000e0d565b60006040825262000cf7604083018562000bdf565b828103602084015262000d0b818562000bdf565b95945050505050565b60208082526018908201527f5573657220616c72656164792077686974656c69737465640000000000000000604082015260600190565b60208082526026908201527f4f776e61626c653a206e6577206f776e657220697320746865207a65726f206160408201526564647265737360d01b606082015260800190565b6020808252818101527f4f776e61626c653a2063616c6c6572206973206e6f7420746865206f776e6572604082015260600190565b6040518181016001600160401b038111828210171562000de557600080fd5b604052919050565b60006001600160401b0382111562000e03578081fd5b5060209081020190565b60005b8381101562000e2a57818101518382015260200162000e10565b8381111562000e3a576000848401525b50505050565b6001600160a01b038116811462000e5657600080fd5b50565b6134428062000e696000396000f3fe608060405234801561001057600080fd5b50600436106102745760003560e01c806378025ec411610151578063cbe230c3116100c3578063f2db10fe11610087578063f2db10fe146104ee578063f2fde38b146104f6578063f7e9dfff14610509578063f9902bb114610511578063fbbf93a014610524578063fd5e6dd11461053e57610274565b8063cbe230c3146104b0578063cd92890e146104c3578063d7a5c422146104cb578063db69a462146104de578063ee575c28146104e657610274565b80639b19251a116101155780639b19251a146104685780639fc4caa51461047b578063a224ee9c14610483578063b18ac9181461048b578063b7bc347e14610493578063c623674f1461049b57610274565b806378025ec41461041b5780637fd788aa1461042e5780638d4f567d146104365780638da5cb5b1461043e5780639ab4438f1461044657610274565b8063484fbf2b116101ea5780635c1c20de116101ae5780635c1c20de146103bf5780635e5f2e26146103c7578063639b6fc3146103da5780636f1e8533146103ed578063715018a614610400578063747b80501461040857610274565b8063484fbf2b146103455780634e0c91f6146103585780634fb2647e14610378578063524f07351461038b57806357ac94f01461039e57610274565b806318e454271161023c57806318e45427146102f25780631bf30929146102fa5780631fc2cd931461030257806327cd727c146103155780632eb8197a1461032857806346e0fbae1461033057610274565b8063021eef7f146102795780630ae9ea45146102a25780630bea440d146102c25780630c5160f4146102d7578063171e44ea146102df575b600080fd5b61028c610287366004612a3d565b610551565b6040516102999190612d9a565b60405180910390f35b6102b56102b0366004612a3d565b61059b565b6040516102999190612da5565b6102d56102d0366004612a6d565b6105b9565b005b6102b561071a565b6102d56102ed36600461291f565b610720565b61028c610ae9565b6102b5610af2565b6102d561031036600461291f565b610af8565b6102d5610323366004612a6d565b610d60565b6102b5610eb8565b610338610ebe565b6040516102999190612dae565b6102b561035336600461291f565b610ec7565b61036b61036636600461291f565b610ed9565b6040516102999190612c85565b61036b61038636600461291f565b610ef4565b6102d561039936600461291f565b610f0f565b6103b16103ac366004612957565b610f1b565b604051610299929190612cb3565b6102b56110e2565b61036b6103d5366004612a3d565b6110e8565b6102b56103e836600461291f565b61110f565b61028c6103fb36600461291f565b611121565b6102d5611173565b6102d561041636600461291f565b6111f2565b6102b5610429366004612a3d565b611284565b61028c611291565b6102b561129a565b61036b6112a0565b610459610454366004612a3d565b6112af565b60405161029993929190613386565b61028c61047636600461291f565b6112d3565b61036b6112e8565b61036b6112fc565b6102b561130b565b6102b5611311565b6104a3611317565b6040516102999190612dda565b61028c6104be36600461291f565b6113a5565b61036b6113f7565b6102d56104d9366004612a9c565b611406565b61036b6116c2565b6102b56116d1565b6102b56116d7565b6102d561050436600461291f565b6116dd565b61036b611793565b6102d561051f36600461291f565b6117a2565b61052c611835565b60405161029996959493929190612cf0565b61036b61054c366004612a3d565b611b79565b6000805b60185481101561059057826018828154811061056d57fe5b90600052602060002001541415610588576001915050610596565b600101610555565b50600090505b919050565b601881815481106105a857fe5b600091825260209091200154905081565b600082116105e25760405162461bcd60e51b81526004016105d990613246565b60405180910390fd5b601e5460ff16156106055760405162461bcd60e51b81526004016105d99061319a565b61060f8282611b86565b60195460408051636830483560e01b815290516000926001600160a01b0316916368304835916004808301926020929190829003018186803b15801561065457600080fd5b505afa158015610668573d6000803e3d6000fd5b505050506040513d601f19601f8201168201806040525081019061068c919061293b565b601954604051637852389760e01b81529192506001600160a01b03808416926378523897926106c2923392911690600401612c99565b602060405180830381600087803b1580156106dc57600080fd5b505af11580156106f0573d6000803e3d6000fd5b505050506040513d601f19601f820116820180604052508101906107149190612982565b50505050565b60125481565b610728611f66565b6000546001600160a01b039081169116146107555760405162461bcd60e51b81526004016105d990613165565b61075e816113a5565b1561077b5760405162461bcd60e51b81526004016105d9906131e2565b60015460405163cbe230c360e01b81526001600160a01b039091169063cbe230c3906107ab908490600401612c85565b60206040518083038186803b1580156107c357600080fd5b505afa1580156107d7573d6000803e3d6000fd5b505050506040513d601f19601f820116820180604052508101906107fb9190612982565b151560011461081c5760405162461bcd60e51b81526004016105d990612f49565b600c80546001810182556000919091527fdf6966c971051c3d54ec59162606531493a51404a002842f56009d7e5cf4a8c70180546001600160a01b0319166001600160a01b03831617905560035460609061087690611f6a565b90506060826001600160a01b03166395d89b416040518163ffffffff1660e01b815260040160006040518083038186803b1580156108b357600080fd5b505afa1580156108c7573d6000803e3d6000fd5b505050506040513d6000823e601f3d908101601f191682016040526108ef91908101906129a2565b905060608183604051602001610906929190612c33565b60405160208183030381529060405290506060828460405160200161092c929190612b76565b604051602081830303815290604052905060608385604051602001610952929190612bc0565b604051602081830303815290604052905060608486604051602001610978929190612c16565b60408051601f1981840301815290829052600154633350214760e11b83529092506000916001600160a01b03909116906366a0428e906109be9088908890600401612ded565b602060405180830381600087803b1580156109d857600080fd5b505af11580156109ec573d6000803e3d6000fd5b505050506040513d601f19601f82011682018060405250810190610a10919061293b565b600154604051633350214760e11b81529192506000916001600160a01b03909116906366a0428e90610a489087908790600401612ded565b602060405180830381600087803b158015610a6257600080fd5b505af1158015610a76573d6000803e3d6000fd5b505050506040513d601f19601f82011682018060405250810190610a9a919061293b565b6001600160a01b03998a1660009081526007602090815260408083208054948e166001600160a01b031995861617905560069091529020805493909a1692169190911790975550505050505050565b60135460ff1681565b601c5481565b610b006112a0565b6001600160a01b0316336001600160a01b03161415610b315760405162461bcd60e51b81526004016105d990613333565b60135460ff16151560011415610b75573360009081526014602052604090205460ff161515600114610b755760405162461bcd60e51b81526004016105d990613038565b6001600160a01b038082166000908152600660205260408082205490516370a0823160e01b815292169182906370a0823190610bb5903390600401612c85565b60206040518083038186803b158015610bcd57600080fd5b505afa158015610be1573d6000803e3d6000fd5b505050506040513d601f19601f82011682018060405250810190610c059190612a55565b90506000826001600160a01b03166318160ddd6040518163ffffffff1660e01b815260040160206040518083038186803b158015610c4257600080fd5b505afa158015610c56573d6000803e3d6000fd5b505050506040513d601f19601f82011682018060405250810190610c7a9190612a55565b905061271082610c9c5760405162461bcd60e51b81526004016105d990612fdb565b6000610cb283610cac8685612045565b90612088565b6001600160a01b03871660009081526005602052604081205491925090610cdf908490610cac9085612045565b60405163079cc67960e41b81529091506001600160a01b038716906379cc679090610d109033908990600401612cb3565b600060405180830381600087803b158015610d2a57600080fd5b505af1158015610d3e573d6000803e3d6000fd5b50610d57925050506001600160a01b03881633836120ca565b50505050505050565b60008211610d805760405162461bcd60e51b81526004016105d990613246565b60188054600091906000198101908110610d9657fe5b600091825260208220015460175460405160016259edcb60e01b031981529193506001600160a01b036101008204169163ffa6123591610de09160ff909116908690600401612dc2565b604080518083038186803b158015610df757600080fd5b505afa158015610e0b573d6000803e3d6000fd5b505050506040513d601f19601f82011682018060405250810190610e2f9190612abd565b915050610e3a6112a0565b6001600160a01b0316336001600160a01b031614610eae57601e5460ff16151560011480610e925750804210158015610e9257506000828152601b6020526040812060029081015460ff1690811115610e8f57fe5b14155b610eae5760405162461bcd60e51b81526004016105d990612e4d565b6107148484612120565b60105481565b60175460ff1681565b60056020526000908152604090205481565b6006602052600090815260409020546001600160a01b031681565b6007602052600090815260409020546001600160a01b031681565b610f1881610af8565b50565b6000806000600c8481548110610f2d57fe5b6000918252602090912001546001600160a01b03169050610f4c6112a0565b6001600160a01b0316856001600160a01b03161415610f88576001600160a01b03811660009081526004602052604090205490925090506110db565b6001600160a01b038082166000908152600660205260408082205490516370a0823160e01b815292169182906370a0823190610fc8903390600401612c85565b60206040518083038186803b158015610fe057600080fd5b505afa158015610ff4573d6000803e3d6000fd5b505050506040513d601f19601f820116820180604052508101906110189190612a55565b90506000826001600160a01b03166318160ddd6040518163ffffffff1660e01b815260040160206040518083038186803b15801561105557600080fd5b505afa158015611069573d6000803e3d6000fd5b505050506040513d601f19601f8201168201806040525081019061108d9190612a55565b905061271060006110a283610cac8685612045565b6001600160a01b03871660009081526005602052604090205490915086906110d0908490610cac9085612045565b975097505050505050505b9250929050565b600d5481565b600c81815481106110f557fe5b6000918252602090912001546001600160a01b0316905081565b60046020526000908152604090205481565b6000805b600a5481101561059057826001600160a01b0316600a828154811061114657fe5b6000918252602090912001546001600160a01b0316141561116b576001915050610596565b600101611125565b61117b611f66565b6000546001600160a01b039081169116146111a85760405162461bcd60e51b81526004016105d990613165565b600080546040516001600160a01b03909116907f8be0079c531659141344cd1fd0a4f28419497f9722a3daafe3b4186f6b6457e0908390a3600080546001600160a01b0319169055565b6111fa611f66565b6000546001600160a01b039081169116146112275760405162461bcd60e51b81526004016105d990613165565b6001600160a01b03811660009081526014602052604090205460ff16156112605760405162461bcd60e51b81526004016105d990612e1b565b6001600160a01b03166000908152601460205260409020805460ff19166001179055565b601d81815481106105a857fe5b601e5460ff1690565b60085481565b6000546001600160a01b031690565b601b6020526000908152604090208054600182015460029092015490919060ff1683565b60146020526000908152604090205460ff1681565b60175461010090046001600160a01b031681565b601a546001600160a01b031681565b600f5481565b600c5490565b6016805460408051602060026001851615610100026000190190941693909304601f8101849004840282018401909252818152929183018282801561139d5780601f106113725761010080835404028352916020019161139d565b820191906000526020600020905b81548152906001019060200180831161138057829003601f168201915b505050505081565b6000805b600c5481101561059057826001600160a01b0316600c82815481106113ca57fe5b6000918252602090912001546001600160a01b031614156113ef576001915050610596565b6001016113a9565b6015546001600160a01b031681565b601a546001600160a01b031633146114305760405162461bcd60e51b81526004016105d990612f96565b7fc95987c1992805ee34bdc915e017cceae36ba1c156b9911fa7e691e6435eb46e428383604051611463939291906133ab565b60405180910390a16000818152601b60209081526040808320600181018690554281556015548251633fa4f24560e01b815292519194936001600160a01b0390911692633fa4f2459260048083019392829003018186803b1580156114c757600080fd5b505afa1580156114db573d6000803e3d6000fd5b505050506040513d601f19601f820116820180604052508101906114ff9190612a55565b6015546040516303c8f2e360e21b81529192506001600160a01b031690630f23cb8c90611530908790600401612da5565b60206040518083038186803b15801561154857600080fd5b505afa15801561155c573d6000803e3d6000fd5b505050506040513d601f19601f820116820180604052508101906115809190612982565b1561165d576002828101805460ff19166001179055612710906000906115c2906115ae90610cac8987612304565b610cac846115bc8a88612329565b90612045565b905060006115fc60016115f660186000815481106115dc57fe5b90600052602060002001548961232990919063ffffffff16565b90612304565b60188054919250600091600019810190811061161457fe5b906000526020600020015487141561163657611631606485612045565b611647565b60185461164790610cac8585612045565b905061165487828661236b565b50505050610714565b6002828101805460ff191690911790556116756124d2565b601e805460ff191660011790556040517fbd33f7a3bfa88a467c9df5ae7d2341cf061084c386b20a0d48130f5cbce38a4d906116b49085908790613378565b60405180910390a150505050565b6019546001600160a01b031681565b600e5481565b60035481565b6116e5611f66565b6000546001600160a01b039081169116146117125760405162461bcd60e51b81526004016105d990613165565b6001600160a01b0381166117385760405162461bcd60e51b81526004016105d990612ecc565b600080546040516001600160a01b03808516939216917f8be0079c531659141344cd1fd0a4f28419497f9722a3daafe3b4186f6b6457e091a3600080546001600160a01b0319166001600160a01b0392909216919091179055565b600b546001600160a01b031681565b6117aa611f66565b6000546001600160a01b039081169116146117d75760405162461bcd60e51b81526004016105d990613165565b6001600160a01b03811660009081526014602052604090205460ff1615156001146118145760405162461bcd60e51b81526004016105d990613272565b6001600160a01b03166000908152601460205260409020805460ff19169055565b6000606060006060600060606118496112a0565b60168054604080516020601f600260001961010060018816150201909516949094049384018190048102820181019092528281529399508301828280156118d15780601f106118a6576101008083540402835291602001916118d1565b820191906000526020600020905b8154815290600101906020018083116118b457829003601f168201915b50506015546018549499506001600160a01b031697505067ffffffffffffffff8311915050801561190157600080fd5b5060405190808252806020026020018201604052801561193b57816020015b6119286128dd565b8152602001906001900390816119205790505b50925060005b601854811015611a185760006018828154811061195a57fe5b9060005260206000200154905061196f6128dd565b6000828152601b6020908152604091829020825160608101845281548152600182015492810192909252600280820154929391929184019160ff16908111156119b457fe5b60028111156119bf57fe5b81525050905060405180606001604052808260000151815260200182602001518152602001826040015160028111156119f457fe5b815250868481518110611a0357fe5b60209081029190910101525050600101611941565b50600a54600c5490925067ffffffffffffffff81118015611a3857600080fd5b50604051908082528060200260200182016040528015611a7257816020015b611a5f612908565b815260200190600190039081611a575790505b50905060005b600c54811015611b70576040518060400160405280600c8381548110611a9a57fe5b9060005260206000200160009054906101000a90046001600160a01b03166001600160a01b0316815260200160046000600c8581548110611ad757fe5b9060005260206000200160009054906101000a90046001600160a01b03166001600160a01b03166001600160a01b031681526020019081526020016000205460056000600c8681548110611b2757fe5b60009182526020808320909101546001600160a01b031683528201929092526040019020540190528251839083908110611b5d57fe5b6020908102919091010152600101611a78565b50909192939495565b600a81815481106110f557fe5b80611b90816113a5565b1515600114611bb15760405162461bcd60e51b81526004016105d990613137565b60135460ff16151560011415611bf5573360009081526014602052604090205460ff161515600114611bf55760405162461bcd60e51b81526004016105d990613038565b611c0a6001600160a01b0383163330866125b7565b611c126112a0565b6001600160a01b0316336001600160a01b031614611d4d576001600160a01b03821660009081526004602090815260408083205460059092529091205481611c5a8287612304565b1115611c785760405162461bcd60e51b81526004016105d9906132a0565b6001600160a01b038416600090815260056020526040902054611c9b9086612304565b6001600160a01b038516600090815260056020526040812091909155600854600954611ccd9190610cac908990612045565b6001600160a01b03808716600090815260066020526040908190205490516340c10f1960e01b8152929350169081906340c10f1990611d129033908690600401612cb3565b600060405180830381600087803b158015611d2c57600080fd5b505af1158015611d40573d6000803e3d6000fd5b5050505050505050611f11565b6001600160a01b0380831660009081526007602090815260408083205481516318160ddd60e01b8152915194169384926318160ddd9260048082019391829003018186803b158015611d9e57600080fd5b505afa158015611db2573d6000803e3d6000fd5b505050506040513d601f19601f82011682018060405250810190611dd69190612a55565b6001600160a01b03851660009081526004602052604090205490915081611e5c576040516340c10f1960e01b81526001600160a01b038416906340c10f1990611e259033908a90600401612cb3565b600060405180830381600087803b158015611e3f57600080fd5b505af1158015611e53573d6000803e3d6000fd5b50505050611ed1565b6000611e6c82610cac8986612045565b6040516340c10f1960e01b81529091506001600160a01b038516906340c10f1990611e9d9033908590600401612cb3565b600060405180830381600087803b158015611eb757600080fd5b505af1158015611ecb573d6000803e3d6000fd5b50505050505b6001600160a01b038516600090815260046020526040902054611ef49087612304565b6001600160a01b0386166000908152600460205260409020555050505b611f1a33611121565b611f6157600a80546001810182556000919091527fc65a7bb8d6351c1cf70c95a316cc6a92839c986682d98bc35f958f4883f9d2a80180546001600160a01b031916331790555b505050565b3390565b60608180611f915750506040805180820190915260018152600360fc1b6020820152610596565b8060005b8115611fa957600101600a82049150611f95565b60608167ffffffffffffffff81118015611fc257600080fd5b506040519080825280601f01601f191660200182016040528015611fed576020820181803683370190505b50905060001982015b841561203b57600a850660300160f81b8282806001900393508151811061201957fe5b60200101906001600160f81b031916908160001a905350600a85049450611ff6565b5095945050505050565b60008261205457506000612082565b8282028284828161206157fe5b041461207f5760405162461bcd60e51b81526004016105d9906130f6565b90505b92915050565b600061207f83836040518060400160405280601a81526020017f536166654d6174683a206469766973696f6e206279207a65726f0000000000008152506125d8565b611f618363a9059cbb60e01b84846040516024016120e9929190612cb3565b60408051601f198184030181529190526020810180516001600160e01b03166001600160e01b03199093169290921790915261260f565b8061212a816113a5565b151560011461214b5760405162461bcd60e51b81526004016105d990613137565b6001600160a01b0382166000908152600460209081526040808320546005909252909120548061217b8387612329565b10156121995760405162461bcd60e51b81526004016105d990613069565b6001600160a01b0380851660009081526007602090815260408083205481516318160ddd60e01b8152915194169384926318160ddd9260048082019391829003018186803b1580156121ea57600080fd5b505afa1580156121fe573d6000803e3d6000fd5b505050506040513d601f19601f820116820180604052508101906122229190612a55565b6001600160a01b03871660009081526004602052604081205491925061224c82610cac8b86612045565b60405163079cc67960e41b81529091506001600160a01b038516906379cc67909061227d9033908590600401612cb3565b600060405180830381600087803b15801561229757600080fd5b505af11580156122ab573d6000803e3d6000fd5b5050506001600160a01b0389166000908152600460205260409020546122d291508a612329565b6001600160a01b0389166000818152600460205260409020919091556122f990338b6120ca565b505050505050505050565b60008282018381101561207f5760405162461bcd60e51b81526004016105d990612f12565b600061207f83836040518060400160405280601e81526020017f536166654d6174683a207375627472616374696f6e206f766572666c6f77000081525061269e565b60005b600c548110156124af576000600c828154811061238757fe5b60009182526020808320909101546001600160a01b031680835260059091526040822054909250906123c060648602610cac8489612045565b6001600160a01b0384166000908152600560205260409020549091506123e69082612329565b6001600160a01b03808516600081815260056020526040902092909255600b54161415612428576000612418826126ca565b90506124248282612329565b9150505b6001600160a01b03831660009081526004602052604090205461244b9082612304565b6001600160a01b0384166000818152600460205260409081902092909255905188907f5b198a5cc7fe2897f7df50e07dfc99fb672c1b4c1d1c0b3d2fe4f8f386dabc769061249c908a908690613378565b60405180910390a350505060010161236e565b506124ca81610cac6124c18286612329565b60085490612045565b600855505050565b60005b600c54811015610f18576000600c82815481106124ee57fe5b60009182526020808320909101546001600160a01b03168083526005825260408084205460049093529092205491925090819061252b9082612329565b6001600160a01b03808516600081815260046020526040902092909255600b5416141561256d57600061255d826126ca565b90506125698282612329565b9150505b6001600160a01b0383166000908152600560205260409020546125909082612304565b6001600160a01b0390931660009081526005602052604090209290925550506001016124d5565b610714846323b872dd60e01b8585856040516024016120e993929190612ccc565b600081836125f95760405162461bcd60e51b81526004016105d99190612dda565b50600083858161260557fe5b0495945050505050565b6060612664826040518060400160405280602081526020017f5361666545524332303a206c6f772d6c6576656c2063616c6c206661696c6564815250856001600160a01b03166127fc9092919063ffffffff16565b805190915015611f6157808060200190518101906126829190612982565b611f615760405162461bcd60e51b81526004016105d9906132e9565b600081848411156126c25760405162461bcd60e51b81526004016105d99190612dda565b505050900390565b60408051808201909152600d8082526c6275726e2875696e743235362960981b602090920191909152546000907f42966c689b5afe9b9b3f8a7103b2a19980d59629bfd6a20a60972312ed41d8369061272c906103e890610cac908690612045565b600b546040519193506000916001600160a01b03909116908390612754908690602401612da5565b60408051601f198184030181529181526020820180516001600160e01b03166001600160e01b03199094169390931790925290516127929190612b5a565b6000604051808303816000865af19150503d80600081146127cf576040519150601f19603f3d011682016040523d82523d6000602084013e6127d4565b606091505b50509050806127f55760405162461bcd60e51b81526004016105d9906130b2565b5050919050565b606061280b8484600085612813565b949350505050565b606061281e856128d7565b61283a5760405162461bcd60e51b81526004016105d99061320f565b60006060866001600160a01b031685876040516128579190612b5a565b60006040518083038185875af1925050503d8060008114612894576040519150601f19603f3d011682016040523d82523d6000602084013e612899565b606091505b509150915081156128ad57915061280b9050565b8051156128bd5780518082602001fd5b8360405162461bcd60e51b81526004016105d99190612dda565b3b151590565b604051806060016040528060008152602001600081526020016000600281111561290357fe5b905290565b604080518082019091526000808252602082015290565b600060208284031215612930578081fd5b813561207f816133f7565b60006020828403121561294c578081fd5b815161207f816133f7565b60008060408385031215612969578081fd5b8235612974816133f7565b946020939093013593505050565b600060208284031215612993578081fd5b8151801515811461207f578182fd5b6000602082840312156129b3578081fd5b815167ffffffffffffffff808211156129ca578283fd5b818401915084601f8301126129dd578283fd5b8151818111156129eb578384fd5b604051601f8201601f191681016020018381118282101715612a0b578586fd5b604052818152838201602001871015612a22578485fd5b612a338260208301602087016133c1565b9695505050505050565b600060208284031215612a4e578081fd5b5035919050565b600060208284031215612a66578081fd5b5051919050565b60008060408385031215612a7f578182fd5b823591506020830135612a91816133f7565b809150509250929050565b60008060408385031215612aae578182fd5b50508035926020909101359150565b60008060408385031215612acf578182fd5b505080516020909101519092909150565b6000815180845260208085019450808401835b83811015612b2357815180516001600160a01b031688528301518388015260409096019590820190600101612af3565b509495945050505050565b60008151808452612b468160208601602086016133c1565b601f01601f19169290920160200192915050565b60008251612b6c8184602087016133c1565b9190910192915050565b600061647560f01b82528351612b938160028501602088016133c1565b602d60f81b6002918401918201528351612bb48160038401602088016133c1565b01600301949350505050565b60006d44534c412d50524f56494445522d60901b82528351612be981600e8501602088016133c1565b602d60f81b600e918401918201528351612c0a81600f8401602088016133c1565b01600f01949350505050565b600061064760f41b82528351612b938160028501602088016133c1565b60006944534c412d555345522d60b01b82528351612c5881600a8501602088016133c1565b602d60f81b600a918401918201528351612c7981600b8401602088016133c1565b01600b01949350505050565b6001600160a01b0391909116815260200190565b6001600160a01b0392831681529116602082015260400190565b6001600160a01b03929092168252602082015260400190565b6001600160a01b039384168152919092166020820152604081019190915260600190565b600060018060a01b038089168352602060c081850152612d1360c085018a612b2e565b6040838a168187015260609350858203848701528189518084528484019150848b019350865b81811015612d6f578451805184528681015187850152840151612d5b816133ed565b838501529385019391860191600101612d39565b505088608088015286810360a0880152612d898189612ae0565b9d9c50505050505050505050505050565b901515815260200190565b90815260200190565b6020810160068310612dbc57fe5b91905290565b6040810160068410612dd057fe5b9281526020015290565b60006020825261207f6020830184612b2e565b600060408252612e006040830185612b2e565b8281036020840152612e128185612b2e565b95945050505050565b602080825260189082015277155cd95c88185b1c9958591e481dda1a5d195b1a5cdd195960421b604082015260600190565b60208082526059908201527f43616e206f6e6c79207769746864726177207374616b6520616674657220746860408201527f652066696e616c20706572696f642069732066696e6973686564206f72206966606082015278081d1a194818dbdb9d1c9858dd081a5cc8189c995858da1959603a1b608082015260a00190565b60208082526026908201527f4f776e61626c653a206e6577206f776e657220697320746865207a65726f206160408201526564647265737360d01b606082015260800190565b6020808252601b908201527f536166654d6174683a206164646974696f6e206f766572666c6f770000000000604082015260600190565b6020808252602d908201527f546f6b656e206e6f7420616c6c6f7765642062792074686520534c415265676960408201526c1cdd1c9e4818dbdb9d1c9858dd609a1b606082015260800190565b60208082526025908201527f4f6e6c79204d657373656e6765722063616e2063616c6c20746869732066756e60408201526431ba34b7b760d91b606082015260800190565b6020808252603a908201527f43616e206f6e6c7920636c61696d206120636f6d70656e736174696f6e20696660408201527f20706f736974696f6e20697320626967676572207468616e2030000000000000606082015260800190565b602080825260179082015276155cd95c881a5cc81b9bdd081dda1a5d195b1a5cdd1959604a1b604082015260600190565b60208082526029908201527f53686f756c64206e6f74207769746864726177206d6f7265207468616e207573604082015268657273207374616b6560b81b606082015260800190565b60208082526024908201527f44534c41206275726e2070726f6365737320776173206e6f74207375636365736040820152631cd99d5b60e21b606082015260800190565b60208082526021908201527f536166654d6174683a206d756c7469706c69636174696f6e206f766572666c6f6040820152607760f81b606082015260800190565b6020808252601490820152731d1bdad95b881a5cc81b9bdd08185b1b1bddd95960621b604082015260600190565b6020808252818101527f4f776e61626c653a2063616c6c6572206973206e6f7420746865206f776e6572604082015260600190565b60208082526028908201527f43616e206f6e6c79207374616b65206f6e206e6f7420627265616368656420636040820152676f6e74726163747360c01b606082015260800190565b602080825260139082015272151bdad95b88185b1c9958591e481859191959606a1b604082015260600190565b6020808252601d908201527f416464726573733a2063616c6c20746f206e6f6e2d636f6e7472616374000000604082015260600190565b6020808252601290820152710616d6f756e742063616e6e6f7420626520360741b604082015260600190565b602080825260149082015273155cd95c881b9bdd081dda1a5d195b1a5cdd195960621b604082015260600190565b60208082526029908201527f43616e6e6f74207374616b65206d6f7265207468616e20534c412070726f7669604082015268646572207374616b6560b81b606082015260800190565b6020808252602a908201527f5361666545524332303a204552433230206f7065726174696f6e20646964206e6040820152691bdd081cdd58d8d9595960b21b606082015260800190565b60208082526025908201527f53686f756c64206e6f742062652063616c6c65642062792074686520534c412060408201526437bbb732b960d91b606082015260800190565b918252602082015260400190565b838152602081018390526060810161339d836133ed565b826040830152949350505050565b9283526020830191909152604082015260600190565b60005b838110156133dc5781810151838201526020016133c4565b838111156107145750506000910152565b60038110610f1857fe5b6001600160a01b0381168114610f1857600080fdfea2646970667358221220a130106cc00f7803f2c1d0fa94e5b1641b51d62450a91f7ccaacea0a0c3b8e0e64736f6c634300060c00338be0079c531659141344cd1fd0a4f28419497f9722a3daafe3b4186f6b6457e0a26469706673582212200ade51d2d1592063cac01b8d4e778ab432f9f3714f7de0c7e1542247ffb5a8c064736f6c634300060c0033",
  "immutableReferences": {},
  "source": "// SPDX-License-Identifier: MIT\npragma solidity ^0.6.0;\npragma experimental ABIEncoderV2;\n\nimport \"@openzeppelin/contracts/math/SafeMath.sol\";\nimport \"@openzeppelin/contracts/token/ERC20/IERC20.sol\";\nimport \"@openzeppelin/contracts/access/Ownable.sol\";\nimport \"./SLA.sol\";\nimport \"./SLO.sol\";\nimport \"./SLORegistry.sol\";\nimport \"./PeriodRegistry.sol\";\nimport \"./MessengerRegistry.sol\";\nimport \"./StakeRegistry.sol\";\nimport \"./messenger/IMessenger.sol\";\n\n/**\n * @title SLARegistry\n * @dev SLARegistry is a contract for handling creation of service level\n * agreements and keeping track of the created agreements\n */\ncontract SLARegistry is Ownable {\n    using SafeMath for uint256;\n\n    /// @dev SLO registry\n    SLORegistry public sloRegistry;\n    /// @dev Periods registry\n    PeriodRegistry public periodRegistry;\n    /// @dev Messengers registry\n    MessengerRegistry public messengerRegistry;\n    /// @dev Stake registry\n    StakeRegistry public stakeRegistry;\n    /// @dev stores the addresses of created SLAs\n    SLA[] public SLAs;\n    /// @dev stores the indexes of service level agreements owned by an user\n    mapping(address => uint256[]) private userToSLAIndexes;\n\n    /**\n     * @dev event for service level agreement creation logging\n     * @param sla 1. The address of the created service level agreement contract\n     * @param owner 2. The address of the owner of the service level agreement\n     */\n    event SLACreated(SLA indexed sla, address indexed owner);\n\n    /**\n     * @dev constructor\n     * @param _sloRegistry 1. SLO Registry\n     * @param _periodRegistry 2. Periods registry\n     * @param _messengerRegistry 3. Messenger registry\n     * @param _stakeRegistry 4. Stake registry\n     */\n    constructor(\n        SLORegistry _sloRegistry,\n        PeriodRegistry _periodRegistry,\n        MessengerRegistry _messengerRegistry,\n        StakeRegistry _stakeRegistry\n    ) public {\n        sloRegistry = _sloRegistry;\n        periodRegistry = _periodRegistry;\n        stakeRegistry = _stakeRegistry;\n        messengerRegistry = _messengerRegistry;\n        messengerRegistry.setSLARegistry();\n    }\n\n    /**\n     * @dev public function for creating canonical service level agreements\n     * @param _SLO 1. SLO\n     * @param _ipfsHash 2. string with the ipfs hash that contains extra information about the service level agreement\n     * @param _periodType 3. period type\n     * @param _periodIds 4. array of allowed period ids\n     * @param _messengerAddress 5. address of the messenger for the corresponding SLA\n     * @param _whitelisted 6. bool to declare whitelisted SLA\n     * @param _extraData 7. bytes32 to embed extra data for customized workflows\n     */\n    function createSLA(\n        SLO _SLO,\n        string memory _ipfsHash,\n        PeriodRegistry.PeriodType _periodType,\n        uint256[] calldata _periodIds,\n        address _messengerAddress,\n        bool _whitelisted,\n        bytes32[] memory _extraData\n    ) public {\n        bool initialized = periodRegistry.periodDefinitions(_periodType);\n        require(initialized == true, \"Period type is not initialized yet\");\n        require(\n            sloRegistry.isRegisteredSLO(address(_SLO)) == true,\n            \"SLO not registered on SLORegistry\"\n        );\n        require(_periodIds.length > 0, \"Periods information is empty\");\n        // check if _periodIds are valid and sorted in ascendant order\n        for (uint256 index = 0; index < _periodIds.length; index++) {\n            bool validPeriod =\n                periodRegistry.isValidPeriod(_periodType, _periodIds[index]);\n            require(validPeriod, \"Period id not valid\");\n            if (index < _periodIds.length - 1) {\n                require(\n                    _periodIds[index] < _periodIds[index + 1],\n                    \"Period ids should be sorted \"\n                );\n            }\n        }\n        bool registeredMessenger =\n            messengerRegistry.registeredMessengers(_messengerAddress);\n        require(\n            registeredMessenger == true,\n            \"messenger address is not registered\"\n        );\n\n        SLA sla =\n            new SLA(\n                msg.sender,\n                _SLO,\n                _ipfsHash,\n                _messengerAddress,\n                _periodIds,\n                _periodType,\n                address(stakeRegistry),\n                address(periodRegistry),\n                _whitelisted,\n                _extraData,\n                SLAs.length\n            );\n\n        SLAs.push(sla);\n        uint256 index = SLAs.length.sub(1);\n        userToSLAIndexes[msg.sender].push(index);\n        emit SLACreated(sla, msg.sender);\n    }\n\n    /**\n     * @dev Gets SLI information for the specified SLA and SLO\n     * @param _periodId 1. id of the period\n     * @param _sla 2. SLA Address\n     */\n    function requestSLI(uint256 _periodId, SLA _sla) public {\n        bool breachedContract = _sla.breachedContract();\n        (, , SLA.Status status) = _sla.slaPeriods(_periodId);\n        require(\n            status == SLA.Status.NotVerified,\n            \"SLA contract was already verified for the period\"\n        );\n        require(\n            breachedContract == false,\n            \"Should only be called for not breached contracts\"\n        );\n        bool slaAllowedPeriodId = _sla.isAllowedPeriod(_periodId);\n        require(\n            slaAllowedPeriodId == true,\n            \"Period ID not registered in the SLA contract\"\n        );\n        PeriodRegistry.PeriodType slaPeriodType = _sla.periodType();\n        bool periodFinished =\n            periodRegistry.periodIsFinished(slaPeriodType, _periodId);\n        require(\n            periodFinished == true,\n            \"SLA contract period has not finished yet\"\n        );\n        address slaMessenger = _sla.messengerAddress();\n        IMessenger(slaMessenger).requestSLI(_periodId, address(_sla));\n    }\n\n    /**\n     * @dev function to declare this SLARegistry contract as SLARegistry of _messengerAddress\n     * @param _messengerAddress 1. address of the messenger\n     */\n\n    function setMessengerSLARegistryAddress(address _messengerAddress) public {\n        IMessenger(_messengerAddress).setSLARegistry();\n        messengerRegistry.registerMessenger(_messengerAddress, msg.sender);\n    }\n\n    /**\n     * @dev public view function that returns the service level agreements that\n     * the given user is the owner of\n     * @param _user Address of the user for which to return the service level\n     * agreements\n     * @return array of SLAs\n     */\n    function userSLAs(address _user) public view returns (SLA[] memory) {\n        uint256 count = userSLACount(_user);\n        SLA[] memory SLAList = new SLA[](count);\n        uint256[] memory userSLAIndexes = userToSLAIndexes[_user];\n\n        for (uint256 i = 0; i < count; i++) {\n            SLAList[i] = (SLAs[userSLAIndexes[i]]);\n        }\n\n        return (SLAList);\n    }\n\n    /**\n     * @dev public view function that returns the amount of service level\n     * agreements the given user is the owner of\n     * @param _user 1. address of the user for which to return the amount of\n     * service level agreements\n     * @return uint256 corresponding to the amount of user's SLAs\n     */\n    function userSLACount(address _user) public view returns (uint256) {\n        return userToSLAIndexes[_user].length;\n    }\n\n    /**\n     * @dev public view function that returns all the service level agreements\n     * @return SLA[] array of SLAs\n     */\n    function allSLAs() public view returns (SLA[] memory) {\n        return (SLAs);\n    }\n\n    /**\n     * @dev public view function that returns the total amount of service\n     * level agreements\n     * @return uint256, the length of SLA array\n     */\n    function SLACount() public view returns (uint256) {\n        return SLAs.length;\n    }\n\n    /**\n     * @dev public view function that returns true if _slaAddress was deployed using this SLARegistry\n     * @param _slaAddress address of the SLA to be checked\n     */\n    function isRegisteredSLA(address _slaAddress) public view returns (bool) {\n        for (uint256 index = 0; index < SLAs.length; index++) {\n            if (address(SLAs[index]) == _slaAddress) {\n                return true;\n            }\n        }\n        return false;\n    }\n}\n",
  "sourcePath": "/Users/matiasbn/Desktop/stacktical/stacktical-dsla-contracts/contracts/SLARegistry.sol",
  "compiler": {
    "name": "solc",
    "version": "0.6.12+commit.27d51765.Emscripten.clang"
  },
  "schemaVersion": "3.3.3",
  "updatedAt": "2021-02-26T19:23:49.298Z",
  "networkType": "ethereum",
  "devdoc": {
    "details": "SLARegistry is a contract for handling creation of service level agreements and keeping track of the created agreements",
    "events": {
      "SLACreated(address,address)": {
        "details": "event for service level agreement creation logging",
        "params": {
          "owner": "2. The address of the owner of the service level agreement",
          "sla": "1. The address of the created service level agreement contract"
        }
      }
    },
    "kind": "dev",
    "methods": {
      "SLACount()": {
        "details": "public view function that returns the total amount of service level agreements",
        "returns": {
          "_0": "uint256, the length of SLA array"
        }
      },
      "allSLAs()": {
        "details": "public view function that returns all the service level agreements",
        "returns": {
          "_0": "SLA[] array of SLAs"
        }
      },
      "constructor": {
        "details": "constructor",
        "params": {
          "_messengerRegistry": "3. Messenger registry",
          "_periodRegistry": "2. Periods registry",
          "_sloRegistry": "1. SLO Registry",
          "_stakeRegistry": "4. Stake registry"
        }
      },
      "createSLA(address,string,uint8,uint256[],address,bool,bytes32[])": {
        "details": "public function for creating canonical service level agreements",
        "params": {
          "_SLO": "1. SLO",
          "_extraData": "7. bytes32 to embed extra data for customized workflows",
          "_ipfsHash": "2. string with the ipfs hash that contains extra information about the service level agreement",
          "_messengerAddress": "5. address of the messenger for the corresponding SLA",
          "_periodIds": "4. array of allowed period ids",
          "_periodType": "3. period type",
          "_whitelisted": "6. bool to declare whitelisted SLA"
        }
      },
      "isRegisteredSLA(address)": {
        "details": "public view function that returns true if _slaAddress was deployed using this SLARegistry",
        "params": {
          "_slaAddress": "address of the SLA to be checked"
        }
      },
      "owner()": {
        "details": "Returns the address of the current owner."
      },
      "renounceOwnership()": {
        "details": "Leaves the contract without owner. It will not be possible to call `onlyOwner` functions anymore. Can only be called by the current owner. NOTE: Renouncing ownership will leave the contract without an owner, thereby removing any functionality that is only available to the owner."
      },
      "requestSLI(uint256,address)": {
        "details": "Gets SLI information for the specified SLA and SLO",
        "params": {
          "_periodId": "1. id of the period",
          "_sla": "2. SLA Address"
        }
      },
      "setMessengerSLARegistryAddress(address)": {
        "details": "function to declare this SLARegistry contract as SLARegistry of _messengerAddress",
        "params": {
          "_messengerAddress": "1. address of the messenger"
        }
      },
      "transferOwnership(address)": {
        "details": "Transfers ownership of the contract to a new account (`newOwner`). Can only be called by the current owner."
      },
      "userSLACount(address)": {
        "details": "public view function that returns the amount of service level agreements the given user is the owner of",
        "params": {
          "_user": "1. address of the user for which to return the amount of service level agreements"
        },
        "returns": {
          "_0": "uint256 corresponding to the amount of user's SLAs"
        }
      },
      "userSLAs(address)": {
        "details": "public view function that returns the service level agreements that the given user is the owner of",
        "params": {
          "_user": "Address of the user for which to return the service level agreements"
        },
        "returns": {
          "_0": "array of SLAs"
        }
      }
    },
    "stateVariables": {
      "SLAs": {
        "details": "stores the addresses of created SLAs"
      },
      "messengerRegistry": {
        "details": "Messengers registry"
      },
      "periodRegistry": {
        "details": "Periods registry"
      },
      "sloRegistry": {
        "details": "SLO registry"
      },
      "stakeRegistry": {
        "details": "Stake registry"
      },
      "userToSLAIndexes": {
        "details": "stores the indexes of service level agreements owned by an user"
      }
    },
    "title": "SLARegistry",
    "version": 1
  },
  "userdoc": {
    "kind": "user",
    "methods": {},
    "version": 1
  }
}