{
  "contractName": "SLARegistry",
  "abi": [
    {
      "inputs": [
        {
          "internalType": "contract SLORegistry",
          "name": "_sloRegistry",
          "type": "address"
        },
        {
          "internalType": "contract PeriodRegistry",
          "name": "_periodRegistry",
          "type": "address"
        },
        {
          "internalType": "contract MessengerRegistry",
          "name": "_messengerRegistry",
          "type": "address"
        },
        {
          "internalType": "contract StakeRegistry",
          "name": "_stakeRegistry",
          "type": "address"
        }
      ],
      "stateMutability": "nonpayable",
      "type": "constructor"
    },
    {
      "anonymous": false,
      "inputs": [
        {
          "indexed": true,
          "internalType": "address",
          "name": "previousOwner",
          "type": "address"
        },
        {
          "indexed": true,
          "internalType": "address",
          "name": "newOwner",
          "type": "address"
        }
      ],
      "name": "OwnershipTransferred",
      "type": "event"
    },
    {
      "anonymous": false,
      "inputs": [
        {
          "indexed": true,
          "internalType": "contract SLA",
          "name": "sla",
          "type": "address"
        },
        {
          "indexed": true,
          "internalType": "address",
          "name": "owner",
          "type": "address"
        }
      ],
      "name": "SLACreated",
      "type": "event"
    },
    {
      "inputs": [
        {
          "internalType": "uint256",
          "name": "",
          "type": "uint256"
        }
      ],
      "name": "SLAs",
      "outputs": [
        {
          "internalType": "contract SLA",
          "name": "",
          "type": "address"
        }
      ],
      "stateMutability": "view",
      "type": "function"
    },
    {
      "inputs": [],
      "name": "messengerRegistry",
      "outputs": [
        {
          "internalType": "contract MessengerRegistry",
          "name": "",
          "type": "address"
        }
      ],
      "stateMutability": "view",
      "type": "function"
    },
    {
      "inputs": [],
      "name": "owner",
      "outputs": [
        {
          "internalType": "address",
          "name": "",
          "type": "address"
        }
      ],
      "stateMutability": "view",
      "type": "function"
    },
    {
      "inputs": [],
      "name": "periodRegistry",
      "outputs": [
        {
          "internalType": "contract PeriodRegistry",
          "name": "",
          "type": "address"
        }
      ],
      "stateMutability": "view",
      "type": "function"
    },
    {
      "inputs": [],
      "name": "renounceOwnership",
      "outputs": [],
      "stateMutability": "nonpayable",
      "type": "function"
    },
    {
      "inputs": [],
      "name": "sloRegistry",
      "outputs": [
        {
          "internalType": "contract SLORegistry",
          "name": "",
          "type": "address"
        }
      ],
      "stateMutability": "view",
      "type": "function"
    },
    {
      "inputs": [],
      "name": "stakeRegistry",
      "outputs": [
        {
          "internalType": "contract StakeRegistry",
          "name": "",
          "type": "address"
        }
      ],
      "stateMutability": "view",
      "type": "function"
    },
    {
      "inputs": [
        {
          "internalType": "address",
          "name": "newOwner",
          "type": "address"
        }
      ],
      "name": "transferOwnership",
      "outputs": [],
      "stateMutability": "nonpayable",
      "type": "function"
    },
    {
      "inputs": [
        {
          "internalType": "uint256",
          "name": "_sloValue",
          "type": "uint256"
        },
        {
          "internalType": "enum SLORegistry.SLOType",
          "name": "_sloType",
          "type": "uint8"
        },
        {
          "internalType": "bool",
          "name": "_whitelisted",
          "type": "bool"
        },
        {
          "internalType": "address",
          "name": "_messengerAddress",
          "type": "address"
        },
        {
          "internalType": "enum PeriodRegistry.PeriodType",
          "name": "_periodType",
          "type": "uint8"
        },
        {
          "internalType": "uint128",
          "name": "_initialPeriodId",
          "type": "uint128"
        },
        {
          "internalType": "uint128",
          "name": "_finalPeriodId",
          "type": "uint128"
        },
        {
          "internalType": "string",
          "name": "_ipfsHash",
          "type": "string"
        },
        {
          "internalType": "bytes32[]",
          "name": "_extraData",
          "type": "bytes32[]"
        }
      ],
      "name": "createSLA",
      "outputs": [],
      "stateMutability": "nonpayable",
      "type": "function"
    },
    {
      "inputs": [
        {
          "internalType": "uint256",
          "name": "_periodId",
          "type": "uint256"
        },
        {
          "internalType": "contract SLA",
          "name": "_sla",
          "type": "address"
        },
        {
          "internalType": "bool",
          "name": "_ownerApproval",
          "type": "bool"
        }
      ],
      "name": "requestSLI",
      "outputs": [],
      "stateMutability": "nonpayable",
      "type": "function"
    },
    {
      "inputs": [
        {
          "internalType": "contract SLA",
          "name": "_sla",
          "type": "address"
        }
      ],
      "name": "returnLockedValue",
      "outputs": [],
      "stateMutability": "nonpayable",
      "type": "function"
    },
    {
      "inputs": [
        {
          "internalType": "address",
          "name": "_messengerAddress",
          "type": "address"
        },
        {
          "internalType": "string",
          "name": "_specificationUrl",
          "type": "string"
        }
      ],
      "name": "registerMessenger",
      "outputs": [],
      "stateMutability": "nonpayable",
      "type": "function"
    },
    {
      "inputs": [
        {
          "internalType": "address",
          "name": "_user",
          "type": "address"
        }
      ],
      "name": "userSLAs",
      "outputs": [
        {
          "internalType": "contract SLA[]",
          "name": "",
          "type": "address[]"
        }
      ],
      "stateMutability": "view",
      "type": "function"
    },
    {
      "inputs": [
        {
          "internalType": "address",
          "name": "_user",
          "type": "address"
        }
      ],
      "name": "userSLACount",
      "outputs": [
        {
          "internalType": "uint256",
          "name": "",
          "type": "uint256"
        }
      ],
      "stateMutability": "view",
      "type": "function"
    },
    {
      "inputs": [],
      "name": "allSLAs",
      "outputs": [
        {
          "internalType": "contract SLA[]",
          "name": "",
          "type": "address[]"
        }
      ],
      "stateMutability": "view",
      "type": "function"
    },
    {
      "inputs": [],
      "name": "SLACount",
      "outputs": [
        {
          "internalType": "uint256",
          "name": "",
          "type": "uint256"
        }
      ],
      "stateMutability": "view",
      "type": "function"
    },
    {
      "inputs": [
        {
          "internalType": "address",
          "name": "_slaAddress",
          "type": "address"
        }
      ],
      "name": "isRegisteredSLA",
      "outputs": [
        {
          "internalType": "bool",
          "name": "",
          "type": "bool"
        }
      ],
      "stateMutability": "view",
      "type": "function"
    }
  ],
  "bytecode": "0x60806040523480156200001157600080fd5b50604051620060ea380380620060ea833981016040819052620000349162000210565b6000620000496001600160e01b036200020c16565b600080546001600160a01b0319166001600160a01b0383169081178255604051929350917f8be0079c531659141344cd1fd0a4f28419497f9722a3daafe3b4186f6b6457e0908290a350600180546001600160a01b0319166001600160a01b0386811691909117918290556040805163f388158960e01b81529051929091169163f38815899160048082019260009290919082900301818387803b158015620000f157600080fd5b505af115801562000106573d6000803e3d6000fd5b5050600280546001600160a01b038088166001600160a01b031992831617909255600480548684169216919091178082556040805163f388158960e01b8152905191909316945063f38815899350828201926000929082900301818387803b1580156200017257600080fd5b505af115801562000187573d6000803e3d6000fd5b5050600380546001600160a01b0319166001600160a01b0386811691909117918290556040805163f388158960e01b8152905192909116935063f3881589925060048082019260009290919082900301818387803b158015620001e957600080fd5b505af1158015620001fe573d6000803e3d6000fd5b505050505050505062000290565b3390565b6000806000806080858703121562000226578384fd5b8451620002338162000277565b6020860151909450620002468162000277565b6040860151909350620002598162000277565b60608601519092506200026c8162000277565b939692955090935050565b6001600160a01b03811681146200028d57600080fd5b50565b615e4a80620002a06000396000f3fe60806040523480156200001157600080fd5b5060043610620001005760003560e01c8063788164b1116200009f578063788164b114620001b2578063816ff98614620001c95780638d2113ed14620001e25780638da5cb5b14620001f957806396bddc1014620002035780639fc4caa5146200020d578063c4277a7b1462000217578063e9b1e98c146200023d578063f2fde38b14620002545762000100565b80632575d7ca14620001055780633a443683146200011e57806350c5abfe1462000135578063516c285714620001645780635a7d1e5d146200018a5780635c4df332146200019457806368304835146200019e578063715018a614620001a8575b600080fd5b6200011c62000116366004620016db565b6200026b565b005b6200011c6200012f36600462001849565b6200067f565b6200014c62000146366004620017d1565b62000b8e565b6040516200015b9190620019d7565b60405180910390f35b6200017b62000175366004620016db565b62000bb6565b6040516200015b919062001b32565b6200014c62000d00565b6200014c62000d0f565b6200014c62000d1e565b6200011c62000d2d565b6200011c620001c336600462001803565b62000db1565b620001d3620012ef565b6040516200015b919062002019565b6200011c620001f336600462001720565b620012f5565b6200014c620013b8565b6200017b620013c7565b6200014c6200142b565b6200022e62000228366004620016db565b6200143a565b6040516200015b919062001b81565b620001d36200024e366004620016db565b62001458565b6200011c62000265366004620016db565b62001473565b62000276816200143a565b6200029e5760405162461bcd60e51b8152600401620002959062001f2a565b60405180910390fd5b806001600160a01b0316638da5cb5b6040518163ffffffff1660e01b815260040160206040518083038186803b158015620002d857600080fd5b505afa158015620002ed573d6000803e3d6000fd5b505050506040513d601f19601f8201168201806040525081019062000313919062001701565b6001600160a01b0316336001600160a01b031614620003465760405162461bcd60e51b8152600401620002959062001ee5565b6000816001600160a01b0316633385d3346040518163ffffffff1660e01b815260040160206040518083038186803b1580156200038257600080fd5b505afa15801562000397573d6000803e3d6000fd5b505050506040513d601f19601f82011682018060405250810190620003bd9190620017b2565b6001600160801b031690506000826001600160a01b03166346e0fbae6040518163ffffffff1660e01b815260040160206040518083038186803b1580156200040457600080fd5b505afa15801562000419573d6000803e3d6000fd5b505050506040513d601f19601f820116820180604052508101906200043f919062001793565b60025460405160016259edcb60e01b031981529192506000916001600160a01b039091169063ffa61235906200047c908590879060040162001bc8565b604080518083038186803b1580156200049457600080fd5b505afa158015620004a9573d6000803e3d6000fd5b505050506040513d601f19601f82011682018060405250810190620004cf919062001933565b9150506000846001600160a01b0316634190edde856040518263ffffffff1660e01b815260040162000502919062002019565b60606040518083038186803b1580156200051b57600080fd5b505afa15801562000530573d6000803e3d6000fd5b505050506040513d601f19601f8201168201806040525081019062000556919062001957565b92505050846001600160a01b0316637fd788aa6040518163ffffffff1660e01b815260040160206040518083038186803b1580156200059457600080fd5b505afa158015620005a9573d6000803e3d6000fd5b505050506040513d601f19601f82011682018060405250810190620005cf919062001774565b80620005f45750814210158015620005f457506000816002811115620005f157fe5b14155b620006135760405162461bcd60e51b8152600401620002959062001c70565b600480546040516312baebe560e11b81526001600160a01b0390911691632575d7ca916200064491899101620019d7565b600060405180830381600087803b1580156200065f57600080fd5b505af115801562000674573d6000803e3d6000fd5b505050505050505050565b600254604051636efe27ef60e11b81526000916001600160a01b03169063ddfc4fde90620006b4908990899060040162001ba1565b60206040518083038186803b158015620006cd57600080fd5b505afa158015620006e2573d6000803e3d6000fd5b505050506040513d601f19601f8201168201806040525081019062000708919062001774565b9050806200072a5760405162461bcd60e51b8152600401620002959062001d6c565b600254604051636efe27ef60e11b81526001600160a01b039091169063ddfc4fde906200075e908990889060040162001ba1565b60206040518083038186803b1580156200077757600080fd5b505afa1580156200078c573d6000803e3d6000fd5b505050506040513d601f19601f82011682018060405250810190620007b2919062001774565b905080620007d45760405162461bcd60e51b8152600401620002959062001d39565b6002546040516347ef60ed60e11b81526000916001600160a01b031690638fdec1da9062000807908a9060040162001b8c565b60206040518083038186803b1580156200082057600080fd5b505afa15801562000835573d6000803e3d6000fd5b505050506040513d601f19601f820116820180604052508101906200085b919062001774565b9050806200087d5760405162461bcd60e51b8152600401620002959062001c39565b856001600160801b0316856001600160801b03161015620008b25760405162461bcd60e51b8152600401620002959062001e37565b60035460405163ef4003db60e01b81526000916001600160a01b03169063ef4003db90620008e5908c90600401620019d7565b60206040518083038186803b158015620008fe57600080fd5b505afa15801562000913573d6000803e3d6000fd5b505050506040513d601f19601f8201168201806040525081019062000939919062001774565b9050600181151514620009605760405162461bcd60e51b8152600401620002959062001bf6565b600033600160009054906101000a90046001600160a01b03168c8b8d8c8c6005805490508d8d6040516200099490620015b1565b620009a99a99989796959493929190620019eb565b604051809103906000f080158015620009c6573d6000803e3d6000fd5b509050600160009054906101000a90046001600160a01b03166001600160a01b0316630c7ad72b8e8e846040518463ffffffff1660e01b815260040162000a109392919062002049565b600060405180830381600087803b15801562000a2b57600080fd5b505af115801562000a40573d6000803e3d6000fd5b505060048054604051633d7da60560e11b81526001600160a01b039091169350637afb4c0a925062000a7e91339186918e8e03600101910162001ae2565b600060405180830381600087803b15801562000a9957600080fd5b505af115801562000aae573d6000803e3d6000fd5b505060058054600180820183557f036b6384b5eca791c62761152d0c79bb0604c104a5fb6f4eb0703f3154bb3db090910180546001600160a01b0319166001600160a01b0387169081179091556000908152600760205260408120805460ff191683179055915491935062000b24925062001531565b33600081815260066020908152604080832080546001810182559084529183209091018490555192935090916001600160a01b038516917fb52f284a6c14f1a66ab5513b5b539066933e58e69e6432666f0e3c8c8a7d750391a35050505050505050505050505050565b6005818154811062000b9c57fe5b6000918252602090912001546001600160a01b0316905081565b6060600062000bc58362001458565b905060608167ffffffffffffffff8111801562000be157600080fd5b5060405190808252806020026020018201604052801562000c0c578160200160208202803683370190505b506001600160a01b0385166000908152600660209081526040918290208054835181840281018401909452808452939450606093909183018282801562000c7357602002820191906000526020600020905b81548152602001906001019080831162000c5e575b50939450600093505050505b8381101562000cf657600582828151811062000c9757fe5b60200260200101518154811062000caa57fe5b9060005260206000200160009054906101000a90046001600160a01b031683828151811062000cd557fe5b6001600160a01b039092166020928302919091019091015260010162000c7f565b5090949350505050565b6001546001600160a01b031681565b6003546001600160a01b031681565b6004546001600160a01b031681565b62000d376200157e565b6000546001600160a01b0390811691161462000d675760405162461bcd60e51b8152600401620002959062001f98565b600080546040516001600160a01b03909116907f8be0079c531659141344cd1fd0a4f28419497f9722a3daafe3b4186f6b6457e0908390a3600080546001600160a01b0319169055565b62000dbc826200143a565b62000ddb5760405162461bcd60e51b8152600401620002959062001f2a565b816001600160a01b031663b1659bad6040518163ffffffff1660e01b815260040160206040518083038186803b15801562000e1557600080fd5b505afa15801562000e2a573d6000803e3d6000fd5b505050506040513d601f19601f8201168201806040525081019062000e509190620017ea565b831462000e715760405162461bcd60e51b8152600401620002959062001f61565b6040516320c876ef60e11b81526000906001600160a01b03841690634190edde9062000ea290879060040162002019565b60606040518083038186803b15801562000ebb57600080fd5b505afa15801562000ed0573d6000803e3d6000fd5b505050506040513d601f19601f8201168201806040525081019062000ef6919062001957565b92506000915062000f049050565b81600281111562000f1157fe5b1462000f315760405162461bcd60e51b8152600401620002959062001d9f565b6000836001600160a01b0316637fd788aa6040518163ffffffff1660e01b815260040160206040518083038186803b15801562000f6d57600080fd5b505afa15801562000f82573d6000803e3d6000fd5b505050506040513d601f19601f8201168201806040525081019062000fa8919062001774565b9050801562000fcb5760405162461bcd60e51b8152600401620002959062001e95565b60405163021eef7f60e01b81526000906001600160a01b0386169063021eef7f9062000ffc90899060040162002019565b60206040518083038186803b1580156200101557600080fd5b505afa1580156200102a573d6000803e3d6000fd5b505050506040513d601f19601f8201168201806040525081019062001050919062001774565b905080620010725760405162461bcd60e51b8152600401620002959062001fcd565b6000856001600160a01b03166346e0fbae6040518163ffffffff1660e01b815260040160206040518083038186803b158015620010ae57600080fd5b505afa158015620010c3573d6000803e3d6000fd5b505050506040513d601f19601f82011682018060405250810190620010e9919062001793565b6002546040516331edb3ad60e21b81529192506000916001600160a01b039091169063c7b6ceb490620011239085908c9060040162001bc8565b60206040518083038186803b1580156200113c57600080fd5b505afa15801562001151573d6000803e3d6000fd5b505050506040513d601f19601f8201168201806040525081019062001177919062001774565b905080620011995760405162461bcd60e51b8152600401620002959062001def565b6000876001600160a01b031663a224ee9c6040518163ffffffff1660e01b815260040160206040518083038186803b158015620011d557600080fd5b505afa158015620011ea573d6000803e3d6000fd5b505050506040513d601f19601f8201168201806040525081019062001210919062001701565b604051634bd410c960e11b81529091506001600160a01b038216906397a821929062001247908c908c908c90339060040162002022565b600060405180830381600087803b1580156200126257600080fd5b505af115801562001277573d6000803e3d6000fd5b5050600480546040516308bcf0cf60e21b81526001600160a01b0390911693506322f3c33c9250620012b0918c9133918f910162001b0e565b600060405180830381600087803b158015620012cb57600080fd5b505af1158015620012e0573d6000803e3d6000fd5b50505050505050505050505050565b60055490565b816001600160a01b031663f38815896040518163ffffffff1660e01b8152600401600060405180830381600087803b1580156200133157600080fd5b505af115801562001346573d6000803e3d6000fd5b505060035460405163eabb8a7360e01b81526001600160a01b03909116925063eabb8a739150620013809033908690869060040162001aab565b600060405180830381600087803b1580156200139b57600080fd5b505af1158015620013b0573d6000803e3d6000fd5b505050505050565b6000546001600160a01b031690565b606060058054806020026020016040519081016040528092919081815260200182805480156200142157602002820191906000526020600020905b81546001600160a01b0316815260019091019060200180831162001402575b5050505050905090565b6002546001600160a01b031681565b6001600160a01b031660009081526007602052604090205460ff1690565b6001600160a01b031660009081526006602052604090205490565b6200147d6200157e565b6000546001600160a01b03908116911614620014ad5760405162461bcd60e51b8152600401620002959062001f98565b6001600160a01b038116620014d65760405162461bcd60e51b8152600401620002959062001cf3565b600080546040516001600160a01b03808516939216917f8be0079c531659141344cd1fd0a4f28419497f9722a3daafe3b4186f6b6457e091a3600080546001600160a01b0319166001600160a01b0392909216919091179055565b60006200157583836040518060400160405280601e81526020017f536166654d6174683a207375627472616374696f6e206f766572666c6f77000081525062001582565b90505b92915050565b3390565b60008184841115620015a95760405162461bcd60e51b815260040162000295919062001be1565b505050900390565b613d1b80620020fa83390190565b80356200157881620020b0565b600082601f830112620015dd578081fd5b813567ffffffffffffffff811115620015f4578182fd5b6020808202620016068282016200207a565b838152935081840185830182870184018810156200162357600080fd5b600092505b848310156200164857803582526001929092019190830190830162001628565b505050505092915050565b80356200157881620020d5565b600082601f83011262001671578081fd5b813567ffffffffffffffff81111562001688578182fd5b6200169d601f8201601f19166020016200207a565b9150808252836020828501011115620016b557600080fd5b8060208401602084013760009082016020015292915050565b80356200157881620020e3565b600060208284031215620016ed578081fd5b8135620016fa81620020b0565b9392505050565b60006020828403121562001713578081fd5b8151620016fa81620020b0565b6000806040838503121562001733578081fd5b82356200174081620020b0565b9150602083013567ffffffffffffffff8111156200175c578182fd5b6200176a8582860162001660565b9150509250929050565b60006020828403121562001786578081fd5b8151620016fa81620020c6565b600060208284031215620017a5578081fd5b8151620016fa81620020d5565b600060208284031215620017c4578081fd5b8151620016fa81620020e3565b600060208284031215620017e3578081fd5b5035919050565b600060208284031215620017fc578081fd5b5051919050565b60008060006060848603121562001818578081fd5b8335925060208401356200182c81620020b0565b915060408401356200183e81620020c6565b809150509250925092565b60008060008060008060008060006101208a8c03121562001868578485fd5b8935985060208a01356200187c81620020d5565b975060408a01356200188e81620020c6565b96506200189f8b60608c01620015bf565b9550620018b08b60808c0162001653565b9450620018c18b60a08c01620016ce565b9350620018d28b60c08c01620016ce565b925060e08a013567ffffffffffffffff80821115620018ef578384fd5b620018fd8d838e0162001660565b93506101008c013591508082111562001914578283fd5b50620019238c828d01620015cc565b9150509295985092959850929598565b6000806040838503121562001946578182fd5b505080516020909101519092909150565b6000806000606084860312156200196c578081fd5b83519250602084015191506040840151600381106200183e578182fd5b60008151808452815b81811015620019b05760208185018101518683018201520162001992565b81811115620019c25782602083870101525b50601f01601f19169290920160200192915050565b6001600160a01b0391909116815260200190565b600061014060018060a01b03808e1684526020818e16818601528c1515604086015262001a188c620020a2565b606085018c9052908a1660808501526001600160801b0389811660a086015288811660c086015287811660e086015261010085018390529062001a5e8386018862001989565b858103610120870152865180825290820193508187019250845b8181101562001a965783518552938201939282019260010162001a78565b50929f9e505050505050505050505050505050565b6001600160a01b0384811682528316602082015260606040820181905260009062001ad99083018462001989565b95945050505050565b6001600160a01b0393841681529190921660208201526001600160801b03909116604082015260600190565b6001600160a01b039384168152919092166020820152604081019190915260600190565b6020808252825182820181905260009190848201906040850190845b8181101562001b755783516001600160a01b03168352928401929184019160010162001b4e565b50909695505050505050565b901515815260200190565b6020810162001b9b83620020a2565b91905290565b6040810162001bb084620020a2565b9281526001600160801b039190911660209091015290565b6040810162001bd784620020a2565b9281526020015290565b60006020825262001575602083018462001989565b60208082526023908201527f6d657373656e6765722061646472657373206973206e6f7420726567697374656040820152621c995960ea1b606082015260800190565b6020808252601f908201527f506572696f642074797065206e6f7420696e697469616c697a65642079657400604082015260600190565b6020808252605f908201527f43616e206f6e6c79207769746864726177206c6f636b65642044534c4120616660408201527f746572207468652066696e616c20706572696f6420697320766572696669656460608201527f206f722069662074686520636f6e747261637420697320627265616368656400608082015260a00190565b60208082526026908201527f4f776e61626c653a206e6577206f776e657220697320746865207a65726f206160408201526564647265737360d01b606082015260800190565b602080825260199082015278119a5b985b081c195c9a5bd9081a59081b9bdd081d985b1a59603a1b604082015260600190565b602080825260199082015278119a5c9cdd081c195c9a5bd9081a59081b9bdd081d985b1a59603a1b604082015260600190565b60208082526030908201527f534c4120636f6e74726163742077617320616c7265616479207665726966696560408201526f1908199bdc881d1a19481c195c9a5bd960821b606082015260800190565b60208082526028908201527f534c4120636f6e747261637420706572696f6420686173206e6f742066696e696040820152671cda1959081e595d60c21b606082015260800190565b602080825260409082018190527f66696e616c506572696f6449642073686f756c64206265206772656174657220908201527f7468616e206f7220657175616c20746f20696e697469616c506572696f644964606082015260800190565b60208082526030908201527f53686f756c64206f6e6c792062652063616c6c656420666f72206e6f7420627260408201526f65616368656420636f6e74726163747360801b606082015260800190565b60208082526025908201527f4f6e6c7920534c41206f776e65722063616e20636c61696d206c6f636b65642060408201526476616c756560d81b606082015260800190565b6020808252601c908201527f534c4120636f6e74726163742073686f756c642062652076616c696400000000604082015260600190565b6020808252601e908201527f53686f756c64206f6e6c7920766572696679206e65787420706572696f640000604082015260600190565b6020808252818101527f4f776e61626c653a2063616c6c6572206973206e6f7420746865206f776e6572604082015260600190565b6020808252602c908201527f506572696f64204944206e6f74207265676973746572656420696e207468652060408201526b14d3104818dbdb9d1c9858dd60a21b606082015260800190565b90815260200190565b9384526001600160a01b039283166020850152901515604084015216606082015260800190565b838152606081016200205b84620020a2565b60208201939093526001600160a01b0391909116604090910152919050565b60405181810167ffffffffffffffff811182821017156200209a57600080fd5b604052919050565b60068110620020ad57fe5b50565b6001600160a01b0381168114620020ad57600080fd5b8015158114620020ad57600080fd5b60068110620020ad57600080fd5b6001600160801b0381168114620020ad57600080fdfe60806040526014805460ff60a01b191690553480156200001e57600080fd5b5060405162003d1b38038062003d1b8339810160408190526200004191620008b6565b3387898560006200005a6001600160e01b03620004e916565b600080546001600160a01b0319166001600160a01b03831690811782556040519293509160008051602062003cfb833981519152908290a350836001600160a01b031663683048356040518163ffffffff1660e01b815260040160206040518083038186803b158015620000cd57600080fd5b505afa158015620000e2573d6000803e3d6000fd5b505050506040513d601f19601f8201168201806040525081019062000108919062000890565b600160006101000a8154816001600160a01b0302191690836001600160a01b03160217905550836001600160a01b0316639fc4caa56040518163ffffffff1660e01b815260040160206040518083038186803b1580156200016857600080fd5b505afa1580156200017d573d6000803e3d6000fd5b505050506040513d601f19601f82011682018060405250810190620001a3919062000890565b600280546001600160a01b0319166001600160a01b0392909216919091179055600d805484919060ff19166001836005811115620001dd57fe5b0217905550600d805461ff0019166101008415150217905560015460408051637b8041cf60e11b815290516000926001600160a01b03169163f700839e9160048083019260e0929190829003018186803b1580156200023b57600080fd5b505afa15801562000250573d6000803e3d6000fd5b505050506040513d601f19601f82011682018060405250810190620002769190620009bd565b5050505050509050600160009054906101000a90046001600160a01b03166001600160a01b0316638b8e53096040518163ffffffff1660e01b815260040160206040518083038186803b158015620002cd57600080fd5b505afa158015620002e2573d6000803e3d6000fd5b505050506040513d601f19601f8201168201806040525081019062000308919062000890565b600a80546001600160a01b0319166001600160a01b0392909216919091179055600c8190556200033833620004ee565b50600380546001600160801b0319166001600160801b0392909216919091179055506200036991508b90506200059a565b81516200037e90600f90602085019062000650565b50601480546001600160a01b038089166001600160a01b0319928316179092556013805490911633179081905560408051639fc4caa560e01b815290519190921691639fc4caa5916004808301926020929190829003018186803b158015620003e657600080fd5b505afa158015620003fb573d6000803e3d6000fd5b505050506040513d601f19601f8201168201806040525081019062000421919062000890565b601080546001600160a01b039290921661010002610100600160a81b03199092169190911780825543601655601280546001600160801b03888116600160801b02818b166001600160801b0319909316929092171617905588919060ff191660018360058111156200048f57fe5b02179055508051620004a9906017906020840190620006d5565b5050506001600160801b039092166018555050601180546001600160a01b039095166001600160a01b0319909516949094179093555062000b0392505050565b335b90565b620005016001600160e01b03620004e916565b6000546001600160a01b039081169116146200053a5760405162461bcd60e51b8152600401620005319062000a8e565b60405180910390fd5b6001600160a01b0381166000908152600e602052604090205460ff1615620005765760405162461bcd60e51b8152600401620005319062000a11565b6001600160a01b03166000908152600e60205260409020805460ff19166001179055565b620005ad6001600160e01b03620004e916565b6000546001600160a01b03908116911614620005dd5760405162461bcd60e51b8152600401620005319062000a8e565b6001600160a01b038116620006065760405162461bcd60e51b8152600401620005319062000a48565b600080546040516001600160a01b038085169392169160008051602062003cfb83398151915291a3600080546001600160a01b0319166001600160a01b0392909216919091179055565b828054600181600116156101000203166002900490600052602060002090601f016020900481019282601f106200069357805160ff1916838001178555620006c3565b82800160010185558215620006c3579182015b82811115620006c3578251825591602001919060010190620006a6565b50620006d192915062000712565b5090565b828054828255906000526020600020908101928215620006c35791602002820182811115620006c3578251825591602001919060010190620006a6565b620004eb91905b80821115620006d1576000815560010162000719565b80516200073c8162000aea565b92915050565b600082601f83011262000753578081fd5b81516001600160401b0381111562000769578182fd5b60208082026200077b82820162000ac3565b838152935081840185830182870184018810156200079857600080fd5b600092505b84831015620007bd5780518252600192909201919083019083016200079d565b505050505092915050565b805180151581146200073c57600080fd5b8051600681106200073c57600080fd5b600082601f830112620007fa578081fd5b81516001600160401b0381111562000810578182fd5b602062000826601f8301601f1916820162000ac3565b925081835284818386010111156200083d57600080fd5b60005b828110156200085d57848101820151848201830152810162000840565b828111156200086f5760008284860101525b50505092915050565b80516001600160801b03811681146200073c57600080fd5b600060208284031215620008a2578081fd5b8151620008af8162000aea565b9392505050565b6000806000806000806000806000806101408b8d031215620008d6578586fd5b620008e28c8c6200072f565b9950620008f38c60208d016200072f565b9850620009048c60408d01620007c8565b9750620009158c60608d01620007d9565b9650620009268c60808d016200072f565b9550620009378c60a08d0162000878565b9450620009488c60c08d0162000878565b9350620009598c60e08d0162000878565b6101008c01519093506001600160401b038082111562000977578384fd5b620009858e838f01620007e9565b93506101208d01519150808211156200099c578283fd5b50620009ab8d828e0162000742565b9150509295989b9194979a5092959850565b600080600080600080600060e0888a031215620009d8578283fd5b5050855160208701516040880151606089015160808a015160a08b015160c0909b0151949c939b50919990985090965094509092509050565b60208082526018908201527f5573657220616c72656164792077686974656c69737465640000000000000000604082015260600190565b60208082526026908201527f4f776e61626c653a206e6577206f776e657220697320746865207a65726f206160408201526564647265737360d01b606082015260800190565b6020808252818101527f4f776e61626c653a2063616c6c6572206973206e6f7420746865206f776e6572604082015260600190565b6040518181016001600160401b038111828210171562000ae257600080fd5b604052919050565b6001600160a01b038116811462000b0057600080fd5b50565b6131e88062000b136000396000f3fe608060405234801561001057600080fd5b50600436106102535760003560e01c806378025ec411610146578063c26ff615116100c3578063db69a46211610087578063db69a462146104c2578063f2db10fe146104ca578063f2fde38b146104d2578063f7e9dfff146104e5578063f9902bb1146104ed578063fd5e6dd11461050057610253565b8063c26ff61514610461578063c623674f14610474578063c8b5c24814610489578063cbe230c31461049c578063d7a5c422146104af57610253565b80639fabeb001161010a5780639fabeb001461042e578063a224ee9c14610436578063a7e8d8d41461043e578063b1659bad14610451578063b7bc347e1461045957610253565b806378025ec4146103f05780637fd788aa146104035780638da5cb5b1461040b57806396f76f11146104135780639b19251a1461041b57610253565b8063484fbf2b116101d45780635e5f2e26116101985780635e5f2e261461039c578063639b6fc3146103af578063715018a6146103c2578063740882ac146103ca578063747b8050146103dd57610253565b8063484fbf2b1461032d5780634e0c91f6146103405780634fb2647e1461036057806357ac94f0146103735780635c1c20de1461039457610253565b80632526743a1161021b5780632526743a146102c657806326db18ac146102db5780633385d334146102ee5780634190edde146102f657806346e0fbae1461031857610253565b8063021eef7f146102585780630bea440d14610281578063171e44ea1461029657806318e45427146102a95780631bf30929146102b1575b600080fd5b61026b6102663660046128d0565b610513565b6040516102789190612b98565b60405180910390f35b61029461028f366004612900565b61055c565b005b6102946102a4366004612721565b6106c0565b61026b610b32565b6102b9610b40565b6040516102789190612ba3565b6102ce610b46565b60405161027891906130aa565b6102946102e9366004612900565b610b55565b6102ce610bd0565b6103096103043660046128d0565b610be6565b604051610278939291906130e3565b610320610c0a565b6040516102789190612bac565b6102b961033b366004612721565b610c13565b61035361034e366004612721565b610c25565b6040516102789190612b47565b61035361036e366004612721565b610c40565b610386610381366004612759565b610c5b565b604051610278929190612b5b565b6102b9610e53565b6103536103aa3660046128d0565b610e59565b6102b96103bd366004612721565b610e80565b610294610e92565b6102946103d8366004612784565b610f11565b6102946103eb366004612721565b610feb565b6102b96103fe3660046128d0565b61107d565b61026b61109b565b6103536110ab565b61026b6110ba565b61026b610429366004612721565b6111c6565b6102b96111db565b6103536111e1565b61026b61044c366004612721565b6111f0565b6102b9611205565b6102b961120b565b61029461046f366004612784565b611211565b61047c6112ed565b6040516102789190612be7565b610294610497366004612900565b61137b565b61026b6104aa366004612721565b6113b9565b6102946104bd366004612956565b611414565b6103536116da565b6102ce6116e9565b6102946104e0366004612721565b6116f8565b6103536117ae565b6102946104fb366004612721565b6117bd565b61035361050e3660046128d0565b611850565b6012546000906001600160801b031682101561053157506000610557565b601254600160801b90046001600160801b031682111561055357506000610557565b5060015b919050565b81600081116105865760405162461bcd60e51b815260040161057d90612fbd565b60405180910390fd5b60006105906110ba565b905080156105b05760405162461bcd60e51b815260040161057d90612e36565b6105ba848461185d565b60135460408051636830483560e01b815290516000926001600160a01b0316916368304835916004808301926020929190829003018186803b1580156105ff57600080fd5b505afa158015610613573d6000803e3d6000fd5b505050506040513d601f19601f82011682018060405250810190610637919061273d565b604051635948284760e11b81529091506001600160a01b0382169063b290508e90610666903390600401612b47565b602060405180830381600087803b15801561068057600080fd5b505af1158015610694573d6000803e3d6000fd5b505050506040513d601f19601f820116820180604052508101906106b89190612824565b505050505050565b6106c8611d7c565b6000546001600160a01b039081169116146106f55760405162461bcd60e51b815260040161057d90612eed565b60015460408051637b8041cf60e11b815290516000926001600160a01b03169163f700839e9160048083019260e0929190829003018186803b15801561073a57600080fd5b505afa15801561074e573d6000803e3d6000fd5b505050506040513d601f19601f82011682018060405250810190610772919061299a565b9650505050505050610783826113b9565b156107a05760405162461bcd60e51b815260040161057d90612f59565b60015460405163cbe230c360e01b81526001600160a01b039091169063cbe230c3906107d0908590600401612b47565b60206040518083038186803b1580156107e857600080fd5b505afa1580156107fc573d6000803e3d6000fd5b505050506040513d601f19601f820116820180604052508101906108209190612824565b61083c5760405162461bcd60e51b815260040161057d90612d2a565b600b805460018101825560008290527f0175b7a638427703f0dbe7bb9bbf987a2551717b34e79f33b5b1008d1fa01db90180546001600160a01b0319166001600160a01b038516179055548110156108a65760405162461bcd60e51b815260040161057d90612c28565b6003546060906108be906001600160801b0316611d80565b90506060836001600160a01b03166395d89b416040518163ffffffff1660e01b815260040160006040518083038186803b1580156108fb57600080fd5b505afa15801561090f573d6000803e3d6000fd5b505050506040513d6000823e601f3d908101601f191682016040526109379190810190612844565b90506060818360405160200161094e929190612af4565b604051602081830303815290604052905060608284604051602001610974929190612a35565b60405160208183030381529060405290506060838560405160200161099a929190612a80565b6040516020818303038152906040529050606084866040516020016109c0929190612ad7565b60408051601f1981840301815290829052600154633350214760e11b83529092506000916001600160a01b03909116906366a0428e90610a069088908890600401612bfa565b602060405180830381600087803b158015610a2057600080fd5b505af1158015610a34573d6000803e3d6000fd5b505050506040513d601f19601f82011682018060405250810190610a58919061273d565b600154604051633350214760e11b81529192506000916001600160a01b03909116906366a0428e90610a909087908790600401612bfa565b602060405180830381600087803b158015610aaa57600080fd5b505af1158015610abe573d6000803e3d6000fd5b505050506040513d601f19601f82011682018060405250810190610ae2919061273d565b6001600160a01b039a8b1660009081526007602090815260408083208054948f166001600160a01b031995861617905560069091529020805493909b169216919091179098555050505050505050565b600d54610100900460ff1681565b60165481565b6012546001600160801b031681565b8160008111610b765760405162461bcd60e51b815260040161057d90612fbd565b610b7e6110ab565b6001600160a01b0316336001600160a01b031614610bc1576000610ba06110ba565b905080610bbf5760405162461bcd60e51b815260040161057d90612f22565b505b610bcb8383611e5b565b505050565b601254600160801b90046001600160801b031681565b60156020526000908152604090208054600182015460029092015490919060ff1683565b60105460ff1681565b60056020526000908152604090205481565b6006602052600090815260409020546001600160a01b031681565b6007602052600090815260409020546001600160a01b031681565b6000806000600b8481548110610c6d57fe5b6000918252602090912001546001600160a01b03169050610c8c6110ab565b6001600160a01b0316856001600160a01b03161415610cc8576001600160a01b0381166000908152600460205260409020549092509050610e4c565b6001600160a01b0380821660009081526006602090815260408083205481516318160ddd60e01b8152915194169384926318160ddd9260048082019391829003018186803b158015610d1957600080fd5b505afa158015610d2d573d6000803e3d6000fd5b505050506040513d601f19601f82011682018060405250810190610d5191906128e8565b905080610d67575090925060009150610e4c9050565b6040516370a0823160e01b81526000906001600160a01b038416906370a0823190610d96908b90600401612b47565b60206040518083038186803b158015610dae57600080fd5b505afa158015610dc2573d6000803e3d6000fd5b505050506040513d601f19601f82011682018060405250810190610de691906128e8565b90506127106000610e0d84610e01858563ffffffff61200116565b9063ffffffff61204416565b6001600160a01b0387166000908152600560205260409020549091508690610e41908490610e01908563ffffffff61200116565b975097505050505050505b9250929050565b600c5481565b600b8181548110610e6657fe5b6000918252602090912001546001600160a01b0316905081565b60046020526000908152604090205481565b610e9a611d7c565b6000546001600160a01b03908116911614610ec75760405162461bcd60e51b815260040161057d90612eed565b600080546040516001600160a01b03909116907f8be0079c531659141344cd1fd0a4f28419497f9722a3daafe3b4186f6b6457e0908390a3600080546001600160a01b0319169055565b610f19611d7c565b6000546001600160a01b03908116911614610f465760405162461bcd60e51b815260040161057d90612eed565b60005b8151811015610fe757600e6000838381518110610f6257fe5b6020908102919091018101516001600160a01b031682528101919091526040016000205460ff16610fdf576001600e6000848481518110610f9f57fe5b60200260200101516001600160a01b03166001600160a01b0316815260200190815260200160002060006101000a81548160ff0219169083151502179055505b600101610f49565b5050565b610ff3611d7c565b6000546001600160a01b039081169116146110205760405162461bcd60e51b815260040161057d90612eed565b6001600160a01b0381166000908152600e602052604090205460ff16156110595760405162461bcd60e51b815260040161057d90612c7b565b6001600160a01b03166000908152600e60205260409020805460ff19166001179055565b6017818154811061108a57fe5b600091825260209091200154905081565b601454600160a01b900460ff1690565b6000546001600160a01b031690565b60105460125460405160016259edcb60e01b03198152600092839261010082046001600160a01b03169263ffa612359261110e9260ff90911691600160801b9091046001600160801b031690600401612bc1565b604080518083038186803b15801561112557600080fd5b505afa158015611139573d6000803e3d6000fd5b505050506040513d601f19601f8201168201806040525081019061115d9190612977565b9150506014809054906101000a900460ff1615156001151514806111c057508042101580156111c057506000601254600160801b90046001600160801b0316600090815260156020526040902060029081015460ff16908111156111bd57fe5b14155b91505090565b600e6020526000908152604090205460ff1681565b60085490565b6014546001600160a01b031681565b60096020526000908152604090205460ff1681565b60185481565b600b5490565b611219611d7c565b6000546001600160a01b039081169116146112465760405162461bcd60e51b815260040161057d90612eed565b60005b8151811015610fe757600e600083838151811061126257fe5b6020908102919091018101516001600160a01b031682528101919091526040016000205460ff161515600114156112e5576000600e60008484815181106112a557fe5b60200260200101516001600160a01b03166001600160a01b0316815260200190815260200160002060006101000a81548160ff0219169083151502179055505b600101611249565b600f805460408051602060026001851615610100026000190190941693909304601f810184900484028201840190925281815292918301828280156113735780601f1061134857610100808354040283529160200191611373565b820191906000526020600020905b81548152906001019060200180831161135657829003601f168201915b505050505081565b816000811161139c5760405162461bcd60e51b815260040161057d90612fbd565b60006113a66110ba565b90506113b3848483612086565b50505050565b6000805b600b5481101561140b57826001600160a01b0316600b82815481106113de57fe5b6000918252602090912001546001600160a01b03161415611403576001915050610557565b6001016113bd565b50600092915050565b6014546001600160a01b0316331461143e5760405162461bcd60e51b815260040161057d90612d77565b7fc95987c1992805ee34bdc915e017cceae36ba1c156b9911fa7e691e6435eb46e42838360405161147193929190613109565b60405180910390a16001808201601855600082815260156020526040808220928301859055428355601154905163a7b72ac560e01b81526001600160a01b039091169063a7b72ac5906114c8903090600401612b47565b604080518083038186803b1580156114df57600080fd5b505afa1580156114f3573d6000803e3d6000fd5b505050506040513d601f19601f82011682018060405250810190611517919061292f565b50601154604051631993b9df60e01b81529192506001600160a01b031690631993b9df9061154b90879030906004016130be565b60206040518083038186803b15801561156357600080fd5b505afa158015611577573d6000803e3d6000fd5b505050506040513d601f19601f8201168201806040525081019061159b9190612824565b1561166f576002828101805460ff19166001179055612710906000906115e9906115c990610e018987612288565b610e01846115dd8a8863ffffffff6122ad16565b9063ffffffff61200116565b60125490915060009061161f906001906116139089906001600160801b031663ffffffff6122ad16565b9063ffffffff61228816565b601254909150600090611659906001600160801b03808216600160801b90920481169190910360010116610e01858563ffffffff61200116565b90506116668782866122ef565b505050506113b3565b6002828101805460ff1916909117905561168761240e565b6014805460ff60a01b1916600160a01b1790556040517fbd33f7a3bfa88a467c9df5ae7d2341cf061084c386b20a0d48130f5cbce38a4d906116cc90859087906130d5565b60405180910390a150505050565b6013546001600160a01b031681565b6003546001600160801b031681565b611700611d7c565b6000546001600160a01b0390811691161461172d5760405162461bcd60e51b815260040161057d90612eed565b6001600160a01b0381166117535760405162461bcd60e51b815260040161057d90612cad565b600080546040516001600160a01b03808516939216917f8be0079c531659141344cd1fd0a4f28419497f9722a3daafe3b4186f6b6457e091a3600080546001600160a01b0319166001600160a01b0392909216919091179055565b600a546001600160a01b031681565b6117c5611d7c565b6000546001600160a01b039081169116146117f25760405162461bcd60e51b815260040161057d90612eed565b6001600160a01b0381166000908152600e602052604090205460ff16151560011461182f5760405162461bcd60e51b815260040161057d90612fe9565b6001600160a01b03166000908152600e60205260409020805460ff19169055565b60088181548110610e6657fe5b80611867816113b9565b15156001146118885760405162461bcd60e51b815260040161057d90612ebf565b600d5460ff610100909104161515600114156118d257336000908152600e602052604090205460ff1615156001146118d25760405162461bcd60e51b815260040161057d90612dbc565b6118ed6001600160a01b03831633308663ffffffff6124cc16565b6118f56110ab565b6001600160a01b0316336001600160a01b031614611b36576001600160a01b03821660009081526004602090815260408083205460059092529091205481611943828763ffffffff61228816565b11156119615760405162461bcd60e51b815260040161057d90613017565b6001600160a01b0380851660009081526006602090815260408083205481516318160ddd60e01b8152915194169384926318160ddd9260048082019391829003018186803b1580156119b257600080fd5b505afa1580156119c6573d6000803e3d6000fd5b505050506040513d601f19601f820116820180604052508101906119ea91906128e8565b905080611a56576040516340c10f1960e01b81526001600160a01b038316906340c10f1990611a1f9033908b90600401612b5b565b600060405180830381600087803b158015611a3957600080fd5b505af1158015611a4d573d6000803e3d6000fd5b50505050611aea565b6001600160a01b03861660009081526005602052604081205490611a8482610e018b8663ffffffff61200116565b6040516340c10f1960e01b81529091506001600160a01b038516906340c10f1990611ab59033908590600401612b5b565b600060405180830381600087803b158015611acf57600080fd5b505af1158015611ae3573d6000803e3d6000fd5b5050505050505b6001600160a01b038616600090815260056020526040902054611b13908863ffffffff61228816565b6001600160a01b03871660009081526005602052604090205550611d0492505050565b6001600160a01b0380831660009081526007602090815260408083205481516318160ddd60e01b8152915194169384926318160ddd9260048082019391829003018186803b158015611b8757600080fd5b505afa158015611b9b573d6000803e3d6000fd5b505050506040513d601f19601f82011682018060405250810190611bbf91906128e8565b905080611c2b576040516340c10f1960e01b81526001600160a01b038316906340c10f1990611bf49033908990600401612b5b565b600060405180830381600087803b158015611c0e57600080fd5b505af1158015611c22573d6000803e3d6000fd5b50505050611cbf565b6001600160a01b03841660009081526004602052604081205490611c5982610e01898663ffffffff61200116565b6040516340c10f1960e01b81529091506001600160a01b038516906340c10f1990611c8a9033908590600401612b5b565b600060405180830381600087803b158015611ca457600080fd5b505af1158015611cb8573d6000803e3d6000fd5b5050505050505b6001600160a01b038416600090815260046020526040902054611ce8908663ffffffff61228816565b6001600160a01b03851660009081526004602052604090205550505b3360009081526009602052604090205460ff16610bcb57336000818152600960205260408120805460ff191660019081179091556008805491820181559091527ff3f7a9fe364faab93b216da50a3214154f22a0a2b415b23a84c8169e8b636ee30180546001600160a01b0319169091179055505050565b3390565b60608180611da75750506040805180820190915260018152600360fc1b6020820152610557565b8060005b8115611dbf57600101600a82049150611dab565b60608167ffffffffffffffff81118015611dd857600080fd5b506040519080825280601f01601f191660200182016040528015611e03576020820181803683370190505b50905060001982015b8415611e5157600a850660300160f81b82828060019003935081518110611e2f57fe5b60200101906001600160f81b031916908160001a905350600a85049450611e0c565b5095945050505050565b80611e65816113b9565b1515600114611e865760405162461bcd60e51b815260040161057d90612ebf565b6001600160a01b0380831660009081526006602090815260408083205481516318160ddd60e01b8152915194169384926318160ddd9260048082019391829003018186803b158015611ed757600080fd5b505afa158015611eeb573d6000803e3d6000fd5b505050506040513d601f19601f82011682018060405250810190611f0f91906128e8565b6001600160a01b038516600090815260056020526040812054919250611f3f82610e01898663ffffffff61200116565b60405163079cc67960e41b81529091506001600160a01b038516906379cc679090611f709033908590600401612b5b565b600060405180830381600087803b158015611f8a57600080fd5b505af1158015611f9e573d6000803e3d6000fd5b5050506001600160a01b038716600090815260056020526040902054611fcb91508863ffffffff6122ad16565b6001600160a01b038716600081815260056020526040902091909155611ff890338963ffffffff61252416565b50505050505050565b6000826120105750600061203e565b8282028284828161201d57fe5b041461203b5760405162461bcd60e51b815260040161057d90612e7e565b90505b92915050565b600061203b83836040518060400160405280601a81526020017f536166654d6174683a206469766973696f6e206279207a65726f000000000000815250612543565b81612090816113b9565b15156001146120b15760405162461bcd60e51b815260040161057d90612ebf565b6001600160a01b0383166000908152600460209081526040808320546005909252909120548361210a57806120ec838863ffffffff6122ad16565b101561210a5760405162461bcd60e51b815260040161057d90612ded565b6001600160a01b0380861660009081526007602090815260408083205481516318160ddd60e01b8152915194169384926318160ddd9260048082019391829003018186803b15801561215b57600080fd5b505afa15801561216f573d6000803e3d6000fd5b505050506040513d601f19601f8201168201806040525081019061219391906128e8565b6001600160a01b0388166000908152600460205260408120549192506121c382610e018c8663ffffffff61200116565b60405163079cc67960e41b81529091506001600160a01b038516906379cc6790906121f49033908590600401612b5b565b600060405180830381600087803b15801561220e57600080fd5b505af1158015612222573d6000803e3d6000fd5b5050506001600160a01b038a1660009081526004602052604090205461224f91508b63ffffffff6122ad16565b6001600160a01b038a1660008181526004602052604090209190915561227c90338c63ffffffff61252416565b50505050505050505050565b60008282018381101561203b5760405162461bcd60e51b815260040161057d90612cf3565b600061203b83836040518060400160405280601e81526020017f536166654d6174683a207375627472616374696f6e206f766572666c6f77000081525061257a565b60005b600b548110156113b3576000600b828154811061230b57fe5b60009182526020808320909101546001600160a01b0316808352600590915260408220549092509061234785610e01848963ffffffff61200116565b6001600160a01b038416600090815260056020526040902054909150612373908263ffffffff6122ad16565b6001600160a01b0384166000908152600560209081526040808320939093556004905220546123a8908263ffffffff61228816565b6001600160a01b0384166000818152600460205260409081902092909255905188907f3173c1c4b679e2da86dbb0382bde749a6e16cd31912c5410e17985cd7d2b9052906123fb908a908a908790613109565b60405180910390a35050506001016122f2565b60005b600b548110156124c9576000600b828154811061242a57fe5b60009182526020808320909101546001600160a01b03168083526005825260408084205460049093529092205491925090819061246d908263ffffffff6122ad16565b6001600160a01b0384166000908152600460209081526040808320939093556005905220546124a2908263ffffffff61228816565b6001600160a01b039093166000908152600560205260409020929092555050600101612411565b50565b6113b3846323b872dd60e01b8585856040516024016124ed93929190612b74565b60408051601f198184030181529190526020810180516001600160e01b03166001600160e01b0319909316929092179091526125a6565b610bcb8363a9059cbb60e01b84846040516024016124ed929190612b5b565b600081836125645760405162461bcd60e51b815260040161057d9190612be7565b50600083858161257057fe5b0495945050505050565b6000818484111561259e5760405162461bcd60e51b815260040161057d9190612be7565b505050900390565b60606125fb826040518060400160405280602081526020017f5361666545524332303a206c6f772d6c6576656c2063616c6c206661696c6564815250856001600160a01b03166126359092919063ffffffff16565b805190915015610bcb57808060200190518101906126199190612824565b610bcb5760405162461bcd60e51b815260040161057d90613060565b6060612644848460008561264c565b949350505050565b606061265785612710565b6126735760405162461bcd60e51b815260040161057d90612f86565b60006060866001600160a01b031685876040516126909190612a19565b60006040518083038185875af1925050503d80600081146126cd576040519150601f19603f3d011682016040523d82523d6000602084013e6126d2565b606091505b509150915081156126e65791506126449050565b8051156126f65780518082602001fd5b8360405162461bcd60e51b815260040161057d9190612be7565b3b151590565b803561203e8161319d565b600060208284031215612732578081fd5b813561203b8161319d565b60006020828403121561274e578081fd5b815161203b8161319d565b6000806040838503121561276b578081fd5b82356127768161319d565b946020939093013593505050565b60006020808385031215612796578182fd5b823567ffffffffffffffff8111156127ac578283fd5b80840185601f8201126127bd578384fd5b803591506127d26127cd83613146565b61311f565b82815283810190828501858502840186018910156127ee578687fd5b8693505b84841015612818576128048982612716565b8352600193909301929185019185016127f2565b50979650505050505050565b600060208284031215612835578081fd5b8151801515811461203b578182fd5b600060208284031215612855578081fd5b815167ffffffffffffffff8082111561286c578283fd5b81840185601f82011261287d578384fd5b805192508183111561288d578384fd5b6128a0601f8401601f191660200161311f565b91508282528560208483010111156128b6578384fd5b6128c7836020840160208401613171565b50949350505050565b6000602082840312156128e1578081fd5b5035919050565b6000602082840312156128f9578081fd5b5051919050565b60008060408385031215612912578182fd5b8235915060208301356129248161319d565b809150509250929050565b60008060408385031215612941578182fd5b82519150602083015160068110612924578182fd5b60008060408385031215612968578182fd5b50508035926020909101359150565b60008060408385031215612989578182fd5b505080516020909101519092909150565b600080600080600080600060e0888a0312156129b4578283fd5b5050855160208701516040880151606089015160808a015160a08b015160c0909b0151949c939b50919990985090965094509092509050565b60008151808452612a05816020860160208601613171565b601f01601f19169290920160200192915050565b60008251612a2b818460208701613171565b9190910192915050565b600061647560f01b82528351612a52816002850160208801613171565b808301602d60f81b600282015284519150612a74826003830160208801613171565b01600301949350505050565b60006d44534c412d50524f56494445522d60901b82528351612aa981600e850160208801613171565b808301602d60f81b600e82015284519150612acb82600f830160208801613171565b01600f01949350505050565b600061064760f41b82528351612a52816002850160208801613171565b60006944534c412d555345522d60b01b82528351612b1981600a850160208801613171565b808301602d60f81b600a82015284519150612b3b82600b830160208801613171565b01600b01949350505050565b6001600160a01b0391909116815260200190565b6001600160a01b03929092168252602082015260400190565b6001600160a01b039384168152919092166020820152604081019190915260600190565b901515815260200190565b90815260200190565b60208101612bb983613166565b825292915050565b60408101612bce84613166565b82526001600160801b0392909216602090910152919050565b60006020825261203b60208301846129ed565b600060408252612c0d60408301856129ed565b8281036020840152612c1f81856129ed565b95945050505050565b60208082526033908201527f416c6c6f77656420746f6b656e73206c656e67746820677265617465722074686040820152720c2dc40dac2f040e8ded6cadc40d8cadccee8d606b1b606082015260800190565b602080825260189082015277155cd95c88185b1c9958591e481dda1a5d195b1a5cdd195960421b604082015260600190565b60208082526026908201527f4f776e61626c653a206e6577206f776e657220697320746865207a65726f206160408201526564647265737360d01b606082015260800190565b6020808252601b908201527f536166654d6174683a206164646974696f6e206f766572666c6f770000000000604082015260600190565b6020808252602d908201527f546f6b656e206e6f7420616c6c6f7765642062792074686520534c415265676960408201526c1cdd1c9e4818dbdb9d1c9858dd609a1b606082015260800190565b60208082526025908201527f4f6e6c79204d657373656e6765722063616e2063616c6c20746869732066756e60408201526431ba34b7b760d91b606082015260800190565b602080825260179082015276155cd95c881a5cc81b9bdd081dda1a5d195b1a5cdd1959604a1b604082015260600190565b60208082526029908201527f53686f756c64206e6f74207769746864726177206d6f7265207468616e207573604082015268657273207374616b6560b81b606082015260800190565b60208082526028908201527f43616e206f6e6c79207374616b65206f6e206e6f742066696e697368656420636040820152676f6e74726163747360c01b606082015260800190565b60208082526021908201527f536166654d6174683a206d756c7469706c69636174696f6e206f766572666c6f6040820152607760f81b606082015260800190565b6020808252601490820152731d1bdad95b881a5cc81b9bdd08185b1b1bddd95960621b604082015260600190565b6020808252818101527f4f776e61626c653a2063616c6c6572206973206e6f7420746865206f776e6572604082015260600190565b6020808252601a908201527f4f6e6c7920666f722066696e697368656420636f6e7472616374000000000000604082015260600190565b602080825260139082015272151bdad95b88185b1c9958591e481859191959606a1b604082015260600190565b6020808252601d908201527f416464726573733a2063616c6c20746f206e6f6e2d636f6e7472616374000000604082015260600190565b6020808252601290820152710616d6f756e742063616e6e6f7420626520360741b604082015260600190565b602080825260149082015273155cd95c881b9bdd081dda1a5d195b1a5cdd195960621b604082015260600190565b60208082526029908201527f43616e6e6f74207374616b65206d6f7265207468616e20534c412070726f7669604082015268646572207374616b6560b81b606082015260800190565b6020808252602a908201527f5361666545524332303a204552433230206f7065726174696f6e20646964206e6040820152691bdd081cdd58d8d9595960b21b606082015260800190565b6001600160801b0391909116815260200190565b9182526001600160a01b0316602082015260400190565b918252602082015260400190565b8381526020810183905260608101600383106130fb57fe5b826040830152949350505050565b9283526020830191909152604082015260600190565b60405181810167ffffffffffffffff8111828210171561313e57600080fd5b604052919050565b600067ffffffffffffffff82111561315c578081fd5b5060209081020190565b806006811061055757fe5b60005b8381101561318c578181015183820152602001613174565b838111156113b35750506000910152565b6001600160a01b03811681146124c957600080fdfea2646970667358221220f053fe2c136752d924532a265ed778cfb1dbd25df5ac95447f4ebf055e5170ce64736f6c634300060600338be0079c531659141344cd1fd0a4f28419497f9722a3daafe3b4186f6b6457e0a2646970667358221220568ae09a856e2fe8946624aeaa00aa8483f01ea9dd250917a3f9380bfc21a52f64736f6c63430006060033",
  "immutableReferences": {},
  "source": "// SPDX-License-Identifier: MIT\npragma solidity 0.6.6;\npragma experimental ABIEncoderV2;\n\nimport \"@openzeppelin/contracts/math/SafeMath.sol\";\nimport \"@openzeppelin/contracts/access/Ownable.sol\";\nimport \"./SLA.sol\";\nimport \"./SLORegistry.sol\";\nimport \"./PeriodRegistry.sol\";\nimport \"./MessengerRegistry.sol\";\nimport \"./StakeRegistry.sol\";\nimport \"./messenger/IMessenger.sol\";\n\n/**\n * @title SLARegistry\n * @dev SLARegistry is a contract for handling creation of service level\n * agreements and keeping track of the created agreements\n */\ncontract SLARegistry is Ownable {\n    using SafeMath for uint256;\n\n    /// @dev SLO registry\n    SLORegistry public sloRegistry;\n    /// @dev Periods registry\n    PeriodRegistry public periodRegistry;\n    /// @dev Messengers registry\n    MessengerRegistry public messengerRegistry;\n    /// @dev Stake registry\n    StakeRegistry public stakeRegistry;\n    /// @dev stores the addresses of created SLAs\n    SLA[] public SLAs;\n    /// @dev stores the indexes of service level agreements owned by an user\n    mapping(address => uint256[]) private userToSLAIndexes;\n    /// @dev to check if registered SLA\n    mapping(address => bool) private registeredSLAs;\n\n    /**\n     * @dev event for service level agreement creation logging\n     * @param sla 1. The address of the created service level agreement contract\n     * @param owner 2. The address of the owner of the service level agreement\n     */\n    event SLACreated(SLA indexed sla, address indexed owner);\n\n    /**\n     * @dev constructor\n     * @param _sloRegistry 1. SLO Registry\n     * @param _periodRegistry 2. Periods registry\n     * @param _messengerRegistry 3. Messenger registry\n     * @param _stakeRegistry 4. Stake registry\n     */\n    constructor(\n        SLORegistry _sloRegistry,\n        PeriodRegistry _periodRegistry,\n        MessengerRegistry _messengerRegistry,\n        StakeRegistry _stakeRegistry\n    ) public {\n        sloRegistry = _sloRegistry;\n        sloRegistry.setSLARegistry();\n        periodRegistry = _periodRegistry;\n        stakeRegistry = _stakeRegistry;\n        stakeRegistry.setSLARegistry();\n        messengerRegistry = _messengerRegistry;\n        messengerRegistry.setSLARegistry();\n    }\n\n    /**\n     * @dev public function for creating canonical service level agreements\n     * @param _sloValue 1. -\n     * @param _sloType 2. -\n     * @param _ipfsHash 3. -\n     * @param _periodType 4. -\n     * @param _initialPeriodId 5. -\n     * @param _finalPeriodId 6. -\n     * @param _messengerAddress 7. -\n     * @param _whitelisted 8. -\n     * @param _extraData 9. -\n     */\n    function createSLA(\n        uint256 _sloValue,\n        SLORegistry.SLOType _sloType,\n        bool _whitelisted,\n        address _messengerAddress,\n        PeriodRegistry.PeriodType _periodType,\n        uint128 _initialPeriodId,\n        uint128 _finalPeriodId,\n        string memory _ipfsHash,\n        bytes32[] memory _extraData\n    ) public {\n        bool validPeriod =\n            periodRegistry.isValidPeriod(_periodType, _initialPeriodId);\n        require(validPeriod, \"First period id not valid\");\n        validPeriod = periodRegistry.isValidPeriod(_periodType, _finalPeriodId);\n        require(validPeriod, \"Final period id not valid\");\n        bool initializedPeriod =\n            periodRegistry.isInitializedPeriod(_periodType);\n        require(initializedPeriod, \"Period type not initialized yet\");\n        require(\n            _finalPeriodId >= _initialPeriodId,\n            \"finalPeriodId should be greater than or equal to initialPeriodId\"\n        );\n        // UNCOMMENT THE NEXT 3 LINES BEFORE MAINNET\n        // bool periodHasStarted =\n        //     periodRegistry.periodHasStarted(_periodType, _initialPeriodId);\n        // require(!periodHasStarted, \"Period has started\");\n        bool registeredMessenger =\n            messengerRegistry.registeredMessengers(_messengerAddress);\n        require(\n            registeredMessenger == true,\n            \"messenger address is not registered\"\n        );\n\n        SLA sla =\n            new SLA(\n                msg.sender,\n                address(sloRegistry),\n                _whitelisted,\n                _periodType,\n                _messengerAddress,\n                _initialPeriodId,\n                _finalPeriodId,\n                uint128(SLAs.length),\n                _ipfsHash,\n                _extraData\n            );\n\n        sloRegistry.registerSLO(_sloValue, _sloType, address(sla));\n        stakeRegistry.lockDSLAValue(\n            msg.sender,\n            address(sla),\n            _finalPeriodId - _initialPeriodId + 1\n        );\n        SLAs.push(sla);\n        registeredSLAs[address(sla)] = true;\n        uint256 index = SLAs.length.sub(1);\n        userToSLAIndexes[msg.sender].push(index);\n        emit SLACreated(sla, msg.sender);\n    }\n\n    /**\n     * @dev Gets SLI information for the specified SLA and SLO\n     * @param _periodId 1. id of the period\n     * @param _sla 2. SLA Address\n     * @param _ownerApproval 3. if approval by owner or msg.sender\n     */\n    function requestSLI(\n        uint256 _periodId,\n        SLA _sla,\n        bool _ownerApproval\n    ) public {\n        require(isRegisteredSLA(address(_sla)),\n            \"SLA contract should be valid\"\n        );\n        require(\n            _periodId == _sla.nextVerifiablePeriod(),\n            \"Should only verify next period\"\n        );\n        (, , SLA.Status status) = _sla.periodSLIs(_periodId);\n        require(\n            status == SLA.Status.NotVerified,\n            \"SLA contract was already verified for the period\"\n        );\n        bool breachedContract = _sla.breachedContract();\n        require(\n            !breachedContract,\n            \"Should only be called for not breached contracts\"\n        );\n        bool slaAllowedPeriodId = _sla.isAllowedPeriod(_periodId);\n        require(\n            slaAllowedPeriodId,\n            \"Period ID not registered in the SLA contract\"\n        );\n        PeriodRegistry.PeriodType slaPeriodType = _sla.periodType();\n        bool periodFinished =\n            periodRegistry.periodIsFinished(slaPeriodType, _periodId);\n        require(\n            periodFinished,\n            \"SLA contract period has not finished yet\"\n        );\n        address slaMessenger = _sla.messengerAddress();\n        IMessenger(slaMessenger).requestSLI(\n            _periodId,\n            address(_sla),\n            _ownerApproval,\n            msg.sender\n        );\n        stakeRegistry.distributeVerificationRewards(\n            address(_sla),\n            msg.sender,\n            _periodId\n        );\n    }\n\n    function returnLockedValue(SLA _sla) public {\n        require(isRegisteredSLA(address(_sla)),\n            \"SLA contract should be valid\"\n        );\n        require(\n            msg.sender == _sla.owner(),\n            \"Only SLA owner can claim locked value\"\n        );\n        uint256 lastValidPeriodId = _sla.finalPeriodId();\n        PeriodRegistry.PeriodType periodType = _sla.periodType();\n        (, uint256 endOfLastValidPeriod) =\n            periodRegistry.getPeriodStartAndEnd(periodType, lastValidPeriodId);\n\n        (, , SLA.Status lastPeriodStatus) = _sla.periodSLIs(lastValidPeriodId);\n        require(\n            _sla.breachedContract() ||\n                (block.timestamp >= endOfLastValidPeriod &&\n                    lastPeriodStatus != SLA.Status.NotVerified),\n            \"Can only withdraw locked DSLA after the final period is verified or if the contract is breached\"\n        );\n        stakeRegistry.returnLockedValue(address(_sla));\n    }\n\n    /**\n     * @dev function to declare this SLARegistry contract as SLARegistry of _messengerAddress\n     * @param _messengerAddress 1. address of the messenger\n     */\n\n    function registerMessenger(\n        address _messengerAddress,\n        string memory _specificationUrl\n    ) public {\n        IMessenger(_messengerAddress).setSLARegistry();\n        messengerRegistry.registerMessenger(\n            msg.sender,\n            _messengerAddress,\n            _specificationUrl\n        );\n    }\n\n    /**\n     * @dev public view function that returns the service level agreements that\n     * the given user is the owner of\n     * @param _user Address of the user for which to return the service level\n     * agreements\n     * @return array of SLAs\n     */\n    function userSLAs(address _user) public view returns (SLA[] memory) {\n        uint256 count = userSLACount(_user);\n        SLA[] memory SLAList = new SLA[](count);\n        uint256[] memory userSLAIndexes = userToSLAIndexes[_user];\n\n        for (uint256 i = 0; i < count; i++) {\n            SLAList[i] = (SLAs[userSLAIndexes[i]]);\n        }\n\n        return (SLAList);\n    }\n\n    /**\n     * @dev public view function that returns the amount of service level\n     * agreements the given user is the owner of\n     * @param _user 1. address of the user for which to return the amount of\n     * service level agreements\n     * @return uint256 corresponding to the amount of user's SLAs\n     */\n    function userSLACount(address _user) public view returns (uint256) {\n        return userToSLAIndexes[_user].length;\n    }\n\n    /**\n     * @dev public view function that returns all the service level agreements\n     * @return SLA[] array of SLAs\n     */\n    function allSLAs() public view returns (SLA[] memory) {\n        return (SLAs);\n    }\n\n    /**\n     * @dev public view function that returns the total amount of service\n     * level agreements\n     * @return uint256, the length of SLA array\n     */\n    function SLACount() public view returns (uint256) {\n        return SLAs.length;\n    }\n\n    /**\n     * @dev public view function that returns true if _slaAddress was deployed using this SLARegistry\n     * @param _slaAddress address of the SLA to be checked\n     */\n    function isRegisteredSLA(address _slaAddress) public view returns (bool) {\n        return registeredSLAs[_slaAddress];\n    }\n}\n",
  "sourcePath": "/Users/wilhempujar/Development/stacktical-dsla-contracts/contracts/SLARegistry.sol",
  "compiler": {
    "name": "solc",
    "version": "0.6.6+commit.6c089d02.Emscripten.clang"
  },
  "schemaVersion": "3.3.1",
  "updatedAt": "2021-03-29T12:29:21.387Z",
  "devdoc": {
    "details": "SLARegistry is a contract for handling creation of service level agreements and keeping track of the created agreements",
    "methods": {
      "SLACount()": {
        "details": "public view function that returns the total amount of service level agreements",
        "returns": {
          "_0": "uint256, the length of SLA array"
        }
      },
      "allSLAs()": {
        "details": "public view function that returns all the service level agreements",
        "returns": {
          "_0": "SLA[] array of SLAs"
        }
      },
      "constructor": {
        "details": "constructor",
        "params": {
          "_messengerRegistry": "3. Messenger registry",
          "_periodRegistry": "2. Periods registry",
          "_sloRegistry": "1. SLO Registry",
          "_stakeRegistry": "4. Stake registry"
        }
      },
      "createSLA(uint256,uint8,bool,address,uint8,uint128,uint128,string,bytes32[])": {
        "details": "public function for creating canonical service level agreements",
        "params": {
          "_extraData": "9. -",
          "_finalPeriodId": "6. -",
          "_initialPeriodId": "5. -",
          "_ipfsHash": "3. -",
          "_messengerAddress": "7. -",
          "_periodType": "4. -",
          "_sloType": "2. -",
          "_sloValue": "1. -",
          "_whitelisted": "8. -"
        }
      },
      "isRegisteredSLA(address)": {
        "details": "public view function that returns true if _slaAddress was deployed using this SLARegistry",
        "params": {
          "_slaAddress": "address of the SLA to be checked"
        }
      },
      "owner()": {
        "details": "Returns the address of the current owner."
      },
      "registerMessenger(address,string)": {
        "details": "function to declare this SLARegistry contract as SLARegistry of _messengerAddress",
        "params": {
          "_messengerAddress": "1. address of the messenger"
        }
      },
      "renounceOwnership()": {
        "details": "Leaves the contract without owner. It will not be possible to call `onlyOwner` functions anymore. Can only be called by the current owner.     * NOTE: Renouncing ownership will leave the contract without an owner, thereby removing any functionality that is only available to the owner."
      },
      "requestSLI(uint256,address,bool)": {
        "details": "Gets SLI information for the specified SLA and SLO",
        "params": {
          "_ownerApproval": "3. if approval by owner or msg.sender",
          "_periodId": "1. id of the period",
          "_sla": "2. SLA Address"
        }
      },
      "transferOwnership(address)": {
        "details": "Transfers ownership of the contract to a new account (`newOwner`). Can only be called by the current owner."
      },
      "userSLACount(address)": {
        "details": "public view function that returns the amount of service level agreements the given user is the owner of",
        "params": {
          "_user": "1. address of the user for which to return the amount of service level agreements"
        },
        "returns": {
          "_0": "uint256 corresponding to the amount of user's SLAs"
        }
      },
      "userSLAs(address)": {
        "details": "public view function that returns the service level agreements that the given user is the owner of",
        "params": {
          "_user": "Address of the user for which to return the service level agreements"
        },
        "returns": {
          "_0": "array of SLAs"
        }
      }
    },
    "title": "SLARegistry"
  },
  "userdoc": {
    "methods": {}
  }
}