{
  "contractName": "SLARegistry",
  "abi": [
    {
      "inputs": [
        {
          "internalType": "contract Messenger",
          "name": "_messengerAddress",
          "type": "address"
        }
      ],
      "stateMutability": "nonpayable",
      "type": "constructor"
    },
    {
      "anonymous": false,
      "inputs": [
        {
          "indexed": true,
          "internalType": "contract SLA",
          "name": "sla",
          "type": "address"
        },
        {
          "indexed": true,
          "internalType": "address",
          "name": "owner",
          "type": "address"
        }
      ],
      "name": "SLACreated",
      "type": "event"
    },
    {
      "inputs": [
        {
          "internalType": "uint256",
          "name": "",
          "type": "uint256"
        }
      ],
      "name": "SLAs",
      "outputs": [
        {
          "internalType": "contract SLA",
          "name": "",
          "type": "address"
        }
      ],
      "stateMutability": "view",
      "type": "function"
    },
    {
      "inputs": [],
      "name": "messenger",
      "outputs": [
        {
          "internalType": "contract Messenger",
          "name": "",
          "type": "address"
        }
      ],
      "stateMutability": "view",
      "type": "function"
    },
    {
      "inputs": [
        {
          "internalType": "address",
          "name": "_owner",
          "type": "address"
        },
        {
          "internalType": "bytes32[]",
          "name": "_SLONames",
          "type": "bytes32[]"
        },
        {
          "internalType": "contract SLO[]",
          "name": "_SLOs",
          "type": "address[]"
        },
        {
          "internalType": "uint256",
          "name": "_stake",
          "type": "uint256"
        },
        {
          "internalType": "string",
          "name": "_ipfsHash",
          "type": "string"
        },
        {
          "internalType": "uint256",
          "name": "_sliInterval",
          "type": "uint256"
        },
        {
          "internalType": "contract bDSLAToken",
          "name": "_tokenAddress",
          "type": "address"
        },
        {
          "internalType": "uint256[]",
          "name": "_sla_period_starts",
          "type": "uint256[]"
        },
        {
          "internalType": "uint256[]",
          "name": "_sla_period_ends",
          "type": "uint256[]"
        },
        {
          "internalType": "address",
          "name": "_daiAddress",
          "type": "address"
        }
      ],
      "name": "createSLA",
      "outputs": [],
      "stateMutability": "nonpayable",
      "type": "function"
    },
    {
      "inputs": [
        {
          "internalType": "uint256",
          "name": "_periodId",
          "type": "uint256"
        },
        {
          "internalType": "contract SLA",
          "name": "_sla",
          "type": "address"
        },
        {
          "internalType": "bytes32",
          "name": "_sloName",
          "type": "bytes32"
        }
      ],
      "name": "requestSLI",
      "outputs": [],
      "stateMutability": "nonpayable",
      "type": "function"
    },
    {
      "inputs": [
        {
          "internalType": "address",
          "name": "_user",
          "type": "address"
        }
      ],
      "name": "userSLAs",
      "outputs": [
        {
          "internalType": "contract SLA[]",
          "name": "",
          "type": "address[]"
        }
      ],
      "stateMutability": "view",
      "type": "function"
    },
    {
      "inputs": [
        {
          "internalType": "address",
          "name": "_user",
          "type": "address"
        }
      ],
      "name": "userSLACount",
      "outputs": [
        {
          "internalType": "uint256",
          "name": "",
          "type": "uint256"
        }
      ],
      "stateMutability": "view",
      "type": "function"
    },
    {
      "inputs": [],
      "name": "allSLAs",
      "outputs": [
        {
          "internalType": "contract SLA[]",
          "name": "",
          "type": "address[]"
        }
      ],
      "stateMutability": "view",
      "type": "function"
    },
    {
      "inputs": [],
      "name": "SLACount",
      "outputs": [
        {
          "internalType": "uint256",
          "name": "",
          "type": "uint256"
        }
      ],
      "stateMutability": "view",
      "type": "function"
    },
    {
      "inputs": [
        {
          "internalType": "address",
          "name": "_slaOwner",
          "type": "address"
        }
      ],
      "name": "getActivePool",
      "outputs": [
        {
          "components": [
            {
              "internalType": "address",
              "name": "SLAaddress",
              "type": "address"
            },
            {
              "internalType": "uint256",
              "name": "stake",
              "type": "uint256"
            },
            {
              "internalType": "string",
              "name": "assetName",
              "type": "string"
            },
            {
              "internalType": "address",
              "name": "assetAddress",
              "type": "address"
            }
          ],
          "internalType": "struct SLARegistry.ActivePool[]",
          "name": "",
          "type": "tuple[]"
        }
      ],
      "stateMutability": "view",
      "type": "function"
    }
  ],
  "bytecode": "0x608060405234801561001057600080fd5b5060405161463b38038061463b83398101604081905261002f916100a4565b600080546001600160a01b0319166001600160a01b03838116919091178083556040805163f388158960e01b81529051919092169263f3881589926004808201939182900301818387803b15801561008657600080fd5b505af115801561009a573d6000803e3d6000fd5b50505050506100d2565b6000602082840312156100b5578081fd5b81516001600160a01b03811681146100cb578182fd5b9392505050565b61455a806100e16000396000f3fe60806040523480156200001157600080fd5b50600436106200008e5760003560e01c80631428241c14620000935780633cb747bf14620000ac57806350c5abfe14620000ce578063516c285714620000e5578063558450be146200010b578063816ff986146200012257806396bddc10146200013b578063e9b1e98c1462000145578063f2c0dfd4146200015c575b600080fd5b620000aa620000a436600462000b13565b62000182565b005b620000b662000296565b604051620000c5919062000dd1565b60405180910390f35b620000b6620000df36600462000c8e565b620002a5565b620000fc620000f636600462000aed565b620002cd565b604051620000c5919062000ef1565b620000aa6200011c36600462000cc0565b62000415565b6200012c6200053c565b604051620000c5919062000fe2565b620000fc62000542565b6200012c6200015636600462000aed565b620005a6565b620001736200016d36600462000aed565b620005c1565b604051620000c5919062000f40565b60008a8a8a8a8a8a8a8a8a8a6040516200019c9062000944565b620001b19a9998979695949392919062000dfe565b604051809103906000f080158015620001ce573d6000803e3d6000fd5b5060018054808201825560008281527fb10e2d527612073b26eecdfd717e6a320cf44b4afac2b0732d9fcbe2b7fa0cf690910180546001600160a01b0319166001600160a01b0385161790558154929350916200022b91620008c8565b3360009081526002602090815260408083208054600181018255908452918320909101839055519192506001600160a01b038e811692908516917fb52f284a6c14f1a66ab5513b5b539066933e58e69e6432666f0e3c8c8a7d750391a3505050505050505050505050565b6000546001600160a01b031681565b60018181548110620002b357fe5b6000918252602090912001546001600160a01b0316905081565b60606000620002dc83620005a6565b905060608167ffffffffffffffff81118015620002f857600080fd5b5060405190808252806020026020018201604052801562000323578160200160208202803683370190505b506001600160a01b038516600090815260026020908152604091829020805483518184028101840190945280845293945060609390918301828280156200038a57602002820191906000526020600020905b81548152602001906001019080831162000375575b5050505050905060005b838110156200040b576001828281518110620003ac57fe5b602002602001015181548110620003bf57fe5b9060005260206000200160009054906101000a90046001600160a01b0316838281518110620003ea57fe5b6001600160a01b039092166020928302919091019091015260010162000394565b5090949350505050565b60405163b0227b4760e01b81526000906001600160a01b0384169063b0227b47906200044690859060040162000fe2565b60206040518083038186803b1580156200045f57600080fd5b505afa15801562000474573d6000803e3d6000fd5b505050506040513d601f19601f820116820180604052508101906200049a919062000c6f565b6001600160a01b03161415620004cd5760405162461bcd60e51b8152600401620004c49062001000565b60405180910390fd5b600054604051632ac2285f60e11b81526001600160a01b039091169063558450be9062000503908690869086906004016200104b565b600060405180830381600087803b1580156200051e57600080fd5b505af115801562000533573d6000803e3d6000fd5b50505050505050565b60015490565b606060018054806020026020016040519081016040528092919081815260200182805480156200059c57602002820191906000526020600020905b81546001600160a01b031681526001909101906020018083116200057d575b5050505050905090565b6001600160a01b031660009081526002602052604090205490565b606080620005cf83620005a6565b67ffffffffffffffff81118015620005e657600080fd5b506040519080825280602002602001820160405280156200062457816020015b6200061062000952565b815260200190600190039081620006065790505b50905060005b6200063584620005a6565b811015620008c1576001600160a01b0384166000908152600260205260408120805460019190849081106200066657fe5b9060005260206000200154815481106200067c57fe5b60009182526020822001546001600160a01b031691505b604051631d809bc960e31b81526001600160a01b0383169063ec04de4890620006c190339060040162000dd1565b60206040518083038186803b158015620006da57600080fd5b505afa158015620006ef573d6000803e3d6000fd5b505050506040513d601f19601f8201168201806040525081019062000715919062000ca7565b811015620008b657600080836001600160a01b03166357ac94f033856040518363ffffffff1660e01b81526004016200075092919062000de5565b604080518083038186803b1580156200076857600080fd5b505afa1580156200077d573d6000803e3d6000fd5b505050506040513d601f19601f82011682018060405250810190620007a3919062000c3f565b60408051808201825260068152656e616d65282960d01b60209182015281516004815260248101835290810180516001600160e01b03166306fdde0360e01b17905290519294509092506060916001600160a01b03851691620008069162000db3565b600060405180830381855afa9150503d806000811462000843576040519150601f19603f3d011682016040523d82523d6000602084013e62000848565b606091505b509150506200085662000952565b6040518060800160405280876001600160a01b03168152602001848152602001838152602001856001600160a01b03168152509050808888815181106200089957fe5b602002602001018190525050505050808060010191505062000693565b50506001016200062a565b5092915050565b60006200090c83836040518060400160405280601e81526020017f536166654d6174683a207375627472616374696f6e206f766572666c6f77000081525062000915565b90505b92915050565b600081848411156200093c5760405162461bcd60e51b8152600401620004c4919062000feb565b505050900390565b613425806200110083390190565b604051806080016040528060006001600160a01b03168152602001600081526020016060815260200160006001600160a01b031681525090565b80356200090f81620010e6565b600082601f830112620009aa578081fd5b8135620009c1620009bb8262001092565b6200106a565b818152915060208083019084810181840286018201871015620009e357600080fd5b60005b8481101562000a0457813584529282019290820190600101620009e6565b505050505092915050565b600082601f83011262000a20578081fd5b813562000a31620009bb8262001092565b81815291506020808301908481018184028601820187101562000a5357600080fd5b60005b8481101562000a0457813562000a6c81620010e6565b8452928201929082019060010162000a56565b600082601f83011262000a90578081fd5b813567ffffffffffffffff81111562000aa7578182fd5b62000abc601f8201601f19166020016200106a565b915080825283602082850101111562000ad457600080fd5b8060208401602084013760009082016020015292915050565b60006020828403121562000aff578081fd5b813562000b0c81620010e6565b9392505050565b6000806000806000806000806000806101408b8d03121562000b33578586fd5b62000b3f8c8c6200098c565b995060208b013567ffffffffffffffff8082111562000b5c578788fd5b62000b6a8e838f0162000999565b9a5060408d013591508082111562000b80578788fd5b62000b8e8e838f0162000a0f565b995060608d0135985060808d013591508082111562000bab578788fd5b62000bb98e838f0162000a7f565b975060a08d0135965062000bd18e60c08f016200098c565b955060e08d013591508082111562000be7578485fd5b62000bf58e838f0162000999565b94506101008d013591508082111562000c0c578384fd5b5062000c1b8d828e0162000999565b92505062000c2e8c6101208d016200098c565b90509295989b9194979a5092959850565b6000806040838503121562000c52578182fd5b825162000c5f81620010e6565b6020939093015192949293505050565b60006020828403121562000c81578081fd5b815162000b0c81620010e6565b60006020828403121562000ca0578081fd5b5035919050565b60006020828403121562000cb9578081fd5b5051919050565b60008060006060848603121562000cd5578283fd5b83359250602084013562000ce981620010e6565b929592945050506040919091013590565b815260200190565b6001600160a01b03169052565b6000815180845260208085019450808401835b8381101562000d495781516001600160a01b03168752958201959082019060010162000d22565b509495945050505050565b6000815180845260208085019450808401835b8381101562000d495781518752958201959082019060010162000d67565b6000815180845262000d9f816020860160208601620010b3565b601f01601f19169290920160200192915050565b6000825162000dc7818460208701620010b3565b9190910192915050565b6001600160a01b0391909116815260200190565b6001600160a01b03929092168252602082015260400190565b6001600160a01b038b16815261014060208083018290528b51600092840191829162000e2b818462000fe2565b9350818f019250845b8181101562000e595762000e4a85855162000cfa565b94509282019260010162000e34565b50505050828103604084015262000e71818c62000d0f565b9050896060840152828103608084015262000e8d818a62000d85565b90508760a084015262000ea460c084018862000d02565b82810360e084015262000eb8818762000d54565b905082810361010084015262000ecf818662000d54565b91505062000ee261012083018462000d02565b9b9a5050505050505050505050565b6020808252825182820181905260009190848201906040850190845b8181101562000f345783516001600160a01b03168352928401929184019160010162000f0d565b50909695505050505050565b60208082528251828201819052600091906040908185019080840286018301878501865b8381101562000fd457603f198984030185528151608062000f8785835162000d02565b888201518986015287820151818987015262000fa68287018262000d85565b915050606080830151925062000fbf8187018462000d02565b50958801959350509086019060010162000f64565b509098975050505050505050565b90815260200190565b6000602082526200090c602083018462000d85565b6020808252602b908201527f5f736c6f4e616d6520646f6573206e6f7420657869737420696e20746865205360408201526a13104818dbdb9d1c9858dd60aa1b606082015260800190565b9283526001600160a01b03919091166020830152604082015260600190565b60405181810167ffffffffffffffff811182821017156200108a57600080fd5b604052919050565b600067ffffffffffffffff821115620010a9578081fd5b5060209081020190565b60005b83811015620010d0578181015183820152602001620010b6565b83811115620010e0576000848401525b50505050565b6001600160a01b0381168114620010fc57600080fd5b5056fe60806040523480156200001157600080fd5b5060405162003425380380620034258339810160408190526200003491620007da565b8383838c84600062000045620002e1565b600080546001600160a01b0319166001600160a01b03831690811782556040519293509160008051602062003405833981519152908290a3508251845114620000ab5760405162461bcd60e51b8152600401620000a29062000981565b60405180910390fd5b600580546001600160a01b038085166001600160a01b03199283161790925560018054888416908316178082556007805480840182557fa66cc928b5edb82af9bd49922954155ab7b0942694bea4ce44661d9a8736c688908101805486169387169390931790925582548516600090815260086020526040808220805460ff199081168717909155600280548a8a1690891617808255855480890190965594909501805490971693881693909317909555915490941681529182208054909316179091555b8451811015620001bd57620001b48582815181106200018b57fe5b6020026020010151858381518110620001a057fe5b6020026020010151620002e560201b60201c565b60010162000170565b5050505050506005885110620001e75760405162461bcd60e51b8152600401620000a29062000a4e565b87518951146200020b5760405162461bcd60e51b8152600401620000a290620009ff565b60005b88518110156200027f578881815181106200022557fe5b6020026020010151601160008c84815181106200023e57fe5b602090810291909101810151825281019190915260400160002080546001600160a01b0319166001600160a01b03929092169190911790556001016200020e565b506200028b8a62000435565b8851620002a09060139060208c019062000564565b50600d8790558551620002bb90600f906020890190620005b4565b5050601080546001600160a01b03191633179055505050600e555062000b189350505050565b3390565b620002ef62000626565b82815260208101828152600060808301818152600380546001810182559252835160069092027fc2575a0e9e593c00f959f8c92f12db2869c3395a3b0502d05e2516446f71f85b810192835592517fc2575a0e9e593c00f959f8c92f12db2869c3395a3b0502d05e2516446f71f85c84015560408401517fc2575a0e9e593c00f959f8c92f12db2869c3395a3b0502d05e2516446f71f85d84015560608401517fc2575a0e9e593c00f959f8c92f12db2869c3395a3b0502d05e2516446f71f85e909301805493151560ff199094169390931780845590518493909161ff001916610100836002811115620003e057fe5b02179055505050620004076001600380549050620004e260201b62001c131790919060201c565b6040517ff791e873e3b67fe74b29aeede7bcbbdaa59c4b64e542571183cd837aa56f6ac990600090a2505050565b6200043f620002e1565b6000546001600160a01b039081169116146200046f5760405162461bcd60e51b8152600401620000a290620009ca565b6001600160a01b038116620004985760405162461bcd60e51b8152600401620000a2906200093b565b600080546040516001600160a01b03808516939216916000805160206200340583398151915291a3600080546001600160a01b0319166001600160a01b0392909216919091179055565b60006200052c83836040518060400160405280601e81526020017f536166654d6174683a207375627472616374696f6e206f766572666c6f7700008152506200053560201b60201c565b90505b92915050565b600081848411156200055c5760405162461bcd60e51b8152600401620000a2919062000906565b505050900390565b828054828255906000526020600020908101928215620005a2579160200282015b82811115620005a257825182559160200191906001019062000585565b50620005b092915062000662565b5090565b828054600181600116156101000203166002900490600052602060002090601f016020900481019282601f10620005f757805160ff1916838001178555620005a2565b82800160010185558215620005a25791820182811115620005a257825182559160200191906001019062000585565b6040518060a00160405280600081526020016000815260200160008152602001600015158152602001600060028111156200065d57fe5b905290565b5b80821115620005b0576000815560010162000663565b80516200052f8162000aff565b600082601f83011262000697578081fd5b8151620006ae620006a88262000aac565b62000a85565b818152915060208083019084810181840286018201871015620006d057600080fd5b60005b84811015620006f157815184529282019290820190600101620006d3565b505050505092915050565b600082601f8301126200070d578081fd5b81516200071e620006a88262000aac565b8181529150602080830190848101818402860182018710156200074057600080fd5b60005b84811015620006f1578151620007598162000aff565b8452928201929082019060010162000743565b600082601f8301126200077d578081fd5b81516001600160401b0381111562000793578182fd5b620007a8601f8201601f191660200162000a85565b9150808252836020828501011115620007c057600080fd5b620007d381602084016020860162000acc565b5092915050565b6000806000806000806000806000806101408b8d031215620007fa578586fd5b620008068c8c62000679565b60208c0151909a506001600160401b038082111562000823578788fd5b620008318e838f0162000686565b9a5060408d015191508082111562000847578788fd5b620008558e838f01620006fc565b995060608d0151985060808d015191508082111562000872578788fd5b620008808e838f016200076c565b975060a08d01519650620008988e60c08f0162000679565b955060e08d0151915080821115620008ae578485fd5b620008bc8e838f0162000686565b94506101008d0151915080821115620008d3578384fd5b50620008e28d828e0162000686565b925050620008f58c6101208d0162000679565b90509295989b9194979a5092959850565b60006020825282518060208401526200092781604085016020870162000acc565b601f01601f19169190910160400192915050565b60208082526026908201527f4f776e61626c653a206e6577206f776e657220697320746865207a65726f206160408201526564647265737360d01b606082015260800190565b60208082526029908201527f506c6561736520636865636b2074686520706172616d73206f6620796f757220604082015268706572696f6473202160b81b606082015260800190565b6020808252818101527f4f776e61626c653a2063616c6c6572206973206e6f7420746865206f776e6572604082015260600190565b6020808252602f908201527f5f534c4f4e616d657320616e64205f534c4f732073686f756c6420686176652060408201526e0e8d0ca40e6c2daca40d8cadccee8d608b1b606082015260800190565b60208082526017908201527f6d617820616d6f756e74206f6620534c4f732069732035000000000000000000604082015260600190565b6040518181016001600160401b038111828210171562000aa457600080fd5b604052919050565b60006001600160401b0382111562000ac2578081fd5b5060209081020190565b60005b8381101562000ae957818101518382015260200162000acf565b8381111562000af9576000848401525b50505050565b6001600160a01b038116811462000b1557600080fd5b50565b6128dd8062000b286000396000f3fe608060405234801561001057600080fd5b50600436106101f75760003560e01c806394199c6111610120578063e7ab816a116100b8578063f34ed40d1161007c578063f34ed40d1461045d578063f3fef3a314610470578063fbbf93a014610483578063fc875ece1461049c578063fd5e6dd1146104bd576101f7565b8063e7ab816a146103f8578063ea4a110414610400578063ec04de4814610424578063f10bd77214610437578063f2fde38b1461044a576101f7565b806394199c6114610352578063a2e80c5e14610374578063ae169a501461037c578063b0227b471461038f578063b5d5b5fa146103a2578063b83e0234146103b5578063c623674f146103c8578063cec534d6146103dd578063e0bab4c4146103f0576101f7565b806357ac94f01161019357806357ac94f0146102d05780635e5f2e26146102f15780635f4efaba14610304578063715018a61461030c57806375fdf2a9146103145780637b10399914610327578063817b1cd21461032f578063869c3925146103375780638da5cb5b1461034a576101f7565b806302e8b893146101fc5780630e1fcf3414610225578063105237cf1461023a578063171e44ea1461025a5780631934d0e81461026d5780632eac9787146102805780633a4b66f1146102a05780633a5381b5146102a857806353e85fd5146102bd575b600080fd5b61020f61020a366004612248565b6104d0565b60405161021c9190612447565b60405180910390f35b610238610233366004612260565b610561565b005b61024d610248366004612175565b6105ad565b60405161021c91906124a0565b610238610268366004612175565b6105c2565b61024d61027b366004612191565b610697565b61029361028e366004612191565b6106b7565b60405161021c91906124ab565b6102936106d4565b6102b06106da565b60405161021c919061234a565b6102386102cb366004612248565b6106e9565b6102e36102de3660046121c9565b610963565b60405161021c929190612382565b6102b06102ff366004612248565b6109e3565b6102b0610a0a565b610238610a19565b6102386103223660046121f4565b610a98565b6102b0610df7565b610293610e06565b610238610345366004612281565b610e0c565b6102b061106a565b610365610360366004612260565b611079565b60405161021c93929190612836565b6102936110b8565b61023861038a366004612248565b6110be565b6102b061039d366004612248565b611298565b6102e36103b03660046121c9565b6112b3565b6102936103c3366004612175565b6112f6565b6103d0611308565b60405161021c91906124b4565b6102386103eb3660046122c8565b611396565b6102b0611586565b610293611595565b61041361040e366004612248565b61159b565b60405161021c95949392919061284c565b610293610432366004612175565b6115de565b6102936104453660046121c9565b6115f9565b610238610458366004612175565b6116a7565b61029361046b366004612248565b61175d565b61023861047e3660046121c9565b61177b565b61048b6119ec565b60405161021c95949392919061239b565b6104af6104aa366004612248565b611bbc565b60405161021c929190612828565b6102b06104cb366004612248565b611c06565b606060126000838152602001908152602001600020805480602002602001604051908101604052809291908181526020016000905b828210156105555783829060005260206000209060030201604051806060016040529081600082015481526020016001820154815260200160028201548152505081526020019060010190610505565b5050505090505b919050565b610569611c55565b6000546001600160a01b0390811691161461059f5760405162461bcd60e51b815260040161059690612737565b60405180910390fd5b6105a98282611c59565b5050565b60086020526000908152604090205460ff1681565b6105ca611c55565b6000546001600160a01b039081169116146105f75760405162461bcd60e51b815260040161059690612737565b6001600160a01b03811660009081526008602052604090205460ff16156106305760405162461bcd60e51b815260040161059690612645565b6007805460018181019092557fa66cc928b5edb82af9bd49922954155ab7b0942694bea4ce44661d9a8736c6880180546001600160a01b039093166001600160a01b031990931683179055600091825260086020526040909120805460ff19169091179055565b600c60209081526000928352604080842090915290825290205460ff1681565b600b60209081526000928352604080842090915290825290205481565b600d5481565b6005546001600160a01b031681565b80600381815481106106f757fe5b906000526020600020906006020160000154421015801561073657506003818154811061072057fe5b9060005260206000209060060201600101544211155b61073f57600080fd5b6005546001600160a01b031633141561076a5760405162461bcd60e51b8152600401610596906125df565b60026003838154811061077957fe5b906000526020600020906006020160030160019054906101000a900460ff1660028111156107a357fe5b146107c05760405162461bcd60e51b8152600401610596906124f4565b600382815481106107cd57fe5b60009182526020808320338452600560069093020191909101905260409020541561080a5760405162461bcd60e51b8152600401610596906127cb565b600061081633846115f9565b90506000610830600a61082a846003611d94565b90611dce565b6004549091506108409083611c13565b600481905550816003858154811061085457fe5b600091825260208083203380855260069390930201600501905260409182902092909255600154905163a9059cbb60e01b81526001600160a01b039091169163a9059cbb916108a891908690600401612382565b602060405180830381600087803b1580156108c257600080fd5b505af11580156108d6573d6000803e3d6000fd5b505050506040513d601f19601f820116820180604052508101906108fa9190612228565b50600154604051630852cd8d60e31b81526001600160a01b03909116906342966c689061092b9084906004016124ab565b600060405180830381600087803b15801561094557600080fd5b505af1158015610959573d6000803e3d6000fd5b5050505050505050565b6001600160a01b0382166000908152600a6020526040812080548291908490811061098a57fe5b600091825260208083206002909202909101546001600160a01b038781168452600a90925260409092208054919092169190859081106109c657fe5b906000526020600020906002020160010154915091509250929050565b600781815481106109f057fe5b6000918252602090912001546001600160a01b0316905081565b6001546001600160a01b031681565b610a21611c55565b6000546001600160a01b03908116911614610a4e5760405162461bcd60e51b815260040161059690612737565b600080546040516001600160a01b03909116907f8be0079c531659141344cd1fd0a4f28419497f9722a3daafe3b4186f6b6457e0908390a3600080546001600160a01b0319169055565b6005546001600160a01b0316331415610ac35760405162461bcd60e51b8152600401610596906125df565b6001600160a01b038316600090815260086020526040902054839060ff161515600114610b025760405162461bcd60e51b815260040161059690612709565b600060038381548110610b1157fe5b600091825260208083206001600160a01b03891684526004600690930201919091018152604080832033845290915290205411610b605760405162461bcd60e51b81526004016105969061260e565b6040516323b872dd60e01b81526001600160a01b038516906323b872dd90610b909033903090889060040161235e565b602060405180830381600087803b158015610baa57600080fd5b505af1158015610bbe573d6000803e3d6000fd5b505050506040513d601f19601f82011682018060405250810190610be29190612228565b50610c2c8360038481548110610bf457fe5b600091825260208083206001600160a01b038a1684526004600690930201919091018152604080832033845290915290205490611e10565b60038381548110610c3957fe5b600091825260208083206001600160a01b038916845260046006909302018201815260408084203385529091529091209190915554610c789084611e10565b600455610c858484611e35565b600060038381548110610c9457fe5b600091825260208083206001600160a01b038916845260069283020160040181526040808420338552909152822054905460038054929450610cfa9287908110610cda57fe5b906000526020600020906006020160020154611dce90919063ffffffff16565b9050600060038581548110610d0b57fe5b600091825260208083206001600160a01b038b16845260046006909302018201815260408084203385529091529091209190915554610d4a9083611c13565b6004556001546001600160a01b031663a9059cbb33610d698585611c13565b6040518363ffffffff1660e01b8152600401610d86929190612382565b602060405180830381600087803b158015610da057600080fd5b505af1158015610db4573d6000803e3d6000fd5b505050506040513d601f19601f82011682018060405250810190610dd89190612228565b50600154610def906001600160a01b031683611f95565b505050505050565b6010546001600160a01b031681565b60045481565b601060009054906101000a90046001600160a01b03166001600160a01b0316633cb747bf6040518163ffffffff1660e01b815260040160206040518083038186803b158015610e5a57600080fd5b505afa158015610e6e573d6000803e3d6000fd5b505050506040513d601f19601f82011682018060405250810190610e9291906122ac565b6001600160a01b0316336001600160a01b031614610ec25760405162461bcd60e51b81526004016105969061259a565b600083815260126020908152604080832081516060810183524280825281850188815282850188815284546001818101875595895296909720925160039096029092019485559051918401919091559251600290920191909155517fc95987c1992805ee34bdc915e017cceae36ba1c156b9911fa7e691e6435eb46e91610f4c9185908590612836565b60405180910390a16000838152601160205260409081902054905163868d08f760e01b81526001600160a01b039091169063868d08f790610f919085906004016124ab565b60206040518083038186803b158015610fa957600080fd5b505afa158015610fbd573d6000803e3d6000fd5b505050506040513d601f19601f82011682018060405250810190610fe19190612228565b61102757600260038281548110610ff457fe5b60009182526020909120600360069092020101805461ff00191661010083600281111561101d57fe5b0217905550611065565b60016003828154811061103657fe5b60009182526020909120600360069092020101805461ff00191661010083600281111561105f57fe5b02179055505b505050565b6000546001600160a01b031690565b6012602052816000526040600020818154811061109257fe5b600091825260209091206003909102018054600182015460029092015490935090915083565b60065490565b80600381815481106110cc57fe5b906000526020600020906006020160000154421015801561110b5750600381815481106110f557fe5b9060005260206000209060060201600101544211155b61111457600080fd5b6005546001600160a01b0316331461113e5760405162461bcd60e51b815260040161059690612798565b60016003838154811061114d57fe5b906000526020600020906006020160030160019054906101000a900460ff16600281111561117757fe5b146111945760405162461bcd60e51b8152600401610596906124c7565b600382815481106111a157fe5b600091825260209091206003600690920201015460ff16156111d55760405162461bcd60e51b815260040161059690612672565b6003546004546000916111e89190611dce565b905060006111fc600a61082a846003611d94565b60045490915061120c9083611c13565b600481905550816003858154811061122057fe5b90600052602060002090600602016002018190555060016003858154811061124457fe5b60009182526020909120600690910201600301805460ff191691151591909117905560015460405163a9059cbb60e01b81526001600160a01b039091169063a9059cbb906108a89033908690600401612382565b6011602052600090815260409020546001600160a01b031681565b600a60205281600052604060002081815481106112cc57fe5b6000918252602090912060029091020180546001909101546001600160a01b039091169250905082565b60096020526000908152604090205481565b600f805460408051602060026001851615610100026000190190941693909304601f8101849004840282018401909252818152929183018282801561138e5780601f106113635761010080835404028352916020019161138e565b820191906000526020600020905b81548152906001019060200180831161137157829003601f168201915b505050505081565b6001600160a01b038216600090815260086020526040902054829060ff1615156001146113d55760405162461bcd60e51b815260040161059690612709565b600084116113f55760405162461bcd60e51b81526004016105969061276c565b611400338484611ff5565b6040516323b872dd60e01b81526001600160a01b038416906323b872dd906114309033903090899060040161235e565b602060405180830381600087803b15801561144a57600080fd5b505af115801561145e573d6000803e3d6000fd5b505050506040513d601f19601f820116820180604052508101906114829190612228565b506114cc846003848154811061149457fe5b600091825260208083206001600160a01b03891684526004600690930201919091018152604080832033845290915290205490611e10565b600383815481106114d957fe5b600091825260208083206001600160a01b0388168452600460069093020182018152604080842033855290915290912091909155546115189085611e10565b600455336000908152600960205260409020546001141561157657600680546001810182556000919091527ff652222313e28459528d920b65115c16c04f3efc82aaedc97be59f3f377c0d3f0180546001600160a01b031916331790555b6115808385611e35565b50505050565b6002546001600160a01b031681565b600e5490565b600381815481106115a857fe5b60009182526020909120600690910201805460018201546002830154600390930154919350919060ff8082169161010090041685565b6001600160a01b03166000908152600a602052604090205490565b6001600160a01b03821660009081526009602052604081205481901561169e5760005b60075481101561169c576116926003858154811061163657fe5b906000526020600020906006020160040160006007848154811061165657fe5b60009182526020808320909101546001600160a01b0390811684528382019490945260409283018220938a168252929092529020548390611e10565b915060010161161c565b505b90505b92915050565b6116af611c55565b6000546001600160a01b039081169116146116dc5760405162461bcd60e51b815260040161059690612737565b6001600160a01b0381166117025760405162461bcd60e51b81526004016105969061251d565b600080546040516001600160a01b03808516939216917f8be0079c531659141344cd1fd0a4f28419497f9722a3daafe3b4186f6b6457e091a3600080546001600160a01b0319166001600160a01b0392909216919091179055565b6013818154811061176a57fe5b600091825260209091200154905081565b6005546001600160a01b03163314156117a65760405162461bcd60e51b8152600401610596906125df565b6001600160a01b038216600090815260086020526040902054829060ff1615156001146117e55760405162461bcd60e51b815260040161059690612709565b6000600383815481106117f457fe5b600091825260208083206001600160a01b038816845260046006909302019190910181526040808320338452909152902054116118435760405162461bcd60e51b81526004016105969061260e565b60006003838154811061185257fe5b600091825260208083206001600160a01b0388168452600692830201600401815260408084203385529091528220549054600380549294506118989287908110610cda57fe5b90506000600385815481106118a957fe5b600091825260208083206001600160a01b038a168452600460069093020182018152604080842033855290915290912091909155546118e89083611c13565b6004556001600160a01b03851663a9059cbb336119058585611c13565b6040518363ffffffff1660e01b8152600401611922929190612382565b602060405180830381600087803b15801561193c57600080fd5b505af1158015611950573d6000803e3d6000fd5b505050506040513d601f19601f820116820180604052508101906119749190612228565b5033600090815260096020526040902054611990906001611c13565b3360009081526009602052604090208190556119db5760006119b13361207e565b9050600681815481106119c057fe5b600091825260209091200180546001600160a01b0319169055505b6119e58583611f95565b5050505050565b600060606000606080606060138054905067ffffffffffffffff81118015611a1357600080fd5b50604051908082528060200260200182016040528015611a3d578160200160208202803683370190505b50905060005b601354811015611ab7576011600060138381548110611a5e57fe5b9060005260206000200154815260200190815260200160002060009054906101000a90046001600160a01b0316828281518110611a9757fe5b6001600160a01b0390921660209283029190910190910152600101611a43565b50611ac061106a565b600d54600f805460408051602060026001851615610100026000190190941693909304601f810184900484028201840190925281815292939260139287928691830182828015611b515780601f10611b2657610100808354040283529160200191611b51565b820191906000526020600020905b815481529060010190602001808311611b3457829003601f168201915b5050505050935081805480602002602001604051908101604052809291908181526020018280548015611ba357602002820191906000526020600020905b815481526020019060010190808311611b8f575b5050505050915095509550955095509550509091929394565b60008060038381548110611bcc57fe5b90600052602060002090600602016000015460038481548110611beb57fe5b90600052602060002090600602016001015491509150915091565b600681815481106109f057fe5b600061169e83836040518060400160405280601e81526020017f536166654d6174683a207375627472616374696f6e206f766572666c6f7700008152506120d7565b3390565b611c6161213a565b82815260208101828152600060808301818152600380546001810182559252835160069092027fc2575a0e9e593c00f959f8c92f12db2869c3395a3b0502d05e2516446f71f85b810192835592517fc2575a0e9e593c00f959f8c92f12db2869c3395a3b0502d05e2516446f71f85c84015560408401517fc2575a0e9e593c00f959f8c92f12db2869c3395a3b0502d05e2516446f71f85d84015560608401517fc2575a0e9e593c00f959f8c92f12db2869c3395a3b0502d05e2516446f71f85e909301805493151560ff199094169390931780845590518493909161ff001916610100836002811115611d5157fe5b021790555050600354611d6691506001611c13565b6040517ff791e873e3b67fe74b29aeede7bcbbdaa59c4b64e542571183cd837aa56f6ac990600090a2505050565b600082611da3575060006116a1565b82820282848281611db057fe5b041461169e5760405162461bcd60e51b8152600401610596906126c8565b600061169e83836040518060400160405280601a81526020017f536166654d6174683a206469766973696f6e206279207a65726f000000000000815250612103565b60008282018381101561169e5760405162461bcd60e51b815260040161059690612563565b336000908152600c602090815260408083206001600160a01b038616845290915290205460ff16611f0057336000818152600a60209081526040808320815180830183526001600160a01b03888116808352828601898152845460018082018755868a52888a209551600290920290950180546001600160a01b0319169190941617835551918301919091558686529154600b85528386208387528552838620600019919091019055948452600c83528184209084529091529020805460ff191690911790556105a9565b336000818152600b602090815260408083206001600160a01b0387168452825280832054938352600a90915290208054611f6091849184908110611f4057fe5b906000526020600020906002020160010154611e1090919063ffffffff16565b336000908152600a60205260409020805483908110611f7b57fe5b906000526020600020906002020160010181905550505050565b336000818152600b602090815260408083206001600160a01b0387168452825280832054938352600a9091529020805461158091849184908110611fd557fe5b906000526020600020906002020160010154611c1390919063ffffffff16565b60006003828154811061200457fe5b600091825260208083206001600160a01b0387811685526006939093020160040181526040808420928816845291905290205411611065576001600160a01b038316600090815260096020526040902054612060906001611e10565b6001600160a01b038416600090815260096020526040902055505050565b6000805b6006548110156120cd57826001600160a01b0316600682815481106120a357fe5b6000918252602090912001546001600160a01b031614156120c557905061055c565b600101612082565b5060001992915050565b600081848411156120fb5760405162461bcd60e51b815260040161059691906124b4565b505050900390565b600081836121245760405162461bcd60e51b815260040161059691906124b4565b50600083858161213057fe5b0495945050505050565b6040518060a001604052806000815260200160008152602001600081526020016000151581526020016000600281111561217057fe5b905290565b600060208284031215612186578081fd5b813561169e8161288f565b600080604083850312156121a3578081fd5b82356121ae8161288f565b915060208301356121be8161288f565b809150509250929050565b600080604083850312156121db578182fd5b82356121e68161288f565b946020939093013593505050565b600080600060608486031215612208578081fd5b83356122138161288f565b95602085013595506040909401359392505050565b600060208284031215612239578081fd5b8151801515811461169e578182fd5b600060208284031215612259578081fd5b5035919050565b60008060408385031215612272578182fd5b50508035926020909101359150565b600080600060608486031215612295578283fd5b505081359360208301359350604090920135919050565b6000602082840312156122bd578081fd5b815161169e8161288f565b6000806000606084860312156122dc578283fd5b8335925060208401356122ee8161288f565b929592945050506040919091013590565b60008151808452815b8181101561232457602081850181015186830182015201612308565b818111156123355782602083870101525b50601f01601f19169290920160200192915050565b6001600160a01b0391909116815260200190565b6001600160a01b039384168152919092166020820152604081019190915260600190565b6001600160a01b03929092168252602082015260400190565b6001600160a01b038616815260a060208083018290526000916123c0908401886122ff565b604084018790528381036060850152855180825282870191830190845b818110156123f9578351835292840192918401916001016123dd565b505084810360808601528551808252908301915082860190845b81811015612437576124258351612883565b84529284019291840191600101612413565b50919a9950505050505050505050565b602080825282518282018190526000919060409081850190868401855b828110156124935781518051855286810151878601528501518585015260609093019290850190600101612464565b5091979650505050505050565b901515815260200190565b90815260200190565b60006020825261169e60208301846122ff565b602080825260139082015272534c41206e6f7420726573706563746564202160681b604082015260600190565b6020808252600f908201526e534c4120726573706563746564202160881b604082015260600190565b60208082526026908201527f4f776e61626c653a206e6577206f776e657220697320746865207a65726f206160408201526564647265737360d01b606082015260800190565b6020808252601b908201527f536166654d6174683a206164646974696f6e206f766572666c6f770000000000604082015260600190565b60208082526025908201527f4f6e6c79204d657373656e6765722063616e2063616c6c20746869732066756e6040820152643a31b4b7b760d91b606082015260800190565b602080825260159082015274596f752061726520612076616c696461746f72202160581b604082015260600190565b6020808252601b908201527f7374616b696e672062616c616e63652063616e6e6f7420626520300000000000604082015260600190565b6020808252601390820152721d1bdad95b88185b1c9958591e481859191959606a1b604082015260600190565b60208082526036908201527f596f75206861766520616c726561647920636c61696d656420796f75722072656040820152757761726420666f72207468697320706572696f64202160501b606082015260800190565b60208082526021908201527f536166654d6174683a206d756c7469706c69636174696f6e206f766572666c6f6040820152607760f81b606082015260800190565b6020808252601490820152731d1bdad95b881a5cc81b9bdd08185b1b1bddd95960621b604082015260600190565b6020808252818101527f4f776e61626c653a2063616c6c6572206973206e6f7420746865206f776e6572604082015260600190565b6020808252601290820152710616d6f756e742063616e6e6f7420626520360741b604082015260600190565b602080825260199082015278596f7520617265206e6f7420612076616c696461746f72202160381b604082015260600190565b6020808252603c908201527f596f75206861766520616c726561647920636c61696d656420796f757220636f60408201527f6d70656e736174696f6e20666f72207468697320706572696f64202100000000606082015260800190565b918252602082015260400190565b9283526020830191909152604082015260600190565b8581526020810185905260408101849052821515606082015260a081016003831061287357fe5b8260808301529695505050505050565b6001600160a01b031690565b6001600160a01b03811681146128a457600080fd5b5056fea2646970667358221220ee0d30581eb572c3c3cf011c3527bd8d104d067e0f5bbeadd79bd40869944b2164736f6c634300060c00338be0079c531659141344cd1fd0a4f28419497f9722a3daafe3b4186f6b6457e0a264697066735822122087366ecd14b1aa13e571e2b3267a42375878228dea68a2eb5c009cea3f7099cb64736f6c634300060c0033",
  "immutableReferences": {},
  "source": "// SPDX-License-Identifier: MIT\npragma solidity ^0.6.0;\npragma experimental ABIEncoderV2;\n\nimport \"@openzeppelin/contracts/math/SafeMath.sol\";\nimport \"@openzeppelin/contracts/token/ERC20/IERC20.sol\";\nimport \"./Messenger.sol\";\nimport \"./SLA/SLA.sol\";\nimport \"./SLO/SLO.sol\";\nimport \"./bDSLA/bDSLAToken.sol\";\n\n/**\n * @title SLARegistry\n * @dev SLARegistry is a contract for handling creation of service level\n * agreements and keeping track of the created agreements\n */\ncontract SLARegistry {\n    using SafeMath for uint256;\n    bytes4 private constant NAME_SELECTOR = bytes4(keccak256(bytes(\"name()\")));\n\n    /// @dev struct to return on getActivePool function.\n    struct ActivePool {\n        address SLAaddress;\n        uint256 stake;\n        string assetName;\n        address assetAddress;\n    }\n\n    /// @dev Messenger of the SLA Registry\n    Messenger public messenger;\n\n    /// @dev stores the addresses of created SLAs\n    SLA[] public SLAs;\n\n    /// @dev stores the indexes of service level agreements owned by an user\n    mapping(address => uint256[]) private userToSLAIndexes;\n\n    /**\n     * @dev event for service level agreement creation logging\n     * @param sla 1. The address of the created service level agreement contract\n     * @param owner 2. The address of the owner of the service level agreement\n     */\n    event SLACreated(SLA indexed sla, address indexed owner);\n\n    /**\n     * @dev constructor\n     * @param _messengerAddress the address of the chainlink messenger contract\n     */\n    constructor(Messenger _messengerAddress) public {\n        messenger = _messengerAddress;\n        /// TODO:change to call(signature(params)))\n        messenger.setSLARegistry();\n    }\n\n    /**\n     * @dev public function for creating service level agreements\n     * @param _owner 1. address of the owner of the service level agreement\n     * @param _SLONames 2. array of the names of the service level objectives\n     * in bytes32\n     * @param _SLOs 3. array of service level objective contract addressess\n     * service level objective breach\n     * @param _stake 4. uint of the amount required to stake when signing the\n     * service level agreement\n     * @param _ipfsHash 5. string with the ipfs hash that contains extra\n     * information about the service level agreement\n     * @param _sliInterval 6. uint the interval in seconds between requesting a new SLI\n     * @param _tokenAddress 7. address of the DSLA token to be unlocked for staking\n     * @param _sla_period_starts 8. array with the values for the \"start\" of every period\n     * @param _sla_period_ends 9. array with the values for the \"end\" of every period\n     * @param _daiAddress 10. DAI Token Address to accept by default\n     */\n    function createSLA(\n        address _owner,\n        bytes32[] memory _SLONames,\n        SLO[] memory _SLOs,\n        uint256 _stake,\n        string memory _ipfsHash,\n        uint256 _sliInterval,\n        bDSLAToken _tokenAddress,\n        uint256[] memory _sla_period_starts,\n        uint256[] memory _sla_period_ends,\n        address _daiAddress\n    ) public {\n        SLA sla =\n            new SLA(\n                _owner,\n                _SLONames,\n                _SLOs,\n                _stake,\n                _ipfsHash,\n                _sliInterval,\n                _tokenAddress,\n                _sla_period_starts,\n                _sla_period_ends,\n                _daiAddress\n            );\n\n        SLAs.push(sla);\n\n        uint256 index = SLAs.length.sub(1);\n\n        userToSLAIndexes[msg.sender].push(index);\n\n        emit SLACreated(sla, _owner);\n    }\n\n    /**\n     * @dev Gets SLI information for the specified SLA and SLO\n     * @param _periodId 1. id of the period\n     * @param _sla 2. SLA Address\n     * @param _sloName 3. SLO Name\n     * @notice it will revert if the SLO is not registered in the SLA\n     */\n    function requestSLI(\n        uint256 _periodId,\n        SLA _sla,\n        bytes32 _sloName\n    ) public {\n        require(\n            address(SLA(_sla).SLOs(_sloName)) != address(0),\n            \"_sloName does not exist in the SLA contract\"\n        );\n        /// TODO:change to call(signature(params)))\n        messenger.requestSLI(_periodId, _sla, _sloName);\n    }\n\n    /**\n     * @dev public view function that returns the service level agreements that\n     * the given user is the owner of\n     * @param _user Address of the user for which to return the service level\n     * agreements\n     * @return array of SLAs\n     */\n    function userSLAs(address _user) public view returns (SLA[] memory) {\n        uint256 count = userSLACount(_user);\n        SLA[] memory SLAList = new SLA[](count);\n        uint256[] memory userSLAIndexes = userToSLAIndexes[_user];\n\n        for (uint256 i = 0; i < count; i++) {\n            SLAList[i] = (SLAs[userSLAIndexes[i]]);\n        }\n\n        return (SLAList);\n    }\n\n    /**\n     * @dev public view function that returns the amount of service level\n     * agreements the given user is the owner of\n     * @param _user 1. address of the user for which to return the amount of\n     * service level agreements\n     * @return uint256 corresponding to the amount of user's SLAs\n     */\n    function userSLACount(address _user) public view returns (uint256) {\n        return userToSLAIndexes[_user].length;\n    }\n\n    /**\n     * @dev public view function that returns all the service level agreements\n     * @return SLA[] array of SLAs\n     */\n    function allSLAs() public view returns (SLA[] memory) {\n        return (SLAs);\n    }\n\n    /**\n     * @dev public view function that returns the total amount of service\n     * level agreements\n     * @return uint256, the length of SLA array\n     */\n    function SLACount() public view returns (uint256) {\n        return SLAs.length;\n    }\n\n    /**\n     * @dev returns the active pools owned by a user.\n     * @param _slaOwner 1. owner of the active pool\n     * @return ActivePool[], array of structs: {SLAaddress,stake,assetName}\n     */\n    function getActivePool(address _slaOwner)\n        public\n        view\n        returns (ActivePool[] memory)\n    {\n        ActivePool[] memory activePools =\n            new ActivePool[](userSLACount(_slaOwner));\n        for (uint256 index = 0; index < userSLACount(_slaOwner); index++) {\n            SLA currentSLA = SLAs[userToSLAIndexes[_slaOwner][index]];\n            for (\n                uint256 tokenIndex = 0;\n                tokenIndex < currentSLA.getTokenStakeLength(msg.sender);\n                tokenIndex++\n            ) {\n                (address tokenAddress, uint256 stake) =\n                    currentSLA.getTokenStake(msg.sender, tokenIndex);\n                (, bytes memory tokenNameBytes) =\n                    tokenAddress.staticcall(\n                        abi.encodeWithSelector(NAME_SELECTOR)\n                    );\n                ActivePool memory currentActivePool =\n                    ActivePool({\n                        SLAaddress: address(currentSLA),\n                        stake: stake,\n                        assetName: string(tokenNameBytes),\n                        assetAddress: tokenAddress\n                    });\n                activePools[index] = currentActivePool;\n            }\n        }\n        return activePools;\n    }\n}\n",
  "sourcePath": "/Users/matiasbn/Desktop/stacktical/stacktical-dsla-contracts/contracts/SLARegistry.sol",
  "compiler": {
    "name": "solc",
    "version": "0.6.12+commit.27d51765.Emscripten.clang"
  },
  "schemaVersion": "3.2.5",
  "updatedAt": "2020-12-29T13:31:01.709Z",
  "devdoc": {
    "details": "SLARegistry is a contract for handling creation of service level agreements and keeping track of the created agreements",
    "events": {
      "SLACreated(address,address)": {
        "details": "event for service level agreement creation logging",
        "params": {
          "owner": "2. The address of the owner of the service level agreement",
          "sla": "1. The address of the created service level agreement contract"
        }
      }
    },
    "kind": "dev",
    "methods": {
      "SLACount()": {
        "details": "public view function that returns the total amount of service level agreements",
        "returns": {
          "_0": "uint256, the length of SLA array"
        }
      },
      "allSLAs()": {
        "details": "public view function that returns all the service level agreements",
        "returns": {
          "_0": "SLA[] array of SLAs"
        }
      },
      "constructor": {
        "details": "constructor",
        "params": {
          "_messengerAddress": "the address of the chainlink messenger contract"
        }
      },
      "createSLA(address,bytes32[],address[],uint256,string,uint256,address,uint256[],uint256[],address)": {
        "details": "public function for creating service level agreements",
        "params": {
          "_SLONames": "2. array of the names of the service level objectives in bytes32",
          "_SLOs": "3. array of service level objective contract addressess service level objective breach",
          "_daiAddress": "10. DAI Token Address to accept by default",
          "_ipfsHash": "5. string with the ipfs hash that contains extra information about the service level agreement",
          "_owner": "1. address of the owner of the service level agreement",
          "_sla_period_ends": "9. array with the values for the \"end\" of every period",
          "_sla_period_starts": "8. array with the values for the \"start\" of every period",
          "_sliInterval": "6. uint the interval in seconds between requesting a new SLI",
          "_stake": "4. uint of the amount required to stake when signing the service level agreement",
          "_tokenAddress": "7. address of the DSLA token to be unlocked for staking"
        }
      },
      "getActivePool(address)": {
        "details": "returns the active pools owned by a user.",
        "params": {
          "_slaOwner": "1. owner of the active pool"
        },
        "returns": {
          "_0": "ActivePool[], array of structs: {SLAaddress,stake,assetName}"
        }
      },
      "requestSLI(uint256,address,bytes32)": {
        "details": "Gets SLI information for the specified SLA and SLO",
        "params": {
          "_periodId": "1. id of the period",
          "_sla": "2. SLA Address",
          "_sloName": "3. SLO Name"
        }
      },
      "userSLACount(address)": {
        "details": "public view function that returns the amount of service level agreements the given user is the owner of",
        "params": {
          "_user": "1. address of the user for which to return the amount of service level agreements"
        },
        "returns": {
          "_0": "uint256 corresponding to the amount of user's SLAs"
        }
      },
      "userSLAs(address)": {
        "details": "public view function that returns the service level agreements that the given user is the owner of",
        "params": {
          "_user": "Address of the user for which to return the service level agreements"
        },
        "returns": {
          "_0": "array of SLAs"
        }
      }
    },
    "stateVariables": {
      "SLAs": {
        "details": "stores the addresses of created SLAs"
      },
      "messenger": {
        "details": "Messenger of the SLA Registry"
      },
      "userToSLAIndexes": {
        "details": "stores the indexes of service level agreements owned by an user"
      }
    },
    "title": "SLARegistry",
    "version": 1
  },
  "userdoc": {
    "kind": "user",
    "methods": {
      "requestSLI(uint256,address,bytes32)": {
        "notice": "it will revert if the SLO is not registered in the SLA"
      }
    },
    "version": 1
  }
}