{
  "contractName": "SLO",
  "abi": [
    {
      "inputs": [
        {
          "internalType": "uint256",
          "name": "_value",
          "type": "uint256"
        },
        {
          "internalType": "enum SLORegistry.SLOType",
          "name": "_sloType",
          "type": "uint8"
        }
      ],
      "stateMutability": "nonpayable",
      "type": "constructor"
    },
    {
      "inputs": [],
      "name": "sloType",
      "outputs": [
        {
          "internalType": "enum SLORegistry.SLOType",
          "name": "",
          "type": "uint8"
        }
      ],
      "stateMutability": "view",
      "type": "function"
    },
    {
      "inputs": [],
      "name": "value",
      "outputs": [
        {
          "internalType": "uint256",
          "name": "",
          "type": "uint256"
        }
      ],
      "stateMutability": "view",
      "type": "function"
    },
    {
      "inputs": [
        {
          "internalType": "uint256",
          "name": "_value",
          "type": "uint256"
        }
      ],
      "name": "isRespected",
      "outputs": [
        {
          "internalType": "bool",
          "name": "",
          "type": "bool"
        }
      ],
      "stateMutability": "view",
      "type": "function"
    },
    {
      "inputs": [],
      "name": "getDetails",
      "outputs": [
        {
          "internalType": "uint256",
          "name": "_value",
          "type": "uint256"
        },
        {
          "internalType": "enum SLORegistry.SLOType",
          "name": "_sloType",
          "type": "uint8"
        }
      ],
      "stateMutability": "view",
      "type": "function"
    }
  ],
  "bytecode": "0x608060405234801561001057600080fd5b506040516102f63803806102f68339818101604052604081101561003357600080fd5b508051602090910151600182815560008054839260ff199091169083600581111561005a57fe5b02179055505050610286806100706000396000f3fe608060405234801561001057600080fd5b506004361061004c5760003560e01c80630f23cb8c146100515780632cd54e2e146100825780633fa4f245146100ab578063fbbf93a0146100c5575b600080fd5b61006e6004803603602081101561006757600080fd5b50356100f5565b604080519115158252519081900360200190f35b61008a61020d565b6040518082600581111561009a57fe5b815260200191505060405180910390f35b6100b3610216565b60408051918252519081900360200190f35b6100cd61021c565b604051808381526020018260058111156100e357fe5b81526020019250505060405180910390f35b60008060005460ff16600581111561010957fe5b141561011a57506001548114610208565b600160005460ff16600581111561012d57fe5b141561013f5750600154811415610208565b600260005460ff16600581111561015257fe5b141561016357506001548110610208565b600360005460ff16600581111561017657fe5b14156101885750600154811115610208565b600460005460ff16600581111561019b57fe5b14156101ac57506001548111610208565b600560005460ff1660058111156101bf57fe5b14156101d15750600154811015610208565b60405162461bcd60e51b815260040180806020018281038252602481526020018061022d6024913960400191505060405180910390fd5b919050565b60005460ff1681565b60015481565b600154600054909160ff9091169056fe6973526573706563746564207761736e27742065786563757465642070726f7065726c79a2646970667358221220b0eacb7033c4a62965385b68bbc8772e494769ae433622dd40f8aff4a55996b364736f6c634300060c0033",
  "immutableReferences": {},
  "source": "// SPDX-License-Identifier: MIT\npragma solidity ^0.6.0;\n\nimport \"./SLORegistry.sol\";\n\n/**\n * @title SLO\n * @dev SLO is a service level objective contract used to check SLI's against\n */\ncontract SLO {\n    /// @dev the checking sloType for this SLO\n    SLORegistry.SLOType public sloType;\n\n    /// @dev the value to check the SLI against\n    uint256 public value;\n\n    /**\n     * @param _value 1. The value to check the SLI against\n     * @param _sloType 2. The checking sloType for this SLO\n     */\n    constructor(uint256 _value, SLORegistry.SLOType _sloType) public {\n        value = _value;\n        sloType = _sloType;\n    }\n\n    /**\n     * @dev external view function to check a value against the SLO\n     * @param _value The SLI value to check against the SL\n     * @return boolean with the SLO honored state\n     */\n    function isRespected(uint256 _value) public view returns (bool) {\n        if (sloType == SLORegistry.SLOType.EqualTo) {\n            return _value == value;\n        }\n\n        if (sloType == SLORegistry.SLOType.NotEqualTo) {\n            return _value != value;\n        }\n\n        if (sloType == SLORegistry.SLOType.SmallerThan) {\n            return _value < value;\n        }\n\n        if (sloType == SLORegistry.SLOType.SmallerOrEqualTo) {\n            return _value <= value;\n        }\n\n        if (sloType == SLORegistry.SLOType.GreaterThan) {\n            return _value > value;\n        }\n\n        if (sloType == SLORegistry.SLOType.GreaterOrEqualTo) {\n            return _value >= value;\n        }\n        revert(\"isRespected wasn't executed properly\");\n    }\n\n    function getDetails()\n        public\n        view\n        returns (uint256 _value, SLORegistry.SLOType _sloType)\n    {\n        _value = value;\n        _sloType = sloType;\n    }\n}\n",
  "sourcePath": "/Users/matiasbn/Desktop/stacktical/stacktical-dsla-contracts/contracts/SLO.sol",
  "compiler": {
    "name": "solc",
    "version": "0.6.12+commit.27d51765.Emscripten.clang"
  },
  "schemaVersion": "3.3.3",
  "updatedAt": "2021-02-19T18:12:04.398Z",
  "devdoc": {
    "details": "SLO is a service level objective contract used to check SLI's against",
    "kind": "dev",
    "methods": {
      "constructor": {
        "params": {
          "_sloType": "2. The checking sloType for this SLO",
          "_value": "1. The value to check the SLI against"
        }
      },
      "isRespected(uint256)": {
        "details": "external view function to check a value against the SLO",
        "params": {
          "_value": "The SLI value to check against the SL"
        },
        "returns": {
          "_0": "boolean with the SLO honored state"
        }
      }
    },
    "stateVariables": {
      "sloType": {
        "details": "the checking sloType for this SLO"
      },
      "value": {
        "details": "the value to check the SLI against"
      }
    },
    "title": "SLO",
    "version": 1
  },
  "userdoc": {
    "kind": "user",
    "methods": {},
    "version": 1
  }
}