{
  "contractName": "SLO",
  "abi": [
    {
      "inputs": [
        {
          "internalType": "uint256",
          "name": "_value",
          "type": "uint256"
        },
        {
          "internalType": "enum SLO.SLOTypes",
          "name": "_SLOType",
          "type": "uint8"
        },
        {
          "internalType": "bytes32",
          "name": "_name",
          "type": "bytes32"
        }
      ],
      "stateMutability": "nonpayable",
      "type": "constructor"
    },
    {
      "anonymous": false,
      "inputs": [
        {
          "indexed": false,
          "internalType": "uint256",
          "name": "_value",
          "type": "uint256"
        },
        {
          "indexed": false,
          "internalType": "enum SLO.SLOTypes",
          "name": "_SLOType",
          "type": "uint8"
        },
        {
          "indexed": false,
          "internalType": "bytes32",
          "name": "_name",
          "type": "bytes32"
        }
      ],
      "name": "SLORegistered",
      "type": "event"
    },
    {
      "inputs": [],
      "name": "SLOType",
      "outputs": [
        {
          "internalType": "enum SLO.SLOTypes",
          "name": "",
          "type": "uint8"
        }
      ],
      "stateMutability": "view",
      "type": "function"
    },
    {
      "inputs": [],
      "name": "name",
      "outputs": [
        {
          "internalType": "bytes32",
          "name": "",
          "type": "bytes32"
        }
      ],
      "stateMutability": "view",
      "type": "function"
    },
    {
      "inputs": [],
      "name": "value",
      "outputs": [
        {
          "internalType": "uint256",
          "name": "",
          "type": "uint256"
        }
      ],
      "stateMutability": "view",
      "type": "function"
    },
    {
      "inputs": [
        {
          "internalType": "uint256",
          "name": "_value",
          "type": "uint256"
        }
      ],
      "name": "isSLOHonored",
      "outputs": [
        {
          "internalType": "bool",
          "name": "",
          "type": "bool"
        }
      ],
      "stateMutability": "view",
      "type": "function"
    },
    {
      "inputs": [],
      "name": "getDetails",
      "outputs": [
        {
          "internalType": "bytes32",
          "name": "_name",
          "type": "bytes32"
        },
        {
          "internalType": "uint256",
          "name": "_value",
          "type": "uint256"
        },
        {
          "internalType": "enum SLO.SLOTypes",
          "name": "_SLOType",
          "type": "uint8"
        }
      ],
      "stateMutability": "view",
      "type": "function"
    }
  ],
  "bytecode": "0x608060405234801561001057600080fd5b5060405161037d38038061037d8339818101604052606081101561003357600080fd5b5080516020820151604090920151600182815560008054939493849260ff199091169083600581111561006257fe5b0217905550806002819055507fbc0575dbcc2a44104cea600e4aacedc0030c223951fc23106ec03e9c135b6bd2838383604051808481526020018360058111156100a857fe5b8152602001828152602001935050505060405180910390a15050506102ab806100d26000396000f3fe608060405234801561001057600080fd5b50600436106100575760003560e01c806306fdde031461005c5780633fa4f24514610076578063868d08f71461007e578063cf1ddcce146100af578063fbbf93a0146100d8575b600080fd5b61006461010f565b60408051918252519081900360200190f35b610064610115565b61009b6004803603602081101561009457600080fd5b503561011b565b604080519115158252519081900360200190f35b6100b7610233565b604051808260058111156100c757fe5b815260200191505060405180910390f35b6100e061023c565b604051808481526020018381526020018260058111156100fc57fe5b8152602001935050505060405180910390f35b60025481565b60015481565b60008060005460ff16600581111561012f57fe5b14156101405750600154811461022e565b600160005460ff16600581111561015357fe5b1415610165575060015481141561022e565b600260005460ff16600581111561017857fe5b14156101895750600154811061022e565b600360005460ff16600581111561019c57fe5b14156101ae575060015481111561022e565b600460005460ff1660058111156101c157fe5b14156101d25750600154811161022e565b600560005460ff1660058111156101e557fe5b14156101f7575060015481101561022e565b60405162461bcd60e51b81526004018080602001828103825260268152602001806102506026913960400191505060405180910390fd5b919050565b60005460ff1681565b6002546001546000549192909160ff169056fe6973534c4f486f6e6f75726564207761736e27742065786563757465642070726f7065726c79a264697066735822122081a637163ae9dfb66fe1d55ec4b978d325c8ecfc8ce68fd4afd47351ce74fe3264736f6c634300060c0033",
  "immutableReferences": {},
  "source": "// SPDX-License-Identifier: MIT\npragma solidity ^0.6.0;\n\n/**\n * @title SLO\n * @dev SLO is a service level objective contract used to check SLI's against\n */\ncontract SLO {\n    /// @dev checking types to check if a SLA was honored or not\n    enum SLOTypes {\n        EqualTo,\n        NotEqualTo,\n        SmallerThan,\n        SmallerOrEqualTo,\n        GreaterThan,\n        GreaterOrEqualTo\n    }\n\n    /// @dev the checking type for this SLO\n    SLOTypes public SLOType;\n\n    /// @dev the value to check the SLI against\n    uint256 public value;\n\n    /// @dev the name of the SLO in bytes32\n    bytes32 public name;\n\n    /**\n     * @dev event for logging SLO creation\n     * @param _value 1. The value to check the SLI against\n     * @param _SLOType 2. The checking type for this SLO\n     * @param _name 3. The name of the SLO in bytes32\n     */\n    event SLORegistered(uint256 _value, SLOTypes _SLOType, bytes32 _name);\n\n    /**\n     * @param _value 1. The value to check the SLI against\n     * @param _SLOType 2. The checking type for this SLO\n     * @param _name 3. The name of the SLO in bytes32\n     */\n    constructor(\n        uint256 _value,\n        SLOTypes _SLOType,\n        bytes32 _name\n    ) public {\n        value = _value;\n        SLOType = _SLOType;\n        name = _name;\n\n        emit SLORegistered(_value, _SLOType, _name);\n    }\n\n    /**\n     * @dev external view function to check a value against the SLO\n     * @param _value The SLI value to check against the SL\n     * @return boolean with the SLO honored state\n     */\n    function isSLOHonored(uint256 _value) public view returns (bool) {\n        if (SLOType == SLOTypes.EqualTo) {\n            return _value == value;\n        }\n\n        if (SLOType == SLOTypes.NotEqualTo) {\n            return _value != value;\n        }\n\n        if (SLOType == SLOTypes.SmallerThan) {\n            return _value < value;\n        }\n\n        if (SLOType == SLOTypes.SmallerOrEqualTo) {\n            return _value <= value;\n        }\n\n        if (SLOType == SLOTypes.GreaterThan) {\n            return _value > value;\n        }\n\n        if (SLOType == SLOTypes.GreaterOrEqualTo) {\n            return _value >= value;\n        }\n        revert(\"isSLOHonoured wasn't executed properly\");\n    }\n\n    function getDetails()\n        public\n        view\n        returns (\n            bytes32 _name,\n            uint256 _value,\n            SLOTypes _SLOType\n        )\n    {\n        _name = name;\n        _value = value;\n        _SLOType = SLOType;\n    }\n}\n",
  "sourcePath": "/Users/matiasbn/Desktop/stacktical/stacktical-dsla-contracts/contracts/SLO.sol",
  "compiler": {
    "name": "solc",
    "version": "0.6.12+commit.27d51765.Emscripten.clang"
  },
  "schemaVersion": "3.3.3",
  "updatedAt": "2021-02-14T09:57:15.497Z",
  "devdoc": {
    "details": "SLO is a service level objective contract used to check SLI's against",
    "events": {
      "SLORegistered(uint256,uint8,bytes32)": {
        "details": "event for logging SLO creation",
        "params": {
          "_SLOType": "2. The checking type for this SLO",
          "_name": "3. The name of the SLO in bytes32",
          "_value": "1. The value to check the SLI against"
        }
      }
    },
    "kind": "dev",
    "methods": {
      "constructor": {
        "params": {
          "_SLOType": "2. The checking type for this SLO",
          "_name": "3. The name of the SLO in bytes32",
          "_value": "1. The value to check the SLI against"
        }
      },
      "isSLOHonored(uint256)": {
        "details": "external view function to check a value against the SLO",
        "params": {
          "_value": "The SLI value to check against the SL"
        },
        "returns": {
          "_0": "boolean with the SLO honored state"
        }
      }
    },
    "stateVariables": {
      "SLOType": {
        "details": "the checking type for this SLO"
      },
      "name": {
        "details": "the name of the SLO in bytes32"
      },
      "value": {
        "details": "the value to check the SLI against"
      }
    },
    "title": "SLO",
    "version": 1
  },
  "userdoc": {
    "kind": "user",
    "methods": {},
    "version": 1
  }
}