{
  "contractName": "SLO",
  "abi": [
    {
      "constant": true,
      "inputs": [],
      "name": "name",
      "outputs": [
        {
          "name": "",
          "type": "bytes32"
        }
      ],
      "payable": false,
      "stateMutability": "view",
      "type": "function"
    },
    {
      "constant": true,
      "inputs": [],
      "name": "value",
      "outputs": [
        {
          "name": "",
          "type": "uint256"
        }
      ],
      "payable": false,
      "stateMutability": "view",
      "type": "function"
    },
    {
      "constant": true,
      "inputs": [],
      "name": "SLOType",
      "outputs": [
        {
          "name": "",
          "type": "uint8"
        }
      ],
      "payable": false,
      "stateMutability": "view",
      "type": "function"
    },
    {
      "inputs": [
        {
          "name": "_value",
          "type": "uint256"
        },
        {
          "name": "_SLOType",
          "type": "uint8"
        },
        {
          "name": "_name",
          "type": "bytes32"
        }
      ],
      "payable": false,
      "stateMutability": "nonpayable",
      "type": "constructor"
    },
    {
      "anonymous": false,
      "inputs": [
        {
          "indexed": false,
          "name": "_value",
          "type": "uint256"
        },
        {
          "indexed": false,
          "name": "_SLOType",
          "type": "uint8"
        },
        {
          "indexed": false,
          "name": "_name",
          "type": "bytes32"
        }
      ],
      "name": "SLORegistered",
      "type": "event"
    },
    {
      "constant": true,
      "inputs": [
        {
          "name": "_value",
          "type": "uint256"
        }
      ],
      "name": "isSLOHonored",
      "outputs": [
        {
          "name": "",
          "type": "bool"
        }
      ],
      "payable": false,
      "stateMutability": "view",
      "type": "function"
    }
  ],
  "bytecode": "0x608060405234801561001057600080fd5b506040516060806103de8339810180604052606081101561003057600080fd5b8101908080519060200190929190805190602001909291908051906020019092919050505082600181905550816000806101000a81548160ff0219169083600581111561007957fe5b0217905550806002819055507fbc0575dbcc2a44104cea600e4aacedc0030c223951fc23106ec03e9c135b6bd2838383604051808481526020018360058111156100bf57fe5b60ff168152602001828152602001935050505060405180910390a15050506102f2806100ec6000396000f3fe608060405260043610610062576000357c0100000000000000000000000000000000000000000000000000000000900463ffffffff16806306fdde03146100675780633fa4f24514610092578063868d08f7146100bd578063cf1ddcce14610110575b600080fd5b34801561007357600080fd5b5061007c610149565b6040518082815260200191505060405180910390f35b34801561009e57600080fd5b506100a761014f565b6040518082815260200191505060405180910390f35b3480156100c957600080fd5b506100f6600480360360208110156100e057600080fd5b8101908080359060200190929190505050610155565b604051808215151515815260200191505060405180910390f35b34801561011c57600080fd5b506101256102b4565b6040518082600581111561013557fe5b60ff16815260200191505060405180910390f35b60025481565b60015481565b600080600581111561016357fe5b6000809054906101000a900460ff16600581111561017d57fe5b141561018f57600154821490506102af565b6001600581111561019c57fe5b6000809054906101000a900460ff1660058111156101b657fe5b14156101c95760015482141590506102af565b600260058111156101d657fe5b6000809054906101000a900460ff1660058111156101f057fe5b141561020257600154821090506102af565b6003600581111561020f57fe5b6000809054906101000a900460ff16600581111561022957fe5b141561023c5760015482111590506102af565b6004600581111561024957fe5b6000809054906101000a900460ff16600581111561026357fe5b141561027557600154821190506102af565b60058081111561028157fe5b6000809054906101000a900460ff16600581111561029b57fe5b14156102ae5760015482101590506102af565b5b919050565b6000809054906101000a900460ff168156fea165627a7a72305820dc46ddd897a2d676f78a32ed6a212bf19c1fb20d1aaaccb445c32bfb504359fa0029",
  "source": "pragma solidity ^0.5.0;\n\ncontract SLO {\n\n    enum SLOTypes { EqualTo, NotEqualTo, SmallerThan, SmallerOrEqualTo, GreaterThan, GreaterOrEqualTo }\n\n    SLOTypes public SLOType;\n\n    uint public value;\n    bytes32 public name;\n\n    event SLORegistered(uint _value, SLOTypes _SLOType, bytes32 _name);\n\n    constructor(uint _value, SLOTypes _SLOType, bytes32 _name) public {\n        value = _value;\n        SLOType = _SLOType;\n        name = _name;\n\n        emit SLORegistered(_value, _SLOType, _name);\n    }\n\n    function isSLOHonored(uint _value) external view returns(bool) {\n        if (SLOType == SLOTypes.EqualTo) {\n            return _value == value;\n        }\n\n        if (SLOType == SLOTypes.NotEqualTo) {\n            return _value != value;\n        }\n\n        if (SLOType == SLOTypes.SmallerThan) {\n            return _value < value;\n        }\n\n        if (SLOType == SLOTypes.SmallerOrEqualTo) {\n            return _value <= value;\n        }\n\n        if (SLOType == SLOTypes.GreaterThan) {\n            return _value > value;\n        }\n\n        if (SLOType == SLOTypes.GreaterOrEqualTo) {\n            return _value >= value;\n        }\n    }\n\n}\n",
  "sourcePath": "/Users/Martin_Balk/projects/stacktical/stacktical-mvp-contracts/contracts/SLO/SLO.sol",
  "compiler": {
    "name": "solc",
    "version": "0.5.0+commit.1d4f565a.Emscripten.clang"
  },
  "schemaVersion": "3.0.6",
  "updatedAt": "2019-04-09T08:07:49.726Z",
  "devdoc": {
    "methods": {}
  },
  "userdoc": {
    "methods": {}
  }
}