{
  "contractName": "SLO",
  "abi": [
    {
      "inputs": [
        {
          "internalType": "uint256",
          "name": "_value",
          "type": "uint256"
        },
        {
          "internalType": "enum SLORegistry.SLOType",
          "name": "_sloType",
          "type": "uint8"
        }
      ],
      "stateMutability": "nonpayable",
      "type": "constructor"
    },
    {
      "inputs": [],
      "name": "sloType",
      "outputs": [
        {
          "internalType": "enum SLORegistry.SLOType",
          "name": "",
          "type": "uint8"
        }
      ],
      "stateMutability": "view",
      "type": "function"
    },
    {
      "inputs": [],
      "name": "value",
      "outputs": [
        {
          "internalType": "uint256",
          "name": "",
          "type": "uint256"
        }
      ],
      "stateMutability": "view",
      "type": "function"
    },
    {
      "inputs": [
        {
          "internalType": "uint256",
          "name": "_value",
          "type": "uint256"
        }
      ],
      "name": "isRespected",
      "outputs": [
        {
          "internalType": "bool",
          "name": "",
          "type": "bool"
        }
      ],
      "stateMutability": "view",
      "type": "function"
    },
    {
      "inputs": [],
      "name": "getDetails",
      "outputs": [
        {
          "internalType": "uint256",
          "name": "_value",
          "type": "uint256"
        },
        {
          "internalType": "enum SLORegistry.SLOType",
          "name": "_sloType",
          "type": "uint8"
        }
      ],
      "stateMutability": "view",
      "type": "function"
    }
  ],
  "bytecode": "0x608060405234801561001057600080fd5b506040516102fc3803806102fc8339818101604052604081101561003357600080fd5b508051602090910151600182815560008054839260ff199091169083600581111561005a57fe5b0217905550505061028c806100706000396000f3fe608060405234801561001057600080fd5b506004361061004c5760003560e01c80630f23cb8c146100515780632cd54e2e146100825780633fa4f245146100ae578063fbbf93a0146100c8575b600080fd5b61006e6004803603602081101561006757600080fd5b50356100fb565b604080519115158252519081900360200190f35b61008a610213565b6040518082600581111561009a57fe5b60ff16815260200191505060405180910390f35b6100b661021c565b60408051918252519081900360200190f35b6100d0610222565b604051808381526020018260058111156100e657fe5b60ff1681526020019250505060405180910390f35b60008060005460ff16600581111561010f57fe5b14156101205750600154811461020e565b600160005460ff16600581111561013357fe5b1415610145575060015481141561020e565b600260005460ff16600581111561015857fe5b14156101695750600154811061020e565b600360005460ff16600581111561017c57fe5b141561018e575060015481111561020e565b600460005460ff1660058111156101a157fe5b14156101b25750600154811161020e565b600560005460ff1660058111156101c557fe5b14156101d7575060015481101561020e565b60405162461bcd60e51b81526004018080602001828103825260248152602001806102336024913960400191505060405180910390fd5b919050565b60005460ff1681565b60015481565b600154600054909160ff9091169056fe6973526573706563746564207761736e27742065786563757465642070726f7065726c79a264697066735822122009cc3004d4a75e2e7ebbcb32e31420ad98a17dfcf2c83476a3e12ec465fc1b7064736f6c63430006060033",
  "immutableReferences": {},
  "source": "// SPDX-License-Identifier: MIT\npragma solidity 0.6.6;\n\nimport \"./SLORegistry.sol\";\n\n/**\n * @title SLO\n * @dev SLO is a service level objective contract used to check SLI's against\n */\ncontract SLO {\n    /// @dev the checking sloType for this SLO\n    SLORegistry.SLOType public sloType;\n\n    /// @dev the value to check the SLI against\n    uint256 public value;\n\n    /**\n     * @param _value 1. The value to check the SLI against\n     * @param _sloType 2. The checking sloType for this SLO\n     */\n    constructor(uint256 _value, SLORegistry.SLOType _sloType) public {\n        value = _value;\n        sloType = _sloType;\n    }\n\n    /**\n     * @dev external view function to check a value against the SLO\n     * @param _value The SLI value to check against the SL\n     * @return boolean with the SLO honored state\n     */\n    function isRespected(uint256 _value) public view returns (bool) {\n        if (sloType == SLORegistry.SLOType.EqualTo) {\n            return _value == value;\n        }\n\n        if (sloType == SLORegistry.SLOType.NotEqualTo) {\n            return _value != value;\n        }\n\n        if (sloType == SLORegistry.SLOType.SmallerThan) {\n            return _value < value;\n        }\n\n        if (sloType == SLORegistry.SLOType.SmallerOrEqualTo) {\n            return _value <= value;\n        }\n\n        if (sloType == SLORegistry.SLOType.GreaterThan) {\n            return _value > value;\n        }\n\n        if (sloType == SLORegistry.SLOType.GreaterOrEqualTo) {\n            return _value >= value;\n        }\n        revert(\"isRespected wasn't executed properly\");\n    }\n\n    function getDetails()\n        public\n        view\n        returns (uint256 _value, SLORegistry.SLOType _sloType)\n    {\n        _value = value;\n        _sloType = sloType;\n    }\n}\n",
  "sourcePath": "/Users/matiasbn/Desktop/stacktical/stacktical-dsla-contracts/contracts/SLO.sol",
  "compiler": {
    "name": "solc",
    "version": "0.6.6+commit.6c089d02.Emscripten.clang"
  },
  "schemaVersion": "3.3.3",
  "updatedAt": "2021-03-15T19:34:09.406Z",
  "devdoc": {
    "details": "SLO is a service level objective contract used to check SLI's against",
    "methods": {
      "constructor": {
        "params": {
          "_sloType": "2. The checking sloType for this SLO",
          "_value": "1. The value to check the SLI against"
        }
      },
      "isRespected(uint256)": {
        "details": "external view function to check a value against the SLO",
        "params": {
          "_value": "The SLI value to check against the SL"
        },
        "returns": {
          "_0": "boolean with the SLO honored state"
        }
      }
    },
    "title": "SLO"
  },
  "userdoc": {
    "methods": {}
  }
}