{
  "contractName": "SLORegistry",
  "abi": [
    {
      "anonymous": false,
      "inputs": [
        {
          "indexed": true,
          "internalType": "contract SLO",
          "name": "slo",
          "type": "address"
        },
        {
          "indexed": false,
          "internalType": "uint256",
          "name": "value",
          "type": "uint256"
        },
        {
          "indexed": false,
          "internalType": "enum SLORegistry.SLOType",
          "name": "sloType",
          "type": "uint8"
        }
      ],
      "name": "SLOCreated",
      "type": "event"
    },
    {
      "inputs": [
        {
          "internalType": "uint256",
          "name": "",
          "type": "uint256"
        }
      ],
      "name": "registeredSLOs",
      "outputs": [
        {
          "internalType": "address",
          "name": "",
          "type": "address"
        }
      ],
      "stateMutability": "view",
      "type": "function"
    },
    {
      "inputs": [
        {
          "internalType": "uint256",
          "name": "",
          "type": "uint256"
        },
        {
          "internalType": "enum SLORegistry.SLOType",
          "name": "",
          "type": "uint8"
        }
      ],
      "name": "sloAddresses",
      "outputs": [
        {
          "internalType": "address",
          "name": "",
          "type": "address"
        }
      ],
      "stateMutability": "view",
      "type": "function"
    },
    {
      "inputs": [
        {
          "internalType": "uint256",
          "name": "_value",
          "type": "uint256"
        },
        {
          "internalType": "enum SLORegistry.SLOType",
          "name": "_sloType",
          "type": "uint8"
        }
      ],
      "name": "createSLO",
      "outputs": [],
      "stateMutability": "nonpayable",
      "type": "function"
    },
    {
      "inputs": [
        {
          "internalType": "address",
          "name": "_sloAddress",
          "type": "address"
        }
      ],
      "name": "isRegisteredSLO",
      "outputs": [
        {
          "internalType": "bool",
          "name": "",
          "type": "bool"
        }
      ],
      "stateMutability": "view",
      "type": "function"
    },
    {
      "inputs": [],
      "name": "getAllSLOs",
      "outputs": [
        {
          "internalType": "address[]",
          "name": "",
          "type": "address[]"
        }
      ],
      "stateMutability": "view",
      "type": "function"
    }
  ],
  "bytecode": "0x608060405234801561001057600080fd5b506107d7806100206000396000f3fe608060405234801561001057600080fd5b50600436106100575760003560e01c806330cb27391461005c57806364ad69d91461007a578063749b422c1461009a57806378488ba3146100ad578063d12250da146100c2575b600080fd5b6100646100e2565b6040516100719190610401565b60405180910390f35b61008d6100883660046103a3565b610144565b60405161007191906103ed565b61008d6100a83660046103bb565b61016b565b6100c06100bb3660046103bb565b610191565b005b6100d56100d0366004610375565b61030b565b604051610071919061044e565b6060600080548060200260200160405190810160405280929190818152602001828054801561013a57602002820191906000526020600020905b81546001600160a01b0316815260019091019060200180831161011c575b5050505050905090565b6000818154811061015157fe5b6000918252602090912001546001600160a01b0316905081565b60016020908152600092835260408084209091529082529020546001600160a01b031681565b6000828152600160205260408120818360058111156101ac57fe5b60058111156101b757fe5b81526020810191909152604001600020546001600160a01b0316146101f75760405162461bcd60e51b81526004016101ee90610459565b60405180910390fd5b6000828260405161020790610368565b610212929190610487565b604051809103906000f08015801561022e573d6000803e3d6000fd5b5060008054600180820183557f290decd9548b62a8d60345a988386fc84ba6bc95484008f6362f93160ef3e56390910180546001600160a01b0319166001600160a01b0385161790558582526020526040812091925082919084600581111561029357fe5b600581111561029e57fe5b81526020810191909152604090810160002080546001600160a01b0319166001600160a01b0393841617905551908216907fb3ffce2cb6f1173cb955e4fd03b9965a5fa1eea29d0343ee46c3b4b907c77d29906102fe9086908690610487565b60405180910390a2505050565b6000805b60005481101561035d57826001600160a01b03166000828154811061033057fe5b6000918252602090912001546001600160a01b03161415610355576001915050610363565b60010161030f565b50600090505b919050565b6102fc806104a683390190565b600060208284031215610386578081fd5b81356001600160a01b038116811461039c578182fd5b9392505050565b6000602082840312156103b4578081fd5b5035919050565b600080604083850312156103cd578081fd5b823591506020830135600681106103e2578182fd5b809150509250929050565b6001600160a01b0391909116815260200190565b6020808252825182820181905260009190848201906040850190845b818110156104425783516001600160a01b03168352928401929184019160010161041d565b50909695505050505050565b901515815260200190565b60208082526014908201527314d313c8185b1c9958591e4819195c1b1bde595960621b604082015260600190565b828152604081016006831061049857fe5b826020830152939250505056fe608060405234801561001057600080fd5b506040516102fc3803806102fc8339818101604052604081101561003357600080fd5b508051602090910151600182815560008054839260ff199091169083600581111561005a57fe5b0217905550505061028c806100706000396000f3fe608060405234801561001057600080fd5b506004361061004c5760003560e01c80630f23cb8c146100515780632cd54e2e146100825780633fa4f245146100ae578063fbbf93a0146100c8575b600080fd5b61006e6004803603602081101561006757600080fd5b50356100fb565b604080519115158252519081900360200190f35b61008a610213565b6040518082600581111561009a57fe5b60ff16815260200191505060405180910390f35b6100b661021c565b60408051918252519081900360200190f35b6100d0610222565b604051808381526020018260058111156100e657fe5b60ff1681526020019250505060405180910390f35b60008060005460ff16600581111561010f57fe5b14156101205750600154811461020e565b600160005460ff16600581111561013357fe5b1415610145575060015481141561020e565b600260005460ff16600581111561015857fe5b14156101695750600154811061020e565b600360005460ff16600581111561017c57fe5b141561018e575060015481111561020e565b600460005460ff1660058111156101a157fe5b14156101b25750600154811161020e565b600560005460ff1660058111156101c557fe5b14156101d7575060015481101561020e565b60405162461bcd60e51b81526004018080602001828103825260248152602001806102336024913960400191505060405180910390fd5b919050565b60005460ff1681565b60015481565b600154600054909160ff9091169056fe6973526573706563746564207761736e27742065786563757465642070726f7065726c79a2646970667358221220a14291aadbfb8c7f76f339c1eb49fc5b1d6e3700c89648d5d374b49b606f835764736f6c63430006060033a2646970667358221220f3670a87ab15152dc93eb60fb1b9dc1beaeb935ba48129df020330226f23e62d64736f6c63430006060033",
  "immutableReferences": {},
  "source": "// SPDX-License-Identifier: MIT\npragma solidity 0.6.6;\npragma experimental ABIEncoderV2;\n\nimport \"./SLO.sol\";\n\n/**\n * @title SLORegistry\n * @dev SLORegistry is a contract for handling creation of service level\n * objectives and querying those service level objectives\n */\ncontract SLORegistry {\n    /// @dev checking types to check if a SLA was honored or not\n    enum SLOType {\n        EqualTo,\n        NotEqualTo,\n        SmallerThan,\n        SmallerOrEqualTo,\n        GreaterThan,\n        GreaterOrEqualTo\n    }\n\n    /// @dev array of deployed SLOs\n    address[] public registeredSLOs;\n\n    /// @dev (sloValue=>SLOType=>SLOAddress)\n    mapping(uint256 => mapping(SLOType => address)) public sloAddresses;\n\n    /**\n     * @dev event for service level objective creation logging\n     * @param slo 1.  the address of the created service level objective contract\n     * @param value 2.  the value of the SLO\n     * @param sloType 3.  the type of the SLO\n     */\n    event SLOCreated(SLO indexed slo, uint256 value, SLOType sloType);\n\n    /**\n     * @dev public function for creating service level objectives\n     * @param _value 1. the value to check against\n     * @param _sloType 2. type of check\n     */\n    function createSLO(uint256 _value, SLOType _sloType) public {\n        require(\n            sloAddresses[_value][_sloType] == address(0),\n            \"SLO already deployed\"\n        );\n        SLO slo = new SLO(_value, _sloType);\n        registeredSLOs.push(address(slo));\n        sloAddresses[_value][_sloType] = address(slo);\n        emit SLOCreated(slo, _value, _sloType);\n    }\n\n    /**\n     * @dev checks is the _sloAddress is registered as deployed\n     * @param _sloAddress 1. the value to check against\n     */\n    function isRegisteredSLO(address _sloAddress) public view returns (bool) {\n        for (uint256 index = 0; index < registeredSLOs.length; index++) {\n            if (registeredSLOs[index] == _sloAddress) {\n                return true;\n            }\n        }\n        return false;\n    }\n\n    /**\n     * @dev function to get all the SLOs addresses\n     */\n    function getAllSLOs() public view returns (address[] memory) {\n        return registeredSLOs;\n    }\n}\n",
  "sourcePath": "/Users/matiasbn/Desktop/stacktical/stacktical-dsla-contracts/contracts/SLORegistry.sol",
  "compiler": {
    "name": "solc",
    "version": "0.6.6+commit.6c089d02.Emscripten.clang"
  },
  "schemaVersion": "3.3.3",
  "updatedAt": "2021-03-10T20:40:58.338Z",
  "devdoc": {
    "details": "SLORegistry is a contract for handling creation of service level objectives and querying those service level objectives",
    "methods": {
      "createSLO(uint256,uint8)": {
        "details": "public function for creating service level objectives",
        "params": {
          "_sloType": "2. type of check",
          "_value": "1. the value to check against"
        }
      },
      "getAllSLOs()": {
        "details": "function to get all the SLOs addresses"
      },
      "isRegisteredSLO(address)": {
        "details": "checks is the _sloAddress is registered as deployed",
        "params": {
          "_sloAddress": "1. the value to check against"
        }
      }
    },
    "title": "SLORegistry"
  },
  "userdoc": {
    "methods": {}
  }
}