{
  "contractName": "SLORegistry",
  "abi": [
    {
      "anonymous": false,
      "inputs": [
        {
          "indexed": true,
          "name": "slo",
          "type": "address"
        }
      ],
      "name": "SLOCreated",
      "type": "event"
    },
    {
      "constant": false,
      "inputs": [
        {
          "name": "_value",
          "type": "uint256"
        },
        {
          "name": "_SLOType",
          "type": "uint8"
        },
        {
          "name": "_name",
          "type": "bytes32"
        }
      ],
      "name": "createSLO",
      "outputs": [],
      "payable": false,
      "stateMutability": "nonpayable",
      "type": "function"
    },
    {
      "constant": true,
      "inputs": [
        {
          "name": "_user",
          "type": "address"
        }
      ],
      "name": "userSLOs",
      "outputs": [
        {
          "name": "",
          "type": "address[]"
        }
      ],
      "payable": false,
      "stateMutability": "view",
      "type": "function"
    }
  ],
  "bytecode": "0x608060405234801561001057600080fd5b506106f3806100206000396000f3fe608060405234801561001057600080fd5b50600436106100365760003560e01c8063376768401461003b578063b76e980f146100d4575b600080fd5b61007d6004803603602081101561005157600080fd5b81019080803573ffffffffffffffffffffffffffffffffffffffff169060200190929190505050610119565b6040518080602001828103825283818151815260200191508051906020019060200280838360005b838110156100c05780820151818401526020810190506100a5565b505050509050019250505060405180910390f35b610117600480360360608110156100ea57600080fd5b8101908080359060200190929190803560ff169060200190929190803590602001909291905050506101e5565b005b60606000808373ffffffffffffffffffffffffffffffffffffffff1673ffffffffffffffffffffffffffffffffffffffff1681526020019081526020016000208054806020026020016040519081016040528092919081815260200182805480156101d957602002820191906000526020600020905b8160009054906101000a900473ffffffffffffffffffffffffffffffffffffffff1673ffffffffffffffffffffffffffffffffffffffff168152602001906001019080831161018f575b50505050509050919050565b60008383836040516101f690610326565b8084815260200183600581111561020957fe5b60ff1681526020018281526020019350505050604051809103906000f080158015610238573d6000803e3d6000fd5b5090506000803373ffffffffffffffffffffffffffffffffffffffff1673ffffffffffffffffffffffffffffffffffffffff1681526020019081526020016000208190806001815401808255809150509060018203906000526020600020016000909192909190916101000a81548173ffffffffffffffffffffffffffffffffffffffff021916908373ffffffffffffffffffffffffffffffffffffffff160217905550508073ffffffffffffffffffffffffffffffffffffffff167fda7fecad5247e1329bde744d342240b695d643d7f4e54f8b0ec74962c525f97560405160405180910390a250505050565b610394806103348339019056fe608060405234801561001057600080fd5b506040516060806103948339810180604052606081101561003057600080fd5b8101908080519060200190929190805190602001909291908051906020019092919050505082600181905550816000806101000a81548160ff0219169083600581111561007957fe5b0217905550806002819055507fbc0575dbcc2a44104cea600e4aacedc0030c223951fc23106ec03e9c135b6bd2838383604051808481526020018360058111156100bf57fe5b60ff168152602001828152602001935050505060405180910390a15050506102a8806100ec6000396000f3fe608060405234801561001057600080fd5b506004361061004c5760003560e01c806306fdde03146100515780633fa4f2451461006f578063868d08f71461008d578063cf1ddcce146100d3575b600080fd5b6100596100ff565b6040518082815260200191505060405180910390f35b610077610105565b6040518082815260200191505060405180910390f35b6100b9600480360360208110156100a357600080fd5b810190808035906020019092919050505061010b565b604051808215151515815260200191505060405180910390f35b6100db61026a565b604051808260058111156100eb57fe5b60ff16815260200191505060405180910390f35b60025481565b60015481565b600080600581111561011957fe5b6000809054906101000a900460ff16600581111561013357fe5b14156101455760015482149050610265565b6001600581111561015257fe5b6000809054906101000a900460ff16600581111561016c57fe5b141561017f576001548214159050610265565b6002600581111561018c57fe5b6000809054906101000a900460ff1660058111156101a657fe5b14156101b85760015482109050610265565b600360058111156101c557fe5b6000809054906101000a900460ff1660058111156101df57fe5b14156101f2576001548211159050610265565b600460058111156101ff57fe5b6000809054906101000a900460ff16600581111561021957fe5b141561022b5760015482119050610265565b60058081111561023757fe5b6000809054906101000a900460ff16600581111561025157fe5b1415610264576001548210159050610265565b5b919050565b6000809054906101000a900460ff168156fea165627a7a7230582086265c1a803f2c71e1c46c24ec844fcf01a07e3dbbda39b9c88729d1b41a5d8b0029a165627a7a72305820e367aa9134383e360b1bbb3bb66e8a23fc7bf5f44b34377c95cb111b456f66120029",
  "source": "pragma solidity 0.5.7;\n\nimport \"./SLO/SLO.sol\";\n\n/**\n * @title SLORegistry\n * @dev SLORegistry is a contract for handling creation of service level\n * objectives and querying those service level objectives\n */\ncontract SLORegistry {\n\n    // Mapping that stores the service level objectives created by a user\n    mapping(address => SLO[]) private userToSLOs;\n\n    /**\n     * @dev event for service level objective creation logging\n     * @param slo The address of the created service level objective contract\n     */\n    event SLOCreated(SLO indexed slo);\n\n    /**\n     * @dev public function for creating service level objectives\n     * @param _value the value to check against\n     * @param _SLOType type of check\n     * @param _name name of the service level objective in bytes32\n     */\n    function createSLO(uint _value, SLO.SLOTypes _SLOType, bytes32 _name) public {\n        SLO slo = new SLO(_value, _SLOType, _name);\n        userToSLOs[msg.sender].push(slo);\n\n        emit SLOCreated(slo);\n    }\n\n    /**\n     * @dev public view function that returns the service level objectives that\n     * the given user has created\n     * @param _user Address of the user for which to return the service level\n     * objectives\n     */\n    function userSLOs(address _user) public view returns(SLO[] memory) {\n        return(userToSLOs[_user]);\n    }\n}\n",
  "sourcePath": "/Users/wilhempujar/Development/stacktical/stacktical-dsla-contracts/contracts/SLORegistry.sol",
  "compiler": {
    "name": "solc",
    "version": "0.5.7+commit.6da8b019.Emscripten.clang"
  },
  "schemaVersion": "3.0.19",
  "updatedAt": "2020-02-17T11:28:23.222Z",
  "networkType": "ethereum",
  "devdoc": {
    "details": "SLORegistry is a contract for handling creation of service level objectives and querying those service level objectives",
    "methods": {
      "createSLO(uint256,uint8,bytes32)": {
        "details": "public function for creating service level objectives",
        "params": {
          "_SLOType": "type of check",
          "_name": "name of the service level objective in bytes32",
          "_value": "the value to check against"
        }
      },
      "userSLOs(address)": {
        "details": "public view function that returns the service level objectives that the given user has created",
        "params": {
          "_user": "Address of the user for which to return the service level objectives"
        }
      }
    },
    "title": "SLORegistry"
  },
  "userdoc": {
    "methods": {}
  }
}