{
  "contractName": "SLORegistry",
  "abi": [
    {
      "anonymous": false,
      "inputs": [
        {
          "indexed": true,
          "name": "slo",
          "type": "address"
        }
      ],
      "name": "SLOCreated",
      "type": "event"
    },
    {
      "constant": false,
      "inputs": [
        {
          "name": "_value",
          "type": "uint256"
        },
        {
          "name": "_SLOType",
          "type": "uint8"
        },
        {
          "name": "_name",
          "type": "bytes32"
        }
      ],
      "name": "createSLO",
      "outputs": [],
      "payable": false,
      "stateMutability": "nonpayable",
      "type": "function"
    },
    {
      "constant": true,
      "inputs": [
        {
          "name": "_user",
          "type": "address"
        }
      ],
      "name": "userSLOs",
      "outputs": [
        {
          "name": "",
          "type": "address[]"
        }
      ],
      "payable": false,
      "stateMutability": "view",
      "type": "function"
    }
  ],
  "bytecode": "0x608060405234801561001057600080fd5b5061076c806100206000396000f3fe60806040526004361061004c576000357c0100000000000000000000000000000000000000000000000000000000900463ffffffff1680633767684014610051578063b76e980f146100f7575b600080fd5b34801561005d57600080fd5b506100a06004803603602081101561007457600080fd5b81019080803573ffffffffffffffffffffffffffffffffffffffff169060200190929190505050610149565b6040518080602001828103825283818151815260200191508051906020019060200280838360005b838110156100e35780820151818401526020810190506100c8565b505050509050019250505060405180910390f35b34801561010357600080fd5b506101476004803603606081101561011a57600080fd5b8101908080359060200190929190803560ff16906020019092919080359060200190929190505050610215565b005b60606000808373ffffffffffffffffffffffffffffffffffffffff1673ffffffffffffffffffffffffffffffffffffffff16815260200190815260200160002080548060200260200160405190810160405280929190818152602001828054801561020957602002820191906000526020600020905b8160009054906101000a900473ffffffffffffffffffffffffffffffffffffffff1673ffffffffffffffffffffffffffffffffffffffff16815260200190600101908083116101bf575b50505050509050919050565b6000838383610222610352565b8084815260200183600581111561023557fe5b60ff1681526020018281526020019350505050604051809103906000f080158015610264573d6000803e3d6000fd5b5090506000803373ffffffffffffffffffffffffffffffffffffffff1673ffffffffffffffffffffffffffffffffffffffff1681526020019081526020016000208190806001815401808255809150509060018203906000526020600020016000909192909190916101000a81548173ffffffffffffffffffffffffffffffffffffffff021916908373ffffffffffffffffffffffffffffffffffffffff160217905550508073ffffffffffffffffffffffffffffffffffffffff167fda7fecad5247e1329bde744d342240b695d643d7f4e54f8b0ec74962c525f97560405160405180910390a250505050565b6040516103de806103638339019056fe608060405234801561001057600080fd5b506040516060806103de8339810180604052606081101561003057600080fd5b8101908080519060200190929190805190602001909291908051906020019092919050505082600181905550816000806101000a81548160ff0219169083600581111561007957fe5b0217905550806002819055507fbc0575dbcc2a44104cea600e4aacedc0030c223951fc23106ec03e9c135b6bd2838383604051808481526020018360058111156100bf57fe5b60ff168152602001828152602001935050505060405180910390a15050506102f2806100ec6000396000f3fe608060405260043610610062576000357c0100000000000000000000000000000000000000000000000000000000900463ffffffff16806306fdde03146100675780633fa4f24514610092578063868d08f7146100bd578063cf1ddcce14610110575b600080fd5b34801561007357600080fd5b5061007c610149565b6040518082815260200191505060405180910390f35b34801561009e57600080fd5b506100a761014f565b6040518082815260200191505060405180910390f35b3480156100c957600080fd5b506100f6600480360360208110156100e057600080fd5b8101908080359060200190929190505050610155565b604051808215151515815260200191505060405180910390f35b34801561011c57600080fd5b506101256102b4565b6040518082600581111561013557fe5b60ff16815260200191505060405180910390f35b60025481565b60015481565b600080600581111561016357fe5b6000809054906101000a900460ff16600581111561017d57fe5b141561018f57600154821490506102af565b6001600581111561019c57fe5b6000809054906101000a900460ff1660058111156101b657fe5b14156101c95760015482141590506102af565b600260058111156101d657fe5b6000809054906101000a900460ff1660058111156101f057fe5b141561020257600154821090506102af565b6003600581111561020f57fe5b6000809054906101000a900460ff16600581111561022957fe5b141561023c5760015482111590506102af565b6004600581111561024957fe5b6000809054906101000a900460ff16600581111561026357fe5b141561027557600154821190506102af565b60058081111561028157fe5b6000809054906101000a900460ff16600581111561029b57fe5b14156102ae5760015482101590506102af565b5b919050565b6000809054906101000a900460ff168156fea165627a7a72305820dc46ddd897a2d676f78a32ed6a212bf19c1fb20d1aaaccb445c32bfb504359fa0029a165627a7a72305820be05a0852ca6827e4bf8d3d468d2f28b4c8aadad380cd736e387bf379a9f2c780029",
  "source": "pragma solidity ^0.5.0;\n\nimport \"./SLO/SLO.sol\";\n\ncontract SLORegistry {\n\n    mapping(address => SLO[]) private userToSLOs;\n\n    event SLOCreated(SLO indexed slo);\n\n    function createSLO(uint _value, SLO.SLOTypes _SLOType, bytes32 _name) public {\n        SLO slo = new SLO(_value, _SLOType, _name);\n        userToSLOs[msg.sender].push(slo);\n\n        emit SLOCreated(slo);\n    }\n\n    function userSLOs(address _user) public view returns(SLO[] memory) {\n        return(userToSLOs[_user]);\n    }\n}\n",
  "sourcePath": "/Users/Martin_Balk/projects/stacktical/stacktical-mvp-contracts/contracts/SLORegistry.sol",
  "compiler": {
    "name": "solc",
    "version": "0.5.0+commit.1d4f565a.Emscripten.clang"
  },
  "schemaVersion": "3.0.2",
  "updatedAt": "2019-04-04T09:48:10.176Z",
  "devdoc": {
    "methods": {}
  },
  "userdoc": {
    "methods": {}
  }
}