{
  "contractName": "SLORegistry",
  "abi": [
    {
      "anonymous": false,
      "inputs": [
        {
          "indexed": true,
          "internalType": "contract SLO",
          "name": "slo",
          "type": "address"
        },
        {
          "indexed": false,
          "internalType": "uint256",
          "name": "value",
          "type": "uint256"
        },
        {
          "indexed": false,
          "internalType": "enum SLORegistry.SLOType",
          "name": "sloType",
          "type": "uint8"
        }
      ],
      "name": "SLOCreated",
      "type": "event"
    },
    {
      "inputs": [
        {
          "internalType": "uint256",
          "name": "",
          "type": "uint256"
        }
      ],
      "name": "SLOs",
      "outputs": [
        {
          "internalType": "address",
          "name": "",
          "type": "address"
        }
      ],
      "stateMutability": "view",
      "type": "function"
    },
    {
      "inputs": [
        {
          "internalType": "address",
          "name": "",
          "type": "address"
        }
      ],
      "name": "registeredSLOs",
      "outputs": [
        {
          "internalType": "bool",
          "name": "",
          "type": "bool"
        }
      ],
      "stateMutability": "view",
      "type": "function"
    },
    {
      "inputs": [
        {
          "internalType": "uint256",
          "name": "",
          "type": "uint256"
        },
        {
          "internalType": "enum SLORegistry.SLOType",
          "name": "",
          "type": "uint8"
        }
      ],
      "name": "sloAddresses",
      "outputs": [
        {
          "internalType": "address",
          "name": "",
          "type": "address"
        }
      ],
      "stateMutability": "view",
      "type": "function"
    },
    {
      "inputs": [
        {
          "internalType": "uint256",
          "name": "_value",
          "type": "uint256"
        },
        {
          "internalType": "enum SLORegistry.SLOType",
          "name": "_sloType",
          "type": "uint8"
        }
      ],
      "name": "createSLO",
      "outputs": [],
      "stateMutability": "nonpayable",
      "type": "function"
    },
    {
      "inputs": [],
      "name": "getAllSLOs",
      "outputs": [
        {
          "internalType": "address[]",
          "name": "",
          "type": "address[]"
        }
      ],
      "stateMutability": "view",
      "type": "function"
    }
  ],
  "bytecode": "0x608060405234801561001057600080fd5b506107a9806100206000396000f3fe608060405234801561001057600080fd5b50600436106100575760003560e01c80632af1c01d1461005c57806330cb273914610085578063749b422c1461009a57806378488ba3146100ba578063b443a89f146100cf575b600080fd5b61006f61006a366004610347565b6100e2565b60405161007c9190610420565b60405180910390f35b61008d6100f7565b60405161007c91906103d3565b6100ad6100a836600461038d565b610159565b60405161007c91906103bf565b6100cd6100c836600461038d565b61017f565b005b6100ad6100dd366004610375565b610313565b60026020526000908152604090205460ff1681565b6060600080548060200260200160405190810160405280929190818152602001828054801561014f57602002820191906000526020600020905b81546001600160a01b03168152600190910190602001808311610131575b5050505050905090565b60016020908152600092835260408084209091529082529020546001600160a01b031681565b60008281526001602052604081208183600581111561019a57fe5b60058111156101a557fe5b81526020810191909152604001600020546001600160a01b0316146101e55760405162461bcd60e51b81526004016101dc9061042b565b60405180910390fd5b600082826040516101f59061033a565b610200929190610459565b604051809103906000f08015801561021c573d6000803e3d6000fd5b5060008054600180820183557f290decd9548b62a8d60345a988386fc84ba6bc95484008f6362f93160ef3e56390910180546001600160a01b0319166001600160a01b0385161790558582526020526040812091925082919084600581111561028157fe5b600581111561028c57fe5b81526020808201929092526040908101600090812080546001600160a01b0319166001600160a01b03958616179055928416808452600290925291829020805460ff1916600117905590517fb3ffce2cb6f1173cb955e4fd03b9965a5fa1eea29d0343ee46c3b4b907c77d29906103069086908690610459565b60405180910390a2505050565b6000818154811061032057fe5b6000918252602090912001546001600160a01b0316905081565b6102fc8061047883390190565b600060208284031215610358578081fd5b81356001600160a01b038116811461036e578182fd5b9392505050565b600060208284031215610386578081fd5b5035919050565b6000806040838503121561039f578081fd5b823591506020830135600681106103b4578182fd5b809150509250929050565b6001600160a01b0391909116815260200190565b6020808252825182820181905260009190848201906040850190845b818110156104145783516001600160a01b0316835292840192918401916001016103ef565b50909695505050505050565b901515815260200190565b60208082526014908201527314d313c8185b1c9958591e4819195c1b1bde595960621b604082015260600190565b828152604081016006831061046a57fe5b826020830152939250505056fe608060405234801561001057600080fd5b506040516102fc3803806102fc8339818101604052604081101561003357600080fd5b508051602090910151600182815560008054839260ff199091169083600581111561005a57fe5b0217905550505061028c806100706000396000f3fe608060405234801561001057600080fd5b506004361061004c5760003560e01c80630f23cb8c146100515780632cd54e2e146100825780633fa4f245146100ae578063fbbf93a0146100c8575b600080fd5b61006e6004803603602081101561006757600080fd5b50356100fb565b604080519115158252519081900360200190f35b61008a610213565b6040518082600581111561009a57fe5b60ff16815260200191505060405180910390f35b6100b661021c565b60408051918252519081900360200190f35b6100d0610222565b604051808381526020018260058111156100e657fe5b60ff1681526020019250505060405180910390f35b60008060005460ff16600581111561010f57fe5b14156101205750600154811461020e565b600160005460ff16600581111561013357fe5b1415610145575060015481141561020e565b600260005460ff16600581111561015857fe5b14156101695750600154811061020e565b600360005460ff16600581111561017c57fe5b141561018e575060015481111561020e565b600460005460ff1660058111156101a157fe5b14156101b25750600154811161020e565b600560005460ff1660058111156101c557fe5b14156101d7575060015481101561020e565b60405162461bcd60e51b81526004018080602001828103825260248152602001806102336024913960400191505060405180910390fd5b919050565b60005460ff1681565b60015481565b600154600054909160ff9091169056fe6973526573706563746564207761736e27742065786563757465642070726f7065726c79a26469706673582212206b20650c60f346dbd84825f90393046fe8cf67787dbef4d5014b6fc61fc6b71164736f6c63430006060033a26469706673582212204d94709e1d6e0e4051702853668f0b618104200595cf62ece50fcd8bc6e5d1c564736f6c63430006060033",
  "immutableReferences": {},
  "source": "// SPDX-License-Identifier: MIT\npragma solidity 0.6.6;\npragma experimental ABIEncoderV2;\n\nimport \"./SLO.sol\";\n\n/**\n * @title SLORegistry\n * @dev SLORegistry is a contract for handling creation of service level\n * objectives and querying those service level objectives\n */\ncontract SLORegistry {\n    /// @dev checking types to check if a SLA was honored or not\n    enum SLOType {\n        EqualTo,\n        NotEqualTo,\n        SmallerThan,\n        SmallerOrEqualTo,\n        GreaterThan,\n        GreaterOrEqualTo\n    }\n\n    /// @dev array of deployed SLOs\n    address[] public SLOs;\n\n    /// @dev (sloValue=>SLOType=>SLOAddress)\n    mapping(uint256 => mapping(SLOType => address)) public sloAddresses;\n\n    /// @dev (sloAddress=>bool)\n    mapping(address => bool) public registeredSLOs;\n\n    /**\n     * @dev event for service level objective creation logging\n     * @param slo 1.  the address of the created service level objective contract\n     * @param value 2.  the value of the SLO\n     * @param sloType 3.  the type of the SLO\n     */\n    event SLOCreated(SLO indexed slo, uint256 value, SLOType sloType);\n\n    /**\n     * @dev public function for creating service level objectives\n     * @param _value 1. the value to check against\n     * @param _sloType 2. type of check\n     */\n    function createSLO(uint256 _value, SLOType _sloType) public {\n        require(\n            sloAddresses[_value][_sloType] == address(0),\n            \"SLO already deployed\"\n        );\n        SLO slo = new SLO(_value, _sloType);\n        SLOs.push(address(slo));\n        sloAddresses[_value][_sloType] = address(slo);\n        registeredSLOs[address(slo)] = true;\n        emit SLOCreated(slo, _value, _sloType);\n    }\n\n    /**\n     * @dev function to get all the SLOs addresses\n     */\n    function getAllSLOs() public view returns (address[] memory) {\n        return SLOs;\n    }\n}\n",
  "sourcePath": "/Users/matiasbn/Desktop/stacktical/stacktical-dsla-contracts/contracts/SLORegistry.sol",
  "compiler": {
    "name": "solc",
    "version": "0.6.6+commit.6c089d02.Emscripten.clang"
  },
  "schemaVersion": "3.3.3",
  "updatedAt": "2021-03-16T16:03:02.312Z",
  "devdoc": {
    "details": "SLORegistry is a contract for handling creation of service level objectives and querying those service level objectives",
    "methods": {
      "createSLO(uint256,uint8)": {
        "details": "public function for creating service level objectives",
        "params": {
          "_sloType": "2. type of check",
          "_value": "1. the value to check against"
        }
      },
      "getAllSLOs()": {
        "details": "function to get all the SLOs addresses"
      }
    },
    "title": "SLORegistry"
  },
  "userdoc": {
    "methods": {}
  }
}