{
  "contractName": "SLORegistry",
  "abi": [
    {
      "anonymous": false,
      "inputs": [
        {
          "indexed": true,
          "internalType": "contract SLO",
          "name": "slo",
          "type": "address"
        },
        {
          "indexed": true,
          "internalType": "address",
          "name": "owner",
          "type": "address"
        }
      ],
      "name": "SLOCreated",
      "type": "event"
    },
    {
      "inputs": [
        {
          "internalType": "address",
          "name": "",
          "type": "address"
        }
      ],
      "name": "registeredSLOs",
      "outputs": [
        {
          "internalType": "bool",
          "name": "",
          "type": "bool"
        }
      ],
      "stateMutability": "view",
      "type": "function"
    },
    {
      "inputs": [
        {
          "internalType": "uint256",
          "name": "_value",
          "type": "uint256"
        },
        {
          "internalType": "enum SLO.SLOTypes",
          "name": "_SLOType",
          "type": "uint8"
        },
        {
          "internalType": "bytes32",
          "name": "_name",
          "type": "bytes32"
        }
      ],
      "name": "createSLO",
      "outputs": [],
      "stateMutability": "nonpayable",
      "type": "function"
    },
    {
      "inputs": [
        {
          "internalType": "address",
          "name": "_user",
          "type": "address"
        }
      ],
      "name": "userSLOs",
      "outputs": [
        {
          "internalType": "contract SLO[]",
          "name": "",
          "type": "address[]"
        }
      ],
      "stateMutability": "view",
      "type": "function"
    }
  ],
  "bytecode": "0x608060405234801561001057600080fd5b5061063f806100206000396000f3fe608060405234801561001057600080fd5b50600436106100415760003560e01c80632af1c01d146100465780633767684014610080578063b76e980f146100f6575b600080fd5b61006c6004803603602081101561005c57600080fd5b50356001600160a01b0316610124565b604080519115158252519081900360200190f35b6100a66004803603602081101561009657600080fd5b50356001600160a01b0316610139565b60408051602080825283518183015283519192839290830191858101910280838360005b838110156100e25781810151838201526020016100ca565b505050509050019250505060405180910390f35b6101226004803603606081101561010c57600080fd5b5080359060ff60208201351690604001356101ad565b005b60016020526000908152604090205460ff1681565b6001600160a01b038116600090815260208181526040918290208054835181840281018401909452808452606093928301828280156101a157602002820191906000526020600020905b81546001600160a01b03168152600190910190602001808311610183575b50505050509050919050565b60008383836040516101be9061027f565b808481526020018360058111156101d157fe5b81526020018281526020019350505050604051809103906000f0801580156101fd573d6000803e3d6000fd5b50336000818152602081815260408083208054600180820183559185528385200180546001600160a01b0319166001600160a01b03881690811790915580855292819052818420805460ff191690911790555193945091927ff4a0b34bb4b018d92af2c2779caeef2632c12aa19e9ee465b0eee63376e0afa19190a350505050565b61037d8061028d8339019056fe608060405234801561001057600080fd5b5060405161037d38038061037d8339818101604052606081101561003357600080fd5b5080516020820151604090920151600182815560008054939493849260ff199091169083600581111561006257fe5b0217905550806002819055507fbc0575dbcc2a44104cea600e4aacedc0030c223951fc23106ec03e9c135b6bd2838383604051808481526020018360058111156100a857fe5b8152602001828152602001935050505060405180910390a15050506102ab806100d26000396000f3fe608060405234801561001057600080fd5b50600436106100575760003560e01c806306fdde031461005c5780633fa4f24514610076578063868d08f71461007e578063cf1ddcce146100af578063fbbf93a0146100d8575b600080fd5b61006461010f565b60408051918252519081900360200190f35b610064610115565b61009b6004803603602081101561009457600080fd5b503561011b565b604080519115158252519081900360200190f35b6100b7610233565b604051808260058111156100c757fe5b815260200191505060405180910390f35b6100e061023c565b604051808481526020018381526020018260058111156100fc57fe5b8152602001935050505060405180910390f35b60025481565b60015481565b60008060005460ff16600581111561012f57fe5b14156101405750600154811461022e565b600160005460ff16600581111561015357fe5b1415610165575060015481141561022e565b600260005460ff16600581111561017857fe5b14156101895750600154811061022e565b600360005460ff16600581111561019c57fe5b14156101ae575060015481111561022e565b600460005460ff1660058111156101c157fe5b14156101d25750600154811161022e565b600560005460ff1660058111156101e557fe5b14156101f7575060015481101561022e565b60405162461bcd60e51b81526004018080602001828103825260268152602001806102506026913960400191505060405180910390fd5b919050565b60005460ff1681565b6002546001546000549192909160ff169056fe6973534c4f486f6e6f75726564207761736e27742065786563757465642070726f7065726c79a264697066735822122081a637163ae9dfb66fe1d55ec4b978d325c8ecfc8ce68fd4afd47351ce74fe3264736f6c634300060c0033a26469706673582212206e01984bbeae988fa722aee9426acdeb314c83f7f34530345005a7da528aa2c964736f6c634300060c0033",
  "immutableReferences": {},
  "source": "// SPDX-License-Identifier: MIT\npragma solidity ^0.6.0;\n\nimport \"./SLO.sol\";\n\n/**\n * @title SLORegistry\n * @dev SLORegistry is a contract for handling creation of service level\n * objectives and querying those service level objectives\n */\ncontract SLORegistry {\n    /// @dev mapping that stores the service level objectives created by a user\n    mapping(address => SLO[]) private userToSLOs;\n\n    /// @dev mapping to check the registered SLOs\n    mapping(address => bool) public registeredSLOs;\n\n    /**\n     * @dev event for service level objective creation logging\n     * @param slo 1.  the address of the created service level objective contract\n     * @param owner 2.  the creator of the SLO\n     */\n    event SLOCreated(SLO indexed slo, address indexed owner);\n\n    /**\n     * @dev public function for creating service level objectives\n     * @param _value 1. the value to check against\n     * @param _SLOType 2. type of check\n     * @param _name 3. name of the service level objective in bytes32\n     */\n    function createSLO(\n        uint256 _value,\n        SLO.SLOTypes _SLOType,\n        bytes32 _name\n    ) public {\n        SLO slo = new SLO(_value, _SLOType, _name);\n        userToSLOs[msg.sender].push(slo);\n        registeredSLOs[address(slo)] = true;\n        emit SLOCreated(slo, msg.sender);\n    }\n\n    /**\n     * @dev public view function that returns the service level objectives that\n     * the given user has created\n     * @param _user Address of the user for which to return the service level\n     * objectives\n     * @return SLO an array of service level objectives that corresponds to the _user params\n     */\n    function userSLOs(address _user) public view returns (SLO[] memory) {\n        return (userToSLOs[_user]);\n    }\n}\n",
  "sourcePath": "/Users/matiasbn/Desktop/stacktical/stacktical-dsla-contracts/contracts/SLORegistry.sol",
  "compiler": {
    "name": "solc",
    "version": "0.6.12+commit.27d51765.Emscripten.clang"
  },
  "schemaVersion": "3.3.3",
  "updatedAt": "2021-02-14T09:57:15.500Z",
  "devdoc": {
    "details": "SLORegistry is a contract for handling creation of service level objectives and querying those service level objectives",
    "events": {
      "SLOCreated(address,address)": {
        "details": "event for service level objective creation logging",
        "params": {
          "owner": "2.  the creator of the SLO",
          "slo": "1.  the address of the created service level objective contract"
        }
      }
    },
    "kind": "dev",
    "methods": {
      "createSLO(uint256,uint8,bytes32)": {
        "details": "public function for creating service level objectives",
        "params": {
          "_SLOType": "2. type of check",
          "_name": "3. name of the service level objective in bytes32",
          "_value": "1. the value to check against"
        }
      },
      "userSLOs(address)": {
        "details": "public view function that returns the service level objectives that the given user has created",
        "params": {
          "_user": "Address of the user for which to return the service level objectives"
        },
        "returns": {
          "_0": "SLO an array of service level objectives that corresponds to the _user params"
        }
      }
    },
    "stateVariables": {
      "registeredSLOs": {
        "details": "mapping to check the registered SLOs"
      },
      "userToSLOs": {
        "details": "mapping that stores the service level objectives created by a user"
      }
    },
    "title": "SLORegistry",
    "version": 1
  },
  "userdoc": {
    "kind": "user",
    "methods": {},
    "version": 1
  }
}