{
  "contractName": "SLORegistry",
  "abi": [
    {
      "anonymous": false,
      "inputs": [
        {
          "indexed": true,
          "internalType": "contract SLO",
          "name": "slo",
          "type": "address"
        },
        {
          "indexed": false,
          "internalType": "uint256",
          "name": "value",
          "type": "uint256"
        },
        {
          "indexed": false,
          "internalType": "enum SLORegistry.SLOType",
          "name": "sloType",
          "type": "uint8"
        }
      ],
      "name": "SLOCreated",
      "type": "event"
    },
    {
      "inputs": [
        {
          "internalType": "uint256",
          "name": "",
          "type": "uint256"
        }
      ],
      "name": "registeredSLOs",
      "outputs": [
        {
          "internalType": "address",
          "name": "",
          "type": "address"
        }
      ],
      "stateMutability": "view",
      "type": "function",
      "constant": true
    },
    {
      "inputs": [
        {
          "internalType": "uint256",
          "name": "",
          "type": "uint256"
        },
        {
          "internalType": "enum SLORegistry.SLOType",
          "name": "",
          "type": "uint8"
        }
      ],
      "name": "sloAddresses",
      "outputs": [
        {
          "internalType": "address",
          "name": "",
          "type": "address"
        }
      ],
      "stateMutability": "view",
      "type": "function",
      "constant": true
    },
    {
      "inputs": [
        {
          "internalType": "uint256",
          "name": "_value",
          "type": "uint256"
        },
        {
          "internalType": "enum SLORegistry.SLOType",
          "name": "_sloType",
          "type": "uint8"
        }
      ],
      "name": "createSLO",
      "outputs": [],
      "stateMutability": "nonpayable",
      "type": "function"
    },
    {
      "inputs": [
        {
          "internalType": "address",
          "name": "_sloAddress",
          "type": "address"
        }
      ],
      "name": "isRegisteredSLO",
      "outputs": [
        {
          "internalType": "bool",
          "name": "",
          "type": "bool"
        }
      ],
      "stateMutability": "view",
      "type": "function",
      "constant": true
    }
  ],
  "bytecode": "0x608060405234801561001057600080fd5b506106c1806100206000396000f3fe608060405234801561001057600080fd5b506004361061004c5760003560e01c806364ad69d914610051578063749b422c1461008a57806378488ba3146100b0578063d12250da146100d8575b600080fd5b61006e6004803603602081101561006757600080fd5b5035610112565b604080516001600160a01b039092168252519081900360200190f35b61006e600480360360408110156100a057600080fd5b508035906020013560ff16610139565b6100d6600480360360408110156100c657600080fd5b508035906020013560ff1661015f565b005b6100fe600480360360208110156100ee57600080fd5b50356001600160a01b031661032b565b604080519115158252519081900360200190f35b6000818154811061011f57fe5b6000918252602090912001546001600160a01b0316905081565b60016020908152600092835260408084209091529082529020546001600160a01b031681565b60008281526001602052604081208183600581111561017a57fe5b600581111561018557fe5b81526020810191909152604001600020546001600160a01b0316146101e8576040805162461bcd60e51b815260206004820152601460248201527314d313c8185b1c9958591e4819195c1b1bde595960621b604482015290519081900360640190fd5b600082826040516101f890610388565b8083815260200182600581111561020b57fe5b815260200192505050604051809103906000f080158015610230573d6000803e3d6000fd5b5060008054600180820183557f290decd9548b62a8d60345a988386fc84ba6bc95484008f6362f93160ef3e56390910180546001600160a01b0319166001600160a01b0385161790558582526020526040812091925082919084600581111561029557fe5b60058111156102a057fe5b815260200190815260200160002060006101000a8154816001600160a01b0302191690836001600160a01b03160217905550806001600160a01b03167fb3ffce2cb6f1173cb955e4fd03b9965a5fa1eea29d0343ee46c3b4b907c77d2984846040518083815260200182600581111561031557fe5b81526020019250505060405180910390a2505050565b6000805b60005481101561037d57826001600160a01b03166000828154811061035057fe5b6000918252602090912001546001600160a01b03161415610375576001915050610383565b60010161032f565b50600090505b919050565b6102f6806103968339019056fe608060405234801561001057600080fd5b506040516102f63803806102f68339818101604052604081101561003357600080fd5b508051602090910151600182815560008054839260ff199091169083600581111561005a57fe5b02179055505050610286806100706000396000f3fe608060405234801561001057600080fd5b506004361061004c5760003560e01c80630f23cb8c146100515780632cd54e2e146100825780633fa4f245146100ab578063fbbf93a0146100c5575b600080fd5b61006e6004803603602081101561006757600080fd5b50356100f5565b604080519115158252519081900360200190f35b61008a61020d565b6040518082600581111561009a57fe5b815260200191505060405180910390f35b6100b3610216565b60408051918252519081900360200190f35b6100cd61021c565b604051808381526020018260058111156100e357fe5b81526020019250505060405180910390f35b60008060005460ff16600581111561010957fe5b141561011a57506001548114610208565b600160005460ff16600581111561012d57fe5b141561013f5750600154811415610208565b600260005460ff16600581111561015257fe5b141561016357506001548110610208565b600360005460ff16600581111561017657fe5b14156101885750600154811115610208565b600460005460ff16600581111561019b57fe5b14156101ac57506001548111610208565b600560005460ff1660058111156101bf57fe5b14156101d15750600154811015610208565b60405162461bcd60e51b815260040180806020018281038252602481526020018061022d6024913960400191505060405180910390fd5b919050565b60005460ff1681565b60015481565b600154600054909160ff9091169056fe6973526573706563746564207761736e27742065786563757465642070726f7065726c79a2646970667358221220b0eacb7033c4a62965385b68bbc8772e494769ae433622dd40f8aff4a55996b364736f6c634300060c0033a264697066735822122080fad5477e5640b3d882b2998247200b5218c29bb4eda349a3b52b436d446c7864736f6c634300060c0033",
  "immutableReferences": {},
  "source": "// SPDX-License-Identifier: MIT\npragma solidity ^0.6.0;\n\nimport \"./SLO.sol\";\n\n/**\n * @title SLORegistry\n * @dev SLORegistry is a contract for handling creation of service level\n * objectives and querying those service level objectives\n */\ncontract SLORegistry {\n    /// @dev checking types to check if a SLA was honored or not\n    enum SLOType {\n        EqualTo,\n        NotEqualTo,\n        SmallerThan,\n        SmallerOrEqualTo,\n        GreaterThan,\n        GreaterOrEqualTo\n    }\n\n    /// @dev array of deployed SLOs\n    address[] public registeredSLOs;\n\n    /// @dev (sloValue=>SLOType=>SLOAddress)\n    mapping(uint256 => mapping(SLOType => address)) public sloAddresses;\n\n    /**\n     * @dev event for service level objective creation logging\n     * @param slo 1.  the address of the created service level objective contract\n     * @param value 2.  the value of the SLO\n     * @param sloType 3.  the type of the SLO\n     */\n    event SLOCreated(SLO indexed slo, uint256 value, SLOType sloType);\n\n    /**\n     * @dev public function for creating service level objectives\n     * @param _value 1. the value to check against\n     * @param _sloType 2. type of check\n     */\n    function createSLO(uint256 _value, SLOType _sloType) public {\n        require(\n            sloAddresses[_value][_sloType] == address(0),\n            \"SLO already deployed\"\n        );\n        SLO slo = new SLO(_value, _sloType);\n        registeredSLOs.push(address(slo));\n        sloAddresses[_value][_sloType] = address(slo);\n        emit SLOCreated(slo, _value, _sloType);\n    }\n\n    /**\n     * @dev checks is the _sloAddress is registered as deployed\n     * @param _sloAddress 1. the value to check against\n     */\n    function isRegisteredSLO(address _sloAddress) public view returns (bool) {\n        for (uint256 index = 0; index < registeredSLOs.length; index++) {\n            if (registeredSLOs[index] == _sloAddress) {\n                return true;\n            }\n        }\n        return false;\n    }\n}\n",
  "sourcePath": "/Users/matiasbn/Desktop/stacktical/stacktical-dsla-contracts/contracts/SLORegistry.sol",
  "compiler": {
    "name": "solc",
    "version": "0.6.12+commit.27d51765.Emscripten.clang"
  },
  "schemaVersion": "3.3.3",
  "updatedAt": "2021-02-19T15:28:04.735Z",
  "networkType": "ethereum",
  "devdoc": {
    "details": "SLORegistry is a contract for handling creation of service level objectives and querying those service level objectives",
    "events": {
      "SLOCreated(address,uint256,uint8)": {
        "details": "event for service level objective creation logging",
        "params": {
          "slo": "1.  the address of the created service level objective contract",
          "sloType": "3.  the type of the SLO",
          "value": "2.  the value of the SLO"
        }
      }
    },
    "kind": "dev",
    "methods": {
      "createSLO(uint256,uint8)": {
        "details": "public function for creating service level objectives",
        "params": {
          "_sloType": "2. type of check",
          "_value": "1. the value to check against"
        }
      },
      "isRegisteredSLO(address)": {
        "details": "checks is the _sloAddress is registered as deployed",
        "params": {
          "_sloAddress": "1. the value to check against"
        }
      }
    },
    "stateVariables": {
      "registeredSLOs": {
        "details": "array of deployed SLOs"
      },
      "sloAddresses": {
        "details": "(sloValue=>SLOType=>SLOAddress)"
      }
    },
    "title": "SLORegistry",
    "version": 1
  },
  "userdoc": {
    "kind": "user",
    "methods": {},
    "version": 1
  }
}