{
  "contractName": "Staking",
  "abi": [
    {
      "inputs": [
        {
          "internalType": "address",
          "name": "_stakeRegistry",
          "type": "address"
        },
        {
          "internalType": "address",
          "name": "_periodRegistry",
          "type": "address"
        },
        {
          "internalType": "enum PeriodRegistry.PeriodType",
          "name": "_periodType",
          "type": "uint8"
        },
        {
          "internalType": "uint256",
          "name": "_slaPeriodsLength",
          "type": "uint256"
        },
        {
          "internalType": "bool",
          "name": "_whitelisted",
          "type": "bool"
        }
      ],
      "stateMutability": "nonpayable",
      "type": "constructor"
    },
    {
      "anonymous": false,
      "inputs": [
        {
          "indexed": true,
          "internalType": "address",
          "name": "previousOwner",
          "type": "address"
        },
        {
          "indexed": true,
          "internalType": "address",
          "name": "newOwner",
          "type": "address"
        }
      ],
      "name": "OwnershipTransferred",
      "type": "event"
    },
    {
      "anonymous": false,
      "inputs": [
        {
          "indexed": true,
          "internalType": "uint256",
          "name": "periodId",
          "type": "uint256"
        },
        {
          "indexed": true,
          "internalType": "address",
          "name": "tokenAddress",
          "type": "address"
        },
        {
          "indexed": false,
          "internalType": "uint256",
          "name": "rewardPercentage",
          "type": "uint256"
        },
        {
          "indexed": false,
          "internalType": "uint256",
          "name": "amount",
          "type": "uint256"
        }
      ],
      "name": "ProviderRewardGenerated",
      "type": "event"
    },
    {
      "inputs": [],
      "name": "DSLAburnRate",
      "outputs": [
        {
          "internalType": "uint256",
          "name": "",
          "type": "uint256"
        }
      ],
      "stateMutability": "view",
      "type": "function"
    },
    {
      "inputs": [
        {
          "internalType": "uint256",
          "name": "",
          "type": "uint256"
        }
      ],
      "name": "allowedTokens",
      "outputs": [
        {
          "internalType": "address",
          "name": "",
          "type": "address"
        }
      ],
      "stateMutability": "view",
      "type": "function"
    },
    {
      "inputs": [],
      "name": "dslaTokenAddress",
      "outputs": [
        {
          "internalType": "address",
          "name": "",
          "type": "address"
        }
      ],
      "stateMutability": "view",
      "type": "function"
    },
    {
      "inputs": [],
      "name": "minimumDSLAStakedTier1",
      "outputs": [
        {
          "internalType": "uint256",
          "name": "",
          "type": "uint256"
        }
      ],
      "stateMutability": "view",
      "type": "function"
    },
    {
      "inputs": [],
      "name": "minimumDSLAStakedTier2",
      "outputs": [
        {
          "internalType": "uint256",
          "name": "",
          "type": "uint256"
        }
      ],
      "stateMutability": "view",
      "type": "function"
    },
    {
      "inputs": [],
      "name": "minimumDSLAStakedTier3",
      "outputs": [
        {
          "internalType": "uint256",
          "name": "",
          "type": "uint256"
        }
      ],
      "stateMutability": "view",
      "type": "function"
    },
    {
      "inputs": [],
      "name": "owner",
      "outputs": [
        {
          "internalType": "address",
          "name": "",
          "type": "address"
        }
      ],
      "stateMutability": "view",
      "type": "function"
    },
    {
      "inputs": [
        {
          "internalType": "uint256",
          "name": "",
          "type": "uint256"
        },
        {
          "internalType": "address",
          "name": "",
          "type": "address"
        }
      ],
      "name": "providerPeriodsRewards",
      "outputs": [
        {
          "internalType": "uint256",
          "name": "",
          "type": "uint256"
        }
      ],
      "stateMutability": "view",
      "type": "function"
    },
    {
      "inputs": [],
      "name": "renounceOwnership",
      "outputs": [],
      "stateMutability": "nonpayable",
      "type": "function"
    },
    {
      "inputs": [],
      "name": "slaPeriodsLength",
      "outputs": [
        {
          "internalType": "uint256",
          "name": "",
          "type": "uint256"
        }
      ],
      "stateMutability": "view",
      "type": "function"
    },
    {
      "inputs": [
        {
          "internalType": "address",
          "name": "",
          "type": "address"
        },
        {
          "internalType": "address",
          "name": "",
          "type": "address"
        }
      ],
      "name": "stakeHoldersPositions",
      "outputs": [
        {
          "internalType": "uint256",
          "name": "",
          "type": "uint256"
        }
      ],
      "stateMutability": "view",
      "type": "function"
    },
    {
      "inputs": [
        {
          "internalType": "uint256",
          "name": "",
          "type": "uint256"
        }
      ],
      "name": "stakers",
      "outputs": [
        {
          "internalType": "address",
          "name": "",
          "type": "address"
        }
      ],
      "stateMutability": "view",
      "type": "function"
    },
    {
      "inputs": [
        {
          "internalType": "address",
          "name": "",
          "type": "address"
        }
      ],
      "name": "tokenPools",
      "outputs": [
        {
          "internalType": "uint256",
          "name": "",
          "type": "uint256"
        }
      ],
      "stateMutability": "view",
      "type": "function"
    },
    {
      "inputs": [
        {
          "internalType": "address",
          "name": "newOwner",
          "type": "address"
        }
      ],
      "name": "transferOwnership",
      "outputs": [],
      "stateMutability": "nonpayable",
      "type": "function"
    },
    {
      "inputs": [
        {
          "internalType": "address",
          "name": "",
          "type": "address"
        }
      ],
      "name": "usersCompensationPools",
      "outputs": [
        {
          "internalType": "uint256",
          "name": "",
          "type": "uint256"
        }
      ],
      "stateMutability": "view",
      "type": "function"
    },
    {
      "inputs": [
        {
          "internalType": "address",
          "name": "",
          "type": "address"
        }
      ],
      "name": "usersStakeRecord",
      "outputs": [
        {
          "internalType": "uint256",
          "name": "",
          "type": "uint256"
        }
      ],
      "stateMutability": "view",
      "type": "function"
    },
    {
      "inputs": [
        {
          "internalType": "address",
          "name": "",
          "type": "address"
        }
      ],
      "name": "whitelist",
      "outputs": [
        {
          "internalType": "bool",
          "name": "",
          "type": "bool"
        }
      ],
      "stateMutability": "view",
      "type": "function"
    },
    {
      "inputs": [],
      "name": "whitelisted",
      "outputs": [
        {
          "internalType": "bool",
          "name": "",
          "type": "bool"
        }
      ],
      "stateMutability": "view",
      "type": "function"
    },
    {
      "inputs": [],
      "name": "yearlyPeriods",
      "outputs": [
        {
          "internalType": "uint256",
          "name": "",
          "type": "uint256"
        }
      ],
      "stateMutability": "view",
      "type": "function"
    },
    {
      "inputs": [
        {
          "internalType": "address",
          "name": "_userAddress",
          "type": "address"
        }
      ],
      "name": "addUserToWhitelist",
      "outputs": [],
      "stateMutability": "nonpayable",
      "type": "function"
    },
    {
      "inputs": [
        {
          "internalType": "address",
          "name": "_userAddress",
          "type": "address"
        }
      ],
      "name": "removeUserFromWhitelist",
      "outputs": [],
      "stateMutability": "nonpayable",
      "type": "function"
    },
    {
      "inputs": [
        {
          "internalType": "address",
          "name": "_tokenAddress",
          "type": "address"
        }
      ],
      "name": "addAllowedTokens",
      "outputs": [],
      "stateMutability": "nonpayable",
      "type": "function"
    },
    {
      "inputs": [
        {
          "internalType": "address",
          "name": "_tokenAddress",
          "type": "address"
        }
      ],
      "name": "_claimCompensation",
      "outputs": [],
      "stateMutability": "nonpayable",
      "type": "function"
    },
    {
      "inputs": [
        {
          "internalType": "address",
          "name": "_tokenAddress",
          "type": "address"
        }
      ],
      "name": "getStakeholdersPositions",
      "outputs": [
        {
          "internalType": "uint256",
          "name": "providerStake",
          "type": "uint256"
        },
        {
          "internalType": "uint256",
          "name": "usersStake",
          "type": "uint256"
        }
      ],
      "stateMutability": "view",
      "type": "function"
    },
    {
      "inputs": [
        {
          "internalType": "address",
          "name": "_staker",
          "type": "address"
        }
      ],
      "name": "isStaker",
      "outputs": [
        {
          "internalType": "bool",
          "name": "",
          "type": "bool"
        }
      ],
      "stateMutability": "view",
      "type": "function"
    },
    {
      "inputs": [],
      "name": "getAllowedTokensLength",
      "outputs": [
        {
          "internalType": "uint256",
          "name": "",
          "type": "uint256"
        }
      ],
      "stateMutability": "view",
      "type": "function"
    },
    {
      "inputs": [
        {
          "internalType": "address",
          "name": "_staker",
          "type": "address"
        },
        {
          "internalType": "uint256",
          "name": "_allowedTokenIndex",
          "type": "uint256"
        }
      ],
      "name": "getTokenStake",
      "outputs": [
        {
          "internalType": "address",
          "name": "tokenAddress",
          "type": "address"
        },
        {
          "internalType": "uint256",
          "name": "stake",
          "type": "uint256"
        }
      ],
      "stateMutability": "view",
      "type": "function"
    },
    {
      "inputs": [
        {
          "internalType": "address",
          "name": "_tokenAddress",
          "type": "address"
        }
      ],
      "name": "isAllowedToken",
      "outputs": [
        {
          "internalType": "bool",
          "name": "",
          "type": "bool"
        }
      ],
      "stateMutability": "view",
      "type": "function"
    }
  ],
  "bytecode": "0x60806040523480156200001157600080fd5b50604051620016ea380380620016ea833981810160405260a08110156200003757600080fd5b5080516020820151604083015160608401516080909401519293919290919060006200006262000341565b600080546001600160a01b0319166001600160a01b0383169081178255604051929350917f8be0079c531659141344cd1fd0a4f28419497f9722a3daafe3b4186f6b6457e0908290a350600180546001600160a01b038088166001600160a01b0319928316178355600280549188169190921617905560108054859260ff1990911690836005811115620000f257fe5b021790555060118290556012805460ff191682151517905560015460408051637b8041cf60e11b815290516000928392839283926001600160a01b03169163f700839e916004808301926080929190829003018186803b1580156200015657600080fd5b505afa1580156200016b573d6000803e3d6000fd5b505050506040513d60808110156200018257600080fd5b50805160208201516040808401516060909401516002549151635c98d15760e01b815293985091965092945092506000916001600160a01b031690635c98d157908a9060040180826005811115620001d657fe5b8152602001915050604080518083038186803b158015620001f657600080fd5b505afa1580156200020b573d6000803e3d6000fd5b505050506040513d60408110156200022257600080fd5b5051600f81905560015460408051638b8e530960e01b815290519293506001600160a01b0390911691638b8e530991600480820192602092909190829003018186803b1580156200027257600080fd5b505afa15801562000287573d6000803e3d6000fd5b505050506040513d60208110156200029e57600080fd5b5051600980546001600160a01b0319166001600160a01b03909216919091179055600b859055600c849055600d839055600e829055620002de3362000345565b5050600954600a80546001810182556000919091527fc65a7bb8d6351c1cf70c95a316cc6a92839c986682d98bc35f958f4883f9d2a80180546001600160a01b0319166001600160a01b0390921691909117905550620004459650505050505050565b3390565b6200034f62000341565b6000546001600160a01b03908116911614620003b2576040805162461bcd60e51b815260206004820181905260248201527f4f776e61626c653a2063616c6c6572206973206e6f7420746865206f776e6572604482015290519081900360640190fd5b6001600160a01b03811660009081526013602052604090205460ff161562000421576040805162461bcd60e51b815260206004820152601860248201527f5573657220616c72656164792077686974656c69737465640000000000000000604482015290519081900360640190fd5b6001600160a01b03166000908152601360205260409020805460ff19166001179055565b61129580620004556000396000f3fe608060405234801561001057600080fd5b50600436106101845760003560e01c80639b19251a116100d9578063ee575c2811610087578063ee575c281461043a578063f2fde38b14610442578063f51b7ab914610468578063f55cce9414610470578063f7e9dfff1461049e578063f9902bb1146104a6578063fd5e6dd1146104cc57610184565b80639b19251a1461036c578063b18ac91814610392578063b1e25ff11461039a578063b7bc347e146103c0578063c3d2c3c1146103c8578063cbe230c3146103ee578063db2da48c1461041457610184565b80635c1c20de116101365780635c1c20de146102905780635e5f2e26146102985780636f1e8533146102d15780636f265a34146102f7578063715018a614610336578063747b80501461033e5780638da5cb5b1461036457610184565b80630c5160f414610189578063171e44ea146101a35780631fc2cd93146101cb5780632eb8197a146101f157806333df1541146101f95780633d9287fa1461022557806357ac94f014610241575b600080fd5b6101916104e9565b60408051918252519081900360200190f35b6101c9600480360360208110156101b957600080fd5b50356001600160a01b03166104ef565b005b6101c9600480360360208110156101e157600080fd5b50356001600160a01b03166106a3565b61019161097d565b6101916004803603604081101561020f57600080fd5b50803590602001356001600160a01b0316610983565b61022d6109a0565b604080519115158252519081900360200190f35b61026d6004803603604081101561025757600080fd5b506001600160a01b0381351690602001356109a9565b604080516001600160a01b03909316835260208301919091528051918290030190f35b6101916109f7565b6102b5600480360360208110156102ae57600080fd5b50356109fd565b604080516001600160a01b039092168252519081900360200190f35b61022d600480360360208110156102e757600080fd5b50356001600160a01b0316610a24565b61031d6004803603602081101561030d57600080fd5b50356001600160a01b0316610a81565b6040805192835260208301919091528051918290030190f35b6101c9610ae6565b6101c96004803603602081101561035457600080fd5b50356001600160a01b0316610b88565b6102b5610c6d565b61022d6004803603602081101561038257600080fd5b50356001600160a01b0316610c7c565b610191610c91565b610191600480360360208110156103b057600080fd5b50356001600160a01b0316610c97565b610191610ca9565b610191600480360360208110156103de57600080fd5b50356001600160a01b0316610caf565b61022d6004803603602081101561040457600080fd5b50356001600160a01b0316610cc1565b6101916004803603602081101561042a57600080fd5b50356001600160a01b0316610d13565b610191610d25565b6101c96004803603602081101561045857600080fd5b50356001600160a01b0316610d2b565b610191610e23565b6101916004803603604081101561048657600080fd5b506001600160a01b0381358116916020013516610e29565b6102b5610e46565b6101c9600480360360208110156104bc57600080fd5b50356001600160a01b0316610e55565b6102b5600480360360208110156104e257600080fd5b5035610f37565b60115481565b6104f7610f44565b6000546001600160a01b03908116911614610547576040805162461bcd60e51b815260206004820181905260248201526000805160206111d9833981519152604482015290519081900360640190fd5b61055081610cc1565b15610598576040805162461bcd60e51b8152602060048201526013602482015272151bdad95b88185b1c9958591e481859191959606a1b604482015290519081900360640190fd5b6001546040805163cbe230c360e01b81526001600160a01b0384811660048301529151919092169163cbe230c3916024808301926020929190829003018186803b1580156105e557600080fd5b505afa1580156105f9573d6000803e3d6000fd5b505050506040513d602081101561060f57600080fd5b505115156001146106515760405162461bcd60e51b815260040180806020018281038252602d815260200180611151602d913960400191505060405180910390fd5b600a80546001810182556000919091527fc65a7bb8d6351c1cf70c95a316cc6a92839c986682d98bc35f958f4883f9d2a80180546001600160a01b0319166001600160a01b0392909216919091179055565b6106ab610c6d565b6001600160a01b0316336001600160a01b031614156106fb5760405162461bcd60e51b815260040180806020018281038252602581526020018061123b6025913960400191505060405180910390fd5b60125460ff1615156001141561076e573360009081526013602052604090205460ff16151560011461076e576040805162461bcd60e51b8152602060048201526017602482015276155cd95c881a5cc81b9bdd081dda1a5d195b1a5cdd1959604a1b604482015290519081900360640190fd5b6001600160a01b038116600090815260046020908152604080832033845290915290205461271090806107d25760405162461bcd60e51b815260040180806020018281038252603a81526020018061117e603a913960400191505060405180910390fd5b6001600160a01b0383166000908152600560205260408120546107ff906107f98486610f48565b90610faa565b6001600160a01b0385166000908152600660205260408120549192509061082c9085906107f99085610f48565b6040805163a9059cbb60e01b815233600482015260028302602482015290519192506000916001600160a01b0388169163a9059cbb91604480830192602092919082900301818787803b15801561088257600080fd5b505af1158015610896573d6000803e3d6000fd5b505050506040513d60208110156108ac57600080fd5b505190506001811515146108f15760405162461bcd60e51b81526004018080602001828103825260428152602001806111f96042913960600191505060405180910390fd5b6001600160a01b0386166000908152600560205260409020546109149085610fec565b6001600160a01b0387166000908152600560209081526040808320939093556006905220546109439083610fec565b6001600160a01b03909616600090815260066020908152604080832098909855600481528782203383529052958620959095555050505050565b600e5481565b600760209081526000928352604080842090915290825290205481565b60125460ff1681565b6000806000600a84815481106109bb57fe5b6000918252602080832091909101546001600160a01b039081168084526004835260408085209990921684529790915290205494959350505050565b600b5481565b600a8181548110610a0a57fe5b6000918252602090912001546001600160a01b0316905081565b6000805b600854811015610a7657826001600160a01b031660088281548110610a4957fe5b6000918252602090912001546001600160a01b03161415610a6e576001915050610a7c565b600101610a28565b50600090505b919050565b6001600160a01b0381166000908152600460205260408120819081610aa4610c6d565b6001600160a01b039081168252602080830193909352604091820160009081205491871681526003909352912054909250610adf9083610fec565b9050915091565b610aee610f44565b6000546001600160a01b03908116911614610b3e576040805162461bcd60e51b815260206004820181905260248201526000805160206111d9833981519152604482015290519081900360640190fd5b600080546040516001600160a01b03909116907f8be0079c531659141344cd1fd0a4f28419497f9722a3daafe3b4186f6b6457e0908390a3600080546001600160a01b0319169055565b610b90610f44565b6000546001600160a01b03908116911614610be0576040805162461bcd60e51b815260206004820181905260248201526000805160206111d9833981519152604482015290519081900360640190fd5b6001600160a01b03811660009081526013602052604090205460ff1615610c49576040805162461bcd60e51b8152602060048201526018602482015277155cd95c88185b1c9958591e481dda1a5d195b1a5cdd195960421b604482015290519081900360640190fd5b6001600160a01b03166000908152601360205260409020805460ff19166001179055565b6000546001600160a01b031690565b60136020526000908152604090205460ff1681565b600d5481565b60056020526000908152604090205481565b600a5490565b60036020526000908152604090205481565b6000805b600a54811015610a7657826001600160a01b0316600a8281548110610ce657fe5b6000918252602090912001546001600160a01b03161415610d0b576001915050610a7c565b600101610cc5565b60066020526000908152604090205481565b600c5481565b610d33610f44565b6000546001600160a01b03908116911614610d83576040805162461bcd60e51b815260206004820181905260248201526000805160206111d9833981519152604482015290519081900360640190fd5b6001600160a01b038116610dc85760405162461bcd60e51b815260040180806020018281038252602681526020018061112b6026913960400191505060405180910390fd5b600080546040516001600160a01b03808516939216917f8be0079c531659141344cd1fd0a4f28419497f9722a3daafe3b4186f6b6457e091a3600080546001600160a01b0319166001600160a01b0392909216919091179055565b600f5481565b600460209081526000928352604080842090915290825290205481565b6009546001600160a01b031681565b610e5d610f44565b6000546001600160a01b03908116911614610ead576040805162461bcd60e51b815260206004820181905260248201526000805160206111d9833981519152604482015290519081900360640190fd5b6001600160a01b03811660009081526013602052604090205460ff161515600114610f16576040805162461bcd60e51b8152602060048201526014602482015273155cd95c881b9bdd081dda1a5d195b1a5cdd195960621b604482015290519081900360640190fd5b6001600160a01b03166000908152601360205260409020805460ff19169055565b60088181548110610a0a57fe5b3390565b600082610f5757506000610fa4565b82820282848281610f6457fe5b0414610fa15760405162461bcd60e51b81526004018080602001828103825260218152602001806111b86021913960400191505060405180910390fd5b90505b92915050565b6000610fa183836040518060400160405280601a81526020017f536166654d6174683a206469766973696f6e206279207a65726f00000000000081525061102e565b6000610fa183836040518060400160405280601e81526020017f536166654d6174683a207375627472616374696f6e206f766572666c6f7700008152506110d0565b600081836110ba5760405162461bcd60e51b81526004018080602001828103825283818151815260200191508051906020019080838360005b8381101561107f578181015183820152602001611067565b50505050905090810190601f1680156110ac5780820380516001836020036101000a031916815260200191505b509250505060405180910390fd5b5060008385816110c657fe5b0495945050505050565b600081848411156111225760405162461bcd60e51b815260206004820181815283516024840152835190928392604490910191908501908083836000831561107f578181015183820152602001611067565b50505090039056fe4f776e61626c653a206e6577206f776e657220697320746865207a65726f2061646472657373546f6b656e206e6f7420616c6c6f7765642062792074686520534c41526567697374727920636f6e747261637443616e206f6e6c7920636c61696d206120636f6d70656e736174696f6e20696620706f736974696f6e20697320626967676572207468616e2030536166654d6174683a206d756c7469706c69636174696f6e206f766572666c6f774f776e61626c653a2063616c6c6572206973206e6f7420746865206f776e65725472616e736665722070726f636573732066726f6d20534c4120636f6e747261637420746f206d73672e73656e64657220776173206e6f742073756363657366756c53686f756c64206e6f742062652063616c6c65642062792074686520534c41206f776e6572a26469706673582212200055c1017cecb99c0c93da6215172e7258571e99d2db4be36ad2be6c9a7e6fae64736f6c634300060c0033",
  "immutableReferences": {},
  "source": "// SPDX-License-Identifier: MIT\npragma solidity ^0.6.0;\n\nimport \"@openzeppelin/contracts/token/ERC20/IERC20.sol\";\nimport \"@openzeppelin/contracts/access/Ownable.sol\";\nimport \"@openzeppelin/contracts/math/SafeMath.sol\";\nimport \"./StakeRegistry.sol\";\nimport \"./PeriodRegistry.sol\";\n\ncontract Staking is Ownable {\n    using SafeMath for uint256;\n\n    /// @dev StakeRegistry contract\n    StakeRegistry private stakeRegistry;\n    /// @dev SLARegistry contract\n    PeriodRegistry private periodRegistry;\n\n    /// @dev (tokenAddress=>uint256) total pooled token balance\n    mapping(address => uint256) public tokenPools;\n    /// @dev (tokenAddress=>stakerAddress=>uint256) staker position to represent his proportion staked\n    mapping(address => mapping(address => uint256))\n        public stakeHoldersPositions;\n    /// @dev (tokenAddress=>uint256) used to keep track of the total stakes per token, to calculate proportion of compensation pool\n    mapping(address => uint256) public usersStakeRecord;\n    /// @dev (tokenAddress=>uint256) users available compensation per token\n    mapping(address => uint256) public usersCompensationPools;\n    /// @dev (periodId=>tokenAddress=>uint256) provider compensation per period and per token\n    mapping(uint256 => mapping(address => uint256))\n        public providerPeriodsRewards;\n    /// @dev address[] of the stakers of the SLA contract\n    address[] public stakers;\n    /// @dev DSLA token address to burn fees\n    address public dslaTokenAddress;\n    /// @dev array with the allowed tokens addresses for the current SLA\n    address[] public allowedTokens;\n\n    /// @dev corresponds to the burn rate of DSLA tokens, but divided by 1000 i.e burn percentage = burnRate/1000 %\n    uint256 public DSLAburnRate;\n    /// @dev minimum deposit for Tier 1 staking\n    uint256 public minimumDSLAStakedTier1;\n    /// @dev minimum deposit for Tier 2 staking\n    uint256 public minimumDSLAStakedTier2;\n    /// @dev minimum deposit for Tier 3 staking\n    uint256 public minimumDSLAStakedTier3;\n\n    /// @dev PeriodRegistry defined amount of periods over a year\n    uint256 public yearlyPeriods;\n    /// @dev PeriodRegistry period type of the SLA contract\n    PeriodRegistry.PeriodType private periodType;\n    /// @dev length of the _periodIds array, to state effective APY\n    uint256 public slaPeriodsLength;\n\n    /// @dev boolean to declare if contract is whitelisted\n    bool public whitelisted;\n    /// @dev (userAddress=bool) to declare whitelisted addresses\n    mapping(address => bool) public whitelist;\n\n    modifier notOwner {\n        require(msg.sender != owner(), \"Should not be called by the SLA owner\");\n        _;\n    }\n\n    modifier onlyAllowedToken(address _token) {\n        require(isAllowedToken(_token) == true, \"token is not allowed\");\n        _;\n    }\n\n    modifier onlyWhitelisted {\n        if (whitelisted == true) {\n            require(whitelist[msg.sender] == true, \"User is not whitelisted\");\n        }\n        _;\n    }\n\n    /**\n     * @dev event for provider reward log\n     * @param periodId 1. id of the period\n     * @param tokenAddress 2. address of the token\n     * @param rewardPercentage 3. address of the token\n     * @param amount 4. amount rewarded\n     */\n    event ProviderRewardGenerated(\n        uint256 indexed periodId,\n        address indexed tokenAddress,\n        uint256 rewardPercentage,\n        uint256 amount\n    );\n\n    /**\n     *@param _stakeRegistry 1. address of the stake registry\n     *@param _periodRegistry 2. address of the period registry\n     *@param _periodType 3. period type of the SLA\n     *@param _slaPeriodsLength 4. length of the SLA periodsId stored on the sla contract\n     *@param _whitelisted 5. enables the white list feature\n     */\n    constructor(\n        address _stakeRegistry,\n        address _periodRegistry,\n        PeriodRegistry.PeriodType _periodType,\n        uint256 _slaPeriodsLength,\n        bool _whitelisted\n    ) public {\n        stakeRegistry = StakeRegistry(_stakeRegistry);\n        periodRegistry = PeriodRegistry(_periodRegistry);\n        periodType = _periodType;\n        slaPeriodsLength = _slaPeriodsLength;\n        whitelisted = _whitelisted;\n        (\n            uint256 _DSLAburnRate,\n            uint256 _minimumDSLAStakedTier1,\n            uint256 _minimumDSLAStakedTier2,\n            uint256 _minimumDSLAStakedTier3\n        ) = stakeRegistry.getStakingParameters();\n        (uint256 _yearlyPeriods, ) =\n            periodRegistry.periodDefinitions(_periodType);\n        yearlyPeriods = _yearlyPeriods;\n        dslaTokenAddress = stakeRegistry.DSLATokenAddress();\n        DSLAburnRate = _DSLAburnRate;\n        minimumDSLAStakedTier1 = _minimumDSLAStakedTier1;\n        minimumDSLAStakedTier2 = _minimumDSLAStakedTier2;\n        minimumDSLAStakedTier3 = _minimumDSLAStakedTier3;\n        addUserToWhitelist(msg.sender);\n        allowedTokens.push(dslaTokenAddress);\n    }\n\n    function addUserToWhitelist(address _userAddress) public onlyOwner {\n        require(whitelist[_userAddress] == false, \"User already whitelisted\");\n        whitelist[_userAddress] = true;\n    }\n\n    function removeUserFromWhitelist(address _userAddress) public onlyOwner {\n        require(whitelist[_userAddress] == true, \"User not whitelisted\");\n        whitelist[_userAddress] = false;\n    }\n\n    /**\n     *@dev add a token to ve allowed for staking\n     *@param _tokenAddress 1. address of the new allowed token\n     */\n    function addAllowedTokens(address _tokenAddress) public onlyOwner {\n        require(isAllowedToken(_tokenAddress) == false, \"Token already added\");\n        require(\n            stakeRegistry.isAllowedToken(_tokenAddress) == true,\n            \"Token not allowed by the SLARegistry contract\"\n        );\n        //        (uint256 providerStake, ) = getStakeholdersPositions(dslaTokenAddress);\n        //        require(\n        //            providerStake > minimumDSLAStakedTier1,\n        //            \"Should stake at least minimumDSLAStakedTier1 to add a new token\"\n        //        );\n        allowedTokens.push(_tokenAddress);\n    }\n\n    /**\n     *@dev increase the amount staked per token\n     *@param _amount 1. amount to be staked\n     *@param _tokenAddress 2. address of the token\n     *@notice providers can stake at any time\n     *@notice users can stake at any time but no more than provider pool\n     */\n    function _stake(uint256 _amount, address _tokenAddress)\n        internal\n        onlyAllowedToken(_tokenAddress)\n        onlyWhitelisted\n    {\n        if (msg.sender != owner()) {\n            (uint256 providerStake, uint256 usersStake) =\n                getStakeholdersPositions(_tokenAddress);\n            require(\n                usersStake.add(_amount) <= providerStake,\n                \"Cannot stake more than SLA provider stake\"\n            );\n        }\n        bool success =\n            IERC20(_tokenAddress).transferFrom(\n                msg.sender,\n                address(this),\n                _amount\n            );\n        require(success == true, \"Staking process was not succesful\");\n        tokenPools[_tokenAddress] = tokenPools[_tokenAddress].add(_amount);\n        stakeHoldersPositions[_tokenAddress][\n            msg.sender\n        ] = stakeHoldersPositions[_tokenAddress][msg.sender].add(_amount);\n        if (!isStaker(msg.sender)) {\n            stakers.push(msg.sender);\n        }\n        // after staking successfully, increase the usersStakeRecord of the token\n        if (msg.sender != owner()) {\n            usersStakeRecord[_tokenAddress] = usersStakeRecord[_tokenAddress]\n                .add(_amount);\n        }\n    }\n\n    /**\n     *@dev withdraw staked tokens\n     *@param _amount 1. amount to withdraw\n     *@param _tokenAddress 2. address of the token\n     */\n    function _withdraw(uint256 _amount, address _tokenAddress)\n        internal\n        onlyAllowedToken(_tokenAddress)\n        onlyWhitelisted\n    {\n        if (msg.sender == owner()) {\n            (uint256 providerStake, uint256 usersStake) =\n                getStakeholdersPositions(_tokenAddress);\n            require(\n                providerStake.sub(_amount) >= usersStake,\n                \"Should not withdraw more than users stake\"\n            );\n        }\n        require(\n            stakeHoldersPositions[_tokenAddress][msg.sender] >= _amount,\n            \"Should not withdraw more stake than staked\"\n        );\n        tokenPools[_tokenAddress] = tokenPools[_tokenAddress].sub(_amount);\n        stakeHoldersPositions[_tokenAddress][\n            msg.sender\n        ] = stakeHoldersPositions[_tokenAddress][msg.sender].sub(_amount);\n\n        bool success = IERC20(_tokenAddress).transfer(msg.sender, _amount);\n        require(success == true, \"Stake withdraw was not succesful\");\n    }\n\n    /**\n     *@dev sets the provider reward\n     *@notice it calculates the usersStake and calculates the provider reward from it.\n     * Then it subtract the reward from the users stake, by adding the reward to the\n     * owner position without decreasing the tokenPool size\n     * @param _periodId 1. id of the period\n     * @param _rewardPercentage to calculate the provider reward\n     * @param _precision used to avoid getting 0 after division in the SLA's registerSLI function\n     */\n    function _setRespectedPeriodReward(\n        uint256 _periodId,\n        uint256 _rewardPercentage,\n        uint256 _precision\n    ) internal {\n        for (uint256 index = 0; index < allowedTokens.length; index++) {\n            address tokenAddress = allowedTokens[index];\n            (, uint256 usersStake) = getStakeholdersPositions(tokenAddress);\n            uint256 reward =\n                usersStake.mul(_rewardPercentage).div(100 * _precision);\n            if (tokenAddress == dslaTokenAddress) {\n                uint256 fees = _burnDSLATokens(reward);\n                reward.sub(fees);\n            }\n            stakeHoldersPositions[tokenAddress][\n                owner()\n            ] = stakeHoldersPositions[tokenAddress][owner()].add(reward);\n            providerPeriodsRewards[_periodId][tokenAddress] = reward;\n            emit ProviderRewardGenerated(\n                _periodId,\n                tokenAddress,\n                _rewardPercentage,\n                reward\n            );\n        }\n    }\n\n    /**\n     *@dev sets the users compensation pool\n     *@notice it calculates the usersStake and calculates the users compensation from it\n     * then it subtract it from the provider stake, to compensate users with a compensation pool\n     */\n    function _setUsersCompensationPool() internal {\n        for (uint256 index = 0; index < allowedTokens.length; index++) {\n            address tokenAddress = allowedTokens[index];\n            (, uint256 usersStake) = getStakeholdersPositions(tokenAddress);\n            uint256 compensation = usersStake;\n            if (tokenAddress == dslaTokenAddress) {\n                uint256 fees = _burnDSLATokens(compensation);\n                compensation.sub(fees);\n            }\n            tokenPools[tokenAddress] = tokenPools[tokenAddress].sub(\n                compensation\n            );\n            // discount the compensation from the provider position\n            stakeHoldersPositions[tokenAddress][\n                owner()\n            ] = stakeHoldersPositions[tokenAddress][owner()].sub(compensation);\n            usersCompensationPools[tokenAddress] = usersCompensationPools[\n                tokenAddress\n            ]\n                .add(compensation);\n        }\n    }\n\n    /**\n     *@dev claim user compensation. Transfers both the compensation and the user remaining stake.\n     *@param _tokenAddress 1. address of the token to claim compensation\n     *@notice it uses the user position and the user total position per token to check\n     * the proportion of the compensation pool that corresponds to every user\n     */\n    function _claimCompensation(address _tokenAddress)\n        public\n        notOwner\n        onlyWhitelisted\n    {\n        uint256 precision = 10000;\n        uint256 userPosition = stakeHoldersPositions[_tokenAddress][msg.sender];\n        require(\n            userPosition > 0,\n            \"Can only claim a compensation if position is bigger than 0\"\n        );\n        // userPosition[tokenAddress]/usersStakeRecord[tokenAddress] is the proportion\n        // of the compensation pool to be delivered.\n        uint256 userCompensationPercentage =\n            userPosition.mul(precision).div(usersStakeRecord[_tokenAddress]);\n        uint256 userCompensation =\n            usersCompensationPools[_tokenAddress]\n                .mul(userCompensationPercentage)\n                .div(precision);\n        // transfers the user compensation times two, to return compensation and remaining stake\n        bool success =\n            IERC20(_tokenAddress).transfer(msg.sender, userCompensation * 2);\n        require(\n            success == true,\n            \"Transfer process from SLA contract to msg.sender was not succesful\"\n        );\n        usersStakeRecord[_tokenAddress] = usersStakeRecord[_tokenAddress].sub(\n            userPosition\n        );\n        usersCompensationPools[_tokenAddress] = usersCompensationPools[\n            _tokenAddress\n        ]\n            .sub(userCompensation);\n        stakeHoldersPositions[_tokenAddress][msg.sender] = 0;\n    }\n\n    /**\n     *@dev gets the positions of stake both for provider and for users\n     *@param _tokenAddress 1. token address to get the positions\n     *@return providerStake position of the provider (owner) of the SLA contract\n     *@return usersStake position of the user of the SLA contract\n     */\n    function getStakeholdersPositions(address _tokenAddress)\n        public\n        view\n        returns (uint256 providerStake, uint256 usersStake)\n    {\n        providerStake = stakeHoldersPositions[_tokenAddress][owner()];\n        usersStake = tokenPools[_tokenAddress].sub(providerStake);\n    }\n\n    function _burnDSLATokens(uint256 _amount) internal returns (uint256 fees) {\n        bytes4 BURN_SELECTOR = bytes4(keccak256(bytes(\"burn(uint256)\")));\n        fees = _amount.mul(DSLAburnRate).div(1000);\n        (bool _success, ) =\n            dslaTokenAddress.call(abi.encodeWithSelector(BURN_SELECTOR, fees));\n        require(_success, \"DSLA burn process was not successful\");\n        tokenPools[dslaTokenAddress] = tokenPools[dslaTokenAddress].sub(fees);\n    }\n\n    /**\n     *@dev returns true if the _staker address is registered as staker\n     *@param _staker 1. staker address\n     *@return true if address is staker\n     */\n    function isStaker(address _staker) public view returns (bool) {\n        for (uint256 index = 0; index < stakers.length; index++) {\n            if (stakers[index] == _staker) return true;\n        }\n        return false;\n    }\n\n    /**\n     *@dev use this function to evaluate the length of the allowed tokens length\n     *@return allowedTokens.length\n     */\n    function getAllowedTokensLength() public view returns (uint256) {\n        return allowedTokens.length;\n    }\n\n    function getTokenStake(address _staker, uint256 _allowedTokenIndex)\n        public\n        view\n        returns (address tokenAddress, uint256 stake)\n    {\n        address allowedTokenAddress = allowedTokens[_allowedTokenIndex];\n        return (\n            allowedTokenAddress,\n            stakeHoldersPositions[allowedTokenAddress][_staker]\n        );\n    }\n\n    /**\n     *@dev checks in the allowedTokens array if there's a token with _tokenAddress value\n     *@param _tokenAddress 1. token address to check exixtence\n     *@return true if _tokenAddress exists in the allowedTokens array\n     */\n    function isAllowedToken(address _tokenAddress) public view returns (bool) {\n        for (uint256 index = 0; index < allowedTokens.length; index++) {\n            if (allowedTokens[index] == _tokenAddress) {\n                return true;\n            }\n        }\n        return false;\n    }\n}\n",
  "sourcePath": "/Users/matiasbn/Desktop/stacktical/stacktical-dsla-contracts/contracts/Staking.sol",
  "compiler": {
    "name": "solc",
    "version": "0.6.12+commit.27d51765.Emscripten.clang"
  },
  "schemaVersion": "3.3.3",
  "updatedAt": "2021-02-22T19:17:56.607Z",
  "devdoc": {
    "events": {
      "ProviderRewardGenerated(uint256,address,uint256,uint256)": {
        "details": "event for provider reward log",
        "params": {
          "amount": "4. amount rewarded",
          "periodId": "1. id of the period",
          "rewardPercentage": "3. address of the token",
          "tokenAddress": "2. address of the token"
        }
      }
    },
    "kind": "dev",
    "methods": {
      "_claimCompensation(address)": {
        "details": "claim user compensation. Transfers both the compensation and the user remaining stake.",
        "params": {
          "_tokenAddress": "1. address of the token to claim compensation"
        }
      },
      "addAllowedTokens(address)": {
        "details": "add a token to ve allowed for staking",
        "params": {
          "_tokenAddress": "1. address of the new allowed token"
        }
      },
      "constructor": {
        "params": {
          "_periodRegistry": "2. address of the period registry",
          "_periodType": "3. period type of the SLA",
          "_slaPeriodsLength": "4. length of the SLA periodsId stored on the sla contract",
          "_stakeRegistry": "1. address of the stake registry",
          "_whitelisted": "5. enables the white list feature"
        }
      },
      "getAllowedTokensLength()": {
        "details": "use this function to evaluate the length of the allowed tokens length",
        "returns": {
          "_0": "allowedTokens.length"
        }
      },
      "getStakeholdersPositions(address)": {
        "details": "gets the positions of stake both for provider and for users",
        "params": {
          "_tokenAddress": "1. token address to get the positions"
        },
        "returns": {
          "providerStake": "position of the provider (owner) of the SLA contract",
          "usersStake": "position of the user of the SLA contract"
        }
      },
      "isAllowedToken(address)": {
        "details": "checks in the allowedTokens array if there's a token with _tokenAddress value",
        "params": {
          "_tokenAddress": "1. token address to check exixtence"
        },
        "returns": {
          "_0": "true if _tokenAddress exists in the allowedTokens array"
        }
      },
      "isStaker(address)": {
        "details": "returns true if the _staker address is registered as staker",
        "params": {
          "_staker": "1. staker address"
        },
        "returns": {
          "_0": "true if address is staker"
        }
      },
      "owner()": {
        "details": "Returns the address of the current owner."
      },
      "renounceOwnership()": {
        "details": "Leaves the contract without owner. It will not be possible to call `onlyOwner` functions anymore. Can only be called by the current owner. NOTE: Renouncing ownership will leave the contract without an owner, thereby removing any functionality that is only available to the owner."
      },
      "transferOwnership(address)": {
        "details": "Transfers ownership of the contract to a new account (`newOwner`). Can only be called by the current owner."
      }
    },
    "stateVariables": {
      "DSLAburnRate": {
        "details": "corresponds to the burn rate of DSLA tokens, but divided by 1000 i.e burn percentage = burnRate/1000 %"
      },
      "allowedTokens": {
        "details": "array with the allowed tokens addresses for the current SLA"
      },
      "dslaTokenAddress": {
        "details": "DSLA token address to burn fees"
      },
      "minimumDSLAStakedTier1": {
        "details": "minimum deposit for Tier 1 staking"
      },
      "minimumDSLAStakedTier2": {
        "details": "minimum deposit for Tier 2 staking"
      },
      "minimumDSLAStakedTier3": {
        "details": "minimum deposit for Tier 3 staking"
      },
      "periodRegistry": {
        "details": "SLARegistry contract"
      },
      "periodType": {
        "details": "PeriodRegistry period type of the SLA contract"
      },
      "providerPeriodsRewards": {
        "details": "(periodId=>tokenAddress=>uint256) provider compensation per period and per token"
      },
      "slaPeriodsLength": {
        "details": "length of the _periodIds array, to state effective APY"
      },
      "stakeHoldersPositions": {
        "details": "(tokenAddress=>stakerAddress=>uint256) staker position to represent his proportion staked"
      },
      "stakeRegistry": {
        "details": "StakeRegistry contract"
      },
      "stakers": {
        "details": "address[] of the stakers of the SLA contract"
      },
      "tokenPools": {
        "details": "(tokenAddress=>uint256) total pooled token balance"
      },
      "usersCompensationPools": {
        "details": "(tokenAddress=>uint256) users available compensation per token"
      },
      "usersStakeRecord": {
        "details": "(tokenAddress=>uint256) used to keep track of the total stakes per token, to calculate proportion of compensation pool"
      },
      "whitelist": {
        "details": "(userAddress=bool) to declare whitelisted addresses"
      },
      "whitelisted": {
        "details": "boolean to declare if contract is whitelisted"
      },
      "yearlyPeriods": {
        "details": "PeriodRegistry defined amount of periods over a year"
      }
    },
    "version": 1
  },
  "userdoc": {
    "kind": "user",
    "methods": {
      "_claimCompensation(address)": {
        "notice": "it uses the user position and the user total position per token to check the proportion of the compensation pool that corresponds to every user"
      }
    },
    "version": 1
  }
}