{
  "contractName": "Staking",
  "abi": [
    {
      "inputs": [
        {
          "internalType": "contract bDSLAToken",
          "name": "_tokenAddress",
          "type": "address"
        }
      ],
      "stateMutability": "nonpayable",
      "type": "constructor"
    },
    {
      "anonymous": false,
      "inputs": [
        {
          "indexed": true,
          "internalType": "address",
          "name": "previousOwner",
          "type": "address"
        },
        {
          "indexed": true,
          "internalType": "address",
          "name": "newOwner",
          "type": "address"
        }
      ],
      "name": "OwnershipTransferred",
      "type": "event"
    },
    {
      "inputs": [],
      "name": "bDSLA",
      "outputs": [
        {
          "internalType": "contract bDSLAToken",
          "name": "",
          "type": "address"
        }
      ],
      "stateMutability": "view",
      "type": "function"
    },
    {
      "inputs": [],
      "name": "owner",
      "outputs": [
        {
          "internalType": "address",
          "name": "",
          "type": "address"
        }
      ],
      "stateMutability": "view",
      "type": "function"
    },
    {
      "inputs": [
        {
          "internalType": "uint256",
          "name": "",
          "type": "uint256"
        }
      ],
      "name": "periods",
      "outputs": [
        {
          "internalType": "uint256",
          "name": "sla_period_start",
          "type": "uint256"
        },
        {
          "internalType": "uint256",
          "name": "sla_period_end",
          "type": "uint256"
        },
        {
          "internalType": "uint256",
          "name": "claimed_reward",
          "type": "uint256"
        },
        {
          "internalType": "bool",
          "name": "claimed",
          "type": "bool"
        },
        {
          "internalType": "enum Staking.Status",
          "name": "status",
          "type": "uint8"
        }
      ],
      "stateMutability": "view",
      "type": "function"
    },
    {
      "inputs": [],
      "name": "renounceOwnership",
      "outputs": [],
      "stateMutability": "nonpayable",
      "type": "function"
    },
    {
      "inputs": [
        {
          "internalType": "uint256",
          "name": "",
          "type": "uint256"
        }
      ],
      "name": "stakers",
      "outputs": [
        {
          "internalType": "address",
          "name": "",
          "type": "address"
        }
      ],
      "stateMutability": "view",
      "type": "function"
    },
    {
      "inputs": [],
      "name": "totalStaked",
      "outputs": [
        {
          "internalType": "uint256",
          "name": "",
          "type": "uint256"
        }
      ],
      "stateMutability": "view",
      "type": "function"
    },
    {
      "inputs": [
        {
          "internalType": "address",
          "name": "newOwner",
          "type": "address"
        }
      ],
      "name": "transferOwnership",
      "outputs": [],
      "stateMutability": "nonpayable",
      "type": "function"
    },
    {
      "inputs": [
        {
          "internalType": "address",
          "name": "",
          "type": "address"
        }
      ],
      "name": "uniqueTokensStaked",
      "outputs": [
        {
          "internalType": "uint256",
          "name": "",
          "type": "uint256"
        }
      ],
      "stateMutability": "view",
      "type": "function"
    },
    {
      "inputs": [],
      "name": "validator",
      "outputs": [
        {
          "internalType": "address",
          "name": "",
          "type": "address"
        }
      ],
      "stateMutability": "view",
      "type": "function"
    },
    {
      "inputs": [
        {
          "internalType": "address",
          "name": "_token",
          "type": "address"
        }
      ],
      "name": "addAllowedTokens",
      "outputs": [],
      "stateMutability": "nonpayable",
      "type": "function"
    },
    {
      "inputs": [
        {
          "internalType": "uint256",
          "name": "_amount",
          "type": "uint256"
        },
        {
          "internalType": "address",
          "name": "_token",
          "type": "address"
        },
        {
          "internalType": "uint256",
          "name": "_period",
          "type": "uint256"
        }
      ],
      "name": "stakeTokens",
      "outputs": [],
      "stateMutability": "nonpayable",
      "type": "function"
    },
    {
      "inputs": [
        {
          "internalType": "address",
          "name": "_token",
          "type": "address"
        },
        {
          "internalType": "uint256",
          "name": "_period",
          "type": "uint256"
        }
      ],
      "name": "withdraw",
      "outputs": [],
      "stateMutability": "nonpayable",
      "type": "function"
    },
    {
      "inputs": [
        {
          "internalType": "address",
          "name": "_token",
          "type": "address"
        },
        {
          "internalType": "uint256",
          "name": "_amount",
          "type": "uint256"
        },
        {
          "internalType": "uint256",
          "name": "_period",
          "type": "uint256"
        }
      ],
      "name": "withdrawAndStake",
      "outputs": [],
      "stateMutability": "nonpayable",
      "type": "function"
    },
    {
      "inputs": [
        {
          "internalType": "uint256",
          "name": "_period",
          "type": "uint256"
        }
      ],
      "name": "claimReward",
      "outputs": [],
      "stateMutability": "nonpayable",
      "type": "function"
    },
    {
      "inputs": [
        {
          "internalType": "uint256",
          "name": "_period",
          "type": "uint256"
        }
      ],
      "name": "claimCompensation",
      "outputs": [],
      "stateMutability": "nonpayable",
      "type": "function"
    },
    {
      "inputs": [
        {
          "internalType": "address",
          "name": "_user",
          "type": "address"
        },
        {
          "internalType": "uint256",
          "name": "_period",
          "type": "uint256"
        }
      ],
      "name": "getUserTotalValue",
      "outputs": [
        {
          "internalType": "uint256",
          "name": "",
          "type": "uint256"
        }
      ],
      "stateMutability": "view",
      "type": "function"
    }
  ],
  "bytecode": "0x608060405234801561001057600080fd5b5060405162002b1638038062002b168339818101604052602081101561003557600080fd5b8101908080519060200190929190505050600061005661020160201b60201c565b9050806000806101000a81548173ffffffffffffffffffffffffffffffffffffffff021916908373ffffffffffffffffffffffffffffffffffffffff1602179055508073ffffffffffffffffffffffffffffffffffffffff16600073ffffffffffffffffffffffffffffffffffffffff167f8be0079c531659141344cd1fd0a4f28419497f9722a3daafe3b4186f6b6457e060405160405180910390a35080600160006101000a81548173ffffffffffffffffffffffffffffffffffffffff021916908373ffffffffffffffffffffffffffffffffffffffff1602179055506004600160009054906101000a900473ffffffffffffffffffffffffffffffffffffffff169080600181540180825580915050600190039060005260206000200160009091909190916101000a81548173ffffffffffffffffffffffffffffffffffffffff021916908373ffffffffffffffffffffffffffffffffffffffff16021790555033600260006101000a81548173ffffffffffffffffffffffffffffffffffffffff021916908373ffffffffffffffffffffffffffffffffffffffff16021790555050610209565b600033905090565b6128fd80620002196000396000f3fe608060405234801561001057600080fd5b50600436106101005760003560e01c8063ae169a5011610097578063f10bd77211610066578063f10bd772146103dc578063f2fde38b1461043e578063f3fef3a314610482578063fd5e6dd1146104d057610100565b8063ae169a5014610293578063b83e0234146102c1578063cec534d614610319578063ea4a11041461037157610100565b8063715018a6116100d3578063715018a6146101df57806375fdf2a9146101e9578063817b1cd2146102415780638da5cb5b1461025f57610100565b8063171e44ea146101055780633a5381b51461014957806353e85fd51461017d5780635f4efaba146101ab575b600080fd5b6101476004803603602081101561011b57600080fd5b81019080803573ffffffffffffffffffffffffffffffffffffffff169060200190929190505050610528565b005b610151610656565b604051808273ffffffffffffffffffffffffffffffffffffffff16815260200191505060405180910390f35b6101a96004803603602081101561019357600080fd5b810190808035906020019092919050505061067c565b005b6101b3610b16565b604051808273ffffffffffffffffffffffffffffffffffffffff16815260200191505060405180910390f35b6101e7610b3c565b005b61023f600480360360608110156101ff57600080fd5b81019080803573ffffffffffffffffffffffffffffffffffffffff1690602001909291908035906020019092919080359060200190929190505050610cc2565b005b610249611339565b6040518082815260200191505060405180910390f35b61026761133f565b604051808273ffffffffffffffffffffffffffffffffffffffff16815260200191505060405180910390f35b6102bf600480360360208110156102a957600080fd5b8101908080359060200190929190505050611368565b005b610303600480360360208110156102d757600080fd5b81019080803573ffffffffffffffffffffffffffffffffffffffff1690602001909291905050506117da565b6040518082815260200191505060405180910390f35b61036f6004803603606081101561032f57600080fd5b8101908080359060200190929190803573ffffffffffffffffffffffffffffffffffffffff169060200190929190803590602001909291905050506117f2565b005b61039d6004803603602081101561038757600080fd5b8101908080359060200190929190505050611ad0565b6040518086815260200185815260200184815260200183151581526020018260028111156103c757fe5b81526020019550505050505060405180910390f35b610428600480360360408110156103f257600080fd5b81019080803573ffffffffffffffffffffffffffffffffffffffff16906020019092919080359060200190929190505050611b2d565b6040518082815260200191505060405180910390f35b6104806004803603602081101561045457600080fd5b81019080803573ffffffffffffffffffffffffffffffffffffffff169060200190929190505050611c89565b005b6104ce6004803603604081101561049857600080fd5b81019080803573ffffffffffffffffffffffffffffffffffffffff16906020019092919080359060200190929190505050611e94565b005b6104fc600480360360208110156104e657600080fd5b81019080803590602001909291905050506123e2565b604051808273ffffffffffffffffffffffffffffffffffffffff16815260200191505060405180910390f35b61053061241e565b73ffffffffffffffffffffffffffffffffffffffff1660008054906101000a900473ffffffffffffffffffffffffffffffffffffffff1673ffffffffffffffffffffffffffffffffffffffff16146105f0576040517f08c379a00000000000000000000000000000000000000000000000000000000081526004018080602001828103825260208152602001807f4f776e61626c653a2063616c6c6572206973206e6f7420746865206f776e657281525060200191505060405180910390fd5b6004819080600181540180825580915050600190039060005260206000200160009091909190916101000a81548173ffffffffffffffffffffffffffffffffffffffff021916908373ffffffffffffffffffffffffffffffffffffffff16021790555050565b600260009054906101000a900473ffffffffffffffffffffffffffffffffffffffff1681565b806005818154811061068a57fe5b90600052602060002090600602016000015442101580156106c95750600581815481106106b357fe5b9060005260206000209060060201600101544211155b6106d257600080fd5b600260009054906101000a900473ffffffffffffffffffffffffffffffffffffffff1673ffffffffffffffffffffffffffffffffffffffff163373ffffffffffffffffffffffffffffffffffffffff161415610796576040517f08c379a00000000000000000000000000000000000000000000000000000000081526004018080602001828103825260158152602001807f596f752061726520612076616c696461746f722021000000000000000000000081525060200191505060405180910390fd5b6002808111156107a257fe5b600583815481106107af57fe5b906000526020600020906006020160030160019054906101000a900460ff1660028111156107d957fe5b1461084c576040517f08c379a000000000000000000000000000000000000000000000000000000000815260040180806020018281038252600f8152602001807f534c41207265737065637465642021000000000000000000000000000000000081525060200191505060405180910390fd5b60006005838154811061085b57fe5b906000526020600020906006020160050160003373ffffffffffffffffffffffffffffffffffffffff1673ffffffffffffffffffffffffffffffffffffffff1681526020019081526020016000205414610900576040517f08c379a000000000000000000000000000000000000000000000000000000000815260040180806020018281038252603c81526020018061288c603c913960400191505060405180910390fd5b600061090c3384611b2d565b90506000610937600a61092960038561242690919063ffffffff16565b6124ac90919063ffffffff16565b905061094e826007546124f690919063ffffffff16565b600781905550816005858154811061096257fe5b906000526020600020906006020160050160003373ffffffffffffffffffffffffffffffffffffffff1673ffffffffffffffffffffffffffffffffffffffff16815260200190815260200160002081905550600160009054906101000a900473ffffffffffffffffffffffffffffffffffffffff1673ffffffffffffffffffffffffffffffffffffffff1663a9059cbb33846040518363ffffffff1660e01b8152600401808373ffffffffffffffffffffffffffffffffffffffff16815260200182815260200192505050602060405180830381600087803b158015610a4757600080fd5b505af1158015610a5b573d6000803e3d6000fd5b505050506040513d6020811015610a7157600080fd5b810190808051906020019092919050505050600160009054906101000a900473ffffffffffffffffffffffffffffffffffffffff1673ffffffffffffffffffffffffffffffffffffffff166342966c68826040518263ffffffff1660e01b815260040180828152602001915050600060405180830381600087803b158015610af857600080fd5b505af1158015610b0c573d6000803e3d6000fd5b5050505050505050565b600160009054906101000a900473ffffffffffffffffffffffffffffffffffffffff1681565b610b4461241e565b73ffffffffffffffffffffffffffffffffffffffff1660008054906101000a900473ffffffffffffffffffffffffffffffffffffffff1673ffffffffffffffffffffffffffffffffffffffff1614610c04576040517f08c379a00000000000000000000000000000000000000000000000000000000081526004018080602001828103825260208152602001807f4f776e61626c653a2063616c6c6572206973206e6f7420746865206f776e657281525060200191505060405180910390fd5b600073ffffffffffffffffffffffffffffffffffffffff1660008054906101000a900473ffffffffffffffffffffffffffffffffffffffff1673ffffffffffffffffffffffffffffffffffffffff167f8be0079c531659141344cd1fd0a4f28419497f9722a3daafe3b4186f6b6457e060405160405180910390a360008060006101000a81548173ffffffffffffffffffffffffffffffffffffffff021916908373ffffffffffffffffffffffffffffffffffffffff160217905550565b600260009054906101000a900473ffffffffffffffffffffffffffffffffffffffff1673ffffffffffffffffffffffffffffffffffffffff163373ffffffffffffffffffffffffffffffffffffffff161415610d86576040517f08c379a00000000000000000000000000000000000000000000000000000000081526004018080602001828103825260158152602001807f596f752061726520612076616c696461746f722021000000000000000000000081525060200191505060405180910390fd5b600060058281548110610d9557fe5b906000526020600020906006020160040160008573ffffffffffffffffffffffffffffffffffffffff1673ffffffffffffffffffffffffffffffffffffffff16815260200190815260200160002060003373ffffffffffffffffffffffffffffffffffffffff1673ffffffffffffffffffffffffffffffffffffffff1681526020019081526020016000205411610e94576040517f08c379a000000000000000000000000000000000000000000000000000000000815260040180806020018281038252601b8152602001807f7374616b696e672062616c616e63652063616e6e6f742062652030000000000081525060200191505060405180910390fd5b8273ffffffffffffffffffffffffffffffffffffffff166323b872dd3330856040518463ffffffff1660e01b8152600401808473ffffffffffffffffffffffffffffffffffffffff1681526020018373ffffffffffffffffffffffffffffffffffffffff1681526020018281526020019350505050602060405180830381600087803b158015610f2357600080fd5b505af1158015610f37573d6000803e3d6000fd5b505050506040513d6020811015610f4d57600080fd5b81019080805190602001909291905050505061100a8260058381548110610f7057fe5b906000526020600020906006020160040160008673ffffffffffffffffffffffffffffffffffffffff1673ffffffffffffffffffffffffffffffffffffffff16815260200190815260200160002060003373ffffffffffffffffffffffffffffffffffffffff1673ffffffffffffffffffffffffffffffffffffffff1681526020019081526020016000205461254090919063ffffffff16565b6005828154811061101757fe5b906000526020600020906006020160040160008573ffffffffffffffffffffffffffffffffffffffff1673ffffffffffffffffffffffffffffffffffffffff16815260200190815260200160002060003373ffffffffffffffffffffffffffffffffffffffff1673ffffffffffffffffffffffffffffffffffffffff168152602001908152602001600020819055506110bb8260075461254090919063ffffffff16565b6007819055506000600582815481106110d057fe5b906000526020600020906006020160040160008573ffffffffffffffffffffffffffffffffffffffff1673ffffffffffffffffffffffffffffffffffffffff16815260200190815260200160002060003373ffffffffffffffffffffffffffffffffffffffff1673ffffffffffffffffffffffffffffffffffffffff16815260200190815260200160002054905060006111966003805490506005858154811061117657fe5b9060005260206000209060060201600201546124ac90919063ffffffff16565b90506000600584815481106111a757fe5b906000526020600020906006020160040160008773ffffffffffffffffffffffffffffffffffffffff1673ffffffffffffffffffffffffffffffffffffffff16815260200190815260200160002060003373ffffffffffffffffffffffffffffffffffffffff1673ffffffffffffffffffffffffffffffffffffffff1681526020019081526020016000208190555061124b826007546124f690919063ffffffff16565b600781905550600160009054906101000a900473ffffffffffffffffffffffffffffffffffffffff1673ffffffffffffffffffffffffffffffffffffffff1663a9059cbb336112a384866124f690919063ffffffff16565b6040518363ffffffff1660e01b8152600401808373ffffffffffffffffffffffffffffffffffffffff16815260200182815260200192505050602060405180830381600087803b1580156112f657600080fd5b505af115801561130a573d6000803e3d6000fd5b505050506040513d602081101561132057600080fd5b8101908080519060200190929190505050505050505050565b60075481565b60008060009054906101000a900473ffffffffffffffffffffffffffffffffffffffff16905090565b806005818154811061137657fe5b90600052602060002090600602016000015442101580156113b557506005818154811061139f57fe5b9060005260206000209060060201600101544211155b6113be57600080fd5b600260009054906101000a900473ffffffffffffffffffffffffffffffffffffffff1673ffffffffffffffffffffffffffffffffffffffff163373ffffffffffffffffffffffffffffffffffffffff1614611481576040517f08c379a00000000000000000000000000000000000000000000000000000000081526004018080602001828103825260198152602001807f596f7520617265206e6f7420612076616c696461746f7220210000000000000081525060200191505060405180910390fd5b6001600281111561148e57fe5b6005838154811061149b57fe5b906000526020600020906006020160030160019054906101000a900460ff1660028111156114c557fe5b14611538576040517f08c379a00000000000000000000000000000000000000000000000000000000081526004018080602001828103825260138152602001807f534c41206e6f742072657370656374656420210000000000000000000000000081525060200191505060405180910390fd5b6005828154811061154557fe5b906000526020600020906006020160030160009054906101000a900460ff16156115ba576040517f08c379a00000000000000000000000000000000000000000000000000000000081526004018080602001828103825260368152602001806128356036913960400191505060405180910390fd5b60006115d66005805490506007546124ac90919063ffffffff16565b90506000611601600a6115f360038561242690919063ffffffff16565b6124ac90919063ffffffff16565b9050611618826007546124f690919063ffffffff16565b600781905550816005858154811061162c57fe5b90600052602060002090600602016002018190555060016005858154811061165057fe5b906000526020600020906006020160030160006101000a81548160ff021916908315150217905550600160009054906101000a900473ffffffffffffffffffffffffffffffffffffffff1673ffffffffffffffffffffffffffffffffffffffff1663a9059cbb33846040518363ffffffff1660e01b8152600401808373ffffffffffffffffffffffffffffffffffffffff16815260200182815260200192505050602060405180830381600087803b15801561170b57600080fd5b505af115801561171f573d6000803e3d6000fd5b505050506040513d602081101561173557600080fd5b810190808051906020019092919050505050600160009054906101000a900473ffffffffffffffffffffffffffffffffffffffff1673ffffffffffffffffffffffffffffffffffffffff166342966c68826040518263ffffffff1660e01b815260040180828152602001915050600060405180830381600087803b1580156117bc57600080fd5b505af11580156117d0573d6000803e3d6000fd5b5050505050505050565b60066020528060005260406000206000915090505481565b8173ffffffffffffffffffffffffffffffffffffffff166323b872dd3330866040518463ffffffff1660e01b8152600401808473ffffffffffffffffffffffffffffffffffffffff1681526020018373ffffffffffffffffffffffffffffffffffffffff1681526020018281526020019350505050602060405180830381600087803b15801561188157600080fd5b505af1158015611895573d6000803e3d6000fd5b505050506040513d60208110156118ab57600080fd5b81019080805190602001909291905050505061196883600583815481106118ce57fe5b906000526020600020906006020160040160008573ffffffffffffffffffffffffffffffffffffffff1673ffffffffffffffffffffffffffffffffffffffff16815260200190815260200160002060003373ffffffffffffffffffffffffffffffffffffffff1673ffffffffffffffffffffffffffffffffffffffff1681526020019081526020016000205461254090919063ffffffff16565b6005828154811061197557fe5b906000526020600020906006020160040160008473ffffffffffffffffffffffffffffffffffffffff1673ffffffffffffffffffffffffffffffffffffffff16815260200190815260200160002060003373ffffffffffffffffffffffffffffffffffffffff1673ffffffffffffffffffffffffffffffffffffffff16815260200190815260200160002081905550611a198360075461254090919063ffffffff16565b6007819055506001600660003373ffffffffffffffffffffffffffffffffffffffff1673ffffffffffffffffffffffffffffffffffffffff168152602001908152602001600020541415611acb576003339080600181540180825580915050600190039060005260206000200160009091909190916101000a81548173ffffffffffffffffffffffffffffffffffffffff021916908373ffffffffffffffffffffffffffffffffffffffff1602179055505b505050565b60058181548110611add57fe5b90600052602060002090600602016000915090508060000154908060010154908060020154908060030160009054906101000a900460ff16908060030160019054906101000a900460ff16905085565b600080600090506000600660008673ffffffffffffffffffffffffffffffffffffffff1673ffffffffffffffffffffffffffffffffffffffff168152602001908152602001600020541115611c7f5760005b600480549050811015611c7d57611c6e60058581548110611b9c57fe5b9060005260206000209060060201600401600060048481548110611bbc57fe5b9060005260206000200160009054906101000a900473ffffffffffffffffffffffffffffffffffffffff1673ffffffffffffffffffffffffffffffffffffffff1673ffffffffffffffffffffffffffffffffffffffff16815260200190815260200160002060008773ffffffffffffffffffffffffffffffffffffffff1673ffffffffffffffffffffffffffffffffffffffff168152602001908152602001600020548361254090919063ffffffff16565b91508080600101915050611b7f565b505b8091505092915050565b611c9161241e565b73ffffffffffffffffffffffffffffffffffffffff1660008054906101000a900473ffffffffffffffffffffffffffffffffffffffff1673ffffffffffffffffffffffffffffffffffffffff1614611d51576040517f08c379a00000000000000000000000000000000000000000000000000000000081526004018080602001828103825260208152602001807f4f776e61626c653a2063616c6c6572206973206e6f7420746865206f776e657281525060200191505060405180910390fd5b600073ffffffffffffffffffffffffffffffffffffffff168173ffffffffffffffffffffffffffffffffffffffff161415611dd7576040517f08c379a000000000000000000000000000000000000000000000000000000000815260040180806020018281038252602681526020018061280f6026913960400191505060405180910390fd5b8073ffffffffffffffffffffffffffffffffffffffff1660008054906101000a900473ffffffffffffffffffffffffffffffffffffffff1673ffffffffffffffffffffffffffffffffffffffff167f8be0079c531659141344cd1fd0a4f28419497f9722a3daafe3b4186f6b6457e060405160405180910390a3806000806101000a81548173ffffffffffffffffffffffffffffffffffffffff021916908373ffffffffffffffffffffffffffffffffffffffff16021790555050565b600260009054906101000a900473ffffffffffffffffffffffffffffffffffffffff1673ffffffffffffffffffffffffffffffffffffffff163373ffffffffffffffffffffffffffffffffffffffff161415611f58576040517f08c379a00000000000000000000000000000000000000000000000000000000081526004018080602001828103825260158152602001807f596f752061726520612076616c696461746f722021000000000000000000000081525060200191505060405180910390fd5b600060058281548110611f6757fe5b906000526020600020906006020160040160008473ffffffffffffffffffffffffffffffffffffffff1673ffffffffffffffffffffffffffffffffffffffff16815260200190815260200160002060003373ffffffffffffffffffffffffffffffffffffffff1673ffffffffffffffffffffffffffffffffffffffff1681526020019081526020016000205411612066576040517f08c379a000000000000000000000000000000000000000000000000000000000815260040180806020018281038252601b8152602001807f7374616b696e672062616c616e63652063616e6e6f742062652030000000000081525060200191505060405180910390fd5b60006005828154811061207557fe5b906000526020600020906006020160040160008473ffffffffffffffffffffffffffffffffffffffff1673ffffffffffffffffffffffffffffffffffffffff16815260200190815260200160002060003373ffffffffffffffffffffffffffffffffffffffff1673ffffffffffffffffffffffffffffffffffffffff168152602001908152602001600020549050600061213b6003805490506005858154811061211b57fe5b9060005260206000209060060201600201546124ac90919063ffffffff16565b905060006005848154811061214c57fe5b906000526020600020906006020160040160008673ffffffffffffffffffffffffffffffffffffffff1673ffffffffffffffffffffffffffffffffffffffff16815260200190815260200160002060003373ffffffffffffffffffffffffffffffffffffffff1673ffffffffffffffffffffffffffffffffffffffff168152602001908152602001600020819055506121f0826007546124f690919063ffffffff16565b6007819055508373ffffffffffffffffffffffffffffffffffffffff1663a9059cbb3361222684866124f690919063ffffffff16565b6040518363ffffffff1660e01b8152600401808373ffffffffffffffffffffffffffffffffffffffff16815260200182815260200192505050602060405180830381600087803b15801561227957600080fd5b505af115801561228d573d6000803e3d6000fd5b505050506040513d60208110156122a357600080fd5b8101908080519060200190929190505050506123086001600660003373ffffffffffffffffffffffffffffffffffffffff1673ffffffffffffffffffffffffffffffffffffffff168152602001908152602001600020546124f690919063ffffffff16565b600660003373ffffffffffffffffffffffffffffffffffffffff1673ffffffffffffffffffffffffffffffffffffffff168152602001908152602001600020819055506000600660003373ffffffffffffffffffffffffffffffffffffffff1673ffffffffffffffffffffffffffffffffffffffff1681526020019081526020016000205414156123dc57600061239e336125c8565b9050600381815481106123ad57fe5b9060005260206000200160006101000a81549073ffffffffffffffffffffffffffffffffffffffff0219169055505b50505050565b600381815481106123ef57fe5b906000526020600020016000915054906101000a900473ffffffffffffffffffffffffffffffffffffffff1681565b600033905090565b60008083141561243957600090506124a6565b600082840290508284828161244a57fe5b04146124a1576040517f08c379a000000000000000000000000000000000000000000000000000000000815260040180806020018281038252602181526020018061286b6021913960400191505060405180910390fd5b809150505b92915050565b60006124ee83836040518060400160405280601a81526020017f536166654d6174683a206469766973696f6e206279207a65726f000000000000815250612688565b905092915050565b600061253883836040518060400160405280601e81526020017f536166654d6174683a207375627472616374696f6e206f766572666c6f77000081525061274e565b905092915050565b6000808284019050838110156125be576040517f08c379a000000000000000000000000000000000000000000000000000000000815260040180806020018281038252601b8152602001807f536166654d6174683a206164646974696f6e206f766572666c6f77000000000081525060200191505060405180910390fd5b8091505092915050565b600080600090505b60038054905081101561265e578273ffffffffffffffffffffffffffffffffffffffff166003828154811061260157fe5b9060005260206000200160009054906101000a900473ffffffffffffffffffffffffffffffffffffffff1673ffffffffffffffffffffffffffffffffffffffff1614156126515780915050612683565b80806001019150506125d0565b507fffffffffffffffffffffffffffffffffffffffffffffffffffffffffffffffff90505b919050565b60008083118290612734576040517f08c379a00000000000000000000000000000000000000000000000000000000081526004018080602001828103825283818151815260200191508051906020019080838360005b838110156126f95780820151818401526020810190506126de565b50505050905090810190601f1680156127265780820380516001836020036101000a031916815260200191505b509250505060405180910390fd5b50600083858161274057fe5b049050809150509392505050565b60008383111582906127fb576040517f08c379a00000000000000000000000000000000000000000000000000000000081526004018080602001828103825283818151815260200191508051906020019080838360005b838110156127c05780820151818401526020810190506127a5565b50505050905090810190601f1680156127ed5780820380516001836020036101000a031916815260200191505b509250505060405180910390fd5b506000838503905080915050939250505056fe4f776e61626c653a206e6577206f776e657220697320746865207a65726f2061646472657373596f75206861766520616c726561647920636c61696d656420796f75722072657761726420666f72207468697320706572696f642021536166654d6174683a206d756c7469706c69636174696f6e206f766572666c6f77596f75206861766520616c726561647920636c61696d656420796f757220636f6d70656e736174696f6e20666f72207468697320706572696f642021a2646970667358221220282474362286b6d2dee3b1d1ad2fa1fb12211dd6b0d62796fba104457edefd6964736f6c634300060c0033",
  "immutableReferences": {},
  "source": "// SPDX-License-Identifier: MIT\npragma solidity ^0.6.0;\n\nimport \"../bDSLA/bDSLAToken.sol\";\nimport \"@openzeppelin/contracts/token/ERC20/IERC20.sol\";\nimport \"@openzeppelin/contracts/access/Ownable.sol\";\nimport \"@openzeppelin/contracts/math/SafeMath.sol\";\n\ncontract Staking is Ownable {\n    using SafeMath for uint256;\n    \n    enum Status { NotVerified, Respected, NotRespected }\n    \n    struct Period {\n      uint sla_period_start;\n      uint sla_period_end;\n      uint claimed_reward;\n      bool claimed;\n      Status status;\n      mapping(address => mapping(address => uint)) stakingBalance;   // staking balance for all tokens (address token => (address user => amount))\n      mapping(address => uint256) claimed_compensation;\n    }\n\n    bDSLAToken public bDSLA;\n    address public validator;\n    address[] public stakers; // list of all stakers (validators, vouchers, delegators ...)\n    address[] allowedTokens; // mapping for all allowed tokens to be staked\n    Period[] public periods; // all periods for an SLA \n    mapping(address => uint) public uniqueTokensStaked; // mapping to trace how many token is staked by an user\n    uint public totalStaked; \n\n    modifier notValidator {\n        require(msg.sender != validator, \"You are a validator !\");\n        _;\n    }\n    \n    modifier onlyValidator {\n        require(msg.sender == validator, \"You are not a validator !\");\n        _;\n    }\n    \n    modifier onlyInPeriod(uint _period) {\n        require(block.timestamp >= periods[_period].sla_period_start &&\n        block.timestamp <= periods[_period].sla_period_end);\n        _;\n    }\n    \n    constructor(bDSLAToken _tokenAddress) public {\n        bDSLA = bDSLAToken(_tokenAddress);\n        allowedTokens.push(address(bDSLA));\n        validator = msg.sender;\n    }\n\n    // autorise a new token to be staked\n    function addAllowedTokens(address _token) public onlyOwner {\n        allowedTokens.push(_token);\n    }\n\n    // stake an amount of token\n    function stakeTokens(uint256 _amount, address _token, uint _period) public {\n        // stake tokens\n        IERC20(_token).transferFrom(msg.sender, address(this), _amount);\n\n        // update balance of staked tokens per staker\n        periods[_period].stakingBalance[_token][msg.sender] = periods[_period].stakingBalance[_token][msg.sender].add(_amount);\n        totalStaked = totalStaked.add(_amount);\n\n        // if the token is the unique one staked by the staker\n        // add the staker to the list\n        if (uniqueTokensStaked[msg.sender] == 1) {\n            stakers.push(msg.sender);\n        }\n    }\n\n    // Unstaking Tokens\n    function withdraw(address _token, uint _period) public notValidator {\n        // check if staker has staked tokens\n        require(periods[_period].stakingBalance[_token][msg.sender] > 0, \"staking balance cannot be 0\");\n\n        // unstake bDSLA tokens\n        uint staked = periods[_period].stakingBalance[_token][msg.sender];\n        uint claimed_reward = periods[_period].claimed_reward.div(stakers.length);\n        \n        periods[_period].stakingBalance[_token][msg.sender] = 0;\n        totalStaked = totalStaked.sub(staked);\n        IERC20(_token).transfer(msg.sender, staked.sub(claimed_reward));\n\n        // update uniqueTokensStaked for the staker\n        uniqueTokensStaked[msg.sender] = uniqueTokensStaked[msg.sender].sub(1);\n        \n        if(uniqueTokensStaked[msg.sender] == 0) {\n            uint index = _getIndex(msg.sender);\n            delete stakers[index];\n        }\n    }\n\n    // withdraw bDSLA and stake d Tokens\n    function withdrawAndStake(address _token, uint _amount, uint _period) public notValidator {\n      // check if staker has staked tokens\n      require(periods[_period].stakingBalance[_token][msg.sender] > 0, \"staking balance cannot be 0\");\n\n      // stake d tokens\n      IERC20(_token).transferFrom(msg.sender, address(this), _amount);\n      // update balance of staked tokens per staker\n      periods[_period].stakingBalance[_token][msg.sender] = periods[_period].stakingBalance[_token][msg.sender].add(_amount);\n      totalStaked = totalStaked.add(_amount);\n\n      // unstake bDSLA tokens\n      uint staked = periods[_period].stakingBalance[_token][msg.sender];\n      uint claimed_reward = periods[_period].claimed_reward.div(stakers.length);\n\n      periods[_period].stakingBalance[_token][msg.sender] = 0;\n      totalStaked = totalStaked.sub(staked);\n      bDSLA.transfer(msg.sender, staked.sub(claimed_reward));\n    }\n    \n    // claim from validators\n    function claimReward(uint _period) public onlyInPeriod(_period) onlyValidator {\n        require(periods[_period].status == Status.Respected, \"SLA not respected !\");\n        require(!periods[_period].claimed, \"You have already claimed your reward for this period !\");\n            \n        uint reward = totalStaked.div(periods.length);\n        uint fees = reward.mul(3).div(10);\n        \n        totalStaked = totalStaked.sub(reward);\n        periods[_period].claimed_reward = reward;\n        periods[_period].claimed = true;\n\n        bDSLA.transfer(msg.sender, reward);\n        bDSLA.burn(fees);\n    }\n    \n    // claim from delegators\n    function claimCompensation(uint _period) public onlyInPeriod(_period) notValidator {\n        require(periods[_period].status == Status.NotRespected, \"SLA respected !\");\n        require(periods[_period].claimed_compensation[msg.sender] == 0, \"You have already claimed your compensation for this period !\");\n           \n        uint compensation = getUserTotalValue(msg.sender, _period);\n        uint fees = compensation.mul(3).div(10);\n        \n        totalStaked = totalStaked.sub(compensation);\n        periods[_period].claimed_compensation[msg.sender] = compensation;\n\n        bDSLA.transfer(msg.sender, compensation);\n        bDSLA.burn(fees);\n    }\n    \n    function getUserTotalValue(address _user, uint _period) public view returns (uint256) {\n        uint256 totalValue = 0;\n        if (uniqueTokensStaked[_user] > 0) {\n            for (\n                uint256 allowedTokensIndex = 0;\n                allowedTokensIndex < allowedTokens.length;\n                allowedTokensIndex++\n            ) {\n                totalValue = totalValue.add(periods[_period].stakingBalance[allowedTokens[allowedTokensIndex]][_user]);\n            }\n        }\n        return totalValue;\n    }\n    \n    function _tokenIsAllowed(address token) internal view returns (bool){\n        for (\n            uint256 allowedTokensIndex = 0;\n            allowedTokensIndex < allowedTokens.length;\n            allowedTokensIndex++\n        ) {\n            if (allowedTokens[allowedTokensIndex] == token) {\n                return true;\n            }\n        }\n        return false;\n    }\n    \n    function _updateUniqueTokensStaked(address _user, address _token, uint _period) internal {\n        if (periods[_period].stakingBalance[_token][_user] <= 0) {\n            uniqueTokensStaked[_user] = uniqueTokensStaked[_user].add(1);\n        }\n    }\n    \n    function _getIndex(address _user) internal view returns (uint){\n        for(uint i = 0; i < stakers.length; i++){\n            if(stakers[i] == _user){\n                return i;\n            }\n        }\n        return (uint(-1));\n    }\n}",
  "sourcePath": "/Users/wilhempujar/Development/stacktical-dsla-contracts/contracts/SLA/Staking.sol",
  "compiler": {
    "name": "solc",
    "version": "0.6.12+commit.27d51765.Emscripten.clang"
  },
  "schemaVersion": "3.2.5",
  "updatedAt": "2020-10-15T22:27:47.546Z",
  "devdoc": {
    "kind": "dev",
    "methods": {
      "owner()": {
        "details": "Returns the address of the current owner."
      },
      "renounceOwnership()": {
        "details": "Leaves the contract without owner. It will not be possible to call `onlyOwner` functions anymore. Can only be called by the current owner. NOTE: Renouncing ownership will leave the contract without an owner, thereby removing any functionality that is only available to the owner."
      },
      "transferOwnership(address)": {
        "details": "Transfers ownership of the contract to a new account (`newOwner`). Can only be called by the current owner."
      }
    },
    "version": 1
  },
  "userdoc": {
    "kind": "user",
    "methods": {},
    "version": 1
  }
}