{
  "contractName": "StakingEfficiency",
  "abi": [
    {
      "inputs": [
        {
          "internalType": "address",
          "name": "_chainlinkOracle",
          "type": "address"
        },
        {
          "internalType": "address",
          "name": "_chainlinkToken",
          "type": "address"
        },
        {
          "internalType": "bytes32",
          "name": "_jobId",
          "type": "bytes32"
        }
      ],
      "stateMutability": "nonpayable",
      "type": "constructor"
    },
    {
      "anonymous": false,
      "inputs": [
        {
          "indexed": true,
          "internalType": "bytes32",
          "name": "id",
          "type": "bytes32"
        }
      ],
      "name": "ChainlinkCancelled",
      "type": "event"
    },
    {
      "anonymous": false,
      "inputs": [
        {
          "indexed": true,
          "internalType": "bytes32",
          "name": "id",
          "type": "bytes32"
        }
      ],
      "name": "ChainlinkFulfilled",
      "type": "event"
    },
    {
      "anonymous": false,
      "inputs": [
        {
          "indexed": true,
          "internalType": "bytes32",
          "name": "id",
          "type": "bytes32"
        }
      ],
      "name": "ChainlinkRequested",
      "type": "event"
    },
    {
      "anonymous": false,
      "inputs": [
        {
          "indexed": true,
          "internalType": "address",
          "name": "slaAddress",
          "type": "address"
        },
        {
          "indexed": false,
          "internalType": "uint256",
          "name": "periodId",
          "type": "uint256"
        },
        {
          "indexed": true,
          "internalType": "bytes32",
          "name": "requestId",
          "type": "bytes32"
        },
        {
          "indexed": false,
          "internalType": "bytes32",
          "name": "chainlinkResponse",
          "type": "bytes32"
        }
      ],
      "name": "SLIReceived",
      "type": "event"
    },
    {
      "inputs": [],
      "name": "fee",
      "outputs": [
        {
          "internalType": "uint256",
          "name": "",
          "type": "uint256"
        }
      ],
      "stateMutability": "view",
      "type": "function"
    },
    {
      "inputs": [],
      "name": "jobId",
      "outputs": [
        {
          "internalType": "bytes32",
          "name": "",
          "type": "bytes32"
        }
      ],
      "stateMutability": "view",
      "type": "function"
    },
    {
      "inputs": [],
      "name": "oracle",
      "outputs": [
        {
          "internalType": "address",
          "name": "",
          "type": "address"
        }
      ],
      "stateMutability": "view",
      "type": "function"
    },
    {
      "inputs": [
        {
          "internalType": "bytes32",
          "name": "",
          "type": "bytes32"
        }
      ],
      "name": "requestIdToSLIRequest",
      "outputs": [
        {
          "internalType": "address",
          "name": "slaAddress",
          "type": "address"
        },
        {
          "internalType": "uint256",
          "name": "periodId",
          "type": "uint256"
        }
      ],
      "stateMutability": "view",
      "type": "function"
    },
    {
      "inputs": [
        {
          "internalType": "uint256",
          "name": "",
          "type": "uint256"
        }
      ],
      "name": "requests",
      "outputs": [
        {
          "internalType": "bytes32",
          "name": "",
          "type": "bytes32"
        }
      ],
      "stateMutability": "view",
      "type": "function"
    },
    {
      "inputs": [],
      "name": "slaRegistry",
      "outputs": [
        {
          "internalType": "contract SLARegistry",
          "name": "",
          "type": "address"
        }
      ],
      "stateMutability": "view",
      "type": "function"
    },
    {
      "inputs": [],
      "name": "setSLARegistry",
      "outputs": [],
      "stateMutability": "nonpayable",
      "type": "function"
    },
    {
      "inputs": [
        {
          "internalType": "uint256",
          "name": "_periodId",
          "type": "uint256"
        },
        {
          "internalType": "address",
          "name": "_slaAddress",
          "type": "address"
        }
      ],
      "name": "requestSLI",
      "outputs": [],
      "stateMutability": "nonpayable",
      "type": "function"
    },
    {
      "inputs": [
        {
          "internalType": "bytes32",
          "name": "_requestId",
          "type": "bytes32"
        },
        {
          "internalType": "bytes32",
          "name": "_chainlinkResponse",
          "type": "bytes32"
        }
      ],
      "name": "fulfillSLI",
      "outputs": [],
      "stateMutability": "nonpayable",
      "type": "function"
    },
    {
      "inputs": [
        {
          "internalType": "bytes32",
          "name": "sliData",
          "type": "bytes32"
        }
      ],
      "name": "parseSLIData",
      "outputs": [
        {
          "internalType": "uint256",
          "name": "",
          "type": "uint256"
        },
        {
          "internalType": "uint256",
          "name": "",
          "type": "uint256"
        }
      ],
      "stateMutability": "pure",
      "type": "function"
    }
  ],
  "bytecode": "0x6080604052600160045567016345785d8a0000600b553480156200002257600080fd5b50604051620016ad380380620016ad83398101604081905262000045916200009f565b600a81905562000055826200007d565b5050600980546001600160a01b0319166001600160a01b0392909216919091179055620000ff565b600280546001600160a01b0319166001600160a01b0392909216919091179055565b600080600060608486031215620000b4578283fd5b8351620000c181620000e6565b6020850151909350620000d481620000e6565b80925050604084015190509250925092565b6001600160a01b0381168114620000fc57600080fd5b50565b61159e806200010f6000396000f3fe608060405234801561001057600080fd5b506004361061009e5760003560e01c8063c2939d9711610066578063c2939d9714610138578063d199440814610140578063db69a46214610153578063ddca3f431461015b578063f3881589146101635761009e565b806304e4fc01146100a35780637dc0d1d0146100cd57806381d12c58146100e2578063ad021f4914610102578063ae401eb914610117575b600080fd5b6100b66100b13660046111d6565b61016b565b6040516100c492919061155a565b60405180910390f35b6100d561031f565b6040516100c491906112b6565b6100f56100f03660046111d6565b61032e565b6040516100c49190611372565b6101156101103660046111ee565b61034c565b005b61012a6101253660046111d6565b6104f2565b6040516100c49291906112ca565b6100f5610517565b61011561014e36600461120f565b61051d565b6100d5610731565b6100f5610740565b610115610746565b600080606061017984610783565b805190915060608167ffffffffffffffff8111801561019757600080fd5b506040519080825280601f01601f1916602001820160405280156101c2576020820181803683370190505b50905060608267ffffffffffffffff811180156101de57600080fd5b506040519080825280601f01601f191660200182016040528015610209576020820181803683370190505b50905060005b838110156102f657600b60fa1b6001600160f81b03191685828151811061023257fe5b01602001516001600160f81b03191614156102ee5760005b818110156102945785818151811061025e57fe5b602001015160f81c60f81b84828151811061027557fe5b60200101906001600160f81b031916908160001a90535060010161024a565b5060005b6001828603038110156102ec5785818360010101815181106102b657fe5b602001015160f81c60f81b8382815181106102cd57fe5b60200101906001600160f81b031916908160001a905350600101610298565b505b60010161020f565b50600061030283610892565b9050600061030f83610892565b9197509095505050505050915091565b6009546001600160a01b031681565b6007818154811061033b57fe5b600091825260209091200154905081565b60008281526005602052604090205482906001600160a01b0316331461038d5760405162461bcd60e51b8152600401610384906114b5565b60405180910390fd5b60008181526005602052604080822080546001600160a01b03191690555182917f7cc135e0cebb02c3480ae5d74d377283180a2601f8f644edf7987b009316c63a91a26103d8611150565b506000838152600660209081526040918290208251808401845281546001600160a01b0316808252600190920154928101839052925186927f56514ef6e1ffd0f970ebf32dc181e476384e6e53a8351719040b4030318a933b9161043e9190889061155a565b60405180910390a36000806104528561016b565b909250905060006104638383610912565b9050600061047e8261047886620186a0610940565b9061097a565b85516020870151604051636bd2e21160e11b81529293506001600160a01b039091169163d7a5c422916104b69185919060040161155a565b600060405180830381600087803b1580156104d057600080fd5b505af11580156104e4573d6000803e3d6000fd5b505050505050505050505050565b600660205260009081526040902080546001909101546001600160a01b039091169082565b600a5481565b6008546001600160a01b031633148061054e57506105396109af565b6001600160a01b0316336001600160a01b0316145b61056a5760405162461bcd60e51b8152600401610384906114fd565b610572611167565b600a54610587903063ad021f4960e01b6109be565b90506105e8604051806040016040528060088152602001676a6f625f7479706560c01b815250604051806040016040528060128152602001717374616b696e675f656666696369656e637960701b815250836109e39092919063ffffffff16565b61061e604051806040016040528060098152602001681c195c9a5bd917da5960ba1b81525061061685610a06565b8391906109e3565b61064e6040518060400160405280600b81526020016a736c615f6164647265737360a81b81525061061684610ae1565b604080518082019091526014815273736c615f72656769737472795f6164647265737360601b60208201526008546106939190610616906001600160a01b0316610ae1565b600954600b546000916106b3916001600160a01b03909116908490610c5d565b6007805460018082019092557fa66cc928b5edb82af9bd49922954155ab7b0942694bea4ce44661d9a8736c688018290556040805180820182526001600160a01b03968716815260208082019889526000948552600690529220915182546001600160a01b0319169516949094178155935193909201929092555050565b6008546001600160a01b031681565b600b5481565b6008546001600160a01b03161561076f5760405162461bcd60e51b81526004016103849061142c565b600880546001600160a01b03191633179055565b606060005b60208160ff161080156107b65750828160ff16602081106107a557fe5b1a60f81b6001600160f81b03191615155b156107c357600101610788565b60608160ff1667ffffffffffffffff811180156107df57600080fd5b506040519080825280601f01601f19166020018201604052801561080a576020820181803683370190505b509050600091505b60208260ff161080156108405750838260ff166020811061082f57fe5b1a60f81b6001600160f81b03191615155b1561088957838260ff166020811061085457fe5b1a60f81b818360ff168151811061086757fe5b60200101906001600160f81b031916908160001a905350600190910190610812565b9150505b919050565b6000805b825181101561090c5760308382815181106108ad57fe5b016020015160f81c108015906108d7575060398382815181106108cc57fe5b016020015160f81c11155b156109045760308382815181106108ea57fe5b602001015160f81c60f81b60f81c0360ff1682600a020191505b600101610896565b50919050565b6000828201838110156109375760405162461bcd60e51b81526004016103849061137b565b90505b92915050565b60008261094f5750600061093a565b8282028284828161095c57fe5b04146109375760405162461bcd60e51b815260040161038490611474565b600080821161099b5760405162461bcd60e51b8152600401610384906113f5565b60008284816109a657fe5b04949350505050565b6003546001600160a01b031690565b6109c6611167565b6109ce611167565b6109da81868686610d9c565b95945050505050565b60808301516109f29083610dd9565b6080830151610a019082610dd9565b505050565b60608180610a2d5750506040805180820190915260018152600360fc1b602082015261088d565b8060005b8115610a4557600101600a82049150610a31565b60608167ffffffffffffffff81118015610a5e57600080fd5b506040519080825280601f01601f191660200182016040528015610a89576020820181803683370190505b50905060001982015b8415610ad757600a850660300160f81b82828060019003935081518110610ab557fe5b60200101906001600160f81b031916908160001a905350600a85049450610a92565b5095945050505050565b604080518082018252601081526f181899199a1a9b1b9c1cb0b131b232b360811b60208201528151602a80825260608281019094526001600160a01b03851692918491602082018180368337019050509050600360fc1b81600081518110610b4557fe5b60200101906001600160f81b031916908160001a905350600f60fb1b81600181518110610b6e57fe5b60200101906001600160f81b031916908160001a90535060005b6014811015610c54578260048583600c0160208110610ba357fe5b1a60f81b6001600160f81b031916901c60f81c60ff1681518110610bc357fe5b602001015160f81c60f81b828260020260020181518110610be057fe5b60200101906001600160f81b031916908160001a905350828482600c0160208110610c0757fe5b825191901a600f16908110610c1857fe5b602001015160f81c60f81b828260020260030181518110610c3557fe5b60200101906001600160f81b031916908160001a905350600101610b88565b50949350505050565b600030600454604051602001610c74929190611294565b60408051808303601f19018152918152815160209283012060045460608701526000818152600590935281832080546001600160a01b0319166001600160a01b038916179055905190925082917fb5e6e01e79f91267dc17b4e6314d5d4d03593d2ceee0fbb452b750bd70ea5af991a26002546001600160a01b0316634000aea08584610d0087610df0565b6040518463ffffffff1660e01b8152600401610d1e9392919061134b565b602060405180830381600087803b158015610d3857600080fd5b505af1158015610d4c573d6000803e3d6000fd5b505050506040513d601f19601f82011682018060405250810190610d7091906111b6565b610d8c5760405162461bcd60e51b8152600401610384906113b2565b6004805460010190559392505050565b610da4611167565b610db48560800151610100610e6c565b50509183526001600160a01b031660208301526001600160e01b031916604082015290565b610de68260038351610ea6565b610a018282610f80565b6060634042994660e01b60008084600001518560200151866040015187606001516001896080015160000151604051602401610e339897969594939291906112e3565b60408051601f198184030181529190526020810180516001600160e01b03166001600160e01b0319909316929092179091529050919050565b610e7461119c565b6020820615610e895760208206602003820191505b506020828101829052604080518085526000815290920101905290565b60178111610ec757610ec18360e0600585901b168317610f9a565b50610a01565b60ff8111610ef157610ee4836018611fe0600586901b1617610f9a565b50610ec183826001610fb2565b61ffff8111610f1c57610f0f836019611fe0600586901b1617610f9a565b50610ec183826002610fb2565b63ffffffff8111610f4957610f3c83601a611fe0600586901b1617610f9a565b50610ec183826004610fb2565b67ffffffffffffffff8111610a0157610f6d83601b611fe0600586901b1617610f9a565b50610f7a83826008610fb2565b50505050565b610f8861119c565b61093783846000015151848551610fd3565b610fa261119c565b610937838460000151518461107f565b610fba61119c565b610fcb8485600001515185856110ca565b949350505050565b610fdb61119c565b8251821115610fe957600080fd5b84602001518285011115611013576110138561100b8760200151878601611128565b600202611139565b6000808651805187602083010193508088870111156110325787860182525b505050602084015b602084106110595780518252601f19909301926020918201910161103a565b51815160001960208690036101000a019081169019919091161790525083949350505050565b61108761119c565b836020015183106110a3576110a3848560200151600202611139565b8351805160208583010184815350808514156110c0576001810182525b5093949350505050565b6110d261119c565b846020015184830111156110ef576110ef85858401600202611139565b60006001836101000a03905085518386820101858319825116178152508051848701111561111d5783860181525b509495945050505050565b60008183111561090c57508161093a565b81516111458383610e6c565b50610f7a8382610f80565b604080518082019091526000808252602082015290565b6040805160a08101825260008082526020820181905291810182905260608101919091526080810161119761119c565b905290565b604051806040016040528060608152602001600081525090565b6000602082840312156111c7578081fd5b81518015158114610937578182fd5b6000602082840312156111e7578081fd5b5035919050565b60008060408385031215611200578081fd5b50508035926020909101359150565b60008060408385031215611221578182fd5b8235915060208301356001600160a01b038116811461123e578182fd5b809150509250929050565b60008151808452815b8181101561126e57602081850181015186830182015201611252565b8181111561127f5782602083870101525b50601f01601f19169290920160200192915050565b60609290921b6bffffffffffffffffffffffff19168252601482015260340190565b6001600160a01b0391909116815260200190565b6001600160a01b03929092168252602082015260400190565b6001600160a01b0389811682526020820189905260408201889052861660608201526001600160e01b03198516608082015260a0810184905260c0810183905261010060e0820181905260009061133c83820185611249565b9b9a5050505050505050505050565b600060018060a01b0385168252836020830152606060408301526109da6060830184611249565b90815260200190565b6020808252601b908201527f536166654d6174683a206164646974696f6e206f766572666c6f770000000000604082015260600190565b60208082526023908201527f756e61626c6520746f207472616e73666572416e6443616c6c20746f206f7261604082015262636c6560e81b606082015260800190565b6020808252601a908201527f536166654d6174683a206469766973696f6e206279207a65726f000000000000604082015260600190565b60208082526028908201527f534c41526567697374727920616464726573732068617320616c7265616479206040820152671899595b881cd95d60c21b606082015260800190565b60208082526021908201527f536166654d6174683a206d756c7469706c69636174696f6e206f766572666c6f6040820152607760f81b606082015260800190565b60208082526028908201527f536f75726365206d75737420626520746865206f7261636c65206f6620746865604082015267081c995c5d595cdd60c21b606082015260800190565b6020808252603f908201527f43616e206f6e6c792062652063616c6c656420627920636f6e6e65637465642060408201527f534c415265676973747279206f7220436861696e6c696e6b204f7261636c6500606082015260800190565b91825260208201526040019056fea264697066735822122034cda7c4da9fcaaaa8da5f993d0691b6d673e37b94aeb7bd360e033af4ad1c3464736f6c634300060c0033",
  "immutableReferences": {},
  "source": "pragma solidity ^0.6.0;\npragma experimental ABIEncoderV2;\n\nimport \"../SLA.sol\";\nimport \"../StringUtils.sol\";\nimport \"../SLARegistry.sol\";\nimport \"@chainlink/contracts/src/v0.6/ChainlinkClient.sol\";\nimport \"./IMessenger.sol\";\n\n/**\n * @title SEMessenger\n * @dev Staking efficiency Messenger\n */\n\ncontract StakingEfficiency is ChainlinkClient, IMessenger, StringUtils {\n    /// @dev Mapping that stores chainlink sli request information\n    mapping(bytes32 => SLIRequest) public requestIdToSLIRequest;\n    /// @dev Array with all request IDs\n    bytes32[] public requests;\n    /// @dev The address of the SLARegistry contract\n    SLARegistry public slaRegistry;\n    /// @dev Chainlink oracle address\n    address public oracle;\n    /// @dev chainlink jobId\n    bytes32 public jobId;\n    /// @dev fee for Chainlink querys. Currently 0.1 LINK\n    uint256 public fee = 0.1 * 10**18;\n\n    /**\n     * @dev parameterize the variables according to network\n     * @notice sets the Chainlink parameters (oracle address, token address, jobId) and sets the SLARegistry to 0x0 address\n     * @param _chainlinkOracle the address of the oracle to create requests to\n     * @param _chainlinkToken the address of LINK token contract\n     * @param _jobId the job id for the HTTPGet job\n     */\n    constructor(\n        address _chainlinkOracle,\n        address _chainlinkToken,\n        bytes32 _jobId\n    ) public {\n        jobId = _jobId;\n        setChainlinkToken(_chainlinkToken);\n        oracle = _chainlinkOracle;\n    }\n\n    /// @dev Throws if called by any address other than the SLARegistry contract or Chainlink Oracle.\n    modifier onlyAllowedAddresses() {\n        require(\n            msg.sender == address(slaRegistry) ||\n                msg.sender == chainlinkOracleAddress(),\n            \"Can only be called by connected SLARegistry or Chainlink Oracle\"\n        );\n        _;\n    }\n\n    /**\n     * @dev sets the SLARegistry contract address and can only be called\n     * once\n     */\n    function setSLARegistry() public override {\n        // Only able to trigger this function once\n        require(\n            address(slaRegistry) == address(0),\n            \"SLARegistry address has already been set\"\n        );\n\n        slaRegistry = SLARegistry(msg.sender);\n    }\n\n    /**\n     * @dev creates a ChainLink request to get a new SLI value for the\n     * given params. Can only be called by the SLARegistry contract or Chainlink Oracle.\n     * @param _periodId value of the period id\n     * @param _slaAddress SLA Address\n     */\n\n    function requestSLI(uint256 _periodId, address _slaAddress)\n        public\n        override\n        onlyAllowedAddresses\n    {\n        Chainlink.Request memory request =\n            buildChainlinkRequest(\n                jobId,\n                address(this),\n                this.fulfillSLI.selector\n            );\n        request.add(\"job_type\", \"staking_efficiency\");\n        request.add(\"period_id\", _uintToStr(_periodId));\n        request.add(\"sla_address\", _addressToString(_slaAddress));\n        request.add(\n            \"sla_registry_address\",\n            _addressToString(address(slaRegistry))\n        );\n\n        // Sends the request with 0.1 LINK to the oracle contract\n        bytes32 requestId = sendChainlinkRequestTo(oracle, request, fee);\n\n        requests.push(requestId);\n\n        requestIdToSLIRequest[requestId] = SLIRequest({\n            slaAddress: _slaAddress,\n            periodId: _periodId\n        });\n    }\n\n    /**\n     * @dev callback function for the Chainlink SLI request which stores\n     * the SLI in the SLA contract\n     * @param _requestId the ID of the ChainLink request\n     * @param _chainlinkResponse response object from Chainlink Oracles\n     */\n    function fulfillSLI(bytes32 _requestId, bytes32 _chainlinkResponse)\n        public\n        override\n        recordChainlinkFulfillment(_requestId)\n    {\n        SLIRequest memory request = requestIdToSLIRequest[_requestId];\n        emit SLIReceived(\n            request.slaAddress,\n            request.periodId,\n            _requestId,\n            _chainlinkResponse\n        );\n        (uint256 hits, uint256 misses) = parseSLIData(_chainlinkResponse);\n        uint256 total = hits.add(misses);\n        uint256 stakingEfficiency = hits.mul(100 * 1000).div(total);\n        SLA(request.slaAddress).registerSLI(stakingEfficiency, request.periodId);\n    }\n\n    /**\n     * @dev recieves a string of \"hits,misses\" data and returns hits and misses as uint256\n     * @param sliData the ID of the ChainLink request\n     */\n    function parseSLIData(bytes32 sliData)\n        public\n        pure\n        returns (uint256, uint256)\n    {\n        bytes memory bytesSLIData = bytes(_bytes32ToStr(sliData));\n        uint256 sliDataLength = bytesSLIData.length;\n        bytes memory bytesHits = new bytes(sliDataLength);\n        bytes memory bytesMisses = new bytes(sliDataLength);\n        for (uint256 index; index < sliDataLength; index++) {\n            if (bytesSLIData[index] == bytes1(\",\")) {\n                for (uint256 index2 = 0; index2 < index; index2++) {\n                    bytesHits[index2] = bytesSLIData[index2];\n                }\n                for (\n                    uint256 index3 = 0;\n                    index3 < sliDataLength - index - 1;\n                    index3++\n                ) {\n                    bytesMisses[index3] = bytesSLIData[index + 1 + index3];\n                }\n            }\n        }\n        uint256 hits = _bytesToUint(bytesHits);\n        uint256 misses = _bytesToUint(bytesMisses);\n        return (hits, misses);\n    }\n}\n",
  "sourcePath": "/Users/matiasbn/Desktop/stacktical/stacktical-dsla-contracts/contracts/messenger/StakingEfficiency.sol",
  "compiler": {
    "name": "solc",
    "version": "0.6.12+commit.27d51765.Emscripten.clang"
  },
  "schemaVersion": "3.3.3",
  "updatedAt": "2021-02-14T09:57:15.529Z",
  "devdoc": {
    "details": "Staking efficiency Messenger",
    "kind": "dev",
    "methods": {
      "constructor": {
        "details": "parameterize the variables according to network",
        "params": {
          "_chainlinkOracle": "the address of the oracle to create requests to",
          "_chainlinkToken": "the address of LINK token contract",
          "_jobId": "the job id for the HTTPGet job"
        }
      },
      "fulfillSLI(bytes32,bytes32)": {
        "details": "callback function for the Chainlink SLI request which stores the SLI in the SLA contract",
        "params": {
          "_chainlinkResponse": "response object from Chainlink Oracles",
          "_requestId": "the ID of the ChainLink request"
        }
      },
      "parseSLIData(bytes32)": {
        "details": "recieves a string of \"hits,misses\" data and returns hits and misses as uint256",
        "params": {
          "sliData": "the ID of the ChainLink request"
        }
      },
      "requestSLI(uint256,address)": {
        "details": "creates a ChainLink request to get a new SLI value for the given params. Can only be called by the SLARegistry contract or Chainlink Oracle.",
        "params": {
          "_periodId": "value of the period id",
          "_slaAddress": "SLA Address"
        }
      },
      "setSLARegistry()": {
        "details": "sets the SLARegistry contract address and can only be called once"
      }
    },
    "stateVariables": {
      "fee": {
        "details": "fee for Chainlink querys. Currently 0.1 LINK"
      },
      "jobId": {
        "details": "chainlink jobId"
      },
      "oracle": {
        "details": "Chainlink oracle address"
      },
      "requestIdToSLIRequest": {
        "details": "Mapping that stores chainlink sli request information"
      },
      "requests": {
        "details": "Array with all request IDs"
      },
      "slaRegistry": {
        "details": "The address of the SLARegistry contract"
      }
    },
    "title": "SEMessenger",
    "version": 1
  },
  "userdoc": {
    "kind": "user",
    "methods": {
      "constructor": "sets the Chainlink parameters (oracle address, token address, jobId) and sets the SLARegistry to 0x0 address"
    },
    "version": 1
  }
}