{
  "contractName": "StakeRegistry",
  "abi": [
    {
      "inputs": [
        {
          "internalType": "address",
          "name": "_dslaTokenAddress",
          "type": "address"
        }
      ],
      "stateMutability": "nonpayable",
      "type": "constructor"
    },
    {
      "anonymous": false,
      "inputs": [
        {
          "indexed": true,
          "internalType": "address",
          "name": "previousOwner",
          "type": "address"
        },
        {
          "indexed": true,
          "internalType": "address",
          "name": "newOwner",
          "type": "address"
        }
      ],
      "name": "OwnershipTransferred",
      "type": "event"
    },
    {
      "anonymous": false,
      "inputs": [
        {
          "indexed": false,
          "internalType": "uint256",
          "name": "DSLAburnRate",
          "type": "uint256"
        },
        {
          "indexed": false,
          "internalType": "uint256",
          "name": "minimumDSLAStakedTier1",
          "type": "uint256"
        },
        {
          "indexed": false,
          "internalType": "uint256",
          "name": "minimumDSLAStakedTier2",
          "type": "uint256"
        },
        {
          "indexed": false,
          "internalType": "uint256",
          "name": "minimumDSLAStakedTier3",
          "type": "uint256"
        }
      ],
      "name": "StakingParametersModified",
      "type": "event"
    },
    {
      "inputs": [],
      "name": "DSLATokenAddress",
      "outputs": [
        {
          "internalType": "address",
          "name": "",
          "type": "address"
        }
      ],
      "stateMutability": "view",
      "type": "function",
      "constant": true
    },
    {
      "inputs": [
        {
          "internalType": "uint256",
          "name": "",
          "type": "uint256"
        }
      ],
      "name": "allowedTokens",
      "outputs": [
        {
          "internalType": "address",
          "name": "",
          "type": "address"
        }
      ],
      "stateMutability": "view",
      "type": "function",
      "constant": true
    },
    {
      "inputs": [],
      "name": "owner",
      "outputs": [
        {
          "internalType": "address",
          "name": "",
          "type": "address"
        }
      ],
      "stateMutability": "view",
      "type": "function",
      "constant": true
    },
    {
      "inputs": [],
      "name": "renounceOwnership",
      "outputs": [],
      "stateMutability": "nonpayable",
      "type": "function"
    },
    {
      "inputs": [
        {
          "internalType": "address",
          "name": "newOwner",
          "type": "address"
        }
      ],
      "name": "transferOwnership",
      "outputs": [],
      "stateMutability": "nonpayable",
      "type": "function"
    },
    {
      "inputs": [
        {
          "internalType": "address",
          "name": "",
          "type": "address"
        },
        {
          "internalType": "uint256",
          "name": "",
          "type": "uint256"
        }
      ],
      "name": "userStakedSlas",
      "outputs": [
        {
          "internalType": "contract SLA",
          "name": "",
          "type": "address"
        }
      ],
      "stateMutability": "view",
      "type": "function",
      "constant": true
    },
    {
      "inputs": [
        {
          "internalType": "address",
          "name": "_tokenAddress",
          "type": "address"
        }
      ],
      "name": "addAllowedTokens",
      "outputs": [],
      "stateMutability": "nonpayable",
      "type": "function"
    },
    {
      "inputs": [
        {
          "internalType": "address",
          "name": "_tokenAddress",
          "type": "address"
        }
      ],
      "name": "isAllowedToken",
      "outputs": [
        {
          "internalType": "bool",
          "name": "",
          "type": "bool"
        }
      ],
      "stateMutability": "view",
      "type": "function",
      "constant": true
    },
    {
      "inputs": [],
      "name": "getStakingParameters",
      "outputs": [
        {
          "internalType": "uint256",
          "name": "DSLAburnRate",
          "type": "uint256"
        },
        {
          "internalType": "uint256",
          "name": "minimumDSLAStakedTier1",
          "type": "uint256"
        },
        {
          "internalType": "uint256",
          "name": "minimumDSLAStakedTier2",
          "type": "uint256"
        },
        {
          "internalType": "uint256",
          "name": "minimumDSLAStakedTier3",
          "type": "uint256"
        }
      ],
      "stateMutability": "view",
      "type": "function",
      "constant": true
    },
    {
      "inputs": [
        {
          "internalType": "address",
          "name": "_user",
          "type": "address"
        },
        {
          "internalType": "address",
          "name": "_sla",
          "type": "address"
        }
      ],
      "name": "slaWasStakedByUser",
      "outputs": [
        {
          "internalType": "bool",
          "name": "",
          "type": "bool"
        }
      ],
      "stateMutability": "view",
      "type": "function",
      "constant": true
    },
    {
      "inputs": [
        {
          "internalType": "address",
          "name": "_owner",
          "type": "address"
        },
        {
          "internalType": "address",
          "name": "_slaRegistry",
          "type": "address"
        }
      ],
      "name": "registerStakedSla",
      "outputs": [
        {
          "internalType": "bool",
          "name": "",
          "type": "bool"
        }
      ],
      "stateMutability": "nonpayable",
      "type": "function"
    },
    {
      "inputs": [
        {
          "internalType": "string",
          "name": "_name",
          "type": "string"
        },
        {
          "internalType": "string",
          "name": "_symbol",
          "type": "string"
        }
      ],
      "name": "createDToken",
      "outputs": [
        {
          "internalType": "address",
          "name": "",
          "type": "address"
        }
      ],
      "stateMutability": "nonpayable",
      "type": "function"
    },
    {
      "inputs": [
        {
          "internalType": "address",
          "name": "_slaOwner",
          "type": "address"
        }
      ],
      "name": "getActivePool",
      "outputs": [
        {
          "components": [
            {
              "internalType": "address",
              "name": "SLAAddress",
              "type": "address"
            },
            {
              "internalType": "uint256",
              "name": "stake",
              "type": "uint256"
            },
            {
              "internalType": "string",
              "name": "assetName",
              "type": "string"
            },
            {
              "internalType": "address",
              "name": "assetAddress",
              "type": "address"
            }
          ],
          "internalType": "struct StakeRegistry.ActivePool[]",
          "name": "",
          "type": "tuple[]"
        }
      ],
      "stateMutability": "view",
      "type": "function",
      "constant": true
    },
    {
      "inputs": [
        {
          "internalType": "uint256",
          "name": "DSLAburnRate",
          "type": "uint256"
        },
        {
          "internalType": "uint256",
          "name": "minimumDSLAStakedTier1",
          "type": "uint256"
        },
        {
          "internalType": "uint256",
          "name": "minimumDSLAStakedTier2",
          "type": "uint256"
        },
        {
          "internalType": "uint256",
          "name": "minimumDSLAStakedTier3",
          "type": "uint256"
        }
      ],
      "name": "setStakingParameters",
      "outputs": [],
      "stateMutability": "nonpayable",
      "type": "function"
    }
  ],
  "bytecode": "0x6080604052600360025568a2a15d09519be0000060035569014542ba12a337c000006004556901e7e4171bf4d3a0000060055534801561003e57600080fd5b5060405161301338038061301383398101604081905261005d91610111565b600061006761010d565b600080546001600160a01b0319166001600160a01b0383169081178255604051929350917f8be0079c531659141344cd1fd0a4f28419497f9722a3daafe3b4186f6b6457e0908290a350600180546001600160a01b039092166001600160a01b0319928316811782556006805492830181556000527ff652222313e28459528d920b65115c16c04f3efc82aaedc97be59f3f377c0d3f909101805490921617905561013f565b3390565b600060208284031215610122578081fd5b81516001600160a01b0381168114610138578182fd5b9392505050565b612ec58061014e6000396000f3fe60806040523480156200001157600080fd5b5060043610620000dc5760003560e01c80638da5cb5b11620000875780638da5cb5b1462000191578063a3f5cadf146200019b578063b2af789d14620001b2578063cbe230c314620001c9578063f2c0dfd414620001e0578063f2fde38b1462000206578063f700839e146200021d57620000dc565b80630df0bfc614620000e1578063171e44ea14620001105780635e5f2e26146200012957806366a0428e146200014f578063715018a614620001665780637852389714620001705780638b8e53091462000187575b600080fd5b620000f8620000f236600462000d9f565b62000239565b60405162000107919062001041565b60405180910390f35b620001276200012136600462000d80565b620002c4565b005b620001406200013a36600462000edd565b62000384565b60405162000107919062000f74565b620001406200016036600462000e75565b620003ac565b62000127620004cc565b620000f86200018136600462000d9f565b62000550565b620001406200064f565b620001406200065e565b62000140620001ac36600462000ddc565b6200066d565b62000127620001c336600462000ef6565b620006a3565b620000f8620001da36600462000d80565b62000737565b620001f7620001f136600462000d80565b62000799565b60405162000107919062000fa1565b620001276200021736600462000d80565b62000bb1565b6200022762000c6f565b604051620001079493929190620011a6565b6000805b6001600160a01b038416600090815260076020526040902054811015620002b8576001600160a01b038481166000908152600760205260409020805491851691839081106200028857fe5b6000918252602090912001546001600160a01b03161415620002af576001915050620002be565b6001016200023d565b50600090505b92915050565b620002ce62000c83565b6000546001600160a01b03908116911614620003075760405162461bcd60e51b8152600401620002fe9062001171565b60405180910390fd5b620003128162000737565b15620003325760405162461bcd60e51b8152600401620002fe9062001144565b600680546001810182556000919091527ff652222313e28459528d920b65115c16c04f3efc82aaedc97be59f3f377c0d3f0180546001600160a01b0319166001600160a01b0392909216919091179055565b600681815481106200039257fe5b6000918252602090912001546001600160a01b0316905081565b6000808383604051620003bf9062000cb6565b620003cc92919062001063565b604051809103906000f080158015620003e9573d6000803e3d6000fd5b509050806001600160a01b0316632f2ff15d826001600160a01b031663d53913936040518163ffffffff1660e01b815260040160206040518083038186803b1580156200043557600080fd5b505afa1580156200044a573d6000803e3d6000fd5b505050506040513d601f19601f8201168201806040525081019062000470919062000e5c565b336040518363ffffffff1660e01b8152600401620004909291906200104c565b600060405180830381600087803b158015620004ab57600080fd5b505af1158015620004c0573d6000803e3d6000fd5b50929695505050505050565b620004d662000c83565b6000546001600160a01b03908116911614620005065760405162461bcd60e51b8152600401620002fe9062001171565b600080546040516001600160a01b03909116907f8be0079c531659141344cd1fd0a4f28419497f9722a3daafe3b4186f6b6457e0908390a3600080546001600160a01b0319169055565b60405163c4277a7b60e01b815260009082906001600160a01b0382169063c4277a7b906200058390339060040162000f74565b60206040518083038186803b1580156200059c57600080fd5b505afa158015620005b1573d6000803e3d6000fd5b505050506040513d601f19601f82011682018060405250810190620005d7919062000e3a565b1515600114620005fb5760405162461bcd60e51b8152600401620002fe9062001095565b62000607843362000239565b62000645576001600160a01b03841660009081526007602090815260408220805460018101825590835291200180546001600160a01b031916331790555b5060019392505050565b6001546001600160a01b031681565b6000546001600160a01b031690565b600760205281600052604060002081815481106200068757fe5b6000918252602090912001546001600160a01b03169150829050565b620006ad62000c83565b6000546001600160a01b03908116911614620006dd5760405162461bcd60e51b8152600401620002fe9062001171565b60028490556003839055600482905560058190556040517f88d4944533324114a43d5a08b217165d558c2e687efd4967d2fbdd12c8b266e69062000729908690869086908690620011a6565b60405180910390a150505050565b6000805b6006548110156200078e57826001600160a01b0316600682815481106200075e57fe5b6000918252602090912001546001600160a01b031614156200078557600191505062000794565b6001016200073b565b50600090505b919050565b6040805180820190915260068152656e616d65282960d01b60209091015260607f06fdde0383f15d582d1a74511486c9ddf862a882fb7904b3d9fe9b8b8e58a7966000805b6001600160a01b038516600090815260076020526040902054811015620008d1576001600160a01b03851660009081526007602052604081208054839081106200082457fe5b9060005260206000200160009054906101000a90046001600160a01b03169050620008c5816001600160a01b031663b7bc347e6040518163ffffffff1660e01b815260040160206040518083038186803b1580156200088257600080fd5b505afa15801562000897573d6000803e3d6000fd5b505050506040513d601f19601f82011682018060405250810190620008bd919062000e5c565b849062000c87565b925050600101620007de565b5060608167ffffffffffffffff81118015620008ec57600080fd5b506040519080825280602002602001820160405280156200092a57816020015b6200091662000cc4565b8152602001906001900390816200090c5790505b5090506000805b6001600160a01b03871660009081526007602052604090205481101562000ba6576001600160a01b03871660009081526007602052604081208054839081106200097757fe5b60009182526020822001546001600160a01b031691505b816001600160a01b031663b7bc347e6040518163ffffffff1660e01b815260040160206040518083038186803b158015620009c857600080fd5b505afa158015620009dd573d6000803e3d6000fd5b505050506040513d601f19601f8201168201806040525081019062000a03919062000e5c565b81101562000b9b57600080836001600160a01b03166357ac94f08c856040518363ffffffff1660e01b815260040162000a3e92919062000f88565b604080518083038186803b15801562000a5657600080fd5b505afa15801562000a6b573d6000803e3d6000fd5b505050506040513d601f19601f8201168201806040525081019062000a91919062000e0a565b60408051600481526024810182526020810180516001600160e01b03166001600160e01b03198f1617905290519294509092506060916001600160a01b0385169162000add9162000f56565b600060405180830381855afa9150503d806000811462000b1a576040519150601f19603f3d011682016040523d82523d6000602084013e62000b1f565b606091505b5091505062000b2d62000cc4565b6040518060800160405280876001600160a01b03168152602001848152602001838152602001856001600160a01b031681525090508089898151811062000b7057fe5b602090810291909101015262000b8888600162000c87565b975050600190930192506200098e915050565b505060010162000931565b509095945050505050565b62000bbb62000c83565b6000546001600160a01b0390811691161462000beb5760405162461bcd60e51b8152600401620002fe9062001171565b6001600160a01b03811662000c145760405162461bcd60e51b8152600401620002fe90620010c7565b600080546040516001600160a01b03808516939216917f8be0079c531659141344cd1fd0a4f28419497f9722a3daafe3b4186f6b6457e091a3600080546001600160a01b0319166001600160a01b0392909216919091179055565b600254600354600454600554929391929091565b3390565b60008282018381101562000caf5760405162461bcd60e51b8152600401620002fe906200110d565b9392505050565b611c76806200121a83390190565b604051806080016040528060006001600160a01b03168152602001600081526020016060815260200160006001600160a01b031681525090565b600082601f83011262000d0f578081fd5b813567ffffffffffffffff8082111562000d27578283fd5b604051601f8301601f19168101602001828111828210171562000d48578485fd5b60405282815292508284830160200186101562000d6457600080fd5b8260208601602083013760006020848301015250505092915050565b60006020828403121562000d92578081fd5b813562000caf8162001200565b6000806040838503121562000db2578081fd5b823562000dbf8162001200565b9150602083013562000dd18162001200565b809150509250929050565b6000806040838503121562000def578182fd5b823562000dfc8162001200565b946020939093013593505050565b6000806040838503121562000e1d578182fd5b825162000e2a8162001200565b6020939093015192949293505050565b60006020828403121562000e4c578081fd5b8151801515811462000caf578182fd5b60006020828403121562000e6e578081fd5b5051919050565b6000806040838503121562000e88578182fd5b823567ffffffffffffffff8082111562000ea0578384fd5b62000eae8683870162000cfe565b9350602085013591508082111562000ec4578283fd5b5062000ed38582860162000cfe565b9150509250929050565b60006020828403121562000eef578081fd5b5035919050565b6000806000806080858703121562000f0c578182fd5b5050823594602084013594506040840135936060013592509050565b6000815180845262000f42816020860160208601620011cd565b601f01601f19169290920160200192915050565b6000825162000f6a818460208701620011cd565b9190910192915050565b6001600160a01b0391909116815260200190565b6001600160a01b03929092168252602082015260400190565b60208082528251828201819052600091906040908185019080840286018301878501865b838110156200103357603f198984030185528151608062000fe78251620011c1565b85528882015189860152878201518189870152620010088287018262000f28565b6060938401516001600160a01b03169690930195909552509487019492509086019060010162000fc5565b509098975050505050505050565b901515815260200190565b9182526001600160a01b0316602082015260400190565b60006040825262001078604083018562000f28565b82810360208401526200108c818562000f28565b95945050505050565b6020808252601890820152774f6e6c7920666f72207265676973746572656420534c417360401b604082015260600190565b60208082526026908201527f4f776e61626c653a206e6577206f776e657220697320746865207a65726f206160408201526564647265737360d01b606082015260800190565b6020808252601b908201527f536166654d6174683a206164646974696f6e206f766572666c6f770000000000604082015260600190565b6020808252601390820152721d1bdad95b88185b1c9958591e481859191959606a1b604082015260600190565b6020808252818101527f4f776e61626c653a2063616c6c6572206973206e6f7420746865206f776e6572604082015260600190565b93845260208401929092526040830152606082015260800190565b6001600160a01b031690565b60005b83811015620011ea578181015183820152602001620011d0565b83811115620011fa576000848401525b50505050565b6001600160a01b03811681146200121657600080fd5b5056fe60806040523480156200001157600080fd5b5060405162001c7638038062001c76833981810160405260408110156200003757600080fd5b81019080805160405193929190846401000000008211156200005857600080fd5b9083019060208201858111156200006e57600080fd5b82516401000000008111828201881017156200008957600080fd5b82525081516020918201929091019080838360005b83811015620000b85781810151838201526020016200009e565b50505050905090810190601f168015620000e65780820380516001836020036101000a031916815260200191505b50604052602001805160405193929190846401000000008211156200010a57600080fd5b9083019060208201858111156200012057600080fd5b82516401000000008111828201881017156200013b57600080fd5b82525081516020918201929091019080838360005b838110156200016a57818101518382015260200162000150565b50505050905090810190601f168015620001985780820380516001836020036101000a031916815260200191505b50604052505082518391508290620001b890600490602085019062000375565b508051620001ce90600590602084019062000375565b50506006805461ff001960ff1990911660121716905550620001fb6000620001f562000261565b62000265565b6200022a7f9f2df0fed2c77648de5860a4cc508cd0818c85b8b8a1ab4ceeef8d981c8956a6620001f562000261565b620002597f65d7a28e3265b37a6474929f336521b332c1681b933f6cb9f3376673440d862a620001f562000261565b505062000411565b3390565b62000271828262000275565b5050565b6000828152602081815260409091206200029a91839062000b81620002ee821b17901c565b156200027157620002aa62000261565b6001600160a01b0316816001600160a01b0316837f2f8788117e7eff1d82e926ec794901d17c78024a50270940304540a733656f0d60405160405180910390a45050565b600062000305836001600160a01b0384166200030e565b90505b92915050565b60006200031c83836200035d565b620003545750815460018181018455600084815260208082209093018490558454848252828601909352604090209190915562000308565b50600062000308565b60009081526001919091016020526040902054151590565b828054600181600116156101000203166002900490600052602060002090601f016020900481019282601f10620003b857805160ff1916838001178555620003e8565b82800160010185558215620003e8579182015b82811115620003e8578251825591602001919060010190620003cb565b50620003f6929150620003fa565b5090565b5b80821115620003f65760008155600101620003fb565b61185580620004216000396000f3fe608060405234801561001057600080fd5b50600436106101795760003560e01c806370a08231116100d9578063a457c2d711610087578063a457c2d71461047a578063a9059cbb146104a6578063ca15c873146104d2578063d5391393146104ef578063d547741f146104f7578063dd62ed3e14610523578063e63ab1e91461055157610179565b806370a08231146103a557806379cc6790146103cb5780638456cb59146103f75780639010d07c146103ff57806391d148541461043e57806395d89b411461046a578063a217fddf1461047257610179565b8063313ce56711610136578063313ce567146102d657806336568abe146102f457806339509351146103205780633f4ba83a1461034c57806340c10f191461035457806342966c68146103805780635c975abb1461039d57610179565b806306fdde031461017e578063095ea7b3146101fb57806318160ddd1461023b57806323b872dd14610255578063248a9ca31461028b5780632f2ff15d146102a8575b600080fd5b610186610559565b6040805160208082528351818301528351919283929083019185019080838360005b838110156101c05781810151838201526020016101a8565b50505050905090810190601f1680156101ed5780820380516001836020036101000a031916815260200191505b509250505060405180910390f35b6102276004803603604081101561021157600080fd5b506001600160a01b0381351690602001356105ef565b604080519115158252519081900360200190f35b61024361060d565b60408051918252519081900360200190f35b6102276004803603606081101561026b57600080fd5b506001600160a01b03813581169160208101359091169060400135610613565b610243600480360360208110156102a157600080fd5b503561069a565b6102d4600480360360408110156102be57600080fd5b50803590602001356001600160a01b03166106af565b005b6102de61071b565b6040805160ff9092168252519081900360200190f35b6102d46004803603604081101561030a57600080fd5b50803590602001356001600160a01b0316610724565b6102276004803603604081101561033657600080fd5b506001600160a01b038135169060200135610785565b6102d46107d3565b6102d46004803603604081101561036a57600080fd5b506001600160a01b038135169060200135610832565b6102d46004803603602081101561039657600080fd5b50356108a3565b6102276108b7565b610243600480360360208110156103bb57600080fd5b50356001600160a01b03166108c5565b6102d4600480360360408110156103e157600080fd5b506001600160a01b0381351690602001356108e0565b6102d461093a565b6104226004803603604081101561041557600080fd5b5080359060200135610997565b604080516001600160a01b039092168252519081900360200190f35b6102276004803603604081101561045457600080fd5b50803590602001356001600160a01b03166109b6565b6101866109ce565b610243610a2f565b6102276004803603604081101561049057600080fd5b506001600160a01b038135169060200135610a34565b610227600480360360408110156104bc57600080fd5b506001600160a01b038135169060200135610a9c565b610243600480360360208110156104e857600080fd5b5035610ab0565b610243610ac7565b6102d46004803603604081101561050d57600080fd5b50803590602001356001600160a01b0316610aeb565b6102436004803603604081101561053957600080fd5b506001600160a01b0381358116916020013516610b44565b610243610b6f565b60048054604080516020601f60026000196101006001881615020190951694909404938401819004810282018101909252828152606093909290918301828280156105e55780601f106105ba576101008083540402835291602001916105e5565b820191906000526020600020905b8154815290600101906020018083116105c857829003601f168201915b5050505050905090565b60006106036105fc610b96565b8484610b9a565b5060015b92915050565b60035490565b6000610620848484610c86565b6106908461062c610b96565b61068b8560405180606001604052806028815260200161163f602891396001600160a01b038a1660009081526002602052604081209061066a610b96565b6001600160a01b031681526020810191909152604001600020549190610dd1565b610b9a565b5060019392505050565b60009081526020819052604090206002015490565b6000828152602081905260409020600201546106d2906106cd610b96565b6109b6565b61070d5760405162461bcd60e51b815260040180806020018281038252602f81526020018061153d602f913960400191505060405180910390fd5b6107178282610e68565b5050565b60065460ff1690565b61072c610b96565b6001600160a01b0316816001600160a01b03161461077b5760405162461bcd60e51b815260040180806020018281038252602f8152602001806117c7602f913960400191505060405180910390fd5b6107178282610ed1565b6000610603610792610b96565b8461068b85600260006107a3610b96565b6001600160a01b03908116825260208083019390935260409182016000908120918c168152925290205490610f3a565b6107ed6000805160206116678339815191526106cd610b96565b6108285760405162461bcd60e51b815260040180806020018281038252603981526020018061158e6039913960400191505060405180910390fd5b610830610f94565b565b61085e7f9f2df0fed2c77648de5860a4cc508cd0818c85b8b8a1ab4ceeef8d981c8956a66106cd610b96565b6108995760405162461bcd60e51b81526004018080602001828103825260368152602001806116876036913960400191505060405180910390fd5b6107178282611038565b6108b46108ae610b96565b82611118565b50565b600654610100900460ff1690565b6001600160a01b031660009081526001602052604090205490565b6000610917826040518060600160405280602481526020016116bd602491396109108661090b610b96565b610b44565b9190610dd1565b905061092b83610925610b96565b83610b9a565b6109358383611118565b505050565b6109546000805160206116678339815191526106cd610b96565b61098f5760405162461bcd60e51b815260040180806020018281038252603781526020018061176b6037913960400191505060405180910390fd5b610830611202565b60008281526020819052604081206109af908361128a565b9392505050565b60008281526020819052604081206109af9083611296565b60058054604080516020601f60026000196101006001881615020190951694909404938401819004810282018101909252828152606093909290918301828280156105e55780601f106105ba576101008083540402835291602001916105e5565b600081565b6000610603610a41610b96565b8461068b856040518060600160405280602581526020016117a26025913960026000610a6b610b96565b6001600160a01b03908116825260208083019390935260409182016000908120918d16815292529020549190610dd1565b6000610603610aa9610b96565b8484610c86565b6000818152602081905260408120610607906112ab565b7f9f2df0fed2c77648de5860a4cc508cd0818c85b8b8a1ab4ceeef8d981c8956a681565b600082815260208190526040902060020154610b09906106cd610b96565b61077b5760405162461bcd60e51b815260040180806020018281038252603081526020018061160f6030913960400191505060405180910390fd5b6001600160a01b03918216600090815260026020908152604080832093909416825291909152205490565b60008051602061166783398151915281565b60006109af836001600160a01b0384166112b6565b3390565b6001600160a01b038316610bdf5760405162461bcd60e51b81526004018080602001828103825260248152602001806117476024913960400191505060405180910390fd5b6001600160a01b038216610c245760405162461bcd60e51b81526004018080602001828103825260228152602001806115c76022913960400191505060405180910390fd5b6001600160a01b03808416600081815260026020908152604080832094871680845294825291829020859055815185815291517f8c5be1e5ebec7d5bd14f71427d1e84f3dd0314c0f7b2291e5b200ac8c7c3b9259281900390910190a3505050565b6001600160a01b038316610ccb5760405162461bcd60e51b81526004018080602001828103825260258152602001806117226025913960400191505060405180910390fd5b6001600160a01b038216610d105760405162461bcd60e51b815260040180806020018281038252602381526020018061151a6023913960400191505060405180910390fd5b610d1b838383611300565b610d58816040518060600160405280602681526020016115e9602691396001600160a01b0386166000908152600160205260409020549190610dd1565b6001600160a01b038085166000908152600160205260408082209390935590841681522054610d879082610f3a565b6001600160a01b0380841660008181526001602090815260409182902094909455805185815290519193928716926000805160206116e183398151915292918290030190a3505050565b60008184841115610e605760405162461bcd60e51b81526004018080602001828103825283818151815260200191508051906020019080838360005b83811015610e25578181015183820152602001610e0d565b50505050905090810190601f168015610e525780820380516001836020036101000a031916815260200191505b509250505060405180910390fd5b505050900390565b6000828152602081905260409020610e809082610b81565b1561071757610e8d610b96565b6001600160a01b0316816001600160a01b0316837f2f8788117e7eff1d82e926ec794901d17c78024a50270940304540a733656f0d60405160405180910390a45050565b6000828152602081905260409020610ee9908261130b565b1561071757610ef6610b96565b6001600160a01b0316816001600160a01b0316837ff6391f5c32d9c69d2a47ea670b442974b53935d1edc7fd64eb21e047a839171b60405160405180910390a45050565b6000828201838110156109af576040805162461bcd60e51b815260206004820152601b60248201527f536166654d6174683a206164646974696f6e206f766572666c6f770000000000604482015290519081900360640190fd5b600654610100900460ff16610fe7576040805162461bcd60e51b815260206004820152601460248201527314185d5cd8589b194e881b9bdd081c185d5cd95960621b604482015290519081900360640190fd5b6006805461ff00191690557f5db9ee0a495bf2e6ff9c91a7834c1ba4fdd244a5e8aa4e537bd38aeae4b073aa61101b610b96565b604080516001600160a01b039092168252519081900360200190a1565b6001600160a01b038216611093576040805162461bcd60e51b815260206004820152601f60248201527f45524332303a206d696e7420746f20746865207a65726f206164647265737300604482015290519081900360640190fd5b61109f60008383611300565b6003546110ac9082610f3a565b6003556001600160a01b0382166000908152600160205260409020546110d29082610f3a565b6001600160a01b03831660008181526001602090815260408083209490945583518581529351929391926000805160206116e18339815191529281900390910190a35050565b6001600160a01b03821661115d5760405162461bcd60e51b81526004018080602001828103825260218152602001806117016021913960400191505060405180910390fd5b61116982600083611300565b6111a68160405180606001604052806022815260200161156c602291396001600160a01b0385166000908152600160205260409020549190610dd1565b6001600160a01b0383166000908152600160205260409020556003546111cc9082611320565b6003556040805182815290516000916001600160a01b038516916000805160206116e18339815191529181900360200190a35050565b600654610100900460ff1615611252576040805162461bcd60e51b815260206004820152601060248201526f14185d5cd8589b194e881c185d5cd95960821b604482015290519081900360640190fd5b6006805461ff0019166101001790557f62e78cea01bee320cd4e420270b5ea74000d11b0c9f74754ebdbfc544b05a25861101b610b96565b60006109af8383611362565b60006109af836001600160a01b0384166113c6565b6000610607826113de565b60006112c283836113c6565b6112f857508154600181810184556000848152602080822090930184905584548482528286019093526040902091909155610607565b506000610607565b6109358383836113e2565b60006109af836001600160a01b038416611431565b60006109af83836040518060400160405280601e81526020017f536166654d6174683a207375627472616374696f6e206f766572666c6f770000815250610dd1565b815460009082106113a45760405162461bcd60e51b81526004018080602001828103825260228152602001806114f86022913960400191505060405180910390fd5b8260000182815481106113b357fe5b9060005260206000200154905092915050565b60009081526001919091016020526040902054151590565b5490565b6113ed838383610935565b6113f56108b7565b156109355760405162461bcd60e51b815260040180806020018281038252602a8152602001806117f6602a913960400191505060405180910390fd5b600081815260018301602052604081205480156114ed578354600019808301919081019060009087908390811061146457fe5b906000526020600020015490508087600001848154811061148157fe5b6000918252602080832090910192909255828152600189810190925260409020908401905586548790806114b157fe5b60019003818190600052602060002001600090559055866001016000878152602001908152602001600020600090556001945050505050610607565b600091505061060756fe456e756d657261626c655365743a20696e646578206f7574206f6620626f756e647345524332303a207472616e7366657220746f20746865207a65726f2061646472657373416363657373436f6e74726f6c3a2073656e646572206d75737420626520616e2061646d696e20746f206772616e7445524332303a206275726e20616d6f756e7420657863656564732062616c616e636545524332305072657365744d696e7465725061757365723a206d75737420686176652070617573657220726f6c6520746f20756e706175736545524332303a20617070726f766520746f20746865207a65726f206164647265737345524332303a207472616e7366657220616d6f756e7420657863656564732062616c616e6365416363657373436f6e74726f6c3a2073656e646572206d75737420626520616e2061646d696e20746f207265766f6b6545524332303a207472616e7366657220616d6f756e74206578636565647320616c6c6f77616e636565d7a28e3265b37a6474929f336521b332c1681b933f6cb9f3376673440d862a45524332305072657365744d696e7465725061757365723a206d7573742068617665206d696e74657220726f6c6520746f206d696e7445524332303a206275726e20616d6f756e74206578636565647320616c6c6f77616e6365ddf252ad1be2c89b69c2b068fc378daa952ba7f163c4a11628f55a4df523b3ef45524332303a206275726e2066726f6d20746865207a65726f206164647265737345524332303a207472616e736665722066726f6d20746865207a65726f206164647265737345524332303a20617070726f76652066726f6d20746865207a65726f206164647265737345524332305072657365744d696e7465725061757365723a206d75737420686176652070617573657220726f6c6520746f20706175736545524332303a2064656372656173656420616c6c6f77616e63652062656c6f77207a65726f416363657373436f6e74726f6c3a2063616e206f6e6c792072656e6f756e636520726f6c657320666f722073656c6645524332305061757361626c653a20746f6b656e207472616e73666572207768696c6520706175736564a26469706673582212206130014f97dbd16fd03646e95b4536191f4361184f9662a1f152d08acc1c3a1164736f6c634300060c0033a26469706673582212204c6f5e2c46ce94a0feb3f85ba727d62c1ae4d3009287c7d018929d538a12d85c64736f6c634300060c0033",
  "immutableReferences": {},
  "source": "// SPDX-License-Identifier: MIT\npragma solidity ^0.6.0;\npragma experimental ABIEncoderV2;\n\nimport \"@openzeppelin/contracts/access/Ownable.sol\";\nimport \"@openzeppelin/contracts/math/SafeMath.sol\";\nimport \"@openzeppelin/contracts/presets/ERC20PresetMinterPauser.sol\";\nimport \"./SLA.sol\";\nimport \"./SLARegistry.sol\";\nimport \"./StringUtils.sol\";\n\n/**\n * @title StakeRegistry\n * @dev StakeRegistry is a contract to register the staking activity of the platform, along\n with controlling certain admin privileged parameters\n */\ncontract StakeRegistry is Ownable, StringUtils {\n    using SafeMath for uint256;\n\n    /// @dev struct to return on getActivePool function.\n    struct ActivePool {\n        address SLAAddress;\n        uint256 stake;\n        string assetName;\n        address assetAddress;\n    }\n\n    address public DSLATokenAddress;\n\n    //______ onlyOwner modifiable parameters ______\n\n    /// @dev corresponds to the burn rate of DSLA tokens, but divided by 1000 i.e burn percentage = DSLAburnRate/1000 %\n    uint256 private _DSLAburnRate = 3;\n    /// @dev minimum deposit for Tier 1 staking\n    uint256 private _minimumDSLAStakedTier1 = 3000 ether;\n    /// @dev minimum deposit for Tier 2 staking\n    uint256 private _minimumDSLAStakedTier2 = 6000 ether;\n    /// @dev minimum deposit for Tier 3 staking\n    uint256 private _minimumDSLAStakedTier3 = 9000 ether;\n    /// @dev array with the allowed tokens addresses of the StakeRegistry\n    address[] public allowedTokens;\n\n    /// @dev (userAddress => SLA[]) with user staked SLAs to get tokenPool\n    mapping(address => SLA[]) public userStakedSlas;\n\n    /**\n     * @dev event to log modifications on the staking parameters\n     *@param DSLAburnRate 1. (DSLAburnRate/1000)% of DSLA to be burned after a reward/compensation is paid\n     *@param minimumDSLAStakedTier1 2. minimum stake of DSLA to enable tier 1 privileges\n     *@param minimumDSLAStakedTier2 3. minimum stake of DSLA to enable tier 2 privileges\n     *@param minimumDSLAStakedTier3 4. minimum stake of DSLA to enable tier 3 privileges\n     */\n    event StakingParametersModified(\n        uint256 DSLAburnRate,\n        uint256 minimumDSLAStakedTier1,\n        uint256 minimumDSLAStakedTier2,\n        uint256 minimumDSLAStakedTier3\n    );\n\n    /**\n     * @param _dslaTokenAddress 1. DSLA Token\n     */\n    constructor(address _dslaTokenAddress) public {\n        DSLATokenAddress = _dslaTokenAddress;\n        allowedTokens.push(_dslaTokenAddress);\n    }\n\n    /**\n     *@dev add a token to ve allowed for staking\n     *@param _tokenAddress 1. address of the new allowed token\n     */\n    function addAllowedTokens(address _tokenAddress) public onlyOwner {\n        require(isAllowedToken(_tokenAddress) == false, \"token already added\");\n        allowedTokens.push(_tokenAddress);\n    }\n\n    function isAllowedToken(address _tokenAddress) public view returns (bool) {\n        for (uint256 index = 0; index < allowedTokens.length; index++) {\n            if (allowedTokens[index] == _tokenAddress) {\n                return true;\n            }\n        }\n        return false;\n    }\n\n    function getStakingParameters()\n        public\n        view\n        returns (\n            uint256 DSLAburnRate,\n            uint256 minimumDSLAStakedTier1,\n            uint256 minimumDSLAStakedTier2,\n            uint256 minimumDSLAStakedTier3\n        )\n    {\n        DSLAburnRate = _DSLAburnRate;\n        minimumDSLAStakedTier1 = _minimumDSLAStakedTier1;\n        minimumDSLAStakedTier2 = _minimumDSLAStakedTier2;\n        minimumDSLAStakedTier3 = _minimumDSLAStakedTier3;\n    }\n\n    /**\n     *@dev public view function that returns true if the _owner has staked on _sla\n     *@param _user 1. address to check\n     *@param _sla 2. sla to check\n     *@return bool, true if _sla was staked by _user\n     */\n    function slaWasStakedByUser(address _user, address _sla)\n        public\n        view\n        returns (bool)\n    {\n        for (uint256 index = 0; index < userStakedSlas[_user].length; index++) {\n            if (address(userStakedSlas[_user][index]) == _sla) {\n                return true;\n            }\n        }\n        return false;\n    }\n\n    /**\n     *@dev register the sending SLA contract as staked by _owner\n     *@param _owner 1. SLA contract to stake\n     */\n    function registerStakedSla(address _owner, address _slaRegistry)\n        public\n        returns (bool)\n    {\n        SLARegistry slaRegistry = SLARegistry(_slaRegistry);\n        require(\n            slaRegistry.isRegisteredSLA(msg.sender) == true,\n            \"Only for registered SLAs\"\n        );\n        if (slaWasStakedByUser(_owner, msg.sender) == false) {\n            userStakedSlas[_owner].push(SLA(msg.sender));\n        }\n        return true;\n    }\n\n    /**\n     *@dev to create dTokens for staking\n     *@param _name 1. token name\n     *@param _symbol 2. token symbol\n     */\n    function createDToken(string memory _name, string memory _symbol)\n        public\n        returns (address)\n    {\n        ERC20PresetMinterPauser dToken =\n            new ERC20PresetMinterPauser(_name, _symbol);\n        dToken.grantRole(dToken.MINTER_ROLE(), msg.sender);\n        return address(dToken);\n    }\n\n    /**\n     * @dev returns the active pools owned by a user.\n     * @param _slaOwner 1. owner of the active pool\n     * @return ActivePool[], array of structs: {SLAAddress,stake,assetName}\n     */\n    function getActivePool(address _slaOwner)\n        public\n        view\n        returns (ActivePool[] memory)\n    {\n        bytes4 NAME_SELECTOR = bytes4(keccak256(bytes(\"name()\")));\n        uint256 stakeCounter = 0;\n        // Count the stakes of the user, checking every SLA staked\n        for (\n            uint256 index = 0;\n            index < userStakedSlas[_slaOwner].length;\n            index++\n        ) {\n            SLA currentSLA = SLA(userStakedSlas[_slaOwner][index]);\n            stakeCounter = stakeCounter.add(\n                currentSLA.getAllowedTokensLength()\n            );\n        }\n\n        ActivePool[] memory activePools = new ActivePool[](stakeCounter);\n        // to insert on activePools array\n        uint256 stakePosition = 0;\n        for (\n            uint256 index = 0;\n            index < userStakedSlas[_slaOwner].length;\n            index++\n        ) {\n            SLA currentSLA = userStakedSlas[_slaOwner][index];\n            for (\n                uint256 tokenIndex = 0;\n                tokenIndex < currentSLA.getAllowedTokensLength();\n                tokenIndex++\n            ) {\n                (address tokenAddress, uint256 stake) =\n                    currentSLA.getTokenStake(_slaOwner, tokenIndex);\n                (, bytes memory tokenNameBytes) =\n                    tokenAddress.staticcall(\n                        abi.encodeWithSelector(NAME_SELECTOR)\n                    );\n                ActivePool memory currentActivePool =\n                    ActivePool({\n                        SLAAddress: address(currentSLA),\n                        stake: stake,\n                        assetName: string(tokenNameBytes),\n                        assetAddress: tokenAddress\n                    });\n                activePools[stakePosition] = currentActivePool;\n                stakePosition = stakePosition.add(1);\n            }\n        }\n        return activePools;\n    }\n\n    //_______ OnlyOwner functions _______\n    function setStakingParameters(\n        uint256 DSLAburnRate,\n        uint256 minimumDSLAStakedTier1,\n        uint256 minimumDSLAStakedTier2,\n        uint256 minimumDSLAStakedTier3\n    ) public onlyOwner {\n        _DSLAburnRate = DSLAburnRate;\n        _minimumDSLAStakedTier1 = minimumDSLAStakedTier1;\n        _minimumDSLAStakedTier2 = minimumDSLAStakedTier2;\n        _minimumDSLAStakedTier3 = minimumDSLAStakedTier3;\n        emit StakingParametersModified(\n            DSLAburnRate,\n            minimumDSLAStakedTier1,\n            minimumDSLAStakedTier2,\n            minimumDSLAStakedTier3\n        );\n    }\n}\n",
  "sourcePath": "/Users/matiasbn/Desktop/stacktical/stacktical-dsla-contracts/contracts/StakeRegistry.sol",
  "compiler": {
    "name": "solc",
    "version": "0.6.12+commit.27d51765.Emscripten.clang"
  },
  "schemaVersion": "3.3.3",
  "updatedAt": "2021-02-26T19:23:49.310Z",
  "networkType": "ethereum",
  "devdoc": {
    "details": "StakeRegistry is a contract to register the staking activity of the platform, along with controlling certain admin privileged parameters",
    "events": {
      "StakingParametersModified(uint256,uint256,uint256,uint256)": {
        "details": "event to log modifications on the staking parameters",
        "params": {
          "DSLAburnRate": "1. (DSLAburnRate/1000)% of DSLA to be burned after a reward/compensation is paid",
          "minimumDSLAStakedTier1": "2. minimum stake of DSLA to enable tier 1 privileges",
          "minimumDSLAStakedTier2": "3. minimum stake of DSLA to enable tier 2 privileges",
          "minimumDSLAStakedTier3": "4. minimum stake of DSLA to enable tier 3 privileges"
        }
      }
    },
    "kind": "dev",
    "methods": {
      "addAllowedTokens(address)": {
        "details": "add a token to ve allowed for staking",
        "params": {
          "_tokenAddress": "1. address of the new allowed token"
        }
      },
      "constructor": {
        "params": {
          "_dslaTokenAddress": "1. DSLA Token"
        }
      },
      "createDToken(string,string)": {
        "details": "to create dTokens for staking",
        "params": {
          "_name": "1. token name",
          "_symbol": "2. token symbol"
        }
      },
      "getActivePool(address)": {
        "details": "returns the active pools owned by a user.",
        "params": {
          "_slaOwner": "1. owner of the active pool"
        },
        "returns": {
          "_0": "ActivePool[], array of structs: {SLAAddress,stake,assetName}"
        }
      },
      "owner()": {
        "details": "Returns the address of the current owner."
      },
      "registerStakedSla(address,address)": {
        "details": "register the sending SLA contract as staked by _owner",
        "params": {
          "_owner": "1. SLA contract to stake"
        }
      },
      "renounceOwnership()": {
        "details": "Leaves the contract without owner. It will not be possible to call `onlyOwner` functions anymore. Can only be called by the current owner. NOTE: Renouncing ownership will leave the contract without an owner, thereby removing any functionality that is only available to the owner."
      },
      "slaWasStakedByUser(address,address)": {
        "details": "public view function that returns true if the _owner has staked on _sla",
        "params": {
          "_sla": "2. sla to check",
          "_user": "1. address to check"
        },
        "returns": {
          "_0": "bool, true if _sla was staked by _user"
        }
      },
      "transferOwnership(address)": {
        "details": "Transfers ownership of the contract to a new account (`newOwner`). Can only be called by the current owner."
      }
    },
    "stateVariables": {
      "_DSLAburnRate": {
        "details": "corresponds to the burn rate of DSLA tokens, but divided by 1000 i.e burn percentage = DSLAburnRate/1000 %"
      },
      "_minimumDSLAStakedTier1": {
        "details": "minimum deposit for Tier 1 staking"
      },
      "_minimumDSLAStakedTier2": {
        "details": "minimum deposit for Tier 2 staking"
      },
      "_minimumDSLAStakedTier3": {
        "details": "minimum deposit for Tier 3 staking"
      },
      "allowedTokens": {
        "details": "array with the allowed tokens addresses of the StakeRegistry"
      },
      "userStakedSlas": {
        "details": "(userAddress => SLA[]) with user staked SLAs to get tokenPool"
      }
    },
    "title": "StakeRegistry",
    "version": 1
  },
  "userdoc": {
    "kind": "user",
    "methods": {},
    "version": 1
  }
}