{
  "contractName": "Staking",
  "abi": [
    {
      "inputs": [
        {
          "internalType": "address",
          "name": "_stakeRegistry",
          "type": "address"
        },
        {
          "internalType": "address",
          "name": "_periodRegistry",
          "type": "address"
        },
        {
          "internalType": "enum PeriodRegistry.PeriodType",
          "name": "_periodType",
          "type": "uint8"
        },
        {
          "internalType": "uint256",
          "name": "_slaPeriodsLength",
          "type": "uint256"
        }
      ],
      "stateMutability": "nonpayable",
      "type": "constructor"
    },
    {
      "anonymous": false,
      "inputs": [
        {
          "indexed": true,
          "internalType": "address",
          "name": "previousOwner",
          "type": "address"
        },
        {
          "indexed": true,
          "internalType": "address",
          "name": "newOwner",
          "type": "address"
        }
      ],
      "name": "OwnershipTransferred",
      "type": "event"
    },
    {
      "inputs": [],
      "name": "DSLAburnRate",
      "outputs": [
        {
          "internalType": "uint256",
          "name": "",
          "type": "uint256"
        }
      ],
      "stateMutability": "view",
      "type": "function"
    },
    {
      "inputs": [
        {
          "internalType": "uint256",
          "name": "",
          "type": "uint256"
        }
      ],
      "name": "allowedTokens",
      "outputs": [
        {
          "internalType": "address",
          "name": "",
          "type": "address"
        }
      ],
      "stateMutability": "view",
      "type": "function"
    },
    {
      "inputs": [],
      "name": "apy",
      "outputs": [
        {
          "internalType": "uint256",
          "name": "",
          "type": "uint256"
        }
      ],
      "stateMutability": "view",
      "type": "function"
    },
    {
      "inputs": [],
      "name": "dslaTokenAddress",
      "outputs": [
        {
          "internalType": "address",
          "name": "",
          "type": "address"
        }
      ],
      "stateMutability": "view",
      "type": "function"
    },
    {
      "inputs": [],
      "name": "minimumDSLAStakedTier1",
      "outputs": [
        {
          "internalType": "uint256",
          "name": "",
          "type": "uint256"
        }
      ],
      "stateMutability": "view",
      "type": "function"
    },
    {
      "inputs": [],
      "name": "minimumDSLAStakedTier2",
      "outputs": [
        {
          "internalType": "uint256",
          "name": "",
          "type": "uint256"
        }
      ],
      "stateMutability": "view",
      "type": "function"
    },
    {
      "inputs": [],
      "name": "minimumDSLAStakedTier3",
      "outputs": [
        {
          "internalType": "uint256",
          "name": "",
          "type": "uint256"
        }
      ],
      "stateMutability": "view",
      "type": "function"
    },
    {
      "inputs": [],
      "name": "owner",
      "outputs": [
        {
          "internalType": "address",
          "name": "",
          "type": "address"
        }
      ],
      "stateMutability": "view",
      "type": "function"
    },
    {
      "inputs": [
        {
          "internalType": "uint256",
          "name": "",
          "type": "uint256"
        },
        {
          "internalType": "address",
          "name": "",
          "type": "address"
        }
      ],
      "name": "providerPeriodsRewards",
      "outputs": [
        {
          "internalType": "uint256",
          "name": "",
          "type": "uint256"
        }
      ],
      "stateMutability": "view",
      "type": "function"
    },
    {
      "inputs": [],
      "name": "renounceOwnership",
      "outputs": [],
      "stateMutability": "nonpayable",
      "type": "function"
    },
    {
      "inputs": [],
      "name": "slaPeriodsLength",
      "outputs": [
        {
          "internalType": "uint256",
          "name": "",
          "type": "uint256"
        }
      ],
      "stateMutability": "view",
      "type": "function"
    },
    {
      "inputs": [
        {
          "internalType": "uint256",
          "name": "",
          "type": "uint256"
        }
      ],
      "name": "stakers",
      "outputs": [
        {
          "internalType": "address",
          "name": "",
          "type": "address"
        }
      ],
      "stateMutability": "view",
      "type": "function"
    },
    {
      "inputs": [
        {
          "internalType": "address",
          "name": "newOwner",
          "type": "address"
        }
      ],
      "name": "transferOwnership",
      "outputs": [],
      "stateMutability": "nonpayable",
      "type": "function"
    },
    {
      "inputs": [
        {
          "internalType": "address",
          "name": "",
          "type": "address"
        }
      ],
      "name": "usersCompensationPools",
      "outputs": [
        {
          "internalType": "uint256",
          "name": "",
          "type": "uint256"
        }
      ],
      "stateMutability": "view",
      "type": "function"
    },
    {
      "inputs": [
        {
          "internalType": "address",
          "name": "",
          "type": "address"
        }
      ],
      "name": "usersTotalPositions",
      "outputs": [
        {
          "internalType": "uint256",
          "name": "",
          "type": "uint256"
        }
      ],
      "stateMutability": "view",
      "type": "function"
    },
    {
      "inputs": [],
      "name": "yearlyPeriods",
      "outputs": [
        {
          "internalType": "uint256",
          "name": "",
          "type": "uint256"
        }
      ],
      "stateMutability": "view",
      "type": "function"
    },
    {
      "inputs": [
        {
          "internalType": "address",
          "name": "_tokenAddress",
          "type": "address"
        }
      ],
      "name": "addAllowedTokens",
      "outputs": [],
      "stateMutability": "nonpayable",
      "type": "function"
    },
    {
      "inputs": [
        {
          "internalType": "address",
          "name": "_tokenAddress",
          "type": "address"
        }
      ],
      "name": "_claimCompensation",
      "outputs": [],
      "stateMutability": "nonpayable",
      "type": "function"
    },
    {
      "inputs": [
        {
          "internalType": "address",
          "name": "_tokenAddress",
          "type": "address"
        }
      ],
      "name": "getStakeholdersPositions",
      "outputs": [
        {
          "internalType": "uint256",
          "name": "providerStake",
          "type": "uint256"
        },
        {
          "internalType": "uint256",
          "name": "usersStake",
          "type": "uint256"
        }
      ],
      "stateMutability": "view",
      "type": "function"
    },
    {
      "inputs": [],
      "name": "getAllowedTokensLength",
      "outputs": [
        {
          "internalType": "uint256",
          "name": "",
          "type": "uint256"
        }
      ],
      "stateMutability": "view",
      "type": "function"
    },
    {
      "inputs": [
        {
          "internalType": "address",
          "name": "_staker",
          "type": "address"
        },
        {
          "internalType": "uint256",
          "name": "_allowedTokenIndex",
          "type": "uint256"
        }
      ],
      "name": "getTokenStake",
      "outputs": [
        {
          "internalType": "address",
          "name": "tokenAddress",
          "type": "address"
        },
        {
          "internalType": "uint256",
          "name": "stake",
          "type": "uint256"
        }
      ],
      "stateMutability": "view",
      "type": "function"
    },
    {
      "inputs": [
        {
          "internalType": "address",
          "name": "_tokenAddress",
          "type": "address"
        }
      ],
      "name": "isAllowedToken",
      "outputs": [
        {
          "internalType": "bool",
          "name": "",
          "type": "bool"
        }
      ],
      "stateMutability": "view",
      "type": "function"
    }
  ],
  "bytecode": "0x608060405234801561001057600080fd5b506040516112043803806112048339818101604052608081101561003357600080fd5b508051602082015160408301516060909301519192909160006100546102c2565b600080546001600160a01b0319166001600160a01b0383169081178255604051929350917f8be0079c531659141344cd1fd0a4f28419497f9722a3daafe3b4186f6b6457e0908290a350600180546001600160a01b038087166001600160a01b0319928316178355600280549187169190921617905560118054849260ff19909116908360058111156100e357fe5b0217905550601281905560015460408051637b8041cf60e11b815290516000928392839283926001600160a01b03169163f700839e916004808301926080929190829003018186803b15801561013857600080fd5b505afa15801561014c573d6000803e3d6000fd5b505050506040513d608081101561016257600080fd5b50805160208201516040808401516060909401516002549151635c98d15760e01b8152939850919650929450925060009182916001600160a01b0390911690635c98d157908a90600401808260058111156101b957fe5b815260200191505060806040518083038186803b1580156101d957600080fd5b505afa1580156101ed573d6000803e3d6000fd5b505050506040513d608081101561020357600080fd5b508051602091820151600f829055601081905560015460408051638b8e530960e01b815290519396509194506001600160a01b031692638b8e530992600480840193829003018186803b15801561025957600080fd5b505afa15801561026d573d6000803e3d6000fd5b505050506040513d602081101561028357600080fd5b5051600980546001600160a01b0319166001600160a01b039092169190911790555050600b93909355600c91909155600d55600e55506102c692505050565b3390565b610f2f806102d56000396000f3fe608060405234801561001057600080fd5b50600436106101425760003560e01c80638da5cb5b116100b8578063e68e276d1161007c578063e68e276d1461033a578063ee575c2814610360578063f2fde38b14610368578063f51b7ab91461038e578063f7e9dfff14610396578063fd5e6dd11461039e57610142565b80638da5cb5b146102c2578063b18ac918146102ca578063b7bc347e146102d2578063cbe230c3146102da578063db2da48c1461031457610142565b80633bcfc4b81161010a5780633bcfc4b8146101e357806357ac94f0146101eb5780635c1c20de1461023a5780635e5f2e26146102425780636f265a341461027b578063715018a6146102ba57610142565b80630c5160f414610147578063171e44ea146101615780631fc2cd93146101895780632eb8197a146101af57806333df1541146101b7575b600080fd5b61014f6103bb565b60408051918252519081900360200190f35b6101876004803603602081101561017757600080fd5b50356001600160a01b03166103c1565b005b6101876004803603602081101561019f57600080fd5b50356001600160a01b03166105d1565b61014f610838565b61014f600480360360408110156101cd57600080fd5b50803590602001356001600160a01b031661083e565b61014f61085b565b6102176004803603604081101561020157600080fd5b506001600160a01b038135169060200135610861565b604080516001600160a01b03909316835260208301919091528051918290030190f35b61014f6108af565b61025f6004803603602081101561025857600080fd5b50356108b5565b604080516001600160a01b039092168252519081900360200190f35b6102a16004803603602081101561029157600080fd5b50356001600160a01b03166108dc565b6040805192835260208301919091528051918290030190f35b610187610941565b61025f6109e3565b61014f6109f2565b61014f6109f8565b610300600480360360208110156102f057600080fd5b50356001600160a01b03166109fe565b604080519115158252519081900360200190f35b61014f6004803603602081101561032a57600080fd5b50356001600160a01b0316610a5b565b61014f6004803603602081101561035057600080fd5b50356001600160a01b0316610a6d565b61014f610a7f565b6101876004803603602081101561037e57600080fd5b50356001600160a01b0316610a85565b61014f610b7d565b61025f610b83565b61025f600480360360208110156103b457600080fd5b5035610b92565b60125481565b6103c9610b9f565b6000546001600160a01b03908116911614610419576040805162461bcd60e51b81526020600482018190526024820152600080516020610e34833981519152604482015290519081900360640190fd5b610422816109fe565b1561046a576040805162461bcd60e51b8152602060048201526013602482015272151bdad95b88185b1c9958591e481859191959606a1b604482015290519081900360640190fd5b6001546040805163cbe230c360e01b81526001600160a01b0384811660048301529151919092169163cbe230c3916024808301926020929190829003018186803b1580156104b757600080fd5b505afa1580156104cb573d6000803e3d6000fd5b505050506040513d60208110156104e157600080fd5b505115156001146105235760405162461bcd60e51b815260040180806020018281038252602d815260200180610dac602d913960400191505060405180910390fd5b60095460009061053b906001600160a01b03166108dc565b509050600c54811161057e5760405162461bcd60e51b815260040180806020018281038252603f815260200180610e96603f913960400191505060405180910390fd5b50600a80546001810182556000919091527fc65a7bb8d6351c1cf70c95a316cc6a92839c986682d98bc35f958f4883f9d2a80180546001600160a01b0319166001600160a01b0392909216919091179055565b6105d96109e3565b6001600160a01b0316336001600160a01b031614156106295760405162461bcd60e51b8152600401808060200182810382526025815260200180610ed56025913960400191505060405180910390fd5b6001600160a01b0381166000908152600460209081526040808320338452909152902054612710908061068d5760405162461bcd60e51b815260040180806020018281038252603a815260200180610dd9603a913960400191505060405180910390fd5b6001600160a01b0383166000908152600560205260408120546106ba906106b48486610ba3565b90610c05565b6001600160a01b038516600090815260066020526040812054919250906106e79085906106b49085610ba3565b6040805163a9059cbb60e01b815233600482015260028302602482015290519192506000916001600160a01b0388169163a9059cbb91604480830192602092919082900301818787803b15801561073d57600080fd5b505af1158015610751573d6000803e3d6000fd5b505050506040513d602081101561076757600080fd5b505190506001811515146107ac5760405162461bcd60e51b8152600401808060200182810382526042815260200180610e546042913960600191505060405180910390fd5b6001600160a01b0386166000908152600560205260409020546107cf9085610c47565b6001600160a01b0387166000908152600560209081526040808320939093556006905220546107fe9083610c47565b6001600160a01b03909616600090815260066020908152604080832098909855600481528782203383529052958620959095555050505050565b600e5481565b600760209081526000928352604080842090915290825290205481565b600f5481565b6000806000600a848154811061087357fe5b6000918252602080832091909101546001600160a01b039081168084526004835260408085209990921684529790915290205494959350505050565b600b5481565b600a81815481106108c257fe5b6000918252602090912001546001600160a01b0316905081565b6001600160a01b03811660009081526004602052604081208190816108ff6109e3565b6001600160a01b03908116825260208083019390935260409182016000908120549187168152600390935291205490925061093a9083610c47565b9050915091565b610949610b9f565b6000546001600160a01b03908116911614610999576040805162461bcd60e51b81526020600482018190526024820152600080516020610e34833981519152604482015290519081900360640190fd5b600080546040516001600160a01b03909116907f8be0079c531659141344cd1fd0a4f28419497f9722a3daafe3b4186f6b6457e0908390a3600080546001600160a01b0319169055565b6000546001600160a01b031690565b600d5481565b600a5490565b6000805b600a54811015610a5057826001600160a01b0316600a8281548110610a2357fe5b6000918252602090912001546001600160a01b03161415610a48576001915050610a56565b600101610a02565b50600090505b919050565b60066020526000908152604090205481565b60056020526000908152604090205481565b600c5481565b610a8d610b9f565b6000546001600160a01b03908116911614610add576040805162461bcd60e51b81526020600482018190526024820152600080516020610e34833981519152604482015290519081900360640190fd5b6001600160a01b038116610b225760405162461bcd60e51b8152600401808060200182810382526026815260200180610d866026913960400191505060405180910390fd5b600080546040516001600160a01b03808516939216917f8be0079c531659141344cd1fd0a4f28419497f9722a3daafe3b4186f6b6457e091a3600080546001600160a01b0319166001600160a01b0392909216919091179055565b60105481565b6009546001600160a01b031681565b600881815481106108c257fe5b3390565b600082610bb257506000610bff565b82820282848281610bbf57fe5b0414610bfc5760405162461bcd60e51b8152600401808060200182810382526021815260200180610e136021913960400191505060405180910390fd5b90505b92915050565b6000610bfc83836040518060400160405280601a81526020017f536166654d6174683a206469766973696f6e206279207a65726f000000000000815250610c89565b6000610bfc83836040518060400160405280601e81526020017f536166654d6174683a207375627472616374696f6e206f766572666c6f770000815250610d2b565b60008183610d155760405162461bcd60e51b81526004018080602001828103825283818151815260200191508051906020019080838360005b83811015610cda578181015183820152602001610cc2565b50505050905090810190601f168015610d075780820380516001836020036101000a031916815260200191505b509250505060405180910390fd5b506000838581610d2157fe5b0495945050505050565b60008184841115610d7d5760405162461bcd60e51b8152602060048201818152835160248401528351909283926044909101919085019080838360008315610cda578181015183820152602001610cc2565b50505090039056fe4f776e61626c653a206e6577206f776e657220697320746865207a65726f2061646472657373546f6b656e206e6f7420616c6c6f7765642062792074686520534c41526567697374727920636f6e747261637443616e206f6e6c7920636c61696d206120636f6d70656e736174696f6e20696620706f736974696f6e20697320626967676572207468616e2030536166654d6174683a206d756c7469706c69636174696f6e206f766572666c6f774f776e61626c653a2063616c6c6572206973206e6f7420746865206f776e65725472616e736665722070726f636573732066726f6d20534c4120636f6e747261637420746f206d73672e73656e64657220776173206e6f742073756363657366756c53686f756c64207374616b65206174206c65617374206d696e696d756d44534c415374616b6564546965723120746f206164642061206e657720746f6b656e53686f756c64206e6f742062652063616c6c65642062792074686520534c41206f776e6572a2646970667358221220a8d847db76889239d45817fdcde77719351c90733d6083ba960805e98246cb5c64736f6c634300060c0033",
  "immutableReferences": {},
  "source": "// SPDX-License-Identifier: MIT\npragma solidity ^0.6.0;\n\nimport \"@openzeppelin/contracts/token/ERC20/IERC20.sol\";\nimport \"@openzeppelin/contracts/access/Ownable.sol\";\nimport \"@openzeppelin/contracts/math/SafeMath.sol\";\nimport \"./StakeRegistry.sol\";\nimport \"./PeriodRegistry.sol\";\n\ncontract Staking is Ownable {\n    using SafeMath for uint256;\n\n    /// @dev StakeRegistry contract\n    StakeRegistry private stakeRegistry;\n    /// @dev SLARegistry contract\n    PeriodRegistry private periodRegistry;\n\n    /// @dev (tokenAddress=>uint256) total pooled token balance\n    mapping(address => uint256) tokenPools;\n    /// @dev (tokenAddress=>stakerAddress=>uint256) staker position to represent his proportion staked\n    mapping(address => mapping(address => uint256)) stakeHoldersPositions;\n    /// @dev (tokenAddress=>uint256) used to keep track of the stakes of the users, to calculate proportion of compensation pool\n    mapping(address => uint256) public usersTotalPositions;\n    /// @dev (tokenAddress=>uint256) users available compensation per token\n    mapping(address => uint256) public usersCompensationPools;\n    /// @dev (periodId=>tokenAddress=>uint256) provider compensation per period and per token\n    mapping(uint256 => mapping(address => uint256))\n        public providerPeriodsRewards;\n    /// @dev address[] of the stakers of the SLA contract\n    address[] public stakers;\n    /// @dev DSLA token address to burn fees\n    address public dslaTokenAddress;\n    /// @dev array with the allowed tokens addresses for the current SLA\n    address[] public allowedTokens;\n\n    /// @dev corresponds to the burn rate of DSLA tokens, but divided by 1000 i.e burn percentage = burnRate/1000 %\n    uint256 public DSLAburnRate;\n    /// @dev minimum deposit for Tier 1 staking\n    uint256 public minimumDSLAStakedTier1;\n    /// @dev minimum deposit for Tier 2 staking\n    uint256 public minimumDSLAStakedTier2;\n    /// @dev minimum deposit for Tier 3 staking\n    uint256 public minimumDSLAStakedTier3;\n\n    /// @dev PeriodRegistry defined apy\n    uint256 public apy;\n    /// @dev PeriodRegistry defined amount of periods over a year\n    uint256 public yearlyPeriods;\n    /// @dev PeriodRegistry period type of the SLA contract\n    PeriodRegistry.PeriodType private periodType;\n    /// @dev length of the _periodIds array, to state effective APY\n    uint256 public slaPeriodsLength;\n\n    modifier notOwner {\n        require(msg.sender != owner(), \"Should not be called by the SLA owner\");\n        _;\n    }\n\n    modifier onlyAllowedToken(address _token) {\n        require(isAllowedToken(_token) == true, \"token is not allowed\");\n        _;\n    }\n\n    /**\n     *@param _stakeRegistry 1. address of the base token\n     */\n    constructor(\n        address _stakeRegistry,\n        address _periodRegistry,\n        PeriodRegistry.PeriodType _periodType,\n        uint256 _slaPeriodsLength\n    ) public {\n        stakeRegistry = StakeRegistry(_stakeRegistry);\n        periodRegistry = PeriodRegistry(_periodRegistry);\n        periodType = _periodType;\n        slaPeriodsLength = _slaPeriodsLength;\n        (\n            uint256 _DSLAburnRate,\n            uint256 _minimumDSLAStakedTier1,\n            uint256 _minimumDSLAStakedTier2,\n            uint256 _minimumDSLAStakedTier3\n        ) = stakeRegistry.getStakingParameters();\n        (uint256 _apy, uint256 _yearlyPeriods, , ) =\n            periodRegistry.periodDefinitions(_periodType);\n        apy = _apy;\n        yearlyPeriods = _yearlyPeriods;\n        dslaTokenAddress = stakeRegistry.DSLATokenAddress();\n        DSLAburnRate = _DSLAburnRate;\n        minimumDSLAStakedTier1 = _minimumDSLAStakedTier1;\n        minimumDSLAStakedTier2 = _minimumDSLAStakedTier2;\n        minimumDSLAStakedTier3 = _minimumDSLAStakedTier3;\n    }\n\n    /**\n     *@dev add a token to ve allowed for staking\n     *@param _tokenAddress 1. address of the new allowed token\n     */\n    function addAllowedTokens(address _tokenAddress) public onlyOwner {\n        require(isAllowedToken(_tokenAddress) == false, \"Token already added\");\n        require(\n            stakeRegistry.isAllowedToken(_tokenAddress) == true,\n            \"Token not allowed by the SLARegistry contract\"\n        );\n        (uint256 providerStake, ) = getStakeholdersPositions(dslaTokenAddress);\n        require(\n            providerStake > minimumDSLAStakedTier1,\n            \"Should stake at least minimumDSLAStakedTier1 to add a new token\"\n        );\n        allowedTokens.push(_tokenAddress);\n    }\n\n    /**\n     *@dev increase the amount staked per token\n     *@param _amount 1. amount to be staked\n     *@param _tokenAddress 2. address of the token\n     *@notice providers can stake at any time\n     *@notice users can stake at any time but no more than provider pool\n     */\n    function _stake(uint256 _amount, address _tokenAddress)\n        internal\n        onlyAllowedToken(_tokenAddress)\n    {\n        if (msg.sender != owner()) {\n            (uint256 providerStake, uint256 usersStake) =\n                getStakeholdersPositions(_tokenAddress);\n            require(\n                usersStake.add(_amount) <= providerStake,\n                \"Cannot stake more than SLA providerstake\"\n            );\n        }\n        bool success =\n            IERC20(_tokenAddress).transferFrom(\n                msg.sender,\n                address(this),\n                _amount\n            );\n        require(success == true, \"Staking process was not succesful\");\n        tokenPools[_tokenAddress] = tokenPools[_tokenAddress].add(_amount);\n        stakeHoldersPositions[_tokenAddress][\n            msg.sender\n        ] = stakeHoldersPositions[_tokenAddress][msg.sender].add(_amount);\n        if (!_isStaker(msg.sender)) {\n            stakers.push(msg.sender);\n        }\n        // after staking successfully, increase the usersTotalPositions of the token\n        if (msg.sender != owner()) {\n            usersTotalPositions[_tokenAddress] = usersTotalPositions[\n                _tokenAddress\n            ]\n                .add(_amount);\n        }\n    }\n\n    /**\n     *@dev withdraw staked tokens\n     *@param _amount 1. amount to withdraw\n     *@param _tokenAddress 2. address of the token\n     */\n    function _withdraw(uint256 _amount, address _tokenAddress)\n        internal\n        onlyAllowedToken(_tokenAddress)\n    {\n        require(\n            stakeHoldersPositions[_tokenAddress][msg.sender] >= _amount,\n            \"Should not withdraw more stake than staked\"\n        );\n        tokenPools[_tokenAddress] = tokenPools[_tokenAddress].sub(_amount);\n        stakeHoldersPositions[_tokenAddress][\n            msg.sender\n        ] = stakeHoldersPositions[_tokenAddress][msg.sender].sub(_amount);\n\n        bool success = IERC20(_tokenAddress).transfer(msg.sender, _amount);\n        require(success == true, \"Stake withdraw was not succesful\");\n    }\n\n    /**\n     *@dev sets the provider reward\n     *@notice it calculates the usersStake and calculates the provider reward from it.\n     * Then it subtract the reward from the users stake, by adding the reward to the\n     * owner position without decreasing the tokenPool size\n     */\n    function _setRespectedPeriodReward(uint256 _periodId) internal {\n        for (uint256 index = 0; index < allowedTokens.length; index++) {\n            address tokenAddress = allowedTokens[index];\n            (, uint256 usersStake) = getStakeholdersPositions(tokenAddress);\n            uint256 precision = 10000;\n            uint256 providerRewardPercentage =\n                slaPeriodsLength.mul(precision).mul(apy).div(yearlyPeriods);\n            uint256 reward =\n                usersStake.mul(providerRewardPercentage).div(100 * precision);\n            if (tokenAddress == dslaTokenAddress) {\n                uint256 fees = _burnDSLATokens(reward);\n                reward.sub(fees);\n            }\n            stakeHoldersPositions[tokenAddress][\n                owner()\n            ] = stakeHoldersPositions[tokenAddress][owner()].add(reward);\n            providerPeriodsRewards[_periodId][tokenAddress] = reward;\n        }\n    }\n\n    /**\n     *@dev sets the users compensation pool\n     *@notice it calculates the usersStake and calculates the users compensation from it\n     * then it subtract it from the provider stake, to compensate users with a compensation pool\n     */\n    function _setUsersCompensationPool() internal {\n        for (uint256 index = 0; index < allowedTokens.length; index++) {\n            address tokenAddress = allowedTokens[index];\n            (, uint256 usersStake) = getStakeholdersPositions(tokenAddress);\n            uint256 compensation = usersStake;\n            if (tokenAddress == dslaTokenAddress) {\n                uint256 fees = _burnDSLATokens(compensation);\n                compensation.sub(fees);\n            }\n            tokenPools[tokenAddress] = tokenPools[tokenAddress].sub(\n                compensation\n            );\n            // discount the compensation from the provider position\n            stakeHoldersPositions[tokenAddress][\n                owner()\n            ] = stakeHoldersPositions[tokenAddress][owner()].sub(compensation);\n            usersCompensationPools[tokenAddress] = usersCompensationPools[\n                tokenAddress\n            ]\n                .add(compensation);\n        }\n    }\n\n    /**\n     *@dev claim user compensation. Transfers both the compensation and the user remaining stake.\n     *@param _tokenAddress 1. address of the token to claim compensation\n     *@notice it uses the user position and the user total position per token to check\n     * the proportion of the compensation pool that corresponds to every user\n     */\n    function _claimCompensation(address _tokenAddress) public notOwner {\n        uint256 precision = 10000;\n        uint256 userPosition = stakeHoldersPositions[_tokenAddress][msg.sender];\n        require(\n            userPosition > 0,\n            \"Can only claim a compensation if position is bigger than 0\"\n        );\n        // userPosition[tokenAddress]/usersTotalPositions[tokenAddress] is the proportion\n        // of the compensation pool to be delivered.\n        uint256 userCompensationPercentage =\n            userPosition.mul(precision).div(usersTotalPositions[_tokenAddress]);\n        uint256 userCompensation =\n            usersCompensationPools[_tokenAddress]\n                .mul(userCompensationPercentage)\n                .div(precision);\n        // transfers the user compensation times two, to return compensation and remaining stake\n        bool success =\n            IERC20(_tokenAddress).transfer(msg.sender, userCompensation * 2);\n        require(\n            success == true,\n            \"Transfer process from SLA contract to msg.sender was not succesful\"\n        );\n        usersTotalPositions[_tokenAddress] = usersTotalPositions[_tokenAddress]\n            .sub(userPosition);\n        usersCompensationPools[_tokenAddress] = usersCompensationPools[\n            _tokenAddress\n        ]\n            .sub(userCompensation);\n        stakeHoldersPositions[_tokenAddress][msg.sender] = 0;\n    }\n\n    /**\n     *@dev gets the positions of stake both for provider and for users\n     *@param _tokenAddress 1. token address to get the positions\n     *@return providerStake position of the provider (owner) of the SLA contract\n     *@return usersStake position of the user of the SLA contract\n     */\n    function getStakeholdersPositions(address _tokenAddress)\n        public\n        view\n        returns (uint256 providerStake, uint256 usersStake)\n    {\n        providerStake = stakeHoldersPositions[_tokenAddress][owner()];\n        usersStake = tokenPools[_tokenAddress].sub(providerStake);\n    }\n\n    function _isStaker(address _staker) internal view returns (bool) {\n        for (uint256 index = 0; index < stakers.length; index++) {\n            if (stakers[index] == _staker) return true;\n        }\n        return false;\n    }\n\n    function getAllowedTokensLength() public view returns (uint256) {\n        return allowedTokens.length;\n    }\n\n    function getTokenStake(address _staker, uint256 _allowedTokenIndex)\n        public\n        view\n        returns (address tokenAddress, uint256 stake)\n    {\n        address allowedTokenAddress = allowedTokens[_allowedTokenIndex];\n        return (\n            allowedTokenAddress,\n            stakeHoldersPositions[allowedTokenAddress][_staker]\n        );\n    }\n\n    function isAllowedToken(address _tokenAddress) public view returns (bool) {\n        for (uint256 index = 0; index < allowedTokens.length; index++) {\n            if (allowedTokens[index] == _tokenAddress) {\n                return true;\n            }\n        }\n        return false;\n    }\n\n    function _burnDSLATokens(uint256 _amount) internal returns (uint256 fees) {\n        bytes4 BURN_SELECTOR = bytes4(keccak256(bytes(\"burn(uint256)\")));\n        fees = _amount.mul(DSLAburnRate).div(1000);\n        (bool _success, ) =\n            dslaTokenAddress.call(abi.encodeWithSelector(BURN_SELECTOR, fees));\n        require(_success, \"DSLA burn process was not successful\");\n        tokenPools[dslaTokenAddress] = tokenPools[dslaTokenAddress].sub(fees);\n    }\n}\n",
  "sourcePath": "/Users/matiasbn/Desktop/stacktical/stacktical-dsla-contracts/contracts/Staking.sol",
  "compiler": {
    "name": "solc",
    "version": "0.6.12+commit.27d51765.Emscripten.clang"
  },
  "schemaVersion": "3.3.3",
  "updatedAt": "2021-02-14T09:57:15.506Z",
  "devdoc": {
    "kind": "dev",
    "methods": {
      "_claimCompensation(address)": {
        "details": "claim user compensation. Transfers both the compensation and the user remaining stake.",
        "params": {
          "_tokenAddress": "1. address of the token to claim compensation"
        }
      },
      "addAllowedTokens(address)": {
        "details": "add a token to ve allowed for staking",
        "params": {
          "_tokenAddress": "1. address of the new allowed token"
        }
      },
      "constructor": {
        "params": {
          "_stakeRegistry": "1. address of the base token"
        }
      },
      "getStakeholdersPositions(address)": {
        "details": "gets the positions of stake both for provider and for users",
        "params": {
          "_tokenAddress": "1. token address to get the positions"
        },
        "returns": {
          "providerStake": "position of the provider (owner) of the SLA contract",
          "usersStake": "position of the user of the SLA contract"
        }
      },
      "owner()": {
        "details": "Returns the address of the current owner."
      },
      "renounceOwnership()": {
        "details": "Leaves the contract without owner. It will not be possible to call `onlyOwner` functions anymore. Can only be called by the current owner. NOTE: Renouncing ownership will leave the contract without an owner, thereby removing any functionality that is only available to the owner."
      },
      "transferOwnership(address)": {
        "details": "Transfers ownership of the contract to a new account (`newOwner`). Can only be called by the current owner."
      }
    },
    "stateVariables": {
      "DSLAburnRate": {
        "details": "corresponds to the burn rate of DSLA tokens, but divided by 1000 i.e burn percentage = burnRate/1000 %"
      },
      "allowedTokens": {
        "details": "array with the allowed tokens addresses for the current SLA"
      },
      "apy": {
        "details": "PeriodRegistry defined apy"
      },
      "dslaTokenAddress": {
        "details": "DSLA token address to burn fees"
      },
      "minimumDSLAStakedTier1": {
        "details": "minimum deposit for Tier 1 staking"
      },
      "minimumDSLAStakedTier2": {
        "details": "minimum deposit for Tier 2 staking"
      },
      "minimumDSLAStakedTier3": {
        "details": "minimum deposit for Tier 3 staking"
      },
      "periodRegistry": {
        "details": "SLARegistry contract"
      },
      "periodType": {
        "details": "PeriodRegistry period type of the SLA contract"
      },
      "providerPeriodsRewards": {
        "details": "(periodId=>tokenAddress=>uint256) provider compensation per period and per token"
      },
      "slaPeriodsLength": {
        "details": "length of the _periodIds array, to state effective APY"
      },
      "stakeHoldersPositions": {
        "details": "(tokenAddress=>stakerAddress=>uint256) staker position to represent his proportion staked"
      },
      "stakeRegistry": {
        "details": "StakeRegistry contract"
      },
      "stakers": {
        "details": "address[] of the stakers of the SLA contract"
      },
      "tokenPools": {
        "details": "(tokenAddress=>uint256) total pooled token balance"
      },
      "usersCompensationPools": {
        "details": "(tokenAddress=>uint256) users available compensation per token"
      },
      "usersTotalPositions": {
        "details": "(tokenAddress=>uint256) used to keep track of the stakes of the users, to calculate proportion of compensation pool"
      },
      "yearlyPeriods": {
        "details": "PeriodRegistry defined amount of periods over a year"
      }
    },
    "version": 1
  },
  "userdoc": {
    "kind": "user",
    "methods": {
      "_claimCompensation(address)": {
        "notice": "it uses the user position and the user total position per token to check the proportion of the compensation pool that corresponds to every user"
      }
    },
    "version": 1
  }
}