{
  "contractName": "StakeRegistry",
  "abi": [
    {
      "inputs": [
        {
          "internalType": "address",
          "name": "_dslaTokenAddress",
          "type": "address"
        }
      ],
      "stateMutability": "nonpayable",
      "type": "constructor"
    },
    {
      "anonymous": false,
      "inputs": [
        {
          "indexed": true,
          "internalType": "address",
          "name": "previousOwner",
          "type": "address"
        },
        {
          "indexed": true,
          "internalType": "address",
          "name": "newOwner",
          "type": "address"
        }
      ],
      "name": "OwnershipTransferred",
      "type": "event"
    },
    {
      "anonymous": false,
      "inputs": [
        {
          "indexed": false,
          "internalType": "uint256",
          "name": "DSLAburnRate",
          "type": "uint256"
        },
        {
          "indexed": false,
          "internalType": "uint256",
          "name": "minimumDSLAStakedTier1",
          "type": "uint256"
        },
        {
          "indexed": false,
          "internalType": "uint256",
          "name": "minimumDSLAStakedTier2",
          "type": "uint256"
        },
        {
          "indexed": false,
          "internalType": "uint256",
          "name": "minimumDSLAStakedTier3",
          "type": "uint256"
        }
      ],
      "name": "StakingParametersModified",
      "type": "event"
    },
    {
      "inputs": [],
      "name": "DSLATokenAddress",
      "outputs": [
        {
          "internalType": "address",
          "name": "",
          "type": "address"
        }
      ],
      "stateMutability": "view",
      "type": "function"
    },
    {
      "inputs": [
        {
          "internalType": "uint256",
          "name": "",
          "type": "uint256"
        }
      ],
      "name": "allowedTokens",
      "outputs": [
        {
          "internalType": "address",
          "name": "",
          "type": "address"
        }
      ],
      "stateMutability": "view",
      "type": "function"
    },
    {
      "inputs": [],
      "name": "owner",
      "outputs": [
        {
          "internalType": "address",
          "name": "",
          "type": "address"
        }
      ],
      "stateMutability": "view",
      "type": "function"
    },
    {
      "inputs": [],
      "name": "renounceOwnership",
      "outputs": [],
      "stateMutability": "nonpayable",
      "type": "function"
    },
    {
      "inputs": [
        {
          "internalType": "address",
          "name": "newOwner",
          "type": "address"
        }
      ],
      "name": "transferOwnership",
      "outputs": [],
      "stateMutability": "nonpayable",
      "type": "function"
    },
    {
      "inputs": [
        {
          "internalType": "address",
          "name": "",
          "type": "address"
        },
        {
          "internalType": "uint256",
          "name": "",
          "type": "uint256"
        }
      ],
      "name": "userStakedSlas",
      "outputs": [
        {
          "internalType": "contract SLA",
          "name": "",
          "type": "address"
        }
      ],
      "stateMutability": "view",
      "type": "function"
    },
    {
      "inputs": [
        {
          "internalType": "address",
          "name": "_tokenAddress",
          "type": "address"
        }
      ],
      "name": "addAllowedTokens",
      "outputs": [],
      "stateMutability": "nonpayable",
      "type": "function"
    },
    {
      "inputs": [
        {
          "internalType": "address",
          "name": "_tokenAddress",
          "type": "address"
        }
      ],
      "name": "isAllowedToken",
      "outputs": [
        {
          "internalType": "bool",
          "name": "",
          "type": "bool"
        }
      ],
      "stateMutability": "view",
      "type": "function"
    },
    {
      "inputs": [],
      "name": "getStakingParameters",
      "outputs": [
        {
          "internalType": "uint256",
          "name": "DSLAburnRate",
          "type": "uint256"
        },
        {
          "internalType": "uint256",
          "name": "minimumDSLAStakedTier1",
          "type": "uint256"
        },
        {
          "internalType": "uint256",
          "name": "minimumDSLAStakedTier2",
          "type": "uint256"
        },
        {
          "internalType": "uint256",
          "name": "minimumDSLAStakedTier3",
          "type": "uint256"
        }
      ],
      "stateMutability": "view",
      "type": "function"
    },
    {
      "inputs": [
        {
          "internalType": "address",
          "name": "_user",
          "type": "address"
        },
        {
          "internalType": "address",
          "name": "_sla",
          "type": "address"
        }
      ],
      "name": "slaWasStakedByUser",
      "outputs": [
        {
          "internalType": "bool",
          "name": "",
          "type": "bool"
        }
      ],
      "stateMutability": "view",
      "type": "function"
    },
    {
      "inputs": [
        {
          "internalType": "address",
          "name": "_owner",
          "type": "address"
        },
        {
          "internalType": "address",
          "name": "_slaRegistry",
          "type": "address"
        }
      ],
      "name": "registerStakedSla",
      "outputs": [
        {
          "internalType": "bool",
          "name": "",
          "type": "bool"
        }
      ],
      "stateMutability": "nonpayable",
      "type": "function"
    },
    {
      "inputs": [
        {
          "internalType": "address",
          "name": "_slaOwner",
          "type": "address"
        }
      ],
      "name": "getActivePool",
      "outputs": [
        {
          "components": [
            {
              "internalType": "address",
              "name": "SLAAddress",
              "type": "address"
            },
            {
              "internalType": "uint256",
              "name": "stake",
              "type": "uint256"
            },
            {
              "internalType": "string",
              "name": "assetName",
              "type": "string"
            },
            {
              "internalType": "address",
              "name": "assetAddress",
              "type": "address"
            }
          ],
          "internalType": "struct StakeRegistry.ActivePool[]",
          "name": "",
          "type": "tuple[]"
        }
      ],
      "stateMutability": "view",
      "type": "function"
    },
    {
      "inputs": [
        {
          "internalType": "uint256",
          "name": "DSLAburnRate",
          "type": "uint256"
        },
        {
          "internalType": "uint256",
          "name": "minimumDSLAStakedTier1",
          "type": "uint256"
        },
        {
          "internalType": "uint256",
          "name": "minimumDSLAStakedTier2",
          "type": "uint256"
        },
        {
          "internalType": "uint256",
          "name": "minimumDSLAStakedTier3",
          "type": "uint256"
        }
      ],
      "name": "setStakingParameters",
      "outputs": [],
      "stateMutability": "nonpayable",
      "type": "function"
    }
  ],
  "bytecode": "0x6080604052600360025568a2a15d09519be0000060035569014542ba12a337c000006004556901e7e4171bf4d3a0000060055534801561003e57600080fd5b5060405161103538038061103583398101604081905261005d91610111565b600061006761010d565b600080546001600160a01b0319166001600160a01b0383169081178255604051929350917f8be0079c531659141344cd1fd0a4f28419497f9722a3daafe3b4186f6b6457e0908290a350600180546001600160a01b039092166001600160a01b0319928316811782556006805492830181556000527ff652222313e28459528d920b65115c16c04f3efc82aaedc97be59f3f377c0d3f909101805490921617905561013f565b3390565b600060208284031215610122578081fd5b81516001600160a01b0381168114610138578182fd5b9392505050565b610ee78061014e6000396000f3fe608060405234801561001057600080fd5b50600436106100bf5760003560e01c80638da5cb5b1161007c5780638da5cb5b14610145578063a3f5cadf1461014d578063b2af789d14610160578063cbe230c314610173578063f2c0dfd414610186578063f2fde38b146101a6578063f700839e146101b9576100bf565b80630df0bfc6146100c4578063171e44ea146100ed5780635e5f2e2614610102578063715018a614610122578063785238971461012a5780638b8e53091461013d575b600080fd5b6100d76100d2366004610b25565b6101d1565b6040516100e49190610d32565b60405180910390f35b6101006100fb366004610b09565b610257565b005b610115610110366004610bd5565b61030d565b6040516100e49190610c52565b610100610334565b6100d7610138366004610b25565b6103b3565b6101156104a6565b6101156104b5565b61011561015b366004610b5d565b6104c4565b61010061016e366004610c05565b6104f9565b6100d7610181366004610b09565b610586565b610199610194366004610b09565b6105e3565b6040516100e49190610c7f565b6101006101b4366004610b09565b6109d5565b6101c1610a8b565b6040516100e49493929190610e4e565b6000805b6001600160a01b03841660009081526007602052604090205481101561024b576001600160a01b0384811660009081526007602052604090208054918516918390811061021e57fe5b6000918252602090912001546001600160a01b03161415610243576001915050610251565b6001016101d5565b50600090505b92915050565b61025f610a9f565b6000546001600160a01b039081169116146102955760405162461bcd60e51b815260040161028c90610e19565b60405180910390fd5b61029e81610586565b156102bb5760405162461bcd60e51b815260040161028c90610dec565b600680546001810182556000919091527ff652222313e28459528d920b65115c16c04f3efc82aaedc97be59f3f377c0d3f0180546001600160a01b0319166001600160a01b0392909216919091179055565b6006818154811061031a57fe5b6000918252602090912001546001600160a01b0316905081565b61033c610a9f565b6000546001600160a01b039081169116146103695760405162461bcd60e51b815260040161028c90610e19565b600080546040516001600160a01b03909116907f8be0079c531659141344cd1fd0a4f28419497f9722a3daafe3b4186f6b6457e0908390a3600080546001600160a01b0319169055565b60405163c4277a7b60e01b815260009082906001600160a01b0382169063c4277a7b906103e4903390600401610c52565b60206040518083038186803b1580156103fc57600080fd5b505afa158015610410573d6000803e3d6000fd5b505050506040513d601f19601f820116820180604052508101906104349190610bb5565b15156001146104555760405162461bcd60e51b815260040161028c90610d3d565b61045f84336101d1565b61049c576001600160a01b03841660009081526007602090815260408220805460018101825590835291200180546001600160a01b031916331790555b5060019392505050565b6001546001600160a01b031681565b6000546001600160a01b031690565b600760205281600052604060002081815481106104dd57fe5b6000918252602090912001546001600160a01b03169150829050565b610501610a9f565b6000546001600160a01b0390811691161461052e5760405162461bcd60e51b815260040161028c90610e19565b60028490556003839055600482905560058190556040517f88d4944533324114a43d5a08b217165d558c2e687efd4967d2fbdd12c8b266e690610578908690869086908690610e4e565b60405180910390a150505050565b6000805b6006548110156105d857826001600160a01b0316600682815481106105ab57fe5b6000918252602090912001546001600160a01b031614156105d05760019150506105de565b60010161058a565b50600090505b919050565b6040805180820190915260068152656e616d65282960d01b60209091015260607f06fdde0383f15d582d1a74511486c9ddf862a882fb7904b3d9fe9b8b8e58a7966000805b6001600160a01b038516600090815260076020526040902054811015610712576001600160a01b038516600090815260076020526040812080548390811061066c57fe5b9060005260206000200160009054906101000a90046001600160a01b03169050610707816001600160a01b031663b7bc347e6040518163ffffffff1660e01b815260040160206040518083038186803b1580156106c857600080fd5b505afa1580156106dc573d6000803e3d6000fd5b505050506040513d601f19601f820116820180604052508101906107009190610bed565b8490610aa3565b925050600101610628565b5060608167ffffffffffffffff8111801561072c57600080fd5b5060405190808252806020026020018201604052801561076657816020015b610753610acf565b81526020019060019003908161074b5790505b5090506000805b6001600160a01b0387166000908152600760205260409020548110156109ca576001600160a01b03871660009081526007602052604081208054839081106107b157fe5b60009182526020822001546001600160a01b031691505b816001600160a01b031663b7bc347e6040518163ffffffff1660e01b815260040160206040518083038186803b15801561080157600080fd5b505afa158015610815573d6000803e3d6000fd5b505050506040513d601f19601f820116820180604052508101906108399190610bed565b8110156109c057600080836001600160a01b03166357ac94f08c856040518363ffffffff1660e01b8152600401610871929190610c66565b604080518083038186803b15801561088857600080fd5b505afa15801561089c573d6000803e3d6000fd5b505050506040513d601f19601f820116820180604052508101906108c09190610b88565b60408051600481526024810182526020810180516001600160e01b03166001600160e01b03198f1617905290519294509092506060916001600160a01b0385169161090a91610c36565b600060405180830381855afa9150503d8060008114610945576040519150601f19603f3d011682016040523d82523d6000602084013e61094a565b606091505b50915050610956610acf565b6040518060800160405280876001600160a01b03168152602001848152602001838152602001856001600160a01b031681525090508089898151811061099857fe5b60209081029190910101526109ae886001610aa3565b975050600190930192506107c8915050565b505060010161076d565b509095945050505050565b6109dd610a9f565b6000546001600160a01b03908116911614610a0a5760405162461bcd60e51b815260040161028c90610e19565b6001600160a01b038116610a305760405162461bcd60e51b815260040161028c90610d6f565b600080546040516001600160a01b03808516939216917f8be0079c531659141344cd1fd0a4f28419497f9722a3daafe3b4186f6b6457e091a3600080546001600160a01b0319166001600160a01b0392909216919091179055565b600254600354600454600554929391929091565b3390565b600082820183811015610ac85760405162461bcd60e51b815260040161028c90610db5565b9392505050565b604051806080016040528060006001600160a01b03168152602001600081526020016060815260200160006001600160a01b031681525090565b600060208284031215610b1a578081fd5b8135610ac881610e99565b60008060408385031215610b37578081fd5b8235610b4281610e99565b91506020830135610b5281610e99565b809150509250929050565b60008060408385031215610b6f578182fd5b8235610b7a81610e99565b946020939093013593505050565b60008060408385031215610b9a578182fd5b8251610ba581610e99565b6020939093015192949293505050565b600060208284031215610bc6578081fd5b81518015158114610ac8578182fd5b600060208284031215610be6578081fd5b5035919050565b600060208284031215610bfe578081fd5b5051919050565b60008060008060808587031215610c1a578182fd5b5050823594602084013594506040840135936060013592509050565b60008251610c48818460208701610e69565b9190910192915050565b6001600160a01b0391909116815260200190565b6001600160a01b03929092168252602082015260400190565b60208082528251828201819052600091906040908185019080840286018301878501865b83811015610d2457888303603f19018552815180516001600160a01b0390811685528882015189860152878201516080898701819052815190870181905260a0929190610cf581858a01848f01610e69565b6060948501519092169387019390935296890196601f01601f1916909401909301925090860190600101610ca3565b509098975050505050505050565b901515815260200190565b6020808252601890820152774f6e6c7920666f72207265676973746572656420534c417360401b604082015260600190565b60208082526026908201527f4f776e61626c653a206e6577206f776e657220697320746865207a65726f206160408201526564647265737360d01b606082015260800190565b6020808252601b908201527f536166654d6174683a206164646974696f6e206f766572666c6f770000000000604082015260600190565b6020808252601390820152721d1bdad95b88185b1c9958591e481859191959606a1b604082015260600190565b6020808252818101527f4f776e61626c653a2063616c6c6572206973206e6f7420746865206f776e6572604082015260600190565b93845260208401929092526040830152606082015260800190565b60005b83811015610e84578181015183820152602001610e6c565b83811115610e93576000848401525b50505050565b6001600160a01b0381168114610eae57600080fd5b5056fea26469706673582212206ad17120e31fe6393d7c9fa9994cdfe5e72dd4a36efa4fc5c2b04cb3bb4a4e4464736f6c634300060c0033",
  "immutableReferences": {},
  "source": "// SPDX-License-Identifier: MIT\npragma solidity ^0.6.0;\npragma experimental ABIEncoderV2;\n\nimport \"@openzeppelin/contracts/access/Ownable.sol\";\nimport \"@openzeppelin/contracts/math/SafeMath.sol\";\nimport \"./SLA.sol\";\nimport \"./SLARegistry.sol\";\n\n/**\n * @title StakeRegistry\n * @dev StakeRegistry is a contract to register the staking activity of the platform, along\n with controlling certain admin privileged parameters\n */\ncontract StakeRegistry is Ownable {\n    using SafeMath for uint256;\n\n    /// @dev struct to return on getActivePool function.\n    struct ActivePool {\n        address SLAAddress;\n        uint256 stake;\n        string assetName;\n        address assetAddress;\n    }\n\n    address public DSLATokenAddress;\n\n    //______ onlyOwner modifiable parameters ______\n\n    /// @dev corresponds to the burn rate of DSLA tokens, but divided by 1000 i.e burn percentage = DSLAburnRate/1000 %\n    uint256 private _DSLAburnRate = 3;\n    /// @dev minimum deposit for Tier 1 staking\n    uint256 private _minimumDSLAStakedTier1 = 3000 ether;\n    /// @dev minimum deposit for Tier 2 staking\n    uint256 private _minimumDSLAStakedTier2 = 6000 ether;\n    /// @dev minimum deposit for Tier 3 staking\n    uint256 private _minimumDSLAStakedTier3 = 9000 ether;\n    /// @dev array with the allowed tokens addresses of the StakeRegistry\n    address[] public allowedTokens;\n\n    /// @dev (userAddress => SLA[]) with user staked SLAs to get tokenPool\n    mapping(address => SLA[]) public userStakedSlas;\n\n    /**\n     * @dev event to log modifications on the staking parameters\n     *@param DSLAburnRate 1. (DSLAburnRate/1000)% of DSLA to be burned after a reward/compensation is paid\n     *@param minimumDSLAStakedTier1 2. minimum stake of DSLA to enable tier 1 privileges\n     *@param minimumDSLAStakedTier2 3. minimum stake of DSLA to enable tier 2 privileges\n     *@param minimumDSLAStakedTier3 4. minimum stake of DSLA to enable tier 3 privileges\n     */\n    event StakingParametersModified(\n        uint256 DSLAburnRate,\n        uint256 minimumDSLAStakedTier1,\n        uint256 minimumDSLAStakedTier2,\n        uint256 minimumDSLAStakedTier3\n    );\n\n    /**\n     * @param _dslaTokenAddress 1. DSLA Token\n     */\n    constructor(address _dslaTokenAddress) public {\n        DSLATokenAddress = _dslaTokenAddress;\n        allowedTokens.push(_dslaTokenAddress);\n    }\n\n    /**\n     *@dev add a token to ve allowed for staking\n     *@param _tokenAddress 1. address of the new allowed token\n     */\n    function addAllowedTokens(address _tokenAddress) public onlyOwner {\n        require(isAllowedToken(_tokenAddress) == false, \"token already added\");\n        allowedTokens.push(_tokenAddress);\n    }\n\n    function isAllowedToken(address _tokenAddress) public view returns (bool) {\n        for (uint256 index = 0; index < allowedTokens.length; index++) {\n            if (allowedTokens[index] == _tokenAddress) {\n                return true;\n            }\n        }\n        return false;\n    }\n\n    function getStakingParameters()\n        public\n        view\n        returns (\n            uint256 DSLAburnRate,\n            uint256 minimumDSLAStakedTier1,\n            uint256 minimumDSLAStakedTier2,\n            uint256 minimumDSLAStakedTier3\n        )\n    {\n        DSLAburnRate = _DSLAburnRate;\n        minimumDSLAStakedTier1 = _minimumDSLAStakedTier1;\n        minimumDSLAStakedTier2 = _minimumDSLAStakedTier2;\n        minimumDSLAStakedTier3 = _minimumDSLAStakedTier3;\n    }\n\n    /**\n     *@dev public view function that returns true if the _owner has staked on _sla\n     *@param _user 1. address to check\n     *@param _sla 2. sla to check\n     *@return bool, true if _sla was staked by _user\n     */\n    function slaWasStakedByUser(address _user, address _sla)\n        public\n        view\n        returns (bool)\n    {\n        for (uint256 index = 0; index < userStakedSlas[_user].length; index++) {\n            if (address(userStakedSlas[_user][index]) == _sla) {\n                return true;\n            }\n        }\n        return false;\n    }\n\n    /**\n     *@dev register the sending SLA contract as staked by _owner\n     *@param _owner 1. SLA contract to stake\n     */\n    function registerStakedSla(address _owner, address _slaRegistry)\n        public\n        returns (bool)\n    {\n        SLARegistry slaRegistry = SLARegistry(_slaRegistry);\n        require(\n            slaRegistry.isRegisteredSLA(msg.sender) == true,\n            \"Only for registered SLAs\"\n        );\n        if (slaWasStakedByUser(_owner, msg.sender) == false) {\n            userStakedSlas[_owner].push(SLA(msg.sender));\n        }\n        return true;\n    }\n\n    /**\n     * @dev returns the active pools owned by a user.\n     * @param _slaOwner 1. owner of the active pool\n     * @return ActivePool[], array of structs: {SLAAddress,stake,assetName}\n     */\n    function getActivePool(address _slaOwner)\n        public\n        view\n        returns (ActivePool[] memory)\n    {\n        bytes4 NAME_SELECTOR = bytes4(keccak256(bytes(\"name()\")));\n        uint256 stakeCounter = 0;\n        // Count the stakes of the user, checking every SLA staked\n        for (\n            uint256 index = 0;\n            index < userStakedSlas[_slaOwner].length;\n            index++\n        ) {\n            SLA currentSLA = SLA(userStakedSlas[_slaOwner][index]);\n            stakeCounter = stakeCounter.add(\n                currentSLA.getAllowedTokensLength()\n            );\n        }\n\n        ActivePool[] memory activePools = new ActivePool[](stakeCounter);\n        // to insert on activePools array\n        uint256 stakePosition = 0;\n        for (\n            uint256 index = 0;\n            index < userStakedSlas[_slaOwner].length;\n            index++\n        ) {\n            SLA currentSLA = userStakedSlas[_slaOwner][index];\n            for (\n                uint256 tokenIndex = 0;\n                tokenIndex < currentSLA.getAllowedTokensLength();\n                tokenIndex++\n            ) {\n                (address tokenAddress, uint256 stake) =\n                    currentSLA.getTokenStake(_slaOwner, tokenIndex);\n                (, bytes memory tokenNameBytes) =\n                    tokenAddress.staticcall(\n                        abi.encodeWithSelector(NAME_SELECTOR)\n                    );\n                ActivePool memory currentActivePool =\n                    ActivePool({\n                        SLAAddress: address(currentSLA),\n                        stake: stake,\n                        assetName: string(tokenNameBytes),\n                        assetAddress: tokenAddress\n                    });\n                activePools[stakePosition] = currentActivePool;\n                stakePosition = stakePosition.add(1);\n            }\n        }\n        return activePools;\n    }\n\n    //_______ OnlyOwner functions _______\n    function setStakingParameters(\n        uint256 DSLAburnRate,\n        uint256 minimumDSLAStakedTier1,\n        uint256 minimumDSLAStakedTier2,\n        uint256 minimumDSLAStakedTier3\n    ) public onlyOwner {\n        _DSLAburnRate = DSLAburnRate;\n        _minimumDSLAStakedTier1 = minimumDSLAStakedTier1;\n        _minimumDSLAStakedTier2 = minimumDSLAStakedTier2;\n        _minimumDSLAStakedTier3 = minimumDSLAStakedTier3;\n        emit StakingParametersModified(\n            DSLAburnRate,\n            minimumDSLAStakedTier1,\n            minimumDSLAStakedTier2,\n            minimumDSLAStakedTier3\n        );\n    }\n}\n",
  "sourcePath": "/Users/matiasbn/Desktop/stacktical/stacktical-dsla-contracts/contracts/StakeRegistry.sol",
  "compiler": {
    "name": "solc",
    "version": "0.6.12+commit.27d51765.Emscripten.clang"
  },
  "schemaVersion": "3.3.3",
  "updatedAt": "2021-02-26T16:27:29.304Z",
  "devdoc": {
    "details": "StakeRegistry is a contract to register the staking activity of the platform, along with controlling certain admin privileged parameters",
    "events": {
      "StakingParametersModified(uint256,uint256,uint256,uint256)": {
        "details": "event to log modifications on the staking parameters",
        "params": {
          "DSLAburnRate": "1. (DSLAburnRate/1000)% of DSLA to be burned after a reward/compensation is paid",
          "minimumDSLAStakedTier1": "2. minimum stake of DSLA to enable tier 1 privileges",
          "minimumDSLAStakedTier2": "3. minimum stake of DSLA to enable tier 2 privileges",
          "minimumDSLAStakedTier3": "4. minimum stake of DSLA to enable tier 3 privileges"
        }
      }
    },
    "kind": "dev",
    "methods": {
      "addAllowedTokens(address)": {
        "details": "add a token to ve allowed for staking",
        "params": {
          "_tokenAddress": "1. address of the new allowed token"
        }
      },
      "constructor": {
        "params": {
          "_dslaTokenAddress": "1. DSLA Token"
        }
      },
      "getActivePool(address)": {
        "details": "returns the active pools owned by a user.",
        "params": {
          "_slaOwner": "1. owner of the active pool"
        },
        "returns": {
          "_0": "ActivePool[], array of structs: {SLAAddress,stake,assetName}"
        }
      },
      "owner()": {
        "details": "Returns the address of the current owner."
      },
      "registerStakedSla(address,address)": {
        "details": "register the sending SLA contract as staked by _owner",
        "params": {
          "_owner": "1. SLA contract to stake"
        }
      },
      "renounceOwnership()": {
        "details": "Leaves the contract without owner. It will not be possible to call `onlyOwner` functions anymore. Can only be called by the current owner. NOTE: Renouncing ownership will leave the contract without an owner, thereby removing any functionality that is only available to the owner."
      },
      "slaWasStakedByUser(address,address)": {
        "details": "public view function that returns true if the _owner has staked on _sla",
        "params": {
          "_sla": "2. sla to check",
          "_user": "1. address to check"
        },
        "returns": {
          "_0": "bool, true if _sla was staked by _user"
        }
      },
      "transferOwnership(address)": {
        "details": "Transfers ownership of the contract to a new account (`newOwner`). Can only be called by the current owner."
      }
    },
    "stateVariables": {
      "_DSLAburnRate": {
        "details": "corresponds to the burn rate of DSLA tokens, but divided by 1000 i.e burn percentage = DSLAburnRate/1000 %"
      },
      "_minimumDSLAStakedTier1": {
        "details": "minimum deposit for Tier 1 staking"
      },
      "_minimumDSLAStakedTier2": {
        "details": "minimum deposit for Tier 2 staking"
      },
      "_minimumDSLAStakedTier3": {
        "details": "minimum deposit for Tier 3 staking"
      },
      "allowedTokens": {
        "details": "array with the allowed tokens addresses of the StakeRegistry"
      },
      "userStakedSlas": {
        "details": "(userAddress => SLA[]) with user staked SLAs to get tokenPool"
      }
    },
    "title": "StakeRegistry",
    "version": 1
  },
  "userdoc": {
    "kind": "user",
    "methods": {},
    "version": 1
  }
}