{
  "contractName": "Staking",
  "abi": [
    {
      "inputs": [
        {
          "internalType": "address",
          "name": "_dslaTokenAddress",
          "type": "address"
        }
      ],
      "stateMutability": "nonpayable",
      "type": "constructor"
    },
    {
      "anonymous": false,
      "inputs": [
        {
          "indexed": true,
          "internalType": "address",
          "name": "previousOwner",
          "type": "address"
        },
        {
          "indexed": true,
          "internalType": "address",
          "name": "newOwner",
          "type": "address"
        }
      ],
      "name": "OwnershipTransferred",
      "type": "event"
    },
    {
      "inputs": [
        {
          "internalType": "uint256",
          "name": "",
          "type": "uint256"
        }
      ],
      "name": "allowedTokens",
      "outputs": [
        {
          "internalType": "address",
          "name": "",
          "type": "address"
        }
      ],
      "stateMutability": "view",
      "type": "function"
    },
    {
      "inputs": [
        {
          "internalType": "address",
          "name": "",
          "type": "address"
        }
      ],
      "name": "allowedTokensMapping",
      "outputs": [
        {
          "internalType": "bool",
          "name": "",
          "type": "bool"
        }
      ],
      "stateMutability": "view",
      "type": "function"
    },
    {
      "inputs": [],
      "name": "owner",
      "outputs": [
        {
          "internalType": "address",
          "name": "",
          "type": "address"
        }
      ],
      "stateMutability": "view",
      "type": "function"
    },
    {
      "inputs": [],
      "name": "renounceOwnership",
      "outputs": [],
      "stateMutability": "nonpayable",
      "type": "function"
    },
    {
      "inputs": [
        {
          "internalType": "uint256",
          "name": "",
          "type": "uint256"
        }
      ],
      "name": "stakers",
      "outputs": [
        {
          "internalType": "address",
          "name": "",
          "type": "address"
        }
      ],
      "stateMutability": "view",
      "type": "function"
    },
    {
      "inputs": [
        {
          "internalType": "address",
          "name": "newOwner",
          "type": "address"
        }
      ],
      "name": "transferOwnership",
      "outputs": [],
      "stateMutability": "nonpayable",
      "type": "function"
    },
    {
      "inputs": [
        {
          "internalType": "address",
          "name": "_token",
          "type": "address"
        }
      ],
      "name": "addAllowedTokens",
      "outputs": [],
      "stateMutability": "nonpayable",
      "type": "function"
    },
    {
      "inputs": [
        {
          "internalType": "uint256",
          "name": "_period",
          "type": "uint256"
        }
      ],
      "name": "_claimCompensation",
      "outputs": [],
      "stateMutability": "nonpayable",
      "type": "function"
    },
    {
      "inputs": [],
      "name": "getAllowedTokensLength",
      "outputs": [
        {
          "internalType": "uint256",
          "name": "",
          "type": "uint256"
        }
      ],
      "stateMutability": "view",
      "type": "function"
    },
    {
      "inputs": [
        {
          "internalType": "address",
          "name": "_staker",
          "type": "address"
        },
        {
          "internalType": "uint256",
          "name": "_allowedTokenIndex",
          "type": "uint256"
        }
      ],
      "name": "getTokenStake",
      "outputs": [
        {
          "internalType": "address",
          "name": "tokenAddress",
          "type": "address"
        },
        {
          "internalType": "uint256",
          "name": "stake",
          "type": "uint256"
        }
      ],
      "stateMutability": "view",
      "type": "function"
    }
  ],
  "bytecode": "0x608060405234801561001057600080fd5b506040516107863803806107868339818101604052602081101561003357600080fd5b5051600061003f6100f3565b600080546001600160a01b0319166001600160a01b0383169081178255604051929350917f8be0079c531659141344cd1fd0a4f28419497f9722a3daafe3b4186f6b6457e0908290a3506004805460018181019092557f8a35acfbc15ff81a39ae7d344fd709f28e8600b4aa8c65c6b64bfe7fe36bd19b0180546001600160a01b039093166001600160a01b031990931683179055600091825260056020526040909120805460ff191690911790556100f7565b3390565b610680806101066000396000f3fe608060405234801561001057600080fd5b506004361061009e5760003560e01c8063715018a611610066578063715018a6146101aa5780638da5cb5b146101b2578063b7bc347e146101ba578063f2fde38b146101d4578063fd5e6dd1146101fa5761009e565b8063105237cf146100a3578063171e44ea146100dd57806357ac94f0146101055780635e5f2e261461015457806364b7b34b1461018d575b600080fd5b6100c9600480360360208110156100b957600080fd5b50356001600160a01b0316610217565b604080519115158252519081900360200190f35b610103600480360360208110156100f357600080fd5b50356001600160a01b031661022c565b005b6101316004803603604081101561011b57600080fd5b506001600160a01b03813516906020013561034f565b604080516001600160a01b03909316835260208301919091528051918290030190f35b6101716004803603602081101561016a57600080fd5b503561039d565b604080516001600160a01b039092168252519081900360200190f35b610103600480360360208110156101a357600080fd5b50356103c4565b61010361041f565b6101716104c1565b6101c26104d0565b60408051918252519081900360200190f35b610103600480360360208110156101ea57600080fd5b50356001600160a01b03166104d6565b6101716004803603602081101561021057600080fd5b50356105ce565b60056020526000908152604090205460ff1681565b6102346105db565b6000546001600160a01b03908116911614610284576040805162461bcd60e51b81526020600482018190526024820152600080516020610606833981519152604482015290519081900360640190fd5b6001600160a01b03811660009081526005602052604090205460ff16156102e8576040805162461bcd60e51b81526020600482015260136024820152721d1bdad95b88185b1c9958591e481859191959606a1b604482015290519081900360640190fd5b6004805460018181019092557f8a35acfbc15ff81a39ae7d344fd709f28e8600b4aa8c65c6b64bfe7fe36bd19b0180546001600160a01b039093166001600160a01b031990931683179055600091825260056020526040909120805460ff19169091179055565b60008060006004848154811061036157fe5b6000918252602080832091909101546001600160a01b039081168084526002835260408085209990921684529790915290205494959350505050565b600481815481106103aa57fe5b6000918252602090912001546001600160a01b0316905081565b6103cc6104c1565b6001600160a01b0316336001600160a01b0316141561041c5760405162461bcd60e51b81526004018080602001828103825260258152602001806106266025913960400191505060405180910390fd5b50565b6104276105db565b6000546001600160a01b03908116911614610477576040805162461bcd60e51b81526020600482018190526024820152600080516020610606833981519152604482015290519081900360640190fd5b600080546040516001600160a01b03909116907f8be0079c531659141344cd1fd0a4f28419497f9722a3daafe3b4186f6b6457e0908390a3600080546001600160a01b0319169055565b6000546001600160a01b031690565b60045490565b6104de6105db565b6000546001600160a01b0390811691161461052e576040805162461bcd60e51b81526020600482018190526024820152600080516020610606833981519152604482015290519081900360640190fd5b6001600160a01b0381166105735760405162461bcd60e51b81526004018080602001828103825260268152602001806105e06026913960400191505060405180910390fd5b600080546040516001600160a01b03808516939216917f8be0079c531659141344cd1fd0a4f28419497f9722a3daafe3b4186f6b6457e091a3600080546001600160a01b0319166001600160a01b0392909216919091179055565b600381815481106103aa57fe5b339056fe4f776e61626c653a206e6577206f776e657220697320746865207a65726f20616464726573734f776e61626c653a2063616c6c6572206973206e6f7420746865206f776e657253686f756c64206e6f742062652063616c6c65642062792074686520534c41206f776e6572a2646970667358221220c9c32003b74eaa80a39e0fdbab35e6fb8952293e530cbee2d3028f248657332c64736f6c634300060c0033",
  "immutableReferences": {},
  "source": "// SPDX-License-Identifier: MIT\npragma solidity ^0.6.0;\n\nimport \"@openzeppelin/contracts/token/ERC20/IERC20.sol\";\nimport \"@openzeppelin/contracts/access/Ownable.sol\";\nimport \"@openzeppelin/contracts/math/SafeMath.sol\";\n\ncontract Staking is Ownable {\n    using SafeMath for uint256;\n\n    bytes4 private constant BURN_SELECTOR =\n        bytes4(keccak256(bytes(\"burn(uint256)\")));\n\n    // (tokenAddress=>uint256) total token staking balance\n    mapping(address => uint256) tokenStake;\n    // (tokenAddress=>userAddress=>uint256) staking balance per user\n    mapping(address => mapping(address => uint256)) userTokenStake;\n    /// @dev address[] of the stakers of the SLA contract\n    address[] public stakers;\n    /// @dev array with the allowed tokens addresses of the StakeRegistry\n    address[] public allowedTokens;\n    /// @dev mapping for all allowed tokens to be staked\n    mapping(address => bool) public allowedTokensMapping;\n\n    modifier notOwner {\n        require(msg.sender != owner(), \"Should not be called by the SLA owner\");\n        _;\n    }\n\n    modifier onlyAllowedToken(address _token) {\n        require(allowedTokensMapping[_token] == true, \"token is not allowed\");\n        _;\n    }\n\n    /**\n     *@param _dslaTokenAddress 1. address of the base token\n     */\n    constructor(address _dslaTokenAddress) public {\n        allowedTokens.push(_dslaTokenAddress);\n        allowedTokensMapping[_dslaTokenAddress] = true;\n    }\n\n    /**\n     *@dev add a token to ve allowed for staking\n     *@param _token 1. address of the new allowed token\n     */\n    function addAllowedTokens(address _token) public onlyOwner {\n        require(allowedTokensMapping[_token] == false, \"token already added\");\n        allowedTokens.push(_token);\n        allowedTokensMapping[_token] = true;\n    }\n\n    /**\n     *@dev increase the amount staked per token\n     *@param _amount 1. amount to be staked\n     *@param _token 2. address of the token\n     */\n    function _stake(uint256 _amount, address _token)\n        internal\n        onlyAllowedToken(_token)\n    {\n        if (msg.sender != owner()) {\n            require(\n                tokenStake[_token].add(_amount) <=\n                    userTokenStake[_token][owner()],\n                \"Cannot stake more than SLA owner stake\"\n            );\n        }\n        tokenStake[_token] = tokenStake[_token].add(_amount);\n        userTokenStake[_token][msg.sender] = userTokenStake[_token][msg.sender]\n            .add(_amount);\n        if (!_isStaker(msg.sender)) {\n            stakers.push(msg.sender);\n        }\n        IERC20(_token).transferFrom(msg.sender, address(this), _amount);\n    }\n\n    /**\n     *@dev withdraw staked tokens\n     *@param _amount 1. amount to withdraw\n     *@param _token 2. address of the token\n     */\n    function _withdraw(uint256 _amount, address _token)\n        internal\n        onlyAllowedToken(_token)\n    {\n        require(\n            userTokenStake[_token][msg.sender] >= _amount,\n            \"Should not withdraw more stake than staked\"\n        );\n        if (msg.sender == owner()) {\n            uint256 delegatorsStake =\n                tokenStake[_token].sub(userTokenStake[_token][owner()]);\n            require(\n                tokenStake[_token].sub(_amount) >= delegatorsStake,\n                \"Should not withdraw more than the delegators stake\"\n            );\n        }\n        IERC20(_token).transfer(msg.sender, _amount);\n        tokenStake[_token] = tokenStake[_token].sub(_amount);\n        userTokenStake[_token][msg.sender] = userTokenStake[_token][msg.sender]\n            .sub(_amount);\n    }\n\n    /**\n     *@dev claim from validators\n     *@param _period 1. period id to claim\n     */\n    function _claimReward(uint256 _period) internal onlyOwner {\n        //        require(\n        //            stakingPeriods[_period].status == Status.Respected,\n        //            \"SLA not respected !\"\n        //        );\n        //        require(\n        //            !stakingPeriods[_period].claimed,\n        //            \"You have already claimed your reward for this period !\"\n        //        );\n        //\n        //        uint256 reward = totalStaked.div(stakingPeriods.length);\n        //        uint256 fees = reward.mul(3).div(10);\n        //\n        //        totalStaked = totalStaked.sub(reward);\n        //        stakingPeriods[_period].claimed_reward = reward;\n        //        stakingPeriods[_period].claimed = true;\n        //\n        //        DSLAToken.transfer(msg.sender, reward);\n        //        (bool _success, ) =\n        //            address(DSLAToken).call(\n        //                abi.encodeWithSelector(BURN_SELECTOR, fees)\n        //            );\n        //\n        //        require(_success, \"DSLAToken burn process was not successful\");\n    }\n\n    /**\n     *@dev claim from delegators\n     *@param _period 1. period id to claim\n     */\n    function _claimCompensation(uint256 _period) public notOwner {\n        //        require(\n        //            stakingPeriods[_period].status == Status.NotRespected,\n        //            \"SLA respected !\"\n        //        );\n        //        require(\n        //            stakingPeriods[_period].claimed_compensation[msg.sender] == 0,\n        //            \"You have already claimed your compensation for this period !\"\n        //        );\n        //\n        //        uint256 compensation = getUserTotalValue(msg.sender, _period);\n        //        uint256 fees = compensation.mul(3).div(10);\n        //\n        //        totalStaked = totalStaked.sub(compensation);\n        //        stakingPeriods[_period].claimed_compensation[msg.sender] = compensation;\n        //\n        //        DSLAToken.transfer(msg.sender, compensation);\n        //        (bool _success, ) =\n        //            address(DSLAToken).call(\n        //                abi.encodeWithSelector(BURN_SELECTOR, fees)\n        //            );\n        //\n        //        require(_success, \"DSLAToken burn process was not successful\");\n    }\n\n    function _isStaker(address _staker) internal view returns (bool) {\n        for (uint256 index = 0; index < stakers.length; index++) {\n            if (stakers[index] == _staker) return true;\n        }\n        return false;\n    }\n\n    function getAllowedTokensLength() public view returns (uint256) {\n        return allowedTokens.length;\n    }\n\n    function getTokenStake(address _staker, uint256 _allowedTokenIndex)\n        public\n        view\n        returns (address tokenAddress, uint256 stake)\n    {\n        address allowedTokenAddress = allowedTokens[_allowedTokenIndex];\n        return (\n            allowedTokenAddress,\n            userTokenStake[allowedTokenAddress][_staker]\n        );\n    }\n}\n",
  "sourcePath": "/Users/matiasbn/Desktop/stacktical/stacktical-dsla-contracts/contracts/Staking.sol",
  "compiler": {
    "name": "solc",
    "version": "0.6.12+commit.27d51765.Emscripten.clang"
  },
  "schemaVersion": "3.3.3",
  "updatedAt": "2021-02-11T00:55:10.074Z",
  "devdoc": {
    "kind": "dev",
    "methods": {
      "_claimCompensation(uint256)": {
        "details": "claim from delegators",
        "params": {
          "_period": "1. period id to claim"
        }
      },
      "addAllowedTokens(address)": {
        "details": "add a token to ve allowed for staking",
        "params": {
          "_token": "1. address of the new allowed token"
        }
      },
      "constructor": {
        "params": {
          "_dslaTokenAddress": "1. address of the base token"
        }
      },
      "owner()": {
        "details": "Returns the address of the current owner."
      },
      "renounceOwnership()": {
        "details": "Leaves the contract without owner. It will not be possible to call `onlyOwner` functions anymore. Can only be called by the current owner. NOTE: Renouncing ownership will leave the contract without an owner, thereby removing any functionality that is only available to the owner."
      },
      "transferOwnership(address)": {
        "details": "Transfers ownership of the contract to a new account (`newOwner`). Can only be called by the current owner."
      }
    },
    "stateVariables": {
      "allowedTokens": {
        "details": "array with the allowed tokens addresses of the StakeRegistry"
      },
      "allowedTokensMapping": {
        "details": "mapping for all allowed tokens to be staked"
      },
      "stakers": {
        "details": "address[] of the stakers of the SLA contract"
      }
    },
    "version": 1
  },
  "userdoc": {
    "kind": "user",
    "methods": {},
    "version": 1
  }
}