{
  "contractName": "Staking",
  "abi": [
    {
      "inputs": [
        {
          "internalType": "contract bDSLAToken",
          "name": "_tokenAddress",
          "type": "address"
        },
        {
          "internalType": "uint256[]",
          "name": "_sla_period_starts",
          "type": "uint256[]"
        },
        {
          "internalType": "uint256[]",
          "name": "_sla_period_ends",
          "type": "uint256[]"
        }
      ],
      "stateMutability": "nonpayable",
      "type": "constructor"
    },
    {
      "anonymous": false,
      "inputs": [
        {
          "indexed": true,
          "internalType": "uint256",
          "name": "period_index",
          "type": "uint256"
        }
      ],
      "name": "NewPeriodAdded",
      "type": "event"
    },
    {
      "anonymous": false,
      "inputs": [
        {
          "indexed": true,
          "internalType": "address",
          "name": "previousOwner",
          "type": "address"
        },
        {
          "indexed": true,
          "internalType": "address",
          "name": "newOwner",
          "type": "address"
        }
      ],
      "name": "OwnershipTransferred",
      "type": "event"
    },
    {
      "inputs": [
        {
          "internalType": "uint256",
          "name": "",
          "type": "uint256"
        }
      ],
      "name": "allowedTokens",
      "outputs": [
        {
          "internalType": "address",
          "name": "",
          "type": "address"
        }
      ],
      "stateMutability": "view",
      "type": "function"
    },
    {
      "inputs": [],
      "name": "bDSLA",
      "outputs": [
        {
          "internalType": "contract bDSLAToken",
          "name": "",
          "type": "address"
        }
      ],
      "stateMutability": "view",
      "type": "function"
    },
    {
      "inputs": [],
      "name": "owner",
      "outputs": [
        {
          "internalType": "address",
          "name": "",
          "type": "address"
        }
      ],
      "stateMutability": "view",
      "type": "function"
    },
    {
      "inputs": [
        {
          "internalType": "uint256",
          "name": "",
          "type": "uint256"
        }
      ],
      "name": "periods",
      "outputs": [
        {
          "internalType": "uint256",
          "name": "sla_period_start",
          "type": "uint256"
        },
        {
          "internalType": "uint256",
          "name": "sla_period_end",
          "type": "uint256"
        },
        {
          "internalType": "uint256",
          "name": "claimed_reward",
          "type": "uint256"
        },
        {
          "internalType": "bool",
          "name": "claimed",
          "type": "bool"
        },
        {
          "internalType": "enum Staking.Status",
          "name": "status",
          "type": "uint8"
        }
      ],
      "stateMutability": "view",
      "type": "function"
    },
    {
      "inputs": [],
      "name": "renounceOwnership",
      "outputs": [],
      "stateMutability": "nonpayable",
      "type": "function"
    },
    {
      "inputs": [
        {
          "internalType": "uint256",
          "name": "",
          "type": "uint256"
        }
      ],
      "name": "stakers",
      "outputs": [
        {
          "internalType": "address",
          "name": "",
          "type": "address"
        }
      ],
      "stateMutability": "view",
      "type": "function"
    },
    {
      "inputs": [],
      "name": "totalStaked",
      "outputs": [
        {
          "internalType": "uint256",
          "name": "",
          "type": "uint256"
        }
      ],
      "stateMutability": "view",
      "type": "function"
    },
    {
      "inputs": [
        {
          "internalType": "address",
          "name": "newOwner",
          "type": "address"
        }
      ],
      "name": "transferOwnership",
      "outputs": [],
      "stateMutability": "nonpayable",
      "type": "function"
    },
    {
      "inputs": [
        {
          "internalType": "address",
          "name": "",
          "type": "address"
        }
      ],
      "name": "uniqueTokensStaked",
      "outputs": [
        {
          "internalType": "uint256",
          "name": "",
          "type": "uint256"
        }
      ],
      "stateMutability": "view",
      "type": "function"
    },
    {
      "inputs": [],
      "name": "validator",
      "outputs": [
        {
          "internalType": "address",
          "name": "",
          "type": "address"
        }
      ],
      "stateMutability": "view",
      "type": "function"
    },
    {
      "inputs": [
        {
          "internalType": "uint256",
          "name": "_sla_period_start",
          "type": "uint256"
        },
        {
          "internalType": "uint256",
          "name": "_sla_period_end",
          "type": "uint256"
        }
      ],
      "name": "addNewPeriod",
      "outputs": [],
      "stateMutability": "nonpayable",
      "type": "function"
    },
    {
      "inputs": [
        {
          "internalType": "address",
          "name": "_token",
          "type": "address"
        }
      ],
      "name": "addAllowedTokens",
      "outputs": [],
      "stateMutability": "nonpayable",
      "type": "function"
    },
    {
      "inputs": [
        {
          "internalType": "uint256",
          "name": "_amount",
          "type": "uint256"
        },
        {
          "internalType": "address",
          "name": "_token",
          "type": "address"
        },
        {
          "internalType": "uint256",
          "name": "_period",
          "type": "uint256"
        }
      ],
      "name": "stakeTokens",
      "outputs": [],
      "stateMutability": "nonpayable",
      "type": "function"
    },
    {
      "inputs": [
        {
          "internalType": "address",
          "name": "_token",
          "type": "address"
        },
        {
          "internalType": "uint256",
          "name": "_period",
          "type": "uint256"
        }
      ],
      "name": "withdraw",
      "outputs": [],
      "stateMutability": "nonpayable",
      "type": "function"
    },
    {
      "inputs": [
        {
          "internalType": "address",
          "name": "_token",
          "type": "address"
        },
        {
          "internalType": "uint256",
          "name": "_amount",
          "type": "uint256"
        },
        {
          "internalType": "uint256",
          "name": "_period",
          "type": "uint256"
        }
      ],
      "name": "withdrawAndStake",
      "outputs": [],
      "stateMutability": "nonpayable",
      "type": "function"
    },
    {
      "inputs": [
        {
          "internalType": "uint256",
          "name": "_period",
          "type": "uint256"
        }
      ],
      "name": "claimReward",
      "outputs": [],
      "stateMutability": "nonpayable",
      "type": "function"
    },
    {
      "inputs": [
        {
          "internalType": "uint256",
          "name": "_period",
          "type": "uint256"
        }
      ],
      "name": "claimCompensation",
      "outputs": [],
      "stateMutability": "nonpayable",
      "type": "function"
    },
    {
      "inputs": [
        {
          "internalType": "address",
          "name": "_user",
          "type": "address"
        },
        {
          "internalType": "uint256",
          "name": "_period",
          "type": "uint256"
        }
      ],
      "name": "getUserTotalValue",
      "outputs": [
        {
          "internalType": "uint256",
          "name": "",
          "type": "uint256"
        }
      ],
      "stateMutability": "view",
      "type": "function"
    }
  ],
  "bytecode": "0x60806040523480156200001157600080fd5b50604051620020ee380380620020ee833981810160405260608110156200003757600080fd5b8151602083018051604051929492938301929190846401000000008211156200005f57600080fd5b9083019060208201858111156200007557600080fd5b82518660208202830111640100000000821117156200009357600080fd5b82525081516020918201928201910280838360005b83811015620000c2578181015183820152602001620000a8565b5050505090500160405260200180516040519392919084640100000000821115620000ec57600080fd5b9083019060208201858111156200010257600080fd5b82518660208202830111640100000000821117156200012057600080fd5b82525081516020918201928201910280838360005b838110156200014f57818101518382015260200162000135565b5050505090500160405250505060006200016e620002b960201b60201c565b600080546001600160a01b0319166001600160a01b0383169081178255604051929350917f8be0079c531659141344cd1fd0a4f28419497f9722a3daafe3b4186f6b6457e0908290a3508051825114620001fa5760405162461bcd60e51b8152600401808060200182810382526029815260200180620020c56029913960400191505060405180910390fd5b600180546001600160a01b038086166001600160a01b03199283161780845560048054948501815560009081527f8a35acfbc15ff81a39ae7d344fd709f28e8600b4aa8c65c6b64bfe7fe36bd19b909401805484169190921617905560028054909116331790555b8251811015620002af57620002a68382815181106200027d57fe5b60200260200101518383815181106200029257fe5b6020026020010151620002bd60201b60201c565b60010162000262565b5050505062000535565b3390565b620002c7620004f9565b82815260208101828152600060808301818152600580546001810182559252835160069092027f036b6384b5eca791c62761152d0c79bb0604c104a5fb6f4eb0703f3154bb3db0810192835592517f036b6384b5eca791c62761152d0c79bb0604c104a5fb6f4eb0703f3154bb3db184015560408401517f036b6384b5eca791c62761152d0c79bb0604c104a5fb6f4eb0703f3154bb3db284015560608401517f036b6384b5eca791c62761152d0c79bb0604c104a5fb6f4eb0703f3154bb3db3909301805493151560ff199094169390931780845590518493909161ff001916610100836002811115620003b857fe5b02179055505050620003df60016005805490506200040d60201b620015441790919060201c565b6040517ff791e873e3b67fe74b29aeede7bcbbdaa59c4b64e542571183cd837aa56f6ac990600090a2505050565b60006200045783836040518060400160405280601e81526020017f536166654d6174683a207375627472616374696f6e206f766572666c6f7700008152506200045e60201b60201c565b9392505050565b60008184841115620004f15760405162461bcd60e51b81526004018080602001828103825283818151815260200191508051906020019080838360005b83811015620004b55781810151838201526020016200049b565b50505050905090810190601f168015620004e35780820380516001836020036101000a031916815260200191505b509250505060405180910390fd5b505050900390565b6040518060a00160405280600081526020016000815260200160008152602001600015158152602001600060028111156200053057fe5b905290565b611b8080620005456000396000f3fe608060405234801561001057600080fd5b50600436106100e65760003560e01c80630e1fcf34146100eb578063171e44ea146101105780633a5381b51461013657806353e85fd51461015a5780635e5f2e26146101775780635f4efaba14610194578063715018a61461019c57806375fdf2a9146101a4578063817b1cd2146101d65780638da5cb5b146101f0578063ae169a50146101f8578063b83e023414610215578063cec534d61461023b578063ea4a11041461026d578063f10bd772146102c9578063f2fde38b146102f5578063f3fef3a31461031b578063fd5e6dd114610347575b600080fd5b61010e6004803603604081101561010157600080fd5b5080359060200135610364565b005b61010e6004803603602081101561012657600080fd5b50356001600160a01b03166103ca565b61013e610474565b604080516001600160a01b039092168252519081900360200190f35b61010e6004803603602081101561017057600080fd5b5035610483565b61013e6004803603602081101561018d57600080fd5b5035610769565b61013e610790565b61010e61079f565b61010e600480360360608110156101ba57600080fd5b506001600160a01b03813516906020810135906040013561082f565b6101de610bdc565b60408051918252519081900360200190f35b61013e610be2565b61010e6004803603602081101561020e57600080fd5b5035610bf1565b6101de6004803603602081101561022b57600080fd5b50356001600160a01b0316610e68565b61010e6004803603606081101561025157600080fd5b508035906001600160a01b036020820135169060400135610e7a565b61028a6004803603602081101561028357600080fd5b503561108f565b6040518086815260200185815260200184815260200183151581526020018260028111156102b457fe5b81526020019550505050505060405180910390f35b6101de600480360360408110156102df57600080fd5b506001600160a01b0381351690602001356110d2565b61010e6004803603602081101561030b57600080fd5b50356001600160a01b0316611180565b61010e6004803603604081101561033157600080fd5b506001600160a01b038135169060200135611266565b61013e6004803603602081101561035d57600080fd5b5035611537565b61036c611586565b6000546001600160a01b039081169116146103bc576040805162461bcd60e51b81526020600482018190526024820152600080516020611aa9833981519152604482015290519081900360640190fd5b6103c6828261158a565b5050565b6103d2611586565b6000546001600160a01b03908116911614610422576040805162461bcd60e51b81526020600482018190526024820152600080516020611aa9833981519152604482015290519081900360640190fd5b600480546001810182556000919091527f8a35acfbc15ff81a39ae7d344fd709f28e8600b4aa8c65c6b64bfe7fe36bd19b0180546001600160a01b0319166001600160a01b0392909216919091179055565b6002546001600160a01b031681565b806005818154811061049157fe5b90600052602060002090600602016000015442101580156104d05750600581815481106104ba57fe5b9060005260206000209060060201600101544211155b6104d957600080fd5b6002546001600160a01b0316331415610531576040805162461bcd60e51b8152602060048201526015602482015274596f752061726520612076616c696461746f72202160581b604482015290519081900360640190fd5b60026005838154811061054057fe5b906000526020600020906006020160030160019054906101000a900460ff16600281111561056a57fe5b146105ae576040805162461bcd60e51b815260206004820152600f60248201526e534c4120726573706563746564202160881b604482015290519081900360640190fd5b600582815481106105bb57fe5b6000918252602080832033845260056006909302019190910190526040902054156106175760405162461bcd60e51b815260040180806020018281038252603c815260200180611b0f603c913960400191505060405180910390fd5b600061062333846110d2565b9050600061063d600a6106378460036116c5565b9061171e565b60075490915061064d9083611544565b600781905550816005858154811061066157fe5b6000918252602080832033808552600693909302016005018152604080842094909455600154845163a9059cbb60e01b815260048101939093526024830187905293516001600160a01b039094169363a9059cbb936044808501948390030190829087803b1580156106d257600080fd5b505af11580156106e6573d6000803e3d6000fd5b505050506040513d60208110156106fc57600080fd5b505060015460408051630852cd8d60e31b81526004810184905290516001600160a01b03909216916342966c689160248082019260009290919082900301818387803b15801561074b57600080fd5b505af115801561075f573d6000803e3d6000fd5b5050505050505050565b6004818154811061077657fe5b6000918252602090912001546001600160a01b0316905081565b6001546001600160a01b031681565b6107a7611586565b6000546001600160a01b039081169116146107f7576040805162461bcd60e51b81526020600482018190526024820152600080516020611aa9833981519152604482015290519081900360640190fd5b600080546040516001600160a01b0390911690600080516020611ac9833981519152908390a3600080546001600160a01b0319169055565b6002546001600160a01b0316331415610887576040805162461bcd60e51b8152602060048201526015602482015274596f752061726520612076616c696461746f72202160581b604482015290519081900360640190fd5b60006005828154811061089657fe5b600091825260208083206001600160a01b03881684526004600690930201919091018152604080832033845290915290205411610918576040805162461bcd60e51b815260206004820152601b60248201527a07374616b696e672062616c616e63652063616e6e6f74206265203602c1b604482015290519081900360640190fd5b6109218361175d565b61095c5760405162461bcd60e51b8152600401808060200182810382526026815260200180611ae96026913960400191505060405180910390fd5b604080516323b872dd60e01b81523360048201523060248201526044810184905290516001600160a01b038516916323b872dd9160648083019260209291908290030181600087803b1580156109b157600080fd5b505af11580156109c5573d6000803e3d6000fd5b505050506040513d60208110156109db57600080fd5b505060058054610a29918491849081106109f157fe5b600091825260208083206001600160a01b038916845260046006909302019190910181526040808320338452909152902054906117ba565b60058281548110610a3657fe5b600091825260208083206001600160a01b038816845260046006909302019190910181526040808320338452909152902055600754610a7590836117ba565b600781905550600060058281548110610a8a57fe5b600091825260208083206001600160a01b03881684526004600690930201919091018152604080832033845290915281205460035460058054929450610af49286908110610ad457fe5b90600052602060002090600602016002015461171e90919063ffffffff16565b9050600060058481548110610b0557fe5b600091825260208083206001600160a01b038a16845260046006909302019190910181526040808320338452909152902055600754610b449083611544565b6007556001546001600160a01b031663a9059cbb33610b638585611544565b6040518363ffffffff1660e01b815260040180836001600160a01b0316815260200182815260200192505050602060405180830381600087803b158015610ba957600080fd5b505af1158015610bbd573d6000803e3d6000fd5b505050506040513d6020811015610bd357600080fd5b50505050505050565b60075481565b6000546001600160a01b031690565b8060058181548110610bff57fe5b9060005260206000209060060201600001544210158015610c3e575060058181548110610c2857fe5b9060005260206000209060060201600101544211155b610c4757600080fd5b6002546001600160a01b03163314610ca2576040805162461bcd60e51b8152602060048201526019602482015278596f7520617265206e6f7420612076616c696461746f72202160381b604482015290519081900360640190fd5b600160058381548110610cb157fe5b906000526020600020906006020160030160019054906101000a900460ff166002811115610cdb57fe5b14610d23576040805162461bcd60e51b8152602060048201526013602482015272534c41206e6f7420726573706563746564202160681b604482015290519081900360640190fd5b60058281548110610d3057fe5b600091825260209091206003600690920201015460ff1615610d835760405162461bcd60e51b8152600401808060200182810382526036815260200180611a526036913960400191505060405180910390fd5b600554600754600091610d96919061171e565b90506000610daa600a6106378460036116c5565b600754909150610dba9083611544565b6007819055508160058581548110610dce57fe5b906000526020600020906006020160020181905550600160058581548110610df257fe5b60009182526020808320600692909202909101600301805460ff1916931515939093179092556001546040805163a9059cbb60e01b81523360048201526024810187905290516001600160a01b039092169363a9059cbb9360448084019492938390030190829087803b1580156106d257600080fd5b60066020526000908152604090205481565b60008311610ec4576040805162461bcd60e51b81526020600482015260126024820152710616d6f756e742063616e6e6f7420626520360741b604482015290519081900360640190fd5b610ecd8261175d565b610f085760405162461bcd60e51b8152600401808060200182810382526026815260200180611ae96026913960400191505060405180910390fd5b610f13338383611812565b604080516323b872dd60e01b81523360048201523060248201526044810185905290516001600160a01b038416916323b872dd9160648083019260209291908290030181600087803b158015610f6857600080fd5b505af1158015610f7c573d6000803e3d6000fd5b505050506040513d6020811015610f9257600080fd5b505060058054610fe091859184908110610fa857fe5b600091825260208083206001600160a01b038816845260046006909302019190910181526040808320338452909152902054906117ba565b60058281548110610fed57fe5b600091825260208083206001600160a01b03871684526004600690930201919091018152604080832033845290915290205560075461102c90846117ba565b600755336000908152600660205260409020546001141561108a57600380546001810182556000919091527fc2575a0e9e593c00f959f8c92f12db2869c3395a3b0502d05e2516446f71f85b0180546001600160a01b031916331790555b505050565b6005818154811061109c57fe5b60009182526020909120600690910201805460018201546002830154600390930154919350919060ff8082169161010090041685565b6001600160a01b0382166000908152600660205260408120548190156111775760005b6004548110156111755761116b6005858154811061110f57fe5b906000526020600020906006020160040160006004848154811061112f57fe5b60009182526020808320909101546001600160a01b0390811684528382019490945260409283018220938a1682529290925290205483906117ba565b91506001016110f5565b505b90505b92915050565b611188611586565b6000546001600160a01b039081169116146111d8576040805162461bcd60e51b81526020600482018190526024820152600080516020611aa9833981519152604482015290519081900360640190fd5b6001600160a01b03811661121d5760405162461bcd60e51b8152600401808060200182810382526026815260200180611a2c6026913960400191505060405180910390fd5b600080546040516001600160a01b0380851693921691600080516020611ac983398151915291a3600080546001600160a01b0319166001600160a01b0392909216919091179055565b6002546001600160a01b03163314156112be576040805162461bcd60e51b8152602060048201526015602482015274596f752061726520612076616c696461746f72202160581b604482015290519081900360640190fd5b6000600582815481106112cd57fe5b600091825260208083206001600160a01b0387168452600460069093020191909101815260408083203384529091529020541161134f576040805162461bcd60e51b815260206004820152601b60248201527a07374616b696e672062616c616e63652063616e6e6f74206265203602c1b604482015290519081900360640190fd5b6113588261175d565b6113935760405162461bcd60e51b8152600401808060200182810382526026815260200180611ae96026913960400191505060405180910390fd5b6000600582815481106113a257fe5b600091825260208083206001600160a01b038716845260046006909302019190910181526040808320338452909152812054600354600580549294506113ec9286908110610ad457fe5b90506000600584815481106113fd57fe5b600091825260208083206001600160a01b03891684526004600690930201919091018152604080832033845290915290205560075461143c9083611544565b6007556001600160a01b03841663a9059cbb336114598585611544565b6040518363ffffffff1660e01b815260040180836001600160a01b0316815260200182815260200192505050602060405180830381600087803b15801561149f57600080fd5b505af11580156114b3573d6000803e3d6000fd5b505050506040513d60208110156114c957600080fd5b5050336000908152600660205260409020546114e6906001611544565b3360009081526006602052604090208190556115315760006115073361189b565b90506003818154811061151657fe5b600091825260209091200180546001600160a01b0319169055505b50505050565b6003818154811061077657fe5b600061117783836040518060400160405280601e81526020017f536166654d6174683a207375627472616374696f6e206f766572666c6f7700008152506118f4565b3390565b6115926119f0565b82815260208101828152600060808301818152600580546001810182559252835160069092027f036b6384b5eca791c62761152d0c79bb0604c104a5fb6f4eb0703f3154bb3db0810192835592517f036b6384b5eca791c62761152d0c79bb0604c104a5fb6f4eb0703f3154bb3db184015560408401517f036b6384b5eca791c62761152d0c79bb0604c104a5fb6f4eb0703f3154bb3db284015560608401517f036b6384b5eca791c62761152d0c79bb0604c104a5fb6f4eb0703f3154bb3db3909301805493151560ff199094169390931780845590518493909161ff00191661010083600281111561168257fe5b02179055505060055461169791506001611544565b6040517ff791e873e3b67fe74b29aeede7bcbbdaa59c4b64e542571183cd837aa56f6ac990600090a2505050565b6000826116d45750600061117a565b828202828482816116e157fe5b04146111775760405162461bcd60e51b8152600401808060200182810382526021815260200180611a886021913960400191505060405180910390fd5b600061117783836040518060400160405280601a815260200179536166654d6174683a206469766973696f6e206279207a65726f60301b81525061198b565b6000805b6004548110156117af57826001600160a01b03166004828154811061178257fe5b6000918252602090912001546001600160a01b031614156117a75760019150506117b5565b600101611761565b50600090505b919050565b600082820183811015611177576040805162461bcd60e51b815260206004820152601b60248201527a536166654d6174683a206164646974696f6e206f766572666c6f7760281b604482015290519081900360640190fd5b60006005828154811061182157fe5b600091825260208083206001600160a01b038781168552600693909302016004018152604080842092881684529190529020541161108a576001600160a01b03831660009081526006602052604090205461187d9060016117ba565b6001600160a01b038416600090815260066020526040902055505050565b6000805b6003548110156118ea57826001600160a01b0316600382815481106118c057fe5b6000918252602090912001546001600160a01b031614156118e25790506117b5565b60010161189f565b5060001992915050565b600081848411156119835760405162461bcd60e51b81526004018080602001828103825283818151815260200191508051906020019080838360005b83811015611948578181015183820152602001611930565b50505050905090810190601f1680156119755780820380516001836020036101000a031916815260200191505b509250505060405180910390fd5b505050900390565b600081836119da5760405162461bcd60e51b8152602060048201818152835160248401528351909283926044909101919085019080838360008315611948578181015183820152602001611930565b5060008385816119e657fe5b0495945050505050565b6040518060a0016040528060008152602001600081526020016000815260200160001515815260200160006002811115611a2657fe5b90529056fe4f776e61626c653a206e6577206f776e657220697320746865207a65726f2061646472657373596f75206861766520616c726561647920636c61696d656420796f75722072657761726420666f72207468697320706572696f642021536166654d6174683a206d756c7469706c69636174696f6e206f766572666c6f774f776e61626c653a2063616c6c6572206973206e6f7420746865206f776e65728be0079c531659141344cd1fd0a4f28419497f9722a3daafe3b4186f6b6457e0746f6b656e2073686f756c64206265206175746f726973656420746f206265207374616b6564596f75206861766520616c726561647920636c61696d656420796f757220636f6d70656e736174696f6e20666f72207468697320706572696f642021a264697066735822122030e6a26cf08735eba621f2f779200a4a8cd7110d693d0431f43aa126443e0d8f64736f6c634300060c0033506c6561736520636865636b2074686520706172616d73206f6620796f757220706572696f64732021",
  "immutableReferences": {},
  "source": "// SPDX-License-Identifier: MIT\npragma solidity ^0.6.0;\n\nimport \"../bDSLA/bDSLAToken.sol\";\nimport \"@openzeppelin/contracts/token/ERC20/IERC20.sol\";\nimport \"@openzeppelin/contracts/access/Ownable.sol\";\nimport \"@openzeppelin/contracts/math/SafeMath.sol\";\n\ncontract Staking is Ownable {\n    using SafeMath for uint256;\n    \n    enum Status { NotVerified, Respected, NotRespected }\n    \n    struct Period {\n      uint sla_period_start;\n      uint sla_period_end;\n      uint claimed_reward;\n      bool claimed;\n      Status status;\n      mapping(address => mapping(address => uint)) stakingBalance;   // staking balance for all tokens (address token => (address user => amount))\n      mapping(address => uint256) claimed_compensation;\n    }\n\n    bDSLAToken public bDSLA;\n    address public validator;\n    address[] public stakers; // list of all stakers (validators, vouchers, delegators ...)\n    address[] public allowedTokens; // mapping for all allowed tokens to be staked\n    Period[] public periods; // all periods for an SLA \n    mapping(address => uint) public uniqueTokensStaked; // mapping to trace how many token is staked by an user\n    uint public totalStaked; \n\n    event NewPeriodAdded(uint indexed period_index);\n    \n    modifier notValidator {\n        require(msg.sender != validator, \"You are a validator !\");\n        _;\n    }\n    \n    modifier onlyValidator {\n        require(msg.sender == validator, \"You are not a validator !\");\n        _;\n    }\n    \n    modifier onlyInPeriod(uint _period) {\n        require(block.timestamp >= periods[_period].sla_period_start &&\n        block.timestamp <= periods[_period].sla_period_end);\n        _;\n    }\n    \n    constructor(bDSLAToken _tokenAddress, uint[] memory _sla_period_starts, uint[] memory _sla_period_ends) public {\n        require(_sla_period_starts.length == _sla_period_ends.length, \"Please check the params of your periods !\");\n        bDSLA = bDSLAToken(_tokenAddress);\n        allowedTokens.push(address(bDSLA));\n        validator = msg.sender;\n        \n        for(uint i = 0; i < _sla_period_starts.length; i++) {\n            _addPeriod(_sla_period_starts[i], _sla_period_ends[i]);\n        }\n    }\n    \n    // add new period \n    function addNewPeriod(uint _sla_period_start, uint _sla_period_end) public onlyOwner {\n        _addPeriod(_sla_period_start, _sla_period_end);\n    }\n    \n    // autorise a new token to be staked\n    function addAllowedTokens(address _token) public onlyOwner {\n        allowedTokens.push(_token);\n    }\n\n    // stake an amount of token\n    function stakeTokens(uint _amount, address _token, uint _period) public {\n        require(_amount > 0, \"amount cannot be 0\");\n        require(_tokenIsAllowed(_token), \"token should be autorised to be staked\");\n\n        // check if the staker had already staked another token or not\n        _updateUniqueTokensStaked(msg.sender, _token, _period);\n        // stake tokens\n        IERC20(_token).transferFrom(msg.sender, address(this), _amount);\n        // update balance of staked tokens per staker\n        periods[_period].stakingBalance[_token][msg.sender] = periods[_period].stakingBalance[_token][msg.sender].add(_amount);\n        totalStaked = totalStaked.add(_amount);\n\n        // if the token is the unique one staked by the staker\n        // add the staker to the list\n        if (uniqueTokensStaked[msg.sender] == 1) {\n            stakers.push(msg.sender);\n        }\n    }\n\n    // Unstaking Tokens\n    function withdraw(address _token, uint _period) public notValidator {\n        // check if staker has staked tokens\n        require(periods[_period].stakingBalance[_token][msg.sender] > 0, \"staking balance cannot be 0\");\n        require(_tokenIsAllowed(_token), \"token should be autorised to be staked\");\n\n        // unstake bDSLA tokens\n        uint staked = periods[_period].stakingBalance[_token][msg.sender];\n        uint claimed_reward = periods[_period].claimed_reward.div(stakers.length);\n        \n        periods[_period].stakingBalance[_token][msg.sender] = 0;\n        totalStaked = totalStaked.sub(staked);\n        IERC20(_token).transfer(msg.sender, staked.sub(claimed_reward));\n\n        // update uniqueTokensStaked for the staker\n        uniqueTokensStaked[msg.sender] = uniqueTokensStaked[msg.sender].sub(1);\n        \n        if(uniqueTokensStaked[msg.sender] == 0) {\n            uint index = _getIndex(msg.sender);\n            delete stakers[index];\n        }\n    }\n\n    // withdraw bDSLA and stake d Tokens\n    function withdrawAndStake(address _token, uint _amount, uint _period) public notValidator {\n      // check if staker has staked tokens\n      require(periods[_period].stakingBalance[_token][msg.sender] > 0, \"staking balance cannot be 0\");\n      require(_tokenIsAllowed(_token), \"token should be autorised to be staked\");\n\n      // stake d tokens\n      IERC20(_token).transferFrom(msg.sender, address(this), _amount);\n      // update balance of staked tokens per staker\n      periods[_period].stakingBalance[_token][msg.sender] = periods[_period].stakingBalance[_token][msg.sender].add(_amount);\n      totalStaked = totalStaked.add(_amount);\n\n      // unstake bDSLA tokens\n      uint staked = periods[_period].stakingBalance[_token][msg.sender];\n      uint claimed_reward = periods[_period].claimed_reward.div(stakers.length);\n\n      periods[_period].stakingBalance[_token][msg.sender] = 0;\n      totalStaked = totalStaked.sub(staked);\n      bDSLA.transfer(msg.sender, staked.sub(claimed_reward));\n      \n    }\n    \n    // claim from validators\n    function claimReward(uint _period) public onlyInPeriod(_period) onlyValidator {\n        require(periods[_period].status == Status.Respected, \"SLA not respected !\");\n        require(!periods[_period].claimed, \"You have already claimed your reward for this period !\");\n            \n        uint reward = totalStaked.div(periods.length);\n        uint fees = reward.mul(3).div(10);\n        \n        totalStaked = totalStaked.sub(reward);\n        periods[_period].claimed_reward = reward;\n        periods[_period].claimed = true;\n\n        bDSLA.transfer(msg.sender, reward);\n        bDSLA.burn(fees);\n    }\n    \n    // claim from delegators\n    function claimCompensation(uint _period) public onlyInPeriod(_period) notValidator {\n        require(periods[_period].status == Status.NotRespected, \"SLA respected !\");\n        require(periods[_period].claimed_compensation[msg.sender] == 0, \"You have already claimed your compensation for this period !\");\n           \n        uint compensation = getUserTotalValue(msg.sender, _period);\n        uint fees = compensation.mul(3).div(10);\n        \n        totalStaked = totalStaked.sub(compensation);\n        periods[_period].claimed_compensation[msg.sender] = compensation;\n\n        bDSLA.transfer(msg.sender, compensation);\n        bDSLA.burn(fees);\n    }\n    \n    function getUserTotalValue(address _user, uint _period) public view returns (uint256) {\n        uint256 totalValue = 0;\n        if (uniqueTokensStaked[_user] > 0) {\n            for (\n                uint256 allowedTokensIndex = 0;\n                allowedTokensIndex < allowedTokens.length;\n                allowedTokensIndex++\n            ) {\n                totalValue = totalValue.add(periods[_period].stakingBalance[allowedTokens[allowedTokensIndex]][_user]);\n            }\n        }\n        return totalValue;\n    }\n    \n    function _tokenIsAllowed(address token) internal view returns (bool){\n        for (\n            uint256 allowedTokensIndex = 0;\n            allowedTokensIndex < allowedTokens.length;\n            allowedTokensIndex++\n        ) {\n            if (allowedTokens[allowedTokensIndex] == token) {\n                return true;\n            }\n        }\n        return false;\n    }\n    \n    function _updateUniqueTokensStaked(address _user, address _token, uint _period) internal {\n        if (periods[_period].stakingBalance[_token][_user] <= 0) {\n            uniqueTokensStaked[_user] = uniqueTokensStaked[_user].add(1);\n        }\n    }\n    \n    function _getIndex(address _user) internal view returns (uint){\n        for(uint i = 0; i < stakers.length; i++){\n            if(stakers[i] == _user){\n                return i;\n            }\n        }\n        return (uint(-1));\n    }\n    \n    function _addPeriod(uint _sla_period_start, uint _sla_period_end) internal {\n        Period memory _period;\n        \n        _period.sla_period_start = _sla_period_start;\n        _period.sla_period_end = _sla_period_end;\n        _period.status = Status.NotVerified; \n        \n        periods.push(_period);\n        \n        emit NewPeriodAdded(periods.length.sub(1));\n    }\n}",
  "sourcePath": "/Users/wilhempujar/Development/stacktical-dsla-contracts/contracts/SLA/Staking.sol",
  "compiler": {
    "name": "solc",
    "version": "0.6.12+commit.27d51765.Emscripten.clang"
  },
  "schemaVersion": "3.2.5",
  "updatedAt": "2020-10-16T11:59:01.058Z",
  "devdoc": {
    "kind": "dev",
    "methods": {
      "owner()": {
        "details": "Returns the address of the current owner."
      },
      "renounceOwnership()": {
        "details": "Leaves the contract without owner. It will not be possible to call `onlyOwner` functions anymore. Can only be called by the current owner. NOTE: Renouncing ownership will leave the contract without an owner, thereby removing any functionality that is only available to the owner."
      },
      "transferOwnership(address)": {
        "details": "Transfers ownership of the contract to a new account (`newOwner`). Can only be called by the current owner."
      }
    },
    "version": 1
  },
  "userdoc": {
    "kind": "user",
    "methods": {},
    "version": 1
  }
}