{
  "contractName": "StakeRegistry",
  "abi": [
    {
      "inputs": [
        {
          "internalType": "address",
          "name": "_dslaTokenAddress",
          "type": "address"
        }
      ],
      "stateMutability": "nonpayable",
      "type": "constructor"
    },
    {
      "anonymous": false,
      "inputs": [
        {
          "indexed": true,
          "internalType": "address",
          "name": "previousOwner",
          "type": "address"
        },
        {
          "indexed": true,
          "internalType": "address",
          "name": "newOwner",
          "type": "address"
        }
      ],
      "name": "OwnershipTransferred",
      "type": "event"
    },
    {
      "anonymous": false,
      "inputs": [
        {
          "indexed": false,
          "internalType": "uint256",
          "name": "DSLAburnRate",
          "type": "uint256"
        },
        {
          "indexed": false,
          "internalType": "uint256",
          "name": "dslaDepositByPeriod",
          "type": "uint256"
        },
        {
          "indexed": false,
          "internalType": "uint256",
          "name": "dslaPlatformReward",
          "type": "uint256"
        },
        {
          "indexed": false,
          "internalType": "uint256",
          "name": "dslaMessengerReward",
          "type": "uint256"
        },
        {
          "indexed": false,
          "internalType": "uint256",
          "name": "dslaUserReward",
          "type": "uint256"
        },
        {
          "indexed": false,
          "internalType": "uint256",
          "name": "dslaBurnedByVerification",
          "type": "uint256"
        },
        {
          "indexed": false,
          "internalType": "uint256",
          "name": "maxTokenLength",
          "type": "uint256"
        }
      ],
      "name": "StakingParametersModified",
      "type": "event"
    },
    {
      "anonymous": false,
      "inputs": [
        {
          "indexed": true,
          "internalType": "address",
          "name": "sla",
          "type": "address"
        },
        {
          "indexed": true,
          "internalType": "address",
          "name": "requester",
          "type": "address"
        },
        {
          "indexed": false,
          "internalType": "uint256",
          "name": "userReward",
          "type": "uint256"
        },
        {
          "indexed": false,
          "internalType": "uint256",
          "name": "platformReward",
          "type": "uint256"
        },
        {
          "indexed": false,
          "internalType": "uint256",
          "name": "messengerReward",
          "type": "uint256"
        },
        {
          "indexed": false,
          "internalType": "uint256",
          "name": "burnedDSLA",
          "type": "uint256"
        }
      ],
      "name": "VerificationRewardDistributed",
      "type": "event"
    },
    {
      "inputs": [],
      "name": "DSLATokenAddress",
      "outputs": [
        {
          "internalType": "address",
          "name": "",
          "type": "address"
        }
      ],
      "stateMutability": "view",
      "type": "function",
      "constant": true
    },
    {
      "inputs": [
        {
          "internalType": "uint256",
          "name": "",
          "type": "uint256"
        }
      ],
      "name": "allowedTokens",
      "outputs": [
        {
          "internalType": "address",
          "name": "",
          "type": "address"
        }
      ],
      "stateMutability": "view",
      "type": "function",
      "constant": true
    },
    {
      "inputs": [],
      "name": "owner",
      "outputs": [
        {
          "internalType": "address",
          "name": "",
          "type": "address"
        }
      ],
      "stateMutability": "view",
      "type": "function",
      "constant": true
    },
    {
      "inputs": [],
      "name": "renounceOwnership",
      "outputs": [],
      "stateMutability": "nonpayable",
      "type": "function"
    },
    {
      "inputs": [
        {
          "internalType": "address",
          "name": "",
          "type": "address"
        }
      ],
      "name": "slaLockedValue",
      "outputs": [
        {
          "internalType": "uint256",
          "name": "lockedValue",
          "type": "uint256"
        },
        {
          "internalType": "uint256",
          "name": "slaPeriodIdsLength",
          "type": "uint256"
        },
        {
          "internalType": "uint256",
          "name": "dslaDepositByPeriod",
          "type": "uint256"
        },
        {
          "internalType": "uint256",
          "name": "dslaPlatformReward",
          "type": "uint256"
        },
        {
          "internalType": "uint256",
          "name": "dslaMessengerReward",
          "type": "uint256"
        },
        {
          "internalType": "uint256",
          "name": "dslaUserReward",
          "type": "uint256"
        },
        {
          "internalType": "uint256",
          "name": "dslaBurnedByVerification",
          "type": "uint256"
        }
      ],
      "stateMutability": "view",
      "type": "function",
      "constant": true
    },
    {
      "inputs": [],
      "name": "slaRegistry",
      "outputs": [
        {
          "internalType": "contract SLARegistry",
          "name": "",
          "type": "address"
        }
      ],
      "stateMutability": "view",
      "type": "function",
      "constant": true
    },
    {
      "inputs": [
        {
          "internalType": "address",
          "name": "newOwner",
          "type": "address"
        }
      ],
      "name": "transferOwnership",
      "outputs": [],
      "stateMutability": "nonpayable",
      "type": "function"
    },
    {
      "inputs": [
        {
          "internalType": "address",
          "name": "",
          "type": "address"
        },
        {
          "internalType": "uint256",
          "name": "",
          "type": "uint256"
        }
      ],
      "name": "userStakedSlas",
      "outputs": [
        {
          "internalType": "contract SLA",
          "name": "",
          "type": "address"
        }
      ],
      "stateMutability": "view",
      "type": "function",
      "constant": true
    },
    {
      "inputs": [],
      "name": "setSLARegistry",
      "outputs": [],
      "stateMutability": "nonpayable",
      "type": "function"
    },
    {
      "inputs": [
        {
          "internalType": "address",
          "name": "_tokenAddress",
          "type": "address"
        }
      ],
      "name": "addAllowedTokens",
      "outputs": [],
      "stateMutability": "nonpayable",
      "type": "function"
    },
    {
      "inputs": [
        {
          "internalType": "address",
          "name": "_tokenAddress",
          "type": "address"
        }
      ],
      "name": "isAllowedToken",
      "outputs": [
        {
          "internalType": "bool",
          "name": "",
          "type": "bool"
        }
      ],
      "stateMutability": "view",
      "type": "function",
      "constant": true
    },
    {
      "inputs": [
        {
          "internalType": "address",
          "name": "_user",
          "type": "address"
        },
        {
          "internalType": "address",
          "name": "_sla",
          "type": "address"
        }
      ],
      "name": "slaWasStakedByUser",
      "outputs": [
        {
          "internalType": "bool",
          "name": "",
          "type": "bool"
        }
      ],
      "stateMutability": "view",
      "type": "function",
      "constant": true
    },
    {
      "inputs": [
        {
          "internalType": "address",
          "name": "_owner",
          "type": "address"
        }
      ],
      "name": "registerStakedSla",
      "outputs": [
        {
          "internalType": "bool",
          "name": "",
          "type": "bool"
        }
      ],
      "stateMutability": "nonpayable",
      "type": "function"
    },
    {
      "inputs": [
        {
          "internalType": "string",
          "name": "_name",
          "type": "string"
        },
        {
          "internalType": "string",
          "name": "_symbol",
          "type": "string"
        }
      ],
      "name": "createDToken",
      "outputs": [
        {
          "internalType": "address",
          "name": "",
          "type": "address"
        }
      ],
      "stateMutability": "nonpayable",
      "type": "function"
    },
    {
      "inputs": [
        {
          "internalType": "address",
          "name": "_slaOwner",
          "type": "address"
        },
        {
          "internalType": "address",
          "name": "_sla",
          "type": "address"
        },
        {
          "internalType": "uint256",
          "name": "_periodIdsLength",
          "type": "uint256"
        }
      ],
      "name": "lockDSLAValue",
      "outputs": [],
      "stateMutability": "nonpayable",
      "type": "function"
    },
    {
      "inputs": [
        {
          "internalType": "address",
          "name": "_sla",
          "type": "address"
        },
        {
          "internalType": "address",
          "name": "_verificationRewardReceiver",
          "type": "address"
        },
        {
          "internalType": "uint256",
          "name": "_periodId",
          "type": "uint256"
        }
      ],
      "name": "distributeVerificationRewards",
      "outputs": [],
      "stateMutability": "nonpayable",
      "type": "function"
    },
    {
      "inputs": [
        {
          "internalType": "address",
          "name": "_sla",
          "type": "address"
        }
      ],
      "name": "returnLockedValue",
      "outputs": [],
      "stateMutability": "nonpayable",
      "type": "function"
    },
    {
      "inputs": [
        {
          "internalType": "address",
          "name": "_slaOwner",
          "type": "address"
        }
      ],
      "name": "getActivePool",
      "outputs": [
        {
          "components": [
            {
              "internalType": "address",
              "name": "SLAAddress",
              "type": "address"
            },
            {
              "internalType": "uint256",
              "name": "stake",
              "type": "uint256"
            },
            {
              "internalType": "string",
              "name": "assetName",
              "type": "string"
            },
            {
              "internalType": "address",
              "name": "assetAddress",
              "type": "address"
            }
          ],
          "internalType": "struct StakeRegistry.ActivePool[]",
          "name": "",
          "type": "tuple[]"
        }
      ],
      "stateMutability": "view",
      "type": "function",
      "constant": true
    },
    {
      "inputs": [
        {
          "internalType": "uint256",
          "name": "DSLAburnRate",
          "type": "uint256"
        },
        {
          "internalType": "uint256",
          "name": "dslaDepositByPeriod",
          "type": "uint256"
        },
        {
          "internalType": "uint256",
          "name": "dslaPlatformReward",
          "type": "uint256"
        },
        {
          "internalType": "uint256",
          "name": "dslaMessengerReward",
          "type": "uint256"
        },
        {
          "internalType": "uint256",
          "name": "dslaUserReward",
          "type": "uint256"
        },
        {
          "internalType": "uint256",
          "name": "dslaBurnedByVerification",
          "type": "uint256"
        },
        {
          "internalType": "uint256",
          "name": "maxTokenLength",
          "type": "uint256"
        }
      ],
      "name": "setStakingParameters",
      "outputs": [],
      "stateMutability": "nonpayable",
      "type": "function"
    },
    {
      "inputs": [],
      "name": "getStakingParameters",
      "outputs": [
        {
          "internalType": "uint256",
          "name": "DSLAburnRate",
          "type": "uint256"
        },
        {
          "internalType": "uint256",
          "name": "dslaDepositByPeriod",
          "type": "uint256"
        },
        {
          "internalType": "uint256",
          "name": "dslaPlatformReward",
          "type": "uint256"
        },
        {
          "internalType": "uint256",
          "name": "dslaMessengerReward",
          "type": "uint256"
        },
        {
          "internalType": "uint256",
          "name": "dslaUserReward",
          "type": "uint256"
        },
        {
          "internalType": "uint256",
          "name": "dslaBurnedByVerification",
          "type": "uint256"
        },
        {
          "internalType": "uint256",
          "name": "maxTokenLength",
          "type": "uint256"
        }
      ],
      "stateMutability": "view",
      "type": "function",
      "constant": true
    },
    {
      "inputs": [
        {
          "internalType": "address",
          "name": "_sla",
          "type": "address"
        },
        {
          "internalType": "uint256",
          "name": "_periodId",
          "type": "uint256"
        }
      ],
      "name": "periodIsVerified",
      "outputs": [
        {
          "internalType": "bool",
          "name": "",
          "type": "bool"
        }
      ],
      "stateMutability": "view",
      "type": "function",
      "constant": true
    }
  ],
  "bytecode": "0x60806040526003805569043c33c193756480000060055569010f0cf064dd5920000060065569010f0cf064dd5920000060075569021ad935f79f76d00000600855680340aad21b3b7000006009556001600a553480156200005f57600080fd5b506040516200407a3803806200407a8339810160408190526200008291620001dd565b6000620000976001600160e01b03620001aa16565b600080546001600160a01b0319166001600160a01b0383169081178255604051929350917f8be0079c531659141344cd1fd0a4f28419497f9722a3daafe3b4186f6b6457e0908290a350620001216009546200010d6008546200010d600754600654620001ae60201b620016131790919060201c565b620001ae60201b620016131790919060201c565b600554146200014d5760405162461bcd60e51b815260040162000144906200023d565b60405180910390fd5b600180546001600160a01b039092166001600160a01b031992831681178255600b805492830181556000527f0175b7a638427703f0dbe7bb9bbf987a2551717b34e79f33b5b1008d1fa01db9909101805490921617905562000289565b3390565b600082820183811015620001d65760405162461bcd60e51b8152600401620001449062000206565b9392505050565b600060208284031215620001ef578081fd5b81516001600160a01b0381168114620001d6578182fd5b6020808252601b908201527f536166654d6174683a206164646974696f6e206f766572666c6f770000000000604082015260600190565b6020808252602c908201527f5374616b696e6720706172616d65746572732073686f756c64206d617463682060408201526b37b71039bab6b6b0ba34b7b760a11b606082015260800190565b613de180620002996000396000f3fe60806040523480156200001157600080fd5b5060043610620001545760003560e01c80638da5cb5b11620000c9578063cbe230c31162000087578063cbe230c314620002c9578063db69a46214620002e0578063f2c0dfd414620002ea578063f2fde38b1462000310578063f38815891462000327578063f700839e14620003315762000154565b80638da5cb5b1462000263578063a3f5cadf146200026d578063a91a463c1462000284578063ab9a81a5146200029b578063b290508e14620002b25762000154565b80635f635ce111620001175780635f635ce114620001f557806366a0428e1462000221578063715018a614620002385780637afb4c0a14620002425780638b8e530914620002595762000154565b80630df0bfc61462000159578063171e44ea146200018857806322f3c33c14620001a15780632575d7ca14620001b85780635e5f2e2614620001cf575b600080fd5b620001706200016a366004620018fa565b6200033b565b6040516200017f919062001c1c565b60405180910390f35b6200019f62000199366004620018bc565b620003c6565b005b6200019f620001b236600462001937565b62000486565b6200019f620001c9366004620018bc565b6200070c565b620001e6620001e036600462001a7d565b62000815565b6040516200017f919062001b2e565b6200020c62000206366004620018bc565b6200083d565b6040516200017f979695949392919062002006565b620001e66200023236600462001a15565b6200087a565b6200019f62000a44565b6200019f6200025336600462001937565b62000ac8565b620001e662000bc2565b620001e662000bd1565b620001e66200027e3660046200197c565b62000be0565b6200019f6200029536600462001a96565b62000c16565b62000170620002ac3660046200197c565b62000d0a565b62000170620002c3366004620018bc565b62000d39565b62000170620002da366004620018bc565b62000e37565b620001e662000e97565b62000301620002fb366004620018bc565b62000ea6565b6040516200017f919062001b7f565b6200019f62000321366004620018bc565b620012ca565b6200019f62001388565b6200020c620013c8565b6000805b6001600160a01b0384166000908152600c6020526040902054811015620003ba576001600160a01b038481166000908152600c60205260409020805491851691839081106200038a57fe5b6000918252602090912001546001600160a01b03161415620003b1576001915050620003c0565b6001016200033f565b50600090505b92915050565b620003d0620013ec565b6000546001600160a01b03908116911614620004095760405162461bcd60e51b8152600401620004009062001efd565b60405180910390fd5b620004148162000e37565b15620004345760405162461bcd60e51b8152600401620004009062001dc2565b600b80546001810182556000919091527f0175b7a638427703f0dbe7bb9bbf987a2551717b34e79f33b5b1008d1fa01db90180546001600160a01b0319166001600160a01b0392909216919091179055565b6002546001600160a01b03163314620004b35760405162461bcd60e51b8152600401620004009062001e37565b6001600160a01b0383166000908152600460209081526040808320848452600781019092529091205460ff1615620004ff5760405162461bcd60e51b8152600401620004009062001cfd565b60008281526007820160205260409020805460ff1916600117905560028101548154620005329163ffffffff620013f016565b815560058101546001546200055b916001600160a01b0390911690859063ffffffff6200143b16565b620005886200056962000bd1565b60038301546001546001600160a01b0316919063ffffffff6200143b16565b62000694846001600160a01b031663a224ee9c6040518163ffffffff1660e01b815260040160206040518083038186803b158015620005c657600080fd5b505afa158015620005db573d6000803e3d6000fd5b505050506040513d601f19601f82011682018060405250810190620006019190620018db565b6001600160a01b0316638da5cb5b6040518163ffffffff1660e01b815260040160206040518083038186803b1580156200063a57600080fd5b505afa1580156200064f573d6000803e3d6000fd5b505050506040513d601f19601f82011682018060405250810190620006759190620018db565b60048301546001546001600160a01b0316919063ffffffff6200143b16565b620006a3816006015462001495565b826001600160a01b0316846001600160a01b03167f826cb0a7342bbb8cfd359b578a84d13c8d382259a596846313632ea4f8a9e0df8360050154846003015485600401548660060154604051620006fe949392919062001feb565b60405180910390a350505050565b6002546001600160a01b03163314620007395760405162461bcd60e51b8152600401620004009062001e37565b6001600160a01b0381166000908152600460205260409020805480620007735760405162461bcd60e51b8152600401620004009062001f69565b6000826000018190555062000810836001600160a01b0316638da5cb5b6040518163ffffffff1660e01b815260040160206040518083038186803b158015620007bb57600080fd5b505afa158015620007d0573d6000803e3d6000fd5b505050506040513d601f19601f82011682018060405250810190620007f69190620018db565b6001546001600160a01b0316908363ffffffff6200143b16565b505050565b600b81815481106200082357fe5b6000918252602090912001546001600160a01b0316905081565b6004602081905260009182526040909120805460018201546002830154600384015494840154600585015460069095015493959294919390919087565b60025460405163c4277a7b60e01b81526000916001600160a01b03169063c4277a7b90620008ad90339060040162001b2e565b60206040518083038186803b158015620008c657600080fd5b505afa158015620008db573d6000803e3d6000fd5b505050506040513d601f19601f82011682018060405250810190620009019190620019da565b1515600114620009255760405162461bcd60e51b8152600401620004009062001c85565b600083836040516200093790620017f2565b6200094492919062001c53565b604051809103906000f08015801562000961573d6000803e3d6000fd5b509050806001600160a01b0316632f2ff15d826001600160a01b031663d53913936040518163ffffffff1660e01b815260040160206040518083038186803b158015620009ad57600080fd5b505afa158015620009c2573d6000803e3d6000fd5b505050506040513d601f19601f82011682018060405250810190620009e89190620019fc565b336040518363ffffffff1660e01b815260040162000a0892919062001c27565b600060405180830381600087803b15801562000a2357600080fd5b505af115801562000a38573d6000803e3d6000fd5b50929695505050505050565b62000a4e620013ec565b6000546001600160a01b0390811691161462000a7e5760405162461bcd60e51b8152600401620004009062001efd565b600080546040516001600160a01b03909116907f8be0079c531659141344cd1fd0a4f28419497f9722a3daafe3b4186f6b6457e0908390a3600080546001600160a01b0319169055565b6002546001600160a01b0316331462000af55760405162461bcd60e51b8152600401620004009062001e37565b60055460009062000b0d908363ffffffff620015a916565b60015490915062000b30906001600160a01b031685308463ffffffff620015e916565b6040805160e08101825291825260208083019384526005805484840190815260068054606087019081526007546080880190815260085460a0890190815260095460c08a019081526001600160a01b03909b1660009081526004978890529790972097518855975160018801559151600287015590516003860155945191840191909155905190820155915191015550565b6001546001600160a01b031681565b6000546001600160a01b031690565b600c602052816000526040600020818154811062000bfa57fe5b6000918252602090912001546001600160a01b03169150829050565b62000c20620013ec565b6000546001600160a01b0390811691161462000c505760405162461bcd60e51b8152600401620004009062001efd565b600387905560058690556006859055600784905560088390556009829055600a81905562000c998262000c8c8581898963ffffffff6200161316565b9063ffffffff6200161316565b6005541462000cbc5760405162461bcd60e51b8152600401620004009062001d76565b7fde8ccadca0503e7f20d8beeffe8a0ec59d46bdee8efea4c2515c4207e1bf66258787878787878760405162000cf9979695949392919062002006565b60405180910390a150505050505050565b6001600160a01b0391909116600090815260046020908152604080832093835260079093019052205460ff1690565b60025460405163c4277a7b60e01b81526000916001600160a01b03169063c4277a7b9062000d6c90339060040162001b2e565b60206040518083038186803b15801562000d8557600080fd5b505afa15801562000d9a573d6000803e3d6000fd5b505050506040513d601f19601f8201168201806040525081019062000dc09190620019da565b151560011462000de45760405162461bcd60e51b8152600401620004009062001c85565b62000df082336200033b565b62000e2e576001600160a01b0382166000908152600c602090815260408220805460018101825590835291200180546001600160a01b031916331790555b5060015b919050565b6000805b600b5481101562000e8e57826001600160a01b0316600b828154811062000e5e57fe5b6000918252602090912001546001600160a01b0316141562000e8557600191505062000e32565b60010162000e3b565b50600092915050565b6002546001600160a01b031681565b6040805180820190915260068152656e616d65282960d01b60209091015260607f06fdde0383f15d582d1a74511486c9ddf862a882fb7904b3d9fe9b8b8e58a7966000805b6001600160a01b0385166000908152600c602052604090205481101562000fe4576001600160a01b0385166000908152600c6020526040812080548390811062000f3157fe5b9060005260206000200160009054906101000a90046001600160a01b0316905062000fd8816001600160a01b031663b7bc347e6040518163ffffffff1660e01b815260040160206040518083038186803b15801562000f8f57600080fd5b505afa15801562000fa4573d6000803e3d6000fd5b505050506040513d601f19601f8201168201806040525081019062000fca9190620019fc565b849063ffffffff6200161316565b92505060010162000eeb565b5060608167ffffffffffffffff8111801562000fff57600080fd5b506040519080825280602002602001820160405280156200103d57816020015b6200102962001800565b8152602001906001900390816200101f5790505b5090506000805b6001600160a01b0387166000908152600c6020526040902054811015620012bf576001600160a01b0387166000908152600c602052604081208054839081106200108a57fe5b60009182526020822001546001600160a01b031691505b816001600160a01b031663b7bc347e6040518163ffffffff1660e01b815260040160206040518083038186803b158015620010db57600080fd5b505afa158015620010f0573d6000803e3d6000fd5b505050506040513d601f19601f82011682018060405250810190620011169190620019fc565b811015620012b457600080836001600160a01b03166357ac94f08c856040518363ffffffff1660e01b81526004016200115192919062001b66565b604080518083038186803b1580156200116957600080fd5b505afa1580156200117e573d6000803e3d6000fd5b505050506040513d601f19601f82011682018060405250810190620011a49190620019aa565b60408051600481526024810182526020810180516001600160e01b03166001600160e01b03198f1617905290519294509092506060916001600160a01b03851691620011f09162001b10565b600060405180830381855afa9150503d80600081146200122d576040519150601f19603f3d011682016040523d82523d6000602084013e62001232565b606091505b509150506200124062001800565b6040518060800160405280876001600160a01b03168152602001848152602001838152602001856001600160a01b03168152509050808989815181106200128357fe5b6020908102919091010152620012a188600163ffffffff6200161316565b97505060019093019250620010a1915050565b505060010162001044565b509095945050505050565b620012d4620013ec565b6000546001600160a01b03908116911614620013045760405162461bcd60e51b8152600401620004009062001efd565b6001600160a01b0381166200132d5760405162461bcd60e51b8152600401620004009062001cb7565b600080546040516001600160a01b03808516939216917f8be0079c531659141344cd1fd0a4f28419497f9722a3daafe3b4186f6b6457e091a3600080546001600160a01b0319166001600160a01b0392909216919091179055565b6002546001600160a01b031615620013b45760405162461bcd60e51b8152600401620004009062001def565b600280546001600160a01b03191633179055565b600354600554600654600754600854600954600a5495969495939492939192909190565b3390565b60006200143483836040518060400160405280601e81526020017f536166654d6174683a207375627472616374696f6e206f766572666c6f7700008152506200163b565b9392505050565b620008108363a9059cbb60e01b84846040516024016200145d92919062001b66565b60408051601f198184030181529190526020810180516001600160e01b03166001600160e01b0319909316929092179091526200166a565b604080518082018252600d81526c6275726e2875696e743235362960981b60209091015260015490517f42966c689b5afe9b9b3f8a7103b2a19980d59629bfd6a20a60972312ed41d836916000916001600160a01b039091169083906200150190869060240162001fe2565b60408051601f198184030181529181526020820180516001600160e01b03166001600160e01b031990941693909317909252905162001541919062001b10565b6000604051808303816000865af19150503d806000811462001580576040519150601f19603f3d011682016040523d82523d6000602084013e62001585565b606091505b5050905080620008105760405162461bcd60e51b8152600401620004009062001e78565b600082620015ba57506000620003c0565b82820282848281620015c857fe5b0414620014345760405162461bcd60e51b8152600401620004009062001ebc565b6200160d846323b872dd60e01b8585856040516024016200145d9392919062001b42565b50505050565b600082820183811015620014345760405162461bcd60e51b8152600401620004009062001d3f565b60008184841115620016625760405162461bcd60e51b815260040162000400919062001c3e565b505050900390565b6060620016c1826040518060400160405280602081526020017f5361666545524332303a206c6f772d6c6576656c2063616c6c206661696c6564815250856001600160a01b0316620017019092919063ffffffff16565b805190915015620008105780806020019051810190620016e29190620019da565b620008105760405162461bcd60e51b8152600401620004009062001f98565b60606200171284846000856200171a565b949350505050565b60606200172785620017ec565b620017465760405162461bcd60e51b8152600401620004009062001f32565b60006060866001600160a01b0316858760405162001765919062001b10565b60006040518083038185875af1925050503d8060008114620017a4576040519150601f19603f3d011682016040523d82523d6000602084013e620017a9565b606091505b50915091508115620017bf579150620017129050565b805115620017d05780518082602001fd5b8360405162461bcd60e51b815260040162000400919062001c3e565b3b151590565b611d2d806200207f83390190565b604051806080016040528060006001600160a01b03168152602001600081526020016060815260200160006001600160a01b031681525090565b600082601f8301126200184b578081fd5b813567ffffffffffffffff8082111562001863578283fd5b604051601f8301601f19168101602001828111828210171562001884578485fd5b604052828152925082848301602001861015620018a057600080fd5b8260208601602083013760006020848301015250505092915050565b600060208284031215620018ce578081fd5b8135620014348162002065565b600060208284031215620018ed578081fd5b8151620014348162002065565b600080604083850312156200190d578081fd5b82356200191a8162002065565b915060208301356200192c8162002065565b809150509250929050565b6000806000606084860312156200194c578081fd5b8335620019598162002065565b925060208401356200196b8162002065565b929592945050506040919091013590565b600080604083850312156200198f578182fd5b82356200199c8162002065565b946020939093013593505050565b60008060408385031215620019bd578182fd5b8251620019ca8162002065565b6020939093015192949293505050565b600060208284031215620019ec578081fd5b8151801515811462001434578182fd5b60006020828403121562001a0e578081fd5b5051919050565b6000806040838503121562001a28578182fd5b823567ffffffffffffffff8082111562001a40578384fd5b62001a4e868387016200183a565b9350602085013591508082111562001a64578283fd5b5062001a73858286016200183a565b9150509250929050565b60006020828403121562001a8f578081fd5b5035919050565b600080600080600080600060e0888a03121562001ab1578283fd5b505085359760208701359750604087013596606081013596506080810135955060a0810135945060c0013592509050565b6000815180845262001afc81602086016020860162002036565b601f01601f19169290920160200192915050565b6000825162001b2481846020870162002036565b9190910192915050565b6001600160a01b0391909116815260200190565b6001600160a01b039384168152919092166020820152604081019190915260600190565b6001600160a01b03929092168252602082015260400190565b60208082528251828201819052600091906040908185019080840286018301878501865b8381101562001c0e57888303603f19018552815180516001600160a01b0390811685528882015189860152878201516080898701819052919062001bea8388018262001ae2565b60609485015190921696909301959095525050938601939086019060010162001ba3565b509098975050505050505050565b901515815260200190565b9182526001600160a01b0316602082015260400190565b60006020825262001434602083018462001ae2565b60006040825262001c68604083018562001ae2565b828103602084015262001c7c818562001ae2565b95945050505050565b6020808252601890820152774f6e6c7920666f72207265676973746572656420534c417360401b604082015260600190565b60208082526026908201527f4f776e61626c653a206e6577206f776e657220697320746865207a65726f206160408201526564647265737360d01b606082015260800190565b60208082526022908201527f506572696f64207265776172647320616c726561647920646973747269627574604082015261195960f21b606082015260800190565b6020808252601b908201527f536166654d6174683a206164646974696f6e206f766572666c6f770000000000604082015260600190565b6020808252602c908201527f5374616b696e6720706172616d65746572732073686f756c64206d617463682060408201526b37b71039bab6b6b0ba34b7b760a11b606082015260800190565b6020808252601390820152721d1bdad95b88185b1c9958591e481859191959606a1b604082015260600190565b60208082526028908201527f534c41526567697374727920616464726573732068617320616c7265616479206040820152671899595b881cd95d60c21b606082015260800190565b60208082526021908201527f43616e206f6e6c792062652063616c6c656420627920534c41526567697374726040820152607960f81b606082015260800190565b60208082526024908201527f44534c41206275726e2070726f6365737320776173206e6f74207375636365736040820152631cd99d5b60e21b606082015260800190565b60208082526021908201527f536166654d6174683a206d756c7469706c69636174696f6e206f766572666c6f6040820152607760f81b606082015260800190565b6020808252818101527f4f776e61626c653a2063616c6c6572206973206e6f7420746865206f776e6572604082015260600190565b6020808252601d908201527f416464726573733a2063616c6c20746f206e6f6e2d636f6e7472616374000000604082015260600190565b6020808252601590820152746c6f636b65642076616c756520697320656d70747960581b604082015260600190565b6020808252602a908201527f5361666545524332303a204552433230206f7065726174696f6e20646964206e6040820152691bdd081cdd58d8d9595960b21b606082015260800190565b90815260200190565b93845260208401929092526040830152606082015260800190565b968752602087019590955260408601939093526060850191909152608084015260a083015260c082015260e00190565b60005b838110156200205357818101518382015260200162002039565b838111156200160d5750506000910152565b6001600160a01b03811681146200207b57600080fd5b5056fe60806040523480156200001157600080fd5b5060405162001d2d38038062001d2d833981810160405260408110156200003757600080fd5b81019080805160405193929190846401000000008211156200005857600080fd5b9083019060208201858111156200006e57600080fd5b82516401000000008111828201881017156200008957600080fd5b82525081516020918201929091019080838360005b83811015620000b85781810151838201526020016200009e565b50505050905090810190601f168015620000e65780820380516001836020036101000a031916815260200191505b50604052602001805160405193929190846401000000008211156200010a57600080fd5b9083019060208201858111156200012057600080fd5b82516401000000008111828201881017156200013b57600080fd5b82525081516020918201929091019080838360005b838110156200016a57818101518382015260200162000150565b50505050905090810190601f168015620001985780820380516001836020036101000a031916815260200191505b50604052505082518391508290620001b8906004906020850190620003be565b508051620001ce906005906020840190620003be565b50506006805461ff001960ff19909116601217169055506200020d6000620001fe6001600160e01b036200028516565b6001600160e01b036200028a16565b604080516a4d494e5445525f524f4c4560a81b8152905190819003600b0190206200024590620001fe6001600160e01b036200028516565b604080516a5041555345525f524f4c4560a81b8152905190819003600b0190206200027d90620001fe6001600160e01b036200028516565b505062000460565b335b90565b6200029f82826001600160e01b03620002a316565b5050565b600082815260208181526040909120620002c89183906200133462000325821b17901c565b156200029f57620002e16001600160e01b036200028516565b6001600160a01b0316816001600160a01b0316837f2f8788117e7eff1d82e926ec794901d17c78024a50270940304540a733656f0d60405160405180910390a45050565b600062000345836001600160a01b0384166001600160e01b036200034e16565b90505b92915050565b60006200036583836001600160e01b03620003a616565b6200039d5750815460018181018455600084815260208082209093018490558454848252828601909352604090209190915562000348565b50600062000348565b60009081526001919091016020526040902054151590565b828054600181600116156101000203166002900490600052602060002090601f016020900481019282601f106200040157805160ff191683800117855562000431565b8280016001018555821562000431579182015b828111156200043157825182559160200191906001019062000414565b506200043f92915062000443565b5090565b6200028791905b808211156200043f57600081556001016200044a565b6118bd80620004706000396000f3fe608060405234801561001057600080fd5b50600436106101795760003560e01c806370a08231116100d9578063a457c2d711610087578063a457c2d71461047a578063a9059cbb146104a6578063ca15c873146104d2578063d5391393146104ef578063d547741f146104f7578063dd62ed3e14610523578063e63ab1e91461055157610179565b806370a08231146103a557806379cc6790146103cb5780638456cb59146103f75780639010d07c146103ff57806391d148541461043e57806395d89b411461046a578063a217fddf1461047257610179565b8063313ce56711610136578063313ce567146102d657806336568abe146102f457806339509351146103205780633f4ba83a1461034c57806340c10f191461035457806342966c68146103805780635c975abb1461039d57610179565b806306fdde031461017e578063095ea7b3146101fb57806318160ddd1461023b57806323b872dd14610255578063248a9ca31461028b5780632f2ff15d146102a8575b600080fd5b610186610559565b6040805160208082528351818301528351919283929083019185019080838360005b838110156101c05781810151838201526020016101a8565b50505050905090810190601f1680156101ed5780820380516001836020036101000a031916815260200191505b509250505060405180910390f35b6102276004803603604081101561021157600080fd5b506001600160a01b0381351690602001356105ef565b604080519115158252519081900360200190f35b61024361060d565b60408051918252519081900360200190f35b6102276004803603606081101561026b57600080fd5b506001600160a01b03813581169160208101359091169060400135610613565b610243600480360360208110156102a157600080fd5b50356106a0565b6102d4600480360360408110156102be57600080fd5b50803590602001356001600160a01b03166106b5565b005b6102de610721565b6040805160ff9092168252519081900360200190f35b6102d46004803603604081101561030a57600080fd5b50803590602001356001600160a01b031661072a565b6102276004803603604081101561033657600080fd5b506001600160a01b03813516906020013561078b565b6102d46107df565b6102d46004803603604081101561036a57600080fd5b506001600160a01b038135169060200135610850565b6102d46004803603602081101561039657600080fd5b50356108c1565b6102276108d5565b610243600480360360208110156103bb57600080fd5b50356001600160a01b03166108e3565b6102d4600480360360408110156103e157600080fd5b506001600160a01b0381351690602001356108fe565b6102d461095e565b6104226004803603604081101561041557600080fd5b50803590602001356109cd565b604080516001600160a01b039092168252519081900360200190f35b6102276004803603604081101561045457600080fd5b50803590602001356001600160a01b03166109f2565b610186610a10565b610243610a71565b6102276004803603604081101561049057600080fd5b506001600160a01b038135169060200135610a76565b610227600480360360408110156104bc57600080fd5b506001600160a01b038135169060200135610ae4565b610243600480360360208110156104e857600080fd5b5035610af8565b610243610b0f565b6102d46004803603604081101561050d57600080fd5b50803590602001356001600160a01b0316610b32565b6102436004803603604081101561053957600080fd5b506001600160a01b0381358116916020013516610b8b565b610243610bb6565b60048054604080516020601f60026000196101006001881615020190951694909404938401819004810282018101909252828152606093909290918301828280156105e55780601f106105ba576101008083540402835291602001916105e5565b820191906000526020600020905b8154815290600101906020018083116105c857829003601f168201915b5050505050905090565b60006106036105fc610bd9565b8484610bdd565b5060015b92915050565b60035490565b6000610620848484610cc9565b6106968461062c610bd9565b610691856040518060600160405280602881526020016116c7602891396001600160a01b038a1660009081526002602052604081209061066a610bd9565b6001600160a01b03168152602081019190915260400160002054919063ffffffff610e2016565b610bdd565b5060019392505050565b60009081526020819052604090206002015490565b6000828152602081905260409020600201546106d8906106d3610bd9565b6109f2565b6107135760405162461bcd60e51b815260040180806020018281038252602f8152602001806115c5602f913960400191505060405180910390fd5b61071d8282610eb7565b5050565b60065460ff1690565b610732610bd9565b6001600160a01b0316816001600160a01b0316146107815760405162461bcd60e51b815260040180806020018281038252602f81526020018061182f602f913960400191505060405180910390fd5b61071d8282610f26565b6000610603610798610bd9565b8461069185600260006107a9610bd9565b6001600160a01b03908116825260208083019390935260409182016000908120918c16815292529020549063ffffffff610f9516565b604080516a5041555345525f524f4c4560a81b8152905190819003600b01902061080b906106d3610bd9565b6108465760405162461bcd60e51b81526004018080602001828103825260398152602001806116166039913960400191505060405180910390fd5b61084e610fef565b565b604080516a4d494e5445525f524f4c4560a81b8152905190819003600b01902061087c906106d3610bd9565b6108b75760405162461bcd60e51b81526004018080602001828103825260368152602001806116ef6036913960400191505060405180910390fd5b61071d8282611093565b6108d26108cc610bd9565b8261117f565b50565b600654610100900460ff1690565b6001600160a01b031660009081526001602052604090205490565b600061093b826040518060600160405280602481526020016117256024913961092e86610929610bd9565b610b8b565b919063ffffffff610e2016565b905061094f83610949610bd9565b83610bdd565b610959838361117f565b505050565b604080516a5041555345525f524f4c4560a81b8152905190819003600b01902061098a906106d3610bd9565b6109c55760405162461bcd60e51b81526004018080602001828103825260378152602001806117d36037913960400191505060405180910390fd5b61084e611275565b60008281526020819052604081206109eb908363ffffffff6112fd16565b9392505050565b60008281526020819052604081206109eb908363ffffffff61130916565b60058054604080516020601f60026000196101006001881615020190951694909404938401819004810282018101909252828152606093909290918301828280156105e55780601f106105ba576101008083540402835291602001916105e5565b600081565b6000610603610a83610bd9565b846106918560405180606001604052806025815260200161180a6025913960026000610aad610bd9565b6001600160a01b03908116825260208083019390935260409182016000908120918d1681529252902054919063ffffffff610e2016565b6000610603610af1610bd9565b8484610cc9565b60008181526020819052604081206106079061131e565b604080516a4d494e5445525f524f4c4560a81b8152905190819003600b01902081565b600082815260208190526040902060020154610b50906106d3610bd9565b6107815760405162461bcd60e51b81526004018080602001828103825260308152602001806116976030913960400191505060405180910390fd5b6001600160a01b03918216600090815260026020908152604080832093909416825291909152205490565b604080516a5041555345525f524f4c4560a81b8152905190819003600b01902081565b3390565b6001600160a01b038316610c225760405162461bcd60e51b81526004018080602001828103825260248152602001806117af6024913960400191505060405180910390fd5b6001600160a01b038216610c675760405162461bcd60e51b815260040180806020018281038252602281526020018061164f6022913960400191505060405180910390fd5b6001600160a01b03808416600081815260026020908152604080832094871680845294825291829020859055815185815291517f8c5be1e5ebec7d5bd14f71427d1e84f3dd0314c0f7b2291e5b200ac8c7c3b9259281900390910190a3505050565b6001600160a01b038316610d0e5760405162461bcd60e51b815260040180806020018281038252602581526020018061178a6025913960400191505060405180910390fd5b6001600160a01b038216610d535760405162461bcd60e51b81526004018080602001828103825260238152602001806115a26023913960400191505060405180910390fd5b610d5e838383611329565b610da181604051806060016040528060268152602001611671602691396001600160a01b038616600090815260016020526040902054919063ffffffff610e2016565b6001600160a01b038085166000908152600160205260408082209390935590841681522054610dd6908263ffffffff610f9516565b6001600160a01b03808416600081815260016020908152604091829020949094558051858152905191939287169260008051602061174983398151915292918290030190a3505050565b60008184841115610eaf5760405162461bcd60e51b81526004018080602001828103825283818151815260200191508051906020019080838360005b83811015610e74578181015183820152602001610e5c565b50505050905090810190601f168015610ea15780820380516001836020036101000a031916815260200191505b509250505060405180910390fd5b505050900390565b6000828152602081905260409020610ed5908263ffffffff61133416565b1561071d57610ee2610bd9565b6001600160a01b0316816001600160a01b0316837f2f8788117e7eff1d82e926ec794901d17c78024a50270940304540a733656f0d60405160405180910390a45050565b6000828152602081905260409020610f44908263ffffffff61134916565b1561071d57610f51610bd9565b6001600160a01b0316816001600160a01b0316837ff6391f5c32d9c69d2a47ea670b442974b53935d1edc7fd64eb21e047a839171b60405160405180910390a45050565b6000828201838110156109eb576040805162461bcd60e51b815260206004820152601b60248201527f536166654d6174683a206164646974696f6e206f766572666c6f770000000000604482015290519081900360640190fd5b600654610100900460ff16611042576040805162461bcd60e51b815260206004820152601460248201527314185d5cd8589b194e881b9bdd081c185d5cd95960621b604482015290519081900360640190fd5b6006805461ff00191690557f5db9ee0a495bf2e6ff9c91a7834c1ba4fdd244a5e8aa4e537bd38aeae4b073aa611076610bd9565b604080516001600160a01b039092168252519081900360200190a1565b6001600160a01b0382166110ee576040805162461bcd60e51b815260206004820152601f60248201527f45524332303a206d696e7420746f20746865207a65726f206164647265737300604482015290519081900360640190fd5b6110fa60008383611329565b60035461110d908263ffffffff610f9516565b6003556001600160a01b038216600090815260016020526040902054611139908263ffffffff610f9516565b6001600160a01b03831660008181526001602090815260408083209490945583518581529351929391926000805160206117498339815191529281900390910190a35050565b6001600160a01b0382166111c45760405162461bcd60e51b81526004018080602001828103825260218152602001806117696021913960400191505060405180910390fd5b6111d082600083611329565b611213816040518060600160405280602281526020016115f4602291396001600160a01b038516600090815260016020526040902054919063ffffffff610e2016565b6001600160a01b03831660009081526001602052604090205560035461123f908263ffffffff61135e16565b6003556040805182815290516000916001600160a01b038516916000805160206117498339815191529181900360200190a35050565b600654610100900460ff16156112c5576040805162461bcd60e51b815260206004820152601060248201526f14185d5cd8589b194e881c185d5cd95960821b604482015290519081900360640190fd5b6006805461ff0019166101001790557f62e78cea01bee320cd4e420270b5ea74000d11b0c9f74754ebdbfc544b05a258611076610bd9565b60006109eb83836113a0565b60006109eb836001600160a01b038416611404565b60006106078261141c565b610959838383611420565b60006109eb836001600160a01b03841661146f565b60006109eb836001600160a01b0384166114b9565b60006109eb83836040518060400160405280601e81526020017f536166654d6174683a207375627472616374696f6e206f766572666c6f770000815250610e20565b815460009082106113e25760405162461bcd60e51b81526004018080602001828103825260228152602001806115806022913960400191505060405180910390fd5b8260000182815481106113f157fe5b9060005260206000200154905092915050565b60009081526001919091016020526040902054151590565b5490565b61142b838383610959565b6114336108d5565b156109595760405162461bcd60e51b815260040180806020018281038252602a81526020018061185e602a913960400191505060405180910390fd5b600061147b8383611404565b6114b157508154600181810184556000848152602080822090930184905584548482528286019093526040902091909155610607565b506000610607565b6000818152600183016020526040812054801561157557835460001980830191908101906000908790839081106114ec57fe5b906000526020600020015490508087600001848154811061150957fe5b60009182526020808320909101929092558281526001898101909252604090209084019055865487908061153957fe5b60019003818190600052602060002001600090559055866001016000878152602001908152602001600020600090556001945050505050610607565b600091505061060756fe456e756d657261626c655365743a20696e646578206f7574206f6620626f756e647345524332303a207472616e7366657220746f20746865207a65726f2061646472657373416363657373436f6e74726f6c3a2073656e646572206d75737420626520616e2061646d696e20746f206772616e7445524332303a206275726e20616d6f756e7420657863656564732062616c616e636545524332305072657365744d696e7465725061757365723a206d75737420686176652070617573657220726f6c6520746f20756e706175736545524332303a20617070726f766520746f20746865207a65726f206164647265737345524332303a207472616e7366657220616d6f756e7420657863656564732062616c616e6365416363657373436f6e74726f6c3a2073656e646572206d75737420626520616e2061646d696e20746f207265766f6b6545524332303a207472616e7366657220616d6f756e74206578636565647320616c6c6f77616e636545524332305072657365744d696e7465725061757365723a206d7573742068617665206d696e74657220726f6c6520746f206d696e7445524332303a206275726e20616d6f756e74206578636565647320616c6c6f77616e6365ddf252ad1be2c89b69c2b068fc378daa952ba7f163c4a11628f55a4df523b3ef45524332303a206275726e2066726f6d20746865207a65726f206164647265737345524332303a207472616e736665722066726f6d20746865207a65726f206164647265737345524332303a20617070726f76652066726f6d20746865207a65726f206164647265737345524332305072657365744d696e7465725061757365723a206d75737420686176652070617573657220726f6c6520746f20706175736545524332303a2064656372656173656420616c6c6f77616e63652062656c6f77207a65726f416363657373436f6e74726f6c3a2063616e206f6e6c792072656e6f756e636520726f6c657320666f722073656c6645524332305061757361626c653a20746f6b656e207472616e73666572207768696c6520706175736564a26469706673582212204ce765929d431a576985b95a3e707e84b252e3ae4e8bb21d648a5c7e247c6bb364736f6c63430006060033a2646970667358221220b96f02a02e447239a6314dcd6d8cc3622fe38d33d199331042faab5a377e2a9f64736f6c63430006060033",
  "immutableReferences": {},
  "source": "// SPDX-License-Identifier: MIT\npragma solidity 0.6.6;\npragma experimental ABIEncoderV2;\n\nimport \"@openzeppelin/contracts/access/Ownable.sol\";\nimport \"@openzeppelin/contracts/math/SafeMath.sol\";\nimport \"@openzeppelin/contracts/presets/ERC20PresetMinterPauser.sol\";\nimport \"@openzeppelin/contracts/token/ERC20/SafeERC20.sol\";\nimport \"@openzeppelin/contracts/token/ERC20/ERC20.sol\";\nimport \"./SLA.sol\";\nimport \"./messenger/IMessenger.sol\";\nimport \"./SLARegistry.sol\";\nimport \"./StringUtils.sol\";\n\n/**\n * @title StakeRegistry\n * @dev StakeRegistry is a contract to register the staking activity of the platform, along\n with controlling certain admin privileged parameters\n */\ncontract StakeRegistry is Ownable, StringUtils {\n    using SafeERC20 for ERC20;\n    using SafeMath for uint256;\n\n    /// @dev struct to return on getActivePool function.\n    struct ActivePool {\n        address SLAAddress;\n        uint256 stake;\n        string assetName;\n        address assetAddress;\n    }\n\n    struct LockedValue {\n        uint256 lockedValue;\n        uint256 slaPeriodIdsLength;\n        uint256 dslaDepositByPeriod;\n        uint256 dslaPlatformReward;\n        uint256 dslaMessengerReward;\n        uint256 dslaUserReward;\n        uint256 dslaBurnedByVerification;\n        mapping(uint256 => bool) verifiedPeriods;\n    }\n\n    address public DSLATokenAddress;\n    SLARegistry public slaRegistry;\n\n    //______ onlyOwner modifiable parameters ______\n\n    /// @dev corresponds to the burn rate of DSLA tokens, but divided by 1000 i.e burn percentage = DSLAburnRate/1000 %\n    uint256 private _DSLAburnRate = 3;\n    /// @dev (ownerAddress => slaAddress => LockedValue) stores the locked value by the staker\n    mapping(address => LockedValue) public slaLockedValue;\n    /// @dev DSLA deposit by period to create SLA\n    uint256 private _dslaDepositByPeriod = 20000 ether;\n    /// @dev DSLA rewarded to Stacktical team\n    uint256 private _dslaPlatformReward = 5000 ether;\n    /// @dev DSLA rewarded to the Messenger creator\n    uint256 private _dslaMessengerReward = 5000 ether;\n    /// @dev DSLA rewarded to user calling the period verification\n    uint256 private _dslaUserReward = 9940 ether;\n    /// @dev DSLA burned after every period verification\n    uint256 private _dslaBurnedByVerification = 60 ether;\n    /// @dev DSLA burned after every period verification\n    uint256 private _maxTokenLength = 1;\n\n    /// @dev array with the allowed tokens addresses of the StakeRegistry\n    address[] public allowedTokens;\n\n    /// @dev (userAddress => SLA[]) with user staked SLAs to get tokenPool\n    mapping(address => SLA[]) public userStakedSlas;\n\n    /**\n     * @dev event to log a verifiation reward distributed\n     * @param sla 1. The address of the created service level agreement contract\n     * @param requester 2. -\n     * @param userReward 3. -\n     * @param platformReward 4. -\n     * @param messengerReward 5. -\n     * @param burnedDSLA 6. -\n     */\n    event VerificationRewardDistributed(\n        address indexed sla,\n        address indexed requester,\n        uint256 userReward,\n        uint256 platformReward,\n        uint256 messengerReward,\n        uint256 burnedDSLA\n    );\n\n    /**\n     * @dev event to log modifications on the staking parameters\n     *@param DSLAburnRate 1. (DSLAburnRate/1000)% of DSLA to be burned after a reward/compensation is paid\n     *@param dslaDepositByPeriod 2. DSLA deposit by period to create SLA\n     *@param dslaPlatformReward 3. DSLA rewarded to Stacktical team\n     *@param dslaUserReward 4. DSLA rewarded to user calling the period verification\n     *@param dslaBurnedByVerification 5. DSLA burned after every period verification\n     */\n    event StakingParametersModified(\n        uint256 DSLAburnRate,\n        uint256 dslaDepositByPeriod,\n        uint256 dslaPlatformReward,\n        uint256 dslaMessengerReward,\n        uint256 dslaUserReward,\n        uint256 dslaBurnedByVerification,\n        uint256 maxTokenLength\n    );\n\n    /**\n     * @param _dslaTokenAddress 1. DSLA Token\n     */\n    constructor(address _dslaTokenAddress) public {\n        require(\n            _dslaDepositByPeriod ==\n                _dslaPlatformReward\n                    .add(_dslaMessengerReward)\n                    .add(_dslaUserReward)\n                    .add(_dslaBurnedByVerification),\n            \"Staking parameters should match on summation\"\n        );\n        DSLATokenAddress = _dslaTokenAddress;\n        allowedTokens.push(_dslaTokenAddress);\n    }\n\n    /// @dev Throws if called by any address other than the SLARegistry contract or Chainlink Oracle.\n    modifier onlySLARegistry() {\n        require(\n            msg.sender == address(slaRegistry),\n            \"Can only be called by SLARegistry\"\n        );\n        _;\n    }\n\n    /**\n     * @dev sets the SLARegistry contract address and can only be called\n     * once\n     */\n    function setSLARegistry() public {\n        // Only able to trigger this function once\n        require(\n            address(slaRegistry) == address(0),\n            \"SLARegistry address has already been set\"\n        );\n\n        slaRegistry = SLARegistry(msg.sender);\n    }\n\n    /**\n     *@dev add a token to ve allowed for staking\n     *@param _tokenAddress 1. address of the new allowed token\n     */\n    function addAllowedTokens(address _tokenAddress) public onlyOwner {\n        require(isAllowedToken(_tokenAddress) == false, \"token already added\");\n        allowedTokens.push(_tokenAddress);\n    }\n\n    function isAllowedToken(address _tokenAddress) public view returns (bool) {\n        for (uint256 index = 0; index < allowedTokens.length; index++) {\n            if (allowedTokens[index] == _tokenAddress) {\n                return true;\n            }\n        }\n        return false;\n    }\n\n    /**\n     *@dev public view function that returns true if the _owner has staked on _sla\n     *@param _user 1. address to check\n     *@param _sla 2. sla to check\n     *@return bool, true if _sla was staked by _user\n     */\n\n    function slaWasStakedByUser(address _user, address _sla)\n        public\n        view\n        returns (bool)\n    {\n        for (uint256 index = 0; index < userStakedSlas[_user].length; index++) {\n            if (address(userStakedSlas[_user][index]) == _sla) {\n                return true;\n            }\n        }\n        return false;\n    }\n\n    /**\n     *@dev register the sending SLA contract as staked by _owner\n     *@param _owner 1. SLA contract to stake\n     */\n    function registerStakedSla(address _owner) public returns (bool) {\n        require(\n            slaRegistry.isRegisteredSLA(msg.sender) == true,\n            \"Only for registered SLAs\"\n        );\n        if (slaWasStakedByUser(_owner, msg.sender) == false) {\n            userStakedSlas[_owner].push(SLA(msg.sender));\n        }\n        return true;\n    }\n\n    /**\n     *@dev to create dTokens for staking\n     *@param _name 1. token name\n     *@param _symbol 2. token symbol\n     */\n    function createDToken(string memory _name, string memory _symbol)\n        public\n        returns (address)\n    {\n        require(\n            slaRegistry.isRegisteredSLA(msg.sender) == true,\n            \"Only for registered SLAs\"\n        );\n        ERC20PresetMinterPauser dToken =\n            new ERC20PresetMinterPauser(_name, _symbol);\n        dToken.grantRole(dToken.MINTER_ROLE(), msg.sender);\n        return address(dToken);\n    }\n\n    function lockDSLAValue(\n        address _slaOwner,\n        address _sla,\n        uint256 _periodIdsLength\n    ) public onlySLARegistry {\n        uint256 lockedValue = _dslaDepositByPeriod.mul(_periodIdsLength);\n        ERC20(DSLATokenAddress).safeTransferFrom(\n            _slaOwner,\n            address(this),\n            lockedValue\n        );\n        slaLockedValue[_sla] = LockedValue({\n            lockedValue: lockedValue,\n            slaPeriodIdsLength: _periodIdsLength,\n            dslaDepositByPeriod: _dslaDepositByPeriod,\n            dslaPlatformReward: _dslaPlatformReward,\n            dslaMessengerReward: _dslaMessengerReward,\n            dslaUserReward: _dslaUserReward,\n            dslaBurnedByVerification: _dslaBurnedByVerification\n        });\n    }\n\n    function distributeVerificationRewards(\n        address _sla,\n        address _verificationRewardReceiver,\n        uint256 _periodId\n    ) public onlySLARegistry {\n        LockedValue storage _lockedValue = slaLockedValue[_sla];\n        require(\n            _lockedValue.verifiedPeriods[_periodId] == false,\n            \"Period rewards already distributed\"\n        );\n        _lockedValue.verifiedPeriods[_periodId] = true;\n        _lockedValue.lockedValue = _lockedValue.lockedValue.sub(\n            _lockedValue.dslaDepositByPeriod\n        );\n        ERC20(DSLATokenAddress).safeTransfer(\n            _verificationRewardReceiver,\n            _lockedValue.dslaUserReward\n        );\n        ERC20(DSLATokenAddress).safeTransfer(\n            owner(),\n            _lockedValue.dslaPlatformReward\n        );\n        ERC20(DSLATokenAddress).safeTransfer(\n            IMessenger(SLA(_sla).messengerAddress()).owner(),\n            _lockedValue.dslaMessengerReward\n        );\n        _burnDSLATokens(_lockedValue.dslaBurnedByVerification);\n        emit VerificationRewardDistributed(\n            _sla,\n            _verificationRewardReceiver,\n            _lockedValue.dslaUserReward,\n            _lockedValue.dslaPlatformReward,\n            _lockedValue.dslaMessengerReward,\n            _lockedValue.dslaBurnedByVerification\n        );\n    }\n\n    function returnLockedValue(address _sla) public onlySLARegistry {\n        LockedValue storage _lockedValue = slaLockedValue[_sla];\n        uint256 remainingBalance = _lockedValue.lockedValue;\n        require(remainingBalance > 0, \"locked value is empty\");\n        _lockedValue.lockedValue = 0;\n        ERC20(DSLATokenAddress).safeTransfer(\n            SLA(_sla).owner(),\n            remainingBalance\n        );\n    }\n\n    function _burnDSLATokens(uint256 _amount) internal {\n        bytes4 BURN_SELECTOR = bytes4(keccak256(bytes(\"burn(uint256)\")));\n        (bool _success, ) =\n            DSLATokenAddress.call(\n                abi.encodeWithSelector(BURN_SELECTOR, _amount)\n            );\n        require(_success, \"DSLA burn process was not successful\");\n    }\n\n    /**\n     * @dev returns the active pools owned by a user.\n     * @param _slaOwner 1. owner of the active pool\n     * @return ActivePool[], array of structs: {SLAAddress,stake,assetName}\n     */\n    function getActivePool(address _slaOwner)\n        public\n        view\n        returns (ActivePool[] memory)\n    {\n        bytes4 NAME_SELECTOR = bytes4(keccak256(bytes(\"name()\")));\n        uint256 stakeCounter = 0;\n        // Count the stakes of the user, checking every SLA staked\n        for (\n            uint256 index = 0;\n            index < userStakedSlas[_slaOwner].length;\n            index++\n        ) {\n            SLA currentSLA = SLA(userStakedSlas[_slaOwner][index]);\n            stakeCounter = stakeCounter.add(\n                currentSLA.getAllowedTokensLength()\n            );\n        }\n\n        ActivePool[] memory activePools = new ActivePool[](stakeCounter);\n        // to insert on activePools array\n        uint256 stakePosition = 0;\n        for (\n            uint256 index = 0;\n            index < userStakedSlas[_slaOwner].length;\n            index++\n        ) {\n            SLA currentSLA = userStakedSlas[_slaOwner][index];\n            for (\n                uint256 tokenIndex = 0;\n                tokenIndex < currentSLA.getAllowedTokensLength();\n                tokenIndex++\n            ) {\n                (address tokenAddress, uint256 stake) =\n                    currentSLA.getTokenStake(_slaOwner, tokenIndex);\n                (, bytes memory tokenNameBytes) =\n                    tokenAddress.staticcall(\n                        abi.encodeWithSelector(NAME_SELECTOR)\n                    );\n                ActivePool memory currentActivePool =\n                    ActivePool({\n                        SLAAddress: address(currentSLA),\n                        stake: stake,\n                        assetName: string(tokenNameBytes),\n                        assetAddress: tokenAddress\n                    });\n                activePools[stakePosition] = currentActivePool;\n                stakePosition = stakePosition.add(1);\n            }\n        }\n        return activePools;\n    }\n\n    //_______ OnlyOwner functions _______\n    function setStakingParameters(\n        uint256 DSLAburnRate,\n        uint256 dslaDepositByPeriod,\n        uint256 dslaPlatformReward,\n        uint256 dslaMessengerReward,\n        uint256 dslaUserReward,\n        uint256 dslaBurnedByVerification,\n        uint256 maxTokenLength\n    ) public onlyOwner {\n        _DSLAburnRate = DSLAburnRate;\n        _dslaDepositByPeriod = dslaDepositByPeriod;\n        _dslaPlatformReward = dslaPlatformReward;\n        _dslaMessengerReward = dslaMessengerReward;\n        _dslaUserReward = dslaUserReward;\n        _dslaBurnedByVerification = dslaBurnedByVerification;\n        _maxTokenLength = maxTokenLength;\n        require(\n            _dslaDepositByPeriod ==\n                _dslaPlatformReward\n                    .add(_dslaMessengerReward)\n                    .add(_dslaUserReward)\n                    .add(_dslaBurnedByVerification),\n            \"Staking parameters should match on summation\"\n        );\n        emit StakingParametersModified(\n            DSLAburnRate,\n            dslaDepositByPeriod,\n            dslaPlatformReward,\n            dslaMessengerReward,\n            dslaUserReward,\n            dslaBurnedByVerification,\n            maxTokenLength\n        );\n    }\n\n    function getStakingParameters()\n        public\n        view\n        returns (\n            uint256 DSLAburnRate,\n            uint256 dslaDepositByPeriod,\n            uint256 dslaPlatformReward,\n            uint256 dslaMessengerReward,\n            uint256 dslaUserReward,\n            uint256 dslaBurnedByVerification,\n            uint256 maxTokenLength\n        )\n    {\n        DSLAburnRate = _DSLAburnRate;\n        dslaDepositByPeriod = _dslaDepositByPeriod;\n        dslaPlatformReward = _dslaPlatformReward;\n        dslaMessengerReward = _dslaMessengerReward;\n        dslaUserReward = _dslaUserReward;\n        dslaBurnedByVerification = _dslaBurnedByVerification;\n        maxTokenLength = _maxTokenLength;\n    }\n\n    function periodIsVerified(address _sla, uint256 _periodId)\n        public\n        view\n        returns (bool)\n    {\n        return slaLockedValue[_sla].verifiedPeriods[_periodId];\n    }\n}\n",
  "sourcePath": "/Users/matiasbn/Desktop/stacktical/stacktical-dsla-contracts/contracts/StakeRegistry.sol",
  "compiler": {
    "name": "solc",
    "version": "0.6.6+commit.6c089d02.Emscripten.clang"
  },
  "schemaVersion": "3.3.3",
  "updatedAt": "2021-03-19T21:27:18.457Z",
  "networkType": "ethereum",
  "devdoc": {
    "details": "StakeRegistry is a contract to register the staking activity of the platform, along with controlling certain admin privileged parameters",
    "methods": {
      "constructor": {
        "params": {
          "_dslaTokenAddress": "1. DSLA Token"
        }
      },
      "getActivePool(address)": {
        "details": "returns the active pools owned by a user.",
        "params": {
          "_slaOwner": "1. owner of the active pool"
        },
        "returns": {
          "_0": "ActivePool[], array of structs: {SLAAddress,stake,assetName}"
        }
      },
      "owner()": {
        "details": "Returns the address of the current owner."
      },
      "renounceOwnership()": {
        "details": "Leaves the contract without owner. It will not be possible to call `onlyOwner` functions anymore. Can only be called by the current owner.     * NOTE: Renouncing ownership will leave the contract without an owner, thereby removing any functionality that is only available to the owner."
      },
      "setSLARegistry()": {
        "details": "sets the SLARegistry contract address and can only be called once"
      },
      "transferOwnership(address)": {
        "details": "Transfers ownership of the contract to a new account (`newOwner`). Can only be called by the current owner."
      }
    },
    "title": "StakeRegistry"
  },
  "userdoc": {
    "methods": {
      "addAllowedTokens(address)": {
        "notice": "dev add a token to ve allowed for staking param _tokenAddress 1. address of the new allowed token"
      },
      "createDToken(string,string)": {
        "notice": "dev to create dTokens for staking param _name 1. token name param _symbol 2. token symbol"
      },
      "registerStakedSla(address)": {
        "notice": "dev register the sending SLA contract as staked by _owner param _owner 1. SLA contract to stake"
      },
      "slaWasStakedByUser(address,address)": {
        "notice": "dev public view function that returns true if the _owner has staked on _sla param _user 1. address to check param _sla 2. sla to check return bool, true if _sla was staked by _user"
      }
    }
  }
}