{
  "contractName": "Staking",
  "abi": [
    {
      "inputs": [
        {
          "internalType": "contract bDSLAToken",
          "name": "_tokenAddress",
          "type": "address"
        },
        {
          "internalType": "uint256[]",
          "name": "_sla_period_starts",
          "type": "uint256[]"
        },
        {
          "internalType": "uint256[]",
          "name": "_sla_period_ends",
          "type": "uint256[]"
        },
        {
          "internalType": "address",
          "name": "_owner",
          "type": "address"
        },
        {
          "internalType": "address",
          "name": "_daiAddress",
          "type": "address"
        }
      ],
      "stateMutability": "nonpayable",
      "type": "constructor"
    },
    {
      "anonymous": false,
      "inputs": [
        {
          "indexed": true,
          "internalType": "uint256",
          "name": "period_index",
          "type": "uint256"
        }
      ],
      "name": "NewPeriodAdded",
      "type": "event"
    },
    {
      "anonymous": false,
      "inputs": [
        {
          "indexed": true,
          "internalType": "address",
          "name": "previousOwner",
          "type": "address"
        },
        {
          "indexed": true,
          "internalType": "address",
          "name": "newOwner",
          "type": "address"
        }
      ],
      "name": "OwnershipTransferred",
      "type": "event"
    },
    {
      "inputs": [],
      "name": "DAI",
      "outputs": [
        {
          "internalType": "contract IERC20",
          "name": "",
          "type": "address"
        }
      ],
      "stateMutability": "view",
      "type": "function"
    },
    {
      "inputs": [
        {
          "internalType": "uint256",
          "name": "",
          "type": "uint256"
        }
      ],
      "name": "allowedTokens",
      "outputs": [
        {
          "internalType": "address",
          "name": "",
          "type": "address"
        }
      ],
      "stateMutability": "view",
      "type": "function"
    },
    {
      "inputs": [
        {
          "internalType": "address",
          "name": "",
          "type": "address"
        }
      ],
      "name": "allowedTokensMapping",
      "outputs": [
        {
          "internalType": "bool",
          "name": "",
          "type": "bool"
        }
      ],
      "stateMutability": "view",
      "type": "function"
    },
    {
      "inputs": [],
      "name": "bDSLA",
      "outputs": [
        {
          "internalType": "contract bDSLAToken",
          "name": "",
          "type": "address"
        }
      ],
      "stateMutability": "view",
      "type": "function"
    },
    {
      "inputs": [],
      "name": "owner",
      "outputs": [
        {
          "internalType": "address",
          "name": "",
          "type": "address"
        }
      ],
      "stateMutability": "view",
      "type": "function"
    },
    {
      "inputs": [
        {
          "internalType": "uint256",
          "name": "",
          "type": "uint256"
        }
      ],
      "name": "periods",
      "outputs": [
        {
          "internalType": "uint256",
          "name": "sla_period_start",
          "type": "uint256"
        },
        {
          "internalType": "uint256",
          "name": "sla_period_end",
          "type": "uint256"
        },
        {
          "internalType": "uint256",
          "name": "claimed_reward",
          "type": "uint256"
        },
        {
          "internalType": "bool",
          "name": "claimed",
          "type": "bool"
        },
        {
          "internalType": "enum Staking.Status",
          "name": "status",
          "type": "uint8"
        }
      ],
      "stateMutability": "view",
      "type": "function"
    },
    {
      "inputs": [],
      "name": "renounceOwnership",
      "outputs": [],
      "stateMutability": "nonpayable",
      "type": "function"
    },
    {
      "inputs": [
        {
          "internalType": "uint256",
          "name": "",
          "type": "uint256"
        }
      ],
      "name": "stakers",
      "outputs": [
        {
          "internalType": "address",
          "name": "",
          "type": "address"
        }
      ],
      "stateMutability": "view",
      "type": "function"
    },
    {
      "inputs": [],
      "name": "totalStaked",
      "outputs": [
        {
          "internalType": "uint256",
          "name": "",
          "type": "uint256"
        }
      ],
      "stateMutability": "view",
      "type": "function"
    },
    {
      "inputs": [
        {
          "internalType": "address",
          "name": "newOwner",
          "type": "address"
        }
      ],
      "name": "transferOwnership",
      "outputs": [],
      "stateMutability": "nonpayable",
      "type": "function"
    },
    {
      "inputs": [
        {
          "internalType": "address",
          "name": "",
          "type": "address"
        }
      ],
      "name": "uniqueTokensStaked",
      "outputs": [
        {
          "internalType": "uint256",
          "name": "",
          "type": "uint256"
        }
      ],
      "stateMutability": "view",
      "type": "function"
    },
    {
      "inputs": [
        {
          "internalType": "address",
          "name": "",
          "type": "address"
        },
        {
          "internalType": "address",
          "name": "",
          "type": "address"
        }
      ],
      "name": "userStakedTokens",
      "outputs": [
        {
          "internalType": "bool",
          "name": "",
          "type": "bool"
        }
      ],
      "stateMutability": "view",
      "type": "function"
    },
    {
      "inputs": [
        {
          "internalType": "address",
          "name": "",
          "type": "address"
        },
        {
          "internalType": "address",
          "name": "",
          "type": "address"
        }
      ],
      "name": "userStakedTokensIndex",
      "outputs": [
        {
          "internalType": "uint256",
          "name": "",
          "type": "uint256"
        }
      ],
      "stateMutability": "view",
      "type": "function"
    },
    {
      "inputs": [
        {
          "internalType": "address",
          "name": "",
          "type": "address"
        },
        {
          "internalType": "uint256",
          "name": "",
          "type": "uint256"
        }
      ],
      "name": "userStakes",
      "outputs": [
        {
          "internalType": "address",
          "name": "tokenAddress",
          "type": "address"
        },
        {
          "internalType": "uint256",
          "name": "stake",
          "type": "uint256"
        }
      ],
      "stateMutability": "view",
      "type": "function"
    },
    {
      "inputs": [],
      "name": "validator",
      "outputs": [
        {
          "internalType": "address",
          "name": "",
          "type": "address"
        }
      ],
      "stateMutability": "view",
      "type": "function"
    },
    {
      "inputs": [
        {
          "internalType": "uint256",
          "name": "_sla_period_start",
          "type": "uint256"
        },
        {
          "internalType": "uint256",
          "name": "_sla_period_end",
          "type": "uint256"
        }
      ],
      "name": "addNewPeriod",
      "outputs": [],
      "stateMutability": "nonpayable",
      "type": "function"
    },
    {
      "inputs": [
        {
          "internalType": "address",
          "name": "_token",
          "type": "address"
        }
      ],
      "name": "addAllowedTokens",
      "outputs": [],
      "stateMutability": "nonpayable",
      "type": "function"
    },
    {
      "inputs": [
        {
          "internalType": "uint256",
          "name": "_amount",
          "type": "uint256"
        },
        {
          "internalType": "address",
          "name": "_token",
          "type": "address"
        },
        {
          "internalType": "uint256",
          "name": "_period",
          "type": "uint256"
        }
      ],
      "name": "stakeTokens",
      "outputs": [],
      "stateMutability": "nonpayable",
      "type": "function"
    },
    {
      "inputs": [
        {
          "internalType": "address",
          "name": "_token",
          "type": "address"
        },
        {
          "internalType": "uint256",
          "name": "_period",
          "type": "uint256"
        }
      ],
      "name": "withdraw",
      "outputs": [],
      "stateMutability": "nonpayable",
      "type": "function"
    },
    {
      "inputs": [
        {
          "internalType": "address",
          "name": "_token",
          "type": "address"
        },
        {
          "internalType": "uint256",
          "name": "_amount",
          "type": "uint256"
        },
        {
          "internalType": "uint256",
          "name": "_period",
          "type": "uint256"
        }
      ],
      "name": "withdrawAndStake",
      "outputs": [],
      "stateMutability": "nonpayable",
      "type": "function"
    },
    {
      "inputs": [
        {
          "internalType": "uint256",
          "name": "_period",
          "type": "uint256"
        }
      ],
      "name": "claimReward",
      "outputs": [],
      "stateMutability": "nonpayable",
      "type": "function"
    },
    {
      "inputs": [
        {
          "internalType": "uint256",
          "name": "_period",
          "type": "uint256"
        }
      ],
      "name": "claimCompensation",
      "outputs": [],
      "stateMutability": "nonpayable",
      "type": "function"
    },
    {
      "inputs": [
        {
          "internalType": "address",
          "name": "_user",
          "type": "address"
        },
        {
          "internalType": "uint256",
          "name": "_period",
          "type": "uint256"
        }
      ],
      "name": "getUserTotalValue",
      "outputs": [
        {
          "internalType": "uint256",
          "name": "",
          "type": "uint256"
        }
      ],
      "stateMutability": "view",
      "type": "function"
    },
    {
      "inputs": [],
      "name": "stakersCount",
      "outputs": [
        {
          "internalType": "uint256",
          "name": "",
          "type": "uint256"
        }
      ],
      "stateMutability": "view",
      "type": "function"
    },
    {
      "inputs": [
        {
          "internalType": "uint256",
          "name": "_periodId",
          "type": "uint256"
        }
      ],
      "name": "getPeriodData",
      "outputs": [
        {
          "internalType": "uint256",
          "name": "periodStart",
          "type": "uint256"
        },
        {
          "internalType": "uint256",
          "name": "periodEnd",
          "type": "uint256"
        }
      ],
      "stateMutability": "view",
      "type": "function"
    },
    {
      "inputs": [
        {
          "internalType": "address",
          "name": "_owner",
          "type": "address"
        }
      ],
      "name": "getTokenStakeLength",
      "outputs": [
        {
          "internalType": "uint256",
          "name": "",
          "type": "uint256"
        }
      ],
      "stateMutability": "view",
      "type": "function"
    },
    {
      "inputs": [
        {
          "internalType": "address",
          "name": "_owner",
          "type": "address"
        },
        {
          "internalType": "uint256",
          "name": "_index",
          "type": "uint256"
        }
      ],
      "name": "getTokenStake",
      "outputs": [
        {
          "internalType": "address",
          "name": "tokenAddress",
          "type": "address"
        },
        {
          "internalType": "uint256",
          "name": "stake",
          "type": "uint256"
        }
      ],
      "stateMutability": "view",
      "type": "function"
    }
  ],
  "bytecode": "0x60806040523480156200001157600080fd5b506040516200275b3803806200275b833981810160405260a08110156200003757600080fd5b8151602083018051604051929492938301929190846401000000008211156200005f57600080fd5b9083019060208201858111156200007557600080fd5b82518660208202830111640100000000821117156200009357600080fd5b82525081516020918201928201910280838360005b83811015620000c2578181015183820152602001620000a8565b5050505090500160405260200180516040519392919084640100000000821115620000ec57600080fd5b9083019060208201858111156200010257600080fd5b82518660208202830111640100000000821117156200012057600080fd5b82525081516020918201928201910280838360005b838110156200014f57818101518382015260200162000135565b505050509190910160409081526020830151920151919350909150600090506200017862000322565b600080546001600160a01b0319166001600160a01b0383169081178255604051929350917f8be0079c531659141344cd1fd0a4f28419497f9722a3daafe3b4186f6b6457e0908290a3508251845114620002045760405162461bcd60e51b8152600401808060200182810382526029815260200180620027326029913960400191505060405180910390fd5b600580546001600160a01b038085166001600160a01b03199283161790925560018054888416908316178082556007805480840182557fa66cc928b5edb82af9bd49922954155ab7b0942694bea4ce44661d9a8736c688908101805486169387169390931790925582548516600090815260086020526040808220805460ff199081168717909155600280548a8a1690891617808255855480890190965594909501805490971693881693909317909555915490941681529182208054909316179091555b845181101562000316576200030d858281518110620002e457fe5b6020026020010151858381518110620002f957fe5b60200260200101516200032660201b60201c565b600101620002c9565b5050505050506200059e565b3390565b6200033062000562565b82815260208101828152600060808301818152600380546001810182559252835160069092027fc2575a0e9e593c00f959f8c92f12db2869c3395a3b0502d05e2516446f71f85b810192835592517fc2575a0e9e593c00f959f8c92f12db2869c3395a3b0502d05e2516446f71f85c84015560408401517fc2575a0e9e593c00f959f8c92f12db2869c3395a3b0502d05e2516446f71f85d84015560608401517fc2575a0e9e593c00f959f8c92f12db2869c3395a3b0502d05e2516446f71f85e909301805493151560ff199094169390931780845590518493909161ff0019166101008360028111156200042157fe5b021790555050506200044860016003805490506200047660201b62001a251790919060201c565b6040517ff791e873e3b67fe74b29aeede7bcbbdaa59c4b64e542571183cd837aa56f6ac990600090a2505050565b6000620004c083836040518060400160405280601e81526020017f536166654d6174683a207375627472616374696f6e206f766572666c6f770000815250620004c760201b60201c565b9392505050565b600081848411156200055a5760405162461bcd60e51b81526004018080602001828103825283818151815260200191508051906020019080838360005b838110156200051e57818101518382015260200162000504565b50505050905090810190601f1680156200054c5780820380516001836020036101000a031916815260200191505b509250505060405180910390fd5b505050900390565b6040518060a00160405280600081526020016000815260200160008152602001600015158152602001600060028111156200059957fe5b905290565b61218480620005ae6000396000f3fe608060405234801561001057600080fd5b50600436106101795760003560e01c80638da5cb5b116100d9578063ea4a110411610087578063ea4a110414610421578063ec04de481461047d578063f10bd772146104a3578063f2fde38b146104cf578063f3fef3a3146104f5578063fc875ece14610521578063fd5e6dd11461055757610179565b80638da5cb5b14610368578063a2e80c5e14610370578063ae169a5014610378578063b5d5b5fa14610395578063b83e0234146103c1578063cec534d6146103e7578063e0bab4c41461041957610179565b806353e85fd51161013657806353e85fd51461029557806357ac94f0146102b25780635e5f2e26146103015780635f4efaba1461031e578063715018a61461032657806375fdf2a91461032e578063817b1cd21461036057610179565b80630e1fcf341461017e578063105237cf146101a3578063171e44ea146101dd5780631934d0e8146102035780632eac9787146102315780633a5381b514610271575b600080fd5b6101a16004803603604081101561019457600080fd5b5080359060200135610574565b005b6101c9600480360360208110156101b957600080fd5b50356001600160a01b03166105da565b604080519115158252519081900360200190f35b6101a1600480360360208110156101f357600080fd5b50356001600160a01b03166105ef565b6101c96004803603604081101561021957600080fd5b506001600160a01b0381358116916020013516610712565b61025f6004803603604081101561024757600080fd5b506001600160a01b0381358116916020013516610732565b60408051918252519081900360200190f35b61027961074f565b604080516001600160a01b039092168252519081900360200190f35b6101a1600480360360208110156102ab57600080fd5b503561075e565b6102de600480360360408110156102c857600080fd5b506001600160a01b038135169060200135610a44565b604080516001600160a01b03909316835260208301919091528051918290030190f35b6102796004803603602081101561031757600080fd5b5035610ac4565b610279610aeb565b6101a1610afa565b6101a16004803603606081101561034457600080fd5b506001600160a01b038135169060208101359060400135610b9c565b61025f610f8a565b610279610f90565b61025f610f9f565b6101a16004803603602081101561038e57600080fd5b5035610fa5565b6102de600480360360408110156103ab57600080fd5b506001600160a01b03813516906020013561121c565b61025f600480360360208110156103d757600080fd5b50356001600160a01b031661125f565b6101a1600480360360608110156103fd57600080fd5b508035906001600160a01b036020820135169060400135611271565b6102796114b8565b61043e6004803603602081101561043757600080fd5b50356114c7565b60405180868152602001858152602001848152602001831515815260200182600281111561046857fe5b81526020019550505050505060405180910390f35b61025f6004803603602081101561049357600080fd5b50356001600160a01b031661150a565b61025f600480360360408110156104b957600080fd5b506001600160a01b038135169060200135611529565b6101a1600480360360208110156104e557600080fd5b50356001600160a01b03166115d7565b6101a16004803603604081101561050b57600080fd5b506001600160a01b0381351690602001356116cf565b61053e6004803603602081101561053757600080fd5b50356119ce565b6040805192835260208301919091528051918290030190f35b6102796004803603602081101561056d57600080fd5b5035611a18565b61057c611a67565b6000546001600160a01b039081169116146105cc576040805162461bcd60e51b815260206004820181905260248201526000805160206120f3833981519152604482015290519081900360640190fd5b6105d68282611a6b565b5050565b60086020526000908152604090205460ff1681565b6105f7611a67565b6000546001600160a01b03908116911614610647576040805162461bcd60e51b815260206004820181905260248201526000805160206120f3833981519152604482015290519081900360640190fd5b6001600160a01b03811660009081526008602052604090205460ff16156106ab576040805162461bcd60e51b81526020600482015260136024820152721d1bdad95b88185b1c9958591e481859191959606a1b604482015290519081900360640190fd5b6007805460018181019092557fa66cc928b5edb82af9bd49922954155ab7b0942694bea4ce44661d9a8736c6880180546001600160a01b039093166001600160a01b031990931683179055600091825260086020526040909120805460ff19169091179055565b600c60209081526000928352604080842090915290825290205460ff1681565b600b60209081526000928352604080842090915290825290205481565b6005546001600160a01b031681565b806003818154811061076c57fe5b90600052602060002090600602016000015442101580156107ab57506003818154811061079557fe5b9060005260206000209060060201600101544211155b6107b457600080fd5b6005546001600160a01b031633141561080c576040805162461bcd60e51b8152602060048201526015602482015274596f752061726520612076616c696461746f72202160581b604482015290519081900360640190fd5b60026003838154811061081b57fe5b906000526020600020906006020160030160019054906101000a900460ff16600281111561084557fe5b14610889576040805162461bcd60e51b815260206004820152600f60248201526e534c4120726573706563746564202160881b604482015290519081900360640190fd5b6003828154811061089657fe5b6000918252602080832033845260056006909302019190910190526040902054156108f25760405162461bcd60e51b815260040180806020018281038252603c815260200180612113603c913960400191505060405180910390fd5b60006108fe3384611529565b90506000610918600a610912846003611ba6565b90611bff565b6004549091506109289083611a25565b600481905550816003858154811061093c57fe5b6000918252602080832033808552600693909302016005018152604080842094909455600154845163a9059cbb60e01b815260048101939093526024830187905293516001600160a01b039094169363a9059cbb936044808501948390030190829087803b1580156109ad57600080fd5b505af11580156109c1573d6000803e3d6000fd5b505050506040513d60208110156109d757600080fd5b505060015460408051630852cd8d60e31b81526004810184905290516001600160a01b03909216916342966c689160248082019260009290919082900301818387803b158015610a2657600080fd5b505af1158015610a3a573d6000803e3d6000fd5b5050505050505050565b6001600160a01b0382166000908152600a60205260408120805482919084908110610a6b57fe5b600091825260208083206002909202909101546001600160a01b038781168452600a9092526040909220805491909216919085908110610aa757fe5b906000526020600020906002020160010154915091509250929050565b60078181548110610ad157fe5b6000918252602090912001546001600160a01b0316905081565b6001546001600160a01b031681565b610b02611a67565b6000546001600160a01b03908116911614610b52576040805162461bcd60e51b815260206004820181905260248201526000805160206120f3833981519152604482015290519081900360640190fd5b600080546040516001600160a01b03909116907f8be0079c531659141344cd1fd0a4f28419497f9722a3daafe3b4186f6b6457e0908390a3600080546001600160a01b0319169055565b6005546001600160a01b0316331415610bf4576040805162461bcd60e51b8152602060048201526015602482015274596f752061726520612076616c696461746f72202160581b604482015290519081900360640190fd5b6001600160a01b038316600090815260086020526040902054839060ff161515600114610c5f576040805162461bcd60e51b81526020600482015260146024820152731d1bdad95b881a5cc81b9bdd08185b1b1bddd95960621b604482015290519081900360640190fd5b600060038381548110610c6e57fe5b600091825260208083206001600160a01b03891684526004600690930201919091018152604080832033845290915290205411610cf0576040805162461bcd60e51b815260206004820152601b60248201527a07374616b696e672062616c616e63652063616e6e6f74206265203602c1b604482015290519081900360640190fd5b604080516323b872dd60e01b81523360048201523060248201526044810185905290516001600160a01b038616916323b872dd9160648083019260209291908290030181600087803b158015610d4557600080fd5b505af1158015610d59573d6000803e3d6000fd5b505050506040513d6020811015610d6f57600080fd5b505060038054610dbd91859185908110610d8557fe5b600091825260208083206001600160a01b038a1684526004600690930201919091018152604080832033845290915290205490611c41565b60038381548110610dca57fe5b600091825260208083206001600160a01b038916845260046006909302018201815260408084203385529091529091209190915554610e099084611c41565b600455610e168484611c9b565b600060038381548110610e2557fe5b600091825260208083206001600160a01b038916845260069283020160040181526040808420338552909152822054905460038054929450610e8b9287908110610e6b57fe5b906000526020600020906006020160020154611bff90919063ffffffff16565b9050600060038581548110610e9c57fe5b600091825260208083206001600160a01b038b16845260046006909302018201815260408084203385529091529091209190915554610edb9083611a25565b6004556001546001600160a01b031663a9059cbb33610efa8585611a25565b6040518363ffffffff1660e01b815260040180836001600160a01b0316815260200182815260200192505050602060405180830381600087803b158015610f4057600080fd5b505af1158015610f54573d6000803e3d6000fd5b505050506040513d6020811015610f6a57600080fd5b5050600154610f82906001600160a01b031683611dfb565b505050505050565b60045481565b6000546001600160a01b031690565b60065490565b8060038181548110610fb357fe5b9060005260206000209060060201600001544210158015610ff2575060038181548110610fdc57fe5b9060005260206000209060060201600101544211155b610ffb57600080fd5b6005546001600160a01b03163314611056576040805162461bcd60e51b8152602060048201526019602482015278596f7520617265206e6f7420612076616c696461746f72202160381b604482015290519081900360640190fd5b60016003838154811061106557fe5b906000526020600020906006020160030160019054906101000a900460ff16600281111561108f57fe5b146110d7576040805162461bcd60e51b8152602060048201526013602482015272534c41206e6f7420726573706563746564202160681b604482015290519081900360640190fd5b600382815481106110e457fe5b600091825260209091206003600690920201015460ff16156111375760405162461bcd60e51b815260040180806020018281038252603681526020018061209c6036913960400191505060405180910390fd5b60035460045460009161114a9190611bff565b9050600061115e600a610912846003611ba6565b60045490915061116e9083611a25565b600481905550816003858154811061118257fe5b9060005260206000209060060201600201819055506001600385815481106111a657fe5b60009182526020808320600692909202909101600301805460ff1916931515939093179092556001546040805163a9059cbb60e01b81523360048201526024810187905290516001600160a01b039092169363a9059cbb9360448084019492938390030190829087803b1580156109ad57600080fd5b600a602052816000526040600020818154811061123557fe5b6000918252602090912060029091020180546001909101546001600160a01b039091169250905082565b60096020526000908152604090205481565b6001600160a01b038216600090815260086020526040902054829060ff1615156001146112dc576040805162461bcd60e51b81526020600482015260146024820152731d1bdad95b881a5cc81b9bdd08185b1b1bddd95960621b604482015290519081900360640190fd5b60008411611326576040805162461bcd60e51b81526020600482015260126024820152710616d6f756e742063616e6e6f7420626520360741b604482015290519081900360640190fd5b611331338484611e5b565b604080516323b872dd60e01b81523360048201523060248201526044810186905290516001600160a01b038516916323b872dd9160648083019260209291908290030181600087803b15801561138657600080fd5b505af115801561139a573d6000803e3d6000fd5b505050506040513d60208110156113b057600080fd5b5050600380546113fe918691859081106113c657fe5b600091825260208083206001600160a01b03891684526004600690930201919091018152604080832033845290915290205490611c41565b6003838154811061140b57fe5b600091825260208083206001600160a01b03881684526004600690930201820181526040808420338552909152909120919091555461144a9085611c41565b60045533600090815260096020526040902054600114156114a857600680546001810182556000919091527ff652222313e28459528d920b65115c16c04f3efc82aaedc97be59f3f377c0d3f0180546001600160a01b031916331790555b6114b28385611c9b565b50505050565b6002546001600160a01b031681565b600381815481106114d457fe5b60009182526020909120600690910201805460018201546002830154600390930154919350919060ff8082169161010090041685565b6001600160a01b0381166000908152600a60205260409020545b919050565b6001600160a01b0382166000908152600960205260408120548190156115ce5760005b6007548110156115cc576115c26003858154811061156657fe5b906000526020600020906006020160040160006007848154811061158657fe5b60009182526020808320909101546001600160a01b0390811684528382019490945260409283018220938a168252929092529020548390611c41565b915060010161154c565b505b90505b92915050565b6115df611a67565b6000546001600160a01b0390811691161461162f576040805162461bcd60e51b815260206004820181905260248201526000805160206120f3833981519152604482015290519081900360640190fd5b6001600160a01b0381166116745760405162461bcd60e51b81526004018080602001828103825260268152602001806120766026913960400191505060405180910390fd5b600080546040516001600160a01b03808516939216917f8be0079c531659141344cd1fd0a4f28419497f9722a3daafe3b4186f6b6457e091a3600080546001600160a01b0319166001600160a01b0392909216919091179055565b6005546001600160a01b0316331415611727576040805162461bcd60e51b8152602060048201526015602482015274596f752061726520612076616c696461746f72202160581b604482015290519081900360640190fd5b6001600160a01b038216600090815260086020526040902054829060ff161515600114611792576040805162461bcd60e51b81526020600482015260146024820152731d1bdad95b881a5cc81b9bdd08185b1b1bddd95960621b604482015290519081900360640190fd5b6000600383815481106117a157fe5b600091825260208083206001600160a01b03881684526004600690930201919091018152604080832033845290915290205411611823576040805162461bcd60e51b815260206004820152601b60248201527a07374616b696e672062616c616e63652063616e6e6f74206265203602c1b604482015290519081900360640190fd5b60006003838154811061183257fe5b600091825260208083206001600160a01b0388168452600692830201600401815260408084203385529091528220549054600380549294506118789287908110610e6b57fe5b905060006003858154811061188957fe5b600091825260208083206001600160a01b038a168452600460069093020182018152604080842033855290915290912091909155546118c89083611a25565b6004556001600160a01b03851663a9059cbb336118e58585611a25565b6040518363ffffffff1660e01b815260040180836001600160a01b0316815260200182815260200192505050602060405180830381600087803b15801561192b57600080fd5b505af115801561193f573d6000803e3d6000fd5b505050506040513d602081101561195557600080fd5b505033600090815260096020526040902054611972906001611a25565b3360009081526009602052604090208190556119bd57600061199333611ee5565b9050600681815481106119a257fe5b600091825260209091200180546001600160a01b0319169055505b6119c78583611dfb565b5050505050565b600080600383815481106119de57fe5b906000526020600020906006020160000154600384815481106119fd57fe5b90600052602060002090600602016001015491509150915091565b60068181548110610ad157fe5b60006115ce83836040518060400160405280601e81526020017f536166654d6174683a207375627472616374696f6e206f766572666c6f770000815250611f3e565b3390565b611a7361203a565b82815260208101828152600060808301818152600380546001810182559252835160069092027fc2575a0e9e593c00f959f8c92f12db2869c3395a3b0502d05e2516446f71f85b810192835592517fc2575a0e9e593c00f959f8c92f12db2869c3395a3b0502d05e2516446f71f85c84015560408401517fc2575a0e9e593c00f959f8c92f12db2869c3395a3b0502d05e2516446f71f85d84015560608401517fc2575a0e9e593c00f959f8c92f12db2869c3395a3b0502d05e2516446f71f85e909301805493151560ff199094169390931780845590518493909161ff001916610100836002811115611b6357fe5b021790555050600354611b7891506001611a25565b6040517ff791e873e3b67fe74b29aeede7bcbbdaa59c4b64e542571183cd837aa56f6ac990600090a2505050565b600082611bb5575060006115d1565b82820282848281611bc257fe5b04146115ce5760405162461bcd60e51b81526004018080602001828103825260218152602001806120d26021913960400191505060405180910390fd5b60006115ce83836040518060400160405280601a81526020017f536166654d6174683a206469766973696f6e206279207a65726f000000000000815250611fd5565b6000828201838110156115ce576040805162461bcd60e51b815260206004820152601b60248201527f536166654d6174683a206164646974696f6e206f766572666c6f770000000000604482015290519081900360640190fd5b336000908152600c602090815260408083206001600160a01b038616845290915290205460ff16611d6657336000818152600a60209081526040808320815180830183526001600160a01b03888116808352828601898152845460018082018755868a52888a209551600290920290950180546001600160a01b0319169190941617835551918301919091558686529154600b85528386208387528552838620600019919091019055948452600c83528184209084529091529020805460ff191690911790556105d6565b336000818152600b602090815260408083206001600160a01b0387168452825280832054938352600a90915290208054611dc691849184908110611da657fe5b906000526020600020906002020160010154611c4190919063ffffffff16565b336000908152600a60205260409020805483908110611de157fe5b906000526020600020906002020160010181905550505050565b336000818152600b602090815260408083206001600160a01b0387168452825280832054938352600a909152902080546114b291849184908110611e3b57fe5b906000526020600020906002020160010154611a2590919063ffffffff16565b600060038281548110611e6a57fe5b600091825260208083206001600160a01b0387811685526006939093020160040181526040808420928816845291905290205411611ee0576001600160a01b038316600090815260096020526040902054611ec6906001611c41565b6001600160a01b0384166000908152600960205260409020555b505050565b6000805b600654811015611f3457826001600160a01b031660068281548110611f0a57fe5b6000918252602090912001546001600160a01b03161415611f2c579050611524565b600101611ee9565b5060001992915050565b60008184841115611fcd5760405162461bcd60e51b81526004018080602001828103825283818151815260200191508051906020019080838360005b83811015611f92578181015183820152602001611f7a565b50505050905090810190601f168015611fbf5780820380516001836020036101000a031916815260200191505b509250505060405180910390fd5b505050900390565b600081836120245760405162461bcd60e51b8152602060048201818152835160248401528351909283926044909101919085019080838360008315611f92578181015183820152602001611f7a565b50600083858161203057fe5b0495945050505050565b6040518060a001604052806000815260200160008152602001600081526020016000151581526020016000600281111561207057fe5b90529056fe4f776e61626c653a206e6577206f776e657220697320746865207a65726f2061646472657373596f75206861766520616c726561647920636c61696d656420796f75722072657761726420666f72207468697320706572696f642021536166654d6174683a206d756c7469706c69636174696f6e206f766572666c6f774f776e61626c653a2063616c6c6572206973206e6f7420746865206f776e6572596f75206861766520616c726561647920636c61696d656420796f757220636f6d70656e736174696f6e20666f72207468697320706572696f642021a2646970667358221220b4869d5c45728abf840d78321966c55c26c0f047951e525b823b35bd1a619e9a64736f6c634300060c0033506c6561736520636865636b2074686520706172616d73206f6620796f757220706572696f64732021",
  "immutableReferences": {},
  "source": "// SPDX-License-Identifier: MIT\npragma solidity ^0.6.0;\n\nimport \"../bDSLA/bDSLAToken.sol\";\nimport \"@openzeppelin/contracts/token/ERC20/IERC20.sol\";\nimport \"@openzeppelin/contracts/access/Ownable.sol\";\nimport \"@openzeppelin/contracts/math/SafeMath.sol\";\n\ncontract Staking is Ownable {\n    using SafeMath for uint256;\n\n    enum Status {NotVerified, Respected, NotRespected}\n\n    struct Period {\n        uint256 sla_period_start;\n        uint256 sla_period_end;\n        uint256 claimed_reward;\n        bool claimed;\n        Status status;\n        mapping(address => mapping(address => uint256)) stakingBalance; // staking balance for all tokens (address token => (address user => amount))\n        mapping(address => uint256) claimed_compensation;\n    }\n\n    struct TokenStake {\n        address tokenAddress;\n        uint256 stake;\n    }\n\n    /// @dev address of the bDSLA contract\n    bDSLAToken public bDSLA;\n    /// @dev DAI token\n    IERC20 public DAI;\n\n    /// @dev all periods for an SLA\n    Period[] public periods;\n\n    /// @dev userAddress => erc20Address => index of userStakes mapping array\n    uint256 public totalStaked;\n    /// @dev address of the validator for the SLA\n    address public validator;\n    /// @dev list of all stakers (validators, vouchers, delegators ...)\n    address[] public stakers;\n    /// @dev array with the allowed tokens addresses of the SLA\n    address[] public allowedTokens;\n    /// @dev mapping for all allowed tokens to be staked\n    mapping(address => bool) public allowedTokensMapping;\n    /// @dev (mapping) userAddress => amountOf tokens mapping\n    mapping(address => uint256) public uniqueTokensStaked;\n    /// @dev (mapping) userAddress => TokenStake[] mapping\n    mapping(address => TokenStake[]) public userStakes;\n    /// @dev (mapping) userAddress => erc20Address => index: index of the TokenStake array\n    mapping(address => mapping(address => uint256))\n        public userStakedTokensIndex;\n    /// @dev (mapping) userAddress => erc20Address => bool: user has erc20Address staked\n    mapping(address => mapping(address => bool)) public userStakedTokens; // // userAddress => erc20Address => token is staked\n\n    /**\n     *@param period_index 1. index of the period added\n     */\n    event NewPeriodAdded(uint256 indexed period_index);\n\n    modifier notValidator {\n        require(msg.sender != validator, \"You are a validator !\");\n        _;\n    }\n\n    modifier onlyValidator {\n        require(msg.sender == validator, \"You are not a validator !\");\n        _;\n    }\n\n    modifier onlyInPeriod(uint256 _period) {\n        require(\n            block.timestamp >= periods[_period].sla_period_start &&\n                block.timestamp <= periods[_period].sla_period_end\n        );\n        _;\n    }\n\n    modifier onlyAllowedToken(address _token) {\n        require(allowedTokensMapping[_token] == true, \"token is not allowed\");\n        _;\n    }\n\n    /**\n     *@param _tokenAddress 1. bDSLA address\n     *@param _sla_period_starts 2. array of starts of period\n     *@param _sla_period_ends 3. array of ends of period\n     *@param _owner 4. address of the owner of the SLA\n     *@param _daiAddress 5. address of the DAI token\n     */\n    constructor(\n        bDSLAToken _tokenAddress,\n        uint256[] memory _sla_period_starts,\n        uint256[] memory _sla_period_ends,\n        address _owner,\n        address _daiAddress\n    ) public {\n        require(\n            _sla_period_starts.length == _sla_period_ends.length,\n            \"Please check the params of your periods !\"\n        );\n        validator = _owner;\n        // Add bDSLA as allowed token\n        bDSLA = bDSLAToken(_tokenAddress);\n        allowedTokens.push(address(bDSLA));\n        allowedTokensMapping[address(bDSLA)] = true;\n\n        // Add bDSLA as allowed token\n        DAI = IERC20(_daiAddress);\n        allowedTokens.push(address(DAI));\n        allowedTokensMapping[address(DAI)] = true;\n\n        for (uint256 i = 0; i < _sla_period_starts.length; i++) {\n            _addPeriod(_sla_period_starts[i], _sla_period_ends[i]);\n        }\n    }\n\n    /**\n     *@dev add a new period to the array\n     *@param _sla_period_start 1. uint256 of the start of the period\n     *@param _sla_period_end 2. uint256 of the end of the period\n     */\n    function addNewPeriod(uint256 _sla_period_start, uint256 _sla_period_end)\n        public\n        onlyOwner\n    {\n        _addPeriod(_sla_period_start, _sla_period_end);\n    }\n\n    /**\n     *@dev add a token to ve allowed for staking\n     *@param _token 1. address of the new allowed token\n     */\n    function addAllowedTokens(address _token) public onlyOwner {\n        require(allowedTokensMapping[_token] == false, \"token already added\");\n        allowedTokens.push(_token);\n        allowedTokensMapping[_token] = true;\n    }\n\n    /**\n     *@dev increase the amount staked per token\n     *@param _token 1. address of the token\n     *@param _amount 2. amount to be staked\n     */\n    function _increaseTokenStaking(address _token, uint256 _amount) internal {\n        if (userStakedTokens[msg.sender][_token] == false) {\n            userStakes[msg.sender].push(\n                TokenStake({tokenAddress: _token, stake: _amount})\n            );\n            uint256 newTokenIndex = userStakes[msg.sender].length - 1;\n            userStakedTokensIndex[msg.sender][_token] = newTokenIndex;\n            userStakedTokens[msg.sender][_token] = true;\n        } else {\n            uint256 tokenIndex = userStakedTokensIndex[msg.sender][_token];\n            userStakes[msg.sender][tokenIndex].stake = userStakes[msg.sender][\n                tokenIndex\n            ]\n                .stake\n                .add(_amount);\n        }\n    }\n\n    /**\n     *@dev decrease the amount staked per token\n     *@param _token 1. address of the token\n     *@param _amount 2. amount to be decreased\n     */\n    function _decreaseTokenStaking(address _token, uint256 _amount) internal {\n        uint256 tokenIndex = userStakedTokensIndex[msg.sender][_token];\n        userStakes[msg.sender][tokenIndex].stake.sub(_amount);\n    }\n\n    /**\n     *@dev increase the amount staked per token\n     *@param _amount 1. amount to be staked\n     *@param _token 2. address of the token\n     *@param _period 3. period id to stake\n     */\n    function stakeTokens(\n        uint256 _amount,\n        address _token,\n        uint256 _period\n    ) public onlyAllowedToken(_token) {\n        require(_amount > 0, \"amount cannot be 0\");\n        // check if the staker had already staked another token or not\n        _updateUniqueTokensStaked(msg.sender, _token, _period);\n        // stake tokens\n        IERC20(_token).transferFrom(msg.sender, address(this), _amount);\n        // update balance of staked tokens per staker\n        periods[_period].stakingBalance[_token][msg.sender] = periods[_period]\n            .stakingBalance[_token][msg.sender]\n            .add(_amount);\n        totalStaked = totalStaked.add(_amount);\n\n        // if the token is the unique one staked by the staker\n        // add the staker to the list\n        if (uniqueTokensStaked[msg.sender] == 1) {\n            stakers.push(msg.sender);\n        }\n\n        _increaseTokenStaking(_token, _amount);\n    }\n\n    /**\n     *@dev withdraw staked tokens\n     *@param _token 1. address of the token\n     *@param _period 2. period id to withdraw\n     */\n    function withdraw(address _token, uint256 _period)\n        public\n        notValidator\n        onlyAllowedToken(_token)\n    {\n        // check if staker has staked tokens\n        require(\n            periods[_period].stakingBalance[_token][msg.sender] > 0,\n            \"staking balance cannot be 0\"\n        );\n\n        // unstake bDSLA tokens\n        uint256 staked = periods[_period].stakingBalance[_token][msg.sender];\n        uint256 claimed_reward =\n            periods[_period].claimed_reward.div(stakers.length);\n\n        periods[_period].stakingBalance[_token][msg.sender] = 0;\n        totalStaked = totalStaked.sub(staked);\n        IERC20(_token).transfer(msg.sender, staked.sub(claimed_reward));\n\n        // update uniqueTokensStaked for the staker\n        uniqueTokensStaked[msg.sender] = uniqueTokensStaked[msg.sender].sub(1);\n\n        if (uniqueTokensStaked[msg.sender] == 0) {\n            uint256 index = _getIndex(msg.sender);\n            delete stakers[index];\n        }\n\n        _decreaseTokenStaking(_token, staked);\n    }\n\n    /**\n     *@dev withdraw bDSLA and stake d Tokens\n     *@param _token 1. address of the token\n     *@param _amount 2. amount to withdraw\n     *@param _period 3. period id to withdraw\n     */\n    function withdrawAndStake(\n        address _token,\n        uint256 _amount,\n        uint256 _period\n    ) public notValidator onlyAllowedToken(_token) {\n        // check if staker has staked tokens\n        require(\n            periods[_period].stakingBalance[_token][msg.sender] > 0,\n            \"staking balance cannot be 0\"\n        );\n\n        // stake d tokens\n        IERC20(_token).transferFrom(msg.sender, address(this), _amount);\n        // update balance of staked tokens per staker\n        periods[_period].stakingBalance[_token][msg.sender] = periods[_period]\n            .stakingBalance[_token][msg.sender]\n            .add(_amount);\n        totalStaked = totalStaked.add(_amount);\n\n        _increaseTokenStaking(_token, _amount);\n\n        // unstake bDSLA tokens\n        uint256 staked = periods[_period].stakingBalance[_token][msg.sender];\n        uint256 claimed_reward =\n            periods[_period].claimed_reward.div(stakers.length);\n\n        periods[_period].stakingBalance[_token][msg.sender] = 0;\n        totalStaked = totalStaked.sub(staked);\n        bDSLA.transfer(msg.sender, staked.sub(claimed_reward));\n\n        _decreaseTokenStaking(address(bDSLA), staked);\n    }\n\n    /**\n     *@dev claim from validators\n     *@param _period 1. period id to claim\n     */\n    function claimReward(uint256 _period)\n        public\n        onlyInPeriod(_period)\n        onlyValidator\n    {\n        require(\n            periods[_period].status == Status.Respected,\n            \"SLA not respected !\"\n        );\n        require(\n            !periods[_period].claimed,\n            \"You have already claimed your reward for this period !\"\n        );\n\n        uint256 reward = totalStaked.div(periods.length);\n        uint256 fees = reward.mul(3).div(10);\n\n        totalStaked = totalStaked.sub(reward);\n        periods[_period].claimed_reward = reward;\n        periods[_period].claimed = true;\n\n        bDSLA.transfer(msg.sender, reward);\n        bDSLA.burn(fees);\n    }\n\n    /**\n     *@dev claim from delegators\n     *@param _period 1. period id to claim\n     */\n    function claimCompensation(uint256 _period)\n        public\n        onlyInPeriod(_period)\n        notValidator\n    {\n        require(\n            periods[_period].status == Status.NotRespected,\n            \"SLA respected !\"\n        );\n        require(\n            periods[_period].claimed_compensation[msg.sender] == 0,\n            \"You have already claimed your compensation for this period !\"\n        );\n\n        uint256 compensation = getUserTotalValue(msg.sender, _period);\n        uint256 fees = compensation.mul(3).div(10);\n\n        totalStaked = totalStaked.sub(compensation);\n        periods[_period].claimed_compensation[msg.sender] = compensation;\n\n        bDSLA.transfer(msg.sender, compensation);\n        bDSLA.burn(fees);\n    }\n\n    /**\n     *@dev get the user total value staked\n     *@param _user 1. address of the user\n     *@param _period 2. period id to claim\n     */\n    function getUserTotalValue(address _user, uint256 _period)\n        public\n        view\n        returns (uint256)\n    {\n        uint256 totalValue = 0;\n        if (uniqueTokensStaked[_user] > 0) {\n            for (\n                uint256 allowedTokensIndex = 0;\n                allowedTokensIndex < allowedTokens.length;\n                allowedTokensIndex++\n            ) {\n                totalValue = totalValue.add(\n                    periods[_period].stakingBalance[\n                        allowedTokens[allowedTokensIndex]\n                    ][_user]\n                );\n            }\n        }\n        return totalValue;\n    }\n\n    function _updateUniqueTokensStaked(\n        address _user,\n        address _token,\n        uint256 _period\n    ) internal {\n        if (periods[_period].stakingBalance[_token][_user] <= 0) {\n            uniqueTokensStaked[_user] = uniqueTokensStaked[_user].add(1);\n        }\n    }\n\n    function _getIndex(address _user) internal view returns (uint256) {\n        for (uint256 i = 0; i < stakers.length; i++) {\n            if (stakers[i] == _user) {\n                return i;\n            }\n        }\n        return (uint256(-1));\n    }\n\n    function _addPeriod(uint256 _sla_period_start, uint256 _sla_period_end)\n        internal\n    {\n        Period memory _period;\n\n        _period.sla_period_start = _sla_period_start;\n        _period.sla_period_end = _sla_period_end;\n        _period.status = Status.NotVerified;\n\n        periods.push(_period);\n\n        emit NewPeriodAdded(periods.length.sub(1));\n    }\n\n    /**\n     * @dev public view function that returns the total amount of stakers\n     */\n    function stakersCount() public view returns (uint256) {\n        return stakers.length;\n    }\n\n    function getPeriodData(uint256 _periodId)\n        public\n        view\n        returns (uint256 periodStart, uint256 periodEnd)\n    {\n        return (\n            periods[_periodId].sla_period_start,\n            periods[_periodId].sla_period_end\n        );\n    }\n\n    /**\n     * @dev returns the length of TokenStakes per user\n     * @param _owner 1. owner of the stake\n     */\n\n    function getTokenStakeLength(address _owner) public view returns (uint256) {\n        return userStakes[_owner].length;\n    }\n\n    /**\n     * @dev returns the token stake according to index\n     * @param _owner 1. owner of the stake\n     * @param _index 2. index of the TokenStake\n     */\n    function getTokenStake(address _owner, uint256 _index)\n        public\n        view\n        returns (address tokenAddress, uint256 stake)\n    {\n        return (\n            userStakes[_owner][_index].tokenAddress,\n            userStakes[_owner][_index].stake\n        );\n    }\n}\n",
  "sourcePath": "/Users/matiasbn/Desktop/stacktical/stacktical-dsla-contracts/contracts/SLA/Staking.sol",
  "compiler": {
    "name": "solc",
    "version": "0.6.12+commit.27d51765.Emscripten.clang"
  },
  "schemaVersion": "3.2.5",
  "updatedAt": "2020-12-29T14:53:50.211Z",
  "devdoc": {
    "events": {
      "NewPeriodAdded(uint256)": {
        "params": {
          "period_index": "1. index of the period added"
        }
      }
    },
    "kind": "dev",
    "methods": {
      "addAllowedTokens(address)": {
        "details": "add a token to ve allowed for staking",
        "params": {
          "_token": "1. address of the new allowed token"
        }
      },
      "addNewPeriod(uint256,uint256)": {
        "details": "add a new period to the array",
        "params": {
          "_sla_period_end": "2. uint256 of the end of the period",
          "_sla_period_start": "1. uint256 of the start of the period"
        }
      },
      "claimCompensation(uint256)": {
        "details": "claim from delegators",
        "params": {
          "_period": "1. period id to claim"
        }
      },
      "claimReward(uint256)": {
        "details": "claim from validators",
        "params": {
          "_period": "1. period id to claim"
        }
      },
      "constructor": {
        "params": {
          "_daiAddress": "5. address of the DAI token",
          "_owner": "4. address of the owner of the SLA",
          "_sla_period_ends": "3. array of ends of period",
          "_sla_period_starts": "2. array of starts of period",
          "_tokenAddress": "1. bDSLA address"
        }
      },
      "getTokenStake(address,uint256)": {
        "details": "returns the token stake according to index",
        "params": {
          "_index": "2. index of the TokenStake",
          "_owner": "1. owner of the stake"
        }
      },
      "getTokenStakeLength(address)": {
        "details": "returns the length of TokenStakes per user",
        "params": {
          "_owner": "1. owner of the stake"
        }
      },
      "getUserTotalValue(address,uint256)": {
        "details": "get the user total value staked",
        "params": {
          "_period": "2. period id to claim",
          "_user": "1. address of the user"
        }
      },
      "owner()": {
        "details": "Returns the address of the current owner."
      },
      "renounceOwnership()": {
        "details": "Leaves the contract without owner. It will not be possible to call `onlyOwner` functions anymore. Can only be called by the current owner. NOTE: Renouncing ownership will leave the contract without an owner, thereby removing any functionality that is only available to the owner."
      },
      "stakeTokens(uint256,address,uint256)": {
        "details": "increase the amount staked per token",
        "params": {
          "_amount": "1. amount to be staked",
          "_period": "3. period id to stake",
          "_token": "2. address of the token"
        }
      },
      "stakersCount()": {
        "details": "public view function that returns the total amount of stakers"
      },
      "transferOwnership(address)": {
        "details": "Transfers ownership of the contract to a new account (`newOwner`). Can only be called by the current owner."
      },
      "withdraw(address,uint256)": {
        "details": "withdraw staked tokens",
        "params": {
          "_period": "2. period id to withdraw",
          "_token": "1. address of the token"
        }
      },
      "withdrawAndStake(address,uint256,uint256)": {
        "details": "withdraw bDSLA and stake d Tokens",
        "params": {
          "_amount": "2. amount to withdraw",
          "_period": "3. period id to withdraw",
          "_token": "1. address of the token"
        }
      }
    },
    "stateVariables": {
      "DAI": {
        "details": "DAI token"
      },
      "allowedTokens": {
        "details": "array with the allowed tokens addresses of the SLA"
      },
      "allowedTokensMapping": {
        "details": "mapping for all allowed tokens to be staked"
      },
      "bDSLA": {
        "details": "address of the bDSLA contract"
      },
      "periods": {
        "details": "all periods for an SLA"
      },
      "stakers": {
        "details": "list of all stakers (validators, vouchers, delegators ...)"
      },
      "totalStaked": {
        "details": "userAddress => erc20Address => index of userStakes mapping array"
      },
      "uniqueTokensStaked": {
        "details": "(mapping) userAddress => amountOf tokens mapping"
      },
      "userStakedTokens": {
        "details": "(mapping) userAddress => erc20Address => bool: user has erc20Address staked"
      },
      "userStakedTokensIndex": {
        "details": "(mapping) userAddress => erc20Address => index: index of the TokenStake array"
      },
      "userStakes": {
        "details": "(mapping) userAddress => TokenStake[] mapping"
      },
      "validator": {
        "details": "address of the validator for the SLA"
      }
    },
    "version": 1
  },
  "userdoc": {
    "kind": "user",
    "methods": {},
    "version": 1
  }
}