{
  "contractName": "Staking",
  "abi": [
    {
      "inputs": [
        {
          "internalType": "address",
          "name": "_stakeRegistry",
          "type": "address"
        },
        {
          "internalType": "address",
          "name": "_periodRegistry",
          "type": "address"
        },
        {
          "internalType": "enum PeriodRegistry.PeriodType",
          "name": "_periodType",
          "type": "uint8"
        },
        {
          "internalType": "uint256",
          "name": "_slaPeriodsLength",
          "type": "uint256"
        },
        {
          "internalType": "bool",
          "name": "_whitelistedContract",
          "type": "bool"
        },
        {
          "internalType": "uint256",
          "name": "_slaID",
          "type": "uint256"
        }
      ],
      "stateMutability": "nonpayable",
      "type": "constructor"
    },
    {
      "anonymous": false,
      "inputs": [
        {
          "indexed": true,
          "internalType": "address",
          "name": "previousOwner",
          "type": "address"
        },
        {
          "indexed": true,
          "internalType": "address",
          "name": "newOwner",
          "type": "address"
        }
      ],
      "name": "OwnershipTransferred",
      "type": "event"
    },
    {
      "anonymous": false,
      "inputs": [
        {
          "indexed": true,
          "internalType": "uint256",
          "name": "periodId",
          "type": "uint256"
        },
        {
          "indexed": true,
          "internalType": "address",
          "name": "tokenAddress",
          "type": "address"
        },
        {
          "indexed": false,
          "internalType": "uint256",
          "name": "rewardPercentage",
          "type": "uint256"
        },
        {
          "indexed": false,
          "internalType": "uint256",
          "name": "amount",
          "type": "uint256"
        }
      ],
      "name": "ProviderRewardGenerated",
      "type": "event"
    },
    {
      "inputs": [],
      "name": "DSLAburnRate",
      "outputs": [
        {
          "internalType": "uint256",
          "name": "",
          "type": "uint256"
        }
      ],
      "stateMutability": "view",
      "type": "function"
    },
    {
      "inputs": [
        {
          "internalType": "uint256",
          "name": "",
          "type": "uint256"
        }
      ],
      "name": "allowedTokens",
      "outputs": [
        {
          "internalType": "address",
          "name": "",
          "type": "address"
        }
      ],
      "stateMutability": "view",
      "type": "function"
    },
    {
      "inputs": [],
      "name": "cumulatedDevaluation",
      "outputs": [
        {
          "internalType": "uint256",
          "name": "",
          "type": "uint256"
        }
      ],
      "stateMutability": "view",
      "type": "function"
    },
    {
      "inputs": [
        {
          "internalType": "address",
          "name": "",
          "type": "address"
        }
      ],
      "name": "dTokenRegistry",
      "outputs": [
        {
          "internalType": "contract ERC20PresetMinterPauser",
          "name": "",
          "type": "address"
        }
      ],
      "stateMutability": "view",
      "type": "function"
    },
    {
      "inputs": [],
      "name": "dslaTokenAddress",
      "outputs": [
        {
          "internalType": "address",
          "name": "",
          "type": "address"
        }
      ],
      "stateMutability": "view",
      "type": "function"
    },
    {
      "inputs": [],
      "name": "minimumDSLAStakedTier1",
      "outputs": [
        {
          "internalType": "uint256",
          "name": "",
          "type": "uint256"
        }
      ],
      "stateMutability": "view",
      "type": "function"
    },
    {
      "inputs": [],
      "name": "minimumDSLAStakedTier2",
      "outputs": [
        {
          "internalType": "uint256",
          "name": "",
          "type": "uint256"
        }
      ],
      "stateMutability": "view",
      "type": "function"
    },
    {
      "inputs": [],
      "name": "minimumDSLAStakedTier3",
      "outputs": [
        {
          "internalType": "uint256",
          "name": "",
          "type": "uint256"
        }
      ],
      "stateMutability": "view",
      "type": "function"
    },
    {
      "inputs": [],
      "name": "owner",
      "outputs": [
        {
          "internalType": "address",
          "name": "",
          "type": "address"
        }
      ],
      "stateMutability": "view",
      "type": "function"
    },
    {
      "inputs": [
        {
          "internalType": "address",
          "name": "",
          "type": "address"
        }
      ],
      "name": "providerPool",
      "outputs": [
        {
          "internalType": "uint256",
          "name": "",
          "type": "uint256"
        }
      ],
      "stateMutability": "view",
      "type": "function"
    },
    {
      "inputs": [],
      "name": "renounceOwnership",
      "outputs": [],
      "stateMutability": "nonpayable",
      "type": "function"
    },
    {
      "inputs": [],
      "name": "slaID",
      "outputs": [
        {
          "internalType": "uint256",
          "name": "",
          "type": "uint256"
        }
      ],
      "stateMutability": "view",
      "type": "function"
    },
    {
      "inputs": [],
      "name": "slaPeriodsLength",
      "outputs": [
        {
          "internalType": "uint256",
          "name": "",
          "type": "uint256"
        }
      ],
      "stateMutability": "view",
      "type": "function"
    },
    {
      "inputs": [
        {
          "internalType": "uint256",
          "name": "",
          "type": "uint256"
        }
      ],
      "name": "stakers",
      "outputs": [
        {
          "internalType": "address",
          "name": "",
          "type": "address"
        }
      ],
      "stateMutability": "view",
      "type": "function"
    },
    {
      "inputs": [
        {
          "internalType": "address",
          "name": "newOwner",
          "type": "address"
        }
      ],
      "name": "transferOwnership",
      "outputs": [],
      "stateMutability": "nonpayable",
      "type": "function"
    },
    {
      "inputs": [
        {
          "internalType": "address",
          "name": "",
          "type": "address"
        }
      ],
      "name": "usersPool",
      "outputs": [
        {
          "internalType": "uint256",
          "name": "",
          "type": "uint256"
        }
      ],
      "stateMutability": "view",
      "type": "function"
    },
    {
      "inputs": [
        {
          "internalType": "address",
          "name": "",
          "type": "address"
        }
      ],
      "name": "whitelist",
      "outputs": [
        {
          "internalType": "bool",
          "name": "",
          "type": "bool"
        }
      ],
      "stateMutability": "view",
      "type": "function"
    },
    {
      "inputs": [],
      "name": "whitelistedContract",
      "outputs": [
        {
          "internalType": "bool",
          "name": "",
          "type": "bool"
        }
      ],
      "stateMutability": "view",
      "type": "function"
    },
    {
      "inputs": [
        {
          "internalType": "address",
          "name": "_userAddress",
          "type": "address"
        }
      ],
      "name": "addUserToWhitelist",
      "outputs": [],
      "stateMutability": "nonpayable",
      "type": "function"
    },
    {
      "inputs": [
        {
          "internalType": "address",
          "name": "_userAddress",
          "type": "address"
        }
      ],
      "name": "removeUserFromWhitelist",
      "outputs": [],
      "stateMutability": "nonpayable",
      "type": "function"
    },
    {
      "inputs": [
        {
          "internalType": "address",
          "name": "_tokenAddress",
          "type": "address"
        }
      ],
      "name": "addAllowedTokens",
      "outputs": [],
      "stateMutability": "nonpayable",
      "type": "function"
    },
    {
      "inputs": [
        {
          "internalType": "address",
          "name": "_tokenAddress",
          "type": "address"
        }
      ],
      "name": "_claimCompensation",
      "outputs": [],
      "stateMutability": "nonpayable",
      "type": "function"
    },
    {
      "inputs": [
        {
          "internalType": "address",
          "name": "_staker",
          "type": "address"
        }
      ],
      "name": "isStaker",
      "outputs": [
        {
          "internalType": "bool",
          "name": "",
          "type": "bool"
        }
      ],
      "stateMutability": "view",
      "type": "function"
    },
    {
      "inputs": [],
      "name": "getAllowedTokensLength",
      "outputs": [
        {
          "internalType": "uint256",
          "name": "",
          "type": "uint256"
        }
      ],
      "stateMutability": "view",
      "type": "function"
    },
    {
      "inputs": [
        {
          "internalType": "address",
          "name": "_staker",
          "type": "address"
        },
        {
          "internalType": "uint256",
          "name": "_allowedTokenIndex",
          "type": "uint256"
        }
      ],
      "name": "getTokenStake",
      "outputs": [
        {
          "internalType": "address",
          "name": "tokenAddress",
          "type": "address"
        },
        {
          "internalType": "uint256",
          "name": "stake",
          "type": "uint256"
        }
      ],
      "stateMutability": "view",
      "type": "function"
    },
    {
      "inputs": [
        {
          "internalType": "address",
          "name": "_tokenAddress",
          "type": "address"
        }
      ],
      "name": "isAllowedToken",
      "outputs": [
        {
          "internalType": "bool",
          "name": "",
          "type": "bool"
        }
      ],
      "stateMutability": "view",
      "type": "function"
    }
  ],
  "bytecode": "0x6080604052603c600755620f42406008553480156200001d57600080fd5b5060405162005a8538038062005a85833981810160405260c08110156200004357600080fd5b508051602082015160408301516060840151608085015160a09095015193949293919290916000620000746200050f565b600080546001600160a01b0319166001600160a01b0383169081178255604051929350917f8be0079c531659141344cd1fd0a4f28419497f9722a3daafe3b4186f6b6457e0908290a350600180546001600160a01b038089166001600160a01b0319928316178355600280549189169190921617905560108054869260ff19909116908360058111156200010457fe5b021790555060118390556012805460ff191683151517905560015460408051637b8041cf60e11b815290516000928392839283926001600160a01b03169163f700839e916004808301926080929190829003018186803b1580156200016857600080fd5b505afa1580156200017d573d6000803e3d6000fd5b505050506040513d60808110156200019457600080fd5b5080516020808301516040808501516060909501516001548251638b8e530960e01b81529251959a509298509496509394506001600160a01b031692638b8e53099260048083019392829003018186803b158015620001f257600080fd5b505afa15801562000207573d6000803e3d6000fd5b505050506040513d60208110156200021e57600080fd5b5051600a80546001600160a01b0319166001600160a01b03909216919091179055600c849055600d839055600e829055600f8190556200025e3362000513565b600a54600b80546001810182556000919091527f0175b7a638427703f0dbe7bb9bbf987a2551717b34e79f33b5b1008d1fa01db90180546001600160a01b0319166001600160a01b0390921691909117905560038590556060620002c28662000613565b905060608160405160200180806944534c412d44534c412d60b01b815250600a0182805190602001908083835b60208310620003105780518252601f199092019160209182019101620002ef565b6001836020036101000a03801982511681845116808217855250505050505090500191505060405160208183030381529060405290506060826040516020018080656444534c412d60d01b81525060060182805190602001908083835b602083106200038e5780518252601f1990920191602091820191016200036d565b6001836020036101000a038019825116818451168082178552505050505050905001915050604051602081830303815290604052905060008282604051620003d690620006f8565b604080825283519082015282518190602080830191606084019187019080838360005b8381101562000413578181015183820152602001620003f9565b50505050905090810190601f168015620004415780820380516001836020036101000a031916815260200191505b50838103825284518152845160209182019186019080838360005b83811015620004765781810151838201526020016200045c565b50505050905090810190601f168015620004a45780820380516001836020036101000a031916815260200191505b50945050505050604051809103906000f080158015620004c8573d6000803e3d6000fd5b50600a546001600160a01b0390811660009081526006602052604090208054919092166001600160a01b031990911617905550620007069c50505050505050505050505050565b3390565b6200051d6200050f565b6000546001600160a01b0390811691161462000580576040805162461bcd60e51b815260206004820181905260248201527f4f776e61626c653a2063616c6c6572206973206e6f7420746865206f776e6572604482015290519081900360640190fd5b6001600160a01b03811660009081526013602052604090205460ff1615620005ef576040805162461bcd60e51b815260206004820152601860248201527f5573657220616c72656164792077686974656c69737465640000000000000000604482015290519081900360640190fd5b6001600160a01b03166000908152601360205260409020805460ff19166001179055565b606081806200063c5750506040805180820190915260018152600360fc1b6020820152620006f3565b8060005b81156200065657600101600a8204915062000640565b6060816001600160401b03811180156200066f57600080fd5b506040519080825280601f01601f1916602001820160405280156200069b576020820181803683370190505b50905060001982015b8415620006ec57600a850660300160f81b82828060019003935081518110620006c957fe5b60200101906001600160f81b031916908160001a905350600a85049450620006a4565b5093505050505b919050565b611c768062003e0f83390190565b6136f980620007166000396000f3fe60806040523480156200001157600080fd5b5060043610620001905760003560e01c80638d4f567d11620000e1578063cbe230c31162000093578063cbe230c314620003ed578063ee575c281462000416578063f2db10fe1462000420578063f2fde38b146200042a578063f7e9dfff1462000453578063f9902bb1146200045d578063fd5e6dd114620004865762000190565b80638d4f567d14620003735780638da5cb5b146200037d5780639b19251a1462000387578063b18ac91814620003b0578063b7bc347e14620003ba578063bce8abb114620003c45762000190565b806357ac94f0116200014757806357ac94f014620002565780635c1c20de14620002a85780635e5f2e2614620002b2578063639b6fc314620002ee5780636f1e85331462000317578063715018a61462000340578063747b8050146200034a5762000190565b80630c5160f41462000195578063171e44ea14620001b157806318e4542714620001dc5780631fc2cd9314620001fa5780632eb8197a1462000223578063484fbf2b146200022d575b600080fd5b6200019f620004a6565b60408051918252519081900360200190f35b620001da60048036036020811015620001c957600080fd5b50356001600160a01b0316620004ac565b005b620001e662000a94565b604080519115158252519081900360200190f35b620001da600480360360208110156200021257600080fd5b50356001600160a01b031662000a9d565b6200019f62000d78565b6200019f600480360360208110156200024557600080fd5b50356001600160a01b031662000d7e565b62000285600480360360408110156200026e57600080fd5b506001600160a01b03813516906020013562000d90565b604080516001600160a01b03909316835260208301919091528051918290030190f35b6200019f62000f58565b620002d260048036036020811015620002ca57600080fd5b503562000f5e565b604080516001600160a01b039092168252519081900360200190f35b6200019f600480360360208110156200030657600080fd5b50356001600160a01b031662000f86565b620001e6600480360360208110156200032f57600080fd5b50356001600160a01b031662000f98565b620001da62000ffa565b620001da600480360360208110156200036257600080fd5b50356001600160a01b0316620010a0565b6200019f6200118a565b620002d262001190565b620001e6600480360360208110156200039f57600080fd5b50356001600160a01b03166200119f565b6200019f620011b4565b6200019f620011ba565b620002d260048036036020811015620003dc57600080fd5b50356001600160a01b0316620011c0565b620001e6600480360360208110156200040557600080fd5b50356001600160a01b0316620011db565b6200019f62001232565b6200019f62001238565b620001da600480360360208110156200044257600080fd5b50356001600160a01b03166200123e565b620002d26200133c565b620001da600480360360208110156200047557600080fd5b50356001600160a01b03166200134b565b620002d2600480360360208110156200049e57600080fd5b503562001432565b60115481565b620004b662001440565b6000546001600160a01b0390811691161462000508576040805162461bcd60e51b8152602060048201819052602482015260008051602062003655833981519152604482015290519081900360640190fd5b6200051381620011db565b156200055c576040805162461bcd60e51b8152602060048201526013602482015272151bdad95b88185b1c9958591e481859191959606a1b604482015290519081900360640190fd5b6001546040805163cbe230c360e01b81526001600160a01b0384811660048301529151919092169163cbe230c3916024808301926020929190829003018186803b158015620005aa57600080fd5b505afa158015620005bf573d6000803e3d6000fd5b505050506040513d6020811015620005d657600080fd5b505115156001146200061a5760405162461bcd60e51b815260040180806020018281038252602d815260200180620035cd602d913960400191505060405180910390fd5b600b80546001810182556000919091527f0175b7a638427703f0dbe7bb9bbf987a2551717b34e79f33b5b1008d1fa01db90180546001600160a01b0319166001600160a01b038316179055600354606090620006769062001444565b90506060826001600160a01b03166306fdde036040518163ffffffff1660e01b815260040160006040518083038186803b158015620006b457600080fd5b505afa158015620006c9573d6000803e3d6000fd5b505050506040513d6000823e601f3d908101601f191682016040526020811015620006f357600080fd5b81019080805160405193929190846401000000008211156200071457600080fd5b9083019060208201858111156200072a57600080fd5b82516401000000008111828201881017156200074557600080fd5b82525081516020918201929091019080838360005b83811015620007745781810151838201526020016200075a565b50505050905090810190601f168015620007a25780820380516001836020036101000a031916815260200191505b5060405250505090506060818360405160200180806444534c412d60d81b81525060050183805190602001908083835b60208310620007f35780518252601f199092019160209182019101620007d2565b6001836020036101000a03801982511681845116808217855250505050505090500180602d60f81b81525060010182805190602001908083835b602083106200084e5780518252601f1990920191602091820191016200082d565b6001836020036101000a038019825116818451168082178552505050505050905001925050506040516020818303038152906040529050606082846040516020018080601960fa1b81525060010183805190602001908083835b60208310620008c95780518252601f199092019160209182019101620008a8565b6001836020036101000a03801982511681845116808217855250505050505090500180602d60f81b81525060010182805190602001908083835b60208310620009245780518252601f19909201916020918201910162000903565b6001836020036101000a038019825116818451168082178552505050505050905001925050506040516020818303038152906040529050600082826040516200096d9062001922565b604080825283519082015282518190602080830191606084019187019080838360005b83811015620009aa57818101518382015260200162000990565b50505050905090810190601f168015620009d85780820380516001836020036101000a031916815260200191505b50838103825284518152845160209182019186019080838360005b8381101562000a0d578181015183820152602001620009f3565b50505050905090810190601f16801562000a3b5780820380516001836020036101000a031916815260200191505b50945050505050604051809103906000f08015801562000a5f573d6000803e3d6000fd5b506001600160a01b03968716600090815260066020526040902080546001600160a01b03191691909716179095555050505050565b60125460ff1681565b62000aa762001190565b6001600160a01b0316336001600160a01b0316141562000af95760405162461bcd60e51b81526004018080602001828103825260258152602001806200369f6025913960400191505060405180910390fd5b60125460ff1615156001141562000b6e573360009081526013602052604090205460ff16151560011462000b6e576040805162461bcd60e51b8152602060048201526017602482015276155cd95c881a5cc81b9bdd081dda1a5d195b1a5cdd1959604a1b604482015290519081900360640190fd5b6001600160a01b0380821660009081526006602090815260408083205481516370a0823160e01b8152336004820152915194169384926370a082319260248082019391829003018186803b15801562000bc657600080fd5b505afa15801562000bdb573d6000803e3d6000fd5b505050506040513d602081101562000bf257600080fd5b5051604080516318160ddd60e01b815290519192506000916001600160a01b038516916318160ddd916004808301926020929190829003018186803b15801562000c3b57600080fd5b505afa15801562000c50573d6000803e3d6000fd5b505050506040513d602081101562000c6757600080fd5b505190506127108262000cac5760405162461bcd60e51b815260040180806020018281038252603a815260200180620035fa603a913960400191505060405180910390fd5b600062000cc68362000cbf868562001528565b906200158f565b6001600160a01b0387166000908152600560205260408120549192509062000cf690849062000cbf908562001528565b9050856001600160a01b03166342966c68866040518263ffffffff1660e01b815260040180828152602001915050600060405180830381600087803b15801562000d3f57600080fd5b505af115801562000d54573d6000803e3d6000fd5b5062000d6f925050506001600160a01b0388163383620015d3565b50505050505050565b600f5481565b60056020526000908152604090205481565b6000806000600b848154811062000da357fe5b6000918252602090912001546001600160a01b0316905062000dc462001190565b6001600160a01b0316856001600160a01b0316141562000e02576001600160a01b038116600090815260046020526040902054909250905062000f51565b6001600160a01b0380821660009081526006602090815260408083205481516370a0823160e01b8152336004820152915194169384926370a082319260248082019391829003018186803b15801562000e5a57600080fd5b505afa15801562000e6f573d6000803e3d6000fd5b505050506040513d602081101562000e8657600080fd5b5051604080516318160ddd60e01b815290519192506000916001600160a01b038516916318160ddd916004808301926020929190829003018186803b15801562000ecf57600080fd5b505afa15801562000ee4573d6000803e3d6000fd5b505050506040513d602081101562000efb57600080fd5b50519050612710600062000f158362000cbf868562001528565b6001600160a01b038716600090815260056020526040902054909150869062000f4690849062000cbf908562001528565b975097505050505050505b9250929050565b600c5481565b600b818154811062000f6c57fe5b6000918252602090912001546001600160a01b0316905081565b60046020526000908152604090205481565b6000805b60095481101562000fef57826001600160a01b03166009828154811062000fbf57fe5b6000918252602090912001546001600160a01b0316141562000fe657600191505062000ff5565b60010162000f9c565b50600090505b919050565b6200100462001440565b6000546001600160a01b0390811691161462001056576040805162461bcd60e51b8152602060048201819052602482015260008051602062003655833981519152604482015290519081900360640190fd5b600080546040516001600160a01b03909116907f8be0079c531659141344cd1fd0a4f28419497f9722a3daafe3b4186f6b6457e0908390a3600080546001600160a01b0319169055565b620010aa62001440565b6000546001600160a01b03908116911614620010fc576040805162461bcd60e51b8152602060048201819052602482015260008051602062003655833981519152604482015290519081900360640190fd5b6001600160a01b03811660009081526013602052604090205460ff161562001166576040805162461bcd60e51b8152602060048201526018602482015277155cd95c88185b1c9958591e481dda1a5d195b1a5cdd195960421b604482015290519081900360640190fd5b6001600160a01b03166000908152601360205260409020805460ff19166001179055565b60075481565b6000546001600160a01b031690565b60136020526000908152604090205460ff1681565b600e5481565b600b5490565b6006602052600090815260409020546001600160a01b031681565b6000805b600b5481101562000fef57826001600160a01b0316600b82815481106200120257fe5b6000918252602090912001546001600160a01b031614156200122957600191505062000ff5565b600101620011df565b600d5481565b60035481565b6200124862001440565b6000546001600160a01b039081169116146200129a576040805162461bcd60e51b8152602060048201819052602482015260008051602062003655833981519152604482015290519081900360640190fd5b6001600160a01b038116620012e15760405162461bcd60e51b8152600401808060200182810382526026815260200180620035a76026913960400191505060405180910390fd5b600080546040516001600160a01b03808516939216917f8be0079c531659141344cd1fd0a4f28419497f9722a3daafe3b4186f6b6457e091a3600080546001600160a01b0319166001600160a01b0392909216919091179055565b600a546001600160a01b031681565b6200135562001440565b6000546001600160a01b03908116911614620013a7576040805162461bcd60e51b8152602060048201819052602482015260008051602062003655833981519152604482015290519081900360640190fd5b6001600160a01b03811660009081526013602052604090205460ff16151560011462001411576040805162461bcd60e51b8152602060048201526014602482015273155cd95c881b9bdd081dda1a5d195b1a5cdd195960621b604482015290519081900360640190fd5b6001600160a01b03166000908152601360205260409020805460ff19169055565b6009818154811062000f6c57fe5b3390565b606081806200146d5750506040805180820190915260018152600360fc1b602082015262000ff5565b8060005b81156200148757600101600a8204915062001471565b60608167ffffffffffffffff81118015620014a157600080fd5b506040519080825280601f01601f191660200182016040528015620014cd576020820181803683370190505b50905060001982015b84156200151e57600a850660300160f81b82828060019003935081518110620014fb57fe5b60200101906001600160f81b031916908160001a905350600a85049450620014d6565b5095945050505050565b600082620015395750600062001589565b828202828482816200154757fe5b0414620015865760405162461bcd60e51b8152600401808060200182810382526021815260200180620036346021913960400191505060405180910390fd5b90505b92915050565b60006200158683836040518060400160405280601a81526020017f536166654d6174683a206469766973696f6e206279207a65726f0000000000008152506200162c565b604080516001600160a01b038416602482015260448082018490528251808303909101815260649091019091526020810180516001600160e01b031663a9059cbb60e01b17905262001627908490620016d3565b505050565b60008183620016bc5760405162461bcd60e51b81526004018080602001828103825283818151815260200191508051906020019080838360005b838110156200168057818101518382015260200162001666565b50505050905090810190601f168015620016ae5780820380516001836020036101000a031916815260200191505b509250505060405180910390fd5b506000838581620016c957fe5b0495945050505050565b60606200172a826040518060400160405280602081526020017f5361666545524332303a206c6f772d6c6576656c2063616c6c206661696c6564815250856001600160a01b03166200178a9092919063ffffffff16565b80519091501562001627578080602001905160208110156200174b57600080fd5b5051620016275760405162461bcd60e51b815260040180806020018281038252602a81526020018062003675602a913960400191505060405180910390fd5b60606200179b8484600085620017a3565b949350505050565b6060620017b0856200191c565b62001802576040805162461bcd60e51b815260206004820152601d60248201527f416464726573733a2063616c6c20746f206e6f6e2d636f6e7472616374000000604482015290519081900360640190fd5b60006060866001600160a01b031685876040518082805190602001908083835b60208310620018435780518252601f19909201916020918201910162001822565b6001836020036101000a03801982511681845116808217855250505050505090500191505060006040518083038185875af1925050503d8060008114620018a7576040519150601f19603f3d011682016040523d82523d6000602084013e620018ac565b606091505b50915091508115620018c25791506200179b9050565b805115620018d35780518082602001fd5b60405162461bcd60e51b81526020600482018181528651602484015286518793919283926044019190850190808383600083156200168057818101518382015260200162001666565b3b151590565b611c7680620019318339019056fe60806040523480156200001157600080fd5b5060405162001c7638038062001c76833981810160405260408110156200003757600080fd5b81019080805160405193929190846401000000008211156200005857600080fd5b9083019060208201858111156200006e57600080fd5b82516401000000008111828201881017156200008957600080fd5b82525081516020918201929091019080838360005b83811015620000b85781810151838201526020016200009e565b50505050905090810190601f168015620000e65780820380516001836020036101000a031916815260200191505b50604052602001805160405193929190846401000000008211156200010a57600080fd5b9083019060208201858111156200012057600080fd5b82516401000000008111828201881017156200013b57600080fd5b82525081516020918201929091019080838360005b838110156200016a57818101518382015260200162000150565b50505050905090810190601f168015620001985780820380516001836020036101000a031916815260200191505b50604052505082518391508290620001b890600490602085019062000375565b508051620001ce90600590602084019062000375565b50506006805461ff001960ff1990911660121716905550620001fb6000620001f562000261565b62000265565b6200022a7f9f2df0fed2c77648de5860a4cc508cd0818c85b8b8a1ab4ceeef8d981c8956a6620001f562000261565b620002597f65d7a28e3265b37a6474929f336521b332c1681b933f6cb9f3376673440d862a620001f562000261565b505062000411565b3390565b62000271828262000275565b5050565b6000828152602081815260409091206200029a91839062000b81620002ee821b17901c565b156200027157620002aa62000261565b6001600160a01b0316816001600160a01b0316837f2f8788117e7eff1d82e926ec794901d17c78024a50270940304540a733656f0d60405160405180910390a45050565b600062000305836001600160a01b0384166200030e565b90505b92915050565b60006200031c83836200035d565b620003545750815460018181018455600084815260208082209093018490558454848252828601909352604090209190915562000308565b50600062000308565b60009081526001919091016020526040902054151590565b828054600181600116156101000203166002900490600052602060002090601f016020900481019282601f10620003b857805160ff1916838001178555620003e8565b82800160010185558215620003e8579182015b82811115620003e8578251825591602001919060010190620003cb565b50620003f6929150620003fa565b5090565b5b80821115620003f65760008155600101620003fb565b61185580620004216000396000f3fe608060405234801561001057600080fd5b50600436106101795760003560e01c806370a08231116100d9578063a457c2d711610087578063a457c2d71461047a578063a9059cbb146104a6578063ca15c873146104d2578063d5391393146104ef578063d547741f146104f7578063dd62ed3e14610523578063e63ab1e91461055157610179565b806370a08231146103a557806379cc6790146103cb5780638456cb59146103f75780639010d07c146103ff57806391d148541461043e57806395d89b411461046a578063a217fddf1461047257610179565b8063313ce56711610136578063313ce567146102d657806336568abe146102f457806339509351146103205780633f4ba83a1461034c57806340c10f191461035457806342966c68146103805780635c975abb1461039d57610179565b806306fdde031461017e578063095ea7b3146101fb57806318160ddd1461023b57806323b872dd14610255578063248a9ca31461028b5780632f2ff15d146102a8575b600080fd5b610186610559565b6040805160208082528351818301528351919283929083019185019080838360005b838110156101c05781810151838201526020016101a8565b50505050905090810190601f1680156101ed5780820380516001836020036101000a031916815260200191505b509250505060405180910390f35b6102276004803603604081101561021157600080fd5b506001600160a01b0381351690602001356105ef565b604080519115158252519081900360200190f35b61024361060d565b60408051918252519081900360200190f35b6102276004803603606081101561026b57600080fd5b506001600160a01b03813581169160208101359091169060400135610613565b610243600480360360208110156102a157600080fd5b503561069a565b6102d4600480360360408110156102be57600080fd5b50803590602001356001600160a01b03166106af565b005b6102de61071b565b6040805160ff9092168252519081900360200190f35b6102d46004803603604081101561030a57600080fd5b50803590602001356001600160a01b0316610724565b6102276004803603604081101561033657600080fd5b506001600160a01b038135169060200135610785565b6102d46107d3565b6102d46004803603604081101561036a57600080fd5b506001600160a01b038135169060200135610832565b6102d46004803603602081101561039657600080fd5b50356108a3565b6102276108b7565b610243600480360360208110156103bb57600080fd5b50356001600160a01b03166108c5565b6102d4600480360360408110156103e157600080fd5b506001600160a01b0381351690602001356108e0565b6102d461093a565b6104226004803603604081101561041557600080fd5b5080359060200135610997565b604080516001600160a01b039092168252519081900360200190f35b6102276004803603604081101561045457600080fd5b50803590602001356001600160a01b03166109b6565b6101866109ce565b610243610a2f565b6102276004803603604081101561049057600080fd5b506001600160a01b038135169060200135610a34565b610227600480360360408110156104bc57600080fd5b506001600160a01b038135169060200135610a9c565b610243600480360360208110156104e857600080fd5b5035610ab0565b610243610ac7565b6102d46004803603604081101561050d57600080fd5b50803590602001356001600160a01b0316610aeb565b6102436004803603604081101561053957600080fd5b506001600160a01b0381358116916020013516610b44565b610243610b6f565b60048054604080516020601f60026000196101006001881615020190951694909404938401819004810282018101909252828152606093909290918301828280156105e55780601f106105ba576101008083540402835291602001916105e5565b820191906000526020600020905b8154815290600101906020018083116105c857829003601f168201915b5050505050905090565b60006106036105fc610b96565b8484610b9a565b5060015b92915050565b60035490565b6000610620848484610c86565b6106908461062c610b96565b61068b8560405180606001604052806028815260200161163f602891396001600160a01b038a1660009081526002602052604081209061066a610b96565b6001600160a01b031681526020810191909152604001600020549190610dd1565b610b9a565b5060019392505050565b60009081526020819052604090206002015490565b6000828152602081905260409020600201546106d2906106cd610b96565b6109b6565b61070d5760405162461bcd60e51b815260040180806020018281038252602f81526020018061153d602f913960400191505060405180910390fd5b6107178282610e68565b5050565b60065460ff1690565b61072c610b96565b6001600160a01b0316816001600160a01b03161461077b5760405162461bcd60e51b815260040180806020018281038252602f8152602001806117c7602f913960400191505060405180910390fd5b6107178282610ed1565b6000610603610792610b96565b8461068b85600260006107a3610b96565b6001600160a01b03908116825260208083019390935260409182016000908120918c168152925290205490610f3a565b6107ed6000805160206116678339815191526106cd610b96565b6108285760405162461bcd60e51b815260040180806020018281038252603981526020018061158e6039913960400191505060405180910390fd5b610830610f94565b565b61085e7f9f2df0fed2c77648de5860a4cc508cd0818c85b8b8a1ab4ceeef8d981c8956a66106cd610b96565b6108995760405162461bcd60e51b81526004018080602001828103825260368152602001806116876036913960400191505060405180910390fd5b6107178282611038565b6108b46108ae610b96565b82611118565b50565b600654610100900460ff1690565b6001600160a01b031660009081526001602052604090205490565b6000610917826040518060600160405280602481526020016116bd602491396109108661090b610b96565b610b44565b9190610dd1565b905061092b83610925610b96565b83610b9a565b6109358383611118565b505050565b6109546000805160206116678339815191526106cd610b96565b61098f5760405162461bcd60e51b815260040180806020018281038252603781526020018061176b6037913960400191505060405180910390fd5b610830611202565b60008281526020819052604081206109af908361128a565b9392505050565b60008281526020819052604081206109af9083611296565b60058054604080516020601f60026000196101006001881615020190951694909404938401819004810282018101909252828152606093909290918301828280156105e55780601f106105ba576101008083540402835291602001916105e5565b600081565b6000610603610a41610b96565b8461068b856040518060600160405280602581526020016117a26025913960026000610a6b610b96565b6001600160a01b03908116825260208083019390935260409182016000908120918d16815292529020549190610dd1565b6000610603610aa9610b96565b8484610c86565b6000818152602081905260408120610607906112ab565b7f9f2df0fed2c77648de5860a4cc508cd0818c85b8b8a1ab4ceeef8d981c8956a681565b600082815260208190526040902060020154610b09906106cd610b96565b61077b5760405162461bcd60e51b815260040180806020018281038252603081526020018061160f6030913960400191505060405180910390fd5b6001600160a01b03918216600090815260026020908152604080832093909416825291909152205490565b60008051602061166783398151915281565b60006109af836001600160a01b0384166112b6565b3390565b6001600160a01b038316610bdf5760405162461bcd60e51b81526004018080602001828103825260248152602001806117476024913960400191505060405180910390fd5b6001600160a01b038216610c245760405162461bcd60e51b81526004018080602001828103825260228152602001806115c76022913960400191505060405180910390fd5b6001600160a01b03808416600081815260026020908152604080832094871680845294825291829020859055815185815291517f8c5be1e5ebec7d5bd14f71427d1e84f3dd0314c0f7b2291e5b200ac8c7c3b9259281900390910190a3505050565b6001600160a01b038316610ccb5760405162461bcd60e51b81526004018080602001828103825260258152602001806117226025913960400191505060405180910390fd5b6001600160a01b038216610d105760405162461bcd60e51b815260040180806020018281038252602381526020018061151a6023913960400191505060405180910390fd5b610d1b838383611300565b610d58816040518060600160405280602681526020016115e9602691396001600160a01b0386166000908152600160205260409020549190610dd1565b6001600160a01b038085166000908152600160205260408082209390935590841681522054610d879082610f3a565b6001600160a01b0380841660008181526001602090815260409182902094909455805185815290519193928716926000805160206116e183398151915292918290030190a3505050565b60008184841115610e605760405162461bcd60e51b81526004018080602001828103825283818151815260200191508051906020019080838360005b83811015610e25578181015183820152602001610e0d565b50505050905090810190601f168015610e525780820380516001836020036101000a031916815260200191505b509250505060405180910390fd5b505050900390565b6000828152602081905260409020610e809082610b81565b1561071757610e8d610b96565b6001600160a01b0316816001600160a01b0316837f2f8788117e7eff1d82e926ec794901d17c78024a50270940304540a733656f0d60405160405180910390a45050565b6000828152602081905260409020610ee9908261130b565b1561071757610ef6610b96565b6001600160a01b0316816001600160a01b0316837ff6391f5c32d9c69d2a47ea670b442974b53935d1edc7fd64eb21e047a839171b60405160405180910390a45050565b6000828201838110156109af576040805162461bcd60e51b815260206004820152601b60248201527f536166654d6174683a206164646974696f6e206f766572666c6f770000000000604482015290519081900360640190fd5b600654610100900460ff16610fe7576040805162461bcd60e51b815260206004820152601460248201527314185d5cd8589b194e881b9bdd081c185d5cd95960621b604482015290519081900360640190fd5b6006805461ff00191690557f5db9ee0a495bf2e6ff9c91a7834c1ba4fdd244a5e8aa4e537bd38aeae4b073aa61101b610b96565b604080516001600160a01b039092168252519081900360200190a1565b6001600160a01b038216611093576040805162461bcd60e51b815260206004820152601f60248201527f45524332303a206d696e7420746f20746865207a65726f206164647265737300604482015290519081900360640190fd5b61109f60008383611300565b6003546110ac9082610f3a565b6003556001600160a01b0382166000908152600160205260409020546110d29082610f3a565b6001600160a01b03831660008181526001602090815260408083209490945583518581529351929391926000805160206116e18339815191529281900390910190a35050565b6001600160a01b03821661115d5760405162461bcd60e51b81526004018080602001828103825260218152602001806117016021913960400191505060405180910390fd5b61116982600083611300565b6111a68160405180606001604052806022815260200161156c602291396001600160a01b0385166000908152600160205260409020549190610dd1565b6001600160a01b0383166000908152600160205260409020556003546111cc9082611320565b6003556040805182815290516000916001600160a01b038516916000805160206116e18339815191529181900360200190a35050565b600654610100900460ff1615611252576040805162461bcd60e51b815260206004820152601060248201526f14185d5cd8589b194e881c185d5cd95960821b604482015290519081900360640190fd5b6006805461ff0019166101001790557f62e78cea01bee320cd4e420270b5ea74000d11b0c9f74754ebdbfc544b05a25861101b610b96565b60006109af8383611362565b60006109af836001600160a01b0384166113c6565b6000610607826113de565b60006112c283836113c6565b6112f857508154600181810184556000848152602080822090930184905584548482528286019093526040902091909155610607565b506000610607565b6109358383836113e2565b60006109af836001600160a01b038416611431565b60006109af83836040518060400160405280601e81526020017f536166654d6174683a207375627472616374696f6e206f766572666c6f770000815250610dd1565b815460009082106113a45760405162461bcd60e51b81526004018080602001828103825260228152602001806114f86022913960400191505060405180910390fd5b8260000182815481106113b357fe5b9060005260206000200154905092915050565b60009081526001919091016020526040902054151590565b5490565b6113ed838383610935565b6113f56108b7565b156109355760405162461bcd60e51b815260040180806020018281038252602a8152602001806117f6602a913960400191505060405180910390fd5b600081815260018301602052604081205480156114ed578354600019808301919081019060009087908390811061146457fe5b906000526020600020015490508087600001848154811061148157fe5b6000918252602080832090910192909255828152600189810190925260409020908401905586548790806114b157fe5b60019003818190600052602060002001600090559055866001016000878152602001908152602001600020600090556001945050505050610607565b600091505061060756fe456e756d657261626c655365743a20696e646578206f7574206f6620626f756e647345524332303a207472616e7366657220746f20746865207a65726f2061646472657373416363657373436f6e74726f6c3a2073656e646572206d75737420626520616e2061646d696e20746f206772616e7445524332303a206275726e20616d6f756e7420657863656564732062616c616e636545524332305072657365744d696e7465725061757365723a206d75737420686176652070617573657220726f6c6520746f20756e706175736545524332303a20617070726f766520746f20746865207a65726f206164647265737345524332303a207472616e7366657220616d6f756e7420657863656564732062616c616e6365416363657373436f6e74726f6c3a2073656e646572206d75737420626520616e2061646d696e20746f207265766f6b6545524332303a207472616e7366657220616d6f756e74206578636565647320616c6c6f77616e636565d7a28e3265b37a6474929f336521b332c1681b933f6cb9f3376673440d862a45524332305072657365744d696e7465725061757365723a206d7573742068617665206d696e74657220726f6c6520746f206d696e7445524332303a206275726e20616d6f756e74206578636565647320616c6c6f77616e6365ddf252ad1be2c89b69c2b068fc378daa952ba7f163c4a11628f55a4df523b3ef45524332303a206275726e2066726f6d20746865207a65726f206164647265737345524332303a207472616e736665722066726f6d20746865207a65726f206164647265737345524332303a20617070726f76652066726f6d20746865207a65726f206164647265737345524332305072657365744d696e7465725061757365723a206d75737420686176652070617573657220726f6c6520746f20706175736545524332303a2064656372656173656420616c6c6f77616e63652062656c6f77207a65726f416363657373436f6e74726f6c3a2063616e206f6e6c792072656e6f756e636520726f6c657320666f722073656c6645524332305061757361626c653a20746f6b656e207472616e73666572207768696c6520706175736564a26469706673582212206130014f97dbd16fd03646e95b4536191f4361184f9662a1f152d08acc1c3a1164736f6c634300060c00334f776e61626c653a206e6577206f776e657220697320746865207a65726f2061646472657373546f6b656e206e6f7420616c6c6f7765642062792074686520534c41526567697374727920636f6e747261637443616e206f6e6c7920636c61696d206120636f6d70656e736174696f6e20696620706f736974696f6e20697320626967676572207468616e2030536166654d6174683a206d756c7469706c69636174696f6e206f766572666c6f774f776e61626c653a2063616c6c6572206973206e6f7420746865206f776e65725361666545524332303a204552433230206f7065726174696f6e20646964206e6f74207375636365656453686f756c64206e6f742062652063616c6c65642062792074686520534c41206f776e6572a264697066735822122070208be8f5338831e0174212b59e71316c921dce1dab45a942567f916254495864736f6c634300060c003360806040523480156200001157600080fd5b5060405162001c7638038062001c76833981810160405260408110156200003757600080fd5b81019080805160405193929190846401000000008211156200005857600080fd5b9083019060208201858111156200006e57600080fd5b82516401000000008111828201881017156200008957600080fd5b82525081516020918201929091019080838360005b83811015620000b85781810151838201526020016200009e565b50505050905090810190601f168015620000e65780820380516001836020036101000a031916815260200191505b50604052602001805160405193929190846401000000008211156200010a57600080fd5b9083019060208201858111156200012057600080fd5b82516401000000008111828201881017156200013b57600080fd5b82525081516020918201929091019080838360005b838110156200016a57818101518382015260200162000150565b50505050905090810190601f168015620001985780820380516001836020036101000a031916815260200191505b50604052505082518391508290620001b890600490602085019062000375565b508051620001ce90600590602084019062000375565b50506006805461ff001960ff1990911660121716905550620001fb6000620001f562000261565b62000265565b6200022a7f9f2df0fed2c77648de5860a4cc508cd0818c85b8b8a1ab4ceeef8d981c8956a6620001f562000261565b620002597f65d7a28e3265b37a6474929f336521b332c1681b933f6cb9f3376673440d862a620001f562000261565b505062000411565b3390565b62000271828262000275565b5050565b6000828152602081815260409091206200029a91839062000b81620002ee821b17901c565b156200027157620002aa62000261565b6001600160a01b0316816001600160a01b0316837f2f8788117e7eff1d82e926ec794901d17c78024a50270940304540a733656f0d60405160405180910390a45050565b600062000305836001600160a01b0384166200030e565b90505b92915050565b60006200031c83836200035d565b620003545750815460018181018455600084815260208082209093018490558454848252828601909352604090209190915562000308565b50600062000308565b60009081526001919091016020526040902054151590565b828054600181600116156101000203166002900490600052602060002090601f016020900481019282601f10620003b857805160ff1916838001178555620003e8565b82800160010185558215620003e8579182015b82811115620003e8578251825591602001919060010190620003cb565b50620003f6929150620003fa565b5090565b5b80821115620003f65760008155600101620003fb565b61185580620004216000396000f3fe608060405234801561001057600080fd5b50600436106101795760003560e01c806370a08231116100d9578063a457c2d711610087578063a457c2d71461047a578063a9059cbb146104a6578063ca15c873146104d2578063d5391393146104ef578063d547741f146104f7578063dd62ed3e14610523578063e63ab1e91461055157610179565b806370a08231146103a557806379cc6790146103cb5780638456cb59146103f75780639010d07c146103ff57806391d148541461043e57806395d89b411461046a578063a217fddf1461047257610179565b8063313ce56711610136578063313ce567146102d657806336568abe146102f457806339509351146103205780633f4ba83a1461034c57806340c10f191461035457806342966c68146103805780635c975abb1461039d57610179565b806306fdde031461017e578063095ea7b3146101fb57806318160ddd1461023b57806323b872dd14610255578063248a9ca31461028b5780632f2ff15d146102a8575b600080fd5b610186610559565b6040805160208082528351818301528351919283929083019185019080838360005b838110156101c05781810151838201526020016101a8565b50505050905090810190601f1680156101ed5780820380516001836020036101000a031916815260200191505b509250505060405180910390f35b6102276004803603604081101561021157600080fd5b506001600160a01b0381351690602001356105ef565b604080519115158252519081900360200190f35b61024361060d565b60408051918252519081900360200190f35b6102276004803603606081101561026b57600080fd5b506001600160a01b03813581169160208101359091169060400135610613565b610243600480360360208110156102a157600080fd5b503561069a565b6102d4600480360360408110156102be57600080fd5b50803590602001356001600160a01b03166106af565b005b6102de61071b565b6040805160ff9092168252519081900360200190f35b6102d46004803603604081101561030a57600080fd5b50803590602001356001600160a01b0316610724565b6102276004803603604081101561033657600080fd5b506001600160a01b038135169060200135610785565b6102d46107d3565b6102d46004803603604081101561036a57600080fd5b506001600160a01b038135169060200135610832565b6102d46004803603602081101561039657600080fd5b50356108a3565b6102276108b7565b610243600480360360208110156103bb57600080fd5b50356001600160a01b03166108c5565b6102d4600480360360408110156103e157600080fd5b506001600160a01b0381351690602001356108e0565b6102d461093a565b6104226004803603604081101561041557600080fd5b5080359060200135610997565b604080516001600160a01b039092168252519081900360200190f35b6102276004803603604081101561045457600080fd5b50803590602001356001600160a01b03166109b6565b6101866109ce565b610243610a2f565b6102276004803603604081101561049057600080fd5b506001600160a01b038135169060200135610a34565b610227600480360360408110156104bc57600080fd5b506001600160a01b038135169060200135610a9c565b610243600480360360208110156104e857600080fd5b5035610ab0565b610243610ac7565b6102d46004803603604081101561050d57600080fd5b50803590602001356001600160a01b0316610aeb565b6102436004803603604081101561053957600080fd5b506001600160a01b0381358116916020013516610b44565b610243610b6f565b60048054604080516020601f60026000196101006001881615020190951694909404938401819004810282018101909252828152606093909290918301828280156105e55780601f106105ba576101008083540402835291602001916105e5565b820191906000526020600020905b8154815290600101906020018083116105c857829003601f168201915b5050505050905090565b60006106036105fc610b96565b8484610b9a565b5060015b92915050565b60035490565b6000610620848484610c86565b6106908461062c610b96565b61068b8560405180606001604052806028815260200161163f602891396001600160a01b038a1660009081526002602052604081209061066a610b96565b6001600160a01b031681526020810191909152604001600020549190610dd1565b610b9a565b5060019392505050565b60009081526020819052604090206002015490565b6000828152602081905260409020600201546106d2906106cd610b96565b6109b6565b61070d5760405162461bcd60e51b815260040180806020018281038252602f81526020018061153d602f913960400191505060405180910390fd5b6107178282610e68565b5050565b60065460ff1690565b61072c610b96565b6001600160a01b0316816001600160a01b03161461077b5760405162461bcd60e51b815260040180806020018281038252602f8152602001806117c7602f913960400191505060405180910390fd5b6107178282610ed1565b6000610603610792610b96565b8461068b85600260006107a3610b96565b6001600160a01b03908116825260208083019390935260409182016000908120918c168152925290205490610f3a565b6107ed6000805160206116678339815191526106cd610b96565b6108285760405162461bcd60e51b815260040180806020018281038252603981526020018061158e6039913960400191505060405180910390fd5b610830610f94565b565b61085e7f9f2df0fed2c77648de5860a4cc508cd0818c85b8b8a1ab4ceeef8d981c8956a66106cd610b96565b6108995760405162461bcd60e51b81526004018080602001828103825260368152602001806116876036913960400191505060405180910390fd5b6107178282611038565b6108b46108ae610b96565b82611118565b50565b600654610100900460ff1690565b6001600160a01b031660009081526001602052604090205490565b6000610917826040518060600160405280602481526020016116bd602491396109108661090b610b96565b610b44565b9190610dd1565b905061092b83610925610b96565b83610b9a565b6109358383611118565b505050565b6109546000805160206116678339815191526106cd610b96565b61098f5760405162461bcd60e51b815260040180806020018281038252603781526020018061176b6037913960400191505060405180910390fd5b610830611202565b60008281526020819052604081206109af908361128a565b9392505050565b60008281526020819052604081206109af9083611296565b60058054604080516020601f60026000196101006001881615020190951694909404938401819004810282018101909252828152606093909290918301828280156105e55780601f106105ba576101008083540402835291602001916105e5565b600081565b6000610603610a41610b96565b8461068b856040518060600160405280602581526020016117a26025913960026000610a6b610b96565b6001600160a01b03908116825260208083019390935260409182016000908120918d16815292529020549190610dd1565b6000610603610aa9610b96565b8484610c86565b6000818152602081905260408120610607906112ab565b7f9f2df0fed2c77648de5860a4cc508cd0818c85b8b8a1ab4ceeef8d981c8956a681565b600082815260208190526040902060020154610b09906106cd610b96565b61077b5760405162461bcd60e51b815260040180806020018281038252603081526020018061160f6030913960400191505060405180910390fd5b6001600160a01b03918216600090815260026020908152604080832093909416825291909152205490565b60008051602061166783398151915281565b60006109af836001600160a01b0384166112b6565b3390565b6001600160a01b038316610bdf5760405162461bcd60e51b81526004018080602001828103825260248152602001806117476024913960400191505060405180910390fd5b6001600160a01b038216610c245760405162461bcd60e51b81526004018080602001828103825260228152602001806115c76022913960400191505060405180910390fd5b6001600160a01b03808416600081815260026020908152604080832094871680845294825291829020859055815185815291517f8c5be1e5ebec7d5bd14f71427d1e84f3dd0314c0f7b2291e5b200ac8c7c3b9259281900390910190a3505050565b6001600160a01b038316610ccb5760405162461bcd60e51b81526004018080602001828103825260258152602001806117226025913960400191505060405180910390fd5b6001600160a01b038216610d105760405162461bcd60e51b815260040180806020018281038252602381526020018061151a6023913960400191505060405180910390fd5b610d1b838383611300565b610d58816040518060600160405280602681526020016115e9602691396001600160a01b0386166000908152600160205260409020549190610dd1565b6001600160a01b038085166000908152600160205260408082209390935590841681522054610d879082610f3a565b6001600160a01b0380841660008181526001602090815260409182902094909455805185815290519193928716926000805160206116e183398151915292918290030190a3505050565b60008184841115610e605760405162461bcd60e51b81526004018080602001828103825283818151815260200191508051906020019080838360005b83811015610e25578181015183820152602001610e0d565b50505050905090810190601f168015610e525780820380516001836020036101000a031916815260200191505b509250505060405180910390fd5b505050900390565b6000828152602081905260409020610e809082610b81565b1561071757610e8d610b96565b6001600160a01b0316816001600160a01b0316837f2f8788117e7eff1d82e926ec794901d17c78024a50270940304540a733656f0d60405160405180910390a45050565b6000828152602081905260409020610ee9908261130b565b1561071757610ef6610b96565b6001600160a01b0316816001600160a01b0316837ff6391f5c32d9c69d2a47ea670b442974b53935d1edc7fd64eb21e047a839171b60405160405180910390a45050565b6000828201838110156109af576040805162461bcd60e51b815260206004820152601b60248201527f536166654d6174683a206164646974696f6e206f766572666c6f770000000000604482015290519081900360640190fd5b600654610100900460ff16610fe7576040805162461bcd60e51b815260206004820152601460248201527314185d5cd8589b194e881b9bdd081c185d5cd95960621b604482015290519081900360640190fd5b6006805461ff00191690557f5db9ee0a495bf2e6ff9c91a7834c1ba4fdd244a5e8aa4e537bd38aeae4b073aa61101b610b96565b604080516001600160a01b039092168252519081900360200190a1565b6001600160a01b038216611093576040805162461bcd60e51b815260206004820152601f60248201527f45524332303a206d696e7420746f20746865207a65726f206164647265737300604482015290519081900360640190fd5b61109f60008383611300565b6003546110ac9082610f3a565b6003556001600160a01b0382166000908152600160205260409020546110d29082610f3a565b6001600160a01b03831660008181526001602090815260408083209490945583518581529351929391926000805160206116e18339815191529281900390910190a35050565b6001600160a01b03821661115d5760405162461bcd60e51b81526004018080602001828103825260218152602001806117016021913960400191505060405180910390fd5b61116982600083611300565b6111a68160405180606001604052806022815260200161156c602291396001600160a01b0385166000908152600160205260409020549190610dd1565b6001600160a01b0383166000908152600160205260409020556003546111cc9082611320565b6003556040805182815290516000916001600160a01b038516916000805160206116e18339815191529181900360200190a35050565b600654610100900460ff1615611252576040805162461bcd60e51b815260206004820152601060248201526f14185d5cd8589b194e881c185d5cd95960821b604482015290519081900360640190fd5b6006805461ff0019166101001790557f62e78cea01bee320cd4e420270b5ea74000d11b0c9f74754ebdbfc544b05a25861101b610b96565b60006109af8383611362565b60006109af836001600160a01b0384166113c6565b6000610607826113de565b60006112c283836113c6565b6112f857508154600181810184556000848152602080822090930184905584548482528286019093526040902091909155610607565b506000610607565b6109358383836113e2565b60006109af836001600160a01b038416611431565b60006109af83836040518060400160405280601e81526020017f536166654d6174683a207375627472616374696f6e206f766572666c6f770000815250610dd1565b815460009082106113a45760405162461bcd60e51b81526004018080602001828103825260228152602001806114f86022913960400191505060405180910390fd5b8260000182815481106113b357fe5b9060005260206000200154905092915050565b60009081526001919091016020526040902054151590565b5490565b6113ed838383610935565b6113f56108b7565b156109355760405162461bcd60e51b815260040180806020018281038252602a8152602001806117f6602a913960400191505060405180910390fd5b600081815260018301602052604081205480156114ed578354600019808301919081019060009087908390811061146457fe5b906000526020600020015490508087600001848154811061148157fe5b6000918252602080832090910192909255828152600189810190925260409020908401905586548790806114b157fe5b60019003818190600052602060002001600090559055866001016000878152602001908152602001600020600090556001945050505050610607565b600091505061060756fe456e756d657261626c655365743a20696e646578206f7574206f6620626f756e647345524332303a207472616e7366657220746f20746865207a65726f2061646472657373416363657373436f6e74726f6c3a2073656e646572206d75737420626520616e2061646d696e20746f206772616e7445524332303a206275726e20616d6f756e7420657863656564732062616c616e636545524332305072657365744d696e7465725061757365723a206d75737420686176652070617573657220726f6c6520746f20756e706175736545524332303a20617070726f766520746f20746865207a65726f206164647265737345524332303a207472616e7366657220616d6f756e7420657863656564732062616c616e6365416363657373436f6e74726f6c3a2073656e646572206d75737420626520616e2061646d696e20746f207265766f6b6545524332303a207472616e7366657220616d6f756e74206578636565647320616c6c6f77616e636565d7a28e3265b37a6474929f336521b332c1681b933f6cb9f3376673440d862a45524332305072657365744d696e7465725061757365723a206d7573742068617665206d696e74657220726f6c6520746f206d696e7445524332303a206275726e20616d6f756e74206578636565647320616c6c6f77616e6365ddf252ad1be2c89b69c2b068fc378daa952ba7f163c4a11628f55a4df523b3ef45524332303a206275726e2066726f6d20746865207a65726f206164647265737345524332303a207472616e736665722066726f6d20746865207a65726f206164647265737345524332303a20617070726f76652066726f6d20746865207a65726f206164647265737345524332305072657365744d696e7465725061757365723a206d75737420686176652070617573657220726f6c6520746f20706175736545524332303a2064656372656173656420616c6c6f77616e63652062656c6f77207a65726f416363657373436f6e74726f6c3a2063616e206f6e6c792072656e6f756e636520726f6c657320666f722073656c6645524332305061757361626c653a20746f6b656e207472616e73666572207768696c6520706175736564a26469706673582212206130014f97dbd16fd03646e95b4536191f4361184f9662a1f152d08acc1c3a1164736f6c634300060c0033",
  "immutableReferences": {},
  "source": "// SPDX-License-Identifier: MIT\npragma solidity ^0.6.0;\n\nimport \"@openzeppelin/contracts/token/ERC20/ERC20.sol\";\nimport \"@openzeppelin/contracts/token/ERC20/SafeERC20.sol\";\nimport \"@openzeppelin/contracts/presets/ERC20PresetMinterPauser.sol\";\nimport \"@openzeppelin/contracts/access/Ownable.sol\";\nimport \"@openzeppelin/contracts/math/SafeMath.sol\";\nimport \"./StakeRegistry.sol\";\nimport \"./PeriodRegistry.sol\";\nimport \"./StringUtils.sol\";\n\ncontract Staking is Ownable, StringUtils {\n    using SafeMath for uint256;\n    using SafeERC20 for ERC20;\n\n    /// @dev StakeRegistry contract\n    StakeRegistry private stakeRegistry;\n    /// @dev SLARegistry contract\n    PeriodRegistry private periodRegistry;\n    /// @dev current SLA id\n    uint256 public slaID;\n    /// @dev (tokenAddress=>uint256) total pooled token balance\n    mapping(address => uint256) public providerPool;\n    /// @dev (tokenAddress=>uint256) total pooled token balance\n    mapping(address => uint256) public usersPool;\n\n    ///@dev (tokenAddress=>dTokenAddress) to keep track of dToken per token\n    mapping(address => ERC20PresetMinterPauser) public dTokenRegistry;\n\n    ///@dev index to keep a deflationary mint of tokens\n    uint256 public cumulatedDevaluation = 10 * 6;\n    ///@dev to keep track of the precision used to avoid multiplying by 0\n    uint256 internal cumulatedDevaluationPrecision = 10**6;\n\n    /// @dev address[] of the stakers of the SLA contract\n    address[] public stakers;\n    /// @dev DSLA token address to burn fees\n    address public dslaTokenAddress;\n    /// @dev array with the allowed tokens addresses for the current SLA\n    address[] public allowedTokens;\n\n    /// @dev corresponds to the burn rate of DSLA tokens, but divided by 1000 i.e burn percentage = burnRate/1000 %\n    uint256 public DSLAburnRate;\n    /// @dev minimum deposit for Tier 1 staking\n    uint256 public minimumDSLAStakedTier1;\n    /// @dev minimum deposit for Tier 2 staking\n    uint256 public minimumDSLAStakedTier2;\n    /// @dev minimum deposit for Tier 3 staking\n    uint256 public minimumDSLAStakedTier3;\n\n    /// @dev PeriodRegistry period type of the SLA contract\n    PeriodRegistry.PeriodType private periodType;\n    /// @dev length of the _periodIds array, to state effective APY\n    uint256 public slaPeriodsLength;\n\n    /// @dev boolean to declare if contract is whitelisted\n    bool public whitelistedContract;\n    /// @dev (userAddress=bool) to declare whitelisted addresses\n    mapping(address => bool) public whitelist;\n\n    modifier notOwner {\n        require(msg.sender != owner(), \"Should not be called by the SLA owner\");\n        _;\n    }\n\n    modifier onlyAllowedToken(address _token) {\n        require(isAllowedToken(_token) == true, \"token is not allowed\");\n        _;\n    }\n\n    modifier onlyWhitelisted {\n        if (whitelistedContract == true) {\n            require(whitelist[msg.sender] == true, \"User is not whitelisted\");\n        }\n        _;\n    }\n\n    /**\n     * @dev event for provider reward log\n     * @param periodId 1. id of the period\n     * @param tokenAddress 2. address of the token\n     * @param rewardPercentage 3. reward percentage for the provider\n     * @param amount 4. amount rewarded\n     */\n    event ProviderRewardGenerated(\n        uint256 indexed periodId,\n        address indexed tokenAddress,\n        uint256 rewardPercentage,\n        uint256 amount\n    );\n\n    /**\n     *@param _stakeRegistry 1. address of the stake registry\n     *@param _periodRegistry 2. address of the period registry\n     *@param _periodType 3. period type of the SLA\n     *@param _slaPeriodsLength 4. length of the SLA periodsId stored on the sla contract\n     *@param _whitelistedContract 5. enables the white list feature\n     *@param _slaID 6. identifies the SLA to uniquely to emit dTokens\n     */\n    constructor(\n        address _stakeRegistry,\n        address _periodRegistry,\n        PeriodRegistry.PeriodType _periodType,\n        uint256 _slaPeriodsLength,\n        bool _whitelistedContract,\n        uint256 _slaID\n    ) public {\n        stakeRegistry = StakeRegistry(_stakeRegistry);\n        periodRegistry = PeriodRegistry(_periodRegistry);\n        periodType = _periodType;\n        slaPeriodsLength = _slaPeriodsLength;\n        whitelistedContract = _whitelistedContract;\n        (\n            uint256 _DSLAburnRate,\n            uint256 _minimumDSLAStakedTier1,\n            uint256 _minimumDSLAStakedTier2,\n            uint256 _minimumDSLAStakedTier3\n        ) = stakeRegistry.getStakingParameters();\n        dslaTokenAddress = stakeRegistry.DSLATokenAddress();\n        DSLAburnRate = _DSLAburnRate;\n        minimumDSLAStakedTier1 = _minimumDSLAStakedTier1;\n        minimumDSLAStakedTier2 = _minimumDSLAStakedTier2;\n        minimumDSLAStakedTier3 = _minimumDSLAStakedTier3;\n        addUserToWhitelist(msg.sender);\n        allowedTokens.push(dslaTokenAddress);\n        slaID = _slaID;\n        string memory dTokenID = _uintToStr(_slaID);\n        string memory dTokenName =\n            string(abi.encodePacked(\"DSLA-DSLA-\", dTokenID));\n        string memory dTokenSymbol =\n            string(abi.encodePacked(\"dDSLA-\", dTokenID));\n        ERC20PresetMinterPauser dDSLA =\n            new ERC20PresetMinterPauser(dTokenName, dTokenSymbol);\n        dTokenRegistry[dslaTokenAddress] = dDSLA;\n    }\n\n    function addUserToWhitelist(address _userAddress) public onlyOwner {\n        require(whitelist[_userAddress] == false, \"User already whitelisted\");\n        whitelist[_userAddress] = true;\n    }\n\n    function removeUserFromWhitelist(address _userAddress) public onlyOwner {\n        require(whitelist[_userAddress] == true, \"User not whitelisted\");\n        whitelist[_userAddress] = false;\n    }\n\n    /**\n     *@dev add a token to ve allowed for staking\n     *@param _tokenAddress 1. address of the new allowed token\n     */\n    function addAllowedTokens(address _tokenAddress) public onlyOwner {\n        require(isAllowedToken(_tokenAddress) == false, \"Token already added\");\n        require(\n            stakeRegistry.isAllowedToken(_tokenAddress) == true,\n            \"Token not allowed by the SLARegistry contract\"\n        );\n        allowedTokens.push(_tokenAddress);\n        string memory dTokenID = _uintToStr(slaID);\n        string memory name = ERC20(_tokenAddress).name();\n        string memory dTokenName =\n            string(abi.encodePacked(\"DSLA-\", name, \"-\", dTokenID));\n        string memory dTokenSymbol =\n            string(abi.encodePacked(\"d\", name, \"-\", dTokenID));\n        ERC20PresetMinterPauser dToken =\n            new ERC20PresetMinterPauser(dTokenName, dTokenSymbol);\n        dTokenRegistry[_tokenAddress] = dToken;\n    }\n\n    /**\n     *@dev increase the amount staked per token\n     *@param _amount 1. amount to be staked\n     *@param _tokenAddress 2. address of the token\n     *@notice providers can stake at any time\n     *@notice users can stake at any time but no more than provider pool\n     */\n    function _stake(uint256 _amount, address _tokenAddress)\n        internal\n        onlyAllowedToken(_tokenAddress)\n        onlyWhitelisted\n    {\n        ERC20(_tokenAddress).safeTransferFrom(\n            msg.sender,\n            address(this),\n            _amount\n        );\n\n        if (msg.sender != owner()) {\n            (uint256 providerStake, uint256 usersStake) =\n                (providerPool[_tokenAddress], usersPool[_tokenAddress]);\n            require(\n                usersStake.add(_amount) <= providerStake,\n                \"Cannot stake more than SLA provider stake\"\n            );\n            usersPool[_tokenAddress] = usersPool[_tokenAddress].add(_amount);\n            // mint dTokens considering net present value respect to first period\n            uint256 dTokenAmount =\n                _amount.mul(cumulatedDevaluationPrecision).div(\n                    cumulatedDevaluation\n                );\n            ERC20PresetMinterPauser dToken = dTokenRegistry[_tokenAddress];\n            dToken.mint(msg.sender, dTokenAmount);\n        } else {\n            // Mint pTokens here\n            providerPool[_tokenAddress] = providerPool[_tokenAddress].add(\n                _amount\n            );\n        }\n        if (!isStaker(msg.sender)) {\n            stakers.push(msg.sender);\n        }\n    }\n\n    /**\n     *@dev withdraw staked tokens. Only owner can withdraw,\n     * users have to claim compensations if available\n     *@param _amount 1. amount to withdraw\n     *@param _tokenAddress 2. address of the token\n     */\n    function _withdraw(uint256 _amount, address _tokenAddress)\n        internal\n        onlyAllowedToken(_tokenAddress)\n        onlyOwner\n    {\n        uint256 providerStake = providerPool[_tokenAddress];\n        uint256 usersStake = usersPool[_tokenAddress];\n        require(\n            providerStake.sub(_amount) >= usersStake,\n            \"Should not withdraw more than users stake\"\n        );\n        // Burn pTokens\n        providerPool[_tokenAddress] = providerPool[_tokenAddress].sub(_amount);\n        ERC20(_tokenAddress).safeTransfer(msg.sender, _amount);\n    }\n\n    /**\n     *@dev sets the provider reward\n     *@notice it calculates the usersStake and calculates the provider reward from it.\n     * @param _periodId 1. id of the period\n     * @param _rewardPercentage to calculate the provider reward\n     * @param _precision used to avoid getting 0 after division in the SLA's registerSLI function\n     */\n    function _setRespectedPeriodReward(\n        uint256 _periodId,\n        uint256 _rewardPercentage,\n        uint256 _precision\n    ) internal {\n        for (uint256 index = 0; index < allowedTokens.length; index++) {\n            address tokenAddress = allowedTokens[index];\n            uint256 usersStake = usersPool[tokenAddress];\n            uint256 reward =\n                usersStake.mul(_rewardPercentage).div(100 * _precision);\n\n            // Subtract before burn to match balances\n            usersPool[tokenAddress] = usersPool[tokenAddress].sub(reward);\n\n            if (tokenAddress == dslaTokenAddress) {\n                uint256 fees = _burnDSLATokens(reward);\n                reward = reward.sub(fees);\n            }\n\n            // Add after burn to match balances\n            providerPool[tokenAddress] = providerPool[tokenAddress].add(reward);\n\n            emit ProviderRewardGenerated(\n                _periodId,\n                tokenAddress,\n                _rewardPercentage,\n                reward\n            );\n        }\n        // update cumulativeDevaluation to increase dTokens generation over time\n        // decimalReward: the decimal proportion of rewards, e.g. 0.05)\n        // rewardPercentage = precision * decimal\n        // Then, by definition:\n        // cumulatedDevaluation = cumulatedDevaluation*(1-decimalReward)\n        // cumulatedDevaluation = cumulatedDevaluation*(1-decimalReward)*precision/precision\n        // Finally\n        // cumulatedDevaluation = cumulatedDevaluation*(precision-rewardPercentage)/precision\n        cumulatedDevaluation = cumulatedDevaluation\n            .mul(_precision - _rewardPercentage)\n            .div(_precision);\n    }\n\n    /**\n     *@dev sets the users compensation pool\n     *@notice it calculates the usersStake and calculates the users compensation from it\n     */\n    function _setUsersCompensation() internal {\n        for (uint256 index = 0; index < allowedTokens.length; index++) {\n            address tokenAddress = allowedTokens[index];\n            uint256 usersStake = usersPool[tokenAddress];\n            uint256 compensation = usersStake;\n            // Subtract before burn to match balances\n            providerPool[tokenAddress] = providerPool[tokenAddress].sub(\n                compensation\n            );\n\n            if (tokenAddress == dslaTokenAddress) {\n                uint256 fees = _burnDSLATokens(compensation);\n                compensation = compensation.sub(fees);\n            }\n\n            // Add after burn to match balances\n            usersPool[tokenAddress] = usersPool[tokenAddress].add(compensation);\n        }\n    }\n\n    /**\n     *@dev claim user compensation. Transfers both the compensation and the user remaining stake.\n     *@param _tokenAddress 1. address of the token to claim compensation\n     *@notice it uses the user position and the user total position per token to check\n     * the proportion of the compensation pool that corresponds to every user\n     */\n    function _claimCompensation(address _tokenAddress)\n        public\n        notOwner\n        onlyWhitelisted\n    {\n        ERC20PresetMinterPauser dToken = dTokenRegistry[_tokenAddress];\n        uint256 dTokenBalance = dToken.balanceOf(msg.sender);\n        uint256 dTokenSupply = dToken.totalSupply();\n        uint256 precision = 10000;\n        require(\n            dTokenBalance > 0,\n            \"Can only claim a compensation if position is bigger than 0\"\n        );\n\n        uint256 userCompensationPercentage =\n            dTokenBalance.mul(precision).div(dTokenSupply);\n        uint256 userCompensation =\n            usersPool[_tokenAddress].mul(userCompensationPercentage).div(\n                precision\n            );\n        dToken.burn(dTokenBalance);\n        ERC20(_tokenAddress).safeTransfer(msg.sender, userCompensation);\n    }\n\n    function _burnDSLATokens(uint256 _amount) internal returns (uint256 fees) {\n        bytes4 BURN_SELECTOR = bytes4(keccak256(bytes(\"burn(uint256)\")));\n        fees = _amount.mul(DSLAburnRate).div(1000);\n        (bool _success, ) =\n            dslaTokenAddress.call(abi.encodeWithSelector(BURN_SELECTOR, fees));\n        require(_success, \"DSLA burn process was not successful\");\n    }\n\n    /**\n     *@dev returns true if the _staker address is registered as staker\n     *@param _staker 1. staker address\n     *@return true if address is staker\n     */\n    function isStaker(address _staker) public view returns (bool) {\n        for (uint256 index = 0; index < stakers.length; index++) {\n            if (stakers[index] == _staker) return true;\n        }\n        return false;\n    }\n\n    /**\n     *@dev use this function to evaluate the length of the allowed tokens length\n     *@return allowedTokens.length\n     */\n    function getAllowedTokensLength() public view returns (uint256) {\n        return allowedTokens.length;\n    }\n\n    function getTokenStake(address _staker, uint256 _allowedTokenIndex)\n        public\n        view\n        returns (address tokenAddress, uint256 stake)\n    {\n        address allowedTokenAddress = allowedTokens[_allowedTokenIndex];\n        if (_staker == owner()) {\n            return (allowedTokenAddress, providerPool[allowedTokenAddress]);\n        } else {\n            ERC20PresetMinterPauser dToken =\n                dTokenRegistry[allowedTokenAddress];\n            uint256 dTokenBalance = dToken.balanceOf(msg.sender);\n            uint256 dTokenSupply = dToken.totalSupply();\n            uint256 precision = 10000;\n            uint256 userCompensationPercentage =\n                dTokenBalance.mul(precision).div(dTokenSupply);\n            return (\n                allowedTokenAddress,\n                usersPool[allowedTokenAddress]\n                    .mul(userCompensationPercentage)\n                    .div(precision)\n            );\n        }\n    }\n\n    /**\n     *@dev checks in the allowedTokens array if there's a token with _tokenAddress value\n     *@param _tokenAddress 1. token address to check exixtence\n     *@return true if _tokenAddress exists in the allowedTokens array\n     */\n    function isAllowedToken(address _tokenAddress) public view returns (bool) {\n        for (uint256 index = 0; index < allowedTokens.length; index++) {\n            if (allowedTokens[index] == _tokenAddress) {\n                return true;\n            }\n        }\n        return false;\n    }\n}\n",
  "sourcePath": "/Users/matiasbn/Desktop/stacktical/stacktical-dsla-contracts/contracts/Staking.sol",
  "compiler": {
    "name": "solc",
    "version": "0.6.12+commit.27d51765.Emscripten.clang"
  },
  "schemaVersion": "3.3.3",
  "updatedAt": "2021-02-23T21:33:54.408Z",
  "devdoc": {
    "events": {
      "ProviderRewardGenerated(uint256,address,uint256,uint256)": {
        "details": "event for provider reward log",
        "params": {
          "amount": "4. amount rewarded",
          "periodId": "1. id of the period",
          "rewardPercentage": "3. reward percentage for the provider",
          "tokenAddress": "2. address of the token"
        }
      }
    },
    "kind": "dev",
    "methods": {
      "_claimCompensation(address)": {
        "details": "claim user compensation. Transfers both the compensation and the user remaining stake.",
        "params": {
          "_tokenAddress": "1. address of the token to claim compensation"
        }
      },
      "addAllowedTokens(address)": {
        "details": "add a token to ve allowed for staking",
        "params": {
          "_tokenAddress": "1. address of the new allowed token"
        }
      },
      "constructor": {
        "params": {
          "_periodRegistry": "2. address of the period registry",
          "_periodType": "3. period type of the SLA",
          "_slaID": "6. identifies the SLA to uniquely to emit dTokens",
          "_slaPeriodsLength": "4. length of the SLA periodsId stored on the sla contract",
          "_stakeRegistry": "1. address of the stake registry",
          "_whitelistedContract": "5. enables the white list feature"
        }
      },
      "getAllowedTokensLength()": {
        "details": "use this function to evaluate the length of the allowed tokens length",
        "returns": {
          "_0": "allowedTokens.length"
        }
      },
      "isAllowedToken(address)": {
        "details": "checks in the allowedTokens array if there's a token with _tokenAddress value",
        "params": {
          "_tokenAddress": "1. token address to check exixtence"
        },
        "returns": {
          "_0": "true if _tokenAddress exists in the allowedTokens array"
        }
      },
      "isStaker(address)": {
        "details": "returns true if the _staker address is registered as staker",
        "params": {
          "_staker": "1. staker address"
        },
        "returns": {
          "_0": "true if address is staker"
        }
      },
      "owner()": {
        "details": "Returns the address of the current owner."
      },
      "renounceOwnership()": {
        "details": "Leaves the contract without owner. It will not be possible to call `onlyOwner` functions anymore. Can only be called by the current owner. NOTE: Renouncing ownership will leave the contract without an owner, thereby removing any functionality that is only available to the owner."
      },
      "transferOwnership(address)": {
        "details": "Transfers ownership of the contract to a new account (`newOwner`). Can only be called by the current owner."
      }
    },
    "stateVariables": {
      "DSLAburnRate": {
        "details": "corresponds to the burn rate of DSLA tokens, but divided by 1000 i.e burn percentage = burnRate/1000 %"
      },
      "allowedTokens": {
        "details": "array with the allowed tokens addresses for the current SLA"
      },
      "cumulatedDevaluation": {
        "details": "index to keep a deflationary mint of tokens"
      },
      "cumulatedDevaluationPrecision": {
        "details": "to keep track of the precision used to avoid multiplying by 0"
      },
      "dTokenRegistry": {
        "details": "(tokenAddress=>dTokenAddress) to keep track of dToken per token"
      },
      "dslaTokenAddress": {
        "details": "DSLA token address to burn fees"
      },
      "minimumDSLAStakedTier1": {
        "details": "minimum deposit for Tier 1 staking"
      },
      "minimumDSLAStakedTier2": {
        "details": "minimum deposit for Tier 2 staking"
      },
      "minimumDSLAStakedTier3": {
        "details": "minimum deposit for Tier 3 staking"
      },
      "periodRegistry": {
        "details": "SLARegistry contract"
      },
      "periodType": {
        "details": "PeriodRegistry period type of the SLA contract"
      },
      "providerPool": {
        "details": "(tokenAddress=>uint256) total pooled token balance"
      },
      "slaID": {
        "details": "current SLA id"
      },
      "slaPeriodsLength": {
        "details": "length of the _periodIds array, to state effective APY"
      },
      "stakeRegistry": {
        "details": "StakeRegistry contract"
      },
      "stakers": {
        "details": "address[] of the stakers of the SLA contract"
      },
      "usersPool": {
        "details": "(tokenAddress=>uint256) total pooled token balance"
      },
      "whitelist": {
        "details": "(userAddress=bool) to declare whitelisted addresses"
      },
      "whitelistedContract": {
        "details": "boolean to declare if contract is whitelisted"
      }
    },
    "version": 1
  },
  "userdoc": {
    "kind": "user",
    "methods": {
      "_claimCompensation(address)": {
        "notice": "it uses the user position and the user total position per token to check the proportion of the compensation pool that corresponds to every user"
      }
    },
    "version": 1
  }
}