{
  "contractName": "Staking",
  "abi": [
    {
      "inputs": [
        {
          "internalType": "contract bDSLAToken",
          "name": "_tokenAddress",
          "type": "address"
        },
        {
          "internalType": "uint256[]",
          "name": "_sla_period_starts",
          "type": "uint256[]"
        },
        {
          "internalType": "uint256[]",
          "name": "_sla_period_ends",
          "type": "uint256[]"
        },
        {
          "internalType": "address",
          "name": "_owner",
          "type": "address"
        }
      ],
      "stateMutability": "nonpayable",
      "type": "constructor"
    },
    {
      "anonymous": false,
      "inputs": [
        {
          "indexed": true,
          "internalType": "uint256",
          "name": "period_index",
          "type": "uint256"
        }
      ],
      "name": "NewPeriodAdded",
      "type": "event"
    },
    {
      "anonymous": false,
      "inputs": [
        {
          "indexed": true,
          "internalType": "address",
          "name": "previousOwner",
          "type": "address"
        },
        {
          "indexed": true,
          "internalType": "address",
          "name": "newOwner",
          "type": "address"
        }
      ],
      "name": "OwnershipTransferred",
      "type": "event"
    },
    {
      "inputs": [
        {
          "internalType": "uint256",
          "name": "",
          "type": "uint256"
        }
      ],
      "name": "allowedTokens",
      "outputs": [
        {
          "internalType": "address",
          "name": "",
          "type": "address"
        }
      ],
      "stateMutability": "view",
      "type": "function"
    },
    {
      "inputs": [
        {
          "internalType": "address",
          "name": "",
          "type": "address"
        }
      ],
      "name": "allowedTokensMapping",
      "outputs": [
        {
          "internalType": "bool",
          "name": "",
          "type": "bool"
        }
      ],
      "stateMutability": "view",
      "type": "function"
    },
    {
      "inputs": [],
      "name": "bDSLA",
      "outputs": [
        {
          "internalType": "contract bDSLAToken",
          "name": "",
          "type": "address"
        }
      ],
      "stateMutability": "view",
      "type": "function"
    },
    {
      "inputs": [],
      "name": "owner",
      "outputs": [
        {
          "internalType": "address",
          "name": "",
          "type": "address"
        }
      ],
      "stateMutability": "view",
      "type": "function"
    },
    {
      "inputs": [
        {
          "internalType": "uint256",
          "name": "",
          "type": "uint256"
        }
      ],
      "name": "periods",
      "outputs": [
        {
          "internalType": "uint256",
          "name": "sla_period_start",
          "type": "uint256"
        },
        {
          "internalType": "uint256",
          "name": "sla_period_end",
          "type": "uint256"
        },
        {
          "internalType": "uint256",
          "name": "claimed_reward",
          "type": "uint256"
        },
        {
          "internalType": "bool",
          "name": "claimed",
          "type": "bool"
        },
        {
          "internalType": "enum Staking.Status",
          "name": "status",
          "type": "uint8"
        }
      ],
      "stateMutability": "view",
      "type": "function"
    },
    {
      "inputs": [],
      "name": "renounceOwnership",
      "outputs": [],
      "stateMutability": "nonpayable",
      "type": "function"
    },
    {
      "inputs": [
        {
          "internalType": "uint256",
          "name": "",
          "type": "uint256"
        }
      ],
      "name": "stakers",
      "outputs": [
        {
          "internalType": "address",
          "name": "",
          "type": "address"
        }
      ],
      "stateMutability": "view",
      "type": "function"
    },
    {
      "inputs": [],
      "name": "totalStaked",
      "outputs": [
        {
          "internalType": "uint256",
          "name": "",
          "type": "uint256"
        }
      ],
      "stateMutability": "view",
      "type": "function"
    },
    {
      "inputs": [
        {
          "internalType": "address",
          "name": "newOwner",
          "type": "address"
        }
      ],
      "name": "transferOwnership",
      "outputs": [],
      "stateMutability": "nonpayable",
      "type": "function"
    },
    {
      "inputs": [
        {
          "internalType": "address",
          "name": "",
          "type": "address"
        }
      ],
      "name": "uniqueTokensStaked",
      "outputs": [
        {
          "internalType": "uint256",
          "name": "",
          "type": "uint256"
        }
      ],
      "stateMutability": "view",
      "type": "function"
    },
    {
      "inputs": [
        {
          "internalType": "address",
          "name": "",
          "type": "address"
        },
        {
          "internalType": "address",
          "name": "",
          "type": "address"
        }
      ],
      "name": "userStakedTokens",
      "outputs": [
        {
          "internalType": "bool",
          "name": "",
          "type": "bool"
        }
      ],
      "stateMutability": "view",
      "type": "function"
    },
    {
      "inputs": [
        {
          "internalType": "address",
          "name": "",
          "type": "address"
        },
        {
          "internalType": "address",
          "name": "",
          "type": "address"
        }
      ],
      "name": "userStakedTokensIndex",
      "outputs": [
        {
          "internalType": "uint256",
          "name": "",
          "type": "uint256"
        }
      ],
      "stateMutability": "view",
      "type": "function"
    },
    {
      "inputs": [
        {
          "internalType": "address",
          "name": "",
          "type": "address"
        },
        {
          "internalType": "uint256",
          "name": "",
          "type": "uint256"
        }
      ],
      "name": "userStakes",
      "outputs": [
        {
          "internalType": "address",
          "name": "tokenAddress",
          "type": "address"
        },
        {
          "internalType": "uint256",
          "name": "stake",
          "type": "uint256"
        }
      ],
      "stateMutability": "view",
      "type": "function"
    },
    {
      "inputs": [],
      "name": "validator",
      "outputs": [
        {
          "internalType": "address",
          "name": "",
          "type": "address"
        }
      ],
      "stateMutability": "view",
      "type": "function"
    },
    {
      "inputs": [
        {
          "internalType": "uint256",
          "name": "_sla_period_start",
          "type": "uint256"
        },
        {
          "internalType": "uint256",
          "name": "_sla_period_end",
          "type": "uint256"
        }
      ],
      "name": "addNewPeriod",
      "outputs": [],
      "stateMutability": "nonpayable",
      "type": "function"
    },
    {
      "inputs": [
        {
          "internalType": "address",
          "name": "_token",
          "type": "address"
        }
      ],
      "name": "addAllowedTokens",
      "outputs": [],
      "stateMutability": "nonpayable",
      "type": "function"
    },
    {
      "inputs": [
        {
          "internalType": "uint256",
          "name": "_amount",
          "type": "uint256"
        },
        {
          "internalType": "address",
          "name": "_token",
          "type": "address"
        },
        {
          "internalType": "uint256",
          "name": "_period",
          "type": "uint256"
        }
      ],
      "name": "stakeTokens",
      "outputs": [],
      "stateMutability": "nonpayable",
      "type": "function"
    },
    {
      "inputs": [
        {
          "internalType": "address",
          "name": "_token",
          "type": "address"
        },
        {
          "internalType": "uint256",
          "name": "_period",
          "type": "uint256"
        }
      ],
      "name": "withdraw",
      "outputs": [],
      "stateMutability": "nonpayable",
      "type": "function"
    },
    {
      "inputs": [
        {
          "internalType": "address",
          "name": "_token",
          "type": "address"
        },
        {
          "internalType": "uint256",
          "name": "_amount",
          "type": "uint256"
        },
        {
          "internalType": "uint256",
          "name": "_period",
          "type": "uint256"
        }
      ],
      "name": "withdrawAndStake",
      "outputs": [],
      "stateMutability": "nonpayable",
      "type": "function"
    },
    {
      "inputs": [
        {
          "internalType": "uint256",
          "name": "_period",
          "type": "uint256"
        }
      ],
      "name": "claimReward",
      "outputs": [],
      "stateMutability": "nonpayable",
      "type": "function"
    },
    {
      "inputs": [
        {
          "internalType": "uint256",
          "name": "_period",
          "type": "uint256"
        }
      ],
      "name": "claimCompensation",
      "outputs": [],
      "stateMutability": "nonpayable",
      "type": "function"
    },
    {
      "inputs": [
        {
          "internalType": "address",
          "name": "_user",
          "type": "address"
        },
        {
          "internalType": "uint256",
          "name": "_period",
          "type": "uint256"
        }
      ],
      "name": "getUserTotalValue",
      "outputs": [
        {
          "internalType": "uint256",
          "name": "",
          "type": "uint256"
        }
      ],
      "stateMutability": "view",
      "type": "function"
    },
    {
      "inputs": [],
      "name": "stakersCount",
      "outputs": [
        {
          "internalType": "uint256",
          "name": "",
          "type": "uint256"
        }
      ],
      "stateMutability": "view",
      "type": "function"
    },
    {
      "inputs": [
        {
          "internalType": "uint256",
          "name": "_periodId",
          "type": "uint256"
        }
      ],
      "name": "getPeriodData",
      "outputs": [
        {
          "internalType": "uint256",
          "name": "periodStart",
          "type": "uint256"
        },
        {
          "internalType": "uint256",
          "name": "periodEnd",
          "type": "uint256"
        }
      ],
      "stateMutability": "view",
      "type": "function"
    },
    {
      "inputs": [
        {
          "internalType": "address",
          "name": "_owner",
          "type": "address"
        }
      ],
      "name": "getTokenStakeLength",
      "outputs": [
        {
          "internalType": "uint256",
          "name": "",
          "type": "uint256"
        }
      ],
      "stateMutability": "view",
      "type": "function"
    },
    {
      "inputs": [
        {
          "internalType": "address",
          "name": "_owner",
          "type": "address"
        },
        {
          "internalType": "uint256",
          "name": "_index",
          "type": "uint256"
        }
      ],
      "name": "getTokenStake",
      "outputs": [
        {
          "internalType": "address",
          "name": "tokenAddress",
          "type": "address"
        },
        {
          "internalType": "uint256",
          "name": "stake",
          "type": "uint256"
        }
      ],
      "stateMutability": "view",
      "type": "function"
    }
  ],
  "bytecode": "0x60806040523480156200001157600080fd5b506040516200270b3803806200270b833981810160405260808110156200003757600080fd5b8151602083018051604051929492938301929190846401000000008211156200005f57600080fd5b9083019060208201858111156200007557600080fd5b82518660208202830111640100000000821117156200009357600080fd5b82525081516020918201928201910280838360005b83811015620000c2578181015183820152602001620000a8565b5050505090500160405260200180516040519392919084640100000000821115620000ec57600080fd5b9083019060208201858111156200010257600080fd5b82518660208202830111640100000000821117156200012057600080fd5b82525081516020918201928201910280838360005b838110156200014f57818101518382015260200162000135565b505050509190910160405250602001519150600090506200016f620002d8565b600080546001600160a01b0319166001600160a01b0383169081178255604051929350917f8be0079c531659141344cd1fd0a4f28419497f9722a3daafe3b4186f6b6457e0908290a3508151835114620001fb5760405162461bcd60e51b8152600401808060200182810382526029815260200180620026e26029913960400191505060405180910390fd5b600180546001600160a01b038087166001600160a01b031992831617808455600480548086019091557f8a35acfbc15ff81a39ae7d344fd709f28e8600b4aa8c65c6b64bfe7fe36bd19b0180548416918316919091179055825481166000908152600560205260408120805460ff191690941790935560028054918516919092161790555b8351811015620002cd57620002c48482815181106200029b57fe5b6020026020010151848381518110620002b057fe5b6020026020010151620002dc60201b60201c565b60010162000280565b505050505062000553565b3390565b620002e662000517565b828152602081018281526000608083018181526006805460018101825592819052845192027ff652222313e28459528d920b65115c16c04f3efc82aaedc97be59f3f377c0d3f810192835592517ff652222313e28459528d920b65115c16c04f3efc82aaedc97be59f3f377c0d4084015560408401517ff652222313e28459528d920b65115c16c04f3efc82aaedc97be59f3f377c0d4184015560608401517ff652222313e28459528d920b65115c16c04f3efc82aaedc97be59f3f377c0d42909301805493151560ff199094169390931780845590518493909161ff001916610100836002811115620003d657fe5b02179055505050620003fd60016006805490506200042b60201b62001a4f1790919060201c565b6040517ff791e873e3b67fe74b29aeede7bcbbdaa59c4b64e542571183cd837aa56f6ac990600090a2505050565b60006200047583836040518060400160405280601e81526020017f536166654d6174683a207375627472616374696f6e206f766572666c6f7700008152506200047c60201b60201c565b9392505050565b600081848411156200050f5760405162461bcd60e51b81526004018080602001828103825283818151815260200191508051906020019080838360005b83811015620004d3578181015183820152602001620004b9565b50505050905090810190601f168015620005015780820380516001836020036101000a031916815260200191505b509250505060405180910390fd5b505050900390565b6040518060a00160405280600081526020016000815260200160008152602001600015158152602001600060028111156200054e57fe5b905290565b61217f80620005636000396000f3fe608060405234801561001057600080fd5b506004361061016e5760003560e01c80638da5cb5b116100ce578063ea4a110411610087578063ea4a11041461040e578063ec04de481461046a578063f10bd77214610490578063f2fde38b146104bc578063f3fef3a3146104e2578063fc875ece1461050e578063fd5e6dd1146105445761016e565b80638da5cb5b1461035d578063a2e80c5e14610365578063ae169a501461036d578063b5d5b5fa1461038a578063b83e0234146103b6578063cec534d6146103dc5761016e565b806353e85fd51161012b57806353e85fd51461028a57806357ac94f0146102a75780635e5f2e26146102f65780635f4efaba14610313578063715018a61461031b57806375fdf2a914610323578063817b1cd2146103555761016e565b80630e1fcf3414610173578063105237cf14610198578063171e44ea146101d25780631934d0e8146101f85780632eac9787146102265780633a5381b514610266575b600080fd5b6101966004803603604081101561018957600080fd5b5080359060200135610561565b005b6101be600480360360208110156101ae57600080fd5b50356001600160a01b03166105c7565b604080519115158252519081900360200190f35b610196600480360360208110156101e857600080fd5b50356001600160a01b03166105dc565b6101be6004803603604081101561020e57600080fd5b506001600160a01b03813581169160200135166106ff565b6102546004803603604081101561023c57600080fd5b506001600160a01b038135811691602001351661071f565b60408051918252519081900360200190f35b61026e61073c565b604080516001600160a01b039092168252519081900360200190f35b610196600480360360208110156102a057600080fd5b503561074b565b6102d3600480360360408110156102bd57600080fd5b506001600160a01b038135169060200135610a31565b604080516001600160a01b03909316835260208301919091528051918290030190f35b61026e6004803603602081101561030c57600080fd5b5035610ab1565b61026e610ad8565b610196610ae7565b6101966004803603606081101561033957600080fd5b506001600160a01b038135169060208101359060400135610b89565b610254610f78565b61026e610f7e565b610254610f8d565b6101966004803603602081101561038357600080fd5b5035610f93565b6102d3600480360360408110156103a057600080fd5b506001600160a01b03813516906020013561120a565b610254600480360360208110156103cc57600080fd5b50356001600160a01b031661124d565b610196600480360360608110156103f257600080fd5b508035906001600160a01b03602082013516906040013561125f565b61042b6004803603602081101561042457600080fd5b50356114a6565b60405180868152602001858152602001848152602001831515815260200182600281111561045557fe5b81526020019550505050505060405180910390f35b6102546004803603602081101561048057600080fd5b50356001600160a01b03166114e9565b610254600480360360408110156104a657600080fd5b506001600160a01b038135169060200135611508565b610196600480360360208110156104d257600080fd5b50356001600160a01b0316611600565b610196600480360360408110156104f857600080fd5b506001600160a01b0381351690602001356116f8565b61052b6004803603602081101561052457600080fd5b50356119f8565b6040805192835260208301919091528051918290030190f35b61026e6004803603602081101561055a57600080fd5b5035611a42565b610569611a98565b6000546001600160a01b039081169116146105b9576040805162461bcd60e51b815260206004820181905260248201526000805160206120ee833981519152604482015290519081900360640190fd5b6105c38282611a9c565b5050565b60056020526000908152604090205460ff1681565b6105e4611a98565b6000546001600160a01b03908116911614610634576040805162461bcd60e51b815260206004820181905260248201526000805160206120ee833981519152604482015290519081900360640190fd5b6001600160a01b03811660009081526005602052604090205460ff1615610698576040805162461bcd60e51b81526020600482015260136024820152721d1bdad95b88185b1c9958591e481859191959606a1b604482015290519081900360640190fd5b6004805460018181019092557f8a35acfbc15ff81a39ae7d344fd709f28e8600b4aa8c65c6b64bfe7fe36bd19b0180546001600160a01b039093166001600160a01b031990931683179055600091825260056020526040909120805460ff19169091179055565b600a60209081526000928352604080842090915290825290205460ff1681565b600960209081526000928352604080842090915290825290205481565b6002546001600160a01b031681565b806006818154811061075957fe5b906000526020600020906006020160000154421015801561079857506006818154811061078257fe5b9060005260206000209060060201600101544211155b6107a157600080fd5b6002546001600160a01b03163314156107f9576040805162461bcd60e51b8152602060048201526015602482015274596f752061726520612076616c696461746f72202160581b604482015290519081900360640190fd5b60026006838154811061080857fe5b906000526020600020906006020160030160019054906101000a900460ff16600281111561083257fe5b14610876576040805162461bcd60e51b815260206004820152600f60248201526e534c4120726573706563746564202160881b604482015290519081900360640190fd5b6006828154811061088357fe5b6000918252602080832033845260056006909302019190910190526040902054156108df5760405162461bcd60e51b815260040180806020018281038252603c81526020018061210e603c913960400191505060405180910390fd5b60006108eb3384611508565b90506000610905600a6108ff846003611bd6565b90611c2f565b600b549091506109159083611a4f565b600b81905550816006858154811061092957fe5b6000918252602080832033808552600693909302016005018152604080842094909455600154845163a9059cbb60e01b815260048101939093526024830187905293516001600160a01b039094169363a9059cbb936044808501948390030190829087803b15801561099a57600080fd5b505af11580156109ae573d6000803e3d6000fd5b505050506040513d60208110156109c457600080fd5b505060015460408051630852cd8d60e31b81526004810184905290516001600160a01b03909216916342966c689160248082019260009290919082900301818387803b158015610a1357600080fd5b505af1158015610a27573d6000803e3d6000fd5b5050505050505050565b6001600160a01b0382166000908152600860205260408120805482919084908110610a5857fe5b600091825260208083206002909202909101546001600160a01b03878116845260089092526040909220805491909216919085908110610a9457fe5b906000526020600020906002020160010154915091509250929050565b60048181548110610abe57fe5b6000918252602090912001546001600160a01b0316905081565b6001546001600160a01b031681565b610aef611a98565b6000546001600160a01b03908116911614610b3f576040805162461bcd60e51b815260206004820181905260248201526000805160206120ee833981519152604482015290519081900360640190fd5b600080546040516001600160a01b03909116907f8be0079c531659141344cd1fd0a4f28419497f9722a3daafe3b4186f6b6457e0908390a3600080546001600160a01b0319169055565b6002546001600160a01b0316331415610be1576040805162461bcd60e51b8152602060048201526015602482015274596f752061726520612076616c696461746f72202160581b604482015290519081900360640190fd5b6001600160a01b038316600090815260056020526040902054839060ff161515600114610c4c576040805162461bcd60e51b81526020600482015260146024820152731d1bdad95b881a5cc81b9bdd08185b1b1bddd95960621b604482015290519081900360640190fd5b600060068381548110610c5b57fe5b600091825260208083206001600160a01b03891684526004600690930201919091018152604080832033845290915290205411610cdd576040805162461bcd60e51b815260206004820152601b60248201527a07374616b696e672062616c616e63652063616e6e6f74206265203602c1b604482015290519081900360640190fd5b604080516323b872dd60e01b81523360048201523060248201526044810185905290516001600160a01b038616916323b872dd9160648083019260209291908290030181600087803b158015610d3257600080fd5b505af1158015610d46573d6000803e3d6000fd5b505050506040513d6020811015610d5c57600080fd5b505060068054610daa91859185908110610d7257fe5b600091825260208083206001600160a01b038a1684526004600690930201919091018152604080832033845290915290205490611c71565b60068381548110610db757fe5b600091825260208083206001600160a01b038916845260046006909302019190910181526040808320338452909152902055600b54610df69084611c71565b600b55610e038484611ccb565b600060068381548110610e1257fe5b600091825260208083206001600160a01b0389168452600692830201600401815260408084203385529091528220546003548254919450610e7992909187908110610e5957fe5b906000526020600020906006020160020154611c2f90919063ffffffff16565b9050600060068581548110610e8a57fe5b600091825260208083206001600160a01b038b16845260046006909302019190910181526040808320338452909152902055600b54610ec99083611a4f565b600b556001546001600160a01b031663a9059cbb33610ee88585611a4f565b6040518363ffffffff1660e01b815260040180836001600160a01b0316815260200182815260200192505050602060405180830381600087803b158015610f2e57600080fd5b505af1158015610f42573d6000803e3d6000fd5b505050506040513d6020811015610f5857600080fd5b5050600154610f70906001600160a01b031683611df6565b505050505050565b600b5481565b6000546001600160a01b031690565b60035490565b8060068181548110610fa157fe5b9060005260206000209060060201600001544210158015610fe0575060068181548110610fca57fe5b9060005260206000209060060201600101544211155b610fe957600080fd5b6002546001600160a01b03163314611044576040805162461bcd60e51b8152602060048201526019602482015278596f7520617265206e6f7420612076616c696461746f72202160381b604482015290519081900360640190fd5b60016006838154811061105357fe5b906000526020600020906006020160030160019054906101000a900460ff16600281111561107d57fe5b146110c5576040805162461bcd60e51b8152602060048201526013602482015272534c41206e6f7420726573706563746564202160681b604482015290519081900360640190fd5b600682815481106110d257fe5b600091825260209091206003600690920201015460ff16156111255760405162461bcd60e51b81526004018080602001828103825260368152602001806120976036913960400191505060405180910390fd5b600654600b546000916111389190611c2f565b9050600061114c600a6108ff846003611bd6565b600b5490915061115c9083611a4f565b600b81905550816006858154811061117057fe5b90600052602060002090600602016002018190555060016006858154811061119457fe5b60009182526020808320600692909202909101600301805460ff1916931515939093179092556001546040805163a9059cbb60e01b81523360048201526024810187905290516001600160a01b039092169363a9059cbb9360448084019492938390030190829087803b15801561099a57600080fd5b6008602052816000526040600020818154811061122357fe5b6000918252602090912060029091020180546001909101546001600160a01b039091169250905082565b60076020526000908152604090205481565b6001600160a01b038216600090815260056020526040902054829060ff1615156001146112ca576040805162461bcd60e51b81526020600482015260146024820152731d1bdad95b881a5cc81b9bdd08185b1b1bddd95960621b604482015290519081900360640190fd5b60008411611314576040805162461bcd60e51b81526020600482015260126024820152710616d6f756e742063616e6e6f7420626520360741b604482015290519081900360640190fd5b61131f338484611e56565b604080516323b872dd60e01b81523360048201523060248201526044810186905290516001600160a01b038516916323b872dd9160648083019260209291908290030181600087803b15801561137457600080fd5b505af1158015611388573d6000803e3d6000fd5b505050506040513d602081101561139e57600080fd5b5050600680546113ec918691859081106113b457fe5b600091825260208083206001600160a01b03891684526004600690930201919091018152604080832033845290915290205490611c71565b600683815481106113f957fe5b600091825260208083206001600160a01b038816845260046006909302019190910181526040808320338452909152902055600b546114389085611c71565b600b55336000908152600760205260409020546001141561149657600380546001810182556000919091527fc2575a0e9e593c00f959f8c92f12db2869c3395a3b0502d05e2516446f71f85b0180546001600160a01b031916331790555b6114a08385611ccb565b50505050565b600681815481106114b357fe5b60009182526020909120600690910201805460018201546002830154600390930154919350919060ff8082169161010090041685565b6001600160a01b0381166000908152600860205260409020545b919050565b6001600160a01b038216600090815260076020526040812054611572576040805162461bcd60e51b815260206004820152601d60248201527f5573657220686173206e6f7420616e7920746f6b656e207374616b6564000000604482015290519081900360640190fd5b6000805b6004548110156115f6576115ec6006858154811061159057fe5b90600052602060002090600602016004016000600484815481106115b057fe5b60009182526020808320909101546001600160a01b0390811684528382019490945260409283018220938a168252929092529020548390611c71565b9150600101611576565b5090505b92915050565b611608611a98565b6000546001600160a01b03908116911614611658576040805162461bcd60e51b815260206004820181905260248201526000805160206120ee833981519152604482015290519081900360640190fd5b6001600160a01b03811661169d5760405162461bcd60e51b81526004018080602001828103825260268152602001806120716026913960400191505060405180910390fd5b600080546040516001600160a01b03808516939216917f8be0079c531659141344cd1fd0a4f28419497f9722a3daafe3b4186f6b6457e091a3600080546001600160a01b0319166001600160a01b0392909216919091179055565b6002546001600160a01b0316331415611750576040805162461bcd60e51b8152602060048201526015602482015274596f752061726520612076616c696461746f72202160581b604482015290519081900360640190fd5b6001600160a01b038216600090815260056020526040902054829060ff1615156001146117bb576040805162461bcd60e51b81526020600482015260146024820152731d1bdad95b881a5cc81b9bdd08185b1b1bddd95960621b604482015290519081900360640190fd5b6000600683815481106117ca57fe5b600091825260208083206001600160a01b0388168452600460069093020191909101815260408083203384529091529020541161184c576040805162461bcd60e51b815260206004820152601b60248201527a07374616b696e672062616c616e63652063616e6e6f74206265203602c1b604482015290519081900360640190fd5b60006006838154811061185b57fe5b600091825260208083206001600160a01b03881684526006928302016004018152604080842033855290915282205460035482549194506118a292909187908110610e5957fe5b90506000600685815481106118b357fe5b600091825260208083206001600160a01b038a16845260046006909302019190910181526040808320338452909152902055600b546118f29083611a4f565b600b556001600160a01b03851663a9059cbb3361190f8585611a4f565b6040518363ffffffff1660e01b815260040180836001600160a01b0316815260200182815260200192505050602060405180830381600087803b15801561195557600080fd5b505af1158015611969573d6000803e3d6000fd5b505050506040513d602081101561197f57600080fd5b50503360009081526007602052604090205461199c906001611a4f565b3360009081526007602052604090208190556119e75760006119bd33611ee0565b9050600381815481106119cc57fe5b600091825260209091200180546001600160a01b0319169055505b6119f18583611df6565b5050505050565b60008060068381548110611a0857fe5b90600052602060002090600602016000015460068481548110611a2757fe5b90600052602060002090600602016001015491509150915091565b60038181548110610abe57fe5b6000611a9183836040518060400160405280601e81526020017f536166654d6174683a207375627472616374696f6e206f766572666c6f770000815250611f39565b9392505050565b3390565b611aa4612035565b828152602081018281526000608083018181526006805460018101825592819052845192027ff652222313e28459528d920b65115c16c04f3efc82aaedc97be59f3f377c0d3f810192835592517ff652222313e28459528d920b65115c16c04f3efc82aaedc97be59f3f377c0d4084015560408401517ff652222313e28459528d920b65115c16c04f3efc82aaedc97be59f3f377c0d4184015560608401517ff652222313e28459528d920b65115c16c04f3efc82aaedc97be59f3f377c0d42909301805493151560ff199094169390931780845590518493909161ff001916610100836002811115611b9357fe5b021790555050600654611ba891506001611a4f565b6040517ff791e873e3b67fe74b29aeede7bcbbdaa59c4b64e542571183cd837aa56f6ac990600090a2505050565b600082611be5575060006115fa565b82820282848281611bf257fe5b0414611a915760405162461bcd60e51b81526004018080602001828103825260218152602001806120cd6021913960400191505060405180910390fd5b6000611a9183836040518060400160405280601a81526020017f536166654d6174683a206469766973696f6e206279207a65726f000000000000815250611fd0565b600082820183811015611a91576040805162461bcd60e51b815260206004820152601b60248201527f536166654d6174683a206164646974696f6e206f766572666c6f770000000000604482015290519081900360640190fd5b336000908152600a602090815260408083206001600160a01b038616845290915290205460ff16611d9657336000818152600860209081526040808320815180830183526001600160a01b03888116808352828601898152845460018082018755868a52888a209551600290920290950180546001600160a01b0319169190941617835551918301919091558686529154600985528386208387528552838620600019919091019055948452600a83528184209084529091529020805460ff191690911790556105c3565b3360008181526009602090815260408083206001600160a01b03871684528252808320549383526008909152902080546114a091849184908110611dd657fe5b906000526020600020906002020160010154611c7190919063ffffffff16565b3360008181526009602090815260408083206001600160a01b03871684528252808320549383526008909152902080546114a091849184908110611e3657fe5b906000526020600020906002020160010154611a4f90919063ffffffff16565b600060068281548110611e6557fe5b600091825260208083206001600160a01b0387811685526006939093020160040181526040808420928816845291905290205411611edb576001600160a01b038316600090815260076020526040902054611ec1906001611c71565b6001600160a01b0384166000908152600760205260409020555b505050565b6000805b600354811015611f2f57826001600160a01b031660038281548110611f0557fe5b6000918252602090912001546001600160a01b03161415611f27579050611503565b600101611ee4565b5060001992915050565b60008184841115611fc85760405162461bcd60e51b81526004018080602001828103825283818151815260200191508051906020019080838360005b83811015611f8d578181015183820152602001611f75565b50505050905090810190601f168015611fba5780820380516001836020036101000a031916815260200191505b509250505060405180910390fd5b505050900390565b6000818361201f5760405162461bcd60e51b8152602060048201818152835160248401528351909283926044909101919085019080838360008315611f8d578181015183820152602001611f75565b50600083858161202b57fe5b0495945050505050565b6040518060a001604052806000815260200160008152602001600081526020016000151581526020016000600281111561206b57fe5b90529056fe4f776e61626c653a206e6577206f776e657220697320746865207a65726f2061646472657373596f75206861766520616c726561647920636c61696d656420796f75722072657761726420666f72207468697320706572696f642021536166654d6174683a206d756c7469706c69636174696f6e206f766572666c6f774f776e61626c653a2063616c6c6572206973206e6f7420746865206f776e6572596f75206861766520616c726561647920636c61696d656420796f757220636f6d70656e736174696f6e20666f72207468697320706572696f642021a26469706673582212203e27259c5abbdd6d3c15697e1c6a4410704edc1c89252159bc3f37ac3b90590764736f6c634300060c0033506c6561736520636865636b2074686520706172616d73206f6620796f757220706572696f64732021",
  "immutableReferences": {},
  "source": "// SPDX-License-Identifier: MIT\npragma solidity ^0.6.0;\n\nimport \"../bDSLA/bDSLAToken.sol\";\nimport \"@openzeppelin/contracts/token/ERC20/IERC20.sol\";\nimport \"@openzeppelin/contracts/access/Ownable.sol\";\nimport \"@openzeppelin/contracts/math/SafeMath.sol\";\n\ncontract Staking is Ownable {\n    using SafeMath for uint256;\n\n    enum Status {NotVerified, Respected, NotRespected}\n\n    struct Period {\n        uint256 sla_period_start;\n        uint256 sla_period_end;\n        uint256 claimed_reward;\n        bool claimed;\n        Status status;\n        mapping(address => mapping(address => uint256)) stakingBalance; // staking balance for all tokens (address token => (address user => amount))\n        mapping(address => uint256) claimed_compensation;\n    }\n\n    struct TokenStake {\n        address tokenAddress;\n        uint256 stake;\n    }\n\n    bDSLAToken public bDSLA;\n    address public validator;\n    address[] public stakers; // list of all stakers (validators, vouchers, delegators ...)\n    address[] public allowedTokens; // mapping for all allowed tokens to be staked\n    mapping(address => bool) public allowedTokensMapping;\n    Period[] public periods; // all periods for an SLA\n    mapping(address => uint256) public uniqueTokensStaked; // mapping to trace how many token is staked by an user\n    mapping(address => TokenStake[]) public userStakes; // mapping from address to TokenStake to retrieve balances staked\n    mapping(address => mapping(address => uint256))\n        public userStakedTokensIndex; // userAddress => erc20Address => index of userStakes mapping array\n    mapping(address => mapping(address => bool)) public userStakedTokens; // // userAddress => erc20Address => token is staked\n    uint256 public totalStaked;\n\n    event NewPeriodAdded(uint256 indexed period_index);\n\n    modifier notValidator {\n        require(msg.sender != validator, \"You are a validator !\");\n        _;\n    }\n\n    modifier onlyValidator {\n        require(msg.sender == validator, \"You are not a validator !\");\n        _;\n    }\n\n    modifier onlyInPeriod(uint256 _period) {\n        require(\n            block.timestamp >= periods[_period].sla_period_start &&\n                block.timestamp <= periods[_period].sla_period_end\n        );\n        _;\n    }\n\n    modifier onlyAllowedToken(address _token) {\n        require(allowedTokensMapping[_token] == true, \"token is not allowed\");\n        _;\n    }\n\n    constructor(\n        bDSLAToken _tokenAddress,\n        uint256[] memory _sla_period_starts,\n        uint256[] memory _sla_period_ends,\n        address _owner\n    ) public {\n        require(\n            _sla_period_starts.length == _sla_period_ends.length,\n            \"Please check the params of your periods !\"\n        );\n        bDSLA = bDSLAToken(_tokenAddress);\n        allowedTokens.push(address(bDSLA));\n        allowedTokensMapping[address(bDSLA)] = true;\n        validator = _owner;\n\n        for (uint256 i = 0; i < _sla_period_starts.length; i++) {\n            _addPeriod(_sla_period_starts[i], _sla_period_ends[i]);\n        }\n    }\n\n    // add new period\n    function addNewPeriod(uint256 _sla_period_start, uint256 _sla_period_end)\n        public\n        onlyOwner\n    {\n        _addPeriod(_sla_period_start, _sla_period_end);\n    }\n\n    // authorize a new token to be staked\n    function addAllowedTokens(address _token) public onlyOwner {\n        require(allowedTokensMapping[_token] == false, \"token already added\");\n        allowedTokens.push(_token);\n        allowedTokensMapping[_token] = true;\n    }\n\n    function _increaseTokenStaking(address _token, uint256 _amount) internal {\n        if (userStakedTokens[msg.sender][_token] == false) {\n            userStakes[msg.sender].push(\n                TokenStake({tokenAddress: _token, stake: _amount})\n            );\n            uint256 newTokenIndex = userStakes[msg.sender].length - 1;\n            userStakedTokensIndex[msg.sender][_token] = newTokenIndex;\n            userStakedTokens[msg.sender][_token] = true;\n        } else {\n            uint256 tokenIndex = userStakedTokensIndex[msg.sender][_token];\n            userStakes[msg.sender][tokenIndex].stake.add(_amount);\n        }\n    }\n\n    function _decreaseTokenStaking(address _token, uint256 _amount) internal {\n        uint256 tokenIndex = userStakedTokensIndex[msg.sender][_token];\n        userStakes[msg.sender][tokenIndex].stake.sub(_amount);\n    }\n\n    // stake an amount of token\n    function stakeTokens(\n        uint256 _amount,\n        address _token,\n        uint256 _period\n    ) public onlyAllowedToken(_token) {\n        require(_amount > 0, \"amount cannot be 0\");\n        // check if the staker had already staked another token or not\n        _updateUniqueTokensStaked(msg.sender, _token, _period);\n        // stake tokens\n        IERC20(_token).transferFrom(msg.sender, address(this), _amount);\n        // update balance of staked tokens per staker\n        periods[_period].stakingBalance[_token][msg.sender] = periods[_period]\n            .stakingBalance[_token][msg.sender]\n            .add(_amount);\n        totalStaked = totalStaked.add(_amount);\n\n        // if the token is the unique one staked by the staker\n        // add the staker to the list\n        if (uniqueTokensStaked[msg.sender] == 1) {\n            stakers.push(msg.sender);\n        }\n\n        _increaseTokenStaking(_token, _amount);\n    }\n\n    // Unstaking Tokens\n    function withdraw(address _token, uint256 _period)\n        public\n        notValidator\n        onlyAllowedToken(_token)\n    {\n        // check if staker has staked tokens\n        require(\n            periods[_period].stakingBalance[_token][msg.sender] > 0,\n            \"staking balance cannot be 0\"\n        );\n\n        // unstake bDSLA tokens\n        uint256 staked = periods[_period].stakingBalance[_token][msg.sender];\n        uint256 claimed_reward =\n            periods[_period].claimed_reward.div(stakers.length);\n\n        periods[_period].stakingBalance[_token][msg.sender] = 0;\n        totalStaked = totalStaked.sub(staked);\n        IERC20(_token).transfer(msg.sender, staked.sub(claimed_reward));\n\n        // update uniqueTokensStaked for the staker\n        uniqueTokensStaked[msg.sender] = uniqueTokensStaked[msg.sender].sub(1);\n\n        if (uniqueTokensStaked[msg.sender] == 0) {\n            uint256 index = _getIndex(msg.sender);\n            delete stakers[index];\n        }\n\n        _decreaseTokenStaking(_token, staked);\n    }\n\n    // withdraw bDSLA and stake d Tokens\n    function withdrawAndStake(\n        address _token,\n        uint256 _amount,\n        uint256 _period\n    ) public notValidator onlyAllowedToken(_token) {\n        // check if staker has staked tokens\n        require(\n            periods[_period].stakingBalance[_token][msg.sender] > 0,\n            \"staking balance cannot be 0\"\n        );\n\n        // stake d tokens\n        IERC20(_token).transferFrom(msg.sender, address(this), _amount);\n        // update balance of staked tokens per staker\n        periods[_period].stakingBalance[_token][msg.sender] = periods[_period]\n            .stakingBalance[_token][msg.sender]\n            .add(_amount);\n        totalStaked = totalStaked.add(_amount);\n\n        _increaseTokenStaking(_token, _amount);\n\n        // unstake bDSLA tokens\n        uint256 staked = periods[_period].stakingBalance[_token][msg.sender];\n        uint256 claimed_reward =\n            periods[_period].claimed_reward.div(stakers.length);\n\n        periods[_period].stakingBalance[_token][msg.sender] = 0;\n        totalStaked = totalStaked.sub(staked);\n        bDSLA.transfer(msg.sender, staked.sub(claimed_reward));\n\n        _decreaseTokenStaking(address(bDSLA), staked);\n    }\n\n    // claim from validators\n    function claimReward(uint256 _period)\n        public\n        onlyInPeriod(_period)\n        onlyValidator\n    {\n        require(\n            periods[_period].status == Status.Respected,\n            \"SLA not respected !\"\n        );\n        require(\n            !periods[_period].claimed,\n            \"You have already claimed your reward for this period !\"\n        );\n\n        uint256 reward = totalStaked.div(periods.length);\n        uint256 fees = reward.mul(3).div(10);\n\n        totalStaked = totalStaked.sub(reward);\n        periods[_period].claimed_reward = reward;\n        periods[_period].claimed = true;\n\n        bDSLA.transfer(msg.sender, reward);\n        bDSLA.burn(fees);\n    }\n\n    // claim from delegators\n    function claimCompensation(uint256 _period)\n        public\n        onlyInPeriod(_period)\n        notValidator\n    {\n        require(\n            periods[_period].status == Status.NotRespected,\n            \"SLA respected !\"\n        );\n        require(\n            periods[_period].claimed_compensation[msg.sender] == 0,\n            \"You have already claimed your compensation for this period !\"\n        );\n\n        uint256 compensation = getUserTotalValue(msg.sender, _period);\n        uint256 fees = compensation.mul(3).div(10);\n\n        totalStaked = totalStaked.sub(compensation);\n        periods[_period].claimed_compensation[msg.sender] = compensation;\n\n        bDSLA.transfer(msg.sender, compensation);\n        bDSLA.burn(fees);\n    }\n\n    function getUserTotalValue(address _user, uint256 _period)\n        public\n        view\n        returns (uint256)\n    {\n        require(uniqueTokensStaked[_user] > 0, \"User has not any token staked\");\n        uint256 totalValue = 0;\n        for (\n            uint256 allowedTokensIndex = 0;\n            allowedTokensIndex < allowedTokens.length;\n            allowedTokensIndex++\n        ) {\n            totalValue = totalValue.add(\n                periods[_period].stakingBalance[\n                    allowedTokens[allowedTokensIndex]\n                ][_user]\n            );\n        }\n        return totalValue;\n    }\n\n    function _updateUniqueTokensStaked(\n        address _user,\n        address _token,\n        uint256 _period\n    ) internal {\n        if (periods[_period].stakingBalance[_token][_user] <= 0) {\n            uniqueTokensStaked[_user] = uniqueTokensStaked[_user].add(1);\n        }\n    }\n\n    function _getIndex(address _user) internal view returns (uint256) {\n        for (uint256 i = 0; i < stakers.length; i++) {\n            if (stakers[i] == _user) {\n                return i;\n            }\n        }\n        return (uint256(-1));\n    }\n\n    function _addPeriod(uint256 _sla_period_start, uint256 _sla_period_end)\n        internal\n    {\n        Period memory _period;\n\n        _period.sla_period_start = _sla_period_start;\n        _period.sla_period_end = _sla_period_end;\n        _period.status = Status.NotVerified;\n\n        periods.push(_period);\n\n        emit NewPeriodAdded(periods.length.sub(1));\n    }\n\n    /**\n     * @dev public view function that returns the total amount of stakers\n     *\n     */\n    function stakersCount() public view returns (uint256) {\n        return stakers.length;\n    }\n\n    function getPeriodData(uint256 _periodId)\n        public\n        view\n        returns (uint256 periodStart, uint256 periodEnd)\n    {\n        return (\n            periods[_periodId].sla_period_start,\n            periods[_periodId].sla_period_end\n        );\n    }\n\n    function getTokenStakeLength(address _owner) public view returns (uint256) {\n        return userStakes[_owner].length;\n    }\n\n    function getTokenStake(address _owner, uint256 _index)\n        public\n        view\n        returns (address tokenAddress, uint256 stake)\n    {\n        return (\n            userStakes[_owner][_index].tokenAddress,\n            userStakes[_owner][_index].stake\n        );\n    }\n}\n",
  "sourcePath": "/Users/matiasbn/Desktop/stacktical/stacktical-dsla-contracts/contracts/SLA/Staking.sol",
  "compiler": {
    "name": "solc",
    "version": "0.6.12+commit.27d51765.Emscripten.clang"
  },
  "schemaVersion": "3.2.5",
  "updatedAt": "2020-12-23T13:12:29.110Z",
  "devdoc": {
    "kind": "dev",
    "methods": {
      "owner()": {
        "details": "Returns the address of the current owner."
      },
      "renounceOwnership()": {
        "details": "Leaves the contract without owner. It will not be possible to call `onlyOwner` functions anymore. Can only be called by the current owner. NOTE: Renouncing ownership will leave the contract without an owner, thereby removing any functionality that is only available to the owner."
      },
      "stakersCount()": {
        "details": "public view function that returns the total amount of stakers"
      },
      "transferOwnership(address)": {
        "details": "Transfers ownership of the contract to a new account (`newOwner`). Can only be called by the current owner."
      }
    },
    "version": 1
  },
  "userdoc": {
    "kind": "user",
    "methods": {},
    "version": 1
  }
}