{
  "contractName": "StakeRegistry",
  "abi": [
    {
      "inputs": [
        {
          "internalType": "address",
          "name": "_dslaTokenAddress",
          "type": "address"
        }
      ],
      "stateMutability": "nonpayable",
      "type": "constructor"
    },
    {
      "anonymous": false,
      "inputs": [
        {
          "indexed": true,
          "internalType": "address",
          "name": "previousOwner",
          "type": "address"
        },
        {
          "indexed": true,
          "internalType": "address",
          "name": "newOwner",
          "type": "address"
        }
      ],
      "name": "OwnershipTransferred",
      "type": "event"
    },
    {
      "anonymous": false,
      "inputs": [
        {
          "indexed": false,
          "internalType": "uint256",
          "name": "DSLAburnRate",
          "type": "uint256"
        },
        {
          "indexed": false,
          "internalType": "uint256",
          "name": "minimumDSLAStakedTier1",
          "type": "uint256"
        },
        {
          "indexed": false,
          "internalType": "uint256",
          "name": "minimumDSLAStakedTier2",
          "type": "uint256"
        },
        {
          "indexed": false,
          "internalType": "uint256",
          "name": "minimumDSLAStakedTier3",
          "type": "uint256"
        }
      ],
      "name": "StakingParametersModified",
      "type": "event"
    },
    {
      "inputs": [],
      "name": "DSLATokenAddress",
      "outputs": [
        {
          "internalType": "address",
          "name": "",
          "type": "address"
        }
      ],
      "stateMutability": "view",
      "type": "function",
      "constant": true
    },
    {
      "inputs": [
        {
          "internalType": "uint256",
          "name": "",
          "type": "uint256"
        }
      ],
      "name": "allowedTokens",
      "outputs": [
        {
          "internalType": "address",
          "name": "",
          "type": "address"
        }
      ],
      "stateMutability": "view",
      "type": "function",
      "constant": true
    },
    {
      "inputs": [],
      "name": "owner",
      "outputs": [
        {
          "internalType": "address",
          "name": "",
          "type": "address"
        }
      ],
      "stateMutability": "view",
      "type": "function",
      "constant": true
    },
    {
      "inputs": [],
      "name": "renounceOwnership",
      "outputs": [],
      "stateMutability": "nonpayable",
      "type": "function"
    },
    {
      "inputs": [
        {
          "internalType": "address",
          "name": "newOwner",
          "type": "address"
        }
      ],
      "name": "transferOwnership",
      "outputs": [],
      "stateMutability": "nonpayable",
      "type": "function"
    },
    {
      "inputs": [
        {
          "internalType": "address",
          "name": "_tokenAddress",
          "type": "address"
        }
      ],
      "name": "addAllowedTokens",
      "outputs": [],
      "stateMutability": "nonpayable",
      "type": "function"
    },
    {
      "inputs": [
        {
          "internalType": "address",
          "name": "_tokenAddress",
          "type": "address"
        }
      ],
      "name": "isAllowedToken",
      "outputs": [
        {
          "internalType": "bool",
          "name": "",
          "type": "bool"
        }
      ],
      "stateMutability": "view",
      "type": "function",
      "constant": true
    },
    {
      "inputs": [],
      "name": "getStakingParameters",
      "outputs": [
        {
          "internalType": "uint256",
          "name": "DSLAburnRate",
          "type": "uint256"
        },
        {
          "internalType": "uint256",
          "name": "minimumDSLAStakedTier1",
          "type": "uint256"
        },
        {
          "internalType": "uint256",
          "name": "minimumDSLAStakedTier2",
          "type": "uint256"
        },
        {
          "internalType": "uint256",
          "name": "minimumDSLAStakedTier3",
          "type": "uint256"
        }
      ],
      "stateMutability": "view",
      "type": "function",
      "constant": true
    },
    {
      "inputs": [
        {
          "internalType": "uint256",
          "name": "DSLAburnRate",
          "type": "uint256"
        },
        {
          "internalType": "uint256",
          "name": "minimumDSLAStakedTier1",
          "type": "uint256"
        },
        {
          "internalType": "uint256",
          "name": "minimumDSLAStakedTier2",
          "type": "uint256"
        },
        {
          "internalType": "uint256",
          "name": "minimumDSLAStakedTier3",
          "type": "uint256"
        }
      ],
      "name": "setStakingParameters",
      "outputs": [],
      "stateMutability": "nonpayable",
      "type": "function"
    }
  ],
  "bytecode": "0x6080604052600360025568a2a15d09519be0000060035569014542ba12a337c000006004556901e7e4171bf4d3a0000060055534801561003e57600080fd5b506040516107683803806107688339818101604052602081101561006157600080fd5b5051600061006d610113565b600080546001600160a01b0319166001600160a01b0383169081178255604051929350917f8be0079c531659141344cd1fd0a4f28419497f9722a3daafe3b4186f6b6457e0908290a350600180546001600160a01b039092166001600160a01b0319928316811782556006805492830181556000527ff652222313e28459528d920b65115c16c04f3efc82aaedc97be59f3f377c0d3f9091018054909216179055610117565b3390565b610642806101266000396000f3fe608060405234801561001057600080fd5b50600436106100835760003560e01c8063171e44ea146100885780635e5f2e26146100b0578063715018a6146100e95780638b8e5309146100f15780638da5cb5b146100f9578063b2af789d14610101578063cbe230c314610130578063f2fde38b1461016a578063f700839e14610190575b600080fd5b6100ae6004803603602081101561009e57600080fd5b50356001600160a01b03166101be565b005b6100cd600480360360208110156100c657600080fd5b50356102b9565b604080516001600160a01b039092168252519081900360200190f35b6100ae6102e0565b6100cd610382565b6100cd610391565b6100ae6004803603608081101561011757600080fd5b50803590602081013590604081013590606001356103a0565b6101566004803603602081101561014657600080fd5b50356001600160a01b0316610459565b604080519115158252519081900360200190f35b6100ae6004803603602081101561018057600080fd5b50356001600160a01b03166104b6565b6101986105ae565b604080519485526020850193909352838301919091526060830152519081900360800190f35b6101c66105c2565b6000546001600160a01b03908116911614610216576040805162461bcd60e51b815260206004820181905260248201526000805160206105ed833981519152604482015290519081900360640190fd5b61021f81610459565b15610267576040805162461bcd60e51b81526020600482015260136024820152721d1bdad95b88185b1c9958591e481859191959606a1b604482015290519081900360640190fd5b600680546001810182556000919091527ff652222313e28459528d920b65115c16c04f3efc82aaedc97be59f3f377c0d3f0180546001600160a01b0319166001600160a01b0392909216919091179055565b600681815481106102c657fe5b6000918252602090912001546001600160a01b0316905081565b6102e86105c2565b6000546001600160a01b03908116911614610338576040805162461bcd60e51b815260206004820181905260248201526000805160206105ed833981519152604482015290519081900360640190fd5b600080546040516001600160a01b03909116907f8be0079c531659141344cd1fd0a4f28419497f9722a3daafe3b4186f6b6457e0908390a3600080546001600160a01b0319169055565b6001546001600160a01b031681565b6000546001600160a01b031690565b6103a86105c2565b6000546001600160a01b039081169116146103f8576040805162461bcd60e51b815260206004820181905260248201526000805160206105ed833981519152604482015290519081900360640190fd5b600284905560038390556004829055600581905560408051858152602081018590528082018490526060810183905290517f88d4944533324114a43d5a08b217165d558c2e687efd4967d2fbdd12c8b266e69181900360800190a150505050565b6000805b6006548110156104ab57826001600160a01b03166006828154811061047e57fe5b6000918252602090912001546001600160a01b031614156104a35760019150506104b1565b60010161045d565b50600090505b919050565b6104be6105c2565b6000546001600160a01b0390811691161461050e576040805162461bcd60e51b815260206004820181905260248201526000805160206105ed833981519152604482015290519081900360640190fd5b6001600160a01b0381166105535760405162461bcd60e51b81526004018080602001828103825260268152602001806105c76026913960400191505060405180910390fd5b600080546040516001600160a01b03808516939216917f8be0079c531659141344cd1fd0a4f28419497f9722a3daafe3b4186f6b6457e091a3600080546001600160a01b0319166001600160a01b0392909216919091179055565b600254600354600454600554929391929091565b339056fe4f776e61626c653a206e6577206f776e657220697320746865207a65726f20616464726573734f776e61626c653a2063616c6c6572206973206e6f7420746865206f776e6572a26469706673582212203e1bd52466db1dbc660d8d6818eecada17a2ab7aa508a9877831ccf31860616464736f6c634300060c0033",
  "immutableReferences": {},
  "source": "// SPDX-License-Identifier: MIT\npragma solidity ^0.6.0;\nimport \"@openzeppelin/contracts/access/Ownable.sol\";\nimport \"@openzeppelin/contracts/math/SafeMath.sol\";\n\n/**\n * @title StakeRegistry\n * @dev StakeRegistry is a contract to register the staking activity of the platform, along\n with controlling certain admin privileged parameters\n */\ncontract StakeRegistry is Ownable {\n    using SafeMath for uint256;\n\n    /// @dev struct to return on getActivePool function.\n    struct ActivePool {\n        address SLAAddress;\n        uint256 stake;\n        string assetName;\n        address assetAddress;\n    }\n\n    address public DSLATokenAddress;\n\n    //______ onlyOwner modifiable parameters ______\n\n    /// @dev corresponds to the burn rate of DSLA tokens, but divided by 1000 i.e burn percentage = DSLAburnRate/1000 %\n    uint256 private _DSLAburnRate = 3;\n    /// @dev minimum deposit for Tier 1 staking\n    uint256 private _minimumDSLAStakedTier1 = 3000 ether;\n    /// @dev minimum deposit for Tier 2 staking\n    uint256 private _minimumDSLAStakedTier2 = 6000 ether;\n    /// @dev minimum deposit for Tier 3 staking\n    uint256 private _minimumDSLAStakedTier3 = 9000 ether;\n    /// @dev array with the allowed tokens addresses of the StakeRegistry\n    address[] public allowedTokens;\n\n    /**\n     * @dev event to log modifications on the staking parameters\n     *@param DSLAburnRate 1. (DSLAburnRate/1000)% of DSLA to be burned after a reward/compensation is paid\n     *@param minimumDSLAStakedTier1 2. minimum stake of DSLA to enable tier 1 privileges\n     *@param minimumDSLAStakedTier2 3. minimum stake of DSLA to enable tier 2 privileges\n     *@param minimumDSLAStakedTier3 4. minimum stake of DSLA to enable tier 3 privileges\n     */\n    event StakingParametersModified(\n        uint256 DSLAburnRate,\n        uint256 minimumDSLAStakedTier1,\n        uint256 minimumDSLAStakedTier2,\n        uint256 minimumDSLAStakedTier3\n    );\n\n    /**\n     * @param _dslaTokenAddress 1. DSLA Token\n     */\n    constructor(address _dslaTokenAddress) public {\n        DSLATokenAddress = _dslaTokenAddress;\n        allowedTokens.push(_dslaTokenAddress);\n    }\n\n    /**\n     *@dev add a token to ve allowed for staking\n     *@param _tokenAddress 1. address of the new allowed token\n     */\n    function addAllowedTokens(address _tokenAddress) public onlyOwner {\n        require(isAllowedToken(_tokenAddress) == false, \"token already added\");\n        allowedTokens.push(_tokenAddress);\n    }\n\n    function isAllowedToken(address _tokenAddress) public view returns (bool) {\n        for (uint256 index = 0; index < allowedTokens.length; index++) {\n            if (allowedTokens[index] == _tokenAddress) {\n                return true;\n            }\n        }\n        return false;\n    }\n\n    function getStakingParameters()\n        public\n        view\n        returns (\n            uint256 DSLAburnRate,\n            uint256 minimumDSLAStakedTier1,\n            uint256 minimumDSLAStakedTier2,\n            uint256 minimumDSLAStakedTier3\n        )\n    {\n        DSLAburnRate = _DSLAburnRate;\n        minimumDSLAStakedTier1 = _minimumDSLAStakedTier1;\n        minimumDSLAStakedTier2 = _minimumDSLAStakedTier2;\n        minimumDSLAStakedTier3 = _minimumDSLAStakedTier3;\n    }\n\n    //    /**\n    //     * @dev returns the active pools owned by a user.\n    //     * @param _slaOwner 1. owner of the active pool\n    //     * @return ActivePool[], array of structs: {SLAAddress,stake,assetName}\n    //     */\n    //    function getActivePool(address _slaOwner)\n    //        public\n    //        view\n    //        returns (ActivePool[] memory)\n    //    {\n    //        bytes4 NAME_SELECTOR = bytes4(keccak256(bytes(\"name()\")));\n    //        uint256 stakeCounter = 0;\n    //        // Count the stakes of the user, checking every SLA staked\n    //        for (\n    //            uint256 index = 0;\n    //            index < userStakedSlas[_slaOwner].length;\n    //            index++\n    //        ) {\n    //            SLA currentSLA = SLA(userStakedSlas[_slaOwner][index]);\n    //            stakeCounter = stakeCounter.add(\n    //                currentSLA.getAllowedTokensLength()\n    //            );\n    //        }\n    //\n    //        ActivePool[] memory activePools = new ActivePool[](stakeCounter);\n    //        // to insert on activePools array\n    //        uint256 stakePosition = 0;\n    //        for (\n    //            uint256 index = 0;\n    //            index < userStakedSlas[_slaOwner].length;\n    //            index++\n    //        ) {\n    //            SLA currentSLA = userStakedSlas[_slaOwner][index];\n    //            for (\n    //                uint256 tokenIndex = 0;\n    //                tokenIndex < currentSLA.getAllowedTokensLength();\n    //                tokenIndex++\n    //            ) {\n    //                (address tokenAddress, uint256 stake) =\n    //                    currentSLA.getTokenStake(_slaOwner, tokenIndex);\n    //                (, bytes memory tokenNameBytes) =\n    //                    tokenAddress.staticcall(\n    //                        abi.encodeWithSelector(NAME_SELECTOR)\n    //                    );\n    //                ActivePool memory currentActivePool =\n    //                    ActivePool({\n    //                        SLAAddress: address(currentSLA),\n    //                        stake: stake,\n    //                        assetName: string(tokenNameBytes),\n    //                        assetAddress: tokenAddress\n    //                    });\n    //                activePools[stakePosition] = currentActivePool;\n    //                stakePosition = stakePosition.add(1);\n    //            }\n    //        }\n    //        return activePools;\n    //    }\n\n    //_______ OnlyOwner functions _______\n    function setStakingParameters(\n        uint256 DSLAburnRate,\n        uint256 minimumDSLAStakedTier1,\n        uint256 minimumDSLAStakedTier2,\n        uint256 minimumDSLAStakedTier3\n    ) public onlyOwner {\n        _DSLAburnRate = DSLAburnRate;\n        _minimumDSLAStakedTier1 = minimumDSLAStakedTier1;\n        _minimumDSLAStakedTier2 = minimumDSLAStakedTier2;\n        _minimumDSLAStakedTier3 = minimumDSLAStakedTier3;\n        emit StakingParametersModified(\n            DSLAburnRate,\n            minimumDSLAStakedTier1,\n            minimumDSLAStakedTier2,\n            minimumDSLAStakedTier3\n        );\n    }\n}\n",
  "sourcePath": "/Users/matiasbn/Desktop/stacktical/stacktical-dsla-contracts/contracts/StakeRegistry.sol",
  "compiler": {
    "name": "solc",
    "version": "0.6.12+commit.27d51765.Emscripten.clang"
  },
  "schemaVersion": "3.3.3",
  "updatedAt": "2021-02-19T15:27:36.292Z",
  "networkType": "ethereum",
  "devdoc": {
    "details": "StakeRegistry is a contract to register the staking activity of the platform, along with controlling certain admin privileged parameters",
    "events": {
      "StakingParametersModified(uint256,uint256,uint256,uint256)": {
        "details": "event to log modifications on the staking parameters",
        "params": {
          "DSLAburnRate": "1. (DSLAburnRate/1000)% of DSLA to be burned after a reward/compensation is paid",
          "minimumDSLAStakedTier1": "2. minimum stake of DSLA to enable tier 1 privileges",
          "minimumDSLAStakedTier2": "3. minimum stake of DSLA to enable tier 2 privileges",
          "minimumDSLAStakedTier3": "4. minimum stake of DSLA to enable tier 3 privileges"
        }
      }
    },
    "kind": "dev",
    "methods": {
      "addAllowedTokens(address)": {
        "details": "add a token to ve allowed for staking",
        "params": {
          "_tokenAddress": "1. address of the new allowed token"
        }
      },
      "constructor": {
        "params": {
          "_dslaTokenAddress": "1. DSLA Token"
        }
      },
      "owner()": {
        "details": "Returns the address of the current owner."
      },
      "renounceOwnership()": {
        "details": "Leaves the contract without owner. It will not be possible to call `onlyOwner` functions anymore. Can only be called by the current owner. NOTE: Renouncing ownership will leave the contract without an owner, thereby removing any functionality that is only available to the owner."
      },
      "transferOwnership(address)": {
        "details": "Transfers ownership of the contract to a new account (`newOwner`). Can only be called by the current owner."
      }
    },
    "stateVariables": {
      "_DSLAburnRate": {
        "details": "corresponds to the burn rate of DSLA tokens, but divided by 1000 i.e burn percentage = DSLAburnRate/1000 %"
      },
      "_minimumDSLAStakedTier1": {
        "details": "minimum deposit for Tier 1 staking"
      },
      "_minimumDSLAStakedTier2": {
        "details": "minimum deposit for Tier 2 staking"
      },
      "_minimumDSLAStakedTier3": {
        "details": "minimum deposit for Tier 3 staking"
      },
      "allowedTokens": {
        "details": "array with the allowed tokens addresses of the StakeRegistry"
      }
    },
    "title": "StakeRegistry",
    "version": 1
  },
  "userdoc": {
    "kind": "user",
    "methods": {},
    "version": 1
  }
}