{
  "contractName": "Staking",
  "abi": [
    {
      "inputs": [
        {
          "internalType": "contract SLARegistry",
          "name": "_slaRegistry",
          "type": "address"
        },
        {
          "internalType": "enum PeriodRegistry.PeriodType",
          "name": "_periodType",
          "type": "uint8"
        },
        {
          "internalType": "bool",
          "name": "_whitelistedContract",
          "type": "bool"
        },
        {
          "internalType": "uint128",
          "name": "_slaID",
          "type": "uint128"
        },
        {
          "internalType": "uint256",
          "name": "_leverage",
          "type": "uint256"
        }
      ],
      "stateMutability": "nonpayable",
      "type": "constructor"
    },
    {
      "anonymous": false,
      "inputs": [
        {
          "indexed": true,
          "internalType": "address",
          "name": "previousOwner",
          "type": "address"
        },
        {
          "indexed": true,
          "internalType": "address",
          "name": "newOwner",
          "type": "address"
        }
      ],
      "name": "OwnershipTransferred",
      "type": "event"
    },
    {
      "anonymous": false,
      "inputs": [
        {
          "indexed": true,
          "internalType": "uint256",
          "name": "periodId",
          "type": "uint256"
        },
        {
          "indexed": true,
          "internalType": "address",
          "name": "tokenAddress",
          "type": "address"
        },
        {
          "indexed": false,
          "internalType": "uint256",
          "name": "rewardPercentage",
          "type": "uint256"
        },
        {
          "indexed": false,
          "internalType": "uint256",
          "name": "rewardPercentagePrecision",
          "type": "uint256"
        },
        {
          "indexed": false,
          "internalType": "uint256",
          "name": "rewardAmount",
          "type": "uint256"
        }
      ],
      "name": "ProviderRewardGenerated",
      "type": "event"
    },
    {
      "inputs": [],
      "name": "DSLAburnRate",
      "outputs": [
        {
          "internalType": "uint256",
          "name": "",
          "type": "uint256"
        }
      ],
      "stateMutability": "view",
      "type": "function"
    },
    {
      "inputs": [
        {
          "internalType": "uint256",
          "name": "",
          "type": "uint256"
        }
      ],
      "name": "allowedTokens",
      "outputs": [
        {
          "internalType": "address",
          "name": "",
          "type": "address"
        }
      ],
      "stateMutability": "view",
      "type": "function"
    },
    {
      "inputs": [
        {
          "internalType": "address",
          "name": "",
          "type": "address"
        }
      ],
      "name": "dpTokenRegistry",
      "outputs": [
        {
          "internalType": "contract ERC20PresetMinterPauser",
          "name": "",
          "type": "address"
        }
      ],
      "stateMutability": "view",
      "type": "function"
    },
    {
      "inputs": [],
      "name": "dslaTokenAddress",
      "outputs": [
        {
          "internalType": "address",
          "name": "",
          "type": "address"
        }
      ],
      "stateMutability": "view",
      "type": "function"
    },
    {
      "inputs": [
        {
          "internalType": "address",
          "name": "",
          "type": "address"
        }
      ],
      "name": "duTokenRegistry",
      "outputs": [
        {
          "internalType": "contract ERC20PresetMinterPauser",
          "name": "",
          "type": "address"
        }
      ],
      "stateMutability": "view",
      "type": "function"
    },
    {
      "inputs": [],
      "name": "leverage",
      "outputs": [
        {
          "internalType": "uint256",
          "name": "",
          "type": "uint256"
        }
      ],
      "stateMutability": "view",
      "type": "function"
    },
    {
      "inputs": [],
      "name": "owner",
      "outputs": [
        {
          "internalType": "address",
          "name": "",
          "type": "address"
        }
      ],
      "stateMutability": "view",
      "type": "function"
    },
    {
      "inputs": [
        {
          "internalType": "address",
          "name": "",
          "type": "address"
        }
      ],
      "name": "providerPool",
      "outputs": [
        {
          "internalType": "uint256",
          "name": "",
          "type": "uint256"
        }
      ],
      "stateMutability": "view",
      "type": "function"
    },
    {
      "inputs": [
        {
          "internalType": "address",
          "name": "",
          "type": "address"
        }
      ],
      "name": "registeredStakers",
      "outputs": [
        {
          "internalType": "bool",
          "name": "",
          "type": "bool"
        }
      ],
      "stateMutability": "view",
      "type": "function"
    },
    {
      "inputs": [],
      "name": "renounceOwnership",
      "outputs": [],
      "stateMutability": "nonpayable",
      "type": "function"
    },
    {
      "inputs": [],
      "name": "slaID",
      "outputs": [
        {
          "internalType": "uint128",
          "name": "",
          "type": "uint128"
        }
      ],
      "stateMutability": "view",
      "type": "function"
    },
    {
      "inputs": [
        {
          "internalType": "uint256",
          "name": "",
          "type": "uint256"
        }
      ],
      "name": "stakers",
      "outputs": [
        {
          "internalType": "address",
          "name": "",
          "type": "address"
        }
      ],
      "stateMutability": "view",
      "type": "function"
    },
    {
      "inputs": [
        {
          "internalType": "address",
          "name": "newOwner",
          "type": "address"
        }
      ],
      "name": "transferOwnership",
      "outputs": [],
      "stateMutability": "nonpayable",
      "type": "function"
    },
    {
      "inputs": [
        {
          "internalType": "address",
          "name": "",
          "type": "address"
        }
      ],
      "name": "usersPool",
      "outputs": [
        {
          "internalType": "uint256",
          "name": "",
          "type": "uint256"
        }
      ],
      "stateMutability": "view",
      "type": "function"
    },
    {
      "inputs": [
        {
          "internalType": "address",
          "name": "",
          "type": "address"
        }
      ],
      "name": "whitelist",
      "outputs": [
        {
          "internalType": "bool",
          "name": "",
          "type": "bool"
        }
      ],
      "stateMutability": "view",
      "type": "function"
    },
    {
      "inputs": [],
      "name": "whitelistedContract",
      "outputs": [
        {
          "internalType": "bool",
          "name": "",
          "type": "bool"
        }
      ],
      "stateMutability": "view",
      "type": "function"
    },
    {
      "inputs": [
        {
          "internalType": "address",
          "name": "_userAddress",
          "type": "address"
        }
      ],
      "name": "addUserToWhitelist",
      "outputs": [],
      "stateMutability": "nonpayable",
      "type": "function"
    },
    {
      "inputs": [
        {
          "internalType": "address[]",
          "name": "_userAddresses",
          "type": "address[]"
        }
      ],
      "name": "addMultipleUsersToWhitelist",
      "outputs": [],
      "stateMutability": "nonpayable",
      "type": "function"
    },
    {
      "inputs": [
        {
          "internalType": "address",
          "name": "_userAddress",
          "type": "address"
        }
      ],
      "name": "removeUserFromWhitelist",
      "outputs": [],
      "stateMutability": "nonpayable",
      "type": "function"
    },
    {
      "inputs": [
        {
          "internalType": "address[]",
          "name": "_userAddresses",
          "type": "address[]"
        }
      ],
      "name": "removeMultipleUsersFromWhitelist",
      "outputs": [],
      "stateMutability": "nonpayable",
      "type": "function"
    },
    {
      "inputs": [
        {
          "internalType": "address",
          "name": "_tokenAddress",
          "type": "address"
        }
      ],
      "name": "addAllowedTokens",
      "outputs": [],
      "stateMutability": "nonpayable",
      "type": "function"
    },
    {
      "inputs": [],
      "name": "getAllowedTokensLength",
      "outputs": [
        {
          "internalType": "uint256",
          "name": "",
          "type": "uint256"
        }
      ],
      "stateMutability": "view",
      "type": "function"
    },
    {
      "inputs": [
        {
          "internalType": "address",
          "name": "_staker",
          "type": "address"
        },
        {
          "internalType": "uint256",
          "name": "_allowedTokenIndex",
          "type": "uint256"
        }
      ],
      "name": "getTokenStake",
      "outputs": [
        {
          "internalType": "address",
          "name": "tokenAddress",
          "type": "address"
        },
        {
          "internalType": "uint256",
          "name": "stake",
          "type": "uint256"
        }
      ],
      "stateMutability": "view",
      "type": "function"
    },
    {
      "inputs": [
        {
          "internalType": "address",
          "name": "_tokenAddress",
          "type": "address"
        }
      ],
      "name": "isAllowedToken",
      "outputs": [
        {
          "internalType": "bool",
          "name": "",
          "type": "bool"
        }
      ],
      "stateMutability": "view",
      "type": "function"
    }
  ],
  "bytecode": "0x6101606040523480156200001257600080fd5b5060405162001de538038062001de5833981810160405260a08110156200003857600080fd5b5080516020820151604083015160608401516080909401519293919290919060006200006c6001600160e01b03620003db16565b600080546001600160a01b0319166001600160a01b0383169081178255604051929350917f8be0079c531659141344cd1fd0a4f28419497f9722a3daafe3b4186f6b6457e0908290a350846001600160a01b031663683048356040518163ffffffff1660e01b815260040160206040518083038186803b158015620000f057600080fd5b505afa15801562000105573d6000803e3d6000fd5b505050506040513d60208110156200011c57600080fd5b5051600180546001600160a01b0319166001600160a01b0392831617905560408051639fc4caa560e01b8152905191871691639fc4caa591600480820192602092909190829003018186803b1580156200017557600080fd5b505afa1580156200018a573d6000803e3d6000fd5b505050506040513d6020811015620001a157600080fd5b505160601b6001600160601b031916608052836005811115620001c057fe5b610100816005811115620001d057fe5b60f890811b909152841515901b610120525060015460408051637b8041cf60e11b815290516000926001600160a01b03169163f700839e9160048083019260e0929190829003018186803b1580156200022857600080fd5b505afa1580156200023d573d6000803e3d6000fd5b505050506040513d60e08110156200025457600080fd5b505160015460408051638b8e530960e01b815290519293506001600160a01b0390911691638b8e530991600480820192602092909190829003018186803b1580156200029f57600080fd5b505afa158015620002b4573d6000803e3d6000fd5b505050506040513d6020811015620002cb57600080fd5b505160601b6001600160601b03191660c05260e0819052620002ed33620003df565b6001600160801b0319608084901b1660a05260015460408051631c79942160e31b815290516001600160a01b039092169163e3cca10891600480820192602092909190829003018186803b1580156200034557600080fd5b505afa1580156200035a573d6000803e3d6000fd5b505050506040513d60208110156200037157600080fd5b5051821180159062000384575060018210155b620003cb576040805162461bcd60e51b8152602060048201526012602482015271496e636f7272656374206c6576657261676560701b604482015290519081900360640190fd5b506101405250620004e892505050565b3390565b620003f26001600160e01b03620003db16565b6000546001600160a01b0390811691161462000455576040805162461bcd60e51b815260206004820181905260248201527f4f776e61626c653a2063616c6c6572206973206e6f7420746865206f776e6572604482015290519081900360640190fd5b6001600160a01b03811660009081526009602052604090205460ff1615620004c4576040805162461bcd60e51b815260206004820152601860248201527f5573657220616c72656164792077686974656c69737465640000000000000000604482015290519081900360640190fd5b6001600160a01b03166000908152600960205260409020805460ff19166001179055565b60805160601c60a05160801c60c05160601c60e0516101005160f81c6101205160f81c6101405161189f6200054660003980610c89525080610c6552505080610eca525080611471525080610767528061135552505061189f6000f3fe608060405234801561001057600080fd5b50600436106101585760003560e01c8063747b8050116100c3578063cbe230c31161007c578063cbe230c314610449578063f2db10fe1461046f578063f2fde38b14610493578063f7e9dfff146104b9578063f9902bb1146104c1578063fd5e6dd1146104e757610158565b8063747b8050146103595780638da5cb5b1461037f5780639b19251a14610387578063a7e8d8d4146103ad578063b7bc347e146103d3578063c26ff615146103db57610158565b806357ac94f01161011557806357ac94f0146102495780635c1c20de146102985780635e5f2e26146102a0578063639b6fc3146102bd578063715018a6146102e3578063740882ac146102eb57610158565b8063171e44ea1461015d57806318e45427146101855780632c86d98e146101a1578063484fbf2b146101bb5780634e0c91f6146101e15780634fb2647e14610223575b600080fd5b6101836004803603602081101561017357600080fd5b50356001600160a01b0316610504565b005b61018d610c63565b604080519115158252519081900360200190f35b6101a9610c87565b60408051918252519081900360200190f35b6101a9600480360360208110156101d157600080fd5b50356001600160a01b0316610cab565b610207600480360360208110156101f757600080fd5b50356001600160a01b0316610cbd565b604080516001600160a01b039092168252519081900360200190f35b6102076004803603602081101561023957600080fd5b50356001600160a01b0316610cd8565b6102756004803603604081101561025f57600080fd5b506001600160a01b038135169060200135610cf3565b604080516001600160a01b03909316835260208301919091528051918290030190f35b6101a9610ec8565b610207600480360360208110156102b657600080fd5b5035610eec565b6101a9600480360360208110156102d357600080fd5b50356001600160a01b0316610f13565b610183610f25565b6101836004803603602081101561030157600080fd5b810190602081018135600160201b81111561031b57600080fd5b82018360208201111561032d57600080fd5b803590602001918460208302840111600160201b8311171561034e57600080fd5b509092509050610fc7565b6101836004803603602081101561036f57600080fd5b50356001600160a01b03166110cb565b6102076111b0565b61018d6004803603602081101561039d57600080fd5b50356001600160a01b03166111bf565b61018d600480360360208110156103c357600080fd5b50356001600160a01b03166111d4565b6101a96111e9565b610183600480360360208110156103f157600080fd5b810190602081018135600160201b81111561040b57600080fd5b82018360208201111561041d57600080fd5b803590602001918460208302840111600160201b8311171561043e57600080fd5b5090925090506111ef565b61018d6004803603602081101561045f57600080fd5b50356001600160a01b03166112f6565b610477611353565b604080516001600160801b039092168252519081900360200190f35b610183600480360360208110156104a957600080fd5b50356001600160a01b0316611377565b61020761146f565b610183600480360360208110156104d757600080fd5b50356001600160a01b0316611493565b610207600480360360208110156104fd57600080fd5b5035611575565b61050c611582565b6000546001600160a01b0390811691161461055c576040805162461bcd60e51b8152602060048201819052602482015260008051602061184a833981519152604482015290519081900360640190fd5b60015460408051637b8041cf60e11b815290516000926001600160a01b03169163f700839e9160048083019260e0929190829003018186803b1580156105a157600080fd5b505afa1580156105b5573d6000803e3d6000fd5b505050506040513d60e08110156105cb57600080fd5b5060c0015190506105db826112f6565b15610623576040805162461bcd60e51b8152602060048201526013602482015272151bdad95b88185b1c9958591e481859191959606a1b604482015290519081900360640190fd5b6001546040805163cbe230c360e01b81526001600160a01b0385811660048301529151919092169163cbe230c3916024808301926020929190829003018186803b15801561067057600080fd5b505afa158015610684573d6000803e3d6000fd5b505050506040513d602081101561069a57600080fd5b50516106d75760405162461bcd60e51b815260040180806020018281038252602d8152602001806117fc602d913960400191505060405180910390fd5b6008805460018101825560008290527ff3f7a9fe364faab93b216da50a3214154f22a0a2b415b23a84c8169e8b636ee30180546001600160a01b0319166001600160a01b038516179055548110156107605760405162461bcd60e51b81526004018080602001828103825260338152602001806117a36033913960400191505060405180910390fd5b60606107947f00000000000000000000000000000000000000000000000000000000000000006001600160801b0316611586565b905060608160405160200180806a44534c412d53484f52542d60a81b815250600b0182805190602001908083835b602083106107e15780518252601f1990920191602091820191016107c2565b6001836020036101000a038019825116818451168082178552505050505050905001915050604051602081830303815290604052905060608260405160200180806744534c412d53502d60c01b81525060080182805190602001908083835b6020831061085f5780518252601f199092019160209182019101610840565b6001836020036101000a038019825116818451168082178552505050505050905001915050604051602081830303815290604052905060608360405160200180806944534c412d4c4f4e472d60b01b815250600a0182805190602001908083835b602083106108df5780518252601f1990920191602091820191016108c0565b6001836020036101000a038019825116818451168082178552505050505050905001915050604051602081830303815290604052905060608460405160200180806744534c412d4c502d60c01b81525060080182805190602001908083835b6020831061095d5780518252601f19909201916020918201910161093e565b51815160209384036101000a60001901801990921691161790526040805192909401828103601f19018352808552600154633350214760e11b8252600482019586528b5160448301528b51939850600097506001600160a01b031695506366a0428e948b94508a939092839260248101926064909101918701908083838d5b838110156109f45781810151838201526020016109dc565b50505050905090810190601f168015610a215780820380516001836020036101000a031916815260200191505b50838103825284518152845160209182019186019080838360005b83811015610a54578181015183820152602001610a3c565b50505050905090810190601f168015610a815780820380516001836020036101000a031916815260200191505b50945050505050602060405180830381600087803b158015610aa257600080fd5b505af1158015610ab6573d6000803e3d6000fd5b505050506040513d6020811015610acc57600080fd5b505160015460408051633350214760e11b8152600481019182528651604482015286519394506000936001600160a01b03909316926366a0428e92889288928291602481019160649091019060208701908083838d5b83811015610b3a578181015183820152602001610b22565b50505050905090810190601f168015610b675780820380516001836020036101000a031916815260200191505b50838103825284518152845160209182019186019080838360005b83811015610b9a578181015183820152602001610b82565b50505050905090810190601f168015610bc75780820380516001836020036101000a031916815260200191505b50945050505050602060405180830381600087803b158015610be857600080fd5b505af1158015610bfc573d6000803e3d6000fd5b505050506040513d6020811015610c1257600080fd5b50516001600160a01b03998a1660009081526005602090815260408083208054948e166001600160a01b031995861617905560049091529020805493909a1692169190911790975550505050505050565b7f000000000000000000000000000000000000000000000000000000000000000081565b7f000000000000000000000000000000000000000000000000000000000000000081565b60036020526000908152604090205481565b6004602052600090815260409020546001600160a01b031681565b6005602052600090815260409020546001600160a01b031681565b600080600060088481548110610d0557fe5b6000918252602090912001546001600160a01b03169050610d246111b0565b6001600160a01b0316856001600160a01b03161415610d60576001600160a01b0381166000908152600260205260409020549092509050610ec1565b6001600160a01b0380821660009081526004602081815260408084205481516318160ddd60e01b8152915195169485936318160ddd938382019390929190829003018186803b158015610db257600080fd5b505afa158015610dc6573d6000803e3d6000fd5b505050506040513d6020811015610ddc57600080fd5b5051905080610df4575090925060009150610ec19050565b6000826001600160a01b03166370a08231896040518263ffffffff1660e01b815260040180826001600160a01b03166001600160a01b0316815260200191505060206040518083038186803b158015610e4c57600080fd5b505afa158015610e60573d6000803e3d6000fd5b505050506040513d6020811015610e7657600080fd5b50516001600160a01b0385166000908152600360205260409020549091508490610eb8908490610eac908563ffffffff61166116565b9063ffffffff6116c316565b95509550505050505b9250929050565b7f000000000000000000000000000000000000000000000000000000000000000081565b60088181548110610ef957fe5b6000918252602090912001546001600160a01b0316905081565b60026020526000908152604090205481565b610f2d611582565b6000546001600160a01b03908116911614610f7d576040805162461bcd60e51b8152602060048201819052602482015260008051602061184a833981519152604482015290519081900360640190fd5b600080546040516001600160a01b03909116907f8be0079c531659141344cd1fd0a4f28419497f9722a3daafe3b4186f6b6457e0908390a3600080546001600160a01b0319169055565b610fcf611582565b6000546001600160a01b0390811691161461101f576040805162461bcd60e51b8152602060048201819052602482015260008051602061184a833981519152604482015290519081900360640190fd5b60005b818110156110c6576009600084848481811061103a57fe5b602090810292909201356001600160a01b03168352508101919091526040016000205460ff166110be5760016009600085858581811061107657fe5b905060200201356001600160a01b03166001600160a01b03166001600160a01b0316815260200190815260200160002060006101000a81548160ff0219169083151502179055505b600101611022565b505050565b6110d3611582565b6000546001600160a01b03908116911614611123576040805162461bcd60e51b8152602060048201819052602482015260008051602061184a833981519152604482015290519081900360640190fd5b6001600160a01b03811660009081526009602052604090205460ff161561118c576040805162461bcd60e51b8152602060048201526018602482015277155cd95c88185b1c9958591e481dda1a5d195b1a5cdd195960421b604482015290519081900360640190fd5b6001600160a01b03166000908152600960205260409020805460ff19166001179055565b6000546001600160a01b031690565b60096020526000908152604090205460ff1681565b60076020526000908152604090205460ff1681565b60085490565b6111f7611582565b6000546001600160a01b03908116911614611247576040805162461bcd60e51b8152602060048201819052602482015260008051602061184a833981519152604482015290519081900360640190fd5b60005b818110156110c6576009600084848481811061126257fe5b602090810292909201356001600160a01b031683525081019190915260400160002054600160ff909116151514156112ee576000600960008585858181106112a657fe5b905060200201356001600160a01b03166001600160a01b03166001600160a01b0316815260200190815260200160002060006101000a81548160ff0219169083151502179055505b60010161124a565b6000805b60085481101561134857826001600160a01b03166008828154811061131b57fe5b6000918252602090912001546001600160a01b0316141561134057600191505061134e565b6001016112fa565b50600090505b919050565b7f000000000000000000000000000000000000000000000000000000000000000081565b61137f611582565b6000546001600160a01b039081169116146113cf576040805162461bcd60e51b8152602060048201819052602482015260008051602061184a833981519152604482015290519081900360640190fd5b6001600160a01b0381166114145760405162461bcd60e51b81526004018080602001828103825260268152602001806117d66026913960400191505060405180910390fd5b600080546040516001600160a01b03808516939216917f8be0079c531659141344cd1fd0a4f28419497f9722a3daafe3b4186f6b6457e091a3600080546001600160a01b0319166001600160a01b0392909216919091179055565b7f000000000000000000000000000000000000000000000000000000000000000081565b61149b611582565b6000546001600160a01b039081169116146114eb576040805162461bcd60e51b8152602060048201819052602482015260008051602061184a833981519152604482015290519081900360640190fd5b6001600160a01b03811660009081526009602052604090205460ff161515600114611554576040805162461bcd60e51b8152602060048201526014602482015273155cd95c881b9bdd081dda1a5d195b1a5cdd195960621b604482015290519081900360640190fd5b6001600160a01b03166000908152600960205260409020805460ff19169055565b60068181548110610ef957fe5b3390565b606081806115ad5750506040805180820190915260018152600360fc1b602082015261134e565b8060005b81156115c557600101600a820491506115b1565b60608167ffffffffffffffff811180156115de57600080fd5b506040519080825280601f01601f191660200182016040528015611609576020820181803683370190505b50905060001982015b841561165757600a850660300160f81b8282806001900393508151811061163557fe5b60200101906001600160f81b031916908160001a905350600a85049450611612565b5095945050505050565b600082611670575060006116bd565b8282028284828161167d57fe5b04146116ba5760405162461bcd60e51b81526004018080602001828103825260218152602001806118296021913960400191505060405180910390fd5b90505b92915050565b60006116ba83836040518060400160405280601a81526020017f536166654d6174683a206469766973696f6e206279207a65726f0000000000008152506000818361178c5760405162461bcd60e51b81526004018080602001828103825283818151815260200191508051906020019080838360005b83811015611751578181015183820152602001611739565b50505050905090810190601f16801561177e5780820380516001836020036101000a031916815260200191505b509250505060405180910390fd5b50600083858161179857fe5b049594505050505056fe416c6c6f77656420746f6b656e73206c656e6774682067726561746572207468616e206d617820746f6b656e206c656e6774684f776e61626c653a206e6577206f776e657220697320746865207a65726f2061646472657373546f6b656e206e6f7420616c6c6f7765642062792074686520534c41526567697374727920636f6e7472616374536166654d6174683a206d756c7469706c69636174696f6e206f766572666c6f774f776e61626c653a2063616c6c6572206973206e6f7420746865206f776e6572a26469706673582212201c04955fc6dc8f8ca54f1b6ea1f98cd457669a9443516adda9315d06e6ef43b464736f6c63430006060033",
  "immutableReferences": {
    "3656": [
      {
        "length": 32,
        "start": 1895
      },
      {
        "length": 32,
        "start": 4949
      }
    ],
    "3681": [
      {
        "length": 32,
        "start": 5233
      }
    ],
    "3686": [
      {
        "length": 32,
        "start": 3786
      }
    ],
    "3690": [
      {
        "length": 32,
        "start": 3173
      }
    ],
    "3696": [
      {
        "length": 32,
        "start": 3209
      }
    ]
  },
  "source": "// SPDX-License-Identifier: MIT\npragma solidity 0.6.6;\n\nimport \"@openzeppelin/contracts/token/ERC20/ERC20.sol\";\nimport \"@openzeppelin/contracts/token/ERC20/SafeERC20.sol\";\nimport \"@openzeppelin/contracts/presets/ERC20PresetMinterPauser.sol\";\nimport \"@openzeppelin/contracts/access/Ownable.sol\";\nimport \"@openzeppelin/contracts/math/SafeMath.sol\";\nimport \"./StakeRegistry.sol\";\nimport \"./SLARegistry.sol\";\nimport \"./PeriodRegistry.sol\";\n\ncontract Staking is Ownable {\n    using SafeMath for uint256;\n    using SafeERC20 for ERC20;\n\n    /// @dev StakeRegistry contract\n    StakeRegistry private stakeRegistry;\n    /// @dev SLARegistry contract\n    PeriodRegistry private immutable periodRegistry;\n    /// @dev current SLA id\n    uint128 public immutable slaID;\n\n    /// @dev (tokenAddress=>uint256) total pooled token balance\n    mapping(address => uint256) public providerPool;\n    /// @dev (tokenAddress=>uint256) total pooled token balance\n    mapping(address => uint256) public usersPool;\n\n    ///@dev (tokenAddress=>dTokenAddress) to keep track of dToken for users\n    mapping(address => ERC20PresetMinterPauser) public duTokenRegistry;\n    ///@dev (tokenAddress=>dTokenAddress) to keep track of dToken for provider\n    mapping(address => ERC20PresetMinterPauser) public dpTokenRegistry;\n\n    /// @dev address[] of the stakers of the SLA contract\n    address[] public stakers;\n    /// @dev (slaOwner=>bool)\n    mapping(address => bool) public registeredStakers;\n    /// @dev DSLA token address to burn fees\n    address public immutable dslaTokenAddress;\n    /// @dev array with the allowed tokens addresses for the current SLA\n    address[] public allowedTokens;\n\n    /// @dev corresponds to the burn rate of DSLA tokens, but divided by 1000 i.e burn percentage = burnRate/1000 %\n    uint256 public immutable DSLAburnRate;\n\n    /// @dev PeriodRegistry period type of the SLA contract\n    PeriodRegistry.PeriodType private immutable periodType;\n\n    /// @dev boolean to declare if contract is whitelisted\n    bool public immutable whitelistedContract;\n    /// @dev (userAddress=bool) to declare whitelisted addresses\n    mapping(address => bool) public whitelist;\n\n    uint256 public immutable leverage;\n\n    modifier onlyAllowedToken(address _token) {\n        require(isAllowedToken(_token) == true, \"token is not allowed\");\n        _;\n    }\n\n    modifier onlyWhitelisted {\n        if (whitelistedContract == true) {\n            require(whitelist[msg.sender] == true, \"User is not whitelisted\");\n        }\n        _;\n    }\n\n    /**\n     * @dev event for provider reward log\n     * @param periodId 1. id of the period\n     * @param tokenAddress 2. address of the token\n     * @param rewardPercentage 3. reward percentage for the provider\n     * @param rewardPercentagePrecision 4. reward percentage for the provider\n     * @param rewardAmount 5. amount rewarded\n     */\n    event ProviderRewardGenerated(\n        uint256 indexed periodId,\n        address indexed tokenAddress,\n        uint256 rewardPercentage,\n        uint256 rewardPercentagePrecision,\n        uint256 rewardAmount\n    );\n\n    /**\n     *@param _slaRegistryAddress 1. period type of the SLA\n     *@param _periodType 3. period type of the SLA\n     *@param _whitelistedContract 5. enables the white list feature\n     *@param _slaID 6. identifies the SLA to uniquely to emit dTokens\n     */\n    constructor(\n        SLARegistry _slaRegistry,\n        PeriodRegistry.PeriodType _periodType,\n        bool _whitelistedContract,\n        uint128 _slaID,\n        uint256 _leverage\n    ) public {\n        stakeRegistry = _slaRegistry.stakeRegistry();\n        periodRegistry = _slaRegistry.periodRegistry();\n        periodType = _periodType;\n        whitelistedContract = _whitelistedContract;\n        (uint256 _DSLAburnRate, , , , , , ) =\n            stakeRegistry.getStakingParameters();\n        dslaTokenAddress = stakeRegistry.DSLATokenAddress();\n        DSLAburnRate = _DSLAburnRate;\n        addUserToWhitelist(msg.sender);\n        slaID = _slaID;\n        require(\n            _leverage <= stakeRegistry._maxLeverage() && _leverage >= 1,\n            \"Incorrect leverage\"\n        );\n        leverage = _leverage;\n    }\n\n    function addUserToWhitelist(address _userAddress) public onlyOwner {\n        require(whitelist[_userAddress] == false, \"User already whitelisted\");\n        whitelist[_userAddress] = true;\n    }\n\n    function addMultipleUsersToWhitelist(address[] calldata _userAddresses)\n        external\n        onlyOwner\n    {\n        for (uint256 index = 0; index < _userAddresses.length; index++) {\n            if (whitelist[_userAddresses[index]] == false) {\n                whitelist[_userAddresses[index]] = true;\n            }\n        }\n    }\n\n    function removeUserFromWhitelist(address _userAddress) external onlyOwner {\n        require(whitelist[_userAddress] == true, \"User not whitelisted\");\n        whitelist[_userAddress] = false;\n    }\n\n    function removeMultipleUsersFromWhitelist(address[] calldata _userAddresses)\n        external\n        onlyOwner\n    {\n        for (uint256 index = 0; index < _userAddresses.length; index++) {\n            if (whitelist[_userAddresses[index]] == true) {\n                whitelist[_userAddresses[index]] = false;\n            }\n        }\n    }\n\n    /**\n     *@dev add a token to ve allowed for staking\n     *@param _tokenAddress 1. address of the new allowed token\n     */\n    function addAllowedTokens(address _tokenAddress) external onlyOwner {\n        (, , , , , , uint256 maxTokenLength) =\n            stakeRegistry.getStakingParameters();\n        require(!isAllowedToken(_tokenAddress), \"Token already added\");\n        require(\n            stakeRegistry.isAllowedToken(_tokenAddress),\n            \"Token not allowed by the SLARegistry contract\"\n        );\n        allowedTokens.push(_tokenAddress);\n        require(\n            maxTokenLength >= allowedTokens.length,\n            \"Allowed tokens length greater than max token length\"\n        );\n        string memory dTokenID = _uintToStr(slaID);\n        string memory duTokenName =\n            string(abi.encodePacked(\"DSLA-SHORT-\", dTokenID));\n        string memory duTokenSymbol =\n            string(abi.encodePacked(\"DSLA-SP-\", dTokenID));\n        string memory dpTokenName =\n            string(abi.encodePacked(\"DSLA-LONG-\", dTokenID));\n        string memory dpTokenSymbol =\n            string(abi.encodePacked(\"DSLA-LP-\", dTokenID));\n\n        ERC20PresetMinterPauser duToken =\n            ERC20PresetMinterPauser(\n                stakeRegistry.createDToken(duTokenName, duTokenSymbol)\n            );\n        ERC20PresetMinterPauser dpToken =\n            ERC20PresetMinterPauser(\n                stakeRegistry.createDToken(dpTokenName, dpTokenSymbol)\n            );\n\n        dpTokenRegistry[_tokenAddress] = dpToken;\n        duTokenRegistry[_tokenAddress] = duToken;\n    }\n\n    /**\n     *@dev increase the amount staked per token\n     *@param _amount 1. amount to be staked\n     *@param _tokenAddress 2. address of the token\n     *@notice providers can stake at any time\n     *@notice users can stake at any time but no more than provider pool\n     */\n    function _stake(uint256 _amount, address _tokenAddress)\n        internal\n        onlyAllowedToken(_tokenAddress)\n        onlyWhitelisted\n    {\n        ERC20(_tokenAddress).safeTransferFrom(\n            msg.sender,\n            address(this),\n            _amount\n        );\n        //duTokens\n        if (msg.sender != owner()) {\n            (uint256 providerStake, uint256 usersStake) =\n                (providerPool[_tokenAddress], usersPool[_tokenAddress]);\n            require(\n                usersStake.add(_amount).mul(leverage) <= providerStake,\n                \"Cannot stake more than leveraged SLA provider stake\"\n            );\n            ERC20PresetMinterPauser duToken = duTokenRegistry[_tokenAddress];\n            uint256 p0 = duToken.totalSupply();\n\n            // if there's no minted tokens, then create 1-1 proportion\n            if (p0 == 0) {\n                duToken.mint(msg.sender, _amount);\n            } else {\n                uint256 t0 = usersPool[_tokenAddress];\n                // mint dTokens proportionally\n                uint256 mintedDUTokens = _amount.mul(p0).div(t0);\n                duToken.mint(msg.sender, mintedDUTokens);\n            }\n            usersPool[_tokenAddress] = usersPool[_tokenAddress].add(_amount);\n            //dpTokens\n        } else {\n            ERC20PresetMinterPauser dpToken = dpTokenRegistry[_tokenAddress];\n            uint256 p0 = dpToken.totalSupply();\n\n            if (p0 == 0) {\n                dpToken.mint(msg.sender, _amount);\n            } else {\n                uint256 t0 = providerPool[_tokenAddress];\n                // mint dTokens proportionally\n                uint256 mintedDPTokens = _amount.mul(p0).div(t0);\n                dpToken.mint(msg.sender, mintedDPTokens);\n            }\n\n            providerPool[_tokenAddress] = providerPool[_tokenAddress].add(\n                _amount\n            );\n        }\n\n        if (registeredStakers[msg.sender] == false) {\n            registeredStakers[msg.sender] = true;\n            stakers.push(msg.sender);\n        }\n    }\n\n    /**\n     *@dev sets the provider reward\n     *@notice it calculates the usersStake and calculates the provider reward from it.\n     * @param _periodId 1. id of the period\n     * @param _rewardPercentage to calculate the provider reward\n     * @param _precision used to avoid getting 0 after division in the SLA's registerSLI function\n     */\n    function _setRespectedPeriodReward(\n        uint256 _periodId,\n        uint256 _rewardPercentage,\n        uint256 _precision\n    ) internal {\n        for (uint256 index = 0; index < allowedTokens.length; index++) {\n            address tokenAddress = allowedTokens[index];\n            uint256 usersStake = usersPool[tokenAddress];\n            uint256 reward = usersStake.mul(_rewardPercentage).div(_precision);\n\n            usersPool[tokenAddress] = usersPool[tokenAddress].sub(reward);\n\n            providerPool[tokenAddress] = providerPool[tokenAddress].add(reward);\n\n            emit ProviderRewardGenerated(\n                _periodId,\n                tokenAddress,\n                _rewardPercentage,\n                _precision,\n                reward\n            );\n        }\n    }\n\n    /**\n     *@dev sets the users compensation pool\n     *@notice it calculates the usersStake and calculates the users compensation from it\n     */\n    function _setUsersCompensation() internal {\n        for (uint256 index = 0; index < allowedTokens.length; index++) {\n            address tokenAddress = allowedTokens[index];\n            uint256 usersStake = usersPool[tokenAddress];\n            uint256 compensation = usersStake.mul(leverage);\n            providerPool[tokenAddress] = providerPool[tokenAddress].sub(\n                compensation\n            );\n\n            usersPool[tokenAddress] = usersPool[tokenAddress].add(compensation);\n        }\n    }\n\n    /**\n     *@dev withdraw staked tokens. Only dpToken owners can withdraw,\n     *@param _amount 1. amount to be withdrawn\n     *@param _tokenAddress 2. address of the token\n     *@param _contractFinished 3. contract finished\n     */\n    function _withdrawProviderTokens(\n        uint256 _amount,\n        address _tokenAddress,\n        bool _contractFinished\n    ) internal onlyAllowedToken(_tokenAddress) {\n        uint256 providerStake = providerPool[_tokenAddress];\n        uint256 usersStake = usersPool[_tokenAddress];\n        if (!_contractFinished) {\n            require(\n                providerStake.sub(_amount) >= usersStake.mul(leverage),\n                \"Should not withdraw more than leveraged users stake\"\n            );\n        }\n        ERC20PresetMinterPauser dpToken = dpTokenRegistry[_tokenAddress];\n        uint256 p0 = dpToken.totalSupply();\n        uint256 t0 = providerPool[_tokenAddress];\n        // Burn duTokens in a way that it doesn't affect the PoolTokens/LPTokens average\n        // t0/p0 = (t0-_amount)/(p0-burnedDPTokens)\n        // burnedDPTokens = _amount*p0/t0\n        uint256 burnedDPTokens = _amount.mul(p0).div(t0);\n        dpToken.burnFrom(msg.sender, burnedDPTokens);\n        providerPool[_tokenAddress] = providerPool[_tokenAddress].sub(_amount);\n        ERC20(_tokenAddress).safeTransfer(msg.sender, _amount);\n    }\n\n    /**\n     *@dev withdraw staked tokens. Only duToken owners can withdraw,\n     *@param _amount 1. amount to be withdrawn\n     *@param _tokenAddress 2. address of the token\n     */\n    function _withdrawUserTokens(uint256 _amount, address _tokenAddress)\n        internal\n        onlyAllowedToken(_tokenAddress)\n    {\n        ERC20PresetMinterPauser duToken = duTokenRegistry[_tokenAddress];\n        uint256 p0 = duToken.totalSupply();\n        uint256 t0 = usersPool[_tokenAddress];\n        // Burn duTokens in a way that it doesn't affect the PoolTokens/LPTokens\n        // average for current period.\n        // t0/p0 = (t0-_amount)/(p0-burnedDUTokens)\n        // burnedDUTokens = _amount*p0/t0\n        uint256 burnedDUTokens = _amount.mul(p0).div(t0);\n        duToken.burnFrom(msg.sender, burnedDUTokens);\n        usersPool[_tokenAddress] = usersPool[_tokenAddress].sub(_amount);\n        ERC20(_tokenAddress).safeTransfer(msg.sender, _amount);\n    }\n\n    /**\n     *@dev use this function to evaluate the length of the allowed tokens length\n     *@return allowedTokens.length\n     */\n    function getAllowedTokensLength() external view returns (uint256) {\n        return allowedTokens.length;\n    }\n\n    function getTokenStake(address _staker, uint256 _allowedTokenIndex)\n        external\n        view\n        returns (address tokenAddress, uint256 stake)\n    {\n        address allowedTokenAddress = allowedTokens[_allowedTokenIndex];\n        if (_staker == owner()) {\n            return (allowedTokenAddress, providerPool[allowedTokenAddress]);\n        } else {\n            ERC20PresetMinterPauser dToken =\n                duTokenRegistry[allowedTokenAddress];\n            uint256 dTokenSupply = dToken.totalSupply();\n            if (dTokenSupply == 0) {\n                return (allowedTokenAddress, 0);\n            }\n            uint256 dTokenBalance = dToken.balanceOf(_staker);\n            return (\n                allowedTokenAddress,\n                usersPool[allowedTokenAddress].mul(dTokenBalance).div(\n                    dTokenSupply\n                )\n            );\n        }\n    }\n\n    /**\n     *@dev checks in the allowedTokens array if there's a token with _tokenAddress value\n     *@param _tokenAddress 1. token address to check exixtence\n     *@return true if _tokenAddress exists in the allowedTokens array\n     */\n    function isAllowedToken(address _tokenAddress) public view returns (bool) {\n        for (uint256 index = 0; index < allowedTokens.length; index++) {\n            if (allowedTokens[index] == _tokenAddress) {\n                return true;\n            }\n        }\n        return false;\n    }\n\n    function _uintToStr(uint256 _i)\n        internal\n        pure\n        returns (string memory _uintAsString)\n    {\n        uint256 number = _i;\n        if (number == 0) {\n            return \"0\";\n        }\n        uint256 j = number;\n        uint256 len;\n        while (j != 0) {\n            len++;\n            j /= 10;\n        }\n        bytes memory bstr = new bytes(len);\n        uint256 k = len - 1;\n        while (number != 0) {\n            bstr[k--] = bytes1(uint8(48 + (number % 10)));\n            number /= 10;\n        }\n        return string(bstr);\n    }\n}\n",
  "sourcePath": "/Users/matiasbn/Desktop/stacktical/stacktical-dsla-contracts/contracts/Staking.sol",
  "compiler": {
    "name": "solc",
    "version": "0.6.6+commit.6c089d02.Emscripten.clang"
  },
  "schemaVersion": "3.3.3",
  "updatedAt": "2021-04-10T13:56:14.675Z",
  "devdoc": {
    "methods": {
      "owner()": {
        "details": "Returns the address of the current owner."
      },
      "renounceOwnership()": {
        "details": "Leaves the contract without owner. It will not be possible to call `onlyOwner` functions anymore. Can only be called by the current owner.     * NOTE: Renouncing ownership will leave the contract without an owner, thereby removing any functionality that is only available to the owner."
      },
      "transferOwnership(address)": {
        "details": "Transfers ownership of the contract to a new account (`newOwner`). Can only be called by the current owner."
      }
    }
  },
  "userdoc": {
    "methods": {
      "addAllowedTokens(address)": {
        "notice": "dev add a token to ve allowed for staking param _tokenAddress 1. address of the new allowed token"
      },
      "constructor": "param _slaRegistryAddress 1. period type of the SLA param _periodType 3. period type of the SLA param _whitelistedContract 5. enables the white list feature param _slaID 6. identifies the SLA to uniquely to emit dTokens",
      "getAllowedTokensLength()": {
        "notice": "dev use this function to evaluate the length of the allowed tokens length return allowedTokens.length"
      },
      "isAllowedToken(address)": {
        "notice": "dev checks in the allowedTokens array if there's a token with _tokenAddress value param _tokenAddress 1. token address to check exixtence return true if _tokenAddress exists in the allowedTokens array"
      }
    }
  }
}