{
  "contractName": "StakeRegistry",
  "abi": [
    {
      "inputs": [
        {
          "internalType": "address",
          "name": "_dslaTokenAddress",
          "type": "address"
        }
      ],
      "stateMutability": "nonpayable",
      "type": "constructor"
    },
    {
      "anonymous": false,
      "inputs": [
        {
          "indexed": true,
          "internalType": "address",
          "name": "previousOwner",
          "type": "address"
        },
        {
          "indexed": true,
          "internalType": "address",
          "name": "newOwner",
          "type": "address"
        }
      ],
      "name": "OwnershipTransferred",
      "type": "event"
    },
    {
      "anonymous": false,
      "inputs": [
        {
          "indexed": false,
          "internalType": "uint256",
          "name": "DSLAburnRate",
          "type": "uint256"
        },
        {
          "indexed": false,
          "internalType": "uint256",
          "name": "dslaDepositByPeriod",
          "type": "uint256"
        },
        {
          "indexed": false,
          "internalType": "uint256",
          "name": "dslaPlatformReward",
          "type": "uint256"
        },
        {
          "indexed": false,
          "internalType": "uint256",
          "name": "dslaMessengerReward",
          "type": "uint256"
        },
        {
          "indexed": false,
          "internalType": "uint256",
          "name": "dslaUserReward",
          "type": "uint256"
        },
        {
          "indexed": false,
          "internalType": "uint256",
          "name": "dslaBurnedByVerification",
          "type": "uint256"
        },
        {
          "indexed": false,
          "internalType": "uint256",
          "name": "maxTokenLength",
          "type": "uint256"
        },
        {
          "indexed": false,
          "internalType": "uint64",
          "name": "maxLeverage",
          "type": "uint64"
        }
      ],
      "name": "StakingParametersModified",
      "type": "event"
    },
    {
      "anonymous": false,
      "inputs": [
        {
          "indexed": true,
          "internalType": "address",
          "name": "sla",
          "type": "address"
        },
        {
          "indexed": true,
          "internalType": "address",
          "name": "requester",
          "type": "address"
        },
        {
          "indexed": false,
          "internalType": "uint256",
          "name": "userReward",
          "type": "uint256"
        },
        {
          "indexed": false,
          "internalType": "uint256",
          "name": "platformReward",
          "type": "uint256"
        },
        {
          "indexed": false,
          "internalType": "uint256",
          "name": "messengerReward",
          "type": "uint256"
        },
        {
          "indexed": false,
          "internalType": "uint256",
          "name": "burnedDSLA",
          "type": "uint256"
        }
      ],
      "name": "VerificationRewardDistributed",
      "type": "event"
    },
    {
      "inputs": [],
      "name": "DSLATokenAddress",
      "outputs": [
        {
          "internalType": "address",
          "name": "",
          "type": "address"
        }
      ],
      "stateMutability": "view",
      "type": "function",
      "constant": true
    },
    {
      "inputs": [
        {
          "internalType": "uint256",
          "name": "",
          "type": "uint256"
        }
      ],
      "name": "allowedTokens",
      "outputs": [
        {
          "internalType": "address",
          "name": "",
          "type": "address"
        }
      ],
      "stateMutability": "view",
      "type": "function",
      "constant": true
    },
    {
      "inputs": [],
      "name": "owner",
      "outputs": [
        {
          "internalType": "address",
          "name": "",
          "type": "address"
        }
      ],
      "stateMutability": "view",
      "type": "function",
      "constant": true
    },
    {
      "inputs": [],
      "name": "renounceOwnership",
      "outputs": [],
      "stateMutability": "nonpayable",
      "type": "function"
    },
    {
      "inputs": [
        {
          "internalType": "address",
          "name": "",
          "type": "address"
        }
      ],
      "name": "slaLockedValue",
      "outputs": [
        {
          "internalType": "uint256",
          "name": "lockedValue",
          "type": "uint256"
        },
        {
          "internalType": "uint256",
          "name": "slaPeriodIdsLength",
          "type": "uint256"
        },
        {
          "internalType": "uint256",
          "name": "dslaDepositByPeriod",
          "type": "uint256"
        },
        {
          "internalType": "uint256",
          "name": "dslaPlatformReward",
          "type": "uint256"
        },
        {
          "internalType": "uint256",
          "name": "dslaMessengerReward",
          "type": "uint256"
        },
        {
          "internalType": "uint256",
          "name": "dslaUserReward",
          "type": "uint256"
        },
        {
          "internalType": "uint256",
          "name": "dslaBurnedByVerification",
          "type": "uint256"
        }
      ],
      "stateMutability": "view",
      "type": "function",
      "constant": true
    },
    {
      "inputs": [],
      "name": "slaRegistry",
      "outputs": [
        {
          "internalType": "contract SLARegistry",
          "name": "",
          "type": "address"
        }
      ],
      "stateMutability": "view",
      "type": "function",
      "constant": true
    },
    {
      "inputs": [
        {
          "internalType": "address",
          "name": "newOwner",
          "type": "address"
        }
      ],
      "name": "transferOwnership",
      "outputs": [],
      "stateMutability": "nonpayable",
      "type": "function"
    },
    {
      "inputs": [
        {
          "internalType": "address",
          "name": "",
          "type": "address"
        },
        {
          "internalType": "uint256",
          "name": "",
          "type": "uint256"
        }
      ],
      "name": "userStakedSlas",
      "outputs": [
        {
          "internalType": "contract SLA",
          "name": "",
          "type": "address"
        }
      ],
      "stateMutability": "view",
      "type": "function",
      "constant": true
    },
    {
      "inputs": [],
      "name": "setSLARegistry",
      "outputs": [],
      "stateMutability": "nonpayable",
      "type": "function"
    },
    {
      "inputs": [
        {
          "internalType": "address",
          "name": "_tokenAddress",
          "type": "address"
        }
      ],
      "name": "addAllowedTokens",
      "outputs": [],
      "stateMutability": "nonpayable",
      "type": "function"
    },
    {
      "inputs": [
        {
          "internalType": "address",
          "name": "_tokenAddress",
          "type": "address"
        }
      ],
      "name": "isAllowedToken",
      "outputs": [
        {
          "internalType": "bool",
          "name": "",
          "type": "bool"
        }
      ],
      "stateMutability": "view",
      "type": "function",
      "constant": true
    },
    {
      "inputs": [
        {
          "internalType": "address",
          "name": "_user",
          "type": "address"
        },
        {
          "internalType": "address",
          "name": "_sla",
          "type": "address"
        }
      ],
      "name": "slaWasStakedByUser",
      "outputs": [
        {
          "internalType": "bool",
          "name": "",
          "type": "bool"
        }
      ],
      "stateMutability": "view",
      "type": "function",
      "constant": true
    },
    {
      "inputs": [
        {
          "internalType": "address",
          "name": "_owner",
          "type": "address"
        }
      ],
      "name": "registerStakedSla",
      "outputs": [
        {
          "internalType": "bool",
          "name": "",
          "type": "bool"
        }
      ],
      "stateMutability": "nonpayable",
      "type": "function"
    },
    {
      "inputs": [
        {
          "internalType": "string",
          "name": "_name",
          "type": "string"
        },
        {
          "internalType": "string",
          "name": "_symbol",
          "type": "string"
        }
      ],
      "name": "createDToken",
      "outputs": [
        {
          "internalType": "address",
          "name": "",
          "type": "address"
        }
      ],
      "stateMutability": "nonpayable",
      "type": "function"
    },
    {
      "inputs": [
        {
          "internalType": "address",
          "name": "_slaOwner",
          "type": "address"
        },
        {
          "internalType": "address",
          "name": "_sla",
          "type": "address"
        },
        {
          "internalType": "uint256",
          "name": "_periodIdsLength",
          "type": "uint256"
        }
      ],
      "name": "lockDSLAValue",
      "outputs": [],
      "stateMutability": "nonpayable",
      "type": "function"
    },
    {
      "inputs": [
        {
          "internalType": "address",
          "name": "_sla",
          "type": "address"
        },
        {
          "internalType": "address",
          "name": "_verificationRewardReceiver",
          "type": "address"
        },
        {
          "internalType": "uint256",
          "name": "_periodId",
          "type": "uint256"
        }
      ],
      "name": "distributeVerificationRewards",
      "outputs": [],
      "stateMutability": "nonpayable",
      "type": "function"
    },
    {
      "inputs": [
        {
          "internalType": "address",
          "name": "_sla",
          "type": "address"
        }
      ],
      "name": "returnLockedValue",
      "outputs": [],
      "stateMutability": "nonpayable",
      "type": "function"
    },
    {
      "inputs": [
        {
          "internalType": "address",
          "name": "_slaOwner",
          "type": "address"
        }
      ],
      "name": "getActivePool",
      "outputs": [
        {
          "components": [
            {
              "internalType": "address",
              "name": "SLAAddress",
              "type": "address"
            },
            {
              "internalType": "uint256",
              "name": "stake",
              "type": "uint256"
            },
            {
              "internalType": "string",
              "name": "assetName",
              "type": "string"
            },
            {
              "internalType": "address",
              "name": "assetAddress",
              "type": "address"
            }
          ],
          "internalType": "struct StakeRegistry.ActivePool[]",
          "name": "",
          "type": "tuple[]"
        }
      ],
      "stateMutability": "view",
      "type": "function",
      "constant": true
    },
    {
      "inputs": [
        {
          "internalType": "uint256",
          "name": "DSLAburnRate",
          "type": "uint256"
        },
        {
          "internalType": "uint256",
          "name": "dslaDepositByPeriod",
          "type": "uint256"
        },
        {
          "internalType": "uint256",
          "name": "dslaPlatformReward",
          "type": "uint256"
        },
        {
          "internalType": "uint256",
          "name": "dslaMessengerReward",
          "type": "uint256"
        },
        {
          "internalType": "uint256",
          "name": "dslaUserReward",
          "type": "uint256"
        },
        {
          "internalType": "uint256",
          "name": "dslaBurnedByVerification",
          "type": "uint256"
        },
        {
          "internalType": "uint256",
          "name": "maxTokenLength",
          "type": "uint256"
        },
        {
          "internalType": "uint64",
          "name": "maxLeverage",
          "type": "uint64"
        }
      ],
      "name": "setStakingParameters",
      "outputs": [],
      "stateMutability": "nonpayable",
      "type": "function"
    },
    {
      "inputs": [],
      "name": "getStakingParameters",
      "outputs": [
        {
          "internalType": "uint256",
          "name": "DSLAburnRate",
          "type": "uint256"
        },
        {
          "internalType": "uint256",
          "name": "dslaDepositByPeriod",
          "type": "uint256"
        },
        {
          "internalType": "uint256",
          "name": "dslaPlatformReward",
          "type": "uint256"
        },
        {
          "internalType": "uint256",
          "name": "dslaMessengerReward",
          "type": "uint256"
        },
        {
          "internalType": "uint256",
          "name": "dslaUserReward",
          "type": "uint256"
        },
        {
          "internalType": "uint256",
          "name": "dslaBurnedByVerification",
          "type": "uint256"
        },
        {
          "internalType": "uint256",
          "name": "maxTokenLength",
          "type": "uint256"
        },
        {
          "internalType": "uint64",
          "name": "maxLeverage",
          "type": "uint64"
        }
      ],
      "stateMutability": "view",
      "type": "function",
      "constant": true
    },
    {
      "inputs": [
        {
          "internalType": "address",
          "name": "_sla",
          "type": "address"
        },
        {
          "internalType": "uint256",
          "name": "_periodId",
          "type": "uint256"
        }
      ],
      "name": "periodIsVerified",
      "outputs": [
        {
          "internalType": "bool",
          "name": "",
          "type": "bool"
        }
      ],
      "stateMutability": "view",
      "type": "function",
      "constant": true
    }
  ],
  "bytecode": "0x60806040526003600455683635c9adc5dea00000600655680d8d726b7177a80000600781905560088190556009819055600a556001600b55600c80546001600160401b03191660641790553480156200005757600080fd5b50604051620041ed380380620041ed8339810160408190526200007a91620001df565b60006200008f6001600160e01b03620001ac16565b600080546001600160a01b0319166001600160a01b0383169081178255604051929350917f8be0079c531659141344cd1fd0a4f28419497f9722a3daafe3b4186f6b6457e0908290a3506001808190555062000120600a546200010c6009546200010c600854600754620001b060201b6200167d1790919060201c565b620001b060201b6200167d1790919060201c565b600654146200014c5760405162461bcd60e51b815260040162000143906200023f565b60405180910390fd5b600280546001600160a01b039092166001600160a01b03199283168117909155600d80546001810182556000919091527fd7b6990105719101dabeb77144f2a3385c8033acd3af97e9423a695e81ad1eb50180549092161790556200028b565b3390565b600082820183811015620001d85760405162461bcd60e51b8152600401620001439062000208565b9392505050565b600060208284031215620001f1578081fd5b81516001600160a01b0381168114620001d8578182fd5b6020808252601b908201527f536166654d6174683a206164646974696f6e206f766572666c6f770000000000604082015260600190565b6020808252602c908201527f5374616b696e6720706172616d65746572732073686f756c64206d617463682060408201526b37b71039bab6b6b0ba34b7b760a11b606082015260800190565b613f52806200029b6000396000f3fe60806040523480156200001157600080fd5b5060043610620001545760003560e01c80638b8e530911620000c9578063cbe230c31162000087578063cbe230c314620002c9578063db69a46214620002e0578063f2c0dfd414620002ea578063f2fde38b1462000310578063f38815891462000327578063f700839e14620003315762000154565b80638b8e530914620002705780638da5cb5b146200027a578063a3f5cadf1462000284578063ab9a81a5146200029b578063b290508e14620002b25762000154565b80635f635ce111620001175780635f635ce114620001f557806366a0428e14620002215780636d5faa171462000238578063715018a6146200024f5780637afb4c0a14620002595762000154565b80630df0bfc61462000159578063171e44ea146200018857806322f3c33c14620001a15780632575d7ca14620001b85780635e5f2e2614620001cf575b600080fd5b620001706200016a36600462001987565b62000351565b6040516200017f919062001d07565b60405180910390f35b6200019f6200019936600462001949565b620003dc565b005b6200019f620001b2366004620019c4565b6200049c565b6200019f620001c936600462001949565b62000751565b620001e6620001e036600462001b11565b62000889565b6040516200017f919062001c16565b6200020c6200020636600462001949565b620008b1565b6040516200017f97969594939291906200212c565b620001e66200023236600462001aa2565b620008f3565b6200019f6200024936600462001b2a565b62000ac0565b6200019f62000bcd565b6200019f6200026a366004620019c4565b62000c51565b620001e662000d7b565b620001e662000d8a565b620001e66200029536600462001a09565b62000d99565b62000170620002ac36600462001a09565b62000dcf565b62000170620002c336600462001949565b62000dfe565b62000170620002da36600462001949565b62000ef7565b620001e662000f57565b62000301620002fb36600462001949565b62000f66565b6040516200017f919062001c67565b6200019f6200032136600462001949565b62001389565b6200019f62001447565b6200033b62001487565b6040516200017f9897969594939291906200215c565b6000805b6001600160a01b0384166000908152600e6020526040902054811015620003d0576001600160a01b038481166000908152600e6020526040902080549185169183908110620003a057fe5b6000918252602090912001546001600160a01b03161415620003c7576001915050620003d6565b60010162000355565b50600090505b92915050565b620003e6620014bb565b6000546001600160a01b039081169116146200041f5760405162461bcd60e51b8152600401620004169062001fec565b60405180910390fd5b6200042a8162000ef7565b156200044a5760405162461bcd60e51b8152600401620004169062001eb1565b600d80546001810182556000919091527fd7b6990105719101dabeb77144f2a3385c8033acd3af97e9423a695e81ad1eb50180546001600160a01b0319166001600160a01b0392909216919091179055565b6003546001600160a01b03163314620004c95760405162461bcd60e51b8152600401620004169062001f26565b60026001541415620004ef5760405162461bcd60e51b81526004016200041690620020d1565b60026001556001600160a01b0383166000908152600560209081526040808320848452600781019092529091205460ff1615620005405760405162461bcd60e51b8152600401620004169062001dec565b60008281526007820160205260409020805460ff1916600117905560028101548154620005739163ffffffff620014bf16565b815560058101546002546200059c916001600160a01b0390911690859063ffffffff6200150a16565b620005c9620005aa62000d8a565b60038301546002546001600160a01b0316919063ffffffff6200150a16565b620006d5846001600160a01b031663a224ee9c6040518163ffffffff1660e01b815260040160206040518083038186803b1580156200060757600080fd5b505afa1580156200061c573d6000803e3d6000fd5b505050506040513d601f19601f8201168201806040525081019062000642919062001968565b6001600160a01b0316638da5cb5b6040518163ffffffff1660e01b815260040160206040518083038186803b1580156200067b57600080fd5b505afa15801562000690573d6000803e3d6000fd5b505050506040513d601f19601f82011682018060405250810190620006b6919062001968565b60048301546002546001600160a01b0316919063ffffffff6200150a16565b620006e4816006015462001569565b826001600160a01b0316846001600160a01b03167f826cb0a7342bbb8cfd359b578a84d13c8d382259a596846313632ea4f8a9e0df83600501548460030154856004015486600601546040516200073f949392919062002111565b60405180910390a35050600180555050565b6003546001600160a01b031633146200077e5760405162461bcd60e51b8152600401620004169062001f26565b60026001541415620007a45760405162461bcd60e51b81526004016200041690620020d1565b60026001556001600160a01b0381166000908152600560205260409020805480620007e35760405162461bcd60e51b8152600401620004169062002058565b6000826000018190555062000880836001600160a01b0316638da5cb5b6040518163ffffffff1660e01b815260040160206040518083038186803b1580156200082b57600080fd5b505afa15801562000840573d6000803e3d6000fd5b505050506040513d601f19601f8201168201806040525081019062000866919062001968565b6002546001600160a01b0316908363ffffffff6200150a16565b50506001805550565b600d81815481106200089757fe5b6000918252602090912001546001600160a01b0316905081565b60056020528060005260406000206000915090508060000154908060010154908060020154908060030154908060040154908060050154908060060154905087565b60035460405163c4277a7b60e01b81526000916001600160a01b03169063c4277a7b906200092690339060040162001c16565b60206040518083038186803b1580156200093f57600080fd5b505afa15801562000954573d6000803e3d6000fd5b505050506040513d601f19601f820116820180604052508101906200097a919062001a67565b620009995760405162461bcd60e51b8152600401620004169062001d74565b600085858585604051620009ad90620018b8565b620009bc949392919062001d29565b604051809103906000f080158015620009d9573d6000803e3d6000fd5b509050806001600160a01b0316632f2ff15d826001600160a01b031663d53913936040518163ffffffff1660e01b815260040160206040518083038186803b15801562000a2557600080fd5b505afa15801562000a3a573d6000803e3d6000fd5b505050506040513d601f19601f8201168201806040525081019062000a60919062001a89565b336040518363ffffffff1660e01b815260040162000a8092919062001d12565b600060405180830381600087803b15801562000a9b57600080fd5b505af115801562000ab0573d6000803e3d6000fd5b509293505050505b949350505050565b62000aca620014bb565b6000546001600160a01b0390811691161462000afa5760405162461bcd60e51b8152600401620004169062001fec565b60048890556006879055600786905560088590556009849055600a839055600b829055600c805467ffffffffffffffff19166001600160401b03831617905562000b598362000b4c86818a8a6200167d565b9063ffffffff6200167d16565b6006541462000b7c5760405162461bcd60e51b8152600401620004169062001e65565b7fb09d30c4aaefab365024a041e5b601eeca44d6a96afd45a8603275c8830af5eb888888888888888860405162000bbb9897969594939291906200215c565b60405180910390a15050505050505050565b62000bd7620014bb565b6000546001600160a01b0390811691161462000c075760405162461bcd60e51b8152600401620004169062001fec565b600080546040516001600160a01b03909116907f8be0079c531659141344cd1fd0a4f28419497f9722a3daafe3b4186f6b6457e0908390a3600080546001600160a01b0319169055565b6003546001600160a01b0316331462000c7e5760405162461bcd60e51b8152600401620004169062001f26565b6002600154141562000ca45760405162461bcd60e51b81526004016200041690620020d1565b600260015560065460009062000cc1908363ffffffff620016a516565b60025490915062000ce4906001600160a01b031685308463ffffffff620016e516565b6040805160e081018252918252602080830193845260068054848401908152600754606086019081526008546080870190815260095460a08801908152600a5460c089019081526001600160a01b03909a1660009081526005968790529690962096518755965160018088019190915591516002870155516003860155945160048501559151908301559251920191909155805550565b6002546001600160a01b031681565b6000546001600160a01b031690565b600e602052816000526040600020818154811062000db357fe5b6000918252602090912001546001600160a01b03169150829050565b6001600160a01b0391909116600090815260056020908152604080832093835260079093019052205460ff1690565b60035460405163c4277a7b60e01b81526000916001600160a01b03169063c4277a7b9062000e3190339060040162001c16565b60206040518083038186803b15801562000e4a57600080fd5b505afa15801562000e5f573d6000803e3d6000fd5b505050506040513d601f19601f8201168201806040525081019062000e85919062001a67565b62000ea45760405162461bcd60e51b8152600401620004169062001d74565b62000eb0823362000351565b62000eee576001600160a01b0382166000908152600e602090815260408220805460018101825590835291200180546001600160a01b031916331790555b5060015b919050565b6000805b600d5481101562000f4e57826001600160a01b0316600d828154811062000f1e57fe5b6000918252602090912001546001600160a01b0316141562000f4557600191505062000ef2565b60010162000efb565b50600092915050565b6003546001600160a01b031681565b6040805180820190915260068152656e616d65282960d01b60209091015260607f06fdde0383f15d582d1a74511486c9ddf862a882fb7904b3d9fe9b8b8e58a7966000805b6001600160a01b0385166000908152600e6020526040902054811015620010a4576001600160a01b0385166000908152600e6020526040812080548390811062000ff157fe5b9060005260206000200160009054906101000a90046001600160a01b0316905062001098816001600160a01b031663b7bc347e6040518163ffffffff1660e01b815260040160206040518083038186803b1580156200104f57600080fd5b505afa15801562001064573d6000803e3d6000fd5b505050506040513d601f19601f820116820180604052508101906200108a919062001a89565b849063ffffffff6200167d16565b92505060010162000fab565b506060816001600160401b0381118015620010be57600080fd5b50604051908082528060200260200182016040528015620010fc57816020015b620010e8620018c6565b815260200190600190039081620010de5790505b5090506000805b6001600160a01b0387166000908152600e60205260409020548110156200137e576001600160a01b0387166000908152600e602052604081208054839081106200114957fe5b60009182526020822001546001600160a01b031691505b816001600160a01b031663b7bc347e6040518163ffffffff1660e01b815260040160206040518083038186803b1580156200119a57600080fd5b505afa158015620011af573d6000803e3d6000fd5b505050506040513d601f19601f82011682018060405250810190620011d5919062001a89565b8110156200137357600080836001600160a01b03166357ac94f08c856040518363ffffffff1660e01b81526004016200121092919062001c4e565b604080518083038186803b1580156200122857600080fd5b505afa1580156200123d573d6000803e3d6000fd5b505050506040513d601f19601f8201168201806040525081019062001263919062001a37565b60408051600481526024810182526020810180516001600160e01b03166001600160e01b03198f1617905290519294509092506060916001600160a01b03851691620012af9162001bf8565b600060405180830381855afa9150503d8060008114620012ec576040519150601f19603f3d011682016040523d82523d6000602084013e620012f1565b606091505b50915050620012ff620018c6565b6040518060800160405280876001600160a01b03168152602001848152602001838152602001856001600160a01b03168152509050808989815181106200134257fe5b60209081029190910101526200136088600163ffffffff6200167d16565b9750506001909301925062001160915050565b505060010162001103565b509095945050505050565b62001393620014bb565b6000546001600160a01b03908116911614620013c35760405162461bcd60e51b8152600401620004169062001fec565b6001600160a01b038116620013ec5760405162461bcd60e51b8152600401620004169062001da6565b600080546040516001600160a01b03808516939216917f8be0079c531659141344cd1fd0a4f28419497f9722a3daafe3b4186f6b6457e091a3600080546001600160a01b0319166001600160a01b0392909216919091179055565b6003546001600160a01b031615620014735760405162461bcd60e51b8152600401620004169062001ede565b600380546001600160a01b03191633179055565b600454600654600754600854600954600a54600b54600c5496979596949593949293919290916001600160401b0390911690565b3390565b60006200150383836040518060400160405280601e81526020017f536166654d6174683a207375627472616374696f6e206f766572666c6f7700008152506200170f565b9392505050565b620015648363a9059cbb60e01b84846040516024016200152c92919062001c4e565b60408051601f198184030181529190526020810180516001600160e01b03166001600160e01b0319909316929092179091526200173e565b505050565b604080518082018252600d81526c6275726e2875696e743235362960981b60209091015260025490517f42966c689b5afe9b9b3f8a7103b2a19980d59629bfd6a20a60972312ed41d836916000916001600160a01b03909116908390620015d590869060240162002108565b60408051601f198184030181529181526020820180516001600160e01b03166001600160e01b031990941693909317909252905162001615919062001bf8565b6000604051808303816000865af19150503d806000811462001654576040519150601f19603f3d011682016040523d82523d6000602084013e62001659565b606091505b5050905080620015645760405162461bcd60e51b8152600401620004169062001f67565b600082820183811015620015035760405162461bcd60e51b8152600401620004169062001e2e565b600082620016b657506000620003d6565b82820282848281620016c457fe5b0414620015035760405162461bcd60e51b8152600401620004169062001fab565b62001709846323b872dd60e01b8585856040516024016200152c9392919062001c2a565b50505050565b60008184841115620017365760405162461bcd60e51b815260040162000416919062001d5f565b505050900390565b606062001795826040518060400160405280602081526020017f5361666545524332303a206c6f772d6c6576656c2063616c6c206661696c6564815250856001600160a01b0316620017d59092919063ffffffff16565b805190915015620015645780806020019051810190620017b6919062001a67565b620015645760405162461bcd60e51b8152600401620004169062002087565b606062000ab884846000856060620017ed85620018b2565b6200180c5760405162461bcd60e51b8152600401620004169062002021565b60006060866001600160a01b031685876040516200182b919062001bf8565b60006040518083038185875af1925050503d80600081146200186a576040519150601f19603f3d011682016040523d82523d6000602084013e6200186f565b606091505b509150915081156200188557915062000ab89050565b805115620018965780518082602001fd5b8360405162461bcd60e51b815260040162000416919062001d5f565b3b151590565b611d2d80620021f083390190565b604051806080016040528060006001600160a01b03168152602001600081526020016060815260200160006001600160a01b031681525090565b60008083601f84011262001912578182fd5b5081356001600160401b0381111562001929578182fd5b6020830191508360208285010111156200194257600080fd5b9250929050565b6000602082840312156200195b578081fd5b81356200150381620021d6565b6000602082840312156200197a578081fd5b81516200150381620021d6565b600080604083850312156200199a578081fd5b8235620019a781620021d6565b91506020830135620019b981620021d6565b809150509250929050565b600080600060608486031215620019d9578081fd5b8335620019e681620021d6565b92506020840135620019f881620021d6565b929592945050506040919091013590565b6000806040838503121562001a1c578182fd5b823562001a2981620021d6565b946020939093013593505050565b6000806040838503121562001a4a578182fd5b825162001a5781620021d6565b6020939093015192949293505050565b60006020828403121562001a79578081fd5b8151801515811462001503578182fd5b60006020828403121562001a9b578081fd5b5051919050565b6000806000806040858703121562001ab8578081fd5b84356001600160401b038082111562001acf578283fd5b62001add8883890162001900565b9096509450602087013591508082111562001af6578283fd5b5062001b058782880162001900565b95989497509550505050565b60006020828403121562001b23578081fd5b5035919050565b600080600080600080600080610100898b03121562001b47578384fd5b883597506020890135965060408901359550606089013594506080890135935060a0890135925060c0890135915060e08901356001600160401b038116811462001b8f578182fd5b809150509295985092959890939650565b60008284528282602086013780602084860101526020601f19601f85011685010190509392505050565b6000815180845262001be4816020860160208601620021a7565b601f01601f19169290920160200192915050565b6000825162001c0c818460208701620021a7565b9190910192915050565b6001600160a01b0391909116815260200190565b6001600160a01b039384168152919092166020820152604081019190915260600190565b6001600160a01b03929092168252602082015260400190565b60208082528251828201819052600091906040908185019080840286018301878501865b8381101562001cf957603f198984030185528151608062001cad82516200219b565b8552888201518986015287820151818987015262001cce8287018262001bca565b6060938401516001600160a01b03169690930195909552509487019492509086019060010162001c8b565b509098975050505050505050565b901515815260200190565b9182526001600160a01b0316602082015260400190565b60006040825262001d3f60408301868862001ba0565b828103602084015262001d5481858762001ba0565b979650505050505050565b60006020825262001503602083018462001bca565b6020808252601890820152774f6e6c7920666f72207265676973746572656420534c417360401b604082015260600190565b60208082526026908201527f4f776e61626c653a206e6577206f776e657220697320746865207a65726f206160408201526564647265737360d01b606082015260800190565b60208082526022908201527f506572696f64207265776172647320616c726561647920646973747269627574604082015261195960f21b606082015260800190565b6020808252601b908201527f536166654d6174683a206164646974696f6e206f766572666c6f770000000000604082015260600190565b6020808252602c908201527f5374616b696e6720706172616d65746572732073686f756c64206d617463682060408201526b37b71039bab6b6b0ba34b7b760a11b606082015260800190565b6020808252601390820152721d1bdad95b88185b1c9958591e481859191959606a1b604082015260600190565b60208082526028908201527f534c41526567697374727920616464726573732068617320616c7265616479206040820152671899595b881cd95d60c21b606082015260800190565b60208082526021908201527f43616e206f6e6c792062652063616c6c656420627920534c41526567697374726040820152607960f81b606082015260800190565b60208082526024908201527f44534c41206275726e2070726f6365737320776173206e6f74207375636365736040820152631cd99d5b60e21b606082015260800190565b60208082526021908201527f536166654d6174683a206d756c7469706c69636174696f6e206f766572666c6f6040820152607760f81b606082015260800190565b6020808252818101527f4f776e61626c653a2063616c6c6572206973206e6f7420746865206f776e6572604082015260600190565b6020808252601d908201527f416464726573733a2063616c6c20746f206e6f6e2d636f6e7472616374000000604082015260600190565b6020808252601590820152746c6f636b65642076616c756520697320656d70747960581b604082015260600190565b6020808252602a908201527f5361666545524332303a204552433230206f7065726174696f6e20646964206e6040820152691bdd081cdd58d8d9595960b21b606082015260800190565b6020808252601f908201527f5265656e7472616e637947756172643a207265656e7472616e742063616c6c00604082015260600190565b90815260200190565b93845260208401929092526040830152606082015260800190565b968752602087019590955260408601939093526060850191909152608084015260a083015260c082015260e00190565b978852602088019690965260408701949094526060860192909252608085015260a084015260c08301526001600160401b031660e08201526101000190565b6001600160a01b031690565b60005b83811015620021c4578181015183820152602001620021aa565b83811115620017095750506000910152565b6001600160a01b0381168114620021ec57600080fd5b5056fe60806040523480156200001157600080fd5b5060405162001d2d38038062001d2d833981810160405260408110156200003757600080fd5b81019080805160405193929190846401000000008211156200005857600080fd5b9083019060208201858111156200006e57600080fd5b82516401000000008111828201881017156200008957600080fd5b82525081516020918201929091019080838360005b83811015620000b85781810151838201526020016200009e565b50505050905090810190601f168015620000e65780820380516001836020036101000a031916815260200191505b50604052602001805160405193929190846401000000008211156200010a57600080fd5b9083019060208201858111156200012057600080fd5b82516401000000008111828201881017156200013b57600080fd5b82525081516020918201929091019080838360005b838110156200016a57818101518382015260200162000150565b50505050905090810190601f168015620001985780820380516001836020036101000a031916815260200191505b50604052505082518391508290620001b8906004906020850190620003be565b508051620001ce906005906020840190620003be565b50506006805461ff001960ff19909116601217169055506200020d6000620001fe6001600160e01b036200028516565b6001600160e01b036200028a16565b604080516a4d494e5445525f524f4c4560a81b8152905190819003600b0190206200024590620001fe6001600160e01b036200028516565b604080516a5041555345525f524f4c4560a81b8152905190819003600b0190206200027d90620001fe6001600160e01b036200028516565b505062000460565b335b90565b6200029f82826001600160e01b03620002a316565b5050565b600082815260208181526040909120620002c89183906200133462000325821b17901c565b156200029f57620002e16001600160e01b036200028516565b6001600160a01b0316816001600160a01b0316837f2f8788117e7eff1d82e926ec794901d17c78024a50270940304540a733656f0d60405160405180910390a45050565b600062000345836001600160a01b0384166001600160e01b036200034e16565b90505b92915050565b60006200036583836001600160e01b03620003a616565b6200039d5750815460018181018455600084815260208082209093018490558454848252828601909352604090209190915562000348565b50600062000348565b60009081526001919091016020526040902054151590565b828054600181600116156101000203166002900490600052602060002090601f016020900481019282601f106200040157805160ff191683800117855562000431565b8280016001018555821562000431579182015b828111156200043157825182559160200191906001019062000414565b506200043f92915062000443565b5090565b6200028791905b808211156200043f57600081556001016200044a565b6118bd80620004706000396000f3fe608060405234801561001057600080fd5b50600436106101795760003560e01c806370a08231116100d9578063a457c2d711610087578063a457c2d71461047a578063a9059cbb146104a6578063ca15c873146104d2578063d5391393146104ef578063d547741f146104f7578063dd62ed3e14610523578063e63ab1e91461055157610179565b806370a08231146103a557806379cc6790146103cb5780638456cb59146103f75780639010d07c146103ff57806391d148541461043e57806395d89b411461046a578063a217fddf1461047257610179565b8063313ce56711610136578063313ce567146102d657806336568abe146102f457806339509351146103205780633f4ba83a1461034c57806340c10f191461035457806342966c68146103805780635c975abb1461039d57610179565b806306fdde031461017e578063095ea7b3146101fb57806318160ddd1461023b57806323b872dd14610255578063248a9ca31461028b5780632f2ff15d146102a8575b600080fd5b610186610559565b6040805160208082528351818301528351919283929083019185019080838360005b838110156101c05781810151838201526020016101a8565b50505050905090810190601f1680156101ed5780820380516001836020036101000a031916815260200191505b509250505060405180910390f35b6102276004803603604081101561021157600080fd5b506001600160a01b0381351690602001356105ef565b604080519115158252519081900360200190f35b61024361060d565b60408051918252519081900360200190f35b6102276004803603606081101561026b57600080fd5b506001600160a01b03813581169160208101359091169060400135610613565b610243600480360360208110156102a157600080fd5b50356106a0565b6102d4600480360360408110156102be57600080fd5b50803590602001356001600160a01b03166106b5565b005b6102de610721565b6040805160ff9092168252519081900360200190f35b6102d46004803603604081101561030a57600080fd5b50803590602001356001600160a01b031661072a565b6102276004803603604081101561033657600080fd5b506001600160a01b03813516906020013561078b565b6102d46107df565b6102d46004803603604081101561036a57600080fd5b506001600160a01b038135169060200135610850565b6102d46004803603602081101561039657600080fd5b50356108c1565b6102276108d5565b610243600480360360208110156103bb57600080fd5b50356001600160a01b03166108e3565b6102d4600480360360408110156103e157600080fd5b506001600160a01b0381351690602001356108fe565b6102d461095e565b6104226004803603604081101561041557600080fd5b50803590602001356109cd565b604080516001600160a01b039092168252519081900360200190f35b6102276004803603604081101561045457600080fd5b50803590602001356001600160a01b03166109f2565b610186610a10565b610243610a71565b6102276004803603604081101561049057600080fd5b506001600160a01b038135169060200135610a76565b610227600480360360408110156104bc57600080fd5b506001600160a01b038135169060200135610ae4565b610243600480360360208110156104e857600080fd5b5035610af8565b610243610b0f565b6102d46004803603604081101561050d57600080fd5b50803590602001356001600160a01b0316610b32565b6102436004803603604081101561053957600080fd5b506001600160a01b0381358116916020013516610b8b565b610243610bb6565b60048054604080516020601f60026000196101006001881615020190951694909404938401819004810282018101909252828152606093909290918301828280156105e55780601f106105ba576101008083540402835291602001916105e5565b820191906000526020600020905b8154815290600101906020018083116105c857829003601f168201915b5050505050905090565b60006106036105fc610bd9565b8484610bdd565b5060015b92915050565b60035490565b6000610620848484610cc9565b6106968461062c610bd9565b610691856040518060600160405280602881526020016116c7602891396001600160a01b038a1660009081526002602052604081209061066a610bd9565b6001600160a01b03168152602081019190915260400160002054919063ffffffff610e2016565b610bdd565b5060019392505050565b60009081526020819052604090206002015490565b6000828152602081905260409020600201546106d8906106d3610bd9565b6109f2565b6107135760405162461bcd60e51b815260040180806020018281038252602f8152602001806115c5602f913960400191505060405180910390fd5b61071d8282610eb7565b5050565b60065460ff1690565b610732610bd9565b6001600160a01b0316816001600160a01b0316146107815760405162461bcd60e51b815260040180806020018281038252602f81526020018061182f602f913960400191505060405180910390fd5b61071d8282610f26565b6000610603610798610bd9565b8461069185600260006107a9610bd9565b6001600160a01b03908116825260208083019390935260409182016000908120918c16815292529020549063ffffffff610f9516565b604080516a5041555345525f524f4c4560a81b8152905190819003600b01902061080b906106d3610bd9565b6108465760405162461bcd60e51b81526004018080602001828103825260398152602001806116166039913960400191505060405180910390fd5b61084e610fef565b565b604080516a4d494e5445525f524f4c4560a81b8152905190819003600b01902061087c906106d3610bd9565b6108b75760405162461bcd60e51b81526004018080602001828103825260368152602001806116ef6036913960400191505060405180910390fd5b61071d8282611093565b6108d26108cc610bd9565b8261117f565b50565b600654610100900460ff1690565b6001600160a01b031660009081526001602052604090205490565b600061093b826040518060600160405280602481526020016117256024913961092e86610929610bd9565b610b8b565b919063ffffffff610e2016565b905061094f83610949610bd9565b83610bdd565b610959838361117f565b505050565b604080516a5041555345525f524f4c4560a81b8152905190819003600b01902061098a906106d3610bd9565b6109c55760405162461bcd60e51b81526004018080602001828103825260378152602001806117d36037913960400191505060405180910390fd5b61084e611275565b60008281526020819052604081206109eb908363ffffffff6112fd16565b9392505050565b60008281526020819052604081206109eb908363ffffffff61130916565b60058054604080516020601f60026000196101006001881615020190951694909404938401819004810282018101909252828152606093909290918301828280156105e55780601f106105ba576101008083540402835291602001916105e5565b600081565b6000610603610a83610bd9565b846106918560405180606001604052806025815260200161180a6025913960026000610aad610bd9565b6001600160a01b03908116825260208083019390935260409182016000908120918d1681529252902054919063ffffffff610e2016565b6000610603610af1610bd9565b8484610cc9565b60008181526020819052604081206106079061131e565b604080516a4d494e5445525f524f4c4560a81b8152905190819003600b01902081565b600082815260208190526040902060020154610b50906106d3610bd9565b6107815760405162461bcd60e51b81526004018080602001828103825260308152602001806116976030913960400191505060405180910390fd5b6001600160a01b03918216600090815260026020908152604080832093909416825291909152205490565b604080516a5041555345525f524f4c4560a81b8152905190819003600b01902081565b3390565b6001600160a01b038316610c225760405162461bcd60e51b81526004018080602001828103825260248152602001806117af6024913960400191505060405180910390fd5b6001600160a01b038216610c675760405162461bcd60e51b815260040180806020018281038252602281526020018061164f6022913960400191505060405180910390fd5b6001600160a01b03808416600081815260026020908152604080832094871680845294825291829020859055815185815291517f8c5be1e5ebec7d5bd14f71427d1e84f3dd0314c0f7b2291e5b200ac8c7c3b9259281900390910190a3505050565b6001600160a01b038316610d0e5760405162461bcd60e51b815260040180806020018281038252602581526020018061178a6025913960400191505060405180910390fd5b6001600160a01b038216610d535760405162461bcd60e51b81526004018080602001828103825260238152602001806115a26023913960400191505060405180910390fd5b610d5e838383611329565b610da181604051806060016040528060268152602001611671602691396001600160a01b038616600090815260016020526040902054919063ffffffff610e2016565b6001600160a01b038085166000908152600160205260408082209390935590841681522054610dd6908263ffffffff610f9516565b6001600160a01b03808416600081815260016020908152604091829020949094558051858152905191939287169260008051602061174983398151915292918290030190a3505050565b60008184841115610eaf5760405162461bcd60e51b81526004018080602001828103825283818151815260200191508051906020019080838360005b83811015610e74578181015183820152602001610e5c565b50505050905090810190601f168015610ea15780820380516001836020036101000a031916815260200191505b509250505060405180910390fd5b505050900390565b6000828152602081905260409020610ed5908263ffffffff61133416565b1561071d57610ee2610bd9565b6001600160a01b0316816001600160a01b0316837f2f8788117e7eff1d82e926ec794901d17c78024a50270940304540a733656f0d60405160405180910390a45050565b6000828152602081905260409020610f44908263ffffffff61134916565b1561071d57610f51610bd9565b6001600160a01b0316816001600160a01b0316837ff6391f5c32d9c69d2a47ea670b442974b53935d1edc7fd64eb21e047a839171b60405160405180910390a45050565b6000828201838110156109eb576040805162461bcd60e51b815260206004820152601b60248201527f536166654d6174683a206164646974696f6e206f766572666c6f770000000000604482015290519081900360640190fd5b600654610100900460ff16611042576040805162461bcd60e51b815260206004820152601460248201527314185d5cd8589b194e881b9bdd081c185d5cd95960621b604482015290519081900360640190fd5b6006805461ff00191690557f5db9ee0a495bf2e6ff9c91a7834c1ba4fdd244a5e8aa4e537bd38aeae4b073aa611076610bd9565b604080516001600160a01b039092168252519081900360200190a1565b6001600160a01b0382166110ee576040805162461bcd60e51b815260206004820152601f60248201527f45524332303a206d696e7420746f20746865207a65726f206164647265737300604482015290519081900360640190fd5b6110fa60008383611329565b60035461110d908263ffffffff610f9516565b6003556001600160a01b038216600090815260016020526040902054611139908263ffffffff610f9516565b6001600160a01b03831660008181526001602090815260408083209490945583518581529351929391926000805160206117498339815191529281900390910190a35050565b6001600160a01b0382166111c45760405162461bcd60e51b81526004018080602001828103825260218152602001806117696021913960400191505060405180910390fd5b6111d082600083611329565b611213816040518060600160405280602281526020016115f4602291396001600160a01b038516600090815260016020526040902054919063ffffffff610e2016565b6001600160a01b03831660009081526001602052604090205560035461123f908263ffffffff61135e16565b6003556040805182815290516000916001600160a01b038516916000805160206117498339815191529181900360200190a35050565b600654610100900460ff16156112c5576040805162461bcd60e51b815260206004820152601060248201526f14185d5cd8589b194e881c185d5cd95960821b604482015290519081900360640190fd5b6006805461ff0019166101001790557f62e78cea01bee320cd4e420270b5ea74000d11b0c9f74754ebdbfc544b05a258611076610bd9565b60006109eb83836113a0565b60006109eb836001600160a01b038416611404565b60006106078261141c565b610959838383611420565b60006109eb836001600160a01b03841661146f565b60006109eb836001600160a01b0384166114b9565b60006109eb83836040518060400160405280601e81526020017f536166654d6174683a207375627472616374696f6e206f766572666c6f770000815250610e20565b815460009082106113e25760405162461bcd60e51b81526004018080602001828103825260228152602001806115806022913960400191505060405180910390fd5b8260000182815481106113f157fe5b9060005260206000200154905092915050565b60009081526001919091016020526040902054151590565b5490565b61142b838383610959565b6114336108d5565b156109595760405162461bcd60e51b815260040180806020018281038252602a81526020018061185e602a913960400191505060405180910390fd5b600061147b8383611404565b6114b157508154600181810184556000848152602080822090930184905584548482528286019093526040902091909155610607565b506000610607565b6000818152600183016020526040812054801561157557835460001980830191908101906000908790839081106114ec57fe5b906000526020600020015490508087600001848154811061150957fe5b60009182526020808320909101929092558281526001898101909252604090209084019055865487908061153957fe5b60019003818190600052602060002001600090559055866001016000878152602001908152602001600020600090556001945050505050610607565b600091505061060756fe456e756d657261626c655365743a20696e646578206f7574206f6620626f756e647345524332303a207472616e7366657220746f20746865207a65726f2061646472657373416363657373436f6e74726f6c3a2073656e646572206d75737420626520616e2061646d696e20746f206772616e7445524332303a206275726e20616d6f756e7420657863656564732062616c616e636545524332305072657365744d696e7465725061757365723a206d75737420686176652070617573657220726f6c6520746f20756e706175736545524332303a20617070726f766520746f20746865207a65726f206164647265737345524332303a207472616e7366657220616d6f756e7420657863656564732062616c616e6365416363657373436f6e74726f6c3a2073656e646572206d75737420626520616e2061646d696e20746f207265766f6b6545524332303a207472616e7366657220616d6f756e74206578636565647320616c6c6f77616e636545524332305072657365744d696e7465725061757365723a206d7573742068617665206d696e74657220726f6c6520746f206d696e7445524332303a206275726e20616d6f756e74206578636565647320616c6c6f77616e6365ddf252ad1be2c89b69c2b068fc378daa952ba7f163c4a11628f55a4df523b3ef45524332303a206275726e2066726f6d20746865207a65726f206164647265737345524332303a207472616e736665722066726f6d20746865207a65726f206164647265737345524332303a20617070726f76652066726f6d20746865207a65726f206164647265737345524332305072657365744d696e7465725061757365723a206d75737420686176652070617573657220726f6c6520746f20706175736545524332303a2064656372656173656420616c6c6f77616e63652062656c6f77207a65726f416363657373436f6e74726f6c3a2063616e206f6e6c792072656e6f756e636520726f6c657320666f722073656c6645524332305061757361626c653a20746f6b656e207472616e73666572207768696c6520706175736564a26469706673582212204ce765929d431a576985b95a3e707e84b252e3ae4e8bb21d648a5c7e247c6bb364736f6c63430006060033a2646970667358221220a06d8469b68c4c612047e7fcb4582e1a52dc150714ef8c90f3a5cd1c7c80761164736f6c63430006060033",
  "immutableReferences": {},
  "source": "// SPDX-License-Identifier: MIT\npragma solidity 0.6.6;\npragma experimental ABIEncoderV2;\n\nimport \"@openzeppelin/contracts/access/Ownable.sol\";\nimport \"@openzeppelin/contracts/math/SafeMath.sol\";\nimport \"@openzeppelin/contracts/presets/ERC20PresetMinterPauser.sol\";\nimport \"@openzeppelin/contracts/token/ERC20/SafeERC20.sol\";\nimport \"@openzeppelin/contracts/token/ERC20/ERC20.sol\";\nimport \"@openzeppelin/contracts/utils/ReentrancyGuard.sol\";\nimport \"./SLA.sol\";\nimport \"./messenger/IMessenger.sol\";\nimport \"./SLARegistry.sol\";\nimport \"./StringUtils.sol\";\n\n/**\n * @title StakeRegistry\n * @dev StakeRegistry is a contract to register the staking activity of the platform, along\n with controlling certain admin privileged parameters\n */\ncontract StakeRegistry is Ownable, ReentrancyGuard {\n    using SafeERC20 for ERC20;\n    using SafeMath for uint256;\n\n    /// @dev struct to return on getActivePool function.\n    struct ActivePool {\n        address SLAAddress;\n        uint256 stake;\n        string assetName;\n        address assetAddress;\n    }\n\n    struct LockedValue {\n        uint256 lockedValue;\n        uint256 slaPeriodIdsLength;\n        uint256 dslaDepositByPeriod;\n        uint256 dslaPlatformReward;\n        uint256 dslaMessengerReward;\n        uint256 dslaUserReward;\n        uint256 dslaBurnedByVerification;\n        mapping(uint256 => bool) verifiedPeriods;\n    }\n\n    address public DSLATokenAddress;\n    SLARegistry public slaRegistry;\n\n    //______ onlyOwner modifiable parameters ______\n\n    /// @dev corresponds to the burn rate of DSLA tokens, but divided by 1000 i.e burn percentage = DSLAburnRate/1000 %\n    uint256 private _DSLAburnRate = 3;\n    /// @dev (ownerAddress => slaAddress => LockedValue) stores the locked value by the staker\n    mapping(address => LockedValue) public slaLockedValue;\n    /// @dev DSLA deposit by period to create SLA\n    uint256 private _dslaDepositByPeriod = 1000 ether;\n    /// @dev DSLA rewarded to the foundation\n    uint256 private _dslaPlatformReward = 250 ether;\n    /// @dev DSLA rewarded to the Messenger creator\n    uint256 private _dslaMessengerReward = 250 ether;\n    /// @dev DSLA rewarded to user calling the period verification\n    uint256 private _dslaUserReward = 250 ether;\n    /// @dev DSLA burned after every period verification\n    uint256 private _dslaBurnedByVerification = 250 ether;\n    /// @dev max token length for allowedTokens array of Staking contracts\n    uint256 private _maxTokenLength = 1;\n    /// @dev max times of hedge leverage\n    uint64 private _maxLeverage = 100;\n\n    /// @dev array with the allowed tokens addresses of the StakeRegistry\n    address[] public allowedTokens;\n\n    /// @dev (userAddress => SLA[]) with user staked SLAs to get tokenPool\n    mapping(address => SLA[]) public userStakedSlas;\n\n    /**\n     * @dev event to log a verifiation reward distributed\n     * @param sla 1. The address of the created service level agreement contract\n     * @param requester 2. -\n     * @param userReward 3. -\n     * @param platformReward 4. -\n     * @param messengerReward 5. -\n     * @param burnedDSLA 6. -\n     */\n    event VerificationRewardDistributed(\n        address indexed sla,\n        address indexed requester,\n        uint256 userReward,\n        uint256 platformReward,\n        uint256 messengerReward,\n        uint256 burnedDSLA\n    );\n\n    /**\n     * @dev event to log modifications on the staking parameters\n     *@param DSLAburnRate 1. (DSLAburnRate/1000)% of DSLA to be burned after a reward/compensation is paid\n     *@param dslaDepositByPeriod 2. DSLA deposit by period to create SLA\n     *@param dslaPlatformReward 3. DSLA rewarded to Stacktical team\n     *@param dslaUserReward 4. DSLA rewarded to user calling the period verification\n     *@param dslaBurnedByVerification 5. DSLA burned after every period verification\n     */\n    event StakingParametersModified(\n        uint256 DSLAburnRate,\n        uint256 dslaDepositByPeriod,\n        uint256 dslaPlatformReward,\n        uint256 dslaMessengerReward,\n        uint256 dslaUserReward,\n        uint256 dslaBurnedByVerification,\n        uint256 maxTokenLength,\n        uint64 maxLeverage\n    );\n\n    /**\n     * @param _dslaTokenAddress 1. DSLA Token\n     */\n    constructor(address _dslaTokenAddress) public {\n        require(\n            _dslaDepositByPeriod ==\n                _dslaPlatformReward\n                    .add(_dslaMessengerReward)\n                    .add(_dslaUserReward)\n                    .add(_dslaBurnedByVerification),\n            \"Staking parameters should match on summation\"\n        );\n        DSLATokenAddress = _dslaTokenAddress;\n        allowedTokens.push(_dslaTokenAddress);\n    }\n\n    /// @dev Throws if called by any address other than the SLARegistry contract or Chainlink Oracle.\n    modifier onlySLARegistry() {\n        require(\n            msg.sender == address(slaRegistry),\n            \"Can only be called by SLARegistry\"\n        );\n        _;\n    }\n\n    /**\n     * @dev sets the SLARegistry contract address and can only be called\n     * once\n     */\n    function setSLARegistry() external {\n        // Only able to trigger this function once\n        require(\n            address(slaRegistry) == address(0),\n            \"SLARegistry address has already been set\"\n        );\n\n        slaRegistry = SLARegistry(msg.sender);\n    }\n\n    /**\n     *@dev add a token to ve allowed for staking\n     *@param _tokenAddress 1. address of the new allowed token\n     */\n    function addAllowedTokens(address _tokenAddress) external onlyOwner {\n        require(!isAllowedToken(_tokenAddress), \"token already added\");\n        allowedTokens.push(_tokenAddress);\n    }\n\n    function isAllowedToken(address _tokenAddress) public view returns (bool) {\n        for (uint256 index = 0; index < allowedTokens.length; index++) {\n            if (allowedTokens[index] == _tokenAddress) {\n                return true;\n            }\n        }\n        return false;\n    }\n\n    /**\n     *@dev public view function that returns true if the _owner has staked on _sla\n     *@param _user 1. address to check\n     *@param _sla 2. sla to check\n     *@return bool, true if _sla was staked by _user\n     */\n\n    function slaWasStakedByUser(address _user, address _sla)\n        public\n        view\n        returns (bool)\n    {\n        for (uint256 index = 0; index < userStakedSlas[_user].length; index++) {\n            if (address(userStakedSlas[_user][index]) == _sla) {\n                return true;\n            }\n        }\n        return false;\n    }\n\n    /**\n     *@dev register the sending SLA contract as staked by _owner\n     *@param _owner 1. SLA contract to stake\n     */\n    function registerStakedSla(address _owner) external returns (bool) {\n        require(\n            slaRegistry.isRegisteredSLA(msg.sender),\n            \"Only for registered SLAs\"\n        );\n        if (!slaWasStakedByUser(_owner, msg.sender)) {\n            userStakedSlas[_owner].push(SLA(msg.sender));\n        }\n        return true;\n    }\n\n    /**\n     *@dev to create dTokens for staking\n     *@param _name 1. token name\n     *@param _symbol 2. token symbol\n     */\n    function createDToken(string calldata _name, string calldata _symbol)\n        external\n        returns (address)\n    {\n        require(\n            slaRegistry.isRegisteredSLA(msg.sender),\n            \"Only for registered SLAs\"\n        );\n        ERC20PresetMinterPauser dToken =\n            new ERC20PresetMinterPauser(_name, _symbol);\n        dToken.grantRole(dToken.MINTER_ROLE(), msg.sender);\n        return address(dToken);\n    }\n\n    function lockDSLAValue(\n        address _slaOwner,\n        address _sla,\n        uint256 _periodIdsLength\n    ) external onlySLARegistry nonReentrant {\n        uint256 lockedValue = _dslaDepositByPeriod.mul(_periodIdsLength);\n        ERC20(DSLATokenAddress).safeTransferFrom(\n            _slaOwner,\n            address(this),\n            lockedValue\n        );\n        slaLockedValue[_sla] = LockedValue({\n            lockedValue: lockedValue,\n            slaPeriodIdsLength: _periodIdsLength,\n            dslaDepositByPeriod: _dslaDepositByPeriod,\n            dslaPlatformReward: _dslaPlatformReward,\n            dslaMessengerReward: _dslaMessengerReward,\n            dslaUserReward: _dslaUserReward,\n            dslaBurnedByVerification: _dslaBurnedByVerification\n        });\n    }\n\n    function distributeVerificationRewards(\n        address _sla,\n        address _verificationRewardReceiver,\n        uint256 _periodId\n    ) external onlySLARegistry nonReentrant {\n        LockedValue storage _lockedValue = slaLockedValue[_sla];\n        require(\n            !_lockedValue.verifiedPeriods[_periodId],\n            \"Period rewards already distributed\"\n        );\n        _lockedValue.verifiedPeriods[_periodId] = true;\n        _lockedValue.lockedValue = _lockedValue.lockedValue.sub(\n            _lockedValue.dslaDepositByPeriod\n        );\n        ERC20(DSLATokenAddress).safeTransfer(\n            _verificationRewardReceiver,\n            _lockedValue.dslaUserReward\n        );\n        ERC20(DSLATokenAddress).safeTransfer(\n            owner(),\n            _lockedValue.dslaPlatformReward\n        );\n        ERC20(DSLATokenAddress).safeTransfer(\n            IMessenger(SLA(_sla).messengerAddress()).owner(),\n            _lockedValue.dslaMessengerReward\n        );\n        _burnDSLATokens(_lockedValue.dslaBurnedByVerification);\n        emit VerificationRewardDistributed(\n            _sla,\n            _verificationRewardReceiver,\n            _lockedValue.dslaUserReward,\n            _lockedValue.dslaPlatformReward,\n            _lockedValue.dslaMessengerReward,\n            _lockedValue.dslaBurnedByVerification\n        );\n    }\n\n    function returnLockedValue(address _sla)\n        external\n        onlySLARegistry\n        nonReentrant\n    {\n        LockedValue storage _lockedValue = slaLockedValue[_sla];\n        uint256 remainingBalance = _lockedValue.lockedValue;\n        require(remainingBalance > 0, \"locked value is empty\");\n        _lockedValue.lockedValue = 0;\n        ERC20(DSLATokenAddress).safeTransfer(\n            SLA(_sla).owner(),\n            remainingBalance\n        );\n    }\n\n    function _burnDSLATokens(uint256 _amount) internal {\n        bytes4 BURN_SELECTOR = bytes4(keccak256(bytes(\"burn(uint256)\")));\n        (bool _success, ) =\n            DSLATokenAddress.call(\n                abi.encodeWithSelector(BURN_SELECTOR, _amount)\n            );\n        require(_success, \"DSLA burn process was not successful\");\n    }\n\n    /**\n     * @dev returns the active pools owned by a user.\n     * @param _slaOwner 1. owner of the active pool\n     * @return ActivePool[], array of structs: {SLAAddress,stake,assetName}\n     */\n    function getActivePool(address _slaOwner)\n        external\n        view\n        returns (ActivePool[] memory)\n    {\n        bytes4 NAME_SELECTOR = bytes4(keccak256(bytes(\"name()\")));\n        uint256 stakeCounter = 0;\n        // Count the stakes of the user, checking every SLA staked\n        for (\n            uint256 index = 0;\n            index < userStakedSlas[_slaOwner].length;\n            index++\n        ) {\n            SLA currentSLA = SLA(userStakedSlas[_slaOwner][index]);\n            stakeCounter = stakeCounter.add(\n                currentSLA.getAllowedTokensLength()\n            );\n        }\n\n        ActivePool[] memory activePools = new ActivePool[](stakeCounter);\n        // to insert on activePools array\n        uint256 stakePosition = 0;\n        for (\n            uint256 index = 0;\n            index < userStakedSlas[_slaOwner].length;\n            index++\n        ) {\n            SLA currentSLA = userStakedSlas[_slaOwner][index];\n            for (\n                uint256 tokenIndex = 0;\n                tokenIndex < currentSLA.getAllowedTokensLength();\n                tokenIndex++\n            ) {\n                (address tokenAddress, uint256 stake) =\n                    currentSLA.getTokenStake(_slaOwner, tokenIndex);\n                (, bytes memory tokenNameBytes) =\n                    tokenAddress.staticcall(\n                        abi.encodeWithSelector(NAME_SELECTOR)\n                    );\n                ActivePool memory currentActivePool =\n                    ActivePool({\n                        SLAAddress: address(currentSLA),\n                        stake: stake,\n                        assetName: string(tokenNameBytes),\n                        assetAddress: tokenAddress\n                    });\n                activePools[stakePosition] = currentActivePool;\n                stakePosition = stakePosition.add(1);\n            }\n        }\n        return activePools;\n    }\n\n    //_______ OnlyOwner functions _______\n    function setStakingParameters(\n        uint256 DSLAburnRate,\n        uint256 dslaDepositByPeriod,\n        uint256 dslaPlatformReward,\n        uint256 dslaMessengerReward,\n        uint256 dslaUserReward,\n        uint256 dslaBurnedByVerification,\n        uint256 maxTokenLength,\n        uint64 maxLeverage\n    ) external onlyOwner {\n        _DSLAburnRate = DSLAburnRate;\n        _dslaDepositByPeriod = dslaDepositByPeriod;\n        _dslaPlatformReward = dslaPlatformReward;\n        _dslaMessengerReward = dslaMessengerReward;\n        _dslaUserReward = dslaUserReward;\n        _dslaBurnedByVerification = dslaBurnedByVerification;\n        _maxTokenLength = maxTokenLength;\n        _maxLeverage = maxLeverage;\n        require(\n            _dslaDepositByPeriod ==\n                _dslaPlatformReward\n                    .add(_dslaMessengerReward)\n                    .add(_dslaUserReward)\n                    .add(_dslaBurnedByVerification),\n            \"Staking parameters should match on summation\"\n        );\n        emit StakingParametersModified(\n            DSLAburnRate,\n            dslaDepositByPeriod,\n            dslaPlatformReward,\n            dslaMessengerReward,\n            dslaUserReward,\n            dslaBurnedByVerification,\n            maxTokenLength,\n            maxLeverage\n        );\n    }\n\n    function getStakingParameters()\n        external\n        view\n        returns (\n            uint256 DSLAburnRate,\n            uint256 dslaDepositByPeriod,\n            uint256 dslaPlatformReward,\n            uint256 dslaMessengerReward,\n            uint256 dslaUserReward,\n            uint256 dslaBurnedByVerification,\n            uint256 maxTokenLength,\n            uint64 maxLeverage\n        )\n    {\n        DSLAburnRate = _DSLAburnRate;\n        dslaDepositByPeriod = _dslaDepositByPeriod;\n        dslaPlatformReward = _dslaPlatformReward;\n        dslaMessengerReward = _dslaMessengerReward;\n        dslaUserReward = _dslaUserReward;\n        dslaBurnedByVerification = _dslaBurnedByVerification;\n        maxTokenLength = _maxTokenLength;\n        maxLeverage = _maxLeverage;\n    }\n\n    function periodIsVerified(address _sla, uint256 _periodId)\n        external\n        view\n        returns (bool)\n    {\n        return slaLockedValue[_sla].verifiedPeriods[_periodId];\n    }\n}\n",
  "sourcePath": "/Users/matiasbn/Desktop/stacktical/stacktical-dsla-contracts/contracts/StakeRegistry.sol",
  "compiler": {
    "name": "solc",
    "version": "0.6.6+commit.6c089d02.Emscripten.clang"
  },
  "schemaVersion": "3.3.3",
  "updatedAt": "2021-04-13T15:03:09.922Z",
  "networkType": "ethereum",
  "devdoc": {
    "details": "StakeRegistry is a contract to register the staking activity of the platform, along with controlling certain admin privileged parameters",
    "methods": {
      "constructor": {
        "params": {
          "_dslaTokenAddress": "1. DSLA Token"
        }
      },
      "getActivePool(address)": {
        "details": "returns the active pools owned by a user.",
        "params": {
          "_slaOwner": "1. owner of the active pool"
        },
        "returns": {
          "_0": "ActivePool[], array of structs: {SLAAddress,stake,assetName}"
        }
      },
      "owner()": {
        "details": "Returns the address of the current owner."
      },
      "renounceOwnership()": {
        "details": "Leaves the contract without owner. It will not be possible to call `onlyOwner` functions anymore. Can only be called by the current owner.     * NOTE: Renouncing ownership will leave the contract without an owner, thereby removing any functionality that is only available to the owner."
      },
      "setSLARegistry()": {
        "details": "sets the SLARegistry contract address and can only be called once"
      },
      "transferOwnership(address)": {
        "details": "Transfers ownership of the contract to a new account (`newOwner`). Can only be called by the current owner."
      }
    },
    "title": "StakeRegistry"
  },
  "userdoc": {
    "methods": {
      "addAllowedTokens(address)": {
        "notice": "dev add a token to ve allowed for staking param _tokenAddress 1. address of the new allowed token"
      },
      "createDToken(string,string)": {
        "notice": "dev to create dTokens for staking param _name 1. token name param _symbol 2. token symbol"
      },
      "registerStakedSla(address)": {
        "notice": "dev register the sending SLA contract as staked by _owner param _owner 1. SLA contract to stake"
      },
      "slaWasStakedByUser(address,address)": {
        "notice": "dev public view function that returns true if the _owner has staked on _sla param _user 1. address to check param _sla 2. sla to check return bool, true if _sla was staked by _user"
      }
    }
  }
}