{
  "contractName": "Staking",
  "abi": [
    {
      "inputs": [
        {
          "internalType": "contract bDSLAToken",
          "name": "_tokenAddress",
          "type": "address"
        },
        {
          "internalType": "uint256[]",
          "name": "_sla_period_starts",
          "type": "uint256[]"
        },
        {
          "internalType": "uint256[]",
          "name": "_sla_period_ends",
          "type": "uint256[]"
        },
        {
          "internalType": "address",
          "name": "_owner",
          "type": "address"
        }
      ],
      "stateMutability": "nonpayable",
      "type": "constructor"
    },
    {
      "anonymous": false,
      "inputs": [
        {
          "indexed": true,
          "internalType": "uint256",
          "name": "period_index",
          "type": "uint256"
        }
      ],
      "name": "NewPeriodAdded",
      "type": "event"
    },
    {
      "anonymous": false,
      "inputs": [
        {
          "indexed": true,
          "internalType": "address",
          "name": "previousOwner",
          "type": "address"
        },
        {
          "indexed": true,
          "internalType": "address",
          "name": "newOwner",
          "type": "address"
        }
      ],
      "name": "OwnershipTransferred",
      "type": "event"
    },
    {
      "inputs": [
        {
          "internalType": "uint256",
          "name": "",
          "type": "uint256"
        }
      ],
      "name": "allowedTokens",
      "outputs": [
        {
          "internalType": "address",
          "name": "",
          "type": "address"
        }
      ],
      "stateMutability": "view",
      "type": "function"
    },
    {
      "inputs": [],
      "name": "bDSLA",
      "outputs": [
        {
          "internalType": "contract bDSLAToken",
          "name": "",
          "type": "address"
        }
      ],
      "stateMutability": "view",
      "type": "function"
    },
    {
      "inputs": [],
      "name": "owner",
      "outputs": [
        {
          "internalType": "address",
          "name": "",
          "type": "address"
        }
      ],
      "stateMutability": "view",
      "type": "function"
    },
    {
      "inputs": [
        {
          "internalType": "uint256",
          "name": "",
          "type": "uint256"
        }
      ],
      "name": "periods",
      "outputs": [
        {
          "internalType": "uint256",
          "name": "sla_period_start",
          "type": "uint256"
        },
        {
          "internalType": "uint256",
          "name": "sla_period_end",
          "type": "uint256"
        },
        {
          "internalType": "uint256",
          "name": "claimed_reward",
          "type": "uint256"
        },
        {
          "internalType": "bool",
          "name": "claimed",
          "type": "bool"
        },
        {
          "internalType": "enum Staking.Status",
          "name": "status",
          "type": "uint8"
        }
      ],
      "stateMutability": "view",
      "type": "function"
    },
    {
      "inputs": [],
      "name": "renounceOwnership",
      "outputs": [],
      "stateMutability": "nonpayable",
      "type": "function"
    },
    {
      "inputs": [
        {
          "internalType": "uint256",
          "name": "",
          "type": "uint256"
        }
      ],
      "name": "stakers",
      "outputs": [
        {
          "internalType": "address",
          "name": "",
          "type": "address"
        }
      ],
      "stateMutability": "view",
      "type": "function"
    },
    {
      "inputs": [],
      "name": "totalStaked",
      "outputs": [
        {
          "internalType": "uint256",
          "name": "",
          "type": "uint256"
        }
      ],
      "stateMutability": "view",
      "type": "function"
    },
    {
      "inputs": [
        {
          "internalType": "address",
          "name": "newOwner",
          "type": "address"
        }
      ],
      "name": "transferOwnership",
      "outputs": [],
      "stateMutability": "nonpayable",
      "type": "function"
    },
    {
      "inputs": [
        {
          "internalType": "address",
          "name": "",
          "type": "address"
        }
      ],
      "name": "uniqueTokensStaked",
      "outputs": [
        {
          "internalType": "uint256",
          "name": "",
          "type": "uint256"
        }
      ],
      "stateMutability": "view",
      "type": "function"
    },
    {
      "inputs": [],
      "name": "validator",
      "outputs": [
        {
          "internalType": "address",
          "name": "",
          "type": "address"
        }
      ],
      "stateMutability": "view",
      "type": "function"
    },
    {
      "inputs": [
        {
          "internalType": "uint256",
          "name": "_sla_period_start",
          "type": "uint256"
        },
        {
          "internalType": "uint256",
          "name": "_sla_period_end",
          "type": "uint256"
        }
      ],
      "name": "addNewPeriod",
      "outputs": [],
      "stateMutability": "nonpayable",
      "type": "function"
    },
    {
      "inputs": [
        {
          "internalType": "address",
          "name": "_token",
          "type": "address"
        }
      ],
      "name": "addAllowedTokens",
      "outputs": [],
      "stateMutability": "nonpayable",
      "type": "function"
    },
    {
      "inputs": [
        {
          "internalType": "uint256",
          "name": "_amount",
          "type": "uint256"
        },
        {
          "internalType": "address",
          "name": "_token",
          "type": "address"
        },
        {
          "internalType": "uint256",
          "name": "_period",
          "type": "uint256"
        }
      ],
      "name": "stakeTokens",
      "outputs": [],
      "stateMutability": "nonpayable",
      "type": "function"
    },
    {
      "inputs": [
        {
          "internalType": "address",
          "name": "_token",
          "type": "address"
        },
        {
          "internalType": "uint256",
          "name": "_period",
          "type": "uint256"
        }
      ],
      "name": "withdraw",
      "outputs": [],
      "stateMutability": "nonpayable",
      "type": "function"
    },
    {
      "inputs": [
        {
          "internalType": "address",
          "name": "_token",
          "type": "address"
        },
        {
          "internalType": "uint256",
          "name": "_amount",
          "type": "uint256"
        },
        {
          "internalType": "uint256",
          "name": "_period",
          "type": "uint256"
        }
      ],
      "name": "withdrawAndStake",
      "outputs": [],
      "stateMutability": "nonpayable",
      "type": "function"
    },
    {
      "inputs": [
        {
          "internalType": "uint256",
          "name": "_period",
          "type": "uint256"
        }
      ],
      "name": "claimReward",
      "outputs": [],
      "stateMutability": "nonpayable",
      "type": "function"
    },
    {
      "inputs": [
        {
          "internalType": "uint256",
          "name": "_period",
          "type": "uint256"
        }
      ],
      "name": "claimCompensation",
      "outputs": [],
      "stateMutability": "nonpayable",
      "type": "function"
    },
    {
      "inputs": [
        {
          "internalType": "address",
          "name": "_user",
          "type": "address"
        },
        {
          "internalType": "uint256",
          "name": "_period",
          "type": "uint256"
        }
      ],
      "name": "getUserTotalValue",
      "outputs": [
        {
          "internalType": "uint256",
          "name": "",
          "type": "uint256"
        }
      ],
      "stateMutability": "view",
      "type": "function"
    },
    {
      "inputs": [],
      "name": "stakersCount",
      "outputs": [
        {
          "internalType": "uint256",
          "name": "",
          "type": "uint256"
        }
      ],
      "stateMutability": "view",
      "type": "function"
    },
    {
      "inputs": [
        {
          "internalType": "uint256",
          "name": "_periodId",
          "type": "uint256"
        }
      ],
      "name": "getPeriodData",
      "outputs": [
        {
          "internalType": "uint256",
          "name": "periodStart",
          "type": "uint256"
        },
        {
          "internalType": "uint256",
          "name": "periodEnd",
          "type": "uint256"
        }
      ],
      "stateMutability": "view",
      "type": "function"
    }
  ],
  "bytecode": "0x60806040523480156200001157600080fd5b50604051620021d2380380620021d2833981810160405260808110156200003757600080fd5b8151602083018051604051929492938301929190846401000000008211156200005f57600080fd5b9083019060208201858111156200007557600080fd5b82518660208202830111640100000000821117156200009357600080fd5b82525081516020918201928201910280838360005b83811015620000c2578181015183820152602001620000a8565b5050505090500160405260200180516040519392919084640100000000821115620000ec57600080fd5b9083019060208201858111156200010257600080fd5b82518660208202830111640100000000821117156200012057600080fd5b82525081516020918201928201910280838360005b838110156200014f57818101518382015260200162000135565b505050509190910160405250602001519150600090506200016f620002c0565b600080546001600160a01b0319166001600160a01b0383169081178255604051929350917f8be0079c531659141344cd1fd0a4f28419497f9722a3daafe3b4186f6b6457e0908290a3508151835114620001fb5760405162461bcd60e51b8152600401808060200182810382526029815260200180620021a96029913960400191505060405180910390fd5b600180546001600160a01b038087166001600160a01b03199283161780845560048054948501815560009081527f8a35acfbc15ff81a39ae7d344fd709f28e8600b4aa8c65c6b64bfe7fe36bd19b9094018054841691831691909117905560028054918516919092161790555b8351811015620002b557620002ac8482815181106200028357fe5b60200260200101518483815181106200029857fe5b6020026020010151620002c460201b60201c565b60010162000268565b50505050506200053c565b3390565b620002ce62000500565b82815260208101828152600060808301818152600580546001810182559252835160069092027f036b6384b5eca791c62761152d0c79bb0604c104a5fb6f4eb0703f3154bb3db0810192835592517f036b6384b5eca791c62761152d0c79bb0604c104a5fb6f4eb0703f3154bb3db184015560408401517f036b6384b5eca791c62761152d0c79bb0604c104a5fb6f4eb0703f3154bb3db284015560608401517f036b6384b5eca791c62761152d0c79bb0604c104a5fb6f4eb0703f3154bb3db3909301805493151560ff199094169390931780845590518493909161ff001916610100836002811115620003bf57fe5b02179055505050620003e660016005805490506200041460201b6200163c1790919060201c565b6040517ff791e873e3b67fe74b29aeede7bcbbdaa59c4b64e542571183cd837aa56f6ac990600090a2505050565b60006200045e83836040518060400160405280601e81526020017f536166654d6174683a207375627472616374696f6e206f766572666c6f7700008152506200046560201b60201c565b9392505050565b60008184841115620004f85760405162461bcd60e51b81526004018080602001828103825283818151815260200191508051906020019080838360005b83811015620004bc578181015183820152602001620004a2565b50505050905090810190601f168015620004ea5780820380516001836020036101000a031916815260200191505b509250505060405180910390fd5b505050900390565b6040518060a00160405280600081526020016000815260200160008152602001600015158152602001600060028111156200053757fe5b905290565b611c5d806200054c6000396000f3fe608060405234801561001057600080fd5b506004361061012c5760003560e01c8063a2e80c5e116100ad578063f10bd77211610071578063f10bd77214610317578063f2fde38b14610343578063f3fef3a314610369578063fc875ece14610395578063fd5e6dd1146103cb5761012c565b8063a2e80c5e1461023e578063ae169a5014610246578063b83e023414610263578063cec534d614610289578063ea4a1104146102bb5761012c565b80635f4efaba116100f45780635f4efaba146101da578063715018a6146101e257806375fdf2a9146101ea578063817b1cd21461021c5780638da5cb5b146102365761012c565b80630e1fcf3414610131578063171e44ea146101565780633a5381b51461017c57806353e85fd5146101a05780635e5f2e26146101bd575b600080fd5b6101546004803603604081101561014757600080fd5b50803590602001356103e8565b005b6101546004803603602081101561016c57600080fd5b50356001600160a01b031661044e565b6101846104f8565b604080516001600160a01b039092168252519081900360200190f35b610154600480360360208110156101b657600080fd5b5035610507565b610184600480360360208110156101d357600080fd5b50356107ed565b610184610814565b610154610823565b6101546004803603606081101561020057600080fd5b506001600160a01b0381351690602081013590604001356108c5565b610224610c72565b60408051918252519081900360200190f35b610184610c78565b610224610c87565b6101546004803603602081101561025c57600080fd5b5035610c8d565b6102246004803603602081101561027957600080fd5b50356001600160a01b0316610f04565b6101546004803603606081101561029f57600080fd5b508035906001600160a01b036020820135169060400135610f16565b6102d8600480360360208110156102d157600080fd5b503561112b565b60405180868152602001858152602001848152602001831515815260200182600281111561030257fe5b81526020019550505050505060405180910390f35b6102246004803603604081101561032d57600080fd5b506001600160a01b03813516906020013561116e565b6101546004803603602081101561035957600080fd5b50356001600160a01b031661121c565b6101546004803603604081101561037f57600080fd5b506001600160a01b038135169060200135611314565b6103b2600480360360208110156103ab57600080fd5b50356115e5565b6040805192835260208301919091528051918290030190f35b610184600480360360208110156103e157600080fd5b503561162f565b6103f061167e565b6000546001600160a01b03908116911614610440576040805162461bcd60e51b81526020600482018190526024820152600080516020611ba6833981519152604482015290519081900360640190fd5b61044a8282611682565b5050565b61045661167e565b6000546001600160a01b039081169116146104a6576040805162461bcd60e51b81526020600482018190526024820152600080516020611ba6833981519152604482015290519081900360640190fd5b600480546001810182556000919091527f8a35acfbc15ff81a39ae7d344fd709f28e8600b4aa8c65c6b64bfe7fe36bd19b0180546001600160a01b0319166001600160a01b0392909216919091179055565b6002546001600160a01b031681565b806005818154811061051557fe5b906000526020600020906006020160000154421015801561055457506005818154811061053e57fe5b9060005260206000209060060201600101544211155b61055d57600080fd5b6002546001600160a01b03163314156105b5576040805162461bcd60e51b8152602060048201526015602482015274596f752061726520612076616c696461746f72202160581b604482015290519081900360640190fd5b6002600583815481106105c457fe5b906000526020600020906006020160030160019054906101000a900460ff1660028111156105ee57fe5b14610632576040805162461bcd60e51b815260206004820152600f60248201526e534c4120726573706563746564202160881b604482015290519081900360640190fd5b6005828154811061063f57fe5b60009182526020808320338452600560069093020191909101905260409020541561069b5760405162461bcd60e51b815260040180806020018281038252603c815260200180611bec603c913960400191505060405180910390fd5b60006106a7338461116e565b905060006106c1600a6106bb8460036117bd565b90611816565b6007549091506106d1908361163c565b60078190555081600585815481106106e557fe5b6000918252602080832033808552600693909302016005018152604080842094909455600154845163a9059cbb60e01b815260048101939093526024830187905293516001600160a01b039094169363a9059cbb936044808501948390030190829087803b15801561075657600080fd5b505af115801561076a573d6000803e3d6000fd5b505050506040513d602081101561078057600080fd5b505060015460408051630852cd8d60e31b81526004810184905290516001600160a01b03909216916342966c689160248082019260009290919082900301818387803b1580156107cf57600080fd5b505af11580156107e3573d6000803e3d6000fd5b5050505050505050565b600481815481106107fa57fe5b6000918252602090912001546001600160a01b0316905081565b6001546001600160a01b031681565b61082b61167e565b6000546001600160a01b0390811691161461087b576040805162461bcd60e51b81526020600482018190526024820152600080516020611ba6833981519152604482015290519081900360640190fd5b600080546040516001600160a01b03909116907f8be0079c531659141344cd1fd0a4f28419497f9722a3daafe3b4186f6b6457e0908390a3600080546001600160a01b0319169055565b6002546001600160a01b031633141561091d576040805162461bcd60e51b8152602060048201526015602482015274596f752061726520612076616c696461746f72202160581b604482015290519081900360640190fd5b60006005828154811061092c57fe5b600091825260208083206001600160a01b038816845260046006909302019190910181526040808320338452909152902054116109ae576040805162461bcd60e51b815260206004820152601b60248201527a07374616b696e672062616c616e63652063616e6e6f74206265203602c1b604482015290519081900360640190fd5b6109b783611858565b6109f25760405162461bcd60e51b8152600401808060200182810382526026815260200180611bc66026913960400191505060405180910390fd5b604080516323b872dd60e01b81523360048201523060248201526044810184905290516001600160a01b038516916323b872dd9160648083019260209291908290030181600087803b158015610a4757600080fd5b505af1158015610a5b573d6000803e3d6000fd5b505050506040513d6020811015610a7157600080fd5b505060058054610abf91849184908110610a8757fe5b600091825260208083206001600160a01b038916845260046006909302019190910181526040808320338452909152902054906118b5565b60058281548110610acc57fe5b600091825260208083206001600160a01b038816845260046006909302019190910181526040808320338452909152902055600754610b0b90836118b5565b600781905550600060058281548110610b2057fe5b600091825260208083206001600160a01b03881684526004600690930201919091018152604080832033845290915281205460035460058054929450610b8a9286908110610b6a57fe5b90600052602060002090600602016002015461181690919063ffffffff16565b9050600060058481548110610b9b57fe5b600091825260208083206001600160a01b038a16845260046006909302019190910181526040808320338452909152902055600754610bda908361163c565b6007556001546001600160a01b031663a9059cbb33610bf9858561163c565b6040518363ffffffff1660e01b815260040180836001600160a01b0316815260200182815260200192505050602060405180830381600087803b158015610c3f57600080fd5b505af1158015610c53573d6000803e3d6000fd5b505050506040513d6020811015610c6957600080fd5b50505050505050565b60075481565b6000546001600160a01b031690565b60035490565b8060058181548110610c9b57fe5b9060005260206000209060060201600001544210158015610cda575060058181548110610cc457fe5b9060005260206000209060060201600101544211155b610ce357600080fd5b6002546001600160a01b03163314610d3e576040805162461bcd60e51b8152602060048201526019602482015278596f7520617265206e6f7420612076616c696461746f72202160381b604482015290519081900360640190fd5b600160058381548110610d4d57fe5b906000526020600020906006020160030160019054906101000a900460ff166002811115610d7757fe5b14610dbf576040805162461bcd60e51b8152602060048201526013602482015272534c41206e6f7420726573706563746564202160681b604482015290519081900360640190fd5b60058281548110610dcc57fe5b600091825260209091206003600690920201015460ff1615610e1f5760405162461bcd60e51b8152600401808060200182810382526036815260200180611b4f6036913960400191505060405180910390fd5b600554600754600091610e329190611816565b90506000610e46600a6106bb8460036117bd565b600754909150610e56908361163c565b6007819055508160058581548110610e6a57fe5b906000526020600020906006020160020181905550600160058581548110610e8e57fe5b60009182526020808320600692909202909101600301805460ff1916931515939093179092556001546040805163a9059cbb60e01b81523360048201526024810187905290516001600160a01b039092169363a9059cbb9360448084019492938390030190829087803b15801561075657600080fd5b60066020526000908152604090205481565b60008311610f60576040805162461bcd60e51b81526020600482015260126024820152710616d6f756e742063616e6e6f7420626520360741b604482015290519081900360640190fd5b610f6982611858565b610fa45760405162461bcd60e51b8152600401808060200182810382526026815260200180611bc66026913960400191505060405180910390fd5b610faf33838361190f565b604080516323b872dd60e01b81523360048201523060248201526044810185905290516001600160a01b038416916323b872dd9160648083019260209291908290030181600087803b15801561100457600080fd5b505af1158015611018573d6000803e3d6000fd5b505050506040513d602081101561102e57600080fd5b50506005805461107c9185918490811061104457fe5b600091825260208083206001600160a01b038816845260046006909302019190910181526040808320338452909152902054906118b5565b6005828154811061108957fe5b600091825260208083206001600160a01b0387168452600460069093020191909101815260408083203384529091529020556007546110c890846118b5565b600755336000908152600660205260409020546001141561112657600380546001810182556000919091527fc2575a0e9e593c00f959f8c92f12db2869c3395a3b0502d05e2516446f71f85b0180546001600160a01b031916331790555b505050565b6005818154811061113857fe5b60009182526020909120600690910201805460018201546002830154600390930154919350919060ff8082169161010090041685565b6001600160a01b0382166000908152600660205260408120548190156112135760005b60045481101561121157611207600585815481106111ab57fe5b90600052602060002090600602016004016000600484815481106111cb57fe5b60009182526020808320909101546001600160a01b0390811684528382019490945260409283018220938a1682529290925290205483906118b5565b9150600101611191565b505b90505b92915050565b61122461167e565b6000546001600160a01b03908116911614611274576040805162461bcd60e51b81526020600482018190526024820152600080516020611ba6833981519152604482015290519081900360640190fd5b6001600160a01b0381166112b95760405162461bcd60e51b8152600401808060200182810382526026815260200180611b296026913960400191505060405180910390fd5b600080546040516001600160a01b03808516939216917f8be0079c531659141344cd1fd0a4f28419497f9722a3daafe3b4186f6b6457e091a3600080546001600160a01b0319166001600160a01b0392909216919091179055565b6002546001600160a01b031633141561136c576040805162461bcd60e51b8152602060048201526015602482015274596f752061726520612076616c696461746f72202160581b604482015290519081900360640190fd5b60006005828154811061137b57fe5b600091825260208083206001600160a01b038716845260046006909302019190910181526040808320338452909152902054116113fd576040805162461bcd60e51b815260206004820152601b60248201527a07374616b696e672062616c616e63652063616e6e6f74206265203602c1b604482015290519081900360640190fd5b61140682611858565b6114415760405162461bcd60e51b8152600401808060200182810382526026815260200180611bc66026913960400191505060405180910390fd5b60006005828154811061145057fe5b600091825260208083206001600160a01b0387168452600460069093020191909101815260408083203384529091528120546003546005805492945061149a9286908110610b6a57fe5b90506000600584815481106114ab57fe5b600091825260208083206001600160a01b0389168452600460069093020191909101815260408083203384529091529020556007546114ea908361163c565b6007556001600160a01b03841663a9059cbb33611507858561163c565b6040518363ffffffff1660e01b815260040180836001600160a01b0316815260200182815260200192505050602060405180830381600087803b15801561154d57600080fd5b505af1158015611561573d6000803e3d6000fd5b505050506040513d602081101561157757600080fd5b50503360009081526006602052604090205461159490600161163c565b3360009081526006602052604090208190556115df5760006115b533611998565b9050600381815481106115c457fe5b600091825260209091200180546001600160a01b0319169055505b50505050565b600080600583815481106115f557fe5b9060005260206000209060060201600001546005848154811061161457fe5b90600052602060002090600602016001015491509150915091565b600381815481106107fa57fe5b600061121383836040518060400160405280601e81526020017f536166654d6174683a207375627472616374696f6e206f766572666c6f7700008152506119f1565b3390565b61168a611aed565b82815260208101828152600060808301818152600580546001810182559252835160069092027f036b6384b5eca791c62761152d0c79bb0604c104a5fb6f4eb0703f3154bb3db0810192835592517f036b6384b5eca791c62761152d0c79bb0604c104a5fb6f4eb0703f3154bb3db184015560408401517f036b6384b5eca791c62761152d0c79bb0604c104a5fb6f4eb0703f3154bb3db284015560608401517f036b6384b5eca791c62761152d0c79bb0604c104a5fb6f4eb0703f3154bb3db3909301805493151560ff199094169390931780845590518493909161ff00191661010083600281111561177a57fe5b02179055505060055461178f9150600161163c565b6040517ff791e873e3b67fe74b29aeede7bcbbdaa59c4b64e542571183cd837aa56f6ac990600090a2505050565b6000826117cc57506000611216565b828202828482816117d957fe5b04146112135760405162461bcd60e51b8152600401808060200182810382526021815260200180611b856021913960400191505060405180910390fd5b600061121383836040518060400160405280601a81526020017f536166654d6174683a206469766973696f6e206279207a65726f000000000000815250611a88565b6000805b6004548110156118aa57826001600160a01b03166004828154811061187d57fe5b6000918252602090912001546001600160a01b031614156118a25760019150506118b0565b60010161185c565b50600090505b919050565b600082820183811015611213576040805162461bcd60e51b815260206004820152601b60248201527f536166654d6174683a206164646974696f6e206f766572666c6f770000000000604482015290519081900360640190fd5b60006005828154811061191e57fe5b600091825260208083206001600160a01b0387811685526006939093020160040181526040808420928816845291905290205411611126576001600160a01b03831660009081526006602052604090205461197a9060016118b5565b6001600160a01b038416600090815260066020526040902055505050565b6000805b6003548110156119e757826001600160a01b0316600382815481106119bd57fe5b6000918252602090912001546001600160a01b031614156119df5790506118b0565b60010161199c565b5060001992915050565b60008184841115611a805760405162461bcd60e51b81526004018080602001828103825283818151815260200191508051906020019080838360005b83811015611a45578181015183820152602001611a2d565b50505050905090810190601f168015611a725780820380516001836020036101000a031916815260200191505b509250505060405180910390fd5b505050900390565b60008183611ad75760405162461bcd60e51b8152602060048201818152835160248401528351909283926044909101919085019080838360008315611a45578181015183820152602001611a2d565b506000838581611ae357fe5b0495945050505050565b6040518060a0016040528060008152602001600081526020016000815260200160001515815260200160006002811115611b2357fe5b90529056fe4f776e61626c653a206e6577206f776e657220697320746865207a65726f2061646472657373596f75206861766520616c726561647920636c61696d656420796f75722072657761726420666f72207468697320706572696f642021536166654d6174683a206d756c7469706c69636174696f6e206f766572666c6f774f776e61626c653a2063616c6c6572206973206e6f7420746865206f776e6572746f6b656e2073686f756c64206265206175746f726973656420746f206265207374616b6564596f75206861766520616c726561647920636c61696d656420796f757220636f6d70656e736174696f6e20666f72207468697320706572696f642021a2646970667358221220b990fa4f91b60998e69293fa11210eb4844b81784e5c76b5c357791037ccb7f664736f6c634300060c0033506c6561736520636865636b2074686520706172616d73206f6620796f757220706572696f64732021",
  "immutableReferences": {},
  "source": "// SPDX-License-Identifier: MIT\npragma solidity ^0.6.0;\n\nimport \"../bDSLA/bDSLAToken.sol\";\nimport \"@openzeppelin/contracts/token/ERC20/IERC20.sol\";\nimport \"@openzeppelin/contracts/access/Ownable.sol\";\nimport \"@openzeppelin/contracts/math/SafeMath.sol\";\n\ncontract Staking is Ownable {\n    using SafeMath for uint256;\n\n    enum Status {NotVerified, Respected, NotRespected}\n\n    struct Period {\n        uint256 sla_period_start;\n        uint256 sla_period_end;\n        uint256 claimed_reward;\n        bool claimed;\n        Status status;\n        mapping(address => mapping(address => uint256)) stakingBalance; // staking balance for all tokens (address token => (address user => amount))\n        mapping(address => uint256) claimed_compensation;\n    }\n\n    bDSLAToken public bDSLA;\n    address public validator;\n    address[] public stakers; // list of all stakers (validators, vouchers, delegators ...)\n    address[] public allowedTokens; // mapping for all allowed tokens to be staked\n    Period[] public periods; // all periods for an SLA\n    mapping(address => uint256) public uniqueTokensStaked; // mapping to trace how many token is staked by an user\n    uint256 public totalStaked;\n\n    event NewPeriodAdded(uint256 indexed period_index);\n\n    modifier notValidator {\n        require(msg.sender != validator, \"You are a validator !\");\n        _;\n    }\n\n    modifier onlyValidator {\n        require(msg.sender == validator, \"You are not a validator !\");\n        _;\n    }\n\n    modifier onlyInPeriod(uint256 _period) {\n        require(\n            block.timestamp >= periods[_period].sla_period_start &&\n                block.timestamp <= periods[_period].sla_period_end\n        );\n        _;\n    }\n\n    constructor(\n        bDSLAToken _tokenAddress,\n        uint256[] memory _sla_period_starts,\n        uint256[] memory _sla_period_ends,\n        address _owner\n    ) public {\n        require(\n            _sla_period_starts.length == _sla_period_ends.length,\n            \"Please check the params of your periods !\"\n        );\n        bDSLA = bDSLAToken(_tokenAddress);\n        allowedTokens.push(address(bDSLA));\n        validator = _owner;\n\n        for (uint256 i = 0; i < _sla_period_starts.length; i++) {\n            _addPeriod(_sla_period_starts[i], _sla_period_ends[i]);\n        }\n    }\n\n    // add new period\n    function addNewPeriod(uint256 _sla_period_start, uint256 _sla_period_end)\n        public\n        onlyOwner\n    {\n        _addPeriod(_sla_period_start, _sla_period_end);\n    }\n\n    // autorise a new token to be staked\n    function addAllowedTokens(address _token) public onlyOwner {\n        allowedTokens.push(_token);\n    }\n\n    // stake an amount of token\n    function stakeTokens(\n        uint256 _amount,\n        address _token,\n        uint256 _period\n    ) public {\n        require(_amount > 0, \"amount cannot be 0\");\n        require(\n            _tokenIsAllowed(_token),\n            \"token should be autorised to be staked\"\n        );\n\n        // check if the staker had already staked another token or not\n        _updateUniqueTokensStaked(msg.sender, _token, _period);\n        // stake tokens\n        IERC20(_token).transferFrom(msg.sender, address(this), _amount);\n        // update balance of staked tokens per staker\n        periods[_period].stakingBalance[_token][msg.sender] = periods[_period]\n            .stakingBalance[_token][msg.sender]\n            .add(_amount);\n        totalStaked = totalStaked.add(_amount);\n\n        // if the token is the unique one staked by the staker\n        // add the staker to the list\n        if (uniqueTokensStaked[msg.sender] == 1) {\n            stakers.push(msg.sender);\n        }\n    }\n\n    // Unstaking Tokens\n    function withdraw(address _token, uint256 _period) public notValidator {\n        // check if staker has staked tokens\n        require(\n            periods[_period].stakingBalance[_token][msg.sender] > 0,\n            \"staking balance cannot be 0\"\n        );\n        require(\n            _tokenIsAllowed(_token),\n            \"token should be autorised to be staked\"\n        );\n\n        // unstake bDSLA tokens\n        uint256 staked = periods[_period].stakingBalance[_token][msg.sender];\n        uint256 claimed_reward = periods[_period].claimed_reward.div(\n            stakers.length\n        );\n\n        periods[_period].stakingBalance[_token][msg.sender] = 0;\n        totalStaked = totalStaked.sub(staked);\n        IERC20(_token).transfer(msg.sender, staked.sub(claimed_reward));\n\n        // update uniqueTokensStaked for the staker\n        uniqueTokensStaked[msg.sender] = uniqueTokensStaked[msg.sender].sub(1);\n\n        if (uniqueTokensStaked[msg.sender] == 0) {\n            uint256 index = _getIndex(msg.sender);\n            delete stakers[index];\n        }\n    }\n\n    // withdraw bDSLA and stake d Tokens\n    function withdrawAndStake(\n        address _token,\n        uint256 _amount,\n        uint256 _period\n    ) public notValidator {\n        // check if staker has staked tokens\n        require(\n            periods[_period].stakingBalance[_token][msg.sender] > 0,\n            \"staking balance cannot be 0\"\n        );\n        require(\n            _tokenIsAllowed(_token),\n            \"token should be autorised to be staked\"\n        );\n\n        // stake d tokens\n        IERC20(_token).transferFrom(msg.sender, address(this), _amount);\n        // update balance of staked tokens per staker\n        periods[_period].stakingBalance[_token][msg.sender] = periods[_period]\n            .stakingBalance[_token][msg.sender]\n            .add(_amount);\n        totalStaked = totalStaked.add(_amount);\n\n        // unstake bDSLA tokens\n        uint256 staked = periods[_period].stakingBalance[_token][msg.sender];\n        uint256 claimed_reward = periods[_period].claimed_reward.div(\n            stakers.length\n        );\n\n        periods[_period].stakingBalance[_token][msg.sender] = 0;\n        totalStaked = totalStaked.sub(staked);\n        bDSLA.transfer(msg.sender, staked.sub(claimed_reward));\n    }\n\n    // claim from validators\n    function claimReward(uint256 _period)\n        public\n        onlyInPeriod(_period)\n        onlyValidator\n    {\n        require(\n            periods[_period].status == Status.Respected,\n            \"SLA not respected !\"\n        );\n        require(\n            !periods[_period].claimed,\n            \"You have already claimed your reward for this period !\"\n        );\n\n        uint256 reward = totalStaked.div(periods.length);\n        uint256 fees = reward.mul(3).div(10);\n\n        totalStaked = totalStaked.sub(reward);\n        periods[_period].claimed_reward = reward;\n        periods[_period].claimed = true;\n\n        bDSLA.transfer(msg.sender, reward);\n        bDSLA.burn(fees);\n    }\n\n    // claim from delegators\n    function claimCompensation(uint256 _period)\n        public\n        onlyInPeriod(_period)\n        notValidator\n    {\n        require(\n            periods[_period].status == Status.NotRespected,\n            \"SLA respected !\"\n        );\n        require(\n            periods[_period].claimed_compensation[msg.sender] == 0,\n            \"You have already claimed your compensation for this period !\"\n        );\n\n        uint256 compensation = getUserTotalValue(msg.sender, _period);\n        uint256 fees = compensation.mul(3).div(10);\n\n        totalStaked = totalStaked.sub(compensation);\n        periods[_period].claimed_compensation[msg.sender] = compensation;\n\n        bDSLA.transfer(msg.sender, compensation);\n        bDSLA.burn(fees);\n    }\n\n    function getUserTotalValue(address _user, uint256 _period)\n        public\n        view\n        returns (uint256)\n    {\n        uint256 totalValue = 0;\n        if (uniqueTokensStaked[_user] > 0) {\n            for (\n                uint256 allowedTokensIndex = 0;\n                allowedTokensIndex < allowedTokens.length;\n                allowedTokensIndex++\n            ) {\n                totalValue = totalValue.add(\n                    periods[_period]\n                        .stakingBalance[allowedTokens[allowedTokensIndex]][_user]\n                );\n            }\n        }\n        return totalValue;\n    }\n\n    function _tokenIsAllowed(address token) internal view returns (bool) {\n        for (\n            uint256 allowedTokensIndex = 0;\n            allowedTokensIndex < allowedTokens.length;\n            allowedTokensIndex++\n        ) {\n            if (allowedTokens[allowedTokensIndex] == token) {\n                return true;\n            }\n        }\n        return false;\n    }\n\n    function _updateUniqueTokensStaked(\n        address _user,\n        address _token,\n        uint256 _period\n    ) internal {\n        if (periods[_period].stakingBalance[_token][_user] <= 0) {\n            uniqueTokensStaked[_user] = uniqueTokensStaked[_user].add(1);\n        }\n    }\n\n    function _getIndex(address _user) internal view returns (uint256) {\n        for (uint256 i = 0; i < stakers.length; i++) {\n            if (stakers[i] == _user) {\n                return i;\n            }\n        }\n        return (uint256(-1));\n    }\n\n    function _addPeriod(uint256 _sla_period_start, uint256 _sla_period_end)\n        internal\n    {\n        Period memory _period;\n\n        _period.sla_period_start = _sla_period_start;\n        _period.sla_period_end = _sla_period_end;\n        _period.status = Status.NotVerified;\n\n        periods.push(_period);\n\n        emit NewPeriodAdded(periods.length.sub(1));\n    }\n\n    /**\n     * @dev public view function that returns the total amount of stakers\n     *\n     */\n    function stakersCount() public view returns (uint256) {\n        return stakers.length;\n    }\n\n    function getPeriodData(uint256 _periodId) public view returns (uint256 periodStart, uint256 periodEnd){\n        return (periods[_periodId].sla_period_start,periods[_periodId].sla_period_end);\n    }\n}\n",
  "sourcePath": "/Users/matiasbn/Desktop/stacktical/stacktical-dsla-contracts/contracts/SLA/Staking.sol",
  "compiler": {
    "name": "solc",
    "version": "0.6.12+commit.27d51765.Emscripten.clang"
  },
  "schemaVersion": "3.2.5",
  "updatedAt": "2020-12-17T21:14:48.961Z",
  "devdoc": {
    "kind": "dev",
    "methods": {
      "owner()": {
        "details": "Returns the address of the current owner."
      },
      "renounceOwnership()": {
        "details": "Leaves the contract without owner. It will not be possible to call `onlyOwner` functions anymore. Can only be called by the current owner. NOTE: Renouncing ownership will leave the contract without an owner, thereby removing any functionality that is only available to the owner."
      },
      "stakersCount()": {
        "details": "public view function that returns the total amount of stakers"
      },
      "transferOwnership(address)": {
        "details": "Transfers ownership of the contract to a new account (`newOwner`). Can only be called by the current owner."
      }
    },
    "version": 1
  },
  "userdoc": {
    "kind": "user",
    "methods": {},
    "version": 1
  }
}