{
  "contractName": "Staking",
  "abi": [
    {
      "inputs": [
        {
          "internalType": "address",
          "name": "_baseTokenAddress",
          "type": "address"
        },
        {
          "internalType": "uint256[]",
          "name": "_sla_period_starts",
          "type": "uint256[]"
        },
        {
          "internalType": "uint256[]",
          "name": "_sla_period_ends",
          "type": "uint256[]"
        },
        {
          "internalType": "address",
          "name": "_owner",
          "type": "address"
        }
      ],
      "stateMutability": "nonpayable",
      "type": "constructor"
    },
    {
      "anonymous": false,
      "inputs": [
        {
          "indexed": true,
          "internalType": "uint256",
          "name": "period_index",
          "type": "uint256"
        }
      ],
      "name": "NewPeriodAdded",
      "type": "event"
    },
    {
      "anonymous": false,
      "inputs": [
        {
          "indexed": true,
          "internalType": "address",
          "name": "previousOwner",
          "type": "address"
        },
        {
          "indexed": true,
          "internalType": "address",
          "name": "newOwner",
          "type": "address"
        }
      ],
      "name": "OwnershipTransferred",
      "type": "event"
    },
    {
      "inputs": [],
      "name": "BaseToken",
      "outputs": [
        {
          "internalType": "contract IERC20",
          "name": "",
          "type": "address"
        }
      ],
      "stateMutability": "view",
      "type": "function"
    },
    {
      "inputs": [
        {
          "internalType": "uint256",
          "name": "",
          "type": "uint256"
        }
      ],
      "name": "allowedTokens",
      "outputs": [
        {
          "internalType": "address",
          "name": "",
          "type": "address"
        }
      ],
      "stateMutability": "view",
      "type": "function"
    },
    {
      "inputs": [
        {
          "internalType": "address",
          "name": "",
          "type": "address"
        }
      ],
      "name": "allowedTokensMapping",
      "outputs": [
        {
          "internalType": "bool",
          "name": "",
          "type": "bool"
        }
      ],
      "stateMutability": "view",
      "type": "function"
    },
    {
      "inputs": [],
      "name": "owner",
      "outputs": [
        {
          "internalType": "address",
          "name": "",
          "type": "address"
        }
      ],
      "stateMutability": "view",
      "type": "function"
    },
    {
      "inputs": [
        {
          "internalType": "uint256",
          "name": "",
          "type": "uint256"
        }
      ],
      "name": "periods",
      "outputs": [
        {
          "internalType": "uint256",
          "name": "sla_period_start",
          "type": "uint256"
        },
        {
          "internalType": "uint256",
          "name": "sla_period_end",
          "type": "uint256"
        },
        {
          "internalType": "uint256",
          "name": "claimed_reward",
          "type": "uint256"
        },
        {
          "internalType": "bool",
          "name": "claimed",
          "type": "bool"
        },
        {
          "internalType": "enum Staking.Status",
          "name": "status",
          "type": "uint8"
        }
      ],
      "stateMutability": "view",
      "type": "function"
    },
    {
      "inputs": [],
      "name": "renounceOwnership",
      "outputs": [],
      "stateMutability": "nonpayable",
      "type": "function"
    },
    {
      "inputs": [
        {
          "internalType": "uint256",
          "name": "",
          "type": "uint256"
        }
      ],
      "name": "stakers",
      "outputs": [
        {
          "internalType": "address",
          "name": "",
          "type": "address"
        }
      ],
      "stateMutability": "view",
      "type": "function"
    },
    {
      "inputs": [
        {
          "internalType": "address",
          "name": "",
          "type": "address"
        }
      ],
      "name": "tokensPool",
      "outputs": [
        {
          "internalType": "uint256",
          "name": "",
          "type": "uint256"
        }
      ],
      "stateMutability": "view",
      "type": "function"
    },
    {
      "inputs": [],
      "name": "totalStaked",
      "outputs": [
        {
          "internalType": "uint256",
          "name": "",
          "type": "uint256"
        }
      ],
      "stateMutability": "view",
      "type": "function"
    },
    {
      "inputs": [
        {
          "internalType": "address",
          "name": "newOwner",
          "type": "address"
        }
      ],
      "name": "transferOwnership",
      "outputs": [],
      "stateMutability": "nonpayable",
      "type": "function"
    },
    {
      "inputs": [
        {
          "internalType": "address",
          "name": "",
          "type": "address"
        }
      ],
      "name": "uniqueTokensStaked",
      "outputs": [
        {
          "internalType": "uint256",
          "name": "",
          "type": "uint256"
        }
      ],
      "stateMutability": "view",
      "type": "function"
    },
    {
      "inputs": [
        {
          "internalType": "address",
          "name": "",
          "type": "address"
        },
        {
          "internalType": "address",
          "name": "",
          "type": "address"
        }
      ],
      "name": "userStakedTokens",
      "outputs": [
        {
          "internalType": "bool",
          "name": "",
          "type": "bool"
        }
      ],
      "stateMutability": "view",
      "type": "function"
    },
    {
      "inputs": [
        {
          "internalType": "address",
          "name": "",
          "type": "address"
        },
        {
          "internalType": "address",
          "name": "",
          "type": "address"
        }
      ],
      "name": "userStakedTokensIndex",
      "outputs": [
        {
          "internalType": "uint256",
          "name": "",
          "type": "uint256"
        }
      ],
      "stateMutability": "view",
      "type": "function"
    },
    {
      "inputs": [
        {
          "internalType": "address",
          "name": "",
          "type": "address"
        },
        {
          "internalType": "uint256",
          "name": "",
          "type": "uint256"
        }
      ],
      "name": "userStakes",
      "outputs": [
        {
          "internalType": "address",
          "name": "tokenAddress",
          "type": "address"
        },
        {
          "internalType": "uint256",
          "name": "stake",
          "type": "uint256"
        }
      ],
      "stateMutability": "view",
      "type": "function"
    },
    {
      "inputs": [],
      "name": "validator",
      "outputs": [
        {
          "internalType": "address",
          "name": "",
          "type": "address"
        }
      ],
      "stateMutability": "view",
      "type": "function"
    },
    {
      "inputs": [
        {
          "internalType": "uint256",
          "name": "_sla_period_start",
          "type": "uint256"
        },
        {
          "internalType": "uint256",
          "name": "_sla_period_end",
          "type": "uint256"
        }
      ],
      "name": "addNewPeriod",
      "outputs": [],
      "stateMutability": "nonpayable",
      "type": "function"
    },
    {
      "inputs": [
        {
          "internalType": "address",
          "name": "_token",
          "type": "address"
        }
      ],
      "name": "addAllowedTokens",
      "outputs": [],
      "stateMutability": "nonpayable",
      "type": "function"
    },
    {
      "inputs": [
        {
          "internalType": "uint256",
          "name": "_amount",
          "type": "uint256"
        },
        {
          "internalType": "address",
          "name": "_token",
          "type": "address"
        },
        {
          "internalType": "uint256",
          "name": "_period",
          "type": "uint256"
        }
      ],
      "name": "stakeTokens",
      "outputs": [],
      "stateMutability": "nonpayable",
      "type": "function"
    },
    {
      "inputs": [
        {
          "internalType": "address",
          "name": "_token",
          "type": "address"
        },
        {
          "internalType": "uint256",
          "name": "_period",
          "type": "uint256"
        }
      ],
      "name": "withdraw",
      "outputs": [],
      "stateMutability": "nonpayable",
      "type": "function"
    },
    {
      "inputs": [
        {
          "internalType": "address",
          "name": "_token",
          "type": "address"
        },
        {
          "internalType": "uint256",
          "name": "_amount",
          "type": "uint256"
        },
        {
          "internalType": "uint256",
          "name": "_period",
          "type": "uint256"
        }
      ],
      "name": "withdrawAndStake",
      "outputs": [],
      "stateMutability": "nonpayable",
      "type": "function"
    },
    {
      "inputs": [
        {
          "internalType": "uint256",
          "name": "_period",
          "type": "uint256"
        }
      ],
      "name": "claimReward",
      "outputs": [],
      "stateMutability": "nonpayable",
      "type": "function"
    },
    {
      "inputs": [
        {
          "internalType": "uint256",
          "name": "_period",
          "type": "uint256"
        }
      ],
      "name": "claimCompensation",
      "outputs": [],
      "stateMutability": "nonpayable",
      "type": "function"
    },
    {
      "inputs": [
        {
          "internalType": "address",
          "name": "_user",
          "type": "address"
        },
        {
          "internalType": "uint256",
          "name": "_period",
          "type": "uint256"
        }
      ],
      "name": "getUserTotalValue",
      "outputs": [
        {
          "internalType": "uint256",
          "name": "",
          "type": "uint256"
        }
      ],
      "stateMutability": "view",
      "type": "function"
    },
    {
      "inputs": [],
      "name": "stakersCount",
      "outputs": [
        {
          "internalType": "uint256",
          "name": "",
          "type": "uint256"
        }
      ],
      "stateMutability": "view",
      "type": "function"
    },
    {
      "inputs": [
        {
          "internalType": "uint256",
          "name": "_periodId",
          "type": "uint256"
        }
      ],
      "name": "getPeriodData",
      "outputs": [
        {
          "internalType": "uint256",
          "name": "periodStart",
          "type": "uint256"
        },
        {
          "internalType": "uint256",
          "name": "periodEnd",
          "type": "uint256"
        }
      ],
      "stateMutability": "view",
      "type": "function"
    },
    {
      "inputs": [
        {
          "internalType": "address",
          "name": "_owner",
          "type": "address"
        }
      ],
      "name": "getTokenStakeLength",
      "outputs": [
        {
          "internalType": "uint256",
          "name": "",
          "type": "uint256"
        }
      ],
      "stateMutability": "view",
      "type": "function"
    },
    {
      "inputs": [
        {
          "internalType": "address",
          "name": "_owner",
          "type": "address"
        },
        {
          "internalType": "uint256",
          "name": "_index",
          "type": "uint256"
        }
      ],
      "name": "getTokenStake",
      "outputs": [
        {
          "internalType": "address",
          "name": "tokenAddress",
          "type": "address"
        },
        {
          "internalType": "uint256",
          "name": "stake",
          "type": "uint256"
        }
      ],
      "stateMutability": "view",
      "type": "function"
    }
  ],
  "bytecode": "0x60806040523480156200001157600080fd5b50604051620028ba380380620028ba833981810160405260808110156200003757600080fd5b8151602083018051604051929492938301929190846401000000008211156200005f57600080fd5b9083019060208201858111156200007557600080fd5b82518660208202830111640100000000821117156200009357600080fd5b82525081516020918201928201910280838360005b83811015620000c2578181015183820152602001620000a8565b5050505090500160405260200180516040519392919084640100000000821115620000ec57600080fd5b9083019060208201858111156200010257600080fd5b82518660208202830111640100000000821117156200012057600080fd5b82525081516020918201928201910280838360005b838110156200014f57818101518382015260200162000135565b505050509190910160405250602001519150600090506200016f620002d0565b600080546001600160a01b0319166001600160a01b0383169081178255604051929350917f8be0079c531659141344cd1fd0a4f28419497f9722a3daafe3b4186f6b6457e0908290a3508151835114620001fb5760405162461bcd60e51b8152600401808060200182810382526029815260200180620028916029913960400191505060405180910390fd5b600480546001600160a01b038084166001600160a01b0319928316179092556001805492871692821683178155600680548083019091557ff652222313e28459528d920b65115c16c04f3efc82aaedc97be59f3f377c0d3f01805490921683179091556000918252600760205260408220805460ff191690911790555b8351811015620002c557620002bc8482815181106200029357fe5b6020026020010151848381518110620002a857fe5b6020026020010151620002d460201b60201c565b60010162000278565b505050505062000553565b3390565b620002de62000517565b82815260208101828152600060808301818152600280546001810182559281905284517f405787fa12a823e0f2b7631cc41b3ba8828b3321ca811111fa75cd3aa3bb5ace600690940293840190815593517f405787fa12a823e0f2b7631cc41b3ba8828b3321ca811111fa75cd3aa3bb5acf84015560408501517f405787fa12a823e0f2b7631cc41b3ba8828b3321ca811111fa75cd3aa3bb5ad084015560608501517f405787fa12a823e0f2b7631cc41b3ba8828b3321ca811111fa75cd3aa3bb5ad1909301805460ff19169315159390931780845591518594939092909161ff001990911690610100908490811115620003d657fe5b02179055505050620003fd60016002805490506200042b60201b62001b1a1790919060201c565b6040517ff791e873e3b67fe74b29aeede7bcbbdaa59c4b64e542571183cd837aa56f6ac990600090a2505050565b60006200047583836040518060400160405280601e81526020017f536166654d6174683a207375627472616374696f6e206f766572666c6f7700008152506200047c60201b60201c565b9392505050565b600081848411156200050f5760405162461bcd60e51b81526004018080602001828103825283818151815260200191508051906020019080838360005b83811015620004d3578181015183820152602001620004b9565b50505050905090810190601f168015620005015780820380516001836020036101000a031916815260200191505b509250505060405180910390fd5b505050900390565b6040518060a00160405280600081526020016000815260200160008152602001600015158152602001600060028111156200054e57fe5b905290565b61232e80620005636000396000f3fe608060405234801561001057600080fd5b50600436106101795760003560e01c806390f81702116100d9578063ec04de4811610087578063ec04de4814610475578063f10bd7721461049b578063f2fde38b146104c7578063f3fef3a3146104ed578063fc875ece14610519578063fd0d55341461054f578063fd5e6dd11461057557610179565b806390f8170214610368578063a2e80c5e14610370578063ae169a5014610378578063b5d5b5fa14610395578063b83e0234146103c1578063cec534d6146103e7578063ea4a11041461041957610179565b806353e85fd51161013657806353e85fd51461029557806357ac94f0146102b25780635e5f2e2614610301578063715018a61461031e57806375fdf2a914610326578063817b1cd2146103585780638da5cb5b1461036057610179565b80630e1fcf341461017e578063105237cf146101a3578063171e44ea146101dd5780631934d0e8146102035780632eac9787146102315780633a5381b514610271575b600080fd5b6101a16004803603604081101561019457600080fd5b5080359060200135610592565b005b6101c9600480360360208110156101b957600080fd5b50356001600160a01b03166105f8565b604080519115158252519081900360200190f35b6101a1600480360360208110156101f357600080fd5b50356001600160a01b031661060d565b6101c96004803603604081101561021957600080fd5b506001600160a01b0381358116916020013516610730565b61025f6004803603604081101561024757600080fd5b506001600160a01b0381358116916020013516610750565b60408051918252519081900360200190f35b61027961076d565b604080516001600160a01b039092168252519081900360200190f35b6101a1600480360360208110156102ab57600080fd5b503561077c565b6102de600480360360408110156102c857600080fd5b506001600160a01b038135169060200135610b35565b604080516001600160a01b03909316835260208301919091528051918290030190f35b6102796004803603602081101561031757600080fd5b5035610bb5565b6101a1610bdc565b6101a16004803603606081101561033c57600080fd5b506001600160a01b038135169060208101359060400135610c7e565b61025f611070565b610279611076565b610279611085565b61025f611094565b6101a16004803603602081101561038e57600080fd5b503561109a565b6102de600480360360408110156103ab57600080fd5b506001600160a01b038135169060200135611311565b61025f600480360360208110156103d757600080fd5b50356001600160a01b0316611354565b6101a1600480360360608110156103fd57600080fd5b508035906001600160a01b036020820135169060400135611366565b6104366004803603602081101561042f57600080fd5b50356115ad565b60405180868152602001858152602001848152602001831515815260200182600281111561046057fe5b81526020019550505050505060405180910390f35b61025f6004803603602081101561048b57600080fd5b50356001600160a01b03166115f0565b61025f600480360360408110156104b157600080fd5b506001600160a01b03813516906020013561160f565b6101a1600480360360208110156104dd57600080fd5b50356001600160a01b03166116bd565b6101a16004803603604081101561050357600080fd5b506001600160a01b0381351690602001356117b5565b6105366004803603602081101561052f57600080fd5b5035611ab1565b6040805192835260208301919091528051918290030190f35b61025f6004803603602081101561056557600080fd5b50356001600160a01b0316611afb565b6102796004803603602081101561058b57600080fd5b5035611b0d565b61059a611b5c565b6000546001600160a01b039081169116146105ea576040805162461bcd60e51b8152602060048201819052602482015260008051602061229d833981519152604482015290519081900360640190fd5b6105f48282611b60565b5050565b60076020526000908152604090205460ff1681565b610615611b5c565b6000546001600160a01b03908116911614610665576040805162461bcd60e51b8152602060048201819052602482015260008051602061229d833981519152604482015290519081900360640190fd5b6001600160a01b03811660009081526007602052604090205460ff16156106c9576040805162461bcd60e51b81526020600482015260136024820152721d1bdad95b88185b1c9958591e481859191959606a1b604482015290519081900360640190fd5b6006805460018181019092557ff652222313e28459528d920b65115c16c04f3efc82aaedc97be59f3f377c0d3f0180546001600160a01b039093166001600160a01b031990931683179055600091825260076020526040909120805460ff19169091179055565b600b60209081526000928352604080842090915290825290205460ff1681565b600a60209081526000928352604080842090915290825290205481565b6004546001600160a01b031681565b806002818154811061078a57fe5b90600052602060002090600602016000015442101580156107c95750600281815481106107b357fe5b9060005260206000209060060201600101544211155b6107d257600080fd5b6004546001600160a01b031633141561082a576040805162461bcd60e51b8152602060048201526015602482015274596f752061726520612076616c696461746f72202160581b604482015290519081900360640190fd5b600280838154811061083857fe5b906000526020600020906006020160030160019054906101000a900460ff16600281111561086257fe5b146108a6576040805162461bcd60e51b815260206004820152600f60248201526e534c4120726573706563746564202160881b604482015290519081900360640190fd5b600282815481106108b357fe5b60009182526020808320338452600560069093020191909101905260409020541561090f5760405162461bcd60e51b815260040180806020018281038252603c8152602001806122bd603c913960400191505060405180910390fd5b600061091b338461160f565b90506000610935600a61092f846003611ca2565b90611cfb565b6003549091506109459083611b1a565b600381905550816002858154811061095957fe5b6000918252602080832033808552600693909302016005018152604080842094909455600154845163a9059cbb60e01b815260048101939093526024830187905293516001600160a01b039094169363a9059cbb936044808501948390030190829087803b1580156109ca57600080fd5b505af11580156109de573d6000803e3d6000fd5b505050506040513d60208110156109f457600080fd5b5050600154604080518082018252600d81526c6275726e2875696e743235362960981b60209182015281516024808201869052835180830390910181526044909101835290810180516001600160e01b0316630852cd8d60e31b178152915181516000946001600160a01b03169382918083835b60208310610a875780518252601f199092019160209182019101610a68565b6001836020036101000a0380198251168184511680821785525050505050509050019150506000604051808303816000865af19150503d8060008114610ae9576040519150601f19603f3d011682016040523d82523d6000602084013e610aee565b606091505b5050905080610b2e5760405162461bcd60e51b81526004018080602001828103825260298152602001806121f76029913960400191505060405180910390fd5b5050505050565b6001600160a01b0382166000908152600960205260408120805482919084908110610b5c57fe5b600091825260208083206002909202909101546001600160a01b03878116845260099092526040909220805491909216919085908110610b9857fe5b906000526020600020906002020160010154915091509250929050565b60068181548110610bc257fe5b6000918252602090912001546001600160a01b0316905081565b610be4611b5c565b6000546001600160a01b03908116911614610c34576040805162461bcd60e51b8152602060048201819052602482015260008051602061229d833981519152604482015290519081900360640190fd5b600080546040516001600160a01b03909116907f8be0079c531659141344cd1fd0a4f28419497f9722a3daafe3b4186f6b6457e0908390a3600080546001600160a01b0319169055565b6004546001600160a01b0316331415610cd6576040805162461bcd60e51b8152602060048201526015602482015274596f752061726520612076616c696461746f72202160581b604482015290519081900360640190fd5b6001600160a01b038316600090815260076020526040902054839060ff161515600114610d41576040805162461bcd60e51b81526020600482015260146024820152731d1bdad95b881a5cc81b9bdd08185b1b1bddd95960621b604482015290519081900360640190fd5b600060028381548110610d5057fe5b600091825260208083206001600160a01b03891684526004600690930201919091018152604080832033845290915290205411610dd2576040805162461bcd60e51b815260206004820152601b60248201527a07374616b696e672062616c616e63652063616e6e6f74206265203602c1b604482015290519081900360640190fd5b604080516323b872dd60e01b81523360048201523060248201526044810185905290516001600160a01b038616916323b872dd9160648083019260209291908290030181600087803b158015610e2757600080fd5b505af1158015610e3b573d6000803e3d6000fd5b505050506040513d6020811015610e5157600080fd5b505060028054610e9f91859185908110610e6757fe5b600091825260208083206001600160a01b038a1684526004600690930201919091018152604080832033845290915290205490611d3d565b60028381548110610eac57fe5b600091825260208083206001600160a01b038916845260046006909302019190910181526040808320338452909152902055600354610eeb9084611d3d565b600355610ef88484611d97565b600060028381548110610f0757fe5b600091825260208083206001600160a01b03891684526004600690930201919091018152604080832033845290915281205460055460028054929450610f719287908110610f5157fe5b906000526020600020906006020160020154611cfb90919063ffffffff16565b9050600060028581548110610f8257fe5b600091825260208083206001600160a01b038b16845260046006909302019190910181526040808320338452909152902055600354610fc19083611b1a565b6003556001546001600160a01b031663a9059cbb33610fe08585611b1a565b6040518363ffffffff1660e01b815260040180836001600160a01b0316815260200182815260200192505050602060405180830381600087803b15801561102657600080fd5b505af115801561103a573d6000803e3d6000fd5b505050506040513d602081101561105057600080fd5b5050600154611068906001600160a01b031683611f37565b505050505050565b60035481565b6000546001600160a01b031690565b6001546001600160a01b031681565b60055490565b80600281815481106110a857fe5b90600052602060002090600602016000015442101580156110e75750600281815481106110d157fe5b9060005260206000209060060201600101544211155b6110f057600080fd5b6004546001600160a01b0316331461114b576040805162461bcd60e51b8152602060048201526019602482015278596f7520617265206e6f7420612076616c696461746f72202160381b604482015290519081900360640190fd5b60016002838154811061115a57fe5b906000526020600020906006020160030160019054906101000a900460ff16600281111561118457fe5b146111cc576040805162461bcd60e51b8152602060048201526013602482015272534c41206e6f7420726573706563746564202160681b604482015290519081900360640190fd5b600282815481106111d957fe5b600091825260209091206003600690920201015460ff161561122c5760405162461bcd60e51b81526004018080602001828103825260368152602001806122466036913960400191505060405180910390fd5b60025460035460009161123f9190611cfb565b90506000611253600a61092f846003611ca2565b6003549091506112639083611b1a565b600381905550816002858154811061127757fe5b90600052602060002090600602016002018190555060016002858154811061129b57fe5b60009182526020808320600692909202909101600301805460ff1916931515939093179092556001546040805163a9059cbb60e01b81523360048201526024810187905290516001600160a01b039092169363a9059cbb9360448084019492938390030190829087803b1580156109ca57600080fd5b6009602052816000526040600020818154811061132a57fe5b6000918252602090912060029091020180546001909101546001600160a01b039091169250905082565b60086020526000908152604090205481565b6001600160a01b038216600090815260076020526040902054829060ff1615156001146113d1576040805162461bcd60e51b81526020600482015260146024820152731d1bdad95b881a5cc81b9bdd08185b1b1bddd95960621b604482015290519081900360640190fd5b6000841161141b576040805162461bcd60e51b81526020600482015260126024820152710616d6f756e742063616e6e6f7420626520360741b604482015290519081900360640190fd5b611426338484611fdc565b604080516323b872dd60e01b81523360048201523060248201526044810186905290516001600160a01b038516916323b872dd9160648083019260209291908290030181600087803b15801561147b57600080fd5b505af115801561148f573d6000803e3d6000fd5b505050506040513d60208110156114a557600080fd5b5050600280546114f3918691859081106114bb57fe5b600091825260208083206001600160a01b03891684526004600690930201919091018152604080832033845290915290205490611d3d565b6002838154811061150057fe5b600091825260208083206001600160a01b03881684526004600690930201919091018152604080832033845290915290205560035461153f9085611d3d565b600355336000908152600860205260409020546001141561159d57600580546001810182556000919091527f036b6384b5eca791c62761152d0c79bb0604c104a5fb6f4eb0703f3154bb3db00180546001600160a01b031916331790555b6115a78385611d97565b50505050565b600281815481106115ba57fe5b60009182526020909120600690910201805460018201546002830154600390930154919350919060ff8082169161010090041685565b6001600160a01b0381166000908152600960205260409020545b919050565b6001600160a01b0382166000908152600860205260408120548190156116b45760005b6006548110156116b2576116a86002858154811061164c57fe5b906000526020600020906006020160040160006006848154811061166c57fe5b60009182526020808320909101546001600160a01b0390811684528382019490945260409283018220938a168252929092529020548390611d3d565b9150600101611632565b505b90505b92915050565b6116c5611b5c565b6000546001600160a01b03908116911614611715576040805162461bcd60e51b8152602060048201819052602482015260008051602061229d833981519152604482015290519081900360640190fd5b6001600160a01b03811661175a5760405162461bcd60e51b81526004018080602001828103825260268152602001806122206026913960400191505060405180910390fd5b600080546040516001600160a01b03808516939216917f8be0079c531659141344cd1fd0a4f28419497f9722a3daafe3b4186f6b6457e091a3600080546001600160a01b0319166001600160a01b0392909216919091179055565b6004546001600160a01b031633141561180d576040805162461bcd60e51b8152602060048201526015602482015274596f752061726520612076616c696461746f72202160581b604482015290519081900360640190fd5b6001600160a01b038216600090815260076020526040902054829060ff161515600114611878576040805162461bcd60e51b81526020600482015260146024820152731d1bdad95b881a5cc81b9bdd08185b1b1bddd95960621b604482015290519081900360640190fd5b60006002838154811061188757fe5b600091825260208083206001600160a01b03881684526004600690930201919091018152604080832033845290915290205411611909576040805162461bcd60e51b815260206004820152601b60248201527a07374616b696e672062616c616e63652063616e6e6f74206265203602c1b604482015290519081900360640190fd5b60006002838154811061191857fe5b600091825260208083206001600160a01b038816845260046006909302019190910181526040808320338452909152812054600554600280549294506119629287908110610f5157fe5b905060006002858154811061197357fe5b600091825260208083206001600160a01b038a168452600460069093020191909101815260408083203384529091529020556003546119b29083611b1a565b6003556001600160a01b03851663a9059cbb336119cf8585611b1a565b6040518363ffffffff1660e01b815260040180836001600160a01b0316815260200182815260200192505050602060405180830381600087803b158015611a1557600080fd5b505af1158015611a29573d6000803e3d6000fd5b505050506040513d6020811015611a3f57600080fd5b505033600090815260086020526040902054611a5c906001611b1a565b336000908152600860205260409020819055611aa7576000611a7d33612066565b905060058181548110611a8c57fe5b600091825260209091200180546001600160a01b0319169055505b610b2e8583611f37565b60008060028381548110611ac157fe5b90600052602060002090600602016000015460028481548110611ae057fe5b90600052602060002090600602016001015491509150915091565b600c6020526000908152604090205481565b60058181548110610bc257fe5b60006116b483836040518060400160405280601e81526020017f536166654d6174683a207375627472616374696f6e206f766572666c6f7700008152506120bf565b3390565b611b686121bb565b82815260208101828152600060808301818152600280546001810182559281905284517f405787fa12a823e0f2b7631cc41b3ba8828b3321ca811111fa75cd3aa3bb5ace600690940293840190815593517f405787fa12a823e0f2b7631cc41b3ba8828b3321ca811111fa75cd3aa3bb5acf84015560408501517f405787fa12a823e0f2b7631cc41b3ba8828b3321ca811111fa75cd3aa3bb5ad084015560608501517f405787fa12a823e0f2b7631cc41b3ba8828b3321ca811111fa75cd3aa3bb5ad1909301805460ff19169315159390931780845591518594939092909161ff001990911690610100908490811115611c5f57fe5b021790555050600254611c7491506001611b1a565b6040517ff791e873e3b67fe74b29aeede7bcbbdaa59c4b64e542571183cd837aa56f6ac990600090a2505050565b600082611cb1575060006116b7565b82820282848281611cbe57fe5b04146116b45760405162461bcd60e51b815260040180806020018281038252602181526020018061227c6021913960400191505060405180910390fd5b60006116b483836040518060400160405280601a81526020017f536166654d6174683a206469766973696f6e206279207a65726f000000000000815250612156565b6000828201838110156116b4576040805162461bcd60e51b815260206004820152601b60248201527f536166654d6174683a206164646974696f6e206f766572666c6f770000000000604482015290519081900360640190fd5b336000908152600b602090815260408083206001600160a01b038616845290915290205460ff16611e6257336000818152600960209081526040808320815180830183526001600160a01b03888116808352828601898152845460018082018755868a52888a209551600290920290950180546001600160a01b0319169190941617835551918301919091558686529154600a85528386208387528552838620600019919091019055948452600b83528184209084529091529020805460ff19169091179055611ef4565b336000818152600a602090815260408083206001600160a01b0387168452825280832054938352600990915290208054611ec291849184908110611ea257fe5b906000526020600020906002020160010154611d3d90919063ffffffff16565b336000908152600960205260409020805483908110611edd57fe5b906000526020600020906002020160010181905550505b6001600160a01b0382166000908152600c6020526040902054611f179082611d3d565b6001600160a01b039092166000908152600c602052604090209190915550565b336000818152600a602090815260408083206001600160a01b0387168452825280832054938352600990915290208054611f9791849184908110611f7757fe5b906000526020600020906002020160010154611b1a90919063ffffffff16565b506001600160a01b0383166000908152600c6020526040902054611fbb9083611b1a565b6001600160a01b039093166000908152600c60205260409020929092555050565b600060028281548110611feb57fe5b600091825260208083206001600160a01b0387811685526006939093020160040181526040808420928816845291905290205411612061576001600160a01b038316600090815260086020526040902054612047906001611d3d565b6001600160a01b0384166000908152600860205260409020555b505050565b6000805b6005548110156120b557826001600160a01b03166005828154811061208b57fe5b6000918252602090912001546001600160a01b031614156120ad57905061160a565b60010161206a565b5060001992915050565b6000818484111561214e5760405162461bcd60e51b81526004018080602001828103825283818151815260200191508051906020019080838360005b838110156121135781810151838201526020016120fb565b50505050905090810190601f1680156121405780820380516001836020036101000a031916815260200191505b509250505060405180910390fd5b505050900390565b600081836121a55760405162461bcd60e51b81526020600482018181528351602484015283519092839260449091019190850190808383600083156121135781810151838201526020016120fb565b5060008385816121b157fe5b0495945050505050565b6040518060a00160405280600081526020016000815260200160008152602001600015158152602001600060028111156121f157fe5b90529056fe42617365546f6b656e206275726e2070726f6365737320776173206e6f74207375636365737366756c4f776e61626c653a206e6577206f776e657220697320746865207a65726f2061646472657373596f75206861766520616c726561647920636c61696d656420796f75722072657761726420666f72207468697320706572696f642021536166654d6174683a206d756c7469706c69636174696f6e206f766572666c6f774f776e61626c653a2063616c6c6572206973206e6f7420746865206f776e6572596f75206861766520616c726561647920636c61696d656420796f757220636f6d70656e736174696f6e20666f72207468697320706572696f642021a2646970667358221220706e4d20114b8403f9c661fd3d5a97cdda0d7655f64a0264b8809433e6111fa664736f6c634300060c0033506c6561736520636865636b2074686520706172616d73206f6620796f757220706572696f64732021",
  "immutableReferences": {},
  "source": "// SPDX-License-Identifier: MIT\npragma solidity ^0.6.0;\n\nimport \"@openzeppelin/contracts/token/ERC20/IERC20.sol\";\nimport \"@openzeppelin/contracts/access/Ownable.sol\";\nimport \"@openzeppelin/contracts/math/SafeMath.sol\";\n\ncontract Staking is Ownable {\n    using SafeMath for uint256;\n\n    enum Status {NotVerified, Respected, NotRespected}\n\n    struct Period {\n        uint256 sla_period_start;\n        uint256 sla_period_end;\n        uint256 claimed_reward;\n        bool claimed;\n        Status status;\n        mapping(address => mapping(address => uint256)) stakingBalance; // staking balance for all tokens (address token => (address user => amount))\n        mapping(address => uint256) claimed_compensation;\n    }\n\n    struct TokenStake {\n        address tokenAddress;\n        uint256 stake;\n    }\n    bytes4 private constant BURN_SELECTOR =\n        bytes4(keccak256(bytes(\"burn(uint256)\")));\n\n    /// @dev IERC20 of the base stake address for the SLA\n    IERC20 public BaseToken;\n\n    /// @dev all periods for an SLA\n    Period[] public periods;\n\n    /// @dev userAddress => erc20Address => index of userStakes mapping array\n    uint256 public totalStaked;\n    /// @dev address of the validator for the SLA\n    address public validator;\n    /// @dev list of all stakers (validators, vouchers, delegators ...)\n    address[] public stakers;\n    /// @dev array with the allowed tokens addresses of the SLA\n    address[] public allowedTokens;\n    /// @dev mapping for all allowed tokens to be staked\n    mapping(address => bool) public allowedTokensMapping;\n    /// @dev (mapping) userAddress => amountOf tokens mapping\n    mapping(address => uint256) public uniqueTokensStaked;\n    /// @dev (mapping) userAddress => TokenStake[] mapping\n    mapping(address => TokenStake[]) public userStakes;\n    /// @dev (mapping) userAddress => erc20Address => index: index of the TokenStake array\n    mapping(address => mapping(address => uint256))\n        public userStakedTokensIndex;\n    /// @dev (mapping) userAddress => erc20Address => bool: user has erc20Address staked\n    mapping(address => mapping(address => bool)) public userStakedTokens;\n    /// @dev (mapping) erc20Address => stakeAmount: stake amount by tokenAddress\n    mapping(address => uint256) public tokensPool;\n\n    /**\n     *@param period_index 1. index of the period added\n     */\n    event NewPeriodAdded(uint256 indexed period_index);\n\n    modifier notValidator {\n        require(msg.sender != validator, \"You are a validator !\");\n        _;\n    }\n\n    modifier onlyValidator {\n        require(msg.sender == validator, \"You are not a validator !\");\n        _;\n    }\n\n    modifier onlyInPeriod(uint256 _period) {\n        require(\n            block.timestamp >= periods[_period].sla_period_start &&\n                block.timestamp <= periods[_period].sla_period_end\n        );\n        _;\n    }\n\n    modifier onlyAllowedToken(address _token) {\n        require(allowedTokensMapping[_token] == true, \"token is not allowed\");\n        _;\n    }\n\n    /**\n     *@param _baseTokenAddress 1. address of the base token\n     *@param _sla_period_starts 2. array of starts of period\n     *@param _sla_period_ends 3. array of ends of period\n     *@param _owner 4. address of the owner of the SLA\n     */\n    constructor(\n        address _baseTokenAddress,\n        uint256[] memory _sla_period_starts,\n        uint256[] memory _sla_period_ends,\n        address _owner\n    ) public {\n        require(\n            _sla_period_starts.length == _sla_period_ends.length,\n            \"Please check the params of your periods !\"\n        );\n        validator = _owner;\n\n        // Add BaseToken as allowed token\n        BaseToken = IERC20(_baseTokenAddress);\n        allowedTokens.push(_baseTokenAddress);\n        allowedTokensMapping[_baseTokenAddress] = true;\n\n        for (uint256 i = 0; i < _sla_period_starts.length; i++) {\n            _addPeriod(_sla_period_starts[i], _sla_period_ends[i]);\n        }\n    }\n\n    /**\n     *@dev add a new period to the array\n     *@param _sla_period_start 1. uint256 of the start of the period\n     *@param _sla_period_end 2. uint256 of the end of the period\n     */\n    function addNewPeriod(uint256 _sla_period_start, uint256 _sla_period_end)\n        public\n        onlyOwner\n    {\n        _addPeriod(_sla_period_start, _sla_period_end);\n    }\n\n    /**\n     *@dev add a token to ve allowed for staking\n     *@param _token 1. address of the new allowed token\n     */\n    function addAllowedTokens(address _token) public onlyOwner {\n        require(allowedTokensMapping[_token] == false, \"token already added\");\n        allowedTokens.push(_token);\n        allowedTokensMapping[_token] = true;\n    }\n\n    /**\n     *@dev increase the amount staked per token\n     *@param _token 1. address of the token\n     *@param _amount 2. amount to be staked\n     */\n    function _increaseTokenStaking(address _token, uint256 _amount) internal {\n        if (userStakedTokens[msg.sender][_token] == false) {\n            userStakes[msg.sender].push(\n                TokenStake({tokenAddress: _token, stake: _amount})\n            );\n            uint256 newTokenIndex = userStakes[msg.sender].length - 1;\n            userStakedTokensIndex[msg.sender][_token] = newTokenIndex;\n            userStakedTokens[msg.sender][_token] = true;\n        } else {\n            uint256 tokenIndex = userStakedTokensIndex[msg.sender][_token];\n            userStakes[msg.sender][tokenIndex].stake = userStakes[msg.sender][\n                tokenIndex\n            ]\n                .stake\n                .add(_amount);\n        }\n        tokensPool[_token] = tokensPool[_token].add(_amount);\n    }\n\n    /**\n     *@dev decrease the amount staked per token\n     *@param _token 1. address of the token\n     *@param _amount 2. amount to be decreased\n     */\n    function _decreaseTokenStaking(address _token, uint256 _amount) internal {\n        uint256 tokenIndex = userStakedTokensIndex[msg.sender][_token];\n        userStakes[msg.sender][tokenIndex].stake.sub(_amount);\n        tokensPool[_token] = tokensPool[_token].sub(_amount);\n    }\n\n    /**\n     *@dev increase the amount staked per token\n     *@param _amount 1. amount to be staked\n     *@param _token 2. address of the token\n     *@param _period 3. period id to stake\n     */\n    function stakeTokens(\n        uint256 _amount,\n        address _token,\n        uint256 _period\n    ) public onlyAllowedToken(_token) {\n        require(_amount > 0, \"amount cannot be 0\");\n        // check if the staker had already staked another token or not\n        _updateUniqueTokensStaked(msg.sender, _token, _period);\n        // stake tokens\n        IERC20(_token).transferFrom(msg.sender, address(this), _amount);\n        // update balance of staked tokens per staker\n        periods[_period].stakingBalance[_token][msg.sender] = periods[_period]\n            .stakingBalance[_token][msg.sender]\n            .add(_amount);\n        totalStaked = totalStaked.add(_amount);\n\n        // if the token is the unique one staked by the staker\n        // add the staker to the list\n        if (uniqueTokensStaked[msg.sender] == 1) {\n            stakers.push(msg.sender);\n        }\n\n        _increaseTokenStaking(_token, _amount);\n    }\n\n    /**\n     *@dev withdraw staked tokens\n     *@param _token 1. address of the token\n     *@param _period 2. period id to withdraw\n     */\n    function withdraw(address _token, uint256 _period)\n        public\n        notValidator\n        onlyAllowedToken(_token)\n    {\n        // check if staker has staked tokens\n        require(\n            periods[_period].stakingBalance[_token][msg.sender] > 0,\n            \"staking balance cannot be 0\"\n        );\n\n        uint256 staked = periods[_period].stakingBalance[_token][msg.sender];\n        uint256 claimed_reward =\n            periods[_period].claimed_reward.div(stakers.length);\n\n        periods[_period].stakingBalance[_token][msg.sender] = 0;\n        totalStaked = totalStaked.sub(staked);\n        IERC20(_token).transfer(msg.sender, staked.sub(claimed_reward));\n\n        // update uniqueTokensStaked for the staker\n        uniqueTokensStaked[msg.sender] = uniqueTokensStaked[msg.sender].sub(1);\n\n        if (uniqueTokensStaked[msg.sender] == 0) {\n            uint256 index = _getIndex(msg.sender);\n            delete stakers[index];\n        }\n\n        _decreaseTokenStaking(_token, staked);\n    }\n\n    /**\n     *@dev withdraw BaseToken and stake d Tokens\n     *@param _token 1. address of the token\n     *@param _amount 2. amount to withdraw\n     *@param _period 3. period id to withdraw\n     */\n    function withdrawAndStake(\n        address _token,\n        uint256 _amount,\n        uint256 _period\n    ) public notValidator onlyAllowedToken(_token) {\n        // check if staker has staked tokens\n        require(\n            periods[_period].stakingBalance[_token][msg.sender] > 0,\n            \"staking balance cannot be 0\"\n        );\n\n        // stake d tokens\n        IERC20(_token).transferFrom(msg.sender, address(this), _amount);\n        // update balance of staked tokens per staker\n        periods[_period].stakingBalance[_token][msg.sender] = periods[_period]\n            .stakingBalance[_token][msg.sender]\n            .add(_amount);\n        totalStaked = totalStaked.add(_amount);\n\n        _increaseTokenStaking(_token, _amount);\n\n        // unstake base tokens\n        uint256 staked = periods[_period].stakingBalance[_token][msg.sender];\n        uint256 claimed_reward =\n            periods[_period].claimed_reward.div(stakers.length);\n\n        periods[_period].stakingBalance[_token][msg.sender] = 0;\n        totalStaked = totalStaked.sub(staked);\n        BaseToken.transfer(msg.sender, staked.sub(claimed_reward));\n\n        _decreaseTokenStaking(address(BaseToken), staked);\n    }\n\n    /**\n     *@dev claim from validators\n     *@param _period 1. period id to claim\n     */\n    function claimReward(uint256 _period)\n        public\n        onlyInPeriod(_period)\n        onlyValidator\n    {\n        require(\n            periods[_period].status == Status.Respected,\n            \"SLA not respected !\"\n        );\n        require(\n            !periods[_period].claimed,\n            \"You have already claimed your reward for this period !\"\n        );\n\n        uint256 reward = totalStaked.div(periods.length);\n        uint256 fees = reward.mul(3).div(10);\n\n        totalStaked = totalStaked.sub(reward);\n        periods[_period].claimed_reward = reward;\n        periods[_period].claimed = true;\n\n        BaseToken.transfer(msg.sender, reward);\n        (bool _success, ) =\n            address(BaseToken).call(\n                abi.encodeWithSelector(BURN_SELECTOR, fees)\n            );\n\n        require(_success, \"BaseToken burn process was not successful\");\n    }\n\n    /**\n     *@dev claim from delegators\n     *@param _period 1. period id to claim\n     */\n    function claimCompensation(uint256 _period)\n        public\n        onlyInPeriod(_period)\n        notValidator\n    {\n        require(\n            periods[_period].status == Status.NotRespected,\n            \"SLA respected !\"\n        );\n        require(\n            periods[_period].claimed_compensation[msg.sender] == 0,\n            \"You have already claimed your compensation for this period !\"\n        );\n\n        uint256 compensation = getUserTotalValue(msg.sender, _period);\n        uint256 fees = compensation.mul(3).div(10);\n\n        totalStaked = totalStaked.sub(compensation);\n        periods[_period].claimed_compensation[msg.sender] = compensation;\n\n        BaseToken.transfer(msg.sender, compensation);\n        (bool _success, ) =\n            address(BaseToken).call(\n                abi.encodeWithSelector(BURN_SELECTOR, fees)\n            );\n\n        require(_success, \"BaseToken burn process was not successful\");\n    }\n\n    /**\n     *@dev get the user total value staked\n     *@param _user 1. address of the user\n     *@param _period 2. period id to claim\n     */\n    function getUserTotalValue(address _user, uint256 _period)\n        public\n        view\n        returns (uint256)\n    {\n        uint256 totalValue = 0;\n        if (uniqueTokensStaked[_user] > 0) {\n            for (\n                uint256 allowedTokensIndex = 0;\n                allowedTokensIndex < allowedTokens.length;\n                allowedTokensIndex++\n            ) {\n                totalValue = totalValue.add(\n                    periods[_period].stakingBalance[\n                        allowedTokens[allowedTokensIndex]\n                    ][_user]\n                );\n            }\n        }\n        return totalValue;\n    }\n\n    function _updateUniqueTokensStaked(\n        address _user,\n        address _token,\n        uint256 _period\n    ) internal {\n        if (periods[_period].stakingBalance[_token][_user] <= 0) {\n            uniqueTokensStaked[_user] = uniqueTokensStaked[_user].add(1);\n        }\n    }\n\n    function _getIndex(address _user) internal view returns (uint256) {\n        for (uint256 i = 0; i < stakers.length; i++) {\n            if (stakers[i] == _user) {\n                return i;\n            }\n        }\n        return (uint256(-1));\n    }\n\n    function _addPeriod(uint256 _sla_period_start, uint256 _sla_period_end)\n        internal\n    {\n        Period memory _period;\n\n        _period.sla_period_start = _sla_period_start;\n        _period.sla_period_end = _sla_period_end;\n        _period.status = Status.NotVerified;\n\n        periods.push(_period);\n\n        emit NewPeriodAdded(periods.length.sub(1));\n    }\n\n    /**\n     * @dev public view function that returns the total amount of stakers\n     */\n    function stakersCount() public view returns (uint256) {\n        return stakers.length;\n    }\n\n    function getPeriodData(uint256 _periodId)\n        public\n        view\n        returns (uint256 periodStart, uint256 periodEnd)\n    {\n        return (\n            periods[_periodId].sla_period_start,\n            periods[_periodId].sla_period_end\n        );\n    }\n\n    /**\n     * @dev returns the length of TokenStakes per user\n     * @param _owner 1. owner of the stake\n     */\n\n    function getTokenStakeLength(address _owner) public view returns (uint256) {\n        return userStakes[_owner].length;\n    }\n\n    /**\n     * @dev returns the token stake according to index\n     * @param _owner 1. owner of the stake\n     * @param _index 2. index of the TokenStake\n     */\n    function getTokenStake(address _owner, uint256 _index)\n        public\n        view\n        returns (address tokenAddress, uint256 stake)\n    {\n        return (\n            userStakes[_owner][_index].tokenAddress,\n            userStakes[_owner][_index].stake\n        );\n    }\n}\n",
  "sourcePath": "/Users/matiasbn/Desktop/stacktical/stacktical-dsla-contracts/contracts/SLA/Staking.sol",
  "compiler": {
    "name": "solc",
    "version": "0.6.12+commit.27d51765.Emscripten.clang"
  },
  "schemaVersion": "3.2.5",
  "updatedAt": "2021-01-04T18:43:47.875Z",
  "devdoc": {
    "events": {
      "NewPeriodAdded(uint256)": {
        "params": {
          "period_index": "1. index of the period added"
        }
      }
    },
    "kind": "dev",
    "methods": {
      "addAllowedTokens(address)": {
        "details": "add a token to ve allowed for staking",
        "params": {
          "_token": "1. address of the new allowed token"
        }
      },
      "addNewPeriod(uint256,uint256)": {
        "details": "add a new period to the array",
        "params": {
          "_sla_period_end": "2. uint256 of the end of the period",
          "_sla_period_start": "1. uint256 of the start of the period"
        }
      },
      "claimCompensation(uint256)": {
        "details": "claim from delegators",
        "params": {
          "_period": "1. period id to claim"
        }
      },
      "claimReward(uint256)": {
        "details": "claim from validators",
        "params": {
          "_period": "1. period id to claim"
        }
      },
      "constructor": {
        "params": {
          "_baseTokenAddress": "1. address of the base token",
          "_owner": "4. address of the owner of the SLA",
          "_sla_period_ends": "3. array of ends of period",
          "_sla_period_starts": "2. array of starts of period"
        }
      },
      "getTokenStake(address,uint256)": {
        "details": "returns the token stake according to index",
        "params": {
          "_index": "2. index of the TokenStake",
          "_owner": "1. owner of the stake"
        }
      },
      "getTokenStakeLength(address)": {
        "details": "returns the length of TokenStakes per user",
        "params": {
          "_owner": "1. owner of the stake"
        }
      },
      "getUserTotalValue(address,uint256)": {
        "details": "get the user total value staked",
        "params": {
          "_period": "2. period id to claim",
          "_user": "1. address of the user"
        }
      },
      "owner()": {
        "details": "Returns the address of the current owner."
      },
      "renounceOwnership()": {
        "details": "Leaves the contract without owner. It will not be possible to call `onlyOwner` functions anymore. Can only be called by the current owner. NOTE: Renouncing ownership will leave the contract without an owner, thereby removing any functionality that is only available to the owner."
      },
      "stakeTokens(uint256,address,uint256)": {
        "details": "increase the amount staked per token",
        "params": {
          "_amount": "1. amount to be staked",
          "_period": "3. period id to stake",
          "_token": "2. address of the token"
        }
      },
      "stakersCount()": {
        "details": "public view function that returns the total amount of stakers"
      },
      "transferOwnership(address)": {
        "details": "Transfers ownership of the contract to a new account (`newOwner`). Can only be called by the current owner."
      },
      "withdraw(address,uint256)": {
        "details": "withdraw staked tokens",
        "params": {
          "_period": "2. period id to withdraw",
          "_token": "1. address of the token"
        }
      },
      "withdrawAndStake(address,uint256,uint256)": {
        "details": "withdraw BaseToken and stake d Tokens",
        "params": {
          "_amount": "2. amount to withdraw",
          "_period": "3. period id to withdraw",
          "_token": "1. address of the token"
        }
      }
    },
    "stateVariables": {
      "BaseToken": {
        "details": "IERC20 of the base stake address for the SLA"
      },
      "allowedTokens": {
        "details": "array with the allowed tokens addresses of the SLA"
      },
      "allowedTokensMapping": {
        "details": "mapping for all allowed tokens to be staked"
      },
      "periods": {
        "details": "all periods for an SLA"
      },
      "stakers": {
        "details": "list of all stakers (validators, vouchers, delegators ...)"
      },
      "tokensPool": {
        "details": "(mapping) erc20Address => stakeAmount: stake amount by tokenAddress"
      },
      "totalStaked": {
        "details": "userAddress => erc20Address => index of userStakes mapping array"
      },
      "uniqueTokensStaked": {
        "details": "(mapping) userAddress => amountOf tokens mapping"
      },
      "userStakedTokens": {
        "details": "(mapping) userAddress => erc20Address => bool: user has erc20Address staked"
      },
      "userStakedTokensIndex": {
        "details": "(mapping) userAddress => erc20Address => index: index of the TokenStake array"
      },
      "userStakes": {
        "details": "(mapping) userAddress => TokenStake[] mapping"
      },
      "validator": {
        "details": "address of the validator for the SLA"
      }
    },
    "version": 1
  },
  "userdoc": {
    "kind": "user",
    "methods": {},
    "version": 1
  }
}