{
  "contractName": "Staking",
  "abi": [
    {
      "inputs": [
        {
          "internalType": "address",
          "name": "_stakeRegistry",
          "type": "address"
        },
        {
          "internalType": "address",
          "name": "_periodRegistry",
          "type": "address"
        },
        {
          "internalType": "enum PeriodRegistry.PeriodType",
          "name": "_periodType",
          "type": "uint8"
        },
        {
          "internalType": "uint256",
          "name": "_slaPeriodsLength",
          "type": "uint256"
        },
        {
          "internalType": "bool",
          "name": "_whitelisted",
          "type": "bool"
        }
      ],
      "stateMutability": "nonpayable",
      "type": "constructor"
    },
    {
      "anonymous": false,
      "inputs": [
        {
          "indexed": true,
          "internalType": "address",
          "name": "previousOwner",
          "type": "address"
        },
        {
          "indexed": true,
          "internalType": "address",
          "name": "newOwner",
          "type": "address"
        }
      ],
      "name": "OwnershipTransferred",
      "type": "event"
    },
    {
      "inputs": [],
      "name": "DSLAburnRate",
      "outputs": [
        {
          "internalType": "uint256",
          "name": "",
          "type": "uint256"
        }
      ],
      "stateMutability": "view",
      "type": "function"
    },
    {
      "inputs": [
        {
          "internalType": "uint256",
          "name": "",
          "type": "uint256"
        }
      ],
      "name": "allowedTokens",
      "outputs": [
        {
          "internalType": "address",
          "name": "",
          "type": "address"
        }
      ],
      "stateMutability": "view",
      "type": "function"
    },
    {
      "inputs": [],
      "name": "apy",
      "outputs": [
        {
          "internalType": "uint256",
          "name": "",
          "type": "uint256"
        }
      ],
      "stateMutability": "view",
      "type": "function"
    },
    {
      "inputs": [],
      "name": "dslaTokenAddress",
      "outputs": [
        {
          "internalType": "address",
          "name": "",
          "type": "address"
        }
      ],
      "stateMutability": "view",
      "type": "function"
    },
    {
      "inputs": [],
      "name": "minimumDSLAStakedTier1",
      "outputs": [
        {
          "internalType": "uint256",
          "name": "",
          "type": "uint256"
        }
      ],
      "stateMutability": "view",
      "type": "function"
    },
    {
      "inputs": [],
      "name": "minimumDSLAStakedTier2",
      "outputs": [
        {
          "internalType": "uint256",
          "name": "",
          "type": "uint256"
        }
      ],
      "stateMutability": "view",
      "type": "function"
    },
    {
      "inputs": [],
      "name": "minimumDSLAStakedTier3",
      "outputs": [
        {
          "internalType": "uint256",
          "name": "",
          "type": "uint256"
        }
      ],
      "stateMutability": "view",
      "type": "function"
    },
    {
      "inputs": [],
      "name": "owner",
      "outputs": [
        {
          "internalType": "address",
          "name": "",
          "type": "address"
        }
      ],
      "stateMutability": "view",
      "type": "function"
    },
    {
      "inputs": [
        {
          "internalType": "uint256",
          "name": "",
          "type": "uint256"
        },
        {
          "internalType": "address",
          "name": "",
          "type": "address"
        }
      ],
      "name": "providerPeriodsRewards",
      "outputs": [
        {
          "internalType": "uint256",
          "name": "",
          "type": "uint256"
        }
      ],
      "stateMutability": "view",
      "type": "function"
    },
    {
      "inputs": [],
      "name": "renounceOwnership",
      "outputs": [],
      "stateMutability": "nonpayable",
      "type": "function"
    },
    {
      "inputs": [],
      "name": "slaPeriodsLength",
      "outputs": [
        {
          "internalType": "uint256",
          "name": "",
          "type": "uint256"
        }
      ],
      "stateMutability": "view",
      "type": "function"
    },
    {
      "inputs": [
        {
          "internalType": "uint256",
          "name": "",
          "type": "uint256"
        }
      ],
      "name": "stakers",
      "outputs": [
        {
          "internalType": "address",
          "name": "",
          "type": "address"
        }
      ],
      "stateMutability": "view",
      "type": "function"
    },
    {
      "inputs": [
        {
          "internalType": "address",
          "name": "newOwner",
          "type": "address"
        }
      ],
      "name": "transferOwnership",
      "outputs": [],
      "stateMutability": "nonpayable",
      "type": "function"
    },
    {
      "inputs": [
        {
          "internalType": "address",
          "name": "",
          "type": "address"
        }
      ],
      "name": "usersCompensationPools",
      "outputs": [
        {
          "internalType": "uint256",
          "name": "",
          "type": "uint256"
        }
      ],
      "stateMutability": "view",
      "type": "function"
    },
    {
      "inputs": [
        {
          "internalType": "address",
          "name": "",
          "type": "address"
        }
      ],
      "name": "usersTotalPositions",
      "outputs": [
        {
          "internalType": "uint256",
          "name": "",
          "type": "uint256"
        }
      ],
      "stateMutability": "view",
      "type": "function"
    },
    {
      "inputs": [],
      "name": "whitelisted",
      "outputs": [
        {
          "internalType": "bool",
          "name": "",
          "type": "bool"
        }
      ],
      "stateMutability": "view",
      "type": "function"
    },
    {
      "inputs": [],
      "name": "yearlyPeriods",
      "outputs": [
        {
          "internalType": "uint256",
          "name": "",
          "type": "uint256"
        }
      ],
      "stateMutability": "view",
      "type": "function"
    },
    {
      "inputs": [
        {
          "internalType": "address",
          "name": "_userAddress",
          "type": "address"
        }
      ],
      "name": "whitelistUser",
      "outputs": [],
      "stateMutability": "nonpayable",
      "type": "function"
    },
    {
      "inputs": [
        {
          "internalType": "address",
          "name": "_tokenAddress",
          "type": "address"
        }
      ],
      "name": "addAllowedTokens",
      "outputs": [],
      "stateMutability": "nonpayable",
      "type": "function"
    },
    {
      "inputs": [
        {
          "internalType": "address",
          "name": "_tokenAddress",
          "type": "address"
        }
      ],
      "name": "_claimCompensation",
      "outputs": [],
      "stateMutability": "nonpayable",
      "type": "function"
    },
    {
      "inputs": [
        {
          "internalType": "address",
          "name": "_tokenAddress",
          "type": "address"
        }
      ],
      "name": "getStakeholdersPositions",
      "outputs": [
        {
          "internalType": "uint256",
          "name": "providerStake",
          "type": "uint256"
        },
        {
          "internalType": "uint256",
          "name": "usersStake",
          "type": "uint256"
        }
      ],
      "stateMutability": "view",
      "type": "function"
    },
    {
      "inputs": [],
      "name": "getAllowedTokensLength",
      "outputs": [
        {
          "internalType": "uint256",
          "name": "",
          "type": "uint256"
        }
      ],
      "stateMutability": "view",
      "type": "function"
    },
    {
      "inputs": [
        {
          "internalType": "address",
          "name": "_staker",
          "type": "address"
        },
        {
          "internalType": "uint256",
          "name": "_allowedTokenIndex",
          "type": "uint256"
        }
      ],
      "name": "getTokenStake",
      "outputs": [
        {
          "internalType": "address",
          "name": "tokenAddress",
          "type": "address"
        },
        {
          "internalType": "uint256",
          "name": "stake",
          "type": "uint256"
        }
      ],
      "stateMutability": "view",
      "type": "function"
    },
    {
      "inputs": [
        {
          "internalType": "address",
          "name": "_tokenAddress",
          "type": "address"
        }
      ],
      "name": "isAllowedToken",
      "outputs": [
        {
          "internalType": "bool",
          "name": "",
          "type": "bool"
        }
      ],
      "stateMutability": "view",
      "type": "function"
    }
  ],
  "bytecode": "0x60806040523480156200001157600080fd5b50604051620013d3380380620013d3833981810160405260a08110156200003757600080fd5b50805160208201516040830151606084015160809094015192939192909190600062000062620002eb565b600080546001600160a01b0319166001600160a01b0383169081178255604051929350917f8be0079c531659141344cd1fd0a4f28419497f9722a3daafe3b4186f6b6457e0908290a350600180546001600160a01b038088166001600160a01b0319928316178355600280549188169190921617905560118054859260ff1990911690836005811115620000f257fe5b021790555060128290556013805460ff191682151517905560015460408051637b8041cf60e11b815290516000928392839283926001600160a01b03169163f700839e916004808301926080929190829003018186803b1580156200015657600080fd5b505afa1580156200016b573d6000803e3d6000fd5b505050506040513d60808110156200018257600080fd5b50805160208201516040808401516060909401516002549151635c98d15760e01b8152939850919650929450925060009182916001600160a01b0390911690635c98d157908b9060040180826005811115620001da57fe5b815260200191505060606040518083038186803b158015620001fb57600080fd5b505afa15801562000210573d6000803e3d6000fd5b505050506040513d60608110156200022757600080fd5b508051602091820151600f829055601081905560015460408051638b8e530960e01b815290519396509194506001600160a01b031692638b8e530992600480840193829003018186803b1580156200027e57600080fd5b505afa15801562000293573d6000803e3d6000fd5b505050506040513d6020811015620002aa57600080fd5b5051600980546001600160a01b0319166001600160a01b039092169190911790555050600b93909355600c91909155600d55600e5550620002ef9350505050565b3390565b6110d480620002ff6000396000f3fe608060405234801561001057600080fd5b50600436106101585760003560e01c8063715018a6116100c3578063e68e276d1161007c578063e68e276d1461037e578063ee575c28146103a4578063f2fde38b146103ac578063f51b7ab9146103d2578063f7e9dfff146103da578063fd5e6dd1146103e257610158565b8063715018a6146103125780638da5cb5b1461031a578063b18ac91814610322578063b7bc347e1461032a578063cbe230c314610332578063db2da48c1461035857610158565b80633d9287fa116101155780633d9287fa146102015780634a4c560d1461021d57806357ac94f0146102435780635c1c20de146102925780635e5f2e261461029a5780636f265a34146102d357610158565b80630c5160f41461015d578063171e44ea146101775780631fc2cd931461019f5780632eb8197a146101c557806333df1541146101cd5780633bcfc4b8146101f9575b600080fd5b6101656103ff565b60408051918252519081900360200190f35b61019d6004803603602081101561018d57600080fd5b50356001600160a01b0316610405565b005b61019d600480360360208110156101b557600080fd5b50356001600160a01b0316610615565b6101656108ef565b610165600480360360408110156101e357600080fd5b50803590602001356001600160a01b03166108f5565b610165610912565b610209610918565b604080519115158252519081900360200190f35b61019d6004803603602081101561023357600080fd5b50356001600160a01b0316610921565b61026f6004803603604081101561025957600080fd5b506001600160a01b038135169060200135610a06565b604080516001600160a01b03909316835260208301919091528051918290030190f35b610165610a54565b6102b7600480360360208110156102b057600080fd5b5035610a5a565b604080516001600160a01b039092168252519081900360200190f35b6102f9600480360360208110156102e957600080fd5b50356001600160a01b0316610a81565b6040805192835260208301919091528051918290030190f35b61019d610ae6565b6102b7610b88565b610165610b97565b610165610b9d565b6102096004803603602081101561034857600080fd5b50356001600160a01b0316610ba3565b6101656004803603602081101561036e57600080fd5b50356001600160a01b0316610c00565b6101656004803603602081101561039457600080fd5b50356001600160a01b0316610c12565b610165610c24565b61019d600480360360208110156103c257600080fd5b50356001600160a01b0316610c2a565b610165610d22565b6102b7610d28565b6102b7600480360360208110156103f857600080fd5b5035610d37565b60125481565b61040d610d44565b6000546001600160a01b0390811691161461045d576040805162461bcd60e51b81526020600482018190526024820152600080516020610fd9833981519152604482015290519081900360640190fd5b61046681610ba3565b156104ae576040805162461bcd60e51b8152602060048201526013602482015272151bdad95b88185b1c9958591e481859191959606a1b604482015290519081900360640190fd5b6001546040805163cbe230c360e01b81526001600160a01b0384811660048301529151919092169163cbe230c3916024808301926020929190829003018186803b1580156104fb57600080fd5b505afa15801561050f573d6000803e3d6000fd5b505050506040513d602081101561052557600080fd5b505115156001146105675760405162461bcd60e51b815260040180806020018281038252602d815260200180610f51602d913960400191505060405180910390fd5b60095460009061057f906001600160a01b0316610a81565b509050600c5481116105c25760405162461bcd60e51b815260040180806020018281038252603f81526020018061103b603f913960400191505060405180910390fd5b50600a80546001810182556000919091527fc65a7bb8d6351c1cf70c95a316cc6a92839c986682d98bc35f958f4883f9d2a80180546001600160a01b0319166001600160a01b0392909216919091179055565b61061d610b88565b6001600160a01b0316336001600160a01b0316141561066d5760405162461bcd60e51b815260040180806020018281038252602581526020018061107a6025913960400191505060405180910390fd5b60135460ff161515600114156106e0573360009081526014602052604090205460ff1615156001146106e0576040805162461bcd60e51b8152602060048201526017602482015276155cd95c881a5cc81b9bdd081dda1a5d195b1a5cdd1959604a1b604482015290519081900360640190fd5b6001600160a01b038116600090815260046020908152604080832033845290915290205461271090806107445760405162461bcd60e51b815260040180806020018281038252603a815260200180610f7e603a913960400191505060405180910390fd5b6001600160a01b0383166000908152600560205260408120546107719061076b8486610d48565b90610daa565b6001600160a01b0385166000908152600660205260408120549192509061079e90859061076b9085610d48565b6040805163a9059cbb60e01b815233600482015260028302602482015290519192506000916001600160a01b0388169163a9059cbb91604480830192602092919082900301818787803b1580156107f457600080fd5b505af1158015610808573d6000803e3d6000fd5b505050506040513d602081101561081e57600080fd5b505190506001811515146108635760405162461bcd60e51b8152600401808060200182810382526042815260200180610ff96042913960600191505060405180910390fd5b6001600160a01b0386166000908152600560205260409020546108869085610dec565b6001600160a01b0387166000908152600560209081526040808320939093556006905220546108b59083610dec565b6001600160a01b03909616600090815260066020908152604080832098909855600481528782203383529052958620959095555050505050565b600e5481565b600760209081526000928352604080842090915290825290205481565b600f5481565b60135460ff1681565b610929610d44565b6000546001600160a01b03908116911614610979576040805162461bcd60e51b81526020600482018190526024820152600080516020610fd9833981519152604482015290519081900360640190fd5b6001600160a01b03811660009081526014602052604090205460ff16156109e2576040805162461bcd60e51b8152602060048201526018602482015277155cd95c88185b1c9958591e481dda1a5d195b1a5cdd195960421b604482015290519081900360640190fd5b6001600160a01b03166000908152601460205260409020805460ff19166001179055565b6000806000600a8481548110610a1857fe5b6000918252602080832091909101546001600160a01b039081168084526004835260408085209990921684529790915290205494959350505050565b600b5481565b600a8181548110610a6757fe5b6000918252602090912001546001600160a01b0316905081565b6001600160a01b0381166000908152600460205260408120819081610aa4610b88565b6001600160a01b039081168252602080830193909352604091820160009081205491871681526003909352912054909250610adf9083610dec565b9050915091565b610aee610d44565b6000546001600160a01b03908116911614610b3e576040805162461bcd60e51b81526020600482018190526024820152600080516020610fd9833981519152604482015290519081900360640190fd5b600080546040516001600160a01b03909116907f8be0079c531659141344cd1fd0a4f28419497f9722a3daafe3b4186f6b6457e0908390a3600080546001600160a01b0319169055565b6000546001600160a01b031690565b600d5481565b600a5490565b6000805b600a54811015610bf557826001600160a01b0316600a8281548110610bc857fe5b6000918252602090912001546001600160a01b03161415610bed576001915050610bfb565b600101610ba7565b50600090505b919050565b60066020526000908152604090205481565b60056020526000908152604090205481565b600c5481565b610c32610d44565b6000546001600160a01b03908116911614610c82576040805162461bcd60e51b81526020600482018190526024820152600080516020610fd9833981519152604482015290519081900360640190fd5b6001600160a01b038116610cc75760405162461bcd60e51b8152600401808060200182810382526026815260200180610f2b6026913960400191505060405180910390fd5b600080546040516001600160a01b03808516939216917f8be0079c531659141344cd1fd0a4f28419497f9722a3daafe3b4186f6b6457e091a3600080546001600160a01b0319166001600160a01b0392909216919091179055565b60105481565b6009546001600160a01b031681565b60088181548110610a6757fe5b3390565b600082610d5757506000610da4565b82820282848281610d6457fe5b0414610da15760405162461bcd60e51b8152600401808060200182810382526021815260200180610fb86021913960400191505060405180910390fd5b90505b92915050565b6000610da183836040518060400160405280601a81526020017f536166654d6174683a206469766973696f6e206279207a65726f000000000000815250610e2e565b6000610da183836040518060400160405280601e81526020017f536166654d6174683a207375627472616374696f6e206f766572666c6f770000815250610ed0565b60008183610eba5760405162461bcd60e51b81526004018080602001828103825283818151815260200191508051906020019080838360005b83811015610e7f578181015183820152602001610e67565b50505050905090810190601f168015610eac5780820380516001836020036101000a031916815260200191505b509250505060405180910390fd5b506000838581610ec657fe5b0495945050505050565b60008184841115610f225760405162461bcd60e51b8152602060048201818152835160248401528351909283926044909101919085019080838360008315610e7f578181015183820152602001610e67565b50505090039056fe4f776e61626c653a206e6577206f776e657220697320746865207a65726f2061646472657373546f6b656e206e6f7420616c6c6f7765642062792074686520534c41526567697374727920636f6e747261637443616e206f6e6c7920636c61696d206120636f6d70656e736174696f6e20696620706f736974696f6e20697320626967676572207468616e2030536166654d6174683a206d756c7469706c69636174696f6e206f766572666c6f774f776e61626c653a2063616c6c6572206973206e6f7420746865206f776e65725472616e736665722070726f636573732066726f6d20534c4120636f6e747261637420746f206d73672e73656e64657220776173206e6f742073756363657366756c53686f756c64207374616b65206174206c65617374206d696e696d756d44534c415374616b6564546965723120746f206164642061206e657720746f6b656e53686f756c64206e6f742062652063616c6c65642062792074686520534c41206f776e6572a264697066735822122099d65f9550b80d26f4c4251482c08644dd2b8f75e5ad7501d16719e08390dc4b64736f6c634300060c0033",
  "immutableReferences": {},
  "source": "// SPDX-License-Identifier: MIT\npragma solidity ^0.6.0;\n\nimport \"@openzeppelin/contracts/token/ERC20/IERC20.sol\";\nimport \"@openzeppelin/contracts/access/Ownable.sol\";\nimport \"@openzeppelin/contracts/math/SafeMath.sol\";\nimport \"./StakeRegistry.sol\";\nimport \"./PeriodRegistry.sol\";\n\ncontract Staking is Ownable {\n    using SafeMath for uint256;\n\n    /// @dev StakeRegistry contract\n    StakeRegistry private stakeRegistry;\n    /// @dev SLARegistry contract\n    PeriodRegistry private periodRegistry;\n\n    /// @dev (tokenAddress=>uint256) total pooled token balance\n    mapping(address => uint256) tokenPools;\n    /// @dev (tokenAddress=>stakerAddress=>uint256) staker position to represent his proportion staked\n    mapping(address => mapping(address => uint256)) stakeHoldersPositions;\n    /// @dev (tokenAddress=>uint256) used to keep track of the stakes of the users, to calculate proportion of compensation pool\n    mapping(address => uint256) public usersTotalPositions;\n    /// @dev (tokenAddress=>uint256) users available compensation per token\n    mapping(address => uint256) public usersCompensationPools;\n    /// @dev (periodId=>tokenAddress=>uint256) provider compensation per period and per token\n    mapping(uint256 => mapping(address => uint256))\n        public providerPeriodsRewards;\n    /// @dev address[] of the stakers of the SLA contract\n    address[] public stakers;\n    /// @dev DSLA token address to burn fees\n    address public dslaTokenAddress;\n    /// @dev array with the allowed tokens addresses for the current SLA\n    address[] public allowedTokens;\n\n    /// @dev corresponds to the burn rate of DSLA tokens, but divided by 1000 i.e burn percentage = burnRate/1000 %\n    uint256 public DSLAburnRate;\n    /// @dev minimum deposit for Tier 1 staking\n    uint256 public minimumDSLAStakedTier1;\n    /// @dev minimum deposit for Tier 2 staking\n    uint256 public minimumDSLAStakedTier2;\n    /// @dev minimum deposit for Tier 3 staking\n    uint256 public minimumDSLAStakedTier3;\n\n    /// @dev PeriodRegistry defined apy\n    uint256 public apy;\n    /// @dev PeriodRegistry defined amount of periods over a year\n    uint256 public yearlyPeriods;\n    /// @dev PeriodRegistry period type of the SLA contract\n    PeriodRegistry.PeriodType private periodType;\n    /// @dev length of the _periodIds array, to state effective APY\n    uint256 public slaPeriodsLength;\n\n    /// @dev boolean to declare if contract is whitelisted\n    bool public whitelisted;\n    /// @dev (userAddress=bool) to declare whitelisted addresses\n    mapping(address => bool) whitelist;\n\n    modifier notOwner {\n        require(msg.sender != owner(), \"Should not be called by the SLA owner\");\n        _;\n    }\n\n    modifier onlyAllowedToken(address _token) {\n        require(isAllowedToken(_token) == true, \"token is not allowed\");\n        _;\n    }\n\n    modifier onlyWhitelisted {\n        if (whitelisted == true) {\n            require(whitelist[msg.sender] == true, \"User is not whitelisted\");\n        }\n        _;\n    }\n\n    /**\n     *@param _stakeRegistry 1. address of the base token\n     */\n    constructor(\n        address _stakeRegistry,\n        address _periodRegistry,\n        PeriodRegistry.PeriodType _periodType,\n        uint256 _slaPeriodsLength,\n        bool _whitelisted\n    ) public {\n        stakeRegistry = StakeRegistry(_stakeRegistry);\n        periodRegistry = PeriodRegistry(_periodRegistry);\n        periodType = _periodType;\n        slaPeriodsLength = _slaPeriodsLength;\n        whitelisted = _whitelisted;\n        (\n            uint256 _DSLAburnRate,\n            uint256 _minimumDSLAStakedTier1,\n            uint256 _minimumDSLAStakedTier2,\n            uint256 _minimumDSLAStakedTier3\n        ) = stakeRegistry.getStakingParameters();\n        (uint256 _apy, uint256 _yearlyPeriods, ) =\n            periodRegistry.periodDefinitions(_periodType);\n        apy = _apy;\n        yearlyPeriods = _yearlyPeriods;\n        dslaTokenAddress = stakeRegistry.DSLATokenAddress();\n        DSLAburnRate = _DSLAburnRate;\n        minimumDSLAStakedTier1 = _minimumDSLAStakedTier1;\n        minimumDSLAStakedTier2 = _minimumDSLAStakedTier2;\n        minimumDSLAStakedTier3 = _minimumDSLAStakedTier3;\n    }\n\n    function whitelistUser(address _userAddress) public onlyOwner {\n        require(whitelist[_userAddress] == false, \"User already whitelisted\");\n        whitelist[_userAddress] = true;\n    }\n\n    /**\n     *@dev add a token to ve allowed for staking\n     *@param _tokenAddress 1. address of the new allowed token\n     */\n    function addAllowedTokens(address _tokenAddress) public onlyOwner {\n        require(isAllowedToken(_tokenAddress) == false, \"Token already added\");\n        require(\n            stakeRegistry.isAllowedToken(_tokenAddress) == true,\n            \"Token not allowed by the SLARegistry contract\"\n        );\n        (uint256 providerStake, ) = getStakeholdersPositions(dslaTokenAddress);\n        require(\n            providerStake > minimumDSLAStakedTier1,\n            \"Should stake at least minimumDSLAStakedTier1 to add a new token\"\n        );\n        allowedTokens.push(_tokenAddress);\n    }\n\n    /**\n     *@dev increase the amount staked per token\n     *@param _amount 1. amount to be staked\n     *@param _tokenAddress 2. address of the token\n     *@notice providers can stake at any time\n     *@notice users can stake at any time but no more than provider pool\n     */\n    function _stake(uint256 _amount, address _tokenAddress)\n        internal\n        onlyAllowedToken(_tokenAddress)\n        onlyWhitelisted\n    {\n        if (msg.sender != owner()) {\n            (uint256 providerStake, uint256 usersStake) =\n                getStakeholdersPositions(_tokenAddress);\n            require(\n                usersStake.add(_amount) <= providerStake,\n                \"Cannot stake more than SLA providerstake\"\n            );\n        }\n        bool success =\n            IERC20(_tokenAddress).transferFrom(\n                msg.sender,\n                address(this),\n                _amount\n            );\n        require(success == true, \"Staking process was not succesful\");\n        tokenPools[_tokenAddress] = tokenPools[_tokenAddress].add(_amount);\n        stakeHoldersPositions[_tokenAddress][\n            msg.sender\n        ] = stakeHoldersPositions[_tokenAddress][msg.sender].add(_amount);\n        if (!_isStaker(msg.sender)) {\n            stakers.push(msg.sender);\n        }\n        // after staking successfully, increase the usersTotalPositions of the token\n        if (msg.sender != owner()) {\n            usersTotalPositions[_tokenAddress] = usersTotalPositions[\n                _tokenAddress\n            ]\n                .add(_amount);\n        }\n    }\n\n    /**\n     *@dev withdraw staked tokens\n     *@param _amount 1. amount to withdraw\n     *@param _tokenAddress 2. address of the token\n     */\n    function _withdraw(uint256 _amount, address _tokenAddress)\n        internal\n        onlyAllowedToken(_tokenAddress)\n        onlyWhitelisted\n    {\n        require(\n            stakeHoldersPositions[_tokenAddress][msg.sender] >= _amount,\n            \"Should not withdraw more stake than staked\"\n        );\n        tokenPools[_tokenAddress] = tokenPools[_tokenAddress].sub(_amount);\n        stakeHoldersPositions[_tokenAddress][\n            msg.sender\n        ] = stakeHoldersPositions[_tokenAddress][msg.sender].sub(_amount);\n\n        bool success = IERC20(_tokenAddress).transfer(msg.sender, _amount);\n        require(success == true, \"Stake withdraw was not succesful\");\n    }\n\n    /**\n     *@dev sets the provider reward\n     *@notice it calculates the usersStake and calculates the provider reward from it.\n     * Then it subtract the reward from the users stake, by adding the reward to the\n     * owner position without decreasing the tokenPool size\n     */\n    function _setRespectedPeriodReward(uint256 _periodId) internal {\n        for (uint256 index = 0; index < allowedTokens.length; index++) {\n            address tokenAddress = allowedTokens[index];\n            (, uint256 usersStake) = getStakeholdersPositions(tokenAddress);\n            uint256 precision = 10000;\n            uint256 providerRewardPercentage =\n                slaPeriodsLength.mul(precision).mul(apy).div(yearlyPeriods);\n            uint256 reward =\n                usersStake.mul(providerRewardPercentage).div(100 * precision);\n            if (tokenAddress == dslaTokenAddress) {\n                uint256 fees = _burnDSLATokens(reward);\n                reward.sub(fees);\n            }\n            stakeHoldersPositions[tokenAddress][\n                owner()\n            ] = stakeHoldersPositions[tokenAddress][owner()].add(reward);\n            providerPeriodsRewards[_periodId][tokenAddress] = reward;\n        }\n    }\n\n    /**\n     *@dev sets the users compensation pool\n     *@notice it calculates the usersStake and calculates the users compensation from it\n     * then it subtract it from the provider stake, to compensate users with a compensation pool\n     */\n    function _setUsersCompensationPool() internal {\n        for (uint256 index = 0; index < allowedTokens.length; index++) {\n            address tokenAddress = allowedTokens[index];\n            (, uint256 usersStake) = getStakeholdersPositions(tokenAddress);\n            uint256 compensation = usersStake;\n            if (tokenAddress == dslaTokenAddress) {\n                uint256 fees = _burnDSLATokens(compensation);\n                compensation.sub(fees);\n            }\n            tokenPools[tokenAddress] = tokenPools[tokenAddress].sub(\n                compensation\n            );\n            // discount the compensation from the provider position\n            stakeHoldersPositions[tokenAddress][\n                owner()\n            ] = stakeHoldersPositions[tokenAddress][owner()].sub(compensation);\n            usersCompensationPools[tokenAddress] = usersCompensationPools[\n                tokenAddress\n            ]\n                .add(compensation);\n        }\n    }\n\n    /**\n     *@dev claim user compensation. Transfers both the compensation and the user remaining stake.\n     *@param _tokenAddress 1. address of the token to claim compensation\n     *@notice it uses the user position and the user total position per token to check\n     * the proportion of the compensation pool that corresponds to every user\n     */\n    function _claimCompensation(address _tokenAddress)\n        public\n        notOwner\n        onlyWhitelisted\n    {\n        uint256 precision = 10000;\n        uint256 userPosition = stakeHoldersPositions[_tokenAddress][msg.sender];\n        require(\n            userPosition > 0,\n            \"Can only claim a compensation if position is bigger than 0\"\n        );\n        // userPosition[tokenAddress]/usersTotalPositions[tokenAddress] is the proportion\n        // of the compensation pool to be delivered.\n        uint256 userCompensationPercentage =\n            userPosition.mul(precision).div(usersTotalPositions[_tokenAddress]);\n        uint256 userCompensation =\n            usersCompensationPools[_tokenAddress]\n                .mul(userCompensationPercentage)\n                .div(precision);\n        // transfers the user compensation times two, to return compensation and remaining stake\n        bool success =\n            IERC20(_tokenAddress).transfer(msg.sender, userCompensation * 2);\n        require(\n            success == true,\n            \"Transfer process from SLA contract to msg.sender was not succesful\"\n        );\n        usersTotalPositions[_tokenAddress] = usersTotalPositions[_tokenAddress]\n            .sub(userPosition);\n        usersCompensationPools[_tokenAddress] = usersCompensationPools[\n            _tokenAddress\n        ]\n            .sub(userCompensation);\n        stakeHoldersPositions[_tokenAddress][msg.sender] = 0;\n    }\n\n    /**\n     *@dev gets the positions of stake both for provider and for users\n     *@param _tokenAddress 1. token address to get the positions\n     *@return providerStake position of the provider (owner) of the SLA contract\n     *@return usersStake position of the user of the SLA contract\n     */\n    function getStakeholdersPositions(address _tokenAddress)\n        public\n        view\n        returns (uint256 providerStake, uint256 usersStake)\n    {\n        providerStake = stakeHoldersPositions[_tokenAddress][owner()];\n        usersStake = tokenPools[_tokenAddress].sub(providerStake);\n    }\n\n    function _burnDSLATokens(uint256 _amount) internal returns (uint256 fees) {\n        bytes4 BURN_SELECTOR = bytes4(keccak256(bytes(\"burn(uint256)\")));\n        fees = _amount.mul(DSLAburnRate).div(1000);\n        (bool _success, ) =\n            dslaTokenAddress.call(abi.encodeWithSelector(BURN_SELECTOR, fees));\n        require(_success, \"DSLA burn process was not successful\");\n        tokenPools[dslaTokenAddress] = tokenPools[dslaTokenAddress].sub(fees);\n    }\n\n    function _isStaker(address _staker) internal view returns (bool) {\n        for (uint256 index = 0; index < stakers.length; index++) {\n            if (stakers[index] == _staker) return true;\n        }\n        return false;\n    }\n\n    function getAllowedTokensLength() public view returns (uint256) {\n        return allowedTokens.length;\n    }\n\n    function getTokenStake(address _staker, uint256 _allowedTokenIndex)\n        public\n        view\n        returns (address tokenAddress, uint256 stake)\n    {\n        address allowedTokenAddress = allowedTokens[_allowedTokenIndex];\n        return (\n            allowedTokenAddress,\n            stakeHoldersPositions[allowedTokenAddress][_staker]\n        );\n    }\n\n    function isAllowedToken(address _tokenAddress) public view returns (bool) {\n        for (uint256 index = 0; index < allowedTokens.length; index++) {\n            if (allowedTokens[index] == _tokenAddress) {\n                return true;\n            }\n        }\n        return false;\n    }\n}\n",
  "sourcePath": "/Users/matiasbn/Desktop/stacktical/stacktical-dsla-contracts/contracts/Staking.sol",
  "compiler": {
    "name": "solc",
    "version": "0.6.12+commit.27d51765.Emscripten.clang"
  },
  "schemaVersion": "3.3.3",
  "updatedAt": "2021-02-14T13:32:24.492Z",
  "devdoc": {
    "kind": "dev",
    "methods": {
      "_claimCompensation(address)": {
        "details": "claim user compensation. Transfers both the compensation and the user remaining stake.",
        "params": {
          "_tokenAddress": "1. address of the token to claim compensation"
        }
      },
      "addAllowedTokens(address)": {
        "details": "add a token to ve allowed for staking",
        "params": {
          "_tokenAddress": "1. address of the new allowed token"
        }
      },
      "constructor": {
        "params": {
          "_stakeRegistry": "1. address of the base token"
        }
      },
      "getStakeholdersPositions(address)": {
        "details": "gets the positions of stake both for provider and for users",
        "params": {
          "_tokenAddress": "1. token address to get the positions"
        },
        "returns": {
          "providerStake": "position of the provider (owner) of the SLA contract",
          "usersStake": "position of the user of the SLA contract"
        }
      },
      "owner()": {
        "details": "Returns the address of the current owner."
      },
      "renounceOwnership()": {
        "details": "Leaves the contract without owner. It will not be possible to call `onlyOwner` functions anymore. Can only be called by the current owner. NOTE: Renouncing ownership will leave the contract without an owner, thereby removing any functionality that is only available to the owner."
      },
      "transferOwnership(address)": {
        "details": "Transfers ownership of the contract to a new account (`newOwner`). Can only be called by the current owner."
      }
    },
    "stateVariables": {
      "DSLAburnRate": {
        "details": "corresponds to the burn rate of DSLA tokens, but divided by 1000 i.e burn percentage = burnRate/1000 %"
      },
      "allowedTokens": {
        "details": "array with the allowed tokens addresses for the current SLA"
      },
      "apy": {
        "details": "PeriodRegistry defined apy"
      },
      "dslaTokenAddress": {
        "details": "DSLA token address to burn fees"
      },
      "minimumDSLAStakedTier1": {
        "details": "minimum deposit for Tier 1 staking"
      },
      "minimumDSLAStakedTier2": {
        "details": "minimum deposit for Tier 2 staking"
      },
      "minimumDSLAStakedTier3": {
        "details": "minimum deposit for Tier 3 staking"
      },
      "periodRegistry": {
        "details": "SLARegistry contract"
      },
      "periodType": {
        "details": "PeriodRegistry period type of the SLA contract"
      },
      "providerPeriodsRewards": {
        "details": "(periodId=>tokenAddress=>uint256) provider compensation per period and per token"
      },
      "slaPeriodsLength": {
        "details": "length of the _periodIds array, to state effective APY"
      },
      "stakeHoldersPositions": {
        "details": "(tokenAddress=>stakerAddress=>uint256) staker position to represent his proportion staked"
      },
      "stakeRegistry": {
        "details": "StakeRegistry contract"
      },
      "stakers": {
        "details": "address[] of the stakers of the SLA contract"
      },
      "tokenPools": {
        "details": "(tokenAddress=>uint256) total pooled token balance"
      },
      "usersCompensationPools": {
        "details": "(tokenAddress=>uint256) users available compensation per token"
      },
      "usersTotalPositions": {
        "details": "(tokenAddress=>uint256) used to keep track of the stakes of the users, to calculate proportion of compensation pool"
      },
      "whitelist": {
        "details": "(userAddress=bool) to declare whitelisted addresses"
      },
      "whitelisted": {
        "details": "boolean to declare if contract is whitelisted"
      },
      "yearlyPeriods": {
        "details": "PeriodRegistry defined amount of periods over a year"
      }
    },
    "version": 1
  },
  "userdoc": {
    "kind": "user",
    "methods": {
      "_claimCompensation(address)": {
        "notice": "it uses the user position and the user total position per token to check the proportion of the compensation pool that corresponds to every user"
      }
    },
    "version": 1
  }
}