{
  "contractName": "StakingEfficiency",
  "abi": [
    {
      "inputs": [
        {
          "internalType": "address",
          "name": "_chainlinkOracle",
          "type": "address"
        },
        {
          "internalType": "address",
          "name": "_chainlinkToken",
          "type": "address"
        },
        {
          "internalType": "bytes32",
          "name": "_jobId",
          "type": "bytes32"
        },
        {
          "internalType": "address",
          "name": "_networkAnalyticsAddress",
          "type": "address"
        }
      ],
      "stateMutability": "nonpayable",
      "type": "constructor"
    },
    {
      "anonymous": false,
      "inputs": [
        {
          "indexed": true,
          "internalType": "bytes32",
          "name": "id",
          "type": "bytes32"
        }
      ],
      "name": "ChainlinkCancelled",
      "type": "event"
    },
    {
      "anonymous": false,
      "inputs": [
        {
          "indexed": true,
          "internalType": "bytes32",
          "name": "id",
          "type": "bytes32"
        }
      ],
      "name": "ChainlinkFulfilled",
      "type": "event"
    },
    {
      "anonymous": false,
      "inputs": [
        {
          "indexed": true,
          "internalType": "bytes32",
          "name": "id",
          "type": "bytes32"
        }
      ],
      "name": "ChainlinkRequested",
      "type": "event"
    },
    {
      "anonymous": false,
      "inputs": [
        {
          "indexed": true,
          "internalType": "address",
          "name": "slaAddress",
          "type": "address"
        },
        {
          "indexed": false,
          "internalType": "uint256",
          "name": "periodId",
          "type": "uint256"
        },
        {
          "indexed": true,
          "internalType": "bytes32",
          "name": "requestId",
          "type": "bytes32"
        },
        {
          "indexed": false,
          "internalType": "bytes32",
          "name": "chainlinkResponse",
          "type": "bytes32"
        }
      ],
      "name": "SLIReceived",
      "type": "event"
    },
    {
      "inputs": [],
      "name": "fee",
      "outputs": [
        {
          "internalType": "uint256",
          "name": "",
          "type": "uint256"
        }
      ],
      "stateMutability": "view",
      "type": "function"
    },
    {
      "inputs": [],
      "name": "jobId",
      "outputs": [
        {
          "internalType": "bytes32",
          "name": "",
          "type": "bytes32"
        }
      ],
      "stateMutability": "view",
      "type": "function"
    },
    {
      "inputs": [],
      "name": "networkAnalyticsAddress",
      "outputs": [
        {
          "internalType": "address",
          "name": "",
          "type": "address"
        }
      ],
      "stateMutability": "view",
      "type": "function"
    },
    {
      "inputs": [],
      "name": "oracle",
      "outputs": [
        {
          "internalType": "address",
          "name": "",
          "type": "address"
        }
      ],
      "stateMutability": "view",
      "type": "function"
    },
    {
      "inputs": [
        {
          "internalType": "bytes32",
          "name": "",
          "type": "bytes32"
        }
      ],
      "name": "requestIdToSLIRequest",
      "outputs": [
        {
          "internalType": "address",
          "name": "slaAddress",
          "type": "address"
        },
        {
          "internalType": "uint256",
          "name": "periodId",
          "type": "uint256"
        }
      ],
      "stateMutability": "view",
      "type": "function"
    },
    {
      "inputs": [
        {
          "internalType": "uint256",
          "name": "",
          "type": "uint256"
        }
      ],
      "name": "requests",
      "outputs": [
        {
          "internalType": "bytes32",
          "name": "",
          "type": "bytes32"
        }
      ],
      "stateMutability": "view",
      "type": "function"
    },
    {
      "inputs": [],
      "name": "slaRegistryAddress",
      "outputs": [
        {
          "internalType": "address",
          "name": "",
          "type": "address"
        }
      ],
      "stateMutability": "view",
      "type": "function"
    },
    {
      "inputs": [],
      "name": "setSLARegistry",
      "outputs": [],
      "stateMutability": "nonpayable",
      "type": "function"
    },
    {
      "inputs": [
        {
          "internalType": "uint256",
          "name": "_periodId",
          "type": "uint256"
        },
        {
          "internalType": "address",
          "name": "_slaAddress",
          "type": "address"
        }
      ],
      "name": "requestSLI",
      "outputs": [],
      "stateMutability": "nonpayable",
      "type": "function"
    },
    {
      "inputs": [
        {
          "internalType": "bytes32",
          "name": "_requestId",
          "type": "bytes32"
        },
        {
          "internalType": "bytes32",
          "name": "_chainlinkResponse",
          "type": "bytes32"
        }
      ],
      "name": "fulfillSLI",
      "outputs": [],
      "stateMutability": "nonpayable",
      "type": "function"
    },
    {
      "inputs": [
        {
          "internalType": "bytes32",
          "name": "sliData",
          "type": "bytes32"
        }
      ],
      "name": "parseSLIData",
      "outputs": [
        {
          "internalType": "uint256",
          "name": "",
          "type": "uint256"
        },
        {
          "internalType": "uint256",
          "name": "",
          "type": "uint256"
        }
      ],
      "stateMutability": "pure",
      "type": "function"
    }
  ],
  "bytecode": "0x6080604052600160045567016345785d8a0000600c553480156200002257600080fd5b50604051620016a8380380620016a88339810160408190526200004591620000cb565b600b82905562000055836200008b565b600a80546001600160a01b039586166001600160a01b031991821617909155600980549290951691161790925550620001219050565b600280546001600160a01b0319166001600160a01b0392909216919091179055565b80516001600160a01b0381168114620000c557600080fd5b92915050565b60008060008060808587031215620000e1578384fd5b620000ed8686620000ad565b9350620000fe8660208701620000ad565b925060408501519150620001168660608701620000ad565b905092959194509250565b61157780620001316000396000f3fe608060405234801561001057600080fd5b50600436106100a95760003560e01c8063ad021f4911610071578063ad021f491461011d578063ae401eb914610132578063c2939d9714610153578063d19944081461015b578063ddca3f431461016e578063f388158914610176576100a9565b806304e4fc01146100ae5780636e71890d146100d85780637dc0d1d0146100ed57806381d12c58146100f55780638acb09a014610115575b600080fd5b6100c16100bc3660046111cb565b61017e565b6040516100cf929190611533565b60405180910390f35b6100e0610332565b6040516100cf91906112ab565b6100e0610341565b6101086101033660046111cb565b610350565b6040516100cf9190611367565b6100e061036e565b61013061012b3660046111e3565b61037d565b005b6101456101403660046111cb565b610523565b6040516100cf9291906112bf565b610108610548565b610130610169366004611204565b61054e565b610108610744565b61013061074a565b600080606061018c84610787565b805190915060608167ffffffffffffffff811180156101aa57600080fd5b506040519080825280601f01601f1916602001820160405280156101d5576020820181803683370190505b50905060608267ffffffffffffffff811180156101f157600080fd5b506040519080825280601f01601f19166020018201604052801561021c576020820181803683370190505b50905060005b8381101561030957600b60fa1b6001600160f81b03191685828151811061024557fe5b01602001516001600160f81b03191614156103015760005b818110156102a75785818151811061027157fe5b602001015160f81c60f81b84828151811061028857fe5b60200101906001600160f81b031916908160001a90535060010161025d565b5060005b6001828603038110156102ff5785818360010101815181106102c957fe5b602001015160f81c60f81b8382815181106102e057fe5b60200101906001600160f81b031916908160001a9053506001016102ab565b505b600101610222565b50600061031583610896565b9050600061032283610896565b9197509095505050505050915091565b6008546001600160a01b031681565b600a546001600160a01b031681565b6007818154811061035d57fe5b600091825260209091200154905081565b6009546001600160a01b031681565b60008281526005602052604090205482906001600160a01b031633146103be5760405162461bcd60e51b81526004016103b5906114eb565b60405180910390fd5b60008181526005602052604080822080546001600160a01b03191690555182917f7cc135e0cebb02c3480ae5d74d377283180a2601f8f644edf7987b009316c63a91a2610409611145565b506000838152600660209081526040918290208251808401845281546001600160a01b0316808252600190920154928101839052925186927f56514ef6e1ffd0f970ebf32dc181e476384e6e53a8351719040b4030318a933b9161046f91908890611533565b60405180910390a36000806104838561017e565b909250905060006104948383610916565b905060006104af826104a986620186a0610944565b9061097e565b85516020870151604051636bd2e21160e11b81529293506001600160a01b039091169163d7a5c422916104e791859190600401611533565b600060405180830381600087803b15801561050157600080fd5b505af1158015610515573d6000803e3d6000fd5b505050505050505050505050565b600660205260009081526040902080546001909101546001600160a01b039091169082565b600b5481565b6008546001600160a01b031633146105785760405162461bcd60e51b81526004016103b590611469565b61058061115c565b600b54610595903063ad021f4960e01b6109b3565b90506105f6604051806040016040528060088152602001676a6f625f7479706560c01b815250604051806040016040528060128152602001717374616b696e675f656666696369656e637960701b815250836109d89092919063ffffffff16565b61062c604051806040016040528060098152602001681c195c9a5bd917da5960ba1b815250610624856109fb565b8391906109d8565b61065c6040518060400160405280600b81526020016a736c615f6164647265737360a81b81525061062484610ad6565b6040805180820190915260198152786e6574776f726b5f616e616c79746963735f6164647265737360381b60208201526009546106a69190610624906001600160a01b0316610ad6565b600a54600c546000916106c6916001600160a01b03909116908490610c52565b6007805460018082019092557fa66cc928b5edb82af9bd49922954155ab7b0942694bea4ce44661d9a8736c688018290556040805180820182526001600160a01b03968716815260208082019889526000948552600690529220915182546001600160a01b0319169516949094178155935193909201929092555050565b600c5481565b6008546001600160a01b0316156107735760405162461bcd60e51b81526004016103b590611421565b600880546001600160a01b03191633179055565b606060005b60208160ff161080156107ba5750828160ff16602081106107a957fe5b1a60f81b6001600160f81b03191615155b156107c75760010161078c565b60608160ff1667ffffffffffffffff811180156107e357600080fd5b506040519080825280601f01601f19166020018201604052801561080e576020820181803683370190505b509050600091505b60208260ff161080156108445750838260ff166020811061083357fe5b1a60f81b6001600160f81b03191615155b1561088d57838260ff166020811061085857fe5b1a60f81b818360ff168151811061086b57fe5b60200101906001600160f81b031916908160001a905350600190910190610816565b9150505b919050565b6000805b82518110156109105760308382815181106108b157fe5b016020015160f81c108015906108db575060398382815181106108d057fe5b016020015160f81c11155b156109085760308382815181106108ee57fe5b602001015160f81c60f81b60f81c0360ff1682600a020191505b60010161089a565b50919050565b60008282018381101561093b5760405162461bcd60e51b81526004016103b590611370565b90505b92915050565b6000826109535750600061093e565b8282028284828161096057fe5b041461093b5760405162461bcd60e51b81526004016103b5906114aa565b600080821161099f5760405162461bcd60e51b81526004016103b5906113ea565b60008284816109aa57fe5b04949350505050565b6109bb61115c565b6109c361115c565b6109cf81868686610d91565b95945050505050565b60808301516109e79083610dce565b60808301516109f69082610dce565b505050565b60608180610a225750506040805180820190915260018152600360fc1b6020820152610891565b8060005b8115610a3a57600101600a82049150610a26565b60608167ffffffffffffffff81118015610a5357600080fd5b506040519080825280601f01601f191660200182016040528015610a7e576020820181803683370190505b50905060001982015b8415610acc57600a850660300160f81b82828060019003935081518110610aaa57fe5b60200101906001600160f81b031916908160001a905350600a85049450610a87565b5095945050505050565b604080518082018252601081526f181899199a1a9b1b9c1cb0b131b232b360811b60208201528151602a80825260608281019094526001600160a01b03851692918491602082018180368337019050509050600360fc1b81600081518110610b3a57fe5b60200101906001600160f81b031916908160001a905350600f60fb1b81600181518110610b6357fe5b60200101906001600160f81b031916908160001a90535060005b6014811015610c49578260048583600c0160208110610b9857fe5b1a60f81b6001600160f81b031916901c60f81c60ff1681518110610bb857fe5b602001015160f81c60f81b828260020260020181518110610bd557fe5b60200101906001600160f81b031916908160001a905350828482600c0160208110610bfc57fe5b825191901a600f16908110610c0d57fe5b602001015160f81c60f81b828260020260030181518110610c2a57fe5b60200101906001600160f81b031916908160001a905350600101610b7d565b50949350505050565b600030600454604051602001610c69929190611289565b60408051808303601f19018152918152815160209283012060045460608701526000818152600590935281832080546001600160a01b0319166001600160a01b038916179055905190925082917fb5e6e01e79f91267dc17b4e6314d5d4d03593d2ceee0fbb452b750bd70ea5af991a26002546001600160a01b0316634000aea08584610cf587610de5565b6040518463ffffffff1660e01b8152600401610d1393929190611340565b602060405180830381600087803b158015610d2d57600080fd5b505af1158015610d41573d6000803e3d6000fd5b505050506040513d601f19601f82011682018060405250810190610d6591906111ab565b610d815760405162461bcd60e51b81526004016103b5906113a7565b6004805460010190559392505050565b610d9961115c565b610da98560800151610100610e61565b50509183526001600160a01b031660208301526001600160e01b031916604082015290565b610ddb8260038351610e9b565b6109f68282610f75565b6060634042994660e01b60008084600001518560200151866040015187606001516001896080015160000151604051602401610e289897969594939291906112d8565b60408051601f198184030181529190526020810180516001600160e01b03166001600160e01b0319909316929092179091529050919050565b610e69611191565b6020820615610e7e5760208206602003820191505b506020828101829052604080518085526000815290920101905290565b60178111610ebc57610eb68360e0600585901b168317610f8f565b506109f6565b60ff8111610ee657610ed9836018611fe0600586901b1617610f8f565b50610eb683826001610fa7565b61ffff8111610f1157610f04836019611fe0600586901b1617610f8f565b50610eb683826002610fa7565b63ffffffff8111610f3e57610f3183601a611fe0600586901b1617610f8f565b50610eb683826004610fa7565b67ffffffffffffffff81116109f657610f6283601b611fe0600586901b1617610f8f565b50610f6f83826008610fa7565b50505050565b610f7d611191565b61093b83846000015151848551610fc8565b610f97611191565b61093b8384600001515184611074565b610faf611191565b610fc08485600001515185856110bf565b949350505050565b610fd0611191565b8251821115610fde57600080fd5b846020015182850111156110085761100885611000876020015187860161111d565b60020261112e565b6000808651805187602083010193508088870111156110275787860182525b505050602084015b6020841061104e5780518252601f19909301926020918201910161102f565b51815160001960208690036101000a019081169019919091161790525083949350505050565b61107c611191565b836020015183106110985761109884856020015160020261112e565b8351805160208583010184815350808514156110b5576001810182525b5093949350505050565b6110c7611191565b846020015184830111156110e4576110e48585840160020261112e565b60006001836101000a0390508551838682010185831982511617815250805184870111156111125783860181525b509495945050505050565b60008183111561091057508161093e565b815161113a8383610e61565b50610f6f8382610f75565b604080518082019091526000808252602082015290565b6040805160a08101825260008082526020820181905291810182905260608101919091526080810161118c611191565b905290565b604051806040016040528060608152602001600081525090565b6000602082840312156111bc578081fd5b8151801515811461093b578182fd5b6000602082840312156111dc578081fd5b5035919050565b600080604083850312156111f5578081fd5b50508035926020909101359150565b60008060408385031215611216578182fd5b8235915060208301356001600160a01b0381168114611233578182fd5b809150509250929050565b60008151808452815b8181101561126357602081850181015186830182015201611247565b818111156112745782602083870101525b50601f01601f19169290920160200192915050565b60609290921b6bffffffffffffffffffffffff19168252601482015260340190565b6001600160a01b0391909116815260200190565b6001600160a01b03929092168252602082015260400190565b6001600160a01b0389811682526020820189905260408201889052861660608201526001600160e01b03198516608082015260a0810184905260c0810183905261010060e082018190526000906113318382018561123e565b9b9a5050505050505050505050565b600060018060a01b0385168252836020830152606060408301526109cf606083018461123e565b90815260200190565b6020808252601b908201527f536166654d6174683a206164646974696f6e206f766572666c6f770000000000604082015260600190565b60208082526023908201527f756e61626c6520746f207472616e73666572416e6443616c6c20746f206f7261604082015262636c6560e81b606082015260800190565b6020808252601a908201527f536166654d6174683a206469766973696f6e206279207a65726f000000000000604082015260600190565b60208082526028908201527f534c41526567697374727920616464726573732068617320616c7265616479206040820152671899595b881cd95d60c21b606082015260800190565b60208082526021908201527f43616e206f6e6c792062652063616c6c656420627920534c41526567697374726040820152607960f81b606082015260800190565b60208082526021908201527f536166654d6174683a206d756c7469706c69636174696f6e206f766572666c6f6040820152607760f81b606082015260800190565b60208082526028908201527f536f75726365206d75737420626520746865206f7261636c65206f6620746865604082015267081c995c5d595cdd60c21b606082015260800190565b91825260208201526040019056fea2646970667358221220c5db735b831d3c193e7cf8a101670d55a0ac022cc06c75a05e7bcc583ff86df664736f6c634300060c0033",
  "immutableReferences": {},
  "source": "pragma solidity ^0.6.0;\npragma experimental ABIEncoderV2;\n\nimport \"../SLA.sol\";\nimport \"../StringUtils.sol\";\nimport \"@chainlink/contracts/src/v0.6/ChainlinkClient.sol\";\nimport \"./IMessenger.sol\";\n\n/**\n * @title SEMessenger\n * @dev Staking efficiency Messenger\n */\n\ncontract StakingEfficiency is ChainlinkClient, IMessenger, StringUtils {\n    /// @dev Mapping that stores chainlink sli request information\n    mapping(bytes32 => SLIRequest) public requestIdToSLIRequest;\n    /// @dev Array with all request IDs\n    bytes32[] public requests;\n    /// @dev The address of the SLARegistry contract\n    address public slaRegistryAddress;\n    /// @dev Network analytics contract address\n    address public networkAnalyticsAddress;\n    /// @dev Chainlink oracle address\n    address public oracle;\n    /// @dev chainlink jobId\n    bytes32 public jobId;\n    /// @dev fee for Chainlink querys. Currently 0.1 LINK\n    uint256 public fee = 0.1 * 10**18;\n\n    /**\n     * @dev parameterize the variables according to network\n     * @notice sets the Chainlink parameters (oracle address, token address, jobId) and sets the SLARegistry to 0x0 address\n     * @param _chainlinkOracle 1. the address of the oracle to create requests to\n     * @param _chainlinkToken 2. the address of LINK token contract\n     * @param _jobId 3. the job id for Staking efficiency job\n     * @param _networkAnalyticsAddress 4. Network analytics contract address\n     */\n    constructor(\n        address _chainlinkOracle,\n        address _chainlinkToken,\n        bytes32 _jobId,\n        address _networkAnalyticsAddress\n    ) public {\n        jobId = _jobId;\n        setChainlinkToken(_chainlinkToken);\n        oracle = _chainlinkOracle;\n        networkAnalyticsAddress = _networkAnalyticsAddress;\n    }\n\n    /// @dev Throws if called by any address other than the SLARegistry contract or Chainlink Oracle.\n    modifier onlySLARegistry() {\n        require(\n            msg.sender == slaRegistryAddress,\n            \"Can only be called by SLARegistry\"\n        );\n        _;\n    }\n\n    /**\n     * @dev sets the SLARegistry contract address and can only be called\n     * once\n     */\n    function setSLARegistry() public override {\n        // Only able to trigger this function once\n        require(\n            slaRegistryAddress == address(0),\n            \"SLARegistry address has already been set\"\n        );\n\n        slaRegistryAddress = msg.sender;\n    }\n\n    /**\n     * @dev creates a ChainLink request to get a new SLI value for the\n     * given params. Can only be called by the SLARegistry contract or Chainlink Oracle.\n     * @param _periodId value of the period id\n     * @param _slaAddress SLA Address\n     */\n\n    function requestSLI(uint256 _periodId, address _slaAddress)\n        public\n        override\n        onlySLARegistry\n    {\n        Chainlink.Request memory request =\n            buildChainlinkRequest(\n                jobId,\n                address(this),\n                this.fulfillSLI.selector\n            );\n        request.add(\"job_type\", \"staking_efficiency\");\n        request.add(\"period_id\", _uintToStr(_periodId));\n        request.add(\"sla_address\", _addressToString(_slaAddress));\n        request.add(\n            \"network_analytics_address\",\n            _addressToString(networkAnalyticsAddress)\n        );\n\n        // Sends the request with 0.1 LINK to the oracle contract\n        bytes32 requestId = sendChainlinkRequestTo(oracle, request, fee);\n\n        requests.push(requestId);\n\n        requestIdToSLIRequest[requestId] = SLIRequest({\n            slaAddress: _slaAddress,\n            periodId: _periodId\n        });\n    }\n\n    /**\n     * @dev callback function for the Chainlink SLI request which stores\n     * the SLI in the SLA contract\n     * @param _requestId the ID of the ChainLink request\n     * @param _chainlinkResponse response object from Chainlink Oracles\n     */\n    function fulfillSLI(bytes32 _requestId, bytes32 _chainlinkResponse)\n        public\n        override\n        recordChainlinkFulfillment(_requestId)\n    {\n        SLIRequest memory request = requestIdToSLIRequest[_requestId];\n        emit SLIReceived(\n            request.slaAddress,\n            request.periodId,\n            _requestId,\n            _chainlinkResponse\n        );\n        (uint256 hits, uint256 misses) = parseSLIData(_chainlinkResponse);\n        uint256 total = hits.add(misses);\n        uint256 stakingEfficiency = hits.mul(100 * 1000).div(total);\n        SLA(request.slaAddress).registerSLI(\n            stakingEfficiency,\n            request.periodId\n        );\n    }\n\n    /**\n     * @dev recieves a string of \"hits,misses\" data and returns hits and misses as uint256\n     * @param sliData the ID of the ChainLink request\n     */\n    function parseSLIData(bytes32 sliData)\n        public\n        pure\n        returns (uint256, uint256)\n    {\n        bytes memory bytesSLIData = bytes(_bytes32ToStr(sliData));\n        uint256 sliDataLength = bytesSLIData.length;\n        bytes memory bytesHits = new bytes(sliDataLength);\n        bytes memory bytesMisses = new bytes(sliDataLength);\n        for (uint256 index; index < sliDataLength; index++) {\n            if (bytesSLIData[index] == bytes1(\",\")) {\n                for (uint256 index2 = 0; index2 < index; index2++) {\n                    bytesHits[index2] = bytesSLIData[index2];\n                }\n                for (\n                    uint256 index3 = 0;\n                    index3 < sliDataLength - index - 1;\n                    index3++\n                ) {\n                    bytesMisses[index3] = bytesSLIData[index + 1 + index3];\n                }\n            }\n        }\n        uint256 hits = _bytesToUint(bytesHits);\n        uint256 misses = _bytesToUint(bytesMisses);\n        return (hits, misses);\n    }\n}\n",
  "sourcePath": "/Users/matiasbn/Desktop/stacktical/stacktical-dsla-contracts/contracts/messenger/StakingEfficiency.sol",
  "compiler": {
    "name": "solc",
    "version": "0.6.12+commit.27d51765.Emscripten.clang"
  },
  "schemaVersion": "3.3.3",
  "updatedAt": "2021-02-14T22:24:49.982Z",
  "devdoc": {
    "details": "Staking efficiency Messenger",
    "kind": "dev",
    "methods": {
      "constructor": {
        "details": "parameterize the variables according to network",
        "params": {
          "_chainlinkOracle": "1. the address of the oracle to create requests to",
          "_chainlinkToken": "2. the address of LINK token contract",
          "_jobId": "3. the job id for Staking efficiency job",
          "_networkAnalyticsAddress": "4. Network analytics contract address"
        }
      },
      "fulfillSLI(bytes32,bytes32)": {
        "details": "callback function for the Chainlink SLI request which stores the SLI in the SLA contract",
        "params": {
          "_chainlinkResponse": "response object from Chainlink Oracles",
          "_requestId": "the ID of the ChainLink request"
        }
      },
      "parseSLIData(bytes32)": {
        "details": "recieves a string of \"hits,misses\" data and returns hits and misses as uint256",
        "params": {
          "sliData": "the ID of the ChainLink request"
        }
      },
      "requestSLI(uint256,address)": {
        "details": "creates a ChainLink request to get a new SLI value for the given params. Can only be called by the SLARegistry contract or Chainlink Oracle.",
        "params": {
          "_periodId": "value of the period id",
          "_slaAddress": "SLA Address"
        }
      },
      "setSLARegistry()": {
        "details": "sets the SLARegistry contract address and can only be called once"
      }
    },
    "stateVariables": {
      "fee": {
        "details": "fee for Chainlink querys. Currently 0.1 LINK"
      },
      "jobId": {
        "details": "chainlink jobId"
      },
      "networkAnalyticsAddress": {
        "details": "Network analytics contract address"
      },
      "oracle": {
        "details": "Chainlink oracle address"
      },
      "requestIdToSLIRequest": {
        "details": "Mapping that stores chainlink sli request information"
      },
      "requests": {
        "details": "Array with all request IDs"
      },
      "slaRegistryAddress": {
        "details": "The address of the SLARegistry contract"
      }
    },
    "title": "SEMessenger",
    "version": 1
  },
  "userdoc": {
    "kind": "user",
    "methods": {
      "constructor": "sets the Chainlink parameters (oracle address, token address, jobId) and sets the SLARegistry to 0x0 address"
    },
    "version": 1
  }
}