{
  "contractName": "StakeRegistry",
  "abi": [
    {
      "inputs": [
        {
          "internalType": "address",
          "name": "_dslaTokenAddress",
          "type": "address"
        }
      ],
      "stateMutability": "nonpayable",
      "type": "constructor"
    },
    {
      "anonymous": false,
      "inputs": [
        {
          "indexed": true,
          "internalType": "address",
          "name": "previousOwner",
          "type": "address"
        },
        {
          "indexed": true,
          "internalType": "address",
          "name": "newOwner",
          "type": "address"
        }
      ],
      "name": "OwnershipTransferred",
      "type": "event"
    },
    {
      "anonymous": false,
      "inputs": [
        {
          "indexed": false,
          "internalType": "uint256",
          "name": "DSLAburnRate",
          "type": "uint256"
        },
        {
          "indexed": false,
          "internalType": "uint256",
          "name": "dslaDepositByPeriod",
          "type": "uint256"
        },
        {
          "indexed": false,
          "internalType": "uint256",
          "name": "dslaPlatformReward",
          "type": "uint256"
        },
        {
          "indexed": false,
          "internalType": "uint256",
          "name": "dslaUserReward",
          "type": "uint256"
        },
        {
          "indexed": false,
          "internalType": "uint256",
          "name": "dslaBurnedByVerification",
          "type": "uint256"
        }
      ],
      "name": "StakingParametersModified",
      "type": "event"
    },
    {
      "anonymous": false,
      "inputs": [
        {
          "indexed": true,
          "internalType": "address",
          "name": "sla",
          "type": "address"
        },
        {
          "indexed": true,
          "internalType": "address",
          "name": "requester",
          "type": "address"
        },
        {
          "indexed": false,
          "internalType": "uint256",
          "name": "userReward",
          "type": "uint256"
        },
        {
          "indexed": false,
          "internalType": "uint256",
          "name": "platformReward",
          "type": "uint256"
        },
        {
          "indexed": false,
          "internalType": "uint256",
          "name": "burnedDSLA",
          "type": "uint256"
        }
      ],
      "name": "VerificationRewardDistributed",
      "type": "event"
    },
    {
      "inputs": [],
      "name": "DSLATokenAddress",
      "outputs": [
        {
          "internalType": "address",
          "name": "",
          "type": "address"
        }
      ],
      "stateMutability": "view",
      "type": "function",
      "constant": true
    },
    {
      "inputs": [
        {
          "internalType": "uint256",
          "name": "",
          "type": "uint256"
        }
      ],
      "name": "allowedTokens",
      "outputs": [
        {
          "internalType": "address",
          "name": "",
          "type": "address"
        }
      ],
      "stateMutability": "view",
      "type": "function",
      "constant": true
    },
    {
      "inputs": [],
      "name": "owner",
      "outputs": [
        {
          "internalType": "address",
          "name": "",
          "type": "address"
        }
      ],
      "stateMutability": "view",
      "type": "function",
      "constant": true
    },
    {
      "inputs": [],
      "name": "renounceOwnership",
      "outputs": [],
      "stateMutability": "nonpayable",
      "type": "function"
    },
    {
      "inputs": [
        {
          "internalType": "address",
          "name": "",
          "type": "address"
        }
      ],
      "name": "slaLockedValue",
      "outputs": [
        {
          "internalType": "uint256",
          "name": "lockedValue",
          "type": "uint256"
        },
        {
          "internalType": "uint256",
          "name": "slaPeriodIdsLength",
          "type": "uint256"
        },
        {
          "internalType": "uint256",
          "name": "dslaDepositByPeriod",
          "type": "uint256"
        },
        {
          "internalType": "uint256",
          "name": "dslaPlatformReward",
          "type": "uint256"
        },
        {
          "internalType": "uint256",
          "name": "dslaUserReward",
          "type": "uint256"
        },
        {
          "internalType": "uint256",
          "name": "dslaBurnedByVerification",
          "type": "uint256"
        }
      ],
      "stateMutability": "view",
      "type": "function",
      "constant": true
    },
    {
      "inputs": [],
      "name": "slaRegistry",
      "outputs": [
        {
          "internalType": "contract SLARegistry",
          "name": "",
          "type": "address"
        }
      ],
      "stateMutability": "view",
      "type": "function",
      "constant": true
    },
    {
      "inputs": [
        {
          "internalType": "address",
          "name": "newOwner",
          "type": "address"
        }
      ],
      "name": "transferOwnership",
      "outputs": [],
      "stateMutability": "nonpayable",
      "type": "function"
    },
    {
      "inputs": [
        {
          "internalType": "address",
          "name": "",
          "type": "address"
        },
        {
          "internalType": "uint256",
          "name": "",
          "type": "uint256"
        }
      ],
      "name": "userStakedSlas",
      "outputs": [
        {
          "internalType": "contract SLA",
          "name": "",
          "type": "address"
        }
      ],
      "stateMutability": "view",
      "type": "function",
      "constant": true
    },
    {
      "inputs": [],
      "name": "setSLARegistry",
      "outputs": [],
      "stateMutability": "nonpayable",
      "type": "function"
    },
    {
      "inputs": [
        {
          "internalType": "address",
          "name": "_tokenAddress",
          "type": "address"
        }
      ],
      "name": "addAllowedTokens",
      "outputs": [],
      "stateMutability": "nonpayable",
      "type": "function"
    },
    {
      "inputs": [
        {
          "internalType": "address",
          "name": "_tokenAddress",
          "type": "address"
        }
      ],
      "name": "isAllowedToken",
      "outputs": [
        {
          "internalType": "bool",
          "name": "",
          "type": "bool"
        }
      ],
      "stateMutability": "view",
      "type": "function",
      "constant": true
    },
    {
      "inputs": [
        {
          "internalType": "address",
          "name": "_user",
          "type": "address"
        },
        {
          "internalType": "address",
          "name": "_sla",
          "type": "address"
        }
      ],
      "name": "slaWasStakedByUser",
      "outputs": [
        {
          "internalType": "bool",
          "name": "",
          "type": "bool"
        }
      ],
      "stateMutability": "view",
      "type": "function",
      "constant": true
    },
    {
      "inputs": [
        {
          "internalType": "address",
          "name": "_owner",
          "type": "address"
        }
      ],
      "name": "registerStakedSla",
      "outputs": [
        {
          "internalType": "bool",
          "name": "",
          "type": "bool"
        }
      ],
      "stateMutability": "nonpayable",
      "type": "function"
    },
    {
      "inputs": [
        {
          "internalType": "string",
          "name": "_name",
          "type": "string"
        },
        {
          "internalType": "string",
          "name": "_symbol",
          "type": "string"
        }
      ],
      "name": "createDToken",
      "outputs": [
        {
          "internalType": "address",
          "name": "",
          "type": "address"
        }
      ],
      "stateMutability": "nonpayable",
      "type": "function"
    },
    {
      "inputs": [
        {
          "internalType": "address",
          "name": "_slaOwner",
          "type": "address"
        },
        {
          "internalType": "address",
          "name": "_sla",
          "type": "address"
        },
        {
          "internalType": "uint256",
          "name": "_periodIdsLength",
          "type": "uint256"
        }
      ],
      "name": "lockDSLAValue",
      "outputs": [],
      "stateMutability": "nonpayable",
      "type": "function"
    },
    {
      "inputs": [
        {
          "internalType": "address",
          "name": "_sla",
          "type": "address"
        },
        {
          "internalType": "address",
          "name": "_verificationRewardReceiver",
          "type": "address"
        },
        {
          "internalType": "uint256",
          "name": "_periodId",
          "type": "uint256"
        }
      ],
      "name": "distributeVerificationRewards",
      "outputs": [],
      "stateMutability": "nonpayable",
      "type": "function"
    },
    {
      "inputs": [
        {
          "internalType": "address",
          "name": "_sla",
          "type": "address"
        }
      ],
      "name": "returnLockedValue",
      "outputs": [],
      "stateMutability": "nonpayable",
      "type": "function"
    },
    {
      "inputs": [
        {
          "internalType": "address",
          "name": "_slaOwner",
          "type": "address"
        }
      ],
      "name": "getActivePool",
      "outputs": [
        {
          "components": [
            {
              "internalType": "address",
              "name": "SLAAddress",
              "type": "address"
            },
            {
              "internalType": "uint256",
              "name": "stake",
              "type": "uint256"
            },
            {
              "internalType": "string",
              "name": "assetName",
              "type": "string"
            },
            {
              "internalType": "address",
              "name": "assetAddress",
              "type": "address"
            }
          ],
          "internalType": "struct StakeRegistry.ActivePool[]",
          "name": "",
          "type": "tuple[]"
        }
      ],
      "stateMutability": "view",
      "type": "function",
      "constant": true
    },
    {
      "inputs": [
        {
          "internalType": "uint256",
          "name": "DSLAburnRate",
          "type": "uint256"
        },
        {
          "internalType": "uint256",
          "name": "dslaDepositByPeriod",
          "type": "uint256"
        },
        {
          "internalType": "uint256",
          "name": "dslaPlatformReward",
          "type": "uint256"
        },
        {
          "internalType": "uint256",
          "name": "dslaUserReward",
          "type": "uint256"
        },
        {
          "internalType": "uint256",
          "name": "dslaBurnedByVerification",
          "type": "uint256"
        }
      ],
      "name": "setStakingParameters",
      "outputs": [],
      "stateMutability": "nonpayable",
      "type": "function"
    },
    {
      "inputs": [],
      "name": "getStakingParameters",
      "outputs": [
        {
          "internalType": "uint256",
          "name": "DSLAburnRate",
          "type": "uint256"
        },
        {
          "internalType": "uint256",
          "name": "dslaDepositByPeriod",
          "type": "uint256"
        },
        {
          "internalType": "uint256",
          "name": "dslaPlatformReward",
          "type": "uint256"
        },
        {
          "internalType": "uint256",
          "name": "dslaUserReward",
          "type": "uint256"
        },
        {
          "internalType": "uint256",
          "name": "dslaBurnedByVerification",
          "type": "uint256"
        }
      ],
      "stateMutability": "view",
      "type": "function",
      "constant": true
    },
    {
      "inputs": [
        {
          "internalType": "address",
          "name": "_sla",
          "type": "address"
        },
        {
          "internalType": "uint256",
          "name": "_periodId",
          "type": "uint256"
        }
      ],
      "name": "periodIsVerified",
      "outputs": [
        {
          "internalType": "bool",
          "name": "",
          "type": "bool"
        }
      ],
      "stateMutability": "view",
      "type": "function",
      "constant": true
    }
  ],
  "bytecode": "0x60806040526003805569043c33c193756480000060055569021e19e0c9bab240000060065569021ad935f79f76d00000600755680340aad21b3b7000006008553480156200004c57600080fd5b5060405162003f4c38038062003f4c8339810160408190526200006f91620001c3565b6000620000846001600160e01b036200019016565b600080546001600160a01b0319166001600160a01b0383169081178255604051929350917f8be0079c531659141344cd1fd0a4f28419497f9722a3daafe3b4186f6b6457e0908290a35062000107600854620000f36007546006546200019460201b620016f11790919060201c565b6200019460201b620016f11790919060201c565b60055414620001335760405162461bcd60e51b81526004016200012a9062000223565b60405180910390fd5b600180546001600160a01b039092166001600160a01b0319928316811782556009805492830181556000527f6e1540171b6c0c960b71a7020d9f60077f6af931a8bbf590da0223dacf75c7af90910180549092161790556200026f565b3390565b600082820183811015620001bc5760405162461bcd60e51b81526004016200012a90620001ec565b9392505050565b600060208284031215620001d5578081fd5b81516001600160a01b0381168114620001bc578182fd5b6020808252601b908201527f536166654d6174683a206164646974696f6e206f766572666c6f770000000000604082015260600190565b6020808252602c908201527f5374616b696e6720706172616d65746572732073686f756c64206d617463682060408201526b37b71039bab6b6b0ba34b7b760a11b606082015260800190565b613ccd806200027f6000396000f3fe60806040523480156200001157600080fd5b5060043610620001545760003560e01c80638da5cb5b11620000c9578063cbe230c31162000087578063cbe230c314620002c8578063db69a46214620002df578063f2c0dfd414620002e9578063f2fde38b146200030f578063f38815891462000326578063f700839e14620003305762000154565b80638da5cb5b146200026257806399317c70146200026c578063a3f5cadf1462000283578063ab9a81a5146200029a578063b290508e14620002b15762000154565b80635f635ce111620001175780635f635ce114620001f557806366a0428e1462000220578063715018a614620002375780637afb4c0a14620002415780638b8e530914620002585762000154565b80630df0bfc61462000159578063171e44ea146200018857806322f3c33c14620001a15780632575d7ca14620001b85780635e5f2e2614620001cf575b600080fd5b620001706200016a36600462001850565b6200034d565b6040516200017f919062001b73565b60405180910390f35b6200019f6200019936600462001812565b620003d8565b005b6200019f620001b23660046200188d565b62000498565b6200019f620001c936600462001812565b620007cf565b620001e6620001e0366004620019d3565b62000941565b6040516200017f919062001a80565b6200020c6200020636600462001812565b62000969565b6040516200017f9695949392919062001efa565b620001e6620002313660046200196b565b6200099e565b6200019f62000b68565b6200019f620002523660046200188d565b62000bec565b620001e662000d3c565b620001e662000d4b565b6200019f6200027d366004620019ec565b62000d5a565b620001e662000294366004620018d2565b62000e3b565b62000170620002ab366004620018d2565b62000e71565b62000170620002c236600462001812565b62000ea0565b62000170620002d936600462001812565b62000f9e565b620001e662000ffe565b62000300620002fa36600462001812565b6200100d565b6040516200017f919062001ad1565b6200019f6200032036600462001812565b62001431565b6200019f620014ef565b6200033a6200152f565b6040516200017f95949392919062001ed7565b6000805b6001600160a01b0384166000908152600a6020526040902054811015620003cc576001600160a01b038481166000908152600a60205260409020805491851691839081106200039c57fe5b6000918252602090912001546001600160a01b03161415620003c3576001915050620003d2565b60010162000351565b50600090505b92915050565b620003e262001549565b6000546001600160a01b039081169116146200041b5760405162461bcd60e51b8152600401620004129062001e54565b60405180910390fd5b620004268162000f9e565b15620004465760405162461bcd60e51b8152600401620004129062001d19565b600980546001810182556000919091527f6e1540171b6c0c960b71a7020d9f60077f6af931a8bbf590da0223dacf75c7af0180546001600160a01b0319166001600160a01b0392909216919091179055565b6002546001600160a01b03163314620004c55760405162461bcd60e51b8152600401620004129062001d8e565b6001600160a01b0383166000908152600460209081526040808320848452600681019092529091205460ff1615620005115760405162461bcd60e51b8152600401620004129062001c54565b60008281526006820160205260409020805460ff1916600117905560028101548154620005449163ffffffff6200154d16565b815560015460048083015460405163a9059cbb60e01b81526001600160a01b039093169263a9059cbb926200057e92889290910162001ab8565b602060405180830381600087803b1580156200059957600080fd5b505af1158015620005ae573d6000803e3d6000fd5b505050506040513d601f19601f82011682018060405250810190620005d4919062001930565b50600160009054906101000a90046001600160a01b03166001600160a01b031663a9059cbb856001600160a01b031663a224ee9c6040518163ffffffff1660e01b815260040160206040518083038186803b1580156200063357600080fd5b505afa15801562000648573d6000803e3d6000fd5b505050506040513d601f19601f820116820180604052508101906200066e919062001831565b6001600160a01b0316638da5cb5b6040518163ffffffff1660e01b815260040160206040518083038186803b158015620006a757600080fd5b505afa158015620006bc573d6000803e3d6000fd5b505050506040513d601f19601f82011682018060405250810190620006e2919062001831565b83600301546040518363ffffffff1660e01b81526004016200070692919062001ab8565b602060405180830381600087803b1580156200072157600080fd5b505af115801562000736573d6000803e3d6000fd5b505050506040513d601f19601f820116820180604052508101906200075c919062001930565b506200076c816005015462001598565b826001600160a01b0316846001600160a01b03167f4d536d3621867beca32a77299c38c7b93be6330c43db39b7df46aaee3987bdbd836004015484600301548560050154604051620007c19392919062001ec1565b60405180910390a350505050565b6002546001600160a01b03163314620007fc5760405162461bcd60e51b8152600401620004129062001d8e565b6001600160a01b0381166000908152600460205260409020805480620008365760405162461bcd60e51b8152600401620004129062001e89565b6000825560015460408051638da5cb5b60e01b815290516001600160a01b039283169263a9059cbb9290871691638da5cb5b91600480820192602092909190829003018186803b1580156200088a57600080fd5b505afa1580156200089f573d6000803e3d6000fd5b505050506040513d601f19601f82011682018060405250810190620008c5919062001831565b836040518363ffffffff1660e01b8152600401620008e592919062001ab8565b602060405180830381600087803b1580156200090057600080fd5b505af115801562000915573d6000803e3d6000fd5b505050506040513d601f19601f820116820180604052508101906200093b919062001930565b50505050565b600981815481106200094f57fe5b6000918252602090912001546001600160a01b0316905081565b600460208190526000918252604090912080546001820154600283015460038401549484015460059094015492949193909286565b60025460405163c4277a7b60e01b81526000916001600160a01b03169063c4277a7b90620009d190339060040162001a80565b60206040518083038186803b158015620009ea57600080fd5b505afa158015620009ff573d6000803e3d6000fd5b505050506040513d601f19601f8201168201806040525081019062000a25919062001930565b151560011462000a495760405162461bcd60e51b8152600401620004129062001bdc565b6000838360405162000a5b9062001748565b62000a6892919062001baa565b604051809103906000f08015801562000a85573d6000803e3d6000fd5b509050806001600160a01b0316632f2ff15d826001600160a01b031663d53913936040518163ffffffff1660e01b815260040160206040518083038186803b15801562000ad157600080fd5b505afa15801562000ae6573d6000803e3d6000fd5b505050506040513d601f19601f8201168201806040525081019062000b0c919062001952565b336040518363ffffffff1660e01b815260040162000b2c92919062001b7e565b600060405180830381600087803b15801562000b4757600080fd5b505af115801562000b5c573d6000803e3d6000fd5b50929695505050505050565b62000b7262001549565b6000546001600160a01b0390811691161462000ba25760405162461bcd60e51b8152600401620004129062001e54565b600080546040516001600160a01b03909116907f8be0079c531659141344cd1fd0a4f28419497f9722a3daafe3b4186f6b6457e0908390a3600080546001600160a01b0319169055565b6002546001600160a01b0316331462000c195760405162461bcd60e51b8152600401620004129062001d8e565b60055460009062000c31908363ffffffff620016b116565b6001546040516323b872dd60e01b81529192506001600160a01b0316906323b872dd9062000c689087903090869060040162001a94565b602060405180830381600087803b15801562000c8357600080fd5b505af115801562000c98573d6000803e3d6000fd5b505050506040513d601f19601f8201168201806040525081019062000cbe919062001930565b506040805160c081018252918252602080830193845260058054848401908152600654606086019081526007546080870190815260085460a088019081526001600160a01b03909916600090815260049586905295909520955186559551600186015551600285015593516003840155905190820155915191015550565b6001546001600160a01b031681565b6000546001600160a01b031690565b62000d6462001549565b6000546001600160a01b0390811691161462000d945760405162461bcd60e51b8152600401620004129062001e54565b600385905562000dbd8162000db0858563ffffffff620016f116565b9063ffffffff620016f116565b841462000dde5760405162461bcd60e51b8152600401620004129062001ccd565b60058490556006839055600782905560088190556040517f2d8ff15b210b309d5f27b582c867c39595f241cef8f6a806ad0c278c421639199062000e2c908790879087908790879062001ed7565b60405180910390a15050505050565b600a602052816000526040600020818154811062000e5557fe5b6000918252602090912001546001600160a01b03169150829050565b6001600160a01b0391909116600090815260046020908152604080832093835260069093019052205460ff1690565b60025460405163c4277a7b60e01b81526000916001600160a01b03169063c4277a7b9062000ed390339060040162001a80565b60206040518083038186803b15801562000eec57600080fd5b505afa15801562000f01573d6000803e3d6000fd5b505050506040513d601f19601f8201168201806040525081019062000f27919062001930565b151560011462000f4b5760405162461bcd60e51b8152600401620004129062001bdc565b62000f5782336200034d565b62000f95576001600160a01b0382166000908152600a602090815260408220805460018101825590835291200180546001600160a01b031916331790555b5060015b919050565b6000805b60095481101562000ff557826001600160a01b03166009828154811062000fc557fe5b6000918252602090912001546001600160a01b0316141562000fec57600191505062000f99565b60010162000fa2565b50600092915050565b6002546001600160a01b031681565b6040805180820190915260068152656e616d65282960d01b60209091015260607f06fdde0383f15d582d1a74511486c9ddf862a882fb7904b3d9fe9b8b8e58a7966000805b6001600160a01b0385166000908152600a60205260409020548110156200114b576001600160a01b0385166000908152600a602052604081208054839081106200109857fe5b9060005260206000200160009054906101000a90046001600160a01b031690506200113f816001600160a01b031663b7bc347e6040518163ffffffff1660e01b815260040160206040518083038186803b158015620010f657600080fd5b505afa1580156200110b573d6000803e3d6000fd5b505050506040513d601f19601f8201168201806040525081019062001131919062001952565b849063ffffffff620016f116565b92505060010162001052565b5060608167ffffffffffffffff811180156200116657600080fd5b50604051908082528060200260200182016040528015620011a457816020015b6200119062001756565b815260200190600190039081620011865790505b5090506000805b6001600160a01b0387166000908152600a602052604090205481101562001426576001600160a01b0387166000908152600a60205260408120805483908110620011f157fe5b60009182526020822001546001600160a01b031691505b816001600160a01b031663b7bc347e6040518163ffffffff1660e01b815260040160206040518083038186803b1580156200124257600080fd5b505afa15801562001257573d6000803e3d6000fd5b505050506040513d601f19601f820116820180604052508101906200127d919062001952565b8110156200141b57600080836001600160a01b03166357ac94f08c856040518363ffffffff1660e01b8152600401620012b892919062001ab8565b604080518083038186803b158015620012d057600080fd5b505afa158015620012e5573d6000803e3d6000fd5b505050506040513d601f19601f820116820180604052508101906200130b919062001900565b60408051600481526024810182526020810180516001600160e01b03166001600160e01b03198f1617905290519294509092506060916001600160a01b03851691620013579162001a62565b600060405180830381855afa9150503d806000811462001394576040519150601f19603f3d011682016040523d82523d6000602084013e62001399565b606091505b50915050620013a762001756565b6040518060800160405280876001600160a01b03168152602001848152602001838152602001856001600160a01b0316815250905080898981518110620013ea57fe5b60209081029190910101526200140888600163ffffffff620016f116565b9750506001909301925062001208915050565b5050600101620011ab565b509095945050505050565b6200143b62001549565b6000546001600160a01b039081169116146200146b5760405162461bcd60e51b8152600401620004129062001e54565b6001600160a01b038116620014945760405162461bcd60e51b8152600401620004129062001c0e565b600080546040516001600160a01b03808516939216917f8be0079c531659141344cd1fd0a4f28419497f9722a3daafe3b4186f6b6457e091a3600080546001600160a01b0319166001600160a01b0392909216919091179055565b6002546001600160a01b0316156200151b5760405162461bcd60e51b8152600401620004129062001d46565b600280546001600160a01b03191633179055565b600354600554600654600754600854939492939192909190565b3390565b60006200159183836040518060400160405280601e81526020017f536166654d6174683a207375627472616374696f6e206f766572666c6f77000081525062001719565b9392505050565b604080518082018252600d81526c6275726e2875696e743235362960981b60209091015260015490517f42966c689b5afe9b9b3f8a7103b2a19980d59629bfd6a20a60972312ed41d836916000916001600160a01b039091169083906200160490869060240162001eb8565b60408051601f198184030181529181526020820180516001600160e01b03166001600160e01b031990941693909317909252905162001644919062001a62565b6000604051808303816000865af19150503d806000811462001683576040519150601f19603f3d011682016040523d82523d6000602084013e62001688565b606091505b5050905080620016ac5760405162461bcd60e51b8152600401620004129062001dcf565b505050565b600082620016c257506000620003d2565b82820282848281620016d057fe5b0414620015915760405162461bcd60e51b8152600401620004129062001e13565b600082820183811015620015915760405162461bcd60e51b8152600401620004129062001c96565b60008184841115620017405760405162461bcd60e51b815260040162000412919062001b95565b505050900390565b611d2d8062001f6b83390190565b604051806080016040528060006001600160a01b03168152602001600081526020016060815260200160006001600160a01b031681525090565b600082601f830112620017a1578081fd5b813567ffffffffffffffff80821115620017b9578283fd5b604051601f8301601f191681016020018281118282101715620017da578485fd5b604052828152925082848301602001861015620017f657600080fd5b8260208601602083013760006020848301015250505092915050565b60006020828403121562001824578081fd5b8135620015918162001f51565b60006020828403121562001843578081fd5b8151620015918162001f51565b6000806040838503121562001863578081fd5b8235620018708162001f51565b91506020830135620018828162001f51565b809150509250929050565b600080600060608486031215620018a2578081fd5b8335620018af8162001f51565b92506020840135620018c18162001f51565b929592945050506040919091013590565b60008060408385031215620018e5578182fd5b8235620018f28162001f51565b946020939093013593505050565b6000806040838503121562001913578182fd5b8251620019208162001f51565b6020939093015192949293505050565b60006020828403121562001942578081fd5b8151801515811462001591578182fd5b60006020828403121562001964578081fd5b5051919050565b600080604083850312156200197e578182fd5b823567ffffffffffffffff8082111562001996578384fd5b620019a48683870162001790565b93506020850135915080821115620019ba578283fd5b50620019c98582860162001790565b9150509250929050565b600060208284031215620019e5578081fd5b5035919050565b600080600080600060a0868803121562001a04578081fd5b505083359560208501359550604085013594606081013594506080013592509050565b6001600160a01b03169052565b6000815180845262001a4e81602086016020860162001f22565b601f01601f19169290920160200192915050565b6000825162001a7681846020870162001f22565b9190910192915050565b6001600160a01b0391909116815260200190565b6001600160a01b039384168152919092166020820152604081019190915260600190565b6001600160a01b03929092168252602082015260400190565b60208082528251828201819052600091906040908185019080840286018301878501865b8381101562001b6557603f198984030185528151608062001b1885835162001a27565b888201518986015287820151818987015262001b378287018262001a34565b6060925082840151915062001b4f8388018362001a27565b978a019795505050918701915060010162001af5565b509098975050505050505050565b901515815260200190565b9182526001600160a01b0316602082015260400190565b60006020825262001591602083018462001a34565b60006040825262001bbf604083018562001a34565b828103602084015262001bd3818562001a34565b95945050505050565b6020808252601890820152774f6e6c7920666f72207265676973746572656420534c417360401b604082015260600190565b60208082526026908201527f4f776e61626c653a206e6577206f776e657220697320746865207a65726f206160408201526564647265737360d01b606082015260800190565b60208082526022908201527f506572696f64207265776172647320616c726561647920646973747269627574604082015261195960f21b606082015260800190565b6020808252601b908201527f536166654d6174683a206164646974696f6e206f766572666c6f770000000000604082015260600190565b6020808252602c908201527f5374616b696e6720706172616d65746572732073686f756c64206d617463682060408201526b37b71039bab6b6b0ba34b7b760a11b606082015260800190565b6020808252601390820152721d1bdad95b88185b1c9958591e481859191959606a1b604082015260600190565b60208082526028908201527f534c41526567697374727920616464726573732068617320616c7265616479206040820152671899595b881cd95d60c21b606082015260800190565b60208082526021908201527f43616e206f6e6c792062652063616c6c656420627920534c41526567697374726040820152607960f81b606082015260800190565b60208082526024908201527f44534c41206275726e2070726f6365737320776173206e6f74207375636365736040820152631cd99d5b60e21b606082015260800190565b60208082526021908201527f536166654d6174683a206d756c7469706c69636174696f6e206f766572666c6f6040820152607760f81b606082015260800190565b6020808252818101527f4f776e61626c653a2063616c6c6572206973206e6f7420746865206f776e6572604082015260600190565b6020808252601590820152746c6f636b65642076616c756520697320656d70747960581b604082015260600190565b90815260200190565b9283526020830191909152604082015260600190565b948552602085019390935260408401919091526060830152608082015260a00190565b958652602086019490945260408501929092526060840152608083015260a082015260c00190565b60005b8381101562001f3f57818101518382015260200162001f25565b838111156200093b5750506000910152565b6001600160a01b038116811462001f6757600080fd5b5056fe60806040523480156200001157600080fd5b5060405162001d2d38038062001d2d833981810160405260408110156200003757600080fd5b81019080805160405193929190846401000000008211156200005857600080fd5b9083019060208201858111156200006e57600080fd5b82516401000000008111828201881017156200008957600080fd5b82525081516020918201929091019080838360005b83811015620000b85781810151838201526020016200009e565b50505050905090810190601f168015620000e65780820380516001836020036101000a031916815260200191505b50604052602001805160405193929190846401000000008211156200010a57600080fd5b9083019060208201858111156200012057600080fd5b82516401000000008111828201881017156200013b57600080fd5b82525081516020918201929091019080838360005b838110156200016a57818101518382015260200162000150565b50505050905090810190601f168015620001985780820380516001836020036101000a031916815260200191505b50604052505082518391508290620001b8906004906020850190620003be565b508051620001ce906005906020840190620003be565b50506006805461ff001960ff19909116601217169055506200020d6000620001fe6001600160e01b036200028516565b6001600160e01b036200028a16565b604080516a4d494e5445525f524f4c4560a81b8152905190819003600b0190206200024590620001fe6001600160e01b036200028516565b604080516a5041555345525f524f4c4560a81b8152905190819003600b0190206200027d90620001fe6001600160e01b036200028516565b505062000460565b335b90565b6200029f82826001600160e01b03620002a316565b5050565b600082815260208181526040909120620002c89183906200133462000325821b17901c565b156200029f57620002e16001600160e01b036200028516565b6001600160a01b0316816001600160a01b0316837f2f8788117e7eff1d82e926ec794901d17c78024a50270940304540a733656f0d60405160405180910390a45050565b600062000345836001600160a01b0384166001600160e01b036200034e16565b90505b92915050565b60006200036583836001600160e01b03620003a616565b6200039d5750815460018181018455600084815260208082209093018490558454848252828601909352604090209190915562000348565b50600062000348565b60009081526001919091016020526040902054151590565b828054600181600116156101000203166002900490600052602060002090601f016020900481019282601f106200040157805160ff191683800117855562000431565b8280016001018555821562000431579182015b828111156200043157825182559160200191906001019062000414565b506200043f92915062000443565b5090565b6200028791905b808211156200043f57600081556001016200044a565b6118bd80620004706000396000f3fe608060405234801561001057600080fd5b50600436106101795760003560e01c806370a08231116100d9578063a457c2d711610087578063a457c2d71461047a578063a9059cbb146104a6578063ca15c873146104d2578063d5391393146104ef578063d547741f146104f7578063dd62ed3e14610523578063e63ab1e91461055157610179565b806370a08231146103a557806379cc6790146103cb5780638456cb59146103f75780639010d07c146103ff57806391d148541461043e57806395d89b411461046a578063a217fddf1461047257610179565b8063313ce56711610136578063313ce567146102d657806336568abe146102f457806339509351146103205780633f4ba83a1461034c57806340c10f191461035457806342966c68146103805780635c975abb1461039d57610179565b806306fdde031461017e578063095ea7b3146101fb57806318160ddd1461023b57806323b872dd14610255578063248a9ca31461028b5780632f2ff15d146102a8575b600080fd5b610186610559565b6040805160208082528351818301528351919283929083019185019080838360005b838110156101c05781810151838201526020016101a8565b50505050905090810190601f1680156101ed5780820380516001836020036101000a031916815260200191505b509250505060405180910390f35b6102276004803603604081101561021157600080fd5b506001600160a01b0381351690602001356105ef565b604080519115158252519081900360200190f35b61024361060d565b60408051918252519081900360200190f35b6102276004803603606081101561026b57600080fd5b506001600160a01b03813581169160208101359091169060400135610613565b610243600480360360208110156102a157600080fd5b50356106a0565b6102d4600480360360408110156102be57600080fd5b50803590602001356001600160a01b03166106b5565b005b6102de610721565b6040805160ff9092168252519081900360200190f35b6102d46004803603604081101561030a57600080fd5b50803590602001356001600160a01b031661072a565b6102276004803603604081101561033657600080fd5b506001600160a01b03813516906020013561078b565b6102d46107df565b6102d46004803603604081101561036a57600080fd5b506001600160a01b038135169060200135610850565b6102d46004803603602081101561039657600080fd5b50356108c1565b6102276108d5565b610243600480360360208110156103bb57600080fd5b50356001600160a01b03166108e3565b6102d4600480360360408110156103e157600080fd5b506001600160a01b0381351690602001356108fe565b6102d461095e565b6104226004803603604081101561041557600080fd5b50803590602001356109cd565b604080516001600160a01b039092168252519081900360200190f35b6102276004803603604081101561045457600080fd5b50803590602001356001600160a01b03166109f2565b610186610a10565b610243610a71565b6102276004803603604081101561049057600080fd5b506001600160a01b038135169060200135610a76565b610227600480360360408110156104bc57600080fd5b506001600160a01b038135169060200135610ae4565b610243600480360360208110156104e857600080fd5b5035610af8565b610243610b0f565b6102d46004803603604081101561050d57600080fd5b50803590602001356001600160a01b0316610b32565b6102436004803603604081101561053957600080fd5b506001600160a01b0381358116916020013516610b8b565b610243610bb6565b60048054604080516020601f60026000196101006001881615020190951694909404938401819004810282018101909252828152606093909290918301828280156105e55780601f106105ba576101008083540402835291602001916105e5565b820191906000526020600020905b8154815290600101906020018083116105c857829003601f168201915b5050505050905090565b60006106036105fc610bd9565b8484610bdd565b5060015b92915050565b60035490565b6000610620848484610cc9565b6106968461062c610bd9565b610691856040518060600160405280602881526020016116c7602891396001600160a01b038a1660009081526002602052604081209061066a610bd9565b6001600160a01b03168152602081019190915260400160002054919063ffffffff610e2016565b610bdd565b5060019392505050565b60009081526020819052604090206002015490565b6000828152602081905260409020600201546106d8906106d3610bd9565b6109f2565b6107135760405162461bcd60e51b815260040180806020018281038252602f8152602001806115c5602f913960400191505060405180910390fd5b61071d8282610eb7565b5050565b60065460ff1690565b610732610bd9565b6001600160a01b0316816001600160a01b0316146107815760405162461bcd60e51b815260040180806020018281038252602f81526020018061182f602f913960400191505060405180910390fd5b61071d8282610f26565b6000610603610798610bd9565b8461069185600260006107a9610bd9565b6001600160a01b03908116825260208083019390935260409182016000908120918c16815292529020549063ffffffff610f9516565b604080516a5041555345525f524f4c4560a81b8152905190819003600b01902061080b906106d3610bd9565b6108465760405162461bcd60e51b81526004018080602001828103825260398152602001806116166039913960400191505060405180910390fd5b61084e610fef565b565b604080516a4d494e5445525f524f4c4560a81b8152905190819003600b01902061087c906106d3610bd9565b6108b75760405162461bcd60e51b81526004018080602001828103825260368152602001806116ef6036913960400191505060405180910390fd5b61071d8282611093565b6108d26108cc610bd9565b8261117f565b50565b600654610100900460ff1690565b6001600160a01b031660009081526001602052604090205490565b600061093b826040518060600160405280602481526020016117256024913961092e86610929610bd9565b610b8b565b919063ffffffff610e2016565b905061094f83610949610bd9565b83610bdd565b610959838361117f565b505050565b604080516a5041555345525f524f4c4560a81b8152905190819003600b01902061098a906106d3610bd9565b6109c55760405162461bcd60e51b81526004018080602001828103825260378152602001806117d36037913960400191505060405180910390fd5b61084e611275565b60008281526020819052604081206109eb908363ffffffff6112fd16565b9392505050565b60008281526020819052604081206109eb908363ffffffff61130916565b60058054604080516020601f60026000196101006001881615020190951694909404938401819004810282018101909252828152606093909290918301828280156105e55780601f106105ba576101008083540402835291602001916105e5565b600081565b6000610603610a83610bd9565b846106918560405180606001604052806025815260200161180a6025913960026000610aad610bd9565b6001600160a01b03908116825260208083019390935260409182016000908120918d1681529252902054919063ffffffff610e2016565b6000610603610af1610bd9565b8484610cc9565b60008181526020819052604081206106079061131e565b604080516a4d494e5445525f524f4c4560a81b8152905190819003600b01902081565b600082815260208190526040902060020154610b50906106d3610bd9565b6107815760405162461bcd60e51b81526004018080602001828103825260308152602001806116976030913960400191505060405180910390fd5b6001600160a01b03918216600090815260026020908152604080832093909416825291909152205490565b604080516a5041555345525f524f4c4560a81b8152905190819003600b01902081565b3390565b6001600160a01b038316610c225760405162461bcd60e51b81526004018080602001828103825260248152602001806117af6024913960400191505060405180910390fd5b6001600160a01b038216610c675760405162461bcd60e51b815260040180806020018281038252602281526020018061164f6022913960400191505060405180910390fd5b6001600160a01b03808416600081815260026020908152604080832094871680845294825291829020859055815185815291517f8c5be1e5ebec7d5bd14f71427d1e84f3dd0314c0f7b2291e5b200ac8c7c3b9259281900390910190a3505050565b6001600160a01b038316610d0e5760405162461bcd60e51b815260040180806020018281038252602581526020018061178a6025913960400191505060405180910390fd5b6001600160a01b038216610d535760405162461bcd60e51b81526004018080602001828103825260238152602001806115a26023913960400191505060405180910390fd5b610d5e838383611329565b610da181604051806060016040528060268152602001611671602691396001600160a01b038616600090815260016020526040902054919063ffffffff610e2016565b6001600160a01b038085166000908152600160205260408082209390935590841681522054610dd6908263ffffffff610f9516565b6001600160a01b03808416600081815260016020908152604091829020949094558051858152905191939287169260008051602061174983398151915292918290030190a3505050565b60008184841115610eaf5760405162461bcd60e51b81526004018080602001828103825283818151815260200191508051906020019080838360005b83811015610e74578181015183820152602001610e5c565b50505050905090810190601f168015610ea15780820380516001836020036101000a031916815260200191505b509250505060405180910390fd5b505050900390565b6000828152602081905260409020610ed5908263ffffffff61133416565b1561071d57610ee2610bd9565b6001600160a01b0316816001600160a01b0316837f2f8788117e7eff1d82e926ec794901d17c78024a50270940304540a733656f0d60405160405180910390a45050565b6000828152602081905260409020610f44908263ffffffff61134916565b1561071d57610f51610bd9565b6001600160a01b0316816001600160a01b0316837ff6391f5c32d9c69d2a47ea670b442974b53935d1edc7fd64eb21e047a839171b60405160405180910390a45050565b6000828201838110156109eb576040805162461bcd60e51b815260206004820152601b60248201527f536166654d6174683a206164646974696f6e206f766572666c6f770000000000604482015290519081900360640190fd5b600654610100900460ff16611042576040805162461bcd60e51b815260206004820152601460248201527314185d5cd8589b194e881b9bdd081c185d5cd95960621b604482015290519081900360640190fd5b6006805461ff00191690557f5db9ee0a495bf2e6ff9c91a7834c1ba4fdd244a5e8aa4e537bd38aeae4b073aa611076610bd9565b604080516001600160a01b039092168252519081900360200190a1565b6001600160a01b0382166110ee576040805162461bcd60e51b815260206004820152601f60248201527f45524332303a206d696e7420746f20746865207a65726f206164647265737300604482015290519081900360640190fd5b6110fa60008383611329565b60035461110d908263ffffffff610f9516565b6003556001600160a01b038216600090815260016020526040902054611139908263ffffffff610f9516565b6001600160a01b03831660008181526001602090815260408083209490945583518581529351929391926000805160206117498339815191529281900390910190a35050565b6001600160a01b0382166111c45760405162461bcd60e51b81526004018080602001828103825260218152602001806117696021913960400191505060405180910390fd5b6111d082600083611329565b611213816040518060600160405280602281526020016115f4602291396001600160a01b038516600090815260016020526040902054919063ffffffff610e2016565b6001600160a01b03831660009081526001602052604090205560035461123f908263ffffffff61135e16565b6003556040805182815290516000916001600160a01b038516916000805160206117498339815191529181900360200190a35050565b600654610100900460ff16156112c5576040805162461bcd60e51b815260206004820152601060248201526f14185d5cd8589b194e881c185d5cd95960821b604482015290519081900360640190fd5b6006805461ff0019166101001790557f62e78cea01bee320cd4e420270b5ea74000d11b0c9f74754ebdbfc544b05a258611076610bd9565b60006109eb83836113a0565b60006109eb836001600160a01b038416611404565b60006106078261141c565b610959838383611420565b60006109eb836001600160a01b03841661146f565b60006109eb836001600160a01b0384166114b9565b60006109eb83836040518060400160405280601e81526020017f536166654d6174683a207375627472616374696f6e206f766572666c6f770000815250610e20565b815460009082106113e25760405162461bcd60e51b81526004018080602001828103825260228152602001806115806022913960400191505060405180910390fd5b8260000182815481106113f157fe5b9060005260206000200154905092915050565b60009081526001919091016020526040902054151590565b5490565b61142b838383610959565b6114336108d5565b156109595760405162461bcd60e51b815260040180806020018281038252602a81526020018061185e602a913960400191505060405180910390fd5b600061147b8383611404565b6114b157508154600181810184556000848152602080822090930184905584548482528286019093526040902091909155610607565b506000610607565b6000818152600183016020526040812054801561157557835460001980830191908101906000908790839081106114ec57fe5b906000526020600020015490508087600001848154811061150957fe5b60009182526020808320909101929092558281526001898101909252604090209084019055865487908061153957fe5b60019003818190600052602060002001600090559055866001016000878152602001908152602001600020600090556001945050505050610607565b600091505061060756fe456e756d657261626c655365743a20696e646578206f7574206f6620626f756e647345524332303a207472616e7366657220746f20746865207a65726f2061646472657373416363657373436f6e74726f6c3a2073656e646572206d75737420626520616e2061646d696e20746f206772616e7445524332303a206275726e20616d6f756e7420657863656564732062616c616e636545524332305072657365744d696e7465725061757365723a206d75737420686176652070617573657220726f6c6520746f20756e706175736545524332303a20617070726f766520746f20746865207a65726f206164647265737345524332303a207472616e7366657220616d6f756e7420657863656564732062616c616e6365416363657373436f6e74726f6c3a2073656e646572206d75737420626520616e2061646d696e20746f207265766f6b6545524332303a207472616e7366657220616d6f756e74206578636565647320616c6c6f77616e636545524332305072657365744d696e7465725061757365723a206d7573742068617665206d696e74657220726f6c6520746f206d696e7445524332303a206275726e20616d6f756e74206578636565647320616c6c6f77616e6365ddf252ad1be2c89b69c2b068fc378daa952ba7f163c4a11628f55a4df523b3ef45524332303a206275726e2066726f6d20746865207a65726f206164647265737345524332303a207472616e736665722066726f6d20746865207a65726f206164647265737345524332303a20617070726f76652066726f6d20746865207a65726f206164647265737345524332305072657365744d696e7465725061757365723a206d75737420686176652070617573657220726f6c6520746f20706175736545524332303a2064656372656173656420616c6c6f77616e63652062656c6f77207a65726f416363657373436f6e74726f6c3a2063616e206f6e6c792072656e6f756e636520726f6c657320666f722073656c6645524332305061757361626c653a20746f6b656e207472616e73666572207768696c6520706175736564a26469706673582212204ce765929d431a576985b95a3e707e84b252e3ae4e8bb21d648a5c7e247c6bb364736f6c63430006060033a2646970667358221220ccd40bd30c90b3ae840f5e9f9e3090e757912d41640d97a3ef6b270447044dba64736f6c63430006060033",
  "immutableReferences": {},
  "source": "// SPDX-License-Identifier: MIT\npragma solidity 0.6.6;\npragma experimental ABIEncoderV2;\n\nimport \"@openzeppelin/contracts/access/Ownable.sol\";\nimport \"@openzeppelin/contracts/math/SafeMath.sol\";\nimport \"@openzeppelin/contracts/presets/ERC20PresetMinterPauser.sol\";\nimport \"@openzeppelin/contracts/token/ERC20/IERC20.sol\";\nimport \"./SLA.sol\";\nimport \"./messenger/IMessenger.sol\";\nimport \"./SLARegistry.sol\";\nimport \"./StringUtils.sol\";\n\n/**\n * @title StakeRegistry\n * @dev StakeRegistry is a contract to register the staking activity of the platform, along\n with controlling certain admin privileged parameters\n */\ncontract StakeRegistry is Ownable, StringUtils {\n    using SafeMath for uint256;\n\n    /// @dev struct to return on getActivePool function.\n    struct ActivePool {\n        address SLAAddress;\n        uint256 stake;\n        string assetName;\n        address assetAddress;\n    }\n\n    struct LockedValue {\n        uint256 lockedValue;\n        uint256 slaPeriodIdsLength;\n        uint256 dslaDepositByPeriod;\n        uint256 dslaPlatformReward;\n        uint256 dslaUserReward;\n        uint256 dslaBurnedByVerification;\n        mapping(uint256 => bool) verifiedPeriods;\n    }\n\n    address public DSLATokenAddress;\n    SLARegistry public slaRegistry;\n\n    //______ onlyOwner modifiable parameters ______\n\n    /// @dev corresponds to the burn rate of DSLA tokens, but divided by 1000 i.e burn percentage = DSLAburnRate/1000 %\n    uint256 private _DSLAburnRate = 3;\n    /// @dev (ownerAddress => slaAddress => LockedValue) stores the locked value by the staker\n    mapping(address => LockedValue) public slaLockedValue;\n    /// @dev DSLA deposit by period to create SLA\n    uint256 private _dslaDepositByPeriod = 20000 ether;\n    /// @dev DSLA rewarded to Stacktical team\n    uint256 private _dslaPlatformReward = 10000 ether;\n    /// @dev DSLA rewarded to user calling the period verification\n    uint256 private _dslaUserReward = 9940 ether;\n    /// @dev DSLA burned after every period verification\n    uint256 private _dslaBurnedByVerification = 60 ether;\n\n    /// @dev array with the allowed tokens addresses of the StakeRegistry\n    address[] public allowedTokens;\n\n    /// @dev (userAddress => SLA[]) with user staked SLAs to get tokenPool\n    mapping(address => SLA[]) public userStakedSlas;\n\n    /**\n     * @dev event to log a verifiation reward distributed\n     * @param sla 1. The address of the created service level agreement contract\n     * @param requester 2. -\n     * @param userReward 3. -\n     * @param platformReward 4. -\n     * @param burnedDSLA 5. -\n     */\n    event VerificationRewardDistributed(\n        address indexed sla,\n        address indexed requester,\n        uint256 userReward,\n        uint256 platformReward,\n        uint256 burnedDSLA\n    );\n\n    /**\n     * @dev event to log modifications on the staking parameters\n     *@param DSLAburnRate 1. (DSLAburnRate/1000)% of DSLA to be burned after a reward/compensation is paid\n     *@param dslaDepositByPeriod 2. DSLA deposit by period to create SLA\n     *@param dslaPlatformReward 3. DSLA rewarded to Stacktical team\n     *@param dslaUserReward 4. DSLA rewarded to user calling the period verification\n     *@param dslaBurnedByVerification 5. DSLA burned after every period verification\n     */\n    event StakingParametersModified(\n        uint256 DSLAburnRate,\n        uint256 dslaDepositByPeriod,\n        uint256 dslaPlatformReward,\n        uint256 dslaUserReward,\n        uint256 dslaBurnedByVerification\n    );\n\n    /**\n     * @param _dslaTokenAddress 1. DSLA Token\n     */\n    constructor(address _dslaTokenAddress) public {\n        require(\n            _dslaDepositByPeriod ==\n                _dslaPlatformReward.add(_dslaUserReward).add(\n                    _dslaBurnedByVerification\n                ),\n            \"Staking parameters should match on summation\"\n        );\n        DSLATokenAddress = _dslaTokenAddress;\n        allowedTokens.push(_dslaTokenAddress);\n    }\n\n    /// @dev Throws if called by any address other than the SLARegistry contract or Chainlink Oracle.\n    modifier onlySLARegistry() {\n        require(\n            msg.sender == address(slaRegistry),\n            \"Can only be called by SLARegistry\"\n        );\n        _;\n    }\n\n    /**\n     * @dev sets the SLARegistry contract address and can only be called\n     * once\n     */\n    function setSLARegistry() public {\n        // Only able to trigger this function once\n        require(\n            address(slaRegistry) == address(0),\n            \"SLARegistry address has already been set\"\n        );\n\n        slaRegistry = SLARegistry(msg.sender);\n    }\n\n    /**\n     *@dev add a token to ve allowed for staking\n     *@param _tokenAddress 1. address of the new allowed token\n     */\n    function addAllowedTokens(address _tokenAddress) public onlyOwner {\n        require(isAllowedToken(_tokenAddress) == false, \"token already added\");\n        allowedTokens.push(_tokenAddress);\n    }\n\n    function isAllowedToken(address _tokenAddress) public view returns (bool) {\n        for (uint256 index = 0; index < allowedTokens.length; index++) {\n            if (allowedTokens[index] == _tokenAddress) {\n                return true;\n            }\n        }\n        return false;\n    }\n\n    /**\n     *@dev public view function that returns true if the _owner has staked on _sla\n     *@param _user 1. address to check\n     *@param _sla 2. sla to check\n     *@return bool, true if _sla was staked by _user\n     */\n    function slaWasStakedByUser(address _user, address _sla)\n        public\n        view\n        returns (bool)\n    {\n        for (uint256 index = 0; index < userStakedSlas[_user].length; index++) {\n            if (address(userStakedSlas[_user][index]) == _sla) {\n                return true;\n            }\n        }\n        return false;\n    }\n\n    /**\n     *@dev register the sending SLA contract as staked by _owner\n     *@param _owner 1. SLA contract to stake\n     */\n    function registerStakedSla(address _owner) public returns (bool) {\n        require(\n            slaRegistry.isRegisteredSLA(msg.sender) == true,\n            \"Only for registered SLAs\"\n        );\n        if (slaWasStakedByUser(_owner, msg.sender) == false) {\n            userStakedSlas[_owner].push(SLA(msg.sender));\n        }\n        return true;\n    }\n\n    /**\n     *@dev to create dTokens for staking\n     *@param _name 1. token name\n     *@param _symbol 2. token symbol\n     */\n    function createDToken(string memory _name, string memory _symbol)\n        public\n        returns (address)\n    {\n        require(\n            slaRegistry.isRegisteredSLA(msg.sender) == true,\n            \"Only for registered SLAs\"\n        );\n        ERC20PresetMinterPauser dToken =\n            new ERC20PresetMinterPauser(_name, _symbol);\n        dToken.grantRole(dToken.MINTER_ROLE(), msg.sender);\n        return address(dToken);\n    }\n\n    function lockDSLAValue(\n        address _slaOwner,\n        address _sla,\n        uint256 _periodIdsLength\n    ) public onlySLARegistry {\n        uint256 lockedValue = _dslaDepositByPeriod.mul(_periodIdsLength);\n        IERC20(DSLATokenAddress).transferFrom(\n            _slaOwner,\n            address(this),\n            lockedValue\n        );\n        slaLockedValue[_sla] = LockedValue({\n            lockedValue: lockedValue,\n            slaPeriodIdsLength: _periodIdsLength,\n            dslaDepositByPeriod: _dslaDepositByPeriod,\n            dslaPlatformReward: _dslaPlatformReward,\n            dslaUserReward: _dslaUserReward,\n            dslaBurnedByVerification: _dslaBurnedByVerification\n        });\n    }\n\n    function distributeVerificationRewards(\n        address _sla,\n        address _verificationRewardReceiver,\n        uint256 _periodId\n    ) public onlySLARegistry {\n        LockedValue storage _lockedValue = slaLockedValue[_sla];\n        require(\n            _lockedValue.verifiedPeriods[_periodId] == false,\n            \"Period rewards already distributed\"\n        );\n        _lockedValue.verifiedPeriods[_periodId] = true;\n        _lockedValue.lockedValue = _lockedValue.lockedValue.sub(\n            _lockedValue.dslaDepositByPeriod\n        );\n        IERC20(DSLATokenAddress).transfer(\n            _verificationRewardReceiver,\n            _lockedValue.dslaUserReward\n        );\n        IERC20(DSLATokenAddress).transfer(\n            IMessenger(SLA(_sla).messengerAddress()).owner(),\n            _lockedValue.dslaPlatformReward\n        );\n        _burnDSLATokens(_lockedValue.dslaBurnedByVerification);\n        emit VerificationRewardDistributed(\n            _sla,\n            _verificationRewardReceiver,\n            _lockedValue.dslaUserReward,\n            _lockedValue.dslaPlatformReward,\n            _lockedValue.dslaBurnedByVerification\n        );\n    }\n\n    function returnLockedValue(address _sla) public onlySLARegistry {\n        LockedValue storage _lockedValue = slaLockedValue[_sla];\n        uint256 remainingBalance = _lockedValue.lockedValue;\n        require(remainingBalance > 0, \"locked value is empty\");\n        _lockedValue.lockedValue = 0;\n        IERC20(DSLATokenAddress).transfer(SLA(_sla).owner(), remainingBalance);\n    }\n\n    function _burnDSLATokens(uint256 _amount) internal {\n        bytes4 BURN_SELECTOR = bytes4(keccak256(bytes(\"burn(uint256)\")));\n        (bool _success, ) =\n            DSLATokenAddress.call(\n                abi.encodeWithSelector(BURN_SELECTOR, _amount)\n            );\n        require(_success, \"DSLA burn process was not successful\");\n    }\n\n    /**\n     * @dev returns the active pools owned by a user.\n     * @param _slaOwner 1. owner of the active pool\n     * @return ActivePool[], array of structs: {SLAAddress,stake,assetName}\n     */\n    function getActivePool(address _slaOwner)\n        public\n        view\n        returns (ActivePool[] memory)\n    {\n        bytes4 NAME_SELECTOR = bytes4(keccak256(bytes(\"name()\")));\n        uint256 stakeCounter = 0;\n        // Count the stakes of the user, checking every SLA staked\n        for (\n            uint256 index = 0;\n            index < userStakedSlas[_slaOwner].length;\n            index++\n        ) {\n            SLA currentSLA = SLA(userStakedSlas[_slaOwner][index]);\n            stakeCounter = stakeCounter.add(\n                currentSLA.getAllowedTokensLength()\n            );\n        }\n\n        ActivePool[] memory activePools = new ActivePool[](stakeCounter);\n        // to insert on activePools array\n        uint256 stakePosition = 0;\n        for (\n            uint256 index = 0;\n            index < userStakedSlas[_slaOwner].length;\n            index++\n        ) {\n            SLA currentSLA = userStakedSlas[_slaOwner][index];\n            for (\n                uint256 tokenIndex = 0;\n                tokenIndex < currentSLA.getAllowedTokensLength();\n                tokenIndex++\n            ) {\n                (address tokenAddress, uint256 stake) =\n                    currentSLA.getTokenStake(_slaOwner, tokenIndex);\n                (, bytes memory tokenNameBytes) =\n                    tokenAddress.staticcall(\n                        abi.encodeWithSelector(NAME_SELECTOR)\n                    );\n                ActivePool memory currentActivePool =\n                    ActivePool({\n                        SLAAddress: address(currentSLA),\n                        stake: stake,\n                        assetName: string(tokenNameBytes),\n                        assetAddress: tokenAddress\n                    });\n                activePools[stakePosition] = currentActivePool;\n                stakePosition = stakePosition.add(1);\n            }\n        }\n        return activePools;\n    }\n\n    //_______ OnlyOwner functions _______\n    function setStakingParameters(\n        uint256 DSLAburnRate,\n        uint256 dslaDepositByPeriod,\n        uint256 dslaPlatformReward,\n        uint256 dslaUserReward,\n        uint256 dslaBurnedByVerification\n    ) public onlyOwner {\n        _DSLAburnRate = DSLAburnRate;\n        require(\n            dslaDepositByPeriod ==\n                dslaPlatformReward.add(dslaUserReward).add(\n                    dslaBurnedByVerification\n                ),\n            \"Staking parameters should match on summation\"\n        );\n        _dslaDepositByPeriod = dslaDepositByPeriod;\n        _dslaPlatformReward = dslaPlatformReward;\n        _dslaUserReward = dslaUserReward;\n        _dslaBurnedByVerification = dslaBurnedByVerification;\n        emit StakingParametersModified(\n            DSLAburnRate,\n            dslaDepositByPeriod,\n            dslaPlatformReward,\n            dslaUserReward,\n            dslaBurnedByVerification\n        );\n    }\n\n    function getStakingParameters()\n        public\n        view\n        returns (\n            uint256 DSLAburnRate,\n            uint256 dslaDepositByPeriod,\n            uint256 dslaPlatformReward,\n            uint256 dslaUserReward,\n            uint256 dslaBurnedByVerification\n        )\n    {\n        DSLAburnRate = _DSLAburnRate;\n        dslaDepositByPeriod = _dslaDepositByPeriod;\n        dslaPlatformReward = _dslaPlatformReward;\n        dslaUserReward = _dslaUserReward;\n        dslaBurnedByVerification = _dslaBurnedByVerification;\n    }\n\n    function periodIsVerified(address _sla, uint256 _periodId)\n        public\n        view\n        returns (bool)\n    {\n        return slaLockedValue[_sla].verifiedPeriods[_periodId];\n    }\n}\n",
  "sourcePath": "/Users/matiasbn/Desktop/stacktical/stacktical-dsla-contracts/contracts/StakeRegistry.sol",
  "compiler": {
    "name": "solc",
    "version": "0.6.6+commit.6c089d02.Emscripten.clang"
  },
  "schemaVersion": "3.3.3",
  "updatedAt": "2021-03-11T20:42:17.920Z",
  "networkType": "ethereum",
  "devdoc": {
    "details": "StakeRegistry is a contract to register the staking activity of the platform, along with controlling certain admin privileged parameters",
    "methods": {
      "constructor": {
        "params": {
          "_dslaTokenAddress": "1. DSLA Token"
        }
      },
      "getActivePool(address)": {
        "details": "returns the active pools owned by a user.",
        "params": {
          "_slaOwner": "1. owner of the active pool"
        },
        "returns": {
          "_0": "ActivePool[], array of structs: {SLAAddress,stake,assetName}"
        }
      },
      "owner()": {
        "details": "Returns the address of the current owner."
      },
      "renounceOwnership()": {
        "details": "Leaves the contract without owner. It will not be possible to call `onlyOwner` functions anymore. Can only be called by the current owner.     * NOTE: Renouncing ownership will leave the contract without an owner, thereby removing any functionality that is only available to the owner."
      },
      "setSLARegistry()": {
        "details": "sets the SLARegistry contract address and can only be called once"
      },
      "transferOwnership(address)": {
        "details": "Transfers ownership of the contract to a new account (`newOwner`). Can only be called by the current owner."
      }
    },
    "title": "StakeRegistry"
  },
  "userdoc": {
    "methods": {
      "addAllowedTokens(address)": {
        "notice": "dev add a token to ve allowed for staking param _tokenAddress 1. address of the new allowed token"
      },
      "createDToken(string,string)": {
        "notice": "dev to create dTokens for staking param _name 1. token name param _symbol 2. token symbol"
      },
      "registerStakedSla(address)": {
        "notice": "dev register the sending SLA contract as staked by _owner param _owner 1. SLA contract to stake"
      },
      "slaWasStakedByUser(address,address)": {
        "notice": "dev public view function that returns true if the _owner has staked on _sla param _user 1. address to check param _sla 2. sla to check return bool, true if _sla was staked by _user"
      }
    }
  }
}