{
  "contractName": "Staking",
  "abi": [
    {
      "inputs": [
        {
          "internalType": "address",
          "name": "_baseTokenAddress",
          "type": "address"
        },
        {
          "internalType": "uint256[]",
          "name": "_sla_period_starts",
          "type": "uint256[]"
        },
        {
          "internalType": "uint256[]",
          "name": "_sla_period_ends",
          "type": "uint256[]"
        },
        {
          "internalType": "address",
          "name": "_owner",
          "type": "address"
        }
      ],
      "stateMutability": "nonpayable",
      "type": "constructor"
    },
    {
      "anonymous": false,
      "inputs": [
        {
          "indexed": true,
          "internalType": "uint256",
          "name": "period_index",
          "type": "uint256"
        }
      ],
      "name": "NewPeriodAdded",
      "type": "event"
    },
    {
      "anonymous": false,
      "inputs": [
        {
          "indexed": true,
          "internalType": "address",
          "name": "previousOwner",
          "type": "address"
        },
        {
          "indexed": true,
          "internalType": "address",
          "name": "newOwner",
          "type": "address"
        }
      ],
      "name": "OwnershipTransferred",
      "type": "event"
    },
    {
      "inputs": [],
      "name": "BaseToken",
      "outputs": [
        {
          "internalType": "contract IERC20",
          "name": "",
          "type": "address"
        }
      ],
      "stateMutability": "view",
      "type": "function"
    },
    {
      "inputs": [
        {
          "internalType": "uint256",
          "name": "",
          "type": "uint256"
        }
      ],
      "name": "allowedTokens",
      "outputs": [
        {
          "internalType": "address",
          "name": "",
          "type": "address"
        }
      ],
      "stateMutability": "view",
      "type": "function"
    },
    {
      "inputs": [
        {
          "internalType": "address",
          "name": "",
          "type": "address"
        }
      ],
      "name": "allowedTokensMapping",
      "outputs": [
        {
          "internalType": "bool",
          "name": "",
          "type": "bool"
        }
      ],
      "stateMutability": "view",
      "type": "function"
    },
    {
      "inputs": [],
      "name": "owner",
      "outputs": [
        {
          "internalType": "address",
          "name": "",
          "type": "address"
        }
      ],
      "stateMutability": "view",
      "type": "function"
    },
    {
      "inputs": [
        {
          "internalType": "uint256",
          "name": "",
          "type": "uint256"
        }
      ],
      "name": "periods",
      "outputs": [
        {
          "internalType": "uint256",
          "name": "sla_period_start",
          "type": "uint256"
        },
        {
          "internalType": "uint256",
          "name": "sla_period_end",
          "type": "uint256"
        },
        {
          "internalType": "uint256",
          "name": "claimed_reward",
          "type": "uint256"
        },
        {
          "internalType": "bool",
          "name": "claimed",
          "type": "bool"
        },
        {
          "internalType": "enum Staking.Status",
          "name": "status",
          "type": "uint8"
        }
      ],
      "stateMutability": "view",
      "type": "function"
    },
    {
      "inputs": [],
      "name": "renounceOwnership",
      "outputs": [],
      "stateMutability": "nonpayable",
      "type": "function"
    },
    {
      "inputs": [
        {
          "internalType": "uint256",
          "name": "",
          "type": "uint256"
        }
      ],
      "name": "stakers",
      "outputs": [
        {
          "internalType": "address",
          "name": "",
          "type": "address"
        }
      ],
      "stateMutability": "view",
      "type": "function"
    },
    {
      "inputs": [
        {
          "internalType": "address",
          "name": "",
          "type": "address"
        }
      ],
      "name": "tokensPool",
      "outputs": [
        {
          "internalType": "uint256",
          "name": "",
          "type": "uint256"
        }
      ],
      "stateMutability": "view",
      "type": "function"
    },
    {
      "inputs": [],
      "name": "totalStaked",
      "outputs": [
        {
          "internalType": "uint256",
          "name": "",
          "type": "uint256"
        }
      ],
      "stateMutability": "view",
      "type": "function"
    },
    {
      "inputs": [
        {
          "internalType": "address",
          "name": "newOwner",
          "type": "address"
        }
      ],
      "name": "transferOwnership",
      "outputs": [],
      "stateMutability": "nonpayable",
      "type": "function"
    },
    {
      "inputs": [
        {
          "internalType": "address",
          "name": "",
          "type": "address"
        }
      ],
      "name": "uniqueTokensStaked",
      "outputs": [
        {
          "internalType": "uint256",
          "name": "",
          "type": "uint256"
        }
      ],
      "stateMutability": "view",
      "type": "function"
    },
    {
      "inputs": [
        {
          "internalType": "address",
          "name": "",
          "type": "address"
        },
        {
          "internalType": "address",
          "name": "",
          "type": "address"
        }
      ],
      "name": "userStakedTokens",
      "outputs": [
        {
          "internalType": "bool",
          "name": "",
          "type": "bool"
        }
      ],
      "stateMutability": "view",
      "type": "function"
    },
    {
      "inputs": [
        {
          "internalType": "address",
          "name": "",
          "type": "address"
        },
        {
          "internalType": "address",
          "name": "",
          "type": "address"
        }
      ],
      "name": "userStakedTokensIndex",
      "outputs": [
        {
          "internalType": "uint256",
          "name": "",
          "type": "uint256"
        }
      ],
      "stateMutability": "view",
      "type": "function"
    },
    {
      "inputs": [
        {
          "internalType": "address",
          "name": "",
          "type": "address"
        },
        {
          "internalType": "uint256",
          "name": "",
          "type": "uint256"
        }
      ],
      "name": "userStakes",
      "outputs": [
        {
          "internalType": "address",
          "name": "tokenAddress",
          "type": "address"
        },
        {
          "internalType": "uint256",
          "name": "stake",
          "type": "uint256"
        }
      ],
      "stateMutability": "view",
      "type": "function"
    },
    {
      "inputs": [],
      "name": "validator",
      "outputs": [
        {
          "internalType": "address",
          "name": "",
          "type": "address"
        }
      ],
      "stateMutability": "view",
      "type": "function"
    },
    {
      "inputs": [
        {
          "internalType": "uint256",
          "name": "_sla_period_start",
          "type": "uint256"
        },
        {
          "internalType": "uint256",
          "name": "_sla_period_end",
          "type": "uint256"
        }
      ],
      "name": "addNewPeriod",
      "outputs": [],
      "stateMutability": "nonpayable",
      "type": "function"
    },
    {
      "inputs": [
        {
          "internalType": "address",
          "name": "_token",
          "type": "address"
        }
      ],
      "name": "addAllowedTokens",
      "outputs": [],
      "stateMutability": "nonpayable",
      "type": "function"
    },
    {
      "inputs": [
        {
          "internalType": "address",
          "name": "_token",
          "type": "address"
        },
        {
          "internalType": "uint256",
          "name": "_period",
          "type": "uint256"
        }
      ],
      "name": "withdraw",
      "outputs": [],
      "stateMutability": "nonpayable",
      "type": "function"
    },
    {
      "inputs": [
        {
          "internalType": "address",
          "name": "_token",
          "type": "address"
        },
        {
          "internalType": "uint256",
          "name": "_amount",
          "type": "uint256"
        },
        {
          "internalType": "uint256",
          "name": "_period",
          "type": "uint256"
        }
      ],
      "name": "withdrawAndStake",
      "outputs": [],
      "stateMutability": "nonpayable",
      "type": "function"
    },
    {
      "inputs": [
        {
          "internalType": "uint256",
          "name": "_period",
          "type": "uint256"
        }
      ],
      "name": "claimReward",
      "outputs": [],
      "stateMutability": "nonpayable",
      "type": "function"
    },
    {
      "inputs": [
        {
          "internalType": "uint256",
          "name": "_period",
          "type": "uint256"
        }
      ],
      "name": "claimCompensation",
      "outputs": [],
      "stateMutability": "nonpayable",
      "type": "function"
    },
    {
      "inputs": [
        {
          "internalType": "address",
          "name": "_user",
          "type": "address"
        },
        {
          "internalType": "uint256",
          "name": "_period",
          "type": "uint256"
        }
      ],
      "name": "getUserTotalValue",
      "outputs": [
        {
          "internalType": "uint256",
          "name": "",
          "type": "uint256"
        }
      ],
      "stateMutability": "view",
      "type": "function"
    },
    {
      "inputs": [],
      "name": "stakersCount",
      "outputs": [
        {
          "internalType": "uint256",
          "name": "",
          "type": "uint256"
        }
      ],
      "stateMutability": "view",
      "type": "function"
    },
    {
      "inputs": [
        {
          "internalType": "uint256",
          "name": "_periodId",
          "type": "uint256"
        }
      ],
      "name": "getPeriodData",
      "outputs": [
        {
          "internalType": "uint256",
          "name": "periodStart",
          "type": "uint256"
        },
        {
          "internalType": "uint256",
          "name": "periodEnd",
          "type": "uint256"
        }
      ],
      "stateMutability": "view",
      "type": "function"
    },
    {
      "inputs": [
        {
          "internalType": "address",
          "name": "_owner",
          "type": "address"
        }
      ],
      "name": "getTokenStakeLength",
      "outputs": [
        {
          "internalType": "uint256",
          "name": "",
          "type": "uint256"
        }
      ],
      "stateMutability": "view",
      "type": "function"
    },
    {
      "inputs": [
        {
          "internalType": "address",
          "name": "_owner",
          "type": "address"
        },
        {
          "internalType": "uint256",
          "name": "_index",
          "type": "uint256"
        }
      ],
      "name": "getTokenStake",
      "outputs": [
        {
          "internalType": "address",
          "name": "tokenAddress",
          "type": "address"
        },
        {
          "internalType": "uint256",
          "name": "stake",
          "type": "uint256"
        }
      ],
      "stateMutability": "view",
      "type": "function"
    }
  ],
  "bytecode": "0x60806040523480156200001157600080fd5b50604051620025ac380380620025ac833981810160405260808110156200003757600080fd5b8151602083018051604051929492938301929190846401000000008211156200005f57600080fd5b9083019060208201858111156200007557600080fd5b82518660208202830111640100000000821117156200009357600080fd5b82525081516020918201928201910280838360005b83811015620000c2578181015183820152602001620000a8565b5050505090500160405260200180516040519392919084640100000000821115620000ec57600080fd5b9083019060208201858111156200010257600080fd5b82518660208202830111640100000000821117156200012057600080fd5b82525081516020918201928201910280838360005b838110156200014f57818101518382015260200162000135565b505050509190910160405250602001519150600090506200016f620002d0565b600080546001600160a01b0319166001600160a01b0383169081178255604051929350917f8be0079c531659141344cd1fd0a4f28419497f9722a3daafe3b4186f6b6457e0908290a3508151835114620001fb5760405162461bcd60e51b8152600401808060200182810382526029815260200180620025836029913960400191505060405180910390fd5b600480546001600160a01b038084166001600160a01b0319928316179092556001805492871692821683178155600680548083019091557ff652222313e28459528d920b65115c16c04f3efc82aaedc97be59f3f377c0d3f01805490921683179091556000918252600760205260408220805460ff191690911790555b8351811015620002c557620002bc8482815181106200029357fe5b6020026020010151848381518110620002a857fe5b6020026020010151620002d460201b60201c565b60010162000278565b505050505062000553565b3390565b620002de62000517565b82815260208101828152600060808301818152600280546001810182559281905284517f405787fa12a823e0f2b7631cc41b3ba8828b3321ca811111fa75cd3aa3bb5ace600690940293840190815593517f405787fa12a823e0f2b7631cc41b3ba8828b3321ca811111fa75cd3aa3bb5acf84015560408501517f405787fa12a823e0f2b7631cc41b3ba8828b3321ca811111fa75cd3aa3bb5ad084015560608501517f405787fa12a823e0f2b7631cc41b3ba8828b3321ca811111fa75cd3aa3bb5ad1909301805460ff19169315159390931780845591518594939092909161ff001990911690610100908490811115620003d657fe5b02179055505050620003fd60016002805490506200042b60201b620018961790919060201c565b6040517ff791e873e3b67fe74b29aeede7bcbbdaa59c4b64e542571183cd837aa56f6ac990600090a2505050565b60006200047583836040518060400160405280601e81526020017f536166654d6174683a207375627472616374696f6e206f766572666c6f7700008152506200047c60201b60201c565b9392505050565b600081848411156200050f5760405162461bcd60e51b81526004018080602001828103825283818151815260200191508051906020019080838360005b83811015620004d3578181015183820152602001620004b9565b50505050905090810190601f168015620005015780820380516001836020036101000a031916815260200191505b509250505060405180910390fd5b505050900390565b6040518060a00160405280600081526020016000815260200160008152602001600015158152602001600060028111156200054e57fe5b905290565b61202080620005636000396000f3fe608060405234801561001057600080fd5b506004361061016e5760003560e01c806390f81702116100ce578063ec04de4811610087578063ec04de4814610438578063f10bd7721461045e578063f2fde38b1461048a578063f3fef3a3146104b0578063fc875ece146104dc578063fd0d553414610512578063fd5e6dd1146105385761016e565b806390f817021461035d578063a2e80c5e14610365578063ae169a501461036d578063b5d5b5fa1461038a578063b83e0234146103b6578063ea4a1104146103dc5761016e565b806353e85fd51161012b57806353e85fd51461028a57806357ac94f0146102a75780635e5f2e26146102f6578063715018a61461031357806375fdf2a91461031b578063817b1cd21461034d5780638da5cb5b146103555761016e565b80630e1fcf3414610173578063105237cf14610198578063171e44ea146101d25780631934d0e8146101f85780632eac9787146102265780633a5381b514610266575b600080fd5b6101966004803603604081101561018957600080fd5b5080359060200135610555565b005b6101be600480360360208110156101ae57600080fd5b50356001600160a01b03166105bb565b604080519115158252519081900360200190f35b610196600480360360208110156101e857600080fd5b50356001600160a01b03166105d0565b6101be6004803603604081101561020e57600080fd5b506001600160a01b03813581169160200135166106f3565b6102546004803603604081101561023c57600080fd5b506001600160a01b0381358116916020013516610713565b60408051918252519081900360200190f35b61026e610730565b604080516001600160a01b039092168252519081900360200190f35b610196600480360360208110156102a057600080fd5b503561073f565b6102d3600480360360408110156102bd57600080fd5b506001600160a01b038135169060200135610af8565b604080516001600160a01b03909316835260208301919091528051918290030190f35b61026e6004803603602081101561030c57600080fd5b5035610b78565b610196610b9f565b6101966004803603606081101561033157600080fd5b506001600160a01b038135169060208101359060400135610c41565b610254611033565b61026e611039565b61026e611048565b610254611057565b6101966004803603602081101561038357600080fd5b503561105d565b6102d3600480360360408110156103a057600080fd5b506001600160a01b0381351690602001356112d4565b610254600480360360208110156103cc57600080fd5b50356001600160a01b0316611317565b6103f9600480360360208110156103f257600080fd5b5035611329565b60405180868152602001858152602001848152602001831515815260200182600281111561042357fe5b81526020019550505050505060405180910390f35b6102546004803603602081101561044e57600080fd5b50356001600160a01b031661136c565b6102546004803603604081101561047457600080fd5b506001600160a01b03813516906020013561138b565b610196600480360360208110156104a057600080fd5b50356001600160a01b0316611439565b610196600480360360408110156104c657600080fd5b506001600160a01b038135169060200135611531565b6104f9600480360360208110156104f257600080fd5b503561182d565b6040805192835260208301919091528051918290030190f35b6102546004803603602081101561052857600080fd5b50356001600160a01b0316611877565b61026e6004803603602081101561054e57600080fd5b5035611889565b61055d6118d8565b6000546001600160a01b039081169116146105ad576040805162461bcd60e51b81526020600482018190526024820152600080516020611f8f833981519152604482015290519081900360640190fd5b6105b782826118dc565b5050565b60076020526000908152604090205460ff1681565b6105d86118d8565b6000546001600160a01b03908116911614610628576040805162461bcd60e51b81526020600482018190526024820152600080516020611f8f833981519152604482015290519081900360640190fd5b6001600160a01b03811660009081526007602052604090205460ff161561068c576040805162461bcd60e51b81526020600482015260136024820152721d1bdad95b88185b1c9958591e481859191959606a1b604482015290519081900360640190fd5b6006805460018181019092557ff652222313e28459528d920b65115c16c04f3efc82aaedc97be59f3f377c0d3f0180546001600160a01b039093166001600160a01b031990931683179055600091825260076020526040909120805460ff19169091179055565b600b60209081526000928352604080842090915290825290205460ff1681565b600a60209081526000928352604080842090915290825290205481565b6004546001600160a01b031681565b806002818154811061074d57fe5b906000526020600020906006020160000154421015801561078c57506002818154811061077657fe5b9060005260206000209060060201600101544211155b61079557600080fd5b6004546001600160a01b03163314156107ed576040805162461bcd60e51b8152602060048201526015602482015274596f752061726520612076616c696461746f72202160581b604482015290519081900360640190fd5b60028083815481106107fb57fe5b906000526020600020906006020160030160019054906101000a900460ff16600281111561082557fe5b14610869576040805162461bcd60e51b815260206004820152600f60248201526e534c4120726573706563746564202160881b604482015290519081900360640190fd5b6002828154811061087657fe5b6000918252602080832033845260056006909302019190910190526040902054156108d25760405162461bcd60e51b815260040180806020018281038252603c815260200180611faf603c913960400191505060405180910390fd5b60006108de338461138b565b905060006108f8600a6108f2846003611a1e565b90611a77565b6003549091506109089083611896565b600381905550816002858154811061091c57fe5b6000918252602080832033808552600693909302016005018152604080842094909455600154845163a9059cbb60e01b815260048101939093526024830187905293516001600160a01b039094169363a9059cbb936044808501948390030190829087803b15801561098d57600080fd5b505af11580156109a1573d6000803e3d6000fd5b505050506040513d60208110156109b757600080fd5b5050600154604080518082018252600d81526c6275726e2875696e743235362960981b60209182015281516024808201869052835180830390910181526044909101835290810180516001600160e01b0316630852cd8d60e31b178152915181516000946001600160a01b03169382918083835b60208310610a4a5780518252601f199092019160209182019101610a2b565b6001836020036101000a0380198251168184511680821785525050505050509050019150506000604051808303816000865af19150503d8060008114610aac576040519150601f19603f3d011682016040523d82523d6000602084013e610ab1565b606091505b5050905080610af15760405162461bcd60e51b8152600401808060200182810382526029815260200180611ee96029913960400191505060405180910390fd5b5050505050565b6001600160a01b0382166000908152600960205260408120805482919084908110610b1f57fe5b600091825260208083206002909202909101546001600160a01b03878116845260099092526040909220805491909216919085908110610b5b57fe5b906000526020600020906002020160010154915091509250929050565b60068181548110610b8557fe5b6000918252602090912001546001600160a01b0316905081565b610ba76118d8565b6000546001600160a01b03908116911614610bf7576040805162461bcd60e51b81526020600482018190526024820152600080516020611f8f833981519152604482015290519081900360640190fd5b600080546040516001600160a01b03909116907f8be0079c531659141344cd1fd0a4f28419497f9722a3daafe3b4186f6b6457e0908390a3600080546001600160a01b0319169055565b6004546001600160a01b0316331415610c99576040805162461bcd60e51b8152602060048201526015602482015274596f752061726520612076616c696461746f72202160581b604482015290519081900360640190fd5b6001600160a01b038316600090815260076020526040902054839060ff161515600114610d04576040805162461bcd60e51b81526020600482015260146024820152731d1bdad95b881a5cc81b9bdd08185b1b1bddd95960621b604482015290519081900360640190fd5b600060028381548110610d1357fe5b600091825260208083206001600160a01b03891684526004600690930201919091018152604080832033845290915290205411610d95576040805162461bcd60e51b815260206004820152601b60248201527a07374616b696e672062616c616e63652063616e6e6f74206265203602c1b604482015290519081900360640190fd5b604080516323b872dd60e01b81523360048201523060248201526044810185905290516001600160a01b038616916323b872dd9160648083019260209291908290030181600087803b158015610dea57600080fd5b505af1158015610dfe573d6000803e3d6000fd5b505050506040513d6020811015610e1457600080fd5b505060028054610e6291859185908110610e2a57fe5b600091825260208083206001600160a01b038a1684526004600690930201919091018152604080832033845290915290205490611ab9565b60028381548110610e6f57fe5b600091825260208083206001600160a01b038916845260046006909302019190910181526040808320338452909152902055600354610eae9084611ab9565b600355610ebb8484611b13565b600060028381548110610eca57fe5b600091825260208083206001600160a01b03891684526004600690930201919091018152604080832033845290915281205460055460028054929450610f349287908110610f1457fe5b906000526020600020906006020160020154611a7790919063ffffffff16565b9050600060028581548110610f4557fe5b600091825260208083206001600160a01b038b16845260046006909302019190910181526040808320338452909152902055600354610f849083611896565b6003556001546001600160a01b031663a9059cbb33610fa38585611896565b6040518363ffffffff1660e01b815260040180836001600160a01b0316815260200182815260200192505050602060405180830381600087803b158015610fe957600080fd5b505af1158015610ffd573d6000803e3d6000fd5b505050506040513d602081101561101357600080fd5b505060015461102b906001600160a01b031683611cb3565b505050505050565b60035481565b6000546001600160a01b031690565b6001546001600160a01b031681565b60055490565b806002818154811061106b57fe5b90600052602060002090600602016000015442101580156110aa57506002818154811061109457fe5b9060005260206000209060060201600101544211155b6110b357600080fd5b6004546001600160a01b0316331461110e576040805162461bcd60e51b8152602060048201526019602482015278596f7520617265206e6f7420612076616c696461746f72202160381b604482015290519081900360640190fd5b60016002838154811061111d57fe5b906000526020600020906006020160030160019054906101000a900460ff16600281111561114757fe5b1461118f576040805162461bcd60e51b8152602060048201526013602482015272534c41206e6f7420726573706563746564202160681b604482015290519081900360640190fd5b6002828154811061119c57fe5b600091825260209091206003600690920201015460ff16156111ef5760405162461bcd60e51b8152600401808060200182810382526036815260200180611f386036913960400191505060405180910390fd5b6002546003546000916112029190611a77565b90506000611216600a6108f2846003611a1e565b6003549091506112269083611896565b600381905550816002858154811061123a57fe5b90600052602060002090600602016002018190555060016002858154811061125e57fe5b60009182526020808320600692909202909101600301805460ff1916931515939093179092556001546040805163a9059cbb60e01b81523360048201526024810187905290516001600160a01b039092169363a9059cbb9360448084019492938390030190829087803b15801561098d57600080fd5b600960205281600052604060002081815481106112ed57fe5b6000918252602090912060029091020180546001909101546001600160a01b039091169250905082565b60086020526000908152604090205481565b6002818154811061133657fe5b60009182526020909120600690910201805460018201546002830154600390930154919350919060ff8082169161010090041685565b6001600160a01b0381166000908152600960205260409020545b919050565b6001600160a01b0382166000908152600860205260408120548190156114305760005b60065481101561142e57611424600285815481106113c857fe5b90600052602060002090600602016004016000600684815481106113e857fe5b60009182526020808320909101546001600160a01b0390811684528382019490945260409283018220938a168252929092529020548390611ab9565b91506001016113ae565b505b90505b92915050565b6114416118d8565b6000546001600160a01b03908116911614611491576040805162461bcd60e51b81526020600482018190526024820152600080516020611f8f833981519152604482015290519081900360640190fd5b6001600160a01b0381166114d65760405162461bcd60e51b8152600401808060200182810382526026815260200180611f126026913960400191505060405180910390fd5b600080546040516001600160a01b03808516939216917f8be0079c531659141344cd1fd0a4f28419497f9722a3daafe3b4186f6b6457e091a3600080546001600160a01b0319166001600160a01b0392909216919091179055565b6004546001600160a01b0316331415611589576040805162461bcd60e51b8152602060048201526015602482015274596f752061726520612076616c696461746f72202160581b604482015290519081900360640190fd5b6001600160a01b038216600090815260076020526040902054829060ff1615156001146115f4576040805162461bcd60e51b81526020600482015260146024820152731d1bdad95b881a5cc81b9bdd08185b1b1bddd95960621b604482015290519081900360640190fd5b60006002838154811061160357fe5b600091825260208083206001600160a01b03881684526004600690930201919091018152604080832033845290915290205411611685576040805162461bcd60e51b815260206004820152601b60248201527a07374616b696e672062616c616e63652063616e6e6f74206265203602c1b604482015290519081900360640190fd5b60006002838154811061169457fe5b600091825260208083206001600160a01b038816845260046006909302019190910181526040808320338452909152812054600554600280549294506116de9287908110610f1457fe5b90506000600285815481106116ef57fe5b600091825260208083206001600160a01b038a1684526004600690930201919091018152604080832033845290915290205560035461172e9083611896565b6003556001600160a01b03851663a9059cbb3361174b8585611896565b6040518363ffffffff1660e01b815260040180836001600160a01b0316815260200182815260200192505050602060405180830381600087803b15801561179157600080fd5b505af11580156117a5573d6000803e3d6000fd5b505050506040513d60208110156117bb57600080fd5b5050336000908152600860205260409020546117d8906001611896565b3360009081526008602052604090208190556118235760006117f933611d58565b90506005818154811061180857fe5b600091825260209091200180546001600160a01b0319169055505b610af18583611cb3565b6000806002838154811061183d57fe5b9060005260206000209060060201600001546002848154811061185c57fe5b90600052602060002090600602016001015491509150915091565b600c6020526000908152604090205481565b60058181548110610b8557fe5b600061143083836040518060400160405280601e81526020017f536166654d6174683a207375627472616374696f6e206f766572666c6f770000815250611db1565b3390565b6118e4611ead565b82815260208101828152600060808301818152600280546001810182559281905284517f405787fa12a823e0f2b7631cc41b3ba8828b3321ca811111fa75cd3aa3bb5ace600690940293840190815593517f405787fa12a823e0f2b7631cc41b3ba8828b3321ca811111fa75cd3aa3bb5acf84015560408501517f405787fa12a823e0f2b7631cc41b3ba8828b3321ca811111fa75cd3aa3bb5ad084015560608501517f405787fa12a823e0f2b7631cc41b3ba8828b3321ca811111fa75cd3aa3bb5ad1909301805460ff19169315159390931780845591518594939092909161ff0019909116906101009084908111156119db57fe5b0217905550506002546119f091506001611896565b6040517ff791e873e3b67fe74b29aeede7bcbbdaa59c4b64e542571183cd837aa56f6ac990600090a2505050565b600082611a2d57506000611433565b82820282848281611a3a57fe5b04146114305760405162461bcd60e51b8152600401808060200182810382526021815260200180611f6e6021913960400191505060405180910390fd5b600061143083836040518060400160405280601a81526020017f536166654d6174683a206469766973696f6e206279207a65726f000000000000815250611e48565b600082820183811015611430576040805162461bcd60e51b815260206004820152601b60248201527f536166654d6174683a206164646974696f6e206f766572666c6f770000000000604482015290519081900360640190fd5b336000908152600b602090815260408083206001600160a01b038616845290915290205460ff16611bde57336000818152600960209081526040808320815180830183526001600160a01b03888116808352828601898152845460018082018755868a52888a209551600290920290950180546001600160a01b0319169190941617835551918301919091558686529154600a85528386208387528552838620600019919091019055948452600b83528184209084529091529020805460ff19169091179055611c70565b336000818152600a602090815260408083206001600160a01b0387168452825280832054938352600990915290208054611c3e91849184908110611c1e57fe5b906000526020600020906002020160010154611ab990919063ffffffff16565b336000908152600960205260409020805483908110611c5957fe5b906000526020600020906002020160010181905550505b6001600160a01b0382166000908152600c6020526040902054611c939082611ab9565b6001600160a01b039092166000908152600c602052604090209190915550565b336000818152600a602090815260408083206001600160a01b0387168452825280832054938352600990915290208054611d1391849184908110611cf357fe5b90600052602060002090600202016001015461189690919063ffffffff16565b506001600160a01b0383166000908152600c6020526040902054611d379083611896565b6001600160a01b039093166000908152600c60205260409020929092555050565b6000805b600554811015611da757826001600160a01b031660058281548110611d7d57fe5b6000918252602090912001546001600160a01b03161415611d9f579050611386565b600101611d5c565b5060001992915050565b60008184841115611e405760405162461bcd60e51b81526004018080602001828103825283818151815260200191508051906020019080838360005b83811015611e05578181015183820152602001611ded565b50505050905090810190601f168015611e325780820380516001836020036101000a031916815260200191505b509250505060405180910390fd5b505050900390565b60008183611e975760405162461bcd60e51b8152602060048201818152835160248401528351909283926044909101919085019080838360008315611e05578181015183820152602001611ded565b506000838581611ea357fe5b0495945050505050565b6040518060a0016040528060008152602001600081526020016000815260200160001515815260200160006002811115611ee357fe5b90529056fe42617365546f6b656e206275726e2070726f6365737320776173206e6f74207375636365737366756c4f776e61626c653a206e6577206f776e657220697320746865207a65726f2061646472657373596f75206861766520616c726561647920636c61696d656420796f75722072657761726420666f72207468697320706572696f642021536166654d6174683a206d756c7469706c69636174696f6e206f766572666c6f774f776e61626c653a2063616c6c6572206973206e6f7420746865206f776e6572596f75206861766520616c726561647920636c61696d656420796f757220636f6d70656e736174696f6e20666f72207468697320706572696f642021a2646970667358221220b981eeb5108d05a8350f9950f42fb54a44f5aea5d19e9a2c69890f6cc077e64764736f6c634300060c0033506c6561736520636865636b2074686520706172616d73206f6620796f757220706572696f64732021",
  "immutableReferences": {},
  "source": "// SPDX-License-Identifier: MIT\npragma solidity ^0.6.0;\n\nimport \"@openzeppelin/contracts/token/ERC20/IERC20.sol\";\nimport \"@openzeppelin/contracts/access/Ownable.sol\";\nimport \"@openzeppelin/contracts/math/SafeMath.sol\";\n\ncontract Staking is Ownable {\n    using SafeMath for uint256;\n\n    enum Status {NotVerified, Respected, NotRespected}\n\n    struct Period {\n        uint256 sla_period_start;\n        uint256 sla_period_end;\n        uint256 claimed_reward;\n        bool claimed;\n        Status status;\n        mapping(address => mapping(address => uint256)) stakingBalance; // staking balance for all tokens (address token => (address user => amount))\n        mapping(address => uint256) claimed_compensation;\n    }\n\n    struct TokenStake {\n        address tokenAddress;\n        uint256 stake;\n    }\n    bytes4 private constant BURN_SELECTOR =\n        bytes4(keccak256(bytes(\"burn(uint256)\")));\n\n    /// @dev IERC20 of the base stake address for the SLA\n    IERC20 public BaseToken;\n\n    /// @dev all periods for an SLA\n    Period[] public periods;\n\n    /// @dev userAddress => erc20Address => index of userStakes mapping array\n    uint256 public totalStaked;\n    /// @dev address of the validator for the SLA\n    address public validator;\n    /// @dev list of all stakers (validators, vouchers, delegators ...)\n    address[] public stakers;\n    /// @dev array with the allowed tokens addresses of the SLA\n    address[] public allowedTokens;\n    /// @dev mapping for all allowed tokens to be staked\n    mapping(address => bool) public allowedTokensMapping;\n    /// @dev (mapping) userAddress => amountOf tokens mapping\n    mapping(address => uint256) public uniqueTokensStaked;\n    /// @dev (mapping) userAddress => TokenStake[] mapping\n    mapping(address => TokenStake[]) public userStakes;\n    /// @dev (mapping) userAddress => erc20Address => index: index of the TokenStake array\n    mapping(address => mapping(address => uint256))\n        public userStakedTokensIndex;\n    /// @dev (mapping) userAddress => erc20Address => bool: user has erc20Address staked\n    mapping(address => mapping(address => bool)) public userStakedTokens;\n    /// @dev (mapping) erc20Address => stakeAmount: stake amount by tokenAddress\n    mapping(address => uint256) public tokensPool;\n\n    /**\n     *@param period_index 1. index of the period added\n     */\n    event NewPeriodAdded(uint256 indexed period_index);\n\n    modifier notValidator {\n        require(msg.sender != validator, \"You are a validator !\");\n        _;\n    }\n\n    modifier onlyValidator {\n        require(msg.sender == validator, \"You are not a validator !\");\n        _;\n    }\n\n    modifier onlyInPeriod(uint256 _period) {\n        require(\n            block.timestamp >= periods[_period].sla_period_start &&\n                block.timestamp <= periods[_period].sla_period_end\n        );\n        _;\n    }\n\n    modifier onlyAllowedToken(address _token) {\n        require(allowedTokensMapping[_token] == true, \"token is not allowed\");\n        _;\n    }\n\n    /**\n     *@param _baseTokenAddress 1. address of the base token\n     *@param _sla_period_starts 2. array of starts of period\n     *@param _sla_period_ends 3. array of ends of period\n     *@param _owner 4. address of the owner of the SLA\n     */\n    constructor(\n        address _baseTokenAddress,\n        uint256[] memory _sla_period_starts,\n        uint256[] memory _sla_period_ends,\n        address _owner\n    ) public {\n        require(\n            _sla_period_starts.length == _sla_period_ends.length,\n            \"Please check the params of your periods !\"\n        );\n        validator = _owner;\n\n        // Add BaseToken as allowed token\n        BaseToken = IERC20(_baseTokenAddress);\n        allowedTokens.push(_baseTokenAddress);\n        allowedTokensMapping[_baseTokenAddress] = true;\n\n        for (uint256 i = 0; i < _sla_period_starts.length; i++) {\n            _addPeriod(_sla_period_starts[i], _sla_period_ends[i]);\n        }\n    }\n\n    /**\n     *@dev add a new period to the array\n     *@param _sla_period_start 1. uint256 of the start of the period\n     *@param _sla_period_end 2. uint256 of the end of the period\n     */\n    function addNewPeriod(uint256 _sla_period_start, uint256 _sla_period_end)\n        public\n        onlyOwner\n    {\n        _addPeriod(_sla_period_start, _sla_period_end);\n    }\n\n    /**\n     *@dev add a token to ve allowed for staking\n     *@param _token 1. address of the new allowed token\n     */\n    function addAllowedTokens(address _token) public onlyOwner {\n        require(allowedTokensMapping[_token] == false, \"token already added\");\n        allowedTokens.push(_token);\n        allowedTokensMapping[_token] = true;\n    }\n\n    /**\n     *@dev increase the amount staked per token\n     *@param _token 1. address of the token\n     *@param _amount 2. amount to be staked\n     */\n    function _increaseTokenStaking(address _token, uint256 _amount) internal {\n        if (userStakedTokens[msg.sender][_token] == false) {\n            userStakes[msg.sender].push(\n                TokenStake({tokenAddress: _token, stake: _amount})\n            );\n            uint256 newTokenIndex = userStakes[msg.sender].length - 1;\n            userStakedTokensIndex[msg.sender][_token] = newTokenIndex;\n            userStakedTokens[msg.sender][_token] = true;\n        } else {\n            uint256 tokenIndex = userStakedTokensIndex[msg.sender][_token];\n            userStakes[msg.sender][tokenIndex].stake = userStakes[msg.sender][\n                tokenIndex\n            ]\n                .stake\n                .add(_amount);\n        }\n        tokensPool[_token] = tokensPool[_token].add(_amount);\n    }\n\n    /**\n     *@dev decrease the amount staked per token\n     *@param _token 1. address of the token\n     *@param _amount 2. amount to be decreased\n     */\n    function _decreaseTokenStaking(address _token, uint256 _amount) internal {\n        uint256 tokenIndex = userStakedTokensIndex[msg.sender][_token];\n        userStakes[msg.sender][tokenIndex].stake.sub(_amount);\n        tokensPool[_token] = tokensPool[_token].sub(_amount);\n    }\n\n    /**\n     *@dev increase the amount staked per token\n     *@param _amount 1. amount to be staked\n     *@param _token 2. address of the token\n     *@param _period 3. period id to stake\n     */\n    function _stakeTokens(\n        uint256 _amount,\n        address _token,\n        uint256 _period\n    ) internal onlyAllowedToken(_token) {\n        require(_amount > 0, \"amount cannot be 0\");\n        // check if the staker had already staked another token or not\n        _updateUniqueTokensStaked(msg.sender, _token, _period);\n        // stake tokens\n        IERC20(_token).transferFrom(msg.sender, address(this), _amount);\n        // update balance of staked tokens per staker\n        periods[_period].stakingBalance[_token][msg.sender] = periods[_period]\n            .stakingBalance[_token][msg.sender]\n            .add(_amount);\n        totalStaked = totalStaked.add(_amount);\n\n        // if the token is the unique one staked by the staker\n        // add the staker to the list\n        if (uniqueTokensStaked[msg.sender] == 1) {\n            stakers.push(msg.sender);\n        }\n\n        _increaseTokenStaking(_token, _amount);\n    }\n\n    /**\n     *@dev withdraw staked tokens\n     *@param _token 1. address of the token\n     *@param _period 2. period id to withdraw\n     */\n    function withdraw(address _token, uint256 _period)\n        public\n        notValidator\n        onlyAllowedToken(_token)\n    {\n        // check if staker has staked tokens\n        require(\n            periods[_period].stakingBalance[_token][msg.sender] > 0,\n            \"staking balance cannot be 0\"\n        );\n\n        uint256 staked = periods[_period].stakingBalance[_token][msg.sender];\n        uint256 claimed_reward =\n            periods[_period].claimed_reward.div(stakers.length);\n\n        periods[_period].stakingBalance[_token][msg.sender] = 0;\n        totalStaked = totalStaked.sub(staked);\n        IERC20(_token).transfer(msg.sender, staked.sub(claimed_reward));\n\n        // update uniqueTokensStaked for the staker\n        uniqueTokensStaked[msg.sender] = uniqueTokensStaked[msg.sender].sub(1);\n\n        if (uniqueTokensStaked[msg.sender] == 0) {\n            uint256 index = _getIndex(msg.sender);\n            delete stakers[index];\n        }\n\n        _decreaseTokenStaking(_token, staked);\n    }\n\n    /**\n     *@dev withdraw BaseToken and stake d Tokens\n     *@param _token 1. address of the token\n     *@param _amount 2. amount to withdraw\n     *@param _period 3. period id to withdraw\n     */\n    function withdrawAndStake(\n        address _token,\n        uint256 _amount,\n        uint256 _period\n    ) public notValidator onlyAllowedToken(_token) {\n        // check if staker has staked tokens\n        require(\n            periods[_period].stakingBalance[_token][msg.sender] > 0,\n            \"staking balance cannot be 0\"\n        );\n\n        // stake d tokens\n        IERC20(_token).transferFrom(msg.sender, address(this), _amount);\n        // update balance of staked tokens per staker\n        periods[_period].stakingBalance[_token][msg.sender] = periods[_period]\n            .stakingBalance[_token][msg.sender]\n            .add(_amount);\n        totalStaked = totalStaked.add(_amount);\n\n        _increaseTokenStaking(_token, _amount);\n\n        // unstake base tokens\n        uint256 staked = periods[_period].stakingBalance[_token][msg.sender];\n        uint256 claimed_reward =\n            periods[_period].claimed_reward.div(stakers.length);\n\n        periods[_period].stakingBalance[_token][msg.sender] = 0;\n        totalStaked = totalStaked.sub(staked);\n        BaseToken.transfer(msg.sender, staked.sub(claimed_reward));\n\n        _decreaseTokenStaking(address(BaseToken), staked);\n    }\n\n    /**\n     *@dev claim from validators\n     *@param _period 1. period id to claim\n     */\n    function claimReward(uint256 _period)\n        public\n        onlyInPeriod(_period)\n        onlyValidator\n    {\n        require(\n            periods[_period].status == Status.Respected,\n            \"SLA not respected !\"\n        );\n        require(\n            !periods[_period].claimed,\n            \"You have already claimed your reward for this period !\"\n        );\n\n        uint256 reward = totalStaked.div(periods.length);\n        uint256 fees = reward.mul(3).div(10);\n\n        totalStaked = totalStaked.sub(reward);\n        periods[_period].claimed_reward = reward;\n        periods[_period].claimed = true;\n\n        BaseToken.transfer(msg.sender, reward);\n        (bool _success, ) =\n            address(BaseToken).call(\n                abi.encodeWithSelector(BURN_SELECTOR, fees)\n            );\n\n        require(_success, \"BaseToken burn process was not successful\");\n    }\n\n    /**\n     *@dev claim from delegators\n     *@param _period 1. period id to claim\n     */\n    function claimCompensation(uint256 _period)\n        public\n        onlyInPeriod(_period)\n        notValidator\n    {\n        require(\n            periods[_period].status == Status.NotRespected,\n            \"SLA respected !\"\n        );\n        require(\n            periods[_period].claimed_compensation[msg.sender] == 0,\n            \"You have already claimed your compensation for this period !\"\n        );\n\n        uint256 compensation = getUserTotalValue(msg.sender, _period);\n        uint256 fees = compensation.mul(3).div(10);\n\n        totalStaked = totalStaked.sub(compensation);\n        periods[_period].claimed_compensation[msg.sender] = compensation;\n\n        BaseToken.transfer(msg.sender, compensation);\n        (bool _success, ) =\n            address(BaseToken).call(\n                abi.encodeWithSelector(BURN_SELECTOR, fees)\n            );\n\n        require(_success, \"BaseToken burn process was not successful\");\n    }\n\n    /**\n     *@dev get the user total value staked\n     *@param _user 1. address of the user\n     *@param _period 2. period id to claim\n     */\n    function getUserTotalValue(address _user, uint256 _period)\n        public\n        view\n        returns (uint256)\n    {\n        uint256 totalValue = 0;\n        if (uniqueTokensStaked[_user] > 0) {\n            for (\n                uint256 allowedTokensIndex = 0;\n                allowedTokensIndex < allowedTokens.length;\n                allowedTokensIndex++\n            ) {\n                totalValue = totalValue.add(\n                    periods[_period].stakingBalance[\n                        allowedTokens[allowedTokensIndex]\n                    ][_user]\n                );\n            }\n        }\n        return totalValue;\n    }\n\n    function _updateUniqueTokensStaked(\n        address _user,\n        address _token,\n        uint256 _period\n    ) internal {\n        if (periods[_period].stakingBalance[_token][_user] <= 0) {\n            uniqueTokensStaked[_user] = uniqueTokensStaked[_user].add(1);\n        }\n    }\n\n    function _getIndex(address _user) internal view returns (uint256) {\n        for (uint256 i = 0; i < stakers.length; i++) {\n            if (stakers[i] == _user) {\n                return i;\n            }\n        }\n        return (uint256(-1));\n    }\n\n    function _addPeriod(uint256 _sla_period_start, uint256 _sla_period_end)\n        internal\n    {\n        Period memory _period;\n\n        _period.sla_period_start = _sla_period_start;\n        _period.sla_period_end = _sla_period_end;\n        _period.status = Status.NotVerified;\n\n        periods.push(_period);\n\n        emit NewPeriodAdded(periods.length.sub(1));\n    }\n\n    /**\n     * @dev public view function that returns the total amount of stakers\n     */\n    function stakersCount() public view returns (uint256) {\n        return stakers.length;\n    }\n\n    function getPeriodData(uint256 _periodId)\n        public\n        view\n        returns (uint256 periodStart, uint256 periodEnd)\n    {\n        return (\n            periods[_periodId].sla_period_start,\n            periods[_periodId].sla_period_end\n        );\n    }\n\n    /**\n     * @dev returns the length of TokenStakes per user\n     * @param _owner 1. owner of the stake\n     */\n\n    function getTokenStakeLength(address _owner) public view returns (uint256) {\n        return userStakes[_owner].length;\n    }\n\n    /**\n     * @dev returns the token stake according to index\n     * @param _owner 1. owner of the stake\n     * @param _index 2. index of the TokenStake\n     */\n    function getTokenStake(address _owner, uint256 _index)\n        public\n        view\n        returns (address tokenAddress, uint256 stake)\n    {\n        return (\n            userStakes[_owner][_index].tokenAddress,\n            userStakes[_owner][_index].stake\n        );\n    }\n}\n",
  "sourcePath": "/Users/matiasbn/Desktop/stacktical/stacktical-dsla-contracts/contracts/SLA/Staking.sol",
  "compiler": {
    "name": "solc",
    "version": "0.6.12+commit.27d51765.Emscripten.clang"
  },
  "schemaVersion": "3.2.5",
  "updatedAt": "2021-01-10T21:50:33.930Z",
  "devdoc": {
    "events": {
      "NewPeriodAdded(uint256)": {
        "params": {
          "period_index": "1. index of the period added"
        }
      }
    },
    "kind": "dev",
    "methods": {
      "addAllowedTokens(address)": {
        "details": "add a token to ve allowed for staking",
        "params": {
          "_token": "1. address of the new allowed token"
        }
      },
      "addNewPeriod(uint256,uint256)": {
        "details": "add a new period to the array",
        "params": {
          "_sla_period_end": "2. uint256 of the end of the period",
          "_sla_period_start": "1. uint256 of the start of the period"
        }
      },
      "claimCompensation(uint256)": {
        "details": "claim from delegators",
        "params": {
          "_period": "1. period id to claim"
        }
      },
      "claimReward(uint256)": {
        "details": "claim from validators",
        "params": {
          "_period": "1. period id to claim"
        }
      },
      "constructor": {
        "params": {
          "_baseTokenAddress": "1. address of the base token",
          "_owner": "4. address of the owner of the SLA",
          "_sla_period_ends": "3. array of ends of period",
          "_sla_period_starts": "2. array of starts of period"
        }
      },
      "getTokenStake(address,uint256)": {
        "details": "returns the token stake according to index",
        "params": {
          "_index": "2. index of the TokenStake",
          "_owner": "1. owner of the stake"
        }
      },
      "getTokenStakeLength(address)": {
        "details": "returns the length of TokenStakes per user",
        "params": {
          "_owner": "1. owner of the stake"
        }
      },
      "getUserTotalValue(address,uint256)": {
        "details": "get the user total value staked",
        "params": {
          "_period": "2. period id to claim",
          "_user": "1. address of the user"
        }
      },
      "owner()": {
        "details": "Returns the address of the current owner."
      },
      "renounceOwnership()": {
        "details": "Leaves the contract without owner. It will not be possible to call `onlyOwner` functions anymore. Can only be called by the current owner. NOTE: Renouncing ownership will leave the contract without an owner, thereby removing any functionality that is only available to the owner."
      },
      "stakersCount()": {
        "details": "public view function that returns the total amount of stakers"
      },
      "transferOwnership(address)": {
        "details": "Transfers ownership of the contract to a new account (`newOwner`). Can only be called by the current owner."
      },
      "withdraw(address,uint256)": {
        "details": "withdraw staked tokens",
        "params": {
          "_period": "2. period id to withdraw",
          "_token": "1. address of the token"
        }
      },
      "withdrawAndStake(address,uint256,uint256)": {
        "details": "withdraw BaseToken and stake d Tokens",
        "params": {
          "_amount": "2. amount to withdraw",
          "_period": "3. period id to withdraw",
          "_token": "1. address of the token"
        }
      }
    },
    "stateVariables": {
      "BaseToken": {
        "details": "IERC20 of the base stake address for the SLA"
      },
      "allowedTokens": {
        "details": "array with the allowed tokens addresses of the SLA"
      },
      "allowedTokensMapping": {
        "details": "mapping for all allowed tokens to be staked"
      },
      "periods": {
        "details": "all periods for an SLA"
      },
      "stakers": {
        "details": "list of all stakers (validators, vouchers, delegators ...)"
      },
      "tokensPool": {
        "details": "(mapping) erc20Address => stakeAmount: stake amount by tokenAddress"
      },
      "totalStaked": {
        "details": "userAddress => erc20Address => index of userStakes mapping array"
      },
      "uniqueTokensStaked": {
        "details": "(mapping) userAddress => amountOf tokens mapping"
      },
      "userStakedTokens": {
        "details": "(mapping) userAddress => erc20Address => bool: user has erc20Address staked"
      },
      "userStakedTokensIndex": {
        "details": "(mapping) userAddress => erc20Address => index: index of the TokenStake array"
      },
      "userStakes": {
        "details": "(mapping) userAddress => TokenStake[] mapping"
      },
      "validator": {
        "details": "address of the validator for the SLA"
      }
    },
    "version": 1
  },
  "userdoc": {
    "kind": "user",
    "methods": {},
    "version": 1
  }
}