{
  "contractName": "Staking",
  "abi": [
    {
      "inputs": [
        {
          "internalType": "contract SLARegistry",
          "name": "_slaRegistry",
          "type": "address"
        },
        {
          "internalType": "enum PeriodRegistry.PeriodType",
          "name": "_periodType",
          "type": "uint8"
        },
        {
          "internalType": "bool",
          "name": "_whitelistedContract",
          "type": "bool"
        },
        {
          "internalType": "uint128",
          "name": "_slaID",
          "type": "uint128"
        }
      ],
      "stateMutability": "nonpayable",
      "type": "constructor"
    },
    {
      "anonymous": false,
      "inputs": [
        {
          "indexed": true,
          "internalType": "address",
          "name": "previousOwner",
          "type": "address"
        },
        {
          "indexed": true,
          "internalType": "address",
          "name": "newOwner",
          "type": "address"
        }
      ],
      "name": "OwnershipTransferred",
      "type": "event"
    },
    {
      "anonymous": false,
      "inputs": [
        {
          "indexed": true,
          "internalType": "uint256",
          "name": "periodId",
          "type": "uint256"
        },
        {
          "indexed": true,
          "internalType": "address",
          "name": "tokenAddress",
          "type": "address"
        },
        {
          "indexed": false,
          "internalType": "uint256",
          "name": "rewardPercentage",
          "type": "uint256"
        },
        {
          "indexed": false,
          "internalType": "uint256",
          "name": "rewardPercentagePrecision",
          "type": "uint256"
        },
        {
          "indexed": false,
          "internalType": "uint256",
          "name": "rewardAmount",
          "type": "uint256"
        }
      ],
      "name": "ProviderRewardGenerated",
      "type": "event"
    },
    {
      "inputs": [],
      "name": "DSLAburnRate",
      "outputs": [
        {
          "internalType": "uint256",
          "name": "",
          "type": "uint256"
        }
      ],
      "stateMutability": "view",
      "type": "function"
    },
    {
      "inputs": [
        {
          "internalType": "uint256",
          "name": "",
          "type": "uint256"
        }
      ],
      "name": "allowedTokens",
      "outputs": [
        {
          "internalType": "address",
          "name": "",
          "type": "address"
        }
      ],
      "stateMutability": "view",
      "type": "function"
    },
    {
      "inputs": [
        {
          "internalType": "address",
          "name": "",
          "type": "address"
        }
      ],
      "name": "dpTokenRegistry",
      "outputs": [
        {
          "internalType": "contract ERC20PresetMinterPauser",
          "name": "",
          "type": "address"
        }
      ],
      "stateMutability": "view",
      "type": "function"
    },
    {
      "inputs": [],
      "name": "dslaTokenAddress",
      "outputs": [
        {
          "internalType": "address",
          "name": "",
          "type": "address"
        }
      ],
      "stateMutability": "view",
      "type": "function"
    },
    {
      "inputs": [
        {
          "internalType": "address",
          "name": "",
          "type": "address"
        }
      ],
      "name": "duTokenRegistry",
      "outputs": [
        {
          "internalType": "contract ERC20PresetMinterPauser",
          "name": "",
          "type": "address"
        }
      ],
      "stateMutability": "view",
      "type": "function"
    },
    {
      "inputs": [],
      "name": "owner",
      "outputs": [
        {
          "internalType": "address",
          "name": "",
          "type": "address"
        }
      ],
      "stateMutability": "view",
      "type": "function"
    },
    {
      "inputs": [
        {
          "internalType": "address",
          "name": "",
          "type": "address"
        }
      ],
      "name": "providerPool",
      "outputs": [
        {
          "internalType": "uint256",
          "name": "",
          "type": "uint256"
        }
      ],
      "stateMutability": "view",
      "type": "function"
    },
    {
      "inputs": [
        {
          "internalType": "address",
          "name": "",
          "type": "address"
        }
      ],
      "name": "registeredStakers",
      "outputs": [
        {
          "internalType": "bool",
          "name": "",
          "type": "bool"
        }
      ],
      "stateMutability": "view",
      "type": "function"
    },
    {
      "inputs": [],
      "name": "renounceOwnership",
      "outputs": [],
      "stateMutability": "nonpayable",
      "type": "function"
    },
    {
      "inputs": [],
      "name": "slaID",
      "outputs": [
        {
          "internalType": "uint128",
          "name": "",
          "type": "uint128"
        }
      ],
      "stateMutability": "view",
      "type": "function"
    },
    {
      "inputs": [
        {
          "internalType": "uint256",
          "name": "",
          "type": "uint256"
        }
      ],
      "name": "stakers",
      "outputs": [
        {
          "internalType": "address",
          "name": "",
          "type": "address"
        }
      ],
      "stateMutability": "view",
      "type": "function"
    },
    {
      "inputs": [
        {
          "internalType": "address",
          "name": "newOwner",
          "type": "address"
        }
      ],
      "name": "transferOwnership",
      "outputs": [],
      "stateMutability": "nonpayable",
      "type": "function"
    },
    {
      "inputs": [
        {
          "internalType": "address",
          "name": "",
          "type": "address"
        }
      ],
      "name": "usersPool",
      "outputs": [
        {
          "internalType": "uint256",
          "name": "",
          "type": "uint256"
        }
      ],
      "stateMutability": "view",
      "type": "function"
    },
    {
      "inputs": [
        {
          "internalType": "address",
          "name": "",
          "type": "address"
        }
      ],
      "name": "whitelist",
      "outputs": [
        {
          "internalType": "bool",
          "name": "",
          "type": "bool"
        }
      ],
      "stateMutability": "view",
      "type": "function"
    },
    {
      "inputs": [],
      "name": "whitelistedContract",
      "outputs": [
        {
          "internalType": "bool",
          "name": "",
          "type": "bool"
        }
      ],
      "stateMutability": "view",
      "type": "function"
    },
    {
      "inputs": [
        {
          "internalType": "address",
          "name": "_userAddress",
          "type": "address"
        }
      ],
      "name": "addUserToWhitelist",
      "outputs": [],
      "stateMutability": "nonpayable",
      "type": "function"
    },
    {
      "inputs": [
        {
          "internalType": "address[]",
          "name": "_userAddresses",
          "type": "address[]"
        }
      ],
      "name": "addMultipleUsersToWhitelist",
      "outputs": [],
      "stateMutability": "nonpayable",
      "type": "function"
    },
    {
      "inputs": [
        {
          "internalType": "address",
          "name": "_userAddress",
          "type": "address"
        }
      ],
      "name": "removeUserFromWhitelist",
      "outputs": [],
      "stateMutability": "nonpayable",
      "type": "function"
    },
    {
      "inputs": [
        {
          "internalType": "address[]",
          "name": "_userAddresses",
          "type": "address[]"
        }
      ],
      "name": "removeMultipleUsersFromWhitelist",
      "outputs": [],
      "stateMutability": "nonpayable",
      "type": "function"
    },
    {
      "inputs": [
        {
          "internalType": "address",
          "name": "_tokenAddress",
          "type": "address"
        }
      ],
      "name": "addAllowedTokens",
      "outputs": [],
      "stateMutability": "nonpayable",
      "type": "function"
    },
    {
      "inputs": [],
      "name": "getAllowedTokensLength",
      "outputs": [
        {
          "internalType": "uint256",
          "name": "",
          "type": "uint256"
        }
      ],
      "stateMutability": "view",
      "type": "function"
    },
    {
      "inputs": [
        {
          "internalType": "address",
          "name": "_staker",
          "type": "address"
        },
        {
          "internalType": "uint256",
          "name": "_allowedTokenIndex",
          "type": "uint256"
        }
      ],
      "name": "getTokenStake",
      "outputs": [
        {
          "internalType": "address",
          "name": "tokenAddress",
          "type": "address"
        },
        {
          "internalType": "uint256",
          "name": "stake",
          "type": "uint256"
        }
      ],
      "stateMutability": "view",
      "type": "function"
    },
    {
      "inputs": [
        {
          "internalType": "address",
          "name": "_tokenAddress",
          "type": "address"
        }
      ],
      "name": "isAllowedToken",
      "outputs": [
        {
          "internalType": "bool",
          "name": "",
          "type": "bool"
        }
      ],
      "stateMutability": "view",
      "type": "function"
    }
  ],
  "bytecode": "0x60806040523480156200001157600080fd5b5060405162001ca238038062001ca2833981810160405260808110156200003757600080fd5b50805160208201516040830151606090930151919290916000620000636001600160e01b036200033716565b600080546001600160a01b0319166001600160a01b0383169081178255604051929350917f8be0079c531659141344cd1fd0a4f28419497f9722a3daafe3b4186f6b6457e0908290a35060018081905550836001600160a01b031663683048356040518163ffffffff1660e01b815260040160206040518083038186803b158015620000ee57600080fd5b505afa15801562000103573d6000803e3d6000fd5b505050506040513d60208110156200011a57600080fd5b5051600280546001600160a01b0319166001600160a01b0392831617905560408051639fc4caa560e01b8152905191861691639fc4caa591600480820192602092909190829003018186803b1580156200017357600080fd5b505afa15801562000188573d6000803e3d6000fd5b505050506040513d60208110156200019f57600080fd5b5051600380546001600160a01b0319166001600160a01b03909216919091179055600e805484919060ff19166001836005811115620001da57fe5b0217905550600e805461ff0019166101008415150217905560025460408051637b8041cf60e11b815290516000926001600160a01b03169163f700839e9160048083019260e0929190829003018186803b1580156200023857600080fd5b505afa1580156200024d573d6000803e3d6000fd5b505050506040513d60e08110156200026457600080fd5b505160025460408051638b8e530960e01b815290519293506001600160a01b0390911691638b8e530991600480820192602092909190829003018186803b158015620002af57600080fd5b505afa158015620002c4573d6000803e3d6000fd5b505050506040513d6020811015620002db57600080fd5b5051600b80546001600160a01b0319166001600160a01b03909216919091179055600d8190556200030c336200033b565b50600480546001600160801b0319166001600160801b03929092169190911790555062000444915050565b3390565b6200034e6001600160e01b036200033716565b6000546001600160a01b03908116911614620003b1576040805162461bcd60e51b815260206004820181905260248201527f4f776e61626c653a2063616c6c6572206973206e6f7420746865206f776e6572604482015290519081900360640190fd5b6001600160a01b0381166000908152600f602052604090205460ff161562000420576040805162461bcd60e51b815260206004820152601860248201527f5573657220616c72656164792077686974656c69737465640000000000000000604482015290519081900360640190fd5b6001600160a01b03166000908152600f60205260409020805460ff19166001179055565b61184e80620004546000396000f3fe608060405234801561001057600080fd5b506004361061014d5760003560e01c8063747b8050116100c3578063cbe230c31161007c578063cbe230c314610436578063f2db10fe1461045c578063f2fde38b14610480578063f7e9dfff146104a6578063f9902bb1146104ae578063fd5e6dd1146104d45761014d565b8063747b8050146103465780638da5cb5b1461036c5780639b19251a14610374578063a7e8d8d41461039a578063b7bc347e146103c0578063c26ff615146103c85761014d565b806357ac94f01161011557806357ac94f0146102365780635c1c20de146102855780635e5f2e261461028d578063639b6fc3146102aa578063715018a6146102d0578063740882ac146102d85761014d565b8063171e44ea1461015257806318e454271461017a578063484fbf2b146101965780634e0c91f6146101ce5780634fb2647e14610210575b600080fd5b6101786004803603602081101561016857600080fd5b50356001600160a01b03166104f1565b005b610182610c95565b604080519115158252519081900360200190f35b6101bc600480360360208110156101ac57600080fd5b50356001600160a01b0316610ca3565b60408051918252519081900360200190f35b6101f4600480360360208110156101e457600080fd5b50356001600160a01b0316610cb5565b604080516001600160a01b039092168252519081900360200190f35b6101f46004803603602081101561022657600080fd5b50356001600160a01b0316610cd0565b6102626004803603604081101561024c57600080fd5b506001600160a01b038135169060200135610ceb565b604080516001600160a01b03909316835260208301919091528051918290030190f35b6101bc610ebf565b6101f4600480360360208110156102a357600080fd5b5035610ec5565b6101bc600480360360208110156102c057600080fd5b50356001600160a01b0316610eec565b610178610efe565b610178600480360360208110156102ee57600080fd5b810190602081018135600160201b81111561030857600080fd5b82018360208201111561031a57600080fd5b803590602001918460208302840111600160201b8311171561033b57600080fd5b509092509050610fa0565b6101786004803603602081101561035c57600080fd5b50356001600160a01b03166110a4565b6101f4611189565b6101826004803603602081101561038a57600080fd5b50356001600160a01b0316611198565b610182600480360360208110156103b057600080fd5b50356001600160a01b03166111ad565b6101bc6111c2565b610178600480360360208110156103de57600080fd5b810190602081018135600160201b8111156103f857600080fd5b82018360208201111561040a57600080fd5b803590602001918460208302840111600160201b8311171561042b57600080fd5b5090925090506111c8565b6101826004803603602081101561044c57600080fd5b50356001600160a01b03166112cf565b61046461132c565b604080516001600160801b039092168252519081900360200190f35b6101786004803603602081101561049657600080fd5b50356001600160a01b031661133b565b6101f4611433565b610178600480360360208110156104c457600080fd5b50356001600160a01b0316611442565b6101f4600480360360208110156104ea57600080fd5b5035611524565b6104f9611531565b6000546001600160a01b03908116911614610549576040805162461bcd60e51b815260206004820181905260248201526000805160206117f9833981519152604482015290519081900360640190fd5b600260015414156105a1576040805162461bcd60e51b815260206004820152601f60248201527f5265656e7472616e637947756172643a207265656e7472616e742063616c6c00604482015290519081900360640190fd5b600260018190555460408051637b8041cf60e11b815290516000926001600160a01b03169163f700839e9160048083019260e0929190829003018186803b1580156105eb57600080fd5b505afa1580156105ff573d6000803e3d6000fd5b505050506040513d60e081101561061557600080fd5b5060c001519050610625826112cf565b1561066d576040805162461bcd60e51b8152602060048201526013602482015272151bdad95b88185b1c9958591e481859191959606a1b604482015290519081900360640190fd5b6002546040805163cbe230c360e01b81526001600160a01b0385811660048301529151919092169163cbe230c3916024808301926020929190829003018186803b1580156106ba57600080fd5b505afa1580156106ce573d6000803e3d6000fd5b505050506040513d60208110156106e457600080fd5b50516107215760405162461bcd60e51b815260040180806020018281038252602d8152602001806117ab602d913960400191505060405180910390fd5b600c805460018101825560008290527fdf6966c971051c3d54ec59162606531493a51404a002842f56009d7e5cf4a8c70180546001600160a01b0319166001600160a01b038516179055548110156107aa5760405162461bcd60e51b81526004018080602001828103825260338152602001806117526033913960400191505060405180910390fd5b6004546060906107c2906001600160801b0316611535565b905060608160405160200180806a44534c412d53484f52542d60a81b815250600b0182805190602001908083835b6020831061080f5780518252601f1990920191602091820191016107f0565b6001836020036101000a038019825116818451168082178552505050505050905001915050604051602081830303815290604052905060608260405160200180806744534c412d53502d60c01b81525060080182805190602001908083835b6020831061088d5780518252601f19909201916020918201910161086e565b6001836020036101000a038019825116818451168082178552505050505050905001915050604051602081830303815290604052905060608360405160200180806944534c412d4c4f4e472d60b01b815250600a0182805190602001908083835b6020831061090d5780518252601f1990920191602091820191016108ee565b6001836020036101000a038019825116818451168082178552505050505050905001915050604051602081830303815290604052905060608460405160200180806744534c412d4c502d60c01b81525060080182805190602001908083835b6020831061098b5780518252601f19909201916020918201910161096c565b51815160209384036101000a60001901801990921691161790526040805192909401828103601f19018352808552600254633350214760e11b8252600482019586528b5160448301528b51939850600097506001600160a01b031695506366a0428e948b94508a939092839260248101926064909101918701908083838d5b83811015610a22578181015183820152602001610a0a565b50505050905090810190601f168015610a4f5780820380516001836020036101000a031916815260200191505b50838103825284518152845160209182019186019080838360005b83811015610a82578181015183820152602001610a6a565b50505050905090810190601f168015610aaf5780820380516001836020036101000a031916815260200191505b50945050505050602060405180830381600087803b158015610ad057600080fd5b505af1158015610ae4573d6000803e3d6000fd5b505050506040513d6020811015610afa57600080fd5b505160025460408051633350214760e11b8152600481019182528651604482015286519394506000936001600160a01b03909316926366a0428e92889288928291602481019160649091019060208701908083838d5b83811015610b68578181015183820152602001610b50565b50505050905090810190601f168015610b955780820380516001836020036101000a031916815260200191505b50838103825284518152845160209182019186019080838360005b83811015610bc8578181015183820152602001610bb0565b50505050905090810190601f168015610bf55780820380516001836020036101000a031916815260200191505b50945050505050602060405180830381600087803b158015610c1657600080fd5b505af1158015610c2a573d6000803e3d6000fd5b505050506040513d6020811015610c4057600080fd5b50516001600160a01b03998a1660009081526008602090815260408083208054948e166001600160a01b031995861617905560079091529020805493909a169216919091179097555050600180555050505050565b600e54610100900460ff1681565b60066020526000908152604090205481565b6007602052600090815260409020546001600160a01b031681565b6008602052600090815260409020546001600160a01b031681565b6000806000600c8481548110610cfd57fe5b6000918252602090912001546001600160a01b03169050610d1c611189565b6001600160a01b0316856001600160a01b03161415610d58576001600160a01b0381166000908152600560205260409020549092509050610eb8565b6001600160a01b0380821660009081526007602090815260408083205481516318160ddd60e01b8152915194169384926318160ddd9260048082019391829003018186803b158015610da957600080fd5b505afa158015610dbd573d6000803e3d6000fd5b505050506040513d6020811015610dd357600080fd5b5051905080610deb575090925060009150610eb89050565b6000826001600160a01b03166370a08231896040518263ffffffff1660e01b815260040180826001600160a01b03166001600160a01b0316815260200191505060206040518083038186803b158015610e4357600080fd5b505afa158015610e57573d6000803e3d6000fd5b505050506040513d6020811015610e6d57600080fd5b50516001600160a01b0385166000908152600660205260409020549091508490610eaf908490610ea3908563ffffffff61161016565b9063ffffffff61167216565b95509550505050505b9250929050565b600d5481565b600c8181548110610ed257fe5b6000918252602090912001546001600160a01b0316905081565b60056020526000908152604090205481565b610f06611531565b6000546001600160a01b03908116911614610f56576040805162461bcd60e51b815260206004820181905260248201526000805160206117f9833981519152604482015290519081900360640190fd5b600080546040516001600160a01b03909116907f8be0079c531659141344cd1fd0a4f28419497f9722a3daafe3b4186f6b6457e0908390a3600080546001600160a01b0319169055565b610fa8611531565b6000546001600160a01b03908116911614610ff8576040805162461bcd60e51b815260206004820181905260248201526000805160206117f9833981519152604482015290519081900360640190fd5b60005b8181101561109f57600f600084848481811061101357fe5b602090810292909201356001600160a01b03168352508101919091526040016000205460ff16611097576001600f600085858581811061104f57fe5b905060200201356001600160a01b03166001600160a01b03166001600160a01b0316815260200190815260200160002060006101000a81548160ff0219169083151502179055505b600101610ffb565b505050565b6110ac611531565b6000546001600160a01b039081169116146110fc576040805162461bcd60e51b815260206004820181905260248201526000805160206117f9833981519152604482015290519081900360640190fd5b6001600160a01b0381166000908152600f602052604090205460ff1615611165576040805162461bcd60e51b8152602060048201526018602482015277155cd95c88185b1c9958591e481dda1a5d195b1a5cdd195960421b604482015290519081900360640190fd5b6001600160a01b03166000908152600f60205260409020805460ff19166001179055565b6000546001600160a01b031690565b600f6020526000908152604090205460ff1681565b600a6020526000908152604090205460ff1681565b600c5490565b6111d0611531565b6000546001600160a01b03908116911614611220576040805162461bcd60e51b815260206004820181905260248201526000805160206117f9833981519152604482015290519081900360640190fd5b60005b8181101561109f57600f600084848481811061123b57fe5b602090810292909201356001600160a01b031683525081019190915260400160002054600160ff909116151514156112c7576000600f600085858581811061127f57fe5b905060200201356001600160a01b03166001600160a01b03166001600160a01b0316815260200190815260200160002060006101000a81548160ff0219169083151502179055505b600101611223565b6000805b600c5481101561132157826001600160a01b0316600c82815481106112f457fe5b6000918252602090912001546001600160a01b03161415611319576001915050611327565b6001016112d3565b50600090505b919050565b6004546001600160801b031681565b611343611531565b6000546001600160a01b03908116911614611393576040805162461bcd60e51b815260206004820181905260248201526000805160206117f9833981519152604482015290519081900360640190fd5b6001600160a01b0381166113d85760405162461bcd60e51b81526004018080602001828103825260268152602001806117856026913960400191505060405180910390fd5b600080546040516001600160a01b03808516939216917f8be0079c531659141344cd1fd0a4f28419497f9722a3daafe3b4186f6b6457e091a3600080546001600160a01b0319166001600160a01b0392909216919091179055565b600b546001600160a01b031681565b61144a611531565b6000546001600160a01b0390811691161461149a576040805162461bcd60e51b815260206004820181905260248201526000805160206117f9833981519152604482015290519081900360640190fd5b6001600160a01b0381166000908152600f602052604090205460ff161515600114611503576040805162461bcd60e51b8152602060048201526014602482015273155cd95c881b9bdd081dda1a5d195b1a5cdd195960621b604482015290519081900360640190fd5b6001600160a01b03166000908152600f60205260409020805460ff19169055565b60098181548110610ed257fe5b3390565b6060818061155c5750506040805180820190915260018152600360fc1b6020820152611327565b8060005b811561157457600101600a82049150611560565b60608167ffffffffffffffff8111801561158d57600080fd5b506040519080825280601f01601f1916602001820160405280156115b8576020820181803683370190505b50905060001982015b841561160657600a850660300160f81b828280600190039350815181106115e457fe5b60200101906001600160f81b031916908160001a905350600a850494506115c1565b5095945050505050565b60008261161f5750600061166c565b8282028284828161162c57fe5b04146116695760405162461bcd60e51b81526004018080602001828103825260218152602001806117d86021913960400191505060405180910390fd5b90505b92915050565b600061166983836040518060400160405280601a81526020017f536166654d6174683a206469766973696f6e206279207a65726f0000000000008152506000818361173b5760405162461bcd60e51b81526004018080602001828103825283818151815260200191508051906020019080838360005b838110156117005781810151838201526020016116e8565b50505050905090810190601f16801561172d5780820380516001836020036101000a031916815260200191505b509250505060405180910390fd5b50600083858161174757fe5b049594505050505056fe416c6c6f77656420746f6b656e73206c656e6774682067726561746572207468616e206d617820746f6b656e206c656e6774684f776e61626c653a206e6577206f776e657220697320746865207a65726f2061646472657373546f6b656e206e6f7420616c6c6f7765642062792074686520534c41526567697374727920636f6e7472616374536166654d6174683a206d756c7469706c69636174696f6e206f766572666c6f774f776e61626c653a2063616c6c6572206973206e6f7420746865206f776e6572a2646970667358221220a11ba5582e66e009c287fc523f0980043e6500e7c6c89fd67f7ebff60d03027f64736f6c63430006060033",
  "immutableReferences": {},
  "source": "// SPDX-License-Identifier: MIT\npragma solidity 0.6.6;\n\nimport \"@openzeppelin/contracts/token/ERC20/ERC20.sol\";\nimport \"@openzeppelin/contracts/token/ERC20/SafeERC20.sol\";\nimport \"@openzeppelin/contracts/presets/ERC20PresetMinterPauser.sol\";\nimport \"@openzeppelin/contracts/access/Ownable.sol\";\nimport \"@openzeppelin/contracts/math/SafeMath.sol\";\nimport \"@openzeppelin/contracts/utils/ReentrancyGuard.sol\";\nimport \"./StakeRegistry.sol\";\nimport \"./SLARegistry.sol\";\nimport \"./PeriodRegistry.sol\";\n\ncontract Staking is Ownable, ReentrancyGuard {\n    using SafeMath for uint256;\n    using SafeERC20 for ERC20;\n\n    /// @dev StakeRegistry contract\n    StakeRegistry private stakeRegistry;\n    /// @dev SLARegistry contract\n    PeriodRegistry private periodRegistry;\n    /// @dev current SLA id\n    uint128 public slaID;\n\n    /// @dev (tokenAddress=>uint256) total pooled token balance\n    mapping(address => uint256) public providerPool;\n    /// @dev (tokenAddress=>uint256) total pooled token balance\n    mapping(address => uint256) public usersPool;\n\n    ///@dev (tokenAddress=>dTokenAddress) to keep track of dToken for users\n    mapping(address => ERC20PresetMinterPauser) public duTokenRegistry;\n    ///@dev (tokenAddress=>dTokenAddress) to keep track of dToken for provider\n    mapping(address => ERC20PresetMinterPauser) public dpTokenRegistry;\n\n    /// @dev address[] of the stakers of the SLA contract\n    address[] public stakers;\n    /// @dev (slaOwner=>bool)\n    mapping(address => bool) public registeredStakers;\n    /// @dev DSLA token address to burn fees\n    address public dslaTokenAddress;\n    /// @dev array with the allowed tokens addresses for the current SLA\n    address[] public allowedTokens;\n\n    /// @dev corresponds to the burn rate of DSLA tokens, but divided by 1000 i.e burn percentage = burnRate/1000 %\n    uint256 public DSLAburnRate;\n\n    /// @dev PeriodRegistry period type of the SLA contract\n    PeriodRegistry.PeriodType private periodType;\n\n    /// @dev boolean to declare if contract is whitelisted\n    bool public whitelistedContract;\n    /// @dev (userAddress=bool) to declare whitelisted addresses\n    mapping(address => bool) public whitelist;\n\n    modifier onlyAllowedToken(address _token) {\n        require(isAllowedToken(_token) == true, \"token is not allowed\");\n        _;\n    }\n\n    modifier onlyWhitelisted {\n        if (whitelistedContract == true) {\n            require(whitelist[msg.sender] == true, \"User is not whitelisted\");\n        }\n        _;\n    }\n\n    /**\n     * @dev event for provider reward log\n     * @param periodId 1. id of the period\n     * @param tokenAddress 2. address of the token\n     * @param rewardPercentage 3. reward percentage for the provider\n     * @param rewardPercentagePrecision 4. reward percentage for the provider\n     * @param rewardAmount 5. amount rewarded\n     */\n    event ProviderRewardGenerated(\n        uint256 indexed periodId,\n        address indexed tokenAddress,\n        uint256 rewardPercentage,\n        uint256 rewardPercentagePrecision,\n        uint256 rewardAmount\n    );\n\n    /**\n     *@param _slaRegistryAddress 1. period type of the SLA\n     *@param _periodType 3. period type of the SLA\n     *@param _whitelistedContract 5. enables the white list feature\n     *@param _slaID 6. identifies the SLA to uniquely to emit dTokens\n     */\n    constructor(\n        SLARegistry _slaRegistry,\n        PeriodRegistry.PeriodType _periodType,\n        bool _whitelistedContract,\n        uint128 _slaID\n    ) public {\n        stakeRegistry = _slaRegistry.stakeRegistry();\n        periodRegistry = _slaRegistry.periodRegistry();\n        periodType = _periodType;\n        whitelistedContract = _whitelistedContract;\n        (uint256 _DSLAburnRate, , , , , , ) =\n            stakeRegistry.getStakingParameters();\n        dslaTokenAddress = stakeRegistry.DSLATokenAddress();\n        DSLAburnRate = _DSLAburnRate;\n        addUserToWhitelist(msg.sender);\n        slaID = _slaID;\n    }\n\n    function addUserToWhitelist(address _userAddress) public onlyOwner {\n        require(whitelist[_userAddress] == false, \"User already whitelisted\");\n        whitelist[_userAddress] = true;\n    }\n\n    function addMultipleUsersToWhitelist(address[] calldata _userAddresses)\n        external\n        onlyOwner\n    {\n        for (uint256 index = 0; index < _userAddresses.length; index++) {\n            if (whitelist[_userAddresses[index]] == false) {\n                whitelist[_userAddresses[index]] = true;\n            }\n        }\n    }\n\n    function removeUserFromWhitelist(address _userAddress) external onlyOwner {\n        require(whitelist[_userAddress] == true, \"User not whitelisted\");\n        whitelist[_userAddress] = false;\n    }\n\n    function removeMultipleUsersFromWhitelist(address[] calldata _userAddresses)\n        external\n        onlyOwner\n    {\n        for (uint256 index = 0; index < _userAddresses.length; index++) {\n            if (whitelist[_userAddresses[index]] == true) {\n                whitelist[_userAddresses[index]] = false;\n            }\n        }\n    }\n\n    /**\n     *@dev add a token to ve allowed for staking\n     *@param _tokenAddress 1. address of the new allowed token\n     */\n    function addAllowedTokens(address _tokenAddress)\n        external\n        onlyOwner\n        nonReentrant\n    {\n        (, , , , , , uint256 maxTokenLength) =\n            stakeRegistry.getStakingParameters();\n        require(!isAllowedToken(_tokenAddress), \"Token already added\");\n        require(\n            stakeRegistry.isAllowedToken(_tokenAddress),\n            \"Token not allowed by the SLARegistry contract\"\n        );\n        allowedTokens.push(_tokenAddress);\n        require(\n            maxTokenLength >= allowedTokens.length,\n            \"Allowed tokens length greater than max token length\"\n        );\n        string memory dTokenID = _uintToStr(slaID);\n        string memory duTokenName =\n            string(abi.encodePacked(\"DSLA-SHORT-\", dTokenID));\n        string memory duTokenSymbol =\n            string(abi.encodePacked(\"DSLA-SP-\", dTokenID));\n        string memory dpTokenName =\n            string(abi.encodePacked(\"DSLA-LONG-\", dTokenID));\n        string memory dpTokenSymbol =\n            string(abi.encodePacked(\"DSLA-LP-\", dTokenID));\n\n        ERC20PresetMinterPauser duToken =\n            ERC20PresetMinterPauser(\n                stakeRegistry.createDToken(duTokenName, duTokenSymbol)\n            );\n        ERC20PresetMinterPauser dpToken =\n            ERC20PresetMinterPauser(\n                stakeRegistry.createDToken(dpTokenName, dpTokenSymbol)\n            );\n\n        dpTokenRegistry[_tokenAddress] = dpToken;\n        duTokenRegistry[_tokenAddress] = duToken;\n    }\n\n    /**\n     *@dev increase the amount staked per token\n     *@param _amount 1. amount to be staked\n     *@param _tokenAddress 2. address of the token\n     *@notice providers can stake at any time\n     *@notice users can stake at any time but no more than provider pool\n     */\n    function _stake(uint256 _amount, address _tokenAddress)\n        internal\n        onlyAllowedToken(_tokenAddress)\n        onlyWhitelisted\n        nonReentrant\n    {\n        ERC20(_tokenAddress).safeTransferFrom(\n            msg.sender,\n            address(this),\n            _amount\n        );\n        //duTokens\n        if (msg.sender != owner()) {\n            (uint256 providerStake, uint256 usersStake) =\n                (providerPool[_tokenAddress], usersPool[_tokenAddress]);\n            require(\n                usersStake.add(_amount) <= providerStake,\n                \"Cannot stake more than SLA provider stake\"\n            );\n            ERC20PresetMinterPauser duToken = duTokenRegistry[_tokenAddress];\n            uint256 p0 = duToken.totalSupply();\n\n            // if there's no minted tokens, then create 1-1 proportion\n            if (p0 == 0) {\n                duToken.mint(msg.sender, _amount);\n            } else {\n                uint256 t0 = usersPool[_tokenAddress];\n                // mint dTokens proportionally\n                uint256 mintedDUTokens = _amount.mul(p0).div(t0);\n                duToken.mint(msg.sender, mintedDUTokens);\n            }\n            usersPool[_tokenAddress] = usersPool[_tokenAddress].add(_amount);\n            //dpTokens\n        } else {\n            ERC20PresetMinterPauser dpToken = dpTokenRegistry[_tokenAddress];\n            uint256 p0 = dpToken.totalSupply();\n\n            if (p0 == 0) {\n                dpToken.mint(msg.sender, _amount);\n            } else {\n                uint256 t0 = providerPool[_tokenAddress];\n                // mint dTokens proportionally\n                uint256 mintedDPTokens = _amount.mul(p0).div(t0);\n                dpToken.mint(msg.sender, mintedDPTokens);\n            }\n\n            providerPool[_tokenAddress] = providerPool[_tokenAddress].add(\n                _amount\n            );\n        }\n\n        if (registeredStakers[msg.sender] == false) {\n            registeredStakers[msg.sender] = true;\n            stakers.push(msg.sender);\n        }\n    }\n\n    /**\n     *@dev sets the provider reward\n     *@notice it calculates the usersStake and calculates the provider reward from it.\n     * @param _periodId 1. id of the period\n     * @param _rewardPercentage to calculate the provider reward\n     * @param _precision used to avoid getting 0 after division in the SLA's registerSLI function\n     */\n    function _setRespectedPeriodReward(\n        uint256 _periodId,\n        uint256 _rewardPercentage,\n        uint256 _precision\n    ) internal {\n        for (uint256 index = 0; index < allowedTokens.length; index++) {\n            address tokenAddress = allowedTokens[index];\n            uint256 usersStake = usersPool[tokenAddress];\n            uint256 reward = usersStake.mul(_rewardPercentage).div(_precision);\n\n            usersPool[tokenAddress] = usersPool[tokenAddress].sub(reward);\n\n            providerPool[tokenAddress] = providerPool[tokenAddress].add(reward);\n\n            emit ProviderRewardGenerated(\n                _periodId,\n                tokenAddress,\n                _rewardPercentage,\n                _precision,\n                reward\n            );\n        }\n    }\n\n    /**\n     *@dev sets the users compensation pool\n     *@notice it calculates the usersStake and calculates the users compensation from it\n     */\n    function _setUsersCompensation() internal {\n        for (uint256 index = 0; index < allowedTokens.length; index++) {\n            address tokenAddress = allowedTokens[index];\n            uint256 usersStake = usersPool[tokenAddress];\n            uint256 compensation = usersStake;\n            providerPool[tokenAddress] = providerPool[tokenAddress].sub(\n                compensation\n            );\n\n            usersPool[tokenAddress] = usersPool[tokenAddress].add(compensation);\n        }\n    }\n\n    /**\n     *@dev withdraw staked tokens. Only dpToken owners can withdraw,\n     *@param _amount 1. amount to be withdrawn\n     *@param _tokenAddress 2. address of the token\n     *@param _contractFinished 3. contract finished\n     */\n    function _withdrawProviderTokens(\n        uint256 _amount,\n        address _tokenAddress,\n        bool _contractFinished\n    ) internal onlyAllowedToken(_tokenAddress) nonReentrant {\n        uint256 providerStake = providerPool[_tokenAddress];\n        uint256 usersStake = usersPool[_tokenAddress];\n        if (!_contractFinished) {\n            require(\n                providerStake.sub(_amount) >= usersStake,\n                \"Should not withdraw more than users stake\"\n            );\n        }\n        ERC20PresetMinterPauser dpToken = dpTokenRegistry[_tokenAddress];\n        uint256 p0 = dpToken.totalSupply();\n        uint256 t0 = providerPool[_tokenAddress];\n        // Burn duTokens in a way that it doesn't affect the PoolTokens/LPTokens average\n        // t0/p0 = (t0-_amount)/(p0-burnedDPTokens)\n        // burnedDPTokens = _amount*p0/t0\n        uint256 burnedDPTokens = _amount.mul(p0).div(t0);\n        dpToken.burnFrom(msg.sender, burnedDPTokens);\n        providerPool[_tokenAddress] = providerPool[_tokenAddress].sub(_amount);\n        ERC20(_tokenAddress).safeTransfer(msg.sender, _amount);\n    }\n\n    /**\n     *@dev withdraw staked tokens. Only duToken owners can withdraw,\n     *@param _amount 1. amount to be withdrawn\n     *@param _tokenAddress 2. address of the token\n     */\n    function _withdrawUserTokens(uint256 _amount, address _tokenAddress)\n        internal\n        onlyAllowedToken(_tokenAddress)\n        nonReentrant\n    {\n        ERC20PresetMinterPauser duToken = duTokenRegistry[_tokenAddress];\n        uint256 p0 = duToken.totalSupply();\n        uint256 t0 = usersPool[_tokenAddress];\n        // Burn duTokens in a way that it doesn't affect the PoolTokens/LPTokens\n        // average for current period.\n        // t0/p0 = (t0-_amount)/(p0-burnedDUTokens)\n        // burnedDUTokens = _amount*p0/t0\n        uint256 burnedDUTokens = _amount.mul(p0).div(t0);\n        duToken.burnFrom(msg.sender, burnedDUTokens);\n        usersPool[_tokenAddress] = usersPool[_tokenAddress].sub(_amount);\n        ERC20(_tokenAddress).safeTransfer(msg.sender, _amount);\n    }\n\n    /**\n     *@dev use this function to evaluate the length of the allowed tokens length\n     *@return allowedTokens.length\n     */\n    function getAllowedTokensLength() external view returns (uint256) {\n        return allowedTokens.length;\n    }\n\n    function getTokenStake(address _staker, uint256 _allowedTokenIndex)\n        external\n        view\n        returns (address tokenAddress, uint256 stake)\n    {\n        address allowedTokenAddress = allowedTokens[_allowedTokenIndex];\n        if (_staker == owner()) {\n            return (allowedTokenAddress, providerPool[allowedTokenAddress]);\n        } else {\n            ERC20PresetMinterPauser dToken =\n                duTokenRegistry[allowedTokenAddress];\n            uint256 dTokenSupply = dToken.totalSupply();\n            if (dTokenSupply == 0) {\n                return (allowedTokenAddress, 0);\n            }\n            uint256 dTokenBalance = dToken.balanceOf(_staker);\n            return (\n                allowedTokenAddress,\n                usersPool[allowedTokenAddress].mul(dTokenBalance).div(\n                    dTokenSupply\n                )\n            );\n        }\n    }\n\n    /**\n     *@dev checks in the allowedTokens array if there's a token with _tokenAddress value\n     *@param _tokenAddress 1. token address to check exixtence\n     *@return true if _tokenAddress exists in the allowedTokens array\n     */\n    function isAllowedToken(address _tokenAddress) public view returns (bool) {\n        for (uint256 index = 0; index < allowedTokens.length; index++) {\n            if (allowedTokens[index] == _tokenAddress) {\n                return true;\n            }\n        }\n        return false;\n    }\n\n    function _uintToStr(uint256 _i)\n        internal\n        pure\n        returns (string memory _uintAsString)\n    {\n        uint256 number = _i;\n        if (number == 0) {\n            return \"0\";\n        }\n        uint256 j = number;\n        uint256 len;\n        while (j != 0) {\n            len++;\n            j /= 10;\n        }\n        bytes memory bstr = new bytes(len);\n        uint256 k = len - 1;\n        while (number != 0) {\n            bstr[k--] = bytes1(uint8(48 + (number % 10)));\n            number /= 10;\n        }\n        return string(bstr);\n    }\n}\n",
  "sourcePath": "/Users/matiasbn/Desktop/stacktical/stacktical-dsla-contracts/contracts/Staking.sol",
  "compiler": {
    "name": "solc",
    "version": "0.6.6+commit.6c089d02.Emscripten.clang"
  },
  "schemaVersion": "3.3.3",
  "updatedAt": "2021-04-09T19:29:54.232Z",
  "devdoc": {
    "methods": {
      "owner()": {
        "details": "Returns the address of the current owner."
      },
      "renounceOwnership()": {
        "details": "Leaves the contract without owner. It will not be possible to call `onlyOwner` functions anymore. Can only be called by the current owner.     * NOTE: Renouncing ownership will leave the contract without an owner, thereby removing any functionality that is only available to the owner."
      },
      "transferOwnership(address)": {
        "details": "Transfers ownership of the contract to a new account (`newOwner`). Can only be called by the current owner."
      }
    }
  },
  "userdoc": {
    "methods": {
      "addAllowedTokens(address)": {
        "notice": "dev add a token to ve allowed for staking param _tokenAddress 1. address of the new allowed token"
      },
      "constructor": "param _slaRegistryAddress 1. period type of the SLA param _periodType 3. period type of the SLA param _whitelistedContract 5. enables the white list feature param _slaID 6. identifies the SLA to uniquely to emit dTokens",
      "getAllowedTokensLength()": {
        "notice": "dev use this function to evaluate the length of the allowed tokens length return allowedTokens.length"
      },
      "isAllowedToken(address)": {
        "notice": "dev checks in the allowedTokens array if there's a token with _tokenAddress value param _tokenAddress 1. token address to check exixtence return true if _tokenAddress exists in the allowedTokens array"
      }
    }
  }
}