{
  "contractName": "Staking",
  "abi": [
    {
      "inputs": [
        {
          "internalType": "address",
          "name": "_stakeRegistry",
          "type": "address"
        }
      ],
      "stateMutability": "nonpayable",
      "type": "constructor"
    },
    {
      "anonymous": false,
      "inputs": [
        {
          "indexed": true,
          "internalType": "address",
          "name": "previousOwner",
          "type": "address"
        },
        {
          "indexed": true,
          "internalType": "address",
          "name": "newOwner",
          "type": "address"
        }
      ],
      "name": "OwnershipTransferred",
      "type": "event"
    },
    {
      "inputs": [],
      "name": "DSLAburnRate",
      "outputs": [
        {
          "internalType": "uint256",
          "name": "",
          "type": "uint256"
        }
      ],
      "stateMutability": "view",
      "type": "function"
    },
    {
      "inputs": [
        {
          "internalType": "uint256",
          "name": "",
          "type": "uint256"
        }
      ],
      "name": "allowedTokens",
      "outputs": [
        {
          "internalType": "address",
          "name": "",
          "type": "address"
        }
      ],
      "stateMutability": "view",
      "type": "function"
    },
    {
      "inputs": [],
      "name": "dslaTokenAddress",
      "outputs": [
        {
          "internalType": "address",
          "name": "",
          "type": "address"
        }
      ],
      "stateMutability": "view",
      "type": "function"
    },
    {
      "inputs": [],
      "name": "minimumDSLAStakedTier1",
      "outputs": [
        {
          "internalType": "uint256",
          "name": "",
          "type": "uint256"
        }
      ],
      "stateMutability": "view",
      "type": "function"
    },
    {
      "inputs": [],
      "name": "minimumDSLAStakedTier2",
      "outputs": [
        {
          "internalType": "uint256",
          "name": "",
          "type": "uint256"
        }
      ],
      "stateMutability": "view",
      "type": "function"
    },
    {
      "inputs": [],
      "name": "minimumDSLAStakedTier3",
      "outputs": [
        {
          "internalType": "uint256",
          "name": "",
          "type": "uint256"
        }
      ],
      "stateMutability": "view",
      "type": "function"
    },
    {
      "inputs": [],
      "name": "owner",
      "outputs": [
        {
          "internalType": "address",
          "name": "",
          "type": "address"
        }
      ],
      "stateMutability": "view",
      "type": "function"
    },
    {
      "inputs": [
        {
          "internalType": "address",
          "name": "",
          "type": "address"
        }
      ],
      "name": "providerAvailableReward",
      "outputs": [
        {
          "internalType": "uint256",
          "name": "",
          "type": "uint256"
        }
      ],
      "stateMutability": "view",
      "type": "function"
    },
    {
      "inputs": [
        {
          "internalType": "uint256",
          "name": "",
          "type": "uint256"
        },
        {
          "internalType": "address",
          "name": "",
          "type": "address"
        }
      ],
      "name": "providerPeriodsRewards",
      "outputs": [
        {
          "internalType": "uint256",
          "name": "",
          "type": "uint256"
        }
      ],
      "stateMutability": "view",
      "type": "function"
    },
    {
      "inputs": [],
      "name": "providerRewardPercentage",
      "outputs": [
        {
          "internalType": "uint256",
          "name": "",
          "type": "uint256"
        }
      ],
      "stateMutability": "view",
      "type": "function"
    },
    {
      "inputs": [],
      "name": "renounceOwnership",
      "outputs": [],
      "stateMutability": "nonpayable",
      "type": "function"
    },
    {
      "inputs": [
        {
          "internalType": "uint256",
          "name": "",
          "type": "uint256"
        }
      ],
      "name": "stakers",
      "outputs": [
        {
          "internalType": "address",
          "name": "",
          "type": "address"
        }
      ],
      "stateMutability": "view",
      "type": "function"
    },
    {
      "inputs": [
        {
          "internalType": "address",
          "name": "newOwner",
          "type": "address"
        }
      ],
      "name": "transferOwnership",
      "outputs": [],
      "stateMutability": "nonpayable",
      "type": "function"
    },
    {
      "inputs": [
        {
          "internalType": "address",
          "name": "",
          "type": "address"
        }
      ],
      "name": "usersCompensationPools",
      "outputs": [
        {
          "internalType": "uint256",
          "name": "",
          "type": "uint256"
        }
      ],
      "stateMutability": "view",
      "type": "function"
    },
    {
      "inputs": [
        {
          "internalType": "address",
          "name": "",
          "type": "address"
        }
      ],
      "name": "usersTotalPositions",
      "outputs": [
        {
          "internalType": "uint256",
          "name": "",
          "type": "uint256"
        }
      ],
      "stateMutability": "view",
      "type": "function"
    },
    {
      "inputs": [
        {
          "internalType": "address",
          "name": "_tokenAddress",
          "type": "address"
        }
      ],
      "name": "addAllowedTokens",
      "outputs": [],
      "stateMutability": "nonpayable",
      "type": "function"
    },
    {
      "inputs": [
        {
          "internalType": "address",
          "name": "_tokenAddress",
          "type": "address"
        }
      ],
      "name": "_claimCompensation",
      "outputs": [],
      "stateMutability": "nonpayable",
      "type": "function"
    },
    {
      "inputs": [
        {
          "internalType": "address",
          "name": "_tokenAddress",
          "type": "address"
        }
      ],
      "name": "getStakeholdersStakes",
      "outputs": [
        {
          "internalType": "uint256",
          "name": "providerStake",
          "type": "uint256"
        },
        {
          "internalType": "uint256",
          "name": "usersStake",
          "type": "uint256"
        }
      ],
      "stateMutability": "view",
      "type": "function"
    },
    {
      "inputs": [],
      "name": "getAllowedTokensLength",
      "outputs": [
        {
          "internalType": "uint256",
          "name": "",
          "type": "uint256"
        }
      ],
      "stateMutability": "view",
      "type": "function"
    },
    {
      "inputs": [
        {
          "internalType": "address",
          "name": "_staker",
          "type": "address"
        },
        {
          "internalType": "uint256",
          "name": "_allowedTokenIndex",
          "type": "uint256"
        }
      ],
      "name": "getTokenStake",
      "outputs": [
        {
          "internalType": "address",
          "name": "tokenAddress",
          "type": "address"
        },
        {
          "internalType": "uint256",
          "name": "stake",
          "type": "uint256"
        }
      ],
      "stateMutability": "view",
      "type": "function"
    },
    {
      "inputs": [
        {
          "internalType": "address",
          "name": "_tokenAddress",
          "type": "address"
        }
      ],
      "name": "isAllowedToken",
      "outputs": [
        {
          "internalType": "bool",
          "name": "",
          "type": "bool"
        }
      ],
      "stateMutability": "view",
      "type": "function"
    }
  ],
  "bytecode": "0x608060405234801561001057600080fd5b506040516111413803806111418339818101604052602081101561003357600080fd5b5051600061003f6101ee565b600080546001600160a01b0319166001600160a01b0383169081178255604051929350917f8be0079c531659141344cd1fd0a4f28419497f9722a3daafe3b4186f6b6457e0908290a35080600160006101000a8154816001600160a01b0302191690836001600160a01b03160217905550600080600080600160009054906101000a90046001600160a01b03166001600160a01b031663f700839e6040518163ffffffff1660e01b815260040160806040518083038186803b15801561010457600080fd5b505afa158015610118573d6000803e3d6000fd5b505050506040513d608081101561012e57600080fd5b5080516020808301516040808501516060909501516001548251638b8e530960e01b81529251959a509298509496509394506001600160a01b031692638b8e53099260048083019392829003018186803b15801561018b57600080fd5b505afa15801561019f573d6000803e3d6000fd5b505050506040513d60208110156101b557600080fd5b5051600980546001600160a01b0319166001600160a01b03909216919091179055600c93909355600d91909155600e55600f55506101f2565b3390565b610f40806102016000396000f3fe608060405234801561001057600080fd5b50600436106101375760003560e01c8063b18ac918116100b8578063e68e276d1161007c578063e68e276d14610327578063ecd731ca1461034d578063ee575c2814610373578063f2fde38b1461037b578063f7e9dfff146103a1578063fd5e6dd1146103a957610137565b8063b18ac91814610278578063b7bc347e14610280578063cbe230c314610288578063db2da48c146102c2578063dcd21f18146102e857610137565b806357ac94f0116100ff57806357ac94f0146101d85780635c1c20de146102275780635e5f2e261461022f578063715018a6146102685780638da5cb5b1461027057610137565b8063171e44ea1461013c5780631fc2cd93146101645780632eb8197a1461018a57806333df1541146101a457806336a05f26146101d0575b600080fd5b6101626004803603602081101561015257600080fd5b50356001600160a01b03166103c6565b005b6101626004803603602081101561017a57600080fd5b50356001600160a01b03166105d6565b61019261083d565b60408051918252519081900360200190f35b610192600480360360408110156101ba57600080fd5b50803590602001356001600160a01b0316610843565b610192610860565b610204600480360360408110156101ee57600080fd5b506001600160a01b038135169060200135610866565b604080516001600160a01b03909316835260208301919091528051918290030190f35b6101926108b4565b61024c6004803603602081101561024557600080fd5b50356108ba565b604080516001600160a01b039092168252519081900360200190f35b6101626108e1565b61024c610983565b610192610992565b610192610998565b6102ae6004803603602081101561029e57600080fd5b50356001600160a01b031661099e565b604080519115158252519081900360200190f35b610192600480360360208110156102d857600080fd5b50356001600160a01b03166109fb565b61030e600480360360208110156102fe57600080fd5b50356001600160a01b0316610a0d565b6040805192835260208301919091528051918290030190f35b6101926004803603602081101561033d57600080fd5b50356001600160a01b0316610a72565b6101926004803603602081101561036357600080fd5b50356001600160a01b0316610a84565b610192610a96565b6101626004803603602081101561039157600080fd5b50356001600160a01b0316610a9c565b61024c610b94565b61024c600480360360208110156103bf57600080fd5b5035610ba3565b6103ce610bb0565b6000546001600160a01b0390811691161461041e576040805162461bcd60e51b81526020600482018190526024820152600080516020610e45833981519152604482015290519081900360640190fd5b6104278161099e565b1561046f576040805162461bcd60e51b8152602060048201526013602482015272151bdad95b88185b1c9958591e481859191959606a1b604482015290519081900360640190fd5b6001546040805163cbe230c360e01b81526001600160a01b0384811660048301529151919092169163cbe230c3916024808301926020929190829003018186803b1580156104bc57600080fd5b505afa1580156104d0573d6000803e3d6000fd5b505050506040513d60208110156104e657600080fd5b505115156001146105285760405162461bcd60e51b815260040180806020018281038252602d815260200180610dbd602d913960400191505060405180910390fd5b600954600090610540906001600160a01b0316610a0d565b509050600d5481116105835760405162461bcd60e51b815260040180806020018281038252603f815260200180610ea7603f913960400191505060405180910390fd5b50600a80546001810182556000919091527fc65a7bb8d6351c1cf70c95a316cc6a92839c986682d98bc35f958f4883f9d2a80180546001600160a01b0319166001600160a01b0392909216919091179055565b6105de610983565b6001600160a01b0316336001600160a01b0316141561062e5760405162461bcd60e51b8152600401808060200182810382526025815260200180610ee66025913960400191505060405180910390fd5b6001600160a01b038116600090815260036020908152604080832033845290915290205461271090806106925760405162461bcd60e51b815260040180806020018281038252603a815260200180610dea603a913960400191505060405180910390fd5b6001600160a01b0383166000908152600460205260408120546106bf906106b98486610bb4565b90610c16565b6001600160a01b038516600090815260066020526040812054919250906106ec9085906106b99085610bb4565b6040805163a9059cbb60e01b815233600482015260028302602482015290519192506000916001600160a01b0388169163a9059cbb91604480830192602092919082900301818787803b15801561074257600080fd5b505af1158015610756573d6000803e3d6000fd5b505050506040513d602081101561076c57600080fd5b505190506001811515146107b15760405162461bcd60e51b8152600401808060200182810382526042815260200180610e656042913960600191505060405180910390fd5b6001600160a01b0386166000908152600460205260409020546107d49085610c58565b6001600160a01b0387166000908152600460209081526040808320939093556006905220546108039083610c58565b6001600160a01b03909616600090815260066020908152604080832098909855600381528782203383529052958620959095555050505050565b600f5481565b600760209081526000928352604080842090915290825290205481565b600b5481565b6000806000600a848154811061087857fe5b6000918252602080832091909101546001600160a01b039081168084526003835260408085209990921684529790915290205494959350505050565b600c5481565b600a81815481106108c757fe5b6000918252602090912001546001600160a01b0316905081565b6108e9610bb0565b6000546001600160a01b03908116911614610939576040805162461bcd60e51b81526020600482018190526024820152600080516020610e45833981519152604482015290519081900360640190fd5b600080546040516001600160a01b03909116907f8be0079c531659141344cd1fd0a4f28419497f9722a3daafe3b4186f6b6457e0908390a3600080546001600160a01b0319169055565b6000546001600160a01b031690565b600e5481565b600a5490565b6000805b600a548110156109f057826001600160a01b0316600a82815481106109c357fe5b6000918252602090912001546001600160a01b031614156109e85760019150506109f6565b6001016109a2565b50600090505b919050565b60066020526000908152604090205481565b6001600160a01b0381166000908152600360205260408120819081610a30610983565b6001600160a01b039081168252602080830193909352604091820160009081205491871681526002909352912054909250610a6b9083610c58565b9050915091565b60046020526000908152604090205481565b60056020526000908152604090205481565b600d5481565b610aa4610bb0565b6000546001600160a01b03908116911614610af4576040805162461bcd60e51b81526020600482018190526024820152600080516020610e45833981519152604482015290519081900360640190fd5b6001600160a01b038116610b395760405162461bcd60e51b8152600401808060200182810382526026815260200180610d976026913960400191505060405180910390fd5b600080546040516001600160a01b03808516939216917f8be0079c531659141344cd1fd0a4f28419497f9722a3daafe3b4186f6b6457e091a3600080546001600160a01b0319166001600160a01b0392909216919091179055565b6009546001600160a01b031681565b600881815481106108c757fe5b3390565b600082610bc357506000610c10565b82820282848281610bd057fe5b0414610c0d5760405162461bcd60e51b8152600401808060200182810382526021815260200180610e246021913960400191505060405180910390fd5b90505b92915050565b6000610c0d83836040518060400160405280601a81526020017f536166654d6174683a206469766973696f6e206279207a65726f000000000000815250610c9a565b6000610c0d83836040518060400160405280601e81526020017f536166654d6174683a207375627472616374696f6e206f766572666c6f770000815250610d3c565b60008183610d265760405162461bcd60e51b81526004018080602001828103825283818151815260200191508051906020019080838360005b83811015610ceb578181015183820152602001610cd3565b50505050905090810190601f168015610d185780820380516001836020036101000a031916815260200191505b509250505060405180910390fd5b506000838581610d3257fe5b0495945050505050565b60008184841115610d8e5760405162461bcd60e51b8152602060048201818152835160248401528351909283926044909101919085019080838360008315610ceb578181015183820152602001610cd3565b50505090039056fe4f776e61626c653a206e6577206f776e657220697320746865207a65726f2061646472657373546f6b656e206e6f7420616c6c6f7765642062792074686520534c41526567697374727920636f6e747261637443616e206f6e6c7920636c61696d206120636f6d70656e736174696f6e20696620706f736974696f6e20697320626967676572207468616e2030536166654d6174683a206d756c7469706c69636174696f6e206f766572666c6f774f776e61626c653a2063616c6c6572206973206e6f7420746865206f776e65725472616e736665722070726f636573732066726f6d20534c4120636f6e747261637420746f206d73672e73656e64657220776173206e6f742073756363657366756c53686f756c64207374616b65206174206c65617374206d696e696d756d44534c415374616b6564546965723120746f206164642061206e657720746f6b656e53686f756c64206e6f742062652063616c6c65642062792074686520534c41206f776e6572a2646970667358221220d6ae3111612780e6ba118acff94b8f8d085dc2a1b9e9a63ffe3c676d5a91cbb064736f6c634300060c0033",
  "immutableReferences": {},
  "source": "// SPDX-License-Identifier: MIT\npragma solidity ^0.6.0;\n\nimport \"@openzeppelin/contracts/token/ERC20/IERC20.sol\";\nimport \"@openzeppelin/contracts/access/Ownable.sol\";\nimport \"@openzeppelin/contracts/math/SafeMath.sol\";\nimport \"./StakeRegistry.sol\";\n\ncontract Staking is Ownable {\n    using SafeMath for uint256;\n\n    /// @dev SLARegistry contract\n    StakeRegistry private stakeRegistry;\n\n    /// @dev (tokenAddress=>uint256) total pooled token balance\n    mapping(address => uint256) tokenPools;\n    /// @dev (tokenAddress=>stakerAddress=>uint256) staker position to represent his proportion staked\n    mapping(address => mapping(address => uint256)) stakeHoldersPositions;\n    /// @dev (tokenAddress=>uint256) used to keep track of the stakes of the users, to calculate proportion of compensation pool\n    mapping(address => uint256) public usersTotalPositions;\n    /// @dev (tokenAddress=>uint256) provider available reward per token\n    mapping(address => uint256) public providerAvailableReward;\n    /// @dev (tokenAddress=>uint256) users available compensation per token\n    mapping(address => uint256) public usersCompensationPools;\n    /// @dev (periodId=>tokenAddress=>uint256) provider compensation per period and per token\n    mapping(uint256 => mapping(address => uint256))\n        public providerPeriodsRewards;\n    /// @dev address[] of the stakers of the SLA contract\n    address[] public stakers;\n    /// @dev DSLA token address to burn fees\n    address public dslaTokenAddress;\n    /// @dev array with the allowed tokens addresses for the current SLA\n    address[] public allowedTokens;\n\n    //______ onlyOwner modifiable parameters ______\n    /// @dev corresponds to the reward percentage to be paid to the provider after a respected period\n    uint256 public providerRewardPercentage;\n    /// @dev corresponds to the burn rate of DSLA tokens, but divided by 1000 i.e burn percentage = burnRate/1000 %\n    uint256 public DSLAburnRate;\n    /// @dev minimum deposit for Tier 1 staking\n    uint256 public minimumDSLAStakedTier1;\n    /// @dev minimum deposit for Tier 2 staking\n    uint256 public minimumDSLAStakedTier2;\n    /// @dev minimum deposit for Tier 3 staking\n    uint256 public minimumDSLAStakedTier3;\n\n    modifier notOwner {\n        require(msg.sender != owner(), \"Should not be called by the SLA owner\");\n        _;\n    }\n\n    modifier onlyAllowedToken(address _token) {\n        require(isAllowedToken(_token) == true, \"token is not allowed\");\n        _;\n    }\n\n    /**\n     *@param _stakeRegistry 1. address of the base token\n     */\n    constructor(address _stakeRegistry) public {\n        stakeRegistry = StakeRegistry(_stakeRegistry);\n        (\n            uint256 _DSLAburnRate,\n            uint256 _minimumDSLAStakedTier1,\n            uint256 _minimumDSLAStakedTier2,\n            uint256 _minimumDSLAStakedTier3\n        ) = stakeRegistry.getStakingParameters();\n        dslaTokenAddress = stakeRegistry.DSLATokenAddress();\n        DSLAburnRate = _DSLAburnRate;\n        minimumDSLAStakedTier1 = _minimumDSLAStakedTier1;\n        minimumDSLAStakedTier2 = _minimumDSLAStakedTier2;\n        minimumDSLAStakedTier3 = _minimumDSLAStakedTier3;\n    }\n\n    /**\n     *@dev add a token to ve allowed for staking\n     *@param _tokenAddress 1. address of the new allowed token\n     */\n    function addAllowedTokens(address _tokenAddress) public onlyOwner {\n        require(isAllowedToken(_tokenAddress) == false, \"Token already added\");\n        require(\n            stakeRegistry.isAllowedToken(_tokenAddress) == true,\n            \"Token not allowed by the SLARegistry contract\"\n        );\n        (uint256 providerStake, ) = getStakeholdersStakes(dslaTokenAddress);\n        require(\n            providerStake > minimumDSLAStakedTier1,\n            \"Should stake at least minimumDSLAStakedTier1 to add a new token\"\n        );\n        allowedTokens.push(_tokenAddress);\n    }\n\n    /**\n     *@dev increase the amount staked per token\n     *@param _amount 1. amount to be staked\n     *@param _tokenAddress 2. address of the token\n     *@notice providers can stake at any time\n     *@notice users can stake at any time but no more than provider pool\n     */\n    function _stake(uint256 _amount, address _tokenAddress)\n        internal\n        onlyAllowedToken(_tokenAddress)\n    {\n        if (msg.sender != owner()) {\n            (uint256 providerStake, uint256 usersStake) =\n                getStakeholdersStakes(_tokenAddress);\n            require(\n                usersStake.add(_amount) <= providerStake,\n                \"Cannot stake more than SLA providerstake\"\n            );\n        }\n        tokenPools[_tokenAddress] = tokenPools[_tokenAddress].add(_amount);\n        stakeHoldersPositions[_tokenAddress][\n            msg.sender\n        ] = stakeHoldersPositions[_tokenAddress][msg.sender].add(_amount);\n        if (!_isStaker(msg.sender)) {\n            stakers.push(msg.sender);\n        }\n        bool success =\n            IERC20(_tokenAddress).transferFrom(\n                msg.sender,\n                address(this),\n                _amount\n            );\n        require(\n            success == true,\n            \"Transfer process from ERC20 to SLA contract was not succesful\"\n        );\n        // after staking successfully, increase the usersTotalPositions of the token\n        if (msg.sender != owner()) {\n            usersTotalPositions[_tokenAddress] = usersTotalPositions[\n                _tokenAddress\n            ]\n                .add(_amount);\n        }\n    }\n\n    /**\n     *@dev withdraw staked tokens\n     *@param _amount 1. amount to withdraw\n     *@param _tokenAddress 2. address of the token\n     *@notice providers can withdraw at any time stake only until having an equal pool as user\n     *@notice users can only withdraw after the last period or after a breach\n     */\n    function _withdraw(uint256 _amount, address _tokenAddress)\n        internal\n        onlyAllowedToken(_tokenAddress)\n    {\n        require(\n            stakeHoldersPositions[_tokenAddress][msg.sender] >= _amount,\n            \"Should not withdraw more stake than staked\"\n        );\n        if (msg.sender == owner()) {\n            (uint256 providerStake, uint256 usersStake) =\n                getStakeholdersStakes(_tokenAddress);\n            require(\n                providerStake.sub(_amount) >= usersStake,\n                \"Should not withdraw more than the users position\"\n            );\n        }\n        tokenPools[_tokenAddress] = tokenPools[_tokenAddress].sub(_amount);\n        stakeHoldersPositions[_tokenAddress][\n            msg.sender\n        ] = stakeHoldersPositions[_tokenAddress][msg.sender].sub(_amount);\n\n        bool success = IERC20(_tokenAddress).transfer(msg.sender, _amount);\n        require(\n            success == true,\n            \"Transfer process from SLA contract to msg.sender was not succesful\"\n        );\n    }\n\n    /**\n     *@dev sets the provider reward\n     *@notice it calculates the usersStake and calculates the provider reward from it.\n     * Then it subtract the reward from the users stake, by subtracting to the corresponding\n     * token pool without subtracting from the provider balance\n     */\n    function _setRespectedPeriodReward(uint256 _periodId) internal {\n        for (uint256 index = 0; index < allowedTokens.length; index++) {\n            address tokenAddress = allowedTokens[index];\n            (, uint256 usersStake) = getStakeholdersStakes(tokenAddress);\n            // TODO to be discussed\n            uint256 reward = usersStake.mul(providerRewardPercentage).div(100);\n            if (tokenAddress == dslaTokenAddress) {\n                uint256 fees = _burnDSLATokens(reward);\n                reward.sub(fees);\n            }\n            tokenPools[tokenAddress] = tokenPools[tokenAddress].sub(reward);\n            providerAvailableReward[tokenAddress] = providerAvailableReward[\n                tokenAddress\n            ]\n                .add(reward);\n            providerPeriodsRewards[_periodId][tokenAddress] = reward;\n        }\n    }\n\n    /**\n     *@dev claim from provider\n     *@param _tokenAddress 1. address of the token to withdraw rewards\n     */\n    function _claimReward(address _tokenAddress) internal {\n        uint256 tokenAvailableReward = providerAvailableReward[_tokenAddress];\n        require(\n            tokenAvailableReward > 0,\n            \"Not available rewards for the given token address\"\n        );\n        providerAvailableReward[_tokenAddress] = 0;\n        bool success =\n            IERC20(_tokenAddress).transfer(owner(), tokenAvailableReward);\n        require(\n            success == true,\n            \"Transfer process from SLA contract to msg.sender was not succesful\"\n        );\n    }\n\n    /**\n     *@dev sets the users compensation pool\n     *@notice it calculates the usersStake and calculates the users compensation from it\n     * then it subtract it from the provider stake, to compensate users with a compensation pool\n     */\n    function _setUsersCompensationPool() internal {\n        for (uint256 index = 0; index < allowedTokens.length; index++) {\n            address tokenAddress = allowedTokens[index];\n            (, uint256 usersStake) = getStakeholdersStakes(tokenAddress);\n            uint256 compensation = usersStake;\n            if (tokenAddress == dslaTokenAddress) {\n                uint256 fees = _burnDSLATokens(compensation);\n                compensation.sub(fees);\n            }\n            tokenPools[tokenAddress] = tokenPools[tokenAddress].sub(\n                compensation\n            );\n            // discount the compensation from the provider position\n            stakeHoldersPositions[tokenAddress][\n                owner()\n            ] = stakeHoldersPositions[tokenAddress][owner()].sub(compensation);\n            usersCompensationPools[tokenAddress] = usersCompensationPools[\n                tokenAddress\n            ]\n                .add(compensation);\n        }\n    }\n\n    /**\n     *@dev claim user compensation. Transfers both the compensation and the user remaining stake.\n     *@param _tokenAddress 1. address of the token to claim compensation\n     *@notice it uses the user position and the user total position per token to check\n     * the proportion of the compensation pool that corresponds to every user\n     */\n    function _claimCompensation(address _tokenAddress) public notOwner {\n        uint256 precision = 10000;\n        uint256 userPosition = stakeHoldersPositions[_tokenAddress][msg.sender];\n        require(\n            userPosition > 0,\n            \"Can only claim a compensation if position is bigger than 0\"\n        );\n        // userPosition[tokenAddress]/usersTotalPositions[tokenAddress] is the proportion\n        // of the compensation pool to be delivered.\n        uint256 userCompensationPercentage =\n            userPosition.mul(precision).div(usersTotalPositions[_tokenAddress]);\n        uint256 userCompensation =\n            usersCompensationPools[_tokenAddress]\n                .mul(userCompensationPercentage)\n                .div(precision);\n        // transfers the user compensation times two, to return compensation and remaining stake\n        bool success =\n            IERC20(_tokenAddress).transfer(msg.sender, userCompensation * 2);\n        require(\n            success == true,\n            \"Transfer process from SLA contract to msg.sender was not succesful\"\n        );\n        usersTotalPositions[_tokenAddress] = usersTotalPositions[_tokenAddress]\n            .sub(userPosition);\n        usersCompensationPools[_tokenAddress] = usersCompensationPools[\n            _tokenAddress\n        ]\n            .sub(userCompensation);\n        stakeHoldersPositions[_tokenAddress][msg.sender] = 0;\n    }\n\n    /**\n     *@dev gets the positions of stake both for provider and for users\n     *@param _tokenAddress 1. token address to get the positions\n     *@return providerStake position of the provider (owner) of the SLA contract\n     *@return usersStake position of the user of the SLA contract\n     */\n    function getStakeholdersStakes(address _tokenAddress)\n        public\n        view\n        returns (uint256 providerStake, uint256 usersStake)\n    {\n        providerStake = stakeHoldersPositions[_tokenAddress][owner()];\n        usersStake = tokenPools[_tokenAddress].sub(providerStake);\n    }\n\n    function _isStaker(address _staker) internal view returns (bool) {\n        for (uint256 index = 0; index < stakers.length; index++) {\n            if (stakers[index] == _staker) return true;\n        }\n        return false;\n    }\n\n    function getAllowedTokensLength() public view returns (uint256) {\n        return allowedTokens.length;\n    }\n\n    function getTokenStake(address _staker, uint256 _allowedTokenIndex)\n        public\n        view\n        returns (address tokenAddress, uint256 stake)\n    {\n        address allowedTokenAddress = allowedTokens[_allowedTokenIndex];\n        return (\n            allowedTokenAddress,\n            stakeHoldersPositions[allowedTokenAddress][_staker]\n        );\n    }\n\n    function isAllowedToken(address _tokenAddress) public view returns (bool) {\n        for (uint256 index = 0; index < allowedTokens.length; index++) {\n            if (allowedTokens[index] == _tokenAddress) {\n                return true;\n            }\n        }\n        return false;\n    }\n\n    function _burnDSLATokens(uint256 _amount) internal returns (uint256 fees) {\n        bytes4 BURN_SELECTOR = bytes4(keccak256(bytes(\"burn(uint256)\")));\n        fees = _amount.mul(DSLAburnRate).div(1000);\n        (bool _success, ) =\n            dslaTokenAddress.call(abi.encodeWithSelector(BURN_SELECTOR, fees));\n        require(_success, \"DSLA burn process was not successful\");\n        tokenPools[dslaTokenAddress] = tokenPools[dslaTokenAddress].sub(fees);\n    }\n}\n",
  "sourcePath": "/Users/matiasbn/Desktop/stacktical/stacktical-dsla-contracts/contracts/Staking.sol",
  "compiler": {
    "name": "solc",
    "version": "0.6.12+commit.27d51765.Emscripten.clang"
  },
  "schemaVersion": "3.3.3",
  "updatedAt": "2021-02-13T23:43:23.098Z",
  "devdoc": {
    "kind": "dev",
    "methods": {
      "_claimCompensation(address)": {
        "details": "claim user compensation. Transfers both the compensation and the user remaining stake.",
        "params": {
          "_tokenAddress": "1. address of the token to claim compensation"
        }
      },
      "addAllowedTokens(address)": {
        "details": "add a token to ve allowed for staking",
        "params": {
          "_tokenAddress": "1. address of the new allowed token"
        }
      },
      "constructor": {
        "params": {
          "_stakeRegistry": "1. address of the base token"
        }
      },
      "getStakeholdersStakes(address)": {
        "details": "gets the positions of stake both for provider and for users",
        "params": {
          "_tokenAddress": "1. token address to get the positions"
        },
        "returns": {
          "providerStake": "position of the provider (owner) of the SLA contract",
          "usersStake": "position of the user of the SLA contract"
        }
      },
      "owner()": {
        "details": "Returns the address of the current owner."
      },
      "renounceOwnership()": {
        "details": "Leaves the contract without owner. It will not be possible to call `onlyOwner` functions anymore. Can only be called by the current owner. NOTE: Renouncing ownership will leave the contract without an owner, thereby removing any functionality that is only available to the owner."
      },
      "transferOwnership(address)": {
        "details": "Transfers ownership of the contract to a new account (`newOwner`). Can only be called by the current owner."
      }
    },
    "stateVariables": {
      "DSLAburnRate": {
        "details": "corresponds to the burn rate of DSLA tokens, but divided by 1000 i.e burn percentage = burnRate/1000 %"
      },
      "allowedTokens": {
        "details": "array with the allowed tokens addresses for the current SLA"
      },
      "dslaTokenAddress": {
        "details": "DSLA token address to burn fees"
      },
      "minimumDSLAStakedTier1": {
        "details": "minimum deposit for Tier 1 staking"
      },
      "minimumDSLAStakedTier2": {
        "details": "minimum deposit for Tier 2 staking"
      },
      "minimumDSLAStakedTier3": {
        "details": "minimum deposit for Tier 3 staking"
      },
      "providerAvailableReward": {
        "details": "(tokenAddress=>uint256) provider available reward per token"
      },
      "providerPeriodsRewards": {
        "details": "(periodId=>tokenAddress=>uint256) provider compensation per period and per token"
      },
      "providerRewardPercentage": {
        "details": "corresponds to the reward percentage to be paid to the provider after a respected period"
      },
      "stakeHoldersPositions": {
        "details": "(tokenAddress=>stakerAddress=>uint256) staker position to represent his proportion staked"
      },
      "stakeRegistry": {
        "details": "SLARegistry contract"
      },
      "stakers": {
        "details": "address[] of the stakers of the SLA contract"
      },
      "tokenPools": {
        "details": "(tokenAddress=>uint256) total pooled token balance"
      },
      "usersCompensationPools": {
        "details": "(tokenAddress=>uint256) users available compensation per token"
      },
      "usersTotalPositions": {
        "details": "(tokenAddress=>uint256) used to keep track of the stakes of the users, to calculate proportion of compensation pool"
      }
    },
    "version": 1
  },
  "userdoc": {
    "kind": "user",
    "methods": {
      "_claimCompensation(address)": {
        "notice": "it uses the user position and the user total position per token to check the proportion of the compensation pool that corresponds to every user"
      }
    },
    "version": 1
  }
}