{
  "contractName": "Staking",
  "abi": [
    {
      "inputs": [
        {
          "internalType": "address",
          "name": "_stakeRegistry",
          "type": "address"
        },
        {
          "internalType": "address",
          "name": "_periodRegistry",
          "type": "address"
        },
        {
          "internalType": "enum PeriodRegistry.PeriodType",
          "name": "_periodType",
          "type": "uint8"
        },
        {
          "internalType": "uint256",
          "name": "_slaPeriodsLength",
          "type": "uint256"
        },
        {
          "internalType": "bool",
          "name": "_whitelistedContract",
          "type": "bool"
        },
        {
          "internalType": "uint256",
          "name": "_slaID",
          "type": "uint256"
        }
      ],
      "stateMutability": "nonpayable",
      "type": "constructor"
    },
    {
      "anonymous": false,
      "inputs": [
        {
          "indexed": true,
          "internalType": "address",
          "name": "previousOwner",
          "type": "address"
        },
        {
          "indexed": true,
          "internalType": "address",
          "name": "newOwner",
          "type": "address"
        }
      ],
      "name": "OwnershipTransferred",
      "type": "event"
    },
    {
      "anonymous": false,
      "inputs": [
        {
          "indexed": true,
          "internalType": "uint256",
          "name": "periodId",
          "type": "uint256"
        },
        {
          "indexed": true,
          "internalType": "address",
          "name": "tokenAddress",
          "type": "address"
        },
        {
          "indexed": false,
          "internalType": "uint256",
          "name": "rewardPercentage",
          "type": "uint256"
        },
        {
          "indexed": false,
          "internalType": "uint256",
          "name": "rewardPercentagePrecision",
          "type": "uint256"
        },
        {
          "indexed": false,
          "internalType": "uint256",
          "name": "rewardAmount",
          "type": "uint256"
        }
      ],
      "name": "ProviderRewardGenerated",
      "type": "event"
    },
    {
      "inputs": [],
      "name": "DSLAburnRate",
      "outputs": [
        {
          "internalType": "uint256",
          "name": "",
          "type": "uint256"
        }
      ],
      "stateMutability": "view",
      "type": "function"
    },
    {
      "inputs": [
        {
          "internalType": "uint256",
          "name": "",
          "type": "uint256"
        }
      ],
      "name": "allowedTokens",
      "outputs": [
        {
          "internalType": "address",
          "name": "",
          "type": "address"
        }
      ],
      "stateMutability": "view",
      "type": "function"
    },
    {
      "inputs": [],
      "name": "cumulatedDevaluation",
      "outputs": [
        {
          "internalType": "uint256",
          "name": "",
          "type": "uint256"
        }
      ],
      "stateMutability": "view",
      "type": "function"
    },
    {
      "inputs": [],
      "name": "cumulatedDevaluationPrecision",
      "outputs": [
        {
          "internalType": "uint256",
          "name": "",
          "type": "uint256"
        }
      ],
      "stateMutability": "view",
      "type": "function"
    },
    {
      "inputs": [
        {
          "internalType": "address",
          "name": "",
          "type": "address"
        }
      ],
      "name": "dpTokenRegistry",
      "outputs": [
        {
          "internalType": "contract ERC20PresetMinterPauser",
          "name": "",
          "type": "address"
        }
      ],
      "stateMutability": "view",
      "type": "function"
    },
    {
      "inputs": [],
      "name": "dslaTokenAddress",
      "outputs": [
        {
          "internalType": "address",
          "name": "",
          "type": "address"
        }
      ],
      "stateMutability": "view",
      "type": "function"
    },
    {
      "inputs": [
        {
          "internalType": "address",
          "name": "",
          "type": "address"
        }
      ],
      "name": "duTokenRegistry",
      "outputs": [
        {
          "internalType": "contract ERC20PresetMinterPauser",
          "name": "",
          "type": "address"
        }
      ],
      "stateMutability": "view",
      "type": "function"
    },
    {
      "inputs": [],
      "name": "owner",
      "outputs": [
        {
          "internalType": "address",
          "name": "",
          "type": "address"
        }
      ],
      "stateMutability": "view",
      "type": "function"
    },
    {
      "inputs": [
        {
          "internalType": "address",
          "name": "",
          "type": "address"
        }
      ],
      "name": "providerPool",
      "outputs": [
        {
          "internalType": "uint256",
          "name": "",
          "type": "uint256"
        }
      ],
      "stateMutability": "view",
      "type": "function"
    },
    {
      "inputs": [],
      "name": "renounceOwnership",
      "outputs": [],
      "stateMutability": "nonpayable",
      "type": "function"
    },
    {
      "inputs": [],
      "name": "slaID",
      "outputs": [
        {
          "internalType": "uint256",
          "name": "",
          "type": "uint256"
        }
      ],
      "stateMutability": "view",
      "type": "function"
    },
    {
      "inputs": [],
      "name": "slaPeriodsLength",
      "outputs": [
        {
          "internalType": "uint256",
          "name": "",
          "type": "uint256"
        }
      ],
      "stateMutability": "view",
      "type": "function"
    },
    {
      "inputs": [
        {
          "internalType": "uint256",
          "name": "",
          "type": "uint256"
        }
      ],
      "name": "stakers",
      "outputs": [
        {
          "internalType": "address",
          "name": "",
          "type": "address"
        }
      ],
      "stateMutability": "view",
      "type": "function"
    },
    {
      "inputs": [
        {
          "internalType": "address",
          "name": "newOwner",
          "type": "address"
        }
      ],
      "name": "transferOwnership",
      "outputs": [],
      "stateMutability": "nonpayable",
      "type": "function"
    },
    {
      "inputs": [
        {
          "internalType": "address",
          "name": "",
          "type": "address"
        }
      ],
      "name": "usersPool",
      "outputs": [
        {
          "internalType": "uint256",
          "name": "",
          "type": "uint256"
        }
      ],
      "stateMutability": "view",
      "type": "function"
    },
    {
      "inputs": [
        {
          "internalType": "address",
          "name": "",
          "type": "address"
        }
      ],
      "name": "whitelist",
      "outputs": [
        {
          "internalType": "bool",
          "name": "",
          "type": "bool"
        }
      ],
      "stateMutability": "view",
      "type": "function"
    },
    {
      "inputs": [],
      "name": "whitelistedContract",
      "outputs": [
        {
          "internalType": "bool",
          "name": "",
          "type": "bool"
        }
      ],
      "stateMutability": "view",
      "type": "function"
    },
    {
      "inputs": [
        {
          "internalType": "address",
          "name": "_userAddress",
          "type": "address"
        }
      ],
      "name": "addUserToWhitelist",
      "outputs": [],
      "stateMutability": "nonpayable",
      "type": "function"
    },
    {
      "inputs": [
        {
          "internalType": "address",
          "name": "_userAddress",
          "type": "address"
        }
      ],
      "name": "removeUserFromWhitelist",
      "outputs": [],
      "stateMutability": "nonpayable",
      "type": "function"
    },
    {
      "inputs": [
        {
          "internalType": "address",
          "name": "_tokenAddress",
          "type": "address"
        }
      ],
      "name": "addAllowedTokens",
      "outputs": [],
      "stateMutability": "nonpayable",
      "type": "function"
    },
    {
      "inputs": [
        {
          "internalType": "address",
          "name": "_tokenAddress",
          "type": "address"
        }
      ],
      "name": "_claimCompensation",
      "outputs": [],
      "stateMutability": "nonpayable",
      "type": "function"
    },
    {
      "inputs": [
        {
          "internalType": "address",
          "name": "_staker",
          "type": "address"
        }
      ],
      "name": "isStaker",
      "outputs": [
        {
          "internalType": "bool",
          "name": "",
          "type": "bool"
        }
      ],
      "stateMutability": "view",
      "type": "function"
    },
    {
      "inputs": [],
      "name": "getAllowedTokensLength",
      "outputs": [
        {
          "internalType": "uint256",
          "name": "",
          "type": "uint256"
        }
      ],
      "stateMutability": "view",
      "type": "function"
    },
    {
      "inputs": [
        {
          "internalType": "address",
          "name": "_staker",
          "type": "address"
        },
        {
          "internalType": "uint256",
          "name": "_allowedTokenIndex",
          "type": "uint256"
        }
      ],
      "name": "getTokenStake",
      "outputs": [
        {
          "internalType": "address",
          "name": "tokenAddress",
          "type": "address"
        },
        {
          "internalType": "uint256",
          "name": "stake",
          "type": "uint256"
        }
      ],
      "stateMutability": "view",
      "type": "function"
    },
    {
      "inputs": [
        {
          "internalType": "address",
          "name": "_tokenAddress",
          "type": "address"
        }
      ],
      "name": "isAllowedToken",
      "outputs": [
        {
          "internalType": "bool",
          "name": "",
          "type": "bool"
        }
      ],
      "stateMutability": "view",
      "type": "function"
    }
  ],
  "bytecode": "0x6080604052620f4240600855620f42406009553480156200001f57600080fd5b506040516200209c3803806200209c833981810160405260c08110156200004557600080fd5b508051602082015160408301516060840151608085015160a090950151939492939192909160006200007f6001600160e01b036200025116565b600080546001600160a01b0319166001600160a01b0383169081178255604051929350917f8be0079c531659141344cd1fd0a4f28419497f9722a3daafe3b4186f6b6457e0908290a350600180546001600160a01b038089166001600160a01b03199283161783556002805491891691909216179055600e8054869260ff19909116908360058111156200010f57fe5b0217905550600f8390556010805460ff191683151517905560015460408051637b8041cf60e11b815290516000926001600160a01b03169163f700839e9160048083019260a0929190829003018186803b1580156200016d57600080fd5b505afa15801562000182573d6000803e3d6000fd5b505050506040513d60a08110156200019957600080fd5b505160015460408051638b8e530960e01b815290519293506001600160a01b0390911691638b8e530991600480820192602092909190829003018186803b158015620001e457600080fd5b505afa158015620001f9573d6000803e3d6000fd5b505050506040513d60208110156200021057600080fd5b5051600b80546001600160a01b0319166001600160a01b03909216919091179055600d819055620002413362000255565b50600355506200035e9350505050565b3390565b620002686001600160e01b036200025116565b6000546001600160a01b03908116911614620002cb576040805162461bcd60e51b815260206004820181905260248201527f4f776e61626c653a2063616c6c6572206973206e6f7420746865206f776e6572604482015290519081900360640190fd5b6001600160a01b03811660009081526011602052604090205460ff16156200033a576040805162461bcd60e51b815260206004820152601860248201527f5573657220616c72656164792077686974656c69737465640000000000000000604482015290519081900360640190fd5b6001600160a01b03166000908152601160205260409020805460ff19166001179055565b611d2e806200036e6000396000f3fe608060405234801561001057600080fd5b50600436106101635760003560e01c8063715018a6116100ce578063cbe230c311610087578063cbe230c3146103a6578063ee6226c1146103cc578063f2db10fe146103d4578063f2fde38b146103dc578063f7e9dfff14610402578063f9902bb11461040a578063fd5e6dd11461043057610163565b8063715018a61461033a578063747b8050146103425780638d4f567d146103685780638da5cb5b146103705780639b19251a14610378578063b7bc347e1461039e57610163565b80634fb2647e116101205780634fb2647e1461025457806357ac94f01461027a5780635c1c20de146102c95780635e5f2e26146102d1578063639b6fc3146102ee5780636f1e85331461031457610163565b80630c5160f414610168578063171e44ea1461018257806318e45427146101aa5780631fc2cd93146101c6578063484fbf2b146101ec5780634e0c91f614610212575b600080fd5b61017061044d565b60408051918252519081900360200190f35b6101a86004803603602081101561019857600080fd5b50356001600160a01b0316610453565b005b6101b2610d69565b604080519115158252519081900360200190f35b6101a8600480360360208110156101dc57600080fd5b50356001600160a01b0316610d72565b6101706004803603602081101561020257600080fd5b50356001600160a01b0316611050565b6102386004803603602081101561022857600080fd5b50356001600160a01b0316611062565b604080516001600160a01b039092168252519081900360200190f35b6102386004803603602081101561026a57600080fd5b50356001600160a01b031661107d565b6102a66004803603604081101561029057600080fd5b506001600160a01b038135169060200135611098565b604080516001600160a01b03909316835260208301919091528051918290030190f35b61017061127d565b610238600480360360208110156102e757600080fd5b5035611283565b6101706004803603602081101561030457600080fd5b50356001600160a01b03166112aa565b6101b26004803603602081101561032a57600080fd5b50356001600160a01b03166112bc565b6101a8611319565b6101a86004803603602081101561035857600080fd5b50356001600160a01b03166113bb565b6101706114a0565b6102386114a6565b6101b26004803603602081101561038e57600080fd5b50356001600160a01b03166114b5565b6101706114ca565b6101b2600480360360208110156103bc57600080fd5b50356001600160a01b03166114d0565b610170611522565b610170611528565b6101a8600480360360208110156103f257600080fd5b50356001600160a01b031661152e565b610238611626565b6101a86004803603602081101561042057600080fd5b50356001600160a01b0316611635565b6102386004803603602081101561044657600080fd5b5035611717565b600f5481565b61045b611724565b6000546001600160a01b039081169116146104ab576040805162461bcd60e51b81526020600482018190526024820152600080516020611c8a833981519152604482015290519081900360640190fd5b6104b4816114d0565b156104fc576040805162461bcd60e51b8152602060048201526013602482015272151bdad95b88185b1c9958591e481859191959606a1b604482015290519081900360640190fd5b6001546040805163cbe230c360e01b81526001600160a01b0384811660048301529151919092169163cbe230c3916024808301926020929190829003018186803b15801561054957600080fd5b505afa15801561055d573d6000803e3d6000fd5b505050506040513d602081101561057357600080fd5b505115156001146105b55760405162461bcd60e51b815260040180806020018281038252602d815260200180611c02602d913960400191505060405180910390fd5b600c80546001810182556000919091527fdf6966c971051c3d54ec59162606531493a51404a002842f56009d7e5cf4a8c70180546001600160a01b0319166001600160a01b03831617905560035460609061060f90611728565b90506060826001600160a01b03166395d89b416040518163ffffffff1660e01b815260040160006040518083038186803b15801561064c57600080fd5b505afa158015610660573d6000803e3d6000fd5b505050506040513d6000823e601f3d908101601f19168201604052602081101561068957600080fd5b81019080805160405193929190846401000000008211156106a957600080fd5b9083019060208201858111156106be57600080fd5b82516401000000008111828201881017156106d857600080fd5b82525081516020918201929091019080838360005b838110156107055781810151838201526020016106ed565b50505050905090810190601f1680156107325780820380516001836020036101000a031916815260200191505b5060405250505090506060818360405160200180806944534c412d555345522d60b01b815250600a0183805190602001908083835b602083106107865780518252601f199092019160209182019101610767565b6001836020036101000a03801982511681845116808217855250505050505090500180602d60f81b81525060010182805190602001908083835b602083106107df5780518252601f1990920191602091820191016107c0565b6001836020036101000a03801982511681845116808217855250505050505090500192505050604051602081830303815290604052905060608284604051602001808061647560f01b81525060020183805190602001908083835b602083106108595780518252601f19909201916020918201910161083a565b6001836020036101000a03801982511681845116808217855250505050505090500180602d60f81b81525060010182805190602001908083835b602083106108b25780518252601f199092019160209182019101610893565b6001836020036101000a0380198251168184511680821785525050505050509050019250505060405160208183030381529060405290506060838560405160200180806d44534c412d50524f56494445522d60901b815250600e0183805190602001908083835b602083106109385780518252601f199092019160209182019101610919565b6001836020036101000a03801982511681845116808217855250505050505090500180602d60f81b81525060010182805190602001908083835b602083106109915780518252601f199092019160209182019101610972565b6001836020036101000a03801982511681845116808217855250505050505090500192505050604051602081830303815290604052905060608486604051602001808061064760f41b81525060020183805190602001908083835b60208310610a0b5780518252601f1990920191602091820191016109ec565b6001836020036101000a03801982511681845116808217855250505050505090500180602d60f81b81525060010182805190602001908083835b60208310610a645780518252601f199092019160209182019101610a45565b51815160209384036101000a60001901801990921691161790526040805192909401828103601f19018352808552600154633350214760e11b8252600482019586528c5160448301528c51939950600098506001600160a01b031696506366a0428e95508b948b9450928392602483019260640191908701908083838d5b83811015610afa578181015183820152602001610ae2565b50505050905090810190601f168015610b275780820380516001836020036101000a031916815260200191505b50838103825284518152845160209182019186019080838360005b83811015610b5a578181015183820152602001610b42565b50505050905090810190601f168015610b875780820380516001836020036101000a031916815260200191505b50945050505050602060405180830381600087803b158015610ba857600080fd5b505af1158015610bbc573d6000803e3d6000fd5b505050506040513d6020811015610bd257600080fd5b505160015460408051633350214760e11b8152600481019182528651604482015286519394506000936001600160a01b03909316926366a0428e92889288928291602481019160649091019060208701908083838d5b83811015610c40578181015183820152602001610c28565b50505050905090810190601f168015610c6d5780820380516001836020036101000a031916815260200191505b50838103825284518152845160209182019186019080838360005b83811015610ca0578181015183820152602001610c88565b50505050905090810190601f168015610ccd5780820380516001836020036101000a031916815260200191505b50945050505050602060405180830381600087803b158015610cee57600080fd5b505af1158015610d02573d6000803e3d6000fd5b505050506040513d6020811015610d1857600080fd5b50516001600160a01b03998a1660009081526007602090815260408083208054948e166001600160a01b031995861617905560069091529020805493909a1692169190911790975550505050505050565b60105460ff1681565b610d7a6114a6565b6001600160a01b0316336001600160a01b03161415610dca5760405162461bcd60e51b8152600401808060200182810382526025815260200180611cd46025913960400191505060405180910390fd5b60105460ff16151560011415610e3d573360009081526011602052604090205460ff161515600114610e3d576040805162461bcd60e51b8152602060048201526017602482015276155cd95c881a5cc81b9bdd081dda1a5d195b1a5cdd1959604a1b604482015290519081900360640190fd5b6001600160a01b0380821660009081526006602090815260408083205481516370a0823160e01b8152336004820152915194169384926370a082319260248082019391829003018186803b158015610e9457600080fd5b505afa158015610ea8573d6000803e3d6000fd5b505050506040513d6020811015610ebe57600080fd5b5051604080516318160ddd60e01b815290519192506000916001600160a01b038516916318160ddd916004808301926020929190829003018186803b158015610f0657600080fd5b505afa158015610f1a573d6000803e3d6000fd5b505050506040513d6020811015610f3057600080fd5b5051905061271082610f735760405162461bcd60e51b815260040180806020018281038252603a815260200180611c2f603a913960400191505060405180910390fd5b6000610f9583610f89868563ffffffff61180316565b9063ffffffff61186516565b6001600160a01b03871660009081526005602052604081205491925090610fc8908490610f89908563ffffffff61180316565b6040805163079cc67960e41b81523360048201526024810188905290519192506001600160a01b038816916379cc67909160448082019260009290919082900301818387803b15801561101a57600080fd5b505af115801561102e573d6000803e3d6000fd5b50611047925050506001600160a01b03881633836118a7565b50505050505050565b60056020526000908152604090205481565b6006602052600090815260409020546001600160a01b031681565b6007602052600090815260409020546001600160a01b031681565b6000806000600c84815481106110aa57fe5b6000918252602090912001546001600160a01b031690506110c96114a6565b6001600160a01b0316856001600160a01b03161415611105576001600160a01b0381166000908152600460205260409020549092509050611276565b6001600160a01b0380821660009081526006602090815260408083205481516318160ddd60e01b8152915194169384926318160ddd9260048082019391829003018186803b15801561115657600080fd5b505afa15801561116a573d6000803e3d6000fd5b505050506040513d602081101561118057600080fd5b50519050806111985750909250600091506112769050565b6000826001600160a01b03166370a08231896040518263ffffffff1660e01b815260040180826001600160a01b03166001600160a01b0316815260200191505060206040518083038186803b1580156111f057600080fd5b505afa158015611204573d6000803e3d6000fd5b505050506040513d602081101561121a57600080fd5b50519050612710600061123784610f89858563ffffffff61180316565b6001600160a01b038716600090815260056020526040902054909150869061126b908490610f89908563ffffffff61180316565b975097505050505050505b9250929050565b600d5481565b600c818154811061129057fe5b6000918252602090912001546001600160a01b0316905081565b60046020526000908152604090205481565b6000805b600a5481101561130e57826001600160a01b0316600a82815481106112e157fe5b6000918252602090912001546001600160a01b03161415611306576001915050611314565b6001016112c0565b50600090505b919050565b611321611724565b6000546001600160a01b03908116911614611371576040805162461bcd60e51b81526020600482018190526024820152600080516020611c8a833981519152604482015290519081900360640190fd5b600080546040516001600160a01b03909116907f8be0079c531659141344cd1fd0a4f28419497f9722a3daafe3b4186f6b6457e0908390a3600080546001600160a01b0319169055565b6113c3611724565b6000546001600160a01b03908116911614611413576040805162461bcd60e51b81526020600482018190526024820152600080516020611c8a833981519152604482015290519081900360640190fd5b6001600160a01b03811660009081526011602052604090205460ff161561147c576040805162461bcd60e51b8152602060048201526018602482015277155cd95c88185b1c9958591e481dda1a5d195b1a5cdd195960421b604482015290519081900360640190fd5b6001600160a01b03166000908152601160205260409020805460ff19166001179055565b60085481565b6000546001600160a01b031690565b60116020526000908152604090205460ff1681565b600c5490565b6000805b600c5481101561130e57826001600160a01b0316600c82815481106114f557fe5b6000918252602090912001546001600160a01b0316141561151a576001915050611314565b6001016114d4565b60095481565b60035481565b611536611724565b6000546001600160a01b03908116911614611586576040805162461bcd60e51b81526020600482018190526024820152600080516020611c8a833981519152604482015290519081900360640190fd5b6001600160a01b0381166115cb5760405162461bcd60e51b8152600401808060200182810382526026815260200180611bdc6026913960400191505060405180910390fd5b600080546040516001600160a01b03808516939216917f8be0079c531659141344cd1fd0a4f28419497f9722a3daafe3b4186f6b6457e091a3600080546001600160a01b0319166001600160a01b0392909216919091179055565b600b546001600160a01b031681565b61163d611724565b6000546001600160a01b0390811691161461168d576040805162461bcd60e51b81526020600482018190526024820152600080516020611c8a833981519152604482015290519081900360640190fd5b6001600160a01b03811660009081526011602052604090205460ff1615156001146116f6576040805162461bcd60e51b8152602060048201526014602482015273155cd95c881b9bdd081dda1a5d195b1a5cdd195960621b604482015290519081900360640190fd5b6001600160a01b03166000908152601160205260409020805460ff19169055565b600a818154811061129057fe5b3390565b6060818061174f5750506040805180820190915260018152600360fc1b6020820152611314565b8060005b811561176757600101600a82049150611753565b60608167ffffffffffffffff8111801561178057600080fd5b506040519080825280601f01601f1916602001820160405280156117ab576020820181803683370190505b50905060001982015b84156117f957600a850660300160f81b828280600190039350815181106117d757fe5b60200101906001600160f81b031916908160001a905350600a850494506117b4565b5095945050505050565b6000826118125750600061185f565b8282028284828161181f57fe5b041461185c5760405162461bcd60e51b8152600401808060200182810382526021815260200180611c696021913960400191505060405180910390fd5b90505b92915050565b600061185c83836040518060400160405280601a81526020017f536166654d6174683a206469766973696f6e206279207a65726f0000000000008152506118fe565b604080516001600160a01b038416602482015260448082018490528251808303909101815260649091019091526020810180516001600160e01b031663a9059cbb60e01b1790526118f99084906119a0565b505050565b6000818361198a5760405162461bcd60e51b81526004018080602001828103825283818151815260200191508051906020019080838360005b8381101561194f578181015183820152602001611937565b50505050905090810190601f16801561197c5780820380516001836020036101000a031916815260200191505b509250505060405180910390fd5b50600083858161199657fe5b0495945050505050565b60606119f5826040518060400160405280602081526020017f5361666545524332303a206c6f772d6c6576656c2063616c6c206661696c6564815250856001600160a01b0316611a519092919063ffffffff16565b8051909150156118f957808060200190516020811015611a1457600080fd5b50516118f95760405162461bcd60e51b815260040180806020018281038252602a815260200180611caa602a913960400191505060405180910390fd5b6060611a608484600085611a68565b949350505050565b6060611a7385611bd5565b611ac4576040805162461bcd60e51b815260206004820152601d60248201527f416464726573733a2063616c6c20746f206e6f6e2d636f6e7472616374000000604482015290519081900360640190fd5b60006060866001600160a01b031685876040518082805190602001908083835b60208310611b035780518252601f199092019160209182019101611ae4565b6001836020036101000a03801982511681845116808217855250505050505090500191505060006040518083038185875af1925050503d8060008114611b65576040519150601f19603f3d011682016040523d82523d6000602084013e611b6a565b606091505b50915091508115611b7e579150611a609050565b805115611b8e5780518082602001fd5b60405162461bcd60e51b815260206004820181815286516024840152865187939192839260440191908501908083836000831561194f578181015183820152602001611937565b3b15159056fe4f776e61626c653a206e6577206f776e657220697320746865207a65726f2061646472657373546f6b656e206e6f7420616c6c6f7765642062792074686520534c41526567697374727920636f6e747261637443616e206f6e6c7920636c61696d206120636f6d70656e736174696f6e20696620706f736974696f6e20697320626967676572207468616e2030536166654d6174683a206d756c7469706c69636174696f6e206f766572666c6f774f776e61626c653a2063616c6c6572206973206e6f7420746865206f776e65725361666545524332303a204552433230206f7065726174696f6e20646964206e6f74207375636365656453686f756c64206e6f742062652063616c6c65642062792074686520534c41206f776e6572a2646970667358221220d0cbd58d24d2ab37085acbc54c479178f69e239f6848b8c8ea7894bc35737acf64736f6c63430006060033",
  "immutableReferences": {},
  "source": "// SPDX-License-Identifier: MIT\npragma solidity 0.6.6;\n\nimport \"@openzeppelin/contracts/token/ERC20/ERC20.sol\";\nimport \"@openzeppelin/contracts/token/ERC20/SafeERC20.sol\";\nimport \"@openzeppelin/contracts/presets/ERC20PresetMinterPauser.sol\";\nimport \"@openzeppelin/contracts/access/Ownable.sol\";\nimport \"@openzeppelin/contracts/math/SafeMath.sol\";\nimport \"./StakeRegistry.sol\";\nimport \"./PeriodRegistry.sol\";\n\ncontract Staking is Ownable {\n    using SafeMath for uint256;\n    using SafeERC20 for ERC20;\n\n    /// @dev StakeRegistry contract\n    StakeRegistry private stakeRegistry;\n    /// @dev SLARegistry contract\n    PeriodRegistry private periodRegistry;\n    /// @dev current SLA id\n    uint256 public slaID;\n\n    /// @dev (tokenAddress=>uint256) total pooled token balance\n    mapping(address => uint256) public providerPool;\n    /// @dev (tokenAddress=>uint256) total pooled token balance\n    mapping(address => uint256) public usersPool;\n\n    ///@dev (tokenAddress=>dTokenAddress) to keep track of dToken for users\n    mapping(address => ERC20PresetMinterPauser) public duTokenRegistry;\n    ///@dev (tokenAddress=>dTokenAddress) to keep track of dToken for provider\n    mapping(address => ERC20PresetMinterPauser) public dpTokenRegistry;\n\n    ///@dev index to keep a deflationary mint of tokens\n    uint256 public cumulatedDevaluation = 10**6;\n    ///@dev to keep track of the precision used to avoid multiplying by 0\n    uint256 public cumulatedDevaluationPrecision = 10**6;\n\n    /// @dev address[] of the stakers of the SLA contract\n    address[] public stakers;\n    /// @dev DSLA token address to burn fees\n    address public dslaTokenAddress;\n    /// @dev array with the allowed tokens addresses for the current SLA\n    address[] public allowedTokens;\n\n    /// @dev corresponds to the burn rate of DSLA tokens, but divided by 1000 i.e burn percentage = burnRate/1000 %\n    uint256 public DSLAburnRate;\n\n    /// @dev PeriodRegistry period type of the SLA contract\n    PeriodRegistry.PeriodType private periodType;\n    /// @dev length of the _periodIds array, to state effective APY\n    uint256 public slaPeriodsLength;\n\n    /// @dev boolean to declare if contract is whitelisted\n    bool public whitelistedContract;\n    /// @dev (userAddress=bool) to declare whitelisted addresses\n    mapping(address => bool) public whitelist;\n\n    modifier notOwner {\n        require(msg.sender != owner(), \"Should not be called by the SLA owner\");\n        _;\n    }\n\n    modifier onlyAllowedToken(address _token) {\n        require(isAllowedToken(_token) == true, \"token is not allowed\");\n        _;\n    }\n\n    modifier onlyWhitelisted {\n        if (whitelistedContract == true) {\n            require(whitelist[msg.sender] == true, \"User is not whitelisted\");\n        }\n        _;\n    }\n\n    /**\n     * @dev event for provider reward log\n     * @param periodId 1. id of the period\n     * @param tokenAddress 2. address of the token\n     * @param rewardPercentage 3. reward percentage for the provider\n     * @param rewardPercentagePrecision 4. reward percentage for the provider\n     * @param rewardAmount 5. amount rewarded\n     */\n    event ProviderRewardGenerated(\n        uint256 indexed periodId,\n        address indexed tokenAddress,\n        uint256 rewardPercentage,\n        uint256 rewardPercentagePrecision,\n        uint256 rewardAmount\n    );\n\n    /**\n     *@param _stakeRegistry 1. address of the stake registry\n     *@param _periodRegistry 2. address of the period registry\n     *@param _periodType 3. period type of the SLA\n     *@param _slaPeriodsLength 4. length of the SLA periodsId stored on the sla contract\n     *@param _whitelistedContract 5. enables the white list feature\n     *@param _slaID 6. identifies the SLA to uniquely to emit dTokens\n     */\n    constructor(\n        address _stakeRegistry,\n        address _periodRegistry,\n        PeriodRegistry.PeriodType _periodType,\n        uint256 _slaPeriodsLength,\n        bool _whitelistedContract,\n        uint256 _slaID\n    ) public {\n        stakeRegistry = StakeRegistry(_stakeRegistry);\n        periodRegistry = PeriodRegistry(_periodRegistry);\n        periodType = _periodType;\n        slaPeriodsLength = _slaPeriodsLength;\n        whitelistedContract = _whitelistedContract;\n        (uint256 _DSLAburnRate, , , , ) = stakeRegistry.getStakingParameters();\n        dslaTokenAddress = stakeRegistry.DSLATokenAddress();\n        DSLAburnRate = _DSLAburnRate;\n        addUserToWhitelist(msg.sender);\n        slaID = _slaID;\n    }\n\n    function addUserToWhitelist(address _userAddress) public onlyOwner {\n        require(whitelist[_userAddress] == false, \"User already whitelisted\");\n        whitelist[_userAddress] = true;\n    }\n\n    function removeUserFromWhitelist(address _userAddress) public onlyOwner {\n        require(whitelist[_userAddress] == true, \"User not whitelisted\");\n        whitelist[_userAddress] = false;\n    }\n\n    /**\n     *@dev add a token to ve allowed for staking\n     *@param _tokenAddress 1. address of the new allowed token\n     */\n    function addAllowedTokens(address _tokenAddress) public onlyOwner {\n        require(isAllowedToken(_tokenAddress) == false, \"Token already added\");\n        require(\n            stakeRegistry.isAllowedToken(_tokenAddress) == true,\n            \"Token not allowed by the SLARegistry contract\"\n        );\n        allowedTokens.push(_tokenAddress);\n        string memory dTokenID = _uintToStr(slaID);\n        string memory symbol = ERC20(_tokenAddress).symbol();\n        string memory duTokenName =\n            string(abi.encodePacked(\"DSLA-USER-\", symbol, \"-\", dTokenID));\n        string memory duTokenSymbol =\n            string(abi.encodePacked(\"du\", symbol, \"-\", dTokenID));\n        string memory dpTokenName =\n            string(abi.encodePacked(\"DSLA-PROVIDER-\", symbol, \"-\", dTokenID));\n        string memory dpTokenSymbol =\n            string(abi.encodePacked(\"dp\", symbol, \"-\", dTokenID));\n\n        ERC20PresetMinterPauser duToken =\n            ERC20PresetMinterPauser(\n                stakeRegistry.createDToken(duTokenName, duTokenSymbol)\n            );\n        ERC20PresetMinterPauser dpToken =\n            ERC20PresetMinterPauser(\n                stakeRegistry.createDToken(dpTokenName, dpTokenSymbol)\n            );\n\n        dpTokenRegistry[_tokenAddress] = dpToken;\n        duTokenRegistry[_tokenAddress] = duToken;\n    }\n\n    /**\n     *@dev increase the amount staked per token\n     *@param _amount 1. amount to be staked\n     *@param _tokenAddress 2. address of the token\n     *@notice providers can stake at any time\n     *@notice users can stake at any time but no more than provider pool\n     */\n    function _stake(uint256 _amount, address _tokenAddress)\n        internal\n        onlyAllowedToken(_tokenAddress)\n        onlyWhitelisted\n    {\n        ERC20(_tokenAddress).safeTransferFrom(\n            msg.sender,\n            address(this),\n            _amount\n        );\n\n        if (msg.sender != owner()) {\n            (uint256 providerStake, uint256 usersStake) =\n                (providerPool[_tokenAddress], usersPool[_tokenAddress]);\n            require(\n                usersStake.add(_amount) <= providerStake,\n                \"Cannot stake more than SLA provider stake\"\n            );\n            usersPool[_tokenAddress] = usersPool[_tokenAddress].add(_amount);\n            // mint duTokens considering net present value respect to first period\n            uint256 duTokenAmount =\n                _amount.mul(cumulatedDevaluationPrecision).div(\n                    cumulatedDevaluation\n                );\n            ERC20PresetMinterPauser duToken = duTokenRegistry[_tokenAddress];\n            duToken.mint(msg.sender, duTokenAmount);\n        } else {\n            ERC20PresetMinterPauser dpToken = dpTokenRegistry[_tokenAddress];\n            uint256 p0 = dpToken.totalSupply();\n            uint256 t0 = providerPool[_tokenAddress];\n\n            // if there's no minted tokens, then create 1-1 proportion\n            if (p0 == 0) {\n                dpToken.mint(msg.sender, _amount);\n            } else {\n                // Mint dpTokens in a way that it doesn't affect the PoolTokens/LPTokens average\n                // of current period, so contract owner cannot affect proportional stake of other\n                // provider token owners.\n                // t0/p0 = (t0+_amount)/(p0+mintedDPTokens)\n                // mintedDPTokens = _amount*p0/t0\n                uint256 mintedDPTokens = _amount.mul(p0).div(t0);\n                dpToken.mint(msg.sender, mintedDPTokens);\n            }\n\n            providerPool[_tokenAddress] = providerPool[_tokenAddress].add(\n                _amount\n            );\n        }\n\n        if (!isStaker(msg.sender)) {\n            stakers.push(msg.sender);\n        }\n    }\n\n    /**\n     *@dev sets the provider reward\n     *@notice it calculates the usersStake and calculates the provider reward from it.\n     * @param _periodId 1. id of the period\n     * @param _rewardPercentage to calculate the provider reward\n     * @param _precision used to avoid getting 0 after division in the SLA's registerSLI function\n     */\n    function _setRespectedPeriodReward(\n        uint256 _periodId,\n        uint256 _rewardPercentage,\n        uint256 _precision\n    ) internal {\n        for (uint256 index = 0; index < allowedTokens.length; index++) {\n            address tokenAddress = allowedTokens[index];\n            uint256 usersStake = usersPool[tokenAddress];\n            uint256 reward = usersStake.mul(_rewardPercentage).div(_precision);\n\n            // Subtract before burn to match balances\n            usersPool[tokenAddress] = usersPool[tokenAddress].sub(reward);\n\n            if (tokenAddress == dslaTokenAddress) {\n                uint256 fees = _burnDSLATokens(reward);\n                reward = reward.sub(fees);\n            }\n\n            // Add after burn to match balances\n            providerPool[tokenAddress] = providerPool[tokenAddress].add(reward);\n\n            emit ProviderRewardGenerated(\n                _periodId,\n                tokenAddress,\n                _rewardPercentage,\n                _precision,\n                reward\n            );\n        }\n        // update cumulativeDevaluation to increase dTokens generation over time\n        // decimalReward: the decimal proportion of rewards, e.g. 0.05)\n        // rewardPercentage = precision * decimalReward\n        // Then, by definition:\n        // cumulatedDevaluation = cumulatedDevaluation*(1-decimalReward)\n        // cumulatedDevaluation = cumulatedDevaluation*(1-decimalReward)*precision/precision\n        // Finally\n        // cumulatedDevaluation = cumulatedDevaluation*(precision-rewardPercentage)/precision\n        cumulatedDevaluation = cumulatedDevaluation\n            .mul(_precision.sub(_rewardPercentage))\n            .div(_precision);\n    }\n\n    /**\n     *@dev sets the users compensation pool\n     *@notice it calculates the usersStake and calculates the users compensation from it\n     */\n    function _setUsersCompensation() internal {\n        for (uint256 index = 0; index < allowedTokens.length; index++) {\n            address tokenAddress = allowedTokens[index];\n            uint256 usersStake = usersPool[tokenAddress];\n            uint256 compensation = usersStake;\n            // Subtract before burn to match balances\n            providerPool[tokenAddress] = providerPool[tokenAddress].sub(\n                compensation\n            );\n\n            if (tokenAddress == dslaTokenAddress) {\n                uint256 fees = _burnDSLATokens(compensation);\n                compensation = compensation.sub(fees);\n            }\n\n            // Add after burn to match balances\n            usersPool[tokenAddress] = usersPool[tokenAddress].add(compensation);\n        }\n    }\n\n    /**\n     *@dev withdraw staked tokens. Only dpToken owners can withdraw,\n     *@param _amount 1. amount to be withdrawn\n     *@param _tokenAddress 2. address of the token\n     *@param _contractFinished 3. contract finished\n     */\n    function _withdrawProviderTokens(\n        uint256 _amount,\n        address _tokenAddress,\n        bool _contractFinished\n    ) internal onlyAllowedToken(_tokenAddress) {\n        uint256 providerStake = providerPool[_tokenAddress];\n        uint256 usersStake = usersPool[_tokenAddress];\n        if (!_contractFinished) {\n            require(\n                providerStake.sub(_amount) >= usersStake,\n                \"Should not withdraw more than users stake\"\n            );\n        }\n        ERC20PresetMinterPauser dpToken = dpTokenRegistry[_tokenAddress];\n        uint256 p0 = dpToken.totalSupply();\n        uint256 t0 = providerPool[_tokenAddress];\n        // Burn duTokens in a way that it doesn't affect the PoolTokens/LPTokens average\n        // t0/p0 = (t0-_amount)/(p0-burnedDPTokens)\n        // burnedDPTokens = _amount*p0/t0\n        uint256 burnedDPTokens = _amount.mul(p0).div(t0);\n        dpToken.burnFrom(msg.sender, burnedDPTokens);\n        providerPool[_tokenAddress] = providerPool[_tokenAddress].sub(_amount);\n        ERC20(_tokenAddress).safeTransfer(msg.sender, _amount);\n    }\n\n    /**\n     *@dev withdraw staked tokens. Only duToken owners can withdraw,\n     *@param _amount 1. amount to be withdrawn\n     *@param _tokenAddress 2. address of the token\n     */\n    function _withdrawUserTokens(uint256 _amount, address _tokenAddress)\n        internal\n        onlyAllowedToken(_tokenAddress)\n    {\n        ERC20PresetMinterPauser duToken = duTokenRegistry[_tokenAddress];\n        uint256 p0 = duToken.totalSupply();\n        uint256 t0 = usersPool[_tokenAddress];\n        // Burn duTokens in a way that it doesn't affect the PoolTokens/LPTokens\n        // average for current period.\n        // t0/p0 = (t0-_amount)/(p0-burnedDUTokens)\n        // burnedDUTokens = _amount*p0/t0\n        uint256 burnedDUTokens = _amount.mul(p0).div(t0);\n        duToken.burnFrom(msg.sender, burnedDUTokens);\n        usersPool[_tokenAddress] = usersPool[_tokenAddress].sub(_amount);\n        ERC20(_tokenAddress).safeTransfer(msg.sender, _amount);\n    }\n\n    /**\n     *@dev claim user compensation. Transfers both the compensation and the user remaining stake.\n     *@param _tokenAddress 1. address of the token to claim compensation\n     *@notice it uses the user position and the user total position per token to check\n     * the proportion of the compensation pool that corresponds to every user\n     */\n    function _claimCompensation(address _tokenAddress)\n        public\n        notOwner\n        onlyWhitelisted\n    {\n        ERC20PresetMinterPauser duToken = duTokenRegistry[_tokenAddress];\n        uint256 duTokenBalance = duToken.balanceOf(msg.sender);\n        uint256 duTokenSupply = duToken.totalSupply();\n        uint256 precision = 10000;\n        require(\n            duTokenBalance > 0,\n            \"Can only claim a compensation if position is bigger than 0\"\n        );\n\n        uint256 userCompensationPercentage =\n            duTokenBalance.mul(precision).div(duTokenSupply);\n        uint256 userCompensation =\n            usersPool[_tokenAddress].mul(userCompensationPercentage).div(\n                precision\n            );\n        duToken.burnFrom(msg.sender, duTokenBalance);\n        ERC20(_tokenAddress).safeTransfer(msg.sender, userCompensation);\n    }\n\n    function _burnDSLATokens(uint256 _amount) internal returns (uint256 fees) {\n        bytes4 BURN_SELECTOR = bytes4(keccak256(bytes(\"burn(uint256)\")));\n        fees = _amount.mul(DSLAburnRate).div(1000);\n        (bool _success, ) =\n            dslaTokenAddress.call(abi.encodeWithSelector(BURN_SELECTOR, fees));\n        require(_success, \"DSLA burn process was not successful\");\n    }\n\n    /**\n     *@dev returns true if the _staker address is registered as staker\n     *@param _staker 1. staker address\n     *@return true if address is staker\n     */\n    function isStaker(address _staker) public view returns (bool) {\n        for (uint256 index = 0; index < stakers.length; index++) {\n            if (stakers[index] == _staker) return true;\n        }\n        return false;\n    }\n\n    /**\n     *@dev use this function to evaluate the length of the allowed tokens length\n     *@return allowedTokens.length\n     */\n    function getAllowedTokensLength() public view returns (uint256) {\n        return allowedTokens.length;\n    }\n\n    function getTokenStake(address _staker, uint256 _allowedTokenIndex)\n        public\n        view\n        returns (address tokenAddress, uint256 stake)\n    {\n        address allowedTokenAddress = allowedTokens[_allowedTokenIndex];\n        if (_staker == owner()) {\n            return (allowedTokenAddress, providerPool[allowedTokenAddress]);\n        } else {\n            ERC20PresetMinterPauser dToken =\n                duTokenRegistry[allowedTokenAddress];\n            uint256 dTokenSupply = dToken.totalSupply();\n            if (dTokenSupply == 0) {\n                return (allowedTokenAddress, 0);\n            }\n            uint256 dTokenBalance = dToken.balanceOf(_staker);\n            uint256 precision = 10000;\n            uint256 userCompensationPercentage =\n                dTokenBalance.mul(precision).div(dTokenSupply);\n            return (\n                allowedTokenAddress,\n                usersPool[allowedTokenAddress]\n                    .mul(userCompensationPercentage)\n                    .div(precision)\n            );\n        }\n    }\n\n    /**\n     *@dev checks in the allowedTokens array if there's a token with _tokenAddress value\n     *@param _tokenAddress 1. token address to check exixtence\n     *@return true if _tokenAddress exists in the allowedTokens array\n     */\n    function isAllowedToken(address _tokenAddress) public view returns (bool) {\n        for (uint256 index = 0; index < allowedTokens.length; index++) {\n            if (allowedTokens[index] == _tokenAddress) {\n                return true;\n            }\n        }\n        return false;\n    }\n\n    function _uintToStr(uint256 _i)\n        internal\n        pure\n        returns (string memory _uintAsString)\n    {\n        uint256 number = _i;\n        if (number == 0) {\n            return \"0\";\n        }\n        uint256 j = number;\n        uint256 len;\n        while (j != 0) {\n            len++;\n            j /= 10;\n        }\n        bytes memory bstr = new bytes(len);\n        uint256 k = len - 1;\n        while (number != 0) {\n            bstr[k--] = bytes1(uint8(48 + (number % 10)));\n            number /= 10;\n        }\n        return string(bstr);\n    }\n}\n",
  "sourcePath": "/Users/matiasbn/Desktop/stacktical/stacktical-dsla-contracts/contracts/Staking.sol",
  "compiler": {
    "name": "solc",
    "version": "0.6.6+commit.6c089d02.Emscripten.clang"
  },
  "schemaVersion": "3.3.3",
  "updatedAt": "2021-03-10T20:42:08.530Z",
  "devdoc": {
    "methods": {
      "owner()": {
        "details": "Returns the address of the current owner."
      },
      "renounceOwnership()": {
        "details": "Leaves the contract without owner. It will not be possible to call `onlyOwner` functions anymore. Can only be called by the current owner.     * NOTE: Renouncing ownership will leave the contract without an owner, thereby removing any functionality that is only available to the owner."
      },
      "transferOwnership(address)": {
        "details": "Transfers ownership of the contract to a new account (`newOwner`). Can only be called by the current owner."
      }
    }
  },
  "userdoc": {
    "methods": {
      "_claimCompensation(address)": {
        "notice": "dev claim user compensation. Transfers both the compensation and the user remaining stake. param _tokenAddress 1. address of the token to claim compensation notice it uses the user position and the user total position per token to check the proportion of the compensation pool that corresponds to every user"
      },
      "addAllowedTokens(address)": {
        "notice": "dev add a token to ve allowed for staking param _tokenAddress 1. address of the new allowed token"
      },
      "constructor": "param _stakeRegistry 1. address of the stake registry param _periodRegistry 2. address of the period registry param _periodType 3. period type of the SLA param _slaPeriodsLength 4. length of the SLA periodsId stored on the sla contract param _whitelistedContract 5. enables the white list feature param _slaID 6. identifies the SLA to uniquely to emit dTokens",
      "getAllowedTokensLength()": {
        "notice": "dev use this function to evaluate the length of the allowed tokens length return allowedTokens.length"
      },
      "isAllowedToken(address)": {
        "notice": "dev checks in the allowedTokens array if there's a token with _tokenAddress value param _tokenAddress 1. token address to check exixtence return true if _tokenAddress exists in the allowedTokens array"
      },
      "isStaker(address)": {
        "notice": "dev returns true if the _staker address is registered as staker param _staker 1. staker address return true if address is staker"
      }
    }
  }
}