{
  "contractName": "Staking",
  "abi": [
    {
      "inputs": [
        {
          "internalType": "contract SLARegistry",
          "name": "_slaRegistry",
          "type": "address"
        },
        {
          "internalType": "enum PeriodRegistry.PeriodType",
          "name": "_periodType",
          "type": "uint8"
        },
        {
          "internalType": "bool",
          "name": "_whitelistedContract",
          "type": "bool"
        },
        {
          "internalType": "uint128",
          "name": "_slaID",
          "type": "uint128"
        },
        {
          "internalType": "uint64",
          "name": "_leverage",
          "type": "uint64"
        }
      ],
      "stateMutability": "nonpayable",
      "type": "constructor"
    },
    {
      "anonymous": false,
      "inputs": [
        {
          "indexed": true,
          "internalType": "address",
          "name": "previousOwner",
          "type": "address"
        },
        {
          "indexed": true,
          "internalType": "address",
          "name": "newOwner",
          "type": "address"
        }
      ],
      "name": "OwnershipTransferred",
      "type": "event"
    },
    {
      "anonymous": false,
      "inputs": [
        {
          "indexed": true,
          "internalType": "uint256",
          "name": "periodId",
          "type": "uint256"
        },
        {
          "indexed": true,
          "internalType": "address",
          "name": "tokenAddress",
          "type": "address"
        },
        {
          "indexed": false,
          "internalType": "uint256",
          "name": "rewardPercentage",
          "type": "uint256"
        },
        {
          "indexed": false,
          "internalType": "uint256",
          "name": "rewardPercentagePrecision",
          "type": "uint256"
        },
        {
          "indexed": false,
          "internalType": "uint256",
          "name": "rewardAmount",
          "type": "uint256"
        }
      ],
      "name": "ProviderRewardGenerated",
      "type": "event"
    },
    {
      "inputs": [],
      "name": "DSLAburnRate",
      "outputs": [
        {
          "internalType": "uint256",
          "name": "",
          "type": "uint256"
        }
      ],
      "stateMutability": "view",
      "type": "function"
    },
    {
      "inputs": [
        {
          "internalType": "uint256",
          "name": "",
          "type": "uint256"
        }
      ],
      "name": "allowedTokens",
      "outputs": [
        {
          "internalType": "address",
          "name": "",
          "type": "address"
        }
      ],
      "stateMutability": "view",
      "type": "function"
    },
    {
      "inputs": [
        {
          "internalType": "address",
          "name": "",
          "type": "address"
        }
      ],
      "name": "dpTokenRegistry",
      "outputs": [
        {
          "internalType": "contract ERC20PresetMinterPauser",
          "name": "",
          "type": "address"
        }
      ],
      "stateMutability": "view",
      "type": "function"
    },
    {
      "inputs": [],
      "name": "dslaTokenAddress",
      "outputs": [
        {
          "internalType": "address",
          "name": "",
          "type": "address"
        }
      ],
      "stateMutability": "view",
      "type": "function"
    },
    {
      "inputs": [
        {
          "internalType": "address",
          "name": "",
          "type": "address"
        }
      ],
      "name": "duTokenRegistry",
      "outputs": [
        {
          "internalType": "contract ERC20PresetMinterPauser",
          "name": "",
          "type": "address"
        }
      ],
      "stateMutability": "view",
      "type": "function"
    },
    {
      "inputs": [],
      "name": "leverage",
      "outputs": [
        {
          "internalType": "uint64",
          "name": "",
          "type": "uint64"
        }
      ],
      "stateMutability": "view",
      "type": "function"
    },
    {
      "inputs": [],
      "name": "owner",
      "outputs": [
        {
          "internalType": "address",
          "name": "",
          "type": "address"
        }
      ],
      "stateMutability": "view",
      "type": "function"
    },
    {
      "inputs": [
        {
          "internalType": "address",
          "name": "",
          "type": "address"
        }
      ],
      "name": "providerPool",
      "outputs": [
        {
          "internalType": "uint256",
          "name": "",
          "type": "uint256"
        }
      ],
      "stateMutability": "view",
      "type": "function"
    },
    {
      "inputs": [
        {
          "internalType": "address",
          "name": "",
          "type": "address"
        }
      ],
      "name": "registeredStakers",
      "outputs": [
        {
          "internalType": "bool",
          "name": "",
          "type": "bool"
        }
      ],
      "stateMutability": "view",
      "type": "function"
    },
    {
      "inputs": [],
      "name": "renounceOwnership",
      "outputs": [],
      "stateMutability": "nonpayable",
      "type": "function"
    },
    {
      "inputs": [],
      "name": "slaID",
      "outputs": [
        {
          "internalType": "uint128",
          "name": "",
          "type": "uint128"
        }
      ],
      "stateMutability": "view",
      "type": "function"
    },
    {
      "inputs": [
        {
          "internalType": "uint256",
          "name": "",
          "type": "uint256"
        }
      ],
      "name": "stakers",
      "outputs": [
        {
          "internalType": "address",
          "name": "",
          "type": "address"
        }
      ],
      "stateMutability": "view",
      "type": "function"
    },
    {
      "inputs": [
        {
          "internalType": "address",
          "name": "newOwner",
          "type": "address"
        }
      ],
      "name": "transferOwnership",
      "outputs": [],
      "stateMutability": "nonpayable",
      "type": "function"
    },
    {
      "inputs": [
        {
          "internalType": "address",
          "name": "",
          "type": "address"
        }
      ],
      "name": "usersPool",
      "outputs": [
        {
          "internalType": "uint256",
          "name": "",
          "type": "uint256"
        }
      ],
      "stateMutability": "view",
      "type": "function"
    },
    {
      "inputs": [
        {
          "internalType": "address",
          "name": "",
          "type": "address"
        }
      ],
      "name": "whitelist",
      "outputs": [
        {
          "internalType": "bool",
          "name": "",
          "type": "bool"
        }
      ],
      "stateMutability": "view",
      "type": "function"
    },
    {
      "inputs": [],
      "name": "whitelistedContract",
      "outputs": [
        {
          "internalType": "bool",
          "name": "",
          "type": "bool"
        }
      ],
      "stateMutability": "view",
      "type": "function"
    },
    {
      "inputs": [
        {
          "internalType": "address[]",
          "name": "_userAddresses",
          "type": "address[]"
        }
      ],
      "name": "addUsersToWhitelist",
      "outputs": [],
      "stateMutability": "nonpayable",
      "type": "function"
    },
    {
      "inputs": [
        {
          "internalType": "address[]",
          "name": "_userAddresses",
          "type": "address[]"
        }
      ],
      "name": "removeUsersFromWhitelist",
      "outputs": [],
      "stateMutability": "nonpayable",
      "type": "function"
    },
    {
      "inputs": [
        {
          "internalType": "address",
          "name": "_tokenAddress",
          "type": "address"
        }
      ],
      "name": "addAllowedTokens",
      "outputs": [],
      "stateMutability": "nonpayable",
      "type": "function"
    },
    {
      "inputs": [],
      "name": "getAllowedTokensLength",
      "outputs": [
        {
          "internalType": "uint256",
          "name": "",
          "type": "uint256"
        }
      ],
      "stateMutability": "view",
      "type": "function"
    },
    {
      "inputs": [
        {
          "internalType": "address",
          "name": "_staker",
          "type": "address"
        },
        {
          "internalType": "uint256",
          "name": "_allowedTokenIndex",
          "type": "uint256"
        }
      ],
      "name": "getTokenStake",
      "outputs": [
        {
          "internalType": "address",
          "name": "tokenAddress",
          "type": "address"
        },
        {
          "internalType": "uint256",
          "name": "stake",
          "type": "uint256"
        }
      ],
      "stateMutability": "view",
      "type": "function"
    },
    {
      "inputs": [
        {
          "internalType": "address",
          "name": "_tokenAddress",
          "type": "address"
        }
      ],
      "name": "isAllowedToken",
      "outputs": [
        {
          "internalType": "bool",
          "name": "",
          "type": "bool"
        }
      ],
      "stateMutability": "view",
      "type": "function"
    }
  ],
  "bytecode": "0x6101606040523480156200001257600080fd5b5060405162001b5738038062001b57833981810160405260a08110156200003857600080fd5b5080516020820151604083015160608401516080909401519293919290919060006200006c6001600160e01b03620003c716565b600080546001600160a01b0319166001600160a01b0383169081178255604051929350917f8be0079c531659141344cd1fd0a4f28419497f9722a3daafe3b4186f6b6457e0908290a350846001600160a01b031663683048356040518163ffffffff1660e01b815260040160206040518083038186803b158015620000f057600080fd5b505afa15801562000105573d6000803e3d6000fd5b505050506040513d60208110156200011c57600080fd5b5051600180546001600160a01b0319166001600160a01b0392831617905560408051639fc4caa560e01b8152905191871691639fc4caa591600480820192602092909190829003018186803b1580156200017557600080fd5b505afa1580156200018a573d6000803e3d6000fd5b505050506040513d6020811015620001a157600080fd5b505160601b6001600160601b031916608052836005811115620001c057fe5b610100816005811115620001d057fe5b60f890811b909152841515901b610120525060015460408051637b8041cf60e11b8152905160009283926001600160a01b039091169163f700839e9160048082019261010092909190829003018186803b1580156200022e57600080fd5b505afa15801562000243573d6000803e3d6000fd5b505050506040513d6101008110156200025b57600080fd5b50805160e09091015160015460408051638b8e530960e01b815290519395509193506001600160a01b031691638b8e530991600480820192602092909190829003018186803b158015620002ae57600080fd5b505afa158015620002c3573d6000803e3d6000fd5b505050506040513d6020811015620002da57600080fd5b505160601b6001600160601b03191660c05260e082905260016009600062000301620003cb565b6001600160a01b031681526020810191909152604001600020805460ff1916911515919091179055608084901b6001600160801b03191660a0526001600160401b03818116908416118015906200036257506001836001600160401b031610155b620003a9576040805162461bcd60e51b8152602060048201526012602482015271496e636f7272656374206c6576657261676560701b604482015290519081900360640190fd5b505060c01b6001600160c01b0319166101405250620003da92505050565b3390565b6000546001600160a01b031690565b60805160601c60a05160801c60c05160601c60e0516101005160f81c6101205160f81c6101405160c01c61171c6200043b60003980610daa525080610d86525050806110e85250806114ab52508061076e528061138f52505061171c6000f3fe608060405234801561001057600080fd5b50600436106101425760003560e01c8063715018a6116100b8578063b7bc347e1161007c578063b7bc347e14610455578063cbe230c31461045d578063f2db10fe14610483578063f2fde38b146104a7578063f7e9dfff146104cd578063fd5e6dd1146104d557610142565b8063715018a61461038b5780638d21c770146103935780638da5cb5b146104015780639b19251a14610409578063a7e8d8d41461042f57610142565b80634fb2647e1161010a5780634fb2647e1461022a57806357ac94f0146102505780635ae698ff1461029f5780635c1c20de146103405780635e5f2e2614610348578063639b6fc31461036557610142565b8063171e44ea1461014757806318e454271461016f5780632c86d98e1461018b578063484fbf2b146101b05780634e0c91f6146101e8575b600080fd5b61016d6004803603602081101561015d57600080fd5b50356001600160a01b03166104f2565b005b610177610d84565b604080519115158252519081900360200190f35b610193610da8565b6040805167ffffffffffffffff9092168252519081900360200190f35b6101d6600480360360208110156101c657600080fd5b50356001600160a01b0316610dcc565b60408051918252519081900360200190f35b61020e600480360360208110156101fe57600080fd5b50356001600160a01b0316610dde565b604080516001600160a01b039092168252519081900360200190f35b61020e6004803603602081101561024057600080fd5b50356001600160a01b0316610df9565b61027c6004803603604081101561026657600080fd5b506001600160a01b038135169060200135610e14565b604080516001600160a01b03909316835260208301919091528051918290030190f35b61016d600480360360208110156102b557600080fd5b810190602081018135600160201b8111156102cf57600080fd5b8201836020820111156102e157600080fd5b803590602001918460208302840111600160201b8311171561030257600080fd5b919080806020026020016040519081016040528093929190818152602001838360200280828437600092019190915250929550610fe9945050505050565b6101d66110e6565b61020e6004803603602081101561035e57600080fd5b503561110a565b6101d66004803603602081101561037b57600080fd5b50356001600160a01b0316611131565b61016d611143565b61016d600480360360208110156103a957600080fd5b810190602081018135600160201b8111156103c357600080fd5b8201836020820111156103d557600080fd5b803590602001918460208302840111600160201b831117156103f657600080fd5b5090925090506111e5565b61020e6112f1565b6101776004803603602081101561041f57600080fd5b50356001600160a01b0316611300565b6101776004803603602081101561044557600080fd5b50356001600160a01b0316611315565b6101d661132a565b6101776004803603602081101561047357600080fd5b50356001600160a01b0316611330565b61048b61138d565b604080516001600160801b039092168252519081900360200190f35b61016d600480360360208110156104bd57600080fd5b50356001600160a01b03166113b1565b61020e6114a9565b61020e600480360360208110156104eb57600080fd5b50356114cd565b6104fa6114da565b6000546001600160a01b0390811691161461054a576040805162461bcd60e51b815260206004820181905260248201526000805160206116c7833981519152604482015290519081900360640190fd5b60015460408051637b8041cf60e11b815290516000926001600160a01b03169163f700839e91600480830192610100929190829003018186803b15801561059057600080fd5b505afa1580156105a4573d6000803e3d6000fd5b505050506040513d6101008110156105bb57600080fd5b5060c0015190506105cb82611330565b15610613576040805162461bcd60e51b8152602060048201526013602482015272151bdad95b88185b1c9958591e481859191959606a1b604482015290519081900360640190fd5b6001546040805163cbe230c360e01b81526001600160a01b0385811660048301529151919092169163cbe230c3916024808301926020929190829003018186803b15801561066057600080fd5b505afa158015610674573d6000803e3d6000fd5b505050506040513d602081101561068a57600080fd5b50516106c75760405162461bcd60e51b815260040180806020018281038252602d815260200180611679602d913960400191505060405180910390fd5b6008805460018101825560008290527ff3f7a9fe364faab93b216da50a3214154f22a0a2b415b23a84c8169e8b636ee30180546001600160a01b0319166001600160a01b038516179055548110156107505760405162461bcd60e51b81526004018080602001828103825260338152602001806116206033913960400191505060405180910390fd5b606073__StringUtils___________________________63fc966d457f00000000000000000000000000000000000000000000000000000000000000006040518263ffffffff1660e01b815260040180826001600160801b0316815260200191505060006040518083038186803b1580156107ca57600080fd5b505af41580156107de573d6000803e3d6000fd5b505050506040513d6000823e601f3d908101601f19168201604052602081101561080757600080fd5b8101908080516040519392919084600160201b82111561082657600080fd5b90830190602082018581111561083b57600080fd5b8251600160201b81118282018810171561085457600080fd5b82525081516020918201929091019080838360005b83811015610881578181015183820152602001610869565b50505050905090810190601f1680156108ae5780820380516001836020036101000a031916815260200191505b50604052505050905060608160405160200180806a44534c412d53484f52542d60a81b815250600b0182805190602001908083835b602083106109025780518252601f1990920191602091820191016108e3565b6001836020036101000a038019825116818451168082178552505050505050905001915050604051602081830303815290604052905060608260405160200180806744534c412d53502d60c01b81525060080182805190602001908083835b602083106109805780518252601f199092019160209182019101610961565b6001836020036101000a038019825116818451168082178552505050505050905001915050604051602081830303815290604052905060608360405160200180806944534c412d4c4f4e472d60b01b815250600a0182805190602001908083835b60208310610a005780518252601f1990920191602091820191016109e1565b6001836020036101000a038019825116818451168082178552505050505050905001915050604051602081830303815290604052905060608460405160200180806744534c412d4c502d60c01b81525060080182805190602001908083835b60208310610a7e5780518252601f199092019160209182019101610a5f565b51815160209384036101000a60001901801990921691161790526040805192909401828103601f19018352808552600154633350214760e11b8252600482019586528b5160448301528b51939850600097506001600160a01b031695506366a0428e948b94508a939092839260248101926064909101918701908083838d5b83811015610b15578181015183820152602001610afd565b50505050905090810190601f168015610b425780820380516001836020036101000a031916815260200191505b50838103825284518152845160209182019186019080838360005b83811015610b75578181015183820152602001610b5d565b50505050905090810190601f168015610ba25780820380516001836020036101000a031916815260200191505b50945050505050602060405180830381600087803b158015610bc357600080fd5b505af1158015610bd7573d6000803e3d6000fd5b505050506040513d6020811015610bed57600080fd5b505160015460408051633350214760e11b8152600481019182528651604482015286519394506000936001600160a01b03909316926366a0428e92889288928291602481019160649091019060208701908083838d5b83811015610c5b578181015183820152602001610c43565b50505050905090810190601f168015610c885780820380516001836020036101000a031916815260200191505b50838103825284518152845160209182019186019080838360005b83811015610cbb578181015183820152602001610ca3565b50505050905090810190601f168015610ce85780820380516001836020036101000a031916815260200191505b50945050505050602060405180830381600087803b158015610d0957600080fd5b505af1158015610d1d573d6000803e3d6000fd5b505050506040513d6020811015610d3357600080fd5b50516001600160a01b03998a1660009081526005602090815260408083208054948e166001600160a01b031995861617905560049091529020805493909a1692169190911790975550505050505050565b7f000000000000000000000000000000000000000000000000000000000000000081565b7f000000000000000000000000000000000000000000000000000000000000000081565b60036020526000908152604090205481565b6004602052600090815260409020546001600160a01b031681565b6005602052600090815260409020546001600160a01b031681565b600080600060088481548110610e2657fe5b6000918252602090912001546001600160a01b03169050610e456112f1565b6001600160a01b0316856001600160a01b03161415610e81576001600160a01b0381166000908152600260205260409020549092509050610fe2565b6001600160a01b0380821660009081526004602081815260408084205481516318160ddd60e01b8152915195169485936318160ddd938382019390929190829003018186803b158015610ed357600080fd5b505afa158015610ee7573d6000803e3d6000fd5b505050506040513d6020811015610efd57600080fd5b5051905080610f15575090925060009150610fe29050565b6000826001600160a01b03166370a08231896040518263ffffffff1660e01b815260040180826001600160a01b03166001600160a01b0316815260200191505060206040518083038186803b158015610f6d57600080fd5b505afa158015610f81573d6000803e3d6000fd5b505050506040513d6020811015610f9757600080fd5b50516001600160a01b0385166000908152600360205260409020549091508490610fd9908490610fcd908563ffffffff6114de16565b9063ffffffff61154016565b95509550505050505b9250929050565b610ff16114da565b6000546001600160a01b03908116911614611041576040805162461bcd60e51b815260206004820181905260248201526000805160206116c7833981519152604482015290519081900360640190fd5b60005b81518110156110e2576009600083838151811061105d57fe5b6020908102919091018101516001600160a01b031682528101919091526040016000205460ff166110da5760016009600084848151811061109a57fe5b60200260200101516001600160a01b03166001600160a01b0316815260200190815260200160002060006101000a81548160ff0219169083151502179055505b600101611044565b5050565b7f000000000000000000000000000000000000000000000000000000000000000081565b6008818154811061111757fe5b6000918252602090912001546001600160a01b0316905081565b60026020526000908152604090205481565b61114b6114da565b6000546001600160a01b0390811691161461119b576040805162461bcd60e51b815260206004820181905260248201526000805160206116c7833981519152604482015290519081900360640190fd5b600080546040516001600160a01b03909116907f8be0079c531659141344cd1fd0a4f28419497f9722a3daafe3b4186f6b6457e0908390a3600080546001600160a01b0319169055565b6111ed6114da565b6000546001600160a01b0390811691161461123d576040805162461bcd60e51b815260206004820181905260248201526000805160206116c7833981519152604482015290519081900360640190fd5b60005b818110156112ec576009600084848481811061125857fe5b602090810292909201356001600160a01b031683525081019190915260400160002054600160ff909116151514156112e45760006009600085858581811061129c57fe5b905060200201356001600160a01b03166001600160a01b03166001600160a01b0316815260200190815260200160002060006101000a81548160ff0219169083151502179055505b600101611240565b505050565b6000546001600160a01b031690565b60096020526000908152604090205460ff1681565b60076020526000908152604090205460ff1681565b60085490565b6000805b60085481101561138257826001600160a01b03166008828154811061135557fe5b6000918252602090912001546001600160a01b0316141561137a576001915050611388565b600101611334565b50600090505b919050565b7f000000000000000000000000000000000000000000000000000000000000000081565b6113b96114da565b6000546001600160a01b03908116911614611409576040805162461bcd60e51b815260206004820181905260248201526000805160206116c7833981519152604482015290519081900360640190fd5b6001600160a01b03811661144e5760405162461bcd60e51b81526004018080602001828103825260268152602001806116536026913960400191505060405180910390fd5b600080546040516001600160a01b03808516939216917f8be0079c531659141344cd1fd0a4f28419497f9722a3daafe3b4186f6b6457e091a3600080546001600160a01b0319166001600160a01b0392909216919091179055565b7f000000000000000000000000000000000000000000000000000000000000000081565b6006818154811061111757fe5b3390565b6000826114ed5750600061153a565b828202828482816114fa57fe5b04146115375760405162461bcd60e51b81526004018080602001828103825260218152602001806116a66021913960400191505060405180910390fd5b90505b92915050565b600061153783836040518060400160405280601a81526020017f536166654d6174683a206469766973696f6e206279207a65726f000000000000815250600081836116095760405162461bcd60e51b81526004018080602001828103825283818151815260200191508051906020019080838360005b838110156115ce5781810151838201526020016115b6565b50505050905090810190601f1680156115fb5780820380516001836020036101000a031916815260200191505b509250505060405180910390fd5b50600083858161161557fe5b049594505050505056fe416c6c6f77656420746f6b656e73206c656e6774682067726561746572207468616e206d617820746f6b656e206c656e6774684f776e61626c653a206e6577206f776e657220697320746865207a65726f2061646472657373546f6b656e206e6f7420616c6c6f7765642062792074686520534c41526567697374727920636f6e7472616374536166654d6174683a206d756c7469706c69636174696f6e206f766572666c6f774f776e61626c653a2063616c6c6572206973206e6f7420746865206f776e6572a264697066735822122005fa269a9c5fca99beba6074ad9bb24b5e4585346da7d9077dbb86ecc307dd1764736f6c63430006060033",
  "immutableReferences": {
    "3726": [
      {
        "length": 32,
        "start": 1902
      },
      {
        "length": 32,
        "start": 5007
      }
    ],
    "3751": [
      {
        "length": 32,
        "start": 5291
      }
    ],
    "3756": [
      {
        "length": 32,
        "start": 4328
      }
    ],
    "3760": [
      {
        "length": 32,
        "start": 3462
      }
    ],
    "3766": [
      {
        "length": 32,
        "start": 3498
      }
    ]
  },
  "source": "// SPDX-License-Identifier: MIT\npragma solidity 0.6.6;\n\nimport \"@openzeppelin/contracts/token/ERC20/ERC20.sol\";\nimport \"@openzeppelin/contracts/token/ERC20/SafeERC20.sol\";\nimport \"@openzeppelin/contracts/presets/ERC20PresetMinterPauser.sol\";\nimport \"@openzeppelin/contracts/access/Ownable.sol\";\nimport \"@openzeppelin/contracts/math/SafeMath.sol\";\nimport \"./StakeRegistry.sol\";\nimport \"./SLARegistry.sol\";\nimport \"./PeriodRegistry.sol\";\nimport \"./StringUtils.sol\";\n\ncontract Staking is Ownable {\n    using SafeMath for uint256;\n    using SafeERC20 for ERC20;\n\n    /// @dev StakeRegistry contract\n    StakeRegistry private stakeRegistry;\n    /// @dev SLARegistry contract\n    PeriodRegistry private immutable periodRegistry;\n    /// @dev current SLA id\n    uint128 public immutable slaID;\n\n    /// @dev (tokenAddress=>uint256) total pooled token balance\n    mapping(address => uint256) public providerPool;\n    /// @dev (tokenAddress=>uint256) total pooled token balance\n    mapping(address => uint256) public usersPool;\n\n    ///@dev (tokenAddress=>dTokenAddress) to keep track of dToken for users\n    mapping(address => ERC20PresetMinterPauser) public duTokenRegistry;\n    ///@dev (tokenAddress=>dTokenAddress) to keep track of dToken for provider\n    mapping(address => ERC20PresetMinterPauser) public dpTokenRegistry;\n\n    /// @dev address[] of the stakers of the SLA contract\n    address[] public stakers;\n    /// @dev (slaOwner=>bool)\n    mapping(address => bool) public registeredStakers;\n    /// @dev DSLA token address to burn fees\n    address public immutable dslaTokenAddress;\n    /// @dev array with the allowed tokens addresses for the current SLA\n    address[] public allowedTokens;\n\n    /// @dev corresponds to the burn rate of DSLA tokens, but divided by 1000 i.e burn percentage = burnRate/1000 %\n    uint256 public immutable DSLAburnRate;\n\n    /// @dev PeriodRegistry period type of the SLA contract\n    PeriodRegistry.PeriodType private immutable periodType;\n\n    /// @dev boolean to declare if contract is whitelisted\n    bool public immutable whitelistedContract;\n    /// @dev (userAddress=bool) to declare whitelisted addresses\n    mapping(address => bool) public whitelist;\n\n    uint64 public immutable leverage;\n\n    modifier onlyAllowedToken(address _token) {\n        require(isAllowedToken(_token) == true, \"token is not allowed\");\n        _;\n    }\n\n    modifier onlyWhitelisted {\n        if (whitelistedContract == true) {\n            require(whitelist[msg.sender] == true, \"User is not whitelisted\");\n        }\n        _;\n    }\n\n    /**\n     * @dev event for provider reward log\n     * @param periodId 1. id of the period\n     * @param tokenAddress 2. address of the token\n     * @param rewardPercentage 3. reward percentage for the provider\n     * @param rewardPercentagePrecision 4. reward percentage for the provider\n     * @param rewardAmount 5. amount rewarded\n     */\n    event ProviderRewardGenerated(\n        uint256 indexed periodId,\n        address indexed tokenAddress,\n        uint256 rewardPercentage,\n        uint256 rewardPercentagePrecision,\n        uint256 rewardAmount\n    );\n\n    /**\n     *@param _slaRegistryAddress 1. period type of the SLA\n     *@param _periodType 3. period type of the SLA\n     *@param _whitelistedContract 5. enables the white list feature\n     *@param _slaID 6. identifies the SLA to uniquely to emit dTokens\n     */\n    constructor(\n        SLARegistry _slaRegistry,\n        PeriodRegistry.PeriodType _periodType,\n        bool _whitelistedContract,\n        uint128 _slaID,\n        uint64 _leverage\n    ) public {\n        stakeRegistry = _slaRegistry.stakeRegistry();\n        periodRegistry = _slaRegistry.periodRegistry();\n        periodType = _periodType;\n        whitelistedContract = _whitelistedContract;\n        (uint256 _DSLAburnRate, , , , , , , uint64 _maxLeverage) =\n            stakeRegistry.getStakingParameters();\n        dslaTokenAddress = stakeRegistry.DSLATokenAddress();\n        DSLAburnRate = _DSLAburnRate;\n        whitelist[owner()] = true;\n        slaID = _slaID;\n        require(\n            _leverage <= _maxLeverage && _leverage >= 1,\n            \"Incorrect leverage\"\n        );\n        leverage = _leverage;\n    }\n\n    function addUsersToWhitelist(address[] memory _userAddresses)\n        public\n        onlyOwner\n    {\n        for (uint256 index = 0; index < _userAddresses.length; index++) {\n            if (whitelist[_userAddresses[index]] == false) {\n                whitelist[_userAddresses[index]] = true;\n            }\n        }\n    }\n\n    function removeUsersFromWhitelist(address[] calldata _userAddresses)\n        external\n        onlyOwner\n    {\n        for (uint256 index = 0; index < _userAddresses.length; index++) {\n            if (whitelist[_userAddresses[index]] == true) {\n                whitelist[_userAddresses[index]] = false;\n            }\n        }\n    }\n\n    /**\n     *@dev add a token to ve allowed for staking\n     *@param _tokenAddress 1. address of the new allowed token\n     */\n    function addAllowedTokens(address _tokenAddress) external onlyOwner {\n        (, , , , , , uint256 maxTokenLength, ) =\n            stakeRegistry.getStakingParameters();\n        require(!isAllowedToken(_tokenAddress), \"Token already added\");\n        require(\n            stakeRegistry.isAllowedToken(_tokenAddress),\n            \"Token not allowed by the SLARegistry contract\"\n        );\n        allowedTokens.push(_tokenAddress);\n        require(\n            maxTokenLength >= allowedTokens.length,\n            \"Allowed tokens length greater than max token length\"\n        );\n        string memory dTokenID = StringUtils.uintToStr(slaID);\n        string memory duTokenName =\n            string(abi.encodePacked(\"DSLA-SHORT-\", dTokenID));\n        string memory duTokenSymbol =\n            string(abi.encodePacked(\"DSLA-SP-\", dTokenID));\n        string memory dpTokenName =\n            string(abi.encodePacked(\"DSLA-LONG-\", dTokenID));\n        string memory dpTokenSymbol =\n            string(abi.encodePacked(\"DSLA-LP-\", dTokenID));\n\n        ERC20PresetMinterPauser duToken =\n            ERC20PresetMinterPauser(\n                stakeRegistry.createDToken(duTokenName, duTokenSymbol)\n            );\n        ERC20PresetMinterPauser dpToken =\n            ERC20PresetMinterPauser(\n                stakeRegistry.createDToken(dpTokenName, dpTokenSymbol)\n            );\n\n        dpTokenRegistry[_tokenAddress] = dpToken;\n        duTokenRegistry[_tokenAddress] = duToken;\n    }\n\n    /**\n     *@dev increase the amount staked per token\n     *@param _amount 1. amount to be staked\n     *@param _tokenAddress 2. address of the token\n     *@notice providers can stake at any time\n     *@notice users can stake at any time but no more than provider pool\n     */\n    function _stake(uint256 _amount, address _tokenAddress)\n        internal\n        onlyAllowedToken(_tokenAddress)\n        onlyWhitelisted\n    {\n        ERC20(_tokenAddress).safeTransferFrom(\n            msg.sender,\n            address(this),\n            _amount\n        );\n        //duTokens\n        if (msg.sender != owner()) {\n            (uint256 providerStake, uint256 usersStake) =\n                (providerPool[_tokenAddress], usersPool[_tokenAddress]);\n            require(\n                usersStake.add(_amount).mul(leverage) <= providerStake,\n                \"Cannot stake more than leveraged SLA provider stake\"\n            );\n            ERC20PresetMinterPauser duToken = duTokenRegistry[_tokenAddress];\n            uint256 p0 = duToken.totalSupply();\n\n            // if there's no minted tokens, then create 1-1 proportion\n            if (p0 == 0) {\n                duToken.mint(msg.sender, _amount);\n            } else {\n                uint256 t0 = usersPool[_tokenAddress];\n                // mint dTokens proportionally\n                uint256 mintedDUTokens = _amount.mul(p0).div(t0);\n                duToken.mint(msg.sender, mintedDUTokens);\n            }\n            usersPool[_tokenAddress] = usersPool[_tokenAddress].add(_amount);\n            //dpTokens\n        } else {\n            ERC20PresetMinterPauser dpToken = dpTokenRegistry[_tokenAddress];\n            uint256 p0 = dpToken.totalSupply();\n\n            if (p0 == 0) {\n                dpToken.mint(msg.sender, _amount);\n            } else {\n                uint256 t0 = providerPool[_tokenAddress];\n                // mint dTokens proportionally\n                uint256 mintedDPTokens = _amount.mul(p0).div(t0);\n                dpToken.mint(msg.sender, mintedDPTokens);\n            }\n\n            providerPool[_tokenAddress] = providerPool[_tokenAddress].add(\n                _amount\n            );\n        }\n\n        if (registeredStakers[msg.sender] == false) {\n            registeredStakers[msg.sender] = true;\n            stakers.push(msg.sender);\n        }\n    }\n\n    /**\n     *@dev sets the provider reward\n     *@notice it calculates the usersStake and calculates the provider reward from it.\n     * @param _periodId 1. id of the period\n     * @param _rewardPercentage to calculate the provider reward\n     * @param _precision used to avoid getting 0 after division in the SLA's registerSLI function\n     */\n    function _setRespectedPeriodReward(\n        uint256 _periodId,\n        uint256 _rewardPercentage,\n        uint256 _precision\n    ) internal {\n        for (uint256 index = 0; index < allowedTokens.length; index++) {\n            address tokenAddress = allowedTokens[index];\n            uint256 usersStake = usersPool[tokenAddress];\n            uint256 reward = usersStake.mul(_rewardPercentage).div(_precision);\n\n            usersPool[tokenAddress] = usersPool[tokenAddress].sub(reward);\n\n            providerPool[tokenAddress] = providerPool[tokenAddress].add(reward);\n\n            emit ProviderRewardGenerated(\n                _periodId,\n                tokenAddress,\n                _rewardPercentage,\n                _precision,\n                reward\n            );\n        }\n    }\n\n    /**\n     *@dev sets the users compensation pool\n     *@notice it calculates the usersStake and calculates the users compensation from it\n     */\n    function _setUsersCompensation() internal {\n        for (uint256 index = 0; index < allowedTokens.length; index++) {\n            address tokenAddress = allowedTokens[index];\n            uint256 usersStake = usersPool[tokenAddress];\n            uint256 compensation = usersStake.mul(leverage);\n            providerPool[tokenAddress] = providerPool[tokenAddress].sub(\n                compensation\n            );\n\n            usersPool[tokenAddress] = usersPool[tokenAddress].add(compensation);\n        }\n    }\n\n    /**\n     *@dev withdraw staked tokens. Only dpToken owners can withdraw,\n     *@param _amount 1. amount to be withdrawn\n     *@param _tokenAddress 2. address of the token\n     *@param _contractFinished 3. contract finished\n     */\n    function _withdrawProviderTokens(\n        uint256 _amount,\n        address _tokenAddress,\n        bool _contractFinished\n    ) internal onlyAllowedToken(_tokenAddress) {\n        uint256 providerStake = providerPool[_tokenAddress];\n        uint256 usersStake = usersPool[_tokenAddress];\n        if (!_contractFinished) {\n            require(\n                providerStake.sub(_amount) >= usersStake.mul(leverage),\n                \"Should not withdraw more than leveraged users stake\"\n            );\n        }\n        ERC20PresetMinterPauser dpToken = dpTokenRegistry[_tokenAddress];\n        uint256 p0 = dpToken.totalSupply();\n        uint256 t0 = providerPool[_tokenAddress];\n        // Burn duTokens in a way that it doesn't affect the PoolTokens/LPTokens average\n        // t0/p0 = (t0-_amount)/(p0-burnedDPTokens)\n        // burnedDPTokens = _amount*p0/t0\n        uint256 burnedDPTokens = _amount.mul(p0).div(t0);\n        dpToken.burnFrom(msg.sender, burnedDPTokens);\n        providerPool[_tokenAddress] = providerPool[_tokenAddress].sub(_amount);\n        ERC20(_tokenAddress).safeTransfer(msg.sender, _amount);\n    }\n\n    /**\n     *@dev withdraw staked tokens. Only duToken owners can withdraw,\n     *@param _amount 1. amount to be withdrawn\n     *@param _tokenAddress 2. address of the token\n     */\n    function _withdrawUserTokens(uint256 _amount, address _tokenAddress)\n        internal\n        onlyAllowedToken(_tokenAddress)\n    {\n        ERC20PresetMinterPauser duToken = duTokenRegistry[_tokenAddress];\n        uint256 p0 = duToken.totalSupply();\n        uint256 t0 = usersPool[_tokenAddress];\n        // Burn duTokens in a way that it doesn't affect the PoolTokens/LPTokens\n        // average for current period.\n        // t0/p0 = (t0-_amount)/(p0-burnedDUTokens)\n        // burnedDUTokens = _amount*p0/t0\n        uint256 burnedDUTokens = _amount.mul(p0).div(t0);\n        duToken.burnFrom(msg.sender, burnedDUTokens);\n        usersPool[_tokenAddress] = usersPool[_tokenAddress].sub(_amount);\n        ERC20(_tokenAddress).safeTransfer(msg.sender, _amount);\n    }\n\n    /**\n     *@dev use this function to evaluate the length of the allowed tokens length\n     *@return allowedTokens.length\n     */\n    function getAllowedTokensLength() external view returns (uint256) {\n        return allowedTokens.length;\n    }\n\n    function getTokenStake(address _staker, uint256 _allowedTokenIndex)\n        external\n        view\n        returns (address tokenAddress, uint256 stake)\n    {\n        address allowedTokenAddress = allowedTokens[_allowedTokenIndex];\n        if (_staker == owner()) {\n            return (allowedTokenAddress, providerPool[allowedTokenAddress]);\n        } else {\n            ERC20PresetMinterPauser dToken =\n                duTokenRegistry[allowedTokenAddress];\n            uint256 dTokenSupply = dToken.totalSupply();\n            if (dTokenSupply == 0) {\n                return (allowedTokenAddress, 0);\n            }\n            uint256 dTokenBalance = dToken.balanceOf(_staker);\n            return (\n                allowedTokenAddress,\n                usersPool[allowedTokenAddress].mul(dTokenBalance).div(\n                    dTokenSupply\n                )\n            );\n        }\n    }\n\n    /**\n     *@dev checks in the allowedTokens array if there's a token with _tokenAddress value\n     *@param _tokenAddress 1. token address to check exixtence\n     *@return true if _tokenAddress exists in the allowedTokens array\n     */\n    function isAllowedToken(address _tokenAddress) public view returns (bool) {\n        for (uint256 index = 0; index < allowedTokens.length; index++) {\n            if (allowedTokens[index] == _tokenAddress) {\n                return true;\n            }\n        }\n        return false;\n    }\n}\n",
  "sourcePath": "/Users/matiasbn/Desktop/stacktical/stacktical-dsla-contracts/contracts/Staking.sol",
  "compiler": {
    "name": "solc",
    "version": "0.6.6+commit.6c089d02.Emscripten.clang"
  },
  "schemaVersion": "3.3.3",
  "updatedAt": "2021-04-12T21:29:09.390Z",
  "networkType": "ethereum",
  "devdoc": {
    "methods": {
      "owner()": {
        "details": "Returns the address of the current owner."
      },
      "renounceOwnership()": {
        "details": "Leaves the contract without owner. It will not be possible to call `onlyOwner` functions anymore. Can only be called by the current owner.     * NOTE: Renouncing ownership will leave the contract without an owner, thereby removing any functionality that is only available to the owner."
      },
      "transferOwnership(address)": {
        "details": "Transfers ownership of the contract to a new account (`newOwner`). Can only be called by the current owner."
      }
    }
  },
  "userdoc": {
    "methods": {
      "addAllowedTokens(address)": {
        "notice": "dev add a token to ve allowed for staking param _tokenAddress 1. address of the new allowed token"
      },
      "constructor": "param _slaRegistryAddress 1. period type of the SLA param _periodType 3. period type of the SLA param _whitelistedContract 5. enables the white list feature param _slaID 6. identifies the SLA to uniquely to emit dTokens",
      "getAllowedTokensLength()": {
        "notice": "dev use this function to evaluate the length of the allowed tokens length return allowedTokens.length"
      },
      "isAllowedToken(address)": {
        "notice": "dev checks in the allowedTokens array if there's a token with _tokenAddress value param _tokenAddress 1. token address to check exixtence return true if _tokenAddress exists in the allowedTokens array"
      }
    }
  }
}