{
  "contractName": "Staking",
  "abi": [
    {
      "inputs": [
        {
          "internalType": "contract SLARegistry",
          "name": "_slaRegistryAddress",
          "type": "address"
        },
        {
          "internalType": "enum PeriodRegistry.PeriodType",
          "name": "_periodType",
          "type": "uint8"
        },
        {
          "internalType": "bool",
          "name": "_whitelistedContract",
          "type": "bool"
        },
        {
          "internalType": "uint128",
          "name": "_slaID",
          "type": "uint128"
        }
      ],
      "stateMutability": "nonpayable",
      "type": "constructor"
    },
    {
      "anonymous": false,
      "inputs": [
        {
          "indexed": true,
          "internalType": "address",
          "name": "previousOwner",
          "type": "address"
        },
        {
          "indexed": true,
          "internalType": "address",
          "name": "newOwner",
          "type": "address"
        }
      ],
      "name": "OwnershipTransferred",
      "type": "event"
    },
    {
      "anonymous": false,
      "inputs": [
        {
          "indexed": true,
          "internalType": "uint256",
          "name": "periodId",
          "type": "uint256"
        },
        {
          "indexed": true,
          "internalType": "address",
          "name": "tokenAddress",
          "type": "address"
        },
        {
          "indexed": false,
          "internalType": "uint256",
          "name": "rewardPercentage",
          "type": "uint256"
        },
        {
          "indexed": false,
          "internalType": "uint256",
          "name": "rewardPercentagePrecision",
          "type": "uint256"
        },
        {
          "indexed": false,
          "internalType": "uint256",
          "name": "rewardAmount",
          "type": "uint256"
        }
      ],
      "name": "ProviderRewardGenerated",
      "type": "event"
    },
    {
      "inputs": [],
      "name": "DSLAburnRate",
      "outputs": [
        {
          "internalType": "uint256",
          "name": "",
          "type": "uint256"
        }
      ],
      "stateMutability": "view",
      "type": "function"
    },
    {
      "inputs": [
        {
          "internalType": "uint256",
          "name": "",
          "type": "uint256"
        }
      ],
      "name": "allowedTokens",
      "outputs": [
        {
          "internalType": "address",
          "name": "",
          "type": "address"
        }
      ],
      "stateMutability": "view",
      "type": "function"
    },
    {
      "inputs": [
        {
          "internalType": "address",
          "name": "",
          "type": "address"
        }
      ],
      "name": "dpTokenRegistry",
      "outputs": [
        {
          "internalType": "contract ERC20PresetMinterPauser",
          "name": "",
          "type": "address"
        }
      ],
      "stateMutability": "view",
      "type": "function"
    },
    {
      "inputs": [],
      "name": "dslaTokenAddress",
      "outputs": [
        {
          "internalType": "address",
          "name": "",
          "type": "address"
        }
      ],
      "stateMutability": "view",
      "type": "function"
    },
    {
      "inputs": [
        {
          "internalType": "address",
          "name": "",
          "type": "address"
        }
      ],
      "name": "duTokenRegistry",
      "outputs": [
        {
          "internalType": "contract ERC20PresetMinterPauser",
          "name": "",
          "type": "address"
        }
      ],
      "stateMutability": "view",
      "type": "function"
    },
    {
      "inputs": [],
      "name": "owner",
      "outputs": [
        {
          "internalType": "address",
          "name": "",
          "type": "address"
        }
      ],
      "stateMutability": "view",
      "type": "function"
    },
    {
      "inputs": [
        {
          "internalType": "address",
          "name": "",
          "type": "address"
        }
      ],
      "name": "providerPool",
      "outputs": [
        {
          "internalType": "uint256",
          "name": "",
          "type": "uint256"
        }
      ],
      "stateMutability": "view",
      "type": "function"
    },
    {
      "inputs": [],
      "name": "renounceOwnership",
      "outputs": [],
      "stateMutability": "nonpayable",
      "type": "function"
    },
    {
      "inputs": [],
      "name": "slaID",
      "outputs": [
        {
          "internalType": "uint128",
          "name": "",
          "type": "uint128"
        }
      ],
      "stateMutability": "view",
      "type": "function"
    },
    {
      "inputs": [
        {
          "internalType": "uint256",
          "name": "",
          "type": "uint256"
        }
      ],
      "name": "stakers",
      "outputs": [
        {
          "internalType": "address",
          "name": "",
          "type": "address"
        }
      ],
      "stateMutability": "view",
      "type": "function"
    },
    {
      "inputs": [
        {
          "internalType": "address",
          "name": "newOwner",
          "type": "address"
        }
      ],
      "name": "transferOwnership",
      "outputs": [],
      "stateMutability": "nonpayable",
      "type": "function"
    },
    {
      "inputs": [
        {
          "internalType": "address",
          "name": "",
          "type": "address"
        }
      ],
      "name": "usersPool",
      "outputs": [
        {
          "internalType": "uint256",
          "name": "",
          "type": "uint256"
        }
      ],
      "stateMutability": "view",
      "type": "function"
    },
    {
      "inputs": [
        {
          "internalType": "address",
          "name": "",
          "type": "address"
        }
      ],
      "name": "whitelist",
      "outputs": [
        {
          "internalType": "bool",
          "name": "",
          "type": "bool"
        }
      ],
      "stateMutability": "view",
      "type": "function"
    },
    {
      "inputs": [],
      "name": "whitelistedContract",
      "outputs": [
        {
          "internalType": "bool",
          "name": "",
          "type": "bool"
        }
      ],
      "stateMutability": "view",
      "type": "function"
    },
    {
      "inputs": [
        {
          "internalType": "address",
          "name": "_userAddress",
          "type": "address"
        }
      ],
      "name": "addUserToWhitelist",
      "outputs": [],
      "stateMutability": "nonpayable",
      "type": "function"
    },
    {
      "inputs": [
        {
          "internalType": "address[]",
          "name": "_userAddresses",
          "type": "address[]"
        }
      ],
      "name": "addMultipleUsersToWhitelist",
      "outputs": [],
      "stateMutability": "nonpayable",
      "type": "function"
    },
    {
      "inputs": [
        {
          "internalType": "address",
          "name": "_userAddress",
          "type": "address"
        }
      ],
      "name": "removeUserFromWhitelist",
      "outputs": [],
      "stateMutability": "nonpayable",
      "type": "function"
    },
    {
      "inputs": [
        {
          "internalType": "address[]",
          "name": "_userAddresses",
          "type": "address[]"
        }
      ],
      "name": "removeMultipleUsersFromWhitelist",
      "outputs": [],
      "stateMutability": "nonpayable",
      "type": "function"
    },
    {
      "inputs": [
        {
          "internalType": "address",
          "name": "_tokenAddress",
          "type": "address"
        }
      ],
      "name": "addAllowedTokens",
      "outputs": [],
      "stateMutability": "nonpayable",
      "type": "function"
    },
    {
      "inputs": [
        {
          "internalType": "address",
          "name": "_staker",
          "type": "address"
        }
      ],
      "name": "isStaker",
      "outputs": [
        {
          "internalType": "bool",
          "name": "",
          "type": "bool"
        }
      ],
      "stateMutability": "view",
      "type": "function"
    },
    {
      "inputs": [],
      "name": "getAllowedTokensLength",
      "outputs": [
        {
          "internalType": "uint256",
          "name": "",
          "type": "uint256"
        }
      ],
      "stateMutability": "view",
      "type": "function"
    },
    {
      "inputs": [
        {
          "internalType": "address",
          "name": "_staker",
          "type": "address"
        },
        {
          "internalType": "uint256",
          "name": "_allowedTokenIndex",
          "type": "uint256"
        }
      ],
      "name": "getTokenStake",
      "outputs": [
        {
          "internalType": "address",
          "name": "tokenAddress",
          "type": "address"
        },
        {
          "internalType": "uint256",
          "name": "stake",
          "type": "uint256"
        }
      ],
      "stateMutability": "view",
      "type": "function"
    },
    {
      "inputs": [
        {
          "internalType": "address",
          "name": "_tokenAddress",
          "type": "address"
        }
      ],
      "name": "isAllowedToken",
      "outputs": [
        {
          "internalType": "bool",
          "name": "",
          "type": "bool"
        }
      ],
      "stateMutability": "view",
      "type": "function"
    }
  ],
  "bytecode": "0x60806040523480156200001157600080fd5b5060405162001e9238038062001e92833981810160405260808110156200003757600080fd5b50805160208201516040830151606090930151919290916000620000636001600160e01b036200033016565b600080546001600160a01b0319166001600160a01b0383169081178255604051929350917f8be0079c531659141344cd1fd0a4f28419497f9722a3daafe3b4186f6b6457e0908290a350836001600160a01b031663683048356040518163ffffffff1660e01b815260040160206040518083038186803b158015620000e757600080fd5b505afa158015620000fc573d6000803e3d6000fd5b505050506040513d60208110156200011357600080fd5b5051600180546001600160a01b0319166001600160a01b0392831617905560408051639fc4caa560e01b8152905191861691639fc4caa591600480820192602092909190829003018186803b1580156200016c57600080fd5b505afa15801562000181573d6000803e3d6000fd5b505050506040513d60208110156200019857600080fd5b5051600280546001600160a01b0319166001600160a01b03909216919091179055600c805484919060ff19166001836005811115620001d357fe5b0217905550600c805461ff0019166101008415150217905560015460408051637b8041cf60e11b815290516000926001600160a01b03169163f700839e9160048083019260c0929190829003018186803b1580156200023157600080fd5b505afa15801562000246573d6000803e3d6000fd5b505050506040513d60c08110156200025d57600080fd5b505160015460408051638b8e530960e01b815290519293506001600160a01b0390911691638b8e530991600480820192602092909190829003018186803b158015620002a857600080fd5b505afa158015620002bd573d6000803e3d6000fd5b505050506040513d6020811015620002d457600080fd5b5051600980546001600160a01b0319166001600160a01b03909216919091179055600b819055620003053362000334565b50600380546001600160801b0319166001600160801b0392909216919091179055506200043d915050565b3390565b620003476001600160e01b036200033016565b6000546001600160a01b03908116911614620003aa576040805162461bcd60e51b815260206004820181905260248201527f4f776e61626c653a2063616c6c6572206973206e6f7420746865206f776e6572604482015290519081900360640190fd5b6001600160a01b0381166000908152600d602052604090205460ff161562000419576040805162461bcd60e51b815260206004820152601860248201527f5573657220616c72656164792077686974656c69737465640000000000000000604482015290519081900360640190fd5b6001600160a01b03166000908152600d60205260409020805460ff19166001179055565b611a45806200044d6000396000f3fe608060405234801561001057600080fd5b506004361061014d5760003560e01c8063740882ac116100c3578063cbe230c31161007c578063cbe230c31461049c578063f2db10fe146104c2578063f2fde38b146104e6578063f7e9dfff1461050c578063f9902bb114610514578063fd5e6dd11461053a5761014d565b8063740882ac146102fe578063747b80501461039f5780638da5cb5b146103c55780639b19251a146103cd578063b7bc347e146103f3578063c26ff615146103fb5761014d565b806357ac94f01161011557806357ac94f0146102365780635c1c20de146102855780635e5f2e261461028d578063639b6fc3146102aa5780636f1e8533146102d0578063715018a6146102f65761014d565b8063171e44ea1461015257806318e454271461017a578063484fbf2b146101965780634e0c91f6146101ce5780634fb2647e14610210575b600080fd5b6101786004803603602081101561016857600080fd5b50356001600160a01b0316610557565b005b610182610e74565b604080519115158252519081900360200190f35b6101bc600480360360208110156101ac57600080fd5b50356001600160a01b0316610e82565b60408051918252519081900360200190f35b6101f4600480360360208110156101e457600080fd5b50356001600160a01b0316610e94565b604080516001600160a01b039092168252519081900360200190f35b6101f46004803603602081101561022657600080fd5b50356001600160a01b0316610eaf565b6102626004803603604081101561024c57600080fd5b506001600160a01b038135169060200135610eca565b604080516001600160a01b03909316835260208301919091528051918290030190f35b6101bc6110bb565b6101f4600480360360208110156102a357600080fd5b50356110c1565b6101bc600480360360208110156102c057600080fd5b50356001600160a01b03166110e8565b610182600480360360208110156102e657600080fd5b50356001600160a01b03166110fa565b610178611157565b6101786004803603602081101561031457600080fd5b810190602081018135600160201b81111561032e57600080fd5b82018360208201111561034057600080fd5b803590602001918460208302840111600160201b8311171561036157600080fd5b9190808060200260200160405190810160405280939291908181526020018383602002808284376000920191909152509295506111f9945050505050565b610178600480360360208110156103b557600080fd5b50356001600160a01b03166112f6565b6101f46113db565b610182600480360360208110156103e357600080fd5b50356001600160a01b03166113ea565b6101bc6113ff565b6101786004803603602081101561041157600080fd5b810190602081018135600160201b81111561042b57600080fd5b82018360208201111561043d57600080fd5b803590602001918460208302840111600160201b8311171561045e57600080fd5b919080806020026020016040519081016040528093929190818152602001838360200280828437600092019190915250929550611405945050505050565b610182600480360360208110156104b257600080fd5b50356001600160a01b0316611504565b6104ca611556565b604080516001600160801b039092168252519081900360200190f35b610178600480360360208110156104fc57600080fd5b50356001600160a01b0316611565565b6101f461165d565b6101786004803603602081101561052a57600080fd5b50356001600160a01b031661166c565b6101f46004803603602081101561055057600080fd5b503561174e565b61055f61175b565b6000546001600160a01b039081169116146105af576040805162461bcd60e51b815260206004820181905260248201526000805160206119f0833981519152604482015290519081900360640190fd5b6105b881611504565b15610600576040805162461bcd60e51b8152602060048201526013602482015272151bdad95b88185b1c9958591e481859191959606a1b604482015290519081900360640190fd5b6001546040805163cbe230c360e01b81526001600160a01b0384811660048301529151919092169163cbe230c3916024808301926020929190829003018186803b15801561064d57600080fd5b505afa158015610661573d6000803e3d6000fd5b505050506040513d602081101561067757600080fd5b505115156001146106b95760405162461bcd60e51b815260040180806020018281038252602d8152602001806119a2602d913960400191505060405180910390fd5b600a80546001810182556000919091527fc65a7bb8d6351c1cf70c95a316cc6a92839c986682d98bc35f958f4883f9d2a80180546001600160a01b0319166001600160a01b03831617905560035460609061071c906001600160801b031661175f565b90506060826001600160a01b03166395d89b416040518163ffffffff1660e01b815260040160006040518083038186803b15801561075957600080fd5b505afa15801561076d573d6000803e3d6000fd5b505050506040513d6000823e601f3d908101601f19168201604052602081101561079657600080fd5b8101908080516040519392919084600160201b8211156107b557600080fd5b9083019060208201858111156107ca57600080fd5b8251600160201b8111828201881017156107e357600080fd5b82525081516020918201929091019080838360005b838110156108105781810151838201526020016107f8565b50505050905090810190601f16801561083d5780820380516001836020036101000a031916815260200191505b5060405250505090506060818360405160200180806944534c412d555345522d60b01b815250600a0183805190602001908083835b602083106108915780518252601f199092019160209182019101610872565b6001836020036101000a03801982511681845116808217855250505050505090500180602d60f81b81525060010182805190602001908083835b602083106108ea5780518252601f1990920191602091820191016108cb565b6001836020036101000a03801982511681845116808217855250505050505090500192505050604051602081830303815290604052905060608284604051602001808061647560f01b81525060020183805190602001908083835b602083106109645780518252601f199092019160209182019101610945565b6001836020036101000a03801982511681845116808217855250505050505090500180602d60f81b81525060010182805190602001908083835b602083106109bd5780518252601f19909201916020918201910161099e565b6001836020036101000a0380198251168184511680821785525050505050509050019250505060405160208183030381529060405290506060838560405160200180806d44534c412d50524f56494445522d60901b815250600e0183805190602001908083835b60208310610a435780518252601f199092019160209182019101610a24565b6001836020036101000a03801982511681845116808217855250505050505090500180602d60f81b81525060010182805190602001908083835b60208310610a9c5780518252601f199092019160209182019101610a7d565b6001836020036101000a03801982511681845116808217855250505050505090500192505050604051602081830303815290604052905060608486604051602001808061064760f41b81525060020183805190602001908083835b60208310610b165780518252601f199092019160209182019101610af7565b6001836020036101000a03801982511681845116808217855250505050505090500180602d60f81b81525060010182805190602001908083835b60208310610b6f5780518252601f199092019160209182019101610b50565b51815160209384036101000a60001901801990921691161790526040805192909401828103601f19018352808552600154633350214760e11b8252600482019586528c5160448301528c51939950600098506001600160a01b031696506366a0428e95508b948b9450928392602483019260640191908701908083838d5b83811015610c05578181015183820152602001610bed565b50505050905090810190601f168015610c325780820380516001836020036101000a031916815260200191505b50838103825284518152845160209182019186019080838360005b83811015610c65578181015183820152602001610c4d565b50505050905090810190601f168015610c925780820380516001836020036101000a031916815260200191505b50945050505050602060405180830381600087803b158015610cb357600080fd5b505af1158015610cc7573d6000803e3d6000fd5b505050506040513d6020811015610cdd57600080fd5b505160015460408051633350214760e11b8152600481019182528651604482015286519394506000936001600160a01b03909316926366a0428e92889288928291602481019160649091019060208701908083838d5b83811015610d4b578181015183820152602001610d33565b50505050905090810190601f168015610d785780820380516001836020036101000a031916815260200191505b50838103825284518152845160209182019186019080838360005b83811015610dab578181015183820152602001610d93565b50505050905090810190601f168015610dd85780820380516001836020036101000a031916815260200191505b50945050505050602060405180830381600087803b158015610df957600080fd5b505af1158015610e0d573d6000803e3d6000fd5b505050506040513d6020811015610e2357600080fd5b50516001600160a01b03998a1660009081526007602090815260408083208054948e166001600160a01b031995861617905560069091529020805493909a1692169190911790975550505050505050565b600c54610100900460ff1681565b60056020526000908152604090205481565b6006602052600090815260409020546001600160a01b031681565b6007602052600090815260409020546001600160a01b031681565b6000806000600a8481548110610edc57fe5b6000918252602090912001546001600160a01b03169050610efb6113db565b6001600160a01b0316856001600160a01b03161415610f37576001600160a01b03811660009081526004602052604090205490925090506110b4565b6001600160a01b0380821660009081526006602090815260408083205481516318160ddd60e01b8152915194169384926318160ddd9260048082019391829003018186803b158015610f8857600080fd5b505afa158015610f9c573d6000803e3d6000fd5b505050506040513d6020811015610fb257600080fd5b5051905080610fca5750909250600091506110b49050565b6000826001600160a01b03166370a08231896040518263ffffffff1660e01b815260040180826001600160a01b03166001600160a01b0316815260200191505060206040518083038186803b15801561102257600080fd5b505afa158015611036573d6000803e3d6000fd5b505050506040513d602081101561104c57600080fd5b50519050612710600061107584611069858563ffffffff61183a16565b9063ffffffff61189c16565b6001600160a01b03871660009081526005602052604090205490915086906110a9908490611069908563ffffffff61183a16565b975097505050505050505b9250929050565b600b5481565b600a81815481106110ce57fe5b6000918252602090912001546001600160a01b0316905081565b60046020526000908152604090205481565b6000805b60085481101561114c57826001600160a01b03166008828154811061111f57fe5b6000918252602090912001546001600160a01b03161415611144576001915050611152565b6001016110fe565b50600090505b919050565b61115f61175b565b6000546001600160a01b039081169116146111af576040805162461bcd60e51b815260206004820181905260248201526000805160206119f0833981519152604482015290519081900360640190fd5b600080546040516001600160a01b03909116907f8be0079c531659141344cd1fd0a4f28419497f9722a3daafe3b4186f6b6457e0908390a3600080546001600160a01b0319169055565b61120161175b565b6000546001600160a01b03908116911614611251576040805162461bcd60e51b815260206004820181905260248201526000805160206119f0833981519152604482015290519081900360640190fd5b60005b81518110156112f257600d600083838151811061126d57fe5b6020908102919091018101516001600160a01b031682528101919091526040016000205460ff166112ea576001600d60008484815181106112aa57fe5b60200260200101516001600160a01b03166001600160a01b0316815260200190815260200160002060006101000a81548160ff0219169083151502179055505b600101611254565b5050565b6112fe61175b565b6000546001600160a01b0390811691161461134e576040805162461bcd60e51b815260206004820181905260248201526000805160206119f0833981519152604482015290519081900360640190fd5b6001600160a01b0381166000908152600d602052604090205460ff16156113b7576040805162461bcd60e51b8152602060048201526018602482015277155cd95c88185b1c9958591e481dda1a5d195b1a5cdd195960421b604482015290519081900360640190fd5b6001600160a01b03166000908152600d60205260409020805460ff19166001179055565b6000546001600160a01b031690565b600d6020526000908152604090205460ff1681565b600a5490565b61140d61175b565b6000546001600160a01b0390811691161461145d576040805162461bcd60e51b815260206004820181905260248201526000805160206119f0833981519152604482015290519081900360640190fd5b60005b81518110156112f257600d600083838151811061147957fe5b6020908102919091018101516001600160a01b031682528101919091526040016000205460ff161515600114156114fc576000600d60008484815181106114bc57fe5b60200260200101516001600160a01b03166001600160a01b0316815260200190815260200160002060006101000a81548160ff0219169083151502179055505b600101611460565b6000805b600a5481101561114c57826001600160a01b0316600a828154811061152957fe5b6000918252602090912001546001600160a01b0316141561154e576001915050611152565b600101611508565b6003546001600160801b031681565b61156d61175b565b6000546001600160a01b039081169116146115bd576040805162461bcd60e51b815260206004820181905260248201526000805160206119f0833981519152604482015290519081900360640190fd5b6001600160a01b0381166116025760405162461bcd60e51b815260040180806020018281038252602681526020018061197c6026913960400191505060405180910390fd5b600080546040516001600160a01b03808516939216917f8be0079c531659141344cd1fd0a4f28419497f9722a3daafe3b4186f6b6457e091a3600080546001600160a01b0319166001600160a01b0392909216919091179055565b6009546001600160a01b031681565b61167461175b565b6000546001600160a01b039081169116146116c4576040805162461bcd60e51b815260206004820181905260248201526000805160206119f0833981519152604482015290519081900360640190fd5b6001600160a01b0381166000908152600d602052604090205460ff16151560011461172d576040805162461bcd60e51b8152602060048201526014602482015273155cd95c881b9bdd081dda1a5d195b1a5cdd195960621b604482015290519081900360640190fd5b6001600160a01b03166000908152600d60205260409020805460ff19169055565b600881815481106110ce57fe5b3390565b606081806117865750506040805180820190915260018152600360fc1b6020820152611152565b8060005b811561179e57600101600a8204915061178a565b60608167ffffffffffffffff811180156117b757600080fd5b506040519080825280601f01601f1916602001820160405280156117e2576020820181803683370190505b50905060001982015b841561183057600a850660300160f81b8282806001900393508151811061180e57fe5b60200101906001600160f81b031916908160001a905350600a850494506117eb565b5095945050505050565b60008261184957506000611896565b8282028284828161185657fe5b04146118935760405162461bcd60e51b81526004018080602001828103825260218152602001806119cf6021913960400191505060405180910390fd5b90505b92915050565b600061189383836040518060400160405280601a81526020017f536166654d6174683a206469766973696f6e206279207a65726f000000000000815250600081836119655760405162461bcd60e51b81526004018080602001828103825283818151815260200191508051906020019080838360005b8381101561192a578181015183820152602001611912565b50505050905090810190601f1680156119575780820380516001836020036101000a031916815260200191505b509250505060405180910390fd5b50600083858161197157fe5b049594505050505056fe4f776e61626c653a206e6577206f776e657220697320746865207a65726f2061646472657373546f6b656e206e6f7420616c6c6f7765642062792074686520534c41526567697374727920636f6e7472616374536166654d6174683a206d756c7469706c69636174696f6e206f766572666c6f774f776e61626c653a2063616c6c6572206973206e6f7420746865206f776e6572a2646970667358221220a169c58734d59c56cf30a8dd5abcb7f57bb5aa19845bf02a82226e3aa455a99364736f6c63430006060033",
  "immutableReferences": {},
  "source": "// SPDX-License-Identifier: MIT\npragma solidity 0.6.6;\n\nimport \"@openzeppelin/contracts/token/ERC20/ERC20.sol\";\nimport \"@openzeppelin/contracts/token/ERC20/SafeERC20.sol\";\nimport \"@openzeppelin/contracts/presets/ERC20PresetMinterPauser.sol\";\nimport \"@openzeppelin/contracts/access/Ownable.sol\";\nimport \"@openzeppelin/contracts/math/SafeMath.sol\";\nimport \"./StakeRegistry.sol\";\nimport \"./PeriodRegistry.sol\";\n\ncontract Staking is Ownable {\n    using SafeMath for uint256;\n    using SafeERC20 for ERC20;\n\n    /// @dev StakeRegistry contract\n    StakeRegistry private stakeRegistry;\n    /// @dev SLARegistry contract\n    PeriodRegistry private periodRegistry;\n    /// @dev current SLA id\n    uint128 public slaID;\n\n    /// @dev (tokenAddress=>uint256) total pooled token balance\n    mapping(address => uint256) public providerPool;\n    /// @dev (tokenAddress=>uint256) total pooled token balance\n    mapping(address => uint256) public usersPool;\n\n    ///@dev (tokenAddress=>dTokenAddress) to keep track of dToken for users\n    mapping(address => ERC20PresetMinterPauser) public duTokenRegistry;\n    ///@dev (tokenAddress=>dTokenAddress) to keep track of dToken for provider\n    mapping(address => ERC20PresetMinterPauser) public dpTokenRegistry;\n\n    /// @dev address[] of the stakers of the SLA contract\n    address[] public stakers;\n    /// @dev DSLA token address to burn fees\n    address public dslaTokenAddress;\n    /// @dev array with the allowed tokens addresses for the current SLA\n    address[] public allowedTokens;\n\n    /// @dev corresponds to the burn rate of DSLA tokens, but divided by 1000 i.e burn percentage = burnRate/1000 %\n    uint256 public DSLAburnRate;\n\n    /// @dev PeriodRegistry period type of the SLA contract\n    PeriodRegistry.PeriodType private periodType;\n\n    /// @dev boolean to declare if contract is whitelisted\n    bool public whitelistedContract;\n    /// @dev (userAddress=bool) to declare whitelisted addresses\n    mapping(address => bool) public whitelist;\n\n    modifier notOwner {\n        require(msg.sender != owner(), \"Should not be called by the SLA owner\");\n        _;\n    }\n\n    modifier onlyAllowedToken(address _token) {\n        require(isAllowedToken(_token) == true, \"token is not allowed\");\n        _;\n    }\n\n    modifier onlyWhitelisted {\n        if (whitelistedContract == true) {\n            require(whitelist[msg.sender] == true, \"User is not whitelisted\");\n        }\n        _;\n    }\n\n    /**\n     * @dev event for provider reward log\n     * @param periodId 1. id of the period\n     * @param tokenAddress 2. address of the token\n     * @param rewardPercentage 3. reward percentage for the provider\n     * @param rewardPercentagePrecision 4. reward percentage for the provider\n     * @param rewardAmount 5. amount rewarded\n     */\n    event ProviderRewardGenerated(\n        uint256 indexed periodId,\n        address indexed tokenAddress,\n        uint256 rewardPercentage,\n        uint256 rewardPercentagePrecision,\n        uint256 rewardAmount\n    );\n\n    /**\n     *@param _periodType 3. period type of the SLA\n     *@param _whitelistedContract 5. enables the white list feature\n     *@param _slaID 6. identifies the SLA to uniquely to emit dTokens\n     */\n    constructor(\n        SLARegistry _slaRegistryAddress,\n        PeriodRegistry.PeriodType _periodType,\n        bool _whitelistedContract,\n        uint128 _slaID\n    ) public {\n        stakeRegistry = _slaRegistryAddress.stakeRegistry();\n        periodRegistry = _slaRegistryAddress.periodRegistry();\n        periodType = _periodType;\n        whitelistedContract = _whitelistedContract;\n        (uint256 _DSLAburnRate, , , , , ) =\n            stakeRegistry.getStakingParameters();\n        dslaTokenAddress = stakeRegistry.DSLATokenAddress();\n        DSLAburnRate = _DSLAburnRate;\n        addUserToWhitelist(msg.sender);\n        slaID = _slaID;\n    }\n\n    function addUserToWhitelist(address _userAddress) public onlyOwner {\n        require(whitelist[_userAddress] == false, \"User already whitelisted\");\n        whitelist[_userAddress] = true;\n    }\n\n    function addMultipleUsersToWhitelist(address[] memory _userAddresses)\n        public\n        onlyOwner\n    {\n        for (uint256 index = 0; index < _userAddresses.length; index++) {\n            if (whitelist[_userAddresses[index]] == false) {\n                whitelist[_userAddresses[index]] = true;\n            }\n        }\n    }\n\n    function removeUserFromWhitelist(address _userAddress) public onlyOwner {\n        require(whitelist[_userAddress] == true, \"User not whitelisted\");\n        whitelist[_userAddress] = false;\n    }\n\n    function removeMultipleUsersFromWhitelist(address[] memory _userAddresses)\n        public\n        onlyOwner\n    {\n        for (uint256 index = 0; index < _userAddresses.length; index++) {\n            if (whitelist[_userAddresses[index]] == true) {\n                whitelist[_userAddresses[index]] = false;\n            }\n        }\n    }\n\n    /**\n     *@dev add a token to ve allowed for staking\n     *@param _tokenAddress 1. address of the new allowed token\n     */\n    function addAllowedTokens(address _tokenAddress) public onlyOwner {\n        require(isAllowedToken(_tokenAddress) == false, \"Token already added\");\n        require(\n            stakeRegistry.isAllowedToken(_tokenAddress) == true,\n            \"Token not allowed by the SLARegistry contract\"\n        );\n        allowedTokens.push(_tokenAddress);\n        string memory dTokenID = _uintToStr(slaID);\n        string memory symbol = ERC20(_tokenAddress).symbol();\n        string memory duTokenName =\n            string(abi.encodePacked(\"DSLA-USER-\", symbol, \"-\", dTokenID));\n        string memory duTokenSymbol =\n            string(abi.encodePacked(\"du\", symbol, \"-\", dTokenID));\n        string memory dpTokenName =\n            string(abi.encodePacked(\"DSLA-PROVIDER-\", symbol, \"-\", dTokenID));\n        string memory dpTokenSymbol =\n            string(abi.encodePacked(\"dp\", symbol, \"-\", dTokenID));\n\n        ERC20PresetMinterPauser duToken =\n            ERC20PresetMinterPauser(\n                stakeRegistry.createDToken(duTokenName, duTokenSymbol)\n            );\n        ERC20PresetMinterPauser dpToken =\n            ERC20PresetMinterPauser(\n                stakeRegistry.createDToken(dpTokenName, dpTokenSymbol)\n            );\n\n        dpTokenRegistry[_tokenAddress] = dpToken;\n        duTokenRegistry[_tokenAddress] = duToken;\n    }\n\n    /**\n     *@dev increase the amount staked per token\n     *@param _amount 1. amount to be staked\n     *@param _tokenAddress 2. address of the token\n     *@notice providers can stake at any time\n     *@notice users can stake at any time but no more than provider pool\n     */\n    function _stake(uint256 _amount, address _tokenAddress)\n        internal\n        onlyAllowedToken(_tokenAddress)\n        onlyWhitelisted\n    {\n        ERC20(_tokenAddress).safeTransferFrom(\n            msg.sender,\n            address(this),\n            _amount\n        );\n        //duTokens\n        if (msg.sender != owner()) {\n            (uint256 providerStake, uint256 usersStake) =\n                (providerPool[_tokenAddress], usersPool[_tokenAddress]);\n            require(\n                usersStake.add(_amount) <= providerStake,\n                \"Cannot stake more than SLA provider stake\"\n            );\n            ERC20PresetMinterPauser duToken = duTokenRegistry[_tokenAddress];\n            uint256 p0 = duToken.totalSupply();\n\n            // if there's no minted tokens, then create 1-1 proportion\n            if (p0 == 0) {\n                duToken.mint(msg.sender, _amount);\n            } else {\n                uint256 t0 = usersPool[_tokenAddress];\n                // mint dTokens proportionally\n                uint256 mintedDUTokens = _amount.mul(p0).div(t0);\n                duToken.mint(msg.sender, mintedDUTokens);\n            }\n            usersPool[_tokenAddress] = usersPool[_tokenAddress].add(_amount);\n            //dpTokens\n        } else {\n            ERC20PresetMinterPauser dpToken = dpTokenRegistry[_tokenAddress];\n            uint256 p0 = dpToken.totalSupply();\n\n            if (p0 == 0) {\n                dpToken.mint(msg.sender, _amount);\n            } else {\n                uint256 t0 = providerPool[_tokenAddress];\n                // mint dTokens proportionally\n                uint256 mintedDPTokens = _amount.mul(p0).div(t0);\n                dpToken.mint(msg.sender, mintedDPTokens);\n            }\n\n            providerPool[_tokenAddress] = providerPool[_tokenAddress].add(\n                _amount\n            );\n        }\n\n        if (!isStaker(msg.sender)) {\n            stakers.push(msg.sender);\n        }\n    }\n\n    /**\n     *@dev sets the provider reward\n     *@notice it calculates the usersStake and calculates the provider reward from it.\n     * @param _periodId 1. id of the period\n     * @param _rewardPercentage to calculate the provider reward\n     * @param _precision used to avoid getting 0 after division in the SLA's registerSLI function\n     */\n    function _setRespectedPeriodReward(\n        uint256 _periodId,\n        uint256 _rewardPercentage,\n        uint256 _precision\n    ) internal {\n        for (uint256 index = 0; index < allowedTokens.length; index++) {\n            address tokenAddress = allowedTokens[index];\n            uint256 usersStake = usersPool[tokenAddress];\n            uint256 reward = usersStake.mul(_rewardPercentage).div(_precision);\n\n            // Subtract before burn to match balances\n            usersPool[tokenAddress] = usersPool[tokenAddress].sub(reward);\n\n            if (tokenAddress == dslaTokenAddress) {\n                uint256 fees = _burnDSLATokens(reward);\n                reward = reward.sub(fees);\n            }\n\n            // Add after burn to match balances\n            providerPool[tokenAddress] = providerPool[tokenAddress].add(reward);\n\n            emit ProviderRewardGenerated(\n                _periodId,\n                tokenAddress,\n                _rewardPercentage,\n                _precision,\n                reward\n            );\n        }\n    }\n\n    /**\n     *@dev sets the users compensation pool\n     *@notice it calculates the usersStake and calculates the users compensation from it\n     */\n    function _setUsersCompensation() internal {\n        for (uint256 index = 0; index < allowedTokens.length; index++) {\n            address tokenAddress = allowedTokens[index];\n            uint256 usersStake = usersPool[tokenAddress];\n            uint256 compensation = usersStake;\n            // Subtract before burn to match balances\n            providerPool[tokenAddress] = providerPool[tokenAddress].sub(\n                compensation\n            );\n\n            if (tokenAddress == dslaTokenAddress) {\n                uint256 fees = _burnDSLATokens(compensation);\n                compensation = compensation.sub(fees);\n            }\n\n            // Add after burn to match balances\n            usersPool[tokenAddress] = usersPool[tokenAddress].add(compensation);\n        }\n    }\n\n    /**\n     *@dev withdraw staked tokens. Only dpToken owners can withdraw,\n     *@param _amount 1. amount to be withdrawn\n     *@param _tokenAddress 2. address of the token\n     *@param _contractFinished 3. contract finished\n     */\n    function _withdrawProviderTokens(\n        uint256 _amount,\n        address _tokenAddress,\n        bool _contractFinished\n    ) internal onlyAllowedToken(_tokenAddress) {\n        uint256 providerStake = providerPool[_tokenAddress];\n        uint256 usersStake = usersPool[_tokenAddress];\n        if (!_contractFinished) {\n            require(\n                providerStake.sub(_amount) >= usersStake,\n                \"Should not withdraw more than users stake\"\n            );\n        }\n        ERC20PresetMinterPauser dpToken = dpTokenRegistry[_tokenAddress];\n        uint256 p0 = dpToken.totalSupply();\n        uint256 t0 = providerPool[_tokenAddress];\n        // Burn duTokens in a way that it doesn't affect the PoolTokens/LPTokens average\n        // t0/p0 = (t0-_amount)/(p0-burnedDPTokens)\n        // burnedDPTokens = _amount*p0/t0\n        uint256 burnedDPTokens = _amount.mul(p0).div(t0);\n        dpToken.burnFrom(msg.sender, burnedDPTokens);\n        providerPool[_tokenAddress] = providerPool[_tokenAddress].sub(_amount);\n        ERC20(_tokenAddress).safeTransfer(msg.sender, _amount);\n    }\n\n    /**\n     *@dev withdraw staked tokens. Only duToken owners can withdraw,\n     *@param _amount 1. amount to be withdrawn\n     *@param _tokenAddress 2. address of the token\n     */\n    function _withdrawUserTokens(uint256 _amount, address _tokenAddress)\n        internal\n        onlyAllowedToken(_tokenAddress)\n    {\n        ERC20PresetMinterPauser duToken = duTokenRegistry[_tokenAddress];\n        uint256 p0 = duToken.totalSupply();\n        uint256 t0 = usersPool[_tokenAddress];\n        // Burn duTokens in a way that it doesn't affect the PoolTokens/LPTokens\n        // average for current period.\n        // t0/p0 = (t0-_amount)/(p0-burnedDUTokens)\n        // burnedDUTokens = _amount*p0/t0\n        uint256 burnedDUTokens = _amount.mul(p0).div(t0);\n        duToken.burnFrom(msg.sender, burnedDUTokens);\n        usersPool[_tokenAddress] = usersPool[_tokenAddress].sub(_amount);\n        ERC20(_tokenAddress).safeTransfer(msg.sender, _amount);\n    }\n\n    function _burnDSLATokens(uint256 _amount) internal returns (uint256 fees) {\n        bytes4 BURN_SELECTOR = bytes4(keccak256(bytes(\"burn(uint256)\")));\n        fees = _amount.mul(DSLAburnRate).div(1000);\n        (bool _success, ) =\n            dslaTokenAddress.call(abi.encodeWithSelector(BURN_SELECTOR, fees));\n        require(_success, \"DSLA burn process was not successful\");\n    }\n\n    /**\n     *@dev returns true if the _staker address is registered as staker\n     *@param _staker 1. staker address\n     *@return true if address is staker\n     */\n    // check loop\n    function isStaker(address _staker) public view returns (bool) {\n        for (uint256 index = 0; index < stakers.length; index++) {\n            if (stakers[index] == _staker) return true;\n        }\n        return false;\n    }\n\n    /**\n     *@dev use this function to evaluate the length of the allowed tokens length\n     *@return allowedTokens.length\n     */\n    function getAllowedTokensLength() public view returns (uint256) {\n        return allowedTokens.length;\n    }\n\n    function getTokenStake(address _staker, uint256 _allowedTokenIndex)\n        public\n        view\n        returns (address tokenAddress, uint256 stake)\n    {\n        address allowedTokenAddress = allowedTokens[_allowedTokenIndex];\n        if (_staker == owner()) {\n            return (allowedTokenAddress, providerPool[allowedTokenAddress]);\n        } else {\n            ERC20PresetMinterPauser dToken =\n                duTokenRegistry[allowedTokenAddress];\n            uint256 dTokenSupply = dToken.totalSupply();\n            if (dTokenSupply == 0) {\n                return (allowedTokenAddress, 0);\n            }\n            uint256 dTokenBalance = dToken.balanceOf(_staker);\n            uint256 precision = 10000;\n            uint256 userCompensationPercentage =\n                dTokenBalance.mul(precision).div(dTokenSupply);\n            return (\n                allowedTokenAddress,\n                usersPool[allowedTokenAddress]\n                    .mul(userCompensationPercentage)\n                    .div(precision)\n            );\n        }\n    }\n\n    /**\n     *@dev checks in the allowedTokens array if there's a token with _tokenAddress value\n     *@param _tokenAddress 1. token address to check exixtence\n     *@return true if _tokenAddress exists in the allowedTokens array\n     */\n    // check loop\n    function isAllowedToken(address _tokenAddress) public view returns (bool) {\n        for (uint256 index = 0; index < allowedTokens.length; index++) {\n            if (allowedTokens[index] == _tokenAddress) {\n                return true;\n            }\n        }\n        return false;\n    }\n\n    function _uintToStr(uint256 _i)\n        internal\n        pure\n        returns (string memory _uintAsString)\n    {\n        uint256 number = _i;\n        if (number == 0) {\n            return \"0\";\n        }\n        uint256 j = number;\n        uint256 len;\n        while (j != 0) {\n            len++;\n            j /= 10;\n        }\n        bytes memory bstr = new bytes(len);\n        uint256 k = len - 1;\n        while (number != 0) {\n            bstr[k--] = bytes1(uint8(48 + (number % 10)));\n            number /= 10;\n        }\n        return string(bstr);\n    }\n}\n",
  "sourcePath": "/Users/matiasbn/Desktop/stacktical/stacktical-dsla-contracts/contracts/Staking.sol",
  "compiler": {
    "name": "solc",
    "version": "0.6.6+commit.6c089d02.Emscripten.clang"
  },
  "schemaVersion": "3.3.3",
  "updatedAt": "2021-03-15T22:23:14.197Z",
  "devdoc": {
    "methods": {
      "owner()": {
        "details": "Returns the address of the current owner."
      },
      "renounceOwnership()": {
        "details": "Leaves the contract without owner. It will not be possible to call `onlyOwner` functions anymore. Can only be called by the current owner.     * NOTE: Renouncing ownership will leave the contract without an owner, thereby removing any functionality that is only available to the owner."
      },
      "transferOwnership(address)": {
        "details": "Transfers ownership of the contract to a new account (`newOwner`). Can only be called by the current owner."
      }
    }
  },
  "userdoc": {
    "methods": {
      "addAllowedTokens(address)": {
        "notice": "dev add a token to ve allowed for staking param _tokenAddress 1. address of the new allowed token"
      },
      "constructor": "param _periodType 3. period type of the SLA param _whitelistedContract 5. enables the white list feature param _slaID 6. identifies the SLA to uniquely to emit dTokens",
      "getAllowedTokensLength()": {
        "notice": "dev use this function to evaluate the length of the allowed tokens length return allowedTokens.length"
      },
      "isAllowedToken(address)": {
        "notice": "dev checks in the allowedTokens array if there's a token with _tokenAddress value param _tokenAddress 1. token address to check exixtence return true if _tokenAddress exists in the allowedTokens array"
      },
      "isStaker(address)": {
        "notice": "dev returns true if the _staker address is registered as staker param _staker 1. staker address return true if address is staker"
      }
    }
  }
}