{
  "contractName": "StringUtils",
  "abi": [
    {
      "inputs": [
        {
          "internalType": "address",
          "name": "_address",
          "type": "address"
        }
      ],
      "name": "addressToString",
      "outputs": [
        {
          "internalType": "string",
          "name": "",
          "type": "string"
        }
      ],
      "stateMutability": "pure",
      "type": "function",
      "constant": true
    },
    {
      "inputs": [
        {
          "internalType": "bytes32",
          "name": "_bytes32",
          "type": "bytes32"
        }
      ],
      "name": "bytes32ToStr",
      "outputs": [
        {
          "internalType": "string",
          "name": "",
          "type": "string"
        }
      ],
      "stateMutability": "pure",
      "type": "function",
      "constant": true
    },
    {
      "inputs": [
        {
          "internalType": "bytes",
          "name": "b",
          "type": "bytes"
        }
      ],
      "name": "bytesToUint",
      "outputs": [
        {
          "internalType": "uint256",
          "name": "result",
          "type": "uint256"
        }
      ],
      "stateMutability": "pure",
      "type": "function",
      "constant": true
    },
    {
      "inputs": [
        {
          "internalType": "uint256",
          "name": "_i",
          "type": "uint256"
        }
      ],
      "name": "uintToStr",
      "outputs": [
        {
          "internalType": "string",
          "name": "_uintAsString",
          "type": "string"
        }
      ],
      "stateMutability": "pure",
      "type": "function",
      "constant": true
    }
  ],
  "bytecode": "0x6105d9610026600b82828239805160001a60731461001957fe5b30600052607381538281f3fe73000000000000000000000000000000000000000030146080604052600436106100565760003560e01c806302d06d051461005b5780635e57966d146100dd578063ef0b236814610178578063fc966d4514610195575b600080fd5b6100cb6004803603602081101561007157600080fd5b81019060208101813564010000000081111561008c57600080fd5b82018360208201111561009e57600080fd5b803590602001918460018302840111640100000000831117156100c057600080fd5b5090925090506101b2565b60408051918252519081900360200190f35b610103600480360360208110156100f357600080fd5b50356001600160a01b031661023d565b6040805160208082528351818301528351919283929083019185019080838360005b8381101561013d578181015183820152602001610125565b50505050905090810190601f16801561016a5780820380516001836020036101000a031916815260200191505b509250505060405180910390f35b6101036004803603602081101561018e57600080fd5b50356103bb565b610103600480360360208110156101ab57600080fd5b50356104c8565b6000805b828110156102365760308484838181106101cc57fe5b919091013560f81c9190911080159150610202575060398484838181106101ef57fe5b9050013560f81c60f81b60f81c60ff1611155b1561022e57603084848381811061021557fe5b9050013560f81c60f81b60f81c0360ff1682600a020191505b6001016101b6565b5092915050565b604080518082018252601081526f181899199a1a9b1b9c1cb0b131b232b360811b60208201528151602a80825260608281019094526001600160a01b03851692918491602082018180368337019050509050600360fc1b816000815181106102a157fe5b60200101906001600160f81b031916908160001a905350600f60fb1b816001815181106102ca57fe5b60200101906001600160f81b031916908160001a90535060005b60148110156103b0578260048583600c01602081106102ff57fe5b1a60f81b6001600160f81b031916901c60f81c60ff168151811061031f57fe5b602001015160f81c60f81b82826002026002018151811061033c57fe5b60200101906001600160f81b031916908160001a905350828482600c016020811061036357fe5b825191901a600f1690811061037457fe5b602001015160f81c60f81b82826002026003018151811061039157fe5b60200101906001600160f81b031916908160001a9053506001016102e4565b50925050505b919050565b606060005b60208160ff161080156103ee5750828160ff16602081106103dd57fe5b1a60f81b6001600160f81b03191615155b156103fb576001016103c0565b60608160ff1667ffffffffffffffff8111801561041757600080fd5b506040519080825280601f01601f191660200182016040528015610442576020820181803683370190505b509050600091505b60208260ff161080156104785750838260ff166020811061046757fe5b1a60f81b6001600160f81b03191615155b156104c157838260ff166020811061048c57fe5b1a60f81b818360ff168151811061049f57fe5b60200101906001600160f81b031916908160001a90535060019091019061044a565b9392505050565b606081806104ef5750506040805180820190915260018152600360fc1b60208201526103b6565b8060005b811561050757600101600a820491506104f3565b60608167ffffffffffffffff8111801561052057600080fd5b506040519080825280601f01601f19166020018201604052801561054b576020820181803683370190505b50905060001982015b841561059957600a850660300160f81b8282806001900393508151811061057757fe5b60200101906001600160f81b031916908160001a905350600a85049450610554565b509594505050505056fea264697066735822122044ee8cb397ff7e7dd54c8959c8e7220b6d087c5c91c5897c8bc20cbf72439d6764736f6c63430006060033",
  "immutableReferences": {},
  "source": "// solhint-disable-line\npragma solidity 0.6.6;\n\nlibrary StringUtils {\n    function addressToString(address _address)\n        external\n        pure\n        returns (string memory)\n    {\n        bytes32 _bytes = bytes32(uint256(_address));\n        bytes memory HEX = \"0123456789abcdef\";\n        bytes memory _string = new bytes(42);\n        _string[0] = \"0\";\n        _string[1] = \"x\";\n        for (uint256 i = 0; i < 20; i++) {\n            _string[2 + i * 2] = HEX[uint8(_bytes[i + 12] >> 4)];\n            _string[3 + i * 2] = HEX[uint8(_bytes[i + 12] & 0x0f)];\n        }\n        return string(_string);\n    }\n\n    function bytes32ToStr(bytes32 _bytes32)\n        external\n        pure\n        returns (string memory)\n    {\n        uint8 i = 0;\n        while (i < 32 && _bytes32[i] != 0) {\n            i++;\n        }\n        bytes memory bytesArray = new bytes(i);\n        for (i = 0; i < 32 && _bytes32[i] != 0; i++) {\n            bytesArray[i] = _bytes32[i];\n        }\n        return string(bytesArray);\n    }\n\n    function bytesToUint(bytes calldata b)\n        external\n        pure\n        returns (uint256 result)\n    {\n        result = 0;\n        for (uint256 i = 0; i < b.length; i++) {\n            if (uint8(b[i]) >= 48 && uint8(b[i]) <= 57) {\n                result = result * 10 + (uint8(b[i]) - 48);\n            }\n        }\n        return result;\n    }\n\n    /*\n        ORACLIZE_API\n        Copyright (c) 2015-2016 Oraclize SRL\n        Copyright (c) 2016 Oraclize LTD\n        Permission is hereby granted, free of charge, to any person obtaining a copy\n        of this software and associated documentation files (the \"Software\"), to deal\n        in the Software without restriction, including without limitation the rights\n        to use, copy, modify, merge, publish, distribute, sublicense, and/or sell\n        copies of the Software, and to permit persons to whom the Software is\n        furnished to do so, subject to the following conditions:\n        The above copyright notice and this permission notice shall be included in\n        all copies or substantial portions of the Software.\n        THE SOFTWARE IS PROVIDED \"AS IS\", WITHOUT WARRANTY OF ANY KIND, EXPRESS OR\n        IMPLIED, INCLUDING BUT NOT LIMITED TO THE WARRANTIES OF MERCHANTABILITY,\n        FITNESS FOR A PARTICULAR PURPOSE AND NONINFRINGEMENT.  IN NO EVENT SHALL THE\n        AUTHORS OR COPYRIGHT HOLDERS BE LIABLE FOR ANY CLAIM, DAMAGES OR OTHER\n        LIABILITY, WHETHER IN AN ACTION OF CONTRACT, TORT OR OTHERWISE, ARISING FROM,\n        OUT OF OR IN CONNECTION WITH THE SOFTWARE OR THE USE OR OTHER DEALINGS IN\n        THE SOFTWARE.\n    */\n    function uintToStr(uint256 _i)\n        external\n        pure\n        returns (string memory _uintAsString)\n    {\n        uint256 number = _i;\n        if (number == 0) {\n            return \"0\";\n        }\n        uint256 j = number;\n        uint256 len;\n        while (j != 0) {\n            len++;\n            j /= 10;\n        }\n        bytes memory bstr = new bytes(len);\n        uint256 k = len - 1;\n        while (number != 0) {\n            bstr[k--] = bytes1(uint8(48 + (number % 10)));\n            number /= 10;\n        }\n        return string(bstr);\n    }\n}\n",
  "sourcePath": "/Users/matiasbn/Desktop/stacktical/stacktical-dsla-contracts/contracts/StringUtils.sol",
  "compiler": {
    "name": "solc",
    "version": "0.6.6+commit.6c089d02.Emscripten.clang"
  },
  "schemaVersion": "3.3.3",
  "updatedAt": "2021-04-12T21:41:30.918Z",
  "networkType": "ethereum",
  "devdoc": {
    "methods": {}
  },
  "userdoc": {
    "methods": {}
  }
}