{
  "contractName": "StringUtils",
  "abi": [
    {
      "inputs": [
        {
          "internalType": "string",
          "name": "_slaAddress",
          "type": "string"
        },
        {
          "internalType": "string",
          "name": "_slaMonitoringStart",
          "type": "string"
        },
        {
          "internalType": "string",
          "name": "_slaMonitoringStop",
          "type": "string"
        }
      ],
      "name": "_encodeQuery",
      "outputs": [
        {
          "internalType": "string",
          "name": "query",
          "type": "string"
        }
      ],
      "stateMutability": "pure",
      "type": "function"
    }
  ],
  "bytecode": "0x608060405234801561001057600080fd5b506105f9806100206000396000f3fe608060405234801561001057600080fd5b506004361061002b5760003560e01c80635fcb7a0914610030575b600080fd5b6101de6004803603606081101561004657600080fd5b810190602081018135600160201b81111561006057600080fd5b82018360208201111561007257600080fd5b803590602001918460018302840111600160201b8311171561009357600080fd5b91908080601f0160208091040260200160405190810160405280939291908181526020018383808284376000920191909152509295949360208101935035915050600160201b8111156100e557600080fd5b8201836020820111156100f757600080fd5b803590602001918460018302840111600160201b8311171561011857600080fd5b91908080601f0160208091040260200160405190810160405280939291908181526020018383808284376000920191909152509295949360208101935035915050600160201b81111561016a57600080fd5b82018360208201111561017c57600080fd5b803590602001918460018302840111600160201b8311171561019d57600080fd5b91908080601f016020809104026020016040519081016040528093929190818152602001838380828437600092019190915250929550610253945050505050565b6040805160208082528351818301528351919283929083019185019080838360005b83811015610218578181015183820152602001610200565b50505050905090810190601f1680156102455780820380516001836020036101000a031916815260200191505b509250505060405180910390f35b60608060405180608001604052806057815260200161051160579139905060606040518060600160405280602f8152602001610595602f9139905060606040518060600160405280602d8152602001610568602d9139905060606040518060400160405280601881526020017725323225304125323025323025323925304125374425304160401b815250905083888489858a866040516020018088805190602001908083835b602083106103195780518252601f1990920191602091820191016102fa565b51815160209384036101000a60001901801990921691161790528a5191909301928a0191508083835b602083106103615780518252601f199092019160209182019101610342565b51815160209384036101000a600019018019909216911617905289519190930192890191508083835b602083106103a95780518252601f19909201916020918201910161038a565b51815160209384036101000a600019018019909216911617905288519190930192880191508083835b602083106103f15780518252601f1990920191602091820191016103d2565b51815160209384036101000a600019018019909216911617905287519190930192870191508083835b602083106104395780518252601f19909201916020918201910161041a565b51815160209384036101000a600019018019909216911617905286519190930192860191508083835b602083106104815780518252601f199092019160209182019101610462565b51815160209384036101000a600019018019909216911617905285519190930192850191508083835b602083106104c95780518252601f1990920191602091820191016104aa565b6001836020036101000a038019825116818451168082178552505050505050905001975050505050505050604051602081830303815290604052945050505050939250505056fe68747470733a2f2f64736c612e6e6574776f726b2f6170693f71756572793d253742253041253230253230676574534c49253238253041253230253230253230253230736c615f61646472657373253341253230253232253232253041253230253230253230253230736c615f6d6f6e69746f72696e675f656e64253341253230253232253232253041253230253230253230253230736c615f6d6f6e69746f72696e675f7374617274253341253230253232a264697066735822122072e34e5f8c1f8ff642ed5043fd376b870be28e4f27d78b5feb5c63d3134460dc64736f6c634300060c0033",
  "immutableReferences": {},
  "source": "pragma solidity ^0.6.0;\n\ncontract StringUtils {\n    /**\n     * @dev transforms address to string\n     */\n    function _addressToString(address _address)\n        internal\n        pure\n        returns (string memory)\n    {\n        bytes32 _bytes = bytes32(uint256(_address));\n        bytes memory HEX = \"0123456789abcdef\";\n        bytes memory _string = new bytes(42);\n        _string[0] = \"0\";\n        _string[1] = \"x\";\n        for (uint256 i = 0; i < 20; i++) {\n            _string[2 + i * 2] = HEX[uint8(_bytes[i + 12] >> 4)];\n            _string[3 + i * 2] = HEX[uint8(_bytes[i + 12] & 0x0f)];\n        }\n        return string(_string);\n    }\n\n    /**\n     * @dev returns Graphql query for Chainlink GET request of SLI\n     */\n\n    function _encodeQuery(\n        string memory _slaAddress,\n        string memory _slaMonitoringStart,\n        string memory _slaMonitoringStop\n    ) public pure returns (string memory query) {\n        string memory qs1 =\n            \"https://dsla.network/api?query=%7B%0A%20%20getSLI%28%0A%20%20%20%20sla_address%3A%20%22\";\n        string memory qs2 = \"%22%0A%20%20%20%20sla_monitoring_start%3A%20%22\";\n        string memory qs3 = \"%22%0A%20%20%20%20sla_monitoring_end%3A%20%22\";\n        string memory qs4 = \"%22%0A%20%20%29%0A%7D%0A\";\n\n        query = string(\n            abi.encodePacked(\n                qs1,\n                _slaAddress,\n                qs2,\n                _slaMonitoringStart,\n                qs3,\n                _slaMonitoringStop,\n                qs4\n            )\n        );\n    }\n\n    /*\n        ORACLIZE_API\n        Copyright (c) 2015-2016 Oraclize SRL\n        Copyright (c) 2016 Oraclize LTD\n        Permission is hereby granted, free of charge, to any person obtaining a copy\n        of this software and associated documentation files (the \"Software\"), to deal\n        in the Software without restriction, including without limitation the rights\n        to use, copy, modify, merge, publish, distribute, sublicense, and/or sell\n        copies of the Software, and to permit persons to whom the Software is\n        furnished to do so, subject to the following conditions:\n        The above copyright notice and this permission notice shall be included in\n        all copies or substantial portions of the Software.\n        THE SOFTWARE IS PROVIDED \"AS IS\", WITHOUT WARRANTY OF ANY KIND, EXPRESS OR\n        IMPLIED, INCLUDING BUT NOT LIMITED TO THE WARRANTIES OF MERCHANTABILITY,\n        FITNESS FOR A PARTICULAR PURPOSE AND NONINFRINGEMENT.  IN NO EVENT SHALL THE\n        AUTHORS OR COPYRIGHT HOLDERS BE LIABLE FOR ANY CLAIM, DAMAGES OR OTHER\n        LIABILITY, WHETHER IN AN ACTION OF CONTRACT, TORT OR OTHERWISE, ARISING FROM,\n        OUT OF OR IN CONNECTION WITH THE SOFTWARE OR THE USE OR OTHER DEALINGS IN\n        THE SOFTWARE.\n    */\n    function _uintTostr(uint256 _i)\n        internal\n        pure\n        returns (string memory _uintAsString)\n    {\n        uint256 number = _i;\n        if (number == 0) {\n            return \"0\";\n        }\n        uint256 j = number;\n        uint256 len;\n        while (j != 0) {\n            len++;\n            j /= 10;\n        }\n        bytes memory bstr = new bytes(len);\n        uint256 k = len - 1;\n        while (number != 0) {\n            bstr[k--] = bytes1(uint8(48 + (number % 10)));\n            number /= 10;\n        }\n        return string(bstr);\n    }\n}\n",
  "sourcePath": "/Users/matiasbn/Desktop/stacktical-dsla-contracts/contracts/StringUtils.sol",
  "compiler": {
    "name": "solc",
    "version": "0.6.12+commit.27d51765.Emscripten.clang"
  },
  "schemaVersion": "3.2.5",
  "updatedAt": "2020-12-10T17:53:49.193Z",
  "devdoc": {
    "kind": "dev",
    "methods": {
      "_encodeQuery(string,string,string)": {
        "details": "returns Graphql query for Chainlink GET request of SLI"
      }
    },
    "version": 1
  },
  "userdoc": {
    "kind": "user",
    "methods": {},
    "version": 1
  }
}