{
  "contractName": "Subscribable",
  "abi": [
    {
      "constant": true,
      "inputs": [],
      "name": "subscribersCount",
      "outputs": [
        {
          "name": "",
          "type": "uint256"
        }
      ],
      "payable": false,
      "stateMutability": "view",
      "type": "function"
    },
    {
      "constant": true,
      "inputs": [],
      "name": "whitelist",
      "outputs": [
        {
          "name": "",
          "type": "address"
        }
      ],
      "payable": false,
      "stateMutability": "view",
      "type": "function"
    },
    {
      "anonymous": false,
      "inputs": [
        {
          "indexed": true,
          "name": "user",
          "type": "address"
        }
      ],
      "name": "Subscribed",
      "type": "event"
    },
    {
      "anonymous": false,
      "inputs": [
        {
          "indexed": true,
          "name": "user",
          "type": "address"
        }
      ],
      "name": "Unsubscribed",
      "type": "event"
    },
    {
      "constant": true,
      "inputs": [
        {
          "name": "_userAddress",
          "type": "address"
        }
      ],
      "name": "isSubscribed",
      "outputs": [
        {
          "name": "",
          "type": "bool"
        }
      ],
      "payable": false,
      "stateMutability": "view",
      "type": "function"
    }
  ],
  "bytecode": "0x608060405234801561001057600080fd5b506101f4806100206000396000f3fe608060405260043610610057576000357c0100000000000000000000000000000000000000000000000000000000900463ffffffff1680630daa77a81461005c57806393e59dc114610087578063b92ae87c146100de575b600080fd5b34801561006857600080fd5b50610071610147565b6040518082815260200191505060405180910390f35b34801561009357600080fd5b5061009c61014d565b604051808273ffffffffffffffffffffffffffffffffffffffff1673ffffffffffffffffffffffffffffffffffffffff16815260200191505060405180910390f35b3480156100ea57600080fd5b5061012d6004803603602081101561010157600080fd5b81019080803573ffffffffffffffffffffffffffffffffffffffff169060200190929190505050610172565b604051808215151515815260200191505060405180910390f35b60025481565b6000809054906101000a900473ffffffffffffffffffffffffffffffffffffffff1681565b6000600160008373ffffffffffffffffffffffffffffffffffffffff1673ffffffffffffffffffffffffffffffffffffffff16815260200190815260200160002060009054906101000a900460ff16905091905056fea165627a7a723058205c2113628bfcf94b93d44f4b40a08a2f3c9d9132b1604707fbbb2274c6ffc2980029",
  "source": "pragma solidity ^0.5.0;\n\nimport \"openzeppelin-solidity/contracts/math/SafeMath.sol\";\nimport \"../Whitelist/Whitelist.sol\";\n\ncontract Subscribable {\n\n    using SafeMath for uint256;\n\n    Whitelist public whitelist;\n\n    mapping(address => bool) private userToSubscribed;\n\n    uint public subscribersCount;\n\n    event Subscribed(address indexed user);\n    event Unsubscribed(address indexed user);\n\n    modifier onlyWhitelisted() {\n        if (whitelist != Whitelist(0)) {\n          require(whitelist.isWhitelisted(msg.sender));\n        }\n        _;\n    }\n\n    modifier onlySubscribed() {\n        require(isSubscribed(msg.sender));\n        _;\n    }\n\n    modifier onlyNotSubscribed() {\n        require(!isSubscribed(msg.sender));\n        _;\n    }\n\n    function _subscribe() internal onlyWhitelisted {\n        userToSubscribed[msg.sender] = true;\n        subscribersCount = subscribersCount.add(1);\n\n        emit Subscribed(msg.sender);\n    }\n\n    function _unSubscribe() internal onlySubscribed {\n        userToSubscribed[msg.sender] = false;\n        subscribersCount = subscribersCount.sub(1);\n\n        emit Unsubscribed(msg.sender);\n    }\n\n    function isSubscribed(address _userAddress) public view returns(bool) {\n        return(userToSubscribed[_userAddress]);\n    }\n\n}\n",
  "sourcePath": "/Users/Martin_Balk/projects/stacktical/stacktical-mvp-contracts/contracts/SLA/Subscribable.sol",
  "compiler": {
    "name": "solc",
    "version": "0.5.0+commit.1d4f565a.Emscripten.clang"
  },
  "schemaVersion": "3.0.2",
  "updatedAt": "2019-03-19T12:50:52.037Z",
  "devdoc": {
    "methods": {}
  },
  "userdoc": {
    "methods": {}
  }
}