{
  "contractName": "USDC",
  "abi": [
    {
      "inputs": [],
      "stateMutability": "nonpayable",
      "type": "constructor"
    },
    {
      "anonymous": false,
      "inputs": [
        {
          "indexed": true,
          "internalType": "uint256",
          "name": "_amount",
          "type": "uint256"
        },
        {
          "indexed": true,
          "internalType": "address",
          "name": "_claimer",
          "type": "address"
        }
      ],
      "name": "Allowed",
      "type": "event"
    },
    {
      "anonymous": false,
      "inputs": [
        {
          "indexed": true,
          "internalType": "address",
          "name": "owner",
          "type": "address"
        },
        {
          "indexed": true,
          "internalType": "address",
          "name": "spender",
          "type": "address"
        },
        {
          "indexed": false,
          "internalType": "uint256",
          "name": "value",
          "type": "uint256"
        }
      ],
      "name": "Approval",
      "type": "event"
    },
    {
      "anonymous": false,
      "inputs": [
        {
          "indexed": false,
          "internalType": "address",
          "name": "account",
          "type": "address"
        }
      ],
      "name": "Paused",
      "type": "event"
    },
    {
      "anonymous": false,
      "inputs": [
        {
          "indexed": true,
          "internalType": "bytes32",
          "name": "role",
          "type": "bytes32"
        },
        {
          "indexed": true,
          "internalType": "bytes32",
          "name": "previousAdminRole",
          "type": "bytes32"
        },
        {
          "indexed": true,
          "internalType": "bytes32",
          "name": "newAdminRole",
          "type": "bytes32"
        }
      ],
      "name": "RoleAdminChanged",
      "type": "event"
    },
    {
      "anonymous": false,
      "inputs": [
        {
          "indexed": true,
          "internalType": "bytes32",
          "name": "role",
          "type": "bytes32"
        },
        {
          "indexed": true,
          "internalType": "address",
          "name": "account",
          "type": "address"
        },
        {
          "indexed": true,
          "internalType": "address",
          "name": "sender",
          "type": "address"
        }
      ],
      "name": "RoleGranted",
      "type": "event"
    },
    {
      "anonymous": false,
      "inputs": [
        {
          "indexed": true,
          "internalType": "bytes32",
          "name": "role",
          "type": "bytes32"
        },
        {
          "indexed": true,
          "internalType": "address",
          "name": "account",
          "type": "address"
        },
        {
          "indexed": true,
          "internalType": "address",
          "name": "sender",
          "type": "address"
        }
      ],
      "name": "RoleRevoked",
      "type": "event"
    },
    {
      "anonymous": false,
      "inputs": [
        {
          "indexed": true,
          "internalType": "address",
          "name": "from",
          "type": "address"
        },
        {
          "indexed": true,
          "internalType": "address",
          "name": "to",
          "type": "address"
        },
        {
          "indexed": false,
          "internalType": "uint256",
          "name": "value",
          "type": "uint256"
        }
      ],
      "name": "Transfer",
      "type": "event"
    },
    {
      "anonymous": false,
      "inputs": [
        {
          "indexed": false,
          "internalType": "address",
          "name": "account",
          "type": "address"
        }
      ],
      "name": "Unpaused",
      "type": "event"
    },
    {
      "inputs": [],
      "name": "DEFAULT_ADMIN_ROLE",
      "outputs": [
        {
          "internalType": "bytes32",
          "name": "",
          "type": "bytes32"
        }
      ],
      "stateMutability": "view",
      "type": "function",
      "constant": true
    },
    {
      "inputs": [],
      "name": "MINTER_ROLE",
      "outputs": [
        {
          "internalType": "bytes32",
          "name": "",
          "type": "bytes32"
        }
      ],
      "stateMutability": "view",
      "type": "function",
      "constant": true
    },
    {
      "inputs": [],
      "name": "PAUSER_ROLE",
      "outputs": [
        {
          "internalType": "bytes32",
          "name": "",
          "type": "bytes32"
        }
      ],
      "stateMutability": "view",
      "type": "function",
      "constant": true
    },
    {
      "inputs": [
        {
          "internalType": "address",
          "name": "owner",
          "type": "address"
        },
        {
          "internalType": "address",
          "name": "spender",
          "type": "address"
        }
      ],
      "name": "allowance",
      "outputs": [
        {
          "internalType": "uint256",
          "name": "",
          "type": "uint256"
        }
      ],
      "stateMutability": "view",
      "type": "function",
      "constant": true
    },
    {
      "inputs": [
        {
          "internalType": "address",
          "name": "spender",
          "type": "address"
        },
        {
          "internalType": "uint256",
          "name": "amount",
          "type": "uint256"
        }
      ],
      "name": "approve",
      "outputs": [
        {
          "internalType": "bool",
          "name": "",
          "type": "bool"
        }
      ],
      "stateMutability": "nonpayable",
      "type": "function"
    },
    {
      "inputs": [
        {
          "internalType": "address",
          "name": "account",
          "type": "address"
        }
      ],
      "name": "balanceOf",
      "outputs": [
        {
          "internalType": "uint256",
          "name": "",
          "type": "uint256"
        }
      ],
      "stateMutability": "view",
      "type": "function",
      "constant": true
    },
    {
      "inputs": [
        {
          "internalType": "uint256",
          "name": "amount",
          "type": "uint256"
        }
      ],
      "name": "burn",
      "outputs": [],
      "stateMutability": "nonpayable",
      "type": "function"
    },
    {
      "inputs": [
        {
          "internalType": "address",
          "name": "account",
          "type": "address"
        },
        {
          "internalType": "uint256",
          "name": "amount",
          "type": "uint256"
        }
      ],
      "name": "burnFrom",
      "outputs": [],
      "stateMutability": "nonpayable",
      "type": "function"
    },
    {
      "inputs": [],
      "name": "decimals",
      "outputs": [
        {
          "internalType": "uint8",
          "name": "",
          "type": "uint8"
        }
      ],
      "stateMutability": "view",
      "type": "function",
      "constant": true
    },
    {
      "inputs": [
        {
          "internalType": "address",
          "name": "spender",
          "type": "address"
        },
        {
          "internalType": "uint256",
          "name": "subtractedValue",
          "type": "uint256"
        }
      ],
      "name": "decreaseAllowance",
      "outputs": [
        {
          "internalType": "bool",
          "name": "",
          "type": "bool"
        }
      ],
      "stateMutability": "nonpayable",
      "type": "function"
    },
    {
      "inputs": [
        {
          "internalType": "bytes32",
          "name": "role",
          "type": "bytes32"
        }
      ],
      "name": "getRoleAdmin",
      "outputs": [
        {
          "internalType": "bytes32",
          "name": "",
          "type": "bytes32"
        }
      ],
      "stateMutability": "view",
      "type": "function",
      "constant": true
    },
    {
      "inputs": [
        {
          "internalType": "bytes32",
          "name": "role",
          "type": "bytes32"
        },
        {
          "internalType": "uint256",
          "name": "index",
          "type": "uint256"
        }
      ],
      "name": "getRoleMember",
      "outputs": [
        {
          "internalType": "address",
          "name": "",
          "type": "address"
        }
      ],
      "stateMutability": "view",
      "type": "function",
      "constant": true
    },
    {
      "inputs": [
        {
          "internalType": "bytes32",
          "name": "role",
          "type": "bytes32"
        }
      ],
      "name": "getRoleMemberCount",
      "outputs": [
        {
          "internalType": "uint256",
          "name": "",
          "type": "uint256"
        }
      ],
      "stateMutability": "view",
      "type": "function",
      "constant": true
    },
    {
      "inputs": [
        {
          "internalType": "bytes32",
          "name": "role",
          "type": "bytes32"
        },
        {
          "internalType": "address",
          "name": "account",
          "type": "address"
        }
      ],
      "name": "grantRole",
      "outputs": [],
      "stateMutability": "nonpayable",
      "type": "function"
    },
    {
      "inputs": [
        {
          "internalType": "bytes32",
          "name": "role",
          "type": "bytes32"
        },
        {
          "internalType": "address",
          "name": "account",
          "type": "address"
        }
      ],
      "name": "hasRole",
      "outputs": [
        {
          "internalType": "bool",
          "name": "",
          "type": "bool"
        }
      ],
      "stateMutability": "view",
      "type": "function",
      "constant": true
    },
    {
      "inputs": [
        {
          "internalType": "address",
          "name": "spender",
          "type": "address"
        },
        {
          "internalType": "uint256",
          "name": "addedValue",
          "type": "uint256"
        }
      ],
      "name": "increaseAllowance",
      "outputs": [
        {
          "internalType": "bool",
          "name": "",
          "type": "bool"
        }
      ],
      "stateMutability": "nonpayable",
      "type": "function"
    },
    {
      "inputs": [],
      "name": "name",
      "outputs": [
        {
          "internalType": "string",
          "name": "",
          "type": "string"
        }
      ],
      "stateMutability": "view",
      "type": "function",
      "constant": true
    },
    {
      "inputs": [],
      "name": "pause",
      "outputs": [],
      "stateMutability": "nonpayable",
      "type": "function"
    },
    {
      "inputs": [],
      "name": "paused",
      "outputs": [
        {
          "internalType": "bool",
          "name": "",
          "type": "bool"
        }
      ],
      "stateMutability": "view",
      "type": "function",
      "constant": true
    },
    {
      "inputs": [
        {
          "internalType": "bytes32",
          "name": "role",
          "type": "bytes32"
        },
        {
          "internalType": "address",
          "name": "account",
          "type": "address"
        }
      ],
      "name": "renounceRole",
      "outputs": [],
      "stateMutability": "nonpayable",
      "type": "function"
    },
    {
      "inputs": [
        {
          "internalType": "bytes32",
          "name": "role",
          "type": "bytes32"
        },
        {
          "internalType": "address",
          "name": "account",
          "type": "address"
        }
      ],
      "name": "revokeRole",
      "outputs": [],
      "stateMutability": "nonpayable",
      "type": "function"
    },
    {
      "inputs": [],
      "name": "symbol",
      "outputs": [
        {
          "internalType": "string",
          "name": "",
          "type": "string"
        }
      ],
      "stateMutability": "view",
      "type": "function",
      "constant": true
    },
    {
      "inputs": [],
      "name": "totalSupply",
      "outputs": [
        {
          "internalType": "uint256",
          "name": "",
          "type": "uint256"
        }
      ],
      "stateMutability": "view",
      "type": "function",
      "constant": true
    },
    {
      "inputs": [
        {
          "internalType": "address",
          "name": "recipient",
          "type": "address"
        },
        {
          "internalType": "uint256",
          "name": "amount",
          "type": "uint256"
        }
      ],
      "name": "transfer",
      "outputs": [
        {
          "internalType": "bool",
          "name": "",
          "type": "bool"
        }
      ],
      "stateMutability": "nonpayable",
      "type": "function"
    },
    {
      "inputs": [
        {
          "internalType": "address",
          "name": "sender",
          "type": "address"
        },
        {
          "internalType": "address",
          "name": "recipient",
          "type": "address"
        },
        {
          "internalType": "uint256",
          "name": "amount",
          "type": "uint256"
        }
      ],
      "name": "transferFrom",
      "outputs": [
        {
          "internalType": "bool",
          "name": "",
          "type": "bool"
        }
      ],
      "stateMutability": "nonpayable",
      "type": "function"
    },
    {
      "inputs": [],
      "name": "unpause",
      "outputs": [],
      "stateMutability": "nonpayable",
      "type": "function"
    },
    {
      "inputs": [
        {
          "internalType": "uint256",
          "name": "_amount",
          "type": "uint256"
        },
        {
          "internalType": "address",
          "name": "_claimer",
          "type": "address"
        }
      ],
      "name": "setAllowedAmount",
      "outputs": [],
      "stateMutability": "nonpayable",
      "type": "function"
    },
    {
      "inputs": [
        {
          "internalType": "uint256[]",
          "name": "_amounts",
          "type": "uint256[]"
        },
        {
          "internalType": "address[]",
          "name": "_claimers",
          "type": "address[]"
        }
      ],
      "name": "setAllowedAmounts",
      "outputs": [],
      "stateMutability": "nonpayable",
      "type": "function"
    },
    {
      "inputs": [
        {
          "internalType": "address",
          "name": "_claimer",
          "type": "address"
        }
      ],
      "name": "claim",
      "outputs": [],
      "stateMutability": "nonpayable",
      "type": "function"
    },
    {
      "inputs": [
        {
          "internalType": "address",
          "name": "to",
          "type": "address"
        },
        {
          "internalType": "uint256",
          "name": "amount",
          "type": "uint256"
        }
      ],
      "name": "mint",
      "outputs": [],
      "stateMutability": "nonpayable",
      "type": "function"
    }
  ],
  "bytecode": "0x60806040523480156200001157600080fd5b50604051806040016040528060048152602001635553444360e01b815250604051806040016040528060048152602001635553444360e01b81525081818160049080519060200190620000669291906200026c565b5080516200007c9060059060208401906200026c565b50506006805461ff001960ff1990911660121716905550620000bb6000620000ac6001600160e01b036200013316565b6001600160e01b036200013816565b604080516a4d494e5445525f524f4c4560a81b8152905190819003600b019020620000f390620000ac6001600160e01b036200013316565b604080516a5041555345525f524f4c4560a81b8152905190819003600b0190206200012b90620000ac6001600160e01b036200013316565b50506200030e565b335b90565b6200014d82826001600160e01b036200015116565b5050565b600082815260208181526040909120620001769183906200181a620001d3821b17901c565b156200014d576200018f6001600160e01b036200013316565b6001600160a01b0316816001600160a01b0316837f2f8788117e7eff1d82e926ec794901d17c78024a50270940304540a733656f0d60405160405180910390a45050565b6000620001f3836001600160a01b0384166001600160e01b03620001fc16565b90505b92915050565b60006200021383836001600160e01b036200025416565b6200024b57508154600181810184556000848152602080822090930184905584548482528286019093526040902091909155620001f6565b506000620001f6565b60009081526001919091016020526040902054151590565b828054600181600116156101000203166002900490600052602060002090601f016020900481019282601f10620002af57805160ff1916838001178555620002df565b82800160010185558215620002df579182015b82811115620002df578251825591602001919060010190620002c2565b50620002ed929150620002f1565b5090565b6200013591905b80821115620002ed5760008155600101620002f8565b611e47806200031e6000396000f3fe608060405234801561001057600080fd5b506004361061019a5760003560e01c806370a08231116100e4578063a457c2d711610092578063a457c2d7146104ed578063a9059cbb14610519578063b4986fc514610545578063ca15c87314610668578063d539139314610685578063d547741f1461068d578063dd62ed3e146106b9578063e63ab1e9146106e75761019a565b806370a082311461041857806379cc67901461043e5780638456cb591461046a5780639010d07c1461047257806391d14854146104b157806395d89b41146104dd578063a217fddf146104e55761019a565b8063313ce5671161014c578063313ce5671461031d57806336568abe1461033b57806339509351146103675780633f4ba83a1461039357806340c10f191461039b57806342966c68146103c7578063522fe133146103e45780635c975abb146104105761019a565b806306fdde031461019f578063095ea7b31461021c57806318160ddd1461025c5780631e83409a1461027657806323b872dd1461029e578063248a9ca3146102d45780632f2ff15d146102f1575b600080fd5b6101a76106ef565b6040805160208082528351818301528351919283929083019185019080838360005b838110156101e15781810151838201526020016101c9565b50505050905090810190601f16801561020e5780820380516001836020036101000a031916815260200191505b509250505060405180910390f35b6102486004803603604081101561023257600080fd5b506001600160a01b038135169060200135610785565b604080519115158252519081900360200190f35b6102646107a3565b60408051918252519081900360200190f35b61029c6004803603602081101561028c57600080fd5b50356001600160a01b03166107a9565b005b610248600480360360608110156102b457600080fd5b506001600160a01b038135811691602081013590911690604001356108fd565b610264600480360360208110156102ea57600080fd5b503561098a565b61029c6004803603604081101561030757600080fd5b50803590602001356001600160a01b031661099f565b610325610a06565b6040805160ff9092168252519081900360200190f35b61029c6004803603604081101561035157600080fd5b50803590602001356001600160a01b0316610a0f565b6102486004803603604081101561037d57600080fd5b506001600160a01b038135169060200135610a70565b61029c610ac4565b61029c600480360360408110156103b157600080fd5b506001600160a01b038135169060200135610b35565b61029c600480360360208110156103dd57600080fd5b5035610b3f565b61029c600480360360408110156103fa57600080fd5b50803590602001356001600160a01b0316610b50565b610248610c36565b6102646004803603602081101561042e57600080fd5b50356001600160a01b0316610c44565b61029c6004803603604081101561045457600080fd5b506001600160a01b038135169060200135610c5f565b61029c610cbf565b6104956004803603604081101561048857600080fd5b5080359060200135610d2e565b604080516001600160a01b039092168252519081900360200190f35b610248600480360360408110156104c757600080fd5b50803590602001356001600160a01b0316610d53565b6101a7610d71565b610264610dd2565b6102486004803603604081101561050357600080fd5b506001600160a01b038135169060200135610dd7565b6102486004803603604081101561052f57600080fd5b506001600160a01b038135169060200135610e45565b61029c6004803603604081101561055b57600080fd5b810190602081018135600160201b81111561057557600080fd5b82018360208201111561058757600080fd5b803590602001918460208302840111600160201b831117156105a857600080fd5b9190808060200260200160405190810160405280939291908181526020018383602002808284376000920191909152509295949360208101935035915050600160201b8111156105f757600080fd5b82018360208201111561060957600080fd5b803590602001918460208302840111600160201b8311171561062a57600080fd5b919080806020026020016040519081016040528093929190818152602001838360200280828437600092019190915250929550610e59945050505050565b6102646004803603602081101561067e57600080fd5b5035610fde565b610264610ff5565b61029c600480360360408110156106a357600080fd5b50803590602001356001600160a01b0316611018565b610264600480360360408110156106cf57600080fd5b506001600160a01b0381358116916020013516611071565b61026461109c565b60048054604080516020601f600260001961010060018816150201909516949094049384018190048102820181019092528281526060939092909183018282801561077b5780601f106107505761010080835404028352916020019161077b565b820191906000526020600020905b81548152906001019060200180831161075e57829003601f168201915b5050505050905090565b60006107996107926110bf565b84846110c3565b5060015b92915050565b60035490565b604080516a4d494e5445525f524f4c4560a81b8152905190819003600b0190206107da906107d56110bf565b610d53565b6108155760405162461bcd60e51b815260040180806020018281038252602e815260200180611d39602e913960400191505060405180910390fd5b6001600160a01b0381166000908152600760205260409020546108695760405162461bcd60e51b815260040180806020018281038252602f815260200180611b85602f913960400191505060405180910390fd5b6001600160a01b03811660009081526008602052604090205460ff16156108c15760405162461bcd60e51b8152600401808060200182810382526022815260200180611cbc6022913960400191505060405180910390fd5b6001600160a01b0381166000908152600860209081526040808320805460ff1916600117905560079091529020546108fa908290610b35565b50565b600061090a8484846111af565b610980846109166110bf565b61097b85604051806060016040528060288152602001611c0a602891396001600160a01b038a166000908152600260205260408120906109546110bf565b6001600160a01b03168152602081019190915260400160002054919063ffffffff61130616565b6110c3565b5060019392505050565b60009081526020819052604090206002015490565b6000828152602081905260409020600201546109bd906107d56110bf565b6109f85760405162461bcd60e51b815260040180806020018281038252602f815260200180611aab602f913960400191505060405180910390fd5b610a02828261139d565b5050565b60065460ff1690565b610a176110bf565b6001600160a01b0316816001600160a01b031614610a665760405162461bcd60e51b815260040180806020018281038252602f815260200180611db9602f913960400191505060405180910390fd5b610a02828261140c565b6000610799610a7d6110bf565b8461097b8560026000610a8e6110bf565b6001600160a01b03908116825260208083019390935260409182016000908120918c16815292529020549063ffffffff61147b16565b604080516a5041555345525f524f4c4560a81b8152905190819003600b019020610af0906107d56110bf565b610b2b5760405162461bcd60e51b8152600401808060200182810382526039815260200180611afc6039913960400191505060405180910390fd5b610b336114d5565b565b610a028282611579565b6108fa610b4a6110bf565b82611665565b610b5d60006107d56110bf565b610b985760405162461bcd60e51b815260040180806020018281038252602d815260200180611d8c602d913960400191505060405180910390fd5b6001600160a01b03811660009081526008602052604090205460ff1615610bf05760405162461bcd60e51b8152600401808060200182810382526022815260200180611cbc6022913960400191505060405180910390fd5b6001600160a01b0381166000818152600760205260408082208590555184917fd982c9a0e4f3e18aad52d8d036ad2c1320d034b37f7bb681c7ba61a283226d7991a35050565b600654610100900460ff1690565b6001600160a01b031660009081526001602052604090205490565b6000610c9c82604051806060016040528060248152602001611c3260249139610c8f86610c8a6110bf565b611071565b919063ffffffff61130616565b9050610cb083610caa6110bf565b836110c3565b610cba8383611665565b505050565b604080516a5041555345525f524f4c4560a81b8152905190819003600b019020610ceb906107d56110bf565b610d265760405162461bcd60e51b8152600401808060200182810382526037815260200180611d026037913960400191505060405180910390fd5b610b3361175b565b6000828152602081905260408120610d4c908363ffffffff6117e316565b9392505050565b6000828152602081905260408120610d4c908363ffffffff6117ef16565b60058054604080516020601f600260001961010060018816150201909516949094049384018190048102820181019092528281526060939092909183018282801561077b5780601f106107505761010080835404028352916020019161077b565b600081565b6000610799610de46110bf565b8461097b85604051806060016040528060258152602001611d676025913960026000610e0e6110bf565b6001600160a01b03908116825260208083019390935260409182016000908120918d1681529252902054919063ffffffff61130616565b6000610799610e526110bf565b84846111af565b610e6660006107d56110bf565b610ea15760405162461bcd60e51b815260040180806020018281038252602d815260200180611d8c602d913960400191505060405180910390fd5b8051825114610ee15760405162461bcd60e51b815260040180806020018281038252602e815260200180611b57602e913960400191505060405180910390fd5b60005b8251811015610cba5760086000838381518110610efd57fe5b6020908102919091018101516001600160a01b031682528101919091526040016000205460ff16610fd657828181518110610f3457fe5b602002602001015160076000848481518110610f4c57fe5b60200260200101516001600160a01b03166001600160a01b0316815260200190815260200160002081905550818181518110610f8457fe5b60200260200101516001600160a01b0316838281518110610fa157fe5b60200260200101517fd982c9a0e4f3e18aad52d8d036ad2c1320d034b37f7bb681c7ba61a283226d7960405160405180910390a35b600101610ee4565b600081815260208190526040812061079d90611804565b604080516a4d494e5445525f524f4c4560a81b8152905190819003600b01902081565b600082815260208190526040902060020154611036906107d56110bf565b610a665760405162461bcd60e51b8152600401808060200182810382526030815260200180611bda6030913960400191505060405180910390fd5b6001600160a01b03918216600090815260026020908152604080832093909416825291909152205490565b604080516a5041555345525f524f4c4560a81b8152905190819003600b01902081565b3390565b6001600160a01b0383166111085760405162461bcd60e51b8152600401808060200182810382526024815260200180611cde6024913960400191505060405180910390fd5b6001600160a01b03821661114d5760405162461bcd60e51b8152600401808060200182810382526022815260200180611b356022913960400191505060405180910390fd5b6001600160a01b03808416600081815260026020908152604080832094871680845294825291829020859055815185815291517f8c5be1e5ebec7d5bd14f71427d1e84f3dd0314c0f7b2291e5b200ac8c7c3b9259281900390910190a3505050565b6001600160a01b0383166111f45760405162461bcd60e51b8152600401808060200182810382526025815260200180611c976025913960400191505060405180910390fd5b6001600160a01b0382166112395760405162461bcd60e51b8152600401808060200182810382526023815260200180611a886023913960400191505060405180910390fd5b61124483838361180f565b61128781604051806060016040528060268152602001611bb4602691396001600160a01b038616600090815260016020526040902054919063ffffffff61130616565b6001600160a01b0380851660009081526001602052604080822093909355908416815220546112bc908263ffffffff61147b16565b6001600160a01b038084166000818152600160209081526040918290209490945580518581529051919392871692600080516020611c5683398151915292918290030190a3505050565b600081848411156113955760405162461bcd60e51b81526004018080602001828103825283818151815260200191508051906020019080838360005b8381101561135a578181015183820152602001611342565b50505050905090810190601f1680156113875780820380516001836020036101000a031916815260200191505b509250505060405180910390fd5b505050900390565b60008281526020819052604090206113bb908263ffffffff61181a16565b15610a02576113c86110bf565b6001600160a01b0316816001600160a01b0316837f2f8788117e7eff1d82e926ec794901d17c78024a50270940304540a733656f0d60405160405180910390a45050565b600082815260208190526040902061142a908263ffffffff61182f16565b15610a02576114376110bf565b6001600160a01b0316816001600160a01b0316837ff6391f5c32d9c69d2a47ea670b442974b53935d1edc7fd64eb21e047a839171b60405160405180910390a45050565b600082820183811015610d4c576040805162461bcd60e51b815260206004820152601b60248201527f536166654d6174683a206164646974696f6e206f766572666c6f770000000000604482015290519081900360640190fd5b600654610100900460ff16611528576040805162461bcd60e51b815260206004820152601460248201527314185d5cd8589b194e881b9bdd081c185d5cd95960621b604482015290519081900360640190fd5b6006805461ff00191690557f5db9ee0a495bf2e6ff9c91a7834c1ba4fdd244a5e8aa4e537bd38aeae4b073aa61155c6110bf565b604080516001600160a01b039092168252519081900360200190a1565b6001600160a01b0382166115d4576040805162461bcd60e51b815260206004820152601f60248201527f45524332303a206d696e7420746f20746865207a65726f206164647265737300604482015290519081900360640190fd5b6115e06000838361180f565b6003546115f3908263ffffffff61147b16565b6003556001600160a01b03821660009081526001602052604090205461161f908263ffffffff61147b16565b6001600160a01b0383166000818152600160209081526040808320949094558351858152935192939192600080516020611c568339815191529281900390910190a35050565b6001600160a01b0382166116aa5760405162461bcd60e51b8152600401808060200182810382526021815260200180611c766021913960400191505060405180910390fd5b6116b68260008361180f565b6116f981604051806060016040528060228152602001611ada602291396001600160a01b038516600090815260016020526040902054919063ffffffff61130616565b6001600160a01b038316600090815260016020526040902055600354611725908263ffffffff61184416565b6003556040805182815290516000916001600160a01b03851691600080516020611c568339815191529181900360200190a35050565b600654610100900460ff16156117ab576040805162461bcd60e51b815260206004820152601060248201526f14185d5cd8589b194e881c185d5cd95960821b604482015290519081900360640190fd5b6006805461ff0019166101001790557f62e78cea01bee320cd4e420270b5ea74000d11b0c9f74754ebdbfc544b05a25861155c6110bf565b6000610d4c8383611886565b6000610d4c836001600160a01b0384166118ea565b600061079d82611902565b610cba838383611906565b6000610d4c836001600160a01b038416611955565b6000610d4c836001600160a01b03841661199f565b6000610d4c83836040518060400160405280601e81526020017f536166654d6174683a207375627472616374696f6e206f766572666c6f770000815250611306565b815460009082106118c85760405162461bcd60e51b8152600401808060200182810382526022815260200180611a666022913960400191505060405180910390fd5b8260000182815481106118d757fe5b9060005260206000200154905092915050565b60009081526001919091016020526040902054151590565b5490565b611911838383610cba565b611919610c36565b15610cba5760405162461bcd60e51b815260040180806020018281038252602a815260200180611de8602a913960400191505060405180910390fd5b600061196183836118ea565b6119975750815460018181018455600084815260208082209093018490558454848252828601909352604090209190915561079d565b50600061079d565b60008181526001830160205260408120548015611a5b57835460001980830191908101906000908790839081106119d257fe5b90600052602060002001549050808760000184815481106119ef57fe5b600091825260208083209091019290925582815260018981019092526040902090840190558654879080611a1f57fe5b6001900381819060005260206000200160009055905586600101600087815260200190815260200160002060009055600194505050505061079d565b600091505061079d56fe456e756d657261626c655365743a20696e646578206f7574206f6620626f756e647345524332303a207472616e7366657220746f20746865207a65726f2061646472657373416363657373436f6e74726f6c3a2073656e646572206d75737420626520616e2061646d696e20746f206772616e7445524332303a206275726e20616d6f756e7420657863656564732062616c616e636545524332305072657365744d696e7465725061757365723a206d75737420686176652070617573657220726f6c6520746f20756e706175736545524332303a20617070726f766520746f20746865207a65726f20616464726573736244534c41546f6b656e3a206d7573742068617665207468652073616d65206e756d626572206f66206974656d736244534c41546f6b656e3a206d757374206861766520616e20616c6c6f77656420616d6f756e20746f20636c61696d45524332303a207472616e7366657220616d6f756e7420657863656564732062616c616e6365416363657373436f6e74726f6c3a2073656e646572206d75737420626520616e2061646d696e20746f207265766f6b6545524332303a207472616e7366657220616d6f756e74206578636565647320616c6c6f77616e636545524332303a206275726e20616d6f756e74206578636565647320616c6c6f77616e6365ddf252ad1be2c89b69c2b068fc378daa952ba7f163c4a11628f55a4df523b3ef45524332303a206275726e2066726f6d20746865207a65726f206164647265737345524332303a207472616e736665722066726f6d20746865207a65726f20616464726573736244534c41546f6b656e3a20746f6b656e7320616c726561647920636c61696d656445524332303a20617070726f76652066726f6d20746865207a65726f206164647265737345524332305072657365744d696e7465725061757365723a206d75737420686176652070617573657220726f6c6520746f20706175736545524332305072657365744d696e7465725061757365723a206d7573742068617665206d696e74657220726f6c6545524332303a2064656372656173656420616c6c6f77616e63652062656c6f77207a65726f45524332305072657365744d696e7465725061757365723a206d75737420686176652061646d696e20726f6c65416363657373436f6e74726f6c3a2063616e206f6e6c792072656e6f756e636520726f6c657320666f722073656c6645524332305061757361626c653a20746f6b656e207472616e73666572207768696c6520706175736564a26469706673582212208ee43ef5641a21993d30931e3a4d9cc239f686f688669a9f43542399ca74616d64736f6c63430006060033",
  "immutableReferences": {},
  "source": "// bDSLAToken.sol\n// SPDX-License-Identifier: MIT\npragma solidity 0.6.6;\n\nimport \"@openzeppelin/contracts/presets/ERC20PresetMinterPauser.sol\";\n\n/**\n * @dev {bDSLA} token, including:\n *\n *  - ability for holders to burn (destroy) their tokens\n *  - a minter role that allows for token minting (creation)\n *  - a pauser role that allows to stop all token transfers\n *  - a claim procces for DSLA owners\n *\n * This contract uses {AccessControl} to lock permissioned functions using the\n * different roles.\n *\n * The account that deploys the contract will be granted the minter and pauser\n * roles, as well as the default admin role, which will let it grant both minter\n * and pauser roles to other accounts.\n */\n\ncontract USDC is ERC20PresetMinterPauser {\n    mapping(address => uint256) private _allowedBalances;\n    mapping(address => bool) private _claimed;\n\n    event Allowed(uint256 indexed _amount, address indexed _claimer);\n\n    /**\n     * @dev Sets the values for {name} and {symbol}, {decimals} have\n     * a default value of 18.\n     * @notice token name: bDSLA , token symbol: bDSLA\n     */\n    constructor() public ERC20PresetMinterPauser(\"USDC\", \"USDC\") {}\n\n    /**\n     * @notice the setAllowedAmount function allows the admin to set an amount\n     * of claimable bDSLA based on the balanceOf DSLA token of the claimer on the\n     * mainnet.\n     * @dev allows the claim of `_amount` for `_claimer`.\n     *\n     * @param _amount 1. uint the equivalent amount of DSLA tokens on the mainnet\n     * @param _claimer 2. address of the claimer\n     *\n     *\n     * Requirements:\n     *\n     * - the caller must have the `(DEFAULT_ADMIN_ROLE)`.\n     */\n    function setAllowedAmount(uint256 _amount, address _claimer) public {\n        require(\n            hasRole(DEFAULT_ADMIN_ROLE, _msgSender()),\n            \"ERC20PresetMinterPauser: must have admin role\"\n        );\n        require(!_claimed[_claimer], \"bDSLAToken: tokens already claimed\");\n        _allowedBalances[_claimer] = _amount;\n        emit Allowed(_amount, _claimer);\n    }\n\n    /**\n     * @notice the setAllowedAmounts function allows the admin to set\n     * a claimable amounts of bDSLA for claimers.\n     *\n     * @dev allows the claim of `_amounts` for `_claimers`.\n     *\n     * @param _amounts 1. an array of amounts to be claimed\n     * @param _claimers 2. an array of addresses of the claimers\n     *\n     *\n     * Requirements:\n     *\n     * - the caller must have the `(DEFAULT_ADMIN_ROLE)`.\n     */\n    function setAllowedAmounts(\n        uint256[] memory _amounts,\n        address[] memory _claimers\n    ) public {\n        require(\n            hasRole(DEFAULT_ADMIN_ROLE, _msgSender()),\n            \"ERC20PresetMinterPauser: must have admin role\"\n        );\n        require(\n            _amounts.length == _claimers.length,\n            \"bDSLAToken: must have the same number of items\"\n        );\n        for (uint256 i = 0; i < _amounts.length; i++) {\n            if (!_claimed[_claimers[i]]) {\n                _allowedBalances[_claimers[i]] = _amounts[i];\n                emit Allowed(_amounts[i], _claimers[i]);\n            }\n        }\n    }\n\n    /**\n     * @notice the setAllowedAmounts function allows the admin to set\n     * a claimable amounts of bDSLA for claimers.\n     *\n     * @dev creates new 'bDSLA' tokens for the `_claimer`.\n     *\n     * @param _claimer 1. address of the claimer\n     *\n     *\n     * Requirements:\n     *\n     * - the caller must have the `(MINTER_ROLE)`.\n     * - the claimer should have an allowed balance\n     * - the claim can be done just once\n     */\n    function claim(address _claimer) public {\n        require(\n            hasRole(MINTER_ROLE, _msgSender()),\n            \"ERC20PresetMinterPauser: must have minter role\"\n        );\n        require(\n            _allowedBalances[_claimer] > 0,\n            \"bDSLAToken: must have an allowed amoun to claim\"\n        );\n        require(!_claimed[_claimer], \"bDSLAToken: tokens already claimed\");\n        _claimed[_claimer] = true;\n        mint(_claimer, _allowedBalances[_claimer]);\n    }\n\n    /**\n     * @dev Creates `amount` new tokens for `to`.\n     * @param to 1. address of receiver\n     * @param amount 2. minted amount\n     */\n    function mint(address to, uint256 amount) public override {\n        _mint(to, amount);\n    }\n}\n",
  "sourcePath": "/Users/matiasbn/Desktop/stacktical/stacktical-dsla-contracts/contracts/tokens/USDC.sol",
  "compiler": {
    "name": "solc",
    "version": "0.6.6+commit.6c089d02.Emscripten.clang"
  },
  "schemaVersion": "3.3.3",
  "updatedAt": "2021-03-17T16:48:06.032Z",
  "networkType": "ethereum",
  "devdoc": {
    "details": "{bDSLA} token, including: *  - ability for holders to burn (destroy) their tokens - a minter role that allows for token minting (creation) - a pauser role that allows to stop all token transfers - a claim procces for DSLA owners * This contract uses {AccessControl} to lock permissioned functions using the different roles. * The account that deploys the contract will be granted the minter and pauser roles, as well as the default admin role, which will let it grant both minter and pauser roles to other accounts.",
    "methods": {
      "allowance(address,address)": {
        "details": "See {IERC20-allowance}."
      },
      "approve(address,uint256)": {
        "details": "See {IERC20-approve}.     * Requirements:     * - `spender` cannot be the zero address."
      },
      "balanceOf(address)": {
        "details": "See {IERC20-balanceOf}."
      },
      "burn(uint256)": {
        "details": "Destroys `amount` tokens from the caller.     * See {ERC20-_burn}."
      },
      "burnFrom(address,uint256)": {
        "details": "Destroys `amount` tokens from `account`, deducting from the caller's allowance.     * See {ERC20-_burn} and {ERC20-allowance}.     * Requirements:     * - the caller must have allowance for ``accounts``'s tokens of at least `amount`."
      },
      "claim(address)": {
        "details": "creates new 'bDSLA' tokens for the `_claimer`.",
        "params": {
          "_claimer": "1. address of the claimer     * Requirements:     * - the caller must have the `(MINTER_ROLE)`. - the claimer should have an allowed balance - the claim can be done just once"
        }
      },
      "constructor": {
        "details": "Sets the values for {name} and {symbol}, {decimals} have a default value of 18."
      },
      "decimals()": {
        "details": "Returns the number of decimals used to get its user representation. For example, if `decimals` equals `2`, a balance of `505` tokens should be displayed to a user as `5,05` (`505 / 10 ** 2`).     * Tokens usually opt for a value of 18, imitating the relationship between Ether and Wei. This is the value {ERC20} uses, unless {_setupDecimals} is called.     * NOTE: This information is only used for _display_ purposes: it in no way affects any of the arithmetic of the contract, including {IERC20-balanceOf} and {IERC20-transfer}."
      },
      "decreaseAllowance(address,uint256)": {
        "details": "Atomically decreases the allowance granted to `spender` by the caller.     * This is an alternative to {approve} that can be used as a mitigation for problems described in {IERC20-approve}.     * Emits an {Approval} event indicating the updated allowance.     * Requirements:     * - `spender` cannot be the zero address. - `spender` must have allowance for the caller of at least `subtractedValue`."
      },
      "getRoleAdmin(bytes32)": {
        "details": "Returns the admin role that controls `role`. See {grantRole} and {revokeRole}.     * To change a role's admin, use {_setRoleAdmin}."
      },
      "getRoleMember(bytes32,uint256)": {
        "details": "Returns one of the accounts that have `role`. `index` must be a value between 0 and {getRoleMemberCount}, non-inclusive.     * Role bearers are not sorted in any particular way, and their ordering may change at any point.     * WARNING: When using {getRoleMember} and {getRoleMemberCount}, make sure you perform all queries on the same block. See the following https://forum.openzeppelin.com/t/iterating-over-elements-on-enumerableset-in-openzeppelin-contracts/2296[forum post] for more information."
      },
      "getRoleMemberCount(bytes32)": {
        "details": "Returns the number of accounts that have `role`. Can be used together with {getRoleMember} to enumerate all bearers of a role."
      },
      "grantRole(bytes32,address)": {
        "details": "Grants `role` to `account`.     * If `account` had not been already granted `role`, emits a {RoleGranted} event.     * Requirements:     * - the caller must have ``role``'s admin role."
      },
      "hasRole(bytes32,address)": {
        "details": "Returns `true` if `account` has been granted `role`."
      },
      "increaseAllowance(address,uint256)": {
        "details": "Atomically increases the allowance granted to `spender` by the caller.     * This is an alternative to {approve} that can be used as a mitigation for problems described in {IERC20-approve}.     * Emits an {Approval} event indicating the updated allowance.     * Requirements:     * - `spender` cannot be the zero address."
      },
      "mint(address,uint256)": {
        "details": "Creates `amount` new tokens for `to`.",
        "params": {
          "amount": "2. minted amount",
          "to": "1. address of receiver"
        }
      },
      "name()": {
        "details": "Returns the name of the token."
      },
      "pause()": {
        "details": "Pauses all token transfers.     * See {ERC20Pausable} and {Pausable-_pause}.     * Requirements:     * - the caller must have the `PAUSER_ROLE`."
      },
      "paused()": {
        "details": "Returns true if the contract is paused, and false otherwise."
      },
      "renounceRole(bytes32,address)": {
        "details": "Revokes `role` from the calling account.     * Roles are often managed via {grantRole} and {revokeRole}: this function's purpose is to provide a mechanism for accounts to lose their privileges if they are compromised (such as when a trusted device is misplaced).     * If the calling account had been granted `role`, emits a {RoleRevoked} event.     * Requirements:     * - the caller must be `account`."
      },
      "revokeRole(bytes32,address)": {
        "details": "Revokes `role` from `account`.     * If `account` had been granted `role`, emits a {RoleRevoked} event.     * Requirements:     * - the caller must have ``role``'s admin role."
      },
      "setAllowedAmount(uint256,address)": {
        "details": "allows the claim of `_amount` for `_claimer`.",
        "params": {
          "_amount": "1. uint the equivalent amount of DSLA tokens on the mainnet",
          "_claimer": "2. address of the claimer     * Requirements:     * - the caller must have the `(DEFAULT_ADMIN_ROLE)`."
        }
      },
      "setAllowedAmounts(uint256[],address[])": {
        "details": "allows the claim of `_amounts` for `_claimers`.",
        "params": {
          "_amounts": "1. an array of amounts to be claimed",
          "_claimers": "2. an array of addresses of the claimers     * Requirements:     * - the caller must have the `(DEFAULT_ADMIN_ROLE)`."
        }
      },
      "symbol()": {
        "details": "Returns the symbol of the token, usually a shorter version of the name."
      },
      "totalSupply()": {
        "details": "See {IERC20-totalSupply}."
      },
      "transfer(address,uint256)": {
        "details": "See {IERC20-transfer}.     * Requirements:     * - `recipient` cannot be the zero address. - the caller must have a balance of at least `amount`."
      },
      "transferFrom(address,address,uint256)": {
        "details": "See {IERC20-transferFrom}.     * Emits an {Approval} event indicating the updated allowance. This is not required by the EIP. See the note at the beginning of {ERC20};     * Requirements: - `sender` and `recipient` cannot be the zero address. - `sender` must have a balance of at least `amount`. - the caller must have allowance for ``sender``'s tokens of at least `amount`."
      },
      "unpause()": {
        "details": "Unpauses all token transfers.     * See {ERC20Pausable} and {Pausable-_unpause}.     * Requirements:     * - the caller must have the `PAUSER_ROLE`."
      }
    }
  },
  "userdoc": {
    "methods": {
      "claim(address)": {
        "notice": "the setAllowedAmounts function allows the admin to set a claimable amounts of bDSLA for claimers."
      },
      "constructor": "token name: bDSLA , token symbol: bDSLA",
      "setAllowedAmount(uint256,address)": {
        "notice": "the setAllowedAmount function allows the admin to set an amount of claimable bDSLA based on the balanceOf DSLA token of the claimer on the mainnet."
      },
      "setAllowedAmounts(uint256[],address[])": {
        "notice": "the setAllowedAmounts function allows the admin to set a claimable amounts of bDSLA for claimers."
      }
    }
  }
}