{
  "contractName": "Whitelist",
  "abi": [
    {
      "inputs": [
        {
          "internalType": "address",
          "name": "_owner",
          "type": "address"
        }
      ],
      "stateMutability": "nonpayable",
      "type": "constructor"
    },
    {
      "anonymous": false,
      "inputs": [
        {
          "indexed": true,
          "internalType": "address",
          "name": "previousOwner",
          "type": "address"
        },
        {
          "indexed": true,
          "internalType": "address",
          "name": "newOwner",
          "type": "address"
        }
      ],
      "name": "OwnershipTransferred",
      "type": "event"
    },
    {
      "anonymous": false,
      "inputs": [
        {
          "indexed": true,
          "internalType": "address",
          "name": "_userAddress",
          "type": "address"
        }
      ],
      "name": "UserAddedToWhitelist",
      "type": "event"
    },
    {
      "anonymous": false,
      "inputs": [
        {
          "indexed": true,
          "internalType": "address",
          "name": "_userAddress",
          "type": "address"
        }
      ],
      "name": "UserRemovedFromWhitelist",
      "type": "event"
    },
    {
      "inputs": [],
      "name": "owner",
      "outputs": [
        {
          "internalType": "address",
          "name": "",
          "type": "address"
        }
      ],
      "stateMutability": "view",
      "type": "function"
    },
    {
      "inputs": [],
      "name": "renounceOwnership",
      "outputs": [],
      "stateMutability": "nonpayable",
      "type": "function"
    },
    {
      "inputs": [
        {
          "internalType": "address",
          "name": "newOwner",
          "type": "address"
        }
      ],
      "name": "transferOwnership",
      "outputs": [],
      "stateMutability": "nonpayable",
      "type": "function"
    },
    {
      "inputs": [
        {
          "internalType": "address[]",
          "name": "_userAddresses",
          "type": "address[]"
        }
      ],
      "name": "addUsersToWhitelist",
      "outputs": [],
      "stateMutability": "nonpayable",
      "type": "function"
    },
    {
      "inputs": [
        {
          "internalType": "address",
          "name": "_userAddress",
          "type": "address"
        }
      ],
      "name": "addUserToWhitelist",
      "outputs": [],
      "stateMutability": "nonpayable",
      "type": "function"
    },
    {
      "inputs": [
        {
          "internalType": "address[]",
          "name": "_userAddresses",
          "type": "address[]"
        }
      ],
      "name": "removeUsersFromWhitelist",
      "outputs": [],
      "stateMutability": "nonpayable",
      "type": "function"
    },
    {
      "inputs": [
        {
          "internalType": "address",
          "name": "_userAddress",
          "type": "address"
        }
      ],
      "name": "removeUserFromWhitelist",
      "outputs": [],
      "stateMutability": "nonpayable",
      "type": "function"
    },
    {
      "inputs": [
        {
          "internalType": "address",
          "name": "_userAddress",
          "type": "address"
        }
      ],
      "name": "isWhitelisted",
      "outputs": [
        {
          "internalType": "bool",
          "name": "",
          "type": "bool"
        }
      ],
      "stateMutability": "view",
      "type": "function"
    }
  ],
  "bytecode": "0x608060405234801561001057600080fd5b50604051610ff7380380610ff78339818101604052602081101561003357600080fd5b8101908080519060200190929190505050600061005461010760201b60201c565b9050806000806101000a81548173ffffffffffffffffffffffffffffffffffffffff021916908373ffffffffffffffffffffffffffffffffffffffff1602179055508073ffffffffffffffffffffffffffffffffffffffff16600073ffffffffffffffffffffffffffffffffffffffff167f8be0079c531659141344cd1fd0a4f28419497f9722a3daafe3b4186f6b6457e060405160405180910390a3506101018161010f60201b60201c565b50610320565b600033905090565b61011d61010760201b60201c565b73ffffffffffffffffffffffffffffffffffffffff1660008054906101000a900473ffffffffffffffffffffffffffffffffffffffff1673ffffffffffffffffffffffffffffffffffffffff16146101dd576040517f08c379a00000000000000000000000000000000000000000000000000000000081526004018080602001828103825260208152602001807f4f776e61626c653a2063616c6c6572206973206e6f7420746865206f776e657281525060200191505060405180910390fd5b600073ffffffffffffffffffffffffffffffffffffffff168173ffffffffffffffffffffffffffffffffffffffff161415610263576040517f08c379a0000000000000000000000000000000000000000000000000000000008152600401808060200182810382526026815260200180610fd16026913960400191505060405180910390fd5b8073ffffffffffffffffffffffffffffffffffffffff1660008054906101000a900473ffffffffffffffffffffffffffffffffffffffff1673ffffffffffffffffffffffffffffffffffffffff167f8be0079c531659141344cd1fd0a4f28419497f9722a3daafe3b4186f6b6457e060405160405180910390a3806000806101000a81548173ffffffffffffffffffffffffffffffffffffffff021916908373ffffffffffffffffffffffffffffffffffffffff16021790555050565b610ca28061032f6000396000f3fe608060405234801561001057600080fd5b50600436106100885760003560e01c80638d21c7701161005b5780638d21c770146101ed5780638da5cb5b146102a5578063f2fde38b146102d9578063f9902bb11461031d57610088565b80633af32abf1461008d5780635ae698ff146100e7578063715018a61461019f578063747b8050146101a9575b600080fd5b6100cf600480360360208110156100a357600080fd5b81019080803573ffffffffffffffffffffffffffffffffffffffff169060200190929190505050610361565b60405180821515815260200191505060405180910390f35b61019d600480360360208110156100fd57600080fd5b810190808035906020019064010000000081111561011a57600080fd5b82018360208201111561012c57600080fd5b8035906020019184602083028401116401000000008311171561014e57600080fd5b919080806020026020016040519081016040528093929190818152602001838360200280828437600081840152601f19601f8201169050808301925050505050505091929192905050506103b7565b005b6101a76104b8565b005b6101eb600480360360208110156101bf57600080fd5b81019080803573ffffffffffffffffffffffffffffffffffffffff16906020019092919050505061063e565b005b6102a36004803603602081101561020357600080fd5b810190808035906020019064010000000081111561022057600080fd5b82018360208201111561023257600080fd5b8035906020019184602083028401116401000000008311171561025457600080fd5b919080806020026020016040519081016040528093929190818152602001838360200280828437600081840152601f19601f8201169050808301925050505050505091929192905050506107a3565b005b6102ad6108a4565b604051808273ffffffffffffffffffffffffffffffffffffffff16815260200191505060405180910390f35b61031b600480360360208110156102ef57600080fd5b81019080803573ffffffffffffffffffffffffffffffffffffffff1690602001909291905050506108cd565b005b61035f6004803603602081101561033357600080fd5b81019080803573ffffffffffffffffffffffffffffffffffffffff169060200190929190505050610ad8565b005b6000600160008373ffffffffffffffffffffffffffffffffffffffff1673ffffffffffffffffffffffffffffffffffffffff16815260200190815260200160002060009054906101000a900460ff169050919050565b6103bf610c3e565b73ffffffffffffffffffffffffffffffffffffffff1660008054906101000a900473ffffffffffffffffffffffffffffffffffffffff1673ffffffffffffffffffffffffffffffffffffffff161461047f576040517f08c379a00000000000000000000000000000000000000000000000000000000081526004018080602001828103825260208152602001807f4f776e61626c653a2063616c6c6572206973206e6f7420746865206f776e657281525060200191505060405180910390fd5b60005b81518110156104b4576104a782828151811061049a57fe5b602002602001015161063e565b8080600101915050610482565b5050565b6104c0610c3e565b73ffffffffffffffffffffffffffffffffffffffff1660008054906101000a900473ffffffffffffffffffffffffffffffffffffffff1673ffffffffffffffffffffffffffffffffffffffff1614610580576040517f08c379a00000000000000000000000000000000000000000000000000000000081526004018080602001828103825260208152602001807f4f776e61626c653a2063616c6c6572206973206e6f7420746865206f776e657281525060200191505060405180910390fd5b600073ffffffffffffffffffffffffffffffffffffffff1660008054906101000a900473ffffffffffffffffffffffffffffffffffffffff1673ffffffffffffffffffffffffffffffffffffffff167f8be0079c531659141344cd1fd0a4f28419497f9722a3daafe3b4186f6b6457e060405160405180910390a360008060006101000a81548173ffffffffffffffffffffffffffffffffffffffff021916908373ffffffffffffffffffffffffffffffffffffffff160217905550565b610646610c3e565b73ffffffffffffffffffffffffffffffffffffffff1660008054906101000a900473ffffffffffffffffffffffffffffffffffffffff1673ffffffffffffffffffffffffffffffffffffffff1614610706576040517f08c379a00000000000000000000000000000000000000000000000000000000081526004018080602001828103825260208152602001807f4f776e61626c653a2063616c6c6572206973206e6f7420746865206f776e657281525060200191505060405180910390fd5b60018060008373ffffffffffffffffffffffffffffffffffffffff1673ffffffffffffffffffffffffffffffffffffffff16815260200190815260200160002060006101000a81548160ff0219169083151502179055508073ffffffffffffffffffffffffffffffffffffffff167f3ebdc59c5154f681813582b63e04d503c44f515f80fa2d558d663f4e3fdf508a60405160405180910390a250565b6107ab610c3e565b73ffffffffffffffffffffffffffffffffffffffff1660008054906101000a900473ffffffffffffffffffffffffffffffffffffffff1673ffffffffffffffffffffffffffffffffffffffff161461086b576040517f08c379a00000000000000000000000000000000000000000000000000000000081526004018080602001828103825260208152602001807f4f776e61626c653a2063616c6c6572206973206e6f7420746865206f776e657281525060200191505060405180910390fd5b60005b81518110156108a05761089382828151811061088657fe5b6020026020010151610ad8565b808060010191505061086e565b5050565b60008060009054906101000a900473ffffffffffffffffffffffffffffffffffffffff16905090565b6108d5610c3e565b73ffffffffffffffffffffffffffffffffffffffff1660008054906101000a900473ffffffffffffffffffffffffffffffffffffffff1673ffffffffffffffffffffffffffffffffffffffff1614610995576040517f08c379a00000000000000000000000000000000000000000000000000000000081526004018080602001828103825260208152602001807f4f776e61626c653a2063616c6c6572206973206e6f7420746865206f776e657281525060200191505060405180910390fd5b600073ffffffffffffffffffffffffffffffffffffffff168173ffffffffffffffffffffffffffffffffffffffff161415610a1b576040517f08c379a0000000000000000000000000000000000000000000000000000000008152600401808060200182810382526026815260200180610c476026913960400191505060405180910390fd5b8073ffffffffffffffffffffffffffffffffffffffff1660008054906101000a900473ffffffffffffffffffffffffffffffffffffffff1673ffffffffffffffffffffffffffffffffffffffff167f8be0079c531659141344cd1fd0a4f28419497f9722a3daafe3b4186f6b6457e060405160405180910390a3806000806101000a81548173ffffffffffffffffffffffffffffffffffffffff021916908373ffffffffffffffffffffffffffffffffffffffff16021790555050565b610ae0610c3e565b73ffffffffffffffffffffffffffffffffffffffff1660008054906101000a900473ffffffffffffffffffffffffffffffffffffffff1673ffffffffffffffffffffffffffffffffffffffff1614610ba0576040517f08c379a00000000000000000000000000000000000000000000000000000000081526004018080602001828103825260208152602001807f4f776e61626c653a2063616c6c6572206973206e6f7420746865206f776e657281525060200191505060405180910390fd5b6000600160008373ffffffffffffffffffffffffffffffffffffffff1673ffffffffffffffffffffffffffffffffffffffff16815260200190815260200160002060006101000a81548160ff0219169083151502179055508073ffffffffffffffffffffffffffffffffffffffff167fe285bb51ee9ef78b36fb9eca52aede9c9f4234d2bb72917200f87005edb25a5560405160405180910390a250565b60003390509056fe4f776e61626c653a206e6577206f776e657220697320746865207a65726f2061646472657373a2646970667358221220e8bcac6084a1bc1627ec5babca50885a6730cfa967f4823d195cfbc6236f527964736f6c634300060c00334f776e61626c653a206e6577206f776e657220697320746865207a65726f2061646472657373",
  "immutableReferences": {},
  "source": "// SPDX-License-Identifier: MIT\npragma solidity ^0.6.0;\n\nimport \"@openzeppelin/contracts/access/Ownable.sol\";\n\n/**\n * @title Whitelist\n * @dev Whitelist is a whitelisting contract to check if users are allowed\n * to perform specific actions\n */\ncontract Whitelist is Ownable {\n\n    // mapping to store which user addresses are whitelisted\n    mapping(address => bool) private userToWhitelisted;\n\n    /**\n     * @dev event for logging when a user address has been added to the\n     * whitelist\n     * @param _userAddress address of the user that has been added to the\n     * whitelist\n     */\n    event UserAddedToWhitelist(address indexed _userAddress);\n\n    /**\n     * @dev event for logging when a user address has been removed from\n     * the whitelist\n     * @param _userAddress address of the user that has been removed from the\n     * whitelist\n     */\n    event UserRemovedFromWhitelist(address indexed _userAddress);\n\n    /**\n     * @dev constructor\n     * @param _owner The address of the owner of the contract\n     */\n    constructor(address _owner) public {\n        transferOwnership(_owner);\n    }\n\n    /**\n     * @dev public function for adding multiple users to the whitelist\n     * @param _userAddresses array of user addresses to add to the whitelist\n     */\n    function addUsersToWhitelist(address[] memory _userAddresses) public onlyOwner {\n        for (uint i = 0; i < _userAddresses.length; i++) {\n            addUserToWhitelist(_userAddresses[i]);\n        }\n    }\n\n    /**\n     * @dev public function for adding a user to the whitelist\n     * @param _userAddress address of a user to add to the whitelist\n     */\n    function addUserToWhitelist(address _userAddress) public onlyOwner {\n        userToWhitelisted[_userAddress] = true;\n        emit UserAddedToWhitelist(_userAddress);\n    }\n\n    /**\n     * @dev public function for removing multiple users from the whitelist\n     * @param _userAddresses array of user addresses to remove from the whitelist\n     */\n    function removeUsersFromWhitelist(address[] memory _userAddresses) public onlyOwner {\n        for (uint i = 0; i < _userAddresses.length; i++) {\n            removeUserFromWhitelist(_userAddresses[i]);\n        }\n    }\n\n    /**\n     * @dev public function for removing a user from the whitelist\n     * @param _userAddress address of a user to remove from the whitelist\n     */\n    function removeUserFromWhitelist(address _userAddress) public onlyOwner {\n        userToWhitelisted[_userAddress] = false;\n        emit UserRemovedFromWhitelist(_userAddress);\n    }\n\n    /**\n     * @dev public view function to check if the given user is whitelisted\n     * @param _userAddress the address of the user to check\n     * @return true if the user is whitelisted\n     */\n    function isWhitelisted(address _userAddress) public view returns(bool) {\n        return(userToWhitelisted[_userAddress]);\n    }\n\n}\n",
  "sourcePath": "/Users/wilhempujar/Development/stacktical-dsla-contracts/contracts/Whitelist/Whitelist.sol",
  "compiler": {
    "name": "solc",
    "version": "0.6.12+commit.27d51765.Emscripten.clang"
  },
  "schemaVersion": "3.2.5",
  "updatedAt": "2020-10-16T11:30:57.840Z",
  "devdoc": {
    "details": "Whitelist is a whitelisting contract to check if users are allowed to perform specific actions",
    "events": {
      "UserAddedToWhitelist(address)": {
        "details": "event for logging when a user address has been added to the whitelist",
        "params": {
          "_userAddress": "address of the user that has been added to the whitelist"
        }
      },
      "UserRemovedFromWhitelist(address)": {
        "details": "event for logging when a user address has been removed from the whitelist",
        "params": {
          "_userAddress": "address of the user that has been removed from the whitelist"
        }
      }
    },
    "kind": "dev",
    "methods": {
      "addUserToWhitelist(address)": {
        "details": "public function for adding a user to the whitelist",
        "params": {
          "_userAddress": "address of a user to add to the whitelist"
        }
      },
      "addUsersToWhitelist(address[])": {
        "details": "public function for adding multiple users to the whitelist",
        "params": {
          "_userAddresses": "array of user addresses to add to the whitelist"
        }
      },
      "constructor": {
        "details": "constructor",
        "params": {
          "_owner": "The address of the owner of the contract"
        }
      },
      "isWhitelisted(address)": {
        "details": "public view function to check if the given user is whitelisted",
        "params": {
          "_userAddress": "the address of the user to check"
        },
        "returns": {
          "_0": "true if the user is whitelisted"
        }
      },
      "owner()": {
        "details": "Returns the address of the current owner."
      },
      "removeUserFromWhitelist(address)": {
        "details": "public function for removing a user from the whitelist",
        "params": {
          "_userAddress": "address of a user to remove from the whitelist"
        }
      },
      "removeUsersFromWhitelist(address[])": {
        "details": "public function for removing multiple users from the whitelist",
        "params": {
          "_userAddresses": "array of user addresses to remove from the whitelist"
        }
      },
      "renounceOwnership()": {
        "details": "Leaves the contract without owner. It will not be possible to call `onlyOwner` functions anymore. Can only be called by the current owner. NOTE: Renouncing ownership will leave the contract without an owner, thereby removing any functionality that is only available to the owner."
      },
      "transferOwnership(address)": {
        "details": "Transfers ownership of the contract to a new account (`newOwner`). Can only be called by the current owner."
      }
    },
    "title": "Whitelist",
    "version": 1
  },
  "userdoc": {
    "kind": "user",
    "methods": {},
    "version": 1
  }
}