{
  "contractName": "Whitelist",
  "abi": [
    {
      "constant": false,
      "inputs": [],
      "name": "renounceOwnership",
      "outputs": [],
      "payable": false,
      "stateMutability": "nonpayable",
      "type": "function"
    },
    {
      "constant": true,
      "inputs": [],
      "name": "owner",
      "outputs": [
        {
          "name": "",
          "type": "address"
        }
      ],
      "payable": false,
      "stateMutability": "view",
      "type": "function"
    },
    {
      "constant": true,
      "inputs": [],
      "name": "isOwner",
      "outputs": [
        {
          "name": "",
          "type": "bool"
        }
      ],
      "payable": false,
      "stateMutability": "view",
      "type": "function"
    },
    {
      "constant": false,
      "inputs": [
        {
          "name": "newOwner",
          "type": "address"
        }
      ],
      "name": "transferOwnership",
      "outputs": [],
      "payable": false,
      "stateMutability": "nonpayable",
      "type": "function"
    },
    {
      "inputs": [
        {
          "name": "_owner",
          "type": "address"
        }
      ],
      "payable": false,
      "stateMutability": "nonpayable",
      "type": "constructor"
    },
    {
      "anonymous": false,
      "inputs": [
        {
          "indexed": true,
          "name": "_userAddress",
          "type": "address"
        }
      ],
      "name": "UserAddedToWhitelist",
      "type": "event"
    },
    {
      "anonymous": false,
      "inputs": [
        {
          "indexed": true,
          "name": "_userAddress",
          "type": "address"
        }
      ],
      "name": "UserRemovedFromWhitelist",
      "type": "event"
    },
    {
      "anonymous": false,
      "inputs": [
        {
          "indexed": true,
          "name": "previousOwner",
          "type": "address"
        },
        {
          "indexed": true,
          "name": "newOwner",
          "type": "address"
        }
      ],
      "name": "OwnershipTransferred",
      "type": "event"
    },
    {
      "constant": false,
      "inputs": [
        {
          "name": "_userAddresses",
          "type": "address[]"
        }
      ],
      "name": "addUsersToWhitelist",
      "outputs": [],
      "payable": false,
      "stateMutability": "nonpayable",
      "type": "function"
    },
    {
      "constant": false,
      "inputs": [
        {
          "name": "_userAddress",
          "type": "address"
        }
      ],
      "name": "addUserToWhitelist",
      "outputs": [],
      "payable": false,
      "stateMutability": "nonpayable",
      "type": "function"
    },
    {
      "constant": false,
      "inputs": [
        {
          "name": "_userAddresses",
          "type": "address[]"
        }
      ],
      "name": "removeUsersFromWhitelist",
      "outputs": [],
      "payable": false,
      "stateMutability": "nonpayable",
      "type": "function"
    },
    {
      "constant": false,
      "inputs": [
        {
          "name": "_userAddress",
          "type": "address"
        }
      ],
      "name": "removeUserFromWhitelist",
      "outputs": [],
      "payable": false,
      "stateMutability": "nonpayable",
      "type": "function"
    },
    {
      "constant": true,
      "inputs": [
        {
          "name": "_userAddress",
          "type": "address"
        }
      ],
      "name": "isWhitelisted",
      "outputs": [
        {
          "name": "",
          "type": "bool"
        }
      ],
      "payable": false,
      "stateMutability": "view",
      "type": "function"
    }
  ],
  "bytecode": "0x608060405234801561001057600080fd5b50604051602080610b1d8339810180604052602081101561003057600080fd5b8101908080519060200190929190505050336000806101000a81548173ffffffffffffffffffffffffffffffffffffffff021916908373ffffffffffffffffffffffffffffffffffffffff1602179055506000809054906101000a900473ffffffffffffffffffffffffffffffffffffffff1673ffffffffffffffffffffffffffffffffffffffff16600073ffffffffffffffffffffffffffffffffffffffff167f8be0079c531659141344cd1fd0a4f28419497f9722a3daafe3b4186f6b6457e060405160405180910390a361010c8161011260201b60201c565b5061028a565b61012061013b60201b60201c565b61012957600080fd5b6101388161019260201b60201c565b50565b60008060009054906101000a900473ffffffffffffffffffffffffffffffffffffffff1673ffffffffffffffffffffffffffffffffffffffff163373ffffffffffffffffffffffffffffffffffffffff1614905090565b600073ffffffffffffffffffffffffffffffffffffffff168173ffffffffffffffffffffffffffffffffffffffff1614156101cc57600080fd5b8073ffffffffffffffffffffffffffffffffffffffff166000809054906101000a900473ffffffffffffffffffffffffffffffffffffffff1673ffffffffffffffffffffffffffffffffffffffff167f8be0079c531659141344cd1fd0a4f28419497f9722a3daafe3b4186f6b6457e060405160405180910390a3806000806101000a81548173ffffffffffffffffffffffffffffffffffffffff021916908373ffffffffffffffffffffffffffffffffffffffff16021790555050565b610884806102996000396000f3fe608060405234801561001057600080fd5b50600436106100935760003560e01c80638d21c770116100665780638d21c770146101fa5780638da5cb5b146102b25780638f32d59b146102fc578063f2fde38b1461031e578063f9902bb11461036257610093565b80633af32abf146100985780635ae698ff146100f4578063715018a6146101ac578063747b8050146101b6575b600080fd5b6100da600480360360208110156100ae57600080fd5b81019080803573ffffffffffffffffffffffffffffffffffffffff1690602001909291905050506103a6565b604051808215151515815260200191505060405180910390f35b6101aa6004803603602081101561010a57600080fd5b810190808035906020019064010000000081111561012757600080fd5b82018360208201111561013957600080fd5b8035906020019184602083028401116401000000008311171561015b57600080fd5b919080806020026020016040519081016040528093929190818152602001838360200280828437600081840152601f19601f8201169050808301925050505050505091929192905050506103fc565b005b6101b4610449565b005b6101f8600480360360208110156101cc57600080fd5b81019080803573ffffffffffffffffffffffffffffffffffffffff169060200190929190505050610519565b005b6102b06004803603602081101561021057600080fd5b810190808035906020019064010000000081111561022d57600080fd5b82018360208201111561023f57600080fd5b8035906020019184602083028401116401000000008311171561026157600080fd5b919080806020026020016040519081016040528093929190818152602001838360200280828437600081840152601f19601f8201169050808301925050505050505091929192905050506105c7565b005b6102ba610614565b604051808273ffffffffffffffffffffffffffffffffffffffff1673ffffffffffffffffffffffffffffffffffffffff16815260200191505060405180910390f35b61030461063d565b604051808215151515815260200191505060405180910390f35b6103606004803603602081101561033457600080fd5b81019080803573ffffffffffffffffffffffffffffffffffffffff169060200190929190505050610694565b005b6103a46004803603602081101561037857600080fd5b81019080803573ffffffffffffffffffffffffffffffffffffffff1690602001909291905050506106b1565b005b6000600160008373ffffffffffffffffffffffffffffffffffffffff1673ffffffffffffffffffffffffffffffffffffffff16815260200190815260200160002060009054906101000a900460ff169050919050565b61040461063d565b61040d57600080fd5b60008090505b81518110156104455761043882828151811061042b57fe5b6020026020010151610519565b8080600101915050610413565b5050565b61045161063d565b61045a57600080fd5b600073ffffffffffffffffffffffffffffffffffffffff166000809054906101000a900473ffffffffffffffffffffffffffffffffffffffff1673ffffffffffffffffffffffffffffffffffffffff167f8be0079c531659141344cd1fd0a4f28419497f9722a3daafe3b4186f6b6457e060405160405180910390a360008060006101000a81548173ffffffffffffffffffffffffffffffffffffffff021916908373ffffffffffffffffffffffffffffffffffffffff160217905550565b61052161063d565b61052a57600080fd5b60018060008373ffffffffffffffffffffffffffffffffffffffff1673ffffffffffffffffffffffffffffffffffffffff16815260200190815260200160002060006101000a81548160ff0219169083151502179055508073ffffffffffffffffffffffffffffffffffffffff167f3ebdc59c5154f681813582b63e04d503c44f515f80fa2d558d663f4e3fdf508a60405160405180910390a250565b6105cf61063d565b6105d857600080fd5b60008090505b8151811015610610576106038282815181106105f657fe5b60200260200101516106b1565b80806001019150506105de565b5050565b60008060009054906101000a900473ffffffffffffffffffffffffffffffffffffffff16905090565b60008060009054906101000a900473ffffffffffffffffffffffffffffffffffffffff1673ffffffffffffffffffffffffffffffffffffffff163373ffffffffffffffffffffffffffffffffffffffff1614905090565b61069c61063d565b6106a557600080fd5b6106ae81610760565b50565b6106b961063d565b6106c257600080fd5b6000600160008373ffffffffffffffffffffffffffffffffffffffff1673ffffffffffffffffffffffffffffffffffffffff16815260200190815260200160002060006101000a81548160ff0219169083151502179055508073ffffffffffffffffffffffffffffffffffffffff167fe285bb51ee9ef78b36fb9eca52aede9c9f4234d2bb72917200f87005edb25a5560405160405180910390a250565b600073ffffffffffffffffffffffffffffffffffffffff168173ffffffffffffffffffffffffffffffffffffffff16141561079a57600080fd5b8073ffffffffffffffffffffffffffffffffffffffff166000809054906101000a900473ffffffffffffffffffffffffffffffffffffffff1673ffffffffffffffffffffffffffffffffffffffff167f8be0079c531659141344cd1fd0a4f28419497f9722a3daafe3b4186f6b6457e060405160405180910390a3806000806101000a81548173ffffffffffffffffffffffffffffffffffffffff021916908373ffffffffffffffffffffffffffffffffffffffff1602179055505056fea165627a7a723058206a59f5cc48273f1f15f283a4f3586a79f09a8ff2413fb840ffc5d2a29d1331140029",
  "source": "pragma solidity 0.5.7;\n\nimport \"openzeppelin-solidity/contracts/ownership/Ownable.sol\";\n\n/**\n * @title Whitelist\n * @dev Whitelist is a whitelisting contract to check if users are allowed\n * to perform specific actions\n */\ncontract Whitelist is Ownable {\n\n    // mapping to store which user addresses are whitelisted\n    mapping(address => bool) private userToWhitelisted;\n\n    /**\n     * @dev event for logging when a user address has been added to the\n     * whitelist\n     * @param _userAddress address of the user that has been added to the\n     * whitelist\n     */\n    event UserAddedToWhitelist(address indexed _userAddress);\n\n    /**\n     * @dev event for logging when a user address has been removed from\n     * the whitelist\n     * @param _userAddress address of the user that has been removed from the\n     * whitelist\n     */\n    event UserRemovedFromWhitelist(address indexed _userAddress);\n\n    /**\n     * @dev constructor\n     * @param _owner The address of the owner of the contract\n     */\n    constructor(address _owner) public {\n        transferOwnership(_owner);\n    }\n\n    /**\n     * @dev public function for adding multiple users to the whitelist\n     * @param _userAddresses array of user addresses to add to the whitelist\n     */\n    function addUsersToWhitelist(address[] memory _userAddresses) public onlyOwner {\n        for (uint i = 0; i < _userAddresses.length; i++) {\n            addUserToWhitelist(_userAddresses[i]);\n        }\n    }\n\n    /**\n     * @dev public function for adding a user to the whitelist\n     * @param _userAddress address of a user to add to the whitelist\n     */\n    function addUserToWhitelist(address _userAddress) public onlyOwner {\n        userToWhitelisted[_userAddress] = true;\n        emit UserAddedToWhitelist(_userAddress);\n    }\n\n    /**\n     * @dev public function for removing multiple users from the whitelist\n     * @param _userAddresses array of user addresses to remove from the whitelist\n     */\n    function removeUsersFromWhitelist(address[] memory _userAddresses) public onlyOwner {\n        for (uint i = 0; i < _userAddresses.length; i++) {\n            removeUserFromWhitelist(_userAddresses[i]);\n        }\n    }\n\n    /**\n     * @dev public function for removing a user from the whitelist\n     * @param _userAddress address of a user to remove from the whitelist\n     */\n    function removeUserFromWhitelist(address _userAddress) public onlyOwner {\n        userToWhitelisted[_userAddress] = false;\n        emit UserRemovedFromWhitelist(_userAddress);\n    }\n\n    /**\n     * @dev public view function to check if the given user is whitelisted\n     * @param _userAddress the address of the user to check\n     * @return true if the user is whitelisted\n     */\n    function isWhitelisted(address _userAddress) public view returns(bool) {\n        return(userToWhitelisted[_userAddress]);\n    }\n\n}\n",
  "sourcePath": "/Users/matiasbn/Desktop/stacktical-dsla-contracts/contracts/Whitelist/Whitelist.sol",
  "compiler": {
    "name": "solc",
    "version": "0.5.7+commit.6da8b019.Emscripten.clang"
  },
  "schemaVersion": "3.2.5",
  "updatedAt": "2020-11-22T18:15:09.034Z",
  "devdoc": {
    "details": "Whitelist is a whitelisting contract to check if users are allowed to perform specific actions",
    "methods": {
      "addUserToWhitelist(address)": {
        "details": "public function for adding a user to the whitelist",
        "params": {
          "_userAddress": "address of a user to add to the whitelist"
        }
      },
      "addUsersToWhitelist(address[])": {
        "details": "public function for adding multiple users to the whitelist",
        "params": {
          "_userAddresses": "array of user addresses to add to the whitelist"
        }
      },
      "constructor": {
        "details": "constructor",
        "params": {
          "_owner": "The address of the owner of the contract"
        }
      },
      "isOwner()": {
        "return": "true if `msg.sender` is the owner of the contract."
      },
      "isWhitelisted(address)": {
        "details": "public view function to check if the given user is whitelisted",
        "params": {
          "_userAddress": "the address of the user to check"
        },
        "return": "true if the user is whitelisted"
      },
      "owner()": {
        "return": "the address of the owner."
      },
      "removeUserFromWhitelist(address)": {
        "details": "public function for removing a user from the whitelist",
        "params": {
          "_userAddress": "address of a user to remove from the whitelist"
        }
      },
      "removeUsersFromWhitelist(address[])": {
        "details": "public function for removing multiple users from the whitelist",
        "params": {
          "_userAddresses": "array of user addresses to remove from the whitelist"
        }
      },
      "renounceOwnership()": {
        "details": "Allows the current owner to relinquish control of the contract."
      },
      "transferOwnership(address)": {
        "details": "Allows the current owner to transfer control of the contract to a newOwner.",
        "params": {
          "newOwner": "The address to transfer ownership to."
        }
      }
    },
    "title": "Whitelist"
  },
  "userdoc": {
    "methods": {
      "renounceOwnership()": {
        "notice": "Renouncing to ownership will leave the contract without an owner. It will not be possible to call the functions with the `onlyOwner` modifier anymore."
      }
    }
  }
}