{
  "contractName": "WhitelistRegistry",
  "abi": [
    {
      "anonymous": false,
      "inputs": [
        {
          "indexed": true,
          "name": "whitelist",
          "type": "address"
        }
      ],
      "name": "WhitelistCreated",
      "type": "event",
      "signature": "0x3aaa159995532a09d71082a9df6247e5c5846856e24e293fd65e164ed48233f4"
    },
    {
      "constant": false,
      "inputs": [],
      "name": "createWhitelist",
      "outputs": [],
      "payable": false,
      "stateMutability": "nonpayable",
      "type": "function",
      "signature": "0x27e11b52"
    },
    {
      "constant": true,
      "inputs": [
        {
          "name": "_user",
          "type": "address"
        }
      ],
      "name": "userWhitelists",
      "outputs": [
        {
          "name": "",
          "type": "address[]"
        }
      ],
      "payable": false,
      "stateMutability": "view",
      "type": "function",
      "signature": "0x9baf53dc"
    }
  ],
  "bytecode": "0x608060405234801561001057600080fd5b50610ea1806100206000396000f3fe608060405234801561001057600080fd5b5060043610610053576000357c01000000000000000000000000000000000000000000000000000000009004806327e11b52146100585780639baf53dc14610062575b600080fd5b6100606100fb565b005b6100a46004803603602081101561007857600080fd5b81019080803573ffffffffffffffffffffffffffffffffffffffff169060200190929190505050610247565b6040518080602001828103825283818151815260200191508051906020019060200280838360005b838110156100e75780820151818401526020810190506100cc565b505050509050019250505060405180910390f35b60003360405161010a90610313565b808273ffffffffffffffffffffffffffffffffffffffff1673ffffffffffffffffffffffffffffffffffffffff168152602001915050604051809103906000f08015801561015c573d6000803e3d6000fd5b5090506000803373ffffffffffffffffffffffffffffffffffffffff1673ffffffffffffffffffffffffffffffffffffffff1681526020019081526020016000208190806001815401808255809150509060018203906000526020600020016000909192909190916101000a81548173ffffffffffffffffffffffffffffffffffffffff021916908373ffffffffffffffffffffffffffffffffffffffff160217905550508073ffffffffffffffffffffffffffffffffffffffff167f3aaa159995532a09d71082a9df6247e5c5846856e24e293fd65e164ed48233f460405160405180910390a250565b60606000808373ffffffffffffffffffffffffffffffffffffffff1673ffffffffffffffffffffffffffffffffffffffff16815260200190815260200160002080548060200260200160405190810160405280929190818152602001828054801561030757602002820191906000526020600020905b8160009054906101000a900473ffffffffffffffffffffffffffffffffffffffff1673ffffffffffffffffffffffffffffffffffffffff16815260200190600101908083116102bd575b50505050509050919050565b610b55806103218339019056fe608060405234801561001057600080fd5b50604051602080610b558339810180604052602081101561003057600080fd5b8101908080519060200190929190505050336000806101000a81548173ffffffffffffffffffffffffffffffffffffffff021916908373ffffffffffffffffffffffffffffffffffffffff1602179055506000809054906101000a900473ffffffffffffffffffffffffffffffffffffffff1673ffffffffffffffffffffffffffffffffffffffff16600073ffffffffffffffffffffffffffffffffffffffff167f8be0079c531659141344cd1fd0a4f28419497f9722a3daafe3b4186f6b6457e060405160405180910390a36101158161011b640100000000026401000000009004565b506102a5565b610132610156640100000000026401000000009004565b61013b57600080fd5b610153816101ad640100000000026401000000009004565b50565b60008060009054906101000a900473ffffffffffffffffffffffffffffffffffffffff1673ffffffffffffffffffffffffffffffffffffffff163373ffffffffffffffffffffffffffffffffffffffff1614905090565b600073ffffffffffffffffffffffffffffffffffffffff168173ffffffffffffffffffffffffffffffffffffffff1614156101e757600080fd5b8073ffffffffffffffffffffffffffffffffffffffff166000809054906101000a900473ffffffffffffffffffffffffffffffffffffffff1673ffffffffffffffffffffffffffffffffffffffff167f8be0079c531659141344cd1fd0a4f28419497f9722a3daafe3b4186f6b6457e060405160405180910390a3806000806101000a81548173ffffffffffffffffffffffffffffffffffffffff021916908373ffffffffffffffffffffffffffffffffffffffff16021790555050565b6108a1806102b46000396000f3fe608060405234801561001057600080fd5b50600436106100b0576000357c0100000000000000000000000000000000000000000000000000000000900480638d21c770116100835780638d21c770146102175780638da5cb5b146102cf5780638f32d59b14610319578063f2fde38b1461033b578063f9902bb11461037f576100b0565b80633af32abf146100b55780635ae698ff14610111578063715018a6146101c9578063747b8050146101d3575b600080fd5b6100f7600480360360208110156100cb57600080fd5b81019080803573ffffffffffffffffffffffffffffffffffffffff1690602001909291905050506103c3565b604051808215151515815260200191505060405180910390f35b6101c76004803603602081101561012757600080fd5b810190808035906020019064010000000081111561014457600080fd5b82018360208201111561015657600080fd5b8035906020019184602083028401116401000000008311171561017857600080fd5b919080806020026020016040519081016040528093929190818152602001838360200280828437600081840152601f19601f820116905080830192505050505050509192919290505050610419565b005b6101d1610466565b005b610215600480360360208110156101e957600080fd5b81019080803573ffffffffffffffffffffffffffffffffffffffff169060200190929190505050610536565b005b6102cd6004803603602081101561022d57600080fd5b810190808035906020019064010000000081111561024a57600080fd5b82018360208201111561025c57600080fd5b8035906020019184602083028401116401000000008311171561027e57600080fd5b919080806020026020016040519081016040528093929190818152602001838360200280828437600081840152601f19601f8201169050808301925050505050505091929192905050506105e4565b005b6102d7610631565b604051808273ffffffffffffffffffffffffffffffffffffffff1673ffffffffffffffffffffffffffffffffffffffff16815260200191505060405180910390f35b61032161065a565b604051808215151515815260200191505060405180910390f35b61037d6004803603602081101561035157600080fd5b81019080803573ffffffffffffffffffffffffffffffffffffffff1690602001909291905050506106b1565b005b6103c16004803603602081101561039557600080fd5b81019080803573ffffffffffffffffffffffffffffffffffffffff1690602001909291905050506106ce565b005b6000600160008373ffffffffffffffffffffffffffffffffffffffff1673ffffffffffffffffffffffffffffffffffffffff16815260200190815260200160002060009054906101000a900460ff169050919050565b61042161065a565b61042a57600080fd5b60008090505b81518110156104625761045582828151811061044857fe5b6020026020010151610536565b8080600101915050610430565b5050565b61046e61065a565b61047757600080fd5b600073ffffffffffffffffffffffffffffffffffffffff166000809054906101000a900473ffffffffffffffffffffffffffffffffffffffff1673ffffffffffffffffffffffffffffffffffffffff167f8be0079c531659141344cd1fd0a4f28419497f9722a3daafe3b4186f6b6457e060405160405180910390a360008060006101000a81548173ffffffffffffffffffffffffffffffffffffffff021916908373ffffffffffffffffffffffffffffffffffffffff160217905550565b61053e61065a565b61054757600080fd5b60018060008373ffffffffffffffffffffffffffffffffffffffff1673ffffffffffffffffffffffffffffffffffffffff16815260200190815260200160002060006101000a81548160ff0219169083151502179055508073ffffffffffffffffffffffffffffffffffffffff167f3ebdc59c5154f681813582b63e04d503c44f515f80fa2d558d663f4e3fdf508a60405160405180910390a250565b6105ec61065a565b6105f557600080fd5b60008090505b815181101561062d5761062082828151811061061357fe5b60200260200101516106ce565b80806001019150506105fb565b5050565b60008060009054906101000a900473ffffffffffffffffffffffffffffffffffffffff16905090565b60008060009054906101000a900473ffffffffffffffffffffffffffffffffffffffff1673ffffffffffffffffffffffffffffffffffffffff163373ffffffffffffffffffffffffffffffffffffffff1614905090565b6106b961065a565b6106c257600080fd5b6106cb8161077d565b50565b6106d661065a565b6106df57600080fd5b6000600160008373ffffffffffffffffffffffffffffffffffffffff1673ffffffffffffffffffffffffffffffffffffffff16815260200190815260200160002060006101000a81548160ff0219169083151502179055508073ffffffffffffffffffffffffffffffffffffffff167fe285bb51ee9ef78b36fb9eca52aede9c9f4234d2bb72917200f87005edb25a5560405160405180910390a250565b600073ffffffffffffffffffffffffffffffffffffffff168173ffffffffffffffffffffffffffffffffffffffff1614156107b757600080fd5b8073ffffffffffffffffffffffffffffffffffffffff166000809054906101000a900473ffffffffffffffffffffffffffffffffffffffff1673ffffffffffffffffffffffffffffffffffffffff167f8be0079c531659141344cd1fd0a4f28419497f9722a3daafe3b4186f6b6457e060405160405180910390a3806000806101000a81548173ffffffffffffffffffffffffffffffffffffffff021916908373ffffffffffffffffffffffffffffffffffffffff1602179055505056fea165627a7a72305820f863ca5b5f3563f00833ead729ddd3b99a0f7bf7fcf32e45985cb34c137ff7120029a165627a7a7230582068992e28184cde3e90960d72acf4da8c345cc47a0c72dc79bf577a0d071053980029",
  "source": "pragma solidity 0.5.7;\n\nimport \"./Whitelist/Whitelist.sol\";\n\n/**\n * @title WhitelistRegistry\n * @dev WhitelistRegistry is a contract for handling creation of whitelists\n * and querying those whitelists\n */\ncontract WhitelistRegistry {\n\n    // Mapping that stores the whitelists owned by a user\n    mapping(address => Whitelist[]) private userToWhitelists;\n\n    /**\n     * @dev event for whitelist creation logging\n     * @param whitelist the address of the created whitelist contract\n     */\n    event WhitelistCreated(Whitelist indexed whitelist);\n\n    /**\n     * @dev public function for creating whitelists\n     */\n    function createWhitelist() public {\n        Whitelist whitelist = new Whitelist(msg.sender);\n        userToWhitelists[msg.sender].push(whitelist);\n\n        emit WhitelistCreated(whitelist);\n    }\n\n    /**\n     * @dev public view function that returns the whitelists that are owned by\n     * the given user\n     * @param _user Address of the user for which to return the whitelists\n     */\n    function userWhitelists(address _user) public view returns(Whitelist[] memory) {\n        return(userToWhitelists[_user]);\n    }\n\n}\n",
  "sourcePath": "/Users/Martin_Balk/projects/stacktical/stacktical-mvp-contracts/contracts/WhitelistRegistry.sol",
  "compiler": {
    "name": "solc",
    "version": "0.5.7+commit.6da8b019.Emscripten.clang"
  },
  "schemaVersion": "3.0.6",
  "updatedAt": "2019-05-01T14:25:59.346Z",
  "devdoc": {
    "details": "WhitelistRegistry is a contract for handling creation of whitelists and querying those whitelists",
    "methods": {
      "createWhitelist()": {
        "details": "public function for creating whitelists"
      },
      "userWhitelists(address)": {
        "details": "public view function that returns the whitelists that are owned by the given user",
        "params": {
          "_user": "Address of the user for which to return the whitelists"
        }
      }
    },
    "title": "WhitelistRegistry"
  },
  "userdoc": {
    "methods": {}
  }
}