{
  "contractName": "Whitelist",
  "abi": [
    {
      "constant": false,
      "inputs": [],
      "name": "renounceOwnership",
      "outputs": [],
      "payable": false,
      "stateMutability": "nonpayable",
      "type": "function"
    },
    {
      "constant": true,
      "inputs": [],
      "name": "owner",
      "outputs": [
        {
          "name": "",
          "type": "address"
        }
      ],
      "payable": false,
      "stateMutability": "view",
      "type": "function"
    },
    {
      "constant": true,
      "inputs": [],
      "name": "isOwner",
      "outputs": [
        {
          "name": "",
          "type": "bool"
        }
      ],
      "payable": false,
      "stateMutability": "view",
      "type": "function"
    },
    {
      "constant": false,
      "inputs": [
        {
          "name": "newOwner",
          "type": "address"
        }
      ],
      "name": "transferOwnership",
      "outputs": [],
      "payable": false,
      "stateMutability": "nonpayable",
      "type": "function"
    },
    {
      "inputs": [
        {
          "name": "_owner",
          "type": "address"
        }
      ],
      "payable": false,
      "stateMutability": "nonpayable",
      "type": "constructor"
    },
    {
      "anonymous": false,
      "inputs": [
        {
          "indexed": true,
          "name": "previousOwner",
          "type": "address"
        },
        {
          "indexed": true,
          "name": "newOwner",
          "type": "address"
        }
      ],
      "name": "OwnershipTransferred",
      "type": "event"
    },
    {
      "constant": false,
      "inputs": [
        {
          "name": "_userAddresses",
          "type": "address[]"
        }
      ],
      "name": "addUsersToWhitelist",
      "outputs": [],
      "payable": false,
      "stateMutability": "nonpayable",
      "type": "function"
    },
    {
      "constant": false,
      "inputs": [
        {
          "name": "_userAddress",
          "type": "address"
        }
      ],
      "name": "addUserToWhitelist",
      "outputs": [],
      "payable": false,
      "stateMutability": "nonpayable",
      "type": "function"
    },
    {
      "constant": false,
      "inputs": [
        {
          "name": "_userAddresses",
          "type": "address[]"
        }
      ],
      "name": "removeUsersFromWhitelist",
      "outputs": [],
      "payable": false,
      "stateMutability": "nonpayable",
      "type": "function"
    },
    {
      "constant": false,
      "inputs": [
        {
          "name": "_userAddress",
          "type": "address"
        }
      ],
      "name": "removeUserFromWhitelist",
      "outputs": [],
      "payable": false,
      "stateMutability": "nonpayable",
      "type": "function"
    },
    {
      "constant": true,
      "inputs": [
        {
          "name": "_userAddress",
          "type": "address"
        }
      ],
      "name": "isWhitelisted",
      "outputs": [
        {
          "name": "",
          "type": "bool"
        }
      ],
      "payable": false,
      "stateMutability": "view",
      "type": "function"
    }
  ],
  "bytecode": "0x608060405234801561001057600080fd5b50604051602080610b478339810180604052602081101561003057600080fd5b8101908080519060200190929190505050336000806101000a81548173ffffffffffffffffffffffffffffffffffffffff021916908373ffffffffffffffffffffffffffffffffffffffff1602179055506000809054906101000a900473ffffffffffffffffffffffffffffffffffffffff1673ffffffffffffffffffffffffffffffffffffffff16600073ffffffffffffffffffffffffffffffffffffffff167f8be0079c531659141344cd1fd0a4f28419497f9722a3daafe3b4186f6b6457e060405160405180910390a36101158161011b640100000000026401000000009004565b506102a9565b610132610158640100000000026401000000009004565b151561013d57600080fd5b610155816101af640100000000026401000000009004565b50565b60008060009054906101000a900473ffffffffffffffffffffffffffffffffffffffff1673ffffffffffffffffffffffffffffffffffffffff163373ffffffffffffffffffffffffffffffffffffffff1614905090565b600073ffffffffffffffffffffffffffffffffffffffff168173ffffffffffffffffffffffffffffffffffffffff16141515156101eb57600080fd5b8073ffffffffffffffffffffffffffffffffffffffff166000809054906101000a900473ffffffffffffffffffffffffffffffffffffffff1673ffffffffffffffffffffffffffffffffffffffff167f8be0079c531659141344cd1fd0a4f28419497f9722a3daafe3b4186f6b6457e060405160405180910390a3806000806101000a81548173ffffffffffffffffffffffffffffffffffffffff021916908373ffffffffffffffffffffffffffffffffffffffff16021790555050565b61088f806102b86000396000f3fe608060405260043610610099576000357c0100000000000000000000000000000000000000000000000000000000900463ffffffff1680633af32abf1461009e5780635ae698ff14610107578063715018a6146101cc578063747b8050146101e35780638d21c770146102345780638da5cb5b146102f95780638f32d59b14610350578063f2fde38b1461037f578063f9902bb1146103d0575b600080fd5b3480156100aa57600080fd5b506100ed600480360360208110156100c157600080fd5b81019080803573ffffffffffffffffffffffffffffffffffffffff169060200190929190505050610421565b604051808215151515815260200191505060405180910390f35b34801561011357600080fd5b506101ca6004803603602081101561012a57600080fd5b810190808035906020019064010000000081111561014757600080fd5b82018360208201111561015957600080fd5b8035906020019184602083028401116401000000008311171561017b57600080fd5b919080806020026020016040519081016040528093929190818152602001838360200280828437600081840152601f19601f820116905080830192505050505050509192919290505050610477565b005b3480156101d857600080fd5b506101e16104ca565b005b3480156101ef57600080fd5b506102326004803603602081101561020657600080fd5b81019080803573ffffffffffffffffffffffffffffffffffffffff16906020019092919050505061059c565b005b34801561024057600080fd5b506102f76004803603602081101561025757600080fd5b810190808035906020019064010000000081111561027457600080fd5b82018360208201111561028657600080fd5b803590602001918460208302840111640100000000831117156102a857600080fd5b919080806020026020016040519081016040528093929190818152602001838360200280828437600081840152601f19601f820116905080830192505050505050509192919290505050610609565b005b34801561030557600080fd5b5061030e61065c565b604051808273ffffffffffffffffffffffffffffffffffffffff1673ffffffffffffffffffffffffffffffffffffffff16815260200191505060405180910390f35b34801561035c57600080fd5b50610365610685565b604051808215151515815260200191505060405180910390f35b34801561038b57600080fd5b506103ce600480360360208110156103a257600080fd5b81019080803573ffffffffffffffffffffffffffffffffffffffff1690602001909291905050506106dc565b005b3480156103dc57600080fd5b5061041f600480360360208110156103f357600080fd5b81019080803573ffffffffffffffffffffffffffffffffffffffff1690602001909291905050506106fb565b005b6000600160008373ffffffffffffffffffffffffffffffffffffffff1673ffffffffffffffffffffffffffffffffffffffff16815260200190815260200160002060009054906101000a900460ff169050919050565b61047f610685565b151561048a57600080fd5b60008090505b81518110156104c6576104b982828151811015156104aa57fe5b9060200190602002015161059c565b8080600101915050610490565b5050565b6104d2610685565b15156104dd57600080fd5b600073ffffffffffffffffffffffffffffffffffffffff166000809054906101000a900473ffffffffffffffffffffffffffffffffffffffff1673ffffffffffffffffffffffffffffffffffffffff167f8be0079c531659141344cd1fd0a4f28419497f9722a3daafe3b4186f6b6457e060405160405180910390a360008060006101000a81548173ffffffffffffffffffffffffffffffffffffffff021916908373ffffffffffffffffffffffffffffffffffffffff160217905550565b6105a4610685565b15156105af57600080fd5b60018060008373ffffffffffffffffffffffffffffffffffffffff1673ffffffffffffffffffffffffffffffffffffffff16815260200190815260200160002060006101000a81548160ff02191690831515021790555050565b610611610685565b151561061c57600080fd5b60008090505b81518110156106585761064b828281518110151561063c57fe5b906020019060200201516106fb565b8080600101915050610622565b5050565b60008060009054906101000a900473ffffffffffffffffffffffffffffffffffffffff16905090565b60008060009054906101000a900473ffffffffffffffffffffffffffffffffffffffff1673ffffffffffffffffffffffffffffffffffffffff163373ffffffffffffffffffffffffffffffffffffffff1614905090565b6106e4610685565b15156106ef57600080fd5b6106f881610769565b50565b610703610685565b151561070e57600080fd5b6000600160008373ffffffffffffffffffffffffffffffffffffffff1673ffffffffffffffffffffffffffffffffffffffff16815260200190815260200160002060006101000a81548160ff02191690831515021790555050565b600073ffffffffffffffffffffffffffffffffffffffff168173ffffffffffffffffffffffffffffffffffffffff16141515156107a557600080fd5b8073ffffffffffffffffffffffffffffffffffffffff166000809054906101000a900473ffffffffffffffffffffffffffffffffffffffff1673ffffffffffffffffffffffffffffffffffffffff167f8be0079c531659141344cd1fd0a4f28419497f9722a3daafe3b4186f6b6457e060405160405180910390a3806000806101000a81548173ffffffffffffffffffffffffffffffffffffffff021916908373ffffffffffffffffffffffffffffffffffffffff1602179055505056fea165627a7a723058204c0509fef852cbb16c862488e55258c7b607ea7646a4b1409fc531eb555d51420029",
  "source": "pragma solidity ^0.5.0;\n\nimport \"openzeppelin-solidity/contracts/ownership/Ownable.sol\";\n\ncontract Whitelist is Ownable {\n\n    mapping(address => bool) private userToWhitelisted;\n\n    constructor(address _owner) public {\n        transferOwnership(_owner);\n    }\n\n    function addUsersToWhitelist(address[] memory _userAddresses) public onlyOwner {\n        for (uint i = 0; i < _userAddresses.length; i++) {\n            addUserToWhitelist(_userAddresses[i]);\n        }\n    }\n\n    function addUserToWhitelist(address _userAddress) public onlyOwner {\n        userToWhitelisted[_userAddress] = true;\n    }\n\n    function removeUsersFromWhitelist(address[] memory _userAddresses) public onlyOwner {\n        for (uint i = 0; i < _userAddresses.length; i++) {\n            removeUserFromWhitelist(_userAddresses[i]);\n        }\n    }\n\n    function removeUserFromWhitelist(address _userAddress) public onlyOwner {\n        userToWhitelisted[_userAddress] = false;\n    }\n\n    function isWhitelisted(address _userAddress) public view returns(bool) {\n        return(userToWhitelisted[_userAddress]);\n    }\n\n}\n",
  "sourcePath": "/Users/Martin_Balk/projects/stacktical/stacktical-mvp-contracts/contracts/Whitelist/Whitelist.sol",
  "compiler": {
    "name": "solc",
    "version": "0.5.0+commit.1d4f565a.Emscripten.clang"
  },
  "schemaVersion": "3.0.2",
  "updatedAt": "2019-02-25T14:48:41.869Z",
  "devdoc": {
    "methods": {
      "isOwner()": {
        "return": "true if `msg.sender` is the owner of the contract."
      },
      "owner()": {
        "return": "the address of the owner."
      },
      "renounceOwnership()": {
        "details": "Allows the current owner to relinquish control of the contract."
      },
      "transferOwnership(address)": {
        "details": "Allows the current owner to transfer control of the contract to a newOwner.",
        "params": {
          "newOwner": "The address to transfer ownership to."
        }
      }
    }
  },
  "userdoc": {
    "methods": {
      "renounceOwnership()": {
        "notice": "Renouncing to ownership will leave the contract without an owner. It will not be possible to call the functions with the `onlyOwner` modifier anymore."
      }
    }
  }
}