{
  "address": "0x5FbDB2315678afecb367f032d93F642f64180aa3",
  "abi": [
    {
      "inputs": [
        {
          "internalType": "address",
          "name": "_address",
          "type": "address"
        }
      ],
      "name": "addressToString",
      "outputs": [
        {
          "internalType": "string",
          "name": "",
          "type": "string"
        }
      ],
      "stateMutability": "pure",
      "type": "function"
    },
    {
      "inputs": [
        {
          "internalType": "bytes32",
          "name": "_bytes32",
          "type": "bytes32"
        }
      ],
      "name": "bytes32ToStr",
      "outputs": [
        {
          "internalType": "string",
          "name": "",
          "type": "string"
        }
      ],
      "stateMutability": "pure",
      "type": "function"
    },
    {
      "inputs": [
        {
          "internalType": "bytes",
          "name": "b",
          "type": "bytes"
        }
      ],
      "name": "bytesToUint",
      "outputs": [
        {
          "internalType": "uint256",
          "name": "result",
          "type": "uint256"
        }
      ],
      "stateMutability": "pure",
      "type": "function"
    },
    {
      "inputs": [
        {
          "internalType": "uint256",
          "name": "_i",
          "type": "uint256"
        }
      ],
      "name": "uintToStr",
      "outputs": [
        {
          "internalType": "string",
          "name": "_uintAsString",
          "type": "string"
        }
      ],
      "stateMutability": "pure",
      "type": "function"
    }
  ],
  "transactionHash": "0x9c2ba439a0c5dc6d42ca74917e32b3c0f3ed5f13cf37c0ea719a7bb552ca1090",
  "args": [],
  "solcInputHash": "739776de8d73cbb47b05a6e677413d19",
  "bytecode": "0x6105d9610026600b82828239805160001a60731461001957fe5b30600052607381538281f3fe73000000000000000000000000000000000000000030146080604052600436106100565760003560e01c806302d06d051461005b5780635e57966d146100dd578063ef0b236814610178578063fc966d4514610195575b600080fd5b6100cb6004803603602081101561007157600080fd5b81019060208101813564010000000081111561008c57600080fd5b82018360208201111561009e57600080fd5b803590602001918460018302840111640100000000831117156100c057600080fd5b5090925090506101b2565b60408051918252519081900360200190f35b610103600480360360208110156100f357600080fd5b50356001600160a01b031661023d565b6040805160208082528351818301528351919283929083019185019080838360005b8381101561013d578181015183820152602001610125565b50505050905090810190601f16801561016a5780820380516001836020036101000a031916815260200191505b509250505060405180910390f35b6101036004803603602081101561018e57600080fd5b50356103bb565b610103600480360360208110156101ab57600080fd5b50356104c8565b6000805b828110156102365760308484838181106101cc57fe5b919091013560f81c9190911080159150610202575060398484838181106101ef57fe5b9050013560f81c60f81b60f81c60ff1611155b1561022e57603084848381811061021557fe5b9050013560f81c60f81b60f81c0360ff1682600a020191505b6001016101b6565b5092915050565b604080518082018252601081526f181899199a1a9b1b9c1cb0b131b232b360811b60208201528151602a80825260608281019094526001600160a01b03851692918491602082018180368337019050509050600360fc1b816000815181106102a157fe5b60200101906001600160f81b031916908160001a905350600f60fb1b816001815181106102ca57fe5b60200101906001600160f81b031916908160001a90535060005b60148110156103b0578260048583600c01602081106102ff57fe5b1a60f81b6001600160f81b031916901c60f81c60ff168151811061031f57fe5b602001015160f81c60f81b82826002026002018151811061033c57fe5b60200101906001600160f81b031916908160001a905350828482600c016020811061036357fe5b825191901a600f1690811061037457fe5b602001015160f81c60f81b82826002026003018151811061039157fe5b60200101906001600160f81b031916908160001a9053506001016102e4565b50925050505b919050565b606060005b60208160ff161080156103ee5750828160ff16602081106103dd57fe5b1a60f81b6001600160f81b03191615155b156103fb576001016103c0565b60608160ff1667ffffffffffffffff8111801561041757600080fd5b506040519080825280601f01601f191660200182016040528015610442576020820181803683370190505b509050600091505b60208260ff161080156104785750838260ff166020811061046757fe5b1a60f81b6001600160f81b03191615155b156104c157838260ff166020811061048c57fe5b1a60f81b818360ff168151811061049f57fe5b60200101906001600160f81b031916908160001a90535060019091019061044a565b9392505050565b606081806104ef5750506040805180820190915260018152600360fc1b60208201526103b6565b8060005b811561050757600101600a820491506104f3565b60608167ffffffffffffffff8111801561052057600080fd5b506040519080825280601f01601f19166020018201604052801561054b576020820181803683370190505b50905060001982015b841561059957600a850660300160f81b8282806001900393508151811061057757fe5b60200101906001600160f81b031916908160001a905350600a85049450610554565b509594505050505056fea26469706673582212203408350d85f8d82791fd769bf0fe4e735c7271499a86b79a9430a1e4f9e6ce3e64736f6c63430006060033",
  "devdoc": {
    "methods": {}
  },
  "userdoc": {
    "methods": {}
  },
  "storageLayout": {
    "storage": [],
    "types": null
  }
}